FHDNNNN005001223001223001223N                                                                                           003691
RHD08441000NN02120212000002120000000002120212000303NY021202120212000000030000000000000000000002    12162014NY020000 N         
CUS0844100000108207886006         ASSOC CATHOLIC CHARI600 CHERRY HILL RD                      000N        CARE OF             
MTR08441000001000000000000000RA              27821163    005800010000000100000520000003NN  NNW 000                       N    
RDG08441000WATRL000000004K00000000000002303004612232014084543N000000000000N89       000600400K 10000000010000002241           
CUS0844100000108207887004         ASSOC CATHOLIC CHARI602-04 CHERRY HILL RD                   000N        CARE OF             
MTR08441000001000000000000000RA              01106495    005800020000000200000610000003NN  NNW 000                       N    
RDG08441000WATRL000000004K00000000000000681004712232014084602N000000000000N89       000190400K 10000000010000000672           
CUS0844100000108207888002         ASSOC CATHOLIC CHARI606 CHERRY HILL RD                      000N        CARE OF             
MTR08441000001000000000000000RA              26015462    005800030000000300000520000003NN  NNW 000                       N    
RDG08441000WATRL000000004K00000000000000000004812232014084647S002000000000N89       000450400K 10000000010000001981           
CUS0844100000108207889000         ASSOC CATHOLIC CHARI608 CHERRY HILL RD                      000N        CARE OF             
MTR08441000001000000000000000RA              42810729    005800040000000400000520000003NN  NNW 000                       N    
RDG08441000WATRL000000004K00000000000000000004912232014084651S002000000000N89       000040400K 10000000010000000820           
CUS0844100000108207890008         ASSOC CATHOLIC CHARI610 CHERRY HILL RD                      000N        CARE OF             
MTR08441000001000000000000000RA              33415905    001500050000000500000520000003NN  NNW 000                       N    
RDG08441000WATRL000000005K00000000000008260005012232014084654N000000000000N89       000030500K 10000000010000008189           
CUS0844100000108207892004         ASSOCIATED CATHOLIC 616-18 CHERRY HILL RD                   000N        CARE OF             
MTR08441000001000000000000000RA              27893475    007500060000000600000520000003NN  NNW 000                       N    
RDG08441000WATRL000000004K00000000000002623004512232014084443N000000000000N89       000040400K 10000000010000002623           
CUS0844100000108207893002         ASSOC CATHOLIC CHARI620 CHERRY HILL RD                      000N        CARE OF             
MTR08441000001000000000000000RA              36700253    001500070000000700000520000003NN  NNW 000                       N    
RDG08441000WATRL000000005K00000000000015296004412232014084439N000000000000N89       000190500K 10000000010000014905           
CUS0844100000108207894000         ASSOC CATHOLIC CHARI622 CHERRY HILL RD                      000N        CARE OF             
MTR08441000001000000000000000RA              01081573    005800080000000800000610000003NN  NNW 000                       N    
RDG08441000WATRL000000004K00000000000000700004312232014084420N000100000020N89       000620400K 10000000010000000700           
CUS0844100000108207895007         ASSOCIATED CATHOLIC 624-26 CHERRY HILL RD                   000N        CARE OF             
MTR08441000001000000000000000RA              00119494    007500090000000900000570000003NN  NNW 000                       N    
RDG08441000WATRL000000004K00000000000000151004212232014084318N000000000000N89       000300400K 10000000010000000150           
CUS0844100000108207896005         ASSOC CATHOLIC CHARI628-30 CHERRY HILL RD                   000N        CARE OF             
MTR08441000001000000000000000RA              43905290    007500100000001000000520000003NN  NNW 000                       N    
RDG08441000WATRL000000004K00000000000003709004112232014084248N000000000000N89       000210400K 10000000010000003684           
CUS0844100000108207897003         ASSOC CATHOLIC CHARI632 CHERRY HILL RD                      000N        CARE OF             
MTR08441000001000000000000000RA              41089700    007500110000001100000520000003NN  NNW 000                       N    
RDG08441000WATRL000000004K00000000000006641004012232014084227N000000000000N89       000230400K 10000000010000006630           
CUS0844100000108207898001         ASSOCIATED CATHOLIC 634 CHERRY HILL RD                      000N        CARE OF             
MTR08441000001000000000000000RA              46881670    005800120000001200000520000003NN  NNW 000                       N    
RDG08441000WATRL000000004K00000000000000186003812232014084202N000000000000N89       002470400K 10000000010000000184           
CUS0844100000108207899009         ASSOCIATED CATHOLIC 636 CHERRY HILL RD                      000N        CARE OF             
MTR08441000001000000000000000RA              46876818    005800130000001300000520000003NN  NNW 000                       N    
RDG08441000WATRL000000004K00000000000000355003912232014084204N000000000000N89       000020400K 10000000010000000355           
CUS0844100000108207900005         FAMILY DOLLAR # 8176640 CHERRY HILL RD                      000N        CARE OF             
MTR08441000001000000000000000RA              36700136    001500140000001400000520000003NN  NNW 000                       N    
RDG08441000WATRL000000005K00000000000007039005112232014084702N000000000000N89       000080500K 10000000010000007039           
CUS0844100000108207902001         BURRELL, JAMES      651 HILLVIEW RD                         000N        CARE OF             
MTR08441000001000000000000000RA              46880787    005800150000001500000520000003NN  NNW 000                       N    
RDG08441000WATRL000000004K00000000000002692000112292014095859N000000000000U89       000000400K 10000000010000002678           
CUS0844100000108207903009         BURRELL, JAMES R    649 HILLVIEW RD                         000N        CARE OF             
MTR08441000001000000000000000RA              2287364     005800160000001600000530000003NN  NNW 000   VACANT PROPERTY     N    
RDG08441000WATRL000000004K00000000000000000000212292014095921S002000000000U89       000220400K 10000000010000000812           
CUS0844100000108207904007         SMITH, PERCILLER T. 647 HILLVIEW RD                         000N        CARE OF             
MTR08441000001000000000000000RA              01106178    005800170000001700000610000000NY  NNW 000                       N    
MTM0844100001106178    LEAK                                                                                                   
RDG08441000WATRL000000004K00000000000000108000312292014095925N000400000010U89       000040400K 10000000010000000092           
CUS0844100000108207905004         WILLIE A MASHBURN   645 HILLVIEW RD                         000N        CARE OF             
MTR08441000001000000000000000RA              31936726    005800180000001800000520000003NN  NNW 000                       N    
RDG08441000WATRL000000004K00000000000002203000412292014100021N000000000000U89       000560400K 10000000010000002195           
CUS0844100000108207906002         JEROME & VERA SPRIGG643 HILLVIEW RD                         000N        CARE OF             
MTR08441000001000000000000000RA              24771713    005800190000001900000520000003NN  NNW 000                       N    
RDG08441000WATRL000000004K00000000000002077000512292014100032N000000000000U89       000110400K 10000000010000002072           
CUS0844100000108207907000         BARNETT, WANDA LENOR641 HILLVIEW RD                         000N        CARE OF             
MTR08441000001000000000000000RA              44089304    005800200000002000000520000003NN  NNW 000                       N    
RDG08441000WATRL000000004K00000000000001760000612292014100055N000000000000U89       000230400K 10000000010000001752           
CUS0844100000108207908008         STEPHEN VENABLE     639 HILLVIEW RD                         000N        CARE OF             
MTR08441000001000000000000000RA              44089292    005800210000002100000520000003NN  NNW 000                       N    
RDG08441000WATRL000000004K00000000000001287000712292014100057N000000000000U89       000020400K 10000000010000001284           
CUS0844100000108207909006         ANGELA D CORNISH    637 HILLVIEW RD                         000N        CARE OF             
MTR08441000001000000000000000RA              41087688    005800220000002200000520000003NN  NNW 000                       N    
RDG08441000WATRL000000004K00000000000002108000812292014100110N000000000000U89       000130400K 10000000010000002078           
CUS0844100000108207910004         BASKERVILLE, JUNE LA635 HILLVIEW RD                         000N        CARE OF             
MTR08441000001000000000000000RA              41087897    005800230000002300000520000003NN  NNW 000                       N    
RDG08441000WATRL000000004K00000000000002213000912292014100114N000000000000U89       000040400K 10000000010000002204           
CUS0844100000108207911002         THOMAS W MILLS      633 HILLVIEW RD                         000N        CARE OF             
MTR08441000001000000000000000RA              52770091    005800240000002400000520000000NN  NNW 000                       N    
RDG08441000WATRL000000004K00000000000000897001012292014100141N000300000010U89       000270400K 10000000010000000875           
CUS0844100000108207912000         CHARLES B HARRELL & 631 HILLVIEW RD                         000N        CARE OF             
MTR08441000001000000000000000RA              54351511    005800250000002500000520000003NN  NNW 000                       N    
RDG08441000WATRL000000004K00000000000001932001112292014100143N000000000000U89       000020400K 10000000010000001913           
CUS0844100000108207913008         WEEMS SR., JOHN H   629 HILLVIEW RD                         000N        CARE OF             
MTR08441000001000000000000000RA              42808927    005800260000002600000520000003NN  NNW 000                       N    
RDG08441000WATRL000000004K00000000000001339001212292014100211N000000000000U89       000280400K 10000000010000001336           
CUS0844100000108207914006         WEBB, KHADIJAH      627 HILLVIEW RD                         000N        CARE OF             
MTR08441000001000000000000000RA              42808929    005800270000002700000520000003NN  NNW 000                       N    
RDG08441000WATRL000000004K00000000000001790001312292014100213N000000000000U89       000020400K 10000000010000001777           
CUS0844100000108207915003         ALLEN, GREGORY L    625 HILLVIEW RD                         000N        CARE OF             
MTR08441000001000000000000000RA              50478696    005800280000002800000520000000NN  NNW 000                       N    
RDG08441000WATRL000000004K00000000000000599001412292014100240N000000000000U89       000270400K 10000000010000000599           
CUS0844100000108207916001         TILLERY, REGINALD L.623 HILLVIEW RD                         000N        CARE OF             
MTR08441000001000000000000000RA              50478699    005800290000002900000520000003NN  NNW 000                       N    
RDG08441000WATRL000000004K00000000000001377001512292014100242N000000000000U89       000020400K 10000000010000001362           
CUS0844100000108207917009         RUDOLPH D SMITH     621 HILLVIEW RD                         000N        CARE OF             
MTR08441000001000000000000000RA              99291931    005800300000003000000570000003NN  NNW 000                       N    
RDG08441000WATRL000000004K00000000000000527001612292014100307N000000000000U89       000250400K 10000000010000000518           
CUS0844100000108207918007         ROYREAL S RHINES    619 HILLVIEW RD                         000N        CARE OF             
MTR08441000001000000000000000RA              99188414    005800310000003100000570000003NN  NNW 000                       N    
RDG08441000WATRL000000004K00000000000001243001712292014100309N000000000000U89       000020400K 10000000010000001225           
CUS0844100000108207919005         JACKSON, LOLEVIA   (617 HILLVIEW RD                         000N        CARE OF             
MTR08441000001000000000000000RA              01106466    005800320000003200000610000000NN  NNW 000                       N    
RDG08441000WATRL000000004K00000000000001106001812292014100355N000000000000U89       000460400K 10000000010000001079           
CUS0844100000108207920003         GRAINGER, GREGORY KE615 HILLVIEW RD                         000N        CARE OF             
MTR08441000001000000000000000RA              24231383    005800330000003300000520000003NN  NNW 000                       N    
RDG08441000WATRL000000004K00000000000002866001912292014100424N000000000000U89       000290400K 10000000010000002854           
CUS0844100000108207921001         GRAINGER, GARY      613 HILLVIEW RD                         000N        CARE OF             
MTR08441000001000000000000000RA              35111540    005800340000003400000520000003NN  NNW 000                       N    
RDG08441000WATRL000000004K00000000000001289002012292014100426N000000000000U89       000020400K 10000000010000001286           
CUS0844100000108207922009         CHARLES E BROOKS    611 HILLVIEW RD                         000N        CARE OF             
MTR08441000001000000000000000RA              24223676    005800350000003500000520000000NN  NNW 000                       N    
RDG08441000WATRL000000004K00000000000001344002112292014100527N000000000000U89       000610400K 10000000010000001344           
CUS0844100000108207923007         SHELTON BURTON      609 HILLVIEW RD                         000N        CARE OF             
MTR08441000001000000000000000RA              35111583    005800360000003600000520000003NN  NNW 000                       N    
RDG08441000WATRL000000004K00000000000001594002212292014100529N000000000000U89       000020400K 10000000010000001582           
CUS0844100000108207924005         JOHNSON JR, CLAUDE  607 HILLVIEW RD                         000N        CARE OF             
MTR08441000001000000000000000RA              14909818    005800370000003700000310000003NN  NNW 000                       N    
RDG08441000WATRL000000004K00000000000001636002312292014100604N000000000000U89       000350400K 10000000010000001623           
CUS0844100000108207925002         WEAVER, ELAINE E    605 HILLVIEW RD                         000N        CARE OF             
MTR08441000001000000000000000RA              35111543    005800380000003800000520000000NN  NNW 000                       N    
RDG08441000WATRL000000004K00000000000001111002412292014100607N000000000000U89       000030400K 10000000010000001105           
CUS0844100000108207926000         WEST, DORIS J.      603 HILLVIEW RD                         000N        CARE OF             
MTR08441000001000000000000000RA              35111584    005800390000003900000520000000NN  NNW 000                       N    
RDG08441000WATRL000000004K00000000000002222002512292014100622N000000000000U89       000150400K 10000000010000002203           
CUS0844100000108207927008         PARKS, MATILDA A    601 HILLVIEW RD                         000N        CARE OF             
MTR08441000001000000000000000RA              35111586    005800400000004000000520000003NN  NNW 000                       N    
RDG08441000WATRL000000004K00000000000002581002612292014100624N000000000000U89       000020400K 10000000010000002570           
CUS0844100000108207928006         ANDREWS, GWENDOLYN M600 HILLVIEW RD                         000N        CARE OF             
MTR08441000001000000000000000RA              35111545    005800410000004100000520000003NN  NNW 000                       N    
RDG08441000WATRL000000004K00000000000001422002712292014100649N000000000000U89       000250400K 10000000010000001420           
CUS0844100000108207929004         ALLEN LEE WASHINGTON602 HILLVIEW RD                         000N        CARE OF             
MTR08441000001000000000000000RA              35111542    005800420000004200000520000000NN  NNW 000                       N    
RDG08441000WATRL000000004K00000000000001979002812292014100653N000400000010U89       000040400K 10000000010000001945           
CUS0844100000108207930002         LEE, BARBARA A      604 HILLVIEW RD                         000N        CARE OF             
MTR08441000001000000000000000RA              01103720    005800430000004300000610000000NN  NNW 000                       N    
RDG08441000WATRL000000004K00000000000000728002912292014100726N000000000000U89       000330400K 10000000010000000707           
CUS0844100000108207931000         GAITHER, ANGELA     606 HILLVIEW RD                         000N        CARE OF             
MTR08441000001000000000000000RA              01103714    005800440000004400000610000003NN  NNW 000                       N    
RDG08441000WATRL000000004K00000000000000979003012292014100730N000000000000U89       000040400K 10000000010000000954           
CUS0844100000108207932008         CHERATON, LLC       608 HILLVIEW RD                         000N        CARE OF             
MTR08441000001000000000000000RA              01081598    005800450000004500000610000003NN  NNW 000                       N    
RDG08441000WATRL000000004K00000000000000295003112292014100753N000000000000U89       000230400K 10000000010000000291           
CUS0844100000108207933006         ETHEL MAE SIMMONS   610 HILLVIEW RD                         000N        CARE OF             
MTR08441000001000000000000000RA              01081599    005800460000004600000610000003NN  NNW 000                       N    
RDG08441000WATRL000000004K00000000000000881003212292014100755N000000000000U89       000020400K 10000000010000000867           
CUS0844100000108207934004         WALLACE A KELLY     612 HILLVIEW RD                         000N        CARE OF             
MTR08441000001000000000000000RA              75615623    005800470000004700000350000000NN  NNW 000                       N    
RDG08441000WATRL000000004K00000000000000137003312292014100816N000000000000U89       000210400K 10000000010000000099           
CUS0844100000108207935001         WALL JR., CHARLES A.614 HILLVIEW RD                         000N        CARE OF             
MTR08441000001000000000000000RA              74691424    005800480000004800000350000003NN  NNW 000                       N    
RDG08441000WATRL000000004K00000000000000134003412292014100819N000400000010U89       000030400K 10000000010000000132           
CUS0844100000108207937007         ROBERTS, PATRICIA N.618 HILLVIEW RD                         000N        CARE OF             
MTR08441000001000000000000000RA              01081574    005800490000004900000610000003NN  NNW 000                       N    
RDG08441000WATRL000000004K00000000000000597003512292014100902N000100000010U89       000430400K 10000000010000000597           
CUS0844100000108207938005         W.K. GRIMES         620 HILLVIEW RD                         000N        CARE OF             
MTR08441000001000000000000000RA              10006278    005800500000005000000570000003NN  NNW 000                       N    
RDG08441000WATRL000000004K00000000000000408003612292014100904N000000000000U89       000020400K 10000000010000000399           
CUS0844100000108207939003         JOHNSON JR., JOHN E 622 HILLVIEW RD                         000N        CARE OF             
MTR08441000001000000000000000RA              14905643    005800510000005100000310000000NN  NNW 000                       N    
RDG08441000WATRL000000004K00000000000000407003712292014100937N000000000000U89       000330400K 10000000010000000391           
CUS0844100000108207940001         ERNEST W BIAS EST. O624 HILLVIEW RD                         000N        CARE OF             
MTR08441000001000000000000000RA              14901793    005800520000005200000310000003NN  NNW 000                       N    
RDG08441000WATRL000000004K00000000000001162003812292014100939N000000000000U89       000020400K 10000000010000001128           
CUS0844100000108207941009         JOHN E JOHNSON JR   626 HILLVIEW RD                         000N        CARE OF             
MTR08441000001000000000000000RA              31583590    005800530000005300000520000003NN  NNW 000                       N    
RDG08441000WATRL000000004K00000000000001534003912292014100959N000000000000U89       000200400K 10000000010000001532           
CUS0844100000108207942007         ADDIE L PEARSON     628 HILLVIEW RD                         000N        CARE OF             
MTR08441000001000000000000000RA              31583548    005800540000005400000520000003NN  NNW 000                       N    
RDG08441000WATRL000000004K00000000000003681004012292014101018N000000000010U89       000190400K 10000000010000003661           
CUS0844100000108207943005         MYRA BOSWELL        630 HILLVIEW RD                         000N        CARE OF             
MTR08441000001000000000000000RA              44089345    005800550000005500000520000000NN  NNW 000                       N    
RDG08441000WATRL000000004K00000000000001377004112292014101033N000000000000U89       000150400K 10000000010000001367           
CUS0844100000108207944003         EATON JR., ORREN    632 HILLVIEW RD                         000N        CARE OF             
MTR08441000001000000000000000RA              26000623    005800560000005600000520000003NN  NNW 000                       N    
RDG08441000WATRL000000004K00000000000003214004212292014101035N000000000000U89       000020400K 10000000010000003201           
CUS0844100000108207945000         FIELDS, JOHN        634 HILLVIEW RD                         000N        CARE OF             
MTR08441000001000000000000000RA              01081579    005800570000005700000610000003NN  NNW 000                       N    
RDG08441000WATRL000000004K00000000000000653004312292014101104N000000000000U89       000290400K 10000000010000000637           
CUS0844100000108207946008         ORREN EATON & WF    636 HILLVIEW RD                         000N        CARE OF             
MTR08441000001000000000000000RA              54351430    005800580000005800000520000003NN  NNW 000                       N    
RDG08441000WATRL000000004K00000000000001617004412292014101108N000400000010U89       000040400K 10000000010000001589           
CUS0844100000108207947006         SCAIFE, DORIS H.    638 HILLVIEW RD                         000N        CARE OF             
MTR08441000001000000000000000RA              44089302    005800590000005900000520000003NN  NNW 000                       N    
RDG08441000WATRL000000004K00000000000000564004512292014101110N000000000000U89       000020400K 10000000010000000564           
CUS0844100000108207948004         HARRISON, LELIA     640 HILLVIEW RD                         000N        CARE OF             
MTR08441000001000000000000000RA              44089289    005800600000006000000520000003NN  NNW 000                       N    
RDG08441000WATRL000000004K00000000000001963004612292014101132N000000000000U89       000220400K 10000000010000001960           
CUS0844100000108207949002         EARL KING           642 HILLVIEW RD                         000N        CARE OF             
MTR08441000001000000000000000RA              35111623    005800610000006100000520000003NN  NNW 000   VACANT PROPERTY     N    
RDG08441000WATRL000000004K00000000000001660004712292014101139N000000000000U89       000070400K 10000000010000001660           
CUS0844100000108207950000         FERIAL, LLC         644 HILLVIEW RD                         000N        CARE OF             
MTR08441000001000000000000000RA              35111621    005800620000006200000520000003NN  NNW 000                       N    
RDG08441000WATRL000000004K00000000000002644004812292014101141N000000000000U89       000020400K 10000000010000002644           
CUS0844100000108207951008         JOHN E PERSON JR    646 HILLVIEW RD                         000N        CARE OF             
MTR08441000001000000000000000RA              35111622    005800630000006300000520000003NN  NNW 000                       N    
RDG08441000WATRL000000004K00000000000002925004912292014101205N000000000000U89       000240400K 10000000010000002911           
CUS0844100000108207952006         JOYNER JR., DAN     648 HILLVIEW RD                         000N        CARE OF             
MTR08441000001000000000000000RA              35111671    005800640000006400000520000003NN  NNW 000                       N    
RDG08441000WATRL000000004K00000000000002762005012292014101216N000000000000U89       000110400K 10000000010000002743           
CUS0844100000108207953004         ALEXANDER, APRIL    650 HILLVIEW RD                         000N        CARE OF             
MTR08441000001000000000000000RA              35111618    005800650000006500000520000003NN  NNW 000                       N    
RDG08441000WATRL000000004K00000000000001053005112292014101237N000000000000U89       000210400K 10000000010000001053           
CUS0844100000108207954002         WALLS JR., CHARLES A651 CHERATON RD                         000N        CARE OF             
MTR08441000001000000000000000RA              01081572    005800660000006600000610000003NN  NNW 000                       N    
RDG08441000WATRL000000004K00000000000000688005212292014101350N000000000000U89       000730400K 10000000010000000677           
CUS0844100000108207955009         JOHNSON JR, CLAUDE  649 CHERATON RD                         000N        CARE OF             
MTR08441000001000000000000000RA              01081576    005800670000006700000610000003NN  NNW 000                       N    
RDG08441000WATRL000000004K00000000000001233005312292014101417N000000000000U89       000270400K 10000000010000001224           
CUS0844100000108207956007         FRANCIS CLEMENTS    647 CHERATON RD                         000N        CARE OF             
MTR08441000001000000000000000RA              35114194    005800680000006800000520000000NN  NNW 000                       N    
RDG08441000WATRL000000004K00000000000001455005412292014101419N000000000000U89       000020400K 10000000010000001455           
CUS0844100000108207957005         OCWEN LOAN SERVICING645 CHERATON RD                         000N        CARE OF             
MTR08441000001000000000000000RA              14909817    005800690000006900000310000000NN  NNW 000                       N    
RDG08441000WATRL000000004K00000000000000558005512292014101442N000000000000U89       000230400K 10000000010000000558           
CUS0844100000108207958003         EDDIE O VINSON      643 CHERATON RD                         000N        CARE OF             
MTR08441000001000000000000000RA              14909918    005800700000007000000310000003NN  NNW 000                       N    
RDG08441000WATRL000000004K00000000000000329005612292014101444N000000000000U89       000020400K 10000000010000000326           
CUS0844100000108207959001         PINKNEY, THOMAS A   641 CHERATON RD                         000N        CARE OF             
MTR08441000001000000000000000RA              29402255    005800710000007100000520000000NN  NNW 000                       N    
RDG08441000WATRL000000004K00000000000003023005712292014101502N000000000000U89       000180400K 10000000010000002996           
CUS0844100000108207960009         NELSON, REGINALD B  639 CHERATON RD                         000N        CARE OF             
MTR08441000001000000000000000RA              54351510    005800720000007200000520000003NN  NNW 000                       N    
RDG08441000WATRL000000004K00000000000000490005812292014101513N000000000000U89       000110400K 10000000010000000484           
CUS0844100000108207961007         HASKINS, TAMMY L    637 CHERATON RD                         000N        CARE OF             
MTR08441000001000000000000000RA              01115180    005800730000007300000610000000NN  NNW 000                       N    
RDG08441000WATRL000000004K00000000000000799005912292014101545N000000000000U89       000320400K 10000000010000000784           
CUS0844100000108207962005         MYRON E HOLLY & WF  635 CHERATON RD                         000N        CARE OF             
MTR08441000001000000000000000RA              01114890    005800740000007400000610000003NN  NNW 000                       N    
RDG08441000WATRL000000004K00000000000000618006012292014101557N000000000000U89       000120400K 10000000010000000612           
CUS0844100000108207963003         BURRELL, JAMES R    633 CHERATON RD                         000N        CARE OF             
MTR08441000001000000000000000RA              14925363    005800750000007500000310000003NN  NNW 000                       N    
RDG08441000WATRL000000004K00000000000000197006112292014101622N000000000000U89       000250400K 10000000010000000197           
CUS0844100000108207964001         BURRELL, JAMES      631 CHERATON RD                         000N        CARE OF             
MTR08441000001000000000000000RA              14908533    005800760000007600000310000003NN  NNW 000                       N    
RDG08441000WATRL000000004K00000000000000790006212292014101628N000400000010U89       000060400K 10000000010000000787           
CUS0844100000108207965008         CLEMENTS, SHARON Y. 629 CHERATON RD                         000N        CARE OF             
MTR08441000001000000000000000RA              01081570    005800770000007700000610000003NN  NNW 000                       N    
RDG08441000WATRL000000004K00000000000000776006312292014101653N000000000000U89       000250400K 10000000010000000756           
CUS0844100000108207966006         JONES, ALICE     (LI627 CHERATON RD                         000N        CARE OF             
MTR08441000001000000000000000RA              01081578    005800780000007800000610000003NN  NNW 000                       N    
RDG08441000WATRL000000004K00000000000000530006412292014101701N000100000010U89       000080400K 10000000010000000530           
CUS0844100000108207967004         MABLE HILL ETAL     625 CHERATON RD                         000N        CARE OF             
MTR08441000001000000000000000RA              26000020    005800790000007900000520000003NN  NNW 000                       N    
RDG08441000WATRL000000004K00000000000002548006512292014101724N000000000000U89       000230400K 10000000010000002532           
CUS0844100000108207968002         BOOTH, SHARON       623 CHERATON RD                         000N        CARE OF             
MTR08441000001000000000000000RA              75616126    005800800000008000000350000003NN  NNW 000                       N    
RDG08441000WATRL000000004K00000000000000015006612292014101726N000000000000U89       000020400K 10000000010000000006           
CUS0844100000108207969000         GWENDELL T CHARLES  621 CHERATON RD                         000N        CARE OF             
MTR08441000001000000000000000RA              35114193    005800810000008100000520000003NN  NNW 000                       N    
RDG08441000WATRL000000004K00000000000002038006712292014101747N000000000000U89       000210400K 10000000010000002032           
CUS0844100000108207970008         KING, FREDDIE B.    619 CHERATON RD                         000N        CARE OF             
MTR08441000001000000000000000RA              35114042    005800820000008200000520000003NN  NNW 000                       N    
RDG08441000WATRL000000004K00000000000003200006812292014101750N000000000000U89       000030400K 10000000010000003200           
CUS0844100000108207971006         FRANCES HARRIS      617 CHERATON RD                         000N        CARE OF             
MTR08441000001000000000000000RA              35114045    005800830000008300000520000003NN  NNW 000                       N    
RDG08441000WATRL000000004K00000000000002143006912292014101812N000000000000U89       000220400K 10000000010000002137           
CUS0844100000108207972004         NEXT GEN, LLC       615 CHERATON RD                         000N        CARE OF             
MTR08441000001000000000000000RA              35114195    005800840000008400000520000003NN  NNW 000                       N    
RDG08441000WATRL000000004K00000000000002979007012292014101833N000000000000U89       000210400K 10000000010000002954           
CUS0844100000108207973002         RICHARD T THOMAS    613 CHERATON RD                         000N        CARE OF             
MTR08441000001000000000000000RA              41590668    005800850000008500000520000003NN  NNW 000                       N    
RDG08441000WATRL000000004K00000000000001104007112292014101835N000000000000U89       000020400K 10000000010000001104           
CUS0844100000108207974000         OBI, OLIVER         611 CHERATON RD                         000N        CARE OF             
MTR08441000001000000000000000RA              99292269    005800860000008600000570000003NN  NNW 000                       N    
RDG08441000WATRL000000004K00000000000000000007212292014101908N000004100010U89       000330400K 10000000010000002444           
CUS0844100000108207975007         CHARLES A FRANKLIN  609 CHERATON RD                         000N        CARE OF             
MTR08441000001000000000000000RA              35114046    005800870000008700000520000003NN  NNW 000                       N    
RDG08441000WATRL000000004K00000000000001081007312292014101912N000300000010U89       000040400K 10000000010000001072           
CUS0844100000108207976005         MCDOW, RINARDA A.   607 CHERATON RD                         000N        CARE OF             
MTR08441000001000000000000000RA              3511404     005800880000008800000520000003NN  NNW 000                       N    
RDG08441000WATRL000000004K00000000000001166007412292014101921N000000000000U89       000090400K 10000000010000001166           
CUS0844100000108207977003         MACKALL, TONY D     605 CHERATON RD                         000N        CARE OF             
MTR08441000001000000000000000RA              32898108    005800890000008900000520000003NN  NNW 000                       N    
RDG08441000WATRL000000004K00000000000002073007512292014101950N000000000000U89       000290400K 10000000010000002064           
CUS0844100000108207978001         JOHN GRASSO         603 CHERATON RD                         000N        CARE OF             
MTR08441000001000000000000000RA              46887391    005800900000009000000520000003NN  NNW 000                       N    
RDG08441000WATRL000000004K00000000000001906007612292014102012N000000000000U89       000220400K 10000000010000001888           
CUS0844100000108207979009         JAMES L BUNDY       601 CHERATON RD                         000N        CARE OF             
MTR08441000001000000000000000RA              46888599    005800910000009100000520000003NN  NNW 000   VACANT PROPERTY     N    
RDG08441000WATRL000000004K00000000000001672007712292014102014N000000000000U89       000020400K 10000000010000001672           
CUS0844100000108207980007         PARKER, BARBARA JEAN600 CHERATON RD                         000N        CARE OF             
MTR08441000001000000000000000RA              14904207    005800920000009200000310000003NN  NNW 000                       N    
RDG08441000WATRL000000004K00000000000000495007812292014102045N000000000000U89       000310400K 10000000010000000486           
CUS0844100000108207981005         HENDERSON, BOBBIE J 602 CHERATON RD                         000N        CARE OF             
MTR08441000001000000000000000RA              14904179    005800930000009300000310000003NN  NNW 000                       N    
RDG08441000WATRL000000004K00000000000000209007912292014102048N000000000000U89       000030400K 10000000010000000206           
CUS0844100000108207982003         GOLDEN KEY PROPERTY 604 CHERATON RD                         000N        CARE OF             
MTR08441000001000000000000000RA              99292274    005800940000009400000570000003NN  NNW 000                       N    
RDG08441000WATRL000000004K00000000000001103008012292014102135N000000000000U89       000470400K 10000000010000001102           
CUS0844100000108207983001         CHEEKS, BARBARA CLOP606 CHERATON RD                         000N        CARE OF             
MTR08441000001000000000000000RA              99292271    005800950000009500000570000003NN  NNW 000                       N    
RDG08441000WATRL000000004K00000000000000814008112292014102136N000000000000U89       000010400K 10000000010000000805           
CUS0844100000108207984009         608 CHERATON LLC    608 CHERATON RD                         000N        CARE OF             
MTR08441000001000000000000000RA              27131774    005800960000009600000520000003NN  NNW 000                       N    
RDG08441000WATRL000000004K00000000000001248008212292014102213N000400000010U89       000370400K 10000000010000001241           
CUS0844100000108207985006         WILLARD A PINKNEY JR610 CHERATON RD                         000N        CARE OF             
MTR08441000001000000000000000RA              52768860    005800970000009700000520000003NN  NNW 000                       N    
RDG08441000WATRL000000004K00000000000002764008312292014102216N000000000000U89       000030400K 10000000010000002764           
CUS0844100000108207986004         CLAUDE D JOHNSON & W612 CHERATON RD                         000N        CARE OF             
MTR08441000001000000000000000RA              46880790    005800980000009800000520000003NN  NNW 000                       N    
RDG08441000WATRL000000004K00000000000000919008412292014102247N000000000000U89       000310400K 10000000010000000912           
CUS0844100000108207987002         WILLIAM F MIDDLETON 614 CHERATON RD                         000N        CARE OF             
MTR08441000001000000000000000RA              27819200    005800990000009900000520000003NN  NNW 000                       N    
RDG08441000WATRL000000004K00000000000002957008512292014102251N000000000000U89       000040400K 10000000010000002953           
CUS0844100000108207988000         JAMES R BURRELL     616 CHERATON RD                         000N        CARE OF             
MTR08441000001000000000000000RA              27131778    005801000000010000000520000003NN  NNW 000                       N    
RDG08441000WATRL000000004K00000000000000938008612292014102336N000100000010U89       000450400K 10000000010000000938           
CUS0844100000108207989008         JOHNSON, VIRGIL A   618 CHERATON RD                         000N        CARE OF             
MTR08441000001000000000000000RA              23646511    005801010000010100000520000003NN  NNW 000                       N    
RDG08441000WATRL000000004K00000000000001740008712292014102414N000000000000U89       000380400K 10000000010000001737           
CUS0844100000108207990006         VICTOR JOHNSON      620 CHERATON RD                         000N        CARE OF             
MTR08441000001000000000000000RA              29685029    005801020000010200000520000003NN  NNW 000   VACANT PROPERTY     N    
RDG08441000WATRL000000004K00000000000003094008812292014102417N000000000000U89       000030400K 10000000010000003094           
CUS0844100000108207991004         MARTIN, LATOYA E.   622 CHERATON RD                         000N        CARE OF             
MTR08441000001000000000000000RA              27131773    005801030000010300000520000003NN  NNW 000                       N    
RDG08441000WATRL000000004K00000000000003063008912292014102453N000000000000U89       000360400K 10000000010000003052           
CUS0844100000108207992002         WILLIAM CAMPBELL    624 CHERATON RD                         000N        CARE OF             
MTR08441000001000000000000000RA              00127271    005801040000010400000570000003NN  NNW 000                       N    
RDG08441000WATRL000000004K00000000000001049009012312014152039O000400000010U87       000180400K 10000000010000001029           
CUS0844100000108207993000         CHARLIE TRAYNHAM    626 CHERATON RD                         000N        CARE OF             
MTR08441000001000000000000000RA              99291930    005801050000010500000570000003NN  NNW 000                       N    
RDG08441000WATRL000000004K00000000000001107009112292014102535N000000000000U89       000240400K 10000000010000001095           
CUS0844100000108207994008         2009 DRR-ETS, LLC   628 CHERATON RD                         000N        CARE OF             
MTR08441000001000000000000000RA              99292236    005801060000010600000570000003NN  NNW 000                       N    
RDG08441000WATRL000000004K00000000000001077009212292014102538N000000000000U89       000030400K 10000000010000001064           
CUS0844100000108207995005         WRIGHT, SANFORD     630 CHERATON RD                         000N        CARE OF             
MTR08441000001000000000000000RA              14904209    005801070000010700000310000003NN  NNW 000                       N    
RDG08441000WATRL000000004K00000000000000128009312292014102557N000000000000U89       000190400K 10000000010000000125           
CUS0844100000108207996003         MCCORMICK, ERNEST L(632 CHERATON RD                         000N        CARE OF             
MTR08441000001000000000000000RA              14904211    005801080000010800000310000003NN  NNW 000                       N    
RDG08441000WATRL000000004K00000000000000983009412292014102559N000000000000U89       000020400K 10000000010000000963           
CUS0844100000108207997001         BERTHA FALCON       634 CHERATON RD                         000N        CARE OF             
MTR08441000001000000000000000RA              29082180    005801090000010900000520000003NN  NNW 000                       N    
RDG08441000WATRL000000004K00000000000002336009512292014102627N000000000000U89       000280400K 10000000010000002329           
CUS0844100000108207998009         JOHNSON JR., CLAUDE 2435 TERRA FIRMA RD                     000N        CARE OF             
MTR08441000001000000000000000RA              01080082    005801100000011000000610000003NN  NNW 000                       N    
RDG08441000WATRL000000004K00000000000001394009612292014102727N000400000010U89       000600400K 10000000010000001381           
CUS0844100000108207999007         BLANCHE CAMPBELL    2433 TERRA FIRMA RD                     000N        CARE OF             
MTR08441000001000000000000000RA              01079779    005801110000011100000610000003NN  NNW 000                       N    
RDG08441000WATRL000000004K00000000000002087009712292014102729N000000000000U89       000020400K 10000000010000002038           
CUS0844100000108208000003         HOLMES, JOEL        2431 TERRA FIRMA RD                     000N        CARE OF             
MTR08441000001000000000000000RA              35112239    005801120000011200000520000003NN  NNW 000                       N    
RDG08441000WATRL000000004K00000000000001770009812292014102749N000000000000U89       000200400K 10000000010000001755           
CUS0844100000108208001001         JOAN H SMITH        2429 TERRA FIRMA RD                     000N        CARE OF             
MTR08441000001000000000000000RA              35112238    005801130000011300000520000003NN  NNW 000                       N    
RDG08441000WATRL000000004K00000000000005552009912292014102751N000000000000U89       000020400K 10000000010000005535           
CUS0844100000108208002009         ARMENTA FOSTER      2427 TERRA FIRMA RD                     000N        CARE OF             
MTR08441000001000000000000000RA              99999999    005801140000011400000620000003NN  NNW 000                       N    
RDG08441000WATRL000000004K00000000000002964010012292014102818N000000000020U89       000270400K 10000000010000002958           
CUS0844100000108208003007         FOSTER, ARMENTA H.  2425 TERRA FIRMA RD                     000N        CARE OF             
MTR08441000001000000000000000RA              35113922    005801150000011500000520000000NN  NNW 000                       N    
RDG08441000WATRL000000004K00000000000002346010112292014102828N000000000000U89       000100400K 10000000010000002326           
CUS0844100000108208004005         LEAK, MOLLIE R      2423 TERRA FIRMA RD                     000N        CARE OF             
MTR08441000001000000000000000RA              01100346    005801160000011600000610000003NN  NNW 000                       N    
RDG08441000WATRL000000004K00000000000000748010212292014102849N000000000000U89       000210400K 10000000010000000724           
CUS0844100000108208005002         JEFFREYS, EVA M.    2421 TERRA FIRMA RD                     000N        CARE OF             
MTR08441000001000000000000000RA              14910346    005801170000011700000310000003NN  NNW 000                       N    
RDG08441000WATRL000000004K00000000000000799010312292014102853N000400000010U89       000040400K 10000000010000000795           
CUS0844100000108208006000         JOHNSON, ALBERT     2419 TERRA FIRMA RD                     000N        CARE OF             
MTR08441000001000000000000000RA              10020922    005801180000011800000570000000NN  NNW 000                       N    
RDG08441000WATRL000000004K00000000000000201010412292014102924N000300000010U89       000310400K 10000000010000000117           
CUS0844100000108208007008         MUSE, MORGAN        2417 TERRA FIRMA RD                     000N        CARE OF             
MTR08441000001000000000000000RA              44091543    005801190000011900000520000003NN  NNW 000                       N    
RDG08441000WATRL000000004K00000000000002291011912292014103544N000000000000U89       000420400K 10000000010000002271           
CUS0844100000108208008006         JAMES H PLUMMER EST.2415 TERRA FIRMA RD                     000N        CARE OF             
MTR08441000001000000000000000RA              01079772    005801200000012000000610000003NN  NNW 000                       N    
RDG08441000WATRL000000004K00000000000000078012012292014103548N000100000010U89       000040400K 10000000010000000078           
CUS0844100000108208009004         ALLIANCE RE HOLDINGS2413 TERRA FIRMA RD                     000N        CARE OF             
MTR08441000001000000000000000RA              14901717    005801210000012100000310000003NN  NNW 000   VACANT PROPERTY     N    
RDG08441000WATRL000000004K00000000000000042012112292014103609N000000000000U89       000210400K 10000000010000000042           
CUS0844100000108208010002         MUNDELL, ARLENE V.  2411 TERRA FIRMA RD                     000N        CARE OF             
MTR08441000001000000000000000RA              99291932    005801220000012200000570000003NN  NNW 000                       N    
RDG08441000WATRL000000004K00000000000001247012212292014103610N000000000000U89       000010400K 10000000010000001208           
CUS0844100000108208011000         ENGLISH, JANET      2409 TERRA FIRMA RD                     000N        CARE OF             
MTR08441000001000000000000000RA              44173451    005801230000012300000520000003NN  NNW 000                       N    
RDG08441000WATRL000000004K00000000000001350012312292014103631N000000000000U89       000210400K 10000000010000001337           
CUS0844100000108208012008         JEWEL ROPER         2407 TERRA FIRMA RD                     000N        CARE OF             
MTR08441000001000000000000000RA              46876245    005801240000012400000520000003NN  NNW 000                       N    
RDG08441000WATRL000000004K00000000000002659012412292014103633N000000000000U89       000020400K 10000000010000002634           
CUS0844100000108208013006         WILLIAM F GILMORE   2405 TERRA FIRMA RD                     000N        CARE OF             
MTR08441000001000000000000000RA              01079797    005801250000012500000610000003NN  NNW 000                       N    
RDG08441000WATRL000000004K00000000000001789012512292014103656N000000000000U89       000230400K 10000000010000001783           
CUS0844100000108208014004         CEW, LLC            2403 TERRA FIRMA RD                     000N        CARE OF             
MTR08441000001000000000000000RA              01079796    005801260000012600000610000003NN  NNW 000                       N    
RDG08441000WATRL000000004K00000000000000518012612292014103658N000000000000U89       000020400K 10000000010000000507           
CUS0844100000108208015001         LILLIE B WISE       2401 TERRA FIRMA RD                     000N        CARE OF             
MTR08441000001000000000000000RA              48588827    005801270000012700000520000003NN  NNW 000                       N    
RDG08441000WATRL000000004K00000000000001324012712292014103720N000000000000U89       000220400K 10000000010000001309           
CUS0844100000108208016009         CHERRY HILL APTS LTD2303 JOPLEA AVE                         000N        CARE OF             
MTR08441000001000000000000000RA              33084050    001501280000012800000520000003NN  NNW 000                       N    
RDG08441000WATRL000000005K00000000000037883012812292014103751N000000000000U89       000310500K 10000000010000037765           
CUS0844100000108208017007         CHERRY HILL APTS LTD2301 JOPLEA AVE                         000N        CARE OF             
MTR08441000001000000000000000RA              33084069    001501290000012900000520000003NN  NNW 000                       N    
RDG08441000WATRL000000005K00000000000007618012912292014103913N000000000000U89       000820500K 10000000010000007384           
CUS0844100000108208018005         CHERRY HILL APTS LTD2300 TERRA FIRMA RD                     000N        CARE OF             
MTR08441000001000000000000000RA              01105357    001501300000013000000610000003NN  NNW 000                       N    
RDG08441000WATRL000000005K00000000000006614013112292014104333N000000000000U89       001400500K 10000000010000006514           
CUS0844100000108208019003         QUILES RENTALS LLC  2434 TERRA FIRMA RD                     000N        CARE OF             
MTR08441000001000000000000000RA              01108160    005801310000013100000610000003NN  NNW 000                       N    
RDG08441000WATRL000000004K00000000000000361011812292014103502N000000000000U89       000240400K 10000000010000000353           
CUS0844100000108208020001         TURNER, LANA NICOLE 2436 TERRA FIRMA RD                     000N        CARE OF             
MTR08441000001000000000000000RA              99287386    005801320000013200000570000003NN  NNW 000                       N    
RDG08441000WATRL000000004K00000000000001414011612292014103436N000000000000U89       000720400K 10000000010000001401           
CUS0844100000108208021009         ARMENTA FOSTER      2438 TERRA FIRMA RD                     000N        CARE OF             
MTR08441000001000000000000000RA              01094845    005801330000013300000610000003NN  NNW 000                       N    
RDG08441000WATRL000000004K00000000000001564011712292014103438N000000000000U89       000020400K 10000000010000001537           
CUS0844100000108208022007         P A ANDERSON ETAL   2440 TERRA FIRMA RD                     000N        CARE OF             
MTR08441000001000000000000000RA              77989558    005801340000013400000350000003NN  NNW 000                       N    
RDG08441000WATRL000000004K00000000000000004013412292014105400N000000000010U89       003430400K 10000000010000000000           
CUS0844100000108208023005         JONES, BARBARA JEAN 2442 TERRA FIRMA RD                     000N        CARE OF             
MTR08441000001000000000000000RA              99292195    005801350000013500000570000003NN  NNW 000                       N    
RDG08441000WATRL000000004K00000000000000998013512292014105403N000000000000U89       000030400K 10000000010000000974           
CUS0844100000108208024003         W C BALLARD         2444 TERRA FIRMA RD                     000N        CARE OF             
MTR08441000001000000000000000RA              46887378    005801360000013600000520000003NN  NNW 000                       N    
RDG08441000WATRL000000004K00000000000000463013612292014105641N000000000000U89       001580400K 10000000010000000463           
CUS0844100000108208025000         MOULDEN, SPENCER P  2446 TERRA FIRMA RD                     000N        CARE OF             
MTR08441000001000000000000000RA              01079793    005801370000013700000610000003NN  NNW 000                       N    
RDG08441000WATRL000000004K00000000000000641013712292014142200N000000000001U89       123160400K 10000000010000000636           
CUS0844100000108208026008         BELL, CYNTHIA       2448 TERRA FIRMA RD                     000N        CARE OF             
MTR08441000001000000000000000RA              10001040    005801380000013800000570000003NN  NNW 000                       N    
RDG08441000WATRL000000004K00000000000000437011412292014103322N000000000000U89       000740400K 10000000010000000420           
CUS0844100000108208027006         SILVA, VERONICA     2450 TERRA FIRMA RD                     000N        CARE OF             
MTR08441000001000000000000000RA              26000634    005801390000013900000520000003NN  NNW 000                       N    
RDG08441000WATRL000000004K00000000000002011011512292014103324N000000000000U89       000020400K 10000000010000001997           
CUS0844100000108208028004         CLYDE LYLES         2452 TERRA FIRMA RD                     000N        CARE OF             
MTR08441000001000000000000000RA              01102729    005801400000014000000610000003NN  NNW 000                       N    
RDG08441000WATRL000000004K00000000000000427011312292014103208N000000000010U89       000270400K 10000000010000000426           
CUS0844100000108208029002         RICHARD FOSTER      2454 TERRA FIRMA RD                     000N        CARE OF             
MTR08441000001000000000000000RA              14926721    005801410000014100000310000003NN  NNW 000                       N    
RDG08441000WATRL000000004K00000000000000367011112292014103139N000000000000U89       000230400K 10000000010000000367           
CUS0844100000108208030000         HARRELL, ROSHEDA SHA2456 TERRA FIRMA RD                     000N        CARE OF             
MTR08441000001000000000000000RA              29402963    005801420000014200000520000003NN  NNW 000                       N    
RDG08441000WATRL000000004K00000000000001653011212292014103141N000000000000U89       000020400K 10000000010000001649           
CUS0844100000108208031008         JOHNSON, ANNA F.    2458 TERRA FIRMA RD                     000N        CARE OF             
MTR08441000001000000000000000RA              35114171    005801430000014300000520000003NN  NNW 000                       N    
RDG08441000WATRL000000004K00000000000000284010912292014103103N000000000000U89       000190400K 10000000010000000277           
CUS0844100000108208032006         ROHOBLT, JEVON S.   2460 TERRA FIRMA RD                     000N        CARE OF             
MTR08441000001000000000000000RA              24757113    005801440000014400000520000003NN  NNW 000                       N    
RDG08441000WATRL000000004K00000000000002248011012292014103116N000300000010U89       000130400K 10000000010000002244           
CUS0844100000108208033004         BROWN, JILMA        2462 TERRA FIRMA RD                     000N        CARE OF             
MTR08441000001000000000000000RA              01079769    005801450000014500000610000003NN  NNW 000                       N    
RDG08441000WATRL000000004K00000000000001048010712292014103042N000000000000U89       000200400K 10000000010000001039           
CUS0844100000108208034002         RAYFORD BYRD        2464 TERRA FIRMA RD                     000N        CARE OF             
MTR08441000001000000000000000RA              01081577    005801460000014600000610000003NN  NNW 000                       N    
RDG08441000WATRL000000004K00000000000000317010812292014103044N000000000000U89       000020400K 10000000010000000317           
CUS0844100000108208035009         EOLA MACKEY         2466 TERRA FIRMA RD                     000N        CARE OF             
MTR08441000001000000000000000RA              27132988    005801470000014700000520000003NN  NNW 000                       N    
RDG08441000WATRL000000004K00000000000001682010512292014103020N000000000000U89       000560400K 10000000010000001679           
CUS0844100000108208036007         FRANK H CARROLL & WF2468 TERRA FIRMA RD                     000N        CARE OF             
MTR08441000001000000000000000RA              35112236    005801480000014800000520000003NN  NNW 000                       N    
RDG08441000WATRL000000004K00000000000002284010612292014103022N000000000000U89       000020400K 10000000010000002275           
CUS0844100000108208037005         ALEX PINKNEY JR     2500 TERRA FIRMA RD                     000N        CARE OF             
MTR08441000001000000000000000RA              99387891    005801490000014900000570000003NN  NNW 000                       N    
RDG08441000WATRL000000004K00000000000000231007412232014085711N000000000010N89       000180400K 10000000010000000229           
CUS0844100000108208038003         ELIZABETH SIMMS     2502 TERRA FIRMA RD                     000N        CARE OF             
MTR08441000001000000000000000RA              99387892    005801500000015000000570000003NN  NNW 000                       N    
RDG08441000WATRL000000004K00000000000000819007512232014085713N000000000000N89       000020400K 10000000010000000819           
CUS0844100000108208039001         SEAWARD JR, REMBERT 2504 TERRA FIRMA RD                     000N        CARE OF             
MTR08441000001000000000000000RA              99392422    005801510000015100000570000003NN  NNW 000                       N    
RDG08441000WATRL000000004K00000000000001346007212232014085650N000300000010N89       000360400K 10000000010000001364           
CUS0844100000108208040009         ALEXANDER, ANDREW G 2506 TERRA FIRMA RD                     000N        CARE OF             
MTR08441000001000000000000000RA              27131776    005801520000015200000520000003NN  NNW 000                       N    
RDG08441000WATRL000000004K00000000000002932007312232014085653N000000000000N89       000030400K 10000000010000002924           
CUS0844100000108208041007         CALVIN KNOX         2508 TERRA FIRMA RD                     000N        CARE OF             
MTR08441000001000000000000000RA              01081828    005801530000015300000610000003NN  NNW 000                       N    
RDG08441000WATRL000000004K00000000000001166007012232014085612N000000000000N89       000350400K 10000000010000001147           
CUS0844100000108208042005         ALETHEA M HUGHES    2510 TERRA FIRMA RD                     000N        CARE OF             
MTR08441000001000000000000000RA              44089290    005801540000015400000520000003NN  NNW 000                       N    
RDG08441000WATRL000000004K00000000000000312007112232014085614N000000000000N89       000020400K 10000000010000000306           
CUS0844100000108208043003         BURRIS, HAROLD M    2512 TERRA FIRMA RD                     000N        CARE OF             
MTR08441000001000000000000000RA              44179033    005801550000015500000520000003NN  NNW 000                       N    
RDG08441000WATRL000000004K00000000000000927006812232014085535N000000000000N89       000560400K 10000000010000000925           
CUS0844100000108208044001         WALLS JR., CHARLES A2514 TERRA FIRMA RD                     000N        CARE OF             
MTR08441000001000000000000000RA              44179036    005801560000015600000520000003NN  NNW 000                       N    
RDG08441000WATRL000000004K00000000000001041006912232014085537N000000000000N89       000020400K 10000000010000001005           
CUS0844100000108208045008         TRAVERS, DOROTHY LOU2516 TERRA FIRMA RD                     000N        CARE OF             
MTR08441000001000000000000000RA              14915027    005801570000015700000310000003NN  NNW 000                       N    
RDG08441000WATRL000000004K00000000000000558006612232014085437N000000000000N89       000210400K 10000000010000000543           
CUS0844100000108208046006         ANSARI, SHAZAD      2518 TERRA FIRMA RD                     000N        CARE OF             
MTR08441000001000000000000000RA              14915031    005801580000015800000310000003NN  NNW 000                       N    
RDG08441000WATRL000000004K00000000000000992006712232014085439N000000000000N89       000020400K 10000000010000000951           
CUS0844100000108208047004         PAUL F CARTER JR.   2520 TERRA FIRMA RD                     000N        CARE OF             
MTR08441000001000000000000000RA              01081565    005801590000015900000610000003NN  NNW 000                       N    
RDG08441000WATRL000000004K00000000000001094006412232014085414N000000000000N89       000410400K 10000000010000001094           
CUS0844100000108208048002         MILLARD, DEBORAH    2522 TERRA FIRMA RD                     000N        CARE OF             
MTR08441000001000000000000000RA              01081825    005801600000016000000610000003NN  NNW 000                       N    
RDG08441000WATRL000000004K00000000000001554006512232014085416N000000000000N89       000020400K 10000000010000001549           
CUS0844100000108208049000         BURRELL, ANTONIO    2524 TERRA FIRMA RD                     000N        CARE OF             
MTR08441000001000000000000000RA              39289072    005801610000016100000520000003NN  NNW 000                       N    
RDG08441000WATRL000000004K00000000000003062006212232014085330N000000000000N89       000280400K 10000000010000003048           
CUS0844100000108208050008         KABBAH PATRICIA     2526 TERRA FIRMA RD                     000N        CARE OF             
MTR08441000001000000000000000RA              01081823    005801620000016200000610000003NN  NNW 000   VACANT PROPERTY     N    
RDG08441000WATRL000000004K00000000000000167006312232014085333N000000000000N89       000030400K 10000000010000000167           
CUS0844100000108208051006         ODOLE, ANTHONY      2528 TERRA FIRMA RD                     000N        CARE OF             
MTR08441000001000000000000000RA              01081838    005801630000016300000610000003NN  NNW 000                       N    
RDG08441000WATRL000000004K00000000000001303006012232014085301N000400000010N89       000390400K 10000000010000001297           
CUS0844100000108208052004         VINSON, RANDOLPH L. 2530 TERRA FIRMA RD                     000N        CARE OF             
MTR08441000001000000000000000RA              01081821    005801640000016400000610000003NN  NNW 000                       N    
RDG08441000WATRL000000004K00000000000001168006112232014085302N000000000000N89       000010400K 10000000010000001158           
CUS0844100000108208053002         HERMAN L CHRISTIAN  2532 TERRA FIRMA RD                     000N        CARE OF             
MTR08441000001000000000000000RA              01081835    005801650000016500000610000003NN  NNW 000                       N    
RDG08441000WATRL000000004K00000000000000869005812232014085221N000000000000N89       000230400K 10000000010000000864           
CUS0844100000108208054000         KELVIN GEORGE       2534 TERRA FIRMA RD                     000N        CARE OF             
MTR08441000001000000000000000RA              01081829    005801660000016600000610000003NN  NNW 000                       N    
RDG08441000WATRL000000004K00000000000000643005912232014085222N000000000000N89       000010400K 10000000010000000618           
CUS0844100000108208055007         GLADDEN, PATRICIA E 2536 TERRA FIRMA RD                     000N        CARE OF             
MTR08441000001000000000000000RA              01081837    005801670000016700000610000003NN  NNW 000                       N    
RDG08441000WATRL000000004K00000000000001585005612232014085156N000000000000N89       000060400K 10000000010000001556           
CUS0844100000108208056005         MCCOY, ROSA         2538 TERRA FIRMA RD                     000N        CARE OF             
MTR08441000001000000000000000RA              01081839    005801680000016800000610000003NN  NNW 000                       N    
RDG08441000WATRL000000004K00000000000001918005712232014085158N000000000000N89       000020400K 10000000010000001900           
CUS0844100000108208057003         EDMUNDSON, HAIDDIE B2540 TERRA FIRMA RD                     000N        CARE OF             
MTR08441000001000000000000000RA              01081830    005801690000016900000610000003NN  NNW 000                       N    
RDG08441000WATRL000000004K00000000000000721005412232014085019N000000000000N89       000160400K 10000000010000000714           
CUS0844100000108208058001         EVANS, ERMA E.      2542 TERRA FIRMA RD                     000N        CARE OF             
MTR08441000001000000000000000RA              01081836    005801700000017000000610000003NN  NNW 000                       N    
RDG08441000WATRL000000004K00000000000001331005512232014085024N000100000010N89       000050400K 10000000010000001331           
CUS0844100000108208059009         CHARLES & CLYNE TALB2544 TERRA FIRMA RD                     000N        CARE OF             
MTR08441000001000000000000000RA              01081822    005801710000017100000610000003NN  NNW 000                       N    
RDG08441000WATRL000000004K00000000000001591005212232014085150N000000000002N89       000560400K 10000000010000001570           
CUS0844100000108208060007         SCOTT, THOMASINA C. 2546 TERRA FIRMA RD                     000N        CARE OF             
MTR08441000001000000000000000RA              01081826    005801720000017200000610000003NN  NNW 000                       N    
RDG08441000WATRL000000004K00000000000000291005312232014085003N000000000000N89       000030400K 10000000010000000286           
CUS0844100000108208061005         ER LI, COURTNEY BING700 CHERRY HILL RD                      000N        CARE OF             
MTR08441000001000000000000000RA              36700137    001501730000017300000520000003NN  NNW 000                       N    
RDG08441000WATRL000000005K00000000000007589013212292014104740N000000000000U89       002470500K 10000000010000007569           
CUS0844100000108208062003         ST VERONICA'S ROMAN 802 CHERRY HILL RD                      000N        CARE OF             
MTR08441000001000000000000000RA              26791757    001501740000017400000520000003NN  NNW 000                       N    
RDG08441000WATRL000000005K00000000000027638001712232014082437N000000000000N89       000370500K 10000000010000027586           
CUS0844100000108208063001         ST VERONICA'S ROMAN 804 CHERRY HILL RD                      000N        CARE OF             
MTR08441000001000000000000000RA              28766725    007501750000017500000520000003NN  NNW 000                       N    
RDG08441000WATRL000000004K00000000000006479001612232014082400N000000000000N89       000240400K 10000000010000006468           
CUS0844100000108208064009         ST VERONICA'S ROMAN 806 CHERRY HILL RD                      000N        CARE OF             
MTR08441000001000000000000000RA              77987642    005801760000017600000350000003NN  NNW 000                       N    
RDG08441000WATRL000000004K00000000000000000001512232014082336N000000000000N89       001710400K 10000000010000000000           
CUS0844100000108208065006         HOUSEHOLD OF FAITH M710 CHERRY HILL RD                      000N        CARE OF             
MTR08441000001000000000000000RA              30523873    005801770000017700000520000003NN  NNW 000                       N    
RDG08441000WATRL000000004K00000000000003076013312292014104817N000000000010U89       000370400K 10000000010000003075           
CUS0844100000108422064009         BALLARD, MICHAEL    2853 JOSEPH AVE                         000N        CARE OF             
MTR08441000001000000000000000RA              50384947    000101780000017800000520000003NN  NNW 000                       N    
RDG08441000WATRL000000004K00000000000001768002312232014082956N000000000000N89       000360400K 10000000010000001748           
CUS0844100000108422063001         MELVIN, FLOREE      2851 JOSEPH AVE                         000N        CARE OF             
MTR08441000001000000000000000RA              74816723    000101790000017900000350000003NN  NNW 000                       N    
RDG08441000WATRL000000004K00000000000000074002412232014083000N000000000000N89       000040400K 10000000010000000060           
CUS0844100000108422062003         HOPKINS, JOYCE S    2849 JOSEPH AVE                         000N        CARE OF             
MTR08441000001000000000000000RA              50384975    000101800000018000000520000003NN  NNW 000                       N    
RDG08441000WATRL000000004K00000000000000959002512232014083017N000000000000N89       000170400K 10000000010000000951           
CUS0844100000108422061005         SCOTT, ARBELL       2847 JOSEPH AVE                         000N        CARE OF             
MTR08441000001000000000000000RA              50384990    000101810000018100000520000003NN  NNW 000                       N    
RDG08441000WATRL000000004K00000000000001361002612232014083019N000000000000N89       000020400K 10000000010000001343           
CUS0844100000108422060007         MARTIN, MELISSA     2845 JOSEPH AVE                         000N        CARE OF             
MTR08441000001000000000000000RA              50384953    000101820000018200000520000003NN  NNW 000                       N    
RDG08441000WATRL000000004K00000000000001485002712232014083044N000000000000N89       000250400K 10000000010000001460           
CUS0844100000108422059009         STEELE, LAVERNE EUGE2843 JOSEPH AVE                         000N        CARE OF             
MTR08441000001000000000000000RA              50384949    000101830000018300000520000003NN  NNW 000                       N    
RDG08441000WATRL000000004K00000000000000892002812232014083046N000000000000N89       000020400K 10000000010000000885           
CUS0844100000108422058001         HOPE, PATRICIA      2841 JOSEPH AVE                         000N        CARE OF             
MTR08441000001000000000000000RA              52291826    000101840000018400000520000003NN  NNW 000                       N    
RDG08441000WATRL000000004K00000000000001179002912232014083328N000000000000N89       001620400K 10000000010000001171           
CUS0844100000108422057003         DORIS K LEMMON      2839 JOSEPH AVE                         000N        CARE OF             
MTR08441000001000000000000000RA              99410729    000101850000018500000570000003NN  NNW 000                       N    
RDG08441000WATRL000000004K00000000000001057003012232014083508N000000000000N89       001000400K 10000000010000001040           
CUS0844100000108422056005         BROWN JR., JOHNNIE L2837 JOSEPH AVE                         000N        CARE OF             
MTR08441000001000000000000000RA              50384952    000101860000018600000520000003NN  NNW 000                       N    
RDG08441000WATRL000000004K00000000000001164003112232014083526N000000000000N89       000180400K 10000000010000001155           
CUS0844100000108422055007         HARROD, BEATRICE    2835 JOSEPH AVE                         000N        CARE OF             
MTR08441000001000000000000000RA              50384946    000101870000018700000520000003NN  NNW 000                       N    
RDG08441000WATRL000000004K00000000000001120003212232014083535N000000000000N89       000090400K 10000000010000001107           
CUS0844100000108422054000         SMITH, GERALD       2833 JOSEPH AVE                         000N        CARE OF             
MTR08441000001000000000000000RA              50384974    000101880000018800000520000003NN  NNW 000                       N    
RDG08441000WATRL000000004K00000000000001336003312232014083559N000000000000N89       000240400K 10000000010000001311           
CUS0844100000108422053002         FAULKNER, ALEASA    2831 JOSEPH AVE                         000N        CARE OF             
MTR08441000001000000000000000RA              51447261    000101890000018900000520000003NN  NNW 000                       N    
RDG08441000WATRL000000004K00000000000000378003412232014083601N000000000000N89       000020400K 10000000010000000378           
CUS0844100000108422040009         XU, YINAN           2829 JOSEPH AVE                         000N        CARE OF             
MTR08441000001000000000000000RA              51447256    000101900000019000000520000003NN  NNW 000                       N    
RDG08441000WATRL000000004K00000000000000724003512232014083617N000000000010N89       000160400K 10000000010000000723           
CUS0844100000108208066004         VANLANDINGHAM, PRISC2915 JOSEPH AVE                         000N        CARE OF             
MTR08441000001000000000000000RA              24227922    005801910000019100000520000003NN  NNW 000                       N    
RDG08441000WATRL000000004K00000000000000000003712232014083755N000000000000N89       000100400K 10000000010000000000           
CUS0844100000108208067002         VANLANDINGHAM, PRISC2909 JOSEPH AVE                         000N        CARE OF             
MTR08441000001000000000000000RA              99292272    005801920000019200000570000003NN  NNW 000                       N    
RDG08441000WATRL000000004K00000000000000810001812232014082710N000000000000N89       001530400K 10000000010000000793           
CUS0844100000108208068000         MT. SINAI HOLY CHURC2901 JOSEPH AVE                         000N        CARE OF             
MTR08441000001000000000000000RA              99292192    005801930000019300000570000003NN  NNW 000                       N    
RDG08441000WATRL000000004K00000000000000849001912232014082806N000000000000N89       000560400K 10000000010000000842           
CUS0844100000108208069008         MOSELEY, ADOL PHUS  2861 JOSEPH AVE                         000N        CARE OF             
MTR08441000001000000000000000RA              11328857    005801940000019400000570000003NN  NNW 000                       N    
RDG08441000WATRL000000004K00000000000002060002012232014082834N000000000000N89       000280400K 10000000010000002060           
CUS0844100000108208070006         CHERRY HILL ADVENTIS2807 JOSEPH AVE                         000N        CARE OF             
MTR08441000001000000000000000RA              35108178    005801950000019500000520000003NN  NNW 000   VACANT PROPERTY     N    
RDG08441000WATRL000000004K00000000000000958002112232014082909N000000000000N89       000350400K 10000000010000000958           
CUS0844100000108395498002         ALLEGHENY EAST CONF 2800 JOPLEA AVE                         000N        CARE OF             
MTR08441000001000000000000000RA              99314779    000101960000019600000570000003NN  NNW 000   VACANT PROPERTY     N    
RDG08441000WATRL000000004K00000000000002161002212232014082920N000000000010N89       000110400K 10000000010000002161           
CUS0844100000108208072002         CLEA SR., JAMES     2801 JOPLEA AVE                         000N        CARE OF             
MTR08441000001000000000000000RA              01081824    005801970000019700000610000003NN  NNW 000                       N    
RDG08441000WATRL000000004K00000000000000957003612232014083745N000000000000N89       000880400K 10000000010000000946           
CUS0844100000108208073000         CHERRY HILL APTS LTD2305 ROUND RD                           000N        CARE OF             
MTR08441000001000000000000000RA              01104932    001501980000019800000610000003NN  NNW 000                       N    
RDG08441000WATRL000000005K00000000000007920013012292014104113N000000000000U89       001200500K 10000000010000007820           
CUS0844100000108208074008         FORREST JR, GEORGE W1015 VERONICA AVE                       000N        CARE OF             
MTR08441000001000000000000000RA              00136670    005801990000019900000570000003NN  NNW 000                       N    
RDG08441000WATRL000000004K00000000000000517000712232014081653N000000000000N89       000400400K 10000000010000000499           
CUS0844100000108208075005         CEO, ISOLENE D      1009 VERONICA AVE                       000N        CARE OF             
MTR08441000001000000000000000RA              00127273    005802000000020000000570000003NN  NNW 000                       N    
RDG08441000WATRL000000004K00000000000001252000612232014081613N000100000010N89       000550400K 10000000010000001252           
CUS0844100000108208076003         BOYKIN, ARTHUR      1007 VERONICA AVE                       000N        CARE OF             
MTR08441000001000000000000000RA              01100350    005802010000020100000610000003NN  NNW 000                       N    
RDG08441000WATRL000000004K00000000000001304000512232014081518N000000000000N89       000060400K 10000000010000001304           
CUS0844100000108208077001         JILMER ARRIAZA      1005 VERONICA AVE                       000N        CARE OF             
MTR08441000001000000000000000RA              99291929    005802020000020200000570000003NN  NNW 000                       N    
RDG08441000WATRL000000004K00000000000000814000412232014081512N000000000000N89       000120400K 10000000010000000814           
CUS0844100000108208078009         ISOLENE CEO         1001 VERONICA AVE                       000N        CARE OF             
MTR08441000001000000000000000RA              44091291    005802030000020300000520000003NN  NNW 000                       N    
RDG08441000WATRL000000004K00000000000002633000312232014081500N000000000000N89       001200400K 10000000010000002624           
CUS0844100000108208079007         MAITH, RONALD R     1000 CHERRY HILL RD                     000N        CARE OF             
MTR08441000001000000000000000RA              14925915    005802040000020400000310000003NN  NNW 000                       N    
RDG08441000WATRL000000004K00000000000000323000112232014081250N000000000000N89       000000400K 10000000010000000312           
CUS0844100000108208080005         BENJAMIN SINGLETON  1002 CHERRY HILL RD                     000N        CARE OF             
MTR08441000001000000000000000RA              14925524    005802050000020500000310000003NN  NNW 000   VACANT PROPERTY     N    
RDG08441000WATRL000000004K00000000000000683000212232014081300N000000000000N89       000100400K 10000000010000000683           
CUS0844100000108208081003         MICHELLE L RUSSELL  1004 CHERRY HILL RD                     000N        CARE OF             
MTR08441000001000000000000000RA              01111039    005802060000020600000610000003NN  NNW 000                       N    
RDG08441000WATRL000000004K00000000000001334001312232014082044N000000000000N89       000310400K 10000000010000001293           
CUS0844100000108208082001         WILLIE P BATTLE     1006 CHERRY HILL RD                     000N        CARE OF             
MTR08441000001000000000000000RA              75617551    005802070000020700000350000003NN  NNW 000                       N    
RDG08441000WATRL000000004K00000000000000000001412232014082045N000000000000N89       000010400K 10000000010000000000           
CUS0844100000108208083009         ARISTON HOMES, LLC  1008 CHERRY HILL RD                     000N        CARE OF             
MTR08441000001000000000000000RA              29402970    005802080000020800000520000003NN  NNW 000   VACANT PROPERTY     N    
RDG08441000WATRL000000004K00000000000001942001112232014082009N000000000000N89       000460400K 10000000010000001942           
CUS0844100000108208084007         BROOKS, ROGER C.    1010 CHERRY HILL RD                     000N        CARE OF             
MTR08441000001000000000000000RA              29402968    005802090000020900000520000003NN  NNW 000                       N    
RDG08441000WATRL000000004K00000000000001765001212232014082013N000000000000N89       000040400K 10000000010000001750           
CUS0844100000108208085004         ROBERT LEE DANIELS J1012 CHERRY HILL RD                     000N        CARE OF             
MTR08441000001000000000000000RA              44091286    005802100000021000000520000003NN  NNW 000                       N    
RDG08441000WATRL000000004K00000000000002119000912232014081920N000000000000N89       000280400K 10000000010000002104           
CUS0844100000108208086002         MCCLEAN, MARY L (LIF1014 CHERRY HILL RD                     000N        CARE OF             
MTR08441000001000000000000000RA              44091263    005802110000021100000520000003NN  NNW 000                       N    
RDG08441000WATRL000000004K00000000000001248001012232014081923N000000000000N89       000030400K 10000000010000001243           
CUS0844100000108208087000         MARY L CARTER       1016 CHERRY HILL RD                     000N        CARE OF             
MTR08441000001000000000000000RA              27816818    005802120000021200000520000003NN  NNW 000                       N    
RDG08441000WATRL000000004K00000000000004221000812232014081852N000000000000N89       001190400K 10000000010000004212           
RTR08441000NN02120212000002120000000002120212000303NY021202120212000000030000000000000000000002    12162014NY020000 N         
RHD08441200NN02600260000002600000000002600260000098NY026002600260000200000000000000000000000002    12162014NY020000 N         
CUS0844120000108207665004         MARY WRIGHT         2843 ROUND RD                           000N        CARE OF             
MTR08441200001000000000000000RA              41589232    005800010000000100000520000003NN  NNW 000                       N    
RDG08441200WATRL000000004K00000000000001338000112292014075928N000000000010N86       000000400K 10000000010000001337           
CUS0844120000108207666002         FARRAKHAN, HAKIM R. 2841 ROUND RD                           000N        CARE OF             
MTR08441200001000000000000000RA              41589230    005800020000000200000520000003NN  NNW 000                       N    
RDG08441200WATRL000000004K00000000000001201000212292014075930N000000000000N86       000020400K 10000000010000001194           
CUS0844120000108207667000         MCFARLANE, JEANETTE 2839 ROUND RD                           000N        CARE OF             
MTR08441200001000000000000000RA              24771654    005800030000000300000520000003NN  NNW 000   VACANT PROPERTY     N    
RDG08441200WATRL000000004K00000000000000989000312292014075949N000000000010N86       000190400K 10000000010000000986           
CUS0844120000108207668008         DAVIS, GERALD L.    2837 ROUND RD                           000N        CARE OF             
MTR08441200001000000000000000RA              9691310     005800040000000400000570000003NN  NNW 000                       N    
RDG08441200WATRL000000004K00000000000002755000412292014075950N000000000000N86       000010400K 10000000010000002745           
CUS0844120000108207669006         GREEN, CALVIN W.    2835 ROUND RD                           000N        CARE OF             
MTR08441200001000000000000000RA              00136502    005800050000000500000570000003NN  NNW 000                       N    
RDG08441200WATRL000000004K00000000000000209000512292014080008N000000000000N86       000180400K 10000000010000000204           
CUS0844120000108207670004         GRAY, ANNIE MAE     2833 ROUND RD                           000N        CARE OF             
MTR08441200001000000000000000RA              41589233    005800060000000600000520000003NN  NNW 000                       N    
RDG08441200WATRL000000004K00000000000000604000612292014080009N000000000000N86       000010400K 10000000010000000598           
CUS0844120000108207671002         RUSSELL JOHNS       2831 ROUND RD                           000N        CARE OF             
MTR08441200001000000000000000RA              75423815    005800070000000700000350000003NN  NNW 000                       N    
RDG08441200WATRL000000004K00000000000000000000712292014080032N000000000000N86       000230400K 10000000010000000000           
CUS0844120000108207672000         MEKONG CENTRAL ENTER2829 ROUND RD                           000N        CARE OF             
MTR08441200001000000000000000RA              75615620    005800080000000800000350000003NN  NNW 000                       N    
RDG08441200WATRL000000004K00000000000000063000812292014080033N000000000000N86       000010400K 10000000010000000044           
CUS0844120000108207673008         FREEMAN, SARAH      2827 ROUND RD                           000N        CARE OF             
MTR08441200001000000000000000RA              26002871    005800090000000900000520000000NN  NNW 000                       N    
RDG08441200WATRL000000004K00000000000001193000912292014080052N000000000000N86       000190400K 10000000010000001191           
CUS0844120000108207674006         TRUEHART, DELORES C.2825 ROUND RD                           000N        CARE OF             
MTR08441200001000000000000000RA              27132960    005800100000001000000520000003NN  NNW 000                       N    
RDG08441200WATRL000000004K00000000000002621001012292014080053N000000000000N86       000010400K 10000000010000002600           
CUS0844120000108207675003         BROWN, JUANITA D    2823 ROUND RD                           000N        CARE OF             
MTR08441200001000000000000000RA              14905764    005800110000001100000310000003NN  NNW 000                       N    
RDG08441200WATRL000000004K00000000000000297001112292014080106N000000000000N86       000130400K 10000000010000000283           
CUS0844120000108207676001         ASKINS, SHAWN       2821 ROUND RD                           000N        CARE OF             
MTR08441200001000000000000000RA              14905598    005800120000001200000310000003NN  NNW 000                       N    
RDG08441200WATRL000000004K00000000000000209001212292014080107N000000000000N86       000010400K 10000000010000000209           
CUS0844120000108207677009         COOK, CAROLYN       2813 ROUND RD                           000N        CARE OF             
MTR08441200001000000000000000RA              14924935    005800130000001300000310000003NN  NNW 000                       N    
RDG08441200WATRL000000004K00000000000000488001312292014080130N000000000000N86       000230400K 10000000010000000462           
CUS0844120000108207678007         BINKA PROPERTIES, LL2811 ROUND RD                           000N        CARE OF             
MTR08441200001000000000000000RA              10018009    005800140000001400000570000003NN  NNW 000                       N    
RDG08441200WATRL000000004K00000000000000128001412292014080133N000300000010N86       000030400K 10000000010000000117           
CUS0844120000108207679005         GARLAND & MICHELLE H2809 ROUND RD                           000N        CARE OF             
MTR08441200001000000000000000RA              45384338    005800150000001500000520000003NN  NNW 000                       N    
RDG08441200WATRL000000004K00000000000000933001512292014080154N000000000000N86       000210400K 10000000010000000924           
CUS0844120000108207680003         SPEIGHTS, MARLENE(LI2807 ROUND RD                           000N        CARE OF             
MTR08441200001000000000000000RA              45384398    005800160000001600000520000003NN  NNW 000                       N    
RDG08441200WATRL000000004K00000000000001190001612292014080157N000000000000N86       000030400K 10000000010000001187           
CUS0844120000108207681001         KING, LARRY         2805 ROUND RD                           000N        CARE OF             
MTR08441200001000000000000000RA              27830495    005800170000001700000520000003NN  NNW 000                       N    
RDG08441200WATRL000000004K00000000000001800001712292014080217N000000000000N86       000200400K 10000000010000001784           
CUS0844120000108207682009         EWUSIE, ISABELLA    2803 ROUND RD                           000N        CARE OF             
MTR08441200001000000000000000RA              00129515    005800180000001800000570000003NN  NNW 000                       N    
RDG08441200WATRL000000004K00000000000000664001812292014080219N000400000010N86       000020400K 10000000010000000661           
CUS0844120000108207683007         STANLEY, TYRON D.   2801 ROUND RD                           000N        CARE OF             
MTR08441200001000000000000000RA              00129516    005800190000001900000570000003NN  NNW 000                       N    
RDG08441200WATRL000000004K00000000000000987001912292014080230N000000000000N86       000110400K 10000000010000000976           
CUS0844120000108207684005         EMMA I CARTER       2753 ROUND RD                           000N        CARE OF             
MTR08441200001000000000000000RA              52288506    005800200000002000000520000003NN  NNW 000                       N    
RDG08441200WATRL000000004K00000000000000025002012292014080249N000000000000N86       000190400K 10000000010000000025           
CUS0844120000108207685002         QUILES RENTALS, LLC 2751 ROUND RD                           000N        CARE OF             
MTR08441200001000000000000000RA              26004497    005800210000002100000520000003NN  NNW 000                       N    
RDG08441200WATRL000000004K00000000000001736002112292014080251N000000000000N86       000020400K 10000000010000001718           
CUS0844120000108207686000         TEE REE REALTY, LLC 2749 ROUND RD                           000N        CARE OF             
MTR08441200001000000000000000RA              33734362    005800220000002200000520000003NN  NNW 000                       N    
RDG08441200WATRL000000004K00000000000001234002212292014080316N000000000000N86       000250400K 10000000010000001234           
CUS0844120000108207687008         BURRELL, APRIL      2747 ROUND RD                           000N        CARE OF             
MTR08441200001000000000000000RA              99999999    005800230000002300000310000003NN  NNW 000   VACANT PROPERTY     N    
RDG08441200WATRL000000004K00000000000000464002312292014080324N000000000000N86       000080400K 10000000010000000464           
CUS0844120000108207688006         THOMAS, JEROME A    2745 ROUND RD                           000N        CARE OF             
MTR08441200001000000000000000RA              01115359    005800240000002400000610000003NN  NNW 000                       N    
RDG08441200WATRL000000004K00000000000000739002412292014080344N000000000000N86       000200400K 10000000010000000732           
CUS0844120000108207689004         DOMINION RENTALS LLC2743 ROUND RD                           000N        CARE OF             
MTR08441200001000000000000000RA              01112419    005800250000002500000610000003NN  NNW 000                       N    
RDG08441200WATRL000000004K00000000000000328002512292014080345N000000000000N86       000010400K 10000000010000000317           
CUS0844120000108207690002         PENA, IRIS MARGARITA2741 ROUND RD                           000N        CARE OF             
MTR08441200001000000000000000RA              10016480    005800260000002600000570000003NN  NNW 000                       N    
RDG08441200WATRL000000004K00000000000000138002612292014080409N000000000000N86       000240400K 10000000010000000124           
CUS0844120000108207691000         ANNIE STEPHNEY      2739 ROUND RD                           000N        CARE OF             
MTR08441200001000000000000000RA              39289226    005800270000002700000520000003NN  NNW 000                       N    
RDG08441200WATRL000000004K00000000000000552002712292014080411N000000000000N86       000020400K 10000000010000000549           
CUS0844120000108207692008         SCOTT HATTIE MAE    2737 ROUND RD                           000N        CARE OF             
MTR08441200001000000000000000RA              46876140    005800280000002800000520000003NN  NNW 000                       N    
RDG08441200WATRL000000004K00000000000000634002812292014080501N000000000000N86       000500400K 10000000010000000628           
CUS0844120000108207693006         TATE, ALGERIA       2735 ROUND RD                           000N        CARE OF             
MTR08441200001000000000000000RA              00136500    005800290000002900000570000003NN  NNW 000                       N    
RDG08441200WATRL000000004K00000000000000414002912292014080502N000000000000N86       000010400K 10000000010000000401           
CUS0844120000108207694004         CHERRY, THELMA      2733 ROUND RD                           000N        CARE OF             
MTR08441200001000000000000000RA              32573844    005800300000003000000520000003NN  NNW 000                       N    
RDG08441200WATRL000000004K00000000000000897003012292014080540N000000000000N86       000380400K 10000000010000000897           
CUS0844120000108207695001         CHARLENE ARMSTRONG  2731 ROUND RD                           000N        CARE OF             
MTR08441200001000000000000000RA              14905769    005800310000003100000310000003NN  NNW 000                       N    
RDG08441200WATRL000000004K00000000000000439003112292014080631N000000000000N86       000510400K 10000000010000000439           
CUS0844120000108207696009         BALTIMORE HOUSING, L2729 ROUND RD                           000N        CARE OF             
MTR08441200001000000000000000RA              74692193    005800320000003200000350000003NN  NNW 000                       N    
RDG08441200WATRL000000004K00000000000000165003212292014080632N000000000000N86       000010400K 10000000010000000147           
CUS0844120000108207697007         GASQUE, TIM G       2727 ROUND RD                           000N        CARE OF             
MTR08441200001000000000000000RA              27132989    005800330000003300000520000003NN  NNW 000                       N    
RDG08441200WATRL000000004K00000000000002978003312292014080650N000000000000N86       000180400K 10000000010000002965           
CUS0844120000108207698005         ROBERT H JORDAN & WF2725 ROUND RD                           000N        CARE OF             
MTR08441200001000000000000000RA              48588824    005800340000003400000520000003NN  NNW 000                       N    
RDG08441200WATRL000000004K00000000000000573003412292014080652N000000000000N86       000020400K 10000000010000000571           
CUS0844120000108207699003         STEPHEN HOSEIN      2723 ROUND RD                           000N        CARE OF             
MTR08441200001000000000000000RA              99999999    005800350000003500000310000003NN  NNW 000                       N    
RDG08441200WATRL000000004K00000000000000309003512292014080726N000000000000N86       000340400K 10000000010000000292           
CUS0844120000108207700009         BURRELL, JAMES      2721 ROUND RD                           000N        CARE OF             
MTR08441200001000000000000000RA              14907902    005800360000003600000310000003NN  NNW 000                       N    
RDG08441200WATRL000000004K00000000000000001003612292014080732N000000000010N86       000060400K 10000000010000000001           
CUS0844120000108207701007         WEEMS, CHARLOTTE M. 2719 ROUND RD                           000N        CARE OF             
MTR08441200001000000000000000RA              01084879    005800370000003700000610000003NN  NNW 000                       N    
RDG08441200WATRL000000004K00000000000000578003712292014080742N000000000000N86       000100400K 10000000010000000566           
CUS0844120000108207702005         HINSON, GEORGE (LIFE2717 ROUND RD                           000N        CARE OF             
MTR08441200001000000000000000RA              01084873    005800380000003800000610000003NN  NNW 000                       N    
RDG08441200WATRL000000004K00000000000001521003812292014080803N000000000000N86       000210400K 10000000010000001493           
CUS0844120000108207703003         ORLANDO SR, MICHAEL 2715 ROUND RD                           000N        CARE OF             
MTR08441200001000000000000000RA              36687414    005800390000003900000520000003NN  NNW 000                       N    
RDG08441200WATRL000000004K00000000000001926003912292014080804N000000000000N86       000010400K 10000000010000001919           
CUS0844120000108207704001         BURRELL, JAMES R    2713 ROUND RD                           000N        CARE OF             
MTR08441200001000000000000000RA              44088677    005800400000004000000520000003NN  NNW 000                       N    
RDG08441200WATRL000000004K00000000000001066004012292014080832N000000000000N86       000280400K 10000000010000001055           
CUS0844120000108207705008         BNL SERIES BUSINESS 2711 ROUND RD                           000N        CARE OF             
MTR08441200001000000000000000RA              44091619    005800410000004100000520000003NN  NNW 000                       N    
RDG08441200WATRL000000004K00000000000001796004112312014152142O000100000010N87       000190400K 10000000010000001796           
CUS0844120000108207706006         I.G. INVESTMENTS, LL2709 ROUND RD                           000N        CARE OF             
MTR08441200001000000000000000RA              14907971    005800420000004200000310000003NN  NNW 000                       N    
RDG08441200WATRL000000004K00000000000000586004212292014080913N000000000000N86       000220400K 10000000010000000568           
CUS0844120000108207707004         BETTY BROWN         2707 ROUND RD                           000N        CARE OF             
MTR08441200001000000000000000RA              01084878    005800430000004300000610000003NN  NNW 000                       N    
RDG08441200WATRL000000004K00000000000000739004312292014080914N000000000000N86       000010400K 10000000010000000725           
CUS0844120000108207708002         ORLANDO, MICHAEL A  2705 ROUND RD                           000N        CARE OF             
MTR08441200001000000000000000RA              78021022    005800440000004400000350000003NN  NNW 000                       N    
RDG08441200WATRL000000004K00000000000000007004412292014080951N000000000010N86       000370400K 10000000010000000000           
CUS0844120000108207709000         ALICE S MASON       2703 ROUND RD                           000N        CARE OF             
MTR08441200001000000000000000RA              27132993    005800450000004500000520000003NN  NNW 000                       N    
RDG08441200WATRL000000004K00000000000002488004512292014081030N000000000000N86       000390400K 10000000010000002480           
CUS0844120000108207710008         ANTONIO CARRINGTON  2701 ROUND RD                           000N        CARE OF             
MTR08441200001000000000000000RA              14925912    005800460000004600000310000003NN  NNW 000                       N    
RDG08441200WATRL000000004K00000000000000299004612292014081032N000000000000N86       000020400K 10000000010000000291           
CUS0844120000108207711006         COATES, YVETTE C    2700 BOOKERT DR                         000N        CARE OF             
MTR08441200001000000000000000RA              01094141    005800470000004700000610000003NN  NNW 000                       N    
RDG08441200WATRL000000004K00000000000000304004712292014081155N000000000000N86       000830400K 10000000010000000296           
CUS0844120000108207712004         SYKES, BRENDA P     2702 BOOKERT DR                         000N        CARE OF             
MTR08441200001000000000000000RA              99292530    005800480000004800000570000003NN  NNW 000                       N    
RDG08441200WATRL000000004K00000000000001583004812292014081156N000000000000N86       000010400K 10000000010000001565           
CUS0844120000108207713002         ROBERT L GREEN      2704 BOOKERT DR                         000N        CARE OF             
MTR08441200001000000000000000RA              01084518    005800490000004900000610000000NN  NNW 000                       N    
