FHDNNNN039008532008532008532N                                                                                           030466
RHD04820200NN04440444000004440000000004440444000609NY044404440444001100350000000000000000000001    11022015NY020000 N         
CUS0482020000104068531005         BLAIR DANIEL L,JR   4215 RIDGE RD                           000N        CARE OF             
MTR04820200001000000000000000RA              50480194    005800010000000100000520000003NY  NNW 000   VACANT / LOT        N    
MTM0482020050480194    OCC                                                                                                    
RDG04820200WATRL000000004K00000000000000930000211242015074400N000000000000N40       000660400K 10000000010000000930           
CUS0482020000104068530007         CHANDLER RYAN       4213 RIDGE RD                           000N        CARE OF             
MTR04820200001000000000000000RA              27265773    005800020000000200000520000003NN  NNW 000                       N    
RDG04820200WATRL000000004K00000000000003564000111242015074254N000000000000N40       000000400K 10000000010000003537           
CUS0482020000104068532003         JACKSON GLENN F     4217 RIDGE RD                           000N        CARE OF             
MTR04820200001000000000000000RA              9685388     005800030000000300000570000003NN  NNW 000   VACANT / LOT        N    
RDG04820200WATRL000000004K00000000000003719000311242015074457N000000000000N40       000570400K 10000000010000003719           
CUS0482020000104068535006         CREMEN PATRICK      4301 RIDGE RD                           000N        CARE OF             
MTR04820200001000000000000000RA              10006958    005800040000000400000570000003NN  NNW 000                       N    
RDG04820200WATRL000000004K00000000000000609000411242015074546N000000000000N40       000490400K 10000000010000000565           
CUS0482020000104068536004         BENDA JOHN JOSEPH   4303 RIDGE RD                           000N        CARE OF             
MTR04820200001000000000000000RA              01076139    005800050000000500000610000003NN  NNW 000                       N    
RDG04820200WATRL000000004K00000000000000114000511242015074616N000000000000N40       000300400K 10000000010000000103           
CUS0482020000104068537002         MCMATH EDWARD W     4305 RIDGE RD                           000N        CARE OF             
MTR04820200001000000000000000RA              77890402    005800060000000600000360000003NN  NNW 000                       N    
RDG04820200WATRL000000004K00000000000000010000611242015074723N000000000010N40       000670400K 10000000010000000000           
CUS0482020000104068538000         ELLIS, ROBERT       4307 RIDGE RD                           000N        CARE OF             
MTR04820200001000000000000000RA              32770999    005800070000000700000520000003NN  NNW 000                       N    
RDG04820200WATRL000000004K00000000000000120000711242015074744N000000000000N40       000210400K 10000000010000000098           
CUS0482020000104068539008         MCCAW SHEILA A      4309 RIDGE RD                           000N        CARE OF             
MTR04820200001000000000000000RA              01080804    005800080000000800000610000003NN  NNW 000                       N    
RDG04820200WATRL000000004K00000000000000382000811242015074809N000000000000N40       000250400K 10000000010000000372           
CUS0482020000104068540006         RYAN CHANDLER       4311 RIDGE RD                           000N        CARE OF             
MTR04820200001000000000000000RA              46879627    005800090000000900000520000003NN  NNW 000                       N    
RDG04820200WATRL000000004K00000000000001841000911242015074843N000000000000N40       000340400K 10000000010000001830           
CUS0482020000104068541004         SPARWASSER E JERRY  4315 RIDGE RD                           000N        CARE OF             
MTR04820200001000000000000000RA              01104352    005800100000001000000610000003NN  NNW 000                       N    
RDG04820200WATRL000000004K00000000000002776001011242015075251N000000000000N40       002480400K 10000000010000002724           
CUS0482020000104068542002         CAMPBELL GARY JOHN  4317 RIDGE RD                           000N        CARE OF             
MTR04820200001000000000000000RA              39585772    005800110000001100000520000003NN  NNW 000                       N    
RDG04820200WATRL000000004K00000000000001689001111242015075253N000000000000N40       000020400K 10000000010000001665           
CUS0482020000104068543000         WRIGHT JOHN PATRICK 4321 RIDGE RD                           000N        CARE OF             
MTR04820200001000000000000000RA              29404321    005800120000001200000520000003NN  NNW 000                       N    
RDG04820200WATRL000000004K00000000000004595001211242015075349N000000000000N40       000560400K 10000000010000004579           
CUS0482020000104068544008         AKEHURST MICHAEL A  4325 RIDGE RD                           000N        CARE OF             
MTR04820200001000000000000000RA              41589856    005800130000001300000520000003NN  NNW 000                       N    
RDG04820200WATRL000000004K00000000000002892001811242015075832N000000000000N40       000360400K 10000000010000002880           
CUS0482020000104068545005         MALLY DENNIS AUGUST 4327 RIDGE RD                           000N        CARE OF             
MTR04820200001000000000000000RA              41086412    005800140000001400000520000003NN  NNW 000                       N    
RDG04820200WATRL000000004K00000000000002450001711242015075756N000000000000N40       000460400K 10000000010000002432           
CUS0482020000104068546003         WITT MARIAN         4329 RIDGE RD                           000N        CARE OF             
MTR04820200001000000000000000RA              76346565    005800150000001500000350000003NN  NNW 000                       N    
RDG04820200WATRL000000004K00000000000000106001611242015075710N000000000000N40       000310400K 10000000010000000099           
CUS0482020000104068547001         NEDROW ROBERT K     4331 RIDGE RD                           000N        CARE OF             
MTR04820200001000000000000000RA              11334872    005800160000001600000570000003NN  NNW 000                       N    
RDG04820200WATRL000000004K00000000000004497001511242015075639N000000000000N40       000300400K 10000000010000004429           
CUS0482020000104068548009         SCHILLFARTH FREDERIC4401 RIDGE RD                           000N        CARE OF             
MTR04820200001000000000000000RA              41258229    005800170000001700000520000003NN  NNW 000                       N    
RDG04820200WATRL000000004K00000000000002278001411242015075609N000000000000N40       000250400K 10000000010000002264           
CUS0482020000104068549007         WHEELER ROBERT EUGEN4403 RIDGE RD                           000N        CARE OF             
MTR04820200001000000000000000RA              14928476    005800180000001800000310000003NN  NNW 000                       N    
RDG04820200WATRL000000004K00000000000000414001311242015075544N000000000000N40       001150400K 10000000010000000403           
CUS0482020000104068550005         MICHAEL J LOVERN JR 4405 RIDGE RD                           000N        CARE OF             
MTR04820200001000000000000000RA              52288971    005800190000001900000520000003NN  NNW 000                       N    
RDG04820200WATRL000000004K00000000000000545001911242015080004N000000000000N40       000920400K 10000000010000000535           
CUS0482020000104068551003         KOTRAS DAVID M      4409 RIDGE RD                           000N        CARE OF             
MTR04820200001000000000000000RA              38887711    005800200000002000000520000003NN  NNW 000                       N    
RDG04820200WATRL000000004K00000000000003992002011242015080102N000000000000N40       000580400K 10000000010000003981           
CUS0482020000104068552001         GERST FRANCES K     4421 RIDGE RD                           000N        CARE OF             
MTR04820200001000000000000000RA              54352163    005800210000002100000520000003NN  NNW 000                       N    
RDG04820200WATRL000000004K00000000000001357002111242015080154N000000000000N40       000520400K 10000000010000001337           
CUS0482020000104068554007         KEEN GEORGE C       4501 RIDGE RD                           000N        CARE OF             
MTR04820200001000000000000000RA              45387475    005800220000002200000520000003NN  NNW 000                       N    
RDG04820200WATRL000000004K00000000000001497002211242015080304N000000000000N40       000700400K 10000000010000001488           
CUS0482020000104068555004         RUARK ROBERT        4503 RIDGE RD                           000N        CARE OF             
MTR04820200001000000000000000RA              99292740    005800230000002300000570000003NN  NNW 000                       N    
RDG04820200WATRL000000004K00000000000002198002311242015080402N000000000000N40       000580400K 10000000010000002146           
CUS0482020000104068556002         ANTOINETTE D. PARRY 4505 RIDGE RD                           000N        CARE OF             
MTR04820200001000000000000000RA              19460937    005800240000002400000520000003NN  NNW 000                       N    
RDG04820200WATRL000000004K00000000000005103002411242015080404N000000000000N40       000020400K 10000000010000005093           
CUS0482020000104068557000         PARRY CLIFFORD H,3RD4507 RIDGE RD                           000N        CARE OF             
MTR04820200001000000000000000RA              01104330    005800250000002500000610000003NN  NNW 000                       N    
RDG04820200WATRL000000004K00000000000001097002511242015080501N000000000000N40       000570400K 10000000010000001074           
CUS0482020000104068558008         SPICER JOSEPH       4509 RIDGE RD                           000N        CARE OF             
MTR04820200001000000000000000RA              42810270    005800260000002600000520000003NN  NNW 000                       N    
RDG04820200WATRL000000004K00000000000005319002611242015080530N000000000000N40       000290400K 10000000010000005277           
CUS0482020000104068559006         TAYLOR TERRY S      4525 RIDGE RD                           000N        CARE OF             
MTR04820200001000000000000000RA              35099746    005800270000002700000520000003NN  NNW 000                       N    
RDG04820200WATRL000000004K00000000000004668002711242015080642N000000000000N40       000720400K 10000000010000004641           
CUS0482020000104404370001         KITZMAN NORMAN RAY  4527 RIDGE RD                           000N        CARE OF             
MTR04820200001000000000000000RA              42809980    005800280000002800000520000003NN  NNW 000                       N    
RDG04820200WATRL000000004K00000000000006718002911242015080841N000000000001N40       000530400K 10000000010000006698           
CUS0482020000104404256002         THE ARC OF BALTIMORE4527A RIDGE RD                          000N        CARE OF             
MTR04820200001000000000000000RA              42809333    005800290000002900000520000003NN  NNW 000                       N    
RDG04820200WATRL000000004K00000000000003021002811242015080748N000000000000N40       000660400K 10000000010000002955           
CUS0482020000104068560004         LANDIS MARK D       4529 RIDGE RD                           000N        CARE OF             
MTR04820200001000000000000000RA              42809027    005800300000003000000520000003NN  NNW 000                       N    
RDG04820200WATRL000000004K00000000000003070003011242015080953N000000000000N40       000720400K 10000000010000003041           
CUS0482020000104454624000         PDG KIEFER LLC      4535 RIDGE RD                           000N        CARE OF             
MTR04820200001000000000000000RA              99999999    000100310000003100000440000003NN  NNW 000                       N    
RDG04820200WATRL000000004K00000000000000000003111242015081455S002000000011N40       001180400K 10000000010000000073           
CUS0482020000104454625007         PDG KIEFER LLC      4539 RIDGE RD                           000N        CARE OF             
MTR04820200001000000000000000RA              99999999    000100320000003200000440000003NN  NNW 000                       N    
RDG04820200WATRL000000004K00000000000000000003211242015081459S002000000000N40       000040400K 10000000010000000000           
CUS0482020000104454626005         PDG KIEFER LLC      4541 RIDGE RD                           000N        CARE OF             
MTR04820200001000000000000000RA              99999999    000100330000003300000440000003NN  NNW 000                       N    
RDG04820200WATRL000000004K00000000000000000003311242015081502S002000000000N40       000030400K 10000000010000000000           
CUS0482020000104454623002         PDG KIEFER LLC      4543 RIDGE RD                           000N        CARE OF             
MTR04820200001000000000000000RA              76350260    000100340000003400000350000003NN  NNW 000                       N    
RDG04820200WATRL000000004K00000000000000104003411242015081527N000000000000N40       000250400K 10000000010000000102           
CUS0482020000104068561002         K4 LLC              4535 BENNERTON DR                       000N        CARE OF             
MTR04820200001000000000000000RA              01104348    005800350000003500000610000003NN  NNW 000                       N    
RDG04820200WATRL000000004K00000000000001188003511242015082157N000300000020N40       003900400K 10000000010000000997           
CUS0482020000104068562000         K4 LLC              4537 BENNERTON DR                       000N        CARE OF             
MTR04820200001000000000000000RA              24233519    005800360000003600000520000003NY  NNW 000                       N    
MTM0482020024233519    CAN'T LOCATE                                                                                           
RDG04820200WATRL000000004K00000000000001294000111252015075057N000000000002U40       005740400K 10000000010000001294           
CUS0482020000104068563008         KING TROY D         4553 RIDGE RD                           000N        CARE OF             
MTR04820200001000000000000000RA              99287290    005800370000003700000570000003NN  NNW 000                       N    
RDG04820200WATRL000000004K00000000000001092003611242015082456N000000000000N40       001790400K 10000000010000001078           
CUS0482020000104068564006         ZAHARIS JOHN K      4555 RIDGE RD                           000N        CARE OF             
MTR04820200001000000000000000RA              36691256    005800380000003800000520000003NN  NNW 000                       N    
RDG04820200WATRL000000004K00000000000001921003711242015082519N000000000000N40       000230400K 10000000010000001915           
CUS0482020000104068565003         LUDWIG CHARLES E    4557 RIDGE RD                           000N        CARE OF             
MTR04820200001000000000000000RA              01090375    005800390000003900000610000003NN  NNW 000                       N    
RDG04820200WATRL000000004K00000000000000758003811242015082543N000000000000N40       000240400K 10000000010000000743           
CUS0482020000104068566001         HIGH DEBORAH L      4559 RIDGE RD                           000N        CARE OF             
MTR04820200001000000000000000RA              24233517    005800400000004000000520000003NN  NNW 000                       N    
RDG04820200WATRL000000004K00000000000004181003911242015082728N000400000010N40       001050400K 10000000010000004177           
CUS0482020000104068568007         MCNEAL WILLIAM C    4563 RIDGE RD                           000N        CARE OF             
MTR04820200001000000000000000RA              50788706    005800410000004100000520000003NN  NNW 000                       N    
RDG04820200WATRL000000004K00000000000002509004011242015082854N000000000001N40       000060400K 10000000010000002490           
CUS0482020000104068569005         MCNEAL WILLIAM CHARL4565 RIDGE RD                           000N        CARE OF             
MTR04820200001000000000000000RA              45375990    005800420000004200000520000003NN  NNW 000                       N    
RDG04820200WATRL000000004K00000000000004949004111242015082936N000000000000N40       000420400K 10000000010000004936           
CUS0482020000104068570003         FOOTE HARRY,3RD     4569 RIDGE RD                           000N        CARE OF             
MTR04820200001000000000000000RA              99376292    007500430000004300000570000003NN  NNW 000                       N    
RDG04820200WATRL000000004K00000000000007878004211242015083115N000000000000N40       000990400K 10000000010000007718           
CUS0482020000104068571001         KAHL PAUL G         4571 RIDGE RD                           000N        CARE OF             
MTR04820200001000000000000000RA              01098214    007500440000004400000610000003NN  NNW 000                       N    
RDG04820200WATRL000000004K00000000000000346004311242015083143N000000000000N40       000280400K 10000000010000000337           
CUS0482020000104068572009         HALEY MARSHALL N    4607 RIDGE RD                           000N        CARE OF             
MTR04820200001000000000000000RA              52287076    005800450000004500000520000003NN  NNW 000                       N    
RDG04820200WATRL000000004K00000000000001188004411242015083310N000000000000N40       000870400K 10000000010000001139           
CUS0482020000104068573007         RV DEVELOPMENT LLC  4609 RIDGE RD                           000N        CARE OF             
MTR04820200001000000000000000RA              01080808    005800460000004600000610000003NN  NNW 000   VACANT / LOT        N    
RDG04820200WATRL000000004K00000000000000000004511242015083524N000000000000N40       001340400K 10000000010000000000           
CUS0482020000104068574005         GYR MARVIN P        4615 RIDGE RD                           000N        CARE OF             
MTR04820200001000000000000000RA              39924929    005800470000004700000520000003NN  NNW 000                       N    
RDG04820200WATRL000000004K00000000000004026004611242015083704N000000000000N40       001000400K 10000000010000004000           
CUS0482020000104068575002         MICHAEL F. BARNES   4617 RIDGE RD                           000N        CARE OF             
MTR04820200001000000000000000RA              23055827    005800480000004800000520000003NN  NNW 000                       N    
RDG04820200WATRL000000004K00000000000003408004711242015083935N000000000011N40       000430400K 10000000010000003391           
CUS0482020000104068576000         GOHLINGHORST WILLIAM4623 RIDGE RD                           000N        CARE OF             
MTR04820200001000000000000000RA              25781185    005800490000004900000520000003NN  NNW 000                       N    
RDG04820200WATRL000000004K00000000000002525004811242015084114N000000000000N40       000990400K 10000000010000002471           
CUS0482020000104068577008         GOHLINGHORST WILLIAM4627 RIDGE RD                           000N        CARE OF             
MTR04820200001000000000000000RA              24766292    005800500000005000000520000003NN  NNW 000                       N    
RDG04820200WATRL000000004K00000000000004847005011242015084404N000400000010N40       000820400K 10000000010000004820           
CUS0482020000104068578006         GOHLINGHORST WILLIAM4627 RIDGE RD                           000N        CARE OF             
MTR04820200001000000000000000RA              26013920    005800510000005100000520000003NN  NNW 000                       N    
RDG04820200WATRL000000004K00000000000000683004911242015084242N000000000000N40       000880400K 10000000010000000635           
CUS0482020000104068579004         GOHLINGHORST HENRY H4629 RIDGE RD                           000N        CARE OF             
MTR04820200001000000000000000RA              11337238    005800520000005200000520000003NN  NNW 000                       N    
RDG04820200WATRL000000004K00000000000003555005111242015084721N000400000010N40       001970400K 10000000010000003550           
CUS0482020000104068580002         BETTY D GOHLINGHORST4633 RIDGE RD                           000N        CARE OF             
MTR04820200001000000000000000RA              38983423    005800530000005300000520000003NN  NNW 000                       N    
RDG04820200WATRL000000004K00000000000001952005211242015084819N000400000010N40       000580400K 10000000010000001950           
CUS0482020000104068581000         WARYASZ JACLYN A    4637 RIDGE RD                           000N        CARE OF             
MTR04820200001000000000000000RA              10014471    005800540000005400000570000003NN  NNW 000                       N    
RDG04820200WATRL000000004K00000000000000259005311242015085148N000000000000N40       002090400K 10000000010000000245           
CUS0482020000104068583006         DAVISON ERIC W      4705 RIDGE RD                           000N        CARE OF             
MTR04820200001000000000000000RA              45389012    007500550000005500000520000003NN  NNW 000                       N    
RDG04820200WATRL000000004K00000000000001672005411242015085438N000000000000N40       001700400K 10000000010000001627           
CUS0482020000104436011003         FLEGEL RONALD       4707 RIDGE RD                           000N        CARE OF             
MTR04820200001000000000000000RA              01111769    005800560000005600000610000003NN  NNW 000                       N    
RDG04820200WATRL000000004K00000000000001231005611242015085833N000000000000N40       001280400K 10000000010000001200           
CUS0482020000104068584004         BRIAN AMEREIHN      4709 RIDGE RD                           000N        CARE OF             
MTR04820200001000000000000000RA              50478186    005800570000005700000520000003NN  NNW 000                       N    
RDG04820200WATRL000000004K00000000000001515005511242015085625N000000000000N40       001070400K 10000000010000001502           
CUS0482020000104068585001         JONES RAYMOND M,2ND 4711 RIDGE RD                           000N        CARE OF             
MTR04820200001000000000000000RA              76346485    005800580000005800000350000003NN  NNW 000                       N    
RDG04820200WATRL000000004K00000000000000253005711242015085959N000000000000N40       000860400K 10000000010000000204           
CUS0482020000104443542008         MELLA EMILIO G      4719 RIDGE RD                           000N        CARE OF             
MTR04820200001000000000000000RA              10002249    005800590000005900000570000003NN  NNW 000                       N    
RDG04820200WATRL000000004K00000000000000686005811242015090258N000000000000N40       001790400K 10000000010000000663           
CUS0482020000104068586009         PATEL JIMMY         4721 RIDGE RD                           000N        CARE OF             
MTR04820200001000000000000000RA              00163714    000100600000006000000570000003NN  NNW 000                       N    
RDG04820200WATRL000000004K00000000000001085005911242015090318N000000000000N40       000200400K 10000000010000001062           
CUS0482020000104443543006         MARTINEZ CARLOS J BO4723 RIDGE RD                           000N        CARE OF             
MTR04820200001000000000000000RA              10005465    005800610000006100000570000003NN  NNW 000                       N    
RDG04820200WATRL000000004K00000000000000636006011242015090419N000000000000N40       000610400K 10000000010000000610           
CUS0482020000104068587007         SEIFERT JOHN        4741 RIDGE RD                           000N        CARE OF             
MTR04820200001000000000000000RA              01080809    005800620000006200000610000003NN  NNW 000                       N    
RDG04820200WATRL000000004K00000000000009977010011242015095721N000000000011N40       000710400K 10000000010000009906           
CUS0482020000104068588005         SEIFERT JOHN        4741 RIDGE RD                           000N        CARE OF             
MTR04820200001000000000000000RA              19463448    007500630000006300000520000003NN  NNW 000                       N    
RDG04820200WATRL000000004K00000000000004024010111242015095610N000400000020N40       002240400K 10000000010000004006           
CUS0482020000104068589003         SUECK EMIL A        4747 RIDGE RD                           000N        CARE OF             
MTR04820200001000000000000000RA              50791905    005800640000006400000520000003NN  NNW 000                       N    
RDG04820200WATRL000000004K00000000000002151010211242015095812N000000000000N40       000510400K 10000000010000002134           
CUS0482020000104445693007         WAGONER VALERIE S   4807 RIDGE RD                           000N        CARE OF             
MTR04820200001000000000000000RA              10010562    005800650000006500000570000003NN  NNW 000                       N    
RDG04820200WATRL000000004K00000000000000282010511242015100650N000000000000N40       000390400K 10000000010000000268           
CUS0482020000104445692009         STEPHEN WINSTON ALLE4803 RIDGE RD                           000N        CARE OF             
MTR04820200001000000000000000RA              10010609    005800660000006600000570000003NN  NNW 000                       N    
RDG04820200WATRL000000004K00000000000000820010311242015100503N000000000000N40       004110400K 10000000010000000770           
CUS0482020000104068606005         MICHAEL EUGENE YOUNG4805 RIDGE RD                           000N        CARE OF             
MTR04820200001000000000000000RA              99286532    005800670000006700000570000003NY  NNW 000   VACANT / LOT        N    
MTM0482020099286532    77892857 HERSEY                                                                                        
RDG04820200WATRL000000004K00000000000000007010411242015100611N000000004110N40       000680400K 10000000010000000586           
CUS0482020000104068608001         KNELL ALBERT L      4809 RIDGE RD                           000N        CARE OF             
MTR04820200001000000000000000RA              99293425    005800680000006800000570000003NN  NNW 000                       N    
RDG04820200WATRL000000004K00000000000000695010611242015100718N000000000000N40       000280400K 10000000010000000683           
CUS0482020000104068609009         MAGEE DAVID F,JR    4815 RIDGE RD                           000N        CARE OF             
MTR04820200001000000000000000RA              14921864    005800690000006900000310000003NN  NNW 000                       N    
RDG04820200WATRL000000004K00000000000000623010711242015100820N000000000000N40       000620400K 10000000010000000593           
CUS0482020000104429562004         GORDON TIMOTHY W    4819 RIDGE RD                           000N        CARE OF             
MTR04820200001000000000000000RA              99288970    005800700000007000000570000003NN  NNW 000                       N    
RDG04820200WATRL000000004K00000000000000862010811242015100902N000000000000N40       000420400K 10000000010000000842           
CUS0482020000104068610007         MAYS ROBERT H       4821 RIDGE RD                           000N        CARE OF             
MTR04820200001000000000000000RA              35118265    005800710000007100000520000003NN  NNW 000                       N    
RDG04820200WATRL000000004K00000000000002077010911242015100942N000000000000N40       000400400K 10000000010000002062           
CUS0482020000104422557001         BUNDY STUART THOMAS 4825 RIDGE RD                           000N        CARE OF             
MTR04820200001000000000000000RA              48582388    005800720000007200000520000003NN  NNW 000                       N    
RDG04820200WATRL000000004K00000000000002179011011242015101017N000000000000N40       000350400K 10000000010000002150           
CUS0482020000104425097005         HURLEY RONALD P     4827 RIDGE RD                           000N        CARE OF             
MTR04820200001000000000000000RA              50791094    005800730000007300000520000003NN  NNW 000                       N    
RDG04820200WATRL000000004K00000000000002128011111242015101052N000000000000N40       000350400K 10000000010000002084           
CUS0482020000104068611005         JONES LUCILLE A     4831 RIDGE RD                           000N        CARE OF             
MTR04820200001000000000000000RA              36687886    005800740000007400000520000003NN  NNW 000                       N    
RDG04820200WATRL000000004K00000000000001533011211242015101116N000000000000N40       000240400K 10000000010000001512           
CUS0482020000104068612003         WHEELER DOLORES     4835 RIDGE RD                           000N        CARE OF             
MTR04820200001000000000000000RA              36687884    005800750000007500000520000003NN  NNW 000                       N    
RDG04820200WATRL000000004K00000000000002443011311242015101212N000000000000N40       000560400K 10000000010000002432           
CUS0482020000104068613001         ZIEMSKI NORMAN S    4839 RIDGE RD                           000N        CARE OF             
MTR04820200001000000000000000RA              01080829    005800760000007600000610000003NN  NNW 000                       N    
RDG04820200WATRL000000004K00000000000000835011411242015101302N000000000000N40       000500400K 10000000010000000817           
CUS0482020000104364261000         HAYDEN LEONARD J    4907 RIDGE RD                           000N        CARE OF             
MTR04820200001000000000000000RA              46885065    005800770000007700000520000003NN  NNW 000                       N    
RDG04820200WATRL000000004K00000000000002373013311242015103209N000000000000N40       000310400K 10000000010000002329           
CUS0482020000104068614009         PASCASIO LEOPOLDO   SS RIDGE RD 380 FT W OF                 000N        CARE OF             
MTR04820200001000000000000000RA              30001350    007500780000007800000570000003NN  NNW 000                       N    
RDG04820200WATRL000000004K00000000000000281013411242015103253N000000000010N40       000440400K 10000000010000000267           
CUS0482020000104068615006         BALTIMORE WHITE MARS4903 RIDGE RD                           000N        CARE OF             
MTR04820200001000000000000000RA              44172052    005800790000007900000520000003NN  NNW 000                       N    
RDG04820200WATRL000000004K00000000000001949013011242015103104N000000000000N40       002550400K 10000000010000001940           
CUS0482020000104068616004         CENTRAL CHRISTIAN ASSWC RIDGE RD &                          000N        CARE OF             
MTR04820200001000000000000000RA              99999999    005800800000008000000620000003NN  NNW 000                       N    
RDG04820200WATRL000000004K00000000000000000013111242015104644S002000000001N40       000380400K 10000000010000000427           
CUS0482020000104068617002         STATE OF MARYLAND   4934 RIDGE RD                           000N        CARE OF             
MTR04820200001000000000000000RA              99999999    005800810000008100000620000003NN  NNW 000   FERRULE APPLIED     N    
RDG04820200WATRL000000004K00000000000000751013211242015103138N000000000000N40       000070400K 10000000010000000751           
CUS0482020000104068618000         WINKELMAN WILLIAM H 4930 RIDGE RD                           000N        CARE OF             
MTR04820200001000000000000000RA              01080825    005800820000008200000610000003NN  NNW 000                       N    
RDG04820200WATRL000000004K00000000000001001014711242015104606N000000000000N40       000530400K 10000000010000000980           
CUS0482020000104068619008         DIAB MOHAMED SAYED  4926 RIDGE RD                           000N        CARE OF             
MTR04820200001000000000000000RA              14905531    005800830000008300000310000003NN  NNW 000                       N    
RDG04820200WATRL000000004K00000000000001366014511242015104253N000000000000N40       000230400K 10000000010000001350           
CUS0482020000104386081006         SNEDEGAR PRESTON R  4928 RIDGE RD                           000N        CARE OF             
MTR04820200001000000000000000RA              14930429    005800840000008400000310000003NN  NNW 000                       N    
RDG04820200WATRL000000004K00000000000000765014611242015104513N000000000000N40       001400400K 10000000010000000744           
CUS0482020000104068620006         HESS VAN E          4924 RIDGE RD                           000N        CARE OF             
MTR04820200001000000000000000RA              39291214    005800850000008500000520000003NN  NNW 000                       N    
RDG04820200WATRL000000004K00000000000001818014411242015104230N000000000000N40       000450400K 10000000010000001802           
CUS0482020000104068621004         MCLEAN ROBERT M     4920 RIDGE RD                           000N        CARE OF             
MTR04820200001000000000000000RA              01080434    005800860000008600000610000003NN  NNW 000                       N    
RDG04820200WATRL000000004K00000000000001143014311242015104145N000000000000N40       002620400K 10000000010000001127           
CUS0482020000104068701004         PHILLIPS KAREN LEE  4914 RIDGE RD                           000N        CARE OF             
MTR04820200001000000000000000RA              39585078    005800870000008700000520000003NN  NNW 000                       N    
RDG04820200WATRL000000004K00000000000002172014211242015103723N000000000000N40       000230400K 10000000010000002160           
CUS0482020000104068702002         HARVEY M HANE, JR   4912 RIDGE RD                           000N        CARE OF             
MTR04820200001000000000000000RA              32904310    005800880000008800000520000003NN  NNW 000                       N    
RDG04820200WATRL000000004K00000000000002008014111242015103700N000000000001N40       000120400K 10000000010000001975           
CUS0482020000104068703000         LARICHIUTA ANTHONY H4910 RIDGE RD                           000N        CARE OF             
MTR04820200001000000000000000RA              11334910    005800890000008900000570000003NN  NNW 000                       N    
RDG04820200WATRL000000004K00000000000002721014011242015103629N000000000000N40       000290400K 10000000010000002709           
CUS0482020000104068704008         BRANNOCK TRACY M    4908 RIDGE RD                           000N        CARE OF             
MTR04820200001000000000000000RA              35118277    005800900000009000000520000003NN  NNW 000                       N    
RDG04820200WATRL000000004K00000000000003068013911242015103600N000000000000N40       000270400K 10000000010000003049           
CUS0482020000104068705005         DEFATTA BENNY C     4906 RIDGE RD                           000N        CARE OF             
MTR04820200001000000000000000RA              26002807    005800910000009100000520000003NN  NNW 000                       N    
RDG04820200WATRL000000004K00000000000002552013811242015103533N000000000000N40       000250400K 10000000010000002547           
CUS0482020000104068706003         WILSON GWYNN L      4904 RIDGE RD                           000N        CARE OF             
MTR04820200001000000000000000RA              10020497    005800920000009200000570000003NN  NNW 000                       N    
RDG04820200WATRL000000004K00000000000000240013711242015103508N000000000000N40       000220400K 10000000010000000227           
CUS0482020000104068707001         RANDALL STEVEN E    4902 RIDGE RD                           000N        CARE OF             
MTR04820200001000000000000000RA              48588559    005800930000009300000520000003NN  NNW 000                       N    
RDG04820200WATRL000000004K00000000000001127013611242015103446N000000000000N40       000200400K 10000000010000001120           
CUS0482020000104068708009         KENNETH M MILLER    4900 RIDGE RD                           000N        CARE OF             
MTR04820200001000000000000000RA              39923316    005800940000009400000520000003NN  NNW 000                       N    
RDG04820200WATRL000000004K00000000000001729013511242015103426N000000000000N40       000930400K 10000000010000001722           
CUS0482020000104068709007         KILE EARL V SR      4838 RIDGE RD                           000N        CARE OF             
MTR04820200001000000000000000RA              01080050    005800950000009500000610000003NN  NNW 000                       N    
RDG04820200WATRL000000004K00000000000000642011511242015101344N000000000000N40       000420400K 10000000010000000629           
CUS0482020000104068710005         NOWAK DAVID F       4834 RIDGE RD                           000N        CARE OF             
MTR04820200001000000000000000RA              24233296    005800960000009600000520000003NN  NNW 000                       N    
RDG04820200WATRL000000004K00000000000004138011611242015101415N000000000000N40       000310400K 10000000010000004108           
CUS0482020000104068711003         WINKELMAN MARIE R   4830 RIDGE RD                           000N        CARE OF             
MTR04820200001000000000000000RA              01080051    005800970000009700000610000003NN  NNW 000                       N    
RDG04820200WATRL000000004K00000000000001771011711242015101510N000000000000N40       000550400K 10000000010000001750           
CUS0482020000104454935000         ONYEKONWU LIVINUS   4828 RIDGE RD                           000N        CARE OF             
MTR04820200001000000000000000RA              14930433    005800980000009800000310000003NN  NNW 000                       N    
RDG04820200WATRL000000004K00000000000000698011811242015101747N000000000000N40       001570400K 10000000010000000634           
CUS0482020000104442999001         MUCHAI JOHN         4826 RIDGE RD                           000N        CARE OF             
MTR04820200001000000000000000RA              14927831    005800990000009900000310000003NN  NNW 000                       N    
RDG04820200WATRL000000004K00000000000000300011911242015101751N000000000000N40       000040400K 10000000010000000287           
CUS0482020000104068712001         BASHIR AKHTAR       4824 RIDGE RD                           000N        CARE OF             
MTR04820200001000000000000000RA              01113726    005801000000010000000610000003NN  NNW 000                       N    
RDG04820200WATRL000000004K00000000000001359012011242015101858N000000000000N40       000670400K 10000000010000001322           
CUS0482020000104068713009         MATTINGLY BONNIE    4820 RIDGE RD                           000N        CARE OF             
MTR04820200001000000000000000RA              00139863    005801010000010100000570000003NN  NNW 000                       N    
RDG04820200WATRL000000004K00000000000001199012111242015101936N000000000000N40       000380400K 10000000010000001182           
CUS0482020000104068714007         ZENGEL PAUL E       4818 RIDGE RD                           000N        CARE OF             
MTR04820200001000000000000000RA              01080107    005801020000010200000610000003NN  NNW 000                       N    
RDG04820200WATRL000000004K00000000000000309012211242015102036N000100000010N40       000600400K 10000000010000000309           
CUS0482020000104430609000         RAMOS LUIS A        4816 RIDGE RD                           000N        CARE OF             
MTR04820200001000000000000000RA              00139767    005801030000010300000570000003NN  NNW 000                       N    
RDG04820200WATRL000000004K00000000000003096012411242015102159N000000000000N40       000320400K 10000000010000003055           
CUS0482020000104430608002         MEYER WILSON M      4816A RIDGE RD                          000N        CARE OF             
MTR04820200001000000000000000RA              00139904    005801040000010400000570000003NN  NNW 000                       N    
RDG04820200WATRL000000004K00000000000001844012311242015102127N000000000000N40       000510400K 10000000010000001820           
CUS0482020000104068715004         HUGHES BRYAN W      4814 RIDGE RD                           000N        CARE OF             
MTR04820200001000000000000000RA              99293831    005801050000010500000570000003NN  NNW 000                       N    
RDG04820200WATRL000000004K00000000000002187012511242015102401N000000000000N40       001220400K 10000000010000002154           
CUS0482020000104068716002         MAGEE REBECCA       4812 RIDGE RD                           000N        CARE OF             
MTR04820200001000000000000000RA              01080105    005801060000010600000610000003NN  NNW 000                       N    
RDG04820200WATRL000000004K00000000000001220012611242015102453N000000000000N40       000520400K 10000000010000001189           
CUS0482020000104068717000         CLAPPISON GEORGE E  4810 RIDGE RD                           000N        CARE OF             
MTR04820200001000000000000000RA              01080108    005801070000010700000610000003NN  NNW 000                       N    
RDG04820200WATRL000000004K00000000000001033012711242015102516N000000000000N40       000230400K 10000000010000001018           
CUS0482020000104068718008         SWEITZER BARRY F    4808 RIDGE RD                           000N        CARE OF             
MTR04820200001000000000000000RA              01080106    005801080000010800000610000003NN  NNW 000                       N    
RDG04820200WATRL000000004K00000000000001241012811242015102619N000000000000N40       000630400K 10000000010000001227           
CUS0482020000104068719006         NEELY RAYMOND       4806 RIDGE RD                           000N        CARE OF             
MTR04820200001000000000000000RA              01080103    005801090000010900000610000003NN  NNW 000                       N    
RDG04820200WATRL000000004K00000000000000729012911242015102649N000000000000N40       000300400K 10000000010000000711           
CUS0482020000104068567009         HARRIS MICHAEL LOREN4561 FITCH AVE                          000N        CARE OF             
MTR04820200001000000000000000RA              14903406    005801100000011000000310000003NN  NNW 000                       N    
RDG04820200WATRL000000004K00000000000001520014811242015105111N000000000000N40       002670400K 10000000010000001488           
CUS0482020000104441493006         STORTO NICHOLAS M   7808 LONGRIDGE RD                       000N        CARE OF             
MTR04820200001000000000000000RA              99999999    005801110000011100000440000003NN  NNW 000                       N    
RDG04820200WATRL000000004K00000000000000630000611252015075908N000000000010U40       000530400K 10000000010000000599           
CUS0482020000104429882006         CRYSTAL BURSTON     7810 LONGRIDGE RD                       000N        CARE OF             
MTR04820200001000000000000000RA              99387495    005801120000011200000570000003NN  NNW 000                       N    
RDG04820200WATRL000000004K00000000000000630000511252015075815N000000000000U40       000360400K 10000000010000000583           
CUS0482020000104429883004         WARNER MERVYN       7814 LONGRIDGE RD                       000N        CARE OF             
MTR04820200001000000000000000RA              01072588    005801130000011300000610000003NN  NNW 000                       N    
RDG04820200WATRL000000004K00000000000001241000411252015075712N000400000010U40       000220400K 10000000010000001225           
CUS0482020000104429881008         EMGE DAVID B/JOSEPHI7812 LONGRIDGE RD                       000N        CARE OF             
MTR04820200001000000000000000RA              99387451    005801140000011400000570000003NN  NNW 000                       N    
RDG04820200WATRL000000004K00000000000001211000311252015075739N000000000011U40       000270400K 10000000010000001187           
CUS0482020000104429884002         SERBECK CHRISTOPHER 7816 LONGRIDGE RD                       000N        CARE OF             
MTR04820200001000000000000000RA              99387496    005801150000011500000570000003NN  NNW 000                       N    
RDG04820200WATRL000000004K00000000000001907000211252015075618N000000000000U40       003210400K 10000000010000001898           
CUS0482020000104429880000         ESOCHAGHI GODFREY U 7817 LONGRIDGE RD                       000N        CARE OF             
MTR04820200001000000000000000RA              99387497    005801160000011600000570000003NN  NNW 000                       N    
RDG04820200WATRL000000004K00000000000002605001011252015080228N000000000000U40       000290400K 10000000010000002568           
CUS0482020000104429879002         LAUER WILLIAM H     7815 LONGRIDGE RD                       000N        CARE OF             
MTR04820200001000000000000000RA              99387453    005801170000011700000570000003NN  NNW 000                       N    
RDG04820200WATRL000000004K00000000000002130000911252015080159N000000000000U40       000320400K 10000000010000002095           
CUS0482020000104429886007         JOHNSON STEVEN W    7813 LONGRIDGE RD                       000N        CARE OF             
MTR04820200001000000000000000RA              99387454    005801180000011800000570000003NN  NNW 000                       N    
RDG04820200WATRL000000004K00000000000001149000811252015080127N000400000010U40       000360400K 10000000010000001131           
CUS0482020000104429885009         LAI HORNG-CHYI R    7811 LONGRIDGE RD                       000N        CARE OF             
MTR04820200001000000000000000RA              99387498    005801190000011900000570000003NN  NNW 000                       N    
RDG04820200WATRL000000004K00000000000001208000711252015080051N000000000000U40       001030400K 10000000010000001186           
CUS0482020000104398143000         SEIFERT JOHN A      7710 GUM SPRING RD                      000N        CARE OF             
MTR04820200001000000000000000RA              10000617    005801200000012000000570000003NN  NNW 000                       N    
RDG04820200WATRL000000004K00000000000000502001511252015081431N000000000000U40       000660400K 10000000010000000483           
CUS0482020000104068590001         REZEK WILLIAM C     7664 GUM SPRING RD                      000N        CARE OF             
MTR04820200001000000000000000RA              11336848    005801210000012100000570000003NN  NNW 000                       N    
RDG04820200WATRL000000004K00000000000004067001411252015081325N000000000000U40       000480400K 10000000010000004048           
CUS0482020000104068591009         CAROL A. HALE/L. C H7662 GUM SPRING RD                      000N        CARE OF             
MTR04820200001000000000000000RA              01080803    005801220000012200000610000003NN  NNW 000                       N    
RDG04820200WATRL000000004K00000000000001304001311252015081237N000000000000U40       000720400K 10000000010000001288           
CUS0482020000104437514005         FREBURGER CRAIG WALT7658 GUM SPRING RD                      000N        CARE OF             
MTR04820200001000000000000000RA              14904667    005801230000012300000310000003NN  NNW 000                       N    
RDG04820200WATRL000000004K00000000000001349001211252015081125N000000000010U40       001220400K 10000000010000001285           
CUS0482020000104068592007         MANNING NELSON G,JR 7656 GUM SPRING RD                      000N        CARE OF             
MTR04820200001000000000000000RA              50477240    005801240000012400000520000003NN  NNW 000                       N    
RDG04820200WATRL000000004K00000000000001729001111252015080923N000000000000U40       004150400K 10000000010000001718           
CUS0482020000104401452000         CASSIDY MICHAEL F ,S7408 GUM SPRING RD                      000N        CARE OF             
MTR04820200001000000000000000RA              50480083    005801250000012500000520000003NN  NNW 000                       N    
RDG04820200WATRL000000004K00000000000002909004511252015091310N000300003110U40       004260400K 10000000010000001360           
CUS0482020000104373926007         BOWSER PERRY SCOTT  7401 GUM SPRING RD                      000N        CARE OF             
MTR04820200001000000000000000RA              14907475    005801260000012600000310000003NN  NNW 000                       N    
RDG04820200WATRL000000004K00000000000000554004611252015091632N000000000000U40       002020400K 10000000010000000547           
CUS0482020000104353036009         SHELL REX B         7425 GUM SPRING RD                      000N        CARE OF             
MTR04820200001000000000000000RA              76346341    005801270000012700000350000003NN  NNW 000                       N    
RDG04820200WATRL000000004K00000000000000233004411252015090604N000000000000U40       000700400K 10000000010000000186           
CUS0482020000104387274006         DIEPOLD BERNARD     7431 GUM SPRING RD                      000N        CARE OF             
MTR04820200001000000000000000RA              00131305    005801280000012800000570000003NN  NNW 000                       N    
RDG04820200WATRL000000004K00000000000000880004311252015090454N000000000000U40       000170400K 10000000010000000870           
CUS0482020000104405388002         CRUEY WILLIAM A     7433 GUM SPRING RD                      000N        CARE OF             
MTR04820200001000000000000000RA              44003893    005801290000012900000520000003NN  NNW 000                       N    
RDG04820200WATRL000000004K00000000000002967004211252015090437N000000000000U40       001030400K 10000000010000002949           
CUS0482020000104437878004         AMAECHI FELICIA I   7437 GUM SPRING RD                      000N        CARE OF             
MTR04820200001000000000000000RA              14906083    005801300000013000000310000003NN  NNW 000                       N    
RDG04820200WATRL000000004K00000000000002788004111252015090254N000000000000U40       000680400K 10000000010000002752           
CUS0482020000104392225001         HAMED AHMED S       7439 GUM SPRING RD                      000N        CARE OF             
MTR04820200001000000000000000RA              14906078    005801310000013100000310000003NN  NNW 000   VACANT / LOT        N    
RDG04820200WATRL000000004K00000000000000898004011252015090146N000000000000U40       002130400K 10000000010000000898           
CUS0482020000104348961006         SHEARS RONALD       7501 GUM SPRING RD                      000N        CARE OF             
MTR04820200001000000000000000RA              14907170    005801320000013200000310000003NN  NNW 000                       N    
RDG04820200WATRL000000004K00000000000001503003911252015085813N000000000000U40       000310400K 10000000010000001490           
CUS0482020000104068601006         ALGER LINDA LEE     7517 GUM SPRING RD                      000N        CARE OF             
MTR04820200001000000000000000RA              27816264    005801330000013300000520000003NN  NNW 000   VACANT / LOT        N    
RDG04820200WATRL000000004K00000000000000006003011252015085742N000000000011U40       000470400K 10000000010000000006           
CUS0482020000104437742002         ISAAC KURIA         7525 GUM SPRING RD                      000N        CARE OF             
MTR04820200001000000000000000RA              14904639    005801340000013400000310000003NN  NNW 000                       N    
RDG04820200WATRL000000004K00000000000000756003711252015085542N000000000000U40       002920400K 10000000010000000742           
CUS0482020000104348960008         MIRZA SHOKAT L      7521 GUM SPRING RD                      000N        CARE OF             
MTR04820200001000000000000000RA              26018946    005801350000013500000520000003NN  NNW 000                       N    
RDG04820200WATRL000000004K00000000000000000003811252015085655S005000000000U40       000730400K 10000000010000001832           
CUS0482020000104441763002         STORCK PAULINE      2 TURNING LEAF CT                       000N        CARE OF             
MTR04820200001000000000000000RA              14925060    005801360000013600000310000003NN  NNW 000                       N    
RDG04820200WATRL000000004K00000000000000294002911252015082842N000000000000U40       000500400K 10000000010000000283           
CUS0482020000104441762004         MADU GLADYS A       4 TURNING LEAF CT                       000N        CARE OF             
MTR04820200001000000000000000RA              14924524    005801370000013700000310000003NN  NNW 000                       N    
RDG04820200WATRL000000004K00000000000000750002811252015082752N000000000000U40       000240400K 10000000010000000732           
CUS0482020000104441761006         SIBISKI BENJAMIN J  6 TURNING LEAF CT                       000N        CARE OF             
MTR04820200001000000000000000RA              14924084    005801380000013800000310000003NN  NNW 000                       N    
RDG04820200WATRL000000004K00000000000000864002711252015082728N000000000000U40       000410400K 10000000010000000844           
CUS0482020000104441760008         CARLETON A HARKINS  8 TURNING LEAF CT                       000N        CARE OF             
MTR04820200001000000000000000RA              14924519    005801390000013900000310000003NN  NNW 000                       N    
RDG04820200WATRL000000004K00000000000000262002611252015082647N000000000000U40       000620400K 10000000010000000254           
CUS0482020000104441759000         MOHAMED FARAZ       10 TURNING LEAF CT                      000N        CARE OF             
MTR04820200001000000000000000RA              14925059    005801400000014000000310000003NN  NNW 000                       N    
RDG04820200WATRL000000004K00000000000000921002511252015082545N000400000010U40       000400400K 10000000010000000901           
CUS0482020000104441758002         SHAWN JOSEPH        9 TURNING LEAF CT                       000N        CARE OF             
MTR04820200001000000000000000RA              14925063    005801410000014100000310000003NN  NNW 000                       N    
RDG04820200WATRL000000004K00000000000000938002411252015082505N000000000002U40       000130400K 10000000010000000913           
CUS0482020000104441756006         REBECCA E BOOK      5 TURNING LEAF CT                       000N        CARE OF             
MTR04820200001000000000000000RA              14925061    005801420000014200000310000003NN  NNW 000                       N    
RDG04820200WATRL000000004K00000000000000759002211252015082304N000000000000U40       000400400K 10000000010000000739           
CUS0482020000104441757004         DONOVAN WILLIAM J,2N7 TURNING LEAF CT                       000N        CARE OF             
MTR04820200001000000000000000RA              14925013    005801430000014300000310000003NN  NNW 000                       N    
RDG04820200WATRL000000004K00000000000000717002311252015082335N000000000000U40       000310400K 10000000010000000697           
CUS0482020000104441755008         MOHAMED NIZAM       3 TURNING LEAF CT                       000N        CARE OF             
MTR04820200001000000000000000RA              14925064    005801440000014400000310000003NN  NNW 000                       N    
RDG04820200WATRL000000004K00000000000000648002111252015082224N000000000000U40       000580400K 10000000010000000633           
CUS0482020000104441754001         HUYNH HUY           1 TURNING LEAF CT                       000N        CARE OF             
MTR04820200001000000000000000RA              14925016    005801450000014500000310000003NN  NNW 000                       N    
RDG04820200WATRL000000004K00000000000001564002011252015082126N000000000000U40       001060400K 10000000010000001430           
CUS0482020000104068602004         EUBANKS YVONNE A    7659 GUM SPRING RD                      000N        CARE OF             
MTR04820200001000000000000000RA              14910414    005801460000014600000310000003NN  NNW 000                       N    
RDG04820200WATRL000000004K00000000000001093001911252015081940N000000000000U40       000690400K 10000000010000001058           
CUS0482020000104068603002         HUNT MARK O         7661 GUM SPRING RD                      000N        CARE OF             
MTR04820200001000000000000000RA              45389483    007501470000014700000520000003NN  NNW 000                       N    
RDG04820200WATRL000000004K00000000000001726001811252015081831N000000000000U40       000850400K 10000000010000001697           
CUS0482020000104068604000         ALBRECHT FRANCIS C  7665 GUM SPRING RD                      000N        CARE OF             
MTR04820200001000000000000000RA              50476030    005801480000014800000520000003NN  NNW 000                       N    
RDG04820200WATRL000000004K00000000000002271001711252015081706N000300000020U40       000560400K 10000000010000002117           
CUS0482020000104068605007         CLARK MARK S        7667 GUM SPRING RD                      000N        CARE OF             
MTR04820200001000000000000000RA              75617775    005801490000014900000350000003NN  NNW 000                       N    
RDG04820200WATRL000000004K00000000000000138001611252015081610N000000000000U40       000990400K 10000000010000000122           
CUS0482020000104068533001         DEBRACCIO LEWIS A   7421 ROSSVILLE BLVD                     000N        CARE OF             
MTR04820200001000000000000000RA              27213224    005801500000015000000520000003NN  NNW 000                       N    
RDG04820200WATRL000000004K00000000000005377005711252015094034N000000000000U40       001740400K 10000000010000005357           
CUS0482020000104068534009         BRINKLEY BETTYE M   7426 ROSSVILLE BLVD                     000N        CARE OF             
MTR04820200001000000000000000RA              23649207    005801510000015100000520000003NN  NNW 000                       N    
RDG04820200WATRL000000004K00000000000005381005811252015094142N000000000000U40       000680400K 10000000010000005353           
CUS0482020000104430069007         HARRISON BUCKIE D   7424 ROSSVILLE BLVD                     000N        CARE OF             
MTR04820200001000000000000000RA              01072587    005801520000015200000610000000NN  NNW 000                       N    
RDG04820200WATRL000000004K00000000000001465005911252015094243N000300000010U40       000610400K 10000000010000001394           
CUS0482020000104076991001         KOELBER BERNARD J   7420 ROSSVILLE BLVD                     000N        CARE OF             
MTR04820200001000000000000000RA              38887644    005801530000015300000520000003NN  NNW 000                       N    
RDG04820200WATRL000000004K00000000000001430006011252015094428N000000000000U40       001050400K 10000000010000001423           
CUS0482020000104076992009         SALINS ANSELM       7410 ROSSVILLE BLVD                     000N        CARE OF             
MTR04820200001000000000000000RA              14905198    005801540000015400000310000003NN  NNW 000                       N    
RDG04820200WATRL000000004K00000000000002164006111252015095019N000000000000U40       003510400K 10000000010000002127           
CUS0482020000104441673003         THEODORA JOAN ROBINS7515 ROSSVILLE BLVD                     000N        CARE OF             
MTR04820200001000000000000000RA              14924541    005801550000015500000310000003NN  NNW 000                       N    
RDG04820200WATRL000000004K00000000000000467003211252015084134N000000000000U40       000180400K 10000000010000000443           
CUS0482020000104441674001         CHOUDHRY AKRAM      7517 ROSSVILLE BLVD                     000N        CARE OF             
MTR04820200001000000000000000RA              78028501    007501560000015600000350000003NY  NNW 000                       N    
MTM0482020078028501    MISSING LID ON HERSEY                                                                                  
RDG04820200WATRL000000004K00000000000000026003111252015084116N000300000010U40       000330400K 10000000010000000007           
CUS0482020000104394229001         C L FARMS LLC       7601 ROSSVILLE BLVD                     000N        CARE OF             
MTR04820200001000000000000000RA              41082739    005801570000015700000520000003NN  NNW 000                       N    
RDG04820200WATRL000000004K00000000000000000000000000000000000 000000000000U         000000400  10000000010000001518           
CUS0482020000104441178003         KWEBETCHOU GHISLAINE1 CEDAR HOUSE CT                        000N        CARE OF             
MTR04820200001000000000000000RA              75616736    005801580000015800000350000003NN  NNW 000                       N    
RDG04820200WATRL000000004K00000000000000098003311252015084549N000000000000U40       002550400K 10000000010000000085           
CUS0482020000104441179001         PATEL VIPUL S       3 CEDAR HOUSE CT                        000N        CARE OF             
MTR04820200001000000000000000RA              10019881    005801590000015900000570000003NN  NNW 000                       N    
RDG04820200WATRL000000004K00000000000000270003411252015084650N000000000000U40       000610400K 10000000010000000249           
CUS0482020000104441181007         AGUGO MICHAEL I     7 CEDAR HOUSE CT                        000N        CARE OF             
MTR04820200001000000000000000RA              14924518    005801600000016000000310000003NN  NNW 000                       N    
RDG04820200WATRL000000004K00000000000001074003511252015084929N000000000010U40       001590400K 10000000010000001026           
CUS0482020000104441182005         ROQUE GRETTA ANN P  9 CEDAR HOUSE CT                        000N        CARE OF             
MTR04820200001000000000000000RA              14924517    005801610000016100000310000003NN  NNW 000                       N    
RDG04820200WATRL000000004K00000000000001583003611252015085050N000000000000U40       000810400K 10000000010000001468           
CUS0482020000104447146004         LOWERY DONTE P      7611 CEDAR FARM DR                      000N        CARE OF             
MTR04820200001000000000000000RA              99999999    007501620000016200000440000003NN  NNW 000                       N    
RDG04820200WATRL000000004K00000000000000389006511252015100157N000000000021U40       000770400K 10000000010000000366           
CUS0482020000104441189000         MUNAR MARIFE V      7607 CEDAR FARM DR                      000N        CARE OF             
MTR04820200001000000000000000RA              10005315    005801630000016300000570000003NN  NNW 000                       N    
RDG04820200WATRL000000004K00000000000000695006411252015095938N000000000000U40       000370400K 10000000010000000671           
CUS0482020000104441188002         MD LANDMARK HOMES   7605 CEDAR FARM DR                      000N        CARE OF             
MTR04820200001000000000000000RA              77883466    005801640000016400000360000003NN  NNW 000                       N    
RDG04820200WATRL000000004K00000000000000048006311252015095901N000300000010U40       000760400K 10000000010000000005           
CUS0482020000104441187004         DEMISSE SAMUEL B    7603 CEDAR FARM DR                      000N        CARE OF             
MTR04820200001000000000000000RA              10019769    005801650000016500000570000003NN  NNW 000                       N    
RDG04820200WATRL000000004K00000000000000307006211252015095745N000000000000U40       004460400K 10000000010000000284           
CUS0482020000104441183003         GORDON CALEB T      7602 CEDAR FARM DR                      000N        CARE OF             
MTR04820200001000000000000000RA              10003941    005801660000016600000570000003NN  NNW 000                       N    
RDG04820200WATRL000000004K00000000000000442006911252015100506N000000000000U40       000440400K 10000000010000000427           
CUS0482020000104441184001         DE LA CRUZ ELIZABETH7604 CEDAR FARM DR                      000N        CARE OF             
MTR04820200001000000000000000RA              10005314    005801670000016700000570000003NN  NNW 000                       N    
RDG04820200WATRL000000004K00000000000001124006811252015100422N000000000000U40       000310400K 10000000010000001083           
CUS0482020000104441185008         OKEKE MICHAEL CHIMA 7606 CEDAR FARM DR                      000N        CARE OF             
MTR04820200001000000000000000RA              14927596    005801680000016800000310000003NN  NNW 000                       N    
RDG04820200WATRL000000004K00000000000001225006711252015100351N000000000000U40       000580400K 10000000010000001179           
CUS0482020000104441193002         KWABENA ADDAI       2 CEDAR GROVE CT                        000N        CARE OF             
MTR04820200001000000000000000RA              99999999    005801690000016900000440000003NN  NNW 000                       N    
RDG04820200WATRL000000004K00000000000000506006611252015100253N000000000000U40       000560400K 10000000010000000506           
CUS0482020000104068593005         SULLIVAN WAYNE P    7535 ROSSVILLE BLVD                     000N        CARE OF             
MTR04820200001000000000000000RA              50477224    005801700000017000000520000003NN  NNW 000                       N    
RDG04820200WATRL000000004K00000000000001453004811252015092824N000000000020U40       002820400K 10000000010000001445           
CUS0482020000104436056008         LIMBACK FREDERICK A 7530 ROSSVILLE BLVD                     000N        CARE OF             
MTR04820200001000000000000000RA              01111488    005801710000017100000570000003NN  NNW 000                       N    
RDG04820200WATRL000000004K00000000000001334004711252015092342N000000000000U40       004300400K 10000000010000001311           
CUS0482020000104068594003         AMOS ANDREW G  AMOS 7526 ROSSVILLE BLVD                     000N        CARE OF             
MTR04820200001000000000000000RA              23055935    005801720000017200000520000003NN  NNW 000                       N    
RDG04820200WATRL000000004K00000000000002114004911252015092955N000000000000U40       000910400K 10000000010000002114           
CUS0482020000104068595000         HARVEY AMOS         7522 ROSSVILLE BLVD                     000N        CARE OF             
MTR04820200001000000000000000RA              77890403    005801730000017300000360000003NN  NNW 000                       N    
RDG04820200WATRL000000004K00000000000000000005011252015093035N000000000000U40       000400400K 10000000010000000000           
CUS0482020000104441924000         PRAFUL SUVAGIA      7520 ROSSVILLE BLVD                     000N        CARE OF             
MTR04820200001000000000000000RA              10020975    005801740000017400000570000003NN  NNW 000                       N    
RDG04820200WATRL000000004K00000000000000320005111252015093144N000000000000U40       000690400K 10000000010000000307           
CUS0482020000104068596008         LANE STANLEY A      7516 ROSSVILLE BLVD                     000N        CARE OF             
MTR04820200001000000000000000RA              14926528    005801750000017500000310000003NN  NNW 000                       N    
RDG04820200WATRL000000004K00000000000001067005211252015093158N000000000000U40       000140400K 10000000010000001001           
CUS0482020000104068597006         DIETER ARNOLD E     7514 ROSSVILLE BLVD                     000N        CARE OF             
MTR04820200001000000000000000RA              77891968    005801760000017600000360000003NY  NNW 000                       N    
MTM0482020077891968    LID IS OFF AND READING BACKWARD                                                                        
RDG04820200WATRL000000004K00000000000009920005311252015093416N000000000010U40       001380400K 10000000010000000000           
CUS0482020000104068598004         SEARS RAYMOND J     7508 ROSSVILLE BLVD                     000N        CARE OF             
MTR04820200001000000000000000RA              23645032    005801770000017700000520000003NN  NNW 000                       N    
RDG04820200WATRL000000004K00000000000000811005411252015093548N000000000000U40       000920400K 10000000010000000809           
CUS0482020000104068599002         ADAMS JENNIFER C    7504 ROSSVILLE BLVD                     000N        CARE OF             
MTR04820200001000000000000000RA              14927098    005801780000017800000310000003NN  NNW 000                       N    
RDG04820200WATRL000000004K00000000000000406005511252015093633N000000000000U40       000450400K 10000000010000000392           
CUS0482020000104068600008         ALMSTEADT WILLIAM RA7502 ROSSVILLE BLVD                     000N        CARE OF             
MTR04820200001000000000000000RA              01080854    005801790000017900000610000003NN  NNW 000                       N    
RDG04820200WATRL000000004K00000000000001169005611252015093740N000000000000U40       000670400K 10000000010000001132           
CUS0482020000104068622002         WILLARD MARJORIE J  7601 BABIKOW RD                         000N        CARE OF             
MTR04820200001000000000000000RA              01080435    005801800000018000000610000003NN  NNW 000                       N    
RDG04820200WATRL000000004K00000000000000736007011252015101103N000000000000U40       003570400K 10000000010000000725           
CUS0482020000104068623000         PORTER RAYMOND N    7603 BABIKOW RD                         000N        CARE OF             
MTR04820200001000000000000000RA              39290840    005801810000018100000520000003NN  NNW 000                       N    
RDG04820200WATRL000000004K00000000000001714007111252015101209N000000000000U40       000660400K 10000000010000001701           
CUS0482020000104068624008         CAMERON BRUCE L     7605 BABIKOW RD                         000N        CARE OF             
MTR04820200001000000000000000RA              39290841    005801820000018200000520000003NN  NNW 000                       N    
RDG04820200WATRL000000004K00000000000003090007211252015101324N000000000000U40       000750400K 10000000010000003063           
CUS0482020000104068655002         COMES MICHAEL RAYMON7701 BABIKOW RD                         000N        CARE OF             
MTR04820200001000000000000000RA              01080858    005801830000018300000610000003NN  NNW 000                       N    
RDG04820200WATRL000000004K00000000000000401007811252015102101N000000000000U40       001240400K 10000000010000000395           
CUS0482020000104068656000         BOUMI TEMPLE CORPORA7715 BABIKOW RD                         000N        CARE OF             
MTR04820200001000000000000000RA              44091045    005801840000018400000520000003NN  NNW 000                       N    
RDG04820200WATRL000000004K00000000000000000000000000000000000 000000000000U         000000400  10000000010000000492           
CUS0482020000104068657008         HORNER CHARLES L    7717 BABIKOW RD                         000N        CARE OF             
MTR04820200001000000000000000RA              99292738    005801850000018500000570000003NN  NNW 000                       N    
RDG04820200WATRL000000004K00000000000001069008211252015103027N000003500000U40       002320400K 10000000010000001052           
CUS0482020000104394317004         SEYMOUR THOMAS L    7719 BABIKOW RD                         000N        CARE OF             
MTR04820200001000000000000000RA              38887720    005801860000018600000520000003NN  NNW 000                       N    
RDG04820200WATRL000000004K00000000000002407008611252015104030N000000000000U40       000810400K 10000000010000002395           
CUS0482020000104068658006         REIDER WILLIAM H    7729 BABIKOW RD                         000N        CARE OF             
MTR04820200001000000000000000RA              76345037    005801870000018700000350000003NN  NNW 000                       N    
RDG04820200WATRL000000004K00000000000000015008411252015103543N000000000000U40       000650400K 10000000010000000012           
CUS0482020000104068659004         ROBERT N. DIEM SR   7801 BABIKOW RD                         000N        CARE OF             
MTR04820200001000000000000000RA              46885763    005801880000018800000520000003NN  NNW 000                       N    
RDG04820200WATRL000000004K00000000000000973008311252015103438N000000000000U40       002510400K 10000000010000000958           
CUS0482020000104068660002         BUONTEMPO ARMANDO   7817 BABIKOW RD                         000N        CARE OF             
MTR04820200001000000000000000RA              39290782    005801890000018900000520000003NN  NNW 000                       N    
RDG04820200WATRL000000004K00000000000004582008711252015104246N000000000000U40       001360400K 10000000010000004535           
CUS0482020000104068661000         MCNEAL GEORGE J     7827 BABIKOW RD                         000N        CARE OF             
MTR04820200001000000000000000RA              30000753    007501900000019000000570000003NN  NNW 000                       N    
RDG04820200WATRL000000004K00000000000000000000000000000000000 000000000000U         000000400  10000000010000000495           
CUS0482020000104068662008         ACREE SHERMAN T,JR  7923 BABIKOW RD                         000N        CARE OF             
MTR04820200001000000000000000RA              99187376    005801910000019100000570000003NN  NNW 000                       N    
RDG04820200WATRL000000004K00000000000001289010111252015111045N000000000000U40       000600400K 10000000010000001263           
CUS0482020000104068663006         ARGUETA EDIN        7927 BABIKOW RD                         000N        CARE OF             
MTR04820200001000000000000000RA              50790837    005801920000019200000520000003NN  NNW 000                       N    
RDG04820200WATRL000000004K00000000000001702010011252015110945N000000000000U40       000260400K 10000000010000001683           
CUS0482020000104068673005         MILLER DEWEY ARTHUR 8017 BABIKOW RD                         000N        CARE OF             
MTR04820200001000000000000000RA              25781980    005801930000019300000520000003NN  NNW 000                       N    
RDG04820200WATRL000000004K00000000000005832010311272015104050N000000000000U60       000380400K 10000000010000005825           
CUS0482020000104068674003         REID RICKY DAVE     8013 BABIKOW RD                         000N        CARE OF             
MTR04820200001000000000000000RA              52771493    007501940000019400000520000003NN  NNW 000   FERRULE APPLIED     N    
RDG04820200WATRL000000004K00000000000000000010111272015103919S002000000001U60       000060400K 10000000010000001007           
CUS0482020000104068677006         RADCLIFFE RUTH E  HR8001 BABIKOW RD                         000N        CARE OF             
MTR04820200001000000000000000RA              01079873    005801950000019500000610000003NN  NNW 000                       N    
RDG04820200WATRL000000004K00000000000000371011111272015105806N000000000000U60       000990400K 10000000010000000361           
CUS0482020000104068678004         BEVILACQUA JOHN M   8003 BABIKOW RD                         000N        CARE OF             
MTR04820200001000000000000000RA              14908004    005801960000019600000310000003NN  NNW 000                       N    
RDG04820200WATRL000000004K00000000000000639010011272015103859N000000000000U60       003210400K 10000000010000000625           
CUS0482020000104436809000         REID RICKY DAVE     8013 BABIKOW RD                         000N        CARE OF             
MTR04820200001000000000000000RA              14901318    005801970000019700000310000003NN  NNW 000                       N    
RDG04820200WATRL000000004K00000000000001001010211272015104012N000000000000U60       000530400K 10000000010000000992           
CUS0482020000104376456002         SAMPEDRO MANUEL S   8021 BABIKOW RD                         000N        CARE OF             
MTR04820200001000000000000000RA              39290808    005801980000019800000520000003NN  NNW 000                       N    
RDG04820200WATRL000000004K00000000000003439010411272015104137N000000000000U60       000470400K 10000000010000003415           
CUS0482020000104068679002         GAYLE DAVID WALTON  8027 BABIKOW RD                         000N        CARE OF             
MTR04820200001000000000000000RA              01103764    005801990000019900000610000003NN  NNW 000                       N    
RDG04820200WATRL000000004K00000000000002075010811272015105228N000000000010U60       002530400K 10000000010000002047           
CUS0482020000104411579008         MARTEL CLEMENT J    8033 BABIKOW RD                         000N        CARE OF             
MTR04820200001000000000000000RA              45387348    005802000000020000000520000003NN  NNW 000                       N    
RDG04820200WATRL000000004K00000000000001119010511272015104526N000000000000U60       002290400K 10000000010000001098           
CUS0482020000104425825009         DIANA AYRES         8022 BABIKOW RD                         000N        CARE OF             
MTR04820200001000000000000000RA              77890400    005802010000020100000360000003NN  NNW 000                       N    
RDG04820200WATRL000000004K00000000000000000010911272015105520N000000000000U60       001720400K 10000000010000000000           
CUS0482020000104068680000         COX ROLAND L        8041 BABIKOW RD                         000N        CARE OF             
MTR04820200001000000000000000RA              01103794    005802020000020200000610000003NN  NNW 000                       N    
RDG04820200WATRL000000004K00000000000000053010611272015104745N000300000010U60       001390400K 10000000010000000048           
CUS0482020000104068681008         COMES WILLIAM JOSEPH8045 BABIKOW RD                         000N        CARE OF             
MTR04820200001000000000000000RA              40320647    005802030000020300000520000003NN  NNW 000                       N    
RDG04820200WATRL000000004K00000000000002108010711272015104815N000000000000U60       000300400K 10000000010000002071           
CUS0482020000104402745006         BOONE WILLIAM A     8016 BABIKOW RD                         000N        CARE OF             
MTR04820200001000000000000000RA              14913592    005802040000020400000310000003NN  NNW 000                       N    
RDG04820200WATRL000000004K00000000000000068011011272015105627N000000000000U60       000670400K 10000000010000000067           
CUS0482020000104440775007         DOWNEN JAMES L      7930 BABIKOW RD                         000N        CARE OF             
MTR04820200001000000000000000RA              75615311    005802050000020500000350000003NN  NNW 000                       N    
RDG04820200WATRL000000004K00000000000000140009811252015110814N000000000000U40       000540400K 10000000010000000120           
CUS0482020000104068683004         CAPRINOLO NICHOLAS J7926 BABIKOW RD                         000N        CARE OF             
MTR04820200001000000000000000RA              38887721    005802060000020600000520000003NN  NNW 000                       N    
RDG04820200WATRL000000004K00000000000004407009711252015110720N000000000000U40       000400400K 10000000010000004376           
CUS0482020000104068684002         VOGEL CHARLOTTE M   7922 BABIKOW RD                         000N        CARE OF             
MTR04820200001000000000000000RA              01103181    005802070000020700000610000003NN  NNW 000                       N    
RDG04820200WATRL000000004K00000000000000192009611252015110640N000300000010U40       000550400K 10000000010000000186           
CUS0482020000104068685009         PITT WILLIAM R      7912 BABIKOW RD                         000N        CARE OF             
MTR04820200001000000000000000RA              42810620    005802080000020800000520000003NN  NNW 000                       N    
RDG04820200WATRL000000004K00000000000002172009511252015110545N000000000000U40       002040400K 10000000010000002156           
CUS0482020000104068686007         BABIKOW TIMOTHY D   7908 BABIKOW RD                         000N        CARE OF             
MTR04820200001000000000000000RA              10006166    005802090000020900000570000003NN  NNW 000                       N    
RDG04820200WATRL000000004K00000000000000508009411252015110221N000000000000U40       003340400K 10000000010000000482           
CUS0482020000104068687005         TIMOTHY BABIKOW     7904 BABIKOW RD                         000N        CARE OF             
MTR04820200001000000000000000RA              01079870    005802100000021000000610000003NN  NNW 000                       N    
RDG04820200WATRL000000004K00000000000000718009311252015105647N000000000000U40       000690400K 10000000010000000708           
CUS0482020000104068688003         BABIKOW TIMOTHY     7900 BABIKOW RD                         000N        CARE OF             
MTR04820200001000000000000000RA              48592316    005802110000021100000520000003NN  NNW 000                       N    
RDG04820200WATRL000000004K00000000000000729009211252015105538N000000000000U40       003950400K 10000000010000000708           
CUS0482020000104068689001         BABIKOW PAUL WESLEY 7836-38 BABIKOW RD                      000N        CARE OF             
MTR04820200001000000000000000RA              35101173    001502120000021200000520000003NN  NNW 000                       N    
RDG04820200WATRL000000005K00000000000016402008911252015104615N000000000000U40       001380500K 10000000010000015357           
CUS0482020000104416492009         BABIKOW PAUL WESLEY 7838A BABIKOW RD                        000N        CARE OF             
MTR04820200001000000000000000RA              01105835    000202130000021300000610000003NN  NNW 000                       N    
RDG04820200WATRL000000005K00000000000027748009111252015104903N000000000000U40       000960500K 10000000010000026894           
CUS0482020000104416493007         BABIKOW PAUL WESLEY 7838B BABIKOW RD                        000N        CARE OF             
MTR04820200001000000000000000RA              35116856    000202140000021400000520000000NN  NNW 000                       N    
RDG04820200WATRL000000005K00000000000000000000000000000000000 000000000000U         000000500  10000000010000011875           
CUS0482020000104430345001         BABIKOW PAUL WESLEY 7838 BABIKOW RD                         000N        CARE OF             
MTR04820200001000000000000000RA              99375296    007502150000021500000570000003NN  NNW 000                       N    
RDG04820200WATRL000000004K00000000000002143009011252015104727N000000000000U40       000720400K 10000000010000002096           
CUS0482020000104068690009         TILTON KENNETH L,JR 7834 BABIKOW RD                         000N        CARE OF             
MTR04820200001000000000000000RA              01103769    005802160000021600000610000003NN  NNW 000                       N    
RDG04820200WATRL000000004K00000000000001762008811252015104357N000000000010U40       000710400K 10000000010000001758           
CUS0482020000104068693003         AMATO SAMUEL C      7724 BABIKOW RD                         000N        CARE OF             
MTR04820200001000000000000000RA              76346805    005802170000021700000350000003NN  NNW 000                       N    
RDG04820200WATRL000000004K00000000000000102008511252015103909N000300000010U40       002060400K 10000000010000000075           
CUS0482020000104385909009         REGESTER DONALD GLEN7714 BABIKOW RD                         000N        CARE OF             
MTR04820200001000000000000000RA              35109744    005802180000021800000520000003NN  NNW 000                       N    
RDG04820200WATRL000000004K00000000000005770008011252015102417N000000000000U40       001140400K 10000000010000005727           
CUS0482020000104455005001         REFESTER, NICHOLAS  7712 BABIKOW RD                         000N        CARE OF             
MTR04820200001000000000000000RA              76349902    000102190000021900000350000003NN  NNW 000                       N    
RDG04820200WATRL000000004K00000000000000082008111252015102635N000000000010U40       001380400K 10000000010000000070           
CUS0482020000104068695008         DONNA LYNN REGESTER(7710 BABIKOW RD                         000N        CARE OF             
MTR04820200001000000000000000RA              50479422    005802200000022000000520000003NN  NNW 000                       N    
RDG04820200WATRL000000004K00000000000001775007911252015102223N000000000000U40       000820400K 10000000010000001757           
CUS0482020000104068696006         GERALD SWITZER      7614 BABIKOW RD                         000N        CARE OF             
MTR04820200001000000000000000RA              30518518    005802210000022100000520000003NN  NNW 000                       N    
RDG04820200WATRL000000004K00000000000002253007711252015101857N000000000000U40       000620400K 10000000010000002250           
CUS0482020000104068697004         MASWADEH WALEED MOHA7610 BABIKOW RD                         000N        CARE OF             
MTR04820200001000000000000000RA              29083540    005802220000022200000520000003NN  NNW 000                       N    
RDG04820200WATRL000000004K00000000000004077007611252015101755N000000000000U40       000860400K 10000000010000004052           
CUS0482020000104068698002         GONCE MARK E        7608 BABIKOW RD                         000N        CARE OF             
MTR04820200001000000000000000RA              39585084    005802230000022300000520000003NN  NNW 000                       N    
RDG04820200WATRL000000004K00000000000001799007511252015101629N000000000000U40       001010400K 10000000010000001792           
CUS0482020000104068699000         RICHARD J ROH       7606 BABIKOW RD                         000N        CARE OF             
MTR04820200001000000000000000RA              38984141    005802240000022400000520000003NN  NNW 000                       N    
RDG04820200WATRL000000004K00000000000001693007411252015101448N000000000000U40       000260400K 10000000010000001669           
CUS0482020000104068700006         SHIRK BOBBY JACK    7604 BABIKOW RD                         000N        CARE OF             
MTR04820200001000000000000000RA              33416463    007502250000022500000520000003NN  NNW 000                       N    
RDG04820200WATRL000000004K00000000000003721007311252015101422N000000000000U40       000580400K 10000000010000003699           
CUS0482020000104456867003         MCNEAL FARMS LLC    7832 MCNEAL FARM CIR                    000N        CARE OF             
MTR04820200001000000000000000RA              99999999    007502260000022600000440000003NN  NNW 000                       N    
RDG04820200WATRL000000004K00000000000000000008511272015102330S022000000000U60       000400400K 10000000010000000000           
CUS0482020000104456864000         MCNEAL FARMS LLC    7932 MCNEAL FARM CIR                    000N        CARE OF             
MTR04820200001000000000000000RA              99999999    007502270000022700000440000003NN  NNW 000                       N    
RDG04820200WATRL000000004K00000000000000000008411272015102250S063000000000U60       001010400K 10000000010000000000           
CUS0482020000104456865007         MCNEAL FARMS LLC    7930 MCNEAL FARM CIR                    000N        CARE OF             
MTR04820200001000000000000000RA              99999999    007502280000022800000440000003NN  NNW 000                       N    
RDG04820200WATRL000000004K00000000000000000009911272015103338S022000000000U60       000040400K 10000000010000000000           
CUS0482020000104456855008         MCNEAL FARMS LLC    7928 MCNEAL FARM CIR                    000N        CARE OF             
MTR04820200001000000000000000RA              99999999    007502290000022900000440000000NN  NNW 000                       N    
RDG04820200WATRL000000004K00000000000000000009811272015103334S022000000000U60       000020400K 10000000010000000000           
CUS0482020000104456854001         MCNEAL FARMS LLC    7926 MCNEAL FARM CIR                    000N        CARE OF             
MTR04820200001000000000000000RA              99999999    007502300000023000000440000003NN  NNW 000                       N    
RDG04820200WATRL000000004K00000000000000000009711272015103332S022000000000U60       000210400K 10000000010000000000           
CUS0482020000104456852005         GREGORY & CHRISTINE 7922 MCNEAL FARM CIR                    000N        CARE OF             
MTR04820200001000000000000000RA              99999999    007502310000023100000440000003NN  NNW 000                       N    
RDG04820200WATRL000000004K00000000000000000008111272015102014S063000000000U60       000350400K 10000000010000000000           
CUS0482020000104456850009         MCNEAL FARMS LLC    7920 MCNEAL FARM CIR                    000N        CARE OF             
MTR04820200001000000000000000RA              99999999    007502320000023200000440000003NN  NNW 000                       N    
RDG04820200WATRL000000004K00000000000000000008011272015101939S022000000000U60       000130400K 10000000010000000000           
CUS0482020000104456849001         MCNEAL FARMS LLC    7918 MCNEAL FARM CIR                    000N        CARE OF             
MTR04820200001000000000000000RA              99999999    007502330000023300000440000003NN  NNW 000                       N    
RDG04820200WATRL000000004K00000000000000000007911272015101926S022000000000U60       000030400K 10000000010000000000           
CUS0482020000104456848003         MCNEAL FARMS LLC    7916 MCNEAL FARM CIR                    000N        CARE OF             
MTR04820200001000000000000000RA              99999999    007502340000023400000440000003NN  NNW 000                       N    
RDG04820200WATRL000000004K00000000000000000007811272015101923S022000000000U60       000070400K 10000000010000000000           
CUS0482020000104456847005         DIANA WAISOME       7914 MCNEAL FARM CIR                    000N        CARE OF             
MTR04820200001000000000000000RA              99999999    007502350000023500000440000003NN  NNW 000                       N    
RDG04820200WATRL000000004K00000000000000000007711272015101916S063000000000U60       000490400K 10000000010000000000           
CUS0482020000104456845009         MCNEAL FARMS LLC    7912 MCNEAL FARM CIR                    000N        CARE OF             
MTR04820200001000000000000000RA              99999999    007502360000023600000440000003NN  NNW 000                       N    
RDG04820200WATRL000000004K00000000000000000009611272015103311S063000000000U60       000270400K 10000000010000000000           
CUS0482020000104456846007         MCNEAL FARMS LLC    7910 MCNEAL FARM CIR                    000N        CARE OF             
MTR04820200001000000000000000RA              99999999    007502370000023700000440000003NN  NNW 000                       N    
RDG04820200WATRL000000004K00000000000000000009511272015103244S063000000000U60       000300400K 10000000010000000000           
CUS0482020000104456860008         MCNEAL FARMS LLC    7906 MCNEAL FARM CIR                    000N        CARE OF             
MTR04820200001000000000000000RA              99999999    007502380000023800000440000003NN  NNW 000                       N    
RDG04820200WATRL000000004K00000000000000000009411272015103214S063000000000U60       000330400K 10000000010000000000           
CUS0482020000104456859000         MCNEAL FARMS LLC    7904 MCNEAL FARM CIR                    000N        CARE OF             
MTR04820200001000000000000000RA              99999999    007502390000023900000440000003NN  NNW 000                       N    
RDG04820200WATRL000000004K00000000000000000009311272015103141S063000000000U60       000410400K 10000000010000000000           
CUS0482020000104456858002         MCNEAL FARMS LLC    7902 MCNEAL FARM CIR                    000N        CARE OF             
MTR04820200001000000000000000RA              99999999    007502400000024000000440000003NN  NNW 000                       N    
RDG04820200WATRL000000004K00000000000000000009211272015103100S022000000000U60       000040400K 10000000010000000000           
CUS0482020000104456868001         MCNEAL FARMS LLC    7900 MCNEAL FARM CIR                    000N        CARE OF             
MTR04820200001000000000000000RA              99999999    007502410000024100000440000003NN  NNW 000                       N    
RDG04820200WATRL000000004K00000000000000000009111272015103056S022000000000U60       000080400K 10000000010000000000           
CUS0482020000104456861006         SUNG CHANG          7903 MCNEAL FARM CIR                    000N        CARE OF             
MTR04820200001000000000000000RA              99999999    007502420000024200000440000003NN  NNW 000                       N    
RDG04820200WATRL000000004K00000000000000000009011272015103048S063000000000U60       000230400K 10000000010000000000           
CUS0482020000104456862004         MCNEAL FARMS LLC    7905 MCNEAL FARM CIR                    000N        CARE OF             
MTR04820200001000000000000000RA              99999999    007502430000024300000440000003NN  NNW 000                       N    
RDG04820200WATRL000000004K00000000000000000008911272015103025S063000000000U60       001810400K 10000000010000000000           
CUS0482020000104456857004         MCNEAL FARMS LLC    7917 MCNEAL FARM CIR                    000N        CARE OF             
MTR04820200001000000000000000RA              99999999    007502440000024400000440000003NN  NNW 000                       N    
RDG04820200WATRL000000004K00000000000000000007611272015101827S063000000000U60       006460400K 10000000010000000000           
CUS0482020000104456856006         MCNEAL FARMS LLC    7919 MCNEAL FARM CIR                    000N        CARE OF             
MTR04820200001000000000000000RA              99999999    007502450000024500000440000003NN  NNW 000                       N    
RDG04820200WATRL000000004K00000000000000000008211272015102051S063000000000U60       000370400K 10000000010000000000           
CUS0482020000104456869009         MCNEAL FARMS LLC    7833 MCNEAL FARM CIR                    000N        CARE OF             
MTR04820200001000000000000000RA              99999999    007502460000024600000440000003NN  NNW 000                       N    
RDG04820200WATRL000000004K00000000000000000008611272015102406S063000000000U60       000360400K 10000000010000000000           
CUS0482020000104456870007         MCNEAL FARMS LLC    7831 MCNEAL FARM CIR                    000N        CARE OF             
MTR04820200001000000000000000RA              99999999    007502470000024700000440000003NN  NNW 000                       N    
RDG04820200WATRL000000004K00000000000000000008711272015102632S063000000000U60       001460400K 10000000010000000000           
CUS0482020000104456866005         MCNEAL FARMS LLC    7830 MCNEAL FARM CIR                    000N        CARE OF             
MTR04820200001000000000000000RA              99999999    007502480000024800000440000003NN  NNW 000                       N    
RDG04820200WATRL000000004K00000000000000000008811272015102724S063000000000U60       000520400K 10000000010000000000           
CUS0482020000104410808002         MORENO RICHARD M    5002 KING AVE                           000N        CARE OF             
MTR04820200001000000000000000RA              45383240    005802490000024900000520000003NN  NNW 000                       N    
RDG04820200WATRL000000004K00000000000003776000111272015080901N000000000000U60       000000400K 10000000010000003719           
CUS0482020000104068625005         MAY WILLIAM V  MAY R5001 KING AVE                           000N        CARE OF             
MTR04820200001000000000000000RA              46878460    005802500000025000000520000003NN  NNW 000                       N    
RDG04820200WATRL000000004K00000000000001497000211272015081004N000000000000U60       000630400K 10000000010000001480           
CUS0482020000104068626003         ROTH ARLENE C       5003 KING AVE                           000N        CARE OF             
MTR04820200001000000000000000RA              99188075    005802510000025100000570000003NN  NNW 000                       N    
RDG04820200WATRL000000004K00000000000001142000311272015081149N000000000000U60       001050400K 10000000010000001126           
CUS0482020000104068627001         ROTH ARLENE C       5005 KING AVE                           000N        CARE OF             
MTR04820200001000000000000000RA              9596128     005802520000025200000570000003NN  NNW 000                       N    
RDG04820200WATRL000000004K00000000000003759000411272015081246N000000000000U60       000570400K 10000000010000003749           
CUS0482020000104068628009         CONDON ROBERT LOUIS,5109 KING AVE                           000N        CARE OF             
MTR04820200001000000000000000RA              01080824    005802530000025300000610000003NN  NNW 000                       N    
RDG04820200WATRL000000004K00000000000001120000911272015082102N000000000000U60       001050400K 10000000010000001105           
CUS0482020000104068629007         ESSEX               402D KING AVE                           000N        CARE OF             
MTR04820200001000000000000000RA              45382833    005802540000025400000520000003NN  NNW 000                       N    
RDG04820200WATRL000000004K00000000000000000000811272015081917S002000000001U60       000120400K 10000000010000001067           
CUS0482020000104068630005         CONDON ROBERT L,JR  5111 KING AVE                           000N        CARE OF             
MTR04820200001000000000000000RA              00125680    005802550000025500000570000003NN  NNW 000                       N    
RDG04820200WATRL000000004K00000000000000573001011272015082209N000000000000U60       000670400K 10000000010000000545           
CUS0482020000104369757002         BLOTKAMP MICHAEL E  5115 KING AVE                           000N        CARE OF             
MTR04820200001000000000000000RA              31581373    005802560000025600000520000003NY  NNW 000                       N    
MTM0482020031581373    CAN*T LOCATE                                                                                           
RDG04820200WATRL000000004K00000000000000000000000000000000000 000000000000U         000000400  10000000010000001560           
CUS0482020000104068631003         ROBESON MARY C      5117 KING AVE                           000N        CARE OF             
MTR04820200001000000000000000RA              50791539    005802570000025700000520000003NN  NNW 000                       N    
RDG04820200WATRL000000004K00000000000001853001511272015082952N000000000000U60       000350400K 10000000010000001836           
CUS0482020000104068632001         KOCSIS BRYAN J      5119 KING AVE                           000N        CARE OF             
MTR04820200001000000000000000RA              31586902    005802580000025800000520000003NN  NNW 000                       N    
RDG04820200WATRL000000004K00000000000003981001411272015082917N000000000000U60       001310400K 10000000010000003951           
CUS0482020000104068633009         RICHARD A BREWER    5121 KING AVE                           000N        CARE OF             
MTR04820200001000000000000000RA              19461787    005802590000025900000520000003NN  NNW 000                       N    
RDG04820200WATRL000000004K00000000000006199001311272015082706N000000000000U60       000910400K 10000000010000006183           
CUS0482020000104068634007         BABIKOW STEVEN W    5123 KING AVE                           000N        CARE OF             
MTR04820200001000000000000000RA              35118271    005802600000026000000520000003NN  NNW 000                       N    
