FHDNNNN036006423006423006480N                                                                                           019535
RHD02050700NN02220222000002220000000002220222000163NY022202220222000200450000000000000000000001    12152014NY020000 N         
CUS0205070000102259741003         CAMPBELL, CHYREA    824 N PAYSON ST                         000N        CARE OF             
MTR02050700001000000000000000RA              14926203    005800010000000100000310000003NN  NNW 000                       N    
RDG02050700WATRL000000004K00000000000000833000112182014100044N000000000000U23       000000400K 10000000010000000819           
CUS0205070000102259742001         JOSEPH B SNOWDEN & W822 N PAYSON ST                         000N        CARE OF             
MTR02050700001000000000000000RA              40781659    005800020000000200000520000003NN  NNW 000                       N    
RDG02050700WATRL000000004K00000000000001338000212182014100104N000000000000U23       000200400K 10000000010000001330           
CUS0205070000102259743009         ALUFA OLUFEMI       820 N PAYSON ST                         000N        CARE OF             
MTR02050700001000000000000000RA              01095805    005800030000000300000610000003NN  NNW 000                       N    
RDG02050700WATRL000000004K00000000000000579000312182014100116N000000000000U23       000120400K 10000000010000000579           
CUS0205070000102259746002         BRICE JR, JENKINS   814 N PAYSON ST                         000N        CARE OF             
MTR02050700001000000000000000RA              99187473    005800040000000400000570000003NN  NNW 000   VACANT PROPERTY     N    
RDG02050700WATRL000000004K00000000000000507000112172014094339N000000000000N23       000000400K 10000000010000000507           
CUS0205070000102259747000         PEARL TOLSON        812 N PAYSON ST                         000N        CARE OF             
MTR02050700001000000000000000RA              41589763    005800050000000500000520000003NN  NNW 000                       N    
RDG02050700WATRL000000004K00000000000001127000412182014100136N000000000000U23       000200400K 10000000010000001126           
CUS0205070000102259748008         ALSTON, SHAWNAE N.  810 N PAYSON ST                         000N        CARE OF             
MTR02050700001000000000000000RA              10020128    005800060000000600000570000003NN  NNW 000                       N    
RDG02050700WATRL000000004K00000000000000009000512182014100155N000000000000U23       000190400K 10000000010000000009           
CUS0205070000102259749006         LYNDA P ROBERTSON   808 N PAYSON ST                         000N        CARE OF             
MTR02050700001000000000000000RA              46875340    005800070000000700000520000003NN  NNW 000                       N    
RDG02050700WATRL000000004K00000000000004069000612182014100206N000000000000U23       000110400K 10000000010000004069           
CUS0205070000102259750004         DONKOH, SAMPSON     806 N PAYSON ST                         000N        CARE OF             
MTR02050700001000000000000000RA              41589761    005800080000000800000520000003NN  NNW 000   VACANT PROPERTY     N    
RDG02050700WATRL000000004K00000000000001188000212172014094348N000000000000N23       000090400K 10000000010000001188           
CUS0205070000102259752000         MCCLELLAN-HALL, THEL802 N PAYSON ST                         000N        CARE OF             
MTR02050700001000000000000000RA              27821253    005800090000000900000520000003NN  NNW 000                       N    
RDG02050700WATRL000000004K00000000000003733000712182014100223N000000000000U23       000170400K 10000000010000003714           
CUS0205070000102259753008         SALAH-EDDINE, ALI   800 N PAYSON ST                         000N        CARE OF             
MTR02050700001000000000000000RA              39583329    005800100000001000000520000003NN  NNW 000                       N    
RDG02050700WATRL000000004K00000000000002450000812182014100242N000000000000U23       000190400K 10000000010000002450           
CUS0205070000102259754006         PARK, YOUNG HEE     2000-02 W LANVALE ST                    000N        CARE OF             
MTR02050700001000000000000000RA              00120270    007500110000001100000570000003NN  NNW 000                       N    
RDG02050700WATRL000000004K00000000000000169000912182014100323N000000000000U23       000410400K 10000000010000000165           
CUS0205070000102259755003         GOOSKA, LLC         2006 W LANVALE ST                       000N        CARE OF             
MTR02050700001000000000000000RA              10011393    005800120000001200000570000003NN  NNW 000                       N    
RDG02050700WATRL000000004K00000000000000138001012182014100352N000000000000U23       000290400K 10000000010000000131           
CUS0205070000102259757009         PRIDE INVESTMENT &  2010 W LANVALE ST                       000N        CARE OF             
MTR02050700001000000000000000RA              41081302    005800130000001300000520000003NN  NNW 000                       N    
RDG02050700WATRL000000004K00000000000001965001112182014100406N000000000000U23       000140400K 10000000010000001965           
CUS0205070000102224582003         GARDEN HILL PROPERTI2014 HARLEM AVE                         000N        CARE OF             
MTR02050700001000000000000000RA              10008774    005800140000001400000570000003NN  NNW 000                       N    
RDG02050700WATRL000000004K00000000000000000000312172014094400N000000000000N23       000120400K 10000000010000000000           
CUS0205070000102259762009         MAYOR AND CITY COUNC2020 W LANVALE ST                       000N        CARE OF             
MTR02050700001000000000000000RA              99999999    005800150000001500000620000003NN  NNW 000                       N    
RDG02050700WATRL000000004K00000000000000000000412172014094403S002000000000N23       000030400K 10000000010000000191           
CUS0205070000102259763007         EAST JEFFERSON STREE801 N BRICE ST                          000N        CARE OF             
MTR02050700001000000000000000RA              10001557    005800160000001600000570000003NN  NNW 000                       N    
RDG02050700WATRL000000004K00000000000000289001212182014100448N000400000010U23       000420400K 10000000010000000287           
CUS0205070000102259764005         MAYOR AND CITY COUNC803 N BRICE ST                          000N        CARE OF             
MTR02050700001000000000000000RA              99999999    005800170000001700000620000003NN  NNW 000   VACANT PROPERTY     N    
RDG02050700WATRL000000004K00000000000000000000512172014094409S002000000000N23       000060400K 10000000010000001238           
CUS0205070000102259765002         BURCH, MARLON       805 N BRICE ST                          000N        CARE OF             
MTR02050700001000000000000000RA              76346697    005800180000001800000350000003NN  NNW 000                       N    
RDG02050700WATRL000000004K00000000000000080001312182014100527N000300000021U23       000140400K 10000000010000000002           
CUS0205070000102259766000         SHARMA, BRIJ M.     807 N BRICE ST                          000N        CARE OF             
MTR02050700001000000000000000RA              14921100    005800190000001900000310000003NN  NNW 000                       N    
RDG02050700WATRL000000004K00000000000000478001412182014100543N000000000000U23       000160400K 10000000010000000445           
CUS0205070000102259770002         LOUISE BRITT        815 N BRICE ST                          000N        CARE OF             
MTR02050700001000000000000000RA              01099586    005800200000002000000610000003NN  NNW 000                       N    
RDG02050700WATRL000000004K00000000000000733001512182014100555N000000000000U23       000120400K 10000000010000000733           
CUS0205070000102259771000         GEORGE BENTON ETAL  817 N BRICE ST                          000N        CARE OF             
MTR02050700001000000000000000RA              41086294    005800210000002100000520000003NN  NNW 000   VACANT PROPERTY     N    
RDG02050700WATRL000000004K00000000000001346000612172014094416N000000000000N23       000070400K 10000000010000001346           
CUS0205070000102259772008         MARY EDITH BENTON   819 N BRICE ST                          000N        CARE OF             
MTR02050700001000000000000000RA              41080199    005800220000002200000520000003NN  NNW 000                       N    
RDG02050700WATRL000000004K00000000000000677001612182014100612N000000000000U23       000170400K 10000000010000000596           
CUS0205070000102259773006         MARY E CROMWELL     821 N BRICE ST                          000N        CARE OF             
MTR02050700001000000000000000RA              52288030    005800230000002300000520000003NN  NNW 000                       N    
RDG02050700WATRL000000004K00000000000000662001712182014100632N000000000000U23       000200400K 10000000010000000655           
CUS0205070000102259774004         MAYOR AND CITY COUNC823 N BRICE ST                          000N        CARE OF             
MTR02050700001000000000000000RA              99999999    005800240000002400000620000003NN  NNW 000                       N    
RDG02050700WATRL000000004K00000000000000000000712172014094422S002000000000N23       000060400K 10000000010000000751           
CUS0205070000102259775001         BERTHA GRAY         825 N BRICE ST                          000N        CARE OF             
MTR02050700001000000000000000RA              01087745    005800250000002500000610000003NN  NNW 000                       N    
RDG02050700WATRL000000004K00000000000001197001812182014100659N000400000010U23       000270400K 10000000010000001196           
CUS0205070000102259776009         GRAY, CLIFTON       827 N BRICE ST                          000N        CARE OF             
MTR02050700001000000000000000RA              01110413    005800260000002600000610000003NN  NNW 000                       N    
RDG02050700WATRL000000004K00000000000000905001912182014100720N000300000010U23       000210400K 10000000010000000881           
CUS0205070000102259778005         GNJ INVESTMENTS, LLC816 N BRICE ST                          000N        CARE OF             
MTR02050700001000000000000000RA              01087744    005800270000002700000610000003NN  NNW 000                       N    
RDG02050700WATRL000000004K00000000000000766002012182014100741N000000000000U23       000210400K 10000000010000000761           
CUS0205070000102259779003         CLARENCE & LAUREN CO814 N BRICE ST                          000N        CARE OF             
MTR02050700001000000000000000RA              50789728    005800280000002800000520000003NN  NNW 000                       N    
RDG02050700WATRL000000004K00000000000001353002112182014100806N000000000001U23       000050400K 10000000010000001339           
CUS0205070000102259780001         CORN, SHAWNELL TIERR812 N BRICE ST                          000N        CARE OF             
MTR02050700001000000000000000RA              75615571    005800290000002900000350000003NN  NNW 000                       N    
RDG02050700WATRL000000004K00000000000000084002212182014100812N000000000000U23       000060400K 10000000010000000066           
CUS0205070000102259781009         DORETHA & SEAN MCFAD810 N BRICE ST                          000N        CARE OF             
MTR02050700001000000000000000RA              48585586    005800300000003000000520000003NN  NNW 000                       N    
RDG02050700WATRL000000004K00000000000002130002312182014100832N000000000000U23       000200400K 10000000010000002130           
CUS0205070000102259782007         MCFADDEN, LENA      808 N BRICE ST                          000N        CARE OF             
MTR02050700001000000000000000RA              10011580    005800310000003100000570000003NN  NNW 000                       N    
RDG02050700WATRL000000004K00000000000000205002412182014100850N000000000000U23       000180400K 10000000010000000189           
CUS0205070000102259783005         DEFORD, LARRY H     806 N BRICE ST                          000N        CARE OF             
MTR02050700001000000000000000RA              40781333    005800320000003200000520000003NN  NNW 000                       N    
RDG02050700WATRL000000004K00000000000002331002512182014100859N000000000000U23       000090400K 10000000010000002331           
CUS0205070000102259784003         SHPRITZ, LEE M      804 N BRICE ST                          000N        CARE OF             
MTR02050700001000000000000000RA              99999999    005800330000003300000620000003NN  NNW 000   VACANT PROPERTY     N    
RDG02050700WATRL000000004K00000000000000000000812172014094433S002000000000N23       000110400K 10000000010000002852           
CUS0205070000102259785000         DORA TAYLOR         802 N BRICE ST                          000N        CARE OF             
MTR02050700001000000000000000RA              99999999    005800340000003400000620000003NN  NNW 000   VACANT PROPERTY     N    
RDG02050700WATRL000000004K00000000000000000000912172014094436S002000000000N23       000030400K 10000000010000000395           
CUS0205070000102259787006         AGWUNA, ARINZE A.   2022 W LANVALE ST                       000N        CARE OF             
MTR02050700001000000000000000RA              14926561    005800350000003500000310000003NN  NNW 000   VACANT PROPERTY     N    
RDG02050700WATRL000000004K00000000000000355001012172014094440N000000000000N23       000040400K 10000000010000000355           
CUS0205070000102259788004         CITY HOMES PATRIOTS 2024 W LANVALE ST                       000N        CARE OF             
MTR02050700001000000000000000RA              39290022    005800360000003600000520000003NN  NNW 000                       N    
RDG02050700WATRL000000004K00000000000002347002612182014100948N000000000000U23       000490400K 10000000010000002317           
CUS0205070000102259789002         WHITE SR., TYRONE   2026 W LANVALE ST                       000N        CARE OF             
MTR02050700001000000000000000RA              32898314    005800370000003700000520000003NN  NNW 000   VACANT PROPERTY     N    
RDG02050700WATRL000000004K00000000000002025001112172014094444N000000000000N23       000040400K 10000000010000002025           
CUS0205070000102259790000         WARD, BETTY         2028 W LANVALE ST                       000N        CARE OF             
MTR02050700001000000000000000RA              99999999    005800380000003800000620000003NN  NNW 000                       N    
RDG02050700WATRL000000004K00000000000000000001212172014094447S002000000000N23       000030400K 10000000010000003931           
CUS0205070000102259791008         SYLVAIN, MARIE I.   2030 W LANVALE ST                       000N        CARE OF             
MTR02050700001000000000000000RA              10022786    005800390000003900000570000003NN  NNW 000                       N    
RDG02050700WATRL000000004K00000000000000000001312172014094453N000000000000N23       000060400K 10000000010000000000           
CUS0205070000102259792006         ZALDIVAR, GABRIEL   2032 W LANVALE ST                       000N        CARE OF             
MTR02050700001000000000000000RA              10003492    005800400000004000000570000003NN  NNW 000                       N    
RDG02050700WATRL000000004K00000000000000211002712182014101022N000000000000U23       000340400K 10000000010000000204           
CUS0205070000102259794002         WOODS, HAMILTON     2036 W LANVALE ST                       000N        CARE OF             
MTR02050700001000000000000000RA              44002763    005800410000004100000520000003NN  NNW 000   VACANT PROPERTY     N    
RDG02050700WATRL000000004K00000000000000890001412172014094457N000000000000N23       000040400K 10000000010000000890           
CUS0205070000102389518008         NEW DAY FELLOWSHIP M813-27 N PULASKI ST                     000N        CARE OF             
MTR02050700001000000000000000RA              14918964    005800420000004200000310000003NN  NNW 000                       N    
RDG02050700WATRL000000004K00000000000000344002812182014101113N000000000000U23       000510400K 10000000010000000340           
CUS0205070000102259797005         BLACKMAN COMPANY, TH2045 W LANVALE ST                       000N        CARE OF             
MTR02050700001000000000000000RA              99999999    007500430000004300000620000003NN  NNW 000                       N    
RDG02050700WATRL000000004K00000000000000000001512172014094502S002000000000N23       000050400K 10000000010000000149           
CUS0205070000102259801005         DANDRIDGE, JOHN M   2037 W LANVALE ST                       000N        CARE OF             
MTR02050700001000000000000000RA              01082278    005800440000004400000610000003NN  NNW 000                       N    
RDG02050700WATRL000000004K00000000000001275002912182014101219N000000000000U23       000660400K 10000000010000001257           
CUS0205070000102259802003         JOSHUA R JONES      2035 W LANVALE ST                       000N        CARE OF             
MTR02050700001000000000000000RA              40781361    005800450000004500000520000003NN  NNW 000                       N    
RDG02050700WATRL000000004K00000000000001634003012182014101625N000000000000U23       002460400K 10000000010000001634           
CUS0205070000102259803001         1814 BOND ST., LLC  2033 W LANVALE ST                       000N        CARE OF             
MTR02050700001000000000000000RA              26011483    005800460000004600000520000003NN  NNW 000                       N    
RDG02050700WATRL000000004K00000000000003661003112182014101648N000000000000U23       000230400K 10000000010000003644           
CUS0205070000102259804009         MAYOR AND CITY COUNC2031 W LANVALE ST                       000N        CARE OF             
MTR02050700001000000000000000RA              38984781    005800470000004700000520000003NN  NNW 000   VACANT PROPERTY     N    
RDG02050700WATRL000000004K00000000000001929001612172014094508N000000000000N23       000060400K 10000000010000001929           
CUS0205070000102259805006         PARADISE INVESTMENT 2029 W LANVALE ST                       000N        CARE OF             
MTR02050700001000000000000000RA              75618160    005800480000004800000350000003NN  NNW 000                       N    
RDG02050700WATRL000000004K00000000000000103003212182014101723N000000000000U23       000350400K 10000000010000000078           
CUS0205070000102259806004         THOMPSON, JOEL D.   2027 W LANVALE ST                       000N        CARE OF             
MTR02050700001000000000000000RA              99999999    005800490000004900000620000003NN  NNW 000                       N    
RDG02050700WATRL000000004K00000000000000000001712172014094557S002000000000N23       000490400K 10000000010000000018           
CUS0205070000102259808000         LIBERTY HOMESTEAD, L2023 W LANVALE ST                       000N        CARE OF             
MTR02050700001000000000000000RA              46888619    005800500000005000000520000003NN  NNW 000                       N    
RDG02050700WATRL000000004K00000000000001091003312182014101751N000000000000U23       000280400K 10000000010000001066           
CUS0205070000102259809008         WATKINS, VERNELL    2021 W LANVALE ST                       000N        CARE OF             
MTR02050700001000000000000000RA              41257432    005800510000005100000520000003NN  NNW 000                       N    
RDG02050700WATRL000000004K00000000000002433003412182014101815N000000000000U23       000240400K 10000000010000002416           
CUS0205070000102259810006         HARPER, EVANGELINE  2019 W LANVALE ST                       000N        CARE OF             
MTR02050700001000000000000000RA              41257404    005800520000005200000520000003NN  NNW 000                       N    
RDG02050700WATRL000000004K00000000000001499003512182014101820N000000000000U23       000050400K 10000000010000001488           
CUS0205070000102259813000         HAMILTON, REGINALD  2013 W LANVALE ST                       000N        CARE OF             
MTR02050700001000000000000000RA              14910185    005800530000005300000310000003NN  NNW 000   VACANT PROPERTY     N    
RDG02050700WATRL000000004K00000000000000000001812172014094604N000000000000N23       000070400K 10000000010000000000           
CUS0205070000102259815005         WASHINGTON, JIMMIE  2009 W LANVALE ST                       000N        CARE OF             
MTR02050700001000000000000000RA              27821503    005800540000005400000520000003NN  NNW 000                       N    
RDG02050700WATRL000000004K00000000000002253003612182014101838N000000000000U23       000180400K 10000000010000002253           
CUS0205070000102259816003         GREGG, WEEDYNDE     2007 W LANVALE ST                       000N        CARE OF             
MTR02050700001000000000000000RA              33078710    005800550000005500000520000003NN  NNW 000   VACANT PROPERTY     N    
RDG02050700WATRL000000004K00000000000002522001912172014094609N000000000000N23       000050400K 10000000010000002522           
CUS0205070000102259817001         UP5 BUSINESS TRUST  2005 W LANVALE ST                       000N        CARE OF             
MTR02050700001000000000000000RA              44002494    005800560000005600000520000003NN  NNW 000   VACANT PROPERTY     N    
RDG02050700WATRL000000004K00000000000002486002012172014094612N000000000000N23       000030400K 10000000010000002486           
CUS0205070000102259818009         ACOSTA PROPERTIES, L2003 W LANVALE ST                       000N        CARE OF             
MTR02050700001000000000000000RA              44003601    005800570000005700000520000003NN  NNW 000   VACANT PROPERTY     N    
RDG02050700WATRL000000004K00000000000001019002112172014094615N000000000000N23       000030400K 10000000010000001019           
CUS0205070000102259819007         HOLCOMB, ADOLPHUS   2001 W LANVALE ST                       000N        CARE OF             
MTR02050700001000000000000000RA              01098130    007500580000005800000610000003NN  NNW 000                       N    
RDG02050700WATRL000000004K00000000000000270003712182014101909N000000000000U23       000310400K 10000000010000000260           
CUS0205070000102259820005         SARAH MANAGEMENT, LL718 N PAYSON ST                         000N        CARE OF             
MTR02050700001000000000000000RA              01110190    005800590000005900000610000003NN  NNW 000   VACANT PROPERTY     N    
RDG02050700WATRL000000004K00000000000000695002212172014094623N000000000000N23       000080400K 10000000010000000695           
CUS0205070000102259821003         CALAMITA, WILLIAM F 716 N PAYSON ST                         000N        CARE OF             
MTR02050700001000000000000000RA              40781694    005800600000006000000520000003NN  NNW 000                       N    
RDG02050700WATRL000000004K00000000000004698003812182014101937N000000000000U23       000280400K 10000000010000004698           
CUS0205070000102259822001         RUIZ, DESI K.       714 N PAYSON ST                         000N        CARE OF             
MTR02050700001000000000000000RA              40781690    005800610000006100000520000003NN  NNW 000                       N    
RDG02050700WATRL000000004K00000000000004411003912182014101952N000000000000U23       000150400K 10000000010000004302           
CUS0205070000102259823009         CANTY, MATTIE B.    712 N PAYSON ST                         000N        CARE OF             
MTR02050700001000000000000000RA              40781697    005800620000006200000520000003NN  NNW 000                       N    
RDG02050700WATRL000000004K00000000000002291004012182014102013N000400000010U23       000210400K 10000000010000002289           
CUS0205070000102259824007         CARTHENS, MAXINE    710 N PAYSON ST                         000N        CARE OF             
MTR02050700001000000000000000RA              01081301    005800630000006300000610000003NN  NNW 000                       N    
RDG02050700WATRL000000004K00000000000002725004112182014102033N000000000000U23       000200400K 10000000010000002691           
CUS0205070000102259825004         RAYNER TRUST        2000 RAYNER AVE                         000N        CARE OF             
MTR02050700001000000000000000RA              99999999    005800640000006400000620000003NN  NNW 000                       N    
RDG02050700WATRL000000004K00000000000000000002312172014094631S002000000000N23       000080400K 10000000010000002564           
CUS0205070000102259828008         GRAVES, GEORGE      2006 RAYNER AVE                         000N        CARE OF             
MTR02050700001000000000000000RA              52289267    005800650000006500000520000003NN  NNW 000                       N    
RDG02050700WATRL000000004K00000000000001042000101052015084333N000000000000U23       000000400K 10000000010000001035           
CUS0205070000102259829006         ROBERT H PEARSON ETA2008 RAYNER AVE                         000N        CARE OF             
MTR02050700001000000000000000RA              01087751    005800660000006600000610000003NN  NNW 000                       N    
RDG02050700WATRL000000004K00000000000000350000201052015084357N000000000000U23       000240400K 10000000010000000349           
CUS0205070000102259830004         EDMOND, LARRY       2010 RAYNER AVE                         000N        CARE OF             
MTR02050700001000000000000000RA              01087753    005800670000006700000610000003NN  NNW 000                       N    
RDG02050700WATRL000000004K00000000000000665000301052015084429N000000000000U23       000320400K 10000000010000000633           
CUS0205070000102259831002         LABALA, WALA-ZOKESEH2012 RAYNER AVE                         000N        CARE OF             
MTR02050700001000000000000000RA              01087759    005800680000006800000610000003NN  NNW 000                       N    
RDG02050700WATRL000000004K00000000000000508000401052015084447N000000000000U23       000180400K 10000000010000000508           
CUS0205070000102259832000         MCCRAE, TYRONE      2014 RAYNER AVE                         000N        CARE OF             
MTR02050700001000000000000000RA              01094003    005800690000006900000610000003NN  NNW 000                       N    
RDG02050700WATRL000000004K00000000000000036000501052015084454N000000000000U23       000070400K 10000000010000000036           
CUS0205070000102259833008         RUFUS BROWN & WF    2016 RAYNER AVE                         000N        CARE OF             
MTR02050700001000000000000000RA              40781317    005800700000007000000520000003NN  NNW 000                       N    
RDG02050700WATRL000000004K00000000000001965000601052015084525N000000000000U23       000310400K 10000000010000001965           
CUS0205070000102259834006         2018 RAYNER AVENUE H2018 RAYNER AVE                         000N        CARE OF             
MTR02050700001000000000000000RA              01087740    005800710000007100000610000003NN  NNW 000                       N    
RDG02050700WATRL000000004K00000000000001205000701052015084631N000000000000U23       000660400K 10000000010000001188           
CUS0205070000102259835003         COMPOUND YIELD PLAY,2020 RAYNER AVE                         000N        CARE OF             
MTR02050700001000000000000000RA              01087754    005800720000007200000610000003NN  NNW 000   VACANT PROPERTY     N    
RDG02050700WATRL000000004K00000000000000000002412172014094642N000000000000N23       000110400K 10000000010000000000           
CUS0205070000102224554002         RAYNER AVENUE TRUST,2031 RAYNER AVE                         000N        CARE OF             
MTR02050700001000000000000000RA              78020942    005800730000007300000350000003NN  NNW 000                       N    
RDG02050700WATRL000000004K00000000000000000003601052015092654N000000000000U23       002790400K 10000000010000000000           
CUS0205070000102224555009         WILLIAMSON, LUVEUSHA2029 RAYNER AVE                         000N        CARE OF             
MTR02050700001000000000000000RA              52288716    005800740000007400000520000003NN  NNW 000                       N    
RDG02050700WATRL000000004K00000000000001123003701052015092701N000000000000U23       000070400K 10000000010000001123           
CUS0205070000102224556007         REED, DEMAREST      2027 RAYNER AVE                         000N        CARE OF             
MTR02050700001000000000000000RA              14923638    005800750000007500000310000003NN  NNW 000   VACANT PROPERTY     N    
RDG02050700WATRL000000004K00000000000000376002512172014094648N000000000000N23       000060400K 10000000010000000376           
CUS0205070000102224559001         BROOKS III, VINCENT 2021 RAYNER AVE                         000N        CARE OF             
MTR02050700001000000000000000RA              01110088    007500760000007600000610000003NN  NNW 000                       N    
RDG02050700WATRL000000004K00000000000000329000801052015084717N000000000000U23       000460400K 10000000010000000319           
CUS0205070000102224560009         WIGGINS THOMAS J    2019 RAYNER AVE                         000N        CARE OF             
MTR02050700001000000000000000RA              01094805    005800770000007700000610000003NN  NNW 000                       N    
RDG02050700WATRL000000004K00000000000000342000901052015084743N000000000000U23       000260400K 10000000010000000336           
CUS0205070000102224561007         COOPER, MILDRED LUCI2017 RAYNER AVE                         000N        CARE OF             
MTR02050700001000000000000000RA              01087748    005800780000007800000610000003NN  NNW 000                       N    
RDG02050700WATRL000000004K00000000000000322001001052015084804N000000000000U23       000210400K 10000000010000000319           
CUS0205070000102224562005         BOA INVESTMENTS LLC 2015 RAYNER AVE                         000N        CARE OF             
MTR02050700001000000000000000RA              24773849    005800790000007900000520000003NN  NNW 000                       N    
RDG02050700WATRL000000004K00000000000004734001101052015084820N000000000000U23       000160400K 10000000010000004695           
CUS0205070000102224563003         IANTHA N LEACH ETAL 2013 RAYNER AVE                         000N        CARE OF             
MTR02050700001000000000000000RA              01087750    005800800000008000000610000003NY  NNW 000                       N    
MTM0205070001087750    mtr upside down                                                                                        
RDG02050700WATRL000000004K00000000000000000000000000000000000 000000000000U         000000400  10000000010000000952           
CUS0205070000102224564001         WEBB, ROBERT        2011 RAYNER AVE                         000N        CARE OF             
MTR02050700001000000000000000RA              25780528    005800810000008100000520000003NN  NNW 000   VACANT PROPERTY     N    
RDG02050700WATRL000000004K00000000000002295002612172014094702N000000000000N23       000140400K 10000000010000002295           
CUS0205070000102224565008         NKANTA, IME         2009 RAYNER AVE                         000N        CARE OF             
MTR02050700001000000000000000RA              39923240    005800820000008200000520000003NN  NNW 000   VACANT PROPERTY     N    
RDG02050700WATRL000000004K00000000000001945002712172014094705N000000000000N23       000030400K 10000000010000001945           
CUS0205070000102224567004         REED, DEMAREST      2005 RAYNER AVE                         000N        CARE OF             
MTR02050700001000000000000000RA              01111867    005800830000008300000610000003NN  NNW 000   VACANT PROPERTY     N    
RDG02050700WATRL000000004K00000000000000676002812172014094709N000000000000N23       000040400K 10000000010000000676           
CUS0205070000102224568002         PRECISION CONTRACTIN2003 RAYNER AVE                         000N        CARE OF             
MTR02050700001000000000000000RA              14916424    005800840000008400000310000003NN  NNW 000                       N    
RDG02050700WATRL000000004K00000000000000556001201052015084902N000000000000U23       000420400K 10000000010000000552           
CUS0205070000102224570008         PRECISION CONTRACTIO708 N PAYSON ST                         000N        CARE OF             
MTR02050700001000000000000000RA              10002206    005800850000008500000570000003NN  NNW 000                       N    
RDG02050700WATRL000000004K00000000000000876001301052015085924N000000000000U23       006220400K 10000000010000000852           
CUS0205070000102224571006         LOMAX, BEATRICE H.  706 N PAYSON ST                         000N        CARE OF             
MTR02050700001000000000000000RA              40781363    005800860000008600000520000003NN  NNW 000                       N    
RDG02050700WATRL000000004K00000000000000514001401052015085934N000000000000U23       000100400K 10000000010000000511           
CUS0205070000102224572004         CHARLES J FARMER JR 704 N PAYSON ST                         000N        CARE OF             
MTR02050700001000000000000000RA              40780825    005800870000008700000520000003NN  NNW 000                       N    
RDG02050700WATRL000000004K00000000000000770001501052015085955N000000000000U23       000210400K 10000000010000000767           
CUS0205070000102224573002         DIANNE A. HODNETT   702 N PAYSON ST                         000N        CARE OF             
MTR02050700001000000000000000RA              40781695    005800880000008800000520000003NN  NNW 000                       N    
RDG02050700WATRL000000004K00000000000001955001601052015090026N000000000000U23       000310400K 10000000010000001930           
CUS0205070000102224575007         FERGUSON, STANFORD  2000 HARLEM AVE                         000N        CARE OF             
MTR02050700001000000000000000RA              00117968    007500890000008900000570000003NN  NNW 000                       N    
RDG02050700WATRL000000004K00000000000002307001701052015090923N000000000000U23       005370400K 10000000010000002307           
CUS0205070000102224576005         MONTEGO BAY PROPERTI2002 HARLEM AVE                         000N        CARE OF             
MTR02050700001000000000000000RA              46889301    007500900000009000000520000003NN  NNW 000                       N    
RDG02050700WATRL000000004K00000000000000438001801052015090933N000000000000U23       000100400K 10000000010000000438           
CUS0205070000102224578001         MARTIN, NICHOL      2006 HARLEM AVE                         000N        CARE OF             
MTR02050700001000000000000000RA              40047239    005800910000009100000520000003NN  NNW 000                       N    
RDG02050700WATRL000000004K00000000000003166001901052015090953N000000000000U23       000200400K 10000000010000003157           
CUS0205070000102224579009         JOHNS, NANCY        2008 HARLEM AVE                         000N        CARE OF             
MTR02050700001000000000000000RA              30526927    005800920000009200000520000003NN  NNW 000                       N    
RDG02050700WATRL000000004K00000000000002895002101052015091234N000000000002U23       000290400K 10000000010000002874           
CUS0205070000102224580007         METROPOLIS PROPERTIE2010 HARLEM AVE                         000N        CARE OF             
MTR02050700001000000000000000RA              46883516    005800930000009300000520000003NN  NNW 000                       N    
RDG02050700WATRL000000004K00000000000001894002001052015091205N000300000010U23       001320400K 10000000010000001864           
CUS0205070000102224581005         GAIL D COBB         2012 HARLEM AVE                         000N        CARE OF             
MTR02050700001000000000000000RA              44002949    005800940000009400000520000003NN  NNW 000   VACANT PROPERTY     N    
RDG02050700WATRL000000004K00000000000001077002912172014094735N000000000000N23       000260400K 10000000010000001077           
CUS0205070000102224583001         JAMES E DAVENPORT   2016 HARLEM AVE                         000N        CARE OF             
MTR02050700001000000000000000RA              27833210    005800950000009500000520000003NN  NNW 000                       N    
RDG02050700WATRL000000004K00000000000004035002201052015091402N000000000010U23       000880400K 10000000010000004020           
CUS0205070000102224585006         FULLER, SILAS       2020 HARLEM AVE                         000N        CARE OF             
MTR02050700001000000000000000RA              32178621    005800960000009600000520000003NN  NNW 000                       N    
RDG02050700WATRL000000004K00000000000002513002301052015091422N000000000000U23       000200400K 10000000010000002496           
CUS0205070000102224586004         CURLIN LEE ADAMS    2022 HARLEM AVE                         000N        CARE OF             
MTR02050700001000000000000000RA              32178618    005800970000009700000520000003NN  NNW 000                       N    
RDG02050700WATRL000000004K00000000000002188002401052015091425N000000000000U23       000030400K 10000000010000002178           
CUS0205070000102224587002         WARFIELD-HUTCHINSON,2024 HARLEM AVE                         000N        CARE OF             
MTR02050700001000000000000000RA              54351460    005800980000009800000520000003NN  NNW 000                       N    
RDG02050700WATRL000000004K00000000000000564002501052015091456N000000000000U23       000310400K 10000000010000000549           
CUS0205070000102224588000         DAVILLE, JUAN TONY  2026 HARLEM AVE                         000N        CARE OF             
MTR02050700001000000000000000RA              27132476    005800990000009900000520000003NN  NNW 000                       N    
RDG02050700WATRL000000004K00000000000001611002601052015091519N000000000000U23       000230400K 10000000010000001594           
CUS0205070000102224589008         HENRY GREENWAY      2028 HARLEM AVE                         000N        CARE OF             
MTR02050700001000000000000000RA              01088466    005801000000010000000610000003NN  NNW 000                       N    
RDG02050700WATRL000000004K00000000000001727002701052015091545N000000000000U23       000260400K 10000000010000001707           
CUS0205070000102224590006         FORMAN, BENNIE      2030 HARLEM AVE                         000N        CARE OF             
MTR02050700001000000000000000RA              01112999    005801010000010100000610000003NN  NNW 000                       N    
RDG02050700WATRL000000004K00000000000001138002801052015091604N000000000000U23       000190400K 10000000010000001094           
CUS0205070000102224591004         UP5 BUSINESS TRUST  2032 HARLEM AVE                         000N        CARE OF             
MTR02050700001000000000000000RA              30527059    005801020000010200000520000003NN  NNW 000   VACANT PROPERTY     N    
RDG02050700WATRL000000004K00000000000002412003012172014094749N000000000000N23       000140400K 10000000010000002412           
CUS0205070000102224593000         HOLLIS, TROY L      2036 HARLEM AVE                         000N        CARE OF             
MTR02050700001000000000000000RA              36689100    005801030000010300000520000003NN  NNW 000                       N    
RDG02050700WATRL000000004K00000000000001508002901052015091629N000000000000U23       000250400K 10000000010000001508           
CUS0205070000102224594008         GEORGE A WILLIAMS   2038 HARLEM AVE                         000N        CARE OF             
MTR02050700001000000000000000RA              31584160    005801040000010400000520000003NN  NNW 000                       N    
RDG02050700WATRL000000004K00000000000001564003001052015091656N000000000000U23       000270400K 10000000010000001560           
CUS0205070000102224595005         FOREMAN, BENNIE J   2040 HARLEM AVE                         000N        CARE OF             
MTR02050700001000000000000000RA              46885162    005801050000010500000520000003NN  NNW 000                       N    
RDG02050700WATRL000000004K00000000000001080003101052015091720N000000000000U23       000240400K 10000000010000001071           
CUS0205070000102224596003         JAMES E CANN        2042 HARLEM AVE                         000N        CARE OF             
MTR02050700001000000000000000RA              99187615    005801060000010600000570000003NN  NNW 000                       N    
RDG02050700WATRL000000004K00000000000000161003201052015091736N000000000000U23       000160400K 10000000010000000161           
CUS0205070000102224597001         DUVAL JR, ROBERT B  2044 HARLEM AVE                         000N        CARE OF             
MTR02050700001000000000000000RA              48583992    005801070000010700000520000003NN  NNW 000                       N    
RDG02050700WATRL000000004K00000000000001557003301052015091845N000000000010U23       000690400K 10000000010000001527           
CUS0205070000102224598009         BUTLER, DANIEL      2046 HARLEM AVE                         000N        CARE OF             
MTR02050700001000000000000000RA              45383737    005801080000010800000520000003NN  NNW 000   VACANT PROPERTY     N    
RDG02050700WATRL000000004K00000000000002632003112172014094801N000000000000N23       000120400K 10000000010000002632           
CUS0205070000102224601001         KASARA CORPORATION  2041 HARLEM AVE                         000N        CARE OF             
MTR02050700001000000000000000RA              10018671    005801090000010900000570000003NN  NNW 000                       N    
RDG02050700WATRL000000004K00000000000000142003401052015091907N000100000010U23       000220400K 10000000010000000142           
CUS0205070000102224602009         HAR DVELOPMENT AND M2039 HARLEM AVE                         000N        CARE OF             
MTR02050700001000000000000000RA              99999999    005801100000011000000620000003NN  NNW 000   VACANT PROPERTY     N    
RDG02050700WATRL000000004K00000000000000000003212172014094815S002000000000N23       000140400K 10000000010000001149           
CUS0205070000102224603007         COPELAND, MARY      2037 HARLEM AVE                         000N        CARE OF             
MTR02050700001000000000000000RA              99999999    005801110000011100000620000003NN  NNW 000                       N    
RDG02050700WATRL000000004K00000000000000000003312172014094818S002000000000N23       000030400K 10000000010000002817           
CUS0205070000102224604005         BRIDGES, ANDREW     2035 HARLEM AVE                         000N        CARE OF             
MTR02050700001000000000000000RA              99999999    005801120000011200000620000003NN  NNW 000                       N    
RDG02050700WATRL000000004K00000000000000000003412172014094822S002000000000N23       000040400K 10000000010000000011           
CUS0205070000102224605002         HUMPHRIES, WILLIAM  2033 HARLEM AVE                         000N        CARE OF             
MTR02050700001000000000000000RA              14913745    005801130000011300000310000003NN  NNW 000   VACANT PROPERTY     N    
RDG02050700WATRL000000004K00000000000000000003512172014094824N000000000000N23       000020400K 10000000010000000000           
CUS0205070000102224607008         FRANKLIN INVESTMENT 2029 HARLEM AVE                         000N        CARE OF             
MTR02050700001000000000000000RA              99999999    005801140000011400000620000003NN  NNW 000                       N    
RDG02050700WATRL000000004K00000000000000000003612172014094828S002000000000N23       000040400K 10000000010000001645           
CUS0205070000102224608006         MAYOR AND CITY COUNC2027 HARLEM AVE                         000N        CARE OF             
MTR02050700001000000000000000RA              99999999    005801150000011500000620000003NN  NNW 000                       N    
RDG02050700WATRL000000004K00000000000000000003712172014094831S002000000000N23       000030400K 10000000010000000303           
CUS0205070000102224609004         PERRIN, RUFUS       2025 HARLEM AVE                         000N        CARE OF             
MTR02050700001000000000000000RA              99999999    005801160000011600000620000003NN  NNW 000                       N    
RDG02050700WATRL000000004K00000000000000000003812172014094834S002000000000N23       000030400K 10000000010000002204           
CUS0205070000102224610002         MARPENN, LLC        2023 HARLEM AVE                         000N        CARE OF             
MTR02050700001000000000000000RA              99999999    005801170000011700000620000003NN  NNW 000                       N    
RDG02050700WATRL000000004K00000000000000000003912172014094837S002000000000N23       000030400K 10000000010000001637           
CUS0205070000102224611000         NOVOGRAD, JACK   (TR2021 HARLEM AVE                         000N        CARE OF             
MTR02050700001000000000000000RA              99999999    005801180000011800000620000003NN  NNW 000   VACANT PROPERTY     N    
RDG02050700WATRL000000004K00000000000000000004012172014094841S002000000000N23       000040400K 10000000010000002340           
CUS0205070000102224612008         HARLEM STERN PROPERT2019 HARLEM AVE                         000N        CARE OF             
MTR02050700001000000000000000RA              30515216    005801190000011900000520000003NN  NNW 000                       N    
RDG02050700WATRL000000004K00000000000003962003501052015092215N000000000000U23       001880400K 10000000010000003962           
CUS0205070000102224616009         D & M BARNES LLC    2011 HARLEM AVE                         000N        CARE OF             
MTR02050700001000000000000000RA              01104069    005801200000012000000610000003NN  NNW 000                       N    
RDG02050700WATRL000000004K00000000000000757004001052015093647N000000000000U23       001190400K 10000000010000000750           
CUS0205070000102224617007         2009 HARLEM AVE LLC 2009 HARLEM AVE                         000N        CARE OF             
MTR02050700001000000000000000RA              14925042    005801210000012100000310000003NY  NNW 000                       N    
MTM0205070014925042    clean out                                                                                              
RDG02050700WATRL000000004K00000000000000000000000000000000000 000000000000U         000000400  10000000010000000242           
CUS0205070000102224618005         PHISON TRUST        2007 HARLEM AVE                         000N        CARE OF             
MTR02050700001000000000000000RA              10007250    005801220000012200000570000003NN  NNW 000   VACANT PROPERTY     N    
RDG02050700WATRL000000004K00000000000000134004112172014094848N000000000000N23       000070400K 10000000010000000134           
CUS0205070000102224619003         ILN DEVELOPMENT CORP2005 HARLEM AVE                         000N        CARE OF             
MTR02050700001000000000000000RA              99999999    005801230000012300000620000003NN  NNW 000                       N    
RDG02050700WATRL000000004K00000000000000000004212172014094851S002000000000N23       000030400K 10000000010000000000           
CUS0205070000102224620001         HARLEM AVENUE ASSOCI2003 HARLEM AVE                         000N        CARE OF             
MTR02050700001000000000000000RA              46875573    005801240000012400000520000003NN  NNW 000                       N    
RDG02050700WATRL000000004K00000000000000313003901052015093448N000000000000U23       000270400K 10000000010000000303           
CUS0205070000102224621009         PARSLEY, CRYSTAL K. 2001 HARLEM AVE                         000N        CARE OF             
MTR02050700001000000000000000RA              10013333    005801250000012500000570000003NN  NNW 000                       N    
RDG02050700WATRL000000004K00000000000000178003801052015093421N000000000000U23       004400400K 10000000010000000167           
CUS0205070000102224622007         SCARBOROUGH, DELVEET632 N PAYSON ST                         000N        CARE OF             
MTR02050700001000000000000000RA              14926494    005801260000012600000310000003NN  NNW 000   VACANT PROPERTY     N    
RDG02050700WATRL000000004K00000000000000000004312172014094858N000000000000N23       000070400K 10000000010000000000           
CUS0205070000102224623005         LOGAN, MICHAEL      630 N PAYSON ST                         000N        CARE OF             
MTR02050700001000000000000000RA              41086293    005801270000012700000520000003NN  NNW 000                       N    
RDG02050700WATRL000000004K00000000000001872004101052015093749N000000000000U23       000620400K 10000000010000001856           
CUS0205070000102224624003         HILL, JAMECA        628 N PAYSON ST                         000N        CARE OF             
MTR02050700001000000000000000RA              44003597    005801280000012800000520000003NN  NNW 000                       N    
RDG02050700WATRL000000004K00000000000002036004201052015093820N000000000000U23       000310400K 10000000010000002020           
CUS0205070000102224625000         PAYSON FULTON INVEST626 N PAYSON ST                         000N        CARE OF             
MTR02050700001000000000000000RA              44002281    005801290000012900000520000003NN  NNW 000   VACANT PROPERTY     N    
RDG02050700WATRL000000004K00000000000002715004412172014094915N000000000000N23       000170400K 10000000010000002715           
CUS0205070000102224626008         NEIGHBORHOOD PROPERT624 N PAYSON ST                         000N        CARE OF             
MTR02050700001000000000000000RA              52287259    005801300000013000000520000003NN  NNW 000   VACANT PROPERTY     N    
RDG02050700WATRL000000004K00000000000000340004512172014094918N000000000000N23       000030400K 10000000010000000340           
CUS0205070000102224627006         JOHNSON, DARREN     622 N PAYSON ST                         000N        CARE OF             
MTR02050700001000000000000000RA              99999999    005801310000013100000620000003NN  NNW 000                       N    
RDG02050700WATRL000000004K00000000000000000004612172014094921S002000000000N23       000030400K 10000000010000000708           
CUS0205070000102224628004         BA EL REAL ESTATE, L620 N PAYSON ST                         000N        CARE OF             
MTR02050700001000000000000000RA              99999999    005801320000013200000620000003NN  NNW 000   VACANT PROPERTY     N    
RDG02050700WATRL000000004K00000000000000000004712172014094924S002000000000N23       000030400K 10000000010000001287           
CUS0205070000102224630000         TRADE PLUS, LLC     616 N PAYSON ST                         000N        CARE OF             
MTR02050700001000000000000000RA              44002182    005801330000013300000520000003NN  NNW 000                       N    
RDG02050700WATRL000000004K00000000000002384004301052015093914N000400000010U23       000540400K 10000000010000002374           
CUS0205070000102224631008         HARRELL JR, KENNETH 614 N PAYSON ST                         000N        CARE OF             
MTR02050700001000000000000000RA              14906552    005801340000013400000310000003NN  NNW 000                       N    
RDG02050700WATRL000000004K00000000000000657004401052015093928N000000000010U23       000140400K 10000000010000000656           
CUS0205070000102224632006         WILSON, WALTER      612 N PAYSON ST                         000N        CARE OF             
MTR02050700001000000000000000RA              41086288    005801350000013500000520000003NN  NNW 000                       N    
RDG02050700WATRL000000004K00000000000001512004501052015093951N000000000000U23       000230400K 10000000010000001491           
CUS0205070000102224633004         JEFFERSON JAMES     610 N PAYSON ST                         000N        CARE OF             
MTR02050700001000000000000000RA              41086819    005801360000013600000520000003NN  NNW 000                       N    
RDG02050700WATRL000000004K00000000000001141004601052015094023N000000000000U23       000320400K 10000000010000001137           
CUS0205070000102224634002         EMERALD BAY DEVELOPM608 N PAYSON ST                         000N        CARE OF             
MTR02050700001000000000000000RA              99999999    005801370000013700000620000003NN  NNW 000                       N    
RDG02050700WATRL000000004K00000000000000000004812172014094932S002000000000N23       000080400K 10000000010000000823           
CUS0205070000102224635009         OWENS, ROBERT       606 N PAYSON ST                         000N        CARE OF             
MTR02050700001000000000000000RA              10007253    005801380000013800000570000003NN  NNW 000                       N    
RDG02050700WATRL000000004K00000000000000486004701052015094101N000000000000U23       000380400K 10000000010000000442           
CUS0205070000102224636007         D & M BARNES, LLC   604 N PAYSON ST                         000N        CARE OF             
MTR02050700001000000000000000RA              35102097    005801390000013900000520000003NN  NNW 000                       N    
RDG02050700WATRL000000004K00000000000002535004801052015094126N000100000010U23       000250400K 10000000010000002535           
CUS0205070000102224637005         ANDERSON, KAREN     602 N PAYSON ST                         000N        CARE OF             
MTR02050700001000000000000000RA              41086825    005801400000014000000520000003NN  NNW 000   VACANT PROPERTY     N    
RDG02050700WATRL000000004K00000000000000664004912172014094939N000000000000N23       000070400K 10000000010000000664           
CUS0205070000102224638003         LIENLOGIC REO F1, LL600 N PAYSON ST                         000N        CARE OF             
MTR02050700001000000000000000RA              10005911    005801410000014100000570000003NN  NNW 000                       N    
RDG02050700WATRL000000004K00000000000000653004901052015094159N000400000010U23       000330400K 10000000010000000650           
CUS0205070000102224639001         HAN, TAE J          2000-02 EDMONDSON AVE                   000N        CARE OF             
MTR02050700001000000000000000RA              28988022    007501420000014200000520000003NN  NNW 000                       N    
RDG02050700WATRL000000004K00000000000004862005001052015094930N000000000000U23       004510400K 10000000010000004859           
CUS0205070000102224642005         JONES, BAXTER       2012 EDMONDSON AVE                      000N        CARE OF             
MTR02050700001000000000000000RA              99999999    007501430000014300000620000003NN  NNW 000   VACANT PROPERTY     N    
RDG02050700WATRL000000004K00000000000000000005012172014094958S002000000000N23       000190400K 10000000010000000000           
CUS0205070000102224643003         PINKETT, BRENDA     2014-16 EDMONDSON AVE                   000N        CARE OF             
MTR02050700001000000000000000RA              52288272    005801440000014400000520000003NN  NNW 000   VACANT PROPERTY     N    
RDG02050700WATRL000000004K00000000000000703005112172014095003N000000000000N23       000050400K 10000000010000000703           
CUS0205070000102224644001         HENSON, MELVIN      2018 EDMONDSON AVE                      000N        CARE OF             
MTR02050700001000000000000000RA              33736531    007501450000014500000520000003NN  NNW 000                       N    
RDG02050700WATRL000000004K00000000000002678005101052015095142N000000000011U23       000610400K 10000000010000002676           
CUS0205070000102224645008         LEFALL, WAYMON      2020 EDMONDSON AVE                      000N        CARE OF             
MTR02050700001000000000000000RA              01093408    005801460000014600000610000003NN  NNW 000                       N    
RDG02050700WATRL000000004K00000000000001279005201052015095217N000000000000U23       000350400K 10000000010000001267           
CUS0205070000102224646006         MAYOR AND CITY COUNC601 N BRICE ST                          000N        CARE OF             
MTR02050700001000000000000000RA              99999999    005801470000014700000620000003NN  NNW 000                       N    
RDG02050700WATRL000000004K00000000000000000005212172014095010S002000000000N23       000070400K 10000000010000005333           
CUS0205070000102224647004         ABDULLA, GEORGE     603 N BRICE ST                          000N        CARE OF             
MTR02050700001000000000000000RA              99999999    005801480000014800000620000003NN  NNW 000   VACANT PROPERTY     N    
RDG02050700WATRL000000004K00000000000000000005312172014095013S002000000000N23       000030400K 10000000010000001685           
CUS0205070000102224648002         PARKER SR., DONALD A605 N BRICE ST                          000N        CARE OF             
MTR02050700001000000000000000RA              46876507    005801490000014900000520000003NN  NNW 000                       N    
RDG02050700WATRL000000004K00000000000000440005301052015095306N000000000010U23       000490400K 10000000010000000421           
CUS0205070000102224649000         MAYOR AND CITY COUNC607 N BRICE ST                          000N        CARE OF             
MTR02050700001000000000000000RA              50789743    005801500000015000000520000003NN  NNW 000                       N    
RDG02050700WATRL000000004K00000000000001687005401052015095314N000000000000U23       000080400K 10000000010000001687           
CUS0205070000102224650008         JAMES E CANN        609 N BRICE ST                          000N        CARE OF             
MTR02050700001000000000000000RA              99999999    005801510000015100000620000003NN  NNW 000                       N    
RDG02050700WATRL000000004K00000000000000000005412172014095018S002000000000N23       000050400K 10000000010000004300           
CUS0205070000102224651006         MAYOR AND CITY COUNC611 N BRICE ST                          000N        CARE OF             
MTR02050700001000000000000000RA              99999999    005801520000015200000620000003NN  NNW 000                       N    
RDG02050700WATRL000000004K00000000000000000005512172014095021S002000000000N23       000030400K 10000000010000002661           
CUS0205070000102224652004         ROWHOUSES, INC.     613 N BRICE ST                          000N        CARE OF             
MTR02050700001000000000000000RA              99999999    005801530000015300000620000003NN  NNW 000                       N    
RDG02050700WATRL000000004K00000000000000000005612172014095024S002000000000N23       000030400K 10000000010000000968           
CUS0205070000102224653002         GZS, INC.           615 N BRICE ST                          000N        CARE OF             
MTR02050700001000000000000000RA              99999999    005801540000015400000620000003NN  NNW 000                       N    
RDG02050700WATRL000000004K00000000000000000005712172014095027S002000000000N23       000030400K 10000000010000000504           
CUS0205070000102224654000         AFRICA, DAVID L     617 N BRICE ST                          000N        CARE OF             
MTR02050700001000000000000000RA              99999999    005801550000015500000520000003NN  NNW 000   VACANT PROPERTY     N    
RDG02050700WATRL000000004K00000000000001035005812172014095030N000000000000N23       000030400K 10000000010000001035           
CUS0205070000102224655007         BD LEASING CORPORATI619 N BRICE ST                          000N        CARE OF             
MTR02050700001000000000000000RA              99999999    005801560000015600000620000003NN  NNW 000                       N    
RDG02050700WATRL000000004K00000000000000000005912172014095034S002000000000N23       000040400K 10000000010000000230           
CUS0205070000102224656005         VIVIAN L WEAVER     621 N BRICE ST                          000N        CARE OF             
MTR02050700001000000000000000RA              19459524    005801570000015700000520000003NN  NNW 000   VACANT PROPERTY     N    
RDG02050700WATRL000000004K00000000000003296006012172014095038N000000000000N23       000040400K 10000000010000003296           
CUS0205070000102224657003         JONES, NELLO R      623 N BRICE ST                          000N        CARE OF             
MTR02050700001000000000000000RA              99999999    005801580000015800000620000003NN  NNW 000                       N    
RDG02050700WATRL000000004K00000000000000000006112172014095041S002000000000N23       000030400K 10000000010000001547           
CUS0205070000102224658001         DONALD PARKER       625 N BRICE ST                          000N        CARE OF             
MTR02050700001000000000000000RA              01087758    005801590000015900000610000003NN  NNW 000                       N    
RDG02050700WATRL000000004K00000000000001110005501052015095403N000000000000U23       000490400K 10000000010000001110           
CUS0205070000102224659009         OSBOURNE, JOHN      627 N BRICE ST                          000N        CARE OF             
MTR02050700001000000000000000RA              01087756    005801600000016000000610000003NN  NNW 000                       N    
RDG02050700WATRL000000004K00000000000000621005601052015095420N000000000000U23       000170400K 10000000010000000621           
CUS0205070000102224660007         RUIZ, OMARI K       629 N BRICE ST                          000N        CARE OF             
MTR02050700001000000000000000RA              77889723    005801610000016100000350000003NN  NNW 000                       N    
RDG02050700WATRL000000004K00000000000000000005701052015095457N000000000000U23       000370400K 10000000010000000000           
CUS0205070000102224661005         MAYOR AND CITY COUNC631 N BRICE ST                          000N        CARE OF             
MTR02050700001000000000000000RA              99999999    005801620000016200000620000003NN  NNW 000                       N    
RDG02050700WATRL000000004K00000000000000000006212172014095104S002000000000N23       000230400K 10000000010000000104           
CUS0205070000102224662003         SHAWN L STEVENSON   632 N BRICE ST                          000N        CARE OF             
MTR02050700001000000000000000RA              99999999    005801630000016300000620000003NN  NNW 000   VACANT PROPERTY     N    
RDG02050700WATRL000000004K00000000000000000006312172014095107S002000000000N23       000030400K 10000000010000001436           
CUS0205070000102224663001         ARGON DEVELOPMENT CO630 N BRICE ST                          000N        CARE OF             
MTR02050700001000000000000000RA              99999999    005801640000016400000620000003NN  NNW 000                       N    
RDG02050700WATRL000000004K00000000000000000006412172014095110S002000000000N23       000030400K 10000000010000002454           
CUS0205070000102224664009         HOUCHENS, CLAYTON   628 N BRICE ST                          000N        CARE OF             
MTR02050700001000000000000000RA              38887152    005801650000016500000520000003NN  NNW 000   VACANT PROPERTY     N    
RDG02050700WATRL000000004K00000000000003927006512172014095114N000000000000N23       000040400K 10000000010000003927           
CUS0205070000102224665006         VICTOR HARPER & WF  626 N BRICE ST                          000N        CARE OF             
MTR02050700001000000000000000RA              99999999    005801660000016600000620000003NN  NNW 000   VACANT PROPERTY     N    
RDG02050700WATRL000000004K00000000000000000006612172014095117S002000000000N23       000030400K 10000000010000000460           
CUS0205070000102224667002         BLAKE, ROSE E       622 N BRICE ST                          000N        CARE OF             
MTR02050700001000000000000000RA              01087752    005801670000016700000610000003NN  NNW 000                       N    
RDG02050700WATRL000000004K00000000000001285005801052015095530N000400000010U23       000330400K 10000000010000001277           
CUS0205070000102224668000         SCHEPER, BURK       620 N BRICE ST                          000N        CARE OF             
MTR02050700001000000000000000RA              99999999    005801680000016800000620000003NN  NNW 000                       N    
RDG02050700WATRL000000004K00000000000000000006712172014095123S002000000000N23       000060400K 10000000010000006523           
CUS0205070000102224669008         MAYOR AND CITY COUNC618 N BRICE ST                          000N        CARE OF             
MTR02050700001000000000000000RA              99999999    005801690000016900000620000003NN  NNW 000                       N    
RDG02050700WATRL000000004K00000000000000000006812172014095126S002000000000N23       000030400K 10000000010000002541           
CUS0205070000102224670006         JACK NOVOGRAD AS TRU616 N BRICE ST                          000N        CARE OF             
MTR02050700001000000000000000RA              99999999    005801700000017000000620000003NN  NNW 000   VACANT PROPERTY     N    
RDG02050700WATRL000000004K00000000000000000006912172014095129S002000000000N23       000030400K 10000000010000001323           
CUS0205070000102224671004         DONALD A PARKER, SR 614 N BRICE ST                          000N        CARE OF             
MTR02050700001000000000000000RA              99999999    005801710000017100000620000003NN  NNW 000   VACANT PROPERTY     N    
RDG02050700WATRL000000004K00000000000000000007012172014095132S002000000000N23       000030400K 10000000010000000000           
CUS0205070000102224673000         MAYOR AND CITY COUNC610 N BRICE ST                          000N        CARE OF             
MTR02050700001000000000000000RA              99999999    005801720000017200000620000003NN  NNW 000                       N    
RDG02050700WATRL000000004K00000000000000000007112172014095135S002000000000N23       000030400K 10000000010000002388           
CUS0205070000102224674008         EDWARD REALTY CORP. 608 N BRICE ST                          000N        CARE OF             
MTR02050700001000000000000000RA              99999999    005801730000017300000620000003NN  NNW 000                       N    
RDG02050700WATRL000000004K00000000000000000007212172014095139S002000000000N23       000040400K 10000000010000000413           
CUS0205070000102224675005         MAYOR AND CITY COUNC606 N BRICE ST                          000N        CARE OF             
MTR02050700001000000000000000RA              99999999    005801740000017400000620000003NN  NNW 000                       N    
RDG02050700WATRL000000004K00000000000000000007312172014095145S002000000000N23       000060400K 10000000010000001990           
CUS0205070000102224676003         6/12, INC.          604 N BRICE ST                          000N        CARE OF             
MTR02050700001000000000000000RA              99999999    005801750000017500000620000003NN  NNW 000                       N    
RDG02050700WATRL000000004K00000000000000000007412172014095148S002000000000N23       000030400K 10000000010000000948           
CUS0205070000102224677001         WILSON, JUDY        602 N BRICE ST                          000N        CARE OF             
MTR02050700001000000000000000RA              48596048    005801760000017600000520000003NN  NNW 000   VACANT PROPERTY     N    
RDG02050700WATRL000000004K00000000000000276007512172014095152N000000000000N23       000040400K 10000000010000000276           
CUS0205070000102224678009         ARVAY M WALLACE     600 N BRICE ST                          000N        CARE OF             
MTR02050700001000000000000000RA              99999999    005801770000017700000620000003NN  NNW 000                       N    
RDG02050700WATRL000000004K00000000000000000007612172014095155S002000000000N23       000030400K 10000000010000002702           
CUS0205070000102224679007         HARRIS, ROBERT      2022 EDMONDSON AVE                      000N        CARE OF             
MTR02050700001000000000000000RA              30528802    007501780000017800000520000003NN  NNW 000                       N    
RDG02050700WATRL000000004K00000000000002552005901052015095640N000000000000U23       000700400K 10000000010000002552           
CUS0205070000102224680005         POINDEXTER, BARRY   2024-26 EDMONDSON AVE                   000N        CARE OF             
MTR02050700001000000000000000RA              44030490    007501790000017900000520000003NN  NNW 000                       N    
RDG02050700WATRL000000004K00000000000005554006001052015095720N000000000000U23       000400400K 10000000010000005553           
CUS0205070000102224683009         SHAHID ETAL, YUSEF  2032-34 EDMONDSON AVE                   000N        CARE OF             
MTR02050700001000000000000000RA              99999999    005801800000018000000620000003NN  NNW 000   VACANT PROPERTY     N    
RDG02050700WATRL000000004K00000000000000000007712172014095202S002000000000N23       000070400K 10000000010000000559           
CUS0205070000102224684007         NASAR HAIDER        2036 EDMONDSON AVE                      000N        CARE OF             
MTR02050700001000000000000000RA              99999999    007501810000018100000620000003NN  NNW 000   VACANT PROPERTY     N    
RDG02050700WATRL000000004K00000000000000000007812172014095212S002000000000N23       000100400K 10000000010000002039           
CUS0205070000102379846005         2409 BIDDLE STREET, 2038 EDMONDSON AVE                      000N        CARE OF             
MTR02050700001000000000000000RA              00118336    007501820000018200000570000003NN  NNW 000                       N    
RDG02050700WATRL000000004K00000000000000571006101052015095812N000000000000U23       000520400K 10000000010000000512           
CUS0205070000102224686002         CHARLES LEGGORE JR  2040 EDMONDSON AVE                      000N        CARE OF             
MTR02050700001000000000000000RA              40248967    007501830000018300000520000003NN  NNW 000                       N    
RDG02050700WATRL000000004K00000000000006315006201052015095852N000000000000U23       000400400K 10000000010000006269           
CUS0205070000102224687000         CHARLES LEGGORE JR  2042 EDMONDSON AVE                      000N        CARE OF             
MTR02050700001000000000000000RA              41588597    005801840000018400000520000003NN  NNW 000                       N    
RDG02050700WATRL000000004K00000000000002511006301052015100508N000303600021U23       003270400K 10000000010000002126           
CUS0205070000102224688008         HENLEY JR., ALBERT  601 N PULASKI ST                        000N        CARE OF             
MTR02050700001000000000000000RA              14918268    007501850000018500000310000003NN  NNW 000                       N    
RDG02050700WATRL000000004K00000000000000617006401052015100922N000000000000U23       002540400K 10000000010000000617           
CUS0205070000102224689006         ROBINSON, JR., WILLI603 N PULASKI ST                        000N        CARE OF             
MTR02050700001000000000000000RA              41074288    005801860000018600000520000003NN  NNW 000                       N    
RDG02050700WATRL000000004K00000000000001552006501052015100944N000100000010U23       000220400K 10000000010000001552           
CUS0205070000102224690004         HOLLIS, TROY L.     605 N PULASKI ST                        000N        CARE OF             
MTR02050700001000000000000000RA              40047782    005801870000018700000520000003NN  NNW 000                       N    
RDG02050700WATRL000000004K00000000000002390006601052015100959N000000000000U23       000150400K 10000000010000002369           
CUS0205070000102224691002         ANDREW NANCE        607 N PULASKI ST                        000N        CARE OF             
MTR02050700001000000000000000RA              01087820    005801880000018800000610000003NN  NNW 000                       N    
RDG02050700WATRL000000004K00000000000001269006701052015101010N000000000000U23       000110400K 10000000010000001257           
CUS0205070000102224692000         HUSSAIN, MEHWISH    609 N PULASKI ST                        000N        CARE OF             
MTR02050700001000000000000000RA              41258808    005801890000018900000520000003NN  NNW 000   VACANT PROPERTY     N    
RDG02050700WATRL000000004K00000000000002510007912172014095229N000000000000N23       000170400K 10000000010000002510           
CUS0205070000102224693008         LASSITER, MAURICE   611 N PULASKI ST                        000N        CARE OF             
MTR02050700001000000000000000RA              52770585    005801900000019000000520000003NN  NNW 000                       N    
RDG02050700WATRL000000004K00000000000002544006801052015101157N000000000001U23       000750400K 10000000010000002489           
CUS0205070000102224694006         BALTRENTALS DOT COM 613 N PULASKI ST                        000N        CARE OF             
MTR02050700001000000000000000RA              44175086    005801910000019100000520000003NN  NNW 000                       N    
RDG02050700WATRL000000004K00000000000001880006901052015101219N000000000011U23       000220400K 10000000010000001868           
CUS0205070000102224695003         THOMAS, KEITH EVERET615 N PULASKI ST                        000N        CARE OF             
MTR02050700001000000000000000RA              01086861    005801920000019200000610000003NN  NNW 000                       N    
RDG02050700WATRL000000004K00000000000000143007001052015101247N000400000010U23       000280400K 10000000010000000138           
CUS0205070000102224696001         CLEMENT, CHARMAINE  617 N PULASKI ST                        000N        CARE OF             
MTR02050700001000000000000000RA              50476227    005801930000019300000520000003NN  NNW 000                       N    
RDG02050700WATRL000000004K00000000000000777007101052015101309N000000000000U23       000220400K 10000000010000000777           
CUS0205070000102224697009         SHAMA LLC           619 N PULASKI ST                        000N        CARE OF             
MTR02050700001000000000000000RA              01087825    005801940000019400000610000003NN  NNW 000                       N    
RDG02050700WATRL000000004K00000000000000691007201052015101328N000000000000U23       000190400K 10000000010000000669           
CUS0205070000102224698007         LOGAN, TIMOHTY J.   621 N PULASKI ST                        000N        CARE OF             
MTR02050700001000000000000000RA              01087052    005801950000019500000610000003NN  NNW 000                       N    
RDG02050700WATRL000000004K00000000000000617007301052015101343N000000000000U23       000150400K 10000000010000000604           
CUS0205070000102224699005         SHAMA LLC           623 N PULASKI ST                        000N        CARE OF             
MTR02050700001000000000000000RA              01087310    005801960000019600000610000003NN  NNW 000                       N    
RDG02050700WATRL000000004K00000000000001161007401052015101402N000000000000U23       000190400K 10000000010000001145           
CUS0205070000102224700001         WARNER T WILLIAMS   625 N PULASKI ST                        000N        CARE OF             
MTR02050700001000000000000000RA              52768980    005801970000019700000520000003NN  NNW 000                       N    
RDG02050700WATRL000000004K00000000000000245007501052015101414N000000000000U23       000120400K 10000000010000000245           
CUS0205070000102224701009         SNUGGS, WILLIAM T   627 N PULASKI ST                        000N        CARE OF             
MTR02050700001000000000000000RA              01087312    005801980000019800000610000003NN  NNW 000                       N    
RDG02050700WATRL000000004K00000000000000889007601052015101432N000000000000U23       000180400K 10000000010000000869           
CUS0205070000102224702007         WILEAN WILSON       629 N PULASKI ST                        000N        CARE OF             
MTR02050700001000000000000000RA              44002566    005801990000019900000520000003NN  NNW 000                       N    
RDG02050700WATRL000000004K00000000000002854007701052015101453N000000000000U23       000210400K 10000000010000002837           
CUS0205070000102224705000         LOUIS MASON & WF    713 N PULASKI ST                        000N        CARE OF             
MTR02050700001000000000000000RA              01083505    005802000000020000000610000003NN  NNW 000                       N    
RDG02050700WATRL000000004K00000000000000063008801052015102220N000000000000U23       001430400K 10000000010000000063           
CUS0205070000102224706008         EH POOLED 113, LP   715 N PULASKI ST                        000N        CARE OF             
MTR02050700001000000000000000RA              26011263    005802010000020100000520000003NN  NNW 000                       N    
RDG02050700WATRL000000004K00000000000003922008901052015102243N000000000000U23       000230400K 10000000010000003918           
CUS0205070000102224707006         WINDER, TYRONE      717 N PULASKI ST                        000N        CARE OF             
MTR02050700001000000000000000RA              01087828    005802020000020200000610000003NN  NNW 000   VACANT PROPERTY     N    
RDG02050700WATRL000000004K00000000000000106008012172014095242N000000000000N23       000130400K 10000000010000000106           
CUS0205070000102224709002         SUPREME HIGHLIGHTS M2041 W LAFAYETTE AVE                    000N        CARE OF             
MTR02050700001000000000000000RA              30519359    005802030000020300000520000003NY  NNW 000                       N    
MTM0205070030519359    cloudy glass                                                                                           
RDG02050700WATRL000000004K00000000000001275009001052015102610N000300000010U23       002070400K 10000000010000001237           
CUS0205070000102224711008         OLDTIMEWAY CHURCH OF2100 W LANVALE ST                       000N        CARE OF             
MTR02050700001000000000000000RA              46886265    005802040000020400000520000003NN  NNW 000                       N    
RDG02050700WATRL000000004K00000000000000798009101052015102820N000000000000U23       001300400K 10000000010000000796           
CUS0205070000102224712006         DAVENPORT, KEVIN    740 N PULASKI ST                        000N        CARE OF             
MTR02050700001000000000000000RA              26011260    005802050000020500000520000003NN  NNW 000                       N    
RDG02050700WATRL000000004K00000000000000761009201052015102959N000000000000U23       000990400K 10000000010000000761           
CUS0205070000102224713004         FAITH CHRISTIAN WORS700-20 N PULASKI ST                     000N        CARE OF             
MTR02050700001000000000000000RA              41193214    007502060000020600000520000003NN  NNW 000                       N    
RDG02050700WATRL000000004K00000000000004307009301052015103120N000300000010U23       000810400K 10000000010000004285           
CUS0205070000102224714002         SHILOH APOSTOLIC    630 N PULASKI ST                        000N        CARE OF             
MTR02050700001000000000000000RA              44087458    005802070000020700000520000003NN  NNW 000                       N    
RDG02050700WATRL000000004K00000000000006669009401052015103224N000000000000U23       000640400K 10000000010000006666           
CUS0205070000102224716007         FIRST TRILLIONAIRE, 622 N PULASKI ST                        000N        CARE OF             
MTR02050700001000000000000000RA              14908159    005802080000020800000310000003NN  NNW 000                       N    
RDG02050700WATRL000000004K00000000000000644007801052015101642N000000000000U23       001090400K 10000000010000000629           
CUS0205070000102224717005         SHAMA LLC           620 N PULASKI ST                        000N        CARE OF             
MTR02050700001000000000000000RA              14908158    005802090000020900000310000003NN  NNW 000                       N    
RDG02050700WATRL000000004K00000000000000579007901052015101658N000000000000U23       000160400K 10000000010000000558           
CUS0205070000102224718003         YVETTE M JOHNSON    618 N PULASKI ST                        000N        CARE OF             
MTR02050700001000000000000000RA              40047379    005802100000021000000520000003NN  NNW 000                       N    
RDG02050700WATRL000000004K00000000000002374008001052015101723N000100000010U23       000250400K 10000000010000002374           
CUS0205070000102224719001         GOODMAN, DOUGLAS    616 N PULASKI ST                        000N        CARE OF             
MTR02050700001000000000000000RA              40047277    005802110000021100000520000003NN  NNW 000                       N    
RDG02050700WATRL000000004K00000000000001067008101052015101746N000000000000U23       000230400K 10000000010000001067           
CUS0205070000102224720009         BALL, DAVIE LEE     614 N PULASKI ST                        000N        CARE OF             
MTR02050700001000000000000000RA              40047235    005802120000021200000520000003NN  NNW 000                       N    
RDG02050700WATRL000000004K00000000000002956008201052015101807N000000000000U23       000210400K 10000000010000002938           
CUS0205070000102224721007         HENRY L MOORE & WF  612 N PULASKI ST                        000N        CARE OF             
MTR02050700001000000000000000RA              39290020    005802130000021300000520000003NN  NNW 000                       N    
RDG02050700WATRL000000004K00000000000002188008301052015101820N000000000000U23       000130400K 10000000010000002183           
CUS0205070000102224722005         THOMAS, ERICK       610 N PULASKI ST                        000N        CARE OF             
MTR02050700001000000000000000RA              46884933    005802140000021400000520000003NN  NNW 000                       N    
RDG02050700WATRL000000004K00000000000001381008401052015101845N000000000000U23       000250400K 10000000010000001363           
CUS0205070000102224724001         CEDRONE, NONA J.    606 N PULASKI ST                        000N        CARE OF             
MTR02050700001000000000000000RA              26010031    005802150000021500000520000003NN  NNW 000   VACANT PROPERTY     N    
RDG02050700WATRL000000004K00000000000002708008112172014095256N000000000000N23       000140400K 10000000010000002708           
CUS0205070000102224725008         FIRST TRILLIONAIRE, 604 N PULASKI ST                        000N        CARE OF             
MTR02050700001000000000000000RA              14910479    005802160000021600000310000003NN  NNW 000                       N    
RDG02050700WATRL000000004K00000000000000634008501052015101911N000000000000U23       000260400K 10000000010000000619           
CUS0205070000102224726006         SNUGGS, WILLIAM T.  602 N PULASKI ST                        000N        CARE OF             
MTR02050700001000000000000000RA              14907181    005802170000021700000310000003NN  NNW 000                       N    
RDG02050700WATRL000000004K00000000000000441008601052015101929N000000000000U23       000180400K 10000000010000000434           
CUS0205070000102224727004         SNUGGS, LAURA       600 N PULASKI ST                        000N        CARE OF             
MTR02050700001000000000000000RA              00119319    007502180000021800000570000003NN  NNW 000                       N    
RDG02050700WATRL000000004K00000000000000123008701052015101957N000300000010U23       000280400K 10000000010000000117           
CUS0205070000102224728002         SHILOH APOSTOLIC TEM2100 EDMONDSON AVE                      000N        CARE OF             
MTR02050700001000000000000000RA              35112515    001502190000021900000520000003NN  NNW 000                       N    
RDG02050700WATRL000000005K00000000000007280009501052015105600N000000000000U23       014160500K 10000000010000007271           
CUS0205070000102224729000         EDMONDSON COMMUNITY 2114-16 EDMONDSON AVE                   000N        CARE OF             
MTR02050700001000000000000000RA              00119245    007502200000022000000570000003NN  NNW 000                       N    
RDG02050700WATRL000000004K00000000000002861009601052015105605N000000000000U23       000050400K 10000000010000002831           
CUS0205070000102224730008         LAKEM, LLC          2124 EDMONDSON AVE                      000N        CARE OF             
MTR02050700001000000000000000RA              30528820    007502210000022100000520000003NN  NNW 000                       N    
RDG02050700WATRL000000004K00000000000000364009701052015105915N000000000000U23       001900400K 10000000010000000363           
CUS0205070000102224731006         GOLDMAR SALES CORP  2126 EDMONDSON AVE                      000N        CARE OF             
MTR02050700001000000000000000RA              41091004    000102220000022200000520000003NN  NNW 000                       N    
RDG02050700WATRL000000004K00000000000004165009801052015110124N000000000000U23       001290400K 10000000010000004120           
RTR02050700NN02220222000002220000000002220222000163NY022202220222000200450000000000000000000001    12152014NY020000 N         
RHD02051400NN00650065000000650000000000650065000062NY006500650065000100000000000000000000000001    12152014NY020000 N         
CUS0205140000102225403001         ELLA L.H. BOND      1818 BRADDISH AVE                       000N        CARE OF             
MTR02051400001000000000000000RA              25762787    007500010000000100000520000003NY  NNW 000                       N    
MTM0205140025762787    FOGGY                                                                                                  
RDG02051400WATRL000000004K00000000000002717000101022015105031N000100000010U26       000000400K 10000000010000002717           
CUS0205140000102225404009         MAYO, CHRISITINA    1816 BRADDISH AVE                       000N        CARE OF             
MTR02051400001000000000000000RA              75617806    005800020000000200000350000003NN  NNW 000                       N    
RDG02051400WATRL000000004K00000000000000262000201022015105036N000000000000U26       000050400K 10000000010000000221           
CUS0205140000102225405006         HABC                1814 BRADDISH AVE                       000N        CARE OF             
MTR02051400001000000000000000RA              26010754    005800030000000300000520000003NN  NNW 000                       N    
RDG02051400WATRL000000004K00000000000004897000301022015105049N000000000000U26       000130400K 10000000010000004897           
CUS0205140000102225406004         STEPHEN, WILLIE L   1812 BRADDISH AVE                       000N        CARE OF             
MTR02051400001000000000000000RA              44003646    005800040000000400000520000003NN  NNW 000                       N    
RDG02051400WATRL000000004K00000000000002551000401022015105054N000000000000U26       000050400K 10000000010000002533           
CUS0205140000102225407002         TYRA JACKSON        1810 BRADDISH AVE                       000N        CARE OF             
MTR02051400001000000000000000RA              10002759    005800050000000500000570000003NN  NNW 000                       N    
RDG02051400WATRL000000004K00000000000000220000501022015105130N000400000010U26       000360400K 10000000010000000216           
CUS0205140000102225408000         BISHOP, GARY        1808 BRADDISH AVE                       000N        CARE OF             
MTR02051400001000000000000000RA              32176477    005800060000000600000520000003NN  NNW 000                       N    
RDG02051400WATRL000000004K00000000000002215000601022015105133N000000000000U26       000030400K 10000000010000002201           
CUS0205140000102225409008         HAIRSTON, GREGORY   1806 BRADDISH AVE                       000N        CARE OF             
MTR02051400001000000000000000RA              26010732    005800070000000700000520000003NN  NNW 000                       N    
RDG02051400WATRL000000004K00000000000003931000701022015105137N000000000000U26       000040400K 10000000010000003931           
CUS0205140000102225410006         LOUISE T WADE EST. O1804 BRADDISH AVE                       000N        CARE OF             
MTR02051400001000000000000000RA              99391990    005800080000000800000570000003NN  NNW 000   VACANT PROPERTY     N    
RDG02051400WATRL000000004K00000000000000565000801022015105145N000000000010U26       000080400K 10000000010000000565           
CUS0205140000102225412002         LYNCH, MARCELLA     1800 BRADDISH AVE                       000N        CARE OF             
MTR02051400001000000000000000RA              14914739    001500090000000900000310000003NN  NNW 000                       N    
RDG02051400WATRL000000005K00000000000000457000901022015105153N000000000000U26       000080500K 10000000010000000447           
CUS0205140000102225413000         WALTER K DENNISON JR2700 WESTWOOD AVE                       000N        CARE OF             
MTR02051400001000000000000000RA              10016967    005800100000001000000570000003NN  NNW 000                       N    
RDG02051400WATRL000000004K00000000000000311001001022015110031N000400000010U26       005180400K 10000000010000000310           
CUS0205140000102225414008         PERKINS, BRIDGETTE C2702 WESTWOOD AVE                       000N        CARE OF             
MTR02051400001000000000000000RA              44176898    005800110000001100000520000003NN  NNW 000                       N    
RDG02051400WATRL000000004K00000000000000600001101022015110034N000000000000U26       000030400K 10000000010000000597           
CUS0205140000102225415005         MARTIN, EARL G      2704 WESTWOOD AVE                       000N        CARE OF             
MTR02051400001000000000000000RA              33732277    005800120000001200000520000003NN  NNW 000                       N    
RDG02051400WATRL000000004K00000000000003008001201022015110037N000000000000U26       000030400K 10000000010000002988           
CUS0205140000102225416003         BELL, MICHAEL L.    2706 WESTWOOD AVE                       000N        CARE OF             
MTR02051400001000000000000000RA              46880559    005800130000001300000520000003NN  NNW 000                       N    
RDG02051400WATRL000000004K00000000000000312001301022015110117N000000000000U26       000400400K 10000000010000000312           
CUS0205140000102225417001         JADE ADVENTURE LLC  2707 WESTWOOD AVE                       000N        CARE OF             
MTR02051400001000000000000000RA              14930936    005800140000001400000310000003NN  NNW 000   VACANT PROPERTY     N    
RDG02051400WATRL000000004K00000000000000001001401022015110130N000000000000U26       000130400K 10000000010000000001           
CUS0205140000102225418009         WANDA ALLEN         2705 WESTWOOD AVE                       000N        CARE OF             
MTR02051400001000000000000000RA              01092216    005800150000001500000610000003NN  NNW 000                       N    
RDG02051400WATRL000000004K00000000000000650001501022015110143N000000000000U26       000130400K 10000000010000000650           
CUS0205140000102225419007         PATTERSONFINLEY, LLC2703 WESTWOOD AVE                       000N        CARE OF             
MTR02051400001000000000000000RA              24773164    005800160000001600000520000003NN  NNW 000                       N    
RDG02051400WATRL000000004K00000000000001807001601022015110311N000000000010U26       000880400K 10000000010000001777           
CUS0205140000102225420005         PARKER, LISA T.     2701 WESTWOOD AVE                       000N        CARE OF             
MTR02051400001000000000000000RA              10013919    005800170000001700000570000003NN  NNW 000                       N    
RDG02051400WATRL000000004K00000000000000227001701022015110314N000000000000U26       000030400K 10000000010000000206           
CUS0205140000102225421003         RMS TARGET PROPERTIE1738 BRADDISH AVE                       000N        CARE OF             
MTR02051400001000000000000000RA              45375018    005800180000001800000520000003NN  NNW 000                       N    
RDG02051400WATRL000000004K00000000000002169001801022015110317N000000000000U26       000030400K 10000000010000002169           
CUS0205140000102225422001         TACO M BARNES       1736 BRADDISH AVE                       000N        CARE OF             
MTR02051400001000000000000000RA              31582315    005800190000001900000520000003NN  NNW 000                       N    
RDG02051400WATRL000000004K00000000000004926001901022015110448N000000000000U26       000910400K 10000000010000004905           
CUS0205140000102225423009         HOLMES, ROBERT L    1734 BRADDISH AVE                       000N        CARE OF             
MTR02051400001000000000000000RA              01075462    005800200000002000000610000003NN  NNW 000                       N    
RDG02051400WATRL000000004K00000000000000717002001022015110454N000000000000U26       000060400K 10000000010000000707           
CUS0205140000102225424007         HOLMES, ROBERT      1732 BRADDISH AVE                       000N        CARE OF             
MTR02051400001000000000000000RA              01075468    005800210000002100000610000003NN  NNW 000                       N    
RDG02051400WATRL000000004K00000000000000436002101022015110500N000000000010U26       000060400K 10000000010000000433           
CUS0205140000102225425004         GOLOKO, DJIBY S     1730 BRADDISH AVE                       000N        CARE OF             
MTR02051400001000000000000000RA              99391987    005800220000002200000570000003NN  NNW 000                       N    
RDG02051400WATRL000000004K00000000000000358002201022015110502N000000000000U26       000020400K 10000000010000000349           
CUS0205140000102225426002         HILL SR, THURMAN    1728 BRADDISH AVE                       000N        CARE OF             
MTR02051400001000000000000000RA              40320853    005800230000002300000520000003NN  NNW 000                       N    
RDG02051400WATRL000000004K00000000000001134002301022015110625N000000000000U26       000830400K 10000000010000001132           
CUS0205140000102225427000         QUINERLY, CLEO      1726 BRADDISH AVE                       000N        CARE OF             
MTR02051400001000000000000000RA              44003688    005800240000002400000520000003NN  NNW 000                       N    
RDG02051400WATRL000000004K00000000000001811002401022015110632N000000000000U26       000070400K 10000000010000001805           
CUS0205140000102225428008         CASON, DEBORAH      1724 BRADDISH AVE                       000N        CARE OF             
MTR02051400001000000000000000RA              99391988    005800250000002500000570000003NN  NNW 000                       N    
RDG02051400WATRL000000004K00000000000000827002501022015110641N000300000010U26       000090400K 10000000010000000815           
CUS0205140000102225429006         PHILLIPS, JUNE S.   1722 BRADDISH AVE                       000N        CARE OF             
MTR02051400001000000000000000RA              14922314    005800260000002600000310000003NN  NNW 000                       N    
RDG02051400WATRL000000004K00000000000000249002601022015110647N000000000000U26       000060400K 10000000010000000249           
CUS0205140000102225430004         COLEMAN, ALVIN N.   1720 BRADDISH AVE                       000N        CARE OF             
MTR02051400001000000000000000RA              01094103    005800270000002700000610000003NN  NNW 000                       N    
RDG02051400WATRL000000004K00000000000000421002701022015110657N000000000000U26       000100400K 10000000010000000421           
CUS0205140000102225431002         PACK, SONJA         1718 BRADDISH AVE                       000N        CARE OF             
MTR02051400001000000000000000RA              99391991    005800280000002800000570000003NN  NNW 000                       N    
RDG02051400WATRL000000004K00000000000000686002801022015110817N000300000010U26       000800400K 10000000010000000677           
CUS0205140000102225432000         NANCE, KIM          1716 BRADDISH AVE                       000N        CARE OF             
MTR02051400001000000000000000RA              40322872    005800290000002900000520000003NN  NNW 000                       N    
RDG02051400WATRL000000004K00000000000001760002901022015110824N000400000010U26       000070400K 10000000010000001757           
CUS0205140000102225433008         JONES, WILLIE LEE   1714 BRADDISH AVE                       000N        CARE OF             
MTR02051400001000000000000000RA              01087057    005800300000003000000610000003NN  NNW 000                       N    
RDG02051400WATRL000000004K00000000000000386003001022015110831N000000000000U26       000070400K 10000000010000000377           
CUS0205140000102225434006         MOORE, MAHESH KATRIN1712 BRADDISH AVE                       000N        CARE OF             
MTR02051400001000000000000000RA              52770608    005800310000003100000520000003NN  NNW 000                       N    
RDG02051400WATRL000000004K00000000000001279003101022015110847N000000000000U26       000160400K 10000000010000001249           
CUS0205140000102225435003         LEE, PAULA LASTER   1710 BRADDISH AVE                       000N        CARE OF             
MTR02051400001000000000000000RA              74688545    005800320000003200000350000003NN  NNW 000                       N    
RDG02051400WATRL000000004K00000000000000122003201022015111152N000000000000U26       001850400K 10000000010000000106           
CUS0205140000102225436001         FLOWERS, BETTIE S   1708 BRADDISH AVE                       000N        CARE OF             
MTR02051400001000000000000000RA              36698384    005800330000003300000520000003NN  NNW 000                       N    
RDG02051400WATRL000000004K00000000000002585003301022015111155N000000000000U26       000030400K 10000000010000002580           
CUS0205140000102225437009         NOBLE T, LLC        1706 BRADDISH AVE                       000N        CARE OF             
MTR02051400001000000000000000RA              48585423    005800340000003400000520000003NY  NNW 000                       N    
MTM0205140048585423    FOGGY                                                                                                  
RDG02051400WATRL000000004K00000000000000000003000000000000000 000000000000U         000000400  10000000010000000939           
CUS0205140000102225438007         DAYARAM, STELLA     1704 BRADDISH AVE                       000N        CARE OF             
MTR02051400001000000000000000RA              01093875    005800350000003500000610000003NN  NNW 000                       N    
RDG02051400WATRL000000004K00000000000000345003601022015111416N000000000021U26       000020400K 10000000010000000340           
CUS0205140000102225439005         JAMES B WILLIAMS & W1702 BRADDISH AVE                       000N        CARE OF             
MTR02051400001000000000000000RA              99392326    005800360000003600000570000003NN  NNW 000                       N    
RDG02051400WATRL000000004K00000000000000664003501022015111330N000000000000U26       000180400K 10000000010000000653           
CUS0205140000102225440003         BRANDON FITZGERALD  1700 BRADDISH AVE                       000N        CARE OF             
MTR02051400001000000000000000RA              30521501    005800370000003700000520000003NN  NNW 000                       N    
RDG02051400WATRL000000004K00000000000004086003701022015111427N000100000010U26       000110400K 10000000010000004086           
CUS0205140000102225441001         CARROLL HOLDINGS, L.2700 PRESBURY ST                        000N        CARE OF             
