FHDNNNN036004674004674004760N                                                                                           014325
RHD09005700NN01310131000001310000000001180118000027NY011801180131002200090000000000000000000001    12152014NY020000 N         
CUS0900570000109290234005         MANGUM, CHARLES L   1835-37 N PORT ST                       000N        CARE OF             
MTR09005700001000000000000000RA              46889767    007500010000000100000520000000NY  NNW 000                       N    
MTM0900570046889767    OK                                                                                                     
RDG09005700WATRL000000004K00000000000000679000112232014113734N000006706700U91       000000400K 10000000010000000679           
CUS0900570000109290236000         NEW LIFE EVANGELICAL1845 N MILTON AVE                       000N        CARE OF             
MTR09005700001000000000000000RA              99314993    000100020000000200000570000003NY  NNW 000                       N    
MTM0900570099314993    OK                                                                                                     
RDG09005700WATRL000000004K00000000000000226000212232014113830N000100000010U91       000560400K 10000000010000000226           
CUS0900570000109290235002         NEW LIFE EVANGELICAL1845 N MILTON AVE                       000N        CARE OF             
MTR09005700001000000000000000RA              3055671     000600030000000300000410000003NN  NNW 000   FIRE SERVICE        N    
RDG09005700WATRL000000006K00000000000000000000312232014113850N000000000000U91       000200600K 10000000010000000000           
CUS0900570000109290231001         KIM, YONG N (LIFE)  1836-38 N PATTERSON PK AV               000N        CARE OF             
MTR09005700002000000000000000RA              20000024    000300040000000400000460000003NY  NNW 000   VACANT PROPERTY     N    
MTM0900570020000024    OK                                                                                                     
RDG09005700WATAL000000005K00000000000000103000412232014113857N000000000010U91       000070500K 10000000010000000000           
RDG09005700WATBL000000005K00000000000000132000512232014113907N000400000010U91       000100500K 10000000010000000000           
CUS0900570000109290232009         YONG N KIM (LIFE)   1808 N PATTERSON PK AVE                 000N        CARE OF             
MTR09005700001000000000000000RA              00066650    000200050000000500000570000003NN  NNW 000                       N    
RDG09005700WATRL000000005K00000000000003448000612232014113911N000000000000U91       000040500K 10000000010000003445           
CUS0900570000109414162009         YONG N KIM (LIFE)   1808 N PATTERSON PK AVE                 000N        CARE OF             
MTR09005700001000000000000000RA              8032836     000400060000000600000380000000NN  NNW 000   FIRE SERVICE        N    
RDG09005700WATRL000000006K00000000000000000000712232014113915N000000000000U91       000040600K 10000000010000000000           
CUS0900570000109414161001         YONG N KIM (LIFE)   1808 N PATTERSON PK AVE                 000N        CARE OF             
MTR09005700001000000000000000RA              35118826    000200070000000700000520000000NY  NNW 000                       N    
MTM0900570035118826    CL                                                                                                     
RDG09005700WATRL000000005K00000000000000000000000000000000000 000000000000U         000000500  10000000010000003475           
CUS0900570000109290233007         GRACE CHRISTIAN CHUR1766 N GAY ST                           000N        CARE OF             
MTR09005700001000000000000000RA              99999999    007500080000000800000620000003NN  NNW 000   VACANT PROPERTY     N    
RDG09005700WATRL000000004K00000000000000000000812232014113934S022000000000U91       000190400K 10000000010000000326           
CUS0900570000109430553009         CGH LIMITED PARTNERS1700 N GAY ST                           000N        CARE OF             
MTR09005700001000000000000000RA              8046584     000400090000000900000380000000NN  NNW 000   FIRE SERVICE        N    
RDG09005700WATRL000000006K00000000000000000000912232014113941N000000000000U91       000070600K 10000000010000000000           
CUS0900570000109430555004         CGH LIMITED PARTSHP.1700 N GAY ST                           000N        CARE OF             
MTR09005700001000000000000000RA              00066607    000200100000001000000570000000NN  NNW 000                       N    
RDG09005700WATRL000000005K00000000000022103001012232014113947N000300000010U91       000060500K 10000000010000021222           
CUS0900570000109443110003         AMERICAN BREWERY LLC1701 N GAY ST                           000N        CARE OF             
MTR09005700001000000000000000RA              8052274     000400110000001100000410000000NN  NNW 000   FIRE SERVICE        N    
RDG09005700WATRL000000006K00000000000000001001112232014113952N000000000010U91       000050600K 10000000010000000001           
CUS0900570000109443112009         AMERICAN BREWERY LLC1701 N GAY ST                           000N        CARE OF             
MTR09005700001000000000000000RA              01116750    000200120000001200000610000000NN  NNW 000                       N    
RDG09005700WATRL000000005K00000000000002716001212232014114003N000400000010U91       000110500K 10000000010000002641           
CUS0900570000109290251009         DEPT OF EDUCATION   1409 N COLLINGTON AVE                   000N        CARE OF             
MTR09005700001000000000000000RA              9800052     000300130000001300000640000003NN  NNW 000                       N    
RDG09005700WATRL000000005K00000000000001776001312232014114018N000000000000U91       000150500K 10000000010000001625           
CUS0900570000109290243006         P.C.E., LLC.        1603-05 N WASHINGTON ST                 000N        CARE OF             
MTR09005700001000000000000000RA              10023528    005800140000001400000570000003NY  NNW 000                       N    
MTM0900570010023528    OK                                                                                                     
RDG09005700WATRL000000004K00000000000000347001412232014114024N000000000000U91       000060400K 10000000010000000347           
CUS0900570000109290244004         LANVALE APARTMENTS L1600 RUTLAND AVE                        000N        CARE OF             
MTR09005700001000000000000000RA              1215546     000300150000001500000470000003NN  NNW 000                       N    
RDG09005700WATRL000000005K00000000000011155001512232014114028N000000000000U91       000040500K 10000000010000010551           
CUS0900570000109290245001         1817 EAST PRESTON LL1807-41 E PRESTON ST                    000N        CARE OF             
MTR09005700001000000000000000RA              9607699     000300160000001600000640000003NN  NNW 000                       N    
RDG09005700WATRL000000005K00000000000003641001612232014114036N000400000010U91       000080500K 10000000010000003581           
CUS0900570000109444975008         MAYOR & CITY COUNCIL1103-21 N WOLFE ST                      000N        CARE OF             
MTR09005700001000000000000000RA              90000035    000200170000001700000570000000NN  NNW 000   VACANT PROPERTY     N    
RDG09005700WATRL000000005K00000000000002306001712232014114108N000000000010U91       000320500K 10000000010000002305           
CUS0900570000109444976006         MAYOR & CITY COUNCIL1103-21 N WOLFE ST                      000N        CARE OF             
MTR09005700001000000000000000RA              8053333     000400180000001800000410000000NN  NNW 000   FIRE SERVICE        N    
RDG09005700WATRL000000006K00000000000000000001812232014114111N000000000000U91       000030600K 10000000010000000000           
CUS0900570000109454207003         EBDI JOHN HOPKINS   2100 ASHLAND AVE                        000N        CARE OF             
MTR09005700001000000000000000RA              0006898     000800190000001900000410000003NN  NNW 000   FIRE SERVICE        N    
RDG09005700WATRL000000006K00000000000000004001912232014114119N000000000000U91       000080600K 10000000010000000004           
CUS0900570000109454209009         EBDI JOHN HOPKINS   2100 ASHLAND AVE                        000N        CARE OF             
MTR09005700001000000000000000RA              71429406    000300200000002000000440000003NN  NNW 000                       N    
RDG09005700WATRL000000005K00000000000000789002012232014114123N000000000000U91       000040500K 10000000010000000536           
CUS0900570000109420490006         EPISCOPAL HOUSING CO901-07 N BROADWAY                       000N        CARE OF             
MTR09005700001000000000000000RA              01105519    000200210000002100000610000003NN  NNW 000                       N    
RDG09005700WATRL000000005K00000000000000944002112232014114230N000000000000U91       000670500K 10000000010000000917           
CUS0900570000109444214002         MADISON ST PROPERTIE716 N BROADWAY                          000N        CARE OF             
MTR09005700001000000000000000RA              61381509    000400220000002200000470000000NN  NNW 000                       N    
RDG09005700WATRL000000006K00000000000001653002212232014114241N000000000000U91       000110600K 10000000010000001532           
CUS0900570000109444215009         MADISON ST PROPERTIE716 N BROADWAY                          000N        CARE OF             
MTR09005700001000000000000000RA              8053045     000600230000002300000410000000NN  NNW 000   FIRE SERVICE        N    
RDG09005700WATRL000000006K00000000000000007002312232014114245N000000000000U91       000040600K 10000000010000000007           
CUS0900570000109409561009         DEPT OF REC & PARKS 908 N BROADWAY                          000N        CARE OF             
MTR09005700001000000000000000RA              99999999    007500240000002400000520000003NY  NNW 000                       N    
MTM0900570099999999    CL                                                                                                     
RDG09005700WATRL000000004K00000000000000000000000000000000000 000000000000U         000000400  10000000010000011873           
CUS0900570000109409558005         MASS TRANSIT ADMIN  908 N BROADWAY                          000N        CARE OF             
MTR09005700001000000000000000RA              8027093     000800250000002500000340000003NN  NNW 000   FIRE SERVICE        N    
RDG09005700WATRL000000006K00000000000000000002412232014114423N000000000000U91       000980600K 10000000010000000000           
CUS0900570000109409560001         MASS TRANSIT ADMN   908 N BROADWAY                          000N        CARE OF             
MTR09005700001000000000000000RA              99411362    007500260000002600000570000003NY  NNW 000                       N    
MTM0900570099411362    OK                                                                                                     
RDG09005700WATRL000000004K00000000000000006002512232014114433N000000000010U91       000100400K 10000000010000000006           
CUS0900570000109431884007         UNITED BAPTIST CHURC938 N BROADWAY                          000N        CARE OF             
MTR09005700001000000000000000RA              8047072     000600270000002700000380000000NN  NNW 000   FIRE SERVICE        N    
RDG09005700WATRL000000006K00000000000000000002612232014114436N000000000000U91       000030600K 10000000010000000000           
CUS0900570000109431886002         UNITED BAPTIST CHURC938 N BROADWAY                          000N        CARE OF             
MTR09005700001000000000000000RA              90000240    000200280000002800000570000000NN  NNW 000                       N    
RDG09005700WATRL000000005K00000000000001152002712232014114441N000000000000U91       000050500K 10000000010000000979           
CUS0900570000109410709001         JOHNS HOPKINS HLTH S909 N BROADWAY                          000N        CARE OF             
MTR09005700001000000000000000RA              29768429    000200290000002900000520000003NN  NNW 000                       N    
RDG09005700WATRL000000005K00000000000010690002812232014114447N000000000000U91       000060500K 10000000010000010621           
CUS0900570000109410705009         JOHNS HOPKINS HOSPIT909 N BROADWAY                          000N        CARE OF             
MTR09005700001000000000000000RA              8032028     000400300000003000000380000003NN  NNW 000   FIRE SERVICE        N    
RDG09005700WATRL000000006K00000000000000008002912232014114451N000000000000U91       000040600K 10000000010000000008           
CUS0900570000109413471005         BROADWAY FINANCIAL L927 N BROADWAY                          000N        CARE OF             
MTR09005700001000000000000000RA              8032774     000600310000003100000380000003NN  NNW 000   FIRE SERVICE        N    
RDG09005700WATRL000000006K00000000000000006003012232014114500N000000000010U91       000090600K 10000000010000000005           
CUS0900570000109413473001         BROADWAY FINANCIAL L927 N BROADWAY                          000N        CARE OF             
MTR09005700001000000000000000RA              35116825    000200320000003200000520000003NN  NNW 000                       N    
RDG09005700WATRL000000005K00000000000028164003112232014114504N000000000000U91       000040500K 10000000010000027883           
CUS0900570000109439296006         CALVIN B SCRUGGS    1412 E PRESTON ST                       000N        CARE OF             
MTR09005700001000000000000000RA              8049352     000400330000003300000380000000NN  NNW 000   FIRE SERVICE        N    
RDG09005700WATRL000000006K00000000000000000003212232014114509N000000000000U91       000050600K 10000000010000000000           
CUS0900570000109439297004         CALVIN B SCRUGGS    1412 E PRESTON ST                       000N        CARE OF             
MTR09005700001000000000000000RA              01117009    000200340000003400000610000000NN  NNW 000                       N    
RDG09005700WATRL000000005K00000000000000697003312232014114528N000000000000U91       000190500K 10000000010000000672           
CUS0900570000109439931008         MAYOR & CITY COUNCIL1401 E PRESTON ST                       000N        CARE OF             
MTR09005700001000000000000000RA              01117153    000200350000003500000610000000NN  NNW 000                       N    
RDG09005700WATRL000000005K00000000000000271003412232014114531N000000000000U91       000030500K 10000000010000000264           
CUS0900570000109290329003         SOUGHT OUT REDEEMED 1214 N BROADWAY                         000N        CARE OF             
MTR09005700001000000000000000RA              27567948    000200360000003600000520000003NN  NNW 000                       N    
RDG09005700WATRL000000005K00000000000003918003512232014114541N000400000010U91       000100500K 10000000010000003805           
CUS0900570000109290330001         PROPERTY MANAGER    1615 E CHASE ST                         000N        CARE OF             
MTR09005700001000000000000000RA              35105176    000200370000003700000520000003NN  NNW 000                       N    
RDG09005700WATRL000000005K00000000000060436003612232014114545N000000000000U91       000040500K 10000000010000060238           
CUS0900570000109290331009         PROPERTY MANAGER    1601-11 E CHASE ST                      000N        CARE OF             
MTR09005700001000000000000000RA              35105188    000200380000003800000520000003NN  NNW 000                       N    
RDG09005700WATRL000000005K00000000000059800003712232014114552N000000000000U91       000070500K 10000000010000059585           
CUS0900570000109414646001         JOHN HOPKINS UNIVERS1809 ASHLAND AVE                        000N        CARE OF             
MTR09005700001000000000000000RA              8035767     000400390000003900000380000003NN  NNW 000   FIRE SERVICE        N    
RDG09005700WATRL000000006K00000000000000000003812232014114649N000000000000U91       000570600K 10000000010000000000           
CUS0900570000109414648007         JOHN HOPKINS UNIVERS1809 ASHLAND AVE                        000N        CARE OF             
MTR09005700001000000000000000RA              01105518    000200400000004000000610000003NY  NNW 000                       N    
MTM0900570001105518    OK                                                                                                     
RDG09005700WATRL000000005K00000000000002579003912232014114706N000000000000U91       000170500K 10000000010000002579           
CUS0900570000109454111007         MD ECONOMIC DEV CORP1770 ASHLAND AVE                        000N        CARE OF             
MTR09005700001000000000000000RA              13802076    000800410000004100000000000000NN  NNW 000                       N    
RDG09005700WATRL000000006K00000000000000000000000000000000000 000000000000U         000000600  10000000010000010860           
CUS0900570000109454109001         MD ECONOMIC DEV CORP1770 ASHLAND AVE                        000N        CARE OF             
MTR09005700001000000000000000RA              13802074    000800420000004200000390000003NN  NNW 000                       N    
RDG09005700WATRL000000006K00000000000000000000000000000000000 000000000000U         000000600  10000000010000003449           
CUS0900570000109290332007         PROPERTY MANAGER    1103 BILLIE HOLLIDAY CT                 000N        CARE OF             
MTR09005700001000000000000000RA              35105191    000200430000004300000520000003NN  NNW 000                       N    
RDG09005700WATRL000000005K00000000000061222004012232014114748N000000000000U91       000420500K 10000000010000060908           
CUS0900570000109290333005         PROPERTY MANAGER    1515 E WARD CT                          000N        CARE OF             
MTR09005700001000000000000000RA              35105189    000200440000004400000520000003NN  NNW 000                       N    
RDG09005700WATRL000000005K00000000000070272004112232014114755N000000000000U91       000070500K 10000000010000070019           
CUS0900570000109290334003         PROPERTY MANAGER    1011-27 BRANCHWATER CT                  000N        CARE OF             
MTR09005700002000000000000000RA              01117298    000300450000004500000330000003NN  NNW 000                       N    
RDG09005700WATAL000000005K00000000000000000004212232014114758S005000000000U91       000030500K 10000000010000033799           
RDG09005700WATBL000000005K00000000000000000004312232014114800S005000000000U91       000020500K 10000000010000024377           
CUS0900570000109290248005         MAYOR & CITY COUNCIL2101 E BIDDLE ST                        000N        CARE OF             
MTR09005700001000000000000000RA              01105520    000200460000004600000610000003NY  NNW 000                       N    
MTM0900570001105520    VAC                                                                                                    
RDG09005700WATRL000000005K00000000000099977004412232014114827N000000000000U91       000270500K 10000000010000099977           
CUS0900570000109441058006         COLLINGTON PARTNERS,2200 E BIDDLE ST                        000N        CARE OF             
MTR09005700002000000000000000RA              04178308    000300470000004700000460000000NN  NNW 000                       N    
RDG09005700WATAL000000005K00000000000006550004512232014114836N000400000010U91       000090500K 10000000010000006298           
RDG09005700WATBL000000005K00000000000000068004612232014114843N000000000000U91       000070500K 10000000010000009245           
CUS0900570000109441056000         COLLINGTON PARTNERS,2200 E BIDDLE ST                        000N        CARE OF             
MTR09005700001000000000000000RA              8051110     000600480000004800000410000000NN  NNW 000   FIRE SERVICE        N    
RDG09005700WATRL000000006K00000000000000009004712232014114857N000100000010U91       000140600K 10000000010000000009           
CUS0900570000109429927008         COLLINGTON SQ NON-PR2105 MURA ST                            000N        CARE OF             
MTR09005700001000000000000000RA              8043181     000400490000004900000380000000NN  NNW 000   FIRE SERVICE        N    
RDG09005700WATRL000000006K00000000000000001004812232014114900N000000000000U91       000030600K 10000000010000000001           
CUS0900570000109429930002         COLLINGTON SQ NON-PR2105 MURA ST                            000N        CARE OF             
MTR09005700001000000000000000RA              99170689    000200500000005000000570000003NN  NNW 000                       N    
RDG09005700WATRL000000005K00000000000017559004912232014114904N000000000000U91       000040500K 10000000010000017491           
CUS0900570000109443149001         EPISCOPAL HOUSING CO2116 MURA ST                            000N        CARE OF             
MTR09005700001000000000000000RA              01116752    000200510000005100000440000000NN  NNW 000                       N    
RDG09005700WATRL000000005K00000000000000881005012232014114910N000000000000U91       000060500K 10000000010000000842           
CUS0900570000109446288004         1125 N PATTERSON PAR1125 N PATTERSON PK AVE                 000N        CARE OF             
MTR09005700001000000000000000RA              09054271    000600520000005200000380000000NN  NNW 000   FIRE SERVICE        N    
RDG09005700WATRL000000006K00000000000000005005112232014114935N000000000000U91       000250600K 10000000010000000005           
CUS0900570000109446290000         1125 N PATTERSON PAR1125 N PATTERSON PK AVE                 000N        CARE OF             
MTR09005700002000000000000000RA              20628538    000300530000005300000460000000NY  NNW 000                       N    
MTM0900570020628538    OK                                                                                                     
RDG09005700WATAL000000005K00000000000000092005212232014115006N000300000010U91       000310500K 10000000010000000880           
RDG09005700WATBL000000005K00000000000003268005312232014115026N000400000010U91       000200500K 10000000010000000072           
CUS0900570000109290324004         SCHOOL NO. 25       1000 N MONTFORD AVE                     000N        CARE OF             
MTR09005700002000000000000000RA              5498414     000600540000005400000630000003NN  NNW 000                       N    
RDG09005700WATAL000000006K00000000000000000000000000000000000 000000000000U         000000600  10000000010000000001           
RDG09005700WATBL000000006K00000000000000000000000000000000000 000000000000U         000000600  10000000010000013238           
CUS0900570000109290322008         901 N MILTON AVENUE,901 N MILTON AVE                        000N        CARE OF             
MTR09005700001000000000000000RA              9601353     000300550000005500000640000003NN  NNW 000                       N    
RDG09005700WATRL000000005K00000000000000000000000000000000000 000000000000U         000000500  10000000010000003248           
CUS0900570000109290323006         901 N MILTON AVENUE,901 N MILTON AVE                        000N        CARE OF             
MTR09005700001000000000000000RA              1097742     000600560000005600000410000003NN  NNW 000   FIRE SERVICE        N    
RDG09005700WATRL000000006K00000000000000000000000000000000000 000000000000U         000000600  10000000010000000128           
CUS0900570000106441257000         MILTON AVENUE ASSOC 619 N MILTON AVE                        000N        CARE OF             
MTR09005700001000000000000000RA              01117236    000200570000005700000610000000NN  NNW 000                       N    
RDG09005700WATRL000000005K00000000000000000000000000000000000 000000000000U         000000500  10000000010000012850           
CUS0900570000109290250001         FAMILY RECOVERY PROG2515-21 E PRESTON ST                    000N        CARE OF             
MTR09005700002000000000000000RA              4247143     000300580000005800000370000000NY  NNW 000                       N    
MTM090057004247143     OK                                                                                                     
RDG09005700WATAL000000005K00000000000004509005412232014115125N000306706710U91       000590500K 10000000010000005010           
RDG09005700WATBL000000005K00000000000000525005512232014115129N000000000000U91       000040500K 10000000010000003279           
CUS0900570000109290252007         BUREAU OF BLDG.CONST2625 E FEDERAL ST                       000N        CARE OF             
MTR09005700001000000000000000RA              32772083    000200590000005900000520000003NN  NNW 000                       N    
RDG09005700WATRL000000005K00000000000010622005612232014115134N000000000000U91       000050500K 10000000010000010564           
CUS0900570000109290253005         LAKEWOOD APARTMENTS 1401 N LAKEWOOD AVE                     000N        CARE OF             
MTR09005700001000000000000000RA              5125013     000600600000006000000410000003NN  NNW 000   FIRE SERVICE        N    
RDG09005700WATRL000000006K00000000000000005005712232014115138N000000000000U91       000040600K 10000000010000000005           
CUS0900570000109290254003         LAKEWOOD APARTMENTS 1401 N LAKEWOOD AVE                     000N        CARE OF             
MTR09005700001000000000000000RA              1475204     000200610000006100000490000003NN  NNW 000                       N    
RDG09005700WATRL000000005K00000000000044682005812232014115144N000000000000U91       000060500K 10000000010000043575           
CUS0900570000109290255000         MAYOR & CITY COUNCIL2801 E OLIVER ST                        000N        CARE OF             
MTR09005700001000000000000000RA              9208084     000300620000006200000640000003NN  NNW 000                       N    
RDG09005700WATRL000000005K00000000000038194005912232014115149N000000000000U91       000050500K 10000000010000038079           
CUS0900570000109290256008         JOHN HOPKINS, JHFRE 2827 E PRESTON ST                       000N        CARE OF             
MTR09005700001000000000000000RA              99409922    000100630000006300000570000003NN  NNW 000                       N    
RDG09005700WATRL000000004K00000000000001630006012232014115157N000300000010U91       000080400K 10000000010000001621           
CUS0900570000109290257006         ULLAH, AZIZ         3000 E PRESTON ST                       000N        CARE OF             
MTR09005700001000000000000000RA              25374137    000100640000006400000520000003NN  NNW 000                       N    
RDG09005700WATRL000000004K00000000000008808006112232014115201N000000000000U91       000040400K 10000000010000008778           
CUS0900570000109432003003         MERRITT-LA1, LLC    2901-3031 E BIDDLE ST                   000N        CARE OF             
MTR09005700001000000000000000RA              00066795    001500650000006500000570000000NN  NNW 000                       N    
RDG09005700WATRL000000005K00000000000043802006212232014115211N000000000010U91       000100500K 10000000010000042127           
CUS0900570000109290258004         ULLAH, AZIZ         3000 E PRESTON ST                       000N        CARE OF             
MTR09005700001000000000000000RA              1663017     000800660000006600000410000000NN  NNW 000   FIRE SERVICE        N    
RDG09005700WATRL000000006K00000000000000000006312232014115218S005000000000U91       000070600K 10000000010000000465           
CUS0900570000109388083009         MERRITT-LA1, LLC    2901-3001 E BIDDLE ST                   000N        CARE OF             
MTR09005700002000000000000000RA              7122093     000800670000006700000630000003NN  NNW 000   FIRE SERVICE        N    
RDG09005700WATAL000000006K00000000000003346000112222014135933N000000000000N91       000000600K 10000000010000003346           
RDG09005700WATBL000000006K00000000000002477000212222014135940N000400000010N91       000070600K 10000000010000002472           
CUS0900570000109290261008         MAYOR & CITY COUNCIL3200 E BIDDLE ST                        000N        CARE OF             
MTR09005700001000000000000000RA              2314215     000800680000006800000410000003NN  NNW 000   FIRE SERVICE        N    
RDG09005700WATRL000000006K00000000000000000000312222014135944S022000000000N91       000040600K 10000000010000000000           
CUS0900570000109441311009         BUREAU OF GENERAL SV3800 E BIDDLE ST                        000N        CARE OF             
MTR09005700002000000000000000RA              0701749     000800690000006900000390000003NN  NNW 000                       N    
RDG09005700WATAL000000006K00000000000000028000412222014135949N000400000010N91       000050600K 10000000010000000022           
RDG09005700WATBL000000006K00000000000010455000512222014135956N000400000010N91       000070600K 10000000010000009756           
CUS0900570000109290265009         MARS SUPERMARKETS, I1425 EDISON HWY                         000N        CARE OF             
MTR09005700002000000000000000RA              2922348     001200700000007000000540000003NN  NNW 000                       N    
RDG09005700WATAL000000007K00000000000000256000612222014140002N000100000010N91       000060700K 10000000010000000256           
RDG09005700WATBL000000007K00000000000002991000712222014140012N000400000010N91       000100700K 10000000010000002984           
CUS0900570000109290266007         DUNCANWOOD BUSINESS 3501 DUNCANWOOD LN                      000N        CARE OF             
MTR09005700001000000000000000RA              4867500     000800710000007100000410000003NY  NNW 000   FIRE SERVICE        N    
MTM090057004867500     OK                                                                                                     
RDG09005700WATRL000000006K00000000000000564000812222014140024N000000000010N91       000120600K 10000000010000000464           
CUS0900570000109290267005         DUNCANWOOD BUSINESS 3501 DUNCANWOOD LN                      000N        CARE OF             
MTR09005700001000000000000000RA              33084023    001500720000007200000520000003NN  NNW 000                       N    
RDG09005700WATRL000000005K00000000000018212000912222014140029N000000000000N91       000050500K 10000000010000018103           
CUS0900570000109290264002         P.O. LIMITED PARTNER3701 DUNCANWOOD LN                      000N        CARE OF             
MTR09005700002000000000000000RA              2915830     001200730000007300000540000003NN  NNW 000   FIRE SERVICE        N    
RDG09005700WATAL000000007K00000000000000004001012222014140032N000000000000N91       000030700K 10000000010000000004           
RDG09005700WATBL000000007K00000000000014762001112222014140042N000400000010N91       000100700K 10000000010000014753           
CUS0900570000109419342002         P.O LIMITED PARTNERS3701 DUNCANWOOD LN                      000N        CARE OF             
MTR09005700001000000000000000RA              00066644    000200740000007400000570000000NN  NNW 000                       N    
RDG09005700WATRL000000005K00000000000018735001212222014140046N000000000000N91       000040500K 10000000010000018509           
CUS0900570000109290268003         EAST FEDERAL LLC    3520 E FEDERAL ST                       000N        CARE OF             
MTR09005700001000000000000000RA              00066697    000200750000007500000570000000NN  NNW 000                       N    
RDG09005700WATRL000000005K00000000000000746001312222014140056N000000000000N91       000100500K 10000000010000000725           
CUS0900570000109290273003         EASTERN FOOD SERVICE3509 E NORTH AVE                        000N        CARE OF             
MTR09005700001000000000000000RA              4119318     000600760000007600000410000003NN  NNW 000   FIRE SERVICE        N    
RDG09005700WATRL000000006K00000000000000000006412232014115240N000000000000U91       000220600K 10000000010000000000           
CUS0900570000109290274001         EASTERN FOOD SERVICE3509 E NORTH AVE                        000N        CARE OF             
MTR09005700001000000000000000RA              99409748    000100770000007700000570000003NN  NNW 000                       N    
RDG09005700WATRL000000004K00000000000002091006512232014115249N000000000000U91       000090400K 10000000010000002059           
CUS0900570000109290275008         H O P E ACADEMY     1800-06 EDISON HWY                      000N        CARE OF             
MTR09005700001000000000000000RA              29768467    000200780000007800000520000003NN  NNW 000                       N    
RDG09005700WATRL000000005K00000000000015954001412222014140105N000000000000N91       000090500K 10000000010000015866           
CUS0900570000109385572004         SRG PROPERTIES NO 121720 EDISON HWY                         000N        CARE OF             
MTR09005700001000000000000000RA              99287252    005800790000007900000570000003NN  NNW 000                       N    
RDG09005700WATRL000000004K00000000000003739001512222014140110N000000000000N91       000050400K 10000000010000003693           
CUS0900570000109385571006         SRG PROPERTIES NO 121720 EDISON HWY                         000N        CARE OF             
MTR09005700001000000000000000RA              E18448      000600800000008000000430000003NN  NNW 000   FIRE SERVICE        N    
RDG09005700WATRL000000006K00000000000000000001612222014140113N000000000000N91       000030600K 10000000010000000000           
CUS0900570000109290280008         1710 NORTH ELLWOOD A1710 N ELLWOOD AVE                      000N        CARE OF             
MTR09005700001000000000000000RA              99080615    007500810000008100000570000003NN  NNW 000                       N    
RDG09005700WATRL000000004K00000000000000000000000000000000000 000000000000U         000000400  10000000010000000740           
CUS0900570000109290279000         1710 NORTH ELLWOOD A1710 N ELLWOOD AVE                      000N        CARE OF             
MTR09005700001000000000000000RA              5204123     000600820000008200000410000003NN  NNW 000   FIRE SERVICE        N    
RDG09005700WATRL000000006K00000000000000000000000000000000000 000000000000U         000000600  10000000010000000001           
CUS0900570000109290276006         1710 EDISON, LLC    1710 EDISON HWY                         000N        CARE OF             
MTR09005700001000000000000000RA              99170773    001500830000008300000570000003NN  NNW 000                       N    
RDG09005700WATRL000000005K00000000000000636001712222014140146N000000000000N91       000330500K 10000000010000000627           
CUS0900570000109290277004         1710 EDISON, LLC    1710 EDISON HWY                         000N        CARE OF             
MTR09005700001000000000000000RA              3629311     000800840000008400000410000003NN  NNW 000   FIRE SERVICE        N    
RDG09005700WATRL000000006K00000000000000000001812222014140151N000000000000N91       000050600K 10000000010000000000           
CUS0900570000109290278002         MAYOR & CITY COUNCIL1620 EDISON HWY                         000N        CARE OF             
MTR09005700001000000000000000RA              26483831    000300850000008500000490000003NN  NNW 000                       N    
RDG09005700WATRL000000005K00000000000011164001912222014140221N000400000010N91       000300500K 10000000010000011120           
CUS0900570000109401733002         WAHL/GRUE, LLC      1101 EDISON HWY                         000N        CARE OF             
MTR09005700001000000000000000RA              41075878    005800860000008600000520000003NN  NNW 000                       N    
RDG09005700WATRL000000004K00000000000006182006612232014115328N000400000010U91       000390400K 10000000010000006164           
CUS0900570000109430293002         EAST BIDDLE, LLC    3500 E BIDDLE ST                        000N        CARE OF             
MTR09005700002000000000000000RA              70262650    000300870000008700000460000003NN  NNW 000                       N    
RDG09005700WATAL000000005K00000000000000000000000000000000000 000000000000U         000000500  10000000010000000069           
RDG09005700WATBL000000005K00000000000000000000000000000000000 000000000000U         000000500  10000000010000000069           
CUS0900570000109430294000         EAST BIDDLE, LLC    3500 E BIDDLE ST                        000N        CARE OF             
MTR09005700001000000000000000RA              8037539     000800880000008800000380000003NN  NNW 000   FIRE SERVICE        N    
RDG09005700WATRL000000006K00000000000000000000000000000000000 000000000000U         000000600  10000000010000000000           
CUS0900570000109427719001         MAYOR AND CITY COUNC806 N HAVEN ST                          000N        CARE OF             
MTR09005700002000000000000000RA              70052696    000800890000008900000560000003NY  NNW 000                       N    
MTM0900570070052696    OK                                                                                                     
RDG09005700WATAL000000006K00000000000001139006712232014115343N000000000000U91       000150600K 10000000010000001091           
RDG09005700WATBL000000006K00000000000000024006812232014115356N000100000010U91       000130600K 10000000010000000024           
CUS0900570000109290306001         LEONARD PAPER CO    725 N HAVEN ST                          000N        CARE OF             
MTR09005700002000000000000000RA              99999999    000300900000009000000620000003NN  NNW 000                       N    
RDG09005700WATAL000000005K00000000000000107006912232014115445N000300000010U91       000490500K 10000000010000000242           
RDG09005700WATBL000000005K00000000000003093007012232014115450N000000000000U91       000050500K 10000000010000004196           
CUS0900570000109290307009         LEONARD PAPER CO    725 N HAVEN ST                          000N        CARE OF             
MTR09005700001000000000000000RA              3552247     001000910000009100000410000003NN  NNW 000   FIRE SERVICE        N    
RDG09005700WATRL000000007K00000000000000101007112232014115501N000300000010U91       000110700K 10000000010000000766           
CUS0900570000109290308007         ASHLAND-KRESSON, LLC4101 ASHLAND AVE                        000N        CARE OF             
MTR09005700001000000000000000RA              00066919    001500920000009200000570000003NN  NNW 000                       N    
RDG09005700WATRL000000005K00000000000000977007212232014115505N000000000000U91       000040500K 10000000010000000957           
CUS0900570000109290309005         ASHLAND-KRESSON, LLC4101 ASHLAND AVE                        000N        CARE OF             
MTR09005700001000000000000000RA              8040028     000600930000009300000380000000NN  NNW 000   FIRE SERVICE        N    
RDG09005700WATRL000000006K00000000000000000007312232014115509S005000000000U91       000040600K 10000000010000000168           
CUS0900570000109290303008         ASHLAND-KRESSON, LLC740 N KRESSON ST                        000N        CARE OF             
MTR09005700001000000000000000RA              32575154    000200940000009400000520000003NN  NNW 000                       N    
RDG09005700WATRL000000005K00000000000013020007412232014115534N000000000000U91       000250500K 10000000010000012917           
CUS0900570000109290302000         ASHLAND-KRESSON, LLC740 N KRESSON ST                        000N        CARE OF             
MTR09005700001000000000000000RA              3762674     000800950000009500000410000003NN  NNW 000   FIRE SERVICE        N    
RDG09005700WATRL000000006K00000000000000000007512232014115540S005000000000U91       000060600K 10000000010000000039           
CUS0900570000109413348005         PPC LUBRICANTS, INC 801 N KRESSON ST                        000N        CARE OF             
MTR09005700001000000000000000RA              01105699    000200960000009600000610000003NN  NNW 000                       N    
RDG09005700WATRL000000005K00000000000001859007612232014115547N000000000000U91       000070500K 10000000010000001843           
CUS0900570000109413346009         PPC LUBRICANTS, INC 801 N KRESSON ST                        000N        CARE OF             
MTR09005700001000000000000000RA              8033013     000800970000009700000380000003NN  NNW 000   FIRE SERVICE        N    
RDG09005700WATRL000000006K00000000000000721007712232014115552N000000000000U91       000050600K 10000000010000000721           
CUS0900570000109290305003         BROAD, LAWRENCE C   4300 E MONUMENT ST                      000N        CARE OF             
MTR09005700001000000000000000RA              35113568    007500980000009800000520000003NN  NNW 000                       N    
RDG09005700WATRL000000004K00000000000002354007812232014115622N000000000000U91       000300400K 10000000010000002336           
CUS0900570000109290294009         MAYOR & CITY COUNCIL4601 E MONUMENT ST                      000N        CARE OF             
MTR09005700001000000000000000RA              35116883    000200990000009900000520000003NN  NNW 000                       N    
RDG09005700WATRL000000005K00000000000079501007912232014115629N000000000000U91       000070500K 10000000010000078920           
CUS0900570000109290297002         VOAC RRC QALICB, LLC5000 E MONUMENT ST                      000N        CARE OF             
MTR09005700001000000000000000RA              5417347     000601000000010000000410000003NN  NNW 000   FIRE SERVICE        N    
RDG09005700WATRL000000006K00000000000000000000000000000000000 000000000000U         000000600  10000000010000000024           
CUS0900570000109290298000         VOAC RRC QALICB, LLC5000 E MONUMENT ST                      000N        CARE OF             
MTR09005700001000000000000000RA              14914867    001501010000010100000310000003NN  NNW 000                       N    
RDG09005700WATRL000000005K00000000000000000000000000000000000 000000000000U         000000500  10000000010000000760           
CUS0900570000109290296004         TENAX CORPORATION   4800 E MONUMENT ST                      000N        CARE OF             
MTR09005700001000000000000000RA              31058540    000201020000010200000520000003NY  NNW 000                       N    
MTM0900570031058540    GONE OVER                                                                                              
RDG09005700WATRL000000005K00000000000009040008012232014115656N000300000010U91       000270500K 10000000010000088954           
CUS0900570000109429513006         TENAX REALTY LLC    4800 PULASKI HWY                        000N        CARE OF             
MTR09005700001000000000000000RA              000301      001001030000010300000380000000NY  NNW 000   FIRE SERVICE        N    
MTM09005700000301      OK                                                                                                     
RDG09005700WATRL000000007K00000000000000298008112232014115733N000300000010U91       000370700K 10000000010000000362           
CUS0900570000109429515001         TENAX REALTY LLC    4800 PULASKI HWY                        000N        CARE OF             
MTR09005700001000000000000000RA              99168644    001501040000010400000570000000NN  NNW 000                       N    
RDG09005700WATRL000000005K00000000000000826008212232014115801N000300000010U91       000280500K 10000000010000000869           
CUS0900570000109290293001         CCE SHARED SRVC-UTIL4600 E MONUMENT ST                      000N        CARE OF             
MTR09005700001000000000000000RA              29137374    001501050000010500000520000003NN  NNW 000                       N    
RDG09005700WATRL000000005K00000000000002557008312232014115806N000000000000U91       000050500K 10000000010000002501           
CUS0900570000109290292003         PACE GLOBAL         4600 E MONUMENT ST                      000N        CARE OF             
MTR09005700001000000000000000RA              5603867     000801060000010600000410000003NN  NNW 000   FIRE SERVICE        N    
RDG09005700WATRL000000006K00000000000000215008412232014115814N000100000010U91       000080600K 10000000010000000215           
CUS0900570000109290318006         ATLANTIC ALLIANCE   4004 E MONUMENT ST                      000N        CARE OF             
MTR09005700001000000000000000RA              1115674     000301070000010700000490000003NN  NNW 000                       N    
RDG09005700WATRL000000005K00000000000034407008512232014115818N000000000000U91       000040500K 10000000010000032780           
CUS0900570000109290317008         ATLANTIC ALLIANCE   4004 E MONUMENT ST                      000N        CARE OF             
MTR09005700001000000000000000RA              2638424     000801080000010800000410000003NN  NNW 000   FIRE SERVICE        N    
RDG09005700WATRL000000006K00000000000000000008612232014115859S005000000000U91       000410600K 10000000010000000120           
CUS0900570000109290289009         MCELDERRY, LLC.     3625 E MONUMENT ST                      000N        CARE OF             
MTR09005700001000000000000000RA              31588473    000201090000010900000520000003NY  NNW 000                       N    
MTM0900570031588473    OK                                                                                                     
RDG09005700WATRL000000005K00000000000096566008712232014115909N000000000000U91       000100500K 10000000010000096566           
CUS0900570000109290291005         GRAYBAR INC SITE #023701 E MONUMENT ST                      000N        CARE OF             
MTR09005700001000000000000000RA              00066867    001501100000011000000570000003NN  NNW 000                       N    
RDG09005700WATRL000000005K00000000000001432008812232014115918N000400000010U91       000090500K 10000000010000001415           
CUS0900570000109290290007         GRAYBAR ELECTRIC CO 3701 E MONUMENT ST                      000N        CARE OF             
MTR09005700001000000000000000RA              3304723     000601110000011100000410000003NN  NNW 000   FIRE SERVICE        N    
RDG09005700WATRL000000006K00000000000000000008912232014115924S005000000000U91       000060600K 10000000010000000132           
CUS0900570000109290321000         BUREAU OF ENGINEERIN3500 E MONUMENT ST                      000N        CARE OF             
MTR09005700001000000000000000RA              33734187    000201120000011200000520000003NY  NNW 000                       N    
MTM0900570033734187    OK                                                                                                     
RDG09005700WATRL000000005K00000000000000000009012232014120219N000000000001U91       001480500K 10000000010000000000           
CUS0900570000109290288001         PICCININI, AUGUST D 3021 E MADISON ST                       000N        CARE OF             
MTR09005700001000000000000000RA              01105760    000201130000011300000610000003NN  NNW 000                       N    
RDG09005700WATRL000000005K00000000000000000000000000000000000 000000000000U         000000500  10000000010000003851           
CUS0900570000109290287003         PICCININI, AUGUST D 3021 E MADISON ST                       000N        CARE OF             
MTR09005700001000000000000000RA              2937582     000601140000011400000650000003NN  NNW 000   FIRE SERVICE        N    
RDG09005700WATRL000000006K00000000000000000000000000000000000 000000000000U         000000600  10000000010000000000           
CUS0900570000109445840003         MD INST COLLEGE OF A806 N COLLINGTON AVE                    000N        CARE OF             
MTR09005700001000000000000000RA              90000206    000201150000011500000570000000NN  NNW 000                       N    
RDG09005700WATRL000000005K00000000000000000000000000000000000 000000000000U         000000500  10000000010000001028           
CUS0900570000109445838007         MD INST COLLEGE OF A806 N COLLINGTON AVE                    000N        CARE OF             
MTR09005700001000000000000000RA              09053884    000401160000011600000380000000NN  NNW 000   FIRE SERVICE        N    
RDG09005700WATRL000000006K00000000000000000000000000000000000 000000000000U         000000600  10000000010000000025           
CUS0900570000106188666009         MISSIONARIES OF CHAR818 N COLLINGTON AVE                    000N        CARE OF             
MTR09005700001000000000000000RA              14914728    001501170000011700000310000003NN  NNW 000                       N    
RDG09005700WATRL000000005K00000000000000000000000000000000000 000000000000U         000000500  10000000010000003990           
CUS0900570000106419435000         1030 EDISON HIGHWAY,1030 EDISON HWY                         000N        CARE OF             
MTR09005700001000000000000000RA              42847097    001501180000011800000520000003NN  NNW 000                       N    
RDG09005700WATRL000000005K00000000000000000000000000000000000 000000000000U         000000500  10000000010000005779           
RTR09005700NN01310131000001310000000001180118000027NY011801180131002200090000000000000000000001    12152014NY020000 N         
RHD09005900NN00980098000000980000000000880088000014NY008800880098000400040000000000000000000001    12152014NY020000 N         
CUS0900590000109409344000         BALTIMORE MUNICIPAL 2811 HARFORD RD                         000N        CARE OF             
MTR09005900002000000000000000RA              7235931     000600010000000100000480000003NN  NNW 000   FIRE SERVICE        N    
RDG09005900WATAL000000006K00000000000000027000112302014115728N000400000010N91       000000600K 10000000010000000026           
RDG09005900WATBL000000006K00000000000000068000212302014115736N000400000010N91       000080600K 10000000010000000066           
CUS0900590000109409346005         BALTIMORE MUNICIPAL 2811 HARFORD RD                         000N        CARE OF             
MTR09005900001000000000000000RA              90000110    000200020000000200000570000003NN  NNW 000                       N    
RDG09005900WATRL000000005K00000000000001243000312302014115739N000000000000N91       000030500K 10000000010000001198           
CUS0900590000109409478006         RECREATION & PARKS  2701 N ROSE ST                          000N        CARE OF             
MTR09005900001000000000000000RA              29724333    001500030000000300000520000003NN  NNW 000                       N    
RDG09005900WATRL000000005K00000000000005497000412302014115804N000300000010N91       000250500K 10000000010000005499           
CUS0900590000109258218008         BALTO MUNICIPAL GOLF2801 HARFORD RD                         000N        CARE OF             
MTR09005900002000000000000000RA              5003423     000600040000000400000540000003NN  NNW 000                       N    
RDG09005900WATAL000000006K00000000000037129000512302014115813N000400000010N91       000090600K 10000000010000036959           
RDG09005900WATBL000000006K00000000000027278000612302014115820N000400000010N91       000070600K 10000000010000027027           
CUS0900590000109409479004         RECREATION & PARKS  2301 N ROSE ST                          000N        CARE OF             
MTR09005900001000000000000000RA              39267027    000100050000000500000520000003NN  NNW 000                       N    
RDG09005900WATRL000000004K00000000000004868000712302014115859N000300000010N91       000390400K 10000000010000004886           
CUS0900590000109435608006         MAYOR & CITY COUN OF2803 ST LO DR                           000N        CARE OF             
MTR09005900001000000000000000RA              01105200    001500060000000600000610000000NY  NNW 000                       N    
MTM0900590001105200    CL                                                                                                     
RDG09005900WATRL000000005K00000000000000000000000000000000000 000000000000U         000000500  10000000010000002582           
CUS0900590000109258214007         DEPT OF EDUCATION   2801 ST LO DR                           000N        CARE OF             
MTR09005900002000000000000000RA              4867533     000800070000000700000630000003NY  NNW 000                       N    
MTM090059004867533     CL                                                                                                     
RDG09005900WATAL000000006K00000000000000000000000000000000000 000000000000U         000000600  10000000010000011533           
RDG09005900WATBL000000006K00000000000000000000000000000000000 000000000000U         000000600  10000000010000366587           
CUS0900590000109258217000         BOARD OF PARK COMM  2801 HARFORD RD                         000N        CARE OF             
MTR09005900002000000000000000RA              5003413     000600080000000800000540000003NY  NNW 000                       N    
MTM090059005003413     OK                                                                                                     
RDG09005900WATAL000000006K00000000000000136000812302014115946N000300000010N91       000470600K 10000000010000000395           
RDG09005900WATBL000000006K00000000000030271000912302014115955N000300000010N91       000090600K 10000000010000171002           
CUS0900590000109258216002         DEPT. OF EDUCATION  2200 SINCLAIR LN                        000N        CARE OF             
MTR09005900001000000000000000RA              1215500     000300090000000900000490000003NN  NNW 000                       N    
RDG09005900WATRL000000005K00000000000000000000000000000000000 000000000000U         000000500  10000000010000002783           
CUS0900590000109258215004         2300 SINCLAIR LANE, 2300 SINCLAIR LN                        000N        CARE OF             
MTR09005900001000000000000000RA              30002086    007500100000001000000570000003NN  NNW 000                       N    
RDG09005900WATRL000000004K00000000000000135001012302014120106N000000000000N91       000710400K 10000000010000000121           
CUS0900590000109435519005         COMMUNITY HOUSING AS2304 BELAIR RD                          000N        CARE OF             
MTR09005900001000000000000000RA              01117097    000200110000001100000570000000NN  NNW 000                       N    
RDG09005900WATRL000000005K00000000000007838001112302014120111N000000000000N91       000050500K 10000000010000007662           
CUS0900590000109258212001         BELAIR EDISON INVEST2401-2501 BELAIR RD                     000N        CARE OF             
MTR09005900001000000000000000RA              1257036     001500120000001200000490000003NN  NNW 000                       N    
RDG09005900WATRL000000005K00000000000014299001212302014120129N000300000030N91       000180500K 10000000010000011982           
CUS0900590000109258211003         BELAIR EDISON INVEST2401-2501 BELAIR RD                     000N        CARE OF             
MTR09005900002000000000000000RA              2270177     000800130000001300000630000003NN  NNW 000   FIRE SERVICE        N    
RDG09005900WATAL000000006K00000000000000023001312302014120134N000100000010N91       000050600K 10000000010000000023           
RDG09005900WATBL000000006K00000000000001080001412302014120139N000400000010N91       000050600K 10000000010000001024           
CUS0900590000109258210005         THE ERDLAND CO      3901-49 ERDMAN AVE                      000N        CARE OF             
MTR09005900002000000000000000RA              3837040     000800140000001400000540000003NN  NNW 000                       N    
RDG09005900WATAL000000006K00000000000000000001512302014120144N000100000010N91       000050600K 10000000010000000000           
RDG09005900WATBL000000006K00000000000046860001612302014120153N000400000010N91       000090600K 10000000010000045801           
CUS0900590000109445133003         ROMAN CATHOLIC ARCHB3701 SINCLAIR LN                        000N        CARE OF             
MTR09005900001000000000000000RA              8052523     000800150000001500000410000000NN  NNW 000   FIRE SERVICE        N    
RDG09005900WATRL000000006K00000000000000050001712302014120156N000000000000N91       000030600K 10000000010000000050           
CUS0900590000109445131007         ROMAN CATHOLIC ARCHB3701 SINCLAIR LN                        000N        CARE OF             
MTR09005900001000000000000000RA              1199160     000300160000001600000490000000NN  NNW 000                       N    
RDG09005900WATRL000000005K00000000000000000001812302014120158S005000000000U91       000020500K 10000000010000005181           
CUS0900590000109258209007         DEPT. OF EDUCATION  3880 SINCLAIR LN                        000N        CARE OF             
MTR09005900001000000000000000RA              9103170     000300170000001700000640000000NN  NNW 000                       N    
RDG09005900WATRL000000005K00000000000015936001912302014120221N000300000010N91       000230500K 10000000010000015693           
CUS0900590000109444004007         ORCHARD RIDGE RENTAL4200-06 FRIAR FIELD RUN                 000N        CARE OF             
MTR09005900001000000000000000RA              01117269    000200180000001800000610000003NN  NNW 000                       N    
RDG09005900WATRL000000005K00000000000001295002012302014120225N000000000000N91       000040500K 10000000010000001239           
CUS0900590000109444005004         ORCHARD RIDGE       4200-06 FRIAR FIELD RUN                 000N        CARE OF             
MTR09005900001000000000000000RA              8052272     000400190000001900000410000003NN  NNW 000   FIRE SERVICE        N    
RDG09005900WATRL000000006K00000000000000000002112302014120228N000000000000N91       000030600K 10000000010000000000           
CUS0900590000109443995007         ORCHARD RIDGE RENTAL4208-16 FRIAR FIELD RUN                 000N        CARE OF             
MTR09005900001000000000000000RA              01117288    000200200000002000000610000003NN  NNW 000                       N    
RDG09005900WATRL000000005K00000000000003522002212302014120232N000000000000N91       000040500K 10000000010000003395           
CUS0900590000109443996005         ORCHARD RIDGE       4208-16 FRIAR FIELD RUN                 000N        CARE OF             
MTR09005900001000000000000000RA              8051997     000400210000002100000410000003NN  NNW 000   FIRE SERVICE        N    
RDG09005900WATRL000000006K00000000000000000002312302014120235N000000000000N91       000030600K 10000000010000000000           
CUS0900590000109444001003         ORCHARD RIDGE       3915-23 ARBOR VIEW                      000N        CARE OF             
MTR09005900001000000000000000RA              99999999    000400220000002200000440000003NN  NNW 000   FIRE SERVICE        N    
RDG09005900WATRL000000006K00000000000000000002412302014120238N000000000000N91       000030600K 10000000010000000000           
CUS0900590000109443998001         ORCHARD RIDGE RENTAL3915-23 ARBOR VIEW                      000N        CARE OF             
MTR09005900001000000000000000RA              99999999    000200230000002300000440000003NN  NNW 000                       N    
RDG09005900WATRL000000005K00000000000002463002512302014120243N000300000010N91       000050500K 10000000010000002221           
CUS0900590000109228274008         U. S. POSTAL SERVICE4200 SHANNON DR                         000N        CARE OF             
MTR09005900001000000000000000RA              00066822    001500240000002400000570000003NN  NNW 000                       N    
RDG09005900WATRL000000005K00000000000001555002612302014120247N000000000000N91       000040500K 10000000010000001528           
CUS0900590000109349267006         SV5, LLC            4211 SHANNON DR                         000N        CARE OF             
MTR09005900001000000000000000RA              9012797     000300250000002500000640000003NN  NNW 000                       N    
RDG09005900WATRL000000005K00000000000000158002712302014120253N000000000010N91       000060500K 10000000010000000155           
CUS0900590000109349266008         SV5, LLC            4211 SHANNON DR                         000N        CARE OF             
MTR09005900001000000000000000RA              5976804     001000260000002600000410000003NN  NNW 000   FIRE SERVICE        N    
RDG09005900WATRL000000007K00000000000000197002812302014120352N000000000000N91       000590700K 10000000010000000197           
CUS0900590000109258207001         PUBLIC STORAGE CO   4215 SHANNON DR                         000N        CARE OF             
MTR09005900003000000000000000RA              5877067     000600270000002700000480000003NN  NNW 000   FIRE SERVICE        N    
RDG09005900WATAL000000006K00000000000000000002912302014120357S005000000000U91       000050600K 10000000010000000518           
RDG09005900WATBL000000006K00000000000000000003012302014120400S005000000000U91       000030600K 10000000010000000096           
RDG09005900WATCL000000006K00000000000000000003112302014120402S005000000000U91       000020600K 10000000010000000070           
CUS0900590000109258208009         PUBLIC STORAGE CO   4215 SHANNON DR                         000N        CARE OF             
MTR09005900001000000000000000RA              41089079    007500280000002800000520000003NY  NNW 000                       N    
MTM0900590041089079    OK                                                                                                     
RDG09005900WATRL000000004K00000000000004428003212302014120427N000300000010N91       000250400K 10000000010000004458           
CUS0900590000109386249008         SHANNON  BUSINESS CN4206 SHANNON DR                         000N        CARE OF             
MTR09005900001000000000000000RA              35109474    000200290000002900000520000003NN  NNW 000                       N    
RDG09005900WATRL000000005K00000000000026834003312302014120433N000000000000N91       000060500K 10000000010000026823           
CUS0900590000109386248000         SHANNON BUSINESS CNT4206 SHANNON DR                         000N        CARE OF             
MTR09005900001000000000000000RA              E21161      000600300000003000000430000003NN  NNW 000   FIRE SERVICE        N    
RDG09005900WATRL000000006K00000000000000000003412302014120436N000000000000N91       000030600K 10000000010000000000           
CUS0900590000109258204008         VERIZON             4208 SHANNON DR                         000N        CARE OF             
MTR09005900001000000000000000RA              01105506    000200310000003100000610000003NN  NNW 000                       N    
RDG09005900WATRL000000005K00000000000001302003512302014120439N000000000000N91       000030500K 10000000010000001284           
CUS0900590000109394409008         MERRITT-093, LLC    4220 SHANNON DR                         000N        CARE OF             
MTR09005900001000000000000000RA              14914934    001500320000003200000310000003NN  NNW 000                       N    
RDG09005900WATRL000000005K00000000000004737003612302014120443N000000000000N91       000040500K 10000000010000004512           
CUS0900590000109394398003         MERRITT-093, LLC    4220 SHANNON DR                         000N        CARE OF             
MTR09005900002000000000000000RA              5275678     000800330000003300000630000003NY  NNW 000   FIRE SERVICE        N    
MTM090059005275678     OK                                                                                                     
RDG09005900WATAL000000006K00000000000000000003712302014120502N000300000010N91       000190600K 10000000010000000012           
RDG09005900WATBL000000006K00000000000000417003812302014120513N000300000010N91       000110600K 10000000010000000470           
CUS0900590000109258177006         COSTAL CONSTRUCTION 5000-04 MORAVIA RD                      000N        CARE OF             
MTR09005900001000000000000000RA              31588370    000200340000003400000520000003NN  NNW 000                       N    
RDG09005900WATRL000000005K00000000000072735003912302014120516N000000000000N91       000030500K 10000000010000072309           
CUS0900590000109258153007         THE WABAN CORP      4907-15 GUNTHER AVE                     000N        CARE OF             
MTR09005900001000000000000000RA              1327345     000200350000003500000490000003NN  NNW 000                       N    
RDG09005900WATRL000000005K00000000000085139004012302014120605N000000000000N91       000490500K 10000000010000084147           
CUS0900590000109258154005         THE COASTAL CONSTRUC4901-05 GUNTHER AVE                     000N        CARE OF             
MTR09005900001000000000000000RA              30478995    000200360000003600000520000003NN  NNW 000                       N    
RDG09005900WATRL000000005K00000000000058855004112302014120609N000000000000N91       000040500K 10000000010000058557           
CUS0900590000109258156000         COSTAL CONSTRUCTION 4902-06 GUNTHER AVE                     000N        CARE OF             
MTR09005900001000000000000000RA              35101379    000200370000003700000520000003NN  NNW 000                       N    
RDG09005900WATRL000000005K00000000000065074004212302014120613N000000000000N91       000040500K 10000000010000064808           
CUS0900590000109258157008         COSTAL CONSTRUCTION 4908-10 GUNTHER AVE                     000N        CARE OF             
MTR09005900001000000000000000RA              01117203    000200380000003800000610000003NN  NNW 000                       N    
RDG09005900WATRL000000005K00000000000026818004312302014120619N000000000000N91       000060500K 10000000010000026065           
CUS0900590000109258155002         THE COSTAL          4901-09 GOODNOW RD                      000N        CARE OF             
MTR09005900001000000000000000RA              1304874     000200390000003900000490000003NN  NNW 000                       N    
RDG09005900WATRL000000005K00000000000088623004412302014120623N000000000000N91       000040500K 10000000010000087813           
CUS0900590000109258158006         COSTAL CONSTRUCTION 4916-18 GUNTHER AVE                     000N        CARE OF             
MTR09005900001000000000000000RA              30509384    001500400000004000000520000003NN  NNW 000                       N    
RDG09005900WATRL000000005K00000000000056069004512302014120628N000000000000N91       000050500K 10000000010000055798           
CUS0900590000109258164004         COSTAL CONSTRUCTION 4900-04 GOODNOW RD                      000N        CARE OF             
MTR09005900001000000000000000RA              01105755    000200410000004100000610000003NN  NNW 000                       N    
RDG09005900WATRL000000005K00000000000021427004612302014120632N000000000000N91       000040500K 10000000010000020798           
CUS0900590000109258165001         COSTAL CONSTRUCTION 4906-10 GOODNOW RD                      000N        CARE OF             
MTR09005900001000000000000000RA              01117201    000200420000004200000610000003NN  NNW 000                       N    
RDG09005900WATRL000000005K00000000000015583004712302014120636N000000000000N91       000040500K 10000000010000015289           
CUS0900590000109258159004         THE COSTAL          4911-19 GOODNOW RD                      000N        CARE OF             
MTR09005900001000000000000000RA              26567489    000200430000004300000520000003NN  NNW 000                       N    
RDG09005900WATRL000000005K00000000000045303004812302014120640N000000000000N91       000040500K 10000000010000044587           
CUS0900590000109258160002         THE COSTAL          4921-29 GOODNOW RD                      000N        CARE OF             
MTR09005900001000000000000000RA              35112659    000200440000004400000520000003NN  NNW 000                       N    
RDG09005900WATRL000000005K00000000000042921004912302014120644N000000000000N91       000040500K 10000000010000042184           
CUS0900590000109258168005         THE COASTAL CONSTR C5007-11 GOODNOW RD                      000N        CARE OF             
MTR09005900001000000000000000RA              29372240    000200450000004500000520000003NN  NNW 000                       N    
RDG09005900WATRL000000005K00000000000017149005012302014120649N000000000000N91       000050500K 10000000010000016965           
CUS0900590000109258166009         COSTAL CONSTRUCTION 5000-04 GOODNOW RD                      000N        CARE OF             
MTR09005900001000000000000000RA              1178568     000200460000004600000490000003NN  NNW 000                       N    
RDG09005900WATRL000000005K00000000000020333005112302014120652N000000000000N91       000030500K 10000000010000019685           
CUS0900590000109258167007         COSTAL CONSTRUCTION 5018-22 GOODNOW RD                      000N        CARE OF             
MTR09005900001000000000000000RA              33084158    000200470000004700000520000003NN  NNW 000                       N    
RDG09005900WATRL000000005K00000000000071406005212302014120656N000000000000N91       000040500K 10000000010000071082           
CUS0900590000109258169003         THE COSTAL CONSTR. C5013-17 GOODNOW RD                      000N        CARE OF             
MTR09005900001000000000000000RA              33084157    000200480000004800000520000003NN  NNW 000                       N    
RDG09005900WATRL000000005K00000000000060984005312302014120700N000000000000N91       000040500K 10000000010000060682           
CUS0900590000109258170001         THE COSTAL CONSTR. C5101-05 GOODNOW RD                      000N        CARE OF             
MTR09005900001000000000000000RA              90000076    000200490000004900000570000003NN  NNW 000                       N    
RDG09005900WATRL000000005K00000000000009119005412302014120710N000000000000N91       000100500K 10000000010000008660           
CUS0900590000109258171009         THE COSTAL CONSTR. C5107-11 GOODNOW RD                      000N        CARE OF             
MTR09005900001000000000000000RA              01105776    000200500000005000000610000003NN  NNW 000                       N    
RDG09005900WATRL000000005K00000000000021956005512302014120714N000000000000N91       000040500K 10000000010000021417           
CUS0900590000109258172007         THE COSTAL CONSTR. C5201-05 GOODNOW RD                      000N        CARE OF             
MTR09005900001000000000000000RA              31058501    000200510000005100000520000003NN  NNW 000                       N    
RDG09005900WATRL000000005K00000000000080031005612302014120717N000000000000N91       000030500K 10000000010000079757           
CUS0900590000109258173005         THE COSTAL CONSTR. C5207-11 GOODNOW RD                      000N        CARE OF             
MTR09005900001000000000000000RA              27876641    000200520000005200000520000003NN  NNW 000                       N    
RDG09005900WATRL000000005K00000000000025186005712302014120721N000000000000N91       000040500K 10000000010000024901           
CUS0900590000109258163006         HOLLY LANE APARTMENT4900-14 CRENSHAW AVE                    000N        CARE OF             
MTR09005900001000000000000000RA              1376074     000400530000005300000490000003NN  NNW 000                       N    
RDG09005900WATRL000000006K00000000000014131005812302014120728N000000000000N91       000070600K 10000000010000002686           
CUS0900590000109258162008         HOLLY LANE ASSOCIATE5012-16 GOODNOW RD                      000N        CARE OF             
MTR09005900001000000000000000RA              33084160    000200540000005400000520000003NN  NNW 000                       N    
RDG09005900WATRL000000005K00000000000072664005912302014120732N000000000000N91       000040500K 10000000010000072073           
CUS0900590000109258161000         COSTAL CONSTRUCTION 5006-10 GOODNOW RD                      000N        CARE OF             
MTR09005900001000000000000000RA              33084148    000200550000005500000520000003NN  NNW 000                       N    
RDG09005900WATRL000000005K00000000000074074006012302014120737N000000000000N91       000050500K 10000000010000073569           
CUS0900590000109258151001         DEPT OF EDUCATION   4633 FURLEY AVE                         000N        CARE OF             
MTR09005900001000000000000000RA              9208153     000400560000005600000640000003NY  NNW 000                       N    
MTM090059009208153     OK                                                                                                     
RDG09005900WATRL000000006K00000000000021389006112302014120847N000300000010N91       000700600K 10000000010000021632           
CUS0900590000109258152009         MAINT. & OPERATION  4799 GUNTHER AVE                        000N        CARE OF             
MTR09005900002000000000000000RA              4108363     000600570000005700000630000003NN  NNW 000                       N    
RDG09005900WATAL000000006K00000000000000000006212302014120856N000000000000N91       000090600K 10000000010000000000           
RDG09005900WATBL000000006K00000000000000183006312302014120903N000400000010N91       000070600K 10000000010000000000           
CUS0900590000109258175000         THE PROVINCETOWN COR5201-05 MORAVIA RD                      000N        CARE OF             
MTR09005900001000000000000000RA              01105697    000200580000005800000610000003NN  NNW 000                       N    
RDG09005900WATRL000000005K00000000000018320006412302014120907N000000000000N91       000040500K 10000000010000017871           
CUS0900590000109258176008         THE COSTAL CONSTR. C5207-11 MORAVIA RD                      000N        CARE OF             
MTR09005900001000000000000000RA              29066899    000200590000005900000520000003NN  NNW 000                       N    
RDG09005900WATRL000000005K00000000000074925006512302014120910N000000000000N91       000030500K 10000000010000074395           
CUS0900590000109258174003         THE COSTAL CO       5301-05 MORAVIA RD                      000N        CARE OF             
MTR09005900001000000000000000RA              30479024    000200600000006000000520000003NN  NNW 000                       N    
RDG09005900WATRL000000005K00000000000039035006612302014120915N000000000000N91       000050500K 10000000010000038752           
CUS0900590000109258178004         THE WELSH CONSTR. CO4900 SINCLAIR LN                        000N        CARE OF             
MTR09005900001000000000000000RA              01117090    000200610000006100000610000003NN  NNW 000                       N    
RDG09005900WATRL000000005K00000000000028566006712302014120917N000000000000N91       000020500K 10000000010000028088           
CUS0900590000109258179002         THE COSTAL CO       5306-10 EASTBURY AVE                    000N        CARE OF             
MTR09005900001000000000000000RA              01105883    000200620000006200000610000003NN  NNW 000                       N    
RDG09005900WATRL000000005K00000000000025598006812302014120920N000000000000N91       000030500K 10000000010000024950           
CUS0900590000109258183004         THE COSTAL CO       5205-07 EASTBURY AVE                    000N        CARE OF             
MTR09005900001000000000000000RA              01105927    000200630000006300000610000003NN  NNW 000                       N    
RDG09005900WATRL000000005K00000000000015022006912302014120925N000000000000N91       000050500K 10000000010000014760           
CUS0900590000109258180000         THE COSTAL CO       5300-04 EASTBURY AVE                    000N        CARE OF             
MTR09005900001000000000000000RA              01117088    000200640000006400000610000003NN  NNW 000                       N    
RDG09005900WATRL000000005K00000000000023833007012302014120927N000000000000N91       000020500K 10000000010000023467           
CUS0900590000109258182006         THE COSTAL CO       5201-03 EASTBURY AVE                    000N        CARE OF             
MTR09005900001000000000000000RA              01117089    000200650000006500000610000003NN  NNW 000                       N    
RDG09005900WATRL000000005K00000000000018310007112302014120937N000000000000N91       000100500K 10000000010000018018           
CUS0900590000109258181008         THE COSTAL CONSTR. C5200-02 EASTBURY AVE                    000N        CARE OF             
MTR09005900001000000000000000RA              01105785    000200660000006600000610000003NN  NNW 000                       N    
RDG09005900WATRL000000005K00000000000015704007212302014120941N000000000000N91       000040500K 10000000010000015442           
CUS0900590000109258184002         THE WELSH CONSTR. CO4800 SINCLAIR LN                        000N        CARE OF             
MTR09005900001000000000000000RA              01105108    001500670000006700000610000000NN  NNW 000                       N    
RDG09005900WATRL000000005K00000000000016111007312302014120944N000000000000N91       000030500K 10000000010000015762           
CUS0900590000109258185009         THE COSTAL CO       5300-02 BOWLEYS LN                      000N        CARE OF             
MTR09005900001000000000000000RA              35116804    000200680000006800000520000003NN  NNW 000                       N    
RDG09005900WATRL000000005K00000000000040635007412302014120948N000000000000N91       000040500K 10000000010000040360           
CUS0900590000109258186007         THE COSTAL CO       5208-12 BOWLEYS LN                      000N        CARE OF             
MTR09005900001000000000000000RA              01105891    000200690000006900000610000003NN  NNW 000                       N    
RDG09005900WATRL000000005K00000000000021582007512302014120952N000000000000N91       000040500K 10000000010000021058           
CUS0900590000109422068008         COOPERATIVE SERVICES5200 BOWLEYS LN                         000N        CARE OF             
MTR09005900001000000000000000RA              8036183     000800700000007000000380000003NN  NNW 000   FIRE SERVICE        N    
RDG09005900WATRL000000006K00000000000000008007612302014120958N000000000000N91       000060600K 10000000010000000008           
CUS0900590000109422070004         COOPERATIVE SERVICES5200 BOWLEYS LN                         000N        CARE OF             
MTR09005900001000000000000000RA              77859861    000300710000007100000000000003NN  NNW 000                       N    
RDG09005900WATRL000000005K00000000000001534007712302014121009N000400000010N91       000110500K 10000000010000001159           
CUS0900590000109258187005         THE COSTAL CO       5214-18 BOWLEYS LN                      000N        CARE OF             
MTR09005900001000000000000000RA              01105890    000200720000007200000610000003NN  NNW 000                       N    
RDG09005900WATRL000000005K00000000000020468007812302014121016N000000000000N91       000070500K 10000000010000020072           
CUS0900590000109258188003         MOST PRECIOUS BLOOD 5010 BOWLEYS LN                         000N        CARE OF             
MTR09005900001000000000000000RA              35116780    001500730000007300000520000003NN  NNW 000                       N    
RDG09005900WATRL000000005K00000000000010231007912302014121020N000000000000N91       000040500K 10000000010000010158           
CUS0900590000109446692007         BEATRICE PROPERTIES 4623 BOWLEYS LN                         000N        CARE OF             
MTR09005900001000000000000000RA              90000350    000200740000007400000570000000NN  NNW 000                       N    
RDG09005900WATRL000000005K00000000000017790008012302014121027N000400000010N91       000070500K 10000000010000016997           
CUS0900590000109258189001         BOWLEY-MANNASOTA    4410 BOWLEYS LN                         000N        CARE OF             
MTR09005900001000000000000000RA              1414398     000300750000007500000490000003NN  NNW 000                       N    
RDG09005900WATRL000000005K00000000000029118008112302014121045N000000000000N91       000180500K 10000000010000027821           
CUS0900590000109258190009         REGIONAL MANAGEMENT 5000-04 CONANT WAY                      000N        CARE OF             
MTR09005900001000000000000000RA              29768505    000200760000007600000520000003NN  NNW 000                       N    
RDG09005900WATRL000000005K00000000000046555008212302014121053N000000000000N91       000080500K 10000000010000046245           
CUS0900590000109258191007         MASTERPLAN INC      5001-05 RAINTREE WAY                    000N        CARE OF             
MTR09005900001000000000000000RA              1327073     000200770000007700000490000003NN  NNW 000                       N    
RDG09005900WATRL000000005K00000000000011593008312302014121059N000000000000N91       000060500K 10000000010000011185           
CUS0900590000109258192005         MASTERPLAN INC      5000-04 RAINTREE WAY                    000N        CARE OF             
MTR09005900001000000000000000RA              1236824     000200780000007800000490000003NN  NNW 000                       N    
RDG09005900WATRL000000005K00000000000017801008412302014121102N000000000000N91       000030500K 10000000010000017313           
CUS0900590000109258193003         MASTERPLAN INC      5100-04 RAINTREE WAY                    000N        CARE OF             
MTR09005900001000000000000000RA              01116978    000200790000007900000610000003NN  NNW 000                       N    
RDG09005900WATRL000000005K00000000000020028008512302014121106N000000000000N91       000040500K 10000000010000019522           
CUS0900590000109258194001         MASTERPLAN INC      5100-04 CONANT WAY                      000N        CARE OF             
MTR09005900001000000000000000RA              1304867     000200800000008000000490000003NN  NNW 000                       N    
RDG09005900WATRL000000005K00000000000055067008612302014121109N000000000000N91       000030500K 10000000010000054574           
CUS0900590000109258195008         THE YARMOUTH CORP   5101-05 CONANT WAY                      000N        CARE OF             
MTR09005900001000000000000000RA              1304866     000200810000008100000490000003NN  NNW 000                       N    
RDG09005900WATRL000000005K00000000000052442008712302014121118N000000000000N91       000090500K 10000000010000052063           
CUS0900590000109258196006         MASTERPLAN INC      5100-04 LODESTONE WAY                   000N        CARE OF             
MTR09005900001000000000000000RA              1414250     000200820000008200000490000003NN  NNW 000                       N    
RDG09005900WATRL000000005K00000000000033404008812302014121121N000000000000N91       000030500K 10000000010000033052           
CUS0900590000109258197004         MASTERPLAN INC      5101-05 LODESTONE WAY                   000N        CARE OF             
MTR09005900001000000000000000RA              26492475    000200830000008300000520000003NN  NNW 000                       N    
RDG09005900WATRL000000005K00000000000046566008912302014121124N000000000000N91       000030500K 10000000010000046224           
CUS0900590000109258198002         MASTERPLAN INC      4700-02 HALDANE RD                      000N        CARE OF             
MTR09005900001000000000000000RA              01104937    001500840000008400000610000003NN  NNW 000                       N    
RDG09005900WATRL000000005K00000000000011918009012302014121128N000000000000N91       000040500K 10000000010000011577           
CUS0900590000109258199000         MASTERPLAN INC      4701-03 PARKSIDE GDN DR                 000N        CARE OF             
MTR09005900001000000000000000RA              01105382    001500850000008500000610000003NN  NNW 000                       N    
RDG09005900WATRL000000005K00000000000012937009112302014121134N000000000000N91       000060500K 10000000010000012523           
CUS0900590000109258200006         MASTERPLAN INC      5001-05 LODESTONE WAY                   000N        CARE OF             
MTR09005900001000000000000000RA              28152110    000200860000008600000520000003NN  NNW 000                       N    
RDG09005900WATRL000000005K00000000000052282009212302014121138N000000000000N91       000040500K 10000000010000051991           
CUS0900590000109258201004         MASTERPLAN INC      5000-04 LODESTONE WAY                   000N        CARE OF             
MTR09005900001000000000000000RA              01117284    000200870000008700000610000003NN  NNW 000                       N    
RDG09005900WATRL000000005K00000000000011587009312302014121145N000000000000N91       000070500K 10000000010000011153           
CUS0900590000109258202002         MASTERPLAN INC      5001-05 CONANT WAY                      000N        CARE OF             
MTR09005900001000000000000000RA              01105809    000200880000008800000610000003NN  NNW 000                       N    
RDG09005900WATRL000000005K00000000000023852009412302014121149N000000000000N91       000040500K 10000000010000023145           
RTR09005900NN00980098000000980000000000880088000014NY008800880098000400040000000000000000000001    12152014NY020000 N         
RHD04220000NN02540254000002540000000002540254000036NY025402540254000700050000000000000000000001    12022014NY020000 N         
CUS0422000000104179499001         GOLDEN, KRISTINA MER1024 E LAKE AVE                         000N        CARE OF             
MTR04220000001000000000000000RA              29686858    005800010000000100000520000003NN  NNW 000                       N    
RDG04220000WATRL000000004K00000000000002428000101052015112632N000000000000N40       000000400K 10000000010000002417           
CUS0422000000104179500006         EDWARD W REESE      1022 E LAKE AVE                         000N        CARE OF             
MTR04220000001000000000000000RA              29686855    005800020000000200000520000003NN  NNW 000                       N    
RDG04220000WATRL000000004K00000000000001667000201052015112635N000000000000N40       000030400K 10000000010000001663           
CUS0422000000104179501004         GORMLEY, PATRICK T. 1020 E LAKE AVE                         000N        CARE OF             
MTR04220000001000000000000000RA              74690300    005800030000000300000350000003NN  NNW 000                       N    
RDG04220000WATRL000000004K00000000000000188000301052015112638N000000000000N40       000030400K 10000000010000000167           
CUS0422000000104179502002         VINCENT ROBINSON    1018 E LAKE AVE                         000N        CARE OF             
MTR04220000001000000000000000RA              01095137    005800040000000400000610000003NN  NNW 000                       N    
RDG04220000WATRL000000004K00000000000000188000401052015112644N000000000010N40       000060400K 10000000010000000661           
CUS0422000000104179503000         CEDARCROFT COMMUNITY1017 CEDARCROFT RD                      000N        CARE OF             
MTR04220000001000000000000000RA              48583089    005800050000000500000520000003NN  NNW 000                       N    
RDG04220000WATRL000000004K00000000000000662000501052015112650N000300000010N40       000060400K 10000000010000002099           
CUS0422000000104179504008         PLYMOUTH HOMES, INC.1019 CEDARCROFT RD                      000N        CARE OF             
MTR04220000001000000000000000RA              24226777    005800060000000600000520000003NN  NNW 000                       N    
RDG04220000WATRL000000004K00000000000002112000601052015112656N000300000010N40       000060400K 10000000010000005541           
CUS0422000000104179505005         CHELLIS, HELEN  (TR)1021 CEDARCROFT RD                      000N        CARE OF             
MTR04220000001000000000000000RA              24767058    005800070000000700000520000003NN  NNW 000                       N    
RDG04220000WATRL000000004K00000000000005553000701052015112705N000300000010N40       000090400K 10000000010000004723           
CUS0422000000104179506003         SCHAEFER, EDWARD F  1023 CEDARCROFT RD                      000N        CARE OF             
MTR04220000001000000000000000RA              24766488    005800080000000800000520000003NN  NNW 000                       N    
RDG04220000WATRL000000004K00000000000004740000801052015112713N000300000010N40       000080400K 10000000010000004395           
CUS0422000000104179507001         FRAZIER, RHONDA     6189 NORTHWOOD DR                       000N        CARE OF             
MTR04220000001000000000000000RA              30515604    005800090000000900000520000003NN  NNW 000                       N    
RDG04220000WATRL000000004K00000000000005040000901052015113128N000000000000N40       002550400K 10000000010000005040           
CUS0422000000104179508009         HOORY, ROBIN        6191 NORTHWOOD DR                       000N        CARE OF             
MTR04220000001000000000000000RA              14921574    005800100000001000000310000003NN  NNW 000                       N    
RDG04220000WATRL000000004K00000000000000760001001052015113135N000000000000N40       000070400K 10000000010000000715           
CUS0422000000104179509007         CEDAR HILL, LLC     901 WOODSON RD                          000N        CARE OF             
MTR04220000001000000000000000RA              31058678    001500110000001100000520000003NN  NNW 000                       N    
RDG04220000WATRL000000005K00000000000000000000000000000000000 000000000000U         000000500  10000000010000048707           
CUS0422000000104179510005         SCHADT, KAREN P.    1001 WOODSON RD                         000N        CARE OF             
MTR04220000001000000000000000RA              29686922    005800120000001200000520000003NN  NNW 000                       N    
RDG04220000WATRL000000004K00000000000003082001101052015113240N000000000000N40       000650400K 10000000010000003060           
CUS0422000000104179511003         EBER, JONATHAN R    1003 WOODSON RD                         000N        CARE OF             
MTR04220000001000000000000000RA              29686925    005800130000001300000520000003NN  NNW 000                       N    
RDG04220000WATRL000000004K00000000000003487001201052015113318N000300000031N40       000240400K 10000000010000003465           
CUS0422000000104179512001         SELVYN, PAUL        1005 WOODSON RD                         000N        CARE OF             
MTR04220000001000000000000000RA              25781156    005800140000001400000520000003NN  NNW 000                       N    
RDG04220000WATRL000000004K00000000000002914001301052015113322N000000000000N40       000040400K 10000000010000002910           
CUS0422000000104179513009         ALTISOURCE SINGLE FA1007 WOODSON RD                         000N        CARE OF             
MTR04220000001000000000000000RA              29686923    005800150000001500000520000003NN  NNW 000                       N    
RDG04220000WATRL000000004K00000000000002589001401052015113326N000000000000N40       000040400K 10000000010000002589           
CUS0422000000104179514007         CHELLIS, HELEN  (TR)1009 WOODSON RD                         000N        CARE OF             
MTR04220000001000000000000000RA              10007780    005800160000001600000570000003NN  NNW 000                       N    
RDG04220000WATRL000000004K00000000000000740001501052015113330N000000000000N40       000040400K 10000000010000000721           
CUS0422000000104179515004         CHELLIS, HELEN  (TR)1011 WOODSON RD                         000N        CARE OF             
MTR04220000001000000000000000RA              75615744    005800170000001700000350000003NN  NNW 000                       N    
RDG04220000WATRL000000004K00000000000000227001601052015113337N000000000000N40       000070400K 10000000010000000208           
CUS0422000000104179516002         CHELLIS, HELEN  (TR)1013 WOODSON RD                         000N        CARE OF             
MTR04220000001000000000000000RA              29686966    005800180000001800000520000003NN  NNW 000                       N    
RDG04220000WATRL000000004K00000000000004385001701052015113341N000000000000N40       000040400K 10000000010000004373           
CUS0422000000104179517000         CHELLIS, HELEN  (TR)1015 WOODSON RD                         000N        CARE OF             
MTR04220000001000000000000000RA              29686964    005800190000001900000520000003NN  NNW 000                       N    
RDG04220000WATRL000000004K00000000000005984001801052015113345N000000000000N40       000040400K 10000000010000005957           
CUS0422000000104179518008         CHELLIS, HELEN  (TR)1017 WOODSON RD                         000N        CARE OF             
MTR04220000001000000000000000RA              29686509    005800200000002000000520000003NN  NNW 000                       N    
RDG04220000WATRL000000004K00000000000006893001901052015113352N000000000000N40       000070400K 10000000010000006867           
CUS0422000000104179519006         CHELLIS, HELEN  (TR)1019 WOODSON RD                         000N        CARE OF             
MTR04220000001000000000000000RA              10018654    005800210000002100000570000003NN  NNW 000                       N    
RDG04220000WATRL000000004K00000000000000488002001052015113355N000000000000N40       000030400K 10000000010000000479           
CUS0422000000104179520004         DR NICOLAS LASYCZUK 6192 NORTHWOOD DR                       000N        CARE OF             
MTR04220000001000000000000000RA              29685579    005800220000002200000520000003NN  NNW 000                       N    
RDG04220000WATRL000000004K00000000000001988002101052015113358N000000000000N40       000030400K 10000000010000001979           
CUS0422000000104179521002         CHEN, QING          6190 NORTHWOOD DR                       000N        CARE OF             
MTR04220000001000000000000000RA              39289235    005800230000002300000520000003NN  NNW 000                       N    
RDG04220000WATRL000000004K00000000000003951002201052015113402N000000000000N40       000040400K 10000000010000003917           
CUS0422000000104179522000         CHEN, QING          1014 CEDARCROFT RD                      000N        CARE OF             
MTR04220000001000000000000000RA              74687943    005800240000002400000350000003NN  NNW 000                       N    
RDG04220000WATRL000000004K00000000000000314002301052015113406N000000000000N40       000040400K 10000000010000000285           
CUS0422000000104179523008         SECK, ABDOULAYE     1012 CEDARCROFT RD                      000N        CARE OF             
MTR04220000001000000000000000RA              29684220    005800250000002500000520000003NN  NNW 000                       N    
RDG04220000WATRL000000004K00000000000006275002401052015113410N000000000000N40       000040400K 10000000010000006247           
CUS0422000000104179524006         CARSON, CASSANDRA   1010 CEDARCROFT RD                      000N        CARE OF             
MTR04220000001000000000000000RA              29685210    005800260000002600000520000003NN  NNW 000                       N    
RDG04220000WATRL000000004K00000000000003984002501052015113418N000300000010N40       000080400K 10000000010000003924           
CUS0422000000104179525003         ODUMODU, OBINNA O   1008 CEDARCROFT RD                      000N        CARE OF             
MTR04220000001000000000000000RA              29685160    005800270000002700000520000003NN  NNW 000                       N    
RDG04220000WATRL000000004K00000000000003782002601052015113440N000000000000N40       000220400K 10000000010000003775           
CUS0422000000104179526001         BAKER, RICHARD A.   1006 CEDARCROFT RD                      000N        CARE OF             
MTR04220000001000000000000000RA              29684223    005800280000002800000520000003NN  NNW 000                       N    
RDG04220000WATRL000000004K00000000000003676002701052015113446N000000000000N40       000060400K 10000000010000003662           
CUS0422000000104179527009         YOUNGCOURT, DANIEL  1004 CEDARCROFT RD                      000N        CARE OF             
MTR04220000001000000000000000RA              29684224    005800290000002900000520000003NN  NNW 000                       N    
RDG04220000WATRL000000004K00000000000000000002800000000000000 000000000000U         000000400  10000000010000002719           
CUS0422000000104179529005         AUERBACK, JESSICA   909 CEDARCROFT RD                       000N        CARE OF             
MTR04220000001000000000000000RA              32902910    005800300000003000000520000003NN  NNW 000                       N    
RDG04220000WATRL000000004K00000000000000000002901052015113620S002000000000N40       000660400K 10000000010000002136           
CUS0422000000104179530003         KYLE, CHARLES E.    911 CEDARCROFT RD                       000N        CARE OF             
MTR04220000001000000000000000RA              41257242    005800310000003100000520000003NN  NNW 000                       N    
RDG04220000WATRL000000004K00000000000000000003001052015113624S002000000000N40       000040400K 10000000010000003136           
CUS0422000000104179531001         HAMMEL, JOHN M      1005 CEDARCROFT RD                      000N        CARE OF             
MTR04220000001000000000000000RA              14909178    005800320000003200000310000003NN  NNW 000                       N    
RDG04220000WATRL000000004K00000000000000000000000000000000000 000000000000U         000000400  10000000010000000587           
CUS0422000000104179532009         HAMMEL, JOHN M      1007 CEDARCROFT RD                      000N        CARE OF             
MTR04220000001000000000000000RA              76346200    005800330000003300000350000003NN  NNW 000                       N    
RDG04220000WATRL000000004K00000000000000000000000000000000000 000000000000U         000000400  10000000010000000043           
CUS0422000000104179533007         CHELLIS, HELEN (TR) 1009 CEDARCROFT RD                      000N        CARE OF             
MTR04220000001000000000000000RA              10013862    005800340000003400000570000003NN  NNW 000                       N    
RDG04220000WATRL000000004K00000000000000781003101052015113648N000000000000N40       000240400K 10000000010000000740           
CUS0422000000104179534005         DIGENNARO, AUGUST   1011 CEDARCROFT RD                      000N        CARE OF             
MTR04220000001000000000000000RA              22862339    005800350000003500000520000003NN  NNW 000                       N    
RDG04220000WATRL000000004K00000000000004600003201052015113651N000000000000N40       000030400K 10000000010000004589           
CUS0422000000104179535002         CHELLIS, HELEN M. (T1013 CEDARCROFT RD                      000N        CARE OF             
MTR04220000001000000000000000RA              10014044    005800360000003600000570000003NN  NNW 000                       N    
RDG04220000WATRL000000004K00000000000000463003301052015113655N000000000000N40       000040400K 10000000010000000434           
CUS0422000000104179536000         CHELLIS, HELEN M.   1015 CEDARCROFT RD                      000N        CARE OF             
MTR04220000001000000000000000RA              20767981    005800370000003700000520000003NN  NNW 000                       N    
RDG04220000WATRL000000004K00000000000004464003401052015113702N000400000010N40       000070400K 10000000010000004444           
CUS0422000000104179537008         PERRY, DALLAS ETIENN6104 NORTHWOOD DR                       000N        CARE OF             
MTR04220000001000000000000000RA              26004327    005800380000003800000520000003NN  NNW 000                       N    
RDG04220000WATRL000000004K00000000000002992003501052015113705N000000000000N40       000030400K 10000000010000002982           
CUS0422000000104179538006         SWIVEL JOHN T       6102 NORTHWOOD DR                       000N        CARE OF             
MTR04220000001000000000000000RA              01093430    005800390000003900000610000003NN  NNW 000                       N    
RDG04220000WATRL000000004K00000000000000540003601052015113708N000000000000N40       000030400K 10000000010000000529           
