FHDNNNN039007215007215007230N                                                                                           021838
RHD08453000NN02840284000002840000000002840284000205NY028402840284000000020000000000000000000002    12182014NY020000 N         
CUS0845300000108246891009         RITTER, TRAVIS      603 SCOTT ST                            000N        CARE OF             
MTR08453000001000000000000000RA              10014957    005800010000000100000570000003NN  NNW 000                       N    
RDG08453000WATRL000000004K00000000000000465000212292014124652N000100000010N84       003120400K 10000000010000000465           
CUS0845300000108364433006         HELENA SMITH-BURY   607 SCOTT ST                            000N        CARE OF             
MTR08453000001000000000000000RA              30526000    007500020000000200000520000003NN  NNW 000                       N    
RDG08453000WATRL000000004K00000000000001481000312292014124704N000000000000N84       000120400K 10000000010000001477           
CUS0845300000108364434004         BRAME, RICHARD JEREM609 SCOTT ST                            000N        CARE OF             
MTR08453000001000000000000000RA              30526002    007500030000000300000520000003NN  NNW 000                       N    
RDG08453000WATRL000000004K00000000000002320000412292014124707N000000000000N84       000030400K 10000000010000002313           
CUS0845300000108247697009         HEGAZI, ABRAHAM     611 SCOTT ST                            000N        CARE OF             
MTR08453000001000000000000000RA              14928144    007500040000000400000310000003NN  NNW 000                       N    
RDG08453000WATRL000000004K00000000000000415000512292014124735N000000000000N84       000280400K 10000000010000000412           
CUS0845300000108247698007         LEOPOLD INVESTMENTS,797 CARROLL ST                          000N        CARE OF             
MTR08453000001000000000000000RA              35105708    007500050000000500000520000003NN  NNW 000                       N    
RDG08453000WATRL000000004K00000000000004335000612292014124810N000000000020N84       000350400K 10000000010000004303           
CUS0845300000108384584002         HAMMETT, DORIS      793 CARROLL ST                          000N        CARE OF             
MTR08453000001000000000000000RA              40322640    005800060000000600000520000000NY  NNW 000                       N    
MTM0845300040322640    no vault                                                                                               
RDG08453000WATRL000000004K00000000000000000012612302014113550S018000000000U84       000210400K 10000000010000000517           
CUS0845300000108247699005         HABC/R4             791 CARROLL ST                          000N        CARE OF             
MTR08453000001000000000000000RA              99412177    007500070000000700000570000003NN  NNW 000                       N    
RDG08453000WATRL000000004K00000000000001059000712292014124838N000000000000N84       000280400K 10000000010000001042           
CUS0845300000108247700001         HOUSING AUTHORITY   789 CARROLL ST                          000N        CARE OF             
MTR08453000001000000000000000RA              41089734    007500080000000800000520000003NN  NNW 000                       N    
RDG08453000WATRL000000004K00000000000001849000812292014124847N000000000000N84       000090400K 10000000010000001842           
CUS0845300000108247701009         HABC/R4             787 CARROLL ST                          000N        CARE OF             
MTR08453000001000000000000000RA              00118157    007500090000000900000570000003NN  NNW 000                       N    
RDG08453000WATRL000000004K00000000000001685000912292014124858N000000000000N84       000110400K 10000000010000001655           
CUS0845300000108248113006         WILSON, RICHARD     785 CARROLL ST                          000N        CARE OF             
MTR08453000001000000000000000RA              01081394    005800100000001000000610000000NN  NNW 000                       N    
RDG08453000WATRL000000004K00000000000000319001012292014124919N000000000000N84       000210400K 10000000010000000313           
CUS0845300000108248114004         MUGWAGWA, HAZVINEI  783 CARROLL ST                          000N        CARE OF             
MTR08453000001000000000000000RA              45376679    005800110000001100000520000000NN  NNW 000                       N    
RDG08453000WATRL000000004K00000000000001739001112292014124927N000000000000N84       000080400K 10000000010000001736           
CUS0845300000108248115001         HOLMES, CHARLES N   781 CARROLL ST                          000N        CARE OF             
MTR08453000001000000000000000RA              48584663    005800120000001200000520000000NN  NNW 000                       N    
RDG08453000WATRL000000004K00000000000000534001212292014124954N000000000000N84       000270400K 10000000010000000531           
CUS0845300000108247702007         RAMAKRISHNAN GURUVAR779 CARROLL ST                          000N        CARE OF             
MTR08453000001000000000000000RA              41258313    005800130000001300000520000003NN  NNW 000                       N    
RDG08453000WATRL000000004K00000000000002178001312292014125007N000000000000N84       000130400K 10000000010000002171           
CUS0845300000108248117007         AIDOO, BIBA         775 CARROLL ST                          000N        CARE OF             
MTR08453000001000000000000000RA              54351386    005800140000001400000520000000NN  NNW 000   VACANT PROPERTY     N    
RDG08453000WATRL000000004K00000000000000276001412292014125010N000000000000N84       000030400K 10000000010000000276           
CUS0845300000108248119003         BRIDGET RICHARDSON  771 CARROLL ST                          000N        CARE OF             
MTR08453000001000000000000000RA              44002415    005800150000001500000520000003NN  NNW 000                       N    
RDG08453000WATRL000000004K00000000000001320001512292014125026N000000000000N84       000160400K 10000000010000001302           
CUS0845300000108248120001         COLE JR., BRADFORD D769 CARROLL ST                          000N        CARE OF             
MTR08453000001000000000000000RA              52290459    005800160000001600000520000000NN  NNW 000                       N    
RDG08453000WATRL000000004K00000000000001113001612292014125047N000000000000N84       000210400K 10000000010000001103           
CUS0845300000108248121009         FLOYD, SARAH A      767 CARROLL ST                          000N        CARE OF             
MTR08453000001000000000000000RA              10018550    005800170000001700000570000003NN  NNW 000                       N    
RDG08453000WATRL000000004K00000000000000156001712292014125056N000000000000N84       000090400K 10000000010000000144           
CUS0845300000108369404002         DEMPSEY, TONIA D.   765 CARROLL ST                          000N        CARE OF             
MTR08453000001000000000000000RA              01092882    005800180000001800000610000003NN  NNW 000                       N    
RDG08453000WATRL000000004K00000000000000471001812292014125117N000000000000N84       000210400K 10000000010000000460           
CUS0845300000108248122007         WORKING MAN DEVELOPM763 CARROLL ST                          000N        CARE OF             
MTR08453000001000000000000000RA              45375665    005800190000001900000520000000NN  NNW 000                       N    
RDG08453000WATRL000000004K00000000000000492001912292014125133N000000000000N84       000160400K 10000000010000000490           
CUS0845300000108248123005         ALLYSON BEAR        761 CARROLL ST                          000N        CARE OF             
MTR08453000001000000000000000RA              45377313    005800200000002000000520000003NN  NNW 000                       N    
RDG08453000WATRL000000004K00000000000001064002012292014125148N000000000000N84       000150400K 10000000010000001061           
CUS0845300000108248124003         HORAK, CHRISTOPHER C759 CARROLL ST                          000N        CARE OF             
MTR08453000001000000000000000RA              10018666    005800210000002100000570000003NN  NNW 000                       N    
RDG08453000WATRL000000004K00000000000000096002112292014125202N000000000000N84       000140400K 10000000010000000084           
CUS0845300000108248127006         WARFIELD ASSOCIATES 753 CARROLL ST                          000N        CARE OF             
MTR08453000001000000000000000RA              46878837    005800220000002200000520000000NN  NNW 000                       N    
RDG08453000WATRL000000004K00000000000002069002212292014125219N000000000000N84       000170400K 10000000010000002057           
CUS0845300000108248130000         GRIMM, WILLIS       747 CARROLL ST                          000N        CARE OF             
MTR08453000001000000000000000RA              41075939    005800230000002300000520000000NN  NNW 000   VACANT PROPERTY     N    
RDG08453000WATRL000000004K00000000000000757002312292014125222N000000000000N84       000030400K 10000000010000000757           
CUS0845300000108247736005         WALTER M WILLSON & W737 CARROLL ST                          000N        CARE OF             
MTR08453000001000000000000000RA              46890868    007500240000002400000520000003NN  NNW 000                       N    
RDG08453000WATRL000000004K00000000000004705003912292014130138N000000000000N84       000440400K 10000000010000004643           
CUS0845300000108247837001         WALTER M WILLSON    735 CARROLL ST                          000N        CARE OF             
MTR08453000001000000000000000RA              14914496    005800250000002500000310000003NN  NNW 000                       N    
RDG08453000WATRL000000004K00000000000000078002712302014103844N000000000000U84       000470400K 10000000010000000078           
CUS0845300000108374825001         WILLSON SR., WALTER 733 CARROLL ST                          000N        CARE OF             
MTR08453000001000000000000000RA              46883647    005800260000002600000520000000NN  NNW 000                       N    
RDG08453000WATRL000000004K00000000000001496002812302014103902N000000000000U84       000180400K 10000000010000001487           
CUS0845300000108382226002         C N FARRAH ANTHONY  731 CARROLL ST                          000N        CARE OF             
MTR08453000001000000000000000RA              46879765    005800270000002700000520000003NN  NNW 000                       N    
RDG08453000WATRL000000004K00000000000001303002912302014103910N000000000000U84       000080400K 10000000010000001283           
CUS0845300000108380676000         SAWYER, ANTON K     729 CARROLL ST                          000N        CARE OF             
MTR08453000001000000000000000RA              14914490    005800280000002800000310000003NN  NNW 000                       N    
RDG08453000WATRL000000004K00000000000000437003012302014103926N000000000000U84       000160400K 10000000010000000431           
CUS0845300000108375937003         PRESBURY, VENES     727 CARROLL ST                          000N        CARE OF             
MTR08453000001000000000000000RA              14914497    005800290000002900000310000003NN  NNW 000                       N    
RDG08453000WATRL000000004K00000000000000227003112302014103944N000000000000U84       000180400K 10000000010000000224           
CUS0845300000108380677008         BEST, OTIS LEE      723 CARROLL ST                          000N        CARE OF             
MTR08453000001000000000000000RA              50787875    005800300000003000000520000003NN  NNW 000                       N    
RDG08453000WATRL000000004K00000000000000379003312302014104021N000000000000U84       000150400K 10000000010000000379           
CUS0845300000108384582006         KRANITZ, GENNA      721 CARROLL ST                          000N        CARE OF             
MTR08453000001000000000000000RA              14914560    005800310000003100000310000003NN  NNW 000                       N    
RDG08453000WATRL000000004K00000000000000424003412302014104039N000000000010U84       000180400K 10000000010000000418           
CUS0845300000108384583004         FELIPE BERNATE      719 CARROLL ST                          000N        CARE OF             
MTR08453000001000000000000000RA              48587790    005800320000003200000520000003NN  NNW 000                       N    
RDG08453000WATRL000000004K00000000000001478003512302014104047N000000000000U84       000080400K 10000000010000001465           
CUS0845300000108385861003         MARC & SHERRY BURFOR717 CARROLL ST                          000N        CARE OF             
MTR08453000001000000000000000RA              24764104    005800330000003300000520000003NN  NNW 000                       N    
RDG08453000WATRL000000004K00000000000002533003612302014104059N000000000010U84       000120400K 10000000010000002522           
CUS0845300000108247836003         TENGELLA, KOLI      715 CARROLL ST                          000N        CARE OF             
MTR08453000001000000000000000RA              54351222    005800340000003400000520000000NN  NNW 000                       N    
RDG08453000WATRL000000004K00000000000000558003712302014104113N000000000000U84       000140400K 10000000010000000550           
CUS0845300000108247835005         EARL B GROSS        713 CARROLL ST                          000N        CARE OF             
MTR08453000001000000000000000RA              14914494    005800350000003500000310000003NN  NNW 000                       N    
RDG08453000WATRL000000004K00000000000000420003812302014104129N000000000000U84       000160400K 10000000010000000416           
CUS0845300000108248100003         AIDOO, BIBA         754 CARROLL ST                          000N        CARE OF             
MTR08453000001000000000000000RA              50788224    005800360000003600000520000000NN  NNW 000                       N    
RDG08453000WATRL000000004K00000000000000349004112292014130355N000000000000N84       000370400K 10000000010000000340           
CUS0845300000108248101001         WEATHERBEE, SHERONDA756 CARROLL ST                          000N        CARE OF             
MTR08453000001000000000000000RA              46886711    005800370000003700000520000000NN  NNW 000                       N    
RDG08453000WATRL000000004K00000000000000916004212292014130414N000000000000N84       000190400K 10000000010000000903           
CUS0845300000108248103007         ALEXANDER, VALERIE A760 CARROLL ST                          000N        CARE OF             
MTR08453000001000000000000000RA              50476976    005800380000003800000520000003NN  NNW 000                       N    
RDG08453000WATRL000000004K00000000000000866004312292014130436N000000000000N84       000220400K 10000000010000000858           
CUS0845300000108247703005         BROWN, LILLIE A.    762 CARROLL ST                          000N        CARE OF             
MTR08453000001000000000000000RA              50476974    005800390000003900000520000003NN  NNW 000                       N    
RDG08453000WATRL000000004K00000000000003519004412292014130451N000000000000N84       000150400K 10000000010000003474           
CUS0845300000108248105002         LIDDLE, KEITH       766 CARROLL ST                          000N        CARE OF             
MTR08453000001000000000000000RA              10018925    005800400000004000000570000003NN  NNW 000                       N    
RDG08453000WATRL000000004K00000000000000138004512292014130509N000000000000N84       000180400K 10000000010000000130           
CUS0845300000108247704003         HABC/R4             774 CARROLL ST                          000N        CARE OF             
MTR08453000001000000000000000RA              28765534    007500410000004100000520000003NN  NNW 000                       N    
RDG08453000WATRL000000004K00000000000003736004712292014130600N000000000000N84       000150400K 10000000010000003730           
CUS0845300000108248111000         STOKES, ADIA Y      776 CARROLL ST                          000N        CARE OF             
MTR08453000001000000000000000RA              46885824    005800420000004200000520000000NN  NNW 000                       N    
RDG08453000WATRL000000004K00000000000001027004612292014130545N000000000000N84       000360400K 10000000010000001016           
CUS0845300000108397158000         SKG LLC.            780 CARROLL ST                          000N        CARE OF             
MTR08453000001000000000000000RA              41075643    005800430000004300000520000003NN  NNW 000                       N    
RDG08453000WATRL000000004K00000000000001085005312292014130844N000100000010N84       000580400K 10000000010000001085           
CUS0845300000108246930005         COX, SOLANGE        850 CARROLL ST                          000N        CARE OF             
MTR08453000001000000000000000RA              14920550    005800440000004400000310000000NN  NNW 000                       N    
RDG08453000WATRL000000004K00000000000000210000112292014124140N000000000000N84       000000400K 10000000010000000207           
CUS0845300000108247705000         HOUSING AUTHORITY   517 OTTERBEIN ST                        000N        CARE OF             
MTR08453000001000000000000000RA              31345852    007500450000004500000520000003NN  NNW 000                       N    
RDG08453000WATRL000000004K00000000000002680004912292014130640N000000000000N84       000210400K 10000000010000002668           
CUS0845300000108247706008         HOUSING AUTHORITY   515 OTTERBEIN ST                        000N        CARE OF             
MTR08453000001000000000000000RA              31345823    007500460000004600000520000003NN  NNW 000                       N    
RDG08453000WATRL000000004K00000000000000387005012292014130649N000000000000N84       000090400K 10000000010000000371           
CUS0845300000108345520004         ENGLISH, JOSEPH K.  511 OTTERBEIN ST                        000N        CARE OF             
MTR08453000001000000000000000RA              54352037    005800470000004700000520000000NN  NNW 000                       N    
RDG08453000WATRL000000004K00000000000001612005112292014130746N000000000011N84       000260400K 10000000010000001608           
CUS0845300000108384581008         PORTER, CARSON      507 OTTERBEIN ST                        000N        CARE OF             
MTR08453000001000000000000000RA              46888028    005800480000004800000520000003NN  NNW 000                       N    
RDG08453000WATRL000000004K00000000000001069005212292014130720N000000000000N84       000190400K 10000000010000001056           
CUS0845300000108386170008         AVON M ALLISON      516 OTTERBEIN ST                        000N        CARE OF             
MTR08453000001000000000000000RA              54350272    005800490000004900000520000000NN  NNW 000                       N    
RDG08453000WATRL000000004K00000000000000821004812292014130619N000000000000N84       000190400K 10000000010000000807           
CUS0845300000108384736008         SOLID ROCK GOSPEL PE527 SCOTT ST                            000N        CARE OF             
MTR08453000001000000000000000RA              74687620    005800500000005000000350000003NN  NNW 000                       N    
RDG08453000WATRL000000004K00000000000000465005412292014130912N000300000010N84       000280400K 10000000010000000419           
CUS0845300000108247707006         FLEMING, SEAN PATRIC525 SCOTT ST                            000N        CARE OF             
MTR08453000001000000000000000RA              31345062    007500510000005100000520000003NN  NNW 000   VACANT PROPERTY     N    
RDG08453000WATRL000000004K00000000000004388005512292014130915N000000000000N84       000030400K 10000000010000004388           
CUS0845300000108247708004         THOMAS, SANDRA A    523 SCOTT ST                            000N        CARE OF             
MTR08453000001000000000000000RA              43904605    007500520000005200000520000003NN  NNW 000                       N    
RDG08453000WATRL000000004K00000000000001162000912302014103139N000000000000U84       000570400K 10000000010000001154           
CUS0845300000108247709002         SCOTT, ERIC         519 SCOTT ST                            000N        CARE OF             
MTR08453000001000000000000000RA              44030953    007500530000005300000520000003NN  NNW 000                       N    
RDG08453000WATRL000000004K00000000000002418000812302014103042N000000000000U84       000430400K 10000000010000002380           
CUS0845300000108247710000         HICKORY INVESTMENTS,517 SCOTT ST                            000N        CARE OF             
MTR08453000001000000000000000RA              10007307    005800540000005400000570000003NN  NNW 000                       N    
RDG08453000WATRL000000004K00000000000001220000612302014102926N000400000010U84       000180400K 10000000010000001215           
CUS0845300000108367979005         DAVIS, SANDRA       515 SCOTT ST                            000N        CARE OF             
MTR08453000001000000000000000RA              30524321    005800550000005500000520000003NN  NNW 000                       N    
RDG08453000WATRL000000004K00000000000002182000512302014102908N000000000010U84       000270400K 10000000010000002173           
CUS0845300000108246893005         GARRETT GRADY PROPER513 SCOTT ST                            000N        CARE OF             
MTR08453000001000000000000000RA              36697361    005800560000005600000520000000NN  NNW 000                       N    
RDG08453000WATRL000000004K00000000000002275000312302014102834N000000000000U84       000210400K 10000000010000002266           
CUS0845300000108246894003         MY GREAT RENTALS. LL511 SCOTT ST                            000N        CARE OF             
MTR08453000001000000000000000RA              35115862    005800570000005700000520000003NN  NNW 000                       N    
RDG08453000WATRL000000004K00000000000001425000412302014102841N000000000000U84       000070400K 10000000010000001406           
CUS0845300000108246895000         MPM PROPERTIES, LLC 509 SCOTT ST                            000N        CARE OF             
MTR08453000001000000000000000RA              01081390    005800580000005800000610000000NN  NNW 000                       N    
RDG08453000WATRL000000004K00000000000000466000212302014102813N000000000000U84       000460400K 10000000010000000462           
CUS0845300000108247711008         SHOCHAT, JONATHAN   783 WASHINGTON BLVD                     000N        CARE OF             
MTR08453000001000000000000000RA              52768564    005800590000005900000520000003NN  NNW 000                       N    
RDG08453000WATRL000000004K00000000000000260000712302014102959N000000000010U84       000330400K 10000000010000000256           
CUS0845300000108379001004         STADIUM PROPERTIES, 789-93 WASHINGTON BLVD                  000N        CARE OF             
MTR08453000001000000000000000RA              14914803    001500600000006000000310000003NN  NNW 000                       N    
RDG08453000WATRL000000005K00000000000002067000112302014102727N000000000000U84       000000500K 10000000010000002022           
CUS0845300000108247713004         SHOGHAT, JONATHAN   785 WASHINGTON BLVD                     000N        CARE OF             
MTR08453000001000000000000000RA              45379081    005800610000006100000520000003NN  NNW 000                       N    
RDG08453000WATRL000000004K00000000000002473001012302014103312N000400000010U84       000930400K 10000000010000002468           
CUS0845300000108247714002         SHOCHAT, JONATHAN   781 WASHINGTON BLVD                     000N        CARE OF             
MTR08453000001000000000000000RA              52292301    005800620000006200000520000003NN  NNW 000                       N    
RDG08453000WATRL000000004K00000000000000931001112302014103328N000000000000U84       000160400K 10000000010000000931           
CUS0845300000108247715009         SHOCHAT, JONATHAN   777 WASHINGTON BLVD                     000N        CARE OF             
MTR08453000001000000000000000RA              27065975    007500630000006300000520000003NN  NNW 000   VACANT PROPERTY     N    
RDG08453000WATRL000000004K00000000000000501001212302014103334N000000000000U84       000060400K 10000000010000000501           
CUS0845300000108247716007         SHOCHAT, JONATHAN   775 WASHINGTON BLVD                     000N        CARE OF             
MTR08453000001000000000000000RA              99291857    005800640000006400000570000003NN  NNW 000                       N    
RDG08453000WATRL000000004K00000000000000736001312302014103350N000000000000U84       000160400K 10000000010000000725           
CUS0845300000108247717005         SHOCHAT, JONATHAN   773 WASHINGTON BLVD                     000N        CARE OF             
MTR08453000001000000000000000RA              00119422    007500650000006500000570000003NN  NNW 000   VACANT PROPERTY     N    
RDG08453000WATRL000000004K00000000000000014001412302014103352N000000000000U84       000020400K 10000000010000000014           
CUS0845300000108247718003         119 SCOTT STREET, LL771 WASHINGTON BLVD                     000N        CARE OF             
MTR08453000001000000000000000RA              01095539    005800660000006600000610000003NN  NNW 000                       N    
RDG08453000WATRL000000004K00000000000002607001512302014103409N000400000010U84       000170400K 10000000010000002591           
CUS0845300000108247719001         769 WASHINGTON BLVD,769 WASHINGTON BLVD                     000N        CARE OF             
MTR08453000001000000000000000RA              74815159    007500670000006700000350000003NN  NNW 000                       N    
RDG08453000WATRL000000004K00000000000000056001612302014103422N000000000000U84       000130400K 10000000010000000049           
CUS0845300000108247720009         BALTIC GOLD LLC     767 WASHINGTON BLVD                     000N        CARE OF             
MTR08453000001000000000000000RA              99080496    007500680000006800000570000003NN  NNW 000                       N    
RDG08453000WATRL000000004K00000000000001037001712302014103435N000000000000U84       000130400K 10000000010000001027           
CUS0845300000108247722005         BALTIC GOLD LLC     763 WASHINGTON BLVD                     000N        CARE OF             
MTR08453000001000000000000000RA              30002289    007500690000006900000570000003NN  NNW 000   INVALID DAC         N    
RDG08453000WATRL000000004K00000000000000049001812302014103456N000000000000U84       000210400K 10000000010000000045           
CUS0845300000108247724001         DAVID M SILBIGER, ES759 WASHINGTON BLVD                     000N        CARE OF             
MTR08453000001000000000000000RA              99080372    007500700000007000000570000003NN  NNW 000                       N    
RDG08453000WATRL000000004K00000000000002525001912302014103551N000300000030U84       000550400K 10000000010000002269           
CUS0845300000108247725008         CHOI, KWANG DUK     757 WASHINGTON BLVD                     000N        CARE OF             
MTR08453000001000000000000000RA              2025128     007500710000007100000320000003NN  NNW 000   VACANT PROPERTY     N    
RDG08453000WATRL000000004K00000000000000199002012302014103600N000000000000U84       000090400K 10000000010000000199           
CUS0845300000108247726006         LEE, ALBERT         923-25 W BARRE ST                       000N        CARE OF             
MTR08453000001000000000000000RA              46890848    007500720000007200000520000003NN  NNW 000                       N    
RDG08453000WATRL000000004K00000000000000131002112302014103628N000000000000U84       000280400K 10000000010000000131           
CUS0845300000108247728002         SMITH, MARC J.      913-15 W BARRE ST                       000N        CARE OF             
MTR08453000001000000000000000RA              46890482    007500730000007300000520000000NN  NNW 000                       N    
RDG08453000WATRL000000004K00000000000000688002212302014103700N000000000010U84       000320400K 10000000010000000685           
CUS0845300000108248095005         WILLIAM ROBERTSON   911 W BARRE ST                          000N        CARE OF             
MTR08453000001000000000000000RA              46889919    007500740000007400000520000000NN  NNW 000                       N    
RDG08453000WATRL000000004K00000000000001245002312302014103714N000000000000U84       000140400K 10000000010000001231           
CUS0845300000108248096003         THOMPSON CLAXTON, GR909 W BARRE ST                          000N        CARE OF             
MTR08453000001000000000000000RA              14922484    005800750000007500000310000000NN  NNW 000                       N    
RDG08453000WATRL000000004K00000000000000423002412302014103733N000000000001U84       000050400K 10000000010000000418           
CUS0845300000108248097001         THOMPSON-CLAXTON, GR907 W BARRE ST                          000N        CARE OF             
MTR08453000001000000000000000RA              45376683    005800760000007600000520000000NN  NNW 000                       N    
RDG08453000WATRL000000004K00000000000002157002512302014103744N000000000000U84       000110400K 10000000010000002137           
CUS0845300000108248098009         PRICE, LOUISE       905 W BARRE ST                          000N        CARE OF             
MTR08453000001000000000000000RA              10018091    005800770000007700000570000003NN  NNW 000                       N    
RDG08453000WATRL000000004K00000000000000086002612302014103757N000000000000U84       000130400K 10000000010000000081           
CUS0845300000108247729000         A & O OLUMIDE       901 W BARRE ST                          000N        CARE OF             
MTR08453000001000000000000000RA              10009230    005800780000007800000570000003NN  NNW 000                       N    
RDG08453000WATRL000000004K00000000000000340004012292014130318N000000000000N84       001000400K 10000000010000000283           
CUS0845300000108384967009         STEWART, WELDON A.  902 S PACA ST                           000N        CARE OF             
MTR08453000001000000000000000RA              42810019    005800790000007900000520000003NN  NNW 000                       N    
RDG08453000WATRL000000004K00000000000002303005612302014104818N000000000000U84       000220400K 10000000010000002286           
CUS0845300000108384161009         JACKSON, VENUS L.   908 S PACA ST                           000N        CARE OF             
MTR08453000001000000000000000RA              01081428    005800800000008000000610000003NN  NNW 000                       N    
RDG08453000WATRL000000004K00000000000000745005712302014104855N000000000000U84       000370400K 10000000010000000735           
CUS0845300000108384162007         O'BRIEN, PATRICK    910 S PACA ST                           000N        CARE OF             
MTR08453000001000000000000000RA              01081398    005800810000008100000610000003NN  NNW 000                       N    
RDG08453000WATRL000000004K00000000000000519005812302014104912N000400000010U84       000170400K 10000000010000000513           
CUS0845300000108384163005         MILLER, BRIAN J.    912 S PACA ST                           000N        CARE OF             
MTR08453000001000000000000000RA              45383364    005800820000008200000520000003NN  NNW 000                       N    
RDG08453000WATRL000000004K00000000000000842005912302014104922N000000000000U84       000100400K 10000000010000000831           
CUS0845300000108247739009         SPECK, RANDY        914 S PACA ST                           000N        CARE OF             
MTR08453000001000000000000000RA              45383367    005800830000008300000520000003NN  NNW 000                       N    
RDG08453000WATRL000000004K00000000000000944006012302014104929N000000000000U84       000070400K 10000000010000000928           
CUS0845300000108384171008         KEMPSON, ERIC       932 S PACA ST                           000N        CARE OF             
MTR08453000001000000000000000RA              10001594    005800840000008400000570000003NN  NNW 000                       N    
RDG08453000WATRL000000004K00000000000000329006112302014105008N000000000000U84       000390400K 10000000010000000316           
CUS0845300000108382140005         BALL, GRAHAM A.     801 W BARRE ST                          000N        CARE OF             
MTR08453000001000000000000000RA              35097133    005800850000008500000520000003NN  NNW 000                       N    
RDG08453000WATRL000000004K00000000000001512005512302014104756N000000000000U84       000250400K 10000000010000001502           
CUS0845300000108382141003         HOFFMAN, ARNOLD N   803 W BARRE ST                          000N        CARE OF             
MTR08453000001000000000000000RA              35097137    005800860000008600000520000003NN  NNW 000                       N    
RDG08453000WATRL000000004K00000000000001188005312302014104721N000000000010U84       000180400K 10000000010000001184           
CUS0845300000108382142001         ANDERSON, DEBORAH K 805 W BARRE ST                          000N        CARE OF             
MTR08453000001000000000000000RA              35097136    005800870000008700000520000003NN  NNW 000                       N    
RDG08453000WATRL000000004K00000000000001492005412302014104731N000000000010U84       000100400K 10000000010000001491           
CUS0845300000108382228008         JERI L DUNN         805-1/2 W BARRE ST                      000N        CARE OF             
MTR08453000001000000000000000RA              35097134    005800880000008800000520000003NN  NNW 000                       N    
RDG08453000WATRL000000004K00000000000001521005212302014104703N000000000000U84       000090400K 10000000010000001512           
CUS0845300000108384578004         BAKER, LAURA        809 W BARRE ST                          000N        CARE OF             
MTR08453000001000000000000000RA              35104949    005800890000008900000520000003NN  NNW 000                       N    
RDG08453000WATRL000000004K00000000000002013003312292014125821N000000000000N84       000080400K 10000000010000001994           
CUS0845300000108382143009         CANARY, BRYAN       807 W BARRE ST                          000N        CARE OF             
MTR08453000001000000000000000RA              35097135    005800900000009000000520000003NN  NNW 000                       N    
RDG08453000WATRL000000004K00000000000002427005112302014104654N000000000000U84       000410400K 10000000010000002412           
CUS0845300000108385243004         DAVIS, HELEN        811 W BARRE ST                          000N        CARE OF             
MTR08453000001000000000000000RA              35104951    005800910000009100000520000003NN  NNW 000   VACANT PROPERTY     N    
RDG08453000WATRL000000004K00000000000003339003212292014125813N000000000000N84       000320400K 10000000010000003339           
CUS0845300000108346771002         RAJ, LLC            717 WASHINGTON BLVD                     000N        CARE OF             
MTR08453000001000000000000000RA              44091494    005800920000009200000520000003NN  NNW 000                       N    
RDG08453000WATRL000000004K00000000000002022003212302014104006N000000000000U84       000220400K 10000000010000001933           
CUS0845300000108385498004         ROBINSON, ROBERT    810 S PACA ST                           000N        CARE OF             
MTR08453000001000000000000000RA              26009720    005800930000009300000520000000NN  NNW 000                       N    
RDG08453000WATRL000000004K00000000000002232003912302014104229N000000000000U84       000600400K 10000000010000002223           
CUS0845300000108385499002         JOHNSON, CAROLINE V.812 S PACA ST                           000N        CARE OF             
MTR08453000001000000000000000RA              29684074    005800940000009400000520000000NN  NNW 000                       N    
RDG08453000WATRL000000004K00000000000002308004012302014104330N000000000010U84       000610400K 10000000010000002302           
CUS0845300000108385500007         GAYOSO, ERIK        814 S PACA ST                           000N        CARE OF             
MTR08453000001000000000000000RA              24770822    005800950000009500000520000003NN  NNW 000                       N    
RDG08453000WATRL000000004K00000000000002155004112302014104354N000000000000U84       000240400K 10000000010000002155           
CUS0845300000108385501005         IMPERIAL, LORNA Q.  816 S PACA ST                           000N        CARE OF             
MTR08453000001000000000000000RA              29402753    005800960000009600000520000000NN  NNW 000                       N    
RDG08453000WATRL000000004K00000000000002751004212302014104402N000000000000U84       000080400K 10000000010000002738           
CUS0845300000108385502003         SPENCER JR., STEVE P818 S PACA ST                           000N        CARE OF             
MTR08453000001000000000000000RA              45385378    005800970000009700000520000000NN  NNW 000   VACANT PROPERTY     N    
RDG08453000WATRL000000004K00000000000001575004312302014104405N000000000000U84       000030400K 10000000010000001575           
CUS0845300000108385503001         SMITH, ASHLEY N     820 S PACA ST                           000N        CARE OF             
MTR08453000001000000000000000RA              76344700    005800980000009800000350000000NN  NNW 000                       N    
RDG08453000WATRL000000004K00000000000000025004412302014104431N000000000000U84       000260400K 10000000010000000017           
CUS0845300000108385565000         JORDAN, MARK P.     800 W BARRE ST                          000N        CARE OF             
MTR08453000001000000000000000RA              00131732    005800990000009900000570000000NN  NNW 000                       N    
RDG08453000WATRL000000004K00000000000001535004512302014104505N000000000000U84       000340400K 10000000010000001516           
CUS0845300000108385566008         GAYOSO, ELMO M      802 W BARRE ST                          000N        CARE OF             
MTR08453000001000000000000000RA              46890600    007501000000010000000520000000NN  NNW 000                       N    
RDG08453000WATRL000000004K00000000000003079004612302014104508N000000000000U84       000030400K 10000000010000003079           
CUS0845300000108385567006         VENTURA, KAREN M    804 W BARRE ST                          000N        CARE OF             
MTR08453000001000000000000000RA              00131727    005801010000010100000570000003NN  NNW 000                       N    
RDG08453000WATRL000000004K00000000000000811004712302014104540N000000000000U84       000320400K 10000000010000000801           
CUS0845300000108385568004         ALTAYE, ELIZABETH   806 W BARRE ST                          000N        CARE OF             
MTR08453000001000000000000000RA              00131674    005801020000010200000570000003NN  NNW 000                       N    
RDG08453000WATRL000000004K00000000000000481004812302014104549N000000000000U84       000090400K 10000000010000000478           
CUS0845300000108385569002         MORGAN, JAIME M     808 W BARRE ST                          000N        CARE OF             
MTR08453000001000000000000000RA              41257857    005801030000010300000520000000NN  NNW 000                       N    
RDG08453000WATRL000000004K00000000000004314004912302014104603N000000000000U84       000140400K 10000000010000004306           
CUS0845300000108385570000         SHAW, WESLEY A.     808-1/2 W BARRE ST                      000N        CARE OF             
MTR08453000001000000000000000RA              41257871    005801040000010400000520000000NN  NNW 000                       N    
RDG08453000WATRL000000004K00000000000001874005012302014104613N000000000000U84       000100400K 10000000010000001868           
CUS0845300000108368963008         GRAY, ANNIE M.      810 W BARRE ST                          000N        CARE OF             
MTR08453000001000000000000000RA              14922505    005801050000010500000310000003NN  NNW 000                       N    
RDG08453000WATRL000000004K00000000000000741003412292014125956N000000000000N84       000950400K 10000000010000000713           
CUS0845300000108384576008         B & T NUCKOLS       812 W BARRE ST                          000N        CARE OF             
MTR08453000001000000000000000RA              14929111    005801060000010600000310000003NN  NNW 000                       N    
RDG08453000WATRL000000004K00000000000000393003512292014130018N000000000000N84       000220400K 10000000010000000377           
CUS0845300000108247834008         ROBERTS, SALIM K.   816 W BARRE ST                          000N        CARE OF             
MTR08453000001000000000000000RA              44002912    005801070000010700000520000000NN  NNW 000                       N    
RDG08453000WATRL000000004K00000000000001162003612292014130029N000000000000N84       000110400K 10000000010000001157           
CUS0845300000108247833000         BERNIER, ANN        818 W BARRE ST                          000N        CARE OF             
MTR08453000001000000000000000RA              44002933    005801080000010800000520000000NN  NNW 000                       N    
RDG08453000WATRL000000004K00000000000000895003712292014130039N000000000000N84       000100400K 10000000010000000887           
CUS0845300000108247735007         SHAW, SHARYN        820 W BARRE ST                          000N        CARE OF             
MTR08453000001000000000000000RA              01111051    005801090000010900000610000003NN  NNW 000                       N    
RDG08453000WATRL000000004K00000000000000714003812292014130054N000000000000N84       000150400K 10000000010000000704           
CUS0845300000108248133004         ZUPKUSKY, MARLENE   829 W BARRE ST                          000N        CARE OF             
MTR08453000001000000000000000RA              01099156    005801100000011000000610000003NN  NNW 000                       N    
RDG08453000WATRL000000004K00000000000000382002612292014125422N000000000000N84       000290400K 10000000010000000372           
CUS0845300000108410223005         MOORE, RYAN R.      821 W BARRE ST                          000N        CARE OF             
MTR08453000001000000000000000RA              48590044    005801110000011100000520000003NN  NNW 000                       N    
RDG08453000WATRL000000004K00000000000000906002712292014125506N000000000000N84       000440400K 10000000010000000899           
CUS0845300000108364614001         HARE, DAVID F.      819 W BARRE ST                          000N        CARE OF             
MTR08453000001000000000000000RA              14907954    005801120000011200000310000003NY  NNW 000                       N    
MTM0845300014907954    no vault                                                                                               
RDG08453000WATRL000000004K00000000000000000012512302014113529S018000000000U84       000510400K 10000000010000000291           
CUS0845300000108403859005         SHAW, WESLEY A      815 W BARRE ST                          000N        CARE OF             
MTR08453000001000000000000000RA              42808780    005801130000011300000520000003NN  NNW 000                       N    
RDG08453000WATRL000000004K00000000000001905003012292014125721N000000000000N84       000110400K 10000000010000001877           
CUS0845300000108403860003         WILLIAMS, EDWINA D. 817 W BARRE ST                          000N        CARE OF             
MTR08453000001000000000000000RA              42808776    005801140000011400000520000003NN  NNW 000                       N    
RDG08453000WATRL000000004K00000000000001013002912292014125710N000000000000N84       000750400K 10000000010000001006           
CUS0845300000108391263004         BROWN, DENISE       813 W BARRE ST                          000N        CARE OF             
MTR08453000001000000000000000RA              45380930    005801150000011500000520000000NN  NNW 000                       N    
RDG08453000WATRL000000004K00000000000000539003112292014125741N000000000000N84       000200400K 10000000010000000535           
CUS0845300000108247737003         GREATER ST PETER CHU837 W BARRE ST                          000N        CARE OF             
MTR08453000001000000000000000RA              25592086    007501160000011600000520000003NN  NNW 000                       N    
RDG08453000WATRL000000004K00000000000002225002412292014125335N000000000000N84       000730400K 10000000010000002222           
CUS0845300000108247738001         MCELHONEY, JOSEPH   835 W BARRE ST                          000N        CARE OF             
MTR08453000001000000000000000RA              41193071    007501170000011700000520000003NN  NNW 000                       N    
RDG08453000WATRL000000004K00000000000002351002512292014125353N000000000000N84       000180400K 10000000010000002342           
CUS0845300000108423696007         ST JEROMES HEAD STAR915-31 STERRETT ST                      000N        CARE OF             
MTR08453000001000000000000000RA              39267023    000101180000011800000520000003NN  NNW 000                       N    
RDG08453000WATRL000000004K00000000000002075002812292014125555N000000000000N84       000490400K 10000000010000002050           
CUS0845300000108372671001         FEDERAL NATIONAL MOR1001 STERRETT ST                        000N        CARE OF             
MTR08453000001000000000000000RA              31581920    005801190000011900000520000003NN  NNW 000                       N    
RDG08453000WATRL000000004K00000000000001073007212302014105936N000100000010U84       000310400K 10000000010000001073           
CUS0845300000108248215009         CAPITAL DEVELOPMENT 1007 STERRETT ST                        000N        CARE OF             
MTR08453000001000000000000000RA              45384362    005801200000012000000520000000NN  NNW 000                       N    
RDG08453000WATRL000000004K00000000000000924006912302014105737N000000000000U84       000230400K 10000000010000000917           
CUS0845300000108366469008         REID, TANYA         1013 STERRETT ST                        000N        CARE OF             
MTR08453000001000000000000000RA              52768169    005801210000012100000520000000NN  NNW 000                       N    
RDG08453000WATRL000000004K00000000000001501006812302014105714N000000000000U84       000100400K 10000000010000001501           
CUS0845300000108405096002         ASSOCIATED CATHOLIC 761 W HAMBURG ST                        000N        CARE OF             
MTR08453000001000000000000000RA              35101296    001501220000012200000520000003NN  NNW 000                       N    
RDG08453000WATRL000000005K00000000000010852006712302014105704N000000000000U84       000950500K 10000000010000010788           
CUS0845300000108370128004         FRUMAN, DARREN E    755 W HAMBURG ST                        000N        CARE OF             
MTR08453000001000000000000000RA              31581033    005801230000012300000520000003NN  NNW 000                       N    
RDG08453000WATRL000000004K00000000000002568007312302014110023N000100000010U84       000470400K 10000000010000002568           
CUS0845300000108247741005         KIM, DANNY K.       753 W HAMBURG ST                        000N        CARE OF             
MTR08453000001000000000000000RA              46884747    005801240000012400000520000003NN  NNW 000                       N    
RDG08453000WATRL000000004K00000000000001985007412302014110046N000000000000U84       000230400K 10000000010000001972           
CUS0845300000108377981009         PAUL AND B, LLC     751 W HAMBURG ST                        000N        CARE OF             
MTR08453000001000000000000000RA              32903212    005801250000012500000520000003NN  NNW 000   VACANT PROPERTY     N    
RDG08453000WATRL000000004K00000000000003469007512302014110116N000000000000U84       000300400K 10000000010000003469           
CUS0845300000108384579002         BECKER, RICHARD J (T1000 S PACA ST                          000N        CARE OF             
MTR08453000001000000000000000RA              36696629    005801260000012600000520000003NN  NNW 000                       N    
RDG08453000WATRL000000004K00000000000003670007612302014110150N000000000000U84       000340400K 10000000010000003661           
CUS0845300000108380360001         GREEN, DAVID A      1002 S PACA ST                          000N        CARE OF             
MTR08453000001000000000000000RA              33079914    005801270000012700000520000003NN  NNW 000                       N    
RDG08453000WATRL000000004K00000000000001568007712302014110217N000100000010U84       000270400K 10000000010000001568           
CUS0845300000102369356007         PRELLER PROPERTIES, 1004 S PACA ST                          000N        CARE OF             
MTR08453000001000000000000000RA              01081395    005801280000012800000610000003NN  NNW 000                       N    
RDG08453000WATRL000000004K00000000000000540007812302014110226N000000000000U84       000090400K 10000000010000000535           
CUS0845300000108369417004         GRUBERG, RICHARD    1008 S PACA ST                          000N        CARE OF             
MTR08453000001000000000000000RA              01081157    005801290000012900000610000003NN  NNW 000                       N    
RDG08453000WATRL000000004K00000000000000705007912302014110244N000000000000U84       000180400K 10000000010000000674           
CUS0845300000108247778007         DELANEY, DARRYL L.  1010 S PACA ST                          000N        CARE OF             
MTR08453000001000000000000000RA              44086901    005801300000013000000520000003NN  NNW 000                       N    
RDG08453000WATRL000000004K00000000000002826008012302014110303N000000000000U84       000190400K 10000000010000002826           
CUS0845300000108247779005         MARMEN, KYLE M.     1012 S PACA ST                          000N        CARE OF             
MTR08453000001000000000000000RA              44086904    005801310000013100000520000003NN  NNW 000                       N    
RDG08453000WATRL000000004K00000000000000780008112302014110313N000000000000U84       000100400K 10000000010000000776           
CUS0845300000108247780003         BOND, FELICIA L.    1014 S PACA ST                          000N        CARE OF             
MTR08453000001000000000000000RA              44086900    005801320000013200000520000003NN  NNW 000                       N    
RDG08453000WATRL000000004K00000000000001266008212302014110324N000000000000U84       000110400K 10000000010000001263           
CUS0845300000108369418002         FORNEY, CHRISTOPHER 1016 S PACA ST                          000N        CARE OF             
MTR08453000001000000000000000RA              41088717    005801330000013300000520000003NN  NNW 000                       N    
RDG08453000WATRL000000004K00000000000002218008312302014110333N000000000000U84       000090400K 10000000010000002217           
CUS0845300000108247742003         TOYBOX, LLC         1028-50 S PACA ST                       000N        CARE OF             
MTR08453000001000000000000000RA              39267005    000101340000013400000520000003NN  NNW 000                       N    
RDG08453000WATRL000000004K00000000000000852008412302014110504N000400000020U84       000910400K 10000000010000000834           
CUS0845300000108247383006         TRIMMINGHAM, DAVID H1132 CLEVELAND ST                       000N        CARE OF             
MTR08453000001000000000000000RA              54351683    005801350000013500000520000000NN  NNW 000                       N    
RDG08453000WATRL000000004K00000000000000160013812302014120813N000000000000U84       004070400K 10000000010000000156           
CUS0845300000108247386009         BENOR, YOSSI        1138 CLEVELAND ST                       000N        CARE OF             
MTR08453000001000000000000000RA              14915449    005801360000013600000310000003NN  NNW 000                       N    
RDG08453000WATRL000000004K00000000000000643013912302014120834N000000000000U84       000210400K 10000000010000000634           
CUS0845300000108247389003         CALLOW LLC          1144 CLEVELAND ST                       000N        CARE OF             
MTR08453000001000000000000000RA              14928784    005801370000013700000310000003NN  NNW 000                       N    
RDG08453000WATRL000000004K00000000000000287014012302014120852N000000000000U84       000180400K 10000000010000000267           
CUS0845300000108247396008         FELNER, MICHAEL     1158 CLEVELAND ST                       000N        CARE OF             
MTR08453000001000000000000000RA              74690542    005801380000013800000350000003NN  NNW 000                       N    
RDG08453000WATRL000000004K00000000000000096014112302014120920N000000000000U84       000280400K 10000000010000000084           
CUS0845300000108247397006         2312 EAST BIDDLE STR1164 CLEVELAND ST                       000N        CARE OF             
MTR08453000001000000000000000RA              14914513    005801390000013900000310000003NN  NNW 000                       N    
RDG08453000WATRL000000004K00000000000001414014212302014120944N000000000000U84       000240400K 10000000010000001401           
CUS0845300000108247401006         CURRIE, MATHEW S.   1172 CLEVELAND ST                       000N        CARE OF             
MTR08453000001000000000000000RA              14915334    005801400000014000000310000003NN  NNW 000                       N    
RDG08453000WATRL000000004K00000000000000347014312302014121023N000100000010U84       000390400K 10000000010000000347           
CUS0845300000108247402004         KOCH, ELIZABETH     1174 CLEVELAND ST                       000N        CARE OF             
MTR08453000001000000000000000RA              14912731    005801410000014100000310000003NN  NNW 000                       N    
RDG08453000WATRL000000004K00000000000000509014412302014121104N000000000000U84       000410400K 10000000010000000493           
CUS0845300000108247405007         O'TOOLE, PHILIP     1180 CLEVELAND ST                       000N        CARE OF             
MTR08453000001000000000000000RA              14914554    005801420000014200000310000003NN  NNW 000                       N    
RDG08453000WATRL000000004K00000000000000272014512302014121123N000000000000U84       000190400K 10000000010000000266           
CUS0845300000108247406005         KANE, MICHAEL       1182 CLEVELAND ST                       000N        CARE OF             
MTR08453000001000000000000000RA              14914555    005801430000014300000310000003NN  NNW 000                       N    
RDG08453000WATRL000000004K00000000000000368014612302014121150N000000000000U84       000270400K 10000000010000000347           
CUS0845300000108247407003         O'TOOLE, PHILIP C   1185 CLEVELAND ST                       000N        CARE OF             
MTR08453000001000000000000000RA              14915292    005801440000014400000310000003NN  NNW 000                       N    
RDG08453000WATRL000000004K00000000000000464014712302014121230N000000000000U84       000400400K 10000000010000000453           
CUS0845300000108362884002         DUTTON, DENISE K    1181 CLEVELAND ST                       000N        CARE OF             
MTR08453000001000000000000000RA              14928780    005801450000014500000310000000NN  NNW 000                       N    
RDG08453000WATRL000000004K00000000000000093014812302014121249N000000000010U84       000190400K 10000000010000000089           
CUS0845300000108247409009         JONATHAN W SMITH    1179 CLEVELAND ST                       000N        CARE OF             
MTR08453000001000000000000000RA              14915448    005801460000014600000310000003NN  NNW 000                       N    
RDG08453000WATRL000000004K00000000000000140014912302014121300N000000000000U84       000110400K 10000000010000000137           
CUS0845300000108247410007         CLEVERLAND STREET RE1177 CLEVELAND ST                       000N        CARE OF             
MTR08453000001000000000000000RA              14915451    005801470000014700000310000003NN  NNW 000                       N    
RDG08453000WATRL000000004K00000000000000437015012302014121309N000000000000U84       000090400K 10000000010000000422           
CUS0845300000108247411005         LORRAINE WHITNEY    1175 CLEVELAND ST                       000N        CARE OF             
MTR08453000001000000000000000RA              10018962    005801480000014800000570000003NN  NNW 000                       N    
RDG08453000WATRL000000004K00000000000000216016412302014122101N000000000000U84       001150400K 10000000010000000198           
CUS0845300000108247413001         CLEVELAND STREET REA1171 CLEVELAND ST                       000N        CARE OF             
MTR08453000001000000000000000RA              14915273    005801490000014900000310000003NN  NNW 000                       N    
RDG08453000WATRL000000004K00000000000000515015112302014121517N000000000000U84       001280400K 10000000010000000504           
CUS0845300000108247414009         CLARENCE F JOHNSON  1169 CLEVELAND ST                       000N        CARE OF             
MTR08453000001000000000000000RA              14915311    005801500000015000000310000003NN  NNW 000                       N    
RDG08453000WATRL000000004K00000000000000893015212302014121525N000000000000U84       000080400K 10000000010000000876           
CUS0845300000108247415006         PROPERTY INVESTMENT 1167 CLEVELAND ST                       000N        CARE OF             
MTR08453000001000000000000000RA              14915281    005801510000015100000310000003NN  NNW 000                       N    
RDG08453000WATRL000000004K00000000000000575015312302014121535N000000000000U84       000100400K 10000000010000000561           
CUS0845300000108247417002         ALLIANCE RE HOLDINGS1163 CLEVELAND ST                       000N        CARE OF             
MTR08453000001000000000000000RA              14915280    005801520000015200000310000003NN  NNW 000                       N    
RDG08453000WATRL000000004K00000000000000376015412302014121600N000000000000U84       000250400K 10000000010000000366           
CUS0845300000108247418000         WOODINGS PROPERTIES,1161 CLEVELAND ST                       000N        CARE OF             
MTR08453000001000000000000000RA              14915282    005801530000015300000310000003NN  NNW 000   VACANT PROPERTY     N    
RDG08453000WATRL000000004K00000000000000041015512302014121607N000000000000U84       000070400K 10000000010000000041           
CUS0845300000108247419008         URIBE FAMILY LAND TR1159 CLEVELAND ST                       000N        CARE OF             
MTR08453000001000000000000000RA              14915309    005801540000015400000310000003NN  NNW 000                       N    
RDG08453000WATRL000000004K00000000000000967015612302014121644N000000000000U84       000370400K 10000000010000000958           
CUS0845300000108247420006         1157 CLEVELAND STREE1157 CLEVELAND ST                       000N        CARE OF             
MTR08453000001000000000000000RA              14925599    005801550000015500000310000003NN  NNW 000                       N    
RDG08453000WATRL000000004K00000000000000516015712302014121700N000000000000U84       000160400K 10000000010000000510           
CUS0845300000108369101004         CITY LIMITS PROPERTI1155 CLEVELAND ST                       000N        CARE OF             
MTR08453000001000000000000000RA              14915303    005801560000015600000310000003NN  NNW 000                       N    
RDG08453000WATRL000000004K00000000000000600015812302014121710N000000000000U84       000100400K 10000000010000000575           
CUS0845300000108247426003         CHARLES RITCHEY     1141 CLEVELAND ST                       000N        CARE OF             
MTR08453000001000000000000000RA              10011523    005801570000015700000570000003NN  NNW 000                       N    
RDG08453000WATRL000000004K00000000000001080015912302014121737N000000000000U84       000270400K 10000000010000001068           
CUS0845300000108247428009         DONALD NICHOLS      1137 CLEVELAND ST                       000N        CARE OF             
MTR08453000001000000000000000RA              74692235    005801580000015800000350000003NN  NNW 000                       N    
RDG08453000WATRL000000004K00000000000000065016012302014121752N000000000000U84       000150400K 10000000010000000059           
CUS0845300000108247429007         HBC PROPERTIES, LLC 1129 CLEVELAND ST                       000N        CARE OF             
MTR08453000001000000000000000RA              14915337    005801590000015900000310000003NN  NNW 000                       N    
RDG08453000WATRL000000004K00000000000000225016112302014121816N000000000000U84       000240400K 10000000010000000224           
CUS0845300000108247431003         FLACK, HARLEY       1125 CLEVELAND ST                       000N        CARE OF             
MTR08453000001000000000000000RA              14913814    005801600000016000000310000003NN  NNW 000                       N    
RDG08453000WATRL000000004K00000000000000284016212302014121838N000000000000U84       000220400K 10000000010000000278           
CUS0845300000108247433009         SB RESIDENTIAL, LLC 1121 CLEVELAND ST                       000N        CARE OF             
MTR08453000001000000000000000RA              14915304    005801610000016100000310000003NN  NNW 000                       N    
RDG08453000WATRL000000004K00000000000000493016312302014121906N000000000000U84       000280400K 10000000010000000482           
CUS0845300000108247560009         603 PORTLAND LLC    1007 W CROSS ST                         000N        CARE OF             
MTR08453000001000000000000000RA              52292899    007501620000016200000520000003NN  NNW 000                       N    
RDG08453000WATRL000000004K00000000000000644013612302014115949N000000000000U84       003230400K 10000000010000000625           
CUS0845300000108247554002         BALTIMORE VINTAGE PR1039 W CROSS ST                         000N        CARE OF             
MTR08453000001000000000000000RA              10002506    005801630000016300000570000003NN  NNW 000                       N    
RDG08453000WATRL000000004K00000000000000363013712302014120126N000000000010U84       000970400K 10000000010000000340           
CUS0845300000108247611000         BALTIMORE WASHINGTON1026-28 W CROSS ST                      000N        CARE OF             
MTR08453000001000000000000000RA              77987740    005801640000016400000350000003NN  NNW 000                       N    
RDG08453000WATRL000000004K00000000000000000012412302014113438N000000000000U84       006680400K 10000000010000000000           
CUS0845300000108247743001         PLEASANT ROCK BAPTIS783 W CROSS ST                          000N        CARE OF             
MTR08453000001000000000000000RA              48589202    005801650000016500000520000003NN  NNW 000                       N    
RDG08453000WATRL000000004K00000000000001127009012302014110903N000000000000U84       000520400K 10000000010000001124           
CUS0845300000108247795001         CHARLES  SCARDINA   781 W CROSS ST                          000N        CARE OF             
MTR08453000001000000000000000RA              14914559    005801660000016600000310000003NN  NNW 000                       N    
RDG08453000WATRL000000004K00000000000000499009112302014110920N000000000000U84       000170400K 10000000010000000488           
CUS0845300000108247799003         GENERATION MORTGAGE 773 W CROSS ST                          000N        CARE OF             
MTR08453000001000000000000000RA              14914557    005801670000016700000310000003NN  NNW 000                       N    
RDG08453000WATRL000000004K00000000000000666009212302014110958N000100000010U84       000380400K 10000000010000000666           
CUS0845300000108247744009         ROSENFELD, MARY Y   771 W CROSS ST                          000N        CARE OF             
MTR08453000001000000000000000RA              36688559    005801680000016800000520000003NN  NNW 000                       N    
RDG08453000WATRL000000004K00000000000001080009312302014111009N000000000000U84       000110400K 10000000010000001062           
CUS0845300000108247801007         NEELY, MARGARET C.  767 W CROSS ST                          000N        CARE OF             
MTR08453000001000000000000000RA              40047143    005801690000016900000520000000NN  NNW 000                       N    
RDG08453000WATRL000000004K00000000000002621009412302014111051N000000000000U84       000420400K 10000000010000002618           
CUS0845300000108350453000         DAVIS, KEITH T      765 W CROSS ST                          000N        CARE OF             
MTR08453000001000000000000000RA              27817059    005801700000017000000520000003NN  NNW 000                       N    
RDG08453000WATRL000000004K00000000000003166009512302014111105N000000000000U84       000140400K 10000000010000003147           
CUS0845300000108247819009         HARRY ROSSBACH JR.  759 W CROSS ST                          000N        CARE OF             
MTR08453000001000000000000000RA              14914512    005801710000017100000310000003NN  NNW 000                       N    
RDG08453000WATRL000000004K00000000000000447010612302014111616N000000000000U84       000800400K 10000000010000000410           
CUS0845300000108247820007         MARCO & CLAUDIA GERA755 W CROSS ST                          000N        CARE OF             
MTR08453000001000000000000000RA              14914511    005801720000017200000310000003NN  NNW 000                       N    
RDG08453000WATRL000000004K00000000000000443010712302014111654N000000000000U84       000380400K 10000000010000000436           
CUS0845300000108247823001         GIBSON, LEANNE      749 W CROSS ST                          000N        CARE OF             
MTR08453000001000000000000000RA              14914505    005801730000017300000310000003NN  NNW 000                       N    
RDG08453000WATRL000000004K00000000000000122011112302014111800N000000000000U84       000250400K 10000000010000000110           
CUS0845300000108247824009         747 WEST CROSS STREE747 W CROSS ST                          000N        CARE OF             
MTR08453000001000000000000000RA              14915107    005801740000017400000310000003NN  NNW 000                       N    
RDG08453000WATRL000000004K00000000000000363011212302014111810N000000000010U84       000100400K 10000000010000000360           
CUS0845300000108247825006         OGUNKOYA, JIMMY B   745 W CROSS ST                          000N        CARE OF             
MTR08453000001000000000000000RA              14914493    005801750000017500000310000003NN  NNW 000                       N    
RDG08453000WATRL000000004K00000000000000175011312302014111827N000300000010U84       000170400K 10000000010000000162           
CUS0845300000108248217005         MURPHY, ERIK E      1003 STERRETT ST                        000N        CARE OF             
MTR08453000001000000000000000RA              99286638    005801760000017600000570000003NN  NNW 000                       N    
RDG08453000WATRL000000004K00000000000000905007112302014105905N000000000000U84       000170400K 10000000010000000898           
CUS0845300000108369171007         JENT, JEFF          1011 STERRETT ST                        000N        CARE OF             
MTR08453000001000000000000000RA              99292257    005801770000017700000570000003NN  NNW 000                       N    
RDG08453000WATRL000000004K00000000000001606007012302014105848N000000000000U84       000710400K 10000000010000001596           
CUS0845300000108247746004         DOMBRAUSKY, SARA V. 1108 STERRETT ST                        000N        CARE OF             
MTR08453000001000000000000000RA              14921161    005801780000017800000310000003NN  NNW 000                       N    
RDG08453000WATRL000000004K00000000000000125009612302014111219N000000000000U84       000740400K 10000000010000000116           
CUS0845300000108247747002         SHRAMEK JR, EDWARD A1110 STERRETT ST                        000N        CARE OF             
MTR08453000001000000000000000RA              24222171    005801790000017900000520000003NN  NNW 000                       N    
RDG08453000WATRL000000004K00000000000002791009712302014111232N000100000010U84       000130400K 10000000010000002791           
CUS0845300000108247805008         HEIST, MICHAEL P    1114 STERRETT ST                        000N        CARE OF             
MTR08453000001000000000000000RA              99286635    005801800000018000000570000003NN  NNW 000                       N    
RDG08453000WATRL000000004K00000000000000393009812302014111251N000000000000U84       000190400K 10000000010000000378           
CUS0845300000108247812004         METROPOLITAN PROPERT1127 STERRETT ST                        000N        CARE OF             
MTR08453000001000000000000000RA              45381927    005801810000018100000520000000NN  NNW 000   VACANT PROPERTY     N    
RDG08453000WATRL000000004K00000000000000000009912302014111254N000000000000U84       000030400K 10000000010000000000           
CUS0845300000108247815007         BERGER, SUSAN E     1119 STERRETT ST                        000N        CARE OF             
MTR08453000001000000000000000RA              01093406    005801820000018200000610000003NN  NNW 000                       N    
RDG08453000WATRL000000004K00000000000000315010012302014111309N000000000000U84       000150400K 10000000010000000311           
CUS0845300000108362890009         JACKSON, BAMIDELE O.1117 STERRETT ST                        000N        CARE OF             
MTR08453000001000000000000000RA              01093407    005801830000018300000610000003NN  NNW 000                       N    
RDG08453000WATRL000000004K00000000000000224010112302014111317N000000000000U84       000080400K 10000000010000000219           
CUS0845300000108379838009         ZURBUCH, KEITH      1115 STERRETT ST                        000N        CARE OF             
MTR08453000001000000000000000RA              74690590    005801840000018400000350000003NN  NNW 000                       N    
RDG08453000WATRL000000004K00000000000000076010212302014111336N000000000000U84       000190400K 10000000010000000068           
CUS0845300000108369172005         J & C WEBB          1111 STERRETT ST                        000N        CARE OF             
MTR08453000001000000000000000RA              99189127    005801850000018500000570000003NN  NNW 000                       N    
RDG08453000WATRL000000004K00000000000000482013112302014115036N000400000010U84       002870400K 10000000010000000473           
CUS0845300000108380384001         TOOT LLC            1109 STERRETT ST                        000N        CARE OF             
MTR08453000001000000000000000RA              99186955    005801860000018600000570000003NN  NNW 000                       N    
RDG08453000WATRL000000004K00000000000001029010312302014111413N000100000010U84       000370400K 10000000010000001029           
CUS0845300000108367516005         TOOT LLC            1103 STERRETT ST                        000N        CARE OF             
MTR08453000001000000000000000RA              48591680    005801870000018700000520000000NN  NNW 000                       N    
RDG08453000WATRL000000004K00000000000000510010412302014111440N000000000010U84       000270400K 10000000010000000501           
CUS0845300000108372670003         KALMA, LLC          1101 STERRETT ST                        000N        CARE OF             
MTR08453000001000000000000000RA              31581828    005801880000018800000520000003NN  NNW 000                       N    
RDG08453000WATRL000000004K00000000000001474010512302014111456N000000000000U84       000160400K 10000000010000001430           
CUS0845300000108250946004         ABDUL-GHANI, CHRISTI1131 SARGEANT ST                        000N        CARE OF             
MTR08453000001000000000000000RA              14919049    005801890000018900000310000000NN  NNW 000                       N    
RDG08453000WATRL000000004K00000000000000291016512302014122259N000000000000U84       001180400K 10000000010000000280           
CUS0845300000108247748000         WESTSIDE PROPERTIES 757 W CROSS ST                          000N        CARE OF             
MTR08453000001000000000000000RA              27132659    005801900000019000000520000003NN  NNW 000   VACANT PROPERTY     N    
RDG08453000WATRL000000004K00000000000002662010812302014111705N000000000000U84       000110400K 10000000010000002662           
CUS0845300000108247821005         ANDRE, EMMANUEL     753 W CROSS ST                          000N        CARE OF             
MTR08453000001000000000000000RA              50477756    005801910000019100000520000003NN  NNW 000                       N    
RDG08453000WATRL000000004K00000000000001146010912302014111732N000000000000U84       000270400K 10000000010000001142           
CUS0845300000108247822003         SCHWALENBERG, GREGOR751 W CROSS ST                          000N        CARE OF             
MTR08453000001000000000000000RA              50477752    005801920000019200000520000003NN  NNW 000                       N    
RDG08453000WATRL000000004K00000000000001175011012302014111735N000000000000U84       000030400K 10000000010000001156           
CUS0845300000108369403004         ALLEN, LEROY        743 W CROSS ST                          000N        CARE OF             
MTR08453000001000000000000000RA              01092897    005801930000019300000610000003NN  NNW 000                       N    
RDG08453000WATRL000000004K00000000000000289011412302014111844N000000000000U84       000170400K 10000000010000000274           
CUS0845300000108247749008         ALEXANDER, NAPOLEON 741 W CROSS ST                          000N        CARE OF             
MTR08453000001000000000000000RA              99187113    005801940000019400000570000003NN  NNW 000                       N    
RDG08453000WATRL000000004K00000000000000543011512302014111935N000100000010U84       000510400K 10000000010000000543           
CUS0845300000108247793006         SEITZ, CHARLES M    794 W CROSS ST                          000N        CARE OF             
MTR08453000001000000000000000RA              14912704    005801950000019500000310000000NN  NNW 000                       N    
RDG08453000WATRL000000004K00000000000000002008912302014110811N000000000000U84       000260400K 10000000010000000002           
CUS0845300000108247791000         BALTIMORE VINTAGE PR788 W CROSS ST                          000N        CARE OF             
MTR08453000001000000000000000RA              00121381    007501960000019600000570000003NN  NNW 000                       N    
RDG08453000WATRL000000004K00000000000000449008712302014110743N000000000000U84       000230400K 10000000010000000431           
CUS0845300000108247790002         CARTER, LAVERNE A.  786 W CROSS ST                          000N        CARE OF             
MTR08453000001000000000000000RA              14914487    005801970000019700000310000003NN  NNW 000                       N    
RDG08453000WATRL000000004K00000000000001060008812302014110745N000000000000U84       000020400K 10000000010000001044           
CUS0845300000108247788006         LOMETTA B MILLS     782 W CROSS ST                          000N        CARE OF             
MTR08453000001000000000000000RA              14914491    005801980000019800000310000003NN  NNW 000                       N    
RDG08453000WATRL000000004K00000000000000389008612302014110720N000000000000U84       000520400K 10000000010000000382           
CUS0845300000108247781001         TOY BOX, LLC.       768 W CROSS ST                          000N        CARE OF             
MTR08453000001000000000000000RA              14914507    005801990000019900000310000003NN  NNW 000                       N    
RDG08453000WATRL000000004K00000000000000655008512302014110628N000000000000U84       000840400K 10000000010000000629           
CUS0845300000108247826004         KEVIN MCCOYD        1102 S PACA ST                          000N        CARE OF             
MTR08453000001000000000000000RA              41082811    005802000000020000000520000000NN  NNW 000                       N    
RDG08453000WATRL000000004K00000000000000697011612302014111956N000000000000U84       000210400K 10000000010000000692           
CUS0845300000108247827002         GRIMES, AMBER N     1104 S PACA ST                          000N        CARE OF             
MTR08453000001000000000000000RA              41259800    005802010000020100000520000000NN  NNW 000                       N    
RDG08453000WATRL000000004K00000000000000743011712302014111959N000000000000U84       000030400K 10000000010000000734           
CUS0845300000108366568007         SEEBACH JR., WILLIAM1106 S PACA ST                          000N        CARE OF             
MTR08453000001000000000000000RA              75423420    005802020000020200000350000003NN  NNW 000                       N    
RDG08453000WATRL000000004K00000000000000000011812302014112006N000000000000U84       000070400K 10000000010000000000           
CUS0845300000108247828000         ROBERT M LEAKE SR.  1108 S PACA ST                          000N        CARE OF             
MTR08453000001000000000000000RA              74690033    005802030000020300000350000003NN  NNW 000                       N    
RDG08453000WATRL000000004K00000000000000118011912302014112018N000000000000U84       000120400K 10000000010000000105           
CUS0845300000108366566001         LEAKE, ROBERT       1110 S PACA ST                          000N        CARE OF             
MTR08453000001000000000000000RA              44175536    005802040000020400000520000003NN  NNW 000                       N    
RDG08453000WATRL000000004K00000000000001947013212302014115131N000000000010U84       000550400K 10000000010000001931           
CUS0845300000108247831004         GRAY, DONALD G.     1118 S PACA ST                          000N        CARE OF             
MTR08453000001000000000000000RA              44175532    005802050000020500000520000003NN  NNW 000                       N    
RDG08453000WATRL000000004K00000000000000169013312302014115215N000100000020U84       000440400K 10000000010000000169           
CUS0845300000108384580000         DY, MIGUEL          1120 S PACA ST                          000N        CARE OF             
MTR08453000001000000000000000RA              52290576    005802060000020600000520000003NN  NNW 000                       N    
RDG08453000WATRL000000004K00000000000000860013412302014115306N000000000000U84       000510400K 10000000010000000860           
CUS0845300000108247832002         FISCHER, KARL N     1122 S PACA ST                          000N        CARE OF             
MTR08453000001000000000000000RA              10019254    005802070000020700000570000000NN  NNW 000                       N    
RDG08453000WATRL000000004K00000000000000097013512302014115426N000000000000U84       000800400K 10000000010000000087           
CUS0845300000108247751004         GREEN DOOR PROPERTIE1124 S PACA ST                          000N        CARE OF             
MTR08453000001000000000000000RA              48585981    005802080000020800000520000003NN  NNW 000                       N    
RDG08453000WATRL000000004K00000000000001627012012302014112201N000000000000U84       001030400K 10000000010000001625           
CUS0845300000108247752002         RTG ENTERTAINMENT, L1140 S PACA ST                          000N        CARE OF             
MTR08453000001000000000000000RA              27065854    007502090000020900000520000003NN  NNW 000                       N    
RDG08453000WATRL000000004K00000000000006970012112302014112226N000000000000U84       000250400K 10000000010000006962           
CUS0845300000108247753000         SCRIBA JR., FREDERIC1228-40 S PACA ST                       000N        CARE OF             
MTR08453000001000000000000000RA              00134340    005802100000021000000570000003NN  NNW 000                       N    
RDG08453000WATRL000000004K00000000000000975013012302014114549N000000000000U84       000940400K 10000000010000000966           
CUS0845300000108247755005         CHESAPEAKE BIOLOGICA730 W WEST ST                           000N        CARE OF             
MTR08453000001000000000000000RA              29072175    000102110000021100000520000003NN  NNW 000                       N    
RDG08453000WATRL000000004K00000000000001950012212302014112301N000000000000U84       000350400K 10000000010000001945           
CUS0845300000108374931007         CARLSON, JEREMY     738 W HAMBURG ST                        000N        CARE OF             
MTR08453000001000000000000000RA              99292258    005802120000021200000570000003NN  NNW 000                       N    
RDG08453000WATRL000000004K00000000000000846006212302014105410N000400000010U84       002420400K 10000000010000000845           
CUS0845300000108374932005         CUNNINGHAM, ROXANNE 740 W HAMBURG ST                        000N        CARE OF             
MTR08453000001000000000000000RA              32901918    005802130000021300000520000003NN  NNW 000                       N    
RDG08453000WATRL000000004K00000000000003076006312302014105413N000000000000U84       000030400K 10000000010000003059           
CUS0845300000108374933003         ROBINSON, DOMINIQUE 742 W HAMBURG ST                        000N        CARE OF             
MTR08453000001000000000000000RA              32901911    005802140000021400000520000003NN  NNW 000                       N    
RDG08453000WATRL000000004K00000000000001913006412302014105457N000000000000U84       000440400K 10000000010000001905           
CUS0845300000108374934001         WHITE, ANDREW       744 W HAMBURG ST                        000N        CARE OF             
MTR08453000001000000000000000RA              99292259    005802150000021500000570000003NN  NNW 000                       N    
RDG08453000WATRL000000004K00000000000000579006512302014105502N000000000000U84       000050400K 10000000010000000571           
CUS0845300000108374935008         PATRICK INO KLUGE   746 W HAMBURG ST                        000N        CARE OF             
MTR08453000001000000000000000RA              33729062    005802160000021600000520000003NN  NNW 000                       N    
RDG08453000WATRL000000004K00000000000001277006612302014105529N000000000000U84       000270400K 10000000010000001273           
CUS0845300000108247763009         LAYDEN, THOMAS J.   1231-39 BURGUNDY ST                     000N        CARE OF             
MTR08453000001000000000000000RA              99080720    007502170000021700000570000003NN  NNW 000                       N    
RDG08453000WATRL000000004K00000000000002745012912302014114415N000000000000U84       001070400K 10000000010000002720           
CUS0845300000108250699009         MINUS, DANIELLE     1211 SARGEANT ST                        000N        CARE OF             
MTR08453000001000000000000000RA              14927227    005802180000021800000310000003NN  NNW 000                       N    
RDG08453000WATRL000000004K00000000000000348022912302014132638N000000000010U84       003760400K 10000000010000000324           
CUS0845300000108250119008         JOSEPH E BURCH & WF 1324 SARGEANT ST                        000N        CARE OF             
MTR08453000001000000000000000RA              10008137    005802190000021900000570000003NN  NNW 000                       N    
RDG08453000WATRL000000004K00000000000000183017612302014124835N000000000000U84       001170400K 10000000010000000176           
CUS0845300000108250125005         GOSNELL, THELMA K   1336 SARGEANT ST                        000N        CARE OF             
MTR08453000001000000000000000RA              10018981    005802200000022000000570000003NN  NNW 000                       N    
RDG08453000WATRL000000004K00000000000000223017812302014124951N000000000000U84       000550400K 10000000010000000211           
CUS0845300000108250130005         EISENHARDT, MILTON W1346 SARGEANT ST                        000N        CARE OF             
MTR08453000001000000000000000RA              10018645    005802210000022100000570000003NN  NNW 000                       N    
RDG08453000WATRL000000004K00000000000000228017912302014125019N000000000001U84       000050400K 10000000010000000210           
CUS0845300000108250131003         BVP XL, LLC         1348 SARGEANT ST                        000N        CARE OF             
MTR08453000001000000000000000RA              10011061    005802220000022200000570000003NN  NNW 000                       N    
RDG08453000WATRL000000004K00000000000000807018012302014125040N000000000000U84       000210400K 10000000010000000784           
CUS0845300000108250133009         COLE, DEBORAH S     1353 SARGEANT ST                        000N        CARE OF             
MTR08453000001000000000000000RA              10005166    005802230000022300000570000003NN  NNW 000                       N    
RDG08453000WATRL000000004K00000000000000159018112302014125101N000000000000U84       000210400K 10000000010000000147           
CUS0845300000108250145003         BURCH, JOSEPH E     1327 SARGEANT ST                        000N        CARE OF             
MTR08453000001000000000000000RA              75615909    005802240000022400000350000003NN  NNW 000                       N    
RDG08453000WATRL000000004K00000000000000000017712302014124856N000000000000U84       000210400K 10000000010000000000           
CUS0845300000108250633008         WASHINGTON VILLAGE H1235 JAMES ST                           000N        CARE OF             
MTR08453000001000000000000000RA              75613780    005802250000022500000350000003NN  NNW 000                       N    
RDG08453000WATRL000000004K00000000000000059016812302014122805N000000000010U84       001710400K 10000000010000000039           
CUS0845300000108250611004         MOA, PERRY          1244 JAMES ST                           000N        CARE OF             
MTR08453000001000000000000000RA              99999999    005802260000022600000620000003NN  NNW 000                       N    
RDG08453000WATRL000000004K00000000000000000016712302014122514N000000000000U84       000040400K 10000000010000000000           
CUS0845300000108250622001         PHAM, HAI DUC       1266 JAMES ST                           000N        CARE OF             
MTR08453000001000000000000000RA              10000095    005802270000022700000570000003NN  NNW 000                       N    
RDG08453000WATRL000000004K00000000000000763016612302014122510N000000000000U84       001310400K 10000000010000000752           
CUS0845300000108367678003         MARVIN GARDENS 2013,1249 GLYNDON AVE                        000N        CARE OF             
MTR08453000001000000000000000RA              14916180    005802280000022800000310000003NN  NNW 000                       N    
RDG08453000WATRL000000004K00000000000000633020612302014131343N000000000010U84       000510400K 10000000010000000610           
CUS0845300000108375139006         2108 BOLTON STREET I1245 GLYNDON AVE                        000N        CARE OF             
MTR08453000001000000000000000RA              10017689    005802290000022900000570000003NN  NNW 000                       N    
RDG08453000WATRL000000004K00000000000000093020712302014131409N000000000000U84       000260400K 10000000010000000090           
CUS0845300000108250585000         SMITH, STATFORD     1225 GLYNDON AVE                        000N        CARE OF             
MTR08453000001000000000000000RA              74689966    005802300000023000000350000003NN  NNW 000                       N    
RDG08453000WATRL000000004K00000000000000000020812302014131418N000000000000U84       000090400K 10000000010000000000           
CUS0845300000108250391003         OLD SALEM, LLC      1200 GLYNDON AVE                        000N        CARE OF             
MTR08453000001000000000000000RA              14915577    005802310000023100000310000003NN  NNW 000                       N    
RDG08453000WATRL000000004K00000000000000564022812302014132022N000100000010U84       000190400K 10000000010000000564           
CUS0845300000108250389007         NEXT CITY HOLDINGS, 1204 GLYNDON AVE                        000N        CARE OF             
MTR08453000001000000000000000RA              14915471    005802320000023200000310000003NN  NNW 000                       N    
RDG08453000WATRL000000004K00000000000000596022712302014132003N000000000000U84       000130400K 10000000010000000585           
CUS0845300000108250388009         NELSON-BERRY INVESTM1206 GLYNDON AVE                        000N        CARE OF             
MTR08453000001000000000000000RA              14915578    005802330000023300000310000003NN  NNW 000                       N    
RDG08453000WATRL000000004K00000000000000702022612302014131950N000400000010U84       000220400K 10000000010000000689           
CUS0845300000108355206007         HOLABIRD INVESTMENTS1210 GLYNDON AVE                        000N        CARE OF             
MTR08453000001000000000000000RA              14915475    005802340000023400000310000003NN  NNW 000                       N    
RDG08453000WATRL000000004K00000000000000371022512302014131928N000000000000U84       000050400K 10000000010000000371           
CUS0845300000108250385005         BROSNAN CONTRACTING,1214 GLYNDON AVE                        000N        CARE OF             
MTR08453000001000000000000000RA              14915472    005802350000023500000310000003NN  NNW 000                       N    
RDG08453000WATRL000000004K00000000000000281022412302014131923N000400000020U84       000330400K 10000000010000000279           
CUS0845300000108250384008         AMANDA PIERCY       1216 GLYNDON AVE                        000N        CARE OF             
MTR08453000001000000000000000RA              14915476    005802360000023600000310000003NN  NNW 000                       N    
RDG08453000WATRL000000004K00000000000000466022312302014131850N000000000000U84       000050400K 10000000010000000466           
CUS0845300000108250383000         SHIFFLETT, CHARLINE 1218 GLYNDON AVE                        000N        CARE OF             
MTR08453000001000000000000000RA              14915473    005802370000023700000310000003NN  NNW 000                       N    
RDG08453000WATRL000000004K00000000000000402022212302014131845N000000000000U84       000180400K 10000000010000000398           
CUS0845300000108250382002         TSANG, SAM          1220 GLYNDON AVE                        000N        CARE OF             
MTR08453000001000000000000000RA              14915336    005802380000023800000310000003NN  NNW 000                       N    
RDG08453000WATRL000000004K00000000000000239022112302014131827N000000000000U84       000280400K 10000000010000000237           
CUS0845300000108250381004         JAMAR PROPERTIES, LL1222 GLYNDON AVE                        000N        CARE OF             
MTR08453000001000000000000000RA              14915447    005802390000023900000310000003NN  NNW 000                       N    
RDG08453000WATRL000000004K00000000000000755022012302014131759N000000000000U84       000360400K 10000000010000000737           
CUS0845300000108250380006         SINER, ROBERT       1224 GLYNDON AVE                        000N        CARE OF             
MTR08453000001000000000000000RA              14915308    005802400000024000000310000003NN  NNW 000                       N    
RDG08453000WATRL000000004K00000000000000331021912302014131723N000000000000U84       000160400K 10000000010000000318           
CUS0845300000108250379008         WELLS FARGO BANK, NA1226 GLYNDON AVE                        000N        CARE OF             
MTR08453000001000000000000000RA              74689964    005802410000024100000350000003NN  NNW 000                       N    
RDG08453000WATRL000000004K00000000000000080021812302014131707N000000000000U84       000040400K 10000000010000000080           
CUS0845300000108250378000         WESLEY R DAVIS      1228 GLYNDON AVE                        000N        CARE OF             
MTR08453000001000000000000000RA              14915335    005802420000024200000310000003NN  NNW 000                       N    
RDG08453000WATRL000000004K00000000000001096021712302014131703N000000000000U84       000210400K 10000000010000001085           
CUS0845300000108250377002         BRAFFORD, MICHAEL G 1230 GLYNDON AVE                        000N        CARE OF             
MTR08453000001000000000000000RA              14915296    005802430000024300000310000003NN  NNW 000                       N    
RDG08453000WATRL000000004K00000000000001455021612302014131642N000000000000U84       000170400K 10000000010000001420           
CUS0845300000108250376004         MURRAY, KARL HEINZ  1232 GLYNDON AVE                        000N        CARE OF             
MTR08453000001000000000000000RA              14915442    005802440000024400000310000003NN  NNW 000                       N    
RDG08453000WATRL000000004K00000000000000257021512302014131625N000000000000U84       000140400K 10000000010000000251           
CUS0845300000108250375006         CHUNG, HAO V.       1234 GLYNDON AVE                        000N        CARE OF             
MTR08453000001000000000000000RA              14915486    005802450000024500000310000003NN  NNW 000                       N    
RDG08453000WATRL000000004K00000000000000266021412302014131611N000000000000U84       000280400K 10000000010000000266           
CUS0845300000108250373001         DELANO, KENNETH     1238 GLYNDON AVE                        000N        CARE OF             
MTR08453000001000000000000000RA              10015452    005802460000024600000570000003NN  NNW 000                       N    
RDG08453000WATRL000000004K00000000000000326021312302014131543N000000000000U84       000180400K 10000000010000000296           
CUS0845300000108250371005         HILL, DARRYL        1242 GLYNDON AVE                        000N        CARE OF             
MTR08453000001000000000000000RA              14915450    005802470000024700000310000003NN  NNW 000                       N    
RDG08453000WATRL000000004K00000000000000533021212302014131525N000000000000U84       000150400K 10000000010000000495           
CUS0845300000108250370007         STRAIN, ANDRE D.    1244 GLYNDON AVE                        000N        CARE OF             
MTR08453000001000000000000000RA              10015449    005802480000024800000570000003NN  NNW 000                       N    
RDG08453000WATRL000000004K00000000000000167021112302014131510N000000000000U84       000140400K 10000000010000000154           
CUS0845300000108250369009         QIANA GABRIEL       1246 GLYNDON AVE                        000N        CARE OF             
MTR08453000001000000000000000RA              14915446    005802490000024900000310000003NN  NNW 000                       N    
RDG08453000WATRL000000004K00000000000000704021012302014131456N000000000000U84       000220400K 10000000010000000689           
CUS0845300000108250365007         SMALLWOOD, GEORGE W.1254 GLYNDON AVE                        000N        CARE OF             
MTR08453000001000000000000000RA              14915460    005802500000025000000310000003NN  NNW 000                       N    
RDG08453000WATRL000000004K00000000000000481020912302014131434N000000000000U84       000160400K 10000000010000000481           
CUS0845300000108250364000         LARGE PARTNERSHIP, L1256 GLYNDON AVE                        000N        CARE OF             
MTR08453000001000000000000000RA              14915461    005802510000025100000310000003NN  NNW 000                       N    
RDG08453000WATRL000000004K00000000000000567020512302014131252N000000000000U84       000100400K 10000000010000000536           
CUS0845300000108250363002         HEGAZI, ABRAHAM     1258 GLYNDON AVE                        000N        CARE OF             
MTR08453000001000000000000000RA              14915455    005802520000025200000310000003NN  NNW 000                       N    
RDG08453000WATRL000000004K00000000000000926020412302014131242N000400000020U84       000410400K 10000000010000000917           
CUS0845300000108250362004         ELLIOTT JR., RUSSELL1260 GLYNDON AVE                        000N        CARE OF             
MTR08453000001000000000000000RA              14915470    005802530000025300000310000003NN  NNW 000                       N    
RDG08453000WATRL000000004K00000000000000577020312302014131201N000000000000U84       000170400K 10000000010000000557           
CUS0845300000108250361006         KANE, KYLE V        1262 GLYNDON AVE                        000N        CARE OF             
MTR08453000001000000000000000RA              14915467    005802540000025400000310000003NN  NNW 000                       N    
RDG08453000WATRL000000004K00000000000000158020212302014131144N000000000000U84       000160400K 10000000010000000154           
CUS0845300000108250360008         OWUSU-YAW, THERESA  1264 GLYNDON AVE                        000N        CARE OF             
MTR08453000001000000000000000RA              14915462    005802550000025500000310000003NN  NNW 000                       N    
RDG08453000WATRL000000004K00000000000000633020112302014131128N000000000000U84       000090400K 10000000010000000633           
CUS0845300000108250358002         JURI J SZAPIRO      1268 GLYNDON AVE                        000N        CARE OF             
MTR08453000001000000000000000RA              14915456    005802560000025600000310000003NN  NNW 000                       N    
RDG08453000WATRL000000004K00000000000000839020012302014131119N000300000010U84       000150400K 10000000010000000829           
CUS0845300000108250357004         DALY, PATRICK D     1270 GLYNDON AVE                        000N        CARE OF             
MTR08453000001000000000000000RA              14915458    005802570000025700000310000003NN  NNW 000                       N    
RDG08453000WATRL000000004K00000000000000195019912302014131104N000000000000U84       000130400K 10000000010000000187           
CUS0845300000108250356006         SCHEUERMAN JR., WALT1272 GLYNDON AVE                        000N        CARE OF             
MTR08453000001000000000000000RA              14915454    005802580000025800000310000003NN  NNW 000                       N    
RDG08453000WATRL000000004K00000000000000872019812302014131051N000000000000U84       000130400K 10000000010000000844           
CUS0845300000108250355008         MCCORMICK, SABRINA A1274 GLYNDON AVE                        000N        CARE OF             
MTR08453000001000000000000000RA              75426106    005802590000025900000350000003NN  NNW 000                       N    
RDG08453000WATRL000000004K00000000000000135019712302014131038N000000000000U84       000510400K 10000000010000000122           
CUS0845300000108250015008         ANTONIO KORNEGAY    1302 GLYNDON AVE                        000N        CARE OF             
MTR08453000001000000000000000RA              10003549    005802600000026000000570000003NN  NNW 000                       N    
RDG08453000WATRL000000004K00000000000000092019512302014130924N000000000000U84       000300400K 10000000010000000092           
CUS0845300000108250021006         MANDELL, DANNY      1314 GLYNDON AVE                        000N        CARE OF             
MTR08453000001000000000000000RA              10018468    005802610000026100000570000003NN  NNW 000                       N    
RDG08453000WATRL000000004K00000000000000564019312302014130825N000000000000U84       000990400K 10000000010000000527           
