FHDNNNN028004306004306004320N                                                                                           013292
RHD04212800NN01580158000001580000000001580158000281YY015801580158000800020000000000000000000001    12022014NY020000 I         
CUS0421280000104176688002         BROOKS, STUART M    4105 UNDERWOOD RD                       000N        CARE OF             
MTR04212800001000000000000000RA              01098401    007500010000000100000610000003NN  NNW 000                       N    
RDG04212800WATRL000000004K00000000000001877000112292014081122N000000000000N27       000000400K 10000000010000001846           
CUS0421280000104176689000         LEUNG, BOAZ YEUK K  4201 UNDERWOOD RD                       000N        CARE OF             
MTR04212800001000000000000000RA              14906233    005800020000000200000310000003NN  NNW 000                       N    
RDG04212800WATRL000000004K00000000000001089000212292014081132N000400000010N27       000100400K 10000000010000001079           
CUS0421280000104176690008         POLLACK, HOWARD A.  4205 UNDERWOOD RD                       000N        CARE OF             
MTR04212800001000000000000000RA              26192024    007500030000000300000520000003NN  NNW 000                       N    
RDG04212800WATRL000000004K00000000000007410000312292014081138N000000000000N27       000060400K 10000000010000007356           
CUS0421280000104176691006         HARTZELL, JEAN C    4207 UNDERWOOD RD                       000N        CARE OF             
MTR04212800001000000000000000RA              14928399    007500040000000400000310000003NN  NNW 000                       N    
RDG04212800WATRL000000004K00000000000000328000412292014081146N000000000000N27       000080400K 10000000010000000315           
CUS0421280000104176692004         MARY MARGARET LANG  4301 UNDERWOOD RD                       000N        CARE OF             
MTR04212800001000000000000000RA              23648774    005800050000000500000520000003NN  NNW 000                       N    
RDG04212800WATRL000000004K00000000000004286000512292014081153N000000000000N27       000070400K 10000000010000004279           
CUS0421280000104176693002         VAZIRI, MAJID       4303 UNDERWOOD RD                       000N        CARE OF             
MTR04212800001000000000000000RA              14918490    007500060000000600000310000003NN  NNW 000                       N    
RDG04212800WATRL000000004K00000000000000516000612292014081159N000000000000N27       000060400K 10000000010000000488           
CUS0421280000104176694000         CAMPBELL, CURTIS H  4307 UNDERWOOD RD                       000N        CARE OF             
MTR04212800001000000000000000RA              00163509    000100070000000700000570000003NN  NNW 000                       N    
RDG04212800WATRL000000004K00000000000002001000712292014081209N000400000010N27       000100400K 10000000010000001981           
CUS0421280000104176695007         PAYNE, DAVID F C    4311 UNDERWOOD RD                       000N        CARE OF             
MTR04212800001000000000000000RA              99412461    007500080000000800000570000003NN  NNW 000                       N    
RDG04212800WATRL000000004K00000000000001909000812292014081216N000000000000N27       000070400K 10000000010000001882           
CUS0421280000104176696005         BORDEN, ADAM W.     4315 UNDERWOOD RD                       000N        CARE OF             
MTR04212800001000000000000000RA              29121618    007500090000000900000520000003NN  NNW 000                       N    
RDG04212800WATRL000000004K00000000000006557000912292014081222N000000000000N27       000060400K 10000000010000006543           
CUS0421280000104176697003         STAUTBERG, JAMES A  4400 UNDERWOOD RD                       000N        CARE OF             
MTR04212800001000000000000000RA              29403556    005800100000001000000520000003NN  NNW 000                       N    
RDG04212800WATRL000000004K00000000000004129001012292014081232N000100000010N27       000100400K 10000000010000004129           
CUS0421280000104176698001         WILKE, FREDERICK W. 226 NORTHWAY                            000N        CARE OF             
MTR04212800001000000000000000RA              44030392    007500110000001100000520000003NN  NNW 000                       N    
RDG04212800WATRL000000004K00000000000004346001112292014081305N000300000010N27       000330400K 10000000010000003319           
CUS0421280000104176699009         BRENNAN JR., THOMAS 224 NORTHWAY                            000N        CARE OF             
MTR04212800001000000000000000RA              29121810    007500120000001200000520000003NN  NNW 000                       N    
RDG04212800WATRL000000004K00000000000006491001212292014081330N000400000010N27       000250400K 10000000010000006473           
CUS0421280000104176700005         ROYALS, CLAUDE LANDO222 NORTHWAY                            000N        CARE OF             
MTR04212800001000000000000000RA              00163459    000100130000001300000570000003NN  NNW 000                       N    
RDG04212800WATRL000000004K00000000000001302001312292014081339N000400000010N27       000090400K 10000000010000001292           
CUS0421280000104176701003         LANDAUER, PETER A.  220 NORTHWAY                            000N        CARE OF             
MTR04212800001000000000000000RA              29121693    007500140000001400000520000003NN  NNW 000                       N    
RDG04212800WATRL000000004K00000000000008783001412292014081350N000400000010N27       000110400K 10000000010000008751           
CUS0421280000104176702001         COOKE, ARTHUR V.    218 NORTHWAY                            000N        CARE OF             
MTR04212800001000000000000000RA              00163478    000100150000001500000570000003NN  NNW 000                       N    
RDG04212800WATRL000000004K00000000000001869001512292014081400N000000000000N27       000100400K 10000000010000001840           
CUS0421280000104176703009         PERRY, DOUGLAS S    216 NORTHWAY                            000N        CARE OF             
MTR04212800001000000000000000RA              99389794    005800160000001600000570000003NN  NNW 000                       N    
RDG04212800WATRL000000004K00000000000001931001612292014081409N000000000000N27       000090400K 10000000010000001904           
CUS0421280000104176704007         HINKLE, JENNIFER H  214 NORTHWAY                            000N        CARE OF             
MTR04212800001000000000000000RA              99389893    005800170000001700000570000003NN  NNW 000                       N    
RDG04212800WATRL000000004K00000000000001027001712292014081419N000000000000N27       000100400K 10000000010000001000           
CUS0421280000104176705004         VANDIVER, SCOTT WESL212 NORTHWAY                            000N        CARE OF             
MTR04212800001000000000000000RA              52291138    000100180000001800000520000003NN  NNW 000                       N    
RDG04212800WATRL000000004K00000000000001415001812292014081424N000000000000N27       000050400K 10000000010000001388           
CUS0421280000104176706002         BRADY, PATRICK      210 NORTHWAY                            000N        CARE OF             
MTR04212800001000000000000000RA              29121698    007500190000001900000520000003NN  NNW 000                       N    
RDG04212800WATRL000000004K00000000000005335001912292014081436N000000000000N27       000120400K 10000000010000005319           
CUS0421280000104176707000         WEISER, DANIEL ERIC 208 NORTHWAY                            000N        CARE OF             
MTR04212800001000000000000000RA              00163325    000100200000002000000570000003NN  NNW 000                       N    
RDG04212800WATRL000000004K00000000000001258002012292014081448N000400000010N27       000120400K 10000000010000001244           
CUS0421280000104176708008         FRED WOLF 3RD & WF  4301 GREENWAY                           000N        CARE OF             
MTR04212800001000000000000000RA              9691754     007500210000002100000320000003NN  NNW 000                       N    
RDG04212800WATRL000000004K00000000000004236002112292014081455N000000000000N27       000070400K 10000000010000004156           
CUS0421280000104176709006         CUMMINGS, BRIAN P.  4221 GREENWAY                           000N        CARE OF             
MTR04212800001000000000000000RA              99412408    007500220000002200000570000003NN  NNW 000                       N    
RDG04212800WATRL000000004K00000000000001165002212292014081459N000000000000N27       000040400K 10000000010000001107           
CUS0421280000104176710004         COOMBS, DAVID P     215 NORTHWAY                            000N        CARE OF             
MTR04212800001000000000000000RA              00163291    000100230000002300000570000003NN  NNW 000                       N    
RDG04212800WATRL000000004K00000000000001556002312292014081504N000000000000N27       000050400K 10000000010000001537           
CUS0421280000104176711002         MARGUERITE M GREENMA217 NORTHWAY                            000N        CARE OF             
MTR04212800001000000000000000RA              00117845    007500240000002400000570000003NN  NNW 000                       N    
RDG04212800WATRL000000004K00000000000002881002412292014081512N000400000010N27       000080400K 10000000010000002856           
CUS0421280000104176712000         HOWARD M FRIEDEL    219 NORTHWAY                            000N        CARE OF             
MTR04212800001000000000000000RA              46890553    007500250000002500000520000003NN  NNW 000                       N    
RDG04212800WATRL000000004K00000000000004708002512292014081521N000400000010N27       000090400K 10000000010000004640           
CUS0421280000104176713008         SMITH III, STUART A.221 NORTHWAY                            000N        CARE OF             
MTR04212800001000000000000000RA              00119112    007500260000002600000570000003NN  NNW 000                       N    
RDG04212800WATRL000000004K00000000000001390002612292014081527N000000000000N27       000060400K 10000000010000001358           
CUS0421280000104176714006         SCOTT H VINCENT     212 STRATFORD RD                        000N        CARE OF             
MTR04212800001000000000000000RA              01107859    005800270000002700000610000003NN  NNW 000                       N    
RDG04212800WATRL000000004K00000000000001953002712292014081533N000000000000N27       000060400K 10000000010000001922           
CUS0421280000104176715003         MEIGS, EDWARD B     208 STRATFORD RD                        000N        CARE OF             
MTR04212800001000000000000000RA              29074526    000100280000002800000520000003NN  NNW 000                       N    
RDG04212800WATRL000000004K00000000000006419002812292014081540N000000000000N27       000070400K 10000000010000006403           
CUS0421280000104176716001         FONTAN, NADINE L.   204 STRATFORD RD                        000N        CARE OF             
MTR04212800001000000000000000RA              52292142    007500290000002900000520000003NN  NNW 000                       N    
RDG04212800WATRL000000004K00000000000004256002912292014081550N000400000010N27       000100400K 10000000010000004239           
CUS0421280000104176717009         TRAUNER, STEPHEN    210 E HIGHFIELD RD                      000N        CARE OF             
MTR04212800001000000000000000RA              30001026    007500300000003000000570000003NN  NNW 000                       N    
RDG04212800WATRL000000004K00000000000001288003012292014081557N000400000010N27       000070400K 10000000010000001261           
CUS0421280000104176718007         MILLER JR., LEE S.  204 E HIGHFIELD RD                      000N        CARE OF             
MTR04212800001000000000000000RA              99410172    000100310000003100000570000003NN  NNW 000                       N    
RDG04212800WATRL000000004K00000000000006016003112292014081605N000400000010N27       000080400K 10000000010000005966           
CUS0421280000104176719005         RONALD C HEATON & WF201 E HIGHFIELD RD                      000N        CARE OF             
MTR04212800001000000000000000RA              29121759    007500320000003200000520000003NN  NNW 000                       N    
RDG04212800WATRL000000004K00000000000009742003212292014081616N000400000010N27       000110400K 10000000010000009730           
CUS0421280000104176720003         DR RICHARD JOHNS    203 E HIGHFIELD RD                      000N        CARE OF             
MTR04212800001000000000000000RA              99410856    000100330000003300000570000003NN  NNW 000                       N    
RDG04212800WATRL000000004K00000000000001126003312292014081629N000300000010N27       000130400K 10000000010000001103           
CUS0421280000104176722009         DAVID, SCOTT B      207 E HIGHFIELD RD                      000N        CARE OF             
MTR04212800001000000000000000RA              00163346    000100340000003400000570000003NN  NNW 000                       N    
RDG04212800WATRL000000004K00000000000006019003412292014081639N000400000010N27       000100400K 10000000010000005990           
CUS0421280000104176723007         ARGO, STEPHEN       209 E HIGHFIELD RD                      000N        CARE OF             
MTR04212800001000000000000000RA              46890083    007500350000003500000520000003NN  NNW 000                       N    
RDG04212800WATRL000000004K00000000000003331003512292014081658N000400000010N27       000190400K 10000000010000003314           
CUS0421280000104176724005         MOLLOY, STACEY LEIGH211 E HIGHFIELD RD                      000N        CARE OF             
MTR04212800001000000000000000RA              46889163    007500360000003600000520000003NN  NNW 000                       N    
RDG04212800WATRL000000004K00000000000003539003612292014081703N000000000000N27       000050400K 10000000010000003527           
CUS0421280000104176725002         MRS CHAS. GOODWIN 3R4204 UNDERWOOD RD                       000N        CARE OF             
MTR04212800001000000000000000RA              00166571    000100370000003700000570000003NN  NNW 000                       N    
RDG04212800WATRL000000004K00000000000000379003712292014081742N000400000010N27       000390400K 10000000010000000366           
CUS0421280000104176726000         EVERSLEY, WALTER V L214 LAMBETH RD                          000N        CARE OF             
MTR04212800001000000000000000RA              01098157    007500380000003800000610000003NN  NNW 000                       N    
RDG04212800WATRL000000004K00000000000001150003812292014081747N000000000000N27       000050400K 10000000010000001122           
CUS0421280000104176727008         LOPES, ANCELMO E.   212 LAMBETH RD                          000N        CARE OF             
MTR04212800001000000000000000RA              00167069    000100390000003900000570000003NN  NNW 000                       N    
RDG04212800WATRL000000004K00000000000000700003912292014081756N000400000010N27       000090400K 10000000010000000688           
CUS0421280000104176728006         WEBSTER III, JAMES M210 LAMBETH RD                          000N        CARE OF             
MTR04212800001000000000000000RA              30002490    007500400000004000000570000003NN  NNW 000                       N    
RDG04212800WATRL000000004K00000000000000967004012292014081804N000400000010N27       000080400K 10000000010000000943           
CUS0421280000104176729004         SMITH, RUSSELL B.   206 LAMBETH RD                          000N        CARE OF             
MTR04212800001000000000000000RA              74938929    007500410000004100000350000003NN  NNW 000                       N    
RDG04212800WATRL000000004K00000000000000346004112292014081811N000000000000N27       000070400K 10000000010000000323           
CUS0421280000104176730002         BLOOMBERG, NORMAN S.204 LAMBETH RD                          000N        CARE OF             
MTR04212800001000000000000000RA              36690499    005800420000004200000520000003NN  NNW 000                       N    
RDG04212800WATRL000000004K00000000000002684004212292014081817N000000000000N27       000060400K 10000000010000002666           
CUS0421280000104176731000         PINEDA, FERNANDO J  202 LAMBETH RD                          000N        CARE OF             
MTR04212800001000000000000000RA              24762127    005800430000004300000520000003NN  NNW 000                       N    
RDG04212800WATRL000000004K00000000000006095004312292014081828N000400000010N27       000110400K 10000000010000006085           
CUS0421280000104176732008         SIMMS, STEVEN E     207 LAMBETH RD                          000N        CARE OF             
MTR04212800001000000000000000RA              00163951    000100440000004400000570000003NN  NNW 000                       N    
RDG04212800WATRL000000004K00000000000002242004412292014081842N000400000010N27       000140400K 10000000010000002211           
CUS0421280000104176733006         MERRITT, PATRICIA A.211 LAMBETH RD                          000N        CARE OF             
MTR04212800001000000000000000RA              00166591    000100450000004500000570000003NN  NNW 000                       N    
RDG04212800WATRL000000004K00000000000005629004512292014081853N000300000010N27       000110400K 10000000010000001258           
CUS0421280000104176734004         PERSKY, GEORGE E    203 LAMBETH RD                          000N        CARE OF             
MTR04212800001000000000000000RA              35117228    005800460000004600000520000003NN  NNW 000                       N    
RDG04212800WATRL000000004K00000000000005631000101092015090603N000400000010U40       000000400K 10000000010000005603           
CUS0421280000104176735001         FOWLER, PAUL        229 LAMBETH RD                          000N        CARE OF             
MTR04212800001000000000000000RA              00163341    000100470000004700000570000003NN  NNW 000                       N    
RDG04212800WATRL000000004K00000000000003692000201092015091231N000400000010U40       003880400K 10000000010000003661           
CUS0421280000104176736009         GIBSON, LARRY S     237 LAMBETH RD                          000N        CARE OF             
MTR04212800001000000000000000RA              14928093    007500480000004800000310000003NN  NNW 000                       N    
RDG04212800WATRL000000004K00000000000001213000301092015091632N000000000000U40       002410400K 10000000010000001173           
CUS0421280000104176737007         DR BERNHARD ZUNKELER224 WENDOVER RD                         000N        CARE OF             
MTR04212800001000000000000000RA              00119826    007500490000004900000570000003NN  NNW 000                       N    
RDG04212800WATRL000000004K00000000000001398000401092015092350N000000000000U40       004380400K 10000000010000001374           
CUS0421280000104176738005         GILBERT JR., C GORDO222 WENDOVER RD                         000N        CARE OF             
MTR04212800001000000000000000RA              29121704    007500500000005000000520000003NN  NNW 000                       N    
RDG04212800WATRL000000004K00000000000004877000501092015092502N000000000000U40       000720400K 10000000010000004864           
CUS0421280000104176739003         GERMAIN, JENNIFER ST220 WENDOVER RD                         000N        CARE OF             
MTR04212800001000000000000000RA              29121700    007500510000005100000520000003NN  NNW 000                       N    
RDG04212800WATRL000000004K00000000000006071000601092015092840N000000000000U40       002180400K 10000000010000006065           
CUS0421280000104176740001         BETO, ANDREW R      218 WENDOVER RD                         000N        CARE OF             
MTR04212800001000000000000000RA              99376509    007500520000005200000570000003NN  NNW 000                       N    
RDG04212800WATRL000000004K00000000000002493000701092015093324N000300000010U40       002840400K 10000000010000002499           
CUS0421280000104176741009         RABE, THOMAS        216 WENDOVER RD                         000N        CARE OF             
MTR04212800001000000000000000RA              30002521    007500530000005300000570000003NN  NNW 000                       N    
RDG04212800WATRL000000004K00000000000000190000801092015093457N000000000000U40       000930400K 10000000010000000175           
CUS0421280000104176742007         CHICKERING, F WILLIA214 WENDOVER RD                         000N        CARE OF             
MTR04212800001000000000000000RA              99412422    007500540000005400000570000003NN  NNW 000                       N    
RDG04212800WATRL000000004K00000000000000000000000000000000000 000000000000U         000000400  10000000010000003406           
CUS0421280000104176743005         DAWSON, FELIX       212 WENDOVER RD                         000N        CARE OF             
MTR04212800001000000000000000RA              43904615    007500550000005500000520000003NN  NNW 000                       N    
RDG04212800WATRL000000004K00000000000009769000901092015094100N000400000010U40       003630400K 10000000010000009728           
CUS0421280000104176744003         HABASHI, NADER      205 WENDOVER RD                         000N        CARE OF             
MTR04212800001000000000000000RA              45388029    007500560000005600000520000003NN  NNW 000                       N    
RDG04212800WATRL000000004K00000000000003088001001092015094515N000000000000U40       002550400K 10000000010000003069           
CUS0421280000104176745000         KARANIKAS, KONSTANTI207 WENDOVER RD                         000N        CARE OF             
MTR04212800001000000000000000RA              29121696    007500570000005700000520000003NN  NNW 000                       N    
RDG04212800WATRL000000004K00000000000006496001101092015094735N000000000000U40       001400400K 10000000010000006472           
CUS0421280000104176746008         ETHERIDGE, HARTLEY C211 WENDOVER RD                         000N        CARE OF             
MTR04212800001000000000000000RA              99411785    007500580000005800000570000003NN  NNW 000                       N    
RDG04212800WATRL000000004K00000000000001694001201092015095043N000000000000U40       001880400K 10000000010000001684           
CUS0421280000104176747006         KLEIN JR., DENNIS   215 WENDOVER RD                         000N        CARE OF             
MTR04212800001000000000000000RA              29121703    007500590000005900000520000003NN  NNW 000                       N    
RDG04212800WATRL000000004K00000000000004668001301092015095224N000000000000U40       001010400K 10000000010000004634           
CUS0421280000104176748004         MARINO, DANIEL      217 WENDOVER RD                         000N        CARE OF             
MTR04212800001000000000000000RA              00117846    007500600000006000000570000003NN  NNW 000                       N    
RDG04212800WATRL000000004K00000000000001332001401092015095402N000000000000U40       000980400K 10000000010000001310           
CUS0421280000104176749002         LANDAU, ROBERT N.   219 WENDOVER RD                         000N        CARE OF             
MTR04212800001000000000000000RA              00163782    000100610000006100000570000003NN  NNW 000                       N    
RDG04212800WATRL000000004K00000000000000000000000000000000000 000000000000U         000000400  10000000010000001643           
CUS0421280000104176750000         BRIER, GAYLE L      223 WENDOVER RD                         000N        CARE OF             
MTR04212800001000000000000000RA              28988015    007500620000006200000520000003NN  NNW 000                       N    
RDG04212800WATRL000000004K00000000000006062001501092015100207N000000000000U40       004850400K 10000000010000006005           
CUS0421280000104176751008         AMBADAS PATHAK      225 WENDOVER RD                         000N        CARE OF             
MTR04212800001000000000000000RA              74815244    007500630000006300000350000003NN  NNW 000                       N    
RDG04212800WATRL000000004K00000000000000600001601092015100450N000000000000U40       001630400K 10000000010000000527           
CUS0421280000104176752006         LE, KHOI U          4102 UNDERWOOD RD                       000N        CARE OF             
MTR04212800001000000000000000RA              00117616    007500640000006400000570000003NN  NNW 000                       N    
RDG04212800WATRL000000004K00000000000000925001701092015101159N000400000010U40       004290400K 10000000010000000917           
CUS0421280000104176753004         STERRETTE, DAWANA M.4100 UNDERWOOD RD                       000N        CARE OF             
MTR04212800001000000000000000RA              52292189    007500650000006500000520000003NN  NNW 000                       N    
RDG04212800WATRL000000004K00000000000001351001801092015101309N000000000000U40       000700400K 10000000010000001335           
CUS0421280000104176754002         KENNETH HUBBARD     12 YORK CT                              000N        CARE OF             
MTR04212800001000000000000000RA              01102050    005800660000006600000610000003NN  NNW 000                       N    
RDG04212800WATRL000000004K00000000000000369001901092015102102N000000000000U40       004730400K 10000000010000000360           
CUS0421280000104176755009         MBAH, LAKAYE        11 YORK CT                              000N        CARE OF             
MTR04212800001000000000000000RA              00119037    007500670000006700000570000003NN  NNW 000                       N    
RDG04212800WATRL000000004K00000000000000706002001092015102207N000000000000U40       000650400K 10000000010000000706           
CUS0421280000104176756007         BLOOM, ROBERT L.    10 YORK CT                              000N        CARE OF             
MTR04212800001000000000000000RA              27893360    007500680000006800000520000003NN  NNW 000                       N    
RDG04212800WATRL000000004K00000000000002674002101092015102325N000000000000U40       000780400K 10000000010000002661           
CUS0421280000104176757005         9 YORK COURT, LLC   9 YORK CT                               000N        CARE OF             
MTR04212800001000000000000000RA              48590189    005800690000006900000520000003NN  NNW 000                       N    
RDG04212800WATRL000000004K00000000000002460002201092015102541N000400000010U40       001360400K 10000000010000002451           
CUS0421280000104176758003         JOHNSON, MONROE C.  8 YORK CT                               000N        CARE OF             
MTR04212800001000000000000000RA              29121787    007500700000007000000520000003NN  NNW 000                       N    
RDG04212800WATRL000000004K00000000000001934002301092015102852N000000000000U40       001910400K 10000000010000001934           
CUS0421280000104176759001         PETERS, WILLIAM     6 YORK CT                               000N        CARE OF             
MTR04212800001000000000000000RA              44091850    005800710000007100000520000003NN  NNW 000                       N    
RDG04212800WATRL000000004K00000000000001029002401092015103331N000000000011U40       000660400K 10000000010000001029           
CUS0421280000104176760009         CHARLES E HALM JR & 7 YORK CT                               000N        CARE OF             
MTR04212800001000000000000000RA              01086546    005800720000007200000610000003NN  NNW 000                       N    
RDG04212800WATRL000000004K00000000000000695002501092015103225N000000000000U40       000140400K 10000000010000000687           
CUS0421280000104176761007         REESE, SARAH J.     5 YORK CT                               000N        CARE OF             
MTR04212800001000000000000000RA              29121783    007500730000007300000520000003NN  NNW 000                       N    
RDG04212800WATRL000000004K00000000000003599002601092015103454N000000000010U40       000830400K 10000000010000003589           
CUS0421280000104176762005         PAN, HAIYI          4 YORK CT                               000N        CARE OF             
MTR04212800001000000000000000RA              74938943    007500740000007400000350000003NN  NNW 000                       N    
RDG04212800WATRL000000004K00000000000000134002701092015103615N000000000000U40       000810400K 10000000010000000126           
CUS0421280000104176763003         MCCORMICK, MEGAN STA3 YORK CT                               000N        CARE OF             
MTR04212800001000000000000000RA              30002463    007500750000007500000570000003NN  NNW 000                       N    
RDG04212800WATRL000000004K00000000000000067002801092015103623N000000000000U40       000080400K 10000000010000000062           
CUS0421280000104176764001         MCGUIRE, ERICA T.   2 YORK CT                               000N        CARE OF             
MTR04212800001000000000000000RA              29121778    007500760000007600000520000003NN  NNW 000                       N    
RDG04212800WATRL000000004K00000000000002983002901092015103739N000000000000U40       000760400K 10000000010000002931           
CUS0421280000104176765008         JENSEN, JOSEPH EDWAR1 YORK CT                               000N        CARE OF             
MTR04212800001000000000000000RA              99412301    007500770000007700000570000003NN  NNW 000                       N    
RDG04212800WATRL000000004K00000000000000446003001092015103901N000000000000U40       000820400K 10000000010000000433           
CUS0421280000104176766006         JONES, JOHN         24 YORK CT                              000N        CARE OF             
MTR04212800001000000000000000RA              76344564    005800780000007800000350000003NN  NNW 000                       N    
RDG04212800WATRL000000004K00000000000000065003101092015104127N000000000000U40       001460400K 10000000010000000049           
CUS0421280000104176767004         BUNBURY, EGBERT A   23 YORK CT                              000N        CARE OF             
MTR04212800001000000000000000RA              00119480    007500790000007900000570000003NN  NNW 000                       N    
RDG04212800WATRL000000004K00000000000001296003201092015104243N000000000000U40       000760400K 10000000010000001279           
CUS0421280000104176768002         MORANT, MARY L      22 YORK CT                              000N        CARE OF             
MTR04212800001000000000000000RA              00119795    007500800000008000000570000003NN  NNW 000                       N    
RDG04212800WATRL000000004K00000000000001199003301092015104254N000000000000U40       000110400K 10000000010000001184           
CUS0421280000104176769000         TOMMY G B RUSSELL & 21 YORK CT                              000N        CARE OF             
MTR04212800001000000000000000RA              29121785    007500810000008100000520000003NN  NNW 000                       N    
RDG04212800WATRL000000004K00000000000001707003401092015104328N000000000000U40       000340400K 10000000010000001699           
CUS0421280000104176770008         ANNE C DUGAN        20 YORK CT                              000N        CARE OF             
MTR04212800001000000000000000RA              29121841    007500820000008200000520000003NN  NNW 000                       N    
RDG04212800WATRL000000004K00000000000002142003501092015104453N000000000010U40       000850400K 10000000010000002137           
CUS0421280000104176771006         LEE, GLADYS M.      19 YORK CT                              000N        CARE OF             
MTR04212800001000000000000000RA              40248104    007500830000008300000520000003NN  NNW 000                       N    
RDG04212800WATRL000000004K00000000000003267003601092015104607N000000000000U40       000740400K 10000000010000003257           
CUS0421280000104176772004         JAIN, AMIT          18 YORK CT                              000N        CARE OF             
MTR04212800001000000000000000RA              99412379    007500840000008400000570000003NN  NNW 000                       N    
RDG04212800WATRL000000004K00000000000001063003701092015104659N000000000000U40       000520400K 10000000010000001056           
CUS0421280000104176773002         ANDREW J O'BRIEN & W17 YORK CT                              000N        CARE OF             
MTR04212800001000000000000000RA              31937717    007500850000008500000520000003NN  NNW 000                       N    
RDG04212800WATRL000000004K00000000000003343003801092015104818N000000000000U40       000790400K 10000000010000003320           
CUS0421280000104176774000         LAURA S URWIN       16 YORK CT                              000N        CARE OF             
MTR04212800001000000000000000RA              41089266    007500860000008600000520000003NN  NNW 000                       N    
RDG04212800WATRL000000004K00000000000000724003901092015104908N000000000000U40       000500400K 10000000010000000707           
CUS0421280000104176775007         GOLDMAN, MELISSA    15 YORK CT                              000N        CARE OF             
MTR04212800001000000000000000RA              14903115    005800870000008700000310000003NN  NNW 000                       N    
RDG04212800WATRL000000004K00000000000000411004001092015104930N000000000000U40       000220400K 10000000010000000410           
CUS0421280000104176776005         DEFOREST, FRANKLIN  14 YORK CT                              000N        CARE OF             
MTR04212800001000000000000000RA              43904784    007500880000008800000520000003NN  NNW 000                       N    
RDG04212800WATRL000000004K00000000000001724004201092015105207N000000000000U40       001040400K 10000000010000001707           
CUS0421280000104176777003         ADRIAN BISHOP       13 YORK CT                              000N        CARE OF             
MTR04212800001000000000000000RA              35100414    007500890000008900000520000003NN  NNW 000                       N    
RDG04212800WATRL000000004K00000000000003199004101092015105023N000000000000U40       000530400K 10000000010000003192           
CUS0421280000104176778001         BATHON, COLLEEN E.  36 YORK CT                              000N        CARE OF             
MTR04212800001000000000000000RA              26074484    005800900000009000000520000003NN  NNW 000                       N    
RDG04212800WATRL000000004K00000000000003610005101092015111632N000000000000U40       003440400K 10000000010000003592           
CUS0421280000104176779009         KELLY SR., JAMES E. 35 YORK CT                              000N        CARE OF             
MTR04212800001000000000000000RA              29121889    007500910000009000010520000003NN  NNW 000                       N    
RDG04212800WATRL000000004K00000000000001862005201092015111806N000000000000U40       000940400K 10000000010000001837           
CUS0421280000104176780007         FERGUSON, KIMELA J. 34 YORK CT                              000N        CARE OF             
MTR04212800001000000000000000RA              29121868    007500920000009200000520000003NN  NNW 000                       N    
RDG04212800WATRL000000004K00000000000002624005301092015111852N000000000000U40       000460400K 10000000010000002610           
CUS0421280000104176781005         MORGAN, DONNA P   (L33 YORK CT                              000N        CARE OF             
MTR04212800001000000000000000RA              29121867    007500930000009300000520000003NN  NNW 000                       N    
RDG04212800WATRL000000004K00000000000001887005501092015113354N000000000001U40       001690400K 10000000010000001874           
CUS0421280000104176782003         DIGNEY, MEGAN       32 YORK CT                              000N        CARE OF             
MTR04212800001000000000000000RA              43904960    007500940000009400000520000003NN  NNW 000                       N    
RDG04212800WATRL000000004K00000000000002583005401092015112038N000000000000U40       001060400K 10000000010000002569           
CUS0421280000104176783001         CREATIVE REAL ESTATE31 YORK CT                              000N        CARE OF             
MTR04212800001000000000000000RA              26796072    007500950000009500000520000003NN  NNW 000                       N    
RDG04212800WATRL000000004K00000000000002508005601092015112301N000100000010U40       000570400K 10000000010000002508           
CUS0421280000104176784009         SINGER, ERIC G      30 YORK CT                              000N        CARE OF             
MTR04212800001000000000000000RA              29404076    005800960000009600000520000003NN  NNW 000                       N    
RDG04212800WATRL000000004K00000000000002541005701092015112503N000000000000U40       001220400K 10000000010000002526           
CUS0421280000104176785006         BERLOW, JOSHUA      29 YORK CT                              000N        CARE OF             
MTR04212800001000000000000000RA              00118004    007500970000009700000570000003NN  NNW 000                       N    
RDG04212800WATRL000000004K00000000000000622005801092015112709N000000000000U40       001260400K 10000000010000000613           
CUS0421280000104176786004         ZUBIN, JON A        28 YORK CT                              000N        CARE OF             
MTR04212800001000000000000000RA              00119296    007500980000009800000570000003NN  NNW 000                       N    
RDG04212800WATRL000000004K00000000000000266005901092015112823N000000000000U40       000740400K 10000000010000000259           
CUS0421280000104176787002         CONCORD PROPERTY MNG27 YORK CT                              000N        CARE OF             
MTR04212800001000000000000000RA              00119339    007500990000009900000570000003NN  NNW 000                       N    
RDG04212800WATRL000000004K00000000000000474006001092015112905N000000000000U40       000420400K 10000000010000000453           
CUS0421280000104176788000         SMITH, PETER G      26 YORK CT                              000N        CARE OF             
MTR04212800001000000000000000RA              00119291    007501000000010000000570000003NN  NNW 000                       N    
RDG04212800WATRL000000004K00000000000000725006101092015112952N000000000000U40       000470400K 10000000010000000707           
CUS0421280000104176789008         REELY, PHILLIP      25 YORK CT                              000N        CARE OF             
MTR04212800001000000000000000RA              30528000    007501010000010100000520000003NN  NNW 000                       N    
RDG04212800WATRL000000004K00000000000002269006201092015113105N000000000000U40       000730400K 10000000010000002259           
CUS0421280000104176790006         PERKINS, CYNTHIA A  3914 GREENMOUNT AVE                     000N        CARE OF             
MTR04212800001000000000000000RA              35118137    005801020000010200000520000003NN  NNW 000                       N    
RDG04212800WATRL000000004K00000000000001340004301092015110030N000100000010U40       005030400K 10000000010000001340           
CUS0421280000104176791004         FABIAN, CRAIG       3912 GREENMOUNT AVE                     000N        CARE OF             
MTR04212800001000000000000000RA              29084691    005801030000010300000520000003NN  NNW 000                       N    
RDG04212800WATRL000000004K00000000000002367004401092015110250N000000000000U40       001400400K 10000000010000002352           
CUS0421280000104176792002         COREY, VERNON L.    3910 GREENMOUNT AVE                     000N        CARE OF             
MTR04212800001000000000000000RA              32904972    005801040000010400000520000003NN  NNW 000                       N    
RDG04212800WATRL000000004K00000000000002018004501092015110356N000300000010U40       000660400K 10000000010000001988           
CUS0421280000104176793000         COLEMAN, DIANE H.   3908 GREENMOUNT AVE                     000N        CARE OF             
MTR04212800001000000000000000RA              29084670    005801050000010500000520000003NN  NNW 000                       N    
RDG04212800WATRL000000004K00000000000001197004601092015110413N000100000010U40       000170400K 10000000010000001197           
CUS0421280000104176794008         KILCHENSTEIN, SCOTT 3906 GREENMOUNT AVE                     000N        CARE OF             
MTR04212800001000000000000000RA              01104722    005801060000010600000570000003NN  NNW 000                       N    
RDG04212800WATRL000000004K00000000000000306004901092015110820N000000000000U40       000930400K 10000000010000000298           
CUS0421280000104176795005         WICKKISER, BARD     3904 GREENMOUNT AVE                     000N        CARE OF             
MTR04212800001000000000000000RA              00118609    007501070000010700000570000003NN  NNW 000                       N    
RDG04212800WATRL000000004K00000000000000782004801092015110647N000000000000U40       000090400K 10000000010000000756           
CUS0421280000104176796003         LUCAS, JUSTIN       3902 GREENMOUNT AVE                     000N        CARE OF             
MTR04212800001000000000000000RA              48582734    005801080000010800000520000003NN  NNW 000                       N    
RDG04212800WATRL000000004K00000000000001385004701092015113916N000300000032U40       001360400K 10000000010000001377           
CUS0421280000104176797001         CULLEN, PETER P     3900 GREENMOUNT AVE                     000N        CARE OF             
MTR04212800001000000000000000RA              10021554    005801090000010900000570000003NN  NNW 000                       N    
RDG04212800WATRL000000004K00000000000000109005001092015111048N000100000010U40       001480400K 10000000010000000109           
CUS0421280000104176798009         KROPFELD, JOSEPH J  402 E 39TH ST                           000N        CARE OF             
MTR04212800001000000000000000RA              29082699    005801100000011100010520000003NN  NNW 000                       N    
RDG04212800WATRL000000004K00000000000001282006401092015115600N000000000000U40       002710400K 10000000010000001250           
CUS0421280000104176799007         KROPFELD, JOSEPH    400 E 39TH ST                           000N        CARE OF             
MTR04212800001000000000000000RA              30002697    007501110000011100000570000003NN  NNW 000                       N    
RDG04212800WATRL000000004K00000000000000033006301092015115129N000000000000U40       007330400K 10000000010000000033           
CUS0421280000104176800003         CROWLEY, WILLIAM H  3901 JUNIPER RD                         000N        CARE OF             
MTR04212800001000000000000000RA              76349497    007501120000011200000350000003NN  NNW 000                       N    
RDG04212800WATRL000000004K00000000000000058006501092015120359N000400000010U40       004790400K 10000000010000000045           
CUS0421280000104176801001         CHRISTEY, RUTH J    3903 JUNIPER RD                         000N        CARE OF             
MTR04212800001000000000000000RA              31581227    005801130000011300000520000003NN  NNW 000                       N    
RDG04212800WATRL000000004K00000000000002056006601092015120510N000400000010U40       000710400K 10000000010000002048           
CUS0421280000104176802009         MAHER, PHILLIP M    3905 JUNIPER RD                         000N        CARE OF             
MTR04212800001000000000000000RA              00117847    007501140000011400000570000003NN  NNW 000                       N    
RDG04212800WATRL000000004K00000000000000000000000000000000000 000000000000U         000000400  10000000010000001096           
CUS0421280000104176803007         GAVIN JR, EDWARD B  3907 JUNIPER RD                         000N        CARE OF             
MTR04212800001000000000000000RA              9693377     007501150000011500000570000003NN  NNW 000                       N    
RDG04212800WATRL000000004K00000000000004262006801092015121251N000000000000U40       000340400K 10000000010000004246           
CUS0421280000104176804005         TALER, GEORGE A     3909 JUNIPER RD                         000N        CARE OF             
MTR04212800001000000000000000RA              75423675    005801160000011600000350000003NN  NNW 000                       N    
RDG04212800WATRL000000004K00000000000000000006901092015121639S001000000000U40       002280400K 10000000010000000034           
CUS0421280000104176805002         OLMSTEAD, MICHAEL G.3911 JUNIPER RD                         000N        CARE OF             
MTR04212800001000000000000000RA              00118911    007501170000011700000570000003NN  NNW 000                       N    
RDG04212800WATRL000000004K00000000000001200007001092015121729N000000000000U40       000500400K 10000000010000001145           
CUS0421280000104176806000         JOHN NESBITT        3913 JUNIPER RD                         000N        CARE OF             
MTR04212800001000000000000000RA              14928230    007501180000011800000310000003NN  NNW 000                       N    
RDG04212800WATRL000000004K00000000000000569007101092015121851N000000000000U40       000820400K 10000000010000000554           
CUS0421280000104176807008         CATHER, LOUISE      3915 JUNIPER RD                         000N        CARE OF             
MTR04212800001000000000000000RA              99412084    007501190000011900000570000003NN  NNW 000                       N    
RDG04212800WATRL000000004K00000000000001546007201092015122015N000400000010U40       000840400K 10000000010000001532           
CUS0421280000104176808006         SOUMMER, REMI       3917 JUNIPER RD                         000N        CARE OF             
MTR04212800001000000000000000RA              99291049    005801200000012000000570000003NN  NNW 000                       N    
RDG04212800WATRL000000004K00000000000000986007301092015122152N000000000000U40       000970400K 10000000010000000969           
CUS0421280000104176809004         CURTIS, RICHARD L   3919 JUNIPER RD                         000N        CARE OF             
MTR04212800001000000000000000RA              10023141    005801210000012100000570000003NN  NNW 000                       N    
RDG04212800WATRL000000004K00000000000000293007401092015122251N000000000000U40       000590400K 10000000010000000262           
CUS0421280000104176810002         THOENI, PARKER E    3919-1/2 JUNIPER RD                     000N        CARE OF             
MTR04212800001000000000000000RA              10003964    005801220000012200000570000003NN  NNW 000                       N    
RDG04212800WATRL000000004K00000000000000553007501092015122511N000000000000U40       001400400K 10000000010000000521           
CUS0421280000104176811000         RUSSELL III, GEORGE 3921 JUNIPER RD                         000N        CARE OF             
MTR04212800001000000000000000RA              00163343    000101230000012300000570000003NN  NNW 000                       N    
RDG04212800WATRL000000004K00000000000001316007601092015122604N000000000000U40       000530400K 10000000010000001276           
CUS0421280000104176812008         BRYAN, CHARLES E    3923 JUNIPER RD                         000N        CARE OF             
MTR04212800001000000000000000RA              30526265    007501240000012400000520000003NN  NNW 000                       N    
RDG04212800WATRL000000004K00000000000001994007701092015122737N000000000000U40       000930400K 10000000010000001955           
CUS0421280000104176813006         MAURICE J BESSMAN   3912 JUNIPER RD                         000N        CARE OF             
MTR04212800001000000000000000RA              10021321    005801250000012500000570000003NN  NNW 000                       N    
RDG04212800WATRL000000004K00000000000000141007801092015122917N000300000010U40       001000400K 10000000010000000133           
CUS0421280000104176814004         WILSON J RUGH 2ND ET3906 JUNIPER RD                         000N        CARE OF             
MTR04212800001000000000000000RA              30001420    007501260000012600000570000003NN  NNW 000                       N    
RDG04212800WATRL000000004K00000000000000147007901092015123116N000000000000U40       001190400K 10000000010000000135           
CUS0421280000104176815001         GIVELBERG, EDWARD   3904 JUNIPER RD                         000N        CARE OF             
MTR04212800001000000000000000RA              35112827    007501270000012700000520000003NN  NNW 000                       N    
RDG04212800WATRL000000004K00000000000003475008001092015123209N000000000000U40       000530400K 10000000010000003470           
CUS0421280000104176816009         FORRENCE, JENNIFER L3902 JUNIPER RD                         000N        CARE OF             
MTR04212800001000000000000000RA              99412380    007501280000012800000570000003NN  NNW 000                       N    
RDG04212800WATRL000000004K00000000000001363008101092015123305N000000000000U40       000560400K 10000000010000001348           
CUS0421280000104176817007         HARRIS, WILLIE A.   3900 JUNIPER RD                         000N        CARE OF             
MTR04212800001000000000000000RA              75427252    007501290000012900000350000003NN  NNW 000                       N    
RDG04212800WATRL000000004K00000000000000136008201092015123511N000000000000U40       001260400K 10000000010000000113           
CUS0421280000104176818005         THOMPSON, KENNETH L 208 KEMBLE RD                           000N        CARE OF             
MTR04212800001000000000000000RA              30001988    007501300000013000000570000003NN  NNW 000                       N    
RDG04212800WATRL000000004K00000000000000607008301092015124303N000400000010U40       004720400K 10000000010000000591           
CUS0421280000104176819003         CARTER, RUSSELL P   206 KEMBLE RD                           000N        CARE OF             
MTR04212800001000000000000000RA              01098290    007501310000013100000610000003NN  NNW 000                       N    
RDG04212800WATRL000000004K00000000000000637008401092015124340N000400000010U40       000370400K 10000000010000000622           
CUS0421280000104349171001         SHELTAN, BENJAMIN F 204-1/2 KEMBLE RD                       000N        CARE OF             
MTR04212800001000000000000000RA              26009902    005801320000013200000520000003NN  NNW 000                       N    
RDG04212800WATRL000000004K00000000000003970010801092015141130N000000000000U40       000810400K 10000000010000003959           
CUS0421280000104176820001         MATHESON, BARBARA   202 KEMBLE RD                           000N        CARE OF             
MTR04212800001000000000000000RA              33416032    007501330000013300000520000003NN  NNW 000                       N    
RDG04212800WATRL000000004K00000000000000000000000000000000000 000000000000U         000000400  10000000010000006285           
CUS0421280000104176821009         PEACE IV, CHARLES F 201 KEMBLE RD                           000N        CARE OF             
MTR04212800001000000000000000RA              29084761    005801340000013400000520000003NN  NNW 000                       N    
RDG04212800WATRL000000004K00000000000003412008501092015125157N000000000000U40       004970400K 10000000010000003412           
CUS0421280000104176822007         DIGNEY, ROSEMARY DON203 KEMBLE RD                           000N        CARE OF             
MTR04212800001000000000000000RA              10010476    005801350000013500000570000003NN  NNW 000                       N    
RDG04212800WATRL000000004K00000000000000312008601092015125348N000000000000U40       001110400K 10000000010000000301           
CUS0421280000104176823005         GROSHKO, CHRISTOPHER205 KEMBLE RD                           000N        CARE OF             
MTR04212800001000000000000000RA              14918563    007501360000013600000310000003NN  NNW 000                       N    
RDG04212800WATRL000000004K00000000000000000000000000000000000 000000000000U         000000400  10000000010000000316           
CUS0421280000104176824003         MASON, MALCOLM W    207 KEMBLE RD                           000N        CARE OF             
MTR04212800001000000000000000RA              41089777    007501370000013700000520000003NN  NNW 000                       N    
RDG04212800WATRL000000004K00000000000002156008901092015125921N000000000011U40       000440400K 10000000010000002146           
CUS0421280000104176825000         FREEMAN, EVELYN A   209 KEMBLE RD                           000N        CARE OF             
MTR04212800001000000000000000RA              29121746    007501380000013800000520000003NN  NNW 000                       N    
RDG04212800WATRL000000004K00000000000003564008801092015125824N000000000000U40       001510400K 10000000010000003554           
CUS0421280000104176826008         HARDER, LAWRENCE J  211 KEMBLE RD                           000N        CARE OF             
MTR04212800001000000000000000RA              01085590    005801390000013900000610000003NN  NNW 000                       N    
RDG04212800WATRL000000004K00000000000000000000000000000000000 000000000000U         000000400  10000000010000001513           
CUS0421280000104176827006         MCGILL, HELEN OWENS 213 KEMBLE RD                           000N        CARE OF             
MTR04212800001000000000000000RA              00120531    007501400000014000000570000003NN  NNW 000                       N    
RDG04212800WATRL000000004K00000000000000000009101092015130504S063000000000U40       000410400K 10000000010000000209           
CUS0421280000104176828004         GEMMILL, GUY H.     226 E 39TH ST                           000N        CARE OF             
MTR04212800001000000000000000RA              44030016    007501410000014100000520000003NN  NNW 000                       N    
RDG04212800WATRL000000004K00000000000002944009001092015131542N000000000001U40       000120400K 10000000010000002923           
CUS0421280000104176829002         BIGLEY, SHIRLEY L   224 E 39TH ST                           000N        CARE OF             
MTR04212800001000000000000000RA              99999999    005801420000014200000350000003NN  NNW 000                       N    
RDG04212800WATRL000000004K00000000000000134009201092015131334N000000000000U40       005100400K 10000000010000000118           
CUS0421280000104176830000         SERINO, JACLYN      222 E 39TH ST                           000N        CARE OF             
MTR04212800001000000000000000RA              76347354    005801430000014300000350000003NN  NNW 000                       N    
RDG04212800WATRL000000004K00000000000000171009301092015131530N000000000000U40       001160400K 10000000010000000160           
CUS0421280000104176831008         FROST, JASON M      216 E 39TH ST                           000N        CARE OF             
MTR04212800001000000000000000RA              29084764    005801440000014400000520000003NN  NNW 000                       N    
RDG04212800WATRL000000004K00000000000004823009401092015131759N000300000010U40       001370400K 10000000010000004808           
CUS0421280000104176832006         MEIER, CHRISTOPHER A212 E 39TH ST                           000N        CARE OF             
MTR04212800001000000000000000RA              99412376    007501450000014500000570000003NN  NNW 000                       N    
RDG04212800WATRL000000004K00000000000001520009501092015131908N000000000000U40       000690400K 10000000010000001519           
CUS0421280000104176833004         SEN, RANJAN         208 E 39TH ST                           000N        CARE OF             
MTR04212800001000000000000000RA              27894209    007501460000014600000520000003NN  NNW 000                       N    
RDG04212800WATRL000000004K00000000000004581009601092015132016N000400000010U40       000680400K 10000000010000004565           
CUS0421280000104176834002         TROUSDALE, WILLIAM F204 E 39TH ST                           000N        CARE OF             
MTR04212800001000000000000000RA              36698126    005801470000014700000520000003NN  NNW 000                       N    
RDG04212800WATRL000000004K00000000000002554009701092015132525N000000000000U40       003090400K 10000000010000002533           
CUS0421280000104176835009         BRYCE H MCMULLEN & W3901 GREENWAY                           000N        CARE OF             
MTR04212800001000000000000000RA              00118316    007501480000014800000570000003NN  NNW 000                       N    
RDG04212800WATRL000000004K00000000000000892010301092015135334N000400000010U40       002490400K 10000000010000000831           
CUS0421280000104176836007         TOWSON UNIVERSITY   3903 GREENWAY                           000N        CARE OF             
MTR04212800001000000000000000RA              30528427    007501490000014900000520000003NN  NNW 000                       N    
RDG04212800WATRL000000004K00000000000005362010201092015134925N000000000000U40       006520400K 10000000010000005329           
CUS0421280000104176837005         CHARLES G EDWARDS & 3907 GREENWAY                           000N        CARE OF             
MTR04212800001000000000000000RA              99314770    000101500000015000000570000003NY  NNW 000                       N    
MTM0421280099314770    NEED CLEAN OUT                                                                                         
RDG04212800WATRL000000004K00000000000000000000000000000000000 000000000000U         000000400  10000000010000004687           
CUS0421280000104176838003         WONDISFORD, FREDRIC 4001 GREENWAY                           000N        CARE OF             
MTR04212800001000000000000000RA              41193728    007501510000015100000520000003NY  NNW 000                       N    
MTM0421280041193728    CLEAN OUT FULL OF MUD                                                                                  
RDG04212800WATRL000000004K00000000000000000000000000000000000 000000000000U         000000400  10000000010000004871           
CUS0421280000104176839001         PAVLOVICH, CHRISTIAN4005 GREENWAY                           000N        CARE OF             
MTR04212800001000000000000000RA              99080676    007501520000015200000570000003NN  NNW 000                       N    
RDG04212800WATRL000000004K00000000000005648010101092015133833N000400000010U40       001040400K 10000000010000005618           
CUS0421280000104176840009         MASON, JEFF         4007 GREENWAY                           000N        CARE OF             
MTR04212800001000000000000000RA              29121697    007501530000015300000520000003NN  NNW 000                       N    
RDG04212800WATRL000000004K00000000000002258010001092015133649N000000000000U40       001030400K 10000000010000002225           
CUS0421280000104176841007         PUSHKIN, GARY W.    4101 GREENWAY                           000N        CARE OF             
MTR04212800001000000000000000RA              01098222    007501540000015400000610000003NN  NNW 000                       N    
RDG04212800WATRL000000004K00000000000001706009901092015133506N000000000000U40       001080400K 10000000010000001681           
CUS0421280000104176842005         COLLINS, NATHALIE R 4105 GREENWAY                           000N        CARE OF             
MTR04212800001000000000000000RA              99412377    007501550000015500000570000003NN  NNW 000                       N    
RDG04212800WATRL000000004K00000000000001096009801092015133318N000000000000U40       004730400K 10000000010000001065           
CUS0421280000104176843003         GEORGE T TYLER & WF 4201 GREENWAY                           000N        CARE OF             
MTR04212800001000000000000000RA              00163345    000101560000015600000570000003NN  NNW 000                       N    
RDG04212800WATRL000000004K00000000000002567010601092015140258N000000000000U40       001380400K 10000000010000002516           
CUS0421280000104176844001         O'BRIEN, PATRICK .  4207 GREENWAY                           000N        CARE OF             
MTR04212800001000000000000000RA              00163340    000101570000015700000570000003NN  NNW 000                       N    
RDG04212800WATRL000000004K00000000000002872010501092015140040N000400000010U40       001160400K 10000000010000002846           
CUS0421280000104176845008         WITT, JUDY M    (TR)4215 GREENWAY                           000N        CARE OF             
MTR04212800001000000000000000RA              29724374    001501580000015800000520000003NN  NNW 000                       N    
RDG04212800WATRL000000005K00000000000001589010401092015135844N000000000000U40       003100500K 10000000010000001573           
RTR04212800NN01580158000001580000000001580158000281YY015801580158000800020000000000000000000001    12022014NY020000 I         
RHD04233400NN02330233000002330000000002330233000193NY023302330233001000040000000000000000000001    12022014NY020000 N         
CUS0423340000104232312001         928-34 BELGIAN AVE  928-34 BELGIAN AVE                      000N        CARE OF             
MTR04233400001000000000000000RA              31588148    001500010000000100000520000003NN  NNW 000                       N    
RDG04233400WATRL000000005K00000000000088636006001082015105656N000000000081N40       000340500K 10000000010000088380           
CUS0423340000104232313009         912-16 BELGIAN AVE  912-16 BELGIAN AVE                      000N        CARE OF             
MTR04233400001000000000000000RA              14914829    001500020000000200000310000003NN  NNW 000                       N    
RDG04233400WATRL000000005K00000000000005931005901082015102728N000000000000N40       000890500K 10000000010000005653           
CUS0423340000104232314007         908-10 BELGIAN AVE  908-10 BELGIAN AVE                      000N        CARE OF             
MTR04233400001000000000000000RA              41091038    000100030000000300000520000003NN  NNW 000                       N    
RDG04233400WATRL000000004K00000000000009881005801082015102559N000000000000N40       000730400K 10000000010000009782           
CUS0423340000104232315004         900-06 BELGIAN AVE  900-06 BELGIAN AVE                      000N        CARE OF             
MTR04233400001000000000000000RA              27316361    001500040000000400000520000003NN  NNW 000                       N    
RDG04233400WATRL000000005K00000000000030652005701082015102446N000000000000N40       000770500K 10000000010000030252           
CUS0423340000104232316002         820-24 BELGIAN AVE  820-24 BELGIAN AVE                      000N        CARE OF             
MTR04233400001000000000000000RA              26100903    001500050000000500000520000003NN  NNW 000                       N    
RDG04233400WATRL000000005K00000000000013706005601082015102329N000000000000N40       000680500K 10000000010000013507           
CUS0423340000104388064000         MITCHELL, LORRAINE D816 BELGIAN AVE                         000N        CARE OF             
MTR04233400001000000000000000RA              39290726    005800060000000600000520000003NN  NNW 000                       N    
RDG04233400WATRL000000004K00000000000002227005501082015102221N000000000000N40       000020400K 10000000010000002227           
CUS0423340000104388063002         GOODMAN, PAULA      814 BELGIAN AVE                         000N        CARE OF             
MTR04233400001000000000000000RA              45380661    005800070000000700000520000003NN  NNW 000                       N    
RDG04233400WATRL000000004K00000000000001925005401082015102219N000400000010N40       000810400K 10000000010000001924           
CUS0423340000104232318008         DAVENPORT, SHARON E 812 BELGIAN AVE                         000N        CARE OF             
MTR04233400001000000000000000RA              31582812    005800080000000800000520000003NN  NNW 000                       N    
RDG04233400WATRL000000004K00000000000001462005301082015102058N000000000000N40       000510400K 10000000010000001456           
CUS0423340000104232319006         CROWDER, VANENIA    810 BELGIAN AVE                         000N        CARE OF             
MTR04233400001000000000000000RA              76345065    005800090000000900000350000003NN  NNW 000                       N    
RDG04233400WATRL000000004K00000000000000000005201082015102007N000000000000N40       000420400K 10000000010000000000           
CUS0423340000104232320004         ROBERT DUVAL        808 BELGIAN AVE                         000N        CARE OF             
MTR04233400001000000000000000RA              33729548    005800100000001000000520000003NN  NNW 000                       N    
RDG04233400WATRL000000004K00000000000003250005101082015101925N000000000000N40       000290400K 10000000010000003235           
CUS0423340000104232321002         DUVAL JR., ROBERT B 806 BELGIAN AVE                         000N        CARE OF             
MTR04233400001000000000000000RA              11427120    005800110000001100000570000003NN  NNW 000                       N    
RDG04233400WATRL000000004K00000000000003588005001082015101856N000300000010N40       000410400K 10000000010000003577           
CUS0423340000104232322000         RYAN, KEVIN A       804 BELGIAN AVE                         000N        CARE OF             
MTR04233400001000000000000000RA              33729551    005800120000001200000520000003NN  NNW 000                       N    
RDG04233400WATRL000000004K00000000000002542004901082015101815N000000000000N40       000350400K 10000000010000002523           
CUS0423340000104232323008         R & R HOME REALTY, L802 BELGIAN AVE                         000N        CARE OF             
MTR04233400001000000000000000RA              00127319    005800130000001300000570000003NN  NNW 000                       N    
RDG04233400WATRL000000004K00000000000001067004801082015101740N000000000000N40       000690400K 10000000010000001043           
CUS0423340000104232324006         RICHARDSON, DOUGLAS 800 BELGIAN AVE                         000N        CARE OF             
MTR04233400001000000000000000RA              10023373    005800140000001400000570000003NN  NNW 000                       N    
RDG04233400WATRL000000004K00000000000000154004701082015101631N000100000010N40       000430400K 10000000010000000154           
CUS0423340000104232325003         SONJI M DOUGLASS    746 BELGIAN AVE                         000N        CARE OF             
MTR04233400001000000000000000RA              31584366    005800150000001500000520000003NN  NNW 000                       N    
RDG04233400WATRL000000004K00000000000002607004601082015101548N000000000000N40       000050400K 10000000010000002602           
CUS0423340000104232326001         TAYLOR, SCHASWETTE  744 BELGIAN AVE                         000N        CARE OF             
MTR04233400001000000000000000RA              19461314    005800160000001600000520000003NN  NNW 000                       N    
RDG04233400WATRL000000004K00000000000006745004501082015101543N000000000000N40       000310400K 10000000010000006738           
CUS0423340000104232327009         HELEN F THOMAS      742 BELGIAN AVE                         000N        CARE OF             
MTR04233400001000000000000000RA              74687864    005800170000001700000350000003NN  NNW 000                       N    
RDG04233400WATRL000000004K00000000000000079004401082015101512N000000000000N40       000030400K 10000000010000000068           
CUS0423340000104232328007         JONES, OMER H       740 BELGIAN AVE                         000N        CARE OF             
MTR04233400001000000000000000RA              31582809    005800180000001800000520000003NN  NNW 000                       N    
RDG04233400WATRL000000004K00000000000001415004301082015101509N000000000000N40       000360400K 10000000010000001410           
CUS0423340000104232329005         BAILEY, JARMAR C    738 BELGIAN AVE                         000N        CARE OF             
MTR04233400001000000000000000RA              32574068    005800190000001900000520000003NN  NNW 000                       N    
RDG04233400WATRL000000004K00000000000001991004201082015101433N000000000000N40       000050400K 10000000010000001984           
CUS0423340000104232330003         PROULX, LINNETTE M. 736 BELGIAN AVE                         000N        CARE OF             
MTR04233400001000000000000000RA              50790725    005800200000002000000520000003NN  NNW 000                       N    
RDG04233400WATRL000000004K00000000000000612004101082015101428N000000000000N40       000470400K 10000000010000000604           
CUS0423340000104232331001         DREWER, CHRIS       734 BELGIAN AVE                         000N        CARE OF             
MTR04233400001000000000000000RA              01089858    005800210000002100000610000003NN  NNW 000                       N    
RDG04233400WATRL000000004K00000000000000326004001082015101341N000000000000N40       000040400K 10000000010000000300           
CUS0423340000104232332009         CARRIE ROSSER       732 BELGIAN AVE                         000N        CARE OF             
MTR04233400001000000000000000RA              01089541    005800220000002200000610000003NN  NNW 000                       N    
RDG04233400WATRL000000004K00000000000000408003901082015101337N000000000000N40       001040400K 10000000010000000402           
CUS0423340000104232333007         RINGGOLD, KENNETH D 730 BELGIAN AVE                         000N        CARE OF             
MTR04233400001000000000000000RA              01103994    005800230000002300000610000003NN  NNW 000                       N    
RDG04233400WATRL000000004K00000000000000475003801082015101153N000000000000N40       000060400K 10000000010000000469           
CUS0423340000104232334005         HAGOOD, SHERYL N    728 BELGIAN AVE                         000N        CARE OF             
MTR04233400001000000000000000RA              01103953    005800240000002400000610000003NN  NNW 000                       N    
RDG04233400WATRL000000004K00000000000000389003701082015101147N000000000000N40       000430400K 10000000010000000384           
CUS0423340000104232335002         EATON, VANESSA B    726 BELGIAN AVE                         000N        CARE OF             
MTR04233400001000000000000000RA              99389853    005800250000002500000570000003NN  NNW 000                       N    
RDG04233400WATRL000000004K00000000000001506003601082015101104N000400000010N40       000110400K 10000000010000001490           
CUS0423340000104232336000         V QUEST LIMITED, LLC724 BELGIAN AVE                         000N        CARE OF             
MTR04233400001000000000000000RA              99389855    005800260000002600000570000003NN  NNW 000                       N    
RDG04233400WATRL000000004K00000000000000301003501082015101053N000000000000N40       000380400K 10000000010000000272           
CUS0423340000104232337008         DONALDSON, CHRISTANA722 BELGIAN AVE                         000N        CARE OF             
MTR04233400001000000000000000RA              99389040    005800270000002700000570000003NN  NNW 000                       N    
RDG04233400WATRL000000004K00000000000000655003401082015101015N000000000000N40       000030400K 10000000010000000644           
CUS0423340000104232338006         PHILLIP ADAMS & WF  720 BELGIAN AVE                         000N        CARE OF             
MTR04233400001000000000000000RA              99390284    005800280000002800000570000003NN  NNW 000                       N    
RDG04233400WATRL000000004K00000000000000833003301082015101012N000000000000N40       000380400K 10000000010000000823           
CUS0423340000104232339004         MCFADDEN, EVELYN    718 BELGIAN AVE                         000N        CARE OF             
MTR04233400001000000000000000RA              23427168    005800290000002900000520000003NN  NNW 000                       N    
RDG04233400WATRL000000004K00000000000003944003201082015100934N000000000000N40       000060400K 10000000010000003933           
CUS0423340000104232340002         CANN, JAMES E       716 BELGIAN AVE                         000N        CARE OF             
MTR04233400001000000000000000RA              26015280    005800300000003000000520000003NN  NNW 000                       N    
RDG04233400WATRL000000004K00000000000003632003101082015100928N000000000020N40       000690400K 10000000010000003614           
CUS0423340000104232341000         VALERIE WOODARD     714 BELGIAN AVE                         000N        CARE OF             
MTR04233400001000000000000000RA              01108522    005800310000003100000610000003NN  NNW 000                       N    
RDG04233400WATRL000000004K00000000000000869003001082015100819N000000000000N40       000040400K 10000000010000000857           
CUS0423340000104232342008         CRYSTAL MOUNTAIN INV712 BELGIAN AVE                         000N        CARE OF             
MTR04233400001000000000000000RA              48582965    005800320000003200000520000003NN  NNW 000                       N    
RDG04233400WATRL000000004K00000000000001944002901082015100815N000000000000N40       000720400K 10000000010000001932           
CUS0423340000104232343006         WOODARD, ERNEST     710 BELGIAN AVE                         000N        CARE OF             
MTR04233400001000000000000000RA              99388401    005800330000003300000570000003NN  NNW 000                       N    
RDG04233400WATRL000000004K00000000000001679002801082015100703N000000000010N40       000940400K 10000000010000001679           
CUS0423340000104232344004         RIVER EDGE REALTY, L708 BELGIAN AVE                         000N        CARE OF             
MTR04233400001000000000000000RA              99375754    007500340000003400000570000003NN  NNW 000                       N    
RDG04233400WATRL000000004K00000000000000768002701082015100529N000000000010N40       000750400K 10000000010000000767           
CUS0423340000104232345001         HAMMER, CLAIRE      706 BELGIAN AVE                         000N        CARE OF             
MTR04233400001000000000000000RA              14916505    005800350000003500000310000003NN  NNW 000                       N    
RDG04233400WATRL000000004K00000000000000550002601082015100414N000000000000N40       000170400K 10000000010000000538           
CUS0423340000104232346009         HAMMER, JAMES H     704 BELGIAN AVE                         000N        CARE OF             
MTR04233400001000000000000000RA              14916393    005800360000003600000310000003NN  NNW 000                       N    
RDG04233400WATRL000000004K00000000000000866002501082015100357N000000000000N40       000300400K 10000000010000000844           
CUS0423340000104232347007         JOHNSON, BETTY ANN  702 BELGIAN AVE                         000N        CARE OF             
MTR04233400001000000000000000RA              46889924    007500370000003700000520000003NN  NNW 000                       N    
RDG04233400WATRL000000004K00000000000001468002401082015100327N000000000000N40       000470400K 10000000010000001465           
CUS0423340000104232349003         MALONE, SIMAL L     4100 FRISBY ST                          000N        CARE OF             
MTR04233400001000000000000000RA              9692374     007500380000003800000520000003NN  NNW 000                       N    
RDG04233400WATRL000000004K00000000000004111002301082015100240N000000000000N40       000570400K 10000000010000004111           
CUS0423340000104232350001         SPELLEN, EDWARD     620 E 41ST ST                           000N        CARE OF             
MTR04233400001000000000000000RA              00119794    007500390000003900000570000003NN  NNW 000                       N    
RDG04233400WATRL000000004K00000000000001523002201082015100143N000000000000N40       000390400K 10000000010000001469           
CUS0423340000104232351009         SPENCE IV, NEHEMIAH 618 E 41ST ST                           000N        CARE OF             
MTR04233400001000000000000000RA              99412410    007500400000004000000570000003NN  NNW 000                       N    
RDG04233400WATRL000000004K00000000000001438002101082015100104N000000000000N40       000570400K 10000000010000001422           
CUS0423340000104232352007         HABC                616 E 41ST ST                           000N        CARE OF             
MTR04233400001000000000000000RA              52771370    007500410000004100000520000003NN  NNW 000                       N    
RDG04233400WATRL000000004K00000000000001377002001082015100007N000000000000N40       000670400K 10000000010000001369           
CUS0423340000104232353005         GIBBS, VENA         614 E 41ST ST                           000N        CARE OF             
MTR04233400001000000000000000RA              76349861    007500420000004200000350000003NN  NNW 000                       N    
RDG04233400WATRL000000004K00000000000000031001901082015095900N000000000000N40       000810400K 10000000010000000021           
CUS0423340000104232354003         NOEL JACOB          612 E 41ST ST                           000N        CARE OF             
MTR04233400001000000000000000RA              26375431    007500430000004300000520000003NN  NNW 000                       N    
RDG04233400WATRL000000004K00000000000003393001801082015095739N000000000000N40       000530400K 10000000010000003393           
CUS0423340000104232355000         LAND MARSHA D       610 E 41ST ST                           000N        CARE OF             
MTR04233400001000000000000000RA              30000415    007500440000004400000570000003NN  NNW 000                       N    
RDG04233400WATRL000000004K00000000000000258001701082015095646N000000000000N40       000530400K 10000000010000000252           
CUS0423340000104232356008         BAKER, BETTY L.     608 E 41ST ST                           000N        CARE OF             
MTR04233400001000000000000000RA              99412134    007500450000004500000570000003NN  NNW 000                       N    
RDG04233400WATRL000000004K00000000000000854001601082015095553N000000000000N40       000660400K 10000000010000000844           
CUS0423340000104232357006         BATTY, ELZINIA E    606 E 41ST ST                           000N        CARE OF             
MTR04233400001000000000000000RA              48591884    005800460000004600000520000003NN  NNW 000                       N    
RDG04233400WATRL000000004K00000000000000704001501082015095447N000000000000N40       000630400K 10000000010000000701           
CUS0423340000104232358004         WHITE, PERRY M.     604 E 41ST ST                           000N        CARE OF             
MTR04233400001000000000000000RA              24625101    007500470000004700000520000003NN  NNW 000                       N    
RDG04233400WATRL000000004K00000000000003596001401082015095344N000000000000N40       001080400K 10000000010000003586           
CUS0423340000104232362006         BLESSED SACRAMENT   4103 OLD YORK RD                        000N        CARE OF             
MTR04233400001000000000000000RA              01097929    007500480000004800000610000003NN  NNW 000                       N    
RDG04233400WATRL000000004K00000000000000558001301082015095156N000000000000N40       000800400K 10000000010000000485           
CUS0423340000104232364002         TRUONG, TINA        508 E 42ND ST                           000N        CARE OF             
MTR04233400001000000000000000RA              14922222    005800490000004900000310000003NN  NNW 000                       N    
RDG04233400WATRL000000004K00000000000000597001201082015095036N000000000000N40       000600400K 10000000010000000578           
CUS0423340000104232365009         ELLIOTT, CELIA D    506 E 42ND ST                           000N        CARE OF             
MTR04233400001000000000000000RA              24769853    005800500000005000000520000003NN  NNW 000                       N    
RDG04233400WATRL000000004K00000000000002962001101082015094936N000000000000N40       000500400K 10000000010000002950           
CUS0423340000104232366007         DONALD ROBINSON     504 E 42ND ST                           000N        CARE OF             
MTR04233400001000000000000000RA              99189168    005800510000005100000570000003NN  NNW 000                       N    
RDG04233400WATRL000000004K00000000000000012001001082015094846N000000000000N40       000570400K 10000000010000000012           
CUS0423340000104232367005         FAITH CHRISTIAN FELL502 E 42ND ST                           000N        CARE OF             
MTR04233400001000000000000000RA              41089849    007500520000005200000520000003NN  NNW 000   VACANT PROPERTY     N    
RDG04233400WATRL000000004K00000000000000000000901082015094749S022000000000N40       000030400K 10000000010000003908           
CUS0423340000104232368003         FAITH CHRISTIAN FELL500-1/2 E 42ND ST                       000N        CARE OF             
MTR04233400001000000000000000RA              40322533    005800530000005300000520000003NN  NNW 000   VACANT PROPERTY     N    
RDG04233400WATRL000000004K00000000000000000000801082015094746S022000000000N40       000230400K 10000000010000001606           
CUS0423340000104232369001         DAVID G S GREENE    500 E 42ND ST                           000N        CARE OF             
MTR04233400001000000000000000RA              01090045    005800540000005400000610000003NN  NNW 000                       N    
RDG04233400WATRL000000004K00000000000000661000701082015094723N000000000000N40       000390400K 10000000010000000650           
CUS0423340000104232370009         FAITH CHRISTIAN     505 E 42ND ST                           000N        CARE OF             
MTR04233400001000000000000000RA              41089904    007500550000005500000520000003NN  NNW 000                       N    
RDG04233400WATRL000000004K00000000000003636000601082015094644N000000000010N40       000950400K 10000000010000003625           
CUS0423340000104232371007         ENTNER, JONATHAN    509 E 42ND ST                           000N        CARE OF             
MTR04233400001000000000000000RA              46890035    007500560000005600000520000003NN  NNW 000                       N    
RDG04233400WATRL000000004K00000000000002202000501082015094509N000000000000N40       000660400K 10000000010000002185           
CUS0423340000104232372005         MERRILL, JOSHUA COBB511 E 42ND ST                           000N        CARE OF             
MTR04233400001000000000000000RA              45388028    007500570000005700000520000003NN  NNW 000                       N    
RDG04233400WATRL000000004K00000000000001601000401082015094403N000400000010N40       000980400K 10000000010000001592           
CUS0423340000104232374001         SIPPEL, EMILY J     518 E 41ST ST                           000N        CARE OF             
MTR04233400001000000000000000RA              25591854    007500580000005800000520000003NN  NNW 000                       N    
RDG04233400WATRL000000004K00000000000003616000301082015094225N000000000000N40       000420400K 10000000010000003607           
CUS0423340000104232375008         BENSON, STEPHEN G   516 E 41ST ST                           000N        CARE OF             
MTR04233400001000000000000000RA              31345629    007500590000005900000520000003NN  NNW 000                       N    
RDG04233400WATRL000000004K00000000000003778000201082015094143N000000000000N40       000420400K 10000000010000003764           
CUS0423340000104232376006         NALTY, CHARMAINE    514 E 41ST ST                           000N        CARE OF             
MTR04233400001000000000000000RA              31345626    007500600000006000000520000003NN  NNW 000                       N    
RDG04233400WATRL000000004K00000000000005796000101082015094101N000000000000N40       000000400K 10000000010000005774           
CUS0423340000104232377004         JACKSON, KEITH WILLI512 E 41ST ST                           000N        CARE OF             
MTR04233400001000000000000000RA              78028482    007500610000006100000350000003NN  NNW 000                       N    
RDG04233400WATRL000000004K00000000000000000000101082015092544S001000000000N40       000000400K 10000000010000000009           
CUS0423340000104232378002         NANCY OCHRZCIN      510 E 41ST ST                           000N        CARE OF             
MTR04233400001000000000000000RA              41089686    007500620000006200000520000003NN  NNW 000                       N    
RDG04233400WATRL000000004K00000000000001848000201082015092636N000400000011N40       000390400K 10000000010000001846           
CUS0423340000104232379000         WEBB, LARRY E       508 E 41ST ST                           000N        CARE OF             
MTR04233400001000000000000000RA              74815260    007500630000006300000350000003NN  NNW 000                       N    
RDG04233400WATRL000000004K00000000000000069000301082015092707N000000000000N40       000310400K 10000000010000000057           
CUS0423340000104232380008         LARRY E WEBB        506 E 41ST ST                           000N        CARE OF             
MTR04233400001000000000000000RA              74815258    007500640000006400000350000003NN  NNW 000                       N    
RDG04233400WATRL000000004K00000000000000486000401082015092742N000000000000N40       000350400K 10000000010000000471           
CUS0423340000104232381006         GEORGE P NEUBECK JR 504 E 41ST ST                           000N        CARE OF             
MTR04233400001000000000000000RA              45389261    007500650000006500000520000003NN  NNW 000                       N    
RDG04233400WATRL000000004K00000000000001705000501082015092837N000300000010N40       000550400K 10000000010000001689           
CUS0423340000104232382004         FAITH CHRISTIAN FELL502 E 41ST ST                           000N        CARE OF             
MTR04233400001000000000000000RA              99080726    007500660000006600000570000003NN  NNW 000                       N    
RDG04233400WATRL000000004K00000000000003844000601082015092922N000000000000N40       000450400K 10000000010000003775           
CUS0423340000104232383002         FAITH CHRISTIAN FELL500 E 41ST ST                           000N        CARE OF             
MTR04233400001000000000000000RA              10018294    005800670000006700000570000003NN  NNW 000                       N    
RDG04233400WATRL000000004K00000000000000531000701082015092950N000000000000N40       000280400K 10000000010000000495           
CUS0423340000104232384000         LEDFORD, DOROTHY H  501 E 41ST ST                           000N        CARE OF             
MTR04233400001000000000000000RA              22611000    000100680000006800000520000003NN  NNW 000                       N    
RDG04233400WATRL000000004K00000000000005732000801082015093018N000000000000N40       000280400K 10000000010000005694           
CUS0423340000104232385007         STEPHEN G BENSON    503 E 41ST ST                           000N        CARE OF             
MTR04233400001000000000000000RA              33736452    007500690000006900000520000003NN  NNW 000                       N    
RDG04233400WATRL000000004K00000000000004292000901082015093114N000000000000N40       000560400K 10000000010000004268           
CUS0423340000104232386005         MARTIN, JOHN DARRELL505 E 41ST ST                           000N        CARE OF             
MTR04233400001000000000000000RA              29069535    007500700000007000000520000003NN  NNW 000                       N    
RDG04233400WATRL000000004K00000000000004618001001082015093151N000000000000N40       000370400K 10000000010000004592           
CUS0423340000104232387003         ASAD, YOOSUF        507 E 41ST ST                           000N        CARE OF             
MTR04233400001000000000000000RA              33736448    007500710000007100000520000003NN  NNW 000                       N    
RDG04233400WATRL000000004K00000000000003889001101082015093224N000000000000N40       000330400K 10000000010000003855           
CUS0423340000104232388001         WEBB, LARRY E       509 E 41ST ST                           000N        CARE OF             
MTR04233400001000000000000000RA              74815259    007500720000007200000350000003NN  NNW 000                       N    
RDG04233400WATRL000000004K00000000000000458001201082015093310N000000000000N40       000460400K 10000000010000000420           
CUS0423340000104232389009         ROGER J MCGUIGAN & W511 E 41ST ST                           000N        CARE OF             
MTR04233400001000000000000000RA              26375870    007500730000007300000520000003NN  NNW 000                       N    
RDG04233400WATRL000000004K00000000000003878001301082015093344N000000000000N40       000340400K 10000000010000003870           
CUS0423340000104232390007         HAMILTON, EMERSON C.513 E 41ST ST                           000N        CARE OF             
MTR04233400001000000000000000RA              46882872    005800740000007400000520000003NN  NNW 000                       N    
RDG04233400WATRL000000004K00000000000001473001401082015093434N000400000010N40       000500400K 10000000010000001464           
CUS0423340000104232391005         NELSON BERRY INVESTM515 E 41ST ST                           000N        CARE OF             
MTR04233400001000000000000000RA              10015722    005800750000007500000570000003NN  NNW 000                       N    
RDG04233400WATRL000000004K00000000000000620001501082015093500N000000000010N40       000260400K 10000000010000000610           
CUS0423340000104232392003         NORRIS, BARBARA JEAN517 E 41ST ST                           000N        CARE OF             
MTR04233400001000000000000000RA              48595477    005800760000007600000520000003NN  NNW 000                       N    
RDG04233400WATRL000000004K00000000000000363001601082015093559N000000000000N40       000590400K 10000000010000000360           
CUS0423340000104232393001         BUSTION, JOHN       519 E 41ST ST                           000N        CARE OF             
MTR04233400001000000000000000RA              2364196     005800770000007700000520000003NN  NNW 000                       N    
RDG04233400WATRL000000004K00000000000002357001701082015093607N000000000000N40       000080400K 10000000010000002352           
CUS0423340000104232394009         COLLINS, GLENDALE   521 E 41ST ST                           000N        CARE OF             
MTR04233400001000000000000000RA              01099135    005800780000007800000610000003NN  NNW 000                       N    
RDG04233400WATRL000000004K00000000000000386001801082015093657N000400000010N40       000500400K 10000000010000000381           
CUS0423340000104232395006         ORVILLE B OAKLEY    523 E 41ST ST                           000N        CARE OF             
MTR04233400001000000000000000RA              46882876    005800790000007900000520000003NN  NNW 000                       N    
RDG04233400WATRL000000004K00000000000000785001901082015093723N000000000000N40       000260400K 10000000010000000778           
CUS0423340000104232396004         PERSAD, RICKY N     525-27 E 41ST ST                        000N        CARE OF             
MTR04233400001000000000000000RA              00136180    005800800000008000000570000003NN  NNW 000                       N    
RDG04233400WATRL000000004K00000000000000000000000000000000000 000000000000U         000000400  10000000010000000284           
CUS0423340000104232397002         FIELDS MANAGEMENT CO529 E 41ST ST                           000N        CARE OF             
MTR04233400001000000000000000RA              39583145    005800810000008100000520000003NN  NNW 000                       N    
RDG04233400WATRL000000004K00000000000002853002001082015094056N000000000000N40       002130400K 10000000010000002833           
CUS0423340000104232398000         CHOI, EUGENE H.     531 E 41ST ST                           000N        CARE OF             
MTR04233400001000000000000000RA              24769851    005800820000008200000520000003NN  NNW 000                       N    
RDG04233400WATRL000000004K00000000000002806002101082015094224N000000000001N40       000880400K 10000000010000002806           
CUS0423340000104232399008         JONES JR, WALTER    533 E 41ST ST                           000N        CARE OF             
MTR04233400001000000000000000RA              01102276    005800830000008300000610000003NN  NNW 000                       N    
RDG04233400WATRL000000004K00000000000000565002201082015094332N000100000020N40       000680400K 10000000010000000565           
CUS0423340000104232400004         BERTHA C WALAKONIS  535 E 41ST ST                           000N        CARE OF             
MTR04233400001000000000000000RA              01102251    005800840000008400000610000003NN  NNW 000                       N    
RDG04233400WATRL000000004K00000000000000153002301082015094358N000100000010N40       000260400K 10000000010000000153           
CUS0423340000104232402000         HOU, HSIN-PIN       4018 OLD YORK RD                        000N        CARE OF             
MTR04233400001000000000000000RA              44091015    005800850000008500000520000000NN  NNW 000                       N    
RDG04233400WATRL000000004K00000000000009580002401082015094447N000000000000N40       000490400K 10000000010000009530           
CUS0423340000104232404006         LIN, ZHANG          532 ROSE HILL TER                       000N        CARE OF             
MTR04233400001000000000000000RA              26074526    007500860000008600000520000003NN  NNW 000                       N    
RDG04233400WATRL000000004K00000000000002593002501082015094553N000000000000N40       000660400K 10000000010000002571           
CUS0423340000104232405003         JOHNSON J/ATLEE K   530 ROSE HILL TER                       000N        CARE OF             
MTR04233400001000000000000000RA              23644848    005800870000008700000520000003NN  NNW 000                       N    
RDG04233400WATRL000000004K00000000000003991002601082015094613N000000000000N40       000200400K 10000000010000003991           
CUS0423340000104232406001         JAVAN, LLC          528 ROSE HILL TER                       000N        CARE OF             
MTR04233400001000000000000000RA              00127204    005800880000008800000570000003NN  NNW 000                       N    
RDG04233400WATRL000000004K00000000000001144002701082015094711N000000000000N40       000580400K 10000000010000001107           
CUS0423340000104232407009         SULLIVAN, MICHELLE E526 ROSE HILL TER                       000N        CARE OF             
MTR04233400001000000000000000RA              14913902    005800890000008900000310000003NN  NNW 000                       N    
RDG04233400WATRL000000004K00000000000000599002801082015094753N000000000000N40       000420400K 10000000010000000579           
CUS0423340000104232408007         KIMBERLY WATERS     524 ROSE HILL TER                       000N        CARE OF             
MTR04233400001000000000000000RA              24225845    005800900000009000000520000003NN  NNW 000                       N    
RDG04233400WATRL000000004K00000000000002829002901082015094809N000000000000N40       000160400K 10000000010000002815           
CUS0423340000104232409005         TOMMIE SHEARN JR    522 ROSE HILL TER                       000N        CARE OF             
MTR04233400001000000000000000RA              01083321    005800910000009100000610000003NN  NNW 000                       N    
RDG04233400WATRL000000004K00000000000000678003001082015094902N000400000020N40       000530400K 10000000010000000676           
CUS0423340000104232410003         RITA E HEPBURN      520 ROSE HILL TER                       000N        CARE OF             
MTR04233400001000000000000000RA              01084536    005800920000009200000610000003NN  NNW 000   VACANT PROPERTY     N    
RDG04233400WATRL000000004K00000000000000155003101082015094905N000000000000N40       000030400K 10000000010000000155           
CUS0423340000104232411001         VICKIE CHISLEY      518 ROSE HILL TER                       000N        CARE OF             
MTR04233400001000000000000000RA              01082469    005800930000009300000610000003NN  NNW 000                       N    
RDG04233400WATRL000000004K00000000000000843003201082015094947N000000000000N40       000420400K 10000000010000000817           
CUS0423340000104232412009         MADISON, MICHAEL D. 516 ROSE HILL TER                       000N        CARE OF             
MTR04233400001000000000000000RA              01084530    005800940000009400000610000003NN  NNW 000   VACANT PROPERTY     N    
RDG04233400WATRL000000004K00000000000000999003301082015094951N000000000000N40       000040400K 10000000010000000999           
CUS0423340000104232413007         JONES, EUGENIA KAYCE514 ROSE HILL TER                       000N        CARE OF             
MTR04233400001000000000000000RA              48583232    005800950000009500000520000003NN  NNW 000                       N    
RDG04233400WATRL000000004K00000000000001680003401082015095035N000000000000N40       000440400K 10000000010000001669           
CUS0423340000104232414005         LARRISSA C MATTHEWS 512 ROSE HILL TER                       000N        CARE OF             
MTR04233400001000000000000000RA              31582880    005800960000009600000520000003NN  NNW 000                       N    
RDG04233400WATRL000000004K00000000000002308003501082015095138N000000000000N40       000630400K 10000000010000002290           
CUS0423340000104232415002         DURE, EVENS         510 ROSE HILL TER                       000N        CARE OF             
MTR04233400001000000000000000RA              10009065    005800970000009700000570000003NN  NNW 000                       N    
RDG04233400WATRL000000004K00000000000001278003601082015095206N000000000000N40       000280400K 10000000010000001240           
CUS0423340000104232416000         HILDA PERRY         508 ROSE HILL TER                       000N        CARE OF             
MTR04233400001000000000000000RA              99291126    005800980000009800000570000003NN  NNW 000                       N    
RDG04233400WATRL000000004K00000000000000836003701082015095239N000000000000N40       000330400K 10000000010000000826           
CUS0423340000104232417008         HEPBURN, ROY T      506 ROSE HILL TER                       000N        CARE OF             
MTR04233400001000000000000000RA              99288237    005800990000009900000570000003NN  NNW 000                       N    
RDG04233400WATRL000000004K00000000000000182003801082015095309N000000000000N40       000300400K 10000000010000000182           
CUS0423340000104232418006         WILSON, SHARON      504 ROSE HILL TER                       000N        CARE OF             
MTR04233400001000000000000000RA              99291744    005801000000010000000570000003NN  NNW 000                       N    
RDG04233400WATRL000000004K00000000000000922003901082015095438N000000000000N40       000890400K 10000000010000000900           
CUS0423340000104232419004         JOSEPH A DIXON      502 ROSE HILL TER                       000N        CARE OF             
MTR04233400001000000000000000RA              00127072    005801010000010100000570000003NN  NNW 000                       N    
RDG04233400WATRL000000004K00000000000001424004001082015095446N000100000010N40       000080400K 10000000010000001424           
CUS0423340000104232420002         JOSEPH-MASSIAH, MARG500 ROSE HILL TER                       000N        CARE OF             
MTR04233400001000000000000000RA              99411617    007501020000010200000570000003NN  NNW 000                       N    
RDG04233400WATRL000000004K00000000000000615004101082015095537N000000000010N40       000510400K 10000000010000000605           
CUS0423340000104232421000         DOROTHY MOORING     501 ROSE HILL TER                       000N        CARE OF             
