FHDNNNN028006528006528006528N                                                                                           019726
RHD08459000NN02140214000002140000000002140214000214NY021402140214000600000000000000000000000002    12242014NY020000 N         
CUS0845900000108214035001         MALINOWSKI JR., WILL1906 BREITWERT AVE                      000N        CARE OF             
MTR08459000001000000000000000RA              01107786    005800010000000100000610000003NN  NNW 000                       N    
RDG08459000WATRL000000004K00000000000001886003201092015085652N000000000000U88       004110400K 10000000010000001886           
CUS0845900000108214036009         ELSASSER, AMY CORINN1908 BREITWERT AVE                      000N        CARE OF             
MTR08459000001000000000000000RA              27131897    005800020000000200000520000003NN  NNW 000                       N    
RDG08459000WATRL000000004K00000000000001365003301092015085913N000000000010U88       001410400K 10000000010000001359           
CUS0845900000108214037007         WOELPPER, KENNETH V 1910 BREITWERT AVE                      000N        CARE OF             
MTR08459000001000000000000000RA              27132266    005800030000000300000520000003NN  NNW 000                       N    
RDG08459000WATRL000000004K00000000000002092003401092015090020N000000000000U88       000670400K 10000000010000002077           
CUS0845900000108214038005         MORAN, THOMAS R.    1914 BREITWERT AVE                      000N        CARE OF             
MTR08459000001000000000000000RA              10019721    005800040000000400000570000003NN  NNW 000                       N    
RDG08459000WATRL000000004K00000000000000195003501092015090123N000000000000U88       000630400K 10000000010000000181           
CUS0845900000108214039003         SCOTT, HENRY        1916 BREITWERT AVE                      000N        CARE OF             
MTR08459000001000000000000000RA              01115818    005800050000000500000610000003NN  NNW 000                       N    
RDG08459000WATRL000000004K00000000000000245003601092015090125N000000000000U88       000020400K 10000000010000000238           
CUS0845900000108214040001         CANALES-UMANZOR, JOR1918 BREITWERT AVE                      000N        CARE OF             
MTR08459000001000000000000000RA              00132970    005800060000000600000570000003NN  NNW 000                       N    
RDG08459000WATRL000000004K00000000000000809003701092015090243N000000000001U88       000780400K 10000000010000000780           
CUS0845900000108214041009         KICE, SERENA KAY    1922 BREITWERT AVE                      000N        CARE OF             
MTR08459000001000000000000000RA              40049794    005800070000000700000520000003NN  NNW 000                       N    
RDG08459000WATRL000000004K00000000000001498003801092015090338N000000000010U88       000550400K 10000000010000001491           
CUS0845900000108214042007         DAEHNKE, ROSE MAIRE 1924 BREITWERT AVE                      000N        CARE OF             
MTR08459000001000000000000000RA              29679773    005800080000000800000520000003NN  NNW 000                       N    
RDG08459000WATRL000000004K00000000000003075003901092015090415N000000000000U88       000370400K 10000000010000003063           
CUS0845900000108214043005         WALTER M WERNER JR  1930 BREITWERT AVE                      000N        CARE OF             
MTR08459000001000000000000000RA              26001838    005800090000000900000520000003NN  NNW 000                       N    
RDG08459000WATRL000000004K00000000000002770004001092015090454N000000000000U88       000390400K 10000000010000002759           
CUS0845900000108214044003         BOWSER, KIM J.      1934 BREITWERT AVE                      000N        CARE OF             
MTR08459000001000000000000000RA              01115822    005800100000001000000610000003NN  NNW 000                       N    
RDG08459000WATRL000000004K00000000000001567004101092015090630N000000000000U88       000960400K 10000000010000001544           
CUS0845900000108214045000         ENGEBRECHT, ANDREW J1940 BREITWERT AVE                      000N        CARE OF             
MTR08459000001000000000000000RA              45381760    005800110000001100000520000003NN  NNW 000                       N    
RDG08459000WATRL000000004K00000000000000000000000000000000000 000000000000U         000000400  10000000010000001736           
CUS0845900000108214046008         KERNS SR, JAMES E   2000 BREITWERT AVE                      000N        CARE OF             
MTR08459000001000000000000000RA              27827656    005800120000001200000520000003NN  NNW 000                       N    
RDG08459000WATRL000000004K00000000000000000000000000000000000 000000000000U         000000400  10000000010000004937           
CUS0845900000108214047006         CYNTHIA HOVAKER     2002 BREITWERT AVE                      000N        CARE OF             
MTR08459000001000000000000000RA              32176093    005800130000001300000520000003NN  NNW 000                       N    
RDG08459000WATRL000000004K00000000000004042004201092015090957N000000000000U88       002070400K 10000000010000004030           
CUS0845900000108214048004         WEBER, JEFFREY S.   2004 BREITWERT AVE                      000N        CARE OF             
MTR08459000001000000000000000RA              01090498    005800140000001400000610000003NN  NNW 000                       N    
RDG08459000WATRL000000004K00000000000000626004301092015091043N000000000000U88       000460400K 10000000010000000626           
CUS0845900000108214049002         REHN, MICAH         2010 BREITWERT AVE                      000N        CARE OF             
MTR08459000001000000000000000RA              99292289    005800150000001500000570000003NN  NNW 000                       N    
RDG08459000WATRL000000004K00000000000000780004401092015091135N000000000000U88       000520400K 10000000010000000728           
CUS0845900000108214050000         MOORE, MICHAEL      2014 BREITWERT AVE                      000N        CARE OF             
MTR08459000001000000000000000RA              01107792    005800160000001600000610000000NN  NNW 000                       N    
RDG08459000WATRL000000004K00000000000001533004501092015091230N000000000000U88       000550400K 10000000010000001499           
CUS0845900000108214051008         DRIVER, KIMBERLY D. 2018 BREITWERT AVE                      000N        CARE OF             
MTR08459000001000000000000000RA              29083587    005800170000001700000520000003NN  NNW 000                       N    
RDG08459000WATRL000000004K00000000000002651004601092015091320N000000000000U88       000500400K 10000000010000002639           
CUS0845900000108214052006         NOLET, MICHAEL W    2020 BREITWERT AVE                      000N        CARE OF             
MTR08459000001000000000000000RA              10023237    005800180000001800000570000003NN  NNW 000                       N    
RDG08459000WATRL000000004K00000000000000091004701092015091405N000000000000U88       000450400K 10000000010000000083           
CUS0845900000108214053004         RENTZ, RICHARD L    2009 BREITWERT AVE                      000N        CARE OF             
MTR08459000001000000000000000RA              01099750    005800190000001900000610000003NN  NNW 000                       N    
RDG08459000WATRL000000004K00000000000000919004801092015091513N000000000000U88       000680400K 10000000010000000901           
CUS0845900000108214054002         EQUITY TRUST COMPANY2007 BREITWERT AVE                      000N        CARE OF             
MTR08459000001000000000000000RA              00132971    005800200000002000000570000003NN  NNW 000                       N    
RDG08459000WATRL000000004K00000000000001241004901092015091555N000000000000U88       000420400K 10000000010000001219           
CUS0845900000108214055009         CHAMBERS, THERESA MI2005 BREITWERT AVE                      000N        CARE OF             
MTR08459000001000000000000000RA              27132671    005800210000002100000520000003NN  NNW 000                       N    
RDG08459000WATRL000000004K00000000000001471005001092015091640N000000000000U88       000450400K 10000000010000001461           
CUS0845900000108214056007         BURRUS, COURTNEY    2003 BREITWERT AVE                      000N        CARE OF             
MTR08459000001000000000000000RA              99390465    005800220000002200000570000003NN  NNW 000                       N    
RDG08459000WATRL000000004K00000000000001362005101092015091717N000000000000U88       000370400K 10000000010000001351           
CUS0845900000108214057005         DENISE M ALLEN      2001 BREITWERT AVE                      000N        CARE OF             
MTR08459000001000000000000000RA              45387559    005800230000002300000520000003NN  NNW 000                       N    
RDG08459000WATRL000000004K00000000000001351005201092015091817N000000000000U88       000600400K 10000000010000001341           
CUS0845900000108214058003         RAYMOND, CHARLES O. 1933 BREITWERT AVE                      000N        CARE OF             
MTR08459000001000000000000000RA              76348717    005800240000002400000350000003NN  NNW 000                       N    
RDG08459000WATRL000000004K00000000000000000005301092015091910N000000000000U88       000530400K 10000000010000000000           
CUS0845900000108214059001         JOYAVE, ANTHONY ROBE1925 BREITWERT AVE                      000N        CARE OF             
MTR08459000001000000000000000RA              10020248    005800250000002500000570000003NN  NNW 000                       N    
RDG08459000WATRL000000004K00000000000000287005401092015092002N000000000000U88       000520400K 10000000010000000263           
CUS0845900000108214060009         LAMONT-WELLER, DEBOR1923 BREITWERT AVE                      000N        CARE OF             
MTR08459000001000000000000000RA              26009344    005800260000002600000520000003NN  NNW 000                       N    
RDG08459000WATRL000000004K00000000000003682005501092015092015N000000000000U88       000130400K 10000000010000003682           
CUS0845900000108214061007         WALTER L ROBERTSON  1919 BREITWERT AVE                      000N        CARE OF             
MTR08459000001000000000000000RA              24761342    005800270000002700000520000003NN  NNW 000                       N    
RDG08459000WATRL000000004K00000000000003585005601092015092053N000000000000U88       000380400K 10000000010000003576           
CUS0845900000108214062005         FRINK, GENE F       1917 BREITWERT AVE                      000N        CARE OF             
MTR08459000001000000000000000RA              25782749    005800280000002800000520000003NN  NNW 000                       N    
RDG08459000WATRL000000004K00000000000003352005701092015092213N000100000010U88       000800400K 10000000010000003352           
CUS0845900000108214063003         KOTOFSKI, DAVID     1915 BREITWERT AVE                      000N        CARE OF             
MTR08459000001000000000000000RA              11471851    005800290000002900000570000003NN  NNW 000                       N    
RDG08459000WATRL000000004K00000000000002986005801092015092308N000000000000U88       000550400K 10000000010000002968           
CUS0845900000108214064001         DRABIC, JOSEPH      1913 BREITWERT AVE                      000N        CARE OF             
MTR08459000001000000000000000RA              24224186    005800300000003000000520000003NN  NNW 000                       N    
RDG08459000WATRL000000004K00000000000003144005901092015092355N000000000010U88       000470400K 10000000010000003120           
CUS0845900000108214065008         BROWN, SABRINA      1911 BREITWERT AVE                      000N        CARE OF             
MTR08459000001000000000000000RA              29403136    005800310000003100000520000003NN  NNW 000                       N    
RDG08459000WATRL000000004K00000000000005128006001092015092452N000000000000U88       000570400K 10000000010000005120           
CUS0845900000108214066006         MAGSINO, REY M      1909 BREITWERT AVE                      000N        CARE OF             
MTR08459000001000000000000000RA              45382104    005800320000003200000520000003NN  NNW 000                       N    
RDG08459000WATRL000000004K00000000000001544006101092015092534N000000000000U88       000420400K 10000000010000001524           
CUS0845900000108214067004         HARRISON, SUZANNE JE1907 BREITWERT AVE                      000N        CARE OF             
MTR08459000001000000000000000RA              45382096    005800330000003300000520000003NN  NNW 000                       N    
RDG08459000WATRL000000004K00000000000001713006201092015092631N000000000000U88       000570400K 10000000010000001707           
CUS0845900000108214068002         MARY JOHNSON        1905 BREITWERT AVE                      000N        CARE OF             
MTR08459000001000000000000000RA              29686140    005800340000003400000520000003NN  NNW 000                       N    
RDG08459000WATRL000000004K00000000000002707006301092015092715N000000000000U88       000440400K 10000000010000002694           
CUS0845900000108214069000         FISHER, BRIAN PHILIP1903 BREITWERT AVE                      000N        CARE OF             
MTR08459000001000000000000000RA              41259259    005800350000003500000520000003NN  NNW 000                       N    
RDG08459000WATRL000000004K00000000000002381006401092015092730N000000000000U88       000150400K 10000000010000002334           
CUS0845900000108214070008         BEALL, BERTHA L     1901 BREITWERT AVE                      000N        CARE OF             
MTR08459000001000000000000000RA              44179069    005800360000003600000520000003NN  NNW 000                       N    
RDG08459000WATRL000000004K00000000000004529006501092015092747N000000000000U88       000170400K 10000000010000004495           
CUS0845900000108250410001         DRABIC, MICHAEL     2367 WASHINGTON BLVD                    000N        CARE OF             
MTR08459000001000000000000000RA              01081313    005800370000003700000610000003NN  NNW 000                       N    
RDG08459000WATRL000000004K00000000000001013006601092015092814N000000000000U88       000270400K 10000000010000001002           
CUS0845900000108250411009         HAINES, GREGORY     2365 WASHINGTON BLVD                    000N        CARE OF             
MTR08459000001000000000000000RA              23054246    005800380000003800000520000003NN  NNW 000                       N    
RDG08459000WATRL000000004K00000000000002446006701092015092941N000000000000U88       000870400K 10000000010000002423           
CUS0845900000108250412007         TURNER, SHANNON     2363 WASHINGTON BLVD                    000N        CARE OF             
MTR08459000001000000000000000RA              29681683    005800390000003900000520000003NN  NNW 000                       N    
RDG08459000WATRL000000004K00000000000002155006801092015092947N000000000000U88       000060400K 10000000010000002140           
CUS0845900000108250413005         SCOTT, BRITNEY      2361 WASHINGTON BLVD                    000N        CARE OF             
MTR08459000001000000000000000RA              39583105    005800400000004000000520000003NN  NNW 000                       N    
RDG08459000WATRL000000004K00000000000001254006901092015093019N000000000000U88       000320400K 10000000010000001237           
CUS0845900000108250414003         TRINH, VAN KIM      2359 WASHINGTON BLVD                    000N        CARE OF             
MTR08459000001000000000000000RA              39583106    005800410000004100000520000003NN  NNW 000                       N    
RDG08459000WATRL000000004K00000000000001832007001092015093026N000000000000U88       000070400K 10000000010000001832           
CUS0845900000108250415000         C.T.D.W.S.F         2357 WASHINGTON BLVD                    000N        CARE OF             
MTR08459000001000000000000000RA              45379063    005800420000004200000520000003NN  NNW 000   VACANT PROPERTY     N    
RDG08459000WATRL000000004K00000000000001330007101092015093028N000000000000U88       000020400K 10000000010000001330           
CUS0845900000108250416008         OCWEN LOAN SERVICING2355 WASHINGTON BLVD                    000N        CARE OF             
MTR08459000001000000000000000RA              45379092    005800430000004300000520000003NN  NNW 000                       N    
RDG08459000WATRL000000004K00000000000001429007201092015093056N000100000010U88       000280400K 10000000010000001429           
CUS0845900000108250417006         MASON, MARCUS       2353 WASHINGTON BLVD                    000N        CARE OF             
MTR08459000001000000000000000RA              01080254    005800440000004400000610000003NN  NNW 000                       N    
RDG08459000WATRL000000004K00000000000001207007301092015093101N000000000000U88       000050400K 10000000010000001207           
CUS0845900000108250418004         MARSHALL SR., GEORGE2351 WASHINGTON BLVD                    000N        CARE OF             
MTR08459000001000000000000000RA              74692408    005800450000004500000350000003NN  NNW 000                       N    
RDG08459000WATRL000000004K00000000000001014007401092015093127N000000000000U88       000260400K 10000000010000000827           
CUS0845900000108250419002         HAYES IV., WILLIAM C2347 WASHINGTON BLVD                    000N        CARE OF             
MTR08459000001000000000000000RA              46884743    005800460000004600000520000003NN  NNW 000                       N    
RDG08459000WATRL000000004K00000000000001568007501092015093227N000000000000U88       000600400K 10000000010000001551           
CUS0845900000108250420000         REISINGER, CHRIS    2345 WASHINGTON BLVD                    000N        CARE OF             
MTR08459000001000000000000000RA              74691453    005800470000004700000350000003NN  NNW 000   VACANT PROPERTY     N    
RDG08459000WATRL000000004K00000000000000000007601092015093229N000000000000U88       000020400K 10000000010000000000           
CUS0845900000108250421008         MCGIRR, RYAN T.     1900 SOMERWORTH ST                      000N        CARE OF             
MTR08459000001000000000000000RA              01092502    005800480000004800000610000003NN  NNW 000                       N    
RDG08459000WATRL000000004K00000000000000952007701092015093429N000000000010U88       001200400K 10000000010000000939           
CUS0845900000108250422006         WALTERS, DONALD R   1902 SOMERWORTH ST                      000N        CARE OF             
MTR08459000001000000000000000RA              54349409    005800490000004900000520000003NN  NNW 000                       N    
RDG08459000WATRL000000004K00000000000000820007801092015093513N000000000000U88       000440400K 10000000010000000805           
CUS0845900000108250423004         DORSEY, MARIA       1904 SOMERWORTH ST                      000N        CARE OF             
MTR08459000001000000000000000RA              26009273    005800500000005000000520000003NN  NNW 000                       N    
RDG08459000WATRL000000004K00000000000000000000000000000000000 000000000000U         000000400  10000000010000001866           
CUS0845900000108250424002         CRYSTAL LYNN BROWN  1906 SOMERWORTH ST                      000N        CARE OF             
MTR08459000001000000000000000RA              26006453    005800510000005100000520000003NN  NNW 000                       N    
RDG08459000WATRL000000004K00000000000002227007901092015093628N000000000000U88       000750400K 10000000010000002227           
CUS0845900000108250425009         WOLFE IV, ROBERT A  1908 SOMERWORTH ST                      000N        CARE OF             
MTR08459000001000000000000000RA              41257567    005800520000005200000520000003NN  NNW 000                       N    
RDG08459000WATRL000000004K00000000000001302008001092015094419N000400000010U88       004710400K 10000000010000001300           
CUS0845900000108250426007         ATLANTIC COAST HOUSE1910 SOMERWORTH ST                      000N        CARE OF             
MTR08459000001000000000000000RA              75616864    005800530000005300000350000003NN  NNW 000                       N    
RDG08459000WATRL000000004K00000000000000000008101092015094421N000000000000U88       000020400K 10000000010000000000           
CUS0845900000108250427005         ROBBINS, LISA       1912 SOMERWORTH ST                      000N        CARE OF             
MTR08459000001000000000000000RA              29403138    005800540000005400000520000003NN  NNW 000                       N    
RDG08459000WATRL000000004K00000000000001897008201092015094544N000000000000U88       000830400K 10000000010000001879           
CUS0845900000108250428003         WOLFE, CASSANDRA    1914 SOMERWORTH ST                      000N        CARE OF             
MTR08459000001000000000000000RA              10022997    005800550000005500000570000003NN  NNW 000                       N    
RDG08459000WATRL000000004K00000000000000081008301092015094657N000000000000U88       000730400K 10000000010000000071           
CUS0845900000108250429001         JDS LLC             2337 WASHINGTON BLVD                    000N        CARE OF             
MTR08459000001000000000000000RA              52292258    005800560000005600000520000003NN  NNW 000                       N    
RDG08459000WATRL000000004K00000000000000000000000000000000000 000000000000U         000000400  10000000010000001602           
CUS0845900000108250431007         HAINES, TREVOR      2327 WASHINGTON BLVD                    000N        CARE OF             
MTR08459000001000000000000000RA              54349405    005800570000005700000520000003NN  NNW 000                       N    
RDG08459000WATRL000000004K00000000000001513008401092015095358N000000000000U88       004210400K 10000000010000001500           
CUS0845900000108250432005         TRUONG, EILLEEN T   2325 WASHINGTON BLVD                    000N        CARE OF             
MTR08459000001000000000000000RA              26004927    005800580000005800000520000003NN  NNW 000                       N    
RDG08459000WATRL000000004K00000000000004351008501092015095439N000000000000U88       000410400K 10000000010000004341           
CUS0845900000108357571002         DIANA HERBOLD       2323 WASHINGTON BLVD                    000N        CARE OF             
MTR08459000001000000000000000RA              75424294    005800590000005900000350000003NN  NNW 000                       N    
RDG08459000WATRL000000004K00000000000000146008601092015095443N000000000000U88       000040400K 10000000010000000130           
CUS0845900000108250433003         TRUONG, LYNN        2321 WASHINGTON BLVD                    000N        CARE OF             
MTR08459000001000000000000000RA              27814133    005800600000006000000520000003NN  NNW 000                       N    
RDG08459000WATRL000000004K00000000000002995008701092015095524N000000000000U88       000410400K 10000000010000002981           
CUS0845900000108250434001         DRIVER, MARGARET ELL2319 WASHINGTON BLVD                    000N        CARE OF             
MTR08459000001000000000000000RA              27813109    005800610000006100000520000003NN  NNW 000                       N    
RDG08459000WATRL000000004K00000000000003936008801092015095526N000000000000U88       000020400K 10000000010000003919           
CUS0845900000108364493000         SHANNON TURNER      2317 WASHINGTON BLVD                    000N        CARE OF             
MTR08459000001000000000000000RA              30516951    005800620000006200000520000003NN  NNW 000                       N    
RDG08459000WATRL000000004K00000000000002887008901092015095640N000000000010U88       000740400K 10000000010000002828           
CUS0845900000108364492002         JOHNSON, ANNABELLE L2315 WASHINGTON BLVD                    000N        CARE OF             
MTR08459000001000000000000000RA              30516621    005800630000006300000520000003NN  NNW 000                       N    
RDG08459000WATRL000000004K00000000000003552009001092015095646N000000000000U88       000060400K 10000000010000003542           
CUS0845900000108364917008         JOYCE ETAL, WARREN R2313 WASHINGTON BLVD                    000N        CARE OF             
MTR08459000001000000000000000RA              30517499    005800640000006400000520000003NN  NNW 000                       N    
RDG08459000WATRL000000004K00000000000002278009101092015095759N000000000000U88       000730400K 10000000010000002273           
CUS0845900000108364916000         DRIVER, RUTH A      2311 WASHINGTON BLVD                    000N        CARE OF             
MTR08459000001000000000000000RA              30517494    005800650000006500000520000003NN  NNW 000                       N    
RDG08459000WATRL000000004K00000000000003050009201092015095802N000000000000U88       000030400K 10000000010000003050           
CUS0845900000108380359003         MCWILLIAMS, VICTORIA2309 WASHINGTON BLVD                    000N        CARE OF             
MTR08459000001000000000000000RA              41088924    005800660000006600000520000003NN  NNW 000                       N    
RDG08459000WATRL000000004K00000000000002602009301092015095848N000000000000U88       000460400K 10000000010000002572           
CUS0845900000108367977009         M S PATRICIA C FEESE2307 WASHINGTON BLVD                    000N        CARE OF             
MTR08459000001000000000000000RA              30524060    005800670000006700000520000003NN  NNW 000                       N    
RDG08459000WATRL000000004K00000000000002494009401092015095851N000000000000U88       000030400K 10000000010000002484           
CUS0845900000108350451004         ARROJADO, ANTONIO   2305 WASHINGTON BLVD                    000N        CARE OF             
MTR08459000001000000000000000RA              46884742    005800680000006800000520000003NN  NNW 000                       N    
RDG08459000WATRL000000004K00000000000000333009501092015095947N000000000000U88       000560400K 10000000010000000333           
CUS0845900000108250435008         WYCKOFF AND DAY INVE2303 WASHINGTON BLVD                    000N        CARE OF             
MTR08459000001000000000000000RA              27813002    005800690000006900000520000003NN  NNW 000                       N    
RDG08459000WATRL000000004K00000000000003804009601092015095951N000000000000U88       000040400K 10000000010000003780           
CUS0845900000108250436006         MICHAEL CARROLL     2301 WASHINGTON BLVD                    000N        CARE OF             
MTR08459000001000000000000000RA              45379085    005800700000007000000520000003NN  NNW 000                       N    
RDG08459000WATRL000000004K00000000000001458009701092015100020N000000000000U88       000290400K 10000000010000001425           
CUS0845900000108250437004         DIAFANI, LLC        2229 WASHINGTON BLVD                    000N        CARE OF             
MTR08459000001000000000000000RA              01099236    005800710000007100000610000003NN  NNW 000                       N    
RDG08459000WATRL000000004K00000000000001288009801092015100152N000000000000U88       000920400K 10000000010000001288           
CUS0845900000108250401000         ALF MARBLE & GRANITE2300-08 WASHINGTON BLVD                 000N        CARE OF             
MTR08459000001000000000000000RA              00118508    007500720000007200000570000003NN  NNW 000                       N    
RDG08459000WATRL000000004K00000000000000884009901092015100421N000300000020U88       001490400K 10000000010000000863           
CUS0845900000108250402008         SHEIKH, KASHIF      2324 WASHINGTON BLVD                    000N        CARE OF             
MTR08459000001000000000000000RA              10000787    005800730000007300000570000003NN  NNW 000                       N    
RDG08459000WATRL000000004K00000000000000279010001092015100522N000000000000U88       000610400K 10000000010000000279           
CUS0845900000108250403006         AUTO BARN INC., THE 2326-30 WASHINGTON BLVD                 000N        CARE OF             
MTR08459000001000000000000000RA              10003049    005800740000007400000570000003NN  NNW 000   VACANT PROPERTY     N    
RDG08459000WATRL000000004K00000000000000000010101092015100526N000000000000U88       000040400K 10000000010000000000           
CUS0845900000108250404004         AUTO BARN INC., THE 2356 WASHINGTON BLVD                    000N        CARE OF             
MTR08459000001000000000000000RA              24625097    007500750000007500000520000003NN  NNW 000                       N    
RDG08459000WATRL000000004K00000000000002620010201092015100700N000000000000U88       000940400K 10000000010000002620           
CUS0845900000108250405001         MPD REALITY, INC    2358 WASHINGTON BLVD                    000N        CARE OF             
MTR08459000001000000000000000RA              01076722    005800760000007600000610000003NN  NNW 000                       N    
RDG08459000WATRL000000004K00000000000000357010301092015100703N000000000000U88       000030400K 10000000010000000344           
CUS0845900000108250406009         PHYLLIS E HABIGHURST2360 WASHINGTON BLVD                    000N        CARE OF             
MTR08459000001000000000000000RA              42809532    005800770000007700000520000003NN  NNW 000                       N    
RDG08459000WATRL000000004K00000000000000859010401092015100718N000000000000U88       000150400K 10000000010000000856           
CUS0845900000108250407007         SINGH, SURINDER     2362 WASHINGTON BLVD                    000N        CARE OF             
MTR08459000001000000000000000RA              27826083    005800780000007800000520000003NN  NNW 000                       N    
RDG08459000WATRL000000004K00000000000002753010501092015100743N000000000000U88       000250400K 10000000010000002734           
CUS0845900000108250408005         RIPP, LLC           2364 WASHINGTON BLVD                    000N        CARE OF             
MTR08459000001000000000000000RA              27831523    005800790000007900000520000003NN  NNW 000                       N    
RDG08459000WATRL000000004K00000000000003205010601092015101321N000000000031U88       000910400K 10000000010000003204           
CUS0845900000108250409003         GRAF, SHANNON K.    2366 WASHINGTON BLVD                    000N        CARE OF             
MTR08459000001000000000000000RA              10017379    005800800000008000000570000003NN  NNW 000                       N    
RDG08459000WATRL000000004K00000000000000227010701092015101150N000000000010U88       002080400K 10000000010000000181           
CUS0845900000108213907002         ZINN SR, GREGORY C  1811 SPENCE ST                          000N        CARE OF             
MTR08459000001000000000000000RA              46875113    005800810000008100000520000003NN  NNW 000                       N    
RDG08459000WATRL000000004K00000000000001103001501092015082234N000000000000U88       000290400K 10000000010000001096           
CUS0845900000108213908000         HOLLEY, KIM         1809 SPENCE ST                          000N        CARE OF             
MTR08459000001000000000000000RA              10019405    005800820000008200000570000003NN  NNW 000                       N    
RDG08459000WATRL000000004K00000000000000220001401092015082205N000300000010U88       000520400K 10000000010000000212           
CUS0845900000108213909008         KLIPP, CYNTHIA A    1807 SPENCE ST                          000N        CARE OF             
MTR08459000001000000000000000RA              00132909    005800830000008300000570000003NN  NNW 000                       N    
RDG08459000WATRL000000004K00000000000001509001301092015082113N000000000000U88       001000400K 10000000010000001494           
CUS0845900000108213910006         GOUGH, CECIL P      1801 SPENCE ST                          000N        CARE OF             
MTR08459000001000000000000000RA              46877618    005800840000008400000520000003NN  NNW 000                       N    
RDG08459000WATRL000000004K00000000000002416001201092015081933N000000000000U88       002670400K 10000000010000002383           
CUS0845900000108213899001         DRAKEFORD, CALVIN   2321 JAMES ST                           000N        CARE OF             
MTR08459000001000000000000000RA              36688842    005800850000008500000520000003NN  NNW 000                       N    
RDG08459000WATRL000000004K00000000000001960007801052015090650N000000000000N88       003080400K 10000000010000001948           
CUS0845900000108213900007         SULTAN, AYESHA      2319 JAMES ST                           000N        CARE OF             
MTR08459000001000000000000000RA              14930253    005800860000008600000310000003NN  NNW 000                       N    
RDG08459000WATRL000000004K00000000000000252007901052015090655N000000000000N88       000050400K 10000000010000000242           
CUS0845900000108213901005         MENCIA, EDICA       2317 JAMES ST                           000N        CARE OF             
MTR08459000001000000000000000RA              54349408    005800870000008700000520000003NN  NNW 000                       N    
RDG08459000WATRL000000004K00000000000001039008001052015090833N000300000010N88       000980400K 10000000010000001029           
CUS0845900000108213902003         BK MGMT LLC         2315 JAMES ST                           000N        CARE OF             
MTR08459000001000000000000000RA              01116476    005800880000008800000610000003NN  NNW 000                       N    
RDG08459000WATRL000000004K00000000000000883008101052015090912N000000000000N88       000390400K 10000000010000000861           
CUS0845900000108213903001         LUCILLE MAVRONIS    2313 JAMES ST                           000N        CARE OF             
MTR08459000001000000000000000RA              01107108    005800890000008900000610000003NN  NNW 000                       N    
RDG08459000WATRL000000004K00000000000000408008201052015090946N000000000000N88       000340400K 10000000010000000404           
CUS0845900000108213904009         BROWN, DANIEL A     2311 JAMES ST                           000N        CARE OF             
MTR08459000001000000000000000RA              26012886    005800900000009000000520000003NN  NNW 000                       N    
RDG08459000WATRL000000004K00000000000005236008301052015091012N000000000000N88       000260400K 10000000010000005203           
CUS0845900000108213905006         BROWN, JOHN J.      2305 JAMES ST                           000N        CARE OF             
MTR08459000001000000000000000RA              45381170    005800910000009100000520000003NN  NNW 000                       N    
RDG08459000WATRL000000004K00000000000002158008401052015091101N000000000000N88       000490400K 10000000010000002139           
CUS0845900000108213906004         MERSON, AUGUSTUS    2303 JAMES ST                           000N        CARE OF             
MTR08459000001000000000000000RA              44090081    005800920000009200000520000000NN  NNW 000                       N    
RDG08459000WATRL000000004K00000000000002351008501052015091137N000000000000N88       000360400K 10000000010000002333           
CUS0845900000108213921003         MEUSHAW, SUSAN L    1718 MONTEREY ST                        000N        CARE OF             
MTR08459000001000000000000000RA              01091135    005800930000009300000610000003NN  NNW 000                       N    
RDG08459000WATRL000000004K00000000000000234006901052015085711N000000000010N88       003410400K 10000000010000000228           
CUS0845900000108213922001         SHOWALTER, TOM      1716 MONTEREY ST                        000N        CARE OF             
MTR08459000001000000000000000RA              01116483    005800940000009400000610000003NN  NNW 000                       N    
RDG08459000WATRL000000004K00000000000000683007001052015085757N000300000010N88       000460400K 10000000010000000669           
CUS0845900000108213923009         CONNIE S KING       1714 MONTEREY ST                        000N        CARE OF             
MTR08459000001000000000000000RA              27131996    005800950000009500000520000003NN  NNW 000                       N    
RDG08459000WATRL000000004K00000000000000000000000000000000000 000000000000U         000000400  10000000010000002806           
CUS0845900000108213924007         MONAHAN, THOMAS     1712 MONTEREY ST                        000N        CARE OF             
MTR08459000001000000000000000RA              45385704    005800960000009600000520000003NN  NNW 000                       N    
RDG08459000WATRL000000004K00000000000000775007101052015085848N000000000000N88       000510400K 10000000010000000764           
CUS0845900000108213925004         CHASE, EDMUND R     1710 MONTEREY ST                        000N        CARE OF             
MTR08459000001000000000000000RA              46878118    005800970000009700000520000003NN  NNW 000                       N    
RDG08459000WATRL000000004K00000000000001600007201052015085923N000400000010N88       000350400K 10000000010000001599           
CUS0845900000108213926002         CARPER, CHRISTOPHER 1708 MONTEREY ST                        000N        CARE OF             
MTR08459000001000000000000000RA              45387529    005800980000009800000520000003NN  NNW 000                       N    
RDG08459000WATRL000000004K00000000000002014007301052015085953N000000000000N88       000300400K 10000000010000002001           
CUS0845900000108213927000         LITTLE, ADRIAN SCOTT1706 MONTEREY ST                        000N        CARE OF             
MTR08459000001000000000000000RA              27823835    005800990000009900000520000003NN  NNW 000                       N    
RDG08459000WATRL000000004K00000000000001939007401052015090020N000400000010N88       000270400K 10000000010000001938           
CUS0845900000108213928008         LITTLE, ADRIAN SCOTT1704 MONTEREY ST                        000N        CARE OF             
MTR08459000001000000000000000RA              44175749    005801000000010000000520000003NN  NNW 000                       N    
RDG08459000WATRL000000004K00000000000002152007501052015090044N000000000000N88       000240400K 10000000010000002138           
CUS0845900000108213929006         CHASE, EDMUND       1702 MONTEREY ST                        000N        CARE OF             
MTR08459000001000000000000000RA              27822074    005801010000010100000520000003NN  NNW 000                       N    
RDG08459000WATRL000000004K00000000000002110007601052015090118N000000000000N88       000340400K 10000000010000002092           
CUS0845900000108213893004         CAIN, LENNY L.      2308 JAMES ST                           000N        CARE OF             
MTR08459000001000000000000000RA              27813975    005801020000010200000520000003NN  NNW 000                       N    
RDG08459000WATRL000000004K00000000000002247007701052015091431N000000000001N88       001190400K 10000000010000002225           
CUS0845900000108213894002         NGUYEN, TRUNG       2310 JAMES ST                           000N        CARE OF             
MTR08459000001000000000000000RA              27131994    005801030000010300000520000003NN  NNW 000                       N    
RDG08459000WATRL000000004K00000000000002144008601052015091438N000000000011N88       000070400K 10000000010000002134           
CUS0845900000108213895009         CABRERA, RODRIGO DAN2312 JAMES ST                           000N        CARE OF             
MTR08459000001000000000000000RA              01116479    005801040000010400000610000003NN  NNW 000                       N    
RDG08459000WATRL000000004K00000000000000382008701052015091605N000400000010N88       000870400K 10000000010000000380           
CUS0845900000108213896007         STEBBINGS, ROBERT   2314 JAMES ST                           000N        CARE OF             
MTR08459000001000000000000000RA              46879937    005801050000010500000520000003NN  NNW 000                       N    
RDG08459000WATRL000000004K00000000000001336008801052015091647N000000000000N88       000420400K 10000000010000001322           
CUS0845900000108213897005         DUANE R WEBER       2320 JAMES ST                           000N        CARE OF             
MTR08459000001000000000000000RA              99287095    005801060000010600000570000003NN  NNW 000                       N    
RDG08459000WATRL000000004K00000000000001106008901052015091733N000000000000N88       000460400K 10000000010000001099           
CUS0845900000108213898003         NGUYEN, TIEN NGOC   2322 JAMES ST                           000N        CARE OF             
MTR08459000001000000000000000RA              45380104    005801070000010700000520000003NN  NNW 000                       N    
RDG08459000WATRL000000004K00000000000004135009001052015091901N000000000000N88       000880400K 10000000010000004123           
CUS0845900000108213911004         CONNER III, CHARLES 1715 SPENCE ST                          000N        CARE OF             
MTR08459000001000000000000000RA              33729618    005801080000010800000520000003NN  NNW 000                       N    
RDG08459000WATRL000000004K00000000000005213009101052015091929N000000000000N88       000280400K 10000000010000005213           
CUS0845900000108213912002         CRAWFORD, MARY E    1713 SPENCE ST                          000N        CARE OF             
MTR08459000001000000000000000RA              32904027    005801090000010900000520000003NN  NNW 000                       N    
RDG08459000WATRL000000004K00000000000003612009201052015091953N000000000000N88       000240400K 10000000010000003588           
CUS0845900000108213913000         DUANE WEBER         1711 SPENCE ST                          000N        CARE OF             
MTR08459000001000000000000000RA              45382102    005801100000011000000520000003NN  NNW 000                       N    
RDG08459000WATRL000000004K00000000000000868009301052015092017N000000000000N88       000240400K 10000000010000000866           
CUS0845900000108213914008         SAVAGE, ROBERT      1709 SPENCE ST                          000N        CARE OF             
MTR08459000001000000000000000RA              23054804    005801110000011100000520000003NN  NNW 000                       N    
RDG08459000WATRL000000004K00000000000003965009401052015092100N000000000000N88       000430400K 10000000010000003940           
CUS0845900000108213915005         KOETHE, CHARLES S.  1701 SPENCE ST                          000N        CARE OF             
MTR08459000001000000000000000RA              29681685    005801120000011200000520000003NN  NNW 000                       N    
RDG08459000WATRL000000004K00000000000003652001101092015081506N000000000000U88       000640400K 10000000010000003643           
CUS0845900000108213916003         DUNNIGAN, DEBORAH K.2315 HERKIMER ST                        000N        CARE OF             
MTR08459000001000000000000000RA              11429263    005801130000011300000570000003NN  NNW 000                       N    
RDG08459000WATRL000000004K00000000000002025001001092015081402N000000000000U88       000400400K 10000000010000002007           
CUS0845900000108213917001         SAFFRAN JR, EVAN    2307 HERKIMER ST                        000N        CARE OF             
MTR08459000001000000000000000RA              41258662    005801140000011400000520000003NN  NNW 000                       N    
RDG08459000WATRL000000004K00000000000001359002601092015083750N000000000010U88       002050400K 10000000010000001351           
CUS0845900000108213918009         TIMBER PROPERTY MANA2305 HERKIMER ST                        000N        CARE OF             
MTR08459000001000000000000000RA              36688177    005801150000011500000520000003NN  NNW 000                       N    
RDG08459000WATRL000000004K00000000000001494000901092015081322N000000000000U88       000450400K 10000000010000001481           
CUS0845900000108213919007         CHASE, EDMUND R.    2303 HERKIMER ST                        000N        CARE OF             
MTR08459000001000000000000000RA              45378678    005801160000011600000520000003NN  NNW 000                       N    
RDG08459000WATRL000000004K00000000000002097000701092015081154N000000000000U88       000480400K 10000000010000002075           
CUS0845900000108213920005         CHASE, EDMUND R     2301 HERKIMER ST                        000N        CARE OF             
MTR08459000001000000000000000RA              46878130    005801170000011700000520000003NN  NNW 000                       N    
RDG08459000WATRL000000004K00000000000001563000801092015081237N000000000000U88       000430400K 10000000010000001521           
CUS0845900000108213930004         MELVIN R. HARRIS    2312 HERKIMER ST                        000N        CARE OF             
MTR08459000001000000000000000RA              48589497    005801180000011800000520000003NN  NNW 000                       N    
RDG08459000WATRL000000004K00000000000001534000601092015081106N000400000010U88       000410400K 10000000010000001529           
CUS0845900000108213931002         EGAN, VICTORIA      2316 HERKIMER ST                        000N        CARE OF             
MTR08459000001000000000000000RA              36692852    005801190000011900000520000003NN  NNW 000                       N    
RDG08459000WATRL000000004K00000000000001280000501092015081025N000000000000U88       000090400K 10000000010000001268           
CUS0845900000108213932000         CHASE, EDMUND R     2318 HERKIMER ST                        000N        CARE OF             
MTR08459000001000000000000000RA              01076727    005801200000012000000610000003NN  NNW 000                       N    
RDG08459000WATRL000000004K00000000000000877000401092015081016N000000000000U88       000260400K 10000000010000000863           
CUS0845900000108213933008         WARREN E HARMIS     2320 HERKIMER ST                        000N        CARE OF             
MTR08459000001000000000000000RA              00132913    005801210000012100000570000003NN  NNW 000                       N    
RDG08459000WATRL000000004K00000000000000277000301092015080950N000000000000U88       000040400K 10000000010000000277           
CUS0845900000108213934006         CHASE, EDMUND R.    2322 HERKIMER ST                        000N        CARE OF             
MTR08459000001000000000000000RA              99292625    005801220000012200000570000000NN  NNW 000                       N    
RDG08459000WATRL000000004K00000000000001301000201092015080946N000000000000U88       000080400K 10000000010000001274           
CUS0845900000108213935003         CHASE, EDMUND R     2324 HERKIMER ST                        000N        CARE OF             
MTR08459000001000000000000000RA              99292626    005801230000012300000570000003NN  NNW 000                       N    
RDG08459000WATRL000000004K00000000000001724000101092015080938N000000000000U88       000000400K 10000000010000001676           
CUS0845900000108213936001         SILVESTRI, MICHAEL A1639 SPENCE ST                          000N        CARE OF             
MTR08459000001000000000000000RA              24759733    005801240000012400000520000003NN  NNW 000                       N    
RDG08459000WATRL000000004K00000000000002402005001052015083454N000000000000N88       004240400K 10000000010000002389           
CUS0845900000108213937009         KELDSEN, AMARA      1637 SPENCE ST                          000N        CARE OF             
MTR08459000001000000000000000RA              48595199    005801250000012500000520000003NN  NNW 000                       N    
RDG08459000WATRL000000004K00000000000001442005101052015083509N000000000000N88       000150400K 10000000010000001392           
CUS0845900000108213938007         AUDREY MURPHY       1635 SPENCE ST                          000N        CARE OF             
MTR08459000001000000000000000RA              46880518    005801260000012600000520000003NN  NNW 000                       N    
RDG08459000WATRL000000004K00000000000002317005201052015083529N000000000000N88       000200400K 10000000010000002312           
CUS0845900000108213939005         KENNEDY, LERANT     1633 SPENCE ST                          000N        CARE OF             
MTR08459000001000000000000000RA              29679770    005801270000012700000520000003NN  NNW 000                       N    
RDG08459000WATRL000000004K00000000000002411005301052015083541N000000000000N88       000120400K 10000000010000002393           
CUS0845900000108213940003         CRILLEY, SHELIA P   1631 SPENCE ST                          000N        CARE OF             
MTR08459000001000000000000000RA              52769694    005801280000012800000520000003NN  NNW 000                       N    
RDG08459000WATRL000000004K00000000000001005005401052015083606N000000000000N88       000250400K 10000000010000000991           
CUS0845900000108213941001         ROSENFELD, STANLEY L1629 SPENCE ST                          000N        CARE OF             
MTR08459000001000000000000000RA              44173302    005801290000012900000520000003NN  NNW 000                       N    
RDG08459000WATRL000000004K00000000000002116005501052015083618N000000000000N88       000120400K 10000000010000002104           
CUS0845900000108213942009         MARSHALL SR., DAVID 1627 SPENCE ST                          000N        CARE OF             
MTR08459000001000000000000000RA              48594999    005801300000013000000520000003NN  NNW 000                       N    
RDG08459000WATRL000000004K00000000000001259005601052015083650N000000000000N88       000320400K 10000000010000001253           
CUS0845900000108213943007         SANFORD, CATHERINE  1625 SPENCE ST                          000N        CARE OF             
MTR08459000001000000000000000RA              01091503    005801310000013100000610000003NN  NNW 000                       N    
RDG08459000WATRL000000004K00000000000000945005701052015083740N000000000000N88       000500400K 10000000010000000913           
CUS0845900000108213944005         SAFFRAN, EVAN WILLIA1619 SPENCE ST                          000N        CARE OF             
MTR08459000001000000000000000RA              01091134    005801320000013200000610000003NN  NNW 000                       N    
RDG08459000WATRL000000004K00000000000001200005801052015083833N000400000010N88       000530400K 10000000010000001198           
CUS0845900000108213945002         EH POOLED 910, LP   1609 SPENCE ST                          000N        CARE OF             
MTR08459000001000000000000000RA              74692034    005801330000013300000350000003NN  NNW 000   VACANT PROPERTY     N    
RDG08459000WATRL000000004K00000000000000000005901052015083857N000000000000N88       000240400K 10000000010000000000           
CUS0845900000108213946000         PADILLA, FRANK      1605 SPENCE ST                          000N        CARE OF             
MTR08459000001000000000000000RA              76346551    005801340000013400000350000003NN  NNW 000                       N    
RDG08459000WATRL000000004K00000000000000044002701092015083948N000400000010U88       001180400K 10000000010000000040           
CUS0845900000108213947008         SUPIK JR., JOSEPH A.1603 SPENCE ST                          000N        CARE OF             
MTR08459000001000000000000000RA              14918660    005801350000013500000310000003NN  NNW 000                       N    
RDG08459000WATRL000000004K00000000000000426002801092015083951N000000000000U88       000030400K 10000000010000000406           
CUS0845900000108213948006         ALBERT E WILLEY     1601 SPENCE ST                          000N        CARE OF             
MTR08459000001000000000000000RA              26009358    005801360000013600000520000003NN  NNW 000                       N    
RDG08459000WATRL000000004K00000000000003711006001052015084055N000000000000N88       001180400K 10000000010000003696           
CUS0845900000108213958005         C.E.W. LLC          2311 GROVE ST                           000N        CARE OF             
MTR08459000001000000000000000RA              29404404    005801370000013700000520000003NN  NNW 000                       N    
RDG08459000WATRL000000004K00000000000003245006801052015085130N000000000000N88       000620400K 10000000010000003235           
CUS0845900000108213959003         BURTON, KEVIN D.    2309 GROVE ST                           000N        CARE OF             
MTR08459000001000000000000000RA              74691464    005801380000013800000350000003NN  NNW 000                       N    
RDG08459000WATRL000000004K00000000000000285006701052015085028N000000000000N88       000330400K 10000000010000000230           
CUS0845900000108213960001         PNC BANK, NATIONAL A2307 GROVE ST                           000N        CARE OF             
MTR08459000001000000000000000RA              27812492    005801390000013900000520000003NN  NNW 000                       N    
RDG08459000WATRL000000004K00000000000002919006601052015084955N000000000000N88       000430400K 10000000010000002919           
CUS0845900000108213961009         ROBIN E PARK-FULLER 2303 GROVE ST                           000N        CARE OF             
MTR08459000001000000000000000RA              01090503    005801400000014000000610000003NN  NNW 000                       N    
RDG08459000WATRL000000004K00000000000000836006501052015084912N000000000000N88       002130400K 10000000010000000827           
CUS0845900000108358053000         LAMBERT, VIVIAN I   1600 SPENCE ST                          000N        CARE OF             
MTR08459000001000000000000000RA              50480527    005801410000014100000520000003NN  NNW 000                       N    
RDG08459000WATRL000000004K00000000000000519002901092015084105N000000000000U88       000740400K 10000000010000000511           
CUS0845900000108213962007         MORGAN JR., ALFRED E1606 SPENCE ST                          000N        CARE OF             
MTR08459000001000000000000000RA              32177031    005801420000014200000520000003NN  NNW 000                       N    
RDG08459000WATRL000000004K00000000000001767006101052015084213N000000000000N88       000780400K 10000000010000001742           
CUS0845900000108213963005         ARNOLD SR, RICHARD L1612 SPENCE ST                          000N        CARE OF             
MTR08459000001000000000000000RA              27131993    005801430000014300000520000003NN  NNW 000                       N    
RDG08459000WATRL000000004K00000000000003420006201052015084256N000000000000N88       000430400K 10000000010000003395           
CUS0845900000108213964003         FUROY GILL          1620 SPENCE ST                          000N        CARE OF             
MTR08459000001000000000000000RA              00132969    005801440000014400000570000003NN  NNW 000                       N    
RDG08459000WATRL000000004K00000000000000903006301052015084416N000000000000N88       000800400K 10000000010000000880           
CUS0845900000108213965000         METZGER, JAMES E.   1636 SPENCE ST                          000N        CARE OF             
MTR08459000001000000000000000RA              41590555    005801450000014500000520000003NN  NNW 000                       N    
RDG08459000WATRL000000004K00000000000002372006401052015084539N000000000000N88       000830400K 10000000010000002344           
CUS0845900000108213966008         NEMAA PROPERTIES, LL1633 SEXTON ST                          000N        CARE OF             
MTR08459000001000000000000000RA              14918861    005801460000014600000310000003NN  NNW 000                       N    
RDG08459000WATRL000000004K00000000000000196004201052015082422N000000000000N88       000730400K 10000000010000000172           
CUS0845900000108213967006         FEDERAL NATIONAL MOR1631 SEXTON ST                          000N        CARE OF             
MTR08459000001000000000000000RA              00132700    005801470000014700000570000003NN  NNW 000                       N    
RDG08459000WATRL000000004K00000000000000820004301052015082437N000000000000N88       000150400K 10000000010000000820           
CUS0845900000108213968004         PROMPT RESTORATION, 1629 SEXTON ST                          000N        CARE OF             
MTR08459000001000000000000000RA              01081219    005801480000014800000610000003NN  NNW 000                       N    
RDG08459000WATRL000000004K00000000000000431004401052015082459N000000000000N88       000220400K 10000000010000000414           
CUS0845900000108213969002         ZIMMERMAN, AZALEE   1627 SEXTON ST                          000N        CARE OF             
MTR08459000001000000000000000RA              27826341    005801490000014900000520000003NN  NNW 000                       N    
RDG08459000WATRL000000004K00000000000002452004501052015082541N000000000000N88       000420400K 10000000010000002436           
CUS0845900000108213970000         DINH, CHAU THAH     1625 SEXTON ST                          000N        CARE OF             
MTR08459000001000000000000000RA              10023715    005801500000015000000570000003NN  NNW 000                       N    
RDG08459000WATRL000000004K00000000000000027004601052015082619N000300000010N88       000380400K 10000000010000000006           
CUS0845900000108213971008         NEMA PROPERTIES, LLC1623 SEXTON ST                          000N        CARE OF             
MTR08459000001000000000000000RA              27131995    005801510000015100000520000003NN  NNW 000   VACANT PROPERTY     N    
RDG08459000WATRL000000004K00000000000002784004701052015082623N000000000000N88       000040400K 10000000010000002784           
CUS0845900000108213972006         JANSEN, BARBARA L.  1617 SEXTON ST                          000N        CARE OF             
MTR08459000001000000000000000RA              75424269    005801520000015200000350000003NN  NNW 000                       N    
RDG08459000WATRL000000004K00000000000000139004801052015082712N000000000000N88       000490400K 10000000010000000118           
CUS0845900000108213973004         HINES, CHERYL A     1615 SEXTON ST                          000N        CARE OF             
MTR08459000001000000000000000RA              54349632    005801530000015300000520000003NN  NNW 000                       N    
RDG08459000WATRL000000004K00000000000001291004901052015082750N000000000000N88       000380400K 10000000010000001280           
CUS0845900000108213974002         STEIN, DAVID PAUL   1601 SEXTON ST                          000N        CARE OF             
MTR08459000001000000000000000RA              24231648    005801540000015400000520000003NN  NNW 000                       N    
RDG08459000WATRL000000004K00000000000003038000101052015075419N000000000000N88       000000400K 10000000010000003028           
CUS0845900000108213975009         W CARD BUILDING AND 1606 SEXTON ST                          000N        CARE OF             
MTR08459000001000000000000000RA              31937184    007501550000015500000520000000NY  NNW 000                       N    
MTM0845900031937184    4X18 IN STREET CANT OPEN                                                                               
RDG08459000WATRL000000004K00000000000000000000000000000000000 000000000000U         000000400  10000000010000002026           
CUS0845900000108421382006         PALACIOS, MIRIAN    1608 SEXTON ST                          000N        CARE OF             
MTR08459000001000000000000000RA              50480261    005801560000015600000520000003NN  NNW 000   VACANT PROPERTY     N    
RDG08459000WATRL000000004K00000000000000257000201052015075529N000000000000N88       000700400K 10000000010000000257           
CUS0845900000108421381008         PALACIOS, MIRIAN G. 1610 SEXTON ST                          000N        CARE OF             
MTR08459000001000000000000000RA              50480091    005801570000015700000520000003NN  NNW 000                       N    
RDG08459000WATRL000000004K00000000000002049000301052015075554N000000000000N88       000250400K 10000000010000002026           
CUS0845900000108381457004         BAKER, MICHAEL R    1612 SEXTON ST                          000N        CARE OF             
MTR08459000001000000000000000RA              45381688    005801580000015800000520000003NN  NNW 000                       N    
RDG08459000WATRL000000004K00000000000002163000401052015075656N000000000000N88       000620400K 10000000010000002155           
CUS0845900000108361794004         SANTMYER SR, DONALD 1614 SEXTON ST                          000N        CARE OF             
MTR08459000001000000000000000RA              99292291    005801590000015900000570000003NN  NNW 000                       N    
RDG08459000WATRL000000004K00000000000000645003001092015084539N000000000000U88       002740400K 10000000010000000640           
CUS0845900000108213976007         CLARK, GARY C.      1616 SEXTON ST                          000N        CARE OF             
MTR08459000001000000000000000RA              29404710    005801600000016000000520000003NN  NNW 000                       N    
RDG08459000WATRL000000004K00000000000001679000501052015075832N000300000010N88       000960400K 10000000010000001656           
CUS0845900000108213977005         FERATE, JAMES P.    1618 SEXTON ST                          000N        CARE OF             
MTR08459000001000000000000000RA              14901599    005801610000016100000310000003NN  NNW 000                       N    
RDG08459000WATRL000000004K00000000000001632000601052015075836N000000000000N88       000040400K 10000000010000001601           
CUS0845900000108213978003         KEVIN J STIELPER & W1622 SEXTON ST                          000N        CARE OF             
MTR08459000001000000000000000RA              46880479    005801620000016200000520000003NN  NNW 000                       N    
RDG08459000WATRL000000004K00000000000001490000701052015075912N000000000000N88       000360400K 10000000010000001479           
CUS0845900000108213979001         RALEY, ROBERT A.    1626 SEXTON ST                          000N        CARE OF             
MTR08459000001000000000000000RA              01102580    005801630000016300000610000003NN  NNW 000                       N    
RDG08459000WATRL000000004K00000000000000405000801052015075945N000000000000N88       000330400K 10000000010000000397           
CUS0845900000108213980009         BASS JR, DONALD     1628 SEXTON ST                          000N        CARE OF             
MTR08459000001000000000000000RA              14911623    005801640000016400000310000003NN  NNW 000                       N    
RDG08459000WATRL000000004K00000000000000365000901052015080014N000000000000N88       000290400K 10000000010000000355           
CUS0845900000108213981007         SUTHERLAND, QUENTIN 1630 SEXTON ST                          000N        CARE OF             
MTR08459000001000000000000000RA              48593357    005801650000016500000520000003NN  NNW 000                       N    
RDG08459000WATRL000000004K00000000000001230001001052015080049N000000000000N88       000350400K 10000000010000001218           
CUS0845900000108213982005         ECKART, LORENA A    1702 SEXTON ST                          000N        CARE OF             
MTR08459000001000000000000000RA              01096508    005801660000016600000610000003NN  NNW 000                       N    
RDG08459000WATRL000000004K00000000000000207001101052015080136N000000000000N88       000470400K 10000000010000000204           
CUS0845900000108213983003         COMMUNITY DEVELOPMEN1706 SEXTON ST                          000N        CARE OF             
MTR08459000001000000000000000RA              01091502    005801670000016700000610000003NN  NNW 000                       N    
RDG08459000WATRL000000004K00000000000000877001201052015080208N000300000010N88       000320400K 10000000010000000858           
CUS0845900000108213984001         LINTON, JOHN B      1710 SEXTON ST                          000N        CARE OF             
MTR08459000001000000000000000RA              14911539    005801680000016800000310000003NN  NNW 000                       N    
RDG08459000WATRL000000004K00000000000000520001301052015080247N000000000000N88       000390400K 10000000010000000509           
CUS0845900000108213985008         BELLOS, KIMBERLY A. 1712 SEXTON ST                          000N        CARE OF             
MTR08459000001000000000000000RA              41590495    005801690000016900000520000003NN  NNW 000                       N    
RDG08459000WATRL000000004K00000000000001838001401052015080333N000000000000N88       000460400K 10000000010000001818           
CUS0845900000108213986006         AGHAJANYAN, AMURAH&S1714 SEXTON ST                          000N        CARE OF             
MTR08459000001000000000000000RA              01091507    005801700000017000000610000003NN  NNW 000                       N    
RDG08459000WATRL000000004K00000000000001197001501052015080414N000000000000N88       000410400K 10000000010000001186           
CUS0845900000108213987004         LEMBACH, DARRYL B   1716 SEXTON ST                          000N        CARE OF             
MTR08459000001000000000000000RA              00132911    005801710000017100000570000003NN  NNW 000                       N    
RDG08459000WATRL000000004K00000000000000402001601052015080552N000100000010N88       000980400K 10000000010000000402           
CUS0845900000108213988002         HARMON SR., VINCENT 1720 SEXTON ST                          000N        CARE OF             
MTR08459000001000000000000000RA              99293826    005801720000017200000570000003NN  NNW 000                       N    
RDG08459000WATRL000000004K00000000000001438001701052015080633N000000000000N88       000410400K 10000000010000001412           
CUS0845900000108213989000         FRYCO INC           1722 SEXTON ST                          000N        CARE OF             
MTR08459000001000000000000000RA              77889631    005801730000017300000350000003NN  NNW 000                       N    
RDG08459000WATRL000000004K00000000000000084001801052015080729N000000000000N88       000560400K 10000000010000000026           
CUS0845900000108213990008         GRIFFITH, KEITH EUGE1800 SEXTON ST                          000N        CARE OF             
MTR08459000001000000000000000RA              01100190    005801740000017400000610000003NN  NNW 000                       N    
RDG08459000WATRL000000004K00000000000000559001901052015080756N000000000000N88       000270400K 10000000010000000538           
CUS0845900000108213991006         DUNNIGAN SR., DOUGLA1802 SEXTON ST                          000N        CARE OF             
MTR08459000001000000000000000RA              10001043    005801750000017500000570000003NN  NNW 000                       N    
RDG08459000WATRL000000004K00000000000000524002001052015080902N000000000000N88       000660400K 10000000010000000505           
CUS0845900000108213992004         MORRIS, W PAUL      1804 SEXTON ST                          000N        CARE OF             
MTR08459000001000000000000000RA              14911157    005801760000017600000310000003NN  NNW 000                       N    
RDG08459000WATRL000000004K00000000000000612002101052015080947N000000000000N88       000450400K 10000000010000000606           
CUS0845900000108213994000         EVANGELICAL BIBLE   1808 SEXTON ST                          000N        CARE OF             
MTR08459000001000000000000000RA              14900522    005801770000017700000310000003NN  NNW 000                       N    
RDG08459000WATRL000000004K00000000000000580002201052015081038N000000000000N88       000510400K 10000000010000000576           
CUS0845900000108213998001         HARMON SR., VINCENT 1803 SEXTON ST                          000N        CARE OF             
MTR08459000001000000000000000RA              50791157    005801780000017800000520000003NN  NNW 000                       N    
RDG08459000WATRL000000004K00000000000001784002301052015081141N000000000000N88       000630400K 10000000010000001757           
CUS0845900000108213999009         MIKAIL PROPERTIES, L1801 SEXTON ST                          000N        CARE OF             
MTR08459000001000000000000000RA              27822853    005801790000017900000520000003NN  NNW 000                       N    
RDG08459000WATRL000000004K00000000000002907002401052015081215N000000000000N88       000340400K 10000000010000002907           
CUS0845900000108214000005         MYERS, CONCETTA T.  1723 SEXTON ST                          000N        CARE OF             
MTR08459000001000000000000000RA              24227097    005801800000018000000520000003NN  NNW 000                       N    
RDG08459000WATRL000000004K00000000000002976002501052015081240N000000000000N88       000250400K 10000000010000002973           
CUS0845900000108214001003         ALLEGHENY EAST CONFE1721 SEXTON ST                          000N        CARE OF             
MTR08459000001000000000000000RA              99291193    005801810000018100000570000003NN  NNW 000                       N    
RDG08459000WATRL000000004K00000000000001947002601052015081315N000000000000N88       000350400K 10000000010000001939           
CUS0845900000108214002001         ALLEGHENY EAST CONFE1713 SEXTON ST                          000N        CARE OF             
MTR08459000001000000000000000RA              14900567    005801820000018200000310000003NN  NNW 000   VACANT PROPERTY     N    
RDG08459000WATRL000000004K00000000000000064002701052015081318N000000000000N88       000030400K 10000000010000000064           
CUS0845900000108214003009         NUZHAT JAN          1711 SEXTON ST                          000N        CARE OF             
MTR08459000001000000000000000RA              14900630    005801830000018300000310000003NN  NNW 000                       N    
RDG08459000WATRL000000004K00000000000001878003101092015085001N000300000010U88       002620400K 10000000010000001852           
CUS0845900000108214004007         FLAXCOMB, BRIAN K   1709 SEXTON ST                          000N        CARE OF             
MTR08459000001000000000000000RA              14900215    005801840000018400000310000003NN  NNW 000                       N    
RDG08459000WATRL000000004K00000000000000926002901052015081542N000000000000N88       000150400K 10000000010000000898           
CUS0845900000108214005004         LEDGE PROPERTIES,LLC1707 SEXTON ST                          000N        CARE OF             
MTR08459000001000000000000000RA              99291189    005801850000018500000570000003NN  NNW 000                       N    
RDG08459000WATRL000000004K00000000000000714003001052015081855N000000000001N88       000430400K 10000000010000000699           
CUS0845900000108214006002         MCCARTHY, JOHN      1705 SEXTON ST                          000N        CARE OF             
MTR08459000001000000000000000RA              27833956    005801860000018600000520000003NN  NNW 000                       N    
RDG08459000WATRL000000004K00000000000002617003101052015081812N000000000000N88       000950400K 10000000010000002611           
CUS0845900000108214007000         MCQUEENEY, HUGH F   1703 SEXTON ST                          000N        CARE OF             
MTR08459000001000000000000000RA              99292290    005801870000018700000570000003NN  NNW 000                       N    
RDG08459000WATRL000000004K00000000000000844003201052015082015N000000000000N88       000800400K 10000000010000000828           
CUS0845900000108214008008         HERKIMER STREET, LLC2419 HERKIMER ST                        000N        CARE OF             
MTR08459000001000000000000000RA              10013507    005801880000018800000570000003NN  NNW 000                       N    
RDG08459000WATRL000000004K00000000000000580003301052015082107N000000000000N88       000520400K 10000000010000000540           
CUS0845900000108214009006         EQUITY TRST CO CUSTO2417 HERKIMER ST                        000N        CARE OF             
MTR08459000001000000000000000RA              44090141    005801890000018900000520000003NN  NNW 000                       N    
RDG08459000WATRL000000004K00000000000000685003401052015082132N000000000000N88       000250400K 10000000010000000678           
CUS0845900000108214010004         ROMERO, JOSE I.     2415 HERKIMER ST                        000N        CARE OF             
MTR08459000001000000000000000RA              99292292    005801900000019000000570000003NN  NNW 000                       N    
RDG08459000WATRL000000004K00000000000002109003501052015082137N000000000000N88       000050400K 10000000010000002068           
CUS0845900000108214011002         BURRELL, JUDY ANN   2413 HERKIMER ST                        000N        CARE OF             
MTR08459000001000000000000000RA              41258665    005801910000019100000520000003NN  NNW 000                       N    
RDG08459000WATRL000000004K00000000000001289003601052015082159N000000000000N88       000220400K 10000000010000001281           
CUS0845900000108214012000         CHARLES W SULLIVANS 2411 HERKIMER ST                        000N        CARE OF             
MTR08459000001000000000000000RA              76347106    005801920000019200000350000003NN  NNW 000                       N    
RDG08459000WATRL000000004K00000000000000005003701052015082204N000000000000N88       000050400K 10000000010000000003           
CUS0845900000108214013008         GLEW, AMY           2409 HERKIMER ST                        000N        CARE OF             
MTR08459000001000000000000000RA              32770100    005801930000019300000520000003NN  NNW 000                       N    
RDG08459000WATRL000000004K00000000000003733003801052015082237N000000000000N88       000330400K 10000000010000003725           
CUS0845900000108214014006         VANDENBERGHE, MARGOT2407 HERKIMER ST                        000N        CARE OF             
MTR08459000001000000000000000RA              33730292    005801940000019400000520000003NN  NNW 000                       N    
RDG08459000WATRL000000004K00000000000000786003901052015082240N000000000000N88       000030400K 10000000010000000765           
CUS0845900000108214015003         LORETTA CHEATHAM    2405 HERKIMER ST                        000N        CARE OF             
MTR08459000001000000000000000RA              01113722    005801950000019500000610000003NN  NNW 000                       N    
RDG08459000WATRL000000004K00000000000000866004001052015082305N000000000000N88       000250400K 10000000010000000849           
CUS0845900000108214016001         BRANCH, WESLEY C    2403 HERKIMER ST                        000N        CARE OF             
MTR08459000001000000000000000RA              01113913    005801960000019600000610000003NN  NNW 000                       N    
RDG08459000WATRL000000004K00000000000000749004101052015082309N000000000000N88       000040400K 10000000010000000739           
CUS0845900000108214017009         SCHLICK, CHRISTOPHER1702 SPENCE ST                          000N        CARE OF             
MTR08459000001000000000000000RA              14900387    005801970000019700000310000003NN  NNW 000                       N    
RDG08459000WATRL000000004K00000000000001395009501052015092252N000000000000N88       001120400K 10000000010000001395           
CUS0845900000108214018007         HOFFMAN JR., WILLIAM1706 SPENCE ST                          000N        CARE OF             
MTR08459000001000000000000000RA              99292624    005801980000019800000570000003NN  NNW 000                       N    
RDG08459000WATRL000000004K00000000000000812009701052015092529N000000000000N88       001100400K 10000000010000000803           
CUS0845900000108214019005         RICHARDSON, GREGORY 1708 SPENCE ST                          000N        CARE OF             
MTR08459000001000000000000000RA              01093546    005801990000019900000610000003NN  NNW 000                       N    
RDG08459000WATRL000000004K00000000000001200009601052015092339N000000000000N88       000470400K 10000000010000001183           
CUS0845900000108214020003         CHASE               1714 SPENCE ST                          000N        CARE OF             
MTR08459000001000000000000000RA              01111238    005802000000020000000610000003NN  NNW 000                       N    
RDG08459000WATRL000000004K00000000000000592009801052015092630N000000000000N88       000610400K 10000000010000000592           
CUS0845900000108214021001         BISHOP, JAMES S.    1716 SPENCE ST                          000N        CARE OF             
MTR08459000001000000000000000RA              99286139    005802010000020100000570000003NN  NNW 000                       N    
RDG08459000WATRL000000004K00000000000001407009901052015092724N000000000000N88       000540400K 10000000010000001399           
CUS0845900000108214022009         DRIVER, KIMBERLY D. 1718 SPENCE ST                          000N        CARE OF             
MTR08459000001000000000000000RA              14912810    005802020000020200000310000003NN  NNW 000                       N    
RDG08459000WATRL000000004K00000000000000793010001052015092730N000000000000N88       000060400K 10000000010000000782           
CUS0845900000108214023007         MRS LUCIA DI NICOLO 1720 SPENCE ST                          000N        CARE OF             
MTR08459000001000000000000000RA              29679579    005802030000020300000520000000NN  NNW 000                       N    
RDG08459000WATRL000000004K00000000000002248010101052015092837N000000000000N88       000670400K 10000000010000002239           
CUS0845900000108214024005         BUCHANAN JR., MAXWEL1722 SPENCE ST                          000N        CARE OF             
MTR08459000001000000000000000RA              14900588    005802040000020400000310000003NN  NNW 000                       N    
RDG08459000WATRL000000004K00000000000001498010201052015093010N000000000000N88       000930400K 10000000010000001466           
CUS0845900000108214025002         JEFF SANDRIDGE      1724 SPENCE ST                          000N        CARE OF             
MTR08459000001000000000000000RA              14902520    005802050000020500000310000003NN  NNW 000                       N    
RDG08459000WATRL000000004K00000000000000161002501092015083425N000000000000U88       001740400K 10000000010000000160           
CUS0845900000108214026000         JONES, MICHAEL S    1726 SPENCE ST                          000N        CARE OF             
MTR08459000001000000000000000RA              99291077    005802060000020600000570000003NN  NNW 000                       N    
RDG08459000WATRL000000004K00000000000000882002401092015083131N000000000000U88       000760400K 10000000010000000867           
CUS0845900000108214027008         BANK OF AMERICA     1728 SPENCE ST                          000N        CARE OF             
MTR08459000001000000000000000RA              41590554    005802070000020700000520000003NN  NNW 000                       N    
RDG08459000WATRL000000004K00000000000002846002301092015083015N000000000000U88       000170400K 10000000010000002846           
CUS0845900000108214028006         ROBERTS, DAVID P.   1730 SPENCE ST                          000N        CARE OF             
MTR08459000001000000000000000RA              01081217    005802080000020800000610000003NN  NNW 000                       N    
RDG08459000WATRL000000004K00000000000000483002101092015082949N000000000000U88       001010400K 10000000010000000469           
CUS0845900000108214029004         CONSTANTINO FE MELGA1800 SPENCE ST                          000N        CARE OF             
MTR08459000001000000000000000RA              01108795    005802090000020900000610000003NN  NNW 000                       N    
RDG08459000WATRL000000004K00000000000000485002201092015082958N000000000021U88       000090400K 10000000010000000475           
CUS0845900000108214030002         DANG, DAT H.        1802 SPENCE ST                          000N        CARE OF             
MTR08459000001000000000000000RA              00119309    007502100000021000000570000003NN  NNW 000                       N    
RDG08459000WATRL000000004K00000000000001307002001092015082808N000400000010U88       000550400K 10000000010000001306           
CUS0845900000108214031000         RAUSCH, SHERI L     1804 SPENCE ST                          000N        CARE OF             
MTR08459000001000000000000000RA              43904705    007502110000021100000520000003NN  NNW 000                       N    
RDG08459000WATRL000000004K00000000000001543001901092015082713N000000000000U88       000040400K 10000000010000001525           
CUS0845900000108214032008         MCCRAY, JERRELL M.  1806 SPENCE ST                          000N        CARE OF             
MTR08459000001000000000000000RA              01108789    005802120000021200000610000003NN  NNW 000                       N    
RDG08459000WATRL000000004K00000000000000407001801092015082709N000000000000U88       000680400K 10000000010000000405           
CUS0845900000108214033006         ROHRBACHER, JOHN    1808 SPENCE ST                          000N        CARE OF             
MTR08459000001000000000000000RA              44093250    005802130000021300000520000003NN  NNW 000                       N    
RDG08459000WATRL000000004K00000000000001861001701092015082601N000000000010U88       000300400K 10000000010000001846           
CUS0845900000108214034004         FRAVEL, MARY AGNES  1810 SPENCE ST                          000N        CARE OF             
MTR08459000001000000000000000RA              29681138    005802140000021400000520000003NN  NNW 000                       N    
RDG08459000WATRL000000004K00000000000003622001601092015082531N000000000000U88       001770400K 10000000010000003595           
RTR08459000NN02140214000002140000000002140214000214NY021402140214000600000000000000000000000002    12242014NY020000 N         
RHD08466700NN02380238000002380000000002380238000321NY023802380238000000000000000000000000000002    12242014NY020000 N         
CUS0846670000108216428006         RICHARD W NUNNALLY &2981 MALLVIEW RD                        000N        CARE OF             
MTR08466700001000000000000000RA              14916154    005800010000000100000310000003NN  NNW 000                       N    
RDG08466700WATRL000000004K00000000000000274000101082015095924N000000000000N84       000000400K 10000000010000000267           
CUS0846670000108216429004         WAGNER, BERNARD S   2979 MALLVIEW RD                        000N        CARE OF             
MTR08466700001000000000000000RA              35117257    005800020000000200000520000003NN  NNW 000                       N    
RDG08466700WATRL000000004K00000000000002347000201082015095927N000000000000N84       000030400K 10000000010000002330           
CUS0846670000108216430002         MAYZCK, RODNEY E    2977 MALLVIEW RD                        000N        CARE OF             
MTR08466700001000000000000000RA              41589119    005800030000000300000520000003NN  NNW 000                       N    
RDG08466700WATRL000000004K00000000000001122000301082015100052N000000000000N84       000850400K 10000000010000001100           
CUS0846670000108216431000         WINSTON WANG        2975 MALLVIEW RD                        000N        CARE OF             
MTR08466700001000000000000000RA              24773578    005800040000000400000520000003NN  NNW 000                       N    
RDG08466700WATRL000000004K00000000000003711000401082015100105N000000000000N84       000130400K 10000000010000003711           
CUS0846670000108216432008         GRILLER, THEODORE W 2973 MALLVIEW RD                        000N        CARE OF             
MTR08466700001000000000000000RA              99392399    005800050000000500000570000003NN  NNW 000                       N    
RDG08466700WATRL000000004K00000000000000395000501082015100128N000000000000N84       000230400K 10000000010000000392           
CUS0846670000108216433006         GARBUTT, DEBORAH A  2971 MALLVIEW RD                        000N        CARE OF             
MTR08466700001000000000000000RA              00126048    005800060000000600000570000003NN  NNW 000                       N    
RDG08466700WATRL000000004K00000000000001893000601082015100140N000000000000N84       000120400K 10000000010000001863           
CUS0846670000108216434004         BOTTERILL, LLC      2969 MALLVIEW RD                        000N        CARE OF             
MTR08466700001000000000000000RA              24234510    005800070000000700000520000003NN  NNW 000                       N    
RDG08466700WATRL000000004K00000000000002301007501082015122313N000400000010N84       004540400K 10000000010000002284           
CUS0846670000108216435001         SAUNDERS RONALD E   2967 MALLVIEW RD                        000N        CARE OF             
MTR08466700001000000000000000RA              99292796    005800080000000800000570000003NN  NNW 000                       N    
RDG08466700WATRL000000004K00000000000001849007601082015122316N000000000000N84       000030400K 10000000010000001823           
CUS0846670000108216436009         TAYLOR, TRACEY      2965 MALLVIEW RD                        000N        CARE OF             
MTR08466700001000000000000000RA              31583405    005800090000000900000520000003NN  NNW 000                       N    
RDG08466700WATRL000000004K00000000000002894000701082015100438N000000000000N84       001780400K 10000000010000002884           
CUS0846670000108216437007         MALL-FAYE, LLC      2963 MALLVIEW RD                        000N        CARE OF             
MTR08466700001000000000000000RA              31583402    005800100000001000000520000003NN  NNW 000                       N    
RDG08466700WATRL000000004K00000000000003474000801082015100441N000000000000N84       000030400K 10000000010000003459           
CUS0846670000108216438005         PAMELA MCCAFFREY    2961 MALLVIEW RD                        000N        CARE OF             
MTR08466700001000000000000000RA              54348615    005800110000001100000520000003NN  NNW 000                       N    
RDG08466700WATRL000000004K00000000000000856000901082015100527N000000000000N84       000460400K 10000000010000000840           
CUS0846670000108216439003         WHITTAKER, MALCOLM D2959 MALLVIEW RD                        000N        CARE OF             
MTR08466700001000000000000000RA              35111723    005800120000001200000520000003NN  NNW 000                       N    
RDG08466700WATRL000000004K00000000000002207001001082015100552N000000000000N84       000250400K 10000000010000002192           
CUS0846670000108216440001         JOHN E CADDEN       2957 MALLVIEW RD                        000N        CARE OF             
MTR08466700001000000000000000RA              32900719    005800130000001300000520000003NN  NNW 000                       N    
RDG08466700WATRL000000004K00000000000002202001101082015100650N000300000010N84       000580400K 10000000010000002195           
CUS0846670000108216441009         VILCHE, TOMAS       2955 MALLVIEW RD                        000N        CARE OF             
MTR08466700001000000000000000RA              38984799    005800140000001400000520000003NN  NNW 000                       N    
RDG08466700WATRL000000004K00000000000002499001201082015100709N000000000000N84       000190400K 10000000010000002466           
CUS0846670000108216442007         GRANDE, WALTER D.   2953 MALLVIEW RD                        000N        CARE OF             
MTR08466700001000000000000000RA              24232753    005800150000001500000520000003NN  NNW 000                       N    
RDG08466700WATRL000000004K00000000000005125001301082015101133N000000000000N84       002640400K 10000000010000005107           
CUS0846670000108216443005         GLENN, QUENTIN      2951 MALLVIEW RD                        000N        CARE OF             
MTR08466700001000000000000000RA              33730517    005800160000001600000520000003NN  NNW 000                       N    
RDG08466700WATRL000000004K00000000000001841001401082015101142N000300000010N84       000090400K 10000000010000001816           
CUS0846670000108216444003         GENERETTE, JR., WILL2949 MALLVIEW RD                        000N        CARE OF             
MTR08466700001000000000000000RA              10012931    005800170000001700000570000003NN  NNW 000                       N    
RDG08466700WATRL000000004K00000000000000085001501082015101253N000000000000N84       000710400K 10000000010000000082           
CUS0846670000108216445000         JUAN M CASTILLO RIVE2947 MALLVIEW RD                        000N        CARE OF             
MTR08466700001000000000000000RA              32903446    005800180000001800000520000003NN  NNW 000                       N    
RDG08466700WATRL000000004K00000000000002399001601082015101346N000000000000N84       000530400K 10000000010000002385           
CUS0846670000108216446008         ARROYO, JUAN C      2945 MALLVIEW RD                        000N        CARE OF             
MTR08466700001000000000000000RA              32903444    005800190000001900000520000003NN  NNW 000                       N    
RDG08466700WATRL000000004K00000000000003602001701082015101355N000000000000N84       000090400K 10000000010000003592           
CUS0846670000108216447006         SMITH, ROSE MARY    2943 MALLVIEW RD                        000N        CARE OF             
MTR08466700001000000000000000RA              31583404    005800200000002000000520000003NN  NNW 000                       N    
RDG08466700WATRL000000004K00000000000001820001801082015101444N000000000000N84       000490400K 10000000010000001820           
CUS0846670000108216448004         GARCIA, MERIS D.    2941 MALLVIEW RD                        000N        CARE OF             
MTR08466700001000000000000000RA              41075630    005800210000002100000520000003NN  NNW 000                       N    
RDG08466700WATRL000000004K00000000000001822001901082015101505N000000000000N84       000210400K 10000000010000001796           
CUS0846670000108216449002         KHAN, MOHAMMED SHAFI2939 MALLVIEW RD                        000N        CARE OF             
MTR08466700001000000000000000RA              30517369    005800220000002200000520000003NN  NNW 000                       N    
RDG08466700WATRL000000004K00000000000001889002001082015112700N000000000000N84       043150400K 10000000010000001866           
CUS0846670000108216450000         SHAHID, SAIMA       2937 MALLVIEW RD                        000N        CARE OF             
MTR08466700001000000000000000RA              30515676    005800230000002300000520000003NN  NNW 000                       N    
RDG08466700WATRL000000004K00000000000001863002101082015112722N000000000000N84       000220400K 10000000010000001840           
CUS0846670000108216451008         FLORENCIO BENAVIDES 2935 MALLVIEW RD                        000N        CARE OF             
MTR08466700001000000000000000RA              41081359    005800240000002400000520000003NN  NNW 000                       N    
RDG08466700WATRL000000004K00000000000001016001101092015103545N000100000010U84       002750400K 10000000010000001016           
CUS0846670000108216452006         HINTON, ANTHONY     2933 MALLVIEW RD                        000N        CARE OF             
MTR08466700001000000000000000RA              14925263    005800250000002500000310000003NN  NNW 000                       N    
RDG08466700WATRL000000004K00000000000000424002201082015112934N000000000000N84       001320400K 10000000010000000412           
CUS0846670000108216453004         REGIONAL MGMT. INC  2931 MALLVIEW RD                        000N        CARE OF             
MTR08466700001000000000000000RA              26015192    005800260000002600000520000003NN  NNW 000                       N    
RDG08466700WATRL000000004K00000000000003276002301082015113009N000000000000N84       000350400K 10000000010000003267           
CUS0846670000108216454002         HARRIS, KEITH       2929 MALLVIEW RD                        000N        CARE OF             
MTR08466700001000000000000000RA              26015161    005800270000002700000520000003NN  NNW 000                       N    
RDG08466700WATRL000000004K00000000000004155002401082015113012N000000000000N84       000030400K 10000000010000004142           
CUS0846670000108216455009         GLENN, YVONNE A     2927 MALLVIEW RD                        000N        CARE OF             
MTR08466700001000000000000000RA              52768097    005800280000002800000520000003NN  NNW 000                       N    
RDG08466700WATRL000000004K00000000000000629002501082015113054N000000000000N84       000420400K 10000000010000000624           
CUS0846670000108216456007         MCCARTIN, DAVID E   2925 MALLVIEW RD                        000N        CARE OF             
MTR08466700001000000000000000RA              76348739    005800290000002900000350000003NN  NNW 000                       N    
RDG08466700WATRL000000004K00000000000000052002601082015113103N000000000000N84       000090400K 10000000010000000033           
CUS0846670000108216457005         JOS. G TIEDEMANN SR 2923 MALLVIEW RD                        000N        CARE OF             
MTR08466700001000000000000000RA              99286140    005800300000003000000570000003NN  NNW 000                       N    
RDG08466700WATRL000000004K00000000000000514002701082015113352N000000000000N84       001690400K 10000000010000000514           
CUS0846670000108216458003         JOHN S FAULKNER     2921 MALLVIEW RD                        000N        CARE OF             
MTR08466700001000000000000000RA              99286137    005800310000003100000570000003NN  NNW 000                       N    
RDG08466700WATRL000000004K00000000000000648002801082015113355N000000000000N84       000030400K 10000000010000000644           
CUS0846670000108216459001         RONALD E MONK       2919 MALLVIEW RD                        000N        CARE OF             
MTR08466700001000000000000000RA              99188108    005800320000003200000570000003NN  NNW 000                       N    
RDG08466700WATRL000000004K00000000000000941002901082015113530N000000000000N84       000950400K 10000000010000000930           
CUS0846670000108216460009         MONK, RONALD E      2917 MALLVIEW RD                        000N        CARE OF             
MTR08466700001000000000000000RA              99188116    005800330000003300000570000003NN  NNW 000                       N    
RDG08466700WATRL000000004K00000000000000398003001082015113533N000000000000N84       000030400K 10000000010000000389           
CUS0846670000108216461007         WHITE, AILEEN D     2915 MALLVIEW RD                        000N        CARE OF             
MTR08466700001000000000000000RA              99286138    005800340000003400000570000003NN  NNW 000                       N    
RDG08466700WATRL000000004K00000000000002078003101082015113738N000000000000N84       001250400K 10000000010000002039           
CUS0846670000108216462005         VITALE III, SALVATOR2913 MALLVIEW RD                        000N        CARE OF             
MTR08466700001000000000000000RA              99286141    005800350000003500000570000003NN  NNW 000                       N    
RDG08466700WATRL000000004K00000000000001603003201082015113741N000000000000N84       000030400K 10000000010000001583           
CUS0846670000108216463003         MELNIKOFF, STEPHEN R2911 MALLVIEW RD                        000N        CARE OF             
MTR08466700001000000000000000RA              00136868    005800360000003600000570000003NN  NNW 000                       N    
RDG08466700WATRL000000004K00000000000001727003301082015113920N000000000000N84       000990400K 10000000010000001706           
CUS0846670000108216464001         PURCELL, VERONICA   2909 MALLVIEW RD                        000N        CARE OF             
MTR08466700001000000000000000RA              00136867    005800370000003700000570000003NN  NNW 000                       N    
RDG08466700WATRL000000004K00000000000000474003401082015113937N000000000000N84       000170400K 10000000010000000463           
CUS0846670000108216465008         DEMAGNUS, ALBERT E. 2907 MALLVIEW RD                        000N        CARE OF             
MTR08466700001000000000000000RA              99286120    005800380000003800000570000003NN  NNW 000                       N    
RDG08466700WATRL000000004K00000000000000852003501082015114023N000000000000N84       000460400K 10000000010000000852           
CUS0846670000108216466006         HEMPHILL, ANTHONY L 2905 MALLVIEW RD                        000N        CARE OF             
MTR08466700001000000000000000RA              99286123    005800390000003900000570000003NN  NNW 000                       N    
RDG08466700WATRL000000004K00000000000001008003601082015114026N000000000000N84       000030400K 10000000010000000995           
CUS0846670000108216467004         JAMES R BREAKWELL   2903 MALLVIEW RD                        000N        CARE OF             
MTR08466700001000000000000000RA              29683759    005800400000004000000520000003NN  NNW 000                       N    
RDG08466700WATRL000000004K00000000000001516003701082015114159N000000000000N84       000930400K 10000000010000001510           
CUS0846670000108216468002         HOUCK, RICHARD EDWAR2901 MALLVIEW RD                        000N        CARE OF             
MTR08466700001000000000000000RA              29684209    005800410000004100000520000003NN  NNW 000                       N    
RDG08466700WATRL000000004K00000000000004463003801082015114207N000000000000N84       000080400K 10000000010000004438           
CUS0846670000108216470008         BUREAU OF PARKS     2761 WEGWORTH LN                        000N        CARE OF             
MTR08466700001000000000000000RA              31664076    001500420000004200000520000003NN  NNW 000                       N    
RDG08466700WATRL000000005K00000000000000000007701082015124919N000000000000N84       015630500K 10000000010000000000           
CUS0846670000108216471006         J JORDAN/TANGIE JORD2753 WEGWORTH LN                        000N        CARE OF             
MTR08466700001000000000000000RA              74689016    005800430000004300000350000003NN  NNW 000                       N    
RDG08466700WATRL000000004K00000000000000274007801082015125033N000300000010N84       000740400K 10000000010000000244           
CUS0846670000108216472004         AUBREY F POWERS     2751 WEGWORTH LN                        000N        CARE OF             
MTR08466700001000000000000000RA              27832877    005800440000004400000520000003NN  NNW 000                       N    
RDG08466700WATRL000000004K00000000000001384007901082015125119N000000000000N84       000460400K 10000000010000001380           
CUS0846670000108216473002         JODY/WILSON F RUGEL 2749 WEGWORTH LN                        000N        CARE OF             
MTR08466700001000000000000000RA              29684279    005800450000004500000520000003NN  NNW 000   VACANT PROPERTY     N    
RDG08466700WATRL000000004K00000000000000110008001082015125133N000000000000N84       000140400K 10000000010000000110           
CUS0846670000108216474000         MACKEY, SHAWN D.    2747 WEGWORTH LN                        000N        CARE OF             
MTR08466700001000000000000000RA              29683783    005800460000004600000520000003NN  NNW 000                       N    
RDG08466700WATRL000000004K00000000000002381008101082015125152N000000000000N84       000190400K 10000000010000002366           
CUS0846670000108216475007         ROSS, ARNETTA SAMUEL2745 WEGWORTH LN                        000N        CARE OF             
MTR08466700001000000000000000RA              48594599    005800470000004700000520000003NN  NNW 000                       N    
