FHDNNNN028005608005608005646N                                                                                           017096
RHD02046200NN00230023000000230000000000230023000042NY002300230023000200020000000000000000000001    12152014NY020000 N         
CUS0204620000102219071004         STORM, WESLEY       24 S PAYSON ST                          000N        CARE OF             
MTR02046200001000000000000000RA              75613579    005800010000000100000350000003NN  NNW 000                       N    
RDG02046200WATRL000000004K00000000000000000000201132015114140N000000000000N27       001160400K 10000000010000000000           
CUS0204620000102219079007         OTIS WILSON         2001 W BALTIMORE ST                     000N        CARE OF             
MTR02046200001000000000000000RA              75423448    005800020000000200000350000003NN  NNW 000                       N    
RDG02046200WATRL000000004K00000000000000000000101132015113944N000000000000N27       000000400K 10000000010000000000           
CUS0204620000102219489008         ROZANKOWSKI PROPERTI1915 WILHELM ST                         000N        CARE OF             
MTR02046200001000000000000000RA              74688356    005800030000000300000350000003NN  NNW 000   VACANT PROPERTY     N    
RDG02046200WATRL000000004K00000000000000000000601132015114435N000000000000N27       000150400K 10000000010000000000           
CUS0204620000102219103005         IWU, NGOZI          2042 HOLLINS ST                         000N        CARE OF             
MTR02046200001000000000000000RA              75424636    005800040000000400000350000003NN  NNW 000   VACANT PROPERTY     N    
RDG02046200WATRL000000004K00000000000000000000301132015114154N000000000000N27       000140400K 10000000010000000000           
CUS0204620000102363625001         LANDLORD SYSTEMS    2031 BOYD ST                            000N        CARE OF             
MTR02046200001000000000000000RA              21743910    005800050000000500000590000003NN  NNW 000   VACANT PROPERTY     N    
RDG02046200WATRL000000004K00000000000000585000401132015114214N000000000000N27       000200400K 10000000010000000585           
CUS0204620000102219144009         KODELL DAVIS        41 S PULASKI ST                         000N        CARE OF             
MTR02046200001000000000000000RA              75422409    005800060000000600000350000003NN  NNW 000                       N    
RDG02046200WATRL000000004K00000000000000057000501132015114420N000000000000N27       001260400K 10000000010000000042           
CUS0204620000102219159007         CURRY, ROSALEE      2117 W BALTIMORE ST                     000N        CARE OF             
MTR02046200001000000000000000RA              74691315    005800070000000700000350000003NN  NNW 000                       N    
RDG02046200WATRL000000004K00000000000000127002101132015122213N000000000000N27       002340400K 10000000010000000114           
CUS0204620000102219174006         SERRALL SR., GILBERT2142 HOLLINS ST                         000N        CARE OF             
MTR02046200001000000000000000RA              75422395    005800080000000800000350000003NN  NNW 000                       N    
RDG02046200WATRL000000004K00000000000000166001101132015120248N000000000000N27       002470400K 10000000010000000144           
CUS0204620000102219176001         WELLS FARGO BANK, NA2138 HOLLINS ST                         000N        CARE OF             
MTR02046200001000000000000000RA              21703202    005800090000000900000590000003NN  NNW 000                       N    
RDG02046200WATRL000000004K00000000000000000001901132015121543S019000000000N27       001160400K 10000000010000002765           
CUS0204620000102366905004         JACKSON, ANTHONY W  2136 HOLLINS ST                         000N        CARE OF             
MTR02046200001000000000000000RA              75423447    005800100000001000000350000003NN  NNW 000                       N    
RDG02046200WATRL000000004K00000000000000038001201132015120409N000000000000N27       000810400K 10000000010000000033           
CUS0204620000102365485008         MCCAIN, ANDREA      2134 HOLLINS ST                         000N        CARE OF             
MTR02046200001000000000000000RA              78022446    005800110000001100000350000003NN  NNW 000                       N    
RDG02046200WATRL000000004K00000000000000000001301132015120605N000000000000N27       001160400K 10000000010000000000           
CUS0204620000102363653003         LOGAN, GLADYS       2118 HOLLINS ST                         000N        CARE OF             
MTR02046200001000000000000000RA              75423561    005800120000001200000350000003NY  NNW 000                       N    
MTM0204620075423561    ALLEY ICE                                                                                              
RDG02046200WATRL000000004K00000000000000000000000000000000000 000000000000U         000000400  10000000010000000195           
CUS0204620000102365481007         CITY HOMES WEST BUSI2114 HOLLINS ST                         000N        CARE OF             
MTR02046200001000000000000000RA              75423554    005800130000001300000350000003NY  NNW 000                       N    
MTM0204620075423554    ALLEY ICE                                                                                              
RDG02046200WATRL000000004K00000000000000000000000000000000000 000000000000U         000000400  10000000010000000078           
CUS0204620000102219183007         WILLIAM/EDNA GOODE  2110 HOLLINS ST                         000N        CARE OF             
MTR02046200001000000000000000RA              50001252    005800140000001400000670000003NN  NNW 000                       N    
RDG02046200WATRL000000004K00000000000000000000801132015115358S018000000000N27       000350400K 10000000010000000817           
CUS0204620000102365477005         HAZEL VANN          2106 HOLLINS ST                         000N        CARE OF             
MTR02046200001000000000000000RA              75426530    005800150000001500000350000003NN  NNW 000                       N    
RDG02046200WATRL000000004K00000000000000059000701132015115323N000000000000N27       005280400K 10000000010000000050           
CUS0204620000102219189004         NICKY'S ROW HOMES, L2117 HOLLINS ST                         000N        CARE OF             
MTR02046200001000000000000000RA              99999999    005800160000001600000620000003NN  NNW 000                       N    
RDG02046200WATRL000000004K00000000000003150001001132015115841N000000000000N27       000110400K 10000000010000003150           
CUS0204620000102219199003         CITY HOMES WEST BUSI2137 HOLLINS ST                         000N        CARE OF             
MTR02046200001000000000000000RA              75614944    005800170000001700000350000003NN  NNW 000                       N    
RDG02046200WATRL000000004K00000000000000111000901132015115830N000400000010N27       002720400K 10000000010000000106           
CUS0204620000102219207004         JOHNNIE JAMES JR    2155 HOLLINS ST                         000N        CARE OF             
MTR02046200001000000000000000RA              74688330    005800180000001800000350000003NN  NNW 000                       N    
RDG02046200WATRL000000004K00000000000000060001401132015121055N000000000010N27       002900400K 10000000010000000059           
CUS0204620000102219209000         BESMAC REALTY, LLC  2161 HOLLINS ST                         000N        CARE OF             
MTR02046200001000000000000000RA              74688329    005800190000001900000350000003NN  NNW 000                       N    
RDG02046200WATRL000000004K00000000000000231001501132015121138N000000000000N27       000430400K 10000000010000000215           
CUS0204620000102365484001         WILKERSON, DIANE    2163 HOLLINS ST                         000N        CARE OF             
MTR02046200001000000000000000RA              75614724    005800200000002000000350000003NN  NNW 000                       N    
RDG02046200WATRL000000004K00000000000000033001601132015121213N000000000000N27       000350400K 10000000010000000029           
CUS0204620000102219214000         ELOUISE J WALKER    2156 HOLLINS ST                         000N        CARE OF             
MTR02046200001000000000000000RA              75425220    005800210000002100000350000003NN  NNW 000                       N    
RDG02046200WATRL000000004K00000000000000000001701132015121303N000000000000N27       000500400K 10000000010000000000           
CUS0204620000102365314000         MAYOR AND CITY COUNC2267 W BALTIMORE ST                     000N        CARE OF             
MTR02046200001000000000000000RA              99999999    005800220000002200000620000003NN  NNW 000   INVALID DAC         N    
RDG02046200WATRL000000004K00000000000001502001801132015121347N000000000000N27       000440400K 10000000010000001502           
CUS0204620000102219246002         BRI PROPERTIES, LLC 2216 BOOTH ST                           000N        CARE OF             
MTR02046200001000000000000000RA              74691318    005800230000002300000350000003NN  NNW 000                       N    
RDG02046200WATRL000000004K00000000000000135002001132015121819N000000000000N27       001560400K 10000000010000000126           
RTR02046200NN00230023000000230000000000230023000042NY002300230023000200020000000000000000000001    12152014NY020000 N         
RHD02093000NN02910291000002910000000002910291000241NY029102910291000100000000000000000000000001    12182014NY020000 N         
CUS0209300000102298741006         MOODY, LEE V        5609 LIBERTY HTS AVE                    000N        CARE OF             
MTR02093000001000000000000000RA              27830315    005800010000000100000520000003NN  NNW 000                       N    
RDG02093000WATRL000000004K00000000000002631000101132015075721N000000000000N23       000000400K 10000000010000002602           
CUS0209300000102298742004         TYSON, WILLIAM R    5607 LIBERTY HTS AVE                    000N        CARE OF             
MTR02093000001000000000000000RA              29069405    007500020000000200000520000003NN  NNW 000                       N    
RDG02093000WATRL000000004K00000000000001828000201132015075815N000000000000N23       000540400K 10000000010000001813           
CUS0209300000102298743002         BROOKS, MARK K      5603 LIBERTY HTS AVE                    000N        CARE OF             
MTR02093000001000000000000000RA              01079963    005800030000000300000610000003NN  NNW 000                       N    
RDG02093000WATRL000000004K00000000000000801000301132015075904N000000000000N23       000490400K 10000000010000000784           
CUS0209300000102298744000         THOMAS, CHARLES G   5601 LIBERTY HTS AVE                    000N        CARE OF             
MTR02093000001000000000000000RA              24760431    005800040000000400000520000003NN  NNW 000                       N    
RDG02093000WATRL000000004K00000000000004269000401132015075944N000000000000N23       000400400K 10000000010000004256           
CUS0209300000102376158008         MT. ZION APOSTOLIC  5501 LIBERTY HTS AVE                    000N        CARE OF             
MTR02093000001000000000000000RA              33416889    007500050000000500000520000003NN  NNW 000                       N    
RDG02093000WATRL000000004K00000000000009432000501132015080324N000400000010N23       002200400K 10000000010000009419           
CUS0209300000102298747003         DALE J WEBB         5327 LIBERTY HTS AVE                    000N        CARE OF             
MTR02093000001000000000000000RA              76349609    007500060000000600000350000003NN  NNW 000                       N    
RDG02093000WATRL000000004K00000000000000013000601132015080429N000300000010N23       000650400K 10000000010000000006           
CUS0209300000102298748001         RAY, TONY C.        5325 LIBERTY HTS AVE                    000N        CARE OF             
MTR02093000001000000000000000RA              10010310    005800070000000700000570000003NN  NNW 000                       N    
RDG02093000WATRL000000004K00000000000000659000701132015080457N000000000000N23       000280400K 10000000010000000624           
CUS0209300000102298749009         MR/MRS GARY RESPER  5323 LIBERTY HTS AVE                    000N        CARE OF             
MTR02093000001000000000000000RA              29404910    005800080000000800000520000003NN  NNW 000                       N    
RDG02093000WATRL000000004K00000000000004668000801132015080608N000300000010N23       000710400K 10000000010000004640           
CUS0209300000102298750007         DALE J WEBB         5321 LIBERTY HTS AVE                    000N        CARE OF             
MTR02093000001000000000000000RA              29679470    005800090000000900000520000003NN  NNW 000                       N    
RDG02093000WATRL000000004K00000000000004544000901132015080702N000000000000N23       000540400K 10000000010000004532           
CUS0209300000102298751005         FEDERAL NATIONAL MOR5319 LIBERTY HTS AVE                    000N        CARE OF             
MTR02093000001000000000000000RA              39290243    005800100000001000000520000003NN  NNW 000                       N    
RDG02093000WATRL000000004K00000000000001262001001132015080743N000000000000N23       000410400K 10000000010000001262           
CUS0209300000102298752003         LEONARD, LYNNE T    5317 LIBERTY HTS AVE                    000N        CARE OF             
MTR02093000001000000000000000RA              39290254    005800110000001100000520000003NN  NNW 000                       N    
RDG02093000WATRL000000004K00000000000003382001101132015080822N000000000000N23       000390400K 10000000010000003354           
CUS0209300000102298753001         AHMED, SOHEL        5315 LIBERTY HTS AVE                    000N        CARE OF             
MTR02093000001000000000000000RA              76348685    005800120000001200000350000003NN  NNW 000                       N    
RDG02093000WATRL000000004K00000000000000035001201132015080900N000000000000N23       000380400K 10000000010000000021           
CUS0209300000102298754009         GINGLES, JAMAR ANDRE5313 LIBERTY HTS AVE                    000N        CARE OF             
MTR02093000001000000000000000RA              25782207    005800130000001300000520000003NN  NNW 000                       N    
RDG02093000WATRL000000004K00000000000002216001301132015080942N000000000000N23       000420400K 10000000010000002199           
CUS0209300000102298755006         BEASLEY, THEA       5311 LIBERTY HTS AVE                    000N        CARE OF             
MTR02093000001000000000000000RA              10010138    005800140000001400000570000003NN  NNW 000                       N    
RDG02093000WATRL000000004K00000000000000133001401132015081013N000000000000N23       000310400K 10000000010000000125           
CUS0209300000102298756004         CENTURY, SHIRLEY L  5309 LIBERTY HTS AVE                    000N        CARE OF             
MTR02093000001000000000000000RA              76345727    005800150000001500000350000003NN  NNW 000                       N    
RDG02093000WATRL000000004K00000000000000015001501132015081108N000000000000N23       000550400K 10000000010000000005           
CUS0209300000102298757002         HILDA SORILLO       5307 LIBERTY HTS AVE                    000N        CARE OF             
MTR02093000001000000000000000RA              01108147    005800160000001600000610000003NN  NNW 000                       N    
RDG02093000WATRL000000004K00000000000001130001601132015081140N000000000000N23       000320400K 10000000010000001109           
CUS0209300000102298758000         ALLEYNE, KORIN K.   5305 LIBERTY HTS AVE                    000N        CARE OF             
MTR02093000001000000000000000RA              99999999    005800170000001700000610000003NN  NNW 000                       N    
RDG02093000WATRL000000004K00000000000000559001701132015081242N000000000000N23       000620400K 10000000010000000540           
CUS0209300000102298759008         BROWN, CLYDE        5303 LIBERTY HTS AVE                    000N        CARE OF             
MTR02093000001000000000000000RA              40047324    005800180000001800000520000003NN  NNW 000                       N    
RDG02093000WATRL000000004K00000000000001252001801132015081331N000000000000N23       000490400K 10000000010000001244           
CUS0209300000102298760006         PACC INVESTMENTS, LL5301 LIBERTY HTS AVE                    000N        CARE OF             
MTR02093000001000000000000000RA              41257092    005800190000001900000520000003NN  NNW 000                       N    
RDG02093000WATRL000000004K00000000000001578001901132015081427N000000000000N23       000560400K 10000000010000001545           
CUS0209300000102298761004         ALLISON, SEYMOUR G. 5205 LIBERTY HTS AVE                    000N        CARE OF             
MTR02093000001000000000000000RA              99999999    005800200000002000000610000003NN  NNW 000                       N    
RDG02093000WATRL000000004K00000000000000780002001132015081522N000000000000N23       000550400K 10000000010000000768           
CUS0209300000102298762002         STAMPER JR., HENRY  5203 LIBERTY HTS AVE                    000N        CARE OF             
MTR02093000001000000000000000RA              41082698    005800210000002100000520000003NN  NNW 000                       N    
RDG02093000WATRL000000004K00000000000002613002101132015081646N000000000000N23       000840400K 10000000010000002600           
CUS0209300000102298763000         EATON, JOHN J.      5201 LIBERTY HTS AVE                    000N        CARE OF             
MTR02093000001000000000000000RA              27830313    005800220000002200000520000003NN  NNW 000                       N    
RDG02093000WATRL000000004K00000000000003012002201132015081808N000000000000N23       000820400K 10000000010000003012           
CUS0209300000102298764008         LEAVITT, PETER J    5123 LIBERTY HTS AVE                    000N        CARE OF             
MTR02093000001000000000000000RA              24224857    005800230000002300000520000003NN  NNW 000                       N    
RDG02093000WATRL000000004K00000000000002999002301132015081909N000000000000N23       000610400K 10000000010000002984           
CUS0209300000102298765005         BOYD ANDERSON       5121 LIBERTY HTS AVE                    000N        CARE OF             
MTR02093000001000000000000000RA              24767164    005800240000002400000520000003NN  NNW 000                       N    
RDG02093000WATRL000000004K00000000000004449002401132015082007N000000000000N23       000580400K 10000000010000004425           
CUS0209300000102298766003         THOMAS A FARRELL & W5119 LIBERTY HTS AVE                    000N        CARE OF             
MTR02093000001000000000000000RA              27830269    005800250000002500000520000003NN  NNW 000                       N    
RDG02093000WATRL000000004K00000000000003803002501132015082118N000000000000N23       000710400K 10000000010000003792           
CUS0209300000102298767001         TOWNS, ROSA         5117 LIBERTY HTS AVE                    000N        CARE OF             
MTR02093000001000000000000000RA              14919516    005800260000002600000310000003NN  NNW 000                       N    
RDG02093000WATRL000000004K00000000000000896002601132015082151N000000000000N23       000330400K 10000000010000000875           
CUS0209300000102298768009         HOLLY, DARRIN K.    5115 LIBERTY HTS AVE                    000N        CARE OF             
MTR02093000001000000000000000RA              27830311    005800270000002700000520000003NN  NNW 000                       N    
RDG02093000WATRL000000004K00000000000004440002701132015082238N000000000000N23       000470400K 10000000010000004435           
CUS0209300000102298769007         HOLLY, DARRIN K.    5113 LIBERTY HTS AVE                    000N        CARE OF             
MTR02093000001000000000000000RA              14909486    005800280000002800000310000003NN  NNW 000                       N    
RDG02093000WATRL000000004K00000000000001096002801132015082323N000000000000N23       000450400K 10000000010000001064           
CUS0209300000102298770005         NICHOLAS, JAMARI BAR5111 LIBERTY HTS AVE                    000N        CARE OF             
MTR02093000001000000000000000RA              24224910    005800290000002900000520000003NN  NNW 000                       N    
RDG02093000WATRL000000004K00000000000004811002901132015082327N000000000000N23       000040400K 10000000010000004790           
CUS0209300000102298771003         FEDERAL NATIONAL MOR5109 LIBERTY HTS AVE                    000N        CARE OF             
MTR02093000001000000000000000RA              01093560    005800300000003000000610000003NN  NNW 000                       N    
RDG02093000WATRL000000004K00000000000000759003001132015082412N000100000010N23       000450400K 10000000010000000759           
CUS0209300000102298772001         JONES, BARBARA   (LI5107 LIBERTY HTS AVE                    000N        CARE OF             
MTR02093000001000000000000000RA              24224909    005800310000003100000520000003NN  NNW 000                       N    
RDG02093000WATRL000000004K00000000000005452003101132015082521N000000000000N23       000690400K 10000000010000005447           
CUS0209300000102298773009         DAB PROPERTIES, LLC 5105 LIBERTY HTS AVE                    000N        CARE OF             
MTR02093000001000000000000000RA              40048290    005800320000003200000520000003NN  NNW 000                       N    
RDG02093000WATRL000000004K00000000000001382003201132015082527N000100000010N23       000060400K 10000000010000001382           
CUS0209300000102298774007         CLARK, EDWARD LAWREN5101 LIBERTY HTS AVE                    000N        CARE OF             
MTR02093000001000000000000000RA              74688652    005800330000003300000350000003NN  NNW 000                       N    
RDG02093000WATRL000000004K00000000000000000003301132015082713N000000000000N23       001060400K 10000000010000000000           
CUS0209300000102298775004         CHERRY, MICHAEL     3514 MILFORD AVE                        000N        CARE OF             
MTR02093000001000000000000000RA              24228346    005800340000003400000520000003NN  NNW 000                       N    
RDG02093000WATRL000000004K00000000000006361003401132015082823N000000000000N23       000700400K 10000000010000006350           
CUS0209300000102298776002         CHERRY, MICHAEL     3512 MILFORD AVE                        000N        CARE OF             
MTR02093000001000000000000000RA              24224488    005800350000003500000520000003NN  NNW 000                       N    
RDG02093000WATRL000000004K00000000000005795003501132015082826N000000000000N23       000030400K 10000000010000005789           
CUS0209300000102298777000         MILLER, AARON    (LI3508 MILFORD AVE                        000N        CARE OF             
MTR02093000001000000000000000RA              45377314    005800360000003600000520000003NN  NNW 000                       N    
RDG02093000WATRL000000004K00000000000001311003601132015082901N000000000000N23       000350400K 10000000010000001297           
CUS0209300000102298778008         JOHN T SPENCER      3506 MILFORD AVE                        000N        CARE OF             
MTR02093000001000000000000000RA              24228300    005800370000003700000520000003NN  NNW 000                       N    
RDG02093000WATRL000000004K00000000000003310003701132015082944N000000000000N23       000430400K 10000000010000003299           
CUS0209300000102298779006         GOODMAN, LORI S     5100 BELLEVILLE AVE                     000N        CARE OF             
MTR02093000001000000000000000RA              24227681    005800380000003800000520000003NN  NNW 000                       N    
RDG02093000WATRL000000004K00000000000002551003801132015083102N000000000000N23       000780400K 10000000010000002540           
CUS0209300000102298780004         RAYMOND CLARKE      5102 BELLEVILLE AVE                     000N        CARE OF             
MTR02093000001000000000000000RA              24227284    005800390000003900000520000003NN  NNW 000                       N    
RDG02093000WATRL000000004K00000000000004320003901132015083145N000100000010N23       000430400K 10000000010000004320           
CUS0209300000102298781002         BAILEY, STEVEN LAMON5104 BELLEVILLE AVE                     000N        CARE OF             
MTR02093000001000000000000000RA              46887565    005800400000004000000520000003NN  NNW 000   VACANT PROPERTY     N    
RDG02093000WATRL000000004K00000000000002262004001132015083215N000000000000N23       000300400K 10000000010000002262           
CUS0209300000102298782000         MCFADDEN, TIMOTHY   5106 BELLEVILLE AVE                     000N        CARE OF             
MTR02093000001000000000000000RA              10021760    005800410000004100000570000003NN  NNW 000                       N    
RDG02093000WATRL000000004K00000000000000079004101132015083307N000000000000N23       000520400K 10000000010000000073           
CUS0209300000102298783008         PARKER, KIM         5110 BELLEVILLE AVE                     000N        CARE OF             
MTR02093000001000000000000000RA              24227436    005800420000004200000520000003NN  NNW 000                       N    
RDG02093000WATRL000000004K00000000000005119004201132015083613N000000000000N23       001860400K 10000000010000005098           
CUS0209300000102298784006         BLACKWELL, JOANNE   5112 BELLEVILLE AVE                     000N        CARE OF             
MTR02093000001000000000000000RA              24227390    005800430000004300000520000003NN  NNW 000                       N    
RDG02093000WATRL000000004K00000000000003663004301132015083727N000000000000N23       000740400K 10000000010000003648           
CUS0209300000102298785003         JOHNSON, LAVONIA    5114 BELLEVILLE AVE                     000N        CARE OF             
MTR02093000001000000000000000RA              24227449    005800440000004400000520000003NN  NNW 000                       N    
RDG02093000WATRL000000004K00000000000002250004401132015083806N000000000000N23       000390400K 10000000010000002250           
CUS0209300000102298786001         SMITH, CLOVA        5200 BELLEVILLE AVE                     000N        CARE OF             
MTR02093000001000000000000000RA              45375878    005800450000004500000520000003NN  NNW 000                       N    
RDG02093000WATRL000000004K00000000000002465004501132015083852N000300000010N23       000460400K 10000000010000002466           
CUS0209300000102298787009         FISHER, ANTIONE     5202 BELLEVILLE AVE                     000N        CARE OF             
MTR02093000001000000000000000RA              24227446    005800460000004600000520000003NN  NNW 000                       N    
RDG02093000WATRL000000004K00000000000002913004601132015083921N000000000000N23       000290400K 10000000010000002898           
CUS0209300000102298788007         MILLER, MILTON L.   5204 BELLEVILLE AVE                     000N        CARE OF             
MTR02093000001000000000000000RA              29680900    005800470000004700000520000003NN  NNW 000                       N    
RDG02093000WATRL000000004K00000000000002422004701132015084001N000000000000N23       000400400K 10000000010000002393           
CUS0209300000102298789005         MEREDITH, KAYSHA R  5206 BELLEVILLE AVE                     000N        CARE OF             
MTR02093000001000000000000000RA              38984844    005800480000004800000520000003NN  NNW 000                       N    
RDG02093000WATRL000000004K00000000000002446004801132015084059N000000000010N23       000580400K 10000000010000002420           
CUS0209300000102298790003         BEATRICE WILKES     5208 BELLEVILLE AVE                     000N        CARE OF             
MTR02093000001000000000000000RA              24225668    005800490000004900000520000003NN  NNW 000                       N    
RDG02093000WATRL000000004K00000000000004463004901132015084149N000000000010N23       000500400K 10000000010000004462           
CUS0209300000102298791001         GARCIA, CARLOS A    5210 BELLEVILLE AVE                     000N        CARE OF             
MTR02093000001000000000000000RA              10018952    005800500000005000000570000003NN  NNW 000                       N    
RDG02093000WATRL000000004K00000000000000356005001132015084208N000000000000N23       000190400K 10000000010000000320           
CUS0209300000102298792009         SHAREEF, OMAR       5212 BELLEVILLE AVE                     000N        CARE OF             
MTR02093000001000000000000000RA              24227420    005800510000005100000520000003NN  NNW 000                       N    
RDG02093000WATRL000000004K00000000000002402005101132015084248N000000000000N23       000400400K 10000000010000002392           
CUS0209300000102298793007         LEE SR, DONTE W     3505 MARMON AVE                         000N        CARE OF             
MTR02093000001000000000000000RA              99290059    005800520000005200000570000003NN  NNW 000                       N    
RDG02093000WATRL000000004K00000000000001770005201132015084420N000000000000N23       000920400K 10000000010000001753           
CUS0209300000102298794005         LINGHAM, ROBERT W.  3507 MARMON AVE                         000N        CARE OF             
MTR02093000001000000000000000RA              14923939    005800530000005300000310000003NN  NNW 000                       N    
RDG02093000WATRL000000004K00000000000001708005301132015084957N000000000000N23       003370400K 10000000010000001672           
CUS0209300000102298795002         FEDERAL NATIONAL MOR3506 MARMON AVE                         000N        CARE OF             
MTR02093000001000000000000000RA              24227450    005800540000005400000520000003NN  NNW 000   VACANT PROPERTY     N    
RDG02093000WATRL000000004K00000000000003183005401132015085037N000000000000N23       000400400K 10000000010000003183           
CUS0209300000102298796000         WEEKS-LEE, ANGELA   3504 MARMON AVE                         000N        CARE OF             
MTR02093000001000000000000000RA              24227388    005800550000005500000520000003NN  NNW 000                       N    
RDG02093000WATRL000000004K00000000000007292005501132015085104N000000000000N23       000270400K 10000000010000007292           
CUS0209300000102298797008         JOY JR., ISAAC      5300 BELLEVILLE AVE                     000N        CARE OF             
MTR02093000001000000000000000RA              76345673    005800560000005600000350000003NN  NNW 000                       N    
RDG02093000WATRL000000004K00000000000000090005601132015085212N000000000000N23       000680400K 10000000010000000056           
CUS0209300000102298798006         DIXON, JEANETTE V.  5304 BELLEVILLE AVE                     000N        CARE OF             
MTR02093000001000000000000000RA              01099458    005800570000005700000610000003NN  NNW 000                       N    
RDG02093000WATRL000000004K00000000000000419005701132015085316N000000000000N23       000640400K 10000000010000000410           
CUS0209300000102298799004         OWENS, STEVEN D     5306 BELLEVILLE AVE                     000N        CARE OF             
MTR02093000001000000000000000RA              24227292    005800580000005800000520000003NN  NNW 000                       N    
RDG02093000WATRL000000004K00000000000002830005801132015085400N000000000000N23       000440400K 10000000010000002826           
CUS0209300000102298800000         COOPER, TAMARA      5308 BELLEVILLE AVE                     000N        CARE OF             
MTR02093000001000000000000000RA              27833092    005800590000005900000520000003NN  NNW 000                       N    
RDG02093000WATRL000000004K00000000000002422005901132015085450N000000000000N23       000500400K 10000000010000002418           
CUS0209300000102298801008         HAFIZ, DIYA A       5310 BELLEVILLE AVE                     000N        CARE OF             
MTR02093000001000000000000000RA              27833051    005800600000006000000520000003NN  NNW 000                       N    
RDG02093000WATRL000000004K00000000000005905006001132015085520N000000000000N23       000300400K 10000000010000005897           
CUS0209300000102298802006         RALPH E COOPER      5312 BELLEVILLE AVE                     000N        CARE OF             
MTR02093000001000000000000000RA              24227278    005800610000006100000520000003NN  NNW 000                       N    
RDG02093000WATRL000000004K00000000000003412006101132015085610N000000000000N23       000500400K 10000000010000003402           
CUS0209300000102298803004         SNJ PROPERTY MGMT IN5314 BELLEVILLE AVE                     000N        CARE OF             
MTR02093000001000000000000000RA              27831166    005800620000006200000520000003NN  NNW 000                       N    
RDG02093000WATRL000000004K00000000000001590006201132015085707N000300000020N23       000570400K 10000000010000001584           
CUS0209300000102298804002         O'RILEY, JAHMEL G.  5316 BELLEVILLE AVE                     000N        CARE OF             
MTR02093000001000000000000000RA              48595116    005800630000006300000520000003NN  NNW 000                       N    
RDG02093000WATRL000000004K00000000000001526006301132015085745N000000000000N23       000380400K 10000000010000001519           
CUS0209300000102298805009         JEFFERSON SR., PAUL 5318 BELLEVILLE AVE                     000N        CARE OF             
MTR02093000001000000000000000RA              10003622    005800640000006400000570000003NN  NNW 000   VACANT PROPERTY     N    
RDG02093000WATRL000000004K00000000000000000006401132015085805N000000000000N23       000200400K 10000000010000000000           
CUS0209300000102298806007         JOHNSON, HARRY      5320 BELLEVILLE AVE                     000N        CARE OF             
MTR02093000001000000000000000RA              01099896    005800650000006500000610000003NN  NNW 000                       N    
RDG02093000WATRL000000004K00000000000001056006501132015085941N000000000000N23       000960400K 10000000010000001042           
CUS0209300000102298807005         FREEMAN JR., THURMAN5322 BELLEVILLE AVE                     000N        CARE OF             
MTR02093000001000000000000000RA              24233424    005800660000006600000520000003NN  NNW 000                       N    
RDG02093000WATRL000000004K00000000000002844006601132015090054N000000000000N23       000730400K 10000000010000002829           
CUS0209300000102298808003         DOWNES, ELEY J.     5324 BELLEVILLE AVE                     000N        CARE OF             
MTR02093000001000000000000000RA              24227423    005800670000006700000520000003NN  NNW 000                       N    
RDG02093000WATRL000000004K00000000000003839006701132015090135N000000000000N23       000410400K 10000000010000003818           
CUS0209300000102298809001         GIBSON DONNA        5500 BELLEVILLE AVE                     000N        CARE OF             
MTR02093000001000000000000000RA              52290878    005800680000006800000520000003NN  NNW 000                       N    
RDG02093000WATRL000000004K00000000000002382006801132015090243N000000000000N23       000680400K 10000000010000002358           
CUS0209300000102298810009         SMITH, VALERIE      5506 BELLEVILLE AVE                     000N        CARE OF             
MTR02093000001000000000000000RA              24227680    005800690000006900000520000003NN  NNW 000                       N    
RDG02093000WATRL000000004K00000000000007377006901132015090349N000000000000N23       000660400K 10000000010000007361           
CUS0209300000102298811007         HUGHES, CLARENCE J. 5510 BELLEVILLE AVE                     000N        CARE OF             
MTR02093000001000000000000000RA              27830304    005800700000007000000520000003NN  NNW 000                       N    
RDG02093000WATRL000000004K00000000000002791007001132015090450N000000000000N23       000610400K 10000000010000002761           
CUS0209300000102298812005         LYNN C TYLER        5600 BELLEVILLE AVE                     000N        CARE OF             
MTR02093000001000000000000000RA              27830314    005800710000007100000520000003NN  NNW 000                       N    
RDG02093000WATRL000000004K00000000000002790007101132015090731N000000000000N23       001610400K 10000000010000002775           
CUS0209300000102298813003         PIUS DAVID COOPER   5602 BELLEVILLE AVE                     000N        CARE OF             
MTR02093000001000000000000000RA              23051156    005800720000007200000520000003NN  NNW 000                       N    
RDG02093000WATRL000000004K00000000000003365007201132015090743N000000000010N23       000120400K 10000000010000003347           
CUS0209300000102298814001         DENNIS, ANGELA G    5604 BELLEVILLE AVE                     000N        CARE OF             
MTR02093000001000000000000000RA              45375874    005800730000007300000520000003NN  NNW 000                       N    
RDG02093000WATRL000000004K00000000000001015007301132015090824N000300000020N23       000410400K 10000000010000001003           
CUS0209300000102298815008         ANDERSON SR., CARL D5606 BELLEVILLE AVE                     000N        CARE OF             
MTR02093000001000000000000000RA              01090856    005800740000007400000610000003NN  NNW 000                       N    
RDG02093000WATRL000000004K00000000000000973007401132015090827N000000000000N23       000030400K 10000000010000000964           
CUS0209300000102298816006         MCCRARY, DEREK S    5608 BELLEVILLE AVE                     000N        CARE OF             
MTR02093000001000000000000000RA              10005246    005800750000007500000570000003NN  NNW 000                       N    
RDG02093000WATRL000000004K00000000000000152007501132015090922N000100000010N23       000550400K 10000000010000000152           
CUS0209300000102298817004         BEVERLY, DONNA      5610 BELLEVILLE AVE                     000N        CARE OF             
MTR02093000001000000000000000RA              27830328    005800760000007600000520000003NN  NNW 000                       N    
RDG02093000WATRL000000004K00000000000003003007601132015090931N000000000000N23       000090400K 10000000010000002980           
CUS0209300000102298818002         COLE, JAMES S.      5612 BELLEVILLE AVE                     000N        CARE OF             
MTR02093000001000000000000000RA              52768563    005800770000007700000520000003NN  NNW 000                       N    
RDG02093000WATRL000000004K00000000000001188007701132015091018N000000000000N23       000470400K 10000000010000001171           
CUS0209300000102298819000         DENNIS M JACKSON & W5614 BELLEVILLE AVE                     000N        CARE OF             
MTR02093000001000000000000000RA              24227288    005800780000007800000520000003NN  NNW 000                       N    
RDG02093000WATRL000000004K00000000000002856007801132015091021N000000000000N23       000030400K 10000000010000002850           
CUS0209300000102298820008         SMITH, SHIRLEY A    5616 BELLEVILLE AVE                     000N        CARE OF             
MTR02093000001000000000000000RA              27830418    005800790000007900000520000003NN  NNW 000                       N    
RDG02093000WATRL000000004K00000000000001887007901132015091102N000000000000N23       000410400K 10000000010000001865           
CUS0209300000102298821006         HENSON, ADELLE R    5618 BELLEVILLE AVE                     000N        CARE OF             
MTR02093000001000000000000000RA              35097112    005800800000008000000520000003NN  NNW 000                       N    
RDG02093000WATRL000000004K00000000000002428008001132015091105N000000000000N23       000030400K 10000000010000002409           
CUS0209300000102298822004         POWELL, EVA G       5623 BELLEVILLE AVE                     000N        CARE OF             
MTR02093000001000000000000000RA              24762250    005800810000008100000520000003NN  NNW 000                       N    
RDG02093000WATRL000000004K00000000000002501008101132015091205N000000000000N23       000600400K 10000000010000002495           
CUS0209300000102298823002         FEDERAL NATL MRTG AS5621 BELLEVILLE AVE                     000N        CARE OF             
MTR02093000001000000000000000RA              24765678    005800820000008200000520000003NN  NNW 000                       N    
RDG02093000WATRL000000004K00000000000005390008201132015091215N000100000010N23       000100400K 10000000010000005390           
CUS0209300000102298824000         LEE, TYRONE P       5619 BELLEVILLE AVE                     000N        CARE OF             
MTR02093000001000000000000000RA              01088861    005800830000008300000610000003NN  NNW 000                       N    
RDG02093000WATRL000000004K00000000000000625008301132015091249N000000000000N23       000340400K 10000000010000000619           
CUS0209300000102298825007         JEROME F BROWN JR   5617 BELLEVILLE AVE                     000N        CARE OF             
MTR02093000001000000000000000RA              01088869    005800840000008400000610000003NN  NNW 000                       N    
RDG02093000WATRL000000004K00000000000000550008401132015091252N000000000000N23       000030400K 10000000010000000550           
CUS0209300000102298826005         GHOLSTON, ROSLYN M  5615 BELLEVILLE AVE                     000N        CARE OF             
MTR02093000001000000000000000RA              24227667    005800850000008500000520000003NN  NNW 000                       N    
RDG02093000WATRL000000004K00000000000002872008501132015091422N000000000000N23       000900400K 10000000010000002863           
CUS0209300000102298827003         ALSTON, JOHN P      5613 BELLEVILLE AVE                     000N        CARE OF             
MTR02093000001000000000000000RA              44175508    005800860000008600000520000003NN  NNW 000                       N    
RDG02093000WATRL000000004K00000000000001962008601132015091424N000000000000N23       000020400K 10000000010000001946           
CUS0209300000102298828001         KEENE, WILLARD H    5611 BELLEVILLE AVE                     000N        CARE OF             
MTR02093000001000000000000000RA              27830330    005800870000008700000520000003NN  NNW 000                       N    
RDG02093000WATRL000000004K00000000000001183008701132015091517N000000000000N23       000530400K 10000000010000001175           
CUS0209300000102298829009         MCCRARY, MARY A (LIF5609 BELLEVILLE AVE                     000N        CARE OF             
MTR02093000001000000000000000RA              27830423    005800880000008800000520000003NN  NNW 000                       N    
RDG02093000WATRL000000004K00000000000002566008801132015091702N000000000000N23       001050400K 10000000010000002563           
CUS0209300000102298830007         BRYAN JOS./GEORGE BR5607 BELLEVILLE AVE                     000N        CARE OF             
MTR02093000001000000000000000RA              27830418    005800890000008900000520000003NN  NNW 000                       N    
RDG02093000WATRL000000004K00000000000001928008901132015091803N000000000000N23       000610400K 10000000010000001928           
CUS0209300000102298831005         DAVIS, GLADYS W     5605 BELLEVILLE AVE                     000N        CARE OF             
MTR02093000001000000000000000RA              76345780    005800900000009000000350000003NN  NNW 000                       N    
RDG02093000WATRL000000004K00000000000000005009001132015091815N000000000010N23       000120400K 10000000010000000003           
CUS0209300000102298832003         DAVIS, ANGELA       5603 BELLEVILLE AVE                     000N        CARE OF             
MTR02093000001000000000000000RA              50791459    005800910000009100000520000003NN  NNW 000                       N    
RDG02093000WATRL000000004K00000000000000418009101132015091852N000000000000N23       000370400K 10000000010000000404           
CUS0209300000102298833001         JEANETTE MARTIN     5601 BELLEVILLE AVE                     000N        CARE OF             
MTR02093000001000000000000000RA              27830383    005800920000009200000520000003NN  NNW 000                       N    
RDG02093000WATRL000000004K00000000000002293009201132015091917N000000000000N23       000250400K 10000000010000002275           
CUS0209300000102298834009         PHYLLIS JORDAN      5535 BELLEVILLE AVE                     000N        CARE OF             
MTR02093000001000000000000000RA              27830312    005800930000009300000520000003NN  NNW 000                       N    
RDG02093000WATRL000000004K00000000000003900009301132015092140N000000000010N23       001430400K 10000000010000003889           
CUS0209300000102298835006         RHODES-ALSTON, KAREN5533 BELLEVILLE AVE                     000N        CARE OF             
MTR02093000001000000000000000RA              27830310    005800940000009400000520000003NN  NNW 000                       N    
RDG02093000WATRL000000004K00000000000002168009401132015092232N000000000000N23       000520400K 10000000010000002160           
CUS0209300000102298836004         RONALD W MCGEE      5531 BELLEVILLE AVE                     000N        CARE OF             
MTR02093000001000000000000000RA              36697336    005800950000009500000520000003NN  NNW 000                       N    
RDG02093000WATRL000000004K00000000000002746009501132015092446N000000000000N23       001340400K 10000000010000002729           
CUS0209300000102298837002         ARRINGTON, SPENCER  5529 BELLEVILLE AVE                     000N        CARE OF             
MTR02093000001000000000000000RA              30513409    005800960000009600000520000003NN  NNW 000                       N    
RDG02093000WATRL000000004K00000000000004025009601132015092520N000100000010N23       000340400K 10000000010000004025           
CUS0209300000102298838000         GREGORY L NIXON     5527 BELLEVILLE AVE                     000N        CARE OF             
MTR02093000001000000000000000RA              27830307    005800970000009700000520000003NN  NNW 000                       N    
RDG02093000WATRL000000004K00000000000003189009701132015092622N000000000000N23       000620400K 10000000010000003171           
CUS0209300000102298839008         WHITFIELD, LAURA C  5525 BELLEVILLE AVE                     000N        CARE OF             
MTR02093000001000000000000000RA              10014858    005800980000009800000570000003NN  NNW 000                       N    
RDG02093000WATRL000000004K00000000000000098009801132015092626N000000000000N23       000040400K 10000000010000000096           
CUS0209300000102298840006         ESTHER MOORE        5523 BELLEVILLE AVE                     000N        CARE OF             
MTR02093000001000000000000000RA              24763432    005800990000009900000520000003NN  NNW 000                       N    
RDG02093000WATRL000000004K00000000000003405009901132015092814N000000000000N23       001080400K 10000000010000003392           
CUS0209300000102298841004         LUCILLE M MOBLEY    5521 BELLEVILLE AVE                     000N        CARE OF             
MTR02093000001000000000000000RA              24763007    005801000000010000000520000003NN  NNW 000                       N    
RDG02093000WATRL000000004K00000000000004586010001132015092840N000000000000N23       000260400K 10000000010000004565           
CUS0209300000102298842002         ELDERON BELLEVILLE, 5519 BELLEVILLE AVE                     000N        CARE OF             
MTR02093000001000000000000000RA              30514035    005801010000010100000520000003NN  NNW 000                       N    
RDG02093000WATRL000000004K00000000000004421010101132015092931N000100000010N23       000510400K 10000000010000004421           
CUS0209300000102298843000         SMITH, JOSE T.      5517 BELLEVILLE AVE                     000N        CARE OF             
MTR02093000001000000000000000RA              45382839    005801020000010200000520000003NN  NNW 000                       N    
RDG02093000WATRL000000004K00000000000001654010201132015092935N000000000000N23       000040400K 10000000010000001642           
CUS0209300000102298844008         SANDRA P BUTLER     5515 BELLEVILLE AVE                     000N        CARE OF             
MTR02093000001000000000000000RA              27830332    005801030000010300000520000003NN  NNW 000                       N    
RDG02093000WATRL000000004K00000000000002066010301132015093056N000000000000N23       000810400K 10000000010000002061           
CUS0209300000102298845005         DOUGLAS, CELESTINE D5513 BELLEVILLE AVE                     000N        CARE OF             
MTR02093000001000000000000000RA              14923507    005801040000010400000310000003NN  NNW 000                       N    
RDG02093000WATRL000000004K00000000000000761010401132015093059N000000000000N23       000030400K 10000000010000000732           
CUS0209300000102298846003         MARY A DUCKETT      5511 BELLEVILLE AVE                     000N        CARE OF             
MTR02093000001000000000000000RA              52290874    005801050000010500000520000003NN  NNW 000                       N    
RDG02093000WATRL000000004K00000000000001536010501132015093149N000000000000N23       000500400K 10000000010000001529           
CUS0209300000102298847001         EDWARD BLANCHARD    5509 BELLEVILLE AVE                     000N        CARE OF             
MTR02093000001000000000000000RA              30523696    005801060000010600000520000003NN  NNW 000                       N    
RDG02093000WATRL000000004K00000000000001928010601132015093255N000000000000N23       000660400K 10000000010000001920           
CUS0209300000102298848009         EDWARD TAYLOR       5507 BELLEVILLE AVE                     000N        CARE OF             
MTR02093000001000000000000000RA              27820718    005801070000010700000520000003NN  NNW 000                       N    
RDG02093000WATRL000000004K00000000000000102010701132015093347N000300000010N23       000520400K 10000000010000002844           
CUS0209300000102298849007         ANDREWS, DAVID      3404 N ROGERS AVE                       000N        CARE OF             
MTR02093000001000000000000000RA              27831568    005801080000010800000520000003NY  NNW 000                       N    
MTM0209300027831568    etron75616017                                                                                          
RDG02093000WATRL000000004K00000000000002807010801132015093633N000000000000N23       001660400K 10000000010000002792           
CUS0209300000102298850005         ARCHIE B MCCLAM     3402 N ROGERS AVE                       000N        CARE OF             
MTR02093000001000000000000000RA              27830806    005801090000010900000520000003NN  NNW 000                       N    
RDG02093000WATRL000000004K00000000000004017011001132015094014N000000000010N23       001190400K 10000000010000003992           
CUS0209300000102298851003         PATT-ASBURY AFR METH5325 BELLEVILLE AVE                     000N        CARE OF             
MTR02093000001000000000000000RA              24227426    005801100000011000000520000003NN  NNW 000                       N    
RDG02093000WATRL000000004K00000000000003558010901132015093815N000000000000N23       001020400K 10000000010000003550           
CUS0209300000102298852001         MORTON, GORDON      5323 BELLEVILLE AVE                     000N        CARE OF             
MTR02093000001000000000000000RA              24227282    005801110000011100000520000003NN  NNW 000                       N    
RDG02093000WATRL000000004K00000000000003531011101132015094217N000000000000N23       001230400K 10000000010000003524           
CUS0209300000102298853009         BOYD, BRENDA        5319 BELLEVILLE AVE                     000N        CARE OF             
MTR02093000001000000000000000RA              74689809    005801120000011200000350000003NN  NNW 000                       N    
RDG02093000WATRL000000004K00000000000000255011201132015094323N000000000000N23       000660400K 10000000010000000230           
CUS0209300000102298854007         BOYD, BRENDA        5317 BELLEVILLE AVE                     000N        CARE OF             
MTR02093000001000000000000000RA              24227424    005801130000011300000520000003NN  NNW 000                       N    
RDG02093000WATRL000000004K00000000000003894011301132015094408N000400000010N23       000450400K 10000000010000003893           
CUS0209300000102298855004         JILES, MARY H       5315 BELLEVILLE AVE                     000N        CARE OF             
MTR02093000001000000000000000RA              27832913    005801140000011400000520000003NN  NNW 000                       N    
RDG02093000WATRL000000004K00000000000005401011401132015094547N000000000000N23       000990400K 10000000010000005401           
CUS0209300000102298856002         MCCORMICK, JAMAL    5313 BELLEVILLE AVE                     000N        CARE OF             
MTR02093000001000000000000000RA              45375876    005801150000011500000520000003NN  NNW 000                       N    
RDG02093000WATRL000000004K00000000000002836011501132015094625N000000000000N23       000380400K 10000000010000002801           
CUS0209300000102298857000         WILLIAMS, JEANETTE C5311 BELLEVILLE AVE                     000N        CARE OF             
MTR02093000001000000000000000RA              24227416    005801160000011600000520000003NN  NNW 000                       N    
RDG02093000WATRL000000004K00000000000005154011601132015094701N000000000001N23       000090400K 10000000010000005119           
CUS0209300000102298858008         KEEVE, LEON M       5309 BELLEVILLE AVE                     000N        CARE OF             
MTR02093000001000000000000000RA              27833056    005801170000011700000520000003NY  NNW 000                       N    
MTM0209300027833056    cantlocate                                                                                             
RDG02093000WATRL000000004K00000000000000000000000000000000000 000000000000U         000000400  10000000010000002005           
CUS0209300000102298859006         MIDFIRST BANK       5307 BELLEVILLE AVE                     000N        CARE OF             
MTR02093000001000000000000000RA              35109904    005801180000011800000520000003NN  NNW 000   VACANT PROPERTY     N    
RDG02093000WATRL000000004K00000000000003517011701132015094844N000000000000N23       001030400K 10000000010000003517           
CUS0209300000102298860004         ODELL PEARSON       5305 BELLEVILLE AVE                     000N        CARE OF             
MTR02093000001000000000000000RA              99388294    005801190000011900000570000003NN  NNW 000                       N    
RDG02093000WATRL000000004K00000000000000852011801132015094912N000000000000N23       000280400K 10000000010000000840           
CUS0209300000102298861002         KJ PROPERTIES, LLC  5303 BELLEVILLE AVE                     000N        CARE OF             
MTR02093000001000000000000000RA              24227293    005801200000012000000520000003NN  NNW 000                       N    
RDG02093000WATRL000000004K00000000000006143011901132015094954N000100000010N23       000420400K 10000000010000006143           
CUS0209300000102298862000         WILSON, PEPPER      5301 BELLEVILLE AVE                     000N        CARE OF             
MTR02093000001000000000000000RA              24227386    005801210000012100000520000003NN  NNW 000                       N    
RDG02093000WATRL000000004K00000000000003317012001132015095032N000000000000N23       000380400K 10000000010000003309           
CUS0209300000102298863008         FONSECA, MARLENA    5211 BELLEVILLE AVE                     000N        CARE OF             
MTR02093000001000000000000000RA              40320995    005801220000012200000520000003NN  NNW 000                       N    
RDG02093000WATRL000000004K00000000000003939012101132015095126N000000000000N23       000540400K 10000000010000003914           
CUS0209300000102298864006         ARMSTRONG, BRYAN A. 5209 BELLEVILLE AVE                     000N        CARE OF             
MTR02093000001000000000000000RA              14908433    005801230000012300000310000003NN  NNW 000                       N    
RDG02093000WATRL000000004K00000000000005938012201132015095202N000000000000N23       000360400K 10000000010000005938           
CUS0209300000102298865003         SCRUGGS, DORA JEAN  5207 BELLEVILLE AVE                     000N        CARE OF             
MTR02093000001000000000000000RA              24227451    005801240000012400000520000003NN  NNW 000                       N    
RDG02093000WATRL000000004K00000000000005321012301132015095231N000000000000N23       000290400K 10000000010000005309           
CUS0209300000102298866001         HAZELINE EVANS      5205 BELLEVILLE AVE                     000N        CARE OF             
MTR02093000001000000000000000RA              24227283    005801250000012500000520000003NN  NNW 000                       N    
RDG02093000WATRL000000004K00000000000003018012401132015095300N000000000000N23       000290400K 10000000010000003012           
CUS0209300000102298867009         ADAMS, CHARLES H    5203 BELLEVILLE AVE                     000N        CARE OF             
MTR02093000001000000000000000RA              23058029    005801260000012600000520000003NN  NNW 000                       N    
RDG02093000WATRL000000004K00000000000005497012501132015095402N000000000000N23       000620400K 10000000010000005479           
CUS0209300000102298868007         HODGES, CHARLES G.  5201 BELLEVILLE AVE                     000N        CARE OF             
MTR02093000001000000000000000RA              24227438    005801270000012700000520000003NN  NNW 000                       N    
RDG02093000WATRL000000004K00000000000004681012601132015095442N000000000000N23       000400400K 10000000010000004668           
CUS0209300000102298869005         GREEN, JACKIE       5113 BELLEVILLE AVE                     000N        CARE OF             
MTR02093000001000000000000000RA              30516225    005801280000012800000520000003NN  NNW 000                       N    
RDG02093000WATRL000000004K00000000000003542012701132015095519N000000000000N23       000370400K 10000000010000003533           
CUS0209300000102298870003         SMITH, KATINA       5111 BELLEVILLE AVE                     000N        CARE OF             
MTR02093000001000000000000000RA              48593601    005801290000012900000520000003NN  NNW 000                       N    
RDG02093000WATRL000000004K00000000000001216012801132015095553N000000000000N23       000340400K 10000000010000001203           
CUS0209300000102298871001         JUDY R BAILEY       5109 BELLEVILLE AVE                     000N        CARE OF             
MTR02093000001000000000000000RA              24225654    005801300000013000000520000003NN  NNW 000                       N    
RDG02093000WATRL000000004K00000000000002648012901132015095658N000000000000N23       000650400K 10000000010000002636           
CUS0209300000102298872009         GRIGSBY, MATTHEW J. 5107 BELLEVILLE AVE                     000N        CARE OF             
MTR02093000001000000000000000RA              24227286    005801310000013100000520000003NN  NNW 000                       N    
RDG02093000WATRL000000004K00000000000004770013001132015095750N000000000000N23       000520400K 10000000010000004755           
CUS0209300000102298873007         OLA C JACKSON       5105 BELLEVILLE AVE                     000N        CARE OF             
MTR02093000001000000000000000RA              48593600    005801320000013200000520000003NN  NNW 000                       N    
RDG02093000WATRL000000004K00000000000000591013101132015095820N000000000000N23       000300400K 10000000010000000582           
CUS0209300000102298874005         POWELL, ANTHONY B   5103 BELLEVILLE AVE                     000N        CARE OF             
MTR02093000001000000000000000RA              24227684    005801330000013300000520000003NN  NNW 000                       N    
RDG02093000WATRL000000004K00000000000003581013201132015095906N000400000010N23       000460400K 10000000010000003572           
CUS0209300000102298875002         WILKINS, DEIDRE F   5101 BELLEVILLE AVE                     000N        CARE OF             
MTR02093000001000000000000000RA              27833089    005801340000013400000520000003NN  NNW 000                       N    
RDG02093000WATRL000000004K00000000000002035013301132015100206N000000000000N23       001800400K 10000000010000002024           
CUS0209300000102298876000         SMITH JR., HENRY C  3404 MILFORD AVE                        000N        CARE OF             
MTR02093000001000000000000000RA              30516196    005801350000013500000520000003NN  NNW 000                       N    
RDG02093000WATRL000000004K00000000000003687013401132015100321N000000000000N23       000750400K 10000000010000003672           
CUS0209300000102298877008         ABDUL-AZIZ, MUHAMMAD3402 MILFORD AVE                        000N        CARE OF             
MTR02093000001000000000000000RA              27830807    005801360000013600000520000003NN  NNW 000                       N    
RDG02093000WATRL000000004K00000000000003768013501132015100357N000000000000N23       000360400K 10000000010000003756           
CUS0209300000102298878006         FAISON, MARY I      3400 MILFORD AVE                        000N        CARE OF             
MTR02093000001000000000000000RA              45378104    005801370000013700000520000003NN  NNW 000                       N    
RDG02093000WATRL000000004K00000000000000548013601132015100457N000300000010N23       000600400K 10000000010000000535           
CUS0209300000102298879004         WEBSTER, CEDRIC C.  5102 WESLEY AVE                         000N        CARE OF             
MTR02093000001000000000000000RA              10018233    005801380000013800000570000003NN  NNW 000                       N    
RDG02093000WATRL000000004K00000000000000186013701132015100553N000000000000N23       000560400K 10000000010000000169           
CUS0209300000102298880002         HOOPER, STEPHEN L.  5106 WESLEY AVE                         000N        CARE OF             
MTR02093000001000000000000000RA              24228343    005801390000013900000520000003NN  NNW 000                       N    
RDG02093000WATRL000000004K00000000000006112013801132015100651N000300000010N23       000580400K 10000000010000006074           
CUS0209300000102298881000         WASHINGTON, LISA REN5110 WESLEY AVE                         000N        CARE OF             
MTR02093000001000000000000000RA              23842911    005801400000014000000520000003NN  NNW 000   VACANT PROPERTY     N    
RDG02093000WATRL000000004K00000000000001695013901132015100739N000000000000N23       000480400K 10000000010000001695           
CUS0209300000102298882008         LARRY GOINS         5200 WESLEY AVE                         000N        CARE OF             
MTR02093000001000000000000000RA              01112887    005801410000014100000610000003NN  NNW 000                       N    
RDG02093000WATRL000000004K00000000000001302014001132015100832N000000000000N23       000530400K 10000000010000001282           
CUS0209300000102298883006         TAYLOR, MARCUS L    5202 WESLEY AVE                         000N        CARE OF             
MTR02093000001000000000000000RA              01112061    005801420000014200000610000003NN  NNW 000                       N    
RDG02093000WATRL000000004K00000000000000696014101132015100918N000000000000N23       000460400K 10000000010000000663           
CUS0209300000102298884004         OUTLAW, ALECIA K    5204 WESLEY AVE                         000N        CARE OF             
MTR02093000001000000000000000RA              76348307    005801430000014300000350000003NN  NNW 000                       N    
RDG02093000WATRL000000004K00000000000000026014201132015101001N000000000000N23       000430400K 10000000010000000018           
CUS0209300000102298885001         PAXTON JR., ROBERT I5206 WESLEY AVE                         000N        CARE OF             
MTR02093000001000000000000000RA              76348885    005801440000014400000350000003NN  NNW 000                       N    
RDG02093000WATRL000000004K00000000000000019014301132015101026N000000000000N23       000250400K 10000000010000000012           
CUS0209300000102298886009         BURRIS-GUY, MARGO Z 3406 MARMON AVE                         000N        CARE OF             
MTR02093000001000000000000000RA              39291232    005801450000014500000520000003NN  NNW 000                       N    
RDG02093000WATRL000000004K00000000000001287014401132015101356N000000000000N23       002100400K 10000000010000001269           
CUS0209300000102298887007         SANDRA E RUSSELL    3404 MARMON AVE                         000N        CARE OF             
MTR02093000001000000000000000RA              27830805    005801460000014600000520000003NN  NNW 000                       N    
RDG02093000WATRL000000004K00000000000002900014501132015101516N000100000010N23       000800400K 10000000010000002900           
CUS0209300000102298888005         MILLER, REGINA A.   5300 WESLEY AVE                         000N        CARE OF             
MTR02093000001000000000000000RA              24228342    005801470000014700000520000003NN  NNW 000                       N    
RDG02093000WATRL000000004K00000000000002092014601132015101535N000000000000N23       000190400K 10000000010000002086           
CUS0209300000102298889003         MILLER, TIMOTHY     5306 WESLEY AVE                         000N        CARE OF             
MTR02093000001000000000000000RA              27831560    005801480000014800000520000003NN  NNW 000                       N    
RDG02093000WATRL000000004K00000000000001814014701132015101728N000000000000N23       001130400K 10000000010000001799           
CUS0209300000102298890001         SESSOMES, WILLETTE  5308 WESLEY AVE                         000N        CARE OF             
MTR02093000001000000000000000RA              99388257    005801490000014900000570000003NN  NNW 000                       N    
RDG02093000WATRL000000004K00000000000001036014801132015101803N000000000000N23       000350400K 10000000010000001014           
CUS0209300000102298891009         CHERRY, OLIVIA O    5310 WESLEY AVE                         000N        CARE OF             
MTR02093000001000000000000000RA              32899412    005801500000015000000520000003NN  NNW 000                       N    
RDG02093000WATRL000000004K00000000000002978014901132015101850N000000000000N23       000470400K 10000000010000002971           
CUS0209300000102298892007         BAILEY, INDRA T     5312 WESLEY AVE                         000N        CARE OF             
MTR02093000001000000000000000RA              41087075    005801510000015100000520000003NN  NNW 000                       N    
RDG02093000WATRL000000004K00000000000006021015001132015101927N000000000000N23       000370400K 10000000010000006007           
CUS0209300000102298893005         SHEPPARD, ERIC S    5314 WESLEY AVE                         000N        CARE OF             
MTR02093000001000000000000000RA              35103513    005801520000015200000520000003NN  NNW 000                       N    
RDG02093000WATRL000000004K00000000000003225015101132015101956N000000000000N23       000290400K 10000000010000003210           
CUS0209300000102298894003         ALVIN R BLICK & WF  5316 WESLEY AVE                         000N        CARE OF             
MTR02093000001000000000000000RA              44175522    005801530000015300000520000003NN  NNW 000                       N    
RDG02093000WATRL000000004K00000000000002120015201132015102032N000000000000N23       000360400K 10000000010000002093           
CUS0209300000102298895000         ACQUINETTE ROY      5318 WESLEY AVE                         000N        CARE OF             
MTR02093000001000000000000000RA              14922456    005801540000015400000310000003NN  NNW 000                       N    
RDG02093000WATRL000000004K00000000000000390015301132015102135N000000000000N23       000630400K 10000000010000000379           
CUS0209300000102298896008         BARRETT, CHARLES L  5320 WESLEY AVE                         000N        CARE OF             
MTR02093000001000000000000000RA              26015397    005801550000015500000520000003NN  NNW 000                       N    
RDG02093000WATRL000000004K00000000000005964015401132015102224N000000000011N23       000130400K 10000000010000005947           
CUS0209300000102298897006         LEWIS, MARLENE E    5322 WESLEY AVE                         000N        CARE OF             
MTR02093000001000000000000000RA              14900692    005801560000015600000310000003NN  NNW 000                       N    
RDG02093000WATRL000000004K00000000000000850015501132015102250N000000000000N23       000260400K 10000000010000000824           
CUS0209300000102298898004         EASLEY, MELVIN M    5324 WESLEY AVE                         000N        CARE OF             
MTR02093000001000000000000000RA              24228304    005801570000015700000520000003NN  NNW 000                       N    
RDG02093000WATRL000000004K00000000000005160015601132015102332N000000000000N23       000420400K 10000000010000005131           
CUS0209300000102298899002         DIVERS, TERESA H    5326 WESLEY AVE                         000N        CARE OF             
MTR02093000001000000000000000RA              24228347    005801580000015800000520000003NN  NNW 000                       N    
RDG02093000WATRL000000004K00000000000002343015701132015102403N000300000010N23       000310400K 10000000010000002330           
CUS0209300000102298900008         BENJAMIN JENKINS    5500 WESLEY AVE                         000N        CARE OF             
MTR02093000001000000000000000RA              24228344    005801590000015900000520000003NN  NNW 000                       N    
RDG02093000WATRL000000004K00000000000002629015801132015102447N000000000000N23       000440400K 10000000010000002616           
CUS0209300000102298901006         SHIRLEY EDWARDS     5502 WESLEY AVE                         000N        CARE OF             
MTR02093000001000000000000000RA              99188420    005801600000016000000570000003NN  NNW 000                       N    
RDG02093000WATRL000000004K00000000000000819015901132015102516N000000000000N23       000290400K 10000000010000000813           
CUS0209300000102298902004         JACKSON, ADRIENNE   5504 WESLEY AVE                         000N        CARE OF             
MTR02093000001000000000000000RA              24227706    005801610000016100000520000003NN  NNW 000                       N    
RDG02093000WATRL000000004K00000000000005756016001132015102756N000000000000N23       001600400K 10000000010000005747           
CUS0209300000102298903002         TRUSTY, WILBERT G   5506 WESLEY AVE                         000N        CARE OF             
MTR02093000001000000000000000RA              52768946    005801620000016200000520000003NN  NNW 000                       N    
RDG02093000WATRL000000004K00000000000000735016101132015102836N000000000000N23       000400400K 10000000010000000714           
CUS0209300000102298904000         CROCKETT, SEAN      5508 WESLEY AVE                         000N        CARE OF             
MTR02093000001000000000000000RA              24227709    005801630000016300000520000003NN  NNW 000                       N    
RDG02093000WATRL000000004K00000000000003990016201132015102907N000400000010N23       000310400K 10000000010000003985           
CUS0209300000102298905007         MNSF BALTIMORE 2, LL5510 WESLEY AVE                         000N        CARE OF             
MTR02093000001000000000000000RA              75616878    005801640000016400000350000003NN  NNW 000                       N    
RDG02093000WATRL000000004K00000000000000016016301132015102943N000000000010N23       000360400K 10000000010000000005           
CUS0209300000102298906005         THOMAS, BETTY DAY   5512 WESLEY AVE                         000N        CARE OF             
MTR02093000001000000000000000RA              99293771    005801650000016500000570000003NN  NNW 000                       N    
RDG02093000WATRL000000004K00000000000001302016401132015103024N000000000000N23       000410400K 10000000010000001283           
CUS0209300000102298907003         DYSON, S. NEORMIA   5514 WESLEY AVE                         000N        CARE OF             
MTR02093000001000000000000000RA              41082082    005801660000016600000520000003NN  NNW 000                       N    
RDG02093000WATRL000000004K00000000000001111016501132015103116N000000000000N23       000520400K 10000000010000001099           
CUS0209300000102298908001         ROULHAC, AUSTRALIA L5516 WESLEY AVE                         000N        CARE OF             
MTR02093000001000000000000000RA              45376258    005801670000016700000520000003NN  NNW 000                       N    
RDG02093000WATRL000000004K00000000000001641016601132015103256N000000000000N23       001000400K 10000000010000001633           
CUS0209300000102298909009         RIVERS, RENEE C     5518 WESLEY AVE                         000N        CARE OF             
MTR02093000001000000000000000RA              24227662    005801680000016800000520000003NN  NNW 000                       N    
RDG02093000WATRL000000004K00000000000002403016701132015103323N000000000000N23       000270400K 10000000010000002393           
CUS0209300000102298910007         GANT, YVETTE R      5520 WESLEY AVE                         000N        CARE OF             
MTR02093000001000000000000000RA              45376263    005801690000016900000520000003NN  NNW 000                       N    
RDG02093000WATRL000000004K00000000000002375016801132015103354N000000000000N23       000310400K 10000000010000002365           
CUS0209300000102298911005         DALES, KENNETH      5522 WESLEY AVE                         000N        CARE OF             
MTR02093000001000000000000000RA              14922274    005801700000017000000310000003NN  NNW 000                       N    
RDG02093000WATRL000000004K00000000000001184016901132015103430N000000000000N23       000360400K 10000000010000001138           
CUS0209300000102298912003         MCCLAIN, JESSICA A  5524 WESLEY AVE                         000N        CARE OF             
MTR02093000001000000000000000RA              24227663    005801710000017100000520000003NN  NNW 000                       N    
RDG02093000WATRL000000004K00000000000002801017001132015103432N000000000000N23       000020400K 10000000010000002782           
CUS0209300000102298913001         JOHN S COLE & WF    5600 WESLEY AVE                         000N        CARE OF             
MTR02093000001000000000000000RA              27830017    005801720000017200000520000003NN  NNW 000                       N    
RDG02093000WATRL000000004K00000000000002426017101132015103542N000000000000N23       000700400K 10000000010000002413           
CUS0209300000102298914009         WOOLARD, IRVEN M    5602 WESLEY AVE                         000N        CARE OF             
MTR02093000001000000000000000RA              27830012    005801730000017300000520000003NN  NNW 000                       N    
RDG02093000WATRL000000004K00000000000005286017201132015103546N000000000000N23       000040400K 10000000010000005286           
CUS0209300000102298915006         HAMPTON, KEITH WARD 5604 WESLEY AVE                         000N        CARE OF             
MTR02093000001000000000000000RA              27815187    005801740000017400000520000003NN  NNW 000                       N    
RDG02093000WATRL000000004K00000000000001618017301132015103656N000000000000N23       000700400K 10000000010000001618           
CUS0209300000102298916004         FLEET, SHAWN L.     5606 WESLEY AVE                         000N        CARE OF             
MTR02093000001000000000000000RA              75616811    005801750000017500000350000003NN  NNW 000                       N    
RDG02093000WATRL000000004K00000000000000056017401132015103710N000000000000N23       000140400K 10000000010000000056           
CUS0209300000102298917002         MCCOY, GEORGIE A    5608 WESLEY AVE                         000N        CARE OF             
MTR02093000001000000000000000RA              27830325    005801760000017600000520000003NN  NNW 000                       N    
RDG02093000WATRL000000004K00000000000002281017501132015103801N000000000000N23       000510400K 10000000010000002267           
CUS0209300000102298918000         NAOMI WILLIAMS      5610 WESLEY AVE                         000N        CARE OF             
MTR02093000001000000000000000RA              27830014    005801770000017700000520000003NN  NNW 000                       N    
RDG02093000WATRL000000004K00000000000002631017601132015103809N000000000000N23       000080400K 10000000010000002614           
CUS0209300000102298919008         MURPHY, DEBORAH L   5612 WESLEY AVE                         000N        CARE OF             
MTR02093000001000000000000000RA              27830008    005801780000017800000520000003NN  NNW 000                       N    
RDG02093000WATRL000000004K00000000000004508017701132015103841N000000000000N23       000320400K 10000000010000004502           
CUS0209300000102298920006         CLARENCE L HART     5614 WESLEY AVE                         000N        CARE OF             
MTR02093000001000000000000000RA              27830010    005801790000017900000520000003NN  NNW 000                       N    
RDG02093000WATRL000000004K00000000000004199017801132015103919N000000000000N23       000380400K 10000000010000004179           
CUS0209300000102298921004         DEBORA STAGGERS KEIT5616 WESLEY AVE                         000N        CARE OF             
MTR02093000001000000000000000RA              52290877    005801800000018000000520000003NN  NNW 000   VACANT PROPERTY     N    
RDG02093000WATRL000000004K00000000000002305017901132015104021N000000000000N23       000620400K 10000000010000002305           
CUS0209300000102298922002         JOHNSON, ROBIN      5618 WESLEY AVE                         000N        CARE OF             
MTR02093000001000000000000000RA              27830021    005801810000018100000520000003NN  NNW 000                       N    
RDG02093000WATRL000000004K00000000000004550018001132015104037N000000000000N23       000160400K 10000000010000004525           
CUS0209300000102298923000         NELSON, JACQUELINE J5620 WESLEY AVE                         000N        CARE OF             
MTR02093000001000000000000000RA              27830026    005801820000018200000520000003NN  NNW 000                       N    
RDG02093000WATRL000000004K00000000000001932018101132015104123N000400000010N23       000460400K 10000000010000001930           
CUS0209300000102298924008         GOODMAN WARD        5622 WESLEY AVE                         000N        CARE OF             
MTR02093000001000000000000000RA              27830369    005801830000018300000520000003NN  NNW 000                       N    
RDG02093000WATRL000000004K00000000000002620018201132015104131N000000000000N23       000080400K 10000000010000002608           
CUS0209300000102298925005         LOUIS D PITTMAN     5623 WESLEY AVE                         000N        CARE OF             
MTR02093000001000000000000000RA              45376261    005801840000018400000520000003NN  NNW 000                       N    
RDG02093000WATRL000000004K00000000000000999018301132015104246N000000000000N23       000750400K 10000000010000000994           
CUS0209300000102298926003         NORMA L JENNINGS    5621 WESLEY AVE                         000N        CARE OF             
MTR02093000001000000000000000RA              45376259    005801850000018500000520000000NN  NNW 000                       N    
RDG02093000WATRL000000004K00000000000001477018401132015104249N000000000000N23       000030400K 10000000010000001468           
CUS0209300000102298927001         ELNERAY MARTIN      5619 WESLEY AVE                         000N        CARE OF             
MTR02093000001000000000000000RA              24229162    005801860000018600000520000000NN  NNW 000                       N    
RDG02093000WATRL000000004K00000000000005396018501132015104331N000000000000N23       000420400K 10000000010000005356           
CUS0209300000102298928009         HOLLEY JR, JOSEPH L 5617 WESLEY AVE                         000N        CARE OF             
MTR02093000001000000000000000RA              24229186    005801870000018700000520000000NN  NNW 000                       N    
RDG02093000WATRL000000004K00000000000004138018601132015104343N000000000000N23       000120400K 10000000010000004110           
CUS0209300000102298929007         HYDER S COUSAR      5615 WESLEY AVE                         000N        CARE OF             
MTR02093000001000000000000000RA              27831557    005801880000018800000520000003NN  NNW 000                       N    
RDG02093000WATRL000000004K00000000000004641018701132015104437N000000000000N23       000540400K 10000000010000004621           
CUS0209300000102298930005         MARY JEFFERSON      5613 WESLEY AVE                         000N        CARE OF             
MTR02093000001000000000000000RA              27830961    005801890000018900000520000000NN  NNW 000                       N    
RDG02093000WATRL000000004K00000000000003139018801132015104445N000000000000N23       000080400K 10000000010000003129           
CUS0209300000102298931003         PHILIP E NELSON & WF5611 WESLEY AVE                         000N        CARE OF             
MTR02093000001000000000000000RA              24228567    005801900000019000000520000003NN  NNW 000                       N    
RDG02093000WATRL000000004K00000000000002506018901132015104540N000000000000N23       000550400K 10000000010000002495           
CUS0209300000102298932001         BARNEY, BRENDA      5609 WESLEY AVE                         000N        CARE OF             
MTR02093000001000000000000000RA              24228566    005801910000019100000520000003NN  NNW 000                       N    
RDG02093000WATRL000000004K00000000000002963019001132015104547N000000000000N23       000070400K 10000000010000002958           
CUS0209300000102298933009         NELSON, DEDRA       5607 WESLEY AVE                         000N        CARE OF             
MTR02093000001000000000000000RA              24228810    005801920000019200000520000000NN  NNW 000                       N    
RDG02093000WATRL000000004K00000000000003503019101132015104638N000000000000N23       000510400K 10000000010000003469           
CUS0209300000102298934007         5605 WESLEY AVENUE, 5605 WESLEY AVE                         000N        CARE OF             
MTR02093000001000000000000000RA              24228569    005801930000019300000520000000NN  NNW 000                       N    
RDG02093000WATRL000000004K00000000000003453019201132015104642N000000000000N23       000040400K 10000000010000003453           
CUS0209300000102298935004         WEST, THELMA E      5603 WESLEY AVE                         000N        CARE OF             
MTR02093000001000000000000000RA              24228564    005801940000019400000520000000NN  NNW 000                       N    
RDG02093000WATRL000000004K00000000000002400019301132015104728N000000000000N23       000460400K 10000000010000002394           
CUS0209300000102298936002         CODE, ROSETTA Q.    5601 WESLEY AVE                         000N        CARE OF             
MTR02093000001000000000000000RA              24228541    005801950000019500000520000003NN  NNW 000                       N    
RDG02093000WATRL000000004K00000000000003681019401132015104734N000000000000N23       000060400K 10000000010000003663           
CUS0209300000102298937000         MAURICE, MELANIE ROU5521 WESLEY AVE                         000N        CARE OF             
MTR02093000001000000000000000RA              45376262    005801960000019600000520000003NN  NNW 000                       N    
RDG02093000WATRL000000004K00000000000002057019501132015104859N000000000000N23       000850400K 10000000010000002036           
CUS0209300000102298938008         WALTER A DYSON & WF 5519 WESLEY AVE                         000N        CARE OF             
MTR02093000001000000000000000RA              23645900    005801970000019700000520000003NN  NNW 000                       N    
RDG02093000WATRL000000004K00000000000005666019601132015104941N000000000000N23       000420400K 10000000010000005659           
CUS0209300000102298939006         SHIELDS, TANGY B    5517 WESLEY AVE                         000N        CARE OF             
MTR02093000001000000000000000RA              24228811    005801980000019800000520000003NN  NNW 000                       N    
RDG02093000WATRL000000004K00000000000002673019701132015105010N000000000000N23       000290400K 10000000010000002668           
CUS0209300000102298940004         EDDIE TARVER 3RD    5515 WESLEY AVE                         000N        CARE OF             
MTR02093000001000000000000000RA              45375811    005801990000019900000520000003NN  NNW 000                       N    
RDG02093000WATRL000000004K00000000000004168019801132015105054N000000000000N23       000440400K 10000000010000004156           
CUS0209300000102298941002         RWB PROPERTY ACQUIST5513 WESLEY AVE                         000N        CARE OF             
MTR02093000001000000000000000RA              27266080    005802000000020000000520000003NN  NNW 000                       N    
RDG02093000WATRL000000004K00000000000002536019901132015105144N000000000010N23       000500400K 10000000010000002534           
CUS0209300000102298942000         5511, LLC           5511 WESLEY AVE                         000N        CARE OF             
MTR02093000001000000000000000RA              27830960    005802010000020100000520000003NN  NNW 000                       N    
RDG02093000WATRL000000004K00000000000004856020001132015105253N000400000021N23       000180400K 10000000010000004855           
CUS0209300000102298943008         JOHN R SNOWDEN      5509 WESLEY AVE                         000N        CARE OF             
MTR02093000001000000000000000RA              27831575    005802020000020200000520000003NN  NNW 000                       N    
RDG02093000WATRL000000004K00000000000001889020101132015105330N000000000000N23       000370400K 10000000010000001876           
CUS0209300000102298944006         MCDUFFIE KATHY      5507 WESLEY AVE                         000N        CARE OF             
MTR02093000001000000000000000RA              99388295    005802030000020300000570000003NN  NNW 000                       N    
RDG02093000WATRL000000004K00000000000001383020201132015105458N000000000000N23       000880400K 10000000010000001374           
CUS0209300000102298945003         SAMUEL SMILEY       5505 WESLEY AVE                         000N        CARE OF             
MTR02093000001000000000000000RA              44174862    005802040000020400000520000003NN  NNW 000                       N    
RDG02093000WATRL000000004K00000000000001983020301132015105527N000000000000N23       000290400K 10000000010000001958           
CUS0209300000102298946001         DORSEY, TOMICKO     5503 WESLEY AVE                         000N        CARE OF             
MTR02093000001000000000000000RA              24228813    005802050000020500000520000003NN  NNW 000                       N    
RDG02093000WATRL000000004K00000000000001796020401132015105608N000100000010N23       000410400K 10000000010000001796           
CUS0209300000102298947009         SAMAROO, NICHOLAS   5501 WESLEY AVE                         000N        CARE OF             
MTR02093000001000000000000000RA              27831567    005802060000020600000520000003NN  NNW 000                       N    
RDG02093000WATRL000000004K00000000000002646020501132015105656N000000000000N23       000480400K 10000000010000002627           
CUS0209300000102298948007         DOYLE, DANIEL J     5327 WESLEY AVE                         000N        CARE OF             
MTR02093000001000000000000000RA              24228814    005802070000020700000520000003NN  NNW 000                       N    
RDG02093000WATRL000000004K00000000000004486020601132015105725N000000000000N23       000290400K 10000000010000004471           
CUS0209300000102298949005         TALLEY E PARTEE &   5325 WESLEY AVE                         000N        CARE OF             
MTR02093000001000000000000000RA              31583121    005802080000020800000520000000NN  NNW 000                       N    
RDG02093000WATRL000000004K00000000000002062020701132015105907N000000000000N23       001020400K 10000000010000002059           
CUS0209300000102298950003          WILLIAMSON, ROBERT 5323 WESLEY AVE                         000N        CARE OF             
MTR02093000001000000000000000RA              27816751    005802090000020900000520000003NN  NNW 000                       N    
RDG02093000WATRL000000004K00000000000004119020801132015110010N000100000010N23       000630400K 10000000010000004119           
CUS0209300000102298951001         ROY SR, GEORGE ALBER5321 WESLEY AVE                         000N        CARE OF             
MTR02093000001000000000000000RA              24228545    005802100000021000000520000003NN  NNW 000                       N    
RDG02093000WATRL000000004K00000000000001259020901132015110033N000400000010N23       000230400K 10000000010000001256           
CUS0209300000102298952009         GROSS, MARCUS       5319 WESLEY AVE                         000N        CARE OF             
MTR02093000001000000000000000RA              99291768    005802110000021100000570000003NN  NNW 000                       N    
RDG02093000WATRL000000004K00000000000000756021001132015110104N000000000000N23       000310400K 10000000010000000728           
CUS0209300000102298953007         FLOYD C BALLARD SR  5317 WESLEY AVE                         000N        CARE OF             
MTR02093000001000000000000000RA              52768079    005802120000021200000520000003NN  NNW 000                       N    
RDG02093000WATRL000000004K00000000000002084021101132015110137N000000000000N23       000330400K 10000000010000002046           
CUS0209300000102298954005         PERKINS ETAL, IRMA K5315 WESLEY AVE                         000N        CARE OF             
MTR02093000001000000000000000RA              01092741    005802130000021300000610000003NN  NNW 000                       N    
RDG02093000WATRL000000004K00000000000000644021201132015110219N000000000000N23       000420400K 10000000010000000629           
CUS0209300000102298955002         SINKLER, GLORIA J   5311 WESLEY AVE                         000N        CARE OF             
MTR02093000001000000000000000RA              38984394    005802140000021400000520000003NN  NNW 000                       N    
RDG02093000WATRL000000004K00000000000002689021301132015110253N000000000000N23       000340400K 10000000010000002682           
CUS0209300000102298956000         BEST HOMES VALUE, LL5309 WESLEY AVE                         000N        CARE OF             
MTR02093000001000000000000000RA              76344728    005802150000021500000350000003NN  NNW 000                       N    
RDG02093000WATRL000000004K00000000000000021021401132015110436N000300000010N23       001030400K 10000000010000000007           
CUS0209300000102298957008         PHILLIS C WIGFALL   5307 WESLEY AVE                         000N        CARE OF             
MTR02093000001000000000000000RA              36695102    005802160000021600000520000003NN  NNW 000                       N    
RDG02093000WATRL000000004K00000000000002256021501132015110506N000000000000N23       000300400K 10000000010000002232           
CUS0209300000102298958006         THOMAS W JACKSON    5305 WESLEY AVE                         000N        CARE OF             
MTR02093000001000000000000000RA              45375808    005802170000021700000520000003NN  NNW 000                       N    
RDG02093000WATRL000000004K00000000000003220021601132015110549N000000000000N23       000430400K 10000000010000003184           
CUS0209300000102298959004         MYRTLE L BANKS      5303 WESLEY AVE                         000N        CARE OF             
MTR02093000001000000000000000RA              45375813    005802180000021800000520000003NN  NNW 000                       N    
RDG02093000WATRL000000004K00000000000001335021701132015110618N000000000000N23       000290400K 10000000010000001328           
CUS0209300000102298960002         NELSON, CLARINA V.  5301 WESLEY AVE                         000N        CARE OF             
MTR02093000001000000000000000RA              27830803    005802190000021900000520000003NN  NNW 000                       N    
RDG02093000WATRL000000004K00000000000002877021801132015110656N000400000010N23       000380400K 10000000010000002872           
CUS0209300000102298961000         CARTER, BARBARA     5207 WESLEY AVE                         000N        CARE OF             
MTR02093000001000000000000000RA              27830977    005802200000022000000520000003NN  NNW 000                       N    
RDG02093000WATRL000000004K00000000000002532021901132015110746N000000000000N23       000500400K 10000000010000002521           
CUS0209300000102298962008         LEE, BRENDA         3306 FERNDALE AVE                       000N        CARE OF             
MTR02093000001000000000000000RA              40323109    005802210000022100000520000003NN  NNW 000                       N    
RDG02093000WATRL000000004K00000000000003260022001132015110901N000000000000N23       000750400K 10000000010000003231           
CUS0209300000102298963006         GIBSON-BEY, AARON   3304 FERNDALE AVE                       000N        CARE OF             
MTR02093000001000000000000000RA              14914634    005802220000022200000310000003NN  NNW 000                       N    
RDG02093000WATRL000000004K00000000000000633022101132015111012N000000000000N23       000710400K 10000000010000000617           
CUS0209300000102298964004         DAVIS, ROBIN S.     3302 FERNDALE AVE                       000N        CARE OF             
MTR02093000001000000000000000RA              14912040    005802230000022300000310000003NN  NNW 000                       N    
RDG02093000WATRL000000004K00000000000001063022201132015111054N000000000000N23       000420400K 10000000010000001041           
CUS0209300000102298965001         HICKS, KIM S        5200 FERNPARK AVE                       000N        CARE OF             
MTR02093000001000000000000000RA              01076534    005802240000022400000610000003NN  NNW 000                       N    
RDG02093000WATRL000000004K00000000000003216022301132015111158N000000000000N23       000640400K 10000000010000003200           
CUS0209300000102298966009         BROWN JR, WILLIAM M 5202 FERNPARK AVE                       000N        CARE OF             
MTR02093000001000000000000000RA              27832712    005802250000022500000520000003NN  NNW 000                       N    
RDG02093000WATRL000000004K00000000000001419022401132015111238N000000000000N23       000400400K 10000000010000001413           
CUS0209300000102298967007         MITCHELL, MILES H   5204 FERNPARK AVE                       000N        CARE OF             
MTR02093000001000000000000000RA              45370749    005802260000022600000520000000NN  NNW 000                       N    
RDG02093000WATRL000000004K00000000000005777022501132015111323N000000000000N23       000450400K 10000000010000005764           
CUS0209300000102298968005         GEORGE BRAXTON      5206 FERNPARK AVE                       000N        CARE OF             
MTR02093000001000000000000000RA              35108357    005802270000022700000520000003NN  NNW 000                       N    
RDG02093000WATRL000000004K00000000000001523022601132015111349N000000000000N23       000260400K 10000000010000001523           
CUS0209300000102298969003         NELSON, CLARINA     5300 FERNPARK AVE                       000N        CARE OF             
MTR02093000001000000000000000RA              24229921    005802280000022800000520000003NN  NNW 000                       N    
RDG02093000WATRL000000004K00000000000005734022701132015111439N000000000000N23       000500400K 10000000010000005714           
CUS0209300000102298970001         MICHELE L CLARK     5302 FERNPARK AVE                       000N        CARE OF             
MTR02093000001000000000000000RA              45375751    005802290000022900000520000000NN  NNW 000                       N    
RDG02093000WATRL000000004K00000000000002502022801132015111541N000000000000N23       000620400K 10000000010000002502           
CUS0209300000102298971009         HABEEBULLAH, SHALOND5304 FERNPARK AVE                       000N        CARE OF             
MTR02093000001000000000000000RA              52290842    005802300000023000000520000000NN  NNW 000                       N    
RDG02093000WATRL000000004K00000000000000572022901132015111629N000000000001N23       000130400K 10000000010000000564           
CUS0209300000102298972007         ALEXANDER, PAMELA R 5306 FERNPARK AVE                       000N        CARE OF             
MTR02093000001000000000000000RA              14900103    005802310000023100000310000003NN  NNW 000                       N    
RDG02093000WATRL000000004K00000000000000538023001132015111652N000000000000N23       000230400K 10000000010000000521           
CUS0209300000102298973005         ELIZABETH THOMAS    5308 FERNPARK AVE                       000N        CARE OF             
MTR02093000001000000000000000RA              36695105    005802320000023200000520000003NN  NNW 000                       N    
RDG02093000WATRL000000004K00000000000002740023101132015111722N000000000000N23       000300400K 10000000010000002719           
CUS0209300000102298974003         CUMMINS, SHON QUINCY5310 FERNPARK AVE                       000N        CARE OF             
MTR02093000001000000000000000RA              24229922    005802330000023300000520000003NN  NNW 000   VACANT PROPERTY     N    
RDG02093000WATRL000000004K00000000000002271023201132015111804N000000000000N23       000420400K 10000000010000002271           
CUS0209300000102298975000         NICHOLAS, WESLENE W.5312 FERNPARK AVE                       000N        CARE OF             
MTR02093000001000000000000000RA              35108356    005802340000023400000520000003NN  NNW 000                       N    
RDG02093000WATRL000000004K00000000000002086023301132015111838N000000000000N23       000340400K 10000000010000002077           
CUS0209300000102298976008         TRAYNHAM, REATHA M. 5314 FERNPARK AVE                       000N        CARE OF             
MTR02093000001000000000000000RA              41590752    005802350000023500000520000003NN  NNW 000                       N    
RDG02093000WATRL000000004K00000000000001215023401132015111908N000000000000N23       000300400K 10000000010000001206           
CUS0209300000102298977006         NELSON, CLARINA V.  5316 FERNPARK AVE                       000N        CARE OF             
MTR02093000001000000000000000RA              35107764    005802360000023600000520000003NN  NNW 000                       N    
RDG02093000WATRL000000004K00000000000004556023501132015111952N000000000000N23       000440400K 10000000010000004556           
CUS0209300000102298979002         ANDERSON, TONITA F. 5318 FERNPARK AVE                       000N        CARE OF             
MTR02093000001000000000000000RA              52289770    005802370000023700000520000003NN  NNW 000                       N    
