FHDNNNN049009491009491009501N                                                                                           029065
RHD08456400NN02170217000002170000000002170217000123NY021702170217000000010000000000000000000002    12242014NY020000 N         
CUS0845640000108248011002         WASHINGTON VILLAGE  724 WASHINGTON BLVD                     000N        CARE OF             
MTR08456400001000000000000000RA              5493276     007500010000000100000320000003NN  NNW 000                       N    
RDG08456400WATRL000000004K00000000000000149001101122015131050N000000000000N84       000170400K 10000000010000000149           
CUS0845640000108248013008         DEVICH, BRET C      754 WASHINGTON BLVD                     000N        CARE OF             
MTR08456400001000000000000000RA              10020978    005800020000000200000570000003NN  NNW 000                       N    
RDG08456400WATRL000000004K00000000000000033000801122015130815N000000000000N84       000270400K 10000000010000000030           
CUS0845640000108248014006         HELSCHIEN, STEVEN   756 WASHINGTON BLVD                     000N        CARE OF             
MTR08456400001000000000000000RA              48588469    005800030000000300000520000000NN  NNW 000                       N    
RDG08456400WATRL000000004K00000000000000174000701122015130748N000000000000N84       000040400K 10000000010000000174           
CUS0845640000108248015003         CHEN, JIAN          758 WASHINGTON BLVD                     000N        CARE OF             
MTR08456400001000000000000000RA              46890773    007500040000000400000520000000NN  NNW 000                       N    
RDG08456400WATRL000000004K00000000000002508000601122015130744N000000000000N84       000190400K 10000000010000002492           
CUS0845640000108248016001         BROWNBACK PROPERTIES760-62 WASHINGTON BLVD                  000N        CARE OF             
MTR08456400001000000000000000RA              46889318    007500050000000500000520000003NN  NNW 000                       N    
RDG08456400WATRL000000004K00000000000001566000501122015130725N000000000000N84       000130400K 10000000010000001546           
CUS0845640000108248017009         FRATERNITY FEDERAL  764 WASHINGTON BLVD                     000N        CARE OF             
MTR08456400001000000000000000RA              99314653    000100060000000600000570000000NN  NNW 000                       N    
RDG08456400WATRL000000004K00000000000001011000401122015130712N000000000000N84       000320400K 10000000010000000995           
CUS0845640000108248018007         ALLEN, LONNIE W.    772 WASHINGTON BLVD                     000N        CARE OF             
MTR08456400001000000000000000RA              52771456    007500070000000700000520000000NN  NNW 000                       N    
RDG08456400WATRL000000004K00000000000000853000301122015130640N000000000000N84       000100400K 10000000010000000835           
CUS0845640000108248019005         ALLEN, LONNIE W.    774 WASHINGTON BLVD                     000N        CARE OF             
MTR08456400001000000000000000RA              46890046    007500080000000800000520000003NN  NNW 000                       N    
RDG08456400WATRL000000004K00000000000001119000201122015130630N000000000000N84       000200400K 10000000010000001107           
CUS0845640000108248020003         BONITA MANAGEMENT, L776-80 WASHINGTON BLVD                  000N        CARE OF             
MTR08456400001000000000000000RA              39080238    007500090000000900000520000003NN  NNW 000                       N    
RDG08456400WATRL000000004K00000000000004853000101122015130610N000000000000N84       000000400K 10000000010000004792           
CUS0845640000108248021001         WASHINGTON 784, LLC 782 WASHINGTON BLVD                     000N        CARE OF             
MTR08456400001000000000000000RA              99080493    007500100000001000000570000003NN  NNW 000                       N    
RDG08456400WATRL000000004K00000000000000457001401122015131329N000000000000N84       000730400K 10000000010000000446           
CUS0845640000108248022009         WASHINGTON 784, LLC.784 WASHINGTON BLVD                     000N        CARE OF             
MTR08456400001000000000000000RA              43905469    007500110000001100000520000003NN  NNW 000                       N    
RDG08456400WATRL000000004K00000000000000682001501122015131341N000000000000N84       000120400K 10000000010000000660           
CUS0845640000108248023007         MICHAEL, MEKBIB     786 WASHINGTON BLVD                     000N        CARE OF             
MTR08456400001000000000000000RA              99080325    007500120000001200000570000003NN  NNW 000                       N    
RDG08456400WATRL000000004K00000000000000356001601122015131354N000000000000N84       000130400K 10000000010000000355           
CUS0845640000108248024005         SMITH, MARC J       788 WASHINGTON BLVD                     000N        CARE OF             
MTR08456400001000000000000000RA              99291760    005800130000001300000570000003NN  NNW 000                       N    
RDG08456400WATRL000000004K00000000000002519001701122015131417N000000000000N84       000230400K 10000000010000002509           
CUS0845640000108248069000         VAUGHN, LINDA       423 SCOTT ST                            000N        CARE OF             
MTR08456400001000000000000000RA              45378518    005800140000001400000520000000NN  NNW 000                       N    
RDG08456400WATRL000000004K00000000000001445001801122015131439N000000000000N84       000220400K 10000000010000001445           
CUS0845640000108248071006         ELY III, CLAUSEN    419 SCOTT ST                            000N        CARE OF             
MTR08456400001000000000000000RA              44003338    005800150000001500000520000003NN  NNW 000                       N    
RDG08456400WATRL000000004K00000000000001388001901122015131453N000000000000N84       000140400K 10000000010000001381           
CUS0845640000108248026000         PERKINS, ANDREA F   415 SCOTT ST                            000N        CARE OF             
MTR08456400001000000000000000RA              35097913    005800160000001600000520000003NN  NNW 000                       N    
RDG08456400WATRL000000004K00000000000001737002001122015131509N000000000000N84       000160400K 10000000010000001734           
CUS0845640000108248075007         JONES, NICOLE A.    343 SCOTT ST                            000N        CARE OF             
MTR08456400001000000000000000RA              39257814    005800170000001700000520000003NN  NNW 000                       N    
RDG08456400WATRL000000004K00000000000001938000101132015090725N000000000000U84       000000400K 10000000010000001928           
CUS0845640000108248076005         BIRCH, EDWARD       341 SCOTT ST                            000N        CARE OF             
MTR08456400001000000000000000RA              52292173    007500180000001800000520000000NN  NNW 000                       N    
RDG08456400WATRL000000004K00000000000000995000201132015090740N000000000000U84       000150400K 10000000010000000995           
CUS0845640000108345826005         JAMES JONES         339 SCOTT ST                            000N        CARE OF             
MTR08456400001000000000000000RA              41074365    005800190000001900000520000000NN  NNW 000                       N    
RDG08456400WATRL000000004K00000000000001022000301132015090755N000000000000U84       000150400K 10000000010000001022           
CUS0845640000108248077003         JIGGETTS, MAURICE R 337 SCOTT ST                            000N        CARE OF             
MTR08456400001000000000000000RA              46885093    005800200000002000000520000003NN  NNW 000                       N    
RDG08456400WATRL000000004K00000000000002679000401132015090802N000000000000U84       000070400K 10000000010000002668           
CUS0845640000108363016000         EJ HOUSES, LLC      335 SCOTT ST                            000N        CARE OF             
MTR08456400001000000000000000RA              39585936    005800210000002100000520000000NN  NNW 000                       N    
RDG08456400WATRL000000004K00000000000001612000501132015090833N000000000000U84       000310400K 10000000010000001603           
CUS0845640000108248078001         BAYLY, ELIZABETH C  331 SCOTT ST                            000N        CARE OF             
MTR08456400001000000000000000RA              33082310    005800220000002200000520000000NN  NNW 000                       N    
RDG08456400WATRL000000004K00000000000001822000601132015090906N000000000000U84       000330400K 10000000010000001811           
CUS0845640000108370138003         KANIOWSKI, STEFAN   329 SCOTT ST                            000N        CARE OF             
MTR08456400001000000000000000RA              10022866    005800230000002300000570000003NN  NNW 000                       N    
RDG08456400WATRL000000004K00000000000000123000701132015090928N000000000000U84       000220400K 10000000010000000111           
CUS0845640000108381005001         SILVA, EMMANUEL     327 SCOTT ST                            000N        CARE OF             
MTR08456400001000000000000000RA              33731076    007500240000002400000520000003NN  NNW 000                       N    
RDG08456400WATRL000000004K00000000000002757000801132015090942N000000000000U84       000140400K 10000000010000002740           
CUS0845640000108370142005         BURDUSI, CHRYSTALLA 325 SCOTT ST                            000N        CARE OF             
MTR08456400001000000000000000RA              31580385    005800250000002500000520000003NN  NNW 000                       N    
RDG08456400WATRL000000004K00000000000001652003501122015132244N000000000000N84       000340400K 10000000010000001629           
CUS0845640000108398006000         TH FRENCH CO. INC   321 SCOTT ST                            000N        CARE OF             
MTR08456400001000000000000000RA              41259029    005800260000002600000520000003NN  NNW 000                       N    
RDG08456400WATRL000000004K00000000000001913000901132015091037N000000000000U84       000550400K 10000000010000001901           
CUS0845640000108248079009         URBANCZYK, TRACY L. 319 SCOTT ST                            000N        CARE OF             
MTR08456400001000000000000000RA              99286326    005800270000002700000570000000NN  NNW 000                       N    
RDG08456400WATRL000000004K00000000000000664001001132015091049N000000000000U84       000120400K 10000000010000000659           
CUS0845640000108384551001         BURDUSI, CHRYSTALLA 317 SCOTT ST                            000N        CARE OF             
MTR08456400001000000000000000RA              41075588    005800280000002800000520000003NN  NNW 000                       N    
RDG08456400WATRL000000004K00000000000003291001101132015091105N000000000000U84       000160400K 10000000010000003283           
CUS0845640000108378288008         BURDUSI, CHRYSTALLA 315 SCOTT ST                            000N        CARE OF             
MTR08456400001000000000000000RA              32903994    005800290000002900000520000003NN  NNW 000                       N    
RDG08456400WATRL000000004K00000000000001716001201132015091125N000000000000U84       000200400K 10000000010000001709           
CUS0845640000108381002008         STEVENSON ETAL, MAUR309 SCOTT ST                            000N        CARE OF             
MTR08456400001000000000000000RA              35100748    007500300000003000000520000003NN  NNW 000                       N    
RDG08456400WATRL000000004K00000000000002248001301132015091146N000000000010U84       000210400K 10000000010000002243           
CUS0845640000108345827003         BEATSON, BARNABY R. 307 SCOTT ST                            000N        CARE OF             
MTR08456400001000000000000000RA              50477244    005800310000003100000520000000NN  NNW 000                       N    
RDG08456400WATRL000000004K00000000000001101001401132015091156N000000000000U84       000100400K 10000000010000001085           
CUS0845640000108375137000         SHUE, CHAD          303 SCOTT ST                            000N        CARE OF             
MTR08456400001000000000000000RA              10018673    005800320000003200000570000003NN  NNW 000                       N    
RDG08456400WATRL000000004K00000000000000107001501132015091234N000300000010U84       000380400K 10000000010000000093           
CUS0845640000108248081005         VANCE, RASHAD E     305 SCOTT ST                            000N        CARE OF             
MTR08456400001000000000000000RA              10018680    005800330000003300000570000003NN  NNW 000                       N    
RDG08456400WATRL000000004K00000000000000189001601132015091243N000000000000U84       000090400K 10000000010000000172           
CUS0845640000108247976007         MCLEMORE, SHELBY J  301 SCOTT ST                            000N        CARE OF             
MTR08456400001000000000000000RA              01098176    007500340000003400000610000003NN  NNW 000                       N    
RDG08456400WATRL000000004K00000000000000239008801122015134431N000000000000N84       000750400K 10000000010000000232           
CUS0845640000108369113009         GRIMES-SANDS, CAROLY757 MCHENRY ST                          000N        CARE OF             
MTR08456400001000000000000000RA              75615368    005800350000003500000310000003NN  NNW 000                       N    
RDG08456400WATRL000000004K00000000000000082008901122015134455N000000000000N84       000240400K 10000000010000000067           
CUS0845640000108247977005         GALLAGHER CAITLIN   755 MCHENRY ST                          000N        CARE OF             
MTR08456400001000000000000000RA              29069158    007500360000003600000520000003NN  NNW 000                       N    
RDG08456400WATRL000000004K00000000000002264009001122015134512N000000000000N84       000170400K 10000000010000002252           
CUS0845640000108372546005         MASSEY, KELLY       753 MCHENRY ST                          000N        CARE OF             
MTR08456400001000000000000000RA              24770419    005800370000003700000520000003NN  NNW 000                       N    
RDG08456400WATRL000000004K00000000000002376009101122015134534N000000000000N84       000220400K 10000000010000002370           
CUS0845640000108247979001         ALLEN, PAULETTE     749 MCHENRY ST                          000N        CARE OF             
MTR08456400001000000000000000RA              26015882    005800380000003800000520000003NN  NNW 000                       N    
RDG08456400WATRL000000004K00000000000002766009201122015134613N000000000000N84       000390400K 10000000010000002741           
CUS0845640000108378745007         YANKELUNAS, PAUL A  747 MCHENRY ST                          000N        CARE OF             
MTR08456400001000000000000000RA              32904747    005800390000003900000520000003NN  NNW 000                       N    
RDG08456400WATRL000000004K00000000000001337009301122015134633N000000000000N84       000200400K 10000000010000001330           
CUS0845640000108378753001         MEDLAND, MARY ELIZAB743-45 MCHENRY ST                       000N        CARE OF             
MTR08456400001000000000000000RA              32904750    005800400000004000000520000003NN  NNW 000                       N    
RDG08456400WATRL000000004K00000000000002973009401122015134654N000000000000N84       000210400K 10000000010000002958           
CUS0845640000108357828006         HILDA BRYANT        741 MCHENRY ST                          000N        CARE OF             
MTR08456400001000000000000000RA              10008410    005800410000004100000570000003NN  NNW 000                       N    
RDG08456400WATRL000000004K00000000000000457009501122015134725N000000000000N84       000310400K 10000000010000000438           
CUS0845640000108368419001         KATHERINE SULLIVAN  739 MCHENRY ST                          000N        CARE OF             
MTR08456400001000000000000000RA              35098845    005800420000004200000520000003NN  NNW 000                       N    
RDG08456400WATRL000000004K00000000000002048009601122015134746N000000000000N84       000210400K 10000000010000002041           
CUS0845640000108378744000         SCOTT, ELMA         737 MCHENRY ST                          000N        CARE OF             
MTR08456400001000000000000000RA              32904569    005800430000004300000520000003NN  NNW 000                       N    
RDG08456400WATRL000000004K00000000000001155009701122015134816N000000000000N84       000300400K 10000000010000001144           
CUS0845640000108247986006         HAYES, BRYAN D      1018 W BARRE ST                         000N        CARE OF             
MTR08456400001000000000000000RA              01099751    005800440000004400000610000000NN  NNW 000                       N    
RDG08456400WATRL000000004K00000000000001081004501122015133010N000000000000N84       000980400K 10000000010000001067           
CUS0845640000108365037004         GOMEZ, ADAM         1020 W BARRE ST                         000N        CARE OF             
MTR08456400001000000000000000RA              45381804    005800450000004500000520000000NN  NNW 000                       N    
RDG08456400WATRL000000004K00000000000000502004601122015133022N000000000000N84       000120400K 10000000010000000485           
CUS0845640000108368401009         DANIEL GROSBERG     1022 W BARRE ST                         000N        CARE OF             
MTR08456400001000000000000000RA              30524909    005800460000004600000520000003NN  NNW 000                       N    
RDG08456400WATRL000000004K00000000000001395004701122015133034N000000000000N84       000120400K 10000000010000001386           
CUS0845640000108357956005         BRUCHEY, RYAN       1024 W BARRE ST                         000N        CARE OF             
MTR08456400001000000000000000RA              27831298    005800470000004700000520000003NN  NNW 000                       N    
RDG08456400WATRL000000004K00000000000002445004801122015133042N000000000000N84       000080400K 10000000010000002433           
CUS0845640000108247987004         WECHSLER, BENJAMIN S1026 W BARRE ST                         000N        CARE OF             
MTR08456400001000000000000000RA              9689905     005800480000004800000570000003NN  NNW 000                       N    
RDG08456400WATRL000000004K00000000000003076004901122015133104N000000000000N84       000220400K 10000000010000003060           
CUS0845640000108368397009         BAGAL, ARUN         1028 W BARRE ST                         000N        CARE OF             
MTR08456400001000000000000000RA              27823788    005800490000004900000520000003NN  NNW 000                       N    
RDG08456400WATRL000000004K00000000000004366005001122015133120N000000000000N84       000160400K 10000000010000004318           
CUS0845640000108368395003         FRANKLIN, ROBERT SHA1032 W BARRE ST                         000N        CARE OF             
MTR08456400001000000000000000RA              01077799    005800500000005000000610000003NN  NNW 000                       N    
RDG08456400WATRL000000004K00000000000000577005101122015133132N000000000000N84       000120400K 10000000010000000567           
CUS0845640000108368394006         DUBIEL, WILLIAM J   1034 W BARRE ST                         000N        CARE OF             
MTR08456400001000000000000000RA              01077797    005800510000005100000610000003NN  NNW 000                       N    
RDG08456400WATRL000000004K00000000000001067005201122015133143N000000000000N84       000110400K 10000000010000001059           
CUS0845640000108358057001         KOTRAS, NEIL EDWARD 1061 W BARRE ST                         000N        CARE OF             
MTR08456400001000000000000000RA              29682018    005800520000005200000520000003NN  NNW 000                       N    
RDG08456400WATRL000000004K00000000000002473005301122015133526N000000000011N84       000300400K 10000000010000002466           
CUS0845640000108365034001         BRANCH BANKING AND T1036 W BARRE ST                         000N        CARE OF             
MTR08456400001000000000000000RA              01077796    005800530000005300000610000000NN  NNW 000                       N    
RDG08456400WATRL000000004K00000000000001469005401122015133223N000100000020N84       000230400K 10000000010000001469           
CUS0845640000108247988002         MEGHAN KIEFFER      1038 W BARRE ST                         000N        CARE OF             
MTR08456400001000000000000000RA              01077793    005800540000005400000610000000NN  NNW 000                       N    
RDG08456400WATRL000000004K00000000000000209005501122015133308N000000000000N84       000450400K 10000000010000000205           
CUS0845640000108355416002         STRINGER, SHARICCA  1040 W BARRE ST                         000N        CARE OF             
MTR08456400001000000000000000RA              29402339    005800550000005500000520000003NN  NNW 000                       N    
RDG08456400WATRL000000004K00000000000002545005601122015133317N000000000000N84       000090400K 10000000010000002529           
CUS0845640000108247989000         AR-RAHMAN HOLDING, L1042 W BARRE ST                         000N        CARE OF             
MTR08456400001000000000000000RA              26012887    005800560000005600000520000000NN  NNW 000                       N    
RDG08456400WATRL000000004K00000000000001472005701122015133331N000000000000N84       000140400K 10000000010000001459           
CUS0845640000108368393008         REMINGTON, ROBERT J 1044 W BARRE ST                         000N        CARE OF             
MTR08456400001000000000000000RA              32904691    005800570000005700000520000003NN  NNW 000                       N    
RDG08456400WATRL000000004K00000000000002654005801122015133347N000000000000N84       000160400K 10000000010000002637           
CUS0845640000108247990008         NEWBERGER, BRETT    1046 W BARRE ST                         000N        CARE OF             
MTR08456400001000000000000000RA              29084034    005800580000005800000520000003NN  NNW 000                       N    
RDG08456400WATRL000000004K00000000000002953005901122015133402N000000000000N84       000150400K 10000000010000002946           
CUS0845640000108247991006         MANNER, TINA (LIFE) 1048 W BARRE ST                         000N        CARE OF             
MTR08456400001000000000000000RA              29083977    005800590000005900000520000003NN  NNW 000                       N    
RDG08456400WATRL000000004K00000000000002310006001122015133410N000100000010N84       000080400K 10000000010000002310           
CUS0845640000108247992004         ARVIN, JAMAR L.     1050 W BARRE ST                         000N        CARE OF             
MTR08456400001000000000000000RA              29082810    005800600000006000000520000003NN  NNW 000                       N    
RDG08456400WATRL000000004K00000000000001600006101122015133420N000000000000N84       000100400K 10000000010000001591           
CUS0845640000108247993002         WILLIAM R SMOTHERS  1052 W BARRE ST                         000N        CARE OF             
MTR08456400001000000000000000RA              29084321    005800610000006100000520000003NN  NNW 000                       N    
RDG08456400WATRL000000004K00000000000001539006201122015133426N000000000000N84       000060400K 10000000010000001536           
CUS0845640000108247995007         RICHARDSON, ADAM    1054 W BARRE ST                         000N        CARE OF             
MTR08456400001000000000000000RA              41257875    005800620000006200000520000003NN  NNW 000                       N    
RDG08456400WATRL000000004K00000000000001453006301122015133446N000300000010N84       000200400K 10000000010000001442           
CUS0845640000108247996005         JONES, ROBERT       1056 W BARRE ST                         000N        CARE OF             
MTR08456400001000000000000000RA              31937422    007500630000006300000520000000NN  NNW 000                       N    
RDG08456400WATRL000000004K00000000000005607006401122015133456N000000000000N84       000100400K 10000000010000005580           
CUS0845640000108248089008         RISCH, NATHANIEL K  766 RAMSAY ST                           000N        CARE OF             
MTR08456400001000000000000000RA              99289476    005800640000006400000570000000NN  NNW 000                       N    
RDG08456400WATRL000000004K00000000000000797002101122015131631N000000000000N84       000820400K 10000000010000000776           
CUS0845640000108248088000         IWUOHA, KHALEILA CHI764 RAMSAY ST                           000N        CARE OF             
MTR08456400001000000000000000RA              14924232    005800650000006500000310000000NN  NNW 000                       N    
RDG08456400WATRL000000004K00000000000000452002201122015131634N000000000000N84       000030400K 10000000010000000445           
CUS0845640000108248087002         PRE INVESTORS, LLC. 762 RAMSAY ST                           000N        CARE OF             
MTR08456400001000000000000000RA              01095447    005800660000006600000610000003NN  NNW 000                       N    
RDG08456400WATRL000000004K00000000000000524002301122015131652N000000000000N84       000180400K 10000000010000000518           
CUS0845640000108362998000         JEFFREY, EDWARD G   760 RAMSAY ST                           000N        CARE OF             
MTR08456400001000000000000000RA              01094860    005800670000006700000610000003NN  NNW 000                       N    
RDG08456400WATRL000000004K00000000000000810002401122015131702N000000000000N84       000100400K 10000000010000000765           
CUS0845640000108248086004         MASON, STERLON      758 RAMSAY ST                           000N        CARE OF             
MTR08456400001000000000000000RA              01077798    005800680000006800000610000000NN  NNW 000                       N    
RDG08456400WATRL000000004K00000000000001084002501122015131725N000000000000N84       000230400K 10000000010000001084           
CUS0845640000108248085006         HOFFMAN, CHRISTINE M756 RAMSAY ST                           000N        CARE OF             
MTR08456400001000000000000000RA              14930195    005800690000006900000310000003NN  NNW 000                       N    
RDG08456400WATRL000000004K00000000000000438003601122015132345N000000000010N84       000610400K 10000000010000000437           
CUS0845640000108248083001         CRAWFORD, LARRY     752 RAMSAY ST                           000N        CARE OF             
MTR08456400001000000000000000RA              45385682    005800700000007000000520000000NN  NNW 000                       N    
RDG08456400WATRL000000004K00000000000000691003701122015132412N000000000000N84       000270400K 10000000010000000688           
CUS0845640000108364407000         FRANCIS FIELDS ETAL 750 RAMSAY ST                           000N        CARE OF             
MTR08456400001000000000000000RA              22608247    005800710000007100000520000003NN  NNW 000                       N    
RDG08456400WATRL000000004K00000000000002287003801122015132425N000000000000N84       000130400K 10000000010000002285           
CUS0845640000108248094008         HARVEY, FREDDIE     753 RAMSAY ST                           000N        CARE OF             
MTR08456400001000000000000000RA              46884523    005800720000007200000520000000NN  NNW 000                       N    
RDG08456400WATRL000000004K00000000000001243004001122015132502N000000000000N84       000160400K 10000000010000001237           
CUS0845640000108248092002         VIRGINIA CREEK      757 RAMSAY ST                           000N        CARE OF             
MTR08456400001000000000000000RA              74687759    005800730000007300000350000003NN  NNW 000                       N    
RDG08456400WATRL000000004K00000000000000111003901122015132446N000000000000N84       000210400K 10000000010000000099           
CUS0845640000108248000005         MAYOR &CITY COUNCIL 321-31 OTTERBEIN ST                     000N        CARE OF             
MTR08456400001000000000000000RA              24224753    005800740000007400000520000003NN  NNW 000                       N    
RDG08456400WATRL000000004K00000000000002081002901122015131913N000000000000N84       000140400K 10000000010000002081           
CUS0845640000108377646008         FOSTER, VALERIE B.  312 OTTERBEIN ST                        000N        CARE OF             
MTR08456400001000000000000000RA              14909750    005800750000007500000310000003NN  NNW 000                       N    
RDG08456400WATRL000000004K00000000000000230002701122015131810N000000000000N84       000190400K 10000000010000000218           
CUS0845640000108384564004         WILKINS, CHRISTOPHER318 OTTERBEIN ST                        000N        CARE OF             
MTR08456400001000000000000000RA              01077794    005800760000007600000610000000NN  NNW 000                       N    
RDG08456400WATRL000000004K00000000000000450002601122015131751N000000000000N84       000260400K 10000000010000000442           
CUS0845640000108384566009         WRIGHT, GAIL E      302 OTTERBEIN ST                        000N        CARE OF             
MTR08456400001000000000000000RA              48583775    005800770000007700000520000003NN  NNW 000                       N    
RDG08456400WATRL000000004K00000000000002507002801122015131859N000400000020N84       000490400K 10000000010000002504           
CUS0845640000108248003009         TOTAL AUDIO-VISUAL S1011 W BARRE ST                         000N        CARE OF             
MTR08456400001000000000000000RA              24769885    005800780000007800000520000003NN  NNW 000                       N    
RDG08456400WATRL000000004K00000000000002385004101122015132547N000000000010N84       000450400K 10000000010000002384           
CUS0845640000108248012000         JAN, JOSEPHINE P C  1009 W BARRE ST                         000N        CARE OF             
MTR08456400001000000000000000RA              9692530     007500790000007900000570000003NN  NNW 000                       N    
RDG08456400WATRL000000004K00000000000001832001001122015131033N000000000000N84       000700400K 10000000010000001831           
CUS0845640000108248027008         HABC/RH             749 RYAN ST                             000N        CARE OF             
MTR08456400001000000000000000RA              01100106    005800800000008000000610000003NN  NNW 000                       N    
RDG08456400WATRL000000004K00000000000000321003301122015132143N000000000000N84       000150400K 10000000010000000312           
CUS0845640000108374497009         BROWN, SHANNON N    747 RYAN ST                             000N        CARE OF             
MTR08456400001000000000000000RA              14918844    005800810000008100000310000000NN  NNW 000                       N    
RDG08456400WATRL000000004K00000000000000316003201122015132128N000000000000N84       000240400K 10000000010000000304           
CUS0845640000108369400000         GHAFFARIAN, BORNA   745 RYAN ST                             000N        CARE OF             
MTR08456400001000000000000000RA              01100111    005800820000008200000610000003NN  NNW 000                       N    
RDG08456400WATRL000000004K00000000000000177003101122015132104N000400000010N84       000250400K 10000000010000000173           
CUS0845640000108369399004         PAULINY, JOHN TODD  743 RYAN ST                             000N        CARE OF             
MTR08456400001000000000000000RA              01100113    005800830000008300000610000003NN  NNW 000                       N    
RDG08456400WATRL000000004K00000000000000374003001122015132039N000300000020N84       000860400K 10000000010000000294           
CUS0845640000108248025002         119 SCOTT STREET LLC760-62 CLIFFORD ST                      000N        CARE OF             
MTR08456400001000000000000000RA              74691394    005800840000008400000350000003NN  NNW 000                       N    
RDG08456400WATRL000000004K00000000000000333000901122015130923N000000000000N84       000680400K 10000000010000000299           
CUS0845640000108248028006         THE FRENCH CO. INC  323 SCOTT ST                            000N        CARE OF             
MTR08456400001000000000000000RA              40248725    007500850000008500000520000003NN  NNW 000                       N    
RDG08456400WATRL000000004K00000000000003004003401122015132210N000000000000N84       000270400K 10000000010000002979           
CUS0845640000108358056003         HOOVER, LOLA A.     1059 W BARRE ST                         000N        CARE OF             
MTR08456400001000000000000000RA              29682023    005800860000008600000520000003NN  NNW 000                       N    
RDG08456400WATRL000000004K00000000000002273006501122015133623N000000000000N84       000570400K 10000000010000002234           
CUS0845640000108358055005         TOLU, ERHAN         1057 W BARRE ST                         000N        CARE OF             
MTR08456400001000000000000000RA              29404568    005800870000008700000520000003NN  NNW 000                       N    
RDG08456400WATRL000000004K00000000000004700009801122015134910N000000000000N84       000540400K 10000000010000004690           
CUS0845640000108358054008         LIU, JINNY          1055 W BARRE ST                         000N        CARE OF             
MTR08456400001000000000000000RA              29403809    005800880000008800000520000003NN  NNW 000                       N    
RDG08456400WATRL000000004K00000000000003103009901122015134913N000000000000N84       000030400K 10000000010000003080           
CUS0845640000108368390004         ANDREW DOUGLAS BARNE1053 W BARRE ST                         000N        CARE OF             
MTR08456400001000000000000000RA              30524908    005800890000008900000520000003NN  NNW 000                       N    
RDG08456400WATRL000000004K00000000000002768010001122015134934N000000000000N84       000210400K 10000000010000002753           
CUS0845640000108368391002         JONES, ROBERT D.    1051 W BARRE ST                         000N        CARE OF             
MTR08456400001000000000000000RA              30524952    005800900000009000000520000003NN  NNW 000                       N    
RDG08456400WATRL000000004K00000000000004618010101122015134946N000000000000N84       000120400K 10000000010000004575           
CUS0845640000108357957003         DILORENZO, HENRY    1049 W BARRE ST                         000N        CARE OF             
MTR08456400001000000000000000RA              29083580    005800910000009100000520000003NN  NNW 000                       N    
RDG08456400WATRL000000004K00000000000003199010201122015135002N000400000010N84       000160400K 10000000010000003191           
CUS0845640000108374555004         ALEKSALZA, JUDITH A 1047 W BARRE ST                         000N        CARE OF             
MTR08456400001000000000000000RA              29681668    005800920000009200000520000003NN  NNW 000                       N    
RDG08456400WATRL000000004K00000000000001232010301122015135059N000000000000N84       000570400K 10000000010000001224           
CUS0845640000108368392000         KANIOWSKI, STEFAN   1045 W BARRE ST                         000N        CARE OF             
MTR08456400001000000000000000RA              27513001    005800930000009300000520000003NN  NNW 000                       N    
RDG08456400WATRL000000004K00000000000002235010401122015135120N000000000000N84       000210400K 10000000010000002223           
CUS0845640000108357955007         SANCHEZ, DELORA R   1043 W BARRE ST                         000N        CARE OF             
MTR08456400001000000000000000RA              75424699    005800940000009400000350000003NN  NNW 000                       N    
RDG08456400WATRL000000004K00000000000000061010501122015135141N000000000000N84       000210400K 10000000010000000053           
CUS0845640000108247997003         CHICKNOSKI, STEPHEN 1041 W BARRE ST                         000N        CARE OF             
MTR08456400001000000000000000RA              30513232    005800950000009500000520000003NN  NNW 000                       N    
RDG08456400WATRL000000004K00000000000002975010601122015135228N000000000000N84       000470400K 10000000010000002963           
CUS0845640000108357878001         LO R PROPERTIES, LLC1039 W BARRE ST                         000N        CARE OF             
MTR08456400001000000000000000RA              29084198    005800960000009600000520000003NN  NNW 000                       N    
RDG08456400WATRL000000004K00000000000002879010701122015135254N000000000000N84       000260400K 10000000010000002866           
CUS0845640000108353681003         GAUVEY-KERN, KEVIN C1037 W BARRE ST                         000N        CARE OF             
MTR08456400001000000000000000RA              29082226    005800970000009700000520000003NN  NNW 000                       N    
RDG08456400WATRL000000004K00000000000002158010801122015135313N000000000000N84       000190400K 10000000010000002148           
CUS0845640000108247998001         JONES, STERLING WILL1035 W BARRE ST                         000N        CARE OF             
MTR08456400001000000000000000RA              99411716    007500980000009800000570000003NN  NNW 000                       N    
RDG08456400WATRL000000004K00000000000000783010901122015135329N000000000000N84       000160400K 10000000010000000765           
CUS0845640000108372543002         PENNY L. PERRY      1033 W BARRE ST                         000N        CARE OF             
MTR08456400001000000000000000RA              24221507    005800990000009900000520000003NN  NNW 000                       N    
RDG08456400WATRL000000004K00000000000004289011001122015135408N000000000000N84       000390400K 10000000010000004284           
CUS0845640000108368396001         KIDWELL, MARJORIE   1031 W BARRE ST                         000N        CARE OF             
MTR08456400001000000000000000RA              01077790    005801000000010000000610000003NN  NNW 000                       N    
RDG08456400WATRL000000004K00000000000000757011101122015135417N000000000000N84       000090400K 10000000010000000748           
CUS0845640000108247999009         BURDUSI, CHRYSTALLA 1029 W BARRE ST                         000N        CARE OF             
MTR08456400001000000000000000RA              99411919    007501010000010100000570000003NN  NNW 000                       N    
RDG08456400WATRL000000004K00000000000001391011201122015135436N000000000000N84       000190400K 10000000010000001366           
CUS0845640000108368398007         PLUMMER, CHARLES M  1027 W BARRE ST                         000N        CARE OF             
MTR08456400001000000000000000RA              75615682    005801020000010200000350000003NN  NNW 000                       N    
RDG08456400WATRL000000004K00000000000000001011301122015135449N000100000010N84       000130400K 10000000010000000001           
CUS0845640000108368399005         DAN HANCOCK         1025 W BARRE ST                         000N        CARE OF             
MTR08456400001000000000000000RA              75425904    005801030000010300000350000003NN  NNW 000                       N    
RDG08456400WATRL000000004K00000000000000063011401122015135506N000300000010N84       000170400K 10000000010000000049           
CUS0845640000108368400001         SCULLY PROPERTY GROU1023 W BARRE ST                         000N        CARE OF             
MTR08456400001000000000000000RA              41257873    005801040000010400000520000003NN  NNW 000                       N    
RDG08456400WATRL000000004K00000000000001372011501122015135519N000000000000N84       000130400K 10000000010000001368           
CUS0845640000108368402007         CEESAY, KEBBA S.    1021 W BARRE ST                         000N        CARE OF             
MTR08456400001000000000000000RA              30524910    005801050000010500000520000003NN  NNW 000                       N    
RDG08456400WATRL000000004K00000000000001612004401122015132832N000000000000N84       000270400K 10000000010000001609           
CUS0845640000108368403005         HAKEY, DOUGLAS W    1019 W BARRE ST                         000N        CARE OF             
MTR08456400001000000000000000RA              36696625    005801060000010600000520000003NN  NNW 000                       N    
RDG08456400WATRL000000004K00000000000000481004301122015132805N000000000000N84       000960400K 10000000010000000479           
CUS0845640000108364441009         IGLA, DAVID         1017 W BARRE ST                         000N        CARE OF             
MTR08456400001000000000000000RA              30515260    005801070000010700000520000003NN  NNW 000                       N    
RDG08456400WATRL000000004K00000000000001926004201122015132629N000000000000N84       000420400K 10000000010000001917           
CUS0845640000108369596005         KNOLL, THOMAS J     231 SCOTT ST                            000N        CARE OF             
MTR08456400001000000000000000RA              30527985    005801080000010800000520000003NN  NNW 000                       N    
RDG08456400WATRL000000004K00000000000001489001701132015091333N000000000000U84       000500400K 10000000010000001482           
CUS0845640000108378761004         HILLDOERFER, MATT W 227 SCOTT ST                            000N        CARE OF             
MTR08456400001000000000000000RA              32903510    005801090000010900000520000003NN  NNW 000                       N    
RDG08456400WATRL000000004K00000000000000000001801132015091345N000000000000U84       000120400K 10000000010000000000           
CUS0845640000108378760006         ANDRADE, JOVANY     225 SCOTT ST                            000N        CARE OF             
MTR08456400001000000000000000RA              48586691    005801100000011000000520000003NN  NNW 000                       N    
RDG08456400WATRL000000004K00000000000001445001901132015091347N000000000000U84       000020400K 10000000010000001424           
CUS0845640000108378758000         PANATI, NICHOLAS W  223 SCOTT ST                            000N        CARE OF             
MTR08456400001000000000000000RA              35118703    005801110000011100000520000003NN  NNW 000                       N    
RDG08456400WATRL000000004K00000000000002386002001132015091417N000000000000U84       000300400K 10000000010000002370           
CUS0845640000108369594000         ANOZIE, MARY-MARGARE221 SCOTT ST                            000N        CARE OF             
MTR08456400001000000000000000RA              52289070    005801120000011200000520000003NN  NNW 000                       N    
RDG08456400WATRL000000004K00000000000001915002101132015091424N000000000000U84       000070400K 10000000010000001906           
CUS0845640000108369593002         PIERCE, BEVERLY A   219 SCOTT ST                            000N        CARE OF             
MTR08456400001000000000000000RA              27265843    005801130000011300000520000003NN  NNW 000                       N    
RDG08456400WATRL000000004K00000000000001955002201132015091427N000000000000U84       000030400K 10000000010000001948           
CUS0845640000108404341003         BATTANI, DAVID A.   217 SCOTT ST                            000N        CARE OF             
MTR08456400001000000000000000RA              48583511    005801140000011400000520000003NN  NNW 000                       N    
RDG08456400WATRL000000004K00000000000001741002301132015091445N000000000000U84       000180400K 10000000010000001726           
CUS0845640000108378757002         NORRIS, DAVID W.    215 SCOTT ST                            000N        CARE OF             
MTR08456400001000000000000000RA              48583410    005801150000011500000520000003NN  NNW 000                       N    
RDG08456400WATRL000000004K00000000000000735002401132015091453N000000000000U84       000080400K 10000000010000000732           
CUS0845640000108369104008         DE BORJA, NARCISO A 211-13 SCOTT ST                         000N        CARE OF             
MTR08456400001000000000000000RA              30523774    005801160000011600000520000003NN  NNW 000                       N    
RDG08456400WATRL000000004K00000000000003607002501132015091529N000000000010U84       000360400K 10000000010000003600           
CUS0845640000108378756004         BAKER, AMANDA E     207 SCOTT ST                            000N        CARE OF             
MTR08456400001000000000000000RA              32904744    005801170000011700000520000003NN  NNW 000                       N    
RDG08456400WATRL000000004K00000000000001899002601132015091550N000400000010U84       000210400K 10000000010000001882           
CUS0845640000108378755006         WEBSTER, DAVID E    205 SCOTT ST                            000N        CARE OF             
MTR08456400001000000000000000RA              32904740    005801180000011800000520000003NN  NNW 000                       N    
RDG08456400WATRL000000004K00000000000002310002701132015091556N000000000000U84       000060400K 10000000010000002300           
CUS0845640000108374449000         DHILLON, KRISHAN SIN0000 HARBOR CITY BLVD                   000N        CARE OF             
MTR08456400001000000000000000RA              51447297    000101190000011900000520000003NN  NNW 000                       N    
RDG08456400WATRL000000004K00000000000000000011701122015140434N000000000000N84       000220400K 10000000010000000000           
CUS0845640000108247847000         B & O RAILROAD MUSEU837-89 W PRATT ST                       000N        CARE OF             
MTR08456400001000000000000000RA              44172619    005801200000012000000520000003NN  NNW 000                       N    
RDG08456400WATRL000000004K00000000000000111002801132015091603N000000000000U84       000070400K 10000000010000000111           
CUS0845640000108247849006         LAWLESS, ANDREW J   775 W PRATT ST                          000N        CARE OF             
MTR08456400001000000000000000RA              31937898    007501210000012100000520000003NN  NNW 000                       N    
RDG08456400WATRL000000004K00000000000002944002901132015091657N000000000000U84       000540400K 10000000010000002938           
CUS0845640000108384561000         ROSENFELD, LUIS     773 W PRATT ST                          000N        CARE OF             
MTR08456400001000000000000000RA              01099688    005801220000012200000610000003NN  NNW 000                       N    
RDG08456400WATRL000000004K00000000000000901003001132015091725N000000000000U84       000280400K 10000000010000000886           
CUS0845640000108247850004         ROSENFELD, LUIS     767-69 W PRATT ST                       000N        CARE OF             
MTR08456400001000000000000000RA              23841999    005801230000012300000520000003NN  NNW 000                       N    
RDG08456400WATRL000000004K00000000000004210003101132015091746N000000000000U84       000210400K 10000000010000004173           
CUS0845640000108374448002         BUR HIGHWAYS        0000 HARBOR CITY BLVD                   000N        CARE OF             
MTR08456400001000000000000000RA              00163747    000101240000012400000570000003NN  NNW 000                       N    
RDG08456400WATRL000000004K00000000000000000011601122015140412N000000000000N84       005330400K 10000000010000000000           
CUS0845640000108384560002         BONILLA, JORGE A.   765 W PRATT ST                          000N        CARE OF             
MTR08456400001000000000000000RA              35106991    005801250000012500000520000003NN  NNW 000                       N    
RDG08456400WATRL000000004K00000000000002595003201132015091839N000400000010U84       000530400K 10000000010000002586           
CUS0845640000108381634008         OGORO INVESTMENTS ON763 W PRATT ST                          000N        CARE OF             
MTR08456400001000000000000000RA              33082723    005801260000012600000520000003NN  NNW 000                       N    
RDG08456400WATRL000000004K00000000000000886003501132015092213N000000000000U84       001020400K 10000000010000000872           
CUS0845640000108247851002         DHILLON, KRISHAN SIN761 W PRATT ST                          000N        CARE OF             
MTR08456400001000000000000000RA              31086166    005801270000012700000520000003NN  NNW 000                       N    
RDG08456400WATRL000000004K00000000000002183003601132015092257N000000000000U84       000440400K 10000000010000002171           
CUS0845640000108368793009         RD30 LLC            739 W PRATT ST                          000N        CARE OF             
MTR08456400001000000000000000RA              50000287    000101280000012800000570000003NN  NNW 000                       N    
RDG08456400WATRL000000004K00000000000000164003701132015092425N000000000000U84       000880400K 10000000010000000146           
CUS0845640000108367513002         VYTAUTAS MAKAUSKAS  737 W PRATT ST                          000N        CARE OF             
MTR08456400001000000000000000RA              32176943    005801290000012900000520000003NN  NNW 000                       N    
RDG08456400WATRL000000004K00000000000003316003801132015092443N000000000000U84       000180400K 10000000010000003316           
CUS0845640000108380658008         VYTAUTAS MAKAUSKS   733 W PRATT ST                          000N        CARE OF             
MTR08456400001000000000000000RA              48583506    005801300000013000000520000003NN  NNW 000   VACANT PROPERTY     N    
RDG08456400WATRL000000004K00000000000000000003901132015092446N000000000000U84       000030400K 10000000010000000000           
CUS0845640000108247856001         UNIVERSITY OF MARYLA723-25 W PRATT ST                       000N        CARE OF             
MTR08456400001000000000000000RA              00119978    007501310000013100000570000003NN  NNW 000                       N    
RDG08456400WATRL000000004K00000000000000000004001132015092448N000000000000U84       000020400K 10000000010000000000           
CUS0845640000108247857009         STATE OF MD FOR THE 719-21 W PRATT ST                       000N        CARE OF             
MTR08456400001000000000000000RA              00128907    005801320000013200000570000003NN  NNW 000                       N    
RDG08456400WATRL000000004K00000000000000175004101132015092451N000000000000U84       000030400K 10000000010000000175           
CUS0845640000108247859005         ACOSTA, LLC         713 W PRATT ST                          000N        CARE OF             
MTR08456400001000000000000000RA              28765527    007501330000013300000520000003NN  NNW 000                       N    
RDG08456400WATRL000000004K00000000000001604004201132015092542N000000000000U84       000510400K 10000000010000001556           
CUS0845640000108247860003         STAKIAS, JOHN       665 W PRATT ST                          000N        CARE OF             
MTR08456400001000000000000000RA              48582658    005801340000013400000520000003NN  NNW 000                       N    
RDG08456400WATRL000000004K00000000000001015008701132015095210N000000000000U84       001280400K 10000000010000001013           
CUS0845640000108247861001         STAKIAS, JOHN       665 W PRATT ST                          000N        CARE OF             
MTR08456400001000000000000000RA              26795900    007501350000013500000520000003NN  NNW 000                       N    
RDG08456400WATRL000000004K00000000000009580008801132015095237N000000000000U84       000270400K 10000000010000009563           
CUS0845640000108247865002         MABEL H BEVERLEY    647 W PRATT ST                          000N        CARE OF             
MTR08456400001000000000000000RA              74814799    007501360000013600000350000003NN  NNW 000                       N    
RDG08456400WATRL000000004K00000000000002322008901132015095342N000400000010U84       000650400K 10000000010000002128           
CUS0845640000108367517003         MABEL H BEVERLEY    645 W PRATT ST                          000N        CARE OF             
MTR08456400001000000000000000RA              21721201    005801370000013700000590000003NN  NNW 000                       N    
RDG08456400WATRL000000004K00000000000000000009001132015095353N000000000000U84       000110400K 10000000010000000000           
CUS0845640000108247879003         OLD CROW HOLDINGS, L520 WASHINGTON BLVD                     000N        CARE OF             
MTR08456400001000000000000000RA              00118574    007501380000013800000320000003NN  NNW 000                       N    
RDG08456400WATRL000000004K00000000000007392009201132015095552N000000000000U84       000360400K 10000000010000007392           
CUS0845640000108247880001         VAN SEIBEL          512-16 WASHINGTON BLVD                  000N        CARE OF             
MTR08456400001000000000000000RA              99292406    005801390000013900000570000003NN  NNW 000                       N    
RDG08456400WATRL000000004K00000000000001615009601132015095844N000100000010U84       000600400K 10000000010000001615           
CUS0845640000108247881009         VAN SEIBEL          510 WASHINGTON BLVD                     000N        CARE OF             
MTR08456400001000000000000000RA              76349865    007501400000014000000350000003NN  NNW 000                       N    
RDG08456400WATRL000000004K00000000000000000009301132015095600N000000000000U84       000080400K 10000000010000000000           
CUS0845640000108384588003         WASHINGTON BOULEVARD508 WASHINGTON BLVD                     000N        CARE OF             
MTR08456400001000000000000000RA              99999999    007501410000014100000440000003NN  NNW 000   VACANT PROPERTY     N    
RDG08456400WATRL000000004K00000000000000000009401132015095602N000000000000U84       000020400K 10000000010000000000           
CUS0845640000108247882007         771 LLC             504 WASHINGTON BLVD                     000N        CARE OF             
MTR08456400001000000000000000RA              99308772    007501420000014200000570000003NN  NNW 000                       N    
RDG08456400WATRL000000004K00000000000000709009501132015095744N000000000010U84       001020400K 10000000010000000489           
CUS0845640000108247883005         BALTIMORE GAS & ELEC220 S GREENE ST                         000N        CARE OF             
MTR08456400001000000000000000RA              00163895    000101430000014300000570000003NN  NNW 000                       N    
RDG08456400WATRL000000004K00000000000000854009101132015095516N000100000010U84       000830400K 10000000010000000854           
CUS0845640000108454108005         JOHN ROBINSON       642 PORTLAND ST                         000N        CARE OF             
MTR08456400001000000000000000RA              74687719    005801440000014400000350000003NN  NNW 000                       N    
RDG08456400WATRL000000004K00000000000000031009801132015100210N000000000000U84       000970400K 10000000010000000027           
CUS0845640000108435984003         JOHN & CAROLYN BERES603 PORTLAND ST                         000N        CARE OF             
MTR08456400001000000000000000RA              01096137    005801450000014500000610000003NN  NNW 000                       N    
RDG08456400WATRL000000004K00000000000000392009701132015100033N000000000030U84       001090400K 10000000010000000389           
CUS0845640000108247885000         CAMPBELL, PAUL C    622 DOVER ST                            000N        CARE OF             
MTR08456400001000000000000000RA              31584284    005801460000014600000520000003NN  NNW 000                       N    
RDG08456400WATRL000000004K00000000000001437006301132015093723N000000000000U84       000850400K 10000000010000001433           
CUS0845640000108346569000         KISHOR, SUNITA      626 DOVER ST                            000N        CARE OF             
MTR08456400001000000000000000RA              74687683    005801470000014700000350000003NN  NNW 000                       N    
RDG08456400WATRL000000004K00000000000000072006401132015093749N000000000000U84       000260400K 10000000010000000062           
CUS0845640000108377659001         ESCOBAR, MARTA E.   628 DOVER ST                            000N        CARE OF             
MTR08456400001000000000000000RA              32900697    005801480000014800000520000003NN  NNW 000                       N    
RDG08456400WATRL000000004K00000000000001758006501132015093807N000000000000U84       000180400K 10000000010000001747           
CUS0845640000108384591007         WHITING ETAL, GERRY 630 DOVER ST                            000N        CARE OF             
MTR08456400001000000000000000RA              10018569    005801490000014900000570000000NN  NNW 000                       N    
RDG08456400WATRL000000004K00000000000000004006601132015093819N000000000000U84       000120400K 10000000010000000004           
CUS0845640000108364474000         COYLE, CAROLYN      632 DOVER ST                            000N        CARE OF             
MTR08456400001000000000000000RA              01077795    005801500000015000000610000003NN  NNW 000                       N    
RDG08456400WATRL000000004K00000000000000719006701132015093834N000000000000U84       000150400K 10000000010000000713           
CUS0845640000108377672004         FORD, LAURA         634 DOVER ST                            000N        CARE OF             
MTR08456400001000000000000000RA              32900129    005801510000015100000520000003NN  NNW 000                       N    
RDG08456400WATRL000000004K00000000000001639006801132015093852N000000000000U84       000180400K 10000000010000001631           
CUS0845640000108346570008         E.G. ROLLE PROPERTY,636 DOVER ST                            000N        CARE OF             
MTR08456400001000000000000000RA              10004650    005801520000015200000570000003NN  NNW 000                       N    
RDG08456400WATRL000000004K00000000000000214006901132015093905N000000000000U84       000130400K 10000000010000000210           
CUS0845640000108372540008         RIGDON, HENRY BENJAM640 DOVER ST                            000N        CARE OF             
MTR08456400001000000000000000RA              31581832    005801530000015300000520000003NN  NNW 000                       N    
RDG08456400WATRL000000004K00000000000002347007001132015093920N000000000000U84       000150400K 10000000010000002343           
CUS0845640000108346571006         WOLF, JAMES D       642 DOVER ST                            000N        CARE OF             
MTR08456400001000000000000000RA              35104544    005801540000015400000520000003NN  NNW 000                       N    
RDG08456400WATRL000000004K00000000000001454007101132015093936N000000000000U84       000160400K 10000000010000001446           
CUS0845640000108346572004         KELLER, DANIEL      644 DOVER ST                            000N        CARE OF             
MTR08456400001000000000000000RA              48590878    005801550000015500000520000000NN  NNW 000                       N    
RDG08456400WATRL000000004K00000000000000787007201132015093949N000000000000U84       000130400K 10000000010000000773           
CUS0845640000108370131008         COFFMAN JR, CHARLES 648 DOVER ST                            000N        CARE OF             
MTR08456400001000000000000000RA              46886550    005801560000015600000520000003NN  NNW 000                       N    
RDG08456400WATRL000000004K00000000000001290007301132015094006N000000000000U84       000170400K 10000000010000001285           
CUS0845640000108346574000         KOFI & BEATRICE KYEI652 DOVER ST                            000N        CARE OF             
MTR08456400001000000000000000RA              35116163    005801570000015700000520000003NN  NNW 000                       N    
RDG08456400WATRL000000004K00000000000001642007401132015094023N000000000000U84       000170400K 10000000010000001636           
CUS0845640000108384592005         BRIDGEPORT PROPERTIE654 DOVER ST                            000N        CARE OF             
MTR08456400001000000000000000RA              36687762    005801580000015800000520000003NN  NNW 000                       N    
RDG08456400WATRL000000004K00000000000001036007501132015094046N000000000000U84       000230400K 10000000010000001017           
CUS0845640000108363123004         YACHIN, GUY         656 DOVER ST                            000N        CARE OF             
MTR08456400001000000000000000RA              14926403    005801590000015900000310000003NN  NNW 000                       N    
RDG08456400WATRL000000004K00000000000000356007601132015094104N000000000000U84       000180400K 10000000010000000348           
CUS0845640000108247886008         GARBUS, GRETA       658 DOVER ST                            000N        CARE OF             
MTR08456400001000000000000000RA              25780698    005801600000016000000520000003NN  NNW 000                       N    
RDG08456400WATRL000000004K00000000000002408007701132015094118N000000000000U84       000140400K 10000000010000002394           
CUS0845640000108346575007         MULES, REBECCA HUMBE660 DOVER ST                            000N        CARE OF             
MTR08456400001000000000000000RA              35116165    005801610000016100000520000003NN  NNW 000                       N    
RDG08456400WATRL000000004K00000000000001807007801132015094621N000000000000U84       003030400K 10000000010000001791           
CUS0845640000108247887006         DR ANTONIO COSTAS   657 DOVER ST                            000N        CARE OF             
MTR08456400001000000000000000RA              27818230    005801620000016200000520000003NN  NNW 000                       N    
RDG08456400WATRL000000004K00000000000001120005201132015093206N000000000001U84       000060400K 10000000010000001106           
CUS0845640000108362913009         FORD, DANIELLE A    653 DOVER ST                            000N        CARE OF             
MTR08456400001000000000000000RA              10018805    005801630000016300000570000003NN  NNW 000                       N    
RDG08456400WATRL000000004K00000000000000029005301132015093223N000000000000U84       000170400K 10000000010000000024           
CUS0845640000108248248000         ZUCCONI, BETH       651 DOVER ST                            000N        CARE OF             
MTR08456400001000000000000000RA              10001596    005801640000016400000570000003NN  NNW 000                       N    
RDG08456400WATRL000000004K00000000000000199005401132015093238N000000000000U84       000150400K 10000000010000000190           
CUS0845640000108247888004         GROLEAU, GEORGE EUDO649 DOVER ST                            000N        CARE OF             
MTR08456400001000000000000000RA              27133699    005801650000016500000520000003NN  NNW 000                       N    
RDG08456400WATRL000000004K00000000000002351005501132015093259N000000000000U84       000210400K 10000000010000002348           
CUS0845640000108364476005         CRUM, DOUGLAS       647 DOVER ST                            000N        CARE OF             
MTR08456400001000000000000000RA              30516351    005801660000016600000520000003NN  NNW 000                       N    
RDG08456400WATRL000000004K00000000000001788005601132015093324N000000000010U84       000250400K 10000000010000001764           
CUS0845640000108365035008         CRAIG, JAMES F      643 DOVER ST                            000N        CARE OF             
MTR08456400001000000000000000RA              30517562    005801670000016700000520000003NN  NNW 000                       N    
RDG08456400WATRL000000004K00000000000001747005701132015093344N000000000000U84       000200400K 10000000010000001736           
CUS0845640000108364475007         PAUL K THOMAS       637 DOVER ST                            000N        CARE OF             
MTR08456400001000000000000000RA              00125916    005801680000016800000570000003NN  NNW 000                       N    
RDG08456400WATRL000000004K00000000000000239005801132015093414N000000000000U84       000300400K 10000000010000000234           
CUS0845640000108380380009         LEE, TIMOTHY H      635 DOVER ST                            000N        CARE OF             
MTR08456400001000000000000000RA              76344991    005801690000016900000350000003NN  NNW 000                       N    
RDG08456400WATRL000000004K00000000000000032005901132015093429N000000000000U84       000150400K 10000000010000000027           
CUS0845640000108376839000         MURPHY, SEAN        631 DOVER ST                            000N        CARE OF             
MTR08456400001000000000000000RA              32771508    005801700000017000000520000003NN  NNW 000                       N    
RDG08456400WATRL000000004K00000000000001377006001132015093502N000000000000U84       000330400K 10000000010000001371           
CUS0845640000108384593003         DARRYL J DURRINGTON 629 DOVER ST                            000N        CARE OF             
MTR08456400001000000000000000RA              39290363    005801710000017100000520000003NN  NNW 000                       N    
RDG08456400WATRL000000004K00000000000000909006101132015093529N000000000000U84       000270400K 10000000010000000903           
CUS0845640000108247890000         BABE RUTH BIRTHPLACE212 EMORY ST                            000N        CARE OF             
MTR08456400001000000000000000RA              43905115    007501720000017200000520000003NN  NNW 000                       N    
RDG08456400WATRL000000004K00000000000003152006201132015093558N000400000020U84       000290400K 10000000010000003145           
CUS0845640000108370135009         BAE, EUN S          206 PENN ST                             000N        CARE OF             
MTR08456400001000000000000000RA              31584234    005801730000017300000520000003NN  NNW 000                       N    
RDG08456400WATRL000000004K00000000000002026004701132015092914N000000000000U84       000510400K 10000000010000002017           
CUS0845640000108365036006         O'NEILL, DEBORAH L  208 PENN ST                             000N        CARE OF             
MTR08456400001000000000000000RA              30517561    005801740000017400000520000003NN  NNW 000                       N    
RDG08456400WATRL000000004K00000000000001477004801132015092924N000000000000U84       000100400K 10000000010000001467           
CUS0845640000108370136007         WOLFSON, JACOB A.   210 PENN ST                             000N        CARE OF             
MTR08456400001000000000000000RA              10006712    005801750000017500000570000003NN  NNW 000                       N    
RDG08456400WATRL000000004K00000000000000221004901132015092940N000000000000U84       000160400K 10000000010000000211           
CUS0845640000108384589001         LAPIN, ROBERT       211 PENN ST                             000N        CARE OF             
MTR08456400001000000000000000RA              41080794    005801760000017600000520000003NN  NNW 000                       N    
RDG08456400WATRL000000004K00000000000003578004601132015092823N000300000010U84       000190400K 10000000010000003572           
CUS0845640000108364436009         SHARKEY, HARRY J.   209 PENN ST                             000N        CARE OF             
MTR08456400001000000000000000RA              30514564    005801770000017700000520000003NN  NNW 000                       N    
RDG08456400WATRL000000004K00000000000001454004501132015092804N000000000000U84       000220400K 10000000010000001448           
CUS0845640000108363009005         GASPAROTTI, ZOE     207 PENN ST                             000N        CARE OF             
MTR08456400001000000000000000RA              45385398    005801780000017800000520000003NN  NNW 000                       N    
RDG08456400WATRL000000004K00000000000001002004401132015092742N000000000010U84       000280400K 10000000010000000999           
CUS0845640000108363308001          MURPHY, KATRINA G  205 PENN ST                             000N        CARE OF             
MTR08456400001000000000000000RA              14910710    005801790000017900000310000003NN  NNW 000                       N    
RDG08456400WATRL000000004K00000000000000623004301132015092714N000000000000U84       000920400K 10000000010000000610           
CUS0845640000108247899001         SIMMONS, BRYAN K.   213-15 PENN ST                          000N        CARE OF             
MTR08456400001000000000000000RA              52768248    005801800000018000000520000003NN  NNW 000                       N    
RDG08456400WATRL000000004K00000000000003155005101132015093102N000000000000U84       000420400K 10000000010000003129           
CUS0845640000108382667007         BRUCE SAYLOR        217 PENN ST                             000N        CARE OF             
MTR08456400001000000000000000RA              54349039    005801810000018100000520000003NN  NNW 000                       N    
RDG08456400WATRL000000004K00000000000000887005001132015093020N000000000000U84       000400400K 10000000010000000878           
CUS0845640000108384590009         S.A.S. ASSOCIATES, L732 DOVER ST                            000N        CARE OF             
MTR08456400001000000000000000RA              94226719    005801820000018200000570000003NY  NNW 000                       N    
MTM0845640094226719    no vault                                                                                               
RDG08456400WATRL000000004K00000000000000000009901132015101151S018000000010U84       005810400K 10000000010000002129           
CUS0845640000108247901005         S.A.S. ASSOCIATES, L730 DOVER ST                            000N        CARE OF             
MTR08456400001000000000000000RA              24226719    005801830000018300000520000003NN  NNW 000                       N    
RDG08456400WATRL000000004K00000000000002223008601132015095002N000000000000U84       000380400K 10000000010000002189           
CUS0845640000108440487000         WASHEL III, WALTER J723 DOVER ST                            000N        CARE OF             
MTR08456400001000000000000000RA              00165231    000101840000018400000570000003NN  NNW 000                       N    
RDG08456400WATRL000000004K00000000000000357008401132015094920N000000000000U84       000150400K 10000000010000000348           
CUS0845640000108440486002         VITOLO, MICHELE     721 DOVER ST                            000N        CARE OF             
MTR08456400001000000000000000RA              00165230    000101850000018500000440000003NN  NNW 000                       N    
RDG08456400WATRL000000004K00000000000000616008501132015094924N000000000000U84       000040400K 10000000010000000595           
CUS0845640000108374759002         WEB 84, LLC         717 DOVER ST                            000N        CARE OF             
MTR08456400001000000000000000RA              32177176    005801860000018600000520000003NN  NNW 000                       N    
RDG08456400WATRL000000004K00000000000001968008301132015094905N000000000000U84       000250400K 10000000010000001955           
CUS0845640000108369395002         LISA KRAC           715 DOVER ST                            000N        CARE OF             
MTR08456400001000000000000000RA              75425449    005801870000018700000350000003NN  NNW 000                       N    
RDG08456400WATRL000000004K00000000000000101008201132015094840N000000000000U84       000280400K 10000000010000000090           
CUS0845640000108370130000         ZAPATA, ANDRES F. (E713 DOVER ST                            000N        CARE OF             
MTR08456400001000000000000000RA              31583906    005801880000018800000520000003NN  NNW 000                       N    
RDG08456400WATRL000000004K00000000000001397008101132015094812N000000000010U84       000300400K 10000000010000001396           
CUS0845640000108364477003         HOPKINS, ANNETTE B. 707 DOVER ST                            000N        CARE OF             
MTR08456400001000000000000000RA              50789010    005801890000018900000520000003NN  NNW 000                       N    
RDG08456400WATRL000000004K00000000000000450008001132015094742N000000000000U84       000160400K 10000000010000000447           
CUS0845640000108369164002         WILDER, PAUL T.     705 DOVER ST                            000N        CARE OF             
MTR08456400001000000000000000RA              29403441    005801900000019000000520000003NN  NNW 000                       N    
RDG08456400WATRL000000004K00000000000002504007901132015094726N000000000010U84       000650400K 10000000010000002503           
CUS0845640000108378741006         SHORES JR., RICHARD 732 MCHENRY ST                          000N        CARE OF             
MTR08456400001000000000000000RA              32904745    005801910000019100000520000003NN  NNW 000                       N    
RDG08456400WATRL000000004K00000000000001827006601122015133721N000000000000N84       000580400K 10000000010000001819           
CUS0845640000108378742004         JONES, ABBY LYNN    734 MCHENRY ST                          000N        CARE OF             
MTR08456400001000000000000000RA              32904426    005801920000019200000520000003NN  NNW 000                       N    
RDG08456400WATRL000000004K00000000000002785006701122015133728N000000000000N84       000070400K 10000000010000002772           
CUS0845640000108378743002         KURTZ, PATRICK W    736 MCHENRY ST                          000N        CARE OF             
MTR08456400001000000000000000RA              32904269    005801930000019300000520000003NN  NNW 000                       N    
RDG08456400WATRL000000004K00000000000001629006801122015133740N000000000000N84       000120400K 10000000010000001605           
CUS0845640000108414311004         WOLFF, GREGG        738 MCHENRY ST                          000N        CARE OF             
MTR08456400001000000000000000RA              48595718    005801940000019400000520000000NN  NNW 000                       N    
RDG08456400WATRL000000004K00000000000000379006901122015133745N000000000000N84       000050400K 10000000010000000379           
CUS0845640000108378751005         TANNOUS, GEORGE     740-42 MCHENRY ST                       000N        CARE OF             
MTR08456400001000000000000000RA              32904742    005801950000019500000520000003NN  NNW 000                       N    
RDG08456400WATRL000000004K00000000000003323007001122015133801N000000000000N84       000160400K 10000000010000003294           
CUS0845640000108247971008         MACALEER, MICHAEL R.744 MCHENRY ST                          000N        CARE OF             
MTR08456400001000000000000000RA              30249143    007501960000019600000520000003NN  NNW 000                       N    
RDG08456400WATRL000000004K00000000000002206007101122015133811N000300000010N84       000100400K 10000000010000002197           
CUS0845640000108369105005         RONALD BARNES       746 MCHENRY ST                          000N        CARE OF             
MTR08456400001000000000000000RA              26009076    005801970000019700000520000003NN  NNW 000                       N    
RDG08456400WATRL000000004K00000000000004140007201122015133824N000000000000N84       000130400K 10000000010000004129           
CUS0845640000108363318000         REMINGTON, ROBERT J.748 MCHENRY ST                          000N        CARE OF             
MTR08456400001000000000000000RA              14920152    005801980000019800000310000003NN  NNW 000                       N    
RDG08456400WATRL000000004K00000000000000502007301122015133832N000000000000N84       000080400K 10000000010000000486           
CUS0845640000108378752003         MACKERELL JR, ALEXAN750-52 MCHENRY ST                       000N        CARE OF             
MTR08456400001000000000000000RA              75613901    005801990000019900000350000003NN  NNW 000                       N    
RDG08456400WATRL000000004K00000000000000073007401122015133851N000000000000N84       000190400K 10000000010000000062           
CUS0845640000108363338008         SHUE, BRANDON L.    754 MCHENRY ST                          000N        CARE OF             
MTR08456400001000000000000000RA              46885094    005802000000020000000520000000NN  NNW 000                       N    
RDG08456400WATRL000000004K00000000000001114007501122015133906N000400000010N84       000150400K 10000000010000001111           
CUS0845640000108363015002         BRESLIN, JAMES CAMPB756 MCHENRY ST                          000N        CARE OF             
MTR08456400001000000000000000RA              46885095    005802010000020100000520000000NN  NNW 000                       N    
RDG08456400WATRL000000004K00000000000001152007601122015133914N000000000000N84       000080400K 10000000010000001145           
CUS0845640000108363103006         WATTERS, SERENA     758 MCHENRY ST                          000N        CARE OF             
MTR08456400001000000000000000RA              44090356    005802020000020200000520000000NN  NNW 000                       N    
RDG08456400WATRL000000004K00000000000001647007701122015133930N000000000000N84       000160400K 10000000010000001638           
CUS0845640000108378746005         SACHS, HEATHER M.   760 MCHENRY ST                          000N        CARE OF             
MTR08456400001000000000000000RA              44089847    005802030000020300000520000003NN  NNW 000                       N    
RDG08456400WATRL000000004K00000000000000000007801122015133938N000000000000N84       000080400K 10000000010000000000           
CUS0845640000108369111003         BLOUNT, WILLIAM A   202 OTTERBEIN ST                        000N        CARE OF             
MTR08456400001000000000000000RA              99292262    005802040000020400000570000003NN  NNW 000                       N    
RDG08456400WATRL000000004K00000000000000562003301132015091945N000000000000U84       000660400K 10000000010000000555           
CUS0845640000108381632002         BARNES, RUSSELLL M  208 OTTERBEIN ST                        000N        CARE OF             
MTR08456400001000000000000000RA              33082908    005802050000020500000520000003NN  NNW 000                       N    
RDG08456400WATRL000000004K00000000000002562003401132015092031N000000000000U84       000460400K 10000000010000002542           
CUS0845640000108374824004         SEDLACEK, SUMMER R  228 OTTERBEIN ST                        000N        CARE OF             
MTR08456400001000000000000000RA              00135070    005802060000020600000570000003NN  NNW 000                       N    
RDG08456400WATRL000000004K00000000000000064007901122015134006N000000000000N84       000280400K 10000000010000000064           
CUS0845640000108378750007         MOHEYER, JOHN       762-64 MCHENRY ST                       000N        CARE OF             
MTR08456400001000000000000000RA              32904749    005802070000020700000520000003NN  NNW 000                       N    
RDG08456400WATRL000000004K00000000000003862008001122015134127N000000000000N84       000810400K 10000000010000003844           
CUS0845640000108378747003         MARVIN L ELLIOTT    766 MCHENRY ST                          000N        CARE OF             
MTR08456400001000000000000000RA              45385279    005802080000020800000520000003NN  NNW 000                       N    
RDG08456400WATRL000000004K00000000000001524008101122015134136N000000000000N84       000090400K 10000000010000001515           
CUS0845640000108247973004         CHEATHAM JR, CLIFTON768 MCHENRY ST                          000N        CARE OF             
MTR08456400001000000000000000RA              29084220    005802090000020900000520000003NN  NNW 000                       N    
RDG08456400WATRL000000004K00000000000002330008201122015134202N000000000000N84       000260400K 10000000010000002310           
CUS0845640000108247974002         SMITH-MAY, BONNIE J.770 MCHENRY ST                          000N        CARE OF             
MTR08456400001000000000000000RA              28404277    005802100000021000000520000003NN  NNW 000                       N    
RDG08456400WATRL000000004K00000000000003213008301122015134213N000000000000N84       000110400K 10000000010000003192           
CUS0845640000108247975009         MARKER, WILLIAM B   774 MCHENRY ST                          000N        CARE OF             
MTR08456400001000000000000000RA              01096071    005802110000021100000610000003NN  NNW 000                       N    
RDG08456400WATRL000000004K00000000000000487008401122015134234N000000000000N84       000210400K 10000000010000000478           
CUS0845640000108362947007         TOMHAVE, JEFFREY    776 MCHENRY ST                          000N        CARE OF             
MTR08456400001000000000000000RA              32904687    005802120000021200000520000003NN  NNW 000                       N    
RDG08456400WATRL000000004K00000000000002093008501122015134256N000000000000N84       000220400K 10000000010000002081           
CUS0845640000108378748001         BROTZMAN, HANNAH M  778 MCHENRY ST                          000N        CARE OF             
MTR08456400001000000000000000RA              32903974    005802130000021300000520000003NN  NNW 000                       N    
RDG08456400WATRL000000004K00000000000002190008601122015134258N000000000000N84       000020400K 10000000010000002183           
CUS0845640000108378749009         RUSSELL, SHAUNA D   780 MCHENRY ST                          000N        CARE OF             
MTR08456400001000000000000000RA              48588489    005802140000021400000520000003NN  NNW 000                       N    
RDG08456400WATRL000000004K00000000000002793008701122015134316N000000000000N84       000180400K 10000000010000002775           
CUS0845640000108246977006         BONITA MANAGEMENT, L851 WASHINGTON BLVD                     000N        CARE OF             
MTR08456400001000000000000000RA              14929168    005802150000021500000310000003NN  NNW 000                       N    
RDG08456400WATRL000000004K00000000000000672010001132015101343N000000000000U84       001120400K 10000000010000000655           
CUS0845640000108247721007         BALTIC GOLD LLC     765 WASHINGTON BLVD                     000N        CARE OF             
MTR08456400001000000000000000RA              75427333    007502160000021600000350000003NN  NNW 000                       N    
RDG08456400WATRL000000004K00000000000000052001301122015131216N000000000000N84       000180400K 10000000010000000038           
CUS0845640000108247723003         BALTIC GOLD LLC     761 WASHINGTON BLVD                     000N        CARE OF             
MTR08456400001000000000000000RA              10020109    005802170000021700000570000003NN  NNW 000                       N    
RDG08456400WATRL000000004K00000000000000045001201122015131158N000000000000N84       000680400K 10000000010000000041           
RTR08456400NN02170217000002170000000002170217000123NY021702170217000000010000000000000000000002    12242014NY020000 N         
RHD08488000NN02960296000002960000000002960296000206NY029602960296000400000000000000000000000002    12292014NY020000 N         
CUS0848800000108254147005         LEWIS, VIVIAN N     775 S WOODINGTON RD                     000N        CARE OF             
MTR08488000001000000000000000RA              00134933    005800010000000100000570000000NN  NNW 000                       N    
RDG08488000WATRL000000004K00000000000000821000101132015081449N000000000000N89       000000400K 10000000010000000803           
CUS0848800000108254148003         PALLIKAL, JOSEPH    773 S WOODINGTON RD                     000N        CARE OF             
MTR08488000001000000000000000RA              00135235    005800020000000200000570000000NN  NNW 000                       N    
RDG08488000WATRL000000004K00000000000000871000201132015081451N000000000000N89       000020400K 10000000010000000846           
CUS0848800000108254149001         JETER, BARBARA F    771 S WOODINGTON RD                     000N        CARE OF             
MTR08488000001000000000000000RA              00132623    005800030000000300000570000003NN  NNW 000                       N    
RDG08488000WATRL000000004K00000000000000579000301132015081603N000400000010N89       000720400K 10000000010000000578           
CUS0848800000108254150009         CHARLES E FOSBRINK  769 S WOODINGTON RD                     000N        CARE OF             
MTR08488000001000000000000000RA              00132625    005800040000000400000570000003NN  NNW 000                       N    
RDG08488000WATRL000000004K00000000000000564000401132015081607N000000000000N89       000040400K 10000000010000000564           
CUS0848800000108254151007         CROWE, PAMELA MICHEL767 S WOODINGTON RD                     000N        CARE OF             
MTR08488000001000000000000000RA              33077641    005800050000000500000520000000NN  NNW 000                       N    
RDG08488000WATRL000000004K00000000000002588000501132015081710N000000000000N89       000630400K 10000000010000002580           
CUS0848800000108254152005         ARTHUR MONTGOMERY JR765 S WOODINGTON RD                     000N        CARE OF             
MTR08488000001000000000000000RA              50787760    005800060000000600000520000000NN  NNW 000                       N    
RDG08488000WATRL000000004K00000000000000825000601132015081713N000000000000N89       000030400K 10000000010000000814           
CUS0848800000108254153003         MASENBURG, MAJOR L  763 S WOODINGTON RD                     000N        CARE OF             
MTR08488000001000000000000000RA              36695614    005800070000000700000520000003NN  NNW 000                       N    
RDG08488000WATRL000000004K00000000000001065000701132015081858N000000000000N89       001050400K 10000000010000001047           
CUS0848800000108254154001         STEWART, LINDA S    761 S WOODINGTON RD                     000N        CARE OF             
MTR08488000001000000000000000RA              27132924    005800080000000800000520000003NN  NNW 000                       N    
RDG08488000WATRL000000004K00000000000003049000801132015081947N000000000000N89       000490400K 10000000010000003036           
CUS0848800000108254155008         WASHINGTON JR., ALBE759 S WOODINGTON RD                     000N        CARE OF             
MTR08488000001000000000000000RA              01085954    005800090000000900000610000003NN  NNW 000                       N    
RDG08488000WATRL000000004K00000000000001333000901132015081949N000000000000N89       000020400K 10000000010000001309           
CUS0848800000108254156006         DAVIS, LEROY        757 S WOODINGTON RD                     000N        CARE OF             
MTR08488000001000000000000000RA              24769270    005800100000001000000520000003NN  NNW 000                       N    
RDG08488000WATRL000000004K00000000000002416001001132015082046N000000000000N89       000570400K 10000000010000002410           
CUS0848800000108254157004         KENION, WINICA D    755 S WOODINGTON RD                     000N        CARE OF             
MTR08488000001000000000000000RA              54349396    005800110000001100000520000003NN  NNW 000                       N    
RDG08488000WATRL000000004K00000000000001004001101132015082048N000000000000N89       000020400K 10000000010000000996           
CUS0848800000108254158002         HALEY, DORIS A      753 S WOODINGTON RD                     000N        CARE OF             
MTR08488000001000000000000000RA              33077638    005800120000001200000520000000NN  NNW 000                       N    
RDG08488000WATRL000000004K00000000000001895001201132015082135N000100000010N89       000470400K 10000000010000001895           
CUS0848800000108254159000         HAWKINS JR, RAYMOND 751 S WOODINGTON RD                     000N        CARE OF             
MTR08488000001000000000000000RA              14916726    005800130000001300000310000003NN  NNW 000                       N    
RDG08488000WATRL000000004K00000000000000457001301132015082209N000000000000N89       000340400K 10000000010000000435           
CUS0848800000108254160008         LUCAS, ORGLATHER CAN749 S WOODINGTON RD                     000N        CARE OF             
MTR08488000001000000000000000RA              14907969    005800140000001400000310000003NN  NNW 000                       N    
RDG08488000WATRL000000004K00000000000000497001401132015082213N000000000000N89       000040400K 10000000010000000494           
CUS0848800000108254161006         INTELLIBIZSOLUTIONS,747 S WOODINGTON RD                     000N        CARE OF             
MTR08488000001000000000000000RA              44003791    005800150000001500000520000003NN  NNW 000                       N    
RDG08488000WATRL000000004K00000000000002014001501132015082234N000000000000N89       000210400K 10000000010000001994           
CUS0848800000108254162004         ROBINSON, ALJUANA R 745 S WOODINGTON RD                     000N        CARE OF             
MTR08488000001000000000000000RA              41086311    005800160000001600000520000003NN  NNW 000                       N    
RDG08488000WATRL000000004K00000000000002497001601132015082241N000400000010N89       000070400K 10000000010000002489           
CUS0848800000108254163002         FLOWERS, KEVIN J    743 S WOODINGTON RD                     000N        CARE OF             
MTR08488000001000000000000000RA              9688420     005800170000001700000570000003NN  NNW 000                       N    
RDG08488000WATRL000000004K00000000000001881001701132015082307N000000000000N89       000260400K 10000000010000001873           
CUS0848800000108254164000         CYNTHIA WYNN        741 S WOODINGTON RD                     000N        CARE OF             
MTR08488000001000000000000000RA              26004736    005800180000001800000520000003NN  NNW 000                       N    
RDG08488000WATRL000000004K00000000000002210001801132015082310N000000000000N89       000030400K 10000000010000002196           
CUS0848800000108254165007         KEYES, OPHELIA E    739 S WOODINGTON RD                     000N        CARE OF             
MTR08488000001000000000000000RA              00132624    005800190000001900000570000003NY  NNW 000                       N    
MTM0848800000132624    CLOUDY DIAL                                                                                            
RDG08488000WATRL000000004K00000000000000000000000000000000000 000000000000U         000000400  10000000010000001005           
CUS0848800000108254166005         CLIFTON, DENISE     737 S WOODINGTON RD                     000N        CARE OF             
MTR08488000001000000000000000RA              29683872    005800200000002000000520000003NN  NNW 000                       N    
RDG08488000WATRL000000004K00000000000001661001901132015082422N000000000000N89       000720400K 10000000010000001651           
CUS0848800000108254167003         CROCKER, JEROME A.  735 S WOODINGTON RD                     000N        CARE OF             
MTR08488000001000000000000000RA              39289175    005800210000002100000520000003NN  NNW 000                       N    
RDG08488000WATRL000000004K00000000000001555002001132015082508N000300000010N89       000460400K 10000000010000001533           
CUS0848800000108254168001         POWELL, CHERENA     733 S WOODINGTON RD                     000N        CARE OF             
MTR08488000001000000000000000RA              39289148    005800220000002200000520000003NN  NNW 000                       N    
RDG08488000WATRL000000004K00000000000002274002101132015082511N000000000000N89       000030400K 10000000010000002265           
CUS0848800000108254169009         BROWN, LORRAINE M   731 S WOODINGTON RD                     000N        CARE OF             
MTR08488000001000000000000000RA              39584199    005800230000002300000520000003NN  NNW 000                       N    
RDG08488000WATRL000000004K00000000000001210002201132015082553N000000000000N89       000420400K 10000000010000001203           
CUS0848800000108254170007         WALKER, JOHN H (TR) 729 S WOODINGTON RD                     000N        CARE OF             
MTR08488000001000000000000000RA              74687777    005800240000002400000350000003NN  NNW 000                       N    
RDG08488000WATRL000000004K00000000000000266002301132015082609N000000000000N89       000160400K 10000000010000000228           
CUS0848800000108254171005         SMITH, SHIRLEY      727 S WOODINGTON RD                     000N        CARE OF             
MTR08488000001000000000000000RA              32771912    005800250000002500000520000003NN  NNW 000                       N    
RDG08488000WATRL000000004K00000000000002051002401132015082635N000000000000N89       000260400K 10000000010000002044           
CUS0848800000108254172003         HARDEN, SORAYA A    725 S WOODINGTON RD                     000N        CARE OF             
MTR08488000001000000000000000RA              32771909    005800260000002600000520000003NN  NNW 000                       N    
RDG08488000WATRL000000004K00000000000001951002501132015082645N000000000000N89       000100400K 10000000010000001941           
CUS0848800000108254173001         SCOTT, MORINA L.    723 S WOODINGTON RD                     000N        CARE OF             
MTR08488000001000000000000000RA              35099323    005800270000002700000520000003NN  NNW 000   VACANT PROPERTY     N    
RDG08488000WATRL000000004K00000000000002072002601132015082711N000000000000N89       000260400K 10000000010000002072           
CUS0848800000108254174009         BAILEY REAL ESTATE I721 S WOODINGTON RD                     000N        CARE OF             
MTR08488000001000000000000000RA              35099331    005800280000002800000520000003NN  NNW 000                       N    
RDG08488000WATRL000000004K00000000000001610002701132015082714N000000000000N89       000030400K 10000000010000001610           
CUS0848800000108254175006         SMITH, LAWAN P.     719 S WOODINGTON RD                     000N        CARE OF             
MTR08488000001000000000000000RA              99293585    005800290000002900000570000003NN  NNW 000                       N    
RDG08488000WATRL000000004K00000000000000702002801132015082736N000000000000N89       000220400K 10000000010000000691           
CUS0848800000108254176004         NOLLEY, JANICE      717 S WOODINGTON RD                     000N        CARE OF             
MTR08488000001000000000000000RA              01086189    005800300000003000000610000003NN  NNW 000                       N    
RDG08488000WATRL000000004K00000000000000445002901132015082738N000000000000N89       000020400K 10000000010000000434           
CUS0848800000108254177002         HUDSON, CRYSTAL L   715 S WOODINGTON RD                     000N        CARE OF             
MTR08488000001000000000000000RA              35106660    005800310000003100000520000003NN  NNW 000                       N    
RDG08488000WATRL000000004K00000000000002798003001132015082807N000000000000N89       000290400K 10000000010000002784           
CUS0848800000108254178000         WILLIAMS, RONDA     713 S WOODINGTON RD                     000N        CARE OF             
MTR08488000001000000000000000RA              35106657    005800320000003200000520000003NN  NNW 000                       N    
RDG08488000WATRL000000004K00000000000001398003101132015082811N000000000010N89       000040400K 10000000010000001396           
CUS0848800000108254179008         HARRIS, GLORIA E    711 S WOODINGTON RD                     000N        CARE OF             
MTR08488000001000000000000000RA              32771911    005800330000003300000520000003NN  NNW 000                       N    
RDG08488000WATRL000000004K00000000000001662003201132015082844N000000000000N89       000330400K 10000000010000001651           
CUS0848800000108254180006         CMB INVESTMENTS, INC709 S WOODINGTON RD                     000N        CARE OF             
MTR08488000001000000000000000RA              41075342    005800340000003400000520000003NN  NNW 000                       N    
RDG08488000WATRL000000004K00000000000000923003301132015082905N000000000010N89       000210400K 10000000010000000921           
CUS0848800000108254181004         HARVIN, LILLIE M    707 S WOODINGTON RD                     000N        CARE OF             
MTR08488000001000000000000000RA              35109083    005800350000003500000520000003NN  NNW 000                       N    
RDG08488000WATRL000000004K00000000000001040003401132015082941N000000000000N89       000360400K 10000000010000001035           
CUS0848800000108254182002         MILLS, SHIRLEY      705 S WOODINGTON RD                     000N        CARE OF             
MTR08488000001000000000000000RA              00125901    005800360000003600000570000003NN  NNW 000                       N    
RDG08488000WATRL000000004K00000000000000968003501132015082943N000000000000N89       000020400K 10000000010000000954           
CUS0848800000108254183000         HUGHES, WAYNE S     703 S WOODINGTON RD                     000N        CARE OF             
MTR08488000001000000000000000RA              99293588    005800370000003700000570000003NN  NNW 000                       N    
RDG08488000WATRL000000004K00000000000000246003601132015083026N000000000000N89       000430400K 10000000010000000241           
CUS0848800000108254184008         EDWARD J MOONEY     701 S WOODINGTON RD                     000N        CARE OF             
MTR08488000001000000000000000RA              39584202    005800380000003800000520000003NN  NNW 000                       N    
RDG08488000WATRL000000004K00000000000002856003701132015083028N000000000000N89       000020400K 10000000010000002839           
CUS0848800000108254185005         JOHNSON, RHONDA L.  4307 CEDAR GARDEN RD                    000N        CARE OF             
MTR08488000001000000000000000RA              25782335    005800390000003900000520000003NN  NNW 000                       N    
RDG08488000WATRL000000004K00000000000001467003801132015083147N000000000000N89       000790400K 10000000010000001462           
CUS0848800000108254186003         RAYMOND J HOHREIN   4305 CEDAR GARDEN RD                    000N        CARE OF             
MTR08488000001000000000000000RA              40781675    005800400000004000000520000003NN  NNW 000                       N    
RDG08488000WATRL000000004K00000000000003623003901132015083150N000000000000N89       000030400K 10000000010000003605           
CUS0848800000108254187001         MACK, MARY F        4303 CEDAR GARDEN RD                    000N        CARE OF             
MTR08488000001000000000000000RA              44178301    005800410000004100000520000003NN  NNW 000                       N    
RDG08488000WATRL000000004K00000000000001038004001132015083221N000000000000N89       000310400K 10000000010000001030           
CUS0848800000108254188009         BELL, SCHELLY B     4301 CEDAR GARDEN RD                    000N        CARE OF             
MTR08488000001000000000000000RA              23841652    005800420000004200000520000003NN  NNW 000                       N    
RDG08488000WATRL000000004K00000000000005146004101132015083238N000000000000N89       000170400K 10000000010000005146           
CUS0848800000108254189007         FIRSTPOINT HOME, LLC700 YALE AVE                            000N        CARE OF             
MTR08488000001000000000000000RA              14908211    005800430000004300000310000003NN  NNW 000                       N    
RDG08488000WATRL000000004K00000000000000781004201132015083426N000000000000N89       001080400K 10000000010000000755           
CUS0848800000108254190005         CORNISH, ANGELA B.  702 YALE AVE                            000N        CARE OF             
