FHDNNNN017004516004516004516N                                                                                           013667
RHD02086100NN01690169000001690000000001690169000455NY016901690169000400020000000000000000000001    12182014NY020000 N         
CUS0208610000102297314003         HARRID, CALVIN N    4000 FAIRFAX RD                         000N        CARE OF             
MTR02086100001000000000000000RA              35112987    007500010000000100000520000003NN  NNW 000                       N    
RDG02086100WATRL000000004K00000000000003634009601172015131702N000300000010N26       000450400K 10000000010000003582           
CUS0208610000102297315000         ANDERSON, MICHELE W 4002 FAIRFAX RD                         000N        CARE OF             
MTR02086100001000000000000000RA              44087463    005800020000000200000520000003NN  NNW 000                       N    
RDG02086100WATRL000000004K00000000000004354009701172015131737N000000000000N26       000350400K 10000000010000004307           
CUS0208610000102297316008         BASIL G ISABELLE    4004 FAIRFAX RD                         000N        CARE OF             
MTR02086100001000000000000000RA              24772447    005800030000000300000520000003NN  NNW 000                       N    
RDG02086100WATRL000000004K00000000000002799009801172015131739N000000000000N26       000020400K 10000000010000002787           
CUS0208610000102297317006         4006 FAIRFAX ROAD, L4006 FAIRFAX RD                         000N        CARE OF             
MTR02086100001000000000000000RA              39585425    005800040000000400000520000003NN  NNW 000                       N    
RDG02086100WATRL000000004K00000000000002931009901172015131758N000000000000N26       000190400K 10000000010000002931           
CUS0208610000102297318004         FAISON, KADIJA R.   4008 FAIRFAX RD                         000N        CARE OF             
MTR02086100001000000000000000RA              39584099    005800050000000500000520000003NN  NNW 000                       N    
RDG02086100WATRL000000004K00000000000002046010001172015131800N000000000000N26       000020400K 10000000010000002030           
CUS0208610000102297319002         EVANGELINE ADAMS    4010 FAIRFAX RD                         000N        CARE OF             
MTR02086100001000000000000000RA              31583676    005800060000000600000520000003NN  NNW 000                       N    
RDG02086100WATRL000000004K00000000000001884010101172015131819N000300000010N26       000190400K 10000000010000001879           
CUS0208610000102297320000         FICKLING JR., THEODO4012 FAIRFAX RD                         000N        CARE OF             
MTR02086100001000000000000000RA              22606333    005800070000000700000520000003NN  NNW 000                       N    
RDG02086100WATRL000000004K00000000000002510010201172015131820N000000000000N26       000010400K 10000000010000002497           
CUS0208610000102297321008         GINA R JACKSON      4014 FAIRFAX RD                         000N        CARE OF             
MTR02086100001000000000000000RA              35098482    005800080000000800000520000003NN  NNW 000                       N    
RDG02086100WATRL000000004K00000000000002790010301172015131839N000000000010N26       000190400K 10000000010000002772           
CUS0208610000102297322006         DIETRICH, FRANK     4016 FAIRFAX RD                         000N        CARE OF             
MTR02086100001000000000000000RA              48593535    005800090000000900000520000003NN  NNW 000   VACANT PROPERTY     N    
RDG02086100WATRL000000004K00000000000001407002201202015112308N000000000000U26       012340400K 10000000010000001407           
CUS0208610000102297323004         KHALIL, ATIF        4018 FAIRFAX RD                         000N        CARE OF             
MTR02086100001000000000000000RA              33083481    005800100000001000000520000003NN  NNW 000                       N    
RDG02086100WATRL000000004K00000000000003873010401172015131908N000400000010N26       000290400K 10000000010000003870           
CUS0208610000102297324002         LEO, CAROLINE G.    4020 FAIRFAX RD                         000N        CARE OF             
MTR02086100001000000000000000RA              24772422    005800110000001100000520000003NN  NNW 000                       N    
RDG02086100WATRL000000004K00000000000002255010501172015131910N000000000000N26       000020400K 10000000010000002237           
CUS0208610000102297325009         HAMPTON, CAROLYN C  4022 FAIRFAX RD                         000N        CARE OF             
MTR02086100001000000000000000RA              41087614    005800120000001200000520000003NN  NNW 000                       N    
RDG02086100WATRL000000004K00000000000001923010601172015131926N000000000000N26       000160400K 10000000010000001905           
CUS0208610000102297326007         ROBINSON, CHARTUSE  4024 FAIRFAX RD                         000N        CARE OF             
MTR02086100001000000000000000RA              30519040    005800130000001300000520000003NN  NNW 000                       N    
RDG02086100WATRL000000004K00000000000002947010701172015131929N000000000000N26       000030400K 10000000010000002919           
CUS0208610000102297327005         KENDRA MAPLE RICE   4026 FAIRFAX RD                         000N        CARE OF             
MTR02086100001000000000000000RA              52286198    005800140000001400000520000003NN  NNW 000                       N    
RDG02086100WATRL000000004K00000000000002935010801172015131946N000000000000N26       000170400K 10000000010000002912           
CUS0208610000102297329001         SCOTT-HARRIS, CAROLY4030 FAIRFAX RD                         000N        CARE OF             
MTR02086100001000000000000000RA              44178157    005800150000001500000520000003NN  NNW 000                       N    
RDG02086100WATRL000000004K00000000000000659010901172015132044N000000000011N26       000060400K 10000000010000000642           
CUS0208610000102297330009         SHONAIYA PARTNERSHIP4032 FAIRFAX RD                         000N        CARE OF             
MTR02086100001000000000000000RA              30519043    005800160000001600000520000003NN  NNW 000                       N    
RDG02086100WATRL000000004K00000000000002586011001172015132038N000000000000N26       000490400K 10000000010000002573           
CUS0208610000102297331007         DEASE, SAMUEL       4034 FAIRFAX RD                         000N        CARE OF             
MTR02086100001000000000000000RA              99387749    005800170000001700000570000003NN  NNW 000                       N    
RDG02086100WATRL000000004K00000000000000784011101172015132107N000000000000N26       000230400K 10000000010000000776           
CUS0208610000102297332005         SAMUEL, FREDDIE     4036 FAIRFAX RD                         000N        CARE OF             
MTR02086100001000000000000000RA              99387746    005800180000001800000570000003NN  NNW 000                       N    
RDG02086100WATRL000000004K00000000000001282011201172015132109N000000000000N26       000020400K 10000000010000001263           
CUS0208610000102297333003         TYNES, TODD H.      4038 FAIRFAX RD                         000N        CARE OF             
MTR02086100001000000000000000RA              99387748    005800190000001900000570000003NN  NNW 000                       N    
RDG02086100WATRL000000004K00000000000001210011301172015132125N000000000000N26       000160400K 10000000010000001200           
CUS0208610000102297334001         JOHNSON, JEANNINE   4043 FAIRFAX RD                         000N        CARE OF             
MTR02086100001000000000000000RA              76348578    005800200000002000000350000003NN  NNW 000   VACANT PROPERTY     N    
RDG02086100WATRL000000004K00000000000000000002301202015112408N000000000000U26       000600400K 10000000010000000000           
CUS0208610000102297335008         ALLEN, MARK         4041 FAIRFAX RD                         000N        CARE OF             
MTR02086100001000000000000000RA              46886210    005800210000002100000520000003NN  NNW 000   VACANT PROPERTY     N    
RDG02086100WATRL000000004K00000000000001220002401202015112452N000000000000U26       000440400K 10000000010000001220           
CUS0208610000102297336006         AMIT MD, LLC        4039 FAIRFAX RD                         000N        CARE OF             
MTR02086100001000000000000000RA              99387750    005800220000002200000570000003NN  NNW 000                       N    
RDG02086100WATRL000000004K00000000000001308011401172015132158N000000000010N26       000330400K 10000000010000001271           
CUS0208610000102297337004         ALFRED P HARRISON & 4037 FAIRFAX RD                         000N        CARE OF             
MTR02086100001000000000000000RA              50789260    005800230000002300000520000003NN  NNW 000                       N    
RDG02086100WATRL000000004K00000000000001000011501172015132209N000000000000N26       000110400K 10000000010000000988           
CUS0208610000102297338002         RENOVATIONS BY DESIG4035 FAIRFAX RD                         000N        CARE OF             
MTR02086100001000000000000000RA              75614717    005800240000002400000350000003NN  NNW 000                       N    
RDG02086100WATRL000000004K00000000000000041011601172015132239N000000000000N26       000300400K 10000000010000000033           
CUS0208610000102297339000         JOHNSON, ROBERT L (L4033 FAIRFAX RD                         000N        CARE OF             
MTR02086100001000000000000000RA              39585038    005800250000002500000520000003NN  NNW 000                       N    
RDG02086100WATRL000000004K00000000000001851011701172015132246N000000000000N26       000070400K 10000000010000001836           
CUS0208610000102297340008         BUTLER, RHETTA      4031 FAIRFAX RD                         000N        CARE OF             
MTR02086100001000000000000000RA              39585591    005800260000002600000520000003NN  NNW 000                       N    
RDG02086100WATRL000000004K00000000000003042011801172015132316N000000000000N26       000300400K 10000000010000003004           
CUS0208610000102297341006         HOLTSCLAW, CHRISTINA4029 FAIRFAX RD                         000N        CARE OF             
MTR02086100001000000000000000RA              99293805    005800270000002700000570000003NN  NNW 000   VACANT PROPERTY     N    
RDG02086100WATRL000000004K00000000000001188011901172015132327N000000000010N26       000110400K 10000000010000001148           
CUS0208610000102297342004         CROWDER, ROBIN V.   4027 FAIRFAX RD                         000N        CARE OF             
MTR02086100001000000000000000RA              74689795    005800280000002800000350000003NN  NNW 000                       N    
RDG02086100WATRL000000004K00000000000000115012001172015132359N000000000000N26       000320400K 10000000010000000098           
CUS0208610000102297343002         EASLEY, MYRA        4025 FAIRFAX RD                         000N        CARE OF             
MTR02086100001000000000000000RA              39585429    005800290000002900000520000003NN  NNW 000                       N    
RDG02086100WATRL000000004K00000000000002931012101172015132400N000000000000N26       000010400K 10000000010000002905           
CUS0208610000102297344000         BOYKINS, SAMMIE L   4023 FAIRFAX RD                         000N        CARE OF             
MTR02086100001000000000000000RA              27817779    005800300000003000000520000000NN  NNW 000                       N    
RDG02086100WATRL000000004K00000000000005461012201172015132435N000000000000N26       000350400K 10000000010000005443           
CUS0208610000102297345007         SIMMONS, ROBERT M.  4021 FAIRFAX RD                         000N        CARE OF             
MTR02086100001000000000000000RA              32902604    005800310000003100000520000000NN  NNW 000                       N    
RDG02086100WATRL000000004K00000000000004018012301172015132436N000000000000N26       000010400K 10000000010000004005           
CUS0208610000102297346005         EARL PURNELL        4019 FAIRFAX RD                         000N        CARE OF             
MTR02086100001000000000000000RA              10024766    005800320000003200000570000000NN  NNW 000                       N    
RDG02086100WATRL000000004K00000000000000201012401172015132455N000000000000N26       000190400K 10000000010000000178           
CUS0208610000102297347003         GEORGE THOMAS DERAMU4017 FAIRFAX RD                         000N        CARE OF             
MTR02086100001000000000000000RA              35098486    005800330000003300000520000000NN  NNW 000                       N    
RDG02086100WATRL000000004K00000000000003315012501172015132457N000000000000N26       000020400K 10000000010000003301           
CUS0208610000102297348001         PETER K. MICHIE     4015 FAIRFAX RD                         000N        CARE OF             
MTR02086100001000000000000000RA              27817783    005800340000003400000520000000NN  NNW 000                       N    
RDG02086100WATRL000000004K00000000000002434008801172015131431N000000000000N26       097360400K 10000000010000002415           
CUS0208610000102297349009         WILLIAM H JONES & WF4013 FAIRFAX RD                         000N        CARE OF             
MTR02086100001000000000000000RA              44002393    005800350000003500000520000003NN  NNW 000                       N    
RDG02086100WATRL000000004K00000000000000759008901172015131438N000000000010N26       000070400K 10000000010000000702           
CUS0208610000102297350007         CHRISTINE HOLMAN    4011 FAIRFAX RD                         000N        CARE OF             
MTR02086100001000000000000000RA              33735641    005800360000003600000520000003NN  NNW 000                       N    
RDG02086100WATRL000000004K00000000000002529009001172015131503N000000000000N26       000250400K 10000000010000002520           
CUS0208610000102297351005         GODWIN, JANICE L    4009 FAIRFAX RD                         000N        CARE OF             
MTR02086100001000000000000000RA              35112041    005800370000003700000520000003NN  NNW 000                       N    
RDG02086100WATRL000000004K00000000000002651009101172015131505N000000000000N26       000020400K 10000000010000002629           
CUS0208610000102297352003         HENRY ALEXANDER     4007 FAIRFAX RD                         000N        CARE OF             
MTR02086100001000000000000000RA              39584103    005800380000003800000520000003NN  NNW 000                       N    
RDG02086100WATRL000000004K00000000000002889009201172015131526N000000000000N26       000210400K 10000000010000002867           
CUS0208610000102297353001         SMITH, RUBIA L      4005 FAIRFAX RD                         000N        CARE OF             
MTR02086100001000000000000000RA              35111035    005800390000003900000520000000NN  NNW 000                       N    
RDG02086100WATRL000000004K00000000000003280009301172015131528N000000000000N26       000020400K 10000000010000003272           
CUS0208610000102297354009         JONES, SHERRIAN     4003 FAIRFAX RD                         000N        CARE OF             
MTR02086100001000000000000000RA              24772446    005800400000004000000520000003NN  NNW 000                       N    
RDG02086100WATRL000000004K00000000000004112009401172015131542N000300000010N26       000140400K 10000000010000004081           
CUS0208610000102297355006         MCGOUGAN, SANDY     4001 FAIRFAX RD                         000N        CARE OF             
MTR02086100001000000000000000RA              27676517    007500410000004100000520000003NN  NNW 000                       N    
RDG02086100WATRL000000004K00000000000004569009501172015131617N000000000000N26       000350400K 10000000010000004551           
CUS0208610000102297356004         JOHN B FERRON & WF  4000 WOODHAVEN AVE                      000N        CARE OF             
MTR02086100001000000000000000RA              30518591    005800420000004200000520000003NN  NNW 000                       N    
RDG02086100WATRL000000004K00000000000002209006501172015101401N000000000000N26       000320400K 10000000010000002186           
CUS0208610000102297357002         BETTY DORSEY        4002 WOODHAVEN AVE                      000N        CARE OF             
MTR02086100001000000000000000RA              10005054    005800430000004300000570000003NN  NNW 000                       N    
RDG02086100WATRL000000004K00000000000000111006401172015101329N000000000000N26       000180400K 10000000010000000105           
CUS0208610000102297358000         ELIZABETH JACKSON   4004 WOODHAVEN AVE                      000N        CARE OF             
MTR02086100001000000000000000RA              40322262    005800440000004400000520000003NN  NNW 000                       N    
RDG02086100WATRL000000004K00000000000001486006301172015101311N000000000000N26       000020400K 10000000010000001480           
CUS0208610000102297359008         MATTIE SHAW         4006 WOODHAVEN AVE                      000N        CARE OF             
MTR02086100001000000000000000RA              99387751    005800450000004500000570000003NN  NNW 000                       N    
RDG02086100WATRL000000004K00000000000000813006201172015101309N000000000000N26       000240400K 10000000010000000802           
CUS0208610000102297360006         GREENE, TALFORD L   4008 WOODHAVEN AVE                      000N        CARE OF             
MTR02086100001000000000000000RA              40322264    005800460000004600000520000003NN  NNW 000                       N    
RDG02086100WATRL000000004K00000000000001229006101172015101245N000000000000N26       000020400K 10000000010000001220           
CUS0208610000102297361004         JESSIE MOORE        4010 WOODHAVEN AVE                      000N        CARE OF             
MTR02086100001000000000000000RA              39257119    007500470000004700000520000003NN  NNW 000                       N    
RDG02086100WATRL000000004K00000000000001616006001172015101243N000300000010N26       000250400K 10000000010000001610           
CUS0208610000102297362002         SUGGS, CLEO         4012 WOODHAVEN AVE                      000N        CARE OF             
MTR02086100001000000000000000RA              76349146    005800480000004800000350000003NN  NNW 000                       N    
RDG02086100WATRL000000004K00000000000000156005901172015101218N000000000000N26       000020400K 10000000010000000091           
CUS0208610000102297363000         WILSON, LOLITA GAYLO4014 WOODHAVEN AVE                      000N        CARE OF             
MTR02086100001000000000000000RA              35097221    005800490000004900000520000003NN  NNW 000                       N    
RDG02086100WATRL000000004K00000000000002496005801172015101216N000000000000N26       000500400K 10000000010000002481           
CUS0208610000102297364008         CASADO, WILSON M.   4016 WOODHAVEN AVE                      000N        CARE OF             
MTR02086100001000000000000000RA              14911320    005800500000005000000310000003NN  NNW 000                       N    
RDG02086100WATRL000000004K00000000000000978005701172015101126N000400000020N26       000030400K 10000000010000000977           
CUS0208610000102297365005         ZOLLICOFFER, TIARRA 4018 WOODHAVEN AVE                      000N        CARE OF             
MTR02086100001000000000000000RA              40322232    005800510000005100000520000003NN  NNW 000                       N    
RDG02086100WATRL000000004K00000000000001994005601172015101123N000400000010N26       000870400K 10000000010000001986           
CUS0208610000102297366003         SMITH, LUBERTHA     4020 WOODHAVEN AVE                      000N        CARE OF             
MTR02086100001000000000000000RA              01071650    005800520000005200000610000003NY  NNW 000                       N    
MTM0208610001071650    ICE                                                                                                    
RDG02086100WATRL000000004K00000000000001512003001202015142558N000000000010U26       090100400K 10000000010000001492           
CUS0208610000102297367001         COOPER, DAMAR       4022 WOODHAVEN AVE                      000N        CARE OF             
MTR02086100001000000000000000RA              74938683    007500530000005300000350000003NY  NNW 000                       N    
MTM0208610074938683    ICE                                                                                                    
RDG02086100WATRL000000004K00000000000000097003101202015142600N000000000010U26       000020400K 10000000010000000077           
CUS0208610000102297368009         THOMPSON, NAKEYSHA  4024 WOODHAVEN AVE                      000N        CARE OF             
MTR02086100001000000000000000RA              41258499    005800540000005400000520000003NN  NNW 000                       N    
RDG02086100WATRL000000004K00000000000002888005101172015100730N000000000000N26       000020400K 10000000010000002866           
CUS0208610000102297369007         TERRELL, DEBRA      4026 WOODHAVEN AVE                      000N        CARE OF             
MTR02086100001000000000000000RA              41258496    005800550000005500000520000003NN  NNW 000                       N    
RDG02086100WATRL000000004K00000000000001290005001172015100728N000000000000N26       000370400K 10000000010000001273           
CUS0208610000102297370005         ANGELOZZI AND MCCORM4028 WOODHAVEN AVE                      000N        CARE OF             
MTR02086100001000000000000000RA              25783031    005800560000005600000520000003NN  NNW 000                       N    
RDG02086100WATRL000000004K00000000000004201004601172015100622N000000000000N26       000480400K 10000000010000004186           
CUS0208610000102297371003         EDWARD J WELCH & WF 4030 WOODHAVEN AVE                      000N        CARE OF             
MTR02086100001000000000000000RA              99387752    005800570000005700000570000003NN  NNW 000                       N    
RDG02086100WATRL000000004K00000000000001146004701172015100624N000000000000N26       000020400K 10000000010000001138           
CUS0208610000102297372001         JAMES L MURPHY      4032 WOODHAVEN AVE                      000N        CARE OF             
MTR02086100001000000000000000RA              30001140    007500580000005800000320000003NN  NNW 000                       N    
RDG02086100WATRL000000004K00000000000000235004801172015100649N000000000000N26       000250400K 10000000010000000228           
CUS0208610000102297373009         MURPHY, JAMES LEE   4034 WOODHAVEN AVE                      000N        CARE OF             
MTR02086100001000000000000000RA              46890865    007500590000005900000520000003NN  NNW 000                       N    
RDG02086100WATRL000000004K00000000000001339004901172015100651N000000000000N26       000020400K 10000000010000001329           
CUS0208610000102297374007         LAWSON, JOSEPH CHRIS4100 FAIRFAX RD                         000N        CARE OF             
MTR02086100001000000000000000RA              00118793    007500600000006000000570000003NN  NNW 000                       N    
RDG02086100WATRL000000004K00000000000001558000101202015105023N000000000000U26       000000400K 10000000010000001521           
CUS0208610000102297375004         MARSHALL, CLEATTER  4102 FAIRFAX RD                         000N        CARE OF             
MTR02086100001000000000000000RA              74814997    007500610000006100000350000003NN  NNW 000                       N    
RDG02086100WATRL000000004K00000000000000257000201202015105036N000000000000U26       000130400K 10000000010000000235           
CUS0208610000102297376002         TRENA MORGAN        4104 FAIRFAX RD                         000N        CARE OF             
MTR02086100001000000000000000RA              33416516    007500620000006200000520000003NN  NNW 000                       N    
RDG02086100WATRL000000004K00000000000003045000301202015105125N000003200010U26       000490400K 10000000010000003045           
CUS0208610000102297377000         BOOKER, JOSEPHINE F 4106 FAIRFAX RD                         000N        CARE OF             
MTR02086100001000000000000000RA              39257091    007500630000006300000520000003NY  NNW 000                       N    
MTM0208610039257091    FOG                                                                                                    
RDG02086100WATRL000000004K00000000000005544000401202015105334N000000000011U26       000170400K 10000000010000005644           
CUS0208610000102297378008         CONNOR, HERMAN      4108 FAIRFAX RD                         000N        CARE OF             
MTR02086100001000000000000000RA              35113167    007500640000006400000520000000NY  NNW 000                       N    
MTM0208610035113167    BURRIED                                                                                                
RDG02086100WATRL000000004K00000000000000000000000000000000000 000000000000U         000000400  10000000010000002519           
CUS0208610000102297379006         MARSHALL SR., GARLAN4110 FAIRFAX RD                         000N        CARE OF             
MTR02086100001000000000000000RA              35113389    007500650000006500000520000003NN  NNW 000                       N    
RDG02086100WATRL000000004K00000000000003401000501202015105430N000000000000U26       000560400K 10000000010000003387           
CUS0208610000102297380004         SCOTT, JINIKA A.    4112 FAIRFAX RD                         000N        CARE OF             
MTR02086100001000000000000000RA              35113388    007500660000006600000520000003NN  NNW 000                       N    
RDG02086100WATRL000000004K00000000000001391000601202015105448N000000000000U26       000180400K 10000000010000001373           
CUS0208610000102297381002         BROWN, ERNAL        4114 FAIRFAX RD                         000N        CARE OF             
MTR02086100001000000000000000RA              35113348    007500670000006700000520000003NN  NNW 000                       N    
RDG02086100WATRL000000004K00000000000002482000701202015105510N000000000000U26       000220400K 10000000010000002466           
CUS0208610000102297382000         MARSHALL G TALLEY   4116 FAIRFAX RD                         000N        CARE OF             
MTR02086100001000000000000000RA              27893463    007500680000006800000520000003NN  NNW 000   VACANT PROPERTY     N    
RDG02086100WATRL000000004K00000000000006441002501202015113312N000000000000U26       005000400K 10000000010000006441           
CUS0208610000102297383008         BROCKINGTON, OLAYINK4118 FAIRFAX RD                         000N        CARE OF             
MTR02086100001000000000000000RA              39257140    007500690000006900000520000003NN  NNW 000                       N    
RDG02086100WATRL000000004K00000000000002863008101172015102945N000000000000N26       000360400K 10000000010000002856           
CUS0208610000102297384006         ADA B SMITH         4120 FAIRFAX RD                         000N        CARE OF             
MTR02086100001000000000000000RA              35113384    007500700000007000000520000003NN  NNW 000                       N    
RDG02086100WATRL000000004K00000000000002455008201172015102959N000000000000N26       000140400K 10000000010000002449           
CUS0208610000102297385003         STEWART, DANNY      4122 FAIRFAX RD                         000N        CARE OF             
MTR02086100001000000000000000RA              00120626    007500710000007100000570000003NN  NNW 000                       N    
RDG02086100WATRL000000004K00000000000000373008301172015132937N000000000001N26       002800400K 10000000010000000373           
CUS0208610000102297386001         HUGGINS, JERROD     4124 FAIRFAX RD                         000N        CARE OF             
MTR02086100001000000000000000RA              78028553    007500720000007200000350000003NY  NNW 000                       N    
MTM0208610078028553    AMI                                                                                                    
RDG02086100WATRL000000004K00000000000000000000801202015105522S001000000000U26       000120400K 10000000010000000000           
CUS0208610000102297387009         DAVIS SR, RAYMOND V 4126 FAIRFAX RD                         000N        CARE OF             
MTR02086100001000000000000000RA              31346429    007500730000007300000520000003NY  NNW 000                       N    
MTM0208610031346429    BURRIED                                                                                                
RDG02086100WATRL000000004K00000000000000000000000000000000000 000000000000U         000000400  10000000010000003620           
CUS0208610000102297388007         SMITH, MELVIN       4128 FAIRFAX RD                         000N        CARE OF             
MTR02086100001000000000000000RA              39257112    007500740000007400000520000003NN  NNW 000                       N    
RDG02086100WATRL000000004K00000000000003553008401172015103108N000000000000N26       000540400K 10000000010000003523           
CUS0208610000102297389005         BRUNATTI, EDWARD    4130 FAIRFAX RD                         000N        CARE OF             
MTR02086100001000000000000000RA              30526053    007500750000007500000520000003NN  NNW 000                       N    
RDG02086100WATRL000000004K00000000000003358008501172015133205N000000000001N26       001480400K 10000000010000003358           
CUS0208610000102297390003         WILLIAMSON, KELLY   4132 FAIRFAX RD                         000N        CARE OF             
MTR02086100001000000000000000RA              30519038    005800760000007600000520000003NY  NNW 000                       N    
MTM0208610030519038    ICE                                                                                                    
RDG02086100WATRL000000004K00000000000000000000000000000000000 000000000000U         000000400  10000000010000000381           
CUS0208610000102297391001         JOYNER, ALONZO      4134 FAIRFAX RD                         000N        CARE OF             
MTR02086100001000000000000000RA              32177065    005800770000007700000520000003NN  NNW 000                       N    
RDG02086100WATRL000000004K00000000000003405008601172015103158N000000000000N26       000480400K 10000000010000003382           
CUS0208610000102297392009         ELIZABETH EVANS     4136 FAIRFAX RD                         000N        CARE OF             
MTR02086100001000000000000000RA              39257113    007500780000007800000520000003NN  NNW 000                       N    
RDG02086100WATRL000000004K00000000000003046008701172015103215N000000000000N26       000170400K 10000000010000002999           
CUS0208610000102297393007         NOYA, MANUEL A.     4145 FAIRFAX RD                         000N        CARE OF             
MTR02086100001000000000000000RA              39257086    007500790000007900000520000003NN  NNW 000                       N    
RDG02086100WATRL000000004K00000000000003293007101172015102458N000000000000N26       004870400K 10000000010000003264           
CUS0208610000102297394005         HOMEFREE-USA        4143 FAIRFAX RD                         000N        CARE OF             
MTR02086100001000000000000000RA              35100489    007500800000008000000520000003NN  NNW 000   VACANT PROPERTY     N    
RDG02086100WATRL000000004K00000000000002550000901202015105643N000000000000U26       000810400K 10000000010000002550           
CUS0208610000102297395002         ZUMO, LAWRENCE A.   4141 FAIRFAX RD                         000N        CARE OF             
MTR02086100001000000000000000RA              24625218    007500810000008100000520000003NN  NNW 000                       N    
RDG02086100WATRL000000004K00000000000003780007201172015102523N000000000000N26       000250400K 10000000010000003772           
CUS0208610000102297396000         JACK NOVOGRAD AS TRU4139 FAIRFAX RD                         000N        CARE OF             
MTR02086100001000000000000000RA              37690058    007500820000008200000520000003NN  NNW 000   VACANT PROPERTY     N    
RDG02086100WATRL000000004K00000000000004605001001202015105650N000000000011U26       000030400K 10000000010000004605           
CUS0208610000102297397008         DOMINION RENTALS 5, 4137 FAIRFAX RD                         000N        CARE OF             
MTR02086100001000000000000000RA              99412036    007500830000008300000570000003NY  NNW 000                       N    
MTM0208610099412036    ICE                                                                                                    
RDG02086100WATRL000000004K00000000000001064001101202015105727N000000000010U26       000370400K 10000000010000001046           
CUS0208610000102297398006         GATEN, ALMA         4135 FAIRFAX RD                         000N        CARE OF             
MTR02086100001000000000000000RA              46890573    007500840000008400000520000003NY  NNW 000                       N    
MTM0208610046890573    ICE                                                                                                    
RDG02086100WATRL000000004K00000000000001175001201202015105729N000000000000U26       000020400K 10000000010000001164           
CUS0208610000102297399004         MCLEAN, DARLENE E.  4133 FAIRFAX RD                         000N        CARE OF             
MTR02086100001000000000000000RA              99308835    007500850000008500000570000003NY  NNW 000                       N    
MTM0208610099308835    ICE                                                                                                    
RDG02086100WATRL000000004K00000000000000679001301202015105827N000000000000U26       000580400K 10000000010000000673           
CUS0208610000102297400000         KEENE, ZAREIDA      4131 FAIRFAX RD                         000N        CARE OF             
MTR02086100001000000000000000RA              24625253    007500860000008600000520000003NY  NNW 000                       N    
MTM0208610024625253    ICE                                                                                                    
RDG02086100WATRL000000004K00000000000003496001401202015105910N000000000000U26       000430400K 10000000010000003486           
CUS0208610000102297401008         MARY L DARBY        4129 FAIRFAX RD                         000N        CARE OF             
MTR02086100001000000000000000RA              41089014    007500870000008700000520000003NN  NNW 000                       N    
RDG02086100WATRL000000004K00000000000001421007301172015102611N000000000000N26       000480400K 10000000010000001412           
CUS0208610000102297402006         GASKINS, BETTY C.   4127 FAIRFAX RD                         000N        CARE OF             
MTR02086100001000000000000000RA              99308833    007500880000008800000570000003NN  NNW 000                       N    
RDG02086100WATRL000000004K00000000000001371007401172015102630N000000000000N26       000190400K 10000000010000001333           
CUS0208610000102297403004         S.A.B. CONSTRUCTION 4125 FAIRFAX RD                         000N        CARE OF             
MTR02086100001000000000000000RA              41089664    007500890000008900000520000003NN  NNW 000                       N    
RDG02086100WATRL000000004K00000000000002046007501172015102641N000300000010N26       000110400K 10000000010000002027           
CUS0208610000102297404002         JORDAN, JANET C     4123 FAIRFAX RD                         000N        CARE OF             
MTR02086100001000000000000000RA              39257115    007500900000009000000520000003NN  NNW 000                       N    
RDG02086100WATRL000000004K00000000000002015007601172015102702N000000000000N26       000210400K 10000000010000002009           
CUS0208610000102297405009         STACKHOUSE, BRENDA J4121 FAIRFAX RD                         000N        CARE OF             
MTR02086100001000000000000000RA              01098188    007500910000009100000610000003NN  NNW 000                       N    
RDG02086100WATRL000000004K00000000000001035007701172015102736N000000000000N26       000340400K 10000000010000001008           
CUS0208610000102297406007         ST. JOHN JENNELL MIC4119 FAIRFAX RD                         000N        CARE OF             
MTR02086100001000000000000000RA              99308838    007500920000009200000570000003NN  NNW 000                       N    
RDG02086100WATRL000000004K00000000000001118007801172015102752N000300000010N26       000160400K 10000000010000001039           
CUS0208610000102297407005         SARAH PINKETT       4117 FAIRFAX RD                         000N        CARE OF             
MTR02086100001000000000000000RA              99308837    007500930000009300000570000000NN  NNW 000                       N    
RDG02086100WATRL000000004K00000000000001568007901172015102828N000000000000N26       000360400K 10000000010000001553           
CUS0208610000102297408003         ANTHONY J LEE & WF  4115 FAIRFAX RD                         000N        CARE OF             
MTR02086100001000000000000000RA              99308878    007500940000009400000570000003NN  NNW 000                       N    
RDG02086100WATRL000000004K00000000000000925008001172015102909N000000000000N26       000410400K 10000000010000000907           
CUS0208610000102297409001         DOMINION RENTALS, LL4113 FAIRFAX RD                         000N        CARE OF             
MTR02086100001000000000000000RA              99080512    007500950000009500000570000003NN  NNW 000                       N    
RDG02086100WATRL000000004K00000000000001073001501202015110055N000000000011U26       000220400K 10000000010000001058           
CUS0208610000102297410009         DELLY, WILLIAM A.   4111 FAIRFAX RD                         000N        CARE OF             
MTR02086100001000000000000000RA              99308876    007500960000009600000570000003NN  NNW 000                       N    
RDG02086100WATRL000000004K00000000000001110001601202015110033N000000000000U26       000030400K 10000000010000001090           
CUS0208610000102297411007         BARR, JOSEPHINE     4109 FAIRFAX RD                         000N        CARE OF             
MTR02086100001000000000000000RA              99308854    007500970000009700000570000003NN  NNW 000                       N    
RDG02086100WATRL000000004K00000000000001691001701202015110112N000000000000U26       000170400K 10000000010000001667           
CUS0208610000102297412005         MARTINA D MADDEN    4107 FAIRFAX RD                         000N        CARE OF             
MTR02086100001000000000000000RA              10006374    005800980000009800000570000003NN  NNW 000                       N    
RDG02086100WATRL000000004K00000000000000188001801202015110128N000100000010U26       000160400K 10000000010000000188           
CUS0208610000102297413003         BUNCH, HEZEKIAH     4105 FAIRFAX RD                         000N        CARE OF             
MTR02086100001000000000000000RA              39257087    007500990000009900000520000003NN  NNW 000                       N    
RDG02086100WATRL000000004K00000000000002119001901202015110148N000000000000U26       000200400K 10000000010000002066           
CUS0208610000102297414001         EVA WILSON          4103 FAIRFAX RD                         000N        CARE OF             
MTR02086100001000000000000000RA              99308853    007501000000010000000570000003NN  NNW 000                       N    
RDG02086100WATRL000000004K00000000000003735002001202015110210N000000000000U26       000220400K 10000000010000003689           
CUS0208610000102297415008         KEVIN M JACKSON     4101 FAIRFAX RD                         000N        CARE OF             
MTR02086100001000000000000000RA              99411543    007501010000010100000570000003NN  NNW 000                       N    
RDG02086100WATRL000000004K00000000000002983002101202015110234N000000000000U26       000240400K 10000000010000002936           
CUS0208610000102297416006         SYLVIA SCOTT DUBOSE 4100 WOODHAVEN AVE                      000N        CARE OF             
MTR02086100001000000000000000RA              44087474    005801020000010200000520000003NN  NNW 000                       N    
RDG02086100WATRL000000004K00000000000002421003701172015100138N000300000010N26       000430400K 10000000010000002392           
CUS0208610000102297417004         COOPER, TIA D       4102 WOODHAVEN AVE                      000N        CARE OF             
MTR02086100001000000000000000RA              75616641    005801030000010300000350000003NN  NNW 000                       N    
RDG02086100WATRL000000004K00000000000000000002601202015113513N000000000000U26       001210400K 10000000010000000000           
CUS0208610000102297418002         TURNER, DOREEN T    4104 WOODHAVEN AVE                      000N        CARE OF             
MTR02086100001000000000000000RA              35114511    005801040000010400000520000003NY  NNW 000                       N    
MTM0208610035114511    ICE                                                                                                    
RDG02086100WATRL000000004K00000000000002961003201202015142705N000000000010U26       000650400K 10000000010000002946           
CUS0208610000102297419000         JOAN CROSBY         4106 WOODHAVEN AVE                      000N        CARE OF             
MTR02086100001000000000000000RA              35114467    005801050000010500000520000003NN  NNW 000                       N    
RDG02086100WATRL000000004K00000000000002850003601172015100055N000000000000N26       000410400K 10000000010000002835           
CUS0208610000102297420008         GRAVES, PARTHENIA   4108 WOODHAVEN AVE                      000N        CARE OF             
MTR02086100001000000000000000RA              35114462    005801060000010600000520000003NN  NNW 000                       N    
RDG02086100WATRL000000004K00000000000001845003501172015100014N000000000000N26       000460400K 10000000010000001787           
CUS0208610000102297421006         MCLARIN, MARIAN     4110 WOODHAVEN AVE                      000N        CARE OF             
MTR02086100001000000000000000RA              35114466    005801070000010700000520000003NN  NNW 000                       N    
RDG02086100WATRL000000004K00000000000001781003001172015095740N000000000000N26       000320400K 10000000010000001772           
CUS0208610000102297422004         MCQUEEN, WILLIAM B  4112 WOODHAVEN AVE                      000N        CARE OF             
MTR02086100001000000000000000RA              35114512    005801080000010800000520000003NN  NNW 000                       N    
RDG02086100WATRL000000004K00000000000003594003101172015095801N000000000011N26       000120400K 10000000010000003572           
CUS0208610000102297423002         CHURCH, JOSEPH BENJA4114 WOODHAVEN AVE                      000N        CARE OF             
MTR02086100001000000000000000RA              10005719    005801090000010900000570000003NN  NNW 000                       N    
RDG02086100WATRL000000004K00000000000000698003201172015095846N000000000000N26       000450400K 10000000010000000696           
CUS0208610000102297424000         I D TIMMONS         4116 WOODHAVEN AVE                      000N        CARE OF             
MTR02086100001000000000000000RA              35114514    005801100000011000000520000003NN  NNW 000                       N    
RDG02086100WATRL000000004K00000000000001653003301172015095910N000000000000N26       000240400K 10000000010000001641           
CUS0208610000102297425007         TRENT, SUNDRA       4118 WOODHAVEN AVE                      000N        CARE OF             
MTR02086100001000000000000000RA              24757612    005801110000011100000520000003NN  NNW 000                       N    
RDG02086100WATRL000000004K00000000000003754003401172015095928N000000000000N26       000180400K 10000000010000003734           
CUS0208610000102297426005         HARRIS, PHYLLIS E   4120 WOODHAVEN AVE                      000N        CARE OF             
MTR02086100001000000000000000RA              25783033    005801120000011200000520000003NN  NNW 000                       N    
RDG02086100WATRL000000004K00000000000003574002201172015095339N000300000010N26       000520400K 10000000010000003582           
CUS0208610000102297427003         10TH BALTIMORE ACQUI4122 WOODHAVEN AVE                      000N        CARE OF             
MTR02086100001000000000000000RA              40322231    005801130000011300000520000003NN  NNW 000                       N    
RDG02086100WATRL000000004K00000000000002086002101172015095247N000000000000N26       000750400K 10000000010000002060           
CUS0208610000102297428001         STOKES, ANTONIO M   4124 WOODHAVEN AVE                      000N        CARE OF             
MTR02086100001000000000000000RA              76346656    005801140000011400000350000003NY  NNW 000                       N    
MTM0208610076346656    ICE                                                                                                    
RDG02086100WATRL000000004K00000000000000039003301202015142814N000300000020U26       000690400K 10000000010000000008           
CUS0208610000102297429009         CHARLES E TYSON     4126 WOODHAVEN AVE                      000N        CARE OF             
MTR02086100001000000000000000RA              48593892    005801150000011500000520000003NY  NNW 000                       N    
MTM0208610048593892    FROZE                                                                                                  
RDG02086100WATRL000000004K00000000000000857003401202015142829N000000000010U26       000150400K 10000000010000000849           
CUS0208610000102297430007         JONES, DELORES (LIFE4128 WOODHAVEN AVE                      000N        CARE OF             
MTR02086100001000000000000000RA              99387585    005801160000011600000570000003NN  NNW 000                       N    
RDG02086100WATRL000000004K00000000000000795002001172015095132N000300000010N26       000440400K 10000000010000000755           
CUS0208610000102297431005         LEONARD J HABERSHAM 4130 WOODHAVEN AVE                      000N        CARE OF             
MTR02086100001000000000000000RA              41076205    005801170000011700000520000003NY  NNW 000                       N    
MTM0208610041076205    ICE                                                                                                    
RDG02086100WATRL000000004K00000000000002376003501202015142912N000100000020U26       000430400K 10000000010000002376           
CUS0208610000102297432003         ROGERS, SEAN L      4132 WOODHAVEN AVE                      000N        CARE OF             
MTR02086100001000000000000000RA              35104861    005801180000011800000520000003NN  NNW 000                       N    
RDG02086100WATRL000000004K00000000000001820001901172015095048N000000000000N26       000270400K 10000000010000001810           
CUS0208610000102297433001         SHAW III, LUKE FRANC4134 WOODHAVEN AVE                      000N        CARE OF             
MTR02086100001000000000000000RA              26013615    005801190000011900000520000003NN  NNW 000                       N    
RDG02086100WATRL000000004K00000000000004582001801172015095021N000000000000N26       000270400K 10000000010000004571           
CUS0208610000102297434009         CANN, JAMES E       4136 WOODHAVEN AVE                      000N        CARE OF             
MTR02086100001000000000000000RA              38984803    005801200000012000000520000003NN  NNW 000                       N    
RDG02086100WATRL000000004K00000000000004634001701172015094954N000000000000N26       000180400K 10000000010000004604           
CUS0208610000102297435006         ARRINGTON, LEROY    4138 WOODHAVEN AVE                      000N        CARE OF             
MTR02086100001000000000000000RA              99387592    005801210000012100000570000003NN  NNW 000                       N    
RDG02086100WATRL000000004K00000000000000891001601172015094936N000400000010N26       000310400K 10000000010000000890           
CUS0208610000102297436004         CALDWELL, CHASTITY  4140 WOODHAVEN AVE                      000N        CARE OF             
MTR02086100001000000000000000RA              40047916    005801220000012200000520000003NN  NNW 000                       N    
RDG02086100WATRL000000004K00000000000001334001501172015094905N000000000000N26       001160400K 10000000010000001321           
CUS0208610000102297437002         WEATHERFORD, PHILLIP4127 WOODHAVEN AVE                      000N        CARE OF             
MTR02086100001000000000000000RA              39257147    007501230000012300000520000003NN  NNW 000                       N    
RDG02086100WATRL000000004K00000000000000664002301172015133326N000000000001N26       000810400K 10000000010000000664           
CUS0208610000102297438000         MASON, BARON V      4125 WOODHAVEN AVE                      000N        CARE OF             
MTR02086100001000000000000000RA              39257150    007501240000012400000520000003NN  NNW 000   VACANT PROPERTY     N    
RDG02086100WATRL000000004K00000000000001305002701202015113649N000000000000U26       000960400K 10000000010000001305           
CUS0208610000102297439008         BOONE, LISA Y       4123 WOODHAVEN AVE                      000N        CARE OF             
MTR02086100001000000000000000RA              35100728    007501250000012500000520000003NY  NNW 000                       N    
MTM0208610035100728    FOG                                                                                                    
RDG02086100WATRL000000004K00000000000003221002401172015095529N000000000011N26       000160400K 10000000010000003204           
CUS0208610000102297440006         STEWART, WALEED I   4121 WOODHAVEN AVE                      000N        CARE OF             
MTR02086100001000000000000000RA              35100727    007501260000012600000520000003NN  NNW 000                       N    
RDG02086100WATRL000000004K00000000000002771002501172015095513N000400000010N26       000490400K 10000000010000002763           
CUS0208610000102297441004         LEE, RAYMOND        4119 WOODHAVEN AVE                      000N        CARE OF             
MTR02086100001000000000000000RA              31345630    007501270000012700000520000003NY  NNW 000                       N    
MTM0208610031345630    FOG                                                                                                    
RDG02086100WATRL000000004K00000000000004299002601172015095600N000000000020N26       000310400K 10000000010000004270           
CUS0208610000102297442002         MARTIN, TSHONA      4117 WOODHAVEN AVE                      000N        CARE OF             
MTR02086100001000000000000000RA              19462839    007501280000012800000520000003NN  NNW 000   VACANT PROPERTY     N    
RDG02086100WATRL000000004K00000000000009400002801202015113834N000000000000U26       001050400K 10000000010000009400           
CUS0208610000102297443000         PEARTREE, HATTIE    4115 WOODHAVEN AVE                      000N        CARE OF             
MTR02086100001000000000000000RA              26074417    007501290000012900000520000003NN  NNW 000                       N    
RDG02086100WATRL000000004K00000000000003181002701172015095640N000000000000N26       000400400K 10000000010000003169           
CUS0208610000102297444008         VINES, CHRISTINA M. 4113 WOODHAVEN AVE                      000N        CARE OF             
MTR02086100001000000000000000RA              27333471    007501300000013000000520000003NN  NNW 000                       N    
RDG02086100WATRL000000004K00000000000003527002801172015095706N000000000000N26       000260400K 10000000010000003499           
CUS0208610000102297445005         PHILLIPS, EMORY L.  4111 WOODHAVEN AVE                      000N        CARE OF             
MTR02086100001000000000000000RA              74938960    007501310000013100000350000003NN  NNW 000                       N    
RDG02086100WATRL000000004K00000000000000170002901172015095708N000000000000N26       000020400K 10000000010000000151           
CUS0208610000102297446003         BOOTH SR., RAHIM R. 4109 WOODHAVEN AVE                      000N        CARE OF             
MTR02086100001000000000000000RA              30518088    005801320000013200000520000003NN  NNW 000                       N    
RDG02086100WATRL000000004K00000000000004266003901172015100246N000000000000N26       000280400K 10000000010000004219           
CUS0208610000102297447001         POLLOCK, SHERI V.   4107 WOODHAVEN AVE                      000N        CARE OF             
MTR02086100001000000000000000RA              30000605    007501330000013300000570000003NN  NNW 000                       N    
RDG02086100WATRL000000004K00000000000000488003801172015100218N000000000000N26       000400400K 10000000010000000469           
CUS0208610000102297448009         WILLIAM S DICKERSON 4105 WOODHAVEN AVE                      000N        CARE OF             
MTR02086100001000000000000000RA              74691722    005801340000013400000350000003NN  NNW 000                       N    
RDG02086100WATRL000000004K00000000000000054004001172015100317N000000000000N26       000310400K 10000000010000000051           
CUS0208610000102297449007         DORTHY  GOUSALVES   4103 WOODHAVEN AVE                      000N        CARE OF             
MTR02086100001000000000000000RA              10015106    005801350000013500000570000003NN  NNW 000                       N    
RDG02086100WATRL000000004K00000000000000173004101172015100319N000000000000N26       000020400K 10000000010000000156           
CUS0208610000102297450005         RUBY L PHILLIPS     4101 WOODHAVEN AVE                      000N        CARE OF             
MTR02086100001000000000000000RA              31086464    007501360000013600000520000003NN  NNW 000                       N    
RDG02086100WATRL000000004K00000000000003463004201172015100418N000300000030N26       000590400K 10000000010000003385           
CUS0208610000102297451003         WILLIAMSON, KELLY J 4035 WOODHAVEN AVE                      000N        CARE OF             
MTR02086100001000000000000000RA              43904726    007501370000013700000520000003NN  NNW 000   VACANT PROPERTY     N    
RDG02086100WATRL000000004K00000000000002760013001172015133757N000000000000N26       000030400K 10000000010000002760           
CUS0208610000102297452001         FORD, RANDOLPH E    4033 WOODHAVEN AVE                      000N        CARE OF             
MTR02086100001000000000000000RA              75613974    005801380000013800000350000003NN  NNW 000                       N    
RDG02086100WATRL000000004K00000000000000000012901172015133754N000000000000N26       000060400K 10000000010000000000           
CUS0208610000102297453009         ANGELOZZI & MCCORMIC4031 WOODHAVEN AVE                      000N        CARE OF             
MTR02086100001000000000000000RA              30518034    005801390000013900000520000003NN  NNW 000                       N    
RDG02086100WATRL000000004K00000000000001973004301172015100459N000000000000N26       000410400K 10000000010000001950           
CUS0208610000102297454007         THOMAS M DAVIS      4029 WOODHAVEN AVE                      000N        CARE OF             
MTR02086100001000000000000000RA              99387588    005801400000014000000570000003NN  NNW 000                       N    
RDG02086100WATRL000000004K00000000000001375004401172015100515N000000000000N26       000160400K 10000000010000001357           
CUS0208610000102297455004         JONES, CHARLES E    4027 WOODHAVEN AVE                      000N        CARE OF             
MTR02086100001000000000000000RA              44086493    005801410000014100000520000003NN  NNW 000                       N    
RDG02086100WATRL000000004K00000000000002415004501172015100534N000000000000N26       000190400K 10000000010000002399           
CUS0208610000102297456002         JAMES, CAROLYN      4025 WOODHAVEN AVE                      000N        CARE OF             
MTR02086100001000000000000000RA              74815026    007501420000014200000350000003NN  NNW 000                       N    
RDG02086100WATRL000000004K00000000000000085005201172015100830N000000000000N26       000600400K 10000000010000000073           
CUS0208610000102297457000         SABIR, AMJAD        4023 WOODHAVEN AVE                      000N        CARE OF             
MTR02086100001000000000000000RA              52769328    005801430000014300000520000003NN  NNW 000                       N    
RDG02086100WATRL000000004K00000000000000603005301172015100918N000000000000N26       000480400K 10000000010000000593           
CUS0208610000102297458008         TAYLOR, DONIQUEKA   4021 WOODHAVEN AVE                      000N        CARE OF             
MTR02086100001000000000000000RA              50789659    005801440000014400000520000003NN  NNW 000                       N    
RDG02086100WATRL000000004K00000000000001934005401172015100920N000000000000N26       000020400K 10000000010000001893           
CUS0208610000102297459006         MATTHEWS, DELROY    4019 WOODHAVEN AVE                      000N        CARE OF             
MTR02086100001000000000000000RA              30791157    007501450000014500000520000003NN  NNW 000                       N    
RDG02086100WATRL000000004K00000000000002405005501172015100956N000000000010N26       000360400K 10000000010000002402           
CUS0208610000102297460004         CHILL, LLC          4017 WOODHAVEN AVE                      000N        CARE OF             
MTR02086100001000000000000000RA              39257148    007501460000014600000520000003NN  NNW 000   VACANT PROPERTY     N    
RDG02086100WATRL000000004K00000000000003730012801172015133748N000000000000N26       000130400K 10000000010000003730           
CUS0208610000102297461002         SPEIGHT, CHRISTINA C4015 WOODHAVEN AVE                      000N        CARE OF             
MTR02086100001000000000000000RA              52287637    005801470000014700000520000003NN  NNW 000                       N    
RDG02086100WATRL000000004K00000000000001172006601172015101458N000000000000N26       000570400K 10000000010000001156           
CUS0208610000102297462000         BOWEN, KATHLEEN S.  4013 WOODHAVEN AVE                      000N        CARE OF             
MTR02086100001000000000000000RA              41258487    005801480000014800000520000003NN  NNW 000                       N    
RDG02086100WATRL000000004K00000000000001474006701172015101522N000000000000N26       000240400K 10000000010000001467           
CUS0208610000102297463008         PIGATT-CANTY, WANDA 4011 WOODHAVEN AVE                      000N        CARE OF             
MTR02086100001000000000000000RA              41258485    005801490000014900000520000003NN  NNW 000                       N    
RDG02086100WATRL000000004K00000000000001905006801172015101524N000000000000N26       000020400K 10000000010000001890           
CUS0208610000102297464006         JOHNSON, VERNON     4009 WOODHAVEN AVE                      000N        CARE OF             
MTR02086100001000000000000000RA              41258494    005801500000015000000520000003NN  NNW 000   VACANT PROPERTY     N    
RDG02086100WATRL000000004K00000000000001528012701172015133735N000000000000N26       000080400K 10000000010000001528           
CUS0208610000102297465003         STEPHANIE CAREY     4007 WOODHAVEN AVE                      000N        CARE OF             
MTR02086100001000000000000000RA              38887901    005801510000015100000520000003NN  NNW 000                       N    
RDG02086100WATRL000000004K00000000000001927006901172015133347N000000000001N26       000210400K 10000000010000001927           
CUS0208610000102297466001         FAX EDITH L         4005 WOODHAVEN AVE                      000N        CARE OF             
MTR02086100001000000000000000RA              39924078    005801520000015200000520000003NY  NNW 000                       N    
MTM0208610039924078    JCE                                                                                                    
RDG02086100WATRL000000004K00000000000003171002901202015115548N000000000000U26       010340400K 10000000010000003171           
CUS0208610000102297467009         HARVEY J SILER      4003 WOODHAVEN AVE                      000N        CARE OF             
MTR02086100001000000000000000RA              39924074    005801530000015300000520000003NY  NNW 000                       N    
MTM0208610039924074    ICE                                                                                                    
RDG02086100WATRL000000004K00000000000000000000000000000000000 000000000000U         000000400  10000000010000002471           
CUS0208610000102297468007         SEABORNE, MILTON    4001 WOODHAVEN AVE                      000N        CARE OF             
MTR02086100001000000000000000RA              40322235    005801540000015400000520000003NN  NNW 000                       N    
RDG02086100WATRL000000004K00000000000000781007001172015101651N000000000000N26       000540400K 10000000010000000761           
CUS0208610000102297469005         PETERS, BRIAN E     3900 DUVALL AVE                         000N        CARE OF             
MTR02086100001000000000000000RA              31086465    007501550000015500000520000003NN  NNW 000                       N    
RDG02086100WATRL000000004K00000000000002828000201202015143302N000000000020U26       001040400K 10000000010000002808           
CUS0208610000102297470003         SUTTON ETAL, CATALIN3902 DUVALL AVE                         000N        CARE OF             
MTR02086100001000000000000000RA              26013331    005801560000015600000520000003NN  NNW 000                       N    
RDG02086100WATRL000000004K00000000000005429000301172015093924N000000000000N26       000660400K 10000000010000005404           
CUS0208610000102297471001         DAVIS, FANNIE (LIFE)3904 DUVALL AVE                         000N        CARE OF             
MTR02086100001000000000000000RA              30519039    005801570000015700000520000003NN  NNW 000                       N    
RDG02086100WATRL000000004K00000000000001120000401172015093925N000000000000N26       000010400K 10000000010000001111           
CUS0208610000102297472009         ADAMS, CHRISTOPHER  3908 DUVALL AVE                         000N        CARE OF             
MTR02086100001000000000000000RA              41089888    007501580000015800000520000003NY  NNW 000                       N    
MTM0208610041089888    FOG                                                                                                    
RDG02086100WATRL000000004K00000000000001180003701202015143118N000000000010U26       000790400K 10000000010000001170           
CUS0208610000102297473007         ALWAYS HALAH LLC    3910 DUVALL AVE                         000N        CARE OF             
MTR02086100001000000000000000RA              99411910    007501590000015900000570000003NN  NNW 000                       N    
RDG02086100WATRL000000004K00000000000001038000501172015133630N000000000001N26       001630400K 10000000010000001038           
CUS0208610000102297474005         JAMES BAILEY JR     3912 DUVALL AVE                         000N        CARE OF             
MTR02086100001000000000000000RA              74814996    007501600000016000000350000003NN  NNW 000                       N    
RDG02086100WATRL000000004K00000000000000000012601172015133727N000000000000N26       000570400K 10000000010000000000           
CUS0208610000102297475002         GRINER, HOWARD J    3914 DUVALL AVE                         000N        CARE OF             
MTR02086100001000000000000000RA              29069677    007501610000016100000520000003NN  NNW 000                       N    
RDG02086100WATRL000000004K00000000000003089000601172015094253N000000000000N26       001370400K 10000000010000003059           
CUS0208610000102297476000         MARY L MOORE        3916 DUVALL AVE                         000N        CARE OF             
MTR02086100001000000000000000RA              24766856    005801620000016200000520000000NN  NNW 000                       N    
RDG02086100WATRL000000004K00000000000002126000701172015094344N000000000020N26       000510400K 10000000010000002120           
CUS0208610000102297477008         DONALD BAILEY       3918 DUVALL AVE                         000N        CARE OF             
MTR02086100001000000000000000RA              39257116    007501630000016300000520000003NN  NNW 000                       N    
RDG02086100WATRL000000004K00000000000002300000801172015094405N000000000000N26       000210400K 10000000010000002273           
CUS0208610000102297478006         JOHNSON, HILDA G   (3920 DUVALL AVE                         000N        CARE OF             
MTR02086100001000000000000000RA              39257117    007501640000016400000520000003NN  NNW 000                       N    
RDG02086100WATRL000000004K00000000000001640000901172015094423N000000000000N26       000180400K 10000000010000001632           
CUS0208610000102297479004         PATTERSON JR, CLAUDE3922 DUVALL AVE                         000N        CARE OF             
MTR02086100001000000000000000RA              41193343    007501650000016500000520000003NN  NNW 000                       N    
RDG02086100WATRL000000004K00000000000001971001001172015094446N000000000000N26       000230400K 10000000010000001960           
CUS0208610000102297480002         GRAY, LEAH M.       3924 DUVALL AVE                         000N        CARE OF             
MTR02086100001000000000000000RA              30519185    005801660000016600000520000000NN  NNW 000                       N    
RDG02086100WATRL000000004K00000000000002760001101172015094526N000000000000N26       000400400K 10000000010000002745           
CUS0208610000102297481000         DOROTHY R LAWRENCE  3926 DUVALL AVE                         000N        CARE OF             
MTR02086100001000000000000000RA              37690284    007501670000016700000520000003NN  NNW 000                       N    
RDG02086100WATRL000000004K00000000000001953001201172015094548N000000000000N26       000220400K 10000000010000001945           
CUS0208610000102297482008         JOHNSON, FANNIE DORI3928 DUVALL AVE                         000N        CARE OF             
MTR02086100001000000000000000RA              01090339    005801680000016800000610000003NN  NNW 000                       N    
RDG02086100WATRL000000004K00000000000001359001301172015094631N000000000000N26       000430400K 10000000010000001322           
CUS0208610000102297483006         HAGOOD, ERIK        3930 DUVALL AVE                         000N        CARE OF             
MTR02086100001000000000000000RA              31345878    007501690000016900000520000003NN  NNW 000                       N    
RDG02086100WATRL000000004K00000000000000000001401202015142959S005000000020U26       000470400K 10000000010000002626           
RTR02086100NN01690169000001690000000001690169000455NY016901690169000400020000000000000000000001    12182014NY020000 N         
RHD02114000NN02320232000002320000000002320232000110NY023202320232000000030000000000000000000001    12292014NY020000 N         
CUS0211400000102304614007         GARLAND, ROOSEVELT  3803 HILTON RD                          000N        CARE OF             
MTR02114000001000000000000000RA              23059444    005800010000000100000520000003NN  NNW 000                       N    
RDG02114000WATRL000000004K00000000000004177000101202015085227N000000000000N23       000000400K 10000000010000004170           
CUS0211400000102304615004         CHAPPELL, ROSETTA W 3805 HILTON RD                          000N        CARE OF             
MTR02114000001000000000000000RA              29683727    005800020000000200000520000003NN  NNW 000                       N    
RDG02114000WATRL000000004K00000000000001480000201202015085233N000300000010N23       000060400K 10000000010000001481           
CUS0211400000102304616002         JOHNS JR., LOUIS STE3807 HILTON RD                          000N        CARE OF             
MTR02114000001000000000000000RA              54350198    005800030000000300000520000003NN  NNW 000                       N    
RDG02114000WATRL000000004K00000000000001222000301202015085444N000300000010N23       001310400K 10000000010000001204           
CUS0211400000102304617000         RHONE, MYRA LAGRESSO3809 HILTON RD                          000N        CARE OF             
MTR02114000001000000000000000RA              01091645    005800040000000400000610000003NN  NNW 000                       N    
RDG02114000WATRL000000004K00000000000001455000401202015085452N000400000010N23       000080400K 10000000010000001442           
CUS0211400000102304618008         ROSS, LISA K        3811 HILTON RD                          000N        CARE OF             
MTR02114000001000000000000000RA              44088591    005800050000000500000520000003NN  NNW 000                       N    
RDG02114000WATRL000000004K00000000000001298000501202015085555N000000000000N23       000630400K 10000000010000001292           
CUS0211400000102304619006         JOHN W CROOMS       3255 YOSEMITE AVE                       000N        CARE OF             
MTR02114000001000000000000000RA              01088646    005800060000000600000610000003NN  NNW 000                       N    
RDG02114000WATRL000000004K00000000000001014000601202015085832N000000000000N23       001570400K 10000000010000000998           
CUS0211400000102304620004         GREENE, JONATHAN L. 3253 YOSEMITE AVE                       000N        CARE OF             
MTR02114000001000000000000000RA              23059536    005800070000000700000520000003NN  NNW 000                       N    
RDG02114000WATRL000000004K00000000000003876000701202015085917N000000000000N23       000450400K 10000000010000003866           
CUS0211400000102304621002         ROBERT S BAILEY     3251 YOSEMITE AVE                       000N        CARE OF             
MTR02114000001000000000000000RA              00126714    005800080000000800000570000003NN  NNW 000                       N    
RDG02114000WATRL000000004K00000000000000665000801202015085918N000000000000N23       000010400K 10000000010000000646           
CUS0211400000102304622000         RAYMOND L SCOTT     3249 YOSEMITE AVE                       000N        CARE OF             
MTR02114000001000000000000000RA              50789744    005800090000000900000520000003NN  NNW 000                       N    
RDG02114000WATRL000000004K00000000000002631000901202015085948N000000000000N23       000300400K 10000000010000002607           
CUS0211400000102304623008         ROBERT E CARROLL    3247 YOSEMITE AVE                       000N        CARE OF             
MTR02114000001000000000000000RA              50789738    005800100000001000000520000003NN  NNW 000                       N    
RDG02114000WATRL000000004K00000000000000811001001202015085952N000000000000N23       000040400K 10000000010000000797           
CUS0211400000102304624006         ROLAND D CURRY      3245 YOSEMITE AVE                       000N        CARE OF             
MTR02114000001000000000000000RA              40321183    005800110000001100000520000003NN  NNW 000                       N    
RDG02114000WATRL000000004K00000000000002199001101202015090032N000000000000N23       000400400K 10000000010000002180           
CUS0211400000102304625003         LEE, MATTIE MAE  (LI3243 YOSEMITE AVE                       000N        CARE OF             
MTR02114000001000000000000000RA              27133916    005800120000001200000520000003NN  NNW 000                       N    
RDG02114000WATRL000000004K00000000000002519001201202015090034N000000000000N23       000020400K 10000000010000002519           
CUS0211400000102304626001         MACER, JOYE D (LIFE)3241 YOSEMITE AVE                       000N        CARE OF             
MTR02114000001000000000000000RA              00126710    005800130000001300000570000003NN  NNW 000                       N    
RDG02114000WATRL000000004K00000000000000617001301202015090123N000300000020N23       000490400K 10000000010000000607           
CUS0211400000102304627009         ELLA L LOMAX        3239 YOSEMITE AVE                       000N        CARE OF             
MTR02114000001000000000000000RA              23059446    005800140000001400000520000003NN  NNW 000                       N    
RDG02114000WATRL000000004K00000000000002906001401202015090125N000000000000N23       000020400K 10000000010000002900           
CUS0211400000102304628007         GOODLETT, IAN T     3237 YOSEMITE AVE                       000N        CARE OF             
MTR02114000001000000000000000RA              35102885    005800150000001500000520000003NN  NNW 000                       N    
RDG02114000WATRL000000004K00000000000004092001501202015090156N000000000000N23       000310400K 10000000010000004083           
CUS0211400000102304629005         HARCUM, GREGORY     3235 YOSEMITE AVE                       000N        CARE OF             
MTR02114000001000000000000000RA              35102919    005800160000001600000520000003NN  NNW 000                       N    
RDG02114000WATRL000000004K00000000000002708001601202015090205N000300000020N23       000090400K 10000000010000002687           
CUS0211400000102304630003         MAMIE U CUMBERBATCH 3233 YOSEMITE AVE                       000N        CARE OF             
MTR02114000001000000000000000RA              36688621    005800170000001700000520000003NN  NNW 000                       N    
RDG02114000WATRL000000004K00000000000002470001701202015090230N000000000000N23       000250400K 10000000010000002457           
CUS0211400000102304631001         ALDRIDGE, SHAMEKA GW3231 YOSEMITE AVE                       000N        CARE OF             
MTR02114000001000000000000000RA              36688604    005800180000001800000520000003NN  NNW 000                       N    
RDG02114000WATRL000000004K00000000000002900001801202015090234N000300000010N23       000040400K 10000000010000002816           
CUS0211400000102304632009         MOORE, KATHERINE    3229 YOSEMITE AVE                       000N        CARE OF             
MTR02114000001000000000000000RA              36688067    005800190000001900000520000003NN  NNW 000                       N    
RDG02114000WATRL000000004K00000000000003854001901202015090309N000000000000N23       000350400K 10000000010000003839           
CUS0211400000102304633007         PULLEY SR, LEON S   3227 YOSEMITE AVE                       000N        CARE OF             
MTR02114000001000000000000000RA              01094635    005800200000002000000610000003NN  NNW 000                       N    
RDG02114000WATRL000000004K00000000000000485002001202015090318N000300000010N23       000090400K 10000000010000000480           
CUS0211400000102304634005         MILLS, TYRONE       3225 YOSEMITE AVE                       000N        CARE OF             
MTR02114000001000000000000000RA              36688624    005800210000002100000520000003NN  NNW 000                       N    
RDG02114000WATRL000000004K00000000000001451002101202015090351N000300000010N23       000330400K 10000000010000001419           
CUS0211400000102304635002         HODGE, CLORA M      3223 YOSEMITE AVE                       000N        CARE OF             
MTR02114000001000000000000000RA              10022283    005800220000002200000570000003NN  NNW 000                       N    
RDG02114000WATRL000000004K00000000000000253002201202015090353N000000000000N23       000020400K 10000000010000000231           
CUS0211400000102304636000         BLACK, ELOISE       3221 YOSEMITE AVE                       000N        CARE OF             
MTR02114000001000000000000000RA              01116199    005800230000002300000610000003NN  NNW 000                       N    
RDG02114000WATRL000000004K00000000000000288002401202015090453N000000000000N23       000230400K 10000000010000000283           
CUS0211400000102304637008         WRIGHT, SAMUEL J    3219 YOSEMITE AVE                       000N        CARE OF             
MTR02114000001000000000000000RA              36688620    005800240000002400000520000003NN  NNW 000                       N    
RDG02114000WATRL000000004K00000000000002933002301202015090430N000000000000N23       000370400K 10000000010000002918           
CUS0211400000102304638006         LEE, MARGARET E     3217 YOSEMITE AVE                       000N        CARE OF             
MTR02114000001000000000000000RA              46876062    005800250000002500000520000003NN  NNW 000                       N    
RDG02114000WATRL000000004K00000000000001175002501202015090540N000300000010N23       000470400K 10000000010000001122           
CUS0211400000102304639004         MCDOWELL, DELICIA Y.3215 YOSEMITE AVE                       000N        CARE OF             
MTR02114000001000000000000000RA              40321167    005800260000002600000520000003NN  NNW 000                       N    
RDG02114000WATRL000000004K00000000000002134002601202015090626N000000000000N23       000460400K 10000000010000002112           
CUS0211400000102304640002         KEISHA SCALES       3213 YOSEMITE AVE                       000N        CARE OF             
MTR02114000001000000000000000RA              50788411    005800270000002700000520000003NN  NNW 000                       N    
RDG02114000WATRL000000004K00000000000001329002701202015090630N000000000000N23       000040400K 10000000010000001320           
CUS0211400000102304641000         RUSSELL B LYLES JR  3211 YOSEMITE AVE                       000N        CARE OF             
MTR02114000001000000000000000RA              50788377    005800280000002800000520000003NN  NNW 000                       N    
RDG02114000WATRL000000004K00000000000000503002801202015090658N000000000000N23       000280400K 10000000010000000498           
CUS0211400000102304642008         DUNGEE, LISA V      3209 YOSEMITE AVE                       000N        CARE OF             
MTR02114000001000000000000000RA              26002122    005800290000002900000520000003NN  NNW 000                       N    
RDG02114000WATRL000000004K00000000000002141002901202015090714N000000000000N23       000160400K 10000000010000002127           
CUS0211400000102304643006         ROBERTS, DAWN D.    3207 YOSEMITE AVE                       000N        CARE OF             
MTR02114000001000000000000000RA              46875780    005800300000003000000520000003NN  NNW 000                       N    
RDG02114000WATRL000000004K00000000000000917003001202015090752N000000000000N23       000380400K 10000000010000000908           
CUS0211400000102304644004         NANCY H BENNETT     3205 YOSEMITE AVE                       000N        CARE OF             
MTR02114000001000000000000000RA              00126777    005800310000003100000570000003NN  NNW 000                       N    
RDG02114000WATRL000000004K00000000000000603003101202015090756N000000000000N23       000040400K 10000000010000000590           
CUS0211400000102304645001         DAVIS, CHARLIE L    3203 YOSEMITE AVE                       000N        CARE OF             
MTR02114000001000000000000000RA              35102921    005800320000003200000520000003NN  NNW 000                       N    
RDG02114000WATRL000000004K00000000000002214003201202015090837N000000000000N23       000410400K 10000000010000002205           
CUS0211400000102304646009         RUSSELL, OMAR M.    3201 YOSEMITE AVE                       000N        CARE OF             
MTR02114000001000000000000000RA              27132101    005800330000003300000520000003NN  NNW 000                       N    
RDG02114000WATRL000000004K00000000000001853003301202015090855N000300000010N23       000180400K 10000000010000001846           
CUS0211400000102304647007         WABASH MANOR, LLC.  3800-04 WABASH AVE                      000N        CARE OF             
MTR02114000001000000000000000RA              99410348    000100340000003400000570000003NN  NNW 000                       N    
RDG02114000WATRL000000004K00000000000008567003401202015091011N000000000000N23       000760400K 10000000010000008470           
CUS0211400000102304648005         WABASH MANOR, LLC.  3901-09 WABASH AVE                      000N        CARE OF             
MTR02114000001000000000000000RA              14914753    001500350000003500000310000003NN  NNW 000                       N    
RDG02114000WATRL000000005K00000000000025205003501202015091131N000000000000N23       000800500K 10000000010000024863           
CUS0211400000102304649003         WABASH MANOR, LLC.  3911-17 WABASH AVE                      000N        CARE OF             
MTR02114000001000000000000000RA              14914755    001500360000003600000310000003NN  NNW 000                       N    
RDG02114000WATRL000000005K00000000000013490003601202015091258N000000000000N23       000870500K 10000000010000013217           
CUS0211400000102304650001         WABASH MANOR, LLC.  3919-23 WABASH AVE                      000N        CARE OF             
MTR02114000001000000000000000RA              00163759    000100370000003700000570000003NN  NNW 000                       N    
RDG02114000WATRL000000004K00000000000001146003701202015091419N000000000000N23       000810400K 10000000010000000925           
CUS0211400000102304651009         WABASH MANOR, LLC.  4001-07 WABASH AVE                      000N        CARE OF             
MTR02114000001000000000000000RA              14914758    001500380000003800000310000003NN  NNW 000                       N    
RDG02114000WATRL000000005K00000000000011446003801202015091532N000000000000N23       000730500K 10000000010000011079           
CUS0211400000102304652007         WABASH MANOR, LLC.  4000-06 WABASH AVE                      000N        CARE OF             
MTR02114000001000000000000000RA              14914749    001500390000003900000310000003NN  NNW 000                       N    
RDG02114000WATRL000000005K00000000000011980003901202015091628N000000000000N23       000560500K 10000000010000011572           
CUS0211400000102304653005         WABASH MANOR, LLC.  3910-18 WABASH AVE                      000N        CARE OF             
MTR02114000001000000000000000RA              14914759    001500400000004000000310000003NN  NNW 000                       N    
RDG02114000WATRL000000005K00000000000010208004001202015091750N000000000000N23       000820500K 10000000010000009869           
CUS0211400000102304654003         WABASH MANOR, LLC.  3900-08 WABASH AVE                      000N        CARE OF             
MTR02114000001000000000000000RA              14914754    001500410000004100000310000003NN  NNW 000                       N    
RDG02114000WATRL000000005K00000000000012271004101202015091927N000000000000N23       000970500K 10000000010000012046           
CUS0211400000102304655000         BAXTER, NANCY       3200 YOSEMITE AVE                       000N        CARE OF             
MTR02114000001000000000000000RA              01102344    005800420000004200000610000003NN  NNW 000                       N    
RDG02114000WATRL000000004K00000000000000550004201202015092059N000000000000N23       000920400K 10000000010000000536           
CUS0211400000102304656008         ELMER MARABLE       3202 YOSEMITE AVE                       000N        CARE OF             
MTR02114000001000000000000000RA              00126712    005800430000004300000570000003NN  NNW 000                       N    
RDG02114000WATRL000000004K00000000000000419004301202015092101N000000000000N23       000020400K 10000000010000000414           
CUS0211400000102304657006         FULLARD, JEFFREY A  3204 YOSEMITE AVE                       000N        CARE OF             
MTR02114000001000000000000000RA              01088614    005800440000004400000610000003NN  NNW 000                       N    
RDG02114000WATRL000000004K00000000000002011004401202015092137N000000000000N23       000360400K 10000000010000001975           
CUS0211400000102304658004         ZEMORA Y TAYLOR     3206 YOSEMITE AVE                       000N        CARE OF             
MTR02114000001000000000000000RA              36688698    005800450000004500000520000003NN  NNW 000                       N    
RDG02114000WATRL000000004K00000000000001374004501202015092140N000000000000N23       000030400K 10000000010000001364           
CUS0211400000102304659002         WARNER, MICHAEL     3208 YOSEMITE AVE                       000N        CARE OF             
MTR02114000001000000000000000RA              36688699    005800460000004600000520000003NN  NNW 000                       N    
RDG02114000WATRL000000004K00000000000001171004601202015092215N000000000000N23       000350400K 10000000010000001156           
CUS0211400000102304660000         ROBERT M LOCKLEY    3210 YOSEMITE AVE                       000N        CARE OF             
MTR02114000001000000000000000RA              36688703    005800470000004700000520000003NN  NNW 000                       N    
RDG02114000WATRL000000004K00000000000002233004701202015092219N000000000000N23       000040400K 10000000010000002215           
CUS0211400000102304661008         LESLIE SMALLS       3212 YOSEMITE AVE                       000N        CARE OF             
MTR02114000001000000000000000RA              36688622    005800480000004800000520000003NN  NNW 000                       N    
RDG02114000WATRL000000004K00000000000002416004801202015092330N000000000010N23       000710400K 10000000010000001161           
CUS0211400000102304662006         SHELL-ELEAZER, BREND3214 YOSEMITE AVE                       000N        CARE OF             
MTR02114000001000000000000000RA              36688702    005800490000004900000520000003NN  NNW 000                       N    
RDG02114000WATRL000000004K00000000000003637004901202015092343N000300000010N23       000130400K 10000000010000003565           
CUS0211400000102304663004         WILSON, DELORES S.  3216 YOSEMITE AVE                       000N        CARE OF             
MTR02114000001000000000000000RA              36688700    005800500000005000000520000003NN  NNW 000                       N    
RDG02114000WATRL000000004K00000000000001011005001202015092417N000000000000N23       000340400K 10000000010000001011           
CUS0211400000102304664002         LEE, VERNON         3218 YOSEMITE AVE                       000N        CARE OF             
MTR02114000001000000000000000RA              78022560    005800510000005100000350000003NN  NNW 000                       N    
RDG02114000WATRL000000004K00000000000000000005101202015092454S001000000000N23       000370400K 10000000010000000000           
CUS0211400000102304665009         ELLEN D HOWARD      3220 YOSEMITE AVE                       000N        CARE OF             
MTR02114000001000000000000000RA              78022561    005800520000005200000350000003NN  NNW 000                       N    
RDG02114000WATRL000000004K00000000000000000005201202015092456S001000000000N23       000020400K 10000000010000000005           
CUS0211400000102304666007         AMALIA TAYLOR       3222 YOSEMITE AVE                       000N        CARE OF             
MTR02114000001000000000000000RA              36688670    005800530000005300000520000003NN  NNW 000                       N    
RDG02114000WATRL000000004K00000000000001436005301202015092531N000100000010N23       000350400K 10000000010000001436           
CUS0211400000102304667005         TERRY, RICHARD M.   3224 YOSEMITE AVE                       000N        CARE OF             
MTR02114000001000000000000000RA              36688701    005800540000005400000520000003NN  NNW 000                       N    
RDG02114000WATRL000000004K00000000000001934005401202015092536N000000000000N23       000050400K 10000000010000001934           
CUS0211400000102304668003         BRIAN KEITH TALLEY  3226 YOSEMITE AVE                       000N        CARE OF             
MTR02114000001000000000000000RA              40321181    005800550000005500000520000003NN  NNW 000                       N    
RDG02114000WATRL000000004K00000000000001793005501202015092606N000000000000N23       000300400K 10000000010000001783           
CUS0211400000102304669001         ABDUL-MALIK, SHAHEED3228 YOSEMITE AVE                       000N        CARE OF             
MTR02114000001000000000000000RA              36687846    005800560000005600000520000003NN  NNW 000                       N    
RDG02114000WATRL000000004K00000000000002369005601202015092610N000000000000N23       000040400K 10000000010000002349           
CUS0211400000102304670009         ROBERT L BOYKINS & W3230 YOSEMITE AVE                       000N        CARE OF             
MTR02114000001000000000000000RA              40323160    005800570000005700000520000003NN  NNW 000                       N    
RDG02114000WATRL000000004K00000000000002284005701202015092645N000000000000N23       000350400K 10000000010000002271           
CUS0211400000102304671007         DINGLE, ERIKA       3232 YOSEMITE AVE                       000N        CARE OF             
MTR02114000001000000000000000RA              01089278    005800580000005800000610000003NN  NNW 000                       N    
RDG02114000WATRL000000004K00000000000001169005801202015092648N000000000000N23       000030400K 10000000010000001160           
CUS0211400000102304672005         LANGLEY, LAURETTA   3234 YOSEMITE AVE                       000N        CARE OF             
MTR02114000001000000000000000RA              40321185    005800590000005900000520000003NN  NNW 000                       N    
RDG02114000WATRL000000004K00000000000001894005901202015092731N000400000010N23       000430400K 10000000010000001878           
CUS0211400000102304673003         BYRD, KENNETH MAURIC3236 YOSEMITE AVE                       000N        CARE OF             
MTR02114000001000000000000000RA              40321166    005800600000006000000520000003NN  NNW 000                       N    
RDG02114000WATRL000000004K00000000000001794006001202015092804N000000000000N23       000330400K 10000000010000001777           
CUS0211400000102304674001         WILLIAM D COOPER JR 3238 YOSEMITE AVE                       000N        CARE OF             
MTR02114000001000000000000000RA              23059799    005800610000006100000520000003NN  NNW 000                       N    
RDG02114000WATRL000000004K00000000000001736006101202015092851N000000000000N23       000470400K 10000000010000001706           
CUS0211400000102304675008         JENNINGS, GENICE    3240 YOSEMITE AVE                       000N        CARE OF             
MTR02114000001000000000000000RA              74689805    005800620000006200000350000003NN  NNW 000                       N    
RDG02114000WATRL000000004K00000000000000001006201202015092856N000000000010N23       000050400K 10000000010000000000           
CUS0211400000102304676006         BOWEN, CARENCAY     3242 YOSEMITE AVE                       000N        CARE OF             
MTR02114000001000000000000000RA              23059797    005800630000006300000520000003NN  NNW 000                       N    
RDG02114000WATRL000000004K00000000000001332006301202015092940N000000000000N23       000440400K 10000000010000001330           
CUS0211400000102304677004         DAVID PARKER        3244 YOSEMITE AVE                       000N        CARE OF             
MTR02114000001000000000000000RA              29684098    005800640000006400000520000003NN  NNW 000                       N    
RDG02114000WATRL000000004K00000000000002665006401202015092943N000000000000N23       000030400K 10000000010000002647           
CUS0211400000102304678002         BALL, VALERIE M     3246 YOSEMITE AVE                       000N        CARE OF             
MTR02114000001000000000000000RA              26012153    005800650000006500000520000003NN  NNW 000                       N    
RDG02114000WATRL000000004K00000000000002437006501202015093038N000000000000N23       000550400K 10000000010000002433           
CUS0211400000102304679000         ATKINSON, CATINA S  3248 YOSEMITE AVE                       000N        CARE OF             
MTR02114000001000000000000000RA              00126708    005800660000006600000570000003NN  NNW 000                       N    
RDG02114000WATRL000000004K00000000000001321006601202015093043N000000000000N23       000050400K 10000000010000001303           
CUS0211400000102304680008         SMITH, ROBERT L.    3250 YOSEMITE AVE                       000N        CARE OF             
MTR02114000001000000000000000RA              40321159    005800670000006700000520000003NN  NNW 000                       N    
RDG02114000WATRL000000004K00000000000001121006701202015093119N000000000000N23       000360400K 10000000010000001097           
CUS0211400000102304681006         VERNELL T DESHAZO   3901 HILTON RD                          000N        CARE OF             
MTR02114000001000000000000000RA              23059458    005800680000006800000520000003NN  NNW 000                       N    
RDG02114000WATRL000000004K00000000000003188006801202015093224N000000000000N23       000650400K 10000000010000003167           
CUS0211400000102304682004         WHEATLEY, DWAYNE H  3903 HILTON RD                          000N        CARE OF             
MTR02114000001000000000000000RA              50789991    005800690000006900000520000003NN  NNW 000                       N    
RDG02114000WATRL000000004K00000000000003245006901202015093254N000000000000N23       000300400K 10000000010000003210           
CUS0211400000102304683002         JONES, MIRIAM A.    3905 HILTON RD                          000N        CARE OF             
MTR02114000001000000000000000RA              00126706    005800700000007000000570000003NN  NNW 000                       N    
RDG02114000WATRL000000004K00000000000001284007001202015093255N000000000000N23       000010400K 10000000010000001270           
CUS0211400000102304684000         PENDLETON, CARL J   3907 HILTON RD                          000N        CARE OF             
MTR02114000001000000000000000RA              31580934    005800710000007100000520000003NN  NNW 000                       N    
RDG02114000WATRL000000004K00000000000006084007101202015093409N000000000000N23       000740400K 10000000010000006060           
CUS0211400000102304685007         CHAUNCEY MANSON JR &3909 HILTON RD                          000N        CARE OF             
MTR02114000001000000000000000RA              31580841    005800720000007200000520000003NN  NNW 000                       N    
RDG02114000WATRL000000004K00000000000002027007201202015093412N000000000000N23       000030400K 10000000010000002027           
CUS0211400000102304686005         WILLIE, CANDICE N.  3911 HILTON RD                          000N        CARE OF             
MTR02114000001000000000000000RA              41588731    005800730000007300000520000003NN  NNW 000                       N    
RDG02114000WATRL000000004K00000000000001756007301202015093449N000000000010N23       000370400K 10000000010000001743           
CUS0211400000102304687003         DAVIS JR, THEADO    3913 HILTON RD                          000N        CARE OF             
MTR02114000001000000000000000RA              27823837    005800740000007400000520000003NN  NNW 000                       N    
RDG02114000WATRL000000004K00000000000004676007401202015093454N000000000000N23       000050400K 10000000010000004663           
CUS0211400000102304688001         HALL, DOUGLAS R     3915 HILTON RD                          000N        CARE OF             
MTR02114000001000000000000000RA              01088619    005800750000007500000610000003NN  NNW 000                       N    
RDG02114000WATRL000000004K00000000000000826007501202015093526N000000000000N23       000320400K 10000000010000000814           
CUS0211400000102304689009         MCCRAY, PRESTON H   3917 HILTON RD                          000N        CARE OF             
MTR02114000001000000000000000RA              23059525    005800760000007600000520000003NN  NNW 000                       N    
RDG02114000WATRL000000004K00000000000006992007601202015093533N000000000000N23       000070400K 10000000010000006986           
CUS0211400000102304690007         MARGARET BIVINS     3241 DORITHAN RD                        000N        CARE OF             
MTR02114000001000000000000000RA              01089270    005800770000007700000610000003NN  NNW 000                       N    
RDG02114000WATRL000000004K00000000000000785007701202015093646N000300000010N23       000730400K 10000000010000000774           
CUS0211400000102304691005         WILLIE DAVIS        3239 DORITHAN RD                        000N        CARE OF             
MTR02114000001000000000000000RA              01089273    005800780000007800000610000003NN  NNW 000                       N    
RDG02114000WATRL000000004K00000000000000911007801202015093650N000000000000N23       000040400K 10000000010000000887           
CUS0211400000102304692003         TATUM-JORDAN, CYNTHI3237 DORITHAN RD                        000N        CARE OF             
MTR02114000001000000000000000RA              00126780    005800790000007900000570000003NN  NNW 000                       N    
RDG02114000WATRL000000004K00000000000001391007901202015093735N000000000000N23       000450400K 10000000010000001380           
CUS0211400000102304693001         GERTRUDE L MOSBY    3235 DORITHAN RD                        000N        CARE OF             
MTR02114000001000000000000000RA              27812879    005800800000008000000520000003NN  NNW 000                       N    
RDG02114000WATRL000000004K00000000000002997008001202015093737N000000000000N23       000020400K 10000000010000002984           
CUS0211400000102304694009         JENKINS, ROSALEE D. 3233 DORITHAN RD                        000N        CARE OF             
MTR02114000001000000000000000RA              27813829    005800810000008100000520000003NN  NNW 000                       N    
RDG02114000WATRL000000004K00000000000001079008101202015093819N000000000000N23       000420400K 10000000010000001073           
CUS0211400000102304695006         LENA B BROWN        3231 DORITHAN RD                        000N        CARE OF             
MTR02114000001000000000000000RA              41588742    005800820000008200000520000003NN  NNW 000                       N    
RDG02114000WATRL000000004K00000000000002537008201202015093821N000000000000N23       000020400K 10000000010000002510           
CUS0211400000102304696004         LEROY S BOULDIN     3229 DORITHAN RD                        000N        CARE OF             
MTR02114000001000000000000000RA              29403676    005800830000008300000520000003NN  NNW 000                       N    
RDG02114000WATRL000000004K00000000000002295008301202015093905N000000000000N23       000440400K 10000000010000002277           
CUS0211400000102304697002         WINGFIELD JR., VERNO3227 DORITHAN RD                        000N        CARE OF             
MTR02114000001000000000000000RA              00126778    005800840000008400000570000003NN  NNW 000                       N    
RDG02114000WATRL000000004K00000000000001266008401202015093943N000000000000N23       000380400K 10000000010000001246           
CUS0211400000102304698000         EL-AMIN, EARL SALEEM3225 DORITHAN RD                        000N        CARE OF             
MTR02114000001000000000000000RA              23059961    005800850000008500000520000003NN  NNW 000                       N    
RDG02114000WATRL000000004K00000000000003867008501202015094034N000300000010N23       000510400K 10000000010000003799           
CUS0211400000102304699008         MORRIS, TOBI L      3223 DORITHAN RD                        000N        CARE OF             
