FHDNNNN036007968007968008001N                                                                                           024591
RHD09004000NN01210121000001210000000000880088000039NY008800880121000600030000000000000000000001    01072015NY020000 N         
CUS0900400000109370941008         GREENSPRING -4544   3700 GREENSPRING AVE                    000N        CARE OF             
MTR09004000002000000000000000RA              6029530     000600010000000100000540000003NN  NNW 000                       N    
RDG09004000WATAL000000006K00000000000000019000101172015114056N000100000010N93       000000600K 10000000010000000019           
RDG09004000WATBL000000006K00000000000035434000201172015114110N000400000010N93       000140600K 10000000010000032662           
CUS0900400000109362093008         UMS - UNIVERSITY OF 1429 MARYLAND AVE                       000N        CARE OF             
MTR09004000001000000000000000RA              1276249     000300020000000200000490000003NN  NNW 000                       N    
RDG09004000WATRL000000005K00000000000012295000301172015114141N000000000000N93       000310500K 10000000010000011818           
CUS0900400000109257012006         BUREAU OF INSPECTION3750 GREENSPRING AVE                    000N        CARE OF             
MTR09004000002000000000000000RA              0700608     000600030000000300000390000003NN  NNW 000                       N    
RDG09004000WATAL000000006K00000000000000000000401172015114148N000100000010N93       000070600K 10000000010000000000           
RDG09004000WATBL000000006K00000000000006834000501172015114200N000400000010N93       000120600K 10000000010000006659           
CUS0900400000109257014002         ROYAL OAKS ASSOC. L.2418-20 LOYOLA NORTHWAY                 000N        CARE OF             
MTR09004000002000000000000000RA              0203988     000600040000000400000540000003NN  NNW 000                       N    
RDG09004000WATAL000000006K00000000000000000000601172015114208N000100000010N93       000080600K 10000000010000000000           
RDG09004000WATBL000000006K00000000000042299000701172015114230N000400000010N93       000220600K 10000000010000038494           
CUS0900400000109427742003         LL BALTIMORE , LLC  3855 GREENSPRING AVE                    000N        CARE OF             
MTR09004000002000000000000000RA              70066702    000800050000000500000560000003NN  NNW 000                       N    
RDG09004000WATAL000000006K00000000000000107000801172015114242N000400000010N93       000120600K 10000000010000000106           
RDG09004000WATBL000000006K00000000000022297000901172015114307N000400000010N93       000250600K 10000000010000020939           
CUS0900400000109257015009         COLDSPRING ASSOCIATE2500-32 EDGECOMBE CIR N                 000N        CARE OF             
MTR09004000001000000000000000RA              7177131     000400060000000600000640000003NN  NNW 000                       N    
RDG09004000WATRL000000006K00000000000035534001001172015114322N000000000000N93       000150600K 10000000010000031193           
CUS0900400000109257079005         DEPT OF EDUCATION   4701 GREENSPRING AVE                    000N        CARE OF             
MTR09004000002000000000000000RA              4754946     000800070000000700000630000003NN  NNW 000                       N    
RDG09004000WATAL000000006K00000000000000067001101172015114331N000100000010N93       000090600K 10000000010000000067           
RDG09004000WATBL000000006K00000000000005141001201172015114345N000400000010N93       000140600K 10000000010000003951           
CUS0900400000109257078007         DEPT OF EDUCATION   4701 GREENSPRING AVE                    000N        CARE OF             
MTR09004000002000000000000000RA              4867536     000800080000000800000630000003NN  NNW 000                       N    
RDG09004000WATAL000000006K00000000000000000001301172015114402N000103600010N93       000170600K 10000000010000000000           
RDG09004000WATBL000000006K00000000000021467001401172015114415N000400000010N93       000130600K 10000000010000018396           
CUS0900400000109375281004         CHATEAU FOGHORN LIMI4800 YELLOWWOOD AVE                     000N        CARE OF             
MTR09004000002000000000000000RA              5003403     000800090000000900000630000003NN  NNW 000                       N    
RDG09004000WATAL000000006K00000000000000008001501172015114423N000100000010N93       000080600K 10000000010000000008           
RDG09004000WATBL000000006K00000000000026494001601172015114439N000400000010N93       000160600K 10000000010000024745           
CUS0900400000109257080003         RECREATION & PARKS  4915 GREENSPRING AVE                    000N        CARE OF             
MTR09004000002000000000000000RA              6030946     000400100000001000000480000003NN  NNW 000                       N    
RDG09004000WATAL000000006K00000000000000085001701172015114449N000100000010N93       000100600K 10000000010000000085           
RDG09004000WATBL000000006K00000000000015530001801172015114500N000400000010N93       000110600K 10000000010000015281           
CUS0900400000109348820003         BUREAU OF REC       4901 GREENSPRING AVE                    000N        CARE OF             
MTR09004000001000000000000000RA              27316327    001500110000001100000520000003NN  NNW 000                       N    
RDG09004000WATRL000000005K00000000000000000001901172015114515S022000000000N93       000150500K 10000000010000027857           
CUS0900400000109438618002         WH-NSMOB, LLC       5001-5101 GREENSPRING AVE               000N        CARE OF             
MTR09004000002000000000000000RA              0509289     000800120000001200000630000003NN  NNW 000                       N    
RDG09004000WATAL000000006K00000000000000001002001172015114524N000100000010N93       000090600K 10000000010000000001           
RDG09004000WATBL000000006K00000000000002121002101172015114538N000400000010N93       000140600K 10000000010000001966           
CUS0900400000109357838003         NPA/DHCD            2200 W COLD SPRING LN                   000N        CARE OF             
MTR09004000003000000000000000RA              6047486     000600130000001300000480000003NY  NNW 000                       N    
MTM090040006047486     ok                                                                                                     
RDG09004000WATAL000000006K00000000000000002002201172015114543N000000000000N93       000050600K 10000000010000000002           
RDG09004000WATBL000000006K00000000000000002002301172015114549N000100000010N93       000060600K 10000000010000000002           
RDG09004000WATCL000000006K00000000000000000002401172015114554N000100000010N93       000050600K 10000000010000000000           
CUS0900400000109423353003         COLDSPRING WALDORF  4801 TAMARIND RD                        000N        CARE OF             
MTR09004000002000000000000000RA              9708306     000800140000001400000630000003NN  NNW 000                       N    
RDG09004000WATAL000000006K00000000000000001002501172015114610N000100000010N93       000160600K 10000000010000000001           
RDG09004000WATBL000000006K00000000000002560002601172015114618N000400000010N93       000080600K 10000000010000002452           
CUS0900400000109428752001         SHELTER DEV         4803 TAMARIND RD                        000N        CARE OF             
MTR09004000001000000000000000RA              8043988     000600150000001500000380000000NN  NNW 000   FIRE SERVICE        N    
RDG09004000WATRL000000006K00000000000000000002701172015114623N000000000000N93       000050600K 10000000010000000000           
CUS0900400000109428754007         PARKVIEW @COLDSPRING4803 TAMARIND RD                        000N        CARE OF             
MTR09004000001000000000000000RA              9601367     000300160000001600000640000000NN  NNW 000                       N    
RDG09004000WATRL000000005K00000000000018439002801172015114630N000000000000N93       000070500K 10000000010000017606           
CUS0900400000109257022005         COLDSPRING STAGE NOR4890 TAMARIND RD                        000N        CARE OF             
MTR09004000002000000000000000RA              5603824     000600170000001700000540000003NN  NNW 000                       N    
RDG09004000WATAL000000006K00000000000000050002901172015114704N000100000010N93       000340600K 10000000010000000050           
RDG09004000WATBL000000006K00000000000059774003001172015114717N000400000010N93       000130600K 10000000010000056893           
CUS0900400000109357837005         COLDSPRING STAGE 1B 4810 TAMARIND RD                        000N        CARE OF             
MTR09004000002000000000000000RA              5948840     000400180000001800000480000003NN  NNW 000                       N    
RDG09004000WATAL000000006K00000000000000000003101172015114723N000100000010N93       000060600K 10000000010000000000           
RDG09004000WATBL000000006K00000000000005722003201172015114732N000400000010N93       000090600K 10000000010000005383           
CUS0900400000109353014005         COLDSPRING COMM ASSN2300 YELLOWWOOD RD                      000N        CARE OF             
MTR09004000001000000000000000RA              1239559     000200190000001900000490000003NN  NNW 000                       N    
RDG09004000WATRL000000005K00000000000016812003301172015114741N000400000010N93       000090500K 10000000010000016770           
CUS0900400000109357836007         COLDSPRING STAGE 1B 4891 YELLOWWOOD AVE                     000N        CARE OF             
MTR09004000002000000000000000RA              5948779     000400200000002000000480000003NY  NNW 000                       N    
MTM090040005948779     ok                                                                                                     
RDG09004000WATAL000000006K00000000000000001003401172015114750N000100000010N93       000090600K 10000000010000000001           
RDG09004000WATBL000000006K00000000000008078003501172015114803N000100000010N93       000130600K 10000000010000008078           
CUS0900400000109357835009         COLDSPRING STATE 1B 4701 YELLOWWOOD AVE                     000N        CARE OF             
MTR09004000002000000000000000RA              6012971     000600210000002100000630000003NY  NNW 000                       N    
MTM090040006012971     ok                                                                                                     
RDG09004000WATAL000000006K00000000000000000003601172015114821N000300000010N93       000180600K 10000000010000000001           
RDG09004000WATBL000000006K00000000000017529003701172015114831N000400000010N93       000100600K 10000000010000016544           
CUS0900400000109444475009         LOYOLA COLLEGE IN MD2221 W COLD SPRING LN                   000N        CARE OF             
MTR09004000002000000000000000RA              0818611     001000220000002200000390000000NN  NNW 000                       N    
RDG09004000WATAL000000007K00000000000000013003801172015114841N000100000010N93       000100700K 10000000010000000013           
RDG09004000WATBL000000007K00000000000004337003901172015114852N000400000010N93       000110700K 10000000010000004027           
CUS0900400000109426748001         BUREAU OF GENERAL SE2201 W COLD SPRING LN                   000N        CARE OF             
MTR09004000001000000000000000RA              99999999    000600230000002300000620000000NN  NNW 000   CITY FIRE SERV      N    
RDG09004000WATRL000000006K00000000000000000004001172015114856N000000000000N93       000040600K 10000000010000000000           
CUS0900400000109426750007         BUREAU OF GENERAL SE2201 W COLD SPRING LN                   000N        CARE OF             
MTR09004000001000000000000000RA              99999999    000400240000002400000620000000NN  NNW 000                       N    
RDG09004000WATRL000000006K00000000000003894004101172015114910N000000000000N93       000140600K 10000000010000003824           
CUS0900400000109257020009         BALTO.GAS &ELECTRIC 2020 W COLD SPRING LN                   000N        CARE OF             
MTR09004000001000000000000000RA              5498431     000800250000002500000410000003NY  NNW 000   FIRE SERVICE        N    
MTM090040005498431     c/o/v                                                                                                  
RDG09004000WATRL000000006K00000000000000000000000000000000000 000000000000U         000000600  10000000010000000000           
CUS0900400000109257021007         BALTIMORE GAS & ELEC2020 W COLD SPRING LN                   000N        CARE OF             
MTR09004000001000000000000000RA              01116738    000200260000002600000610000003NN  NNW 000                       N    
RDG09004000WATRL000000005K00000000000000066004201172015114931N000000000000N93       000210500K 10000000010000000061           
CUS0900400000109257037003         SOUTHERN MANAGEMENT 4413-15 LAPLATA AVE                     000N        CARE OF             
MTR09004000001000000000000000RA              35109452    000200270000002700000520000003NN  NNW 000                       N    
RDG09004000WATRL000000005K00000000000036766004301172015114937N000000000000N93       000060500K 10000000010000036569           
CUS0900400000109257025008         SOUTHERN MANAGEMENT 4416-18 LAPLATA AVE                     000N        CARE OF             
MTR09004000001000000000000000RA              35112634    000200280000002800000520000003NN  NNW 000                       N    
RDG09004000WATRL000000005K00000000000028914004401172015114943N000000000000N93       000060500K 10000000010000028697           
CUS0900400000102421141009         SHERWIN WILLIAMS    4625A FALLS RD                          000N        CARE OF             
MTR09004000001000000000000000RA              46890042    007500290000002900000520000000NN  NNW 000                       N    
RDG09004000WATRL000000004K00000000000002517004501172015114947N000000000000N93       000040400K 10000000010000002388           
CUS0900400000109257026006         SOUTHERN MANAGEMENT 4412-14 LAPLATA AVE                     000N        CARE OF             
MTR09004000001000000000000000RA              01147385    000200300000003000000610000003NN  NNW 000                       N    
RDG09004000WATRL000000005K00000000000009783004601172015114954N000000000000N93       000070500K 10000000010000009489           
CUS0900400000109257036005         SOUTHERN MANAGEMENT 4407-09 LAPLATA AVE                     000N        CARE OF             
MTR09004000001000000000000000RA              35109435    000200310000003100000520000003NN  NNW 000                       N    
RDG09004000WATRL000000005K00000000000018997004701172015115000N000000000000N93       000060500K 10000000010000018668           
CUS0900400000109257027004         SOUTHERN MANAGEMENT 4401-4405 FALLS BRIDGE DR               000N        CARE OF             
MTR09004000002000000000000000RA              4108364     000600320000003200000540000003NN  NNW 000                       N    
RDG09004000WATAL000000006K00000000000000000004801172015115017N000100000010N93       000170600K 10000000010000000000           
RDG09004000WATBL000000006K00000000000017529004901172015115029N000400000010N93       000120600K 10000000010000016715           
CUS0900400000109417415008         HIGHPOINT CONDOMINIU4407-17 FALLS BRIDGE DR                 000N        CARE OF             
MTR09004000002000000000000000RA              6029531     000600330000003300000630000003NY  NNW 000                       N    
MTM090040006029531     ok                                                                                                     
RDG09004000WATAL000000006K00000000000000000005001172015115038N000100000010N93       000090600K 10000000010000000000           
RDG09004000WATBL000000006K00000000000031999005101172015115050N000100000010N93       000120600K 10000000010000031999           
CUS0900400000109257028002         SOUTHERN MANAGEMENT 4408-10 LAPLATA AVE                     000N        CARE OF             
MTR09004000001000000000000000RA              29258521    000200340000003400000520000003NN  NNW 000                       N    
RDG09004000WATRL000000005K00000000000009570005201172015115057N000000000000N93       000070500K 10000000010000009407           
CUS0900400000109257029000         SOUTHERN MANAGEMENT 4404-06 LAPLATA AVE                     000N        CARE OF             
MTR09004000001000000000000000RA              27567939    000200350000003500000520000003NN  NNW 000                       N    
RDG09004000WATRL000000005K00000000000012919005301172015115103N000000000000N93       000060500K 10000000010000012588           
CUS0900400000109257030008         SOUTHERN MANAGEMENT 4400-02 LAPLATA AVE                     000N        CARE OF             
MTR09004000001000000000000000RA              28152109    000200360000003600000520000003NN  NNW 000                       N    
RDG09004000WATRL000000005K00000000000013842005401172015115109N000000000000N93       000060500K 10000000010000013574           
CUS0900400000109257034000         SOUTHERN MANAGEMENT 4401-03 LAPLATA AVE                     000N        CARE OF             
MTR09004000001000000000000000RA              35109463    000200370000003700000520000003NN  NNW 000                       N    
RDG09004000WATRL000000005K00000000000033897005501172015115116N000000000000N93       000070500K 10000000010000033749           
CUS0900400000109257032004         HEDWIN CORP         4310 LAPLATA AVE                        000N        CARE OF             
MTR09004000001000000000000000RA              01116733    000200380000003800000610000003NN  NNW 000                       N    
RDG09004000WATRL000000005K00000000000019353005601172015115122N000000000000N93       000060500K 10000000010000018679           
CUS0900400000109257033002         HEDWIN CORP         4300 LAPLATA AVE                        000N        CARE OF             
MTR09004000001000000000000000RA              70000274    001500390000003900000570000003NN  NNW 000                       N    
RDG09004000WATRL000000005K00000000000008531005701172015115129N000000000000N93       000070500K 10000000010000007969           
CUS0900400000109257031006         BUR OF CONSTR MGMT  1501 WOOD HTS AVE                       000N        CARE OF             
MTR09004000001000000000000000RA              31588587    000200400000004000000520000003NN  NNW 000                       N    
RDG09004000WATRL000000005K00000000000003471005801172015115139N000300000010N93       000100500K 10000000010000003339           
CUS0900400000109257035007         SOUTHERN MANAGEMENT 1500-02 WOOD HTS AVE                    000N        CARE OF             
MTR09004000001000000000000000RA              28152115    000200410000004100000520000003NN  NNW 000                       N    
RDG09004000WATRL000000005K00000000000018997005901172015115147N000000000000N93       000080500K 10000000010000018709           
CUS0900400000109257038001         DEPT. OF EDUCATION  4300 BUCHANAN AVE                       000N        CARE OF             
MTR09004000001000000000000000RA              9103193     000300420000004200000640000003NN  NNW 000                       N    
RDG09004000WATRL000000005K00000000000034088006001172015115154N000000000000N93       000070500K 10000000010000033846           
CUS0900400000109257042003         BUREAU OF BLDG.CONST4600 FALLS RD                           000N        CARE OF             
MTR09004000002000000000000000RA              4328796     000800430000004300000630000003NY  NNW 000                       N    
MTM090040004328796     ok                                                                                                     
RDG09004000WATAL000000006K00000000000005557006101172015115204N000400000010N93       000100600K 10000000010000004664           
RDG09004000WATBL000000006K00000000000081950006201172015115308N000300000010N93       000640600K 10000000010000145865           
CUS0900400000109257040007         S & R REAL ESTATE HO4625 FALLS RD                           000N        CARE OF             
MTR09004000001000000000000000RA              41089073    007500440000004400000520000003NN  NNW 000                       N    
RDG09004000WATRL000000004K00000000000004365006301172015122051N000400000021N93       009980400K 10000000010000004353           
CUS0900400000109257039009         S & R REAL ESTATE HO4625 FALLS RD                           000N        CARE OF             
MTR09004000001000000000000000RA              3105678     000600450000004500000410000003NN  NNW 000   FIRE SERVICE        N    
RDG09004000WATRL000000006K00000000000001071006401172015115352N000000000000N93       000360600K 10000000010000001071           
CUS0900400000109419349007         HCR MANOR CARE MARYL4669 FALLS RD                           000N        CARE OF             
MTR09004000001000000000000000RA              8036347     000600460000004600000380000003NN  NNW 000   FIRE SERVICE        N    
RDG09004000WATRL000000006K00000000000003701006501172015115425N000000000000N93       000330600K 10000000010000003701           
CUS0900400000109419351003         HCR MANOR CARE MARYL4669 FALLS RD                           000N        CARE OF             
MTR09004000001000000000000000RA              35116812    000200470000004700000520000003NN  NNW 000                       N    
RDG09004000WATRL000000005K00000000000092922006601172015115433N000000000000N93       000080500K 10000000010000092048           
CUS0900400000109377557005         DEER RIDGE TERRACE C1040 DEER RIDGE DR                      000N        CARE OF             
MTR09004000001000000000000000RA              0911752     000400480000004800000640000003NN  NNW 000                       N    
RDG09004000WATRL000000006K00000000000018518006701172015115447N000000000000N93       000140600K 10000000010000016879           
CUS0900400000109377562005         DEER RIDGE TERRACE C1040 DEER RIDGE DR                      000N        CARE OF             
MTR09004000003000000000000000RA              2024879     000600490000004900000390000003NY  NNW 000   FIRE SERVICE        N    
MTM090040002024879     ok                                                                                                     
RDG09004000WATAL000000006K00000000000000026006801172015115453N000000000000N93       000060600K 10000000010000000026           
RDG09004000WATBL000000006K00000000000000130006901172015115502N000100000010N93       000090600K 10000000010000000130           
RDG09004000WATCL000000006K00000000000000145007001172015115514N000300000010N93       000120600K 10000000010000000159           
CUS0900400000109257041005         BUREAU OF BLDG.CONST4600 FALLS RD                           000N        CARE OF             
MTR09004000002000000000000000RA              1902667     000800500000005000000630000003NY  NNW 000                       N    
MTM090040001902667     ok                                                                                                     
RDG09004000WATAL000000006K00000000000000011007101172015115528N000300000010N93       000140600K 10000000010000000012           
RDG09004000WATBL000000006K00000000000027960007201172015115540N000300000010N93       000120600K 10000000010000044003           
CUS0900400000109364649005         MT WASHINGTON HILLS 1700 W ROGERS AVE                       000N        CARE OF             
MTR09004000001000000000000000RA              9305967     000300510000005100000640000003NN  NNW 000                       N    
RDG09004000WATRL000000005K00000000000010335007301172015115546N000000000000N93       000060500K 10000000010000009748           
CUS0900400000109395024004         MT WASHINGTON PEDIAT1708 W ROGERS AVE                       000N        CARE OF             
MTR09004000001000000000000000RA              1228435     000300520000005200000470000003NY  NNW 000                       N    
MTM090040001228435     ok                                                                                                     
RDG09004000WATRL000000005K00000000000049377007401172015115600N000300000010N93       000140500K 10000000010000114811           
CUS0900400000109395022008         MT WASHINGTON PEDIAT1708 W ROGERS AVE                       000N        CARE OF             
MTR09004000002000000000000000RA              7211440     000800530000005300000630000003NY  NNW 000   FIRE SERVICE        N    
MTM090040007211440     ok                                                                                                     
RDG09004000WATAL000000006K00000000000000205007501172015115612N000100000010N93       000120600K 10000000010000000205           
RDG09004000WATBL000000006K00000000000000217007601172015115705N000400000010N93       000530600K 10000000010000000216           
CUS0900400000109257043001         GREENBERRY WOODS CON1901-29 GREENBERRY RD                   000N        CARE OF             
MTR09004000002000000000000000RA              0200749     000600540000005400000540000003NY  NNW 000                       N    
MTM090040000200749     ok                                                                                                     
RDG09004000WATAL000000006K00000000000000002007701172015115728N000300000010N93       000230600K 10000000010000000003           
RDG09004000WATBL000000006K00000000000000002007801172015115738N000100000010N93       000100600K 10000000010000000002           
CUS0900400000109257044009         GREENBERRY WOODS CON1900-16 GREENBERRY RD                   000N        CARE OF             
MTR09004000001000000000000000RA              01116741    000200550000005500000610000003NN  NNW 000                       N    
RDG09004000WATRL000000005K00000000000002855007901172015115744N000000000000N93       000060500K 10000000010000002705           
CUS0900400000109349220005         STATE OF MD-UNVI OF 2101 W ROGERS AVE                       000N        CARE OF             
MTR09004000001000000000000000RA              29768594    000200560000005600000520000003NY  NNW 000                       N    
MTM0900400029768594    c/o/v                                                                                                  
RDG09004000WATRL000000005K00000000000000000000000000000000000 000000000000U         000000500  10000000010000003892           
CUS0900400000109416754001         AGE WAVE PROPERTIES,2211 W ROGERS AVE                       000N        CARE OF             
MTR09004000001000000000000000RA              8031551     000800570000005700000380000003NN  NNW 000   FIRE SERVICE        N    
RDG09004000WATRL000000006K00000000000000090008001172015115802N000000000000N93       000180600K 10000000010000000090           
CUS0900400000109416756006         AGE WAVE PROPERTIES,2211 W ROGERS AVE                       000N        CARE OF             
MTR09004000001000000000000000RA              61381507    000400580000005800000470000003NN  NNW 000                       N    
RDG09004000WATRL000000006K00000000000035973008101172015115808N000000000000N93       000060600K 10000000010000034258           
CUS0900400000109257053000         GREENLYN APARTMENTS 2411-33 CYLBURN AVE                     000N        CARE OF             
MTR09004000001000000000000000RA              35109461    000200590000005900000520000003NN  NNW 000                       N    
RDG09004000WATRL000000005K00000000000030832008201172015115816N000000000000N93       000080500K 10000000010000030701           
CUS0900400000109257052002         GREENLYN APARTMENTS 4915-37 LANIER AVE                      000N        CARE OF             
MTR09004000001000000000000000RA              35116848    000200600000006000000520000003NN  NNW 000                       N    
RDG09004000WATRL000000005K00000000000028034008301172015115822N000000000000N93       000060500K 10000000010000027937           
CUS0900400000109257050006         GREENLYN APARTMENTS 2419-27 W GARRISON AVE                  000N        CARE OF             
MTR09004000001000000000000000RA              26791753    001500610000006100000520000003NN  NNW 000                       N    
RDG09004000WATRL000000005K00000000000002671008401172015115827N000000000000N93       000050500K 10000000010000002655           
CUS0900400000109257051004         GREENLYN APARTMENTS 2412-34 W GARRISON AVE                  000N        CARE OF             
MTR09004000001000000000000000RA              1305531     000200620000006200000490000003NY  NNW 000                       N    
MTM090040001305531     ok                                                                                                     
RDG09004000WATRL000000005K00000000000039272008501172015115837N000000000000N93       000100500K 10000000010000039272           
CUS0900400000109257049008         GREENLYN APARTMENTS 2409-17 W GARRISON AVE                  000N        CARE OF             
MTR09004000001000000000000000RA              01105187    001500630000006300000610000003NN  NNW 000                       N    
RDG09004000WATRL000000005K00000000000003703008601172015115851N000000000000N93       000140500K 10000000010000003629           
CUS0900400000109257054008         ROSALIND REALTY & CO2800-58 ROSALIND AVE                    000N        CARE OF             
MTR09004000001000000000000000RA              29768441    000200640000006400000520000003NY  NNW 000                       N    
MTM0900400029768441    ert                                                                                                    
RDG09004000WATRL000000005K00000000000000000000000000000000000 000000000000U         000000500  10000000010000076388           
CUS0900400000109257057001         SAGE MGMT, LLC      4704-18 GREENSPRING AVE                 000N        CARE OF             
MTR09004000001000000000000000RA              9215545     000300650000006500000640000003NN  NNW 000                       N    
RDG09004000WATRL000000005K00000000000008159008701172015115918N000000000000N93       000270500K 10000000010000007731           
CUS0900400000109257058009         SAGE VIRGINIA, LLC  2801-11 VIRGINIA AVE                    000N        CARE OF             
MTR09004000001000000000000000RA              9216210     000400660000006600000640000003NN  NNW 000                       N    
RDG09004000WATRL000000006K00000000000002421008801172015115923N000000000000N93       000050600K 10000000010000002036           
CUS0900400000109257059007         SAGE MGMT, LLC      2700-2808 VIRGINIA AVE                  000N        CARE OF             
MTR09004000001000000000000000RA              1305534     000200670000006700000490000003NY  NNW 000                       N    
MTM090040001305534     ert  ok                                                                                                
RDG09004000WATRL000000005K00000000000008001008901172015115951N000300000010N93       000280500K 10000000010000031285           
CUS0900400000109257060005         SAGE VIRGINIA LLC   2801 VIRGINIA AVE                       000N        CARE OF             
MTR09004000001000000000000000RA              9208091     000300680000006800000640000003NN  NNW 000                       N    
RDG09004000WATRL000000005K00000000000016036009001172015120010N000000000000N93       000190500K 10000000010000015732           
CUS0900400000109257061003         BUREAU OF INSPECTION4849 PIMLICO RD                         000N        CARE OF             
MTR09004000002000000000000000RA              4913837     000600690000006900000630000000NY  NNW 000                       N    
MTM090040004913837     no holes                                                                                               
RDG09004000WATAL000000006K00000000000000000000000000000000000 000000000000U         000000600  10000000010000000158           
RDG09004000WATBL000000006K00000000000000000000000000000000000 000000000000U         000000600  10000000010000009366           
CUS0900400000109257069006         GEORGE & AL, LLC    2607-25 W BELVEDERE AVE                 000N        CARE OF             
MTR09004000001000000000000000RA              1171153     000200700000007000000490000003NN  NNW 000                       N    
RDG09004000WATRL000000005K00000000000034706009101172015120044N000000000000N93       000340500K 10000000010000034058           
CUS0900400000109257070004         WHITE PINE HOLDINGS 2525 W BELVEDERE AVE                    000N        CARE OF             
MTR09004000002000000000000000RA              3103943     000400710000007100000630000003NN  NNW 000                       N    
RDG09004000WATAL000000006K00000000000000001009201172015120100N000400000010N93       000160600K 10000000010000000000           
RDG09004000WATBL000000006K00000000000005126009301172015120109N000400000010N93       000090600K 10000000010000004241           
CUS0900400000109257071002         CONCORD APARTMENTS I2500 W BELVEDERE AVE                    000N        CARE OF             
MTR09004000002000000000000000RA              5388338     000600720000007200000540000003NN  NNW 000                       N    
RDG09004000WATAL000000006K00000000000000037009401172015120118N000400000010N93       000090600K 10000000010000000036           
RDG09004000WATBL000000006K00000000000031061009501172015120129N000400000010N93       000110600K 10000000010000029404           
CUS0900400000109415337006         LEVINDALE CTR & HOSP2434 W BELVEDERE AVE                    000N        CARE OF             
MTR09004000002000000000000000RA              9406848     000800730000007300000540000000NN  NNW 000   FERRULE APPLIED     N    
RDG09004000WATAL000000006K00000000000000000009601172015120133S002000000000N93       000040600K 10000000010000000001           
RDG09004000WATBL000000006K00000000000000000009701172015120140S002000000000N93       000070600K 10000000010000068500           
CUS0900400000109445357008         LEVINDALE CTR & HOSP2434 W BELVEDERE AVE                    000N        CARE OF             
MTR09004000002000000000000000RA              10802553    001000740000007400000390000003NN  NNW 000                       N    
RDG09004000WATAL000000007K00000000000000065009801172015120147N000100000010N93       000070700K 10000000010000000065           
RDG09004000WATBL000000000K00000000000107182009901172015120206N000400000010N93       000191000K 10000000010000100594           
CUS0900400000109257075003         LEVINDALE HEBREW GER2434 W BELVEDERE AVE                    000N        CARE OF             
MTR09004000001000000000000000RA              9601811     000400750000007500000640000000NN  NNW 000                       N    
RDG09004000WATRL000000006K00000000000024606010001172015120212N000000000000N93       000060600K 10000000010000023168           
CUS0900400000109257074006         LEVINDALE HEBREW CEN2434 W BELVEDERE AVE                    000N        CARE OF             
MTR09004000001000000000000000RA              5275685     000400760000007600000410000000NN  NNW 000   FIRE SERVICE        N    
RDG09004000WATRL000000006K00000000000000002010101172015120215N000000000000N93       000030600K 10000000010000000002           
CUS0900400000109391197002         PIMLICO RACE COURSE 5201 PARK HTS AVE                       000N        CARE OF             
MTR09004000002000000000000000RA              7120827     000600770000007700000630000003NN  NNW 000   FIRE SERVICE        N    
RDG09004000WATAL000000006K00000000000000000010201172015120219N000000000000N93       000040600K 10000000010000000000           
RDG09004000WATBL000000006K00000000000000022010301172015120228N000100000010N93       000090600K 10000000010000000022           
CUS0900400000109391199008         PIMLICO RACE COURSE 5201 PARK HTS AVE                       000N        CARE OF             
MTR09004000002000000000000000RA              70219441    000300780000007800000470000003NN  NNW 000                       N    
RDG09004000WATAL000000005K00000000000000207010401172015120237N000400000010N93       000090500K 10000000010000000202           
RDG09004000WATBL000000000K00000000000002828010501172015120249N000400000010N93       000121000K 10000000010000002715           
CUS0900400000109257063009         MARYLAND JOCKEY CLUB5201 PARK HTS AVE                       000N        CARE OF             
MTR09004000001000000000000000RA              1314838     000400790000007900000490000003NN  NNW 000                       N    
RDG09004000WATRL000000006K00000000000014691010601172015120257N000000000000N93       000080600K 10000000010000012127           
CUS0900400000109438260003         SSSP ACQUISITIONS BA5301 PARK HTS AVE                       000N        CARE OF             
MTR09004000001000000000000000RA              8049914     000600800000008000000380000003NN  NNW 000   FIRE SERVICE        N    
RDG09004000WATRL000000006K00000000000009999010701172015120309N000000000000N93       000120600K 10000000010000009999           
CUS0900400000109438262009         SSSP ACQUISITIONS BA5301 PARK HTS AVE                       000N        CARE OF             
MTR09004000001000000000000000RA              00121045    007500810000008100000570000003NN  NNW 000                       N    
RDG09004000WATRL000000004K00000000000000529010801172015120314N000000000000N93       000050400K 10000000010000000513           
CUS0900400000109257066002         HOLY NAME CHURCH OF 5341-49 PARK HTS AVE                    000N        CARE OF             
MTR09004000001000000000000000RA              33415984    001500820000008200000520000003NY  NNW 000                       N    
MTM0900400033415984    ert                                                                                                    
RDG09004000WATRL000000005K00000000000000000000000000000000000 000000000000U         000000500  10000000010000001283           
CUS0900400000109257068008         MARYLAND JOCKEY CLUB2900 W ROGERS AVE                       000N        CARE OF             
MTR09004000002000000000000000RA              4135367     000800830000008300000540000003NN  NNW 000                       N    
RDG09004000WATAL000000006K00000000000000001010901172015120334N000100000010N93       000200600K 10000000010000000001           
RDG09004000WATBL000000006K00000000000063272011001172015120349N000400000010N93       000150600K 10000000010000062691           
CUS0900400000109257087008         THE CHIMES INC      1813 THORNBURY RD                       000N        CARE OF             
MTR09004000001000000000000000RA              50000260    000100840000008400000570000003NN  NNW 000                       N    
RDG09004000WATRL000000004K00000000000001072011101172015120353N000000000000N93       000040400K 10000000010000000925           
CUS0900400000109257086000         SCHOOL OF THE CHIMES1813 THORNBURY RD                       000N        CARE OF             
MTR09004000001000000000000000RA              3375642     000400850000008500000410000003NN  NNW 000   FIRE SERVICE        N    
RDG09004000WATRL000000006K00000000000000049011201172015120359N000000000000N93       000060600K 10000000010000000049           
CUS0900400000109257085002         THE CHIMES INC      1803 THORNBURY RD                       000N        CARE OF             
MTR09004000001000000000000000RA              01117217    000200860000008600000610000003NN  NNW 000                       N    
RDG09004000WATRL000000005K00000000000020311011301172015120404N000000000000N93       000050500K 10000000010000020168           
CUS0900400000109257084005         SCHOOL OF THE CHIMES1803 THORNBURY RD                       000N        CARE OF             
MTR09004000001000000000000000RA              4918922     000400870000008700000410000003NN  NNW 000   FIRE SERVICE        N    
RDG09004000WATRL000000006K00000000000000001011401172015120408N000000000000N93       000040600K 10000000010000000001           
CUS0900400000109257081001         SHRINE OF THE SACRED1701 REGENT RD                          000N        CARE OF             
MTR09004000001000000000000000RA              01105457    000200880000008800000610000003NN  NNW 000                       N    
RDG09004000WATRL000000005K00000000000001977011501172015120413N000000000000N93       000050500K 10000000010000001945           
RTR09004000NN01210121000001210000000000880088000039NY008800880121000600030000000000000000000001    01072015NY020000 N         
RHD02132000NN00160255000000160000023902550255000013NY025502550255000000030000000000000000000001    01202015NY020000 N         
CUS0213200000102310583006         NICOME, ALLAN J     4017 W ROGERS AVE                       000N        CARE OF             
MTR02132000001000000000000000RA              77878047    005800010000000100000360000003NN  NNW 000                       N    
RDG02132000WATR 000000004R00000000000000012000001212015180000N000300000020N         000000400R 10000000010000000000           
RFF0213200068385022      ERT      0000  956.44375000140000012120151800000000127412100W 1220000N                               
CUS0213200000102310584004         LUCY A SINGLETON    4015 W ROGERS AVE                       000N        CARE OF             
MTR02132000001000000000000000RA              77882446    005800020000000200000360000003NN  NNW 000                       N    
RDG02132000WATR 000000004R00000000000000007000001212015180000N000300000020N         000000400R 10000000010000000000           
RFF0213200068385026      ERT      0000  956.44375000140000012120151800000000073901100W 1220000N                               
CUS0213200000102310585001         MARTIN, ALBERT E    4013 W ROGERS AVE                       000N        CARE OF             
MTR02132000001000000000000000RA              01087641    005800030000000300000610000003NN  NNW 000                       N    
RDG02132000WATRL000000004K00000000000001187001601212015104543N000000000000U20       001100400K 10000000010000001174           
CUS0213200000102310586009         NIXON, WILHEL J     4011 W ROGERS AVE                       000N        CARE OF             
MTR02132000001000000000000000RA              77882372    005800040000000400000360000003NN  NNW 000                       N    
RDG02132000WATR 000000004R00000000000000005000001212015180000N000300000020N         000000400R 10000000010000000000           
RFF0213200068385089      ERT      0000  956.44375000140000012120151800000000051080100W 1220000N                               
CUS0213200000102310587007         DOMINION PROPERTIES,4009 W ROGERS AVE                       000N        CARE OF             
MTR02132000001000000000000000RA              77882371    005800050000000500000360000003NN  NNW 000                       N    
RDG02132000WATR 000000004R00000000000000035000001212015180000N000300000020N         000000400R 10000000010000000000           
RFF0213200068385278      ERT      0000  956.44375000140000012120151800000000358431100W 1220000N                               
CUS0213200000102310588005         SKINNER, MICHELLE   4007 W ROGERS AVE                       000N        CARE OF             
MTR02132000001000000000000000RA              77882447    005800060000000600000360000003NN  NNW 000                       N    
RDG02132000WATR 000000004R00000000000000019000001212015180000N000300000020N         000000400R 10000000010000000000           
RFF0213200068385015      ERT      0000  956.44375000140000012120151800000000190568100W 1220000N                               
CUS0213200000102310589003         DIXON, WALTER       4005 W ROGERS AVE                       000N        CARE OF             
MTR02132000001000000000000000RA              77882444    005800070000000700000360000003NN  NNW 000                       N    
RDG02132000WATR 000000004R00000000000000020000001212015180000N000300000020N         000000400R 10000000010000000000           
RFF0213200068384989      ERT      0000  956.44375000140000012120151800000000205717100W 1220000N                               
CUS0213200000102310590001         LEONARD L WHYE JR & 4003 W ROGERS AVE                       000N        CARE OF             
MTR02132000001000000000000000RA              77882448    005800080000000800000360000003NN  NNW 000                       N    
RDG02132000WATR 000000004R00000000000000011000001212015180000N000300000020N         000000400R 10000000010000000000           
RFF0213200068385145      ERT      0000  956.44375000140000012120151800000000110359100W 1220000N                               
CUS0213200000102310591009         HAMLIN, ROSA M      4001 W ROGERS AVE                       000N        CARE OF             
MTR02132000001000000000000000RA              77882445    005800090000000900000360000003NN  NNW 000                       N    
RDG02132000WATR 000000004R00000000000000031000001212015180000N000300000020N         000000400R 10000000010000000000           
RFF0213200068385023      ERT      0000  956.44375000140000012120151800000000314148100W 1220000N                               
CUS0213200000102310592007         RICHARD A SMITH     5444 PRICE AVE                          000N        CARE OF             
MTR02132000001000000000000000RA              77878215    005800100000001000000360000003NN  NNW 000                       N    
RDG02132000WATR 000000004R00000000000000005000001212015180000N000300000020N         000000400R 10000000010000000000           
RFF0213200068391209      ERT      0000  956.44375000140000012120151800000000056679100W 1220000N                               
CUS0213200000102310593005         BREWER, ANDRE       5442 PRICE AVE                          000N        CARE OF             
MTR02132000001000000000000000RA              77882349    005800110000001100000360000003NN  NNW 000   VACANT PROPERTY     N    
RDG02132000WATR 000000004R00000000000000006000001212015180000N000300000020N         000000400R 10000000010000000000           
RFF0213200068391316      ERT      0000  956.44375000140000012120151800000000069230100W 1220000N                               
CUS0213200000102310594003         EASLEY, JANELLE TANI5440 PRICE AVE                          000N        CARE OF             
MTR02132000001000000000000000RA              77882351    005800120000001200000360000003NN  NNW 000                       N    
RDG02132000WATR 000000004R00000000000000011000001212015180000N000300000020N         000000400R 10000000010000000000           
RFF0213200068391272      ERT      0000  956.44375000140000012120151800000000112048100W 1220000N                               
CUS0213200000102310595000         WILLIAMS, GLORIA L  5438 PRICE AVE                          000N        CARE OF             
MTR02132000001000000000000000RA              77882347    005800130000001300000360000003NN  NNW 000                       N    
RDG02132000WATR 000000004R00000000000000006000001212015180000N000300000020N         000000400R 10000000010000000000           
RFF0213200068391319      ERT      0000  956.44375000140000012120151800000000068734100W 1220000N                               
CUS0213200000102310596008         HABC                5436 PRICE AVE                          000N        CARE OF             
MTR02132000001000000000000000RA              77882440    005800140000001400000360000003NN  NNW 000                       N    
RDG02132000WATR 000000004R00000000000000015000001212015180000N000300000020N         000000400R 10000000010000000000           
RFF0213200068391049      ERT      0000  956.44375000140000012120151800000000150138100W 1220000N                               
CUS0213200000102310597006         BETTY L MORSE       5434 PRICE AVE                          000N        CARE OF             
MTR02132000001000000000000000RA              77882352    005800150000001500000360000003NN  NNW 000                       N    
RDG02132000WATR 000000004R00000000000000013000001212015180000N000300000020N         000000400R 10000000010000000000           
RFF0213200068391307      ERT      0000  956.44375000140000012120151800000000133313100W 1220000N                               
CUS0213200000102310598004         RUDOLPH LEWIS       5432 PRICE AVE                          000N        CARE OF             
MTR02132000001000000000000000RA              77878216    005800160000001600000360000003NN  NNW 000                       N    
RDG02132000WATR 000000004R00000000000000006000001212015180000N000300000020N         000000400R 10000000010000000000           
RFF0213200068391327      ERT      0000  956.44375000140000012120151800000000060787100W 1220000N                               
CUS0213200000102310599002         MALIK RASUL HABEEBUL5430 PRICE AVE                          000N        CARE OF             
MTR02132000001000000000000000RA              77878032    005800170000001700000360000003NN  NNW 000                       N    
RDG02132000WATR 000000004R00000000000000012000001212015180000N000300000020N         000000400R 10000000010000000000           
RFF0213200068385001      ERT      0000  956.44375000140000012120151800000000124481100W 1220000N                               
CUS0213200000102310600008         SMITH, ESTHER       5428 PRICE AVE                          000N        CARE OF             
MTR02132000001000000000000000RA              77882439    005800180000001800000360000003NN  NNW 000                       N    
RDG02132000WATR 000000004R00000000000000042000001212015180000N000300000020N         000000400R 10000000010000000000           
RFF0213200068391265      ERT      0000  956.44375000140000012120151800000000428525100W 1220000N                               
CUS0213200000102310601006         WILLIAM L SPRAGGINS 5426 PRICE AVE                          000N        CARE OF             
MTR02132000001000000000000000RA              77882437    005800190000001900000360000003NN  NNW 000                       N    
RDG02132000WATR 000000004R00000000000000011000001212015180000N000300000020N         000000400R 10000000010000000000           
RFF0213200068391203      ERT      0000  956.44375000140000012120151800000000114384100W 1220000N                               
CUS0213200000102310602004         ALEXANDER A CUMMINGS5424 PRICE AVE                          000N        CARE OF             
MTR02132000001000000000000000RA              77882261    005800200000002000000360000003NN  NNW 000                       N    
RDG02132000WATR 000000004R00000000000000001000001212015180000N000300000020N         000000400R 10000000010000000000           
RFF0213200068521295      ERT      0000  956.44375000140000012120151800000000019307100W 1220000N                               
CUS0213200000102310603002         BETTER, SHARRON     5422 PRICE AVE                          000N        CARE OF             
MTR02132000001000000000000000RA              77882259    005800210000002100000360000003NN  NNW 000                       N    
RDG02132000WATR 000000004R00000000000000004000001212015180000N000300000020N         000000400R 10000000010000000000           
RFF0213200068520819      ERT      0000  956.44375000140000012120151800000000041861100W 1220000N                               
CUS0213200000102310604000         JONES SR, ODELL     5420 PRICE AVE                          000N        CARE OF             
MTR02132000001000000000000000RA              77882438    005800220000002200000360000003NN  NNW 000                       N    
RDG02132000WATR 000000004R00000000000000036000001212015180000N000300000020N         000000400R 10000000010000000000           
RFF0213200068384580      ERT      0000  956.44375000140000012120151800000000366039100W 1220000N                               
CUS0213200000102310605007         WYATT, SYDNEY       5418 PRICE AVE                          000N        CARE OF             
MTR02132000001000000000000000RA              77882441    005800230000002300000360000003NN  NNW 000                       N    
RDG02132000WATR 000000004R00000000000000037000001212015180000N000300000020N         000000400R 10000000010000000000           
RFF0213200068384587      ERT      0000  956.44375000140000012120151800000000370085100W 1220000N                               
CUS0213200000102310606005         THELMA LAWHORN      5416 PRICE AVE                          000N        CARE OF             
MTR02132000001000000000000000RA              77882344    005800240000002400000360000003NN  NNW 000                       N    
RDG02132000WATR 000000004R00000000000000027000001212015180000N000300000020N         000000400R 10000000010000000000           
RFF0213200068384597      ERT      0000  956.44375000140000012120151800000000277544100W 1220000N                               
CUS0213200000102310607003         ELVIOLA PALMER      5414 PRICE AVE                          000N        CARE OF             
MTR02132000001000000000000000RA              77882442    005800250000002500000360000003NN  NNW 000                       N    
RDG02132000WATR 000000004R00000000000000030000001212015180000N000300000020N         000000400R 10000000010000000000           
RFF0213200068384581      ERT      0000  956.44375000140000012120151800000000304304100W 1220000N                               
CUS0213200000102310608001         RUBY E FAUST        5412 PRICE AVE                          000N        CARE OF             
MTR02132000001000000000000000RA              77882348    005800260000002600000360000003NN  NNW 000                       N    
RDG02132000WATR 000000004R00000000000000013000001212015180000N000300000020N         000000400R 10000000010000000000           
RFF0213200068391325      ERT      0000  956.44375000140000012120151800000000136159100W 1220000N                               
CUS0213200000102310609009         WILLIAM K TIDWELL   5410 PRICE AVE                          000N        CARE OF             
MTR02132000001000000000000000RA              77882343    005800270000002700000360000003NN  NNW 000                       N    
RDG02132000WATR 000000004R00000000000000143000001212015180000N000300000020N         000000400R 10000000010000000000           
RFF0213200068391235      ERT      0000  956.44375000140000012120151800000001430731100W 1220000N                               
CUS0213200000102310610007         MARLENE HUEY        5408 PRICE AVE                          000N        CARE OF             
MTR02132000001000000000000000RA              40323464    005800280000002800000520000003NN  NNW 000                       N    
RDG02132000WATRL000000004K00000000000000000001501212015104353S001000000000U20       000840400K 10000000010000001440           
CUS0213200000102310611005         JOHN E TOLAND       5406 PRICE AVE                          000N        CARE OF             
MTR02132000001000000000000000RA              77882342    005800290000002900000360000003NN  NNW 000                       N    
RDG02132000WATR 000000004R00000000000000018000001212015180000N000300000020N         000000400R 10000000010000000000           
RFF0213200068384573      ERT      0000  956.44375000140000012120151800000000185955100W 1220000N                               
CUS0213200000102310612003         WITHERSPOON, INEZ   5404 PRICE AVE                          000N        CARE OF             
MTR02132000001000000000000000RA              77882346    005800300000003000000360000003NN  NNW 000                       N    
RDG02132000WATR 000000004R00000000000000017000001212015180000N000300000020N         000000400R 10000000010000000000           
RFF0213200068384600      ERT      0000  956.44375000140000012120151800000000176791100W 1220000N                               
CUS0213200000102310613001         HYMAN STEINBERG     5402 PRICE AVE                          000N        CARE OF             
MTR02132000001000000000000000RA              77882345    005800310000003100000360000003NN  NNW 000                       N    
RDG02132000WATR 000000004R00000000000000000000001212015180000N000100000020N         000000400R 10000000010000000000           
RFF0213200068391309      ERT      0000  956.44375000140000012120151800000000005545100W 1220000N                               
CUS0213200000102310614009         HENRY J HART ETAL   5400 PRICE AVE                          000N        CARE OF             
MTR02132000001000000000000000RA              77884804    005800320000003200000360000003NN  NNW 000                       N    
RDG02132000WATR 000000004R00000000000000006000001212015180000N000300000020N         000000400R 10000000010000000000           
RFF0213200068384592      ERT      0000  956.44375000140000012120151800000000061336100W 1220000N                               
CUS0213200000102310620006         HOLLIMON, ADRIENNE  4029 LEWISTON AVE                       000N        CARE OF             
MTR02132000001000000000000000RA              77878025    005800330000003300000360000003NN  NNW 000                       N    
RDG02132000WATR 000000004R00000000000000027000001212015180000N000300000020N         000000400R 10000000010000000000           
RFF0213200068385264      ERT      0000  956.44375000140000012120151800000000274849100W 1220000N                               
CUS0213200000102310621004         JEFFERSON, ANTOINETT4027 LEWISTON AVE                       000N        CARE OF             
MTR02132000001000000000000000RA              77878026    005800340000003400000360000003NN  NNW 000                       N    
RDG02132000WATR 000000004R00000000000000000000001212015180000N000100000020N         000000400R 10000000010000000000           
RFF0213200068385238      ERT      0000  956.44375000140000012120151800000000000020100W 1220000N                               
CUS0213200000102310622002         ELLA L CAULK        4025 LEWISTON AVE                       000N        CARE OF             
MTR02132000001000000000000000RA              77882405    005800350000003500000360000003NN  NNW 000                       N    
RDG02132000WATR 000000004R00000000000000004000001212015180000N000300000020N         000000400R 10000000010000000000           
RFF0213200068385292      ERT      0000  956.44375000140000012120151800000000045076100W 1220000N                               
CUS0213200000102310623000         NATIONSTAR MORTGAGE,4023 LEWISTON AVE                       000N        CARE OF             
MTR02132000001000000000000000RA              77878085    005800360000003600000360000003NN  NNW 000   VACANT PROPERTY     N    
RDG02132000WATR 000000004R00000000000000000000001212015180000N000100000020N         000000400R 10000000010000000000           
RFF0213200068385298      ERT      0000  956.44375000140000012120151800000000004666100W 1220000N                               
CUS0213200000102310624008         BAGLEY, FRANCES B   4021 LEWISTON AVE                       000N        CARE OF             
MTR02132000001000000000000000RA              77882490    005800370000003700000360000003NN  NNW 000                       N    
RDG02132000WATR 000000004R00000000000000000000001212015180000N000100000020N         000000400R 10000000010000000000           
RFF0213200068385288      ERT      0000  956.44375000140000012120151800000000000016100W 1220000N                               
CUS0213200000102310625005         BROWN SR., RONALD E.4019 LEWISTON AVE                       000N        CARE OF             
MTR02132000001000000000000000RA              77882489    005800380000003800000360000003NN  NNW 000                       N    
RDG02132000WATR 000000004R00000000000000029000001212015180000N000300000020N         000000400R 10000000010000000000           
RFF0213200068385276      ERT      0000  956.44375000140000012120151800000000295047100W 1220000N                               
CUS0213200000102310626003         FREEMAN, CHARLES    4017 LEWISTON AVE                       000N        CARE OF             
MTR02132000001000000000000000RA              77882486    005800390000003900000360000003NN  NNW 000                       N    
RDG02132000WATR 000000004R00000000000000006000001212015180000N000300000020N         000000400R 10000000010000000000           
RFF0213200068384544      ERT      0000  956.44375000140000012120151800000000068958100W 1220000N                               
CUS0213200000102310627001         NELSON, CECILE A    4015 LEWISTON AVE                       000N        CARE OF             
MTR02132000001000000000000000RA              77878082    005800400000004000000360000003NN  NNW 000                       N    
RDG02132000WATR 000000004R00000000000000003000001212015180000N000300000020N         000000400R 10000000010000000000           
RFF0213200068385209      ERT      0000  956.44375000140000012120151800000000037594100W 1220000N                               
CUS0213200000102310628009         YOUNG JAMES E       4013 LEWISTON AVE                       000N        CARE OF             
MTR02132000001000000000000000RA              77878081    005800410000004100000360000003NN  NNW 000                       N    
RDG02132000WATR 000000004R00000000000000018000001212015180000N000300000020N         000000400R 10000000010000000000           
RFF0213200068385279      ERT      0000  956.44375000140000012120151800000000182908100W 1220000N                               
CUS0213200000102310629007         SMITH, PATRICIA     4011 LEWISTON AVE                       000N        CARE OF             
MTR02132000001000000000000000RA              77878086    005800420000004200000360000003NN  NNW 000                       N    
RDG02132000WATR 000000004R00000000000000026000001212015180000N000300000020N         000000400R 10000000010000000000           
RFF0213200068385220      ERT      0000  956.44375000140000012120151800000000267704100W 1220000N                               
CUS0213200000102310630005         BROWN, JOYCE        4009 LEWISTON AVE                       000N        CARE OF             
MTR02132000001000000000000000RA              77878083    005800430000004300000360000003NN  NNW 000                       N    
RDG02132000WATR 000000004R00000000000000003000001212015180000N000300000020N         000000400R 10000000010000000000           
RFF0213200068385195      ERT      0000  956.44375000140000012120151800000000032993100W 1220000N                               
CUS0213200000102310631003         EDWARDS, DAVIA      4007 LEWISTON AVE                       000N        CARE OF             
MTR02132000001000000000000000RA              77882406    005800440000004400000360000003NN  NNW 000                       N    
RDG02132000WATR 000000004R00000000000000015000001212015180000N000300000020N         000000400R 10000000010000000000           
RFF0213200068385304      ERT      0000  956.44375000140000012120151800000000159173100W 1220000N                               
CUS0213200000102310632001         SMITH, ROBERT A     4005 LEWISTON AVE                       000N        CARE OF             
MTR02132000001000000000000000RA              77882403    005800450000004500000360000003NN  NNW 000                       N    
RDG02132000WATR 000000004R00000000000000029000001212015180000N000300000020N         000000400R 10000000010000000000           
RFF0213200068385239      ERT      0000  956.44375000140000012120151800000000296711100W 1220000N                               
CUS0213200000102310633009         BUCHANAN INVESTMENT 4003 LEWISTON AVE                       000N        CARE OF             
MTR02132000001000000000000000RA              77882485    005800460000004600000360000003NN  NNW 000   VACANT PROPERTY     N    
RDG02132000WATR 000000004R00000000000000000000001212015180000N000100000020N         000000400R 10000000010000000000           
RFF0213200068385123      ERT      0000  956.44375000140000012120151800000000000016100W 1220000N                               
CUS0213200000102310634007         HOLMES, DENISE      4001 LEWISTON AVE                       000N        CARE OF             
MTR02132000001000000000000000RA              77882488    005800470000004700000360000003NN  NNW 000                       N    
RDG02132000WATR 000000004R00000000000000017000001212015180000N000300000020N         000000400R 10000000010000000000           
RFF0213200068385163      ERT      0000  956.44375000140000012120151800000000170895100W 1220000N                               
CUS0213200000102310635004         AUBREY DODSON       5401 PRICE AVE                          000N        CARE OF             
MTR02132000001000000000000000RA              77882401    005800480000004800000360000003NN  NNW 000                       N    
RDG02132000WATR 000000004R00000000000000005000001212015180000N000300000020N         000000400R 10000000010000000000           
RFF0213200068385223      ERT      0000  956.44375000140000012120151800000000056773100W 1220000N                               
CUS0213200000102310636002         MASSEAUX, KIA M     5403 PRICE AVE                          000N        CARE OF             
MTR02132000001000000000000000RA              77878027    005800490000004900000360000003NN  NNW 000                       N    
RDG02132000WATR 000000004R00000000000000015000001212015180000N000300000020N         000000400R 10000000010000000000           
RFF0213200068385003      ERT      0000  956.44375000140000012120151800000000153045100W 1220000N                               
CUS0213200000102310637000         RYLES JR, THOMAS A  5405 PRICE AVE                          000N        CARE OF             
MTR02132000001000000000000000RA              77878029    005800500000005000000360000003NN  NNW 000                       N    
RDG02132000WATR 000000004R00000000000000014000001212015180000N000300000020N         000000400R 10000000010000000000           
RFF0213200068385013      ERT      0000  956.44375000140000012120151800000000145276100W 1220000N                               
CUS0213200000102310638008         GALLOWAY, GENEVA    5407 PRICE AVE                          000N        CARE OF             
MTR02132000001000000000000000RA              77882491    005800510000005100000360000003NN  NNW 000                       N    
RDG02132000WATR 000000004R00000000000000011000001212015180000N000300000020N         000000400R 10000000010000000000           
RFF0213200068385040      ERT      0000  956.44375000140000012120151800000000114381100W 1220000N                               
CUS0213200000102310639006         RHODES, JOHNNY      5409 PRICE AVE                          000N        CARE OF             
MTR02132000001000000000000000RA              77882493    005800520000005200000360000003NN  NNW 000                       N    
RDG02132000WATR 000000004R00000000000000002000001212015180000N000300000020N         000000400R 10000000010000000000           
RFF0213200068385027      ERT      0000  956.44375000140000012120151800000000020381100W 1220000N                               
CUS0213200000102310640004         PAULA B CULLINGS    5411 PRICE AVE                          000N        CARE OF             
MTR02132000001000000000000000RA              77882404    005800530000005300000360000003NN  NNW 000   VACANT PROPERTY     N    
RDG02132000WATR 000000004R00000000000000000000001212015180000N000100000020N         000000400R 10000000010000000000           
RFF0213200068385267      ERT      0000  956.44375000140000012120151800000000001404100W 1220000N                               
CUS0213200000102310641002         IMELDA RUBIO        5413 PRICE AVE                          000N        CARE OF             
MTR02132000001000000000000000RA              77882402    005800540000005400000360000003NN  NNW 000                       N    
RDG02132000WATR 000000004R00000000000000008000001212015180000N000300000020N         000000400R 10000000010000000000           
RFF0213200068385266      ERT      0000  956.44375000140000012120151800000000085770100W 1220000N                               
CUS0213200000102310642000         CECELIA GUEST ROBINS5415 PRICE AVE                          000N        CARE OF             
MTR02132000001000000000000000RA              77878028    005800550000005500000360000003NN  NNW 000                       N    
RDG02132000WATR 000000004R00000000000000000000001212015180000N000100000020N         000000400R 10000000010000000000           
RFF0213200068385009      ERT      0000  956.44375000140000012120151800000000000020100W 1220000N                               
CUS0213200000102310643008         PATRICIA GAIL ROLLIN5417 PRICE AVE                          000N        CARE OF             
MTR02132000001000000000000000RA              75616430    005800560000005600000360000003NN  NNW 000   VACANT PROPERTY     N    
RDG02132000WATR 000000004R00000000000000000000001212015180000N000100000020N         000000400R 10000000010000000000           
RFF0213200068521181      ERT      0000  956.44375000140000012120151800000000000003100W 1220000N                               
CUS0213200000102310644006         MCBEAN, AINSWORTH   5419 PRICE AVE                          000N        CARE OF             
MTR02132000001000000000000000RA              77882492    005800570000005700000360000003NN  NNW 000                       N    
RDG02132000WATR 000000004R00000000000000008000001212015180000N000300000020N         000000400R 10000000010000000000           
RFF0213200068385025      ERT      0000  956.44375000140000012120151800000000085070100W 1220000N                               
CUS0213200000102310645003         HALL, STEPHANIE ANN 5421 PRICE AVE                          000N        CARE OF             
MTR02132000001000000000000000RA              77878031    005800580000005800000360000003NN  NNW 000                       N    
RDG02132000WATR 000000004R00000000000000005000001212015180000N000300000020N         000000400R 10000000010000000000           
RFF0213200068385030      ERT      0000  956.44375000140000012120151800000000052980100W 1220000N                               
CUS0213200000102310646001         RUDOLPH STERLING    5423 PRICE AVE                          000N        CARE OF             
MTR02132000001000000000000000RA              77882495    005800590000005900000360000003NN  NNW 000                       N    
RDG02132000WATR 000000004R00000000000000010000001212015180000N000300000020N         000000400R 10000000010000000000           
RFF0213200068385287      ERT      0000  956.44375000140000012120151800000000106338100W 1220000N                               
CUS0213200000102310647009         DORIS HOWARD        5425 PRICE AVE                          000N        CARE OF             
MTR02132000001000000000000000RA              77878030    005800600000006000000360000003NN  NNW 000                       N    
RDG02132000WATR 000000004R00000000000000025000001212015180000N000300000020N         000000400R 10000000010000000000           
RFF0213200068385274      ERT      0000  956.44375000140000012120151800000000253241100W 1220000N                               
CUS0213200000102310648007         TM3 HOME SOLUTIONS, 5427 PRICE AVE                          000N        CARE OF             
MTR02132000001000000000000000RA              75615575    005800610000006100000360000003NN  NNW 000                       N    
RDG02132000WATR 000000004R00000000000000134000001212015180000N000300000020N         000000400R 10000000010000000121           
RFF0213200068275126      ERT      0000  956.44375000140000012120151800000001340709100W 1220000N                               
CUS0213200000102310649005         SAVAGE, CHERYL A    5429 PRICE AVE                          000N        CARE OF             
MTR02132000001000000000000000RA              77882496    005800620000006200000360000003NN  NNW 000                       N    
RDG02132000WATR 000000004R00000000000000026000001212015180000N000300000020N         000000400R 10000000010000000000           
RFF0213200068385014      ERT      0000  956.44375000140000012120151800000000264509100W 1220000N                               
CUS0213200000102310650003         TAYLOR JR, GEORGE E 5431 PRICE AVE                          000N        CARE OF             
MTR02132000001000000000000000RA              77882494    005800630000006300000360000003NN  NNW 000                       N    
RDG02132000WATR 000000004R00000000000000012000001212015180000N000300000020N         000000400R 10000000010000000000           
RFF0213200068385012      ERT      0000  956.44375000140000012120151800000000126321100W 1220000N                               
CUS0213200000102310651001         MILDRED L WILSON    5433 PRICE AVE                          000N        CARE OF             
MTR02132000001000000000000000RA              77882326    005800640000006400000360000003NN  NNW 000                       N    
RDG02132000WATR 000000004R00000000000000007000001212015180000N000300000020N         000000400R 10000000010000000000           
RFF0213200068384990      ERT      0000  956.44375000140000012120151800000000079265100W 1220000N                               
CUS0213200000102310652009         CHARLES GRANT       5435 PRICE AVE                          000N        CARE OF             
MTR02132000001000000000000000RA              77882325    005800650000006500000360000003NN  NNW 000                       N    
RDG02132000WATR 000000004R00000000000000022000001212015180000N000300000020N         000000400R 10000000010000000000           
RFF0213200068385526      ERT      0000  956.44375000140000012120151800000000226051100W 1220000N                               
CUS0213200000102310653007         DELORES CARTER      5437 PRICE AVE                          000N        CARE OF             
MTR02132000001000000000000000RA              77882327    005800660000006600000360000003NN  NNW 000                       N    
RDG02132000WATR 000000004R00000000000000005000001212015180000N000300000020N         000000400R 10000000010000000000           
RFF0213200068384996      ERT      0000  956.44375000140000012120151800000000054139100W 1220000N                               
CUS0213200000102310654005         BORDLEY, MINNIE D   5439 PRICE AVE                          000N        CARE OF             
MTR02132000001000000000000000RA              77882328    005800670000006700000360000003NN  NNW 000                       N    
RDG02132000WATR 000000004R00000000000000020000001212015180000N000300000020N         000000400R 10000000010000000000           
RFF0213200068385268      ERT      0000  956.44375000140000012120151800000000207263100W 1220000N                               
CUS0213200000102310655002         PAIGE, MARION J.    5441 PRICE AVE                          000N        CARE OF             
MTR02132000001000000000000000RA              77882324    005800680000006800000360000003NN  NNW 000                       N    
RDG02132000WATR 000000004R00000000000000022000001212015180000N000300000020N         000000400R 10000000010000000000           
RFF0213200068385231      ERT      0000  956.44375000140000012120151800000000226099100W 1220000N                               
CUS0213200000102310656000         MIRIAM LEGETTE      5443 PRICE AVE                          000N        CARE OF             
MTR02132000001000000000000000RA              77882443    005800690000006900000360000003NN  NNW 000                       N    
RDG02132000WATR 000000004R00000000000000032000001212015180000N000300000020N         000000400R 10000000010000000000           
RFF0213200068385299      ERT      0000  956.44375000140000012120151800000000322189100W 1220000N                               
CUS0213200000102310657008         ARRINGTON, FRANCES M3923 W ROGERS AVE                       000N        CARE OF             
MTR02132000001000000000000000RA              77885066    005800700000007000000360000003NN  NNW 000                       N    
RDG02132000WATR 000000004R00000000000000000000001212015180000N000100000020N         000000400R 10000000010000000000           
RFF0213200068521158      ERT      0000  956.44375000140000012120151800000000003965100W 1220000N                               
CUS0213200000102310658006         ROSE H MOORE        3921 W ROGERS AVE                       000N        CARE OF             
MTR02132000001000000000000000RA              77885069    005800710000007100000360000003NN  NNW 000                       N    
RDG02132000WATR 000000004R00000000000000008000001212015180000N000300000020N         000000400R 10000000010000000000           
RFF0213200068521163      ERT      0000  956.44375000140000012120151800000000084869100W 1220000N                               
CUS0213200000102310659004         HARRIS, CHARLES L   3919 W ROGERS AVE                       000N        CARE OF             
MTR02132000001000000000000000RA              77884811    005800720000007200000360000003NN  NNW 000                       N    
RDG02132000WATR 000000004R00000000000000025000001212015180000N000300000020N         000000400R 10000000010000000000           
RFF0213200068385157      ERT      0000  956.44375000140000012120151800000000255284100W 1220000N                               
CUS0213200000102310660002         MARJORIE BESS       3917 W ROGERS AVE                       000N        CARE OF             
MTR02132000001000000000000000RA              77884810    005800730000007300000360000003NN  NNW 000                       N    
RDG02132000WATR 000000004R00000000000000025000001212015180000N000300000020N         000000400R 10000000010000000000           
RFF0213200068357453      ERT      0000  956.44375000140000012120151800000000250659100W 1220000N                               
CUS0213200000102310661000         SAMUEL, CELESTINE   3915 W ROGERS AVE                       000N        CARE OF             
MTR02132000001000000000000000RA              77878132    005800740000007400000360000003NN  NNW 000                       N    
RDG02132000WATR 000000004R00000000000000009000001212015180000N000300000020N         000000400R 10000000010000000000           
RFF0213200068352023      ERT      0000  956.44375000140000012120151800000000091061100W 1220000N                               
CUS0213200000102310662008         PHILLIP J EPPS SR   3913 W ROGERS AVE                       000N        CARE OF             
MTR02132000001000000000000000RA              77878131    005800750000007500000360000003NN  NNW 000                       N    
RDG02132000WATR 000000004R00000000000000040000001212015180000N000300000020N         000000400R 10000000010000000000           
RFF0213200068352047      ERT      0000  956.44375000140000012120151800000000409161100W 1220000N                               
CUS0213200000102310663006         DOBBINS, SYLVIA     3911 W ROGERS AVE                       000N        CARE OF             
MTR02132000001000000000000000RA              74689747    005800760000007600000360000003NN  NNW 000                       N    
RDG02132000WATR 000000004R00000000000000842000001212015180000N000300000020N         000000400R 10000000010000000676           
RFF0213200068274155      ERT      0000  956.44375000140000012120151800000008429688100W 1220000N                               
CUS0213200000102310664004         ROBERSON SR., GLEN M3909 W ROGERS AVE                       000N        CARE OF             
MTR02132000001000000000000000RA              77882411    005800770000007700000360000003NN  NNW 000                       N    
RDG02132000WATR 000000004R00000000000000018000001212015180000N000300000020N         000000400R 10000000010000000000           
RFF0213200068352050      ERT      0000  956.44375000140000012120151800000000182664100W 1220000N                               
CUS0213200000102310665001         HARRISON JEFFERSON  3907 W ROGERS AVE                       000N        CARE OF             
MTR02132000001000000000000000RA              77884809    005800780000007800000360000003NN  NNW 000                       N    
RDG02132000WATR 000000004R00000000000000005000001212015180000N000300000020N         000000400R 10000000010000000000           
RFF0213200068351904      ERT      0000  956.44375000140000012120151800000000054445100W 1220000N                               
CUS0213200000102310666009         THOMPSON, TIFFANY   3905 W ROGERS AVE                       000N        CARE OF             
MTR02132000001000000000000000RA              77884812    005800790000007900000360000003NN  NNW 000                       N    
RDG02132000WATR 000000004R00000000000000014000001212015180000N000300000020N         000000400R 10000000010000000000           
RFF0213200068351918      ERT      0000  956.44375000140000012120151800000000144985100W 1220000N                               
CUS0213200000102310667007         MORTON, DONNA LYNN  3903 W ROGERS AVE                       000N        CARE OF             
MTR02132000001000000000000000RA              77881857    005800800000008000000360000003NN  NNW 000                       N    
RDG02132000WATR 000000004R00000000000000011000001212015180000N000300000020N         000000400R 10000000010000000000           
RFF0213200068531398      ERT      0000  956.44375000140000012120151800000000118256100W 1220000N                               
CUS0213200000102310668005         EUGENE JORDAN       3901 W ROGERS AVE                       000N        CARE OF             
MTR02132000001000000000000000RA              77881860    005800810000008100000360000003NN  NNW 000                       N    
RDG02132000WATR 000000004R00000000000000000000001212015180000N000100000020N         000000400R 10000000010000000000           
RFF0213200068532075      ERT      0000  956.44375000140000012120151800000000007146100W 1220000N                               
CUS0213200000102310669003         JEFFERSON, HELEN A. 5442 GIST AVE                           000N        CARE OF             
MTR02132000001000000000000000RA              77878110    005800820000008200000360000003NN  NNW 000                       N    
RDG02132000WATR 000000004R00000000000000000000001212015180000N000100000020N         000000400R 10000000010000000000           
RFF0213200068351920      ERT      0000  956.44375000140000012120151800000000000019100W 1220000N                               
CUS0213200000102310670001         JACKSON, BARBARA A  5440 GIST AVE                           000N        CARE OF             
MTR02132000001000000000000000RA              77882518    005800830000008300000360000003NN  NNW 000                       N    
RDG02132000WATR 000000004R00000000000000022000001212015180000N000300000020N         000000400R 10000000010000000000           
RFF0213200068351921      ERT      0000  956.44375000140000012120151800000000222224100W 1220000N                               
CUS0213200000102310671009         BELTON ETAL, HELESTI5438 GIST AVE                           000N        CARE OF             
MTR02132000001000000000000000RA              77878176    005800840000008400000360000003NN  NNW 000                       N    
RDG02132000WATR 000000004R00000000000000007000001212015180000N000300000020N         000000400R 10000000010000000000           
RFF0213200068351908      ERT      0000  956.44375000140000012120151800000000078102100W 1220000N                               
CUS0213200000102310672007         SUMMERS, TWANA      5436 GIST AVE                           000N        CARE OF             
MTR02132000001000000000000000RA              77878109    005800850000008500000360000003NN  NNW 000                       N    
RDG02132000WATR 000000004R00000000000000007000001212015180000N000300000020N         000000400R 10000000010000000000           
RFF0213200068351903      ERT      0000  956.44375000140000012120151800000000074013100W 1220000N                               
CUS0213200000102310673005         ROBERT ALEXANDER    5434 GIST AVE                           000N        CARE OF             
MTR02132000001000000000000000RA              77878107    005800860000008600000360000003NN  NNW 000                       N    
RDG02132000WATR 000000004R00000000000000023000001212015180000N000300000020N         000000400R 10000000010000000000           
RFF0213200068385178      ERT      0000  956.44375000140000012120151800000000233986100W 1220000N                               
CUS0213200000102310674003         BLANCHE K TURNER    5432 GIST AVE                           000N        CARE OF             
MTR02132000001000000000000000RA              77884808    005800870000008700000360000003NN  NNW 000                       N    
RDG02132000WATR 000000004R00000000000000029000001212015180000N000300000020N         000000400R 10000000010000000000           
RFF0213200068357375      ERT      0000  956.44375000140000012120151800000000292447100W 1220000N                               
CUS0213200000102310675000         WILLIAMS, BARBARA   5430 GIST AVE                           000N        CARE OF             
MTR02132000001000000000000000RA              77884672    005800880000008800000360000003NN  NNW 000                       N    
RDG02132000WATR 000000004R00000000000000033000001212015180000N000300000020N         000000400R 10000000010000000000           
RFF0213200068351942      ERT      0000  956.44375000140000012120151800000000330320100W 1220000N                               
CUS0213200000102310676008         TELIA YOUNG         5428 GIST AVE                           000N        CARE OF             
MTR02132000001000000000000000RA              77878173    005800890000008900000360000003NN  NNW 000                       N    
RDG02132000WATR 000000004R00000000000000010000001212015180000N000300000020N         000000400R 10000000010000000000           
RFF0213200068351934      ERT      0000  956.44375000140000012120151800000000102960100W 1220000N                               
CUS0213200000102310677006         RUTH L MINTS        5426 GIST AVE                           000N        CARE OF             
MTR02132000001000000000000000RA              77878175    005800900000009000000360000003NN  NNW 000                       N    
RDG02132000WATR 000000004R00000000000000020000001212015180000N000300000020N         000000400R 10000000010000000000           
RFF0213200068351892      ERT      0000  956.44375000140000012120151800000000202127100W 1220000N                               
CUS0213200000102310678004         ALBERT BARNES       5424 GIST AVE                           000N        CARE OF             
MTR02132000001000000000000000RA              77884671    005800910000009100000360000003NN  NNW 000                       N    
RDG02132000WATR 000000004R00000000000000006000001212015180000N000300000020N         000000400R 10000000010000000000           
RFF0213200068384715      ERT      0000  956.44375000140000012120151800000000062515100W 1220000N                               
CUS0213200000102310679002         JAMES-BROWN, SHARON 5422 GIST AVE                           000N        CARE OF             
MTR02132000001000000000000000RA              77878199    005800920000009200000360000003NN  NNW 000                       N    
RDG02132000WATR 000000004R00000000000000019000001212015180000N000300000020N         000000400R 10000000010000000000           
RFF0213200068384813      ERT      0000  956.44375000140000012120151800000000195482100W 1220000N                               
CUS0213200000102310680000         STAINES ETAL, CORALY5420 GIST AVE                           000N        CARE OF             
MTR02132000001000000000000000RA              77878198    005800930000009300000360000003NN  NNW 000                       N    
RDG02132000WATR 000000004R00000000000000007000001212015180000N000300000020N         000000400R 10000000010000000000           
RFF0213200068385155      ERT      0000  956.44375000140000012120151800000000076296100W 1220000N                               
CUS0213200000102310681008         BRYANT, DAISY M   (L5418 GIST AVE                           000N        CARE OF             
MTR02132000001000000000000000RA              77878197    005800940000009400000360000003NN  NNW 000                       N    
RDG02132000WATR 000000004R00000000000000008000001212015180000N000300000020N         000000400R 10000000010000000000           
RFF0213200068385130      ERT      0000  956.44375000140000012120151800000000081630100W 1220000N                               
CUS0213200000102310682006         ROBINSON, RAYE G (LI5416 GIST AVE                           000N        CARE OF             
MTR02132000001000000000000000RA              77878196    005800950000009500000360000003NN  NNW 000                       N    
RDG02132000WATR 000000004R00000000000000004000001212015180000N000300000020N         000000400R 10000000010000000000           
RFF0213200068385144      ERT      0000  956.44375000140000012120151800000000048795100W 1220000N                               
CUS0213200000102310683004         AGGIE L BROWN & WF  5414 GIST AVE                           000N        CARE OF             
MTR02132000001000000000000000RA              77878195    005800960000009600000360000003NN  NNW 000                       N    
RDG02132000WATR 000000004R00000000000000014000001212015180000N000300000020N         000000400R 10000000010000000000           
RFF0213200068384692      ERT      0000  956.44375000140000012120151800000000140378100W 1220000N                               
CUS0213200000102310684002         HOLLY, LEONA M      5412 GIST AVE                           000N        CARE OF             
MTR02132000001000000000000000RA              77882323    005800970000009700000360000003NN  NNW 000                       N    
RDG02132000WATR 000000004R00000000000000019000001212015180000N000300000020N         000000400R 10000000010000000000           
RFF0213200068384703      ERT      0000  956.44375000140000012120151800000000195354100W 1220000N                               
CUS0213200000102310685009         MAURICE E WOODSON   5410 GIST AVE                           000N        CARE OF             
MTR02132000001000000000000000RA              77878024    005800980000009800000360000003NN  NNW 000   VACANT PROPERTY     N    
RDG02132000WATR 000000004R00000000000000000000001212015180000N000100000020N         000000400R 10000000010000000000           
RFF0213200068385117      ERT      0000  956.44375000140000012120151800000000000020100W 1220000N                               
CUS0213200000102310686007         ARCHIE HUGHES       5408 GIST AVE                           000N        CARE OF             
MTR02132000001000000000000000RA              77878021    005800990000009900000360000003NN  NNW 000                       N    
RDG02132000WATR 000000004R00000000000000000000001212015180000N000100000020N         000000400R 10000000010000000000           
RFF0213200068384818      ERT      0000  956.44375000140000012120151800000000000020100W 1220000N                               
CUS0213200000102310687005         STEWART, CHARLES    5406 GIST AVE                           000N        CARE OF             
MTR02132000001000000000000000RA              77878023    005801000000010000000360000003NN  NNW 000                       N    
RDG02132000WATR 000000004R00000000000000043000001212015180000N000300000020N         000000400R 10000000010000000000           
RFF0213200068385186      ERT      0000  956.44375000140000012120151800000000433115100W 1220000N                               
CUS0213200000102310688003         MCCOY, MARSHA E     5404 GIST AVE                           000N        CARE OF             
MTR02132000001000000000000000RA              77878084    005801010000010100000360000003NN  NNW 000                       N    
RDG02132000WATR 000000004R00000000000000009000001212015180000N000300000020N         000000400R 10000000010000000000           
RFF0213200068384568      ERT      0000  956.44375000140000012120151800000000095386100W 1220000N                               
CUS0213200000102310689001         ELLA L MANGUM       5402 GIST AVE                           000N        CARE OF             
MTR02132000001000000000000000RA              75614139    005801020000010200000350000003NN  NNW 000                       N    
RDG02132000WATRL000000004K00000000000000144001401212015104229N000000000000U20       001430400K 10000000010000000118           
CUS0213200000102310690009         TAYLOR, JACNITA     5400 GIST AVE                           000N        CARE OF             
MTR02132000001000000000000000RA              77882487    005801030000010300000360000003NN  NNW 000                       N    
RDG02132000WATR 000000004R00000000000000012000001212015180000N000300000020N         000000400R 10000000010000000000           
RFF0213200068385148      ERT      0000  956.44375000140000012120151800000000126022100W 1220000N                               
CUS0213200000102310691007         MR GANTT            5401 GIST AVE                           000N        CARE OF             
MTR02132000001000000000000000RA              77882432    005801040000010400000360000003NN  NNW 000                       N    
RDG02132000WATR 000000004R00000000000000007000001212015180000N000300000020N         000000400R 10000000010000000000           
RFF0213200068385152      ERT      0000  956.44375000140000012120151800000000072101100W 1220000N                               
CUS0213200000102310692005         DAVIS, JAMES J      5403 GIST AVE                           000N        CARE OF             
MTR02132000001000000000000000RA              77882436    005801050000010500000360000003NN  NNW 000                       N    
RDG02132000WATR 000000004R00000000000000001000001212015180000N000300000020N         000000400R 10000000010000000000           
RFF0213200068385008      ERT      0000  956.44375000140000012120151800000000014363100W 1220000N                               
CUS0213200000102310693003         PREMIER PROPERTY MGM5405 GIST AVE                           000N        CARE OF             
MTR02132000001000000000000000RA              77878022    005801060000010600000360000003NN  NNW 000                       N    
RDG02132000WATR 000000004R00000000000000001000001212015180000N000300000020N         000000400R 10000000010000000000           
RFF0213200068385146      ERT      0000  956.44375000140000012120151800000000010848100W 1220000N                               
CUS0213200000102310694001         MAURICE KING        5407 GIST AVE                           000N        CARE OF             
MTR02132000001000000000000000RA              77882435    005801070000010700000360000003NN  NNW 000                       N    
RDG02132000WATR 000000004R00000000000000015000001212015180000N000300000020N         000000400R 10000000010000000000           
RFF0213200068385113      ERT      0000  956.44375000140000012120151800000000157634100W 1220000N                               
CUS0213200000102310695008         HUGHES, CHANDRA D   5409 GIST AVE                           000N        CARE OF             
MTR02132000001000000000000000RA              77882431    005801080000010800000360000003NN  NNW 000                       N    
RDG02132000WATR 000000004R00000000000000032000001212015180000N000300000020N         000000400R 10000000010000000000           
RFF0213200068385172      ERT      0000  956.44375000140000012120151800000000322301100W 1220000N                               
CUS0213200000102310696006         BYFIELD, LAMAIRE A  5411 GIST AVE                           000N        CARE OF             
MTR02132000001000000000000000RA              77882519    005801090000010900000360000003NN  NNW 000                       N    
RDG02132000WATR 000000004R00000000000000014000001212015180000N000300000020N         000000400R 10000000010000000000           
RFF0213200068351907      ERT      0000  956.44375000140000012120151800000000149005100W 1220000N                               
CUS0213200000102310697004         FORD, SHEILA A      5413 GIST AVE                           000N        CARE OF             
MTR02132000001000000000000000RA              77882516    005801100000011000000360000003NN  NNW 000                       N    
RDG02132000WATR 000000004R00000000000000005000001212015180000N000300000020N         000000400R 10000000010000000000           
RFF0213200068351905      ERT      0000  956.44375000140000012120151800000000055947100W 1220000N                               
CUS0213200000102310698002         5415 GIST AVE LLC   5415 GIST AVE                           000N        CARE OF             
MTR02132000001000000000000000RA              77882515    005801110000011100000360000003NN  NNW 000                       N    
RDG02132000WATR 000000004R00000000000000020000001212015180000N000300000020N         000000400R 10000000010000000000           
RFF0213200068351911      ERT      0000  956.44375000140000012120151800000000208229100W 1220000N                               
CUS0213200000102310699000         WEBB, MICHAEL       5417 GIST AVE                           000N        CARE OF             
MTR02132000001000000000000000RA              77882433    005801120000011200000360000003NN  NNW 000                       N    
RDG02132000WATR 000000004R00000000000000026000001212015180000N000300000020N         000000400R 10000000010000000000           
RFF0213200068385147      ERT      0000  956.44375000140000012120151800000000269147100W 1220000N                               
CUS0213200000102310700006         LOTT JR, JAMES L    5419 GIST AVE                           000N        CARE OF             
MTR02132000001000000000000000RA              77882434    005801130000011300000360000003NN  NNW 000                       N    
RDG02132000WATR 000000004R00000000000000000000001212015180000N000100000020N         000000400R 10000000010000000000           
RFF0213200068385131      ERT      0000  956.44375000140000012120151800000000001668100W 1220000N                               
CUS0213200000102310701004         FLORA D CALDWELL    5421 GIST AVE                           000N        CARE OF             
MTR02132000001000000000000000RA              77878200    005801140000011400000360000003NN  NNW 000                       N    
RDG02132000WATR 000000004R00000000000000009000001212015180000N000300000020N         000000400R 10000000010000000000           
RFF0213200068385190      ERT      0000  956.44375000140000012120151800000000097958100W 1220000N                               
CUS0213200000102310702002         MACK, ANDREW E. (ETA5423 GIST AVE                           000N        CARE OF             
MTR02132000001000000000000000RA              77878105    005801150000011500000360000003NN  NNW 000                       N    
RDG02132000WATR 000000004R00000000000000012000001212015180000N000300000020N         000000400R 10000000010000000000           
RFF0213200068385162      ERT      0000  956.44375000140000012120151800000000126971100W 1220000N                               
CUS0213200000102310703000         RAGIN, CHARISSE N.  5425 GIST AVE                           000N        CARE OF             
MTR02132000001000000000000000RA              77884670    005801160000011600000360000003NN  NNW 000                       N    
RDG02132000WATR 000000004R00000000000000011000001212015180000N000300000020N         000000400R 10000000010000000000           
RFF0213200068351896      ERT      0000  956.44375000140000012120151800000000112210100W 1220000N                               
CUS0213200000102310704008         SPARKS, LINDA       5427 GIST AVE                           000N        CARE OF             
MTR02132000001000000000000000RA              77884674    005801170000011700000360000003NN  NNW 000                       N    
RDG02132000WATR 000000004R00000000000000021000001212015180000N000300000020N         000000400R 10000000010000000000           
RFF0213200068385481      ERT      0000  956.44375000140000012120151800000000213449100W 1220000N                               
CUS0213200000102310705005         TIMOTHY LEATHERS    5429 GIST AVE                           000N        CARE OF             
MTR02132000001000000000000000RA              77882517    005801180000011800000360000003NN  NNW 000                       N    
RDG02132000WATR 000000004R00000000000000017000001212015180000N000300000020N         000000400R 10000000010000000000           
RFF0213200068351927      ERT      0000  956.44375000140000012120151800000000173103100W 1220000N                               
