FHDNNNN010002517002517002526N                                                                                           007623
RHD09004400NN00870087000000870000000000780078000017NY007800780087000900020000000000000000000001    01222015NY020000 N         
CUS0900440000109257208000         JESSIE BELL XI LLC  4401 REISTERSTOWN RD                    000N        CARE OF             
MTR09004400001000000000000000RA              36700013    001500010000000100000520000003NN  NNW 000                       N    
RDG09004400WATRL000000005K00000000000025998000101262015122121N000000000000N93       000000500K 10000000010000025782           
CUS0900440000109437908008         SHANNON HOUSE, INC  3643 WOODLAND AVE                       000N        CARE OF             
MTR09004400001000000000000000RA              8048830     000600020000000200000380000003NN  NNW 000   FIRE SERVICE        N    
RDG09004400WATRL000000006K00000000000000000000201262015122124N000000000000N93       000030600K 10000000010000000000           
CUS0900440000109437903009         SHANNON HOUSE, INC  3643 WOODLAND AVE                       000N        CARE OF             
MTR09004400001000000000000000RA              01117021    000200030000000300000610000003NN  NNW 000                       N    
RDG09004400WATRL000000005K00000000000035805000301262015122129N000000000000N93       000050500K 10000000010000034889           
CUS0900440000109257213000         WEB WEALTH SERVICES,5011 ARBUTUS AVE                        000N        CARE OF             
MTR09004400001000000000000000RA              9310132     000400040000000400000640000003NY  NNW 000                       N    
MTM090044009310132     no holes                                                                                               
RDG09004400WATRL000000006K00000000000000000000000000000000000 000000000000U         000000600  10000000010000004287           
CUS0900440000109257212002         WEB WEALTH SERVICES,5011 ARBUTUS AVE                        000N        CARE OF             
MTR09004400001000000000000000RA              2756591     000600050000000500000410000003NY  NNW 000   CITY FIRE SERV      N    
MTM090044002756591     no holes                                                                                               
RDG09004400WATRL000000006K00000000000000000000000000000000000 000000000000U         000000600  10000000010000000000           
CUS0900440000109257214008         BUREAU OF SOLID WAST5030 REISTERSTOWN RD                    000N        CARE OF             
MTR09004400002000000000000000RA              5603826     000600060000000600000630000003NY  NNW 000                       N    
MTM090044005603826     no holes                                                                                               
RDG09004400WATAL000000006K00000000000000000000000000000000000 000000000000U         000000600  10000000010000000004           
RDG09004400WATBL000000006K00000000000000000000000000000000000 000000000000U         000000600  10000000010000005272           
CUS0900440000109257215005         SOUTHLAND CORPORATIO5129 REISTERSTOWN RD                    000N        CARE OF             
MTR09004400001000000000000000RA              00066666    000200070000000700000570000003NY  NNW 000                       N    
MTM0900440000066666    ok ert                                                                                                 
RDG09004400WATRL000000005K00000000000000009000401262015122319N000300000010N93       001100500K 10000000010000002940           
CUS0900440000109257216003         434100 FAMILY DOLLAR3901-25 W BELVEDERE AVE                 000N        CARE OF             
MTR09004400001000000000000000RA              14916981    005800080000000800000310000003NN  NNW 000                       N    
RDG09004400WATRL000000004K00000000000000574000501262015122323N000000000000N93       000040400K 10000000010000000553           
CUS0900440000109383243004         BELVEDERE ASSOCIATES3756 W BELVEDERE AVE                    000N        CARE OF             
MTR09004400001000000000000000RA              01117335    000200090000000900000610000003NY  NNW 000                       N    
MTM0900440001117335    ok ert                                                                                                 
RDG09004400WATRL000000005K00000000000000035000601262015122343N000300000010N93       000200500K 10000000010000009096           
CUS0900440000109257225004         HABC                3800-10 W BELVEDERE AVE                 000N        CARE OF             
MTR09004400002000000000000000RA              5275662     000600100000001000000540000003NY  NNW 000                       N    
MTM090044005275662     no holes                                                                                               
RDG09004400WATAL000000006K00000000000000000000000000000000000 000000000000U         000000600  10000000010000000018           
RDG09004400WATBL000000006K00000000000000000000000000000000000 000000000000U         000000600  10000000010000046211           
CUS0900440000109432851005         MORPHEUS FOUNDATION,5247-5249 REISTERSTOWN RD               000N        CARE OF             
MTR09004400001000000000000000RA              30002649    007500110000001100000570000000NN  NNW 000                       N    
RDG09004400WATRL000000004K00000000000000150000701262015122535N000000000000N93       001120400K 10000000010000000131           
CUS0900440000109257228008         NORTHWESTERN POLICE 5271 REISTERSTOWN RD                    000N        CARE OF             
MTR09004400001000000000000000RA              0808113     000300120000001200000640000003NN  NNW 000                       N    
RDG09004400WATRL000000005K00000000000002712000801262015122541N000000000000N93       000060500K 10000000010000002653           
CUS0900440000109418371002         CHOI, MYUNG SHIK    5401 REISTERSTOWN RD                    000N        CARE OF             
MTR09004400001000000000000000RA              14924607    005800130000001300000310000003NN  NNW 000                       N    
RDG09004400WATRL000000004K00000000000000453000901262015122546N000000000000N93       000050400K 10000000010000000445           
CUS0900440000109445761001         HILLTOP DEVELOPMENT 5415 REISTERSTOWN RD                    000N        CARE OF             
MTR09004400001000000000000000RA              14914991    001500140000001400000310000000NY  NNW 000                       N    
MTM0900440014914991    ok ert                                                                                                 
RDG09004400WATRL000000005K00000000000000055001001262015122605N000300000010N93       000190500K 10000000010000004016           
CUS0900440000109445759005         HILLTOP DEVELOPMENT 5415 REISTERSTOWN RD                    000N        CARE OF             
MTR09004400001000000000000000RA              09054022    000600150000001500000380000000NN  NNW 000   FIRE SERVICE        N    
RDG09004400WATRL000000006K00000000000000001001101262015122618N000000000000N93       000130600K 10000000010000000001           
CUS0900440000109257230004         HILLTOP DEVELOPMENT 5435-39 REISTERSTOWN RD                 000N        CARE OF             
MTR09004400001000000000000000RA              1171163     000200160000001600000490000003NN  NNW 000                       N    
RDG09004400WATRL000000005K00000000000004067001201262015122630N000000000000N93       000120500K 10000000010000003733           
CUS0900440000109257232000         MILFORD APARTMENTS I3912-70 W NORTHERN PKWY                 000N        CARE OF             
MTR09004400001000000000000000RA              9601812     000400170000001700000640000003NN  NNW 000                       N    
RDG09004400WATRL000000006K00000000000050651001301262015122636N000000000000N93       000060600K 10000000010000050450           
CUS0900440000109429185003         WALGREENS           4025 W NORTHERN PKWY                    000N        CARE OF             
MTR09004400001000000000000000RA              8042267     000600180000001800000380000000NN  NNW 000   FIRE SERVICE        N    
RDG09004400WATRL000000006K00000000000000000001401262015122640N000000000000N93       000040600K 10000000010000000000           
CUS0900440000109429187009         WALGREENS #5638     4025 W NORTHERN PKWY                    000N        CARE OF             
MTR09004400001000000000000000RA              99168611    001500190000001900000570000000NY  NNW 000                       N    
MTM0900440099168611    ok ert                                                                                                 
RDG09004400WATRL000000005K00000000000000005001501262015122703N000300000010N93       000230500K 10000000010000002498           
CUS0900440000109390994003         MOKO LLC            5627-35 REISTERSTOWN RD                 000N        CARE OF             
MTR09004400001000000000000000RA              35105172    000200200000002000000520000003NN  NNW 000                       N    
RDG09004400WATRL000000005K00000000000026709001601262015122715N000000000000N93       000120500K 10000000010000026239           
CUS0900440000109404246002         REISTERSTOWN RD LAND5801-15 REISTERSTOWN RD                 000N        CARE OF             
MTR09004400001000000000000000RA              42810997    005800210000002100000520000003NN  NNW 000                       N    
RDG09004400WATRL000000004K00000000000003039001701262015122719N000000000000N93       000040400K 10000000010000002999           
CUS0900440000109404244007         REISTERSTOWN RD LAND5801-15 REISTERSTOWN RD                 000N        CARE OF             
MTR09004400001000000000000000RA              7234756     000600220000002200000340000003NN  NNW 000   FIRE SERVICE        N    
RDG09004400WATRL000000006K00000000000000001001801262015122723N000000000000N93       000040600K 10000000010000000001           
CUS0900440000109257233008         CARBIZ SOUTH, LLC   5901-09 REISTERSTOWN RD                 000N        CARE OF             
MTR09004400001000000000000000RA              1327071     000200230000002300000490000003NN  NNW 000                       N    
RDG09004400WATRL000000005K00000000000030294001901262015122730N000000000000N93       000070500K 10000000010000030251           
CUS0900440000109257234006         CHO, DAVID DAESUNG  6125 REISTERSTOWN RD                    000N        CARE OF             
MTR09004400001000000000000000RA              01105768    000200240000002400000610000003NN  NNW 000                       N    
RDG09004400WATRL000000005K00000000000014045002001262015122737N000000000000N93       000070500K 10000000010000013724           
CUS0900440000109257235003         MAYOR & CITY COUNCIL6310 REISTERSTOWN RD                    000N        CARE OF             
MTR09004400001000000000000000RA              30478232    000200250000002500000520000003NN  NNW 000                       N    
RDG09004400WATRL000000005K00000000000006277002101262015122746N000400000010N93       000090500K 10000000010000006261           
CUS0900440000109257240003         PARK PLAZA APARTMENT4000-18 FORDS LN                        000N        CARE OF             
MTR09004400001000000000000000RA              35112665    000200260000002600000520000003NN  NNW 000                       N    
RDG09004400WATRL000000005K00000000000087854002201262015122755N000000000000N93       000090500K 10000000010000087330           
CUS0900440000109454798001         MANOR SOUTH, LTD    3617 FORDS LN                           000N        CARE OF             
MTR09004400001000000000000000RA              0006710     000400270000002700000520000003NY  NNW 000   FIRE SERVICE        N    
MTM090044000006710     const                                                                                                  
RDG09004400WATRL000000006K00000000000000000000000000000000000 000000000000U         000000600  10000000010000000000           
CUS0900440000109454800005         MANOR SOUTH, LTD    3617 FORDS LN                           000N        CARE OF             
MTR09004400001000000000000000RA              90000507    000200280000002800000570000003NY  NNW 000   VACANT PROPERTY     N    
MTM0900440090000507    const                                                                                                  
RDG09004400WATRL000000005K00000000000000000000000000000000000 000000000000U         000000500  10000000010000000000           
CUS0900440000109371675001         WEINBERG MANOR WEST 3615 FORDS LN                           000N        CARE OF             
MTR09004400001000000000000000RA              73819110    000300290000002900000490000003NN  NNW 000                       N    
RDG09004400WATRL000000005K00000000000001252002301262015122834N000300000010N93       000390500K 10000000010000000110           
CUS0900440000109257241001         3800-3912 FORDS LN  3800-3912 FORDS LN                      000N        CARE OF             
MTR09004400001000000000000000RA              9305934     000300300000003000000640000000NN  NNW 000                       N    
RDG09004400WATRL000000005K00000000000072111002401262015122845N000000000000N93       000110500K 10000000010000070549           
CUS0900440000109371674004         WEINBERG MANOR WEST 3615 FORDS LN                           000N        CARE OF             
MTR09004400002000000000000000RA              6029529     000600310000003100000480000003NY  NNW 000   FIRE SERVICE        N    
MTM090044006029529     ok                                                                                                     
RDG09004400WATAL000000006K00000000000000068002501262015122906N000300000010N93       000210600K 10000000010000000069           
RDG09004400WATBL000000006K00000000000000000002601262015122914N000100000010N93       000080600K 10000000010000000000           
CUS0900440000109257238007         CONSOLIDATED-FOUNTAI3612 FORDS LN                           000N        CARE OF             
MTR09004400001000000000000000RA              1396979     000200320000003200000490000003NN  NNW 000                       N    
RDG09004400WATRL000000005K00000000000045247002701262015122925N000000000010N93       000110500K 10000000010000044900           
CUS0900440000109257237009         WEINBERG MANOR EAST 3601 FORDS LN                           000N        CARE OF             
MTR09004400001000000000000000RA              1191918     000300330000003300000490000003NY  NNW 000                       N    
MTM090044001191918     ok ert                                                                                                 
RDG09004400WATRL000000005K00000000000003170002801262015122954N000000000010N93       000290500K 10000000010000019833           
CUS0900440000109257236001         MANOR EAST LIMITED P3601 FORDS LN                           000N        CARE OF             
MTR09004400001000000000000000RA              2371598     000600340000003400000410000003NN  NNW 000   FIRE SERVICE        N    
RDG09004400WATRL000000006K00000000000000075002901262015123001N000000000000N93       000070600K 10000000010000000075           
CUS0900440000109257239005         CONSOLIDATED FOUNTAI3612 FORDS LA REAR                      000N        CARE OF             
MTR09004400001000000000000000RA              31588390    000200350000003500000520000003NN  NNW 000                       N    
RDG09004400WATRL000000005K00000000000077589003001262015123008N000000000000N93       000070500K 10000000010000077304           
CUS0900440000109257244005         EMBASSY APARTMENTS, 3809 CLARKS LN                          000N        CARE OF             
MTR09004400001000000000000000RA              32905158    000200360000003600000520000003NN  NNW 000                       N    
RDG09004400WATRL000000005K00000000000013356003101262015123015N000000000000N93       000070500K 10000000010000012804           
CUS0900440000109257242009         BLUE OCEAN BRISTOL, 4001 CLARKS LN                          000N        CARE OF             
MTR09004400001000000000000000RA              9305956     000300370000003700000640000003NN  NNW 000                       N    
RDG09004400WATRL000000005K00000000000013260003201262015123022N000000000000N93       000070500K 10000000010000012234           
CUS0900440000109257243007         STANRHO LLC         3901-39 CLARKS LN                       000N        CARE OF             
MTR09004400001000000000000000RA              1376073     000400380000003800000490000003NN  NNW 000                       N    
RDG09004400WATRL000000006K00000000000044841003301262015123029N000000000000N93       000070600K 10000000010000042749           
CUS0900440000109257246000         LEE, PAUL E         3737 CLARKS LN                          000N        CARE OF             
MTR09004400001000000000000000RA              1292033     000300390000003900000470000003NN  NNW 000                       N    
RDG09004400WATRL000000005K00000000000088874003401262015123035N000000000000N93       000060500K 10000000010000088564           
CUS0900440000109257245002         SHELBOURE HOLDINGS, 3801-07 CLARKS LN                       000N        CARE OF             
MTR09004400001000000000000000RA              32573157    000200400000004000000520000003NN  NNW 000                       N    
RDG09004400WATRL000000005K00000000000016740003501262015123041N000000000000N93       000060500K 10000000010000016606           
CUS0900440000109415794008         COMMUNITY KOLLEL, IN3800 LABYRINTH RD                       000N        CARE OF             
MTR09004400001000000000000000RA              42877041    000200410000004100000520000003NN  NNW 000                       N    
RDG09004400WATRL000000005K00000000000007356003601262015123048N000000000000N93       000070500K 10000000010000007238           
CUS0900440000109257247008         GREEN ACRES APARTMEN3600-12 LABYRINTH RD                    000N        CARE OF             
MTR09004400001000000000000000RA              9502812     000300420000004200000640000003NN  NNW 000                       N    
RDG09004400WATRL000000005K00000000000038294003701262015123057N000000000000N93       000090500K 10000000010000036648           
CUS0900440000109445498000         4147 LABYRINTH ROAD,4147 LABYRINTH RD                       000N        CARE OF             
MTR09004400001000000000000000RA              8053606     000400430000004300000410000000NN  NNW 000   FIRE SERVICE        N    
RDG09004400WATRL000000006K00000000000000000003801262015123102N000000000000N93       000050600K 10000000010000000000           
CUS0900440000109445500003         4147 LABYRINTH ROAD,4147 LABYRINTH RD                       000N        CARE OF             
MTR09004400001000000000000000RA              90000157    000200440000004400000570000003NN  NNW 000                       N    
RDG09004400WATRL000000005K00000000000007390003901262015123107N000000000000N93       000050500K 10000000010000006796           
CUS0900440000109420641004         JEWISH RECOVERY HOUS3510-12 LABYRINTH RD                    000N        CARE OF             
MTR09004400001000000000000000RA              42877071    000200450000004500000520000003NN  NNW 000                       N    
RDG09004400WATRL000000005K00000000000005176004001262015123113N000000000000N93       000060500K 10000000010000004810           
CUS0900440000109447102006         B'NAI JACOB SHAAREE 6602 PARK HTS AVE                       000N        CARE OF             
MTR09004400001000000000000000RA              90000303    000200460000004600000570000000NN  NNW 000                       N    
RDG09004400WATRL000000005K00000000000000580004101262015123118N000000000000N93       000050500K 10000000010000000528           
CUS0900440000109447103004         B'NAI JACOB SHAAREE 6602 PARK HTS AVE                       000N        CARE OF             
MTR09004400001000000000000000RA              0006828     000600470000004700000570000003NN  NNW 000   FIRE SERVICE        N    
RDG09004400WATRL000000006K00000000000000000004201262015123131N000000000000N93       000130600K 10000000010000000000           
CUS0900440000109257248006         QUEST MGMT GROUP LLC6807 PARK HTS AVE                       000N        CARE OF             
MTR09004400001000000000000000RA              9102668     000300480000004800000640000003NN  NNW 000                       N    
RDG09004400WATRL000000005K00000000000045814004301262015123136N000000000000N93       000050500K 10000000010000044737           
CUS0900440000109443748000         OHR HAMIZARACH      6813 PARK HTS AVE                       000N        CARE OF             
MTR09004400001000000000000000RA              8052240     000600490000004900000410000003NN  NNW 000   FIRE SERVICE        N    
RDG09004400WATRL000000006K00000000000000000004401262015123139N000000000000N93       000030600K 10000000010000000000           
CUS0900440000109443752002         OHR HAMIZARACH      6813 PARK HTS AVE                       000N        CARE OF             
MTR09004400001000000000000000RA              01116970    000200500000005000000610000000NN  NNW 000                       N    
RDG09004400WATRL000000005K00000000000000756004501262015123144N000000000000N93       000050500K 10000000010000000727           
CUS0900440000109257249004         OXFORD HOUSE, LLC.  6810 PARK HTS AVE                       000N        CARE OF             
MTR09004400001000000000000000RA              1453153     000300510000005100000490000003NY  NNW 000                       N    
MTM090044001453153     n/a                                                                                                    
RDG09004400WATRL000000005K00000000000000000000000000000000000 000000000000U         000000500  10000000010000026120           
CUS0900440000109257251000         BOARD OF EDUCATION  6902 PARK HTS AVE                       000N        CARE OF             
MTR09004400001000000000000000RA              18048966    000600520000005200000550000003NN  NNW 000                       N    
RDG09004400WATRL000000006K00000000000023699004601262015123228N000000000000N93       000440600K 10000000010000023052           
CUS0900440000109257250002         BOARD OF EDUCATION  6902 PARK HTS AVE                       000N        CARE OF             
MTR09004400001000000000000000RA              2479231     000600530000005300000410000003NN  NNW 000   CITY FIRE SERV      N    
RDG09004400WATRL000000006K00000000000000000004701262015123235S005000000000U93       000070600K 10000000010000011398           
CUS0900440000109257252008         GREEN ACRES APARTMEN3607 FALLSTAFF RD                       000N        CARE OF             
MTR09004400001000000000000000RA              33084133    000200540000005400000520000003NN  NNW 000                       N    
RDG09004400WATRL000000005K00000000000053120004801262015123244N000000000000N93       000090500K 10000000010000052632           
CUS0900440000109257253006         MAYOR & CITY COUNCIL3801 FALLSTAFF RD                       000N        CARE OF             
MTR09004400001000000000000000RA              1327062     000200550000005500000490000003NN  NNW 000                       N    
RDG09004400WATRL000000005K00000000000019357004901262015123250N000000000000N93       000060500K 10000000010000019122           
CUS0900440000109257254004         THE TRIANGLE REALTY 4030-38 FALLSTAFF RD                    000N        CARE OF             
MTR09004400001000000000000000RA              01105345    001500560000005600000610000003NN  NNW 000                       N    
RDG09004400WATRL000000005K00000000000002243005001262015123257N000000000000N93       000070500K 10000000010000002167           
CUS0900440000109257255001         TRIANGLE REALTY &   4000-08 GLENGYLE AVE                    000N        CARE OF             
MTR09004400001000000000000000RA              54378003    000200570000005700000520000003NN  NNW 000                       N    
RDG09004400WATRL000000005K00000000000023842005101262015123306N000000000000N93       000090500K 10000000010000023460           
CUS0900440000109257256009         THE REGENCY CONDO AS3617-59 GLENGYLE AVE                    000N        CARE OF             
MTR09004400001000000000000000RA              9012789     000300580000005800000640000003NN  NNW 000                       N    
RDG09004400WATRL000000005K00000000000019273005201262015123314N000000000000N93       000080500K 10000000010000017961           
CUS0900440000109257257007         PARK HEIGHTS REALTY,7012-22 PARK HTS AVE                    000N        CARE OF             
MTR09004400001000000000000000RA              0911514     000300590000005900000640000003NN  NNW 000                       N    
RDG09004400WATRL000000005K00000000000008520005301262015123321N000000000000N93       000070500K 10000000010000008142           
CUS0900440000109257258005         PARK HEIGHTS REALTY,7000-10 PARK HTS AVE                    000N        CARE OF             
MTR09004400001000000000000000RA              0911538     000300600000006000000640000003NN  NNW 000                       N    
RDG09004400WATRL000000005K00000000000008064005401262015123328N000000000000N93       000070500K 10000000010000007532           
CUS0900440000109257259003         EXECUTIVE APARTMENTS7011-17 PARK HTS AVE                    000N        CARE OF             
MTR09004400001000000000000000RA              01105831    000200610000006100000610000003NN  NNW 000                       N    
RDG09004400WATRL000000005K00000000000023732005501262015123335N000000000000N93       000070500K 10000000010000023383           
CUS0900440000109257260001         THE PARK TOWER EAST 7111 PARK HTS AVE                       000N        CARE OF             
MTR09004400002000000000000000RA              4375409     000400620000006200000540000003NN  NNW 000                       N    
RDG09004400WATAL000000006K00000000000000000005601262015123347N000100000010N93       000120600K 10000000010000000000           
RDG09004400WATBL000000006K00000000000023239005701262015123358N000400000010N93       000110600K 10000000010000021093           
CUS0900440000109257261009         PARK TOWERS WEST CON7121 PARK HTS AVE                       000N        CARE OF             
MTR09004400001000000000000000RA              1314466     000400630000006300000490000003NN  NNW 000                       N    
RDG09004400WATRL000000006K00000000000238444005801262015123411N000000000000N93       000130600K 10000000010000237555           
CUS0900440000109257262007         SAGE PARK HEIGHTS, L7211 PARK HTS AVE                       000N        CARE OF             
MTR09004400001000000000000000RA              00066624    000200640000006400000570000003NN  NNW 000                       N    
RDG09004400WATRL000000005K00000000000020800005901262015123416N000000000000N93       000050500K 10000000010000020390           
CUS0900440000109257263005         SOUTHERN MGMT SITE C7219 PARK HTS AVE                       000N        CARE OF             
MTR09004400001000000000000000RA              35116891    000200650000006500000520000003NN  NNW 000                       N    
RDG09004400WATRL000000005K00000000000053215006001262015123422N000000000000N93       000060500K 10000000010000052839           
CUS0900440000109257266008         INGRAM MANOR PARTNER7311-13 PARK HTS AVE                    000N        CARE OF             
MTR09004400001000000000000000RA              35109457    000200660000006600000520000003NN  NNW 000                       N    
RDG09004400WATRL000000005K00000000000029614006101262015123428N000000000000N93       000060500K 10000000010000029433           
CUS0900440000109257267006         BALTIMORE HEBREW    7401 PARK HTS AVE                       000N        CARE OF             
MTR09004400002000000000000000RA              2556808     000400670000006700000480000003NN  NNW 000                       N    
RDG09004400WATAL000000006K00000000000000040006201262015123435N000100000010N93       000070600K 10000000010000000040           
RDG09004400WATBL000000006K00000000000000522006301262015123446N000400000010N93       000110600K 10000000010000000508           
CUS0900440000109396861008         BALTO HEBREW CONGREG7401-A PARK HTS AVE                     000N        CARE OF             
MTR09004400001000000000000000RA              00066669    000200680000006800000570000003NN  NNW 000                       N    
RDG09004400WATRL000000005K00000000000002032006401262015123451N000000000000N93       000050500K 10000000010000001984           
CUS0900440000109396855000         BALTO HEBREW CONGREG7401-A PARK HTS AVE                     000N        CARE OF             
MTR09004400001000000000000000RA              E23074      000600690000006900000430000003NN  NNW 000   FIRE SERVICE        N    
RDG09004400WATRL000000006K00000000000000000006501262015123455N000000000000N93       000040600K 10000000010000000000           
CUS0900440000109257264003         GREENBRIAR APTS, LLL7229-41 PARK HTS AVE                    000N        CARE OF             
MTR09004400001000000000000000RA              01105902    000200700000007000000610000003NN  NNW 000                       N    
RDG09004400WATRL000000005K00000000000023994006601262015123500N000000000000N93       000050500K 10000000010000023455           
CUS0900440000109257265000         INGRAM MANOR PARTNER7301 PARK HTS AVE                       000N        CARE OF             
MTR09004400002000000000000000RA              20000014    000300710000007100000460000003NY  NNW 000                       N    
MTM0900440020000014                        ok                                                                                 
RDG09004400WATAL000000005K00000000000000005006701262015123507N000100000010N93       000070500K 10000000010000000005           
RDG09004400WATBL000000005K00000000000001092006801262015123606N000000000000N93       000590500K 10000000010000010987           
CUS0900440000109349216003         SLADE VILLAGE CONDO 7400-7458 PARK HTS AVE                  000N        CARE OF             
MTR09004400002000000000000000RA              6012979     000800720000007200000630000003NN  NNW 000                       N    
RDG09004400WATAL000000006K00000000000000001006901262015123624N000100000010N93       000180600K 10000000010000000001           
RDG09004400WATBL000000006K00000000000009384007001262015123640N000400000010N93       000160600K 10000000010000008914           
CUS0900440000109257270000         OHEB SHALOM         7310 PARK HTS AVE                       000N        CARE OF             
MTR09004400002000000000000000RA              14931010    000400730000007300000460000003NY  NNW 000                       N    
MTM0900440014931010    ok                                                                                                     
RDG09004400WATAL000000006K00000000000000097007101262015123720N000300000010N93       000400600K 10000000010000000101           
RDG09004400WATBL000000006K00000000000008610007201262015123732N000300000010N93       000120600K 10000000010000009273           
CUS0900440000109430805003         OHEB SHALOM CONGREGA7310 PARK HTS AVE                       000N        CARE OF             
MTR09004400001000000000000000RA              8043834     000800740000007400000380000003NN  NNW 000   FIRE SERVICE        N    
RDG09004400WATRL000000006K00000000000000004007301262015123737N000000000000N93       000050600K 10000000010000000004           
CUS0900440000109430807009         OHEB SHALOM CONGREGA7310 PARK HTS AVE                       000N        CARE OF             
MTR09004400001000000000000000RA              99999999    007500750000007500000570000003NN  NNW 000                       N    
RDG09004400WATRL000000004K00000000000000000007401262015123754S002000000000N93       000170400K 10000000010000000288           
CUS0900440000109257271008         SHELBURNE CT CONDO A7300 PARK HTS AVE                       000N        CARE OF             
MTR09004400001000000000000000RA              35112647    000200760000007600000520000003NN  NNW 000                       N    
RDG09004400WATRL000000005K00000000000022662007501262015123800N000000000000N93       000060500K 10000000010000022478           
CUS0900440000109257272006         WILSHIRE REALTY 72207224 PARK HTS AVE                       000N        CARE OF             
MTR09004400001000000000000000RA              9055404     000300770000007700000640000003NN  NNW 000                       N    
RDG09004400WATRL000000005K00000000000027086007601262015123806N000000000000N93       000060500K 10000000010000026536           
CUS0900440000109349228008         SOUTHERN MGMT SITE C3700-02 SEVEN MILE LN                   000N        CARE OF             
MTR09004400002000000000000000RA              5977893     000800780000007800000540000003NN  NNW 000                       N    
RDG09004400WATAL000000006K00000000000000000007701262015123812N000100000010N93       000060600K 10000000010000000000           
RDG09004400WATBL000000006K00000000000036104007801262015123823N000400000010N93       000110600K 10000000010000033097           
RTR09004400NN00870087000000870000000000780078000017NY007800780087000900020000000000000000000001    01222015NY020000 N         
RHD04283000NN02450245000002450000000002450245000196NY024502450245000000020000000000000000000001    01052015NY020000 N         
CUS0428300000104275772004         SEO,KANG HUN        6000-04 HARFORD RD                      000N        CARE OF             
MTR04283000001000000000000000RA              39289683    005800010000000100000520000003NN  NNW 000                       N    
RDG04283000WATRL000000004K00000000000003380000101262015075821N000000000000N40       000000400K 10000000010000003265           
CUS0428300000104275773002         CALVARY EVANGELICAL 6008 HARFORD RD                         000N        CARE OF             
MTR04283000001000000000000000RA              33735528    005800020000000200000520000003NN  NNW 000                       N    
RDG04283000WATRL000000004K00000000000005372000201262015075908N000000000000N40       000470400K 10000000010000005369           
CUS0428300000104275774000         OGLE, DAWN G.       6012 HARFORD RD                         000N        CARE OF             
MTR04283000001000000000000000RA              33735621    005800030000000300000520000003NN  NNW 000                       N    
RDG04283000WATRL000000004K00000000000005512000301262015080002N000000000010N40       000540400K 10000000010000005508           
CUS0428300000104275775007         ONYEJIAKA, IGNATIUS 6014 HARFORD RD                         000N        CARE OF             
MTR04283000001000000000000000RA              01094780    005800040000000400000610000003NN  NNW 000                       N    
RDG04283000WATRL000000004K00000000000001603000401262015080049N000300000030N40       000470400K 10000000010000001217           
CUS0428300000104275776005         ELLIS, DAVID M.     6018 HARFORD RD                         000N        CARE OF             
MTR04283000001000000000000000RA              22607398    005800050000000500000520000003NN  NNW 000                       N    
RDG04283000WATRL000000004K00000000000001334000501262015080222N000000000020N40       000930400K 10000000010000001329           
CUS0428300000104402166005         ONYEJIAKA, IGNATIUS 6016 HARFORD RD                         000N        CARE OF             
MTR04283000001000000000000000RA              41080911    005800060000000600000520000003NN  NNW 000                       N    
RDG04283000WATRL000000004K00000000000000136000601262015080237N000400000010N40       000150400K 10000000010000000114           
CUS0428300000104275777003         GREAVER, JOSEPH E   6024 HARFORD RD                         000N        CARE OF             
MTR04283000001000000000000000RA              99388284    005800070000000700000570000003NN  NNW 000                       N    
RDG04283000WATRL000000004K00000000000002427000701262015080312N000000000000N40       000350400K 10000000010000002424           
CUS0428300000104275783001         HARVIEW ROOFING COMP6036 HARFORD RD                         000N        CARE OF             
MTR04283000001000000000000000RA              33735533    005800080000000800000520000003NN  NNW 000                       N    
RDG04283000WATRL000000004K00000000000001300000801262015080452N000000000020N40       001000400K 10000000010000001296           
CUS0428300000104275784009         WEBER TRUSTEE, MICHA6044 HARFORD RD                         000N        CARE OF             
MTR04283000001000000000000000RA              33084006    001500090000000900000520000003NN  NNW 000                       N    
RDG04283000WATRL000000005K00000000000005154000901262015080514N000000000000N40       000220500K 10000000010000005137           
CUS0428300000104275785006         STAMATHIS, DEMO E   2923 CHRISTOPHER AVE                    000N        CARE OF             
MTR04283000001000000000000000RA              23057831    005800100000001000000520000003NN  NNW 000                       N    
RDG04283000WATRL000000004K00000000000007196001001262015080647N000000000000N40       000930400K 10000000010000007172           
CUS0428300000104275786004         EDWARDS, BRENDA J.  2921 CHRISTOPHER AVE                    000N        CARE OF             
MTR04283000001000000000000000RA              23057952    005800110000001100000520000003NN  NNW 000                       N    
RDG04283000WATRL000000004K00000000000002581001101262015080816N000300000020N40       000890400K 10000000010000002558           
CUS0428300000104275787002         MANIGIONE, LOUIS J. 2919 CHRISTOPHER AVE                    000N        CARE OF             
MTR04283000001000000000000000RA              24221330    005800120000001200000520000003NN  NNW 000                       N    
RDG04283000WATRL000000004K00000000000003582001201262015080913N000000000000N40       000570400K 10000000010000003569           
CUS0428300000104275788000         WILLIAMS, ULDRINE V.2917 CHRISTOPHER AVE                    000N        CARE OF             
MTR04283000001000000000000000RA              45380528    005800130000001300000520000003NN  NNW 000                       N    
RDG04283000WATRL000000004K00000000000001544001301262015080957N000000000000N40       000440400K 10000000010000001537           
CUS0428300000104275789008         WILSON, ALVIN Q     2915 CHRISTOPHER AVE                    000N        CARE OF             
MTR04283000001000000000000000RA              36687032    005800140000001400000520000003NN  NNW 000                       N    
RDG04283000WATRL000000004K00000000000003472001401262015081033N000000000000N40       000360400K 10000000010000003437           
CUS0428300000104275790006         WISNIEWSKI, SHARON A2913 CHRISTOPHER AVE                    000N        CARE OF             
MTR04283000001000000000000000RA              35106627    005800150000001500000520000003NN  NNW 000                       N    
RDG04283000WATRL000000004K00000000000002974001501262015081137N000000000000N40       000640400K 10000000010000002964           
CUS0428300000104275791004         HESTER, DONALD G.   2911 CHRISTOPHER AVE                    000N        CARE OF             
MTR04283000001000000000000000RA              99387442    005800160000001600000570000003NN  NNW 000                       N    
RDG04283000WATRL000000004K00000000000001151001601262015081212N000000000000N40       000350400K 10000000010000001142           
CUS0428300000104275792002         ZABARKES, BENJAMIN Z2909 CHRISTOPHER AVE                    000N        CARE OF             
MTR04283000001000000000000000RA              01082822    005800170000001700000610000003NN  NNW 000                       N    
RDG04283000WATRL000000004K00000000000000783001701262015081303N000000000000N40       000510400K 10000000010000000774           
CUS0428300000104275793000         LEWIS JR., CHARLES E2907 CHRISTOPHER AVE                    000N        CARE OF             
MTR04283000001000000000000000RA              14917344    005800180000001800000310000003NN  NNW 000                       N    
RDG04283000WATRL000000004K00000000000000256001801262015081327N000000000000N40       000240400K 10000000010000000256           
CUS0428300000104275794008         BROWN, ANINA A      2905 CHRISTOPHER AVE                    000N        CARE OF             
MTR04283000001000000000000000RA              99290346    005800190000001900000570000003NN  NNW 000                       N    
RDG04283000WATRL000000004K00000000000001226001901262015081340N000000000000N40       000130400K 10000000010000001226           
CUS0428300000104275795005         HENRY P SINSZ       2903 CHRISTOPHER AVE                    000N        CARE OF             
MTR04283000001000000000000000RA              24766503    005800200000002000000520000003NN  NNW 000                       N    
RDG04283000WATRL000000004K00000000000002211002001262015081416N000000000000N40       000360400K 10000000010000002204           
CUS0428300000104275796003         GREENE-ROLLINS, TAWA2901 CHRISTOPHER AVE                    000N        CARE OF             
MTR04283000001000000000000000RA              01109341    005800210000002100000610000003NN  NNW 000                       N    
RDG04283000WATRL000000004K00000000000000767002101262015081447N000000000000N40       000310400K 10000000010000000758           
CUS0428300000104275797001         WILSON, SHANEIKA SPR2924 CHRISTOPHER AVE                    000N        CARE OF             
MTR04283000001000000000000000RA              29679479    005800220000002200000520000003NN  NNW 000                       N    
RDG04283000WATRL000000004K00000000000002181002201262015081709N000000000000N40       001420400K 10000000010000002157           
CUS0428300000104275798009         SACHS PROPERTIES, LL2926 CHRISTOPHER AVE                    000N        CARE OF             
MTR04283000001000000000000000RA              14901873    005800230000002300000310000003NN  NNW 000                       N    
RDG04283000WATRL000000004K00000000000003287002301262015081751N000000000000N40       000420400K 10000000010000003215           
CUS0428300000104275799007         KAZEMNIA, JAFAR S.  2927 SYLVAN AVE                         000N        CARE OF             
MTR04283000001000000000000000RA              33077175    005800240000002400000520000003NN  NNW 000   VACANT PROPERTY     N    
RDG04283000WATRL000000004K00000000000000000002401262015082051S022000000001N40       001760400K 10000000010000000050           
CUS0428300000104275800003         SMITH, FRANCES M    2925 SYLVAN AVE                         000N        CARE OF             
MTR04283000001000000000000000RA              33732864    005800250000002500000520000003NN  NNW 000                       N    
RDG04283000WATRL000000004K00000000000003644002501262015082113N000000000000N40       000220400K 10000000010000003634           
CUS0428300000104275801001         THERESE M SPADARO   2923 SYLVAN AVE                         000N        CARE OF             
MTR04283000001000000000000000RA              35103840    005800260000002600000520000003NN  NNW 000                       N    
RDG04283000WATRL000000004K00000000000001411002601262015082157N000000000000N40       000440400K 10000000010000001406           
CUS0428300000104275802009         TRAN, HONG T        2921 SYLVAN AVE                         000N        CARE OF             
MTR04283000001000000000000000RA              01109338    005800270000002700000610000003NN  NNW 000                       N    
RDG04283000WATRL000000004K00000000000000792002701262015082257N000000000000N40       000600400K 10000000010000000774           
CUS0428300000104275803007         HEISEY, ROSALIE ANNE2900 SYLVAN AVE                         000N        CARE OF             
MTR04283000001000000000000000RA              10010250    005800280000002800000570000003NN  NNW 000                       N    
RDG04283000WATRL000000004K00000000000000234002801262015082613N000400000010N40       001960400K 10000000010000000229           
CUS0428300000104275804005         MESEROLL, STEPHANIE 2902 SYLVAN AVE                         000N        CARE OF             
MTR04283000001000000000000000RA              46875973    005800290000002900000520000003NN  NNW 000                       N    
RDG04283000WATRL000000004K00000000000001155002901262015082650N000000000000N40       000370400K 10000000010000001146           
CUS0428300000104275805002         FINK, WILLIAM O     2904 SYLVAN AVE                         000N        CARE OF             
MTR04283000001000000000000000RA              23056990    005800300000003000000520000003NN  NNW 000                       N    
RDG04283000WATRL000000004K00000000000003162003001262015082731N000000000000N40       000410400K 10000000010000003153           
CUS0428300000104275806000         MICHAEL G DEMING & W2906 SYLVAN AVE                         000N        CARE OF             
MTR04283000001000000000000000RA              01115865    005800310000003100000610000003NN  NNW 000                       N    
RDG04283000WATRL000000004K00000000000000651003101262015082813N000000000000N40       000420400K 10000000010000000642           
CUS0428300000104275807008         MAHER JR., MICHAEL C2908 SYLVAN AVE                         000N        CARE OF             
MTR04283000001000000000000000RA              00134036    005800320000003200000570000003NN  NNW 000                       N    
RDG04283000WATRL000000004K00000000000001572003201262015082847N000000000000N40       000340400K 10000000010000001552           
CUS0428300000104275808006         KEMPA SR, BERNARD J 2910 SYLVAN AVE                         000N        CARE OF             
MTR04283000001000000000000000RA              10019869    005800330000003300000570000003NN  NNW 000                       N    
RDG04283000WATRL000000004K00000000000000217003301262015082919N000000000000N40       000320400K 10000000010000000194           
CUS0428300000104275809004         HARGROVE, MICHAEL A.2912 SYLVAN AVE                         000N        CARE OF             
MTR04283000001000000000000000RA              23056999    005800340000003400000520000003NN  NNW 000                       N    
RDG04283000WATRL000000004K00000000000000026003401262015082948N000000000000N40       000290400K 10000000010000000017           
CUS0428300000104275810002         MORISI, DOMINIC T   2914 SYLVAN AVE                         000N        CARE OF             
MTR04283000001000000000000000RA              00132786    005800350000003500000570000003NN  NNW 000                       N    
RDG04283000WATRL000000004K00000000000000710003501262015083020N000000000010N40       000320400K 10000000010000000710           
CUS0428300000104275811000         HOM, STEVEN W       2916 SYLVAN AVE                         000N        CARE OF             
MTR04283000001000000000000000RA              23842030    005800360000003600000520000003NN  NNW 000                       N    
RDG04283000WATRL000000004K00000000000001675003601262015083051N000000000000N40       000310400K 10000000010000001670           
CUS0428300000104275812008         DENNING, JACKIE B.  2918 SYLVAN AVE                         000N        CARE OF             
MTR04283000001000000000000000RA              10009429    005800370000003700000570000003NN  NNW 000                       N    
RDG04283000WATRL000000004K00000000000000206003701262015083125N000000000000N40       000340400K 10000000010000000194           
CUS0428300000104275813006         SALLGREN, CHARLENE  2920 SYLVAN AVE                         000N        CARE OF             
MTR04283000001000000000000000RA              54349323    005800380000003800000520000003NN  NNW 000                       N    
RDG04283000WATRL000000004K00000000000000934003801262015083151N000000000000N40       000260400K 10000000010000000925           
CUS0428300000104275814004         TURMEL, ALBERT A    2922 SYLVAN AVE                         000N        CARE OF             
MTR04283000001000000000000000RA              27133576    005800390000003900000520000003NN  NNW 000                       N    
RDG04283000WATRL000000004K00000000000003071003901262015083226N000000000000N40       000350400K 10000000010000003052           
CUS0428300000104275815001         HUTCHINSON-KEITH, LI2924 SYLVAN AVE                         000N        CARE OF             
MTR04283000001000000000000000RA              33732863    005800400000004000000520000003NN  NNW 000                       N    
RDG04283000WATRL000000004K00000000000001677004001262015083251N000000000000N40       000250400K 10000000010000001645           
CUS0428300000104275816009         FRETER, DAVID M.    2926 SYLVAN AVE                         000N        CARE OF             
MTR04283000001000000000000000RA              33732860    005800410000004100000520000003NN  NNW 000                       N    
RDG04283000WATRL000000004K00000000000004354004101262015083345N000000000000N40       000540400K 10000000010000004342           
CUS0428300000104275817007         JAMES F KEIMIG      2928 SYLVAN AVE                         000N        CARE OF             
MTR04283000001000000000000000RA              33732861    005800420000004200000520000003NN  NNW 000                       N    
RDG04283000WATRL000000004K00000000000003462004201262015083429N000000000000N40       000440400K 10000000010000003445           
CUS0428300000104275818005         GUGLIETTE, JASON    2930 SYLVAN AVE                         000N        CARE OF             
MTR04283000001000000000000000RA              99391720    005800430000004300000570000003NN  NNW 000                       N    
RDG04283000WATRL000000004K00000000000000748004301262015083505N000000000000N40       000360400K 10000000010000000728           
CUS0428300000104275819003         SACHS PROPERTIES, LL6200 HARFORD RD                         000N        CARE OF             
MTR04283000001000000000000000RA              33731227    007500440000004400000520000003NN  NNW 000                       N    
RDG04283000WATRL000000004K00000000000002501004401262015083616N000000000000N40       000710400K 10000000010000002494           
CUS0428300000104275820001         JONES, TONYA        2919 LOUISE AVE                         000N        CARE OF             
MTR04283000001000000000000000RA              24769805    005800450000004500000520000003NN  NNW 000                       N    
RDG04283000WATRL000000004K00000000000004097004501262015083735N000000000000N40       000790400K 10000000010000004069           
CUS0428300000104275821009         SIMMONS, KEVIN L.   2917 LOUISE AVE                         000N        CARE OF             
MTR04283000001000000000000000RA              54349321    005800460000004600000520000003NN  NNW 000                       N    
RDG04283000WATRL000000004K00000000000001033004601262015083757N000000000000N40       000220400K 10000000010000001033           
CUS0428300000104275822007         LANG, LORRAINE      2915 LOUISE AVE                         000N        CARE OF             
MTR04283000001000000000000000RA              11428224    005800470000004700000570000003NN  NNW 000                       N    
RDG04283000WATRL000000004K00000000000002615004701262015083830N000000000000N40       000330400K 10000000010000002607           
CUS0428300000104275823005         KELLY, DONNELL A.   2913 LOUISE AVE                         000N        CARE OF             
MTR04283000001000000000000000RA              01109342    005800480000004800000610000003NN  NNW 000                       N    
RDG04283000WATRL000000004K00000000000000639004801262015083908N000000000000N40       000380400K 10000000010000000622           
CUS0428300000104275824003         JEROME/CAROLYN WEBB 2911 LOUISE AVE                         000N        CARE OF             
MTR04283000001000000000000000RA              23057500    005800490000004900000520000003NN  NNW 000                       N    
RDG04283000WATRL000000004K00000000000000245004901262015083957N000100000010N40       000490400K 10000000010000000245           
CUS0428300000104275825000         ARMADA, DAVID M     2909 LOUISE AVE                         000N        CARE OF             
MTR04283000001000000000000000RA              54349756    005800500000005000000520000003NN  NNW 000                       N    
RDG04283000WATRL000000004K00000000000000920005001262015084050N000000000000N40       000530400K 10000000010000000913           
CUS0428300000104275826008         SCHNEIDER, NATHAN G.2907 LOUISE AVE                         000N        CARE OF             
MTR04283000001000000000000000RA              99999999    005800510000005100000520000003NN  NNW 000                       N    
RDG04283000WATRL000000004K00000000000001356005101262015084136N000000000010N40       000460400K 10000000010000001353           
CUS0428300000104275827006         BYRNE, LAURA        2905 LOUISE AVE                         000N        CARE OF             
MTR04283000001000000000000000RA              54349387    005800520000005200000520000003NN  NNW 000                       N    
RDG04283000WATRL000000004K00000000000000846005201262015084240N000000000000N40       000640400K 10000000010000000839           
CUS0428300000104275828004         REINHARDT, JAMES W. 2903 LOUISE AVE                         000N        CARE OF             
MTR04283000001000000000000000RA              24772629    005800530000005300000520000003NN  NNW 000                       N    
RDG04283000WATRL000000004K00000000000001787005301262015084345N000000000000N40       000650400K 10000000010000001787           
CUS0428300000104275829002         HEADLEY, ESTHER B   2901 LOUISE AVE                         000N        CARE OF             
MTR04283000001000000000000000RA              99287612    005800540000005400000570000003NN  NNW 000                       N    
RDG04283000WATRL000000004K00000000000000132005401262015084448N000000000010N40       000630400K 10000000010000000132           
CUS0428300000104275830000         HUDACK, ADAM        2819 LOUISE AVE                         000N        CARE OF             
MTR04283000001000000000000000RA              50476884    005800550000005500000520000003NN  NNW 000                       N    
RDG04283000WATRL000000004K00000000000000812005501262015084537N000000000000N40       000490400K 10000000010000000794           
CUS0428300000104275831008         RICH, WILLIAM ELSTON2817 LOUISE AVE                         000N        CARE OF             
MTR04283000001000000000000000RA              01097087    005800560000005600000610000003NN  NNW 000                       N    
RDG04283000WATRL000000004K00000000000000825005601262015084612N000000000000N40       000350400K 10000000010000000787           
CUS0428300000104275832006         WILLIAM J KRASTEL JR2815 LOUISE AVE                         000N        CARE OF             
MTR04283000001000000000000000RA              54349757    005800570000005700000520000003NN  NNW 000                       N    
RDG04283000WATRL000000004K00000000000001047005701262015084654N000000000000N40       000420400K 10000000010000001036           
CUS0428300000104275833004         JORDAN, NORMA JEAN  2813 LOUISE AVE                         000N        CARE OF             
MTR04283000001000000000000000RA              24761990    005800580000005800000520000003NN  NNW 000   VACANT PROPERTY     N    
RDG04283000WATRL000000004K00000000000003114005801262015084709N000000000000N40       000150400K 10000000010000003114           
CUS0428300000104275834002         COUGHLIN, PAUL      2811 LOUISE AVE                         000N        CARE OF             
MTR04283000001000000000000000RA              14920522    005800590000005900000310000003NN  NNW 000                       N    
RDG04283000WATRL000000004K00000000000000512005901262015084755N000000000000N40       000460400K 10000000010000000488           
CUS0428300000104275835009         KENNETH W DOWNEY    2809 LOUISE AVE                         000N        CARE OF             
MTR04283000001000000000000000RA              14913514    005800600000006000000310000003NN  NNW 000                       N    
RDG04283000WATRL000000004K00000000000000446006001262015084833N000000000000N40       000380400K 10000000010000000430           
CUS0428300000104275836007         HUGHES, ANGELA      2807 LOUISE AVE                         000N        CARE OF             
MTR04283000001000000000000000RA              35097283    005800610000006100000520000003NN  NNW 000                       N    
RDG04283000WATRL000000004K00000000000000927006101262015084912N000000000000N40       000390400K 10000000010000000917           
CUS0428300000104275837005         BACHMAN, JOHN       2805 LOUISE AVE                         000N        CARE OF             
MTR04283000001000000000000000RA              32176901    005800620000006200000520000003NN  NNW 000                       N    
RDG04283000WATRL000000004K00000000000001124006201262015084958N000000000000N40       000460400K 10000000010000001115           
CUS0428300000104275838003         KRAUS, BARRY SCOTT  2801 LOUISE AVE                         000N        CARE OF             
MTR04283000001000000000000000RA              75614385    005800630000006300000350000003NN  NNW 000                       N    
RDG04283000WATRL000000004K00000000000000160006301262015085134N000000000000N40       000960400K 10000000010000000134           
CUS0428300000104275839001         HAMLETT, KENNETH G. 2800 LOUISE AVE                         000N        CARE OF             
MTR04283000001000000000000000RA              35107785    005800640000006400000520000003NN  NNW 000                       N    
RDG04283000WATRL000000004K00000000000005089006401262015085222N000000000000N40       000480400K 10000000010000005076           
CUS0428300000104275840009         SMITH, PAUL B       2802 LOUISE AVE                         000N        CARE OF             
MTR04283000001000000000000000RA              39290616    005800650000006500000520000003NN  NNW 000                       N    
RDG04283000WATRL000000004K00000000000001706006501262015085300N000000000000N40       000380400K 10000000010000001695           
CUS0428300000104275841007         VIRGINIA M EVANS ETA2804 LOUISE AVE                         000N        CARE OF             
MTR04283000001000000000000000RA              01113535    005800660000006600000610000003NN  NNW 000                       N    
RDG04283000WATRL000000004K00000000000001583006601262015085336N000000000000N40       000360400K 10000000010000001539           
CUS0428300000104275842005         CANE, MICAH D.      2806 LOUISE AVE                         000N        CARE OF             
MTR04283000001000000000000000RA              10003295    005800670000006700000570000003NN  NNW 000                       N    
RDG04283000WATRL000000004K00000000000000665006701262015085410N000000000000N40       000340400K 10000000010000000627           
CUS0428300000104275843003         MELCHIN, PAUL B     2808 LOUISE AVE                         000N        CARE OF             
MTR04283000001000000000000000RA              27819377    005800680000006800000520000003NN  NNW 000                       N    
RDG04283000WATRL000000004K00000000000002178006801262015085445N000000000000N40       000350400K 10000000010000002148           
CUS0428300000104275844001         MOHR, PATRICIA ANN  2810 LOUISE AVE                         000N        CARE OF             
MTR04283000001000000000000000RA              01090593    005800690000006900000610000003NN  NNW 000                       N    
RDG04283000WATRL000000004K00000000000000943006901262015085531N000000000000N40       000460400K 10000000010000000932           
CUS0428300000104275845008         KEENAN, PATRICK B   2812 LOUISE AVE                         000N        CARE OF             
MTR04283000001000000000000000RA              24233980    005800700000007000000520000003NN  NNW 000                       N    
RDG04283000WATRL000000004K00000000000000241007001262015085625N000000000000N40       000540400K 10000000010000000220           
CUS0428300000104275846006         WILSON, DEBORAH M.  2814 LOUISE AVE                         000N        CARE OF             
MTR04283000001000000000000000RA              10014745    005800710000007100000570000003NN  NNW 000   VACANT PROPERTY     N    
RDG04283000WATRL000000004K00000000000000000007101262015085644N000000000000N40       000190400K 10000000010000000000           
CUS0428300000104275847004         WIDNEY, JASON B     2816 LOUISE AVE                         000N        CARE OF             
MTR04283000001000000000000000RA              23057001    005800720000007200000520000003NN  NNW 000                       N    
RDG04283000WATRL000000004K00000000000002852007201262015085716N000000000000N40       000320400K 10000000010000002833           
CUS0428300000104275848002         CHURCH, MEGHAN E    2818 LOUISE AVE                         000N        CARE OF             
MTR04283000001000000000000000RA              10016277    005800730000007300000570000003NN  NNW 000                       N    
RDG04283000WATRL000000004K00000000000000103007301262015085800N000000000000N40       000440400K 10000000010000000094           
CUS0428300000104275849000         ERNEST N BUTTERWORTH2820 LOUISE AVE                         000N        CARE OF             
MTR04283000001000000000000000RA              54348828    005800740000007400000520000003NN  NNW 000                       N    
RDG04283000WATRL000000004K00000000000001276007401262015085821N000000000000N40       000210400K 10000000010000001267           
CUS0428300000104275850008         BOONE, CANDACE D    2822 LOUISE AVE                         000N        CARE OF             
MTR04283000001000000000000000RA              23056992    005800750000007500000520000003NN  NNW 000                       N    
RDG04283000WATRL000000004K00000000000003377007501262015085935N000000000000N40       000740400K 10000000010000003370           
CUS0428300000104275851006         ROBERT FILLER       2900 LOUISE AVE                         000N        CARE OF             
MTR04283000001000000000000000RA              23057371    005800760000007600000520000003NN  NNW 000                       N    
RDG04283000WATRL000000004K00000000000003132007601262015090026N000000000000N40       000510400K 10000000010000003110           
CUS0428300000104275852004         REUTER, JOHN        2902 LOUISE AVE                         000N        CARE OF             
MTR04283000001000000000000000RA              35097052    005800770000007700000520000003NN  NNW 000                       N    
RDG04283000WATRL000000004K00000000000000688007701262015090115N000000000000N40       000490400K 10000000010000000680           
CUS0428300000104275853002         WRIGHT, KENNETH R.  2904 LOUISE AVE                         000N        CARE OF             
MTR04283000001000000000000000RA              41257055    005800780000007800000520000003NN  NNW 000                       N    
RDG04283000WATRL000000004K00000000000002845007801262015090144N000000000000N40       000290400K 10000000010000002818           
CUS0428300000104275854000         CHAMBERS, ANGELA COU2906 LOUISE AVE                         000N        CARE OF             
MTR04283000001000000000000000RA              35108503    005800790000007900000520000003NN  NNW 000                       N    
RDG04283000WATRL000000004K00000000000003190007901262015090220N000000000000N40       000360400K 10000000010000003170           
CUS0428300000104275855007         GAYLES, YVETTE      2908 LOUISE AVE                         000N        CARE OF             
MTR04283000001000000000000000RA              24772846    005800800000008000000520000003NN  NNW 000                       N    
RDG04283000WATRL000000004K00000000000002854008001262015090301N000000000000N40       000410400K 10000000010000002830           
CUS0428300000104275856005         MILLER, GENENE Y.   2910 LOUISE AVE                         000N        CARE OF             
MTR04283000001000000000000000RA              99392104    005800810000008100000570000003NN  NNW 000                       N    
RDG04283000WATRL000000004K00000000000000885008101262015090337N000000000000N40       000360400K 10000000010000000864           
CUS0428300000104275857003         CARL R SCHLICK SR   2912 LOUISE AVE                         000N        CARE OF             
MTR04283000001000000000000000RA              54349013    005800820000008200000520000003NN  NNW 000                       N    
RDG04283000WATRL000000004K00000000000001388008201262015090409N000000000000N40       000320400K 10000000010000001372           
CUS0428300000104275858001         POOLE, ELAINE S.    2914 LOUISE AVE                         000N        CARE OF             
MTR04283000001000000000000000RA              23055289    005800830000008300000520000003NN  NNW 000                       N    
RDG04283000WATRL000000004K00000000000003930008301262015090449N000000000000N40       000400400K 10000000010000003901           
CUS0428300000104275859009         EDWARD L KONIG      2916 LOUISE AVE                         000N        CARE OF             
MTR04283000001000000000000000RA              27212959    005800840000008400000520000003NN  NNW 000                       N    
RDG04283000WATRL000000004K00000000000002812008401262015090538N000400000010N40       000490400K 10000000010000002795           
CUS0428300000104275860007         SEYMOUR, JOSEPH J   2918 LOUISE AVE                         000N        CARE OF             
MTR04283000001000000000000000RA              10008386    005800850000008500000570000003NN  NNW 000                       N    
RDG04283000WATRL000000004K00000000000000501008501262015090616N000000000000N40       000380400K 10000000010000000479           
CUS0428300000104275861005         BETHESDA UNITED METH6300 HARFORD RD                         000N        CARE OF             
MTR04283000001000000000000000RA              38985945    005800860000008600000520000003NN  NNW 000                       N    
RDG04283000WATRL000000004K00000000000003844008601262015090651N000000000000N40       000350400K 10000000010000003801           
CUS0428300000104275862003         CALWELL JR., JAMES C6306 HARFORD RD                         000N        CARE OF             
MTR04283000001000000000000000RA              33082895    005800870000008700000520000003NN  NNW 000                       N    
RDG04283000WATRL000000004K00000000000002971008701262015090809N000000000000N40       000780400K 10000000010000002964           
CUS0428300000104275863001         CALWELL JR., JAMES C6308 HARFORD RD                         000N        CARE OF             
MTR04283000001000000000000000RA              23427066    005800880000008800000520000003NN  NNW 000                       N    
RDG04283000WATRL000000004K00000000000004855008801262015090832N000000000000N40       000230400K 10000000010000004830           
CUS0428300000104275864009         HEATON, RONALD C    6310 HARFORD RD                         000N        CARE OF             
MTR04283000001000000000000000RA              10008520    005800890000008900000570000003NN  NNW 000                       N    
RDG04283000WATRL000000004K00000000000000320008901262015090936N000000000000N40       000640400K 10000000010000000305           
CUS0428300000104275865006         MCCALLA, LUZANNE    2921 WESTFIELD AVE                      000N        CARE OF             
MTR04283000001000000000000000RA              99392105    005800900000009000000570000003NN  NNW 000                       N    
RDG04283000WATRL000000004K00000000000000956009001262015091032N000400000010N40       000560400K 10000000010000000940           
CUS0428300000104275866004         ALEXANDER JR, RICHAR2919 WESTFIELD AVE                      000N        CARE OF             
MTR04283000001000000000000000RA              23052900    005800910000009100000520000003NN  NNW 000                       N    
RDG04283000WATRL000000004K00000000000002932009101262015091057N000000000000N40       000250400K 10000000010000002921           
CUS0428300000104275867002         HUNSICKER, FRANK    2917 WESTFIELD AVE                      000N        CARE OF             
MTR04283000001000000000000000RA              54349569    005800920000009200000520000003NN  NNW 000                       N    
RDG04283000WATRL000000004K00000000000000264009201262015091149N000000000030N40       000520400K 10000000010000000263           
CUS0428300000104275868000         BURTON F MEISEL     2915 WESTFIELD AVE                      000N        CARE OF             
MTR04283000001000000000000000RA              23055058    005800930000009300000520000003NN  NNW 000                       N    
RDG04283000WATRL000000004K00000000000004458009301262015091232N000000000000N40       000430400K 10000000010000004437           
CUS0428300000104275869008         RIVELOIS, KATHLEEN M2911 WESTFIELD AVE                      000N        CARE OF             
MTR04283000001000000000000000RA              23055061    005800940000009400000520000003NN  NNW 000                       N    
RDG04283000WATRL000000004K00000000000002326009401262015091312N000000000000N40       000400400K 10000000010000002321           
CUS0428300000104275870006         ANDERSON, MICHAEL P.2909 WESTFIELD AVE                      000N        CARE OF             
MTR04283000001000000000000000RA              52286655    005800950000009500000520000003NN  NNW 000                       N    
RDG04283000WATRL000000004K00000000000001348009501262015091419N000000000060N40       000670400K 10000000010000001332           
CUS0428300000104275871004         BANK OF NEW YORK MEL2907 WESTFIELD AVE                      000N        CARE OF             
MTR04283000001000000000000000RA              00136993    005800960000009600000570000003NN  NNW 000                       N    
RDG04283000WATRL000000004K00000000000000515009601262015091544N000000000000N40       000850400K 10000000010000000495           
CUS0428300000104275872002         HALLMEN, MICHAEL P. 2905 WESTFIELD AVE                      000N        CARE OF             
MTR04283000001000000000000000RA              33730550    005800970000009700000520000003NN  NNW 000                       N    
RDG04283000WATRL000000004K00000000000002380009701262015091620N000000000000N40       000360400K 10000000010000002353           
CUS0428300000104275873000         PURNELL, SHAWNTE N. 2903 WESTFIELD AVE                      000N        CARE OF             
MTR04283000001000000000000000RA              23055066    005800980000009800000520000003NN  NNW 000                       N    
RDG04283000WATRL000000004K00000000000001463009801262015091705N000000000000N40       000450400K 10000000010000001463           
CUS0428300000104275874008         STUKES, PRIMROSE O  2901 WESTFIELD AVE                      000N        CARE OF             
MTR04283000001000000000000000RA              10007008    005800990000009900000570000003NN  NNW 000                       N    
RDG04283000WATRL000000004K00000000000000444009901262015091818N000000000000N40       000730400K 10000000010000000426           
CUS0428300000104275875005         ASPLEN, TRACY R     2819 WESTFIELD AVE                      000N        CARE OF             
MTR04283000001000000000000000RA              10007132    005801000000010000000570000003NN  NNW 000                       N    
RDG04283000WATRL000000004K00000000000000427010001262015091859N000000000000N40       000410400K 10000000010000000387           
CUS0428300000104275876003         GASKIN, WANDA       2817 WESTFIELD AVE                      000N        CARE OF             
MTR04283000001000000000000000RA              10004421    005801010000010100000570000003NN  NNW 000                       N    
RDG04283000WATRL000000004K00000000000000226010101262015091934N000000000000N40       000350400K 10000000010000000219           
CUS0428300000104275877001         EDWARDS, ROBBIN D.  2815 WESTFIELD AVE                      000N        CARE OF             
MTR04283000001000000000000000RA              10008056    005801020000010200000570000003NN  NNW 000                       N    
RDG04283000WATRL000000004K00000000000000184010201262015092010N000000000000N40       000360400K 10000000010000000177           
CUS0428300000104275878009         SLIGH, VAUGHN M     2813 WESTFIELD AVE                      000N        CARE OF             
MTR04283000001000000000000000RA              46882756    005801030000010300000520000003NN  NNW 000                       N    
RDG04283000WATRL000000004K00000000000001646010301262015092042N000000000000N40       000320400K 10000000010000001639           
CUS0428300000104275879007         CUURY, MICHAEL J.   2811 WESTFIELD AVE                      000N        CARE OF             
MTR04283000001000000000000000RA              10007030    005801040000010400000570000003NN  NNW 000                       N    
RDG04283000WATRL000000004K00000000000000498010401262015092124N000000000000N40       000420400K 10000000010000000476           
CUS0428300000104275880005         BURCH, IRENE J      2809 WESTFIELD AVE                      000N        CARE OF             
MTR04283000001000000000000000RA              52285197    005801050000010500000520000003NN  NNW 000                       N    
RDG04283000WATRL000000004K00000000000000483010501262015092218N000300000010N40       000540400K 10000000010000000448           
CUS0428300000104275881003         MILANO, HELEN C     2807 WESTFIELD AVE                      000N        CARE OF             
MTR04283000001000000000000000RA              10008057    005801060000010600000570000003NN  NNW 000                       N    
RDG04283000WATRL000000004K00000000000000291010601262015092253N000000000000N40       000350400K 10000000010000000276           
CUS0428300000104275882001         HILDA E MOXLEY      2805 WESTFIELD AVE                      000N        CARE OF             
MTR04283000001000000000000000RA              01106888    005801070000010700000610000003NN  NNW 000                       N    
RDG04283000WATRL000000004K00000000000000838010701262015092432N000000000000N40       000990400K 10000000010000000818           
CUS0428300000104275883009         SPANGLER, CAROL L   2801 WESTFIELD AVE                      000N        CARE OF             
MTR04283000001000000000000000RA              33730553    005801080000010800000520000003NN  NNW 000                       N    
RDG04283000WATRL000000004K00000000000002778010801262015092525N000000000000N40       000530400K 10000000010000002765           
CUS0428300000104275884007         ZIEGLER, CARROLL J  6305 OLD HARFORD RD                     000N        CARE OF             
MTR04283000001000000000000000RA              33735763    005801090000010900000520000003NN  NNW 000                       N    
RDG04283000WATRL000000004K00000000000004724010901262015092619N000000000000N40       000540400K 10000000010000004704           
CUS0428300000104275885004         ZEMO JR, EDWIN L    6307 OLD HARFORD RD                     000N        CARE OF             
MTR04283000001000000000000000RA              33081174    005801100000011000000520000003NN  NNW 000                       N    
RDG04283000WATRL000000004K00000000000001897011001262015092718N000000000000N40       000590400K 10000000010000001878           
CUS0428300000104275886002         LEMONS, HATTIE      6401 OLD HARFORD RD                     000N        CARE OF             
MTR04283000001000000000000000RA              14920597    005801110000011100000310000003NN  NNW 000                       N    
RDG04283000WATRL000000004K00000000000000774011101262015092824N000000000000N40       000660400K 10000000010000000738           
CUS0428300000104275887000         WOOD, JARED         2800 WESTFIELD AVE                      000N        CARE OF             
MTR04283000001000000000000000RA              46882697    005801120000011200000520000003NN  NNW 000                       N    
RDG04283000WATRL000000004K00000000000001054011201262015092917N000300000010N40       000530400K 10000000010000001042           
CUS0428300000104275888008         WILSON, MARJORY W   2802 WESTFIELD AVE                      000N        CARE OF             
MTR04283000001000000000000000RA              10007923    005801130000011300000570000003NN  NNW 000                       N    
RDG04283000WATRL000000004K00000000000000111011301262015093009N000000000000N40       000520400K 10000000010000000099           
CUS0428300000104275889006         MCCOY, CARNETTA M   2804 WESTFIELD AVE                      000N        CARE OF             
MTR04283000001000000000000000RA              10004420    005801140000011400000570000003NN  NNW 000                       N    
RDG04283000WATRL000000004K00000000000000262011401262015093051N000000000000N40       000420400K 10000000010000000251           
CUS0428300000104275890004         DONNEA L ADAMS      2806 WESTFIELD AVE                      000N        CARE OF             
MTR04283000001000000000000000RA              33730494    005801150000011500000520000003NN  NNW 000                       N    
RDG04283000WATRL000000004K00000000000001987011501262015093127N000400000010N40       000360400K 10000000010000001964           
CUS0428300000104275891002         CURRIE, BRUCE L     2808 WESTFIELD AVE                      000N        CARE OF             
MTR04283000001000000000000000RA              14921177    005801160000011600000310000003NN  NNW 000                       N    
RDG04283000WATRL000000004K00000000000001092011601262015093203N000000000000N40       000360400K 10000000010000001046           
CUS0428300000104275892000         ADER, CHRISTIAN     2810 WESTFIELD AVE                      000N        CARE OF             
MTR04283000001000000000000000RA              10007028    005801170000011700000570000003NN  NNW 000                       N    
RDG04283000WATRL000000004K00000000000000759011701262015093239N000000000000N40       000360400K 10000000010000000724           
CUS0428300000104275893008         DIEMESOR, EMMA F.   2812 WESTFIELD AVE                      000N        CARE OF             
MTR04283000001000000000000000RA              10007027    005801180000011800000570000003NN  NNW 000                       N    
RDG04283000WATRL000000004K00000000000000370011801262015093302N000300000010N40       000230400K 10000000010000000319           
CUS0428300000104275894006         SABRY, ALAA         2814 WESTFIELD AVE                      000N        CARE OF             
MTR04283000001000000000000000RA              14928987    005801190000011900000310000003NN  NNW 000                       N    
RDG04283000WATRL000000004K00000000000000559011901262015093357N000100000010N40       000550400K 10000000010000000559           
CUS0428300000104275895003         TEAGUE, JULIE M     2816 WESTFIELD AVE                      000N        CARE OF             
MTR04283000001000000000000000RA              14924196    005801200000012000000310000003NN  NNW 000                       N    
RDG04283000WATRL000000004K00000000000000266012001262015093438N000000000000N40       000410400K 10000000010000000253           
CUS0428300000104275896001         FASCETTA, MARCUS A  2818 WESTFIELD AVE                      000N        CARE OF             
MTR04283000001000000000000000RA              14921430    005801210000012100000310000003NN  NNW 000                       N    
RDG04283000WATRL000000004K00000000000000293012101262015093605N000000000000N40       000870400K 10000000010000000281           
CUS0428300000104275897009         FEENEY, PATRICK/DAPH2820 WESTFIELD AVE                      000N        CARE OF             
MTR04283000001000000000000000RA              10004422    005801220000012200000570000003NN  NNW 000                       N    
RDG04283000WATRL000000004K00000000000000297012201262015093631N000000000000N40       000260400K 10000000010000000282           
CUS0428300000104275898007         MILLER, JOHN M      2822 WESTFIELD AVE                      000N        CARE OF             
MTR04283000001000000000000000RA              54350753    005801230000012300000520000003NN  NNW 000                       N    
RDG04283000WATRL000000004K00000000000001779012301262015093705N000000000000N40       000340400K 10000000010000001757           
CUS0428300000104275899005         HARLEE, MARGARET M. 2824 WESTFIELD AVE                      000N        CARE OF             
MTR04283000001000000000000000RA              10004395    005801240000012400000570000003NN  NNW 000                       N    
RDG04283000WATRL000000004K00000000000000124012401262015093734N000000000000N40       000290400K 10000000010000000118           
CUS0428300000104275900001         GUSTON SR., ROBERT F2900 WESTFIELD AVE                      000N        CARE OF             
MTR04283000001000000000000000RA              54350371    005801250000012500000520000003NN  NNW 000   VACANT PROPERTY     N    
RDG04283000WATRL000000004K00000000000000167012501262015093816N000000000000N40       000420400K 10000000010000000167           
CUS0428300000104275901009         GUSTON SR., ROBERT F2902 WESTFIELD AVE                      000N        CARE OF             
MTR04283000001000000000000000RA              10004396    005801260000012600000570000003NN  NNW 000                       N    
RDG04283000WATRL000000004K00000000000000455012601262015093840N000000000000N40       000240400K 10000000010000000443           
CUS0428300000104275902007         W P KILROY          2904 WESTFIELD AVE                      000N        CARE OF             
MTR04283000001000000000000000RA              10005979    005801270000012700000570000003NN  NNW 000                       N    
RDG04283000WATRL000000004K00000000000000283012701262015093948N000000000000N40       000680400K 10000000010000000275           
CUS0428300000104275903005         CLEVENGER, CONSTANCE2906 WESTFIELD AVE                      000N        CARE OF             
MTR04283000001000000000000000RA              14906800    005801280000012800000310000003NN  NNW 000                       N    
RDG04283000WATRL000000004K00000000000001081012801262015094045N000000000000N40       000570400K 10000000010000001048           
CUS0428300000104275904003         DELANEY, ANDRE A.   2908 WESTFIELD AVE                      000N        CARE OF             
MTR04283000001000000000000000RA              01100712    005801290000012900000610000003NN  NNW 000                       N    
RDG04283000WATRL000000004K00000000000001158012901262015094139N000400000010N40       000540400K 10000000010000001125           
CUS0428300000104275905000         WILLIAMS, CLINTON D 2910 WESTFIELD AVE                      000N        CARE OF             
MTR04283000001000000000000000RA              10014682    005801300000013000000570000003NN  NNW 000                       N    
RDG04283000WATRL000000004K00000000000000549013001262015094222N000000000000N40       000430400K 10000000010000000475           
CUS0428300000104275906008         FORSYTH, FREDERICK J2912 WESTFIELD AVE                      000N        CARE OF             
MTR04283000001000000000000000RA              27812004    005801310000013100000520000003NN  NNW 000                       N    
RDG04283000WATRL000000004K00000000000004874013101262015094258N000000000000N40       000360400K 10000000010000004836           
CUS0428300000104275907006         RUCKER, DENISE DARNE2914 WESTFIELD AVE                      000N        CARE OF             
MTR04283000001000000000000000RA              33730552    005801320000013200000520000003NN  NNW 000                       N    
RDG04283000WATRL000000004K00000000000002150013201262015094333N000000000000N40       000350400K 10000000010000002131           
CUS0428300000104275908004         LETTAU, JEFFREY A   2916 WESTFIELD AVE                      000N        CARE OF             
MTR04283000001000000000000000RA              24230825    005801330000013300000520000003NN  NNW 000                       N    
RDG04283000WATRL000000004K00000000000003014013301262015094400N000000000000N40       000270400K 10000000010000002994           
CUS0428300000104275909002         BAINES, JEAN        2918 WESTFIELD AVE                      000N        CARE OF             
MTR04283000001000000000000000RA              33729771    005801340000013400000520000003NN  NNW 000                       N    
RDG04283000WATRL000000004K00000000000002507013401262015094441N000000000000N40       000410400K 10000000010000002482           
CUS0428300000104275910000         STROTHER, JOYCE    (6400 HARFORD RD                         000N        CARE OF             
MTR04283000001000000000000000RA              01093848    005801350000013500000610000003NN  NNW 000                       N    
RDG04283000WATRL000000004K00000000000000400013501262015094531N000000000000N40       000500400K 10000000010000000390           
CUS0428300000104275911008         CATHERINE ORZOLEK   6408-10 HARFORD RD                      000N        CARE OF             
MTR04283000001000000000000000RA              45386159    005801360000013600000520000003NN  NNW 000                       N    
RDG04283000WATRL000000004K00000000000000746013601262015094646N000000000000N40       000750400K 10000000010000000743           
CUS0428300000104275912006         MARIMAC, INC.       6414-16 HARFORD RD                      000N        CARE OF             
MTR04283000001000000000000000RA              33082894    005801370000013700000520000003NN  NNW 000                       N    
RDG04283000WATRL000000004K00000000000001356013701262015094734N000000000000N40       000480400K 10000000010000001349           
CUS0428300000104275913004         MARIMAC, INC.       6418 HARFORD RD                         000N        CARE OF             
MTR04283000001000000000000000RA              33082857    005801380000013800000520000003NN  NNW 000                       N    
RDG04283000WATRL000000004K00000000000000430013801262015094900N000000000000N40       000860400K 10000000010000000429           
CUS0428300000104275914002         KENYA R JOHNSON     2919 PINEWOOD AVE                       000N        CARE OF             
MTR04283000001000000000000000RA              14917363    005801390000013900000310000003NN  NNW 000                       N    
RDG04283000WATRL000000004K00000000000000949013901262015095046N000000000000N40       001060400K 10000000010000000936           
CUS0428300000104275915009         LAWLOR, RICHARD D   2917 PINEWOOD AVE                       000N        CARE OF             
MTR04283000001000000000000000RA              27818533    005801400000014000000520000003NN  NNW 000                       N    
RDG04283000WATRL000000004K00000000000003022014001262015095135N000000000000N40       000490400K 10000000010000003006           
CUS0428300000104275916007         BARBARA RAMSEY      2915 PINEWOOD AVE                       000N        CARE OF             
MTR04283000001000000000000000RA              46887666    005801410000014100000520000003NN  NNW 000                       N    
RDG04283000WATRL000000004K00000000000002878014101262015095202N000000000000N40       000270400K 10000000010000002863           
CUS0428300000104275917005         RIST, KAREN M       2913 PINEWOOD AVE                       000N        CARE OF             
MTR04283000001000000000000000RA              45382206    005801420000014200000520000003NN  NNW 000                       N    
RDG04283000WATRL000000004K00000000000001355014201262015095336N000000000000N40       000940400K 10000000010000001345           
CUS0428300000104275918003         A C BRYANT          2911 PINEWOOD AVE                       000N        CARE OF             
MTR04283000001000000000000000RA              01090590    005801430000014300000610000003NN  NNW 000                       N    
RDG04283000WATRL000000004K00000000000000801014301262015095417N000000000000N40       000410400K 10000000010000000784           
CUS0428300000104275919001         RYAN, CLIFTON BOYD  2909 PINEWOOD AVE                       000N        CARE OF             
MTR04283000001000000000000000RA              45381971    005801440000014400000520000003NN  NNW 000                       N    
RDG04283000WATRL000000004K00000000000002423014401262015095515N000000000000N40       000580400K 10000000010000002407           
CUS0428300000104275920009         FEDERAL NATIONAL MOR2905 PINEWOOD AVE                       000N        CARE OF             
MTR04283000001000000000000000RA              54348853    005801450000014500000520000003NN  NNW 000   VACANT PROPERTY     N    
RDG04283000WATRL000000004K00000000000000795014501262015095547N000000000000N40       000320400K 10000000010000000795           
CUS0428300000104275921007         JOHN & MELINDA ASHTO2903 PINEWOOD AVE                       000N        CARE OF             
MTR04283000001000000000000000RA              14913779    005801460000014600000310000003NN  NNW 000                       N    
RDG04283000WATRL000000004K00000000000000403014601262015095642N000400000010N40       000550400K 10000000010000000391           
CUS0428300000104275922005         LANG, MARTIN W      2901 PINEWOOD AVE                       000N        CARE OF             
MTR04283000001000000000000000RA              14916778    005801470000014700000310000003NN  NNW 000                       N    
RDG04283000WATRL000000004K00000000000000621014701262015095726N000000000000N40       000440400K 10000000010000000601           
CUS0428300000104275923003         HEWITT, ARTHUR T    2835 PINEWOOD AVE                       000N        CARE OF             
MTR04283000001000000000000000RA              27823413    005801480000014800000520000003NN  NNW 000                       N    
RDG04283000WATRL000000004K00000000000001612014801262015095810N000000000000N40       000440400K 10000000010000001604           
CUS0428300000104275924001         REDINGER, JENIFER   2833 PINEWOOD AVE                       000N        CARE OF             
MTR04283000001000000000000000RA              10014946    005801490000014900000570000003NN  NNW 000                       N    
RDG04283000WATRL000000004K00000000000000140014901262015095844N000000000000N40       000340400K 10000000010000000134           
CUS0428300000104275925008         EDWARDS, SHARON D.  2827 PINEWOOD AVE                       000N        CARE OF             
MTR04283000001000000000000000RA              75615528    005801500000015000000350000003NN  NNW 000                       N    
RDG04283000WATRL000000004K00000000000000076015001262015095916N000000000000N40       000320400K 10000000010000000057           
CUS0428300000104275926006         JOHNSON, RHONDA ANNE2825 PINEWOOD AVE                       000N        CARE OF             
MTR04283000001000000000000000RA              10016368    005801510000015100000570000003NN  NNW 000                       N    
RDG04283000WATRL000000004K00000000000000349015101262015100008N000000000000N40       000520400K 10000000010000000318           
CUS0428300000104275927004         BARNES, AVON WINFRED2823 PINEWOOD AVE                       000N        CARE OF             
MTR04283000001000000000000000RA              10005690    005801520000015200000570000003NN  NNW 000                       N    
RDG04283000WATRL000000004K00000000000000344015201262015100053N000300000010N40       000450400K 10000000010000000324           
CUS0428300000104275928002         JONES, JANE E       2821 PINEWOOD AVE                       000N        CARE OF             
MTR04283000001000000000000000RA              23055275    005801530000015300000520000003NN  NNW 000                       N    
RDG04283000WATRL000000004K00000000000005289015301262015100115N000000000000N40       000220400K 10000000010000005289           
CUS0428300000104275929000         RINGGOLD, ROSETTA B 2819 PINEWOOD AVE                       000N        CARE OF             
MTR04283000001000000000000000RA              10007032    005801540000015400000570000003NN  NNW 000                       N    
RDG04283000WATRL000000004K00000000000000319015401262015100143N000000000000N40       000280400K 10000000010000000313           
CUS0428300000104275930008         KELL, PATRICIA A    2817 PINEWOOD AVE                       000N        CARE OF             
MTR04283000001000000000000000RA              38985781    005801550000015500000520000003NN  NNW 000                       N    
RDG04283000WATRL000000004K00000000000001910015501262015100226N000000000000N40       000430400K 10000000010000001895           
CUS0428300000104275931006         KULYK, JENNIFER L   2815 PINEWOOD AVE                       000N        CARE OF             
MTR04283000001000000000000000RA              00138239    005801560000015600000570000003NN  NNW 000                       N    
RDG04283000WATRL000000004K00000000000000723015601262015100327N000000000010N40       000610400K 10000000010000000716           
CUS0428300000104275932004         DIXON, MARVIN R     2811 PINEWOOD AVE                       000N        CARE OF             
MTR04283000001000000000000000RA              10016365    005801570000015700000570000003NN  NNW 000                       N    
RDG04283000WATRL000000004K00000000000000166015701262015100403N000000000000N40       000360400K 10000000010000000150           
CUS0428300000104275933002         GUS MALSTROM        2809 PINEWOOD AVE                       000N        CARE OF             
MTR04283000001000000000000000RA              00136990    005801580000015800000570000003NN  NNW 000                       N    
RDG04283000WATRL000000004K00000000000000415015801262015100429N000000000000N40       000260400K 10000000010000000413           
CUS0428300000104275934000         FRANZ, MAXIMILIAN K 2807 PINEWOOD AVE                       000N        CARE OF             
MTR04283000001000000000000000RA              99392106    005801590000015900000570000003NN  NNW 000                       N    
RDG04283000WATRL000000004K00000000000000862015901262015100507N000000000000N40       000380400K 10000000010000000851           
CUS0428300000104275935007         REDMER, WILLIAM TED 2805 PINEWOOD AVE                       000N        CARE OF             
MTR04283000001000000000000000RA              35104279    005801600000016000000520000003NN  NNW 000                       N    
RDG04283000WATRL000000004K00000000000003015016001262015100548N000000000000N40       000410400K 10000000010000003002           
CUS0428300000104275936005         E & H ENTERPRISES, L2802 PINEWOOD AVE                       000N        CARE OF             
MTR04283000001000000000000000RA              74815089    007501610000016100000350000003NN  NNW 000                       N    
RDG04283000WATRL000000004K00000000000000581016101262015100636N000000000000N40       000480400K 10000000010000000495           
CUS0428300000104275937003         MAYA, WALTER D.     2806 PINEWOOD AVE                       000N        CARE OF             
MTR04283000001000000000000000RA              23055320    005801620000016200000520000003NN  NNW 000                       N    
RDG04283000WATRL000000004K00000000000001935016201262015100653N000000000000N40       000170400K 10000000010000001935           
CUS0428300000104275938001         W R BAKER & WF      2808 PINEWOOD AVE                       000N        CARE OF             
MTR04283000001000000000000000RA              54348850    005801630000016300000520000003NN  NNW 000                       N    
RDG04283000WATRL000000004K00000000000000968016301262015100744N000000000000N40       000510400K 10000000010000000959           
CUS0428300000104275939009         DIXON IV, LOUIS A.  2810 PINEWOOD AVE                       000N        CARE OF             
MTR04283000001000000000000000RA              23055414    005801640000016400000520000003NN  NNW 000                       N    
RDG04283000WATRL000000004K00000000000003561016401262015100859N000000000060N40       000750400K 10000000010000003543           
CUS0428300000104275940007         WOODS, HORACE S.    2812 PINEWOOD AVE                       000N        CARE OF             
MTR04283000001000000000000000RA              32176601    005801650000016500000520000003NN  NNW 000                       N    
RDG04283000WATRL000000004K00000000000003262016501262015100930N000000000000N40       000310400K 10000000010000003251           
CUS0428300000104275941005         JOHNSON, SHANETTA   2814 PINEWOOD AVE                       000N        CARE OF             
MTR04283000001000000000000000RA              38983630    005801660000016600000520000003NN  NNW 000                       N    
RDG04283000WATRL000000004K00000000000000071016601262015101011N000000000000N40       000410400K 10000000010000000044           
CUS0428300000104275942003         ALEX, ELIZABETH E.  2816 PINEWOOD AVE                       000N        CARE OF             
MTR04283000001000000000000000RA              40048418    005801670000016700000520000003NN  NNW 000                       N    
RDG04283000WATRL000000004K00000000000001998016701262015101044N000000000000N40       000330400K 10000000010000001979           
CUS0428300000104275943001         JAMES B LEUBBERT    2818 PINEWOOD AVE                       000N        CARE OF             
MTR04283000001000000000000000RA              10010223    005801680000016800000570000003NN  NNW 000                       N    
RDG04283000WATRL000000004K00000000000000559016801262015101111N000000000000N40       000270400K 10000000010000000490           
CUS0428300000104275944009         RAYFIELD, NYQUITIA  2820 PINEWOOD AVE                       000N        CARE OF             
MTR04283000001000000000000000RA              40048408    005801690000016900000520000003NN  NNW 000                       N    
RDG04283000WATRL000000004K00000000000001436016901262015101150N000000000000N40       000390400K 10000000010000001416           
CUS0428300000104275945006         KRATZ, CHARLES A    2822 PINEWOOD AVE                       000N        CARE OF             
MTR04283000001000000000000000RA              54348636    005801700000017000000520000003NN  NNW 000                       N    
RDG04283000WATRL000000004K00000000000001206017001262015101222N000000000000N40       000320400K 10000000010000001183           
CUS0428300000104275946004         MURPHY, BRIAN R     2824 PINEWOOD AVE                       000N        CARE OF             
MTR04283000001000000000000000RA              23055313    005801710000017100000520000003NN  NNW 000                       N    
RDG04283000WATRL000000004K00000000000003086017101262015101256N000000000000N40       000340400K 10000000010000003077           
CUS0428300000104275947002         MENSER, KENNETH S   2826 PINEWOOD AVE                       000N        CARE OF             
MTR04283000001000000000000000RA              99391718    005801720000017200000570000003NN  NNW 000                       N    
RDG04283000WATRL000000004K00000000000001249017201262015101348N000000000000N40       000520400K 10000000010000001225           
CUS0428300000104275948000         HERMAN SCHULZE      2828 PINEWOOD AVE                       000N        CARE OF             
MTR04283000001000000000000000RA              26007153    005801730000017300000520000003NN  NNW 000                       N    
RDG04283000WATRL000000004K00000000000005624017301262015101613N000000000000N40       001450400K 10000000010000005608           
CUS0428300000104275949008         ZACHARY, ROXANNA W. 2900 PINEWOOD AVE                       000N        CARE OF             
MTR04283000001000000000000000RA              26019761    005801740000017400000520000003NN  NNW 000                       N    
RDG04283000WATRL000000004K00000000000002150017401262015101710N000000000000N40       000570400K 10000000010000002140           
CUS0428300000104275950006         CHATMAN-HANKS, DALPH2902 PINEWOOD AVE                       000N        CARE OF             
MTR04283000001000000000000000RA              10024681    005801750000017500000570000003NN  NNW 000                       N    
RDG04283000WATRL000000004K00000000000000279017501262015101741N000000000000N40       000310400K 10000000010000000242           
