FHDNNNN019003712003712003712N                                                                                           011277
RHD08512200NN02820282000002820000000002820282000181NY028202820282000000040000000000000000000002    01122015NY020000 N         
CUS0851220000108004744002         LANDSDOWNE CENTER LL3901 HOLLINS FERRY RD                   000N        CARE OF             
MTR08512200001000000000000000RA              39267024    000100010000000100000520000003NN  NNW 000                       N    
RDG08512200WATRL000000004K00000000000002567000101202015083703N000000000010N86       000000400K 10000000010000003537           
CUS0851220000108004745009         CVS SITE#07656-02   3903 HOLLINS FERRY RD                   000N        CARE OF             
MTR08512200001000000000000000RA              00167173    000100020000000200000570000003NN  NNW 000                       N    
RDG08512200WATRL000000004K00000000000000000000201202015083722N000000000000N86       000190400K 10000000010000000000           
CUS0851220000108004747005         LANDSDOWNE CENTER LL3907 HOLLINS FERRY RD                   000N        CARE OF             
MTR08512200001000000000000000RA              52768157    005800030000000300000520000003NN  NNW 000                       N    
RDG08512200WATRL000000004K00000000000000000000301202015083809N000000000000N86       000470400K 10000000010000000000           
CUS0851220000108004748003         LANDSDOWNE CENTER LL3909 HOLLINS FERRY RD                   000N        CARE OF             
MTR08512200001000000000000000RA              31058683    001500040000000400000520000003NN  NNW 000                       N    
RDG08512200WATRL000000005K00000000000049754000401202015084229N000000000000N86       002600500K 10000000010000048807           
CUS0851220000108004749001         LANDSDOWNE CENTER LL3911 HOLLINS FERRY RD                   000N        CARE OF             
MTR08512200001000000000000000RA              75427215    007500050000000500000350000003NN  NNW 000                       N    
RDG08512200WATRL000000004K00000000000000471000501202015084338N000000000000N86       000690400K 10000000010000000380           
CUS0851220000108004750009         CVS#7656-02         3913 HOLLINS FERRY RD                   000N        CARE OF             
MTR08512200001000000000000000RA              99999999    005800060000000600000620000003NN  NNW 000                       N    
RDG08512200WATRL000000004K00000000000000000000601202015084346S022000000000N86       000080400K 10000000010000002985           
CUS0851220000108425766006         CVS SITE # 07656-02 3915 HOLLINS FERRY RD                   000N        CARE OF             
MTR08512200001000000000000000RA              99409003    000100070000000700000570000003NN  NNW 000                       N    
RDG08512200WATRL000000004K00000000000003373000901202015084708N000400000010N86       001890400K 10000000010000003365           
CUS0851220000108004752005         CVS #07656-02       3917 HOLLINS FERRY RD                   000N        CARE OF             
MTR08512200001000000000000000RA              99999999    005800080000000800000620000003NN  NNW 000                       N    
RDG08512200WATRL000000004K00000000000000000000701202015084352S022000000000N86       000060400K 10000000010000000648           
CUS0851220000108004754001         LANDSDOWNE CENTER LL3921 HOLLINS FERRY RD                   000N        CARE OF             
MTR08512200001000000000000000RA              99999999    005800090000000900000620000003NN  NNW 000                       N    
RDG08512200WATRL000000004K00000000000000000000801202015084359S022000000000N86       000070400K 10000000010000002112           
CUS0851220000108004755008         LAKHBIR SINGH       3923 HOLLINS FERRY RD                   000N        CARE OF             
MTR08512200001000000000000000RA              10019335    005800100000001000000570000003NN  NNW 000                       N    
RDG08512200WATRL000000004K00000000000000141001001202015084844N000000000000N86       000960400K 10000000010000000126           
CUS0851220000108004756006         BIGLEY WILLIAM E    2901 FREEWAY                            000N        CARE OF             
MTR08512200001000000000000000RA              44086395    005800110000001100000520000003NN  NNW 000                       N    
RDG08512200WATRL000000004K00000000000001247001101202015085147N000000000000N86       001830400K 10000000010000001242           
CUS0851220000108004757004         SANTOS IVAN R       2903 FREEWAY                            000N        CARE OF             
MTR08512200001000000000000000RA              75614952    005800120000001200000350000003NN  NNW 000                       N    
RDG08512200WATRL000000004K00000000000000092001201202015085148N000000000000N86       000010400K 10000000010000000077           
CUS0851220000108004758002         SPARKS CHARLES F    2905 FREEWAY                            000N        CARE OF             
MTR08512200001000000000000000RA              41083562    005800130000001300000520000003NN  NNW 000                       N    
RDG08512200WATRL000000004K00000000000000231001301202015085318N000000000000N86       000900400K 10000000010000000215           
CUS0851220000108004759000         GODDARD STANLEY J   2907 FREEWAY                            000N        CARE OF             
MTR08512200001000000000000000RA              10009184    005800140000001400000570000003NN  NNW 000                       N    
RDG08512200WATRL000000004K00000000000000089001401202015085319N000000000000N86       000010400K 10000000010000000087           
CUS0851220000108004760008         WEEKS RICHARD I     2909 FREEWAY                            000N        CARE OF             
MTR08512200001000000000000000RA              00136858    005800150000001500000570000003NN  NNW 000                       N    
RDG08512200WATRL000000004K00000000000000527001501202015085542N000000000000N86       001430400K 10000000010000000513           
CUS0851220000108004761006         SUIT PAUL J         2911 FREEWAY                            000N        CARE OF             
MTR08512200001000000000000000RA              48595190    005800160000001600000520000003NN  NNW 000                       N    
RDG08512200WATRL000000004K00000000000000104001601202015085546N000000000000N86       000040400K 10000000010000000101           
CUS0851220000108004762004         LOOMIS SHIRLEY E    2913 FREEWAY                            000N        CARE OF             
MTR08512200001000000000000000RA              44176525    005800170000001700000520000003NN  NNW 000                       N    
RDG08512200WATRL000000004K00000000000001661001701202015085826N000300000020N86       001600400K 10000000010000001628           
CUS0851220000108004763002         MILLWARD HERBERT U,J2915 FREEWAY                            000N        CARE OF             
MTR08512200001000000000000000RA              14912093    005800180000001800000310000003NN  NNW 000                       N    
RDG08512200WATRL000000004K00000000000000499001801202015085827N000000000000N86       000010400K 10000000010000000494           
CUS0851220000108004764000         MCINTIRE SHELLEY    2917 FREEWAY                            000N        CARE OF             
MTR08512200001000000000000000RA              39584703    005800190000001900000520000003NN  NNW 000                       N    
RDG08512200WATRL000000004K00000000000001468001901202015085937N000000000000N86       000700400K 10000000010000001437           
CUS0851220000108004765007         DONIECKI A JOHN     2919 FREEWAY                            000N        CARE OF             
MTR08512200001000000000000000RA              00138464    005800200000002000000570000003NN  NNW 000                       N    
RDG08512200WATRL000000004K00000000000002144002001202015085941N000300000010N86       000040400K 10000000010000002124           
CUS0851220000108004766005         QUINN KEVIN K       2921 FREEWAY                            000N        CARE OF             
MTR08512200001000000000000000RA              01108162    005800210000002100000610000003NN  NNW 000                       N    
RDG08512200WATRL000000004K00000000000000286002101202015090000N000000000000N86       000190400K 10000000010000000267           
CUS0851220000108004767003         PERNIA CHRISTOPHER A2923 FREEWAY                            000N        CARE OF             
MTR08512200001000000000000000RA              01108109    005800220000002200000610000003NN  NNW 000                       N    
RDG08512200WATRL000000004K00000000000000385002201202015090001N000000000000N86       000010400K 10000000010000000354           
CUS0851220000108004768001         BUGNAIT ARUN K  BUGN2925 FREEWAY                            000N        CARE OF             
MTR08512200001000000000000000RA              46878653    005800230000002300000520000003NN  NNW 000                       N    
RDG08512200WATRL000000004K00000000000001148002301202015090039N000300000010N86       000380400K 10000000010000001111           
CUS0851220000108004769009         BOURACEE LUIS A     2927 FREEWAY                            000N        CARE OF             
MTR08512200001000000000000000RA              27813407    005800240000002400000520000003NN  NNW 000                       N    
RDG08512200WATRL000000004K00000000000001271002401202015090043N000100000010N86       000040400K 10000000010000001271           
CUS0851220000108004770007         LOOMIS MARK L       2929 FREEWAY                            000N        CARE OF             
MTR08512200001000000000000000RA              29403431    005800250000002500000520000003NN  NNW 000   VACANT / LOT        N    
RDG08512200WATRL000000004K00000000000003786002501202015090301N000000000000N86       001380400K 10000000010000003786           
CUS0851220000108004771005         DONIECKI AUGUST JOHN2931 FREEWAY                            000N        CARE OF             
MTR08512200001000000000000000RA              48596550    005800260000002600000520000003NN  NNW 000                       N    
RDG08512200WATRL000000004K00000000000001370002601202015090303N000000000000N86       000020400K 10000000010000001341           
CUS0851220000108004772003         HARDMAN MICHAEL     2933 FREEWAY                            000N        CARE OF             
MTR08512200001000000000000000RA              48593026    005800270000002700000520000003NN  NNW 000                       N    
RDG08512200WATRL000000004K00000000000001018002701202015090417N000000000000N86       000740400K 10000000010000001000           
CUS0851220000108004773001         KOETHE DEAKAN A     2935 FREEWAY                            000N        CARE OF             
MTR08512200001000000000000000RA              26001408    005800280000002800000520000003NN  NNW 000                       N    
RDG08512200WATRL000000004K00000000000003225002801202015090418N000000000000N86       000010400K 10000000010000003225           
CUS0851220000108004774009         HALL JOSEPH H,3RD   2937 FREEWAY                            000N        CARE OF             
MTR08512200001000000000000000RA              14926835    005800290000002900000310000003NN  NNW 000                       N    
RDG08512200WATRL000000004K00000000000001173002901202015090449N000000000000N86       000310400K 10000000010000001119           
CUS0851220000108004775006         HEITZER WILLIAM     2939 FREEWAY                            000N        CARE OF             
MTR08512200001000000000000000RA              99286142    005800300000003000000570000003NN  NNW 000                       N    
RDG08512200WATRL000000004K00000000000001198003001202015090450N000000000000N86       000010400K 10000000010000001176           
CUS0851220000108004776004         CHESAPEAKE BAY AREA 2941 FREEWAY                            000N        CARE OF             
MTR08512200001000000000000000RA              01097274    005800310000003100000610000003NN  NNW 000                       N    
RDG08512200WATRL000000004K00000000000000759003101202015090522N000000000000N86       000320400K 10000000010000000740           
CUS0851220000108004777002         PARSONS JOHN D      2943 FREEWAY                            000N        CARE OF             
MTR08512200001000000000000000RA              01097279    005800320000003200000610000003NN  NNW 000                       N    
RDG08512200WATRL000000004K00000000000000711003201202015090523N000000000000N86       000010400K 10000000010000000686           
CUS0851220000108004778000         MYERS ROBERT C      2945 FREEWAY                            000N        CARE OF             
MTR08512200001000000000000000RA              77987849    005800330000003300000350000003NN  NNW 000                       N    
RDG08512200WATRL000000004K00000000000000000003301202015090600N000100000010N86       000370400K 10000000010000000000           
CUS0851220000108004779008         SHROYER-HARTMAN CHAD2947 FREEWAY                            000N        CARE OF             
MTR08512200001000000000000000RA              77987837    005800340000003400000350000003NN  NNW 000                       N    
RDG08512200WATRL000000004K00000000000000020003401202015090602N000300000010N86       000020400K 10000000010000000000           
CUS0851220000108004780006         PITTMAN D L         2949 FREEWAY                            000N        CARE OF             
MTR08512200001000000000000000RA              14916219    005800350000003500000310000003NN  NNW 000                       N    
RDG08512200WATRL000000004K00000000000000233003501202015090634N000000000000N86       000320400K 10000000010000000228           
CUS0851220000108004781004         MANTOOTH MACEO S    2951 FREEWAY                            000N        CARE OF             
MTR08512200001000000000000000RA              52285565    005800360000003600000520000003NN  NNW 000                       N    
RDG08512200WATRL000000004K00000000000001770003601202015090637N000300000010N86       000030400K 10000000010000001732           
CUS0851220000108004782002         SCHAEFER LORENZ W,JR2953 FREEWAY                            000N        CARE OF             
MTR08512200001000000000000000RA              10019127    005800370000003700000570000003NN  NNW 000                       N    
RDG08512200WATRL000000004K00000000000000127003701202015090659N000000000000N86       000220400K 10000000010000000120           
CUS0851220000108004783000         SCHAEFER PHILLIP A/L2955 FREEWAY                            000N        CARE OF             
MTR08512200001000000000000000RA              99287389    005800380000003800000570000003NN  NNW 000                       N    
RDG08512200WATRL000000004K00000000000000300003801202015090700N000000000000N86       000010400K 10000000010000000300           
CUS0851220000108004784008         DONNA JEFFERY       2957 FREEWAY                            000N        CARE OF             
MTR08512200001000000000000000RA              76348053    005800390000003900000350000003NN  NNW 000                       N    
RDG08512200WATRL000000004K00000000000000033026201202015111317N000000000000N86       008090400K 10000000010000000019           
CUS0851220000108004785005         HOY JOHN J          2959 FREEWAY                            000N        CARE OF             
MTR08512200001000000000000000RA              44090810    005800400000004000000520000003NN  NNW 000                       N    
RDG08512200WATRL000000004K00000000000002458026301202015111319N000000000000N86       000020400K 10000000010000002453           
CUS0851220000108004786003         GORSCHE DANA L      2961 FREEWAY                            000N        CARE OF             
MTR08512200001000000000000000RA              46875880    005800410000004100000520000003NN  NNW 000                       N    
RDG08512200WATRL000000004K00000000000002044003901202015091626N000000000000N86       005660400K 10000000010000002040           
CUS0851220000108004787001         BOOM HENRY BRUCE    2963 FREEWAY                            000N        CARE OF             
MTR08512200001000000000000000RA              00134917    005800420000004200000570000003NN  NNW 000                       N    
RDG08512200WATRL000000004K00000000000000054004001202015091630N000000000010N86       000040400K 10000000010000000053           
CUS0851220000108004788009         MULLIN FRANK J      2965 FREEWAY                            000N        CARE OF             
MTR08512200001000000000000000RA              99288066    005800430000004300000570000003NN  NNW 000                       N    
RDG08512200WATRL000000004K00000000000001507004101202015091745N000000000010N86       000750400K 10000000010000001486           
CUS0851220000108004789007         CHESAPEAKE BAY AREA 2967 FREEWAY                            000N        CARE OF             
MTR08512200001000000000000000RA              48586690    005800440000004400000520000003NN  NNW 000                       N    
RDG08512200WATRL000000004K00000000000000355004201202015091747N000000000000N86       000020400K 10000000010000000332           
CUS0851220000108004790005         CORNWELL FRANCES M  2969 FREEWAY                            000N        CARE OF             
MTR08512200001000000000000000RA              25782423    005800450000004500000520000003NN  NNW 000                       N    
RDG08512200WATRL000000004K00000000000002869004301202015091855N000000000000N86       000680400K 10000000010000002855           
CUS0851220000108004791003         KALINE JAMIE        3001 FREEWAY                            000N        CARE OF             
MTR08512200001000000000000000RA              26014334    005800460000004600000520000003NN  NNW 000                       N    
RDG08512200WATRL000000004K00000000000003416004401202015092011N000000000000N86       000760400K 10000000010000003396           
CUS0851220000108004792001         SCHIAVONE DENNIS J,J3003 FREEWAY                            000N        CARE OF             
MTR08512200001000000000000000RA              99288421    005800470000004700000570000003NN  NNW 000                       N    
RDG08512200WATRL000000004K00000000000000750004501202015092149N000000000000N86       000980400K 10000000010000000722           
CUS0851220000108004793009         KNOTT ERIK JOHN     3005 FREEWAY                            000N        CARE OF             
MTR08512200001000000000000000RA              99287591    005800480000004800000570000003NN  NNW 000                       N    
RDG08512200WATRL000000004K00000000000001254004601202015092152N000400000010N86       000030400K 10000000010000001245           
CUS0851220000108004794007         CHANG KAI-FU        3007 FREEWAY                            000N        CARE OF             
MTR08512200001000000000000000RA              31587913    005800490000004900000520000003NN  NNW 000                       N    
RDG08512200WATRL000000004K00000000000001825004701202015092210N000000000000N86       000180400K 10000000010000001809           
CUS0851220000108004795004         MONTEIL DANIELLE N  3009 FREEWAY                            000N        CARE OF             
MTR08512200001000000000000000RA              31587911    005800500000005000000520000003NN  NNW 000                       N    
RDG08512200WATRL000000004K00000000000002577004801202015092211N000000000000N86       000010400K 10000000010000002564           
CUS0851220000108004796002         JOSEPH FRANCE       3011 FREEWAY                            000N        CARE OF             
MTR08512200001000000000000000RA              44086409    005800510000005100000520000003NN  NNW 000   VACANT / LOT        N    
RDG08512200WATRL000000004K00000000000001338004901202015092232N000000000000N86       000210400K 10000000010000001338           
CUS0851220000108004797000         METZLER HOWARD G    3013 FREEWAY                            000N        CARE OF             
MTR08512200001000000000000000RA              99290099    005800520000005200000570000003NN  NNW 000                       N    
RDG08512200WATRL000000004K00000000000001083005001202015092233N000000000000N86       000010400K 10000000010000001073           
CUS0851220000108004798008         JORDAN JOSEPH C     3015 FREEWAY                            000N        CARE OF             
MTR08512200001000000000000000RA              32898015    005800530000005300000520000003NN  NNW 000                       N    
RDG08512200WATRL000000004K00000000000004017005101202015092459N000000000000N86       001460400K 10000000010000004005           
CUS0851220000108004799006         MOHLER JEFFREY S    3017 FREEWAY                            000N        CARE OF             
MTR08512200001000000000000000RA              32898013    005800540000005400000520000003NN  NNW 000                       N    
RDG08512200WATRL000000004K00000000000002865005201202015092505N000300000010N86       000060400K 10000000010000002764           
CUS0851220000108004800002         KIBLER MATTHEW P    3019 FREEWAY                            000N        CARE OF             
MTR08512200001000000000000000RA              31582241    005800550000005500000520000003NN  NNW 000                       N    
RDG08512200WATRL000000004K00000000000002310005301202015092613N000000000000N86       000680400K 10000000010000002292           
CUS0851220000108004801000         GUDE ERIC CARL      3021 FREEWAY                            000N        CARE OF             
MTR08512200001000000000000000RA              31582171    005800560000005600000520000003NN  NNW 000                       N    
RDG08512200WATRL000000004K00000000000003123005401202015092617N000000000000N86       000040400K 10000000010000003093           
CUS0851220000108004802008         KOLPER ROBERT       3023 FREEWAY                            000N        CARE OF             
MTR08512200001000000000000000RA              44086387    005800570000005700000520000003NN  NNW 000                       N    
RDG08512200WATRL000000004K00000000000001182005501202015092656N000000000000N86       000390400K 10000000010000001182           
CUS0851220000108004803006         KONICK DAVID L      3025 FREEWAY                            000N        CARE OF             
MTR08512200001000000000000000RA              01085930    005800580000005800000610000003NN  NNW 000                       N    
RDG08512200WATRL000000004K00000000000000382005601202015092703N000300000010N86       000070400K 10000000010000000343           
CUS0851220000108004804004         PATTERSON TROY M    3027 FREEWAY                            000N        CARE OF             
MTR08512200001000000000000000RA              26001405    005800590000005900000520000003NN  NNW 000                       N    
RDG08512200WATRL000000004K00000000000005199005701202015092750N000000000000N86       000470400K 10000000010000005171           
CUS0851220000108004805001         DOW THOMAS          3029 FREEWAY                            000N        CARE OF             
MTR08512200001000000000000000RA              19461351    005800600000006000000520000003NN  NNW 000                       N    
RDG08512200WATRL000000004K00000000000002477005801202015092823N000000000000N86       000330400K 10000000010000002459           
CUS0851220000108004806009         RICHARDSON ARAME    3031 FREEWAY                            000N        CARE OF             
MTR08512200001000000000000000RA              24767115    005800610000006100000520000003NN  NNW 000                       N    
RDG08512200WATRL000000004K00000000000002266005901202015092924N000000000000N86       000610400K 10000000010000002260           
CUS0851220000108004807007         SIMMONS SHIRLENE F  3033 FREEWAY                            000N        CARE OF             
MTR08512200001000000000000000RA              24765416    005800620000006200000520000003NN  NNW 000                       N    
RDG08512200WATRL000000004K00000000000002687006001202015092931N000000000000N86       000070400K 10000000010000002673           
CUS0851220000108004808005         LAM PATTON J        3035 FREEWAY                            000N        CARE OF             
MTR08512200001000000000000000RA              30515651    005800630000006300000520000003NN  NNW 000                       N    
RDG08512200WATRL000000004K00000000000003921006101202015093007N000000000000N86       000360400K 10000000010000003904           
CUS0851220000108004809003         TAYLOR MARK A       3037 FREEWAY                            000N        CARE OF             
MTR08512200001000000000000000RA              30515650    005800640000006400000520000003NN  NNW 000                       N    
RDG08512200WATRL000000004K00000000000003866006201202015093009N000000000000N86       000020400K 10000000010000003850           
CUS0851220000108004810001         DAVIES TERESSA M    3039 FREEWAY                            000N        CARE OF             
MTR08512200001000000000000000RA              44086397    005800650000006500000520000003NN  NNW 000                       N    
RDG08512200WATRL000000004K00000000000002961006301202015093034N000000000000N86       000250400K 10000000010000002941           
CUS0851220000108004811009         WATKINS CHRIS       3041 FREEWAY                            000N        CARE OF             
MTR08512200001000000000000000RA              44086392    005800660000006600000520000003NN  NNW 000                       N    
RDG08512200WATRL000000004K00000000000001195006401202015093038N000000000000N86       000040400K 10000000010000001195           
CUS0851220000108004812007         TAYLOR MARK A       3043 FREEWAY                            000N        CARE OF             
MTR08512200001000000000000000RA              39291510    005800670000006700000520000003NN  NNW 000                       N    
RDG08512200WATRL000000004K00000000000004115006501202015093128N000000000000N86       000500400K 10000000010000004025           
CUS0851220000108004813005         DONIECKI EDWARD J   3045 FREEWAY                            000N        CARE OF             
MTR08512200001000000000000000RA              14921308    005800680000006800000310000003NN  NNW 000                       N    
RDG08512200WATRL000000004K00000000000000559006601202015093131N000000000000N86       000030400K 10000000010000000549           
CUS0851220000108004814003         SPENCER ROBERT G    3047 FREEWAY                            000N        CARE OF             
MTR08512200001000000000000000RA              00125861    005800690000006900000570000003NN  NNW 000                       N    
RDG08512200WATRL000000004K00000000000000918006701202015093253N000000000000N86       000820400K 10000000010000000906           
CUS0851220000108004815000         RENASCO BONNIE C    3049 FREEWAY                            000N        CARE OF             
MTR08512200001000000000000000RA              01099983    005800700000007000000610000003NN  NNW 000                       N    
RDG08512200WATRL000000004K00000000000000699006801202015093257N000400000010N86       000040400K 10000000010000000692           
CUS0851220000108004816008         DONIECKI EDWARD J   3051 FREEWAY                            000N        CARE OF             
MTR08512200001000000000000000RA              40320477    005800710000007100000520000003NN  NNW 000                       N    
RDG08512200WATRL000000004K00000000000003596006901202015093315N000400000010N86       000180400K 10000000010000003581           
CUS0851220000108004817006         POTTER TIMOTHY E    3053 FREEWAY                            000N        CARE OF             
MTR08512200001000000000000000RA              40320475    005800720000007200000520000003NN  NNW 000                       N    
RDG08512200WATRL000000004K00000000000002169007001202015093317N000000000000N86       000020400K 10000000010000002153           
CUS0851220000108004818004         FUNKHOUSER MELVIN D 3055 FREEWAY                            000N        CARE OF             
MTR08512200001000000000000000RA              46881080    005800730000007300000520000003NN  NNW 000                       N    
RDG08512200WATRL000000004K00000000000001457007101202015093344N000000000000N86       000270400K 10000000010000001441           
CUS0851220000108004819002         BOWERS JOSHUA ANDREW3057 FREEWAY                            000N        CARE OF             
MTR08512200001000000000000000RA              99290751    005800740000007400000570000003NN  NNW 000                       N    
RDG08512200WATRL000000004K00000000000001354007201202015093417N000000000000N86       000330400K 10000000010000001332           
CUS0851220000108004820000         HOFFER GERSHON      3059 FREEWAY                            000N        CARE OF             
MTR08512200001000000000000000RA              46878385    005800750000007500000520000003NN  NNW 000                       N    
RDG08512200WATRL000000004K00000000000001249007301202015093510N000000000000N86       000530400K 10000000010000001241           
CUS0851220000108004821008         AARON JOSEPH F      3061 FREEWAY                            000N        CARE OF             
MTR08512200001000000000000000RA              26007728    005800760000007600000520000003NN  NNW 000                       N    
RDG08512200WATRL000000004K00000000000002930027101202015112507N000000000000N86       001200400K 10000000010000002920           
CUS0851220000108004822006         KLEMKOWSKI HENRY W  3063 FREEWAY                            000N        CARE OF             
MTR08512200001000000000000000RA              23644467    005800770000007700000520000003NN  NNW 000                       N    
RDG08512200WATRL000000004K00000000000005992007401202015093713N000000000000N86       001230400K 10000000010000005982           
CUS0851220000108004823004         OHLER RICHARD,JR    3065 FREEWAY                            000N        CARE OF             
MTR08512200001000000000000000RA              10008303    005800780000007800000570000003NN  NNW 000                       N    
RDG08512200WATRL000000004K00000000000000306007501202015093715N000000000000N86       000020400K 10000000010000000282           
CUS0851220000108004824002         DOMINION RENTAL HOLD3067 FREEWAY                            000N        CARE OF             
MTR08512200001000000000000000RA              44086412    005800790000007900000520000003NY  NNW 000                       N    
MTM0851220044086412    GAS LEAK                                                                                               
RDG08512200WATRL000000004K00000000000002967007601202015093801N000000000000N86       000460400K 10000000010000002960           
CUS0851220000108004825009         MILLER SANDRA LEE   3069 FREEWAY                            000N        CARE OF             
MTR08512200001000000000000000RA              44086587    005800800000008000000520000003NY  NNW 000                       N    
MTM0851220044086587    GAS LEAK                                                                                               
RDG08512200WATRL000000004K00000000000002451007701202015093803N000000000000N86       000020400K 10000000010000002433           
CUS0851220000108004826007         TAYLOR JOHN E       3101 FREEWAY                            000N        CARE OF             
MTR08512200001000000000000000RA              75424622    005800810000008100000350000003NN  NNW 000                       N    
RDG08512200WATRL000000004K00000000000000100007801202015093926N000000000000N86       000830400K 10000000010000000088           
CUS0851220000108004827005         GINN ROBERT         3103 FREEWAY                            000N        CARE OF             
MTR08512200001000000000000000RA              00137344    005800820000008200000570000003NN  NNW 000                       N    
RDG08512200WATRL000000004K00000000000000888007901202015093927N000000000000N86       000010400K 10000000010000000852           
CUS0851220000108004828003         MCINTIRE SHELLEY    3105 FREEWAY                            000N        CARE OF             
MTR08512200001000000000000000RA              00138646    005800830000008300000570000003NN  NNW 000                       N    
RDG08512200WATRL000000004K00000000000000907008001202015094011N000000000000N86       000440400K 10000000010000000892           
CUS0851220000108004829001         JOHNSON TERESA C    3107 FREEWAY                            000N        CARE OF             
MTR08512200001000000000000000RA              42809199    005800840000008400000520000003NN  NNW 000                       N    
RDG08512200WATRL000000004K00000000000001908008101202015094012N000000000000N86       000010400K 10000000010000001885           
CUS0851220000108004830009         BORJAS OSCAR JESUS  3109 FREEWAY                            000N        CARE OF             
MTR08512200001000000000000000RA              29402491    005800850000008500000520000003NN  NNW 000                       N    
RDG08512200WATRL000000004K00000000000004634008201202015094156N000300000020N86       001040400K 10000000010000004606           
CUS0851220000108004831007         DICKENS RACHEL      3111 FREEWAY                            000N        CARE OF             
MTR08512200001000000000000000RA              01079742    005800860000008600000610000003NN  NNW 000                       N    
RDG08512200WATRL000000004K00000000000001104008401202015094250N000000000000N86       000440400K 10000000010000001094           
CUS0851220000108004832005         ADKINS SCOTT        3113 FREEWAY                            000N        CARE OF             
MTR08512200001000000000000000RA              01079741    005800870000008700000610000003NN  NNW 000                       N    
RDG08512200WATRL000000004K00000000000001137008301202015094206N000000000000N86       000100400K 10000000010000001114           
CUS0851220000108004833003         CUFFLEY JOSEPH A, JR3115 FREEWAY                            000N        CARE OF             
MTR08512200001000000000000000RA              01103210    005800880000008800000610000003NN  NNW 000                       N    
RDG08512200WATRL000000004K00000000000000655008501202015094345N000000000000N86       000550400K 10000000010000000644           
CUS0851220000108004834001         BRIZENDINE MATTHEW E3117 FREEWAY                            000N        CARE OF             
MTR08512200001000000000000000RA              01103209    005800890000008900000610000003NN  NNW 000                       N    
RDG08512200WATRL000000004K00000000000001575008601202015094419N000000000020N86       000340400K 10000000010000001485           
CUS0851220000108004835008         TAYLOR MARK A       3119 FREEWAY                            000N        CARE OF             
MTR08512200001000000000000000RA              27814489    005800900000009000000520000003NN  NNW 000                       N    
RDG08512200WATRL000000004K00000000000003427008701202015094452N000000000000N86       000330400K 10000000010000003427           
CUS0851220000108004836006         DALY KRISTIN D      3121 FREEWAY                            000N        CARE OF             
MTR08512200001000000000000000RA              27814485    005800910000009100000520000003NN  NNW 000                       N    
RDG08512200WATRL000000004K00000000000003257008801202015094453N000000000000N86       000010400K 10000000010000003247           
CUS0851220000108004837004         FORD MILTON T,JR    3123 FREEWAY                            000N        CARE OF             
MTR08512200001000000000000000RA              29404486    005800920000009200000520000003NN  NNW 000                       N    
RDG08512200WATRL000000004K00000000000003088009001202015094711N000000000000N86       000490400K 10000000010000003075           
CUS0851220000108004838002         DAVIS JAMES M       3125 FREEWAY                            000N        CARE OF             
MTR08512200001000000000000000RA              10007919    005800930000009300000570000003NN  NNW 000                       N    
RDG08512200WATRL000000004K00000000000000123008901202015094622N000000000000N86       000890400K 10000000010000000118           
CUS0851220000108004839000         MULLIGAN BARBARA A  3127 FREEWAY                            000N        CARE OF             
MTR08512200001000000000000000RA              14912244    005800940000009400000310000003NN  NNW 000                       N    
RDG08512200WATRL000000004K00000000000000449009101202015094804N000000000000N86       000530400K 10000000010000000441           
CUS0851220000108004840008         SICKLE DENNIS M,SR  3129 FREEWAY                            000N        CARE OF             
MTR08512200001000000000000000RA              27832968    005800950000009500000520000003NN  NNW 000                       N    
RDG08512200WATRL000000004K00000000000003559009301202015095040N000000000000N86       001100400K 10000000010000003547           
CUS0851220000108004841006         SACHS CINDY LOU     3131 FREEWAY                            000N        CARE OF             
MTR08512200001000000000000000RA              23052004    005800960000009600000520000003NN  NNW 000                       N    
RDG08512200WATRL000000004K00000000000003791009201202015094850N000000000000N86       000460400K 10000000010000003763           
CUS0851220000108004842004         PATTERSON TROY M    1000 FREDONIA CT                        000N        CARE OF             
MTR08512200001000000000000000RA              14929690    005800970000009700000310000003NN  NNW 000                       N    
RDG08512200WATRL000000004K00000000000000553009401202015095138N000000000000N86       000580400K 10000000010000000528           
CUS0851220000108004843002         FIRST STREET REALTY 1002 FREDONIA CT                        000N        CARE OF             
MTR08512200001000000000000000RA              10022742    005800980000009800000570000003NN  NNW 000                       N    
RDG08512200WATRL000000004K00000000000000260009501202015095140N000000000000N86       000020400K 10000000010000000227           
CUS0851220000108004844000         TAYLOR RUTH F       1004 FREDONIA CT                        000N        CARE OF             
MTR08512200001000000000000000RA              78020950    005800990000009900000350000003NN  NNW 000                       N    
RDG08512200WATRL000000004K00000000000000000027701202015113132S001000000000N86       000330400K 10000000010000000002           
CUS0851220000108004845007         WHEELER DAVID MICHAE1006 FREDONIA CT                        000N        CARE OF             
MTR08512200001000000000000000RA              29681315    005801000000010000000520000003NN  NNW 000                       N    
RDG08512200WATRL000000004K00000000000002890027601202015113059N000000000000N86       001740400K 10000000010000002879           
CUS0851220000108004846005         COLLINS DENNIS GEORG1008 FREDONIA CT                        000N        CARE OF             
MTR08512200001000000000000000RA              01084727    005801010000010100000610000003NN  NNW 000                       N    
RDG08512200WATRL000000004K00000000000001100009601202015095254N000000000000N86       000740400K 10000000010000001079           
CUS0851220000108004847003         FLORES PABLO H      1010 FREDONIA CT                        000N        CARE OF             
MTR08512200001000000000000000RA              44173308    005801020000010200000520000003NN  NNW 000                       N    
RDG08512200WATRL000000004K00000000000002090009701202015095328N000000000000N86       000340400K 10000000010000002066           
CUS0851220000108004848001         MCMORROW SHERRY     1012 FREDONIA CT                        000N        CARE OF             
MTR08512200001000000000000000RA              11336214    005801030000010300000570000003NN  NNW 000                       N    
RDG08512200WATRL000000004K00000000000001948009801202015095403N000000000000N86       000350400K 10000000010000001943           
CUS0851220000108004849009         DONIECKI JOHN       1014 FREDONIA CT                        000N        CARE OF             
MTR08512200001000000000000000RA              32902506    005801040000010400000520000003NN  NNW 000                       N    
RDG08512200WATRL000000004K00000000000002329009901202015095443N000000000000N86       000400400K 10000000010000002314           
CUS0851220000108004850007         KRAYSIL ELENA       1016 FREDONIA CT                        000N        CARE OF             
MTR08512200001000000000000000RA              78022453    005801050000010500000350000003NN  NNW 000                       N    
RDG08512200WATRL000000004K00000000000000017010001202015095519N000000000000N86       000360400K 10000000010000000001           
CUS0851220000108004851005         CLARK DANA M        1018 FREDONIA CT                        000N        CARE OF             
MTR08512200001000000000000000RA              78022451    005801060000010600000350000003NN  NNW 000                       N    
RDG08512200WATRL000000004K00000000000000014010101202015095520N000000000000N86       000010400K 10000000010000000000           
CUS0851220000108004852003         BDR2 LLC            1020 FREDONIA CT                        000N        CARE OF             
MTR08512200001000000000000000RA              41082843    005801070000010700000520000003NN  NNW 000                       N    
RDG08512200WATRL000000004K00000000000002891010201202015095538N000000000000N86       000180400K 10000000010000002859           
CUS0851220000108004853001         WHITEHEAD RONALD L  1022 FREDONIA CT                        000N        CARE OF             
MTR08512200001000000000000000RA              41082933    005801080000010800000520000003NN  NNW 000                       N    
RDG08512200WATRL000000004K00000000000002706010301202015095540N000000000000N86       000020400K 10000000010000002691           
CUS0851220000108004854009         THOMPSON FORREST Z  1024 FREDONIA CT                        000N        CARE OF             
MTR08512200001000000000000000RA              26013970    005801090000010900000520000003NN  NNW 000                       N    
RDG08512200WATRL000000004K00000000000003974010401202015095603N000000000000N86       000230400K 10000000010000003965           
CUS0851220000108004855006         HAMPSTEAD PROPERTIES1026 FREDONIA CT                        000N        CARE OF             
MTR08512200001000000000000000RA              26013967    005801100000011000000520000003NN  NNW 000                       N    
RDG08512200WATRL000000004K00000000000002606010501202015095606N000100000010N86       000030400K 10000000010000002606           
CUS0851220000108004856004         THUNDER HILL PROPERT1025 FREDONIA CT                        000N        CARE OF             
MTR08512200001000000000000000RA              99290841    005801110000011100000570000003NN  NNW 000                       N    
RDG08512200WATRL000000004K00000000000000947010601202015095625N000300000010N86       000190400K 10000000010000000939           
CUS0851220000108004857002         MONTEIL PIERRE L    1023 FREDONIA CT                        000N        CARE OF             
MTR08512200001000000000000000RA              99290839    005801120000011200000570000003NN  NNW 000                       N    
RDG08512200WATRL000000004K00000000000000817010701202015095626N000000000000N86       000010400K 10000000010000000805           
CUS0851220000108004858000         CAIN CALVIN H,SR    1021 FREDONIA CT                        000N        CARE OF             
MTR08512200001000000000000000RA              19460815    005801130000011300000520000003NN  NNW 000                       N    
RDG08512200WATRL000000004K00000000000004700010801202015095628N000000000000N86       000020400K 10000000010000004700           
CUS0851220000108004859008         LIGHT MARY ELLEN    1019 FREDONIA CT                        000N        CARE OF             
MTR08512200001000000000000000RA              21202736    005801140000011400000520000003NN  NNW 000                       N    
RDG08512200WATRL000000004K00000000000005737010901202015095647N000000000000N86       000190400K 10000000010000005733           
CUS0851220000108004860006         JOHNSON WILLIAM,JR  1017 FREDONIA CT                        000N        CARE OF             
MTR08512200001000000000000000RA              29686898    005801150000011500000520000003NN  NNW 000                       N    
RDG08512200WATRL000000004K00000000000001715011001202015095650N000000000000N86       000030400K 10000000010000001711           
CUS0851220000108004861004         JONES JANICE ROSA   1015 FREDONIA CT                        000N        CARE OF             
MTR08512200001000000000000000RA              36687710    005801160000011600000520000003NN  NNW 000                       N    
RDG08512200WATRL000000004K00000000000001921027801202015113343N000000000000N86       001310400K 10000000010000001905           
CUS0851220000108004862002         WILTSHIRE BARBARA J,1013 FREDONIA CT                        000N        CARE OF             
MTR08512200001000000000000000RA              36687709    005801170000011700000520000003NN  NNW 000                       N    
RDG08512200WATRL000000004K00000000000001980027901202015113345N000000000000N86       000020400K 10000000010000001969           
CUS0851220000108004863000         FLEMING HENRY I     1011 FREDONIA CT                        000N        CARE OF             
MTR08512200001000000000000000RA              00138459    005801180000011800000570000003NN  NNW 000                       N    
RDG08512200WATRL000000004K00000000000001913011101202015095844N000000000000N86       001140400K 10000000010000001888           
CUS0851220000108004864008         CANTERBURY SANDY K  1009 FREDONIA CT                        000N        CARE OF             
MTR08512200001000000000000000RA              48593936    005801190000011900000520000003NN  NNW 000                       N    
RDG08512200WATRL000000004K00000000000002992011201202015095910N000000000000N86       000260400K 10000000010000002968           
CUS0851220000108004865005         PATTERSON TROY M    1007 FREDONIA CT                        000N        CARE OF             
MTR08512200001000000000000000RA              27134291    005801200000012000000520000003NN  NNW 000                       N    
RDG08512200WATRL000000004K00000000000003553011301202015095939N000000000000N86       000290400K 10000000010000003534           
CUS0851220000108004866003         PATTERSON TROY M    1005 FREDONIA CT                        000N        CARE OF             
MTR08512200001000000000000000RA              29686901    005801210000012100000520000003NN  NNW 000                       N    
RDG08512200WATRL000000004K00000000000003453011401202015095949N000300000020N86       000100400K 10000000010000003439           
CUS0851220000108004867001         JUSTIN ESHENBAUGH   1003 FREDONIA CT                        000N        CARE OF             
MTR08512200001000000000000000RA              14923118    005801220000012200000310000003NN  NNW 000                       N    
RDG08512200WATRL000000004K00000000000000737011501202015100020N000000000000N86       000310400K 10000000010000000639           
CUS0851220000108004868009         PETE KAIROS         1001 FREDONIA CT                        000N        CARE OF             
MTR08512200001000000000000000RA              45384758    005801230000012300000520000003NN  NNW 000                       N    
RDG08512200WATRL000000004K00000000000000462011601202015100021N000000000000N86       000010400K 10000000010000000431           
CUS0851220000108004869007         NEPTUNE ELIAS K     3171 FREEWAY                            000N        CARE OF             
MTR08512200001000000000000000RA              00138649    005801240000012400000570000003NN  NNW 000                       N    
RDG08512200WATRL000000004K00000000000001201011701202015100204N000000000000N86       001030400K 10000000010000001188           
CUS0851220000108004870005         BROZNOWICZ STEPHEN,J3173 FREEWAY                            000N        CARE OF             
MTR08512200001000000000000000RA              26001403    005801250000012500000520000003NN  NNW 000                       N    
RDG08512200WATRL000000004K00000000000004067011801202015100231N000000000000N86       000270400K 10000000010000004060           
CUS0851220000108004871003         JOSEPH KIBLER       3175 FREEWAY                            000N        CARE OF             
MTR08512200001000000000000000RA              99290031    005801260000012600000570000003NN  NNW 000                       N    
RDG08512200WATRL000000004K00000000000001245011901202015100235N000100000010N86       000040400K 10000000010000001245           
CUS0851220000108004872001         HORAN JOHN R        3177 FREEWAY                            000N        CARE OF             
MTR08512200001000000000000000RA              48585039    005801270000012700000520000003NN  NNW 000                       N    
RDG08512200WATRL000000004K00000000000002592012001202015100257N000000000000N86       000220400K 10000000010000002576           
CUS0851220000108004873009         PATTERSON TROY M    3179 FREEWAY                            000N        CARE OF             
MTR08512200001000000000000000RA              30515288    005801280000012800000520000003NN  NNW 000                       N    
RDG08512200WATRL000000004K00000000000004178012101202015100258N000000000000N86       000010400K 10000000010000004123           
CUS0851220000108004874007         BURRHUS CHRISTINE L 3181 FREEWAY                            000N        CARE OF             
MTR08512200001000000000000000RA              33736201    005801290000012900000520000003NN  NNW 000                       N    
RDG08512200WATRL000000004K00000000000002429012201202015100330N000000000000N86       000320400K 10000000010000002406           
CUS0851220000108004875004         POTTER TIMOTHY EARL 3183 FREEWAY                            000N        CARE OF             
MTR08512200001000000000000000RA              24772952    005801300000013000000520000003NN  NNW 000                       N    
RDG08512200WATRL000000004K00000000000005009012301202015100332N000000000000N86       000020400K 10000000010000004979           
CUS0851220000108004988005         DELAIR FELICITE     527 CARLSBAD CT                         000N        CARE OF             
MTR08512200001000000000000000RA              35118352    005801310000013100000520000003NN  NNW 000                       N    
RDG08512200WATRL000000004K00000000000003819012401202015100448N000000000000N86       000760400K 10000000010000003791           
CUS0851220000108004987007         VOSS DONALD W,SR    525 CARLSBAD CT                         000N        CARE OF             
MTR08512200001000000000000000RA              41590011    005801320000013200000520000003NN  NNW 000                       N    
RDG08512200WATRL000000004K00000000000002648012501202015100510N000000000000N86       000220400K 10000000010000002617           
CUS0851220000108004986009         OBERG MARION C,JR   523 CARLSBAD CT                         000N        CARE OF             
MTR08512200001000000000000000RA              41589613    005801330000013300000520000003NN  NNW 000                       N    
RDG08512200WATRL000000004K00000000000001744012601202015100511N000000000000N86       000010400K 10000000010000001744           
CUS0851220000108004985001         OHLER RICHARD,JR    521 CARLSBAD CT                         000N        CARE OF             
MTR08512200001000000000000000RA              00138673    005801340000013400000570000003NN  NNW 000                       N    
RDG08512200WATRL000000004K00000000000000918012701202015100553N000000000011N86       000040400K 10000000010000000841           
CUS0851220000108004984004         SHORTT MICHAEL K    519 CARLSBAD CT                         000N        CARE OF             
MTR08512200001000000000000000RA              00138972    005801350000013500000570000003NN  NNW 000                       N    
RDG08512200WATRL000000004K00000000000001048012801202015100549N000000000000N86       000040400K 10000000010000001014           
CUS0851220000108004983006         WILSON JASON P      517 CARLSBAD CT                         000N        CARE OF             
MTR08512200001000000000000000RA              41590012    005801360000013600000520000003NN  NNW 000                       N    
RDG08512200WATRL000000004K00000000000001874012901202015100622N000000000000N86       000290400K 10000000010000001871           
CUS0851220000108004982008         LEONARD HELEN M     515 CARLSBAD CT                         000N        CARE OF             
MTR08512200001000000000000000RA              41590014    005801370000013700000520000003NN  NNW 000                       N    
RDG08512200WATRL000000004K00000000000002137013001202015100632N000000000000N86       000100400K 10000000010000002131           
CUS0851220000108004981000         THEISZ CHARLES      513 CARLSBAD CT                         000N        CARE OF             
MTR08512200001000000000000000RA              00138671    005801380000013800000570000003NN  NNW 000                       N    
RDG08512200WATRL000000004K00000000000000650013101202015100654N000000000000N86       000220400K 10000000010000000650           
CUS0851220000108004980002         WINGROVE THOMAS MARK511 CARLSBAD CT                         000N        CARE OF             
MTR08512200001000000000000000RA              00138669    005801390000013900000570000003NN  NNW 000                       N    
RDG08512200WATRL000000004K00000000000001547013201202015100657N000000000000N86       000030400K 10000000010000001364           
CUS0851220000108004979004         U.S. BANK NATL ASSOC509 CARLSBAD CT                         000N        CARE OF             
MTR08512200001000000000000000RA              20968849    005801400000014000000520000003NN  NNW 000                       N    
RDG08512200WATRL000000004K00000000000005288013301202015100718N000000000010N86       000210400K 10000000010000005281           
CUS0851220000108004978006         ROLAND GLATTHAAR    507 CARLSBAD CT                         000N        CARE OF             
MTR08512200001000000000000000RA              36691235    005801410000014100000520000003NN  NNW 000                       N    
RDG08512200WATRL000000004K00000000000003247013401202015100720N000000000000N86       000020400K 10000000010000003208           
CUS0851220000108004977008         STEVEN D. STOUT     505 CARLSBAD CT                         000N        CARE OF             
MTR08512200001000000000000000RA              48586178    005801420000014200000520000003NN  NNW 000                       N    
RDG08512200WATRL000000004K00000000000001561013501202015100731N000000000000N86       000110400K 10000000010000001537           
CUS0851220000108004976000         BANK OF AMERICA     503 CARLSBAD CT                         000N        CARE OF             
MTR08512200001000000000000000RA              27213998    005801430000014300000520000003NN  NNW 000                       N    
RDG08512200WATRL000000004K00000000000009704013601202015100751N000000000000N86       000200400K 10000000010000009704           
CUS0851220000108004975002         CONWAY LYNETTE TAVIE501 CARLSBAD CT                         000N        CARE OF             
MTR08512200001000000000000000RA              48586717    005801440000014400000520000003NN  NNW 000                       N    
RDG08512200WATRL000000004K00000000000001951013701202015100753N000000000000N86       000020400K 10000000010000001936           
CUS0851220000108004974005         DOLINSKIJ LENA MARIE500 CARLSBAD CT                         000N        CARE OF             
MTR08512200001000000000000000RA              27132293    005801450000014500000520000003NN  NNW 000                       N    
RDG08512200WATRL000000004K00000000000003266013801202015100822N000000000000N86       000290400K 10000000010000003259           
CUS0851220000108004973007         MILLER JUDITH L     502 CARLSBAD CT                         000N        CARE OF             
MTR08512200001000000000000000RA              27132318    005801460000014600000520000003NN  NNW 000                       N    
RDG08512200WATRL000000004K00000000000004094013901202015100825N000000000000N86       000030400K 10000000010000004076           
CUS0851220000108004972009         HARMAN WILLIAM K JR 504 CARLSBAD CT                         000N        CARE OF             
MTR08512200001000000000000000RA              41590010    005801470000014700000520000003NN  NNW 000                       N    
RDG08512200WATRL000000004K00000000000002804014001202015100855N000000000000N86       000300400K 10000000010000002795           
CUS0851220000108004971001         COVINGTON CARL A    506 CARLSBAD CT                         000N        CARE OF             
MTR08512200001000000000000000RA              27213978    005801480000014800000520000003NN  NNW 000                       N    
RDG08512200WATRL000000004K00000000000004168014101202015100902N000000000000N86       000070400K 10000000010000004156           
CUS0851220000108004970003         COX BERNARD R,JR    508 CARLSBAD CT                         000N        CARE OF             
MTR08512200001000000000000000RA              76344978    005801490000014900000350000003NN  NNW 000                       N    
RDG08512200WATRL000000004K00000000000000050014201202015100945N000000000000N86       000430400K 10000000010000000038           
CUS0851220000108004969005         FORD JANE E         510 CARLSBAD CT                         000N        CARE OF             
MTR08512200001000000000000000RA              10024086    005801500000015000000570000003NN  NNW 000                       N    
RDG08512200WATRL000000004K00000000000000224014301202015100947N000000000000N86       000020400K 10000000010000000195           
CUS0851220000108004968007         OHLER RICHARD,JR    512 CARLSBAD CT                         000N        CARE OF             
MTR08512200001000000000000000RA              32177298    005801510000015100000520000003NN  NNW 000                       N    
RDG08512200WATRL000000004K00000000000003123014401202015101024N000000000000N86       000370400K 10000000010000003101           
CUS0851220000108004967009         KYLE CHARLES EDWIN  514 CARLSBAD CT                         000N        CARE OF             
MTR08512200001000000000000000RA              32177301    005801520000015200000520000003NN  NNW 000                       N    
RDG08512200WATRL000000004K00000000000003473014501202015101039N000300000010N86       000150400K 10000000010000003424           
CUS0851220000108004966001         LOCHARY JAMES       516 CARLSBAD CT                         000N        CARE OF             
MTR08512200001000000000000000RA              14917923    005801530000015300000310000003NN  NNW 000                       N    
RDG08512200WATRL000000004K00000000000000455014601202015101229N000000000000N86       001100400K 10000000010000000437           
CUS0851220000108004965003         TIMOTHY & NANCY POTT518 CARLSBAD CT                         000N        CARE OF             
MTR08512200001000000000000000RA              32177419    005801540000015400000520000003NN  NNW 000                       N    
RDG08512200WATRL000000004K00000000000003291014701202015101230N000000000000N86       000010400K 10000000010000003270           
CUS0851220000108004964006         PHUC B. NGUYEN      520 CARLSBAD CT                         000N        CARE OF             
MTR08512200001000000000000000RA              32177297    005801550000015500000520000003NN  NNW 000                       N    
RDG08512200WATRL000000004K00000000000002106014801202015101314N000000000000N86       000440400K 10000000010000002082           
CUS0851220000108004568005         GROW DONALD         3161 BERO RD                            000N        CARE OF             
MTR08512200001000000000000000RA              29680841    005801560000015600000520000003NN  NNW 000                       N    
RDG08512200WATRL000000004K00000000000003353014901202015101414N000000000000N86       000600400K 10000000010000003345           
CUS0851220000108004569003         DOOLEY JAMES EDWARD,3163 BERO RD                            000N        CARE OF             
MTR08512200001000000000000000RA              40320472    005801570000015700000520000003NN  NNW 000                       N    
RDG08512200WATRL000000004K00000000000002001015001202015101443N000000000000N86       000290400K 10000000010000001988           
CUS0851220000108004570001         PATTERSON TROY M    3165 BERO RD                            000N        CARE OF             
MTR08512200001000000000000000RA              40049708    005801580000015800000520000003NN  NNW 000                       N    
RDG08512200WATRL000000004K00000000000003791015101202015101445N000000000000N86       000020400K 10000000010000003738           
CUS0851220000108004571009         PHILLIPS ROSALIE C  3167 BERO RD                            000N        CARE OF             
MTR08512200001000000000000000RA              78022449    005801590000015900000350000003NN  NNW 000                       N    
RDG08512200WATRL000000004K00000000000000000015201202015101528N000000000010N86       000430400K 10000000010000000000           
CUS0851220000108004572007         HUMPHREY DENNIS     3169 BERO RD                            000N        CARE OF             
MTR08512200001000000000000000RA              23052089    005801600000016000000520000003NN  NNW 000                       N    
RDG08512200WATRL000000004K00000000000005542015301202015101532N000000000000N86       000040400K 10000000010000005520           
CUS0851220000108004573005         HUMPHREY MELISSA    3171 BERO RD                            000N        CARE OF             
MTR08512200001000000000000000RA              44086633    005801610000016100000520000003NN  NNW 000                       N    
RDG08512200WATRL000000004K00000000000002207015401202015101543N000000000000N86       000110400K 10000000010000002173           
CUS0851220000108004574003         SMITH GENEVIE ELSIE 3173 BERO RD                            000N        CARE OF             
MTR08512200001000000000000000RA              44086631    005801620000016200000520000003NN  NNW 000                       N    
RDG08512200WATRL000000004K00000000000001655015501202015101544N000000000000N86       000010400K 10000000010000001639           
CUS0851220000108004575000         REIBERT SCOTT E     3175 BERO RD                            000N        CARE OF             
MTR08512200001000000000000000RA              33082471    005801630000016300000520000003NN  NNW 000                       N    
RDG08512200WATRL000000004K00000000000003400015601202015101627N000000000000N86       000430400K 10000000010000003375           
CUS0851220000108004576008         MELISSA A NOBLE     3177 BERO RD                            000N        CARE OF             
MTR08512200001000000000000000RA              33082467    005801640000016400000520000003NN  NNW 000                       N    
RDG08512200WATRL000000004K00000000000003753015701202015101629N000000000000N86       000020400K 10000000010000003740           
CUS0851220000108004577006         INGALLS MARK W      3179 BERO RD                            000N        CARE OF             
MTR08512200001000000000000000RA              27828289    005801650000016500000520000003NN  NNW 000                       N    
RDG08512200WATRL000000004K00000000000004261015801202015101706N000000000000N86       000370400K 10000000010000004245           
CUS0851220000108004578004         SALVATORE T VITALE  3181 BERO RD                            000N        CARE OF             
MTR08512200001000000000000000RA              48590428    005801660000016600000520000003NN  NNW 000                       N    
RDG08512200WATRL000000004K00000000000001305015901202015101709N000000000000N86       000030400K 10000000010000001290           
CUS0851220000108004579002         BLANCO JOSE E       3183 BERO RD                            000N        CARE OF             
MTR08512200001000000000000000RA              44086625    005801670000016700000520000003NN  NNW 000                       N    
RDG08512200WATRL000000004K00000000000001007016001202015101741N000000000000N86       000320400K 10000000010000000992           
CUS0851220000108004580000         LEWALD THOMAS W,JR  3185 BERO RD                            000N        CARE OF             
MTR08512200001000000000000000RA              44086627    005801680000016800000520000003NN  NNW 000                       N    
RDG08512200WATRL000000004K00000000000002258016101202015101743N000000000000N86       000020400K 10000000010000002250           
CUS0851220000108004581008         SOUDERS JAMES B,JR  3187 BERO RD                            000N        CARE OF             
MTR08512200001000000000000000RA              20968330    005801690000016900000520000003NN  NNW 000                       N    
RDG08512200WATRL000000004K00000000000004240016201202015101823N000000000000N86       000400400K 10000000010000004210           
CUS0851220000108004582006         YOUNG KURT F        3189 BERO RD                            000N        CARE OF             
MTR08512200001000000000000000RA              26014804    005801700000017000000520000003NN  NNW 000                       N    
RDG08512200WATRL000000004K00000000000001357016301292015143635O000000000010N80       000210400K 10000000010000001341           
CUS0851220000108004583004         MASON ROSS W        3191 BERO RD                            000N        CARE OF             
MTR08512200001000000000000000RA              42808405    005801710000017100000520000003NN  NNW 000                       N    
RDG08512200WATRL000000004K00000000000001801016401202015101900N000000000000N86       000160400K 10000000010000001790           
CUS0851220000108004584002         KING KENNETH H      3193 BERO RD                            000N        CARE OF             
MTR08512200001000000000000000RA              42808383    005801720000017200000520000003NN  NNW 000                       N    
RDG08512200WATRL000000004K00000000000001712016501202015101901N000000000000N86       000010400K 10000000010000001699           
CUS0851220000108004585009         IMBRAGULIO RONALD A,3195 BERO RD                            000N        CARE OF             
MTR08512200001000000000000000RA              38887566    005801730000017300000520000003NN  NNW 000                       N    
RDG08512200WATRL000000004K00000000000003087016601202015101926N000000000000N86       000250400K 10000000010000003073           
CUS0851220000108004586007         LEWALD THOMAS W,JR  3197 BERO RD                            000N        CARE OF             
MTR08512200001000000000000000RA              38887589    005801740000017400000520000003NN  NNW 000                       N    
RDG08512200WATRL000000004K00000000000002312016701202015101929N000000000000N86       000030400K 10000000010000002312           
CUS0851220000108004587005         POTTER TIMOTHY L    3199 BERO RD                            000N        CARE OF             
MTR08512200001000000000000000RA              30521567    005801750000017500000520000003NN  NNW 000                       N    
RDG08512200WATRL000000004K00000000000003668028201202015114036N000000000001N86       001190400K 10000000010000003655           
CUS0851220000108004588003         FITZBERGER MATTHEW T919 NIAGARA CT                          000N        CARE OF             
MTR08512200001000000000000000RA              52290170    005801760000017600000520000003NN  NNW 000                       N    
RDG08512200WATRL000000004K00000000000001349016801202015102147N000000000000N86       001380400K 10000000010000001332           
CUS0851220000108004589001         WYSOCKI WAYNE       917 NIAGARA CT                          000N        CARE OF             
MTR08512200001000000000000000RA              14916844    005801770000017700000310000003NN  NNW 000                       N    
RDG08512200WATRL000000004K00000000000000683016901202015102153N000100000010N86       000060400K 10000000010000000683           
CUS0851220000108004590009         DONIECKI EDWARD J   915 NIAGARA CT                          000N        CARE OF             
MTR08512200001000000000000000RA              33081598    005801780000017800000520000003NN  NNW 000                       N    
RDG08512200WATRL000000004K00000000000003793017001202015113725N000000000001N86       000070400K 10000000010000003787           
CUS0851220000108004591007         SMITH LAURA L       913 NIAGARA CT                          000N        CARE OF             
MTR08512200001000000000000000RA              35119275    005801790000017900000520000003NN  NNW 000                       N    
RDG08512200WATRL000000004K00000000000001595028001202015113718N000000000000N86       002130400K 10000000010000001595           
CUS0851220000108004592005         KEYS ELIZABETH      911 NIAGARA CT                          000N        CARE OF             
MTR08512200001000000000000000RA              50787585    005801800000018000000520000003NN  NNW 000                       N    
RDG08512200WATRL000000004K00000000000001507017101202015102450N000000000000N86       000790400K 10000000010000001491           
CUS0851220000108004593003         NIAGARA FREELAND,LLC909 NIAGARA CT                          000N        CARE OF             
MTR08512200001000000000000000RA              48592297    005801810000018100000520000003NN  NNW 000                       N    
RDG08512200WATRL000000004K00000000000000484017201202015102452N000000000000N86       000020400K 10000000010000000466           
CUS0851220000108004594001         THOMPSON CHARLOTTE A907 NIAGARA CT                          000N        CARE OF             
MTR08512200001000000000000000RA              45385525    005801820000018200000520000003NN  NNW 000                       N    
RDG08512200WATRL000000004K00000000000001816028101202015113837N000000000000N86       000720400K 10000000010000001803           
CUS0851220000108004595008         REED WENDELL N      905 NIAGARA CT                          000N        CARE OF             
MTR08512200001000000000000000RA              44086842    005801830000018300000520000003NN  NNW 000                       N    
RDG08512200WATRL000000004K00000000000004810017301202015102635N000000000000N86       001030400K 10000000010000004781           
CUS0851220000108004596006         TAYLOR DAVID E      903 NIAGARA CT                          000N        CARE OF             
MTR08512200001000000000000000RA              31582172    005801840000018400000520000003NN  NNW 000                       N    
RDG08512200WATRL000000004K00000000000002881017401202015102712N000000000000N86       000370400K 10000000010000002868           
CUS0851220000108004597004         GARBER IMA J        901 NIAGARA CT                          000N        CARE OF             
MTR08512200001000000000000000RA              33080616    005801850000018500000520000003NN  NNW 000                       N    
RDG08512200WATRL000000004K00000000000002213017501202015102713N000000000000N86       000010400K 10000000010000002201           
CUS0851220000108004598002         ARGUELLO LUCIANO    900 NIAGARA CT                          000N        CARE OF             
MTR08512200001000000000000000RA              45385544    005801860000018600000520000003NN  NNW 000                       N    
RDG08512200WATRL000000004K00000000000002314017601202015102730N000000000000N86       000170400K 10000000010000002252           
CUS0851220000108004599000         KIRK KISTOO         902 NIAGARA CT                          000N        CARE OF             
MTR08512200001000000000000000RA              45385504    005801870000018700000520000003NN  NNW 000                       N    
RDG08512200WATRL000000004K00000000000001682017701202015102731N000000000000N86       000010400K 10000000010000001676           
CUS0851220000108004600006         DEPAGANO HELENA ANTO904 NIAGARA CT                          000N        CARE OF             
MTR08512200001000000000000000RA              44086968    005801880000018800000520000003NN  NNW 000                       N    
RDG08512200WATRL000000004K00000000000002746017801202015102744N000000000000N86       000130400K 10000000010000002712           
CUS0851220000108004601004         SCHIRMBECK LARRY A  906 NIAGARA CT                          000N        CARE OF             
MTR08512200001000000000000000RA              23841250    005801890000018900000520000003NN  NNW 000                       N    
RDG08512200WATRL000000004K00000000000005779017901202015102747N000000000000N86       000030400K 10000000010000005769           
CUS0851220000108004602002         MOORE LAWRENCE      908 NIAGARA CT                          000N        CARE OF             
MTR08512200001000000000000000RA              32901751    005801900000019000000520000003NN  NNW 000                       N    
RDG08512200WATRL000000004K00000000000002350018001202015102819N000000000000N86       000320400K 10000000010000002343           
CUS0851220000108004603000         YOUNG MINNIE M      910 NIAGARA CT                          000N        CARE OF             
MTR08512200001000000000000000RA              46886427    005801910000019100000520000003NN  NNW 000                       N    
RDG08512200WATRL000000004K00000000000000468018101202015102857N000000000000N86       000380400K 10000000010000000463           
CUS0851220000108004604008         RASHELL S GUNTER    912 NIAGARA CT                          000N        CARE OF             
MTR08512200001000000000000000RA              14921637    005801920000019200000310000003NN  NNW 000                       N    
RDG08512200WATRL000000004K00000000000000476018201202015102858N000000000000N86       000010400K 10000000010000000452           
CUS0851220000108004605005         WATSON BETTY L      914 NIAGARA CT                          000N        CARE OF             
MTR08512200001000000000000000RA              00139097    005801930000019300000570000003NN  NNW 000                       N    
RDG08512200WATRL000000004K00000000000001046018301202015102916N000000000000N86       000180400K 10000000010000001031           
CUS0851220000108004606003         MENDEZ MARTIN G     916 NIAGARA CT                          000N        CARE OF             
MTR08512200001000000000000000RA              00138971    005801940000019400000570000003NN  NNW 000                       N    
RDG08512200WATRL000000004K00000000000001336018401202015102918N000000000000N86       000020400K 10000000010000001312           
CUS0851220000108004607001         SMITH RALPH A       918 NIAGARA CT                          000N        CARE OF             
MTR08512200001000000000000000RA              14929558    005801950000019500000310000003NN  NNW 000                       N    
RDG08512200WATRL000000004K00000000000000511018501202015102940N000000000000N86       000220400K 10000000010000000484           
CUS0851220000108004608009         LEROY BAMBERGER     920 NIAGARA CT                          000N        CARE OF             
MTR08512200001000000000000000RA              44086845    005801960000019600000520000003NN  NNW 000                       N    
RDG08512200WATRL000000004K00000000000002240018601202015102941N000000000000N86       000010400K 10000000010000002217           
CUS0851220000108004609007         COLE MICHAEL LEE    947 IMPERIAL CT                         000N        CARE OF             
MTR08512200001000000000000000RA              99387912    005801970000019700000570000003NN  NNW 000                       N    
RDG08512200WATRL000000004K00000000000001459018701202015103154N000000000000N86       001330400K 10000000010000001443           
CUS0851220000108004610005         PHUC NGUYEN         945 IMPERIAL CT                         000N        CARE OF             
MTR08512200001000000000000000RA              30527231    005801980000019800000520000003NN  NNW 000                       N    
RDG08512200WATRL000000004K00000000000002173018801202015103157N000000000000N86       000030400K 10000000010000002167           
CUS0851220000108004611003         DOUGLAS L SMITH     943 IMPERIAL CT                         000N        CARE OF             
MTR08512200001000000000000000RA              11427073    005801990000019900000570000003NN  NNW 000                       N    
RDG08512200WATRL000000004K00000000000004737018901202015103229N000000000000N86       000320400K 10000000010000004713           
CUS0851220000108004612001         FOX FRANKLIN C      941 IMPERIAL CT                         000N        CARE OF             
MTR08512200001000000000000000RA              9685155     005802000000020000000570000003NN  NNW 000                       N    
RDG08512200WATRL000000004K00000000000004021019001202015103231N000000000000N86       000020400K 10000000010000003997           
CUS0851220000108004613009         WILT LILLIAN        939 IMPERIAL CT                         000N        CARE OF             
MTR08512200001000000000000000RA              45373436    005802010000020100000520000003NN  NNW 000                       N    
RDG08512200WATRL000000004K00000000000000964019101202015103246N000000000010N86       000150400K 10000000010000000963           
CUS0851220000108004614007         HALL TINA MARIE     937 IMPERIAL CT                         000N        CARE OF             
MTR08512200001000000000000000RA              45373452    005802020000020200000520000000NN  NNW 000                       N    
RDG08512200WATRL000000004K00000000000002051019201202015103249N000000000000N86       000030400K 10000000010000002034           
CUS0851220000108004615004         JASCHIK JEANINE M   935 IMPERIAL CT                         000N        CARE OF             
MTR08512200001000000000000000RA              48586786    005802030000020300000520000003NN  NNW 000                       N    
RDG08512200WATRL000000004K00000000000003349019301202015103258N000000000000N86       000090400K 10000000010000003318           
CUS0851220000108004616002         CARNAGGIO CHARLES A 933 IMPERIAL CT                         000N        CARE OF             
MTR08512200001000000000000000RA              29680878    005802040000020400000520000003NN  NNW 000                       N    
RDG08512200WATRL000000004K00000000000002717019401202015103314N000000000000N86       000160400K 10000000010000002712           
CUS0851220000108004617000         KREINER JOHN H      931 IMPERIAL CT                         000N        CARE OF             
MTR08512200001000000000000000RA              32300500    005802050000020500000520000003NN  NNW 000                       N    
RDG08512200WATRL000000004K00000000000001612019501202015103335N000000000000N86       000210400K 10000000010000001587           
CUS0851220000108004618008         PARKER-NEWMAN TOYNET929 IMPERIAL CT                         000N        CARE OF             
MTR08512200001000000000000000RA              32300919    005802060000020600000520000003NN  NNW 000                       N    
RDG08512200WATRL000000004K00000000000002563019601202015103336N000000000000N86       000010400K 10000000010000002559           
CUS0851220000108004619006         JETT MARK EVAN      927 IMPERIAL CT                         000N        CARE OF             
MTR08512200001000000000000000RA              44086696    005802070000020700000520000003NN  NNW 000                       N    
RDG08512200WATRL000000004K00000000000003894019701202015103354N000000000000N86       000180400K 10000000010000003853           
CUS0851220000108004620004         POTTER TIMOTHY E    925 IMPERIAL CT                         000N        CARE OF             
MTR08512200001000000000000000RA              44086634    005802080000020800000520000003NN  NNW 000                       N    
RDG08512200WATRL000000004K00000000000002087019801202015103356N000000000000N86       000020400K 10000000010000002059           
CUS0851220000108004621002         FORSTNER JEROME E   923 IMPERIAL CT                         000N        CARE OF             
MTR08512200001000000000000000RA              44086686    005802090000020900000520000003NN  NNW 000                       N    
RDG08512200WATRL000000004K00000000000001714019901202015103430N000000000000N86       000340400K 10000000010000001704           
CUS0851220000108004622000         HOYT BRICE W        921 IMPERIAL CT                         000N        CARE OF             
MTR08512200001000000000000000RA              44086583    005802100000021000000520000003NN  NNW 000                       N    
RDG08512200WATRL000000004K00000000000001820020001202015103431N000000000000N86       000010400K 10000000010000001808           
CUS0851220000108004623008         HOES ROBERT EUGENE,2919 IMPERIAL CT                         000N        CARE OF             
MTR08512200001000000000000000RA              33082352    005802110000021100000520000003NN  NNW 000                       N    
RDG08512200WATRL000000004K00000000000002836020101202015103457N000400000010N86       000260400K 10000000010000002829           
CUS0851220000108004624006         HERZOG MARTIN D     917 IMPERIAL CT                         000N        CARE OF             
MTR08512200001000000000000000RA              33082468    005802120000021200000520000003NN  NNW 000                       N    
RDG08512200WATRL000000004K00000000000003541020201202015103500N000400000010N86       000030400K 10000000010000003540           
CUS0851220000108004625003         LEBSON MICAH K      915 IMPERIAL CT                         000N        CARE OF             
MTR08512200001000000000000000RA              27832526    005802130000021300000520000003NN  NNW 000                       N    
RDG08512200WATRL000000004K00000000000003915020301202015103531N000400000010N86       000310400K 10000000010000003908           
CUS0851220000108004626001         PORTERFIELD JOYCE E 913 IMPERIAL CT                         000N        CARE OF             
MTR08512200001000000000000000RA              26012174    005802140000021400000520000003NN  NNW 000                       N    
RDG08512200WATRL000000004K00000000000004020020401202015103532N000000000000N86       000010400K 10000000010000004007           
CUS0851220000108004627009         BRITNELL ELIZABETH  911 IMPERIAL CT                         000N        CARE OF             
MTR08512200001000000000000000RA              27814487    005802150000021500000520000003NN  NNW 000                       N    
RDG08512200WATRL000000004K00000000000002860020501202015103606N000000000000N86       000340400K 10000000010000002856           
CUS0851220000108004628007         ANDERSON TIMOTHY D  909 IMPERIAL CT                         000N        CARE OF             
MTR08512200001000000000000000RA              27814516    005802160000021600000520000003NN  NNW 000                       N    
RDG08512200WATRL000000004K00000000000002663020601202015103607N000000000000N86       000010400K 10000000010000002648           
CUS0851220000108004629005         RAMIREZ FRANCISCO J 907 IMPERIAL CT                         000N        CARE OF             
MTR08512200001000000000000000RA              29683444    005802170000021700000520000003NN  NNW 000                       N    
RDG08512200WATRL000000004K00000000000004297020701202015103639N000000000000N86       000320400K 10000000010000004251           
CUS0851220000108004630003         ANDREW & LISA O'DONN905 IMPERIAL CT                         000N        CARE OF             
MTR08512200001000000000000000RA              14930954    005802180000021800000310000003NY  NNW 000                       N    
MTM0851220014930954    WATER UNDER GLASS                                                                                      
RDG08512200WATRL000000004K00000000000000864020801202015103827N000000000020N86       001080400K 10000000010000000823           
CUS0851220000108004631001         GRAHE EUGENE        903 IMPERIAL CT                         000N        CARE OF             
MTR08512200001000000000000000RA              10019807    005802190000021900000570000003NN  NNW 000                       N    
RDG08512200WATRL000000004K00000000000000164020901202015103831N000000000000N86       000040400K 10000000010000000128           
CUS0851220000108004632009         POTTER TIMOTHY E    901 IMPERIAL CT                         000N        CARE OF             
MTR08512200001000000000000000RA              33080466    005802200000022000000520000003NN  NNW 000                       N    
RDG08512200WATRL000000004K00000000000002950021001202015103913N000400000010N86       000420400K 10000000010000002941           
CUS0851220000108004633007         RODGERS KIMBERLY L  900 IMPERIAL CT                         000N        CARE OF             
MTR08512200001000000000000000RA              38983570    005802210000022100000520000003NN  NNW 000                       N    
RDG08512200WATRL000000004K00000000000002068021101202015103915N000000000000N86       000020400K 10000000010000002059           
CUS0851220000108004634005         KLEMKOWSKI HENRY W  902 IMPERIAL CT                         000N        CARE OF             
MTR08512200001000000000000000RA              27815205    005802220000022200000520000003NN  NNW 000                       N    
RDG08512200WATRL000000004K00000000000005007021201202015103945N000000000000N86       000300400K 10000000010000004999           
CUS0851220000108004635002         DRUMMOND RAEVONN C  904 IMPERIAL CT                         000N        CARE OF             
MTR08512200001000000000000000RA              27814399    005802230000022300000520000003NN  NNW 000                       N    
RDG08512200WATRL000000004K00000000000003141021301202015103946N000000000000N86       000010400K 10000000010000003135           
CUS0851220000108004636000         JARMER-BIANCO CAROL 906 IMPERIAL CT                         000N        CARE OF             
MTR08512200001000000000000000RA              75617389    005802240000022400000350000003NN  NNW 000                       N    
RDG08512200WATRL000000004K00000000000000045021401202015104026N000000000000N86       000400400K 10000000010000000037           
CUS0851220000108004637008         DEMETRO SHARON L    908 IMPERIAL CT                         000N        CARE OF             
MTR08512200001000000000000000RA              76345074    005802250000022500000350000003NN  NNW 000                       N    
RDG08512200WATRL000000004K00000000000000039021501202015104029N000300000010N86       000030400K 10000000010000000009           
CUS0851220000108004638006         CONNELLY BONNIE LYNN910 IMPERIAL CT                         000N        CARE OF             
MTR08512200001000000000000000RA              26001250    005802260000022600000520000003NN  NNW 000                       N    
RDG08512200WATRL000000004K00000000000002706021601202015104046N000000000000N86       000170400K 10000000010000002706           
CUS0851220000108004639004         HOEHL LOUIS J       912 IMPERIAL CT                         000N        CARE OF             
MTR08512200001000000000000000RA              26001471    005802270000022700000520000003NN  NNW 000                       N    
RDG08512200WATRL000000004K00000000000002715021701202015104048N000000000000N86       000020400K 10000000010000002704           
CUS0851220000108004640002         SCHMIDT THOMAS      914 IMPERIAL CT                         000N        CARE OF             
MTR08512200001000000000000000RA              27819647    005802280000022800000520000003NN  NNW 000                       N    
RDG08512200WATRL000000004K00000000000003446021801202015104109N000000000000N86       000210400K 10000000010000003428           
CUS0851220000108004641000         BELL SHEILA         916 IMPERIAL CT                         000N        CARE OF             
MTR08512200001000000000000000RA              27819644    005802290000022900000520000003NN  NNW 000                       N    
RDG08512200WATRL000000004K00000000000004016021901202015104110N000000000000N86       000010400K 10000000010000003999           
CUS0851220000108004642008         A & H PROPERTIES LLC918 IMPERIAL CT                         000N        CARE OF             
MTR08512200001000000000000000RA              44086737    005802300000023000000520000003NN  NNW 000                       N    
RDG08512200WATRL000000004K00000000000001900022001202015104156N000000000000N86       000460400K 10000000010000001879           
CUS0851220000108004643006         HOOPER EUGENE L     920 IMPERIAL CT                         000N        CARE OF             
MTR08512200001000000000000000RA              44086669    005802310000023100000520000000NN  NNW 000                       N    
RDG08512200WATRL000000004K00000000000001410022101202015104157N000000000000N86       000010400K 10000000010000001398           
CUS0851220000108004644004         DOUGLAS CATHERINE H 922 IMPERIAL CT                         000N        CARE OF             
MTR08512200001000000000000000RA              45377571    005802320000023200000520000003NN  NNW 000                       N    
RDG08512200WATRL000000004K00000000000002038022201202015104235N000000000000N86       000380400K 10000000010000002016           
CUS0851220000108004645001         SMITH RALPH A       924 IMPERIAL CT                         000N        CARE OF             
MTR08512200001000000000000000RA              45377568    005802330000023300000520000003NN  NNW 000                       N    
RDG08512200WATRL000000004K00000000000003800022301202015104236N000000000000N86       000010400K 10000000010000003786           
CUS0851220000108004646009         LEWARD THOMAS L,JR  926 IMPERIAL CT                         000N        CARE OF             
MTR08512200001000000000000000RA              44086624    005802340000023400000520000003NN  NNW 000                       N    
RDG08512200WATRL000000004K00000000000002405022401202015104327N000400000010N86       000510400K 10000000010000002393           
CUS0851220000108004647007         LEWALD THOMAS W,JR  928 IMPERIAL CT                         000N        CARE OF             
MTR08512200001000000000000000RA              44086689    005802350000023500000520000003NN  NNW 000                       N    
RDG08512200WATRL000000004K00000000000001648022501202015104330N000000000000N86       000030400K 10000000010000001648           
CUS0851220000108004648005         JASSO LUIS          930 IMPERIAL CT                         000N        CARE OF             
MTR08512200001000000000000000RA              32902505    005802360000023600000520000003NN  NNW 000                       N    
RDG08512200WATRL000000004K00000000000002968022601202015104351N000000000000N86       000210400K 10000000010000002951           
CUS0851220000108004649003         GRANADOS ALMA L RANG932 IMPERIAL CT                         000N        CARE OF             
MTR08512200001000000000000000RA              32902507    005802370000023700000520000003NN  NNW 000                       N    
RDG08512200WATRL000000004K00000000000003439022701202015104353N000000000000N86       000020400K 10000000010000003404           
CUS0851220000108004650001         HUMPHREY DENNIS     934 IMPERIAL CT                         000N        CARE OF             
MTR08512200001000000000000000RA              39585394    005802380000023800000520000003NN  NNW 000                       N    
RDG08512200WATRL000000004K00000000000002492022801202015104443N000000000000N86       000500400K 10000000010000002459           
CUS0851220000108004651009         YESKO KELLY ANNE    936 IMPERIAL CT                         000N        CARE OF             
MTR08512200001000000000000000RA              01115978    005802390000023900000610000003NN  NNW 000                       N    
RDG08512200WATRL000000004K00000000000000977022901202015104501N000000000000N86       000180400K 10000000010000000950           
CUS0851220000108004652007         YOUNG ROBERT ELMER/S938 IMPERIAL CT                         000N        CARE OF             
MTR08512200001000000000000000RA              01115948    005802400000024000000610000003NN  NNW 000                       N    
RDG08512200WATRL000000004K00000000000001111023001202015104503N000000000000N86       000020400K 10000000010000001091           
CUS0851220000108004653005         DICKENS RACHEL A    940 IMPERIAL CT                         000N        CARE OF             
MTR08512200001000000000000000RA              01114377    005802410000024100000610000003NN  NNW 000                       N    
RDG08512200WATRL000000004K00000000000001160027201202015112757N000000000010N86       001700400K 10000000010000001090           
CUS0851220000108004654003         STULTZ SHANNON MARIE942 IMPERIAL CT                         000N        CARE OF             
MTR08512200001000000000000000RA              01114378    005802420000024200000610000003NN  NNW 000                       N    
RDG08512200WATRL000000004K00000000000000488027301202015112801N000000000000N86       000040400K 10000000010000000454           
CUS0851220000108004655000         WYSOCKI WAYNE       944 IMPERIAL CT                         000N        CARE OF             
MTR08512200001000000000000000RA              10009945    005802430000024300000570000003NN  NNW 000                       N    
RDG08512200WATRL000000004K00000000000000245027401202015112803N000000000000N86       000020400K 10000000010000000223           
CUS0851220000108004656008         DONIECKI EDWARD J   946 IMPERIAL CT                         000N        CARE OF             
MTR08512200001000000000000000RA              10007821    005802440000024400000570000003NN  NNW 000                       N    
RDG08512200WATRL000000004K00000000000000322027501202015112805N000000000000N86       000020400K 10000000010000000292           
CUS0851220000108004657006         POTTER TIMOTHY E    939 CATAWBA CT                          000N        CARE OF             
MTR08512200001000000000000000RA              33081820    005802450000024500000520000003NN  NNW 000                       N    
RDG08512200WATRL000000004K00000000000004980023101202015104758N000000000000N86       001750400K 10000000010000004891           
CUS0851220000108004658004         SHAW JAMES T,JR     937 CATAWBA CT                          000N        CARE OF             
MTR08512200001000000000000000RA              33081635    005802460000024600000520000003NN  NNW 000                       N    
RDG08512200WATRL000000004K00000000000001935023201202015104800N000000000000N86       000020400K 10000000010000001924           
CUS0851220000108004659002         PRUSIN LAWRENCE     935 CATAWBA CT                          000N        CARE OF             
MTR08512200001000000000000000RA              27821892    005802470000024700000520000003NN  NNW 000                       N    
RDG08512200WATRL000000004K00000000000002277023301202015104834N000000000000N86       000340400K 10000000010000002257           
CUS0851220000108004660000         JEAN HOOE           933 CATAWBA CT                          000N        CARE OF             
MTR08512200001000000000000000RA              30526779    005802480000024800000520000003NN  NNW 000                       N    
RDG08512200WATRL000000004K00000000000001138023401202015104835N000000000000N86       000010400K 10000000010000001129           
CUS0851220000108004661008         HOOE JEAN M         931 CATAWBA CT                          000N        CARE OF             
MTR08512200001000000000000000RA              14902281    005802490000024900000310000003NN  NNW 000                       N    
RDG08512200WATRL000000004K00000000000000768023501202015104903N000000000000N86       000280400K 10000000010000000748           
CUS0851220000108004662006         COLEMAN DENNIS W    929 CATAWBA CT                          000N        CARE OF             
MTR08512200001000000000000000RA              35107927    005802500000025000000520000003NN  NNW 000                       N    
RDG08512200WATRL000000004K00000000000003853026801202015112218N000000000000N86       002860400K 10000000010000003830           
CUS0851220000108004663004         JULIANNA BROWN      927 CATAWBA CT                          000N        CARE OF             
MTR08512200001000000000000000RA              00139095    005802510000025100000570000003NN  NNW 000                       N    
RDG08512200WATRL000000004K00000000000000638026901202015112302N000000000000N86       000440400K 10000000010000000633           
CUS0851220000108004664002         HANNA EDWARD        925 CATAWBA CT                          000N        CARE OF             
MTR08512200001000000000000000RA              00139099    005802520000025200000570000003NN  NNW 000                       N    
RDG08512200WATRL000000004K00000000000000485027001202015112307N000300000010N86       000050400K 10000000010000000471           
CUS0851220000108004665009         FLEETWOOD PROPERTIES923 CATAWBA CT                          000N        CARE OF             
MTR08512200001000000000000000RA              14923115    005802530000025300000310000003NN  NNW 000                       N    
RDG08512200WATRL000000004K00000000000000613023601202015105037N000000000000N86       000940400K 10000000010000000582           
CUS0851220000108004666007         EDWARDS DIANE K     921 CATAWBA CT                          000N        CARE OF             
MTR08512200001000000000000000RA              30515305    005802540000025400000520000003NN  NNW 000                       N    
RDG08512200WATRL000000004K00000000000002470023701202015105039N000000000000N86       000020400K 10000000010000002463           
CUS0851220000108004667005         LAVALLE JUAN        919 CATAWBA CT                          000N        CARE OF             
MTR08512200001000000000000000RA              14918159    005802550000025500000310000003NN  NNW 000                       N    
RDG08512200WATRL000000004K00000000000000632023801202015105118N000000000000N86       000390400K 10000000010000000614           
CUS0851220000108004668003         CHANONA VAZQUEZ     917 CATAWBA CT                          000N        CARE OF             
MTR08512200001000000000000000RA              14908750    005802560000025600000310000003NN  NNW 000                       N    
RDG08512200WATRL000000004K00000000000000680023901202015105120N000000000000N86       000020400K 10000000010000000656           
CUS0851220000108004669001         PACHOLYK STEVEN     915 CATAWBA CT                          000N        CARE OF             
MTR08512200001000000000000000RA              14923049    005802570000025700000310000003NN  NNW 000                       N    
RDG08512200WATRL000000004K00000000000000463026401202015111600N000000000000N86       001610400K 10000000010000000454           
CUS0851220000108004670009         DAVIES JOHN J       913 CATAWBA CT                          000N        CARE OF             
MTR08512200001000000000000000RA              00132267    005802580000025800000570000003NN  NNW 000                       N    
RDG08512200WATRL000000004K00000000000001126026501202015111601N000000000000N86       000010400K 10000000010000001096           
CUS0851220000108004671007         WANG HUI            911 CATAWBA CT                          000N        CARE OF             
MTR08512200001000000000000000RA              52769391    005802590000025900000520000003NN  NNW 000                       N    
RDG08512200WATRL000000004K00000000000000795024001202015105302N000000000000N86       001020400K 10000000010000000780           
CUS0851220000108004672005         FIRST STREET REALTY 909 CATAWBA CT                          000N        CARE OF             
MTR08512200001000000000000000RA              45382192    005802600000026000000520000003NN  NNW 000                       N    
RDG08512200WATRL000000004K00000000000003166024101202015105303N000000000000N86       000010400K 10000000010000003144           
CUS0851220000108004673003         TAYLOR MARK A       907 CATAWBA CT                          000N        CARE OF             
MTR08512200001000000000000000RA              01085973    005802610000026100000610000003NN  NNW 000                       N    
