FHDNNNN046009157009157009248N                                                                                           029383
RHD08543500NN01760176000001760000000001760176000171NY017601760176000300000000000000000000000002    01222015NY020000 N         
CUS0854350000108015770004         LANDRUM WILLIAM C   2106 EDMONDSON AVE                      000N        CARE OF             
MTR08543500001000000000000000RA              00132603    005800010000000100000570000003NN  NNW 000                       N    
RDG08543500WATRL000000004K00000000000002454000102022015120149N000000000000N89       000000400K 10000000010000002426           
CUS0854350000108015771002         DICOMO PAUL J       2108 EDMONDSON AVE                      000N        CARE OF             
MTR08543500001000000000000000RA              50477127    005800020000000200000520000003NN  NNW 000                       N    
RDG08543500WATRL000000004K00000000000002371000202022015120222N000000000000N89       000330400K 10000000010000002352           
CUS0854350000108015772000         JEFFREY SCOTT A     2110 EDMONDSON AVE                      000N        CARE OF             
MTR08543500001000000000000000RA              00132608    005800030000000300000570000003NN  NNW 000                       N    
RDG08543500WATRL000000004K00000000000001371000302022015120302N000000000000N89       000400400K 10000000010000001350           
CUS0854350000108015773008         BUDSOCK BETTE       2112 EDMONDSON AVE                      000N        CARE OF             
MTR08543500001000000000000000RA              00132565    005800040000000400000570000003NN  NNW 000                       N    
RDG08543500WATRL000000004K00000000000000887000402022015120321N000000000000N89       000190400K 10000000010000000887           
CUS0854350000108015774006         STCYR WILFRED J     2114 EDMONDSON AVE                      000N        CARE OF             
MTR08543500001000000000000000RA              46889810    007500050000000500000520000003NN  NNW 000                       N    
RDG08543500WATRL000000004K00000000000004351000502022015120353N000000000000N89       000320400K 10000000010000004322           
CUS0854350000108015775003         CHUA BORIS K H      2116 EDMONDSON AVE                      000N        CARE OF             
MTR08543500001000000000000000RA              10023871    005800060000000600000570000003NN  NNW 000                       N    
RDG08543500WATRL000000004K00000000000000165000602022015120433N000000000000N89       000400400K 10000000010000000140           
CUS0854350000108016310008         BOOTH JAMES EDWIN,SR2119 EDMONDSON AVE                      000N        CARE OF             
MTR08543500001000000000000000RA              24232126    005800070000000700000520000003NN  NNW 000                       N    
RDG08543500WATRL000000004K00000000000002092000702052015143949O000000000030N80       000950400K 10000000010000002071           
CUS0854350000108016309000         WILLIAM NELSON      2117 EDMONDSON AVE                      000N        CARE OF             
MTR08543500001000000000000000RA              11336158    005800080000000800000570000003NN  NNW 000                       N    
RDG08543500WATRL000000004K00000000000005134000802022015120657N000000000000N89       000490400K 10000000010000005122           
CUS0854350000108016308002         ROBERTS CYNTHIA H   2115 EDMONDSON AVE                      000N        CARE OF             
MTR08543500001000000000000000RA              00132563    005800090000000900000570000003NN  NNW 000                       N    
RDG08543500WATRL000000004K00000000000001233000902022015120719N000000000000N89       000220400K 10000000010000001212           
CUS0854350000108016307004         SCOTT STEPHANIE D   2113 EDMONDSON AVE                      000N        CARE OF             
MTR08543500001000000000000000RA              00120688    007500100000001000000570000003NN  NNW 000                       N    
RDG08543500WATRL000000004K00000000000001372001002022015120854N000000000010N89       000950400K 10000000010000001371           
CUS0854350000108016306006         TOLKER GREGORY COLEM234 EDRIDGE WAY                         000N        CARE OF             
MTR08543500001000000000000000RA              24230594    005800110000001100000520000003NN  NNW 000                       N    
RDG08543500WATRL000000004K00000000000008528001302022015121048N000400000010N89       000370400K 10000000010000008495           
CUS0854350000108016305008         BIELASKI THOMAS M   232 EDRIDGE WAY                         000N        CARE OF             
MTR08543500001000000000000000RA              24230599    005800120000001200000520000003NN  NNW 000                       N    
RDG08543500WATRL000000004K00000000000004992001602022015121232N000000000000N89       000280400K 10000000010000004957           
CUS0854350000108016304001         GAGNON JAMES E      230 EDRIDGE WAY                         000N        CARE OF             
MTR08543500001000000000000000RA              24230598    005800130000001300000520000003NN  NNW 000                       N    
RDG08543500WATRL000000004K00000000000005729001702022015121305N000000000000N89       000330400K 10000000010000005692           
CUS0854350000108016303003         BARKER MARK S       228 EDRIDGE WAY                         000N        CARE OF             
MTR08543500001000000000000000RA              24230597    005800140000001400000520000003NN  NNW 000                       N    
RDG08543500WATRL000000004K00000000000005747002002022015121437N000000000000N89       000340400K 10000000010000005724           
CUS0854350000108016302005         PHILLIPS RICHARD N  226 EDRIDGE WAY                         000N        CARE OF             
MTR08543500001000000000000000RA              48586870    005800150000001500000520000003NN  NNW 000                       N    
RDG08543500WATRL000000004K00000000000001243002302022015121627N000000000000N89       000420400K 10000000010000001234           
CUS0854350000108016301007         VARNAUSKAS EDWARD R 224 EDRIDGE WAY                         000N        CARE OF             
MTR08543500001000000000000000RA              00132607    005800160000001600000570000003NN  NNW 000                       N    
RDG08543500WATRL000000004K00000000000002185002402022015121656N000000000000N89       000290400K 10000000010000002147           
CUS0854350000108016300009         ROMEFELT ALAN       222 EDRIDGE WAY                         000N        CARE OF             
MTR08543500001000000000000000RA              00132604    005800170000001700000570000000NN  NNW 000                       N    
RDG08543500WATRL000000004K00000000000002228002602022015121737N000000000000N89       000210400K 10000000010000002198           
CUS0854350000108016299003         HOLLAR PATRICIA C   220 EDRIDGE WAY                         000N        CARE OF             
MTR08543500001000000000000000RA              00132566    005800180000001800000570000003NN  NNW 000                       N    
RDG08543500WATRL000000004K00000000000002298002702022015121809N000000000000N89       000320400K 10000000010000002270           
CUS0854350000108414390008         JEROD D SNEDEKER    218 EDRIDGE WAY                         000N        CARE OF             
MTR08543500001000000000000000RA              48592498    005800190000001900000520000003NN  NNW 000                       N    
RDG08543500WATRL000000004K00000000000001196002902022015121938N000000000000N89       000290400K 10000000010000001177           
CUS0854350000108016298005         PARR JOSEPH DAMIAN  216 EDRIDGE WAY                         000N        CARE OF             
MTR08543500001000000000000000RA              00133235    005800200000002000000570000003NN  NNW 000                       N    
RDG08543500WATRL000000004K00000000000001255003002022015122017N000000000000N89       000390400K 10000000010000001226           
CUS0854350000108438574009         STENEMAN JOSEPH R   2110 DEVERE LN                          000N        CARE OF             
MTR08543500001000000000000000RA              10002516    005800210000002100000570000003NN  NNW 000                       N    
RDG08543500WATRL000000004K00000000000000495005502022015124731N000000000000N89       004710400K 10000000010000000472           
CUS0854350000108374317009         SHANNON M HOLT      2114 DEVERE LN                          000N        CARE OF             
MTR08543500001000000000000000RA              41076812    005800220000002200000520000003NN  NNW 000                       N    
RDG08543500WATRL000000004K00000000000001774005702022015125412N000000000000N89       003230400K 10000000010000001761           
CUS0854350000108380012008         EDWARDS MICHAEL D  E2116 DEVERE LN                          000N        CARE OF             
MTR08543500001000000000000000RA              27832736    005800230000002300000520000003NN  NNW 000                       N    
RDG08543500WATRL000000004K00000000000006407005602022015124849N000000000000N89       000780400K 10000000010000006364           
CUS0854350000108016297007         BLACK BAIRD B       217 EDRIDGE WAY                         000N        CARE OF             
MTR08543500001000000000000000RA              00133823    005800240000002400000570000003NN  NNW 000                       N    
RDG08543500WATRL000000004K00000000000001356003102022015122200N000000000000N89       001030400K 10000000010000001351           
CUS0854350000108016296009         KURTZ JOHN JAY      219 EDRIDGE WAY                         000N        CARE OF             
MTR08543500001000000000000000RA              24230595    005800250000002500000520000003NN  NNW 000                       N    
RDG08543500WATRL000000004K00000000000004622002802022015121909N000000000000N89       000600400K 10000000010000004600           
CUS0854350000108016295001         KRYWOLAP GEORGE W   221 EDRIDGE WAY                         000N        CARE OF             
MTR08543500001000000000000000RA              23051940    005800260000002600000520000003NN  NNW 000                       N    
RDG08543500WATRL000000004K00000000000004366005802022015130256N000000000000N89       005240400K 10000000010000004339           
CUS0854350000108016294004         OTREBSKI MARCIN     223 EDRIDGE WAY                         000N        CARE OF             
MTR08543500001000000000000000RA              24230573    005800270000002700000520000003NN  NNW 000                       N    
RDG08543500WATRL000000004K00000000000004559002502022015121716N000000000000N89       000200400K 10000000010000004548           
CUS0854350000108016293006         MARTIN LAWRENCE P   225 EDRIDGE WAY                         000N        CARE OF             
MTR08543500001000000000000000RA              24230642    005800280000002800000520000003NN  NNW 000                       N    
RDG08543500WATRL000000004K00000000000002864002202022015121545N000000000000N89       000340400K 10000000010000002860           
CUS0854350000108016292008         VAN WYNGAARDEN ROGER227 EDRIDGE WAY                         000N        CARE OF             
MTR08543500001000000000000000RA              27213905    005800290000002900000520000003NN  NNW 000                       N    
RDG08543500WATRL000000004K00000000000006306002102022015121511N000000000000N89       000340400K 10000000010000006292           
CUS0854350000108016291000         LANASA MICHAEL A    229 EDRIDGE WAY                         000N        CARE OF             
MTR08543500001000000000000000RA              35110912    005800300000003000000520000003NN  NNW 000                       N    
RDG08543500WATRL000000004K00000000000004776001902022015121403N000000000000N89       000240400K 10000000010000004759           
CUS0854350000108016290002         KRABBE ROBERT J     231 EDRIDGE WAY                         000N        CARE OF             
MTR08543500001000000000000000RA              26015968    005800310000003100000520000003NN  NNW 000                       N    
RDG08543500WATRL000000004K00000000000003346001802022015121339N000000000000N89       000340400K 10000000010000003337           
CUS0854350000108016289004         ESTATE OF EDGAR BRAD233 EDRIDGE WAY                         000N        CARE OF             
MTR08543500001000000000000000RA              24230574    005800320000003200000520000003NN  NNW 000                       N    
RDG08543500WATRL000000004K00000000000002888001502022015121204N000000000000N89       000420400K 10000000010000002876           
CUS0854350000108016288006         KOZAK CHRISANT B    235 EDRIDGE WAY                         000N        CARE OF             
MTR08543500001000000000000000RA              10015462    005800330000003300000570000003NN  NNW 000                       N    
RDG08543500WATRL000000004K00000000000000280001402022015121122N000000000000N89       000340400K 10000000010000000262           
CUS0854350000108016287008         ELDER JONATHAN S    237 EDRIDGE WAY                         000N        CARE OF             
MTR08543500001000000000000000RA              24230646    005800340000003400000520000003NN  NNW 000                       N    
RDG08543500WATRL000000004K00000000000003374001202022015121011N000000000000N89       000580400K 10000000010000003346           
CUS0854350000108016286000         SUEOKA RAYMOND H    2107 EDMONDSON AVE                      000N        CARE OF             
MTR08543500001000000000000000RA              24232141    005800350000003500000520000003NN  NNW 000                       N    
RDG08543500WATRL000000004K00000000000003856001102022015120913N000000000000N89       000190400K 10000000010000003836           
CUS0854350000108016285002         ROTHENHOEFER THOMAS 2103 EDMONDSON AVE                      000N        CARE OF             
MTR08543500001000000000000000RA              24232131    005800360000003600000520000003NN  NNW 000                       N    
RDG08543500WATRL000000004K00000000000003920003202022015122700N000000000000N89       003000400K 10000000010000003908           
CUS0854350000108016284005         CECIL JOHN D        2101 EDMONDSON AVE                      000N        CARE OF             
MTR08543500001000000000000000RA              24232127    005800370000003700000520000003NN  NNW 000                       N    
RDG08543500WATRL000000004K00000000000003997003302022015122728N000000000000N89       000280400K 10000000010000003967           
CUS0854350000108016283007         SKVORAK MICHAEL A   238 RIDGEWAY RD                         000N        CARE OF             
MTR08543500001000000000000000RA              24228415    005800380000003800000520000003NN  NNW 000                       N    
RDG08543500WATRL000000004K00000000000004429003602022015122931N000000000000N89       000310400K 10000000010000004390           
CUS0854350000108016282009         SHUGG WALLACE,TRUSTE236 RIDGEWAY RD                         000N        CARE OF             
MTR08543500001000000000000000RA              24228414    005800390000003900000520000003NN  NNW 000                       N    
RDG08543500WATRL000000004K00000000000001201003702022015123008N000000000000N89       000370400K 10000000010000001197           
CUS0854350000108016281001         HEISE JAMES T       234 RIDGEWAY RD                         000N        CARE OF             
MTR08543500001000000000000000RA              52289904    005800400000004000000520000003NN  NNW 000                       N    
RDG08543500WATRL000000004K00000000000002180004002022015123242N000000000000N89       000120400K 10000000010000002160           
CUS0854350000108016280003         EISWERT ERIC W      232 RIDGEWAY RD                         000N        CARE OF             
MTR08543500001000000000000000RA              00133896    005800410000004100000570000003NN  NNW 000                       N    
RDG08543500WATRL000000004K00000000000001489004102022015123322N000000000000N89       000400400K 10000000010000001460           
CUS0854350000108016279005         GRIMM JOHN,JR       230 RIDGEWAY RD                         000N        CARE OF             
MTR08543500001000000000000000RA              11335620    005800420000004200000570000003NN  NNW 000                       N    
RDG08543500WATRL000000004K00000000000004007004202022015123350N000000000000N89       000280400K 10000000010000003995           
CUS0854350000108016278007         PENSEL PATRICIA M   228 RIDGEWAY RD                         000N        CARE OF             
MTR08543500001000000000000000RA              24227993    005800430000004300000520000003NN  NNW 000                       N    
RDG08543500WATRL000000004K00000000000002668004602022015123600N000000000000N89       000380400K 10000000010000002662           
CUS0854350000108016277009         ORDAKOWSKI CONRAD F,226 RIDGEWAY RD                         000N        CARE OF             
MTR08543500001000000000000000RA              44002259    005800440000004400000520000003NN  NNW 000                       N    
RDG08543500WATRL000000004K00000000000001489004702022015123628N000000000000N89       000280400K 10000000010000001463           
CUS0854350000108016276001         DECKER MICHELE E    224 RIDGEWAY RD                         000N        CARE OF             
MTR08543500001000000000000000RA              24226898    005800450000004500000520000003NN  NNW 000                       N    
RDG08543500WATRL000000004K00000000000003533005002022015123753N000000000000N89       000230400K 10000000010000003509           
CUS0854350000108016275003         CARDALL IAN G       222 RIDGEWAY RD                         000N        CARE OF             
MTR08543500001000000000000000RA              24228378    005800460000004600000520000003NN  NNW 000                       N    
RDG08543500WATRL000000004K00000000000004162005102022015123845N000000000000N89       000520400K 10000000010000004137           
CUS0854350000108016274006         KESKULA JOHN F      220 RIDGEWAY RD                         000N        CARE OF             
MTR08543500001000000000000000RA              48591137    005800470000004700000520000003NN  NNW 000                       N    
RDG08543500WATRL000000004K00000000000005780005302022015123916N000000000000N89       000220400K 10000000010000005634           
CUS0854350000108016273008         ORDAKOWSKI C F,JR   219 RIDGEWAY RD                         000N        CARE OF             
MTR08543500001000000000000000RA              35115344    005800480000004800000520000003NN  NNW 000                       N    
RDG08543500WATRL000000004K00000000000004861005402022015123940N000000000000N89       000240400K 10000000010000004849           
CUS0854350000108016272000         MURAWSKI SUSAN M    221 RIDGEWAY RD                         000N        CARE OF             
MTR08543500001000000000000000RA              50788024    005800490000004900000520000003NN  NNW 000                       N    
RDG08543500WATRL000000004K00000000000002114005202022015123854N000000000000N89       000090400K 10000000010000002098           
CUS0854350000108016271002         BOOTH JAMES E,JR    223 RIDGEWAY RD                         000N        CARE OF             
MTR08543500001000000000000000RA              24227332    005800500000005000000520000003NN  NNW 000                       N    
RDG08543500WATRL000000004K00000000000005975004902022015123730N000000000000N89       000380400K 10000000010000005962           
CUS0854350000108016270004         SALVATERRA CARMEN   225 RIDGEWAY RD                         000N        CARE OF             
MTR08543500001000000000000000RA              24226901    005800510000005100000520000003NN  NNW 000                       N    
RDG08543500WATRL000000004K00000000000004406004802022015123652N000000000000N89       000240400K 10000000010000004396           
CUS0854350000108016269006         SOUDER JOHN CHARLES 227 RIDGEWAY RD                         000N        CARE OF             
MTR08543500001000000000000000RA              00133898    005800520000005200000570000003NN  NNW 000                       N    
RDG08543500WATRL000000004K00000000000001180004502022015123522N000000000000N89       000380400K 10000000010000001166           
CUS0854350000108016268008         WILSON MARK A       229 RIDGEWAY RD                         000N        CARE OF             
MTR08543500001000000000000000RA              24227261    005800530000005300000520000003NN  NNW 000                       N    
RDG08543500WATRL000000004K00000000000004198004402022015123444N000000000000N89       000340400K 10000000010000004174           
CUS0854350000108016267000         HICKMAN KARIN A     231 RIDGEWAY RD                         000N        CARE OF             
MTR08543500001000000000000000RA              00133897    005800540000005400000570000003NN  NNW 000                       N    
RDG08543500WATRL000000004K00000000000000916004302022015123410N000000000000N89       000200400K 10000000010000000907           
CUS0854350000108016266002         LUKE & BRITTA MULLAN233 RIDGEWAY RD                         000N        CARE OF             
MTR08543500001000000000000000RA              10023163    005800550000005500000570000003NN  NNW 000                       N    
RDG08543500WATRL000000004K00000000000000244003902022015123230N000000000000N89       000760400K 10000000010000000228           
CUS0854350000108016265004         FURNARY JOSEPH C    235 RIDGEWAY RD                         000N        CARE OF             
MTR08543500001000000000000000RA              44002172    005800560000005600000520000003NN  NNW 000                       N    
RDG08543500WATRL000000004K00000000000003568003802022015123114N000000000000N89       000660400K 10000000010000003552           
CUS0854350000108016264007         ZEPHIR CHARLES D    237 RIDGEWAY RD                         000N        CARE OF             
MTR08543500001000000000000000RA              10009534    005800570000005700000570000003NY  NNW 000                       N    
MTM0854350010009534    JEEP                                                                                                   
RDG08543500WATRL000000004K00000000000000000000000000000000000 000000000000U         000000400  10000000010000000366           
CUS0854350000108016263009         MELVIN DOROTHY L,TRU239 RIDGEWAY RD                         000N        CARE OF             
MTR08543500001000000000000000RA              24226900    005800580000005800000520000003NN  NNW 000                       N    
RDG08543500WATRL000000004K00000000000003859003502022015122900N000000000000N89       000520400K 10000000010000003849           
CUS0854350000108016262001         BAKER CHRISTINE M   241 RIDGEWAY RD                         000N        CARE OF             
MTR08543500001000000000000000RA              24226894    005800590000005900000520000003NN  NNW 000                       N    
RDG08543500WATRL000000004K00000000000003941003402022015122808N000000000000N89       000400400K 10000000010000003926           
CUS0854350000108016261003         HOLLY L KNEPPER     2031 EDMONDSON AVE                      000N        CARE OF             
MTR08543500001000000000000000RA              00133894    005800600000006000000570000003NN  NNW 000                       N    
RDG08543500WATRL000000004K00000000000001389005902022015130455N000000000000N89       001190400K 10000000010000001355           
CUS0854350000108016260005         HUTCHISON SCOTT D   2029 EDMONDSON AVE                      000N        CARE OF             
MTR08543500001000000000000000RA              24232139    005800610000006100000520000003NN  NNW 000                       N    
RDG08543500WATRL000000004K00000000000003307006102022015130605N000000000000N89       000240400K 10000000010000003290           
CUS0854350000108016259007         JOHNSON LESLEY BRENT2027 EDMONDSON AVE                      000N        CARE OF             
MTR08543500001000000000000000RA              29684207    005800620000006200000520000003NN  NNW 000                       N    
RDG08543500WATRL000000004K00000000000004584006002022015130622N000400000031N89       000170400K 10000000010000004581           
CUS0854350000108016258009         RICHARD & LAURIE BUR248 GRALAN RD                           000N        CARE OF             
MTR08543500001000000000000000RA              23646478    005800630000006300000520000003NN  NNW 000                       N    
RDG08543500WATRL000000004K00000000000004310000202042015080750N000000000000U89       000280400K 10000000010000004287           
CUS0854350000108016257001         LOEWNER STANLEY M   246 GRALAN RD                           000N        CARE OF             
MTR08543500001000000000000000RA              50788031    005800640000006400000520000003NN  NNW 000                       N    
RDG08543500WATRL000000004K00000000000001317000302042015080844N000000000000U89       000540400K 10000000010000001292           
CUS0854350000108016256003         GRIFFIN MICHAEL T   244 GRALAN RD                           000N        CARE OF             
MTR08543500001000000000000000RA              41076829    005800650000006500000520000003NN  NNW 000                       N    
RDG08543500WATRL000000004K00000000000004818000602042015081132N000000000000U89       000370400K 10000000010000004796           
CUS0854350000108016255005         ROBERT TOMLINSON & W242 GRALAN RD                           000N        CARE OF             
MTR08543500001000000000000000RA              24624595    007500660000006600000520000003NN  NNW 000                       N    
RDG08543500WATRL000000004K00000000000002694000802042015081419N000000000000U89       000390400K 10000000010000002685           
CUS0854350000108016254008         DOLLARD CHRISTINE E 238 GRALAN RD                           000N        CARE OF             
MTR08543500001000000000000000RA              30518582    005800670000006700000520000003NN  NNW 000                       N    
RDG08543500WATRL000000004K00000000000003137000902042015081521N000000000000U89       000620400K 10000000010000003122           
CUS0854350000108016253000         SNIDER THOMAS W JR  236 GRALAN RD                           000N        CARE OF             
MTR08543500001000000000000000RA              24230644    005800680000006800000520000003NN  NNW 000                       N    
RDG08543500WATRL000000004K00000000000003636001302042015081738N000000000000U89       000450400K 10000000010000003621           
CUS0854350000108016252002         SLIVKA JAMES J      234 GRALAN RD                           000N        CARE OF             
MTR08543500001000000000000000RA              10015459    005800690000006900000570000003NN  NNW 000                       N    
RDG08543500WATRL000000004K00000000000000139001402042015081820N000000000000U89       000420400K 10000000010000000128           
CUS0854350000108016251004         BEAUTZ MARTIN S     230 GRALAN RD                           000N        CARE OF             
MTR08543500001000000000000000RA              36692486    005800700000007000000520000003NN  NNW 000                       N    
RDG08543500WATRL000000004K00000000000003758001702042015081957N000000000000U89       000320400K 10000000010000003741           
CUS0854350000108016250006         BURDETTE THURL LEE  228 GRALAN RD                           000N        CARE OF             
MTR08543500001000000000000000RA              00133397    005800710000007100000570000003NN  NNW 000                       N    
RDG08543500WATRL000000004K00000000000001329001802042015082058N000000000000U89       000610400K 10000000010000001301           
CUS0854350000108016249008         LOWEREE WALTON R    224 GRALAN RD                           000N        CARE OF             
MTR08543500001000000000000000RA              01086079    005800720000007200000610000003NN  NNW 000                       N    
RDG08543500WATRL000000004K00000000000001047002202042015082356N000000000000U89       000060400K 10000000010000001033           
CUS0854350000108016248000         TYLER JOHN R,JR     222 GRALAN RD                           000N        CARE OF             
MTR08543500001000000000000000RA              38985669    005800730000007300000520000003NN  NNW 000                       N    
RDG08543500WATRL000000004K00000000000002405002302042015082434N000000000000U89       000380400K 10000000010000002377           
CUS0854350000108016247002         KEVIN P BRUCIE      220 GRALAN RD                           000N        CARE OF             
MTR08543500001000000000000000RA              24230647    005800740000007400000520000003NN  NNW 000                       N    
RDG08543500WATRL000000004K00000000000006613002602042015082631N000000000000U89       000320400K 10000000010000006575           
CUS0854350000108016224001         CUNNINGHAM PAUL S   219 GRALAN RD                           000N        CARE OF             
MTR08543500001000000000000000RA              31581707    005800750000007500000520000003NN  NNW 000                       N    
RDG08543500WATRL000000004K00000000000005049002802042015082747N000000000000U89       000340400K 10000000010000005031           
CUS0854350000108016223003         PODZIEWSKI JUDY A   221 GRALAN RD                           000N        CARE OF             
MTR08543500001000000000000000RA              52769247    005800760000007600000520000003NN  NNW 000                       N    
RDG08543500WATRL000000004K00000000000001531002702042015082713N000000000000U89       000420400K 10000000010000001509           
CUS0854350000108016222005         RAPA JOHN S         223 GRALAN RD                           000N        CARE OF             
MTR08543500001000000000000000RA              26013099    005800770000007700000520000003NN  NNW 000                       N    
RDG08543500WATRL000000004K00000000000002117002502042015082559N000000000000U89       000370400K 10000000010000002111           
CUS0854350000108016221007         PRUIM MARK          225 GRALAN RD                           000N        CARE OF             
MTR08543500001000000000000000RA              75615725    005800780000007800000350000003NN  NNW 000                       N    
RDG08543500WATRL000000004K00000000000000124002402042015082522N000000000000U89       000480400K 10000000010000000104           
CUS0854350000108016220009         EUGENE WILLIAMS     227 GRALAN RD                           000N        CARE OF             
MTR08543500001000000000000000RA              01094663    005800790000007900000610000003NN  NNW 000                       N    
RDG08543500WATRL000000004K00000000000000821002102042015082350N000300000020U89       001040400K 10000000010000000803           
CUS0854350000108016219001         SOHN JOHN R         229 GRALAN RD                           000N        CARE OF             
MTR08543500001000000000000000RA              75616517    005800800000008000000350000003NN  NNW 000                       N    
RDG08543500WATRL000000004K00000000000000169002002042015082206N000000000000U89       000550400K 10000000010000000143           
CUS0854350000108016218003         SCHREIBER JUDITH L  231 GRALAN RD                           000N        CARE OF             
MTR08543500001000000000000000RA              00133893    005800810000008100000570000000NN  NNW 000                       N    
RDG08543500WATRL000000004K00000000000000398001902042015082111N000000000000U89       000130400K 10000000010000000391           
CUS0854350000108016217005         WILEY JEFFREY B     233 GRALAN RD                           000N        CARE OF             
MTR08543500001000000000000000RA              24230854    005800820000008200000520000003NN  NNW 000                       N    
RDG08543500WATRL000000004K00000000000005070001602042015081925N000000000000U89       000350400K 10000000010000005054           
CUS0854350000108016216007         ATKINSON JOHN J     235 GRALAN RD                           000N        CARE OF             
MTR08543500001000000000000000RA              48587015    005800830000008300000520000003NN  NNW 000                       N    
RDG08543500WATRL000000004K00000000000002245001502042015081850N000000000000U89       000300400K 10000000010000002215           
CUS0854350000108016215009         CAROL W KEMBLE      237 GRALAN RD                           000N        CARE OF             
MTR08543500001000000000000000RA              00133826    005800840000008400000570000003NN  NNW 000                       N    
RDG08543500WATRL000000004K00000000000000801001202042015081653N000000000000U89       000480400K 10000000010000000751           
CUS0854350000108016214002         CHRISTINA M PRICE   239 GRALAN RD                           000N        CARE OF             
MTR08543500001000000000000000RA              00133825    005800850000008500000570000003NN  NNW 000                       N    
RDG08543500WATRL000000004K00000000000000613001102042015081605N000000000000U89       000360400K 10000000010000000597           
CUS0854350000108016213004         SAKK ERIC           241 GRALAN RD                           000N        CARE OF             
MTR08543500001000000000000000RA              01101876    005800860000008600000610000003NN  NNW 000                       N    
RDG08543500WATRL000000004K00000000000001210001002042015081529N000000000000U89       000080400K 10000000010000001173           
CUS0854350000108016212006         COFFEY DONALD S     243 GRALAN RD                           000N        CARE OF             
MTR08543500001000000000000000RA              24230890    005800870000008700000520000003NN  NNW 000                       N    
RDG08543500WATRL000000004K00000000000003227000702042015081340N000000000000U89       001280400K 10000000010000003215           
CUS0854350000108016211008         HIPSLEY D PATRICK   245 GRALAN RD                           000N        CARE OF             
MTR08543500001000000000000000RA              24230855    005800880000008800000520000003NY  NNW 000                       N    
MTM0854350024230855    FROZEN                                                                                                 
RDG08543500WATRL000000004K00000000000000000000000000000000000 000000000000U         000000400  10000000010000004826           
CUS0854350000108016210000         JACKSON MARK A      247 GRALAN RD                           000N        CARE OF             
MTR08543500001000000000000000RA              24230888    005800890000008900000520000003NN  NNW 000                       N    
RDG08543500WATRL000000004K00000000000002830000502042015081055N000000000000U89       000500400K 10000000010000002812           
CUS0854350000108016209002         FRANZ JOSEPH C      249 GRALAN RD                           000N        CARE OF             
MTR08543500001000000000000000RA              00133895    005800900000009000000570000003NN  NNW 000                       N    
RDG08543500WATRL000000004K00000000000001624000402042015081005N000000000000U89       000810400K 10000000010000001603           
CUS0854350000108016208004         CONNER HELEN M      251 GRALAN RD                           000N        CARE OF             
MTR08543500001000000000000000RA              10002351    005800910000009100000570000003NN  NNW 000                       N    
RDG08543500WATRL000000004K00000000000000192000102042015080722N000100000010U89       000000400K 10000000010000000192           
CUS0854350000108016207006         ERIC WILLIAM COLE   2025 EDMONDSON AVE                      000N        CARE OF             
MTR08543500001000000000000000RA              50480144    005800920000009200000520000003NN  NNW 000                       N    
RDG08543500WATRL000000004K00000000000001016002902042015083404N000000000000U89       003770400K 10000000010000001007           
CUS0854350000108016206008         CARPENTER TODD L    2021 EDMONDSON AVE                      000N        CARE OF             
MTR08543500001000000000000000RA              24233092    005800930000009300000520000003NN  NNW 000                       N    
RDG08543500WATRL000000004K00000000000000000003002042015083531N000304100010U89       000870400K 10000000010000004209           
CUS0854350000108016205000         REXRODE JAMES A     2017 EDMONDSON AVE                      000N        CARE OF             
MTR08543500001000000000000000RA              11335772    005800940000009400000570000003NN  NNW 000                       N    
RDG08543500WATRL000000004K00000000000000936003102042015083549N000000000000U89       000180400K 10000000010000000919           
CUS0854350000108016204003         BASSLER WILLIAM E,JR2013 EDMONDSON AVE                      000N        CARE OF             
MTR08543500001000000000000000RA              50480428    005800950000009500000520000003NN  NNW 000                       N    
RDG08543500WATRL000000004K00000000000001707003202042015083812N000000000000U89       001430400K 10000000010000001688           
CUS0854350000108016203005         MILLER JAMES R,3RD  2011 EDMONDSON AVE                      000N        CARE OF             
MTR08543500001000000000000000RA              2423129     005800960000009600000520000003NN  NNW 000                       N    
RDG08543500WATRL000000004K00000000000002950003302042015083845N000000000000U89       000330400K 10000000010000002950           
CUS0854350000108016202007         BUBNIS EDWARD A     2009 EDMONDSON AVE                      000N        CARE OF             
MTR08543500001000000000000000RA              10020018    005800970000009700000570000003NN  NNW 000                       N    
RDG08543500WATRL000000004K00000000000000222003402042015083937N000000000000U89       000520400K 10000000010000000197           
CUS0854350000108016201009         BUBNIS WILLIAM J    2007 EDMONDSON AVE                      000N        CARE OF             
MTR08543500001000000000000000RA              00130942    005800980000009800000570000003NN  NNW 000                       N    
RDG08543500WATRL000000004K00000000000000920003502042015084004N000000000000U89       000270400K 10000000010000000894           
CUS0854350000108016200001         JACOB I LEPSY       2005 EDMONDSON AVE                      000N        CARE OF             
MTR08543500001000000000000000RA              M532110     005800990000009900000570000003NN  NNW 000                       N    
RDG08543500WATRL000000004K00000000000005163003602042015084045N000000000000U89       000410400K 10000000010000005163           
CUS0854350000108016199005         YINGLING JOSEPH D   2003 EDMONDSON AVE                      000N        CARE OF             
MTR08543500001000000000000000RA              10022846    005801000000010000000570000003NN  NNW 000                       N    
RDG08543500WATRL000000004K00000000000000110003702042015084233N000000000000U89       001080400K 10000000010000000099           
CUS0854350000108016198007         FROST MARION E,JR   2001 EDMONDSON AVE                      000N        CARE OF             
MTR08543500001000000000000000RA              24220092    005801010000010100000520000003NN  NNW 000                       N    
RDG08543500WATRL000000004K00000000000003342003802042015084317N000000000000U89       000440400K 10000000010000003316           
CUS0854350000108016197009         GERMAN REF IMMANUEL 1905 EDMONDSON AVE                      000N        CARE OF             
MTR08543500001000000000000000RA              26010385    005801020000010200000520000003NN  NNW 000                       N    
RDG08543500WATRL000000004K00000000000004623003902042015085300N000000000000U89       005830400K 10000000010000004603           
CUS0854350000108015347001         GEORGE R PADGETT, JR42 N ROLLING RD                         000N        CARE OF             
MTR08543500001000000000000000RA              9692420     007501030000010300000570000003NN  NNW 000                       N    
RDG08543500WATRL000000004K00000000000005245004002042015085436N000000000000U89       000960400K 10000000010000005222           
CUS0854350000108015348009         KUDIRKA JUSTINAS    40 N ROLLING RD                         000N        CARE OF             
MTR08543500001000000000000000RA              35098809    005801040000010400000520000003NN  NNW 000                       N    
RDG08543500WATRL000000004K00000000000003155004102042015085627N000400000010U89       001110400K 10000000010000003150           
CUS0854350000108015349007         WINEBRENNER WIRT SHR36 N ROLLING RD                         000N        CARE OF             
MTR08543500001000000000000000RA              46878423    005801050000010500000520000003NN  NNW 000                       N    
RDG08543500WATRL000000004K00000000000001981004202042015090115N000000000000U89       002880400K 10000000010000001963           
CUS0854350000108015350005         EMMA LOU FORD       32 N ROLLING RD                         000N        CARE OF             
MTR08543500001000000000000000RA              99187684    005801060000010600000570000003NN  NNW 000                       N    
RDG08543500WATRL000000004K00000000000001143004302042015090219N000000000000U89       000640400K 10000000010000001121           
CUS0854350000108015351003         RASCOE MATTHEW T    30 N ROLLING RD                         000N        CARE OF             
MTR08543500001000000000000000RA              36696356    005801070000010700000520000003NY  NNW 000                       N    
MTM0854350036696356    FROZEN                                                                                                 
RDG08543500WATRL000000004K00000000000000000000000000000000000 000000000000U         000000400  10000000010000002523           
CUS0854350000108015352001         AHMED SHABBIR       28 N ROLLING RD                         000N        CARE OF             
MTR08543500001000000000000000RA              46881469    005801080000010800000520000003NN  NNW 000                       N    
RDG08543500WATRL000000004K00000000000004335004402042015090434N000000000000U89       001350400K 10000000010000004095           
CUS0854350000108015353009         PATRICK M DOBMEIER  26 N ROLLING RD                         000N        CARE OF             
MTR08543500001000000000000000RA              10012955    005801090000010900000570000003NN  NNW 000                       N    
RDG08543500WATRL000000004K00000000000000307004502042015090907N000000000000U89       002730400K 10000000010000000296           
CUS0854350000108015354007         YANCEY GEORGE P     24 N ROLLING RD                         000N        CARE OF             
MTR08543500001000000000000000RA              24226168    005801100000011000000520000003NN  NNW 000                       N    
RDG08543500WATRL000000004K00000000000005302004602042015091002N000000000000U89       000550400K 10000000010000005274           
CUS0854350000108015355004         HENRY RAYMOND D     1900 LISMORE LN                         000N        CARE OF             
MTR08543500001000000000000000RA              11337159    005801110000011100000570000003NN  NNW 000                       N    
RDG08543500WATRL000000004K00000000000005289007402042015093306N000000000000U89       000620400K 10000000010000005277           
CUS0854350000108015356002         BOEHL KARA MCLAUGHLI1902 LISMORE LN                         000N        CARE OF             
MTR08543500001000000000000000RA              30527893    005801120000011200000520000003NN  NNW 000                       N    
RDG08543500WATRL000000004K00000000000003948007502042015093332N000000000000U89       000260400K 10000000010000003924           
CUS0854350000108015357000         FIELDS ELMER M      1904 LISMORE LN                         000N        CARE OF             
MTR08543500001000000000000000RA              10010073    005801130000011300000570000003NN  NNW 000                       N    
RDG08543500WATRL000000004K00000000000000364007602042015093537N000000000000U89       001250400K 10000000010000000338           
CUS0854350000108015358008         RATTA MICHAEL D     1906 LISMORE LN                         000N        CARE OF             
MTR08543500001000000000000000RA              38985619    005801140000011400000520000003NN  NNW 000                       N    
RDG08543500WATRL000000004K00000000000001499007702042015093602N000000000000U89       000250400K 10000000010000001482           
CUS0854350000108015359006         SABATELLI ANDREW    1908 LISMORE LN                         000N        CARE OF             
MTR08543500001000000000000000RA              46880809    005801150000011500000520000003NN  NNW 000                       N    
RDG08543500WATRL000000004K00000000000001396007802042015093642N000000000000U89       000400400K 10000000010000001372           
CUS0854350000108015360004         REID CHRISTOPHER MIC1910 LISMORE LN                         000N        CARE OF             
MTR08543500001000000000000000RA              35102823    005801160000011600000520000003NN  NNW 000                       N    
RDG08543500WATRL000000004K00000000000003611007902042015093737N000000000000U89       000550400K 10000000010000003578           
CUS0854350000108015361002         DERRETH ROBERT H    1912 LISMORE LN                         000N        CARE OF             
MTR08543500001000000000000000RA              38985667    005801170000011700000520000003NN  NNW 000                       N    
RDG08543500WATRL000000004K00000000000002156008202042015093824N000000000000U89       000220400K 10000000010000002144           
CUS0854350000108015362000         HUBER HENRY J       1914 LISMORE LN                         000N        CARE OF             
MTR08543500001000000000000000RA              29685494    005801180000011800000520000003NN  NNW 000                       N    
RDG08543500WATRL000000004K00000000000002971008702042015094018N000000000000U89       000260400K 10000000010000002959           
CUS0854350000108015363008         POHLMAN LEROY A     1916 LISMORE LN                         000N        CARE OF             
MTR08543500001000000000000000RA              46880804    005801190000011900000520000003NN  NNW 000                       N    
RDG08543500WATRL000000004K00000000000001534008802042015094054N000000000000U89       000360400K 10000000010000001518           
CUS0854350000108015364006         JEAN ANNE SMITH     1918 LISMORE LN                         000N        CARE OF             
MTR08543500001000000000000000RA              46880802    005801200000012000000520000003NN  NNW 000                       N    
RDG08543500WATRL000000004K00000000000001218008902042015094055N000000000000U89       000010400K 10000000010000001199           
CUS0854350000108015365003         FOX MICHAEL W       1920 LISMORE LN                         000N        CARE OF             
MTR08543500001000000000000000RA              14915033    005801210000012100000310000003NN  NNW 000                       N    
RDG08543500WATRL000000004K00000000000000729009102042015094205N000000000000U89       000250400K 10000000010000000707           
CUS0854350000108015366001         COLIN D ARMSTROM    1922 LISMORE LN                         000N        CARE OF             
MTR08543500001000000000000000RA              35119310    005801220000012200000520000003NN  NNW 000                       N    
RDG08543500WATRL000000004K00000000000001855009202042015094240N000000000000U89       000350400K 10000000010000001834           
CUS0854350000108015367009         LEE ROBERT E        1924 LISMORE LN                         000N        CARE OF             
MTR08543500001000000000000000RA              38985610    005801230000012300000520000003NN  NNW 000                       N    
RDG08543500WATRL000000004K00000000000002268009302042015094259N000000000000U89       000190400K 10000000010000002253           
CUS0854350000108015368007         PAUL S SYNDER       1917 LISMORE LN                         000N        CARE OF             
MTR08543500001000000000000000RA              76348509    005801240000012400000350000003NN  NNW 000                       N    
RDG08543500WATRL000000004K00000000000000013009002042015094140N000000000000U89       000450400K 10000000010000000007           
CUS0854350000108015369005         UPMAN JOHN J,JR     1915 LISMORE LN                         000N        CARE OF             
MTR08543500001000000000000000RA              26003994    005801250000012500000520000003NN  NNW 000                       N    
RDG08543500WATRL000000004K00000000000002093008502042015093942N000000000000U89       000280400K 10000000010000002088           
CUS0854350000108015370003         FRANTZ DOUGLAS L    1913 LISMORE LN                         000N        CARE OF             
MTR08543500001000000000000000RA              26004005    005801260000012600000520000003NN  NNW 000                       N    
RDG08543500WATRL000000004K00000000000003918008602042015093952N000000000000U89       000100400K 10000000010000003899           
CUS0854350000108015371001         DALEY MICHAEL W     1911 LISMORE LN                         000N        CARE OF             
MTR08543500001000000000000000RA              24760242    005801270000012700000520000003NN  NNW 000                       N    
RDG08543500WATRL000000004K00000000000005595008302042015093912N000000000000U89       000480400K 10000000010000005571           
CUS0854350000108015372009         GREEN ANDREW T      1909 LISMORE LN                         000N        CARE OF             
MTR08543500001000000000000000RA              31587020    005801280000012800000520000003NN  NNW 000                       N    
RDG08543500WATRL000000004K00000000000002966008402042015093914N000000000000U89       000020400K 10000000010000002910           
CUS0854350000108015373007         FISHER JOHN D       1907 LISMORE LN                         000N        CARE OF             
MTR08543500001000000000000000RA              46880812    005801290000012900000520000003NN  NNW 000                       N    
RDG08543500WATRL000000004K00000000000001113008102042015093802N000000000000U89       000140400K 10000000010000001088           
CUS0854350000108015374005         WACHSMUTH BRADFORD P1905 LISMORE LN                         000N        CARE OF             
MTR08543500001000000000000000RA              46880813    005801300000013000000520000003NN  NNW 000                       N    
RDG08543500WATRL000000004K00000000000001240008002042015093748N000000000000U89       000110400K 10000000010000001223           
CUS0854350000108015375002         GENTNER GREGORY M   1903 LISMORE LN                         000N        CARE OF             
MTR08543500001000000000000000RA              11329706    005801310000013100000570000003NN  NNW 000                       N    
RDG08543500WATRL000000004K00000000000003334011202042015095516N000000000000U89       001180400K 10000000010000003308           
CUS0854350000108015376000         JONES DONALD R      1908 CLIFDEN RD                         000N        CARE OF             
MTR08543500001000000000000000RA              01101472    005801320000013200000610000003NN  NNW 000                       N    
RDG08543500WATRL000000004K00000000000000628007302042015093204N000000000000U89       000210400K 10000000010000000616           
CUS0854350000108015377008         KEHOE BRANDY        1910 CLIFDEN RD                         000N        CARE OF             
MTR08543500001000000000000000RA              26008846    005801330000013300000520000003NN  NNW 000                       N    
RDG08543500WATRL000000004K00000000000002271007202042015093143N000000000000U89       000450400K 10000000010000002241           
CUS0854350000108015378006         BAKER MARY CONSTANCE1912 CLIFDEN RD                         000N        CARE OF             
MTR08543500001000000000000000RA              46880807    005801340000013400000520000003NN  NNW 000                       N    
RDG08543500WATRL000000004K00000000000002011007102042015093058N000000000000U89       000310400K 10000000010000001984           
CUS0854350000108015379004         LOWE WAYNE L        1914 CLIFDEN RD                         000N        CARE OF             
MTR08543500001000000000000000RA              00131356    005801350000013500000570000003NN  NNW 000                       N    
RDG08543500WATRL000000004K00000000000001352007002042015093027N000000000000U89       000410400K 10000000010000001331           
CUS0854350000108015380002         YASNESKI AMY E      1916 CLIFDEN RD                         000N        CARE OF             
MTR08543500001000000000000000RA              00132605    005801360000013600000570000003NN  NNW 000                       N    
RDG08543500WATRL000000004K00000000000001575006902042015092946N000000000000U89       000330400K 10000000010000001557           
CUS0854350000108015381000         BIDNE VERONICA F,TRU1918 CLIFDEN RD                         000N        CARE OF             
MTR08543500001000000000000000RA              29084453    005801370000013700000520000003NN  NNW 000                       N    
RDG08543500WATRL000000004K00000000000004110006802042015092913N000400000010U89       000720400K 10000000010000004109           
CUS0854350000108015382008         GREENBERG MARY B    1920 CLIFDEN RD                         000N        CARE OF             
MTR08543500001000000000000000RA              00131359    005801380000013800000570000003NN  NNW 000                       N    
RDG08543500WATRL000000004K00000000000000778006502042015092706N000000000000U89       000330400K 10000000010000000772           
CUS0854350000108015383006         FLYNN MICHAEL P     1922 CLIFDEN RD                         000N        CARE OF             
MTR08543500001000000000000000RA              48589649    005801390000013900000520000003NN  NNW 000                       N    
RDG08543500WATRL000000004K00000000000001575006402042015092633N000000000000U89       000230400K 10000000010000001552           
CUS0854350000108015396008         DONOGHUE JAMES D    2002 CLIFDEN RD                         000N        CARE OF             
MTR08543500001000000000000000RA              10022311    005801400000014000000570000003NN  NNW 000                       N    
RDG08543500WATRL000000004K00000000000000297006202042015092322N000000000000U89       000240400K 10000000010000000272           
CUS0854350000108015397006         GLEMZA LINAS        203 ELPIN DR E                          000N        CARE OF             
MTR08543500001000000000000000RA              10001302    005801410000014100000570000003NN  NNW 000                       N    
RDG08543500WATRL000000004K00000000000000307006102042015092258N000000000000U89       000200400K 10000000010000000295           
CUS0854350000108015398004         FREDERICK TAYLOR    205 ELPIN DR E                          000N        CARE OF             
MTR08543500001000000000000000RA              14923861    005801420000014200000310000003NN  NNW 000                       N    
RDG08543500WATRL000000004K00000000000000257006002042015092238N000000000000U89       001290400K 10000000010000000250           
CUS0854350000108015399002         SHAUGHNESSY WILLIAM 207 ELPIN DR E                          000N        CARE OF             
MTR08543500001000000000000000RA              46879641    005801430000014300000520000003NN  NNW 000                       N    
RDG08543500WATRL000000004K00000000000002242005902042015092029N000000000000U89       000310400K 10000000010000002192           
CUS0854350000108015400008         GILBART JAMES       209 ELPIN DR E                          000N        CARE OF             
MTR08543500001000000000000000RA              14917892    005801440000014400000310000003NN  NNW 000                       N    
RDG08543500WATRL000000004K00000000000000397005802042015091958N000000000000U89       000670400K 10000000010000000382           
CUS0854350000108015401006         MOULTHROP ANDREW G  211 ELPIN DR E                          000N        CARE OF             
MTR08543500001000000000000000RA              46880717    005801450000014500000520000003NN  NNW 000                       N    
RDG08543500WATRL000000004K00000000000001570005702042015091851N000000000000U89       000200400K 10000000010000001554           
CUS0854350000108015402004         JOHNSON RAY E       213 ELPIN DR E                          000N        CARE OF             
MTR08543500001000000000000000RA              00132564    005801460000014600000570000003NN  NNW 000                       N    
RDG08543500WATRL000000004K00000000000003637005602042015091831N000000000000U89       002410400K 10000000010000003622           
CUS0854350000108015403002         GLEAVES KATHRYN     2000 LISMORE LN                         000N        CARE OF             
MTR08543500001000000000000000RA              30527656    005801470000014700000520000003NN  NNW 000                       N    
RDG08543500WATRL000000004K00000000000003973009402042015094353N000000000000U89       000540400K 10000000010000003950           
CUS0854350000108015404000         STEPHENS HAROLD W   2002 LISMORE LN                         000N        CARE OF             
MTR08543500001000000000000000RA              01072524    005801480000014800000610000003NN  NNW 000                       N    
RDG08543500WATRL000000004K00000000000001436009502042015094415N000000000000U89       000220400K 10000000010000001419           
CUS0854350000108015405007         RUBIE LORI J        2004 LISMORE LN                         000N        CARE OF             
MTR08543500001000000000000000RA              01078116    005801490000014900000610000003NN  NNW 000                       N    
RDG08543500WATRL000000004K00000000000000944009602042015094507N000000000000U89       000520400K 10000000010000000936           
CUS0854350000108015406005         WALKER DARRELL A    218 ELPIN DR W                          000N        CARE OF             
MTR08543500001000000000000000RA              24767056    005801500000015000000520000003NN  NNW 000                       N    
RDG08543500WATRL000000004K00000000000003932009702042015094555N000000000000U89       000480400K 10000000010000003911           
CUS0854350000108015407003         SMITHSON FRANKLIN JE216 ELPIN DR W                          000N        CARE OF             
MTR08543500001000000000000000RA              14906763    005801510000015100000310000003NN  NNW 000                       N    
RDG08543500WATRL000000004K00000000000001089009802042015094619N000000000000U89       000240400K 10000000010000001058           
CUS0854350000108015408001         PRUITT MICHAEL J    214 ELPIN DR W                          000N        CARE OF             
MTR08543500001000000000000000RA              48588341    005801520000015200000520000003NN  NNW 000                       N    
RDG08543500WATRL000000004K00000000000002336009902042015094701N000000000000U89       000420400K 10000000010000002313           
CUS0854350000108015409009         DARCHICOURT JAMES T 212 W ELPIN DR                          000N        CARE OF             
MTR08543500001000000000000000RA              46880841    005801530000015300000520000003NN  NNW 000                       N    
RDG08543500WATRL000000004K00000000000002657010002042015094730N000000000000U89       000290400K 10000000010000002634           
CUS0854350000108015410007         BOROWSKI CHRISTOPHER210 ELPIN DR W                          000N        CARE OF             
MTR08543500001000000000000000RA              46880711    005801540000015400000520000003NN  NNW 000                       N    
RDG08543500WATRL000000004K00000000000001724010102042015094753N000000000000U89       000230400K 10000000010000001711           
CUS0854350000108015411005         STIEBING ROBERT H,JR208 ELPIN DR W                          000N        CARE OF             
MTR08543500001000000000000000RA              50788838    005801550000015500000520000003NN  NNW 000                       N    
RDG08543500WATRL000000004K00000000000001411010202042015094823N000000000000U89       000300400K 10000000010000001398           
CUS0854350000108015412003         KAEHLER KATHERINE E 206 ELPIN DR W                          000N        CARE OF             
MTR08543500001000000000000000RA              11429332    005801560000015600000570000003NN  NNW 000                       N    
RDG08543500WATRL000000004K00000000000004232010302042015094846N000000000000U89       000230400K 10000000010000004224           
CUS0854350000108015413001         JOHN JOHNS          204 ELPIN DR W                          000N        CARE OF             
MTR08543500001000000000000000RA              46880713    005801570000015700000520000003NN  NNW 000                       N    
RDG08543500WATRL000000004K00000000000001798010402042015094904N000000000000U89       000180400K 10000000010000001788           
CUS0854350000108015414009         DICKSON ROBERT  DICK202 ELPIN DR W                          000N        CARE OF             
MTR08543500001000000000000000RA              01090691    005801580000015800000610000003NN  NNW 000                       N    
RDG08543500WATRL000000004K00000000000000601010502042015094932N000000000000U89       000280400K 10000000010000000573           
CUS0854350000108015415006         WIRTH WILLIAM D     200 W ELPIN DR                          000N        CARE OF             
MTR08543500001000000000000000RA              00131971    005801590000015900000570000003NN  NNW 000                       N    
RDG08543500WATRL000000004K00000000000001967010602042015094952N000000000000U89       000200400K 10000000010000001933           
CUS0854350000108015416004         REICHENBERG C P,JR  2009 CLIFDEN RD                         000N        CARE OF             
MTR08543500001000000000000000RA              00131360    005801600000016000000570000003NN  NNW 000                       N    
RDG08543500WATRL000000004K00000000000001673010702042015095027N000000000000U89       000350400K 10000000010000001656           
CUS0854350000108015417002         BECKER ELIZABETH ANN2007 CLIFDEN RD                         000N        CARE OF             
MTR08543500001000000000000000RA              26001562    005801610000016100000520000003NN  NNW 000                       N    
RDG08543500WATRL000000004K00000000000002239010802042015095103N000000000000U89       000360400K 10000000010000002231           
CUS0854350000108015418000         HARMAN MICHAEL G    2005 CLIFDEN RD                         000N        CARE OF             
MTR08543500001000000000000000RA              99293702    005801620000016200000570000003NN  NNW 000                       N    
RDG08543500WATRL000000004K00000000000001515010902042015095223N000000000000U89       000800400K 10000000010000001489           
CUS0854350000108015419008         MARY ANN CAIN       2003 CLIFDEN RD                         000N        CARE OF             
MTR08543500001000000000000000RA              14908599    005801630000016300000310000003NN  NNW 000                       N    
RDG08543500WATRL000000004K00000000000000319011002042015095252N000000000000U89       000290400K 10000000010000000315           
CUS0854350000108015420006         MARK HUMPHREYS      2001 CLIFDEN RD                         000N        CARE OF             
MTR08543500001000000000000000RA              00131357    005801640000016400000570000003NN  NNW 000                       N    
RDG08543500WATRL000000004K00000000000000670011102042015095318N000000000000U89       000260400K 10000000010000000666           
CUS0854350000108015421004         MCGARVEY NICHOLAS   1923 CLIFDEN RD                         000N        CARE OF             
MTR08543500001000000000000000RA              46880811    005801650000016500000520000003NN  NNW 000                       N    
RDG08543500WATRL000000004K00000000000002001006302042015092610N000000000000U89       001680400K 10000000010000001990           
CUS0854350000108015422002         FRENTZ RAMONA L     1921 CLIFDEN RD                         000N        CARE OF             
MTR08543500001000000000000000RA              46880805    005801660000016600000520000003NN  NNW 000                       N    
RDG08543500WATRL000000004K00000000000001321006602042015092730N000000000000U89       000240400K 10000000010000001308           
CUS0854350000108015423000         DAVID WASSER        1919 CLIFDEN RD                         000N        CARE OF             
MTR08543500001000000000000000RA              24757411    005801670000016700000520000003NN  NNW 000                       N    
RDG08543500WATRL000000004K00000000000003851006702042015092801N000000000000U89       000310400K 10000000010000003831           
CUS0854350000108015424008         TAYLOR MICHELE      1917 CLIFDEN RD                         000N        CARE OF             
MTR08543500001000000000000000RA              46880708    005801680000016800000520000003NN  NNW 000                       N    
RDG08543500WATRL000000004K00000000000003841005502042015091430N000000000000U89       000390400K 10000000010000003804           
CUS0854350000108015425005         HOFMANN ANTHONY     1915 CLIFDEN RD                         000N        CARE OF             
MTR08543500001000000000000000RA              11428535    005801690000016900000570000003NN  NNW 000                       N    
RDG08543500WATRL000000004K00000000000002480005402042015091351N000000000000U89       000440400K 10000000010000002456           
CUS0854350000108015426003         BURNS JOHN P        1913 CLIFDEN RD                         000N        CARE OF             
MTR08543500001000000000000000RA              39289146    005801700000017000000520000003NN  NNW 000                       N    
RDG08543500WATRL000000004K00000000000002718005302042015091307N000000000000U89       000310400K 10000000010000002711           
CUS0854350000108015427001         STONER THOMAS P     1911 CLIFDEN RD                         000N        CARE OF             
MTR08543500001000000000000000RA              26013877    005801710000017100000520000003NN  NNW 000                       N    
RDG08543500WATRL000000004K00000000000003842005202042015091236N000000000000U89       000230400K 10000000010000003824           
CUS0854350000108015428009         AMSALU T GELETA     1909 CLIFDEN RD                         000N        CARE OF             
MTR08543500001000000000000000RA              29082313    005801720000017200000520000003NN  NNW 000                       N    
RDG08543500WATRL000000004K00000000000002176005102042015091213N000000000000U89       000340400K 10000000010000002147           
CUS0854350000108015429007         GROH DORIS J        1907 CLIFDEN RD                         000N        CARE OF             
MTR08543500001000000000000000RA              46880803    005801730000017300000520000003NN  NNW 000                       N    
RDG08543500WATRL000000004K00000000000002541005002042015091139N000000000000U89       000210400K 10000000010000002523           
CUS0854350000108015430005         TIDWELL HAROLD V    1905 CLIFDEN RD                         000N        CARE OF             
MTR08543500001000000000000000RA              52289961    005801740000017400000520000003NN  NNW 000                       N    
RDG08543500WATRL000000004K00000000000002084004902042015091118N000000000000U89       000340400K 10000000010000002067           
CUS0854350000108015431003         VON HAGEL KAREN     1903 CLIFDEN RD                         000N        CARE OF             
MTR08543500001000000000000000RA              45373637    005801750000017500000520000003NN  NNW 000                       N    
RDG08543500WATRL000000004K00000000000000748004802042015091044N000000000000U89       000190400K 10000000010000000735           
CUS0854350000108015432001         KOLAREK FRANK J     1901 CLIFDEN RD                         000N        CARE OF             
MTR08543500001000000000000000RA              10019809    005801760000017600000570000003NN  NNW 000                       N    
RDG08543500WATRL000000004K00000000000000333004702042015091025N000000000000U89       000230400K 10000000010000000298           
RTR08543500NN01760176000001760000000001760176000171NY017601760176000300000000000000000000000002    01222015NY020000 N         
RHD08543600NN01880188000001880000000001880188000159NY018801880188000900000000000000000000000002    01222015NY020000 N         
CUS0854360000108016493002         BRAY JEROME         2021 PLEASANT VILLA AVE                 000N        CARE OF             
MTR08543600001000000000000000RA              31580787    005800010000000100000520000003NN  NNW 000                       N    
RDG08543600WATRL000000004K00000000000006402000502032015103122N000000000000N86       007000400K 10000000010000006358           
CUS0854360000108388455001         ERIC E HARDEN       2023 PLEASANT VILLA AVE                 000N        CARE OF             
MTR08543600001000000000000000RA              76348383    005800020000000200000350000003NN  NNW 000                       N    
RDG08543600WATRL000000004K00000000000000058000602032015103206N000000000000N86       000440400K 10000000010000000039           
CUS0854360000108388460001         FLAHERTY MARK A     2025 PLEASANT VILLA AVE                 000N        CARE OF             
MTR08543600001000000000000000RA              36689805    005800030000000300000520000003NN  NNW 000                       N    
RDG08543600WATRL000000004K00000000000004194000702032015103248N000000000000N86       000420400K 10000000010000004153           
CUS0854360000108388452008         COHEN FREDERIC M    2029 PLEASANT VILLA AVE                 000N        CARE OF             
MTR08543600001000000000000000RA              36689831    005800040000000400000520000003NY  NNW 000                       N    
MTM0854360036689831    FROZJS                                                                                                 
RDG08543600WATRL000000004K00000000000000000000000000000000000 000000000000U         000000400  10000000010000004368           
CUS0854360000108393906006         MARK & MARY LOU MURR2031 PLEASANT VILLA AVE                 000N        CARE OF             
MTR08543600001000000000000000RA              39291061    005800050000000500000520000003NY  NNW 000                       N    
MTM0854360039291061    FROZEN                                                                                                 
RDG08543600WATRL000000004K00000000000000000000000000000000000 000000000000U         000000400  10000000010000003358           
CUS0854360000108381432007         MCDADE THOMAS M     2035 PLEASANT VILLA AVE                 000N        CARE OF             
MTR08543600001000000000000000RA              76345211    005800060000000600000350000003NN  NNW 000                       N    
RDG08543600WATRL000000004K00000000000000047000802032015103427N000000000000N86       000990400K 10000000010000000019           
CUS0854360000108016489000         MAYOR & CITY COUNCIL6601 BALTIMORE NATL PIKE                000N        CARE OF             
MTR08543600001000000000000000RA              99999999    005800070000000700000610000003NY  NNW 000                       N    
MTM0854360099999999    CANT LOCATE                                                                                            
RDG08543600WATRL000000004K00000000000000000000000000000000000 000000000000U         000000400  10000000010000000329           
CUS0854360000108423582009         KOONS CATONSVILLE   6635 BALTIMORE NATL PIKE                000N        CARE OF             
MTR08543600001000000000000000RA              50479058    005800080000000800000520000000NN  NNW 000                       N    
RDG08543600WATRL000000004K00000000000000000000000000000000000 000000000000U         000000400  10000000010000000478           
CUS0854360000108380190002         MCSHANE TIMOTHY EUGE2038 PLEASANT VILLA AVE                 000N        CARE OF             
MTR08543600001000000000000000RA              33081302    005800090000000900000520000003NN  NNW 000                       N    
RDG08543600WATRL000000004K00000000000004399000902032015103631N000000000000N86       001240400K 10000000010000004357           
CUS0854360000108379133005         CRUM WILLIAM E,2ND  2036 PLEASANT VILLA AVE                 000N        CARE OF             
MTR08543600001000000000000000RA              10012961    005800100000001000000570000003NN  NNW 000                       N    
RDG08543600WATRL000000004K00000000000000277001002032015103657N000000000000N86       000260400K 10000000010000000262           
CUS0854360000108379132007         KRAUS ROBERT E      2034 PLEASANT VILLA AVE                 000N        CARE OF             
MTR08543600001000000000000000RA              10012960    005800110000001100000570000003NN  NNW 000                       N    
RDG08543600WATRL000000004K00000000000000243001102032015103658N000000000000N86       000010400K 10000000010000000225           
CUS0854360000108379131009         BALDWIN ROBERT H    2032 PLEASANT VILLA AVE                 000N        CARE OF             
MTR08543600001000000000000000RA              99291005    005800120000001200000570000003NN  NNW 000                       N    
RDG08543600WATRL000000004K00000000000002343001202032015103757N000000000000N86       000590400K 10000000010000002320           
CUS0854360000108379390001         POPCHAK MICHAEL J   2030 PLEASANT VILLA AVE                 000N        CARE OF             
MTR08543600001000000000000000RA              99291003    005800130000001300000570000003NN  NNW 000                       N    
RDG08543600WATRL000000004K00000000000000419001302032015103759N000000000000N86       000020400K 10000000010000000413           
CUS0854360000108379130001         NICK T EPITROPOULOS 2028 PLEASANT VILLA AVE                 000N        CARE OF             
MTR08543600001000000000000000RA              10012959    005800140000001400000570000003NN  NNW 000                       N    
RDG08543600WATRL000000004K00000000000000297001402032015103820N000000000000N86       000210400K 10000000010000000277           
CUS0854360000108379129003         BOENING ANTHONY J   2026 PLEASANT VILLA AVE                 000N        CARE OF             
MTR08543600001000000000000000RA              48596640    005800150000001500000520000003NN  NNW 000                       N    
RDG08543600WATRL000000004K00000000000002827001502032015103943N000000000000N86       000830400K 10000000010000002787           
CUS0854360000108376349000         LUECKING MARGINA    2024 PLEASANT VILLA AVE                 000N        CARE OF             
MTR08543600001000000000000000RA              32898969    005800160000001600000520000003NN  NNW 000                       N    
RDG08543600WATRL000000004K00000000000002622001602032015104004N000000000000N86       000210400K 10000000010000002612           
CUS0854360000108016494000         MILLER WILLIS       2022 PLEASANT VILLA AVE                 000N        CARE OF             
MTR08543600001000000000000000RA              48591679    005800170000001700000520000003NN  NNW 000                       N    
RDG08543600WATRL000000004K00000000000002605001702032015104111N000000000000N86       000670400K 10000000010000002564           
CUS0854360000108373937005         MOORE TIMOTHY E     2020 PLEASANT VILLA AVE                 000N        CARE OF             
MTR08543600001000000000000000RA              31586458    005800180000001800000520000003NN  NNW 000                       N    
RDG08543600WATRL000000004K00000000000003769001802032015104155N000000000000N86       000440400K 10000000010000003740           
CUS0854360000108016495007         HUNTER DANIEL L     2301 ROCKWELL AVE                       000N        CARE OF             
MTR08543600001000000000000000RA              11427009    005800190000001900000570000003NN  NNW 000                       N    
RDG08543600WATRL000000004K00000000000008915001902032015104257N000000000000N86       000620400K 10000000010000008886           
CUS0854360000108016496005         CASE JOEL S         2303 ROCKWELL AVE                       000N        CARE OF             
MTR08543600001000000000000000RA              01101464    005800200000002000000610000003NN  NNW 000                       N    
RDG08543600WATRL000000004K00000000000001184002002032015104537N000000000000N86       001600400K 10000000010000001171           
CUS0854360000108016497003         LUBELL PAUL D,TRUSTE2305 ROCKWELL AVE                       000N        CARE OF             
MTR08543600001000000000000000RA              41076442    005800210000002100000520000003NN  NNW 000                       N    
RDG08543600WATRL000000004K00000000000001697002102032015104743N000000000000N86       001260400K 10000000010000001685           
CUS0854360000108016498001         BROUSE EKATERINI    2307 ROCKWELL AVE                       000N        CARE OF             
MTR08543600001000000000000000RA              27818272    005800220000002200000520000003NN  NNW 000                       N    
RDG08543600WATRL000000004K00000000000004371002202032015104746N000000000000N86       000030400K 10000000010000004347           
CUS0854360000108016499009         FERRARA KIM E       2309 ROCKWELL AVE                       000N        CARE OF             
MTR08543600001000000000000000RA              00132486    005800230000002300000570000003NN  NNW 000                       N    
RDG08543600WATRL000000004K00000000000001471002302032015105026N000000000000N86       001600400K 10000000010000001457           
CUS0854360000108016500004         HOGAN CHRIS WILLIAM,2311 ROCKWELL AVE                       000N        CARE OF             
MTR08543600001000000000000000RA              75424170    005800240000002400000350000003NN  NNW 000                       N    
RDG08543600WATRL000000004K00000000000000145002402032015105028N000000000000N86       000020400K 10000000010000000127           
CUS0854360000108016501002         HEATHCOTE JOSEPH F  403 CHALFONTE DR                        000N        CARE OF             
MTR08543600001000000000000000RA              20767928    005800250000002500000520000003NN  NNW 000                       N    
RDG08543600WATRL000000004K00000000000003502002502032015110414N000000000000N86       008260400K 10000000010000003494           
CUS0854360000108016502000         SHILDT CHARLES M    403 NEEPIER RD                          000N        CARE OF             
MTR08543600001000000000000000RA              00132543    005800260000002600000570000003NN  NNW 000                       N    
RDG08543600WATRL000000004K00000000000000593002602032015110446N000000000000N86       000320400K 10000000010000000581           
CUS0854360000108016503008         GAST CAROLYN H      405 NEEPIER RD                          000N        CARE OF             
MTR08543600001000000000000000RA              26002784    005800270000002700000520000003NN  NNW 000                       N    
RDG08543600WATRL000000004K00000000000004653002702032015110519N000000000000N86       000330400K 10000000010000004625           
CUS0854360000108016504006         OSTOVITZ RICHARD T  407 NEEPIER RD                          000N        CARE OF             
MTR08543600001000000000000000RA              48596220    005800280000002800000520000003NN  NNW 000                       N    
RDG08543600WATRL000000004K00000000000002277002902032015110720N000000000011N86       000250400K 10000000010000002259           
CUS0854360000108016505003         CHEEK JOSEPH D      409 NEEPIER RD                          000N        CARE OF             
MTR08543600001000000000000000RA              41076441    005800290000002900000520000003NN  NNW 000                       N    
RDG08543600WATRL000000004K00000000000003564003002032015110756N000000000000N86       000360400K 10000000010000003546           
CUS0854360000108016506001         FIELDS JOHN F       411 NEEPIER RD                          000N        CARE OF             
MTR08543600001000000000000000RA              00132547    005800300000003000000570000003NY  NNW 000                       N    
MTM0854360000132547    FROZEN IN DIRT                                                                                         
RDG08543600WATRL000000004K00000000000000000000000000000000000 000000000000U         000000400  10000000010000002133           
CUS0854360000108016507009         BRESLAW KARL        413 NEEPIER RD                          000N        CARE OF             
MTR08543600001000000000000000RA              24233136    005800310000003100000520000003NN  NNW 000                       N    
RDG08543600WATRL000000004K00000000000004826003302032015111117N000000000000N86       000550400K 10000000010000004782           
CUS0854360000108016508007         ANGELA M GEMMELL    415 NEEPIER RD                          000N        CARE OF             
MTR08543600001000000000000000RA              99387349    005800320000003200000570000003NN  NNW 000                       N    
RDG08543600WATRL000000004K00000000000000627003402032015111136N000000000000N86       000190400K 10000000010000000617           
CUS0854360000108016509005         HOWES MARY D        417 NEEPIER RD                          000N        CARE OF             
MTR08543600001000000000000000RA              48594001    005800330000003300000520000003NN  NNW 000                       N    
RDG08543600WATRL000000004K00000000000001306003702032015111325N000000000000N86       000490400K 10000000010000001286           
CUS0854360000108016510003         SCHERER BARBARA A   419 NEEPIER RD                          000N        CARE OF             
MTR08543600001000000000000000RA              11428373    005800340000003400000570000003NN  NNW 000                       N    
RDG08543600WATRL000000004K00000000000004636003902032015111449N000000000000N86       000490400K 10000000010000004594           
CUS0854360000108016511001         JOSEPH SHRYOCK      421 NEEPIER RD                          000N        CARE OF             
MTR08543600001000000000000000RA              23644095    005800350000003500000520000003NN  NNW 000                       N    
RDG08543600WATRL000000004K00000000000003511004002032015111526N000000000000N86       000370400K 10000000010000003484           
CUS0854360000108016512009         REED RONI D         423 NEEPIER RD                          000N        CARE OF             
MTR08543600001000000000000000RA              46881182    005800360000003600000520000003NN  NNW 000                       N    
RDG08543600WATRL000000004K00000000000001227004302032015111754N000000000000N86       000500400K 10000000010000001218           
CUS0854360000108016513007         CHARTIER JOHN MICHAE425 NEEPIER RD                          000N        CARE OF             
MTR08543600001000000000000000RA              00132485    005800370000003700000570000003NN  NNW 000                       N    
RDG08543600WATRL000000004K00000000000002517004502032015111840N000000000000N86       000240400K 10000000010000002473           
CUS0854360000108016514005         KELLY ANNE BLAKE    427 NEEPIER RD                          000N        CARE OF             
MTR08543600001000000000000000RA              40047655    005800380000003800000520000003NN  NNW 000                       N    
RDG08543600WATRL000000004K00000000000002981004802032015112007N000000000000N86       000220400K 10000000010000002960           
CUS0854360000108016515002         BARNES GENEVIEVE    429 NEEPIER RD                          000N        CARE OF             
MTR08543600001000000000000000RA              48585891    005800390000003900000520000003NN  NNW 000                       N    
RDG08543600WATRL000000004K00000000000001103005402032015112437N000000000000N86       000150400K 10000000010000001094           
CUS0854360000108016516000         PERRY THEODORE L    431 NEEPIER RD                          000N        CARE OF             
MTR08543600001000000000000000RA              27829101    005800400000004000000520000003NN  NNW 000                       N    
RDG08543600WATRL000000004K00000000000004673005502032015112522N000000000000N86       000450400K 10000000010000004656           
CUS0854360000108016517008         BARNES THEODORE     433 NEEPIER RD                          000N        CARE OF             
MTR08543600001000000000000000RA              00132488    005800410000004100000570000003NN  NNW 000                       N    
RDG08543600WATRL000000004K00000000000002439005702032015112637N000000000000N86       000460400K 10000000010000002345           
CUS0854360000108016518006         KISHTER PAUL R,JR   435 NEEPIER RD                          000N        CARE OF             
MTR08543600001000000000000000RA              29083525    005800420000004200000520000003NN  NNW 000                       N    
RDG08543600WATRL000000004K00000000000002768005802032015112718N000000000010N86       000410400K 10000000010000002751           
CUS0854360000108016557004         GINAITIS STEPHEN J  437 NEEPIER RD                          000N        CARE OF             
MTR08543600001000000000000000RA              01082339    005800430000004300000610000003NN  NNW 000                       N    
RDG08543600WATRL000000004K00000000000001416005902032015112803N000000000000N86       000450400K 10000000010000001385           
CUS0854360000108441838003         ICARDI SHERRY LYNN  443 NEEPIER RD                          000N        CARE OF             
MTR08543600001000000000000000RA              10011023    005800440000004400000570000003NN  NNW 000                       N    
RDG08543600WATRL000000004K00000000000000228000102032015101922N000000000000N86       000000400K 10000000010000000213           
CUS0854360000108441840009         ROGER ACKER         445 NEEPIER RD                          000N        CARE OF             
MTR08543600001000000000000000RA              10011020    005800450000004500000570000003NN  NNW 000                       N    
RDG08543600WATRL000000004K00000000000000249000202032015101926N000000000000N86       000040400K 10000000010000000233           
CUS0854360000108016520002         BARNES JAMES K      427 PLEASANT VILLA AVE                  000N        CARE OF             
MTR08543600001000000000000000RA              30524167    005800460000004600000520000003NN  NNW 000                       N    
RDG08543600WATRL000000004K00000000000002684005302032015112422N000000000000N86       000630400K 10000000010000002659           
CUS0854360000108016521000         GALITA EMILY E      429 PLEASANT VILLA AVE                  000N        CARE OF             
MTR08543600001000000000000000RA              99293030    005800470000004700000570000003NN  NNW 000                       N    
RDG08543600WATRL000000004K00000000000000961005202032015112319N000000000000N86       000550400K 10000000010000000947           
CUS0854360000108016522008         LAUER LAWRENCE H    431 PLEASANT VILLA AVE                  000N        CARE OF             
MTR08543600001000000000000000RA              30516378    005800480000004800000520000003NN  NNW 000                       N    
RDG08543600WATRL000000004K00000000000004638005102032015112224N000000000000N86       000170400K 10000000010000004608           
CUS0854360000108016523006         LANAHAN WILLIAM J,JR430 PLEASANT VILLA AVE                  000N        CARE OF             
MTR08543600001000000000000000RA              00132483    005800490000004900000570000003NN  NNW 000                       N    
RDG08543600WATRL000000004K00000000000000876005002032015112207N000000000000N86       000340400K 10000000010000000868           
CUS0854360000108016524004         RILEY CAROL D       428 PLEASANT VILLA AVE                  000N        CARE OF             
MTR08543600001000000000000000RA              00132545    005800500000005000000570000003NN  NNW 000                       N    
RDG08543600WATRL000000004K00000000000001052004902032015112133N000000000000N86       000860400K 10000000010000001032           
CUS0854360000108016525001         WEINHOLD FRANCIS L  426 PLEASANT VILLA AVE                  000N        CARE OF             
MTR08543600001000000000000000RA              50788454    005800510000005100000520000003NN  NNW 000                       N    
RDG08543600WATRL000000004K00000000000001886004702032015111945N000000000000N86       000310400K 10000000010000001867           
CUS0854360000108441841007         DINA FEHR           446 NEEPIER RD                          000N        CARE OF             
MTR08543600001000000000000000RA              74815016    007500520000005200000350000003NN  NNW 000                       N    
RDG08543600WATRL000000004K00000000000000110000302032015101938N000000000000N86       000120400K 10000000010000000093           
CUS0854360000108441839001         KELLY M ROTHERING   444 NEEPIER RD                          000N        CARE OF             
MTR08543600001000000000000000RA              10011022    005800530000005300000570000003NN  NNW 000                       N    
RDG08543600WATRL000000004K00000000000000367000402032015101942N000000000000N86       000040400K 10000000010000000340           
CUS0854360000108016519004         DEZELL MAUREEN      432 NEEPIER RD                          000N        CARE OF             
MTR08543600001000000000000000RA              00132487    005800540000005400000570000003NN  NNW 000                       N    
RDG08543600WATRL000000004K00000000000000657005602032015112551N000000000000N86       000290400K 10000000010000000641           
CUS0854360000108016526009         BRADYHOUSE RICHARD G420 NEEPIER RD                          000N        CARE OF             
MTR08543600001000000000000000RA              24768550    005800550000005500000520000003NN  NNW 000                       N    
RDG08543600WATRL000000004K00000000000005876004602032015111914N000000000000N86       000340400K 10000000010000005846           
CUS0854360000108016527007         OCHS MARJORIE L     418 NEEPIER RD                          000N        CARE OF             
MTR08543600001000000000000000RA              24768541    005800560000005600000520000003NN  NNW 000                       N    
RDG08543600WATRL000000004K00000000000004901004402032015111816N000000000000N86       000220400K 10000000010000004857           
CUS0854360000108016528005         AMES WILLIAM        416 NEEPIER RD                          000N        CARE OF             
MTR08543600001000000000000000RA              00132484    005800570000005700000570000003NN  NNW 000                       N    
RDG08543600WATRL000000004K00000000000000846004202032015111704N000000000000N86       000470400K 10000000010000000833           
CUS0854360000108016529003         JONES LISETTE MARIE 414 NEEPIER RD                          000N        CARE OF             
MTR08543600001000000000000000RA              00132544    005800580000005800000570000003NN  NNW 000                       N    
RDG08543600WATRL000000004K00000000000000678004102032015111617N000000000000N86       000510400K 10000000010000000656           
CUS0854360000108016530001         HOFFMAN JOHN F      412 NEEPIER RD                          000N        CARE OF             
MTR08543600001000000000000000RA              21194056    005800590000005900000520000003NN  NNW 000                       N    
RDG08543600WATRL000000004K00000000000004491003802032015111400N000000000000N86       000350400K 10000000010000004453           
CUS0854360000108016531009         MERNAUGH LAWRENCE R 410 NEEPIER RD                          000N        CARE OF             
MTR08543600001000000000000000RA              32900862    005800600000006000000520000003NN  NNW 000                       N    
RDG08543600WATRL000000004K00000000000002122003602032015111236N000000000000N86       000220400K 10000000010000002105           
CUS0854360000108016532007         GOSCINSKI SHIRLEY A 408 NEEPIER RD                          000N        CARE OF             
MTR08543600001000000000000000RA              26000599    005800610000006100000520000003NN  NNW 000                       N    
RDG08543600WATRL000000004K00000000000005207003502032015111214N000000000000N86       000380400K 10000000010000005202           
CUS0854360000108016533005         BENNETT FAWN        406 NEEPIER RD                          000N        CARE OF             
MTR08543600001000000000000000RA              24759408    005800620000006200000520000003NN  NNW 000                       N    
RDG08543600WATRL000000004K00000000000005197003202032015111022N000300000010N86       001240400K 10000000010000005119           
CUS0854360000108016534003         BALL JOAN K         404 NEEPIER RD                          000N        CARE OF             
MTR08543600001000000000000000RA              35098422    005800630000006300000520000003NN  NNW 000                       N    
RDG08543600WATRL000000004K00000000000002128003102032015110818N000000000000N86       000220400K 10000000010000002116           
CUS0854360000108016535000         JACKSON DAVID L     402 NEEPIER RD                          000N        CARE OF             
MTR08543600001000000000000000RA              41076080    005800640000006400000520000003NN  NNW 000                       N    
RDG08543600WATRL000000004K00000000000001936002802032015110607N000000000000N86       000480400K 10000000010000001922           
CUS0854360000108016536008         DEANNA R. DISTASIO  407 CHALFONTE DR                        000N        CARE OF             
MTR08543600001000000000000000RA              41076052    005800650000006500000520000003NN  NNW 000                       N    
RDG08543600WATRL000000004K00000000000000000000000000000000000 000000000000U         000000400  10000000010000001959           
CUS0854360000108016537006         RILEY TIMOTHY B     409 CHALFONTE DR                        000N        CARE OF             
MTR08543600001000000000000000RA              41076066    005800660000006600000520000003NN  NNW 000                       N    
RDG08543600WATRL000000004K00000000000001897010302032015115958N000000000000N86       000410400K 10000000010000001882           
CUS0854360000108016538004         JASON C FISHER      411 CHALFONTE DR                        000N        CARE OF             
MTR08543600001000000000000000RA              10024551    005800670000006700000570000003NN  NNW 000                       N    
RDG08543600WATRL000000004K00000000000000102010202032015115917N000000000000N86       000320400K 10000000010000000077           
CUS0854360000108016539002         LANDREE MARK A      413 CHALFONTE DR                        000N        CARE OF             
MTR08543600001000000000000000RA              30521524    005800680000006800000520000003NN  NNW 000                       N    
RDG08543600WATRL000000004K00000000000003205009902032015115727N000000000000N86       000410400K 10000000010000003183           
CUS0854360000108016540000         CASSIDY RICHARD THOM415 CHALFONTE DR                        000N        CARE OF             
MTR08543600001000000000000000RA              36698932    005800690000006900000520000003NN  NNW 000                       N    
RDG08543600WATRL000000004K00000000000003185009702032015115602N000000000000N86       000470400K 10000000010000003164           
CUS0854360000108016541008         TRACY SUSAN P       417 CHALFONTE DR                        000N        CARE OF             
MTR08543600001000000000000000RA              29682833    005800700000007000000520000003NN  NNW 000                       N    
RDG08543600WATRL000000004K00000000000003139009502032015115445N000000000000N86       000360400K 10000000010000003130           
CUS0854360000108016542006         WIEGMANN DENIS G    419 CHALFONTE DR                        000N        CARE OF             
MTR08543600001000000000000000RA              41076065    005800710000007100000520000003NN  NNW 000                       N    
RDG08543600WATRL000000004K00000000000003307009302032015115316N000000000000N86       000500400K 10000000010000003261           
CUS0854360000108016543004         BOCKMILLER ROBERT R 421 CHALFONTE DR                        000N        CARE OF             
MTR08543600001000000000000000RA              01108585    005800720000007200000610000003NN  NNW 000                       N    
RDG08543600WATRL000000004K00000000000001065009202032015115226N000000000000N86       000480400K 10000000010000001040           
CUS0854360000108016544002         ANTHONY SIMS        423 CHALFONTE DR                        000N        CARE OF             
MTR08543600001000000000000000RA              01082330    005800730000007300000610000003NN  NNW 000                       N    
RDG08543600WATRL000000004K00000000000000605009102032015115138N000000000000N86       000370400K 10000000010000000587           
CUS0854360000108016545009         BATEMAN LAUREN M    425 CHALFONTE DR                        000N        CARE OF             
MTR08543600001000000000000000RA              14915302    005800740000007400000310000003NN  NNW 000                       N    
RDG08543600WATRL000000004K00000000000000606008902032015115025N000000000000N86       000440400K 10000000010000000591           
CUS0854360000108016546007         JAMES H BOSCOE      427 CHALFONTE DR                        000N        CARE OF             
MTR08543600001000000000000000RA              41076069    005800750000007500000520000003NN  NNW 000                       N    
RDG08543600WATRL000000004K00000000000002801008702032015114849N000000000000N86       000660400K 10000000010000002790           
CUS0854360000108016547005         COWGER JOHN P       429 CHALFONTE DR                        000N        CARE OF             
MTR08543600001000000000000000RA              41076121    005800760000007600000520000003NN  NNW 000                       N    
RDG08543600WATRL000000004K00000000000002324008502032015114659N000000000000N86       000520400K 10000000010000002308           
CUS0854360000108016548003         BOCHMANN DANIEL S   431 CHALFONTE DR                        000N        CARE OF             
MTR08543600001000000000000000RA              45385652    005800770000007700000520000003NN  NNW 000                       N    
RDG08543600WATRL000000004K00000000000002450008202032015114503N000000000000N86       000350400K 10000000010000002431           
CUS0854360000108016549001         SCHNEEMAN WILLIAM K 433 CHALFONTE DR                        000N        CARE OF             
MTR08543600001000000000000000RA              00132782    005800780000007800000570000003NN  NNW 000                       N    
RDG08543600WATRL000000004K00000000000000863007902032015114321N000000000000N86       000310400K 10000000010000000858           
CUS0854360000108016550009         MURROW JOHN R       435 CHALFONTE DR                        000N        CARE OF             
MTR08543600001000000000000000RA              24765912    005800790000007900000520000003NN  NNW 000                       N    
RDG08543600WATRL000000004K00000000000005704007802032015114250N000000000000N86       000560400K 10000000010000005669           
CUS0854360000108016551007         BRADY MATTHEW       437 CHALFONTE DR                        000N        CARE OF             
MTR08543600001000000000000000RA              01113944    005800800000008000000610000003NN  NNW 000                       N    
RDG08543600WATRL000000004K00000000000000553007102032015113801N000000000000N86       000840400K 10000000010000000535           
CUS0854360000108016552005         PAYNE JAMES L       439 CHALFONTE DR                        000N        CARE OF             
MTR08543600001000000000000000RA              30527890    005800810000008100000520000003NY  NNW 000                       N    
MTM0854360030527890    BURIED                                                                                                 
RDG08543600WATRL000000004K00000000000000000000000000000000000 000000000000U         000000400  10000000010000005251           
CUS0854360000108016553003         MUND WILLIAM S,JR   441 CHALFONTE DR                        000N        CARE OF             
MTR08543600001000000000000000RA              41076789    005800820000008200000520000003NN  NNW 000                       N    
RDG08543600WATRL000000004K00000000000000871006802032015113458N000000000000N86       000410400K 10000000010000000867           
CUS0854360000108016554001         ARMBRUSTER MARK DAVI443 CHALFONTE DR                        000N        CARE OF             
