FHDNNNN040009041009041009041N                                                                                           027319
RHD04742000NN02910291000002910000000002910291000213NY029102910291000000000000000000000000000001    01222015NY020000 N         
CUS0474200000104130560008         GOLDMAN SOL         6411 YORK RD                            000N        CARE OF             
MTR04742000001000000000000000RA              50000242    000100010000000100000570000003NN  NNW 000                       N    
RDG04742000WATRL000000004K00000000000000583000102062015080551N000000000000N40       000000400K 10000000010000000568           
CUS0474200000104130561006         KELLY DONALD EDWARD 505 WINDWOOD RD                         000N        CARE OF             
MTR04742000001000000000000000RA              14924472    005800020000000200000310000003NN  NNW 000                       N    
RDG04742000WATRL000000004K00000000000002072000202062015080648N000400000010N40       000570400K 10000000010000002064           
CUS0474200000104130562004         HEILAND BARBARA L   507 WINDWOOD RD                         000N        CARE OF             
MTR04742000001000000000000000RA              46878683    005800030000000300000520000003NN  NNW 000                       N    
RDG04742000WATRL000000004K00000000000003016000302062015080719N000000000000N40       000310400K 10000000010000002969           
CUS0474200000104130563002         VANIK THOMAS P,JR   509 WINDWOOD RD                         000N        CARE OF             
MTR04742000001000000000000000RA              27266438    005800040000000400000520000003NN  NNW 000                       N    
RDG04742000WATRL000000004K00000000000002081000402062015080743N000000000000N40       000240400K 10000000010000002073           
CUS0474200000104130564000         ANTHON G WILLIAM    511 WINDWOOD RD                         000N        CARE OF             
MTR04742000001000000000000000RA              35104211    005800050000000500000520000003NN  NNW 000                       N    
RDG04742000WATRL000000004K00000000000003006000502062015080806N000100000010N40       000230400K 10000000010000003006           
CUS0474200000104130565007         RYAN SMITH          513 WINDWOOD RD                         000N        CARE OF             
MTR04742000001000000000000000RA              35110409    005800060000000600000520000003NN  NNW 000                       N    
RDG04742000WATRL000000004K00000000000001457000602062015080841N000000000000N40       000350400K 10000000010000001438           
CUS0474200000104130566005         JOSEPH CHESTER M    515 WINDWOOD RD                         000N        CARE OF             
MTR04742000001000000000000000RA              39289527    005800070000000700000520000003NN  NNW 000                       N    
RDG04742000WATRL000000004K00000000000003391000702062015080934N000000000000N40       000530400K 10000000010000003380           
CUS0474200000104130567003         GUMABON ALMARIO L   517 WINDWOOD RD                         000N        CARE OF             
MTR04742000001000000000000000RA              11331777    005800080000000800000570000003NN  NNW 000                       N    
RDG04742000WATRL000000004K00000000000003869000802062015080959N000000000000N40       000250400K 10000000010000003849           
CUS0474200000104130568001         GRANDSIRE JAMES     519 WINDWOOD RD                         000N        CARE OF             
MTR04742000001000000000000000RA              14920292    005800090000000900000310000003NN  NNW 000                       N    
RDG04742000WATRL000000004K00000000000000855000902062015081035N000000000000N40       000360400K 10000000010000000832           
CUS0474200000104130569009         GOODING IRA E       521 WINDWOOD RD                         000N        CARE OF             
MTR04742000001000000000000000RA              33735663    005800100000001000000520000003NN  NNW 000                       N    
RDG04742000WATRL000000004K00000000000004147001002062015081109N000000000000N40       000340400K 10000000010000004124           
CUS0474200000104130570007         DELLHEIM HELEN L    523 WINDWOOD RD                         000N        CARE OF             
MTR04742000001000000000000000RA              29680526    005800110000001100000520000003NN  NNW 000                       N    
RDG04742000WATRL000000004K00000000000003610001102062015081146N000000000000N40       000370400K 10000000010000003600           
CUS0474200000104130571005         KASPER D. HANSON    525 WINDWOOD RD                         000N        CARE OF             
MTR04742000001000000000000000RA              01101781    005800120000001200000610000003NN  NNW 000                       N    
RDG04742000WATRL000000004K00000000000001096001202062015081259N000000000040N40       000730400K 10000000010000001084           
CUS0474200000104130572003         HECKER JOY          527 WINDWOOD RD                         000N        CARE OF             
MTR04742000001000000000000000RA              00127404    005800130000001300000570000003NN  NNW 000                       N    
RDG04742000WATRL000000004K00000000000000780001302062015081341N000000000000N40       000420400K 10000000010000000766           
CUS0474200000104130573001         LOPEZ LISA          529 WINDWOOD RD                         000N        CARE OF             
MTR04742000001000000000000000RA              32904281    005800140000001400000520000003NN  NNW 000                       N    
RDG04742000WATRL000000004K00000000000002595001402062015081527N000000000000N40       001060400K 10000000010000002572           
CUS0474200000104130574009         AHERNS FRANCES E    531 WINDWOOD RD                         000N        CARE OF             
MTR04742000001000000000000000RA              01094624    005800150000001500000610000003NN  NNW 000                       N    
RDG04742000WATRL000000004K00000000000000718001502062015081624N000000000000N40       000570400K 10000000010000000710           
CUS0474200000104130575006         RIST GEORGE D JR    601 WINDWOOD RD                         000N        CARE OF             
MTR04742000001000000000000000RA              29403421    005800160000001600000520000003NN  NNW 000                       N    
RDG04742000WATRL000000004K00000000000002664001602062015081714N000000000000N40       000500400K 10000000010000002644           
CUS0474200000104130576004         SAMUEL PAUL HOFFBERG603 WINDWOOD RD                         000N        CARE OF             
MTR04742000001000000000000000RA              22862034    005800170000001700000520000003NN  NNW 000                       N    
RDG04742000WATRL000000004K00000000000002887001702062015081803N000000000000N40       000490400K 10000000010000002871           
CUS0474200000104130577002         BECK SCOTT A        605 WINDWOOD RD                         000N        CARE OF             
MTR04742000001000000000000000RA              45379903    005800180000001800000520000003NN  NNW 000                       N    
RDG04742000WATRL000000004K00000000000001784001802062015081911N000000000000N40       000680400K 10000000010000001758           
CUS0474200000104130578000         PAGE GLENN G        616 WINDWOOD RD                         000N        CARE OF             
MTR04742000001000000000000000RA              29082494    005800190000001900000520000003NN  NNW 000                       N    
RDG04742000WATRL000000004K00000000000005231001902062015082056N000000000000N40       001050400K 10000000010000005205           
CUS0474200000104130579008         NOLAN J DANIEL,JR   614 WINDWOOD RD                         000N        CARE OF             
MTR04742000001000000000000000RA              00127575    005800200000002000000570000003NN  NNW 000                       N    
RDG04742000WATRL000000004K00000000000000907002002062015082213N000000000000N40       000770400K 10000000010000000892           
CUS0474200000104130580006         MARKIEWICZ LISA M   612 WINDWOOD RD                         000N        CARE OF             
MTR04742000001000000000000000RA              9686112     005800210000002100000570000003NN  NNW 000                       N    
RDG04742000WATRL000000004K00000000000004868002102062015082302N000000000000N40       000490400K 10000000010000004855           
CUS0474200000104130581004         KOBIN KEITH I       610 WINDWOOD RD                         000N        CARE OF             
MTR04742000001000000000000000RA              00127573    005800220000002200000570000003NN  NNW 000                       N    
RDG04742000WATRL000000004K00000000000000775002202062015082349N000000000000N40       000470400K 10000000010000000760           
CUS0474200000104130582002         DIETER J JAMES      608 WINDWOOD RD                         000N        CARE OF             
MTR04742000001000000000000000RA              24227328    005800230000002300000520000003NN  NNW 000                       N    
RDG04742000WATRL000000004K00000000000004245002302062015082504N000400000010N40       000750400K 10000000010000004239           
CUS0474200000104130583000         RIGGS JAMES M       606 WINDWOOD RD                         000N        CARE OF             
MTR04742000001000000000000000RA              00127571    005800240000002400000570000003NN  NNW 000                       N    
RDG04742000WATRL000000004K00000000000001169002402062015082622N000000000000N40       000780400K 10000000010000001139           
CUS0474200000104130584008         WALLACE W EUGENE    604 WINDWOOD RD                         000N        CARE OF             
MTR04742000001000000000000000RA              39289557    005800250000002500000520000003NN  NNW 000                       N    
RDG04742000WATRL000000004K00000000000002227002502062015082656N000000000000N40       000340400K 10000000010000002212           
CUS0474200000104130585005         HAWKS BARBARA       602 WINDWOOD RD                         000N        CARE OF             
MTR04742000001000000000000000RA              40320845    005800260000002600000520000003NN  NNW 000                       N    
RDG04742000WATRL000000004K00000000000001132002602062015082738N000000000000N40       000420400K 10000000010000001127           
CUS0474200000104130586003         TERRILL PAUL        600 WINDWOOD RD                         000N        CARE OF             
MTR04742000001000000000000000RA              14903388    005800270000002700000310000003NN  NNW 000                       N    
RDG04742000WATRL000000004K00000000000000830002702062015082836N000000000000N40       000580400K 10000000010000000815           
CUS0474200000104130587001         KIZER BLAKE J       532 WINDWOOD RD                         000N        CARE OF             
MTR04742000001000000000000000RA              26007246    005800280000002800000520000003NN  NNW 000                       N    
RDG04742000WATRL000000004K00000000000002768002802062015082956N000000000000N40       000800400K 10000000010000002750           
CUS0474200000104130588009         VAN DE WILLE HUGO H 530 WINDWOOD RD                         000N        CARE OF             
MTR04742000001000000000000000RA              44091029    005800290000002900000520000003NN  NNW 000                       N    
RDG04742000WATRL000000004K00000000000005606002902062015083038N000000000000N40       000420400K 10000000010000005597           
CUS0474200000104130589007         EDEN SEAN M         528 WINDWOOD RD                         000N        CARE OF             
MTR04742000001000000000000000RA              30525456    005800300000003000000520000003NN  NNW 000                       N    
RDG04742000WATRL000000004K00000000000002748003002062015083120N000000000000N40       000420400K 10000000010000002728           
CUS0474200000104130590005         RICHARDSON CHARLES E526 WINDWOOD RD                         000N        CARE OF             
MTR04742000001000000000000000RA              36688804    005800310000003100000520000003NN  NNW 000                       N    
RDG04742000WATRL000000004K00000000000003121003102062015083201N000000000000N40       000410400K 10000000010000003093           
CUS0474200000104130591003         JOSEPH ITERNY       524 WINDWOOD RD                         000N        CARE OF             
MTR04742000001000000000000000RA              10000977    005800320000003200000570000003NN  NNW 000                       N    
RDG04742000WATRL000000004K00000000000000552003202062015083309N000000000000N40       000680400K 10000000010000000534           
CUS0474200000104130592001         AMY M WALDRUP       522 WINDWOOD RD                         000N        CARE OF             
MTR04742000001000000000000000RA              36697406    005800330000003300000520000003NN  NNW 000                       N    
RDG04742000WATRL000000004K00000000000002171003302062015083346N000000000000N40       000370400K 10000000010000002140           
CUS0474200000104130593009         CHRISMER STEPHEN P  520 WINDWOOD RD                         000N        CARE OF             
MTR04742000001000000000000000RA              23646054    005800340000003400000520000003NN  NNW 000                       N    
RDG04742000WATRL000000004K00000000000002695003402062015083454N000000000000N40       000680400K 10000000010000002685           
CUS0474200000104130594007         VENANZI ROBERT L    518 WINDWOOD RD                         000N        CARE OF             
MTR04742000001000000000000000RA              36691192    005800350000003500000520000003NN  NNW 000                       N    
RDG04742000WATRL000000004K00000000000004425003502062015083538N000000000000N40       000440400K 10000000010000004410           
CUS0474200000104130595004         WEN HUI FANG        516 WINDWOOD RD                         000N        CARE OF             
MTR04742000001000000000000000RA              32177632    005800360000003600000520000003NN  NNW 000                       N    
RDG04742000WATRL000000004K00000000000004255003602062015083622N000000000000N40       000440400K 10000000010000004228           
CUS0474200000104130596002         ACKERMAN BRYAN      514 WINDWOOD RD                         000N        CARE OF             
MTR04742000001000000000000000RA              01085652    005800370000003700000610000003NN  NNW 000                       N    
RDG04742000WATRL000000004K00000000000000639003702062015083652N000000000000N40       000300400K 10000000010000000617           
CUS0474200000104130597000         STRONG MARK J       512 WINDWOOD RD                         000N        CARE OF             
MTR04742000001000000000000000RA              01085101    005800380000003800000610000003NN  NNW 000                       N    
RDG04742000WATRL000000004K00000000000000837003802062015083751N000000000000N40       000590400K 10000000010000000825           
CUS0474200000104130598008         CARR-SPICCIOLI SUSAN510 WINDWOOD RD                         000N        CARE OF             
MTR04742000001000000000000000RA              14920293    005800390000003900000310000003NN  NNW 000                       N    
RDG04742000WATRL000000004K00000000000001078003902062015083832N000000000000N40       000410400K 10000000010000001048           
CUS0474200000104130599006         PACE ROBERT C       508 WINDWOOD RD                         000N        CARE OF             
MTR04742000001000000000000000RA              01094879    005800400000004000000610000003NN  NNW 000                       N    
RDG04742000WATRL000000004K00000000000001322004002062015083913N000000000000N40       000410400K 10000000010000001302           
CUS0474200000104130600002         SWAUGER CARLA JEAN  506 WINDWOOD RD                         000N        CARE OF             
MTR04742000001000000000000000RA              26007206    005800410000004100000520000003NN  NNW 000                       N    
RDG04742000WATRL000000004K00000000000003765004102062015084013N000000000000N40       000600400K 10000000010000003743           
CUS0474200000104130601000         MILLER JAMES J      504 WINDWOOD RD                         000N        CARE OF             
MTR04742000001000000000000000RA              48590096    005800420000004200000520000003NN  NNW 000                       N    
RDG04742000WATRL000000004K00000000000001588004202062015084053N000000000000N40       000400400K 10000000010000001564           
CUS0474200000104130602008         PANNEBECKER JAMES S 501 OVERBROOK RD                        000N        CARE OF             
MTR04742000001000000000000000RA              24772596    005800430000004300000520000003NN  NNW 000                       N    
RDG04742000WATRL000000004K00000000000002459004302062015084402N000000000010N40       001890400K 10000000010000002446           
CUS0474200000104130603006         STINS MONIQUE       503 OVERBROOK RD                        000N        CARE OF             
MTR04742000001000000000000000RA              54350807    005800440000004400000520000003NN  NNW 000                       N    
RDG04742000WATRL000000004K00000000000000867004402062015084437N000000000000N40       000350400K 10000000010000000846           
CUS0474200000104130604004         STALLARD JOHN W     505 OVERBROOK RD                        000N        CARE OF             
MTR04742000001000000000000000RA              19460084    005800450000004500000520000003NN  NNW 000                       N    
RDG04742000WATRL000000004K00000000000004532004502062015084527N000000000000N40       000500400K 10000000010000004523           
CUS0474200000104130605001         SCHNEITZINGER HARRY 507 OVERBROOK RD                        000N        CARE OF             
MTR04742000001000000000000000RA              54350972    005800460000004600000520000003NN  NNW 000                       N    
RDG04742000WATRL000000004K00000000000002419004602062015084601N000000000000N40       000340400K 10000000010000002381           
CUS0474200000104130606009         WAGNER CAROL A      509 OVERBROOK RD                        000N        CARE OF             
MTR04742000001000000000000000RA              26001260    005800470000004700000520000003NN  NNW 000                       N    
RDG04742000WATRL000000004K00000000000003468004702062015084655N000400000010N40       000540400K 10000000010000003459           
CUS0474200000104130607007         CONOR P CREANEY     511 OVERBROOK RD                        000N        CARE OF             
MTR04742000001000000000000000RA              31926366    005800480000004800000520000003NN  NNW 000                       N    
RDG04742000WATRL000000004K00000000000002266004802062015084744N000000000000N40       000490400K 10000000010000002256           
CUS0474200000104130608005         EISENBERG CHRISTOPHE513 OVERBROOK RD                        000N        CARE OF             
MTR04742000001000000000000000RA              36691191    005800490000004900000520000003NN  NNW 000                       N    
RDG04742000WATRL000000004K00000000000003663004902062015084806N000000000000N40       000220400K 10000000010000003645           
CUS0474200000104130609003         KLIMA JEFFREY M     515 OVERBROOK RD                        000N        CARE OF             
MTR04742000001000000000000000RA              54350970    005800500000005000000520000003NN  NNW 000                       N    
RDG04742000WATRL000000004K00000000000001351005002062015084852N000000000000N40       000460400K 10000000010000001324           
CUS0474200000104130610001         MARTIGNETTI DAVID P 517 OVERBROOK RD                        000N        CARE OF             
MTR04742000001000000000000000RA              00127577    005800510000005100000570000003NN  NNW 000                       N    
RDG04742000WATRL000000004K00000000000001769005102062015085016N000000000030N40       000840400K 10000000010000001753           
CUS0474200000104130611009         BAILEY MICHAEL      519 OVERBROOK RD                        000N        CARE OF             
MTR04742000001000000000000000RA              22862167    005800520000005200000520000003NN  NNW 000                       N    
RDG04742000WATRL000000004K00000000000004132005202062015085044N000000000000N40       000280400K 10000000010000004123           
CUS0474200000104130612007         SENULA MARK G       521 OVERBROOK RD                        000N        CARE OF             
MTR04742000001000000000000000RA              22609577    005800530000005300000520000003NN  NNW 000                       N    
RDG04742000WATRL000000004K00000000000003841005302062015085128N000000000010N40       000440400K 10000000010000003829           
CUS0474200000104130613005         MARTIN MICHAEL A    523 OVERBROOK RD                        000N        CARE OF             
MTR04742000001000000000000000RA              31586400    005800540000005400000520000003NN  NNW 000                       N    
RDG04742000WATRL000000004K00000000000003995005402062015085157N000000000000N40       000290400K 10000000010000003976           
CUS0474200000104130614003         KLINE FREDERICK P   525 OVERBROOK RD                        000N        CARE OF             
MTR04742000001000000000000000RA              23644967    005800550000005500000520000003NN  NNW 000                       N    
RDG04742000WATRL000000004K00000000000002210005502062015085249N000300000010N40       000520400K 10000000010000003183           
CUS0474200000104130615000         ESDERS BRIAN G      527 OVERBROOK RD                        000N        CARE OF             
MTR04742000001000000000000000RA              41588975    005800560000005600000520000003NN  NNW 000                       N    
RDG04742000WATRL000000004K00000000000002521005602062015085335N000000000000N40       000460400K 10000000010000002504           
CUS0474200000104130616008         JACKS GRANT L,3RD   529 OVERBROOK RD                        000N        CARE OF             
MTR04742000001000000000000000RA              22609585    005800570000005700000520000003NN  NNW 000                       N    
RDG04742000WATRL000000004K00000000000003180005702062015085431N000400000010N40       000560400K 10000000010000003177           
CUS0474200000104130617006         BROWN GERALD R JR   531 OVERBROOK RD                        000N        CARE OF             
MTR04742000001000000000000000RA              22862165    005800580000005800000520000003NN  NNW 000                       N    
RDG04742000WATRL000000004K00000000000002891005802062015085536N000000000000N40       000650400K 10000000010000002880           
CUS0474200000104130618004         PECOT CHARLES M,JR  533 OVERBROOK RD                        000N        CARE OF             
MTR04742000001000000000000000RA              00127576    005800590000005900000570000003NN  NNW 000                       N    
RDG04742000WATRL000000004K00000000000001827005902062015085627N000000000000N40       000510400K 10000000010000001798           
CUS0474200000104130619002         UGARTE RICHARD M    601 OVERBROOK RD                        000N        CARE OF             
MTR04742000001000000000000000RA              35114807    005800600000006000000520000003NN  NNW 000                       N    
RDG04742000WATRL000000004K00000000000002500006002062015085729N000000000000N40       000620400K 10000000010000002488           
CUS0474200000104130620000         GREENE SEAN JAMES   603 OVERBROOK RD                        000N        CARE OF             
MTR04742000001000000000000000RA              50790052    005800610000006100000520000003NN  NNW 000                       N    
RDG04742000WATRL000000004K00000000000001425006102062015085807N000000000000N40       000380400K 10000000010000001409           
CUS0474200000104130621008         DEPANFILIS DUSTIN J 605 OVERBROOK RD                        000N        CARE OF             
MTR04742000001000000000000000RA              42810928    005800620000006200000520000003NN  NNW 000                       N    
RDG04742000WATRL000000004K00000000000002901006202062015085835N000000000000N40       000280400K 10000000010000002880           
CUS0474200000104130622006         DURGIN DANIEL P     607 OVERBROOK RD                        000N        CARE OF             
MTR04742000001000000000000000RA              50788689    005800630000006300000520000003NN  NNW 000                       N    
RDG04742000WATRL000000004K00000000000001490006302062015085903N000000000000N40       000280400K 10000000010000001455           
CUS0474200000104130623004         SWARTZ PETER G      609 OVERBROOK RD                        000N        CARE OF             
MTR04742000001000000000000000RA              00127572    005800640000006400000570000003NN  NNW 000                       N    
RDG04742000WATRL000000004K00000000000001731006402062015085936N000000000000N40       000330400K 10000000010000001720           
CUS0474200000104130624002         WYATT EVE DESAUNIER 611 OVERBROOK RD                        000N        CARE OF             
MTR04742000001000000000000000RA              22862035    005800650000006500000520000003NN  NNW 000                       N    
RDG04742000WATRL000000004K00000000000002055006502062015085955N000000000000N40       000190400K 10000000010000002048           
CUS0474200000104130625009         SIMON JAKUB K       613 OVERBROOK RD                        000N        CARE OF             
MTR04742000001000000000000000RA              00127574    005800660000006600000570000003NN  NNW 000                       N    
RDG04742000WATRL000000004K00000000000000826006602062015090109N000000000000N40       000740400K 10000000010000000802           
CUS0474200000104130626007         BUTCHER KENNETH J   615 OVERBROOK RD                        000N        CARE OF             
MTR04742000001000000000000000RA              44002737    005800670000006700000520000003NN  NNW 000                       N    
RDG04742000WATRL000000004K00000000000001226006702062015090138N000000000000N40       000290400K 10000000010000001213           
CUS0474200000104130627005         WEEKS DWAYNE E      617 OVERBROOK RD                        000N        CARE OF             
MTR04742000001000000000000000RA              45389262    007500680000006800000520000003NN  NNW 000                       N    
RDG04742000WATRL000000004K00000000000001570006802062015090216N000000000000N40       000380400K 10000000010000001556           
CUS0474200000104130628003         RYAN JAMES W        619 OVERBROOK RD                        000N        CARE OF             
MTR04742000001000000000000000RA              29683773    005800690000006900000520000003NN  NNW 000                       N    
RDG04742000WATRL000000004K00000000000003405006902062015090249N000000000000N40       000330400K 10000000010000003375           
CUS0474200000104130629001         NASH ROBERT ANDREW  621 OVERBROOK RD                        000N        CARE OF             
MTR04742000001000000000000000RA              24757075    005800700000007000000520000003NN  NNW 000                       N    
RDG04742000WATRL000000004K00000000000004372007002062015090404N000000000000N40       000750400K 10000000010000004341           
CUS0474200000104130630009         VOGEL SCOTT R       623 OVERBROOK RD                        000N        CARE OF             
MTR04742000001000000000000000RA              26001368    005800710000007100000520000003NN  NNW 000                       N    
RDG04742000WATRL000000004K00000000000003574007102062015090456N000000000000N40       000520400K 10000000010000003541           
CUS0474200000104130631007         PYNE MELANIE CROSS  625 OVERBROOK RD                        000N        CARE OF             
MTR04742000001000000000000000RA              54350692    005800720000007200000520000003NN  NNW 000                       N    
RDG04742000WATRL000000004K00000000000001376007202062015090537N000000000000N40       000410400K 10000000010000001353           
CUS0474200000104130632005         MCCARTHY CHARLES C  627 OVERBROOK RD                        000N        CARE OF             
MTR04742000001000000000000000RA              10008900    005800730000007300000570000003NN  NNW 000                       N    
RDG04742000WATRL000000004K00000000000000997007302062015090624N000000000000N40       000470400K 10000000010000000982           
CUS0474200000104130633003         STAVELY JEFFREY M   629 OVERBROOK RD                        000N        CARE OF             
MTR04742000001000000000000000RA              11336517    005800740000007400000570000003NN  NNW 000                       N    
RDG04742000WATRL000000004K00000000000004609007402062015090713N000000000000N40       000490400K 10000000010000004593           
CUS0474200000104130634001         STAHL ROBERT E      631 OVERBROOK RD                        000N        CARE OF             
MTR04742000001000000000000000RA              40047499    005800750000007500000520000003NN  NNW 000                       N    
RDG04742000WATRL000000004K00000000000002444007502062015090803N000000000000N40       000500400K 10000000010000002435           
CUS0474200000104130635008         DAVID M NOZINSKI M  633 OVERBROOK RD                        000N        CARE OF             
MTR04742000001000000000000000RA              01094494    005800760000007600000610000003NN  NNW 000                       N    
RDG04742000WATRL000000004K00000000000000984007602062015090834N000000000000N40       000310400K 10000000010000000955           
CUS0474200000104130636006         HEUSSNER JANET M    635 OVERBROOK RD                        000N        CARE OF             
MTR04742000001000000000000000RA              50791315    005800770000007700000520000003NN  NNW 000                       N    
RDG04742000WATRL000000004K00000000000001208007702062015091011N000000000000N40       000970400K 10000000010000001195           
CUS0474200000104130637004         SALES PEDRO M       637 OVERBROOK RD                        000N        CARE OF             
MTR04742000001000000000000000RA              33735531    005800780000007800000520000003NN  NNW 000                       N    
RDG04742000WATRL000000004K00000000000001900007802062015091050N000000000000N40       000390400K 10000000010000001890           
CUS0474200000104130638002         SCHILLER DONALD H   639 OVERBROOK RD                        000N        CARE OF             
MTR04742000001000000000000000RA              30516663    005800790000007900000520000003NN  NNW 000                       N    
RDG04742000WATRL000000004K00000000000003567007902062015091125N000000000000N40       000350400K 10000000010000003542           
CUS0474200000104130639000         BARBEHENN RICHARD   701 OVERBROOK RD                        000N        CARE OF             
MTR04742000001000000000000000RA              35110425    005800800000008000000520000003NN  NNW 000                       N    
RDG04742000WATRL000000004K00000000000005404008002062015091231N000000000000N40       000660400K 10000000010000005384           
CUS0474200000104130640008         ANDERSON STEVEN P   703 OVERBROOK RD                        000N        CARE OF             
MTR04742000001000000000000000RA              22607705    005800810000008100000520000003NN  NNW 000                       N    
RDG04742000WATRL000000004K00000000000005214008102062015091319N000000000000N40       000480400K 10000000010000005200           
CUS0474200000104130641006         SCOTT MICHAEL K     705 OVERBROOK RD                        000N        CARE OF             
MTR04742000001000000000000000RA              32770740    005800820000008200000520000003NN  NNW 000                       N    
RDG04742000WATRL000000004K00000000000001873008202062015091431N000300000010N40       000720400K 10000000010000001822           
CUS0474200000104130642004         CONNOLLY HARRY J,JR 707 OVERBROOK RD                        000N        CARE OF             
MTR04742000001000000000000000RA              24773070    005800830000008300000520000003NN  NNW 000                       N    
RDG04742000WATRL000000004K00000000000004194008302062015091505N000000000000N40       000340400K 10000000010000004168           
CUS0474200000104130643002         EMERSON DWAYNE A    709 OVERBROOK RD                        000N        CARE OF             
MTR04742000001000000000000000RA              38886193    005800840000008400000520000003NN  NNW 000                       N    
RDG04742000WATRL000000004K00000000000001853008402062015091543N000000000000N40       000380400K 10000000010000001844           
CUS0474200000104130644000         B CLEMMENS/K CLEMMEN711 OVERBROOK RD                        000N        CARE OF             
MTR04742000001000000000000000RA              00127831    005800850000008500000570000003NN  NNW 000                       N    
RDG04742000WATRL000000004K00000000000001951008502062015091631N000000000000N40       000480400K 10000000010000001940           
CUS0474200000104130645007         DOROTHY SULLIVAN-BYR713 OVERBROOK RD                        000N        CARE OF             
MTR04742000001000000000000000RA              50788463    005800860000008600000520000003NN  NNW 000                       N    
RDG04742000WATRL000000004K00000000000001270008602062015091720N000000000000N40       000490400K 10000000010000001148           
CUS0474200000104130646005         MATSCHULAT STEPHEN M715 OVERBROOK RD                        000N        CARE OF             
MTR04742000001000000000000000RA              25781200    005800870000008700000520000003NN  NNW 000                       N    
RDG04742000WATRL000000004K00000000000004051008702062015091822N000000000010N40       000620400K 10000000010000004037           
CUS0474200000104130647003         MORRIS DANIEL T     721 OVERBROOK RD                        000N        CARE OF             
MTR04742000001000000000000000RA              35112942    007500880000008800000520000003NN  NNW 000                       N    
RDG04742000WATRL000000004K00000000000007628008802062015091906N000000000000N40       000440400K 10000000010000007606           
CUS0474200000104130648001         DANIEL J SULLIVAN   727 OVERBROOK RD                        000N        CARE OF             
MTR04742000001000000000000000RA              50790055    005800890000008900000520000003NN  NNW 000                       N    
RDG04742000WATRL000000004K00000000000001301008902062015092040N000000000000N40       000940400K 10000000010000001278           
CUS0474200000104130649009         HILL JOANNAH D      729 OVERBROOK RD                        000N        CARE OF             
MTR04742000001000000000000000RA              45381293    005800900000009000000520000003NN  NNW 000                       N    
RDG04742000WATRL000000004K00000000000001218009002062015092125N000000000000N40       000450400K 10000000010000001210           
CUS0474200000104130650007         DIMUCCI AUGUST AMBER731 OVERBROOK RD                        000N        CARE OF             
MTR04742000001000000000000000RA              35112114    005800910000009100000520000003NN  NNW 000                       N    
RDG04742000WATRL000000004K00000000000003068009102062015092210N000000000000N40       000450400K 10000000010000003045           
CUS0474200000104130651005         ROEHL KEITH E       733 OVERBROOK RD                        000N        CARE OF             
MTR04742000001000000000000000RA              75614265    005800920000009200000350000003NN  NNW 000                       N    
RDG04742000WATRL000000004K00000000000000246009202062015092247N000000000000N40       000370400K 10000000010000000210           
CUS0474200000104130652003         CRAIG EDWARD J,3RD  735 OVERBROOK RD                        000N        CARE OF             
MTR04742000001000000000000000RA              9987247     005800930000009300000570000003NN  NNW 000                       N    
RDG04742000WATRL000000004K00000000000004448009302062015092323N000000000000N40       000360400K 10000000010000004422           
CUS0474200000104130653001         GRAY MADELEINE      737 OVERBROOK RD                        000N        CARE OF             
MTR04742000001000000000000000RA              22607700    005800940000009400000520000003NN  NNW 000                       N    
RDG04742000WATRL000000004K00000000000001288009402062015092358N000000000000N40       000350400K 10000000010000001280           
CUS0474200000104130654009         HULL CRAIG C        739 OVERBROOK RD                        000N        CARE OF             
MTR04742000001000000000000000RA              25780118    005800950000009500000520000003NN  NNW 000                       N    
RDG04742000WATRL000000004K00000000000003476009502062015092437N000000000000N40       000390400K 10000000010000003459           
CUS0474200000104130655006         AMOS ROBERT J       741 OVERBROOK RD                        000N        CARE OF             
MTR04742000001000000000000000RA              41088339    005800960000009600000520000003NN  NNW 000                       N    
RDG04742000WATRL000000004K00000000000001887009602062015092508N000300000010N40       000310400K 10000000010000001878           
CUS0474200000104130656004         VAETH SUSAN J       754 OVERBROOK RD                        000N        CARE OF             
MTR04742000001000000000000000RA              9689597     005800970000009700000570000003NN  NNW 000                       N    
RDG04742000WATRL000000004K00000000000000155009702062015092636N000000000000N40       000880400K 10000000010000000144           
CUS0474200000104130657002         MILIO VANESSA ROSE  752 OVERBROOK RD                        000N        CARE OF             
MTR04742000001000000000000000RA              24234155    005800980000009800000520000003NN  NNW 000                       N    
RDG04742000WATRL000000004K00000000000003422009802062015092727N000000000000N40       000510400K 10000000010000003408           
CUS0474200000104130658000         KENDALL C NOHE      750 OVERBROOK RD                        000N        CARE OF             
MTR04742000001000000000000000RA              22607707    005800990000009900000520000003NN  NNW 000                       N    
RDG04742000WATRL000000004K00000000000001921009902062015092802N000000000000N40       000350400K 10000000010000001907           
CUS0474200000104130659008         SARGENT-TOMLINSON AM748 OVERBROOK RD                        000N        CARE OF             
MTR04742000001000000000000000RA              22862166    005801000000010000000520000003NN  NNW 000                       N    
RDG04742000WATRL000000004K00000000000003666010002062015092837N000400000010N40       000350400K 10000000010000003663           
CUS0474200000104130660006         SATTERFIELD ERIC STE746 OVERBROOK RD                        000N        CARE OF             
MTR04742000001000000000000000RA              45375106    005801010000010100000520000003NN  NNW 000                       N    
RDG04742000WATRL000000004K00000000000000544010102062015092911N000000000000N40       000340400K 10000000010000000538           
CUS0474200000104130661004         BAAKE LORRAINE M,TRU744 OVERBROOK RD                        000N        CARE OF             
MTR04742000001000000000000000RA              75616526    005801020000010200000350000003NN  NNW 000                       N    
RDG04742000WATRL000000004K00000000000000055010202062015092939N000000000000N40       000280400K 10000000010000000046           
CUS0474200000104130662002         ASHLEY HEATHER      742 OVERBROOK RD                        000N        CARE OF             
MTR04742000001000000000000000RA              00127756    005801030000010300000570000003NN  NNW 000                       N    
RDG04742000WATRL000000004K00000000000000660010302062015093007N000000000000N40       000280400K 10000000010000000649           
CUS0474200000104130663000         BYRD RICHARD D,3RD  740 OVERBROOK RD                        000N        CARE OF             
MTR04742000001000000000000000RA              23644262    005801040000010400000520000003NN  NNW 000                       N    
RDG04742000WATRL000000004K00000000000003496010402062015093036N000000000000N40       000290400K 10000000010000003490           
CUS0474200000104130664008         SLAYTON JOSEPH ALLEN738 OVERBROOK RD                        000N        CARE OF             
MTR04742000001000000000000000RA              00127757    005801050000010500000570000003NN  NNW 000                       N    
RDG04742000WATRL000000004K00000000000000253010502062015093104N000000000000N40       000280400K 10000000010000000250           
CUS0474200000104130665005         COX CHRISTOPHER RYAN736 OVERBROOK RD                        000N        CARE OF             
MTR04742000001000000000000000RA              00127448    005801060000010600000570000003NN  NNW 000                       N    
RDG04742000WATRL000000004K00000000000000703010602062015093136N000300000010N40       000320400K 10000000010000000692           
CUS0474200000104130666003         COFFIN JOHN ALBAN   734 OVERBROOK RD                        000N        CARE OF             
MTR04742000001000000000000000RA              22607714    005801070000010700000520000003NN  NNW 000                       N    
RDG04742000WATRL000000004K00000000000003473010702062015093214N000000000000N40       000380400K 10000000010000003462           
CUS0474200000104130667001         HOWE CHRISTOPHER M  730 OVERBROOK RD                        000N        CARE OF             
MTR04742000001000000000000000RA              01081874    005801080000010800000610000003NN  NNW 000                       N    
RDG04742000WATRL000000004K00000000000000744010802062015093309N000000000000N40       000550400K 10000000010000000733           
CUS0474200000104130668009         REED STEVEN         728 OVERBROOK RD                        000N        CARE OF             
MTR04742000001000000000000000RA              50790162    005801090000010900000520000003NN  NNW 000                       N    
RDG04742000WATRL000000004K00000000000000893010902062015093334N000000000000N40       000250400K 10000000010000000887           
CUS0474200000104130669007         CILIOTTA MARIO E    726 OVERBROOK RD                        000N        CARE OF             
MTR04742000001000000000000000RA              24769101    005801100000011000000520000003NN  NNW 000                       N    
RDG04742000WATRL000000004K00000000000004162011002062015093428N000000000000N40       000540400K 10000000010000004146           
CUS0474200000104130670005         HERBERT RANDALL W   724 OVERBROOK RD                        000N        CARE OF             
MTR04742000001000000000000000RA              9687411     005801110000011100000570000003NN  NNW 000                       N    
RDG04742000WATRL000000004K00000000000004858011102062015093503N000000000000N40       000350400K 10000000010000004858           
CUS0474200000104130671003         RODERT CHARLES/RIDIA722 OVERBROOK RD                        000N        CARE OF             
MTR04742000001000000000000000RA              26013853    005801120000011200000520000003NN  NNW 000                       N    
RDG04742000WATRL000000004K00000000000003492011202062015093558N000000000000N40       000550400K 10000000010000003472           
CUS0474200000104130672001         FREDDIE MAC         720 OVERBROOK RD                        000N        CARE OF             
MTR04742000001000000000000000RA              39923654    005801130000011300000520000003NN  NNW 000                       N    
RDG04742000WATRL000000004K00000000000003808011302062015093842N000000000010N40       001640400K 10000000010000003807           
CUS0474200000104130673009         URBAN-ZUKERBERG AARO718 OVERBROOK RD                        000N        CARE OF             
MTR04742000001000000000000000RA              36687200    005801140000011400000520000003NN  NNW 000                       N    
RDG04742000WATRL000000004K00000000000002552011402062015093939N000000000000N40       000570400K 10000000010000002541           
CUS0474200000104130674007         PYLE EMMA LE ETTA   716 OVERBROOK RD                        000N        CARE OF             
MTR04742000001000000000000000RA              38984087    005801150000011500000520000003NN  NNW 000                       N    
RDG04742000WATRL000000004K00000000000002142011502062015094002N000000000000N40       000230400K 10000000010000002128           
CUS0474200000104130675004         HANNA MARK W        714 OVERBROOK RD                        000N        CARE OF             
MTR04742000001000000000000000RA              41080731    005801160000011600000520000003NN  NNW 000                       N    
RDG04742000WATRL000000004K00000000000001950011602062015094035N000000000000N40       000330400K 10000000010000001935           
CUS0474200000104130676002         FEENEY DANIEL N     712 OVERBROOK RD                        000N        CARE OF             
MTR04742000001000000000000000RA              27213952    005801170000011700000520000003NN  NNW 000                       N    
RDG04742000WATRL000000004K00000000000003702011702062015094107N000000000000N40       000320400K 10000000010000003693           
CUS0474200000104130677000         GIULIANO JEANNE L   710 OVERBROOK RD                        000N        CARE OF             
MTR04742000001000000000000000RA              30516661    005801180000011800000520000003NN  NNW 000                       N    
RDG04742000WATRL000000004K00000000000005039011802062015094148N000000000000N40       000410400K 10000000010000005003           
CUS0474200000104130678008         SIMONIK JOSEPH R    708 OVERBROOK RD                        000N        CARE OF             
MTR04742000001000000000000000RA              38886067    005801190000011900000520000003NN  NNW 000                       N    
RDG04742000WATRL000000004K00000000000002737011902062015094226N000000000000N40       000380400K 10000000010000002715           
CUS0474200000104130679006         GEHRMAN JANET L     706 OVERBROOK RD                        000N        CARE OF             
MTR04742000001000000000000000RA              33077589    005801200000012000000520000003NN  NNW 000                       N    
RDG04742000WATRL000000004K00000000000001356012002062015094304N000300000010N40       000380400K 10000000010000001348           
CUS0474200000104130680004         KOSMELA FRANK S     704 OVERBROOK RD                        000N        CARE OF             
MTR04742000001000000000000000RA              26001429    005801210000012100000520000003NN  NNW 000                       N    
RDG04742000WATRL000000004K00000000000003539012102062015094344N000000000000N40       000400400K 10000000010000003516           
CUS0474200000104130681002         LAMB JAMES C        700 OVERBROOK RD                        000N        CARE OF             
MTR04742000001000000000000000RA              29404211    005801220000012200000520000003NN  NNW 000                       N    
RDG04742000WATRL000000004K00000000000001408012202062015094421N000000000000N40       000370400K 10000000010000001394           
CUS0474200000104130682000         SULLIVAN MICHAEL E  638 OVERBROOK RD                        000N        CARE OF             
MTR04742000001000000000000000RA              00127765    005801230000012300000570000003NN  NNW 000                       N    
RDG04742000WATRL000000004K00000000000000922012302062015094532N000000000000N40       000710400K 10000000010000000915           
CUS0474200000104130683008         CHARLES W BATTENFELD636 OVERBROOK RD                        000N        CARE OF             
MTR04742000001000000000000000RA              44090240    005801240000012400000520000003NN  NNW 000                       N    
RDG04742000WATRL000000004K00000000000001875012402062015094622N000000000000N40       000500400K 10000000010000001850           
CUS0474200000104130684006         ANUZIS DONATAS      634 OVERBROOK RD                        000N        CARE OF             
MTR04742000001000000000000000RA              44091060    005801250000012500000520000003NN  NNW 000                       N    
RDG04742000WATRL000000004K00000000000002336012502062015094716N000000000000N40       000540400K 10000000010000002316           
CUS0474200000104130685003         SHEINGATE ADAM      632 OVERBROOK RD                        000N        CARE OF             
MTR04742000001000000000000000RA              41088429    005801260000012600000520000003NN  NNW 000                       N    
RDG04742000WATRL000000004K00000000000001876012602062015094811N000000000000N40       000550400K 10000000010000001862           
CUS0474200000104130686001         LEWIS WILLIAM A     630 OVERBROOK RD                        000N        CARE OF             
MTR04742000001000000000000000RA              24771768    005801270000012700000520000003NN  NNW 000                       N    
RDG04742000WATRL000000004K00000000000003510012702062015094851N000000000000N40       000400400K 10000000010000003501           
CUS0474200000104130687009         FIGURA MARIE E,TRUST628 OVERBROOK RD                        000N        CARE OF             
MTR04742000001000000000000000RA              39584825    005801280000012800000520000003NN  NNW 000                       N    
RDG04742000WATRL000000004K00000000000002437012802062015094928N000000000000N40       000370400K 10000000010000002428           
CUS0474200000104130688007         MICHAEL E. COLLINS I626 OVERBROOK RD                        000N        CARE OF             
MTR04742000001000000000000000RA              00127763    005801290000012900000570000003NN  NNW 000                       N    
RDG04742000WATRL000000004K00000000000001762012902062015095011N000000000000N40       000430400K 10000000010000001735           
CUS0474200000104130689005         COOK CATHLEEN       624 OVERBROOK RD                        000N        CARE OF             
MTR04742000001000000000000000RA              2364812     005801300000013000000520000003NN  NNW 000                       N    
RDG04742000WATRL000000004K00000000000004559013002062015095045N000000000000N40       000340400K 10000000010000004545           
CUS0474200000104130690003         JARROD M WUNDERLICH 622 OVERBROOK RD                        000N        CARE OF             
MTR04742000001000000000000000RA              50786897    005801310000013100000520000003NN  NNW 000                       N    
RDG04742000WATRL000000004K00000000000001014013102062015095134N000000000000N40       000490400K 10000000010000001000           
CUS0474200000104130691001         COLOMBAT ANDRE      620 OVERBROOK RD                        000N        CARE OF             
MTR04742000001000000000000000RA              50788847    005801320000013200000520000003NN  NNW 000                       N    
RDG04742000WATRL000000004K00000000000001297013202062015095249N000000000000N40       000750400K 10000000010000001280           
CUS0474200000104130692009         BHATIA RAGHUVINDER P618 OVERBROOK RD                        000N        CARE OF             
MTR04742000001000000000000000RA              01071629    005801330000013300000610000003NN  NNW 000                       N    
RDG04742000WATRL000000004K00000000000001333013302062015095321N000000000000N40       000320400K 10000000010000001307           
CUS0474200000104130693007         CHAREN ARTHUR L     616 OVERBROOK RD                        000N        CARE OF             
MTR04742000001000000000000000RA              39289731    005801340000013400000520000003NN  NNW 000                       N    
RDG04742000WATRL000000004K00000000000003271013402062015095357N000000000000N40       000360400K 10000000010000003250           
CUS0474200000104130694005         FAUST PAUL D        614 OVERBROOK RD                        000N        CARE OF             
MTR04742000001000000000000000RA              14900929    005801350000013500000310000003NN  NNW 000                       N    
RDG04742000WATRL000000004K00000000000004465013502062015095427N000000000000N40       000300400K 10000000010000004444           
CUS0474200000104130695002         ADAM GOLDSTEIN      612 OVERBROOK RD                        000N        CARE OF             
MTR04742000001000000000000000RA              20968185    005801360000013600000520000003NN  NNW 000                       N    
RDG04742000WATRL000000004K00000000000004983013602062015095521N000000000000N40       000540400K 10000000010000004967           
CUS0474200000104130696000         GAVIN D LEHRL       610 OVERBROOK RD                        000N        CARE OF             
MTR04742000001000000000000000RA              30521989    005801370000013700000520000003NN  NNW 000                       N    
RDG04742000WATRL000000004K00000000000003002013702062015095600N000000000000N40       000390400K 10000000010000002996           
CUS0474200000104130697008         LIJOI CLAUDIO G     608 OVERBROOK RD                        000N        CARE OF             
MTR04742000001000000000000000RA              00127762    005801380000013800000570000003NN  NNW 000                       N    
RDG04742000WATRL000000004K00000000000000848013802062015095643N000000000000N40       000430400K 10000000010000000829           
CUS0474200000104130698006         PALMER BENJAMIN D   606 OVERBROOK RD                        000N        CARE OF             
MTR04742000001000000000000000RA              00127445    005801390000013900000570000003NN  NNW 000                       N    
RDG04742000WATRL000000004K00000000000001063013902062015095744N000000000000N40       000610400K 10000000010000001049           
CUS0474200000104130699004         BODNAR LAURA ELIZABE604 OVERBROOK RD                        000N        CARE OF             
MTR04742000001000000000000000RA              54350688    005801400000014000000520000003NN  NNW 000                       N    
RDG04742000WATRL000000004K00000000000000740014002062015095831N000000000000N40       000470400K 10000000010000000724           
CUS0474200000104130700000         CHANG COREY N       602 OVERBROOK RD                        000N        CARE OF             
MTR04742000001000000000000000RA              41588282    005801410000014100000520000003NN  NNW 000                       N    
RDG04742000WATRL000000004K00000000000002469014102062015095906N000000000000N40       000350400K 10000000010000002449           
CUS0474200000104130701008         VAN LIEROP ANTHONY  600 OVERBROOK RD                        000N        CARE OF             
MTR04742000001000000000000000RA              29681944    005801420000014200000520000003NN  NNW 000                       N    
RDG04742000WATRL000000004K00000000000003051014202062015095951N000000000000N40       000450400K 10000000010000003031           
CUS0474200000104130702006         PARKINSON ADRIENNE M532 OVERBROOK RD                        000N        CARE OF             
MTR04742000001000000000000000RA              50478399    005801430000014300000520000003NN  NNW 000                       N    
RDG04742000WATRL000000004K00000000000000379014302062015100039N000000000000N40       000480400K 10000000010000000371           
CUS0474200000104130703004         DAWSON JAMES W      530 OVERBROOK RD                        000N        CARE OF             
MTR04742000001000000000000000RA              30527617    005801440000014400000520000003NN  NNW 000                       N    
RDG04742000WATRL000000004K00000000000002420014402062015100111N000000000000N40       000320400K 10000000010000002397           
CUS0474200000104130704002         DUNCAN WALLACE B    528 OVERBROOK RD                        000N        CARE OF             
MTR04742000001000000000000000RA              11336518    005801450000014500000570000003NN  NNW 000                       N    
RDG04742000WATRL000000004K00000000000003260014502062015100146N000000000000N40       000350400K 10000000010000003252           
CUS0474200000104130705009         CHRYSANTHOU CHRYSANT526 OVERBROOK RD                        000N        CARE OF             
MTR04742000001000000000000000RA              24234695    005801460000014600000520000003NN  NNW 000                       N    
RDG04742000WATRL000000004K00000000000003363014602062015100218N000000000020N40       000320400K 10000000010000003352           
CUS0474200000104130706007         PANG RICH Y         524 OVERBROOK RD                        000N        CARE OF             
MTR04742000001000000000000000RA              45381295    005801470000014700000520000003NN  NNW 000                       N    
RDG04742000WATRL000000004K00000000000001893014702062015100255N000000000000N40       000370400K 10000000010000001878           
CUS0474200000104130707005         KLEIN ALISON P      522 OVERBROOK RD                        000N        CARE OF             
MTR04742000001000000000000000RA              33077411    005801480000014800000520000003NN  NNW 000                       N    
RDG04742000WATRL000000004K00000000000002774014802062015100332N000000000000N40       000370400K 10000000010000002758           
CUS0474200000104130708003         HURD ROBERT M       520 OVERBROOK RD                        000N        CARE OF             
MTR04742000001000000000000000RA              20968621    005801490000014900000520000003NN  NNW 000                       N    
RDG04742000WATRL000000004K00000000000004283014902062015100400N000000000000N40       000280400K 10000000010000004257           
CUS0474200000104130709001         SLOCUM CHRISTOPHER  518 OVERBROOK RD                        000N        CARE OF             
MTR04742000001000000000000000RA              44086315    005801500000015000000520000003NN  NNW 000                       N    
RDG04742000WATRL000000004K00000000000002600015002062015100441N000000000000N40       000410400K 10000000010000002582           
CUS0474200000104130710009         SASSANO MICHAEL, JR 516 OVERBROOK RD                        000N        CARE OF             
MTR04742000001000000000000000RA              44080313    005801510000015100000520000003NN  NNW 000                       N    
RDG04742000WATRL000000004K00000000000002407015102062015100519N000000000000N40       000380400K 10000000010000002386           
CUS0474200000104130711007         BASS WILLIAM H      514 OVERBROOK RD                        000N        CARE OF             
MTR04742000001000000000000000RA              40321339    005801520000015200000520000003NN  NNW 000                       N    
RDG04742000WATRL000000004K00000000000000877015202062015100605N000000000000N40       000460400K 10000000010000000865           
CUS0474200000104130712005         ONEILL ALAN P       512 OVERBROOK RD                        000N        CARE OF             
MTR04742000001000000000000000RA              19462350    005801530000015300000520000003NN  NNW 000                       N    
RDG04742000WATRL000000004K00000000000004517015302062015100640N000000000000N40       000350400K 10000000010000004499           
CUS0474200000104130713003         FLUHARTY CHARLES R  510 OVERBROOK RD                        000N        CARE OF             
MTR04742000001000000000000000RA              48595879    005801540000015400000520000003NN  NNW 000                       N    
RDG04742000WATRL000000004K00000000000001412015402062015100650N000100000010N40       000100400K 10000000010000001412           
CUS0474200000104130714001         BOICE KENDRA        508 OVERBROOK RD                        000N        CARE OF             
MTR04742000001000000000000000RA              32177634    005801550000015500000520000003NN  NNW 000                       N    
RDG04742000WATRL000000004K00000000000002434015502062015100714N000000000000N40       000240400K 10000000010000002411           
CUS0474200000104130715008         VAN VALKENBURG KEVIN506 OVERBROOK RD                        000N        CARE OF             
MTR04742000001000000000000000RA              45387044    005801560000015600000520000003NN  NNW 000                       N    
RDG04742000WATRL000000004K00000000000001337015602062015100731N000000000000N40       000170400K 10000000010000001323           
CUS0474200000104130716006         LOUGHLIN EDITH M    504 OVERBROOK RD                        000N        CARE OF             
MTR04742000001000000000000000RA              01102095    005801570000015700000610000003NN  NNW 000                       N    
RDG04742000WATRL000000004K00000000000001341015702062015100803N000000000000N40       000320400K 10000000010000001331           
CUS0474200000104130717004         TALBOTT JOHN MICHAEL502 OVERBROOK RD                        000N        CARE OF             
MTR04742000001000000000000000RA              23053491    005801580000015800000520000003NN  NNW 000                       N    
RDG04742000WATRL000000004K00000000000004479015802062015100838N000000000000N40       000350400K 10000000010000004463           
CUS0474200000104130718002         TRADER HUGH H,3RD   500 OVERBROOK RD                        000N        CARE OF             
MTR04742000001000000000000000RA              48593710    005801590000015900000520000003NN  NNW 000                       N    
RDG04742000WATRL000000004K00000000000001056015902062015100914N000000000000N40       000360400K 10000000010000001039           
CUS0474200000104130719000         6501 LUMBERJACK PROP6501 YORK RD                            000N        CARE OF             
MTR04742000001000000000000000RA              22609367    005801600000016000000520000003NN  NNW 000                       N    
RDG04742000WATRL000000004K00000000000003807016002062015101022N000300000010N40       000680400K 10000000010000003791           
CUS0474200000104130720008         SUCHY JOHN C        6503 YORK RD                            000N        CARE OF             
MTR04742000001000000000000000RA              46886228    005801610000016100000520000003NN  NNW 000                       N    
RDG04742000WATRL000000004K00000000000001106016102062015101109N000000000000N40       000470400K 10000000010000001102           
CUS0474200000104130721006         CERVENY ERVIN J     6505 YORK RD                            000N        CARE OF             
MTR04742000001000000000000000RA              28765561    007501620000016200000520000003NN  NNW 000                       N    
RDG04742000WATRL000000004K00000000000008161016202062015101147N000000000000N40       000380400K 10000000010000008152           
CUS0474200000104130722004         PINNACLE PROPERTIES 6507 YORK RD                            000N        CARE OF             
MTR04742000001000000000000000RA              39289726    005801630000016300000520000003NN  NNW 000                       N    
RDG04742000WATRL000000004K00000000000000965016302062015101221N000000000000N40       000340400K 10000000010000000960           
CUS0474200000104130723002         STOLARZ JOHN B      6509 YORK RD                            000N        CARE OF             
MTR04742000001000000000000000RA              33181129    007501640000016400000520000003NN  NNW 000                       N    
RDG04742000WATRL000000004K00000000000006528016402062015101316N000000000000N40       000550400K 10000000010000006488           
CUS0474200000104130335005         ANDRIONE THOMAS A   501 ANNESLIE RD                         000N        CARE OF             
MTR04742000001000000000000000RA              29679794    005801650000016500000520000003NN  NNW 000                       N    
RDG04742000WATRL000000004K00000000000002056016502062015101428N000000000000N40       000720400K 10000000010000002032           
CUS0474200000104130336003         KELLER STEVEN D     503 ANNESLIE RD                         000N        CARE OF             
MTR04742000001000000000000000RA              99187698    005801660000016600000570000003NN  NNW 000                       N    
RDG04742000WATRL000000004K00000000000001399016602062015101512N000000000000N40       000440400K 10000000010000001384           
CUS0474200000104130337001         SPRINGER ANNA       505 ANNESLIE RD                         000N        CARE OF             
MTR04742000001000000000000000RA              00127447    005801670000016700000570000003NN  NNW 000                       N    
RDG04742000WATRL000000004K00000000000000490016702062015101539N000000000000N40       000270400K 10000000010000000466           
CUS0474200000104130338009         CUMBIE JAMES E      507 ANNESLIE RD                         000N        CARE OF             
MTR04742000001000000000000000RA              22607785    005801680000016800000520000003NN  NNW 000                       N    
RDG04742000WATRL000000004K00000000000004099016802062015101642N000300000010N40       000630400K 10000000010000004108           
CUS0474200000104130339007         PAOLOCCI NAZARENO   509 ANNESLIE RD                         000N        CARE OF             
MTR04742000001000000000000000RA              40321468    005801690000016900000520000003NN  NNW 000                       N    
RDG04742000WATRL000000004K00000000000002217016902062015101723N000300000010N40       000410400K 10000000010000002208           
CUS0474200000104130340005         BEHRE NIKKI S       511 ANNESLIE RD                         000N        CARE OF             
MTR04742000001000000000000000RA              22607774    005801700000017000000520000003NN  NNW 000                       N    
RDG04742000WATRL000000004K00000000000001505017002062015101804N000000000000N40       000410400K 10000000010000001499           
CUS0474200000104130341003         FEENEY STEPHEN      513 ANNESLIE RD                         000N        CARE OF             
MTR04742000001000000000000000RA              29402569    005801710000017100000520000003NN  NNW 000                       N    
RDG04742000WATRL000000004K00000000000002675017102062015101839N000000000000N40       000350400K 10000000010000002659           
CUS0474200000104130342001         CUSACK MICHAEL J    515 ANNESLIE RD                         000N        CARE OF             
MTR04742000001000000000000000RA              78020945    005801720000017200000350000003NN  NNW 000                       N    
RDG04742000WATRL000000004K00000000000000026017202062015101859N000000000000N40       000200400K 10000000010000000003           
CUS0474200000104130343009         A 2 Z FIELD SERVICES517 ANNESLIE RD                         000N        CARE OF             
MTR04742000001000000000000000RA              99999999    005801730000017300000350000003NN  NNW 000                       N    
RDG04742000WATRL000000004K00000000000000600017302062015101936N000000000010N40       000370400K 10000000010000000599           
CUS0474200000104130344007         CALKINS JULIA B     519 ANNESLIE RD                         000N        CARE OF             
MTR04742000001000000000000000RA              54350685    005801740000017400000520000003NN  NNW 000                       N    
RDG04742000WATRL000000004K00000000000000936017402062015102102N000000000000N40       000860400K 10000000010000000927           
CUS0474200000104130345004         PARVIS MARY L       521 ANNESLIE RD                         000N        CARE OF             
MTR04742000001000000000000000RA              99187730    005801750000017500000570000003NN  NNW 000                       N    
RDG04742000WATRL000000004K00000000000000572017502062015102132N000000000000N40       000300400K 10000000010000000567           
CUS0474200000104130346002         RAY RICHARD L       523 ANNESLIE RD                         000N        CARE OF             
MTR04742000001000000000000000RA              22607928    005801760000017600000520000003NN  NNW 000                       N    
RDG04742000WATRL000000004K00000000000004534017602062015102206N000000000000N40       000340400K 10000000010000004518           
CUS0474200000104130347000         MEARS JONATHAN CHARL525 ANNESLIE RD                         000N        CARE OF             
MTR04742000001000000000000000RA              99187729    005801770000017700000570000003NN  NNW 000                       N    
RDG04742000WATRL000000004K00000000000001553017702062015102305N000000000000N40       000590400K 10000000010000001524           
CUS0474200000104130348008         GARVIN GREGORY H    527 ANNESLIE RD                         000N        CARE OF             
MTR04742000001000000000000000RA              33080835    005801780000017800000520000003NN  NNW 000                       N    
RDG04742000WATRL000000004K00000000000002924017802062015102355N000000000000N40       000500400K 10000000010000002891           
CUS0474200000104130349006         BACKER-MICELI MARY P529 ANNESLIE RD                         000N        CARE OF             
MTR04742000001000000000000000RA              36694264    005801790000017900000520000003NN  NNW 000                       N    
RDG04742000WATRL000000004K00000000000002455017902062015102440N000000000000N40       000450400K 10000000010000002439           
CUS0474200000104130350004         CERVENY ERWIN J     531 ANNESLIE RD                         000N        CARE OF             
MTR04742000001000000000000000RA              77989219    005801800000018000000350000003NN  NNW 000                       N    
RDG04742000WATRL000000004K00000000000000015018002062015102508N000000000000N40       000280400K 10000000010000000000           
CUS0474200000104130351002         KENNEDY GEORGE E,JR 533 ANNESLIE RD                         000N        CARE OF             
MTR04742000001000000000000000RA              36694384    005801810000018100000520000003NN  NNW 000                       N    
RDG04742000WATRL000000004K00000000000003386018102062015102601N000000000010N40       000530400K 10000000010000003374           
CUS0474200000104130352000         CONNOR JOHN J,JR    601 ANNESLIE RD                         000N        CARE OF             
MTR04742000001000000000000000RA              14910060    005801820000018200000310000003NN  NNW 000                       N    
RDG04742000WATRL000000004K00000000000000993018202062015102639N000000000000N40       000380400K 10000000010000000972           
CUS0474200000104130353008         MCKUSICK DONNA L D  603 ANNESLIE RD                         000N        CARE OF             
MTR04742000001000000000000000RA              31586490    005801830000018300000520000003NN  NNW 000                       N    
RDG04742000WATRL000000004K00000000000002737018302062015102706N000000000000N40       000270400K 10000000010000002712           
CUS0474200000104130354006         PREM CHARLENE M     605 ANNESLIE RD                         000N        CARE OF             
MTR04742000001000000000000000RA              24772960    005801840000018400000520000003NN  NNW 000                       N    
RDG04742000WATRL000000004K00000000000003122018402062015102739N000000000000N40       000330400K 10000000010000003093           
CUS0474200000104130355003         HAGGSTROM MARGARET  607 ANNESLIE RD                         000N        CARE OF             
MTR04742000001000000000000000RA              24772964    005801850000018500000520000003NN  NNW 000                       N    
RDG04742000WATRL000000004K00000000000003514018502062015102812N000000000000N40       000330400K 10000000010000003496           
CUS0474200000104130356001         AMBERG CYNTHIA      609 ANNESLIE RD                         000N        CARE OF             
MTR04742000001000000000000000RA              27814195    005801860000018600000520000003NN  NNW 000                       N    
RDG04742000WATRL000000004K00000000000002904018602062015102839N000000000000N40       000270400K 10000000010000002889           
CUS0474200000104130357009         CARLINER DIANE      611 ANNESLIE RD                         000N        CARE OF             
MTR04742000001000000000000000RA              26009638    005801870000018700000520000003NN  NNW 000                       N    
RDG04742000WATRL000000004K00000000000002023018702062015102943N000000000000N40       000640400K 10000000010000002014           
CUS0474200000104130358007         HUANG CHIN HSUAN SIE613 ANNESLIE RD                         000N        CARE OF             
MTR04742000001000000000000000RA              54350806    005801880000018800000520000003NN  NNW 000                       N    
RDG04742000WATRL000000004K00000000000001169018802062015103001N000000000000N40       000180400K 10000000010000001145           
CUS0474200000104130359005         BERGSTROM LISA      615 ANNESLIE RD                         000N        CARE OF             
MTR04742000001000000000000000RA              22607768    005801890000018900000520000003NN  NNW 000                       N    
RDG04742000WATRL000000004K00000000000002110018902062015103029N000300000010N40       000280400K 10000000010000003099           
CUS0474200000104130360003         BLANPIED  THOMAS A  617 ANNESLIE RD                         000N        CARE OF             
MTR04742000001000000000000000RA              44087314    005801900000019000000520000003NN  NNW 000                       N    
RDG04742000WATRL000000004K00000000000001642019002062015103122N000300000010N40       000530400K 10000000010000001615           
CUS0474200000104130361001         FILLING MATT        619 ANNESLIE RD                         000N        CARE OF             
MTR04742000001000000000000000RA              35110341    005801910000019100000520000003NN  NNW 000                       N    
RDG04742000WATRL000000004K00000000000002412019102062015103155N000000000000N40       000330400K 10000000010000002401           
CUS0474200000104130362009         BRIAN PILZ          621 ANNESLIE RD                         000N        CARE OF             
MTR04742000001000000000000000RA              27265446    005801920000019200000520000003NN  NNW 000                       N    
RDG04742000WATRL000000004K00000000000003212019202062015103240N000000000000N40       000450400K 10000000010000003194           
CUS0474200000104130363007         STEISEL CLAUDINE    623 ANNESLIE RD                         000N        CARE OF             
MTR04742000001000000000000000RA              22607758    005801930000019300000520000003NN  NNW 000                       N    
RDG04742000WATRL000000004K00000000000003359019302062015103310N000000000000N40       000300400K 10000000010000003342           
CUS0474200000104130364005         GINSBERG DANE H     625 ANNESLIE RD                         000N        CARE OF             
MTR04742000001000000000000000RA              36688030    005801940000019400000520000003NN  NNW 000                       N    
RDG04742000WATRL000000004K00000000000002830019402062015103353N000000000000N40       000430400K 10000000010000002816           
CUS0474200000104130365002         YOUNG NATHAN        627 ANNESLIE RD                         000N        CARE OF             
MTR04742000001000000000000000RA              00127759    005801950000019500000570000003NN  NNW 000                       N    
RDG04742000WATRL000000004K00000000000001516019502062015103428N000000000000N40       000350400K 10000000010000001487           
CUS0474200000104130366000         DALTON ANDREW R     629 ANNESLIE RD                         000N        CARE OF             
MTR04742000001000000000000000RA              45381375    005801960000019600000520000003NN  NNW 000                       N    
RDG04742000WATRL000000004K00000000000002019019602062015103459N000000000000N40       000310400K 10000000010000001976           
CUS0474200000104130367008         NOLL LYNNELLE M     631 ANNESLIE RD                         000N        CARE OF             
MTR04742000001000000000000000RA              35106478    005801970000019700000520000003NN  NNW 000                       N    
RDG04742000WATRL000000004K00000000000002448019702062015103557N000000000000N40       000580400K 10000000010000002433           
CUS0474200000104130368006         BIGELOW MARY S      633 ANNESLIE RD                         000N        CARE OF             
MTR04742000001000000000000000RA              33735660    005801980000019800000520000003NN  NNW 000                       N    
RDG04742000WATRL000000004K00000000000002311019802062015103640N000000000000N40       000430400K 10000000010000002295           
CUS0474200000104130369004         JANKALSKI ALFRED A  635 ANNESLIE RD                         000N        CARE OF             
MTR04742000001000000000000000RA              44091338    005801990000019900000520000003NN  NNW 000                       N    
RDG04742000WATRL000000004K00000000000000300019902062015103713N000000000000N40       000330400K 10000000010000000300           
CUS0474200000104130370002         JARRETT JAMES H     637 ANNESLIE RD                         000N        CARE OF             
MTR04742000001000000000000000RA              42810865    005802000000020000000520000003NN  NNW 000                       N    
RDG04742000WATRL000000004K00000000000002387020002062015103754N000000000000N40       000410400K 10000000010000002360           
CUS0474200000104130371000         KAPLIN ADAM JAN     639 ANNESLIE RD                         000N        CARE OF             
MTR04742000001000000000000000RA              22607770    005802010000020100000520000003NN  NNW 000                       N    
RDG04742000WATRL000000004K00000000000003631020102062015103823N000000000000N40       000290400K 10000000010000003618           
CUS0474200000104130372008         KNUTSON MATTHEW W   701 ANNESLIE RD                         000N        CARE OF             
MTR04742000001000000000000000RA              27266440    005802020000020200000520000003NN  NNW 000                       N    
RDG04742000WATRL000000004K00000000000002863020202062015103906N000000000000N40       000430400K 10000000010000002845           
CUS0474200000104130373006         BENHAM DAVID F      703 ANNESLIE RD                         000N        CARE OF             
MTR04742000001000000000000000RA              30516664    005802030000020300000520000003NN  NNW 000                       N    
RDG04742000WATRL000000004K00000000000003657020302062015103956N000000000000N40       000500400K 10000000010000003619           
CUS0474200000104130374004         SESAKI HIROMI       705 ANNESLIE RD                         000N        CARE OF             
MTR04742000001000000000000000RA              44090656    005802040000020400000520000003NN  NNW 000                       N    
RDG04742000WATRL000000004K00000000000002428020402062015104033N000000000000N40       000370400K 10000000010000002405           
CUS0474200000104130375001         MARKET PRO SOUTH ,IN707 ANNESLIE RD                         000N        CARE OF             
MTR04742000001000000000000000RA              54350767    005802050000020500000520000003NN  NNW 000                       N    
RDG04742000WATRL000000004K00000000000000180020502062015104107N000000000000N40       000340400K 10000000010000000180           
CUS0474200000104130376009         HURLEY ROBIN B      709 ANNESLIE RD                         000N        CARE OF             
MTR04742000001000000000000000RA              22607773    005802060000020600000520000003NN  NNW 000                       N    
RDG04742000WATRL000000004K00000000000002550020602062015104138N000000000000N40       000310400K 10000000010000002542           
CUS0474200000104130377007         LIU RITA            711 ANNESLIE RD                         000N        CARE OF             
MTR04742000001000000000000000RA              46878676    005802070000020700000520000003NN  NNW 000                       N    
RDG04742000WATRL000000004K00000000000001647020702062015104230N000000000000N40       000520400K 10000000010000001626           
CUS0474200000104130378005         REDMON AMY W        713 ANNESLIE RD                         000N        CARE OF             
MTR04742000001000000000000000RA              75425679    005802080000020800000350000003NN  NNW 000                       N    
RDG04742000WATRL000000004K00000000000000023020802062015104312N000000000050N40       000420400K 10000000010000000020           
CUS0474200000104130379003         FRISCH DOUGLAS M    715 ANNESLIE RD                         000N        CARE OF             
MTR04742000001000000000000000RA              44178804    005802090000020900000520000003NN  NNW 000                       N    
RDG04742000WATRL000000004K00000000000000636020902062015104339N000000000000N40       000270400K 10000000010000000628           
CUS0474200000104130380001         DENDER DANIEL       717 ANNESLIE RD                         000N        CARE OF             
MTR04742000001000000000000000RA              23644958    005802100000021000000520000003NN  NNW 000                       N    
RDG04742000WATRL000000004K00000000000003955021002062015104410N000000000000N40       000310400K 10000000010000003943           
CUS0474200000104130381009         KLINGER-LUTH JULIE A719 ANNESLIE RD                         000N        CARE OF             
MTR04742000001000000000000000RA              14913885    005802110000021100000310000003NN  NNW 000                       N    
RDG04742000WATRL000000004K00000000000000631021102062015104535N000000000000N40       000850400K 10000000010000000619           
CUS0474200000104130382007         COLIN M MCCLOSKEY   721 ANNESLIE RD                         000N        CARE OF             
MTR04742000001000000000000000RA              38983685    005802120000021200000520000003NN  NNW 000                       N    
RDG04742000WATRL000000004K00000000000003486021202062015104651N000000000000N40       000760400K 10000000010000003454           
CUS0474200000104130383005         COYLE JOSEPH L      723 ANNESLIE RD                         000N        CARE OF             
MTR04742000001000000000000000RA              54350686    005802130000021300000520000003NN  NNW 000                       N    
RDG04742000WATRL000000004K00000000000001650021302062015104754N000000000020N40       000630400K 10000000010000001637           
CUS0474200000104130384003         LEVEDAHL BARBARA LEE725 ANNESLIE RD                         000N        CARE OF             
MTR04742000001000000000000000RA              9689270     005802140000021400000570000003NN  NNW 000                       N    
RDG04742000WATRL000000004K00000000000002778021402062015104812N000000000000N40       000180400K 10000000010000002772           
CUS0474200000104130385000         INGRAM JOHN V       727 ANNESLIE RD                         000N        CARE OF             
MTR04742000001000000000000000RA              33735529    005802150000021500000520000003NN  NNW 000                       N    
RDG04742000WATRL000000004K00000000000002080021502062015104857N000000000000N40       000450400K 10000000010000002069           
CUS0474200000104130386008         LINGG DAVID L       729 ANNESLIE RD                         000N        CARE OF             
MTR04742000001000000000000000RA              39289088    005802160000021600000520000003NN  NNW 000                       N    
RDG04742000WATRL000000004K00000000000002624021602062015104918N000000000000N40       000210400K 10000000010000002602           
CUS0474200000104130387006         MURPHY EDWARD HANLON731 ANNESLIE RD                         000N        CARE OF             
MTR04742000001000000000000000RA              24772082    005802170000021700000520000003NN  NNW 000                       N    
RDG04742000WATRL000000004K00000000000004591021702062015104955N000000000000N40       000370400K 10000000010000004574           
CUS0474200000104130388004         DAMBROGI DONALD J,JR733 ANNESLIE RD                         000N        CARE OF             
MTR04742000001000000000000000RA              00127755    005802180000021800000570000003NN  NNW 000                       N    
RDG04742000WATRL000000004K00000000000001123021802062015105040N000000000000N40       000450400K 10000000010000001107           
CUS0474200000104130389002         NEVINS MARTIN G,JR  735 ANNESLIE RD                         000N        CARE OF             
MTR04742000001000000000000000RA              39584051    005802190000021900000520000003NN  NNW 000                       N    
RDG04742000WATRL000000004K00000000000002488021902062015105200N000000000000N40       000800400K 10000000010000002464           
CUS0474200000104130390000         TRIPP DALE B        737 ANNESLIE RD                         000N        CARE OF             
MTR04742000001000000000000000RA              10020007    005802200000022000000570000003NN  NNW 000                       N    
RDG04742000WATRL000000004K00000000000000300022002062015105234N000000000000N40       000340400K 10000000010000000277           
CUS0474200000104130391008         SHORT NATHAN K      739 ANNESLIE RD                         000N        CARE OF             
MTR04742000001000000000000000RA              01095143    005802210000022100000610000003NN  NNW 000                       N    
RDG04742000WATRL000000004K00000000000000713022102062015105312N000000000000N40       000380400K 10000000010000000691           
CUS0474200000104130392006         KASS HENRY P        741 ANNESLIE RD                         000N        CARE OF             
MTR04742000001000000000000000RA              45381373    005802220000022200000520000003NN  NNW 000                       N    
RDG04742000WATRL000000004K00000000000003192022202062015105410N000000000000N40       000580400K 10000000010000003162           
CUS0474200000104130393004         CREAMER ROBERT      743 ANNESLIE RD                         000N        CARE OF             
MTR04742000001000000000000000RA              25781125    005802230000022300000520000003NN  NNW 000                       N    
RDG04742000WATRL000000004K00000000000005241022302062015105448N000000000010N40       000380400K 10000000010000005231           
CUS0474200000104130394002         COCHRAN GREGORY A   745 ANNESLIE RD                         000N        CARE OF             
MTR04742000001000000000000000RA              10015101    005802240000022400000570000003NN  NNW 000                       N    
RDG04742000WATRL000000004K00000000000000510022402062015105513N000000000000N40       000250400K 10000000010000000479           
CUS0474200000104130395009         ADAM DECK           747 ANNESLIE RD                         000N        CARE OF             
MTR04742000001000000000000000RA              36693030    005802250000022500000520000003NN  NNW 000                       N    
RDG04742000WATRL000000004K00000000000004586022502062015105540N000000000000N40       000270400K 10000000010000004571           
CUS0474200000104130396007         COOK BARTON R       749 ANNESLIE RD                         000N        CARE OF             
MTR04742000001000000000000000RA              00127760    005802260000022600000570000003NN  NNW 000                       N    
RDG04742000WATRL000000004K00000000000000509022602062015105644N000000000000N40       000640400K 10000000010000000500           
CUS0474200000104130397005         REISLER CLAIRE      750 ANNESLIE RD                         000N        CARE OF             
MTR04742000001000000000000000RA              99187901    005802270000022700000570000003NN  NNW 000                       N    
RDG04742000WATRL000000004K00000000000000419022702062015105718N000000000000N40       000340400K 10000000010000000411           
CUS0474200000104130398003         KNIPP HOLLY ANN     748 ANNESLIE RD                         000N        CARE OF             
MTR04742000001000000000000000RA              76347272    005802280000022800000350000003NN  NNW 000                       N    
RDG04742000WATRL000000004K00000000000000056022802062015105745N000000000000N40       000270400K 10000000010000000037           
CUS0474200000104130399001         NORRIS RICHARD L    746 ANNESLIE RD                         000N        CARE OF             
MTR04742000001000000000000000RA              39923012    005802290000022900000520000003NN  NNW 000                       N    
RDG04742000WATRL000000004K00000000000000983022902062015105825N000300000010N40       000400400K 10000000010000000958           
CUS0474200000104130400007         JOSEPH POMYKALA     744 ANNESLIE RD                         000N        CARE OF             
MTR04742000001000000000000000RA              32771745    005802300000023000000520000003NN  NNW 000                       N    
RDG04742000WATRL000000004K00000000000002564023002062015105851N000000000000N40       000260400K 10000000010000002555           
CUS0474200000104130401005         WEATHERBY STEVE H   742 ANNESLIE RD                         000N        CARE OF             
MTR04742000001000000000000000RA              23051916    005802310000023100000520000003NN  NNW 000                       N    
RDG04742000WATRL000000004K00000000000001539023102062015105924N000000000000N40       000330400K 10000000010000001531           
CUS0474200000104130402003         CONNOLLY DARCY      740 ANNESLIE RD                         000N        CARE OF             
MTR04742000001000000000000000RA              35114869    005802320000023200000520000003NN  NNW 000                       N    
RDG04742000WATRL000000004K00000000000002272023202062015110008N000000000010N40       000440400K 10000000010000002258           
CUS0474200000104130403001         JAYMONT DOUGLAS M   738 ANNESLIE RD                         000N        CARE OF             
MTR04742000001000000000000000RA              99188470    005802330000023300000570000003NN  NNW 000                       N    
RDG04742000WATRL000000004K00000000000000590023302062015110035N000000000000N40       000270400K 10000000010000000584           
CUS0474200000104130404009         MELIA MARK R        736 ANNESLIE RD                         000N        CARE OF             
MTR04742000001000000000000000RA              50786988    005802340000023400000520000003NN  NNW 000                       N    
RDG04742000WATRL000000004K00000000000001695023402062015110110N000000000000N40       000350400K 10000000010000001676           
CUS0474200000104130405006         RECCHIA DAVID P     734 ANNESLIE RD                         000N        CARE OF             
MTR04742000001000000000000000RA              30518206    005802350000023500000520000003NN  NNW 000                       N    
RDG04742000WATRL000000004K00000000000003491023502062015110142N000000000000N40       000320400K 10000000010000003471           
CUS0474200000104130406004         LEWANDOWSKI TINA    730 ANNESLIE RD                         000N        CARE OF             
MTR04742000001000000000000000RA              39585852    005802360000023600000520000003NN  NNW 000                       N    
RDG04742000WATRL000000004K00000000000002234023602062015110226N000000000000N40       000440400K 10000000010000002220           
CUS0474200000104130407002         HINDMARSH JULIA JO  728 ANNESLIE RD                         000N        CARE OF             
MTR04742000001000000000000000RA              33729694    005802370000023700000520000003NN  NNW 000                       N    
RDG04742000WATRL000000004K00000000000000944023702062015110334N000000000000N40       000680400K 10000000010000000926           
CUS0474200000104130408000         DYMOND DAVID W      726 ANNESLIE RD                         000N        CARE OF             
MTR04742000001000000000000000RA              11336028    005802380000023800000570000003NN  NNW 000                       N    
RDG04742000WATRL000000004K00000000000004090023802062015110419N000000000000N40       000450400K 10000000010000004065           
CUS0474200000104130409008         DICKINSON MICHAEL A 724 ANNESLIE RD                         000N        CARE OF             
MTR04742000001000000000000000RA              35104213    005802390000023900000520000003NN  NNW 000                       N    
RDG04742000WATRL000000004K00000000000002823023902062015110445N000000000000N40       000260400K 10000000010000002806           
CUS0474200000104130410006         DEROIAN DAVID M     722 ANNESLIE RD                         000N        CARE OF             
MTR04742000001000000000000000RA              99187869    005802400000024000000570000003NN  NNW 000                       N    
RDG04742000WATRL000000004K00000000000000516024002062015110520N000300000010N40       000350400K 10000000010000000508           
CUS0474200000104130411004         DEROIAN DAVID M     720 ANNESLIE RD                         000N        CARE OF             
MTR04742000001000000000000000RA              99290663    005802410000024100000570000003NN  NNW 000                       N    
RDG04742000WATRL000000004K00000000000001136024102062015110600N000000000000N40       000400400K 10000000010000001121           
CUS0474200000104130412002         LEWANDOWSKI LEONARD 718 ANNESLIE RD                         000N        CARE OF             
MTR04742000001000000000000000RA              22607761    005802420000024200000520000003NN  NNW 000                       N    
RDG04742000WATRL000000004K00000000000004334024202062015110631N000000000000N40       000310400K 10000000010000004316           
CUS0474200000104130413000         SCOTT G CHAMBERS    716 ANNESLIE RD                         000N        CARE OF             
MTR04742000001000000000000000RA              01116039    005802430000024300000610000003NN  NNW 000                       N    
RDG04742000WATRL000000004K00000000000001425024302062015110702N000000000000N40       000310400K 10000000010000001396           
CUS0474200000104130414008         PERNA ALGERINA C    714 ANNESLIE RD                         000N        CARE OF             
MTR04742000001000000000000000RA              75424627    005802440000024400000350000003NN  NNW 000                       N    
RDG04742000WATRL000000004K00000000000000059024402062015110737N000000000000N40       000350400K 10000000010000000051           
CUS0474200000104130415005         EDMONSTON MARK A    712 ANNESLIE RD                         000N        CARE OF             
MTR04742000001000000000000000RA              00132222    005802450000024500000570000003NN  NNW 000                       N    
RDG04742000WATRL000000004K00000000000000938024502062015110803N000000000000N40       000260400K 10000000010000000918           
CUS0474200000104130416003         WAGNER PAUL D       710 ANNESLIE RD                         000N        CARE OF             
MTR04742000001000000000000000RA              00132220    005802460000024600000570000003NN  NNW 000                       N    
RDG04742000WATRL000000004K00000000000001073024602062015110835N000000000000N40       000320400K 10000000010000001058           
CUS0474200000104130417001         GRETCHEN MANEVAL    708 ANNESLIE RD                         000N        CARE OF             
MTR04742000001000000000000000RA              22607917    005802470000024700000520000003NN  NNW 000                       N    
RDG04742000WATRL000000004K00000000000002275024702062015110905N000000000000N40       000300400K 10000000010000002262           
CUS0474200000104130418009         MARTANCIK CLAUDIA A 706 ANNESLIE RD                         000N        CARE OF             
MTR04742000001000000000000000RA              00132223    005802480000024800000570000003NN  NNW 000                       N    
RDG04742000WATRL000000004K00000000000001465024802062015110933N000000000000N40       000280400K 10000000010000001444           
CUS0474200000104130419007         TALBOTT MARCIA ALLEN704 ANNESLIE RD                         000N        CARE OF             
MTR04742000001000000000000000RA              26008430    005802490000024900000520000003NN  NNW 000                       N    
RDG04742000WATRL000000004K00000000000005442024902062015111008N000000000000N40       000350400K 10000000010000005392           
CUS0474200000104130420005         GERI F O'DONAGHUE   702 ANNESLIE RD                         000N        CARE OF             
MTR04742000001000000000000000RA              77987781    005802500000025000000350000003NN  NNW 000                       N    
RDG04742000WATRL000000004K00000000000000000025002062015111046N000000000000N40       000380400K 10000000010000000000           
CUS0474200000104130421003         BROWN TODD T        700 ANNESLIE RD                         000N        CARE OF             
MTR04742000001000000000000000RA              35116225    005802510000025100000520000003NN  NNW 000                       N    
RDG04742000WATRL000000004K00000000000003338025102062015111124N000000000000N40       000380400K 10000000010000003311           
CUS0474200000104130422001         DAY KEVIN A         628 ANNESLIE RD                         000N        CARE OF             
MTR04742000001000000000000000RA              14901841    005802520000025200000310000003NN  NNW 000                       N    
RDG04742000WATRL000000004K00000000000000823025202062015111223N000000000000N40       000590400K 10000000010000000811           
CUS0474200000104130423009         FITZPATRICK SEAN E  626 ANNESLIE RD                         000N        CARE OF             
MTR04742000001000000000000000RA              00126340    005802530000025300000570000003NN  NNW 000                       N    
RDG04742000WATRL000000004K00000000000001820025302062015111305N000000000000N40       000420400K 10000000010000001785           
CUS0474200000104130424007         WIETSCHER CRAIG E   624 ANNESLIE RD                         000N        CARE OF             
MTR04742000001000000000000000RA              41588671    005802540000025400000520000003NN  NNW 000                       N    
RDG04742000WATRL000000004K00000000000001747025402062015111332N000000000000N40       000270400K 10000000010000001729           
CUS0474200000104130425004         METZGER WILLIAM J   622 ANNESLIE RD                         000N        CARE OF             
MTR04742000001000000000000000RA              22607784    005802550000025500000520000003NN  NNW 000                       N    
RDG04742000WATRL000000004K00000000000001503025502062015111421N000000000010N40       000490400K 10000000010000001503           
CUS0474200000104130426002         KROMKOWSKI JOHN DAVI620 ANNESLIE RD                         000N        CARE OF             
MTR04742000001000000000000000RA              00126336    005802560000025600000570000003NN  NNW 000                       N    
RDG04742000WATRL000000004K00000000000001055025602062015111505N000000000000N40       000440400K 10000000010000001035           
CUS0474200000104130427000         COFFIN E JUNE       618 ANNESLIE RD                         000N        CARE OF             
MTR04742000001000000000000000RA              74688728    005802570000025700000350000000NN  NNW 000                       N    
RDG04742000WATRL000000004K00000000000000269025702062015111559N000000000010N40       000540400K 10000000010000000256           
CUS0474200000104130428008         CHECKNOFF MICHAEL   616 ANNESLIE RD                         000N        CARE OF             
MTR04742000001000000000000000RA              01096166    005802580000025800000610000003NN  NNW 000                       N    
RDG04742000WATRL000000004K00000000000001127025802062015111627N000000000000N40       000280400K 10000000010000001107           
CUS0474200000104130429006         HELLER HOWARD P     614 ANNESLIE RD                         000N        CARE OF             
MTR04742000001000000000000000RA              22607929    005802590000025900000520000003NN  NNW 000                       N    
RDG04742000WATRL000000004K00000000000004325025902062015111708N000000000000N40       000410400K 10000000010000004311           
CUS0474200000104130430004         NATALIE ROCK PALERMO612 ANNESLIE RD                         000N        CARE OF             
MTR04742000001000000000000000RA              42810190    005802600000026000000520000003NN  NNW 000                       N    
RDG04742000WATRL000000004K00000000000002361026002062015111759N000000000000N40       000510400K 10000000010000002342           
CUS0474200000104130431002         PULIGNANI DANTE J   610 ANNESLIE RD                         000N        CARE OF             
MTR04742000001000000000000000RA              9686180     005802610000026100000570000003NN  NNW 000                       N    
RDG04742000WATRL000000004K00000000000004546026102062015111842N000000000000N40       000430400K 10000000010000004535           
CUS0474200000104130432000         DEAN H STORM        608 ANNESLIE RD                         000N        CARE OF             
MTR04742000001000000000000000RA              41082281    005802620000026200000520000003NN  NNW 000                       N    
