FHDNNNN032006436006436006634N                                                                                           019824
RHD08538500NN02200220000002200000000002200220000023NY022002200220000500000000000000000000000002    01202015NY020000 N         
CUS0853850000108014922002         BRIAN BEAN          600 HILTON AVE                          000N        CARE OF             
MTR08538500001000000000000000RA              44030354    007500010000000100000520000003NN  NNW 000                       N    
RDG08538500WATRL000000004K00000000000002625000102072015110128N000400000010N87       000000400K 10000000010000002615           
CUS0853850000108014923000         148 REGESTER AVE LLC602 HILTON AVE                          000N        CARE OF             
MTR08538500001000000000000000RA              46881202    005800020000000200000520000003NN  NNW 000                       N    
RDG08538500WATRL000000004K00000000000000463000202072015110132N000000000000N87       000040400K 10000000010000000459           
CUS0853850000108014924008         MORSBERGER ELMER L  604 HILTON AVE                          000N        CARE OF             
MTR08538500001000000000000000RA              01094799    005800030000000300000610000003NN  NNW 000                       N    
RDG08538500WATRL000000004K00000000000001579000302072015110137N000000000000N87       000050400K 10000000010000001568           
CUS0853850000108014925005         KREIS CHARLES       606 HILTON AVE                          000N        CARE OF             
MTR08538500001000000000000000RA              14909169    005800040000000400000310000003NN  NNW 000                       N    
RDG08538500WATRL000000004K00000000000001885000402072015110141N000000000000N87       000040400K 10000000010000001868           
CUS0853850000108014926003         GREENWALT CHARLES J 608 HILTON AVE                          000N        CARE OF             
MTR08538500001000000000000000RA              10021839    005800050000000500000570000003NN  NNW 000                       N    
RDG08538500WATRL000000004K00000000000000035000502072015110146N000000000010N87       000050400K 10000000010000000034           
CUS0853850000108014927001         PROCHASKA GARY F    610 HILTON AVE                          000N        CARE OF             
MTR08538500001000000000000000RA              14922552    005800060000000600000310000003NN  NNW 000                       N    
RDG08538500WATRL000000004K00000000000001341000602072015110159N000400000010N87       000130400K 10000000010000001315           
CUS0853850000108014928009         MORSBERGER MARY JOLE612 HILTON AVE                          000N        CARE OF             
MTR08538500001000000000000000RA              22608233    005800070000000700000520000003NN  NNW 000                       N    
RDG08538500WATRL000000004K00000000000004731000702072015110210N000000000000N87       000110400K 10000000010000004711           
CUS0853850000108014929007         WEISAND CHRISTIAN F 700 HILTON AVE                          000N        CARE OF             
MTR08538500001000000000000000RA              24766246    005800080000000800000520000003NN  NNW 000                       N    
RDG08538500WATRL000000004K00000000000002380000802072015110219N000000000000N87       000090400K 10000000010000002370           
CUS0853850000108014930005         MAYMON PETER W      702 HILTON AVE                          000N        CARE OF             
MTR08538500001000000000000000RA              00140276    005800090000000900000570000003NY  NNW 000                       N    
MTM0853850000140276    137X                                                                                                   
RDG08538500WATRL000000004K00000000000000000000000000000000000 000000000000U         000000400  10000000010000001353           
CUS0853850000108014931003         AMASS WILLIAM J     704 HILTON AVE                          000N        CARE OF             
MTR08538500001000000000000000RA              00140271    005800100000001000000570000003NN  NNW 000                       N    
RDG08538500WATRL000000004K00000000000000975000902072015110232N000000000000N87       000130400K 10000000010000000951           
CUS0853850000108014932001         CANNER PAUL L       706 HILTON AVE                          000N        CARE OF             
MTR08538500001000000000000000RA              00140228    005800110000001100000570000003NN  NNW 000                       N    
RDG08538500WATRL000000004K00000000000000826001002072015110236N000000000000N87       000040400K 10000000010000000813           
CUS0853850000108014933009         MORSBERGER PROPERTIEWS HILTON AVE                           000N        CARE OF             
MTR08538500001000000000000000RA              75615721    005800120000001200000350000003NN  NNW 000                       N    
RDG08538500WATRL000000004K00000000000000420001102072015110243N000000000010N87       000070400K 10000000010000000368           
CUS0853850000108014934007         PETERS JEANNE M     800 HILTON AVE                          000N        CARE OF             
MTR08538500001000000000000000RA              75424624    005800130000001300000350000003NN  NNW 000   VACANT / LOT        N    
RDG08538500WATRL000000004K00000000000000000001202072015110253N000000000000N87       000100400K 10000000010000000000           
CUS0853850000108404036009         WHELTLE RAYMOND F   900 HILTON AVE                          000N        CARE OF             
MTR08538500001000000000000000RA              10011086    005800140000001400000570000003NN  NNW 000                       N    
RDG08538500WATRL000000004K00000000000000517001302072015110255N000000000000N87       000020400K 10000000010000000491           
CUS0853850000108430459001         JAGELA JOHN ROBERT  902 HILTON AVE                          000N        CARE OF             
MTR08538500001000000000000000RA              99390108    005800150000001500000570000003NN  NNW 000                       N    
RDG08538500WATRL000000004K00000000000002408001402072015110258N000000000000N87       000030400K 10000000010000002378           
CUS0853850000108422045008         ALGER MICHAEL J     904 HILTON AVE                          000N        CARE OF             
MTR08538500001000000000000000RA              45373579    005800160000001600000520000003NN  NNW 000                       N    
RDG08538500WATRL000000004K00000000000002642001502072015110301N000000000000N87       000030400K 10000000010000002614           
CUS0853850000108014937000         PETERS AUGUST W,JR  1000 HILTON AVE                         000N        CARE OF             
MTR08538500001000000000000000RA              50787661    005800170000001700000520000003NN  NNW 000                       N    
RDG08538500WATRL000000004K00000000000002148001602072015110313N000000000000N87       000120400K 10000000010000002129           
CUS0853850000108399192007         CLEMENT PURCELL     1002 HILTON AVE                         000N        CARE OF             
MTR08538500001000000000000000RA              40779838    005800180000001800000520000003NN  NNW 000                       N    
RDG08538500WATRL000000004K00000000000003075001702072015110319N000000000000N87       000060400K 10000000010000003045           
CUS0853850000108436300001         TIS JOHN EDGAR      1004A HILTON AVE                        000N        CARE OF             
MTR08538500001000000000000000RA              01116273    005800190000001900000610000003NN  NNW 000                       N    
RDG08538500WATRL000000004K00000000000001326001802072015110325N000000000000N87       000060400K 10000000010000001278           
CUS0853850000108420121009         PETERS JEANNE MARIE 1004 HILTON AVE                         000N        CARE OF             
MTR08538500001000000000000000RA              50787660    005800200000002000000520000000NN  NNW 000                       N    
RDG08538500WATRL000000004K00000000000001825001902072015110345N000300000010N87       000200400K 10000000010000001526           
CUS0853850000108014935004         YOUNG TIMOTHY L     1006 HILTON AVE                         000N        CARE OF             
MTR08538500001000000000000000RA              52286351    005800210000002100000520000003NN  NNW 000                       N    
RDG08538500WATRL000000004K00000000000001897002002072015110347N000000000000N87       000020400K 10000000010000001857           
CUS0853850000108014936002         BALIS ELLIOT        1008 HILTON AVE                         000N        CARE OF             
MTR08538500001000000000000000RA              24773745    005800220000002200000520000003NN  NNW 000                       N    
RDG08538500WATRL000000004K00000000000003533002102072015110353N000400000010N87       000060400K 10000000010000003516           
CUS0853850000108388068002         MILLER SHARON U     1010 HILTON AVE                         000N        CARE OF             
MTR08538500001000000000000000RA              35118254    005800230000002300000520000003NN  NNW 000                       N    
RDG08538500WATRL000000004K00000000000004127002202072015110401N000400000010N87       000080400K 10000000010000004110           
CUS0853850000108014938008         MARYLAND PARK SERVIC1100 HILTON AVE                         000N        CARE OF             
MTR08538500001000000000000000RA              78028782    007500240000002400000350000003NN  NNW 000                       N    
RDG08538500WATRL000000004K00000000000000006002302072015110407N000000000000N87       000060400K 10000000010000000000           
CUS0853850000108400521004         TRAUT JOHN C        1 BASSWOOD CT                           000N        CARE OF             
MTR08538500001000000000000000RA              45373550    005800250000002500000520000003NN  NNW 000                       N    
RDG08538500WATRL000000004K00000000000003422002402072015110412N000000000000N87       000050400K 10000000010000003409           
CUS0853850000108400520006         BIANCO THOMAS J     3 BASSWOOD CT                           000N        CARE OF             
MTR08538500001000000000000000RA              42810465    005800260000002600000520000003NN  NNW 000                       N    
RDG08538500WATRL000000004K00000000000002952002502072015110414N000000000000N87       000020400K 10000000010000002937           
CUS0853850000108400519008         PERSON DAVID D      5 BASSWOOD CT                           000N        CARE OF             
MTR08538500001000000000000000RA              41086403    005800270000002700000520000003NN  NNW 000                       N    
RDG08538500WATRL000000004K00000000000003560002602102015142956O000000000010N80       000050400K 10000000010000003529           
CUS0853850000108400518000         THRASHER TERRANCE L 7 BASSWOOD CT                           000N        CARE OF             
MTR08538500001000000000000000RA              48589560    005800280000002800000520000003NN  NNW 000                       N    
RDG08538500WATRL000000004K00000000000001904002702072015110427N000000000000N87       000080400K 10000000010000001882           
CUS0853850000108400517002         BANSAL OM PRAKASH   9 BASSWOOD CT                           000N        CARE OF             
MTR08538500001000000000000000RA              41086402    005800290000002900000520000003NN  NNW 000                       N    
RDG08538500WATRL000000004K00000000000002459002802072015110431N000000000000N87       000040400K 10000000010000002450           
CUS0853850000108400516004         BOGNER DOUGLAS N    11 BASSWOOD CT                          000N        CARE OF             
MTR08538500001000000000000000RA              42808140    005800300000003000000520000003NN  NNW 000                       N    
RDG08538500WATRL000000004K00000000000003104002902072015110433N000000000000N87       000020400K 10000000010000003070           
CUS0853850000108400515006         HILBERT H TURNER JR 13 BASSWOOD CT                          000N        CARE OF             
MTR08538500001000000000000000RA              14924020    005800310000003100000310000003NN  NNW 000                       N    
RDG08538500WATRL000000004K00000000000000420003002072015110436N000000000000N87       000030400K 10000000010000000407           
CUS0853850000108400514009         POULSEN LAURA C     15 BASSWOOD CT                          000N        CARE OF             
MTR08538500001000000000000000RA              42810444    005800320000003200000520000003NN  NNW 000                       N    
RDG08538500WATRL000000004K00000000000002738003102072015110438N000000000000N87       000020400K 10000000010000002731           
CUS0853850000108400513001         VISCARDI ANTHONY F  17 BASSWOOD CT                          000N        CARE OF             
MTR08538500001000000000000000RA              44002594    005800330000003300000520000003NN  NNW 000                       N    
RDG08538500WATRL000000004K00000000000002234003202072015110511N000000000000N87       000330400K 10000000010000002212           
CUS0853850000108400512003         KUMOJI EVELYN A     19 BASSWOOD CT                          000N        CARE OF             
MTR08538500001000000000000000RA              46882590    005800340000003400000520000003NN  NNW 000                       N    
RDG08538500WATRL000000004K00000000000001075003302072015110515N000000000000N87       000040400K 10000000010000001060           
CUS0853850000108400511005         MERCIER LARRY C     21 BASSWOOD CT                          000N        CARE OF             
MTR08538500001000000000000000RA              45384831    005800350000003500000520000003NN  NNW 000                       N    
RDG08538500WATRL000000004K00000000000003850003402072015110518N000000000000N87       000030400K 10000000010000003807           
CUS0853850000108400509009         SAXTON LAURA B      23 BASSWOOD CT                          000N        CARE OF             
MTR08538500001000000000000000RA              10006354    005800360000003600000570000003NN  NNW 000                       N    
RDG08538500WATRL000000004K00000000000000470003502072015110520N000000000000N87       000020400K 10000000010000000445           
CUS0853850000108400506005         CUMBIE BUNA BISHOP,324 BASSWOOD CT                          000N        CARE OF             
MTR08538500001000000000000000RA              46879564    005800370000003700000520000003NN  NNW 000                       N    
RDG08538500WATRL000000004K00000000000001700003602072015110523N000000000000N87       000030400K 10000000010000001690           
CUS0853850000108400504000         SITNICK LEONARD A   22 BASSWOOD CT                          000N        CARE OF             
MTR08538500001000000000000000RA              46879376    005800380000003800000520000003NN  NNW 000                       N    
RDG08538500WATRL000000004K00000000000002297003702072015110525N000000000000N87       000020400K 10000000010000002275           
CUS0853850000108400502004         SAHU KAILASH C      20 BASSWOOD CT                          000N        CARE OF             
MTR08538500001000000000000000RA              14923880    005800390000003900000310000003NN  NNW 000                       N    
RDG08538500WATRL000000004K00000000000000596003802072015110528N000000000000N87       000030400K 10000000010000000579           
CUS0853850000108400500008         LOVETT PAUL S       18 BASSWOOD CT                          000N        CARE OF             
MTR08538500001000000000000000RA              44090182    005800400000004000000520000003NN  NNW 000                       N    
RDG08538500WATRL000000004K00000000000002919003902072015110530N000000000000N87       000020400K 10000000010000002892           
CUS0853850000108400498005         MILTER RICHARD G    16 BASSWOOD CT                          000N        CARE OF             
MTR08538500001000000000000000RA              44178069    005800410000004100000520000003NN  NNW 000                       N    
RDG08538500WATRL000000004K00000000000001895004002072015110533N000000000000N87       000030400K 10000000010000001878           
CUS0853850000108400496009         DAVID A. HERMAN     14 BASSWOOD CT                          000N        CARE OF             
MTR08538500001000000000000000RA              42809233    005800420000004200000520000003NN  NNW 000                       N    
RDG08538500WATRL000000004K00000000000002744004102072015110536N000000000000N87       000030400K 10000000010000002723           
CUS0853850000108400495001         CURTIER THOMAS H    12 BASSWOOD CT                          000N        CARE OF             
MTR08538500001000000000000000RA              41088065    005800430000004300000520000003NN  NNW 000                       N    
RDG08538500WATRL000000004K00000000000002046004202072015110540N000400000010N87       000040400K 10000000010000002034           
CUS0853850000108400494004         OSWALD JAMES C      10 BASSWOOD CT                          000N        CARE OF             
MTR08538500001000000000000000RA              50477906    005800440000004400000520000000NN  NNW 000                       N    
RDG08538500WATRL000000004K00000000000002588004302072015110545N000000000000N87       000050400K 10000000010000002574           
CUS0853850000108400522002         MATTHEW J WALSH     8 BASSWOOD CT                           000N        CARE OF             
MTR08538500001000000000000000RA              42809903    005800450000004500000520000003NN  NNW 000                       N    
RDG08538500WATRL000000004K00000000000004269004402072015110549N000000000000N87       000040400K 10000000010000004240           
CUS0853850000108400492008         PAGE GARY ROBERT    6 BASSWOOD CT                           000N        CARE OF             
MTR08538500001000000000000000RA              42808624    005800460000004600000520000003NN  NNW 000                       N    
RDG08538500WATRL000000004K00000000000002300004502072015110552N000000000000N87       000030400K 10000000010000002291           
CUS0853850000108400491000         QUEENSBERRY KENNETH 4 BASSWOOD CT                           000N        CARE OF             
MTR08538500001000000000000000RA              44002509    005800470000004700000520000003NN  NNW 000                       N    
RDG08538500WATRL000000004K00000000000002782004602072015110555N000000000000N87       000030400K 10000000010000002758           
CUS0853850000108400490002         HITCHCOCK GREGORY M 2 BASSWOOD CT                           000N        CARE OF             
MTR08538500001000000000000000RA              42809235    005800480000004800000520000003NN  NNW 000                       N    
RDG08538500WATRL000000004K00000000000003068004702072015110557N000000000000N87       000020400K 10000000010000003028           
CUS0853850000108400510007         MORRIS CAROLE JEAN  1 FRANKLIN TREE CT                      000N        CARE OF             
MTR08538500001000000000000000RA              41076120    005800490000004900000520000003NN  NNW 000                       N    
RDG08538500WATRL000000004K00000000000004013004802072015110606N000000000000N87       000090400K 10000000010000003998           
CUS0853850000108400508001         CHRISTINA M LIBBER  3 FRANKLIN TREE CT                      000N        CARE OF             
MTR08538500001000000000000000RA              41076097    005800500000005000000520000003NN  NNW 000                       N    
RDG08538500WATRL000000004K00000000000003445004902072015110608N000000000000N87       000020400K 10000000010000003424           
CUS0853850000108400507003         CAPKA DAVID E       5 FRANKLIN TREE CT                      000N        CARE OF             
MTR08538500001000000000000000RA              30524576    005800510000005100000520000003NN  NNW 000                       N    
RDG08538500WATRL000000004K00000000000005029005002072015110612N000000000000N87       000040400K 10000000010000005007           
CUS0853850000108400505007         DIPANFILO DANIEL J, 7 FRANKLIN TREE CT                      000N        CARE OF             
MTR08538500001000000000000000RA              41076632    005800520000005200000520000003NN  NNW 000                       N    
RDG08538500WATRL000000004K00000000000003647005102072015110615N000000000000N87       000030400K 10000000010000003627           
CUS0853850000108400503002         EVANS WILLIAM P     9 FRANKLIN TREE CT                      000N        CARE OF             
MTR08538500001000000000000000RA              32899352    005800530000005300000520000003NN  NNW 000                       N    
RDG08538500WATRL000000004K00000000000002076005202072015110618N000000000000N87       000030400K 10000000010000002057           
CUS0853850000108400501006         MATTHEW R ROBERSON  11 FRANKLIN TREE CT                     000N        CARE OF             
MTR08538500001000000000000000RA              41080949    005800540000005400000520000000NN  NNW 000                       N    
RDG08538500WATRL000000004K00000000000002863005302072015110621N000000000000N87       000030400K 10000000010000002837           
CUS0853850000108400499003         DRUMMOND MARA CHRIST13 FRANKLIN TREE CT                     000N        CARE OF             
MTR08538500001000000000000000RA              41080335    005800550000005500000520000003NN  NNW 000                       N    
RDG08538500WATRL000000004K00000000000002402005402072015110629N000000000000N87       000080400K 10000000010000002393           
CUS0853850000108400497007         FIELDS EUGENE J     15 FRANKLIN TREE CT                     000N        CARE OF             
MTR08538500001000000000000000RA              41080741    005800560000005600000520000003NN  NNW 000                       N    
RDG08538500WATRL000000004K00000000000004154005502072015110633N000000000000N87       000040400K 10000000010000004147           
CUS0853850000108400493006         MAGGIO SALVATORE J  17 FRANKLIN TREE CT                     000N        CARE OF             
MTR08538500001000000000000000RA              14907025    005800570000005700000310000003NN  NNW 000                       N    
RDG08538500WATRL000000004K00000000000001326005602072015110635N000000000000N87       000020400K 10000000010000001305           
CUS0853850000108400489004         RADNER ROBERT P     19 FRANKLIN TREE CT                     000N        CARE OF             
MTR08538500001000000000000000RA              46877315    005800580000005800000520000003NN  NNW 000                       N    
RDG08538500WATRL000000004K00000000000002505005702072015110639N000000000000N87       000040400K 10000000010000002481           
CUS0853850000108400488006         NUGENT JANET S,TRUST21 FRANKLIN TREE CT                     000N        CARE OF             
MTR08538500001000000000000000RA              44088667    005800590000005900000520000000NN  NNW 000                       N    
RDG08538500WATRL000000004K00000000000002537005802072015110641N000000000000N87       000020400K 10000000010000002527           
CUS0853850000108400487008         CONSTANTINE CLEMENTI23 FRANKLIN TREE CT                     000N        CARE OF             
MTR08538500001000000000000000RA              46875006    005800600000006000000520000003NN  NNW 000                       N    
RDG08538500WATRL000000004K00000000000001331005902072015110644N000000000000N87       000030400K 10000000010000001324           
CUS0853850000108400486000         TARBELL LAWRENCE    22 FRANKLIN TREE CT                     000N        CARE OF             
MTR08538500001000000000000000RA              46878148    005800610000006100000520000000NN  NNW 000                       N    
RDG08538500WATRL000000004K00000000000001453006002102015143028O000000000010N80       000090400K 10000000010000001442           
CUS0853850000108400485002         DAWSON DENNIS J     20 FRANKLIN TREE CT                     000N        CARE OF             
MTR08538500001000000000000000RA              41082814    005800620000006200000520000003NN  NNW 000                       N    
RDG08538500WATRL000000004K00000000000002700006102072015110702N000000000000N87       000090400K 10000000010000002679           
CUS0853850000108400484005         DEWITT MONTE D      18 FRANKLIN TREE CT                     000N        CARE OF             
MTR08538500001000000000000000RA              52287552    005800630000006300000520000003NN  NNW 000                       N    
RDG08538500WATRL000000004K00000000000002345006202072015110705N000000000000N87       000030400K 10000000010000002303           
CUS0853850000108400483007         PORCARELLI GUIDO J  16 FRANKLIN TREE CT                     000N        CARE OF             
MTR08538500001000000000000000RA              41075245    005800640000006400000520000003NN  NNW 000                       N    
RDG08538500WATRL000000004K00000000000004401006302072015110706N000000000000N87       000010400K 10000000010000004380           
CUS0853850000108400482009         CARROLL RICHARD S   14 FRANKLIN TREE CT                     000N        CARE OF             
MTR08538500001000000000000000RA              41086332    005800650000006500000520000003NN  NNW 000                       N    
RDG08538500WATRL000000004K00000000000003355006402072015110716N000000000000N87       000100400K 10000000010000003313           
CUS0853850000108400481001         JONATHAN D SMITH    12 FRANKLIN TREE CT                     000N        CARE OF             
MTR08538500001000000000000000RA              41075000    005800660000006600000520000003NN  NNW 000                       N    
RDG08538500WATRL000000004K00000000000003715006502072015110719N000000000000N87       000030400K 10000000010000003695           
CUS0853850000108400480003         PHELPS RUSSELL A    10 FRANKLIN TREE CT                     000N        CARE OF             
MTR08538500001000000000000000RA              41074999    005800670000006700000520000003NN  NNW 000                       N    
RDG08538500WATRL000000004K00000000000003432006602072015110722N000000000000N87       000030400K 10000000010000003393           
CUS0853850000108400479005         FUNK GODFREY F      8 FRANKLIN TREE CT                      000N        CARE OF             
MTR08538500001000000000000000RA              41074997    005800680000006800000520000003NN  NNW 000                       N    
RDG08538500WATRL000000004K00000000000002379006702072015110724N000000000000N87       000020400K 10000000010000002369           
CUS0853850000108400478007         BAYVIEW LOAN SVC, LL6 FRANKLIN TREE CT                      000N        CARE OF             
MTR08538500001000000000000000RA              41075221    005800690000006900000520000003NN  NNW 000                       N    
RDG08538500WATRL000000004K00000000000003565006802072015110726N000000000000N87       000020400K 10000000010000003544           
CUS0853850000108400477009         KEVIN M NELSON      4 FRANKLIN TREE CT                      000N        CARE OF             
MTR08538500001000000000000000RA              41074996    005800700000007000000520000003NN  NNW 000                       N    
RDG08538500WATRL000000004K00000000000003310006902072015110729N000000000000N87       000030400K 10000000010000003287           
CUS0853850000108400476001         KELTY MARK A        2 FRANKLIN TREE CT                      000N        CARE OF             
MTR08538500001000000000000000RA              48589565    005800710000007100000520000003NN  NNW 000                       N    
RDG08538500WATRL000000004K00000000000001652007002072015110731N000000000000N87       000020400K 10000000010000001638           
CUS0853850000108399912008         VOGELPOHL WILLIAM T 1 ENGLISH ELM CT                        000N        CARE OF             
MTR08538500001000000000000000RA              41588891    005800720000007200000520000003NN  NNW 000                       N    
RDG08538500WATRL000000004K00000000000003690007102072015110733N000000000000N87       000020400K 10000000010000003630           
CUS0853850000108399915001         HUTCHINSON THOMAS A 3 ENGLISH ELM CT                        000N        CARE OF             
MTR08538500001000000000000000RA              01091379    005800730000007300000610000003NN  NNW 000                       N    
RDG08538500WATRL000000004K00000000000001598007202072015110736N000000000000N87       000030400K 10000000010000001568           
CUS0853850000108399917007         SHUGARS NANCY C     5 ENGLISH ELM CT                        000N        CARE OF             
MTR08538500001000000000000000RA              41588896    005800740000007400000520000003NN  NNW 000                       N    
RDG08538500WATRL000000004K00000000000002379007302072015110738N000000000000N87       000020400K 10000000010000002351           
CUS0853850000108399920001         MYERS ROBERT LAWRENC7 ENGLISH ELM CT                        000N        CARE OF             
MTR08538500001000000000000000RA              46876548    005800750000007500000520000003NN  NNW 000                       N    
RDG08538500WATRL000000004K00000000000001311007402072015110740N000000000000N87       000020400K 10000000010000001302           
CUS0853850000108399922007         KAN LOU-SING        9 ENGLISH ELM CT                        000N        CARE OF             
MTR08538500001000000000000000RA              41588881    005800760000007600000520000003NN  NNW 000                       N    
RDG08538500WATRL000000004K00000000000001397007502072015110748N000100000010N87       000080400K 10000000010000001397           
CUS0853850000108399925000         SAUNDERS JEANNINE L 11 ENGLISH ELM CT                       000N        CARE OF             
MTR08538500001000000000000000RA              41588878    005800770000007700000520000003NN  NNW 000                       N    
RDG08538500WATRL000000004K00000000000003172007602072015110753N000000000000N87       000050400K 10000000010000003156           
CUS0853850000108399927006         STROUSE CHARLES ANGE13 ENGLISH ELM CT                       000N        CARE OF             
MTR08538500001000000000000000RA              14924938    005800780000007800000310000003NN  NNW 000                       N    
RDG08538500WATRL000000004K00000000000000752007702072015110756N000000000000N87       000030400K 10000000010000000727           
CUS0853850000108399929002         CLARK HARLEY W      15 ENGLISH ELM CT                       000N        CARE OF             
MTR08538500001000000000000000RA              41589475    005800790000007900000520000003NN  NNW 000                       N    
RDG08538500WATRL000000004K00000000000002624007802072015110758N000000000000N87       000020400K 10000000010000002608           
CUS0853850000108399930000         MARINO WAYNE        17 ENGLISH ELM CT                       000N        CARE OF             
MTR08538500001000000000000000RA              41081597    005800800000008000000520000003NN  NNW 000                       N    
RDG08538500WATRL000000004K00000000000003729007902072015110801N000000000000N87       000030400K 10000000010000003707           
CUS0853850000108399931008         CRUZ ANGELITO P     19 ENGLISH ELM CT                       000N        CARE OF             
MTR08538500001000000000000000RA              41076992    005800810000008100000520000003NN  NNW 000                       N    
RDG08538500WATRL000000004K00000000000004543008002072015110813N000000000000N87       000120400K 10000000010000004518           
CUS0853850000108399932006         DULANEY JAMES W,JR  21 ENGLISH ELM CT                       000N        CARE OF             
MTR08538500001000000000000000RA              41076991    005800820000008200000520000003NN  NNW 000                       N    
RDG08538500WATRL000000004K00000000000006183008102072015110816N000000000000N87       000030400K 10000000010000006134           
CUS0853850000108399933004         MOHLER JOHN G,JR    20 ENGLISH ELM CT                       000N        CARE OF             
MTR08538500001000000000000000RA              41589466    005800830000008300000520000003NN  NNW 000                       N    
RDG08538500WATRL000000004K00000000000002491008202072015110823N000400000010N87       000070400K 10000000010000002482           
CUS0853850000108399934002         LAW ROSS CRAIG      18 ENGLISH ELM CT                       000N        CARE OF             
MTR08538500001000000000000000RA              41589469    005800840000008400000520000003NN  NNW 000                       N    
RDG08538500WATRL000000004K00000000000004003008302072015110828N000000000000N87       000050400K 10000000010000003986           
CUS0853850000108399937005         MESSENGER SCOTT R   16 ENGLISH ELM CT                       000N        CARE OF             
MTR08538500001000000000000000RA              41589471    005800850000008500000520000003NN  NNW 000                       N    
RDG08538500WATRL000000004K00000000000004073008402072015110831N000000000000N87       000030400K 10000000010000004050           
CUS0853850000108399938003         BESTANY RICHARD     14 ENGLISH ELM CT                       000N        CARE OF             
MTR08538500001000000000000000RA              10016429    005800860000008600000570000003NN  NNW 000                       N    
RDG08538500WATRL000000004K00000000000000355008502072015110838N000000000000N87       000070400K 10000000010000000330           
CUS0853850000108399940009         TANSILL MELVIN E,JR 12 ENGLISH ELM CT                       000N        CARE OF             
MTR08538500001000000000000000RA              41589389    005800870000008700000520000003NN  NNW 000                       N    
RDG08538500WATRL000000004K00000000000002487008602072015110840N000000000000N87       000020400K 10000000010000002478           
CUS0853850000108399941007         SWIFT RONALD M      10 ENGLISH ELM CT                       000N        CARE OF             
MTR08538500001000000000000000RA              41589468    005800880000008800000520000003NN  NNW 000                       N    
RDG08538500WATRL000000004K00000000000002938008702072015110843N000000000000N87       000030400K 10000000010000002927           
CUS0853850000108399942005         JAMES KUSZEWSKI     8 ENGLISH ELM CT                        000N        CARE OF             
MTR08538500001000000000000000RA              45378207    005800890000008900000520000003NN  NNW 000                       N    
RDG08538500WATRL000000004K00000000000001921008802072015110858N000300000010N87       000150400K 10000000010000001905           
CUS0853850000108399943003         YI HYON C           6 ENGLISH ELM CT                        000N        CARE OF             
MTR08538500001000000000000000RA              41589446    005800900000009000000520000003NN  NNW 000                       N    
RDG08538500WATRL000000004K00000000000002873008902072015110909N000000000000N87       000110400K 10000000010000002851           
CUS0853850000108399944001         RECKLING RONALD W   4 ENGLISH ELM CT                        000N        CARE OF             
MTR08538500001000000000000000RA              99293819    005800910000009100000570000003NN  NNW 000                       N    
RDG08538500WATRL000000004K00000000000000940009002072015110911N000000000000N87       000020400K 10000000010000000925           
CUS0853850000108399945008         REYMANN THOMAS A    2 ENGLISH ELM CT                        000N        CARE OF             
MTR08538500001000000000000000RA              45375677    005800920000009200000520000003NN  NNW 000                       N    
RDG08538500WATRL000000004K00000000000004162009102072015110918N000400000010N87       000070400K 10000000010000004140           
CUS0853850000108402984002         FRANCY DENIS W      700 WHITE OAKS AVE                      000N        CARE OF             
MTR08538500001000000000000000RA              45377373    005800930000009300000520000003NN  NNW 000                       N    
RDG08538500WATRL000000004K00000000000002089009202072015110923N000000000000N87       000050400K 10000000010000002075           
CUS0853850000108402983004         SMITH DAVID G       702 WHITE OAKS AVE                      000N        CARE OF             
MTR08538500001000000000000000RA              45387432    005800940000009400000520000003NN  NNW 000                       N    
RDG08538500WATRL000000004K00000000000001155009302072015110927N000000000000N87       000040400K 10000000010000001141           
CUS0853850000108402982006         BURTON WILLIAM H    704 WHITE OAKS AVE                      000N        CARE OF             
MTR08538500001000000000000000RA              46881426    005800950000009500000520000003NN  NNW 000                       N    
RDG08538500WATRL000000004K00000000000003275009402072015110931N000000000000N87       000040400K 10000000010000003262           
CUS0853850000108402981008         ARNDT JAMES C       706 WHITE OAKS AVE                      000N        CARE OF             
MTR08538500001000000000000000RA              45379051    005800960000009600000520000003NN  NNW 000                       N    
RDG08538500WATRL000000004K00000000000003771009502072015110934N000000000000N87       000030400K 10000000010000003736           
CUS0853850000108402980000         SERVARY DAVID R     708 WHITE OAKS AVE                      000N        CARE OF             
MTR08538500001000000000000000RA              45378673    005800970000009700000520000003NN  NNW 000                       N    
RDG08538500WATRL000000004K00000000000002537009602072015110944N000000000000N87       000100400K 10000000010000002527           
CUS0853850000108402979002         STILLING THOMAS J   710 WHITE OAKS AVE                      000N        CARE OF             
MTR08538500001000000000000000RA              46887301    005800980000009800000520000003NN  NNW 000                       N    
RDG08538500WATRL000000004K00000000000001800009702072015110948N000000000000N87       000040400K 10000000010000001783           
CUS0853850000108402978004         SMITH SHELDON C     712 WHITE OAKS AVE                      000N        CARE OF             
MTR08538500001000000000000000RA              44176306    005800990000009900000520000003NN  NNW 000                       N    
RDG08538500WATRL000000004K00000000000003877009802072015110951N000000000000N87       000030400K 10000000010000003851           
CUS0853850000108402977006         NEWMAN JOHN A       714 WHITE OAKS AVE                      000N        CARE OF             
MTR08538500001000000000000000RA              45381886    005801000000010000000520000003NN  NNW 000                       N    
RDG08538500WATRL000000004K00000000000002065009902072015110955N000000000000N87       000040400K 10000000010000002047           
CUS0853850000108402976008         KENNEDY DALE F      716 WHITE OAKS AVE                      000N        CARE OF             
MTR08538500001000000000000000RA              45386200    005801010000010100000520000003NN  NNW 000                       N    
RDG08538500WATRL000000004K00000000000001141010002072015111005N000000000000N87       000100400K 10000000010000001131           
CUS0853850000108402975000         DRECHSLER JOSEPH J,J718 WHITE OAKS AVE                      000N        CARE OF             
MTR08538500001000000000000000RA              45384921    005801020000010200000520000003NN  NNW 000                       N    
RDG08538500WATRL000000004K00000000000001496010102072015111008N000000000000N87       000030400K 10000000010000001456           
CUS0853850000108414356009         BOWMAN JERRY G      724 WHITE OAKS AVE                      000N        CARE OF             
MTR08538500001000000000000000RA              48582598    005801030000010300000520000003NN  NNW 000                       N    
RDG08538500WATRL000000004K00000000000002692010202072015111011N000000000000N87       000030400K 10000000010000002662           
CUS0853850000108414355001         TAKENO KANJI        726 WHITE OAKS AVE                      000N        CARE OF             
MTR08538500001000000000000000RA              48582597    005801040000010400000520000003NN  NNW 000                       N    
RDG08538500WATRL000000004K00000000000001350010302072015111013N000000000000N87       000020400K 10000000010000001330           
CUS0853850000108414354004         SABOURIN KENNETH R  728 WHITE OAKS AVE                      000N        CARE OF             
MTR08538500001000000000000000RA              48582595    005801050000010500000520000003NN  NNW 000                       N    
RDG08538500WATRL000000004K00000000000002627010402072015111017N000000000000N87       000040400K 10000000010000002602           
CUS0853850000108414353006         MITCHELL RICHARD E  730 WHITE OAKS AVE                      000N        CARE OF             
MTR08538500001000000000000000RA              48582594    005801060000010600000520000003NN  NNW 000                       N    
RDG08538500WATRL000000004K00000000000004413010502072015111021N000000000000N87       000040400K 10000000010000004367           
CUS0853850000108414352008         CHRISTOPHER G BLYTH 732 WHITE OAKS AVE                      000N        CARE OF             
MTR08538500001000000000000000RA              48582599    005801070000010700000520000003NN  NNW 000                       N    
RDG08538500WATRL000000004K00000000000002263010602072015111024N000000000000N87       000030400K 10000000010000002236           
CUS0853850000108414351000         GENOA JOHN          734 WHITE OAKS AVE                      000N        CARE OF             
MTR08538500001000000000000000RA              76348576    005801080000010800000350000003NN  NNW 000                       N    
RDG08538500WATRL000000004K00000000000000036010702072015111027N000000000000N87       000030400K 10000000010000000024           
CUS0853850000108414350002         MCDONALD GREGORY S  736 WHITE OAKS AVE                      000N        CARE OF             
MTR08538500001000000000000000RA              48582631    005801090000010900000520000003NN  NNW 000                       N    
RDG08538500WATRL000000004K00000000000001647010802072015111032N000000000000N87       000050400K 10000000010000001631           
CUS0853850000108414349004         ALDAVE ROBERTO A    738 WHITE OAKS AVE                      000N        CARE OF             
MTR08538500001000000000000000RA              48582039    005801100000011000000520000003NN  NNW 000                       N    
RDG08538500WATRL000000004K00000000000001727010902072015111034N000000000000N87       000020400K 10000000010000001700           
CUS0853850000108414362007         BAUHAUS DENNIS A    740 WHITE OAKS AVE                      000N        CARE OF             
MTR08538500001000000000000000RA              46883212    005801110000011100000520000003NN  NNW 000                       N    
RDG08538500WATRL000000004K00000000000001701011002072015111041N000000000000N87       000070400K 10000000010000001690           
CUS0853850000108414348006         LANCIOTTI VICTOR A  742 WHITE OAKS AVE                      000N        CARE OF             
MTR08538500001000000000000000RA              48583683    005801120000011200000520000003NN  NNW 000                       N    
RDG08538500WATRL000000004K00000000000001979011102072015111045N000000000000N87       000040400K 10000000010000001953           
CUS0853850000108414347008         WHITLEY ROBERT A    744 WHITE OAKS AVE                      000N        CARE OF             
MTR08538500001000000000000000RA              48596208    005801130000011300000520000003NN  NNW 000                       N    
RDG08538500WATRL000000004K00000000000002126011202072015111051N000000000000N87       000060400K 10000000010000002112           
CUS0853850000108414346000         SZCZEPANIK STEPHEN H746 WHITE OAKS AVE                      000N        CARE OF             
MTR08538500001000000000000000RA              48583692    005801140000011400000520000003NN  NNW 000                       N    
RDG08538500WATRL000000004K00000000000001700011302072015111054N000000000000N87       000030400K 10000000010000001689           
CUS0853850000108414345002         PATRICIA H SWEEMER  748 WHITE OAKS AVE                      000N        CARE OF             
MTR08538500001000000000000000RA              48583703    005801150000011500000520000003NN  NNW 000                       N    
RDG08538500WATRL000000004K00000000000001929011402072015111057N000000000000N87       000030400K 10000000010000001903           
CUS0853850000108414344005         SHARRER WAYNE       750 WHITE OAKS AVE                      000N        CARE OF             
MTR08538500001000000000000000RA              50480615    005801160000011600000520000003NN  NNW 000                       N    
RDG08538500WATRL000000004K00000000000001196011502072015111058N000000000000N87       000010400K 10000000010000001183           
CUS0853850000108414343007         SCHIAVONE DEBORAH S 752 WHITE OAKS AVE                      000N        CARE OF             
MTR08538500001000000000000000RA              48596209    005801170000011700000520000003NN  NNW 000                       N    
RDG08538500WATRL000000004K00000000000002075011602072015111101N000000000000N87       000030400K 10000000010000002060           
CUS0853850000108414342009         MISHOOK JACOB J     754 WHITE OAKS AVE                      000N        CARE OF             
MTR08538500001000000000000000RA              48583700    005801180000011800000520000003NN  NNW 000                       N    
RDG08538500WATRL000000004K00000000000002935011702072015111103N000000000000N87       000020400K 10000000010000002921           
CUS0853850000108414341001         NOPPENBERGER LOUIS J753 WHITE OAKS AVE                      000N        CARE OF             
MTR08538500001000000000000000RA              48583681    005801190000011900000520000003NN  NNW 000                       N    
RDG08538500WATRL000000004K00000000000001549011802072015111105N000000000000N87       000020400K 10000000010000001532           
CUS0853850000108414340003         TOTH LOUIS T        751 WHITE OAKS AVE                      000N        CARE OF             
MTR08538500001000000000000000RA              48583680    005801200000012000000520000003NN  NNW 000                       N    
RDG08538500WATRL000000004K00000000000001640011902072015111107N000000000000N87       000020400K 10000000010000001624           
CUS0853850000108414339005         WIEGEL MICHAEL J    749 WHITE OAKS AVE                      000N        CARE OF             
MTR08538500001000000000000000RA              48583682    005801210000012100000520000003NN  NNW 000                       N    
RDG08538500WATRL000000004K00000000000001447012002072015111109N000000000000N87       000020400K 10000000010000001435           
CUS0853850000108414338007         JUSTIN M LENNON     747 WHITE OAKS AVE                      000N        CARE OF             
MTR08538500001000000000000000RA              48596211    005801220000012200000520000003NN  NNW 000                       N    
RDG08538500WATRL000000004K00000000000001757012102072015111111N000000000000N87       000020400K 10000000010000001739           
CUS0853850000108414337009         NORTON KEVIN P      745 WHITE OAKS AVE                      000N        CARE OF             
MTR08538500001000000000000000RA              48583702    005801230000012300000520000003NN  NNW 000                       N    
RDG08538500WATRL000000004K00000000000002061012202072015111113N000000000000N87       000020400K 10000000010000002036           
CUS0853850000108414336001         CHARLES H. FLELD    743 WHITE OAKS AVE                      000N        CARE OF             
MTR08538500001000000000000000RA              48583685    005801240000012400000520000003NN  NNW 000                       N    
RDG08538500WATRL000000004K00000000000002866012302072015111118N000000000000N87       000050400K 10000000010000002852           
CUS0853850000108414357007         POLIGNONE ANTHONY T 741 WHITE OAKS AVE                      000N        CARE OF             
MTR08538500001000000000000000RA              48596213    005801250000012500000520000003NN  NNW 000                       N    
RDG08538500WATRL000000004K00000000000001784012402072015111128N000400000010N87       000100400K 10000000010000001763           
CUS0853850000108416784000         RICHARTS CHARLES T  1 SILKTREE CT                           000N        CARE OF             
MTR08538500001000000000000000RA              48584807    005801260000012600000520000003NN  NNW 000                       N    
RDG08538500WATRL000000004K00000000000002539012502072015111136N000000000000N87       000080400K 10000000010000002515           
CUS0853850000108411965000         PERAGINE RICHARD J  3 SILKTREE CT                           000N        CARE OF             
MTR08538500001000000000000000RA              46876822    005801270000012700000520000003NN  NNW 000                       N    
RDG08538500WATRL000000004K00000000000002439012602072015111155N000000000000N87       000190400K 10000000010000002414           
CUS0853850000108411964003         BLAIR JEFFREY C     5 SILKTREE CT                           000N        CARE OF             
MTR08538500001000000000000000RA              46877030    005801280000012800000520000003NN  NNW 000                       N    
RDG08538500WATRL000000004K00000000000001780012702072015111158N000000000000N87       000030400K 10000000010000001768           
CUS0853850000108411963005         TEETERS MARK R      7 SILKTREE CT                           000N        CARE OF             
MTR08538500001000000000000000RA              46877157    005801290000012900000520000003NN  NNW 000                       N    
RDG08538500WATRL000000004K00000000000002857000102092015074005N000000000000U88       000000400K 10000000010000002824           
CUS0853850000108411962007         GARY MARTIN L       9 SILKTREE CT                           000N        CARE OF             
MTR08538500001000000000000000RA              46877231    005801300000013000000520000003NN  NNW 000                       N    
RDG08538500WATRL000000004K00000000000002359000202092015074008N000000000000U88       000030400K 10000000010000002340           
CUS0853850000108411961009         JILLSON WILLIAM K   11 SILKTREE CT                          000N        CARE OF             
MTR08538500001000000000000000RA              46877032    005801310000013100000520000003NN  NNW 000                       N    
RDG08538500WATRL000000004K00000000000006953000302092015074016N000400000010U88       000080400K 10000000010000006934           
CUS0853850000108411960001         CLIFTON DONALD H    13 SILKTREE CT                          000N        CARE OF             
MTR08538500001000000000000000RA              46877207    005801320000013200000520000003NN  NNW 000                       N    
RDG08538500WATRL000000004K00000000000001122000402092015074022N000000000000U88       000060400K 10000000010000001117           
CUS0853850000108411959003         JASON VOLKER        15 SILKTREE CT                          000N        CARE OF             
MTR08538500001000000000000000RA              48582539    005801330000013300000520000003NN  NNW 000                       N    
RDG08538500WATRL000000004K00000000000001932000502102015143057O000000000010U80       000110400K 10000000010000001924           
CUS0853850000108411958005         HARLOWE JERRY L     8 SILKTREE CT                           000N        CARE OF             
MTR08538500001000000000000000RA              48582175    005801340000013400000520000003NN  NNW 000                       N    
RDG08538500WATRL000000004K00000000000002319000602092015074039N000000000010U88       000060400K 10000000010000002300           
CUS0853850000108411957007         LUCK ROBERT S,JR    6 SILKTREE CT                           000N        CARE OF             
MTR08538500001000000000000000RA              99289894    005801350000013500000570000003NN  NNW 000                       N    
RDG08538500WATRL000000004K00000000000001663000702092015074043N000000000000U88       000040400K 10000000010000001643           
CUS0853850000108411956009         TACKA JOSEPH B      4 SILKTREE CT                           000N        CARE OF             
MTR08538500001000000000000000RA              48582197    005801360000013600000520000003NN  NNW 000                       N    
RDG08538500WATRL000000004K00000000000002955000802092015074048N000000000000U88       000050400K 10000000010000002937           
CUS0853850000108414358005         CAIN MALCOLM E      735 WHITE OAKS AVE                      000N        CARE OF             
MTR08538500001000000000000000RA              48583705    005801370000013700000520000003NN  NNW 000                       N    
RDG08538500WATRL000000004K00000000000001947000902092015074051N000000000000U88       000030400K 10000000010000001931           
CUS0853850000108414359003         CASTLE JOHN R       733 WHITE OAKS AVE                      000N        CARE OF             
MTR08538500001000000000000000RA              48582634    005801380000013800000520000003NN  NNW 000                       N    
RDG08538500WATRL000000004K00000000000001440001002092015074100N000300000010U88       000090400K 10000000010000001393           
CUS0853850000108414360001         SCRIBA H DOUGLAS    731 WHITE OAKS AVE                      000N        CARE OF             
MTR08538500001000000000000000RA              48582630    005801390000013900000520000003NN  NNW 000                       N    
RDG08538500WATRL000000004K00000000000002126001102092015074103N000000000000U88       000030400K 10000000010000002093           
CUS0853850000108414361009         MIFSUD ANTHONY      729 WHITE OAKS AVE                      000N        CARE OF             
MTR08538500001000000000000000RA              99289932    005801400000014000000570000003NN  NNW 000                       N    
RDG08538500WATRL000000004K00000000000001590001202092015074107N000000000000U88       000040400K 10000000010000001568           
CUS0853850000108411955001         BRANNON EDWARD A    1 SCOTCH ELM CT                         000N        CARE OF             
MTR08538500001000000000000000RA              46877064    005801410000014100000520000003NN  NNW 000                       N    
RDG08538500WATRL000000004K00000000000003009001302092015074111N000000000000U88       000040400K 10000000010000002978           
CUS0853850000108411954004         SHIPLEY MICHAEL A   3 SCOTCH ELM CT                         000N        CARE OF             
MTR08538500001000000000000000RA              46886359    005801420000014200000520000003NN  NNW 000                       N    
RDG08538500WATRL000000004K00000000000004388001402092015074119N000400000010U88       000080400K 10000000010000004356           
CUS0853850000108411953006         MCAVAN ROBERT       5 SCOTCH ELM CT                         000N        CARE OF             
MTR08538500001000000000000000RA              52289878    005801430000014300000520000003NN  NNW 000                       N    
RDG08538500WATRL000000004K00000000000001168001502092015074124N000000000000U88       000050400K 10000000010000001153           
CUS0853850000108411952008         BENEFIEL BRADLEY    7 SCOTCH ELM CT                         000N        CARE OF             
MTR08538500001000000000000000RA              46877031    005801440000014400000520000003NN  NNW 000                       N    
RDG08538500WATRL000000004K00000000000002481001602092015074128N000000000000U88       000040400K 10000000010000002468           
CUS0853850000108411951000         CARY RAIMON B,3RD/MA9 SCOTCH ELM CT                         000N        CARE OF             
MTR08538500001000000000000000RA              46877102    005801450000014500000520000003NN  NNW 000                       N    
RDG08538500WATRL000000004K00000000000003084001702092015074135N000000000000U88       000070400K 10000000010000003069           
CUS0853850000108411950002         SZCZYBOR PAUL D     11 SCOTCH ELM CT                        000N        CARE OF             
MTR08538500001000000000000000RA              46877154    005801460000014600000520000003NN  NNW 000                       N    
RDG08538500WATRL000000004K00000000000002668001802092015074139N000000000000U88       000040400K 10000000010000002644           
CUS0853850000108411949004         THOMAS CHARLES LEE,J13 SCOTCH ELM CT                        000N        CARE OF             
MTR08538500001000000000000000RA              46877103    005801470000014700000520000003NN  NNW 000                       N    
RDG08538500WATRL000000004K00000000000002369001902092015074143N000000000000U88       000040400K 10000000010000002350           
CUS0853850000108411948006         RAMSLAND FINN C     15 SCOTCH ELM CT                        000N        CARE OF             
MTR08538500001000000000000000RA              01099972    005801480000014800000610000003NY  NNW 000                       N    
MTM0853850001099972    CLEANOUT                                                                                               
RDG08538500WATRL000000004K00000000000000000000000000000000000 000000000000U         000000400  10000000010000002969           
CUS0853850000108411947008         GUNDE KEVIN E       17 SCOTCH ELM CT                        000N        CARE OF             
MTR08538500001000000000000000RA              46877226    005801490000014900000520000003NN  NNW 000                       N    
RDG08538500WATRL000000004K00000000000001523002002092015074207N000000000000U88       000240400K 10000000010000001507           
CUS0853850000108411946000         HENDERSON JOHN D    19 SCOTCH ELM CT                        000N        CARE OF             
MTR08538500001000000000000000RA              46877168    005801500000015000000520000003NN  NNW 000                       N    
RDG08538500WATRL000000004K00000000000001675002102092015074215N000000000000U88       000080400K 10000000010000001653           
CUS0853850000108411945002         HESTER KARL C       12 SCOTCH ELM CT                        000N        CARE OF             
MTR08538500001000000000000000RA              46886357    005801510000015100000520000003NN  NNW 000                       N    
RDG08538500WATRL000000004K00000000000001166002202092015074218N000000000000U88       000030400K 10000000010000001147           
CUS0853850000108411944005         RAPA NANCY L        10 SCOTCH ELM CT                        000N        CARE OF             
MTR08538500001000000000000000RA              46877227    005801520000015200000520000003NN  NNW 000                       N    
RDG08538500WATRL000000004K00000000000001649002302092015074223N000000000000U88       000050400K 10000000010000001633           
CUS0853850000108411943007         HUFFORD MICHAEL M   8 SCOTCH ELM CT                         000N        CARE OF             
MTR08538500001000000000000000RA              46877248    005801530000015300000520000003NN  NNW 000                       N    
RDG08538500WATRL000000004K00000000000002694002402092015074226N000000000000U88       000030400K 10000000010000002676           
CUS0853850000108411942009         HERWIG MICHAEL J    6 SCOTCH ELM CT                         000N        CARE OF             
MTR08538500001000000000000000RA              46877249    005801540000015400000520000003NN  NNW 000                       N    
RDG08538500WATRL000000004K00000000000002269002502092015074231N000000000000U88       000050400K 10000000010000002254           
CUS0853850000108411940003         CURRY JEANETTE M    4 SCOTCH ELM CT                         000N        CARE OF             
MTR08538500001000000000000000RA              14919412    005801550000015500000310000003NN  NNW 000                       N    
RDG08538500WATRL000000004K00000000000001657002602092015074235N000000000000U88       000040400K 10000000010000001633           
CUS0853850000108411938007         BLUM THOMAS J       2 SCOTCH ELM CT                         000N        CARE OF             
MTR08538500001000000000000000RA              48582193    005801560000015600000520000003NN  NNW 000                       N    
RDG08538500WATRL000000004K00000000000003116002702092015074239N000000000000U88       000040400K 10000000010000003080           
CUS0853850000108411935003         GUNDLACH JAMES D    1 SWEETGUM CT                           000N        CARE OF             
MTR08538500001000000000000000RA              46877246    005801570000015700000520000003NN  NNW 000                       N    
RDG08538500WATRL000000004K00000000000002382002802092015074247N000300000010U88       000080400K 10000000010000002366           
CUS0853850000108411934006         BOWMAN PHILIP C     3 SWEETGUM CT                           000N        CARE OF             
MTR08538500001000000000000000RA              46877247    005801580000015800000520000003NN  NNW 000                       N    
RDG08538500WATRL000000004K00000000000003258002902092015074317N000000000000U88       000300400K 10000000010000003220           
CUS0853850000108411933008         WEISS WILLIAM M     5 SWEETGUM CT                           000N        CARE OF             
MTR08538500001000000000000000RA              46885962    005801590000015900000520000003NN  NNW 000                       N    
RDG08538500WATRL000000004K00000000000002764003002092015074530N000000000000U88       001330400K 10000000010000002735           
CUS0853850000108411932000         STAUFFER LAWRENCE A 12 SWEETGUM CT                          000N        CARE OF             
MTR08538500001000000000000000RA              46886325    005801600000016000000520000003NN  NNW 000                       N    
RDG08538500WATRL000000004K00000000000001983003102092015074534N000000000000U88       000040400K 10000000010000001968           
CUS0853850000108411929006         MINETREE DAVID K    10 SWEETGUM CT                          000N        CARE OF             
MTR08538500001000000000000000RA              46877192    005801610000016100000520000003NN  NNW 000                       N    
RDG08538500WATRL000000004K00000000000002215003202092015074555N000000000000U88       000210400K 10000000010000002207           
CUS0853850000108411927000         QUEENEY THOMAS M    8 SWEETGUM CT                           000N        CARE OF             
MTR08538500001000000000000000RA              46877245    005801620000016200000520000003NN  NNW 000                       N    
RDG08538500WATRL000000004K00000000000002221003302092015074558N000000000000U88       000030400K 10000000010000002205           
CUS0853850000108411925004         DURHAM RICHARD E    6 SWEETGUM CT                           000N        CARE OF             
MTR08538500001000000000000000RA              46877101    005801630000016300000520000003NN  NNW 000                       N    
RDG08538500WATRL000000004K00000000000002892003402092015074604N000400000010U88       000060400K 10000000010000002878           
CUS0853850000108411923009         BEARD KEVIN L       4 SWEETGUM CT                           000N        CARE OF             
MTR08538500001000000000000000RA              46877100    005801640000016400000520000003NN  NNW 000                       N    
RDG08538500WATRL000000004K00000000000002505003502092015074610N000000000000U88       000060400K 10000000010000002478           
CUS0853850000108411922001         DEBOY JAMES J,JR    2 SWEETGUM CT                           000N        CARE OF             
MTR08538500001000000000000000RA              46886320    005801650000016500000520000003NN  NNW 000                       N    
RDG08538500WATRL000000004K00000000000004042003602092015074615N000000000000U88       000050400K 10000000010000004019           
CUS0853850000108408952003         HASH JOHN STUART    2 BITTERNUT CT                          000N        CARE OF             
MTR08538500001000000000000000RA              45383105    005801660000016600000520000003NN  NNW 000                       N    
RDG08538500WATRL000000004K00000000000002404003702092015074623N000000000000U88       000080400K 10000000010000002378           
CUS0853850000108408951005         ANDERSON JENNIFER K 4 BITTERNUT CT                          000N        CARE OF             
MTR08538500001000000000000000RA              45383104    005801670000016700000520000003NN  NNW 000                       N    
RDG08538500WATRL000000004K00000000000002730003802092015074627N000000000000U88       000040400K 10000000010000002706           
CUS0853850000108408950007         ROBBINS THOMAS C    6 BITTERNUT CT                          000N        CARE OF             
MTR08538500001000000000000000RA              45379083    005801680000016800000520000003NN  NNW 000                       N    
RDG08538500WATRL000000004K00000000000004009003902092015074635N000000000000U88       000080400K 10000000010000003960           
CUS0853850000108408949009         BITTNER KEVIN M     8 BITTERNUT CT                          000N        CARE OF             
MTR08538500001000000000000000RA              45383108    005801690000016900000520000003NN  NNW 000                       N    
RDG08538500WATRL000000004K00000000000002556004002092015074645N000400000010U88       000100400K 10000000010000002510           
CUS0853850000108408948001         FURLETTI JAMES E    10 BITTERNUT CT                         000N        CARE OF             
MTR08538500001000000000000000RA              45381895    005801700000017000000520000003NN  NNW 000                       N    
RDG08538500WATRL000000004K00000000000002829004102092015074704N000000000000U88       000190400K 10000000010000002797           
CUS0853850000108408947003         SIMPSON JOSEPH F    12 BITTERNUT CT                         000N        CARE OF             
MTR08538500001000000000000000RA              45383206    005801710000017100000520000003NN  NNW 000                       N    
RDG08538500WATRL000000004K00000000000002003004202092015074709N000000000000U88       000050400K 10000000010000001983           
CUS0853850000108408946005         BOGUSZ RAYMOND      14 BITTERNUT CT                         000N        CARE OF             
MTR08538500001000000000000000RA              45383210    005801720000017200000520000003NN  NNW 000                       N    
RDG08538500WATRL000000004K00000000000001856004302092015074712N000000000000U88       000030400K 10000000010000001843           
CUS0853850000108408945007         BENDANN MARK E      16 BITTERNUT CT                         000N        CARE OF             
MTR08538500001000000000000000RA              45373000    005801730000017300000520000003NN  NNW 000                       N    
RDG08538500WATRL000000004K00000000000002514004402092015074715N000000000000U88       000030400K 10000000010000002498           
CUS0853850000108408944000         FIBICH LINDA S      18 BITTERNUT CT                         000N        CARE OF             
MTR08538500001000000000000000RA              45374179    005801740000017400000520000003NN  NNW 000                       N    
RDG08538500WATRL000000004K00000000000002735004502092015074722N000000000000U88       000070400K 10000000010000002724           
CUS0853850000108408943002         WHITELEY ROBERT A   20 BITTERNUT CT                         000N        CARE OF             
MTR08538500001000000000000000RA              45374014    005801750000017500000520000003NN  NNW 000                       N    
RDG08538500WATRL000000004K00000000000002474004602092015074744N000000000011U88       000160400K 10000000010000002454           
CUS0853850000108408953001         LIBERTO JO ANN SAIA 3 BITTERNUT CT                          000N        CARE OF             
MTR08538500001000000000000000RA              45377884    005801760000017600000520000003NN  NNW 000                       N    
RDG08538500WATRL000000004K00000000000003219004702092015074756N000000000000U88       000120400K 10000000010000003212           
CUS0853850000108408942004         MARCUS BRETT        713 WHITE OAKS AVE                      000N        CARE OF             
MTR08538500001000000000000000RA              45388728    005801770000017700000520000003NN  NNW 000                       N    
RDG08538500WATRL000000004K00000000000000000000000000000000000 000000000000U         000000400  10000000010000002286           
CUS0853850000108402766003         WOIZESKO MICHAEL R,24 APPLE TREE CT                         000N        CARE OF             
MTR08538500001000000000000000RA              10005585    005801780000017800000570000003NN  NNW 000                       N    
RDG08538500WATRL000000004K00000000000000737004802092015074812N000000000000U88       000160400K 10000000010000000714           
CUS0853850000108402767001         TRAYNOR KEVIN       6 APPLE TREE CT                         000N        CARE OF             
MTR08538500001000000000000000RA              41082256    005801790000017900000520000003NN  NNW 000                       N    
RDG08538500WATRL000000004K00000000000003242004902092015074816N000000000000U88       000040400K 10000000010000003218           
CUS0853850000108402768009         MASON GILBERT A,3RD 8 APPLE TREE CT                         000N        CARE OF             
MTR08538500001000000000000000RA              41082260    005801800000018000000520000003NN  NNW 000                       N    
RDG08538500WATRL000000004K00000000000003416005002092015074819N000000000000U88       000030400K 10000000010000003390           
CUS0853850000108402757002         JESSOP FREDERICK C,J10 APPLE TREE CT                        000N        CARE OF             
MTR08538500001000000000000000RA              42808000    005801810000018100000520000003NN  NNW 000                       N    
RDG08538500WATRL000000004K00000000000002396005102092015074825N000400000010U88       000060400K 10000000010000002390           
CUS0853850000108402758000         MORTON DOUGLAS R    12 APPLE TREE CT                        000N        CARE OF             
MTR08538500001000000000000000RA              41086691    005801820000018200000520000003NN  NNW 000                       N    
RDG08538500WATRL000000004K00000000000003291005202092015074832N000000000000U88       000070400K 10000000010000003272           
CUS0853850000108402759008         ERICA GINSBERG      14 APPLE TREE CT                        000N        CARE OF             
MTR08538500001000000000000000RA              41086685    005801830000018300000520000003NN  NNW 000                       N    
RDG08538500WATRL000000004K00000000000003550005302092015074839N000000000000U88       000070400K 10000000010000003531           
CUS0853850000108402760006         CHRISTOPHER DANIEL  16 APPLE TREE CT                        000N        CARE OF             
MTR08538500001000000000000000RA              41082367    005801840000018400000520000003NN  NNW 000                       N    
RDG08538500WATRL000000004K00000000000003086005402092015074845N000000000000U88       000060400K 10000000010000003067           
CUS0853850000108402761004         KOROLOGOS TRIANTAFIL18 APPLE TREE CT                        000N        CARE OF             
MTR08538500001000000000000000RA              41082818    005801850000018500000520000003NN  NNW 000                       N    
RDG08538500WATRL000000004K00000000000002853005502092015074856N000000000000U88       000110400K 10000000010000002827           
CUS0853850000108402756004         BARTLINSKI EDWARD   20 APPLE TREE CT                        000N        CARE OF             
MTR08538500001000000000000000RA              41082355    005801860000018600000520000003NN  NNW 000                       N    
RDG08538500WATRL000000004K00000000000004746005602092015074900N000000000000U88       000040400K 10000000010000004712           
CUS0853850000108402755006         MORTON THOMAS W,JR  13 APPLE TREE CT                        000N        CARE OF             
MTR08538500001000000000000000RA              41082340    005801870000018700000520000003NN  NNW 000                       N    
RDG08538500WATRL000000004K00000000000003675005702092015074905N000000000000U88       000050400K 10000000010000003657           
CUS0853850000108402754009         KRAUS PAUL T        11 APPLE TREE CT                        000N        CARE OF             
MTR08538500001000000000000000RA              42808011    005801880000018800000520000003NN  NNW 000                       N    
RDG08538500WATRL000000004K00000000000003051005802092015074908N000000000000U88       000030400K 10000000010000003029           
CUS0853850000108402753001         BEYNON MARK         9 APPLE TREE CT                         000N        CARE OF             
MTR08538500001000000000000000RA              42808009    005801890000018900000520000003NN  NNW 000                       N    
RDG08538500WATRL000000004K00000000000002836005902092015074912N000000000000U88       000040400K 10000000010000002818           
CUS0853850000108402765005         CAMPBELL DONALD JOSE7 APPLE TREE CT                         000N        CARE OF             
MTR08538500001000000000000000RA              44091306    005801900000019000000520000003NN  NNW 000                       N    
RDG08538500WATRL000000004K00000000000004211006002092015074933N000000000000U88       000210400K 10000000010000004152           
CUS0853850000108402764008         GANDHI DINESH P     5 APPLE TREE CT                         000N        CARE OF             
MTR08538500001000000000000000RA              42808050    005801910000019100000520000003NN  NNW 000                       N    
RDG08538500WATRL000000004K00000000000004356006102092015074953N000000000000U88       000200400K 10000000010000004313           
CUS0853850000108402763000         PALMISANO MARK      3 APPLE TREE CT                         000N        CARE OF             
MTR08538500001000000000000000RA              45378379    005801920000019200000520000003NN  NNW 000                       N    
RDG08538500WATRL000000004K00000000000003626006202092015074957N000000000000U88       000040400K 10000000010000003603           
CUS0853850000108402762002         KERSHAW EDWIN R     1 APPLE TREE CT                         000N        CARE OF             
MTR08538500001000000000000000RA              42808001    005801930000019300000520000003NN  NNW 000                       N    
RDG08538500WATRL000000004K00000000000002576006302092015075012N000400000010U88       000150400K 10000000010000002567           
CUS0853850000108402985009         CARR CLEMENTINE D   703 WHITE OAKS AVE                      000N        CARE OF             
MTR08538500001000000000000000RA              45379637    005801940000019400000520000003NN  NNW 000                       N    
RDG08538500WATRL000000004K00000000000001625006402092015075017N000000000000U88       000050400K 10000000010000001613           
CUS0853850000108402986007         MCNAMARA JOSEPH M   701 WHITE OAKS AVE                      000N        CARE OF             
MTR08538500001000000000000000RA              45387481    005801950000019500000520000003NN  NNW 000                       N    
RDG08538500WATRL000000004K00000000000003841006502092015075025N000000000000U88       000080400K 10000000010000003819           
CUS0853850000108388695002         WEISKOPF FRANCIS B,J609 HILTON AVE                          000N        CARE OF             
MTR08538500001000000000000000RA              35118570    005801960000019600000520000003NN  NNW 000                       N    
RDG08538500WATRL000000004K00000000000003735006602092015075029N000000000000U88       000040400K 10000000010000003714           
CUS0853850000108422488000         DUBYOSKI JAMES N    1411 FOREST GLEN CT                     000N        CARE OF             
MTR08538500001000000000000000RA              99291596    005801970000019700000570000003NN  NNW 000                       N    
RDG08538500WATRL000000004K00000000000002110006702092015075033N000000000000U88       000040400K 10000000010000002076           
CUS0853850000108428047008         WALLS CHRISTOPHER C 1413 FOREST GLEN CT                     000N        CARE OF             
MTR08538500001000000000000000RA              01111997    005801980000019800000610000003NN  NNW 000                       N    
RDG08538500WATRL000000004K00000000000001511006802092015075037N000000000000U88       000040400K 10000000010000001482           
CUS0853850000108422489008         SOBOLESKI JOHN E    1409 FOREST GLEN CT                     000N        CARE OF             
MTR08538500001000000000000000RA              54348318    005801990000019900000520000003NN  NNW 000                       N    
RDG08538500WATRL000000004K00000000000001597006902092015075108N000000000000U88       000310400K 10000000010000001584           
CUS0853850000108422490006         HINKEY MICHAEL E    1407 FOREST GLEN CT                     000N        CARE OF             
MTR08538500001000000000000000RA              99291592    005802000000020000000570000003NN  NNW 000                       N    
RDG08538500WATRL000000004K00000000000000906007002092015075116N000000000000U88       000080400K 10000000010000000896           
CUS0853850000108422420003         HEWINS DANIEL R     1405 FOREST GLEN CT                     000N        CARE OF             
MTR08538500001000000000000000RA              41080683    005802010000020100000520000003NN  NNW 000                       N    
RDG08538500WATRL000000004K00000000000003442007102092015075119N000000000000U88       000030400K 10000000010000003422           
CUS0853850000108422421001         KERSSE MARTIN G     1403 FOREST GLEN CT                     000N        CARE OF             
MTR08538500001000000000000000RA              50787382    005802020000020200000520000003NN  NNW 000                       N    
RDG08538500WATRL000000004K00000000000001628007202092015075123N000000000000U88       000040400K 10000000010000001605           
CUS0853850000108422419005         MACARI BRIAN G      1400 FOREST GLEN CT                     000N        CARE OF             
MTR08538500001000000000000000RA              50790906    005802030000020300000520000003NN  NNW 000                       N    
RDG08538500WATRL000000004K00000000000003541007302092015075126N000000000000U88       000030400K 10000000010000003532           
CUS0853850000108422388002         SCHULTZ JAMES M     1402 FOREST GLEN CT                     000N        CARE OF             
MTR08538500001000000000000000RA              50481241    005802040000020400000520000003NN  NNW 000                       N    
RDG08538500WATRL000000004K00000000000004001007402092015075129N000000000000U88       000030400K 10000000010000003943           
CUS0853850000104422418006         DAMBROSIO CAREY P   1404 FOREST GLEN CT                     000N        CARE OF             
MTR08538500001000000000000000RA              50787542    005802050000020500000520000003NN  NNW 000                       N    
RDG08538500WATRL000000004K00000000000003087007502092015075132N000000000000U88       000030400K 10000000010000003042           
CUS0853850000108422389000         FELTS H CLINTON,JR  1406 FOREST GLEN CT                     000N        CARE OF             
MTR08538500001000000000000000RA              50481258    005802060000020600000520000003NN  NNW 000                       N    
RDG08538500WATRL000000004K00000000000002521007602092015075135N000000000000U88       000030400K 10000000010000002484           
CUS0853850000108422492002         LANGAN TIMOTHY J    1408 FOREST GLEN CT                     000N        CARE OF             
MTR08538500001000000000000000RA              45380859    005802070000020700000520000003NN  NNW 000                       N    
RDG08538500WATRL000000004K00000000000003249007702092015075138N000000000000U88       000030400K 10000000010000003224           
CUS0853850000108422491004         MITZELFELT RONALD L 1410 FOREST GLEN CT                     000N        CARE OF             
MTR08538500001000000000000000RA              52770098    005802080000020800000520000003NN  NNW 000                       N    
RDG08538500WATRL000000004K00000000000001618007802092015075142N000000000000U88       000040400K 10000000010000001599           
CUS0853850000108422493000         WALTER THOMAS A     1412 FOREST GLEN CT                     000N        CARE OF             
MTR08538500001000000000000000RA              50480486    005802090000020900000520000003NN  NNW 000                       N    
RDG08538500WATRL000000004K00000000000001943007902092015075149N000000000000U88       000070400K 10000000010000001918           
CUS0853850000108428048006         BAINBRIDGE JEFFREY S1414 FOREST GLEN CT                     000N        CARE OF             
MTR08538500001000000000000000RA              99188676    005802100000021000000570000003NN  NNW 000                       N    
RDG08538500WATRL000000004K00000000000001589008002092015075152N000000000000U88       000030400K 10000000010000001558           
CUS0853850000108014939006         BATMAN WILLIAM R    607 HILTON AVE                          000N        CARE OF             
MTR08538500001000000000000000RA              99289861    005802110000021100000570000003NY  NNW 000                       N    
MTM0853850099289861    CANT FIND                                                                                              
RDG08538500WATRL000000004K00000000000000000000000000000000000 000000000000U         000000400  10000000010000001173           
CUS0853850000108014940004         MCDONALD PATRICK C  605 HILTON AVE                          000N        CARE OF             
MTR08538500001000000000000000RA              52286353    005802120000021200000520000003NY  NNW 000                       N    
MTM0853850052286353    CANT FIND                                                                                              
RDG08538500WATRL000000004K00000000000000000000000000000000000 000000000000U         000000400  10000000010000001316           
CUS0853850000108403655007         MCKEW STEVEN V      1400 VALLEY VIEW AVE                    000N        CARE OF             
MTR08538500001000000000000000RA              41087254    005802130000021300000520000003NN  NNW 000                       N    
RDG08538500WATRL000000004K00000000000002387008102092015075210N000000000000U88       000180400K 10000000010000002374           
CUS0853850000108404041009         LIBERTINI EDWARD A  1402 VALLEY VIEW AVE                    000N        CARE OF             
MTR08538500001000000000000000RA              42808930    005802140000021400000520000003NN  NNW 000                       N    
RDG08538500WATRL000000004K00000000000003007008202102015143137O000000000010U80       000070400K 10000000010000002994           
CUS0853850000108402573003         TANNER JOHN S       1406 VALLEY VIEW AVE                    000N        CARE OF             
MTR08538500001000000000000000RA              41081213    005802150000021500000520000003NN  NNW 000                       N    
RDG08538500WATRL000000004K00000000000003295008302092015075224N000000000000U88       000070400K 10000000010000003278           
CUS0853850000108416283003         KELTY MARY T        1405 VALLEY VIEW AVE                    000N        CARE OF             
MTR08538500001000000000000000RA              52289858    005802160000021600000520000000NN  NNW 000                       N    
RDG08538500WATRL000000004K00000000000001140008402092015075229N000400000010U88       000050400K 10000000010000001125           
CUS0853850000108403654000         KOETZLE NANCY S     1403 VALLEY VIEW AVE                    000N        CARE OF             
MTR08538500001000000000000000RA              41087163    005802170000021700000520000003NN  NNW 000                       N    
RDG08538500WATRL000000004K00000000000002319008502092015075243N000400000010U88       000140400K 10000000010000002308           
CUS0853850000108443386001         NETZER MICHAEL N    1401 VALLEY VIEW AVE                    000N        CARE OF             
MTR08538500001000000000000000RA              14929030    005802180000021800000310000003NN  NNW 000                       N    
RDG08538500WATRL000000004K00000000000000702008602092015075250N000000000000U88       000070400K 10000000010000000689           
CUS0853850000108014941002         MARTEL RICHARD I,JR 603 HILTON AVE                          000N        CARE OF             
MTR08538500001000000000000000RA              31587022    005802190000021900000520000003NN  NNW 000                       N    
RDG08538500WATRL000000004K00000000000005081008702092015075256N000000000000U88       000060400K 10000000010000005045           
CUS0853850000108014942000         ODONNELL JOHN B,JR  601 HILTON AVE                          000N        CARE OF             
MTR08538500001000000000000000RA              11334223    005802200000022000000570000003NN  NNW 000                       N    
RDG08538500WATRL000000004K00000000000003383008802092015075259N000000000000U88       000030400K 10000000010000003369           
RTR08538500NN02200220000002200000000002200220000023NY022002200220000500000000000000000000000002    01202015NY020000 N         
RHD08559900NN01870187000001870000000001870187000182NY018701870187000500000000000000000000000002    01292015NY020000 N         
CUS0855990000108023689006         WAHAJ REAL ESTATE LL5600 JOHNNYCAKE RD                      000N        CARE OF             
MTR08559900001000000000000000RA              22609942    005800010000000100000520000003NN  NNW 000                       N    
RDG08559900WATRL000000004K00000000000009669000102092015074945N000000000000N89       000000400K 10000000010000009669           
CUS0855990000108023685004         WESLEY MEML METHODIS5602 JOHNNYCAKE RD                      000N        CARE OF             
MTR08559900001000000000000000RA              99409027    000100020000000200000570000003NN  NNW 000                       N    
RDG08559900WATRL000000004K00000000000009553000602092015075656N000400000010N89       001920400K 10000000010000009544           
CUS0855990000108023686002         WESLEY MEMORIAL METH5606 JOHNNYCAKE RD                      000N        CARE OF             
MTR08559900001000000000000000RA              44092789    005800030000000300000520000003NN  NNW 000                       N    
RDG08559900WATRL000000004K00000000000002105000702092015075658N000000000000N89       000020400K 10000000010000002105           
CUS0855990000108023687000         MOSAIC COMMUNITY SER5608 JOHNNYCAKE RD                      000N        CARE OF             
MTR08559900001000000000000000RA              01094111    005800040000000400000610000003NN  NNW 000                       N    
RDG08559900WATRL000000004K00000000000001703000802092015080015N000000000000N89       001970400K 10000000010000001671           
CUS0855990000108023688008         ABELACHEW GETAHUN   5610 JOHNNYCAKE RD                      000N        CARE OF             
MTR08559900001000000000000000RA              75617686    005800050000000500000350000003NN  NNW 000                       N    
RDG08559900WATRL000000004K00000000000000806001102092015080310N000000000000N89       000780400K 10000000010000000734           
CUS0855990000108399072001         BOARDMAN S ROBERT   5604 TALBOT PL                          000N        CARE OF             
MTR08559900001000000000000000RA              40248877    007500060000000600000520000003NN  NNW 000                       N    
RDG08559900WATRL000000004K00000000000003793000202092015075051N000300000020N89       000660400K 10000000010000003285           
CUS0855990000108023690004         TETRA PARK LLC      5606 TALBOTT PL                         000N        CARE OF             
MTR08559900001000000000000000RA              01071132    005800070000000700000610000003NN  NNW 000                       N    
RDG08559900WATRL000000004K00000000000000134000302092015075156N000000000000N89       000650400K 10000000010000000128           
CUS0855990000108023691002         TEGELER PROPERTIES L5610 TALBOT PL                          000N        CARE OF             
MTR08559900001000000000000000RA              52286153    005800080000000800000520000003NN  NNW 000                       N    
RDG08559900WATRL000000004K00000000000002773000402092015075251N000000000000N89       000550400K 10000000010000002680           
CUS0855990000108023692000         STEFFEN FRIEDA E    1105 GREGORY AVE                        000N        CARE OF             
MTR08559900001000000000000000RA              10015404    005800090000000900000570000003NN  NNW 000                       N    
RDG08559900WATRL000000004K00000000000000124000502092015075344N000000000000N89       000530400K 10000000010000000114           
CUS0855990000108023693008         MCCOMAS AMELIA C    1107 GREGORY AVE                        000N        CARE OF             
MTR08559900001000000000000000RA              9596100     005800100000001000000570000003NN  NNW 000                       N    
RDG08559900WATRL000000004K00000000000001915001402092015080604N000400000010N89       000240400K 10000000010000001914           
CUS0855990000108023694006         SHARON DALEY        1109 GREGORY AVE                        000N        CARE OF             
MTR08559900001000000000000000RA              48585444    005800110000001100000520000003NN  NNW 000                       N    
RDG08559900WATRL000000004K00000000000000466001502092015080629N000400000010N89       000250400K 10000000010000000465           
CUS0855990000108023695003         PHELPS-YOUNG JANET-L1111 GREGORY AVE                        000N        CARE OF             
MTR08559900001000000000000000RA              48585445    005800120000001200000520000003NN  NNW 000                       N    
RDG08559900WATRL000000004K00000000000003381001802092015080755N000000000000N89       000220400K 10000000010000003381           
CUS0855990000108023696001         HANSEN DENISE A     1119 GREGORY AVE                        000N        CARE OF             
MTR08559900001000000000000000RA              39289476    005800130000001300000520000003NN  NNW 000                       N    
RDG08559900WATRL000000004K00000000000003950002802092015081558N000300000010N89       000380400K 10000000010000003893           
CUS0855990000108419842003         ROBINSON MARY M     5606 QUEEN ANNE ST                      000N        CARE OF             
MTR08559900001000000000000000RA              48594174    005800140000001400000520000003NN  NNW 000                       N    
RDG08559900WATRL000000004K00000000000001688002302092015081203N000000000000N89       000410400K 10000000010000001670           
CUS0855990000108382339003         KRAMER JOHN R,JR    5610 QUEEN ANNE ST                      000N        CARE OF             
MTR08559900001000000000000000RA              26001556    005800150000001500000520000000NN  NNW 000                       N    
RDG08559900WATRL000000004K00000000000004958002202092015081122N000000000000N89       000370400K 10000000010000004958           
CUS0855990000108397069009         RIDGELL JANNITA A   5612 QUEEN ANNE ST                      000N        CARE OF             
MTR08559900001000000000000000RA              39924681    005800160000001600000520000003NN  NNW 000                       N    
RDG08559900WATRL000000004K00000000000001852002102092015081045N000000000000N89       001110400K 10000000010000001852           
CUS0855990000108023697009         GREENAWAY VERONICA  5614 QUEEN ANNE ST                      000N        CARE OF             
MTR08559900001000000000000000RA              41590756    005800170000001700000520000003NN  NNW 000                       N    
RDG08559900WATRL000000004K00000000000002441002402092015081332N000000000000N89       000890400K 10000000010000002431           
CUS0855990000108023698007         AVERETTE CATHERINE  1201 GREGORY AVE                        000N        CARE OF             
MTR08559900001000000000000000RA              01071030    005800180000001800000610000003NN  NNW 000                       N    
RDG08559900WATRL000000004K00000000000002468002902092015081644N000000000000N89       000460400K 10000000010000002420           
CUS0855990000108023699005         MONROE CHARLES A,SR 5613 ST MARYS ST                        000N        CARE OF             
MTR08559900001000000000000000RA              01071032    005800190000001900000610000003NN  NNW 000                       N    
RDG08559900WATRL000000004K00000000000000545003302092015081927N000000000000N89       000740400K 10000000010000000520           
CUS0855990000108438116009         MERCHANT YOLANDA    5609 ST MARYS ST                        000N        CARE OF             
MTR08559900001000000000000000RA              14916473    005800200000002000000310000000NN  NNW 000                       N    
RDG08559900WATRL000000004K00000000000000363003502092015082058N000000000000N89       000530400K 10000000010000000349           
CUS0855990000108023700001         JOHNSON ERIC A      5607 ST MARYS ST                        000N        CARE OF             
MTR08559900001000000000000000RA              01077272    005800210000002100000610000003NN  NNW 000                       N    
RDG08559900WATRL000000004K00000000000000898003602092015082134N000000000000N89       000360400K 10000000010000000890           
CUS0855990000108023701009         APONTE ANN R        5605 ST MARYS ST                        000N        CARE OF             
MTR08559900001000000000000000RA              01071035    005800220000002200000610000003NN  NNW 000                       N    
RDG08559900WATRL000000004K00000000000001133003702092015082204N000000000000N89       000300400K 10000000010000001120           
CUS0855990000108023702007         RINEHART MICHAEL J  5603 ST MARYS ST                        000N        CARE OF             
MTR08559900001000000000000000RA              9684104     005800230000002300000570000003NY  NNW 000                       N    
MTM085599009684104     TRUCK                                                                                                  
RDG08559900WATRL000000004K00000000000000000000000000000000000 000000000000U         000000400  10000000010000006629           
CUS0855990000108372702004         ARLENE FIELDS-WILLIA5601 ST MARYS ST                        000N        CARE OF             
MTR08559900001000000000000000RA              52290030    005800240000002400000520000003NY  NNW 000                       N    
MTM0855990052290030    THICK ICE IN VAULT                                                                                     
RDG08559900WATRL000000004K00000000000000000000000000000000000 000000000000U         000000400  10000000010000001757           
CUS0855990000108023703005         HOERL MELVIN F JR   5600 ST MARYS ST                        000N        CARE OF             
MTR08559900001000000000000000RA              22608521    005800250000002500000520000003NN  NNW 000                       N    
RDG08559900WATRL000000004K00000000000002046003802092015082330N000000000000N89       000860400K 10000000010000002046           
CUS0855990000108023704003         POTEAT JAMES PRESTON5604 ST MARYS ST                        000N        CARE OF             
MTR08559900001000000000000000RA              41589535    005800260000002600000520000003NN  NNW 000                       N    
RDG08559900WATRL000000004K00000000000003331003902092015082414N000000000000N89       000440400K 10000000010000003306           
CUS0855990000108023705000         HERBERT LEISA M WATS5606 ST MARYS ST                        000N        CARE OF             
MTR08559900001000000000000000RA              9684235     005800270000002700000570000003NN  NNW 000                       N    
RDG08559900WATRL000000004K00000000000005277004002092015082521N000000000000N89       000670400K 10000000010000005268           
CUS0855990000108023706008         DAVIS BARBARA       5612 ST MARYS ST                        000N        CARE OF             
MTR08559900001000000000000000RA              10019938    005800280000002800000570000003NN  NNW 000                       N    
RDG08559900WATRL000000004K00000000000000291004102092015082611N000000000000N89       000500400K 10000000010000000271           
CUS0855990000108023707006         GRESHAM BETTY ANGELA5614 ST MARYS ST                        000N        CARE OF             
MTR08559900001000000000000000RA              52285420    005800290000002900000520000003NN  NNW 000                       N    
RDG08559900WATRL000000004K00000000000001713004202092015082652N000000000000N89       000410400K 10000000010000001692           
CUS0855990000108023709002         EPSTEIN MYRON B     5619 PRINCE GEORGE ST                   000N        CARE OF             
MTR08559900001000000000000000RA              01077900    005800300000003000000610000003NN  NNW 000                       N    
RDG08559900WATRL000000004K00000000000000667004302092015082733N000000000000N89       000410400K 10000000010000000655           
CUS0855990000108023710000         SCHWARTZBECK ROY F  5617 PRINCE GEORGE ST                   000N        CARE OF             
MTR08559900001000000000000000RA              9684378     005800310000003100000570000003NN  NNW 000                       N    
RDG08559900WATRL000000004K00000000000006540004402092015082856N000000000000N89       000830400K 10000000010000006527           
CUS0855990000108023711008         DENISE C CAMPSON    5615 PRINCE GEORGE ST                   000N        CARE OF             
MTR08559900001000000000000000RA              99290155    005800320000003200000570000003NN  NNW 000                       N    
RDG08559900WATRL000000004K00000000000001208004502092015082929N000000000000N89       000330400K 10000000010000001181           
CUS0855990000108352660008         SUMPTER DWAYNE G    5601 PRINCE GEORGE ST                   000N        CARE OF             
MTR08559900001000000000000000RA              27832272    005800330000003300000520000003NN  NNW 000                       N    
RDG08559900WATRL000000004K00000000000003599004602092015083043N000000000000N89       000740400K 10000000010000003579           
CUS0855990000108023712006         SELLERS ANDRE DERRIC5610 PRINCE GEORGE ST                   000N        CARE OF             
MTR08559900001000000000000000RA              9691542     005800340000003400000570000003NN  NNW 000                       N    
RDG08559900WATRL000000004K00000000000007831004702092015083133N000000000000N89       000500400K 10000000010000007798           
CUS0855990000108023713004         MYERS HERMAN W      5612 PRINCE GEORGE ST                   000N        CARE OF             
MTR08559900001000000000000000RA              9689493     005800350000003500000570000003NN  NNW 000                       N    
RDG08559900WATRL000000004K00000000000003656004802092015083213N000000000010N89       000400400K 10000000010000003648           
CUS0855990000108023714002         ANUSIE FELIX        5614 PRINCE GEORGE ST                   000N        CARE OF             
MTR08559900001000000000000000RA              9689110     005800360000003600000570000003NY  NNW 000                       N    
MTM085599009689110     BURIED                                                                                                 
RDG08559900WATRL000000004K00000000000000000000000000000000000 000000000000U         000000400  10000000010000004587           
CUS0855990000108415386005         GREEN KEITH         5618 PRINCE GEORGE ST                   000N        CARE OF             
MTR08559900001000000000000000RA              46887526    005800370000003700000520000003NN  NNW 000                       N    
RDG08559900WATRL000000004K00000000000001455004902092015083324N000000000000N89       000710400K 10000000010000001444           
CUS0855990000108379504007         BROWN MICHAEL A     5620 PRINCE GEORGE ST                   000N        CARE OF             
MTR08559900001000000000000000RA              10021452    005800380000003800000570000003NN  NNW 000                       N    
RDG08559900WATRL000000004K00000000000000221018202092015105235N000000000000N89       002100400K 10000000010000000202           
CUS0855990000108023715009         ALARK ROBERT M,SR   5622 PRINCE GEORGE ST                   000N        CARE OF             
MTR08559900001000000000000000RA              52287274    005800390000003900000520000003NN  NNW 000                       N    
