FHDNNNN018004070004070004070N                                                                                           012323
RHD08562100NN02180218000002180000000002180218000635NY021802180218001000100000000000000000000002    01222015NY020000 N         
CUS0856210000108024940002         JAC/PAC PARTNERSHIP 6116 BALTIMORE NATL PIKE                000N        CARE OF             
MTR08562100001000000000000000RA              99411564    007500010000000100000570000003NN  NNW 000                       N    
RDG08562100WATRL000000004K00000000000002916000202032015081824N000000000000N83       000360400K 10000000010000002760           
CUS0856210000108419714004         FINKELSTEIN JOEL J,T6200 BALTIMORE NATL PIKE                000N        CARE OF             
MTR08562100001000000000000000RA              48581519    000100020000000200000520000000NN  NNW 000                       N    
RDG08562100WATRL000000004K00000000000006484000102032015081748N000000000000N83       000000400K 10000000010000006309           
CUS0856210000108024942008         BRAVEHEART LIMITED  6204 BALTIMORE NATL PIKE                000N        CARE OF             
MTR08562100001000000000000000RA              26009272    005800030000000300000520000003NY  NNW 000                       N    
MTM0856210026009272    CARONMETER                                                                                             
RDG08562100WATRL000000004K00000000000000000000000000000000000 000000000000U         000000400  10000000010000006914           
CUS0856210000108024943006         BASSETT DIRECT NC LL6212 BALTIMORE NATL PIKE                000N        CARE OF             
MTR08562100001000000000000000RA              41091129    001500040000000400000520000003NN  NNW 000                       N    
RDG08562100WATRL000000005K00000000000001857000302032015082718N000300000010N83       005340500K 10000000010000001795           
CUS0856210000108024945001         K & S CARRY OUT, INC6220 BALTIMORE NATL PIKE                000N        CARE OF             
MTR08562100001000000000000000RA              27065197    007500050000000500000520000003NN  NNW 000                       N    
RDG08562100WATRL000000004K00000000000003455000102032015082334N000000000000N85       000000400K 10000000010000003376           
CUS0856210000108024946009         MCDONALDS CORPORATIO1011 N ROLLING RD                       000N        CARE OF             
MTR08562100001000000000000000RA              24598994    000100060000000600000520000003NN  NNW 000                       N    
RDG08562100WATRL000000004K00000000000008866000402032015083639N000000000000N83       005610400K 10000000010000008693           
CUS0856210000108024947007         DUKE REALTY LLC     1101 N ROLLING RD                       000N        CARE OF             
MTR08562100001000000000000000RA              35105072    001500070000000700000520000003NY  NNW 000                       N    
MTM0856210035105072    FROZEN GROUND                                                                                          
RDG08562100WATRL000000005K00000000000045276000102122015082310N000000000000U85       000000500K 10000000010000045218           
CUS0856210000108024948005         DUKE REALTY LLC     1111-15 N ROLLING RD                    000N        CARE OF             
MTR08562100001000000000000000RA              10001000    005800080000000800000570000003NY  NNW 000                       N    
MTM0856210010001000    BURIEDUNDERFROZENDIRT                                                                                  
RDG08562100WATRL000000004K00000000000003977000202122015082605N000000000000U85       001750400K 10000000010000003875           
CUS0856210000108352840006         DUKE REALTY, LLC    1115 N ROLLING RD                       000N        CARE OF             
MTR08562100001000000000000000RA              35099207    005800090000000900000520000003NN  NNW 000                       N    
RDG08562100WATRL000000004K00000000000003206000202032015083944N000000000000N85       009700400K 10000000010000003107           
CUS0856210000108024949003         7-ELEVEN INC SITE #11117 N ROLLING RD                       000N        CARE OF             
MTR08562100001000000000000000RA              31346315    007500100000001000000520000003NN  NNW 000                       N    
RDG08562100WATRL000000004K00000000000007376000502032015083925N000000000000N83       001660400K 10000000010000007365           
CUS0856210000108403935003         BELL PATRICIA HARRIN6217 ETHEL AVE                          000N        CARE OF             
MTR08562100001000000000000000RA              44086178    005800110000001100000520000003NN  NNW 000                       N    
RDG08562100WATRL000000004K00000000000001922000302032015084520N000000000000N85       003360400K 10000000010000001907           
CUS0856210000108403937009         MCCAIN JAMES H      6215 ETHEL AVE                          000N        CARE OF             
MTR08562100001000000000000000RA              48587650    005800120000001200000520000003NN  NNW 000                       N    
RDG08562100WATRL000000004K00000000000002767000402032015084728N000000000000N85       001280400K 10000000010000002731           
CUS0856210000108403938007         GUNN DEBORAH        6213 ETHEL AVE                          000N        CARE OF             
MTR08562100001000000000000000RA              01110667    005800130000001300000610000003NN  NNW 000                       N    
RDG08562100WATRL000000004K00000000000000784000502032015084817N000000000000N85       000490400K 10000000010000000762           
CUS0856210000108403939005         LUONG QUE KHAU      6211 ETHEL AVE                          000N        CARE OF             
MTR08562100001000000000000000RA              44089088    005800140000001400000520000003NN  NNW 000                       N    
RDG08562100WATRL000000004K00000000000002900000602032015084932N000000000000N85       000750400K 10000000010000002874           
CUS0856210000108403922001         WENJI PIAO          6209 ETHEL AVE                          000N        CARE OF             
MTR08562100001000000000000000RA              44086175    005800150000001500000520000003NN  NNW 000                       N    
RDG08562100WATRL000000004K00000000000003894000702032015085038N000000000000N85       000660400K 10000000010000003878           
CUS0856210000108403924007         THORNTON TERRY G    6207 ETHEL AVE                          000N        CARE OF             
MTR08562100001000000000000000RA              45378680    005800160000001600000520000003NN  NNW 000                       N    
RDG08562100WATRL000000004K00000000000004013000802032015085318N000000000000N85       001600400K 10000000010000003993           
CUS0856210000108403925004         ROZICH RENEE        6205 ETHEL AVE                          000N        CARE OF             
MTR08562100001000000000000000RA              45378571    005800170000001700000520000003NN  NNW 000                       N    
RDG08562100WATRL000000004K00000000000001981000902032015085626N000000000001N85       001880400K 10000000010000001957           
CUS0856210000108403927000         DAVIS PREDEST,JR    6203 ETHEL AVE                          000N        CARE OF             
MTR08562100001000000000000000RA              46885217    005800180000001800000520000003NN  NNW 000                       N    
RDG08562100WATRL000000004K00000000000001691001702032015085433N000300000010N83       000890400K 10000000010000001665           
CUS0856210000108403920005         ROBERTS DIANNE L    6202 ETHEL AVE                          000N        CARE OF             
MTR08562100001000000000000000RA              45378570    005800190000001900000520000003NN  NNW 000                       N    
RDG08562100WATRL000000004K00000000000001717001602032015085304N000000000000N83       000410400K 10000000010000001703           
CUS0856210000108403919007         RIVERA RENE W NOLASC6204 ETHEL AVE                          000N        CARE OF             
MTR08562100001000000000000000RA              45378668    005800200000002000000520000003NN  NNW 000                       N    
RDG08562100WATRL000000004K00000000000003971001502032015085223N000000000000N83       000310400K 10000000010000003917           
CUS0856210000108403918009         RIVERA JOSE ANTONIO 6206 ETHEL AVE                          000N        CARE OF             
MTR08562100001000000000000000RA              45378602    005800210000002100000520000003NN  NNW 000                       N    
RDG08562100WATRL000000004K00000000000004954001402032015085152N000000000000N83       000390400K 10000000010000004904           
CUS0856210000108403917001         VALENZUELA MANUEL A 6208 ETHEL AVE                          000N        CARE OF             
MTR08562100001000000000000000RA              45378568    005800220000002200000520000003NN  NNW 000                       N    
RDG08562100WATRL000000004K00000000000003576001302032015085113N000000000000N83       000680400K 10000000010000003502           
CUS0856210000108403914008         PATEL UMESHBHAI P   6210 ETHEL AVE                          000N        CARE OF             
MTR08562100001000000000000000RA              45378958    005800230000002300000520000003NN  NNW 000                       N    
RDG08562100WATRL000000004K00000000000001766001202032015085005N000000000010N83       000570400K 10000000010000001765           
CUS0856210000108403913000         ESTREET ANTHONY T   6212 ETHEL AVE                          000N        CARE OF             
MTR08562100001000000000000000RA              44088795    005800240000002400000520000003NN  NNW 000                       N    
RDG08562100WATRL000000004K00000000000001561001102032015084908N000000000000N83       000370400K 10000000010000001536           
CUS0856210000108403934006         WILBURN VERNESSA    6214 ETHEL AVE                          000N        CARE OF             
MTR08562100001000000000000000RA              44088794    005800250000002500000520000003NN  NNW 000                       N    
RDG08562100WATRL000000004K00000000000002832001002032015084831N000000000000N83       000770400K 10000000010000002796           
CUS0856210000108403932000         SALKAUSKAS JAY C    6216 ETHEL AVE                          000N        CARE OF             
MTR08562100001000000000000000RA              44089094    005800260000002600000520000003NN  NNW 000                       N    
RDG08562100WATRL000000004K00000000000002844000902032015084714N000000000000N83       000460400K 10000000010000002822           
CUS0856210000108403930004         RIVERA MARIA        6218 ETHEL AVE                          000N        CARE OF             
MTR08562100001000000000000000RA              42809826    005800270000002700000520000003NN  NNW 000                       N    
RDG08562100WATRL000000004K00000000000002118000802032015084628N000000000000N83       000880400K 10000000010000002099           
CUS0856210000108403928008         WYLIE BOYD          6220 ETHEL AVE                          000N        CARE OF             
MTR08562100001000000000000000RA              42809767    005800280000002800000520000003NN  NNW 000                       N    
RDG08562100WATRL000000004K00000000000001932000702032015084500N000000000000N83       000050400K 10000000010000001913           
CUS0856210000108404147004         BLAIR SUZANNE M     6224 ETHEL AVE                          000N        CARE OF             
MTR08562100001000000000000000RA              01073929    005800290000002900000610000003NN  NNW 000                       N    
RDG08562100WATRL000000004K00000000000000676000602042015141200O000400000010N80       003300400K 10000000010000000670           
CUS0856210000108024951009         QUEEN MYRA          1219 N ROLLING RD                       000N        CARE OF             
MTR08562100001000000000000000RA              01085467    005800300000003000000610000003NY  NNW 000                       N    
MTM0856210001085467    FROZEN                                                                                                 
RDG08562100WATRL000000004K00000000000000824000302122015082853N000000000000U85       001680400K 10000000010000000813           
CUS0856210000108024952007         TORAIN TAAVON A     1221 N ROLLING RD                       000N        CARE OF             
MTR08562100001000000000000000RA              23647756    005800310000003100000520000003NN  NNW 000                       N    
RDG08562100WATRL000000004K00000000000000003001002032015085941N000000000000N85       001950400K 10000000010000009992           
CUS0856210000108024953005         SHAUDON PINKNEY-MATT1223 N ROLLING RD                       000N        CARE OF             
MTR08562100001000000000000000RA              01074054    005800320000003200000610000003NN  NNW 000                       N    
RDG08562100WATRL000000004K00000000000001144001102032015090215N000000000000N85       001540400K 10000000010000001123           
CUS0856210000108024954003         FAUTH FREDERICK E   1225 N ROLLING RD                       000N        CARE OF             
MTR08562100001000000000000000RA              52770444    005800330000003300000520000003NN  NNW 000                       N    
RDG08562100WATRL000000004K00000000000002729001202032015090335N000000000000N85       000800400K 10000000010000002697           
CUS0856210000108024955000         FAUTH KATHRYN F     1227 N ROLLING RD                       000N        CARE OF             
MTR08562100001000000000000000RA              10021560    005800340000003400000570000003NN  NNW 000                       N    
RDG08562100WATRL000000004K00000000000000038001302032015090423N000000000000N85       000480400K 10000000010000000034           
CUS0856210000108024956008         KHAN ZUBAIDA B      1229 N ROLLING RD                       000N        CARE OF             
MTR08562100001000000000000000RA              01074055    005800350000003500000610000003NN  NNW 000                       N    
RDG08562100WATRL000000004K00000000000002761001402032015090612N000000000000N85       001090400K 10000000010000002653           
CUS0856210000108374546003         PARKER ANDRE J      1301 N ROLLING RD                       000N        CARE OF             
MTR08562100001000000000000000RA              32176568    005800360000003600000520000003NN  NNW 000                       N    
RDG08562100WATRL000000004K00000000000003943001802032015090025N000000000000N83       003520400K 10000000010000003901           
CUS0856210000108393292001         SILVERIO ADOLFO R   1311 N ROLLING RD                       000N        CARE OF             
MTR08562100001000000000000000RA              38187985    005800370000003700000520000003NN  NNW 000                       N    
RDG08562100WATRL000000004K00000000000006332001902032015090610N000000000000N83       003450400K 10000000010000006287           
CUS0856210000108381248007         LANZA SAICHOL SRIBUN1315 N ROLLING RD                       000N        CARE OF             
MTR08562100001000000000000000RA              14902772    005800380000003800000310000003NN  NNW 000                       N    
RDG08562100WATRL000000004K00000000000000928002002032015090726N000000000000N83       000760400K 10000000010000000912           
CUS0856210000108024957006         RANDY J BLEMONT     1321 N ROLLING RD                       000N        CARE OF             
MTR08562100001000000000000000RA              44002314    005800390000003900000520000003NN  NNW 000                       N    
RDG08562100WATRL000000004K00000000000004997002102032015090853N000400000010N83       000870400K 10000000010000004989           
CUS0856210000108401892008         CUSTODIO OSCAR A    1323 N ROLLING RD                       000N        CARE OF             
MTR08562100001000000000000000RA              41076007    005800400000004000000520000000NN  NNW 000                       N    
RDG08562100WATRL000000004K00000000000003181002202032015091013N000000000000N83       000800400K 10000000010000003164           
CUS0856210000108401927002         SIDDIQUI MOHAMMED A 1323A N ROLLING RD                      000N        CARE OF             
MTR08562100001000000000000000RA              41076724    005800410000004100000520000003NN  NNW 000                       N    
RDG08562100WATRL000000004K00000000000004597002302032015091116N000000000000N83       000630400K 10000000010000004583           
CUS0856210000108412449004         ONEILL POM C        1323B N ROLLING RD                      000N        CARE OF             
MTR08562100001000000000000000RA              46877761    005800420000004200000520000003NN  NNW 000                       N    
RDG08562100WATRL000000004K00000000000001580002402032015091119N000000000000N83       000030400K 10000000010000001577           
CUS0856210000108412448006         EVARDO FLORDELIZA   1325 N ROLLING RD                       000N        CARE OF             
MTR08562100001000000000000000RA              14925207    005800430000004300000310000003NN  NNW 000                       N    
RDG08562100WATRL000000004K00000000000001966001702032015091059N000000000000N85       000610400K 10000000010000001950           
CUS0856210000108412537006         RASHID ABDUL        1325A N ROLLING RD                      000N        CARE OF             
MTR08562100001000000000000000RA              14925206    005800440000004400000310000003NN  NNW 000                       N    
RDG08562100WATRL000000004K00000000000000609001602032015090958N000000000000N85       000490400K 10000000010000000596           
CUS0856210000108024958004         FERGUSON THOMAD D,JR1327 N ROLLING RD                       000N        CARE OF             
MTR08562100001000000000000000RA              52292126    007500450000004500000520000003NN  NNW 000                       N    
RDG08562100WATRL000000004K00000000000003284001502032015090909N000000000000N85       001770400K 10000000010000003206           
CUS0856210000108024959002         ZHANG GUO YA        1333 N ROLLING RD                       000N        CARE OF             
MTR08562100001000000000000000RA              32178049    005800460000004600000520000003NN  NNW 000                       N    
RDG08562100WATRL000000004K00000000000004929001802032015091343N000000000000N85       001640400K 10000000010000004869           
CUS0856210000108026269004         HANKIN KENNETH R    1441 N ROLLING RD                       000N        CARE OF             
MTR08562100001000000000000000RA              35115425    005800470000004700000520000003NN  NNW 000                       N    
RDG08562100WATRL000000004K00000000000000109001902032015091648N000000000000N85       001850400K 10000000010000000051           
CUS0856210000108026270002         WASHINGTON ALPHONSO 1445 N ROLLING RD                       000N        CARE OF             
MTR08562100001000000000000000RA              23644592    005800480000004800000520000003NN  NNW 000                       N    
RDG08562100WATRL000000004K00000000000004691002502032015091802N000000000000N83       004030400K 10000000010000004674           
CUS0856210000108026271000         FARES FATIMA        1451 N ROLLING RD                       000N        CARE OF             
MTR08562100001000000000000000RA              00120886    007500490000004900000570000003NN  NNW 000                       N    
RDG08562100WATRL000000004K00000000000001688002002032015091846N000000000000N85       001180400K 10000000010000001658           
CUS0856210000108026272008         MUHAMMAD ABDUR-RAHMA1453 N ROLLING RD                       000N        CARE OF             
MTR08562100001000000000000000RA              75427283    007500500000005000000350000003NN  NNW 000                       N    
RDG08562100WATRL000000004K00000000000000134002102032015092014N000000000000N85       000880400K 10000000010000000113           
CUS0856210000108026273006         TRUSTEES OF THE PRES1501 N ROLLING RD                       000N        CARE OF             
MTR08562100001000000000000000RA              35109377    001500510000005100000520000003NN  NNW 000                       N    
RDG08562100WATRL000000005K00000000000004940002202032015092149N000400000010N85       000950500K 10000000010000004934           
CUS0856210000108145666007         PARKER AUDREY M     1528 N ROLLING RD                       000N        CARE OF             
MTR08562100001000000000000000RA              33082406    005800520000005200000520000003NN  NNW 000                       N    
RDG08562100WATRL000000004K00000000000003528002302032015092401N000000000000N85       001320400K 10000000010000003508           
CUS0856210000108145667005         GRACE BIBLE BAPTIST 1524 N ROLLING RD                       000N        CARE OF             
MTR08562100001000000000000000RA              10013616    005800530000005300000570000003NN  NNW 000                       N    
RDG08562100WATRL000000004K00000000000001479002402032015092527N000400000010N85       000860400K 10000000010000001455           
CUS0856210000108145668003         GRACE BIBLE BAPTIST 1518 N ROLLING RD                       000N        CARE OF             
MTR08562100001000000000000000RA              10014916    005800540000005400000570000003NN  NNW 000                       N    
RDG08562100WATRL000000004K00000000000000000002602032015092708N000000000000N83       005460400K 10000000010000000000           
CUS0856210000108145669001         GRACE BIBLE BAPTIST 1512 N ROLLING RD                       000N        CARE OF             
MTR08562100001000000000000000RA              23841855    005800550000005500000520000003NN  NNW 000                       N    
RDG08562100WATRL000000004K00000000000002559002502032015092733N000000000000N85       001260400K 10000000010000002410           
CUS0856210000108145670009         MCLAUGHLIN JUNE MARI1506 N ROLLING RD                       000N        CARE OF             
MTR08562100001000000000000000RA              24220741    005800560000005600000520000003NN  NNW 000                       N    
RDG08562100WATRL000000004K00000000000003030002602032015092902N000000000000N85       000890400K 10000000010000003001           
CUS0856210000108145671007         HEADLEY RICHARD D   1500 N ROLLING RD                       000N        CARE OF             
MTR08562100001000000000000000RA              10015337    005800570000005700000570000003NN  NNW 000                       N    
RDG08562100WATRL000000004K00000000000000370002702032015093009N000000000001N85       000670400K 10000000010000000319           
CUS0856210000108145672005         CHATMAN EVELENA     1492 N ROLLING RD                       000N        CARE OF             
MTR08562100001000000000000000RA              48589756    005800580000005800000520000003NN  NNW 000                       N    
RDG08562100WATRL000000004K00000000000001994002802032015093115N000000000000N85       000660400K 10000000010000001929           
CUS0856210000108145673003         TOUCHARD WILLIAM A,J1460 N ROLLING RD                       000N        CARE OF             
MTR08562100001000000000000000RA              44002165    005800590000005900000520000003NN  NNW 000                       N    
RDG08562100WATRL000000004K00000000000001267002702032015093206N000000000000N83       002980400K 10000000010000001227           
CUS0856210000108145674001         TOUCHARD WILLIAM A,J1456 N ROLLING RD                       000N        CARE OF             
MTR08562100001000000000000000RA              48589434    005800600000006000000520000003NN  NNW 000                       N    
RDG08562100WATRL000000004K00000000000001947002802032015093312N000300000010N83       000660400K 10000000010000001928           
CUS0856210000108145675008         TOUCHARD WILLIAM A,J1450 N ROLLING RD                       000N        CARE OF             
MTR08562100001000000000000000RA              50476192    005800610000006100000520000003NN  NNW 000                       N    
RDG08562100WATRL000000004K00000000000002441002902032015093429N000000000000N83       000770400K 10000000010000002441           
CUS0856210000108391262006         MACZIS MARY FRANCES 1916 ROLLING GLEN RD                    000N        CARE OF             
MTR08562100001000000000000000RA              36693814    005800620000006200000520000003NN  NNW 000                       N    
RDG08562100WATRL000000004K00000000000000300003002032015094343N000000000000N85       001780400K 10000000010000000283           
CUS0856210000108145676006         ELLIOTT TYROME L    1918 ROLLING GLEN RD                    000N        CARE OF             
MTR08562100001000000000000000RA              22606751    005800630000006300000520000003NN  NNW 000                       N    
RDG08562100WATRL000000004K00000000000004459003102032015094527N000000000000N85       001040400K 10000000010000004440           
CUS0856210000108145677004         WILLIAM C WOMBLE    1920 ROLLING GLEN RD                    000N        CARE OF             
MTR08562100001000000000000000RA              22608565    005800640000006400000520000003NN  NNW 000                       N    
RDG08562100WATRL000000004K00000000000005212003202032015094614N000000000000N85       000470400K 10000000010000005157           
CUS0856210000108145678002         MAHMOOD SYED N      1921 ROLLING GLEN RD                    000N        CARE OF             
MTR08562100001000000000000000RA              22606749    005800650000006500000520000003NY  NNW 000                       N    
MTM0856210022606749    METERFROZENUNDERICE                                                                                    
RDG08562100WATRL000000004K00000000000009149000402122015083255N000000000000U85       002420400K 10000000010000009116           
CUS0856210000108145679000         SHELTON LARRY EDWARD1919 ROLLING GLEN RD                    000N        CARE OF             
MTR08562100001000000000000000RA              75616034    005800660000006600000350000003NY  NNW 000                       N    
MTM0856210075616034    VANONMETERNOTWORKING                                                                                   
RDG08562100WATRL000000004K00000000000000000000000000000000000 000000000000U         000000400  10000000010000000044           
CUS0856210000108145680008         LOWRY STUART C      1917 ROLLING GLEN RD                    000N        CARE OF             
MTR08562100001000000000000000RA              22610389    005800670000006700000520000003NN  NNW 000                       N    
RDG08562100WATRL000000004K00000000000004263003402032015095018N000000000000N83       003160400K 10000000010000004235           
CUS0856210000108145681006         NAYFEH MAHIR        1913 ROLLING GLEN RD                    000N        CARE OF             
MTR08562100001000000000000000RA              22609455    005800680000006800000520000003NN  NNW 000                       N    
RDG08562100WATRL000000004K00000000000002338003302032015094502N000100000010N83       001130400K 10000000010000002338           
CUS0856210000108145682004         SHELTON LARRY       1911 ROLLING GLEN RD                    000N        CARE OF             
MTR08562100001000000000000000RA              22609761    005800690000006900000520000003NN  NNW 000                       N    
RDG08562100WATRL000000004K00000000000004611003202032015094309N000000000000N83       000770400K 10000000010000004582           
CUS0856210000108145683002         MCKAY CLAUDE O      1909 ROLLING GLEN RD                    000N        CARE OF             
MTR08562100001000000000000000RA              22609456    005800700000007000000520000003NN  NNW 000                       N    
RDG08562100WATRL000000004K00000000000005106003102032015094152N000000000000N83       001720400K 10000000010000005071           
CUS0856210000108145684000         ROSLYN GREGORY      1907 ROLLING GLEN RD                    000N        CARE OF             
MTR08562100001000000000000000RA              14915850    005800710000007100000310000003NN  NNW 000                       N    
RDG08562100WATRL000000004K00000000000000710002902032015094045N000000000000N85       005700400K 10000000010000000695           
CUS0856210000108145685007         RODGERS THOMAS C    1440 N ROLLING RD                       000N        CARE OF             
MTR08562100001000000000000000RA              22610395    005800720000007200000520000003NN  NNW 000                       N    
RDG08562100WATRL000000004K00000000000004731003002032015093900N000000000000N83       002710400K 10000000010000004718           
CUS0856210000108145686005         COLEMAN CLINTON R, J1436 N ROLLING RD                       000N        CARE OF             
MTR08562100001000000000000000RA              39583001    005800730000007300000520000003NN  NNW 000                       N    
RDG08562100WATRL000000004K00000000000002022003302032015095244N000000000000N85       003900400K 10000000010000002017           
CUS0856210000108398371008         SCHERR MARC         1432 N ROLLING RD                       000N        CARE OF             
MTR08562100001000000000000000RA              99187468    005800740000007400000570000000NY  NNW 000                       N    
MTM0856210099187468    FROZEN GROUND                                                                                          
RDG08562100WATRL000000004K00000000000001777000502122015083816N000000000000U85       003210400K 10000000010000001761           
CUS0856210000108145687003         VAHORA INT'L INSTITU1424 N ROLLING RD                       000N        CARE OF             
MTR08562100001000000000000000RA              10019979    005800750000007500000570000003NN  NNW 000                       N    
RDG08562100WATRL000000004K00000000000000037003502032015095511N000000000000N83       002930400K 10000000010000000021           
CUS0856210000108145688001         YASIN MOHAMMAD      1420 N ROLLING RD                       000N        CARE OF             
MTR08562100001000000000000000RA              26009464    005800760000007600000520000003NN  NNW 000                       N    
RDG08562100WATRL000000004K00000000000004141003402032015095515N000000000000N85       001510400K 10000000010000004106           
CUS0856210000108145689009         BROOKS WILLIAM A    1416 N ROLLING RD                       000N        CARE OF             
MTR08562100001000000000000000RA              01070814    005800770000007700000610000003NN  NNW 000                       N    
RDG08562100WATRL000000004K00000000000001137003502032015095558N000000000000N85       000430400K 10000000010000001116           
CUS0856210000108145690007         GARCIA JOSE A       1414 N ROLLING RD                       000N        CARE OF             
MTR08562100001000000000000000RA              46881540    005800780000007800000520000003NN  NNW 000                       N    
RDG08562100WATRL000000004K00000000000003071003602032015095652N000000000000N85       000540400K 10000000010000003040           
CUS0856210000108145691005         FREELAND STEPHEN J  1412 N ROLLING RD                       000N        CARE OF             
MTR08562100001000000000000000RA              14929029    005800790000007900000310000003NN  NNW 000                       N    
RDG08562100WATRL000000004K00000000000000548003702032015095808N000000000000N85       000760400K 10000000010000000533           
CUS0856210000108024960000         REESE ROY LEE       1226 N ROLLING RD                       000N        CARE OF             
MTR08562100001000000000000000RA              33082392    005800800000008000000520000003NN  NNW 000                       N    
RDG08562100WATRL000000004K00000000000004203003802032015100130N000000000000N85       002020400K 10000000010000004192           
CUS0856210000108024961008         S & S RAHMAN        1224 N ROLLING RD                       000N        CARE OF             
MTR08562100001000000000000000RA              9684092     005800810000008100000570000003NN  NNW 000                       N    
RDG08562100WATRL000000004K00000000000004811003602032015100239N000000000000N83       004480400K 10000000010000004742           
CUS0856210000108024962006         MALAYA PANT         1222 N ROLLING RD                       000N        CARE OF             
MTR08562100001000000000000000RA              9689672     005800820000008200000570000003NN  NNW 000                       N    
RDG08562100WATRL000000004K00000000000006381003902032015100244N000000000000N85       000740400K 10000000010000006253           
CUS0856210000108024681002         BROWN TAMEKA STACY  1208 N ROLLING RD                       000N        CARE OF             
MTR08562100001000000000000000RA              24625354    007500830000008300000520000003NN  NNW 000                       N    
RDG08562100WATRL000000004K00000000000004088004002032015100509N000000000001N85       001450400K 10000000010000004075           
CUS0856210000108425861005         AIJAZ MOHAMMED M    1206 N ROLLING RD                       000N        CARE OF             
MTR08562100001000000000000000RA              52287372    005800840000008400000520000003NY  NNW 000                       N    
MTM0856210052287372    ICE WATER                                                                                              
RDG08562100WATRL000000004K00000000000000000000602122015084146N000000000000U85       002100400K 10000000010000000000           
CUS0856210000108425860007         AIJAZ MOHAMMED M    1206A N ROLLING RD                      000N        CARE OF             
MTR08562100001000000000000000RA              52287351    005800850000008500000520000003NY  NNW 000                       N    
MTM0856210052287351    ICE WATER                                                                                              
RDG08562100WATRL000000004K00000000000006498000702122015084149N000000000000U85       000030400K 10000000010000006425           
CUS0856210000108024682000         CUNNINGHAM COMMUNICA1200 N ROLLING RD                       000N        CARE OF             
MTR08562100001000000000000000RA              31937826    007500860000008600000520000003NN  NNW 000                       N    
RDG08562100WATRL000000004K00000000000001458003702032015100824N000000000000N83       003450400K 10000000010000001458           
CUS0856210000108024683008         ROLLING ROAD PLAZA B1140 N ROLLING RD                       000N        CARE OF             
MTR08562100001000000000000000RA              00000000    007500870000008700000600000000NN  NNW 000                       N    
RDG08562100WATRL000000004K00000000000000000003802032015100831S002000000000N83       000070400K 10000000010000000122           
CUS0856210000108024684006         ROLLING ROAD PLAZA B1100 N ROLLING RD                       000N        CARE OF             
MTR08562100001000000000000000RA              27894227    007500880000008800000520000003NN  NNW 000                       N    
RDG08562100WATRL000000004K00000000000009427003902032015101008N000000000000N83       000970400K 10000000010000009411           
CUS0856210000108407014003         AABEDA G VAHORA     1928 POWERS LN                          000N        CARE OF             
MTR08562100001000000000000000RA              44174133    005800890000008900000520000003NN  NNW 000                       N    
RDG08562100WATRL000000004K00000000000003854004002032015101201N000000000000N83       001130400K 10000000010000003775           
CUS0856210000108430118003         UEBEL LOUIS C       1942 POWERS LN                          000N        CARE OF             
MTR08562100001000000000000000RA              99387856    005800900000009000000570000000NN  NNW 000                       N    
RDG08562100WATRL000000004K00000000000001504004102032015101309N000000000000N83       000680400K 10000000010000001485           
CUS0856210000108024685003         RUSSEL FAMILY LLC   1000 N ROLLING RD                       000N        CARE OF             
MTR08562100001000000000000000RA              14928032    007500910000009100000310000003NN  NNW 000                       N    
RDG08562100WATRL000000004K00000000000000001004202032015101458N000000000000N83       001090400K 10000000010000000001           
CUS0856210000108024686001         KOROLOGOS IOANNIS   6300 BALTIMORE NATL PIKE                000N        CARE OF             
MTR08562100001000000000000000RA              1208999     001500920000009200000490000003NN  NNW 000                       N    
RDG08562100WATRL000000005K00000000000028189004302032015101743N000000000010N83       001650500K 10000000010000028179           
CUS0856210000108346199006         RUSSEL FAMILY LLC   6324 BALTIMORE NATL PIKE                000N        CARE OF             
MTR08562100001000000000000000RA              99999999    005800930000009300000620000003NY  NNW 000                       N    
MTM0856210099999999    REMOVED                                                                                                
RDG08562100WATRL000000004K00000000000000000004402032015101749S002000000000N83       000060400K 10000000010000006259           
CUS0856210000108024688007         DAIL GEORGE E       6326 BALTIMORE NATL PIKE                000N        CARE OF             
MTR08562100001000000000000000RA              99410756    000100940000009400000570000003NN  NNW 000                       N    
RDG08562100WATRL000000004K00000000000002223004102032015101827N000400000010N85       007980400K 10000000010000002206           
CUS0856210000108024689005         MAHE PROPERTIES LLC 6328 BALTIMORE NATL PIKE                000N        CARE OF             
MTR08562100001000000000000000RA              01070330    005800950000009500000610000003NY  NNW 000                       N    
MTM0856210001070330    BURIED                                                                                                 
RDG08562100WATRL000000004K00000000000000000000000000000000000 000000000000U         000000400  10000000010000000899           
CUS0856210000108024690003         ARCHWAY MOTORS, INCO6330 BALTIMORE NATL PIKE                000N        CARE OF             
MTR08562100001000000000000000RA              9691817     007500960000009600000570000003NN  NNW 000                       N    
RDG08562100WATRL000000004K00000000000005345000802122015084850N000000000000U85       004210400K 10000000010000005345           
CUS0856210000108024692009         CATONSVILLE CHICKEN,6400 BALTIMORE NATL PIKE                000N        CARE OF             
MTR08562100001000000000000000RA              28153889    007500970000009700000520000003NN  NNW 000                       N    
RDG08562100WATRL000000004K00000000000000768004202032015102325N000000000000N85       002980400K 10000000010000000454           
CUS0856210000108024693007         6408 BNP LLC        6408 BALTIMORE NATL PIKE                000N        CARE OF             
MTR08562100001000000000000000RA              99411410    007500980000009800000570000003NY  NNW 000                       N    
MTM0856210099411410    CLEAN OUT VLT                                                                                          
RDG08562100WATRL000000004K00000000000002778000902122015085218N000400000010U85       002080400K 10000000010000002755           
CUS0856210000108024694005         HOME CAFE INC       6420 BALTIMORE NATL PIKE                000N        CARE OF             
MTR08562100001000000000000000RA              29074621    000100990000009900000520000003NY  NNW 000                       N    
MTM0856210029074621    JAMMED                                                                                                 
RDG08562100WATRL000000004K00000000000002555004302032015102528N000000000000N85       001230400K 10000000010000002507           
CUS0856210000108373607004         MCCOMAS ASSOCIATES L6430 BALTIMORE NATL PIKE                000N        CARE OF             
MTR08562100001000000000000000RA              99411592    007501000000010000000570000003NN  NNW 000                       N    
RDG08562100WATRL000000004K00000000000004673004402032015102801N000400000012N85       001530400K 10000000010000004604           
CUS0856210000108382320003         A & I REALTY LIMITED6440 BALTIMORE NATL PIKE                000N        CARE OF             
MTR08562100001000000000000000RA              33736670    007501010000010100000520000003NN  NNW 000                       N    
RDG08562100WATRL000000004K00000000000006088004502032015102916N000000000000N85       000750400K 10000000010000005942           
CUS0856210000108024696000         A & I REALTY LIMITED6456 BALTIMORE NATL PIKE                000N        CARE OF             
MTR08562100001000000000000000RA              44030968    007501020000010200000520000003NY  NNW 000                       N    
MTM0856210044030968    METERBROKEN                                                                                            
RDG08562100WATRL000000004K00000000000001533004602032015103120N000000000010N85       001240400K 10000000010000001633           
CUS0856210000108351839009         6518 BALTIMORE NATIO6518 BALTIMORE NATL PIKE                000N        CARE OF             
MTR08562100001000000000000000RA              24760803    005801030000010300000520000003NN  NNW 000                       N    
RDG08562100WATRL000000004K00000000000001540004702032015103221N000000000000N85       000610400K 10000000010000001211           
CUS0856210000108385271005         RUSSELS LLC         2224 POWERS LN                          000N        CARE OF             
MTR08562100001000000000000000RA              99999999    005801040000010400000620000003NN  NNW 000                       N    
RDG08562100WATRL000000004K00000000000000000004602032015103509S002000000000N83       000060400K 10000000010000001157           
CUS0856210000108426965003         RUSSEL MOTOR CARS IN2219 POWERS LN                          000N        CARE OF             
MTR08562100001000000000000000RA              54375046    001501050000010500000520000003NN  NNW 000                       N    
RDG08562100WATRL000000005K00000000000000000004502032015103503S002000000000N83       010340500K 10000000010000063184           
CUS0856210000108403564001         FEDDER MANAGEMENT   6600 BALTIMORE NATL PIKE                000N        CARE OF             
MTR08562100001000000000000000RA              33731962    007501060000010600000520000003NN  NNW 000                       N    
RDG08562100WATRL000000004K00000000000003487004802032015103703N000000000000N85       002820400K 10000000010000003469           
CUS0856210000108024698006         RUSSELS LLC         6624 BALTIMORE NATL PIKE                000N        CARE OF             
MTR08562100001000000000000000RA              35101085    000101070000010700000520000003NN  NNW 000                       N    
RDG08562100WATRL000000004K00000000000000000004802032015104519S022000000000N83       000270400K 10000000010000009620           
CUS0856210000108024699004         PROFESSIONAL ENTERPR6626 BALTIMORE NATL PIKE                000N        CARE OF             
MTR08562100001000000000000000RA              36700196    001501080000010800000520000003NY  NNW 000                       N    
MTM0856210036700196    FROZEN PLATE                                                                                           
RDG08562100WATRL000000005K00000000000019456001002122015085630N000000000000U85       002520500K 10000000010000019363           
CUS0856210000108384922004         PROFESSIONAL ENTERPR6630-A BALTIMORE NATL PIK               000N        CARE OF             
MTR08562100001000000000000000RA              35101055    000101090000010900000520000003NN  NNW 000                       N    
RDG08562100WATRL000000004K00000000000000465004902032015103956N000000000000N85       001730400K 10000000010000000418           
CUS0856210000108428001005         RUSSEL MOTOR CARS IN6700 BALTIMORE NATL PIKE                000N        CARE OF             
MTR08562100001000000000000000RA              54353831    000101100000011000000520000003NN  NNW 000                       N    
RDG08562100WATRL000000004K00000000000007024004702032015104452N000000000000N83       005830400K 10000000010000006882           
CUS0856210000108024702006         LYNCARE LLC         6619 BALTIMORE NATL PIKE                000N        CARE OF             
MTR08562100001000000000000000RA              75617595    005801110000011100000350000003NN  NNW 000                       N    
RDG08562100WATRL000000004K00000000000000018005002032015104850N000400000010N85       005340400K 10000000010000000017           
CUS0856210000108024703004         BEDDING BARN OF MD I6613 BALTIMORE NATL PIKE                000N        CARE OF             
MTR08562100001000000000000000RA              9690545     005801120000011200000570000003NN  NNW 000                       N    
RDG08562100WATRL000000004K00000000000003245005102032015104940N000000000000N85       000500400K 10000000010000003245           
CUS0856210000108024704002         MOOREFIELD CAROL JEA6611 BALTIMORE NATL PIKE                000N        CARE OF             
MTR08562100001000000000000000RA              52287718    005801130000011300000520000003NN  NNW 000                       N    
RDG08562100WATRL000000004K00000000000000921005202032015105105N000000000000N85       000850400K 10000000010000000912           
CUS0856210000108024705009         QUEEN MARY PROPERTIE6567 BALTIMORE NATL PIKE                000N        CARE OF             
MTR08562100001000000000000000RA              11471970    005801140000011400000570000003NN  NNW 000                       N    
RDG08562100WATRL000000004K00000000000004251005302032015105621N000400000010N85       003160400K 10000000010000004249           
CUS0856210000108024707005         BENROY GEOGRAPHIC EN6537 BALTIMORE NATL PIKE                000N        CARE OF             
MTR08562100001000000000000000RA              11331444    005801150000011500000570000003NN  NNW 000                       N    
RDG08562100WATRL000000004K00000000000003112004902032015105623N000000000000N83       006640400K 10000000010000003101           
CUS0856210000108024706007         TENNANT GROUP LLC   6555 BALTIMORE NATL PIKE                000N        CARE OF             
MTR08562100001000000000000000RA              35106414    005801160000011600000520000003NN  NNW 000                       N    
RDG08562100WATRL000000004K00000000000004353005002032015105730N000000000000N83       000670400K 10000000010000004345           
CUS0856210000108352946001         SEVEN BENN CORP     6447 BALTIMORE NATL PIKE                000N        CARE OF             
MTR08562100001000000000000000RA              01105370    001501170000011700000610000003NN  NNW 000                       N    
RDG08562100WATRL000000005K00000000000007863005102032015110059N000000000000N83       002090500K 10000000010000007498           
CUS0856210000108024708003         COMBINED PROPERTIES,6501 BALTIMORE NATL PIKE                000N        CARE OF             
MTR08562100001000000000000000RA              1905150     005801180000011800000320000003NN  NNW 000                       N    
RDG08562100WATRL000000004K00000000000000000005202032015110132S022000000000N83       000330400K 10000000010000001529           
CUS0856210000108024710009         PATAPSCO REALTY CORP6427 BALTIMORE NATL PIKE                000N        CARE OF             
MTR08562100001000000000000000RA              44030358    007501190000011900000520000003NN  NNW 000                       N    
RDG08562100WATRL000000004K00000000000009825005302032015110400N000000000000N83       001480400K 10000000010000009775           
CUS0856210000108024711007         SACHS ALVIN P,TRUSTE6425 BALTIMORE NATL PIKE                000N        CARE OF             
MTR08562100001000000000000000RA              54350445    005801200000012000000520000003NY  NNW 000                       N    
MTM0856210054350445    NFLOODEDNEEDNEWVAULTANDCOVERHAZARD                                                                     
RDG08562100WATRL000000004K00000000000000000000000000000000000 000000000000U         000000400  10000000010000000822           
CUS0856210000108024714001         KYUNG JAE LEE       812 GEIPE RD                            000N        CARE OF             
MTR08562100001000000000000000RA              36700473    001501210000012100000520000003NN  NNW 000                       N    
RDG08562100WATRL000000005K00000000000078254005402032015110635N000000000000N83       001550500K 10000000010000077593           
CUS0856210000108024687009         SHELL OIL COMPANY   700 N ROLLING RD                        000N        CARE OF             
MTR08562100001000000000000000RA              00118089    007501220000012200000570000003NN  NNW 000                       N    
RDG08562100WATRL000000004K00000000000001584005602032015111412N000000000000N85       000790400K 10000000010000001570           
CUS0856210000108024717004         BANK OF AMERICA MDFO702 N ROLLING RD                        000N        CARE OF             
MTR08562100001000000000000000RA              01086606    005801230000012300000610000003NN  NNW 000                       N    
RDG08562100WATRL000000004K00000000000002737005402032015111250N000000000000N85       009890400K 10000000010000002718           
CUS0856210000108024718002         BANK OF AMERICA MDFO702-1/2 N ROLLING RD                    000N        CARE OF             
MTR08562100001000000000000000RA              01085933    005801240000012400000610000003NN  NNW 000                       N    
RDG08562100WATRL000000004K00000000000000000005502032015111253N000000000000N85       000030400K 10000000010000000000           
CUS0856210000108024719000         CHINA CHEF          704 N ROLLING RD                        000N        CARE OF             
MTR08562100001000000000000000RA              29404488    005801250000012500000520000003NN  NNW 000                       N    
RDG08562100WATRL000000004K00000000000004792001102122015090859N000000000011U85       000280400K 10000000010000004561           
CUS0856210000108024720008         THE SHERWIN WILLIAMS704 N ROLLING RD                        000N        CARE OF             
MTR08562100001000000000000000RA              29404469    005801260000012600000520000003NN  NNW 000                       N    
RDG08562100WATRL000000004K00000000000006143005502032015111158N000000000000N83       003230400K 10000000010000006139           
CUS0856210000108024787007         FIRST NATIONAL BANK 5651 BALTIMORE NATL PIKE                000N        CARE OF             
MTR08562100001000000000000000RA              42847035    001501270000012700000520000003NN  NNW 000                       N    
RDG08562100WATRL000000005K00000000000004464005702032015112313N000000000000N83       006510500K 10000000010000004250           
CUS0856210000108024789003         AMF BOWLING CENTERS 5647 BALTIMORE NATL PIKE                000N        CARE OF             
MTR08562100001000000000000000RA              28686831    000101280000012800000520000003NY  NNW 000                       N    
MTM0856210028686831    FROZEN JAMMED                                                                                          
RDG08562100WATRL000000004K00000000000003579001202122015091830N000000000000U85       005710400K 10000000010000003579           
CUS0856210000108024788005         AMF BOWLING CENTERS 5649 BALTIMORE NATL PIKE                000N        CARE OF             
MTR08562100001000000000000000RA              10012136    005801290000012900000570000003NN  NNW 000                       N    
RDG08562100WATRL000000004K00000000000004425005702032015112120N000000000000N85       004280400K 10000000010000004087           
CUS0856210000108024790001         M&T BANK, HEILMAN TR5645 BALTIMORE NATL PIKE                000N        CARE OF             
MTR08562100001000000000000000RA              10012796    005801300000013000000570000003NN  NNW 000                       N    
RDG08562100WATRL000000004K00000000000000346005802032015112429N000300000010N85       001890400K 10000000010000000319           
CUS0856210000108024791009         U-HAUL INTERNATIONAL5643 BALTIMORE NATL PIKE                000N        CARE OF             
MTR08562100001000000000000000RA              10006769    005801310000013100000570000003NY  NNW 000                       N    
MTM0856210010006769    COVERFROZEN                                                                                            
RDG08562100WATRL000000004K00000000000000113001302122015092238N000000000000U85       002480400K 10000000010000000109           
CUS0856210000108357551004         BEARD PROPERTIES LLC5641 BALTIMORE NATL PIKE                000N        CARE OF             
MTR08562100001000000000000000RA              10015802    005801320000013200000570000003NN  NNW 000                       N    
RDG08562100WATRL000000004K00000000000000283005902032015112529N000000000000N85       000600400K 10000000010000000278           
CUS0856210000108024795000         BEARD PROPERTIES LLC5639 BALTIMORE NATL PIKE                000N        CARE OF             
MTR08562100001000000000000000RA              36700388    001501330000013300000520000003NY  NNW 000                       N    
MTM0856210036700388    BURIED                                                                                                 
RDG08562100WATRL000000005K00000000000000000000000000000000000 000000000000U         000000500  10000000010000000842           
CUS0856210000108427715001         MCDONALDS #2704     5637 BALTIMORE NATL PIKE                000N        CARE OF             
MTR08562100001000000000000000RA              54375026    001501340000013400000520000003NY  NNW 000                       N    
MTM0856210054375026    BURIED                                                                                                 
RDG08562100WATRL000000005K00000000000014250001402122015092526N000400000010U85       001680500K 10000000010000014084           
CUS0856210000108024797006         JUNG PROPERTIES II L5629 OLD FREDERICK RD                   000N        CARE OF             
MTR08562100001000000000000000RA              99411508    007501350000013500000570000003NY  NNW 000                       N    
MTM0856210099411508    BURIEDINICE                                                                                            
RDG08562100WATRL000000004K00000000000000000000000000000000000 000000000000U         000000400  10000000010000001132           
CUS0856210000108024798004         JUNG PROPERTIES II L5627A OLD FREDERICK RD                  000N        CARE OF             
MTR08562100001000000000000000RA              14910082    005801360000013600000310000003NY  NNW 000                       N    
MTM0856210014910082    ICE IN VLT                                                                                             
RDG08562100WATRL000000004K00000000000000260001602122015093306N000000000000U85       002120400K 10000000010000000254           
CUS0856210000108024799002         JUNG PROPERTIES II L5627B OLD FREDERICK RD                  000N        CARE OF             
MTR08562100001000000000000000RA              01095083    005801370000013700000610000003NY  NNW 000                       N    
MTM0856210001095083    ICE IN VLT                                                                                             
RDG08562100WATRL000000004K00000000000000016001502122015092934N000000000000U85       002480400K 10000000010000000016           
CUS0856210000108024800008         JUNG PROPERTIES II L5627C OLD FREDERICK RD                  000N        CARE OF             
MTR08562100001000000000000000RA              9689917     005801380000013800000570000003NN  NNW 000                       N    
RDG08562100WATRL000000004K00000000000004960006102032015113104N000000000000N85       001210400K 10000000010000004820           
CUS0856210000108024801006         JUNG PROPERTIES II L5627D OLD FREDERICK RD                  000N        CARE OF             
MTR08562100001000000000000000RA              24773958    005801390000013900000520000003NN  NNW 000                       N    
RDG08562100WATRL000000004K00000000000000280006002032015112903N000000000000N85       002140400K 10000000010000000273           
CUS0856210000108024793005         JUNG PROPERTIES II L5629 BALTIMORE NATL PIKE                000N        CARE OF             
MTR08562100001000000000000000RA              00164109    000101400000014000000570000003NY  NNW 000                       N    
MTM0856210000164109    BURIED                                                                                                 
RDG08562100WATRL000000004K00000000000000000000000000000000000 000000000000U         000000400  10000000010000000636           
CUS0856210000108024802004         VARSITY AUTO REPAIR 5625 OLD FREDERICK RD                   000N        CARE OF             
MTR08562100001000000000000000RA              10011021    005801410000014100000570000003NY  NNW 000                       N    
MTM0856210010011021    BURIED                                                                                                 
RDG08562100WATRL000000004K00000000000000000000000000000000000 000000000000U         000000400  10000000010000000277           
CUS0856210000108024833009         ALFA LLC            5605 BALTIMORE NATL PIKE                000N        CARE OF             
MTR08562100001000000000000000RA              35102418    005801420000014200000520000003NN  NNW 000                       N    
RDG08562100WATRL000000004K00000000000000000005902032015114332S022000000000N83       000060400K 10000000010000003456           
CUS0856210000108024831003         CVS #4079-MS363     5603 BALTIMORE NATL PIKE                000N        CARE OF             
MTR08562100001000000000000000RA              22849512    000101430000014300000520000003NN  NNW 000                       N    
RDG08562100WATRL000000004K00000000000009159005802032015114326N000000000000N83       012130400K 10000000010000009138           
CUS0856210000108024832001         CVS #4079           5603 BALTIMORE NATL PIKE                000N        CARE OF             
MTR08562100001000000000000000RA              26074259    007501440000014400000520000003NN  NNW 000                       N    
RDG08562100WATRL000000004K00000000000000000006202032015114638S022000000000N83       000020400K 10000000010000000392           
CUS0856210000108353169009         CVS #4079           5603 BALTIMORE NATL PIKE                000N        CARE OF             
MTR08562100001000000000000000RA              29082663    005801450000014500000520000003NN  NNW 000   VACANT / LOT        N    
RDG08562100WATRL000000004K00000000000000000006102032015114636S022000000000N83       000040400K 10000000010000002144           
CUS0856210000108388300009         CVS STORE #04079-02 5601 BALTIMORE NATL PIKE                000N        CARE OF             
MTR08562100001000000000000000RA              35118709    005801460000014600000520000003NN  NNW 000                       N    
RDG08562100WATRL000000004K00000000000001071006002032015114632N000000000000N83       001800400K 10000000010000001071           
CUS0856210000108024830005         HMC LLC             5612 OLD FREDERICK RD                   000N        CARE OF             
MTR08562100001000000000000000RA              00166990    000101470000014700000570000003NN  NNW 000                       N    
RDG08562100WATRL000000004K00000000000000368006202032015114659N000000000010N85       009550400K 10000000010000000367           
CUS0856210000108024829007         HMC LLC             5600 OLD FREDERICK RD                   000N        CARE OF             
MTR08562100001000000000000000RA              00120507    007501480000014800000570000003NN  NNW 000                       N    
RDG08562100WATRL000000004K00000000000000486006302032015114801N000000000000N85       000620400K 10000000010000000480           
CUS0856210000108024806005         HAR-ROSE INC        5515 OLD FREDERICK RD                   000N        CARE OF             
MTR08562100001000000000000000RA              24770687    005801490000014900000520000003NN  NNW 000   VACANT / LOT        N    
RDG08562100WATRL000000004K00000000000000000006302032015115310S022000000000N83       003920400K 10000000010000002410           
CUS0856210000108024811005         OESTERLE SCOTT C    5405 OLD FREDERICK RD                   000N        CARE OF             
MTR08562100001000000000000000RA              26007399    005801500000015000000520000003NN  NNW 000                       N    
RDG08562100WATRL000000004K00000000000006919006502032015115810N000000000000N85       004000400K 10000000010000006888           
CUS0856210000108024812003         CRAMBLITT CARROLL   5403 OLD FREDERICK RD                   000N        CARE OF             
MTR08562100001000000000000000RA              01070464    005801510000015100000610000003NN  NNW 000                       N    
RDG08562100WATRL000000004K00000000000000155006402032015115647N000000000000N83       002170400K 10000000010000000151           
CUS0856210000108024813001         JIGGETTS O DELONZO  5401 OLD FREDERICK RD                   000N        CARE OF             
MTR08562100001000000000000000RA              01070452    005801520000015200000610000003NN  NNW 000                       N    
RDG08562100WATRL000000004K00000000000000375006502032015115749N000000000000N83       000620400K 10000000010000000351           
CUS0856210000108024820006         BIRCHESS DAMIAN E   5500 OLD FREDERICK RD                   000N        CARE OF             
MTR08562100001000000000000000RA              01080418    005801530000015300000610000003NN  NNW 000                       N    
RDG08562100WATRL000000004K00000000000001286006402032015115130N000000000001N85       002090400K 10000000010000001267           
CUS0856210000108024821004         BRANDT ROBERT C     5504 OLD FREDERICK RD                   000N        CARE OF             
MTR08562100001000000000000000RA              01110223    005801540000015400000610000003NY  NNW 000                       N    
MTM0856210001110223    BURIED                                                                                                 
RDG08562100WATRL000000004K00000000000000000000000000000000000 000000000000U         000000400  10000000010000000748           
CUS0856210000108024822002         EVANS ANTHONY E     5510 OLD FREDERICK RD                   000N        CARE OF             
MTR08562100001000000000000000RA              35106412    005801550000015500000520000003NY  NNW 000                       N    
MTM0856210035106412    GATELOCKEDNOACCESS                                                                                     
RDG08562100WATRL000000004K00000000000000000000000000000000000 000000000000U         000000400  10000000010000003605           
CUS0856210000108024824008         CATONSVILLE CARWASH 5525 BALTIMORE NATL PIKE                000N        CARE OF             
MTR08562100001000000000000000RA              31938015    000101560000015600000520000003NY  NNW 000                       N    
MTM0856210031938015    FROZEN                                                                                                 
RDG08562100WATRL000000004K00000000000001962001702122015093940N000000000000U85       003940400K 10000000010000001962           
CUS0856210000108024828009         OMAOPA ENTERPRISES L5502 JOHNNYCAKE RD                      000N        CARE OF             
MTR08562100001000000000000000RA              01098417    007501570000015700000610000003NY  NNW 000                       N    
MTM0856210001098417    ICE WATER                                                                                              
RDG08562100WATRL000000004K00000000000000372001802122015094601N000000000000U85       003810400K 10000000010000000367           
CUS0856210000108024827001         KIMMEL AUTOMOTIVE IN5545 BALTIMORE NATL PIKE                000N        CARE OF             
MTR08562100001000000000000000RA              25781494    005801580000015800000520000003NN  NNW 000                       N    
RDG08562100WATRL000000004K00000000000006140006602032015120649N000000000000N83       005400400K 10000000010000005872           
CUS0856210000108022523008         PAT HIBAN REAL ESTAT1123 ST AGNES LN                        000N        CARE OF             
MTR08562100001000000000000000RA              76348313    005801590000015900000350000003NN  NNW 000                       N    
RDG08562100WATRL000000004K00000000000000020006602032015121321N000400000010N85       009110400K 10000000010000000019           
CUS0856210000108022524006         COULTER MARIE O     1201 ST AGNES LN                        000N        CARE OF             
MTR08562100001000000000000000RA              30248829    007501600000016000000520000003NN  NNW 000                       N    
RDG08562100WATRL000000004K00000000000001640006702032015121549N000000000000N85       001480400K 10000000010000001628           
CUS0856210000108022525003         WADLINGTON DONZELLA 1203 ST AGNES LN                        000N        CARE OF             
MTR08562100001000000000000000RA              35097711    005801610000016100000520000003NN  NNW 000                       N    
RDG08562100WATRL000000004K00000000000002342006802032015121748N000400000010N85       001190400K 10000000010000002341           
CUS0856210000108022526001         GONZALEZ ELISEO GONZ1301 ST AGNES LN                        000N        CARE OF             
MTR08562100001000000000000000RA              38985226    005801620000016200000520000003NN  NNW 000                       N    
RDG08562100WATRL000000004K00000000000004272006902032015121912N000000000000N85       000840400K 10000000010000004253           
CUS0856210000108022527009         ROYSTER RHONDA      1116 STAMFORD RD                        000N        CARE OF             
MTR08562100001000000000000000RA              50791308    005801630000016300000520000003NN  NNW 000                       N    
RDG08562100WATRL000000004K00000000000001419007002032015122131N000000000000N85       001390400K 10000000010000001404           
CUS0856210000108022528007         MEDLEY HAROLD G     1114 STAMFORD RD                        000N        CARE OF             
MTR08562100001000000000000000RA              14919100    005801640000016400000310000000NN  NNW 000                       N    
RDG08562100WATRL000000004K00000000000000582007102032015122229N000000000000N85       000580400K 10000000010000000547           
CUS0856210000108022529005         JOHNSON CLARENCE DAM1112 STAMFORD RD                        000N        CARE OF             
MTR08562100001000000000000000RA              46879606    005801650000016500000520000003NN  NNW 000                       N    
RDG08562100WATRL000000004K00000000000001667007202032015122415N000000000000N85       001060400K 10000000010000001646           
CUS0856210000108022530003         RICHARDSON JEFFREY H1350 MARTIN DR                          000N        CARE OF             
MTR08562100001000000000000000RA              26007945    005801660000016600000520000003NN  NNW 000                       N    
RDG08562100WATRL000000004K00000000000001655007302032015122600N000000000000N85       001050400K 10000000010000001650           
CUS0856210000108022531001         WILLIAMS JOHN A     1348 MARTIN DR                          000N        CARE OF             
MTR08562100001000000000000000RA              00139248    005801670000016700000570000003NN  NNW 000                       N    
RDG08562100WATRL000000004K00000000000000766007402032015122718N000400000010N85       000780400K 10000000010000000760           
CUS0856210000108022532009         HEALY MICHAEL       1346 MARTIN DR                          000N        CARE OF             
MTR08562100001000000000000000RA              41590024    005801680000016800000520000000NN  NNW 000                       N    
RDG08562100WATRL000000004K00000000000001821007502032015122823N000000000000N85       000650400K 10000000010000001821           
CUS0856210000108022533007         BLACKWELL ANTHONY S 1344 MARTIN DR                          000N        CARE OF             
MTR08562100001000000000000000RA              27819964    005801690000016900000520000003NN  NNW 000                       N    
RDG08562100WATRL000000004K00000000000003396007602032015122949N000000000000N85       000860400K 10000000010000003388           
CUS0856210000108022534005         ROMERO HENRY A      1342 MARTIN DR                          000N        CARE OF             
MTR08562100001000000000000000RA              19460627    005801700000017000000520000003NN  NNW 000                       N    
RDG08562100WATRL000000004K00000000000004271007702032015123135N000000000000N85       001060400K 10000000010000004254           
CUS0856210000108022535002         FOY PETER J         1340 MARTIN DR                          000N        CARE OF             
MTR08562100001000000000000000RA              32903976    005801710000017100000520000003NN  NNW 000                       N    
RDG08562100WATRL000000004K00000000000003970007802032015123252N000000000000N85       000770400K 10000000010000003922           
CUS0856210000108022536000         JIMMY OSBORNE       1106 SEDGEWOOD RD                       000N        CARE OF             
MTR08562100001000000000000000RA              48588731    005801720000017200000520000003NN  NNW 000                       N    
RDG08562100WATRL000000004K00000000000002936007902032015123441N000000000001N85       001090400K 10000000010000002926           
CUS0856210000108022537008         WOOTEN PALMER E     1104 SEDGEWOOD RD                       000N        CARE OF             
MTR08562100001000000000000000RA              00139246    005801730000017300000570000003NN  NNW 000                       N    
RDG08562100WATRL000000004K00000000000002011008002032015123523N000000000000N85       000420400K 10000000010000001992           
CUS0856210000108022538006         CMB INVESTMENTS INC 1102 SEDGEWOOD RD                       000N        CARE OF             
MTR08562100001000000000000000RA              48589003    005801740000017400000520000003NN  NNW 000                       N    
RDG08562100WATRL000000004K00000000000003611008102032015123632N000000000000N85       000690400K 10000000010000003596           
CUS0856210000108022539004         MCLEAN MELINDA Y    1100 SEDGEWOOD RD                       000N        CARE OF             
MTR08562100001000000000000000RA              00139247    005801750000017500000570000003NN  NNW 000                       N    
RDG08562100WATRL000000004K00000000000000778008202032015123828N000400000010N85       001160400K 10000000010000000767           
CUS0856210000108022540002         LANGHORNE JAMES E   1331 VALLEYBROOK RD                     000N        CARE OF             
MTR08562100001000000000000000RA              30514439    005801760000017600000520000003NN  NNW 000                       N    
RDG08562100WATRL000000004K00000000000003260008302032015123902N000000000000N85       000340400K 10000000010000003249           
CUS0856210000108022541000         CONWAY LINDA K      1333 VALLEYBROOK RD                     000N        CARE OF             
MTR08562100001000000000000000RA              00139214    005801770000017700000570000003NN  NNW 000                       N    
RDG08562100WATRL000000004K00000000000002027008402032015124006N000000000000N85       000640400K 10000000010000001996           
CUS0856210000108022542008         JERRY JUDITH        1335 VALLEYBROOK RD                     000N        CARE OF             
MTR08562100001000000000000000RA              46876557    005801780000017800000520000000NN  NNW 000                       N    
RDG08562100WATRL000000004K00000000000001785008502032015124057N000000000000N85       000510400K 10000000010000001762           
CUS0856210000108022543006         MOREY MICHAEL J     1337 VALLEYBROOK RD                     000N        CARE OF             
MTR08562100001000000000000000RA              00139210    005801790000017900000570000000NN  NNW 000                       N    
RDG08562100WATRL000000004K00000000000001008008602032015124225N000000000000N85       000880400K 10000000010000001001           
CUS0856210000108022544004         ROGERS SYLVIA DOREEN1339 VALLEYBROOK RD                     000N        CARE OF             
MTR08562100001000000000000000RA              40048341    005801800000018000000520000000NN  NNW 000                       N    
RDG08562100WATRL000000004K00000000000002735008702032015124321N000000000000N85       000560400K 10000000010000002722           
CUS0856210000108022545001         DAVIS DENISE R      1101 SEDGEWOOD RD                       000N        CARE OF             
MTR08562100001000000000000000RA              44093436    005801810000018100000520000003NN  NNW 000                       N    
RDG08562100WATRL000000004K00000000000001438008802032015124402N000000000000N85       000410400K 10000000010000001423           
CUS0856210000108022546009         WALTER HELEN THERESA1103 SEDGEWOOD RD                       000N        CARE OF             
MTR08562100001000000000000000RA              45373276    005801820000018200000520000000NN  NNW 000                       N    
RDG08562100WATRL000000004K00000000000002276008902032015124456N000000000000N85       000540400K 10000000010000002264           
CUS0856210000108022547007         BUTLER ISAAC L      1105 SEDGEWOOD RD                       000N        CARE OF             
MTR08562100001000000000000000RA              30521914    005801830000018300000520000003NN  NNW 000                       N    
RDG08562100WATRL000000004K00000000000002930009002032015124730N000000000000N85       001540400K 10000000010000002913           
CUS0856210000108022548005         MATTHEWS BERNADETTE 1107 SEDGEWOOD RD                       000N        CARE OF             
MTR08562100001000000000000000RA              11337051    005801840000018400000570000003NN  NNW 000                       N    
RDG08562100WATRL000000004K00000000000004316009102032015125017N000000000000N85       001670400K 10000000010000004310           
CUS0856210000108022549003         KRAINER EDWARD FRANK1109 SEDGEWOOD RD                       000N        CARE OF             
MTR08562100001000000000000000RA              39289890    005801850000018500000520000003NN  NNW 000                       N    
RDG08562100WATRL000000004K00000000000003747009202032015125117N000000000000N85       000600400K 10000000010000003717           
CUS0856210000108022550001         CLEA RAYDEL         1343 MARTIN DR                          000N        CARE OF             
MTR08562100001000000000000000RA              75616538    005801860000018600000350000003NN  NNW 000                       N    
RDG08562100WATRL000000004K00000000000000283009302032015125239N000400000010N85       000820400K 10000000010000000265           
CUS0856210000108022551009         MNSF BALTIMORE LLC  1345 MARTIN DR                          000N        CARE OF             
MTR08562100001000000000000000RA              29084319    005801870000018700000520000003NN  NNW 000                       N    
RDG08562100WATRL000000004K00000000000002565009402032015125328N000000000000N85       000490400K 10000000010000002552           
CUS0856210000108022552007         FRANKLIN MARY       1347 MARTIN DR                          000N        CARE OF             
MTR08562100001000000000000000RA              46879591    005801880000018800000520000003NN  NNW 000                       N    
RDG08562100WATRL000000004K00000000000002028009302032015125512N000000000010N83       001700400K 10000000010000002026           
CUS0856210000108022553005         CARROLL GREGORY A   1110 STAMFORD RD                        000N        CARE OF             
MTR08562100001000000000000000RA              11337207    005801890000018900000570000003NN  NNW 000                       N    
RDG08562100WATRL000000004K00000000000004076009202032015125222N000000000000N83       000620400K 10000000010000004053           
CUS0856210000108022554003         LONG MICHAEL A      1108 STAMFORD RD                        000N        CARE OF             
MTR08562100001000000000000000RA              00134675    005801900000019000000570000003NN  NNW 000                       N    
RDG08562100WATRL000000004K00000000000000938009102032015125120N000000000000N83       000480400K 10000000010000000925           
CUS0856210000108022555000         MCKENNEY SONYA      1106 STAMFORD RD                        000N        CARE OF             
MTR08562100001000000000000000RA              48594040    005801910000019100000520000003NN  NNW 000                       N    
RDG08562100WATRL000000004K00000000000001001009002032015125032N000000000000N83       000910400K 10000000010000000991           
CUS0856210000108022556008         BAYNE DONALD S      1104 STAMFORD RD                        000N        CARE OF             
MTR08562100001000000000000000RA              41081322    005801920000019200000520000003NN  NNW 000                       N    
RDG08562100WATRL000000004K00000000000003140008902032015124901N000000000000N83       000760400K 10000000010000003121           
CUS0856210000108022557006         FREEMAN ROBERT E    1102 STAMFORD RD                        000N        CARE OF             
MTR08562100001000000000000000RA              14920020    005801930000019300000310000003NN  NNW 000                       N    
RDG08562100WATRL000000004K00000000000000179008802032015124745N000000000000N83       000040400K 10000000010000000174           
CUS0856210000108022558004         DODSON SHEREE       1100 STAMFORD RD                        000N        CARE OF             
MTR08562100001000000000000000RA              14920023    005801940000019400000310000003NN  NNW 000                       N    
RDG08562100WATRL000000004K00000000000000819008702032015124741N000000000000N83       000670400K 10000000010000000790           
CUS0856210000108022559002         SHANELLE BRIGHTFUL  1115 STAMFORD RD                        000N        CARE OF             
MTR08562100001000000000000000RA              00139250    005801950000019500000570000003NN  NNW 000                       N    
RDG08562100WATRL000000004K00000000000000556008602032015124634N000000000000N83       000740400K 10000000010000000533           
CUS0856210000108022560000         KEELING DIANNE M C  1117 STAMFORD RD                        000N        CARE OF             
MTR08562100001000000000000000RA              30522278    005801960000019600000520000003NN  NNW 000                       N    
RDG08562100WATRL000000004K00000000000004030008502032015124520N000000000000N83       001250400K 10000000010000004017           
CUS0856210000108022561008         JAMES JOANNE        1119 STAMFORD RD                        000N        CARE OF             
MTR08562100001000000000000000RA              00139245    005801970000019700000570000003NN  NNW 000                       N    
RDG08562100WATRL000000004K00000000000001194008402032015124315N000000000000N83       000830400K 10000000010000001186           
CUS0856210000108022562006         ZELIK ESTELLE A     1121 STAMFORD RD                        000N        CARE OF             
MTR08562100001000000000000000RA              10017102    005801980000019800000570000003NN  NNW 000                       N    
RDG08562100WATRL000000004K00000000000000152008302032015124152N000000000000N83       000600400K 10000000010000000140           
CUS0856210000108022563004         SUTTON CARLTON E    1123 STAMFORD RD                        000N        CARE OF             
MTR08562100001000000000000000RA              41081292    005801990000019900000520000003NN  NNW 000                       N    
RDG08562100WATRL000000004K00000000000002593008202032015124052N000000000000N83       001360400K 10000000010000002576           
CUS0856210000108022564002         HINMON ESLYN G      1401 MARTIN DR                          000N        CARE OF             
MTR08562100001000000000000000RA              41081295    005802000000020000000520000003NN  NNW 000                       N    
RDG08562100WATRL000000004K00000000000002272008102032015123836N000000000000N83       001000400K 10000000010000002268           
CUS0856210000108022565009         HOYTE PATRICIA ANN  1403 MARTIN DR                          000N        CARE OF             
MTR08562100001000000000000000RA              10004021    005802010000020100000570000003NN  NNW 000                       N    
RDG08562100WATRL000000004K00000000000000393008002032015123656N000000000000N83       000830400K 10000000010000000383           
CUS0856210000108022566007         PAIGE WILLIE AVERY  1132 WEDGEWOOD RD                       000N        CARE OF             
MTR08562100001000000000000000RA              10004107    005802020000020200000570000003NN  NNW 000                       N    
RDG08562100WATRL000000004K00000000000000695007902032015123533N000000000000N83       001240400K 10000000010000000671           
CUS0856210000108022567005         SPENCER WALTER,JR   1130 WEDGEWOOD RD                       000N        CARE OF             
MTR08562100001000000000000000RA              30516899    005802030000020300000520000003NN  NNW 000                       N    
RDG08562100WATRL000000004K00000000000004500007802032015123329N000000000000N83       000580400K 10000000010000004477           
CUS0856210000108022568003         GRESHAM FLORENCE LOU1128 WEDGEWOOD RD                       000N        CARE OF             
MTR08562100001000000000000000RA              01084717    005802040000020400000610000003NN  NNW 000                       N    
RDG08562100WATRL000000004K00000000000001289007702032015123231N000000000000N83       000820400K 10000000010000001276           
CUS0856210000108022569001         JOSEPH BLOUIN       1126 WEDGEWOOD RD                       000N        CARE OF             
MTR08562100001000000000000000RA              14905922    005802050000020500000310000003NN  NNW 000                       N    
RDG08562100WATRL000000004K00000000000001056007602032015123109N000000000000N83       000030400K 10000000010000001056           
CUS0856210000108022570009         YOUNG DAWN F        1124 WEDGEWOOD RD                       000N        CARE OF             
MTR08562100001000000000000000RA              44172817    005802060000020600000520000003NN  NNW 000                       N    
RDG08562100WATRL000000004K00000000000001838007502032015123106N000000000000N83       000950400K 10000000010000001825           
CUS0856210000108022571007         JACKSON ALVIN J     1137 WEDGEWOOD RD                       000N        CARE OF             
MTR08562100001000000000000000RA              01080240    005802070000020700000610000003NN  NNW 000                       N    
RDG08562100WATRL000000004K00000000000000973007402032015122931N000000000000N83       000390400K 10000000010000000962           
CUS0856210000108022572005         MASSEY LAVERNA      1139 WEDGEWOOD RD                       000N        CARE OF             
MTR08562100001000000000000000RA              35117853    005802080000020800000520000003NN  NNW 000                       N    
RDG08562100WATRL000000004K00000000000001710007302032015122852N000000000000N83       000040400K 10000000010000001698           
CUS0856210000108022573003         MIERKIEWICZ FRANCIS 1141 WEDGEWOOD RD                       000N        CARE OF             
MTR08562100001000000000000000RA              19462452    005802090000020900000520000003NN  NNW 000                       N    
RDG08562100WATRL000000004K00000000000004601007202032015122848N000000000000N83       000650400K 10000000010000004594           
CUS0856210000108022574001         THOMAS RONALD JOSEPH1143 WEDGEWOOD RD                       000N        CARE OF             
MTR08562100001000000000000000RA              36697461    005802100000021000000520000003NN  NNW 000                       N    
RDG08562100WATRL000000004K00000000000001999007102032015122743N000000000000N83       000340400K 10000000010000001988           
CUS0856210000108022575008         JACKSON ALVIN JEROME1145 WEDGEWOOD RD                       000N        CARE OF             
MTR08562100001000000000000000RA              01080419    005802110000021100000610000003NN  NNW 000                       N    
RDG08562100WATRL000000004K00000000000001606007002032015122709N000000000000N83       000710400K 10000000010000001574           
CUS0856210000108022576006         KAPLAN EVAN J       1402 MARTIN DR                          000N        CARE OF             
MTR08562100001000000000000000RA              41590047    005802120000021200000520000003NN  NNW 000                       N    
RDG08562100WATRL000000004K00000000000001287006902032015122558N000000000000N83       000670400K 10000000010000001279           
CUS0856210000108022577004         ROLAND JAMES H      1400 MARTIN DR                          000N        CARE OF             
MTR08562100001000000000000000RA              10001648    005802130000021300000570000003NN  NNW 000                       N    
RDG08562100WATRL000000004K00000000000000752006802032015122451N000000000000N83       001380400K 10000000010000000636           
CUS0856210000108022578002         NATHAN VEDA M       1125 STAMFORD RD                        000N        CARE OF             
MTR08562100001000000000000000RA              01076011    005802140000021400000610000003NN  NNW 000                       N    
RDG08562100WATRL000000004K00000000000001606006702032015122233N000000000000N83       009440400K 10000000010000001583           
CUS0856210000108022639002         RAUN REALTY, LLC    SS ST. AGNES LA 90 FT                   000N        CARE OF             
MTR08562100001000000000000000RA              29084231    005802150000021500000520000003NN  NNW 000                       N    
RDG08562100WATRL000000004K00000000000004356009502032015125940N000000000000N85       003720400K 10000000010000004356           
CUS0856210000108022640000         SMO INCORPORATED    1699 N FOREST PARK AVE                  000N        CARE OF             
MTR08562100001000000000000000RA              46890441    007502160000021600000520000003NN  NNW 000                       N    
RDG08562100WATRL000000004K00000000000000795009602032015130328N000000000000N85       002280400K 10000000010000000789           
CUS0856210000108022641008         JOHNSON CHARLES     1142 COOKS LN                           000N        CARE OF             
MTR08562100001000000000000000RA              24768002    005802170000021700000520000003NN  NNW 000                       N    
RDG08562100WATRL000000004K00000000000001691009402032015130226N000000000000N83       004340400K 10000000010000001691           
CUS0856210000108022642006         FLETCHER JOHN       1140 COOKS LN                           000N        CARE OF             
MTR08562100001000000000000000RA              11326133    005802180000021800000570000003NN  NNW 000                       N    
RDG08562100WATRL000000004K00000000000004529009502032015130231N000000000000N83       000050400K 10000000010000004500           
RTR08562100NN02180218000002180000000002180218000635NY021802180218001000100000000000000000000002    01222015NY020000 N         
RHD08555000NN02560256000002560000000002560256000268NY025602560256000100000000000000000000000002    01292015NY020000 N         
CUS0855500000108020770007         FORD DELORES M      5160 BALTIMORE NATL PIKE                000N        CARE OF             
MTR08555000001000000000000000RA              27820379    005800010000000100000520000003NN  NNW 000                       N    
RDG08555000WATRL000000004K00000000000002613008202112015100200N000000000010U88       000990400K 10000000010000002585           
CUS0855500000108020771005         CARPENTER JOEL D    5162 BALTIMORE NATL PIKE                000N        CARE OF             
MTR08555000001000000000000000RA              99412181    007500020000000200000570000003NN  NNW 000                       N    
RDG08555000WATRL000000004K00000000000003193008102112015100021N000000000000U88       002570400K 10000000010000003178           
CUS0855500000108020772003         COMMUNE PROPERTIES,L703 CHARING CROSS RD                    000N        CARE OF             
MTR08555000001000000000000000RA              45378462    005800030000000300000520000003NN  NNW 000                       N    
RDG08555000WATRL000000004K00000000000002444006802112015093955N000400000010U88       001740400K 10000000010000002422           
CUS0855500000108020773001         HENSON KEITH L      705 CHARING CROSS RD                    000N        CARE OF             
MTR08555000001000000000000000RA              45378461    005800040000000400000520000003NN  NNW 000                       N    
RDG08555000WATRL000000004K00000000000002733006902112015094103N000000000000U88       000680400K 10000000010000002712           
CUS0855500000108020774009         WILLIAM J BURKE     707 CHARING CROSS RD                    000N        CARE OF             
MTR08555000001000000000000000RA              44087197    005800050000000500000520000003NN  NNW 000                       N    
RDG08555000WATRL000000004K00000000000002658007002112015094143N000000000010U88       000400400K 10000000010000002640           
CUS0855500000108020775006         HARRINGTON WALTER   709 CHARING CROSS RD                    000N        CARE OF             
MTR08555000001000000000000000RA              01089841    005800060000000600000610000000NN  NNW 000                       N    
RDG08555000WATRL000000004K00000000000000755007102112015094223N000000000000U88       000400400K 10000000010000000718           
CUS0855500000108020776004         PONEY JAMES C       711 W HILLS PKWY                        000N        CARE OF             
MTR08555000001000000000000000RA              01109177    005800070000000700000610000003NN  NNW 000                       N    
RDG08555000WATRL000000004K00000000000000308007202112015094316N000000000000U88       000530400K 10000000010000000304           
CUS0855500000108020777002         SEGREE DINAH        713 W HILLS PKWY                        000N        CARE OF             
MTR08555000001000000000000000RA              01109184    005800080000000800000610000003NN  NNW 000                       N    
RDG08555000WATRL000000004K00000000000001180007302112015094338N000000000000U88       000220400K 10000000010000001150           
CUS0855500000108020778000         WF PROPERTY LLC     715 W HILLS PKWY                        000N        CARE OF             
MTR08555000001000000000000000RA              01071832    005800090000000900000610000003NN  NNW 000                       N    
RDG08555000WATRL000000004K00000000000002200007402112015094420N000000000000U88       000420400K 10000000010000002174           
CUS0855500000108020779008         HEFFNER SARA ANN    717 W HILLS PKWY                        000N        CARE OF             
MTR08555000001000000000000000RA              01071809    005800100000001000000610000003NN  NNW 000                       N    
RDG08555000WATRL000000004K00000000000001060007502112015094459N000400000010U88       000390400K 10000000010000001030           
CUS0855500000108020780006         MACK PORTIA         719 W HILLS PKWY                        000N        CARE OF             
MTR08555000001000000000000000RA              01076010    005800110000001100000610000003NN  NNW 000                       N    
RDG08555000WATRL000000004K00000000000001646007602112015094618N000000000000U88       000790400K 10000000010000001635           
CUS0855500000108020781004         MOULTRIE CHARLES WIL721 W HILLS PKWY                        000N        CARE OF             
MTR08555000001000000000000000RA              29681390    005800120000001200000520000003NN  NNW 000                       N    
RDG08555000WATRL000000004K00000000000001749006602112015092230N000000000010U88       000810400K 10000000010000001738           
CUS0855500000108020782002         723 WEST HILLS PKWY,723 W HILLS PKWY                        000N        CARE OF             
MTR08555000001000000000000000RA              14919097    005800130000001300000310000003NN  NNW 000                       N    
RDG08555000WATRL000000004K00000000000000301006502112015092109N000000000000U88       000080400K 10000000010000000278           
CUS0855500000108020783000         MANIFEST HOLDINGS LL725 W HILLS PKWY                        000N        CARE OF             
MTR08555000001000000000000000RA              14903347    005800140000001400000310000003NN  NNW 000                       N    
RDG08555000WATRL000000004K00000000000000790006402112015092101N000000000000U88       000620400K 10000000010000000774           
CUS0855500000108020784008         LOTT LINDA M        727 W HILLS PKWY                        000N        CARE OF             
MTR08555000001000000000000000RA              44174555    005800150000001500000520000003NN  NNW 000                       N    
RDG08555000WATRL000000004K00000000000000961006302112015091959N000000000000U88       000040400K 10000000010000000961           
CUS0855500000108020785005         WILLIAMS ANTHONY    729 W HILLS PKWY                        000N        CARE OF             
MTR08555000001000000000000000RA              35097064    005800160000001600000520000003NN  NNW 000                       N    
RDG08555000WATRL000000004K00000000000001558006202112015091955N000000000000U88       000400400K 10000000010000001544           
CUS0855500000108020786003         HENSON KEVIN T      731 W HILLS PKWY                        000N        CARE OF             
MTR08555000001000000000000000RA              24759535    005800170000001700000520000003NN  NNW 000                       N    
RDG08555000WATRL000000004K00000000000003298006102112015091915N000000000000U88       000050400K 10000000010000003268           
CUS0855500000108020787001         LEE GEORGE EDWARD,3R733 W HILLS PKWY                        000N        CARE OF             
MTR08555000001000000000000000RA              24759351    005800180000001800000520000003NN  NNW 000                       N    
RDG08555000WATRL000000004K00000000000002526006002112015091910N000000000000U88       000420400K 10000000010000002518           
CUS0855500000108020788009         OWENS TINA MARIE    735 W HILLS PKWY                        000N        CARE OF             
MTR08555000001000000000000000RA              25780125    005800190000001900000520000003NN  NNW 000                       N    
RDG08555000WATRL000000004K00000000000002624005902112015091828N000000000000U88       000070400K 10000000010000002617           
CUS0855500000108020789007         BELGRAVE SHANI      737 W HILLS PKWY                        000N        CARE OF             
MTR08555000001000000000000000RA              20767991    005800200000002000000520000000NN  NNW 000                       N    
RDG08555000WATRL000000004K00000000000003690005802112015091821N000000000000U88       001210400K 10000000010000003685           
CUS0855500000108020790005         FREEMAN WENDY V     739 W HILLS PKWY                        000N        CARE OF             
MTR08555000001000000000000000RA              99288840    005800210000002100000570000003NN  NNW 000                       N    
RDG08555000WATRL000000004K00000000000000678005702112015091620N000000000000U88       000730400K 10000000010000000664           
CUS0855500000108020791003         BROOKS NASHEA M     741 W HILLS PKWY                        000N        CARE OF             
MTR08555000001000000000000000RA              14923888    005800220000002200000310000003NN  NNW 000                       N    
RDG08555000WATRL000000004K00000000000000634005602112015091507N000000000000U88       001010400K 10000000010000000612           
CUS0855500000108020792001         SMITH ROBIN M       743 W HILLS PKWY                        000N        CARE OF             
MTR08555000001000000000000000RA              10013453    005800230000002300000570000003NN  NNW 000                       N    
RDG08555000WATRL000000004K00000000000000314005502112015091326N000000000000U88       000070400K 10000000010000000303           
CUS0855500000108020793009         BURSE IRIS ZELDA    745 W HILLS PKWY                        000N        CARE OF             
MTR08555000001000000000000000RA              14903346    005800240000002400000310000003NN  NNW 000                       N    
RDG08555000WATRL000000004K00000000000000528005402112015091319N000000000000U88       000620400K 10000000010000000528           
CUS0855500000108020794007         WILKERSON TYQUATA   747 W HILLS PKWY                        000N        CARE OF             
MTR08555000001000000000000000RA              29681746    005800250000002500000520000003NN  NNW 000                       N    
RDG08555000WATRL000000004K00000000000002532005302112015091217N000000000000U88       000160400K 10000000010000002521           
CUS0855500000108020795004         BLAIR ARTHUR M      749 W HILLS PKWY                        000N        CARE OF             
MTR08555000001000000000000000RA              46888817    005800260000002600000520000003NN  NNW 000                       N    
RDG08555000WATRL000000004K00000000000001018005202112015091201N000000000000U88       001080400K 10000000010000001012           
CUS0855500000108020796002         JOHNSON MAE A       751 W HILLS PKWY                        000N        CARE OF             
MTR08555000001000000000000000RA              22606549    005800270000002700000520000003NN  NNW 000                       N    
RDG08555000WATRL000000004K00000000000002388005102112015091013N000000000000U88       000050400K 10000000010000002363           
CUS0855500000108020797000         LOEB MATT           753 W HILLS PKWY                        000N        CARE OF             
MTR08555000001000000000000000RA              01071661    005800280000002800000610000003NN  NNW 000                       N    
RDG08555000WATRL000000004K00000000000001014005002112015091008N000000000000U88       000520400K 10000000010000000993           
CUS0855500000108020798008         HOLLIDAY LETICIA    755 W HILLS PKWY                        000N        CARE OF             
MTR08555000001000000000000000RA              31583547    005800290000002900000520000003NN  NNW 000                       N    
RDG08555000WATRL000000004K00000000000002021004902112015090916N000000000000U88       000030400K 10000000010000002000           
CUS0855500000108020799006         HOLLEY BRYAN L      757 W HILLS PKWY                        000N        CARE OF             
MTR08555000001000000000000000RA              31583592    005800300000003000000520000003NN  NNW 000                       N    
RDG08555000WATRL000000004K00000000000003084004802112015090913N000000000000U88       000460400K 10000000010000003079           
CUS0855500000108020800002         RYLES RHONDA JEAN   759 W HILLS PKWY                        000N        CARE OF             
MTR08555000001000000000000000RA              44176740    005800310000003100000520000003NN  NNW 000                       N    
RDG08555000WATRL000000004K00000000000000900004702112015090827N000000000000U88       000040400K 10000000010000000892           
CUS0855500000108020801000         TODD FRANKLIN J     761 W HILLS PKWY                        000N        CARE OF             
MTR08555000001000000000000000RA              44176732    005800320000003200000520000003NN  NNW 000                       N    
RDG08555000WATRL000000004K00000000000002088004602112015090823N000000000000U88       000390400K 10000000010000002046           
CUS0855500000108020802008         ROBINSON MAJOR      763 W HILLS PKWY                        000N        CARE OF             
MTR08555000001000000000000000RA              33083935    005800330000003300000520000003NN  NNW 000                       N    
RDG08555000WATRL000000004K00000000000002254004502112015090744N000000000000U88       000030400K 10000000010000002241           
CUS0855500000108020803006         BIRCKHEAD BEVERLY   765 W HILLS PKWY                        000N        CARE OF             
