FHDNNNN004000491000491000628N                                                                                           001694
RHD09610300NN00960096000000960000000000880088000020NY008800880096000300070000000000000000000001    02052015NY020000 N         
CUS0961030000109349305004         P & S REALTY CO     1-50 JANPER CT                          000N        CARE OF             
MTR09610300001000000000000000RA              1171520     000200010000000100000490000003NY  NNW 000                       N    
MTM096103001171520     OK                                                                                                     
RDG09610300WATRL000000005K00000000000013228000102172015074553N000300000010N91       000000500K 10000000010000027316           
CUS0961030000109146581005         WINDSOR 6314 LLC    6314 WINDSOR MILL RD                    000N        CARE OF             
MTR09610300001000000000000000RA              28339072    000200020000000200000520000003NN  NNW 000                       N    
RDG09610300WATRL000000005K00000000000003300000202172015074605N000000000000N91       000120500K 10000000010000003281           
CUS0961030000109146583001         WINDSOR MILL CORPORAES ESSEX RD 400 FT                      000N        CARE OF             
MTR09610300001000000000000000RA              1275711     000300030000000300000490000003NN  NNW 000                       N    
RDG09610300WATRL000000005K00000000000040608000302172015074611N000000000000N91       000060500K 10000000010000038432           
CUS0961030000109146584009         WINDSOR MILL CORPORANWC ESSEX RD &                          000N        CARE OF             
MTR09610300001000000000000000RA              32905235    000200040000000400000520000003NN  NNW 000                       N    
RDG09610300WATRL000000005K00000000000036607000402172015074616N000000000000N91       000050500K 10000000010000036212           
CUS0961030000109146585006         CROSS CREEK APARTMENWS ESSEX RD 155 FT                      000N        CARE OF             
MTR09610300001000000000000000RA              10803537    000300050000000500000640000003NN  NNW 000                       N    
RDG09610300WATRL000000005K00000000000025657000502172015074625N000000000000N91       000090500K 10000000010000023955           
CUS0961030000109146586004         CROSS CREEK APARTMENWS ESSEX RD 520 FT                      000N        CARE OF             
MTR09610300001000000000000000RA              9208109     000300060000000600000640000003NN  NNW 000                       N    
RDG09610300WATRL000000005K00000000000033245000602172015074633N000000000000N91       000080500K 10000000010000031228           
CUS0961030000109146587002         WOODLAWN VILLAGE LLC6601-6705 KINCHELOE AVE                 000N        CARE OF             
MTR09610300001000000000000000RA              01116801    000200070000000700000610000003NN  NNW 000                       N    
RDG09610300WATRL000000005K00000000000026171000702172015074640N000000000000N91       000070500K 10000000010000025505           
CUS0961030000109146588000         VERIZON MARYLAND INC6601-03 WINDSOR MILL RD                 000N        CARE OF             
MTR09610300001000000000000000RA              99999999    000200080000000800000620000003NN  NNW 000                       N    
RDG09610300WATRL000000005K00000000000000000000802172015074645S022000000000N91       000050500K 10000000010000000308           
CUS0961030000109360051008         VERIZON MARYLAND INC6601-03 WINDSOR MILL RD                 000N        CARE OF             
MTR09610300001000000000000000RA              E13813      000800090000000900000430000003NN  NNW 000   FIRE SERVICE        N    
RDG09610300WATRL000000006K00000000000000005000902172015074650N000000000000N91       000050600K 10000000010000000005           
CUS0961030000109360050000         VERIZON MARYLAND INC6601-03 WINDSOR MILL RD                 000N        CARE OF             
MTR09610300001000000000000000RA              00066727    000200100000001000000570000003NN  NNW 000                       N    
RDG09610300WATRL000000005K00000000000000910001002172015074655N000000000000N91       000050500K 10000000010000000900           
CUS0961030000109146589008         CLARKE MANOR APARTMENS SUMMIT AV 295 FT                     000N        CARE OF             
MTR09610300001000000000000000RA              1328223     000200110000001100000490000003NY  NNW 000                       N    
MTM096103001328223     OK                                                                                                     
RDG09610300WATRL000000005K00000000000022853001102172015074707N000100000010N91       000120500K 10000000010000022853           
CUS0961030000109146591004         CLARKE MANOR APARTME1960-62 WOODLAWN DR                     000N        CARE OF             
MTR09610300001000000000000000RA              9207748     000400120000001200000640000003NN  NNW 000                       N    
RDG09610300WATRL000000006K00000000000013069001202172015074715N000000000000N91       000080600K 10000000010000012384           
CUS0961030000109146592002         CLARKE MANOR APARTME2000-06 WOODLAWN DR                     000N        CARE OF             
MTR09610300001000000000000000RA              33084198    000200130000001300000520000003NN  NNW 000                       N    
RDG09610300WATRL000000005K00000000000019162001302172015074721N000000000000N91       000060500K 10000000010000018840           
CUS0961030000109419694006         WOODLAWN VOLUNTEER F2033 WOODLAWN DR                        000N        CARE OF             
MTR09610300001000000000000000RA              8036742     000400140000001400000380000003NN  NNW 000   FIRE SERVICE        N    
RDG09610300WATRL000000006K00000000000000000001402172015074725N000000000000N91       000040600K 10000000010000000000           
CUS0961030000109419696001         WOODLAWN VOLUNTEER F2033 WOODLAWN DR                        000N        CARE OF             
MTR09610300001000000000000000RA              42877037    000200150000001500000520000003NN  NNW 000                       N    
RDG09610300WATRL000000005K00000000000007629001502172015074737N000300000010N91       000120500K 10000000010000007376           
CUS0961030000109399164004         HARIBO OF AMERICA IN1825 WOODLAWN DR                        000N        CARE OF             
MTR09610300001000000000000000RA              E22889      000600160000001600000430000003NN  NNW 000   FIRE SERVICE        N    
RDG09610300WATRL000000006K00000000000000021001602172015074752N000000000000N91       000150600K 10000000010000000021           
CUS0961030000109399167007         CREST PROP. MGMT CO 1825 WOODLAWN DR                        000N        CARE OF             
MTR09610300001000000000000000RA              31664132    001500170000001700000520000003NN  NNW 000                       N    
RDG09610300WATRL000000005K00000000000000838001702172015074811N000000000000N91       000190500K 10000000010000000774           
CUS0961030000109438263007         BALTIMORE COUNTY MD 1811 WOODLAWN DR                        000N        CARE OF             
MTR09610300001000000000000000RA              01105047    001500180000001800000610000000NN  NNW 000                       N    
RDG09610300WATRL000000005K00000000000003719001802172015074817N000000000000N91       000060500K 10000000010000003635           
CUS0961030000109438264005         BALTIMORE COUNTY MD 1811 WOODLAWN DR                        000N        CARE OF             
MTR09610300001000000000000000RA              8049351     000400190000001900000380000000NN  NNW 000   FIRE SERVICE        N    
RDG09610300WATRL000000006K00000000000000007001902172015074829N000100000010N91       000120600K 10000000010000000007           
CUS0961030000109146593000         SGF ASSOCIATES LLC  1800 WOODLAWN DR                        000N        CARE OF             
MTR09610300001000000000000000RA              4597835     000800200000002000000410000003NN  NNW 000   FIRE SERVICE        N    
RDG09610300WATRL000000006K00000000000000000002002172015074834N000000000000N91       000050600K 10000000010000000000           
CUS0961030000109146594008         SGF ASSOCIATES LLC  1800 WOODLAWN DR                        000N        CARE OF             
MTR09610300001000000000000000RA              28686862    000100210000002100000520000003NN  NNW 000                       N    
RDG09610300WATRL000000004K00000000000005215002102172015074839N000000000000N91       000050400K 10000000010000005161           
CUS0961030000109146849006         MEADOWS SHOPPING CEN6606-56 SECURITY BLVD                   000N        CARE OF             
MTR09610300002000000000000000RA              4056501     000800220000002200000630000003NN  NNW 000                       N    
RDG09610300WATAL000000006K00000000000000040002202172015074848N000400000010N91       000090600K 10000000010000000036           
RDG09610300WATBL000000006K00000000000005885002302172015074901N000400000010N91       000130600K 10000000010000004405           
CUS0961030000109422329004         CRP HOLDINGS MEADOW 6300 SECURITY BLVD                      000N        CARE OF             
MTR09610300001000000000000000RA              8040570     000600230000002300000380000003NN  NNW 000   FIRE SERVICE        N    
RDG09610300WATRL000000006K00000000000000020002402172015074907N000000000000N91       000060600K 10000000010000000020           
CUS0961030000109422331000         CRP HOLDINGS MEADOWS6300 SECURITY BLVD                      000N        CARE OF             
MTR09610300001000000000000000RA              35109456    000200240000002400000520000000NN  NNW 000                       N    
RDG09610300WATRL000000005K00000000000043329002502172015074915N000000000000N91       000080500K 10000000010000042784           
CUS0961030000109388909005         SECURITY PLAZA,LLC  1724 WOODLAWN DR                        000N        CARE OF             
MTR09610300001000000000000000RA              9601354     000300250000002500000640000003NY  NNW 000                       N    
MTM096103009601354     OK                                                                                                     
RDG09610300WATRL000000005K00000000000017585002602172015075129N000300000010N91       001340500K 10000000010000005184           
CUS0961030000109146595005         WALMART STORES 41-661718 WOODLAWN DR                        000N        CARE OF             
MTR09610300003000000000000000RA              4407211     001000260000002600000390000003NY  NNW 000   FIRE SERVICE        N    
MTM096103004407211                         C/S  C/S                                                                           
RDG09610300WATAL000000007K00000000000000155002702172015075159N000000000000U91       000300700K 10000000010000000155           
RDG09610300WATBL000000007K00000000000000000000000000000000000 000000000000U         000000700  10000000010000000800           
RDG09610300WATCL000000007K00000000000000000000000000000000000 000000000000U         000000700  10000000010000002430           
CUS0961030000109146596003         BALOGH FAMILY PARTNE1718 WOODLAWN DR                        000N        CARE OF             
MTR09610300001000000000000000RA              9601816     000400270000002700000640000003NN  NNW 000                       N    
RDG09610300WATRL000000006K00000000000017319002802172015075220N000000000000N91       000210600K 10000000010000016915           
CUS0961030000109443189007         TRICAZ III PROPERTIE1701 WOODLAWN DR                        000N        CARE OF             
MTR09610300001000000000000000RA              8052241     000600280000002800000410000000NN  NNW 000   FIRE SERVICE        N    
RDG09610300WATRL000000006K00000000000000000002902172015075255N000000000000N91       000350600K 10000000010000000000           
CUS0961030000109443188009         TRICAZ III PROPERTIE1701 WOODLAWN DR                        000N        CARE OF             
MTR09610300001000000000000000RA              14928233    007500290000002900000310000000NN  NNW 000                       N    
RDG09610300WATRL000000004K00000000000002177003002172015075300N000000000000N91       000050400K 10000000010000002113           
CUS0961030000109146597001         BALTO CO PUBLIC SCHO1801 WOODLAWN DR                        000N        CARE OF             
MTR09610300002000000000000000RA              3950114     000600300000003000000630000003NY  NNW 000                       N    
MTM096103003950114     OK                                                                                                     
RDG09610300WATAL000000006K00000000000000000003102172015075308N000000000000N91       000080600K 10000000010000000000           
RDG09610300WATBL000000006K00000000000007041003202172015075430N000400000010N91       000820600K 10000000010000000000           
CUS0961030000109415895003         CRP HOLDINGS DUNLEAV1508 WOODLAWN DR                        000N        CARE OF             
MTR09610300001000000000000000RA              42877054    000200310000003100000520000003NN  NNW 000                       N    
RDG09610300WATRL000000005K00000000000007681003302172015075440N000400000010N91       000100500K 10000000010000007653           
CUS0961030000109422167008         CRP HOLDINGS MICHAEL1506 WOODLAWN DR                        000N        CARE OF             
MTR09610300001000000000000000RA              8040536     000600320000003200000380000003NN  NNW 000   FIRE SERVICE        N    
RDG09610300WATRL000000006K00000000000000007003402172015075448N000000000000N91       000080600K 10000000010000000007           
CUS0961030000109422169004         CRP HOLDINGS MICHAEL1506 WOODLAWN DR                        000N        CARE OF             
MTR09610300001000000000000000RA              24625535    000200330000003300000520000003NN  NNW 000                       N    
RDG09610300WATRL000000005K00000000000006796003502172015075645N000000000000N91       001170500K 10000000010000006668           
CUS0961030000109146600003         SOCIAL SECURITY ADM 1500 WOODLAWN DR                        000N        CARE OF             
MTR09610300002000000000000000RA              4085398     000800340000003400000540000003NN  NNW 000                       N    
RDG09610300WATAL000000006K00000000000000061003602172015075654N000100000010N91       000090600K 10000000010000000061           
RDG09610300WATBL000000006K00000000000230222003702172015075706N000400000010N91       000120600K 10000000010000227725           
CUS0961030000109447665002         FOX CHEVROLET INC   6633 SECURITY BLVD                      000N        CARE OF             
MTR09610300001000000000000000RA              90000403    000200350000003500000570000003NN  NNW 000                       N    
RDG09610300WATRL000000005K00000000000000481003802172015075711N000000000000N91       000050500K 10000000010000000430           
CUS0961030000109447619009         FOX CHEVROLET INC   6633 SECURITY BLVD                      000N        CARE OF             
MTR09610300001000000000000000RA              11807110    000600360000003600000390000003NY  NNW 000   FIRE SERVICE        N    
MTM0961030011807110    DIAL 1 000010       DIAL 2  00009                                                                      
RDG09610300WATRL000000006K00000000000000009003902172015075825N000000000000N91       000740600K 10000000010000000009           
CUS0961030000109146605002         FOX CHEVROLET INC   6635 SECURITY BLVD                      000N        CARE OF             
MTR09610300001000000000000000RA              99999999    000200370000003700000610000003NN  NNW 000   FERRULE APPLIED     N    
RDG09610300WATRL000000005K00000000000000000004002172015075832S002000000000N91       000070500K 10000000010000001767           
CUS0961030000109146851002         MORNING STAR BAPTIST6665 SECURITY BLVD                      000N        CARE OF             
MTR09610300001000000000000000RA              01116709    000200380000003800000610000003NN  NNW 000                       N    
RDG09610300WATRL000000005K00000000000001390004102172015075839N000000000000N91       000070500K 10000000010000001375           
CUS0961030000109430877002         JAKE & JILL PROPERTI6667 SECURITY BLVD                      000N        CARE OF             
MTR09610300001000000000000000RA              1414253     000200390000003900000490000000NN  NNW 000                       N    
RDG09610300WATRL000000005K00000000000086216004202172015075845N000000000000N91       000060500K 10000000010000084615           
CUS0961030000109146850004         ZELSON EQUITIES LLC 6669 SECURITY BLVD                      000N        CARE OF             
MTR09610300001000000000000000RA              31346592    000200400000004000000520000003NN  NNW 000                       N    
RDG09610300WATRL000000005K00000000000002398004302172015075854N000400000010N91       000090500K 10000000010000002327           
CUS0961030000109383108009         QUALITY INN         6700 SECURITY BLVD                      000N        CARE OF             
MTR09610300002000000000000000RA              7102430     000800410000004100000540000003NN  NNW 000                       N    
RDG09610300WATAL000000006K00000000000000002004402172015075902N000100000010N91       000080600K 10000000010000000002           
RDG09610300WATBL000000006K00000000000001332004502172015075913N000400000010N91       000110600K 10000000010000001085           
CUS0961030000109146601001         WHITEHEAD ENTERPRISE1660 WHITEHEAD CT                       000N        CARE OF             
MTR09610300002000000000000000RA              4234295     000600420000004200000540000003NN  NNW 000                       N    
RDG09610300WATAL000000006K00000000000000000004602172015075931N000100000010N91       000180600K 10000000010000000000           
RDG09610300WATBL000000006K00000000000010765004702172015080016N000400000010N91       000450600K 10000000010000008094           
CUS0961030000109146602009         B C MARYLAND CORP   1620 WHITEHEAD CT                       000N        CARE OF             
MTR09610300001000000000000000RA              5204140     000800430000004300000410000003NN  NNW 000   FIRE SERVICE        N    
RDG09610300WATRL000000006K00000000000001148004802172015080029N000400000010N91       000130600K 10000000010000001147           
CUS0961030000109146603007         B C MARYLAND CORP   1620 WHITEHEAD CT                       000N        CARE OF             
MTR09610300001000000000000000RA              73818969    000400440000004400000390000003NN  NNW 000                       N    
RDG09610300WATRL000000006K00000000000002643004902172015080038N000400000010N91       000090600K 10000000010000002512           
CUS0961030000109146604005         MORNING STAR BAPTIST1600 WHITEHEAD CT                       000N        CARE OF             
MTR09610300001000000000000000RA              99999999    000200450000004500000610000003NY  NNW 000                       N    
MTM0961030099999999    OK                                                                                                     
RDG09610300WATRL000000005K00000000000003761005002172015080048N000000000000N91       000100500K 10000000010000003761           
CUS0961030000109389335002         G6 HOSPITALITY LLC  1654 WHITEHEAD CT                       000N        CARE OF             
MTR09610300002000000000000000RA              7194720     000800460000004600000630000003NN  NNW 000                       N    
RDG09610300WATAL000000006K00000000000000006005102172015080056N000100000010N91       000080600K 10000000010000000006           
RDG09610300WATBL000000006K00000000000007265005202172015080104N000400000010N91       000080600K 10000000010000005465           
CUS0961030000109146606000         PSAF DEVELOPMENT PAR1701 WHITEHEAD RD                       000N        CARE OF             
MTR09610300001000000000000000RA              5183751     000800470000004700000410000003NN  NNW 000   FIRE SERVICE        N    
RDG09610300WATRL000000006K00000000000000003005302172015080109N000000000000N91       000050600K 10000000010000000003           
CUS0961030000109146607008         PSAF DEVELOPMENT PAR1701 WHITEHEAD RD                       000N        CARE OF             
MTR09610300001000000000000000RA              00066733    000200480000004800000570000003NN  NNW 000                       N    
RDG09610300WATRL000000005K00000000000000467005402172015080119N000300000010N91       000100500K 10000000010000000342           
CUS0961030000109146608006         CRP HOLDINGS EVENS L1705 WHITEHEAD RD                       000N        CARE OF             
MTR09610300001000000000000000RA              4781652     000800490000004900000410000003NN  NNW 000   FIRE SERVICE        N    
RDG09610300WATRL000000006K00000000000000122005502172015080141N000000000010N91       000220600K 10000000010000000121           
CUS0961030000109146609004         CRP HOLDINGS EVENS,L1705 WHITEHEAD RD                       000N        CARE OF             
MTR09610300001000000000000000RA              01116810    000200500000005000000610000003NN  NNW 000                       N    
RDG09610300WATRL000000005K00000000000002309005602172015080146N000000000000N91       000050500K 10000000010000002215           
CUS0961030000109351139002         CRP HOLDINGS BRAKA L1713-15 WHITEHEAD RD                    000N        CARE OF             
MTR09610300001000000000000000RA              6010519     000600510000005100000410000003NN  NNW 000   FIRE SERVICE        N    
RDG09610300WATRL000000006K00000000000000263005702172015080152N000000000000N91       000060600K 10000000010000000263           
CUS0961030000109352363007         CRP HOLDINGS BRAKA L1713-15 WHITEHEAD RD                    000N        CARE OF             
MTR09610300001000000000000000RA              28152114    000200520000005200000520000003NY  NNW 000                       N    
MTM0961030028152114    OK                                                                                                     
RDG09610300WATRL000000005K00000000000003033005802172015080217N000000000000N91       000250500K 10000000010000003033           
CUS0961030000109146611000         CRP HOLDINGS SATHER 1717 WHITEHEAD RD                       000N        CARE OF             
MTR09610300001000000000000000RA              4701093     000800530000005300000410000003NN  NNW 000   FIRE SERVICE        N    
RDG09610300WATRL000000006K00000000000000076005902172015080222N000000000000N91       000050600K 10000000010000000074           
CUS0961030000109146612008         CRP HOLDINGS SATHER 1717 WHITEHEAD RD                       000N        CARE OF             
MTR09610300001000000000000000RA              70000259    001500540000005400000570000003NN  NNW 000                       N    
RDG09610300WATRL000000005K00000000000000700006002172015080227N000000000000N91       000050500K 10000000010000000660           
CUS0961030000109146613006         1727 WHITEHEAD ROAD 1727 WHITEHEAD RD                       000N        CARE OF             
MTR09610300001000000000000000RA              1809714     000600550000005500000410000003NN  NNW 000   FIRE SERVICE        N    
RDG09610300WATRL000000006K00000000000000000006102172015080232S005000000000U91       000050600K 10000000010000000125           
CUS0961030000109146614004         1727 WHITEHEAD ROAD 1727 WHITEHEAD RD                       000N        CARE OF             
MTR09610300001000000000000000RA              01105379    001500560000005600000610000003NN  NNW 000                       N    
RDG09610300WATRL000000005K00000000000004307006202172015080245N000000000000N91       000130500K 10000000010000004289           
CUS0961030000109146615001         J JENKINS SONS COMPA1801-03 WHITEHEAD RD                    000N        CARE OF             
MTR09610300001000000000000000RA              99410484    000100570000005700000570000003NN  NNW 000                       N    
RDG09610300WATRL000000004K00000000000004679006302172015080250N000000000000N91       000050400K 10000000010000004621           
CUS0961030000109146616009         UBP REALTY HOLDING B1807 WHITEHEAD RD                       000N        CARE OF             
MTR09610300001000000000000000RA              52291405    000100580000005800000520000003NN  NNW 000                       N    
RDG09610300WATRL000000004K00000000000009740006402172015080259N000000000000N91       000090400K 10000000010000009598           
CUS0961030000109146617007         INLAND PPD CHARTER B1728 WHITEHEAD RD                       000N        CARE OF             
MTR09610300001000000000000000RA              5204144     000800590000005900000410000003NN  NNW 000   FIRE SERVICE        N    
RDG09610300WATRL000000006K00000000000000000006502172015080303N000000000000N91       000040600K 10000000010000000000           
CUS0961030000109146618005         INLAND PPD CHARTER B1728 WHITEHEAD RD                       000N        CARE OF             
MTR09610300001000000000000000RA              01116812    000200600000006000000610000003NN  NNW 000                       N    
RDG09610300WATRL000000005K00000000000003982006602172015080308N000000000000N91       000050500K 10000000010000003855           
CUS0961030000109146619003         UBP REALTY HOLDING B1813-15 WHITEHEAD RD                    000N        CARE OF             
MTR09610300001000000000000000RA              1721644     000600610000006100000410000003NN  NNW 000   FIRE SERVICE        N    
RDG09610300WATRL000000006K00000000000000000006702172015080314S005000000000U91       000060600K 10000000010000000000           
CUS0961030000109146620001         UBP REALTY HOLDING B1813-15 WHITEHEAD RD                    000N        CARE OF             
MTR09610300001000000000000000RA              01105440    000200620000006200000610000003NN  NNW 000                       N    
RDG09610300WATRL000000005K00000000000001772006802172015080320N000000000000N91       000060500K 10000000010000001742           
CUS0961030000109444207006         CRP HOLDINGS RADCLIF1821 WHITEHEAD RD                       000N        CARE OF             
MTR09610300001000000000000000RA              14914851    001500630000006300000310000000NN  NNW 000                       N    
RDG09610300WATRL000000005K00000000000001201006902172015080326N000000000000N91       000060500K 10000000010000001178           
CUS0961030000109444209002         CRP HOLDINGS        1821 WHITEHEAD RD                       000N        CARE OF             
MTR09610300001000000000000000RA              8053040     000600640000006400000410000000NN  NNW 000   FIRE SERVICE        N    
RDG09610300WATRL000000006K00000000000000001007002172015080330N000000000000N91       000040600K 10000000010000000001           
CUS0961030000109351871000         1708-1716 WHITEHEAD 1708 WHITEHEAD RD                       000N        CARE OF             
MTR09610300001000000000000000RA              5921546     000800650000006500000410000003NN  NNW 000   FIRE SERVICE        N    
RDG09610300WATRL000000006K00000000000000000007102172015080340N000000000000N91       000100600K 10000000010000000000           
CUS0961030000109351872008         CRP HOLDINGS WHITHEA1708 WHITEHEAD RD                       000N        CARE OF             
MTR09610300001000000000000000RA              30479012    000200660000006600000520000003NN  NNW 000                       N    
RDG09610300WATRL000000005K00000000000015569007202172015080344N000000000000N91       000040500K 10000000010000015425           
CUS0961030000109444218003         1708-1716 WHITEHEAD 1716 WHITEHEAD RD                       000N        CARE OF             
MTR09610300001000000000000000RA              99999999    000600670000006700000440000000NN  NNW 000   FIRE SERVICE        N    
RDG09610300WATRL000000006K00000000000000001007302172015080352N000100000010N91       000080600K 10000000010000000001           
CUS0961030000109444217005         CRP HOLDINGS WHITEHE1716 WHITEHEAD RD                       000N        CARE OF             
MTR09610300001000000000000000RA              01116943    000200680000006800000610000000NY  NNW 000                       N    
MTM0961030001116943    OK                                                                                                     
RDG09610300WATRL000000005K00000000000000084007402172015080411N000300000010N91       000190500K 10000000010000000495           
CUS0961030000109146622007         CRP HOLDING WHITEHEA1716-18 WHITEHEAD RD                    000N        CARE OF             
MTR09610300001000000000000000RA              35109305    001500690000006900000520000003NN  NNW 000                       N    
RDG09610300WATRL000000005K00000000000039106007502172015080420N000000000000N91       000090500K 10000000010000038969           
CUS0961030000109146623005         1720 WHITEHEAD ROAD 1720-22 WHITEHEAD RD                    000N        CARE OF             
MTR09610300001000000000000000RA              3902616     001000700000007000000410000003NN  NNW 000   FIRE SERVICE        N    
RDG09610300WATRL000000007K00000000000000000007602172015080425S005000000000U91       000050700K 10000000010000000025           
CUS0961030000109146624003         1720 WHITEHEAD ROAD 1720-22 WHITEHEAD RD                    000N        CARE OF             
MTR09610300001000000000000000RA              90000056    000200710000007100000570000003NN  NNW 000                       N    
RDG09610300WATRL000000005K00000000000000411007702172015080431N000000000000N91       000060500K 10000000010000000404           
CUS0961030000109146625000         POLAND MORTON       1728 WHITEHEAD RD                       000N        CARE OF             
MTR09610300001000000000000000RA              4056016     000800720000007200000410000003NN  NNW 000   FIRE SERVICE        N    
RDG09610300WATRL000000006K00000000000000000007802172015080435S005000000000U91       000040600K 10000000010000000000           
CUS0961030000109146626008         CHRIST THRONE MINIST1728 WHITEHEAD RD                       000N        CARE OF             
MTR09610300001000000000000000RA              43904461    007500730000007300000520000003NN  NNW 000                       N    
RDG09610300WATRL000000004K00000000000007988007902172015080444N000000000000N91       000090400K 10000000010000007969           
CUS0961030000109146627006         CRP HOLDINGS BROOKVI6601 WHITE STONE RD                     000N        CARE OF             
MTR09610300001000000000000000RA              4781654     000800740000007400000410000003NY  NNW 000   FIRE SERVICE        N    
MTM096103004781654     C/O/V                                                                                                  
RDG09610300WATRL000000006K00000000000000000000000000000000000 000000000000U         000000600  10000000010000000012           
CUS0961030000109146628004         CRP HOLDINGS BROOKVI6601 WHITE STONE RD                     000N        CARE OF             
MTR09610300001000000000000000RA              01117137    000200750000007500000610000003NN  NNW 000                       N    
RDG09610300WATRL000000005K00000000000006061008002172015080506N000000000000N91       000220500K 10000000010000005838           
CUS0961030000109146629002         WHITESTONE REALTY,LL6600 WHITE STONE RD                     000N        CARE OF             
MTR09610300001000000000000000RA              74033027    000400760000007600000000000003NN  NNW 000                       N    
RDG09610300WATRL000000006K00000000000000070008102172015080514N000000000000N91       000080600K 10000000010000000061           
CUS0961030000109415513002         GENERATION III      6709 WHITE STONE RD                     000N        CARE OF             
MTR09610300001000000000000000RA              00066740    000200770000007700000570000003NN  NNW 000                       N    
RDG09610300WATRL000000005K00000000000001768008202172015080520N000000000000N91       000060500K 10000000010000001709           
CUS0961030000109415511006         GENERATION III      6709 WHITE STONE RD                     000N        CARE OF             
MTR09610300001000000000000000RA              8031925     000800780000007800000380000000NN  NNW 000   FIRE SERVICE        N    
RDG09610300WATRL000000006K00000000000000006008302172015080525N000000000000N91       000050600K 10000000010000000006           
CUS0961030000109391788008         MIDEASTERN PRINTING 6741 WHITE STONE RD                     000N        CARE OF             
MTR09610300001000000000000000RA              E22875      000400790000007900000430000003NN  NNW 000   FIRE SERVICE        N    
RDG09610300WATRL000000006K00000000000000000008402172015080529N000000000000N91       000040600K 10000000010000000000           
CUS0961030000109391790004         MIDEASTERN PRINTING 6741 WHITE STONE RD                     000N        CARE OF             
MTR09610300001000000000000000RA              36696442    005800800000008000000520000003NN  NNW 000                       N    
RDG09610300WATRL000000004K00000000000003562008502172015080534N000000000000N91       000050400K 10000000010000003545           
CUS0961030000109146630000         CRP HOLDINGS WHITEST6706-20 WHITE STONE RD                  000N        CARE OF             
MTR09610300001000000000000000RA              3750088     001000810000008100000410000003NN  NNW 000   FIRE SERVICE        N    
RDG09610300WATRL000000007K00000000000000000008602172015080543S005000000000U91       000090700K 10000000010000006367           
CUS0961030000109146631008         CRP HOLDINGS WHITEST6706-20 WHITE STONE RD                  000N        CARE OF             
MTR09610300001000000000000000RA              01105366    001500820000008200000610000003NN  NNW 000                       N    
RDG09610300WATRL000000005K00000000000029286008702172015080551N000000000000N91       000080500K 10000000010000029047           
CUS0961030000109445254007         CPR INVESTMENT      6730 WHITE STONE RD                     000N        CARE OF             
MTR09610300001000000000000000RA              14914899    001500830000008300000310000003NN  NNW 000                       N    
RDG09610300WATRL000000005K00000000000003407008802172015080600N000400000010N91       000090500K 10000000010000003275           
CUS0961030000109445255004         CPR INVESTMENT      6730 WHITE STONE RD                     000N        CARE OF             
MTR09610300001000000000000000RA              8053256     000600840000008400000410000003NN  NNW 000   FIRE SERVICE        N    
RDG09610300WATRL000000006K00000000000000003008902172015080610N000000000000N91       000100600K 10000000010000000003           
CUS0961030000109427767000         ATI PERFORMANCES PRO6744 WHITE STONE RD                     000N        CARE OF             
MTR09610300001000000000000000RA              8043066     000600850000008500000380000003NN  NNW 000   FIRE SERVICE        N    
RDG09610300WATRL000000006K00000000000000000009002172015080614N000000000000N91       000040600K 10000000010000000000           
CUS0961030000109427769006         ATI PERFORMANCE PROD6744 WHITE STONE RD                     000N        CARE OF             
MTR09610300001000000000000000RA              36700002    001500860000008600000520000003NN  NNW 000                       N    
RDG09610300WATRL000000005K00000000000000503009102172015080619N000000000000N91       000050500K 10000000010000000498           
CUS0961030000109146632006         BEATTIE JAMES C     6747 WHITE STONE RD                     000N        CARE OF             
MTR09610300001000000000000000RA              90000205    000200870000008700000570000003NN  NNW 000                       N    
RDG09610300WATRL000000005K00000000000001176009202172015080625N000000000000N91       000060500K 10000000010000001138           
CUS0961030000108415893000         CRP HOLDINGS DUNLEAV1508 WOODLAWN DR                        000N        CARE OF             
MTR09610300001000000000000000RA              8032190     000800880000008800000380000003NN  NNW 000   FIRE SERVICE        N    
RDG09610300WATRL000000006K00000000000000000009302172015080629N000000000000N91       000040600K 10000000010000000000           
RTR09610300NN00960096000000960000000000880088000020NY008800880096000300070000000000000000000001    02052015NY020000 N         
RHD09710100NN01780178000001780000000001230123000096NY012301230178000500160000000000000000000001    02092015NY020000 N         
CUS0971010000109120698007         BUCKINGHAM MANOR TOWNS LAKE AV 200 FT E OF                  000N        CARE OF             
MTR09710100002000000000000000RA              5603819     000600010000000100000630000003NN  NNW 000                       N    
RDG09710100WATAL000000006K00000000000000002000102122015130123N000100000010N91       000000600K 10000000010000000002           
RDG09710100WATBL000000006K00000000000003669000202122015130131N000400000010N91       000080600K 10000000010000003368           
CUS0971010000109379865000         DEVON HILL A CONDOMI5 DEVON HILL RD                         000N        CARE OF             
MTR09710100002000000000000000RA              7102433     000800020000000200000630000003NN  NNW 000                       N    
RDG09710100WATAL000000006K00000000000000002000302122015130138N000100000010N91       000070600K 10000000010000000002           
RDG09710100WATBL000000006K00000000000007397000402122015130145N000400000010N91       000070600K 10000000010000007050           
CUS0971010000109120700001         DEPARTMENT OF       SS HOLLINS RD                           000N        CARE OF             
MTR09710100001000000000000000RA              9601834     000400030000000300000640000003NN  NNW 000                       N    
RDG09710100WATRL000000006K00000000000000000000102142015120504S005000000000U91       000000600K 10000000010000003157           
CUS0971010000109398872003         DEMBEIGH HILL HOMEOW2 DEMBEIGH HILL CIR                     000N        CARE OF             
MTR09710100002000000000000000RA              7228514     000800040000000400000630000003NN  NNW 000                       N    
RDG09710100WATAL000000006K00000000000000011000502122015130154N000100000010N91       000090600K 10000000010000000011           
RDG09710100WATBL000000006K00000000000006694000602122015130203N000400000010N91       000090600K 10000000010000006364           
CUS0971010000109120701009         ST JOSEPH MANOR FOUN911 W LAKE AVE                          000N        CARE OF             
MTR09710100003000000000000000RA              5445004     000600050000000500000480000003NN  NNW 000   FIRE SERVICE        N    
RDG09710100WATAL000000006K00000000000000068000702122015130207N000000000000N91       000040600K 10000000010000000068           
RDG09710100WATBL000000006K00000000000000018000802122015130214N000100000010N91       000070600K 10000000010000000018           
RDG09710100WATCL000000006K00000000000000011000902122015130220N000100000010N91       000060600K 10000000010000000011           
CUS0971010000109120702007         ST JOSEPH MANOR FOUN911 W LAKE AVE                          000N        CARE OF             
MTR09710100001000000000000000RA              01116726    000200060000000600000610000003NN  NNW 000                       N    
RDG09710100WATRL000000005K00000000000002203001002122015130224N000000000000N91       000040500K 10000000010000002135           
CUS0971010000109120703005         COMMITTE FOR BOYS LA822 W LAKE AVE                          000N        CARE OF             
MTR09710100001000000000000000RA              35112641    000200070000000700000520000003NN  NNW 000                       N    
RDG09710100WATRL000000005K00000000000024422001102122015130230N000000000000N91       000060500K 10000000010000024404           
CUS0971010000109120705000         CLEARROCK LAND COMPA6025 ROLAND AVE                         000N        CARE OF             
MTR09710100002000000000000000RA              4234286     000600080000000800000630000003NN  NNW 000                       N    
RDG09710100WATAL000000006K00000000000000001001202122015130235N000100000010N91       000050600K 10000000010000000001           
RDG09710100WATBL000000006K00000000000014373001302122015130244N000400000010N91       000090600K 10000000010000014369           
CUS0971010000109120704003         CLEARROCK LAND COMPA6025 ROLAND AVE                         000N        CARE OF             
MTR09710100002000000000000000RA              2217184     000800090000000900000540000003NY  NNW 000                       N    
MTM097101002217184     OK                                                                                                     
RDG09710100WATAL000000006K00000000000000001001402122015130321N000300000010N91       000370600K 10000000010000000002           
RDG09710100WATBL000000006K00000000000042411001502122015130331N000400000010N91       000100600K 10000000010000037701           
CUS0971010000109427589008         ELKRIDGE FOX HUNTING6100 N CHARLES ST                       000N        CARE OF             
MTR09710100002000000000000000RA              70047195    000600100000001000000560000003NN  NNW 000                       N    
RDG09710100WATAL000000006K00000000000382372001602122015130345N000300000010N91       000140600K 10000000010000038202           
RDG09710100WATBL000000006K00000000000017462001702122015130355N000400000010N91       000100600K 10000000010000017092           
CUS0971010000109428422001         GITTINGS AVE LLC    185 GITTINGS AVE                        000N        CARE OF             
MTR09710100001000000000000000RA              99169969    000200110000001100000570000000NN  NNW 000                       N    
RDG09710100WATRL000000005K00000000000008699001802122015130400N000000000000N91       000050500K 10000000010000008609           
CUS0971010000109441530004         ELKRIDGE FOX HUNTING6100 N CHARLES ST                       000N        CARE OF             
MTR09710100002000000000000000RA              0701756     000800120000001200000390000000NN  NNW 000                       N    
RDG09710100WATAL000000006K00000000000000009001902122015130408N000100000010N91       000080600K 10000000010000000009           
RDG09710100WATBL000000006K00000000000018054002002122015130424N000400000010N91       000160600K 10000000010000017559           
CUS0971010000109410282009         6213 NORTH CHARLES S6213 N CHARLES ST                       000N        CARE OF             
MTR09710100002000000000000000RA              4306638     000600130000001300000630000003NN  NNW 000                       N    
RDG09710100WATAL000000006K00000000000000000002102122015130430N000100000010N91       000060600K 10000000010000000000           
RDG09710100WATBL000000006K00000000000020039002202122015130438N000400000010N91       000080600K 10000000010000019463           
CUS0971010000109120712006         CHARLES AT WOODBROOK6301 N CHARLES ST                       000N        CARE OF             
MTR09710100001000000000000000RA              30479016    000200140000001400000520000003NN  NNW 000                       N    
RDG09710100WATRL000000005K00000000000041776002302122015130444N000000000000N91       000060500K 10000000010000041495           
CUS0971010000109440493006         WOODBROOK@ CHARLES  6303 N CHARLES ST                       000N        CARE OF             
MTR09710100002000000000000000RA              0603286     000800150000001500000630000000NN  NNW 000                       N    
RDG09710100WATAL000000006K00000000000000012002402122015130450N000100000010N91       000060600K 10000000010000000012           
RDG09710100WATBL000000006K00000000000006910002502122015130458N000400000010N91       000080600K 10000000010000006632           
CUS0971010000109120711008         BROWN MEMORIAL WOODB1 WOODBROOK LN                          000N        CARE OF             
MTR09710100001000000000000000RA              01116720    000200160000001600000610000003NN  NNW 000                       N    
RDG09710100WATRL000000005K00000000000002785002602122015130506N000400000010N91       000080500K 10000000010000002698           
CUS0971010000109375741007         SCHOOL SISTERS OF NO6401 N CHARLES ST                       000N        CARE OF             
MTR09710100002000000000000000RA              7095841     000800170000001700000630000003NN  NNW 000                       N    
RDG09710100WATAL000000006K00000000000000000002702142015120517S005000000000U91       000130600K 10000000010000000001           
RDG09710100WATBL000000006K00000000000023620002802142015120532N000400000010U91       000150600K 10000000010000022353           
CUS0971010000109427284006         SUNRISE SENIOR LIVIN6451 N CHARLES ST                       000N        CARE OF             
MTR09710100002000000000000000RA              70052694    000800180000001800000560000003NN  NNW 000                       N    
RDG09710100WATAL000000006K00000000000007221002902122015130634N000000000000N91       000040600K 10000000010000007221           
RDG09710100WATBL000000006K00000000000000212003002122015130642N000400000010N91       000080600K 10000000010000000000           
CUS0971010000109428605001         SUNRISE SENIOR LIVIN6451 N CHARLES ST                       000N        CARE OF             
MTR09710100001000000000000000RA              99170809    001500190000001900000570000003NN  NNW 000                       N    
RDG09710100WATRL000000005K00000000000007743003102122015130655N000006706700N91       000130500K 10000000010000007743           
CUS0971010000109120715009         GREATER BALTIMORE   6701 N CHARLES ST                       000N        CARE OF             
MTR09710100002000000000000000RA              4326327     001200200000002000000540000003NN  NNW 000                       N    
RDG09710100WATAL000000007K00000000000000005003202122015130702N000400000010N91       000070700K 10000000010000000001           
RDG09710100WATBL000000007K00000000000551839003302122015130712N000400000010N91       000100700K 10000000010000534600           
CUS0971010000109430053000         SHEPPARD PRATT HEALT6501 N CHARLES ST                       000N        CARE OF             
MTR09710100002000000000000000RA              70066709    000800210000002100000560000000NN  NNW 000                       N    
RDG09710100WATAL000000006K00000000000045313003402122015130721N000400000010N91       000090600K 10000000010000045217           
RDG09710100WATBL000000006K00000000000059591003502122015130728N000400000010N91       000070600K 10000000010000054291           
CUS0971010000109449516005         SHEPPRD PRT HLTH SYS6501 N CHARLES ST                       000N        CARE OF             
MTR09710100001000000000000000RA              90000408    000200220000002200000570000003NN  NNW 000                       N    
RDG09710100WATRL000000005K00000000000000000003702122015130737S002000000000N91       000030500K 10000000010000000000           
CUS0971010000109120716007         SHEPPARD PRATT HEALT6501 N CHARLES ST                       000N        CARE OF             
MTR09710100002000000000000000RA              99999999    000800230000002300000540000003NN  NNW 000   FERRULE APPLIED     N    
RDG09710100WATAL000000006K00000000000000000003602122015130734S002000000000N91       000060600K 10000000010000000001           
RDG09710100WATBL000000006K00000000000000000003802122015130737S002000000000N91       000000600K 10000000010000192559           
CUS0971010000109430679002         TOWSON UNIVERSITY   7500 OSLER DR                           000N        CARE OF             
MTR09710100002000000000000000RA              0008598     000800240000002400000630000000NN  NNW 000                       N    
RDG09710100WATAL000000006K00000000000000015003902122015130744N000400000010N91       000070600K 10000000010000000014           
RDG09710100WATBL000000006K00000000000060775004002122015130754N000400000010N91       000100600K 10000000010000057839           
CUS0971010000109120720009         TOWSON STATE UNIV.  WS OSLER DR 608 FT S OF                 000N        CARE OF             
MTR09710100002000000000000000RA              4657207     000800250000002500000630000003NN  NNW 000                       N    
RDG09710100WATAL000000006K00000000000000001004102122015130801N000100000020N91       000070600K 10000000010000000001           
RDG09710100WATBL000000006K00000000000021302004202122015130810N000400000010N91       000090600K 10000000010000021122           
CUS0971010000109120719001         SHEPPARD PRATT HEALTWS OSLER DR 300 FT S OF                 000N        CARE OF             
MTR09710100002000000000000000RA              4754950     000800260000002600000630000003NN  NNW 000                       N    
RDG09710100WATAL000000006K00000000000000050004302122015130821N000400000010N91       000110600K 10000000010000000012           
RDG09710100WATBL000000006K00000000000085185004402122015130830N000400000010N91       000090600K 10000000010000075633           
CUS0971010000109120721007         OSLER MEDICAL CENTER7600 OSLER DR                           000N        CARE OF             
MTR09710100001000000000000000RA              1176553     000200270000002700000490000003NN  NNW 000                       N    
RDG09710100WATRL000000005K00000000000025189004502122015130837N000000000000N91       000070500K 10000000010000024643           
CUS0971010000109437728000         SAINT JOSEPH HOSPITA7620 YORK RD                            000N        CARE OF             
MTR09710100002000000000000000RA              0006284     001200280000002800000630000003NN  NNW 000                       N    
RDG09710100WATAL000000007K00000000000004786004602122015130859N000400000010N91       000220700K 10000000010000004779           
RDG09710100WATBL000000007K00000000000093340004702122015130910N000400000010N91       000110700K 10000000010000091369           
CUS0971010000109435605002         TOWSON STATE COLLEGE7815 OSLER DR                           000N        CARE OF             
MTR09710100001000000000000000RA              8048192     000600290000002900000380000000NN  NNW 000   FIRE SERVICE        N    
RDG09710100WATRL000000006K00000000000000145004802122015130925N000000000000N91       000150600K 10000000010000000144           
CUS0971010000109435607008         TOWSON STATE COLLEGE7815 OSLER DR                           000N        CARE OF             
MTR09710100001000000000000000RA              01107668    005800300000003000000610000000NN  NNW 000                       N    
RDG09710100WATRL000000004K00000000000000007004902122015130929N000000000000N91       000040400K 10000000010000000006           
CUS0971010000109120722005         TOWSON UNIVERSITY   WS OSLER DR 1200 FT                     000N        CARE OF             
MTR09710100002000000000000000RA              5498410     000800310000003100000540000003NN  NNW 000                       N    
RDG09710100WATAL000000006K00000000000000005005002122015130939N000304104110N91       000100600K 10000000010000000111           
RDG09710100WATBL000000006K00000000000000081005102122015131009N000300000010N91       000300600K 10000000010000025696           
CUS0971010000109120723003         SAINT JOSEPH HOSPITA7601 OSLER DR                           000N        CARE OF             
MTR09710100002000000000000000RA              4373438     001000320000003200000540000003NN  NNW 000                       N    
RDG09710100WATAL000000007K00000000000000000005202122015131015N000100000010N91       000060700K 10000000010000000000           
RDG09710100WATBL000000007K00000000000385057005302122015131026N000400000010N91       000110700K 10000000010000370591           
CUS0971010000109411115000         AGED WOMENS & AGED M615 CHESTNUT AVE                        000N        CARE OF             
MTR09710100002000000000000000RA              9205228     000800330000003300000630000003NN  NNW 000                       N    
RDG09710100WATAL000000006K00000000000000001000402132015115929N000100000010U91       000150600K 10000000010000000001           
RDG09710100WATBL000000006K00000000000032845000502132015115937N000400000010U91       000080600K 10000000010000029211           
CUS0971010000109120724001         TOWSON STATE UNIV.  7900 YORK RD                            000N        CARE OF             
MTR09710100002000000000000000RA              4433079     000800340000003400000540000003NN  NNW 000                       N    
RDG09710100WATAL000000006K00000000000000001000602132015125936N000100000010U91       035990600K 10000000010000000001           
RDG09710100WATBL000000006K00000000000067815000702132015125950N000400000010U91       000140600K 10000000010000063640           
CUS0971010000109399671008         TOWSON STATE UNIVERS10 W BURKE AVE                          000N        CARE OF             
MTR09710100002000000000000000RA              7236123     001000350000003500000630000003NN  NNW 000                       N    
RDG09710100WATAL000000007K00000000000000012000802132015125956N000100000010U91       000060700K 10000000010000000012           
RDG09710100WATBL000000007K00000000000025583000902132015130008N000400000010U91       000120700K 10000000010000023184           
CUS0971010000109396793003         200 WASHINGTON AVENU200 TOWSONTOWN BLVD                     000N        CARE OF             
MTR09710100001000000000000000RA              01105766    000200360000003600000610000003NN  NNW 000                       N    
RDG09710100WATRL000000005K00000000000005787001002132015130018N000300000010U91       000100500K 10000000010000005567           
CUS0971010000109396790009         200 WASHINGTON AVENU200 TOWSONTOWN BLVD                     000N        CARE OF             
MTR09710100001000000000000000RA              7197709     000800370000003700000340000003NN  NNW 000   FIRE SERVICE        N    
RDG09710100WATRL000000006K00000000000000052001102132015130025N000000000000U91       000070600K 10000000010000000052           
CUS0971010000109120726006         TOWSON UNIVERSITY   NS TOWSONTOWNE BLVD                     000N        CARE OF             
MTR09710100001000000000000000RA              35116816    000200380000003800000520000003NN  NNW 000                       N    
RDG09710100WATRL000000005K00000000000000000001202132015130047S002000000000U91       000220500K 10000000010000004324           
CUS0971010000109120725008         TOWSON UNIVERSITY   NS TOWSONTOWNE BLVD                     000N        CARE OF             
MTR09710100001000000000000000RA              5003374     000600390000003900000410000003NN  NNW 000   FERRULE APPLIED     N    
RDG09710100WATRL000000006K00000000000000000001302132015130053S002000000000U91       000060600K 10000000010000021365           
CUS0971010000109120717005         E J R ASSOCIATES    200 TOWSONTOWN CT                       000N        CARE OF             
MTR09710100002000000000000000RA              5295728     000400400000004000000630000003NN  NNW 000                       N    
RDG09710100WATAL000000006K00000000000000003001402132015130104N000100000010U91       000110600K 10000000010000000003           
RDG09710100WATBL000000006K00000000000005822001502132015130111N000400000010U91       000070600K 10000000010000005623           
CUS0971010000109120718003         MAGAZINE VERSAILLES NS TOWSONTOWNE BLVD                     000N        CARE OF             
MTR09710100001000000000000000RA              1210449     000400410000004100000490000003NY  NNW 000                       N    
MTM097101001210449     CLEAN OUT                                                                                              
RDG09710100WATRL000000006K00000000000000000000000000000000000 000000000000U         000000600  10000000010000125663           
CUS0971010000109443428009         TOWSON UNIVERSITY   501 TOWSONTOWN BLVD                     000N        CARE OF             
MTR09710100002000000000000000RA              0008089     001000420000004200000630000000NN  NNW 000                       N    
RDG09710100WATAL000000007K00000000000000027001602132015130122N000400000010U91       000110700K 10000000010000000005           
RDG09710100WATBL000000007K00000000000093809001702132015130134N000400000010U91       000120700K 10000000010000083701           
CUS0971010000109362692007         LOYOLA HIGH SCHOOL  1000 BOYCE AVE                          000N        CARE OF             
MTR09710100001000000000000000RA              70225922    000300430000004300000470000003NY  NNW 000                       N    
MTM0971010070225922    TWO DIALS 01226                0605                                                                    
RDG09710100WATRL000000005K00000000000000605001802132015130253N000100000010U91       000790500K 10000000010000000605           
CUS0971010000109419665006         LOYOLA HIGH SCHOOL  500 CHESTNUT AVE                        000N        CARE OF             
MTR09710100002000000000000000RA              9504656     000800440000004400000630000003NN  NNW 000                       N    
RDG09710100WATAL000000006K00000000000000023001902132015130303N000100000010U91       000100600K 10000000010000000023           
RDG09710100WATBL000000006K00000000000022400002002132015130310N000400000010U91       000070600K 10000000010000021395           
CUS0971010000109405898009         INSTITUTE OF MISSION1001 W JOPPA RD                         000N        CARE OF             
MTR09710100001000000000000000RA              7198109     000800450000004500000340000003NN  NNW 000   FIRE SERVICE        N    
RDG09710100WATRL000000006K00000000000000019002102132015130317N000000000010U91       000070600K 10000000010000000018           
CUS0971010000109405900003         INSTITUTE OF MISSION1001 W JOPPA RD                         000N        CARE OF             
MTR09710100001000000000000000RA              30478260    000200460000004600000520000003NN  NNW 000                       N    
RDG09710100WATRL000000005K00000000000025042002202132015130348N000000000000U91       000310500K 10000000010000024899           
CUS0971010000109410626007         THE CHESTNUT PARTNER1055 W JOPPA RD                         000N        CARE OF             
MTR09710100002000000000000000RA              9110809     001000470000004700000630000003NN  NNW 000                       N    
RDG09710100WATAL000000007K00000000000000019002302132015130403N000400000010U91       000150700K 10000000010000000016           
RDG09710100WATBL000000007K00000000000057209002402132015130414N000400000010U91       000110700K 10000000010000052689           
CUS0971010000109120751004         MUNAFO M MARC       1306 W JOPPA RD                         000N        CARE OF             
MTR09710100001000000000000000RA              9601361     000300480000004800000640000003NN  NNW 000                       N    
RDG09710100WATRL000000005K00000000000002491002502132015130419N000000000000U91       000050500K 10000000010000002307           
CUS0971010000109439397002         THE RIDGE AT RUXTON 1306 W JOPPA RD                         000N        CARE OF             
MTR09710100002000000000000000RA              0701752     000800490000004900000390000000NN  NNW 000                       N    
RDG09710100WATAL000000006K00000000000000004002602132015130435N000100000010U91       000160600K 10000000010000000004           
RDG09710100WATBL000000006K00000000000003300002702132015130443N000400000010U91       000080600K 10000000010000003165           
CUS0971010000109427997003         BOARD OF EDUCATION O6916 N CHARLES ST                       000N        CARE OF             
MTR09710100001000000000000000RA              8037538     000800500000005000000380000000NN  NNW 000   FIRE SERVICE        N    
RDG09710100WATRL000000006K00000000000000006002802132015130446N000000000000U91       000030600K 10000000010000000006           
CUS0971010000109427999009         BOARD OF EDUCATION O6916 N CHARLES ST                       000N        CARE OF             
MTR09710100001000000000000000RA              9203450     000300510000005100000640000000NN  NNW 000                       N    
RDG09710100WATRL000000005K00000000000003326002902132015130450N000000000000U91       000040500K 10000000010000003140           
CUS0971010000109445181002         BOARD OF ED OF BALT 6914 N CHARLES ST                       000N        CARE OF             
MTR09710100001000000000000000RA              0811040     000800520000005200000390000000NY  NNW 000                       N    
MTM097101000811040     TWO DIALS 000004               30240                                                                   
RDG09710100WATRL000000006K00000000000030240003002132015130545N000000000000U91       000550600K 10000000010000025238           
CUS0971010000109120730008         BALTO. CO BOARD OF E6901 N CHARLES ST                       000N        CARE OF             
MTR09710100002000000000000000RA              6047487     000600530000005300000630000003NN  NNW 000                       N    
RDG09710100WATAL000000006K00000000000000001003102132015130554N000100000020U91       000090600K 10000000010000000001           
RDG09710100WATBL000000006K00000000000006274003202132015130601N000400000010U91       000070600K 10000000010000005945           
CUS0971010000109120731006         HCR MANOR CARE MARYL7001 N CHARLES ST                       000N        CARE OF             
MTR09710100001000000000000000RA              73918939    000600540000005400000480000003NY  NNW 000   FIRE SERVICE        N    
MTM0971010073918939    TWO DIALS 000003               00135                                                                   
RDG09710100WATRL000000006K00000000000000135003302132015130746N000000000021U91       000960600K 10000000010000000000           
CUS0971010000109120732004         HCR MANOR CARE MARYL7001 N CHARLES ST                       000N        CARE OF             
MTR09710100001000000000000000RA              1215514     000300550000005500000490000000NY  NNW 000                       N    
MTM097101001215514     ERT                                                                                                    
RDG09710100WATRL000000005K00000000000001262003402132015130850N000304104110U91       000640500K 10000000010000026970           
CUS0971010000109407829002         BELLONA LANE ORTHOPA8322 BELLONA AVE                        000N        CARE OF             
MTR09710100001000000000000000RA              8027095     000800560000005600000340000003NN  NNW 000   FIRE SERVICE        N    
RDG09710100WATRL000000006K00000000000000003003502132015130853N000000000000U91       000030600K 10000000010000000003           
CUS0971010000109407831008         BELLONA LANE ORTHOPA8322 BELLONA AVE                        000N        CARE OF             
MTR09710100001000000000000000RA              29256935    001500570000005700000520000003NN  NNW 000                       N    
RDG09710100WATRL000000005K00000000000066469003602132015130859N000000000000U91       000060500K 10000000010000065590           
CUS0971010000109389372005         WINDSOR COURT LIMITE8320 BELLONA AVE                        000N        CARE OF             
MTR09710100001000000000000000RA              E22418      000600580000005800000430000003NN  NNW 000   FIRE SERVICE        N    
RDG09710100WATRL000000006K00000000000000000003702142015120638S005000000000U91       000660600K 10000000010000000290           
CUS0971010000109389374001         WINDSOR COURT LIMITE8320 BELLONA AVE                        000N        CARE OF             
MTR09710100001000000000000000RA              00164140    000100590000005900000570000003NN  NNW 000                       N    
RDG09710100WATRL000000004K00000000000000210003802132015130910N000000000000U91       000060400K 10000000010000009918           
CUS0971010000109429174007         HCR MANOR CARE MARYL8101 BELLONA AVE                        000N        CARE OF             
MTR09710100002000000000000000RA              70073533    000800600000006000000560000003NN  NNW 000                       N    
RDG09710100WATAL000000006K00000000000000080003902132015130926N000100000010U91       000160600K 10000000010000000080           
RDG09710100WATBL000000006K00000000000016410004002132015130934N000400000010U91       000080600K 10000000010000015857           
CUS0971010000109453263007         TOWSON UNIVERSITY   300 TOWSONTOWN BLVD                     000N        CARE OF             
MTR09710100001000000000000000RA              11807109    000600610000006100000390000003NY  NNW 000                       N    
MTM0971010011807109    TWO DIALS 000021               00259                                                                   
RDG09710100WATRL000000006K00000000000000259004102132015131020N000300000010U91       000460600K 10000000010000000165           
CUS0971010000109120737003         RUXTON TOWNSHIP COMP1600 RUXTON RD                          000N        CARE OF             
MTR09710100001000000000000000RA              31588380    000200620000006200000520000003NN  NNW 000                       N    
RDG09710100WATRL000000005K00000000000037137004202132015131026N000000000000U91       000060500K 10000000010000036906           
CUS0971010000109438559008         MARYLAND TRANSIT ADM1601 ROLAND AVE                         000N        CARE OF             
MTR09710100001000000000000000RA              00164366    000100630000006300000570000003NN  NNW 000                       N    
RDG09710100WATRL000000004K00000000000001812004302132015131046N000006706700U91       000200400K 10000000010000001812           
CUS0971010000109417448009         LHIRONDELLE CLUB OF 7611 LHIRONDELLE CLUB RD                000N        CARE OF             
MTR09710100001000000000000000RA              1414245     000200640000006400000490000000NN  NNW 000                       N    
RDG09710100WATRL000000005K00000000000042208004402132015131055N000400000010U91       000090500K 10000000010000041766           
CUS0971010000109417447001         LHIRONDELLE CLUB OF 7611 LHIRONDELLE CLUB RD                000N        CARE OF             
MTR09710100001000000000000000RA              8036609     000400650000006500000380000000NN  NNW 000   FIRE SERVICE        N    
RDG09710100WATRL000000006K00000000000000198004502132015131108N000000000000U91       000130600K 10000000010000000198           
CUS0971010000109120735007         RUXTON VILLAGE APART1-31 RUXVIEW CT                         000N        CARE OF             
MTR09710100001000000000000000RA              1450835     000300660000006600000490000003NN  NNW 000                       N    
RDG09710100WATRL000000005K00000000000041971004602132015131114N000000000000U91       000060500K 10000000010000040085           
CUS0971010000109120734000         RUXTON VILLAGE SHOPS7711 BELLONA AVE                        000N        CARE OF             
MTR09710100001000000000000000RA              01105150    001500670000006700000610000003NN  NNW 000                       N    
RDG09710100WATRL000000005K00000000000018254004702132015131119N000000000000U91       000050500K 10000000010000017895           
CUS0971010000109120733002         RUXTON VILLAGE SHOPS7711 BELLONA AVE                        000N        CARE OF             
MTR09710100001000000000000000RA              E7392       000400680000006800000430000003NN  NNW 000   FIRE SERVICE        N    
RDG09710100WATRL000000006K00000000000000000004802132015131122N000000000000U91       000030600K 10000000010000000000           
CUS0971010000109432877000         BALTO CO SCHOOL #8091171 LANDRAKE RD                        000N        CARE OF             
MTR09710100001000000000000000RA              8047065     000600690000006900000380000000NN  NNW 000   FIRE SERVICE        N    
RDG09710100WATRL000000006K00000000000000006004902132015131125N000000000000U91       000030600K 10000000010000000006           
CUS0971010000109432879006         BALTO CO SCHOOL #8091171 LANDRAKE RD                        000N        CARE OF             
MTR09710100001000000000000000RA              0908780     000300700000007000000640000000NN  NNW 000                       N    
RDG09710100WATRL000000005K00000000000004002005002132015131128N000000000000U91       000030500K 10000000010000003822           
CUS0971010000109120745006         THORNTON WOOD COND AWS THORNTON RD 600 FT                   000N        CARE OF             
MTR09710100002000000000000000RA              5380915     000600710000007100000630000003NN  NNW 000                       N    
RDG09710100WATAL000000006K00000000000000001005102132015131135N000100000010U91       000070600K 10000000010000000001           
RDG09710100WATBL000000006K00000000000007916005202132015131142N000400000010U91       000070600K 10000000010000007021           
CUS0971010000109408706001         TRUSTEES OF THE TRIN2122 W JOPPA RD                         000N        CARE OF             
MTR09710100002000000000000000RA              9056939     000800720000007200000630000000NN  NNW 000                       N    
RDG09710100WATAL000000006K00000000000000000005302132015131149N000100000010U91       000070600K 10000000010000000000           
RDG09710100WATBL000000006K00000000000007947005402132015131210N000400000010U91       000210600K 10000000010000007788           
CUS0971010000109423193003         WILLIAMS WENDIE R   1812 LANDRAKE RD                        000N        CARE OF             
MTR09710100001000000000000000RA              35105104    000200730000007300000520000003NN  NNW 000                       N    
RDG09710100WATRL000000005K00000000000006288005502132015131215N000000000000U91       000050500K 10000000010000006150           
CUS0971010000109120744009         ROLAND RUN CLUB INC SS JOPPA RD OPPOSITE                    000N        CARE OF             
MTR09710100001000000000000000RA              33734241    000200740000007400000520000003NN  NNW 000                       N    
RDG09710100WATRL000000005K00000000000096086005602132015131230N000400000010U91       000150500K 10000000010000096066           
CUS0971010000109397633000         BENEDICTINE SISTERS 2229 W JOPPA RD                         000N        CARE OF             
MTR09710100001000000000000000RA              01105477    000200750000007500000610000003NN  NNW 000                       N    
RDG09710100WATRL000000005K00000000000004621005702132015131234N000000000000U91       000040500K 10000000010000004525           
CUS0971010000109120743001         DPSCS               2323 W JOPPA RD                         000N        CARE OF             
MTR09710100001000000000000000RA              1199143     000300760000007600000490000003NN  NNW 000                       N    
RDG09710100WATRL000000005K00000000000013671005802132015131250N000006706700U91       000160500K 10000000010000013671           
CUS0971010000109386773007         JOPPA GREEN II LIMIT2328 W JOPPA RD                         000N        CARE OF             
MTR09710100001000000000000000RA              E21185      000600770000007700000430000003NN  NNW 000   FIRE SERVICE        N    
RDG09710100WATRL000000006K00000000000000000005902132015131252N000000000000U91       000020600K 10000000010000000000           
CUS0971010000109386774005         JOPPA GREEN II LIMIT2328 W JOPPA RD                         000N        CARE OF             
MTR09710100001000000000000000RA              30769122    001500780000007800000670000003NN  NNW 000                       N    
RDG09710100WATRL000000005K00000000000022422006002132015131257N000000000000U91       000050500K 10000000010000022230           
CUS0971010000109349012006         VALLEY CENTER PARTNE2360 W JOPPA RD                         000N        CARE OF             
MTR09710100003000000000000000RA              5977889     000800790000007900000480000003NN  NNW 000   FIRE SERVICE        N    
RDG09710100WATAL000000006K00000000000000111006102132015131302N000000000000U91       000050600K 10000000010000000111           
RDG09710100WATBL000000006K00000000000000339006202132015131308N000100000010U91       000060600K 10000000010000000339           
RDG09710100WATCL000000006K00000000000000405006302132015131313N000100000010U91       000050600K 10000000010000000405           
CUS0971010000109349013004         VALLEY CENTER PARTNE2360 W JOPPA RD                         000N        CARE OF             
MTR09710100001000000000000000RA              1239563     000200800000008000000490000003NN  NNW 000                       N    
RDG09710100WATRL000000005K00000000000012463006402132015131320N000000000000U91       000070500K 10000000010000012211           
CUS0971010000109427266003         WINDY VALLEY LLC    2350 W JOPPA RD                         000N        CARE OF             
MTR09710100001000000000000000RA              8042502     000600810000008100000380000000NN  NNW 000   FIRE SERVICE        N    
RDG09710100WATRL000000006K00000000000000008006502132015131333N000000000000U91       000130600K 10000000010000000008           
CUS0971010000109427268009         WINDY VALLEY LLC    2350 W JOPPA RD                         000N        CARE OF             
MTR09710100001000000000000000RA              99409764    000100820000008200000570000000NN  NNW 000                       N    
RDG09710100WATRL000000004K00000000000002780006602132015131337N000000000000U91       000040400K 10000000010000002598           
CUS0971010000109120738001         GSS PROPERTIES LLC  2352 W JOPPA RD                         000N        CARE OF             
MTR09710100003000000000000000RA              5603836     000800830000008300000480000003NN  NNW 000   FIRE SERVICE        N    
RDG09710100WATAL000000006K00000000000000008006702142015120700N000100000010U91       000220600K 10000000010000000008           
RDG09710100WATBL000000006K00000000000000000006802142015120703S005000000000U91       000030600K 10000000010000000527           
RDG09710100WATCL000000006K00000000000000000006902142015120705S005000000000U91       000020600K 10000000010000000006           
CUS0971010000109120739009         GSS PROPERTIES LLC  2352 W JOPPA RD                         000N        CARE OF             
MTR09710100001000000000000000RA              99999999    001500840000008400000490000003NN  NNW 000   FERRULE APPLIED     N    
RDG09710100WATRL000000005K00000000000000000007002132015131352S002000000000U91       000040500K 10000000010000013841           
CUS0971010000109381767004         COCKEYS TAVERN      10751 FALLS RD                          000N        CARE OF             
MTR09710100002000000000000000RA              7068893     001000850000008500000540000003NN  NNW 000                       N    
RDG09710100WATAL000000007K00000000000000001007102132015131358N000100000010U91       000060700K 10000000010000000001           
RDG09710100WATBL000000007K00000000000019618007202132015131437N000400000010U91       000390700K 10000000010000018832           
CUS0971010000109415209007         JH SUBRUR HLTH CTR L10755 FALLS RD                          000N        CARE OF             
MTR09710100001000000000000000RA              35112694    000200860000008600000520000003NN  NNW 000                       N    
RDG09710100WATRL000000005K00000000000063428007302132015131443N000000000000U91       000060500K 10000000010000062237           
CUS0971010000109446292006         BALTO COUNTY MD     10650 FALLS RD                          000N        CARE OF             
MTR09710100001000000000000000RA              99999999    000200870000008700000440000000NN  NNW 000                       N    
RDG09710100WATRL000000005K00000000000003489007402132015131453N000400000010U91       000100500K 10000000010000003472           
CUS0971010000109407440008         BOYS SCHOOL OF ST PA11152 FALLS RD                          000N        CARE OF             
MTR09710100002000000000000000RA              2781850     001000880000008800000540000003NN  NNW 000                       N    
RDG09710100WATAL000000007K00000000000000000007502142015120718S005000000000U91       000130700K 10000000010000007151           
RDG09710100WATBL000000007K00000000000104967007602142015120727N000400000010U91       000090700K 10000000010000097570           
CUS0971010000109120741005         GREENSPRING LAND HOL10801-05 TONY DR                        000N        CARE OF             
MTR09710100001000000000000000RA              99410312    000100890000008900000570000003NN  NNW 000                       N    
RDG09710100WATRL000000004K00000000000001093007702132015131514N000000000000U91       000030400K 10000000010000001072           
CUS0971010000109120740007         BROOKLANDWOOD HOMEOW915 TONY DR                             000N        CARE OF             
MTR09710100002000000000000000RA              5603817     000600900000009000000630000003NN  NNW 000                       N    
RDG09710100WATAL000000006K00000000000000001007802132015131532N000100000010U91       000180600K 10000000010000000001           
RDG09710100WATBL000000006K00000000000011597007902132015131546N000400000010U91       000140600K 10000000010000010600           
CUS0971010000109402192000         BRIGHTWOOD CLUB ASSO100-616 BRIGHTWOOD CLB LA               000N        CARE OF             
MTR09710100002000000000000000RA              8028694     001000910000009100000630000003NY  NNW 000                       N    
MTM097101008028694     OK                                                                                                     
RDG09710100WATAL000000007K00000000000000038008002132015131556N000100000010U91       000100700K 10000000010000000038           
RDG09710100WATBL000000007K00000000000004733008102132015131709N000300000010U91       000730700K 10000000010000004778           
CUS0971010000109401852000         BRIGHTWOOD CENTER   515 BRIGHTFIELD RD                      000N        CARE OF             
MTR09710100002000000000000000RA              8941679     000800920000009200000630000003NN  NNW 000                       N    
RDG09710100WATAL000000006K00000000000000013008202132015131718N000400000010U91       000090600K 10000000010000000008           
RDG09710100WATBL000000006K00000000000022317008302132015131725N000400000010U91       000070600K 10000000010000021063           
CUS0971010000102053928004         LIDIE WESLEY A,SR   SS OLD COURT RD                         000N        CARE OF             
MTR09710100001000000000000000RA              11331695    005800930000009300000570000003NN  NNW 000                       N    
RDG09710100WATRL000000004K00000000000006370008402132015131729N000000000000U91       000040400K 10000000010000006363           
CUS0971010000109354965007         ROCKLAND VILLAGE HOM10101-35 FALLS RD                       000N        CARE OF             
MTR09710100001000000000000000RA              29724388    001500940000009400000520000003NN  NNW 000                       N    
RDG09710100WATRL000000005K00000000000011133008502132015131733N000000000000U91       000040500K 10000000010000011047           
CUS0971010000109354966005         RUDIE MICHAEL R     10100-16 FALLS RD                       000N        CARE OF             
MTR09710100001000000000000000RA              31842485    001500950000009500000520000003NN  NNW 000                       N    
RDG09710100WATRL000000005K00000000000014754008602132015131739N000000000000U91       000060500K 10000000010000014419           
CUS0971010000109351874004         THE ROCKLAND CONDOMI2330 OLD COURT RD                       000N        CARE OF             
MTR09710100002000000000000000RA              5948834     000800960000009600000540000003NN  NNW 000                       N    
RDG09710100WATAL000000006K00000000000000032008702132015131745N000100000010U91       000060600K 10000000010000000032           
RDG09710100WATBL000000006K00000000000068707008802132015131833N000400000010U91       000480600K 10000000010000066933           
CUS0971010000109416227008         PARK SCHOOL OF BALTI2425 OLD COURT RD                       000N        CARE OF             
MTR09710100002000000000000000RA              7176794     000600970000009700000630000000NN  NNW 000                       N    
RDG09710100WATAL000000006K00000000000000001008902132015131849N000100000010U91       000160600K 10000000010000000001           
RDG09710100WATBL000000006K00000000000025087009002132015131858N000400000010U91       000090600K 10000000010000024165           
CUS0971010000109364621004         THE RISTEAU CONDO   SS OLD COURT RD                         000N        CARE OF             
MTR09710100002000000000000000RA              7026373     000800980000009800000540000003NN  NNW 000                       N    
RDG09710100WATAL000000006K00000000000000001009102132015131906N000100000010U91       000080600K 10000000010000000001           
RDG09710100WATBL000000006K00000000000015836009202132015131931N000400000010U91       000250600K 10000000010000015183           
CUS0971010000109400879004         NANCI D MITCHELL    6710 NEWSTEAD LN                        000N        CARE OF             
MTR09710100002000000000000000RA              7233170     000800990000009900000630000003NN  NNW 000                       N    
RDG09710100WATAL000000006K00000000000000040009302132015131937N000400000010U91       000060600K 10000000010000000039           
RDG09710100WATBL000000006K00000000000022151009402132015131946N000400000010U91       000090600K 10000000010000021138           
CUS0971010000109419769006         110% SPORTS VENTURES1400 COPPERMINE TER                     000N        CARE OF             
MTR09710100002000000000000000RA              9504653     000801000000010000000630000003NY  NNW 000                       N    
MTM097101009504653     BURIED                                                                                                 
RDG09710100WATAL000000006K00000000000000000000000000000000000 000000000000U         000000600  10000000010000000001           
RDG09710100WATBL000000006K00000000000000000000000000000000000 000000000000U         000000600  10000000010000002038           
CUS0971010000109120694006         BALTIMORE SOUND LLC WS CLARKVIEW RD 980 FT                  000N        CARE OF             
MTR09710100001000000000000000RA              01117005    000201010000010100000610000003NN  NNW 000                       N    
RDG09710100WATRL000000005K00000000000000961009502132015132146N000000000000U91       001200500K 10000000010000000938           
CUS0971010000109446538002         1407 CLARKVIEW ROAD 1407 CLARKVIEW RD                       000N        CARE OF             
MTR09710100001000000000000000RA              14914918    001501020000010200000310000000NN  NNW 000                       N    
RDG09710100WATRL000000005K00000000000003550009602132015132200N000000000000U91       000140500K 10000000010000003256           
CUS0971010000109446539000         1407 CLARKVIEW ROAD 1407 CLARKVIEW RD                       000N        CARE OF             
MTR09710100001000000000000000RA              0007345     000601030000010300000310000000NN  NNW 000   FIRE SERVICE        N    
RDG09710100WATRL000000006K00000000000000000009702132015132205N000000000000U91       000050600K 10000000010000000000           
CUS0971010000109120695003         BARE HILLS BUSINESS 1421 CLARKVIEW RD                       000N        CARE OF             
MTR09710100001000000000000000RA              5183745     000601040000010400000410000003NY  NNW 000   FIRE SERVICE        N    
MTM097101005183745     CS                                                                                                     
RDG09710100WATRL000000006K00000000000000000000000000000000000 000000000000U         000000600  10000000010000008502           
CUS0971010000109120696001         BARE HILLS BUSINESS 1421 CLARKVIEW RD                       000N        CARE OF             
MTR09710100001000000000000000RA              10803528    000301050000010500000640000003NN  NNW 000                       N    
RDG09710100WATRL000000005K00000000000001580001002142015120833N000000000000U91       000660500K 10000000010000001428           
CUS0971010000109441148005         CAPITAL FUNDING     1422 CLARKVIEW RD                       000N        CARE OF             
MTR09710100002000000000000000RA              0701757     000801060000010600000390000000NN  NNW 000                       N    
RDG09710100WATAL000000006K00000000000000034001102142015120839N000100000010U91       000060600K 10000000010000000034           
RDG09710100WATBL000000006K00000000000000435001202142015120905N000106706710U91       000260600K 10000000010000000435           
CUS0971010000109433206001         BARE HILLS LOT 1 LLC1423 CLARKVIEW RD                       000N        CARE OF             
MTR09710100002000000000000000RA              0203186     000801070000010700000630000000NN  NNW 000                       N    
RDG09710100WATAL000000006K00000000000000002001302142015120910N000100000010U91       000050600K 10000000010000000002           
RDG09710100WATBL000000006K00000000000002306001402142015120917N000400000010U91       000070600K 10000000010000002182           
CUS0971010000109436759006         BARE HILLS LOT 2 LLC1425 CLARKVIEW RD                       000N        CARE OF             
MTR09710100002000000000000000RA              0310000     000801080000010800000630000000NN  NNW 000                       N    
RDG09710100WATAL000000006K00000000000000024001502142015120922N000100000010U91       000050600K 10000000010000000024           
RDG09710100WATBL000000006K00000000000002463001602142015120931N000400000010U91       000090600K 10000000010000002396           
CUS0971010000109433208007         BARE HILLS LOT 3 LLC1427 CLARKVIEW RD                       000N        CARE OF             
MTR09710100002000000000000000RA              0200991     000801090000010900000630000000NN  NNW 000                       N    
RDG09710100WATAL000000006K00000000000000000001702142015120937S005000000000U91       000060600K 10000000010000001333           
RDG09710100WATBL000000006K00000000000000081001802142015121010N000304104110U91       000330600K 10000000010000003419           
CUS0971010000109120687000         DANSICKER R JACK    1310 RACQUET RD                         000N        CARE OF             
MTR09710100001000000000000000RA              33731715    007501100000011000000520000003NN  NNW 000                       N    
RDG09710100WATRL000000004K00000000000005110001902142015121023N000000000000U91       000130400K 10000000010000005077           
CUS0971010000109120686002         DANSICKER R JACK    1310 RACQUET RD                         000N        CARE OF             
MTR09710100001000000000000000RA              5183743     000601110000011100000410000003NN  NNW 000   FIRE SERVICE        N    
RDG09710100WATRL000000006K00000000000000002002002142015121026N000000000000U91       000030600K 10000000010000000002           
CUS0971010000109447153009         COOPERMINE VILLAGE L7300 OLD PIMLICO RD                     000N        CARE OF             
MTR09710100001000000000000000RA              70000035    001501120000011200000570000000NN  NNW 000                       N    
RDG09710100WATRL000000005K00000000000000743002102142015121029N000000000000U91       000030500K 10000000010000000640           
CUS0971010000109447151003         COOPERMINE VILLAGE L7300 OLD PIMLICO RD                     000N        CARE OF             
MTR09710100001000000000000000RA              0006923     000601130000011300000570000003NN  NNW 000   FIRE SERVICE        N    
RDG09710100WATRL000000006K00000000000000000002202142015121036N000000000000U91       000070600K 10000000010000000000           
CUS0971010000109387229009         6115 FALLS ROAD     6115 FALLS RD                           000N        CARE OF             
MTR09710100001000000000000000RA              01116918    000201140000011400000610000003NN  NNW 000                       N    
RDG09710100WATRL000000005K00000000000007114002302142015121041N000000000000U91       000050500K 10000000010000006906           
CUS0971010000109387228001         6115 FALLS ROAD     6115 FALLS RD                           000N        CARE OF             
MTR09710100001000000000000000RA              E21178      000601150000011500000430000003NN  NNW 000   FIRE SERVICE        N    
RDG09710100WATRL000000006K00000000000000000002402142015121044N000000000000U91       000030600K 10000000010000000000           
CUS0971010000109120684007         BALTIMORE GAS & ELEC6100 FALLS RD                           000N        CARE OF             
MTR09710100002000000000000000RA              2234503     000801160000011600000390000003NN  NNW 000   FIRE SERVICE        N    
RDG09710100WATAL000000006K00000000000000000002502142015121053N000000000000U91       000090600K 10000000010000000000           
RDG09710100WATBL000000006K00000000000000000002602142015121057S005000000000U91       000040600K 10000000010000000190           
CUS0971010000109120685004         BALTIMORE GAS & ELEC6100 FALLS RD                           000N        CARE OF             
MTR09710100001000000000000000RA              14928025    007501170000011700000310000003NN  NNW 000                       N    
RDG09710100WATRL000000004K00000000000000000002702142015121107S022000000000U91       000100400K 10000000010000000352           
CUS0971010000109120697009         HESSLER DAVID PATTER6104 FALLS RD                           000N        CARE OF             
MTR09710100001000000000000000RA              29724233    001501180000011800000520000003NN  NNW 000                       N    
RDG09710100WATRL000000005K00000000000001456002802142015121113N000000000000U91       000060500K 10000000010000001445           
CUS0971010000109120699005         DAVEY TREE EXPERT CO6101 FALLS RD                           000N        CARE OF             
MTR09710100002000000000000000RA              0509195     000601190000011900000630000003NY  NNW 000                       N    
MTM097101000509195     ERT                                                                                                    
RDG09710100WATAL000000006K00000000000000001002902142015121120N000100000010U91       000070600K 10000000010000000001           
RDG09710100WATBL000000006K00000000000000000000000000000000000 000000000000U         000000600  10000000010000000203           
CUS0971010000109358888007         LAKE FALLS VILL LMTD6080 FALLS RD                           000N        CARE OF             
MTR09710100001000000000000000RA              33084007    001501200000012000000520000003NY  NNW 000                       N    
MTM0971010033084007    OK                                                                                                     
RDG09710100WATRL000000005K00000000000025565003002142015121148N000300000010U91       000280500K 10000000010000028751           
CUS0971010000109358887009         LAKE FALLS VILL PART6080 FALLS RD                           000N        CARE OF             
MTR09710100001000000000000000RA              E13816      000801210000012100000430000003NN  NNW 000   FIRE SERVICE        N    
RDG09710100WATRL000000006K00000000000003240003102142015121152N000000000000U91       000040600K 10000000010000003240           
CUS0971010000109430868001         WASHINGTONVILLE ADD.5931 FALLS RD                           000N        CARE OF             
MTR09710100002000000000000000RA              0007903     000801220000012200000630000000NN  NNW 000                       N    
RDG09710100WATAL000000006K00000000000000108003202142015121158N000100000010U91       000060600K 10000000010000000108           
RDG09710100WATBL000000006K00000000000016742003302142015121206N000400000010U91       000080600K 10000000010000016371           
CUS0971010000104381086000         TOWSON STATE UNIVERS7900 YORK RD                            000N        CARE OF             
MTR09710100001000000000000000RA              99999999    001501230000012300000620000003NN  NNW 000                       N    
RDG09710100WATRL000000005K00000000000000000003402142015121210S022000000000U91       000040500K 10000000010000000344           
RTR09710100NN01780178000001780000000001230123000096NY012301230178000500160000000000000000000001    02092015NY020000 N         
RHD09609600NN01780178000001780000000001420142000067NY014201420178001700080000000000000000000001    02062015NY020000 N         
CUS0960960000109433569002         HIDDEN BLUFFS HOA   5401 JACKS CT                           000N        CARE OF             
MTR09609600002000000000000000RA              0203193     000800010000000100000630000003NN  NNW 000                       N    
RDG09609600WATAL000000006K00000000000000001000102122015120006N000100000010U93       000000600K 10000000010000000001           
RDG09609600WATBL000000006K00000000000026954000202122015120020N000400000010U93       000140600K 10000000010000025813           
CUS0960960000109425822005         BALTO COUNTY BOARD O433 BLOOMSBURY AVE                      000N        CARE OF             
MTR09609600002000000000000000RA              70052690    000800020000000200000560000000NY  NNW 000                       N    
MTM0960960070052690    ok                                                                                                     
RDG09609600WATAL000000006K00000000000000917000302122015120051N000400000010U93       000310600K 10000000010000000914           
RDG09609600WATBL000000006K00000000000002896000402122015120110N000300000010U93       000190600K 10000000010000002899           
CUS0960960000109436343009         BD OF TRUSTEES OF   800 S ROLLING RD                        000N        CARE OF             
MTR09609600002000000000000000RA              0009434     001000030000000300000630000003NY  NNW 000                       N    
MTM096096000009434     n/a                                                                                                    
RDG09609600WATAL000000007K00000000000000000000000000000000000 000000000000U         000000700  10000000010000000018           
RDG09609600WATBL000000007K00000000000000000000000000000000000 000000000000U         000000700  10000000010000006765           
CUS0960960000109435115002         BELTWAY REALTY CORP 814 HILLTOP RD                          000N        CARE OF             
MTR09609600001000000000000000RA              0807987     000400040000000400000630000000NN  NNW 000                       N    
RDG09609600WATRL000000006K00000000000034804000502122015120420N000300000010U93       001900600K 10000000010000026211           
CUS0960960000109435116000         BELTWAY REALTY CORP 814 HILLTOP RD                          000N        CARE OF             
MTR09609600001000000000000000RA              0607987     000400050000000500000640000000NY  NNW 000                       N    
MTM096096000607987     n/a                                                                                                    
RDG09609600WATRL000000006K00000000000000000000000000000000000 000000000000U         000000600  10000000010000022543           
CUS0960960000109146520003         BALTO CO PUBLIC SCHOSS HILLTOP RD                           000N        CARE OF             
MTR09609600001000000000000000RA              32575138    000200060000000600000520000003NN  NNW 000                       N    
RDG09609600WATRL000000005K00000000000009088000602122015120501N000000000000U93       000410500K 10000000010000009033           
CUS0960960000109146459004         TRISTAR MANAGEMENT I284-98 BLOOMSBURY AVE                   000N        CARE OF             
MTR09609600001000000000000000RA              29372234    000200070000000700000520000003NN  NNW 000                       N    
RDG09609600WATRL000000005K00000000000086237000102112015122821N000000000000N93       000000500K 10000000010000085089           
CUS0960960000109146522009         SPRING GROVE STATE HES BLOOMSBURY AVE NEAR                  000N        CARE OF             
MTR09609600002000000000000000RA              5124978     000600080000000800000540000003NY  NNW 000                       N    
MTM096096005124978     ok                                                                                                     
RDG09609600WATAL000000006K00000000000064099000202112015122900N000300000010N93       000390600K 10000000010000045127           
RDG09609600WATBL000000006K00000000000099999000302112015122915N000000000000N93       000150600K 10000000010000005756           
CUS0960960000109146521001         BEWLEY JOHN L,JR    1 ASYLUM LN                             000N        CARE OF             
MTR09609600001000000000000000RA              14917765    005800090000000900000310000003NN  NNW 000                       N    
RDG09609600WATRL000000004K00000000000000000000000000000000000 000000000000U         000000400  10000000010000001222           
CUS0960960000109146511002         SPRING GROVE STATE HFOOT OF WADE AVE                        000N        CARE OF             
MTR09609600002000000000000000RA              5649262     000800100000001000000540000003NY  NNW 000                       N    
MTM096096005649262     ok                                                                                                     
RDG09609600WATAL000000006K00000000000000938000402112015123007N000300000010N93       000520600K 10000000010000000029           
RDG09609600WATBL000000006K00000000000012696000502112015123026N000400000010N93       000190600K 10000000010000012524           
CUS0960960000109146523007         GENERAL GERMAN ORPHA205 BLOOMSBURY AVE                      000N        CARE OF             
MTR09609600001000000000000000RA              99999999    000200110000001100000620000003NN  NNW 000                       N    
RDG09609600WATRL000000005K00000000000000000000602112015123030S022000000000N93       000040500K 10000000010000020313           
CUS0960960000109440863000         GENERAL GERMAN ORPHA205 BLOOMSBURY AVE                      000N        CARE OF             
MTR09609600002000000000000000RA              0603285     000800120000001200000630000000NY  NNW 000                       N    
MTM096096000603285                         n/a                                                                                
RDG09609600WATAL000000006K00000000000000007000702122015120643N000100000010U93       001020600K 10000000010000000007           
RDG09609600WATBL000000006K00000000000000000000000000000000000 000000000000U         000000600  10000000010000020944           
CUS0960960000109146525002         INTERNATIONAL SOCIET200 BLOOMSBURY AVE                      000N        CARE OF             
MTR09609600001000000000000000RA              43904457    007500130000001300000520000003NN  NNW 000                       N    
RDG09609600WATRL000000004K00000000000000321000702112015123048N000400000010N93       000180400K 10000000010000000192           
CUS0960960000109146524005         INTERNATIONAL SOCIET200 BLOOMSBURY AVE                      000N        CARE OF             
MTR09609600001000000000000000RA              5003380     000600140000001400000410000003NN  NNW 000   FIRE SERVICE        N    
RDG09609600WATRL000000006K00000000000000000000802112015123051N000000000000N93       000030600K 10000000010000000000           
CUS0960960000109428598008         BALTIMORE COUNTY MAR106 BLOOMSBURY AVE                      000N        CARE OF             
MTR09609600001000000000000000RA              8045284     000600150000001500000380000000NN  NNW 000   FIRE SERVICE        N    
RDG09609600WATRL000000006K00000000000000012000902112015123056N000000000000N93       000050600K 10000000010000000012           
CUS0960960000109428600002         BALTIMORE COUNTY MAR106 BLOOMSBURY AVE                      000N        CARE OF             
MTR09609600001000000000000000RA              11800710    000300160000001600000460000000NN  NNW 000                       N    
RDG09609600WATRL000000005K00000000000000358001002112015123125N000000000000N93       000290500K 10000000010000000309           
CUS0960960000109146527008         VERIZON MARYLAND INC14 BLOOMSBURY AVE                       000N        CARE OF             
MTR09609600001000000000000000RA              31058504    000200170000001700000520000003NN  NNW 000                       N    
RDG09609600WATRL000000005K00000000000011695001102112015123151N000400000010N93       000260500K 10000000010000011652           
