FHDNNNN003000656000656000656N                                                                                           001998
RHD08561300NN02430243000002430000000002430243000211NY024302430243001700010000000000000000000002    02022015NY020000 N         
CUS0856130000108024422001         STIMELY DONALD R    1138 INGLESIDE AVE                      000N        CARE OF             
MTR08561300001000000000000000RA              48588783    005800010000000100000520000003NN  NNW 000                       N    
RDG08561300WATRL000000004K00000000000001075010202132015105755N000000000000N89       000300400K 10000000010000001064           
CUS0856130000108024423009         EBBERTS EDGAR JOSEPH1136 INGLESIDE AVE                      000N        CARE OF             
MTR08561300001000000000000000RA              01073316    005800020000000200000610000003NN  NNW 000                       N    
RDG08561300WATRL000000004K00000000000000826010102132015105725N000000000020N89       000360400K 10000000010000000822           
CUS0856130000108024424007         LIEM TRUONG         1134 INGLESIDE AVE                      000N        CARE OF             
MTR08561300001000000000000000RA              44178806    005800030000000300000520000003NN  NNW 000                       N    
RDG08561300WATRL000000004K00000000000001893010002132015105649N000000000000N89       001960400K 10000000010000001886           
CUS0856130000108396680004         QUOC K TRUONG       1132 INGLESIDE AVE                      000N        CARE OF             
MTR08561300001000000000000000RA              39584336    005800040000000400000520000003NN  NNW 000                       N    
RDG08561300WATRL000000004K00000000000004853010302132015105924N000400000010N89       000890400K 10000000010000004829           
CUS0856130000108024425004         LIEM VAN TRUONG     5900 QUEEN ANNE RD                      000N        CARE OF             
MTR08561300001000000000000000RA              32899322    005800050000000500000520000003NN  NNW 000                       N    
RDG08561300WATRL000000004K00000000000002158010402132015110039N000000000000N89       000750400K 10000000010000002153           
CUS0856130000108024426002         JANET WASHINGTON-RIC5902 QUEEN ANNE ST                      000N        CARE OF             
MTR08561300001000000000000000RA              33080049    005800060000000600000520000003NN  NNW 000                       N    
RDG08561300WATRL000000004K00000000000001953010702132015110218N000000000000N89       000360400K 10000000010000001915           
CUS0856130000108024427000         DAVIS GEORGE W,III  5904 QUEEN ANNE RD                      000N        CARE OF             
MTR08561300001000000000000000RA              44179030    005800070000000700000520000003NY  NNW 000                       N    
MTM0856130044179030    CANT LOCATE                                                                                            
RDG08561300WATRL000000004K00000000000000000000000000000000000 000000000000U         000000400  10000000010000002088           
CUS0856130000108024428008         EVANS MICHAEL P     5906 QUEEN ANNE ST                      000N        CARE OF             
MTR08561300001000000000000000RA              24759446    005800080000000800000520000003NN  NNW 000                       N    
RDG08561300WATRL000000004K00000000000003329010902132015110605N000000000010N89       000860400K 10000000010000003319           
CUS0856130000108024429006         WELLS FARGO BANK NA 5908 QUEEN ANNE RD                      000N        CARE OF             
MTR08561300001000000000000000RA              10015376    005800090000000900000570000003NN  NNW 000                       N    
RDG08561300WATRL000000004K00000000000000025011002132015110614N000000000000N89       000090400K 10000000010000000025           
CUS0856130000108024430004         DRAKEFORD AGENIA L  5910 QUEEN ANNE ST                      000N        CARE OF             
MTR08561300001000000000000000RA              36694489    005800100000001000000520000003NN  NNW 000                       N    
RDG08561300WATRL000000004K00000000000001393011302132015111113N000000000010N89       000310400K 10000000010000001390           
CUS0856130000108024431002         WILSON, CHARLES E.  5912 QUEEN ANNE ST                      000N        CARE OF             
MTR08561300001000000000000000RA              50480132    005800110000001100000520000003NN  NNW 000                       N    
RDG08561300WATRL000000004K00000000000004414011402132015111131N000000000000N89       000180400K 10000000010000004386           
CUS0856130000108024432000         MORGAN THURAI S     5912-1/2 QUEEN ANNE RD                  000N        CARE OF             
MTR08561300001000000000000000RA              75616519    005800120000001200000350000003NN  NNW 000                       N    
RDG08561300WATRL000000004K00000000000000319011502132015111207N000000000000N89       000360400K 10000000010000000274           
CUS0856130000108024433008         FORBES-MARAGH GERTRU5914 QUEEN ANNE ST                      000N        CARE OF             
MTR08561300001000000000000000RA              23053712    005800130000001300000520000003NN  NNW 000                       N    
RDG08561300WATRL000000004K00000000000004110011802132015111542N000000000000N89       000460400K 10000000010000004099           
CUS0856130000108024438007         DANIELS MARGARET M  5934 QUEEN ANNE ST                      000N        CARE OF             
MTR08561300001000000000000000RA              40322165    005800140000001400000520000003NN  NNW 000                       N    
RDG08561300WATRL000000004K00000000000002971004102132015092749N000000000000N89       000720400K 10000000010000002961           
CUS0856130000108454393003         ROGER W WOODS       5950 QUEEN ANNE ST                      000N        CARE OF             
MTR08561300001000000000000000RA              76350361    000100150000001500000350000003NN  NNW 000                       N    
RDG08561300WATRL000000004K00000000000000019003502132015092100N000000000000N89       001300400K 10000000010000000009           
CUS0856130000108454391007         COUSER, CYNTHIA     5952 QUEEN ANNE ST                      000N        CARE OF             
MTR08561300001000000000000000RA              78030215    000100160000001600000350000003NN  NNW 000                       N    
RDG08561300WATRL000000004K00000000000000009003602132015092225N000000000010N89       000850400K 10000000010000000000           
CUS0856130000108024444005         WEST GLENDA MARIE   5939 QUEEN ANNE ST                      000N        CARE OF             
MTR08561300001000000000000000RA              27817714    005800170000001700000520000003NN  NNW 000                       N    
RDG08561300WATRL000000004K00000000000005247003702132015092255N000000000000N89       000300400K 10000000010000005214           
CUS0856130000108024445002         FELIX SONNY         5937 QUEEN ANNE RD                      000N        CARE OF             
MTR08561300001000000000000000RA              99290197    005800180000001800000570000003NN  NNW 000                       N    
RDG08561300WATRL000000004K00000000000001745003802132015092329N000000000000N89       000340400K 10000000010000001717           
CUS0856130000108359235002         DREW STANLEY        5935 QUEEN ANNE ST                      000N        CARE OF             
MTR08561300001000000000000000RA              29682777    005800190000001900000520000003NN  NNW 000                       N    
RDG08561300WATRL000000004K00000000000003301003902132015092422N000300000010N89       000530400K 10000000010000003245           
CUS0856130000108456572000         RAJA MUMTAZRA       5933 QUEEN ANNE ST                      000N        CARE OF             
MTR08561300001000000000000000RA              99999999    000100200000002000000440000003NY  NNW 000                       N    
MTM0856130099999999    BURIED                                                                                                 
RDG08561300WATRL000000004K00000000000000000000000000000000000 000000000000U         000000400  10000000010000000000           
CUS0856130000108456573008         JANICE NAPORA       5931 QUEEN ANNE ST                      000N        CARE OF             
MTR08561300001000000000000000RA              99999999    000100210000002100000440000003NN  NNW 000                       N    
RDG08561300WATRL000000004K00000000000000000004002132015092637S022000000000N89       001350400K 10000000010000000000           
CUS0856130000108024446000         SCOTT NETTIE JANE   5929 QUEEN ANNE ST                      000N        CARE OF             
MTR08561300001000000000000000RA              01073504    005800220000002200000610000003NN  NNW 000                       N    
RDG08561300WATRL000000004K00000000000001268004202132015093014N000000000000N89       001450400K 10000000010000001246           
CUS0856130000108024447008         WILKINS BARBARA R   5927 QUEEN ANNE RD                      000N        CARE OF             
MTR08561300001000000000000000RA              01073508    005800230000002300000610000003NN  NNW 000                       N    
RDG08561300WATRL000000004K00000000000001120004302132015093017N000000000000N89       000030400K 10000000010000001101           
CUS0856130000108024448006         HENRY MELVIN T      5917 QUEEN ANNE ST                      000N        CARE OF             
MTR08561300001000000000000000RA              01073503    005800240000002400000610000003NN  NNW 000                       N    
RDG08561300WATRL000000004K00000000000000000000000000000000000 000000000000U         000000400  10000000010000001115           
CUS0856130000108024449004         BEARD MELISSA       5915 QUEEN ANNE RD                      000N        CARE OF             
MTR08561300001000000000000000RA              48582602    005800250000002500000520000003NN  NNW 000                       N    
RDG08561300WATRL000000004K00000000000000725011702132015111456N000000000000N89       001310400K 10000000010000000701           
CUS0856130000108024450002         BROWN TYNISHA D     5913 QUEEN ANNE AVE                     000N        CARE OF             
MTR08561300001000000000000000RA              99411415    007500260000002600000570000003NY  NNW 000                       N    
MTM0856130099411415    CLEAN OUT                                                                                              
RDG08561300WATRL000000004K00000000000000000000000000000000000 000000000000U         000000400  10000000010000000182           
CUS0856130000108024451000         CHUNG PHUOI & TOAN B5911 QUEEN ANNE RD                      000N        CARE OF             
MTR08561300001000000000000000RA              01073502    005800270000002700000610000003NN  NNW 000                       N    
RDG08561300WATRL000000004K00000000000001053011602132015111245N000000000000N89       000380400K 10000000010000001014           
CUS0856130000108024452008         TYLER JOHN W,JR     5909 QUEEN ANNE RD                      000N        CARE OF             
MTR08561300001000000000000000RA              9686502     005800280000002800000570000003NN  NNW 000                       N    
RDG08561300WATRL000000004K00000000000006889011202132015111042N000000000000N89       002410400K 10000000010000006855           
CUS0856130000108024453006         ARIF MOHAMMAD       5907 QUEEN ANNE RD                      000N        CARE OF             
MTR08561300001000000000000000RA              52285647    005800290000002900000520000003NN  NNW 000                       N    
RDG08561300WATRL000000004K00000000000001229011102132015110641N000000000000N89       000270400K 10000000010000001217           
CUS0856130000108024454004         QUOS TRUONG         5905 QUEEN ANNE ST                      000N        CARE OF             
MTR08561300001000000000000000RA              40322167    005800300000003000000520000003NN  NNW 000                       N    
RDG08561300WATRL000000004K00000000000001583010802132015110439N000400000010N89       001410400K 10000000010000001572           
CUS0856130000108024455001         DEJESUS EDGARDO     5903 QUEEN ANNE RD                      000N        CARE OF             
MTR08561300001000000000000000RA              40322164    005800310000003100000520000003NN  NNW 000                       N    
RDG08561300WATRL000000004K00000000000002545010602132015110142N000000000000N89       000260400K 10000000010000002534           
CUS0856130000108024456009         STEVEN MILLER       5901 QUEEN ANNE ST                      000N        CARE OF             
MTR08561300001000000000000000RA              26000585    005800320000003200000520000003NN  NNW 000                       N    
RDG08561300WATRL000000004K00000000000002206010502132015110116N000000000000N89       000370400K 10000000010000002188           
CUS0856130000108024457007         TONG V. NGO         1126 INGLESIDE AVE                      000N        CARE OF             
MTR08561300001000000000000000RA              46885966    005800330000003300000520000003NN  NNW 000                       N    
RDG08561300WATRL000000004K00000000000001457009902132015105333N000000000000N89       000060400K 10000000010000001457           
CUS0856130000108024458005         KERINS CHARLES P    1124 INGLESIDE AVE                      000N        CARE OF             
MTR08561300001000000000000000RA              35106948    005800340000003400000520000003NN  NNW 000                       N    
RDG08561300WATRL000000004K00000000000005728009802132015105327N000000000000N89       000120400K 10000000010000005728           
CUS0856130000108024459003         LEEPER MICHAEL      1122 INGLESIDE AVE                      000N        CARE OF             
MTR08561300001000000000000000RA              44178807    005800350000003500000520000003NN  NNW 000                       N    
RDG08561300WATRL000000004K00000000000001863009702132015105315N000000000000N89       000590400K 10000000010000001856           
CUS0856130000108024460001         BLUSTEIN DAVID      1120 INGLESIDE AVE                      000N        CARE OF             
MTR08561300001000000000000000RA              32902792    005800360000003600000520000003NN  NNW 000                       N    
RDG08561300WATRL000000004K00000000000003456009602132015105216N000000000010N89       000340400K 10000000010000003430           
CUS0856130000108024461009         PANNELL ANNA        1118 INGLESIDE AVE                      000N        CARE OF             
MTR08561300001000000000000000RA              29082214    005800370000003700000520000003NN  NNW 000                       N    
RDG08561300WATRL000000004K00000000000001867009502132015105142N000000000000N89       001380400K 10000000010000001843           
CUS0856130000108024462007         7-ELEVEN INC        1114 INGLESIDE AVE                      000N        CARE OF             
MTR08561300001000000000000000RA              10015378    005800380000003800000570000003NY  NNW 000                       N    
MTM0856130010015378    FROZEN                                                                                                 
RDG08561300WATRL000000004K00000000000000000000000000000000000 000000000000U         000000400  10000000010000000484           
CUS0856130000108024463005         ASM PROPERTY LLC    1110 INGLESIDE AVE                      000N        CARE OF             
MTR08561300001000000000000000RA              01073506    005800390000003900000610000003NY  NNW 000                       N    
MTM0856130001073506    FROZEN                                                                                                 
RDG08561300WATRL000000004K00000000000000000000000000000000000 000000000000U         000000400  10000000010000000680           
CUS0856130000108024464003         BJ'S LANDHOLDINGS LL1104 INGLESIDE AVE                      000N        CARE OF             
MTR08561300001000000000000000RA              99291163    005800400000004000000570000003NY  NNW 000                       N    
MTM0856130099291163    FROZEN                                                                                                 
RDG08561300WATRL000000004K00000000000000000000000000000000000 000000000000U         000000400  10000000010000007884           
CUS0856130000108024465000         COLE MARY V         5900 JOHNNYCAKE RD                      000N        CARE OF             
MTR08561300001000000000000000RA              01074952    005800410000004100000610000003NN  NNW 000                       N    
RDG08561300WATRL000000004K00000000000002412008302132015104033N000000000000N89       001810400K 10000000010000002387           
CUS0856130000108024467006         KARSON DAVID J      5906 JOHNNYCAKE RD                      000N        CARE OF             
MTR08561300001000000000000000RA              52287598    005800420000004200000520000003NN  NNW 000                       N    
RDG08561300WATRL000000004K00000000000001436008202132015103732N000000000000N89       000450400K 10000000010000001425           
CUS0856130000108378327004         SHAW HENRY H        5910 JOHNNYCAKE RD                      000N        CARE OF             
MTR08561300001000000000000000RA              32904020    005800430000004300000520000003NN  NNW 000                       N    
RDG08561300WATRL000000004K00000000000001335008102132015103647N000000000000N89       000850400K 10000000010000001319           
CUS0856130000108024468004         GRUBB VERNIE L      5918 JOHNNYCAKE RD                      000N        CARE OF             
MTR08561300001000000000000000RA              11334767    005800440000004400000570000003NY  NNW 000                       N    
MTM0856130011334767    FROZEN                                                                                                 
RDG08561300WATRL000000004K00000000000000000000000000000000000 000000000000U         000000400  10000000010000005516           
CUS0856130000108352836004         ONEAL JERRY         5918-A JOHNNYCAKE RD                    000N        CARE OF             
MTR08561300001000000000000000RA              27833189    005800450000004500000520000003NN  NNW 000                       N    
RDG08561300WATRL000000004K00000000000004238008002132015103522N000000000000N89       000280400K 10000000010000004186           
CUS0856130000108024469002         SIKORSKY THOMAS A   5920 JOHNNYCAKE RD                      000N        CARE OF             
MTR08561300001000000000000000RA              9685903     005800460000004600000570000003NN  NNW 000                       N    
RDG08561300WATRL000000004K00000000000007890007902132015103454N000000000000N89       000390400K 10000000010000007890           
CUS0856130000108024470000         HENDERSON GLADYS I  5922 JOHNNYCAKE RD                      000N        CARE OF             
MTR08561300001000000000000000RA              44091597    005800470000004700000520000003NN  NNW 000                       N    
RDG08561300WATRL000000004K00000000000000632007802132015103415N000000000000N89       009670400K 10000000010000000629           
CUS0856130000108024472006         RHONDA BROOKS       1101 DORCHESTER AVE                     000N        CARE OF             
MTR08561300001000000000000000RA              22608531    005800480000004800000520000003NN  NNW 000                       N    
RDG08561300WATRL000000004K00000000000005096005302132015094917N000000000000N89       000270400K 10000000010000005070           
CUS0856130000108024473004         VALLEJO EMILY & EDIS1103 DORCHESTER AVE                     000N        CARE OF             
MTR08561300001000000000000000RA              01073500    005800490000004900000610000003NN  NNW 000                       N    
RDG08561300WATRL000000004K00000000000000758005202132015094850N000000000000N89       000250400K 10000000010000000743           
CUS0856130000108024474002         HONAKER GARY E      1105 DORCHESTER AVE                     000N        CARE OF             
MTR08561300001000000000000000RA              23427020    005800500000005000000520000003NN  NNW 000                       N    
RDG08561300WATRL000000004K00000000000005177005102132015094825N000000000000N89       000260400K 10000000010000005163           
CUS0856130000108024475009         RAUCHHAUS EDMOND C  1107 DORCHESTER AVE                     000N        CARE OF             
MTR08561300001000000000000000RA              32902795    005800510000005100000520000003NN  NNW 000                       N    
RDG08561300WATRL000000004K00000000000001319005002132015094759N000000000000N89       000230400K 10000000010000001314           
CUS0856130000108024476007         TURNER FRANK T,JR   1109 DORCHESTER AVE                     000N        CARE OF             
MTR08561300001000000000000000RA              9595198     005800520000005200000570000003NN  NNW 000                       N    
RDG08561300WATRL000000004K00000000000007403004902132015094736N000300000010N89       001520400K 10000000010000007344           
CUS0856130000108024477005         COOKLEY MACKIE J    1111 DORCHESTER AVE                     000N        CARE OF             
MTR08561300001000000000000000RA              01073509    005800530000005300000610000003NN  NNW 000                       N    
RDG08561300WATRL000000004K00000000000001276004702132015094426N000000000000N89       000220400K 10000000010000001264           
CUS0856130000108024478003         HARLEE SHIRLEY M    1113 DORCHESTER AVE                     000N        CARE OF             
MTR08561300001000000000000000RA              32899321    005800540000005400000520000003NN  NNW 000                       N    
RDG08561300WATRL000000004K00000000000002435004802132015094504N000000000000N89       000380400K 10000000010000002427           
CUS0856130000108024480009         HODGE CHARLES KAREL 1112 DORCHESTER AVE                     000N        CARE OF             
MTR08561300001000000000000000RA              01103515    005800550000005500000610000003NN  NNW 000                       N    
RDG08561300WATRL000000004K00000000000000813004402132015094311N000100000010N89       007740400K 10000000010000000813           
CUS0856130000108024481007         EDWARD WANDA W      1110 DORCHESTER AVE                     000N        CARE OF             
MTR08561300001000000000000000RA              01103521    005800560000005600000610000003NN  NNW 000                       N    
RDG08561300WATRL000000004K00000000000001022004502132015094335N000000000000N89       000240400K 10000000010000001018           
CUS0856130000108024482005         STALLINGS JAMES F,JR1108 DORCHESTER AVE                     000N        CARE OF             
MTR08561300001000000000000000RA              01103519    005800570000005700000610000003NN  NNW 000                       N    
RDG08561300WATRL000000004K00000000000000642004602132015094404N000000000000N89       000290400K 10000000010000000619           
CUS0856130000108440921008         MOORE TYRONE HENRY  5902 TALBOTT ST                         000N        CARE OF             
MTR08561300001000000000000000RA              14929866    005800580000005800000310000003NN  NNW 000                       N    
RDG08561300WATRL000000004K00000000000000483008402132015104312N000000000000N89       001590400K 10000000010000000473           
CUS0856130000108440922006         WALKER RODNEY I     5904 TALBOTT ST                         000N        CARE OF             
MTR08561300001000000000000000RA              14930187    005800590000005900000310000003NN  NNW 000                       N    
RDG08561300WATRL000000004K00000000000000700008502132015104338N000000000000N89       000260400K 10000000010000000700           
CUS0856130000108440923004         LINTHICUM STANLEY   5906 TALBOTT ST                         000N        CARE OF             
MTR08561300001000000000000000RA              14926224    005800600000006000000310000003NN  NNW 000                       N    
RDG08561300WATRL000000004K00000000000000444008602132015104401N000000000000N89       000230400K 10000000010000000433           
CUS0856130000108440924002         HEARD CLIFFORD L    5908 TALBOTT ST                         000N        CARE OF             
MTR08561300001000000000000000RA              14924114    005800610000006100000310000003NN  NNW 000                       N    
RDG08561300WATRL000000004K00000000000000611008702132015104419N000000000000N89       000180400K 10000000010000000581           
CUS0856130000108440925009         ALSTON BERTRAM      5910 TALBOTT ST                         000N        CARE OF             
MTR08561300001000000000000000RA              14924112    005800620000006200000310000003NN  NNW 000                       N    
RDG08561300WATRL000000004K00000000000000433008802132015104455N000000000000N89       000360400K 10000000010000000418           
CUS0856130000108396672001         LUDWIG, CURTIS/DONNA5928 TALBOTT ST                         000N        CARE OF             
MTR08561300001000000000000000RA              40049698    005800630000006300000520000003NN  NNW 000                       N    
RDG08561300WATRL000000004K00000000000005775005902132015095423N000000000000N89       000370400K 10000000010000005734           
CUS0856130000108393453009         WILLIAMS BENNIE L,JR5930 TALBOTT ST                         000N        CARE OF             
MTR08561300001000000000000000RA              38187468    005800640000006400000520000003NN  NNW 000                       N    
RDG08561300WATRL000000004K00000000000001987006002132015095525N000000000000N89       000620400K 10000000010000001975           
CUS0856130000108387136008         STERN RAYMOND       5934 TALBOTT ST                         000N        CARE OF             
MTR08561300001000000000000000RA              36687745    005800650000006500000520000003NY  NNW 000                       N    
MTM0856130036687745    FROZEN                                                                                                 
RDG08561300WATRL000000004K00000000000000000000000000000000000 000000000000U         000000400  10000000010000004286           
CUS0856130000108024441001         ALGARAHEH MOHAMMED  5936 TALBOTT ST                         000N        CARE OF             
MTR08561300001000000000000000RA              01094666    005800660000006600000610000003NN  NNW 000                       N    
RDG08561300WATRL000000004K00000000000001480006302132015095919N000000000000N89       001460400K 10000000010000001457           
CUS0856130000108398898000         MARTIN KIMBERLY A   5938 TALBOTT ST                         000N        CARE OF             
MTR08561300001000000000000000RA              40320711    005800670000006700000520000003NN  NNW 000                       N    
RDG08561300WATRL000000004K00000000000003179006602132015100201N000000000000N89       000200400K 10000000010000003170           
CUS0856130000108435665008         LEE STEVE A         5940 TALBOTT ST                         000N        CARE OF             
MTR08561300001000000000000000RA              01108963    005800680000006800000570000003NN  NNW 000                       N    
RDG08561300WATRL000000004K00000000000001141006702132015100225N000000000000N89       000240400K 10000000010000001111           
CUS0856130000108456898009         GETI LLC            5942 TALBOTT ST                         000N        CARE OF             
MTR08561300001000000000000000RA              77897063    000100680010006800100360000003NY  NNW 000                       N    
MTM0856130077897063    BURIED                                                                                                 
RDG08561300WATRL000000004K00000000000000000000000000000000000 000000000000U         000000400  10000000010000000000           
CUS0856130000108432434002         ABDULLAH AMEEDAH    5943 TALBOTT ST                         000N        CARE OF             
MTR08561300001000000000000000RA              01104424    005800690000006900000610000003NN  NNW 000                       N    
RDG08561300WATRL000000004K00000000000000732006802132015100352N000000000000N89       000870400K 10000000010000000719           
CUS0856130000108351120004         RETTALIATA JAMES CHA5941 TALBOTT ST                         000N        CARE OF             
MTR08561300001000000000000000RA              10019903    005800700000007000000570000003NY  NNW 000                       N    
MTM0856130010019903    UNDER GRAVEL                                                                                           
RDG08561300WATRL000000004K00000000000000000000000000000000000 000000000000U         000000400  10000000010000000299           
CUS0856130000108403052007         WASHINGTON BERNADETT5939 TALBOTT ST                         000N        CARE OF             
MTR08561300001000000000000000RA              41082215    005800710000007100000520000003NN  NNW 000                       N    
RDG08561300WATRL000000004K00000000000002863006502132015100141N000000000000N89       000880400K 10000000010000002842           
CUS0856130000108403050001         GARCIA JOSELINO P   5937 TALBOTT ST                         000N        CARE OF             
MTR08561300001000000000000000RA              41082217    005800720000007200000520000003NN  NNW 000                       N    
RDG08561300WATRL000000004K00000000000003566006402132015100013N000400000010N89       000540400K 10000000010000003551           
CUS0856130000108376480003         CRAVEN HARRY/ELSIE M5935 TALBOTT ST                         000N        CARE OF             
MTR08561300001000000000000000RA              32899181    005800730000007300000520000003NN  NNW 000                       N    
RDG08561300WATRL000000004K00000000000002225006202132015095653N000000000000N89       000820400K 10000000010000002207           
CUS0856130000108376482009         WRIGHT WILLIE J     5929 TALBOTT ST                         000N        CARE OF             
MTR08561300001000000000000000RA              01073507    005800740000007400000610000003NN  NNW 000                       N    
RDG08561300WATRL000000004K00000000000001447006102132015095531N000000000000N89       000060400K 10000000010000001429           
CUS0856130000108376483007         HOWARD ARLENE J     5927 TALBOTT ST                         000N        CARE OF             
MTR08561300001000000000000000RA              32899205    005800750000007500000520000003NN  NNW 000                       N    
RDG08561300WATRL000000004K00000000000001399005802132015095346N000000000000N89       001500400K 10000000010000001392           
CUS0856130000108440931007         SMITH TIFFANY       5915 TALBOTT ST                         000N        CARE OF             
MTR08561300001000000000000000RA              14920044    005800760000007600000310000003NN  NNW 000                       N    
RDG08561300WATRL000000004K00000000000000964008902132015104639N000000000000N89       001040400K 10000000010000000941           
CUS0856130000108440930009         TAYLOR CLIVE A      5913 TALBOTT ST                         000N        CARE OF             
MTR08561300001000000000000000RA              14919517    005800770000007700000310000003NN  NNW 000                       N    
RDG08561300WATRL000000004K00000000000000766009002132015104655N000000000000N89       000160400K 10000000010000000728           
CUS0856130000108440929001         DIXON LASHELLE Y    5909 TALBOTT ST                         000N        CARE OF             
MTR08561300001000000000000000RA              14919519    005800780000007800000310000003NN  NNW 000                       N    
RDG08561300WATRL000000004K00000000000001551009102132015104732N000000000000N89       000370400K 10000000010000001501           
CUS0856130000108440928003         HO TOMMY            5905 TALBOTT ST                         000N        CARE OF             
MTR08561300001000000000000000RA              14922014    005800790000007900000310000003NN  NNW 000                       N    
RDG08561300WATRL000000004K00000000000000471009202132015104805N000000000000N89       000330400K 10000000010000000454           
CUS0856130000108440927005         HONG NICHOLAS       5903 TALBOTT ST                         000N        CARE OF             
MTR08561300001000000000000000RA              14930184    005800800000008000000310000003NN  NNW 000                       N    
RDG08561300WATRL000000004K00000000000000099009302132015104901N000000000000N89       000560400K 10000000010000000095           
CUS0856130000108440926007         NUNEZ TANIA L       5901 TALBOTT ST                         000N        CARE OF             
MTR08561300001000000000000000RA              14927373    005800810000008100000310000003NN  NNW 000                       N    
RDG08561300WATRL000000004K00000000000000680009402132015104924N000000000000N89       000230400K 10000000010000000657           
CUS0856130000108024483003         TURNER FLOYD        1106 DORCHESTER AVE                     000N        CARE OF             
MTR08561300001000000000000000RA              01103977    005800820000008200000610000003NN  NNW 000                       N    
RDG08561300WATRL000000004K00000000000000580005702132015095116N000000000000N89       000260400K 10000000010000000571           
CUS0856130000108024484001         FRANCIS C. OKOLO    1104 DORCHESTER AVE                     000N        CARE OF             
MTR08561300001000000000000000RA              9689193     005800830000008300000570000003NN  NNW 000                       N    
RDG08561300WATRL000000004K00000000000003320005602132015095050N000000000000N89       000190400K 10000000010000003316           
CUS0856130000108024485008         JOHNSON JOHN W,SR   1102 DORCHESTER AVE                     000N        CARE OF             
MTR08561300001000000000000000RA              32900466    005800840000008400000520000003NN  NNW 000                       N    
RDG08561300WATRL000000004K00000000000003784005502132015095031N000000000000N89       000280400K 10000000010000003751           
CUS0856130000108024486006         JACKSON WARDELL     1100 DORCHESTER AVE                     000N        CARE OF             
MTR08561300001000000000000000RA              01073505    005800850000008500000610000003NN  NNW 000                       N    
RDG08561300WATRL000000004K00000000000000747005402132015095003N000000000000N89       000460400K 10000000010000000729           
CUS0856130000108024487004         STEDDING MICHELE LOU5924 JOHNNYCAKE RD                      000N        CARE OF             
MTR08561300001000000000000000RA              33736051    005800860000008600000520000003NY  NNW 000                       N    
MTM0856130033736051    FROZEN                                                                                                 
RDG08561300WATRL000000004K00000000000000000000000000000000000 000000000000U         000000400  10000000010000003961           
CUS0856130000108024471008         WHITE MARY          5924-1/2 JOHNNYCAKE RD                  000N        CARE OF             
MTR08561300001000000000000000RA              26002185    005800870000008700000520000003NN  NNW 000                       N    
RDG08561300WATRL000000004K00000000000002830007702132015101808N000000000000N89       000430400K 10000000010000002821           
CUS0856130000108024488002         GUARDADO VILMA      5926 JOHNNYCAKE RD                      000N        CARE OF             
MTR08561300001000000000000000RA              40780508    005800880000008800000520000003NN  NNW 000                       N    
RDG08561300WATRL000000004K00000000000002627007602132015101725N000000000000N89       000550400K 10000000010000002587           
CUS0856130000108024489000         CARPENTER CLINTON C 5928 JOHNNYCAKE RD                      000N        CARE OF             
MTR08561300001000000000000000RA              01073313    005800890000008900000610000003NY  NNW 000                       N    
MTM0856130001073313    FROZEN                                                                                                 
RDG08561300WATRL000000004K00000000000000000000000000000000000 000000000000U         000000400  10000000010000001892           
CUS0856130000108024490008         CARTER ROBIN D      5930 JOHNNYCAKE RD                      000N        CARE OF             
MTR08561300001000000000000000RA              01073501    005800900000009000000610000003NN  NNW 000                       N    
RDG08561300WATRL000000004K00000000000001093007502132015101630N000000000000N89       000400400K 10000000010000001069           
CUS0856130000108024491006         LEIGH MICHAEL M     5932 JOHNNYCAKE RD                      000N        CARE OF             
MTR08561300001000000000000000RA              01073319    005800910000009100000610000003NN  NNW 000                       N    
RDG08561300WATRL000000004K00000000000000838007402132015101550N000000000000N89       003350400K 10000000010000000825           
CUS0856130000108024492004         DAVIS CARL R        5934 JOHNNYCAKE RD                      000N        CARE OF             
MTR08561300001000000000000000RA              42810393    005800920000009200000520000003NY  NNW 000                       N    
MTM0856130042810393    FROZEN                                                                                                 
RDG08561300WATRL000000004K00000000000000000000000000000000000 000000000000U         000000400  10000000010000001393           
CUS0856130000108404248000         AHMED BASHIR        5936 JOHNNYCAKE RD                      000N        CARE OF             
MTR08561300001000000000000000RA              42809537    005800930000009300000520000003NY  NNW 000                       N    
MTM0856130042809537    FROZEN                                                                                                 
RDG08561300WATRL000000004K00000000000000000000000000000000000 000000000000U         000000400  10000000010000001968           
CUS0856130000108024493002         STURDEVANT CALVIN E 5940 JOHNNYCAKE RD                      000N        CARE OF             
MTR08561300001000000000000000RA              48593214    005800940000009400000520000003NN  NNW 000                       N    
RDG08561300WATRL000000004K00000000000001238007302132015101015N000000000000N89       000560400K 10000000010000001223           
CUS0856130000108024494000         KIOKO WILFRED       5942 JOHNNYCAKE RD                      000N        CARE OF             
MTR08561300001000000000000000RA              01073312    005800950000009500000610000003NY  NNW 000                       N    
MTM0856130001073312    FROZEN                                                                                                 
RDG08561300WATRL000000004K00000000000000000000000000000000000 000000000000U         000000400  10000000010000001104           
CUS0856130000108024496005         ROUSE JOSEPH H      5944 JOHNNYCAKE RD                      000N        CARE OF             
MTR08561300001000000000000000RA              31580653    005800960000009600000520000003NN  NNW 000                       N    
RDG08561300WATRL000000004K00000000000002248007202132015100919N000000000000N89       000260400K 10000000010000002208           
CUS0856130000108413087001         BALL PRISCILLA      5946 JOHNNYCAKE RD                      000N        CARE OF             
MTR08561300001000000000000000RA              46879162    005800970000009700000520000000NN  NNW 000                       N    
RDG08561300WATRL000000004K00000000000001496007102132015100853N000000000000N89       000380400K 10000000010000001474           
CUS0856130000108405033005         BANKS MARJORIE C    5948 JOHNNYCAKE RD                      000N        CARE OF             
MTR08561300001000000000000000RA              44003116    005800980000009800000520000003NN  NNW 000                       N    
RDG08561300WATRL000000004K00000000000001913007002132015100815N000000000000N89       001500400K 10000000010000001883           
CUS0856130000108024440003         PIERCE PORTIA L     1107 KENT AVE                           000N        CARE OF             
MTR08561300001000000000000000RA              75616906    005800990000009900000350000003NN  NNW 000                       N    
RDG08561300WATRL000000004K00000000000000067002402132015090638N000000000000N89       000440400K 10000000010000000055           
CUS0856130000108428650009         TAYLOR KENNETH A    1109 KENT AVE                           000N        CARE OF             
MTR08561300001000000000000000RA              99286306    005801000000010000000570000003NN  NNW 000                       N    
RDG08561300WATRL000000004K00000000000001346006902132015100545N000000000000N89       001130400K 10000000010000001327           
CUS0856130000108024442009         JOHNSON FONDA D     1111 KENT AVE                           000N        CARE OF             
MTR08561300001000000000000000RA              36688342    005801010000010100000520000003NN  NNW 000                       N    
RDG08561300WATRL000000004K00000000000001691002902132015091028N000000000000N89       000320400K 10000000010000001665           
CUS0856130000108024443007         CHARNOCK RAYMOND J  1113 KENT AVE                           000N        CARE OF             
MTR08561300001000000000000000RA              46881390    005801020000010200000520000003NN  NNW 000                       N    
RDG08561300WATRL000000004K00000000000001569003002132015091130N000000000000N89       000620400K 10000000010000001558           
CUS0856130000108454392005         ALYSHA S ELAM       1119 KENT AVE                           000N        CARE OF             
MTR08561300001000000000000000RA              76350372    000101030000010300000350000003NN  NNW 000                       N    
RDG08561300WATRL000000004K00000000000000050003302132015091804N000000000000N89       001440400K 10000000010000000035           
CUS0856130000108454388003         RRIG CORPORATION    1121 KENT AVE                           000N        CARE OF             
MTR08561300001000000000000000RA              74816981    000101040000010400000350000003NN  NNW 000                       N    
RDG08561300WATRL000000004K00000000000000085003402132015091850N000000000000N89       000460400K 10000000010000000058           
CUS0856130000108419141000         KORNMANN ROBERT G   1125 KENT AVE                           000N        CARE OF             
MTR08561300001000000000000000RA              48591961    005801050000010500000520000000NN  NNW 000                       N    
RDG08561300WATRL000000004K00000000000001569003202132015091540N000000000000N89       001150400K 10000000010000001559           
CUS0856130000108027110009         LESLIE NORMAN J     1116 KENT AVE                           000N        CARE OF             
MTR08561300001000000000000000RA              48587968    005801060000010600000520000003NN  NNW 000                       N    
RDG08561300WATRL000000004K00000000000004949003102132015091345N000000000010N89       001350400K 10000000010000001654           
CUS0856130000108392531003         MCKIVERAND TORRE D  1112 KENT AVE                           000N        CARE OF             
MTR08561300001000000000000000RA              44089079    005801070000010700000520000003NN  NNW 000                       N    
RDG08561300WATRL000000004K00000000000003111002802132015090956N000000000000N89       000420400K 10000000010000003095           
CUS0856130000108392532001         PARHAM SHEILA D     1108 KENT AVE                           000N        CARE OF             
MTR08561300001000000000000000RA              36697868    005801080000010800000520000003NN  NNW 000                       N    
RDG08561300WATRL000000004K00000000000002314002702132015090914N000000000000N89       000920400K 10000000010000002303           
CUS0856130000108392533009         GREENE JANICE E     1106 KENT AVE                           000N        CARE OF             
MTR08561300001000000000000000RA              36697871    005801090000010900000520000003NN  NNW 000                       N    
RDG08561300WATRL000000004K00000000000002803002602132015090742N000000000000N89       000280400K 10000000010000002795           
CUS0856130000108392534007         SINGLETARY WILLIE J 1104 KENT AVE                           000N        CARE OF             
MTR08561300001000000000000000RA              36697867    005801100000011000000520000003NN  NNW 000                       N    
RDG08561300WATRL000000004K00000000000002782002502132015090714N000000000011N89       000060400K 10000000010000002771           
CUS0856130000108392535004         PINNICK EUNICE B    1102 KENT AVE                           000N        CARE OF             
MTR08561300001000000000000000RA              27816522    005801110000011100000520000003NN  NNW 000                       N    
RDG08561300WATRL000000004K00000000000000602002302132015090554N000000000000N89       001270400K 10000000010000000599           
CUS0856130000108392536002         VILLANUEVA JEIMY    6000 JOHNNYCAKE RD                      000N        CARE OF             
MTR08561300001000000000000000RA              36697866    005801120000011200000520000003NN  NNW 000                       N    
RDG08561300WATRL000000004K00000000000002720002202132015090347N000000000000N89       000840400K 10000000010000002698           
CUS0856130000108392537000         CLEMENT ELLA M      6002 JOHNNYCAKE RD                      000N        CARE OF             
MTR08561300001000000000000000RA              36698232    005801130000011300000520000003NN  NNW 000                       N    
RDG08561300WATRL000000004K00000000000003414002102132015090223N000000000000N89       001890400K 10000000010000003391           
CUS0856130000108391320002         GRIFFIN CAROLYN G   1101 MARKSWORTH RD                      000N        CARE OF             
MTR08561300001000000000000000RA              36698089    005801140000011400000520000003NN  NNW 000                       N    
RDG08561300WATRL000000004K00000000000002015002002132015085914N000000000000N89       000180400K 10000000010000002003           
CUS0856130000108391319004         BONILLA MARIA A     1103 MARKSWORTH RD                      000N        CARE OF             
MTR08561300001000000000000000RA              36694750    005801150000011500000520000003NN  NNW 000                       N    
RDG08561300WATRL000000004K00000000000004629022502132015120053N000000000000N89       000090400K 10000000010000004629           
CUS0856130000108391318006         STANLEY SHERMAN S   1105 MARKSWORTH RD                      000N        CARE OF             
MTR08561300001000000000000000RA              36694749    005801160000011600000520000003NN  NNW 000                       N    
RDG08561300WATRL000000004K00000000000004058022402132015120044N000000000000N89       000200400K 10000000010000004014           
CUS0856130000108391317008         JEFFERSON PAUL      1107 MARKSWORTH RD                      000N        CARE OF             
MTR08561300001000000000000000RA              52286205    005801170000011700000520000003NN  NNW 000                       N    
RDG08561300WATRL000000004K00000000000001604022302132015120024N000000000000N89       000130400K 10000000010000001582           
CUS0856130000108391316000         MACK BRIEN          1109 MARKSWORTH RD                      000N        CARE OF             
MTR08561300001000000000000000RA              36695412    005801180000011800000520000003NN  NNW 000                       N    
RDG08561300WATRL000000004K00000000000003411022202132015120011N000000000000N89       000470400K 10000000010000003271           
CUS0856130000108391315002         FODEL DAVID T       1111 MARKSWORTH RD                      000N        CARE OF             
MTR08561300001000000000000000RA              01113328    005801190000011900000610000003NN  NNW 000                       N    
RDG08561300WATRL000000004K00000000000000834021302132015115547N000000000000N89       001580400K 10000000010000000818           
CUS0856130000108391314005         BENNETT STEPHEN W   1113 MARKSWORTH RD                      000N        CARE OF             
MTR08561300001000000000000000RA              36695541    005801200000012000000520000003NN  NNW 000                       N    
RDG08561300WATRL000000004K00000000000003374012402132015112015N000300000010N89       000460400K 10000000010000003332           
CUS0856130000108391313007         WASHINGTON PAMELA L 1115 MARKSWORTH RD                      000N        CARE OF             
MTR08561300001000000000000000RA              36694874    005801210000012100000520000003NN  NNW 000                       N    
RDG08561300WATRL000000004K00000000000003420012302132015111929N000000000000N89       000210400K 10000000010000003369           
CUS0856130000108391321000         TILGHMAN MARLON B   1118 MARKSWORTH RD                      000N        CARE OF             
MTR08561300001000000000000000RA              36698150    005801220000012200000520000003NN  NNW 000                       N    
RDG08561300WATRL000000004K00000000000002086011902132015111747N000000000000N89       001250400K 10000000010000002075           
CUS0856130000108391322008         BROWN TYRONE        1116 MARKSWORTH RD                      000N        CARE OF             
MTR08561300001000000000000000RA              36698149    005801230000012300000520000003NN  NNW 000                       N    
RDG08561300WATRL000000004K00000000000002028012002132015111809N000000000000N89       000220400K 10000000010000002011           
CUS0856130000108391323006         SCIPIO ROBERT LOUIS 1114 MARKSWORTH RD                      000N        CARE OF             
MTR08561300001000000000000000RA              36698153    005801240000012400000520000003NN  NNW 000                       N    
RDG08561300WATRL000000004K00000000000002134012102132015111833N000000000000N89       000240400K 10000000010000002108           
CUS0856130000108391324004         BROUGHTON CHARLES   1112 MARKSWORTH RD                      000N        CARE OF             
MTR08561300001000000000000000RA              36695611    005801250000012500000520000003NN  NNW 000                       N    
RDG08561300WATRL000000004K00000000000003063012202132015111908N000000000000N89       000350400K 10000000010000003048           
CUS0856130000108391373001         JACKSON HARRY,JR    1131 BRIGADOON TRAIL                    000N        CARE OF             
MTR08561300001000000000000000RA              38887131    005801260000012600000520000003NN  NNW 000                       N    
RDG08561300WATRL000000004K00000000000003619013202132015113204N000000000000N89       000320400K 10000000010000003504           
CUS0856130000108391372003         MEKONNEN ADUGNA K   1133 BRIGADOON TRAIL                    000N        CARE OF             
MTR08561300001000000000000000RA              38887153    005801270000012700000520000003NN  NNW 000                       N    
RDG08561300WATRL000000004K00000000000003060013302132015113243N000000000000N89       000390400K 10000000010000003040           
CUS0856130000108391371005         HORSEY DWIGHT G     1135 BRIGADOON TRAIL                    000N        CARE OF             
MTR08561300001000000000000000RA              38887163    005801280000012800000520000003NN  NNW 000                       N    
RDG08561300WATRL000000004K00000000000001980013402132015113244N000000000000N89       000010400K 10000000010000001970           
CUS0856130000108391370007         CHENG LIM JUNE      1137 BRIGADOON TRL                      000N        CARE OF             
MTR08561300001000000000000000RA              01111531    005801290000012900000610000003NN  NNW 000                       N    
RDG08561300WATRL000000004K00000000000000917013502132015113305N000000000000N89       000210400K 10000000010000000897           
CUS0856130000108391369009         NIGATU ZURIASHWORK  1139 BRIGADOON TRL                      000N        CARE OF             
MTR08561300001000000000000000RA              01111529    005801300000013000000610000003NN  NNW 000                       N    
RDG08561300WATRL000000004K00000000000000668013602132015113307N000000000000N89       000020400K 10000000010000000626           
CUS0856130000108391368001         HARDING MARIO A     1141 BRIGADOON TRL                      000N        CARE OF             
MTR08561300001000000000000000RA              38887168    005801310000013100000520000003NN  NNW 000                       N    
RDG08561300WATRL000000004K00000000000002872013702132015113331N000000000010N89       000240400K 10000000010000002867           
CUS0856130000108391366005         THE NATIONAL CENTER 1143 BRIGADOON TRL                      000N        CARE OF             
MTR08561300001000000000000000RA              38887165    005801320000013200000520000003NN  NNW 000                       N    
RDG08561300WATRL000000004K00000000000004723013802132015113335N000000000000N89       000040400K 10000000010000004691           
CUS0856130000108391355008         JOHNSON JACINTH S   2 BONNIE DOON CT                        000N        CARE OF             
MTR08561300001000000000000000RA              39289617    005801330000013300000520000003NN  NNW 000                       N    
RDG08561300WATRL000000004K00000000000003893021102132015115306N000000000000N89       000220400K 10000000010000003868           
CUS0856130000108391354001         EDOZIE VICTOR       4 BONNIE DOON CT                        000N        CARE OF             
MTR08561300001000000000000000RA              39289614    005801340000013400000520000003NN  NNW 000                       N    
RDG08561300WATRL000000004K00000000000002400021202132015115309N000000000000N89       000030400K 10000000010000002362           
CUS0856130000108391353003         MARTIN DEBORAH C    6 BONNIE DOON CT                        000N        CARE OF             
MTR08561300001000000000000000RA              39289615    005801350000013500000520000003NN  NNW 000                       N    
RDG08561300WATRL000000004K00000000000001029020902132015115242N000000000000N89       000280400K 10000000010000001024           
CUS0856130000108391352005         JONES TRACEY J      8 BONNIE DOON CT                        000N        CARE OF             
MTR08561300001000000000000000RA              39289576    005801360000013600000520000003NN  NNW 000                       N    
RDG08561300WATRL000000004K00000000000004495021002132015115244N000000000000N89       000020400K 10000000010000004460           
CUS0856130000108391351007         SMITH DANA E        10 BONNIE DOON CT                       000N        CARE OF             
MTR08561300001000000000000000RA              39289613    005801370000013700000520000003NN  NNW 000                       N    
RDG08561300WATRL000000004K00000000000001505020702132015115209N000000000000N89       000250400K 10000000010000001484           
CUS0856130000108391350009         HAYES VERNICE       12 BONNIE DOON CT                       000N        CARE OF             
MTR08561300001000000000000000RA              39289474    005801380000013800000520000003NN  NNW 000                       N    
RDG08561300WATRL000000004K00000000000003612020802132015115214N000100000010N89       000050400K 10000000010000003612           
CUS0856130000108391349001         JONES WYMAN         14 BONNIE DOON CT                       000N        CARE OF             
MTR08561300001000000000000000RA              39289479    005801390000013900000520000003NN  NNW 000                       N    
RDG08561300WATRL000000004K00000000000002971020502132015115142N000000000000N89       000320400K 10000000010000002958           
CUS0856130000108391348003         MOORE CHARLOTTE ANIT16 BONNIE DOON CT                       000N        CARE OF             
MTR08561300001000000000000000RA              39289346    005801400000014000000520000003NN  NNW 000                       N    
RDG08561300WATRL000000004K00000000000003998020602132015115144N000000000000N89       000020400K 10000000010000003979           
CUS0856130000108391356006         DEBESU ABREHET T    19 BONNIE DOON CT                       000N        CARE OF             
MTR08561300001000000000000000RA              38985182    005801410000014100000520000003NN  NNW 000                       N    
RDG08561300WATRL000000004K00000000000003109020302132015115108N000000000000N89       000230400K 10000000010000003083           
CUS0856130000108391357004         SANNER JIMMIE D     17 BONNIE DOON CT                       000N        CARE OF             
MTR08561300001000000000000000RA              38985180    005801420000014200000520000003NN  NNW 000                       N    
RDG08561300WATRL000000004K00000000000001650020402132015115110N000000000000N89       000020400K 10000000010000001645           
CUS0856130000108391358002         BORUM SHANINE       15 BONNIE DOON CT                       000N        CARE OF             
MTR08561300001000000000000000RA              38985246    005801430000014300000520000003NN  NNW 000                       N    
RDG08561300WATRL000000004K00000000000002949020102132015115043N000000000000N89       000210400K 10000000010000002949           
CUS0856130000108391359000         FREEMAN LEROY T,JR  13 BONNIE DOON CT                       000N        CARE OF             
MTR08561300001000000000000000RA              38985249    005801440000014400000520000003NN  NNW 000                       N    
RDG08561300WATRL000000004K00000000000001745020202132015115045N000000000000N89       000020400K 10000000010000001735           
CUS0856130000108391360008         DILLARD JENNIFER R  11 BONNIE DOON CT                       000N        CARE OF             
MTR08561300001000000000000000RA              38984437    005801450000014500000520000003NN  NNW 000                       N    
RDG08561300WATRL000000004K00000000000001709019902132015115021N000000000000N89       000170400K 10000000010000001701           
CUS0856130000108391361006         SIVULICH KAREN ANN  9 BONNIE DOON CT                        000N        CARE OF             
MTR08561300001000000000000000RA              38985183    005801460000014600000520000003NN  NNW 000                       N    
RDG08561300WATRL000000004K00000000000001089020002132015115022N000000000000N89       000010400K 10000000010000001082           
CUS0856130000108391362004         JACKSON BENTLEY A,JR7 BONNIE DOON CT                        000N        CARE OF             
MTR08561300001000000000000000RA              38985178    005801470000014700000520000003NN  NNW 000                       N    
RDG08561300WATRL000000004K00000000000001872019702132015115003N000000000000N89       000190400K 10000000010000001858           
CUS0856130000108391363002         BOYETTE ANTWON      5 BONNIE DOON CT                        000N        CARE OF             
MTR08561300001000000000000000RA              38985179    005801480000014800000520000003NN  NNW 000                       N    
RDG08561300WATRL000000004K00000000000001840019802132015115004N000000000000N89       000010400K 10000000010000001832           
CUS0856130000108391364000         BUSH TINIA S        3 BONNIE DOON CT                        000N        CARE OF             
MTR08561300001000000000000000RA              38984709    005801490000014900000520000003NN  NNW 000                       N    
RDG08561300WATRL000000004K00000000000002668019502132015114941N000000000000N89       000620400K 10000000010000002639           
CUS0856130000108391365007         ANDING CYNTHIA D    1 BONNIE DOON CT                        000N        CARE OF             
MTR08561300001000000000000000RA              38984707    005801500000015000000520000003NN  NNW 000                       N    
RDG08561300WATRL000000004K00000000000002119019602132015114944N000000000000N89       000030400K 10000000010000002102           
CUS0856130000108395608006         GHAZNAVI MAHAJABEEN 1201 BRIGADOON TRL                      000N        CARE OF             
MTR08561300001000000000000000RA              41082501    005801510000015100000520000003NN  NNW 000                       N    
RDG08561300WATRL000000004K00000000000003112019302132015114836N000000000000N89       000300400K 10000000010000003066           
CUS0856130000108395607008         CARTER JAMES,JR     1203 BRIGADOON TRAIL                    000N        CARE OF             
MTR08561300001000000000000000RA              41082420    005801520000015200000520000003NN  NNW 000                       N    
RDG08561300WATRL000000004K00000000000003029019402132015114839N000000000000N89       000030400K 10000000010000002998           
CUS0856130000108395606000         COLLIER CAULETTE V  1205 BRIGADOON TRAIL                    000N        CARE OF             
MTR08561300001000000000000000RA              41082342    005801530000015300000520000003NN  NNW 000                       N    
RDG08561300WATRL000000004K00000000000003871019102132015114803N000000000000N89       000310400K 10000000010000003850           
CUS0856130000108395605002         IRIZARRY ABDILAS A  1207 BRIGADOON TRAIL                    000N        CARE OF             
MTR08561300001000000000000000RA              41082498    005801540000015400000520000003NN  NNW 000                       N    
RDG08561300WATRL000000004K00000000000001268019202132015114806N000000000000N89       000030400K 10000000010000001257           
CUS0856130000108395604005         ROWLETT  DAMON      1209 BRIGADOON TRAIL                    000N        CARE OF             
MTR08561300001000000000000000RA              01111341    005801550000015500000610000003NN  NNW 000                       N    
RDG08561300WATRL000000004K00000000000000780018902132015114729N000000000000N89       000190400K 10000000010000000764           
CUS0856130000108395603007         GAZI MOAZAM         1211 BRIGADOON TRAIL                    000N        CARE OF             
MTR08561300001000000000000000RA              01111339    005801560000015600000610000003NN  NNW 000                       N    
RDG08561300WATRL000000004K00000000000001255019002132015114732N000000000000N89       000030400K 10000000010000001226           
CUS0856130000108395602009         KUMAR ARUSH         1213 BRIGADOON TRAIL                    000N        CARE OF             
MTR08561300001000000000000000RA              41082432    005801570000015700000520000003NN  NNW 000                       N    
RDG08561300WATRL000000004K00000000000002332018702132015114708N000000000000N89       000300400K 10000000010000002304           
CUS0856130000108395601001         WISE YARREN C       1215 BRIGADOON TRAIL                    000N        CARE OF             
MTR08561300001000000000000000RA              41082499    005801580000015800000520000003NN  NNW 000                       N    
RDG08561300WATRL000000004K00000000000003209018802132015114710N000000000000N89       000020400K 10000000010000003148           
CUS0856130000108395600003         MEVA JOSEPH         1217 BRIGADOON TRAIL                    000N        CARE OF             
MTR08561300001000000000000000RA              41082629    005801590000015900000520000003NN  NNW 000                       N    
RDG08561300WATRL000000004K00000000000001869018602132015114638N000000000000N89       000320400K 10000000010000001828           
CUS0856130000108395599007         DIXON TERRENCE L    1219 BRIGADOON TRAIL                    000N        CARE OF             
MTR08561300001000000000000000RA              01111942    005801600000016000000610000003NN  NNW 000                       N    
RDG08561300WATRL000000004K00000000000001176018402132015114603N000400000010N89       000180400K 10000000010000001161           
CUS0856130000108395598009         CUNNINGHAM ANTHONY J1221 BRIGADOON TRAIL                    000N        CARE OF             
MTR08561300001000000000000000RA              01111938    005801610000016100000610000003NN  NNW 000                       N    
RDG08561300WATRL000000004K00000000000001597018502132015114606N000000000000N89       000030400K 10000000010000001566           
CUS0856130000108395597001         MILLER PATRICIA B   1223 BRIGADOON TRAIL                    000N        CARE OF             
MTR08561300001000000000000000RA              01111939    005801620000016200000610000003NN  NNW 000                       N    
RDG08561300WATRL000000004K00000000000000479018202132015114543N000000000000N89       000150400K 10000000010000000469           
CUS0856130000108395596003         MYERS KEITH         1225 BRIGADOON TRAIL                    000N        CARE OF             
MTR08561300001000000000000000RA              01111943    005801630000016300000610000003NN  NNW 000                       N    
RDG08561300WATRL000000004K00000000000000740018302132015114545N000000000000N89       000020400K 10000000010000000731           
CUS0856130000108395595005         CELESTIN EVANS M    1227 BRIGADOON TRAIL                    000N        CARE OF             
MTR08561300001000000000000000RA              01111936    005801640000016400000610000003NN  NNW 000                       N    
RDG08561300WATRL000000004K00000000000000667018002132015114526N000000000000N89       000320400K 10000000010000000659           
CUS0856130000108395594008         HENRY AARON LAMAR   1229 BRIGADOON TRAIL                    000N        CARE OF             
MTR08561300001000000000000000RA              01111941    005801650000016500000610000003NN  NNW 000                       N    
RDG08561300WATRL000000004K00000000000000516018102132015114528N000000000000N89       000020400K 10000000010000000503           
CUS0856130000108395593000         TEKOLA GASHEW       1231 BRIGADOON TRAIL                    000N        CARE OF             
MTR08561300001000000000000000RA              41259444    005801660000016600000520000003NN  NNW 000                       N    
RDG08561300WATRL000000004K00000000000003670017802132015114452N000000000000N89       000330400K 10000000010000003646           
CUS0856130000108395592002         FRYAR JERRY         1233 BRIGADOON TRAIL                    000N        CARE OF             
MTR08561300001000000000000000RA              41259445    005801670000016700000520000003NN  NNW 000                       N    
RDG08561300WATRL000000004K00000000000001976017902132015114454N000000000000N89       000020400K 10000000010000001965           
CUS0856130000108395585006         LEE CLEOTILDE       1235 BRIGADOON TRAIL                    000N        CARE OF             
MTR08561300001000000000000000RA              41081171    005801680000016800000520000003NN  NNW 000                       N    
RDG08561300WATRL000000004K00000000000001855017702132015114419N000000000000N89       000510400K 10000000010000001846           
CUS0856130000108395584009         MCCAULEY ROBIN A    1237 BRIGADOON TRAIL                    000N        CARE OF             
MTR08561300001000000000000000RA              41081133    005801690000016900000520000003NN  NNW 000                       N    
RDG08561300WATRL000000004K00000000000001795017502132015114326N000000000000N89       000200400K 10000000010000001775           
CUS0856130000108395583001         ALSEPH BRIAN J      1239 BRIGADOON TRAIL                    000N        CARE OF             
MTR08561300001000000000000000RA              76347469    005801700000017000000350000003NN  NNW 000                       N    
RDG08561300WATRL000000004K00000000000000031017602132015114328N000000000000N89       000020400K 10000000010000000023           
CUS0856130000108395582003         KESS RHODA L        1241 BRIGADOON TRAIL                    000N        CARE OF             
MTR08561300001000000000000000RA              41081129    005801710000017100000520000003NN  NNW 000                       N    
RDG08561300WATRL000000004K00000000000001802017302132015114303N000000000000N89       000190400K 10000000010000001795           
CUS0856130000108395581005         IBIEBLI NEMI        1243 BRIGADOON TRAIL                    000N        CARE OF             
MTR08561300001000000000000000RA              41081154    005801720000017200000520000003NN  NNW 000                       N    
RDG08561300WATRL000000004K00000000000003342017402132015114306N000000000000N89       000030400K 10000000010000003307           
CUS0856130000108395580007         GOODE JACQUELINE D  1245 BRIGADOON TRAIL                    000N        CARE OF             
MTR08561300001000000000000000RA              76347470    005801730000017300000350000003NN  NNW 000                       N    
RDG08561300WATRL000000004K00000000000000040017102132015114241N000000000000N89       000250400K 10000000010000000032           
CUS0856130000108395579009         YARBROUGH GARY      1247 BRIGADOON TRAIL                    000N        CARE OF             
MTR08561300001000000000000000RA              41081888    005801740000017400000520000003NN  NNW 000                       N    
RDG08561300WATRL000000004K00000000000001532017202132015114244N000000000000N89       000030400K 10000000010000001524           
CUS0856130000108395586004         JETER ALLEN         1224 BRIGADOON TRAIL                    000N        CARE OF             
MTR08561300001000000000000000RA              41588548    005801750000017500000520000003NN  NNW 000                       N    
RDG08561300WATRL000000004K00000000000003958017002132015114216N000000000000N89       000190400K 10000000010000003921           
CUS0856130000108395587002         DANIEL DEWANA       1222 BRIGADOON TRL                      000N        CARE OF             
MTR08561300001000000000000000RA              41588540    005801760000017600000520000003NN  NNW 000                       N    
RDG08561300WATRL000000004K00000000000002112016802132015114155N000000000000N89       000110400K 10000000010000002092           
CUS0856130000108395588000         SYKES JACQUELINE D  1220 BRIGADOON TRAIL                    000N        CARE OF             
MTR08561300001000000000000000RA              41588542    005801770000017700000520000003NN  NNW 000                       N    
RDG08561300WATRL000000004K00000000000002089016902132015114157N000000000000N89       000020400K 10000000010000002032           
CUS0856130000108395589008         THE NATIONAL CENTER 1218 BRIGADOON TRAIL                    000N        CARE OF             
MTR08561300001000000000000000RA              10017220    005801780000017800000570000003NN  NNW 000                       N    
RDG08561300WATRL000000004K00000000000000606016602132015114142N000300000020N89       000280400K 10000000010000000564           
CUS0856130000108395590006         BLACK TONI M        1216 BRIGADOON TRAIL                    000N        CARE OF             
MTR08561300001000000000000000RA              10010549    005801790000017900000570000003NN  NNW 000                       N    
RDG08561300WATRL000000004K00000000000000125016702132015114144N000000000000N89       000020400K 10000000010000000119           
CUS0856130000108395591004         HENRY JAMILLAH      1214 BRIGADOON TRAIL                    000N        CARE OF             
MTR08561300001000000000000000RA              41588599    005801800000018000000520000003NN  NNW 000                       N    
RDG08561300WATRL000000004K00000000000001481016502132015114114N000000000000N89       000440400K 10000000010000001474           
CUS0856130000108395609004         SCOFIELD, LORETTA   1212 BRIGADOON TRAIL                    000N        CARE OF             
MTR08561300001000000000000000RA              01111338    005801810000018100000610000003NN  NNW 000                       N    
RDG08561300WATRL000000004K00000000000000425016302132015114028N000300000020N89       000420400K 10000000010000000403           
CUS0856130000108395610002         HOBBS CYNTHIA       1210 BRIGADOON TRAIL                    000N        CARE OF             
MTR08561300001000000000000000RA              01111340    005801820000018200000610000003NN  NNW 000                       N    
RDG08561300WATRL000000004K00000000000001671016402132015114030N000000000000N89       000020400K 10000000010000001647           
CUS0856130000108395611000         EDWIN B TWESIGYE    1208 BRIGADOON TRAIL                    000N        CARE OF             
MTR08561300001000000000000000RA              01084511    005801830000018300000610000003NN  NNW 000                       N    
RDG08561300WATRL000000004K00000000000000755016102132015113945N000000000000N89       000170400K 10000000010000000720           
CUS0856130000108395612008         CHUNG PHUOI B & TOAN1206 BRIGADOON TRAIL                    000N        CARE OF             
MTR08561300001000000000000000RA              01084517    005801840000018400000610000003NN  NNW 000                       N    
RDG08561300WATRL000000004K00000000000001083016202132015113946N000000000000N89       000010400K 10000000010000001042           
CUS0856130000108395613006         LEMONS JAMES A,JR   1204 BRIGADOON TRAIL                    000N        CARE OF             
MTR08561300001000000000000000RA              41258952    005801850000018500000520000003NN  NNW 000                       N    
RDG08561300WATRL000000004K00000000000000854015902132015113926N000000000000N89       000150400K 10000000010000000854           
CUS0856130000108395614004         BRAILSFORD DARLENE M1202 BRIGADOON TRAIL                    000N        CARE OF             
MTR08561300001000000000000000RA              01084512    005801860000018600000610000003NN  NNW 000                       N    
RDG08561300WATRL000000004K00000000000001184016002132015113928N000000000000N89       000020400K 10000000010000001162           
CUS0856130000108395615001         FREEMAN CECILIA     1200 BRIGADOON TRAIL                    000N        CARE OF             
MTR08561300001000000000000000RA              52288688    005801870000018700000520000003NN  NNW 000                       N    
RDG08561300WATRL000000004K00000000000001899015802132015113911N000000000000N89       000480400K 10000000010000001860           
CUS0856130000108395616009         CARY WILLIE B       38 MACCONNACHY SQ                       000N        CARE OF             
MTR08561300001000000000000000RA              39923862    005801880000018800000520000003NN  NNW 000                       N    
RDG08561300WATRL000000004K00000000000001638015602132015113822N000000000000N89       000210400K 10000000010000001625           
CUS0856130000108395617007         ARNOLD TERRY        36 MACCONNACHY SQ                       000N        CARE OF             
MTR08561300001000000000000000RA              39923870    005801890000018900000520000003NN  NNW 000                       N    
RDG08561300WATRL000000004K00000000000002468015702132015113823N000000000000N89       000010400K 10000000010000002454           
CUS0856130000108395618005         COLE MELVIN L       34 MACCONNACHY SQ                       000N        CARE OF             
MTR08561300001000000000000000RA              40322168    005801900000019000000520000003NN  NNW 000                       N    
RDG08561300WATRL000000004K00000000000002213015402132015113759N000000000000N89       000210400K 10000000010000002200           
CUS0856130000108395619003         THORNTON JERVIS     32 MACCONNACHY SQ                       000N        CARE OF             
MTR08561300001000000000000000RA              39923894    005801910000019100000520000003NN  NNW 000                       N    
RDG08561300WATRL000000004K00000000000001528015502132015113801N000000000000N89       000020400K 10000000010000001518           
CUS0856130000108395620001         WATKINS PAMELA K    30 MACCONNACHY SQ                       000N        CARE OF             
MTR08561300001000000000000000RA              39924095    005801920000019200000520000003NN  NNW 000                       N    
RDG08561300WATRL000000004K00000000000002564015202132015113732N000000000000N89       000180400K 10000000010000002514           
CUS0856130000108395621009         GERALD MADDOX       28 MACCONNACHY SQ                       000N        CARE OF             
MTR08561300001000000000000000RA              39291918    005801930000019300000520000003NN  NNW 000                       N    
RDG08561300WATRL000000004K00000000000002404015302132015113738N000000000000N89       000060400K 10000000010000002392           
CUS0856130000108395622007         BROWN RALPH ALLEN SR26 MACCONNACHY SQ                       000N        CARE OF             
MTR08561300001000000000000000RA              99389209    005801940000019400000570000003NN  NNW 000                       N    
RDG08561300WATRL000000004K00000000000001469015102132015113714N000000000010N89       000350400K 10000000010000001442           
CUS0856130000108395623005         CLANTON BRONEY LEE  24 MACCONNACHY SQ                       000N        CARE OF             
MTR08561300001000000000000000RA              39291936    005801950000019500000520000003NN  NNW 000                       N    
RDG08561300WATRL000000004K00000000000002593014902132015113637N000000000000N89       000170400K 10000000010000002574           
CUS0856130000108395624003         NEVITT MARY LEE     22 MACCONNACHY SQ                       000N        CARE OF             
MTR08561300001000000000000000RA              39291934    005801960000019600000520000003NN  NNW 000                       N    
RDG08561300WATRL000000004K00000000000001039015002132015113639N000000000000N89       000020400K 10000000010000001030           
CUS0856130000108395625000         KUMAR ARUSH         20 MACCONNACHY SQ                       000N        CARE OF             
MTR08561300001000000000000000RA              39291917    005801970000019700000520000003NN  NNW 000                       N    
RDG08561300WATRL000000004K00000000000004863014702132015113613N000000000000N89       000120400K 10000000010000004855           
CUS0856130000108395626008         TAYLOR DOROTHY      18 MACCONNACHY SQ                       000N        CARE OF             
MTR08561300001000000000000000RA              39291793    005801980000019800000520000003NN  NNW 000                       N    
RDG08561300WATRL000000004K00000000000001587014802132015113620N000000000000N89       000070400K 10000000010000001571           
CUS0856130000108395627006         WHITE GARY V,JR     16 MACCONNACHY SQ                       000N        CARE OF             
MTR08561300001000000000000000RA              39291790    005801990000019900000520000003NN  NNW 000                       N    
RDG08561300WATRL000000004K00000000000004272014502132015113550N000000000000N89       000160400K 10000000010000004238           
CUS0856130000108395628004         TADESSE KEBEDE      14 MACCONNACHY SQ                       000N        CARE OF             
MTR08561300001000000000000000RA              39291956    005802000000020000000520000003NN  NNW 000                       N    
RDG08561300WATRL000000004K00000000000002463014602132015113601N000000000000N89       000110400K 10000000010000002449           
CUS0856130000108395629002         MORRISON CHARLES    12 MACCONNACHY SQ                       000N        CARE OF             
MTR08561300001000000000000000RA              39291916    005802010000020100000520000003NN  NNW 000                       N    
RDG08561300WATRL000000004K00000000000003526014302132015113532N000000000000N89       000200400K 10000000010000003488           
CUS0856130000108395630000         TRAVERS BARBARA E   10 MACCONNACHY SQ                       000N        CARE OF             
MTR08561300001000000000000000RA              39291955    005802020000020200000520000003NN  NNW 000                       N    
RDG08561300WATRL000000004K00000000000001955014402132015113534N000000000000N89       000020400K 10000000010000001948           
CUS0856130000108395631008         US BANK NATIONAL    8 MACCONNACHY SQ                        000N        CARE OF             
MTR08561300001000000000000000RA              00138246    005802030000020300000570000003NN  NNW 000                       N    
RDG08561300WATRL000000004K00000000000000753014102132015113510N000000000000N89       000330400K 10000000010000000745           
CUS0856130000108395632006         CREST WILLIAM E     6 MACCONNACHY SQ                        000N        CARE OF             
MTR08561300001000000000000000RA              39291939    005802040000020400000520000003NN  NNW 000                       N    
RDG08561300WATRL000000004K00000000000002159014202132015113512N000000000000N89       000020400K 10000000010000002139           
CUS0856130000108395633004         DORSEY GAIL F       4 MACCONNACHY SQ                        000N        CARE OF             
MTR08561300001000000000000000RA              75618092    005802050000020500000350000003NN  NNW 000                       N    
RDG08561300WATRL000000004K00000000000000126013902132015113435N000000000000N89       000600400K 10000000010000000103           
CUS0856130000108395634002         ANDERSON BONITA M   2 MACCONNACHY SQ                        000N        CARE OF             
MTR08561300001000000000000000RA              44093468    005802060000020600000520000003NN  NNW 000                       N    
RDG08561300WATRL000000004K00000000000002290014002132015113437N000000000000N89       000020400K 10000000010000002057           
CUS0856130000108391374009         WILLIAMS CHERYL C   1132 BRIGADOON TRL                      000N        CARE OF             
MTR08561300001000000000000000RA              01111336    005802070000020700000610000003NN  NNW 000                       N    
RDG08561300WATRL000000004K00000000000000475013102132015113132N000000000000N89       000170400K 10000000010000000463           
CUS0856130000108391375006         WEST KAREN M        1130 BRIGADOON TRL                      000N        CARE OF             
MTR08561300001000000000000000RA              01111344    005802080000020800000610000003NN  NNW 000                       N    
RDG08561300WATRL000000004K00000000000000831012902132015113114N000000000000N89       000270400K 10000000010000000806           
CUS0856130000108391376004         BOOZE DEVRON L      1128 BRIGADOON TRL                      000N        CARE OF             
MTR08561300001000000000000000RA              01111342    005802090000020900000610000003NN  NNW 000                       N    
RDG08561300WATRL000000004K00000000000000586013002132015113115N000000000000N89       000010400K 10000000010000000567           
CUS0856130000108391377002         MANLAPAZ ARCHEL S   1126 BRIGADOON TRL                      000N        CARE OF             
MTR08561300001000000000000000RA              36697639    005802100000021000000520000003NN  NNW 000                       N    
RDG08561300WATRL000000004K00000000000001872012702132015113046N000300000010N89       000210400K 10000000010000001825           
CUS0856130000108391378000         RICE JAMES M        1124 BRIGADOON TRL                      000N        CARE OF             
MTR08561300001000000000000000RA              36697642    005802110000021100000520000003NN  NNW 000                       N    
RDG08561300WATRL000000004K00000000000002700012802132015113047N000000000000N89       000010400K 10000000010000002693           
CUS0856130000108391379008         JASMINE A. DAVIS    1122 BRIGADOON TRL                      000N        CARE OF             
MTR08561300001000000000000000RA              01111530    005802120000021200000610000003NN  NNW 000                       N    
RDG08561300WATRL000000004K00000000000000300012502132015113024N000000000000N89       006090400K 10000000010000000295           
CUS0856130000108391380006         THOMPSON AUDREY V   1120 BRIGADOON TRL                      000N        CARE OF             
MTR08561300001000000000000000RA              01111527    005802130000021300000610000003NN  NNW 000                       N    
RDG08561300WATRL000000004K00000000000001947012602132015113025N000000000000N89       000010400K 10000000010000001923           
CUS0856130000108390608001         JACKSON CYNTHIA     1 BONNIE JEAN CT                        000N        CARE OF             
MTR08561300001000000000000000RA              01113332    005802140000021400000610000003NN  NNW 000                       N    
RDG08561300WATRL000000004K00000000000000651021402132015115622N000000000000N89       000350400K 10000000010000000633           
CUS0856130000108390606005         MEDINA JASON        3 BONNIE JEAN CT                        000N        CARE OF             
MTR08561300001000000000000000RA              01113333    005802150000021500000610000003NN  NNW 000                       N    
RDG08561300WATRL000000004K00000000000001181021502132015115625N000000000000N89       000030400K 10000000010000001149           
CUS0856130000104390603001         DULANEY STATION COMM5 BONNIE JEAN CT                        000N        CARE OF             
MTR08561300001000000000000000RA              01113331    005802160000021600000610000003NN  NNW 000                       N    
RDG08561300WATRL000000004K00000000000000839021602132015115645N000000000000N89       000200400K 10000000010000000807           
CUS0856130000108390601006         GORSUCH DONALD,JR   7 BONNIE JEAN CT                        000N        CARE OF             
MTR08561300001000000000000000RA              01113317    005802170000021700000610000003NN  NNW 000                       N    
RDG08561300WATRL000000004K00000000000000640021702132015115647N000000000000N89       000020400K 10000000010000000630           
CUS0856130000104390600007         HARRIS CLAUDE T     9 BONNIE JEAN CT                        000N        CARE OF             
MTR08561300001000000000000000RA              01113321    005802180000021800000610000003NN  NNW 000                       N    
RDG08561300WATRL000000004K00000000000000701021802132015115720N000000000000N89       000330400K 10000000010000000687           
CUS0856130000108390599002         SCOTT NORVIN J      11 BONNIE JEAN CT                       000N        CARE OF             
MTR08561300001000000000000000RA              01113325    005802190000021900000610000003NN  NNW 000                       N    
RDG08561300WATRL000000004K00000000000002650021902132015115806N000300000020N89       000460400K 10000000010000001910           
CUS0856130000108390598004         RANDOLPH BRIAN A    13 BONNIE JEAN CT                       000N        CARE OF             
MTR08561300001000000000000000RA              01113327    005802200000022000000610000003NN  NNW 000                       N    
RDG08561300WATRL000000004K00000000000000930022002132015115830N000000000000N89       000240400K 10000000010000000922           
CUS0856130000108391325001         VUKCEVICH DRAGE     1104 MARKSWORTH RD                      000N        CARE OF             
MTR08561300001000000000000000RA              01113320    005802210000022100000610000003NN  NNW 000                       N    
RDG08561300WATRL000000004K00000000000001224022102132015115924N000000000000N89       000540400K 10000000010000001190           
CUS0856130000108391326009         SCOTT HERBERT E SR  1102 MARKSWORTH RD                      000N        CARE OF             
MTR08561300001000000000000000RA              01113324    005802220000022200000610000003NN  NNW 000                       N    
RDG08561300WATRL000000004K00000000000000808022602132015120148N000000000000N89       000550400K 10000000010000000787           
CUS0856130000108391327007         NWANKWO OBIOMA A    1100 MARKSWORTH RD                      000N        CARE OF             
MTR08561300001000000000000000RA              14911446    005802230000022300000310000003NN  NNW 000                       N    
RDG08561300WATRL000000004K00000000000001401001902132015085856N000000000000N89       000200400K 10000000010000001126           
CUS0856130000108392538008         AMBROSE BRUCE M     6010 JOHNNYCAKE RD                      000N        CARE OF             
MTR08561300001000000000000000RA              36697869    005802240000022400000520000003NN  NNW 000                       N    
RDG08561300WATRL000000004K00000000000004158001802132015085836N000000000000N89       002800400K 10000000010000004120           
CUS0856130000108027009003         GREEN DAVID,JR      6101 JOHNNYCAKE RD                      000N        CARE OF             
MTR08561300001000000000000000RA              44172042    005802250000022500000520000003NN  NNW 000                       N    
RDG08561300WATRL000000004K00000000000002596001702132015085356N000000000000N89       000220400K 10000000010000002588           
CUS0856130000108027008005         YACKANICZ PAUL N    6103 JOHNNYCAKE RD                      000N        CARE OF             
MTR08561300001000000000000000RA              50477818    005802260000022600000520000003NN  NNW 000                       N    
RDG08561300WATRL000000004K00000000000001247001602132015085334N000000000000N89       001650400K 10000000010000001235           
CUS0856130000108027007007         OJO OLALEKAN        6105 JOHNNYCAKE RD                      000N        CARE OF             
MTR08561300001000000000000000RA              01079908    005802270000022700000610000003NN  NNW 000                       N    
RDG08561300WATRL000000004K00000000000001646001502132015085049N000000000000N89       000290400K 10000000010000001596           
CUS0856130000108027006009         NASIR ABBASI        6107 JOHNNYCAKE RD                      000N        CARE OF             
MTR08561300001000000000000000RA              01079903    005802280000022800000610000003NN  NNW 000                       N    
RDG08561300WATRL000000004K00000000000001097001402132015085020N000300000010N89       000400400K 10000000010000001048           
CUS0856130000108027005001         ENNIS APRIL A       6109 JOHNNYCAKE RD                      000N        CARE OF             
MTR08561300001000000000000000RA              26015935    005802290000022900000520000003NN  NNW 000                       N    
RDG08561300WATRL000000004K00000000000004918001302132015084940N000000000000N89       000390400K 10000000010000004899           
CUS0856130000108027004004         BASIT AHMED A       6111 JOHNNYCAKE RD                      000N        CARE OF             
MTR08561300001000000000000000RA              01079268    005802300000023000000610000003NN  NNW 000                       N    
RDG08561300WATRL000000004K00000000000001331001202132015084901N000000000000N89       006260400K 10000000010000001311           
CUS0856130000108027003006         BROWN JAMES M,4TH   6113 JOHNNYCAKE RD                      000N        CARE OF             
MTR08561300001000000000000000RA              01079267    005802310000023100000610000003NN  NNW 000                       N    
RDG08561300WATRL000000004K00000000000001075001102132015083835N000000000000N89       000350400K 10000000010000001049           
CUS0856130000108027002008         GANT TYEST          6115 JOHNNYCAKE RD                      000N        CARE OF             
MTR08561300001000000000000000RA              26015938    005802320000023200000520000003NN  NNW 000                       N    
RDG08561300WATRL000000004K00000000000004404001002132015083800N000000000000N89       000300400K 10000000010000004394           
CUS0856130000108027001000         AKINYEMI JOHN       6117 JOHNNYCAKE RD                      000N        CARE OF             
MTR08561300001000000000000000RA              50787351    005802330000023300000520000003NN  NNW 000                       N    
RDG08561300WATRL000000004K00000000000001878000902132015083730N000000000000N89       000290400K 10000000010000001852           
CUS0856130000108027000002         DICKERSON LAWRENCE  6119 JOHNNYCAKE RD                      000N        CARE OF             
MTR08561300001000000000000000RA              50787354    005802340000023400000520000003NN  NNW 000                       N    
RDG08561300WATRL000000004K00000000000002684000802132015083701N000000000000N89       000430400K 10000000010000002661           
CUS0856130000108026999006         WHITE KEITH R SR    6201 JOHNNYCAKE RD                      000N        CARE OF             
MTR08561300001000000000000000RA              99288078    005802350000023500000570000003NN  NNW 000                       N    
RDG08561300WATRL000000004K00000000000001660000702132015083618N000000000000N89       000520400K 10000000010000001640           
CUS0856130000108026998008         VIDAL NATHAN P      6203 JOHNNYCAKE RD                      000N        CARE OF             
MTR08561300001000000000000000RA              36696891    005802360000023600000520000003NN  NNW 000                       N    
RDG08561300WATRL000000004K00000000000002368000602132015083526N000000000000N89       000270400K 10000000010000002354           
CUS0856130000108026997000         MOORE ALFRED F,JR   6205 JOHNNYCAKE RD                      000N        CARE OF             
MTR08561300001000000000000000RA              14911205    005802370000023700000310000003NN  NNW 000                       N    
RDG08561300WATRL000000004K00000000000000490000502132015083459N000000000000N89       001000400K 10000000010000000481           
CUS0856130000108026996002         SHEELY DOROTHY B    6207 JOHNNYCAKE RD                      000N        CARE OF             
MTR08561300001000000000000000RA              23647806    005802380000023800000520000003NN  NNW 000                       N    
RDG08561300WATRL000000004K00000000000002960000102132015082948N000000000000N89       000000400K 10000000010000002950           
CUS0856130000108026995004         DIXON GINA A        6209 JOHNNYCAKE RD                      000N        CARE OF             
MTR08561300001000000000000000RA              26016020    005802390000023900000520000003NN  NNW 000                       N    
RDG08561300WATRL000000004K00000000000002612000202132015083040N000000000000N89       000520400K 10000000010000002612           
CUS0856130000108026994007         MEISEL JOSEPH C,JR  6211 JOHNNYCAKE RD                      000N        CARE OF             
MTR08561300001000000000000000RA              44172012    005802400000024000000520000003NY  NNW 000                       N    
MTM0856130044172012    FROZEN                                                                                                 
RDG08561300WATRL000000004K00000000000000000000000000000000000 000000000000U         000000400  10000000010000001427           
CUS0856130000108026993009         BRAXTON EUGENE T    6213 JOHNNYCAKE RD                      000N        CARE OF             
MTR08561300001000000000000000RA              10014190    005802410000024100000570000000NN  NNW 000                       N    
RDG08561300WATRL000000004K00000000000000325000302132015083208N000000000000N89       000880400K 10000000010000000306           
CUS0856130000108026992001         LYNCH JEAN G        6215 JOHNNYCAKE RD                      000N        CARE OF             
MTR08561300001000000000000000RA              48593236    005802420000024200000520000003NN  NNW 000                       N    
RDG08561300WATRL000000004K00000000000002530000402132015083319N000000000000N89       000710400K 10000000010000002519           
RTR08561300NN02430243000002430000000002430243000211NY024302430243001700010000000000000000000002    02022015NY020000 N         
RHD08531000NN02350235000002350000000002350235000235NY023502350235000500000000000000000000000002    01202015NY020000 N         
CUS0853100000108012051002         BROOKS HAROLD RAYMON4048 WILKENS AVE                        000N        CARE OF             
MTR08531000001000000000000000RA              36690803    005800010000000100000520000003NN  NNW 000                       N    
RDG08531000WATRL000000004K00000000000002315003901302015120521N000000000000N89       000250400K 10000000010000002300           
CUS0853100000108012052000         PARTIN LEO          4050 WILKENS AVE                        000N        CARE OF             
MTR08531000001000000000000000RA              46890711    007500020000000200000520000003NN  NNW 000                       N    
RDG08531000WATRL000000004K00000000000002085003801302015120456N000100000020N89       000440400K 10000000010000002085           
CUS0853100000108012053008         KIRK OTIS H,JR      4128 WILKENS AVE                        000N        CARE OF             
MTR08531000001000000000000000RA              54352229    005800030000000300000520000003NN  NNW 000                       N    
RDG08531000WATRL000000004K00000000000000407003701302015120412N000000000000N89       000290400K 10000000010000000407           
CUS0853100000108012054006         DILLON RAYMOND ELLIS4130 WILKENS AVE                        000N        CARE OF             
MTR08531000001000000000000000RA              41258015    005800040000000400000520000003NN  NNW 000                       N    
RDG08531000WATRL000000004K00000000000001333003601302015120343N000000000000N89       000430400K 10000000010000001325           
CUS0853100000108012055003         PASTUS GLORIA C     4132 WILKENS AVE                        000N        CARE OF             
MTR08531000001000000000000000RA              45376864    005800050000000500000520000003NN  NNW 000                       N    
RDG08531000WATRL000000004K00000000000001077003501302015120300N000000000000N89       002260400K 10000000010000001053           
CUS0853100000108012056001         DILLON RICHARD      4134 WILKENS AVE                        000N        CARE OF             
MTR08531000001000000000000000RA              01092863    005800060000000600000610000003NN  NNW 000                       N    
RDG08531000WATRL000000004K00000000000000539004001302015120639N000000000000N89       000780400K 10000000010000000539           
CUS0853100000108012057009         HARRIS TIA T        4136 WILKENS AVE                        000N        CARE OF             
MTR08531000001000000000000000RA              52289685    005800070000000700000520000003NN  NNW 000                       N    
RDG08531000WATRL000000004K00000000000002197004101302015120710N000000000000N89       000310400K 10000000010000002167           
CUS0853100000108012058007         BARTLETT RAYMOND L,J4138 WILKENS AVE                        000N        CARE OF             
MTR08531000001000000000000000RA              14902782    005800080000000800000310000003NN  NNW 000                       N    
RDG08531000WATRL000000004K00000000000001057004201302015120738N000000000000N89       000280400K 10000000010000001036           
CUS0853100000108012059005         ORMENO CELESTINO    4140 WILKENS AVE                        000N        CARE OF             
MTR08531000001000000000000000RA              36697887    005800090000000900000520000003NN  NNW 000                       N    
RDG08531000WATRL000000004K00000000000003318004301302015120757N000000000000N89       000190400K 10000000010000003288           
CUS0853100000108012060003         PARKS MICHELE L     4142 WILKENS AVE                        000N        CARE OF             
MTR08531000001000000000000000RA              33079506    005800100000001000000520000003NN  NNW 000                       N    
RDG08531000WATRL000000004K00000000000003608004401302015120822N000000000000N89       000250400K 10000000010000003585           
CUS0853100000108012061001         4144 WILKENS AVE, LL4144 WILKENS AVE                        000N        CARE OF             
MTR08531000001000000000000000RA              31936277    005800110000001100000520000003NN  NNW 000                       N    
RDG08531000WATRL000000004K00000000000002535004501302015120851N000000000010N89       000290400K 10000000010000002534           
CUS0853100000108012062009         SCELSI GREGORY S    4146 WILKENS AVE                        000N        CARE OF             
MTR08531000001000000000000000RA              33079503    005800120000001200000520000003NN  NNW 000                       N    
RDG08531000WATRL000000004K00000000000002005004601302015120904N000000000000N89       000130400K 10000000010000001981           
CUS0853100000108012063007         KELLY CAROL L       4148 WILKENS AVE                        000N        CARE OF             
MTR08531000001000000000000000RA              33079477    005800130000001300000520000003NN  NNW 000                       N    
