FHDNNNN008001347001347001347N                                                                                           004159
RHD04849000NN02030203000002030000000002030203000352YY020302030203002000040000000000000000000001    01272015NY020000 I         
CUS0484900000104395428008         COLTON ROBERT M     411 OLD NORTH POINT RD                  000N        CARE OF             
MTR04849000001000000000000000RA              39289518    005800010000000100000520000003NN  NNW 000                       N    
RDG04849000WATRL000000004K00000000000003791000501302015082527N000000000000N40       001860400K 10000000010000003779           
CUS0484900000104077239004         GILLAND KIMBERLY F  409 N POINT RD                          000N        CARE OF             
MTR04849000001000000000000000RA              45374398    005800020000000200000520000003NN  NNW 000                       N    
RDG04849000WATRL000000004K00000000000002362000601302015082719N000100000010N40       001120400K 10000000010000002362           
CUS0484900000104077240002         MUSE LEE R          407 N POINT RD                          000N        CARE OF             
MTR04849000001000000000000000RA              54348050    005800030000000300000520000003NN  NNW 000                       N    
RDG04849000WATRL000000004K00000000000002176000701302015082803N000100000010N40       000440400K 10000000010000002176           
CUS0484900000104077241000         BAISLEY HOWARD GORDO405 N POINT RD                          000N        CARE OF             
MTR04849000001000000000000000RA              10020859    005800040000000400000570000003NN  NNW 000                       N    
RDG04849000WATRL000000004K00000000000000003000801302015082833N000000000000N40       000300400K 10000000010000000003           
CUS0484900000104077242008         HOOVER JESSIE ANN   403 N POINT RD                          000N        CARE OF             
MTR04849000001000000000000000RA              24772242    005800050000000500000520000003NN  NNW 000                       N    
RDG04849000WATRL000000004K00000000000005248000901302015082945N000000000000N40       000720400K 10000000010000005228           
CUS0484900000104077243006         STEIN THERESA ANGELI311 S N POINT RD                        000N        CARE OF             
MTR04849000001000000000000000RA              45375238    005800060000000600000520000003NN  NNW 000                       N    
RDG04849000WATRL000000004K00000000000003816001001302015083028N000000000000N40       000430400K 10000000010000003791           
CUS0484900000104077244004         BRIGHTBILL CLAIR    309 S N POINT RD                        000N        CARE OF             
MTR04849000001000000000000000RA              45374399    005800070000000700000520000003NN  NNW 000                       N    
RDG04849000WATRL000000004K00000000000002275001101302015083054N000000000000N40       000260400K 10000000010000002265           
CUS0484900000104077245001         OBARR ENTERPRISES LL225 N POINT BLVD                        000N        CARE OF             
MTR04849000001000000000000000RA              34735011    000100080000000800000520000003NN  NNW 000                       N    
RDG04849000WATRL000000004K00000000000006943001201302015083532N000000000011N40       000780400K 10000000010000006924           
CUS0484900000104077246009         SHINSKY SCOTT       221 S N POINT RD                        000N        CARE OF             
MTR04849000001000000000000000RA              01102069    005800090000000900000610000003NN  NNW 000                       N    
RDG04849000WATRL000000004K00000000000006546001301302015083414N000000000000N40       001040400K 10000000010000006380           
CUS0484900000104077247007         BANGERT GEORGE J    201 S N POINT RD                        000N        CARE OF             
MTR04849000001000000000000000RA              26000412    005800100000001000000520000003NN  NNW 000                       N    
RDG04849000WATRL000000004K00000000000003711001501302015083850N000000000000N40       001150400K 10000000010000003707           
CUS0484900000102358033005         SENORAS LLC         101 N POINT BLVD                        000N        CARE OF             
MTR04849000001000000000000000RA              29994939    007500110000001100000520000003NN  NNW 000                       N    
RDG04849000WATRL000000004K00000000000007590000201302015081543N000000000000N40       000080400K 10000000010000007590           
CUS0484900000104077248005         CORNIAS HARRY M     101 OLD NORTH POINT RD                  000N        CARE OF             
MTR04849000001000000000000000RA              43904046    007500120000001200000520000003NN  NNW 000                       N    
RDG04849000WATRL000000004K00000000000002469000101302015081535N000000000000N40       000000400K 10000000010000002469           
CUS0484900000104077249003         NORTHPOINT HOLDING C7407 BALTIMORE ST                       000N        CARE OF             
MTR04849000001000000000000000RA              99288267    005800130000001300000570000003NN  NNW 000                       N    
RDG04849000WATRL000000004K00000000000000325009101302015113748N000000000010N40       000860400K 10000000010000000302           
CUS0484900000104077250001         NORTHPOINT HOLDING C7403 BALTIMORE ST                       000N        CARE OF             
MTR04849000001000000000000000RA              35098264    005800140000001400000520000003NN  NNW 000                       N    
RDG04849000WATRL000000004K00000000000003336008901302015113531N000000000000N40       000790400K 10000000010000003296           
CUS0484900000104077251009         NORTHPOINT ASSOCIATE7401 BALTIMORE ST                       000N        CARE OF             
MTR04849000001000000000000000RA              99288271    005800150000001500000570000003NN  NNW 000                       N    
RDG04849000WATRL000000004K00000000000000848009001302015113622N000000000000N40       000510400K 10000000010000000848           
CUS0484900000104077252007         JAKE & JILL PROPERTI7301 BALTIMORE ST                       000N        CARE OF             
MTR04849000001000000000000000RA              36700479    001500160000001600000520000003NN  NNW 000                       N    
RDG04849000WATRL000000005K00000000000023859008801302015113412N000300000020N40       003070500K 10000000010000022039           
CUS0484900000104077254003         BALAJI LLC          201 N POINT BLVD                        000N        CARE OF             
MTR04849000001000000000000000RA              41193812    007500170000001700000520000003NN  NNW 000                       N    
RDG04849000WATRL000000004K00000000000001912000301302015081946N000000000000N40       002430400K 10000000010000001900           
CUS0484900000104077255000         7-ELEVEN INC SITE #17201 BALTIMORE ST                       000N        CARE OF             
MTR04849000001000000000000000RA              27825863    005800180000001800000520000003NN  NNW 000                       N    
RDG04849000WATRL000000004K00000000000004543000401302015082221N000000000001N40       001550400K 10000000010000004505           
CUS0484900000104077258004         MARINO JANEY        217 N POINT BLVD                        000N        CARE OF             
MTR04849000001000000000000000RA              35099927    005800190000001900000520000003NY  NNW 000                       N    
MTM0484900035099927    CANTLOCATE                                                                                             
RDG04849000WATRL000000004K00000000000000000000000000000000000 000000000000U         000000400  10000000010000001070           
CUS0484900000104077259002         RYDER TRUCK RENTAL INWC NORTH POINT RD &                    000N        CARE OF             
MTR04849000001000000000000000RA              24598944    000100200000002000000520000003NN  NNW 000                       N    
RDG04849000WATRL000000004K00000000000002355001601302015084301N000000000010N40       002510400K 10000000010000002285           
CUS0484900000104077260000         GOETZINGER HENRY R,JNS NORTH POINT RD                       000N        CARE OF             
MTR04849000001000000000000000RA              43904290    007500210000002100000520000003NY  NNW 000                       N    
MTM0484900043904290    BURIED                                                                                                 
RDG04849000WATRL000000004K00000000000000000000000000000000000 000000000000U         000000400  10000000010000001870           
CUS0484900000104077261008         SCHULER JOSEPHINE   111 N POINT BLVD                        000N        CARE OF             
MTR04849000001000000000000000RA              29404912    005800220000002200000520000003NY  NNW 000                       N    
MTM0484900029404912    CLEANOUT                                                                                               
RDG04849000WATRL000000004K00000000000000000000000000000000000 000000000000U         000000400  10000000010000001853           
CUS0484900000104077263004         BK REALTY CO        6807 ROLLING MILL RD                    000N        CARE OF             
MTR04849000001000000000000000RA              41086118    005800230000002300000520000003NN  NNW 000                       N    
RDG04849000WATRL000000004K00000000000000724001801302015085547N000300000021N40       000740400K 10000000010000000078           
CUS0484900000106382216007         EASTPOINT MINI STORA6825 ROLLING MILL RD                    000N        CARE OF             
MTR04849000001000000000000000RA              35118640    005800240000002400000520000003NN  NNW 000                       N    
RDG04849000WATRL000000004K00000000000003734001901302015085730N000000000000N40       001030400K 10000000010000003711           
CUS0484900000104077264002         BRODY TRANSPORTATION7001 ROLLING MILL RD                    000N        CARE OF             
MTR04849000001000000000000000RA              01095611    005800250000002500000610000003NN  NNW 000   VACANT / LOT        N    
RDG04849000WATRL000000004K00000000000000000001701302015084821S022000000000N40       003200400K 10000000010000000026           
CUS0484900000108407100000         BBT REALTY LLC      7101 ROLLING MILL RD                    000N        CARE OF             
MTR04849000001000000000000000RA              44173637    005800260000002600000520000003NN  NNW 000                       N    
RDG04849000WATRL000000004K00000000000001785002001302015085958N000300000010N40       001480400K 10000000010000001779           
CUS0484900000104077267005         FISH LIPS LLC       7211 ROLLING MILL RD                    000N        CARE OF             
MTR04849000001000000000000000RA              00118367    007500270000002700000570000003NN  NNW 000                       N    
RDG04849000WATRL000000004K00000000000004266002101302015090159N000000000000N40       001210400K 10000000010000004252           
CUS0484900000104077268003         ROLLING MILL ROAD LL7215 ROLLING MILL RD                    000N        CARE OF             
MTR04849000001000000000000000RA              19463182    007500280000002800000520000003NN  NNW 000                       N    
RDG04849000WATRL000000004K00000000000007491002201302015090245N000000000000N40       000460400K 10000000010000007454           
CUS0484900000104430875007         MCCARTHY DEVELOPMENT7400 ROLLING MILL RD                    000N        CARE OF             
MTR04849000001000000000000000RA              99408494    000100290000002900000570000000NN  NNW 000                       N    
RDG04849000WATRL000000004K00000000000000934002301302015090555N000000000000N40       001900400K 10000000010000000918           
CUS0484900000104077270009         7670 CCD LLC        7668 CANTON CENTER DR                   000N        CARE OF             
MTR04849000001000000000000000RA              45375325    005800300000003000000520000003NN  NNW 000                       N    
RDG04849000WATRL000000004K00000000000000088002401302015090838N000000000000N40       001630400K 10000000010000000087           
CUS0484900000104077271007         NELSON CARL G       7645-61 CANTON CENTER DR                000N        CARE OF             
MTR04849000001000000000000000RA              46890260    007500310000003100000520000003NY  NNW 000                       N    
MTM0484900046890260    CLEANOUT                                                                                               
RDG04849000WATRL000000004K00000000000000000000000000000000000 000000000000U         000000400  10000000010000008302           
CUS0484900000104077272005         7670 CCD LLC        ES CANTON CENTER DR                     000N        CARE OF             
MTR04849000001000000000000000RA              23050392    005800320000003200000520000003NN  NNW 000                       N    
RDG04849000WATRL000000004K00000000000000071002501302015091711N000000000000N40       005130400K 10000000010000000049           
CUS0484900000104077273003         HANKINS LOUIS E     6800 ROLLING MILL RD                    000N        CARE OF             
MTR04849000001000000000000000RA              45378607    005800330000003300000520000003NN  NNW 000                       N    
RDG04849000WATRL000000004K00000000000007948002601302015092154N000000000000N40       002830400K 10000000010000007927           
CUS0484900000106285437007         HERMAN BORN & SONS I317 N NORTH POINT RD                    000N        CARE OF             
MTR04849000001000000000000000RA              14928153    007500340000003400000310000003NN  NNW 000                       N    
RDG04849000WATRL000000004K00000000000002272002701302015092405N000000000000N40       001310400K 10000000010000002024           
CUS0484900000106285442007         LOSH INVESTMENT, LLC6701 QUAD AVE                           000N        CARE OF             
MTR04849000001000000000000000RA              43904608    007500350000003500000520000003NN  NNW 000                       N    
RDG04849000WATRL000000004K00000000000004793002801302015092904N000000000000N40       002990400K 10000000010000004779           
CUS0484900000106428264003         MCGRAW BALTO, L.L.C.6711 QUAD AVE                           000N        CARE OF             
MTR04849000001000000000000000RA              99188039    005800360000003600000520000003NN  NNW 000                       N    
RDG04849000WATRL000000004K00000000000000463002901302015093142N000000000000N40       001580400K 10000000010000000460           
CUS0484900000106347546001         LOUIS J GRASMICK LUM6715 QUAD AVE                           000N        CARE OF             
MTR04849000001000000000000000RA              30001011    007500370000003700000320000003NN  NNW 000                       N    
RDG04849000WATRL000000004K00000000000000634003001302015093403N000000000010N40       001410400K 10000000010000000608           
CUS0484900000106352964008         LOUIS J. GRASMICK LU6717 QUAD AVE                           000N        CARE OF             
MTR04849000001000000000000000RA              29082470    005800380000003800000520000003NN  NNW 000                       N    
RDG04849000WATRL000000004K00000000000003428003101302015093706N000000000000N40       001830400K 10000000010000003422           
CUS0484900000104077274001         CARDINAL PROPERTIES 6811 QUAD AVE                           000N        CARE OF             
MTR04849000001000000000000000RA              44091126    005800390000003900000520000003NN  NNW 000                       N    
RDG04849000WATRL000000004K00000000000007833003201302015093916N000400000010N40       001300400K 10000000010000007811           
CUS0484900000104077276006         BALTIMORE COUNTY    7101 QUAD AVE                           000N        CARE OF             
MTR04849000001000000000000000RA              38985814    005800400000004000000520000003NN  NNW 000                       N    
RDG04849000WATRL000000004K00000000000000858003301302015094141N000000000000N40       001450400K 10000000010000000817           
CUS0484900000104077277004         SALA INVESTMENT LTD 7110 QUAD AVE                           000N        CARE OF             
MTR04849000001000000000000000RA              78028086    007500410000004100000360000003NN  NNW 000                       N    
RDG04849000WATRL000000004K00000000000000000003401302015094153N000000000000N40       000120400K 10000000010000000000           
CUS0484900000104077278002         V C R PROPERTIES    7100 QUAD AVE                           000N        CARE OF             
MTR04849000001000000000000000RA              54375010    001500420000004200000520000003NN  NNW 000                       N    
RDG04849000WATRL000000005K00000000000006164003501302015094335N000000000000N40       001020500K 10000000010000006143           
CUS0484900000104077279000         6800 QUAD AVENUE LLC6800 QUAD AVE                           000N        CARE OF             
MTR04849000001000000000000000RA              29068800    007500430000004300000520000003NN  NNW 000                       N    
RDG04849000WATRL000000004K00000000000003314003601302015094606N000000000000N40       001510400K 10000000010000003305           
CUS0484900000106408000005         WILLIANM R BONNETT  6700 QUAD AVE                           000N        CARE OF             
MTR04849000001000000000000000RA              44178587    005800440000004400000520000003NN  NNW 000                       N    
RDG04849000WATRL000000004K00000000000000115003701302015094643N000000000000N40       000370400K 10000000010000000115           
CUS0484900000106285443005         BONGIORNO, VICTOR J 6640 QUAD AVE                           000N        CARE OF             
MTR04849000001000000000000000RA              27812645    005800450000004500000520000003NN  NNW 000                       N    
RDG04849000WATRL000000004K00000000000003447008201302015112315N000000000000N40       009930400K 10000000010000003440           
CUS0484900000106285444003         YELLOTT, KINLOCH NEL6630 QUAD AVE                           000N        CARE OF             
MTR04849000001000000000000000RA              27812647    005800460000004600000520000003NN  NNW 000                       N    
RDG04849000WATRL000000004K00000000000006137008301302015112333N000000000000N40       000180400K 10000000010000006137           
CUS0484900000106285445000         YELLOTT, KINLOCH NEL6624 QUAD AVE                           000N        CARE OF             
MTR04849000001000000000000000RA              27827473    005800470000004700000520000003NY  NNW 000                       N    
MTM0484900027827473    BURIED                                                                                                 
RDG04849000WATRL000000004K00000000000003307008401302015112626N000008400000N40       001730400K 10000000010000003304           
CUS0484900000106285446008         6620 QUAD AVENUE LLC6620 QUAD AVE                           000N        CARE OF             
MTR04849000001000000000000000RA              27827472    005800480000004800000520000003NN  NNW 000                       N    
RDG04849000WATRL000000004K00000000000002525008501302015112641N000000000000N40       000150400K 10000000010000002512           
CUS0484900000106285447006         CISCO, INC.         6608-16 QUAD AVE                        000N        CARE OF             
MTR04849000001000000000000000RA              23648813    005800490000004900000520000003NN  NNW 000                       N    
RDG04849000WATRL000000004K00000000000007599008601302015112741N000000000000N40       000600400K 10000000010000007573           
CUS0484900000106285449002         BUREAU OF ENGINEERINNEC NORTH POINT RD &                    000N        CARE OF             
MTR04849000001000000000000000RA              1257014     001500500000005000000490000003NN  NNW 000                       N    
RDG04849000WATRL000000005K00000000000030361008701302015112905N000000000000N40       000840500K 10000000010000030360           
CUS0484900000106446501006         ROYAL FARMS         1501 62ND ST                            000N        CARE OF             
MTR04849000001000000000000000RA              90000335    000200510000005100000570000000NN  NNW 000                       N    
RDG04849000WATRL000000005K00000000000007026007801302015105646N000000000000N40       006380500K 10000000010000006346           
CUS0484900000104077280008         WHITE TIMOTHY,SR    1218 62ND ST                            000N        CARE OF             
MTR04849000001000000000000000RA              01079029    005800520000005200000610000003NY  NNW 000                       N    
MTM0484900001079029    DOG                                                                                                    
RDG04849000WATRL000000004K00000000000000000000000000000000000 000000000000U         000000400  10000000010000001646           
CUS0484900000104077281006         BAKER THOMAS W      1216 62ND ST                            000N        CARE OF             
MTR04849000001000000000000000RA              01080138    005800530000005300000610000003NY  NNW 000                       N    
MTM0484900001080138    CAR                                                                                                    
RDG04849000WATRL000000004K00000000000000000000000000000000000 000000000000U         000000400  10000000010000001258           
CUS0484900000104077282004         FOLIO KENNETH P,JR  1214 62ND ST                            000N        CARE OF             
MTR04849000001000000000000000RA              23055817    005800540000005400000520000003NN  NNW 000                       N    
RDG04849000WATRL000000004K00000000000002853004701302015101429N000000000000N40       001720400K 10000000010000002833           
CUS0484900000104077297002         CRAWFORD THOMAS     7027 E BIDDLE ST                        000N        CARE OF             
MTR04849000001000000000000000RA              23649216    005800550000005500000520000003NN  NNW 000                       N    
RDG04849000WATRL000000004K00000000000001831005501302015102024N000000000000N40       000350400K 10000000010000001818           
CUS0484900000104077298000         AGT MANAGEMENT LLC  7101 E BIDDLE ST                        000N        CARE OF             
MTR04849000001000000000000000RA              01097314    005800560000005600000610000003NN  NNW 000                       N    
RDG04849000WATRL000000004K00000000000000776005601302015102046N000000000000N40       000220400K 10000000010000000776           
CUS0484900000104077299008         DUTY ROBERT L       7105 E BIDDLE ST                        000N        CARE OF             
MTR04849000001000000000000000RA              44173661    005800570000005700000520000003NN  NNW 000                       N    
RDG04849000WATRL000000004K00000000000003267005701302015102121N000000000000N40       000350400K 10000000010000003253           
CUS0484900000104348590003         GILMER JIMMIE C     7113 E BIDDLE ST                        000N        CARE OF             
MTR04849000001000000000000000RA              10006339    005800580000005800000570000003NN  NNW 000                       N    
RDG04849000WATRL000000004K00000000000000595005801302015102215N000000000000N40       000540400K 10000000010000000577           
CUS0484900000104077300004         KAVANAUGH MARY ALICE7102 E BIDDLE ST                        000N        CARE OF             
MTR04849000001000000000000000RA              27819693    005800590000005900000520000003NN  NNW 000                       N    
RDG04849000WATRL000000004K00000000000003932006001302015102331N000000000000N40       000390400K 10000000010000003932           
CUS0484900000104077301002         RUBY HELEN R        7100 E BIDDLE ST                        000N        CARE OF             
MTR04849000001000000000000000RA              10002142    005800600000006000000570000003NN  NNW 000                       N    
RDG04849000WATRL000000004K00000000000000121005901302015102252N000000000010N40       000370400K 10000000010000000110           
CUS0484900000104077302000         HIRONS THOMAS D     1201 62ND ST                            000N        CARE OF             
MTR04849000001000000000000000RA              01079547    005800610000006100000610000003NN  NNW 000                       N    
RDG04849000WATRL000000004K00000000000001513005401302015101949N000000000000N40       000400400K 10000000010000001486           
CUS0484900000104077303008         DEWITT ANTHONY J    1203 62ND ST                            000N        CARE OF             
MTR04849000001000000000000000RA              39583081    005800620000006200000520000003NN  NNW 000                       N    
RDG04849000WATRL000000004K00000000000002295005301302015101909N000300000010N40       000460400K 10000000010000002279           
CUS0484900000104077304006         GURKIN LORETTA      1205 62ND ST                            000N        CARE OF             
MTR04849000001000000000000000RA              20968671    005800630000006300000520000003NN  NNW 000                       N    
RDG04849000WATRL000000004K00000000000004715005201302015101823N000000000000N40       000390400K 10000000010000004667           
CUS0484900000104077305003         PEARCE KATINA M     1207 62ND ST                            000N        CARE OF             
MTR04849000001000000000000000RA              23053247    005800640000006400000520000003NN  NNW 000                       N    
RDG04849000WATRL000000004K00000000000003544005101302015101744N000000000010N40       000610400K 10000000010000003533           
CUS0484900000104077306001         SHIPLEY JOHN F,3RD  1209 62ND ST                            000N        CARE OF             
MTR04849000001000000000000000RA              23057120    005800650000006500000520000003NN  NNW 000                       N    
RDG04849000WATRL000000004K00000000000001267005001302015101643N000000000000N40       000350400K 10000000010000001256           
CUS0484900000104077307009         SHIPLEY JOHN F,JR   1211 62ND ST                            000N        CARE OF             
MTR04849000001000000000000000RA              48589785    005800660000006600000520000003NN  NNW 000                       N    
RDG04849000WATRL000000004K00000000000001856004901302015101608N000000000000N40       000360400K 10000000010000001838           
CUS0484900000104077308007         OCHAB STEVEN M      1213 62ND ST                            000N        CARE OF             
MTR04849000001000000000000000RA              39924711    005800670000006700000520000003NN  NNW 000                       N    
RDG04849000WATRL000000004K00000000000001427004801302015101532N000000000000N40       000630400K 10000000010000001416           
CUS0484900000104077309005         SINGH HARNEK        1215 62ND ST                            000N        CARE OF             
MTR04849000001000000000000000RA              48591343    005800680000006800000520000003NN  NNW 000                       N    
RDG04849000WATRL000000004K00000000000001643004601302015101137N000000000010N40       000360400K 10000000010000001642           
CUS0484900000104077310003         CIRIGLIANO SAMUEL M,1217 62ND ST                            000N        CARE OF             
MTR04849000001000000000000000RA              23055509    005800690000006900000520000003NN  NNW 000                       N    
RDG04849000WATRL000000004K00000000000002720004501302015101101N000000000000N40       000380400K 10000000010000002709           
CUS0484900000104077311001         HARVEY WILLIAM,SR   1219 62ND ST                            000N        CARE OF             
MTR04849000001000000000000000RA              01079599    005800700000007000000610000003NN  NNW 000                       N    
RDG04849000WATRL000000004K00000000000001007004401302015101023N000000000000N40       000320400K 10000000010000000995           
CUS0484900000104077312009         CUSIMANO CHARLES E  1221 62ND ST                            000N        CARE OF             
MTR04849000001000000000000000RA              10004040    005800710000007100000570000003NN  NNW 000                       N    
RDG04849000WATRL000000004K00000000000000225004301302015100951N000000000000N40       000260400K 10000000010000000217           
CUS0484900000104077313007         JASINSKI SZCZEPAN M 1223 62ND ST                            000N        CARE OF             
MTR04849000001000000000000000RA              46877034    005800720000007200000520000003NN  NNW 000                       N    
RDG04849000WATRL000000004K00000000000001713004201302015100925N000000000000N40       000350400K 10000000010000001697           
CUS0484900000106285479009         LORRAINE D BUDDEMEYE1225 62ND ST                            000N        CARE OF             
MTR04849000001000000000000000RA              23842733    005800730000007300000520000003NN  NNW 000                       N    
RDG04849000WATRL000000004K00000000000002969004101302015100850N000000000000N40       000400400K 10000000010000002948           
CUS0484900000106285480007         COX SR., TIMOTHY D. 1227 62ND ST                            000N        CARE OF             
MTR04849000001000000000000000RA              24220878    005800740000007400000520000003NN  NNW 000                       N    
RDG04849000WATRL000000004K00000000000003364004001302015100810N000000000000N40       000380400K 10000000010000003344           
CUS0484900000106285481005         HYATT, JOHN J       1229 62ND ST                            000N        CARE OF             
MTR04849000001000000000000000RA              24220909    005800750000007500000520000003NN  NNW 000                       N    
RDG04849000WATRL000000004K00000000000003225003901302015100732N000300000020N40       000540400K 10000000010000003201           
CUS0484900000106285482003         SAYLOR, PATRICE    (1231 62ND ST                            000N        CARE OF             
MTR04849000001000000000000000RA              74688514    005800760000007600000350000003NN  NNW 000                       N    
RDG04849000WATRL000000004K00000000000000088003801302015100638N000000000000N40       011950400K 10000000010000000077           
CUS0484900000104077314005         GRAY CHARLES W      1230 63RD ST                            000N        CARE OF             
MTR04849000001000000000000000RA              01097505    005800770000007700000610000003NN  NNW 000                       N    
RDG04849000WATRL000000004K00000000000001643007701302015104608N000000000000N40       000990400K 10000000010000001632           
CUS0484900000104077315002         MIN LIN RUI         1228 63RD ST                            000N        CARE OF             
MTR04849000001000000000000000RA              23054180    005800780000007800000520000003NN  NNW 000                       N    
RDG04849000WATRL000000004K00000000000007036009401302015104602N000000000000N60       002400400K 10000000010000007005           
CUS0484900000104077316000         FLEINER ADAM J      1222 63RD ST                            000N        CARE OF             
MTR04849000001000000000000000RA              10012353    005800790000007900000570000003NN  NNW 000                       N    
RDG04849000WATRL000000004K00000000000000206007601302015104429N000000000000N40       000250400K 10000000010000000193           
CUS0484900000104077317008         MOUTANNI AICHA      1220 63RD ST                            000N        CARE OF             
MTR04849000001000000000000000RA              50787025    005800800000008000000520000003NN  NNW 000                       N    
RDG04849000WATRL000000004K00000000000001748007501302015104404N000300000010N40       001980400K 10000000010000001755           
CUS0484900000104077318006         WEBSTER DANA MARIE  1216 63RD ST                            000N        CARE OF             
MTR04849000001000000000000000RA              50791904    005800810000008100000520000003NY  NNW 000                       N    
MTM0484900050791904    CAR                                                                                                    
RDG04849000WATRL000000004K00000000000000000000000000000000000 000000000000U         000000400  10000000010000000510           
CUS0484900000104077319004         WATT STEPHEN LANCE  1214 63RD ST                            000N        CARE OF             
MTR04849000001000000000000000RA              29686681    005800820000008200000520000003NN  NNW 000                       N    
RDG04849000WATRL000000004K00000000000001625009301302015104202N000300000010N60       000750400K 10000000010000001631           
CUS0484900000104077320002         PROVENZANO JEFFREY K1212 63RD ST                            000N        CARE OF             
MTR04849000001000000000000000RA              10019386    005800830000008300000570000003NN  NNW 000                       N    
RDG04849000WATRL000000004K00000000000000264009201302015104047N000000000000N60       000680400K 10000000010000000244           
CUS0484900000104077321000         REMESCH RAYMOND K   1210 63RD ST                            000N        CARE OF             
MTR04849000001000000000000000RA              23054151    005800840000008400000520000003NN  NNW 000                       N    
RDG04849000WATRL000000004K00000000000005857007401302015104046N000000000000N40       000730400K 10000000010000005833           
CUS0484900000104077322008         POZOULAKIS CHRISTOPH1208 63RD ST                            000N        CARE OF             
MTR04849000001000000000000000RA              10012403    005800850000008500000570000003NN  NNW 000                       N    
RDG04849000WATRL000000004K00000000000000302006801302015103429N000400000010N40       000310400K 10000000010000000297           
CUS0484900000104077323006         BUDDEMEYER NORA LILL1206 63RD ST                            000N        CARE OF             
MTR04849000001000000000000000RA              23054298    005800860000008600000520000003NN  NNW 000                       N    
RDG04849000WATRL000000004K00000000000005421006701302015103358N000000000000N40       000340400K 10000000010000005409           
CUS0484900000104077324004         ONEIL CHARLES W     1204 63RD ST                            000N        CARE OF             
MTR04849000001000000000000000RA              30513182    005800870000008700000520000003NN  NNW 000                       N    
RDG04849000WATRL000000004K00000000000003951006601302015103324N000000000000N40       000440400K 10000000010000003942           
CUS0484900000104077325001         LEWIS WILLIAM S,JR  1202 63RD ST                            000N        CARE OF             
MTR04849000001000000000000000RA              11336535    005800880000008800000570000003NN  NNW 000                       N    
RDG04849000WATRL000000004K00000000000004679006501302015103240N000000000000N40       000440400K 10000000010000004650           
CUS0484900000104077326009         BURTON GENE E       1200 63RD ST                            000N        CARE OF             
MTR04849000001000000000000000RA              10012402    005800890000008900000570000003NN  NNW 000                       N    
RDG04849000WATRL000000004K00000000000000376006401302015103156N000000000000N40       000620400K 10000000010000000355           
CUS0484900000104077327007         HUNTER BRIAN R      1122 63RD ST                            000N        CARE OF             
MTR04849000001000000000000000RA              01080329    005800900000009000000610000003NN  NNW 000                       N    
RDG04849000WATRL000000004K00000000000000990006301302015103054N000000000000N40       001590400K 10000000010000000975           
CUS0484900000104077328005         BURKE ANDREW W      1102 63RD ST                            000N        CARE OF             
MTR04849000001000000000000000RA              23054126    005800910000009100000520000003NY  NNW 000                       N    
MTM0484900023054126    NOACCESSLOCKEDGATE                                                                                     
RDG04849000WATRL000000004K00000000000000000000000000000000000 000000000000U         000000400  10000000010000003230           
CUS0484900000104077329003         HALL DAVID          1100 63RD ST                            000N        CARE OF             
MTR04849000001000000000000000RA              01080391    005800920000009200000610000003NN  NNW 000                       N    
RDG04849000WATRL000000004K00000000000000722006201302015102815N000000000000N40       001740400K 10000000010000000712           
CUS0484900000104077330001         LITZ-LEGO DONNA     1101 63RD ST                            000N        CARE OF             
MTR04849000001000000000000000RA              9686740     005800930000009300000570000003NY  NNW 000                       N    
MTM048490009686740     BURIED                                                                                                 
RDG04849000WATRL000000004K00000000000000000000000000000000000 000000000000U         000000400  10000000010000004385           
CUS0484900000104077331009         KOBAL STEPHEN       1103 63RD ST                            000N        CARE OF             
MTR04849000001000000000000000RA              50477960    005800940000009400000520000003NN  NNW 000                       N    
RDG04849000WATRL000000004K00000000000002280006101302015102521N000000000000N40       001100400K 10000000010000002265           
CUS0484900000104077332007         POZOULAKIS PHILIP H 1201 63RD ST                            000N        CARE OF             
MTR04849000001000000000000000RA              10011264    005800950000009500000570000003NN  NNW 000                       N    
RDG04849000WATRL000000004K00000000000000064006901302015103534N000000000000N40       000650400K 10000000010000000061           
CUS0484900000104077333005         DIGMAN JASON BURTON 1203 63RD ST                            000N        CARE OF             
MTR04849000001000000000000000RA              30513048    005800960000009600000520000003NN  NNW 000                       N    
RDG04849000WATRL000000004K00000000000004256007001302015103611N000000000000N40       000370400K 10000000010000004221           
CUS0484900000104077334003         KOLAR DINAH LEA     1205 63RD ST                            000N        CARE OF             
MTR04849000001000000000000000RA              14909407    005800970000009700000310000003NN  NNW 000                       N    
RDG04849000WATRL000000004K00000000000000362007101302015103703N000000000000N40       000520400K 10000000010000000355           
CUS0484900000104077335000         SLAYSMAN FRANK X    1207 63RD ST                            000N        CARE OF             
MTR04849000001000000000000000RA              10012352    005800980000009800000570000003NN  NNW 000                       N    
RDG04849000WATRL000000004K00000000000000000000000000000000000 000000000000U         000000400  10000000010000000439           
CUS0484900000104077336008         BALL WILLIAM J      1211 63RD ST                            000N        CARE OF             
MTR04849000001000000000000000RA              10017654    005800990000009900000570000003NN  NNW 000   VACANT / LOT        N    
RDG04849000WATRL000000004K00000000000000000007201302015103856N000000000000N40       001130400K 10000000010000000000           
CUS0484900000104077337006         BAKER DAVID         1213 63RD ST                            000N        CARE OF             
MTR04849000001000000000000000RA              23054297    005801000000010000000520000003NN  NNW 000                       N    
RDG04849000WATRL000000004K00000000000008500009101302015103939N000000000000N60       000500400K 10000000010000008470           
CUS0484900000104077338004         PARKS MINDY H       1215 63RD ST                            000N        CARE OF             
MTR04849000001000000000000000RA              10012354    005801010000010100000570000003NN  NNW 000                       N    
RDG04849000WATRL000000004K00000000000000350009001302015103849N000000000000N60       000490400K 10000000010000000339           
CUS0484900000104077339002         MARTIN MARY         1217 63RD ST                            000N        CARE OF             
MTR04849000001000000000000000RA              44175733    005801020000010200000520000003NN  NNW 000                       N    
RDG04849000WATRL000000004K00000000000001744008901302015103800N000000000000N60       000580400K 10000000010000001738           
CUS0484900000104077340000         GLAVA MANUEL S      1219 63RD ST                            000N        CARE OF             
MTR04849000001000000000000000RA              01080324    005801030000010300000610000003NN  NNW 000                       N    
RDG04849000WATRL000000004K00000000000003134008801302015103702N000000000000N60       000980400K 10000000010000003099           
CUS0484900000104077341008         STOFFREGEN STEVEN,SR1223 63RD ST                            000N        CARE OF             
MTR04849000001000000000000000RA              30002539    007501040000010400000570000003NN  NNW 000                       N    
RDG04849000WATRL000000004K00000000000000250008701302015103524N000000000000N60       001910400K 10000000010000000236           
CUS0484900000104077342006         SIVANESWARI MALLESWA1225 63RD ST                            000N        CARE OF             
MTR04849000001000000000000000RA              14924348    005801050000010500000310000003NY  NNW 000                       N    
MTM0484900014924348    PLATE BURIED                                                                                           
RDG04849000WATRL000000004K00000000000000000000000000000000000 000000000000U         000000400  10000000010000000180           
CUS0484900000104077343004         FOSTER JOHN RUFUS   1227 63RD ST                            000N        CARE OF             
MTR04849000001000000000000000RA              41075790    005801060000010600000520000003NN  NNW 000                       N    
RDG04849000WATRL000000004K00000000000001872008601302015103213N000000000000N60       000620400K 10000000010000001860           
CUS0484900000104077344002         CAMMUE DANIEL       1231 63RD ST                            000N        CARE OF             
MTR04849000001000000000000000RA              01080392    005801070000010700000610000003NN  NNW 000                       N    
RDG04849000WATRL000000004K00000000000003848008501302015103111N000000000000N60       000530400K 10000000010000003803           
CUS0484900000104077345009         LUMARO GIOVANNI E   1233 63RD ST                            000N        CARE OF             
MTR04849000001000000000000000RA              44086823    005801080000010800000520000003NN  NNW 000   VACANT / LOT        N    
RDG04849000WATRL000000004K00000000000001524008401302015103018N000000000000N60       000930400K 10000000010000001524           
CUS0484900000104077346007         MARKLE GARY         7215 PULASKI HWY                        000N        CARE OF             
MTR04849000001000000000000000RA              33735032    005801090000010900000520000003NN  NNW 000                       N    
RDG04849000WATRL000000004K00000000000000591005101302015100433N000000000000N60       000480400K 10000000010000000589           
CUS0484900000104077347005         KESSLER STEPHEN J   5 MANOR PL                              000N        CARE OF             
MTR04849000001000000000000000RA              10004042    005801100000011000000570000003NN  NNW 000                       N    
RDG04849000WATRL000000004K00000000000000316005001302015100345N000000000000N60       000520400K 10000000010000000304           
CUS0484900000104077348003         GOVORUHK PAUL R     3 MANOR PL                              000N        CARE OF             
MTR04849000001000000000000000RA              33735094    005801110000011100000520000003NN  NNW 000                       N    
RDG04849000WATRL000000004K00000000000003173008201302015102808N000000000000N60       000830400K 10000000010000003153           
CUS0484900000104077349001         INMON RAYMOND L     1 MANOR PL                              000N        CARE OF             
MTR04849000001000000000000000RA              38985682    005801120000011200000520000003NN  NNW 000                       N    
RDG04849000WATRL000000004K00000000000003375008301302015102845N000000000000N60       000370400K 10000000010000003361           
CUS0484900000104077350009         LITZ EDWARD EUGENE  1230 64TH ST                            000N        CARE OF             
MTR04849000001000000000000000RA              14909246    005801130000011300000310000003NN  NNW 000                       N    
RDG04849000WATRL000000004K00000000000000282004901302015100253N000000000000N60       003730400K 10000000010000000282           
CUS0484900000104077351007         WATKINS YVONNE L    1228 64TH ST                            000N        CARE OF             
MTR04849000001000000000000000RA              33734961    005801140000011400000520000003NN  NNW 000                       N    
RDG04849000WATRL000000004K00000000000002755008101302015102645N000000000000N60       000590400K 10000000010000002721           
CUS0484900000104077352005         FRANK M TACIAK      1224 64TH ST                            000N        CARE OF             
MTR04849000001000000000000000RA              33734958    005801150000011500000520000003NN  NNW 000                       N    
RDG04849000WATRL000000004K00000000000002650008001302015102546N000000000000N60       000590400K 10000000010000002641           
CUS0484900000104077353003         STARR BRIAN D       1222 64TH ST                            000N        CARE OF             
MTR04849000001000000000000000RA              10004068    005801160000011600000570000003NN  NNW 000                       N    
RDG04849000WATRL000000004K00000000000000435007901302015102447N000000000000N60       000360400K 10000000010000000405           
CUS0484900000104077354001         WOLLENWEBER BRIAN L 1220 64TH ST                            000N        CARE OF             
MTR04849000001000000000000000RA              14910150    005801170000011700000310000003NN  NNW 000                       N    
RDG04849000WATRL000000004K00000000000000672007801302015102411N000000000000N60       000340400K 10000000010000000663           
CUS0484900000104077355008         LEE-MISKIMON NICOLE 1218 64TH ST                            000N        CARE OF             
MTR04849000001000000000000000RA              23053155    005801180000011800000520000003NN  NNW 000                       N    
RDG04849000WATRL000000004K00000000000004947007701302015102337N000000000000N60       000440400K 10000000010000004913           
CUS0484900000104077356006         KARCZMAREK WALTER   1216 64TH ST                            000N        CARE OF             
MTR04849000001000000000000000RA              10004037    005801190000011900000570000003NN  NNW 000                       N    
RDG04849000WATRL000000004K00000000000000206007601302015102253N000000000000N60       000350400K 10000000010000000194           
CUS0484900000104077357004         RIHA BRENT C        1212 64TH ST                            000N        CARE OF             
MTR04849000001000000000000000RA              33734903    005801200000012000000520000003NN  NNW 000                       N    
RDG04849000WATRL000000004K00000000000002611007501302015102218N000000000000N60       000340400K 10000000010000002605           
CUS0484900000104077358002         BUDDEMEYER EDWARD   1210 64TH ST                            000N        CARE OF             
MTR04849000001000000000000000RA              10017747    005801210000012100000570000003NN  NNW 000                       N    
RDG04849000WATRL000000004K00000000000000035007401302015102144N000300000010N60       000390400K 10000000010000000006           
CUS0484900000104077359000         JANOWSKI LAWRENCE F 1208 64TH ST                            000N        CARE OF             
MTR04849000001000000000000000RA              10003226    005801220000012200000570000003NN  NNW 000                       N    
RDG04849000WATRL000000004K00000000000000452007301302015102105N000000000000N60       000760400K 10000000010000000440           
CUS0484900000104077360008         JOSSELINE E. GUTIERR1206 64TH ST                            000N        CARE OF             
MTR04849000001000000000000000RA              10011320    005801230000012300000570000003NN  NNW 000                       N    
RDG04849000WATRL000000004K00000000000000205007201302015101949N000000000000N60       000350400K 10000000010000000204           
CUS0484900000104077361006         STAUBS BRIAN J      1204 64TH ST                            000N        CARE OF             
MTR04849000001000000000000000RA              40047581    005801240000012400000520000003NN  NNW 000                       N    
RDG04849000WATRL000000004K00000000000002833007101302015101914N000000000000N60       000530400K 10000000010000002806           
CUS0484900000104077362004         SHEEHAN NICOLE L    1202 64TH ST                            000N        CARE OF             
MTR04849000001000000000000000RA              23053148    005801250000012500000520000003NN  NNW 000                       N    
RDG04849000WATRL000000004K00000000000005213007001302015101821N000000000000N60       000380400K 10000000010000005196           
CUS0484900000104077363002         BOLLING WILLIAM J   1200 64TH ST                            000N        CARE OF             
MTR04849000001000000000000000RA              19459954    005801260000012600000520000003NN  NNW 000                       N    
RDG04849000WATRL000000004K00000000000004603006901302015101743N000300000010N60       000460400K 10000000010000004597           
CUS0484900000104077364000         WELLS FARGO HOME MOR1201 64TH ST                            000N        CARE OF             
MTR04849000001000000000000000RA              46878688    005801270000012700000520000003NN  NNW 000                       N    
RDG04849000WATRL000000004K00000000000002991006801302015101657N000300000010N60       000450400K 10000000010000002920           
CUS0484900000104077365007         BONOLIS ROBERT A    1203 64TH ST                            000N        CARE OF             
MTR04849000001000000000000000RA              38782142    005801280000012800000520000003NN  NNW 000                       N    
RDG04849000WATRL000000004K00000000000000679006701302015101612N000000000000N60       000450400K 10000000010000000666           
CUS0484900000104077366005         KELLEY SAMUEL R     1205 64TH ST                            000N        CARE OF             
MTR04849000001000000000000000RA              44003058    005801290000012900000520000003NN  NNW 000                       N    
RDG04849000WATRL000000004K00000000000000517006601302015101527N000000000000N60       000340400K 10000000010000000508           
CUS0484900000104077367003         WILSON CHRISTINE W,T1207 64TH ST                            000N        CARE OF             
MTR04849000001000000000000000RA              01080326    005801300000013000000610000003NN  NNW 000                       N    
RDG04849000WATRL000000004K00000000000000518006501302015101453N000000000000N60       000400400K 10000000010000000514           
CUS0484900000104077368001         MARQUESS TERESA A   1209 64TH ST                            000N        CARE OF             
MTR04849000001000000000000000RA              45379291    005801310000013100000520000003NN  NNW 000                       N    
RDG04849000WATRL000000004K00000000000001876006401302015101413N000000000000N60       000330400K 10000000010000001860           
CUS0484900000104077369009         MARQUESS TERESA A   1211 64TH ST                            000N        CARE OF             
MTR04849000001000000000000000RA              23053154    005801320000013200000520000003NN  NNW 000                       N    
RDG04849000WATRL000000004K00000000000002257006301302015101340N000400000010N60       000500400K 10000000010000002243           
CUS0484900000104077370007         MULLEN DONALD E,3RD 1213 64TH ST                            000N        CARE OF             
MTR04849000001000000000000000RA              31584639    005801330000013300000520000003NN  NNW 000                       N    
RDG04849000WATRL000000004K00000000000003253006201302015101250N000000000000N60       000320400K 10000000010000003219           
CUS0484900000104077371005         RIHA BRENT C        1215 64TH ST                            000N        CARE OF             
MTR04849000001000000000000000RA              10006337    005801340000013400000570000003NN  NNW 000                       N    
RDG04849000WATRL000000004K00000000000000342006101302015101218N000000000000N60       000350400K 10000000010000000325           
CUS0484900000104077372003         OSIFO SAMSON        1217 64TH ST                            000N        CARE OF             
MTR04849000001000000000000000RA              23053161    005801350000013500000520000003NN  NNW 000                       N    
RDG04849000WATRL000000004K00000000000004183006001302015101143N000000000000N60       000290400K 10000000010000004155           
CUS0484900000104077373001         BOGDAN ROMUALD J    1219 64TH ST                            000N        CARE OF             
MTR04849000001000000000000000RA              10003150    005801360000013600000570000003NN  NNW 000                       N    
RDG04849000WATRL000000004K00000000000000327005901302015101114N000000000000N60       000390400K 10000000010000000314           
CUS0484900000104077374009         MELENDEZ GASTON     1221 64TH ST                            000N        CARE OF             
MTR04849000001000000000000000RA              23053149    005801370000013700000520000003NN  NNW 000                       N    
RDG04849000WATRL000000004K00000000000003234005801302015101035N000000000000N60       000370400K 10000000010000003221           
CUS0484900000104077375006         THRAPPAS JAMES J    1223 64TH ST                            000N        CARE OF             
MTR04849000001000000000000000RA              23053157    005801380000013800000520000003NN  NNW 000                       N    
RDG04849000WATRL000000004K00000000000003467005701302015100958N000400000010N60       000380400K 10000000010000003466           
CUS0484900000104077376004         MANN CURTIS PAUL    1225 64TH ST                            000N        CARE OF             
MTR04849000001000000000000000RA              11335720    005801390000013900000570000003NN  NNW 000                       N    
RDG04849000WATRL000000004K00000000000004731005601302015100920N000000000000N60       000340400K 10000000010000004712           
CUS0484900000104077377002         SCHEUER TROY KENNETH1227 64TH ST                            000N        CARE OF             
MTR04849000001000000000000000RA              38983513    005801400000014000000520000003NN  NNW 000                       N    
RDG04849000WATRL000000004K00000000000002679005501302015100846N000000000000N60       001200400K 10000000010000002679           
CUS0484900000104077378000         1231 64TH STREET,LLC1231 64TH ST                            000N        CARE OF             
MTR04849000001000000000000000RA              99293331    005801410000014100000570000003NY  NNW 000                       N    
MTM0484900099293331    PLATE PAVED INTO    STREET                                                                             
RDG04849000WATRL000000004K00000000000000000000000000000000000 000000000000U         000000400  10000000010000002279           
CUS0484900000104077379008         HYATT JOTHAM        1233 64TH ST                            000N        CARE OF             
MTR04849000001000000000000000RA              48587682    005801420000014200000520000003NN  NNW 000                       N    
RDG04849000WATRL000000004K00000000000001598005401302015100646N000000000000N60       000570400K 10000000010000001579           
CUS0484900000104077380006         ARABSKI PARMAN EMILY1235 64TH ST                            000N        CARE OF             
MTR04849000001000000000000000RA              27266276    005801430000014300000520000003NN  NNW 000                       N    
RDG04849000WATRL000000004K00000000000001554005201302015100535N000000000000N60       000620400K 10000000010000001551           
CUS0484900000104077381004         KARPATHOS LLC       7301 PULASKI HWY                        000N        CARE OF             
MTR04849000001000000000000000RA              99999999    007501440000014400000620000003NN  NNW 000   FERRULE APPLIED     N    
RDG04849000WATRL000000004K00000000000000000005301302015100549S002000000000N60       000140400K 10000000010000002833           
CUS0484900000104432441006         EASTERN PLATING COMP7803 PULASKI HWY                        000N        CARE OF             
MTR04849000001000000000000000RA              01105160    001501450000014500000610000003NN  NNW 000                       N    
RDG04849000WATRL000000005K00000000000083873004701302015094741N000000000000N60       010120500K 10000000010000082921           
CUS0484900000104077382002         LANCEWOOD LLC       1212 65TH ST                            000N        CARE OF             
MTR04849000001000000000000000RA              99999999    000101460000014600000570000003NY  NNW 000   FIRE SERVICE        N    
MTM0484900099999999    CANTLOCATE                                                                                             
RDG04849000WATRL000000004K00000000000000000000000000000000000 000000000000U         000000400  10000000010000003700           
CUS0484900000104077383000         MULLAN ENTERPRISES I1100 68TH ST                            000N        CARE OF             
MTR04849000001000000000000000RA              44173659    005801470000007800010520000003NN  NNW 000                       N    
RDG04849000WATRL000000004K00000000000001807007901302015110046N000000000000N40       002400400K 10000000010000001807           
CUS0484900000104352896007         UNITED PRODUCTS DIST1200 68TH ST                            000N        CARE OF             
MTR04849000001000000000000000RA              52291642    000101480000014800000520000003NN  NNW 000                       N    
RDG04849000WATRL000000004K00000000000002803008001302015110303N000400000010N40       001370400K 10000000010000002792           
CUS0484900000104077385005         CHESAPEAKE RIM &    1211 68TH ST                            000N        CARE OF             
MTR04849000001000000000000000RA              35113641    007501490000014900000520000003NN  NNW 000                       N    
RDG04849000WATRL000000004K00000000000000965008101302015110642N000000000000N40       002190400K 10000000010000000927           
CUS0484900000104077386003         SINGH HARNEK        7400 PULASKI HWY                        000N        CARE OF             
MTR04849000001000000000000000RA              14928856    005801500000015000000310000003NN  NNW 000                       N    
RDG04849000WATRL000000004K00000000000002214000201302015080513N000000000000N60       000890400K 10000000010000002168           
CUS0484900000104077388009         N&G LLC             7400 PHILADELPHIA RD                    000N        CARE OF             
MTR04849000001000000000000000RA              24228259    005801510000015100000520000003NN  NNW 000                       N    
RDG04849000WATRL000000004K00000000000001475000101302015080344N000000000000N60       000000400K 10000000010000001470           
CUS0484900000104442410009         VALENTINE RAYMOND M 7426 PHILADELPHIA RD                    000N        CARE OF             
MTR04849000001000000000000000RA              99999999    005801520000015200000440000003NY  NNW 000                       N    
MTM0484900099999999    CANNOT LOCATE                                                                                          
RDG04849000WATRL000000004K00000000000000000000000000000000000 000000000000U         000000400  10000000010000000101           
CUS0484900000104077390005         HWANG HEUNGJU       7510 PULASKI HWY                        000N        CARE OF             
MTR04849000001000000000000000RA              37690983    000101530000015300000520000003NN  NNW 000   VACANT / LOT        N    
RDG04849000WATRL000000004K00000000000000000000401302015081223S002000000000N60       000140400K 10000000010000002521           
CUS0484900000104077391003         SMO INCORPORATED    7514 PULASKI HWY                        000N        CARE OF             
MTR04849000001000000000000000RA              37690381    007501540000015400000520000003NN  NNW 000                       N    
RDG04849000WATRL000000004K00000000000009266000301302015081209N000000000000N60       004160400K 10000000010000009218           
CUS0484900000104077392001         REITER REAL ESTATE LSS PHILADELPHIA RD                      000N        CARE OF             
MTR04849000001000000000000000RA              14930821    005801550000015500000310000003NN  NNW 000                       N    
RDG04849000WATRL000000004K00000000000000684000501302015081638N000000000000N60       002550400K 10000000010000000668           
CUS0484900000104077393009         MULLAN ENTERPRISES I7522 PULASKI HWY                        000N        CARE OF             
MTR04849000001000000000000000RA              37690997    000101560000015600000520000003NN  NNW 000                       N    
RDG04849000WATRL000000004K00000000000002226000601302015081731N000400000010N60       000530400K 10000000010000002219           
CUS0484900000104077394007         SCHISLER THOMAS E,JR7613 PHILADELPHIA RD                    000N        CARE OF             
MTR04849000001000000000000000RA              00120414    007501570000015700000570000003NN  NNW 000                       N    
RDG04849000WATRL000000004K00000000000001053000701302015081830N000000000000N60       000590400K 10000000010000001031           
CUS0484900000104077395004         REIDER RONALD CHARLE7617 PHILADELPHIA RD                    000N        CARE OF             
MTR04849000001000000000000000RA              23053759    005801580000015800000520000003NN  NNW 000                       N    
RDG04849000WATRL000000004K00000000000002729000801302015082213N000400000010N60       002230400K 10000000010000002722           
CUS0484900000104077397000         WILSYNSKI RUTH M    7623 PHILADELPHIA RD                    000N        CARE OF             
MTR04849000001000000000000000RA              01080325    005801590000015900000610000003NN  NNW 000                       N    
RDG04849000WATRL000000004K00000000000001198000901302015082522N000000000000N60       001890400K 10000000010000001186           
CUS0484900000104077398008         CHALMERS CHARLES R,J7625 PHILADELPHIA RD                    000N        CARE OF             
MTR04849000001000000000000000RA              99188735    005801600000016000000570000003NN  NNW 000                       N    
RDG04849000WATRL000000004K00000000000002606001001302015082636N000000000010N60       000740400K 10000000010000002594           
CUS0484900000104077399006         CROUSE JOANN L      7627 PHILADELPHIA RD                    000N        CARE OF             
MTR04849000001000000000000000RA              48584009    005801610000016100000520000003NN  NNW 000                       N    
RDG04849000WATRL000000004K00000000000001706001101302015082744N000000000000N60       000680400K 10000000010000001686           
CUS0484900000104077400002         BROWN, CHERIE DONIAL7701 PHILADELPHIA RD                    000N        CARE OF             
MTR04849000001000000000000000RA              23053212    005801620000016200000520000003NN  NNW 000                       N    
RDG04849000WATRL000000004K00000000000003638001201302015082843N000000000000N60       000590400K 10000000010000003616           
CUS0484900000104077401000         RUTKOWSKI WILLIAM A 7703 PHILADELPHIA RD                    000N        CARE OF             
MTR04849000001000000000000000RA              44172198    005801630000016300000520000003NN  NNW 000                       N    
RDG04849000WATRL000000004K00000000000001405001301302015082950N000000000000N60       000670400K 10000000010000001388           
CUS0484900000104077402008         ROGER D DOUGLAS     7705 PHILADELPHIA RD                    000N        CARE OF             
MTR04849000001000000000000000RA              14921396    005801640000016400000310000003NN  NNW 000                       N    
RDG04849000WATRL000000004K00000000000000421001401302015083105N000000000000N60       000750400K 10000000010000000409           
CUS0484900000104077403006         WEITZEL CHARLES E   7707 PHILADELPHIA RD                    000N        CARE OF             
MTR04849000001000000000000000RA              23053164    005801650000016500000520000003NN  NNW 000                       N    
RDG04849000WATRL000000004K00000000000002991001501302015083153N000000000000N60       000480400K 10000000010000002987           
CUS0484900000104077404004         LOVE DAVID B        7717 PHILADELPHIA RD                    000N        CARE OF             
MTR04849000001000000000000000RA              01080323    005801660000016600000610000003NN  NNW 000                       N    
RDG04849000WATRL000000004K00000000000000979001601302015083257N000000000000N60       000640400K 10000000010000000977           
CUS0484900000104077405001         JONES JAMES LUDWELL 7721 PHILADELPHIA RD                    000N        CARE OF             
MTR04849000001000000000000000RA              78008223    005801670000016700000360000003NN  NNW 000                       N    
RDG04849000WATRL000000004K00000000000000004001701302015083428N000000000010N60       000910400K 10000000010000000000           
CUS0484900000104077406009         LIMMER GREGORY J    7723 PHILADELPHIA RD                    000N        CARE OF             
MTR04849000001000000000000000RA              35103043    005801680000016800000520000003NN  NNW 000                       N    
RDG04849000WATRL000000004K00000000000003505001801302015083529N000000000000N60       000610400K 10000000010000003481           
CUS0484900000104077407007         LAKE JOHN E         SS SCHIPHORST TER                       000N        CARE OF             
MTR04849000001000000000000000RA              01097473    005801690000016900000610000003NN  NNW 000                       N    
RDG04849000WATRL000000004K00000000000002195001901302015083705N000000000000N60       000960400K 10000000010000002165           
CUS0484900000104077408005         SLEDGE DAVID M      3 SHIPHORST TER                         000N        CARE OF             
MTR04849000001000000000000000RA              50476144    005801700000017000000520000003NN  NNW 000                       N    
RDG04849000WATRL000000004K00000000000000902002001302015083800N000000000000N60       000550400K 10000000010000000902           
CUS0484900000104077409003         NGUYEN STEVEN TIN   1 SHIPHORST TER                         000N        CARE OF             
MTR04849000001000000000000000RA              14920920    005801710000017100000310000003NN  NNW 000                       N    
RDG04849000WATRL000000004K00000000000000438002101302015083839N000000000000N60       000390400K 10000000010000000438           
CUS0484900000104077410001         MANSRAM JASON       7801 PHILADELPHIA RD                    000N        CARE OF             
MTR04849000001000000000000000RA              41076331    005801720000017200000520000003NY  NNW 000                       N    
MTM0484900041076331    PLATE BURIED                                                                                           
RDG04849000WATRL000000004K00000000000000000000000000000000000 000000000000U         000000400  10000000010000001663           
CUS0484900000104077411009         EVICK REID DOUGLAS  7807 PHILADELPHIA RD                    000N        CARE OF             
MTR04849000001000000000000000RA              11337357    005801730000017300000570000003NN  NNW 000                       N    
RDG04849000WATRL000000004K00000000000001422002201302015084139N000000000000N60       001800400K 10000000010000001418           
CUS0484900000104077412007         PHILADELPHIA ROAD LL7750 PULASKI HWY                        000N        CARE OF             
MTR04849000001000000000000000RA              43905313    007501740000017400000520000003NY  NNW 000                       N    
MTM0484900043905313    PLATE BURIED                                                                                           
RDG04849000WATRL000000004K00000000000000000000000000000000000 000000000000U         000000400  10000000010000005396           
CUS0484900000104077413005         7815-23 PHILADELPHIA7817 PHILADELPHIA RD                    000N        CARE OF             
MTR04849000001000000000000000RA              10005234    005801750000017500000570000003NN  NNW 000                       N    
RDG04849000WATRL000000004K00000000000000061002301302015084539N000400000010N60       002400400K 10000000010000000060           
CUS0484900000104077414003         DONALD GEORGE FRASER7831 PHILADELPHIA RD                    000N        CARE OF             
MTR04849000001000000000000000RA              45384800    005801760000017600000520000003NN  NNW 000                       N    
RDG04849000WATRL000000004K00000000000003673002401302015084931N000000000001N60       002320400K 10000000010000003631           
CUS0484900000104353093000         VICTORY RACING PLATE1200 ROSEDALE AVE                       000N        CARE OF             
MTR04849000001000000000000000RA              46890712    007501770000017700000520000003NN  NNW 000                       N    
RDG04849000WATRL000000004K00000000000003699002501302015085013N000000000000N60       000420400K 10000000010000003679           
CUS0484900000104077415000         DELABIO RICHARD A   7900 PULASKI HWY                        000N        CARE OF             
MTR04849000001000000000000000RA              46890713    007501780000017800000520000003NN  NNW 000                       N    
RDG04849000WATRL000000004K00000000000006334002601302015085051N000400000010N60       000380400K 10000000010000006211           
CUS0484900000104077416008         BATTAGLIA JOHN JOSEP7905 PHILADELPHIA RD                    000N        CARE OF             
MTR04849000001000000000000000RA              10014433    005801790000017900000570000003NN  NNW 000                       N    
RDG04849000WATRL000000004K00000000000000199002701302015085211N000400000010N60       000800400K 10000000010000000192           
CUS0484900000104077418004         FISCHER PROPERTIES L7909 PHILADELPHIA RD                    000N        CARE OF             
MTR04849000001000000000000000RA              29072187    000101800000018000000520000003NY  NNW 000                       N    
MTM0484900029072187    PLATE BURIED                                                                                           
RDG04849000WATRL000000004K00000000000000000000000000000000000 000000000000U         000000400  10000000010000005895           
CUS0484900000104077419002         INTEGRITY INDUSTRIES7921 PHILADELPHIA RD                    000N        CARE OF             
MTR04849000001000000000000000RA              52290737    005801810000018100000520000003NN  NNW 000                       N    
RDG04849000WATRL000000004K00000000000003253002801302015090245N000000000000N60       006340400K 10000000010000003164           
CUS0484900000104077420000         MARTIN ROBERT J     7933 PHILADELPHIA RD                    000N        CARE OF             
MTR04849000001000000000000000RA              35103042    005801820000018200000520000003NN  NNW 000                       N    
RDG04849000WATRL000000004K00000000000001619002901302015090355N000000000000N60       000700400K 10000000010000001611           
CUS0484900000104077421008         DOWELL JAMES A,JR   8001 PHILADELPHIA RD                    000N        CARE OF             
MTR04849000001000000000000000RA              26007399    005801830000018300000520000003NN  NNW 000                       N    
RDG04849000WATRL000000004K00000000000001958003001302015090526N000000000000N60       000910400K 10000000010000001958           
CUS0484900000104077422006         NORINO PROPERTIES,LL8013 PHILADELPHIA RD                    000N        CARE OF             
MTR04849000001000000000000000RA              36699929    000101840000018400000520000003NN  NNW 000                       N    
RDG04849000WATRL000000004K00000000000007308003101302015090724N000000000000N60       001180400K 10000000010000007171           
CUS0484900000104077423004         NORINO PROPETIES LLCSWC PHILADELPHIA RD &                   000N        CARE OF             
MTR04849000001000000000000000RA              3633071     005801850000018500000530000003NY  NNW 000                       N    
MTM048490003633071     PLATE PAVED OVER                                                                                       
RDG04849000WATRL000000004K00000000000000000000000000000000000 000000000000U         000000400  10000000010000000228           
CUS0484900000104077424002         FULLER ANTHONY      1225 CHESACO AVE                        000N        CARE OF             
MTR04849000001000000000000000RA              36691933    005801860000018600000520000003NN  NNW 000                       N    
RDG04849000WATRL000000004K00000000000008634003201302015091040N000300000010N60       001960400K 10000000010000008647           
CUS0484900000104430518003         MANANGAN ADRIANO/RAN1223 CHESACO AVE                        000N        CARE OF             
MTR04849000001000000000000000RA              99390625    005801870000018700000570000003NN  NNW 000                       N    
RDG04849000WATRL000000004K00000000000002371003301302015091134N000000000000N60       000540400K 10000000010000002338           
CUS0484900000104077425009         KUTLIK ANITA        1221 CHESACO AVE                        000N        CARE OF             
MTR04849000001000000000000000RA              10005100    005801880000018800000570000003NN  NNW 000                       N    
RDG04849000WATRL000000004K00000000000000960003401302015091225N000000000000N60       000510400K 10000000010000000924           
CUS0484900000104077426007         SMUTEK BARBARA J    1219 CHESACO AVE                        000N        CARE OF             
MTR04849000001000000000000000RA              14916692    005801890000018900000310000003NN  NNW 000                       N    
RDG04849000WATRL000000004K00000000000000649003501302015091313N000000000000N60       000480400K 10000000010000000639           
CUS0484900000104077427005         KOBYLSKI ANTHONY    1217 CHESACO AVE                        000N        CARE OF             
MTR04849000001000000000000000RA              01080912    005801900000019000000610000003NN  NNW 000                       N    
RDG04849000WATRL000000004K00000000000000973003601302015091355N000000000000N60       000420400K 10000000010000000960           
CUS0484900000104077428003         AEM LLC             7915A PHILADELPHIA RD                   000N        CARE OF             
MTR04849000001000000000000000RA              75617234    005801910000019100000350000003NN  NNW 000                       N    
RDG04849000WATRL000000004K00000000000000094004801302015095640N000400000010N60       005390400K 10000000010000000089           
CUS0484900000104077429001         CVACH PHILIP E,2ND  1215 CHESACO AVE                        000N        CARE OF             
MTR04849000001000000000000000RA              23053163    005801920000019200000520000003NN  NNW 000                       N    
RDG04849000WATRL000000004K00000000000003024003701302015091443N000000000000N60       000480400K 10000000010000003024           
CUS0484900000104077430009         1215 CHESACO AVENUE,1213 CHESACO AVE                        000N        CARE OF             
MTR04849000001000000000000000RA              01085846    005801930000019300000610000003NN  NNW 000                       N    
RDG04849000WATRL000000004K00000000000000392003801302015091707N000000000000N60       001440400K 10000000010000000392           
CUS0484900000104077431007         CVACH PHILIP E      1211 CHESACO AVE                        000N        CARE OF             
MTR04849000001000000000000000RA              99412211    007501940000019400000570000003NN  NNW 000                       N    
RDG04849000WATRL000000004K00000000000004280003901302015091935N000400000010N60       001480400K 10000000010000004254           
CUS0484900000104077432005         CVACH PHILIP E,2ND  1209 CHESACO AV REAR                    000N        CARE OF             
MTR04849000001000000000000000RA              01081966    005801950000019500000610000003NN  NNW 000                       N    
RDG04849000WATRL000000004K00000000000000599004001302015092035N000000000000N60       000600400K 10000000010000000599           
CUS0484900000104077433003         CVACH PHILIP E,2ND  1209 CHESACO AVE                        000N        CARE OF             
MTR04849000001000000000000000RA              01081965    005801960000019600000610000003NN  NNW 000                       N    
RDG04849000WATRL000000004K00000000000001325004101302015092046N000300000010N60       000110400K 10000000010000001300           
CUS0484900000104077434001         CVACH PHILIP E,2ND  1207 CHESACO AVE                        000N        CARE OF             
MTR04849000001000000000000000RA              43905061    007501970000019700000520000003NN  NNW 000                       N    
RDG04849000WATRL000000004K00000000000002565004201302015092133N000000000000N60       000470400K 10000000010000002547           
CUS0484900000104077435008         RATAJCZAK ANTHONY   1205 CHESACO AVE                        000N        CARE OF             
MTR04849000001000000000000000RA              32176878    005801980000019800000520000003NY  NNW 000                       N    
MTM0484900032176878    PLATE BURIED ,VAC                                                                                      
RDG04849000WATRL000000004K00000000000000000000000000000000000 000000000000U         000000400  10000000010000007527           
CUS0484900000104077436006         S R & H INC         7940 PULASKI HWY                        000N        CARE OF             
MTR04849000001000000000000000RA              44087627    005801990000019900000520000003NN  NNW 000                       N    
RDG04849000WATRL000000004K00000000000005607004301302015092651N000000000001N60       001740400K 10000000010000005450           
CUS0484900000104077437004         IGBO COMMUNITY CULTU7930 PULASKI HWY                        000N        CARE OF             
MTR04849000001000000000000000RA              26375295    007502000000020000000520000003NN  NNW 000                       N    
RDG04849000WATRL000000004K00000000000009846004401302015092824N000000000000N60       000930400K 10000000010000009844           
CUS0484900000104077438002         SRB PROPERTIES LLC  7926 PULASKI HWY                        000N        CARE OF             
MTR04849000001000000000000000RA              14929019    005802010000020100000310000003NN  NNW 000                       N    
RDG04849000WATRL000000004K00000000000000448004501302015092954N000000000000N60       000900400K 10000000010000000429           
CUS0484900000104077439000         SRB PROPERTIES LLC  7916 PULASKI HWY                        000N        CARE OF             
MTR04849000001000000000000000RA              99999999    007502020000020200000620000003NN  NNW 000                       N    
RDG04849000WATRL000000004K00000000000000000004601302015093049S002000000000N60       000550400K 10000000010000006537           
CUS0484900000104077440008         GOODMAN STEPHEN     7910 PULASKI HWY                        000N        CARE OF             
MTR04849000001000000000000000RA              48587562    005802030000020300000520000003NY  NNW 000                       N    
MTM0484900048587562    MAJOR LEAK ,CALLED IN                                                                                  
RDG04849000WATRL000000004K00000000000000000000000000000000000 000000000000U         000000400  10000000010000005988           
RTR04849000NN02030203000002030000000002030203000352YY020302030203002000040000000000000000000001    01272015NY020000 I         
RHD02636500NN01670167000001670000000001670167000160NY016701670167000100000000000000000000000001    01282015NY020000 N         
CUS0263650000108404398003         RESNICK DEBRA       2 BOXRIDGE CT                           000N        CARE OF             
MTR02636500001000000000000000RA              44003051    005800010000000100000520000003NN  NNW 000                       N    
RDG02636500WATRL000000004K00000000000002305000102062015102357N000000000000NFC02     000000400K 10000000010000002289           
CUS0263650000108404399001         SELZER JOEL         4 BOXRIDGE CT                           000N        CARE OF             
MTR02636500001000000000000000RA              42810935    005800020000000200000520000003NN  NNW 000                       N    
RDG02636500WATRL000000004K00000000000003221000202062015102453N000000000000NFC02     000560400K 10000000010000003197           
CUS0263650000108404400007         STRANGER THOMAS J,2N6 BOXRIDGE CT                           000N        CARE OF             
MTR02636500001000000000000000RA              42810940    005800030000000300000520000003NN  NNW 000                       N    
RDG02636500WATRL000000004K00000000000002869000302062015102641N000000000000NFC02     001080400K 10000000010000002855           
CUS0263650000108404401005         GLASER MICHAEL H    8 BOXRIDGE CT                           000N        CARE OF             
MTR02636500001000000000000000RA              10011437    005800040000000400000570000003NN  NNW 000                       N    
RDG02636500WATRL000000004K00000000000000637000402062015102715N000000000000NFC02     000340400K 10000000010000000610           
CUS0263650000108404402003         SPERLING IRA L      10 BOXRIDGE CT                          000N        CARE OF             
MTR02636500001000000000000000RA              14902758    005800050000000500000310000003NN  NNW 000                       N    
RDG02636500WATRL000000004K00000000000001553000502062015102905N000000000001NFC02     001100400K 10000000010000001519           
CUS0263650000108404403001         FREEDMAN STANLEY PHI12 BOXRIDGE CT                          000N        CARE OF             
MTR02636500001000000000000000RA              42810941    005800060000000600000520000003NN  NNW 000                       N    
RDG02636500WATRL000000004K00000000000005931000602062015103000N000000000000NFC02     000550400K 10000000010000005888           
CUS0263650000108404404009         RASOGIANNIS URSULA C14 BOXRIDGE CT                          000N        CARE OF             
MTR02636500001000000000000000RA              42810938    005800070000000700000520000003NN  NNW 000                       N    
RDG02636500WATRL000000004K00000000000001576000702062015103056N000000000000NFC02     000560400K 10000000010000001564           
CUS0263650000108404405006         ZELL STEVEN ALEX    16 BOXRIDGE CT                          000N        CARE OF             
MTR02636500001000000000000000RA              42810939    005800080000000800000520000003NN  NNW 000                       N    
RDG02636500WATRL000000004K00000000000003828000802062015103144N000400000010NFC02     000480400K 10000000010000003820           
CUS0263650000108404411004         GOLDSTEIN JUSTAN R  18 BOXRIDGE CT                          000N        CARE OF             
MTR02636500001000000000000000RA              42810931    005800090000000900000520000003NN  NNW 000                       N    
RDG02636500WATRL000000004K00000000000002571000902062015103300N000000000000NFC02     000760400K 10000000010000002551           
CUS0263650000108404406004         FRAZER CHARLES D    20 BOXRIDGE CT                          000N        CARE OF             
MTR02636500001000000000000000RA              44003203    005800100000001000000520000003NN  NNW 000                       N    
RDG02636500WATRL000000004K00000000000003401001002062015103325N000000000000NFC02     000250400K 10000000010000003375           
CUS0263650000108404407002         GORSTAN ELLIOT      27 BOXRIDGE CT                          000N        CARE OF             
MTR02636500001000000000000000RA              44003243    005800110000001100000520000003NN  NNW 000                       N    
RDG02636500WATRL000000004K00000000000002199001102062015103353N000000000000NFC02     000280400K 10000000010000002188           
CUS0263650000108404408000         BLOOM ROBERT E      25 BOXRIDGE CT                          000N        CARE OF             
MTR02636500001000000000000000RA              44003205    005800120000001200000520000003NN  NNW 000                       N    
RDG02636500WATRL000000004K00000000000002140001202062015103430N000000000000NFC02     000370400K 10000000010000002126           
CUS0263650000108404409008         MILLER BARRY S      23 BOXRIDGE CT                          000N        CARE OF             
MTR02636500001000000000000000RA              44003245    005800130000001300000520000003NN  NNW 000                       N    
RDG02636500WATRL000000004K00000000000002518001302062015103508N000000000000NFC02     000380400K 10000000010000002497           
CUS0263650000108404410006         MATHEW ERIC         21 BOXRIDGE CT                          000N        CARE OF             
MTR02636500001000000000000000RA              44003242    005800140000001400000520000003NN  NNW 000                       N    
RDG02636500WATRL000000004K00000000000003265001402062015103551N000000000000NFC02     000430400K 10000000010000003245           
CUS0263650000108404412002         JACOBS HOWARD DAVID 19 BOXRIDGE CT                          000N        CARE OF             
MTR02636500001000000000000000RA              44089024    005800150000001500000520000003NN  NNW 000                       N    
RDG02636500WATRL000000004K00000000000004866001502062015103554N000000000000NFC02     000030400K 10000000010000004830           
CUS0263650000108404413000         LIEMAN JEFFREY      17 BOXRIDGE CT                          000N        CARE OF             
MTR02636500001000000000000000RA              32177589    005800160000001600000520000003NN  NNW 000                       N    
RDG02636500WATRL000000004K00000000000004931001602062015103644N000400000010NFC02     000500400K 10000000010000004914           
CUS0263650000108404414008         LEA GINA M          15 BOXRIDGE CT                          000N        CARE OF             
MTR02636500001000000000000000RA              44086519    005800170000001700000520000003NN  NNW 000                       N    
RDG02636500WATRL000000004K00000000000002637001702062015103703N000000000000NFC02     000190400K 10000000010000002618           
CUS0263650000108404415005         WEINSTEIN MATTHEW   11 BOXRIDGE CT                          000N        CARE OF             
MTR02636500001000000000000000RA              40779225    005800180000001800000520000003NN  NNW 000                       N    
RDG02636500WATRL000000004K00000000000003772001802062015103820N000000000010NFC02     000770400K 10000000010000003759           
CUS0263650000108404416003         LOUX IRA A          9 BOXRIDGE CT                           000N        CARE OF             
MTR02636500001000000000000000RA              44003248    005800190000001900000520000003NN  NNW 000                       N    
RDG02636500WATRL000000004K00000000000001866001902062015103922N000000000000NFC02     000620400K 10000000010000001846           
CUS0263650000108404417001         COBURN JAMES        7 BOXRIDGE CT                           000N        CARE OF             
MTR02636500001000000000000000RA              44086518    005800200000002000000520000003NN  NNW 000                       N    
RDG02636500WATRL000000004K00000000000002877007402062015114641N000000000000NFC02     000330400K 10000000010000002851           
CUS0263650000108404418009         THOMAS RALPH,JR     3 BOXRIDGE CT                           000N        CARE OF             
MTR02636500001000000000000000RA              44091578    005800210000002100000520000003NN  NNW 000                       N    
RDG02636500WATRL000000004K00000000000002799003902062015105951N000000000000NFC02     001570400K 10000000010000002785           
CUS0263650000108404419007         MEYERS ROBERT I     1 BOXRIDGE CT                           000N        CARE OF             
MTR02636500001000000000000000RA              44091632    005800220000002200000520000003NN  NNW 000                       N    
RDG02636500WATRL000000004K00000000000003984004002062015110219N000000000000NFC02     001480400K 10000000010000003957           
CUS0263650000108404634001         MITCHELL WILLIAM H,34 OLD CREEK CT                          000N        CARE OF             
MTR02636500001000000000000000RA              44086520    005800230000002300000520000003NN  NNW 000                       N    
RDG02636500WATRL000000004K00000000000003670002002062015104159N000000000000NFC02     001570400K 10000000010000003650           
CUS0263650000108404636006         GREENBERG GARY      6 OLD CREEK CT                          000N        CARE OF             
MTR02636500001000000000000000RA              01109610    005800240000002400000610000003NN  NNW 000                       N    
RDG02636500WATRL000000004K00000000000001661009102102015125700N000000000010UFC02     003590400K 10000000010000001592           
CUS0263650000108404637004         KAMENYI PAULINE WANG17A BOXRIDGE CT                         000N        CARE OF             
MTR02636500001000000000000000RA              44003536    005800250000002500000520000003NN  NNW 000                       N    
RDG02636500WATRL000000004K00000000000003253002102062015104322N000000000000NFC02     000830400K 10000000010000003210           
CUS0263650000108404638002         RANDI K BERSHAK     10 OLD CREEK CT                         000N        CARE OF             
MTR02636500001000000000000000RA              44086517    005800260000002600000520000003NN  NNW 000                       N    
RDG02636500WATRL000000004K00000000000004042002202062015104351N000000000000NFC02     000290400K 10000000010000004023           
CUS0263650000108404639000         BRIAN A TRAUB       12 OLD CREEK CT                         000N        CARE OF             
MTR02636500001000000000000000RA              44086521    005800270000002700000520000003NN  NNW 000                       N    
RDG02636500WATRL000000004K00000000000003821002302062015104426N000000000000NFC02     000350400K 10000000010000003797           
CUS0263650000108404640008         PELC ISRAEL T       14 OLD CREEK CT                         000N        CARE OF             
MTR02636500001000000000000000RA              44087880    005800280000002800000520000003NN  NNW 000                       N    
RDG02636500WATRL000000004K00000000000002259002402062015104534N000000000000NFC02     000680400K 10000000010000002251           
CUS0263650000108404641006         SNYDER JEFFREY      16 OLD CREEK CT                         000N        CARE OF             
MTR02636500001000000000000000RA              44087682    005800290000002900000520000003NN  NNW 000                       N    
RDG02636500WATRL000000004K00000000000003287002502062015104556N000000000000NFC02     000220400K 10000000010000003267           
CUS0263650000108404642004         GOODMAN MILES B     18 OLD CREEK CT                         000N        CARE OF             
MTR02636500001000000000000000RA              44087902    005800300000003000000520000003NN  NNW 000                       N    
RDG02636500WATRL000000004K00000000000003215002602062015104601N000000000000NFC02     000050400K 10000000010000003186           
CUS0263650000108404643002         STOLUSKY ANDREW J   20 OLD CREEK CT                         000N        CARE OF             
MTR02636500001000000000000000RA              14923787    005800310000003100000310000003NN  NNW 000                       N    
RDG02636500WATRL000000004K00000000000000660002702062015104629N000000000000NFC02     000280400K 10000000010000000639           
CUS0263650000108404644000         POSNER ALLAN S      22 OLD CREEK CT                         000N        CARE OF             
MTR02636500001000000000000000RA              44091576    005800320000003200000520000003NN  NNW 000                       N    
RDG02636500WATRL000000004K00000000000002866002802062015104708N000000000000NFC02     000390400K 10000000010000002860           
CUS0263650000108404645007         RABIN PHILIP B      24 OLD CREEK CT                         000N        CARE OF             
MTR02636500001000000000000000RA              44088026    005800330000003300000520000003NN  NNW 000                       N    
RDG02636500WATRL000000004K00000000000003504002902062015104741N000000000000NFC02     000330400K 10000000010000003492           
CUS0263650000108404646005         DANIEL THEISEN      26 OLD CREEK CT                         000N        CARE OF             
MTR02636500001000000000000000RA              00138505    005800340000003400000570000003NN  NNW 000                       N    
RDG02636500WATRL000000004K00000000000001990003002062015104832N000300000010NFC02     000510400K 10000000010000001971           
CUS0263650000108404647003         HARGEST TODD E      28 OLD CREEK CT                         000N        CARE OF             
MTR02636500001000000000000000RA              44088861    005800350000003500000520000003NN  NNW 000                       N    
RDG02636500WATRL000000004K00000000000003519007502062015114718N000000000000NFC02     000370400K 10000000010000003505           
CUS0263650000108404648001         COLLINS CRAIG G     30 OLD CREEK CT                         000N        CARE OF             
MTR02636500001000000000000000RA              44087168    005800360000003600000520000003NN  NNW 000                       N    
RDG02636500WATRL000000004K00000000000003913003102062015105005N000000000000NFC02     000930400K 10000000010000003890           
CUS0263650000108404649009         INNA OLSHANSBY      32 OLD CREEK CT                         000N        CARE OF             
MTR02636500001000000000000000RA              45379620    005800370000003700000520000003NN  NNW 000                       N    
RDG02636500WATRL000000004K00000000000002562003202062015105105N000000000000NFC02     000600400K 10000000010000002546           
CUS0263650000108404650007         MOROZ LINA          34 OLD CREEK CT                         000N        CARE OF             
MTR02636500001000000000000000RA              44089276    005800380000003800000520000003NN  NNW 000                       N    
RDG02636500WATRL000000004K00000000000002074003302062015105115N000000000000NFC02     000100400K 10000000010000002063           
CUS0263650000104406641003         SMELKINSON JEFFREY  25 OLD CREEK CT                         000N        CARE OF             
MTR02636500001000000000000000RA              44092241    005800390000003900000520000003NN  NNW 000                       N    
RDG02636500WATRL000000004K00000000000003148004602062015111002N000000000000NFC02     000930400K 10000000010000003133           
CUS0263650000104406640005         SILVER STEPHEN DAVID23 OLD CREEK CT                         000N        CARE OF             
MTR02636500001000000000000000RA              44091628    005800400000004000000520000003NN  NNW 000                       N    
RDG02636500WATRL000000004K00000000000003371004502062015110829N000000000000NFC02     000460400K 10000000010000003356           
CUS0263650000108404651005         KRENGEL CHARLES R   21 OLD CREEK CT                         000N        CARE OF             
MTR02636500001000000000000000RA              44090739    005800410000004100000520000003NN  NNW 000                       N    
RDG02636500WATRL000000004K00000000000003064003402062015105323N000000000000NFC02     001280400K 10000000010000003043           
CUS0263650000108404652003         BONDROFF STEPHEN    19 OLD CREEK CT                         000N        CARE OF             
MTR02636500001000000000000000RA              77989152    005800420000004200000350000003NN  NNW 000                       N    
RDG02636500WATRL000000004K00000000000000016003502062015105422N000000000010NFC02     000590400K 10000000010000000000           
CUS0263650000104406639007         ROTHOUSE HOWARD     17 OLD CREEK CT                         000N        CARE OF             
MTR02636500001000000000000000RA              99390790    005800430000004300000570000003NN  NNW 000                       N    
RDG02636500WATRL000000004K00000000000001507004402062015110743N000000000000NFC02     000550400K 10000000010000001482           
CUS0263650000104406638009         MERWITZ JONATHAN A  15 OLD CREEK CT                         000N        CARE OF             
MTR02636500001000000000000000RA              44091574    005800440000004400000520000003NN  NNW 000                       N    
RDG02636500WATRL000000004K00000000000003228004302062015110648N000000000000NFC02     000490400K 10000000010000003211           
CUS0263650000108404653001         FRIEDMAN STANLEY    11 OLD CREEK CT                         000N        CARE OF             
MTR02636500001000000000000000RA              50790865    005800450000004500000520000003NN  NNW 000                       N    
RDG02636500WATRL000000004K00000000000002513003602062015105527N000000000000NFC02     000650400K 10000000010000002487           
CUS0263650000108404654009         COPPEL STEVEN       9 OLD CREEK CT                          000N        CARE OF             
MTR02636500001000000000000000RA              44092244    005800460000004600000520000003NN  NNW 000                       N    
RDG02636500WATRL000000004K00000000000003688003702062015105636N000000000000NFC02     000690400K 10000000010000003669           
CUS0263650000104406637001         KLEIN KELLY M       7 OLD CREEK CT                          000N        CARE OF             
MTR02636500001000000000000000RA              44092228    005800470000004700000520000003NN  NNW 000                       N    
RDG02636500WATRL000000004K00000000000003949004202062015110559N000000000000NFC02     000540400K 10000000010000003906           
CUS0263650000104406636003         HEYWARD-WEST KAREN  5 OLD CREEK CT                          000N        CARE OF             
MTR02636500001000000000000000RA              44091577    005800480000004800000520000003NN  NNW 000                       N    
RDG02636500WATRL000000004K00000000000003304004102062015110505N000000000000NFC02     001660400K 10000000010000003278           
CUS0263650000108404655006         TAYLOR ALLAN M      3 OLD CREEK CT                          000N        CARE OF             
MTR02636500001000000000000000RA              44091575    005800490000004900000520000003NN  NNW 000                       N    
RDG02636500WATRL000000004K00000000000002657003802062015105714N000000000000NFC02     000380400K 10000000010000002646           
CUS0263650000108405715007         MATESKY JOEL B      1 GOLDEN GRASS CT                       000N        CARE OF             
MTR02636500001000000000000000RA              44178911    005800500000005000000520000003NN  NNW 000                       N    
RDG02636500WATRL000000004K00000000000002380007002062015113924N000400000010NFC02     000340400K 10000000010000002378           
CUS0263650000108405725006         DIAMOND RICHARD ALAN3 GOLDEN GRASS CT                       000N        CARE OF             
MTR02636500001000000000000000RA              50786021    005800510000005100000520000003NN  NNW 000                       N    
RDG02636500WATRL000000004K00000000000004711006902062015113850N000000000000NFC02     000880400K 10000000010000004689           
CUS0263650000108405726004         MECHAK MICHAEL      5 GOLDEN GRASS CT                       000N        CARE OF             
