FHDNNNN001000205000205000205N                                                                                           000623
RHD04747000NN02050205000002050000000002050205000237NY020502050205000300030000000000000000000001    01222015NY020000 N         
CUS0474700000104131849004         LOCH RAVEN METH CHUR6622 LOCH RAVEN BLVD                    000N        CARE OF             
MTR04747000001000000000000000RA              35101298    001500010000000100000520000003NN  NNW 000                       N    
RDG04747000WATRL000000005K00000000000007265000102042015081835N000000000011N40       001280500K 10000000010000007231           
CUS0474700000104131850002         BALTIMORE COUNTY MAR6630 LOCH RAVEN BLVD                    000N        CARE OF             
MTR04747000001000000000000000RA              36699658    000100020000000200000520000003NN  NNW 000                       N    
RDG04747000WATRL000000004K00000000000009422000202042015081455N000000000000N40       000250400K 10000000010000009378           
CUS0474700000104131851000         FARAONE HENRY JOSEPH6628 LOCH RAVEN BLVD                    000N        CARE OF             
MTR04747000001000000000000000RA              26017849    005800030000000300000520000003NN  NNW 000                       N    
RDG04747000WATRL000000004K00000000000002471000302042015081604N000300000010N40       000690400K 10000000010000002449           
CUS0474700000104131852008         TURNER ROSALYN      6626 LOCH RAVEN BLVD                    000N        CARE OF             
MTR04747000001000000000000000RA              29679192    005800040000000400000520000003NN  NNW 000                       N    
RDG04747000WATRL000000004K00000000000002489000402042015081627N000000000000N40       000230400K 10000000010000002472           
CUS0474700000104131853006         SIMON DAVID LYNN    1420 GLENDALE RD                        000N        CARE OF             
MTR04747000001000000000000000RA              33733904    005800050000000500000520000003NN  NNW 000                       N    
RDG04747000WATRL000000004K00000000000003680000502042015081916N000100000010N40       000410400K 10000000010000003680           
CUS0474700000104131854004         BABALOLA STELLA     1418 GLENDALE RD                        000N        CARE OF             
MTR04747000001000000000000000RA              33732834    005800060000000600000520000003NN  NNW 000                       N    
RDG04747000WATRL000000004K00000000000002070000602042015082045N000000000000N40       000890400K 10000000010000002041           
CUS0474700000104131855001         WOOLHISER SUSAN     1416 GLENDALE RD                        000N        CARE OF             
MTR04747000001000000000000000RA              33081423    005800070000000700000520000003NN  NNW 000                       N    
RDG04747000WATRL000000004K00000000000002065000702042015082107N000000000000N40       000220400K 10000000010000002054           
CUS0474700000104131856009         KUTA DORIS S        6701 CANONGATE RD                       000N        CARE OF             
MTR04747000001000000000000000RA              10005772    005800080000000800000570000003NN  NNW 000                       N    
RDG04747000WATRL000000004K00000000000000413000802042015082137N000000000000N40       000300400K 10000000010000000404           
CUS0474700000104131857007         HONGJIE MENG        6703 CANONGATE RD                       000N        CARE OF             
MTR04747000001000000000000000RA              27266384    005800090000000900000520000003NN  NNW 000                       N    
RDG04747000WATRL000000004K00000000000004061000902042015082235N000000000000N40       000580400K 10000000010000004025           
CUS0474700000104131858005         ELLIS DANIEL T      6705 CANONGATE RD                       000N        CARE OF             
MTR04747000001000000000000000RA              23052967    005800100000001000000520000003NN  NNW 000                       N    
RDG04747000WATRL000000004K00000000000005372001002042015082256N000000000000N40       000210400K 10000000010000005351           
CUS0474700000104131859003         BALTIMORE COUNTY MARES CONNONGATE RD 290 FT                 000N        CARE OF             
MTR04747000001000000000000000RA              99410854    000100110000001100000570000003NN  NNW 000   FERRULE APPLIED     N    
RDG04747000WATRL000000004K00000000000000011001102042015082259N000000000000N40       000030400K 10000000010000000011           
CUS0474700000104131860001         PRATT DARREN G      6710 CANONGATE RD                       000N        CARE OF             
MTR04747000001000000000000000RA              39289677    005800120000001200000520000003NN  NNW 000                       N    
RDG04747000WATRL000000004K00000000000000000001202042015082300N000000000000N40       000010400K 10000000010000000000           
CUS0474700000104131861009         CHAD MORREAU        6704 CANONGATE RD                       000N        CARE OF             
MTR04747000001000000000000000RA              33732835    005800130000001300000520000003NN  NNW 000                       N    
RDG04747000WATRL000000004K00000000000001523001302042015082338N000000000000N40       000380400K 10000000010000001499           
CUS0474700000104131862007         FORRESTER OLIVER J  6702 CANONGATE RD                       000N        CARE OF             
MTR04747000001000000000000000RA              23052906    005800140000001400000520000003NN  NNW 000                       N    
RDG04747000WATRL000000004K00000000000004342001402042015082436N000000000000N40       000580400K 10000000010000004304           
CUS0474700000104131863005         HAWKINS CHERYL      6700 CANONGATE RD                       000N        CARE OF             
MTR04747000001000000000000000RA              24766159    005800150000001500000520000003NN  NNW 000                       N    
RDG04747000WATRL000000004K00000000000005248001502042015082555N000000000000N40       000790400K 10000000010000005235           
CUS0474700000104131864003         NALTY GLENDA        1404 GLENDALE RD                        000N        CARE OF             
MTR04747000001000000000000000RA              33732833    005800160000001600000520000003NN  NNW 000                       N    
RDG04747000WATRL000000004K00000000000002286001602042015082720N000000000000N40       000850400K 10000000010000002271           
CUS0474700000104131865000         PATENAUDE EARLINE J 1402 GLENDALE RD                        000N        CARE OF             
MTR04747000001000000000000000RA              33732832    005800170000001700000520000003NN  NNW 000                       N    
RDG04747000WATRL000000004K00000000000004127001702042015082755N000000000000N40       000350400K 10000000010000004072           
CUS0474700000104131869002         DALES GARTH J       6727 QUEENS FERRY RD                    000N        CARE OF             
MTR04747000001000000000000000RA              24762630    005800180000001800000520000003NN  NNW 000                       N    
RDG04747000WATRL000000004K00000000000001446001802042015082918N000000000000N40       000830400K 10000000010000001446           
CUS0474700000104131870000         DAVID S FEARON JR   6729 QUEENS FERRY RD                    000N        CARE OF             
MTR04747000001000000000000000RA              33733123    005800190000001900000520000003NN  NNW 000                       N    
RDG04747000WATRL000000004K00000000000001896001902042015083013N000000000000N40       000550400K 10000000010000001882           
CUS0474700000104131871008         PUCCIARELLA TERESA  6731 QUEENS FERRY RD                    000N        CARE OF             
MTR04747000001000000000000000RA              26015404    005800200000002000000520000003NN  NNW 000                       N    
RDG04747000WATRL000000004K00000000000002512002002042015083048N000000000000N40       000350400K 10000000010000002500           
CUS0474700000104131678007         GREEN GERTRUDE      6801 QUEENS FERRY RD                    000N        CARE OF             
MTR04747000001000000000000000RA              50791408    005800210000002100000520000003NN  NNW 000                       N    
RDG04747000WATRL000000004K00000000000000483002102042015083121N000000000000N40       000330400K 10000000010000000478           
CUS0474700000104131679005         DEVITA MICHAEL J    6803 QUEENS FERRY RD                    000N        CARE OF             
MTR04747000001000000000000000RA              50791406    005800220000002200000520000003NN  NNW 000                       N    
RDG04747000WATRL000000004K00000000000001200002202042015083147N000000000000N40       000260400K 10000000010000001181           
CUS0474700000104131680003         HELMS SAMUEL T      6805 QUEENS FERRY RD                    000N        CARE OF             
MTR04747000001000000000000000RA              01085669    005800230000002300000610000003NN  NNW 000                       N    
RDG04747000WATRL000000004K00000000000000999002302042015083316N000300000010N40       000890400K 10000000010000000804           
CUS0474700000104131681001         CUDDY JOSEPH F      6807 QUEENS FERRY RD                    000N        CARE OF             
MTR04747000001000000000000000RA              01085665    005800240000002400000610000003NN  NNW 000                       N    
RDG04747000WATRL000000004K00000000000000840002402042015083318N000000000000N40       000020400K 10000000010000000811           
CUS0474700000104131682009         DIXON FLETCHER D    6809 QUEENS FERRY RD                    000N        CARE OF             
MTR04747000001000000000000000RA              33083834    005800250000002500000520000003NN  NNW 000                       N    
RDG04747000WATRL000000004K00000000000004088002502042015083457N000000000020N40       000990400K 10000000010000004054           
CUS0474700000104131683007         FEDERAL NTL MORTGAGE6811 QUEENS FERRY RD                    000N        CARE OF             
MTR04747000001000000000000000RA              33083907    005800260000002600000520000003NN  NNW 000                       N    
RDG04747000WATRL000000004K00000000000001474002602042015083542N000300000010N40       000450400K 10000000010000001466           
CUS0474700000104131684005         JAY T YOUNG         6813 QUEENS FERRY RD                    000N        CARE OF             
MTR04747000001000000000000000RA              33733165    005800270000002700000520000003NN  NNW 000                       N    
RDG04747000WATRL000000004K00000000000002516002702042015083609N000000000000N40       000270400K 10000000010000002503           
CUS0474700000104131685002         VARGA ALBERT ALEX   6815 QUEENS FERRY RD                    000N        CARE OF             
MTR04747000001000000000000000RA              24224792    005800280000002800000520000003NN  NNW 000                       N    
RDG04747000WATRL000000004K00000000000003936002802042015083640N000000000000N40       000310400K 10000000010000003908           
CUS0474700000104131686000         FU JIE              6817 QUEENS FERRY RD                    000N        CARE OF             
MTR04747000001000000000000000RA              33733164    005800290000002900000520000003NN  NNW 000                       N    
RDG04747000WATRL000000004K00000000000004712002902042015083730N000000000000N40       000500400K 10000000010000004687           
CUS0474700000104131687008         PARKER ELIZABETH C  6819 QUEENS FERRY RD                    000N        CARE OF             
MTR04747000001000000000000000RA              32176181    005800300000003000000520000003NN  NNW 000                       N    
RDG04747000WATRL000000004K00000000000002268003002042015083822N000000000000N40       000520400K 10000000010000002260           
CUS0474700000104131688006         LOGAN JONATHAN N    6821 QUEENS FERRY RD                    000N        CARE OF             
MTR04747000001000000000000000RA              31580094    005800310000003100000520000003NN  NNW 000                       N    
RDG04747000WATRL000000004K00000000000004013003102042015083939N000000000000N40       000770400K 10000000010000003989           
CUS0474700000104131689004         RYBARCZYK MICHAEL JO6823 QUEENS FERRY RD                    000N        CARE OF             
MTR04747000001000000000000000RA              33733119    005800320000003200000520000003NN  NNW 000                       N    
RDG04747000WATRL000000004K00000000000002233000102132015091300N000300000030U40       000000400K 10000000010000003702           
CUS0474700000104131690002         MEYER GEORGE TILGHMA6825 QUEENS FERRY RD                    000N        CARE OF             
MTR04747000001000000000000000RA              33733118    005800330000003300000520000003NN  NNW 000                       N    
RDG04747000WATRL000000004K00000000000001704003202042015084156N000000000000N40       001370400K 10000000010000001688           
CUS0474700000104131691000         BUSH DAVID H        6827 QUEENS FERRY RD                    000N        CARE OF             
MTR04747000001000000000000000RA              33733122    005800340000003400000520000003NN  NNW 000                       N    
RDG04747000WATRL000000004K00000000000001509003302042015084235N000000000000N40       000390400K 10000000010000001500           
CUS0474700000104131692008         MARTIN ANGELA M     6829 QUEENS FERRY RD                    000N        CARE OF             
MTR04747000001000000000000000RA              78022500    005800350000003500000350000003NN  NNW 000                       N    
RDG04747000WATRL000000004K00000000000000000003402042015084259S001000000000N40       000240400K 10000000010000000000           
CUS0474700000104131693006         SCRANTON ROBERT C   6831 QUEENS FERRY RD                    000N        CARE OF             
MTR04747000001000000000000000RA              33083910    005800360000003600000520000003NN  NNW 000                       N    
RDG04747000WATRL000000004K00000000000003560003502042015084327N000000000000N40       000280400K 10000000010000003540           
CUS0474700000104131694004         FORD ERNEST E,3RD   6833 QUEENS FERRY RD                    000N        CARE OF             
MTR04747000001000000000000000RA              32899589    005800370000003700000520000003NN  NNW 000                       N    
RDG04747000WATRL000000004K00000000000002522003602042015084403N000000000000N40       000360400K 10000000010000002508           
CUS0474700000104131695001         BAKER TRACY         6835 QUEENS FERRY RD                    000N        CARE OF             
MTR04747000001000000000000000RA              52290755    005800380000003800000520000003NN  NNW 000                       N    
RDG04747000WATRL000000004K00000000000000698003702042015084428N000000000000N40       000250400K 10000000010000000682           
CUS0474700000104131696009         HANSON JOHNNIE,JR   6837 QUEENS FERRY RD                    000N        CARE OF             
MTR04747000001000000000000000RA              33733158    005800390000003900000520000003NN  NNW 000                       N    
RDG04747000WATRL000000004K00000000000001852003802042015084521N000000000000N40       000530400K 10000000010000001833           
CUS0474700000104131697007         WHITE ALBERT        6839 QUEENS FERRY RD                    000N        CARE OF             
MTR04747000001000000000000000RA              33083835    005800400000004000000520000003NN  NNW 000                       N    
RDG04747000WATRL000000004K00000000000001693003902042015084556N000000000000N40       000350400K 10000000010000001683           
CUS0474700000104131698005         RODGERS SHIRLEY J   6841 QUEENS FERRY RD                    000N        CARE OF             
MTR04747000001000000000000000RA              39290307    005800410000004100000520000003NN  NNW 000                       N    
RDG04747000WATRL000000004K00000000000001302004002042015084623N000000000000N40       000270400K 10000000010000001296           
CUS0474700000104131699003         BAKER ROBERT C,2ND  6843 QUEENS FERRY RD                    000N        CARE OF             
MTR04747000001000000000000000RA              46883802    005800420000004200000520000003NN  NNW 000                       N    
RDG04747000WATRL000000004K00000000000001709004102042015084657N000000000000N40       000340400K 10000000010000001687           
CUS0474700000104131700009         WILLIAMS GERALDINE F6845 QUEENS FERRY RD                    000N        CARE OF             
MTR04747000001000000000000000RA              33733154    005800430000004300000520000003NN  NNW 000                       N    
RDG04747000WATRL000000004K00000000000001924004202042015084722N000000000000N40       000250400K 10000000010000001917           
CUS0474700000104131701007         CINQUEGRANI GERALD V6847 QUEENS FERRY RD                    000N        CARE OF             
MTR04747000001000000000000000RA              33733157    005800440000004400000520000003NN  NNW 000                       N    
RDG04747000WATRL000000004K00000000000001748004302042015084806N000000000000N40       000440400K 10000000010000001748           
CUS0474700000104131702005         FOWLER LARRY E      6849 QUEENS FERRY RD                    000N        CARE OF             
MTR04747000001000000000000000RA              33733160    005800450000004500000520000003NN  NNW 000                       N    
RDG04747000WATRL000000004K00000000000002428004402042015084826N000000000000N40       000200400K 10000000010000002410           
CUS0474700000104131703003         AROWOROWON KAZEEM A 6851 QUEENS FERRY RD                    000N        CARE OF             
MTR04747000001000000000000000RA              33083909    005800460000004600000520000003NN  NNW 000                       N    
RDG04747000WATRL000000004K00000000000002976004502042015084927N000000000000N40       000610400K 10000000010000002909           
CUS0474700000104131704001         RICHARDS CHRISHDEL F6853 QUEENS FERRY RD                    000N        CARE OF             
MTR04747000001000000000000000RA              33083908    005800470000004700000520000003NN  NNW 000                       N    
RDG04747000WATRL000000004K00000000000003401004602042015084954N000300000010N40       000270400K 10000000010000003289           
CUS0474700000104131705008         GITHUKU JOSEPH      6855 QUEENS FERRY RD                    000N        CARE OF             
MTR04747000001000000000000000RA              50791410    005800480000004800000520000003NN  NNW 000                       N    
RDG04747000WATRL000000004K00000000000003036004702042015085033N000000000000N40       000390400K 10000000010000003012           
CUS0474700000104131706006         PICKFORD SEAN DIMTRI6856 QUEENS FERRY RD                    000N        CARE OF             
MTR04747000001000000000000000RA              33732421    005800490000004900000520000003NN  NNW 000                       N    
RDG04747000WATRL000000004K00000000000003414004802042015085139N000000000000N40       000660400K 10000000010000003385           
CUS0474700000104131707004         MCLAMB ANTHONY      6854 QUEENS FERRY RD                    000N        CARE OF             
MTR04747000001000000000000000RA              33732417    005800500000005000000520000003NN  NNW 000                       N    
RDG04747000WATRL000000004K00000000000003551004902042015085211N000000000000N40       000320400K 10000000010000003510           
CUS0474700000104131708002         PETER J./LINDA HOLBA1306 ABLETT RD                          000N        CARE OF             
MTR04747000001000000000000000RA              33081289    005800510000005100000520000003NN  NNW 000                       N    
RDG04747000WATRL000000004K00000000000003883005002042015085308N000300000010N40       000570400K 10000000010000003888           
CUS0474700000104131709000         MITCHELL BERTA RANDA1304 ABLETT RD                          000N        CARE OF             
MTR04747000001000000000000000RA              33081287    005800520000005200000520000003NN  NNW 000                       N    
RDG04747000WATRL000000004K00000000000002235005102042015085322N000000000000N40       000140400K 10000000010000002219           
CUS0474700000104131710008         JAMES SYLVIA M      1302 ABLETT RD                          000N        CARE OF             
MTR04747000001000000000000000RA              33081167    005800530000005300000520000003NN  NNW 000                       N    
RDG04747000WATRL000000004K00000000000002887005202042015085348N000000000000N40       000260400K 10000000010000002877           
CUS0474700000104131711006         PATTERSON HOWARD L  1300 ABLETT RD                          000N        CARE OF             
MTR04747000001000000000000000RA              33732997    005800540000005400000520000003NN  NNW 000                       N    
RDG04747000WATRL000000004K00000000000001877005302042015085427N000400000010N40       000390400K 10000000010000001868           
CUS0474700000104131712004         WILSON LESLIE       1301 ABLETT RD                          000N        CARE OF             
MTR04747000001000000000000000RA              33081169    005800550000005500000520000003NN  NNW 000                       N    
RDG04747000WATRL000000004K00000000000002515000102252015075731N000000000000U40       000000400K 10000000010000002501           
CUS0474700000104131713002         THANIEL DAVID J     1303 ABLETT RD                          000N        CARE OF             
MTR04747000001000000000000000RA              33081165    005800560000005600000520000003NN  NNW 000                       N    
RDG04747000WATRL000000004K00000000000001737000202252015080157N000000000000U40       002660400K 10000000010000001726           
CUS0474700000104131714000         FRANKLIN OREN P     1305 ABLETT RD                          000N        CARE OF             
MTR04747000001000000000000000RA              33081286    005800570000005700000520000003NN  NNW 000                       N    
RDG04747000WATRL000000004K00000000000003582000302252015081115N000000000000U40       005580400K 10000000010000003550           
CUS0474700000104131715007         SANDERS ROGER A,JR  1307 ABLETT RD                          000N        CARE OF             
MTR04747000001000000000000000RA              33081284    005800580000005800000520000003NN  NNW 000                       N    
RDG04747000WATRL000000004K00000000000006530000402252015081944N000000000001U40       005090400K 10000000010000006361           
CUS0474700000104131716005         HARRIS RICKY        6848 QUEENS FERRY RD                    000N        CARE OF             
MTR04747000001000000000000000RA              9691615     005800590000005900000570000003NN  NNW 000                       N    
RDG04747000WATRL000000004K00000000000005369000502252015082907N000400000010U40       005630400K 10000000010000005355           
CUS0474700000104131717003         MANTARING MYRNA M   6846 QUEENS FERRY RD                    000N        CARE OF             
MTR04747000001000000000000000RA              33732428    005800600000006000000520000003NN  NNW 000                       N    
RDG04747000WATRL000000004K00000000000001745000602252015083651N000000000000U40       004640400K 10000000010000001741           
CUS0474700000104131718001         HOLMEN EUGENE E,JR  6844 QUEENS FERRY RD                    000N        CARE OF             
MTR04747000001000000000000000RA              33732431    005800610000006100000520000003NN  NNW 000                       N    
RDG04747000WATRL000000004K00000000000002126000702252015092154N000000000000U40       027030400K 10000000010000002106           
CUS0474700000104131719009         KUHN EDWARD C,SR    6842 QUEENS FERRY RD                    000N        CARE OF             
MTR04747000001000000000000000RA              50791429    005800620000006200000520000003NY  NNW 000                       N    
MTM0474700050791429    VAC                                                                                                    
RDG04747000WATRL000000004K00000000000001303000802252015092654N000000000000U40       003000400K 10000000010000001303           
CUS0474700000104131720007         BOERTLEIN JED A     6840 QUEENS FERRY RD                    000N        CARE OF             
MTR04747000001000000000000000RA              10006705    005800630000006300000570000003NN  NNW 000                       N    
RDG04747000WATRL000000004K00000000000000353000902252015093104N000000000000U40       002500400K 10000000010000000334           
CUS0474700000104131721005         SHORES DONNA M      6838 QUEENS FERRY RD                    000N        CARE OF             
MTR04747000001000000000000000RA              33732356    005800640000006400000520000003NY  NNW 000                       N    
MTM0474700033732356    ICE                                                                                                    
RDG04747000WATRL000000004K00000000000000000000000000000000000 000000000000U         000000400  10000000010000003832           
CUS0474700000104131722003         WHITE LUTHER,JR     6836 QUEENS FERRY RD                    000N        CARE OF             
MTR04747000001000000000000000RA              32770586    005800650000006500000520000003NY  NNW 000                       N    
MTM0474700032770586    ICE                                                                                                    
RDG04747000WATRL000000004K00000000000000000000000000000000000 000000000000U         000000400  10000000010000002246           
CUS0474700000104131723001         PICCIONE B MICHAEL  6834 QUEENS FERRY RD                    000N        CARE OF             
MTR04747000001000000000000000RA              32770581    005800660000006600000520000003NN  NNW 000                       N    
RDG04747000WATRL000000004K00000000000001919001002252015093600N000300000010U40       002960400K 10000000010000001881           
CUS0474700000104131724009         LAI KEITH Y         6832 QUEENS FERRY RD                    000N        CARE OF             
MTR04747000001000000000000000RA              46883807    005800670000006700000520000003NN  NNW 000                       N    
RDG04747000WATRL000000004K00000000000001984001102252015094210N000000000000U40       003700400K 10000000010000001963           
CUS0474700000104131725006         MICHELLE CALDERON   6830 QUEENS FERRY RD                    000N        CARE OF             
MTR04747000001000000000000000RA              39923259    005800680000006800000520000003NN  NNW 000                       N    
RDG04747000WATRL000000004K00000000000001004001202252015094520N000000000000U40       001900400K 10000000010000000980           
CUS0474700000104131726004         HOKE PAUL R         6828 QUEENS FERRY RD                    000N        CARE OF             
MTR04747000001000000000000000RA              33079254    005800690000006900000520000003NN  NNW 000                       N    
RDG04747000WATRL000000004K00000000000002517001302252015095106N000000000000U40       003460400K 10000000010000002510           
CUS0474700000104131727002         HOLSTON RONALD C    6826 QUEENS FERRY RD                    000N        CARE OF             
MTR04747000001000000000000000RA              33732418    005800700000007000000520000003NN  NNW 000                       N    
RDG04747000WATRL000000004K00000000000003322000102192015082950N000000000000U40       000000400K 10000000010000003293           
CUS0474700000104131728000         SHAW CHARLES W      1302 CROWNFIELD CT                      000N        CARE OF             
MTR04747000001000000000000000RA              33734372    005800710000007100000520000003NN  NNW 000                       N    
RDG04747000WATRL000000004K00000000000004203000202192015083002N000000000000U40       000120400K 10000000010000004189           
CUS0474700000104131729008         ASHENAFI BEHAILU    1300 CROWNFIELD CT                      000N        CARE OF             
MTR04747000001000000000000000RA              33734371    005800720000007200000520000003NN  NNW 000                       N    
RDG04747000WATRL000000004K00000000000004254000302192015083007N000000000000U40       000050400K 10000000010000004240           
CUS0474700000104131730006         DENSON JEFFREY      1301 CROWNFIELD CT                      000N        CARE OF             
MTR04747000001000000000000000RA              33734872    005800730000007300000520000003NN  NNW 000                       N    
RDG04747000WATRL000000004K00000000000003150000402192015083012N000000000000U40       000050400K 10000000010000003140           
CUS0474700000104131731004         BLACKWELL DENISE A  1303 CROWNFIELD CT                      000N        CARE OF             
MTR04747000001000000000000000RA              11428743    005800740000007400000570000003NN  NNW 000                       N    
RDG04747000WATRL000000004K00000000000004705000502192015083016N000000000000U40       000040400K 10000000010000004679           
CUS0474700000104131732002         DUGAN MARY M        6822 QUEENS FERRY RD                    000N        CARE OF             
MTR04747000001000000000000000RA              33732419    005800750000007500000520000003NN  NNW 000                       N    
RDG04747000WATRL000000004K00000000000002887000602192015083020N000000000000U40       000040400K 10000000010000002868           
CUS0474700000104131733000         TOMHE YASEEN        6820 QUEENS FERRY RD                    000N        CARE OF             
MTR04747000001000000000000000RA              33732433    005800760000007600000520000003NN  NNW 000                       N    
RDG04747000WATRL000000004K00000000000003611000702192015083023N000000000000U40       000030400K 10000000010000003578           
CUS0474700000104131734008         DRESSEL GREGORY L   6818 QUEENS FERRY RD                    000N        CARE OF             
MTR04747000001000000000000000RA              33732430    005800770000007700000520000003NN  NNW 000                       N    
RDG04747000WATRL000000004K00000000000003603000802192015083027N000000000000U40       000040400K 10000000010000003570           
CUS0474700000104131735005         CARPENTER JOHN K    6816 QUEENS FERRY RD                    000N        CARE OF             
MTR04747000001000000000000000RA              33732429    005800780000007800000520000003NN  NNW 000                       N    
RDG04747000WATRL000000004K00000000000003824000902192015083032N000000000000U40       000050400K 10000000010000003807           
CUS0474700000104131736003         DANFORTH CAROL A    6801 BARNETT RD                         000N        CARE OF             
MTR04747000001000000000000000RA              33732361    005800790000007900000520000003NN  NNW 000                       N    
RDG04747000WATRL000000004K00000000000001652001002192015083036N000000000000U40       000040400K 10000000010000001641           
CUS0474700000104131737001         SHAGENA STACEY R    6803 BARNETT RD                         000N        CARE OF             
MTR04747000001000000000000000RA              33732442    005800800000008000000520000003NN  NNW 000                       N    
RDG04747000WATRL000000004K00000000000002443001102192015083040N000000000000U40       000040400K 10000000010000002425           
CUS0474700000104131738009         BENDER SHIRLEY DILIG6805 BARNETT RD                         000N        CARE OF             
MTR04747000001000000000000000RA              76347927    005800810000008100000350000003NN  NNW 000                       N    
RDG04747000WATRL000000004K00000000000000030001202192015083047N000000000010U40       000070400K 10000000010000000026           
CUS0474700000104131739007         KANE JAMES L        6807 BARNETT RD                         000N        CARE OF             
MTR04747000001000000000000000RA              33732359    005800820000008200000520000003NN  NNW 000                       N    
RDG04747000WATRL000000004K00000000000002144001302192015083101N000000000000U40       000140400K 10000000010000002136           
CUS0474700000104131740005         MEGHAN MULLER       6809 BARNETT RD                         000N        CARE OF             
MTR04747000001000000000000000RA              99286466    005800830000008300000570000003NN  NNW 000                       N    
RDG04747000WATRL000000004K00000000000001144001402192015083105N000000000000U40       000040400K 10000000010000001126           
CUS0474700000104131741003         OLEARY MICHAEL B    6811 BARNETT RD                         000N        CARE OF             
MTR04747000001000000000000000RA              99286434    005800840000008400000570000003NN  NNW 000                       N    
RDG04747000WATRL000000004K00000000000001454001502192015083110N000000000000U40       000050400K 10000000010000001439           
CUS0474700000104131742001         WANGUI PAULINE      6813 BARNETT RD                         000N        CARE OF             
MTR04747000001000000000000000RA              23052442    005800850000008500000520000003NN  NNW 000                       N    
RDG04747000WATRL000000004K00000000000002861001602192015083114N000000000000U40       000040400K 10000000010000002827           
CUS0474700000104131743009         WHEELER RICHARD,JR  6815 BARNETT RD                         000N        CARE OF             
MTR04747000001000000000000000RA              74689020    005800860000008600000350000003NN  NNW 000                       N    
RDG04747000WATRL000000004K00000000000000130001702192015085306N000000000021U40       000250400K 10000000010000000115           
CUS0474700000104131744007         MALEK ARMIN         1301 GLENMONT RD                        000N        CARE OF             
MTR04747000001000000000000000RA              27822370    005800870000008700000520000003NN  NNW 000                       N    
RDG04747000WATRL000000004K00000000000002846001802192015085312N000000000000U40       000060400K 10000000010000002846           
CUS0474700000104131745004         JAVIER RENE         1303 GLENMONT RD                        000N        CARE OF             
MTR04747000001000000000000000RA              10002404    005800880000008800000570000003NN  NNW 000                       N    
RDG04747000WATRL000000004K00000000000000419001902192015085319N000300000010U40       000070400K 10000000010000000365           
CUS0474700000104131746002         LAIDLOW MCDONALD P  1305 GLENMONT RD                        000N        CARE OF             
MTR04747000001000000000000000RA              33733477    005800890000008900000520000003NN  NNW 000                       N    
RDG04747000WATRL000000004K00000000000002619002002192015085325N000000000000U40       000060400K 10000000010000002599           
CUS0474700000104131747000         COOK ANDREA D       1307 GLENMONT RD                        000N        CARE OF             
MTR04747000001000000000000000RA              41086184    005800900000009000000520000003NN  NNW 000                       N    
RDG04747000WATRL000000004K00000000000002896002102192015085342N000300000030U40       000170400K 10000000010000002515           
CUS0474700000104131748008         HENNICK WILLIAM D,JR1301 KENSAL CT                          000N        CARE OF             
MTR04747000001000000000000000RA              33082443    005800910000009100000520000003NN  NNW 000                       N    
RDG04747000WATRL000000004K00000000000003896002202192015085352N000000000000U40       000100400K 10000000010000003856           
CUS0474700000104131749006         PETERS ANNETTE A    1303 KENSAL CT                          000N        CARE OF             
MTR04747000001000000000000000RA              39289669    005800920000009200000520000003NN  NNW 000                       N    
RDG04747000WATRL000000004K00000000000004118002302192015085359N000300000010U40       000070400K 10000000010000004008           
CUS0474700000104131750004         YARNELL PHILIP,JR   1302 KENSAL CT                          000N        CARE OF             
MTR04747000001000000000000000RA              25783341    005800930000009300000520000003NN  NNW 000                       N    
RDG04747000WATRL000000004K00000000000004145002402192015085406N000000000000U40       000070400K 10000000010000004128           
CUS0474700000104131751002         DABROSKI BOGUSLAW   1300 KENSAL CT                          000N        CARE OF             
MTR04747000001000000000000000RA              01097791    005800940000009400000610000003NN  NNW 000                       N    
RDG04747000WATRL000000004K00000000000001010002502192015085411N000300000010U40       000050400K 10000000010000000964           
CUS0474700000104131752000         DEMINDS MARILYN R   1309 GLENMONT RD                        000N        CARE OF             
MTR04747000001000000000000000RA              33732626    005800950000009500000520000003NN  NNW 000                       N    
RDG04747000WATRL000000004K00000000000004662002602192015085414N000000000000U40       000030400K 10000000010000004635           
CUS0474700000104131753008         TAM WAI T           1311 GLENMONT RD                        000N        CARE OF             
MTR04747000001000000000000000RA              33732441    005800960000009600000520000003NN  NNW 000                       N    
RDG04747000WATRL000000004K00000000000002285002702192015085418N000000000000U40       000040400K 10000000010000002275           
CUS0474700000104131754006         AHMED A MUNYE       1313 GLENMONT RD                        000N        CARE OF             
MTR04747000001000000000000000RA              33732700    005800970000009700000520000003NN  NNW 000                       N    
RDG04747000WATRL000000004K00000000000004476002802192015085425N000300000010U40       000070400K 10000000010000003795           
CUS0474700000104131755003         CORCINO ROSA        1315 GLENMONT RD                        000N        CARE OF             
MTR04747000001000000000000000RA              23052378    005800980000009800000520000003NN  NNW 000                       N    
RDG04747000WATRL000000004K00000000000004479001402252015100242N000000000000U40       006960400K 10000000010000004453           
CUS0474700000104131756001         GILLIAM DARLENE     1317 GLENMONT RD                        000N        CARE OF             
MTR04747000001000000000000000RA              74689676    005800990000009900000350000003NN  NNW 000                       N    
RDG04747000WATRL000000004K00000000000000105005402042015085528N000000000000N40       000610400K 10000000010000000094           
CUS0474700000104131757009         PLANTER LEVI E,3RD  1319 GLENMONT RD                        000N        CARE OF             
MTR04747000001000000000000000RA              33732630    005801000000010000000520000003NN  NNW 000                       N    
RDG04747000WATRL000000004K00000000000002539005502042015085552N000000000000N40       000240400K 10000000010000002508           
CUS0474700000104131758007         DOLCAR LUTHER DAVE  1318 GLENMONT RD                        000N        CARE OF             
MTR04747000001000000000000000RA              33732739    005801010000010100000520000003NN  NNW 000                       N    
RDG04747000WATRL000000004K00000000000004664005602042015085618N000000000000N40       000260400K 10000000010000004635           
CUS0474700000104131759005         GRAHAM ANNE D       1316 GLENMONT RD                        000N        CARE OF             
MTR04747000001000000000000000RA              33732627    005801020000010200000520000003NN  NNW 000                       N    
RDG04747000WATRL000000004K00000000000003375005702042015085639N000000000000N40       000210400K 10000000010000003359           
CUS0474700000104131760003         FERRELL STEVEN E    1314 GLENMONT RD                        000N        CARE OF             
MTR04747000001000000000000000RA              32176706    005801030000010300000520000003NN  NNW 000                       N    
RDG04747000WATRL000000004K00000000000002523005802042015085656N000000000000N40       000170400K 10000000010000002512           
CUS0474700000104131761001         SALAKO SULE         1312 GLENMONT RD                        000N        CARE OF             
MTR04747000001000000000000000RA              33732631    005801040000010400000520000003NN  NNW 000                       N    
RDG04747000WATRL000000004K00000000000002610005902042015085730N000000000000N40       000340400K 10000000010000002590           
CUS0474700000104131762009         KOHLBAUER ALPHEUS W 1310 GLENMONT RD                        000N        CARE OF             
MTR04747000001000000000000000RA              33732703    005801050000010500000520000003NN  NNW 000                       N    
RDG04747000WATRL000000004K00000000000003157006002042015085755N000000000000N40       000250400K 10000000010000003145           
CUS0474700000104131763007         COCKEY ENTERPRISES L1308 GLENMONT RD                        000N        CARE OF             
MTR04747000001000000000000000RA              33732698    005801060000010600000520000003NN  NNW 000                       N    
RDG04747000WATRL000000004K00000000000002126006102042015085833N000000000000N40       000380400K 10000000010000002088           
CUS0474700000104131764005         WILLIAMS LORRAINE V 1306 GLENMONT RD                        000N        CARE OF             
MTR04747000001000000000000000RA              33732440    005801070000010700000520000003NN  NNW 000                       N    
RDG04747000WATRL000000004K00000000000004754006202042015085915N000400000010N40       000420400K 10000000010000004748           
CUS0474700000104131765002         WU YUPING           1304 GLENMONT RD                        000N        CARE OF             
MTR04747000001000000000000000RA              23052423    005801080000010800000520000003NN  NNW 000                       N    
RDG04747000WATRL000000004K00000000000004173006302042015085944N000000000000N40       000290400K 10000000010000004152           
CUS0474700000104131766000         SCHMITT PAUL W      1302 GLENMONT RD                        000N        CARE OF             
MTR04747000001000000000000000RA              23052414    005801090000010900000520000003NN  NNW 000                       N    
RDG04747000WATRL000000004K00000000000005472006402042015090013N000000000000N40       000290400K 10000000010000005420           
CUS0474700000104131767008         FAMINI JOHN C       1300 GLENMONT RD                        000N        CARE OF             
MTR04747000001000000000000000RA              33733439    005801100000011000000520000003NN  NNW 000                       N    
RDG04747000WATRL000000004K00000000000002051006502042015090034N000000000000N40       000210400K 10000000010000002038           
CUS0474700000104131768006         MONROE ANGELA M     6821 BARNETT RD                         000N        CARE OF             
MTR04747000001000000000000000RA              33732443    005801110000011100000520000003NN  NNW 000                       N    
RDG04747000WATRL000000004K00000000000002808006602042015090132N000000000000N40       000580400K 10000000010000002798           
CUS0474700000104131769004         BECIROVIC MUJO      6823 BARNETT RD                         000N        CARE OF             
MTR04747000001000000000000000RA              19461724    005801120000011200000520000003NN  NNW 000                       N    
RDG04747000WATRL000000004K00000000000006792006702042015090152N000000000000N40       000200400K 10000000010000006759           
CUS0474700000104131770002         MAJEED MOHAMED M A  6825 BARNETT RD                         000N        CARE OF             
MTR04747000001000000000000000RA              33732998    005801130000011300000520000003NN  NNW 000                       N    
RDG04747000WATRL000000004K00000000000003001006802042015090239N000000000000N40       000470400K 10000000010000002975           
CUS0474700000104131771000         ATHELAS FOUNDATION I6827 BARNETT RD                         000N        CARE OF             
MTR04747000001000000000000000RA              23052657    005801140000011400000520000003NN  NNW 000                       N    
RDG04747000WATRL000000004K00000000000003227006902042015090304N000300000010N40       000250400K 10000000010000003181           
CUS0474700000104131772008         BLACKSHIRE LORRAINE 6826 BARNETT RD                         000N        CARE OF             
MTR04747000001000000000000000RA              26013614    005801150000011500000520000003NN  NNW 000                       N    
RDG04747000WATRL000000004K00000000000004137007002042015090322N000000000000N40       000180400K 10000000010000004048           
CUS0474700000104131773006         HARGROVE STERLING,JR6824 BARNETT RD                         000N        CARE OF             
MTR04747000001000000000000000RA              22610321    005801160000011600000520000003NN  NNW 000                       N    
RDG04747000WATRL000000004K00000000000005344007102042015090350N000000000000N40       000280400K 10000000010000005328           
CUS0474700000104131774004         ZONG JIANCHAO/HAIJIE1146 GLENDALE RD                        000N        CARE OF             
MTR04747000001000000000000000RA              10013075    005801170000011700000570000003NN  NNW 000                       N    
RDG04747000WATRL000000004K00000000000000182007202042015090459N000000000000N40       000690400K 10000000010000000170           
CUS0474700000104131775001         FORD VALERIE M      1144 GLENDALE RD                        000N        CARE OF             
MTR04747000001000000000000000RA              36690135    005801180000011800000520000003NN  NNW 000                       N    
RDG04747000WATRL000000004K00000000000002814007302042015090532N000000000000N40       000330400K 10000000010000002805           
CUS0474700000104131776009         CRAWFORD DONALD J,TR1141 GLENDALE RD                        000N        CARE OF             
MTR04747000001000000000000000RA              41590361    005801190000011900000520000003NN  NNW 000                       N    
RDG04747000WATRL000000004K00000000000001639007402042015090548N000000000000N40       000160400K 10000000010000001626           
CUS0474700000104131777007         LUO LINDI           1143 GLENDALE RD                        000N        CARE OF             
MTR04747000001000000000000000RA              41590514    005801200000012000000520000003NN  NNW 000                       N    
RDG04747000WATRL000000004K00000000000002284007502042015090606N000000000000N40       000180400K 10000000010000002267           
CUS0474700000104131778005         CARTER JESSICA LYNN 1237 KNIGHTSWOOD RD                     000N        CARE OF             
MTR04747000001000000000000000RA              38886187    005801210000012100000520000000NN  NNW 000                       N    
RDG04747000WATRL000000004K00000000000002330007602042015090653N000000000000N40       000470400K 10000000010000002312           
CUS0474700000104131779003         SMITH DAWN A        1235 KNIGHTSWOOD RD                     000N        CARE OF             
MTR04747000001000000000000000RA              38886047    005801220000012200000520000003NN  NNW 000                       N    
RDG04747000WATRL000000004K00000000000003952007702042015090719N000000000000N40       000260400K 10000000010000003854           
CUS0474700000104131780001         GUSIC MUJO          1233 KNIGHTSWOOD RD                     000N        CARE OF             
MTR04747000001000000000000000RA              00127389    005801230000012300000570000003NN  NNW 000                       N    
RDG04747000WATRL000000004K00000000000001279007802042015090749N000000000000N40       000300400K 10000000010000001253           
CUS0474700000104131781009         ALEXANDER REGINALD L1231 KNIGHTSWOOD RD                     000N        CARE OF             
MTR04747000001000000000000000RA              24765423    005801240000012400000520000003NN  NNW 000                       N    
RDG04747000WATRL000000004K00000000000004159007902042015090816N000000000000N40       000270400K 10000000010000004136           
CUS0474700000104131782007         ODOGBO EKHOMU PETER 1229 KNIGHTSWOOD RD                     000N        CARE OF             
MTR04747000001000000000000000RA              38886043    005801250000012500000520000003NN  NNW 000                       N    
RDG04747000WATRL000000004K00000000000002156008002042015090839N000000000000N40       000230400K 10000000010000002144           
CUS0474700000104131783005         WILLIAMS DIANE      1227 KNIGHTSWOOD RD                     000N        CARE OF             
MTR04747000001000000000000000RA              35113951    005801260000012600000520000003NN  NNW 000                       N    
RDG04747000WATRL000000004K00000000000003018008102042015090902N000000000000N40       000230400K 10000000010000003009           
CUS0474700000104131784003         DANIELS CHARLES RAY 1230 KNIGHTSWOOD RD                     000N        CARE OF             
MTR04747000001000000000000000RA              39291092    005801270000012700000520000003NN  NNW 000                       N    
RDG04747000WATRL000000004K00000000000005651008202042015090957N000000000000N40       000550400K 10000000010000005527           
CUS0474700000104131785000         DAVIS PATRICIA A    1232 KNIGHTSWOOD RD                     000N        CARE OF             
MTR04747000001000000000000000RA              35115558    005801280000012800000520000003NN  NNW 000                       N    
RDG04747000WATRL000000004K00000000000002110008302042015091022N000000000000N40       000250400K 10000000010000002077           
CUS0474700000104131786008         YU HUIMEI           1234 KNIGHTSWOOD RD                     000N        CARE OF             
MTR04747000001000000000000000RA              23052713    005801290000012900000520000003NN  NNW 000                       N    
RDG04747000WATRL000000004K00000000000006161008402042015091047N000000000000N40       000250400K 10000000010000006146           
CUS0474700000104131787006         MLINARCHIK CATHERINE1236 KNIGHTSWOOD RD                     000N        CARE OF             
MTR04747000001000000000000000RA              75614616    005801300000013000000350000003NN  NNW 000                       N    
RDG04747000WATRL000000004K00000000000000063008502042015091122N000000000000N40       000350400K 10000000010000000054           
CUS0474700000104131788004         DEREK D. JACKSON    1238 KNIGHTSWOOD RD                     000N        CARE OF             
MTR04747000001000000000000000RA              00132747    005801310000013100000570000003NN  NNW 000                       N    
RDG04747000WATRL000000004K00000000000000184008602042015091150N000000000000N40       000280400K 10000000010000000169           
CUS0474700000104131789002         BURGESS EUGENE      1240 KNIGHTSWOOD RD                     000N        CARE OF             
MTR04747000001000000000000000RA              00127391    005801320000013200000570000003NN  NNW 000                       N    
RDG04747000WATRL000000004K00000000000002289008702042015091219N000000000000N40       000290400K 10000000010000002191           
CUS0474700000104131790000         SPELL COLLETTE D    1242 KNIGHTSWOOD RD                     000N        CARE OF             
MTR04747000001000000000000000RA              27266537    005801330000013300000520000003NN  NNW 000                       N    
RDG04747000WATRL000000004K00000000000001461008802042015091310N000000000000N40       000510400K 10000000010000001444           
CUS0474700000104131791008         CONNEY ERICKA A     1244 KNIGHTSWOOD RD                     000N        CARE OF             
MTR04747000001000000000000000RA              23052691    005801340000013400000520000003NN  NNW 000                       N    
RDG04747000WATRL000000004K00000000000005113008902042015091444N000000000000N40       000940400K 10000000010000005084           
CUS0474700000104131792006         LEE YU TING  LEE DEN1301 KNIGHTSWOOD RD                     000N        CARE OF             
MTR04747000001000000000000000RA              38886046    005801350000013500000520000003NN  NNW 000                       N    
RDG04747000WATRL000000004K00000000000001858009002042015091550N000000000000N40       000660400K 10000000010000001852           
CUS0474700000104131793004         WU RUN NING         1303 KNIGHTSWOOD RD                     000N        CARE OF             
MTR04747000001000000000000000RA              00132748    005801360000013600000570000003NN  NNW 000                       N    
RDG04747000WATRL000000004K00000000000001285009102042015091613N000000000000N40       000230400K 10000000010000001244           
CUS0474700000104131794002         TANNOUS MAHER A     1305 KNIGHTSWOOD RD                     000N        CARE OF             
MTR04747000001000000000000000RA              10013762    005801370000013700000570000003NN  NNW 000                       N    
RDG04747000WATRL000000004K00000000000000184003002192015085534N000000000010U40       000230400K 10000000010000000148           
CUS0474700000104131795009         FENDLAY GRACE A     1307 KNIGHTSWOOD RD                     000N        CARE OF             
MTR04747000001000000000000000RA              23052675    005801380000013800000520000003NN  NNW 000                       N    
RDG04747000WATRL000000004K00000000000001715009202042015091732N000300000010N40       000790400K 10000000010000004696           
CUS0474700000104131796007         KAISER MARK S       6822 BARNETT RD                         000N        CARE OF             
MTR04747000001000000000000000RA              32177511    005801390000013900000520000003NN  NNW 000                       N    
RDG04747000WATRL000000004K00000000000001904009302042015091833N000300000010N40       000610400K 10000000010000001876           
CUS0474700000104131797005         JACOBS CHARLES S,3RD6820 BARNETT RD                         000N        CARE OF             
MTR04747000001000000000000000RA              23052656    005801400000014000000520000003NN  NNW 000                       N    
RDG04747000WATRL000000004K00000000000004213009402042015091855N000000000000N40       000220400K 10000000010000004174           
CUS0474700000104131798003         DRAIN ROBERT K      6818 BARNETT RD                         000N        CARE OF             
MTR04747000001000000000000000RA              23052655    005801410000014100000520000003NN  NNW 000                       N    
RDG04747000WATRL000000004K00000000000002579009502042015091956N000000000000N40       000610400K 10000000010000002572           
CUS0474700000104131799001         CORNELL ROBERT J    6816 BARNETT RD                         000N        CARE OF             
MTR04747000001000000000000000RA              33733473    005801420000014200000520000003NN  NNW 000                       N    
RDG04747000WATRL000000004K00000000000002560003102192015085659N000000000000U40       000850400K 10000000010000002537           
CUS0474700000104131800007         LACHONNE D STANFORD 6814 BARNETT RD                         000N        CARE OF             
MTR04747000001000000000000000RA              33732357    005801430000014300000520000003NN  NNW 000                       N    
RDG04747000WATRL000000004K00000000000002213009602042015092217N000400000010N40       001410400K 10000000010000002212           
CUS0474700000104131801005         FRAZIER TERRANCE    6812 BARNETT RD                         000N        CARE OF             
MTR04747000001000000000000000RA              33732444    005801440000014400000520000003NN  NNW 000                       N    
RDG04747000WATRL000000004K00000000000002738009702042015092246N000000000000N40       000290400K 10000000010000002722           
CUS0474700000104131802003         RICHARDSON LATANJA M1314 BRIXTON RD                         000N        CARE OF             
MTR04747000001000000000000000RA              26007341    005801450000014500000520000003NN  NNW 000                       N    
RDG04747000WATRL000000004K00000000000005282009802042015092344N000000000000N40       000580400K 10000000010000005261           
CUS0474700000104131803001         WILKES LUCY G       1312 BRIXTON RD                         000N        CARE OF             
MTR04747000001000000000000000RA              29403324    005801460000014600000520000003NN  NNW 000                       N    
RDG04747000WATRL000000004K00000000000003382009902042015092422N000000000000N40       000380400K 10000000010000003376           
CUS0474700000104131804009         GILCHRIST GLADIE ALL1310 BRIXTON RD                         000N        CARE OF             
MTR04747000001000000000000000RA              14922602    005801470000014700000310000003NN  NNW 000                       N    
RDG04747000WATRL000000004K00000000000001153010002042015092518N000000000000N40       000560400K 10000000010000001135           
CUS0474700000104131805006         N-GOM M-BARE        1308 BRIXTON RD                         000N        CARE OF             
MTR04747000001000000000000000RA              33732797    005801480000014800000520000003NN  NNW 000                       N    
RDG04747000WATRL000000004K00000000000001604010102042015092545N000000000000N40       000270400K 10000000010000001598           
CUS0474700000104131806004         PIOTR ZAJACZKOWSKI  1306 BRIXTON RD                         000N        CARE OF             
MTR04747000001000000000000000RA              24220468    005801490000014900000520000003NY  NNW 000                       N    
MTM0474700024220468    ICE                                                                                                    
RDG04747000WATRL000000004K00000000000000000000000000000000000 000000000000U         000000400  10000000010000004199           
CUS0474700000104131807002         RICHARDSON SONIA C  1304 BRIXTON RD                         000N        CARE OF             
MTR04747000001000000000000000RA              26007607    005801500000015000000520000003NN  NNW 000                       N    
RDG04747000WATRL000000004K00000000000002228010202042015092811N000000000000N40       001460400K 10000000010000002202           
CUS0474700000104131808000         SKRIVAN FRANK A     1302 BRIXTON RD                         000N        CARE OF             
MTR04747000001000000000000000RA              33732765    005801510000015100000520000003NN  NNW 000                       N    
RDG04747000WATRL000000004K00000000000003056010302042015092836N000000000000N40       000250400K 10000000010000003045           
CUS0474700000104131809008         DAVIS NICOLE        1300 BRIXTON RD                         000N        CARE OF             
MTR04747000001000000000000000RA              41074823    005801520000015200000520000000NN  NNW 000                       N    
RDG04747000WATRL000000004K00000000000002239010402042015092901N000000000000N40       000250400K 10000000010000002239           
CUS0474700000104131810006         STEWART TASYA       1216 BRIXTON RD                         000N        CARE OF             
MTR04747000001000000000000000RA              33732778    005801530000015300000520000003NN  NNW 000                       N    
RDG04747000WATRL000000004K00000000000002841010502042015092943N000000000000N40       000420400K 10000000010000002815           
CUS0474700000104131811004         NGOH PATIENCE N     1214 BRIXTON RD                         000N        CARE OF             
MTR04747000001000000000000000RA              33732779    005801540000015400000520000003NN  NNW 000                       N    
RDG04747000WATRL000000004K00000000000002232010602042015093020N000000000000N40       000370400K 10000000010000002219           
CUS0474700000104131812002         REINKE CHARLENE P   1212 BRIXTON RD                         000N        CARE OF             
MTR04747000001000000000000000RA              33732787    005801550000015500000520000003NN  NNW 000                       N    
RDG04747000WATRL000000004K00000000000002268010702042015093045N000000000000N40       000250400K 10000000010000002258           
CUS0474700000104131813000         GRANT JONATHAN W    1210 BRIXTON RD                         000N        CARE OF             
MTR04747000001000000000000000RA              33732769    005801560000015600000520000003NN  NNW 000                       N    
RDG04747000WATRL000000004K00000000000002933010802042015093110N000000000000N40       000250400K 10000000010000002917           
CUS0474700000104131814008         HOLLIS TROY         1208 BRIXTON RD                         000N        CARE OF             
MTR04747000001000000000000000RA              33732798    005801570000015700000520000003NN  NNW 000                       N    
RDG04747000WATRL000000004K00000000000004997010902042015093145N000000000000N40       000350400K 10000000010000004957           
CUS0474700000104131815005         MYERS RICHARD W     1206 BRIXTON RD                         000N        CARE OF             
MTR04747000001000000000000000RA              33732795    005801580000015800000520000003NN  NNW 000                       N    
RDG04747000WATRL000000004K00000000000002477011002042015093154N000000000000N40       000090400K 10000000010000002477           
CUS0474700000104131816003         CARRUTH WINFORD BOYD1204 BRIXTON RD                         000N        CARE OF             
MTR04747000001000000000000000RA              25780144    005801590000015900000520000003NN  NNW 000                       N    
RDG04747000WATRL000000004K00000000000003303011102042015093219N000000000000N40       000250400K 10000000010000003294           
CUS0474700000104131817001         BOWEN KEVIN C       1202 BRIXTON RD                         000N        CARE OF             
MTR04747000001000000000000000RA              23056217    005801600000016000000520000003NN  NNW 000                       N    
RDG04747000WATRL000000004K00000000000004045011202042015093237N000000000000N40       000180400K 10000000010000004036           
CUS0474700000104131818009         OWENS FLOYD C,JR    1200 BRIXTON RD                         000N        CARE OF             
MTR04747000001000000000000000RA              33732783    005801610000016100000520000003NN  NNW 000                       N    
RDG04747000WATRL000000004K00000000000002661011302042015093251N000000000000N40       000140400K 10000000010000002632           
CUS0474700000104131819007         MCDONNELL RICHARD B 1201 BRIXTON RD                         000N        CARE OF             
MTR04747000001000000000000000RA              25780119    005801620000016200000520000003NN  NNW 000                       N    
RDG04747000WATRL000000004K00000000000002283011402042015093309N000300000010N40       000180400K 10000000010000002269           
CUS0474700000104131820005         DOWNER TERRY O      1203 BRIXTON RD                         000N        CARE OF             
MTR04747000001000000000000000RA              33732782    005801630000016300000520000003NN  NNW 000                       N    
RDG04747000WATRL000000004K00000000000003198011502042015093322N000000000000N40       000130400K 10000000010000003148           
CUS0474700000104131821003         WINDER CARL F       1205 BRIXTON RD                         000N        CARE OF             
MTR04747000001000000000000000RA              33733436    005801640000016400000520000003NN  NNW 000                       N    
RDG04747000WATRL000000004K00000000000003556011602042015093353N000000000000N40       000310400K 10000000010000003524           
CUS0474700000104131822001         MICHAEL J. LAWLER   1207 BRIXTON RD                         000N        CARE OF             
MTR04747000001000000000000000RA              33732784    005801650000016500000520000000NN  NNW 000                       N    
RDG04747000WATRL000000004K00000000000004392011702042015093425N000000000000N40       000320400K 10000000010000004381           
CUS0474700000104131823009         RICHARDSON SARAH B  1209 BRIXTON RD                         000N        CARE OF             
MTR04747000001000000000000000RA              33732785    005801660000016600000520000003NN  NNW 000                       N    
RDG04747000WATRL000000004K00000000000001385011802042015093501N000000000000N40       000360400K 10000000010000001370           
CUS0474700000104131824007         REEDINGER JOSEPH C  1211 BRIXTON RD                         000N        CARE OF             
MTR04747000001000000000000000RA              33732786    005801670000016700000520000003NN  NNW 000                       N    
RDG04747000WATRL000000004K00000000000002069011902042015093529N000000000000N40       000280400K 10000000010000002040           
CUS0474700000104131825004         RAYME ELAINE A      1213 BRIXTON RD                         000N        CARE OF             
MTR04747000001000000000000000RA              33732776    005801680000016800000520000003NN  NNW 000                       N    
RDG04747000WATRL000000004K00000000000001350012002042015093550N000000000000N40       000210400K 10000000010000001342           
CUS0474700000104131826002         MILES KATHERINE A   1215 BRIXTON RD                         000N        CARE OF             
MTR04747000001000000000000000RA              33732796    005801690000016900000520000003NN  NNW 000                       N    
RDG04747000WATRL000000004K00000000000001619012102042015093630N000000000000N40       000400400K 10000000010000001611           
CUS0474700000104131827000         WATERS ROBIN A      1217 BRIXTON RD                         000N        CARE OF             
MTR04747000001000000000000000RA              33732766    005801700000017000000520000003NN  NNW 000                       N    
RDG04747000WATRL000000004K00000000000003808012202042015093651N000000000000N40       000210400K 10000000010000003778           
CUS0474700000104131828008         PROGRESSIVE HORIZONS1301 BRIXTON RD                         000N        CARE OF             
MTR04747000001000000000000000RA              23647785    005801710000017100000520000003NN  NNW 000                       N    
RDG04747000WATRL000000004K00000000000006387012302042015093730N000300000010N40       000390400K 10000000010000006376           
CUS0474700000104131829006         HARVEY JOYCE        1303 BRIXTON RD                         000N        CARE OF             
MTR04747000001000000000000000RA              33732794    005801720000017200000520000003NN  NNW 000                       N    
RDG04747000WATRL000000004K00000000000001991012402042015093831N000000000000N40       000610400K 10000000010000001973           
CUS0474700000104131830004         HERLTH ROBERT E/ANNA1305 BRIXTON RD                         000N        CARE OF             
MTR04747000001000000000000000RA              33732767    005801730000017300000520000003NN  NNW 000                       N    
RDG04747000WATRL000000004K00000000000001608012502042015093904N000000000000N40       000330400K 10000000010000001598           
CUS0474700000104131831002         WILSON SONDRA L     1307 BRIXTON RD                         000N        CARE OF             
MTR04747000001000000000000000RA              29685326    005801740000017400000520000003NN  NNW 000                       N    
RDG04747000WATRL000000004K00000000000001901012602042015093925N000000000000N40       000210400K 10000000010000001889           
CUS0474700000104131832000         MCKEE VERNICE R     1309 BRIXTON RD                         000N        CARE OF             
MTR04747000001000000000000000RA              33732781    005801750000017500000520000003NN  NNW 000                       N    
RDG04747000WATRL000000004K00000000000002165012702042015094013N000000000000N40       000480400K 10000000010000002150           
CUS0474700000104131833008         JEFFREY R JONES     1311 BRIXTON RD                         000N        CARE OF             
MTR04747000001000000000000000RA              29084254    005801760000017600000520000003NN  NNW 000                       N    
RDG04747000WATRL000000004K00000000000001976012802042015094057N000000000000N40       000440400K 10000000010000001958           
CUS0474700000104131834006         JACQUELYN DANESE EVA1313 BRIXTON RD                         000N        CARE OF             
MTR04747000001000000000000000RA              9688476     005801770000017700000570000003NN  NNW 000                       N    
RDG04747000WATRL000000004K00000000000004024012902042015094138N000000000000N40       000410400K 10000000010000004010           
CUS0474700000104131835003         SLIPPER CHARLES DONA1315 BRIXTON RD                         000N        CARE OF             
MTR04747000001000000000000000RA              33732768    005801780000017800000520000003NN  NNW 000                       N    
RDG04747000WATRL000000004K00000000000003804013002042015094203N000000000000N40       000250400K 10000000010000003785           
CUS0474700000104131836001         JOHNSON RONALD D    1317 BRIXTON RD                         000N        CARE OF             
MTR04747000001000000000000000RA              11335240    005801790000017900000570000003NN  NNW 000                       N    
RDG04747000WATRL000000004K00000000000001384013102042015094237N000000000010N40       000340400K 10000000010000001371           
CUS0474700000104131837009         ANDRE STURKEY       1319 BRIXTON RD                         000N        CARE OF             
MTR04747000001000000000000000RA              23644766    005801800000018000000520000003NN  NNW 000                       N    
RDG04747000WATRL000000004K00000000000002958013202042015094311N000000000000N40       000340400K 10000000010000002937           
CUS0474700000104131838007         HARRIS WILLIAM E    1321 BRIXTON RD                         000N        CARE OF             
MTR04747000001000000000000000RA              33732780    005801810000018100000520000003NN  NNW 000                       N    
RDG04747000WATRL000000004K00000000000004877013302042015094411N000000000000N40       000600400K 10000000010000004835           
CUS0474700000104131839005         MCCLARY EDWARD      1323 BRIXTON RD                         000N        CARE OF             
MTR04747000001000000000000000RA              45382286    005801820000018200000520000003NN  NNW 000                       N    
RDG04747000WATRL000000004K00000000000001912013402042015094456N000000000000N40       000450400K 10000000010000001892           
CUS0474700000104131840003         LEBERT PAUL G       6806 BARNETT RD                         000N        CARE OF             
MTR04747000001000000000000000RA              33732445    005801830000018300000520000003NN  NNW 000                       N    
RDG04747000WATRL000000004K00000000000002052013502042015094541N000000000000N40       000450400K 10000000010000002027           
CUS0474700000104131841001         LENTZ ROBERT E      6804 BARNETT RD                         000N        CARE OF             
MTR04747000001000000000000000RA              33733437    005801840000018400000520000003NN  NNW 000                       N    
RDG04747000WATRL000000004K00000000000003624013602042015094800N000000000011N40       000450400K 10000000010000003605           
CUS0474700000104131842009         GONZALES NELSON     6802 BARNETT RD                         000N        CARE OF             
MTR04747000001000000000000000RA              33732416    005801850000018500000520000003NN  NNW 000                       N    
RDG04747000WATRL000000004K00000000000003683013702042015094713N000000000011N40       000470400K 10000000010000003666           
CUS0474700000104131843007         ROLLINS JACQUELENE F6800 BARNETT RD                         000N        CARE OF             
MTR04747000001000000000000000RA              48582968    005801860000018600000520000003NN  NNW 000                       N    
RDG04747000WATRL000000004K00000000000002967013802042015094715N000000000000N40       000020400K 10000000010000002967           
CUS0474700000104131844005         UKPONG NICHOLAS     6810 QUEENS FERRY RD                    000N        CARE OF             
MTR04747000001000000000000000RA              00132158    005801870000018700000570000003NN  NNW 000                       N    
RDG04747000WATRL000000004K00000000000001086013902042015094936N000000000000N40       000960400K 10000000010000001068           
CUS0474700000104131845002         AIKENS NICOLE       6808 QUEENS FERRY RD                    000N        CARE OF             
MTR04747000001000000000000000RA              00127396    005801880000018800000570000003NN  NNW 000                       N    
RDG04747000WATRL000000004K00000000000000760014002042015095002N000000000000N40       000260400K 10000000010000000748           
CUS0474700000104131847008         GEORGE W GAINES , JR6806 QUEENS FERRY RD                    000N        CARE OF             
MTR04747000001000000000000000RA              99290851    005801890000018900000570000003NN  NNW 000                       N    
RDG04747000WATRL000000004K00000000000001197014102042015095101N000000000000N40       000590400K 10000000010000001180           
CUS0474700000104131846000         D'ANNA, ELEANOR     6804 QUEENS FERRY RD                    000N        CARE OF             
MTR04747000001000000000000000RA              99290375    005801900000019000000570000003NN  NNW 000                       N    
RDG04747000WATRL000000004K00000000000000554014202042015095102N000000000000N40       000010400K 10000000010000000548           
CUS0474700000104131848006         BROWN KENNETH       1324 HIGHLAND DR                        000N        CARE OF             
MTR04747000001000000000000000RA              24229121    005801910000019100000520000003NN  NNW 000                       N    
RDG04747000WATRL000000004K00000000000003693014302042015095157N000000000000N40       000550400K 10000000010000003668           
CUS0474700000104131633002         SECRETARY OF VETERAN1401 GLENDALE RD                        000N        CARE OF             
MTR04747000001000000000000000RA              41082555    005801920000019200000520000003NN  NNW 000                       N    
RDG04747000WATRL000000004K00000000000002174014402042015095439N000100000010N40       001620400K 10000000010000002174           
CUS0474700000104131634000         GILL MILDRED KEIMIG 1403 GLENDALE RD                        000N        CARE OF             
MTR04747000001000000000000000RA              32770576    005801930000019300000520000003NN  NNW 000                       N    
RDG04747000WATRL000000004K00000000000003009014502042015095557N000000000000N40       000780400K 10000000010000002997           
CUS0474700000104131635007         WANDA BIVENS        1405 GLENDALE RD                        000N        CARE OF             
MTR04747000001000000000000000RA              26001438    005801940000019400000520000003NN  NNW 000                       N    
RDG04747000WATRL000000004K00000000000003594014602042015095634N000000000000N40       000370400K 10000000010000003581           
CUS0474700000104131636005         BECK HARALD         1407 GLENDALE RD                        000N        CARE OF             
MTR04747000001000000000000000RA              00127227    005801950000019500000570000003NN  NNW 000                       N    
RDG04747000WATRL000000004K00000000000000748014702042015095725N000000000000N40       000510400K 10000000010000000737           
CUS0474700000104131637003         SURUDA JOHN P       1409 GLENDALE RD                        000N        CARE OF             
MTR04747000001000000000000000RA              00127400    005801960000019600000570000003NN  NNW 000                       N    
RDG04747000WATRL000000004K00000000000001566014802042015095751N000000000000N40       000260400K 10000000010000001538           
CUS0474700000104131638001         REGINALD E DEGRAFENR1411 GLENDALE RD                        000N        CARE OF             
MTR04747000001000000000000000RA              77886773    005801970000019700000350000003NN  NNW 000                       N    
RDG04747000WATRL000000004K00000000000000000014902042015095823S001000000000N40       000320400K 10000000010000000000           
CUS0474700000104131639009         DIGGS EDWARD        1413 GLENDALE RD                        000N        CARE OF             
MTR04747000001000000000000000RA              44088884    005801980000019800000520000003NN  NNW 000                       N    
RDG04747000WATRL000000004K00000000000001915015002042015095855N000000000000N40       000320400K 10000000010000001890           
CUS0474700000104131640007         PEI GE              1415 GLENDALE RD                        000N        CARE OF             
MTR04747000001000000000000000RA              01102103    005801990000019900000610000003NN  NNW 000                       N    
RDG04747000WATRL000000004K00000000000001875015102042015095921N000000000000N40       000260400K 10000000010000001866           
CUS0474700000104131641005         RACE RANDALL S      1417 GLENDALE RD                        000N        CARE OF             
MTR04747000001000000000000000RA              36691352    005802000000020000000520000003NN  NNW 000                       N    
RDG04747000WATRL000000004K00000000000002598015202042015095955N000000000000N40       000340400K 10000000010000002580           
CUS0474700000104131642003         MCCOY KECIA L       1419 GLENDALE RD                        000N        CARE OF             
MTR04747000001000000000000000RA              36691277    005802010000020100000520000003NN  NNW 000                       N    
RDG04747000WATRL000000004K00000000000003097015302042015100033N000400000010N40       000380400K 10000000010000003090           
CUS0474700000104131643001         HOLCOMBE RODGER     1421 GLENDALE RD                        000N        CARE OF             
MTR04747000001000000000000000RA              35113756    005802020000020200000520000003NN  NNW 000                       N    
RDG04747000WATRL000000004K00000000000001724015402042015100057N000000000000N40       000240400K 10000000010000001691           
CUS0474700000104131644009         CHESAPEAKE PROVINCE 1423 GLENDALE RD                        000N        CARE OF             
MTR04747000001000000000000000RA              33077111    005802030000020300000520000003NN  NNW 000                       N    
RDG04747000WATRL000000004K00000000000002220015502042015100156N000000000000N40       000590400K 10000000010000002212           
CUS0474700000104131645006         WILLIAMS-GOODRIDGE B1425 GLENDALE RD                        000N        CARE OF             
MTR04747000001000000000000000RA              77987661    005802040000020400000350000003NN  NNW 000                       N    
RDG04747000WATRL000000004K00000000000000000015602042015100228S001000000000N40       000320400K 10000000010000000000           
CUS0474700000104131646004         PULLARA VINCENT I   1427 GLENDALE RD                        000N        CARE OF             
MTR04747000001000000000000000RA              38886044    005802050000020500000520000003NN  NNW 000                       N    
RDG04747000WATRL000000004K00000000000002166015702042015100259N000000000000N40       000310400K 10000000010000002133           
RTR04747000NN02050205000002050000000002050205000237NY020502050205000300030000000000000000000001    01222015NY020000 N         
FTRNNNN001000205000205000205N                                                                                           000623
