FHDNNNN005001477001477001551N                                                                                           004595
RHD04756500NN03340334000003340000000003340334000461NY033403340334001200000000000000000000000001    01292015NY020000 N         
CUS0475650000104137166007         LUTMAN MADELYN R    1701 WESTON AVE                         000N        CARE OF             
MTR04756500001000000000000000RA              33732742    005800010000000100000520000003NN  NNW 000                       N    
RDG04756500WATRL000000004K00000000000001770000102252015125538N000000000000U40       068300400K 10000000010000001765           
CUS0475650000104137167005         BROWN WALTER J      1703 WESTON AVE                         000N        CARE OF             
MTR04756500001000000000000000RA              33732744    005800020000000200000520000003NN  NNW 000                       N    
RDG04756500WATRL000000004K00000000000001055000202252015125545N000000000000U40       000070400K 10000000010000001049           
CUS0475650000104137168003         PALEWICZ BENJAMIN W 1705 WESTON AVE                         000N        CARE OF             
MTR04756500001000000000000000RA              33732745    005800030000000300000520000003NN  NNW 000                       N    
RDG04756500WATRL000000004K00000000000002969000302252015125552N000000000000U40       000070400K 10000000010000002953           
CUS0475650000104137169001         HUDDLER ROBERT LINWO1707 WESTON AVE                         000N        CARE OF             
MTR04756500001000000000000000RA              33732788    005800040000000400000520000003NN  NNW 000                       N    
RDG04756500WATRL000000004K00000000000001660000402252015125557N000000000000U40       000050400K 10000000010000001657           
CUS0475650000104137170009         TUCKER RHONDA L     1709 WESTON AVE                         000N        CARE OF             
MTR04756500001000000000000000RA              33732648    005800050000000500000520000003NN  NNW 000                       N    
RDG04756500WATRL000000004K00000000000002412000502252015125602N000000000000U40       000050400K 10000000010000002394           
CUS0475650000104137171007         DIGGS SHAMIRA       1711 WESTON AVE                         000N        CARE OF             
MTR04756500001000000000000000RA              32769024    005800060000000600000520000003NN  NNW 000                       N    
RDG04756500WATRL000000004K00000000000001169000602252015125606N000000000000U40       000040400K 10000000010000001133           
CUS0475650000104137172005         GILBERT AGNES JEANNE1713 WESTON AVE                         000N        CARE OF             
MTR04756500001000000000000000RA              50788645    005800070000000700000520000003NN  NNW 000                       N    
RDG04756500WATRL000000004K00000000000001510000702252015125612N000000000000U40       000060400K 10000000010000001486           
CUS0475650000104137173003         KUCHNER KAREN M     1715 WESTON AVE                         000N        CARE OF             
MTR04756500001000000000000000RA              23056283    005800080000000800000520000003NN  NNW 000                       N    
RDG04756500WATRL000000004K00000000000000000000000000000000000 000000000000U         000000400  10000000010000005776           
CUS0475650000104137174001         ABBOTT BARBARA BURTO1717 WESTON AVE                         000N        CARE OF             
MTR04756500001000000000000000RA              14903047    005800090000000900000310000003NN  NNW 000                       N    
RDG04756500WATRL000000004K00000000000000000000000000000000000 000000000000U         000000400  10000000010000000701           
CUS0475650000104137175008         FERRARO CHARLES A   1719 WESTON AVE                         000N        CARE OF             
MTR04756500001000000000000000RA              14903042    005800100000001000000310000003NN  NNW 000                       N    
RDG04756500WATRL000000004K00000000000000000000000000000000000 000000000000U         000000400  10000000010000000885           
CUS0475650000104137176006         COVELLY SHAWN C     1721 WESTON AVE                         000N        CARE OF             
MTR04756500001000000000000000RA              01080508    005800110000001100000610000003NN  NNW 000                       N    
RDG04756500WATRL000000004K00000000000000972000802252015125626N000000000000U40       000140400K 10000000010000000943           
CUS0475650000104137177004         SEWELL ARTHUR H     1723 WESTON AVE                         000N        CARE OF             
MTR04756500001000000000000000RA              01082361    005800120000001200000610000003NN  NNW 000                       N    
RDG04756500WATRL000000004K00000000000000489000902252015125631N000000000000U40       000050400K 10000000010000000477           
CUS0475650000104137178002         WELLS FARGO HOME MOR1725 WESTON AVE                         000N        CARE OF             
MTR04756500001000000000000000RA              00140125    005800130000001300000570000003NN  NNW 000                       N    
RDG04756500WATRL000000004K00000000000000527001002252015125635N000000000000U40       000040400K 10000000010000000527           
CUS0475650000104137179000         BENHAM ROBERTA L    1727 WESTON AVE                         000N        CARE OF             
MTR04756500001000000000000000RA              00139997    005800140000001400000570000003NN  NNW 000                       N    
RDG04756500WATRL000000004K00000000000000654001102252015125640N000000000000U40       000050400K 10000000010000000620           
CUS0475650000104137180008         ANDREW J. BINIEK III1729 WESTON AVE                         000N        CARE OF             
MTR04756500001000000000000000RA              38984227    005800150000001500000520000003NN  NNW 000                       N    
RDG04756500WATRL000000004K00000000000000000000000000000000000 000000000000U         000000400  10000000010000000864           
CUS0475650000104137181006         HARTMAN JOY         1731 WESTON AVE                         000N        CARE OF             
MTR04756500001000000000000000RA              26008055    005800160000001600000520000003NN  NNW 000                       N    
RDG04756500WATRL000000004K00000000000000000000000000000000000 000000000000U         000000400  10000000010000002150           
CUS0475650000104137182004         RANA JAVIAD         1733 WESTON AVE                         000N        CARE OF             
MTR04756500001000000000000000RA              29680280    005800170000001700000520000003NN  NNW 000                       N    
RDG04756500WATRL000000004K00000000000000000000000000000000000 000000000000U         000000400  10000000010000006429           
CUS0475650000104137183002         FOBLE STEPHEN J     1735 WESTON AVE                         000N        CARE OF             
MTR04756500001000000000000000RA              01096898    005800180000001800000610000003NN  NNW 000                       N    
RDG04756500WATRL000000004K00000000000000000000000000000000000 000000000000U         000000400  10000000010000001598           
CUS0475650000104137184000         HARLOW EDWARD DOUGLA1737 WESTON AVE                         000N        CARE OF             
MTR04756500001000000000000000RA              20767215    005800190000001900000520000003NN  NNW 000                       N    
RDG04756500WATRL000000004K00000000000002396000202262015121049N000300000010U40       000460400K 10000000010000002928           
CUS0475650000104137185007         SCHREIBER JEFFREY T 1739 WESTON AVE                         000N        CARE OF             
MTR04756500001000000000000000RA              46887907    005800200000002000000520000003NN  NNW 000                       N    
RDG04756500WATRL000000004K00000000000001243000102262015121003N000300000010U40       000000400K 10000000010000001186           
CUS0475650000104137186005         FOWLER AMANDA M     1741 WESTON AVE                         000N        CARE OF             
MTR04756500001000000000000000RA              00140221    005800210000002100000570000003NN  NNW 000                       N    
RDG04756500WATRL000000004K00000000000000947001202252015125718N000000000000U40       000380400K 10000000010000000923           
CUS0475650000104137187003         SCHAFER DAYSON      1743 WESTON AVE                         000N        CARE OF             
MTR04756500001000000000000000RA              50476019    005800220000002200000520000003NN  NNW 000                       N    
RDG04756500WATRL000000004K00000000000000000000000000000000000 000000000000U         000000400  10000000010000001629           
CUS0475650000104137188001         KARP ANYA S B       1745 WESTON AVE                         000N        CARE OF             
MTR04756500001000000000000000RA              32904319    005800230000002300000520000003NN  NNW 000                       N    
RDG04756500WATRL000000004K00000000000002116001302252015125727N000000000000U40       000090400K 10000000010000002116           
CUS0475650000104137189009         KORDECKI WALTER J   1747 WESTON AVE                         000N        CARE OF             
MTR04756500001000000000000000RA              33730529    005800240000002400000520000003NN  NNW 000                       N    
RDG04756500WATRL000000004K00000000000004256005902192015133654N000000000061U40       000170400K 10000000010000004248           
CUS0475650000104137190007         BERGERON ELIZABETH A1749 WESTON AVE                         000N        CARE OF             
MTR04756500001000000000000000RA              44178642    005800250000002500000520000003NN  NNW 000                       N    
RDG04756500WATRL000000004K00000000000001357005802192015133538N000000000092U40       000800400K 10000000010000001349           
CUS0475650000104137191005         MCFARLAND MICHAEL J 1751 WESTON AVE                         000N        CARE OF             
MTR04756500001000000000000000RA              44178611    005800260000002600000520000003NN  NNW 000                       N    
RDG04756500WATRL000000004K00000000000002673005702192015133252N000000000030U40       000380400K 10000000010000002667           
CUS0475650000104137192003         SCHUYLER CLARA T    1753 WESTON AVE                         000N        CARE OF             
MTR04756500001000000000000000RA              44177007    005800270000002700000520000003NN  NNW 000                       N    
RDG04756500WATRL000000004K00000000000001928005602192015133200N000000000010U40       000220400K 10000000010000001924           
CUS0475650000104137193001         FEDERAL HOME LOAN   1755 WESTON AVE                         000N        CARE OF             
MTR04756500001000000000000000RA              33078664    005800280000002800000520000003NN  NNW 000                       N    
RDG04756500WATRL000000004K00000000000002765005502192015133214N000000000051U40       000140400K 10000000010000002765           
CUS0475650000104137194009         SCHMIDT CARLA C     1757 WESTON AVE                         000N        CARE OF             
MTR04756500001000000000000000RA              01080509    005800290000002900000610000003NN  NNW 000                       N    
RDG04756500WATRL000000004K00000000000000764005402192015133045N000000000020U40       000270400K 10000000010000000756           
CUS0475650000104137195006         HUBBS DAVID F,SR    1759 WESTON AVE                         000N        CARE OF             
MTR04756500001000000000000000RA              01077935    005800300000003000000610000003NN  NNW 000                       N    
RDG04756500WATRL000000004K00000000000000265005302192015133018N000000000000U40       000060400K 10000000010000000263           
CUS0475650000104137196004         BARNETT CATHERINE   1761 WESTON AVE                         000N        CARE OF             
MTR04756500001000000000000000RA              10009122    005800310000003100000570000003NN  NNW 000                       N    
RDG04756500WATRL000000004K00000000000000282005202192015133012N000000000010U40       000120400K 10000000010000000277           
CUS0475650000104137197002         JONES MATTHEW       1763 WESTON AVE                         000N        CARE OF             
MTR04756500001000000000000000RA              33733889    005800320000003200000520000003NN  NNW 000                       N    
RDG04756500WATRL000000004K00000000000002654005102192015133000N000000000021U40       000120400K 10000000010000002647           
CUS0475650000104137198000         SVOBODA JOSEPH F    1765 WESTON AVE                         000N        CARE OF             
MTR04756500001000000000000000RA              33732770    005800330000003300000520000003NN  NNW 000                       N    
RDG04756500WATRL000000004K00000000000001067005002192015132914N000000000010U40       000160400K 10000000010000001065           
CUS0475650000104137199008         ADKINS BRIAN D      1767 WESTON AVE                         000N        CARE OF             
MTR04756500001000000000000000RA              33081072    005800340000003400000520000003NN  NNW 000                       N    
RDG04756500WATRL000000004K00000000000002146004902192015132858N000000000020U40       000220400K 10000000010000002140           
CUS0475650000104137200004         HEBLER CHARLES B    1769 WESTON AVE                         000N        CARE OF             
MTR04756500001000000000000000RA              01080507    005800350000003500000610000003NN  NNW 000                       N    
RDG04756500WATRL000000004K00000000000000258004802192015132836N000000000010U40       035290400K 10000000010000000256           
CUS0475650000104137201002         MAE RICHAERDSON     1788 WESTON AVE                         000N        CARE OF             
MTR04756500001000000000000000RA              52288973    005800360000003600000520000003NN  NNW 000                       N    
RDG04756500WATRL000000004K00000000000000997000102192015105723N000000000000U40       000000400K 10000000010000000980           
CUS0475650000104137202000         MERRICK SHAUN P     1786 WESTON AVE                         000N        CARE OF             
MTR04756500001000000000000000RA              50477353    005800370000003700000520000003NN  NNW 000                       N    
RDG04756500WATRL000000004K00000000000001497000202192015105747N000300000010U40       000240400K 10000000010000001456           
CUS0475650000104137203008         RUARK STEVEN M      1784 WESTON AVE                         000N        CARE OF             
MTR04756500001000000000000000RA              23649327    005800380000003800000520000003NN  NNW 000                       N    
RDG04756500WATRL000000004K00000000000004002000302192015105849N000000000000U40       000620400K 10000000010000003987           
CUS0475650000104137204006         HAUCK CAROLE J      1782 WESTON AVE                         000N        CARE OF             
MTR04756500001000000000000000RA              30513330    005800390000003900000520000003NN  NNW 000                       N    
RDG04756500WATRL000000004K00000000000001383000402192015105859N000000000000U40       000100400K 10000000010000001368           
CUS0475650000104137205003         KNIFFIN LAWRENCE    1780 WESTON AVE                         000N        CARE OF             
MTR04756500001000000000000000RA              33733947    005800400000004000000520000003NN  NNW 000                       N    
RDG04756500WATRL000000004K00000000000002323000502192015105943N000000000000U40       000440400K 10000000010000002307           
CUS0475650000104137206001         AMALBERT AISHA M    1778 WESTON AVE                         000N        CARE OF             
MTR04756500001000000000000000RA              33733948    005800410000004100000520000003NN  NNW 000                       N    
RDG04756500WATRL000000004K00000000000002840000602192015105948N000000000000U40       000050400K 10000000010000002822           
CUS0475650000104137207009         STRICKER ROBERT E   1776 WESTON AVE                         000N        CARE OF             
MTR04756500001000000000000000RA              33732331    005800420000004200000520000003NN  NNW 000                       N    
RDG04756500WATRL000000004K00000000000001157000702192015110210N000000000000U40       001420400K 10000000010000001149           
CUS0475650000104137208007         WOAH-TEE ALICE N    1774 WESTON AVE                         000N        CARE OF             
MTR04756500001000000000000000RA              44173538    005800430000004300000520000003NN  NNW 000                       N    
RDG04756500WATRL000000004K00000000000002190000802192015110223N000000000000U40       000130400K 10000000010000002163           
CUS0475650000104137209005         STROVEL ALLISON     1772 WESTON AVE                         000N        CARE OF             
MTR04756500001000000000000000RA              30527723    005800440000004400000520000003NN  NNW 000                       N    
RDG04756500WATRL000000004K00000000000002337000902192015110254N000000000000U40       000310400K 10000000010000002333           
CUS0475650000104137210003         MACINTYRE KAREN A   1770 WESTON AVE                         000N        CARE OF             
MTR04756500001000000000000000RA              30527742    005800450000004500000520000003NN  NNW 000                       N    
RDG04756500WATRL000000004K00000000000002286001002192015110305N000000000000U40       000110400K 10000000010000002278           
CUS0475650000104137211001         BROWNING DOROTHY    1768 WESTON AVE                         000N        CARE OF             
MTR04756500001000000000000000RA              00129763    005800460000004600000570000003NN  NNW 000                       N    
RDG04756500WATRL000000004K00000000000000505001102192015110407N000300000010U40       000620400K 10000000010000000492           
CUS0475650000104137212009         FERTITTA FRANK A    1766 WESTON AVE                         000N        CARE OF             
MTR04756500001000000000000000RA              33732771    005800470000004700000520000003NN  NNW 000                       N    
RDG04756500WATRL000000004K00000000000001594001202192015110543N000300000061U40       000500400K 10000000010000001561           
CUS0475650000104137213007         MCNALLY NAITOSHA    1762 WESTON AVE                         000N        CARE OF             
MTR04756500001000000000000000RA              33733888    005800480000004800000520000003NN  NNW 000                       N    
RDG04756500WATRL000000004K00000000000002085001402192015111029N000000000031U40       000310400K 10000000010000002028           
CUS0475650000104137214005         MOORE JESSICA C     1760 WESTON AVE                         000N        CARE OF             
MTR04756500001000000000000000RA              52286792    005800490000004900000520000003NN  NNW 000                       N    
RDG04756500WATRL000000004K00000000000001193001302192015110925N000000000000U40       002220400K 10000000010000001171           
CUS0475650000104137215002         DANIEL & MICHAEL HOM1758 WESTON AVE                         000N        CARE OF             
MTR04756500001000000000000000RA              33733901    005800500000005000000520000003NN  NNW 000                       N    
RDG04756500WATRL000000004K00000000000003386001502192015111253N000000000000U40       001440400K 10000000010000003360           
CUS0475650000104137216000         BOWEN LINDA MAY/LLOY1756 WESTON AVE                         000N        CARE OF             
MTR04756500001000000000000000RA              33733642    005800510000005100000520000003NN  NNW 000                       N    
RDG04756500WATRL000000004K00000000000001445001602192015111310N000000000000U40       000170400K 10000000010000001415           
CUS0475650000104137217008         SECRETARY OF HOUSING1754 WESTON AVE                         000N        CARE OF             
MTR04756500001000000000000000RA              33083975    005800520000005200000520000003NN  NNW 000                       N    
RDG04756500WATRL000000004K00000000000000973001702192015111544N000000000000U40       001540400K 10000000010000000973           
CUS0475650000104137218006         ELIZABETH HINES     1752 WESTON AVE                         000N        CARE OF             
MTR04756500001000000000000000RA              10008172    005800530000005300000570000003NN  NNW 000                       N    
RDG04756500WATRL000000004K00000000000000226001802192015111555N000100000010U40       000110400K 10000000010000000226           
CUS0475650000104137219004         BANASKY MARY R      1750 WESTON AVE                         000N        CARE OF             
MTR04756500001000000000000000RA              50787525    005800540000005400000520000003NN  NNW 000                       N    
RDG04756500WATRL000000004K00000000000002131001902192015111844N000000000000U40       001690400K 10000000010000002108           
CUS0475650000104137220002         SHIELDS KIM M       1748 WESTON AVE                         000N        CARE OF             
MTR04756500001000000000000000RA              50787528    005800550000005500000520000003NN  NNW 000                       N    
RDG04756500WATRL000000004K00000000000000844002002192015111850N000000000000U40       000060400K 10000000010000000827           
CUS0475650000104137221000         SCHNIREL ABIGAIL D  1746 WESTON AVE                         000N        CARE OF             
MTR04756500001000000000000000RA              10021395    005800560000005600000570000003NN  NNW 000                       N    
RDG04756500WATRL000000004K00000000000000185002102192015112127N000300000010U40       001570400K 10000000010000000160           
CUS0475650000104137222008         PREISEL ROBERT JOHN 1744 WESTON AVE                         000N        CARE OF             
MTR04756500001000000000000000RA              26017797    005800570000005700000520000003NN  NNW 000                       N    
RDG04756500WATRL000000004K00000000000005077002202192015112242N000000000010U40       000750400K 10000000010000005057           
CUS0475650000104137223006         ROGERS INGRID       1742 WESTON AVE                         000N        CARE OF             
MTR04756500001000000000000000RA              10010095    005800580000005800000570000003NN  NNW 000                       N    
RDG04756500WATRL000000004K00000000000000308002302192015112515N000000000000U40       001530400K 10000000010000000285           
CUS0475650000104137224004         MUELLER KAREN AGNES 1740 WESTON AVE                         000N        CARE OF             
MTR04756500001000000000000000RA              23058934    005800590000005900000520000003NN  NNW 000                       N    
RDG04756500WATRL000000004K00000000000004481002402192015112758N000000000000U40       001630400K 10000000010000004462           
CUS0475650000104137225001         SMF LLC             1738 WESTON AVE                         000N        CARE OF             
MTR04756500001000000000000000RA              23644292    005800600000006000000520000003NN  NNW 000                       N    
RDG04756500WATRL000000004K00000000000003722002502192015113146N000000000000U40       002280400K 10000000010000003694           
CUS0475650000104137226009         XU HUIJUN           1736 WESTON AVE                         000N        CARE OF             
MTR04756500001000000000000000RA              40781369    005800610000006100000520000003NN  NNW 000                       N    
RDG04756500WATRL000000004K00000000000001602002602192015113830N000000000000U40       004040400K 10000000010000001582           
CUS0475650000104137227007         RUHL GEORGE J,3RD   1734 WESTON AVE                         000N        CARE OF             
MTR04756500001000000000000000RA              14917013    005800620000006200000310000003NN  NNW 000                       N    
RDG04756500WATRL000000004K00000000000000180002702192015113835N000000000000U40       000050400K 10000000010000000160           
CUS0475650000104137228005         SHIFFLETT ELLIS J   1732 WESTON AVE                         000N        CARE OF             
MTR04756500001000000000000000RA              14902486    005800630000006300000310000003NN  NNW 000                       N    
RDG04756500WATRL000000004K00000000000000513002802192015113911N000000000000U40       000360400K 10000000010000000495           
CUS0475650000104137229003         JUDITH ANNAN        1730 WESTON AVE                         000N        CARE OF             
MTR04756500001000000000000000RA              14902486    005800640000006400000310000003NN  NNW 000                       N    
RDG04756500WATRL000000004K00000000000000221002902192015113919N000000000000U40       000080400K 10000000010000000204           
CUS0475650000104137230001         HOMA DANIEL         1728 WESTON AVE                         000N        CARE OF             
MTR04756500001000000000000000RA              41080079    005800650000006500000520000003NN  NNW 000                       N    
RDG04756500WATRL000000004K00000000000001560003002192015113938N000300000020U40       000190400K 10000000010000001540           
CUS0475650000104137231009         JENKINS DOLORES     1726 WESTON AVE                         000N        CARE OF             
MTR04756500001000000000000000RA              27816690    005800660000006600000520000003NN  NNW 000                       N    
RDG04756500WATRL000000004K00000000000000678003102192015114023N000000000021U40       000270400K 10000000010000000668           
CUS0475650000104137232007         NELSON RICHARD B    1724 WESTON AVE                         000N        CARE OF             
MTR04756500001000000000000000RA              14920590    005800670000006700000310000003NN  NNW 000                       N    
RDG04756500WATRL000000004K00000000000000610003202192015114042N000000000000U40       000190400K 10000000010000000599           
CUS0475650000104137233005         HILL CASSANDRA Y    1722 WESTON AVE                         000N        CARE OF             
MTR04756500001000000000000000RA              33082113    005800680000006800000520000003NN  NNW 000                       N    
RDG04756500WATRL000000004K00000000000001718003302192015114114N000000000000U40       000320400K 10000000010000001708           
CUS0475650000104137234003         LEO JONATHAN ARTHUR 1720 WESTON AVE                         000N        CARE OF             
MTR04756500001000000000000000RA              33082078    005800690000006900000520000003NN  NNW 000                       N    
RDG04756500WATRL000000004K00000000000002181003402192015114138N000000000000U40       000240400K 10000000010000002173           
CUS0475650000104137235000         PERDUE GEORGE T,4TH 1718 WESTON AVE                         000N        CARE OF             
MTR04756500001000000000000000RA              27815581    005800700000007000000520000003NN  NNW 000                       N    
RDG04756500WATRL000000004K00000000000002488003502192015114305N000000000000U40       000870400K 10000000010000002475           
CUS0475650000104137236008         RONALD H. WELLS     1716 WESTON AVE                         000N        CARE OF             
MTR04756500001000000000000000RA              46884983    005800710000007100000520000003NN  NNW 000                       N    
RDG04756500WATRL000000004K00000000000001452003602192015122400N000000000040U40       024550400K 10000000010000001442           
CUS0475650000104137237006         CRAMER ALBERT G     1714 WESTON AVE                         000N        CARE OF             
MTR04756500001000000000000000RA              33733643    005800720000007200000520000003NN  NNW 000                       N    
RDG04756500WATRL000000004K00000000000001278003702192015122416N000000000010U40       000160400K 10000000010000001274           
CUS0475650000104137238004         HERBST ALBERT J     1712 WESTON AVE                         000N        CARE OF             
MTR04756500001000000000000000RA              33081099    005800730000007300000520000003NN  NNW 000                       N    
RDG04756500WATRL000000004K00000000000003035003802192015122629N000000000031U40       000280400K 10000000010000003019           
CUS0475650000104137239002         KNIGHT WILLIAM      1710 WESTON AVE                         000N        CARE OF             
MTR04756500001000000000000000RA              27832147    005800740000007400000520000003NN  NNW 000                       N    
RDG04756500WATRL000000004K00000000000002923003902192015122702N000000000040U40       000330400K 10000000010000002915           
CUS0475650000104137240000         HIRTH WAYNE L       1708 WESTON AVE                         000N        CARE OF             
MTR04756500001000000000000000RA              74689335    005800750000007500000350000003NN  NNW 000                       N    
RDG04756500WATRL000000004K00000000000000142004002192015122724N000000000030U40       000220400K 10000000010000000136           
CUS0475650000104137241008         SCALLY PATRICK JOSEP1706 WESTON AVE                         000N        CARE OF             
MTR04756500001000000000000000RA              48595946    005800760000007600000520000003NN  NNW 000                       N    
RDG04756500WATRL000000004K00000000000001644004102192015122829N000000000011U40       000120400K 10000000010000001638           
CUS0475650000104137242006         VACEK PAUL J,JR     1704 WESTON AVE                         000N        CARE OF             
MTR04756500001000000000000000RA              99187658    005800770000007700000570000003NN  NNW 000                       N    
RDG04756500WATRL000000004K00000000000000467004202192015122817N000000000051U40       000220400K 10000000010000000463           
CUS0475650000104137243004         WHITE THOMAS G      1702 WESTON AVE                         000N        CARE OF             
MTR04756500001000000000000000RA              33733644    005800780000007800000520000003NN  NNW 000                       N    
RDG04756500WATRL000000004K00000000000001660004302192015122843N000000000010U40       000140400K 10000000010000001658           
CUS0475650000104137244002         MORFE CYNTHIA LEE   1700 WESTON AVE                         000N        CARE OF             
MTR04756500001000000000000000RA              33733640    005800790000007900000520000003NN  NNW 000                       N    
RDG04756500WATRL000000004K00000000000002597004402192015122903N000000000030U40       000200400K 10000000010000002591           
CUS0475650000104137245009         FOUR STAR COMPANY   8428 WILLOW OAK RD                      000N        CARE OF             
MTR04756500001000000000000000RA              23842784    005800800000008000000520000003NN  NNW 000   VACANT / LOT        N    
RDG04756500WATRL000000004K00000000000000000004502192015122916N000000000000U40       000130400K 10000000010000000000           
CUS0475650000104137246007         FOUR STAR COMPANY   8430 WILLOW OAK RD                      000N        CARE OF             
MTR04756500001000000000000000RA              74690962    005800810000008100000350000003NN  NNW 000                       N    
RDG04756500WATRL000000004K00000000000000000004602192015122924N000000000000U40       000080400K 10000000010000000000           
CUS0475650000104137247005         FOUR STAR COMPANY   8432 WILLOW OAK RD                      000N        CARE OF             
MTR04756500001000000000000000RA              99289680    005800820000008200000570000003NN  NNW 000                       N    
RDG04756500WATRL000000004K00000000000000946004702192015122947N000000000010U40       000230400K 10000000010000000942           
CUS0475650000104135642009         SCHAAF CYNTHIA      1735 JOAN AVE                           000N        CARE OF             
MTR04756500001000000000000000RA              25782004    005800830000008300000520000003NN  NNW 000                       N    
RDG04756500WATRL000000004K00000000000003210001402252015125807N000300000011U40       000400400K 10000000010000003184           
CUS0475650000104135643007         WHITE STEPHEN M     1737 JOAN AVE                           000N        CARE OF             
MTR04756500001000000000000000RA              33730768    005800840000008400000520000003NN  NNW 000                       N    
RDG04756500WATRL000000004K00000000000002601001502252015125823N000000000023U40       000160400K 10000000010000002566           
CUS0475650000104135644005         KRESS DARLENE C     1739 JOAN AVE                           000N        CARE OF             
MTR04756500001000000000000000RA              10021658    005800850000008500000570000003NN  NNW 000                       N    
RDG04756500WATRL000000004K00000000000000072000102252015102933N000000000000U40       000000400K 10000000010000000065           
CUS0475650000104135645002         KELLY JOSEPH F      1741 JOAN AVE                           000N        CARE OF             
MTR04756500001000000000000000RA              10021396    005800860000008600000570000003NN  NNW 000                       N    
RDG04756500WATRL000000004K00000000000000112000202252015102942N000000000000U40       000090400K 10000000010000000098           
CUS0475650000104135646000         SIRAJ SHOEB Z       1743 JOAN AVE                           000N        CARE OF             
MTR04756500001000000000000000RA              36691951    005800870000008700000520000003NN  NNW 000                       N    
RDG04756500WATRL000000004K00000000000002939001602252015125836N000000000033U40       000130400K 10000000010000002925           
CUS0475650000104135647008         LINDSEY CLAUDIA J   1745 JOAN AVE                           000N        CARE OF             
MTR04756500001000000000000000RA              36691955    005800880000008800000520000003NN  NNW 000                       N    
RDG04756500WATRL000000004K00000000000002082001702252015125841N000000000000U40       000050400K 10000000010000002061           
CUS0475650000104135648006         ERIKA ABRAMS        1747 JOAN AVE                           000N        CARE OF             
MTR04756500001000000000000000RA              33730769    005800890000008900000520000003NN  NNW 000                       N    
RDG04756500WATRL000000004K00000000000000000000000000000000000 000000000000U         000000400  10000000010000002046           
CUS0475650000104135649004         ANDERSON DEAN A     1749 JOAN AVE                           000N        CARE OF             
MTR04756500001000000000000000RA              52286258    005800900000009000000520000003NN  NNW 000                       N    
RDG04756500WATRL000000004K00000000000000000000000000000000000 000000000000U         000000400  10000000010000001190           
CUS0475650000104135650002         GENEMANS ANDREAS    1751 JOAN AVE                           000N        CARE OF             
MTR04756500001000000000000000RA              10009849    005800910000009100000570000003NN  NNW 000                       N    
RDG04756500WATRL000000004K00000000000000231000602252015103648N000000000000U40       000980400K 10000000010000000218           
CUS0475650000104135651000         REIN GEORGE THEODORE1753 JOAN AVE                           000N        CARE OF             
MTR04756500001000000000000000RA              27814342    005800920000009200000520000003NN  NNW 000                       N    
RDG04756500WATRL000000004K00000000000002951000702252015104005N000000000000U40       001970400K 10000000010000002922           
CUS0475650000104135652008         TALBERT REBECCA N   1755 JOAN AVE                           000N        CARE OF             
MTR04756500001000000000000000RA              31582016    005800930000009300000520000003NN  NNW 000                       N    
RDG04756500WATRL000000004K00000000000001041001802252015125905N000000000001U40       000240400K 10000000010000001020           
CUS0475650000104135653006         DANNY WU            1757 JOAN AVE                           000N        CARE OF             
MTR04756500001000000000000000RA              50786491    005800940000009400000520000003NN  NNW 000                       N    
RDG04756500WATRL000000004K00000000000000721001902252015124351N000300000010U40       000060400K 10000000010000000726           
CUS0475650000104135654004         BASEMEN JUDITH ELLEN1759 JOAN AVE                           000N        CARE OF             
MTR04756500001000000000000000RA              31583900    005800950000009500000520000003NN  NNW 000                       N    
RDG04756500WATRL000000004K00000000000002893002002252015125951N000000000001U40       000460400K 10000000010000002869           
CUS0475650000104135655001         PHELPS SARAH R      1761 JOAN AVE                           000N        CARE OF             
MTR04756500001000000000000000RA              01081694    005800960000009600000610000003NN  NNW 000                       N    
RDG04756500WATRL000000004K00000000000000897001102252015104513N000000000000U40       000300400K 10000000010000000884           
CUS0475650000104135656009         WHEELER REGINA M    1763 JOAN AVE                           000N        CARE OF             
MTR04756500001000000000000000RA              01070284    005800970000009700000610000003NN  NNW 000                       N    
RDG04756500WATRL000000004K00000000000000452001202252015104541N000000000000U40       000280400K 10000000010000000444           
CUS0475650000104135657007         LAKE DEBORAH P      1765 JOAN AVE                           000N        CARE OF             
MTR04756500001000000000000000RA              33730779    005800980000009800000520000003NN  NNW 000                       N    
RDG04756500WATRL000000004K00000000000000934001302252015104554N000000000000U40       000130400K 10000000010000000926           
CUS0475650000104135658005         STOLL JEAN LEE      1767 JOAN AVE                           000N        CARE OF             
MTR04756500001000000000000000RA              35099109    005800990000009900000520000003NN  NNW 000                       N    
RDG04756500WATRL000000004K00000000000001276007602192015140554N000000000010U40       000150400K 10000000010000001272           
CUS0475650000104135659003         GRAUEL DAVID M      1769 JOAN AVE                           000N        CARE OF             
MTR04756500001000000000000000RA              33730276    005801000000010000000520000003NN  NNW 000                       N    
RDG04756500WATRL000000004K00000000000001932007502192015140539N000000000030U40       000670400K 10000000010000001923           
CUS0475650000104135660001         MAKHOMENKA YURY     1771 JOAN AVE                           000N        CARE OF             
MTR04756500001000000000000000RA              33730799    005801010000010100000520000003NN  NNW 000                       N    
RDG04756500WATRL000000004K00000000000002295007402192015140147N000000000020U40       000200400K 10000000010000002280           
CUS0475650000104135661009         CAREY MAUREEN M     1773 JOAN AVE                           000N        CARE OF             
MTR04756500001000000000000000RA              33730765    005801020000010200000520000003NN  NNW 000                       N    
RDG04756500WATRL000000004K00000000000004182007302192015140127N000000000092U40       000100400K 10000000010000004169           
CUS0475650000104135662007         BARNABA CHRISTOPHER 1775 JOAN AVE                           000N        CARE OF             
MTR04756500001000000000000000RA              44175038    005801030000010300000520000003NN  NNW 000                       N    
RDG04756500WATRL000000004K00000000000002540007202192015140432N000000000099U40       000990400K 10000000010000002500           
CUS0475650000104135663005         DARNALL JOYCE Y     1777 JOAN AVE                           000N        CARE OF             
MTR04756500001000000000000000RA              27832844    005801040000010400000520000003NN  NNW 000                       N    
RDG04756500WATRL000000004K00000000000001565007102192015135709N000000000033U40       000350400K 10000000010000001560           
CUS0475650000104135664003         WHITMAN NATALIA B   1779 JOAN AVE                           000N        CARE OF             
MTR04756500001000000000000000RA              45381885    005801050000010500000520000003NN  NNW 000                       N    
RDG04756500WATRL000000004K00000000000001562007002192015135455N000000000000U40       000120400K 10000000010000001542           
CUS0475650000104135665000         DAUGHTON KEITH M    1781 JOAN AVE                           000N        CARE OF             
MTR04756500001000000000000000RA              24232680    005801060000010600000520000003NN  NNW 000                       N    
RDG04756500WATRL000000004K00000000000003658006902192015135443N000000000000U40       000150400K 10000000010000003649           
CUS0475650000104135666008         CODY DODSON         1783 JOAN AVE                           000N        CARE OF             
MTR04756500001000000000000000RA              24232575    005801070000010700000520000003NN  NNW 000                       N    
RDG04756500WATRL000000004K00000000000003632006802192015135428N000000000000U40       000130400K 10000000010000003617           
CUS0475650000104135667006         BUCHMAN MARTHA L    1785 JOAN AVE                           000N        CARE OF             
MTR04756500001000000000000000RA              54351256    005801080000010800000520000003NN  NNW 000                       N    
RDG04756500WATRL000000004K00000000000000682006702192015135415N000000000022U40       000230400K 10000000010000000671           
CUS0475650000104135668004         COX GILBERT         1787 JOAN AVE                           000N        CARE OF             
MTR04756500001000000000000000RA              00140220    005801090000010900000570000003NN  NNW 000                       N    
RDG04756500WATRL000000004K00000000000002139006602192015135315N000000000000U40       000270400K 10000000010000002110           
CUS0475650000104135669002         WALKER CHRISTOPHER A1789 JOAN AVE                           000N        CARE OF             
MTR04756500001000000000000000RA              01070288    005801100000011000000610000003NN  NNW 000   VACANT / LOT        N    
RDG04756500WATRL000000004K00000000000000375006502192015135248N000000000011U40       000180400K 10000000010000000375           
CUS0475650000104135670000         PRIETO-ALONSO ISABEL1791 JOAN AVE                           000N        CARE OF             
MTR04756500001000000000000000RA              33730790    005801110000011100000520000003NN  NNW 000                       N    
RDG04756500WATRL000000004K00000000000002500006402192015135052N000300000010U40       000420400K 10000000010000002469           
CUS0475650000104135671008         SHIPLEY HARRY C     1793 JOAN AVE                           000N        CARE OF             
MTR04756500001000000000000000RA              9691312     005801120000011200000570000003NN  NNW 000                       N    
RDG04756500WATRL000000004K00000000000005295006302192015135010N000400000042U40       001930400K 10000000010000005294           
CUS0475650000104135672006         BARRON WAYNE A      1795 JOAN AVE                           000N        CARE OF             
MTR04756500001000000000000000RA              33730199    005801130000011300000520000003NN  NNW 000                       N    
RDG04756500WATRL000000004K00000000000003229006202192015134542N000000000000U40       000960400K 10000000010000003200           
CUS0475650000104135673004         AVIS SANDRA         1797 JOAN AVE                           000N        CARE OF             
MTR04756500001000000000000000RA              26010103    005801140000011400000520000003NN  NNW 000                       N    
RDG04756500WATRL000000004K00000000000002602006102192015134406N000000000000U40       001430400K 10000000010000002596           
CUS0475650000104135674002         JOHN E MCMAHON      1799 JOAN AVE                           000N        CARE OF             
MTR04756500001000000000000000RA              11331657    005801150000011500000570000003NN  NNW 000                       N    
RDG04756500WATRL000000004K00000000000002541006002192015134143N000000000000U40       002890400K 10000000010000002511           
CUS0475650000104135675009         SCOTT CRAIG DRUMMOND1798 JOAN AVE                           000N        CARE OF             
MTR04756500001000000000000000RA              33730275    005801160000011600000520000003NN  NNW 000                       N    
RDG04756500WATRL000000004K00000000000003482003602252015133119N000000000000U40       004310400K 10000000010000003466           
CUS0475650000104135676007         WALKER JOYCE L      1796 JOAN AVE                           000N        CARE OF             
MTR04756500001000000000000000RA              26001797    005801170000011700000520000003NN  NNW 000                       N    
RDG04756500WATRL000000004K00000000000001952003402252015132358N000000000000U40       001730400K 10000000010000001947           
CUS0475650000104135677005         LINDSAY RONALD E,JR 1794 JOAN AVE                           000N        CARE OF             
MTR04756500001000000000000000RA              19461258    005801180000011800000520000003NN  NNW 000                       N    
RDG04756500WATRL000000004K00000000000001747003502252015132408N000000000000U40       000100400K 10000000010000001747           
CUS0475650000104135678003         BRANDON DONALD      1792 JOAN AVE                           000N        CARE OF             
MTR04756500001000000000000000RA              33730762    005801190000011900000520000003NN  NNW 000                       N    
RDG04756500WATRL000000004K00000000000004447003302252015132105N000000000000U40       012740400K 10000000010000004427           
CUS0475650000104135679001         DONHAUSER ROBERT C  1790 JOAN AVE                           000N        CARE OF             
MTR04756500001000000000000000RA              9685709     005801200000012000000570000003NN  NNW 000                       N    
RDG04756500WATRL000000004K00000000000005397003702252015133507N000000000000U40       002280400K 10000000010000005397           
CUS0475650000104135680009         CERNY RICHARD W     1788 JOAN AVE                           000N        CARE OF             
MTR04756500001000000000000000RA              9688485     005801210000012100000570000003NN  NNW 000                       N    
RDG04756500WATRL000000004K00000000000005714003802252015133521N000000000000U40       000140400K 10000000010000005691           
CUS0475650000104135681007         MEEKINS STEPHANIE   1786 JOAN AVE                           000N        CARE OF             
MTR04756500001000000000000000RA              33730771    005801220000012200000520000003NN  NNW 000                       N    
RDG04756500WATRL000000004K00000000000002738003902252015134627N000000000000U40       006660400K 10000000010000002720           
CUS0475650000104135682005         HIRSCH PAMELA A     1784 JOAN AVE                           000N        CARE OF             
MTR04756500001000000000000000RA              14910559    005801230000012300000310000003NY  NNW 000                       N    
MTM0475650014910559    COVERED N SNOW ICE                                                                                     
RDG04756500WATRL000000004K00000000000000306004002252015134653N000000000000U40       000260400K 10000000010000000295           
CUS0475650000104135683003         MUTH KRISTY L       1782 JOAN AVE                           000N        CARE OF             
MTR04756500001000000000000000RA              44176826    005801240000012400000520000003NN  NNW 000                       N    
RDG04756500WATRL000000004K00000000000001702001802252015110148N000000000000U40       000240400K 10000000010000001660           
CUS0475650000104135684001         GREEN JEFFREY DARDIS1780 JOAN AVE                           000N        CARE OF             
MTR04756500001000000000000000RA              44176825    005801250000012500000520000003NN  NNW 000                       N    
RDG04756500WATRL000000004K00000000000001357001702252015110124N000300000051U40       000850400K 10000000010000001332           
CUS0475650000104135685008         SMITH DAVID M,2ND   1778 JOAN AVE                           000N        CARE OF             
MTR04756500001000000000000000RA              11428323    005801260000012600000570000003NN  NNW 000                       N    
RDG04756500WATRL000000004K00000000000004081001602252015105922N000000000000U40       005030400K 10000000010000004050           
CUS0475650000104135686006         ABRAHAM KOSHY       1776 JOAN AVE                           000N        CARE OF             
MTR04756500001000000000000000RA              44178485    005801270000012700000520000003NN  NNW 000                       N    
RDG04756500WATRL000000004K00000000000001789001502252015105059N000000000000U40       000100400K 10000000010000001747           
CUS0475650000104135687004         LIANG ZHI JIAN      1774 JOAN AVE                           000N        CARE OF             
MTR04756500001000000000000000RA              44178483    005801280000012800000520000003NN  NNW 000                       N    
RDG04756500WATRL000000004K00000000000001757001402252015105049N000000000000U40       002950400K 10000000010000001726           
CUS0475650000104135688002         CORDELL BENJAMIN DAN1772 JOAN AVE                           000N        CARE OF             
MTR04756500001000000000000000RA              24232548    005801290000012900000520000003NN  NNW 000                       N    
RDG04756500WATRL000000004K00000000000004085000102022015080530N000000000000N27       000000400K 10000000010000004070           
CUS0475650000104135689000         CALKINS KATHLEEN M  1770 JOAN AVE                           000N        CARE OF             
MTR04756500001000000000000000RA              30519575    005801300000013000000520000003NN  NNW 000                       N    
RDG04756500WATRL000000004K00000000000001790000202022015080534N000000000000N27       000040400K 10000000010000001760           
CUS0475650000104135690008         WARNER LAURIE E     1768 JOAN AVE                           000N        CARE OF             
MTR04756500001000000000000000RA              33730377    005801310000013100000520000003NN  NNW 000                       N    
RDG04756500WATRL000000004K00000000000002602000302022015080539N000000000000N27       000050400K 10000000010000002581           
CUS0475650000104135691006         PENCZEK NORMAN A    1766 JOAN AVE                           000N        CARE OF             
MTR04756500001000000000000000RA              33730777    005801320000013200000520000003NN  NNW 000                       N    
RDG04756500WATRL000000004K00000000000001408000402022015080543N000000000000N27       000040400K 10000000010000001406           
CUS0475650000104135692004         WEISMAN KRISTIN E   1764 JOAN AVE                           000N        CARE OF             
MTR04756500001000000000000000RA              23644962    005801330000013300000520000003NN  NNW 000                       N    
RDG04756500WATRL000000004K00000000000003204000502022015080548N000000000000N27       000050400K 10000000010000003181           
CUS0475650000104135693002         DAVIS KENNETH       1762 JOAN AVE                           000N        CARE OF             
MTR04756500001000000000000000RA              33730470    005801340000013400000520000003NN  NNW 000                       N    
RDG04756500WATRL000000004K00000000000003259000602022015080554N000000000000N27       000060400K 10000000010000003241           
CUS0475650000104135694000         CHILDS CHRISTIAN    1760 JOAN AVE                           000N        CARE OF             
MTR04756500001000000000000000RA              33730760    005801350000013500000520000003NN  NNW 000                       N    
RDG04756500WATRL000000004K00000000000002074000702022015080558N000000000000N27       000040400K 10000000010000002056           
CUS0475650000104135695007         SWETZ SUSAN REGINA  1758 JOAN AVE                           000N        CARE OF             
MTR04756500001000000000000000RA              45375192    005801360000013600000520000003NN  NNW 000                       N    
RDG04756500WATRL000000004K00000000000001312000802022015080607N000400000010N27       000090400K 10000000010000001308           
CUS0475650000104135696005         WINTERSTEIN WAYNE T 1756 JOAN AVE                           000N        CARE OF             
MTR04756500001000000000000000RA              26013182    005801370000013700000520000003NN  NNW 000                       N    
RDG04756500WATRL000000004K00000000000004935000902022015080613N000000000000N27       000060400K 10000000010000004910           
CUS0475650000104135697003         ERICSON JOANN H     1754 JOAN AVE                           000N        CARE OF             
MTR04756500001000000000000000RA              01104383    005801380000013800000610000003NN  NNW 000                       N    
RDG04756500WATRL000000004K00000000000000277001002022015080615N000000000000N27       000020400K 10000000010000000273           
CUS0475650000104135698001         BAYFIELD ENTERPRISES1752 JOAN AVE                           000N        CARE OF             
MTR04756500001000000000000000RA              01104379    005801390000013900000610000003NN  NNW 000                       N    
RDG04756500WATRL000000004K00000000000001199001102022015080619N000000000000N27       000040400K 10000000010000001172           
CUS0475650000104135699009         BOWMAN ROBERT JOHN  1750 JOAN AVE                           000N        CARE OF             
MTR04756500001000000000000000RA              00130925    005801400000014000000570000003NN  NNW 000                       N    
RDG04756500WATRL000000004K00000000000001366001202022015080622N000000000000N27       000030400K 10000000010000001342           
CUS0475650000104135700005         BHALLA MADHU        1748 JOAN AVE                           000N        CARE OF             
MTR04756500001000000000000000RA              41082592    005801410000014100000520000003NN  NNW 000                       N    
RDG04756500WATRL000000004K00000000000000958001302022015080721N000000000011N27       000170400K 10000000010000000953           
CUS0475650000104135701003         OKKEMA FAITH A      1746 JOAN AVE                           000N        CARE OF             
MTR04756500001000000000000000RA              54351987    005801420000014200000520000003NN  NNW 000                       N    
RDG04756500WATRL000000004K00000000000000625001402022015080704N000000000000N27       000330400K 10000000010000000615           
CUS0475650000104135702001         OKONSKI DERRICK A   1744 JOAN AVE                           000N        CARE OF             
MTR04756500001000000000000000RA              33730792    005801430000014300000520000003NN  NNW 000                       N    
RDG04756500WATRL000000004K00000000000002468001502022015080732N000000000000N27       000110400K 10000000010000002450           
CUS0475650000104135703009         GETTIER SOPHIE B    8411 WILLOW OAK RD                      000N        CARE OF             
MTR04756500001000000000000000RA              33730829    005801440000014400000520000003NN  NNW 000                       N    
RDG04756500WATRL000000004K00000000000001311001602022015080737N000000000000N27       000050400K 10000000010000001309           
CUS0475650000104135704007         CHIHJL TSIADN       8413 WILLOW OAK RD                      000N        CARE OF             
MTR04756500001000000000000000RA              33730915    005801450000014500000520000003NN  NNW 000                       N    
RDG04756500WATRL000000004K00000000000001840001702022015080749N000000000000N27       000120400K 10000000010000001832           
CUS0475650000104135705004         HARPER SHALONDA     8415 WILLOW OAK RD                      000N        CARE OF             
MTR04756500001000000000000000RA              33730824    005801460000014600000520000003NN  NNW 000                       N    
RDG04756500WATRL000000004K00000000000002835001802022015080808N000000000000N27       000190400K 10000000010000002806           
CUS0475650000104135706002         ROBINSON CHERENZIA  8417 WILLOW OAK RD                      000N        CARE OF             
MTR04756500001000000000000000RA              33730929    005801470000014700000520000003NN  NNW 000                       N    
RDG04756500WATRL000000004K00000000000002767001902022015080814N000000000000N27       000060400K 10000000010000002756           
CUS0475650000104135707000         MARTINEZ BERTHA ADEL8419 WILLOW OAK RD                      000N        CARE OF             
MTR04756500001000000000000000RA              32903158    005801480000014800000520000003NN  NNW 000                       N    
RDG04756500WATRL000000004K00000000000001657002002022015080819N000000000000N27       000050400K 10000000010000001650           
CUS0475650000104135708008         WALTON BARRY K      8421 WILLOW OAK RD                      000N        CARE OF             
MTR04756500001000000000000000RA              32903343    005801490000014900000520000003NN  NNW 000                       N    
RDG04756500WATRL000000004K00000000000002559002102022015080828N000000000000N27       000090400K 10000000010000002543           
CUS0475650000104135709006         STREET CAROL A      8423 WILLOW OAK RD                      000N        CARE OF             
MTR04756500001000000000000000RA              33730967    005801500000015000000520000003NN  NNW 000                       N    
RDG04756500WATRL000000004K00000000000002138002202022015080835N000000000000N27       000070400K 10000000010000002127           
CUS0475650000104135710004         HOWELL GORDON J     8425 WILLOW OAK RD                      000N        CARE OF             
MTR04756500001000000000000000RA              33730825    005801510000015100000520000003NN  NNW 000                       N    
RDG04756500WATRL000000004K00000000000002824002302022015080903N000000000000N27       000280400K 10000000010000002813           
CUS0475650000104135711002         ORELLANA RENE       8427 WILLOW OAK RD                      000N        CARE OF             
MTR04756500001000000000000000RA              33730974    005801520000015200000520000003NN  NNW 000                       N    
RDG04756500WATRL000000004K00000000000002841002402022015080909N000000000000N27       000060400K 10000000010000002809           
CUS0475650000104135712000         MEYD ELIZABETH M    8429 WILLOW OAK RD                      000N        CARE OF             
MTR04756500001000000000000000RA              38983804    005801530000015300000520000003NN  NNW 000                       N    
RDG04756500WATRL000000004K00000000000001102002502022015080912N000000000000N27       000030400K 10000000010000001095           
CUS0475650000104135713008         ERDMAN CATHERINE THO8431 WILLOW OAK RD                      000N        CARE OF             
MTR04756500001000000000000000RA              33730828    005801540000015400000520000003NN  NNW 000                       N    
RDG04756500WATRL000000004K00000000000001572002602022015080920N000000000000N27       000080400K 10000000010000001566           
CUS0475650000104135714006         WIEDE DANA          8433 WILLOW OAK RD                      000N        CARE OF             
MTR04756500001000000000000000RA              31587739    005801550000015500000520000003NN  NNW 000                       N    
RDG04756500WATRL000000004K00000000000001761002702022015080934N000000000010N27       000140400K 10000000010000001721           
CUS0475650000104135715003         WESCOAT RONDA D     8435 WILLOW OAK RD                      000N        CARE OF             
MTR04756500001000000000000000RA              10021079    005801560000015600000570000003NN  NNW 000                       N    
RDG04756500WATRL000000004K00000000000000405002802022015080943N000000000000N27       000090400K 10000000010000000375           
CUS0475650000104135716001         JACKSON DERRICK     1727 AMUSKAI RD                         000N        CARE OF             
MTR04756500001000000000000000RA              33730962    005801570000015700000520000003NN  NNW 000                       N    
RDG04756500WATRL000000004K00000000000003453002902022015081000N000000000000N27       000170400K 10000000010000003445           
CUS0475650000104135717009         TINA L. MEDINA      1729 AMUSKAI RD                         000N        CARE OF             
MTR04756500001000000000000000RA              33730981    005801580000015800000520000003NN  NNW 000                       N    
RDG04756500WATRL000000004K00000000000002083003002022015081006N000000000000N27       000060400K 10000000010000002068           
CUS0475650000104135718007         FRENCH SHAWN M      1731 AMUSKAI RD                         000N        CARE OF             
MTR04756500001000000000000000RA              33730964    005801590000015900000520000003NN  NNW 000                       N    
RDG04756500WATRL000000004K00000000000001889003102022015081010N000000000000N27       000040400K 10000000010000001876           
CUS0475650000104135719005         FEATHERS MICHAEL    1733 AMUSKAI RD                         000N        CARE OF             
MTR04756500001000000000000000RA              14920082    005801600000016000000310000003NN  NNW 000                       N    
RDG04756500WATRL000000004K00000000000000695003202022015081015N000000000000N27       000050400K 10000000010000000679           
CUS0475650000104135720003         KERNS CHARLES T     1735 AMUSKAI RD                         000N        CARE OF             
MTR04756500001000000000000000RA              33730966    005801610000016100000520000003NN  NNW 000                       N    
RDG04756500WATRL000000004K00000000000001411003302022015081105N000000000000N27       000500400K 10000000010000001408           
CUS0475650000104135721001         DAVEY MICHAEL J/THOM1737 AMUSKAI RD                         000N        CARE OF             
MTR04756500001000000000000000RA              99290026    005801620000016200000570000003NN  NNW 000                       N    
RDG04756500WATRL000000004K00000000000000553003402022015081111N000000000000N27       000060400K 10000000010000000544           
CUS0475650000104135722009         PYNE PAUL           1739 AMUSKAI RD                         000N        CARE OF             
MTR04756500001000000000000000RA              99292133    005801630000016300000570000003NN  NNW 000                       N    
RDG04756500WATRL000000004K00000000000001079003502022015081117N000000000000N27       000060400K 10000000010000001042           
CUS0475650000104135723007         CHALKLEY MARSHALL A,1741 AMUSKAI RD                         000N        CARE OF             
MTR04756500001000000000000000RA              01092181    005801640000016400000610000003NN  NNW 000                       N    
RDG04756500WATRL000000004K00000000000000806003602022015081134N000000000000N27       000170400K 10000000010000000793           
CUS0475650000104135724005         DEYSHER REBECCA L   1743 AMUSKAI RD                         000N        CARE OF             
MTR04756500001000000000000000RA              33730922    005801650000016500000520000003NN  NNW 000                       N    
RDG04756500WATRL000000004K00000000000002463003702022015081146N000000000000N27       000120400K 10000000010000002449           
CUS0475650000104135725002         LIANG HONG Q        1745 AMUSKAI RD                         000N        CARE OF             
MTR04756500001000000000000000RA              01110824    005801660000016600000610000003NN  NNW 000                       N    
RDG04756500WATRL000000004K00000000000000399003802022015081153N000000000000N27       000070400K 10000000010000000384           
CUS0475650000104135726000         MOORE YVONNE D      1747 AMUSKAI RD                         000N        CARE OF             
MTR04756500001000000000000000RA              33730826    005801670000016700000520000003NN  NNW 000                       N    
RDG04756500WATRL000000004K00000000000002967003902022015081158N000000000000N27       000050400K 10000000010000002963           
CUS0475650000104135727008         BENNETT SYLVIA D    1749 AMUSKAI RD                         000N        CARE OF             
MTR04756500001000000000000000RA              33730976    005801680000016800000520000003NN  NNW 000                       N    
RDG04756500WATRL000000004K00000000000004249004002022015081204N000000000000N27       000060400K 10000000010000004237           
CUS0475650000104135728006         HENDRICKSON A C     1751 AMUSKAI RD                         000N        CARE OF             
MTR04756500001000000000000000RA              14912161    005801690000016900000310000003NN  NNW 000                       N    
RDG04756500WATRL000000004K00000000000000149004102022015081211N000000000000N27       000070400K 10000000010000000146           
CUS0475650000104135729004         OLIN GREGORY M      1753 AMUSKAI RD                         000N        CARE OF             
MTR04756500001000000000000000RA              27820592    005801700000017000000520000003NN  NNW 000                       N    
RDG04756500WATRL000000004K00000000000000000000000000000000000 000000000000U         000000400  10000000010000002195           
CUS0475650000104135730002         JARAVA JOSE ELMER   1755 AMUSKAI RD                         000N        CARE OF             
MTR04756500001000000000000000RA              01070281    005801710000017100000610000003NN  NNW 000                       N    
RDG04756500WATRL000000004K00000000000000903004202022015081220N000000000000N27       000090400K 10000000010000000885           
CUS0475650000104135731000         SPIES RICHARD E     1757 AMUSKAI RD                         000N        CARE OF             
MTR04756500001000000000000000RA              01070285    005801720000017200000610000003NN  NNW 000                       N    
RDG04756500WATRL000000004K00000000000000798004302022015081225N000000000000N27       000050400K 10000000010000000788           
CUS0475650000104135732008         BOORE LLOYD Z       1759 AMUSKAI RD                         000N        CARE OF             
MTR04756500001000000000000000RA              26015549    005801730000017300000520000003NN  NNW 000                       N    
RDG04756500WATRL000000004K00000000000002995004402022015081233N000000000000N27       000080400K 10000000010000002972           
CUS0475650000104135733006         MARSHALL TRACY L    1761 AMUSKAI RD                         000N        CARE OF             
MTR04756500001000000000000000RA              26015562    005801740000017400000520000003NN  NNW 000                       N    
RDG04756500WATRL000000004K00000000000001555004502022015081239N000000000000N27       000060400K 10000000010000001545           
CUS0475650000104135734004         DYER ANDREW V       1763 AMUSKAI RD                         000N        CARE OF             
MTR04756500001000000000000000RA              33730975    005801750000017500000520000003NN  NNW 000                       N    
RDG04756500WATRL000000004K00000000000001910004602022015081249N000300000010N27       000100400K 10000000010000001865           
CUS0475650000104135735001         OBRIEN ANDREW J     1765 AMUSKAI RD                         000N        CARE OF             
MTR04756500001000000000000000RA              33730977    005801760000017600000520000003NN  NNW 000                       N    
RDG04756500WATRL000000004K00000000000002289004702022015081255N000000000000N27       000060400K 10000000010000002283           
CUS0475650000104135736009         IBRAHIM SAMMY       1767 AMUSKAI RD                         000N        CARE OF             
MTR04756500001000000000000000RA              33730827    005801770000017700000520000003NN  NNW 000                       N    
RDG04756500WATRL000000004K00000000000001802000102052015095129N000000000000U40       000000400K 10000000010000001789           
CUS0475650000104135737007         DELLUOMO MARIE      1769 AMUSKAI RD                         000N        CARE OF             
MTR04756500001000000000000000RA              33730926    005801780000017800000520000003NN  NNW 000                       N    
RDG04756500WATRL000000004K00000000000000978000202052015095137N000000000000U40       000080400K 10000000010000000976           
CUS0475650000104135738005         VERA ELIANA         1771 AMUSKAI RD                         000N        CARE OF             
MTR04756500001000000000000000RA              33730963    005801790000017900000520000003NN  NNW 000                       N    
RDG04756500WATRL000000004K00000000000001717000302052015095148N000300000010U40       000110400K 10000000010000001687           
CUS0475650000104135739003         PHILLIPS JEFFREY    1773 AMUSKAI RD                         000N        CARE OF             
MTR04756500001000000000000000RA              33730927    005801800000018000000520000003NN  NNW 000                       N    
RDG04756500WATRL000000004K00000000000001931000402052015095152N000000000000U40       000040400K 10000000010000001923           
CUS0475650000104135740001         BEESON CHARLES J    1775 AMUSKAI RD                         000N        CARE OF             
MTR04756500001000000000000000RA              38984133    005801810000018100000520000003NN  NNW 000                       N    
RDG04756500WATRL000000004K00000000000001353000502052015095205N000300000010U40       000130400K 10000000010000001329           
CUS0475650000104135741009         DRAKE PATRICIA A    1777 AMUSKAI RD                         000N        CARE OF             
MTR04756500001000000000000000RA              10007015    005801820000018200000570000003NN  NNW 000                       N    
RDG04756500WATRL000000004K00000000000000194000602052015095224N000000000000U40       000190400K 10000000010000000187           
CUS0475650000104135742007         BURTON JOHN J       1779 AMUSKAI RD                         000N        CARE OF             
MTR04756500001000000000000000RA              9688425     005801830000018300000570000003NN  NNW 000                       N    
RDG04756500WATRL000000004K00000000000005987000802052015095356N000400000010U40       000470400K 10000000010000005985           
CUS0475650000104135743005         RODRIGUEZ RAFAEL M  1781 AMUSKAI RD                         000N        CARE OF             
MTR04756500001000000000000000RA              33730920    005801840000018400000520000003NN  NNW 000                       N    
RDG04756500WATRL000000004K00000000000002205000702052015095309N000000000000U40       000450400K 10000000010000002184           
CUS0475650000104135744003         VILA CLEMENCIA      8423 WATER OAK RD                       000N        CARE OF             
MTR04756500001000000000000000RA              33730982    005801850000018500000520000003NN  NNW 000                       N    
RDG04756500WATRL000000004K00000000000003402000902052015095403N000000000000U40       000070400K 10000000010000003387           
CUS0475650000104135745000         MATHANEY HUGH R,3RD 8425 WATER OAK RD                       000N        CARE OF             
MTR04756500001000000000000000RA              33730983    005801860000018600000520000003NN  NNW 000                       N    
RDG04756500WATRL000000004K00000000000002813001002052015095416N000000000000U40       000130400K 10000000010000002808           
CUS0475650000104135746008         AMATUCCI JACQUELYN M8427 WATER OAK RD                       000N        CARE OF             
MTR04756500001000000000000000RA              31587116    005801870000018700000520000003NN  NNW 000                       N    
RDG04756500WATRL000000004K00000000000001383007802192015141102N000000000000U40       000370400K 10000000010000001362           
CUS0475650000104135747006         HAYDEN ERIN M       8429 WATER OAK RD                       000N        CARE OF             
MTR04756500001000000000000000RA              33730979    005801880000018800000520000003NN  NNW 000                       N    
RDG04756500WATRL000000004K00000000000001416007702192015141025N000000000000U40       002710400K 10000000010000001408           
CUS0475650000104135748004         HARRIS PAULINE      8431 WATER OAK RD                       000N        CARE OF             
MTR04756500001000000000000000RA              27832897    005801890000018900000520000003NN  NNW 000                       N    
RDG04756500WATRL000000004K00000000000001874001102052015095432N000000000000U40       000160400K 10000000010000001861           
CUS0475650000104135749002         ANDRZEJEWSKI VALENTI8433 WATER OAK RD                       000N        CARE OF             
MTR04756500001000000000000000RA              27832892    005801900000019000000520000003NN  NNW 000                       N    
RDG04756500WATRL000000004K00000000000002293001202052015095438N000000000000U40       000060400K 10000000010000002284           
CUS0475650000104135750000         BALES JENNIE M      8435 WATER OAK RD                       000N        CARE OF             
MTR04756500001000000000000000RA              29082364    005801910000019100000520000003NN  NNW 000                       N    
RDG04756500WATRL000000004K00000000000003525001302052015095443N000000000000U40       000050400K 10000000010000003511           
CUS0475650000104135751008         CALLAHAN TRACY A    8437 WATER OAK RD                       000N        CARE OF             
MTR04756500001000000000000000RA              10021084    005801920000019200000570000003NN  NNW 000                       N    
RDG04756500WATRL000000004K00000000000000231001402052015095447N000000000000U40       000040400K 10000000010000000214           
CUS0475650000104135752006         ASENDORF CARMELINE C8439 WATER OAK RD                       000N        CARE OF             
MTR04756500001000000000000000RA              24224252    005801930000019300000520000003NN  NNW 000                       N    
RDG04756500WATRL000000004K00000000000003559001502052015095459N000000000000U40       000120400K 10000000010000003548           
CUS0475650000104135753004         KELLY THOMAS J      8441 WATER OAK RD                       000N        CARE OF             
MTR04756500001000000000000000RA              01070289    005801940000019400000610000003NN  NNW 000                       N    
RDG04756500WATRL000000004K00000000000000922001602052015095509N000000000000U40       000100400K 10000000010000000905           
CUS0475650000104135754002         CIAMPAGLIO MICHAEL J8443 WATER OAK RD                       000N        CARE OF             
MTR04756500001000000000000000RA              01070282    005801950000019500000610000003NN  NNW 000                       N    
RDG04756500WATRL000000004K00000000000000640001702052015095513N000000000000U40       000040400K 10000000010000000627           
CUS0475650000104135755009         DUMAS RONALD LEE    8445 WATER OAK RD                       000N        CARE OF             
MTR04756500001000000000000000RA              33730917    005801960000019600000520000003NN  NNW 000                       N    
RDG04756500WATRL000000004K00000000000002659001802052015095518N000000000000U40       000050400K 10000000010000002648           
CUS0475650000104135756007         ORANGE CLAUDINE C   8447 WATER OAK RD                       000N        CARE OF             
MTR04756500001000000000000000RA              33730379    005801970000019700000520000003NN  NNW 000                       N    
RDG04756500WATRL000000004K00000000000002625001902052015095524N000000000000U40       000060400K 10000000010000002613           
CUS0475650000104135757005         KLUNK MARCELLE O    8449 WATER OAK RD                       000N        CARE OF             
MTR04756500001000000000000000RA              33730921    005801980000019800000520000003NN  NNW 000                       N    
RDG04756500WATRL000000004K00000000000001516002002052015095535N000300000010U40       000110400K 10000000010000001499           
CUS0475650000104135758003         RICHARD J. MONTONI 38451 WATER OAK RD                       000N        CARE OF             
MTR04756500001000000000000000RA              74687806    005801990000019900000350000003NN  NNW 000                       N    
RDG04756500WATRL000000004K00000000000000149002102052015095539N000000000000U40       000040400K 10000000010000000133           
CUS0475650000104135759001         WILSON TRACEY E     8453 WATER OAK RD                       000N        CARE OF             
MTR04756500001000000000000000RA              33730916    005802000000020000000520000003NN  NNW 000                       N    
RDG04756500WATRL000000004K00000000000001788002202052015095544N000000000000U40       000050400K 10000000010000001770           
CUS0475650000104135760009         STEPHEN T DOMBROSKIE8455 WATER OAK RD                       000N        CARE OF             
MTR04756500001000000000000000RA              33730919    005802010000020100000520000003NN  NNW 000                       N    
RDG04756500WATRL000000004K00000000000001483002302052015095554N000300000010U40       000100400K 10000000010000001468           
CUS0475650000104135761007         HEGBERG JEFFREY S   8457 WATER OAK RD                       000N        CARE OF             
MTR04756500001000000000000000RA              33730923    005802020000020200000520000003NN  NNW 000                       N    
RDG04756500WATRL000000004K00000000000002421002402052015095558N000000000000U40       000040400K 10000000010000002421           
CUS0475650000104135762005         ARROWOOD ROBERT R   8459 WATER OAK RD                       000N        CARE OF             
MTR04756500001000000000000000RA              33730989    005802030000020300000520000003NN  NNW 000                       N    
RDG04756500WATRL000000004K00000000000002865002502052015095605N000000000000U40       000070400K 10000000010000002850           
CUS0475650000104135763003         BOCCHINI CAROL      8461 WATER OAK RD                       000N        CARE OF             
MTR04756500001000000000000000RA              33730986    005802040000020400000520000003NN  NNW 000                       N    
RDG04756500WATRL000000004K00000000000002041002602052015095613N000400000010U40       000080400K 10000000010000002040           
CUS0475650000104135764001         SEFCIK GEORGE JOSEPH8463 WATER OAK RD                       000N        CARE OF             
MTR04756500001000000000000000RA              33730985    005802050000020500000520000003NN  NNW 000                       N    
RDG04756500WATRL000000004K00000000000000976002702052015095624N000300000010U40       000110400K 10000000010000000966           
CUS0475650000104135765008         HOMA MICHAEL        8501 WATER OAK RD                       000N        CARE OF             
MTR04756500001000000000000000RA              00135708    005802060000020600000570000003NN  NNW 000                       N    
RDG04756500WATRL000000004K00000000000001242002802052015095627N000000000000U40       000030400K 10000000010000001215           
CUS0475650000104135766006         NATASHA S NEWSON    8503 WATER OAK RD                       000N        CARE OF             
MTR04756500001000000000000000RA              27832900    005802070000020700000520000003NN  NNW 000                       N    
RDG04756500WATRL000000004K00000000000002513002902052015095630N000000000000U40       000030400K 10000000010000002505           
CUS0475650000104135767004         RUEHLE ROY          8505 WATER OAK RD                       000N        CARE OF             
MTR04756500001000000000000000RA              27832895    005802080000020800000520000003NN  NNW 000                       N    
RDG04756500WATRL000000004K00000000000002404003002052015095634N000000000000U40       000040400K 10000000010000002373           
CUS0475650000104135768002         JARBOE MARGARET R   8507 WATER OAK RD                       000N        CARE OF             
MTR04756500001000000000000000RA              99288705    005802090000020900000570000003NN  NNW 000                       N    
RDG04756500WATRL000000004K00000000000000373003102052015095704N000300000020U40       000300400K 10000000010000000379           
CUS0475650000104135769000         BETHEA ERICA N      8509 WATER OAK RD                       000N        CARE OF             
MTR04756500001000000000000000RA              00127366    005802100000021000000570000003NN  NNW 000                       N    
RDG04756500WATRL000000004K00000000000001815003202052015095709N000000000000U40       000050400K 10000000010000001805           
CUS0475650000104135770008         WURZBACHER JESSICA  8511 WATER OAK RD                       000N        CARE OF             
MTR04756500001000000000000000RA              30519557    005802110000021100000520000003NN  NNW 000                       N    
RDG04756500WATRL000000004K00000000000000803003302052015095713N000000000000U40       000040400K 10000000010000000788           
CUS0475650000104135771006         FITZGERALD MICHELLE 8513 WATER OAK RD                       000N        CARE OF             
MTR04756500001000000000000000RA              27830140    005802120000021200000520000003NN  NNW 000                       N    
RDG04756500WATRL000000004K00000000000002509003402052015095720N000300000010U40       000070400K 10000000010000002492           
CUS0475650000104135772004         SCHEININ STEVEN J   8515 WATER OAK RD                       000N        CARE OF             
MTR04756500001000000000000000RA              27832842    005802130000021300000520000003NN  NNW 000                       N    
RDG04756500WATRL000000004K00000000000001948003502052015095726N000000000000U40       000060400K 10000000010000001926           
CUS0475650000104135773002         SAFFO THEODOSIA     8517 WATER OAK RD                       000N        CARE OF             
MTR04756500001000000000000000RA              01070280    005802140000021400000610000003NN  NNW 000                       N    
RDG04756500WATRL000000004K00000000000000623003602052015095735N000000000000U40       000090400K 10000000010000000612           
CUS0475650000104135774000         SCHAEFER JONATHAN E 8519 WATER OAK RD                       000N        CARE OF             
MTR04756500001000000000000000RA              01070283    005802150000021500000610000003NN  NNW 000                       N    
RDG04756500WATRL000000004K00000000000000452003702052015095741N000000000000U40       000060400K 10000000010000000452           
CUS0475650000104135775007         HENSCHEN ASHLEY K   8521 WATER OAK RD                       000N        CARE OF             
MTR04756500001000000000000000RA              33083630    005802160000021600000520000003NN  NNW 000                       N    
RDG04756500WATRL000000004K00000000000002651003802052015095745N000000000000U40       000040400K 10000000010000002639           
CUS0475650000104135776005         LANE NANCY          8523 WATER OAK RD                       000N        CARE OF             
MTR04756500001000000000000000RA              33083645    005802170000021700000520000003NN  NNW 000                       N    
RDG04756500WATRL000000004K00000000000001723003902052015095749N000000000000U40       000040400K 10000000010000001718           
CUS0475650000104135777003         HECKROTTE JANE MARY 8525 WATER OAK RD                       000N        CARE OF             
MTR04756500001000000000000000RA              33083631    005802180000021800000520000003NN  NNW 000                       N    
RDG04756500WATRL000000004K00000000000002392004002052015095754N000000000000U40       000050400K 10000000010000002379           
CUS0475650000104135778001         PRESTON MATTHEW C   8527 WATER OAK RD                       000N        CARE OF             
MTR04756500001000000000000000RA              33083610    005802190000021900000520000003NN  NNW 000                       N    
RDG04756500WATRL000000004K00000000000002197004102052015095759N000000000000U40       000050400K 10000000010000002193           
CUS0475650000104135779009         MORFE ANGELA M      8529 WATER OAK RD                       000N        CARE OF             
MTR04756500001000000000000000RA              27134357    005802200000022000000520000003NN  NNW 000                       N    
RDG04756500WATRL000000004K00000000000002780004202052015095802N000000000000U40       000030400K 10000000010000002759           
CUS0475650000104135780007         LAKEISHA TUCKER     8531 WATER OAK RD                       000N        CARE OF             
MTR04756500001000000000000000RA              33083600    005802210000022100000520000003NN  NNW 000                       N    
RDG04756500WATRL000000004K00000000000002190004302052015095807N000000000000U40       000050400K 10000000010000002167           
CUS0475650000104135781005         ROSENBERGER MELISSA 8533 WATER OAK RD                       000N        CARE OF             
MTR04756500001000000000000000RA              23647974    005802220000022200000520000003NN  NNW 000                       N    
RDG04756500WATRL000000004K00000000000003864004402052015095812N000000000000U40       000050400K 10000000010000003856           
CUS0475650000104135782003         WRIGHT ROCIO        8535 WATER OAK RD                       000N        CARE OF             
MTR04756500001000000000000000RA              33077671    005802230000022300000520000003NN  NNW 000                       N    
RDG04756500WATRL000000004K00000000000001308004502052015095821N000000000000U40       000090400K 10000000010000001302           
CUS0475650000104135783001         DUSTIN DEMARR       8537 WATER OAK RD                       000N        CARE OF             
MTR04756500001000000000000000RA              33077228    005802240000022400000520000003NN  NNW 000                       N    
RDG04756500WATRL000000004K00000000000001250004602052015095824N000000000000U40       000030400K 10000000010000001241           
CUS0475650000104135784009         BARANYK IRENE A     8539 WATER OAK RD                       000N        CARE OF             
MTR04756500001000000000000000RA              00140365    005802250000022500000570000003NN  NNW 000                       N    
RDG04756500WATRL000000004K00000000000000540004702052015095844N000000000000U40       000200400K 10000000010000000532           
CUS0475650000104135785006         WHITE FREDERICK J   8541 WATER OAK RD                       000N        CARE OF             
MTR04756500001000000000000000RA              23055886    005802260000022600000520000003NN  NNW 000                       N    
RDG04756500WATRL000000004K00000000000005639004802052015095851N000000000000U40       000070400K 10000000010000005607           
CUS0475650000104135786004         CALAMITA NANCY L    8543 WATER OAK RD                       000N        CARE OF             
MTR04756500001000000000000000RA              33732265    005802270000022700000520000003NN  NNW 000                       N    
RDG04756500WATRL000000004K00000000000002232004902052015095853N000000000000U40       000020400K 10000000010000002227           
CUS0475650000104135787002         FRAMPTON JOYCE      8545 WATER OAK RD                       000N        CARE OF             
MTR04756500001000000000000000RA              00140311    005802280000022800000570000003NN  NNW 000                       N    
RDG04756500WATRL000000004K00000000000001194005002052015095901N000300000010U40       000080400K 10000000010000001160           
CUS0475650000104135788000         ELLIS JOSEPH F      8547 WATER OAK RD                       000N        CARE OF             
MTR04756500001000000000000000RA              00140366    005802290000022900000570000003NN  NNW 000                       N    
RDG04756500WATRL000000004K00000000000000940005102052015095904N000000000000U40       000030400K 10000000010000000929           
CUS0475650000104135789008         EVERY-CLAYTON JON A 8549 WATER OAK RD                       000N        CARE OF             
MTR04756500001000000000000000RA              33732213    005802300000023000000520000003NN  NNW 000                       N    
RDG04756500WATRL000000004K00000000000001877005202052015095913N000000000000U40       000090400K 10000000010000001860           
CUS0475650000104135790006         TUREK HEIDI R       8551 WATER OAK RD                       000N        CARE OF             
MTR04756500001000000000000000RA              14900810    005802310000023100000310000003NN  NNW 000   VACANT / LOT        N    
RDG04756500WATRL000000004K00000000000000418005302052015095917N000000000000U40       000040400K 10000000010000000418           
CUS0475650000104135791004         FIASTRO JOHN C JR   8553 WATER OAK RD                       000N        CARE OF             
MTR04756500001000000000000000RA              33730821    005802320000023200000520000003NN  NNW 000                       N    
RDG04756500WATRL000000004K00000000000001799005402052015095933N000300000030U40       000160400K 10000000010000001751           
CUS0475650000104135792002         FOLEY JAMES ALEXANDE8555 WATER OAK RD                       000N        CARE OF             
MTR04756500001000000000000000RA              27823222    005802330000023300000520000003NN  NNW 000                       N    
RDG04756500WATRL000000004K00000000000003514005502052015100004N000000000011U40       000180400K 10000000010000003461           
CUS0475650000104135793000         HICKS MELISSA M     8557 WATER OAK RD                       000N        CARE OF             
MTR04756500001000000000000000RA              36687688    005802340000023400000520000003NN  NNW 000                       N    
RDG04756500WATRL000000004K00000000000002062005602052015100011N000000000000U40       000070400K 10000000010000002057           
CUS0475650000104135794008         TIFFANY MARTIN      8559 WATER OAK RD                       000N        CARE OF             
MTR04756500001000000000000000RA              00135709    005802350000023500000570000003NN  NNW 000                       N    
RDG04756500WATRL000000004K00000000000000527005702052015100014N000000000000U40       000030400K 10000000010000000490           
CUS0475650000104135795005         FANLO JOJI A        8561 WATER OAK RD                       000N        CARE OF             
MTR04756500001000000000000000RA              27831814    005802360000023600000520000003NN  NNW 000                       N    
RDG04756500WATRL000000004K00000000000001267005802052015100019N000000000000U40       000050400K 10000000010000001262           
CUS0475650000104135796003         KAREN L OKEEFE      8563 WATER OAK RD                       000N        CARE OF             
MTR04756500001000000000000000RA              00137754    005802370000023700000570000003NN  NNW 000                       N    
RDG04756500WATRL000000004K00000000000000754005902052015100024N000000000000U40       000050400K 10000000010000000743           
CUS0475650000104135797001         PEIRCE TEMPLE H,JR  8565 WATER OAK RD                       000N        CARE OF             
MTR04756500001000000000000000RA              00137638    005802380000023800000570000003NN  NNW 000                       N    
RDG04756500WATRL000000004K00000000000000444006002052015100027N000000000000U40       000030400K 10000000010000000436           
CUS0475650000104135798009         ZARZECKI MARGARET   8567 WATER OAK RD                       000N        CARE OF             
MTR04756500001000000000000000RA              10024001    005802390000023900000570000003NN  NNW 000                       N    
RDG04756500WATRL000000004K00000000000000121006102052015100030N000000000000U40       000030400K 10000000010000000108           
CUS0475650000104135799007         SCOTT NORMAN E      8569 WATER OAK RD                       000N        CARE OF             
MTR04756500001000000000000000RA              32770073    005802400000024000000520000003NN  NNW 000                       N    
RDG04756500WATRL000000004K00000000000003526006202052015100035N000000000000U40       000050400K 10000000010000003480           
CUS0475650000104135800003         MCEVOY CHARLES P    8548 WATER OAK RD                       000N        CARE OF             
MTR04756500001000000000000000RA              33730578    005802410000024100000520000003NN  NNW 000                       N    
RDG04756500WATRL000000004K00000000000002848004802052015100246N000000000000N40       001310400K 10000000010000002827           
CUS0475650000104135801001         TERRY JOSEPH W,JR   8546 WATER OAK RD                       000N        CARE OF             
MTR04756500001000000000000000RA              14919933    005802420000024200000310000003NN  NNW 000                       N    
RDG04756500WATRL000000004K00000000000000341004902052015100250N000000000000N40       000040400K 10000000010000000329           
CUS0475650000104135802009         OWINGS EDWARD N     8544 WATER OAK RD                       000N        CARE OF             
MTR04756500001000000000000000RA              10005627    005802430000024300000570000003NN  NNW 000                       N    
RDG04756500WATRL000000004K00000000000000171005002052015100253N000000000000N40       000030400K 10000000010000000161           
CUS0475650000104135803007         KAMAU JOHN KANITHI  8542 WATER OAK RD                       000N        CARE OF             
MTR04756500001000000000000000RA              33732073    005802440000024400000520000003NN  NNW 000                       N    
RDG04756500WATRL000000004K00000000000002105005102052015100258N000000000000N40       000050400K 10000000010000002073           
CUS0475650000104135804005         SMF LLC             8540 WATER OAK RD                       000N        CARE OF             
MTR04756500001000000000000000RA              33732193    005802450000024500000520000003NN  NNW 000                       N    
RDG04756500WATRL000000004K00000000000001841005202052015100301N000000000000N40       000030400K 10000000010000001818           
CUS0475650000104135805002         FETTER REBECCA M    8538 WATER OAK RD                       000N        CARE OF             
MTR04756500001000000000000000RA              33732216    005802460000024600000520000003NN  NNW 000                       N    
RDG04756500WATRL000000004K00000000000002258005302052015100305N000000000000N40       000040400K 10000000010000002248           
CUS0475650000104135806000         DELLAVECCHIA ADAM   8536 WATER OAK RD                       000N        CARE OF             
MTR04756500001000000000000000RA              14930376    005802470000024700000310000003NN  NNW 000                       N    
RDG04756500WATRL000000004K00000000000000348005402052015100310N000300000010N40       000050400K 10000000010000000330           
CUS0475650000104135807008         JAMES MARTIN ELLENBE8534 WATER OAK RD                       000N        CARE OF             
MTR04756500001000000000000000RA              33083196    005802480000024800000520000003NN  NNW 000                       N    
RDG04756500WATRL000000004K00000000000002063005502052015100314N000000000000N40       000040400K 10000000010000002052           
CUS0475650000104135808006         EUBANKS ROSLYN Y    8532 WATER OAK RD                       000N        CARE OF             
MTR04756500001000000000000000RA              33730519    005802490000024900000520000003NN  NNW 000                       N    
RDG04756500WATRL000000004K00000000000001498005602052015100319N000000000000N40       000050400K 10000000010000001492           
CUS0475650000104135809004         STENTZ DANIEL J     8530 WATER OAK RD                       000N        CARE OF             
MTR04756500001000000000000000RA              44175388    005802500000025000000520000003NN  NNW 000                       N    
RDG04756500WATRL000000004K00000000000001066005702052015100323N000000000000N40       000040400K 10000000010000001062           
CUS0475650000104135810002         DELAUDER BRADLEY W  8528 WATER OAK RD                       000N        CARE OF             
MTR04756500001000000000000000RA              14926491    005802510000025100000310000003NN  NNW 000                       N    
RDG04756500WATRL000000004K00000000000000483005802052015100329N000300000010N40       000060400K 10000000010000000485           
CUS0475650000104135811000         MCCOY DERRICK       8526 WATER OAK RD                       000N        CARE OF             
MTR04756500001000000000000000RA              25782352    005802520000025200000520000003NN  NNW 000                       N    
RDG04756500WATRL000000004K00000000000004628005902052015100334N000000000000N40       000050400K 10000000010000004570           
CUS0475650000104135812008         BROWN CHARLES R     8524 WATER OAK RD                       000N        CARE OF             
MTR04756500001000000000000000RA              99188141    005802530000025300000570000003NN  NNW 000                       N    
RDG04756500WATRL000000004K00000000000001322007902192015141523N000000000050U40       002610400K 10000000010000001312           
CUS0475650000104135813006         BRIAN SHEETS        8522 WATER OAK RD                       000N        CARE OF             
MTR04756500001000000000000000RA              10022099    005802540000025400000570000003NN  NNW 000                       N    
RDG04756500WATRL000000004K00000000000000029006002052015100351N000000000000N40       000170400K 10000000010000000022           
CUS0475650000104135814004         COLEMAN MELVINA E   8520 WATER OAK RD                       000N        CARE OF             
MTR04756500001000000000000000RA              31587041    005802550000025500000520000003NN  NNW 000                       N    
RDG04756500WATRL000000004K00000000000003252006102052015100355N000000000000N40       000040400K 10000000010000003243           
CUS0475650000104135815001         BERINATO CHRISTOPHER8518 WATER OAK RD                       000N        CARE OF             
MTR04756500001000000000000000RA              33083197    005802560000025600000520000003NN  NNW 000                       N    
RDG04756500WATRL000000004K00000000000002565006202052015100359N000000000000N40       000040400K 10000000010000002550           
CUS0475650000104135816009         CONRAD PATRICK F,JR/8516 WATER OAK RD                       000N        CARE OF             
MTR04756500001000000000000000RA              33732214    005802570000025700000520000003NN  NNW 000                       N    
RDG04756500WATRL000000004K00000000000002196006302052015100407N000000000000N40       000080400K 10000000010000002188           
CUS0475650000104135817007         ENGELSKIRCH JENNIFER8514 WATER OAK RD                       000N        CARE OF             
MTR04756500001000000000000000RA              01111270    005802580000025800000610000003NN  NNW 000                       N    
RDG04756500WATRL000000004K00000000000001783006402052015100411N000000000000N40       000040400K 10000000010000001750           
CUS0475650000104135818005         BROWN SANDRA E      8512 WATER OAK RD                       000N        CARE OF             
MTR04756500001000000000000000RA              01111270    005802590000025900000610000003NN  NNW 000                       N    
RDG04756500WATRL000000004K00000000000004108006502052015100414N000000000000N40       000030400K 10000000010000004099           
CUS0475650000104135819003         MORGAN CHARLES T    8510 WATER OAK RD                       000N        CARE OF             
MTR04756500001000000000000000RA              27832845    005802600000026000000520000003NN  NNW 000                       N    
RDG04756500WATRL000000004K00000000000002955006602052015100417N000000000000N40       000030400K 10000000010000002948           
CUS0475650000104135820001         WAGNER EVA M        8508 WATER OAK RD                       000N        CARE OF             
MTR04756500001000000000000000RA              24225707    005802610000026100000520000003NN  NNW 000                       N    
RDG04756500WATRL000000004K00000000000002750006702052015100431N000000000000N40       000140400K 10000000010000002750           
CUS0475650000104135821009         WANG DAVID L        8506 WATER OAK RD                       000N        CARE OF             
