FHDNNNN022004588004588004588N                                                                                           013915
RHD04778000NN01830183000001830000000001830183000342NY018301830183001200010000000000000000000001    02022015NY020000 N         
CUS0477800000104147536009         CHALLANDES PROPERTIE8404 HARFORD RD                         000N        CARE OF             
MTR04778000001000000000000000RA              99375568    007500010000000100000570000003NN  NNW 000                       N    
RDG04778000WATRL000000004K00000000000001026000202192015100641N000000000000U40       000780400K 10000000010000001016           
CUS0477800000104147537007         SOLOMON HARVEY      8406 HARFORD RD                         000N        CARE OF             
MTR04778000001000000000000000RA              14926977    005800020000000200000310000003NN  NNW 000                       N    
RDG04778000WATRL000000004K00000000000000653000102192015100523N000000000000U40       000000400K 10000000010000000645           
CUS0477800000104147538005         GSB PROPERTIES LLC  8400 HARFORD RD                         000N        CARE OF             
MTR04778000001000000000000000RA              14912164    005800030000000300000310000003NN  NNW 000                       N    
RDG04778000WATRL000000004K00000000000006252000302192015100734N000000000000U40       000530400K 10000000010000006119           
CUS0477800000104147539003         WYNN THOMAS E       2914 TOPAZ RD                           000N        CARE OF             
MTR04778000001000000000000000RA              45377599    005800040000000400000520000003NN  NNW 000                       N    
RDG04778000WATRL000000004K00000000000001620000102142015115808N000000000000N40       000000400K 10000000010000001610           
CUS0477800000104147540001         DAVID FERGER        2912 TOPAZ RD                           000N        CARE OF             
MTR04778000001000000000000000RA              27214060    005800050000000500000520000003NN  NNW 000                       N    
RDG04778000WATRL000000004K00000000000003299000202142015115839N000000000000N40       000310400K 10000000010000003278           
CUS0477800000104147541009         URBANSKI GABRIEL L  2910 TOPAZ RD                           000N        CARE OF             
MTR04778000001000000000000000RA              44003721    005800060000000600000520000003NN  NNW 000                       N    
RDG04778000WATRL000000004K00000000000002232000302142015115926N000000000000N40       000470400K 10000000010000002219           
CUS0477800000104147542007         PEMBERTON PHILIP H  2908 TOPAZ RD                           000N        CARE OF             
MTR04778000001000000000000000RA              24766794    005800070000000700000520000003NN  NNW 000                       N    
RDG04778000WATRL000000004K00000000000004702000402142015120031N000000000000N40       000650400K 10000000010000004692           
CUS0477800000104147543005         THOMPSON DEBORAH    2906 TOPAZ RD                           000N        CARE OF             
MTR04778000001000000000000000RA              76347067    005800080000000800000350000003NN  NNW 000                       N    
RDG04778000WATRL000000004K00000000000000036000502142015120111N000000000000N40       000400400K 10000000010000000027           
CUS0477800000104147544003         NIVENS MICHAEL      2904 TOPAZ RD                           000N        CARE OF             
MTR04778000001000000000000000RA              52286028    005800090000000900000520000003NN  NNW 000                       N    
RDG04778000WATRL000000004K00000000000002056000602142015120143N000400000010N40       000320400K 10000000010000002033           
CUS0477800000104147545000         WILHIDE CALVIN C,3RD2900 TOPAZ RD                           000N        CARE OF             
MTR04778000001000000000000000RA              26014293    005800100000001000000520000003NN  NNW 000                       N    
RDG04778000WATRL000000004K00000000000006966000702142015120215N000000000000N40       000320400K 10000000010000006951           
CUS0477800000104147546008         FRANK DEAN W        2830 TOPAZ RD                           000N        CARE OF             
MTR04778000001000000000000000RA              36697930    005800110000001100000520000003NN  NNW 000                       N    
RDG04778000WATRL000000004K00000000000007120000802142015120304N000000000000N40       000490400K 10000000010000007085           
CUS0477800000104147547006         ALBRECHT MICHAEL    2828 TOPAZ RD                           000N        CARE OF             
MTR04778000001000000000000000RA              24769179    005800120000001200000520000003NN  NNW 000                       N    
RDG04778000WATRL000000004K00000000000001753000902142015120407N000000000000N40       000630400K 10000000010000001738           
CUS0477800000104147548004         HUDNALL MARK H      2826 TOPAZ RD                           000N        CARE OF             
MTR04778000001000000000000000RA              45384116    005800130000001300000520000003NN  NNW 000                       N    
RDG04778000WATRL000000004K00000000000002023001002142015120447N000000000000N40       000400400K 10000000010000002004           
CUS0477800000104147549002         ROSSBACH EVELYN E   2824 TOPAZ RD                           000N        CARE OF             
MTR04778000001000000000000000RA              10017624    005800140000001400000570000003NN  NNW 000                       N    
RDG04778000WATRL000000004K00000000000000089001102142015120449N000000000000N40       000020400K 10000000010000000080           
CUS0477800000104147550000         TORRES MARK H       2822 TOPAZ RD                           000N        CARE OF             
MTR04778000001000000000000000RA              32902928    005800150000001500000520000003NN  NNW 000                       N    
RDG04778000WATRL000000004K00000000000002682001202142015120542N000000000000N40       000530400K 10000000010000002668           
CUS0477800000104147551008         DICKERSON AFREKA C  2820 TOPAZ RD                           000N        CARE OF             
MTR04778000001000000000000000RA              32902830    005800160000001600000520000003NN  NNW 000                       N    
RDG04778000WATRL000000004K00000000000003687001302142015120545N000000000000N40       000030400K 10000000010000003663           
CUS0477800000104147552006         CHILES GEORGE M     2818 TOPAZ RD                           000N        CARE OF             
MTR04778000001000000000000000RA              27812642    005800170000001700000520000003NN  NNW 000                       N    
RDG04778000WATRL000000004K00000000000004841001402142015120612N000000000000N40       000270400K 10000000010000004825           
CUS0477800000104147553004         MANZ MARY ELIZABETH 2816 TOPAZ RD                           000N        CARE OF             
MTR04778000001000000000000000RA              44091146    005800180000001800000520000003NN  NNW 000                       N    
RDG04778000WATRL000000004K00000000000001066001502142015120614N000000000000N40       000020400K 10000000010000001059           
CUS0477800000104147554002         SNYDER SUSAN L      2814 TOPAZ RD                           000N        CARE OF             
MTR04778000001000000000000000RA              50789343    005800190000001900000520000003NN  NNW 000                       N    
RDG04778000WATRL000000004K00000000000000959001602142015120713N000000000000N40       000590400K 10000000010000000947           
CUS0477800000104147555009         BAWGUS SHARON E     2812 TOPAZ RD                           000N        CARE OF             
MTR04778000001000000000000000RA              50789372    005800200000002000000520000003NN  NNW 000                       N    
RDG04778000WATRL000000004K00000000000001247001702142015120716N000000000000N40       000030400K 10000000010000001247           
CUS0477800000104147556007         HAYSLIP DANIEL R    2810 TOPAZ RD                           000N        CARE OF             
MTR04778000001000000000000000RA              24769112    005800210000002100000520000003NN  NNW 000                       N    
RDG04778000WATRL000000004K00000000000004859001802142015120836N000000000000N40       000800400K 10000000010000004833           
CUS0477800000104147557005         TAYLOR JAMES F      2808 TOPAZ RD                           000N        CARE OF             
MTR04778000001000000000000000RA              27214059    005800220000002200000520000003NN  NNW 000                       N    
RDG04778000WATRL000000004K00000000000003984001902142015120840N000000000000N40       000040400K 10000000010000003965           
CUS0477800000104147558003         JACKSON MICHAEL B   2806 TOPAZ RD                           000N        CARE OF             
MTR04778000001000000000000000RA              52289921    005800230000002300000520000003NN  NNW 000                       N    
RDG04778000WATRL000000004K00000000000001473002002142015121015N000000000000N40       000950400K 10000000010000001451           
CUS0477800000104147559001         TINA WANG MACFARLAND2804 TOPAZ RD                           000N        CARE OF             
MTR04778000001000000000000000RA              10007859    005800240000002400000520000000NN  NNW 000                       N    
RDG04778000WATRL000000004K00000000000000373002102142015121018N000000000000N40       000030400K 10000000010000000364           
CUS0477800000104147560009         KENT WILSON WALLACE 2802 TOPAZ RD                           000N        CARE OF             
MTR04778000001000000000000000RA              45384077    005800250000002500000520000003NN  NNW 000                       N    
RDG04778000WATRL000000004K00000000000003853002202142015121119N000000000000N40       000610400K 10000000010000003833           
CUS0477800000104147561007         SIEVERTS LOUIS B    2803 TOPAZ RD                           000N        CARE OF             
MTR04778000001000000000000000RA              30521411    005800260000002600000520000003NN  NNW 000                       N    
RDG04778000WATRL000000004K00000000000003453002302142015121152N000000000000N40       000330400K 10000000010000003435           
CUS0477800000104147562005         SIEVERTS LOUIS B    2805 TOPAZ RD                           000N        CARE OF             
MTR04778000001000000000000000RA              31584074    005800270000002700000520000003NN  NNW 000                       N    
RDG04778000WATRL000000004K00000000000002429002402142015121246N000000000000N40       000540400K 10000000010000002418           
CUS0477800000104147563003         REIGNER CHRIS A     2807 TOPAZ RD                           000N        CARE OF             
MTR04778000001000000000000000RA              31582238    005800280000002800000520000003NN  NNW 000                       N    
RDG04778000WATRL000000004K00000000000001758002502142015121249N000000000000N40       000030400K 10000000010000001749           
CUS0477800000104147564001         DUVALL MARK D       2809 TOPAZ RD                           000N        CARE OF             
MTR04778000001000000000000000RA              35107314    005800290000002900000520000003NN  NNW 000                       N    
RDG04778000WATRL000000004K00000000000002356002602142015121346N000000000000N40       000570400K 10000000010000002351           
CUS0477800000104147565008         BAYNE MARY A        2811 TOPAZ RD                           000N        CARE OF             
MTR04778000001000000000000000RA              01083717    005800300000003000000610000003NN  NNW 000                       N    
RDG04778000WATRL000000004K00000000000000853002702142015121348N000000000000N40       000020400K 10000000010000000837           
CUS0477800000104147566006         STECKLER GARY       2813 TOPAZ RD                           000N        CARE OF             
MTR04778000001000000000000000RA              75616322    005800310000003100000350000003NN  NNW 000                       N    
RDG04778000WATRL000000004K00000000000000215002802142015121444N000000000000N40       000560400K 10000000010000000181           
CUS0477800000104147567004         FELL BERNARD C      2815 TOPAZ RD                           000N        CARE OF             
MTR04778000001000000000000000RA              77987822    005800320000003200000350000003NN  NNW 000                       N    
RDG04778000WATRL000000004K00000000000000034002902142015121449N000300000010N40       000050400K 10000000010000000005           
CUS0477800000104147568002         BARTH EDWARD F,SR   2817 TOPAZ RD                           000N        CARE OF             
MTR04778000001000000000000000RA              24757510    005800330000003300000520000003NN  NNW 000                       N    
RDG04778000WATRL000000004K00000000000004270003002142015121522N000000000000N40       000330400K 10000000010000004254           
CUS0477800000104147569000         KOERNER FRANCIS J   2819 TOPAZ RD                           000N        CARE OF             
MTR04778000001000000000000000RA              44091144    005800340000003400000520000003NN  NNW 000                       N    
RDG04778000WATRL000000004K00000000000003688003102142015121524N000000000000N40       000020400K 10000000010000003670           
CUS0477800000104147570008         LUDDEN MICHAEL,JR   2821 TOPAZ RD                           000N        CARE OF             
MTR04778000001000000000000000RA              23056764    005800350000003500000520000003NN  NNW 000                       N    
RDG04778000WATRL000000004K00000000000002882003202142015121642N000000000000N40       000780400K 10000000010000002857           
CUS0477800000104147571006         KRISTIN D SCHAFFNER 2823 TOPAZ RD                           000N        CARE OF             
MTR04778000001000000000000000RA              23056788    005800360000003600000520000003NN  NNW 000                       N    
RDG04778000WATRL000000004K00000000000003267003302142015121647N000300000010N40       000050400K 10000000010000003251           
CUS0477800000104147572004         KOERNER FRANCIS J   2825 TOPAZ RD                           000N        CARE OF             
MTR04778000001000000000000000RA              40048362    005800370000003700000520000003NN  NNW 000                       N    
RDG04778000WATRL000000004K00000000000002103003402142015121734N000000000000N40       000470400K 10000000010000002085           
CUS0477800000104147573002         MCKENZIE BRIAN PATRI2827 TOPAZ RD                           000N        CARE OF             
MTR04778000001000000000000000RA              40048342    005800380000003800000520000003NN  NNW 000                       N    
RDG04778000WATRL000000004K00000000000002331003502142015121737N000000000000N40       000030400K 10000000010000002308           
CUS0477800000104147574000         MORGAN MICHAEL P    2829 TOPAZ RD                           000N        CARE OF             
MTR04778000001000000000000000RA              40048343    005800390000003900000520000003NN  NNW 000                       N    
RDG04778000WATRL000000004K00000000000002669003602142015121915N000000000000N40       000980400K 10000000010000002648           
CUS0477800000104147575007         CAYLOR DIANE STOKES 2831 TOPAZ RD                           000N        CARE OF             
MTR04778000001000000000000000RA              14917570    005800400000004000000310000003NN  NNW 000                       N    
RDG04778000WATRL000000004K00000000000000661003702142015121947N000000000000N40       000320400K 10000000010000000648           
CUS0477800000104147576005         CONNOLLEY THOMAS    2901-03 TOPAZ RD                        000N        CARE OF             
MTR04778000001000000000000000RA              24766801    005800410000004100000520000003NN  NNW 000                       N    
RDG04778000WATRL000000004K00000000000004690003802142015122033N000000000000N40       000460400K 10000000010000004666           
CUS0477800000104147577003         MISTRETTA THOMAS    2905 TOPAZ RD                           000N        CARE OF             
MTR04778000001000000000000000RA              10013272    005800420000004200000570000003NN  NNW 000                       N    
RDG04778000WATRL000000004K00000000000000233003902142015122105N000000000000N40       000320400K 10000000010000000215           
CUS0477800000104147578001         MIRANDA ROBERT      2907 TOPAZ RD                           000N        CARE OF             
MTR04778000001000000000000000RA              19460913    005800430000004300000520000003NN  NNW 000                       N    
RDG04778000WATRL000000004K00000000000004784004002142015122139N000000000000N40       000340400K 10000000010000004752           
CUS0477800000104147579009         EBBERT SCOTT G      2909 TOPAZ RD                           000N        CARE OF             
MTR04778000001000000000000000RA              14917590    005800440000004400000310000003NN  NNW 000                       N    
RDG04778000WATRL000000004K00000000000000285004102142015122230N000000000000N40       000510400K 10000000010000000274           
CUS0477800000104147580007         GROVES CHRISTOPHER  2911 TOPAZ RD                           000N        CARE OF             
MTR04778000001000000000000000RA              14901477    005800450000004500000310000003NN  NNW 000                       N    
RDG04778000WATRL000000004K00000000000000863004202142015122308N000000000000N40       000380400K 10000000010000000845           
CUS0477800000104147581005         CAROLA A BOCK       2913 TOPAZ RD                           000N        CARE OF             
MTR04778000001000000000000000RA              11426893    005800460000004600000570000003NN  NNW 000                       N    
RDG04778000WATRL000000004K00000000000005271004302142015122439N000000000000N40       000910400K 10000000010000005258           
CUS0477800000104147582003         TRADER RALPH W      2915 TOPAZ RD                           000N        CARE OF             
MTR04778000001000000000000000RA              30515979    005800470000004700000520000003NN  NNW 000                       N    
RDG04778000WATRL000000004K00000000000006030004402142015122624N000000000000N40       001050400K 10000000010000006008           
CUS0477800000104147583001         CHAUSTIT TOSPORN    2917 TOPAZ RD                           000N        CARE OF             
MTR04778000001000000000000000RA              10012195    005800480000004800000570000003NN  NNW 000                       N    
RDG04778000WATRL000000004K00000000000000221004502142015122716N000000000000N40       000520400K 10000000010000000186           
CUS0477800000104147584009         ANASTAIOS E GIANNAKI8332 HARFORD RD                         000N        CARE OF             
MTR04778000001000000000000000RA              99289833    005800490000004900000570000003NN  NNW 000                       N    
RDG04778000WATRL000000004K00000000000001397004602142015122821N000000000000N40       000650400K 10000000010000001371           
CUS0477800000104147585006         MARMARAS GEORGE     8330 HARFORD RD                         000N        CARE OF             
MTR04778000001000000000000000RA              36698890    005800500000005000000520000003NN  NNW 000                       N    
RDG04778000WATRL000000004K00000000000003194004702142015122839N000000000000N40       000180400K 10000000010000003168           
CUS0477800000104147586004         GIANNAKIS ANASTASIOS8328 HARFORD RD                         000N        CARE OF             
MTR04778000001000000000000000RA              14906648    005800510000005100000310000003NN  NNW 000                       N    
RDG04778000WATRL000000004K00000000000000152004802142015122942N000000000000N40       000630400K 10000000010000000148           
CUS0477800000104147587002         CHALLANDES PROPERTIE8326 HARFORD RD                         000N        CARE OF             
MTR04778000001000000000000000RA              14906051    005800520000005200000310000003NN  NNW 000                       N    
RDG04778000WATRL000000004K00000000000000955004902142015123019N000000000000N40       000370400K 10000000010000000950           
CUS0477800000104147588000         GSB PROPERTIES LLC  8324 HARFORD RD                         000N        CARE OF             
MTR04778000001000000000000000RA              46877232    005800530000005300000520000003NN  NNW 000                       N    
RDG04778000WATRL000000004K00000000000000284005002142015123053N000000000000N40       000340400K 10000000010000000282           
CUS0477800000104147589008         GSB PROPERTIES LLC  8322 HARFORD RD                         000N        CARE OF             
MTR04778000001000000000000000RA              35112385    005800540000005400000520000003NN  NNW 000                       N    
RDG04778000WATRL000000004K00000000000000617005102142015123127N000000000010N40       000340400K 10000000010000000616           
CUS0477800000104147590006         SQUEAKY SEAT LLC    8316 HARFORD RD                         000N        CARE OF             
MTR04778000001000000000000000RA              00120010    007500550000005500000570000003NY  NNW 000                       N    
MTM0477800000120010    FROZEN                                                                                                 
RDG04778000WATRL000000004K00000000000000300000102262015094235N000400000010U40       000000400K 10000000010000000299           
CUS0477800000104147591004         8314 HARFORD RD LLC 8314 HARFORD RD                         000N        CARE OF             
MTR04778000001000000000000000RA              01111032    005800560000005600000610000003NN  NNW 000                       N    
RDG04778000WATRL000000004K00000000000000662005202142015123242N000000000000N40       000750400K 10000000010000000657           
CUS0477800000104147592002         DOBRY DEBRA M       2918 ONYX RD                            000N        CARE OF             
MTR04778000001000000000000000RA              35108151    005800570000005700000520000003NY  NNW 000                       N    
MTM0477800035108151    SOD CAN NOT LOCATE                                                                                     
RDG04778000WATRL000000004K00000000000000000000000000000000000 000000000000U         000000400  10000000010000002131           
CUS0477800000104147593000         WILSON CONSTANCE VIN2916 ONYX RD                            000N        CARE OF             
MTR04778000001000000000000000RA              32574355    005800580000005800000520000003NN  NNW 000                       N    
RDG04778000WATRL000000004K00000000000003041006102142015125207N000000000000N40       000750400K 10000000010000003026           
CUS0477800000104147594008         VALENTINE WILLIAM CH2914 ONYX RD                            000N        CARE OF             
MTR04778000001000000000000000RA              44003533    005800590000005900000520000003NN  NNW 000                       N    
RDG04778000WATRL000000004K00000000000000583006202142015125304N000000000000N40       000570400K 10000000010000000574           
CUS0477800000104147595005         OLESZCZUK JAMES J   2912 ONYX RD                            000N        CARE OF             
MTR04778000001000000000000000RA              26003895    005800600000006000000520000003NN  NNW 000                       N    
RDG04778000WATRL000000004K00000000000002939006302142015125429N000000000011N40       000070400K 10000000010000002924           
CUS0477800000104147596003         WINN NICHOLAS A     2910 ONYX RD                            000N        CARE OF             
MTR04778000001000000000000000RA              25783550    005800610000006100000520000003NN  NNW 000                       N    
RDG04778000WATRL000000004K00000000000002052006402142015125520N000000000000N40       000510400K 10000000010000002052           
CUS0477800000104147597001         PREMATTA RAYMOND J  2908 ONYX RD                            000N        CARE OF             
MTR04778000001000000000000000RA              10015316    005800620000006200000570000003NN  NNW 000                       N    
RDG04778000WATRL000000004K00000000000000139006502142015125551N000000000000N40       000310400K 10000000010000000133           
CUS0477800000104147598009         MULCAHY KEVIN P     2906 ONYX RD                            000N        CARE OF             
MTR04778000001000000000000000RA              10002223    005800630000006300000570000003NN  NNW 000                       N    
RDG04778000WATRL000000004K00000000000000601006602142015125615N000000000000N40       000240400K 10000000010000000581           
CUS0477800000104147599007         LEIGHT MAJOR        2904 ONYX RD                            000N        CARE OF             
MTR04778000001000000000000000RA              31587979    005800640000006400000520000003NN  NNW 000                       N    
RDG04778000WATRL000000004K00000000000002553006702142015125740N000000000000N40       000850400K 10000000010000002529           
CUS0477800000104147600003         DELARA EDUARDO R    2902 ONYX RD                            000N        CARE OF             
MTR04778000001000000000000000RA              14917565    005800650000006500000310000003NN  NNW 000                       N    
RDG04778000WATRL000000004K00000000000000629006802142015125835N000000000000N40       000550400K 10000000010000000618           
CUS0477800000104147601001         ONYX 2900, LLC      2900 ONYX RD                            000N        CARE OF             
MTR04778000001000000000000000RA              00127052    005800660000006600000570000003NN  NNW 000                       N    
RDG04778000WATRL000000004K00000000000000450006902142015125917N000000000000N40       000420400K 10000000010000000432           
CUS0477800000104147602009         MCFILLIN DONALD L,SR2824 ONYX RD                            000N        CARE OF             
MTR04778000001000000000000000RA              00127050    005800670000006700000570000003NN  NNW 000                       N    
RDG04778000WATRL000000004K00000000000000818007002142015130608N000000000000N40       004110400K 10000000010000000813           
CUS0477800000104147603007         GRONCKI ROBERT A    2822 ONYX RD                            000N        CARE OF             
MTR04778000001000000000000000RA              27826188    005800680000006800000520000003NN  NNW 000                       N    
RDG04778000WATRL000000004K00000000000002827007102142015130638N000000000000N40       000300400K 10000000010000002810           
CUS0477800000104147604005         HYSSONG GORDON C    2820 ONYX RD                            000N        CARE OF             
MTR04778000001000000000000000RA              50481707    005800690000006900000520000003NN  NNW 000                       N    
RDG04778000WATRL000000004K00000000000000950007202142015130708N000006500000N40       000300400K 10000000010000000932           
CUS0477800000104147605002         TRUEMAN FLORENCE    2818 ONYX RD                            000N        CARE OF             
MTR04778000001000000000000000RA              50789373    005800700000007000000520000003NN  NNW 000                       N    
RDG04778000WATRL000000004K00000000000001045007302142015130756N000300000010N40       000480400K 10000000010000000829           
CUS0477800000104147606000         GEOGHEGAN CLINTON   2816 ONYX RD                            000N        CARE OF             
MTR04778000001000000000000000RA              10007857    005800710000007100000570000003NN  NNW 000                       N    
RDG04778000WATRL000000004K00000000000000145007402142015130847N000300000010N40       000510400K 10000000010000000079           
CUS0477800000104147607008         GIANNAKIS PANAGIOTA 2814 ONYX RD                            000N        CARE OF             
MTR04778000001000000000000000RA              10007096    005800720000007200000570000003NN  NNW 000                       N    
RDG04778000WATRL000000004K00000000000000594007502142015130958N000000000000N40       000710400K 10000000010000000563           
CUS0477800000104147608006         FERENCE STEPHANIE JO2812 ONYX RD                            000N        CARE OF             
MTR04778000001000000000000000RA              27212739    005800730000007300000520000003NY  NNW 000                       N    
MTM0477800027212739    VAC                                                                                                    
RDG04778000WATRL000000004K00000000000002310007602142015131110N000300000010N40       000720400K 10000000010000002312           
CUS0477800000104147609004         STAFFORD JOHN ROBERT2810 ONYX RD                            000N        CARE OF             
MTR04778000001000000000000000RA              00127049    005800740000007400000570000003NN  NNW 000                       N    
RDG04778000WATRL000000004K00000000000001856007702142015131159N000000000000N40       000490400K 10000000010000001829           
CUS0477800000104147610002         KASPUTIS RICHARD JOH2808 ONYX RD                            000N        CARE OF             
MTR04778000001000000000000000RA              52768426    005800750000007500000520000003NN  NNW 000                       N    
RDG04778000WATRL000000004K00000000000000388007802142015131247N000400000010N40       000480400K 10000000010000000385           
CUS0477800000104147611000         MERCER LORI S       2806 ONYX RD                            000N        CARE OF             
MTR04778000001000000000000000RA              44089156    005800760000007600000520000003NN  NNW 000                       N    
RDG04778000WATRL000000004K00000000000002213000402192015101403N000000000000U40       003890400K 10000000010000002208           
CUS0477800000104147612008         SIMMONT ANTOINETTE E2804 ONYX RD                            000N        CARE OF             
MTR04778000001000000000000000RA              36694953    005800770000007700000520000003NN  NNW 000                       N    
RDG04778000WATRL000000004K00000000000002032007902142015131423N000000000000N40       000960400K 10000000010000002011           
CUS0477800000104147613006         WATKINS GUY A       2802 ONYX RD                            000N        CARE OF             
MTR04778000001000000000000000RA              14902400    005800780000007800000310000003NN  NNW 000                       N    
RDG04778000WATRL000000004K00000000000001313008002142015131532N000300000010N40       000690400K 10000000010000001285           
CUS0477800000104147614004         BAIER MICHAEL J     2800 ONYX RD                            000N        CARE OF             
MTR04778000001000000000000000RA              99289722    005800790000007900000570000003NN  NNW 000                       N    
RDG04778000WATRL000000004K00000000000001136008102142015131622N000000000000N40       000500400K 10000000010000001118           
CUS0477800000104147615001         WELNOSKY JOHN C     8321 BERYL RD                           000N        CARE OF             
MTR04778000001000000000000000RA              14905578    005800800000008000000310000003NN  NNW 000                       N    
RDG04778000WATRL000000004K00000000000000290000502192015101655N000300000010U40       001720400K 10000000010000000299           
CUS0477800000104147616009         GRAY MAURICE M      8323 BERYL RD                           000N        CARE OF             
MTR04778000001000000000000000RA              76348339    005800810000008100000350000003NY  NNW 000                       N    
MTM0477800076348339    PARKED CAR                                                                                             
RDG04778000WATRL000000004K00000000000000078000202262015094703N000300000010U40       002680400K 10000000010000000045           
CUS0477800000104147617007         EBERHARDT DONALD WIL8325 BERYL RD                           000N        CARE OF             
MTR04778000001000000000000000RA              10008256    005800820000008200000570000003NN  NNW 000                       N    
RDG04778000WATRL000000004K00000000000000392000602192015101806N000000000000U40       000710400K 10000000010000000360           
CUS0477800000104147618005         COGSWELL ANGELA M   8401 BERYL RD                           000N        CARE OF             
MTR04778000001000000000000000RA              31584160    005800830000008300000520000003NN  NNW 000                       N    
RDG04778000WATRL000000004K00000000000001538000702192015101923N000000000000U40       000770400K 10000000010000001526           
CUS0477800000104147619003         MATTINGLY LILLIAN R 8403 BERYL RD                           000N        CARE OF             
MTR04778000001000000000000000RA              23055466    005800840000008400000520000003NN  NNW 000                       N    
RDG04778000WATRL000000004K00000000000002057000802192015102029N000300000010U40       000660400K 10000000010000002065           
CUS0477800000104147620001         FRANKLIN NAPAGAL    8405 BERYL RD                           000N        CARE OF             
MTR04778000001000000000000000RA              45384125    005800850000008500000520000003NN  NNW 000                       N    
RDG04778000WATRL000000004K00000000000001385001202192015102220N000300000010U40       000170400K 10000000010000001335           
CUS0477800000104147621009         GREEN GORDON LEE    8404 BERYL RD                           000N        CARE OF             
MTR04778000001000000000000000RA              41074852    005800860000008600000520000003NN  NNW 000                       N    
RDG04778000WATRL000000004K00000000000001569001402192015102355N000000000001U40       000650400K 10000000010000001564           
CUS0477800000104147622007         YOUELLS EDWARD PATRI8402 BERYL RD                           000N        CARE OF             
MTR04778000001000000000000000RA              10012793    005800870000008700000570000003NN  NNW 000                       N    
RDG04778000WATRL000000004K00000000000000706001302192015102250N000300000010U40       000300400K 10000000010000000649           
CUS0477800000104147623005         WHITE JAMES         8400 BERYL RD                           000N        CARE OF             
MTR04778000001000000000000000RA              99387842    005800880000008800000570000003NN  NNW 000                       N    
RDG04778000WATRL000000004K00000000000001833001102192015102203N000000000000U40       000230400K 10000000010000001822           
CUS0477800000104147624003         FEELEY BERNADETTE T 8328 BERYL RD                           000N        CARE OF             
MTR04778000001000000000000000RA              45376839    005800890000008900000520000003NN  NNW 000                       N    
RDG04778000WATRL000000004K00000000000001265001002192015102140N000100000010U40       000300400K 10000000010000001265           
CUS0477800000104147625000         HENSS JEAN M        8326 BERYL RD                           000N        CARE OF             
MTR04778000001000000000000000RA              14913824    005800900000009000000310000003NN  NNW 000                       N    
RDG04778000WATRL000000004K00000000000001051000902192015102110N000000000000U40       000410400K 10000000010000001013           
CUS0477800000104147626008         RAYNER ROBERT L,JR  8324 BERYL RD                           000N        CARE OF             
MTR04778000001000000000000000RA              00127370    005800910000009100000570000003NN  NNW 000                       N    
RDG04778000WATRL000000004K00000000000001346001502192015102609N000300000010U40       001340400K 10000000010000001314           
CUS0477800000104147627006         HEALY JOHN          8322 BERYL RD                           000N        CARE OF             
MTR04778000001000000000000000RA              41589687    005800920000009200000520000003NY  NNW 000                       N    
MTM0477800041589687    CAR                                                                                                    
RDG04778000WATRL000000004K00000000000000000000000000000000000 000000000000U         000000400  10000000010000002582           
CUS0477800000104147628004         KELLOGG LLOYD M, JR 8320 BERYL RD                           000N        CARE OF             
MTR04778000001000000000000000RA              24229179    005800930000009300000520000003NN  NNW 000                       N    
RDG04778000WATRL000000004K00000000000002240001602192015102857N000000000000U40       001680400K 10000000010000002225           
CUS0477800000104147629002         BROWN BRIDGET A     8318 BERYL RD                           000N        CARE OF             
MTR04778000001000000000000000RA              19460644    005800940000009400000520000003NN  NNW 000                       N    
RDG04778000WATRL000000004K00000000000003021001702192015102943N000000000000U40       000460400K 10000000010000002999           
CUS0477800000104147630000         HEALY DENISE M      8316 BERYL RD                           000N        CARE OF             
MTR04778000001000000000000000RA              48593109    005800950000009500000520000003NY  NNW 000                       N    
MTM0477800048593109    ICE                                                                                                    
RDG04778000WATRL000000004K00000000000000000000000000000000000 000000000000U         000000400  10000000010000002252           
CUS0477800000104147631008         BERYLONYX 8312 LLC  8312 BERYL RD                           000N        CARE OF             
MTR04778000001000000000000000RA              10007856    005800960000009600000570000003NN  NNW 000   VACANT / LOT        N    
RDG04778000WATRL000000004K00000000000000000001802192015102952N000000000000U40       000090400K 10000000010000000000           
CUS0477800000104147632006         CLIFFORD C. BRUCK   8310 BERYL RD                           000N        CARE OF             
MTR04778000001000000000000000RA              35104161    005800970000009700000520000003NY  NNW 000                       N    
MTM0477800035104161    ICE                                                                                                    
RDG04778000WATRL000000004K00000000000000000000000000000000000 000000000000U         000000400  10000000010000000184           
CUS0477800000104147633004         MEYER GREGORY C     8306 BERYL RD                           000N        CARE OF             
MTR04778000001000000000000000RA              10021140    005800980000009800000570000003NN  NNW 000                       N    
RDG04778000WATRL000000004K00000000000000533001902192015103322N000000000000U40       002100400K 10000000010000000460           
CUS0477800000104147634002         PLANTHOLT RICHARD S 8304 BERYL RD                           000N        CARE OF             
MTR04778000001000000000000000RA              14927450    005800990000009900000310000003NN  NNW 000                       N    
RDG04778000WATRL000000004K00000000000000923002002192015103459N000000000000U40       000970400K 10000000010000000897           
CUS0477800000104147635009         PRICE BERTHA JANE L 2801 ONYX RD                            000N        CARE OF             
MTR04778000001000000000000000RA              40048578    005801000000010000000520000003NN  NNW 000                       N    
RDG04778000WATRL000000004K00000000000001378008202142015131751N000000000000N40       000890400K 10000000010000001374           
CUS0477800000104147636007         FRANKLIN JEFFEREY A 2803 ONYX RD                            000N        CARE OF             
MTR04778000001000000000000000RA              14913728    005801010000010100000310000003NN  NNW 000                       N    
RDG04778000WATRL000000004K00000000000000862008302142015131824N000000000000N40       000330400K 10000000010000000843           
CUS0477800000104147637005         JACURAK HOLLY M     2805 ONYX RD                            000N        CARE OF             
MTR04778000001000000000000000RA              24766464    005801020000010200000520000003NN  NNW 000                       N    
RDG04778000WATRL000000004K00000000000002883008402142015131916N000300000010N40       000520400K 10000000010000002842           
CUS0477800000104147638003         FITCH DOREEN M      2807 ONYX RD                            000N        CARE OF             
MTR04778000001000000000000000RA              14917564    005801030000010300000310000003NN  NNW 000                       N    
RDG04778000WATRL000000004K00000000000001281008502142015132023N000000000000N40       000670400K 10000000010000001260           
CUS0477800000104147639001         EMKEY JESSICA N     2809 ONYX RD                            000N        CARE OF             
MTR04778000001000000000000000RA              42808003    005801040000010400000520000003NN  NNW 000                       N    
RDG04778000WATRL000000004K00000000000002584002302192015104211N000000000000U40       000630400K 10000000010000002569           
CUS0477800000104147640009         FITZGERALD T KEVIN  2811 ONYX RD                            000N        CARE OF             
MTR04778000001000000000000000RA              77889706    005801050000010500000350000003NN  NNW 000                       N    
RDG04778000WATRL000000004K00000000000000027002402192015104220N000000000010U40       000090400K 10000000010000000000           
CUS0477800000104147641007         KIRBY KATHERINE G   2813 ONYX RD                            000N        CARE OF             
MTR04778000001000000000000000RA              10006276    005801060000010600000570000003NN  NNW 000                       N    
RDG04778000WATRL000000004K00000000000000130002602192015104257N000000000000U40       000070400K 10000000010000000125           
CUS0477800000104147642005         WATTS LARRY R,SR    2815 ONYX RD                            000N        CARE OF             
MTR04778000001000000000000000RA              44092382    005801070000010700000520000003NN  NNW 000                       N    
RDG04778000WATRL000000004K00000000000001415002502192015104250N000000000000U40       000300400K 10000000010000001400           
CUS0477800000104147643003         SHANAHAN KATHLEEN MA2817 ONYX RD                            000N        CARE OF             
MTR04778000001000000000000000RA              10006272    005801080000010800000570000003NN  NNW 000                       N    
RDG04778000WATRL000000004K00000000000000086002202192015104108N000000000000U40       001160400K 10000000010000000083           
CUS0477800000104147644001         SPENCER CELESTE M   2819 ONYX RD                            000N        CARE OF             
MTR04778000001000000000000000RA              00126742    005801090000010900000570000003NN  NNW 000                       N    
RDG04778000WATRL000000004K00000000000001752002702192015104452N000000000001U40       001150400K 10000000010000001743           
CUS0477800000104147645008         BRENDA J KLASS      2821 ONYX RD                            000N        CARE OF             
MTR04778000001000000000000000RA              00126682    005801100000011000000570000003NY  NNW 000                       N    
MTM0477800000126682    FROZEN                                                                                                 
RDG04778000WATRL000000004K00000000000000000000000000000000000 000000000000U         000000400  10000000010000001854           
CUS0477800000104147646006         LEE THOMAS P        2823 ONYX RD                            000N        CARE OF             
MTR04778000001000000000000000RA              74692416    005801110000011100000350000003NN  NNW 000                       N    
RDG04778000WATRL000000004K00000000000000158002102192015103912N000000000000U40       002530400K 10000000010000000140           
CUS0477800000104147647004         KIERRAN G. SUTHERLAN2825 ONYX RD                            000N        CARE OF             
MTR04778000001000000000000000RA              75617309    005801120000011200000350000003NN  NNW 000                       N    
RDG04778000WATRL000000004K00000000000000084002802192015104633N000000000002U40       001010400K 10000000010000000071           
CUS0477800000104147648002         ROOMETS TOIVO       2901 ONYX RD                            000N        CARE OF             
MTR04778000001000000000000000RA              10017519    005801130000011300000570000003NN  NNW 000                       N    
RDG04778000WATRL000000004K00000000000000447005302142015124005N000000000000N40       004430400K 10000000010000000429           
CUS0477800000104147649000         CHASE GREGORY M     2903 ONYX RD                            000N        CARE OF             
MTR04778000001000000000000000RA              11326872    005801140000011400000570000003NN  NNW 000                       N    
RDG04778000WATRL000000004K00000000000003137005402142015124130N000000000000N40       000850400K 10000000010000003123           
CUS0477800000104147650008         ALCALA ISMAEL       2905 ONYX RD                            000N        CARE OF             
MTR04778000001000000000000000RA              14909781    005801150000011500000310000003NN  NNW 000                       N    
RDG04778000WATRL000000004K00000000000001517005502142015124159N000000000000N40       000290400K 10000000010000001504           
CUS0477800000104147651006         GARRISON JEAN TRETT 2907 ONYX RD                            000N        CARE OF             
MTR04778000001000000000000000RA              75617305    005801160000011600000350000003NN  NNW 000                       N    
RDG04778000WATRL000000004K00000000000000173005602142015124250N000000000000N40       000510400K 10000000010000000153           
CUS0477800000104147652004         VALENTINE WILLIAM M 2909 ONYX RD                            000N        CARE OF             
MTR04778000001000000000000000RA              77987577    005801170000011700000350000003NN  NNW 000                       N    
RDG04778000WATRL000000004K00000000000000000000302262015101509S001000000000U40       016860400K 10000000010000000002           
CUS0477800000104147653002         PARKS RICHARD LEE   2911 ONYX RD                            000N        CARE OF             
MTR04778000001000000000000000RA              10008281    005801180000011800000570000003NN  NNW 000                       N    
RDG04778000WATRL000000004K00000000000000444005702142015124519N000000000000N40       001490400K 10000000010000000425           
CUS0477800000104147654000         NEWTON BONITA A     2913 ONYX RD                            000N        CARE OF             
MTR04778000001000000000000000RA              50791229    005801190000011900000520000003NY  NNW 000                       N    
MTM0477800050791229    ICE IN VAULT                                                                                           
RDG04778000WATRL000000004K00000000000000000000000000000000000 000000000000U         000000400  10000000010000000695           
CUS0477800000104147655007         ALLEN DOUGLAS WAYNE 2915 ONYX RD                            000N        CARE OF             
MTR04778000001000000000000000RA              10010877    005801200000012000000570000003NN  NNW 000                       N    
RDG04778000WATRL000000004K00000000000000246005802142015124819N000000000000N40       001800400K 10000000010000000227           
CUS0477800000104147656005         WHITLEY SARAH       2917 ONYX RD                            000N        CARE OF             
MTR04778000001000000000000000RA              14905636    005801210000012100000310000003NN  NNW 000                       N    
RDG04778000WATRL000000004K00000000000000432005902142015124942N000000000000N40       000830400K 10000000010000000432           
CUS0477800000104147657003         HOWARD WILLIAM A,4TH2919 ONYX RD                            000N        CARE OF             
MTR04778000001000000000000000RA              29682243    005801220000012200000520000003NN  NNW 000                       N    
RDG04778000WATRL000000004K00000000000001772006002142015125052N000000000000N40       000700400K 10000000010000001761           
CUS0477800000104147658001         BELEOS GUS P        8312 HARFORD RD                         000N        CARE OF             
MTR04778000001000000000000000RA              14914932    001501230000012300000310000003NN  NNW 000   VACANT / LOT        N    
RDG04778000WATRL000000005K00000000000000014002902192015105520N000000000000U40       005270500K 10000000010000000014           
CUS0477800000104147660007         PARKVILLE BODY & FEN8306 HARFORD RD                         000N        CARE OF             
MTR04778000001000000000000000RA              22610341    005801240000012400000520000003NN  NNW 000                       N    
RDG04778000WATRL000000004K00000000000004656003002192015105821N000000000000U40       001810400K 10000000010000004643           
CUS0477800000104147661005         RAVENETTE REALTY LLC8304 HARFORD RD                         000N        CARE OF             
MTR04778000001000000000000000RA              42809360    005801250000012500000520000003NN  NNW 000                       N    
RDG04778000WATRL000000004K00000000000003875003102192015110002N000000000000U40       001010400K 10000000010000003836           
CUS0477800000104147662003         8300 LLC            8300 HARFORD RD                         000N        CARE OF             
MTR04778000001000000000000000RA              39582068    005801260000012600000520000003NN  NNW 000                       N    
RDG04778000WATRL000000004K00000000000004757007702192015130452N000000000000U40       005010400K 10000000010000004615           
CUS0477800000104147663001         SAMIOS-UY ERIC B    2912 EMERALD RD                         000N        CARE OF             
MTR04778000001000000000000000RA              75423896    005801270000012700000350000003NN  NNW 000                       N    
RDG04778000WATRL000000004K00000000000000240007002192015121708N000000000000U40       001620400K 10000000010000000210           
CUS0477800000104147664009         WILEY ROBERT GEORGE 2910 EMERALD RD                         000N        CARE OF             
MTR04778000001000000000000000RA              27213967    005801280000012800000520000003NY  NNW 000                       N    
MTM0477800027213967    ICE                                                                                                    
RDG04778000WATRL000000004K00000000000000000000000000000000000 000000000000U         000000400  10000000010000004727           
CUS0477800000104147665006         LAMBDIN ALFRED LOUIS2908 EMERALD RD                         000N        CARE OF             
MTR04778000001000000000000000RA              99188231    005801290000012900000570000003NN  NNW 000                       N    
RDG04778000WATRL000000004K00000000000001635006902192015121426N000300000010U40       000920400K 10000000010000001579           
CUS0477800000104147666004         GADBOIS JOSHUA E    2906 EMERALD RD                         000N        CARE OF             
MTR04778000001000000000000000RA              10017612    005801300000013000000570000003NN  NNW 000                       N    
RDG04778000WATRL000000004K00000000000000570006702192015121243N000300000020U40       001420400K 10000000010000000355           
CUS0477800000104147667002         TOSKES DEAN A       2904 EMERALD RD                         000N        CARE OF             
MTR04778000001000000000000000RA              35115668    005801310000013100000520000003NN  NNW 000                       N    
RDG04778000WATRL000000004K00000000000002928006802192015121254N000000000000U40       000110400K 10000000010000002910           
CUS0477800000104147668000         MITCHELL JOEL LEWIS 2902 EMERALD RD                         000N        CARE OF             
MTR04778000001000000000000000RA              26016913    005801320000013200000520000003NN  NNW 000                       N    
RDG04778000WATRL000000004K00000000000002821006602192015121021N000300000010U40       001080400K 10000000010000002788           
CUS0477800000104147669008         ROOT ROBERT H,JR    2900 EMERALD RD                         000N        CARE OF             
MTR04778000001000000000000000RA              10006031    005801330000013300000570000003NN  NNW 000                       N    
RDG04778000WATRL000000004K00000000000000117006502192015120833N000300000010U40       000910400K 10000000010000000130           
CUS0477800000104147670006         GETZ TODD C         2826 EMERALD RD                         000N        CARE OF             
MTR04778000001000000000000000RA              26014152    005801340000013400000520000003NN  NNW 000                       N    
RDG04778000WATRL000000004K00000000000001252006102192015120325N000000000000U40       000050400K 10000000010000001235           
CUS0477800000104147671004         PELLE DONALD C      2824 EMERALD RD                         000N        CARE OF             
MTR04778000001000000000000000RA              52289918    005801350000013500000520000003NN  NNW 000                       N    
RDG04778000WATRL000000004K00000000000001681005902192015120156N000300000010U40       000130400K 10000000010000001633           
CUS0477800000104147672002         MATTHEW MCPHERSON   2822 EMERALD RD                         000N        CARE OF             
MTR04778000001000000000000000RA              41075490    005801360000013600000520000003NN  NNW 000                       N    
RDG04778000WATRL000000004K00000000000000885006002192015120320N000000000000U40       000840400K 10000000010000000859           
CUS0477800000104147673000         MILBURN ALICE MAY   2820 EMERALD RD                         000N        CARE OF             
MTR04778000001000000000000000RA              00126743    005801370000013700000570000003NN  NNW 000                       N    
RDG04778000WATRL000000004K00000000000000771000902262015105331N000000000000U40       004370400K 10000000010000000755           
CUS0477800000104147674008         GASIOROWSKI LINDA   2818 EMERALD RD                         000N        CARE OF             
MTR04778000001000000000000000RA              46875660    005801380000013800000520000003NN  NNW 000                       N    
RDG04778000WATRL000000004K00000000000001893005402192015115519N000000000000U40       000960400K 10000000010000001879           
CUS0477800000104147675005         HAWK DANIEL A       2816 EMERALD RD                         000N        CARE OF             
MTR04778000001000000000000000RA              01112806    005801390000013900000610000003NN  NNW 000                       N    
RDG04778000WATRL000000004K00000000000000826005502192015115632N000000000000U40       000730400K 10000000010000000812           
CUS0477800000104147676003         SMITH DONALD S      2814 EMERALD RD                         000N        CARE OF             
MTR04778000001000000000000000RA              45386151    005801400000014000000520000003NN  NNW 000                       N    
RDG04778000WATRL000000004K00000000000001588000702262015104126N000000000000U40       000720400K 10000000010000001571           
CUS0477800000104147677001         TRAUTNER PAUL W     2812 EMERALD RD                         000N        CARE OF             
MTR04778000001000000000000000RA              00126745    005801410000014100000570000003NN  NNW 000                       N    
RDG04778000WATRL000000004K00000000000001227000602262015104014N000000000000U40       002270400K 10000000010000001210           
CUS0477800000104147678009         FINK MARY P         2810 EMERALD RD                         000N        CARE OF             
MTR04778000001000000000000000RA              99188225    005801420000014200000570000003NN  NNW 000                       N    
RDG04778000WATRL000000004K00000000000000893004102192015113348N000400000010U40       005010400K 10000000010000000889           
CUS0477800000104147679007         JECELIN THOMAS W    2808 EMERALD RD                         000N        CARE OF             
MTR04778000001000000000000000RA              46878405    005801430000014300000520000003NY  NNW 000                       N    
MTM0477800046878405    FROZEN                                                                                                 
RDG04778000WATRL000000004K00000000000002419000502262015103627N000000000000U40       004240400K 10000000010000002389           
CUS0477800000104147680005         HERSHEY LESLIE C    2806 EMERALD RD                         000N        CARE OF             
MTR04778000001000000000000000RA              48594585    005801440000014400000520000003NN  NNW 000                       N    
RDG04778000WATRL000000004K00000000000002039004302192015113513N000300000011U40       000260400K 10000000010000001987           
CUS0477800000104147681003         GARRETT WILLIAM J,3R2804 EMERALD RD                         000N        CARE OF             
MTR04778000001000000000000000RA              14913527    005801450000014500000310000003NN  NNW 000                       N    
RDG04778000WATRL000000004K00000000000000903004402192015113517N000000000000U40       000040400K 10000000010000000869           
CUS0477800000104147682001         COLESANTI MICHAEL J 2802 EMERALD RD                         000N        CARE OF             
MTR04778000001000000000000000RA              48584068    005801460000014600000520000003NN  NNW 000                       N    
RDG04778000WATRL000000004K00000000000000646000402262015102923N000000000000U40       008540400K 10000000010000000629           
CUS0477800000104147683009         PRATT DERREK        2800 EMERALD RD                         000N        CARE OF             
MTR04778000001000000000000000RA              14908186    005801470000014700000310000003NN  NNW 000                       N    
RDG04778000WATRL000000004K00000000000001100004502192015113646N000300000010U40       000890400K 10000000010000001067           
CUS0477800000104147684007         ARENGO CAROLE  JOHNS2710 EMERALD RD                         000N        CARE OF             
MTR04778000001000000000000000RA              50476413    005801480000014800000520000003NN  NNW 000                       N    
RDG04778000WATRL000000004K00000000000000867004002192015112527N000000000000U40       001950400K 10000000010000000854           
CUS0477800000104147685004         THOMAS JOHN J       2708 EMERALD RD                         000N        CARE OF             
MTR04778000001000000000000000RA              00126749    005801490000014900000570000003NY  NNW 000                       N    
MTM0477800000126749    MURKY WATER                                                                                            
RDG04778000WATRL000000004K00000000000000538007602192015125631N000408400010U40       001810400K 10000000010000000535           
CUS0477800000104147686002         FENTON JON E        2706 EMERALD RD                         000N        CARE OF             
MTR04778000001000000000000000RA              50787280    005801500000015000000520000003NN  NNW 000                       N    
RDG04778000WATRL000000004K00000000000001035003702192015111952N000000000010U40       000820400K 10000000010000001019           
CUS0477800000104147687000         GREVE GRACE C       2704 EMERALD RD                         000N        CARE OF             
MTR04778000001000000000000000RA              00126741    005801510000015100000570000003NN  NNW 000                       N    
RDG04778000WATRL000000004K00000000000000918003602192015111830N000000000000U40       001390400K 10000000010000000909           
CUS0477800000104147688008         VELTEN JOHN M       2702 EMERALD RD                         000N        CARE OF             
MTR04778000001000000000000000RA              50788727    005801520000015200000520000003NY  NNW 000                       N    
MTM0477800050788727    FROZEN                                                                                                 
RDG04778000WATRL000000004K00000000000000000000000000000000000 000000000000U         000000400  10000000010000001227           
CUS0477800000104147689006         CARRERA VITTORIO LUI2700 EMERALD RD                         000N        CARE OF             
MTR04778000001000000000000000RA              44173417    005801530000015300000520000003NN  NNW 000                       N    
RDG04778000WATRL000000004K00000000000001628003202192015111405N000300000010U40       008430400K 10000000010000001585           
CUS0477800000104147690004         KELLY DANIELLE      2701 EMERALD RD                         000N        CARE OF             
MTR04778000001000000000000000RA              14905638    005801540000015400000310000003NN  NNW 000                       N    
RDG04778000WATRL000000004K00000000000000557003302192015111508N000300000010U40       000630400K 10000000010000000510           
CUS0477800000104147691002         CROWL GUY W         2703 EMERALD RD                         000N        CARE OF             
MTR04778000001000000000000000RA              10008611    005801550000015500000570000003NN  NNW 000                       N    
RDG04778000WATRL000000004K00000000000000355003402192015111530N000000000000U40       000220400K 10000000010000000328           
CUS0477800000104147692000         HOLBROOK JOANNE A   2705 EMERALD RD                         000N        CARE OF             
MTR04778000001000000000000000RA              41082446    005801560000015600000520000003NN  NNW 000                       N    
RDG04778000WATRL000000004K00000000000000584003502192015111611N000000000000U40       000410400K 10000000010000000577           
CUS0477800000104147693008         MATTES HEATHER ANN  2707 EMERALD RD                         000N        CARE OF             
MTR04778000001000000000000000RA              14905603    005801570000015700000310000003NN  NNW 000                       N    
RDG04778000WATRL000000004K00000000000000402007502192015125330N000000000000U40       017890400K 10000000010000000395           
CUS0477800000104147694006         CAITLIN WUNDER      2709 EMERALD RD                         000N        CARE OF             
MTR04778000001000000000000000RA              14917567    005801580000015800000310000003NN  NNW 000                       N    
RDG04778000WATRL000000004K00000000000000056003802192015112005N000300000010U40       000130400K 10000000010000000011           
CUS0477800000104147695003         HOUCK RANDOLPH S,SR 2711 EMERALD RD                         000N        CARE OF             
MTR04778000001000000000000000RA              00137624    005801590000015900000570000003NN  NNW 000                       N    
RDG04778000WATRL000000004K00000000000000878003902192015112212N000000000000U40       001270400K 10000000010000000860           
CUS0477800000104147696001         HAYMAN GLENWOOD W,2N2713 EMERALD RD                         000N        CARE OF             
MTR04778000001000000000000000RA              24770722    005801600000016000000520000003NN  NNW 000                       N    
RDG04778000WATRL000000004K00000000000000982004602192015113731N000000000000U40       000450400K 10000000010000000965           
CUS0477800000104147697009         CATIMO NATIVIDAD L  2801 EMERALD RD                         000N        CARE OF             
MTR04778000001000000000000000RA              52289852    005801610000016100000520000003NN  NNW 000                       N    
RDG04778000WATRL000000004K00000000000001880004802192015113911N000300000010U40       000110400K 10000000010000001850           
CUS0477800000104147698007         SAUTER ANNA         2803 EMERALD RD                         000N        CARE OF             
MTR04778000001000000000000000RA              44088896    005801620000016200000520000003NN  NNW 000                       N    
RDG04778000WATRL000000004K00000000000001192004702192015113900N000100000010U40       000890400K 10000000010000001192           
CUS0477800000104147699005         DANA HARTMANN       2805 EMERALD RD                         000N        CARE OF             
MTR04778000001000000000000000RA              10000978    005801630000016300000570000003NN  NNW 000                       N    
RDG04778000WATRL000000004K00000000000000128004902192015114223N000000000000U40       001920400K 10000000010000000115           
CUS0477800000104147700001         MEEKS COLIN         2807 EMERALD RD                         000N        CARE OF             
MTR04778000001000000000000000RA              45379356    005801640000016400000520000003NY  NNW 000                       N    
MTM0477800045379356    ICE                                                                                                    
RDG04778000WATRL000000004K00000000000000000000000000000000000 000000000000U         000000400  10000000010000003405           
CUS0477800000104147701009         FORSTNER RICHARD F  2809 EMERALD RD                         000N        CARE OF             
MTR04778000001000000000000000RA              38886944    005801650000016500000520000003NN  NNW 000                       N    
RDG04778000WATRL000000004K00000000000003075005002192015114806N000008400000U40       003430400K 10000000010000003064           
CUS0477800000104147702007         APPLE CHARLES STEWAR2811 EMERALD RD                         000N        CARE OF             
MTR04778000001000000000000000RA              10006993    005801660000016600000570000003NN  NNW 000                       N    
RDG04778000WATRL000000004K00000000000000271005102192015114923N000000000000U40       000770400K 10000000010000000259           
CUS0477800000104147703005         YOUNG JACOB         2813 EMERALD RD                         000N        CARE OF             
MTR04778000001000000000000000RA              14929094    005801670000016700000310000003NN  NNW 000                       N    
RDG04778000WATRL000000004K00000000000000723005202192015115032N000000000000U40       000690400K 10000000010000000706           
CUS0477800000104147704003         MICHAEL D EINOLF    2815 EMERALD RD                         000N        CARE OF             
MTR04778000001000000000000000RA              46879547    005801680000016800000520000003NY  NNW 000                       N    
MTM0477800046879547    ICE                                                                                                    
RDG04778000WATRL000000004K00000000000001410000802262015104614N000000000000U40       002880400K 10000000010000001379           
CUS0477800000104147705000         LOIS ANN CUGLE      2817 EMERALD RD                         000N        CARE OF             
MTR04778000001000000000000000RA              00126744    005801690000016900000570000003NY  NNW 000                       N    
MTM0477800000126744    ICE                                                                                                    
RDG04778000WATRL000000004K00000000000000000000000000000000000 000000000000U         000000400  10000000010000000698           
CUS0477800000104147706008         ZINK RICHARD C      2819 EMERALD RD                         000N        CARE OF             
MTR04778000001000000000000000RA              39583272    005801700000017000000520000003NN  NNW 000                       N    
RDG04778000WATRL000000004K00000000000001810005302192015115343N000400000010U40       001910400K 10000000010000001808           
CUS0477800000104147707006         SUSAN P. MONSSON    2821 EMERALD RD                         000N        CARE OF             
MTR04778000001000000000000000RA              14912429    005801710000017100000310000003NN  NNW 000                       N    
RDG04778000WATRL000000004K00000000000000444005602192015115949N000000000000U40       001970400K 10000000010000000419           
CUS0477800000104147708004         FORMWALT JACK M     2823 EMERALD RD                         000N        CARE OF             
MTR04778000001000000000000000RA              31580087    005801720000017200000520000003NN  NNW 000                       N    
RDG04778000WATRL000000004K00000000000002009005702192015120005N000000000000U40       000160400K 10000000010000001990           
CUS0477800000104147709002         DOUGHERTY ROBERT CAR2825 EMERALD RD                         000N        CARE OF             
MTR04778000001000000000000000RA              99389447    005801730000017300000570000003NN  NNW 000                       N    
RDG04778000WATRL000000004K00000000000001881005802192015120143N000000000000U40       000980400K 10000000010000001845           
CUS0477800000104147710000         THERA BLEHAR        2827 EMERALD RD                         000N        CARE OF             
MTR04778000001000000000000000RA              10007648    005801740000017400000570000003NN  NNW 000                       N    
RDG04778000WATRL000000004K00000000000000347006202192015120525N000000000000U40       001200400K 10000000010000000325           
CUS0477800000104147711008         BROUSE CATHERINE A  2829 EMERALD RD                         000N        CARE OF             
MTR04778000001000000000000000RA              50790838    005801750000017500000520000003NN  NNW 000                       N    
RDG04778000WATRL000000004K00000000000000576006302192015120641N000000000001U40       000760400K 10000000010000000571           
CUS0477800000104147712006         ROSE JOEL           2831 EMERALD RD                         000N        CARE OF             
MTR04778000001000000000000000RA              24759428    005801760000017600000520000003NN  NNW 000                       N    
RDG04778000WATRL000000004K00000000000003344006402192015120702N000000000000U40       000210400K 10000000010000003320           
CUS0477800000104147713004         HADLEY CYNTHIA M    2901 EMERALD RD                         000N        CARE OF             
MTR04778000001000000000000000RA              14928419    005801770000017700000310000003NY  NNW 000                       N    
MTM0477800014928419    ICE                                                                                                    
RDG04778000WATRL000000004K00000000000000000000000000000000000 000000000000U         000000400  10000000010000000665           
CUS0477800000104147714002         SCHAEFER MARY E     2903 EMERALD RD                         000N        CARE OF             
MTR04778000001000000000000000RA              14922231    005801780000017800000310000003NN  NNW 000                       N    
RDG04778000WATRL000000004K00000000000000914007402192015122341N000000000000U40       000960400K 10000000010000000897           
CUS0477800000104147715009         HEYWOOD JAMES S,JR  2905 EMERALD RD                         000N        CARE OF             
MTR04778000001000000000000000RA              00126751    005801790000017900000570000003NN  NNW 000                       N    
RDG04778000WATRL000000004K00000000000000996007302192015122205N000000000000U40       000090400K 10000000010000000972           
CUS0477800000104147716007         SMITH RICHARD L     2907 EMERALD RD                         000N        CARE OF             
MTR04778000001000000000000000RA              00126830    005801800000018000000570000003NN  NNW 000                       N    
RDG04778000WATRL000000004K00000000000001054007202192015122156N000400000010U40       001100400K 10000000010000001040           
CUS0477800000104147717005         HENDRICKS WILLIAM D 2909 EMERALD RD                         000N        CARE OF             
MTR04778000001000000000000000RA              50788368    005801810000018100000520000003NN  NNW 000                       N    
RDG04778000WATRL000000004K00000000000000963007102192015122006N000000000000U40       001780400K 10000000010000000945           
CUS0477800000104147718003         TORRES SERBANDO J   2911 EMERALD RD                         000N        CARE OF             
MTR04778000001000000000000000RA              11326563    005801820000018200000570000003NY  NNW 000                       N    
MTM0477800011326563    ICE                                                                                                    
RDG04778000WATRL000000004K00000000000000000000000000000000000 000000000000U         000000400  10000000010000005495           
CUS0477800000104398988008         NNANNA MERCY OWOH   2915 EMERALD RD                         000N        CARE OF             
MTR04778000001000000000000000RA              40779171    005801830000018300000520000003NY  NNW 000                       N    
MTM0477800040779171    FROZEN                                                                                                 
RDG04778000WATRL000000004K00000000000003201001002262015110552N000000000000U40       007410400K 10000000010000003180           
RTR04778000NN01830183000001830000000001830183000342NY018301830183001200010000000000000000000001    02022015NY020000 N         
RHD02168500NN01860186000001860000000001860186000178NY018601860186000900000000000000000000000001    01202015NY020000 N         
CUS0216850000102319705006         PIERSON, W MICHEL   2210 CHILHAM RD                         000N        CARE OF             
MTR02168500001000000000000000RA              35105475    007500010000000100000520000003NN  NNW 000                       N    
RDG02168500WATRL000000004K00000000000002943007101312015121116N000000000000U20       001760400K 10000000010000002928           
CUS0216850000102319706004         PEETER KIIK & WF    2206 CHILHAM RD                         000N        CARE OF             
MTR02168500001000000000000000RA              14928254    007500020000000200000310000003NN  NNW 000                       N    
RDG02168500WATRL000000004K00000000000000317001401312015113246N000000000000U20       004920400K 10000000010000000307           
CUS0216850000102319707002         HOUTSMULLER, ELISABE2204 CHILHAM RD                         000N        CARE OF             
MTR02168500001000000000000000RA              44093176    005800030000000300000520000003NN  NNW 000                       N    
RDG02168500WATRL000000004K00000000000001760001501312015113348N000000000000U20       000620400K 10000000010000001747           
CUS0216850000102319708000         EDSALL, THOMAS      2202 CHILHAM RD                         000N        CARE OF             
MTR02168500001000000000000000RA              35100572    007500040000000400000520000003NN  NNW 000                       N    
RDG02168500WATRL000000004K00000000000004142001601312015113441N000400000020U20       000530400K 10000000010000004133           
CUS0216850000102319709008         FALKNER, THOMAS M.  2200 CHILHAM RD                         000N        CARE OF             
MTR02168500001000000000000000RA              99189069    005800050000000500000570000003NN  NNW 000                       N    
RDG02168500WATRL000000004K00000000000001333001701312015113525N000000000010U20       000440400K 10000000010000001310           
CUS0216850000102319710006         MACDONALD, PATRICIA 5718 UFFINGTON RD                       000N        CARE OF             
MTR02168500001000000000000000RA              44086542    005800060000000600000520000003NN  NNW 000                       N    
RDG02168500WATRL000000004K00000000000003021001801312015113556N000400000010U20       000310400K 10000000010000003015           
CUS0216850000102319711004         STEWART, JEFFREY B. 5720 UFFINGTON RD                       000N        CARE OF             
MTR02168500001000000000000000RA              54351163    005800070000000700000520000003NN  NNW 000                       N    
RDG02168500WATRL000000004K00000000000001797001901312015113659N000000000001U20       000060400K 10000000010000001774           
CUS0216850000102431507009         RESTELLI, EDWARD    5722 UFFINGTON RD                       000N        CARE OF             
MTR02168500001000000000000000RA              99187722    007500080000000800000570000000NN  NNW 000                       N    
RDG02168500WATRL000000004K00000000000002052002001312015113715N000000000000U20       000160400K 10000000010000002034           
CUS0216850000102319712002         ZIVKOVICH, MARGARET 5724 UFFINGTON RD                       000N        CARE OF             
MTR02168500001000000000000000RA              44086545    005800090000000900000520000003NN  NNW 000                       N    
RDG02168500WATRL000000004K00000000000001927002101312015113742N000000000010U20       000270400K 10000000010000001904           
CUS0216850000102319713000         BAINUM, MICHAEL     5726 UFFINGTON RD                       000N        CARE OF             
MTR02168500001000000000000000RA              01086431    005800100000001000000610000003NN  NNW 000                       N    
RDG02168500WATRL000000004K00000000000000663002201312015113810N000000000000U20       000280400K 10000000010000000651           
CUS0216850000102319714008         NOBLE, DAVID        2114 WEBB LN                            000N        CARE OF             
MTR02168500001000000000000000RA              00163526    000100110000001100000570000003NN  NNW 000                       N    
RDG02168500WATRL000000004K00000000000000000000000000000000000 000000000000U         000000400  10000000010000000940           
CUS0216850000102319715005         GLASSER, NATALIE L  2112 WEBB LN                            000N        CARE OF             
MTR02168500001000000000000000RA              41089319    007500120000001200000520000003NN  NNW 000                       N    
RDG02168500WATRL000000004K00000000000000000000000000000000000 000000000000U         000000400  10000000010000002780           
CUS0216850000102419918004         LAURIE ATKINSON     2110 WEBB LN                            000N        CARE OF             
MTR02168500001000000000000000RA              50477822    005800130000001300000520000003NN  NNW 000                       N    
RDG02168500WATRL000000004K00000000000000000000000000000000000 000000000000U         000000400  10000000010000001592           
CUS0216850000102319716003         SMOKLER, JEFFREY D  2110 UFFINGTON RD                       000N        CARE OF             
MTR02168500001000000000000000RA              01098444    007500140000001400000610000003NN  NNW 000                       N    
RDG02168500WATRL000000004K00000000000001294002301312015113927N000000000000U20       000770400K 10000000010000001249           
CUS0216850000102319717001         JOSEPH, RICHARD I.  2106 UFFINGTON RD                       000N        CARE OF             
MTR02168500001000000000000000RA              27893768    007500150000001500000520000003NN  NNW 000                       N    
RDG02168500WATRL000000004K00000000000003008002401312015114010N000000000020U20       000430400K 10000000010000002997           
CUS0216850000102319718009         PAUL FINE           2100 UFFINGTON RD                       000N        CARE OF             
MTR02168500001000000000000000RA              00136757    005800160000001600000570000003NN  NNW 000                       N    
RDG02168500WATRL000000004K00000000000001313002501312015114122N000000000000U20       000720400K 10000000010000001295           
CUS0216850000102319719007         JOHN & JEAN CAMPBELL5727 RANNY RD                           000N        CARE OF             
MTR02168500001000000000000000RA              23647069    005800170000001700000520000003NN  NNW 000                       N    
RDG02168500WATRL000000004K00000000000003162002601312015114224N000000000000U20       000620400K 10000000010000003147           
CUS0216850000102319720005         ISRAEL WEITZMAN     5725 RANNY RD                           000N        CARE OF             
MTR02168500001000000000000000RA              31584787    005800180000001800000520000003NN  NNW 000                       N    
RDG02168500WATRL000000004K00000000000001807002701312015114254N000000000000U20       000300400K 10000000010000001801           
CUS0216850000102319721003         THOMPSON, CALLA EVEL5723 RANNY RD                           000N        CARE OF             
MTR02168500001000000000000000RA              48589720    005800190000001900000520000003NN  NNW 000                       N    
RDG02168500WATRL000000004K00000000000001608002801312015114332N000000000000U20       000380400K 10000000010000001593           
CUS0216850000102319722001         COHEN, VICKI L      5721 RANNY RD                           000N        CARE OF             
MTR02168500001000000000000000RA              44086652    005800200000002000000520000003NN  NNW 000                       N    
RDG02168500WATRL000000004K00000000000001939002901312015114337N000000000010U20       000050400K 10000000010000001931           
CUS0216850000102319723009         ALSTEIN, HOWARD     5719 RANNY RD                           000N        CARE OF             
MTR02168500001000000000000000RA              00119149    007500210000002100000570000003NN  NNW 000                       N    
RDG02168500WATRL000000004K00000000000000534003001312015114409N000000000000U20       000320400K 10000000010000000524           
CUS0216850000102319724007         WARING, JAMES CONWAY5717 RANNY RD                           000N        CARE OF             
MTR02168500001000000000000000RA              50480164    005800220000002200000520000003NN  NNW 000                       N    
RDG02168500WATRL000000004K00000000000000689003101312015114427N000000000000U20       000180400K 10000000010000000676           
CUS0216850000102319725004         GODOFF, STEPHEN    (5715 RANNY RD                           000N        CARE OF             
MTR02168500001000000000000000RA              52768644    005800230000002300000520000003NN  NNW 000                       N    
RDG02168500WATRL000000004K00000000000000797003201312015114505N000000000000U20       000380400K 10000000010000000789           
CUS0216850000102319726002         DAVIS, JOANNE L.    5713 RANNY RD                           000N        CARE OF             
MTR02168500001000000000000000RA              24758625    005800240000002400000520000003NN  NNW 000                       N    
RDG02168500WATRL000000004K00000000000003463003301312015114528N000000000000U20       000230400K 10000000010000003447           
CUS0216850000102319727000         REAMER, ANDREW L    5711 RANNY RD                           000N        CARE OF             
MTR02168500001000000000000000RA              35114181    005800250000002500000520000003NN  NNW 000                       N    
RDG02168500WATRL000000004K00000000000002531003401312015114552N000000000000U20       000240400K 10000000010000002505           
CUS0216850000102319728008         FRIEDMAN, ERIC J    5709 RANNY RD                           000N        CARE OF             
MTR02168500001000000000000000RA              01091315    005800260000002600000610000003NN  NNW 000                       N    
RDG02168500WATRL000000004K00000000000001258003501312015114602N000000000000U20       000100400K 10000000010000001235           
CUS0216850000102319729006         SIDHU, MEHGAN       5707 RANNY RD                           000N        CARE OF             
MTR02168500001000000000000000RA              27813525    005800270000002700000520000003NN  NNW 000                       N    
RDG02168500WATRL000000004K00000000000002831003601312015114630N000000000000U20       000280400K 10000000010000002809           
CUS0216850000102319730004         MANNING, EMILY      5705 RANNY RD                           000N        CARE OF             
MTR02168500001000000000000000RA              10020623    005800280000002800000570000003NN  NNW 000                       N    
RDG02168500WATRL000000004K00000000000000150003701312015114648N000000000010U20       000180400K 10000000010000000133           
CUS0216850000102319731002         BURKEY, WILLIAM E   5703 RANNY RD                           000N        CARE OF             
MTR02168500001000000000000000RA              35114960    005800290000002900000520000003NN  NNW 000                       N    
RDG02168500WATRL000000004K00000000000001721003801312015114722N000000000000U20       000340400K 10000000010000001710           
CUS0216850000102319732000         MELVIN RINGEL       5701 RANNY RD                           000N        CARE OF             
MTR02168500001000000000000000RA              01091310    005800300000003000000610000003NN  NNW 000                       N    
RDG02168500WATRL000000004K00000000000000639009801312015124039N000000000000U20       000550400K 10000000010000000631           
CUS0216850000102319733008         PAULINE HORN        5700 RANNY RD                           000N        CARE OF             
MTR02168500001000000000000000RA              23054949    005800310000003100000520000003NN  NNW 000                       N    
RDG02168500WATRL000000004K00000000000003213003901312015114751N000000000010U20       000290400K 10000000010000003199           
CUS0216850000102319734006         KELLY, BRIAN W      5702 RANNY RD                           000N        CARE OF             
MTR02168500001000000000000000RA              24221745    005800320000003200000520000003NN  NNW 000                       N    
RDG02168500WATRL000000004K00000000000003260004001312015114805N000000000000U20       000140400K 10000000010000003251           
CUS0216850000102319735003         WEISS, WILLIAM J.   5704 RANNY RD                           000N        CARE OF             
MTR02168500001000000000000000RA              76344444    005800330000003300000350000003NN  NNW 000                       N    
RDG02168500WATRL000000004K00000000000000070004101312015114858N000000000000U20       000530400K 10000000010000000056           
CUS0216850000102319736001         CERVONE, EMMA       5706 RANNY RD                           000N        CARE OF             
MTR02168500001000000000000000RA              26018554    005800340000003400000520000003NN  NNW 000                       N    
RDG02168500WATRL000000004K00000000000002436004201312015114912N000000000000U20       000140400K 10000000010000002426           
CUS0216850000102319737009         GOLLOGLY, EZRA S    5708 RANNY RD                           000N        CARE OF             
MTR02168500001000000000000000RA              52288691    005800350000003500000520000003NN  NNW 000                       N    
RDG02168500WATRL000000004K00000000000000760004301312015114948N000000000000U20       000360400K 10000000010000000751           
CUS0216850000102319738007         WOLPERT, ILENE DALE 5710 RANNY RD                           000N        CARE OF             
MTR02168500001000000000000000RA              01091319    005800360000003600000610000003NN  NNW 000                       N    
RDG02168500WATRL000000004K00000000000000615004401312015115010N000000000000U20       000220400K 10000000010000000606           
CUS0216850000102319739005         SMITH, KIM BRADLEY  5712 RANNY RD                           000N        CARE OF             
MTR02168500001000000000000000RA              33733991    005800370000003700000520000003NN  NNW 000                       N    
RDG02168500WATRL000000004K00000000000001779004501312015115039N000000000000U20       000290400K 10000000010000001772           
CUS0216850000102319740003         ST. AMBROSE LIMITED 5714 RANNY RD                           000N        CARE OF             
MTR02168500001000000000000000RA              38782283    005800380000003800000520000003NN  NNW 000                       N    
RDG02168500WATRL000000004K00000000000002500004601312015115107N000000000010U20       000280400K 10000000010000002477           
CUS0216850000102319741001         JOHNSTON, MEGHAN W  5716 RANNY RD                           000N        CARE OF             
MTR02168500001000000000000000RA              99291108    005800390000003900000570000003NN  NNW 000                       N    
RDG02168500WATRL000000004K00000000000001265004701312015115130N000000000000U20       000230400K 10000000010000001245           
CUS0216850000102319742009         WEITZMAN, ISRAEL    5718 RANNY RD                           000N        CARE OF             
MTR02168500001000000000000000RA              01075283    005800400000004000000610000003NN  NNW 000                       N    
RDG02168500WATRL000000004K00000000000000627004801312015115151N000000000000U20       000210400K 10000000010000000615           
CUS0216850000102319743007         POPIEL, ELLEN S.    5720 RANNY RD                           000N        CARE OF             
MTR02168500001000000000000000RA              44086651    005800410000004100000520000003NN  NNW 000                       N    
RDG02168500WATRL000000004K00000000000001523004901312015115219N000000000000U20       000280400K 10000000010000001515           
CUS0216850000102319744005         BURNS, CLAUDIA J  (L5722 RANNY RD                           000N        CARE OF             
MTR02168500001000000000000000RA              26013600    005800420000004200000520000003NN  NNW 000                       N    
RDG02168500WATRL000000004K00000000000004068005001312015115238N000000000000U20       000190400K 10000000010000004060           
CUS0216850000102319745002         RAMIREZ, GUILLERMO  5724 RANNY RD                           000N        CARE OF             
MTR02168500001000000000000000RA              10012696    005800430000004300000570000003NN  NNW 000                       N    
RDG02168500WATRL000000004K00000000000000414005101312015115310N000000000000U20       000320400K 10000000010000000390           
CUS0216850000102319746000         BOEHLING, REBECCA L.5726 RANNY RD                           000N        CARE OF             
MTR02168500001000000000000000RA              01095337    005800440000004400000610000003NN  NNW 000                       N    
RDG02168500WATRL000000004K00000000000000551005201312015115342N000000000000U20       000320400K 10000000010000000539           
CUS0216850000102395234004         MCARDLE, DALE R     2101 UFFINGTON RD                       000N        CARE OF             
MTR02168500001000000000000000RA              10020621    005800450000004500000570000003NN  NNW 000                       N    
RDG02168500WATRL000000004K00000000000000237005301312015115442N000000000000U20       000600400K 10000000010000000227           
CUS0216850000102319747008         GOLDSTEIN, DANIEL F 2107 UFFINGTON RD                       000N        CARE OF             
MTR02168500001000000000000000RA              48588855    005800460000004600000520000003NN  NNW 000                       N    
RDG02168500WATRL000000004K00000000000001313005401312015115530N000000000000U20       000480400K 10000000010000001305           
CUS0216850000102319748006         RUCHKIN, PETER MARK 5723 UFFINGTON RD                       000N        CARE OF             
MTR02168500001000000000000000RA              52769632    005800470000004700000520000003NN  NNW 000                       N    
RDG02168500WATRL000000004K00000000000001295005501312015115631N000000000000U20       000610400K 10000000010000001282           
CUS0216850000102319749004         BERNARD SHIFFMAN & W5719 UFFINGTON RD                       000N        CARE OF             
MTR02168500001000000000000000RA              24625473    007500480000004800000520000003NN  NNW 000                       N    
RDG02168500WATRL000000004K00000000000004389005601312015115735N000000000000U20       000640400K 10000000010000004380           
CUS0216850000102319750002         MAREK III., CHARLES 5717 UFFINGTON RD                       000N        CARE OF             
MTR02168500001000000000000000RA              75427325    007500490000004900000350000003NN  NNW 000                       N    
RDG02168500WATRL000000004K00000000000000104005701312015115826N000000000000U20       000510400K 10000000010000000090           
CUS0216850000102319751000         PUTTGEN, HANS A     5715 CHILHAM RD                         000N        CARE OF             
MTR02168500001000000000000000RA              29069102    007500500000005000000520000003NN  NNW 000                       N    
RDG02168500WATRL000000004K00000000000003323006501312015120425N000000000010U20       000570400K 10000000010000003305           
CUS0216850000102319752008         QUASEBARTH, KURT V  5713 CHILHAM RD                         000N        CARE OF             
MTR02168500001000000000000000RA              01113822    005800510000005100000610000003NN  NNW 000                       N    
RDG02168500WATRL000000004K00000000000000856005801312015115921N000000000000U20       000550400K 10000000010000000840           
CUS0216850000102319753006         DUBOIS, BENJAMIN V  5711 CHILHAM RD                         000N        CARE OF             
MTR02168500001000000000000000RA              25979693    007500520000005200000520000003NN  NNW 000                       N    
RDG02168500WATRL000000004K00000000000003835005901312015120000N000000000000U20       000390400K 10000000010000003818           
CUS0216850000102319754004         STEWART, VOLKER F.  5707 CHILHAM RD                         000N        CARE OF             
MTR02168500001000000000000000RA              01102675    005800530000005300000610000003NN  NNW 000                       N    
RDG02168500WATRL000000004K00000000000000863006001312015120048N000400000010U20       000480400K 10000000010000000858           
CUS0216850000102319755001         SHADUR, DAVID H     5705 CHILHAM RD                         000N        CARE OF             
MTR02168500001000000000000000RA              75617714    005800540000005400000350000003NN  NNW 000                       N    
RDG02168500WATRL000000004K00000000000000041006101312015120119N000000000010U20       000310400K 10000000010000000036           
CUS0216850000102319756009         JEANBLANC, MARK E.  5703 CHILHAM RD                         000N        CARE OF             
MTR02168500001000000000000000RA              52288657    005800550000005500000520000003NN  NNW 000                       N    
RDG02168500WATRL000000004K00000000000001038006201312015120151N000000000000U20       000320400K 10000000010000001028           
CUS0216850000102319757007         ZIEGLER, MICHELE M  5701 CHILHAM RD                         000N        CARE OF             
MTR02168500001000000000000000RA              41089376    007500560000005600000520000003NN  NNW 000                       N    
RDG02168500WATRL000000004K00000000000002521009601312015123823N000400000040U20       001280400K 10000000010000002510           
CUS0216850000102319758005         FABIYI, AIYE I      5706 CHILHAM RD                         000N        CARE OF             
MTR02168500001000000000000000RA              24625137    007500570000005700000520000003NN  NNW 000                       N    
RDG02168500WATRL000000004K00000000000004733006301312015120254N000000000000U20       000630400K 10000000010000004717           
CUS0216850000102319759003         NAPPER, ALFRED L    5708 CHILHAM RD                         000N        CARE OF             
MTR02168500001000000000000000RA              00135798    005800580000005800000570000003NN  NNW 000                       N    
RDG02168500WATRL000000004K00000000000001110006401312015120328N000300000010U20       000340400K 10000000010000001088           
CUS0216850000102319760001         SINGER, LISA D      2201 CHILHAM RD                         000N        CARE OF             
MTR02168500001000000000000000RA              36699962    000100590000005900000520000003NN  NNW 000                       N    
RDG02168500WATRL000000004K00000000000002217006601312015120510N000000000010U20       000450400K 10000000010000002255           
CUS0216850000102319761009         SHERLOCK, MICHAEL E.2205 CHILHAM RD                         000N        CARE OF             
MTR02168500001000000000000000RA              30516584    005800600000006000000520000003NN  NNW 000                       N    
RDG02168500WATRL000000004K00000000000007588006701312015120617N000000000030U20       000670400K 10000000010000007548           
CUS0216850000102319762007         GOLUB, ELIZABETH TOP2207 CHILHAM RD                         000N        CARE OF             
MTR02168500001000000000000000RA              46878822    005800610000006100000520000003NN  NNW 000                       N    
RDG02168500WATRL000000004K00000000000002270006801312015120627N000000000000U20       000100400K 10000000010000002235           
CUS0216850000102319763005         ROWE-WALDO, TESHA J.2209 CHILHAM RD                         000N        CARE OF             
MTR02168500001000000000000000RA              01112050    005800620000006200000610000003NN  NNW 000                       N    
RDG02168500WATRL000000004K00000000000001487006901312015120707N000000000010U20       000400400K 10000000010000001465           
CUS0216850000102319764003         BORDEN, CAROL A.    2211 CHILHAM RD                         000N        CARE OF             
MTR02168500001000000000000000RA              10013755    005800630000006300000570000003NN  NNW 000   VACANT PROPERTY     N    
RDG02168500WATRL000000004K00000000000000000004501292015121718N000000000000N20       003440400K 10000000010000000000           
CUS0216850000102319765000         VANDERVEEN, PAMELA D2213 CHILHAM RD                         000N        CARE OF             
MTR02168500001000000000000000RA              41089399    007500640000006400000520000003NN  NNW 000                       N    
RDG02168500WATRL000000004K00000000000001583007001312015120820N000000000020U20       000730400K 10000000010000001565           
CUS0216850000102319766008         SWARTZ, GARY H      5713 CROSS COUNTRY BLVD                 000N        CARE OF             
MTR02168500001000000000000000RA              24764035    005800650000006500000520000003NN  NNW 000                       N    
RDG02168500WATRL000000004K00000000000003379001301312015112434N000000000010U20       000420400K 10000000010000003377           
CUS0216850000102319767006         ROSTOV, DEBRA DAE   5711 CROSS COUNTRY BLVD                 000N        CARE OF             
MTR02168500001000000000000000RA              10019106    005800660000006600000570000003NN  NNW 000                       N    
RDG02168500WATRL000000004K00000000000000328001201312015112352N000400000010U20       001120400K 10000000010000000322           
CUS0216850000102319768004         RAMIREZ, GUILLERMO  5709 CROSS COUNTRY BLVD                 000N        CARE OF             
MTR02168500001000000000000000RA              32574037    005800670000006700000520000003NN  NNW 000                       N    
RDG02168500WATRL000000004K00000000000004069001101312015112200N000000000000U20       000240400K 10000000010000004020           
CUS0216850000102386066001         KLIMCHAK, MIA       5707 CROSS COUNTRY BLVD                 000N        CARE OF             
MTR02168500001000000000000000RA              35114126    005800680000006800000520000003NN  NNW 000                       N    
RDG02168500WATRL000000004K00000000000002157001001312015112136N000000000000U20       000760400K 10000000010000002147           
CUS0216850000102319769002         MILDRED W LOUD      5705 CROSS COUNTRY BLVD                 000N        CARE OF             
MTR02168500001000000000000000RA              10013933    005800690000006900000570000003NN  NNW 000                       N    
RDG02168500WATRL000000004K00000000000000007000801312015112002N000000000000U20       000720400K 10000000010000000007           
CUS0216850000102319770000         BABB, BARBARA A.    5703 CROSS COUNTRY BLVD                 000N        CARE OF             
MTR02168500001000000000000000RA              54351194    005800700000007000000520000003NN  NNW 000                       N    
RDG02168500WATRL000000004K00000000000001053000901312015112020N000000000010U20       000180400K 10000000010000001044           
CUS0216850000102319771008         NANCY L WILKEY      5701 CROSS COUNTRY BLVD                 000N        CARE OF             
MTR02168500001000000000000000RA              41258193    005800710000007100000520000003NN  NNW 000                       N    
RDG02168500WATRL000000004K00000000000001027008201312015122744N000000000000U20       000850400K 10000000010000001015           
CUS0216850000102319772006         ROBERT S LOIZEAUX   2220 SULGRAVE AVE                       000N        CARE OF             
MTR02168500001000000000000000RA              30002453    007500720000007200000570000003NN  NNW 000                       N    
