FHDNNNN001000246000246000246N                                                                                           000780
RHD02636200NN02460246000002460000000002460246000389NY024602460246002600090000000000000000000001    01282015NY020000 N         
CUS0263620000102373653001         BOOMHOWER DANIEL    601 GLYNOCK PL                          000N        CARE OF             
MTR02636200001000000000000000RA              48584649    005800010000000100000520000003NN  NNW 000                       N    
RDG02636200WATRL000000004K00000000000001317000102242015112137N000000000001U26       002750400K 10000000010000001310           
CUS0263620000102373652003         GROVE JOHN R,JR     603 GLYNOCK PL                          000N        CARE OF             
MTR02636200001000000000000000RA              48592987    005800020000000200000520000003NN  NNW 000                       N    
RDG02636200WATRL000000004K00000000000001545005502242015112223N000000000000U26       000460400K 10000000010000001521           
CUS0263620000102373651005         MORALES MADALYN     605 GLYNOCK PL                          000N        CARE OF             
MTR02636200001000000000000000RA              35115976    005800030000000300000520000003NN  NNW 000                       N    
RDG02636200WATRL000000004K00000000000002288005602242015112225N000000000000U26       000020400K 10000000010000002254           
CUS0263620000102373650007         LEVIN MINDY C       607 GLYNOCK PL                          000N        CARE OF             
MTR02636200001000000000000000RA              46884291    005800040000000400000520000003NN  NNW 000                       N    
RDG02636200WATRL000000004K00000000000001007005702242015112245N000000000000U26       000200400K 10000000010000000996           
CUS0263620000102373649009         JANNILLA E HYLAND   609 GLYNOCK PL                          000N        CARE OF             
MTR02636200001000000000000000RA              00129952    005800050000000500000570000003NN  NNW 000                       N    
RDG02636200WATRL000000004K00000000000001301005902242015112319N000000000000U26       000160400K 10000000010000001280           
CUS0263620000102373639000         HASSAN MARIETTA     611 GLYNOCK PL                          000N        CARE OF             
MTR02636200001000000000000000RA              50480610    005800060000000600000520000003NN  NNW 000                       N    
RDG02636200WATRL000000004K00000000000000638005802242015112303N000000000000U26       000180400K 10000000010000000631           
CUS0263620000102373775002         KATAYEV KIRILL      613 GLYNOCK PL                          000N        CARE OF             
MTR02636200001000000000000000RA              50480610    005800070000000700000520000003NY  NNW 000                       N    
MTM0263620050480610    ICE                                                                                                    
RDG02636200WATRL000000004K00000000000001182005902282015103130N000000000010U26       001890400K 10000000010000001177           
CUS0263620000102373774005         BAKO BARIKISU       615 GLYNOCK PL                          000N        CARE OF             
MTR02636200001000000000000000RA              45379947    005800080000000800000520000003NN  NNW 000                       N    
RDG02636200WATRL000000004K00000000000001978006002242015112403N000000000000U26       000440400K 10000000010000001955           
CUS0263620000102373773007         WALTER RUDOLF R,JR  617 GLYNOCK PL                          000N        CARE OF             
MTR02636200001000000000000000RA              48584651    005800090000000900000520000003NN  NNW 000                       N    
RDG02636200WATRL000000004K00000000000000000006102242015112445N000000000000U26       000420400K 10000000010000000000           
CUS0263620000102373772009         RAMSEY JUANITA      619 GLYNOCK PL                          000N        CARE OF             
MTR02636200001000000000000000RA              35119098    005800100000001000000520000003NY  NNW 000                       N    
MTM0263620035119098    A LOT OF ICE                                                                                           
RDG02636200WATRL000000004K00000000000000000000000000000000000 000000000000U         000000400  10000000010000001561           
CUS0263620000102373771001         MORGAN MARK H       621 GLYNOCK PL                          000N        CARE OF             
MTR02636200001000000000000000RA              35107477    005800110000001100000520000003NN  NNW 000                       N    
RDG02636200WATRL000000004K00000000000001154006202242015112656N000000000000U26       001310400K 10000000010000001144           
CUS0263620000102373770003         OLUSOLA/STEVEN ESSIE623 GLYNOCK PL                          000N        CARE OF             
MTR02636200001000000000000000RA              35107067    005800120000001200000520000003NY  NNW 000                       N    
MTM0263620035107067    CLEAN OVT                                                                                              
RDG02636200WATRL000000004K00000000000000000000000000000000000 000000000000U         000000400  10000000010000001652           
CUS0263620000102373769005         MILIMAN RICHARD     625 GLYNOCK PL                          000N        CARE OF             
MTR02636200001000000000000000RA              50478938    005800130000001300000520000003NY  NNW 000                       N    
MTM0263620050478938    ICE                                                                                                    
RDG02636200WATRL000000004K00000000000002192006002282015103324N000000000000U26       001140400K 10000000010000002175           
CUS0263620000102373768007         BINNS PERVIS D      627 GLYNOCK PL                          000N        CARE OF             
MTR02636200001000000000000000RA              35107162    005800140000001400000520000003NY  NNW 000                       N    
MTM0263620035107162    ICE                                                                                                    
RDG02636200WATRL000000004K00000000000000000006102282015103331S063000000000U26       000070400K 10000000010000002137           
CUS0263620000102373767009         MARY FRANCES KEENE  629 GLYNOCK PL                          000N        CARE OF             
MTR02636200001000000000000000RA              35115744    005800150000001500000520000003NY  NNW 000                       N    
MTM0263620035115744    A LOT A OF ICE                                                                                         
RDG02636200WATRL000000004K00000000000000000000000000000000000 000000000000U         000000400  10000000010000001577           
CUS0263620000102373760004         CALVIN STANLEY      631 GLYNOCK PL                          000N        CARE OF             
MTR02636200001000000000000000RA              44172703    005800160000001600000520000003NY  NNW 000                       N    
MTM0263620044172703    A LOT A ICE                                                                                            
RDG02636200WATRL000000004K00000000000000000000000000000000000 000000000000U         000000400  10000000010000001832           
CUS0263620000102373759006         SIMS, ANDREW A      633 GLYNOCK PL                          000N        CARE OF             
MTR02636200001000000000000000RA              35103112    005800170000001700000520000003NY  NNW 000                       N    
MTM0263620035103112    ICE                                                                                                    
RDG02636200WATRL000000004K00000000000002539007502282015125215N000000000000U26       002330400K 10000000010000002539           
CUS0263620000102373758008         JAMES ALISHA K      635 GLYNOCK PL                          000N        CARE OF             
MTR02636200001000000000000000RA              41081037    005800180000001800000520000003NN  NNW 000                       N    
RDG02636200WATRL000000004K00000000000001713006302242015112723N000000000000U26       000270400K 10000000010000001693           
CUS0263620000102373757000         WINSTEAD STEPHEN D  637 GLYNOCK PL                          000N        CARE OF             
MTR02636200001000000000000000RA              35102912    005800190000001900000520000003NY  NNW 000                       N    
MTM0263620035102912    A LOT OF ICE                                                                                           
RDG02636200WATRL000000004K00000000000000000000000000000000000 000000000000U         000000400  10000000010000002221           
CUS0263620000102373756002         LATOUCHE NICOLE DEST639 GLYNOCK PL                          000N        CARE OF             
MTR02636200001000000000000000RA              01109901    005800200000002000000610000003NN  NNW 000                       N    
RDG02636200WATRL000000004K00000000000000591006402242015112805N000000000000U26       000420400K 10000000010000000573           
CUS0263620000102373755004         MARSH MARGARET M    641 GLYNOCK PL                          000N        CARE OF             
MTR02636200001000000000000000RA              35103110    005800210000002100000520000003NY  NNW 000                       N    
MTM0263620035103110    ICE                                                                                                    
RDG02636200WATRL000000004K00000000000000000000000000000000000 000000000000U         000000400  10000000010000001470           
CUS0263620000102373754007         PARLETTE KIRSTEN L  643 GLYNOCK PL                          000N        CARE OF             
MTR02636200001000000000000000RA              35103183    005800220000002200000520000003NY  NNW 000                       N    
MTM0263620035103183    A LOT OF ICE                                                                                           
RDG02636200WATRL000000004K00000000000000000000000000000000000 000000000000U         000000400  10000000010000002037           
CUS0263620000102373753009         MULLER RACHEL S,TRUS645 GLYNOCK PL                          000N        CARE OF             
MTR02636200001000000000000000RA              35102915    005800230000002300000520000003NN  NNW 000                       N    
RDG02636200WATRL000000004K00000000000002503006502242015112838N000000000000U26       000330400K 10000000010000002470           
CUS0263620000102373752001         NWOYE ANDY          647 GLYNOCK PL                          000N        CARE OF             
MTR02636200001000000000000000RA              35102913    005800240000002400000520000003NN  NNW 000                       N    
RDG02636200WATRL000000004K00000000000003045006602242015112847N000000000000U26       000090400K 10000000010000003024           
CUS0263620000102373751003         STOKES SHERRI L     649 GLYNOCK PL                          000N        CARE OF             
MTR02636200001000000000000000RA              35102868    005800250000002500000520000003NN  NNW 000                       N    
RDG02636200WATRL000000004K00000000000002137006702242015112906N000000000000U26       000190400K 10000000010000002106           
CUS0263620000102373750005         BARBUS ION          651 GLYNOCK PL                          000N        CARE OF             
MTR02636200001000000000000000RA              35102869    005800260000002600000520000003NN  NNW 000                       N    
RDG02636200WATRL000000004K00000000000002352006802242015112908N000000000000U26       000020400K 10000000010000002341           
CUS0263620000102373749007         MULLER RACHEL S     653 GLYNOCK PL                          000N        CARE OF             
MTR02636200001000000000000000RA              35102865    005800270000002700000520000003NN  NNW 000                       N    
RDG02636200WATRL000000004K00000000000001979006902242015112920N000000000000U26       000120400K 10000000010000001960           
CUS0263620000102373748009         GARNETT KENNETH     655 GLYNOCK PL                          000N        CARE OF             
MTR02636200001000000000000000RA              35102867    005800280000002800000520000003NY  NNW 000                       N    
MTM0263620035102867    ICE                                                                                                    
RDG02636200WATRL000000004K00000000000002271005702282015102703N000000000000U26       000320400K 10000000010000002225           
CUS0263620000102373747001         MATTHEW KUSHEL      657 GLYNOCK PL                          000N        CARE OF             
MTR02636200001000000000000000RA              35102866    005800290000002900000520000003NN  NNW 000                       N    
RDG02636200WATRL000000004K00000000000002487007002242015113024N000000000000U26       000640400K 10000000010000002487           
CUS0263620000102373746003         FERRUZZI MICHAEL J  659 GLYNOCK PL                          000N        CARE OF             
MTR02636200001000000000000000RA              10004460    005800300000003000000570000003NN  NNW 000                       N    
RDG02636200WATRL000000004K00000000000000000007102242015113125S001000000000U26       000610400K 10000000010000000238           
CUS0263620000102373745005         CRISSE A BROCK      661 GLYNOCK PL                          000N        CARE OF             
MTR02636200001000000000000000RA              35103091    005800310000003100000520000003NY  NNW 000                       N    
MTM0263620035103091    ICE                                                                                                    
RDG02636200WATRL000000004K00000000000002119005602282015102631N000000000000U26       000220400K 10000000010000002082           
CUS0263620000102385033002         BURKINDINE RONALD   663 GLYNOCK PL                          000N        CARE OF             
MTR02636200001000000000000000RA              35103089    005800320000003200000520000003NY  NNW 000                       N    
MTM0263620035103089    ICE                                                                                                    
RDG02636200WATRL000000004K00000000000001064005502282015102609N000000000000U26       000170400K 10000000010000001047           
CUS0263620000102385034000         GAMARNIK IGOR       665 GLYNOCK PL                          000N        CARE OF             
MTR02636200001000000000000000RA              35103090    005800330000003300000520000003NY  NNW 000                       N    
MTM0263620035103090    ICE                                                                                                    
RDG02636200WATRL000000004K00000000000002151005402282015102552N000000000020U26       000330400K 10000000010000002135           
CUS0263620000102385035007         ORTMAN GERALD L     667 GLYNOCK PL                          000N        CARE OF             
MTR02636200001000000000000000RA              50481307    005800340000003400000520000003NY  NNW 000                       N    
MTM0263620050481307    ICE                                                                                                    
RDG02636200WATRL000000004K00000000000000000005302282015102519S063000000000U26       000150400K 10000000010000001417           
CUS0263620000102385036005         ZIOMEK JOHN J,JR    669 GLYNOCK PL                          000N        CARE OF             
MTR02636200001000000000000000RA              01078505    005800350000003500000610000003NY  NNW 000                       N    
MTM0263620001078505    ICE                                                                                                    
RDG02636200WATRL000000004K00000000000001224005202282015102504N000000000000U26       000650400K 10000000010000001197           
CUS0263620000102385037003         HOUSING AND URBAN DE671 GLYNOCK PL                          000N        CARE OF             
MTR02636200001000000000000000RA              75614816    005800360000003600000350000003NY  NNW 000                       N    
MTM0263620075614816    ICE                                                                                                    
RDG02636200WATRL000000004K00000000000000118005102282015102359N000000000000U26       000560400K 10000000010000000078           
CUS0263620000102385038001         MCCARTHY ANTHONY J  673 GLYNOCK PL                          000N        CARE OF             
MTR02636200001000000000000000RA              10017595    005800370000003700000570000003NY  NNW 000                       N    
MTM0263620010017595    ICE                                                                                                    
RDG02636200WATRL000000004K00000000000000423005002282015102303N000000000001U26       003530400K 10000000010000000399           
CUS0263620000102373736004         CHARLIE E GREEN     656 GLYNOCK PL                          000N        CARE OF             
MTR02636200001000000000000000RA              35103528    005800380000003800000520000003NN  NNW 000                       N    
RDG02636200WATRL000000004K00000000000003383007202242015113447N000400000010U26       002020400K 10000000010000003377           
CUS0263620000102373737002         POOL ROBERT B,2ND   654 GLYNOCK PL                          000N        CARE OF             
MTR02636200001000000000000000RA              35103497    005800390000003900000520000003NN  NNW 000                       N    
RDG02636200WATRL000000004K00000000000002669007302242015113508N000400000010U26       000210400K 10000000010000002652           
CUS0263620000102373738000         SKOBELEV ALEKSANDR  652 GLYNOCK PL                          000N        CARE OF             
MTR02636200001000000000000000RA              35103495    005800400000004000000520000003NN  NNW 000                       N    
RDG02636200WATRL000000004K00000000000004282007402242015113544N000000000000U26       000360400K 10000000010000004227           
CUS0263620000102373739008         COLE ROBERT LEWIS,JR650 GLYNOCK PL                          000N        CARE OF             
MTR02636200001000000000000000RA              35104261    005800410000004100000520000003NN  NNW 000                       N    
RDG02636200WATRL000000004K00000000000004183007702242015113828N000400000030U26       000460400K 10000000010000004169           
CUS0263620000102373740006         CHMAR EDWARD L      648 GLYNOCK PL                          000N        CARE OF             
MTR02636200001000000000000000RA              35104259    005800420000004200000520000003NN  NNW 000                       N    
RDG02636200WATRL000000004K00000000000003123007502242015113603N000000000000U26       000190400K 10000000010000003103           
CUS0263620000102373741004         ADELOWO ADEYEMI K   646 GLYNOCK PL                          000N        CARE OF             
MTR02636200001000000000000000RA              35104258    005800430000004300000520000003NN  NNW 000                       N    
RDG02636200WATRL000000004K00000000000003623007602242015113742N000400000041U26       000770400K 10000000010000003615           
CUS0263620000102373742002         VANEGAS MONICA V    644 GLYNOCK PL                          000N        CARE OF             
MTR02636200001000000000000000RA              35104256    005800440000004400000520000003NY  NNW 000                       N    
MTM0263620035104256    ICE                                                                                                    
RDG02636200WATRL000000004K00000000000005586005802282015102821N000400000010U26       000780400K 10000000010000005542           
CUS0263620000102373743000         BADGER CANDACE ALICI642 GLYNOCK PL                          000N        CARE OF             
MTR02636200001000000000000000RA              35104260    005800450000004500000520000003NN  NNW 000                       N    
RDG02636200WATRL000000004K00000000000002937007802242015113854N000000000000U26       000260400K 10000000010000002882           
CUS0263620000102373744008         HOLLOWAY GEORGE     640 GLYNOCK PL                          000N        CARE OF             
MTR02636200001000000000000000RA              14910246    005800460000004600000310000003NN  NNW 000                       N    
RDG02636200WATRL000000004K00000000000001092007902242015113858N000000000000U26       000040400K 10000000010000001069           
CUS0263620000102373761002         CALDWELL DIANE      638 GLYNOCK PL                          000N        CARE OF             
MTR02636200001000000000000000RA              35104250    005800470000004700000520000003NY  NNW 000                       N    
MTM0263620035104250    CLEAN OUT                                                                                              
RDG02636200WATRL000000004K00000000000000000000000000000000000 000000000000U         000000400  10000000010000003053           
CUS0263620000102373762000         GROVE DANIEL W      636 GLYNOCK PL                          000N        CARE OF             
MTR02636200001000000000000000RA              50786284    005800480000004800000520000003NY  NNW 000                       N    
MTM0263620050786284    CLEAN OUT                                                                                              
RDG02636200WATRL000000004K00000000000000000000000000000000000 000000000000U         000000400  10000000010000001940           
CUS0263620000102373763008         RAMIREZ JOSE        634 GLYNOCK PL                          000N        CARE OF             
MTR02636200001000000000000000RA              50480826    005800490000004900000520000003NN  NNW 000                       N    
RDG02636200WATRL000000004K00000000000005201008002242015114000N000400000010U26       000620400K 10000000010000005157           
CUS0263620000102373764006         PATEL SHANTILAL  PAT632 GLYNOCK PL                          000N        CARE OF             
MTR02636200001000000000000000RA              01084496    005800500000005000000610000003NN  NNW 000                       N    
RDG02636200WATRL000000004K00000000000001084008102242015114002N000000000000U26       000020400K 10000000010000001055           
CUS0263620000102373765003         WEBSTER FAMILY LLC-T630 GLYNOCK PL                          000N        CARE OF             
MTR02636200001000000000000000RA              75424695    005800510000005100000350000003NN  NNW 000                       N    
RDG02636200WATRL000000004K00000000000000071008202242015114027N000000000000U26       000250400K 10000000010000000063           
CUS0263620000102373766001         GOLDENBERG BRETT A  628 GLYNOCK PL                          000N        CARE OF             
MTR02636200001000000000000000RA              35103524    005800520000005200000520000003NN  NNW 000                       N    
RDG02636200WATRL000000004K00000000000003461008302242015114044N000000000000U26       000170400K 10000000010000003432           
CUS0263620000102373640008         TEDLA ANDEMESKEL H  626 GLYNOCK PL                          000N        CARE OF             
MTR02636200001000000000000000RA              35103286    005800530000005300000520000003NN  NNW 000                       N    
RDG02636200WATRL000000004K00000000000004799008402242015114103N000000000000U26       000190400K 10000000010000004769           
CUS0263620000102373641006         FUNES GABRIELA Y    624 GLYNOCK PL                          000N        CARE OF             
MTR02636200001000000000000000RA              35103318    005800540000005400000520000003NN  NNW 000                       N    
RDG02636200WATRL000000004K00000000000002371008502242015114134N000000000000U26       000310400K 10000000010000002354           
CUS0263620000102373642004         REDMOND SHANNON M   622 GLYNOCK PL                          000N        CARE OF             
MTR02636200001000000000000000RA              35103331    005800550000005500000520000003NN  NNW 000                       N    
RDG02636200WATRL000000004K00000000000002323008602242015114143N000000000010U26       000090400K 10000000010000002308           
CUS0263620000102373643002         FUNES SANTOS B      620 GLYNOCK PL                          000N        CARE OF             
MTR02636200001000000000000000RA              35103402    005800560000005600000520000003NN  NNW 000                       N    
RDG02636200WATRL000000004K00000000000002785008702242015114202N000000000010U26       000190400K 10000000010000002751           
CUS0263620000102373644000         LOPEZ FRANCISO      618 GLYNOCK PL                          000N        CARE OF             
MTR02636200001000000000000000RA              35103403    005800570000005700000520000003NN  NNW 000                       N    
RDG02636200WATRL000000004K00000000000003601008802242015114216N000000000000U26       000140400K 10000000010000003591           
CUS0263620000102373645007         HARDY LAUREN B      616 GLYNOCK PL                          000N        CARE OF             
MTR02636200001000000000000000RA              35103316    005800580000005800000520000003NN  NNW 000                       N    
RDG02636200WATRL000000004K00000000000003126008902242015114231N000000000000U26       000150400K 10000000010000003117           
CUS0263620000102373646005         WHIPPO ROBERT BURTON614 GLYNOCK PL                          000N        CARE OF             
MTR02636200001000000000000000RA              44177038    005800590000005900000520000003NN  NNW 000                       N    
RDG02636200WATRL000000004K00000000000001334009002242015114244N000000000000U26       000130400K 10000000010000001311           
CUS0263620000102373647003         WILL JON MICHAEL    612 GLYNOCK PL                          000N        CARE OF             
MTR02636200001000000000000000RA              35103401    005800600000006000000520000003NN  NNW 000                       N    
RDG02636200WATRL000000004K00000000000001629009102242015114344N000000000011U26       000330400K 10000000010000001571           
CUS0263620000102373648001         BARAHONA ABNER A    610 GLYNOCK PL                          000N        CARE OF             
MTR02636200001000000000000000RA              50480597    005800610000006100000520000003NN  NNW 000                       N    
RDG02636200WATRL000000004K00000000000002577009202242015114346N000000000010U26       000020400K 10000000010000002546           
CUS0263620000102373654009         KOGAN DIANA         608 GLYNOCK PL                          000N        CARE OF             
MTR02636200001000000000000000RA              35103330    005800620000006200000520000003NN  NNW 000                       N    
RDG02636200WATRL000000004K00000000000003165009302242015114350N000000000010U26       000040400K 10000000010000003150           
CUS0263620000102373655006         UMOREIGN JESSICA    606 GLYNOCK PL                          000N        CARE OF             
MTR02636200001000000000000000RA              35103326    005800630000006300000520000003NN  NNW 000                       N    
RDG02636200WATRL000000004K00000000000002765009402242015114407N000000000010U26       000170400K 10000000010000002756           
CUS0263620000102373656004         BOWER VICKY L       604 GLYNOCK PL                          000N        CARE OF             
MTR02636200001000000000000000RA              01095867    005800640000006400000610000003NN  NNW 000                       N    
RDG02636200WATRL000000004K00000000000000248009502242015114421N000000000000U26       000140400K 10000000010000000243           
CUS0263620000102373657002         STOLTZ DIANA C      602 GLYNOCK PL                          000N        CARE OF             
MTR02636200001000000000000000RA              35103327    005800650000006500000520000003NN  NNW 000   VACANT / LOT        N    
RDG02636200WATRL000000004K00000000000002502009602242015114438N000000000020U26       000170400K 10000000010000002478           
CUS0263620000102373658000         HELTON GARY E       600 GLYNOCK PL                          000N        CARE OF             
MTR02636200001000000000000000RA              35103400    005800660000006600000520000003NN  NNW 000                       N    
RDG02636200WATRL000000004K00000000000002261009702242015114520N000000000000U26       000420400K 10000000010000002238           
CUS0263620000102348832003         JOSE LUIS ORTEGA AYA12348 BONMOT PL                         000N        CARE OF             
MTR02636200001000000000000000RA              27815994    005800670000006700000520000003NY  NNW 000                       N    
MTM0263620027815994    CLEAN OUT                                                                                              
RDG02636200WATRL000000004K00000000000000000000000000000000000 000000000000U         000000400  10000000010000003700           
CUS0263620000102347954006         WALMAN F MARTIN     12346 BONMOT PL                         000N        CARE OF             
MTR02636200001000000000000000RA              27818596    005800680000006800000520000003NN  NNW 000                       N    
RDG02636200WATRL000000004K00000000000002429001602282015090607N000000000000U26       004180400K 10000000010000002415           
CUS0263620000102348859006         MCKENNA PATRICK M   12344 BONMOT PL                         000N        CARE OF             
MTR02636200001000000000000000RA              29680633    005800690000006900000520000003NN  NNW 000                       N    
RDG02636200WATRL000000004K00000000000002988001702282015090634N000000000000U26       000270400K 10000000010000002970           
CUS0263620000102348863008         MARLON A. DAVIS 2ND 12342 BONMOT PL                         000N        CARE OF             
MTR02636200001000000000000000RA              27266024    005800700000007000000520000003NN  NNW 000                       N    
RDG02636200WATRL000000004K00000000000003578001802282015090848N000000000000U26       001340400K 10000000010000003552           
CUS0263620000102348862000         SAN KHIN M          12340 BONMOT PL                         000N        CARE OF             
MTR02636200001000000000000000RA              27813719    005800710000007100000520000003NN  NNW 000                       N    
RDG02636200WATRL000000004K00000000000002955001902282015090856N000000000000U26       000080400K 10000000010000002947           
CUS0263620000102348831005         MARILYN E PRICE     12338 BONMOT PL                         000N        CARE OF             
MTR02636200001000000000000000RA              27813617    005800720000007200000520000003NN  NNW 000                       N    
RDG02636200WATRL000000004K00000000000002509004302282015100655N000000000011U26       002200400K 10000000010000002500           
CUS0263620000102348830007         PENIX SUSAN         12336 BONMOT PL                         000N        CARE OF             
MTR02636200001000000000000000RA              27813720    005800730000007300000520000003NN  NNW 000                       N    
RDG02636200WATRL000000004K00000000000002976004402282015100704N000000000000U26       000090400K 10000000010000002961           
CUS0263620000102348829009         HENDERSON GLORIA J  12334 BONMOT PL                         000N        CARE OF             
MTR02636200001000000000000000RA              27813717    005800740000007400000520000003NN  NNW 000                       N    
RDG02636200WATRL000000004K00000000000002849002002282015091029N000000000000U26       000930400K 10000000010000002830           
CUS0263620000102356691002         LAVENSTEIN ROBERT B 12332 BONMOT PL                         000N        CARE OF             
MTR02636200001000000000000000RA              01090713    005800750000007500000610000003NN  NNW 000                       N    
RDG02636200WATRL000000004K00000000000000827004502282015100835N000000000020U26       000910400K 10000000010000000804           
CUS0263620000102357510003         ZAKS JOANNE         12330 BONMOT PL                         000N        CARE OF             
MTR02636200001000000000000000RA              01090716    005800760000007600000610000003NN  NNW 000                       N    
RDG02636200WATRL000000004K00000000000000925004602282015101040N000000000000U26       001250400K 10000000010000000906           
CUS0263620000102360118000         VAN NOSTRAND DEBORAH12328 BONMOT PL                         000N        CARE OF             
MTR02636200001000000000000000RA              01090715    005800770000007700000610000003NN  NNW 000                       N    
RDG02636200WATRL000000004K00000000000000824004702282015101041N000000000000U26       000010400K 10000000010000000818           
CUS0263620000102360117002         STEPHEN M MYERS , JR12326 BONMOT PL                         000N        CARE OF             
MTR02636200001000000000000000RA              29686493    005800780000007800000520000003NN  NNW 000                       N    
RDG02636200WATRL000000004K00000000000002468004802282015101705N000000000000U26       003840400K 10000000010000002453           
CUS0263620000102360116004         JENIFER WESLEY/MARGA12324 BONMOT PL                         000N        CARE OF             
MTR02636200001000000000000000RA              29686490    005800790000007900000520000003NN  NNW 000                       N    
RDG02636200WATRL000000004K00000000000003048004902282015101710N000000000000U26       000050400K 10000000010000003023           
CUS0263620000102360115006         CHADHA GREESH       12322 BONMOT PL                         000N        CARE OF             
MTR02636200001000000000000000RA              01084067    005800800000008000000610000003NN  NNW 000                       N    
RDG02636200WATRL000000004K00000000000000445002802282015093935N000000000000U26       004340400K 10000000010000000442           
CUS0263620000102373704002         SCOTT D CATER       12320 BONMOT PL                         000N        CARE OF             
MTR02636200001000000000000000RA              01084060    005800810000008100000610000003NN  NNW 000                       N    
RDG02636200WATRL000000004K00000000000000362003102282015094326N000300000010U26       000080400K 10000000010000000354           
CUS0263620000102373703004         MCKENNEY ROBERT M   12318 BONMOT PL                         000N        CARE OF             
MTR02636200001000000000000000RA              00135430    005800820000008200000570000003NN  NNW 000                       N    
RDG02636200WATRL000000004K00000000000001117002902282015094315N000000000000U26       002200400K 10000000010000001090           
CUS0263620000102364045001         SAMPSON NANCY L     12316 BONMOT PL                         000N        CARE OF             
MTR02636200001000000000000000RA              00135386    005800830000008300000570000003NN  NNW 000                       N    
RDG02636200WATRL000000004K00000000000000596003002282015094318N000000000000U26       000030400K 10000000010000000590           
CUS0263620000102364044004         DIEHL THOMAS STEVEN 12314 BONMOT PL                         000N        CARE OF             
MTR02636200001000000000000000RA              52286984    005800840000008400000520000003NN  NNW 000                       N    
RDG02636200WATRL000000004K00000000000000867003202282015094457N000000000000U26       000910400K 10000000010000000855           
CUS0263620000102364043006         FRANCES F GIFFORD   12312 BONMOT PL                         000N        CARE OF             
MTR02636200001000000000000000RA              30518588    005800850000008500000520000003NN  NNW 000                       N    
RDG02636200WATRL000000004K00000000000002313003302282015094504N000000000000U26       000070400K 10000000010000002300           
CUS0263620000102364042008         WILLIAMS KAREN C    12310 BONMOT PL                         000N        CARE OF             
MTR02636200001000000000000000RA              99288854    005800860000008600000570000003NN  NNW 000                       N    
RDG02636200WATRL000000004K00000000000001148002102282015091643N000000000000U26       003740400K 10000000010000001135           
CUS0263620000102388337004         ELLIS CHARLES G     12300 BONMOT PL                         000N        CARE OF             
MTR02636200001000000000000000RA              00135381    005800870000008700000570000003NN  NNW 000                       N    
RDG02636200WATRL000000004K00000000000002510000202242015105335N000400000010U26       051650400K 10000000010000002498           
CUS0263620000102388338002         UPDEGRAFF MARK P    12298 BONMOT PL                         000N        CARE OF             
MTR02636200001000000000000000RA              36696858    005800880000008800000520000003NN  NNW 000                       N    
RDG02636200WATRL000000004K00000000000002874000302242015105440N000000000000U26       000650400K 10000000010000002861           
CUS0263620000102388339000         POE DONNA W         12296 BONMOT PL                         000N        CARE OF             
MTR02636200001000000000000000RA              36696881    005800890000008900000520000003NN  NNW 000                       N    
RDG02636200WATRL000000004K00000000000003666000402242015105500N000000000000U26       000200400K 10000000010000003649           
CUS0263620000102388340008         SCOTT BERLIN        12294 BONMOT PL                         000N        CARE OF             
MTR02636200001000000000000000RA              36696894    005800900000009000000520000003NN  NNW 000                       N    
RDG02636200WATRL000000004K00000000000001917007402282015123342N000000000000U26       000120400K 10000000010000001917           
CUS0263620000102388341006         FLESTER WALTER E    12292 BONMOT PL                         000N        CARE OF             
MTR02636200001000000000000000RA              36696876    005800910000009100000520000003NN  NNW 000                       N    
RDG02636200WATRL000000004K00000000000001437007302282015123345N000000000001U26       000030400K 10000000010000001437           
CUS0263620000102388342004         DOMINC WALKER       12290 BONMOT PL                         000N        CARE OF             
MTR02636200001000000000000000RA              01102991    005800920000009200000610000003NN  NNW 000                       N    
RDG02636200WATRL000000004K00000000000000838000502242015105705N000000000000U26       001250400K 10000000010000000820           
CUS0263620000102388343002         FINE MICHELLE M     12288 BONMOT PL                         000N        CARE OF             
MTR02636200001000000000000000RA              01100293    005800930000009300000610000003NN  NNW 000                       N    
RDG02636200WATRL000000004K00000000000000285000602242015105717N000000000011U26       000070400K 10000000010000000280           
CUS0263620000102388344000         MARK & AMY SWAN     12286 BONMOT PL                         000N        CARE OF             
MTR02636200001000000000000000RA              36696911    005800940000009400000520000003NN  NNW 000                       N    
RDG02636200WATRL000000004K00000000000002392007202282015123326N000000000000U26       034990400K 10000000010000002392           
CUS0263620000102388345007         DELAINE KIMBERLEIGH 12284 BONMOT PL                         000N        CARE OF             
MTR02636200001000000000000000RA              36696859    005800950000009500000520000003NN  NNW 000                       N    
RDG02636200WATRL000000004K00000000000001581000702242015105745N000000000000U26       000280400K 10000000010000001572           
CUS0263620000102388318004         SCOTT WALTER        12282 BONMOT PL                         000N        CARE OF             
MTR02636200001000000000000000RA              75616520    005800960000009600000350000003NN  NNW 000                       N    
RDG02636200WATRL000000004K00000000000000177000802242015105747N000000000000U26       000020400K 10000000010000000148           
CUS0263620000102388319002         HARRIS GHANIKA      12280 BONMOT PL                         000N        CARE OF             
MTR02636200001000000000000000RA              75615365    005800970000009700000350000003NN  NNW 000                       N    
RDG02636200WATRL000000004K00000000000000124000902242015105814N000000000000U26       000270400K 10000000010000000108           
CUS0263620000102388320000         SOSONKO ARKADIY     12278 BONMOT PL                         000N        CARE OF             
MTR02636200001000000000000000RA              36696867    005800980000009800000520000003NN  NNW 000                       N    
RDG02636200WATRL000000004K00000000000001955001002242015105819N000000000000U26       000050400K 10000000010000001946           
CUS0263620000102388321008         SEYED ALI ZAHRAEI   12276 BONMOT PL                         000N        CARE OF             
MTR02636200001000000000000000RA              44087516    005800990000009900000520000003NN  NNW 000                       N    
RDG02636200WATRL000000004K00000000000001697001202242015105918N000000000000U26       000050400K 10000000010000001680           
CUS0263620000102388322006         WAVERLY R. EDMONDSON12274 BONMOT PL                         000N        CARE OF             
MTR02636200001000000000000000RA              36696868    005801000000010000000520000003NN  NNW 000                       N    
RDG02636200WATRL000000004K00000000000003031001302242015105920N000000000000U26       000020400K 10000000010000003031           
CUS0263620000102388323004         ADEWOLE ADEDUROTIMI 12272 BONMOT PL                         000N        CARE OF             
MTR02636200001000000000000000RA              36696898    005801010000010100000520000003NN  NNW 000                       N    
RDG02636200WATRL000000004K00000000000002340001102242015105913N000000000010U26       000540400K 10000000010000002335           
CUS0263620000102388324002         COLLINS RYAN W      12270 BONMOT PL                         000N        CARE OF             
MTR02636200001000000000000000RA              10023848    005801020000010200000570000003NN  NNW 000                       N    
RDG02636200WATRL000000004K00000000000000127001802242015110155N000000000010U26       000510400K 10000000010000000110           
CUS0263620000102388325009         BONNIE SEAN M       12268 BONMOT PL                         000N        CARE OF             
MTR02636200001000000000000000RA              99188833    005801030000010300000570000003NN  NNW 000                       N    
RDG02636200WATRL000000004K00000000000002141001902242015110159N000000000000U26       000040400K 10000000010000002126           
CUS0263620000102388326007         CHERLL BATTS        12266 BONMOT PL                         000N        CARE OF             
MTR02636200001000000000000000RA              48586632    005801040000010400000520000003NN  NNW 000                       N    
RDG02636200WATRL000000004K00000000000001679001402242015110038N000300000010U26       000780400K 10000000010000001655           
CUS0263620000102388327005         YURLY TRESKUNOV     12264 BONMOT PL                         000N        CARE OF             
MTR02636200001000000000000000RA              48590455    005801050000010500000520000003NN  NNW 000                       N    
RDG02636200WATRL000000004K00000000000003437001502242015110042N000000000000U26       000040400K 10000000010000003422           
CUS0263620000102388312007         GUSTIN DEBORAH D    12262 BONMOT PL                         000N        CARE OF             
MTR02636200001000000000000000RA              01077288    005801060000010600000610000003NN  NNW 000                       N    
RDG02636200WATRL000000004K00000000000001031001602242015110100N000000000000U26       000180400K 10000000010000001021           
CUS0263620000102388311009         DUNMORE HENRY       12260 BONMOT PL                         000N        CARE OF             
MTR02636200001000000000000000RA              52770843    005801070000010700000520000003NN  NNW 000                       N    
RDG02636200WATRL000000004K00000000000001432001702242015110104N000000000000U26       000040400K 10000000010000001411           
CUS0263620000102388310001         STEVENS BRETT       12258 BONMOT PL                         000N        CARE OF             
MTR02636200001000000000000000RA              36697825    005801080000010800000520000003NY  NNW 000                       N    
MTM0263620036697825    A LOT OF ICE                                                                                           
RDG02636200WATRL000000004K00000000000000000000000000000000000 000000000000U         000000400  10000000010000003470           
CUS0263620000102388309003         BOOTH WANDA M       12256 BONMOT PL                         000N        CARE OF             
MTR02636200001000000000000000RA              14916607    005801090000010900000310000003NN  NNW 000                       N    
RDG02636200WATRL000000004K00000000000001161002002242015110259N000000000000U26       000600400K 10000000010000001121           
CUS0263620000102388308005         GOTSCH CHRISTOPHER W12254 BONMOT PL                         000N        CARE OF             
MTR02636200001000000000000000RA              52286127    005801100000011000000520000003NN  NNW 000                       N    
RDG02636200WATRL000000004K00000000000001077002102242015110303N000000000000U26       000040400K 10000000010000001064           
CUS0263620000102388307007         HUTCHINS BRANDON J  12252 BONMOT PL                         000N        CARE OF             
MTR02636200001000000000000000RA              50476037    005801110000011100000520000003NN  NNW 000                       N    
RDG02636200WATRL000000004K00000000000001696002202242015110306N000000000000U26       000030400K 10000000010000001672           
CUS0263620000102388306009         EDICK STEVEN C      12250 BONMOT PL                         000N        CARE OF             
MTR02636200001000000000000000RA              36698617    005801120000011200000520000003NN  NNW 000                       N    
RDG02636200WATRL000000004K00000000000002129002302242015110329N000000000000U26       000230400K 10000000010000002096           
CUS0263620000102388305001         MICHAEL/YOHANNES TES12248 BONMOT PL                         000N        CARE OF             
MTR02636200001000000000000000RA              36698540    005801130000011300000520000003NN  NNW 000                       N    
RDG02636200WATRL000000004K00000000000002725002402242015110332N000000000000U26       000030400K 10000000010000002702           
CUS0263620000102388304004         LASSITER KIMBERLY K 12246 BONMOT PL                         000N        CARE OF             
MTR02636200001000000000000000RA              50479970    005801140000011400000520000003NN  NNW 000                       N    
RDG02636200WATRL000000004K00000000000000425002502242015110349N000000000020U26       000170400K 10000000010000000423           
CUS0263620000102388303006         MILLER JAMES D      12244 BONMOT PL                         000N        CARE OF             
MTR02636200001000000000000000RA              36698547    005801150000011500000520000003NN  NNW 000                       N    
RDG02636200WATRL000000004K00000000000001880002602242015110354N000000000010U26       000050400K 10000000010000001864           
CUS0263620000102388302008         JOSEPH STOFFA       12242 BONMOT PL                         000N        CARE OF             
MTR02636200001000000000000000RA              44089297    005801160000011600000520000003NN  NNW 000                       N    
RDG02636200WATRL000000004K00000000000001614002702242015110411N000000000000U26       000170400K 10000000010000001614           
CUS0263620000102388313005         JOHN W SCHRAMM      12249 BONMOT PL                         000N        CARE OF             
MTR02636200001000000000000000RA              38187542    005801170000011700000520000003NN  NNW 000                       N    
RDG02636200WATRL000000004K00000000000002423002802242015110421N000000000000U26       000100400K 10000000010000002399           
CUS0263620000102388314003         EINBINDER MARCIA H  12251 BONMOT PL                         000N        CARE OF             
MTR02636200001000000000000000RA              38187538    005801180000011800000520000003NN  NNW 000                       N    
RDG02636200WATRL000000004K00000000000001585002902242015110423N000000000000U26       000020400K 10000000010000001576           
CUS0263620000102388315000         Y. SHCHETINKIN      12253 BONMOT PL                         000N        CARE OF             
MTR02636200001000000000000000RA              38187537    005801190000011900000520000003NN  NNW 000                       N    
RDG02636200WATRL000000004K00000000000001507003002242015110443N000300000010U26       000200400K 10000000010000001496           
CUS0263620000102388316008         GLOVER LENAY D      12255 BONMOT PL                         000N        CARE OF             
MTR02636200001000000000000000RA              35118036    005801200000012000000520000003NN  NNW 000   VACANT / LOT        N    
RDG02636200WATRL000000004K00000000000001872003102242015110446N000000000000U26       000030400K 10000000010000001872           
CUS0263620000102388317006         SHEPPARD REGINALD   12257 BONMOT PL                         000N        CARE OF             
MTR02636200001000000000000000RA              50790458    005801210000012100000520000003NN  NNW 000                       N    
RDG02636200WATRL000000004K00000000000002029003202242015110520N000000000010U26       000340400K 10000000010000002013           
CUS0263620000102388360006         KOLMANSBERGER DAVID 1 WOODBENCH CT                          000N        CARE OF             
MTR02636200001000000000000000RA              38782559    005801220000012200000520000003NN  NNW 000                       N    
RDG02636200WATRL000000004K00000000000003646003302242015110706N000000000010U26       001060400K 10000000010000003630           
CUS0263620000102388359008         JASON HORWITZ       3 WOODBENCH CT                          000N        CARE OF             
MTR02636200001000000000000000RA              76346284    005801230000012300000350000003NN  NNW 000                       N    
RDG02636200WATRL000000004K00000000000000040003602242015110741N000000000010U26       000180400K 10000000010000000011           
CUS0263620000102388358000         HUTCHINSON KIRSTYN J5 WOODBENCH CT                          000N        CARE OF             
MTR02636200001000000000000000RA              38782543    005801240000012400000520000003NN  NNW 000                       N    
RDG02636200WATRL000000004K00000000000002995003402242015110718N000400000020U26       000120400K 10000000010000002965           
CUS0263620000102388357002         CIWENGO NTAMBO E    7 WOODBENCH CT                          000N        CARE OF             
MTR02636200001000000000000000RA              38782417    005801250000012500000520000003NN  NNW 000                       N    
RDG02636200WATRL000000004K00000000000003884003502242015110723N000000000000U26       000050400K 10000000010000003803           
CUS0263620000102388356004         MICHAEL H SCHWARTZ  9 WOODBENCH CT                          000N        CARE OF             
MTR02636200001000000000000000RA              46886461    005801260000012600000520000003NN  NNW 000                       N    
RDG02636200WATRL000000004K00000000000001557003802242015110824N000000000000U26       000230400K 10000000010000001548           
CUS0263620000102388352003         BAKER DEREK         11 WOODBENCH CT                         000N        CARE OF             
MTR02636200001000000000000000RA              46884940    005801270000012700000520000003NN  NNW 000                       N    
RDG02636200WATRL000000004K00000000000002848003702242015110801N000000000000U26       000200400K 10000000010000002833           
CUS0263620000102388351005         SWEREN SCOTT A      13 WOODBENCH CT                         000N        CARE OF             
MTR02636200001000000000000000RA              38782098    005801280000012800000520000003NN  NNW 000                       N    
RDG02636200WATRL000000004K00000000000003296003902242015110827N000000000000U26       000030400K 10000000010000003278           
CUS0263620000102388350007         COLTER ELIJAH,JR    15 WOODBENCH CT                         000N        CARE OF             
MTR02636200001000000000000000RA              14923042    005801290000012900000310000003NN  NNW 000                       N    
RDG02636200WATRL000000004K00000000000000834004002242015110830N000000000000U26       000030400K 10000000010000000828           
CUS0263620000102388349009         WILSON ROBERT E     17 WOODBENCH CT                         000N        CARE OF             
MTR02636200001000000000000000RA              38782418    005801300000013000000520000003NY  NNW 000                       N    
MTM0263620038782418    A LOT OF ICE                                                                                           
RDG02636200WATRL000000004K00000000000000000000000000000000000 000000000000U         000000400  10000000010000002865           
CUS0263620000102388348001         NEIL OJASON         19 WOODBENCH CT                         000N        CARE OF             
MTR02636200001000000000000000RA              38782541    005801310000013100000520000003NY  NNW 000                       N    
MTM0263620038782541    A LOT OF ICE                                                                                           
RDG02636200WATRL000000004K00000000000000000000000000000000000 000000000000U         000000400  10000000010000002543           
CUS0263620000102388347003         WERNER LUCILLE R    21 WOODBENCH CT                         000N        CARE OF             
MTR02636200001000000000000000RA              38782414    005801320000013200000520000003NN  NNW 000                       N    
RDG02636200WATRL000000004K00000000000003446004102242015110934N000000000000U26       000640400K 10000000010000003429           
CUS0263620000102388346005         HOPIDA ALMA TEMBLOR 10 WOODBENCH CT                         000N        CARE OF             
MTR02636200001000000000000000RA              38887394    005801330000013300000520000003NN  NNW 000                       N    
RDG02636200WATRL000000004K00000000000002565004202242015110959N000000000000U26       000250400K 10000000010000002512           
CUS0263620000102388353001         IVINS JEFFREY S     8 WOODBENCH CT                          000N        CARE OF             
MTR02636200001000000000000000RA              38887392    005801340000013400000520000003NN  NNW 000                       N    
RDG02636200WATRL000000004K00000000000002394004302242015111021N000000000000U26       000220400K 10000000010000002366           
CUS0263620000102388354009         WILSON AARON        6 WOODBENCH CT                          000N        CARE OF             
MTR02636200001000000000000000RA              38887688    005801350000013500000520000003NN  NNW 000                       N    
RDG02636200WATRL000000004K00000000000002090004502242015111207N000300000020U26       000800400K 10000000010000001989           
CUS0263620000102388355006         MORRIS REBECCA ANNE 4 WOODBENCH CT                          000N        CARE OF             
MTR02636200001000000000000000RA              38887835    005801360000013600000520000003NN  NNW 000                       N    
RDG02636200WATRL000000004K00000000000003682004402242015111047N000000000000U26       000260400K 10000000010000003639           
CUS0263620000102388336006         BARZEGAR MOHAMMAD AL12265 BONMOT PL                         000N        CARE OF             
MTR02636200001000000000000000RA              38983526    005801370000013700000520000003NN  NNW 000                       N    
RDG02636200WATRL000000004K00000000000002562004602242015111431N000300000010U26       001440400K 10000000010000002534           
CUS0263620000102388335008         DONALD D LEE        12267 BONMOT PL                         000N        CARE OF             
MTR02636200001000000000000000RA              38983522    005801380000013800000520000003NN  NNW 000                       N    
RDG02636200WATRL000000004K00000000000002736004702242015111541N000000000000U26       000700400K 10000000010000002723           
CUS0263620000102388334001         DAVIS KELLY L       12269 BONMOT PL                         000N        CARE OF             
MTR02636200001000000000000000RA              38983231    005801390000013900000520000003NN  NNW 000                       N    
RDG02636200WATRL000000004K00000000000002302004802242015111543N000000000000U26       000020400K 10000000010000002276           
CUS0263620000102388333003         REDDING STEPHANIE L 12271 BONMOT PL                         000N        CARE OF             
MTR02636200001000000000000000RA              52289152    005801400000014000000520000003NN  NNW 000                       N    
RDG02636200WATRL000000004K00000000000000000004902242015111603S063000000000U26       000200400K 10000000010000003362           
CUS0263620000102388332005         LAUGHTER ERIN C     12273 BONMOT PL                         000N        CARE OF             
MTR02636200001000000000000000RA              38983235    005801410000014100000520000003NN  NNW 000                       N    
RDG02636200WATRL000000004K00000000000002265005002242015111605N000000000000U26       000020400K 10000000010000002243           
CUS0263620000102388331007         SMITH ERIC H        12275 BONMOT PL                         000N        CARE OF             
MTR02636200001000000000000000RA              38983236    005801420000014200000520000003NN  NNW 000                       N    
RDG02636200WATRL000000004K00000000000002478005102242015111630N000300000010U26       000250400K 10000000010000002448           
CUS0263620000102388330009         FRANK E GORSUCH     12277 BONMOT PL                         000N        CARE OF             
MTR02636200001000000000000000RA              38983534    005801430000014300000520000003NN  NNW 000                       N    
RDG02636200WATRL000000004K00000000000001590005202242015111637N000300000010U26       000070400K 10000000010000001430           
CUS0263620000102388329001         BIDDINGER GRANT L   12279 BONMOT PL                         000N        CARE OF             
MTR02636200001000000000000000RA              38983233    005801440000014400000520000003NN  NNW 000                       N    
RDG02636200WATRL000000004K00000000000002447005302242015111701N000000000000U26       000240400K 10000000010000002362           
CUS0263620000102388328003         SWEREN HERBERT J    12281 BONMOT PL                         000N        CARE OF             
MTR02636200001000000000000000RA              38983229    005801450000014500000520000003NN  NNW 000                       N    
RDG02636200WATRL000000004K00000000000002110005402242015111702N000000000000U26       000010400K 10000000010000002094           
CUS0263620000102373684006         GREEN KAREN EVETTE  12303 BONMOT PL                         000N        CARE OF             
MTR02636200001000000000000000RA              35099094    005801460000014600000520000003NN  NNW 000                       N    
RDG02636200WATRL000000004K00000000000004417002202282015091841N000300000010U26       001180400K 10000000010000004383           
CUS0263620000102373685003         JONES STEVEN        12305 BONMOT PL                         000N        CARE OF             
MTR02636200001000000000000000RA              35099517    005801470000014700000520000003NY  NNW 000                       N    
MTM0263620035099517    CLEAN OUT                                                                                              
RDG02636200WATRL000000004K00000000000000000000000000000000000 000000000000U         000000400  10000000010000003134           
CUS0263620000102373843008         DURDEN RONALD       12307 BONMOT PL                         000N        CARE OF             
MTR02636200001000000000000000RA              01115168    005801480000014800000610000003NY  NNW 000                       N    
MTM0263620001115168    CLEAN OUT                                                                                              
RDG02636200WATRL000000004K00000000000000000000000000000000000 000000000000U         000000400  10000000010000000707           
CUS0263620000102373686001         CHOUDHARY KHOULA    12309 BONMOT PL                         000N        CARE OF             
MTR02636200001000000000000000RA              35099472    005801490000014900000520000003NN  NNW 000                       N    
RDG02636200WATRL000000004K00000000000003865002302282015092131N000000000010U26       001700400K 10000000010000003660           
CUS0263620000102373844006         GHAZOUANI NOUREDDINE12311 BONMOT PL                         000N        CARE OF             
MTR02636200001000000000000000RA              48586637    005801500000015000000520000003NN  NNW 000                       N    
RDG02636200WATRL000000004K00000000000000000002402282015092202S063000000000U26       000310400K 10000000010000001883           
CUS0263620000102373687009         ESSEX BANK          12313 BONMOT PL                         000N        CARE OF             
MTR02636200001000000000000000RA              31584969    005801510000015100000520000003NY  NNW 000                       N    
MTM0263620031584969    A LOT OF ICE                                                                                           
RDG02636200WATRL000000004K00000000000000000000000000000000000 000000000000U         000000400  10000000010000002795           
CUS0263620000102373688007         BONOMO DANIEL J     12315 BONMOT PL                         000N        CARE OF             
MTR02636200001000000000000000RA              35099477    005801520000015200000520000003NY  NNW 000                       N    
MTM0263620035099477    A LOT OF ICE                                                                                           
RDG02636200WATRL000000004K00000000000000000000000000000000000 000000000000U         000000400  10000000010000004313           
CUS0263620000102373689005         DATU MARY LEE       12317 BONMOT PL                         000N        CARE OF             
MTR02636200001000000000000000RA              29680825    005801530000015300000520000003NY  NNW 000                       N    
MTM0263620029680825    A LOT OF ICE                                                                                           
RDG02636200WATRL000000004K00000000000000000000000000000000000 000000000000U         000000400  10000000010000004793           
CUS0263620000102357506001         ROAN D EVERETT      12319 BONMOT PL                         000N        CARE OF             
MTR02636200001000000000000000RA              35097847    005801540000015400000520000003NY  NNW 000                       N    
MTM0263620035097847    A LOT OF ICE                                                                                           
RDG02636200WATRL000000004K00000000000000000000000000000000000 000000000000U         000000400  10000000010000001741           
CUS0263620000102357507009         KADISH LISA M       12321 BONMOT PL                         000N        CARE OF             
MTR02636200001000000000000000RA              29404998    005801550000015500000520000003NN  NNW 000                       N    
RDG02636200WATRL000000004K00000000000001787003402282015095055N000000000000U26       003510400K 10000000010000001779           
CUS0263620000102357508007         HANNSEN PAUL M      12323 BONMOT PL                         000N        CARE OF             
MTR02636200001000000000000000RA              29404971    005801560000015600000520000003NN  NNW 000                       N    
RDG02636200WATRL000000004K00000000000002306003502282015095059N000000000000U26       000040400K 10000000010000002299           
CUS0263620000102357509005         NANCY S PENA        12325 BONMOT PL                         000N        CARE OF             
MTR02636200001000000000000000RA              29404651    005801570000015700000520000003NN  NNW 000                       N    
RDG02636200WATRL000000004K00000000000002532003602282015095258N000000000000U26       001190400K 10000000010000002510           
CUS0263620000102352892000         KEVIN GORMAN        12327 BONMOT PL                         000N        CARE OF             
MTR02636200001000000000000000RA              29680719    005801580000015800000520000003NN  NNW 000                       N    
RDG02636200WATRL000000004K00000000000002815003702282015095306N000000000000U26       000080400K 10000000010000002761           
CUS0263620000102352893008         SILVAS NANCY        12329 BONMOT PL                         000N        CARE OF             
MTR02636200001000000000000000RA              01110704    005801590000015900000610000003NN  NNW 000                       N    
RDG02636200WATRL000000004K00000000000000394002502282015092515N000000000000U26       001930400K 10000000010000000381           
CUS0263620000102352894006         ANDERSON LISA RICHAR12331 BONMOT PL                         000N        CARE OF             
MTR02636200001000000000000000RA              01106719    005801600000016000000610000003NN  NNW 000                       N    
RDG02636200WATRL000000004K00000000000000879002602282015092531N000000000000U26       000160400K 10000000010000000866           
CUS0263620000102352895003         SPRIGGS JOHN        12333 BONMOT PL                         000N        CARE OF             
MTR02636200001000000000000000RA              29680637    005801610000016100000520000003NN  NNW 000                       N    
RDG02636200WATRL000000004K00000000000000000000000000000000000 000000000000U         000000400  10000000010000002515           
CUS0263620000102348833001         SNYDER STEVEN L     12335 BONMOT PL                         000N        CARE OF             
MTR02636200001000000000000000RA              75616883    005801620000016200000350000003NN  NNW 000                       N    
RDG02636200WATRL000000004K00000000000000086002702282015093221N000000000000U26       004100400K 10000000010000000068           
CUS0263620000102348879004         GIESSL RYAN B       12337 BONMOT PL                         000N        CARE OF             
MTR02636200001000000000000000RA              27813716    005801630000016300000520000003NN  NNW 000                       N    
RDG02636200WATRL000000004K00000000000001920003802282015095826N000000000000U26       003200400K 10000000010000001915           
CUS0263620000102348880002         TYRESSA MCQUEEN     12339 BONMOT PL                         000N        CARE OF             
MTR02636200001000000000000000RA              27266026    005801640000016400000520000003NN  NNW 000                       N    
RDG02636200WATRL000000004K00000000000003479003902282015095827N000000000000U26       000010400K 10000000010000003427           
CUS0263620000102348860004         SMITH STEPHEN M     12341 BONMOT PL                         000N        CARE OF             
MTR02636200001000000000000000RA              27266022    005801650000016500000520000003NN  NNW 000                       N    
RDG02636200WATRL000000004K00000000000003398004002282015100128N000100000030U26       001810400K 10000000010000003398           
CUS0263620000102348861002         MULTANI SUKHJINDER S12343 BONMOT PL                         000N        CARE OF             
MTR02636200001000000000000000RA              27266399    005801660000016600000520000003NN  NNW 000                       N    
RDG02636200WATRL000000004K00000000000003293004102282015100130N000000000000U26       000020400K 10000000010000003262           
CUS0263620000102348858008         KNUTH MARGARET J    12345 BONMOT PL                         000N        CARE OF             
MTR02636200001000000000000000RA              27266069    005801670000016700000520000003NN  NNW 000                       N    
RDG02636200WATRL000000004K00000000000003461004202282015100315N000000000000U26       001050400K 10000000010000003442           
CUS0263620000102348574001         CLARENCE HAWKINS SR 636 GLYNITA CIR                         000N        CARE OF             
MTR02636200001000000000000000RA              01084390    005801680000016800000610000003NY  NNW 000                       N    
MTM0263620001084390    A LOT OF ICE                                                                                           
RDG02636200WATRL000000004K00000000000000000000000000000000000 000000000000U         000000400  10000000010000001514           
CUS0263620000102348573003         ROYAL BETTY         638 GLYNITA CIR                         000N        CARE OF             
MTR02636200001000000000000000RA              27814094    005801690000016900000520000003NN  NNW 000                       N    
RDG02636200WATRL000000004K00000000000000000001502282015085909S063000000000U26       000770400K 10000000010000002210           
CUS0263620000102388364008         TONY YAN            640 GLYNITA CIR                         000N        CARE OF             
MTR02636200001000000000000000RA              41259758    005801700000017000000520000003NY  NNW 000                       N    
MTM0263620041259758    A LOT OF ICE                                                                                           
RDG02636200WATRL000000004K00000000000000000000000000000000000 000000000000U         000000400  10000000010000002640           
CUS0263620000108394232006         RAMSBURG RENATA L   12401 WILSON AVE                        000N        CARE OF             
MTR02636200001000000000000000RA              99999999    005801710000017100000620000003NN  NNW 000                       N    
RDG02636200WATRL000000004K00000000000000085001402282015085752N000000000000U26       001470400K 10000000010000000085           
CUS0263620000102437973007         BUCKNER JULIE A     12407 WILSON AVE                        000N        CARE OF             
MTR02636200001000000000000000RA              78021087    005801720000017200000350000000NY  NNW 000                       N    
MTM0263620078021087    CANT LOCATE                                                                                            
RDG02636200WATRL000000004K00000000000000000000000000000000000 000000000000U         000000400  10000000010000000017           
CUS0263620000102388363000         RODNEY REID         641 GLYNITA CIR                         000N        CARE OF             
MTR02636200001000000000000000RA              41259370    005801730000017300000520000003NY  NNW 000                       N    
MTM0263620041259370    A LOT OF ICE                                                                                           
RDG02636200WATRL000000004K00000000000000000000000000000000000 000000000000U         000000400  10000000010000003004           
CUS0263620000102348872009         DENIECE E COOPER    637 GLYNITA CIR                         000N        CARE OF             
MTR02636200001000000000000000RA              27265999    005801740000017400000520000003NN  NNW 000                       N    
RDG02636200WATRL000000004K00000000000004482001302282015085525N000000000000U26       001380400K 10000000010000004450           
CUS0263620000102348855004         OLINER KEVIN M      635 GLYNITA CIR                         000N        CARE OF             
MTR02636200001000000000000000RA              27266402    005801750000017500000520000003NY  NNW 000                       N    
MTM0263620027266402    A LOT OF ICE                                                                                           
RDG02636200WATRL000000004K00000000000000000000000000000000000 000000000000U         000000400  10000000010000004213           
CUS0263620000102348856002         COHN DAVID B        633 GLYNITA CIR                         000N        CARE OF             
MTR02636200001000000000000000RA              27266073    005801760000017600000520000003NN  NNW 000                       N    
RDG02636200WATRL000000004K00000000000003765001202282015085307N000000000000U26       000540400K 10000000010000003753           
CUS0263620000102348869005         PROUDFOOT JAMES L   631 GLYNITA CIR                         000N        CARE OF             
MTR02636200001000000000000000RA              27266023    005801770000017700000520000003NN  NNW 000                       N    
RDG02636200WATRL000000004K00000000000004498001102282015085213N000000000000U26       001220400K 10000000010000004466           
CUS0263620000102348873007         DAWN SCHREINER      629 GLYNITA CIR                         000N        CARE OF             
MTR02636200001000000000000000RA              27266137    005801780000017800000520000003NN  NNW 000                       N    
RDG02636200WATRL000000004K00000000000003770001002282015085011N000000000000U26       000360400K 10000000010000003741           
CUS0263620000102348870003         CLINTON BEVERLY P   627 GLYNITA CIR                         000N        CARE OF             
MTR02636200001000000000000000RA              27815930    005801790000017900000520000003NN  NNW 000                       N    
RDG02636200WATRL000000004K00000000000003508000902282015084935N000000000000U26       000960400K 10000000010000003496           
CUS0263620000102348871001         YOUNG YVETTE R  YOUN625 GLYNITA CIR                         000N        CARE OF             
MTR02636200001000000000000000RA              27815931    005801800000018000000520000003NN  NNW 000                       N    
RDG02636200WATRL000000004K00000000000004853000802282015084759N000000000000U26       000710400K 10000000010000004781           
CUS0263620000102348874005         STAN KNEFEL         623 GLYNITA CIR                         000N        CARE OF             
MTR02636200001000000000000000RA              45380240    005801810000018100000520000003NN  NNW 000                       N    
RDG02636200WATRL000000004K00000000000002716000702282015084648N000000000000U26       000180400K 10000000010000002679           
CUS0263620000102348875002         GERSTEIN ROBERT BRUC621 GLYNITA CIR                         000N        CARE OF             
MTR02636200001000000000000000RA              27815933    005801820000018200000520000003NN  NNW 000                       N    
RDG02636200WATRL000000004K00000000000002856000602282015084630N000000000000U26       001400400K 10000000010000002841           
CUS0263620000102388362002         KEYES NANCY         639 GLYNITA CIR                         000N        CARE OF             
MTR02636200001000000000000000RA              36698900    005801830000018300000520000003NY  NNW 000                       N    
MTM0263620036698900    A LOT OF ICE                                                                                           
RDG02636200WATRL000000004K00000000000000000000000000000000000 000000000000U         000000400  10000000010000002326           
CUS0263620000102348876000         NOEL RAMBARAN AND   619 GLYNITA CIR                         000N        CARE OF             
MTR02636200001000000000000000RA              27265702    005801840000018400000520000003NN  NNW 000                       N    
RDG02636200WATRL000000004K00000000000003843000502282015084410N000000000000U26       003230400K 10000000010000003824           
CUS0263620000102348857000         WILLIAM SINGLETON AN617 GLYNITA CIR                         000N        CARE OF             
MTR02636200001000000000000000RA              78005418    005801850000018500000350000003NN  NNW 000                       N    
RDG02636200WATRL000000004K00000000000000000000102282015083407S001000000010U26       000000400K 10000000010000000000           
CUS0263620000102348877008         WILLIAM & ROSA HOLLY615 GLYNITA CIR                         000N        CARE OF             
MTR02636200001000000000000000RA              27266020    005801860000018600000520000003NN  NNW 000                       N    
RDG02636200WATRL000000004K00000000000004186000202282015083549N000000000000U26       001020400K 10000000010000004166           
CUS0263620000102348878006         PARRIS WILLIAM BURTO613 GLYNITA CIR                         000N        CARE OF             
MTR02636200001000000000000000RA              10024442    005801870000018700000570000003NN  NNW 000                       N    
RDG02636200WATRL000000004K00000000000000086000402282015083847N000000000010U26       001060400K 10000000010000000078           
CUS0263620000102350899007         CHARLES AMENT       611 GLYNITA CIR                         000N        CARE OF             
MTR02636200001000000000000000RA              29680705    005801880000018800000520000003NN  NNW 000                       N    
RDG02636200WATRL000000004K00000000000006151000302282015083701N000000000000U26       000720400K 10000000010000006119           
CUS0263620000102348746005         TIMPSON GERALD A    3 BON OAK CT                            000N        CARE OF             
MTR02636200001000000000000000RA              78022807    005801890000018900000350000003NN  NNW 000                       N    
RDG02636200WATRL000000004K00000000000000000006402282015105156S001000000000U26       004160400K 10000000010000000001           
CUS0263620000102348747003         GILLYARD RALEIGH P  5 BON OAK CT                            000N        CARE OF             
MTR02636200001000000000000000RA              29684058    005801900000019000000520000003NN  NNW 000                       N    
RDG02636200WATRL000000004K00000000000003673007002282015110831N000000000000U26       004930400K 10000000010000003640           
CUS0263620000102348749009         RUSSELL LYNNE       7 BON OAK CT                            000N        CARE OF             
MTR02636200001000000000000000RA              26011042    005801910000019100000520000003NN  NNW 000   VACANT / LOT        N    
RDG02636200WATRL000000004K00000000000001005002102232015105534N000000000000N26       001210400K 10000000010000001005           
CUS0263620000102348750007         ZIEGLER KYRA        9 BON OAK CT                            000N        CARE OF             
MTR02636200001000000000000000RA              26009611    005801920000019200000520000003NN  NNW 000                       N    
RDG02636200WATRL000000004K00000000000002768002202232015105559N000300000020N26       000250400K 10000000010000002763           
CUS0263620000102348751005         VERWEY ALIDA M      11 BON OAK CT                           000N        CARE OF             
MTR02636200001000000000000000RA              26010883    005801930000019300000520000003NN  NNW 000                       N    
RDG02636200WATRL000000004K00000000000001846002302232015105601N000000000000N26       000020400K 10000000010000001844           
CUS0263620000102348752003         JAMES LINEBARGER    13 BON OAK CT                           000N        CARE OF             
MTR02636200001000000000000000RA              78022806    005801940000019400000350000003NN  NNW 000                       N    
RDG02636200WATRL000000004K00000000000000000002402232015105646S001000000000N26       000450400K 10000000010000000000           
CUS0263620000102348753001         TAYLOR MANAGEMENT GR15 BON OAK CT                           000N        CARE OF             
MTR02636200001000000000000000RA              44087517    005801950000019500000520000003NN  NNW 000                       N    
RDG02636200WATRL000000004K00000000000001734002502232015105649N000000000000N26       000030400K 10000000010000001682           
CUS0263620000102348754009         ELOUEHABI ABDELAAZIZ17 BON OAK CT                           000N        CARE OF             
MTR02636200001000000000000000RA              30524467    005801960000019600000520000003NN  NNW 000                       N    
RDG02636200WATRL000000004K00000000000003778002602232015105723N000000000010N26       000340400K 10000000010000003748           
CUS0263620000102348755006         PAMELA SURGENT & V B19 BON OAK CT                           000N        CARE OF             
MTR02636200001000000000000000RA              30524502    005801970000019700000520000003NN  NNW 000                       N    
RDG02636200WATRL000000004K00000000000003625002702232015105726N000000000000N26       000030400K 10000000010000003609           
CUS0263620000102348756004         LANDSMAN JAN C      21 BON OAK CT                           000N        CARE OF             
MTR02636200001000000000000000RA              29404360    005801980000019800000520000003NN  NNW 000                       N    
RDG02636200WATRL000000004K00000000000004676002802232015105900N000000000000N26       000940400K 10000000010000004642           
CUS0263620000102348757002         BRADY CATHERINE A   23 BON OAK CT                           000N        CARE OF             
MTR02636200001000000000000000RA              41259757    005801990000019900000520000003NN  NNW 000                       N    
RDG02636200WATRL000000004K00000000000003126002902232015105906N000000000000N26       000060400K 10000000010000003093           
CUS0263620000102348758000         KLUCKOWSKI TERESA A 25 BON OAK CT                           000N        CARE OF             
MTR02636200001000000000000000RA              26010959    005802000000020000000520000003NN  NNW 000                       N    
RDG02636200WATRL000000004K00000000000002943003002232015105910N000000000000N26       000040400K 10000000010000002934           
CUS0263620000102348759008         MADELINE POLITINO   27 BON OAK CT                           000N        CARE OF             
MTR02636200001000000000000000RA              26010958    005802010000020100000520000003NN  NNW 000                       N    
RDG02636200WATRL000000004K00000000000002909003102232015105912N000000000000N26       000020400K 10000000010000002886           
CUS0263620000102348760006         SIERRA BRENDA I     29 BON OAK CT                           000N        CARE OF             
MTR02636200001000000000000000RA              26010764    005802020000020200000520000003NN  NNW 000                       N    
RDG02636200WATRL000000004K00000000000003314003202232015110017N000000000000N26       000650400K 10000000010000003294           
CUS0263620000102348761004         SHACKELFORD MICHAEL 31 BON OAK CT                           000N        CARE OF             
MTR02636200001000000000000000RA              26010957    005802030000020300000520000003NN  NNW 000                       N    
RDG02636200WATRL000000004K00000000000002889003302232015110026N000000000000N26       000090400K 10000000010000002860           
CUS0263620000102348762002         BACH DEBBIE S       33 BON OAK CT                           000N        CARE OF             
MTR02636200001000000000000000RA              26009608    005802040000020400000520000003NN  NNW 000                       N    
RDG02636200WATRL000000004K00000000000003655003402232015110138N000000000000N26       000720400K 10000000010000003626           
CUS0263620000102348764008         DILLO A BABOOLAL    37 BON OAK CT                           000N        CARE OF             
MTR02636200001000000000000000RA              26010884    005802050000020500000520000003NN  NNW 000                       N    
RDG02636200WATRL000000004K00000000000004359003602232015110348N000000000000N26       001140400K 10000000010000004343           
CUS0263620000102348765005         DURWOOD J BUSH      39 BON OAK CT                           000N        CARE OF             
MTR02636200001000000000000000RA              26010955    005802060000020600000520000003NN  NNW 000                       N    
RDG02636200WATRL000000004K00000000000004288003702232015110353N000000000000N26       000050400K 10000000010000004257           
CUS0263620000102348766003         SCHMIDT JEROME M    41 BON OAK CT                           000N        CARE OF             
MTR02636200001000000000000000RA              26010858    005802070000020700000520000003NN  NNW 000                       N    
RDG02636200WATRL000000004K00000000000004142006502282015105516N000000000000U26       002000400K 10000000010000004110           
CUS0263620000102348767001         DIAZ ANGEL L        43 BON OAK CT                           000N        CARE OF             
MTR02636200001000000000000000RA              41259753    005802080000020800000520000003NN  NNW 000                       N    
RDG02636200WATRL000000004K00000000000001743006602282015105525N000000000000U26       000090400K 10000000010000001725           
CUS0263620000102348768009         FINK ALAN J         45 BON OAK CT                           000N        CARE OF             
MTR02636200001000000000000000RA              29681524    005802090000020900000520000003NN  NNW 000                       N    
RDG02636200WATRL000000004K00000000000003622006702282015105610N000000000001U26       000050400K 10000000010000003601           
CUS0263620000102348514007         EPPERLY TIMOTHY A/BA42 BON OAK CT                           000N        CARE OF             
MTR02636200001000000000000000RA              26011129    005802100000021000000520000003NN  NNW 000                       N    
RDG02636200WATRL000000004K00000000000004373003802232015110541N000000000000N26       001080400K 10000000010000004342           
CUS0263620000102350894008         THOMAS DAMIA        40 BON OAK CT                           000N        CARE OF             
MTR02636200001000000000000000RA              26010954    005802110000021100000520000003NN  NNW 000                       N    
RDG02636200WATRL000000004K00000000000004365003902232015110554N000000000000N26       000130400K 10000000010000004350           
CUS0263620000102348513009         BEAVIN KIMBER W     38 BON OAK CT                           000N        CARE OF             
MTR02636200001000000000000000RA              26011128    005802120000021200000520000003NN  NNW 000                       N    
RDG02636200WATRL000000004K00000000000003337004002232015110636N000000000010N26       000420400K 10000000010000003309           
CUS0263620000102348512001         KRAMER NEIDE MAGALHA36 BON OAK CT                           000N        CARE OF             
MTR02636200001000000000000000RA              00128349    005802130000021300000570000003NN  NNW 000                       N    
RDG02636200WATRL000000004K00000000000000909004102232015110728N000000000000N26       000520400K 10000000010000000870           
CUS0263620000102348763000         LAZON JOSEPH        35 BON OAK CT                           000N        CARE OF             
MTR02636200001000000000000000RA              41259748    005802140000021400000520000003NN  NNW 000                       N    
RDG02636200WATRL000000004K00000000000002800003502232015110154N000000000000N26       000160400K 10000000010000002765           
CUS0263620000102348511003         NELSON KIM W        34 BON OAK CT                           000N        CARE OF             
MTR02636200001000000000000000RA              26010887    005802150000021500000520000003NN  NNW 000                       N    
RDG02636200WATRL000000004K00000000000003396004202232015110743N000000000000N26       000150400K 10000000010000003354           
CUS0263620000102348510005         CLARK ROMAN L,JR    32 BON OAK CT                           000N        CARE OF             
MTR02636200001000000000000000RA              26010861    005802160000021600000520000003NN  NNW 000                       N    
RDG02636200WATRL000000004K00000000000003398004302232015110746N000000000000N26       000030400K 10000000010000003366           
CUS0263620000102348509007         HIRSCH HOWARD       30 BON OAK CT                           000N        CARE OF             
MTR02636200001000000000000000RA              26010882    005802170000021700000520000003NN  NNW 000                       N    
RDG02636200WATRL000000004K00000000000003749004402232015110813N000000000000N26       000270400K 10000000010000003730           
CUS0263620000102348508009         ALI KHAN AKHTAR     28 BON OAK CT                           000N        CARE OF             
MTR02636200001000000000000000RA              26018885    005802180000021800000520000003NN  NNW 000                       N    
RDG02636200WATRL000000004K00000000000004047004502232015110817N000000000000N26       000040400K 10000000010000003997           
CUS0263620000102348507001         HOFFMAN LISA J      26 BON OAK CT                           000N        CARE OF             
MTR02636200001000000000000000RA              26009609    005802190000021900000520000003NN  NNW 000                       N    
RDG02636200WATRL000000004K00000000000002347004602232015110952N000000000000N26       000950400K 10000000010000002343           
CUS0263620000102348506003         BOULOUBASSIS ELIAS  24 BON OAK CT                           000N        CARE OF             
MTR02636200001000000000000000RA              26009607    005802200000022000000520000003NN  NNW 000                       N    
RDG02636200WATRL000000004K00000000000003256004702232015110955N000000000000N26       000030400K 10000000010000003216           
CUS0263620000102348505005         FRANCINE SHAFTEL    22 BON OAK CT                           000N        CARE OF             
MTR02636200001000000000000000RA              26010859    005802210000022100000520000003NN  NNW 000                       N    
RDG02636200WATRL000000004K00000000000002454004802232015111043N000000000000N26       000480400K 10000000010000002435           
CUS0263620000102348504008         DAY SAMUEL MASON,3RD20 BON OAK CT                           000N        CARE OF             
MTR02636200001000000000000000RA              26009610    005802220000022200000520000003NN  NNW 000                       N    
RDG02636200WATRL000000004K00000000000004792004902232015111046N000000000000N26       000030400K 10000000010000004765           
CUS0263620000102351034000         SOMMERSDORF MARK    2 GLYNN GARTH                           000N        CARE OF             
MTR02636200001000000000000000RA              26013800    005802230000022300000520000003NN  NNW 000                       N    
RDG02636200WATRL000000004K00000000000003616000402232015104516N000000000000N26       000030400K 10000000010000003616           
CUS0263620000102351035007         BRIDGETT DENNIS     4 GLYNN GARTH                           000N        CARE OF             
MTR02636200001000000000000000RA              26013803    005802240000022400000520000003NN  NNW 000                       N    
RDG02636200WATRL000000004K00000000000003249000302232015104513N000000000000N26       005510400K 10000000010000003243           
CUS0263620000102351036005         HAYWARD JOSEPH F,JR 6 GLYNN GARTH                           000N        CARE OF             
MTR02636200001000000000000000RA              26013799    005802250000022500000520000003NN  NNW 000                       N    
RDG02636200WATRL000000004K00000000000002918000502232015104550N000000000000N26       000340400K 10000000010000002905           
CUS0263620000102351037003         MICHAEL T EAGAN JR  8 GLYNN GARTH                           000N        CARE OF             
MTR02636200001000000000000000RA              26013801    005802260000022600000520000003NN  NNW 000                       N    
RDG02636200WATRL000000004K00000000000003378000602232015104552N000000000000N26       000020400K 10000000010000003333           
CUS0263620000102351038001         GERBER BRUCE        10 GLYNN GARTH                          000N        CARE OF             
MTR02636200001000000000000000RA              26012408    005802270000022700000520000003NN  NNW 000                       N    
RDG02636200WATRL000000004K00000000000003597000702232015104622N000000000000N26       000300400K 10000000010000003582           
CUS0263620000102351039009         BETHUNE KISHA       12 GLYNN GARTH                          000N        CARE OF             
MTR02636200001000000000000000RA              26010497    005802280000022800000520000003NN  NNW 000                       N    
RDG02636200WATRL000000004K00000000000004410000802232015104632N000000000000N26       000100400K 10000000010000004375           
CUS0263620000102351040007         KELLER KEVIN M      14 GLYNN GARTH                          000N        CARE OF             
MTR02636200001000000000000000RA              26012407    005802290000022900000520000003NN  NNW 000                       N    
RDG02636200WATRL000000004K00000000000003052000902232015104714N000000000000N26       000420400K 10000000010000003029           
CUS0263620000102351041005         MARNER LEATONYA     16 GLYNN GARTH                          000N        CARE OF             
MTR02636200001000000000000000RA              26012410    005802300000023000000520000003NN  NNW 000                       N    
RDG02636200WATRL000000004K00000000000003364001002232015104716N000000000000N26       000020400K 10000000010000003346           
CUS0263620000102351042003         TAYLOR KARLOS E     23 GLYNN GARTH                          000N        CARE OF             
MTR02636200001000000000000000RA              26015937    005802310000023100000520000003NN  NNW 000                       N    
RDG02636200WATRL000000004K00000000000003250001102232015104918N000000000000N26       001220400K 10000000010000003216           
CUS0263620000102351043001         NOYOLA ROBERTO      21 GLYNN GARTH                          000N        CARE OF             
MTR02636200001000000000000000RA              26015813    005802320000023200000520000003NN  NNW 000                       N    
RDG02636200WATRL000000004K00000000000002399001202232015104930N000000000000N26       000120400K 10000000010000002374           
CUS0263620000102351044009         JERALD DEBAR        19 GLYNN GARTH                          000N        CARE OF             
MTR02636200001000000000000000RA              32771799    005802330000023300000520000003NN  NNW 000                       N    
RDG02636200WATRL000000004K00000000000003470001302232015105003N000000000000N26       000330400K 10000000010000003443           
CUS0263620000102351045006         SCHOEDEL ELISSA K   17 GLYNN GARTH                          000N        CARE OF             
MTR02636200001000000000000000RA              26015214    005802340000023400000520000003NN  NNW 000                       N    
RDG02636200WATRL000000004K00000000000002317001402232015105007N000000000000N26       000040400K 10000000010000002293           
CUS0263620000102351046004         BOND RONALDM,3RD    15 GLYNN GARTH                          000N        CARE OF             
MTR02636200001000000000000000RA              24760945    005802350000023500000520000003NN  NNW 000                       N    
RDG02636200WATRL000000004K00000000000003948006902282015110018N000000000000U26       002030400K 10000000010000003894           
CUS0263620000102351047002         MCFALLS SCOTT P     11 GLYNN GARTH                          000N        CARE OF             
MTR02636200001000000000000000RA              24763754    005802360000023600000520000003NN  NNW 000                       N    
RDG02636200WATRL000000004K00000000000006227001502232015105125N000000000000N26       000780400K 10000000010000006192           
CUS0263620000102352217000         STEVENS JOANNE M    9 GLYNN GARTH                           000N        CARE OF             
MTR02636200001000000000000000RA              48594663    005802370000023700000520000003NN  NNW 000                       N    
RDG02636200WATRL000000004K00000000000001072001602232015105131N000300000010N26       000060400K 10000000010000001074           
CUS0263620000102351048000         M ALEXANDER & Y PERL7 GLYNN GARTH                           000N        CARE OF             
MTR02636200001000000000000000RA              19460045    005802380000023800000520000003NN  NNW 000                       N    
RDG02636200WATRL000000004K00000000000005145001902232015105329N000000000000N26       000680400K 10000000010000005125           
CUS0263620000102351049008         FRIZZELL MICHAEL A  5 GLYNN GARTH                           000N        CARE OF             
MTR02636200001000000000000000RA              23649144    005802390000023900000520000003NN  NNW 000                       N    
RDG02636200WATRL000000004K00000000000004452002002232015105333N000000000000N26       000040400K 10000000010000004426           
CUS0263620000102351050006         BUSH WILLIAM C      3 GLYNN GARTH                           000N        CARE OF             
MTR02636200001000000000000000RA              24228983    005802400000024000000520000003NN  NNW 000                       N    
RDG02636200WATRL000000004K00000000000005149001702232015105218N000000000000N26       000470400K 10000000010000005127           
CUS0263620000102351051004         JANNEY LEANA M      1 GLYNN GARTH                           000N        CARE OF             
MTR02636200001000000000000000RA              24773036    005802410000024100000520000003NN  NNW 000                       N    
RDG02636200WATRL000000004K00000000000003211001802232015105221N000000000000N26       000030400K 10000000010000003175           
CUS0263620000102352353003         KAREN LUNIEWSKI     609 GLYNITA CIR                         000N        CARE OF             
MTR02636200001000000000000000RA              26016725    005802420000024200000520000003NN  NNW 000                       N    
RDG02636200WATRL000000004K00000000000003162006802282015105655N000000000000U26       000450400K 10000000010000003131           
CUS0263620000102348941002         MELISSA C LARKIN    607 GLYNITA CIR                         000N        CARE OF             
MTR02636200001000000000000000RA              46879090    005802430000024300000520000003NN  NNW 000                       N    
RDG02636200WATRL000000004K00000000000000551000102232015103420N000000000000N26       000000400K 10000000010000000547           
CUS0263620000102348942000         FORDHAM MAURICE     605 GLYNITA CIR                         000N        CARE OF             
MTR02636200001000000000000000RA              26016727    005802440000024400000520000003NN  NNW 000                       N    
RDG02636200WATRL000000004K00000000000004256006302282015104500N000400000030U26       001680400K 10000000010000004252           
CUS0263620000102348241007         VELOSO HAROLD W     603 GLYNITA CIR                         000N        CARE OF             
MTR02636200001000000000000000RA              01110691    005802450000024500000610000003NN  NNW 000                       N    
RDG02636200WATRL000000004K00000000000001964000202232015103602N000000000000N26       001020400K 10000000010000001917           
CUS0263620000102348242005         COLBERT MEGAN F     601 GLYNITA CIR                         000N        CARE OF             
MTR02636200001000000000000000RA              26013822    005802460000024600000520000003NN  NNW 000                       N    
RDG02636200WATRL000000004K00000000000002674006202282015104212N000400000010U26       005210400K 10000000010000002647           
RTR02636200NN02460246000002460000000002460246000389NY024602460246002600090000000000000000000001    01282015NY020000 N         
FTRNNNN001000246000246000246N                                                                                           000780
