FHDNNNN007001739001739001739N                                                                                           006171
RHD04802000NN01720172000001720000000001720172000603YY017201720172001600000000000000000000000001    02022015NY020000 I         
CUS0480200000104061619005         NACHODSKY GERALDINE 3305 PARKTOWNE RD                       000N        CARE OF             
MTR04802000001000000000000000RA              14911723    005800010000000100000310000003NN  NNW 000                       N    
RDG04802000WATRL000000004K00000000000000745000202272015075241N000000000000N40       004760400K 10000000010000000732           
CUS0480200000104061620003         COPPLE JOSEPHINE F  3307 PARKTOWNE RD                       000N        CARE OF             
MTR04802000001000000000000000RA              36689698    005800020000000200000520000003NN  NNW 000                       N    
RDG04802000WATRL000000004K00000000000001633000302272015075746N000000000000N40       003050400K 10000000010000001624           
CUS0480200000104061621001         MORAN BONNIE J      3309 PARKTOWNE RD                       000N        CARE OF             
MTR04802000001000000000000000RA              20968553    005800030000000300000520000003NN  NNW 000                       N    
RDG04802000WATRL000000004K00000000000004250000502272015080819N000000000000N40       003100400K 10000000010000004233           
CUS0480200000104061622009         BROOKS JOSEPH W,JR  3311 PARKTOWNE RD                       000N        CARE OF             
MTR04802000001000000000000000RA              24224771    005800040000000400000520000003NN  NNW 000                       N    
RDG04802000WATRL000000004K00000000000003474000602272015082819N000000000000N40       012000400K 10000000010000003465           
CUS0480200000104061623007         SELIG GERALD A      3313 PARKTOWNE RD                       000N        CARE OF             
MTR04802000001000000000000000RA              01078043    005800050000000500000610000003NN  NNW 000                       N    
RDG04802000WATRL000000004K00000000000000987000702272015083258N000000000000N40       002790400K 10000000010000000977           
CUS0480200000104061624005         STUMP WILLIAM       3315 PARKTOWNE RD                       000N        CARE OF             
MTR04802000001000000000000000RA              01072617    005800060000000600000610000003NN  NNW 000                       N    
RDG04802000WATRL000000004K00000000000000705001002272015084402N000000000000N40       003570400K 10000000010000000705           
CUS0480200000104061625002         JURATOVAC ERIC D    3317 PARKTOWNE RD                       000N        CARE OF             
MTR04802000001000000000000000RA              36687754    005800070000001400010520000003NN  NNW 000   VACANT / LOT        N    
RDG04802000WATRL000000004K00000000000003554001302272015085220N000000000000N40       000920400K 10000000010000003554           
CUS0480200000104061626000         TREFILL KRISTINE M  3319 PARKTOWNE RD                       000N        CARE OF             
MTR04802000001000000000000000RA              23056738    005800080000000800000520000003NN  NNW 000                       N    
RDG04802000WATRL000000004K00000000000003811001402272015085746N000000000000N40       003260400K 10000000010000003795           
CUS0480200000104061627008         DIBBERN JEAN M      3321 PARKTOWNE RD                       000N        CARE OF             
MTR04802000001000000000000000RA              32898504    005800090000000900000520000003NN  NNW 000                       N    
RDG04802000WATRL000000004K00000000000005473001602272015090745N000000000000N40       002690400K 10000000010000005433           
CUS0480200000104061628006         JEFFREY J MEYER     3323 PARKTOWNE RD                       000N        CARE OF             
MTR04802000001000000000000000RA              01072611    005800100000001000000610000003NN  NNW 000                       N    
RDG04802000WATRL000000004K00000000000000583001702272015091158N000000000000N40       002530400K 10000000010000000575           
CUS0480200000104061629004         SCHROEDER BOBBY A   3325 PARKTOWNE RD                       000N        CARE OF             
MTR04802000001000000000000000RA              48596865    005800110000001100000520000003NN  NNW 000                       N    
RDG04802000WATRL000000004K00000000000000865001902272015092159N000000000000N40       001910400K 10000000010000000857           
CUS0480200000104061630002         INGRASSIA VINCENT F 3327 PARKTOWNE RD                       000N        CARE OF             
MTR04802000001000000000000000RA              24771874    005800120000001200000520000003NN  NNW 000                       N    
RDG04802000WATRL000000004K00000000000003821001802272015091848N000000000000N40       004100400K 10000000010000003808           
CUS0480200000104061631000         LORDEN RAYMOND C,JR 3316 PARKTOWNE RD                       000N        CARE OF             
MTR04802000001000000000000000RA              01096591    005800130000001300000610000003NN  NNW 000                       N    
RDG04802000WATRL000000004K00000000000000882001502272015090316N000000000000N40       003300400K 10000000010000000866           
CUS0480200000104061632008         BAKER FRANCIS B     3314 PARKTOWNE RD                       000N        CARE OF             
MTR04802000001000000000000000RA              26015212    005800140000001400000520000003NN  NNW 000                       N    
RDG04802000WATRL000000004K00000000000004147001202272015085048N000000000000N40       001330400K 10000000010000004140           
CUS0480200000104061633006         SERVELLE JOHN B     3312 PARKTOWNE RD                       000N        CARE OF             
MTR04802000001000000000000000RA              36687830    005800150000001500000520000003NN  NNW 000                       N    
RDG04802000WATRL000000004K00000000000000939001102272015084835N000000000000N40       002730400K 10000000010000000931           
CUS0480200000104061634004         COURTNEY VALERIE TYL3310 PARKTOWNE RD                       000N        CARE OF             
MTR04802000001000000000000000RA              00137541    005800160000001600000570000003NN  NNW 000                       N    
RDG04802000WATRL000000004K00000000000001631000902272015083805N000000000000N40       001850400K 10000000010000001617           
CUS0480200000104061635001         ROSA MARIA FUSCO    3308 PARKTOWNE RD                       000N        CARE OF             
MTR04802000001000000000000000RA              54350644    005800170000001700000520000003NN  NNW 000                       N    
RDG04802000WATRL000000004K00000000000000550000802272015083500N000000000000N40       001220400K 10000000010000000538           
CUS0480200000104061636009         LEO CYNTHIA L       3306 PARKTOWNE RD                       000N        CARE OF             
MTR04802000001000000000000000RA              40049414    005800180000001800000520000003NN  NNW 000                       N    
RDG04802000WATRL000000004K00000000000002182000402272015080309N000000000000N40       003230400K 10000000010000002161           
CUS0480200000104061637007         RAVER MILDRED       3304 PARKTOWNE RD                       000N        CARE OF             
MTR04802000001000000000000000RA              24772791    005800190000001900000520000003NN  NNW 000                       N    
RDG04802000WATRL000000004K00000000000003231000102272015074445N000000000000N40       000000400K 10000000010000003218           
CUS0480200000104061638005         MONGEON CAMILLE     8315 AVONDALE RD                        000N        CARE OF             
MTR04802000001000000000000000RA              01078392    005800200000002000000610000003NN  NNW 000                       N    
RDG04802000WATRL000000004K00000000000001195002202272015094119N000000000000N40       000040400K 10000000010000001173           
CUS0480200000104061639003         LINK CHRISTINA R    8317 AVONDALE RD                        000N        CARE OF             
MTR04802000001000000000000000RA              40048311    005800210000002100000520000003NN  NNW 000                       N    
RDG04802000WATRL000000004K00000000000002220002102272015094115N000000000000N40       004510400K 10000000010000002207           
CUS0480200000104061640001         JONES WALTER B      8319 AVONDALE RD                        000N        CARE OF             
MTR04802000001000000000000000RA              48586978    005800220000002200000520000003NN  NNW 000                       N    
RDG04802000WATRL000000004K00000000000001335002002272015093344N000000000000N40       007050400K 10000000010000001304           
CUS0480200000104061641009         HUBER MARY D        8321 AVONDALE RD                        000N        CARE OF             
MTR04802000001000000000000000RA              01096612    005800230000002300000610000003NN  NNW 000                       N    
RDG04802000WATRL000000004K00000000000000349002302272015094426N000000000000N40       001870400K 10000000010000000339           
CUS0480200000104061642007         PHIPPS JAMES H      3305 TEXAS AVE                          000N        CARE OF             
MTR04802000001000000000000000RA              01090448    005800240000002400000610000003NN  NNW 000                       N    
RDG04802000WATRL000000004K00000000000000827002402272015095352N000000000000N40       005660400K 10000000010000000812           
CUS0480200000104061643005         FITZGERALD CARROLL L3307 TEXAS AVE                          000N        CARE OF             
MTR04802000001000000000000000RA              44178970    005800250000002500000520000003NN  NNW 000                       N    
RDG04802000WATRL000000004K00000000000001781002502272015100122N000000000000N40       004500400K 10000000010000001765           
CUS0480200000104061644003         WEBER FLORENCE M    3309 TEXAS AVE                          000N        CARE OF             
MTR04802000001000000000000000RA              40049589    005800260000002600000520000003NN  NNW 000                       N    
RDG04802000WATRL000000004K00000000000003413002602272015100819N000000000000N40       004170400K 10000000010000003395           
CUS0480200000104061645000         FERRY ROSE MARIE    3311 TEXAS AVE                          000N        CARE OF             
MTR04802000001000000000000000RA              14909525    005800270000002700000310000003NN  NNW 000                       N    
RDG04802000WATRL000000004K00000000000000316002702272015101034N000000000000N40       001350400K 10000000010000000305           
CUS0480200000104061646008         CUMMINGS SUSAN M    3313 TEXAS AVE                          000N        CARE OF             
MTR04802000001000000000000000RA              75618231    005800280000002800000350000003NN  NNW 000                       N    
RDG04802000WATRL000000004K00000000000000088002802272015101604N000000000000N40       003300400K 10000000010000000071           
CUS0480200000104061647006         BOYLE PAMELA A      3315 TEXAS AVE                          000N        CARE OF             
MTR04802000001000000000000000RA              10014880    005800290000002900000570000003NN  NNW 000                       N    
RDG04802000WATRL000000004K00000000000000295003102272015102705N000000000000N40       003080400K 10000000010000000269           
CUS0480200000104061648004         SIMMS JAMES J,JR    3317 TEXAS AVE                          000N        CARE OF             
MTR04802000001000000000000000RA              74690367    005800300000003000000350000003NN  NNW 000                       N    
RDG04802000WATRL000000004K00000000000000808003502272015111720N000000000010N40       002640400K 10000000010000000806           
CUS0480200000104061649002         KEVIN P. RYAN       3318 PARKTOWNE RD                       000N        CARE OF             
MTR04802000001000000000000000RA              26000847    005800310000003100000520000003NN  NNW 000                       N    
RDG04802000WATRL000000004K00000000000002439003602272015112220N000000000000N40       003000400K 10000000010000002417           
CUS0480200000104061650000         SCHUDEL ROBERT L    3329 PARKTOWNE RD                       000N        CARE OF             
MTR04802000001000000000000000RA              01096611    005800320000003200000610000003NN  NNW 000                       N    
RDG04802000WATRL000000004K00000000000001275003702272015112735N000000000000N40       003150400K 10000000010000001247           
CUS0480200000104061651008         BERENGER HARVEY W/DO3323 TEXAS AVE                          000N        CARE OF             
MTR04802000001000000000000000RA              52770272    005800330000003300000520000003NN  NNW 000                       N    
RDG04802000WATRL000000004K00000000000000976003802272015112939N000000000000N40       001240400K 10000000010000000967           
CUS0480200000104061652006         SEYMOUR PHYLLIS A   3325 TEXAS AVE                          000N        CARE OF             
MTR04802000001000000000000000RA              9691201     005800340000003400000570000003NN  NNW 000                       N    
RDG04802000WATRL000000004K00000000000004207003902272015113335N000300000010N40       002360400K 10000000010000004190           
CUS0480200000104061653004         MEEKINS DOUGLAS H   3327 TEXAS AVE                          000N        CARE OF             
MTR04802000001000000000000000RA              23054574    005800350000003500000520000003NN  NNW 000                       N    
RDG04802000WATRL000000004K00000000000005569004002272015114201N000000000000N40       005060400K 10000000010000005555           
CUS0480200000104061654002         HARRIS ALLEN        3329 TEXAS AVE                          000N        CARE OF             
MTR04802000001000000000000000RA              25783347    005800360000003600000520000003NN  NNW 000                       N    
RDG04802000WATRL000000004K00000000000003448004102272015114204N000000000000N40       000030400K 10000000010000003429           
CUS0480200000104061655009         BONNIE GRUBBS       3331 TEXAS AVE                          000N        CARE OF             
MTR04802000001000000000000000RA              27829411    005800370000003700000520000003NN  NNW 000                       N    
RDG04802000WATRL000000004K00000000000001892004202272015114840N000000000000N40       003960400K 10000000010000001878           
CUS0480200000104061656007         PAUGH-JOHNSON JESSIC3333 TEXAS AVE                          000N        CARE OF             
MTR04802000001000000000000000RA              46882428    005800380000003800000520000003NN  NNW 000                       N    
RDG04802000WATRL000000004K00000000000000966004302272015115424N000000000000N40       003440400K 10000000010000000935           
CUS0480200000104061657005         FLEMING EUGENE B    3335 TEXAS AVE                          000N        CARE OF             
MTR04802000001000000000000000RA              44179130    005800390000003900000520000003NN  NNW 000                       N    
RDG04802000WATRL000000004K00000000000001923004402272015115755N000000000000N40       002110400K 10000000010000001906           
CUS0480200000104061658003         FINN PATRICIA A     3337 TEXAS AVE                          000N        CARE OF             
MTR04802000001000000000000000RA              29681296    005800400000004000000520000003NN  NNW 000                       N    
RDG04802000WATRL000000004K00000000000002761004502272015121344N000000000010N40       009490400K 10000000010000002752           
CUS0480200000104061659001         PALMERI JOYCE LYNN  3339 TEXAS AVE                          000N        CARE OF             
MTR04802000001000000000000000RA              01072686    005800410000004100000610000003NY  NNW 000                       N    
MTM0480200001072686    VAC                                                                                                    
RDG04802000WATRL000000004K00000000000000419004602272015121659N000300000010N40       001950400K 10000000010000000494           
CUS0480200000104061661007         EVERD DENNIS S      3346 TEXAS AVE                          000N        CARE OF             
MTR04802000001000000000000000RA              44179133    005800420000004200000520000003NN  NNW 000                       N    
RDG04802000WATRL000000004K00000000000001668004702272015122453N000000000000N40       004740400K 10000000010000001649           
CUS0480200000104061662005         JAROSZ JONAH        3344 TEXAS AVE                          000N        CARE OF             
MTR04802000001000000000000000RA              44179129    005800430000004300000520000003NN  NNW 000                       N    
RDG04802000WATRL000000004K00000000000002740004802272015122613N000000000000N40       000800400K 10000000010000002724           
CUS0480200000104061663003         ROCK PETER ROBERT   3342 TEXAS AVE                          000N        CARE OF             
MTR04802000001000000000000000RA              44179128    005800440000004400000520000003NN  NNW 000                       N    
RDG04802000WATRL000000004K00000000000002515004902272015122845N000000000000N40       001520400K 10000000010000002497           
CUS0480200000104061664001         LAWRENCE JEFFREY A  3340 TEXAS AVE                          000N        CARE OF             
MTR04802000001000000000000000RA              29681324    005800450000004500000520000003NN  NNW 000                       N    
RDG04802000WATRL000000004K00000000000003243005002272015122848N000000000000N40       000030400K 10000000010000003218           
CUS0480200000104061665008         CAUSEY WILLIAMD,JR  3338 TEXAS AVE                          000N        CARE OF             
MTR04802000001000000000000000RA              38887717    005800460000004600000520000003NN  NNW 000                       N    
RDG04802000WATRL000000004K00000000000003334005102272015123524N000000000000N40       003960400K 10000000010000003280           
CUS0480200000104061666006         BAUMAN WILLIAM J,3RD3336 TEXAS AVE                          000N        CARE OF             
MTR04802000001000000000000000RA              44175586    005800470000004700000520000003NN  NNW 000                       N    
RDG04802000WATRL000000004K00000000000003124005202272015123527N000000000000N40       000030400K 10000000010000003099           
CUS0480200000104061667004         WANNER ROBERT W     3334 TEXAS AVE                          000N        CARE OF             
MTR04802000001000000000000000RA              52770417    005800480000004800000520000003NN  NNW 000                       N    
RDG04802000WATRL000000004K00000000000000996005302272015123959N000000000000N40       002720400K 10000000010000000981           
CUS0480200000104061668002         BEINKE GEORGE EMIL  3332 TEXAS AVE                          000N        CARE OF             
MTR04802000001000000000000000RA              35104556    005800490000004900000520000003NN  NNW 000                       N    
RDG04802000WATRL000000004K00000000000001755005402272015124546N000000000000N40       003470400K 10000000010000001730           
CUS0480200000104061669000         HAMILTON CARL E     3330 TEXAS AVE                          000N        CARE OF             
MTR04802000001000000000000000RA              38887327    005800500000005000000520000003NN  NNW 000                       N    
RDG04802000WATRL000000004K00000000000002674005502272015124552N000400000010N40       000060400K 10000000010000002670           
CUS0480200000104061670008         SEIDL MARK PAUL     3328 TEXAS AVE                          000N        CARE OF             
MTR04802000001000000000000000RA              01072687    005800510000005100000610000003NN  NNW 000                       N    
RDG04802000WATRL000000004K00000000000001339005602272015124747N000000000000N40       001150400K 10000000010000001316           
CUS0480200000104061671006         PROVENZANO CANDACE D3326 TEXAS AVE                          000N        CARE OF             
MTR04802000001000000000000000RA              30514705    005800520000005200000520000003NN  NNW 000                       N    
RDG04802000WATRL000000004K00000000000002651005702272015125059N000000000000N40       001920400K 10000000010000002618           
CUS0480200000104061672004         RIENZI GREGORY J    3324 TEXAS AVE                          000N        CARE OF             
MTR04802000001000000000000000RA              30514231    005800530000005300000520000003NN  NNW 000                       N    
RDG04802000WATRL000000004K00000000000002392005802272015125327N000000000000N40       001480400K 10000000010000002367           
CUS0480200000104061673002         HARTMANN ROBERT A   3322 TEXAS AVE                          000N        CARE OF             
MTR04802000001000000000000000RA              01072615    005800540000005400000610000003NN  NNW 000                       N    
RDG04802000WATRL000000004K00000000000001786005902272015125331N000000000000N40       000040400K 10000000010000001748           
CUS0480200000104061674000         TOUCHTONE LYNETTE V 3320 TEXAS AVE                          000N        CARE OF             
MTR04802000001000000000000000RA              01072685    005800550000005500000610000003NN  NNW 000                       N    
RDG04802000WATRL000000004K00000000000000382006002272015125517N000000000000N40       001060400K 10000000010000000371           
CUS0480200000104061675007         GANDINI DOROTHY M B 3318 TEXAS AVE                          000N        CARE OF             
MTR04802000001000000000000000RA              01072616    005800560000005600000610000003NN  NNW 000                       N    
RDG04802000WATRL000000004K00000000000000420003402272015111256N000000000000N40       004250400K 10000000010000000412           
CUS0480200000104061676005         JONES MARY V        3316 TEXAS AVE                          000N        CARE OF             
MTR04802000001000000000000000RA              14922148    005800570000000000010310000003NN  NNW 000                       N    
RDG04802000WATRL000000004K00000000000000000003300000000000000 000000000000U         000000400  10000000010000000807           
CUS0480200000104061677003         CAIN ROBERT F/JOAN M3314 TEXAS AVE                          000N        CARE OF             
MTR04802000001000000000000000RA              10007324    005800580000005800000570000003NN  NNW 000                       N    
RDG04802000WATRL000000004K00000000000000178003202272015103247N000000000000N40       003420400K 10000000010000000178           
CUS0480200000104061678001         WINEBRENNER CHARLES 3312 TEXAS AVE                          000N        CARE OF             
MTR04802000001000000000000000RA              29402937    005800590000005900000520000003NN  NNW 000                       N    
RDG04802000WATRL000000004K00000000000001596003002272015102157N000000000000N40       002790400K 10000000010000001596           
CUS0480200000104061679009         PULLIAM JASON ROBERT3310 TEXAS AVE                          000N        CARE OF             
MTR04802000001000000000000000RA              54350023    005800600000006000000520000003NN  NNW 000                       N    
RDG04802000WATRL000000004K00000000000001094002902272015101718N000000000000N40       000740400K 10000000010000001055           
CUS0480200000104061680007         ZELLINGER JAMIE     3308 TEXAS AVE                          000N        CARE OF             
MTR04802000001000000000000000RA              01102536    005800610000006100000610000003NN  NNW 000                       N    
RDG04802000WATRL000000004K00000000000001089006102272015125935N000000000000N40       002580400K 10000000010000001052           
CUS0480200000104061681005         ERNEST THOMAS R     3306 TEXAS AVE                          000N        CARE OF             
MTR04802000001000000000000000RA              48595109    005800620000006200000520000003NN  NNW 000                       N    
RDG04802000WATRL000000004K00000000000001337006202272015130332N000000000000N40       002370400K 10000000010000001322           
CUS0480200000104061682003         RECH RICHARD,TRUSTEE3304 TEXAS AVE                          000N        CARE OF             
MTR04802000001000000000000000RA              32903752    005800630000006300000520000003NN  NNW 000                       N    
RDG04802000WATRL000000004K00000000000003574006302272015130853N000000000000N40       003210400K 10000000010000003552           
CUS0480200000104061683001         ANDRESE PAULA L     8401 AVONDALE RD                        000N        CARE OF             
MTR04802000001000000000000000RA              99288723    005800640000006400000570000003NY  NNW 000                       N    
MTM0480200099288723    ICE                                                                                                    
RDG04802000WATRL000000004K00000000000000000000000000000000000 000000000000U         000000400  10000000010000000623           
CUS0480200000104061684009         PHIPPS HERBERT L    8403 AVONDALE RD                        000N        CARE OF             
MTR04802000001000000000000000RA              26015076    005800650000006500000520000003NN  NNW 000                       N    
RDG04802000WATRL000000004K00000000000002921000102282015084214N000000000000U40       000000400K 10000000010000002915           
CUS0480200000104061685006         IBRAHIM MOHAMMED    3301 ACTON RD                           000N        CARE OF             
MTR04802000001000000000000000RA              40781564    005800660000006600000520000003NN  NNW 000                       N    
RDG04802000WATRL000000004K00000000000002868000202282015084953N000000000000U40       004590400K 10000000010000002841           
CUS0480200000104061686004         GOWER EDWARD J,SR   3305 ACTON RD                           000N        CARE OF             
MTR04802000001000000000000000RA              10003253    005800670000006700000570000003NN  NNW 000                       N    
RDG04802000WATRL000000004K00000000000000231001202282015090825N000000000000U40       000770400K 10000000010000000224           
CUS0480200000104061687002         LANCASTER TRUMAN O  3307 ACTON RD                           000N        CARE OF             
MTR04802000001000000000000000RA              35111073    005800680000006800000520000003NN  NNW 000                       N    
RDG04802000WATRL000000004K00000000000000919000302282015085440N000000000000U40       002870400K 10000000010000000919           
CUS0480200000104061688000         COFIELL BRIAN J     3309 ACTON RD                           000N        CARE OF             
MTR04802000001000000000000000RA              23644232    005800690000006900000520000003NN  NNW 000                       N    
RDG04802000WATRL000000004K00000000000001891000402282015085522N000000000000U40       000420400K 10000000010000001886           
CUS0480200000104061689008         MOONEY TERRANCE M   3311 ACTON RD                           000N        CARE OF             
MTR04802000001000000000000000RA              01072682    005800700000007000000610000003NN  NNW 000                       N    
RDG04802000WATRL000000004K00000000000001854000502282015085621N000000000000U40       000590400K 10000000010000001823           
CUS0480200000104061690006         ROBERT & NANCY POWER3313 ACTON RD                           000N        CARE OF             
MTR04802000001000000000000000RA              14915716    005800710000007100000310000003NY  NNW 000                       N    
MTM0480200014915716    VAC                                                                                                    
RDG04802000WATRL000000004K00000000000000310001302282015091152N000000000010U40       002070400K 10000000010000000308           
CUS0480200000104061691004         PEARCE JAMES E      3315 ACTON RD                           000N        CARE OF             
MTR04802000001000000000000000RA              24226151    005800720000007200000520000003NN  NNW 000                       N    
RDG04802000WATRL000000004K00000000000003107001402282015091244N000000000000U40       000520400K 10000000010000003093           
CUS0480200000104061692002         KUTZ FRED DAVID     3317 ACTON RD                           000N        CARE OF             
MTR04802000001000000000000000RA              32178269    005800730000007300000520000003NN  NNW 000                       N    
RDG04802000WATRL000000004K00000000000001913001502282015091341N000000000000U40       000570400K 10000000010000001907           
CUS0480200000104061693000         TAYLOR JOHN D  TAYLO3319 ACTON RD                           000N        CARE OF             
MTR04802000001000000000000000RA              33079770    005800740000007400000520000003NN  NNW 000                       N    
RDG04802000WATRL000000004K00000000000002004001602282015091427N000000000000U40       000460400K 10000000010000001985           
CUS0480200000104061694008         PUSKAR APRIL M      3321 ACTON RD                           000N        CARE OF             
MTR04802000001000000000000000RA              44176208    005800750000007500000520000003NN  NNW 000                       N    
RDG04802000WATRL000000004K00000000000001372001702282015091511N000000000000U40       000440400K 10000000010000001356           
CUS0480200000104061695005         DEPIETRO RHONDA L   3323 ACTON RD                           000N        CARE OF             
MTR04802000001000000000000000RA              14923211    005800760000007600000310000003NN  NNW 000                       N    
RDG04802000WATRL000000004K00000000000001723001802282015091605N000000000000U40       000540400K 10000000010000001671           
CUS0480200000104061696003         MEYER RICHARD J     3325 ACTON RD                           000N        CARE OF             
MTR04802000001000000000000000RA              46876307    005800770000007700000520000003NN  NNW 000                       N    
RDG04802000WATRL000000004K00000000000001954002302282015093227N000000000000U40       005610400K 10000000010000001927           
CUS0480200000104061697001         BLOODSWORTH STEVE L 3327 ACTON RD                           000N        CARE OF             
MTR04802000001000000000000000RA              23055233    005800780000007800000520000003NN  NNW 000                       N    
RDG04802000WATRL000000004K00000000000004808002402282015093321N000000000000U40       000540400K 10000000010000004784           
CUS0480200000104061698009         SOUTAR JAMES A W    3329 ACTON RD                           000N        CARE OF             
MTR04802000001000000000000000RA              9691058     005800790000007900000570000003NN  NNW 000                       N    
RDG04802000WATRL000000004K00000000000004000002502282015093358N000000000000U40       000370400K 10000000010000004000           
CUS0480200000104061699007         MYERS JEFFREY G     3331 ACTON RD                           000N        CARE OF             
MTR04802000001000000000000000RA              35114053    005800800000008000000520000003NN  NNW 000                       N    
RDG04802000WATRL000000004K00000000000003085002602282015093443N000000000000U40       000450400K 10000000010000003051           
CUS0480200000104061700003         FRANCOISE BRIAN A   3333 ACTON RD                           000N        CARE OF             
MTR04802000001000000000000000RA              44087311    005800810000008100000520000003NN  NNW 000                       N    
RDG04802000WATRL000000004K00000000000002541002702282015093519N000000000000U40       000360400K 10000000010000002525           
CUS0480200000104061701001         BAUMER DOROTHY LOUIS3335 ACTON RD                           000N        CARE OF             
MTR04802000001000000000000000RA              23055250    005800820000008200000520000003NN  NNW 000                       N    
RDG04802000WATRL000000004K00000000000003899003302282015095230N000000000000U40       001420400K 10000000010000003886           
CUS0480200000104061702009         PALMERINO RICKY H   3337 ACTON RD                           000N        CARE OF             
MTR04802000001000000000000000RA              33735774    005800830000008300000520000003NN  NNW 000                       N    
RDG04802000WATRL000000004K00000000000004126003402282015095316N000300000010U40       000460400K 10000000010000004099           
CUS0480200000104061703007         PETER W LAHOURCADE  3339 ACTON RD                           000N        CARE OF             
MTR04802000001000000000000000RA              26009421    005800840000008400000520000003NN  NNW 000                       N    
RDG04802000WATRL000000004K00000000000004837003502282015095417N000000000000U40       000610400K 10000000010000004818           
CUS0480200000104061704005         KELLY MICHAEL J     3341 ACTON RD                           000N        CARE OF             
MTR04802000001000000000000000RA              23056751    005800850000008500000520000003NN  NNW 000                       N    
RDG04802000WATRL000000004K00000000000006389003602282015095549N000000000000U40       000920400K 10000000010000006389           
CUS0480200000104061705002         PARKER WILLIAM W    3343 ACTON RD                           000N        CARE OF             
MTR04802000001000000000000000RA              10003132    005800860000008600000570000003NY  NNW 000                       N    
MTM0480200010003132    ICE                                                                                                    
RDG04802000WATRL000000004K00000000000000000000000000000000000 000000000000U         000000400  10000000010000000242           
CUS0480200000104061706000         HORNICK ERNEST J    3345 ACTON RD                           000N        CARE OF             
MTR04802000001000000000000000RA              44086078    005800870000008700000520000003NN  NNW 000                       N    
RDG04802000WATRL000000004K00000000000001447004302282015100805N000000000000U40       000360400K 10000000010000001439           
CUS0480200000104061707008         BAKER HELEN S       3347 ACTON RD                           000N        CARE OF             
MTR04802000001000000000000000RA              40322656    005800880000008800000520000003NN  NNW 000                       N    
RDG04802000WATRL000000004K00000000000000760004202282015100729N000000000000U40       000840400K 10000000010000000751           
CUS0480200000104061708006         RASPA MATTHEW F     3349 ACTON RD                           000N        CARE OF             
MTR04802000001000000000000000RA              22607901    005800890000008900000520000003NN  NNW 000                       N    
RDG04802000WATRL000000004K00000000000002220004102282015100605N000000000000U40       003240400K 10000000010000002202           
CUS0480200000104061709004         MARTIN DEREK J      8221 GLEN RD                            000N        CARE OF             
MTR04802000001000000000000000RA              44177176    005800900000009000000520000003NY  NNW 000                       N    
MTM0480200044177176    ICE                                                                                                    
RDG04802000WATRL000000004K00000000000000000000000000000000000 000000000000U         000000400  10000000010000002104           
CUS0480200000104061710002         PEARCE PATRICIA A   3403 ACTON RD                           000N        CARE OF             
MTR04802000001000000000000000RA              45387241    005800910000009100000520000003NY  NNW 000                       N    
MTM0480200045387241    ICE                                                                                                    
RDG04802000WATRL000000004K00000000000000000000000000000000000 000000000000U         000000400  10000000010000002569           
CUS0480200000104061711000         YANG YOU HUI        3405 ACTON RD                           000N        CARE OF             
MTR04802000001000000000000000RA              23648020    005800920000009200000520000003NN  NNW 000                       N    
RDG04802000WATRL000000004K00000000000005026004602282015102803N000000000000U40       006540400K 10000000010000005013           
CUS0480200000104061712008         FINKE SOPHIE M      3407 ACTON RD                           000N        CARE OF             
MTR04802000001000000000000000RA              00129997    005800930000009300000570000003NN  NNW 000                       N    
RDG04802000WATRL000000004K00000000000001379004702282015103235N000000000000U40       002720400K 10000000010000001379           
CUS0480200000104061713006         PAYNE HAROLD F      3409 ACTON RD                           000N        CARE OF             
MTR04802000001000000000000000RA              48591370    005800940000009400000520000003NN  NNW 000                       N    
RDG04802000WATRL000000004K00000000000001474004802282015103909N000000000000U40       003940400K 10000000010000001452           
CUS0480200000104061714004         BENKOWSKI BERNARD E,3411 ACTON RD                           000N        CARE OF             
MTR04802000001000000000000000RA              36693987    005800950000009500000520000003NN  NNW 000                       N    
RDG04802000WATRL000000004K00000000000003449004902282015104543N000000000000U40       003940400K 10000000010000003441           
CUS0480200000104061715001         SWAGLER MARY ELLEN  3413 ACTON RD                           000N        CARE OF             
MTR04802000001000000000000000RA              01072689    005800960000009600000610000003NN  NNW 000                       N    
RDG04802000WATRL000000004K00000000000000611005002282015104546N000000000000U40       000030400K 10000000010000000600           
CUS0480200000104061716009         DORSEY ALLAN C      3415 ACTON RD                           000N        CARE OF             
MTR04802000001000000000000000RA              52768086    005800970000009700000520000003NN  NNW 000                       N    
RDG04802000WATRL000000004K00000000000001423005102282015105306N000000000000U40       004400400K 10000000010000001408           
CUS0480200000104061717007         MUELLER WALTER L    3417 ACTON RD                           000N        CARE OF             
MTR04802000001000000000000000RA              41589416    005800980000009800000520000003NN  NNW 000                       N    
RDG04802000WATRL000000004K00000000000003680005202282015110018N000000000000U40       004320400K 10000000010000003670           
CUS0480200000104061718005         GENTILE PHILLIP A   3419 ACTON RD                           000N        CARE OF             
MTR04802000001000000000000000RA              01072684    005800990000009900000610000003NN  NNW 000                       N    
RDG04802000WATRL000000004K00000000000001440005302282015110504N000000000000U40       002860400K 10000000010000001427           
CUS0480200000104061730000         DIDONATO ROBERT     3429 ACTON RD                           000N        CARE OF             
MTR04802000001000000000000000RA              23054491    005801000000010000000520000003NN  NNW 000                       N    
RDG04802000WATRL000000004K00000000000005574006402282015123850N000000000000U40       002580400K 10000000010000005551           
CUS0480200000104061731008         MILLER KENNETH C,SR 3431 ACTON RD                           000N        CARE OF             
MTR04802000001000000000000000RA              44173119    005801010000010100000520000003NN  NNW 000                       N    
RDG04802000WATRL000000004K00000000000002774006502282015124304N000000000000U40       002540400K 10000000010000002749           
CUS0480200000104061719003         MILONAS KILMON      3501 LOSRAC CT                          000N        CARE OF             
MTR04802000001000000000000000RA              23054481    005801020000010200000520000003NN  NNW 000                       N    
RDG04802000WATRL000000004K00000000000004640005402282015121103N000000000000U40       039590400K 10000000010000004622           
CUS0480200000104061720001         MILLS ROBERT A      3503 LOSRAC CT                          000N        CARE OF             
MTR04802000001000000000000000RA              44091704    005801030000010300000520000003NY  NNW 000                       N    
MTM0480200044091704    VAC                                                                                                    
RDG04802000WATRL000000004K00000000000002810005502282015121348N000400000010U40       001650400K 10000000010000002803           
CUS0480200000104061721009         ROBERT M TESTERMAN  3505 LOSRAC CT                          000N        CARE OF             
MTR04802000001000000000000000RA              01072688    005801040000010400000610000003NN  NNW 000                       N    
RDG04802000WATRL000000004K00000000000002201005602282015121715N000000000000U40       002070400K 10000000010000002176           
CUS0480200000104061722007         WHEAT SUSAN B       3507 LOSRAC CT                          000N        CARE OF             
MTR04802000001000000000000000RA              23054654    005801050000010500000520000003NN  NNW 000                       N    
RDG04802000WATRL000000004K00000000000005446005702282015121930N000000000000U40       001350400K 10000000010000005429           
CUS0480200000104061723005         ROBERT G WEDGE      3509 LOSRAC CT                          000N        CARE OF             
MTR04802000001000000000000000RA              01072680    005801060000010600000610000003NN  NNW 000                       N    
RDG04802000WATRL000000004K00000000000001410005802282015122320N000000000000U40       002300400K 10000000010000001380           
CUS0480200000104061724003         LEAGUE KATHLEEN W   3511 LOSRAC CT                          000N        CARE OF             
MTR04802000001000000000000000RA              29680330    005801070000010700000520000003NN  NNW 000                       N    
RDG04802000WATRL000000004K00000000000002369005902282015122630N000000000000U40       001900400K 10000000010000002356           
CUS0480200000104061725000         OLIVER GENEVA K  OLI3514 LOSRAC CT                          000N        CARE OF             
MTR04802000001000000000000000RA              24772787    005801080000010800000520000003NY  NNW 000                       N    
MTM0480200024772787    ICE                                                                                                    
RDG04802000WATRL000000004K00000000000000000000000000000000000 000000000000U         000000400  10000000010000002959           
CUS0480200000104061726008         OSMEYER ROBERT      3512 LOSRAC CT                          000N        CARE OF             
MTR04802000001000000000000000RA              2305842     005801090000010900000520000003NN  NNW 000                       N    
RDG04802000WATRL000000004K00000000000003308006002282015122900N000000000000U40       001500400K 10000000010000003279           
CUS0480200000104061727006         FRANZONI CHARLES G  3510 LOSRAC CT                          000N        CARE OF             
MTR04802000001000000000000000RA              45379328    005801100000011000000520000003NN  NNW 000                       N    
RDG04802000WATRL000000004K00000000000002168006102282015122934N000000000000U40       000340400K 10000000010000002146           
CUS0480200000104061728004         LEOS JOHN A         3508 LOSRAC CT                          000N        CARE OF             
MTR04802000001000000000000000RA              24772790    005801110000011100000520000003NN  NNW 000                       N    
RDG04802000WATRL000000004K00000000000005688006202282015123104N000000000000U40       000900400K 10000000010000005672           
CUS0480200000104061729002         EURICH CATHERINE E  3506 LOSRAC CT                          000N        CARE OF             
MTR04802000001000000000000000RA              23054622    005801120000011200000520000003NN  NNW 000                       N    
RDG04802000WATRL000000004K00000000000003605006302282015123432N000000000000U40       002080400K 10000000010000003582           
CUS0480200000104061740009         SCHUERHOLZ W J,JR   3402 ACTON RD                           000N        CARE OF             
MTR04802000001000000000000000RA              41590533    005801130000011300000520000003NN  NNW 000                       N    
RDG04802000WATRL000000004K00000000000002944006602282015133152N000000000011U40       004410400K 10000000010000002932           
CUS0480200000104061739001         ALLEN CAROL A (KESSL3404 ACTON RD                           000N        CARE OF             
MTR04802000001000000000000000RA              01072798    005801140000011400000610000003NN  NNW 000                       N    
RDG04802000WATRL000000004K00000000000000941007402282015132431N000000000000U40       002450400K 10000000010000000922           
CUS0480200000104061738003         TROSKA FRANK        3406 ACTON RD                           000N        CARE OF             
MTR04802000001000000000000000RA              10019341    005801150000011500000570000003NN  NNW 000                       N    
RDG04802000WATRL000000004K00000000000000085007302282015132026N000000000000U40       002880400K 10000000010000000078           
CUS0480200000104061734002         CHENOWITH CHARLES C 3 STANROCK CT                           000N        CARE OF             
MTR04802000001000000000000000RA              10006729    005801160000011600000570000003NY  NNW 000                       N    
MTM0480200010006729    ICE                                                                                                    
RDG04802000WATRL000000004K00000000000000000000000000000000000 000000000000U         000000400  10000000010000000355           
CUS0480200000104061735009         ZHU YING HAO        5 STANROCK CT                           000N        CARE OF             
MTR04802000001000000000000000RA              35107315    005801170000011700000520000003NN  NNW 000                       N    
RDG04802000WATRL000000004K00000000000003911006902282015130437N000000000000U40       002590400K 10000000010000003874           
CUS0480200000104061736007         YING HAO ZHU        6 STANROCK CT                           000N        CARE OF             
MTR04802000001000000000000000RA              23054995    005801180000011800000520000003NN  NNW 000                       N    
RDG04802000WATRL000000004K00000000000005297007002282015130908N000000000010U40       002710400K 10000000010000005296           
CUS0480200000104061737005         MILAM RICHARD,2ND   3408 ACTON RD                           000N        CARE OF             
MTR04802000001000000000000000RA              14921831    005801190000011900000310000003NN  NNW 000                       N    
RDG04802000WATRL000000004K00000000000000978007202282015131538N000000000000U40       002410400K 10000000010000000945           
CUS0480200000104061733004         THOMAS GEORGE W     3416 ACTON RD                           000N        CARE OF             
MTR04802000001000000000000000RA              23054634    005801200000012000000520000003NN  NNW 000                       N    
RDG04802000WATRL000000004K00000000000005946006802282015130018N000000000000U40       007150400K 10000000010000005932           
CUS0480200000104061732006         RICCI MARGARET A    3418 ACTON RD                           000N        CARE OF             
MTR04802000001000000000000000RA              23054474    005801210000012100000520000003NY  NNW 000                       N    
MTM0480200023054474    FROZEN                                                                                                 
RDG04802000WATRL000000004K00000000000000000000000000000000000 000000000000U         000000400  10000000010000005034           
CUS0480200000106444016007         KIAMKO CINDY C      3420 ACTON RD                           000N        CARE OF             
MTR04802000001000000000000000RA              10019512    005801220000012200000570000003NN  NNW 000                       N    
RDG04802000WATRL000000004K00000000000000078006702282015124823N000000000000U40       001190400K 10000000010000000072           
CUS0480200000104404389001         WATSON CHARLES H,JR 3422 ACTON RD                           000N        CARE OF             
MTR04802000001000000000000000RA              42810132    005801230000012300000520000003NN  NNW 000                       N    
RDG04802000WATRL000000004K00000000000003792007102282015131137N000300000010U40       001490400K 10000000010000003775           
CUS0480200000104061741007         MARKLAND ROBERT HENR3346 ACTON RD                           000N        CARE OF             
MTR04802000001000000000000000RA              50481898    005801240000012400000520000003NN  NNW 000                       N    
RDG04802000WATRL000000004K00000000000001261004502282015101709N000000000000U40       003600400K 10000000010000001249           
CUS0480200000104061742005         LOBRIDO GLADYS G    3344 ACTON RD                           000N        CARE OF             
MTR04802000001000000000000000RA              14912300    005801250000012500000310000003NY  NNW 000                       N    
MTM0480200014912300    ICE                                                                                                    
RDG04802000WATRL000000004K00000000000000000000000000000000000 000000000000U         000000400  10000000010000000847           
CUS0480200000104061743003         BAVIS NORMAN F,JR   3342 ACTON RD                           000N        CARE OF             
MTR04802000001000000000000000RA              00137770    005801260000012600000570000003NN  NNW 000                       N    
RDG04802000WATRL000000004K00000000000000847004402282015101109N000000000000U40       001840400K 10000000010000000835           
CUS0480200000104061744001         PRIBYL ANN F        3340 ACTON RD                           000N        CARE OF             
MTR04802000001000000000000000RA              74690427    005801270000012700000350000003NN  NNW 000                       N    
RDG04802000WATRL000000004K00000000000000146003702282015095652N000000000000U40       000630400K 10000000010000000121           
CUS0480200000104061745008         JANET ELIZABETH DAVI3338 ACTON RD                           000N        CARE OF             
MTR04802000001000000000000000RA              74688690    005801280000012800000350000003NN  NNW 000                       N    
RDG04802000WATRL000000004K00000000000000183003802282015095805N000300000010U40       000730400K 10000000010000000122           
CUS0480200000104061746006         MCSHARRY JOSEPH B   3336 ACTON RD                           000N        CARE OF             
MTR04802000001000000000000000RA              27132226    005801290000012900000520000003NN  NNW 000                       N    
RDG04802000WATRL000000004K00000000000003536003902282015095947N000000000000U40       001020400K 10000000010000003522           
CUS0480200000104061747004         HOYT FRANCIS T      3334 ACTON RD                           000N        CARE OF             
MTR04802000001000000000000000RA              14921882    005801300000013000000310000003NN  NNW 000                       N    
RDG04802000WATRL000000004K00000000000000365004002282015100041N000000000000U40       000540400K 10000000010000000360           
CUS0480200000104061748002         ODEN CAROLE A       3332 ACTON RD                           000N        CARE OF             
MTR04802000001000000000000000RA              01072683    005801310000013100000610000003NN  NNW 000                       N    
RDG04802000WATRL000000004K00000000000000805002802282015093650N000000000000U40       000910400K 10000000010000000789           
CUS0480200000104061749000         BOY JENNIFER A      3330 ACTON RD                           000N        CARE OF             
MTR04802000001000000000000000RA              10024226    005801320000013200000570000003NN  NNW 000                       N    
RDG04802000WATRL000000004K00000000000000059003202282015095008N000000000000U40       002350400K 10000000010000000051           
CUS0480200000104061750008         MOORE SCOTT R       3328 ACTON RD                           000N        CARE OF             
MTR04802000001000000000000000RA              99287214    005801330000013300000570000003NN  NNW 000                       N    
RDG04802000WATRL000000004K00000000000001139002902282015094016N000000000000U40       002060400K 10000000010000001113           
CUS0480200000104061751006         DINI BARBARA C      3326 ACTON RD                           000N        CARE OF             
MTR04802000001000000000000000RA              01072799    005801340000013400000610000003NN  NNW 000                       N    
RDG04802000WATRL000000004K00000000000000091003002282015094456N000000000000U40       002800400K 10000000010000000082           
CUS0480200000104061752004         SILVESTRI JOSEPH S  3324 ACTON RD                           000N        CARE OF             
MTR04802000001000000000000000RA              01072797    005801350000013500000610000003NN  NNW 000                       N    
RDG04802000WATRL000000004K00000000000000980003102282015094613N000000000000U40       000770400K 10000000010000000960           
CUS0480200000104061753002         SHOLANDER, JEFFREY T3322 ACTON RD                           000N        CARE OF             
MTR04802000001000000000000000RA              48590728    005801360000013600000520000003NN  NNW 000                       N    
RDG04802000WATRL000000004K00000000000001496001902282015091818N000000000000U40       001330400K 10000000010000001482           
CUS0480200000104061754000         FON GIDEON T        3320 ACTON RD                           000N        CARE OF             
MTR04802000001000000000000000RA              14915142    005801370000013700000310000003NY  NNW 000                       N    
MTM0480200014915142    ICE                                                                                                    
RDG04802000WATRL000000004K00000000000000000000000000000000000 000000000000U         000000400  10000000010000000646           
CUS0480200000104061755007         EDWARDS ROBERT M    3318 ACTON RD                           000N        CARE OF             
MTR04802000001000000000000000RA              50788373    005801380000013800000520000003NN  NNW 000                       N    
RDG04802000WATRL000000004K00000000000000569002002282015091932N000000000000U40       000740400K 10000000010000000566           
CUS0480200000104061756005         HAEBLER JEAN F      3316 ACTON RD                           000N        CARE OF             
MTR04802000001000000000000000RA              23057927    005801390000013900000520000003NN  NNW 000                       N    
RDG04802000WATRL000000004K00000000000004074002102282015092126N000000000000U40       001140400K 10000000010000004066           
CUS0480200000104061757003         FORD STEPHEN        3314 ACTON RD                           000N        CARE OF             
MTR04802000001000000000000000RA              75616001    005801400000014000000350000003NN  NNW 000                       N    
RDG04802000WATRL000000004K00000000000000036002202282015092306N000000000000U40       001000400K 10000000010000000017           
CUS0480200000104061758001         BRENDA D QUINN      3312 ACTON RD                           000N        CARE OF             
MTR04802000001000000000000000RA              14903957    005801410000014100000310000003NY  NNW 000                       N    
MTM0480200014903957    FROZEN                                                                                                 
RDG04802000WATRL000000004K00000000000000000000000000000000000 000000000000U         000000400  10000000010000000656           
CUS0480200000104061759009         LAW THEODORA B      3310 ACTON RD                           000N        CARE OF             
MTR04802000001000000000000000RA              00137462    005801420000014200000570000003NN  NNW 000                       N    
RDG04802000WATRL000000004K00000000000001130000602282015085819N000000000000U40       001180400K 10000000010000001119           
CUS0480200000104061760007         LOFTIS JAMES T,JR   3308 ACTON RD                           000N        CARE OF             
MTR04802000001000000000000000RA              10014978    005801430000014300000570000003NN  NNW 000                       N    
RDG04802000WATRL000000004K00000000000000109000702282015085937N000000000000U40       000780400K 10000000010000000102           
CUS0480200000104061761005         FRITSCHE PATRICIA AN3306 ACTON RD                           000N        CARE OF             
MTR04802000001000000000000000RA              00128339    005801440000014400000570000003NN  NNW 000                       N    
RDG04802000WATRL000000004K00000000000000429000802282015090026N000000000000U40       000490400K 10000000010000000423           
CUS0480200000104061762003         SCHUMANN ROBERT L   3304 ACTON RD                           000N        CARE OF             
MTR04802000001000000000000000RA              99389542    005801450000014500000570000003NN  NNW 000                       N    
RDG04802000WATRL000000004K00000000000001331000902282015090317N000000000000U40       001710400K 10000000010000001321           
CUS0480200000104061763001         DAVIS ROBERT R,JR   3302 ACTON RD                           000N        CARE OF             
MTR04802000001000000000000000RA              99388680    005801460000014600000570000003NN  NNW 000                       N    
RDG04802000WATRL000000004K00000000000001773001002282015090550N000000000000U40       001530400K 10000000010000001743           
CUS0480200000104061764009         MICHAEL A SCHMITT   3300 ACTON RD                           000N        CARE OF             
MTR04802000001000000000000000RA              27133990    005801470000014700000520000003NN  NNW 000                       N    
RDG04802000WATRL000000004K00000000000001718001102282015090708N000300000010U40       000780400K 10000000010000001702           
CUS0480200000104061765006         RUBRIGHT AMY M/SHIRL3301 WILLOUGHBY RD                      000N        CARE OF             
MTR04802000001000000000000000RA              45383638    005801480000014800000520000003NN  NNW 000                       N    
RDG04802000WATRL000000004K00000000000002033007502282015133610N000000000000U40       002580400K 10000000010000002025           
CUS0480200000104061766004         ROHRBACH MELVIN L,JR3303 WILLOUGHBY RD                      000N        CARE OF             
MTR04802000001000000000000000RA              01083813    005801490000014900000610000003NN  NNW 000                       N    
RDG04802000WATRL000000004K00000000000000798007602282015133702N000000000000U40       000520400K 10000000010000000791           
CUS0480200000104061767002         SMITH JUNE M        3305 WILLOUGHBY RD                      000N        CARE OF             
MTR04802000001000000000000000RA              44003445    005801500000015000000520000003NN  NNW 000                       N    
RDG04802000WATRL000000004K00000000000001862007702282015133728N000000000000U40       000260400K 10000000010000001844           
CUS0480200000104061768000         OLIVER BARBARA ANNE 3307 WILLOUGHBY RD                      000N        CARE OF             
MTR04802000001000000000000000RA              40049049    005801510000015100000520000003NN  NNW 000                       N    
RDG04802000WATRL000000004K00000000000001742007802282015133755N000000000000U40       000270400K 10000000010000001734           
CUS0480200000104061769008         PLUM RENEE C        3309 WILLOUGHBY RD                      000N        CARE OF             
MTR04802000001000000000000000RA              23054587    005801520000015200000520000003NN  NNW 000                       N    
RDG04802000WATRL000000004K00000000000003808007902282015133841N000000000000U40       000460400K 10000000010000003791           
CUS0480200000104061770006         WOODARD CYNTHIA A   3311 WILLOUGHBY RD                      000N        CARE OF             
MTR04802000001000000000000000RA              35106848    005801530000015300000520000003NN  NNW 000                       N    
RDG04802000WATRL000000004K00000000000002621008002282015133912N000000000000U40       000310400K 10000000010000002592           
CUS0480200000104061771004         WHITE BRIAN L       3311A WILLOUGHBY RD                     000N        CARE OF             
MTR04802000001000000000000000RA              35106856    005801540000015400000520000003NN  NNW 000                       N    
RDG04802000WATRL000000004K00000000000002555008102282015133946N000000000000U40       000340400K 10000000010000002536           
CUS0480200000104061772002         MARGUERITE M. SHIPLE3313 WILLOUGHBY RD                      000N        CARE OF             
MTR04802000001000000000000000RA              19461228    005801550000015500000520000003NN  NNW 000                       N    
RDG04802000WATRL000000004K00000000000003515008202282015134013N000000000000U40       000270400K 10000000010000003505           
CUS0480200000104061773000         GOUSHA BRIAN E      3315 WILLOUGHBY RD                      000N        CARE OF             
MTR04802000001000000000000000RA              52287136    005801560000015600000520000003NN  NNW 000                       N    
RDG04802000WATRL000000004K00000000000002048008302282015134535N000000000000U40       003220400K 10000000010000002031           
CUS0480200000104061774008         RAYBURN MICHAEL L   3317 WILLOUGHBY RD                      000N        CARE OF             
MTR04802000001000000000000000RA              45384740    005801570000015700000520000003NN  NNW 000                       N    
RDG04802000WATRL000000004K00000000000001957008402282015134605N000000000000U40       000300400K 10000000010000001872           
CUS0480200000104061775005         DIFATTA SALVATORE   3319 WILLOUGHBY RD                      000N        CARE OF             
MTR04802000001000000000000000RA              23054996    005801580000015800000520000003NN  NNW 000                       N    
RDG04802000WATRL000000004K00000000000004484008502282015134636N000000000000U40       000310400K 10000000010000004448           
CUS0480200000104061776003         ROBERTSON TODD M    3321 WILLOUGHBY RD                      000N        CARE OF             
MTR04802000001000000000000000RA              23054589    005801590000015900000520000003NN  NNW 000                       N    
RDG04802000WATRL000000004K00000000000003135008602282015134716N000000000000U40       000400400K 10000000010000003110           
CUS0480200000104061777001         CHERIAN CYRIAC      3323 WILLOUGHBY RD                      000N        CARE OF             
MTR04802000001000000000000000RA              32903156    005801600000016000000520000003NN  NNW 000                       N    
RDG04802000WATRL000000004K00000000000000822008702282015134750N000000000000U40       000340400K 10000000010000000816           
CUS0480200000104061778009         THOMMEN BERNARD F   3325 WILLOUGHBY RD                      000N        CARE OF             
MTR04802000001000000000000000RA              41257893    005801610000016100000520000003NN  NNW 000                       N    
RDG04802000WATRL000000004K00000000000001305008802282015134828N000000000000U40       000380400K 10000000010000001299           
CUS0480200000104061779007         SHINN MICHAEL W     3327 WILLOUGHBY RD                      000N        CARE OF             
MTR04802000001000000000000000RA              23055000    005801620000016200000520000003NN  NNW 000                       N    
RDG04802000WATRL000000004K00000000000003299008902282015134917N000000000000U40       000490400K 10000000010000003286           
CUS0480200000104061780005         YOUNG WILLIAM O     3329 WILLOUGHBY RD                      000N        CARE OF             
MTR04802000001000000000000000RA              01072791    005801630000016300000610000003NN  NNW 000                       N    
RDG04802000WATRL000000004K00000000000001271009002282015135225N000000000000U40       001880400K 10000000010000001255           
CUS0480200000104061781003         LEWIS STEVEN H      3331 WILLOUGHBY RD                      000N        CARE OF             
MTR04802000001000000000000000RA              35109948    005801640000016400000520000003NN  NNW 000                       N    
RDG04802000WATRL000000004K00000000000002845009102282015135252N000000000000U40       000270400K 10000000010000002834           
CUS0480200000104061782001         REESE LAURIE ANN    3333 WILLOUGHBY RD                      000N        CARE OF             
MTR04802000001000000000000000RA              27818959    005801650000016500000520000003NN  NNW 000                       N    
RDG04802000WATRL000000004K00000000000002194009202282015135324N000000000000U40       000320400K 10000000010000002178           
CUS0480200000104061783009         GRABILL LLOYD KENNET3335 WILLOUGHBY RD                      000N        CARE OF             
MTR04802000001000000000000000RA              01072794    005801660000016600000610000003NN  NNW 000                       N    
RDG04802000WATRL000000004K00000000000000903009302282015135716N000000000000U40       002320400K 10000000010000000887           
CUS0480200000104061784007         CRISOSTOMO JOSE G   3337 WILLOUGHBY RD                      000N        CARE OF             
MTR04802000001000000000000000RA              44173419    005801670000016700000520000003NN  NNW 000                       N    
RDG04802000WATRL000000004K00000000000002710009402282015135825N000000000000U40       000690400K 10000000010000002661           
CUS0480200000104061785004         KUCHTA BERNICE V    3339 WILLOUGHBY RD                      000N        CARE OF             
MTR04802000001000000000000000RA              52287610    005801680000016800000520000003NY  NNW 000                       N    
MTM0480200052287610    ICE                                                                                                    
RDG04802000WATRL000000004K00000000000000000000000000000000000 000000000000U         000000400  10000000010000000903           
CUS0480200000104061786002         FRANCIS BERNARD     3341 WILLOUGHBY RD                      000N        CARE OF             
MTR04802000001000000000000000RA              35109945    005801690000016900000520000003NY  NNW 000                       N    
MTM0480200035109945    ICE                                                                                                    
RDG04802000WATRL000000004K00000000000000000000000000000000000 000000000000U         000000400  10000000010000003272           
CUS0480200000104061787000         ROSS YOLANDA M      3343 WILLOUGHBY RD                      000N        CARE OF             
MTR04802000001000000000000000RA              44086414    005801700000017000000520000003NY  NNW 000                       N    
MTM0480200044086414    ICE                                                                                                    
RDG04802000WATRL000000004K00000000000000000000000000000000000 000000000000U         000000400  10000000010000002420           
CUS0480200000104061788008         FUNK BERNARD C,JR   3345 WILLOUGHBY RD                      000N        CARE OF             
MTR04802000001000000000000000RA              30517553    005801710000017100000520000003NY  NNW 000                       N    
MTM0480200030517553    ICE                                                                                                    
RDG04802000WATRL000000004K00000000000000000000000000000000000 000000000000U         000000400  10000000010000002550           
CUS0480200000104061789006         BRENT JAMES J       3347 WILLOUGHBY RD                      000N        CARE OF             
MTR04802000001000000000000000RA              41589818    005801720000017200000520000003NY  NNW 000                       N    
MTM0480200041589818    ICE                                                                                                    
RDG04802000WATRL000000004K00000000000000000000000000000000000 000000000000U         000000400  10000000010000002120           
RTR04802000NN01720172000001720000000001720172000603YY017201720172001600000000000000000000000001    02022015NY020000 I         
RHD04816300NN02830283000002830000000002830283000330NY028302830283000900060000000000000000000001    02092015NY020000 N         
CUS0481630000104356811002         PATRICIA S HARRISON 1 JUXON CT                              000N        CARE OF             
MTR04816300001000000000000000RA              36688979    005800010000000100000520000003NN  NNW 000                       N    
RDG04816300WATRL000000004K00000000000001564005702252015085822N000000000000N40       000560400K 10000000010000001546           
CUS0481630000104356810004         MAXIMUK KATHLEEN A  3 JUXON CT                              000N        CARE OF             
MTR04816300001000000000000000RA              29404036    005800020000000200000520000003NN  NNW 000                       N    
RDG04816300WATRL000000004K00000000000002733005602252015085726N000000000000N40       000020400K 10000000010000002724           
CUS0481630000104356809006         VARRICCHIO PAMELA K 5 JUXON CT                              000N        CARE OF             
MTR04816300001000000000000000RA              29404045    005800030000000300000520000003NN  NNW 000                       N    
RDG04816300WATRL000000004K00000000000001796005502252015085724N000000000000N40       000270400K 10000000010000001783           
CUS0481630000104356808008         MOORE BRIAN M       7 JUXON CT                              000N        CARE OF             
MTR04816300001000000000000000RA              99389323    005800040000000400000570000003NN  NNW 000                       N    
RDG04816300WATRL000000004K00000000000000861005402252015085657N000000000000N40       000020400K 10000000010000000839           
CUS0481630000104356807000         ROKAS ATHINA        9 JUXON CT                              000N        CARE OF             
MTR04816300001000000000000000RA              52285996    005800050000000500000520000003NN  NNW 000                       N    
RDG04816300WATRL000000004K00000000000001136005302252015085655N000000000000N40       000290400K 10000000010000001108           
CUS0481630000104356806002         NAN CHEN            11 JUXON CT                             000N        CARE OF             
MTR04816300001000000000000000RA              29404154    005800060000000600000520000003NN  NNW 000                       N    
RDG04816300WATRL000000004K00000000000002190005202252015085626N000000000000N40       000030400K 10000000010000002147           
CUS0481630000104356805004         KLINE GERALD M      13 JUXON CT                             000N        CARE OF             
MTR04816300001000000000000000RA              78023941    005800070000000700000360000003NN  NNW 000                       N    
RDG04816300WATRL000000004K00000000000000000005102252015085623S001000000000N40       000670400K 10000000010000000000           
CUS0481630000104357521006         CHASE TIANA E       15 JUXON CT                             000N        CARE OF             
MTR04816300001000000000000000RA              29404736    005800080000000800000520000003NN  NNW 000                       N    
RDG04816300WATRL000000004K00000000000000000000000000000000000 000000000000U         000000400  10000000010000003145           
CUS0481630000104357520008         EVANS WILBERT       17 JUXON CT                             000N        CARE OF             
MTR04816300001000000000000000RA              29404739    005800090000000900000520000003NN  NNW 000                       N    
RDG04816300WATRL000000004K00000000000000000000000000000000000 000000000000U         000000400  10000000010000002113           
CUS0481630000104357519000         HOLDEN CYNTHIA      19 JUXON CT                             000N        CARE OF             
MTR04816300001000000000000000RA              29680776    005800100000001000000520000003NN  NNW 000                       N    
RDG04816300WATRL000000004K00000000000000000000000000000000000 000000000000U         000000400  10000000010000002460           
CUS0481630000104357518002         AZER GAMAL EL DIN HE21 JUXON CT                             000N        CARE OF             
MTR04816300001000000000000000RA              29404740    005800110000001100000520000003NN  NNW 000                       N    
RDG04816300WATRL000000004K00000000000000000000000000000000000 000000000000U         000000400  10000000010000002946           
CUS0481630000104357517004         KUZEMCHAK JEFFREY MI23 JUXON CT                             000N        CARE OF             
MTR04816300001000000000000000RA              01109720    005800120000001200000610000003NN  NNW 000                       N    
RDG04816300WATRL000000004K00000000000000689005002252015085516N000400000010N40       000030400K 10000000010000000685           
CUS0481630000104357516006         MCGRATH DENNIS J    25 JUXON CT                             000N        CARE OF             
MTR04816300001000000000000000RA              50480990    005800130000001300000520000003NN  NNW 000                       N    
RDG04816300WATRL000000004K00000000000000589004902252015085513N000300000010N40       000680400K 10000000010000000573           
CUS0481630000104358874008         OGUNYEMI TOLULOPE R 20 JUXON CT                             000N        CARE OF             
MTR04816300001000000000000000RA              01073354    005800140000001400000610000003NN  NNW 000                       N    
RDG04816300WATRL000000004K00000000000001503004802252015085405N000300000010N40       000050400K 10000000010000001460           
CUS0481630000104358873000         HARRYMAN DAVID W    18 JUXON CT                             000N        CARE OF             
MTR04816300001000000000000000RA              29682259    005800150000001500000520000003NN  NNW 000                       N    
RDG04816300WATRL000000004K00000000000000582004702252015085400N000000000000N40       000640400K 10000000010000000539           
CUS0481630000104358872002         BROCKMEYER KATHLEEN 16 JUXON CT                             000N        CARE OF             
MTR04816300001000000000000000RA              01103375    005800160000001600000610000003NN  NNW 000                       N    
RDG04816300WATRL000000004K00000000000001244004602252015085256N000000000000N40       000010400K 10000000010000001225           
CUS0481630000104358871004         ROBERT A GIORDANO   14 JUXON CT                             000N        CARE OF             
MTR04816300001000000000000000RA              14900467    005800170000001700000310000003NN  NNW 000                       N    
RDG04816300WATRL000000004K00000000000001569004502252015085255N000000000000N40       000210400K 10000000010000001511           
CUS0481630000104358870006         DB50 2007-1 TRUST   12 JUXON CT                             000N        CARE OF             
MTR04816300001000000000000000RA              29682294    005800180000001800000520000003NN  NNW 000                       N    
RDG04816300WATRL000000004K00000000000002114004402252015085234N000000000000N40       000020400K 10000000010000002100           
CUS0481630000104358869008         SIJERA BUENAVENTURA 10 JUXON CT                             000N        CARE OF             
MTR04816300001000000000000000RA              44002093    005800190000001900000520000003NN  NNW 000                       N    
RDG04816300WATRL000000004K00000000000002392004302252015085232N000000000000N40       000480400K 10000000010000002371           
CUS0481630000104358868000         MARSALEK THOMAS     8 JUXON CT                              000N        CARE OF             
MTR04816300001000000000000000RA              10017202    005800200000002000000570000003NN  NNW 000                       N    
RDG04816300WATRL000000004K00000000000000018004202252015085144N000300000020N40       001180400K 10000000010000000001           
CUS0481630000104358867002         BRAUN JOHN RICHARD  6 JUXON CT                              000N        CARE OF             
MTR04816300001000000000000000RA              14909846    005800210000002100000310000003NN  NNW 000                       N    
RDG04816300WATRL000000004K00000000000000798000102262015093846N000000000000U65       000000400K 10000000010000000771           
CUS0481630000104360233003         ABANTAO MANILYN S   4 JUXON CT                              000N        CARE OF             
MTR04816300001000000000000000RA              77989272    005800220000002200000350000003NN  NNW 000                       N    
RDG04816300WATRL000000004K00000000000000000004102252015084946S001000000000N40       000030400K 10000000010000000000           
CUS0481630000104368450005         ALBRECHT SHELLEY    2 JUXON CT                              000N        CARE OF             
MTR04816300001000000000000000RA              77989383    005800230000002300000350000003NN  NNW 000                       N    
RDG04816300WATRL000000004K00000000000000000004002252015084943S001000000000N40       000410400K 10000000010000000000           
CUS0481630000104360232005         MOORE GINA T        8690 CASTLEMILL CIR                     000N        CARE OF             
MTR04816300001000000000000000RA              42810315    005800240000002400000520000003NN  NNW 000                       N    
RDG04816300WATRL000000004K00000000000001933003902252015084902N000000000000N40       000020400K 10000000010000001908           
CUS0481630000104360231007         MAXWELL WILLIAM H,JR8688 CASTLEMILL CIR                     000N        CARE OF             
MTR04816300001000000000000000RA              46885916    005800250000002500000520000003NN  NNW 000                       N    
RDG04816300WATRL000000004K00000000000001853003802252015084900N000000000000N40       000520400K 10000000010000001841           
CUS0481630000104360230009         HOGAN JOSEPH,3RD    8686 CASTLEMILL CIR                     000N        CARE OF             
MTR04816300001000000000000000RA              01073450    005800260000002600000610000003NN  NNW 000                       N    
RDG04816300WATRL000000004K00000000000000965003702252015084808N000000000000N40       000020400K 10000000010000000943           
CUS0481630000104360229001         SATTERFIELD RICHARD 8684 CASTLEMILL CIR                     000N        CARE OF             
MTR04816300001000000000000000RA              01073455    005800270000002700000610000003NN  NNW 000                       N    
RDG04816300WATRL000000004K00000000000002283003602252015084806N000000000000N40       000960400K 10000000010000002243           
CUS0481630000104360228003         COPPOLA ROSARIA     8682 CASTLEMILL CIR                     000N        CARE OF             
MTR04816300001000000000000000RA              14909350    005800280000002800000310000003NN  NNW 000                       N    
RDG04816300WATRL000000004K00000000000000995000302262015094438N000000000000U65       000410400K 10000000010000000981           
CUS0481630000104360227005         BOYD RUBY N         8680 CASTLEMILL CIR                     000N        CARE OF             
MTR04816300001000000000000000RA              99293729    005800290000002900000570000003NN  NNW 000                       N    
RDG04816300WATRL000000004K00000000000001801000202262015094357N000000000000U65       003110400K 10000000010000001787           
CUS0481630000104362132005         HASSAN RASHID MOHAME8678 CASTLEMILL CIR                     000N        CARE OF             
MTR04816300001000000000000000RA              50477680    005800300000003000000520000003NN  NNW 000                       N    
RDG04816300WATRL000000004K00000000000001517003502252015084630N000300000020N40       000380400K 10000000010000001410           
CUS0481630000104362131007         GOVORUHK BRIAN K    8676 CASTLEMILL CIR                     000N        CARE OF             
MTR04816300001000000000000000RA              44092074    005800310000003100000520000003NN  NNW 000                       N    
RDG04816300WATRL000000004K00000000000001267003402252015084552N000000000000N40       001390400K 10000000010000001257           
CUS0481630000104362130009         CHARLENE KNIGHT     8674 CASTLEMILL CIR                     000N        CARE OF             
MTR04816300001000000000000000RA              77989271    005800320000003200000350000003NN  NNW 000                       N    
RDG04816300WATRL000000004K00000000000000000003302252015084333S001000000000N40       000050400K 10000000010000000000           
CUS0481630000104362129001         FERRARA THOMAS M    8672 CASTLEMILL CIR                     000N        CARE OF             
MTR04816300001000000000000000RA              50790204    005800330000003300000520000003NN  NNW 000                       N    
RDG04816300WATRL000000004K00000000000001234003202252015084328N000000000000N40       000390400K 10000000010000001217           
CUS0481630000104362128003         MCCALL JOHN JOSEPH  8670 CASTLEMILL CIR                     000N        CARE OF             
MTR04816300001000000000000000RA              45374311    005800340000003400000520000003NN  NNW 000                       N    
RDG04816300WATRL000000004K00000000000000705003102252015084249N000000000000N40       000010400K 10000000010000000678           
CUS0481630000104362127005         EASTER LORENA M     8668 CASTLEMILL CIR                     000N        CARE OF             
MTR04816300001000000000000000RA              00137642    005800350000003500000570000003NN  NNW 000                       N    
RDG04816300WATRL000000004K00000000000001036003002252015084248N000300000010N40       000770400K 10000000010000000989           
CUS0481630000104362126007         EDWARD SLOMBA       8666 CASTLEMILL CIR                     000N        CARE OF             
MTR04816300001000000000000000RA              44086136    005800360000003600000520000003NN  NNW 000                       N    
RDG04816300WATRL000000004K00000000000002910002902252015084131N000000000000N40       001320400K 10000000010000002880           
CUS0481630000104362125009         CURRY MEGAN NICOLE  8664 CASTLEMILL CIR                     000N        CARE OF             
MTR04816300001000000000000000RA              35118776    005800370000003700000520000003NN  NNW 000                       N    
RDG04816300WATRL000000004K00000000000004257000402262015095055N000000000000U65       003770400K 10000000010000004240           
CUS0481630000104362124002         SWINSKI PAUL A      8662 CASTLEMILL CIR                     000N        CARE OF             
MTR04816300001000000000000000RA              01113532    005800380000003800000610000003NN  NNW 000                       N    
RDG04816300WATRL000000004K00000000000001015002802252015083919N000000000000N40       000040400K 10000000010000000990           
CUS0481630000104362123004         SHINSKY MARY ELLEN  8660 CASTLEMILL CIR                     000N        CARE OF             
MTR04816300001000000000000000RA              10016403    005800390000003900000570000003NN  NNW 000                       N    
RDG04816300WATRL000000004K00000000000000136002702252015083915N000000000000N40       000560400K 10000000010000000125           
CUS0481630000104368428001         CURD HOUSTON G,3RD/P8658 CASTLEMILL CIR                     000N        CARE OF             
MTR04816300001000000000000000RA              10010684    005800400000004000000570000003NN  NNW 000                       N    
RDG04816300WATRL000000004K00000000000000211002602252015083819N000000000000N40       000020400K 10000000010000000197           
CUS0481630000104368427003         TOMB DAVID          8656 CASTLEMILL CIR                     000N        CARE OF             
MTR04816300001000000000000000RA              10010719    005800410000004100000570000003NN  NNW 000                       N    
RDG04816300WATRL000000004K00000000000000116002502252015083817N000000000000N40       000500400K 10000000010000000105           
CUS0481630000104368434009         OTAKIE DANIEL       8654 CASTLEMILL CIR                     000N        CARE OF             
MTR04816300001000000000000000RA              52286538    005800420000004200000520000003NN  NNW 000                       N    
RDG04816300WATRL000000004K00000000000001846002402252015083727N000000000000N40       000030400K 10000000010000001821           
CUS0481630000104368433001         JANET GOONAN        8652 CASTLEMILL CIR                     000N        CARE OF             
MTR04816300001000000000000000RA              14915591    005800430000004300000310000003NN  NNW 000                       N    
RDG04816300WATRL000000004K00000000000000408002302252015083724N000000000000N40       000350400K 10000000010000000402           
CUS0481630000104368432003         BRENDAN P KERRIGAN  8650 CASTLEMILL CIR                     000N        CARE OF             
MTR04816300001000000000000000RA              48582576    005800440000004400000520000003NN  NNW 000                       N    
RDG04816300WATRL000000004K00000000000001562002202252015083649N000000000000N40       000010400K 10000000010000001553           
CUS0481630000104368431005         ECKENRODE JOHN W,3RD8648 CASTLEMILL CIR                     000N        CARE OF             
MTR04816300001000000000000000RA              50476331    005800450000004500000520000003NN  NNW 000                       N    
RDG04816300WATRL000000004K00000000000002133002102252015083648N000000000000N40       001270400K 10000000010000002105           
CUS0481630000104368430007         BUTLER BERTRAM M    8646 CASTLEMILL CIR                     000N        CARE OF             
MTR04816300001000000000000000RA              30525065    005800460000004600000520000003NN  NNW 000                       N    
RDG04816300WATRL000000004K00000000000004109000502262015095632N000000000000U65       003370400K 10000000010000004091           
CUS0481630000104368429009         PARVIZIMOTLAGH HASSA8644 CASTLEMILL CIR                     000N        CARE OF             
MTR04816300001000000000000000RA              30525105    005800470000004700000520000003NN  NNW 000                       N    
RDG04816300WATRL000000004K00000000000004001000602262015095730N000000000000U65       000580400K 10000000010000003990           
CUS0481630000104373407008         CHRISTINA PRYSIAZNY 8642 CASTLEMILL CIR                     000N        CARE OF             
MTR04816300001000000000000000RA              10013374    005800480000004800000570000003NN  NNW 000                       N    
RDG04816300WATRL000000004K00000000000000360002002252015083441N000300000020N40       000300400K 10000000010000000384           
CUS0481630000104373406000         MITCHELL GLENN      8640 CASTLEMILL CIR                     000N        CARE OF             
MTR04816300001000000000000000RA              46817671    005800490000004900000520000003NN  NNW 000                       N    
RDG04816300WATRL000000004K00000000000002558001902252015083411N000000000000N40       000440400K 10000000010000002530           
CUS0481630000104373405002         MCGRATH STEPHEN     8638 CASTLEMILL CIR                     000N        CARE OF             
MTR04816300001000000000000000RA              36694157    005800500000005000000520000003NN  NNW 000                       N    
RDG04816300WATRL000000004K00000000000002455001802252015083327N000000000000N40       000040400K 10000000010000002429           
CUS0481630000104373404005         MARY T CRESWELL     8636 CASTLEMILL CIR                     000N        CARE OF             
MTR04816300001000000000000000RA              48591021    005800510000005100000520000003NN  NNW 000                       N    
RDG04816300WATRL000000004K00000000000001717001702252015083323N000000000000N40       000430400K 10000000010000001672           
CUS0481630000104373403007         THIPJUTHA BOUNSYNHAV8634 CASTLEMILL CIR                     000N        CARE OF             
MTR04816300001000000000000000RA              14903282    005800520000005200000310000003NN  NNW 000                       N    
RDG04816300WATRL000000004K00000000000000431001602252015083240N000000000000N40       000010400K 10000000010000000407           
CUS0481630000104373402009         GALASSO MICHAEL A   8632 CASTLEMILL CIR                     000N        CARE OF             
MTR04816300001000000000000000RA              01099372    005800530000005300000610000003NN  NNW 000                       N    
RDG04816300WATRL000000004K00000000000001004001502252015083239N000000000000N40       000190400K 10000000010000000970           
CUS0481630000104373417007         NICHOLS BRIAN PATRIC8630 CASTLEMILL CIR                     000N        CARE OF             
MTR04816300001000000000000000RA              99188985    005800540000005400000570000003NN  NNW 000                       N    
RDG04816300WATRL000000004K00000000000001055001402252015083220N000000000000N40       000010400K 10000000010000001048           
CUS0481630000104373416009         MASON ELIZABETH C   8628 CASTLEMILL CIR                     000N        CARE OF             
MTR04816300001000000000000000RA              10024421    005800550000005500000570000003NN  NNW 000                       N    
RDG04816300WATRL000000004K00000000000000092001302252015083219N000400000010N40       000480400K 10000000010000000086           
CUS0481630000104373415001         HUGHES CATHY D      8626 CASTLEMILL CIR                     000N        CARE OF             
MTR04816300001000000000000000RA              10003069    005800560000005600000570000003NN  NNW 000                       N    
RDG04816300WATRL000000004K00000000000000420001202252015083131N000000000000N40       000010400K 10000000010000000396           
CUS0481630000104373414004         GURRIN DENIS M      8624 CASTLEMILL CIR                     000N        CARE OF             
MTR04816300001000000000000000RA              01082552    005800570000005700000610000003NN  NNW 000                       N    
RDG04816300WATRL000000004K00000000000000808001102252015083130N000000000000N40       000520400K 10000000010000000795           
CUS0481630000104373413006         GUIDO JOHN JOSEPH   8622 CASTLEMILL CIR                     000N        CARE OF             
MTR04816300001000000000000000RA              76347015    005800580000005800000350000003NN  NNW 000                       N    
RDG04816300WATRL000000004K00000000000000081001002252015083038N000000000000N40       000020400K 10000000010000000050           
CUS0481630000104373412008         BLAKE DANIEL E      8620 CASTLEMILL CIR                     000N        CARE OF             
MTR04816300001000000000000000RA              01100399    005800590000005900000610000003NN  NNW 000                       N    
RDG04816300WATRL000000004K00000000000000512000902252015083036N000400000010N40       000820400K 10000000010000000509           
CUS0481630000104373411000         POPP LINDA JUNE     8618 CASTLEMILL CIR                     000N        CARE OF             
MTR04816300001000000000000000RA              32770383    005800600000006000000520000003NN  NNW 000                       N    
RDG04816300WATRL000000004K00000000000002074000802252015082914N000000000000N40       000020400K 10000000010000002067           
CUS0481630000104373410002         JEFFREY S WISER  BER8616 CASTLEMILL CIR                     000N        CARE OF             
MTR04816300001000000000000000RA              46884410    005800610000006100000520000003NN  NNW 000                       N    
RDG04816300WATRL000000004K00000000000001213000702252015082912N000000000000N40       000320400K 10000000010000001203           
CUS0481630000104373409004         ZWERIN MICHAEL      8614 CASTLEMILL CIR                     000N        CARE OF             
MTR04816300001000000000000000RA              14920922    005800620000006200000310000003NN  NNW 000                       N    
RDG04816300WATRL000000004K00000000000000173000602252015082840N000000000000N40       000040400K 10000000010000000166           
CUS0481630000104373408006         KENNEDY PATRICK     8612 CASTLEMILL CIR                     000N        CARE OF             
MTR04816300001000000000000000RA              14922146    005800630000006300000310000003NN  NNW 000                       N    
RDG04816300WATRL000000004K00000000000000226000502252015082836N000000000000N40       001240400K 10000000010000000214           
CUS0481630000104369635000         SCOTTM GARLOCK      8610 CASTLEMILL CIR                     000N        CARE OF             
MTR04816300001000000000000000RA              99188864    005800640000006400000570000003NN  NNW 000                       N    
RDG04816300WATRL000000004K00000000000000759000702262015100314N000300000010U65       003440400K 10000000010000000691           
CUS0481630000104369608007         DIMICK STEPHANIE M  8608 CASTLEMILL CIR                     000N        CARE OF             
MTR04816300001000000000000000RA              99188894    005800650000006500000570000003NN  NNW 000                       N    
RDG04816300WATRL000000004K00000000000001068000802262015100319N000000000000U65       000050400K 10000000010000001057           
CUS0481630000104369607009         SKAGGS DONALD E     8606 CASTLEMILL CIR                     000N        CARE OF             
MTR04816300001000000000000000RA              10009419    005800660000006600000570000003NN  NNW 000                       N    
RDG04816300WATRL000000004K00000000000000211000402252015082632N000000000000N40       000030400K 10000000010000000202           
CUS0481630000104369606001         WAYSON GWENDOLYN R  8604 CASTLEMILL CIR                     000N        CARE OF             
MTR04816300001000000000000000RA              50477311    005800670000006700000520000003NN  NNW 000                       N    
RDG04816300WATRL000000004K00000000000000231000302252015082629N000000000000N40       000610400K 10000000010000000227           
CUS0481630000104369634003         LESINSKI PAUL R,JR  8602 CASTLEMILL CIR                     000N        CARE OF             
MTR04816300001000000000000000RA              01109724    005800680000006800000610000003NN  NNW 000                       N    
RDG04816300WATRL000000004K00000000000001220000202252015082528N000000000000N40       000020400K 10000000010000001193           
CUS0481630000104369605003         PUDMERICKY ROBERT   8600 CASTLEMILL CIR                     000N        CARE OF             
MTR04816300001000000000000000RA              01109727    005800690000006900000610000003NN  NNW 000                       N    
RDG04816300WATRL000000004K00000000000001547000102252015082526N000000000000N40       000000400K 10000000010000001512           
CUS0481630000104373418005         CLARKE JOHN A       8601 CASTLEMILL CIR                     000N        CARE OF             
MTR04816300001000000000000000RA              46879689    005800700000007000000520000003NN  NNW 000                       N    
RDG04816300WATRL000000004K00000000000001082006102252015090239N000300000050N40       000610400K 10000000010000001077           
CUS0481630000104373419003         PFARR KEVIN G       8603 CASTLEMILL CIR                     000N        CARE OF             
MTR04816300001000000000000000RA              46878532    005800710000007100000520000003NN  NNW 000                       N    
RDG04816300WATRL000000004K00000000000001444006002252015090138N000000000000N40       000470400K 10000000010000001435           
CUS0481630000104373420001         O'MEARA AILEEN M    8605 CASTLEMILL CIR                     000N        CARE OF             
MTR04816300001000000000000000RA              44089446    005800720000007200000520000003NN  NNW 000                       N    
RDG04816300WATRL000000004K00000000000001189005902252015090051N000000000000N40       000060400K 10000000010000001180           
CUS0481630000104373421009         JOHNSON BEATRICE    8607 CASTLEMILL CIR                     000N        CARE OF             
MTR04816300001000000000000000RA              44093015    005800730000007300000520000003NN  NNW 000                       N    
RDG04816300WATRL000000004K00000000000001782005802252015090045N000000000000N40       000450400K 10000000010000001771           
CUS0481630000104373422007         DEWITT RONALD L     8609 CASTLEMILL CIR                     000N        CARE OF             
MTR04816300001000000000000000RA              99288110    005800740000007400000570000003NN  NNW 000                       N    
RDG04816300WATRL000000004K00000000000001372005702252015090000N000000000010N40       000170400K 10000000010000001362           
CUS0481630000104373423005         BROOKS MICHAEL W    8611 CASTLEMILL CIR                     000N        CARE OF             
MTR04816300001000000000000000RA              10008732    005800750000007500000570000003NN  NNW 000                       N    
RDG04816300WATRL000000004K00000000000000326005602252015085943N000000000010N40       000710400K 10000000010000000315           
CUS0481630000104369879004         RIDDLEBERGER SUSAN M8613 CASTLEMILL CIR                     000N        CARE OF             
MTR04816300001000000000000000RA              31584131    005800760000007600000520000003NN  NNW 000                       N    
RDG04816300WATRL000000004K00000000000002381005502252015085832N000000000000N40       000030400K 10000000010000002370           
CUS0481630000104369880002         KENNETH KING        8615 CASTLEMILL CIR                     000N        CARE OF             
MTR04816300001000000000000000RA              44089382    005800770000007700000520000003NN  NNW 000                       N    
RDG04816300WATRL000000004K00000000000006062005402252015085829N000000000000N40       000520400K 10000000010000006050           
CUS0481630000104369881000         ZHOU HAYONG HARRY   8617 CASTLEMILL CIR                     000N        CARE OF             
MTR04816300001000000000000000RA              99287443    005800780000007800000570000003NN  NNW 000                       N    
RDG04816300WATRL000000004K00000000000001372005302252015085737N000000000000N40       000040400K 10000000010000001360           
CUS0481630000104369841004         KRISTEN E MEINECKE  8619 CASTLEMILL CIR                     000N        CARE OF             
MTR04816300001000000000000000RA              46883522    005800790000007900000520000003NN  NNW 000                       N    
RDG04816300WATRL000000004K00000000000001014005202252015085733N000000000000N40       000410400K 10000000010000001006           
CUS0481630000104373432006         KNAPP DEIDRE L      8621 CASTLEMILL CIR                     000N        CARE OF             
MTR04816300001000000000000000RA              32899858    005800800000008000000520000003NN  NNW 000                       N    
RDG04816300WATRL000000004K00000000000002544005102252015085652N000000000000N40       000900400K 10000000010000002534           
CUS0481630000104364550006         QUINN PATRICK S     8659 CASTLEMILL CIR                     000N        CARE OF             
MTR04816300001000000000000000RA              50477269    005800810000008100000520000003NN  NNW 000                       N    
RDG04816300WATRL000000004K00000000000001781005002252015085522N000000000020N40       000120400K 10000000010000001767           
CUS0481630000104364551004         GRYCE RICKEY A      8661 CASTLEMILL CIR                     000N        CARE OF             
MTR04816300001000000000000000RA              14920193    005800820000008200000310000003NN  NNW 000                       N    
RDG04816300WATRL000000004K00000000000000305004902252015085510N000000000030N40       000460400K 10000000010000000288           
CUS0481630000104364552002         ROBERT MCCORD       8663 CASTLEMILL CIR                     000N        CARE OF             
MTR04816300001000000000000000RA              99187600    005800830000008300000570000003NN  NNW 000                       N    
RDG04816300WATRL000000004K00000000000000829004802252015085424N000000000000N40       000060400K 10000000010000000821           
