FHDNNNN002000513000513000513N                                                                                           001556
RHD04912000NN02990299000002990000000002990299001075NY029902990299000200000000000000000000000001    02092015NY020000 N         
CUS0491200000104084434002         GOINS ALICE S       217 ENDSLEIGH AVE                       000N        CARE OF             
MTR04912000001000000000000000RA              31585373    005800010000000100000520000003NN  NNW 000                       N    
RDG04912000WATRL000000004K00000000000002493000102282015081538N000000000000N40       000000400K 10000000010000002485           
CUS0491200000104084435009         THORNTON GEORGANN   219 ENDSLEIGH AVE                       000N        CARE OF             
MTR04912000001000000000000000RA              31585374    005800020000000200000520000003NN  NNW 000                       N    
RDG04912000WATRL000000004K00000000000003205000202282015081556N000000000000N40       000180400K 10000000010000003164           
CUS0491200000104084436007         MILLS JEFFREY S     221 ENDSLEIGH AVE                       000N        CARE OF             
MTR04912000001000000000000000RA              42808952    005800030000000300000520000003NN  NNW 000                       N    
RDG04912000WATRL000000004K00000000000003202000302282015082149N000000000000N40       003530400K 10000000010000003168           
CUS0491200000104084437005         SIZEMORE BOBBY W    223 ENDSLEIGH AVE                       000N        CARE OF             
MTR04912000001000000000000000RA              10018338    005800040000000400000570000003NN  NNW 000                       N    
RDG04912000WATRL000000004K00000000000000244000402282015082222N000000000000N40       000330400K 10000000010000000232           
CUS0491200000104084438003         SIGAI ROSE MARIE    225 ENDSLEIGH AVE                       000N        CARE OF             
MTR04912000001000000000000000RA              30525777    005800050000000500000520000003NN  NNW 000                       N    
RDG04912000WATRL000000004K00000000000004352000502282015082230N000000000000N40       000080400K 10000000010000004332           
CUS0491200000104084439001         POSTERLI ENTERPRISES227 ENDSLEIGH AVE                       000N        CARE OF             
MTR04912000001000000000000000RA              01080236    005800060000000600000610000003NN  NNW 000                       N    
RDG04912000WATRL000000004K00000000000001765000602282015082342N000000000000N40       000720400K 10000000010000001750           
CUS0491200000104084440009         PORTER DOTTIE L     229 ENDSLEIGH AVE                       000N        CARE OF             
MTR04912000001000000000000000RA              01080390    005800070000000700000610000003NN  NNW 000                       N    
RDG04912000WATRL000000004K00000000000000375000702282015082358N000000000000N40       000160400K 10000000010000000370           
CUS0491200000104084441007         G. & P. STECKLER    231 ENDSLEIGH AVE                       000N        CARE OF             
MTR04912000001000000000000000RA              48582747    005800080000000800000520000003NN  NNW 000                       N    
RDG04912000WATRL000000004K00000000000001975000802282015082629N000000000000N40       001510400K 10000000010000001966           
CUS0491200000104084442005         LABOY LUIS          233 ENDSLEIGH AVE                       000N        CARE OF             
MTR04912000001000000000000000RA              10015714    005800090000000900000570000003NN  NNW 000                       N    
RDG04912000WATRL000000004K00000000000000461000902282015082701N000000000020N40       000320400K 10000000010000000444           
CUS0491200000104084443003         GMAC MORTGAGE LLC   235 ENDSLEIGH AVE                       000N        CARE OF             
MTR04912000001000000000000000RA              01111612    005800100000001000000610000003NN  NNW 000                       N    
RDG04912000WATRL000000004K00000000000000480001002282015082736N000000000000N40       000350400K 10000000010000000466           
CUS0491200000104084444001         TYSON MICHAEL J     237 ENDSLEIGH AVE                       000N        CARE OF             
MTR04912000001000000000000000RA              52287458    005800110000001100000520000003NN  NNW 000                       N    
RDG04912000WATRL000000004K00000000000001301001102282015082740N000000000000N40       000040400K 10000000010000001273           
CUS0491200000104084445008         FABISZAK JASON      239 ENDSLEIGH AVE                       000N        CARE OF             
MTR04912000001000000000000000RA              46880388    005800120000001200000520000003NN  NNW 000                       N    
RDG04912000WATRL000000004K00000000000001496001202282015082808N000000000000N40       000280400K 10000000010000001458           
CUS0491200000104084446006         LEMOINE GREGORY K   241 ENDSLEIGH AVE                       000N        CARE OF             
MTR04912000001000000000000000RA              10016458    005800130000001300000570000003NN  NNW 000                       N    
RDG04912000WATRL000000004K00000000000000158001502282015083058N000000000000N40       000470400K 10000000010000000153           
CUS0491200000104084447004         JUSTIN SHAFFER      243 ENDSLEIGH AVE                       000N        CARE OF             
MTR04912000001000000000000000RA              27213736    005800140000001400000520000003NN  NNW 000                       N    
RDG04912000WATRL000000004K00000000000003168001302282015083000N000000000000N40       001120400K 10000000010000003158           
CUS0491200000104084448002         KEYS JUDITH A       301 ENDSLEIGH AVE                       000N        CARE OF             
MTR04912000001000000000000000RA              76347192    005800150000001500000350000003NN  NNW 000                       N    
RDG04912000WATRL000000004K00000000000000021001403022015114303N000000000001N40       327670400K 10000000010000000014           
CUS0491200000104084449000         WHITLOCK GARY W     303 ENDSLEIGH AVE                       000N        CARE OF             
MTR04912000001000000000000000RA              44090139    005800160000001600000520000003NN  NNW 000                       N    
RDG04912000WATRL000000004K00000000000002272001602282015084432N000000000000N40       008140400K 10000000010000002252           
CUS0491200000104084450008         BROTZMAN MARY E     305 ENDSLEIGH AVE                       000N        CARE OF             
MTR04912000001000000000000000RA              44090110    005800170000001700000520000003NN  NNW 000                       N    
RDG04912000WATRL000000004K00000000000003947001702282015084540N000000000000N40       000680400K 10000000010000003936           
CUS0491200000104084451006         PIMENTEL AMAURIS C  307 ENDSLEIGH AVE                       000N        CARE OF             
MTR04912000001000000000000000RA              10016516    005800180000001800000570000003NN  NNW 000                       N    
RDG04912000WATRL000000004K00000000000000449001802282015084936N000000000010N40       002360400K 10000000010000000445           
CUS0491200000104084452004         DEXTER-THORNTON SARA309 ENDSLEIGH AVE                       000N        CARE OF             
MTR04912000001000000000000000RA              10016561    005800190000001900000570000003NN  NNW 000                       N    
RDG04912000WATRL000000004K00000000000000123001902282015084942N000300000010N40       000060400K 10000000010000000165           
CUS0491200000104084453002         ATWELL ROBERT J,SR  311 ENDSLEIGH AVE                       000N        CARE OF             
MTR04912000001000000000000000RA              27821651    005800200000002000000520000003NN  NNW 000                       N    
RDG04912000WATRL000000004K00000000000003394002002282015085043N000000000000N40       000610400K 10000000010000003368           
CUS0491200000104084454000         HARDON STEPHEN J    313 ENDSLEIGH AVE                       000N        CARE OF             
MTR04912000001000000000000000RA              10008121    005800210000002100000570000003NN  NNW 000                       N    
RDG04912000WATRL000000004K00000000000000195002102282015085053N000000000000N40       000100400K 10000000010000000182           
CUS0491200000104084455007         MYERS DONELL        315 ENDSLEIGH AVE                       000N        CARE OF             
MTR04912000001000000000000000RA              75614807    005800220000002200000350000003NN  NNW 000                       N    
RDG04912000WATRL000000004K00000000000001125002402282015085959N000000000000N40       001400400K 10000000010000000956           
CUS0491200000104084456005         REAMES JOHN W       317 ENDSLEIGH AVE                       000N        CARE OF             
MTR04912000001000000000000000RA              76346583    005800230000002300000350000003NN  NNW 000   VACANT / LOT        N    
RDG04912000WATRL000000004K00000000000000000002703022015114439N000000000000N40       000960400K 10000000010000000000           
CUS0491200000104084457003         ERINN ANN ROBINSON  319 ENDSLEIGH AVE                       000N        CARE OF             
MTR04912000001000000000000000RA              99287377    005800240000002400000570000003NN  NNW 000                       N    
RDG04912000WATRL000000004K00000000000002926002803022015114732N000000000002N40       001730400K 10000000010000002918           
CUS0491200000104084458001         MARCHINCIN RONALD   321 ENDSLEIGH AVE                       000N        CARE OF             
MTR04912000001000000000000000RA              46879127    005800250000002500000520000003NN  NNW 000                       N    
RDG04912000WATRL000000004K00000000000001789002903022015114835N000000000000N40       000630400K 10000000010000001754           
CUS0491200000104084459009         VALENTINE CHARLES B 323 ENDSLEIGH AVE                       000N        CARE OF             
MTR04912000001000000000000000RA              24757581    005800260000002600000520000003NN  NNW 000                       N    
RDG04912000WATRL000000004K00000000000003430003003022015114841N000000000000N40       000060400K 10000000010000003406           
CUS0491200000104084460007         MIMNA DOROTHY M     325 ENDSLEIGH AVE                       000N        CARE OF             
MTR04912000001000000000000000RA              38886460    005800270000002700000520000003NN  NNW 000                       N    
RDG04912000WATRL000000004K00000000000002205002202282015085620N000000000000N40       003270400K 10000000010000002197           
CUS0491200000104084461005         HUMMINGBIRD RENTALS 327 ENDSLEIGH AVE                       000N        CARE OF             
MTR04912000001000000000000000RA              31582657    005800280000002800000520000003NN  NNW 000                       N    
RDG04912000WATRL000000004K00000000000003392002302282015085739N000400000010N40       000790400K 10000000010000003385           
CUS0491200000104084462003         MILLER TINA P       329 ENDSLEIGH AVE                       000N        CARE OF             
MTR04912000001000000000000000RA              48593563    005800290000002900000520000003NN  NNW 000                       N    
RDG04912000WATRL000000004K00000000000002174003103022015115345N000000000000N40       003040400K 10000000010000002129           
CUS0491200000104084463001         ENTRUST MIDATLANTIC 331 ENDSLEIGH AVE                       000N        CARE OF             
MTR04912000001000000000000000RA              40320830    005800300000003000000520000003NN  NNW 000                       N    
RDG04912000WATRL000000004K00000000000003308002502282015090238N000000000010N40       001590400K 10000000010000003306           
CUS0491200000104084464009         OWENS CHERYL        333 ENDSLEIGH AVE                       000N        CARE OF             
MTR04912000001000000000000000RA              32899305    005800310000003100000520000003NN  NNW 000                       N    
RDG04912000WATRL000000004K00000000000003008002602282015090243N000000000000N40       000050400K 10000000010000002972           
CUS0491200000104084465006         HERNANDEZ PEDRO M   335 ENDSLEIGH AVE                       000N        CARE OF             
MTR04912000001000000000000000RA              99388994    005800320000003200000570000003NN  NNW 000                       N    
RDG04912000WATRL000000004K00000000000000797003203022015115741N000000000001N40       002360400K 10000000010000000778           
CUS0491200000104084466004         KENNETH RINGGOLD    337 ENDSLEIGH AVE                       000N        CARE OF             
MTR04912000001000000000000000RA              10004838    005800330000003300000570000003NN  NNW 000                       N    
RDG04912000WATRL000000004K00000000000000726003303022015115823N000000000000N40       000420400K 10000000010000000704           
CUS0491200000104084467002         UMSTOT VERNON K     339 ENDSLEIGH AVE                       000N        CARE OF             
MTR04912000001000000000000000RA              31582721    005800340000003400000520000003NN  NNW 000                       N    
RDG04912000WATRL000000004K00000000000003349003403022015115938N000000000000N40       000750400K 10000000010000003322           
CUS0491200000104084468000         HOPKINS SANDRA E    341 ENDSLEIGH AVE                       000N        CARE OF             
MTR04912000001000000000000000RA              31582694    005800350000003500000520000003NN  NNW 000                       N    
RDG04912000WATRL000000004K00000000000004036003503022015115950N000000000000N40       000120400K 10000000010000004027           
CUS0491200000104084469008         POSTERLI ENTERPRISES343 ENDSLEIGH AVE                       000N        CARE OF             
MTR04912000001000000000000000RA              10011337    005800360000003600000570000003NN  NNW 000                       N    
RDG04912000WATRL000000004K00000000000000311003603022015120503N000000000000N40       003130400K 10000000010000000296           
CUS0491200000104084470006         STRASBERGER DAVID T 345 ENDSLEIGH AVE                       000N        CARE OF             
MTR04912000001000000000000000RA              46879283    005800370000003700000520000003NN  NNW 000                       N    
RDG04912000WATRL000000004K00000000000002254003703022015120746N000000000000N40       001630400K 10000000010000002185           
CUS0491200000104084471004         JAJISTAR & SON INC  347 ENDSLEIGH AVE                       000N        CARE OF             
MTR04912000001000000000000000RA              31582698    005800380000003800000520000003NN  NNW 000                       N    
RDG04912000WATRL000000004K00000000000002446003803022015120752N000000000000N40       000060400K 10000000010000002417           
CUS0491200000104084472002         THOMPSON MELANIE M  349 ENDSLEIGH AVE                       000N        CARE OF             
MTR04912000001000000000000000RA              76348058    005800390000003900000350000003NN  NNW 000                       N    
RDG04912000WATRL000000004K00000000000000050003903022015120942N000000000000N40       001100400K 10000000010000000032           
CUS0491200000104084473000         SMITH SHARON L      351 ENDSLEIGH AVE                       000N        CARE OF             
MTR04912000001000000000000000RA              01080211    005800400000004000000610000003NN  NNW 000                       N    
RDG04912000WATRL000000004K00000000000000579004003022015121006N000000000000N40       000240400K 10000000010000000576           
CUS0491200000104084474008         COMES HAROLD F      1609 ALDENEY AVE                        000N        CARE OF             
MTR04912000001000000000000000RA              44093297    005800410000004100000520000003NN  NNW 000                       N    
RDG04912000WATRL000000004K00000000000003362004103022015121317N000000000000N40       001910400K 10000000010000003351           
CUS0491200000106351076002         WASMER SEAN A       1602 ALDENEY AVE                        000N        CARE OF             
MTR04912000001000000000000000RA              14901541    005800420000004200000310000003NN  NNW 000                       N    
RDG04912000WATRL000000004K00000000000001086004203022015121610N000000000041N40       000110400K 10000000010000001060           
CUS0491200000104084475005         COMES HAROLD F      1607 ALDENEY AVE                        000N        CARE OF             
MTR04912000001000000000000000RA              10001684    005800430000004300000570000003NN  NNW 000                       N    
RDG04912000WATRL000000004K00000000000000871004303022015121646N000000000000N40       000360400K 10000000010000000860           
CUS0491200000104084476003         COMES HAROLD F,JR   1605 ALDENEY AVE                        000N        CARE OF             
MTR04912000001000000000000000RA              52285781    005800440000004400000520000003NN  NNW 000                       N    
RDG04912000WATRL000000004K00000000000001119004403022015121655N000000000000N40       000090400K 10000000010000001109           
CUS0491200000104084477001         STEWART RICHARD J   353 ENDSLEIGH AVE                       000N        CARE OF             
MTR04912000001000000000000000RA              78022541    005800450000004500000350000003NN  NNW 000                       N    
RDG04912000WATRL000000004K00000000000000026004503022015122311N000000000031N40       001400400K 10000000010000000011           
CUS0491200000104084478009         BAKER ROBERT A JR   355 ENDSLEIGH AVE                       000N        CARE OF             
MTR04912000001000000000000000RA              30519273    005800460000004600000520000003NN  NNW 000                       N    
RDG04912000WATRL000000004K00000000000002163004603022015122314N000000000000N40       000030400K 10000000010000002155           
CUS0491200000104084479007         MACMENAMIE BARBARA E357 ENDSLEIGH AVE                       000N        CARE OF             
MTR04912000001000000000000000RA              30519276    005800470000004700000520000003NN  NNW 000                       N    
RDG04912000WATRL000000004K00000000000002991004703022015122322N000000000000N40       000080400K 10000000010000002983           
CUS0491200000104084480005         REAMES JOHN W       359 ENDSLEIGH AVE                       000N        CARE OF             
MTR04912000001000000000000000RA              26009173    005800480000004800000520000003NN  NNW 000                       N    
RDG04912000WATRL000000004K00000000000002534004803022015122554N000000000031N40       000060400K 10000000010000002534           
CUS0491200000104084481003         OWENS RONNIE ANDREW,361 ENDSLEIGH AVE                       000N        CARE OF             
MTR04912000001000000000000000RA              00140004    005800490000004900000570000003NN  NNW 000                       N    
RDG04912000WATRL000000004K00000000000000273004903022015122548N000000000001N40       000170400K 10000000010000000263           
CUS0491200000104084482001         CORNISH-FULLER ERNES381 ENDSLEIGH AVE                       000N        CARE OF             
MTR04912000001000000000000000RA              45378013    005800500000005000000520000003NN  NNW 000                       N    
RDG04912000WATRL000000004K00000000000002729005103022015123401N000000000000N40       001410400K 10000000010000002674           
CUS0491200000104084483009         KACZYNSKI THEODORE JES ENDSLEIGH AV N END                   000N        CARE OF             
MTR04912000001000000000000000RA              45378011    005800510000005100000520000003NN  NNW 000                       N    
RDG04912000WATRL000000004K00000000000000000005203022015123405N000000000001N40       000040400K 10000000010000000000           
CUS0491200000104434261006         STEEG JULIE         374 ENDSLEIGH AVE                       000N        CARE OF             
MTR04912000001000000000000000RA              01095944    005800520000005200000610000003NN  NNW 000                       N    
RDG04912000WATRL000000004K00000000000000500005003022015123140N000000000000N40       003460400K 10000000010000000491           
CUS0491200000104084484007         TOMLINSON ROBERT    358 ENDSLEIGH AVE                       000N        CARE OF             
MTR04912000001000000000000000RA              99187919    005800530000005300000570000003NN  NNW 000                       N    
RDG04912000WATRL000000004K00000000000001367005303022015123506N000000000000N40       000610400K 10000000010000001346           
CUS0491200000104084485004         BORNMAN GEORGE E,JR 356 ENDSLEIGH AVE                       000N        CARE OF             
MTR04912000001000000000000000RA              31582720    005800540000005400000520000003NN  NNW 000                       N    
RDG04912000WATRL000000004K00000000000004021005403022015123515N000300000010N40       000090400K 10000000010000003957           
CUS0491200000104084486002         THRASHER SHERRY     354 ENDSLEIGH AVE                       000N        CARE OF             
MTR04912000001000000000000000RA              00132672    005800550000005500000570000003NN  NNW 000                       N    
RDG04912000WATRL000000004K00000000000000775005703022015123703N000000000001N40       000360400K 10000000010000000741           
CUS0491200000104084487000         NELSON TYLER C      352 ENDSLEIGH AVE                       000N        CARE OF             
MTR04912000001000000000000000RA              31582652    005800560000005600000520000003NN  NNW 000                       N    
RDG04912000WATRL000000004K00000000000003898005503022015123618N000000000000N40       000630400K 10000000010000003871           
CUS0491200000104084488008         TIMMINS ELIZABETH A 350 ENDSLEIGH AVE                       000N        CARE OF             
MTR04912000001000000000000000RA              31582655    005800570000005700000520000003NN  NNW 000                       N    
RDG04912000WATRL000000004K00000000000001943005603022015123627N000300000010N40       000090400K 10000000010000001931           
CUS0491200000104084489006         ROLAND J MANGUM     1550 ALDENEY AVE                        000N        CARE OF             
MTR04912000001000000000000000RA              31585893    005800580000005800000520000003NN  NNW 000                       N    
RDG04912000WATRL000000004K00000000000004158005803022015124018N000000000000N40       001950400K 10000000010000004144           
CUS0491200000104084490004         KRIEGER MARK J      1548 ALDENEY AVE                        000N        CARE OF             
MTR04912000001000000000000000RA              31585904    005800590000005900000520000003NN  NNW 000                       N    
RDG04912000WATRL000000004K00000000000002967005903022015124024N000000000000N40       000060400K 10000000010000002954           
CUS0491200000104084491002         CARL ERIC R         1546 ALDENEY AVE                        000N        CARE OF             
MTR04912000001000000000000000RA              31585905    005800600000006000000520000003NN  NNW 000                       N    
RDG04912000WATRL000000004K00000000000003331006403022015124722N000000000020N40       000120400K 10000000010000003319           
CUS0491200000104084492000         SWIFT ANDREA J      1544 ALDENEY AVE                        000N        CARE OF             
MTR04912000001000000000000000RA              52290560    005800610000006100000520000003NN  NNW 000                       N    
RDG04912000WATRL000000004K00000000000000905006003022015124430N000000000000N40       002460400K 10000000010000000889           
CUS0491200000104084493008         RENSHAW JOSEPH D,JR 1542 ALDENEY AVE                        000N        CARE OF             
MTR04912000001000000000000000RA              00132898    005800620000006200000570000003NN  NNW 000                       N    
RDG04912000WATRL000000004K00000000000000885006103022015124441N000000000000N40       000110400K 10000000010000000885           
CUS0491200000104084494006         MANGUM ROLAND J,JR  1540 ALDENEY AVE                        000N        CARE OF             
MTR04912000001000000000000000RA              10011415    005800630000006300000570000003NN  NNW 000                       N    
RDG04912000WATRL000000004K00000000000000132006203022015124705N000000000000N40       001440400K 10000000010000000122           
CUS0491200000104084495003         MANGUM ROLAND J,JR  1538 ALDENEY AVE                        000N        CARE OF             
MTR04912000001000000000000000RA              30519438    005800640000006400000520000003NN  NNW 000                       N    
RDG04912000WATRL000000004K00000000000002490006303022015124710N000000000000N40       000050400K 10000000010000002483           
CUS0491200000104084496001         2011 CITY PROPERTIES1536 ALDENEY AVE                        000N        CARE OF             
MTR04912000001000000000000000RA              10010329    005800650000006500000570000003NN  NNW 000                       N    
RDG04912000WATRL000000004K00000000000000877006503022015125714N000000000000N40       005920400K 10000000010000000866           
CUS0491200000104084497009         COHEN IRVIN M       1534 ALDENEY AVE                        000N        CARE OF             
MTR04912000001000000000000000RA              01086304    005800660000006600000610000003NN  NNW 000                       N    
RDG04912000WATRL000000004K00000000000001459006603022015125718N000000000000N40       000040400K 10000000010000001451           
CUS0491200000104084498007         BALTIMORE SOLUTIONS 1532 ALDENEY AVE                        000N        CARE OF             
MTR04912000001000000000000000RA              30519255    005800670000006700000520000003NN  NNW 000                       N    
RDG04912000WATRL000000004K00000000000001041006703022015125752N000000000000N40       000340400K 10000000010000001028           
CUS0491200000104084499005         HAMILTON EDITH      1530 ALDENEY AVE                        000N        CARE OF             
MTR04912000001000000000000000RA              10010332    005800680000006800000570000003NN  NNW 000                       N    
RDG04912000WATRL000000004K00000000000000130006803022015125945N000000000000N40       001130400K 10000000010000000121           
CUS0491200000104084500000         HERD DAWNETTA M     1528 ALDENEY AVE                        000N        CARE OF             
MTR04912000001000000000000000RA              10010381    005800690000006900000570000003NN  NNW 000                       N    
RDG04912000WATRL000000004K00000000000000367006903022015125951N000000000000N40       000060400K 10000000010000000344           
CUS0491200000104084501008         CHANEY SCOTT L      1526 ALDENEY AVE                        000N        CARE OF             
MTR04912000001000000000000000RA              31585897    005800700000007000000520000003NN  NNW 000                       N    
RDG04912000WATRL000000004K00000000000000994007003022015130307N000000000000N40       001960400K 10000000010000000985           
CUS0491200000104084502006         WINGERD WILLIAM     1524 ALDENEY AVE                        000N        CARE OF             
MTR04912000001000000000000000RA              31585895    005800710000007100000520000003NN  NNW 000                       N    
RDG04912000WATRL000000004K00000000000003580007103022015130315N000000000000N40       000080400K 10000000010000003558           
CUS0491200000104084503004         CHANCE CAROLYN L    1522 ALDENEY AVE                        000N        CARE OF             
MTR04912000001000000000000000RA              14901302    005800720000007200000310000003NN  NNW 000                       N    
RDG04912000WATRL000000004K00000000000000770007203022015130935N000000000000N40       003800400K 10000000010000000759           
CUS0491200000104084504002         PETER I MICHAEL     1520 ALDENEY AVE                        000N        CARE OF             
MTR04912000001000000000000000RA              44178861    005800730000007300000520000003NN  NNW 000                       N    
RDG04912000WATRL000000004K00000000000002592007303022015130939N000000000000N40       000040400K 10000000010000002563           
CUS0491200000104084505009         FAVORITE DAVID J    1518 ALDENEY AVE                        000N        CARE OF             
MTR04912000001000000000000000RA              24763105    005800740000007400000520000003NN  NNW 000                       N    
RDG04912000WATRL000000004K00000000000002738007403022015130947N000000000000N40       000080400K 10000000010000002687           
CUS0491200000104084506007         FUENTES SELVIN      1516 ALDENEY AVE                        000N        CARE OF             
MTR04912000001000000000000000RA              10010334    005800750000007500000570000003NN  NNW 000                       N    
RDG04912000WATRL000000004K00000000000000391007503022015131700N000000000000N40       004330400K 10000000010000000369           
CUS0491200000104084507005         DAVID H.HILL III    1514 ALDENEY AVE                        000N        CARE OF             
MTR04912000001000000000000000RA              10010333    005800760000007600000570000003NN  NNW 000                       N    
RDG04912000WATRL000000004K00000000000000180007603022015131703N000000000000N40       000030400K 10000000010000000163           
CUS0491200000104084508003         HORNBERGER DORIS A  1512 ALDENEY AVE                        000N        CARE OF             
MTR04912000001000000000000000RA              24767972    005800770000007700000520000003NN  NNW 000                       N    
RDG04912000WATRL000000004K00000000000003684007703022015131952N000300000010N40       001690400K 10000000010000003674           
CUS0491200000104084509001         MICHELLE BRAY       1510 ALDENEY AVE                        000N        CARE OF             
MTR04912000001000000000000000RA              24767970    005800780000007800000520000003NN  NNW 000                       N    
RDG04912000WATRL000000004K00000000000001812007803022015132024N000000000021N40       000070400K 10000000010000001810           
CUS0491200000104084510009         OGUEZUONU MARYROSE E1508 ALDENEY AVE                        000N        CARE OF             
MTR04912000001000000000000000RA              10016302    005800790000007900000570000003NN  NNW 000                       N    
RDG04912000WATRL000000004K00000000000000219007903022015132116N000000000000N40       000520400K 10000000010000000207           
CUS0491200000104084511007         DAVIS DEBRA M       1506 ALDENEY AVE                        000N        CARE OF             
MTR04912000001000000000000000RA              14930780    005800800000008000000310000003NN  NNW 000                       N    
RDG04912000WATRL000000004K00000000000000323008003022015132122N000000000000N40       000060400K 10000000010000000311           
CUS0491200000104084512005         IVETTE LABOY        1504 ALDENEY AVE                        000N        CARE OF             
MTR04912000001000000000000000RA              26008512    005800810000008100000520000003NN  NNW 000                       N    
RDG04912000WATRL000000004K00000000000004260008103022015132539N000400000042N40       001900400K 10000000010000004248           
CUS0491200000104084513003         MICHAEL JOHN I      1502 ALDENEY AVE                        000N        CARE OF             
MTR04912000001000000000000000RA              31585970    005800820000008200000520000003NN  NNW 000                       N    
RDG04912000WATRL000000004K00000000000003172008203022015132728N000000000000N40       001090400K 10000000010000003161           
CUS0491200000104084514001         CIEPIELA BETTY      1500 ALDENEY AVE                        000N        CARE OF             
MTR04912000001000000000000000RA              31585975    005800830000008300000520000003NN  NNW 000                       N    
RDG04912000WATRL000000004K00000000000002344008303022015132745N000000000000N40       000170400K 10000000010000002332           
CUS0491200000104084515008         FERRELL RICHARD     1501 ALDENEY AVE                        000N        CARE OF             
MTR04912000001000000000000000RA              31585835    005800840000008400000520000003NN  NNW 000                       N    
RDG04912000WATRL000000004K00000000000003331008403022015132923N000000000000N40       000980400K 10000000010000003313           
CUS0491200000104084516006         MCCRAY DOROTHY      1503 ALDENEY AVE                        000N        CARE OF             
MTR04912000001000000000000000RA              33081232    005800850000008500000520000003NN  NNW 000                       N    
RDG04912000WATRL000000004K00000000000002226008503022015133124N000000000000N40       001210400K 10000000010000002215           
CUS0491200000104084517004         REAMES JOHN W,JR    1505 ALDENEY AVE                        000N        CARE OF             
MTR04912000001000000000000000RA              42809172    005800860000008600000520000003NN  NNW 000   VACANT / LOT        N    
RDG04912000WATRL000000004K00000000000001268008603022015133128N000000000000N40       000040400K 10000000010000001268           
CUS0491200000104084518002         BRADY HELEN K       1507 ALDENEY AVE                        000N        CARE OF             
MTR04912000001000000000000000RA              31582578    005800870000008700000520000003NN  NNW 000                       N    
RDG04912000WATRL000000004K00000000000001742008703022015133209N000000000000N40       000410400K 10000000010000001734           
CUS0491200000104084519000         MALLOY SATWATTEE    1509 ALDENEY AVE                        000N        CARE OF             
MTR04912000001000000000000000RA              44178858    005800880000008800000520000003NN  NNW 000                       N    
RDG04912000WATRL000000004K00000000000000916008803022015133212N000000000000N40       000030400K 10000000010000000897           
CUS0491200000104084520008         ROSENBERGER BURTON A1511 ALDENEY AVE                        000N        CARE OF             
MTR04912000001000000000000000RA              10010330    005800890000008900000570000003NN  NNW 000                       N    
RDG04912000WATRL000000004K00000000000000221008903022015133414N000000000000N40       001220400K 10000000010000000204           
CUS0491200000104084521006         SHROYER ROBERT L,JR 1513 ALDENEY AVE                        000N        CARE OF             
MTR04912000001000000000000000RA              10010331    005800900000009000000570000003NN  NNW 000                       N    
RDG04912000WATRL000000004K00000000000000228009003022015133419N000000000000N40       000050400K 10000000010000000217           
CUS0491200000104084522004         SYDNOR STEFANE      1515 ALDENEY AVE                        000N        CARE OF             
MTR04912000001000000000000000RA              31582550    005800910000009100000520000003NN  NNW 000                       N    
RDG04912000WATRL000000004K00000000000003855009103022015133633N000000000000N40       001340400K 10000000010000003845           
CUS0491200000104084523002         BUTLER MARY S       1517 ALDENEY AVE                        000N        CARE OF             
MTR04912000001000000000000000RA              75617201    005800920000009200000350000003NN  NNW 000                       N    
RDG04912000WATRL000000004K00000000000000105009203022015133639N000000000000N40       000060400K 10000000010000000085           
CUS0491200000104084524000         MCEWEN DAVID C      1519 ALDENEY AVE                        000N        CARE OF             
MTR04912000001000000000000000RA              01082874    005800930000009300000610000003NN  NNW 000                       N    
RDG04912000WATRL000000004K00000000000000361009503022015134726N000000000000N40       000060400K 10000000010000000352           
CUS0491200000104084525007         HOWARD FREDERICK L  1521 ALDENEY AVE                        000N        CARE OF             
MTR04912000001000000000000000RA              31582699    005800940000009400000520000003NN  NNW 000                       N    
RDG04912000WATRL000000004K00000000000004121009603022015134730N000000000000N40       000040400K 10000000010000004111           
CUS0491200000104084526005         MICHAEL CASCIERO    1523 ALDENEY AVE                        000N        CARE OF             
MTR04912000001000000000000000RA              00135321    005800950000009500000570000003NN  NNW 000                       N    
RDG04912000WATRL000000004K00000000000001526009703022015134734N000000000000N40       000040400K 10000000010000001517           
CUS0491200000104084527003         ADAMS JOHNNY E,JR   1525 ALDENEY AVE                        000N        CARE OF             
MTR04912000001000000000000000RA              31587822    005800960000009600000520000003NN  NNW 000                       N    
RDG04912000WATRL000000004K00000000000002869009303022015134713N000000000000N40       006340400K 10000000010000002869           
CUS0491200000104084528001         ALDERSON LAUREN E   1527 ALDENEY AVE                        000N        CARE OF             
MTR04912000001000000000000000RA              27831610    005800970000009700000520000003NN  NNW 000                       N    
RDG04912000WATRL000000004K00000000000002652009403022015134720N000000000000N40       000070400K 10000000010000002633           
CUS0491200000104084529009         DONOHOE GARY L      1529 ALDENEY AVE                        000N        CARE OF             
MTR04912000001000000000000000RA              27132972    005800980000009800000520000003NN  NNW 000                       N    
RDG04912000WATRL000000004K00000000000000624009803022015134911N000000000010N40       000970400K 10000000010000000624           
CUS0491200000104084530007         POWERS PAUL B       1531 ALDENEY AVE                        000N        CARE OF             
MTR04912000001000000000000000RA              27132978    005800990000009900000520000003NN  NNW 000                       N    
RDG04912000WATRL000000004K00000000000004503009903022015134922N000000000020N40       000110400K 10000000010000004503           
CUS0491200000104084531005         BURNS ALLEN K,JR    1533 ALDENEY AVE                        000N        CARE OF             
MTR04912000001000000000000000RA              10001890    005801000000010000000570000003NN  NNW 000                       N    
RDG04912000WATRL000000004K00000000000000702010003022015135023N000000000000N40       000610400K 10000000010000000678           
CUS0491200000104084532003         KRUMHOLTZ GINA      1535 ALDENEY AVE                        000N        CARE OF             
MTR04912000001000000000000000RA              10024956    005801010000010100000570000003NN  NNW 000                       N    
RDG04912000WATRL000000004K00000000000000163010103022015135104N000000000000N40       000410400K 10000000010000000142           
CUS0491200000104084533001         MOODY WILLIAM E,JR  1537 ALDENEY AVE                        000N        CARE OF             
MTR04912000001000000000000000RA              10010275    005801020000010200000570000003NN  NNW 000                       N    
RDG04912000WATRL000000004K00000000000000417010203022015135114N000000000000N40       000100400K 10000000010000000385           
CUS0491200000104084534009         GENDIMENICO EUGENE V1539 ALDENEY AVE                        000N        CARE OF             
MTR04912000001000000000000000RA              44178863    005801030000010300000520000003NN  NNW 000                       N    
RDG04912000WATRL000000004K00000000000000669010303022015135234N000000000000N40       000800400K 10000000010000000661           
CUS0491200000104084535006         MILLER GROVER C,JR  1541 ALDENEY AVE                        000N        CARE OF             
MTR04912000001000000000000000RA              35114950    005801040000010400000520000003NN  NNW 000                       N    
RDG04912000WATRL000000004K00000000000002789010403022015135304N000000000000N40       000300400K 10000000010000002770           
CUS0491200000104084536004         CAMPBELL JOAN MARY  1543 ALDENEY AVE                        000N        CARE OF             
MTR04912000001000000000000000RA              01080217    005801050000010500000610000003NN  NNW 000                       N    
RDG04912000WATRL000000004K00000000000001265010503022015135702N000000000000N40       002380400K 10000000010000001255           
CUS0491200000104084537002         DEROSADO VIANNY G B 1545 ALDENEY AVE                        000N        CARE OF             
MTR04912000001000000000000000RA              32574254    005801060000010600000520000003NN  NNW 000                       N    
RDG04912000WATRL000000004K00000000000003055010603022015135705N000000000000N40       000030400K 10000000010000003048           
CUS0491200000104084538000         CARTER DEMSHA D     1547 ALDENEY AVE                        000N        CARE OF             
MTR04912000001000000000000000RA              32901792    005801070000010700000520000003NN  NNW 000                       N    
RDG04912000WATRL000000004K00000000000003291010703022015135959N000000000000N40       001740400K 10000000010000003280           
CUS0491200000104084539008         MOODY MATTHEW B     1549 ALDENEY AVE                        000N        CARE OF             
MTR04912000001000000000000000RA              46885138    005801080000010800000520000003NN  NNW 000                       N    
RDG04912000WATRL000000004K00000000000001160010803022015140152N000000000000N40       001130400K 10000000010000001138           
CUS0491200000104084540006         CENTENO CORONADO    1551 ALDENEY AVE                        000N        CARE OF             
MTR04912000001000000000000000RA              76347185    005801090000010900000350000003NN  NNW 000                       N    
RDG04912000WATRL000000004K00000000000000117010903022015140206N000000000000N40       000140400K 10000000010000000067           
CUS0491200000104084541004         MICHAEL JOHN I      348 ENDSLEIGH AVE                       000N        CARE OF             
MTR04912000001000000000000000RA              52770457    005801100000011000000520000003NN  NNW 000                       N    
RDG04912000WATRL000000004K00000000000002618011003022015140413N000000000000N40       001270400K 10000000010000002604           
CUS0491200000104084542002         KRAUS DAWN M        346 ENDSLEIGH AVE                       000N        CARE OF             
MTR04912000001000000000000000RA              10015079    005801110000011100000570000003NN  NNW 000                       N    
RDG04912000WATRL000000004K00000000000000085011103022015140419N000000000000N40       000060400K 10000000010000000078           
CUS0491200000104084543000         STAFFORD HAROLD T   344 ENDSLEIGH AVE                       000N        CARE OF             
MTR04912000001000000000000000RA              41589966    005801120000011200000520000003NN  NNW 000                       N    
RDG04912000WATRL000000004K00000000000002788011203022015140659N000000000000N40       001600400K 10000000010000002755           
CUS0491200000104084544008         FPD ACQUISITIONS COR342 ENDSLEIGH AVE                       000N        CARE OF             
MTR04912000001000000000000000RA              54348111    005801130000011300000520000003NN  NNW 000                       N    
RDG04912000WATRL000000004K00000000000002144011303022015140810N000000000020N40       000710400K 10000000010000002126           
CUS0491200000104084545005         TROY ERNEST JONES   340 ENDSLEIGH AVE                       000N        CARE OF             
MTR04912000001000000000000000RA              54348025    005801140000011400000520000003NN  NNW 000                       N    
RDG04912000WATRL000000004K00000000000000998011403022015140816N000000000000N40       000060400K 10000000010000000984           
CUS0491200000104084546003         WILSON TIMOTHY      338 ENDSLEIGH AVE                       000N        CARE OF             
MTR04912000001000000000000000RA              10010402    005801150000011500000570000003NN  NNW 000                       N    
RDG04912000WATRL000000004K00000000000000336011503022015140925N000000000000N40       000690400K 10000000010000000313           
CUS0491200000104084547001         ROBINSON EARL ALLEN,336 ENDSLEIGH AVE                       000N        CARE OF             
MTR04912000001000000000000000RA              10010403    005801160000011600000570000003NN  NNW 000                       N    
RDG04912000WATRL000000004K00000000000000492011603022015140932N000100000010N40       000070400K 10000000010000000492           
CUS0491200000104084548009         LAU HERBERT         334 ENDSLEIGH AVE                       000N        CARE OF             
MTR04912000001000000000000000RA              01109761    005801170000011700000610000003NN  NNW 000                       N    
RDG04912000WATRL000000004K00000000000001465011703022015141004N000000000010N40       000320400K 10000000010000001449           
CUS0491200000104084549007         BEE HOMES LLC       332 ENDSLEIGH AVE                       000N        CARE OF             
MTR04912000001000000000000000RA              50786868    005801180000011800000520000003NN  NNW 000                       N    
RDG04912000WATRL000000004K00000000000001891011803022015141111N000000000030N40       000670400K 10000000010000001874           
CUS0491200000104084550005         MALONE PETER J      330 ENDSLEIGH AVE                       000N        CARE OF             
MTR04912000001000000000000000RA              50786928    005801190000011900000520000003NN  NNW 000                       N    
RDG04912000WATRL000000004K00000000000001368011903022015141117N000000000000N40       000060400K 10000000010000001358           
CUS0491200000104084551003         GRAHE KRISTINA L    1550 BECKLOW AVE                        000N        CARE OF             
MTR04912000001000000000000000RA              46878470    005801200000012000000520000003NN  NNW 000                       N    
RDG04912000WATRL000000004K00000000000001788000303032015124332N000000000000U40       002540400K 10000000010000001767           
CUS0491200000104084552001         CATES HEATHER J     1548 BECKLOW AVE                        000N        CARE OF             
MTR04912000001000000000000000RA              31585814    005801210000012100000520000003NN  NNW 000                       N    
RDG04912000WATRL000000004K00000000000002296000403032015124337N000000000000U40       000050400K 10000000010000002288           
CUS0491200000104084553009         SCOTT DONNA L       1546 BECKLOW AVE                        000N        CARE OF             
MTR04912000001000000000000000RA              10008016    005801220000012200000570000003NN  NNW 000                       N    
RDG04912000WATRL000000004K00000000000000817000503032015124549N000000000000U40       001320400K 10000000010000000773           
CUS0491200000104084554007         KOERNER FRANCIS J   1544 BECKLOW AVE                        000N        CARE OF             
MTR04912000001000000000000000RA              27826179    005801230000012300000520000003NN  NNW 000                       N    
RDG04912000WATRL000000004K00000000000003927000603032015124606N000000000000U40       000170400K 10000000010000003880           
CUS0491200000104084555004         IWEHA CHRIS C       1542 BECKLOW AVE                        000N        CARE OF             
MTR04912000001000000000000000RA              41081474    005801240000012400000520000003NN  NNW 000                       N    
RDG04912000WATRL000000004K00000000000001957000103032015123903N000000000000U40       000000400K 10000000010000001932           
CUS0491200000104084556002         MAYS REGINALD L     1540 BECKLOW AVE                        000N        CARE OF             
MTR04912000001000000000000000RA              23644167    005801250000012500000520000003NN  NNW 000                       N    
RDG04912000WATRL000000004K00000000000003652000203032015123918N000000000000U40       000150400K 10000000010000003642           
CUS0491200000104084557000         GENDIMENICO JOSEPH D1538 BECKLOW AVE                        000N        CARE OF             
MTR04912000001000000000000000RA              75617700    005801260000012600000350000003NN  NNW 000                       N    
RDG04912000WATRL000000004K00000000000000048000703032015124916N000000000000U40       001900400K 10000000010000000041           
CUS0491200000104084558008         ELLIS GREGORY T     1536 BECKLOW AVE                        000N        CARE OF             
MTR04912000001000000000000000RA              46886810    005801270000012700000520000003NN  NNW 000                       N    
RDG04912000WATRL000000004K00000000000001157000803032015125055N000300000010U40       000990400K 10000000010000001146           
CUS0491200000104084559006         JENKINS WAYNE       1534 BECKLOW AVE                        000N        CARE OF             
MTR04912000001000000000000000RA              50480539    005801280000012800000520000003NN  NNW 000                       N    
RDG04912000WATRL000000004K00000000000000114000903032015125058N000000000000U40       000030400K 10000000010000000108           
CUS0491200000104084560004         JENKINS ROBERT E    1532 BECKLOW AVE                        000N        CARE OF             
MTR04912000001000000000000000RA              31585833    005801290000012900000520000003NN  NNW 000                       N    
RDG04912000WATRL000000004K00000000000002976001003032015125221N000000000040U40       000830400K 10000000010000002973           
CUS0491200000104084561002         BINKO GERARD M      1530 BECKLOW AVE                        000N        CARE OF             
MTR04912000001000000000000000RA              30525337    005801300000013000000520000003NN  NNW 000                       N    
RDG04912000WATRL000000004K00000000000005085001103032015125243N000000000000U40       000220400K 10000000010000005054           
CUS0491200000104084562000         FANGMANN RAYMOND J  1528 BECKLOW AVE                        000N        CARE OF             
MTR04912000001000000000000000RA              10024180    005801310000013100000570000003NN  NNW 000                       N    
RDG04912000WATRL000000004K00000000000000203001203032015125451N000000000000U40       001280400K 10000000010000000190           
CUS0491200000104084563008         JEFFREY CORNBROOKS  1526 BECKLOW AVE                        000N        CARE OF             
MTR04912000001000000000000000RA              24758841    005801320000013200000520000003NN  NNW 000                       N    
RDG04912000WATRL000000004K00000000000001987001303032015125459N000000000010U40       000080400K 10000000010000001987           
CUS0491200000104084564006         FAVORITE DAVID R    1524 BECKLOW AVE                        000N        CARE OF             
MTR04912000001000000000000000RA              11429558    005801330000013300000520000003NN  NNW 000                       N    
RDG04912000WATRL000000004K00000000000005421001403032015125553N000000000000U40       000540400K 10000000010000005410           
CUS0491200000104084565003         UMBARGER GLENN EDWAR1522 BECKLOW AVE                        000N        CARE OF             
MTR04912000001000000000000000RA              44178859    005801340000013400000520000003NN  NNW 000                       N    
RDG04912000WATRL000000004K00000000000004247001503032015125625N000000000000U40       000320400K 10000000010000004210           
CUS0491200000104084566001         SWIGER LEONARD P    1520 BECKLOW AVE                        000N        CARE OF             
MTR04912000001000000000000000RA              24758633    005801350000013500000520000003NN  NNW 000                       N    
RDG04912000WATRL000000004K00000000000006632001603032015125629N000000000000U40       000040400K 10000000010000006589           
CUS0491200000104084567009         SHIRKEY AUBREY B    1518 BECKLOW AVE                        000N        CARE OF             
MTR04912000001000000000000000RA              30526394    005801360000013600000520000003NN  NNW 000                       N    
RDG04912000WATRL000000004K00000000000003400001703032015125736N000000000000U40       000670400K 10000000010000003383           
CUS0491200000104084568007         RE MEMBERS B LLC    1516 BECKLOW AVE                        000N        CARE OF             
MTR04912000001000000000000000RA              30526392    005801370000013700000520000003NN  NNW 000                       N    
RDG04912000WATRL000000004K00000000000004200001803032015125738N000000000000U40       000020400K 10000000010000004176           
CUS0491200000104084569005         PATTERSON TROY M    1514 BECKLOW AVE                        000N        CARE OF             
MTR04912000001000000000000000RA              44178838    005801380000013800000520000003NN  NNW 000                       N    
RDG04912000WATRL000000004K00000000000003666001903032015125848N000000000000U40       000700400K 10000000010000003630           
CUS0491200000104084570003         DORBERT ROSALIE D   1512 BECKLOW AVE                        000N        CARE OF             
MTR04912000001000000000000000RA              44178839    005801390000013900000520000003NN  NNW 000                       N    
RDG04912000WATRL000000004K00000000000001654002003032015125852N000000000000U40       000040400K 10000000010000001650           
CUS0491200000104084571001         SWIGER, PATRICIA    1510 BECKLOW AVE                        000N        CARE OF             
MTR04912000001000000000000000RA              01084668    005801400000014000000610000003NN  NNW 000                       N    
RDG04912000WATRL000000004K00000000000001738002103032015130147N000000000000U40       001750400K 10000000010000001712           
CUS0491200000104084572009         MICHELLE MAGTANONG  1508 BECKLOW AVE                        000N        CARE OF             
MTR04912000001000000000000000RA              44178899    005801410000014100000520000003NN  NNW 000                       N    
RDG04912000WATRL000000004K00000000000003254002203032015130427N000000000000U40       001600400K 10000000010000003241           
CUS0491200000104084573007         GRUBER PHILIP A     1506 BECKLOW AVE                        000N        CARE OF             
MTR04912000001000000000000000RA              45378010    005801420000014200000520000003NN  NNW 000                       N    
RDG04912000WATRL000000004K00000000000003165002303032015130443N000000000030U40       000160400K 10000000010000003161           
CUS0491200000104084574005         HICKS SHERRIE       1504 BECKLOW AVE                        000N        CARE OF             
MTR04912000001000000000000000RA              30519158    005801430000014300000520000003NN  NNW 000                       N    
RDG04912000WATRL000000004K00000000000002435002503032015130646N000000000000U40       000860400K 10000000010000002421           
CUS0491200000104084575002         BOB K VONTY         1502 BECKLOW AVE                        000N        CARE OF             
MTR04912000001000000000000000RA              30519230    005801440000014400000520000003NN  NNW 000                       N    
RDG04912000WATRL000000004K00000000000003001002603032015130652N000000000001U40       000060400K 10000000010000002971           
CUS0491200000104084576000         1500 BECKLOW LLC    1500 BECKLOW AVE                        000N        CARE OF             
MTR04912000001000000000000000RA              30527140    005801450000014500000520000003NN  NNW 000                       N    
RDG04912000WATRL000000004K00000000000002615002403032015130520N000000000000U40       000370400K 10000000010000002615           
CUS0491200000104084577008         SMITH EDWARD S      1501 BECKLOW AVE                        000N        CARE OF             
MTR04912000001000000000000000RA              23051451    005801460000014600000520000003NN  NNW 000                       N    
RDG04912000WATRL000000004K00000000000004130002703032015130823N000000000000U40       000910400K 10000000010000004112           
CUS0491200000104084578006         DONYEL ROGERS       1503 BECKLOW AVE                        000N        CARE OF             
MTR04912000001000000000000000RA              31585837    005801470000014700000520000003NN  NNW 000                       N    
RDG04912000WATRL000000004K00000000000003092002803032015130855N000000000000U40       000320400K 10000000010000003054           
CUS0491200000104084579004         WAITHIRA MARGARET   1505 BECKLOW AVE                        000N        CARE OF             
MTR04912000001000000000000000RA              24232418    005801480000014800000520000003NN  NNW 000                       N    
RDG04912000WATRL000000004K00000000000002372002903032015130904N000000000000U40       000090400K 10000000010000002335           
CUS0491200000104084580002         MCCOURRY BRIAN ROGER1507 BECKLOW AVE                        000N        CARE OF             
MTR04912000001000000000000000RA              10010401    005801490000014900000570000003NN  NNW 000                       N    
RDG04912000WATRL000000004K00000000000000398003003032015130934N000000000000U40       000300400K 10000000010000000377           
CUS0491200000104084581000         DENISE M THOMAS     1509 BECKLOW AVE                        000N        CARE OF             
MTR04912000001000000000000000RA              10010398    005801500000015000000570000003NN  NNW 000                       N    
RDG04912000WATRL000000004K00000000000000148003103032015130938N000000000000U40       000040400K 10000000010000000132           
CUS0491200000104084582008         COMNINOS ANDREAS    1511 BECKLOW AVE                        000N        CARE OF             
MTR04912000001000000000000000RA              44178836    005801510000015100000520000003NN  NNW 000                       N    
RDG04912000WATRL000000004K00000000000002026003203032015131135N000000000000U40       001170400K 10000000010000002019           
CUS0491200000104084583006         WEARINS SHARON      1513 BECKLOW AVE                        000N        CARE OF             
MTR04912000001000000000000000RA              26009177    005801520000015200000520000003NN  NNW 000                       N    
RDG04912000WATRL000000004K00000000000006825003303032015131140N000000000001U40       000050400K 10000000010000006779           
CUS0491200000104084584004         JLG GROUP LLC       1515 BECKLOW AVE                        000N        CARE OF             
MTR04912000001000000000000000RA              30519277    005801530000015300000520000003NN  NNW 000                       N    
RDG04912000WATRL000000004K00000000000004894003403032015131650N000000000020U40       003100400K 10000000010000004878           
CUS0491200000104084585001         MCCLAIN CARLOS M    1517 BECKLOW AVE                        000N        CARE OF             
MTR04912000001000000000000000RA              30519435    005801540000015400000520000003NN  NNW 000                       N    
RDG04912000WATRL000000004K00000000000002041003503032015131747N000000000090U40       000570400K 10000000010000001996           
CUS0491200000104084586009         ASBURY KITTY SUE    1519 BECKLOW AVE                        000N        CARE OF             
MTR04912000001000000000000000RA              10014080    005801550000015500000570000003NN  NNW 000                       N    
RDG04912000WATRL000000004K00000000000000444003603032015131754N000000000000U40       000070400K 10000000010000000406           
CUS0491200000104084587007         WILMERING PAUL M    1521 BECKLOW AVE                        000N        CARE OF             
MTR04912000001000000000000000RA              23644160    005801560000015600000520000003NN  NNW 000                       N    
RDG04912000WATRL000000004K00000000000003190003703032015131759N000000000000U40       000050400K 10000000010000003170           
CUS0491200000104084588005         UMBARGER AMARIS B   1523 BECKLOW AVE                        000N        CARE OF             
MTR04912000001000000000000000RA              31585834    005801570000015700000520000003NN  NNW 000                       N    
RDG04912000WATRL000000004K00000000000003489003803032015131910N000000000010U40       000710400K 10000000010000003469           
CUS0491200000104084589003         LOUDERMILK WANDA M  1525 BECKLOW AVE                        000N        CARE OF             
MTR04912000001000000000000000RA              31585836    005801580000015800000520000003NN  NNW 000                       N    
RDG04912000WATRL000000004K00000000000003615003903032015131914N000000000000U40       000040400K 10000000010000003571           
CUS0491200000104084590001         RE MEMBERS 50, LLC  1527 BECKLOW AVE                        000N        CARE OF             
MTR04912000001000000000000000RA              24222218    005801590000015900000520000003NN  NNW 000                       N    
RDG04912000WATRL000000004K00000000000003251004003032015132318N000000000000U40       002440400K 10000000010000003240           
CUS0491200000104084591009         SYKES MELISSA A     1529 BECKLOW AVE                        000N        CARE OF             
MTR04912000001000000000000000RA              39291525    005801600000016000000520000003NN  NNW 000                       N    
RDG04912000WATRL000000004K00000000000002635004103032015132321N000000000000U40       000030400K 10000000010000002626           
CUS0491200000104084592007         DEBORAH L NESS      1531 BECKLOW AVE                        000N        CARE OF             
MTR04912000001000000000000000RA              78023995    005801610000016100000360000003NN  NNW 000                       N    
RDG04912000WATRL000000004K00000000000000000004203032015133049N000000000011U40       000160400K 10000000010000000000           
CUS0491200000104084593005         GEBHARDT LAWRENCE J 1533 BECKLOW AVE                        000N        CARE OF             
MTR04912000001000000000000000RA              10004388    005801620000016200000570000003NN  NNW 000                       N    
RDG04912000WATRL000000004K00000000000000615004303032015133033N000000000010U40       000170400K 10000000010000000604           
CUS0491200000104084594003         KNIGHT ROY E,JR     1535 BECKLOW AVE                        000N        CARE OF             
MTR04912000001000000000000000RA              76349323    005801630000016300000350000003NN  NNW 000                       N    
RDG04912000WATRL000000004K00000000000000045004403032015133053N000000000000U40       000040400K 10000000010000000026           
CUS0491200000104084595000         SEDLER CARL L       1537 BECKLOW AVE                        000N        CARE OF             
MTR04912000001000000000000000RA              40323070    005801640000016400000520000003NN  NNW 000                       N    
RDG04912000WATRL000000004K00000000000003025004503032015133056N000000000000U40       000030400K 10000000010000003016           
CUS0491200000104084596008         PEYTON LEON J       1539 BECKLOW AVE                        000N        CARE OF             
MTR04912000001000000000000000RA              44178862    005801650000016500000520000003NN  NNW 000                       N    
RDG04912000WATRL000000004K00000000000002774004603032015133318N000000000000U40       001420400K 10000000010000002757           
CUS0491200000104084597006         GLENN O DAVIS       1541 BECKLOW AVE                        000N        CARE OF             
MTR04912000001000000000000000RA              44178894    005801660000016600000520000003NN  NNW 000                       N    
RDG04912000WATRL000000004K00000000000002877004703032015134127N000000000010U40       004890400K 10000000010000002861           
CUS0491200000104084598004         VP REAL ESTATE      1543 BECKLOW AVE                        000N        CARE OF             
MTR04912000001000000000000000RA              23646776    005801670000016700000520000003NN  NNW 000                       N    
RDG04912000WATRL000000004K00000000000003055004803032015134130N000000000000U40       000030400K 10000000010000003043           
CUS0491200000104084599002         HOLT GLENN,JR       1545 BECKLOW AVE                        000N        CARE OF             
MTR04912000001000000000000000RA              24761118    005801680000016800000520000003NN  NNW 000                       N    
RDG04912000WATRL000000004K00000000000001662004903032015134944N000000000000U40       004940400K 10000000010000001655           
CUS0491200000104084600008         TODD A MULLOY       1547 BECKLOW AVE                        000N        CARE OF             
MTR04912000001000000000000000RA              46886924    005801690000016900000520000003NN  NNW 000                       N    
RDG04912000WATRL000000004K00000000000004403005003032015134957N000000000000U40       000130400K 10000000010000004381           
CUS0491200000104084601006         BALLARD GRANVILLE C 1549 BECKLOW AVE                        000N        CARE OF             
MTR04912000001000000000000000RA              10010395    005801700000017000000570000003NN  NNW 000                       N    
RDG04912000WATRL000000004K00000000000000548005103032015135110N000000000000U40       000730400K 10000000010000000505           
CUS0491200000104084602004         THOMAS REILLY       1551 BECKLOW AVE                        000N        CARE OF             
MTR04912000001000000000000000RA              10010400    005801710000017100000570000003NN  NNW 000                       N    
RDG04912000WATRL000000004K00000000000000140005203032015135120N000000000000U40       000100400K 10000000010000000133           
CUS0491200000104084603002         NANCE LEVERN        320 ENDSLEIGH AVE                       000N        CARE OF             
MTR04912000001000000000000000RA              00132698    005801720000017200000570000003NN  NNW 000                       N    
RDG04912000WATRL000000004K00000000000002121005303032015135515N000000000000U40       002350400K 10000000010000002111           
CUS0491200000104084604000         DEAR JOHN CHARLES   318 ENDSLEIGH AVE                       000N        CARE OF             
MTR04912000001000000000000000RA              00132421    005801730000017300000570000003NN  NNW 000                       N    
RDG04912000WATRL000000004K00000000000001506005403032015135524N000000000020U40       000090400K 10000000010000001491           
CUS0491200000104084605007         THARPE ALBERT L,JR  316 ENDSLEIGH AVE                       000N        CARE OF             
MTR04912000001000000000000000RA              01083990    005801740000017400000610000003NN  NNW 000                       N    
RDG04912000WATRL000000004K00000000000000982005503032015135731N000000000010U40       001270400K 10000000010000000959           
CUS0491200000104084606005         PLUMMER MELVIN J    314 ENDSLEIGH AVE                       000N        CARE OF             
MTR04912000001000000000000000RA              01078141    005801750000017500000610000003NN  NNW 000                       N    
RDG04912000WATRL000000004K00000000000000483005603032015135742N000000000000U40       000110400K 10000000010000000474           
CUS0491200000104084607003         SALIK JANET C       312 ENDSLEIGH AVE                       000N        CARE OF             
MTR04912000001000000000000000RA              27814550    005801760000017600000520000003NN  NNW 000                       N    
RDG04912000WATRL000000004K00000000000004599005703032015140152N000000000091U40       000540400K 10000000010000004535           
CUS0491200000104084608001         HARMON HENRI W JR   310 ENDSLEIGH AVE                       000N        CARE OF             
MTR04912000001000000000000000RA              14924045    005801770000017700000310000003NN  NNW 000                       N    
RDG04912000WATRL000000004K00000000000000524005803032015140252N000000000000U40       000600400K 10000000010000000481           
CUS0491200000104084609009         BARR THOMAS         308 ENDSLEIGH AVE                       000N        CARE OF             
MTR04912000001000000000000000RA              46882626    005801780000017800000520000003NN  NNW 000                       N    
RDG04912000WATRL000000004K00000000000002815005903032015140309N000000000000U40       000170400K 10000000010000002787           
CUS0491200000104084610007         MORAN NANCY MARIE   306 ENDSLEIGH AVE                       000N        CARE OF             
MTR04912000001000000000000000RA              14920189    005801790000017900000310000003NN  NNW 000                       N    
RDG04912000WATRL000000004K00000000000000332006003032015140420N000000000000U40       000710400K 10000000010000000321           
CUS0491200000104084611005         BURGESS BILLIE H    304 ENDSLEIGH AVE                       000N        CARE OF             
MTR04912000001000000000000000RA              76347348    005801800000018000000350000003NN  NNW 000                       N    
RDG04912000WATRL000000004K00000000000000062006103032015140427N000000000000U40       000070400K 10000000010000000053           
CUS0491200000104084612003         HONEYCUTT DAVID W   302 ENDSLEIGH AVE                       000N        CARE OF             
MTR04912000001000000000000000RA              14900894    005801810000018100000310000003NN  NNW 000                       N    
RDG04912000WATRL000000004K00000000000001464006203032015140619N000000000000U40       001120400K 10000000010000001432           
CUS0491200000104084613001         DELSIGNORE ROBERT W 1550 CHILWORTH AVE                      000N        CARE OF             
MTR04912000001000000000000000RA              46879124    005801820000018200000520000003NN  NNW 000                       N    
RDG04912000WATRL000000004K00000000000000720006303032015140820N000000000000U40       001210400K 10000000010000000700           
CUS0491200000104084614009         HONEYCUTT JAMES/GLEN1548 CHILWORTH AVE                      000N        CARE OF             
MTR04912000001000000000000000RA              27821540    005801830000018300000520000003NN  NNW 000                       N    
RDG04912000WATRL000000004K00000000000003891006403032015140824N000000000000U40       000040400K 10000000010000003881           
CUS0491200000104084615006         RIVERA CHRISTOPHER E1546 CHILWORTH AVE                      000N        CARE OF             
MTR04912000001000000000000000RA              01094182    005801840000018400000610000003NN  NNW 000                       N    
RDG04912000WATRL000000004K00000000000000443006503032015141112N000300000010U40       001680400K 10000000010000000433           
CUS0491200000104084616004         WALTER HERBERT A,JR 1544 CHILWORTH AVE                      000N        CARE OF             
MTR04912000001000000000000000RA              10011158    005801850000018500000570000003NN  NNW 000                       N    
RDG04912000WATRL000000004K00000000000000256006603032015141124N000000000000U40       000120400K 10000000010000000229           
CUS0491200000104084617002         SAVITSKI FRANK, JR  1542 CHILWORTH AVE                      000N        CARE OF             
MTR04912000001000000000000000RA              44178529    005801860000018600000520000003NN  NNW 000                       N    
RDG04912000WATRL000000004K00000000000001058006703032015141213N000000000000U40       000490400K 10000000010000001046           
CUS0491200000104084618000         GILBERT WILLIAM J   1540 CHILWORTH AVE                      000N        CARE OF             
MTR04912000001000000000000000RA              29686977    005801870000018700000520000003NN  NNW 000                       N    
RDG04912000WATRL000000004K00000000000003178006803032015141352N000000000010U40       000990400K 10000000010000003178           
CUS0491200000104084619008         DERKOWSKI RICHARD K 1538 CHILWORTH AVE                      000N        CARE OF             
MTR04912000001000000000000000RA              29686979    005801880000018800000520000003NN  NNW 000                       N    
RDG04912000WATRL000000004K00000000000002006006903032015141400N000000000020U40       000080400K 10000000010000001991           
CUS0491200000104084620006         TIFFANY L QUEEN     1536 CHILWORTH AVE                      000N        CARE OF             
MTR04912000001000000000000000RA              31585815    005801890000018900000520000003NN  NNW 000                       N    
RDG04912000WATRL000000004K00000000000001402007003032015141843N000000000000U40       002830400K 10000000010000001385           
CUS0491200000104084621004         KAIN WILLIAM J,2ND  1534 CHILWORTH AVE                      000N        CARE OF             
MTR04912000001000000000000000RA              31585819    005801900000019000000520000003NN  NNW 000                       N    
RDG04912000WATRL000000004K00000000000004074007103032015141902N000000000000U40       000190400K 10000000010000004046           
CUS0491200000104084622002         VIPPERMAN CLARENCE  1532 CHILWORTH AVE                      000N        CARE OF             
MTR04912000001000000000000000RA              99287490    005801910000019100000570000003NN  NNW 000                       N    
RDG04912000WATRL000000004K00000000000001105007203032015141952N000000000000U40       000500400K 10000000010000001089           
CUS0491200000104084623000         KANE SANDRA T       1530 CHILWORTH AVE                      000N        CARE OF             
MTR04912000001000000000000000RA              44093296    005801920000019200000520000003NN  NNW 000                       N    
RDG04912000WATRL000000004K00000000000002062007303032015141957N000000000000U40       000050400K 10000000010000002021           
CUS0491200000104084624008         GWENDOLPH J ALLEN   1528 CHILWORTH AVE                      000N        CARE OF             
MTR04912000001000000000000000RA              44178522    005801930000019300000520000003NN  NNW 000                       N    
RDG04912000WATRL000000004K00000000000000708007403032015142035N000000000000U40       000380400K 10000000010000000697           
CUS0491200000104084625005         PEDRICK ROBERT      1526 CHILWORTH AVE                      000N        CARE OF             
MTR04912000001000000000000000RA              31585817    005801940000019400000520000003NN  NNW 000                       N    
RDG04912000WATRL000000004K00000000000002259007503032015142224N000000000000U40       001090400K 10000000010000002255           
CUS0491200000104084626003         THOMPSON DENNIS R,SR1524 CHILWORTH AVE                      000N        CARE OF             
MTR04912000001000000000000000RA              31585832    005801950000019500000520000003NN  NNW 000                       N    
RDG04912000WATRL000000004K00000000000003328007603032015142237N000000000000U40       000130400K 10000000010000003304           
CUS0491200000104084627001         FEDERAL HOME LOAN MO1522 CHILWORTH AVE                      000N        CARE OF             
MTR04912000001000000000000000RA              40048218    005801960000019600000520000003NN  NNW 000                       N    
RDG04912000WATRL000000004K00000000000001472007703032015142313N000000000000U40       000360400K 10000000010000001456           
CUS0491200000104084628009         SUMMERS ANNA IRENE  1520 CHILWORTH AVE                      000N        CARE OF             
MTR04912000001000000000000000RA              30519274    005801970000019700000520000003NN  NNW 000                       N    
RDG04912000WATRL000000004K00000000000002356007803032015142320N000000000000U40       000070400K 10000000010000002345           
CUS0491200000104084629007         MICHAEL PETER ISA   1518 CHILWORTH AVE                      000N        CARE OF             
MTR04912000001000000000000000RA              31585375    005801980000019800000520000003NN  NNW 000                       N    
RDG04912000WATRL000000004K00000000000001406007903032015142403N000000000000U40       000430400K 10000000010000001384           
CUS0491200000104084630005         PFARR STEVEN A      1516 CHILWORTH AVE                      000N        CARE OF             
MTR04912000001000000000000000RA              44178658    005801990000019900000520000003NN  NNW 000                       N    
RDG04912000WATRL000000004K00000000000003291008003032015142411N000000000000U40       000080400K 10000000010000003215           
CUS0491200000104084631003         MICHAELS REALTY LLC 1514 CHILWORTH AVE                      000N        CARE OF             
MTR04912000001000000000000000RA              01113337    005802000000020000000610000003NN  NNW 000                       N    
RDG04912000WATRL000000004K00000000000000472008103032015142532N000000000000U40       000810400K 10000000010000000459           
CUS0491200000104084632001         DAVID S MICHEL      1512 CHILWORTH AVE                      000N        CARE OF             
MTR04912000001000000000000000RA              01113341    005802010000020100000610000003NN  NNW 000                       N    
RDG04912000WATRL000000004K00000000000000492008203032015142547N000000000000U40       000150400K 10000000010000000485           
CUS0491200000104084633009         LAW LAWRENCE        1510 CHILWORTH AVE                      000N        CARE OF             
MTR04912000001000000000000000RA              27133007    005802020000020200000520000003NN  NNW 000                       N    
RDG04912000WATRL000000004K00000000000003769008303032015142650N000000000000U40       000630400K 10000000010000003758           
CUS0491200000104084634007         KRAUSE RONALD A,JR  1508 CHILWORTH AVE                      000N        CARE OF             
MTR04912000001000000000000000RA              50790630    005802030000020300000520000003NN  NNW 000                       N    
RDG04912000WATRL000000004K00000000000001249008403032015142658N000000000000U40       000080400K 10000000010000001218           
CUS0491200000104084635004         LANE CHARLENE       1506 CHILWORTH AVE                      000N        CARE OF             
MTR04912000001000000000000000RA              10004234    005802040000020400000570000003NN  NNW 000                       N    
RDG04912000WATRL000000004K00000000000000555008503032015142821N000000000000U40       000830400K 10000000010000000514           
CUS0491200000104084636002         JONES JOSEPH        1504 CHILWORTH AVE                      000N        CARE OF             
MTR04912000001000000000000000RA              40320855    005802050000020500000520000003NN  NNW 000                       N    
RDG04912000WATRL000000004K00000000000003022008603032015142831N000000000000U40       000100400K 10000000010000003001           
CUS0491200000104084637000         OLIVA LESTER M      1502 CHILWORTH AVE                      000N        CARE OF             
MTR04912000001000000000000000RA              24759466    005802060000020600000520000003NN  NNW 000                       N    
RDG04912000WATRL000000004K00000000000004369008703032015142954N000000000000U40       000830400K 10000000010000004359           
CUS0491200000104084638008         DESKIN DANNY GARLIN 1500 CHILWORTH AVE                      000N        CARE OF             
MTR04912000001000000000000000RA              24958635    005802070000020700000520000003NN  NNW 000                       N    
RDG04912000WATRL000000004K00000000000003535008803032015143002N000000000000U40       000080400K 10000000010000003511           
CUS0491200000104084639006         EUGENE D WITHROW JR 1501 CHILWORTH AVE                      000N        CARE OF             
MTR04912000001000000000000000RA              01097673    005802080000020800000610000003NN  NNW 000                       N    
RDG04912000WATRL000000004K00000000000000500020903022015182740N000000000000N40       000030400K 10000000010000000489           
CUS0491200000104084640004         ALT MARY ANN        1503 CHILWORTH AVE                      000N        CARE OF             
MTR04912000001000000000000000RA              01096664    005802090000020900000610000003NN  NNW 000                       N    
RDG04912000WATRL000000004K00000000000001849020803022015182737N000000000010N40       000060400K 10000000010000001840           
CUS0491200000104084641002         HAMILTON ROBERT B   1505 CHILWORTH AVE                      000N        CARE OF             
MTR04912000001000000000000000RA              31585372    005802100000021000000520000003NN  NNW 000                       N    
RDG04912000WATRL000000004K00000000000002716020703022015182731N000000000000N40       000050400K 10000000010000002705           
CUS0491200000104084642000         CHILWORTH MANAGEMENT1507 CHILWORTH AVE                      000N        CARE OF             
MTR04912000001000000000000000RA              11427429    005802110000021100000520000003NN  NNW 000                       N    
RDG04912000WATRL000000004K00000000000004699020603022015182726N000000000091N40       000170400K 10000000010000004662           
CUS0491200000104084643008         WALKER AMBER R      1509 CHILWORTH AVE                      000N        CARE OF             
MTR04912000001000000000000000RA              31585377    005802120000021200000520000003NN  NNW 000                       N    
RDG04912000WATRL000000004K00000000000002110020503022015182643N000000000000N40       000050400K 10000000010000002102           
CUS0491200000104084644006         BOHLEN JOHN H,JR    1511 CHILWORTH AVE                      000N        CARE OF             
MTR04912000001000000000000000RA              01071916    005802130000021300000610000003NN  NNW 000                       N    
RDG04912000WATRL000000004K00000000000000326020403022015182638N000000000000N40       000030400K 10000000010000000318           
CUS0491200000104084645003         RODNEY SANDRA A     1513 CHILWORTH AVE                      000N        CARE OF             
MTR04912000001000000000000000RA              01071812    005802140000021400000610000003NN  NNW 000                       N    
RDG04912000WATRL000000004K00000000000000842020303022015182635N000000000000N40       000060400K 10000000010000000831           
CUS0491200000104084646001         QUEEN ANN TERESA    1515 CHILWORTH AVE                      000N        CARE OF             
MTR04912000001000000000000000RA              76349072    005802150000021500000350000003NN  NNW 000                       N    
RDG04912000WATRL000000004K00000000000000000020203022015182629N000000000000N40       000020400K 10000000010000000000           
CUS0491200000104084647009         SCHAUB PAUL A       1517 CHILWORTH AVE                      000N        CARE OF             
MTR04912000001000000000000000RA              31585381    005802160000021600000520000003NN  NNW 000                       N    
RDG04912000WATRL000000004K00000000000002534020103022015182627N000100000093N40       000070400K 10000000010000002534           
CUS0491200000104084648007         CANNON DEBORAH R    1519 CHILWORTH AVE                      000N        CARE OF             
MTR04912000001000000000000000RA              44178517    005802170000021700000520000003NN  NNW 000                       N    
RDG04912000WATRL000000004K00000000000001341020003022015182514N000000000000N40       000070400K 10000000010000001327           
CUS0491200000104084649005         EVANS KAREN MARIE   1521 CHILWORTH AVE                      000N        CARE OF             
MTR04912000001000000000000000RA              10003287    005802180000021800000570000003NN  NNW 000                       N    
RDG04912000WATRL000000004K00000000000000386019903022015182507N000000000020N40       000100400K 10000000010000000373           
CUS0491200000104084650003         SCHULER EDWARD      1523 CHILWORTH AVE                      000N        CARE OF             
MTR04912000001000000000000000RA              27813098    005802190000021900000520000003NN  NNW 000                       N    
RDG04912000WATRL000000004K00000000000001669019803022015182457N000000000020N40       000140400K 10000000010000001669           
CUS0491200000104084651001         HARRON FREDERICK R  1525 CHILWORTH AVE                      000N        CARE OF             
MTR04912000001000000000000000RA              10015245    005802200000022000000570000003NN  NNW 000                       N    
RDG04912000WATRL000000004K00000000000000163019703022015182443N000000000010N40       000140400K 10000000010000000151           
CUS0491200000104084652009         BOHLEN WILLIAM H    1527 CHILWORTH AVE                      000N        CARE OF             
MTR04912000001000000000000000RA              75617664    005802210000022100000350000003NN  NNW 000                       N    
RDG04912000WATRL000000004K00000000000000045019603022015182429N000000000071N40       000040400K 10000000010000000041           
CUS0491200000104084653007         PATTERSON CHARLES E 1529 CHILWORTH AVE                      000N        CARE OF             
MTR04912000001000000000000000RA              31585379    005802220000022200000520000003NN  NNW 000                       N    
RDG04912000WATRL000000004K00000000000003372019503022015182407N000000000000N40       000050400K 10000000010000003364           
CUS0491200000104084654005         OGORKIEWICZ AGNIESZK1531 CHILWORTH AVE                      000N        CARE OF             
MTR04912000001000000000000000RA              31585370    005802230000022300000520000003NN  NNW 000                       N    
RDG04912000WATRL000000004K00000000000002099019403022015182402N000000000030N40       000200400K 10000000010000002086           
CUS0491200000104084655002         PAGLIARO DOMINIC    1533 CHILWORTH AVE                      000N        CARE OF             
MTR04912000001000000000000000RA              23644252    005802240000022400000520000003NN  NNW 000                       N    
RDG04912000WATRL000000004K00000000000003255019303022015182342N000000000000N40       000100400K 10000000010000003248           
CUS0491200000104084656000         STAFFORD HAROLD T   1535 CHILWORTH AVE                      000N        CARE OF             
MTR04912000001000000000000000RA              23644559    005802250000022500000520000003NN  NNW 000                       N    
RDG04912000WATRL000000004K00000000000003086019203022015182332N000000000030N40       000110400K 10000000010000003081           
CUS0491200000104084657008         WHITEN DAVA LEE     1537 CHILWORTH AVE                      000N        CARE OF             
MTR04912000001000000000000000RA              23644271    005802260000022600000520000003NN  NNW 000                       N    
RDG04912000WATRL000000004K00000000000002743019103022015182321N000000000000N40       000030400K 10000000010000002734           
CUS0491200000104084658006         KROTEE DAVID ARTHUR 1539 CHILWORTH AVE                      000N        CARE OF             
MTR04912000001000000000000000RA              10010410    005802270000022700000570000003NN  NNW 000                       N    
RDG04912000WATRL000000004K00000000000000305019003022015182318N000000000030N40       000100400K 10000000010000000293           
CUS0491200000104084659004         MCNEAL WESLEY HOWARD1541 CHILWORTH AVE                      000N        CARE OF             
MTR04912000001000000000000000RA              10010411    005802280000022800000570000003NN  NNW 000                       N    
RDG04912000WATRL000000004K00000000000000562018903022015182308N000000000000N40       000030400K 10000000010000000554           
CUS0491200000104084660002         FELISHA M. HEDGE    1543 CHILWORTH AVE                      000N        CARE OF             
MTR04912000001000000000000000RA              31585378    005802290000022900000520000003NN  NNW 000                       N    
RDG04912000WATRL000000004K00000000000003071018803022015182305N000000000000N40       000030400K 10000000010000003060           
CUS0491200000104084661000         ROESE HENRY FREDERIC1545 CHILWORTH AVE                      000N        CARE OF             
MTR04912000001000000000000000RA              44178528    005802300000023000000520000003NN  NNW 000                       N    
RDG04912000WATRL000000004K00000000000000900018703022015182302N000000000000N40       000050400K 10000000010000000891           
CUS0491200000104084662008         GARCIA JOSE A       1547 CHILWORTH AVE                      000N        CARE OF             
MTR04912000001000000000000000RA              44178532    005802310000023100000520000003NN  NNW 000                       N    
RDG04912000WATRL000000004K00000000000002144018603022015182257N000000000000N40       000040400K 10000000010000002133           
CUS0491200000104084663006         HORANT JOAN C       1549 CHILWORTH AVE                      000N        CARE OF             
MTR04912000001000000000000000RA              48595247    005802320000023200000520000003NN  NNW 000                       N    
RDG04912000WATRL000000004K00000000000001268018503022015182253N000000000021N40       000050400K 10000000010000001267           
CUS0491200000104084664004         WILLIAMS ALMEDA S   1551 CHILWORTH AVE                      000N        CARE OF             
MTR04912000001000000000000000RA              31585359    005802330000023300000520000003NN  NNW 000                       N    
RDG04912000WATRL000000004K00000000000001715018403022015182237N000000000061N40       000040400K 10000000010000001715           
CUS0491200000104084665001         THE HEALTHY HOME SPE236 ENDSLEIGH AVE                       000N        CARE OF             
MTR04912000001000000000000000RA              31582654    005802340000023400000520000003NN  NNW 000                       N    
RDG04912000WATRL000000004K00000000000001578018303022015182214N000000000010N40       000120400K 10000000010000001570           
CUS0491200000104084666009         NANCY ANN GOOD      234 ENDSLEIGH AVE                       000N        CARE OF             
MTR04912000001000000000000000RA              76345006    005802350000023500000350000003NN  NNW 000                       N    
RDG04912000WATRL000000004K00000000000000094018203022015182202N000000000000N40       000040400K 10000000010000000083           
CUS0491200000104084667007         AMANDA L FOWLER     232 ENDSLEIGH AVE                       000N        CARE OF             
MTR04912000001000000000000000RA              14923661    005802360000023600000310000003NN  NNW 000                       N    
RDG04912000WATRL000000004K00000000000000925018103022015182158N000000000040N40       000170400K 10000000010000000905           
CUS0491200000104084668005         ADAMS JOSEPH M      230 ENDSLEIGH AVE                       000N        CARE OF             
MTR04912000001000000000000000RA              10010397    005802370000023700000570000003NN  NNW 000                       N    
RDG04912000WATRL000000004K00000000000000569018003022015182141N000000000000N40       000040400K 10000000010000000562           
CUS0491200000104084669003         FINN JAMES T        228 ENDSLEIGH AVE                       000N        CARE OF             
MTR04912000001000000000000000RA              10010396    005802380000023800000570000003NN  NNW 000                       N    
RDG04912000WATRL000000004K00000000000000348017903022015182137N000000000000N40       000040400K 10000000010000000339           
CUS0491200000104084670001         BUTTMAN SAMUEL W    226 ENDSLEIGH AVE                       000N        CARE OF             
MTR04912000001000000000000000RA              31582656    005802390000023900000520000003NN  NNW 000                       N    
RDG04912000WATRL000000004K00000000000001952017803022015182133N000000000000N40       000060400K 10000000010000001944           
CUS0491200000104084671009         POSTERLI PROPERTIES 224 ENDSLEIGH AVE                       000N        CARE OF             
MTR04912000001000000000000000RA              31582697    005802400000024000000520000003NN  NNW 000                       N    
RDG04912000WATRL000000004K00000000000003261017703022015182127N000000000010N40       000060400K 10000000010000003252           
CUS0491200000104084672007         FLETCHER BRADLEY M  222 ENDSLEIGH AVE                       000N        CARE OF             
MTR04912000001000000000000000RA              30521666    005802410000024100000520000003NN  NNW 000                       N    
RDG04912000WATRL000000004K00000000000002455017603022015182121N000000000061N40       000220400K 10000000010000002454           
CUS0491200000104084673005         METZ DONALD R       220 ENDSLEIGH AVE                       000N        CARE OF             
MTR04912000001000000000000000RA              31582653    005802420000024200000520000003NN  NNW 000                       N    
RDG04912000WATRL000000004K00000000000001733017503022015182046N000000000070N40       000880400K 10000000010000001698           
CUS0491200000104084674003         SMITH ROBERT BLAINE 218 ENDSLEIGH AVE                       000N        CARE OF             
MTR04912000001000000000000000RA              31582695    005802430000024300000520000003NN  NNW 000                       N    
RDG04912000WATRL000000004K00000000000002645017403022015181918N000000000030N40       064210400K 10000000010000002629           
CUS0491200000104403964002         PRICE ROBERT EDWARD,1603 DORNTON AVE                        000N        CARE OF             
MTR04912000001000000000000000RA              41088556    005802440000024400000520000003NN  NNW 000                       N    
RDG04912000WATRL000000004K00000000000000000000000000000000000 000000000000U         000000400  10000000010000001265           
CUS0491200000106403902007         WATTS PHILIP H      1601 DORNTON AVE                        000N        CARE OF             
MTR04912000001000000000000000RA              41088109    005802450000024500000520000003NN  NNW 000                       N    
RDG04912000WATRL000000004K00000000000000000000000000000000000 000000000000U         000000400  10000000010000001287           
CUS0491200000104084675000         LABELLE DAVID A     1550 DORNTON AVE                        000N        CARE OF             
MTR04912000001000000000000000RA              22608130    005802460000024600000520000003NN  NNW 000                       N    
RDG04912000WATRL000000004K00000000000003399017303022015163217N000000000000N40       000050400K 10000000010000003387           
CUS0491200000104084676008         EARL LESLIE L       1548 DORNTON AVE                        000N        CARE OF             
MTR04912000001000000000000000RA              26009172    005802470000024700000520000003NN  NNW 000                       N    
RDG04912000WATRL000000004K00000000000002013017203022015163212N000000000000N40       000400400K 10000000010000002002           
CUS0491200000104084677006         HUCK OLGA I         1546 DORNTON AVE                        000N        CARE OF             
MTR04912000001000000000000000RA              52287338    005802480000024800000520000003NN  NNW 000                       N    
RDG04912000WATRL000000004K00000000000001049017103022015163132N000000000000N40       000170400K 10000000010000001041           
CUS0491200000104084678004         SCHLEICHER ROBERT F 1544 DORNTON AVE                        000N        CARE OF             
MTR04912000001000000000000000RA              44002662    005802490000024900000520000003NN  NNW 000                       N    
RDG04912000WATRL000000004K00000000000001461017003022015163115N000000000020N40       000470400K 10000000010000001448           
CUS0491200000104084679002         HAMMEN DENISE C     1542 DORNTON AVE                        000N        CARE OF             
MTR04912000001000000000000000RA              46878954    005802500000025000000520000003NN  NNW 000                       N    
RDG04912000WATRL000000004K00000000000001653016903022015163028N000000000000N40       000400400K 10000000010000001643           
CUS0491200000104084680000         NIEMYER ANNABELLE L 1540 DORNTON AVE                        000N        CARE OF             
MTR04912000001000000000000000RA              31587578    005802510000025100000520000003NN  NNW 000                       N    
RDG04912000WATRL000000004K00000000000001521016803022015162948N000000000000N40       000080400K 10000000010000001512           
CUS0491200000104084681008         MCELFISH SHAWN W    1538 DORNTON AVE                        000N        CARE OF             
MTR04912000001000000000000000RA              00133000    005802520000025200000570000003NN  NNW 000                       N    
RDG04912000WATRL000000004K00000000000003041016703022015162940N000000000020N40       000230400K 10000000010000003022           
CUS0491200000104406029001         LOVICK ROBERT, JR   1 CHADFORD CT                           000N        CARE OF             
MTR04912000001000000000000000RA              44091513    005802530000025300000520000003NN  NNW 000                       N    
RDG04912000WATRL000000004K00000000000001463013703022015155911N000000000030N40       002160400K 10000000010000001445           
CUS0491200000104406030009         CONLEY B EVERHART   3 CHADFORD CT                           000N        CARE OF             
MTR04912000001000000000000000RA              44091509    005802540000025400000520000003NN  NNW 000                       N    
RDG04912000WATRL000000004K00000000000002042013803022015160205N000000000000N40       001740400K 10000000010000002029           
CUS0491200000104406031007         MATHER JOSEPH E,JR  5 CHADFORD CT                           000N        CARE OF             
MTR04912000001000000000000000RA              44091476    005802550000025500000520000003NN  NNW 000                       N    
RDG04912000WATRL000000004K00000000000001841013903022015160259N000000000000N40       000540400K 10000000010000001829           
CUS0491200000104406032005         SYED SHABBIR        7 CHADFORD CT                           000N        CARE OF             
MTR04912000001000000000000000RA              44091510    005802560000025600000520000003NN  NNW 000                       N    
RDG04912000WATRL000000004K00000000000001596014003022015160453N000000000030N40       001140400K 10000000010000001594           
CUS0491200000104406033003         FALUSI FOLUSO O     9 CHADFORD CT                           000N        CARE OF             
MTR04912000001000000000000000RA              44091511    005802570000025700000520000003NN  NNW 000                       N    
RDG04912000WATRL000000004K00000000000003524014103022015160515N000000000000N40       000220400K 10000000010000003524           
CUS0491200000104406047003         CHARLES J DUNN      11 CHADFORD CT                          000N        CARE OF             
MTR04912000001000000000000000RA              14921818    005802580000025800000310000003NN  NNW 000                       N    
RDG04912000WATRL000000004K00000000000000709014203022015160550N000000000030N40       000350400K 10000000010000000706           
CUS0491200000104406041006         JOSEPH D ELROD      13 CHADFORD CT                          000N        CARE OF             
MTR04912000001000000000000000RA              44091512    005802590000025900000520000003NN  NNW 000                       N    
RDG04912000WATRL000000004K00000000000003640014303022015160640N000000000000N40       000500400K 10000000010000003610           
CUS0491200000104406042004         BANKS SHA-RON       15 CHADFORD CT                          000N        CARE OF             
MTR04912000001000000000000000RA              99288244    005802600000026000000570000003NN  NNW 000                       N    
RDG04912000WATRL000000004K00000000000001263014503022015160910N000000000021N40       000240400K 10000000010000001252           
CUS0491200000104406043002         HACKNEY ERNEST,JR   17 CHADFORD CT                          000N        CARE OF             
MTR04912000001000000000000000RA              44091356    005802610000026100000520000003NN  NNW 000                       N    
RDG04912000WATRL000000004K00000000000002015014403022015160917N000000000011N40       000070400K 10000000010000001981           
CUS0491200000104406044000         HANK WANG           19 CHADFORD CT                          000N        CARE OF             
MTR04912000001000000000000000RA              14928438    005802620000026200000310000003NN  NNW 000                       N    
