FHDNNNN016002889002889003068N                                                                                           009165
RHD08584900NN02530253000002530000000002530253000388NY025302530253000000010000000000000000000002    02172015NY020000 N         
CUS0858490000108032302005         WRIGHT KEITH E      3424 MAYFIELD AVE                       000N        CARE OF             
MTR08584900001000000000000000RA              46883857    005800010000000100000520000003NN  NNW 000                       N    
RDG08584900WATRL000000004K00000000000002315000203092015113829N000400000010N84       000350400K 10000000010000002311           
CUS0858490000108032303003         TARA M PINTABONA    3422 MAYFIELD AVE                       000N        CARE OF             
MTR08584900001000000000000000RA              01080061    005800020000000200000610000003NN  NNW 000                       N    
RDG08584900WATRL000000004K00000000000001712000103092015113754N000000000000N84       000000400K 10000000010000001694           
CUS0858490000108032304001         LAMBERT AVIS E      3420 MAYFIELD AVE                       000N        CARE OF             
MTR08584900001000000000000000RA              01083126    005800030000000300000610000003NN  NNW 000                       N    
RDG08584900WATRL000000004K00000000000001755000303092015113934N000000000000N84       000650400K 10000000010000001724           
CUS0858490000108032305008         CARTER RHYNIE       8302 TINSLEY RD                         000N        CARE OF             
MTR08584900001000000000000000RA              23648001    005800040000000400000520000003NN  NNW 000                       N    
RDG08584900WATRL000000004K00000000000003312003303092015120729N000000000000N84       002560400K 10000000010000003292           
CUS0858490000108032306006         COLEMAN BERNADETTE V8304 TINSLEY RD                         000N        CARE OF             
MTR08584900001000000000000000RA              31581023    005800050000000500000520000003NN  NNW 000                       N    
RDG08584900WATRL000000004K00000000000002620000403092015114114N000000000000N84       001000400K 10000000010000002597           
CUS0858490000108032307004         LAIRD BRANDI        8306 TINSLEY RD                         000N        CARE OF             
MTR08584900001000000000000000RA              44092315    005800060000000600000520000003NN  NNW 000                       N    
RDG08584900WATRL000000004K00000000000001990000503092015114116N000000000000N84       000020400K 10000000010000001981           
CUS0858490000108032308002         CRAIG JUDSON  CRAIG 8308 TINSLEY RD                         000N        CARE OF             
MTR08584900001000000000000000RA              27812573    005800070000000700000520000003NN  NNW 000                       N    
RDG08584900WATRL000000004K00000000000004686000703092015114220N000000000000N84       000200400K 10000000010000004669           
CUS0858490000108032309000         STOKES BERNARD A    8310 TINSLEY RD                         000N        CARE OF             
MTR08584900001000000000000000RA              27818642    005800080000000800000520000003NN  NNW 000                       N    
RDG08584900WATRL000000004K00000000000004818000903092015114301N000000000000N84       000200400K 10000000010000004794           
CUS0858490000108032310008         WILLIAMS LAWRENCE   8312 TINSLEY RD                         000N        CARE OF             
MTR08584900001000000000000000RA              48583452    005800090000000900000520000003NN  NNW 000                       N    
RDG08584900WATRL000000004K00000000000001757001003092015114306N000000000000N84       000050400K 10000000010000001748           
CUS0858490000108032311006         POWELL MELVIN G,JR  8314 TINSLEY RD                         000N        CARE OF             
MTR08584900001000000000000000RA              23842147    005800100000001000000520000003NN  NNW 000                       N    
RDG08584900WATRL000000004K00000000000004334001203092015114609N000000000000N84       001480400K 10000000010000004309           
CUS0858490000108032312004         HARPER MARION       8316 TINSLEY RD                         000N        CARE OF             
MTR08584900001000000000000000RA              44092328    005800110000001100000520000003NN  NNW 000                       N    
RDG08584900WATRL000000004K00000000000005234001303092015114619N000000000000N84       000100400K 10000000010000005215           
CUS0858490000108032313002         JEFFERSON ROSE R    8311 TINSLEY RD                         000N        CARE OF             
MTR08584900001000000000000000RA              46881186    005800120000001200000520000003NN  NNW 000                       N    
RDG08584900WATRL000000004K00000000000006926003403092015121239N000000000000N84       003100400K 10000000010000006904           
CUS0858490000108032314000         BRANCH GAIL PATRICE 8309 TINSLEY RD                         000N        CARE OF             
MTR08584900001000000000000000RA              23648074    005800130000001300000520000003NN  NNW 000                       N    
RDG08584900WATRL000000004K00000000000003871003503092015121242N000000000000N84       000030400K 10000000010000003838           
CUS0858490000108032315007         COUTROUPIS NICOLAS  8307 TINSLEY RD                         000N        CARE OF             
MTR08584900001000000000000000RA              44092324    005800140000001400000520000003NN  NNW 000                       N    
RDG08584900WATRL000000004K00000000000002465001103092015114341N000000000000N84       000350400K 10000000010000002445           
CUS0858490000108032316005         GREEN ALBERT C      8305 TINSLEY RD                         000N        CARE OF             
MTR08584900001000000000000000RA              23842141    005800150000001500000520000003NN  NNW 000                       N    
RDG08584900WATRL000000004K00000000000003123000803092015114241N000000000000N84       000210400K 10000000010000003084           
CUS0858490000108032317003         WARREN ELMORE E,JR  8303 TINSLEY RD                         000N        CARE OF             
MTR08584900001000000000000000RA              23648190    005800160000001600000520000003NN  NNW 000                       N    
RDG08584900WATRL000000004K00000000000001502000603092015114200N000000000000N84       000440400K 10000000010000001494           
CUS0858490000108032318001         SCOTT LORRAINE JOHNS3412 MAYFIELD AVE                       000N        CARE OF             
MTR08584900001000000000000000RA              33077890    005800170000001700000520000003NN  NNW 000                       N    
RDG08584900WATRL000000004K00000000000003656003203092015120313N000000000000N84       000350400K 10000000010000003584           
CUS0858490000108032319009         DAVIS ALLAN R       3410 MAYFIELD AVE                       000N        CARE OF             
MTR08584900001000000000000000RA              52769180    005800180000001800000520000003NN  NNW 000                       N    
RDG08584900WATRL000000004K00000000000001843002603092015115713N000000000000N84       000040400K 10000000010000001799           
CUS0858490000108032320007         LAFAVORS MONTE      3408 MAYFIELD AVE                       000N        CARE OF             
MTR08584900001000000000000000RA              23648194    005800190000001900000520000003NN  NNW 000                       N    
RDG08584900WATRL000000004K00000000000002680002503092015115709N000000000010N84       000060400K 10000000010000002676           
CUS0858490000108032321005         DADE LOUIS,JR       3406 MAYFIELD AVE                       000N        CARE OF             
MTR08584900001000000000000000RA              35102816    005800200000002000000520000003NN  NNW 000                       N    
RDG08584900WATRL000000004K00000000000001989002403092015115703N000000000000N84       000220400K 10000000010000001978           
CUS0858490000108032322003         LAPRADE ETHEL L     3404 MAYFIELD AVE                       000N        CARE OF             
MTR08584900001000000000000000RA              36692622    005800210000002100000520000003NN  NNW 000                       N    
RDG08584900WATRL000000004K00000000000002042001903092015115356N000000000000N84       000050400K 10000000010000002037           
CUS0858490000108032323001         BARBER BRUCE A      3402 MAYFIELD AVE                       000N        CARE OF             
MTR08584900001000000000000000RA              24228442    005800220000002200000520000003NN  NNW 000                       N    
RDG08584900WATRL000000004K00000000000003609001803092015115351N000000000000N84       001490400K 10000000010000003584           
CUS0858490000108032324009         EDMOND SINCLAIR     3400 MAYFIELD AVE                       000N        CARE OF             
MTR08584900001000000000000000RA              01080066    005800230000002300000610000003NN  NNW 000                       N    
RDG08584900WATRL000000004K00000000000003982001703092015115122N000000000000N84       000210400K 10000000010000003805           
CUS0858490000108032325006         WILSON SANDRA DIANE 3315 COURTLEIGH DR                      000N        CARE OF             
MTR08584900001000000000000000RA              50791651    005800240000002400000520000003NN  NNW 000                       N    
RDG08584900WATRL000000004K00000000000001074001403092015114813N000000000000N84       001140400K 10000000010000001067           
CUS0858490000108032326004         WISE MERVIN         3317 COURTLEIGH DR                      000N        CARE OF             
MTR08584900001000000000000000RA              01080062    005800250000002500000610000003NN  NNW 000                       N    
RDG08584900WATRL000000004K00000000000000964001503092015114933N000000000000N84       000800400K 10000000010000000956           
CUS0858490000108032327002         KLOMPUS SYLVIA L    3319 COURTLEIGH DR                      000N        CARE OF             
MTR08584900001000000000000000RA              46875946    005800260000002600000520000003NN  NNW 000                       N    
RDG08584900WATRL000000004K00000000000002916000503102015090256N000100000010U84       000510400K 10000000010000002916           
CUS0858490000108032404009         HUGHART ROGER M     3320 COURTLEIGH DR                      000N        CARE OF             
MTR08584900001000000000000000RA              99291210    005800270000002700000570000003NN  NNW 000                       N    
RDG08584900WATRL000000004K00000000000002306000403102015090205N000000000000U84       000250400K 10000000010000002267           
CUS0858490000108032405006         EVERETT DOROTHEA    3318 COURTLEIGH DR                      000N        CARE OF             
MTR08584900001000000000000000RA              99291254    005800280000002800000570000003NN  NNW 000                       N    
RDG08584900WATRL000000004K00000000000001502000303102015090140N000000000000U84       000460400K 10000000010000001479           
CUS0858490000108032406004         LONESOME-ZOLLICOFFER3316 COURTLEIGH DR                      000N        CARE OF             
MTR08584900001000000000000000RA              99291212    005800290000002900000570000003NN  NNW 000                       N    
RDG08584900WATRL000000004K00000000000001686000203102015090054N000000000000U84       000490400K 10000000010000001653           
CUS0858490000108032407002         BLAKE JAMES E,JR    3314 COURTLEIGH DR                      000N        CARE OF             
MTR08584900001000000000000000RA              23842115    005800300000003000000520000003NN  NNW 000                       N    
RDG08584900WATRL000000004K00000000000004472000103102015090005N000000000000U84       000000400K 10000000010000004456           
CUS0858490000108032408000         GREENE TIMOTHY,JR   3312 COURTLEIGH DR                      000N        CARE OF             
MTR08584900001000000000000000RA              23842163    005800310000003100000520000003NN  NNW 000                       N    
RDG08584900WATRL000000004K00000000000005622001603092015115101N000000000000N84       000880400K 10000000010000005611           
CUS0858490000108032409008         TIFFANY HARRISON    3310 COURTLEIGH DR                      000N        CARE OF             
MTR08584900001000000000000000RA              23648187    005800320000003200000520000003NN  NNW 000                       N    
RDG08584900WATRL000000004K00000000000003137000603102015090446N000000000010U84       001100400K 10000000010000003120           
CUS0858490000108032410006         MARTIN RODNEY M     3308 COURTLEIGH DR                      000N        CARE OF             
MTR08584900001000000000000000RA              01080256    005800330000003300000610000003NN  NNW 000                       N    
RDG08584900WATRL000000004K00000000000002521003603092015121530N000000000000N84       001680400K 10000000010000002456           
CUS0858490000108032411004         MCARTHUR DONALD     3306 COURTLEIGH DR                      000N        CARE OF             
MTR08584900001000000000000000RA              10013141    005800340000003400000570000003NN  NNW 000                       N    
RDG08584900WATRL000000004K00000000000000310000703102015090553N000000000000U84       000670400K 10000000010000000285           
CUS0858490000108032412002         GRANNISON SADIE     3304 COURTLEIGH DR                      000N        CARE OF             
MTR08584900001000000000000000RA              27826300    005800350000003500000520000003NN  NNW 000                       N    
RDG08584900WATRL000000004K00000000000001887000803102015090642N000000000000U84       000490400K 10000000010000001875           
CUS0858490000108032413000         WATERS HARVEY L     3302 MAYFIELD AVE                       000N        CARE OF             
MTR08584900001000000000000000RA              23644194    005800360000003600000520000003NN  NNW 000                       N    
RDG08584900WATRL000000004K00000000000001928003703092015121613N000000000000N84       000430400K 10000000010000001921           
CUS0858490000108455607005         MAYFIELD PARKS, LLC 3300 MAYFIELD AVE                       000N        CARE OF             
MTR08584900001000000000000000RA              99999999    000100370000003700000440000000NN  NNW 000                       N    
RDG08584900WATRL000000004K00000000000000000005303102015110525N000000000000U84       019490400K 10000000010000000000           
CUS0858490000108455606007         ROBERT E JOHNSON    8002 PARKS LN                           000N        CARE OF             
MTR08584900001000000000000000RA              76350108    000100380000003800000350000000NN  NNW 000                       N    
RDG08584900WATRL000000004K00000000000000051005403102015110534N000000000010U84       000090400K 10000000010000000041           
CUS0858490000108032415005         PATTERSON DON C     8006 PARKS LN                           000N        CARE OF             
MTR08584900001000000000000000RA              01080255    005800390000003900000610000003NN  NNW 000                       N    
RDG08584900WATRL000000004K00000000000000953005503102015110544N000000000010U84       000100400K 10000000010000000943           
CUS0858490000108375823005         BRECKENRIDGE LEAH L 8008 PARKS LN                           000N        CARE OF             
MTR08584900001000000000000000RA              10004575    005800400000004000000570000003NN  NNW 000                       N    
RDG08584900WATRL000000004K00000000000000264005603102015110554N000000000010U84       000100400K 10000000010000000259           
CUS0858490000108032416003         STRAND LARRY LEWIS  8010 PARKS LN                           000N        CARE OF             
MTR08584900001000000000000000RA              35110576    005800410000004100000520000003NN  NNW 000                       N    
RDG08584900WATRL000000004K00000000000001516005703102015110559N000000000010U84       000050400K 10000000010000001511           
CUS0858490000108430743008         NORTON MARTIN J     8012 PARKS LN                           000N        CARE OF             
MTR08584900001000000000000000RA              00132009    005800420000004200000570000003NN  NNW 000                       N    
RDG08584900WATRL000000004K00000000000000969005803102015110605N000000000010U84       000060400K 10000000010000000959           
CUS0858490000108447117006         SHAVONNE FITZGERALD 8003 PARKS LN                           000N        CARE OF             
MTR08584900001000000000000000RA              50000450    000100430000004300000570000003NN  NNW 000                       N    
RDG08584900WATRL000000004K00000000000000141000903102015091404N000000000000U84       004420400K 10000000010000000112           
CUS0858490000108446990007         BRYANT T SWINSON , J8005 PARKS LN                           000N        CARE OF             
MTR08584900001000000000000000RA              50000158    000100440000004400000570000003NN  NNW 000                       N    
RDG08584900WATRL000000004K00000000000000145001003102015091407N000000000000U84       000030400K 10000000010000000129           
CUS0858490000108032417001         TARVER KEVIN        8007 PARKS LN                           000N        CARE OF             
MTR08584900001000000000000000RA              27831881    005800450000004500000520000003NN  NNW 000                       N    
RDG08584900WATRL000000004K00000000000002567005903102015110619N000000000000U84       000140400K 10000000010000002562           
CUS0858490000108032418009         WISE CECIL ORIN     8009 PARKS LN                           000N        CARE OF             
MTR08584900001000000000000000RA              76347734    005800460000004600000350000003NN  NNW 000                       N    
RDG08584900WATRL000000004K00000000000000036006003102015110629N000000000010U84       000100400K 10000000010000000026           
CUS0858490000108435256006         TURNER TONY D       8011 PARKS LN                           000N        CARE OF             
MTR08584900001000000000000000RA              10021861    005800470000004700000570000003NN  NNW 000                       N    
RDG08584900WATRL000000004K00000000000000347006103102015110850N000000000030U84       001410400K 10000000010000000327           
CUS0858490000108032419007         LEEKS DONALD M      3214 MAYFIELD AVE                       000N        CARE OF             
MTR08584900001000000000000000RA              14918212    005800480000004800000310000003NN  NNW 000                       N    
RDG08584900WATRL000000004K00000000000000903001103102015091911N000000000000U84       003040400K 10000000010000000877           
CUS0858490000108032420005         HUBBARD JEFFREY A   3212 MAYFIELD AVE                       000N        CARE OF             
MTR08584900001000000000000000RA              01080252    005800490000004900000610000003NN  NNW 000                       N    
RDG08584900WATRL000000004K00000000000001109001203102015091955N000000000000U84       000440400K 10000000010000001091           
CUS0858490000108032434006         HARTMAN FREDERICK W 3210 MAYFIELD AVE                       000N        CARE OF             
MTR08584900001000000000000000RA              35109850    005800500000005000000520000003NN  NNW 000                       N    
RDG08584900WATRL000000004K00000000000002514001303102015092029N000000000000U84       000340400K 10000000010000002490           
CUS0858490000108032425004         HALL VERDA A        8006 REMINGTON AVE                      000N        CARE OF             
MTR08584900001000000000000000RA              26019785    005800510000005100000520000003NN  NNW 000                       N    
RDG08584900WATRL000000004K00000000000001932006203102015110901N000000000010U84       000110400K 10000000010000001927           
CUS0858490000108032426002         GHEE SHAWNETTE D    8008 REMINGTON AVE                      000N        CARE OF             
MTR08584900001000000000000000RA              01080251    005800520000005200000610000003NN  NNW 000                       N    
RDG08584900WATRL000000004K00000000000001819006303102015110911N000000000020U84       000100400K 10000000010000001804           
CUS0858490000108032427000         KOHLHEPP JOHN D     8010 REMINGTON AVE                      000N        CARE OF             
MTR08584900001000000000000000RA              24765214    005800530000005300000520000003NN  NNW 000                       N    
RDG08584900WATRL000000004K00000000000003686006403102015110919N000000000010U84       000080400K 10000000010000003676           
CUS0858490000108032428008         HINES TONY L        8012 REMINGTON AVE                      000N        CARE OF             
MTR08584900001000000000000000RA              44093170    005800540000005400000520000003NN  NNW 000                       N    
RDG08584900WATRL000000004K00000000000002054006503102015110926N000000000010U84       000070400K 10000000010000002044           
CUS0858490000108440200007         BUNCH NATHAN T      8014 REMINGTON AVE                      000N        CARE OF             
MTR08584900001000000000000000RA              14914619    005800550000005500000310000000NN  NNW 000                       N    
RDG08584900WATRL000000004K00000000000001214002403102015094405N000000000000U84       002800400K 10000000010000001173           
CUS0858490000108032429006         SAMMY PROPERTIES LLC8015 REMINGTON AVE                      000N        CARE OF             
MTR08584900001000000000000000RA              27819606    005800560000005600000520000003NN  NNW 000                       N    
RDG08584900WATRL000000004K00000000000004492006603102015110933N000000000020U84       000070400K 10000000010000004487           
CUS0858490000108032430004         PEDDREW SHEILA J    8013 REMINGTON AVE                      000N        CARE OF             
MTR08584900001000000000000000RA              24228423    005800570000005700000520000003NN  NNW 000                       N    
RDG08584900WATRL000000004K00000000000001341006703102015110941N000000000000U84       000080400K 10000000010000001336           
CUS0858490000108032431002         HENSON DELVENIA A   8011 REMINGTON AVE                      000N        CARE OF             
MTR08584900001000000000000000RA              01080257    005800580000005800000610000003NN  NNW 000                       N    
RDG08584900WATRL000000004K00000000000000619006803102015110946N000000000010U84       000050400K 10000000010000000614           
CUS0858490000108032432000         HALL MARCEL         8009 REMINGTON AVE                      000N        CARE OF             
MTR08584900001000000000000000RA              50478106    005800590000005900000520000003NN  NNW 000                       N    
RDG08584900WATRL000000004K00000000000001234006903102015111003N000000000010U84       000170400K 10000000010000001224           
CUS0858490000108364612005         GILMORE ANTHONY     8007 REMINGTON AVE                      000N        CARE OF             
MTR08584900001000000000000000RA              30516696    005800600000006000000520000003NN  NNW 000                       N    
RDG08584900WATRL000000004K00000000000003115007003102015111017N000000000010U84       000140400K 10000000010000003105           
CUS0858490000108032422001         SAADEIN KAYVAN      3108 MAYFIELD AVE                       000N        CARE OF             
MTR08584900001000000000000000RA              99293814    005800610000006100000570000003NN  NNW 000                       N    
RDG08584900WATRL000000004K00000000000001221001603102015092404N000000000000U84       000790400K 10000000010000001203           
CUS0858490000108032423009         DANIELS NANCY L     3104 MAYFIELD AVE                       000N        CARE OF             
MTR08584900001000000000000000RA              23648195    005800620000006200000520000003NN  NNW 000                       N    
RDG08584900WATRL000000004K00000000000004984001703102015092443N000000000000U84       000390400K 10000000010000004972           
CUS0858490000108429888004         GAINEY MICHAEL V    3000 MAYFIELD AVE                       000N        CARE OF             
MTR08584900001000000000000000RA              01099752    005800630000006300000610000003NY  NNW 000                       N    
MTM0858490001099752    no vault                                                                                               
RDG08584900WATRL000000004K00000000000000000007103102015111100S018000000000U84       000430400K 10000000010000001076           
CUS0858490000108413500003         THOMPSON CHRISTOPHER8001 CARLSON LN                         000N        CARE OF             
MTR08584900001000000000000000RA              99388882    005800640000006400000570000003NN  NNW 000                       N    
RDG08584900WATRL000000004K00000000000001969012803092015135315N000000000000N84       000710400K 10000000010000001901           
CUS0858490000108413499008         VANN MARQUISE       8003 CARLSON LN                         000N        CARE OF             
MTR08584900001000000000000000RA              14907930    005800650000006500000520000003NN  NNW 000                       N    
RDG08584900WATRL000000004K00000000000001527012903092015135349N000000000000N84       000340400K 10000000010000001496           
CUS0858490000108413498000         WILLIAMS DEBRA      8005 CARLSON LN                         000N        CARE OF             
MTR08584900001000000000000000RA              50480296    005800660000006600000520000003NN  NNW 000                       N    
RDG08584900WATRL000000004K00000000000003185013003092015135438N000000000000N84       000490400K 10000000010000003143           
CUS0858490000108413497002         SMITH JASON,SR      8007 CARLSON LN                         000N        CARE OF             
MTR08584900001000000000000000RA              99287412    005800670000006700000570000003NN  NNW 000                       N    
RDG08584900WATRL000000004K00000000000001196002503102015095740N000000000000U84       008150400K 10000000010000001138           
CUS0858490000108413496004         WASHINGTON CASTERDAR8009 CARLSON LN                         000N        CARE OF             
MTR08584900001000000000000000RA              48586858    005800680000006800000520000003NN  NNW 000                       N    
RDG08584900WATRL000000004K00000000000001232002603102015095806N000000000000U84       000260400K 10000000010000001224           
CUS0858490000108413668008         THOMAS THEODORE R   1 JANENE CT                             000N        CARE OF             
MTR08584900001000000000000000RA              52289919    005800690000006900000520000003NN  NNW 000                       N    
RDG08584900WATRL000000004K00000000000001755002703102015095903N000000000000U84       000570400K 10000000010000001727           
CUS0858490000108413669006         WILLIAMS ABEL K     3 JANENE CT                             000N        CARE OF             
MTR08584900001000000000000000RA              52289851    005800700000007000000520000003NN  NNW 000                       N    
RDG08584900WATRL000000004K00000000000001347002803102015095935N000000000000U84       000320400K 10000000010000001336           
CUS0858490000108413670004         TAYLOR BONNIE L     5 JANENE CT                             000N        CARE OF             
MTR08584900001000000000000000RA              48584882    005800710000007100000520000003NN  NNW 000                       N    
RDG08584900WATRL000000004K00000000000001987002903102015100007N000000000000U84       000320400K 10000000010000001972           
CUS0858490000108413671002         LEGINS DEVOYD M     7 JANENE CT                             000N        CARE OF             
MTR08584900001000000000000000RA              48584883    005800720000007200000520000003NN  NNW 000                       N    
RDG08584900WATRL000000004K00000000000001888003003102015100030N000000000000U84       000230400K 10000000010000001840           
CUS0858490000108413672000         DISTANCE MILTON R JR9 JANENE CT                             000N        CARE OF             
MTR08584900001000000000000000RA              48583283    005800730000007300000520000003NN  NNW 000                       N    
RDG08584900WATRL000000004K00000000000002075003103102015100101N000000000000U84       000310400K 10000000010000002042           
CUS0858490000108413667000         HARRIS ROBERT L     4 JANENE CT                             000N        CARE OF             
MTR08584900001000000000000000RA              48583406    005800740000007400000520000003NN  NNW 000                       N    
RDG08584900WATRL000000004K00000000000001769003203102015100122N000000000000U84       000210400K 10000000010000001742           
CUS0858490000108413666002         ARMSTRONG DEBRA A   8101 CARLSON LN                         000N        CARE OF             
MTR08584900001000000000000000RA              00137401    005800750000007500000570000003NN  NNW 000                       N    
RDG08584900WATRL000000004K00000000000001172003303102015100159N000000000000U84       000370400K 10000000010000001144           
CUS0858490000108413495006         DAVIS ELBERT L      8103 CARLSON LN                         000N        CARE OF             
MTR08584900001000000000000000RA              99387240    005800760000007600000570000003NN  NNW 000                       N    
RDG08584900WATRL000000004K00000000000000132003403102015100246N000000000000U84       000470400K 10000000010000000132           
CUS0858490000108413494009         NORWOOD SHIRLEY W   8105 CARLSON LN                         000N        CARE OF             
MTR08584900001000000000000000RA              50480297    005800770000007700000520000003NN  NNW 000                       N    
RDG08584900WATRL000000004K00000000000000950003503102015100316N000000000000U84       000300400K 10000000010000000945           
CUS0858490000108413493001         EDWARDS LISA D      8107 CARLSON LN                         000N        CARE OF             
MTR08584900001000000000000000RA              99286687    005800780000007800000570000003NN  NNW 000                       N    
RDG08584900WATRL000000004K00000000000002019003603102015100351N000000000000U84       000350400K 10000000010000001985           
CUS0858490000108413836001         HALL TIMOTHY        8115 CARLSON LN                         000N        CARE OF             
MTR08584900001000000000000000RA              99287824    005800790000007900000570000003NN  NNW 000                       N    
RDG08584900WATRL000000004K00000000000003962006203092015123115N000000000000N84       003690400K 10000000010000003897           
CUS0858490000108413835003         RICHARD BLUWEY      4 RHONDA CT                             000N        CARE OF             
MTR08584900001000000000000000RA              14905470    005800800000008000000310000003NN  NNW 000                       N    
RDG08584900WATRL000000004K00000000000000922006303092015123118N000000000000N84       000030400K 10000000010000000895           
CUS0858490000108413834006         JACKSON LAMONT H    6 RHONDA CT                             000N        CARE OF             
MTR08584900001000000000000000RA              14905973    005800810000008100000310000003NN  NNW 000                       N    
RDG08584900WATRL000000004K00000000000000837006403092015123140N000000000000N84       000220400K 10000000010000000808           
CUS0858490000108413833008         DONNA L BATES       8 RHONDA CT                             000N        CARE OF             
MTR08584900001000000000000000RA              14907443    005800820000008200000310000003NN  NNW 000                       N    
RDG08584900WATRL000000004K00000000000000703006603092015123220N000000000000N84       000030400K 10000000010000000668           
CUS0858490000108413832000         WINSTON DARRELL R   10 RHONDA CT                            000N        CARE OF             
MTR08584900001000000000000000RA              14905977    005800830000008300000310000003NN  NNW 000                       N    
RDG08584900WATRL000000004K00000000000001399006503092015123217N000000000000N84       000370400K 10000000010000001381           
CUS0858490000108413831002         HAWTHORNE YVONNE R  12 RHONDA CT                            000N        CARE OF             
MTR08584900001000000000000000RA              14905974    005800840000008400000310000003NN  NNW 000                       N    
RDG08584900WATRL000000004K00000000000000504006703092015123242N000000000000N84       000220400K 10000000010000000486           
CUS0858490000108413830004         MAYFIELD WOODS LIMIT14 RHONDA CT                            000N        CARE OF             
MTR08584900001000000000000000RA              99999999    005800850000008500000520000003NN  NNW 000                       N    
RDG08584900WATRL000000004K00000000000000060006803092015123245N000000000000N84       000030400K 10000000010000000060           
CUS0858490000108413829006         HEAVEN JENIEFFE  GEO16 RHONDA CT                            000N        CARE OF             
MTR08584900001000000000000000RA              10023423    005800860000008600000570000003NN  NNW 000                       N    
RDG08584900WATRL000000004K00000000000000076006903092015123350N000000000000N84       000650400K 10000000010000000068           
CUS0858490000108413828008         SLATER CHARLES J    18 RHONDA CT                            000N        CARE OF             
MTR08584900001000000000000000RA              14919071    005800870000008700000310000003NN  NNW 000                       N    
RDG08584900WATRL000000004K00000000000000514008403092015123916N000000000000N84       000090400K 10000000010000000486           
CUS0858490000108413827000         BRISCOE JAMES M     22 RHONDA CT                            000N        CARE OF             
MTR08584900001000000000000000RA              01108740    005800880000008800000610000003NN  NNW 000                       N    
RDG08584900WATRL000000004K00000000000001106007003092015123450N000000000000N84       000600400K 10000000010000001084           
CUS0858490000108413826002         CHRISTOPHER A TRAYNO24 RHONDA CT                            000N        CARE OF             
MTR08584900001000000000000000RA              01108300    005800890000008900000610000003NN  NNW 000                       N    
RDG08584900WATRL000000004K00000000000001062007103092015123519N000000000000N84       000290400K 10000000010000001055           
CUS0858490000108413825004         CRAWLEY ANDRIA      26 RHONDA CT                            000N        CARE OF             
MTR08584900001000000000000000RA              14900691    005800900000009000000310000003NN  NNW 000                       N    
RDG08584900WATRL000000004K00000000000001479007203092015123551N000000000000N84       000320400K 10000000010000001457           
CUS0858490000108413824007         MAYFIELD WOODS LIMIT28 RHONDA CT                            000N        CARE OF             
MTR08584900001000000000000000RA              99999999    005800910000009100000520000003NN  NNW 000                       N    
RDG08584900WATRL000000004K00000000000000041007303092015123553N000000000000N84       000020400K 10000000010000000041           
CUS0858490000108413823009         MAYFIELD WOODS LIMIT30 RHONDA CT                            000N        CARE OF             
MTR08584900001000000000000000RA              99999999    005800920000009200000520000003NN  NNW 000                       N    
RDG08584900WATRL000000004K00000000000000058007403092015123555N000000000000N84       000020400K 10000000010000000058           
CUS0858490000108413822001         DAVIS CLARENCE      32 RHONDA CT                            000N        CARE OF             
MTR08584900001000000000000000RA              14922090    005800930000009300000310000003NN  NNW 000                       N    
RDG08584900WATRL000000004K00000000000000651007503092015123701N000000000000N84       000660400K 10000000010000000635           
CUS0858490000108413821003         MAYFIELD WOODS LIMIT34 RHONDA CT                            000N        CARE OF             
MTR08584900001000000000000000RA              99999999    005800940000009400000520000003NN  NNW 000                       N    
RDG08584900WATRL000000004K00000000000000057007603092015123713N000000000000N84       000120400K 10000000010000000057           
CUS0858490000108413820005         EBB RICHARD O       37 RHONDA CT                            000N        CARE OF             
MTR08584900001000000000000000RA              14922093    005800950000009500000310000003NN  NNW 000                       N    
RDG08584900WATRL000000004K00000000000000729007703092015123811N000000000000N84       000580400K 10000000010000000702           
CUS0858490000108413819007         CURTIS L. HENDRICK  35 RHONDA CT                            000N        CARE OF             
MTR08584900001000000000000000RA              99999999    005800960000009600000520000003NN  NNW 000                       N    
RDG08584900WATRL000000004K00000000000000066007803092015123833N000000000000N84       000220400K 10000000010000000066           
CUS0858490000108413818009         MAYFIELD WOODS LIMIT33 RHONDA CT                            000N        CARE OF             
MTR08584900001000000000000000RA              99999999    005800970000009700000520000003NN  NNW 000                       N    
RDG08584900WATRL000000004K00000000000000060007903092015123837N000000000000N84       000040400K 10000000010000000060           
CUS0858490000108413817001         MAYFIELD WOODS LIMIT31 RHONDA CT                            000N        CARE OF             
MTR08584900001000000000000000RA              99999999    005800980000009800000310000003NN  NNW 000                       N    
RDG08584900WATRL000000004K00000000000000058008003092015123839N000000000000N84       000020400K 10000000010000000058           
CUS0858490000108413816003         MAYFIELD WOODS LIMIT29 RHONDA CT                            000N        CARE OF             
MTR08584900001000000000000000RA              99999999    005800990000009900000520000003NN  NNW 000                       N    
RDG08584900WATRL000000004K00000000000000070008103092015123841N000000000000N84       000020400K 10000000010000000070           
CUS0858490000108413815005         BRADLEY DESIREE L   27 RHONDA CT                            000N        CARE OF             
MTR08584900001000000000000000RA              14916224    005801000000010000000310000003NN  NNW 000                       N    
RDG08584900WATRL000000004K00000000000000719008203092015123903N000000000000N84       000220400K 10000000010000000698           
CUS0858490000108413814008         DICKERSON ALVIS L   25 RHONDA CT                            000N        CARE OF             
MTR08584900001000000000000000RA              14914032    005801010000010100000310000003NN  NNW 000                       N    
RDG08584900WATRL000000004K00000000000000530008303092015123907N000000000000N84       000040400K 10000000010000000509           
CUS0858490000108413813000         MONU C HEZY         23 RHONDA CT                            000N        CARE OF             
MTR08584900001000000000000000RA              14914620    005801020000010200000310000003NN  NNW 000                       N    
RDG08584900WATRL000000004K00000000000001021008603092015124124N000000000000N84       000690400K 10000000010000000991           
CUS0858490000108413812002         MCFIELD GAIL D      21 RHONDA CT                            000N        CARE OF             
MTR08584900001000000000000000RA              14905501    005801030000010300000310000003NN  NNW 000                       N    
RDG08584900WATRL000000004K00000000000000755008503092015124015N000000000000N84       000590400K 10000000010000000735           
CUS0858490000108413811004         POMPEY RUSSELL S A  17 RHONDA CT                            000N        CARE OF             
MTR08584900001000000000000000RA              14907456    005801040000010400000310000003NN  NNW 000                       N    
RDG08584900WATRL000000004K00000000000000715008703092015124141N000000000000N84       000170400K 10000000010000000697           
CUS0858490000108413810006         EGUDIA NKEM         15 RHONDA CT                            000N        CARE OF             
MTR08584900001000000000000000RA              01104271    005801050000010500000610000003NN  NNW 000                       N    
RDG08584900WATRL000000004K00000000000002232008803092015124151N000300000010N84       000100400K 10000000010000002194           
CUS0858490000108413809008         TEAMER CEDRIC       13 RHONDA CT                            000N        CARE OF             
MTR08584900001000000000000000RA              01099748    005801060000010600000610000003NN  NNW 000                       N    
RDG08584900WATRL000000004K00000000000001345008903092015124342N000300000010N84       001110400K 10000000010000001293           
CUS0858490000108413808000         JARVIS CANDACE N    11 RHONDA CT                            000N        CARE OF             
MTR08584900001000000000000000RA              14900842    005801070000010700000310000003NN  NNW 000                       N    
RDG08584900WATRL000000004K00000000000001457009003092015124344N000000000000N84       000020400K 10000000010000001416           
CUS0858490000108413807002         REDMOND NICOLE      9 RHONDA CT                             000N        CARE OF             
MTR08584900001000000000000000RA              14912323    005801080000010800000310000003NN  NNW 000                       N    
RDG08584900WATRL000000004K00000000000000377009103092015124403N000000000000N84       000190400K 10000000010000000364           
CUS0858490000108413806004         RAYNER WHITAKER     7 RHONDA CT                             000N        CARE OF             
MTR08584900001000000000000000RA              14912573    005801090000010900000310000003NN  NNW 000                       N    
RDG08584900WATRL000000004K00000000000000786009203092015124448N000000000000N84       000450400K 10000000010000000761           
CUS0858490000108413805006         ADAMS GRETA A       5 RHONDA CT                             000N        CARE OF             
MTR08584900001000000000000000RA              01102000    005801100000011000000610000003NN  NNW 000                       N    
RDG08584900WATRL000000004K00000000000001629009303092015124519N000400000010N84       000310400K 10000000010000001614           
CUS0858490000108413804009         LABADOR AURORA  LABA3 RHONDA CT                             000N        CARE OF             
MTR08584900001000000000000000RA              01101927    005801110000011100000610000003NN  NNW 000                       N    
RDG08584900WATRL000000004K00000000000001858009403092015124521N000000000000N84       000020400K 10000000010000001819           
CUS0858490000108413803001         MAYFIELD WOODS LIMIT1 RHONDA CT                             000N        CARE OF             
MTR08584900001000000000000000RA              01108737    005801120000011200000610000003NN  NNW 000                       N    
RDG08584900WATRL000000004K00000000000000681009503092015124639N000300000010N84       000780400K 10000000010000000665           
CUS0858490000108411458006         PINE RUN TOWNHOMES L2 PINE RUN CT                           000N        CARE OF             
MTR08584900001000000000000000RA              46878253    005801130000011300000520000003NN  NNW 000                       N    
RDG08584900WATRL000000004K00000000000002783004403092015122115N000000000000N84       000190400K 10000000010000002765           
CUS0858490000108411457008         PINE RUN TOWNHOMES L4 PINE RUN CT                           000N        CARE OF             
MTR08584900001000000000000000RA              46878256    005801140000011400000520000003NN  NNW 000                       N    
RDG08584900WATRL000000004K00000000000002767003803092015122010N000000000000N84       002370400K 10000000010000002753           
CUS0858490000108411456000         PINE RUN TOWNHOMES L6 PINE RUN CT                           000N        CARE OF             
MTR08584900001000000000000000RA              10022691    005801150000011500000570000003NN  NNW 000                       N    
RDG08584900WATRL000000004K00000000000000248003903092015122012N000000000000N84       000020400K 10000000010000000218           
CUS0858490000108411459004         PINE RUN TOWNHOMES L8 PINE RUN CT                           000N        CARE OF             
MTR08584900001000000000000000RA              46878275    005801160000011600000520000000NN  NNW 000                       N    
RDG08584900WATRL000000004K00000000000002942004003092015122032N000000000000N84       000200400K 10000000010000002889           
CUS0858490000108411455002         PINE RUN TOWNHOMES L10 PINE RUN CT                          000N        CARE OF             
MTR08584900001000000000000000RA              76348082    005801170000011700000350000003NN  NNW 000                       N    
RDG08584900WATRL000000004K00000000000000054004103092015122034N000000000000N84       000020400K 10000000010000000036           
CUS0858490000108411451001         KIMBERLY REALTY COMP12 PINE RUN CT                          000N        CARE OF             
MTR08584900001000000000000000RA              46878271    005801180000011800000520000003NN  NNW 000                       N    
RDG08584900WATRL000000004K00000000000001915004203092015122051N000000000000N84       000170400K 10000000010000001879           
CUS0858490000108411448007         PINE RUN TOWNHOMES L14 PINE RUN CT                          000N        CARE OF             
MTR08584900001000000000000000RA              46878274    005801190000011900000520000003NN  NNW 000                       N    
RDG08584900WATRL000000004K00000000000002592004303092015122056N000000000000N84       000050400K 10000000010000002544           
CUS0858490000108411444006         PINE RUN TOWNHOMES L16 PINE RUN CT                          000N        CARE OF             
MTR08584900001000000000000000RA              46878295    005801200000012000000520000003NN  NNW 000                       N    
RDG08584900WATRL000000004K00000000000001963004503092015122132N000000000000N84       000170400K 10000000010000001941           
CUS0858490000108411440004         PINE RUN TOWNHOMES L18 PINE RUN CT                          000N        CARE OF             
MTR08584900001000000000000000RA              46878273    005801210000012100000520000003NN  NNW 000                       N    
RDG08584900WATRL000000004K00000000000003266004603092015122134N000000000000N84       000020400K 10000000010000003246           
CUS0858490000108411436002         PINE RUN TOWNHOMES L20 PINE RUN CT                          000N        CARE OF             
MTR08584900001000000000000000RA              46878297    005801220000012200000520000003NN  NNW 000                       N    
RDG08584900WATRL000000004K00000000000003266004703092015122157N000000000000N84       000230400K 10000000010000003243           
CUS0858490000108411445003         PINE RUN TOWNHOMES L22 PINE RUN CT                          000N        CARE OF             
MTR08584900001000000000000000RA              46878299    005801230000012300000520000003NN  NNW 000                       N    
RDG08584900WATRL000000004K00000000000003111004803092015122245N000000000000N84       000480400K 10000000010000003095           
CUS0858490000108411443008         PINE RUN TOWNHOMES L24 PINE RUN CT                          000N        CARE OF             
MTR08584900001000000000000000RA              01089139    005801240000012400000610000003NN  NNW 000                       N    
RDG08584900WATRL000000004K00000000000001787004903092015122249N000000000000N84       000040400K 10000000010000001758           
CUS0858490000108411442000         PINE RUN TOWNHOMES L26 PINE RUN CT                          000N        CARE OF             
MTR08584900001000000000000000RA              46878298    005801250000012500000520000003NN  NNW 000                       N    
RDG08584900WATRL000000004K00000000000002242005003092015122252N000000000000N84       000030400K 10000000010000002206           
CUS0858490000108411441002         PINE RUN TOWNHOMES L28 PINE RUN CT                          000N        CARE OF             
MTR08584900001000000000000000RA              46878296    005801260000012600000520000003NN  NNW 000                       N    
RDG08584900WATRL000000004K00000000000003791005103092015122311N000000000000N84       000190400K 10000000010000003760           
CUS0858490000108411439006         PINE RUN TOWNHOMES L30 PINE RUN CT                          000N        CARE OF             
MTR08584900001000000000000000RA              01085645    005801270000012700000610000003NN  NNW 000                       N    
RDG08584900WATRL000000004K00000000000000740005203092015122314N000000000000N84       000030400K 10000000010000000718           
CUS0858490000108411438008         PINE RUN TOWNHOMES L32 PINE RUN CT                          000N        CARE OF             
MTR08584900001000000000000000RA              46878257    005801280000012800000520000003NN  NNW 000                       N    
RDG08584900WATRL000000004K00000000000001695005303092015122332N000000000000N84       000180400K 10000000010000001668           
CUS0858490000108411454005         PINE RUN TOWNHOMES L34 PINE RUN CT                          000N        CARE OF             
MTR08584900001000000000000000RA              46878254    005801290000012900000520000003NN  NNW 000                       N    
RDG08584900WATRL000000004K00000000000001975005403092015122334N000000000000N84       000020400K 10000000010000001955           
CUS0858490000108411437000         PINE RUN TOWNHOMES L36 PINE RUN CT                          000N        CARE OF             
MTR08584900001000000000000000RA              99291344    005801300000013000000570000003NN  NNW 000                       N    
RDG08584900WATRL000000004K00000000000001525005503092015122350N000000000000N84       000160400K 10000000010000001493           
CUS0858490000108411453007         PINE RUN TOWNHOMES L38 PINE RUN CT                          000N        CARE OF             
MTR08584900001000000000000000RA              46878334    005801310000013100000520000003NN  NNW 000                       N    
RDG08584900WATRL000000004K00000000000002765005703092015122412N000000000000N84       000030400K 10000000010000002754           
CUS0858490000108411452009         PINE RUN TOWNHOMES L40 PINE RUN CT                          000N        CARE OF             
MTR08584900001000000000000000RA              46878331    005801320000013200000520000003NN  NNW 000                       N    
RDG08584900WATRL000000004K00000000000002239005603092015122409N000000000000N84       000190400K 10000000010000002208           
CUS0858490000108411450003         PINE RUN TOWNHOMES L42 PINE RUN CT                          000N        CARE OF             
MTR08584900001000000000000000RA              99391060    005801330000013300000570000003NN  NNW 000                       N    
RDG08584900WATRL000000004K00000000000001292005803092015122423N000000000000N84       000110400K 10000000010000001270           
CUS0858490000108411449005         PINE RUN TOWNHOMES L44 PINE RUN CT                          000N        CARE OF             
MTR08584900001000000000000000RA              76345962    005801340000013400000350000003NN  NNW 000                       N    
RDG08584900WATRL000000004K00000000000000063005903092015122432N000000000000N84       000090400K 10000000010000000032           
CUS0858490000108411447009         PINE RUN TOWNHOMES L46 PINE RUN CT                          000N        CARE OF             
MTR08584900001000000000000000RA              46878330    005801350000013500000520000003NN  NNW 000                       N    
RDG08584900WATRL000000004K00000000000002710006003092015122452N000000000000N84       000200400K 10000000010000002687           
CUS0858490000108411446001         PINE RUN TOWNHOMES L48 PINE RUN CT                          000N        CARE OF             
MTR08584900001000000000000000RA              01087276    005801360000013600000610000003NN  NNW 000                       N    
RDG08584900WATRL000000004K00000000000001274006103092015122506N000000000000N84       000140400K 10000000010000001255           
CUS0858490000108413483002         AUSTIN RAYMOND P    8106 CARLSON LN                         000N        CARE OF             
MTR08584900001000000000000000RA              99287857    005801370000013700000570000003NN  NNW 000                       N    
RDG08584900WATRL000000004K00000000000001285007203102015111129N000000000030U84       000290400K 10000000010000001270           
CUS0858490000108413484000         WASHINGTON JEROME ED8104 CARLSON LN                         000N        CARE OF             
MTR08584900001000000000000000RA              54351956    005801380000013800000520000003NN  NNW 000                       N    
RDG08584900WATRL000000004K00000000000001163003703102015100524N000000000000U84       000930400K 10000000010000001150           
CUS0858490000108413485007         BIRDWHISTLE VICKI R 8102 CARLSON LN                         000N        CARE OF             
MTR08584900001000000000000000RA              01080258    005801390000013900000610000003NN  NNW 000                       N    
RDG08584900WATRL000000004K00000000000000936003803102015100629N000300000020U84       000650400K 10000000010000000872           
CUS0858490000108413486005         MCCLAIN CHARLENE    8100 CARLSON LN                         000N        CARE OF             
MTR08584900001000000000000000RA              01076397    005801400000014000000610000003NN  NNW 000                       N    
RDG08584900WATRL000000004K00000000000001127003903102015100738N000000000000U84       000690400K 10000000010000001111           
CUS0858490000108413673008         HENDRICKS KENNETH A 4 APRIL CT                              000N        CARE OF             
MTR08584900001000000000000000RA              99287224    005801410000014100000570000003NN  NNW 000                       N    
RDG08584900WATRL000000004K00000000000001257004003102015100853N000000000000U84       000750400K 10000000010000001229           
CUS0858490000108413674006         BURLESON LOVES L    6 APRIL CT                              000N        CARE OF             
MTR08584900001000000000000000RA              48583942    005801420000014200000520000003NN  NNW 000                       N    
RDG08584900WATRL000000004K00000000000001155007303102015111138N000000000000U84       000090400K 10000000010000001150           
CUS0858490000108413675003         WHEATLEY RODNEY H,SR8 APRIL CT                              000N        CARE OF             
MTR08584900001000000000000000RA              46886062    005801430000014300000520000003NN  NNW 000                       N    
RDG08584900WATRL000000004K00000000000001289004103102015100913N000000000000U84       000200400K 10000000010000001278           
CUS0858490000108413676001         CHATMAN PENNY D     5 APRIL CT                              000N        CARE OF             
MTR08584900001000000000000000RA              50480299    005801440000014400000520000003NN  NNW 000                       N    
RDG08584900WATRL000000004K00000000000001110004203102015100944N000000000000U84       000310400K 10000000010000001099           
CUS0858490000108413677009         POWELL BRENDA       3 APRIL CT                              000N        CARE OF             
MTR08584900001000000000000000RA              52286453    005801450000014500000520000003NN  NNW 000                       N    
RDG08584900WATRL000000004K00000000000002000007403102015111149N000000000020U84       000110400K 10000000010000001985           
CUS0858490000108413678007         BROWN JOSEPH E,JR   8016 CARLSON LN                         000N        CARE OF             
MTR08584900001000000000000000RA              99293686    005801460000014600000570000003NN  NNW 000                       N    
RDG08584900WATRL000000004K00000000000002008004303102015101033N000000000000U84       000490400K 10000000010000001992           
CUS0858490000108413487003         BLACK WILLIAM E     8014 CARLSON LN                         000N        CARE OF             
MTR08584900001000000000000000RA              99287703    005801470000014700000570000003NN  NNW 000                       N    
RDG08584900WATRL000000004K00000000000000921004403102015101133N000000000000U84       000600400K 10000000010000000885           
CUS0858490000108413488001         WILLIAMS EUGENE     8012 CARLSON LN                         000N        CARE OF             
MTR08584900001000000000000000RA              10022284    005801480000014800000570000003NN  NNW 000                       N    
RDG08584900WATRL000000004K00000000000000086007503102015111207N000000000030U84       000180400K 10000000010000000086           
CUS0858490000108413489009         CARTER NNAMDI       8010 CARLSON LN                         000N        CARE OF             
MTR08584900001000000000000000RA              50787033    005801490000014900000520000003NN  NNW 000                       N    
RDG08584900WATRL000000004K00000000000001164007603102015111232N000000000040U84       000250400K 10000000010000001144           
CUS0858490000108413490007         TAYLOR HARRY S      8008 CARLSON LN                         000N        CARE OF             
MTR08584900001000000000000000RA              01113716    005801500000015000000610000003NN  NNW 000                       N    
RDG08584900WATRL000000004K00000000000001897007703102015111238N000000000010U84       000060400K 10000000010000001887           
CUS0858490000108413491005         CONNOR ERNESTINE M  8006 CARLSON LN                         000N        CARE OF             
MTR08584900001000000000000000RA              46885335    005801510000015100000520000003NN  NNW 000                       N    
RDG08584900WATRL000000004K00000000000001873004503102015101230N000000000000U84       000570400K 10000000010000001858           
CUS0858490000108429875001         GOSLEE JANNAI C     8004 CARLSON LN                         000N        CARE OF             
MTR08584900001000000000000000RA              01076147    005801520000015200000610000003NN  NNW 000                       N    
RDG08584900WATRL000000004K00000000000000656004603102015101306N000000000000U84       000360400K 10000000010000000616           
CUS0858490000108429876009         BAILEY EDWINA T     8000A CARLSON LN                        000N        CARE OF             
MTR08584900001000000000000000RA              01079966    005801530000015300000610000003NN  NNW 000                       N    
RDG08584900WATRL000000004K00000000000001401007803102015111249N000000000010U84       000110400K 10000000010000001391           
CUS0858490000108429877007         LOWERY THOMAS E     8000 CARLSON LN                         000N        CARE OF             
MTR08584900001000000000000000RA              99388185    005801540000015400000570000003NN  NNW 000                       N    
RDG08584900WATRL000000004K00000000000001151007903102015111251N000000000000U84       000020400K 10000000010000001146           
CUS0858490000108439089007         GROOMS ERIK F       8 PASTURE ROSE CT                       000N        CARE OF             
MTR08584900001000000000000000RA              14917439    005801550000015500000570000000NN  NNW 000                       N    
RDG08584900WATRL000000004K00000000000000733005103102015102543N000000000000U84       000040400K 10000000010000000703           
CUS0858490000108439088009         LEE ROBERT D,3RD    7 PASTURE ROSE CT                       000N        CARE OF             
MTR08584900001000000000000000RA              14917889    005801560000015600000310000000NN  NNW 000                       N    
RDG08584900WATRL000000004K00000000000000853005003102015102539N000000000000U84       000040400K 10000000010000000824           
CUS0858490000108439087001         ADAMS RANDOLPH J    5 PASTURE ROSE CT                       000N        CARE OF             
MTR08584900001000000000000000RA              14922690    005801570000015700000310000000NN  NNW 000                       N    
RDG08584900WATRL000000004K00000000000002303004903102015102535N000000000000U84       000100400K 10000000010000002240           
CUS0858490000108439086003         LEE SEAN            3 PASTURE ROSE CT                       000N        CARE OF             
MTR08584900001000000000000000RA              14917441    005801580000015800000570000000NN  NNW 000                       N    
RDG08584900WATRL000000004K00000000000001036005203102015103014N000000000000U84       002710400K 10000000010000001009           
CUS0858490000108439085005         MICHEL PAUL EDDY,SR/1 PASTURE ROSE CT                       000N        CARE OF             
MTR08584900001000000000000000RA              14917442    005801590000015900000310000000NN  NNW 000                       N    
RDG08584900WATRL000000004K00000000000000775004803102015102525N000000000000U84       003890400K 10000000010000000701           
CUS0858490000108443993004         COLLEEN COTTON      2908 MAYFIELD AVE                       000N        CARE OF             
MTR08584900001000000000000000RA              10020429    005801600000016000000570000003NN  NNW 000                       N    
RDG08584900WATRL000000004K00000000000000178004703102015103256N000000000011U84       001620400K 10000000010000000077           
CUS0858490000108432099003         LEWIS MAXINE A      7831 BIG BUCK DR                        000N        CARE OF             
MTR08584900001000000000000000RA              01075316    005801610000016100000610000003NN  NNW 000                       N    
RDG08584900WATRL000000004K00000000000001905009903092015130014N000000000000N84       000130400K 10000000010000001863           
CUS0858490000108432098005         OLIVER EDWARD,JR    7829 BIG BUCK DR                        000N        CARE OF             
MTR08584900001000000000000000RA              01075311    005801620000016200000610000003NN  NNW 000                       N    
RDG08584900WATRL000000004K00000000000001368010003092015130122N000000000000N84       000680400K 10000000010000001346           
CUS0858490000108432097007         DAVIS KEVIN         7827 BIG BUCK DR                        000N        CARE OF             
MTR08584900001000000000000000RA              01075231    005801630000016300000610000003NN  NNW 000                       N    
RDG08584900WATRL000000004K00000000000001288010103092015130844N000300000010N84       004420400K 10000000010000001289           
CUS0858490000108432096009         GORDON ERIC         7825 BIG BUCK DR                        000N        CARE OF             
MTR08584900001000000000000000RA              01075314    005801640000016400000610000003NN  NNW 000                       N    
RDG08584900WATRL000000004K00000000000001397016403092015160825N000000000010N84       000330400K 10000000010000001387           
CUS0858490000108432090002         DURANT DAVID D      7821 BIG BUCK DR                        000N        CARE OF             
MTR08584900001000000000000000RA              01075315    005801650000016500000610000003NN  NNW 000                       N    
RDG08584900WATRL000000004K00000000000000686010503092015131301N000000000000N84       000400400K 10000000010000000670           
CUS0858490000108432089004         SMITH MICHAEL R     7819 BIG BUCK DR                        000N        CARE OF             
MTR08584900001000000000000000RA              01075313    005801660000016600000610000003NN  NNW 000                       N    
RDG08584900WATRL000000004K00000000000001373010603092015131441N000000000000N84       001000400K 10000000010000001348           
CUS0858490000108432088006         NICHOLS KIRK B      7817 BIG BUCK DR                        000N        CARE OF             
MTR08584900001000000000000000RA              01075284    005801670000016700000610000003NN  NNW 000                       N    
RDG08584900WATRL000000004K00000000000000766010703092015131713N000000000000N84       001520400K 10000000010000000753           
CUS0858490000108432087008         MERCER KEVIN J      7815 BIG BUCK DR                        000N        CARE OF             
MTR08584900001000000000000000RA              01075237    005801680000016800000610000003NN  NNW 000                       N    
RDG08584900WATRL000000004K00000000000001458010803092015132007N000000000000N84       001740400K 10000000010000001427           
CUS0858490000108432086000         ROULHAC DAVID L     7813 BIG BUCK DR                        000N        CARE OF             
MTR08584900001000000000000000RA              01075319    005801690000016900000610000003NN  NNW 000                       N    
RDG08584900WATRL000000004K00000000000001394010903092015132151N000000000000N84       001040400K 10000000010000001383           
CUS0858490000108432085002         BUTLER KENNETH B    7811 BIG BUCK DR                        000N        CARE OF             
MTR08584900001000000000000000RA              01094005    005801700000017000000610000003NN  NNW 000                       N    
RDG08584900WATRL000000004K00000000000001026011003092015132336N000000000000N84       001050400K 10000000010000000989           
CUS0858490000108432084005         ARMSTEAD ARTHUR E   7809 BIG BUCK DR                        000N        CARE OF             
MTR08584900001000000000000000RA              10015416    005801710000017100000570000003NN  NNW 000                       N    
RDG08584900WATRL000000004K00000000000000167011103092015132441N000300000010N84       000650400K 10000000010000000163           
CUS0858490000108432083007         TESFAMARIAM MUSSIE  7807 BIG BUCK DR                        000N        CARE OF             
MTR08584900001000000000000000RA              78022427    005801720000017200000350000003NN  NNW 000                       N    
RDG08584900WATRL000000004K00000000000000063011203092015132820N000300000010N84       002190400K 10000000010000000000           
CUS0858490000108432079005         SUMMERS PATRICIA A  7805 BIG BUCK DR                        000N        CARE OF             
MTR08584900001000000000000000RA              01090814    005801730000017300000610000003NN  NNW 000                       N    
RDG08584900WATRL000000004K00000000000001639011303092015133108N000000000000N84       001680400K 10000000010000001606           
CUS0858490000108432078007         FOREMAN STEPHEN     7803 BIG BUCK DR                        000N        CARE OF             
MTR08584900001000000000000000RA              01084430    005801740000017400000610000003NN  NNW 000                       N    
RDG08584900WATRL000000004K00000000000001147011403092015133113N000000000000N84       000050400K 10000000010000001142           
CUS0858490000108432823006         RICE KIMMOLY        7717 BIG BUCK DR                        000N        CARE OF             
MTR08584900001000000000000000RA              01096732    005801750000017500000610000003NN  NNW 000                       N    
RDG08584900WATRL000000004K00000000000001028013203092015160052N000000000020N84       071100400K 10000000010000001013           
CUS0858490000108432832007         COPELAND ANDREW M  C7715 BIG BUCK DR                        000N        CARE OF             
MTR08584900001000000000000000RA              01091338    005801760000017600000610000003NN  NNW 000                       N    
RDG08584900WATRL000000004K00000000000001526013303092015160106N000000000020N84       000140400K 10000000010000001511           
CUS0858490000108432833005         CARR EDDIE LISTON,JR7713 BIG BUCK DR                        000N        CARE OF             
MTR08584900001000000000000000RA              01086405    005801770000017700000610000003NN  NNW 000                       N    
RDG08584900WATRL000000004K00000000000001302013403092015160117N000000000010N84       000110400K 10000000010000001292           
CUS0858490000108432112004         HENRY TIFFANI       12 DEER GLEN CT                         000N        CARE OF             
MTR08584900001000000000000000RA              01099736    005801780000017800000610000003NN  NNW 000                       N    
RDG08584900WATRL000000004K00000000000001209013503092015160150N000000000030N84       000330400K 10000000010000001189           
CUS0858490000108432113002         NAROO YASIR Y       10 DEER GLEN CT                         000N        CARE OF             
MTR08584900001000000000000000RA              01097178    005801790000017900000610000003NN  NNW 000                       N    
RDG08584900WATRL000000004K00000000000002550013603092015160201N000000000020N84       000110400K 10000000010000002535           
CUS0858490000108432114000         CHRISTIE OLEJEMAH   8 DEER GLEN CT                          000N        CARE OF             
MTR08584900001000000000000000RA              01106726    005801800000018000000610000003NN  NNW 000                       N    
RDG08584900WATRL000000004K00000000000001165013703092015160207N000000000010N84       000060400K 10000000010000001155           
CUS0858490000108432115007         BOOKER TANYA        6 DEER GLEN CT                          000N        CARE OF             
MTR08584900001000000000000000RA              10010105    005801810000018100000570000003NN  NNW 000                       N    
RDG08584900WATRL000000004K00000000000000466013803092015160225N000000000020N84       000180400K 10000000010000000451           
CUS0858490000108432116005         SIMS ANGINNA T      4 DEER GLEN CT                          000N        CARE OF             
MTR08584900001000000000000000RA              76346502    005801820000018200000350000003NN  NNW 000                       N    
RDG08584900WATRL000000004K00000000000000064013903092015160237N000000000020N84       000120400K 10000000010000000049           
CUS0858490000108432117003         CARTER JURISE Y     9 DEER GLEN CT                          000N        CARE OF             
MTR08584900001000000000000000RA              01093640    005801830000018300000610000003NN  NNW 000                       N    
RDG08584900WATRL000000004K00000000000002446014003092015160307N000000000040N84       000300400K 10000000010000002421           
CUS0858490000108432118001         SAMPSON ODONALD B,JR7 DEER GLEN CT                          000N        CARE OF             
MTR08584900001000000000000000RA              01093651    005801840000018400000610000003NN  NNW 000                       N    
RDG08584900WATRL000000004K00000000000001367014103092015160315N000000000010N84       000080400K 10000000010000001357           
CUS0858490000108432119009         MCDUFFIE RONALD A   5 DEER GLEN CT                          000N        CARE OF             
MTR08584900001000000000000000RA              01086420    005801850000018500000610000003NN  NNW 000                       N    
RDG08584900WATRL000000004K00000000000002091014203092015160321N000000000010N84       000060400K 10000000010000002081           
CUS0858490000108432120007         SMITH CLYDE         3 DEER GLEN CT                          000N        CARE OF             
MTR08584900001000000000000000RA              01086408    005801860000018600000610000003NN  NNW 000                       N    
RDG08584900WATRL000000004K00000000000001695014303092015160337N000000000020N84       000160400K 10000000010000001680           
CUS0858490000108432807009         HAMILTON DOUGLAS    7800 BIG BUCK DR                        000N        CARE OF             
MTR08584900001000000000000000RA              01082344    005801870000018700000610000003NN  NNW 000                       N    
RDG08584900WATRL000000004K00000000000001177014403092015160347N000000000010N84       000100400K 10000000010000001167           
CUS0858490000108432814005         MOORE JAMES         7709 BIG BUCK DR                        000N        CARE OF             
MTR08584900001000000000000000RA              01086404    005801880000018800000610000003NN  NNW 000                       N    
RDG08584900WATRL000000004K00000000000000890014503092015160352N000000000010N84       000050400K 10000000010000000880           
CUS0858490000108432806001         PERRY LONNIE V JR   7802 BIG BUCK DR                        000N        CARE OF             
MTR08584900001000000000000000RA              75616435    005801890000018900000350000003NN  NNW 000                       N    
RDG08584900WATRL000000004K00000000000000370014603092015160401N000000000010N84       000090400K 10000000010000000360           
CUS0858490000108432816000         WILLIAMS PHILIP G   7707 BIG BUCK DR                        000N        CARE OF             
MTR08584900001000000000000000RA              01090811    005801900000019000000610000003NN  NNW 000                       N    
RDG08584900WATRL000000004K00000000000001545014703092015160411N000000000020N84       000100400K 10000000010000001530           
CUS0858490000108432805003         BROWN RONALD A      7804 BIG BUCK DR                        000N        CARE OF             
MTR08584900001000000000000000RA              75616436    005801910000019100000350000003NN  NNW 000                       N    
RDG08584900WATRL000000004K00000000000000022014803092015160419N000000000000N84       000080400K 10000000010000000017           
CUS0858490000108432815002         OLATIDOYE KENNY O   7705 BIG BUCK DR                        000N        CARE OF             
MTR08584900001000000000000000RA              01091332    005801920000019200000610000003NN  NNW 000                       N    
RDG08584900WATRL000000004K00000000000002447014903092015160452N000000000060N84       000330400K 10000000010000002417           
CUS0858490000108432817008         ROBINSON DIANE      7703 BIG BUCK DR                        000N        CARE OF             
MTR08584900001000000000000000RA              01091339    005801930000019300000610000003NN  NNW 000                       N    
RDG08584900WATRL000000004K00000000000002350015003092015160533N000000000080N84       000410400K 10000000010000002310           
CUS0858490000108432818006         SMITH JAMES H,JR    7701 BIG BUCK DR                        000N        CARE OF             
MTR08584900001000000000000000RA              01086401    005801940000019400000610000003NN  NNW 000                       N    
RDG08584900WATRL000000004K00000000000001683015103092015160603N000000000060N84       000300400K 10000000010000001683           
CUS0858490000108432841008         ALADEKOBA PATRICIA C7700 BIG BUCK DR                        000N        CARE OF             
MTR08584900001000000000000000RA              01096733    005801950000019500000610000003NN  NNW 000                       N    
RDG08584900WATRL000000004K00000000000001432015203092015160630N000000000030N84       000270400K 10000000010000001412           
CUS0858490000108432837006         ZAMBO PABLO M       7708 BIG BUCK DR                        000N        CARE OF             
MTR08584900001000000000000000RA              01090800    005801960000019600000610000003NN  NNW 000                       N    
RDG08584900WATRL000000004K00000000000001467015303092015160638N000000000010N84       000080400K 10000000010000001457           
CUS0858490000108432836008         BENNETT NASHAE M    7710 BIG BUCK DR                        000N        CARE OF             
MTR08584900001000000000000000RA              01091333    005801970000019700000610000003NN  NNW 000                       N    
RDG08584900WATRL000000004K00000000000000514015403092015160648N000000000010N84       000100400K 10000000010000000504           
CUS0858490000108432840000         BAKER RERNARD A     7702 BIG BUCK DR                        000N        CARE OF             
MTR08584900001000000000000000RA              01091962    005801980000019800000610000003NN  NNW 000                       N    
RDG08584900WATRL000000004K00000000000001302015503092015160655N000000000010N84       000070400K 10000000010000001292           
CUS0858490000108432838004         ADORADOR LINDA A    7706 BIG BUCK DR                        000N        CARE OF             
MTR08584900001000000000000000RA              01090510    005801990000019900000610000003NN  NNW 000                       N    
RDG08584900WATRL000000004K00000000000000806015603092015160658N000000000000N84       000030400K 10000000010000000800           
CUS0858490000108432835000         LAWRENCE DAVID G    7712 BIG BUCK DR                        000N        CARE OF             
MTR08584900001000000000000000RA              01091334    005802000000020000000610000003NN  NNW 000                       N    
RDG08584900WATRL000000004K00000000000001139015703092015160711N000000000020N84       000130400K 10000000010000001124           
CUS0858490000108432822008         CATES VALARIE       7716 BIG BUCK DR                        000N        CARE OF             
MTR08584900001000000000000000RA              01090630    005802010000020100000610000003NN  NNW 000                       N    
RDG08584900WATRL000000004K00000000000000459015803092015160715N000000000000N84       000040400K 10000000010000000454           
CUS0858490000108432839002         JOHNSON TYRONE L    7704 BIG BUCK DR                        000N        CARE OF             
MTR08584900001000000000000000RA              01091960    005802020000020200000610000003NN  NNW 000                       N    
RDG08584900WATRL000000004K00000000000001223015903092015160724N000000000010N84       000090400K 10000000010000001213           
CUS0858490000108432821000         THOMAS BEN,JR       7718 BIG BUCK DR                        000N        CARE OF             
MTR08584900001000000000000000RA              01112833    005802030000020300000610000003NN  NNW 000                       N    
RDG08584900WATRL000000004K00000000000000452016003092015160728N000000000000N84       000040400K 10000000010000000447           
CUS0858490000108432834003         MCCOY NORMAN R      7714 BIG BUCK DR                        000N        CARE OF             
MTR08584900001000000000000000RA              01086403    005802040000020400000610000003NN  NNW 000                       N    
RDG08584900WATRL000000004K00000000000001313016103092015160735N000000000010N84       000070400K 10000000010000001303           
CUS0858490000108432820002         KELLEE E FRANKS     7720 BIG BUCK DR                        000N        CARE OF             
MTR08584900001000000000000000RA              01086409    005802050000020500000610000003NN  NNW 000                       N    
RDG08584900WATRL000000004K00000000000001180016203092015160743N000000000010N84       000080400K 10000000010000001170           
CUS0858490000108432819004         MOORE GEORGE HENRY  7722 BIG BUCK DR                        000N        CARE OF             
MTR08584900001000000000000000RA              01085188    005802060000020600000610000003NN  NNW 000                       N    
RDG08584900WATRL000000004K00000000000000820016303092015160752N000000000010N84       000090400K 10000000010000000810           
CUS0858490000108432813007         FAIDLEY JUAN L      7724 BIG BUCK DR                        000N        CARE OF             
MTR08584900001000000000000000RA              01096736    005802070000020700000610000003NN  NNW 000                       N    
RDG08584900WATRL000000004K00000000000000389016503092015160836N000000000000N84       000110400K 10000000010000000384           
CUS0858490000108432812009         FENWICK PAUL G      7726 BIG BUCK DR                        000N        CARE OF             
MTR08584900001000000000000000RA              01096739    005802080000020800000610000003NN  NNW 000                       N    
RDG08584900WATRL000000004K00000000000001223016603092015160843N000000000010N84       000070400K 10000000010000001213           
CUS0858490000108432811001         INGRAM DAMIEN BAYARD7728 BIG BUCK DR                        000N        CARE OF             
MTR08584900001000000000000000RA              01096652    005802090000020900000610000003NN  NNW 000                       N    
RDG08584900WATRL000000004K00000000000001049016703092015160910N000000000050N84       000270400K 10000000010000001024           
CUS0858490000108432810003         ALLEN RAYMOND,JR    7730 BIG BUCK DR                        000N        CARE OF             
MTR08584900001000000000000000RA              01096653    005802100000021000000610000003NN  NNW 000                       N    
RDG08584900WATRL000000004K00000000000000952016803092015160913N000000000000N84       000030400K 10000000010000000947           
CUS0858490000108432809005         AMISON AONZO L      7732 BIG BUCK DR                        000N        CARE OF             
MTR08584900001000000000000000RA              01100067    005802110000021100000610000003NN  NNW 000                       N    
RDG08584900WATRL000000004K00000000000000731016903092015160920N000000000000N84       000070400K 10000000010000000726           
CUS0858490000108432808007         RUSSELL SHIRLEY A   7734 BIG BUCK DR                        000N        CARE OF             
MTR08584900001000000000000000RA              01082348    005802120000021200000610000003NN  NNW 000                       N    
RDG08584900WATRL000000004K00000000000000837017003092015160930N000000000010N84       000100400K 10000000010000000827           
CUS0858490000108432803008         MATTHEWS EDWIN A    7736 BIG BUCK DR                        000N        CARE OF             
MTR08584900001000000000000000RA              01096657    005802130000021300000610000003NN  NNW 000                       N    
RDG08584900WATRL000000004K00000000000002694017103092015161012N000000000070N84       000420400K 10000000010000002659           
CUS0858490000108432804006         BRUNSON KEVIN M     7738 BIG BUCK DR                        000N        CARE OF             
MTR08584900001000000000000000RA              01082349    005802140000021400000610000003NN  NNW 000                       N    
RDG08584900WATRL000000004K00000000000001552017203092015161020N000000000010N84       000080400K 10000000010000001542           
CUS0858490000108432080003         EDWARDS ANTONIO G   7806 BIG BUCK DR                        000N        CARE OF             
MTR08584900001000000000000000RA              01082228    005802150000021500000610000003NN  NNW 000                       N    
RDG08584900WATRL000000004K00000000000001797011503092015133336N000000000000N84       001430400K 10000000010000001781           
CUS0858490000108432081001         THORPE SHONNIE EVELI7808 BIG BUCK DR                        000N        CARE OF             
MTR08584900001000000000000000RA              01082044    005802160000021600000610000003NN  NNW 000                       N    
RDG08584900WATRL000000004K00000000000001783011603092015133426N000000000000N84       000500400K 10000000010000001713           
CUS0858490000108432082009         ALLEN MARIE         7810 BIG BUCK DR                        000N        CARE OF             
MTR08584900001000000000000000RA              01082341    005802170000021700000610000003NN  NNW 000                       N    
RDG08584900WATRL000000004K00000000000000635011703092015133608N000000000000N84       001020400K 10000000010000000617           
CUS0858490000108432108002         PRISCA NGENYI       7800 DOE RIDGE DR                       000N        CARE OF             
MTR08584900001000000000000000RA              01080934    005802180000021800000570000003NN  NNW 000                       N    
RDG08584900WATRL000000004K00000000000001593011803092015133715N000000000000N84       000670400K 10000000010000001532           
CUS0858490000108432107004         CHAI FOO LEW        7802 DOE RIDGE DR                       000N        CARE OF             
MTR08584900001000000000000000RA              01080936    005802190000021900000610000003NN  NNW 000                       N    
RDG08584900WATRL000000004K00000000000000596012003092015134251N000000000000N84       000080400K 10000000010000000574           
CUS0858490000108432106006         ABOAGYE FRANCISCA A 7804 DOE RIDGE DR                       000N        CARE OF             
MTR08584900001000000000000000RA              01080933    005802200000022000000610000003NN  NNW 000                       N    
RDG08584900WATRL000000004K00000000000001532012203092015134526N000000000000N84       000290400K 10000000010000001505           
CUS0858490000108432100009         BRASWELL BERNARD    7806 DOE RIDGE DR                       000N        CARE OF             
MTR08584900001000000000000000RA              01080931    005802210000022100000610000003NN  NNW 000                       N    
RDG08584900WATRL000000004K00000000000000920012303092015134637N000000000000N84       000710400K 10000000010000000900           
CUS0858490000108432101007         TANWANI HELEN       7808 DOE RIDGE DR                       000N        CARE OF             
MTR08584900001000000000000000RA              01080939    005802220000022200000610000003NN  NNW 000                       N    
RDG08584900WATRL000000004K00000000000001725012603092015134932N000000000000N84       000250400K 10000000010000001702           
CUS0858490000108432103003         N SAUNDERS & K JAMES7809 DOE RIDGE DR                       000N        CARE OF             
MTR08584900001000000000000000RA              01080938    005802230000022300000570000003NN  NNW 000                       N    
RDG08584900WATRL000000004K00000000000001079012503092015134907N000000000000N84       000770400K 10000000010000001051           
CUS0858490000108432102005         JOHNSON MAXINE L    7807 DOE RIDGE DR                       000N        CARE OF             
MTR08584900001000000000000000RA              01080937    005802240000022400000570000003NN  NNW 000                       N    
RDG08584900WATRL000000004K00000000000001539012403092015134750N000000000000N84       000730400K 10000000010000001524           
CUS0858490000108432111006         AIGBE PHILOMENA O   7805 DOE RIDGE DR                       000N        CARE OF             
MTR08584900001000000000000000RA              01088160    005802250000022500000610000003NN  NNW 000                       N    
RDG08584900WATRL000000004K00000000000001346012103092015134457N000000000000N84       001260400K 10000000010000001329           
CUS0858490000108432109000         HOLLAND CALVIN R    7803 DOE RIDGE DR                       000N        CARE OF             
MTR08584900001000000000000000RA              01088189    005802260000022600000610000003NN  NNW 000                       N    
RDG08584900WATRL000000004K00000000000001047011903092015134243N000000000000N84       003280400K 10000000010000001018           
CUS0858490000108432110008         MASON ALFRED        7801 DOE RIDGE DR                       000N        CARE OF             
MTR08584900001000000000000000RA              01080932    005802270000022700000610000003NN  NNW 000                       N    
RDG08584900WATRL000000004K00000000000001018013103092015140222N000000000000N84       004640400K 10000000010000000987           
CUS0858490000108432091000         TAYLOR DONNA L      7818 BIG BUCK DR                        000N        CARE OF             
MTR08584900001000000000000000RA              01075165    005802280000022800000610000003NN  NNW 000                       N    
RDG08584900WATRL000000004K00000000000001047010403092015131221N000000000000N84       000620400K 10000000010000001005           
CUS0858490000108432092008         PATRICIA HILL       7820 BIG BUCK DR                        000N        CARE OF             
MTR08584900001000000000000000RA              14924331    005802290000022900000310000003NN  NNW 000                       N    
RDG08584900WATRL000000004K00000000000000529010303092015131119N000400000010N84       000350400K 10000000010000000520           
CUS0858490000108432093006         JOSEPH DWIGHT P     7822 BIG BUCK DR                        000N        CARE OF             
MTR08584900001000000000000000RA              10010546    005802300000023000000570000003NN  NNW 000                       N    
RDG08584900WATRL000000004K00000000000000367010203092015131044N000000000000N84       001200400K 10000000010000000342           
CUS0858490000108432094004         TRAHAN RONALD B     7824 BIG BUCK DR                        000N        CARE OF             
MTR08584900001000000000000000RA              01075163    005802310000023100000610000003NN  NNW 000                       N    
RDG08584900WATRL000000004K00000000000000838009803092015130001N000000000000N84       000650400K 10000000010000000831           
CUS0858490000108432095001         BROOKS RUFUS L      7826 BIG BUCK DR                        000N        CARE OF             
MTR08584900001000000000000000RA              01106683    005802320000023200000610000003NN  NNW 000                       N    
RDG08584900WATRL000000004K00000000000001033009703092015125856N000000000000N84       000120400K 10000000010000001014           
CUS0858490000108432104001         JACKSON LEWIS L     3103 MAYFIELD AVE                       000N        CARE OF             
MTR08584900001000000000000000RA              01093695    005802330000023300000610000003NN  NNW 000                       N    
RDG08584900WATRL000000004K00000000000001373012703092015135204N000000000000N84       000430400K 10000000010000001348           
CUS0858490000108432105008         WILLIAMS NICOLE     3105 MAYFIELD AVE                       000N        CARE OF             
MTR08584900001000000000000000RA              01082205    005802340000023400000610000003NN  NNW 000                       N    
RDG08584900WATRL000000004K00000000000000893009603092015135121N000000000011N84       001090400K 10000000010000000886           
CUS0858490000108032424007         MCCOLLOUGH GREGORY M3111 MAYFIELD AVE                       000N        CARE OF             
MTR08584900001000000000000000RA              14918211    005802350000023500000310000003NN  NNW 000                       N    
RDG08584900WATRL000000004K00000000000000784001403102015092201N000000000000U84       000920400K 10000000010000000760           
CUS0858490000108032421003         CHRISTOPHER FURLONG 3110 MAYFIELD AVE                       000N        CARE OF             
MTR08584900001000000000000000RA              14907986    005802360000023600000310000000NN  NNW 000                       N    
RDG08584900WATRL000000004K00000000000000929001503102015092245N000000000000U84       000440400K 10000000010000000918           
CUS0858490000108409557009         STEVEN RICHMOND JR  3201 MAYFIELD AVE                       000N        CARE OF             
MTR08584900001000000000000000RA              45377618    005802370000023700000520000003NN  NNW 000                       N    
RDG08584900WATRL000000004K00000000000001338001803102015092626N000000000000U84       001030400K 10000000010000001328           
CUS0858490000108032435003         IVEY JULIE E        3203 MAYFIELD AVE                       000N        CARE OF             
MTR08584900001000000000000000RA              24220192    005802380000023800000520000003NN  NNW 000                       N    
RDG08584900WATRL000000004K00000000000005740001903102015092706N000000000000U84       000400400K 10000000010000005739           
CUS0858490000108032436001         BROOKS WILLIE       3205 MAYFIELD AVE                       000N        CARE OF             
MTR08584900001000000000000000RA              43905758    007502390000023900000520000003NN  NNW 000                       N    
RDG08584900WATRL000000004K00000000000000712002003102015092755N000000000000U84       000490400K 10000000010000000703           
CUS0858490000108032414008         CHARLES MILTON MCDON3207 MAYFIELD AVE                       000N        CARE OF             
MTR08584900001000000000000000RA              23059195    005802400000024000000520000003NN  NNW 000                       N    
RDG08584900WATRL000000004K00000000000003042002103102015093632N000000000000U84       005170400K 10000000010000003032           
CUS0858490000108439902001         CARR LARRY R        3211 MAYFIELD AVE                       000N        CARE OF             
MTR08584900001000000000000000RA              14916099    005802410000024100000310000003NN  NNW 000                       N    
RDG08584900WATRL000000004K00000000000000952002203102015093854N000000000000U84       001420400K 10000000010000000925           
CUS0858490000108439886006         BREAUX NICHOLAS LAWR3213 MAYFIELD AVE                       000N        CARE OF             
MTR08584900001000000000000000RA              14916098    005802420000024200000310000003NN  NNW 000                       N    
RDG08584900WATRL000000004K00000000000001445002303102015093925N000400000010U84       000310400K 10000000010000001421           
CUS0858490000108032437009         THOMAS CHIQUITTA D  3209 MAYFIELD AVE                       000N        CARE OF             
MTR08584900001000000000000000RA              27832793    005802430000024300000520000003NN  NNW 000                       N    
RDG08584900WATRL000000004K00000000000002455008003102015111316N000000000030U84       000250400K 10000000010000002440           
CUS0858490000108376146000         YATES TERESA        3303 MAYFIELD AVE                       000N        CARE OF             
MTR08584900001000000000000000RA              24768647    005802440000024400000520000003NN  NNW 000                       N    
RDG08584900WATRL000000004K00000000000002443008103102015111358N000000000020U84       000420400K 10000000010000002433           
CUS0858490000108032439005         QUEEN DEBORAH       3315 MAYFIELD AVE                       000N        CARE OF             
MTR08584900001000000000000000RA              46887087    005802450000024500000520000003NN  NNW 000                       N    
RDG08584900WATRL000000004K00000000000004735002103092015115523N000000000000N84       000050400K 10000000010000004699           
CUS0858490000108415869000         LOANCARE, LLC       3401 MAYFIELD AVE                       000N        CARE OF             
MTR08584900001000000000000000RA              46888755    005802460000024600000520000003NN  NNW 000                       N    
RDG08584900WATRL000000004K00000000000003091002003092015115518N000000000010N84       000820400K 10000000010000002737           
CUS0858490000108032440003         ERNEST  ABDUL-RAHEEM3403 MAYFIELD AVE                       000N        CARE OF             
MTR08584900001000000000000000RA              10022055    005802470000024700000570000003NN  NNW 000                       N    
RDG08584900WATRL000000004K00000000000000054002203092015115527N000000000000N84       000040400K 10000000010000000054           
CUS0858490000108032441001         GUTLERREZ-CRUZ JUAN 3405 MAYFIELD AVE                       000N        CARE OF             
MTR08584900001000000000000000RA              26009194    005802480000024800000520000003NN  NNW 000                       N    
RDG08584900WATRL000000004K00000000000004474002303092015115641N000000000000N84       000740400K 10000000010000004427           
CUS0858490000108032442009         SMITH MORRIS        3407 MAYFIELD AVE                       000N        CARE OF             
MTR08584900001000000000000000RA              9596302     005802490000024900000570000003NN  NNW 000                       N    
RDG08584900WATRL000000004K00000000000004449002703092015115758N000000000000N84       000450400K 10000000010000004439           
CUS0858490000108032443007         BUTLER BARBARA S    3413 MAYFIELD AVE                       000N        CARE OF             
MTR08584900001000000000000000RA              23648188    005802500000025000000520000003NN  NNW 000                       N    
RDG08584900WATRL000000004K00000000000001388002803092015115830N000000000000N84       000320400K 10000000010000001377           
CUS0858490000108032444005         DAVID T KERRY       3417 MAYFIELD AVE                       000N        CARE OF             
MTR08584900001000000000000000RA              36697152    005802510000025100000520000003NN  NNW 000                       N    
RDG08584900WATRL000000004K00000000000003053002903092015120044N000000000000N84       001340400K 10000000010000003031           
CUS0858490000108032445002         JONES JAMES A       3421 MAYFIELD AVE                       000N        CARE OF             
MTR08584900001000000000000000RA              9688365     005802520000025200000570000003NN  NNW 000                       N    
RDG08584900WATRL000000004K00000000000004060003003092015120139N000000000000N84       000550400K 10000000010000004050           
CUS0858490000108032446000         RITCHEY JOHN EDWARD 3423 MAYFIELD AVE                       000N        CARE OF             
MTR08584900001000000000000000RA              46887085    005802530000025300000520000003NN  NNW 000                       N    
RDG08584900WATRL000000004K00000000000002658003103092015120238N000000000000N84       000590400K 10000000010000002622           
RTR08584900NN02530253000002530000000002530253000388NY025302530253000000010000000000000000000002    02172015NY020000 N         
RHD09647600NN02220222000002220000000001480148000375NY014801480222002200040000000000000000000001    02102015NY020000 N         
CUS0964760000109438190002         DELLCREST REALTY COM1 EASTER CT                             000N        CARE OF             
MTR09647600002000000000000000RA              0412174     000800010000000100000630000003NN  NNW 000                       N    
RDG09647600WATAL000000006K00000000000000006000103072015165657N000100000010N93       000000600K 10000000010000000006           
RDG09647600WATBL000000006K00000000000023455000203072015165755N000400000010N93       000580600K 10000000010000023098           
CUS0964760000109438192008         DELLCREST REALTY LLC9 EASTER CT                             000N        CARE OF             
MTR09647600002000000000000000RA              0412176     000800020000000200000630000003NY  NNW 000                       N    
MTM096476000412176     ok                                                                                                     
RDG09647600WATAL000000006K00000000000000085000303072015165833N000100000010N93       000380600K 10000000010000000085           
RDG09647600WATBL000000006K00000000000000000000403072015165905N000300000010N93       000320600K 10000000010000000040           
CUS0964760000109440632009         SIGNATURE HOMES INC 215 DELIGHT MEADOWS RD                  000N        CARE OF             
MTR09647600001000000000000000RA              14921002    001500030000000300000310000003NN  NNW 000                       N    
RDG09647600WATRL000000005K00000000000000984000503072015165910N000000000000N93       000050500K 10000000010000000953           
CUS0964760000109440633007         SIGNATURE HOMES INC 218 DELIGHT MEADOWS RD                  000N        CARE OF             
MTR09647600001000000000000000RA              99999999    001500040000000400000440000003NN  NNW 000   VACANT / LOT        N    
RDG09647600WATRL000000005K00000000000000000000103082015150129S022000000000U93       000000500K 10000000010000001017           
CUS0964760000109439102006         PR GREENWICH PLACE L10095 MESSINA RD                        000N        CARE OF             
MTR09647600002000000000000000RA              9812279     001000050000000500000630000003NN  NNW 000                       N    
RDG09647600WATAL000000007K00000000000000001000603072015165921N000100000010N93       000110700K 10000000010000000001           
RDG09647600WATBL000000007K00000000000124287000703072015165934N000400000010N93       000130700K 10000000010000119102           
CUS0964760000109446599004         11050 RED RUN LLC   11050 RED RUN BLVD                      000N        CARE OF             
MTR09647600002000000000000000RA              11801034    000800060000000600000380000000NY  NNW 000                       N    
MTM0964760011801034    reads reverse                                                                                          
RDG09647600WATAL000000006K00000000000000001000803072015170003N000300000010N93       000290600K 10000000010000000358           
