FHDNNNN024004952004952004952N                                                                                           015280
RHD08607500NN01920192000001920000000001920192000580NY019201920192000600010000000000000000000002    02192015NY020000 N         
CUS0860750000108034705007         WILLIAMSON ANTONIO K3607 FLORIDA RD                         000N        CARE OF             
MTR08607500001000000000000000RA              36692541    005800010000000100000520000003NN  NNW 000                       N    
RDG08607500WATRL000000004K00000000000002927013603082015151010N000000000000N89       000710400K 10000000010000002890           
CUS0860750000108034706005         FEUSTLE JOHN L      3609 FLORIDA RD                         000N        CARE OF             
MTR08607500001000000000000000RA              44174618    005800020000000200000520000003NN  NNW 000                       N    
RDG08607500WATRL000000004K00000000000000662013803082015151217N000000000000N89       000730400K 10000000010000000656           
CUS0860750000108034707003         BASSHAM ROBERT L    3615 FLORIDA RD                         000N        CARE OF             
MTR08607500001000000000000000RA              10007709    005800030000000300000570000003NY  NNW 000                       N    
MTM0860750010007709    SNOW                                                                                                   
RDG08607500WATRL000000004K00000000000000834003003102015150032N000000000000U89       000550400K 10000000010000000781           
CUS0860750000108034708001         FORNEY MARKWOOD E,SR3617 FLORIDA RD                         000N        CARE OF             
MTR08607500001000000000000000RA              19461500    005800040000000400000520000003NN  NNW 000                       N    
RDG08607500WATRL000000004K00000000000004099014103082015151733N000000000000N89       000830400K 10000000010000004099           
CUS0860750000108034709009         MCDUFFIE MARK E     3619 FLORIDA RD                         000N        CARE OF             
MTR08607500001000000000000000RA              44172370    005800050000000500000520000003NN  NNW 000                       N    
RDG08607500WATRL000000004K00000000000001024014303082015151851N000000000000N89       000450400K 10000000010000001024           
CUS0860750000108034710007         BURTON KEITH D      3621 FLORIDA RD                         000N        CARE OF             
MTR08607500001000000000000000RA              36691265    005800060000000600000520000003NN  NNW 000                       N    
RDG08607500WATRL000000004K00000000000003968014503082015152106N000000000000N89       000650400K 10000000010000003933           
CUS0860750000108034711005         STEINBACH MATTHEW T,3623 FLORIDA RD                         000N        CARE OF             
MTR08607500001000000000000000RA              10015126    005800070000000700000570000003NN  NNW 000                       N    
RDG08607500WATRL000000004K00000000000000212014703082015152256N000300000010N89       000610400K 10000000010000000176           
CUS0860750000108034712003         RODRIGUEZ RONALD K. 3625 FLORIDA RD                         000N        CARE OF             
MTR08607500001000000000000000RA              54350215    005800080000000800000520000003NN  NNW 000                       N    
RDG08607500WATRL000000004K00000000000001481014803082015152344N000300000010N89       000480400K 10000000010000001446           
CUS0860750000108034713001         SNIPES FLORRET V    3627 FLORIDA RD                         000N        CARE OF             
MTR08607500001000000000000000RA              48583768    005800090000000900000520000003NN  NNW 000                       N    
RDG08607500WATRL000000004K00000000000002843015103082015152458N000000000000N89       000210400K 10000000010000002843           
CUS0860750000108034714009         MCALISTER BRIAN C   3629 FLORIDA RD                         000N        CARE OF             
MTR08607500001000000000000000RA              32900356    005800100000001000000520000003NN  NNW 000                       N    
RDG08607500WATRL000000004K00000000000004591015203082015152530N000000000000N89       000320400K 10000000010000004571           
CUS0860750000108034715006         BRUCE WILLIAM H,JR  3631 FLORIDA RD                         000N        CARE OF             
MTR08607500001000000000000000RA              22610292    005800110000001100000520000003NN  NNW 000                       N    
RDG08607500WATRL000000004K00000000000003182015503082015175543N000000000002N89       088280400K 10000000010000003169           
CUS0860750000108034716004         PATNAUDE PAUL A     3630 FLORIDA RD                         000N        CARE OF             
MTR08607500001000000000000000RA              52285923    005800120000001200000520000003NN  NNW 000                       N    
RDG08607500WATRL000000004K00000000000001260015403082015152634N000000000000N89       000400400K 10000000010000001247           
CUS0860750000108034717002         CARROLL TYRONE T    3628 FLORIDA RD                         000N        CARE OF             
MTR08607500001000000000000000RA              30517275    005800130000001300000520000003NN  NNW 000                       N    
RDG08607500WATRL000000004K00000000000003913015303082015160600O000000000000N87       000000400K 10000000010000003885           
CUS0860750000108034718000         GILLIS JAMES NATHANI3626 FLORIDA RD                         000N        CARE OF             
MTR08607500001000000000000000RA              10022612    005800140000001400000570000003NN  NNW 000                       N    
RDG08607500WATRL000000004K00000000000000078015003082015152437N000000000000N89       000340400K 10000000010000000070           
CUS0860750000108034719008         JESSICA A EDWARDS   3624 FLORIDA RD                         000N        CARE OF             
MTR08607500001000000000000000RA              24232255    005800150000001500000520000003NN  NNW 000                       N    
RDG08607500WATRL000000004K00000000000003462014903082015160623O000000000000N87       000000400K 10000000010000003443           
CUS0860750000108034720006         HUGHES DELORES      3622 FLORIDA RD                         000N        CARE OF             
MTR08607500001000000000000000RA              33077615    005800160000001600000520000003NN  NNW 000                       N    
RDG08607500WATRL000000004K00000000000002235014603082015152155N000000000000N89       000490400K 10000000010000002199           
CUS0860750000108034721004         RILEY JOHN A        3620 FLORIDA RD                         000N        CARE OF             
MTR08607500001000000000000000RA              38886099    005800170000001700000520000003NN  NNW 000                       N    
RDG08607500WATRL000000004K00000000000002496014403082015152001N000300000010N89       000700400K 10000000010000002480           
CUS0860750000108034722002         SEABON WILLI  HARKLE3618 FLORIDA RD                         000N        CARE OF             
MTR08607500001000000000000000RA              46888745    005800180000001800000520000003NY  NNW 000                       N    
MTM0860750046888745    SNOW                                                                                                   
RDG08607500WATRL000000004K00000000000001949002903102015145937N000000000000U89       002490400K 10000000010000001865           
CUS0860750000108034723000         GROSS TANGIER M     3616 FLORIDA RD                         000N        CARE OF             
MTR08607500001000000000000000RA              46875564    005800190000001900000520000003NN  NNW 000                       N    
RDG08607500WATRL000000004K00000000000001754014203082015151806N000000000000N89       000330400K 10000000010000001735           
CUS0860750000108034724008         GAMBER ROBERT E     3614 FLORIDA RD                         000N        CARE OF             
MTR08607500001000000000000000RA              11332060    005800200000002000000570000003NN  NNW 000                       N    
RDG08607500WATRL000000004K00000000000004098014003082015151610N000000000000N89       001760400K 10000000010000004092           
CUS0860750000108034725005         SCHIEFELBEIN GUSTAVE3612 FLORIDA RD                         000N        CARE OF             
MTR08607500001000000000000000RA              10017323    005800210000002100000570000003NY  NNW 000                       N    
MTM0860750010017323    SNOW                                                                                                   
RDG08607500WATRL000000004K00000000000000248003103102015150120N000000000000U89       000480400K 10000000010000000227           
CUS0860750000108034726003         WALTERS WINSTON H   3610 FLORIDA RD                         000N        CARE OF             
MTR08607500001000000000000000RA              9688561     005800220000002200000570000003NN  NNW 000                       N    
RDG08607500WATRL000000004K00000000000003811013903082015151314N000000000000N89       000570400K 10000000010000003809           
CUS0860750000108034727001         SEEGOPAUL NAIPAUL   3608 FLORIDA RD                         000N        CARE OF             
MTR08607500001000000000000000RA              10017319    005800230000002300000570000003NN  NNW 000                       N    
RDG08607500WATRL000000004K00000000000000502013703082015151104N000000000000N89       000540400K 10000000010000000443           
CUS0860750000108034728009         SEDONA INVESTMENTS L3606 FLORIDA RD                         000N        CARE OF             
MTR08607500001000000000000000RA              99388456    005800240000002400000570000003NN  NNW 000                       N    
RDG08607500WATRL000000004K00000000000001707013503082015150859N000000000000N89       000050400K 10000000010000001707           
CUS0860750000108034729007         DIAZ MARISA         3604 FLORIDA RD                         000N        CARE OF             
MTR08607500001000000000000000RA              27815449    005800250000002500000520000003NN  NNW 000                       N    
RDG08607500WATRL000000004K00000000000003010013403082015150854N000000000000N89       000080400K 10000000010000003010           
CUS0860750000108034730005         KNIGHT JAMES E      3602 FLORIDA RD                         000N        CARE OF             
MTR08607500001000000000000000RA              35114642    005800260000002600000520000003NN  NNW 000                       N    
RDG08607500WATRL000000004K00000000000004955013303082015150846N000000000000N89       001140400K 10000000010000004913           
CUS0860750000108034731003         LVT DERMAGRAFIX INC 8032 LIBERTY RD                         000N        CARE OF             
MTR08607500001000000000000000RA              5112790     005800270000002700000320000003NY  NNW 000                       N    
MTM086075005112790     HANT LOCATE                                                                                            
RDG08607500WATRL000000004K00000000000000000000000000000000000 000000000000U         000000400  10000000010000003947           
CUS0860750000108034732001         LVT DERMAGRAFIX INC 8034 LIBERTY RD                         000N        CARE OF             
MTR08607500001000000000000000RA              48583020    005800280000002800000520000003NN  NNW 000                       N    
RDG08607500WATRL000000004K00000000000001911013203082015150652N000000000000N89       006160400K 10000000010000001893           
CUS0860750000108034733009         PAK PYONG K  PAK IL 8040 LIBERTY RD                         000N        CARE OF             
MTR08607500001000000000000000RA              10003732    005800290000002900000570000003NN  NNW 000                       N    
RDG08607500WATRL000000004K00000000000006370013103082015145636N000000000000N89       000660400K 10000000010000006144           
CUS0860750000108034734007         VALDIVIA JORGE      3601 KENMAR RD                          000N        CARE OF             
MTR08607500001000000000000000RA              01075435    005800300000003000000610000003NN  NNW 000                       N    
RDG08607500WATRL000000004K00000000000001984013003082015145530N000000000000N89       001020400K 10000000010000001938           
CUS0860750000108034735004         SKOLNIK ADAM D      3603 KENMAR RD                          000N        CARE OF             
MTR08607500001000000000000000RA              27812556    005800310000003100000520000003NY  NNW 000                       N    
MTM0860750027812556    FLOODED                                                                                                
RDG08607500WATRL000000004K00000000000000000000000000000000000 000000000000U         000000400  10000000010000003140           
CUS0860750000108034736002         WILLIAM K MCQUEENEY 3605 KENMAR RD                          000N        CARE OF             
MTR08607500001000000000000000RA              27813515    005800320000003200000520000003NN  NNW 000                       N    
RDG08607500WATRL000000004K00000000000001694012803082015145201N000000000000N89       000680400K 10000000010000001688           
CUS0860750000108034737000         MNSF BALTIMORE, LLC 3609 KENMAR RD                          000N        CARE OF             
MTR08607500001000000000000000RA              44174205    005800330000003300000520000003NY  NNW 000                       N    
MTM0860750044174205    ICE                                                                                                    
RDG08607500WATRL000000004K00000000000000000000000000000000000 000000000000U         000000400  10000000010000001137           
CUS0860750000108034738008         LINZEY URBAN THEODOR3611 KENMAR RD                          000N        CARE OF             
MTR08607500001000000000000000RA              01075438    005800340000003400000610000003NN  NNW 000                       N    
RDG08607500WATRL000000004K00000000000001181012503082015144758N000000000000N89       001520400K 10000000010000001173           
CUS0860750000108034739006         GINN JACQUELINE A   3613 KENMAR RD                          000N        CARE OF             
MTR08607500001000000000000000RA              19461487    005800350000003500000520000003NN  NNW 000                       N    
RDG08607500WATRL000000004K00000000000004069012203082015141545N000000000000N89       002310400K 10000000010000004055           
CUS0860750000108034740004         LEWIS CARROLL W     3615 KENMAR RD                          000N        CARE OF             
MTR08607500001000000000000000RA              27833462    005800360000003600000520000003NN  NNW 000                       N    
RDG08607500WATRL000000004K00000000000002500012103082015141154N000000000001N89       000050400K 10000000010000002495           
CUS0860750000108034741002         HEFFNER HAROLD BURTO3617 KENMAR RD                          000N        CARE OF             
MTR08607500001000000000000000RA              11428625    005800370000003700000570000003NN  NNW 000                       N    
RDG08607500WATRL000000004K00000000000002129011903082015140931N000000000000N89       001280400K 10000000010000002129           
CUS0860750000108034742000         MELLINGER HARRIET AN3619 KENMAR RD                          000N        CARE OF             
MTR08607500001000000000000000RA              01075436    005800380000003800000610000003NY  NNW 000                       N    
MTM0860750001075436    SNOW                                                                                                   
RDG08607500WATRL000000004K00000000000001085002803102015145528N000000000000U89       001210400K 10000000010000001033           
CUS0860750000108034743008         HARDCASTLE IFATIHA P8040 PEACH BOTTOM LN                    000N        CARE OF             
MTR08607500001000000000000000RA              35105574    007500390000003900000520000003NN  NNW 000                       N    
RDG08607500WATRL000000004K00000000000003880011603082015140554N000000000000N89       002460400K 10000000010000003853           
CUS0860750000108034744006         HOWARD VERNON R     3618 KENMAR RD                          000N        CARE OF             
MTR08607500001000000000000000RA              24223064    005800400000004000000520000003NN  NNW 000                       N    
RDG08607500WATRL000000004K00000000000004020011703082015140642N000000000000N89       000480400K 10000000010000004003           
CUS0860750000108034745003         SAUTER W ROGER      3616 KENMAR RD                          000N        CARE OF             
MTR08607500001000000000000000RA              35108800    005800410000004100000520000003NN  NNW 000                       N    
RDG08607500WATRL000000004K00000000000002664011803082015140723N000000000000N89       000410400K 10000000010000002631           
CUS0860750000108034746001         HARRISON CLAUDIA G  3614 KENMAR RD                          000N        CARE OF             
MTR08607500001000000000000000RA              44093156    005800420000004200000520000003NN  NNW 000                       N    
RDG08607500WATRL000000004K00000000000001807012003082015141048N000000000000N89       000770400K 10000000010000001801           
CUS0860750000108034747009         SCOTT ROBERTA ODELL 3612 KENMAR RD                          000N        CARE OF             
MTR08607500001000000000000000RA              01099376    005800430000004300000610000003NN  NNW 000                       N    
RDG08607500WATRL000000004K00000000000001560012303082015141655N000000000000N89       000700400K 10000000010000001502           
CUS0860750000108034748007         THE RICHARD L LEWIS 3610 KENMAR RD                          000N        CARE OF             
MTR08607500001000000000000000RA              01099350    005800440000004400000610000003NN  NNW 000                       N    
RDG08607500WATRL000000004K00000000000000573012403082015144526N000000000000N89       017110400K 10000000010000000573           
CUS0860750000108034749005         STOKES SHAWNA       3608 KENMAR RD                          000N        CARE OF             
MTR08607500001000000000000000RA              01099374    005800450000004500000610000003NN  NNW 000                       N    
RDG08607500WATRL000000004K00000000000002145012603082015145008N000400000010N89       001300400K 10000000010000002127           
CUS0860750000108034750003         GYEBI LORNA R       3606 KENMAR RD                          000N        CARE OF             
MTR08607500001000000000000000RA              46888744    005800460000004600000520000003NN  NNW 000                       N    
RDG08607500WATRL000000004K00000000000000990012703082015145053N000000000000N89       000450400K 10000000010000000966           
CUS0860750000108034751001         OPENDEN JOSEPH      3602 KENMAR RD                          000N        CARE OF             
MTR08607500001000000000000000RA              99287999    005800470000004700000570000003NN  NNW 000                       N    
RDG08607500WATRL000000004K00000000000000803012903082015145348N000000000000N89       001070400K 10000000010000000793           
CUS0860750000108034756000         VANNA G REHMEYER    3603 MILFORD MILL RD                    000N        CARE OF             
MTR08607500001000000000000000RA              10014921    005800480000004800000570000003NN  NNW 000                       N    
RDG08607500WATRL000000004K00000000000000002011203082015135618N000000000000N89       000360400K 10000000010000000002           
CUS0860750000108034757008         KELLMAN NATHANIEL F 3605 MILFORD MILL RD                    000N        CARE OF             
MTR08607500001000000000000000RA              30524294    005800490000004900000520000003NN  NNW 000                       N    
RDG08607500WATRL000000004K00000000000000000011403082015135742S063000000000N89       000500400K 10000000010000001095           
CUS0860750000108034759004         ZENA LLC            3609 MILFORD MILL RD                    000N        CARE OF             
MTR08607500001000000000000000RA              99408906    000100500000005000000570000003NN  NNW 000                       N    
RDG08607500WATRL000000004K00000000000003057011303082015135652N000000000010N89       000340400K 10000000010000003024           
CUS0860750000108034760002         PRICE CATHERINE M   3611 MILFORD MILL RD                    000N        CARE OF             
MTR08607500001000000000000000RA              10014428    005800510000005100000570000003NY  NNW 000                       N    
MTM0860750010014428    ICE                                                                                                    
RDG08607500WATRL000000004K00000000000000304002703102015145327N000300000010U89       001460400K 10000000010000000218           
CUS0860750000108034761000         RCS-KPSS LLC        3613 MILFORD MILL RD                    000N        CARE OF             
MTR08607500001000000000000000RA              01084933    005800520000005200000610000003NN  NNW 000                       N    
RDG08607500WATRL000000004K00000000000000736010903082015135141N000000000000N89       000630400K 10000000010000000729           
CUS0860750000108034762008         EDWARDS GILBERT H   3615 MILFORD MILL RD                    000N        CARE OF             
MTR08607500001000000000000000RA              01084938    005800530000005300000610000003NN  NNW 000                       N    
RDG08607500WATRL000000004K00000000000002989010803082015135038N000000000000N89       000760400K 10000000010000002856           
CUS0860750000108434272004         KNIGHT AARON        3617 OLD MILFORD MILL RD                000N        CARE OF             
MTR08607500001000000000000000RA              01094687    005800540000005400000610000003NN  NNW 000                       N    
RDG08607500WATRL000000004K00000000000002018010603082015134805N000000000000N89       000410400K 10000000010000001986           
CUS0860750000108434273002         CHARLES & SOLA ALABI3619 OLD MILFORD MILL RD                000N        CARE OF             
MTR08607500001000000000000000RA              01097435    005800550000005500000610000003NN  NNW 000                       N    
RDG08607500WATRL000000004K00000000000000524010403082015134630N000000000000N89       000500400K 10000000010000000524           
CUS0860750000108034763006         PAYNE DOMINIC       3621 MILFORD MILL RD                    000N        CARE OF             
MTR08607500001000000000000000RA              35104694    005800560000005600000520000003NN  NNW 000                       N    
RDG08607500WATRL000000004K00000000000000502010303082015134540N000000000000N89       000690400K 10000000010000000474           
CUS0860750000108034764004         ZELEDON VICENTE     3625 OLD MILFORD MILL RD                000N        CARE OF             
MTR08607500001000000000000000RA              10020100    005800570000005700000570000003NN  NNW 000                       N    
RDG08607500WATRL000000004K00000000000002509009703082015133744N000000000000N89       000440400K 10000000010000002487           
CUS0860750000108437510004         OPEEWE AUGUSTINA O  3627 OLD MILFORD MILL RD                000N        CARE OF             
MTR08607500001000000000000000RA              14905550    005800580000005800000310000003NY  NNW 000                       N    
MTM0860750014905550    SNOW                                                                                                   
RDG08607500WATRL000000004K00000000000000457002503102015145059N000000000000U89       001140400K 10000000010000000438           
CUS0860750000108437509006         ADIMA NANCY EFESEKE 3627A OLD MILFORD MILL RD               000N        CARE OF             
MTR08607500001000000000000000RA              14905547    005800590000005900000310000003NY  NNW 000                       N    
MTM0860750014905547    SNOW                                                                                                   
RDG08607500WATRL000000004K00000000000001249002603102015145101N000000000000U89       000020400K 10000000010000001207           
CUS0860750000108034765001         LANGREHR MARK       3629 MILFORD MILL RD                    000N        CARE OF             
MTR08607500001000000000000000RA              32900352    005800600000006000000520000003NN  NNW 000                       N    
RDG08607500WATRL000000004K00000000000003563009503082015133616N000000000000N89       000720400K 10000000010000003547           
CUS0860750000108034766009         WILLIAMS DONNIAL,JR 3631 MILFORD MILL RD                    000N        CARE OF             
MTR08607500001000000000000000RA              11332576    005800610000006100000570000003NN  NNW 000                       N    
RDG08607500WATRL000000004K00000000000004532009403082015133504N000000000000N89       002110400K 10000000010000004499           
CUS0860750000108034767007         HICKS-BENNETT MARSHA3633 MILFORD MILL RD                    000N        CARE OF             
MTR08607500001000000000000000RA              38886416    005800620000006200000520000003NY  NNW 000                       N    
MTM0860750038886416    SNOW                                                                                                   
RDG08607500WATRL000000004K00000000000002190002403102015144905N000000000000U89       001350400K 10000000010000002181           
CUS0860750000108034768005         LAMON TIMOTHY MATTHE3701 MILFORD MILL RD                    000N        CARE OF             
MTR08607500001000000000000000RA              45375142    005800630000006300000520000003NN  NNW 000                       N    
RDG08607500WATRL000000004K00000000000002283009303082015133133N000000000000N89       001080400K 10000000010000002260           
CUS0860750000108034769003         GOLD DONSEL         3703 MILFORD MILL RD                    000N        CARE OF             
MTR08607500001000000000000000RA              33079204    005800640000006400000520000003NY  NNW 000                       N    
MTM0860750033079204    SNOW                                                                                                   
RDG08607500WATRL000000004K00000000000001776002103102015144504N000000000010U89       001320400K 10000000010000001775           
CUS0860750000108034770001         WOODHOLME DNB ASSOC 3705 MILFORD MILL RD                    000N        CARE OF             
MTR08607500001000000000000000RA              01083122    005800650000006500000610000003NY  NNW 000                       N    
MTM0860750001083122    SNOW&ICE                                                                                               
RDG08607500WATRL000000004K00000000000001143001703102015143814N000000000000U89       001700400K 10000000010000001129           
CUS0860750000108034771009         HEILAND AMELIA E    3719 OLD MILFORD MILL RD                000N        CARE OF             
MTR08607500001000000000000000RA              10017452    005800660000006600000570000003NN  NNW 000                       N    
RDG08607500WATRL000000004K00000000000000271007903082015121138N000000000000N89       000900400K 10000000010000000259           
CUS0860750000108034772007         GREATER LIFE TABERNA3725 MILFORD MILL RD                    000N        CARE OF             
MTR08607500001000000000000000RA              10017456    005800670000006700000570000003NN  NNW 000                       N    
RDG08607500WATRL000000004K00000000000000000007803082015121008N000000000000N89       000560400K 10000000010000000000           
CUS0860750000108034773005         NICOLE BENJAMIN-BENN3727 MILFORD MILL RD                    000N        CARE OF             
MTR08607500001000000000000000RA              26000988    005800680000006800000520000003NY  NNW 000                       N    
MTM0860750026000988    SNOW&ICE                                                                                               
RDG08607500WATRL000000004K00000000000000000000000000000000000 000000000000U         000000400  10000000010000003965           
CUS0860750000108034774003         WALKER LEON J       3729 MILFORD MILL RD                    000N        CARE OF             
MTR08607500001000000000000000RA              01083244    005800690000006900000610000003NN  NNW 000                       N    
RDG08607500WATRL000000004K00000000000000885006403082015113929N000000000000N89       004690400K 10000000010000000875           
CUS0860750000108034775000         JACKSON WAYMON      3731 MILFORD MILL RD                    000N        CARE OF             
MTR08607500001000000000000000RA              26017373    005800700000007000000520000003NN  NNW 000                       N    
RDG08607500WATRL000000004K00000000000002063006503082015114018N000000000000N89       000490400K 10000000010000002044           
CUS0860750000108034776008         CAMPBELL WINSOME    3733 MILFORD MILL RD                    000N        CARE OF             
MTR08607500001000000000000000RA              01083240    005800710000007100000610000003NN  NNW 000                       N    
RDG08607500WATRL000000004K00000000000002368006603082015114154N000000000000N89       000960400K 10000000010000002343           
CUS0860750000108034777006         RIDDIX MICHAEL E    8013 DOUGLAS AVE                        000N        CARE OF             
MTR08607500001000000000000000RA              01083248    005800720000007200000610000003NN  NNW 000                       N    
RDG08607500WATRL000000004K00000000000001054006803082015115027N000000000000N89       001510400K 10000000010000001054           
CUS0860750000108034778004         REVOCABLE LIVING TRU8011 DOUGLAS AVE                        000N        CARE OF             
MTR08607500001000000000000000RA              52289154    005800730000007300000520000003NY  NNW 000                       N    
MTM0860750052289154    SNOW&ICE                                                                                               
RDG08607500WATRL000000004K00000000000001065000703102015142543N000000000000U89       003520400K 10000000010000001049           
CUS0860750000108034779002         DEUTSCHE BANK NATION8009 DOUGLAS AVE                        000N        CARE OF             
MTR08607500001000000000000000RA              10017454    005800740000007400000570000003NN  NNW 000                       N    
RDG08607500WATRL000000004K00000000000000441007003082015115826N000000000000N89       001290400K 10000000010000000400           
CUS0860750000108034780000         ANTONIO JENKINS     8007 DOUGLAS AVE                        000N        CARE OF             
MTR08607500001000000000000000RA              01083278    005800750000007500000610000003NY  NNW 000                       N    
MTM0860750001083278    SNOW                                                                                                   
RDG08607500WATRL000000004K00000000000001236000803102015142652N000000000000U89       000690400K 10000000010000001207           
CUS0860750000108433866004         YOUNG KEVIN ONEAL   8000 DOUGLAS AVE                        000N        CARE OF             
MTR08607500001000000000000000RA              01092711    005800760000007600000610000003NN  NNW 000                       N    
RDG08607500WATRL000000004K00000000000000972007103082015120114N000000000000N89       001680400K 10000000010000000958           
CUS0860750000108433865006         BARBOUR TWANETTE C  8002 DOUGLAS AVE                        000N        CARE OF             
MTR08607500001000000000000000RA              01092685    005800770000007700000610000003NN  NNW 000                       N    
RDG08607500WATRL000000004K00000000000001506007203082015120143N000000000000N89       000290400K 10000000010000001456           
CUS0860750000108433864009         YOO YOUNG T         8004 DOUGLAS AVE                        000N        CARE OF             
MTR08607500001000000000000000RA              01092785    005800780000007800000610000003NN  NNW 000                       N    
RDG08607500WATRL000000004K00000000000001913007303082015120244N000000000000N89       000610400K 10000000010000001888           
CUS0860750000108034781008         YOUNG KEVIN         8005 DOUGLAS AVE                        000N        CARE OF             
MTR08607500001000000000000000RA              23427293    005800790000007900000520000003NY  NNW 000                       N    
MTM0860750023427293    SNOW                                                                                                   
RDG08607500WATRL000000004K00000000000006387000903102015142715N000000000000U89       000230400K 10000000010000006377           
CUS0860750000108034782006         PATTERSON LYNN M    8006 DOUGLAS AVE                        000N        CARE OF             
MTR08607500001000000000000000RA              46888750    005800800000008000000520000003NN  NNW 000                       N    
RDG08607500WATRL000000004K00000000000001713007403082015120423N000000000000N89       000990400K 10000000010000001691           
CUS0860750000108034783004         BANKS ODESSA        8008 DOUGLAS AVE                        000N        CARE OF             
MTR08607500001000000000000000RA              44175599    005800810000008100000520000003NN  NNW 000                       N    
RDG08607500WATRL000000004K00000000000001371006903082015115617N000300000010N89       003500400K 10000000010000001306           
CUS0860750000108034784002         SANDACZ TAMMY       8010 DOUGLAS AVE                        000N        CARE OF             
MTR08607500001000000000000000RA              50477083    005800820000008200000520000003NN  NNW 000                       N    
RDG08607500WATRL000000004K00000000000001057007503082015120538N000000000000N89       000750400K 10000000010000001037           
CUS0860750000108034785009         BUTLER ANDREA D     8012 DOUGLAS AVE                        000N        CARE OF             
MTR08607500001000000000000000RA              41081175    005800830000008300000520000003NN  NNW 000                       N    
RDG08607500WATRL000000004K00000000000002776007603082015120619N000000000000N89       000410400K 10000000010000002756           
CUS0860750000108034786007         FRISBY WAYNE T      3801 MILFORD MILL RD                    000N        CARE OF             
MTR08607500001000000000000000RA              33078456    005800840000008400000520000003NY  NNW 000                       N    
MTM0860750033078456    SNOW&ICCE                                                                                              
RDG08607500WATRL000000004K00000000000002207001003102015143008N000000000010U89       001730400K 10000000010000002198           
CUS0860750000108034787005         JONES MARTHA S      3803 MILFORD MILL RD                    000N        CARE OF             
MTR08607500001000000000000000RA              40779703    005800850000008500000520000003NY  NNW 000                       N    
MTM0860750040779703    GATE LOCKED                                                                                            
RDG08607500WATRL000000004K00000000000002880001103102015143048N000000000000U89       000400400K 10000000010000002847           
CUS0860750000108034788003         SRUN ANITA          3805 MILFORD MILL RD                    000N        CARE OF             
MTR08607500001000000000000000RA              99999999    005800860000008600000310000003NN  NNW 000                       N    
RDG08607500WATRL000000004K00000000000001209006703082015114756N000000000000N89       003620400K 10000000010000001201           
CUS0860750000108034789001         ANDERSON ROBERT JR  3807 MILFORD MILL RD                    000N        CARE OF             
MTR08607500001000000000000000RA              14904422    005800870000008700000310000003NY  NNW 000                       N    
MTM0860750014904422    SNOW &ICE                                                                                              
RDG08607500WATRL000000004K00000000000000973001203102015143144N000000000000U89       000560400K 10000000010000000962           
CUS0860750000108437913000         KIMBROUGH JAMES     3809 MILFORD MILL RD                    000N        CARE OF             
MTR08607500001000000000000000RA              14904830    005800880000008800000310000003NY  NNW 000                       N    
MTM0860750014904830    SNNW&ICE                                                                                               
RDG08607500WATRL000000004K00000000000000678001303102015143212N000000000000U89       000280400K 10000000010000000659           
CUS0860750000108034790009         MCGEE JAMES         3823 WASHINGTON AVE                     000N        CARE OF             
MTR08607500001000000000000000RA              01110281    005800890000008900000610000003NN  NNW 000                       N    
RDG08607500WATRL000000004K00000000000000828001403102015143444N000000000000U89       001520400K 10000000010000000811           
CUS0860750000108034791007         DOMINIC L KING      3903 MILFORD MILL RD                    000N        CARE OF             
MTR08607500001000000000000000RA              30522716    005800900000009000000520000003NY  NNW 000                       N    
MTM0860750030522716    SNOW&ICE                                                                                               
RDG08607500WATRL000000004K00000000000004538001503102015143517N000000000000U89       000330400K 10000000010000004503           
CUS0860750000108034792005         NEUDECKER ROBERT E  3905 MILFORD MILL RD                    000N        CARE OF             
MTR08607500001000000000000000RA              11327262    005800910000009100000570000003NY  NNW 000                       N    
MTM0860750011327262    SNOW &ICE                                                                                              
RDG08607500WATRL000000004K00000000000003982001603102015143524N000000000000U89       000070400K 10000000010000003960           
CUS0860750000108034795008         RAZA-E-MUSTAFA ISLAM3900 MILFORD MILL RD                    000N        CARE OF             
MTR08607500001000000000000000RA              39257736    007500920000009200000520000003NN  NNW 000                       N    
RDG08607500WATRL000000004K00000000000006009000103082015085514N000300000010N89       000000400K 10000000010000005688           
CUS0860750000108034796006         BARR KENNETH M      3822 MILFORD MILL RD                    000N        CARE OF             
MTR08607500001000000000000000RA              35118068    005800930000009300000520000003NN  NNW 000                       N    
RDG08607500WATRL000000004K00000000000002345000403082015090829N000000000000N89       000610400K 10000000010000002333           
CUS0860750000108034797004         SCOTT GLORIA JEAN   3820 MILFORD MILL RD                    000N        CARE OF             
MTR08607500001000000000000000RA              35118071    005800940000009400000520000003NN  NNW 000                       N    
RDG08607500WATRL000000004K00000000000005222000503082015090832N000000000000N89       000030400K 10000000010000005182           
CUS0860750000108034798002         EPPS DESMOND L      3818 MILFORD MILL RD                    000N        CARE OF             
MTR08607500001000000000000000RA              10009673    005800950000009500000570000003NN  NNW 000                       N    
RDG08607500WATRL000000004K00000000000000330000203082015090725N000000000000N89       007310400K 10000000010000000317           
CUS0860750000108034799000         MILLNER CRAIG B     3816 MILFORD MILL RD                    000N        CARE OF             
MTR08607500001000000000000000RA              99187448    005800960000009600000570000003NN  NNW 000                       N    
RDG08607500WATRL000000004K00000000000003764000303082015090728N000000000000N89       000030400K 10000000010000003764           
CUS0860750000108034800006         JAMES E ROBERTS, JR.3814 MILFORD MILL RD                    000N        CARE OF             
MTR08607500001000000000000000RA              26000984    005800970000009700000520000003NN  NNW 000                       N    
RDG08607500WATRL000000004K00000000000002128000603082015091002N000300000010N89       000900400K 10000000010000002124           
CUS0860750000108034801004         SINGER HOWARD LOUIS,3812 MILFORD MILL RD                    000N        CARE OF             
MTR08607500001000000000000000RA              46887480    005800980000009800000520000003NN  NNW 000                       N    
RDG08607500WATRL000000004K00000000000002529000703082015091104N000000000000N89       000620400K 10000000010000002504           
CUS0860750000108034802002         MEGGINSON OTIS W    3810 MILFORD MILL RD                    000N        CARE OF             
MTR08607500001000000000000000RA              27818678    005800990000009900000520000003NN  NNW 000                       N    
RDG08607500WATRL000000004K00000000000004681000803082015091228N000000000000N89       000840400K 10000000010000004671           
CUS0860750000108034803000         BEASLEY FREDDIE     3808 MILFORD MILL RD                    000N        CARE OF             
MTR08607500001000000000000000RA              01083241    005801000000010000000610000003NN  NNW 000                       N    
RDG08607500WATRL000000004K00000000000001456000903082015091253N000000000000N89       000250400K 10000000010000001425           
CUS0860750000108034804008         GOULD LENA M        3806 MILFORD MILL RD                    000N        CARE OF             
MTR08607500001000000000000000RA              01083249    005801010000010100000610000003NN  NNW 000                       N    
RDG08607500WATRL000000004K00000000000001758001003082015091256N000000000000N89       000030400K 10000000010000001743           
CUS0860750000108034805005         WHITE MARY H        3804 MILFORD MILL RD                    000N        CARE OF             
MTR08607500001000000000000000RA              32770416    005801020000010200000520000003NN  NNW 000                       N    
RDG08607500WATRL000000004K00000000000002795001103082015091355N000000000000N89       000590400K 10000000010000002781           
CUS0860750000108034806003         SCOTT HAYWOOD L     3802 MILFORD MILL RD                    000N        CARE OF             
MTR08607500001000000000000000RA              39585504    005801030000010300000520000003NN  NNW 000                       N    
RDG08607500WATRL000000004K00000000000002729001203082015091408N000000000000N89       000130400K 10000000010000002711           
CUS0860750000108034807001         LISBON NAKISHIA     3800 MILFORD MILL RD                    000N        CARE OF             
MTR08607500001000000000000000RA              35098715    005801040000010400000520000003NN  NNW 000                       N    
RDG08607500WATRL000000004K00000000000002307001303082015091432N000000000000N89       000240400K 10000000010000002279           
CUS0860750000108034808009         STOKES-HOLT JOCELYN 3734 MILFORD MILL RD                    000N        CARE OF             
MTR08607500001000000000000000RA              50786515    005801050000010500000520000003NN  NNW 000                       N    
RDG08607500WATRL000000004K00000000000001069001403082015091437N000400000010N89       000050400K 10000000010000001059           
CUS0860750000108034809007         GRAHAM ANTHONY A    3732 MILFORD MILL RD                    000N        CARE OF             
MTR08607500001000000000000000RA              35102808    005801060000010600000520000003NN  NNW 000                       N    
RDG08607500WATRL000000004K00000000000003621001503082015091526N000000000000N89       000490400K 10000000010000003609           
CUS0860750000108034810005         JOHNSON HERBERT,JR  3730 MILFORD MILL RD                    000N        CARE OF             
MTR08607500001000000000000000RA              35102860    005801070000010700000520000003NN  NNW 000                       N    
RDG08607500WATRL000000004K00000000000001669001603082015091528N000000000000N89       000020400K 10000000010000001655           
CUS0860750000108034811003         NELSON JOHN E       3728 MILFORD MILL RD                    000N        CARE OF             
MTR08607500001000000000000000RA              01085048    005801080000010800000610000003NN  NNW 000                       N    
RDG08607500WATRL000000004K00000000000002649001703082015091755N000000000000N89       001470400K 10000000010000002566           
CUS0860750000108034812001         AKINKUADE AKINTADE  3726 MILFORD MILL RD                    000N        CARE OF             
MTR08607500001000000000000000RA              01085047    005801090000010900000610000003NN  NNW 000                       N    
RDG08607500WATRL000000004K00000000000001870001803082015091757N000000000000N89       000020400K 10000000010000001834           
CUS0860750000108034813009         ST ROSE MARIA       3724 MILFORD MILL RD                    000N        CARE OF             
MTR08607500001000000000000000RA              24764022    005801100000011000000520000003NN  NNW 000                       N    
RDG08607500WATRL000000004K00000000000001285001903082015091808N000000000000N89       000110400K 10000000010000001282           
CUS0860750000108034814007         LOGAN MICHAEL T     3722 MILFORD MILL RD                    000N        CARE OF             
MTR08607500001000000000000000RA              41257091    005801110000011100000520000003NN  NNW 000                       N    
RDG08607500WATRL000000004K00000000000001544002003082015091811N000000000000N89       000030400K 10000000010000001523           
CUS0860750000108034815004         VONTRIA N PAUTLEROY 3720 MILFORD MILL RD                    000N        CARE OF             
MTR08607500001000000000000000RA              46888438    005801120000011200000520000003NN  NNW 000                       N    
RDG08607500WATRL000000004K00000000000002979002103082015092051N000000000010N89       001600400K 10000000010000002976           
CUS0860750000108034816002         WALLACE ALICIA A    3718 MILFORD MILL RD                    000N        CARE OF             
MTR08607500001000000000000000RA              46888441    005801130000011300000520000003NN  NNW 000                       N    
RDG08607500WATRL000000004K00000000000001625002203082015092053N000000000000N89       000020400K 10000000010000001622           
CUS0860750000108415664005         ANDERSON RICHARD E  3717 MILFORD MILL RD                    000N        CARE OF             
MTR08607500001000000000000000RA              50480334    005801140000011400000520000003NN  NNW 000                       N    
RDG08607500WATRL000000004K00000000000003039006203082015112755N000000000000N89       001280400K 10000000010000003000           
CUS0860750000108034817000         DRUMMOND RICHARD    3703 WILDOR AVE                         000N        CARE OF             
MTR08607500001000000000000000RA              01111435    005801150000011500000610000003NY  NNW 000                       N    
MTM0860750001111435    SNOW&ICE                                                                                               
RDG08607500WATRL000000004K00000000000000000000000000000000000 000000000000U         000000400  10000000010000000943           
CUS0860750000108034818008         IRBY DEBORAH R      3705 WILDOR AVE                         000N        CARE OF             
MTR08607500001000000000000000RA              10003433    005801160000011600000570000003NY  NNW 000                       N    
MTM0860750010003433    SNOW&ICE                                                                                               
RDG08607500WATRL000000004K00000000000000000000000000000000000 000000000000U         000000400  10000000010000000478           
CUS0860750000108034819006         NWADIKE SAMUEL C    3707 WILDOR AVE                         000N        CARE OF             
MTR08607500001000000000000000RA              01111426    005801170000011700000610000003NN  NNW 000                       N    
RDG08607500WATRL000000004K00000000000000709002303082015094442N000000000000N89       014290400K 10000000010000000687           
CUS0860750000108034820004         MEDLEY MARY E       3709 WILDOR AVE                         000N        CARE OF             
MTR08607500001000000000000000RA              01111432    005801180000011800000610000003NN  NNW 000                       N    
RDG08607500WATRL000000004K00000000000000548002403082015094447N000000000000N89       000050400K 10000000010000000527           
CUS0860750000108034821002         CARTER EDITH MARY   3803 VICTORIA AVE                       000N        CARE OF             
MTR08607500001000000000000000RA              35097365    005801190000011900000520000003NY  NNW 000                       N    
MTM0860750035097365    SNOW& ICE                                                                                              
RDG08607500WATRL000000004K00000000000002560000103102015141624N000000000000U89       000000400K 10000000010000002550           
CUS0860750000108034822000         COTTMAN RAYMOND LINW3805 VICTORIA AVE                       000N        CARE OF             
MTR08607500001000000000000000RA              10016819    005801200000012000000570000003NY  NNW 000                       N    
MTM0860750010016819    SNOW& ICE                                                                                              
RDG08607500WATRL000000004K00000000000000165000203102015141626N000000000000U89       000020400K 10000000010000000157           
CUS0860750000108034823008         FORREST LAKISHA     3807 VICTORIA AVE                       000N        CARE OF             
MTR08607500001000000000000000RA              01111345    005801210000012100000610000003NY  NNW 000                       N    
MTM0860750001111345    SNOW& ICE                                                                                              
RDG08607500WATRL000000004K00000000000000689000303102015141820N000000000000U89       001140400K 10000000010000000679           
CUS0860750000108034824006         KAHN SARA E         3809 VICTORIA AVE                       000N        CARE OF             
MTR08607500001000000000000000RA              35114775    005801220000012200000520000003NY  NNW 000                       N    
MTM0860750035114775    SNOW& ICE                                                                                              
RDG08607500WATRL000000004K00000000000000185000403102015141822N000000000000U89       000020400K 10000000010000000181           
CUS0860750000108034825003         ERIKA DESRAVINES    3811 VICTORIA AVE                       000N        CARE OF             
MTR08607500001000000000000000RA              41258116    005801230000012300000520000003NN  NNW 000                       N    
RDG08607500WATRL000000004K00000000000002733002503082015095114N000000000000N89       003870400K 10000000010000002708           
CUS0860750000108034826001         CARROLL MILLER,SR   3813 VICTORIA AVE                       000N        CARE OF             
MTR08607500001000000000000000RA              41259862    005801240000012400000520000003NN  NNW 000                       N    
RDG08607500WATRL000000004K00000000000002544002603082015095116N000000000000N89       000020400K 10000000010000002527           
CUS0860750000108034827009         MANHPHAT NGUYEN     3815 VICTORIA AVE                       000N        CARE OF             
MTR08607500001000000000000000RA              01111315    005801250000012500000610000003NN  NNW 000                       N    
RDG08607500WATRL000000004K00000000000000687002703082015095324N000000000000N89       001280400K 10000000010000000658           
CUS0860750000108034828007         DAVIS PHYLLIS MARIE 3817 VICTORIA AVE                       000N        CARE OF             
MTR08607500001000000000000000RA              01111311    005801260000012600000610000003NN  NNW 000                       N    
RDG08607500WATRL000000004K00000000000000244002803082015095326N000000000000N89       000020400K 10000000010000000227           
CUS0860750000108034829005         JUNIOR N NWANJA     3819 VICTORIA AVE                       000N        CARE OF             
MTR08607500001000000000000000RA              50787456    005801270000012700000520000003NN  NNW 000                       N    
RDG08607500WATRL000000004K00000000000001369002903082015095545N000400000010N89       001390400K 10000000010000001363           
CUS0860750000108034830003         TIARA BALL          3821 VICTORIA AVE                       000N        CARE OF             
MTR08607500001000000000000000RA              50787423    005801280000012800000520000003NN  NNW 000                       N    
RDG08607500WATRL000000004K00000000000001741003003082015095548N000000000000N89       000030400K 10000000010000001722           
CUS0860750000108034831001         GREEN CALVIN W      3823 VICTORIA AVE                       000N        CARE OF             
MTR08607500001000000000000000RA              29682549    005801290000012900000520000003NN  NNW 000                       N    
RDG08607500WATRL000000004K00000000000003245003103082015095653N000000000000N89       000650400K 10000000010000003232           
CUS0860750000108034832009         TYSON-BAILEY JADA   3825 VICTORIA AVE                       000N        CARE OF             
MTR08607500001000000000000000RA              14921698    005801300000013000000310000003NN  NNW 000                       N    
RDG08607500WATRL000000004K00000000000000727003203082015095656N000000000000N89       000030400K 10000000010000000711           
CUS0860750000108034833007         COLES DONTE M       3827 VICTORIA AVE                       000N        CARE OF             
MTR08607500001000000000000000RA              99392174    005801310000013100000570000003NN  NNW 000                       N    
RDG08607500WATRL000000004K00000000000001826003303082015100051N000000000000N89       002350400K 10000000010000001790           
CUS0860750000108034834005         INGRAM GEORGE LEE   3829 VICTORIA AVE                       000N        CARE OF             
MTR08607500001000000000000000RA              46875560    005801320000013200000520000003NN  NNW 000                       N    
RDG08607500WATRL000000004K00000000000000605003403082015100053N000000000000N89       000020400K 10000000010000000580           
CUS0860750000108034835002         CHIERA ABIDAH W     3831 VICTORIA AVE                       000N        CARE OF             
MTR08607500001000000000000000RA              10001623    005801330000013300000570000003NN  NNW 000                       N    
RDG08607500WATRL000000004K00000000000000307003503082015100246N000000000000N89       001130400K 10000000010000000292           
CUS0860750000108034836000         FERRINGTON DOREEN   3833 VICTORIA AVE                       000N        CARE OF             
MTR08607500001000000000000000RA              10016044    005801340000013400000570000003NN  NNW 000                       N    
RDG08607500WATRL000000004K00000000000000072003603082015100247N000000000000N89       000010400K 10000000010000000067           
CUS0860750000108034837008         BROWN JENET N       3828 VICTORIA AVE                       000N        CARE OF             
MTR08607500001000000000000000RA              24757232    005801350000013500000520000003NN  NNW 000                       N    
RDG08607500WATRL000000004K00000000000004090003703082015100342N000000000000N89       000550400K 10000000010000004066           
CUS0860750000108034838006         AGBEDE ADEKUNLE O   3826 VICTORIA AVE                       000N        CARE OF             
MTR08607500001000000000000000RA              24757231    005801360000013600000520000003NN  NNW 000                       N    
RDG08607500WATRL000000004K00000000000003779003803082015100344N000000000000N89       000020400K 10000000010000003750           
CUS0860750000108034839004         PORTER CHARLES ARMON3822 VICTORIA AVE                       000N        CARE OF             
MTR08607500001000000000000000RA              50789222    005801370000013700000520000003NN  NNW 000                       N    
RDG08607500WATRL000000004K00000000000003971003903082015100618N000000000000N89       001540400K 10000000010000003936           
CUS0860750000108034840002         DOTSON JOSEPHINE H  3820 VICTORIA AVE                       000N        CARE OF             
MTR08607500001000000000000000RA              29683387    005801380000013800000520000003NN  NNW 000                       N    
RDG08607500WATRL000000004K00000000000001084004003082015100753N000000000000N89       000950400K 10000000010000001080           
CUS0860750000108034841000         FERGUSON HARROLL    3818 VICTORIA AVE                       000N        CARE OF             
MTR08607500001000000000000000RA              50787388    005801390000013900000520000003NN  NNW 000                       N    
RDG08607500WATRL000000004K00000000000000457004103082015100754N000000000000N89       000010400K 10000000010000000456           
CUS0860750000108034842008         DAVIS JEAN L        3816 VICTORIA AVE                       000N        CARE OF             
MTR08607500001000000000000000RA              30514975    005801400000014000000520000003NN  NNW 000                       N    
RDG08607500WATRL000000004K00000000000002344004203082015100924N000000000000N89       000900400K 10000000010000002339           
CUS0860750000108034843006         WALLINGFORD WARREN A3814 VICTORIA AVE                       000N        CARE OF             
MTR08607500001000000000000000RA              30514972    005801410000014100000520000003NN  NNW 000                       N    
RDG08607500WATRL000000004K00000000000003889004303082015100951N000000000000N89       000270400K 10000000010000003862           
CUS0860750000108034844004         SIMMS HENRY E,JR    3812 VICTORIA AVE                       000N        CARE OF             
MTR08607500001000000000000000RA              48589431    005801420000014200000520000003NN  NNW 000                       N    
RDG08607500WATRL000000004K00000000000002309004403082015101102N000000000000N89       000710400K 10000000010000002281           
CUS0860750000108034845001         UTSEY CEDRIC        3810 VICTORIA AVE                       000N        CARE OF             
MTR08607500001000000000000000RA              48589428    005801430000014300000520000003NN  NNW 000                       N    
RDG08607500WATRL000000004K00000000000001181004503082015101103N000000000000N89       000010400K 10000000010000001145           
CUS0860750000108034846009         COWANS WILLIE M     3808 VICTORIA AVE                       000N        CARE OF             
MTR08607500001000000000000000RA              27832556    005801440000014400000520000003NN  NNW 000                       N    
RDG08607500WATRL000000004K00000000000005024004703082015101227N000000000000N89       000140400K 10000000010000004931           
CUS0860750000108034847007         HINTON CLARENCE W   3806 VICTORIA AVE                       000N        CARE OF             
MTR08607500001000000000000000RA              27832555    005801450000014500000520000003NN  NNW 000                       N    
RDG08607500WATRL000000004K00000000000003788004603082015101213N000000000000N89       000700400K 10000000010000003757           
CUS0860750000108034848005         WILLIAMS JOYCE RENEE3804 VICTORIA AVE                       000N        CARE OF             
MTR08607500001000000000000000RA              01111434    005801460000014600000610000003NN  NNW 000                       N    
RDG08607500WATRL000000004K00000000000000860004803082015101350N000000000000N89       000830400K 10000000010000000838           
CUS0860750000108034849003         RICE JO-ANN         3802 VICTORIA AVE                       000N        CARE OF             
MTR08607500001000000000000000RA              01111427    005801470000014700000610000003NN  NNW 000                       N    
RDG08607500WATRL000000004K00000000000002023004903082015101352N000000000000N89       000020400K 10000000010000001960           
CUS0860750000108034850001         RATHER DAVID C JR   3801 WILDOR AVE                         000N        CARE OF             
MTR08607500001000000000000000RA              14907441    005801480000014800000310000003NN  NNW 000                       N    
RDG08607500WATRL000000004K00000000000000931005003082015101558N000000000000N89       001260400K 10000000010000000911           
CUS0860750000108034851009         LAMBACK GARY ODELL  3803 WILDOR AVE                         000N        CARE OF             
MTR08607500001000000000000000RA              48588868    005801490000014900000520000003NN  NNW 000                       N    
RDG08607500WATRL000000004K00000000000002277005103082015101600N000000000000N89       000020400K 10000000010000002248           
CUS0860750000108034852007         MARTINEZ HILARIO    3802 WILDOR AVE                         000N        CARE OF             
MTR08607500001000000000000000RA              39291415    005801500000015000000520000003NN  NNW 000                       N    
RDG08607500WATRL000000004K00000000000002670005203082015101850N000000000000N89       001700400K 10000000010000002616           
CUS0860750000108034853005         ASHFORD JOYCE L     3800 WILDOR AVE                         000N        CARE OF             
MTR08607500001000000000000000RA              39291416    005801510000015100000520000003NN  NNW 000                       N    
RDG08607500WATRL000000004K00000000000002308005303082015101852N000000000000N89       000020400K 10000000010000002295           
CUS0860750000108034854003         PENN MARY A         3714 WILDOR AVE                         000N        CARE OF             
MTR08607500001000000000000000RA              01111437    005801520000015200000610000003NN  NNW 000                       N    
RDG08607500WATRL000000004K00000000000001240005403082015102043N000000000000N89       001110400K 10000000010000001218           
CUS0860750000108034855000         AUSTIN E BRECKINRIDG3712 WILDOR AVE                         000N        CARE OF             
MTR08607500001000000000000000RA              10009470    005801530000015300000570000003NN  NNW 000                       N    
RDG08607500WATRL000000004K00000000000000215005503082015102045N000000000000N89       000020400K 10000000010000000204           
CUS0860750000108034856008         SIMPSON RALPH       3710 WILDOR AVE                         000N        CARE OF             
MTR08607500001000000000000000RA              01111445    005801540000015400000610000003NY  NNW 000                       N    
MTM0860750001111445    SNOW& ICE                                                                                              
RDG08607500WATRL000000004K00000000000000726000503102015141949N000000000000U89       000870400K 10000000010000000710           
CUS0860750000108034857006         HAYES LISA S        3708 WILDOR AVE                         000N        CARE OF             
MTR08607500001000000000000000RA              01111444    005801550000015500000610000003NY  NNW 000                       N    
MTM0860750001111444    SNOW& ICE                                                                                              
RDG08607500WATRL000000004K00000000000001389000603102015144020N000000000001U89       000490400K 10000000010000001364           
CUS0860750000108034858004         SMITH ERIC MARK     3706 WILDOR AVE                         000N        CARE OF             
MTR08607500001000000000000000RA              01111443    005801560000015600000610000003NN  NNW 000                       N    
RDG08607500WATRL000000004K00000000000000898005603082015102555N000000000000N89       003100400K 10000000010000000875           
CUS0860750000108034859002         JETER JOHN          3704 WILDOR AVE                         000N        CARE OF             
MTR08607500001000000000000000RA              01111441    005801570000015700000610000003NN  NNW 000                       N    
RDG08607500WATRL000000004K00000000000001019005703082015102556N000000000000N89       000010400K 10000000010000001012           
CUS0860750000108034860000         TERRELONGE GOREDENNA3702 WILDOR AVE                         000N        CARE OF             
MTR08607500001000000000000000RA              01111439    005801580000015800000610000003NN  NNW 000                       N    
RDG08607500WATRL000000004K00000000000001144005803082015102622N000000000000N89       000260400K 10000000010000001144           
CUS0860750000108034861008         PENDLETON EDNA L    3700 WILDOR AVE                         000N        CARE OF             
MTR08607500001000000000000000RA              01111436    005801590000015900000610000003NN  NNW 000                       N    
RDG08607500WATRL000000004K00000000000001026005903082015102645N000000000000N89       000230400K 10000000010000000983           
CUS0860750000108034862006         BROCKINGTON ROBERT  3719 MILFORD MILL RD                    000N        CARE OF             
MTR08607500001000000000000000RA              01086809    005801600000016000000610000003NN  NNW 000                       N    
RDG08607500WATRL000000004K00000000000001205006103082015112547N000000000000N89       000030400K 10000000010000001122           
CUS0860750000108034863004         GARRETT GLORIA ANN  3721 MILFORD MILL RD                    000N        CARE OF             
MTR08607500001000000000000000RA              01086806    005801610000016100000610000003NN  NNW 000                       N    
RDG08607500WATRL000000004K00000000000001549006003082015112544N000000000000N89       035390400K 10000000010000001525           
CUS0860750000108034864002         STOKES MICHAEL      3723 MILFORD MILL RD                    000N        CARE OF             
MTR08607500001000000000000000RA              46888753    005801620000016200000520000003NN  NNW 000                       N    
RDG08607500WATRL000000004K00000000000001011006303082015113140N000000000000N89       002250400K 10000000010000001005           
CUS0860750000108034865009         HANCOCK LEROY,JR    3718 OLD MILFORD MILL RD                000N        CARE OF             
MTR08607500001000000000000000RA              44092331    005801630000016300000520000003NN  NNW 000                       N    
RDG08607500WATRL000000004K00000000000002187007703082015120912N000000000000N89       001730400K 10000000010000002187           
CUS0860750000108034866007         COLE WILLIAM LANE   3716 OLD MILFORD MILL RD                000N        CARE OF             
MTR08607500001000000000000000RA              44172311    005801640000016400000520000003NN  NNW 000                       N    
RDG08607500WATRL000000004K00000000000001791008003082015121255N000000000000N89       000770400K 10000000010000001777           
CUS0860750000108034867005         MOYE LAWRENCE R     3712 MILFORD MILL RD                    000N        CARE OF             
MTR08607500001000000000000000RA              31584193    005801650000016500000520000003NN  NNW 000                       N    
RDG08607500WATRL000000004K00000000000001896008103082015121454N000300000010N89       001190400K 10000000010000004870           
CUS0860750000108034868003         SIGGERS ARNOLD BURNE3710 MILFORD MILL RD                    000N        CARE OF             
MTR08607500001000000000000000RA              14929899    005801660000016600000310000003NN  NNW 000                       N    
RDG08607500WATRL000000004K00000000000000333008203082015121603N000000000000N89       000690400K 10000000010000000321           
CUS0860750000108034869001         DIXON JAMES         3708 MILFORD MILL RD                    000N        CARE OF             
MTR08607500001000000000000000RA              27818591    005801670000016700000520000003NY  NNW 000                       N    
MTM0860750027818591    CAR PARKED                                                                                             
RDG08607500WATRL000000004K00000000000003386002003102015144252N000008400000U89       001480400K 10000000010000003370           
CUS0860750000108034870009         PEARL H TATE        3706 MILFORD MILL RD                    000N        CARE OF             
MTR08607500001000000000000000RA              10015128    005801680000016800000570000003NY  NNW 000                       N    
MTM0860750010015128    SNOW&ICE                                                                                               
RDG08607500WATRL000000004K00000000000000109001803102015143931N000300000010U89       000770400K 10000000010000000104           
CUS0860750000108034871007         THOMAS FELESHIA R   3704 MILFORD MILL RD                    000N        CARE OF             
MTR08607500001000000000000000RA              14900818    005801690000016900000310000003NY  NNW 000                       N    
MTM0860750014900818    SNOW                                                                                                   
RDG08607500WATRL000000004K00000000000001446001903102015144024N000000000000U89       000040400K 10000000010000001414           
CUS0860750000108034872005         PAPANIKOS KONSTANTIN3702 MILFORD MILL RD                    000N        CARE OF             
MTR08607500001000000000000000RA              31583181    005801700000017000000520000003NN  NNW 000                       N    
RDG08607500WATRL000000004K00000000000003454008303082015122653N000000000000N89       006500400K 10000000010000003441           
CUS0860750000108034873003         MARTINEZ CHRISTINA  3700 MILFORD MILL RD                    000N        CARE OF             
MTR08607500001000000000000000RA              01114216    005801710000017100000610000003NN  NNW 000                       N    
RDG08607500WATRL000000004K00000000000001725008403082015122902N000300000021N89       000520400K 10000000010000001596           
CUS0860750000108034874001         PLESS THOMAS R      8108 EULER AVE                          000N        CARE OF             
MTR08607500001000000000000000RA              10024752    005801720000017200000570000003NN  NNW 000                       N    
RDG08607500WATRL000000004K00000000000000446009003082015132608N000000000000N89       000660400K 10000000010000000404           
CUS0860750000108034875008         FULTON MARSHALL H   8110 EULER AVE                          000N        CARE OF             
MTR08607500001000000000000000RA              24760864    005801730000017300000520000003NN  NNW 000                       N    
RDG08607500WATRL000000004K00000000000008988008903082015132502N000000000000N89       001250400K 10000000010000008953           
CUS0860750000108034876006         OBRIEN DALE         8112 EULER AVE                          000N        CARE OF             
MTR08607500001000000000000000RA              48592105    005801740000017400000520000003NN  NNW 000                       N    
RDG08607500WATRL000000004K00000000000001704008803082015132257N000000000000N89       001300400K 10000000010000001691           
CUS0860750000108034877004         PHILLIPS KATHLEEN K 8113 EULER AVE                          000N        CARE OF             
MTR08607500001000000000000000RA              10017320    005801750000017500000570000003NY  NNW 000                       N    
MTM0860750010017320    SNOW                                                                                                   
RDG08607500WATRL000000004K00000000000000204002303102015144650N000300000020U89       000340400K 10000000010000000148           
CUS0860750000108034878002         WILLIAMS CAROLYN    8111 EULER AVE                          000N        CARE OF             
MTR08607500001000000000000000RA              10024571    005801760000017600000570000003NN  NNW 000                       N    
RDG08607500WATRL000000004K00000000000000086008703082015132047N000000000000N89       000660400K 10000000010000000077           
CUS0860750000108034879000         DIAZ MARISA         8109-1/2 EULER AVE                      000N        CARE OF             
MTR08607500001000000000000000RA              9685549     005801770000017700000570000003NY  NNW 000                       N    
MTM086075009685549     SNOW                                                                                                   
RDG08607500WATRL000000004K00000000000007010002203102015144616N000000000000U89       000720400K 10000000010000006927           
CUS0860750000108034880008         ROBINSON JAMES R    8109 EULER AVE                          000N        CARE OF             
MTR08607500001000000000000000RA              35115627    005801780000017800000520000003NN  NNW 000                       N    
RDG08607500WATRL000000004K00000000000003141008603082015131941N000000000000N89       000840400K 10000000010000003114           
CUS0860750000108034881006         LIVELY ANDREW       8107 EULER AVE                          000N        CARE OF             
MTR08607500001000000000000000RA              50789762    005801790000017900000520000003NN  NNW 000                       N    
RDG08607500WATRL000000004K00000000000001641008503082015131817N000000000000N89       029550400K 10000000010000001611           
CUS0860750000108034882004         GOLDSTEIN STEWART   3630 OLD MILFORD MILL RD                000N        CARE OF             
MTR08607500001000000000000000RA              36696258    005801800000018000000520000003NN  NNW 000                       N    
RDG08607500WATRL000000004K00000000000004574009203082015132945N000003600000N89       001320400K 10000000010000004530           
CUS0860750000108034883002         AISHA'S PROPERTY MGM3628 MILFORD MILL RD                    000N        CARE OF             
MTR08607500001000000000000000RA              42810409    005801810000018100000520000003NN  NNW 000                       N    
RDG08607500WATRL000000004K00000000000004230009103082015132733N000000000000N89       000850400K 10000000010000004230           
CUS0860750000108393420008         EPPERLY CHRISTOPHER 3624B OLD MILFORD MILL RD               000N        CARE OF             
MTR08607500001000000000000000RA              48583066    005801820000018200000520000003NN  NNW 000                       N    
RDG08607500WATRL000000004K00000000000000559009603082015133700N000000000000N89       000440400K 10000000010000000547           
CUS0860750000108388274006         DOMINION RENTALS 8 L3624C OLD MILFORD MILL RD               000N        CARE OF             
MTR08607500001000000000000000RA              14902928    005801830000018300000310000003NN  NNW 000                       N    
RDG08607500WATRL000000004K00000000000005695009803082015134007N000300000010N89       001430400K 10000000010000005403           
CUS0860750000108388275003         JUBOORI ABDUL KADIR 3624D OLD MILFORD MILL RD               000N        CARE OF             
MTR08607500001000000000000000RA              35119494    005801840000018400000520000003NN  NNW 000                       N    
RDG08607500WATRL000000004K00000000000002748009903082015134029N000000000000N89       000220400K 10000000010000002713           
CUS0860750000108034884000         GONZALEZ VICENTE ZEL3624A OLD MILFORD MILL RD               000N        CARE OF             
MTR08607500001000000000000000RA              01114458    005801850000018500000610000003NN  NNW 000                       N    
RDG08607500WATRL000000004K00000000000002615010003082015134054N000000000000N89       000250400K 10000000010000002546           
CUS0860750000108034885007         JEFFREY SCRIVENER   3622 OLD MILFORD MILL RD                000N        CARE OF             
MTR08607500001000000000000000RA              10014350    005801860000018600000570000003NN  NNW 000                       N    
RDG08607500WATRL000000004K00000000000000169010103082015134132N000000000000N89       000380400K 10000000010000000158           
CUS0860750000108444681004         JEREMIAS HERRERA    3622 MILFORD MILL RD                    000N        CARE OF             
MTR08607500001000000000000000RA              14927464    005801870000018700000310000003NN  NNW 000                       N    
RDG08607500WATRL000000004K00000000000001328011503082015140148N000000000000N89       002460400K 10000000010000001277           
CUS0860750000108034886005         SKOLNIK ADAM D      3620 OLD MILFORD MILL RD                000N        CARE OF             
MTR08607500001000000000000000RA              01095896    005801880000018800000610000003NN  NNW 000                       N    
RDG08607500WATRL000000004K00000000000001241010203082015134431N000000000000N89       001790400K 10000000010000001209           
CUS0860750000108034887003         LASISI AYODELE      3618 OLD MILFORD MILL RD                000N        CARE OF             
MTR08607500001000000000000000RA              10003848    005801890000018900000570000003NN  NNW 000                       N    
RDG08607500WATRL000000004K00000000000000837010503082015134724N000000000000N89       000540400K 10000000010000000804           
CUS0860750000108444757002         CHARTER HOMES LLC   3616 OLD MILFORD MILL RD                000N        CARE OF             
MTR08607500001000000000000000RA              14903314    005801900000019000000310000003NN  NNW 000                       N    
RDG08607500WATRL000000004K00000000000000322010703082015134922N000000000000N89       000770400K 10000000010000000314           
CUS0860750000108034888001         HAN HAE YOUNG       3610 MILFORD MILL RD                    000N        CARE OF             
MTR08607500001000000000000000RA              99410515    000101910000019100000570000003NN  NNW 000                       N    
RDG08607500WATRL000000004K00000000000004956011003082015135433N000000000000N89       001720400K 10000000010000004812           
CUS0860750000108034889009         MILFORD MZL LLC     3608 MILFORD MILL RD                    000N        CARE OF             
MTR08607500001000000000000000RA              75427030    007501920000019200000350000003NN  NNW 000                       N    
RDG08607500WATRL000000004K00000000000000009011103082015135542N000000000000N89       000690400K 10000000010000000005           
RTR08607500NN01920192000001920000000001920192000580NY019201920192000600010000000000000000000002    02192015NY020000 N         
RHD08607600NN01860186000001860000000001860186000288NY018601860186000200000000000000000000000002    02192015NY020000 N         
CUS0860760000108036063009         CANTY ROBERT J      3601 COURTLEIGH DR                      000N        CARE OF             
MTR08607600001000000000000000RA              41075457    005800010000000100000520000000NY  NNW 000                       N    
MTM0860760041075457    4150                                                                                                   
RDG08607600WATRL000000004K00000000000004150000003082015160250O000000000000N87       000000400K 10000000010000004102           
CUS0860760000108036064007         WEBSTER STEVE C     3603 COURTLEIGH DR                      000N        CARE OF             
MTR08607600001000000000000000RA              41590165    005800020000000200000520000003NN  NNW 000                       N    
RDG08607600WATRL000000004K00000000000002964000203112015093400N000000000000U86       006690400K 10000000010000002947           
CUS0860760000108036065004         ADAMS CHARLENE A    3605 COURTLEIGH DR                      000N        CARE OF             
MTR08607600001000000000000000RA              30513934    005800030000000300000520000003NN  NNW 000                       N    
RDG08607600WATRL000000004K00000000000003545000303112015093423N000000000000U86       000230400K 10000000010000003526           
CUS0860760000108036066002         NELSON ROBERT W,SR  3607 COURTLEIGH DR                      000N        CARE OF             
MTR08607600001000000000000000RA              41086712    005800040000000400000520000003NN  NNW 000                       N    
RDG08607600WATRL000000004K00000000000002509000403112015093450N000300000010U86       000270400K 10000000010000002476           
CUS0860760000108036067000         AGBOH DENNIS        3609 COURTLEIGH DR                      000N        CARE OF             
MTR08607600001000000000000000RA              46876995    005800050000000500000520000003NN  NNW 000                       N    
RDG08607600WATRL000000004K00000000000003293000503112015093518N000000000000U86       000280400K 10000000010000003265           
CUS0860760000108036068008         LALANI MANSURO      3611 COURTLEIGH DR                      000N        CARE OF             
MTR08607600001000000000000000RA              32903131    005800060000000600000520000003NN  NNW 000                       N    
RDG08607600WATRL000000004K00000000000001056000603112015093547N000000000000U86       000290400K 10000000010000001021           
CUS0860760000108036069006         THOMAS JOEL         3613 COURTLEIGH DR                      000N        CARE OF             
MTR08607600001000000000000000RA              48588008    005800070000000700000520000003NN  NNW 000                       N    
RDG08607600WATRL000000004K00000000000006889000703112015093617N000000000000U86       000300400K 10000000010000006853           
CUS0860760000108036070004         LAWS DENISE         3615 COURTLEIGH DR                      000N        CARE OF             
MTR08607600001000000000000000RA              48586570    005800080000000800000520000003NN  NNW 000                       N    
RDG08607600WATRL000000004K00000000000001435000803112015093658N000000000000U86       000410400K 10000000010000001410           
CUS0860760000108036071002         WINBORNE RACINE SHEL3617 COURTLEIGH DR                      000N        CARE OF             
MTR08607600001000000000000000RA              30522790    005800090000000900000520000003NN  NNW 000                       N    
RDG08607600WATRL000000004K00000000000002440000903112015093733N000003600000U86       000350400K 10000000010000002417           
CUS0860760000108036072000         COLLINS JESSE PRITCH3619 COURTLEIGH DR                      000N        CARE OF             
MTR08607600001000000000000000RA              33735920    005800100000001000000520000003NN  NNW 000                       N    
RDG08607600WATRL000000004K00000000000002427001003112015093855N000400000010U86       000820400K 10000000010000002421           
CUS0860760000108036073008         KELLY HOWARD A,JR   3621 COURTLEIGH DR                      000N        CARE OF             
MTR08607600001000000000000000RA              27833718    005800110000001100000520000003NN  NNW 000                       N    
RDG08607600WATRL000000004K00000000000002494001103112015093945N000300000010U86       000500400K 10000000010000002455           
CUS0860760000108036074006         DAVID R SEEPERAD    3623 COURTLEIGH DR                      000N        CARE OF             
MTR08607600001000000000000000RA              52769831    005800120000001200000520000003NN  NNW 000                       N    
RDG08607600WATRL000000004K00000000000001369001203112015094012N000000000000U86       000270400K 10000000010000001365           
CUS0860760000108036075003         JONES STEVEN L      3625 COURTLEIGH DR                      000N        CARE OF             
MTR08607600001000000000000000RA              41080221    005800130000001300000520000003NN  NNW 000                       N    
RDG08607600WATRL000000004K00000000000003045001303112015094041N000000000000U86       000290400K 10000000010000003004           
CUS0860760000108036076001         ATKINSON DARCELL    3627 COURTLEIGH DR                      000N        CARE OF             
MTR08607600001000000000000000RA              45381749    005800140000001400000520000003NN  NNW 000                       N    
RDG08607600WATRL000000004K00000000000003323001403112015094115N000000000000U86       000340400K 10000000010000003250           
CUS0860760000108036077009         MONLISA SMITH       3629 COURTLEIGH DR                      000N        CARE OF             
MTR08607600001000000000000000RA              44086506    005800150000001500000520000003NN  NNW 000                       N    
RDG08607600WATRL000000004K00000000000001889001503112015094157N000000000000U86       000420400K 10000000010000001859           
CUS0860760000108036078007         ADEYIGA OLUSOLA R   3703 VALLEY HILL DR                     000N        CARE OF             
MTR08607600001000000000000000RA              01112059    005800160000001600000610000003NN  NNW 000                       N    
RDG08607600WATRL000000004K00000000000001352001603112015094318N000000000000U86       000810400K 10000000010000001332           
CUS0860760000108036079005         BANKS CHARLES E,JR  3705 VALLEY HILL DR                     000N        CARE OF             
MTR08607600001000000000000000RA              01077885    005800170000001700000610000003NN  NNW 000                       N    
RDG08607600WATRL000000004K00000000000001132001703112015094331N000000000000U86       000130400K 10000000010000001114           
CUS0860760000108036080003         BENTLEY MICHAEL J,JR3707 VALLEY HILL DR                     000N        CARE OF             
MTR08607600001000000000000000RA              01073532    005800180000001800000610000003NN  NNW 000                       N    
RDG08607600WATRL000000004K00000000000000966001803112015094527N000000000000U86       001160400K 10000000010000000940           
CUS0860760000108036081001         JAFFE KENNETH H     3709 VALLEY HILL DR                     000N        CARE OF             
MTR08607600001000000000000000RA              01112886    005800190000001900000610000003NN  NNW 000                       N    
RDG08607600WATRL000000004K00000000000000430001903112015094644N000000000000U86       000770400K 10000000010000000397           
CUS0860760000108036082009         KLEIN MARIAN D      3711 VALLEY HILL DR                     000N        CARE OF             
MTR08607600001000000000000000RA              01112890    005800200000002000000610000003NN  NNW 000                       N    
RDG08607600WATRL000000004K00000000000000442002003112015094710N000000000000U86       000260400K 10000000010000000433           
CUS0860760000108036083007         SPRIGGS MICHAEL     3713 VALLEY HILL DR                     000N        CARE OF             
MTR08607600001000000000000000RA              01112120    005800210000002100000610000003NN  NNW 000                       N    
RDG08607600WATRL000000004K00000000000001383002103112015094814N000000000000U86       000640400K 10000000010000001354           
CUS0860760000108036084005         LALANI MANSURO      3715 VALLEY HILL DR                     000N        CARE OF             
MTR08607600001000000000000000RA              44089587    005800220000002200000520000003NN  NNW 000                       N    
RDG08607600WATRL000000004K00000000000001674002203112015094904N000300000010U86       000500400K 10000000010000001607           
CUS0860760000108036085002         MORGAN ERIKA        3717 VALLEY HILL DR                     000N        CARE OF             
MTR08607600001000000000000000RA              45378665    005800230000002300000520000003NN  NNW 000                       N    
RDG08607600WATRL000000004K00000000000002145002303112015094935N000000000000U86       000310400K 10000000010000002118           
CUS0860760000108036086000         GOUGH ALEXANDER V,3R3719 VALLEY HILL DR                     000N        CARE OF             
MTR08607600001000000000000000RA              29679511    005800240000002400000520000003NN  NNW 000                       N    
RDG08607600WATRL000000004K00000000000002313002403112015095002N000000000000U86       000270400K 10000000010000002288           
CUS0860760000108036087008         HARRISON JOHN A,JR  3721 VALLEY HILL DR                     000N        CARE OF             
MTR08607600001000000000000000RA              10012980    005800250000002500000570000003NN  NNW 000                       N    
RDG08607600WATRL000000004K00000000000000247002503112015095030N000000000000U86       000280400K 10000000010000000225           
CUS0860760000108036088006         BADSHAH SHARAD J    3723 VALLEY HILL DR                     000N        CARE OF             
MTR08607600001000000000000000RA              44002214    005800260000002600000520000003NN  NNW 000                       N    
RDG08607600WATRL000000004K00000000000001602002603112015095057N000100000010U86       000270400K 10000000010000001602           
CUS0860760000108036089004         ROBERT BRANCH       3725 VALLEY HILL DR                     000N        CARE OF             
MTR08607600001000000000000000RA              41259604    005800270000002700000520000003NN  NNW 000                       N    
RDG08607600WATRL000000004K00000000000003006002703112015095225N000000000000U86       000880400K 10000000010000002985           
CUS0860760000108036090002         SPRIGGS LEMUEL A    8417 DOWNEY DALE DR                     000N        CARE OF             
MTR08607600001000000000000000RA              38887308    005800280000002800000520000003NN  NNW 000                       N    
RDG08607600WATRL000000004K00000000000003985002803112015095322N000000000000U86       000570400K 10000000010000003961           
CUS0860760000108036091000         JORDAN CAROLYN S    8415 DOWNEY DALE DR                     000N        CARE OF             
MTR08607600001000000000000000RA              01086841    005800290000002900000610000003NN  NNW 000                       N    
RDG08607600WATRL000000004K00000000000000857002903112015095505N000000000000U86       001030400K 10000000010000000839           
CUS0860760000108036092008         PEARL CARROLL E,SR  3712 CROSSLEIGH CT                      000N        CARE OF             
MTR08607600001000000000000000RA              22607000    005800300000003000000520000003NN  NNW 000                       N    
RDG08607600WATRL000000004K00000000000007089003003112015095550N000000000000U86       000450400K 10000000010000007049           
CUS0860760000108036093006         SMALLS JASON L      3710 CROSSLEIGH CT                      000N        CARE OF             
MTR08607600001000000000000000RA              01073533    005800310000003100000610000003NN  NNW 000                       N    
RDG08607600WATRL000000004K00000000000001370003103112015095650N000000000000U86       000600400K 10000000010000001317           
CUS0860760000108036094004         MARSHALL BETTY      3708 CROSSLEIGH CT                      000N        CARE OF             
MTR08607600001000000000000000RA              10012981    005800320000003200000570000003NN  NNW 000                       N    
RDG08607600WATRL000000004K00000000000000141003203112015095735N000000000000U86       000450400K 10000000010000000134           
CUS0860760000108036095001         JONES JEANNE A      3706 CROSSLEIGH CT                      000N        CARE OF             
MTR08607600001000000000000000RA              41075461    005800330000003300000520000003NN  NNW 000                       N    
RDG08607600WATRL000000004K00000000000001768003303112015095859N000000000000U86       000840400K 10000000010000001760           
CUS0860760000108036096009         VELEZMELENDEZ JUANA 3704 CROSSLEIGH CT                      000N        CARE OF             
MTR08607600001000000000000000RA              99187166    005800340000003400000570000003NN  NNW 000                       N    
RDG08607600WATRL000000004K00000000000000786003403112015100007N000000000000U86       000680400K 10000000010000000779           
CUS0860760000108036097007         ASHLEY GRANT        3702 CROSSLEIGH CT                      000N        CARE OF             
MTR08607600001000000000000000RA              44176593    005800350000003500000520000003NN  NNW 000                       N    
RDG08607600WATRL000000004K00000000000002103003503112015100033N000000000000U86       000260400K 10000000010000002085           
CUS0860760000108036098005         TERRY CHRYSTAL      3700 CROSSLEIGH CT                      000N        CARE OF             
MTR08607600001000000000000000RA              01086427    005800360000003600000610000003NN  NNW 000                       N    
RDG08607600WATRL000000004K00000000000001773003603112015100157N000000000000U86       000840400K 10000000010000001750           
CUS0860760000108036099003         FRANK R GILL JR.    3701 CROSSLEIGH CT                      000N        CARE OF             
MTR08607600001000000000000000RA              41075425    005800370000003700000520000003NN  NNW 000                       N    
RDG08607600WATRL000000004K00000000000001487003703112015100240N000003500000U86       000430400K 10000000010000001472           
CUS0860760000108036100009         MRS ESTHER WALLACE  3703 CROSSLEIGH CT                      000N        CARE OF             
MTR08607600001000000000000000RA              44173578    005800380000003800000520000003NN  NNW 000                       N    
RDG08607600WATRL000000004K00000000000001227003803112015100302N000000000000U86       000220400K 10000000010000001222           
CUS0860760000108036101007         SMITH STEVEN ROBERT,3705 CROSSLEIGH CT                      000N        CARE OF             
MTR08607600001000000000000000RA              41075453    005800390000003900000520000003NN  NNW 000                       N    
RDG08607600WATRL000000004K00000000000002201003903112015100355N000000000000U86       000530400K 10000000010000002179           
CUS0860760000108036102005         STALLINGS BENZENER  3707 CROSSLEIGH CT                      000N        CARE OF             
MTR08607600001000000000000000RA              01073535    005800400000004000000610000003NN  NNW 000                       N    
RDG08607600WATRL000000004K00000000000000679004003112015100452N000000000000U86       000570400K 10000000010000000668           
CUS0860760000108036103003         CHARLES YVONDA E    3709 CROSSLEIGH CT                      000N        CARE OF             
MTR08607600001000000000000000RA              52769777    005800410000004100000520000003NN  NNW 000                       N    
RDG08607600WATRL000000004K00000000000000825004103112015100716N000300000010U86       001440400K 10000000010000000816           
CUS0860760000108036104001         JOHNSON KENNETH M   8413 DOWNEY DALE DR                     000N        CARE OF             
MTR08607600001000000000000000RA              33080659    005800420000004200000520000003NN  NNW 000                       N    
RDG08607600WATRL000000004K00000000000003852004203112015100924N000000000000U86       001280400K 10000000010000003825           
CUS0860760000108036105008         JONES EARLENE COX   8411 DOWNEY DALE DR                     000N        CARE OF             
MTR08607600001000000000000000RA              01073555    005800430000004300000610000003NN  NNW 000                       N    
RDG08607600WATRL000000004K00000000000000299004303112015101007N000000000000U86       000430400K 10000000010000000299           
CUS0860760000108036106006         ALLEN NICHOLAS      8409 DOWNEY DALE DR                     000N        CARE OF             
MTR08607600001000000000000000RA              41590126    005800440000004400000520000003NN  NNW 000                       N    
RDG08607600WATRL000000004K00000000000003092004403112015101033N000000000000U86       000260400K 10000000010000003077           
CUS0860760000108036107004         JONES ADRIANNE Y    8407 DOWNEY DALE DR                     000N        CARE OF             
MTR08607600001000000000000000RA              50478989    005800450000004500000520000003NN  NNW 000                       N    
RDG08607600WATRL000000004K00000000000002459004503112015101109N000000000000U86       000360400K 10000000010000002405           
CUS0860760000108036108002         ANDERSON JOHN T     8405 DOWNEY DALE DR                     000N        CARE OF             
MTR08607600001000000000000000RA              19462247    005800460000004600000520000003NN  NNW 000                       N    
RDG08607600WATRL000000004K00000000000006055004603112015101155N000000000000U86       000460400K 10000000010000006050           
CUS0860760000108036109000         WHITELOCK JOHN A,JR 8403 DOWNEY DALE DR                     000N        CARE OF             
MTR08607600001000000000000000RA              50786514    005800470000004700000520000003NN  NNW 000                       N    
RDG08607600WATRL000000004K00000000000001905004703112015101238N000000000000U86       000430400K 10000000010000001884           
CUS0860760000108036110008         GORDON JUDY L       8401 DOWNEY DALE DR                     000N        CARE OF             
MTR08607600001000000000000000RA              50786510    005800480000004800000520000003NN  NNW 000                       N    
RDG08607600WATRL000000004K00000000000001821004803112015101306N000000000000U86       000280400K 10000000010000001805           
CUS0860760000108036111006         RANDALL TAMIKA A    8383 CHURCH LN                          000N        CARE OF             
MTR08607600001000000000000000RA              01074170    005800490000004900000610000003NN  NNW 000                       N    
RDG08607600WATRL000000004K00000000000001124004903112015101400N000000000000U86       000540400K 10000000010000001061           
CUS0860760000108036136003         SCHAPER RANDY W     8402 DOWNEY DALE DR                     000N        CARE OF             
MTR08607600001000000000000000RA              50786506    005800500000005000000520000003NN  NNW 000                       N    
RDG08607600WATRL000000004K00000000000002036005003112015101515N000000000000U86       000750400K 10000000010000002000           
CUS0860760000108036137001         GRAHAM SHERRIE & SHE8404 DOWNEY DALE DR                     000N        CARE OF             
MTR08607600001000000000000000RA              50480842    005800510000005100000520000003NN  NNW 000                       N    
RDG08607600WATRL000000004K00000000000004090005103112015101627N000000000000U86       000720400K 10000000010000004061           
CUS0860760000108036138009         PIANIM EDWARD K     8406 DOWNEY DALE DR                     000N        CARE OF             
MTR08607600001000000000000000RA              31936271    005800520000005200000520000003NN  NNW 000                       N    
RDG08607600WATRL000000004K00000000000005302005203112015101656N000000000000U86       000290400K 10000000010000005300           
CUS0860760000108036139007         JOHNSON DAVID       8408 DOWNEY DALE DR                     000N        CARE OF             
MTR08607600001000000000000000RA              27813513    005800530000005300000520000003NN  NNW 000                       N    
RDG08607600WATRL000000004K00000000000002726005303112015101720N000000000000U86       000240400K 10000000010000002726           
CUS0860760000108036140005         ETTLINGER PAUL M    8410 DOWNEY DALE DR                     000N        CARE OF             
MTR08607600001000000000000000RA              22608279    005800540000005400000520000003NN  NNW 000                       N    
RDG08607600WATRL000000004K00000000000005107005403112015101740N000000000000U86       000200400K 10000000010000005067           
CUS0860760000108036141003         KIRBY SHAKITTA      8412 DOWNEY DALE DR                     000N        CARE OF             
MTR08607600001000000000000000RA              44177229    005800550000005500000520000003NN  NNW 000                       N    
RDG08607600WATRL000000004K00000000000002370005503112015101747N000000000000U86       000070400K 10000000010000002370           
CUS0860760000108036142001         JESTER RONALD STEPHE8414 DOWNEY DALE DR                     000N        CARE OF             
MTR08607600001000000000000000RA              45381059    005800560000005600000520000003NN  NNW 000                       N    
RDG08607600WATRL000000004K00000000000001313005603112015101851N000000000000U86       000640400K 10000000010000001307           
CUS0860760000108036143009         MARCH GARY PAUL,JR  8416 DOWNEY DALE DR                     000N        CARE OF             
MTR08607600001000000000000000RA              42810545    005800570000005700000520000003NN  NNW 000                       N    
