FHDNNNN009001991001991001991N                                                                                           006024
RHD04206900NN02300230000002300000000002300230000170NY023002300230000000700000000000000000000001    06092015NY020000 N         
CUS0420690000104168271007         WILLIAM DAVIS & WF  1022 BONAPARTE AVE                      000N        CARE OF             
MTR04206900001000000000000000RA              00136831    005800010000000100000570000003NN  NNW 000                       N    
RDG04206900WATRL000000004K00000000000000000015706222015102737S008000000000N84       000210400K 10000000010000000853           
CUS0420690000104168272005         CANNIE, LILLIE M    1020 BONAPARTE AVE                      000N        CARE OF             
MTR04206900001000000000000000RA              00136828    005800020000000200000570000003NN  NNW 000                       N    
RDG04206900WATRL000000004K00000000000000000015806222015102739S008000000000N84       000020400K 10000000010000000974           
CUS0420690000104168273003         ADEBOWALE, OKE A.   1018 BONAPARTE AVE                      000N        CARE OF             
MTR04206900001000000000000000RA              44177604    005800030000000300000520000003NN  NNW 000                       N    
RDG04206900WATRL000000004K00000000000000000015906222015102740S008000000000N84       000010400K 10000000010000002050           
CUS0420690000104168274001         GATHERS, FRANCES E  1016 BONAPARTE AVE                      000N        CARE OF             
MTR04206900001000000000000000RA              01080402    005800040000000400000610000003NN  NNW 000                       N    
RDG04206900WATRL000000004K00000000000000000016006222015102742S008000000000N84       000020400K 10000000010000001420           
CUS0420690000104168275008         BHOLA, VINETTA      1014 BONAPARTE AVE                      000N        CARE OF             
MTR04206900001000000000000000RA              99291501    005800050000000500000570000003NN  NNW 000                       N    
RDG04206900WATRL000000004K00000000000000000016106222015102744S008000000000N84       000020400K 10000000010000000637           
CUS0420690000104168276006         MICKENS, LADAWNA    1012 BONAPARTE AVE                      000N        CARE OF             
MTR04206900001000000000000000RA              99291566    005800060000000600000570000003NN  NNW 000                       N    
RDG04206900WATRL000000004K00000000000000000016206222015102746S008000000000N84       000020400K 10000000010000000489           
CUS0420690000104168277004         BHOLA, NELAM        1010 BONAPARTE AVE                      000N        CARE OF             
MTR04206900001000000000000000RA              10010822    005800070000000700000570000003NN  NNW 000                       N    
RDG04206900WATRL000000004K00000000000000000016306222015102959S008000000000N84       001330400K 10000000010000000427           
CUS0420690000104168278002         CRADDOCK, SIDNEY    1008 BONAPARTE AVE                      000N        CARE OF             
MTR04206900001000000000000000RA              10010895    005800080000000800000570000003NN  NNW 000                       N    
RDG04206900WATRL000000004K00000000000000000016406222015103003S008000000000N84       000040400K 10000000010000000269           
CUS0420690000104168279000         LOWMAN, WILLIE B.   1006 BONAPARTE AVE                      000N        CARE OF             
MTR04206900001000000000000000RA              00136830    005800090000000900000570000003NN  NNW 000                       N    
RDG04206900WATRL000000004K00000000000000000016506222015103005S008000000000N84       000020400K 10000000010000001106           
CUS0420690000104168280008         HAZEL HENDERSON     1004 BONAPARTE AVE                      000N        CARE OF             
MTR04206900001000000000000000RA              00136827    005800100000001000000570000003NN  NNW 000                       N    
RDG04206900WATRL000000004K00000000000000000016606222015103006S008000000000N84       000010400K 10000000010000000364           
CUS0420690000104168281006         MCCAMIE, RAYNARD E. 1002 BONAPARTE AVE                      000N        CARE OF             
MTR04206900001000000000000000RA              00136062    005800110000001100000570000003NN  NNW 000                       N    
RDG04206900WATRL000000004K00000000000000000016706222015103008S008000000000N84       000020400K 10000000010000000838           
CUS0420690000104168282004         HILL, SAMEUL        1000 BONAPARTE AVE                      000N        CARE OF             
MTR04206900001000000000000000RA              00136870    005800120000001200000570000003NN  NNW 000                       N    
RDG04206900WATRL000000004K00000000000000000016806222015103010S008000000000N84       000020400K 10000000010000001088           
CUS0420690000104168283002         LILLIE O COLEMAN    2301 GARRETT AVE                        000N        CARE OF             
MTR04206900001000000000000000RA              33730633    005800130000001300000520000003NN  NNW 000                       N    
RDG04206900WATRL000000004K00000000000000000016906222015103013S008000000000N84       000030400K 10000000010000002192           
CUS0420690000104168284000         JONES, BRITTANY     2303 GARRETT AVE                        000N        CARE OF             
MTR04206900001000000000000000RA              33730635    005800140000001400000520000003NN  NNW 000                       N    
RDG04206900WATRL000000004K00000000000000000017006222015103014S008000000000N84       000010400K 10000000010000002631           
CUS0420690000104168285007         BLAKE-SCOTT JOAN E  2305 GARRETT AVE                        000N        CARE OF             
MTR04206900001000000000000000RA              33730676    005800150000001500000520000003NN  NNW 000                       N    
RDG04206900WATRL000000004K00000000000000000017106222015103016S008000000000N84       000020400K 10000000010000002793           
CUS0420690000104168286005         LARRY INC           2307 GARRETT AVE                        000N        CARE OF             
MTR04206900001000000000000000RA              33732223    005800160000001600000520000003NN  NNW 000   VACANT PROPERTY     N    
RDG04206900WATRL000000004K00000000000000000017206222015103017S008000000000N84       000010400K 10000000010000002785           
CUS0420690000104168287003         2309 GARRETT AVE, LL2309 GARRETT AVE                        000N        CARE OF             
MTR04206900001000000000000000RA              14930788    005800170000001700000310000003NN  NNW 000                       N    
RDG04206900WATRL000000004K00000000000000000017306222015103019S008000000000N84       000020400K 10000000010000000448           
CUS0420690000104168288001         STEVENS, ANNA       2311 GARRETT AVE                        000N        CARE OF             
MTR04206900001000000000000000RA              14930453    005800180000001800000310000003NN  NNW 000                       N    
RDG04206900WATRL000000004K00000000000000000017406222015103021S008000000000N84       000020400K 10000000010000000216           
CUS0420690000104168289009         HENSON, WILLIAM T   2313 GARRETT AVE                        000N        CARE OF             
MTR04206900001000000000000000RA              33729094    005800190000001900000520000003NN  NNW 000                       N    
RDG04206900WATRL000000004K00000000000000000017506222015103022S008000000000N84       000010400K 10000000010000001619           
CUS0420690000104168290007         FREDDIE MAC/ HOMESTE2315 GARRETT AVE                        000N        CARE OF             
MTR04206900001000000000000000RA              24762500    005800200000002000000520000003NN  NNW 000                       N    
RDG04206900WATRL000000004K00000000000000000017606222015103024S008000000000N84       000020400K 10000000010000002653           
CUS0420690000104168291005         SOLID ROCK GOSPEL PE2317 GARRETT AVE                        000N        CARE OF             
MTR04206900001000000000000000RA              24231378    005800210000002100000520000003NN  NNW 000                       N    
RDG04206900WATRL000000004K00000000000000000017706222015103026S008000000000N84       000020400K 10000000010000005138           
CUS0420690000104168292003         RAYMOND, NADINE     2319 GARRETT AVE                        000N        CARE OF             
MTR04206900001000000000000000RA              41259080    005800220000002200000520000003NN  NNW 000                       N    
RDG04206900WATRL000000004K00000000000000000017806222015103028S008000000000N84       000020400K 10000000010000002524           
CUS0420690000104168293001         BOOTH, ROSALYN P    2340 GARRETT AVE                        000N        CARE OF             
MTR04206900001000000000000000RA              25783023    005800230000002300000520000003NN  NNW 000                       N    
RDG04206900WATRL000000004K00000000000000000017906222015103029S008000000000N84       000010400K 10000000010000001600           
CUS0420690000104168294009         FLEMING, CASSANDRA  2338 GARRETT AVE                        000N        CARE OF             
MTR04206900001000000000000000RA              25782705    005800240000002400000520000003NN  NNW 000                       N    
RDG04206900WATRL000000004K00000000000000000018006222015103031S008000000000N84       000020400K 10000000010000002122           
CUS0420690000104168295006         PITTMAN, JAMES      2336 GARRETT AVE                        000N        CARE OF             
MTR04206900001000000000000000RA              11427235    005800250000002500000520000003NN  NNW 000                       N    
RDG04206900WATRL000000004K00000000000000000018106222015103032S008000000000N84       000010400K 10000000010000003833           
CUS0420690000104168296004         ANDERSON JACKSON & W2334 GARRETT AVE                        000N        CARE OF             
MTR04206900001000000000000000RA              35117114    005800260000002600000520000003NN  NNW 000                       N    
RDG04206900WATRL000000004K00000000000000000018206222015103043S008000000000N84       000110400K 10000000010000002502           
CUS0420690000104168298000         SPENCER, RENEE' IRVI2330 GARRETT AVE                        000N        CARE OF             
MTR04206900001000000000000000RA              99288586    005800270000002700000570000003NN  NNW 000                       N    
RDG04206900WATRL000000004K00000000000000000018306222015103045S008000000000N84       000020400K 10000000010000000745           
CUS0420690000104168299008         SMITH, MARSHA       2328 GARRETT AVE                        000N        CARE OF             
MTR04206900001000000000000000RA              48594133    005800280000002800000520000003NN  NNW 000                       N    
RDG04206900WATRL000000004K00000000000000000018406222015103047S008000000000N84       000020400K 10000000010000000584           
CUS0420690000104168300004         YEARGIN, CLEMON B   2326 GARRETT AVE                        000N        CARE OF             
MTR04206900001000000000000000RA              44003324    005800290000002900000520000003NN  NNW 000                       N    
RDG04206900WATRL000000004K00000000000000000018506222015103049S008000000000N84       000020400K 10000000010000001268           
CUS0420690000104168301002         LOVELAND INVESTMENTS2324 GARRETT AVE                        000N        CARE OF             
MTR04206900001000000000000000RA              99289980    005800300000003000000570000003NN  NNW 000                       N    
RDG04206900WATRL000000004K00000000000000000018606222015103051S008000000000N84       000020400K 10000000010000001198           
CUS0420690000104168302000         ELLIOTT, DOROTHY    2322 GARRETT AVE                        000N        CARE OF             
MTR04206900001000000000000000RA              99289573    005800310000003100000570000003NN  NNW 000                       N    
RDG04206900WATRL000000004K00000000000000000018706222015103052S008000000000N84       000010400K 10000000010000001864           
CUS0420690000104168303008         MINOR, EVERETT      2320 GARRETT AVE                        000N        CARE OF             
MTR04206900001000000000000000RA              10014285    005800320000003200000570000003NN  NNW 000                       N    
RDG04206900WATRL000000004K00000000000000000018806222015103054S008000000000N84       000020400K 10000000010000000304           
CUS0420690000104168304006         ERVIN, CHARLES E.   2318 GARRETT AVE                        000N        CARE OF             
MTR04206900001000000000000000RA              35117118    005800330000003300000520000003NN  NNW 000                       N    
RDG04206900WATRL000000004K00000000000000000018906222015103055S008000000000N84       000010400K 10000000010000002201           
CUS0420690000104168305003         BAKER, ROBERT C.    2316 GARRETT AVE                        000N        CARE OF             
MTR04206900001000000000000000RA              99288524    005800340000003400000570000003NN  NNW 000                       N    
RDG04206900WATRL000000004K00000000000000000019006222015103057S008000000000N84       000020400K 10000000010000000826           
CUS0420690000104168306001         HOLABIRD INVESTMENTS2314 GARRETT AVE                        000N        CARE OF             
MTR04206900001000000000000000RA              50790559    005800350000003500000520000003NN  NNW 000                       N    
RDG04206900WATRL000000004K00000000000000000019106222015103059S008000000000N84       000020400K 10000000010000001387           
CUS0420690000104168307009         MARY M VINSON       2312 GARRETT AVE                        000N        CARE OF             
MTR04206900001000000000000000RA              35117117    005800360000003600000520000003NN  NNW 000                       N    
RDG04206900WATRL000000004K00000000000000000019206222015103101S008000000000N84       000020400K 10000000010000000715           
CUS0420690000104168308007         LEE, TYRONE P       2310 GARRETT AVE                        000N        CARE OF             
MTR04206900001000000000000000RA              75615746    005800370000003700000350000003NN  NNW 000   VACANT PROPERTY     N    
RDG04206900WATRL000000004K00000000000000000019306222015103104S008000000000N84       000030400K 10000000010000000000           
CUS0420690000104168309005         HOGAR  HISPANO, INC 2308 GARRETT AVE                        000N        CARE OF             
MTR04206900001000000000000000RA              99291036    005800380000003800000570000003NN  NNW 000                       N    
RDG04206900WATRL000000004K00000000000000000019406222015103106S008000000000N84       000020400K 10000000010000000259           
CUS0420690000104168310003         CITY HOMES PATRIOTS 2306 GARRETT AVE                        000N        CARE OF             
MTR04206900001000000000000000RA              54348393    005800390000003900000520000003NN  NNW 000                       N    
RDG04206900WATRL000000004K00000000000000000019506222015103108S008000000000N84       000020400K 10000000010000000966           
CUS0420690000104168311001         SHAH REAL ESTATE, LL2304 GARRETT AVE                        000N        CARE OF             
MTR04206900001000000000000000RA              35115777    005800400000004000000520000003NN  NNW 000                       N    
RDG04206900WATRL000000004K00000000000000000019606222015103110S008000000000N84       000020400K 10000000010000002618           
CUS0420690000104168312009         ZEWDU, WORKU A.     2302 GARRETT AVE                        000N        CARE OF             
MTR04206900001000000000000000RA              99291002    005800410000004100000570000003NN  NNW 000                       N    
RDG04206900WATRL000000004K00000000000000000019706222015103111S008000000000N84       000010400K 10000000010000001229           
CUS0420690000104168313007         CARTER, TARA        2300 GARRETT AVE                        000N        CARE OF             
MTR04206900001000000000000000RA              99389425    005800420000004200000570000003NN  NNW 000                       N    
RDG04206900WATRL000000004K00000000000000000019806222015103113S008000000000N84       000020400K 10000000010000001536           
CUS0420690000104168315002         SADAT REAL ESTATE, L922 BONAPARTE AVE                       000N        CARE OF             
MTR04206900001000000000000000RA              14906167    005800430000004300000310000003NN  NNW 000                       N    
RDG04206900WATRL000000004K00000000000000000019906222015103115S008000000000N84       000020400K 10000000010000000491           
CUS0420690000104168316000         ROBINSON EVELYN DENI920 BONAPARTE AVE                       000N        CARE OF             
MTR04206900001000000000000000RA              10001722    005800440000004400000570000003NN  NNW 000                       N    
RDG04206900WATRL000000004K00000000000000000020006222015103117S008000000000N84       000020400K 10000000010000000210           
CUS0420690000104168317008         ETUH, JIDEOSOR IFEAN918 BONAPARTE AVE                       000N        CARE OF             
MTR04206900001000000000000000RA              14901120    005800450000004500000310000003NN  NNW 000                       N    
RDG04206900WATRL000000004K00000000000000000020106222015103118S008000000000N84       000010400K 10000000010000000552           
CUS0420690000104168318006         CE REALTY, LLC      916 BONAPARTE AVE                       000N        CARE OF             
MTR04206900001000000000000000RA              45383275    005800460000004600000520000003NN  NNW 000                       N    
RDG04206900WATRL000000004K00000000000000000020206222015103120S008000000000N84       000020400K 10000000010000001640           
CUS0420690000104168319004         HSDB, LLC           914 BONAPARTE AVE                       000N        CARE OF             
MTR04206900001000000000000000RA              29681379    005800470000004700000520000003NN  NNW 000                       N    
RDG04206900WATRL000000004K00000000000000000020306222015103123S008000000000N84       000030400K 10000000010000000881           
CUS0420690000104168320002         MARTIN, WILLIAM ANTH912 BONAPARTE AVE                       000N        CARE OF             
MTR04206900001000000000000000RA              29681381    005800480000004800000520000003NN  NNW 000                       N    
RDG04206900WATRL000000004K00000000000000000020406222015103124S008000000000N84       000010400K 10000000010000005477           
CUS0420690000104168321000         NDEFRU, MARTIN      910 BONAPARTE AVE                       000N        CARE OF             
MTR04206900001000000000000000RA              48583634    005800490000004900000520000003NN  NNW 000                       N    
RDG04206900WATRL000000004K00000000000000000020506222015103126S008000000000N84       000020400K 10000000010000002273           
CUS0420690000104168322008         AUDREY C FOSTER     908 BONAPARTE AVE                       000N        CARE OF             
MTR04206900001000000000000000RA              00136293    005800500000005000000570000003NN  NNW 000                       N    
RDG04206900WATRL000000004K00000000000000000020606222015103128S008000000000N84       000020400K 10000000010000000372           
CUS0420690000104168323006         CHARM CITY HOUSING L906 BONAPARTE AVE                       000N        CARE OF             
MTR04206900001000000000000000RA              99290952    005800510000005100000570000003NN  NNW 000                       N    
RDG04206900WATRL000000004K00000000000000000020706222015103130S008000000000N84       000020400K 10000000010000000236           
CUS0420690000104168324004         ELLIS, ALISA R      904 BONAPARTE AVE                       000N        CARE OF             
MTR04206900001000000000000000RA              14922006    005800520000005200000310000003NN  NNW 000                       N    
RDG04206900WATRL000000004K00000000000000000020806222015103131S008000000000N84       000010400K 10000000010000000302           
CUS0420690000104168325001         PATRICK P VINES & WF902 BONAPARTE AVE                       000N        CARE OF             
MTR04206900001000000000000000RA              99292299    005800530000005300000570000003NN  NNW 000                       N    
RDG04206900WATRL000000004K00000000000000000020906222015103133S008000000000N84       000020400K 10000000010000001163           
CUS0420690000104168326009         NASIR, M.J.         900 BONAPARTE AVE                       000N        CARE OF             
MTR04206900001000000000000000RA              99292015    005800540000005400000570000003NN  NNW 000                       N    
RDG04206900WATRL000000004K00000000000000000021006222015103135S008000000000N84       000020400K 10000000010000000943           
CUS0420690000104168327007         CALHOUN-LAUARENS, IN2315 CECIL AVE                          000N        CARE OF             
MTR04206900001000000000000000RA              99999999    000100550000005500000620000003NN  NNW 000   VACANT PROPERTY     N    
RDG04206900WATRL000000004K00000000000001269021106222015103143N000000000000N84       000080400K 10000000010000001269           
CUS0420690000104168328005         CALHOUN-LAUARENS, IN2315 CECIL AV REAR                      000N        CARE OF             
MTR04206900001000000000000000RA              99411804    007500560000005600000570000003NY  NNW 000                       N    
MTM0420690099411804    buried                                                                                                 
RDG04206900WATRL000000004K00000000000000000022906222015113636S018000000000N84       010360400K 10000000010000001269           
CUS0420690000104168329003         MAYOR AND CITY COUNC815 E 25TH ST                           000N        CARE OF             
MTR04206900001000000000000000RA              35107279    005800570000005700000520000003NY  NNW 000                       N    
MTM0420690035107279    buried                                                                                                 
RDG04206900WATRL000000004K00000000000000000023006222015113813S018000000000N84       000970400K 10000000010000001835           
CUS0420690000104168332007         CHILDS, GEORGE I    818 BONAPARTE AVE                       000N        CARE OF             
MTR04206900001000000000000000RA              00136874    005800580000005800000570000003NN  NNW 000                       N    
RDG04206900WATRL000000004K00000000000000000021206222015103220S008000000000N84       000370400K 10000000010000000858           
CUS0420690000104168333005         PSRKER, REGINALD    816 BONAPARTE AVE                       000N        CARE OF             
MTR04206900001000000000000000RA              00136872    005800590000005900000570000003NN  NNW 000                       N    
RDG04206900WATRL000000004K00000000000000000021306222015103222S008000000000N84       000020400K 10000000010000001356           
CUS0420690000104168334003         CARPENTER, ANNET    814 BONAPARTE AVE                       000N        CARE OF             
MTR04206900001000000000000000RA              50476074    005800600000006000000520000003NN  NNW 000                       N    
RDG04206900WATRL000000004K00000000000000000021406222015103223S008000000000N84       000010400K 10000000010000002980           
CUS0420690000104168335000         YANNEY, MICHAEL     812 BONAPARTE AVE                       000N        CARE OF             
MTR04206900001000000000000000RA              50476038    005800610000006100000520000003NN  NNW 000                       N    
RDG04206900WATRL000000004K00000000000000000021506222015103225S008000000000N84       000020400K 10000000010000001524           
CUS0420690000104168336008         YANNEY, MICHAEL K   810 BONAPARTE AVE                       000N        CARE OF             
MTR04206900001000000000000000RA              00136871    005800620000006200000570000003NN  NNW 000                       N    
RDG04206900WATRL000000004K00000000000000000021606222015103226S008000000000N84       000010400K 10000000010000000358           
CUS0420690000104168337006         AMERNICK, BERNARD   808 BONAPARTE AVE                       000N        CARE OF             
MTR04206900001000000000000000RA              00136869    005800630000006300000570000003NN  NNW 000   VACANT PROPERTY     N    
RDG04206900WATRL000000004K00000000000000000021706222015103228S008000000000N84       000020400K 10000000010000000501           
CUS0420690000104168338004         DAVENPORT JR., PERRY806 BONAPARTE AVE                       000N        CARE OF             
MTR04206900001000000000000000RA              48592530    005800640000006400000520000003NN  NNW 000   VACANT PROPERTY     N    
RDG04206900WATRL000000004K00000000000000000021806222015103230S008000000000N84       000020400K 10000000010000000001           
CUS0420690000104168339002         AUDREY E HARRIS ETAL804 BONAPARTE AVE                       000N        CARE OF             
MTR04206900001000000000000000RA              01107178    005800650000006500000610000003NN  NNW 000                       N    
RDG04206900WATRL000000004K00000000000000000021906222015103231S008000000000N84       000010400K 10000000010000000500           
CUS0420690000104168340000         STONECREST INCOME AN802 BONAPARTE AVE                       000N        CARE OF             
MTR04206900001000000000000000RA              01076659    005800660000006600000610000003NN  NNW 000                       N    
RDG04206900WATRL000000004K00000000000000000022006222015103233S008000000000N84       000020400K 10000000010000000597           
CUS0420690000104168341008         JOHNSON, BOBBY CORNE800 BONAPARTE AVE                       000N        CARE OF             
MTR04206900001000000000000000RA              01076412    005800670000006700000610000003NN  NNW 000                       N    
RDG04206900WATRL000000004K00000000000000000022106222015103235S008000000000N84       000020400K 10000000010000000551           
CUS0420690000104419894003         JONATHAN MELNICK AUC721 E 25TH ST                           000N        CARE OF             
MTR04206900001000000000000000RA              78027677    007500680000006800000360000003NN  NNW 000                       N    
RDG04206900WATRL000000004K00000000000000000000206222015085111N000000000000N84       002310400K 10000000010000000000           
CUS0420690000104167646001         MILLER-BROTHERS     701-11 E 25TH ST                        000N        CARE OF             
MTR04206900001000000000000000RA              00163466    000100690000006900000570000003NN  NNW 000                       N    
RDG04206900WATRL000000004K00000000000004331000106222015084720N000000000000N84       000000400K 10000000010000004252           
CUS0420690000104167645003         HILTON, JAMES E     701 BONAPARTE AVE                       000N        CARE OF             
MTR04206900001000000000000000RA              99292019    005800700000007000000570000003NN  NNW 000                       N    
RDG04206900WATRL000000004K00000000000000000015606222015102716S008000000000N84       012990400K 10000000010000000728           
CUS0420690000104167644006         FERGUSON SALES CO. I659 E 25TH ST                           000N        CARE OF             
MTR04206900001000000000000000RA              35100860    007500710000007100000520000003NN  NNW 000                       N    
RDG04206900WATRL000000004K00000000000002013000306222015085408N000000000000N84       001770400K 10000000010000002003           
CUS0420690000104167643008         D & D ENGINE REBUILD655 E 25TH ST                           000N        CARE OF             
MTR04206900001000000000000000RA              76347361    005800720000007200000350000003NN  NNW 000                       N    
RDG04206900WATRL000000004K00000000000000008000406222015085505N000100000010N84       000570400K 10000000010000000008           
CUS0420690000104167642000         NEW INNER CITY      645-53 E 25TH ST                        000N        CARE OF             
MTR04206900001000000000000000RA              99999999    005800730000007300000620000003NY  NNW 000                       N    
MTM0420690099999999    38985895                                                                                               
RDG04206900WATRL000000004K00000000000000517000506222015085555N000000000010N84       000500400K 10000000010000000426           
CUS0420690000104167641002         9033 LIBERTY ROAD, L625 E 25TH ST                           000N        CARE OF             
MTR04206900001000000000000000RA              99999999    005800740000007400000620000003NN  NNW 000   VACANT PROPERTY     N    
RDG04206900WATRL000000004K00000000000000485000706222015085754N000000000000N84       000340400K 10000000010000000485           
CUS0420690000104167640004         9033 LIBERTY ROAD, L609 E 25TH ST                           000N        CARE OF             
MTR04206900001000000000000000RA              77889047    005800750000007500000360000003NN  NNW 000                       N    
RDG04206900WATRL000000004K00000000000000002000606222015085720N000000000010N84       000850400K 10000000010000000000           
CUS0420690000104167639006         521-525 E 25TH STREE601-03 E 25TH ST                        000N        CARE OF             
MTR04206900001000000000000000RA              52292709    007500760000007600000520000003NN  NNW 000                       N    
RDG04206900WATRL000000004K00000000000000858000806222015085909N000000000000N84       000750400K 10000000010000000853           
CUS0420690000104167638008         521-525 E 25TH STREE533 E 25TH ST                           000N        CARE OF             
MTR04206900001000000000000000RA              52292394    007500770000007700000520000003NN  NNW 000                       N    
RDG04206900WATRL000000004K00000000000000796022706222015111742N000000000000N84       006830400K 10000000010000000790           
CUS0420690000104384946002         PROJECT PLASE INC   2405 LOCH RAVEN RD                      000N        CARE OF             
MTR04206900001000000000000000RA              14930783    005800780000007800000310000003NN  NNW 000                       N    
RDG04206900WATRL000000004K00000000000000280000906222015090221N000000000000N84       001920400K 10000000010000000268           
CUS0420690000104167637000         JERUSALEM BAPTIST CH2401 LOCH RAVEN RD                      000N        CARE OF             
MTR04206900001000000000000000RA              30000646    007500790000007900000570000003NN  NNW 000                       N    
RDG04206900WATRL000000004K00000000000000299001006222015090549N000400000020N84       002080400K 10000000010000000291           
CUS0420690000104167636002         P. FLANIGAN & SONS, 2400 LOCH RAVEN RD                      000N        CARE OF             
MTR04206900001000000000000000RA              35102443    005800800000008000000520000003NN  NNW 000   VACANT PROPERTY     N    
RDG04206900WATRL000000004K00000000000001974001106222015090556N000000000000N84       000070400K 10000000010000001974           
CUS0420690000104167635004         LOCH RAVEN INVESTMEN2402 LOCH RAVEN RD                      000N        CARE OF             
MTR04206900001000000000000000RA              35115067    005800810000008100000520000003NN  NNW 000   VACANT PROPERTY     N    
RDG04206900WATRL000000004K00000000000000717001206222015090559N000000000000N84       000030400K 10000000010000000717           
CUS0420690000104167634007         LOCH RAVEN INVESTMEN2404 LOCH RAVEN RD                      000N        CARE OF             
MTR04206900001000000000000000RA              35103074    005800820000008200000520000003NN  NNW 000                       N    
RDG04206900WATRL000000004K00000000000002922001306222015090606N000000000000N84       000070400K 10000000010000002922           
CUS0420690000104167632001         THELMA MULLINS      2408 LOCH RAVEN RD                      000N        CARE OF             
MTR04206900001000000000000000RA              10021045    005800830000008300000570000003NN  NNW 000                       N    
RDG04206900WATRL000000004K00000000000000104001406222015090637N000000000010N84       000310400K 10000000010000000099           
CUS0420690000104167631003         P FLANIGAN & SONS, I2410 LOCH RAVEN RD                      000N        CARE OF             
MTR04206900001000000000000000RA              24226440    005800840000008400000520000003NN  NNW 000                       N    
RDG04206900WATRL000000004K00000000000002573001506222015090643N000000000000N84       000060400K 10000000010000002573           
CUS0420690000104167630005         LOCH RAVEN INVESTMEN2412 LOCH RAVEN RD                      000N        CARE OF             
MTR04206900001000000000000000RA              99999999    005800850000008500000620000003NN  NNW 000   VACANT PROPERTY     N    
RDG04206900WATRL000000004K00000000000001936001606222015090645N000000000000N84       000020400K 10000000010000001936           
CUS0420690000104167629007         AKINYEMI, JOHN A    2414 LOCH RAVEN RD                      000N        CARE OF             
MTR04206900001000000000000000RA              35103077    005800860000008600000520000003NN  NNW 000   VACANT PROPERTY     N    
RDG04206900WATRL000000004K00000000000002895001706222015090710N000000000000N84       000250400K 10000000010000002895           
CUS0420690000104167628009         MCKESSON, SARAH     2416 LOCH RAVEN RD                      000N        CARE OF             
MTR04206900001000000000000000RA              35103078    005800870000008700000520000003NN  NNW 000                       N    
RDG04206900WATRL000000004K00000000000003243001806222015090742N000000000000N84       000320400K 10000000010000003233           
CUS0420690000104167627001         P. FLANIGAN AND SONS2418 LOCH RAVEN RD                      000N        CARE OF             
MTR04206900001000000000000000RA              99289499    005800880000008800000570000003NN  NNW 000                       N    
RDG04206900WATRL000000004K00000000000000909001906222015090818N000100000020N84       000360400K 10000000010000000909           
CUS0420690000104167626003         LOCH RAVEN INVESTMEN2420 LOCH RAVEN RD                      000N        CARE OF             
MTR04206900001000000000000000RA              99999999    005800890000008900000620000003NN  NNW 000   VACANT PROPERTY     N    
RDG04206900WATRL000000004K00000000000001180002006222015090827N000000000000N84       000090400K 10000000010000001180           
CUS0420690000104167625005         P. FLANIGAN & SONS, 2422 LOCH RAVEN RD                      000N        CARE OF             
MTR04206900001000000000000000RA              35103070    005800900000009000000520000003NN  NNW 000                       N    
RDG04206900WATRL000000004K00000000000004285002106222015090835N000000000000N84       000080400K 10000000010000004285           
CUS0420690000104167531005         BOGUSH, YEKATERINA  525 E 21ST ST                           000N        CARE OF             
MTR04206900001000000000000000RA              30001251    007500910000009100000570000003NN  NNW 000                       N    
RDG04206900WATRL000000004K00000000000000000022506222015110244S063000000000N84       005540400K 10000000010000000152           
CUS0420690000104167623000         PATRICK FLANIGAN SON2434 LOCH RAVEN RD                      000N        CARE OF             
MTR04206900001000000000000000RA              30032407    000100920000009200000520000003NN  NNW 000                       N    
RDG04206900WATRL000000004K00000000000000367022306222015104916N000000000000N84       002250400K 10000000010000000307           
CUS0420690000104167620006         521-525 E 25TH STREE521-25 E 25TH ST                        000N        CARE OF             
MTR04206900001000000000000000RA              46890498    007500930000009300000520000003NY  NNW 000                       N    
MTM0420690046890498    paved over                                                                                             
RDG04206900WATRL000000004K00000000000000000022806222015111920S018000000010N84       000980400K 10000000010000001595           
CUS0420690000104369029006         BOODOO, RONNIE      521 E 20TH ST                           000N        CARE OF             
MTR04206900001000000000000000RA              14922309    005800940000009400000310000003NN  NNW 000                       N    
RDG04206900WATRL000000004K00000000000000673022606222015110619N000000000000N84       002150400K 10000000010000000639           
CUS0420690000104167619008         P. FLANIGAN AND SONS519 E 25TH ST                           000N        CARE OF             
MTR04206900001000000000000000RA              99187699    005800950000009500000570000003NN  NNW 000                       N    
RDG04206900WATRL000000004K00000000000001185022406222015105330N000000000000N84       002540400K 10000000010000001177           
CUS0420690000103440974008         PIZZA DEAL          519 E 25TH ST                           000N        CARE OF             
MTR04206900001000000000000000RA              99999999    005800960000009600000680000000NN  NNW 000                       N    
RDG04206900WATRL000000004K00000000000000000002506222015091614N000000000000N84       000260400K 10000000010000000000           
CUS0420690000104167618000         BROOKS, JAMES K     515 E 25TH ST                           000N        CARE OF             
MTR04206900001000000000000000RA              01076413    005800970000009700000610000003NN  NNW 000   VACANT PROPERTY     N    
RDG04206900WATRL000000004K00000000000000802002206222015091433N000000000000N84       003580400K 10000000010000000802           
CUS0420690000104167617002         KIM, DONG           509-11 E 25TH ST                        000N        CARE OF             
MTR04206900001000000000000000RA              01097821    005800980000009800000610000003NN  NNW 000                       N    
RDG04206900WATRL000000004K00000000000001432002306222015091509N000000000000N84       000360400K 10000000010000001413           
CUS0420690000104167616004         GREEN SQUARE PROPERT2435-41 GREENMOUNT AVE                  000N        CARE OF             
MTR04206900001000000000000000RA              48589793    005800990000009900000520000003NN  NNW 000                       N    
RDG04206900WATRL000000004K00000000000000503002406222015091548N000000000000N84       000390400K 10000000010000000500           
CUS0420690000104167613001         NEW LIGHT, LLC      2425 GREENMOUNT AVE                     000N        CARE OF             
MTR04206900001000000000000000RA              14915136    005801000000010000000310000003NN  NNW 000                       N    
RDG04206900WATRL000000004K00000000000001210002606222015091657N000400000010N84       000430400K 10000000010000001195           
CUS0420690000104167612003         GMT PROPERTIES, LLC 2419-21 GREENMOUNT AVE                  000N        CARE OF             
MTR04206900001000000000000000RA              27775134    000101010000010100000520000003NN  NNW 000                       N    
RDG04206900WATRL000000004K00000000000005107002706222015091747N000000000000N84       000500400K 10000000010000004974           
CUS0420690000104167610007         GMT PROPERTIES, LLC 2415 GREENMOUNT AVE                     000N        CARE OF             
MTR04206900001000000000000000RA              76349490    007501020000010200000350000003NN  NNW 000                       N    
RDG04206900WATRL000000004K00000000000000477002806222015091843N000400000010N84       000560400K 10000000010000000407           
CUS0420690000104167609009         GMT PROPERTIES, LLC 2413 GREENMOUNT AVE                     000N        CARE OF             
MTR04206900001000000000000000RA              30001221    007501030000010300000570000003NN  NNW 000                       N    
RDG04206900WATRL000000004K00000000000001278002906222015091907N000000000000N84       000240400K 10000000010000001162           
CUS0420690000104167608001         YOUSAF, SHAKEEL     2407 GREENMOUNT AVE                     000N        CARE OF             
MTR04206900001000000000000000RA              33181131    007501040000010400000520000003NN  NNW 000   VACANT PROPERTY     N    
RDG04206900WATRL000000004K00000000000003230003006222015091913N000000000000N84       000060400K 10000000010000003230           
CUS0420690000104167607003         MOON, MIN HO        2405 GREENMOUNT AVE                     000N        CARE OF             
MTR04206900001000000000000000RA              36699470    007501050000010500000520000003NN  NNW 000                       N    
RDG04206900WATRL000000004K00000000000004317003106222015092004N000000000000N84       000510400K 10000000010000004311           
CUS0420690000104167606005         YUFENG JIANG        2401-03 GREENMOUNT AVE                  000N        CARE OF             
MTR04206900001000000000000000RA              14928271    007501060000010600000310000003NN  NNW 000                       N    
RDG04206900WATRL000000004K00000000000000327003206222015092028N000000000010N84       000240400K 10000000010000000327           
CUS0420690000104167600008         BUREAU OF PARKS     2313 GREENMOUNT AVE                     000N        CARE OF             
MTR04206900001000000000000000RA              50384564    000101070000010700000520000003NN  NNW 000                       N    
RDG04206900WATRL000000004K00000000000002168003306222015092151N000000000000N84       000830400K 10000000010000002168           
CUS0420690000104167595000         CHUK TSE            500 E 23RD ST                           000N        CARE OF             
MTR04206900001000000000000000RA              30248878    007501080000010800000520000003NN  NNW 000                       N    
RDG04206900WATRL000000004K00000000000006178003406222015092241N000000000000N84       000500400K 10000000010000006167           
CUS0420690000104167593005         SAINT ANN'S ROMAN CA2201 GREENMOUNT AVE                     000N        CARE OF             
MTR04206900001000000000000000RA              01105059    001501090000010900000610000003NN  NNW 000   VACANT PROPERTY     N    
RDG04206900WATRL000000005K00000000000000000003506222015092252N000000000000N84       000110500K 10000000010000000000           
CUS0420690000104167591009         P&W PROPERTIES, INC.2113 GREENMOUNT AVE                     000N        CARE OF             
MTR04206900001000000000000000RA              26375975    007501100000011000000520000003NN  NNW 000   VACANT PROPERTY     N    
RDG04206900WATRL000000004K00000000000001352003606222015092255N000000000000N84       000030400K 10000000010000001352           
CUS0420690000104167590001         SHEENA SMITH ETAL   2111 GREENMOUNT AVE                     000N        CARE OF             
MTR04206900001000000000000000RA              77888277    005801110000011100000360000003NN  NNW 000                       N    
RDG04206900WATRL000000004K00000000000000000007206222015093647N000000000000N84       001580400K 10000000010000000000           
CUS0420690000104167589003         MICHAEL ONYENZE     2109 GREENMOUNT AVE                     000N        CARE OF             
MTR04206900001000000000000000RA              00136063    005801120000011200000570000003NN  NNW 000   VACANT PROPERTY     N    
RDG04206900WATRL000000004K00000000000000350007306222015093701N000000000000N84       000140400K 10000000010000000350           
CUS0420690000104167588005         ETERNAL SACRED ORDER2103-07 GREENMOUNT AVE                  000N        CARE OF             
MTR04206900001000000000000000RA              36699471    007501130000011300000520000003NN  NNW 000                       N    
RDG04206900WATRL000000004K00000000000005067007406222015093739N000400000010N84       000380400K 10000000010000005039           
CUS0420690000104167587007         PORT HOMES,LLC      2101 GREENMOUNT AVE                     000N        CARE OF             
MTR04206900001000000000000000RA              14916120    005801140000011400000310000003NN  NNW 000                       N    
RDG04206900WATRL000000004K00000000000000000007506222015093746N000000000000N84       000070400K 10000000010000000000           
CUS0420690000104167584004         HAIRSTON, BARBARA   2009 GREENMOUNT AVE                     000N        CARE OF             
MTR04206900001000000000000000RA              7203436     005801150000011500000580000003NN  NNW 000                       N    
RDG04206900WATRL000000004K00000000000001536009306222015094325N000000000000N84       000470400K 10000000010000001536           
CUS0420690000104167583006         MAYOR AND CITY COUNC2007 GREENMOUNT AVE                     000N        CARE OF             
MTR04206900001000000000000000RA              99999999    005801160000011600000620000003NN  NNW 000   FERRULE APPLIED     N    
RDG04206900WATRL000000004K00000000000002158009406222015094328N000000000000N84       000030400K 10000000010000002158           
CUS0420690000104167581000         BACON, BERNARD C  (T2003 GREENMOUNT AVE                     000N        CARE OF             
MTR04206900001000000000000000RA              01076414    005801170000011700000610000003NN  NNW 000                       N    
RDG04206900WATRL000000004K00000000000000803009506222015094344N000000000000N84       000160400K 10000000010000000802           
CUS0420690000104167580002         LEE, GEORGE         2001 GREENMOUNT AVE                     000N        CARE OF             
MTR04206900001000000000000000RA              99999999    007501180000011800000620000003NN  NNW 000   VACANT PROPERTY     N    
RDG04206900WATRL000000004K00000000000002563009606222015094347N000000000000N84       000030400K 10000000010000002563           
CUS0420690000104167579004         BARRY & BARRY ENTERP1917 GREENMOUNT AVE                     000N        CARE OF             
MTR04206900001000000000000000RA              00119749    007501190000011900000570000003NN  NNW 000   VACANT PROPERTY     N    
RDG04206900WATRL000000004K00000000000000167009706222015094351N000000000000N84       000040400K 10000000010000000167           
CUS0420690000104167578006         IM, SEUNG S         1913-15 GREENMOUNT AVE                  000N        CARE OF             
MTR04206900001000000000000000RA              44030502    007501200000012000000520000003NN  NNW 000                       N    
RDG04206900WATRL000000004K00000000000001015009806222015094520N000000000000N84       000890400K 10000000010000001001           
CUS0420690000104167576000         BARRY CULMER        1909 GREENMOUNT AVE                     000N        CARE OF             
MTR04206900001000000000000000RA              14908038    005801210000012100000310000003NN  NNW 000                       N    
RDG04206900WATRL000000004K00000000000000000009906222015094537S063000000000N84       000170400K 10000000010000000230           
CUS0420690000104374326009         TEMPEST, LLC        1907 GREENMOUNT AVE                     000N        CARE OF             
MTR04206900001000000000000000RA              10005775    005801220000012200000570000003NN  NNW 000   VACANT PROPERTY     N    
RDG04206900WATRL000000004K00000000000000000010006222015094640N000000000000N84       000630400K 10000000010000000000           
CUS0420690000104167575002         AN, BYONG WOOK      500 E NORTH AVE                         000N        CARE OF             
MTR04206900001000000000000000RA              43904949    007501230000012300000520000003NN  NNW 000                       N    
RDG04206900WATRL000000004K00000000000001229010106222015094702N000000000000N84       000220400K 10000000010000001199           
CUS0420690000104167574005         MAYOR AND CITY COUNC502-04 E NORTH AVE                      000N        CARE OF             
MTR04206900001000000000000000RA              99999999    007501240000012400000620000003NN  NNW 000                       N    
RDG04206900WATRL000000004K00000000000000479010206222015094738N000000000000N84       000360400K 10000000010000000479           
CUS0420690000104167573007         BROWN, STANFORD L (L506 E NORTH AVE                         000N        CARE OF             
MTR04206900001000000000000000RA              14918542    007501250000012500000310000003NN  NNW 000   VACANT PROPERTY     N    
RDG04206900WATRL000000004K00000000000000767010306222015094743N000000000000N84       000050400K 10000000010000000767           
CUS0420690000104383729003         TEE REE REALTY, LLC 508 E NORTH AVE                         000N        CARE OF             
MTR04206900001000000000000000RA              00137551    005801260000012600000570000003NN  NNW 000   VACANT PROPERTY     N    
RDG04206900WATRL000000004K00000000000001608010406222015094749N000000000000N84       000060400K 10000000010000001608           
CUS0420690000104373251000         THOMAS, SUSAN C     510 E NORTH AVE                         000N        CARE OF             
MTR04206900001000000000000000RA              45380362    005801270000012700000520000003NN  NNW 000                       N    
RDG04206900WATRL000000004K00000000000003926010506222015094907N000000000011N84       000240400K 10000000010000003891           
CUS0420690000104167572009         BILLY, ANDREA       512 E NORTH AVE                         000N        CARE OF             
MTR04206900001000000000000000RA              43904143    007501280000012800000520000003NN  NNW 000                       N    
RDG04206900WATRL000000004K00000000000004908010606222015094843N000000000000N84       000150400K 10000000010000004897           
CUS0420690000104167571001         HOME OPPORTUNITY, LL514 E NORTH AVE                         000N        CARE OF             
MTR04206900001000000000000000RA              99080203    007501290000012900000570000003NN  NNW 000                       N    
RDG04206900WATRL000000004K00000000000004153010706222015094921N000000000000N84       000140400K 10000000010000004140           
CUS0420690000104167570003         JOYNER-EL, LARRY ANT516 E NORTH AVE                         000N        CARE OF             
MTR04206900001000000000000000RA              45389211    007501300000013000000520000003NN  NNW 000                       N    
RDG04206900WATRL000000004K00000000000001970010806222015094939N000400000010N84       000180400K 10000000010000001966           
CUS0420690000104167569005         WILLIAMS, CARLOS    518 E NORTH AVE                         000N        CARE OF             
MTR04206900001000000000000000RA              14928269    007501310000013100000310000003NN  NNW 000                       N    
RDG04206900WATRL000000004K00000000000000127010906222015095008N000000000000N84       000290400K 10000000010000000127           
CUS0420690000104167568007         MEHTA, SAMIR        520 E NORTH AVE                         000N        CARE OF             
MTR04206900001000000000000000RA              00120025    007501320000013200000570000003NN  NNW 000                       N    
RDG04206900WATRL000000004K00000000000000334011006222015095028N000400000010N84       000200400K 10000000010000000331           
CUS0420690000104383730001         JONES, SHANG        522 E NORTH AVE                         000N        CARE OF             
MTR04206900001000000000000000RA              48588721    005801330000013300000520000000NN  NNW 000                       N    
RDG04206900WATRL000000004K00000000000004422011106222015095043N000000000000N84       000150400K 10000000010000004401           
CUS0420690000104367497007         KEYS TO WEALTH LIMIT526 E NORTH AVE                         000N        CARE OF             
MTR04206900001000000000000000RA              10004684    005801340000013400000570000003NN  NNW 000                       N    
RDG04206900WATRL000000004K00000000000000095011206222015095048N000000000000N84       000050400K 10000000010000000095           
CUS0420690000104367493006         DRAWBRIDGE LLC.     528 E NORTH AVE                         000N        CARE OF             
MTR04206900001000000000000000RA              43905408    007501350000013500000520000000NN  NNW 000   VACANT PROPERTY     N    
RDG04206900WATRL000000004K00000000000000595011306222015095050N000000000000N84       000020400K 10000000010000000595           
CUS0420690000104373252008         KENNETH B MAUMAW    532 E NORTH AVE                         000N        CARE OF             
MTR04206900001000000000000000RA              39585921    005801360000013600000520000003NN  NNW 000   VACANT PROPERTY     N    
RDG04206900WATRL000000004K00000000000004655011406222015095056N000000000000N84       000060400K 10000000010000004655           
CUS0420690000104167566001         BERKELEY S THOMPSON 534 E NORTH AVE                         000N        CARE OF             
MTR04206900001000000000000000RA              99999999    007501370000013700000620000003NN  NNW 000                       N    
RDG04206900WATRL000000004K00000000000005784011506222015095059N000000000000N84       000030400K 10000000010000005784           
CUS0420690000104167565003         LUCAS, YVONNE       1900 BOONE ST                           000N        CARE OF             
MTR04206900001000000000000000RA              30002299    007501380000013800000570000003NN  NNW 000                       N    
RDG04206900WATRL000000004K00000000000000261011606222015095155N000400000010N84       000560400K 10000000010000000222           
CUS0420690000104167564006         SAUNDERS, KAREN L   1902 BOONE ST                           000N        CARE OF             
MTR04206900001000000000000000RA              36699323    007501390000013900000520000003NN  NNW 000                       N    
RDG04206900WATRL000000004K00000000000003878011706222015095211N000400000010N84       000160400K 10000000010000003873           
CUS0420690000104167563008         JESSIE C FLOOD      1904 BOONE ST                           000N        CARE OF             
MTR04206900001000000000000000RA              30000432    007501400000014000000570000003NN  NNW 000                       N    
RDG04206900WATRL000000004K00000000000000111011806222015095246N000000000000N84       000350400K 10000000010000000107           
CUS0420690000104167561002         MITCHELL, LEWIS     1908 BOONE ST                           000N        CARE OF             
MTR04206900001000000000000000RA              14910331    005801410000014100000310000003NN  NNW 000                       N    
RDG04206900WATRL000000004K00000000000000248011906222015095304N000400000010N84       000180400K 10000000010000000243           
CUS0420690000104167560004         CAROLYN CLARK       1910 BOONE ST                           000N        CARE OF             
MTR04206900001000000000000000RA              14925523    005801420000014200000310000003NN  NNW 000                       N    
RDG04206900WATRL000000004K00000000000000377012006222015095318N000000000000N84       000140400K 10000000010000000367           
CUS0420690000104167559006         JP MORGAN CHASE BANK533 E 20TH ST                           000N        CARE OF             
MTR04206900001000000000000000RA              01098772    007501430000014300000610000003NN  NNW 000                       N    
RDG04206900WATRL000000004K00000000000000077012106222015095349N000000000000N84       000310400K 10000000010000000077           
CUS0420690000104167558008         NEIGHBORHOOD PROPERT531 E 20TH ST                           000N        CARE OF             
MTR04206900001000000000000000RA              46890665    007501440000014400000520000003NN  NNW 000   VACANT PROPERTY     N    
RDG04206900WATRL000000004K00000000000001894012206222015095351N000000000000N84       000020400K 10000000010000001894           
CUS0420690000104357310004         BAUGH ETAL, JOHN D  527 E 20TH ST                           000N        CARE OF             
MTR04206900001000000000000000RA              78022921    005801450000014500000360000003NN  NNW 000                       N    
RDG04206900WATRL000000004K00000000000000007012306222015095424N000000000010N84       000330400K 10000000010000000000           
CUS0420690000104167557000         BOODOO, RONNIE      523 E 20TH ST                           000N        CARE OF             
MTR04206900001000000000000000RA              00120340    007501460000014600000570000003NN  NNW 000   VACANT PROPERTY     N    
RDG04206900WATRL000000004K00000000000000000012406222015095426N000000000000N84       000020400K 10000000010000000000           
CUS0420690000104167553009         NRK DEVELOPMENT & TR505 E 20TH ST                           000N        CARE OF             
MTR04206900001000000000000000RA              26375601    007501470000014700000520000003NN  NNW 000   VACANT PROPERTY     N    
RDG04206900WATRL000000004K00000000000002492012506222015095432N000000000000N84       000060400K 10000000010000002492           
CUS0420690000104167552001         CHO, YUNG SOO       501 E 20TH ST                           000N        CARE OF             
MTR04206900001000000000000000RA              10005640    005801480000014800000570000003NN  NNW 000                       N    
RDG04206900WATRL000000004K00000000000001241012606222015095441N000000000000N84       000090400K 10000000010000001241           
CUS0420690000104167551003         HABC                500 E 20TH ST                           000N        CARE OF             
MTR04206900001000000000000000RA              99411361    007501490000014900000570000003NN  NNW 000                       N    
RDG04206900WATRL000000004K00000000000000667012706222015095446N000000000000N84       000050400K 10000000010000000667           
CUS0420690000104168133009         AFRAMIAN, SHANA     503 E 23RD ST                           000N        CARE OF             
MTR04206900001000000000000000RA              99291546    005801500000015000000570000003NN  NNW 000                       N    
RDG04206900WATRL000000004K00000000000002674022206222015104531N000000000010N84       007760400K 10000000010000002632           
CUS0420690000104167543000         M MACKLIN           526 E 20TH ST                           000N        CARE OF             
MTR04206900001000000000000000RA              99999999    007501510000015100000620000003NN  NNW 000                       N    
RDG04206900WATRL000000004K00000000000003088008506222015094056N000000000000N84       000030400K 10000000010000003088           
CUS0420690000104167542002         GTRSADEK, HAILU     528 E 20TH ST                           000N        CARE OF             
MTR04206900001000000000000000RA              99999999    007501520000015200000620000003NN  NNW 000   VACANT PROPERTY     N    
RDG04206900WATRL000000004K00000000000000000008406222015094053N000000000000N84       000020400K 10000000010000000000           
CUS0420690000104167541004         MORRIS, CHRISTOPHER 532 E 20TH ST                           000N        CARE OF             
MTR04206900001000000000000000RA              99999999    007501530000015300000620000003NN  NNW 000                       N    
RDG04206900WATRL000000004K00000000000001360008306222015094051N000000000000N84       000590400K 10000000010000001360           
CUS0420690000104167540006         KENNETH COLEMAN     2000 BOONE ST                           000N        CARE OF             
MTR04206900001000000000000000RA              45388057    007501540000015400000520000003NN  NNW 000   VACANT PROPERTY     N    
RDG04206900WATRL000000004K00000000000003116012806222015095523N000000000000N84       000370400K 10000000010000003116           
CUS0420690000104167539008         SATELLITE PROPERTIES2002 BOONE ST                           000N        CARE OF             
MTR04206900001000000000000000RA              10006192    005801550000015500000570000003NN  NNW 000                       N    
RDG04206900WATRL000000004K00000000000000781012906222015095550N000000000000N84       000270400K 10000000010000000747           
CUS0420690000104167538000         H JOHNSON ETAL      2004 BOONE ST                           000N        CARE OF             
MTR04206900001000000000000000RA              00119047    007501560000015600000570000003NN  NNW 000                       N    
RDG04206900WATRL000000004K00000000000001605013006222015095625N000000000000N84       000350400K 10000000010000001569           
CUS0420690000104167537002         MARVIN GRIFFIN      2006 BOONE ST                           000N        CARE OF             
MTR04206900001000000000000000RA              33416911    007501570000015700000520000003NN  NNW 000   VACANT PROPERTY     N    
RDG04206900WATRL000000004K00000000000004805013106222015095628N000000000000N84       000030400K 10000000010000004805           
CUS0420690000104167536004         PERLINA DOVE        2008 BOONE ST                           000N        CARE OF             
MTR04206900001000000000000000RA              99999999    007501580000015800000620000003NN  NNW 000   VACANT PROPERTY     N    
RDG04206900WATRL000000004K00000000000000095013206222015095632N000000000000N84       000040400K 10000000010000000095           
CUS0420690000104167535006         NANETTE TURNER      2010 BOONE ST                           000N        CARE OF             
MTR04206900001000000000000000RA              00119003    007501590000015900000570000003NN  NNW 000                       N    
RDG04206900WATRL000000004K00000000000001781013306222015095704N000000000010N84       000320400K 10000000010000001748           
CUS0420690000104167529009         TYRONE CORPREW      521 E 21ST ST                           000N        CARE OF             
MTR04206900001000000000000000RA              99999999    007501600000016000000620000003NN  NNW 000   VACANT PROPERTY     N    
RDG04206900WATRL000000004K00000000000000586008206222015093952N000000000000N84       000020400K 10000000010000000586           
CUS0420690000104167528001         GLADYS E JOHNS      519 E 21ST ST                           000N        CARE OF             
MTR04206900001000000000000000RA              43905300    007501610000016100000520000003NN  NNW 000                       N    
RDG04206900WATRL000000004K00000000000001547008106222015093950N000000000000N84       000100400K 10000000010000001537           
CUS0420690000104167527003         TORAIN, TRAVIS O.   517 E 21ST ST                           000N        CARE OF             
MTR04206900001000000000000000RA              30249168    007501620000016200000520000003NN  NNW 000                       N    
RDG04206900WATRL000000004K00000000000001758008006222015093940N000000000000N84       000160400K 10000000010000001735           
CUS0420690000104167526005         400 BUSINESS TRUST  515 E 21ST ST                           000N        CARE OF             
MTR04206900001000000000000000RA              99999999    007501630000016300000620000003NN  NNW 000   VACANT PROPERTY     N    
RDG04206900WATRL000000004K00000000000000274007906222015093924N000000000000N84       000030400K 10000000010000000274           
CUS0420690000104167525007         ROBERT L. MASIMORE  513 E 21ST ST                           000N        CARE OF             
MTR04206900001000000000000000RA              00117671    007501640000016400000570000003NN  NNW 000                       N    
RDG04206900WATRL000000004K00000000000000453007806222015093921N000000000000N84       000220400K 10000000010000000453           
CUS0420690000104167521006         HANIFAH HUSAIN      505 E 21ST ST                           000N        CARE OF             
MTR04206900001000000000000000RA              36699306    007501650000016500000520000003NN  NNW 000                       N    
RDG04206900WATRL000000004K00000000000003225007706222015093859N000000000000N84       000130400K 10000000010000003210           
CUS0420690000104167520008         DWAYNE PUNCH        503 E 21ST ST                           000N        CARE OF             
MTR04206900001000000000000000RA              36699310    007501660000016600000520000003NN  NNW 000   VACANT PROPERTY     N    
RDG04206900WATRL000000004K00000000000008874007606222015093846N000000000000N84       000600400K 10000000010000008874           
CUS0420690000104167518002         HABC/RH             500 E 21ST ST                           000N        CARE OF             
MTR04206900001000000000000000RA              31937598    007501670000016700000520000003NN  NNW 000                       N    
RDG04206900WATRL000000004K00000000000007526009206222015094238N000000000000N84       000040400K 10000000010000007526           
CUS0420690000104167517004         EVANS, CARL         502 E 21ST ST                           000N        CARE OF             
MTR04206900001000000000000000RA              99999999    007501680000016800000620000003NN  NNW 000   FERRULE APPLIED     N    
RDG04206900WATRL000000004K00000000000001136009106222015094234N000000000000N84       000030400K 10000000010000001136           
CUS0420690000104167516006         WILLIAMS MICHELLE   504 E 21ST ST                           000N        CARE OF             
MTR04206900001000000000000000RA              00117705    007501690000016900000570000003NN  NNW 000                       N    
RDG04206900WATRL000000004K00000000000001293009006222015094231N000000000000N84       000200400K 10000000010000001268           
CUS0420690000104167515008         MAHON, TIM          506 E 21ST ST                           000N        CARE OF             
MTR04206900001000000000000000RA              99376327    007501700000017000000570000003NN  NNW 000   VACANT PROPERTY     N    
RDG04206900WATRL000000004K00000000000002437008906222015094211N000000000000N84       000060400K 10000000010000002437           
CUS0420690000104167512005         HABC                512 E 21ST ST                           000N        CARE OF             
MTR04206900001000000000000000RA              00117706    007501710000017100000570000003NN  NNW 000                       N    
RDG04206900WATRL000000004K00000000000002245008806222015094205N000000000000N84       000220400K 10000000010000002179           
CUS0420690000104167511007         HENIN, BERK         514 E 21ST ST                           000N        CARE OF             
MTR04206900001000000000000000RA              35105206    007501720000017200000520000003NN  NNW 000   VACANT PROPERTY     N    
RDG04206900WATRL000000004K00000000000004769008706222015094143N000000000000N84       000150400K 10000000010000004769           
CUS0420690000104167503004         HINES, CRYSTAL F    530 E 21ST ST                           000N        CARE OF             
MTR04206900001000000000000000RA              99999999    007501730000017300000570000003NN  NNW 000                       N    
RDG04206900WATRL000000004K00000000000000000008606222015094128N000000000000N84       000320400K 10000000010000000000           
CUS0420690000104167502006         MAYOR AND CITY COUNC2100 BOONE ST                           000N        CARE OF             
MTR04206900001000000000000000RA              99999999    007501740000017400000620000003NN  NNW 000   FERRULE APPLIED     N    
RDG04206900WATRL000000004K00000000000000000013406222015095808N000000000000N84       000640400K 10000000010000000000           
CUS0420690000104167500000         MAYOR AND CITY COUNC2104 BOONE ST                           000N        CARE OF             
MTR04206900001000000000000000RA              24624636    007501750000017500000520000003NN  NNW 000                       N    
RDG04206900WATRL000000004K00000000000008845013506222015095811N000000000000N84       000030400K 10000000010000008845           
CUS0420690000104167496001         EDWARDS, DERYCK C   527 E 22ND ST                           000N        CARE OF             
MTR04206900001000000000000000RA              41193852    007501760000017600000520000003NN  NNW 000   VACANT PROPERTY     N    
RDG04206900WATRL000000004K00000000000003245013606222015095815N000000000000N84       000040400K 10000000010000003245           
CUS0420690000104167495003         KING, MINNYE L      525 E 22ND ST                           000N        CARE OF             
MTR04206900001000000000000000RA              25591852    007501770000017700000520000003NN  NNW 000                       N    
RDG04206900WATRL000000004K00000000000002845013706222015095934N000100000010N84       000790400K 10000000010000002845           
CUS0420690000104167494006         IVERY, KENNETH      523 E 22ND ST                           000N        CARE OF             
MTR04206900001000000000000000RA              52292848    007501780000017800000520000003NN  NNW 000   VACANT PROPERTY     N    
RDG04206900WATRL000000004K00000000000002420013806222015095937N000000000000N84       000030400K 10000000010000002420           
CUS0420690000104167493008         MAY WRIGHT          521 E 22ND ST                           000N        CARE OF             
MTR04206900001000000000000000RA              00117702    007501790000017900000570000003NN  NNW 000                       N    
RDG04206900WATRL000000004K00000000000002078013906222015095956N000000000000N84       000190400K 10000000010000002058           
CUS0420690000104167492000         CARROLL, LINDA   (LI519 E 22ND ST                           000N        CARE OF             
MTR04206900001000000000000000RA              99999999    007501800000018000000620000003NN  NNW 000   VACANT PROPERTY     N    
RDG04206900WATRL000000004K00000000000001667014006222015100022N000000000000N84       000260400K 10000000010000001667           
CUS0420690000104167491002         PANKEY, MYRTLE      517 E 22ND ST                           000N        CARE OF             
MTR04206900001000000000000000RA              00117701    007501810000018100000570000003NN  NNW 000                       N    
RDG04206900WATRL000000004K00000000000000550014106222015100044N000000000000N84       000220400K 10000000010000000550           
CUS0420690000104167489006         STEWART, GLORIA     513 E 22ND ST                           000N        CARE OF             
MTR04206900001000000000000000RA              00117703    007501820000018200000570000003NN  NNW 000                       N    
RDG04206900WATRL000000004K00000000000001165014206222015100106N000000000010N84       000220400K 10000000010000001155           
CUS0420690000104167487000         MICHAEL FARABAUGH II509 E 22ND ST                           000N        CARE OF             
MTR04206900001000000000000000RA              30001911    007501830000018300000570000003NN  NNW 000                       N    
RDG04206900WATRL000000004K00000000000000552014306222015100139N000000000000N84       000330400K 10000000010000000501           
CUS0420690000104167485004         WASHINGTON, DORIS   505 E 22ND ST                           000N        CARE OF             
MTR04206900001000000000000000RA              39256816    007501840000018400000520000003NN  NNW 000   VACANT PROPERTY     N    
RDG04206900WATRL000000004K00000000000000499014406222015100143N000000000000N84       000040400K 10000000010000000499           
CUS0420690000104434590008         SAINT ANN'S ROMAN CA528 E 22ND ST                           000N        CARE OF             
MTR04206900001000000000000000RA              00118105    007501850000018500000570000000NN  NNW 000                       N    
RDG04206900WATRL000000004K00000000000000852014506222015100322N000000000000N84       000990400K 10000000010000000852           
CUS0420690000104168166009         REV MICHAEL J CURLEY530 E 22ND ST                           000N        CARE OF             
MTR04206900001000000000000000RA              33731856    007501860000018600000520000003NN  NNW 000                       N    
RDG04206900WATRL000000004K00000000000001639014606222015100347N000000000000N84       000250400K 10000000010000001634           
CUS0420690000104168165001         MATTHEWS, PAUL      532 E 22ND ST                           000N        CARE OF             
MTR04206900001000000000000000RA              31086159    007501870000018700000520000003NN  NNW 000                       N    
RDG04206900WATRL000000004K00000000000003993014706222015100405N000000000000N84       000180400K 10000000010000003988           
CUS0420690000104168164004         PIERRO, MICHAEL J.  534 E 22ND ST                           000N        CARE OF             
MTR04206900001000000000000000RA              01098355    007501880000018800000610000003NN  NNW 000   VACANT PROPERTY     N    
RDG04206900WATRL000000004K00000000000000064014806222015100413N000000000000N84       000080400K 10000000010000000064           
CUS0420690000104168163006         WONG, CHUN KUEN     536 E 22ND ST                           000N        CARE OF             
MTR04206900001000000000000000RA              44030101    007501890000018900000520000003NN  NNW 000                       N    
RDG04206900WATRL000000004K00000000000001910014906222015100427N000000000000N84       000140400K 10000000010000001860           
CUS0420690000104168162008         PEOPLE'S HOMESSTEADI538 E 22ND ST                           000N        CARE OF             
MTR04206900001000000000000000RA              33731478    007501900000019000000520000003NN  NNW 000   VACANT PROPERTY     N    
RDG04206900WATRL000000004K00000000000001681015006222015100430N000000000000N84       000030400K 10000000010000001681           
CUS0420690000104168161000         MARION SLOCUM       540 E 22ND ST                           000N        CARE OF             
MTR04206900001000000000000000RA              25448383    007501910000019100000520000003NN  NNW 000                       N    
RDG04206900WATRL000000004K00000000000006169015106222015100450N000000000000N84       000200400K 10000000010000006152           
CUS0420690000104168160002         PEOPLE'S HOMESTEADIN542 E 22ND ST                           000N        CARE OF             
MTR04206900001000000000000000RA              99412296    007501920000019200000570000003NN  NNW 000   VACANT PROPERTY     N    
RDG04206900WATRL000000004K00000000000000001015206222015100459N000000000000N84       000090400K 10000000010000000001           
CUS0420690000104168159004         MAYOR AND CITY COUNC544 E 22ND ST                           000N        CARE OF             
MTR04206900001000000000000000RA              99375326    007501930000019300000570000003NN  NNW 000                       N    
RDG04206900WATRL000000004K00000000000002219015306222015100519N000000000000N84       000200400K 10000000010000002219           
CUS0420690000104168157008         GRAHAM ERNEST       2202 BOONE ST                           000N        CARE OF             
MTR04206900001000000000000000RA              99999999    005801940000019400000620000003NN  NNW 000                       N    
RDG04206900WATRL000000004K00000000000000000015406222015100534N000000000000N84       000150400K 10000000010000000000           
CUS0420690000104168156000         MAYOR AND CITY COUNC2204 BOONE ST                           000N        CARE OF             
MTR04206900001000000000000000RA              99999999    005801950000019500000620000003NN  NNW 000                       N    
RDG04206900WATRL000000004K00000000000000000015506222015100537N000000000000N84       000030400K 10000000010000000000           
CUS0420690000104168153007         ETTA A WEST         543 E 23RD ST                           000N        CARE OF             
MTR04206900001000000000000000RA              01110327    005801960000019600000610000003NN  NNW 000                       N    
RDG04206900WATRL000000004K00000000000000502005206222015092855N000000000000N84       000200400K 10000000010000000498           
CUS0420690000104168152009         FIELDS MANAGEMENT CO541 E 23RD ST                           000N        CARE OF             
MTR04206900001000000000000000RA              14930786    005801970000019700000310000003NN  NNW 000                       N    
RDG04206900WATRL000000004K00000000000000976005106222015092835N000000000000N84       000020400K 10000000010000000936           
CUS0420690000104168151001         RAINS, NICHOLAS     539 E 23RD ST                           000N        CARE OF             
MTR04206900001000000000000000RA              14923535    005801980000019800000310000003NN  NNW 000                       N    
RDG04206900WATRL000000004K00000000000000702005006222015092833N000100000020N84       000410400K 10000000010000000702           
CUS0420690000104168149005         SANDRA R WOODS      535 E 23RD ST                           000N        CARE OF             
MTR04206900001000000000000000RA              50786983    005801990000019900000520000003NN  NNW 000                       N    
RDG04206900WATRL000000004K00000000000002034004906222015092752N000300000010N84       000300400K 10000000010000001963           
CUS0420690000104168145003         FPD ACQUISITIONS COR527 E 23RD ST                           000N        CARE OF             
MTR04206900001000000000000000RA              77886953    005802000000020000000360000003NN  NNW 000                       N    
RDG04206900WATRL000000004K00000000000000159004806222015092722N000400000010N84       000340400K 10000000010000000149           
CUS0420690000104168144006         JONES, MELVIN       525 E 23RD ST                           000N        CARE OF             
MTR04206900001000000000000000RA              26001648    005802010000020100000520000003NN  NNW 000                       N    
RDG04206900WATRL000000004K00000000000004834004706222015092648N000000000000N84       000030400K 10000000010000004831           
CUS0420690000104168143008         R M WISE SR & WF    523 E 23RD ST                           000N        CARE OF             
MTR04206900001000000000000000RA              33729854    005802020000020200000520000003NN  NNW 000                       N    
RDG04206900WATRL000000004K00000000000002027004606222015092645N000300000010N84       000420400K 10000000010000001960           
CUS0420690000104168142000         NEWAY, ARAYA        521 E 23RD ST                           000N        CARE OF             
MTR04206900001000000000000000RA              25782581    005802030000020300000520000003NN  NNW 000                       N    
RDG04206900WATRL000000004K00000000000005075004506222015092603N000000000010N84       000100400K 10000000010000005071           
CUS0420690000104168141002         JONES, DERRICK      519 E 23RD ST                           000N        CARE OF             
MTR04206900001000000000000000RA              24769321    005802040000020400000520000003NN  NNW 000                       N    
RDG04206900WATRL000000004K00000000000002189004406222015092553N000100000010N84       000280400K 10000000010000002189           
CUS0420690000104168140004         DUDLEY, BRENDA ENID 517 E 23RD ST                           000N        CARE OF             
MTR04206900001000000000000000RA              35102411    005802050000020500000520000003NN  NNW 000                       N    
RDG04206900WATRL000000004K00000000000003648004306222015092525N000000000000N84       000040400K 10000000010000003635           
CUS0420690000104168139006         MENCOS, LILIA E     515 E 23RD ST                           000N        CARE OF             
MTR04206900001000000000000000RA              99999999    005802060000020600000620000003NN  NNW 000                       N    
RDG04206900WATRL000000004K00000000000002318004206222015092521N000000000000N84       000140400K 10000000010000002318           
CUS0420690000104168138008         D.O.C., LLC         513 E 23RD ST                           000N        CARE OF             
MTR04206900001000000000000000RA              78023896    005802070000020700000350000003NN  NNW 000                       N    
RDG04206900WATRL000000004K00000000000000038004106222015092507N000000000000N84       000110400K 10000000010000000025           
CUS0420690000104168137000         CAMPBELL, MARIAN E. 511 E 23RD ST                           000N        CARE OF             
MTR04206900001000000000000000RA              33729859    005802080000020800000520000003NN  NNW 000                       N    
RDG04206900WATRL000000004K00000000000002790004006222015092456N000300000010N84       000190400K 10000000010000002812           
CUS0420690000104168136002         CASTLE PROPERTY INVE509 E 23RD ST                           000N        CARE OF             
MTR04206900001000000000000000RA              33729705    005802090000020900000520000003NN  NNW 000                       N    
RDG04206900WATRL000000004K00000000000001697003906222015092437N000100000010N84       000110400K 10000000010000001697           
CUS0420690000104168135004         SPRATLING, DAKISHA  507 E 23RD ST                           000N        CARE OF             
MTR04206900001000000000000000RA              01077020    005802100000021000000610000003NN  NNW 000                       N    
RDG04206900WATRL000000004K00000000000000501003806222015092426N000000000000N84       000290400K 10000000010000000495           
CUS0420690000104168134007         SPENCE, MAGDALENE   505 E 23RD ST                           000N        CARE OF             
MTR04206900001000000000000000RA              01073595    005802110000021100000610000003NN  NNW 000                       N    
RDG04206900WATRL000000004K00000000000000696003706222015092357N000400000010N84       000620400K 10000000010000000694           
CUS0420690000104168131003         JANNIE REMBERT      504 E 23RD ST                           000N        CARE OF             
MTR04206900001000000000000000RA              35119607    005802120000021200000520000003NN  NNW 000                       N    
RDG04206900WATRL000000004K00000000000001766007106222015093409N000100000010N84       000220400K 10000000010000001766           
CUS0420690000104168130005         SYDNOR, JONETTE M   506 E 23RD ST                           000N        CARE OF             
MTR04206900001000000000000000RA              54351471    005802130000021300000520000003NN  NNW 000                       N    
RDG04206900WATRL000000004K00000000000000779007006222015093347N000000000000N84       000030400K 10000000010000000763           
CUS0420690000104168129007         LOUTINSA S ANDERSON 508 E 23RD ST                           000N        CARE OF             
MTR04206900001000000000000000RA              54351472    005802140000021400000520000003NN  NNW 000                       N    
RDG04206900WATRL000000004K00000000000000396006906222015093344N000000000000N84       000190400K 10000000010000000390           
CUS0420690000104168128009         JONES, DONNETTA     510 E 23RD ST                           000N        CARE OF             
MTR04206900001000000000000000RA              54351304    005802150000021500000520000003NN  NNW 000                       N    
RDG04206900WATRL000000004K00000000000001241006806222015093325N000000000000N84       000040400K 10000000010000001224           
CUS0420690000104168127001         WHITE II, EMORY     512 E 23RD ST                           000N        CARE OF             
MTR04206900001000000000000000RA              14928729    005802160000021600000310000003NN  NNW 000                       N    
RDG04206900WATRL000000004K00000000000000311006706222015093321N000000000000N84       000210400K 10000000010000000297           
CUS0420690000104168126003         CHARLES DIXON       514 E 23RD ST                           000N        CARE OF             
MTR04206900001000000000000000RA              32898749    005802170000021700000520000003NN  NNW 000                       N    
RDG04206900WATRL000000004K00000000000001346006606222015093300N000400000010N84       000120400K 10000000010000001344           
CUS0420690000104168125005         WHITE, EMORY L      516 E 23RD ST                           000N        CARE OF             
MTR04206900001000000000000000RA              32898748    005802180000021800000520000003NN  NNW 000                       N    
RDG04206900WATRL000000004K00000000000001477006506222015093248N000000000000N84       000360400K 10000000010000001471           
CUS0420690000104168124008         SANDERS, RAYMOND    518 E 23RD ST                           000N        CARE OF             
MTR04206900001000000000000000RA              01073445    005802190000021900000610000003NN  NNW 000                       N    
RDG04206900WATRL000000004K00000000000000990006406222015093212N000000000000N84       000140400K 10000000010000000981           
CUS0420690000104168123000         CENTRAL PROPERTIES, 520 E 23RD ST                           000N        CARE OF             
MTR04206900001000000000000000RA              01073470    005802200000022000000610000003NN  NNW 000                       N    
RDG04206900WATRL000000004K00000000000001187006306222015093158N000000000000N84       000230400K 10000000010000001179           
CUS0420690000104168122002         FLYTHE, BRUCE A     522 E 23RD ST                           000N        CARE OF             
MTR04206900001000000000000000RA              33729852    005802210000022100000520000003NN  NNW 000                       N    
RDG04206900WATRL000000004K00000000000002682006206222015093135N000000000000N84       000040400K 10000000010000002675           
CUS0420690000104168121004         DAHI, CANE FIDELE   524 E 23RD ST                           000N        CARE OF             
MTR04206900001000000000000000RA              33729861    005802220000022200000520000003NN  NNW 000                       N    
RDG04206900WATRL000000004K00000000000002845006106222015093131N000300000010N84       000190400K 10000000010000002629           
CUS0420690000104168120006         MONYE, JOE I        526 E 23RD ST                           000N        CARE OF             
MTR04206900001000000000000000RA              27818030    005802230000022300000520000003NN  NNW 000                       N    
RDG04206900WATRL000000004K00000000000004992006006222015093112N000000000000N84       000050400K 10000000010000004972           
CUS0420690000104168119008         CONSTANCE LEWIS     528 E 23RD ST                           000N        CARE OF             
MTR04206900001000000000000000RA              33729568    005802240000022400000520000003NN  NNW 000                       N    
RDG04206900WATRL000000004K00000000000005472005906222015093107N000000000000N84       000190400K 10000000010000005437           
CUS0420690000104168118000         BILAL, MOHAMMAD     530 E 23RD ST                           000N        CARE OF             
MTR04206900001000000000000000RA              10001144    005802250000022500000570000003NN  NNW 000                       N    
RDG04206900WATRL000000004K00000000000000487005806222015093048N000300000010N84       000050400K 10000000010000000478           
CUS0420690000104168117002         EDWARDS, JOSEPHINE  532 E 23RD ST                           000N        CARE OF             
MTR04206900001000000000000000RA              33729818    005802260000022600000520000003NN  NNW 000                       N    
RDG04206900WATRL000000004K00000000000004829005706222015093043N000000000000N84       000280400K 10000000010000004812           
CUS0420690000104168116004         ROSA M DAVIS        534 E 23RD ST                           000N        CARE OF             
MTR04206900001000000000000000RA              33729702    005802270000022700000520000003NN  NNW 000                       N    
RDG04206900WATRL000000004K00000000000002893005606222015093015N000400000010N84       000070400K 10000000010000002887           
CUS0420690000104168115006         WOODS, SANDRA RENEE 536 E 23RD ST                           000N        CARE OF             
MTR04206900001000000000000000RA              36688930    005802280000022800000520000003NN  NNW 000                       N    
RDG04206900WATRL000000004K00000000000002011005506222015093008N000000000000N84       000160400K 10000000010000001994           
CUS0420690000104168114009         SPELLER, CAROL      538 E 23RD ST                           000N        CARE OF             
MTR04206900001000000000000000RA              45380289    005802290000022900000520000003NN  NNW 000                       N    
RDG04206900WATRL000000004K00000000000001231005406222015092952N000000000000N84       000190400K 10000000010000001229           
CUS0420690000104168113001         DAVIS, DARLENE      540 E 23RD ST                           000N        CARE OF             
MTR04206900001000000000000000RA              24625323    007502300000023000000520000003NN  NNW 000                       N    
RDG04206900WATRL000000004K00000000000004645005306222015092933N000000000000N84       000380400K 10000000010000004636           
RTR04206900NN02300230000002300000000002300230000170NY023002300230000000700000000000000000000001    06092015NY020000 N         
RHD04208900NN02540254000002540000000002540254000223NY025402540254000400010000000000000000000001    06092015NY020000 N         
CUS0420890000104171817002         SESSION, ELIJAH     1436 CARSWELL ST                        000N        CARE OF             
MTR04208900001000000000000000RA              25591905    007500010000000100000520000003NN  NNW 000                       N    
RDG04208900WATRL000000004K00000000000007746000106222015075558N000400000010N81       000000400K 10000000010000007700           
CUS0420890000104171818000         MELVIN L SANDERS    1434 CARSWELL ST                        000N        CARE OF             
MTR04208900001000000000000000RA              10001969    005800020000000200000570000003NN  NNW 000                       N    
RDG04208900WATRL000000004K00000000000000505000206222015075928N000300000010N81       002100400K 10000000010000000510           
CUS0420890000104171819008         HASSAN, BILAL       1432 CARSWELL ST                        000N        CARE OF             
MTR04208900001000000000000000RA              99187243    005800030000000300000570000003NN  NNW 000                       N    
RDG04208900WATRL000000004K00000000000000523000306222015075931N000000000000N81       000030400K 10000000010000000493           
CUS0420890000104171820006         THE YOUTH DREAMERS  1430 CARSWELL ST                        000N        CARE OF             
MTR04208900001000000000000000RA              45383254    005800040000000400000520000003NN  NNW 000                       N    
RDG04208900WATRL000000004K00000000000000171000406222015080033N000000000000N81       000620400K 10000000010000000168           
CUS0420890000104171821004         SYDNEY & SHAMEEK ROB1401 CARSWELL ST                        000N        CARE OF             
MTR04208900001000000000000000RA              00137668    005800050000000500000570000003NN  NNW 000                       N    
RDG04208900WATRL000000004K00000000000000000000506222015080243S063000000000N81       001300400K 10000000010000000358           
CUS0420890000104171822002         THELMA D JENNINGS   1403 CARSWELL ST                        000N        CARE OF             
MTR04208900001000000000000000RA              99289907    005800060000000600000570000003NN  NNW 000                       N    
RDG04208900WATRL000000004K00000000000001736000606222015080315N000400000010N81       000320400K 10000000010000001717           
CUS0420890000104171823000         JEAN HODGES ETAL    1405 CARSWELL ST                        000N        CARE OF             
MTR04208900001000000000000000RA              99289571    005800070000000700000570000003NN  NNW 000                       N    
RDG04208900WATRL000000004K00000000000001172000706222015080331N000000000000N81       000160400K 10000000010000001161           
CUS0420890000104171824008         HAMM, SHEILA        1407 CARSWELL ST                        000N        CARE OF             
MTR04208900001000000000000000RA              01104193    005800080000000800000610000003NN  NNW 000                       N    
RDG04208900WATRL000000004K00000000000000727000806222015080404N000000000000N81       000330400K 10000000010000000716           
CUS0420890000104171825005         POMPEY, SYLINA Y    1409 CARSWELL ST                        000N        CARE OF             
MTR04208900001000000000000000RA              76345980    005800090000000900000350000003NN  NNW 000                       N    
RDG04208900WATRL000000004K00000000000000052000906222015080409N000000000000N81       000050400K 10000000010000000041           
CUS0420890000104171826003         CARTER, EDITH M  (LI1411 CARSWELL ST                        000N        CARE OF             
MTR04208900001000000000000000RA              36691853    005800100000001000000520000003NN  NNW 000                       N    
RDG04208900WATRL000000004K00000000000001343001006222015080504N000000000000N81       000550400K 10000000010000001336           
CUS0420890000104171827001         D & E DEVELOPMENT CO1413 CARSWELL ST                        000N        CARE OF             
MTR04208900001000000000000000RA              14915934    005800110000001100000310000003NN  NNW 000                       N    
RDG04208900WATRL000000004K00000000000000451001106222015080508N000000000000N81       000040400K 10000000010000000436           
CUS0420890000104171828009         K.M.S. PROPERTY 2, L1415 CARSWELL ST                        000N        CARE OF             
MTR04208900001000000000000000RA              36689468    005800120000001200000520000003NN  NNW 000                       N    
RDG04208900WATRL000000004K00000000000001741001206222015080613N000000000000N81       000650400K 10000000010000001726           
CUS0420890000104171829007         RANKIN SR., MANNWELL1417 CARSWELL ST                        000N        CARE OF             
MTR04208900001000000000000000RA              26002879    005800130000001300000520000003NN  NNW 000                       N    
RDG04208900WATRL000000004K00000000000003861001306222015080630N000000000000N81       000170400K 10000000010000003857           
CUS0420890000104171830005         BROWN, MYRTLE B     1419 CARSWELL ST                        000N        CARE OF             
MTR04208900001000000000000000RA              77889696    005800140000001400000350000003NN  NNW 000                       N    
RDG04208900WATRL000000004K00000000000000000000000000000000000 000000000000U         000000400  10000000010000000045           
CUS0420890000104171831003         JOHNSON, ROSA A     1421 CARSWELL ST                        000N        CARE OF             
MTR04208900001000000000000000RA              27825268    005800150000001500000520000003NN  NNW 000                       N    
RDG04208900WATRL000000004K00000000000003237001406222015080932N000000000000N81       001820400K 10000000010000003228           
CUS0420890000104171832001         J WORTHAN SR        1423 CARSWELL ST                        000N        CARE OF             
MTR04208900001000000000000000RA              22607987    005800160000001600000520000003NN  NNW 000                       N    
RDG04208900WATRL000000004K00000000000005758001506222015081105N000400000010N81       000930400K 10000000010000005757           
CUS0420890000104171833009         SECRETARY OF US DEPA1425 CARSWELL ST                        000N        CARE OF             
MTR04208900001000000000000000RA              24226466    005800170000001700000520000003NN  NNW 000                       N    
RDG04208900WATRL000000004K00000000000005026001606222015081136N000000000000N81       000310400K 10000000010000005026           
CUS0420890000104171834007         DAMIAN E F ODOH     1427 CARSWELL ST                        000N        CARE OF             
MTR04208900001000000000000000RA              45382857    005800180000001800000520000003NN  NNW 000                       N    
RDG04208900WATRL000000004K00000000000003687001706222015081235N000000000000N81       000590400K 10000000010000003659           
CUS0420890000104171835004         FEATHERSTONE, VIVIAN1429 CARSWELL ST                        000N        CARE OF             
MTR04208900001000000000000000RA              01088802    005800190000001900000610000003NN  NNW 000                       N    
RDG04208900WATRL000000004K00000000000000199001806222015081239N000000000010N81       000040400K 10000000010000000198           
CUS0420890000104171836002         GEE, MICHELL L.     1431 CARSWELL ST                        000N        CARE OF             
MTR04208900001000000000000000RA              41082403    005800200000002000000520000003NN  NNW 000                       N    
RDG04208900WATRL000000004K00000000000001873001906222015081509N000000000000N81       001500400K 10000000010000001867           
CUS0420890000104171837000         JOHN C THOMAS       1433 CARSWELL ST                        000N        CARE OF             
MTR04208900001000000000000000RA              24767724    005800210000002100000520000003NN  NNW 000                       N    
RDG04208900WATRL000000004K00000000000003838002006222015081550N000000000000N81       000410400K 10000000010000003823           
CUS0420890000104171838008         JIMMIE SNYDER       1435 CARSWELL ST                        000N        CARE OF             
MTR04208900001000000000000000RA              22607998    005800220000002200000520000003NN  NNW 000                       N    
RDG04208900WATRL000000004K00000000000000073002106222015081745N000000000000N81       001150400K 10000000010000000069           
CUS0420890000104171839006         MARY E HICKLIN      1437 CARSWELL ST                        000N        CARE OF             
MTR04208900001000000000000000RA              10021011    005800230000002300000570000003NN  NNW 000                       N    
RDG04208900WATRL000000004K00000000000000273002206222015081751N000000000000N81       000060400K 10000000010000000254           
CUS0420890000104171840004         GARRETT, LULA       1442 GORSUCH AVE                        000N        CARE OF             
MTR04208900001000000000000000RA              31585966    005800240000002400000520000003NN  NNW 000                       N    
RDG04208900WATRL000000004K00000000000006910002306222015082033N000000000000N81       001620400K 10000000010000006891           
CUS0420890000104171841002         H S SOLOMON         1432 GORSUCH AVE                        000N        CARE OF             
MTR04208900001000000000000000RA              31585437    005800250000002500000520000003NN  NNW 000                       N    
RDG04208900WATRL000000004K00000000000002082002406222015082134N000400000010N81       000610400K 10000000010000002075           
CUS0420890000104171842000         RASCOE-HARRISON, PEA1430 GORSUCH AVE                        000N        CARE OF             
MTR04208900001000000000000000RA              00137775    005800260000002600000570000003NN  NNW 000                       N    
RDG04208900WATRL000000004K00000000000000633002506222015082144N000400000010N81       000100400K 10000000010000000630           
CUS0420890000104171843008         ADAMS, PHYLLIS M    1428 GORSUCH AVE                        000N        CARE OF             
MTR04208900001000000000000000RA              99080694    007500270000002700000570000003NN  NNW 000                       N    
RDG04208900WATRL000000004K00000000000000843023606222015111151N000400000010N81       005760400K 10000000010000000822           
CUS0420890000104171844006         HUDSON JR, WILLIAM E1426 GORSUCH AVE                        000N        CARE OF             
MTR04208900001000000000000000RA              99080693    007500280000002800000570000003NN  NNW 000                       N    
RDG04208900WATRL000000004K00000000000000942023706222015111156N000400000010N81       000050400K 10000000010000000936           
CUS0420890000104171845003         KAY F. LEWIS        1424 GORSUCH AVE                        000N        CARE OF             
MTR04208900001000000000000000RA              40248042    007500290000002900000520000003NN  NNW 000                       N    
RDG04208900WATRL000000004K00000000000002576002606222015082424N000100000010N81       001600400K 10000000010000002576           
CUS0420890000104171846001         JAMES, ORANGEE     (1422 GORSUCH AVE                        000N        CARE OF             
MTR04208900001000000000000000RA              14928274    007500300000003000000310000003NN  NNW 000                       N    
