FHDNNNN008001870001870001870N                                                                                           005705
RHD04209200NN02520252000002520000000002520252000162NY025202520252000000420000000000000000000001    06092015NY020000 N         
CUS0420920000104172380000         QUICKLEY, KANIKA    1501 ABBOTSTON ST                       000N        CARE OF             
MTR04209200001000000000000000RA              14915535    005800010000000100000310000003NN  NNW 000                       N    
RDG04209200WATRL000000004K00000000000000520000106222015070037N000000000000N40       000000400K 10000000010000000510           
CUS0420920000104172381008         PORTILLO, JOSE LUIS 1503 ABBOTSTON ST                       000N        CARE OF             
MTR04209200001000000000000000RA              48587988    005800020000000200000520000003NN  NNW 000   VACANT PROPERTY     N    
RDG04209200WATRL000000004K00000000000000571000206222015070128N000000000010N40       000510400K 10000000010000000569           
CUS0420920000104172382006         MATHIAS, AMELIA     1505 ABBOTSTON ST                       000N        CARE OF             
MTR04209200001000000000000000RA              00137381    005800030000000300000570000003NN  NNW 000                       N    
RDG04209200WATRL000000004K00000000000000833000306222015070205N000400000010N40       000370400K 10000000010000000827           
CUS0420920000104172383004         WILLIAMS, CARRIE    1507 ABBOTSTON ST                       000N        CARE OF             
MTR04209200001000000000000000RA              52288562    005800040000000400000520000003NY  NNW 000                       N    
MTM0420920052288562    VAC                                                                                                    
RDG04209200WATRL000000004K00000000000002127000406222015070227N000100000010N40       000220400K 10000000010000002127           
CUS0420920000104172384002         REED, KILEY P.      1509 ABBOTSTON ST                       000N        CARE OF             
MTR04209200001000000000000000RA              52289606    005800050000000500000520000003NN  NNW 000                       N    
RDG04209200WATRL000000004K00000000000000000000506222015070252S002000000000N40       000250400K 10000000010000000899           
CUS0420920000104172385009         CHARLES GRAHAM      1511 ABBOTSTON ST                       000N        CARE OF             
MTR04209200001000000000000000RA              24230593    005800060000000600000520000003NN  NNW 000                       N    
RDG04209200WATRL000000004K00000000000001515000606222015070317N000000000000N40       000250400K 10000000010000001509           
CUS0420920000104172386007         VAN HOUTTE, JONATHAN1513 ABBOTSTON ST                       000N        CARE OF             
MTR04209200001000000000000000RA              14921654    005800070000000700000310000003NN  NNW 000                       N    
RDG04209200WATRL000000004K00000000000000451000706222015070343N000400000010N40       000260400K 10000000010000000441           
CUS0420920000104172387005         MADISON, DOROTHY J  1515 ABBOTSTON ST                       000N        CARE OF             
MTR04209200001000000000000000RA              45386361    005800080000000800000520000003NN  NNW 000                       N    
RDG04209200WATRL000000004K00000000000001021000806222015070405N000000000000N40       000220400K 10000000010000001008           
CUS0420920000104172388003         TUCKER, BETTY J     1517 ABBOTSTON ST                       000N        CARE OF             
MTR04209200001000000000000000RA              01081875    005800090000000900000610000003NN  NNW 000                       N    
RDG04209200WATRL000000004K00000000000000778000906222015070434N000000000000N40       000290400K 10000000010000000751           
CUS0420920000104172389001         SMITH, BETTYE B     1519 ABBOTSTON ST                       000N        CARE OF             
MTR04209200001000000000000000RA              45376081    005800100000001000000520000003NN  NNW 000   VACANT PROPERTY     N    
RDG04209200WATRL000000004K00000000000000000001006222015070452S002000000000N40       000180400K 10000000010000000729           
CUS0420920000104172390009         NJOKU, EMEKA (AKA) C1521 ABBOTSTON ST                       000N        CARE OF             
MTR04209200001000000000000000RA              45383256    005800110000001100000520000003NY  NNW 000   VACANT PROPERTY     N    
MTM0420920045383256    45376081 ROCKWELL                                                                                      
RDG04209200WATRL000000004K00000000000000762001106222015070709N000000000011N40       001370400K 10000000010000001272           
CUS0420920000104172391007         BROWN, DEBORAH      1523 ABBOTSTON ST                       000N        CARE OF             
MTR04209200001000000000000000RA              14930000    005800120000001200000310000003NN  NNW 000                       N    
RDG04209200WATRL000000004K00000000000000303001206222015070735N000000000000N40       000260400K 10000000010000000288           
CUS0420920000104172394001         RJL HOLDINGS, LLC   1535 ABBOTSTON ST                       000N        CARE OF             
MTR04209200001000000000000000RA              10011431    005800130000001300000570000003NN  NNW 000                       N    
RDG04209200WATRL000000004K00000000000000502001306222015070814N000000000000N40       000390400K 10000000010000000477           
CUS0420920000104172395008         BROCKINGTON, ADRIANN1537 ABBOTSTON ST                       000N        CARE OF             
MTR04209200001000000000000000RA              48588003    005800140000001400000520000003NN  NNW 000                       N    
RDG04209200WATRL000000004K00000000000001006001406222015070837N000000000000N40       000230400K 10000000010000000984           
CUS0420920000104172396006         RILEY, CISA Y.      1539 ABBOTSTON ST                       000N        CARE OF             
MTR04209200001000000000000000RA              38886513    005800150000001500000520000003NN  NNW 000                       N    
RDG04209200WATRL000000004K00000000000002182001506222015070858N000000000000N40       000210400K 10000000010000002160           
CUS0420920000104172397004         DAVIS, JEANENE      1541 ABBOTSTON ST                       000N        CARE OF             
MTR04209200001000000000000000RA              38886512    005800160000001600000520000003NN  NNW 000                       N    
RDG04209200WATRL000000004K00000000000001942001606222015070917N000000000000N40       000190400K 10000000010000001939           
CUS0420920000104172398002         HICKS, MARION LAVERN1543 ABBOTSTON ST                       000N        CARE OF             
MTR04209200001000000000000000RA              35115781    005800170000001700000520000003NN  NNW 000                       N    
RDG04209200WATRL000000004K00000000000002078001706222015070939N000000000000N40       000220400K 10000000010000002066           
CUS0420920000104172399000         MR/MRS WILLIE GREEN 1545 ABBOTSTON ST                       000N        CARE OF             
MTR04209200001000000000000000RA              01077053    005800180000001800000610000003NN  NNW 000                       N    
RDG04209200WATRL000000004K00000000000001325001806222015071003N000100000010N40       000240400K 10000000010000001325           
CUS0420920000104172400006         MOBLEY, ROY R.      1547 ABBOTSTON ST                       000N        CARE OF             
MTR04209200001000000000000000RA              29679695    005800190000001900000520000003NN  NNW 000                       N    
RDG04209200WATRL000000004K00000000000002877001906222015071025N000000000000N40       000220400K 10000000010000002873           
CUS0420920000104172401004         AVENS, THOMAS B     1549 ABBOTSTON ST                       000N        CARE OF             
MTR04209200001000000000000000RA              35115773    005800200000002000000520000003NN  NNW 000                       N    
RDG04209200WATRL000000004K00000000000004209002006222015071046N000000000000N40       000210400K 10000000010000004200           
CUS0420920000104172402002         TAYLOR, VANESSA     1551 ABBOTSTON ST                       000N        CARE OF             
MTR04209200001000000000000000RA              48593366    005800210000002100000520000003NN  NNW 000                       N    
RDG04209200WATRL000000004K00000000000000000002106222015071100S002000000000N40       000140400K 10000000010000001380           
CUS0420920000104172403000         MCGINNIS SR., WALLAC1553 ABBOTSTON ST                       000N        CARE OF             
MTR04209200001000000000000000RA              44177343    005800220000002200000520000003NN  NNW 000                       N    
RDG04209200WATRL000000004K00000000000004804002206222015071126N000000000000N40       000260400K 10000000010000004747           
CUS0420920000104172406003         FREDERICK, SPRING MI1559 ABBOTSTON ST                       000N        CARE OF             
MTR04209200001000000000000000RA              14922043    005800230000002300000310000003NN  NNW 000                       N    
RDG04209200WATRL000000004K00000000000000999002306222015071158N000400000010N40       000320400K 10000000010000000998           
CUS0420920000104172407001         DURHAM, LINDA C.    1563 ABBOTSTON ST                       000N        CARE OF             
MTR04209200001000000000000000RA              14930902    005800240000002400000310000003NN  NNW 000   VACANT PROPERTY     N    
RDG04209200WATRL000000004K00000000000000000002406222015071218S002000000000N40       000200400K 10000000010000000000           
CUS0420920000104172408009         HILL, JERRIOUS      1565 ABBOTSTON ST                       000N        CARE OF             
MTR04209200001000000000000000RA              41076588    005800250000002500000520000003NN  NNW 000                       N    
RDG04209200WATRL000000004K00000000000000000002506222015071234S002000000000N40       000160400K 10000000010000002438           
CUS0420920000104172409007         2008 DRR-ETS, LLC   1567 ABBOTSTON ST                       000N        CARE OF             
MTR04209200001000000000000000RA              44088842    005800260000002600000520000003NN  NNW 000   VACANT PROPERTY     N    
RDG04209200WATRL000000004K00000000000000000002606222015071250S002000000000N40       000160400K 10000000010000002210           
CUS0420920000104172410005         VDC MANAGEMENT, LLC 1569 ABBOTSTON ST                       000N        CARE OF             
MTR04209200001000000000000000RA              00137199    005800270000002700000570000003NN  NNW 000                       N    
RDG04209200WATRL000000004K00000000000000000002706222015071326S002000000000N40       000360400K 10000000010000000726           
CUS0420920000104172412001         COSBY, LAMONT KINDAL1573 ABBOTSTON ST                       000N        CARE OF             
MTR04209200001000000000000000RA              40048189    005800280000002800000520000003NN  NNW 000                       N    
RDG04209200WATRL000000004K00000000000002368002806222015071345N000000000000N40       000190400K 10000000010000002129           
CUS0420920000104172414007         N.O.I. SECURITY PATR1601 ABBOTSTON ST                       000N        CARE OF             
MTR04209200001000000000000000RA              48587399    005800290000002900000520000003NN  NNW 000                       N    
RDG04209200WATRL000000004K00000000000000000002906222015071434S002000000000N40       000490400K 10000000010000000006           
CUS0420920000104172415004         WILLIAMS, DONNY     1607 ABBOTSTON ST                       000N        CARE OF             
MTR04209200001000000000000000RA              14916724    005800300000003000000310000003NN  NNW 000                       N    
RDG04209200WATRL000000004K00000000000000386003006222015071500N000400000010N40       000260400K 10000000010000000374           
CUS0420920000104172417000         BROWN, STANFORD L (L1611 ABBOTSTON ST                       000N        CARE OF             
MTR04209200001000000000000000RA              77888255    005800310000003100000360000003NN  NNW 000                       N    
RDG04209200WATRL000000004K00000000000000000003106222015071507S001000000000N40       000070400K 10000000010000000003           
CUS0420920000104172418008         NATIONSTAR MORTGAGE 1613 ABBOTSTON ST                       000N        CARE OF             
MTR04209200001000000000000000RA              35103173    005800320000003200000520000003NN  NNW 000   VACANT PROPERTY     N    
RDG04209200WATRL000000004K00000000000000000003206222015071528S002000000000N40       000210400K 10000000010000003769           
CUS0420920000104172421002         BROWN, STANFORD L (L1619 ABBOTSTON ST                       000N        CARE OF             
MTR04209200001000000000000000RA              35103174    005800330000003300000520000003NN  NNW 000                       N    
RDG04209200WATRL000000004K00000000000003532003306222015071552N000000000000N40       000240400K 10000000010000003478           
CUS0420920000104172422000         JERRIOUS D HILL     1621 ABBOTSTON ST                       000N        CARE OF             
MTR04209200001000000000000000RA              35103171    005800340000003400000520000003NN  NNW 000                       N    
RDG04209200WATRL000000004K00000000000004737003406222015071614N000000000000N40       000220400K 10000000010000004717           
CUS0420920000104172423008         NAPOLEON, HAROLD J. 1623 ABBOTSTON ST                       000N        CARE OF             
MTR04209200001000000000000000RA              24764585    005800350000003500000520000003NN  NNW 000                       N    
RDG04209200WATRL000000004K00000000000007451003506222015071635N000000000000N40       000210400K 10000000010000007451           
CUS0420920000104172425003         HILL, MALCOLM R.    1627 ABBOTSTON ST                       000N        CARE OF             
MTR04209200001000000000000000RA              35103180    005800360000003600000520000003NN  NNW 000                       N    
RDG04209200WATRL000000004K00000000000006333003606222015071656N000000000000N40       000210400K 10000000010000006333           
CUS0420920000104172426001         RUFF SR., KEVIN D.  1629 ABBOTSTON ST                       000N        CARE OF             
MTR04209200001000000000000000RA              50790551    005800370000003700000520000003NN  NNW 000                       N    
RDG04209200WATRL000000004K00000000000003045003706222015071717N000000000000N40       000210400K 10000000010000002874           
CUS0420920000104172428007         COLEMAN, MICHAEL    1635 ABBOTSTON ST                       000N        CARE OF             
MTR04209200001000000000000000RA              27133587    005800380000003800000520000003NN  NNW 000   VACANT PROPERTY     N    
RDG04209200WATRL000000004K00000000000000000003806222015071740S002000000000N40       000230400K 10000000010000000723           
CUS0420920000104172429005         BROWN, ALLEN S      1637 ABBOTSTON ST                       000N        CARE OF             
MTR04209200001000000000000000RA              52285768    005800390000003900000520000003NN  NNW 000                       N    
RDG04209200WATRL000000004K00000000000001243003906222015071756N000000000000N40       000160400K 10000000010000001221           
CUS0420920000104172431001         ELIJAH LAWSON       1641 ABBOTSTON ST                       000N        CARE OF             
MTR04209200001000000000000000RA              29683901    005800400000004000000520000003NN  NNW 000                       N    
RDG04209200WATRL000000004K00000000000004501004006222015071815N000000000000N40       000190400K 10000000010000004501           
CUS0420920000104172432009         MORDECAI, THEODORE F1643 ABBOTSTON ST                       000N        CARE OF             
MTR04209200001000000000000000RA              14909474    005800410000004100000310000003NN  NNW 000                       N    
RDG04209200WATRL000000004K00000000000000432004106222015071835N000000000000N40       000200400K 10000000010000000417           
CUS0420920000104172433007         REINER, SHLOIME     1645 ABBOTSTON ST                       000N        CARE OF             
MTR04209200001000000000000000RA              00137379    005800420000004200000570000003NN  NNW 000                       N    
RDG04209200WATRL000000004K00000000000001434004206222015071853N000100000010N40       000180400K 10000000010000001434           
CUS0420920000104172437008         FACONER, ELSIE M.   1661 ABBOTSTON ST                       000N        CARE OF             
MTR04209200001000000000000000RA              01098012    007500430000004300000610000003NN  NNW 000                       N    
RDG04209200WATRL000000004K00000000000000230004306222015072017N000000000000N40       000840400K 10000000010000000217           
CUS0420920000104400901007         JOCELYN TAYLOR      1701 ABBOTSTON ST                       000N        CARE OF             
MTR04209200001000000000000000RA              41074273    005800440000004400000520000003NN  NNW 000                       N    
RDG04209200WATRL000000004K00000000000005776004406222015072111N000000000000N40       000540400K 10000000010000005743           
CUS0420920000104400902005         BROWN, TANYA A      1703 ABBOTSTON ST                       000N        CARE OF             
MTR04209200001000000000000000RA              41074757    005800450000004500000520000003NN  NNW 000                       N    
RDG04209200WATRL000000004K00000000000002747004506222015072114N000000000000N40       000030400K 10000000010000002721           
CUS0420920000104400903003         DIANA HENDERSON     1705 ABBOTSTON ST                       000N        CARE OF             
MTR04209200001000000000000000RA              41075968    005800460000004600000520000003NN  NNW 000                       N    
RDG04209200WATRL000000004K00000000000003204004606222015072146N000000000000N40       000320400K 10000000010000003173           
CUS0420920000104400904001         JONES, TYRENE       1707 ABBOTSTON ST                       000N        CARE OF             
MTR04209200001000000000000000RA              41075987    005800470000004700000520000003NN  NNW 000                       N    
RDG04209200WATRL000000004K00000000000003365004706222015072154N000000000000N40       000080400K 10000000010000003362           
CUS0420920000104172438006         KAREN P GOODWIN     1709 ABBOTSTON ST                       000N        CARE OF             
MTR04209200001000000000000000RA              41075986    005800480000004800000520000003NN  NNW 000                       N    
RDG04209200WATRL000000004K00000000000001213004806222015072219N000000000000N40       000250400K 10000000010000001213           
CUS0420920000104172439004         YOUNG, DELORES      1713 ABBOTSTON ST                       000N        CARE OF             
MTR04209200001000000000000000RA              41076107    005800490000004900000520000003NN  NNW 000                       N    
RDG04209200WATRL000000004K00000000000001801005006222015072308N000000000000N40       000220400K 10000000010000001792           
CUS0420920000104400896009         WATSON, ANTOINETTE R1711 ABBOTSTON ST                       000N        CARE OF             
MTR04209200001000000000000000RA              41075958    005800500000005000000520000003NN  NNW 000                       N    
RDG04209200WATRL000000004K00000000000002391004906222015072246N000000000000N40       000270400K 10000000010000002368           
CUS0420920000104172440002         JOHNSON, ARTHUR (ETA1717 ABBOTSTON ST                       000N        CARE OF             
MTR04209200001000000000000000RA              41076106    005800510000005100000520000003NN  NNW 000                       N    
RDG04209200WATRL000000004K00000000000001885005206222015072404N000400000010N40       000260400K 10000000010000001851           
CUS0420920000104400895001         PORTER, P ELLEN     1715 ABBOTSTON ST                       000N        CARE OF             
MTR04209200001000000000000000RA              41074827    005800520000005200000520000003NN  NNW 000                       N    
RDG04209200WATRL000000004K00000000000002359005106222015072338N000000000010N40       000300400K 10000000010000002357           
CUS0420920000104400894004         SIMS, MARGARET L.   1719 ABBOTSTON ST                       000N        CARE OF             
MTR04209200001000000000000000RA              41076241    005800530000005300000520000003NN  NNW 000                       N    
RDG04209200WATRL000000004K00000000000002303005306222015072505N000000000000N40       000610400K 10000000010000002254           
CUS0420920000104400893006         JOHNSON, YOLANDA N  1721 ABBOTSTON ST                       000N        CARE OF             
MTR04209200001000000000000000RA              41076222    005800540000005400000520000003NN  NNW 000                       N    
RDG04209200WATRL000000004K00000000000002524005406222015072507N000000000000N40       000020400K 10000000010000002519           
CUS0420920000104400892008         SYLVIA, BRAXTON-SYKE1723 ABBOTSTON ST                       000N        CARE OF             
MTR04209200001000000000000000RA              41076230    005800550000005500000520000003NN  NNW 000                       N    
RDG04209200WATRL000000004K00000000000001794005506222015072529N000000000010N40       000220400K 10000000010000001789           
CUS0420920000104401969003         HERRING, LINWOOD RAY1725 ABBOTSTON ST                       000N        CARE OF             
MTR04209200001000000000000000RA              46886227    005800560000005600000520000000NN  NNW 000                       N    
RDG04209200WATRL000000004K00000000000001352005606222015072550N000000000000N40       000210400K 10000000010000001332           
CUS0420920000104172441000         SARAH A TATE        1727 ABBOTSTON ST                       000N        CARE OF             
MTR04209200001000000000000000RA              41076240    005800570000005700000520000003NN  NNW 000                       N    
RDG04209200WATRL000000004K00000000000002212005706222015072617N000000000000N40       000270400K 10000000010000002204           
CUS0420920000104400891000         ANNIE P WHITT       1729 ABBOTSTON ST                       000N        CARE OF             
MTR04209200001000000000000000RA              46882866    005800580000005800000520000003NN  NNW 000                       N    
RDG04209200WATRL000000004K00000000000002163005806222015072643N000000000000N40       000260400K 10000000010000002144           
CUS0420920000104401968005         BALL, LEONARD E     1731 ABBOTSTON ST                       000N        CARE OF             
MTR04209200001000000000000000RA              41076239    005800590000005900000520000000NN  NNW 000                       N    
RDG04209200WATRL000000004K00000000000002299025206222015094413N000000000000N40       017820400K 10000000010000002289           
CUS0420920000104172444004         WHITE, ANTHONY      1733 ABBOTSTON ST                       000N        CARE OF             
MTR04209200001000000000000000RA              41076228    005800600000006000000520000003NN  NNW 000                       N    
RDG04209200WATRL000000004K00000000000002616005906222015072810N000000000000N40       000870400K 10000000010000002593           
CUS0420920000104400890002         WATTIES, QUIANA C.  1735 ABBOTSTON ST                       000N        CARE OF             
MTR04209200001000000000000000RA              99293061    005800610000006100000570000003NN  NNW 000                       N    
RDG04209200WATRL000000004K00000000000000000006006222015072834N000000000000N40       000240400K 10000000010000000000           
CUS0420920000104172445001         DOMINION PROPERTIES 1737 ABBOTSTON ST                       000N        CARE OF             
MTR04209200001000000000000000RA              41076225    005800620000006200000520000003NN  NNW 000                       N    
RDG04209200WATRL000000004K00000000000001773006106222015072850N000000000000N40       000160400K 10000000010000001759           
CUS0420920000104172446009         MCDUFFIE, STEPHANIE 1739 ABBOTSTON ST                       000N        CARE OF             
MTR04209200001000000000000000RA              01085982    005800630000006300000610000003NN  NNW 000                       N    
RDG04209200WATRL000000004K00000000000001571006206222015072913N000000000000N40       000230400K 10000000010000001556           
CUS0420920000104401806007         DOMINION RENTAL HOLD1743 ABBOTSTON ST                       000N        CARE OF             
MTR04209200001000000000000000RA              46883382    005800640000006400000520000003NN  NNW 000                       N    
RDG04209200WATRL000000004K00000000000002900006406222015073004N000000000000N40       000070400K 10000000010000002534           
CUS0420920000104172447007         KEY, KILISHA        1741 ABBOTSTON ST                       000N        CARE OF             
MTR04209200001000000000000000RA              41076227    005800650000006500000520000003NN  NNW 000                       N    
RDG04209200WATRL000000004K00000000000001889006306222015072957N000000000000N40       000440400K 10000000010000001879           
CUS0420920000104400889004         BARBARA A PAYLOR    1745 ABBOTSTON ST                       000N        CARE OF             
MTR04209200001000000000000000RA              41076223    005800660000006600000520000003NN  NNW 000                       N    
RDG04209200WATRL000000004K00000000000002025006506222015073031N000000000000N40       000270400K 10000000010000002013           
CUS0420920000104400888006         PHILLIP LUDD        1747 ABBOTSTON ST                       000N        CARE OF             
MTR04209200001000000000000000RA              14914594    005800670000006700000310000003NN  NNW 000                       N    
RDG04209200WATRL000000004K00000000000000669006606222015073036N000400000010N40       000050400K 10000000010000000664           
CUS0420920000104172449003         MCCRAY, DESHAWNTE   1751 ABBOTSTON ST                       000N        CARE OF             
MTR04209200001000000000000000RA              46888175    005800680000006800000520000003NN  NNW 000                       N    
RDG04209200WATRL000000004K00000000000001307006706222015073142N000400000011N40       000290400K 10000000010000001290           
CUS0420920000104400887008         MOFFATT, ANGELA R   1749 ABBOTSTON ST                       000N        CARE OF             
MTR04209200001000000000000000RA              41076246    005800690000006900000520000003NN  NNW 000                       N    
RDG04209200WATRL000000004K00000000000001377006806222015073113N000000000000N40       000080400K 10000000010000001372           
CUS0420920000104400886000         WINSTON, DELORES    1753 ABBOTSTON ST                       000N        CARE OF             
MTR04209200001000000000000000RA              41076249    005800700000007000000520000003NN  NNW 000                       N    
RDG04209200WATRL000000004K00000000000002155006906222015073210N000000000000N40       000280400K 10000000010000002149           
CUS0420920000104172450001         DOMINION RENTALS, LL1767 ABBOTSTON ST                       000N        CARE OF             
MTR04209200001000000000000000RA              41076248    005800710000007100000520000003NN  NNW 000                       N    
RDG04209200WATRL000000004K00000000000003428007606222015073446N000000000000N40       000430400K 10000000010000003245           
CUS0420920000104400885002         WILLIAMSON, WANDA M 1755 ABBOTSTON ST                       000N        CARE OF             
MTR04209200001000000000000000RA              10018019    005800720000007200000570000003NN  NNW 000                       N    
RDG04209200WATRL000000004K00000000000000000007006222015073216N000000000000N40       000060400K 10000000010000000000           
CUS0420920000104400884005         TAYLOR, LORRAINE A  1757 ABBOTSTON ST                       000N        CARE OF             
MTR04209200001000000000000000RA              41076229    005800730000007300000520000003NN  NNW 000                       N    
RDG04209200WATRL000000004K00000000000002254007106222015073300N000400000010N40       000440400K 10000000010000002239           
CUS0420920000104400883007         MILLEDGE, DAVID     1759 ABBOTSTON ST                       000N        CARE OF             
MTR04209200001000000000000000RA              41076226    005800740000007400000520000003NN  NNW 000                       N    
RDG04209200WATRL000000004K00000000000002332007206222015073306N000400000010N40       000060400K 10000000010000002321           
CUS0420920000104401805009         SHARON R TYSON      1761 ABBOTSTON ST                       000N        CARE OF             
MTR04209200001000000000000000RA              41076245    005800750000007500000520000003NN  NNW 000                       N    
RDG04209200WATRL000000004K00000000000001321007306222015073330N000400000010N40       000240400K 10000000010000001307           
CUS0420920000104400882009         ADAMS, DONNELL E    1763 ABBOTSTON ST                       000N        CARE OF             
MTR04209200001000000000000000RA              41076221    005800760000007600000520000003NN  NNW 000                       N    
RDG04209200WATRL000000004K00000000000002736007406222015073400N000000000000N40       000300400K 10000000010000002726           
CUS0420920000104400881001         GAIL FASH           1765 ABBOTSTON ST                       000N        CARE OF             
MTR04209200001000000000000000RA              77878015    005800770000007700000360000003NN  NNW 000                       N    
RDG04209200WATRL000000004K00000000000000000007506222015073403S001000000000N40       000030400K 10000000010000000000           
CUS0420920000104172454003         PETER MANOUSE &     2722 HARFORD RD                         000N        CARE OF             
MTR04209200001000000000000000RA              39257571    007500780000007800000520000003NN  NNW 000                       N    
RDG04209200WATRL000000004K00000000000003364007706222015073514N000000000000N40       000280400K 10000000010000003360           
CUS0420920000104172455000         THE FAITH CHURCH OF 2718-20 HARFORD RD                      000N        CARE OF             
MTR04209200001000000000000000RA              01097342    005800790000007900000610000003NN  NNW 000                       N    
RDG04209200WATRL000000004K00000000000000189007806222015073602N000000000000N40       000480400K 10000000010000000187           
CUS0420920000104172456008         THE FAITH CHURCH OF 2716 HARFORD RD                         000N        CARE OF             
MTR04209200001000000000000000RA              01090832    005800800000008000000610000000NN  NNW 000                       N    
RDG04209200WATRL000000004K00000000000000182007906222015073629N000400000010N40       000270400K 10000000010000000180           
CUS0420920000104172457006         KIM, IN DO          2706-10 HARFORD RD                      000N        CARE OF             
MTR04209200001000000000000000RA              24624941    007500810000008100000520000003NN  NNW 000                       N    
RDG04209200WATRL000000004K00000000000003048008006222015073705N000000000000N40       000360400K 10000000010000003036           
CUS0420920000104172458004         MASTER DEVELOPMENT, 2702-04 HARFORD RD                      000N        CARE OF             
MTR04209200001000000000000000RA              38985451    005800820000008200000520000003NN  NNW 000   VACANT PROPERTY     N    
RDG04209200WATRL000000004K00000000000001172008106222015073741N000000000000N40       000360400K 10000000010000001172           
CUS0420920000104172459002         YAU, SAU KIN        2700 HARFORD RD                         000N        CARE OF             
MTR04209200001000000000000000RA              24767556    005800830000008300000520000003NN  NNW 000                       N    
RDG04209200WATRL000000004K00000000000003533008206222015073825N000000000000N40       000440400K 10000000010000003523           
CUS0420920000104172460000         DUKE, MIGUEL        1770 CARSWELL ST                        000N        CARE OF             
MTR04209200001000000000000000RA              41082381    005800840000008400000520000003NN  NNW 000                       N    
RDG04209200WATRL000000004K00000000000003351008306222015073916N000000000000N40       000510400K 10000000010000003319           
CUS0420920000104400900009         MIRIAM D GAMBLE-FRAZ1768 CARSWELL ST                        000N        CARE OF             
MTR04209200001000000000000000RA              41080192    005800850000008500000520000003NN  NNW 000                       N    
RDG04209200WATRL000000004K00000000000002005008406222015073953N000400000010N40       000370400K 10000000010000001989           
CUS0420920000104400899003         TONYA BENTON-MCKOY  1766 CARSWELL ST                        000N        CARE OF             
MTR04209200001000000000000000RA              41080191    005800860000008600000520000003NN  NNW 000                       N    
RDG04209200WATRL000000004K00000000000002472008506222015073957N000000000000N40       000040400K 10000000010000002465           
CUS0420920000104172461008         PETERS, KEITH W     1764 CARSWELL ST                        000N        CARE OF             
MTR04209200001000000000000000RA              41087542    005800870000008700000520000003NN  NNW 000                       N    
RDG04209200WATRL000000004K00000000000000622008606222015074041N000400000010N40       000440400K 10000000010000000616           
CUS0420920000104400898005         MASON SR, KEVIN A   1762 CARSWELL ST                        000N        CARE OF             
MTR04209200001000000000000000RA              45375032    005800880000008800000520000003NN  NNW 000                       N    
RDG04209200WATRL000000004K00000000000004791008706222015074109N000400000010N40       000280400K 10000000010000004780           
CUS0420920000104400897007         GAMBLE, ANGELO      1760 CARSWELL ST                        000N        CARE OF             
MTR04209200001000000000000000RA              45375029    005800890000008900000520000003NN  NNW 000                       N    
RDG04209200WATRL000000004K00000000000002387008806222015074113N000000000000N40       000040400K 10000000010000002372           
CUS0420920000104172463004         SS5 BUSINESS TRUST  1756 CARSWELL ST                        000N        CARE OF             
MTR04209200001000000000000000RA              10000999    005800900000009000000570000003NN  NNW 000                       N    
RDG04209200WATRL000000004K00000000000000193008906222015074140N000000000000N40       000270400K 10000000010000000183           
CUS0420920000104172464002         PHP INVESTMENT COMPA1754 CARSWELL ST                        000N        CARE OF             
MTR04209200001000000000000000RA              46885694    005800910000009100000520000003NN  NNW 000                       N    
RDG04209200WATRL000000004K00000000000000000009006222015074156S002000000000N40       000160400K 10000000010000001111           
CUS0420920000104172465009         MARYLAND CONSULTING 1752 CARSWELL ST                        000N        CARE OF             
MTR04209200001000000000000000RA              14912751    005800920000009200000310000003NN  NNW 000                       N    
RDG04209200WATRL000000004K00000000000000400009106222015074244N000000000000N40       000480400K 10000000010000000381           
CUS0420920000104172466007         JOHNSON, DIANE      1750 CARSWELL ST                        000N        CARE OF             
MTR04209200001000000000000000RA              00137562    005800930000009300000570000003NN  NNW 000                       N    
RDG04209200WATRL000000004K00000000000000779009206222015074304N000000000000N40       000200400K 10000000010000000758           
CUS0420920000104172467005         TINSON, PAUL        1748 CARSWELL ST                        000N        CARE OF             
MTR04209200001000000000000000RA              00137560    005800940000009400000570000003NN  NNW 000                       N    
RDG04209200WATRL000000004K00000000000001551009306222015074320N000000000000N40       000160400K 10000000010000001517           
CUS0420920000104172468003         COLE, LUGENIA       1746 CARSWELL ST                        000N        CARE OF             
MTR04209200001000000000000000RA              44093358    005800950000009500000520000003NN  NNW 000                       N    
RDG04209200WATRL000000004K00000000000003530009406222015074338N000000000000N40       000180400K 10000000010000003515           
CUS0420920000104172469001         MICHAEL SMITH SR    1744 CARSWELL ST                        000N        CARE OF             
MTR04209200001000000000000000RA              14922644    005800960000009600000310000003NN  NNW 000                       N    
RDG04209200WATRL000000004K00000000000000119009506222015074358N000000000000N40       000200400K 10000000010000000116           
CUS0420920000104172470009         S & P PROPERTIES    1740 CARSWELL ST                        000N        CARE OF             
MTR04209200001000000000000000RA              52290539    005800970000009700000520000003NN  NNW 000                       N    
RDG04209200WATRL000000004K00000000000001258009606222015074431N000000000000N40       000330400K 10000000010000001250           
CUS0420920000104172471007         JONES, ROBERT       1738 CARSWELL ST                        000N        CARE OF             
MTR04209200001000000000000000RA              26011888    005800980000009800000520000003NN  NNW 000                       N    
RDG04209200WATRL000000004K00000000000002713009706222015074450N000000000000N40       000190400K 10000000010000002701           
CUS0420920000104172472005         STANTON, QUINTON    1736 CARSWELL ST                        000N        CARE OF             
MTR04209200001000000000000000RA              27816168    005800990000009900000520000003NN  NNW 000                       N    
RDG04209200WATRL000000004K00000000000003225009806222015074512N000000000000N40       000220400K 10000000010000003205           
CUS0420920000104172473003         ROSEMOND, ISIDORE   1734 CARSWELL ST                        000N        CARE OF             
MTR04209200001000000000000000RA              46885609    005801000000010000000520000003NN  NNW 000                       N    
RDG04209200WATRL000000004K00000000000000991009906222015074529N000000000000N40       000170400K 10000000010000000987           
CUS0420920000104172474001         YOUNG, LUSAN MARIA  1732 CARSWELL ST                        000N        CARE OF             
MTR04209200001000000000000000RA              10006647    005801010000010100000570000003NN  NNW 000   VACANT PROPERTY     N    
RDG04209200WATRL000000004K00000000000000028010006222015074550N000000000000N40       000210400K 10000000010000000028           
CUS0420920000104172475008         BROWN, WESLEY NEHEMI1728 CARSWELL ST                        000N        CARE OF             
MTR04209200001000000000000000RA              26008656    005801020000010200000520000003NN  NNW 000                       N    
RDG04209200WATRL000000004K00000000000002220010106222015074614N000400000010N40       000240400K 10000000010000002209           
CUS0420920000104172476006         MICHAEL K THOMAS    1726 CARSWELL ST                        000N        CARE OF             
MTR04209200001000000000000000RA              00137561    005801030000010300000570000003NN  NNW 000                       N    
RDG04209200WATRL000000004K00000000000001267010206222015074633N000300000010N40       000190400K 10000000010000001259           
CUS0420920000104172477004         DELROY WHITE SR & WF1724 CARSWELL ST                        000N        CARE OF             
MTR04209200001000000000000000RA              50787828    005801040000010400000520000000NN  NNW 000                       N    
RDG04209200WATRL000000004K00000000000001133010306222015074645N000000000000N40       000120400K 10000000010000001121           
CUS0420920000104172478002         DONALD WALTERS      1722 CARSWELL ST                        000N        CARE OF             
MTR04209200001000000000000000RA              14913495    005801050000010500000310000003NN  NNW 000                       N    
RDG04209200WATRL000000004K00000000000000248010406222015074708N000000000000N40       000230400K 10000000010000000248           
CUS0420920000104172479000         TRANSACTION MANAGMEN1720 CARSWELL ST                        000N        CARE OF             
MTR04209200001000000000000000RA              14923906    005801060000010600000310000003NN  NNW 000                       N    
RDG04209200WATRL000000004K00000000000000313010506222015074723N000000000000N40       000150400K 10000000010000000300           
CUS0420920000104172480008         KELLS MCDONALD      1714 CARSWELL ST                        000N        CARE OF             
MTR04209200001000000000000000RA              01099429    005801070000010700000610000003NN  NNW 000                       N    
RDG04209200WATRL000000004K00000000000001304010606222015074803N000000000000N40       000400400K 10000000010000001282           
CUS0420920000104172481006         HACKSHAW, RICHARD   1712 CARSWELL ST                        000N        CARE OF             
MTR04209200001000000000000000RA              77886721    005801080000010800000350000003NN  NNW 000                       N    
RDG04209200WATRL000000004K00000000000000000010706222015074831S001000000000N40       000280400K 10000000010000000023           
CUS0420920000104172482004         KEATON SR., JOSEPH E1710 CARSWELL ST                        000N        CARE OF             
MTR04209200001000000000000000RA              00137559    005801090000010900000570000003NN  NNW 000                       N    
RDG04209200WATRL000000004K00000000000000341010806222015074909N000000000000N40       000380400K 10000000010000000341           
CUS0420920000104172483002         GREEN, BALFORD O    1708 CARSWELL ST                        000N        CARE OF             
MTR04209200001000000000000000RA              00139287    005801100000011000000570000003NN  NNW 000                       N    
RDG04209200WATRL000000004K00000000000001019010906222015074911N000000000000N40       000020400K 10000000010000001019           
CUS0420920000104172484000         GOURO, AICHA        1706 CARSWELL ST                        000N        CARE OF             
MTR04209200001000000000000000RA              75424830    005801110000011100000350000003NN  NNW 000                       N    
RDG04209200WATRL000000004K00000000000000053011006222015074942N000000000000N40       000310400K 10000000010000000039           
CUS0420920000104172485007         YABBA DABBA, LLC    1704 CARSWELL ST                        000N        CARE OF             
MTR04209200001000000000000000RA              54349071    005801120000011200000520000003NN  NNW 000                       N    
RDG04209200WATRL000000004K00000000000001791011106222015075011N000000000000N40       000290400K 10000000010000001774           
CUS0420920000104172491005         BROWN, SARAH E      1628 CARSWELL ST                        000N        CARE OF             
MTR04209200001000000000000000RA              99289533    005801130000011300000570000003NN  NNW 000                       N    
RDG04209200WATRL000000004K00000000000000518011206222015075141N000000000000N40       000900400K 10000000010000000510           
CUS0420920000104172492003         HOWARD, TIFFANY M.  1626 CARSWELL ST                        000N        CARE OF             
MTR04209200001000000000000000RA              99289164    005801140000011400000570000003NN  NNW 000                       N    
RDG04209200WATRL000000004K00000000000001490011306222015075143N000000000000N40       000020400K 10000000010000001480           
CUS0420920000104172493001         SCOTT, HUGH A       1624 CARSWELL ST                        000N        CARE OF             
MTR04209200001000000000000000RA              52289403    005801150000011500000520000003NN  NNW 000                       N    
RDG04209200WATRL000000004K00000000000001818011406222015075205N000000000000N40       000220400K 10000000010000001791           
CUS0420920000104172496004         GSP TRADING, LLC    1610 CARSWELL ST                        000N        CARE OF             
MTR04209200001000000000000000RA              14918492    007501160000011600000310000003NN  NNW 000                       N    
RDG04209200WATRL000000004K00000000000001599011506222015075255N000300000010N40       000500400K 10000000010000001573           
CUS0420920000104172497002         NIGRIN, GLEN W      1608 CARSWELL ST                        000N        CARE OF             
MTR04209200001000000000000000RA              39257035    007501170000011700000520000003NN  NNW 000   VACANT PROPERTY     N    
RDG04209200WATRL000000004K00000000000001920011606222015075300N000000000000N40       000050400K 10000000010000001920           
CUS0420920000104172498000         GRANITE PARTNERS, LL1606 CARSWELL ST                        000N        CARE OF             
MTR04209200001000000000000000RA              00118516    007501180000011800000570000003NN  NNW 000                       N    
RDG04209200WATRL000000004K00000000000006752011706222015075324N000000000000N40       000240400K 10000000010000006732           
CUS0420920000104172499008         PRATHER, JONATHAN   1604 CARSWELL ST                        000N        CARE OF             
MTR04209200001000000000000000RA              00117450    007501190000011900000570000003NN  NNW 000                       N    
RDG04209200WATRL000000004K00000000000000000011806222015075339S002000000000N40       000150400K 10000000010000000731           
CUS0420920000104172500003         DICKERSON, THOMAS F.1602 CARSWELL ST                        000N        CARE OF             
MTR04209200001000000000000000RA              39257109    007501200000012000000520000003NN  NNW 000                       N    
RDG04209200WATRL000000004K00000000000003390011906222015075357N000000000000N40       000180400K 10000000010000003365           
CUS0420920000104172501001         PLEADING FOUNDATION 2701 KENNEDY AVE                        000N        CARE OF             
MTR04209200001000000000000000RA              41089150    007501210000012100000520000003NN  NNW 000                       N    
RDG04209200WATRL000000004K00000000000000595012006222015075514N000000000000N40       000770400K 10000000010000000591           
CUS0420920000104172502009         PLEADING FOUNDATION 2709 KENNEDY AVE                        000N        CARE OF             
MTR04209200001000000000000000RA              29402255    005801220000012200000520000003NN  NNW 000   VACANT PROPERTY     N    
RDG04209200WATRL000000004K00000000000000000012106222015075520S022000000000N40       000060400K 10000000010000000321           
CUS0420920000104172503007         PLEADING FOUNDATION 2713 KENNEDY AVE                        000N        CARE OF             
MTR04209200001000000000000000RA              3742814     005801230000012300000320000003NN  NNW 000   VACANT PROPERTY     N    
RDG04209200WATRL000000004K00000000000000000012206222015075523S022000000000N40       000030400K 10000000010000000000           
CUS0420920000104172505002         U.S. BANK NATIONAL A1572 CARSWELL ST                        000N        CARE OF             
MTR04209200001000000000000000RA              39924509    005801240000012400000520000003NN  NNW 000                       N    
RDG04209200WATRL000000004K00000000000000000012306222015082436S002000000000N40       017530400K 10000000010000002946           
CUS0420920000104172506000         BALTIMORE RETURN FUN1570 CARSWELL ST                        000N        CARE OF             
MTR04209200001000000000000000RA              46885481    005801250000012500000520000003NN  NNW 000   VACANT PROPERTY     N    
RDG04209200WATRL000000004K00000000000000000012406222015082445S002000000000N40       000090400K 10000000010000002052           
CUS0420920000104172507008         ROCK, RONALD        1568 CARSWELL ST                        000N        CARE OF             
MTR04209200001000000000000000RA              32904166    005801260000012600000520000003NN  NNW 000                       N    
RDG04209200WATRL000000004K00000000000002794012506222015082524N000000000000N40       000390400K 10000000010000002785           
CUS0420920000104172509004         SANDERS, PAULA COLLI1564 CARSWELL ST                        000N        CARE OF             
MTR04209200001000000000000000RA              39291507    005801270000012700000520000003NN  NNW 000                       N    
RDG04209200WATRL000000004K00000000000000955012606222015082549N000000000010N40       000250400K 10000000010000000952           
CUS0420920000104172510002         FADIRAN, MOSES O    1562 CARSWELL ST                        000N        CARE OF             
MTR04209200001000000000000000RA              48586520    005801280000012800000520000003NN  NNW 000                       N    
RDG04209200WATRL000000004K00000000000001416012706222015082618N000000000000N40       000290400K 10000000010000001405           
CUS0420920000104172511000         YORK MANAGEMENT ,INC1560 CARSWELL ST                        000N        CARE OF             
MTR04209200001000000000000000RA              39924228    005801290000012900000520000003NN  NNW 000                       N    
RDG04209200WATRL000000004K00000000000003845012806222015082622N000000000000N40       000040400K 10000000010000003845           
CUS0420920000104172512008         LAURENCE RUFAI      1558 CARSWELL ST                        000N        CARE OF             
MTR04209200001000000000000000RA              75424353    005801300000013000000350000003NN  NNW 000                       N    
RDG04209200WATRL000000004K00000000000000096012906222015082644N000300000010N40       000220400K 10000000010000000079           
CUS0420920000104172514004         WASH WASH XIII, LLC.1554 CARSWELL ST                        000N        CARE OF             
MTR04209200001000000000000000RA              99999999    005801310000013100000620000003NN  NNW 000                       N    
RDG04209200WATRL000000004K00000000000000000013006222015082650S002000000000N40       000060400K 10000000010000000886           
CUS0420920000104172515001         R&D INVESTORS, LLC  1552 CARSWELL ST                        000N        CARE OF             
MTR04209200001000000000000000RA              14930784    005801320000013200000310000003NN  NNW 000                       N    
RDG04209200WATRL000000004K00000000000000283013106222015082719N000000000000N40       000290400K 10000000010000000275           
CUS0420920000104172516009         HABC                1550 CARSWELL ST                        000N        CARE OF             
MTR04209200001000000000000000RA              29679171    005801330000013300000520000003NN  NNW 000                       N    
RDG04209200WATRL000000004K00000000000003568013206222015082738N000000000000N40       000190400K 10000000010000003550           
CUS0420920000104172517007         DOLES, CHRISTINE    1548 CARSWELL ST                        000N        CARE OF             
MTR04209200001000000000000000RA              00137563    005801340000013400000570000003NN  NNW 000                       N    
RDG04209200WATRL000000004K00000000000000710013306222015082805N000000000000N40       000270400K 10000000010000000704           
CUS0420920000104172518005         SIDDIQUI, YASMEEN   1546 CARSWELL ST                        000N        CARE OF             
MTR04209200001000000000000000RA              50789554    005801350000013500000520000003NY  NNW 000                       N    
MTM0420920050789554    VAC                                                                                                    
RDG04209200WATRL000000004K00000000000000538013406222015082832N000000000010N40       000270400K 10000000010000000537           
CUS0420920000104172520001         JENTRY MCDONALD, INC1542 CARSWELL ST                        000N        CARE OF             
MTR04209200001000000000000000RA              00137384    005801360000013600000570000003NN  NNW 000   VACANT PROPERTY     N    
RDG04209200WATRL000000004K00000000000000000013506222015082921S002000000000N40       000490400K 10000000010000000000           
CUS0420920000104172521009         BALTIMORE CAPITAL GR1540 CARSWELL ST                        000N        CARE OF             
MTR04209200001000000000000000RA              14927514    005801370000013700000310000003NN  NNW 000                       N    
RDG04209200WATRL000000004K00000000000000655013606222015082923N000000000000N40       000020400K 10000000010000000642           
CUS0420920000104172522007         RANKIN, MARENO      1538 CARSWELL ST                        000N        CARE OF             
MTR04209200001000000000000000RA              00137468    005801380000013800000570000003NN  NNW 000                       N    
RDG04209200WATRL000000004K00000000000000462013706222015083001N000000000000N40       000380400K 10000000010000000452           
CUS0420920000104172523005         GILLIAM, JAMALL     1536 CARSWELL ST                        000N        CARE OF             
MTR04209200001000000000000000RA              00137464    005801390000013900000570000003NN  NNW 000                       N    
RDG04209200WATRL000000004K00000000000000319013806222015083004N000000000000N40       000030400K 10000000010000000303           
CUS0420920000104172525000         SHARRONDA BROCKINGTO1532 CARSWELL ST                        000N        CARE OF             
MTR04209200001000000000000000RA              00137465    005801400000014000000570000003NN  NNW 000                       N    
RDG04209200WATRL000000004K00000000000002779013906222015083039N000400000010N40       000350400K 10000000010000002759           
CUS0420920000104172526008         FOREMAN, JANICE D.  1530 CARSWELL ST                        000N        CARE OF             
MTR04209200001000000000000000RA              00137382    005801410000014100000570000003NN  NNW 000                       N    
RDG04209200WATRL000000004K00000000000001042014006222015083043N000000000000N40       000040400K 10000000010000001037           
CUS0420920000104172530000         ROSLYN DESHIELDS    1520 CARSWELL ST                        000N        CARE OF             
MTR04209200001000000000000000RA              00137383    005801420000014200000570000003NN  NNW 000                       N    
RDG04209200WATRL000000004K00000000000001557014106222015083124N000400000010N40       000410400K 10000000010000001546           
CUS0420920000104172532006         WORKEMAN, DONALD    1508 CARSWELL ST                        000N        CARE OF             
MTR04209200001000000000000000RA              01086742    005801430000014300000610000003NN  NNW 000                       N    
RDG04209200WATRL000000004K00000000000001321014206222015083157N000000000000N40       000330400K 10000000010000001321           
CUS0420920000104172533004         DOMINION MGT        1504 CARSWELL ST                        000N        CARE OF             
MTR04209200001000000000000000RA              14925681    005801440000014400000310000003NN  NNW 000                       N    
RDG04209200WATRL000000004K00000000000000655014306222015083230N000000000000N40       000330400K 10000000010000000642           
CUS0420920000104172534002         FURLEY CAPITAL LLC. 1502 CARSWELL ST                        000N        CARE OF             
MTR04209200001000000000000000RA              74690363    005801450000014500000350000003NY  NNW 000                       N    
MTM0420920074690363    VAC                                                                                                    
RDG04209200WATRL000000004K00000000000000065014406222015083234N000100000010N40       000040400K 10000000010000000065           
CUS0420920000104172535009         OGUNJOBI, ADEOLA BOB1500 CARSWELL ST                        000N        CARE OF             
MTR04209200001000000000000000RA              14901505    005801460000014600000310000003NN  NNW 000                       N    
RDG04209200WATRL000000004K00000000000000209014506222015083305N000300000010N40       000310400K 10000000010000000169           
CUS0420920000104172536007         WANG, SHOU GUO      1501 CARSWELL ST                        000N        CARE OF             
MTR04209200001000000000000000RA              01110284    005801470000014700000610000003NN  NNW 000                       N    
RDG04209200WATRL000000004K00000000000000655014606222015083343N000000000000N40       000380400K 10000000010000000640           
CUS0420920000104172538003         FELDER, THOMAS      1505 CARSWELL ST                        000N        CARE OF             
MTR04209200001000000000000000RA              10013828    005801480000014800000570000003NN  NNW 000                       N    
RDG04209200WATRL000000004K00000000000000000014806222015083438N000000000000N40       000210400K 10000000010000000000           
CUS0420920000104172537005         ALLEN, RONALD W.    1503 CARSWELL ST                        000N        CARE OF             
MTR04209200001000000000000000RA              14918064    005801490000014900000310000003NN  NNW 000                       N    
RDG04209200WATRL000000004K00000000000000655014706222015083417N000000000000N40       000340400K 10000000010000000628           
CUS0420920000104172539001         C.E.W. LLC          1507 CARSWELL ST                        000N        CARE OF             
MTR04209200001000000000000000RA              00137203    005801500000015000000570000003NN  NNW 000                       N    
RDG04209200WATRL000000004K00000000000001714014906222015083519N000000000000N40       000410400K 10000000010000001680           
CUS0420920000104172540009         CCC AJH PROPERTIES, 1509 CARSWELL ST                        000N        CARE OF             
MTR04209200001000000000000000RA              50789552    005801510000015100000520000003NN  NNW 000   VACANT PROPERTY     N    
RDG04209200WATRL000000004K00000000000001974015006222015083522N000000000000N40       000030400K 10000000010000001974           
CUS0420920000104172541007         S & B DEVELOPERS, LL1511 CARSWELL ST                        000N        CARE OF             
MTR04209200001000000000000000RA              99411409    007501520000015200000570000003NN  NNW 000                       N    
RDG04209200WATRL000000004K00000000000004701015106222015083548N000000000000N40       000260400K 10000000010000004648           
CUS0420920000104172542005         MATTHEWS, DOMINIC   1519 CARSWELL ST                        000N        CARE OF             
MTR04209200001000000000000000RA              77878457    005801530000015300000360000003NN  NNW 000                       N    
RDG04209200WATRL000000004K00000000000000000015206222015083608S001000000000N40       000200400K 10000000010000000000           
CUS0420920000104172543003         R & A GREAT BEGINNIN1521 CARSWELL ST                        000N        CARE OF             
MTR04209200001000000000000000RA              00137053    005801540000015400000570000003NN  NNW 000                       N    
RDG04209200WATRL000000004K00000000000000912015306222015083636N000000000000N40       000280400K 10000000010000000900           
CUS0420920000104172544001         RICHARDSON, GEORGE R1523 CARSWELL ST                        000N        CARE OF             
MTR04209200001000000000000000RA              52289520    005801550000015500000520000003NN  NNW 000                       N    
RDG04209200WATRL000000004K00000000000001067015406222015083656N000000000000N40       000200400K 10000000010000001050           
CUS0420920000104172545008         ICHIKAWA, KURT      1525 CARSWELL ST                        000N        CARE OF             
MTR04209200001000000000000000RA              46887007    005801560000015600000520000003NN  NNW 000                       N    
RDG04209200WATRL000000004K00000000000001257015506222015083718N000000000000N40       000220400K 10000000010000001250           
CUS0420920000104172546006         FORELSE ENTERPRISES,1529 CARSWELL ST                        000N        CARE OF             
MTR04209200001000000000000000RA              26002770    005801570000015700000520000003NN  NNW 000                       N    
RDG04209200WATRL000000004K00000000000003455015606222015083812N000000000000N40       000540400K 10000000010000003371           
CUS0420920000104172547004         WILLIE HILL,JR ETAL 1531 CARSWELL ST                        000N        CARE OF             
MTR04209200001000000000000000RA              50476710    005801580000015800000520000003NN  NNW 000   VACANT PROPERTY     N    
RDG04209200WATRL000000004K00000000000000467015706222015083814N000000000000N40       000020400K 10000000010000000467           
CUS0420920000104172548002         SILVER, WILLIE J    1533 CARSWELL ST                        000N        CARE OF             
MTR04209200001000000000000000RA              40779388    005801590000015900000520000003NN  NNW 000                       N    
RDG04209200WATRL000000004K00000000000001083015806222015083837N000000000000N40       000230400K 10000000010000001066           
CUS0420920000104172549000         BERNADETTE A THOMAS 1535 CARSWELL ST                        000N        CARE OF             
MTR04209200001000000000000000RA              24227365    005801600000016000000520000003NN  NNW 000                       N    
RDG04209200WATRL000000004K00000000000004497015906222015083855N000000000000N40       000180400K 10000000010000004488           
CUS0420920000104172550008         ERNEST E WATTS & WF(1537 CARSWELL ST                        000N        CARE OF             
MTR04209200001000000000000000RA              33734756    005801610000016100000520000003NN  NNW 000                       N    
RDG04209200WATRL000000004K00000000000001368016006222015083914N000000000000N40       000190400K 10000000010000001359           
CUS0420920000104172554000         T J NORTHINGTON & WF1543-1/2 CARSWELL ST                    000N        CARE OF             
MTR04209200001000000000000000RA              48586351    005801620000016200000520000003NN  NNW 000                       N    
RDG04209200WATRL000000004K00000000000002012016106222015083946N000000000000N40       000320400K 10000000010000001999           
CUS0420920000104172555007         JORDAN, JEROME      1545 CARSWELL ST                        000N        CARE OF             
MTR04209200001000000000000000RA              99293063    005801630000016300000570000003NN  NNW 000                       N    
RDG04209200WATRL000000004K00000000000001323016206222015084010N000000000000N40       000240400K 10000000010000001323           
CUS0420920000104172556005         RAHMAN, MOHAMMAD T. 1547 CARSWELL ST                        000N        CARE OF             
MTR04209200001000000000000000RA              01083008    005801640000016400000610000003NY  NNW 000                       N    
MTM0420920001083008    VAC                                                                                                    
RDG04209200WATRL000000004K00000000000001902016306222015084031N000400000010N40       000210400K 10000000010000001901           
CUS0420920000104172557003         JMCN, INC.          1549 CARSWELL ST                        000N        CARE OF             
MTR04209200001000000000000000RA              38887964    005801650000016500000520000003NN  NNW 000                       N    
RDG04209200WATRL000000004K00000000000000000016406222015084054S002000000000N40       000230400K 10000000010000003720           
CUS0420920000104172558001         BARKSDALE, JERRY    1551 CARSWELL ST                        000N        CARE OF             
MTR04209200001000000000000000RA              14901419    005801660000016600000310000003NN  NNW 000                       N    
RDG04209200WATRL000000004K00000000000000847016506222015084121N000000000000N40       000270400K 10000000010000000839           
CUS0420920000104172559009         HILL, WILLIAM R     1553 CARSWELL ST                        000N        CARE OF             
MTR04209200001000000000000000RA              46882006    005801670000016700000520000003NN  NNW 000                       N    
RDG04209200WATRL000000004K00000000000002212016606222015084202N000000000000N40       000410400K 10000000010000002212           
CUS0420920000104172560007         BALTIMORE CITY INVES1555 CARSWELL ST                        000N        CARE OF             
MTR04209200001000000000000000RA              14901501    005801680000016800000310000003NN  NNW 000   VACANT PROPERTY     N    
RDG04209200WATRL000000004K00000000000000281016706222015084205N000000000000N40       000030400K 10000000010000000281           
CUS0420920000104172561005         TRENESSA ANNIBAL    1557 CARSWELL ST                        000N        CARE OF             
MTR04209200001000000000000000RA              50478859    005801690000016900000520000003NN  NNW 000                       N    
RDG04209200WATRL000000004K00000000000002793016806222015084224N000000000000N40       000190400K 10000000010000002779           
CUS0420920000104172562003         SMITH, MARYAM       1559 CARSWELL ST                        000N        CARE OF             
MTR04209200001000000000000000RA              14921880    005801700000017000000310000003NY  NNW 000                       N    
MTM0420920014921880    VAC                                                                                                    
RDG04209200WATRL000000004K00000000000000432016906222015084249N000100000010N40       000250400K 10000000010000000432           
CUS0420920000104172563001         BALTIMORE CITY INVES1561 CARSWELL ST                        000N        CARE OF             
MTR04209200001000000000000000RA              14922039    005801710000017100000310000003NN  NNW 000   VACANT PROPERTY     N    
RDG04209200WATRL000000004K00000000000000663017006222015084251N000000000000N40       000020400K 10000000010000000663           
CUS0420920000104172564009         CALIBUSO, ADELFO    1563 CARSWELL ST                        000N        CARE OF             
MTR04209200001000000000000000RA              10000515    005801720000017200000570000003NN  NNW 000                       N    
RDG04209200WATRL000000004K00000000000000000017106222015084322N000000000000N40       000310400K 10000000010000000000           
CUS0420920000104172565006         MORRIS, ERROL       1565 CARSWELL ST                        000N        CARE OF             
MTR04209200001000000000000000RA              99289828    005801730000017300000570000003NN  NNW 000   VACANT PROPERTY     N    
RDG04209200WATRL000000004K00000000000000000017206222015084326S002000000000N40       000040400K 10000000010000000034           
CUS0420920000104172566004         LOCKSPAR AND RJR HOU1567 CARSWELL ST                        000N        CARE OF             
MTR04209200001000000000000000RA              54348302    005801740000017400000520000003NN  NNW 000   VACANT PROPERTY     N    
RDG04209200WATRL000000004K00000000000002769017306222015084403N000000000000N40       000370400K 10000000010000002769           
CUS0420920000104172567002         FOY II, GLENFORD    1601 CARSWELL ST                        000N        CARE OF             
MTR04209200001000000000000000RA              43905065    007501750000017500000520000003NN  NNW 000                       N    
RDG04209200WATRL000000004K00000000000000507017406222015084438N000000000000N40       000350400K 10000000010000000507           
CUS0420920000104172568000         PEARSON, DAMON      1603 CARSWELL ST                        000N        CARE OF             
MTR04209200001000000000000000RA              32904165    005801760000017600000520000003NN  NNW 000                       N    
RDG04209200WATRL000000004K00000000000001706017506222015084441N000000000000N40       000030400K 10000000010000001680           
CUS0420920000104172569008         KTAMR REALTY LLC    1605 CARSWELL ST                        000N        CARE OF             
MTR04209200001000000000000000RA              50789546    005801770000017700000520000003NY  NNW 000                       N    
MTM0420920050789546    VAC                                                                                                    
RDG04209200WATRL000000004K00000000000001438017606222015084508N000400000010N40       000270400K 10000000010000001429           
CUS0420920000104172570006         AUGUSTA A PULLIAM   1607 CARSWELL ST                        000N        CARE OF             
MTR04209200001000000000000000RA              44177392    005801780000017800000520000003NN  NNW 000   VACANT PROPERTY     N    
RDG04209200WATRL000000004K00000000000001716017706222015084516N000000000000N40       000080400K 10000000010000001716           
CUS0420920000104172571004         MARSHALL  EUGENE    1609 CARSWELL ST                        000N        CARE OF             
MTR04209200001000000000000000RA              48596717    005801790000017900000520000003NN  NNW 000                       N    
RDG04209200WATRL000000004K00000000000000156017806222015084543N000000000000N40       000270400K 10000000010000000156           
CUS0420920000104172573000         CROSS, ANDRE        1613 CARSWELL ST                        000N        CARE OF             
MTR04209200001000000000000000RA              00138626    005801800000018000000570000003NN  NNW 000                       N    
RDG04209200WATRL000000004K00000000000000539017906222015084610N000000000000N40       000270400K 10000000010000000533           
CUS0420920000104172574008         FIRST CHOICE PROPERT1615 CARSWELL ST                        000N        CARE OF             
MTR04209200001000000000000000RA              10019262    005801810000018100000570000003NY  NNW 000                       N    
MTM0420920010019262    HERSEY 77891957 0004                                                                                   
RDG04209200WATRL000000004K00000000000000000018006222015084658S001000000000N40       000480400K 10000000010000000322           
CUS0420920000104172575005         JOYNER, RICHARD     1617 CARSWELL ST                        000N        CARE OF             
MTR04209200001000000000000000RA              52289394    005801820000018200000520000003NN  NNW 000                       N    
RDG04209200WATRL000000004K00000000000000000018106222015084727S002000000000N40       000290400K 10000000010000009549           
CUS0420920000104172576003         EDWARD SPELLEN      1619 CARSWELL ST                        000N        CARE OF             
MTR04209200001000000000000000RA              52289402    005801830000018300000520000003NN  NNW 000                       N    
RDG04209200WATRL000000004K00000000000003377018206222015084730N000000000000N40       000030400K 10000000010000003353           
CUS0420920000104172577001         JAIYEOLA, ADEMOLA   1621 CARSWELL ST                        000N        CARE OF             
MTR04209200001000000000000000RA              00138624    005801840000018400000570000003NN  NNW 000                       N    
RDG04209200WATRL000000004K00000000000001014018306222015084759N000000000000N40       000290400K 10000000010000001014           
CUS0420920000104172578009         BERTALLI, MARK      1623 CARSWELL ST                        000N        CARE OF             
MTR04209200001000000000000000RA              40048880    005801850000018500000520000003NN  NNW 000                       N    
RDG04209200WATRL000000004K00000000000003335018406222015084801N000000000000N40       000020400K 10000000010000003335           
CUS0420920000104172579007         SCOTT, LILIBETH     1629 CARSWELL ST                        000N        CARE OF             
MTR04209200001000000000000000RA              99289908    005801860000018600000570000003NN  NNW 000                       N    
RDG04209200WATRL000000004K00000000000000076018506222015084834N000000000010N40       000330400K 10000000010000000072           
CUS0420920000104172581003         LEWIS, LEON M       1633 CARSWELL ST                        000N        CARE OF             
MTR04209200001000000000000000RA              50477998    005801870000018700000520000003NN  NNW 000                       N    
RDG04209200WATRL000000004K00000000000000000018606222015084916S002000000000N40       000420400K 10000000010000001019           
CUS0420920000104172582001         BROWN, LAKIESHA     1635 CARSWELL ST                        000N        CARE OF             
MTR04209200001000000000000000RA              10001618    005801880000018800000570000003NN  NNW 000                       N    
RDG04209200WATRL000000004K00000000000000373018706222015084931N000000000000N40       000150400K 10000000010000000364           
CUS0420920000104172583009         CITY HOMES, INC.    1637 CARSWELL ST                        000N        CARE OF             
MTR04209200001000000000000000RA              50478039    005801890000018900000520000003NN  NNW 000                       N    
RDG04209200WATRL000000004K00000000000001776018806222015084952N000000000000N40       000210400K 10000000010000001765           
CUS0420920000104172584007         MCJ INVESTMENTS, INC1639 CARSWELL ST                        000N        CARE OF             
MTR04209200001000000000000000RA              50787807    005801900000019000000520000003NY  NNW 000                       N    
MTM0420920050787807    VAC                                                                                                    
RDG04209200WATRL000000004K00000000000001557018906222015085011N000100000010N40       000190400K 10000000010000001557           
CUS0420920000104172585004         ASALEE WILLIS       1641 CARSWELL ST                        000N        CARE OF             
MTR04209200001000000000000000RA              52287434    005801910000019100000520000003NN  NNW 000                       N    
RDG04209200WATRL000000004K00000000000001348019006222015085032N000000000000N40       000210400K 10000000010000001336           
CUS0420920000104172586002         DARDEN, MARY D      1643 CARSWELL ST                        000N        CARE OF             
MTR04209200001000000000000000RA              45378752    005801920000019200000520000003NN  NNW 000                       N    
RDG04209200WATRL000000004K00000000000001745019106222015085048N000000000000N40       000160400K 10000000010000001735           
CUS0420920000104172587000         NKIA & KIRK TAYLOR  1645 CARSWELL ST                        000N        CARE OF             
MTR04209200001000000000000000RA              00138623    005801930000019300000570000003NN  NNW 000                       N    
RDG04209200WATRL000000004K00000000000001005019206222015085110N000400000010N40       000220400K 10000000010000001003           
CUS0420920000104172588008         PETTUS, JOSEPH      1647 CARSWELL ST                        000N        CARE OF             
MTR04209200001000000000000000RA              14930899    005801940000019400000310000003NN  NNW 000                       N    
RDG04209200WATRL000000004K00000000000000000019306222015085126S002000000000N40       000160400K 10000000010000000082           
CUS0420920000104172589006         FASSETT, LINDA Y    1649 CARSWELL ST                        000N        CARE OF             
MTR04209200001000000000000000RA              36694061    005801950000019500000520000003NN  NNW 000                       N    
RDG04209200WATRL000000004K00000000000002947019406222015085146N000000000000N40       000200400K 10000000010000002938           
CUS0420920000104172590004         D JOHNSON           1651 CARSWELL ST                        000N        CARE OF             
MTR04209200001000000000000000RA              35108372    005801960000019600000520000003NN  NNW 000   VACANT PROPERTY     N    
RDG04209200WATRL000000004K00000000000000000019506222015085208S002000000000N40       000220400K 10000000010000001613           
CUS0420920000104172591002         BANNER REALTY       1653 CARSWELL ST                        000N        CARE OF             
MTR04209200001000000000000000RA              27213341    005801970000019700000520000003NN  NNW 000   VACANT PROPERTY     N    
RDG04209200WATRL000000004K00000000000000000019606222015085214S022000000000N40       000060400K 10000000010000000444           
CUS0420920000104172592000         ADOPT-A-HOUSE DEVELO1655 CARSWELL ST                        000N        CARE OF             
MTR04209200001000000000000000RA              26006521    005801980000019800000520000003NN  NNW 000                       N    
RDG04209200WATRL000000004K00000000000000000019706222015085216S022000000000N40       000020400K 10000000010000000092           
CUS0420920000104172593008         CAROLYN E SINCLAIR  1701 CARSWELL ST                        000N        CARE OF             
MTR04209200001000000000000000RA              77886677    005801990000019900000350000003NN  NNW 000                       N    
RDG04209200WATRL000000004K00000000000000000019806222015085314S001000000000N40       000580400K 10000000010000000004           
CUS0420920000104172594006         BARNES, HARVEY      1703 CARSWELL ST                        000N        CARE OF             
MTR04209200001000000000000000RA              00138622    005802000000020000000570000003NN  NNW 000                       N    
RDG04209200WATRL000000004K00000000000000462019906222015085316N000000000000N40       000020400K 10000000010000000450           
CUS0420920000104172595003         MT ZION TEMPLE CHURC1705 CARSWELL ST                        000N        CARE OF             
MTR04209200001000000000000000RA              48589853    005802010000020100000520000003NN  NNW 000   VACANT PROPERTY     N    
RDG04209200WATRL000000004K00000000000000000020006222015085356S002000000000N40       000400400K 10000000010000004964           
CUS0420920000104172596001         MT ZION TEMPLE CHURC1707 CARSWELL ST                        000N        CARE OF             
MTR04209200001000000000000000RA              41076600    005802020000020200000520000003NN  NNW 000   VACANT PROPERTY     N    
RDG04209200WATRL000000004K00000000000000000020106222015085358S002000000000N40       000020400K 10000000010000000521           
CUS0420920000104172597009         S & S AUTOMOTIVE CO 1709 CARSWELL ST                        000N        CARE OF             
MTR04209200001000000000000000RA              26005928    005802030000020300000520000003NN  NNW 000                       N    
RDG04209200WATRL000000004K00000000000001287020206222015085432N000000000000N40       000340400K 10000000010000001278           
CUS0420920000104172598007         ADONAI MINISTRIES, I1727 CARSWELL ST                        000N        CARE OF             
MTR04209200001000000000000000RA              26192020    007502040000020400000520000003NN  NNW 000                       N    
RDG04209200WATRL000000004K00000000000003772020306222015085522N000400000010N40       000500400K 10000000010000003749           
CUS0420920000104172599005         MACKEY, DANA A      1733 CARSWELL ST                        000N        CARE OF             
MTR04209200001000000000000000RA              14927337    005802050000020500000310000003NY  NNW 000                       N    
MTM0420920014927337    VAC                                                                                                    
RDG04209200WATRL000000004K00000000000000137020406222015085544N000100000010N40       000220400K 10000000010000000137           
CUS0420920000104172600001         JOYCE J WILLIAMS    1735 CARSWELL ST                        000N        CARE OF             
MTR04209200001000000000000000RA              14921471    005802060000020600000310000003NN  NNW 000                       N    
RDG04209200WATRL000000004K00000000000000220020506222015085611N000000000000N40       000270400K 10000000010000000195           
CUS0420920000104172601009         RUTHERFORD, IONITA  1737 CARSWELL ST                        000N        CARE OF             
MTR04209200001000000000000000RA              14901503    005802070000020700000310000003NN  NNW 000                       N    
RDG04209200WATRL000000004K00000000000000000020606222015085640N000000000000N40       000290400K 10000000010000000000           
CUS0420920000104172602007         HABC                1739 CARSWELL ST                        000N        CARE OF             
MTR04209200001000000000000000RA              99388555    005802080000020800000570000003NN  NNW 000                       N    
RDG04209200WATRL000000004K00000000000000000020706222015085653S002000000000N40       000130400K 10000000010000000000           
CUS0420920000104172605000         BEST, DOLORES D.    1745 CARSWELL ST                        000N        CARE OF             
MTR04209200001000000000000000RA              48596975    005802090000020900000520000003NN  NNW 000                       N    
RDG04209200WATRL000000004K00000000000000789020806222015085724N000000000000N40       000310400K 10000000010000000780           
CUS0420920000104172606008         ALEEM, SAUDA K ABDUL1747 CARSWELL ST                        000N        CARE OF             
MTR04209200001000000000000000RA              46878507    005802100000021000000520000003NN  NNW 000                       N    
RDG04209200WATRL000000004K00000000000001890020906222015085750N000000000000N40       000260400K 10000000010000001882           
CUS0420920000104172607006         DORIS M SCOTT       1749 CARSWELL ST                        000N        CARE OF             
MTR04209200001000000000000000RA              10001874    005802110000021100000570000003NN  NNW 000                       N    
RDG04209200WATRL000000004K00000000000000622021006222015085803N000000000000N40       000130400K 10000000010000000610           
CUS0420920000104172609002         DORIS M SCOTT       1753 CARSWELL ST                        000N        CARE OF             
MTR04209200001000000000000000RA              27819087    005802120000021200000520000003NN  NNW 000   VACANT PROPERTY     N    
RDG04209200WATRL000000004K00000000000000000021106222015085823S002000000000N40       000200400K 10000000010000000000           
CUS0420920000104172610000         DORIS L SCOTT,CUSTOD1755 CARSWELL ST                        000N        CARE OF             
MTR04209200001000000000000000RA              29679173    005802130000021300000520000003NN  NNW 000                       N    
RDG04209200WATRL000000004K00000000000003349021206222015085844N000000000000N40       000210400K 10000000010000003347           
CUS0420920000104380961005         THOMPSON, BERKELEY  1769 CARSWELL ST                        000N        CARE OF             
MTR04209200001000000000000000RA              30000778    007502140000021400000570000003NN  NNW 000                       N    
RDG04209200WATRL000000004K00000000000000143021306222015085921N000000000000N40       000370400K 10000000010000000139           
CUS0420920000104172611008         STERN, GEORGIA L    2658 HARFORD RD                         000N        CARE OF             
MTR04209200001000000000000000RA              00120278    007502150000021500000570000003NN  NNW 000                       N    
RDG04209200WATRL000000004K00000000000000481021406222015085957N000000000000N40       000360400K 10000000010000000464           
CUS0420920000104172612006         JOHNSON III, GEORGE 2656 HARFORD RD                         000N        CARE OF             
MTR04209200001000000000000000RA              29683038    005802160000021600000520000003NN  NNW 000                       N    
RDG04209200WATRL000000004K00000000000003409021506222015090033N000100000010N40       000360400K 10000000010000003409           
CUS0420920000104172613004         JOHNSON III, GEORGE 2654 HARFORD RD                         000N        CARE OF             
MTR04209200001000000000000000RA              35114472    005802170000021700000520000003NN  NNW 000                       N    
RDG04209200WATRL000000004K00000000000002917021606222015090105N000000000000N40       000320400K 10000000010000002911           
CUS0420920000104172614002         DYSON, FAWN         2652 HARFORD RD                         000N        CARE OF             
MTR04209200001000000000000000RA              01077059    005802180000021800000610000003NN  NNW 000                       N    
RDG04209200WATRL000000004K00000000000001379021706222015090125N000000000000N40       000200400K 10000000010000001359           
CUS0420920000104172615009         SEABOARD MANAGEMENT 2650 HARFORD RD                         000N        CARE OF             
MTR04209200001000000000000000RA              10011430    005802190000021900000570000003NN  NNW 000                       N    
RDG04209200WATRL000000004K00000000000000181021806222015090143N000000000000N40       000180400K 10000000010000000174           
CUS0420920000104172616007         GERMAN, MICHAEL     2648 HARFORD RD                         000N        CARE OF             
MTR04209200001000000000000000RA              48590132    005802200000022000000520000003NN  NNW 000                       N    
RDG04209200WATRL000000004K00000000000000666021906222015090204N000300000010N40       000210400K 10000000010000000645           
CUS0420920000104172617005         MASJID AL MUMININ   2646 HARFORD RD                         000N        CARE OF             
MTR04209200001000000000000000RA              99289126    005802210000022100000570000003NN  NNW 000   VACANT PROPERTY     N    
RDG04209200WATRL000000004K00000000000000000022006222015090217S002000000000N40       000130400K 10000000010000000000           
CUS0420920000104172618003         BAYLOR II, BENJAMIN 2644 HARFORD RD                         000N        CARE OF             
MTR04209200001000000000000000RA              14901500    005802220000022200000310000003NN  NNW 000                       N    
RDG04209200WATRL000000004K00000000000000447022106222015090240N000000000000N40       000230400K 10000000010000000415           
CUS0420920000104172619001         MUMININ, MASJID     2642 HARFORD RD                         000N        CARE OF             
MTR04209200001000000000000000RA              35114056    005802230000022300000520000003NN  NNW 000                       N    
RDG04209200WATRL000000004K00000000000003823022206222015090300N000400000010N40       000200400K 10000000010000003805           
CUS0420920000104172620009         MUMININ, MASJID AL  2640 HARFORD RD                         000N        CARE OF             
MTR04209200001000000000000000RA              29083238    005802240000022400000520000003NN  NNW 000                       N    
RDG04209200WATRL000000004K00000000000003830022306222015090318N000000000000N40       000180400K 10000000010000003822           
CUS0420920000104172621007         AL-MUMINIIN, JAMAATU2638 HARFORD RD                         000N        CARE OF             
MTR04209200001000000000000000RA              27829683    005802250000022500000520000003NN  NNW 000                       N    
RDG04209200WATRL000000004K00000000000004452022406222015090337N000000000000N40       000190400K 10000000010000004445           
CUS0420920000104172622005         2636 HARFORD, LLC   2636 HARFORD RD                         000N        CARE OF             
MTR04209200001000000000000000RA              14901502    005802260000022600000310000003NN  NNW 000   VACANT PROPERTY     N    
RDG04209200WATRL000000004K00000000000000427022506222015090402N000000000000N40       000250400K 10000000010000000427           
CUS0420920000104172623003         2634 HARFORD, LLC   2634 HARFORD RD                         000N        CARE OF             
MTR04209200001000000000000000RA              35114458    005802270000022700000520000003NN  NNW 000   VACANT PROPERTY     N    
RDG04209200WATRL000000004K00000000000002466022606222015090420N000000000000N40       000180400K 10000000010000002466           
CUS0420920000104172624001         UDOKA, MFON         2632 HARFORD RD                         000N        CARE OF             
MTR04209200001000000000000000RA              74814895    007502280000022800000350000003NN  NNW 000                       N    
RDG04209200WATRL000000004K00000000000000102022706222015090439N000000000000N40       000190400K 10000000010000000081           
CUS0420920000104172626006         WILLIAMS, HENRY EARL1766 GORSUCH AVE                        000N        CARE OF             
MTR04209200001000000000000000RA              48585268    005802290000022900000520000003NN  NNW 000   VACANT PROPERTY     N    
RDG04209200WATRL000000004K00000000000000000022806222015090545N000000000001N40       000210400K 10000000010000000000           
CUS0420920000104172627004         GARRETT, JAMES      1764 GORSUCH AVE                        000N        CARE OF             
MTR04209200001000000000000000RA              38887011    005802300000023000000520000003NN  NNW 000                       N    
RDG04209200WATRL000000004K00000000000001707022906222015090557N000000000000N40       000120400K 10000000010000001700           
CUS0420920000104172628002         EARL ROBINSON       1762 GORSUCH AVE                        000N        CARE OF             
MTR04209200001000000000000000RA              00125937    005802310000023100000570000003NN  NNW 000                       N    
RDG04209200WATRL000000004K00000000000001006023006222015090612N000000000000N40       000150400K 10000000010000000995           
CUS0420920000104172629000         CEPHUS HILL SR.     1760 GORSUCH AVE                        000N        CARE OF             
MTR04209200001000000000000000RA              38887008    005802320000023200000520000003NN  NNW 000                       N    
RDG04209200WATRL000000004K00000000000001712023106222015090627N000000000000N40       000150400K 10000000010000001676           
CUS0420920000104172630008         COOPER, TOSHIA      1758 GORSUCH AVE                        000N        CARE OF             
MTR04209200001000000000000000RA              48586793    005802330000023300000520000003NN  NNW 000                       N    
RDG04209200WATRL000000004K00000000000000952023206222015090657N000000000000N40       000300400K 10000000010000000943           
CUS0420920000104172631006         ARDELLA R BUSH      1756 GORSUCH AVE                        000N        CARE OF             
MTR04209200001000000000000000RA              19460547    007502340000023400000520000003NN  NNW 000                       N    
RDG04209200WATRL000000004K00000000000005699023306222015090700N000000000000N40       000030400K 10000000010000005689           
CUS0420920000104172632004         CEPHUS HILL SR & WF 1754 GORSUCH AVE                        000N        CARE OF             
MTR04209200001000000000000000RA              35119344    005802350000023500000520000003NN  NNW 000                       N    
RDG04209200WATRL000000004K00000000000001909023406222015090726N000000000000N40       000260400K 10000000010000001901           
CUS0420920000104172633002         WOODEN, JOYCE ANN   1752 GORSUCH AVE                        000N        CARE OF             
MTR04209200001000000000000000RA              35119345    005802360000023600000520000003NN  NNW 000                       N    
RDG04209200WATRL000000004K00000000000002669023506222015090729N000000000000N40       000030400K 10000000010000002641           
CUS0420920000104172634000         MATIN, LAMONT       1750 GORSUCH AVE                        000N        CARE OF             
MTR04209200001000000000000000RA              39923516    005802370000023700000520000003NN  NNW 000                       N    
RDG04209200WATRL000000004K00000000000003085023606222015090752N000000000000N40       000230400K 10000000010000003077           
CUS0420920000104172635007         CUPID, CHERISH      1748 GORSUCH AVE                        000N        CARE OF             
MTR04209200001000000000000000RA              39923518    005802380000023800000520000003NN  NNW 000                       N    
RDG04209200WATRL000000004K00000000000002348023706222015090754N000000000000N40       000020400K 10000000010000002331           
CUS0420920000104172636005         EJ BALTIMORE PROPERT1744 GORSUCH AVE                        000N        CARE OF             
MTR04209200001000000000000000RA              99411888    007502390000023900000570000003NN  NNW 000   VACANT PROPERTY     N    
RDG04209200WATRL000000004K00000000000000576023806222015090820N000000000000N40       000260400K 10000000010000000576           
CUS0420920000104172637003         EJ BALTIMORE PROPERT1742 GORSUCH AVE                        000N        CARE OF             
MTR04209200001000000000000000RA              52292936    007502400000024000000520000003NN  NNW 000   VACANT PROPERTY     N    
RDG04209200WATRL000000004K00000000000000248023906222015090843N000000000000N40       000230400K 10000000010000000248           
CUS0420920000104172638001         JULIA M ROSS        1740 GORSUCH AVE                        000N        CARE OF             
MTR04209200001000000000000000RA              01086026    005802410000024100000610000003NN  NNW 000   VACANT PROPERTY     N    
RDG04209200WATRL000000004K00000000000000053024006222015090906N000000000000N40       000230400K 10000000010000000053           
CUS0420920000104172641005         WILDER, RUSSELL     1730 GORSUCH AVE                        000N        CARE OF             
MTR04209200001000000000000000RA              29084405    005802420000024200000520000003NN  NNW 000                       N    
RDG04209200WATRL000000004K00000000000003639024106222015090935N000000000000N40       000290400K 10000000010000003631           
CUS0420920000104172643001         ROYAL PARK REALTY, L1726 GORSUCH AVE                        000N        CARE OF             
MTR04209200001000000000000000RA              41089685    007502430000024300000520000003NN  NNW 000                       N    
RDG04209200WATRL000000004K00000000000000000024206222015091035S002000000000N40       000600400K 10000000010000000000           
CUS0420920000104172646004         HAIRSTON, EDWARD G  1708-20 GORSUCH AVE                     000N        CARE OF             
MTR04209200001000000000000000RA              25781845    005802440000024400000520000003NN  NNW 000   VACANT PROPERTY     N    
RDG04209200WATRL000000004K00000000000000000024306222015091142S002000000000N40       000670400K 10000000010000000010           
CUS0420920000104172647002         HAIRSTON, EDWARD G  1708-20 GORSUCH AVE                     000N        CARE OF             
MTR04209200001000000000000000RA              00138625    005802450000024500000570000003NN  NNW 000                       N    
RDG04209200WATRL000000004K00000000000000090024406222015091147N000000000000N40       000050400K 10000000010000000090           
CUS0420920000104172648000         HAIRSTON, EDWARD G  1714 GORSUCH AVE                        000N        CARE OF             
MTR04209200001000000000000000RA              11326106    005802460000024600000570000003NN  NNW 000   VACANT PROPERTY     N    
RDG04209200WATRL000000004K00000000000000000024506222015091227S002000000000N40       000400400K 10000000010000000094           
CUS0420920000104172649008         HAIRSTON, EDWARD G  1712 GORSUCH AVE                        000N        CARE OF             
MTR04209200001000000000000000RA              11326258    005802470000024700000570000003NN  NNW 000   VACANT PROPERTY     N    
RDG04209200WATRL000000004K00000000000000000024806222015091311S002000000000N40       000030400K 10000000010000000394           
CUS0420920000104172650006         HAIRSTON, EDWARD G  1708-10 GORSUCH AVE                     000N        CARE OF             
MTR04209200001000000000000000RA              6861874     007502480000024800000580000003NN  NNW 000   VACANT PROPERTY     N    
RDG04209200WATRL000000004K00000000000000000024706222015091308S002000000000N40       000130400K 10000000010000000851           
CUS0420920000104172651004         AMOS, NICOLE        1706 GORSUCH AVE                        000N        CARE OF             
MTR04209200001000000000000000RA              74688166    005802490000024900000350000003NN  NNW 000                       N    
RDG04209200WATRL000000004K00000000000000105024606222015091255N000000000000N40       000280400K 10000000010000000092           
CUS0420920000104172652002         MARY RICHARDSON     1704 GORSUCH AVE                        000N        CARE OF             
MTR04209200001000000000000000RA              46880027    005802500000025000000520000003NN  NNW 000                       N    
RDG04209200WATRL000000004K00000000000002166024906222015091341N000400000010N40       000300400K 10000000010000002153           
CUS0420920000104172653000         MD REALTY INVESTMENT1702 GORSUCH AVE                        000N        CARE OF             
MTR04209200001000000000000000RA              50789435    005802510000025100000520000003NN  NNW 000                       N    
RDG04209200WATRL000000004K00000000000001306025006222015091354N000000000000N40       000130400K 10000000010000001266           
CUS0420920000104172654008         MCCALL PROPERTIES, L1700 GORSUCH AVE                        000N        CARE OF             
MTR04209200001000000000000000RA              45388813    007502520000025200000520000003NN  NNW 000                       N    
RDG04209200WATRL000000004K00000000000001203025106222015091431N000000000000N40       000370400K 10000000010000001187           
RTR04209200NN02520252000002520000000002520252000162NY025202520252000000420000000000000000000001    06092015NY020000 N         
RHD04209500NN02850285000002850000000002850285000229NY028502850285000300150000000000000000000001    06092015NY020000 N         
CUS0420950000104172934004         COOK, GREGORY J.    2701 THE ALAMEDA                        000N        CARE OF             
MTR04209500001000000000000000RA              25591932    007500010000000100000520000003NN  NNW 000                       N    
RDG04209500WATRL000000004K00000000000007838000106222015075628N000000000000N83       000000400K 10000000010000007802           
CUS0420950000104172935001         EGBERT P WRIGHT     2703 THE ALAMEDA                        000N        CARE OF             
MTR04209500001000000000000000RA              44030469    007500020000000200000520000003NN  NNW 000                       N    
RDG04209500WATRL000000004K00000000000000000000206222015075650S002000000000N83       000220400K 10000000010000000987           
CUS0420950000104172936009         WINONIA W LITTLEJOHN2705 THE ALAMEDA                        000N        CARE OF             
MTR04209500001000000000000000RA              26011043    005800030000000300000520000003NN  NNW 000                       N    
RDG04209500WATRL000000004K00000000000001952000306222015075718N000100000010N83       000280400K 10000000010000001952           
CUS0420950000104172937007         RODRIGUEZ, HECTOR MA2707 THE ALAMEDA                        000N        CARE OF             
MTR04209500001000000000000000RA              25781355    005800040000000400000520000003NN  NNW 000                       N    
RDG04209500WATRL000000004K00000000000004113000406222015075736N000000000000N83       000180400K 10000000010000004090           
CUS0420950000104172938005         FIRST CHESAPEAKE INV2709 THE ALAMEDA                        000N        CARE OF             
MTR04209500001000000000000000RA              26011024    005800050000000500000520000003NN  NNW 000                       N    
RDG04209500WATRL000000004K00000000000002272000506222015075800N000000000000N83       000240400K 10000000010000002237           
CUS0420950000104172939003         ROBERTSON, ANTOINE  2711 THE ALAMEDA                        000N        CARE OF             
MTR04209500001000000000000000RA              14901211    005800060000000600000310000003NN  NNW 000   VACANT PROPERTY     N    
