FHDNNNN033005541005541005586N                                                                                           016925
RHD04200500NN00860087000000860000000100870087000215NY008700870087001300040000000000000000000001    06092015NY020000 N         
CUS0420050000104163567003         WILKINS SR HERBERT P17-19 E FRANKLIN ST                     000N        CARE OF             
MTR04200500001000000000000000RA              99411510    007500010000000100000570000003NN  NNW 000                       N    
RDG04200500WATRL000000004K00000000000000444000206182015110115N000100000011U81       001440400K 10000000010000000444           
CUS0420050000104163568001         FRANKLIN GARAGE EQUI11-15 E FRANKLIN ST                     000N        CARE OF             
MTR04200500001000000000000000RA              00163729    000100020000000200000570000003NN  NNW 000                       N    
RDG04200500WATRL000000004K00000000000000534000306182015110205N000400000010U81       000500400K 10000000010000000530           
CUS0420050000104163569009         FIRESTONE, STEVEN   9 E FRANKLIN ST                         000N        CARE OF             
MTR04200500001000000000000000RA              78028334    007500030000000300000360000003NN  NNW 000                       N    
RDG04200500WATR 000000004R00000000000000070000006252015190000N000000000000N         000000400R 10000000010000000030           
RFF0420050068311921      ERT      0000  956.44375000140000062520151900000000707252100W 1220000N                               
CUS0420050000104163570007         THRESHOLD PROPERTY, 7 E FRANKLIN ST                         000N        CARE OF             
MTR04200500001000000000000000RA              74814798    007500040000000400000350000003NN  NNW 000                       N    
RDG04200500WATRL000000004K00000000000000040000406182015110350N000000000000U81       001050400K 10000000010000000036           
CUS0420050000104163571005         KLEMKOWSKI, HENRY W.5 E FRANKLIN ST                         000N        CARE OF             
MTR04200500001000000000000000RA              30000222    007500050000000500000570000003NN  NNW 000                       N    
RDG04200500WATRL000000004K00000000000000657000506182015110423N000000000000U81       000330400K 10000000010000000638           
CUS0420050000104163573001         419 CHARLES LLC     419 N CHARLES ST                        000N        CARE OF             
MTR04200500001000000000000000RA              41193080    007500060000000600000520000003NN  NNW 000                       N    
RDG04200500WATRL000000004K00000000000005934000606182015110507N000000000000U81       000440400K 10000000010000005929           
CUS0420050000104163576004         413 NORTH CHARLES ST413 N CHARLES ST                        000N        CARE OF             
MTR04200500001000000000000000RA              00121166    007500070000000700000570000003NN  NNW 000                       N    
RDG04200500WATRL000000004K00000000000002092000706182015110600N000000000000U81       000530400K 10000000010000002092           
CUS0420050000104163577002         DR G EDWARD REAHL JR411 N CHARLES ST                        000N        CARE OF             
MTR04200500001000000000000000RA              77893901    007500080000000800000360000003NN  NNW 000                       N    
RDG04200500WATRL000000004K00000000000000474000806182015110633N000000000010U81       000330400K 10000000010000000000           
CUS0420050000104163578000         AKWARA, SOLOMON O   409 N CHARLES ST                        000N        CARE OF             
MTR04200500001000000000000000RA              41193219    007500090000000900000520000003NN  NNW 000                       N    
RDG04200500WATRL000000004K00000000000006167000906182015110732N000000000000U81       000590400K 10000000010000006160           
CUS0420050000104163580006         405 N. CHARLES LLC  405 N CHARLES ST                        000N        CARE OF             
MTR04200500001000000000000000RA              14914954    001500100000001000000310000003NN  NNW 000                       N    
RDG04200500WATRL000000005K00000000000002548001006182015110754N000000000000U81       000220500K 10000000010000002417           
CUS0420050000104163581004         OLD ANNE ARUNDEL PRO403 N CHARLES ST                        000N        CARE OF             
MTR04200500001000000000000000RA              52292171    007500110000001100000520000003NN  NNW 000                       N    
RDG04200500WATRL000000004K00000000000003202001106182015110819N000000000000U81       000250400K 10000000010000003169           
CUS0420050000104163582002         401 N. CHARLES, LLC.401 N CHARLES ST                        000N        CARE OF             
MTR04200500001000000000000000RA              43905070    007500120000001200000520000003NN  NNW 000                       N    
RDG04200500WATRL000000004K00000000000008831001206182015110857N000000000000U81       000380400K 10000000010000008780           
CUS0420050000104163583000         LANDSMAN, RONALD S  6 E MULBERRY ST                         000N        CARE OF             
MTR04200500001000000000000000RA              29402226    005800130000001300000520000003NN  NNW 000                       N    
RDG04200500WATRL000000004K00000000000004038001306182015110950N000400000010U81       000530400K 10000000010000004026           
CUS0420050000104163584008         WILLIAM B PURPURA   8 E MULBERRY ST                         000N        CARE OF             
MTR04200500001000000000000000RA              52292328    007500140000001400000520000003NN  NNW 000                       N    
RDG04200500WATRL000000004K00000000000000478001406182015111023N000000000000U81       000330400K 10000000010000000476           
CUS0420050000104163585005         RDP HOLDINGS, LLC   10 E MULBERRY ST                        000N        CARE OF             
MTR04200500001000000000000000RA              30528341    007500150000001500000520000003NN  NNW 000                       N    
RDG04200500WATRL000000004K00000000000002350001506182015111050N000000000000U81       000270400K 10000000010000002349           
CUS0420050000104163586003         336 ST PAUL, LLC    336 ST PAUL PL                          000N        CARE OF             
MTR04200500001000000000000000RA              99999999    007500160000001600000620000003NN  NNW 000   FERRULE APPLIED     N    
RDG04200500WATRL000000004K00000000000000530001606182015111102N000000000000U81       000120400K 10000000010000000530           
CUS0420050000104163587001         336 ST PAUL, LLC    7 E MULBERRY ST                         000N        CARE OF             
MTR04200500001000000000000000RA              24773785    005800170000001700000520000003NN  NNW 000   VACANT PROPERTY     N    
RDG04200500WATRL000000004K00000000000000000000106182015105851N000000000000U81       000000400K 10000000010000000000           
CUS0420050000104163589007         347 NORTH CHARLES ST347 N CHARLES ST                        000N        CARE OF             
MTR04200500001000000000000000RA              43905582    007500180000001800000520000003NN  NNW 000                       N    
RDG04200500WATRL000000004K00000000000006074001706182015111212N000400000010U81       000700400K 10000000010000006047           
CUS0420050000104163591003         343 LLC             343 N CHARLES ST                        000N        CARE OF             
MTR04200500001000000000000000RA              99410062    000100190000001900000570000003NN  NNW 000                       N    
RDG04200500WATRL000000004K00000000000001251001806182015111346N000000000000U81       000940400K 10000000010000001239           
CUS0420050000104163593009         WRH 337 N CHARLES ST337 N CHARLES ST                        000N        CARE OF             
MTR04200500001000000000000000RA              99411507    007500200000002000000570000003NN  NNW 000                       N    
RDG04200500WATRL000000004K00000000000000350001906182015111421N000000000001U81       000350400K 10000000010000000350           
CUS0420050000104163594007         335, LLC            335 N CHARLES ST                        000N        CARE OF             
MTR04200500001000000000000000RA              28766946    007500210000002100000520000003NN  NNW 000                       N    
RDG04200500WATRL000000004K00000000000003176002006182015111449N000400000010U81       000280400K 10000000010000003173           
CUS0420050000104163596002         WALLACE, ELLIOTT    12 E PLEASANT ST                        000N        CARE OF             
MTR04200500001000000000000000RA              45388324    007500220000002200000520000003NN  NNW 000                       N    
RDG04200500WATRL000000004K00000000000001881002106182015111610N000000000000U81       000810400K 10000000010000001875           
CUS0420050000104163597000         LEGAL 1031 EXCHANGE 317 N CHARLES ST                        000N        CARE OF             
MTR04200500001000000000000000RA              31346480    007500230000002300000520000003NN  NNW 000                       N    
RDG04200500WATRL000000004K00000000000002648002206182015111826N000000000000U81       001360400K 10000000010000002648           
CUS0420050000104163598008         W & K CHARLES STREET315 N CHARLES ST                        000N        CARE OF             
MTR04200500001000000000000000RA              35112913    007500240000002400000520000003NN  NNW 000                       N    
RDG04200500WATRL000000004K00000000000006991002306182015111847N000400000010U81       000210400K 10000000010000006938           
CUS0420050000104163599006         THDC 313 CHARLES, LL313 N CHARLES ST                        000N        CARE OF             
MTR04200500001000000000000000RA              40248254    007500250000002500000520000003NN  NNW 000                       N    
RDG04200500WATRL000000004K00000000000000385002406182015111954N000300000011U81       000670400K 10000000010000000020           
CUS0420050000104163600002         MANIGAULT COMPANY, L311 N CHARLES ST                        000N        CARE OF             
MTR04200500001000000000000000RA              75426881    007500260000002600000350000003NN  NNW 000                       N    
RDG04200500WATRL000000004K00000000000000520002506182015112023N000000000000U81       000290400K 10000000010000000451           
CUS0420050000104163609003         SUPPLEE BLDG OFFICE 11 E LEXINGTON ST                       000N        CARE OF             
MTR04200500001000000000000000RA              23139100    000100270000002700000520000003NN  NNW 000                       N    
RDG04200500WATRL000000004K00000000000004980002606182015113744N000100000010U81       010410400K 10000000010000004980           
CUS0420050000104163610001         CLEAN CASTLE, INC   9 E LEXINGTON ST                        000N        CARE OF             
MTR04200500001000000000000000RA              70000021    001500280000002800000570000003NN  NNW 000                       N    
RDG04200500WATRL000000005K00000000000001259002706182015113822N000000000000U81       000380500K 10000000010000001190           
CUS0420050000104163611009         CHIKWERE, CHIABUOTU 7 E LEXINGTON ST                        000N        CARE OF             
MTR04200500001000000000000000RA              1179163     001500290000002900000490000003NN  NNW 000                       N    
RDG04200500WATRL000000005K00000000000001701002806182015113852N000000000010U81       000300500K 10000000010000001700           
CUS0420050000104163613005         16 E. FAYETTE ST., L16-18 E FAYETTE ST                      000N        CARE OF             
MTR04200500001000000000000000RA              10002817    005800300000003000000570000000NY  NNW 000                       N    
MTM0420050010002817    cant locate                                                                                            
RDG04200500WATRL000000004K00000000000000000002900000000000000 000000000000U         000000400  10000000010000000171           
CUS0420050000104163614003         100 ST. PAUL, LLC   24-26 E FAYETTE ST                      000N        CARE OF             
MTR04200500001000000000000000RA              00118572    007500310000003100000570000003NY  NNW 000                       N    
MTM0420050000118572    cant locate                                                                                            
RDG04200500WATRL000000004K00000000000000000000000000000000000 000000000000U         000000400  10000000010000002057           
CUS0420050000104163615000         REGIONAL MGMT INC   15 E FAYETTE ST                         000N        CARE OF             
MTR04200500001000000000000000RA              14914689    001500320000003200000310000003NN  NNW 000                       N    
RDG04200500WATRL000000005K00000000000004737003106182015114825N000000000000U81       000270500K 10000000010000004660           
CUS0420050000104163616008         REGIONAL MANAG INC. 11-13 E FAYETTE ST                      000N        CARE OF             
MTR04200500001000000000000000RA              30000546    007500330000003300000570000003NN  NNW 000                       N    
RDG04200500WATRL000000004K00000000000001466003006182015114758N000000000000U81       003580400K 10000000010000001449           
CUS0420050000104163629001         326 ST. PAUL PLACE, 326 ST PAUL PL                          000N        CARE OF             
MTR04200500001000000000000000RA              27316363    001500340000003400000520000003NN  NNW 000                       N    
RDG04200500WATRL000000005K00000000000002111003206182015120026N000000000000U81       007210500K 10000000010000002102           
CUS0420050000104163630009         330-332 ST PAUL, LLC330-32 ST PAUL PL                       000N        CARE OF             
MTR04200500001000000000000000RA              99999999    005800350000003500000620000003NN  NNW 000   FERRULE APPLIED     N    
RDG04200500WATRL000000004K00000000000000000003306182015120040N000000000000U81       000140400K 10000000010000000000           
CUS0420050000104456388000         330-332 ST PAUL, LLC330-32 ST PAUL PL                       000N        CARE OF             
MTR04200500001000000000000000RA              76350285    000100360000003600000350000003NN  NNW 000                       N    
RDG04200500WATRL000000004K00000000000000045003506182015120128N000000000000U81       000160400K 10000000010000000045           
CUS0420050000104163631007         FORMAN GEOFFREY L (E334 ST PAUL PL                          000N        CARE OF             
MTR04200500001000000000000000RA              44030640    007500370000003700000520000003NN  NNW 000                       N    
RDG04200500WATRL000000004K00000000000001376003406182015120112N000400000010U81       000320400K 10000000010000001371           
CUS0420050000104163632005         425 ST PAUL PLACE   423-25 ST PAUL PL                       000N        CARE OF             
MTR04200500001000000000000000RA              30526102    007500380000003800000520000003NN  NNW 000                       N    
RDG04200500WATRL000000004K00000000000007075002206202015105320N000000000000U81       001040400K 10000000010000007068           
CUS0420050000104163633003         GARDENS REPRODUCTION419-21 ST PAUL PL                       000N        CARE OF             
MTR04200500001000000000000000RA              00166624    000100390000003900000570000003NN  NNW 000                       N    
RDG04200500WATRL000000004K00000000000001132002106202015105136N000400000010U81       003420400K 10000000010000001114           
CUS0420050000104163634001         L.P. HOLDINGS, LLC. 417 ST PAUL PL                          000N        CARE OF             
MTR04200500001000000000000000RA              74814989    007500400000004000000350000003NY  NNW 000                       N    
MTM0420050074814989    78027753                                                                                               
RDG04200500WATRL000000004K00000000000000001002506202015105714N000004100010U81       000630400K 10000000010000000005           
CUS0420050000104163635008         415 ST PAUL STREET L415 ST PAUL PL                          000N        CARE OF             
MTR04200500001000000000000000RA              45389098    007500410000004100000520000003NN  NNW 000                       N    
RDG04200500WATRL000000004K00000000000000000002406202015105611S002000000000U81       000110400K 10000000010000000468           
CUS0420050000104163636006         CALLEGARY, CLAUDE L 413 ST PAUL PL                          000N        CARE OF             
MTR04200500001000000000000000RA              26191862    007500420000004200000520000003NN  NNW 000                       N    
RDG04200500WATRL000000004K00000000000005697002306202015105600N000100000010U81       001600400K 10000000010000005697           
CUS0420050000104163637004         BUREAU OF TRANS     406 HARGROVE ST                         000N        CARE OF             
MTR04200500001000000000000000RA              33731832    007500430000004300000520000003NN  NNW 000                       N    
RDG04200500WATRL000000004K00000000000000499002606202015105747N000000000001U81       000330400K 10000000010000000499           
CUS0420050000104163647003         BUREAU PK PATTERSON SEC SARATOGA ST &                       000N        CARE OF             
MTR04200500001000000000000000RA              99291571    005800440000004400000570000003NY  NNW 000                       N    
MTM0420050099291571    cant locate                                                                                            
RDG04200500WATRL000000004K00000000000000000000000000000000000 000000000000U         000000400  10000000010000000256           
CUS0420050000104163650007         RAE DEVELOPMENT CORP211 ST PAUL PL                          000N        CARE OF             
MTR04200500001000000000000000RA              99409879    000100450000004500000570000003NN  NNW 000                       N    
RDG04200500WATRL000000004K00000000000004702002806202015110422N000300000010U81       003380400K 10000000010000004602           
CUS0420050000104163651005         BUREAU OF PARKS     NWC ST PAUL PL                          000N        CARE OF             
MTR04200500001000000000000000RA              27826885    005800460000004600000520000003NY  NNW 000                       N    
MTM0420050027826885    cant locate                                                                                            
RDG04200500WATRL000000004K00000000000000000000000000000000000 000000000000U         000000400  10000000010000000192           
CUS0420050000104163663000         ANNE PERRONE        426 N CALVERT ST                        000N        CARE OF             
MTR04200500001000000000000000RA              76344639    005800470000004700000350000003NN  NNW 000                       N    
RDG04200500WATRL000000004K00000000000000023002006202015104554N000400000010U81       001700400K 10000000010000000020           
CUS0420050000104163664008         501 ST PAUL STREET L428-32 N CALVERT ST                     000N        CARE OF             
MTR04200500001000000000000000RA              14918455    007500480000004800000310000003NN  NNW 000                       N    
RDG04200500WATRL000000004K00000000000000090001906202015104304N000000000000U81       021330400K 10000000010000000090           
CUS0420050000104163665005         MERCY MEDICAL CENTER357-59 N CALVERT ST                     000N        CARE OF             
MTR04200500001000000000000000RA              14912802    005800490000004900000310000003NY  NNW 000                       N    
MTM0420050014912802    78022487                                                                                               
RDG04200500WATRL000000004K00000000000000008001606202015100356N000004100010U81       000880400K 10000000010000000953           
CUS0420050000104163666003         MERCY MEDICAL CENTER355 N CALVERT ST                        000N        CARE OF             
MTR04200500001000000000000000RA              00120429    007500500000005000000570000003NN  NNW 000                       N    
RDG04200500WATRL000000004K00000000000000976001706202015100634N000400000010U81       001580400K 10000000010000000956           
CUS0420050000104163667001         MERCY MEDICAL CENTER353 N CALVERT ST                        000N        CARE OF             
MTR04200500001000000000000000RA              99080613    007500510000005100000570000003NN  NNW 000                       N    
RDG04200500WATRL000000004K00000000000000000001806202015100731S063000000000U81       000570400K 10000000010000001745           
CUS0420050000104163668009         DONALD DANEMAN ETAL 349-51 N CALVERT ST                     000N        CARE OF             
MTR04200500001000000000000000RA              44030741    007500520000005200000520000003NN  NNW 000                       N    
RDG04200500WATRL000000004K00000000000000787001506202015100228N000000000000U81       002780400K 10000000010000000783           
CUS0420050000104163669007         MERCY MEDICAL CENTER347 N CALVERT ST                        000N        CARE OF             
MTR04200500001000000000000000RA              99258971    000100530000005300000570000003NY  NNW 000                       N    
MTM0420050099258971    defective plate                                                                                        
RDG04200500WATRL000000004K00000000000000000000000000000000000 000000000000U         000000400  10000000010000000241           
CUS0420050000104163676002         MERCY MEDICAL CENTER315-19 N CALVERT ST                     000N        CARE OF             
MTR04200500001000000000000000RA              37690771    000100540000005400000520000003NY  NNW 000                       N    
MTM0420050037690771    buried                                                                                                 
RDG04200500WATRL000000004K00000000000000000000000000000000000 000000000000U         000000400  10000000010000009386           
CUS0420050000104163677000         LEE, KEVIN          311 N CALVERT ST                        000N        CARE OF             
MTR04200500001000000000000000RA              27333590    007500550000005500000520000003NN  NNW 000                       N    
RDG04200500WATRL000000004K00000000000001916001406202015095750N000000000000U81       001860400K 10000000010000001861           
CUS0420050000104163682000         BLB VENTURES, LLC   310-12 GUILFORD AVE                     000N        CARE OF             
MTR04200500001000000000000000RA              46889512    007500560000005600000520000003NN  NNW 000                       N    
RDG04200500WATRL000000004K00000000000004672001306202015095444N000000000000U81       001580400K 10000000010000004672           
CUS0420050000104163685003         203 DAVIS LLC       203 DAVIS ST                            000N        CARE OF             
MTR04200500001000000000000000RA              10001425    005800570000005700000570000003NN  NNW 000   VACANT PROPERTY     N    
RDG04200500WATRL000000004K00000000000000079001106202015095026N000000000000U81       008210400K 10000000010000000079           
CUS0420050000104163686001         SIM, HYE S          206-08 E LEXINGTON ST                   000N        CARE OF             
MTR04200500001000000000000000RA              35098188    005800580000005800000520000003NY  NNW 000                       N    
MTM0420050035098188    construction                                                                                           
RDG04200500WATRL000000004K00000000000000000000000000000000000 000000000000U         000000400  10000000010000001286           
CUS0420050000104447612005         NO VALID READING    210 GUILFORD AVE                        000N        CARE OF             
MTR04200500001000000000000000RA              00000000    000000590000005900000600000000NN  NNW 000   INVALID DAC         N    
RDG04200500WATRL000000004K00000000000000000000000000000000000 000000000000U         000000400  10000000010009999999           
CUS0420050000104163687009         DIRECTOR OF FINANCE 220 GUILFORD AVE                        000N        CARE OF             
MTR04200500001000000000000000RA              14914717    001500600000006000000310000003NN  NNW 000                       N    
RDG04200500WATRL000000005K00000000000006566001206202015095206N000000000000U81       001000500K 10000000010000006556           
CUS0420050000104163688007         VAN SANT, LLC       210 E LEXINGTON ST                      000N        CARE OF             
MTR04200500001000000000000000RA              00163745    000100610000006100000570000003NN  NNW 000                       N    
RDG04200500WATRL000000004K00000000000002788000706202015093523N000400000010U81       005890400K 10000000010000002780           
CUS0420050000104163689005         DRAW COMMERCIAL PROP212 E LEXINGTON ST                      000N        CARE OF             
MTR04200500001000000000000000RA              14914718    001500620000006200000310000003NN  NNW 000   VACANT PROPERTY     N    
RDG04200500WATRL000000005K00000000000000824000806202015093555N000000000000U81       000320500K 10000000010000000824           
CUS0420050000104163690003         214 E LEXINGTON ST  214 E LEXINGTON ST                      000N        CARE OF             
MTR04200500001000000000000000RA              33731882    007500630000006300000520000003NN  NNW 000                       N    
RDG04200500WATRL000000004K00000000000007226000906202015093625N000000000000U81       000300400K 10000000010000007219           
CUS0420050000104163691001         MAKDADDY, LLC       216 E LEXINGTON ST                      000N        CARE OF             
MTR04200500001000000000000000RA              24763599    005800640000006400000520000003NN  NNW 000                       N    
RDG04200500WATRL000000004K00000000000006001001006202015093645N000000000000U81       000200400K 10000000010000005995           
CUS0420050000104406733008         OFF STREET PARKING  510 E LEXINGTON ST                      000N        CARE OF             
MTR04200500001000000000000000RA              52288324    005800650000006500000520000000NN  NNW 000                       N    
RDG04200500WATRL000000004K00000000000004772000606202015092534N000400000021U81       001380400K 10000000010000004763           
CUS0420050000104163724000         EARLY MORNING SOFTWA227-29 HOLLIDAY ST                      000N        CARE OF             
MTR04200500001000000000000000RA              99314705    000100660000006600000570000003NY  NNW 000                       N    
MTM0420050099314705    defective plate                                                                                        
RDG04200500WATRL000000004K00000000000000000000000000000000000 000000000000U         000000400  10000000010000001384           
CUS0420050000104163725007         INDEPENDENT WORLD TE231-33 HOLLIDAY ST                      000N        CARE OF             
MTR04200500001000000000000000RA              00066882    001500670000006700000570000003NN  NNW 000                       N    
RDG04200500WATRL000000005K00000000000000098000506202015091706N000000000000U81       009750500K 10000000010000000084           
CUS0420050000104163726005         INDEPENDENT WORLD TE237-39 HOLLIDAY ST                      000N        CARE OF             
MTR04200500001000000000000000RA              29724216    001500680000006800000520000003NY  NNW 000                       N    
MTM0420050029724216    cant locate                                                                                            
RDG04200500WATRL000000005K00000000000000000000000000000000000 000000000000U         000000500  10000000010000000334           
CUS0420050000104163735006         MAYOR & CITY COUNCIL201 FALLSWAY                            000N        CARE OF             
MTR04200500001000000000000000RA              00163744    000100690000006900000570000003NN  NNW 000                       N    
RDG04200500WATRL000000004K00000000000000908000206202015090051N000000000011U81       002690400K 10000000010000000896           
CUS0420050000104163736004         HOLLIDAY-SARATOGA II162-64 N GAY ST                         000N        CARE OF             
MTR04200500001000000000000000RA              9551485     005800700000007000000440000003NN  NNW 000   VACANT PROPERTY     N    
RDG04200500WATRL000000004K00000000000000163000306202015085620N000000000000U81       000070400K 10000000010000000163           
CUS0420050000104163737002         HOLLIDAY-SARATOGA II160 N GAY ST                            000N        CARE OF             
MTR04200500001000000000000000RA              99999999    005800710000007100000620000000NN  NNW 000   VACANT PROPERTY     N    
RDG04200500WATRL000000004K00000000000000000000406202015085622N000000000000U81       000020400K 10000000010000000000           
CUS0420050000104163738000         ZION CHURCH         140 N GAY ST                            000N        CARE OF             
MTR04200500001000000000000000RA              14914711    001500720000007200000310000003NN  NNW 000                       N    
RDG04200500WATRL000000005K00000000000002678003406202015112620N000400000010U81       005090500K 10000000010000002656           
CUS0420050000104163739008         ZION LUTHERAN       148-50 N GAY ST                         000N        CARE OF             
MTR04200500001000000000000000RA              78021108    005800730000007300000350000003NN  NNW 000                       N    
RDG04200500WATRL000000004K00000000000000000003506202015112657S063000000000U81       000370400K 10000000010000000044           
CUS0420050000104163740006         ZION CHURCH OF BALTO140 N GAY ST                            000N        CARE OF             
MTR04200500001000000000000000RA              78028510    007500740000007400000350000003NN  NNW 000                       N    
RDG04200500WATRL000000004K00000000000000000003606202015112701N000000000000U81       000040400K 10000000010000000000           
CUS0420050000104163745005         BUREAU OF PARKS     SEC FALLSWAY & FAYETTE ST               000N        CARE OF             
MTR04200500001000000000000000RA              99999999    005800750000007500000620000003NN  NNW 000                       N    
RDG04200500WATRL000000004K00000000000000052000106202015084407N000000000000U81       000000400K 10000000010000000052           
CUS0420050000104163753009         414-416 E BALTIMORE 414-16 E BALTIMORE ST                   000N        CARE OF             
MTR04200500001000000000000000RA              14914840    001500760000007600000310000003NN  NNW 000                       N    
RDG04200500WATRL000000005K00000000000000000000000000000000000 000000000000U         000000500  10000000010000010999           
CUS0420050000104163754007         EILEEN LEVINE       412 E BALTIMORE ST                      000N        CARE OF             
MTR04200500001000000000000000RA              46890101    007500770000007700000520000003NN  NNW 000                       N    
RDG04200500WATRL000000004K00000000000008923003006202015111617N000400000010U81       006390400K 10000000010000008913           
CUS0420050000104163755004         NGA410, LLC         408-10 E BALTIMORE ST                   000N        CARE OF             
MTR04200500001000000000000000RA              50384397    000100780000007800000520000003NN  NNW 000                       N    
RDG04200500WATRL000000004K00000000000005745003106202015111648N000000000000U81       000310400K 10000000010000005497           
CUS0420050000104163756002         MIPAZ 500 LLC       404-06 E BALTIMORE ST                   000N        CARE OF             
MTR04200500001000000000000000RA              8639606     007500790000007900000440000003NN  NNW 000   VACANT PROPERTY     N    
RDG04200500WATRL000000004K00000000000000000000000000000000000 000000000000U         000000400  10000000010000015100           
CUS0420050000104163757000         SHERWOOD FAMILY LIMI400-02 E BALTIMORE ST                   000N        CARE OF             
MTR04200500001000000000000000RA              39267058    000100800000008000000520000003NN  NNW 000   VACANT PROPERTY     N    
RDG04200500WATRL000000004K00000000000005026003206202015111744N000000000000U81       000560400K 10000000010000005026           
CUS0420050000104163762000         MAYOR & CITY COUNCIL300-02 E BALTIMORE ST                   000N        CARE OF             
MTR04200500001000000000000000RA              99999999    001500810000008100000620000003NN  NNW 000                       N    
RDG04200500WATRL000000005K00000000000000000003306202015111751S002000000000U81       000070500K 10000000010000033966           
CUS0420050000104163764006         ADAM PROPERTIES, LLC227 E BALTIMORE ST                      000N        CARE OF             
MTR04200500001000000000000000RA              00118254    007500820000008200000570000003NN  NNW 000                       N    
RDG04200500WATRL000000004K00000000000003577004206202015114320N000000000000U81       000340400K 10000000010000003412           
CUS0420050000104163765003         SLRD-MD INVESTMENTS 225 E BALTIMORE ST                      000N        CARE OF             
MTR04200500001000000000000000RA              00163725    000100830000008300000570000003NN  NNW 000                       N    
RDG04200500WATRL000000004K00000000000000710004106202015114246N000100000010U81       001730400K 10000000010000000710           
CUS0420050000104163766001         KM GROUP LLC        217 E BALTIMORE ST                      000N        CARE OF             
MTR04200500001000000000000000RA              25486115    007500840000008400000520000003NN  NNW 000                       N    
RDG04200500WATRL000000004K00000000000000000000000000000000000 000000000000U         000000400  10000000010000001440           
CUS0420050000104163767009         213 E BALTIMORE LLC 215 E BALTIMORE ST                      000N        CARE OF             
MTR04200500001000000000000000RA              45389361    007500850000008500000520000003NN  NNW 000   VACANT PROPERTY     N    
RDG04200500WATRL000000004K00000000000001853003906202015113655N000000000000U81       000170400K 10000000010000001853           
CUS0420050000104163769005         ATTICUS GROUP, LLC  12 S CALVERT ST                         000N        CARE OF             
MTR04200500001000000000000000RA              01104940    001500860000008600000610000003NN  NNW 000   VACANT PROPERTY     N    
RDG04200500WATRL000000005K00000000000000931003806202015113638N000000000000U81       000050500K 10000000010000000931           
CUS0420050000104163777008         MCDONALD'S # 2763   101-03 E BALTIMORE ST                   000N        CARE OF             
MTR04200500001000000000000000RA              60900882    001500870000008700000610000003NN  NNW 000                       N    
RDG04200500WATRL000000005K00000000000000170003706202015113633N000000000010U81       005720500K 10000000010000000000           
RTR04200500NN00860087000000860000000100870087000215NY008700870087001300040000000000000000000001    06092015NY020000 N         
RHD06303900NN01050105000001050000000001050105000058NY010501050105000200050000000000000000000002    06102015NY020000 N         
CUS0630390000106183781001         KAJA HOLDINGS 2, LLC2616 ORLEANS ST                         000N        CARE OF             
MTR06303900001000000000000000RA              75614359    005800010000000100000350000003NN  NNW 000                       N    
RDG06303900WATRL000000004K00000000000000218001306232015064718N000100000020N65       000640400K 10000000010000000218           
CUS0630390000106183782009         FORREST, ALISA MAE  2614 ORLEANS ST                         000N        CARE OF             
MTR06303900001000000000000000RA              75426395    005800020000000200000350000003NN  NNW 000                       N    
RDG06303900WATRL000000004K00000000000000016001406232015064736N000100000010N65       000180400K 10000000010000000016           
CUS0630390000106183783007         MARY COVE           2612 ORLEANS ST                         000N        CARE OF             
MTR06303900001000000000000000RA              75615268    005800030000000300000350000003NN  NNW 000                       N    
RDG06303900WATRL000000004K00000000000000404001506232015064758N000000000000N65       000220400K 10000000010000000404           
CUS0630390000106183784005         DILONE, JUAN F.     2610 ORLEANS ST                         000N        CARE OF             
MTR06303900001000000000000000RA              21729833    005800040000000400000590000003NN  NNW 000                       N    
RDG06303900WATRL000000004K00000000000000000001606232015064824S019000000000N65       000260400K 10000000010000002302           
CUS0630390000106183789004         PATTERSON PARK VI, L411 N GLOVER ST                         000N        CARE OF             
MTR06303900001000000000000000RA              75425574    005800050000000500000350000003NN  NNW 000                       N    
RDG06303900WATRL000000004K00000000000000126000106232015063937N000000000000N65       000000400K 10000000010000000105           
CUS0630390000106183790002         BANK OF AMERICA, NA 413 N GLOVER ST                         000N        CARE OF             
MTR06303900001000000000000000RA              75618126    005800060000000600000350000003NN  NNW 000   VACANT PROPERTY     N    
RDG06303900WATRL000000004K00000000000000000000206232015063956N000000000000N65       000190400K 10000000010000000000           
CUS0630390000106183791000         STOKES, VERONICA    415 N GLOVER ST                         000N        CARE OF             
MTR06303900001000000000000000RA              77887507    005800070000000700000360000003NN  NNW 000                       N    
RDG06303900WATRL000000004K00000000000000000000306232015064019N000000000000N65       000230400K 10000000010000000000           
CUS0630390000106183793006         LUCRATIVE INVESTMENT421 N GLOVER ST                         000N        CARE OF             
MTR06303900001000000000000000RA              75425601    005800080000000800000350000003NN  NNW 000                       N    
RDG06303900WATRL000000004K00000000000000207000406232015064048N000000000000N65       000290400K 10000000010000000194           
CUS0630390000106183794004         EMA INVESTMENTS, LLC423 N GLOVER ST                         000N        CARE OF             
MTR06303900001000000000000000RA              75615237    005800090000000900000350000003NY  NNW 000                       N    
MTM0630390075615237    COVERED                                                                                                
RDG06303900WATRL000000004K00000000000000000000000000000000000 000000000000U         000000400  10000000010000000185           
CUS0630390000106366666003         BROOKLET INC        429 N GLOVER ST                         000N        CARE OF             
MTR06303900001000000000000000RA              75425586    005800100000001000000350000003NN  NNW 000                       N    
RDG06303900WATRL000000004K00000000000000168000506232015064220N000000000000N65       000920400K 10000000010000000153           
CUS0630390000106183798005         AO INVESTMENTS, LLC 433 N GLOVER ST                         000N        CARE OF             
MTR06303900001000000000000000RA              75425593    005800110000001100000350000003NN  NNW 000                       N    
RDG06303900WATRL000000004K00000000000000193000606232015064301N000000000000N65       000410400K 10000000010000000174           
CUS0630390000106183799003         MJR PROPERTIES, LLC 435 N GLOVER ST                         000N        CARE OF             
MTR06303900001000000000000000RA              75615275    005800120000001200000350000003NN  NNW 000                       N    
RDG06303900WATRL000000004K00000000000000082000706232015064338N000000000000N65       000370400K 10000000010000000071           
CUS0630390000106183800009         WILSON, RUSSELL A   437 N GLOVER ST                         000N        CARE OF             
MTR06303900001000000000000000RA              75425594    005800130000001300000350000003NN  NNW 000                       N    
RDG06303900WATRL000000004K00000000000000164000806232015064359N000000000000N65       000210400K 10000000010000000150           
CUS0630390000106366641006         RODRIGUEZ, FELIX ROD424 N GLOVER ST                         000N        CARE OF             
MTR06303900001000000000000000RA              75425575    005800140000001400000350000003NN  NNW 000   VACANT PROPERTY     N    
RDG06303900WATRL000000004K00000000000000030000906232015064439N000000000000N65       000400400K 10000000010000000030           
CUS0630390000106183801007         TYHAI PROPERTIES, LL422 N GLOVER ST                         000N        CARE OF             
MTR06303900001000000000000000RA              75425578    005800150000001500000350000003NN  NNW 000                       N    
RDG06303900WATRL000000004K00000000000000183001006232015064456N000000000000N65       000170400K 10000000010000000165           
CUS0630390000106183803003         TYHAI PROPERTIES, LL418 N GLOVER ST                         000N        CARE OF             
MTR06303900001000000000000000RA              75425583    005800160000001600000350000003NN  NNW 000                       N    
RDG06303900WATRL000000004K00000000000000070001106232015064525N000300000010N65       000290400K 10000000010000000042           
CUS0630390000106183808002         EDWARD HAUGHNEY     400 N GLOVER ST                         000N        CARE OF             
MTR06303900001000000000000000RA              75425579    005800170000001700000350000003NN  NNW 000                       N    
RDG06303900WATRL000000004K00000000000000037001206232015064614N000000000000N65       000490400K 10000000010000000033           
CUS0630390000106183809000         MAGHSADI, NASER     2608 ORLEANS ST                         000N        CARE OF             
MTR06303900001000000000000000RA              75614759    005800180000001800000350000003NN  NNW 000                       N    
RDG06303900WATRL000000004K00000000000000129001706232015064855N000000000000N65       000310400K 10000000010000000117           
CUS0630390000106183811006         NEGASI, ASGHEDOM    2604 ORLEANS ST                         000N        CARE OF             
MTR06303900001000000000000000RA              75613806    005800190000001900000350000003NN  NNW 000                       N    
RDG06303900WATRL000000004K00000000000000181001806232015064918N000000000000N65       000230400K 10000000010000000165           
CUS0630390000106354093004         BORNS, JOSEPH P.    2602 ORLEANS ST                         000N        CARE OF             
MTR06303900001000000000000000RA              75614747    005800200000002000000350000003NN  NNW 000                       N    
RDG06303900WATRL000000004K00000000000000518001906232015064935N000000000000N65       000170400K 10000000010000000513           
CUS0630390000106183812004         RODRIQUES, SUELI SAN2600 ORLEANS ST                         000N        CARE OF             
MTR06303900001000000000000000RA              75614754    005800210000002100000350000003NN  NNW 000                       N    
RDG06303900WATRL000000004K00000000000000000002006232015064954N000000000000N65       000190400K 10000000010000000000           
CUS0630390000106183815007         THE EASTSIDE VETERAN411 N LUZERNE AVE                       000N        CARE OF             
MTR06303900001000000000000000RA              77888927    005800220000002200000360000003NN  NNW 000                       N    
RDG06303900WATRL000000004K00000000000000004002106232015065115N000000000010N65       000810400K 10000000010000000000           
CUS0630390000106349805009         DENNIS, ZACHARY D.  419 N LUZERNE AVE                       000N        CARE OF             
MTR06303900001000000000000000RA              75613733    005800230000002300000350000003NN  NNW 000                       N    
RDG06303900WATRL000000004K00000000000000095002206232015065150N000300000010N65       000350400K 10000000010000000068           
CUS0630390000106183819009         MINOR III, EVERETT  425 N LUZERNE AVE                       000N        CARE OF             
MTR06303900001000000000000000RA              75425567    005800240000002400000350000003NN  NNW 000                       N    
RDG06303900WATRL000000004K00000000000000355002306232015065215N000000000000N65       000250400K 10000000010000000329           
CUS0630390000106183822003         BROWN, STARR        437 N LUZERNE AVE                       000N        CARE OF             
MTR06303900001000000000000000RA              75425570    005800250000002500000350000003NN  NNW 000                       N    
RDG06303900WATRL000000004K00000000000000073002406232015065300N000000000000N65       000450400K 10000000010000000066           
CUS0630390000106183825006         MAX WEISFELD        436 N LUZERNE AVE                       000N        CARE OF             
MTR06303900001000000000000000RA              75617267    005800260000002600000350000003NN  NNW 000                       N    
RDG06303900WATRL000000004K00000000000000065002506232015065346N000000000000N65       000460400K 10000000010000000055           
CUS0630390000106350987001         MCALLISTER, IAN     424 N LUZERNE AVE                       000N        CARE OF             
MTR06303900001000000000000000RA              75425580    005800270000002700000350000003NN  NNW 000   VACANT PROPERTY     N    
RDG06303900WATRL000000004K00000000000000011002606232015065443N000000000000N65       000570400K 10000000010000000011           
CUS0630390000106183830006         MINOR III, EVERETT  420 N LUZERNE AVE                       000N        CARE OF             
MTR06303900001000000000000000RA              75425582    005800280000002800000350000003NN  NNW 000                       N    
RDG06303900WATRL000000004K00000000000000069002706232015065502N000000000000N65       000190400K 10000000010000000063           
CUS0630390000106183831004         POWELL, NANNETTE    418 N LUZERNE AVE                       000N        CARE OF             
MTR06303900001000000000000000RA              10023185    005800290000002900000570000003NN  NNW 000                       N    
RDG06303900WATRL000000004K00000000000000160002806232015065527N000400000010N65       000250400K 10000000010000000148           
CUS0630390000106183832002         REID, JULIA M.      416 N LUZERNE AVE                       000N        CARE OF             
MTR06303900001000000000000000RA              75425584    005800300000003000000350000003NN  NNW 000                       N    
RDG06303900WATRL000000004K00000000000001866002906232015065548N000000000000N65       000210400K 10000000010000001473           
CUS0630390000106183834008         CAPTIVATE E BALTIMOR412 N LUZERNE AVE                       000N        CARE OF             
MTR06303900001000000000000000RA              75617265    005800310000003100000350000003NN  NNW 000                       N    
RDG06303900WATRL000000004K00000000000000002003006232015065620N000000000010N65       000320400K 10000000010000000001           
CUS0630390000106354105006         SANFORD KREISLER    407 N ROSE ST                           000N        CARE OF             
MTR06303900001000000000000000RA              75426679    005800320000003200000350000003NN  NNW 000   VACANT PROPERTY     N    
RDG06303900WATRL000000004K00000000000000000003106232015065821S002000000000N65       001210400K 10000000010000000000           
CUS0630390000106183839007         WELLS FARGO BANK, NA409 N ROSE ST                           000N        CARE OF             
MTR06303900001000000000000000RA              75617708    005800330000003300000350000003NN  NNW 000   VACANT PROPERTY     N    
RDG06303900WATRL000000004K00000000000000000003206232015065835S002000000000N65       000140400K 10000000010000000076           
CUS0630390000106183840005         PALMER LIPSCOMB, SHE411 N ROSE ST                           000N        CARE OF             
MTR06303900001000000000000000RA              78006729    005800340000003400000360000003NN  NNW 000                       N    
RDG06303900WATRL000000004K00000000000000000003306232015065901N000100000010N65       000260400K 10000000010000000000           
CUS0630390000106183841003         2312 E BIDDLE ST INC413 N ROSE ST                           000N        CARE OF             
MTR06303900001000000000000000RA              75615267    005800350000003500000350000003NN  NNW 000                       N    
RDG06303900WATRL000000004K00000000000000123003406232015065919N000400000010N65       000180400K 10000000010000000112           
CUS0630390000106183842001         DUNN INVESTMENTS, LL415 N ROSE ST                           000N        CARE OF             
MTR06303900001000000000000000RA              75426647    005800360000003600000350000003NN  NNW 000                       N    
RDG06303900WATRL000000004K00000000000000305003506232015065934N000000000000N65       000150400K 10000000010000000280           
CUS0630390000106183844007         DOVEL, ANDREW R     419 N ROSE ST                           000N        CARE OF             
MTR06303900001000000000000000RA              75426284    005800370000003700000350000003NN  NNW 000                       N    
RDG06303900WATRL000000004K00000000000000344003606232015065954N000000000000N65       000200400K 10000000010000000331           
CUS0630390000106183845004         425 N ROSE LLC      425 N ROSE ST                           000N        CARE OF             
MTR06303900001000000000000000RA              75614065    005800380000003800000350000003NN  NNW 000                       N    
RDG06303900WATRL000000004K00000000000000128003706232015070024N000100000010N65       000300400K 10000000010000000128           
CUS0630390000106183846002         CAMPBELL, CHRISTAL L429 N ROSE ST                           000N        CARE OF             
MTR06303900001000000000000000RA              75614058    005800390000003900000350000003NN  NNW 000                       N    
RDG06303900WATRL000000004K00000000000000000003806232015070043N000000000000N65       000190400K 10000000010000000000           
CUS0630390000106183847000         CHILDS JR, RONALD O 438 N ROSE ST                           000N        CARE OF             
MTR06303900001000000000000000RA              75615273    005800400000004000000350000003NN  NNW 000                       N    
RDG06303900WATRL000000004K00000000000000158003906232015070123N000000000000N65       000400400K 10000000010000000144           
CUS0630390000106183848008         LAIR, DELBERT J.    434 N ROSE ST                           000N        CARE OF             
MTR06303900001000000000000000RA              75614328    005800410000004100000350000003NN  NNW 000                       N    
RDG06303900WATRL000000004K00000000000000000004006232015070150N000000000000N65       000270400K 10000000010000000000           
CUS0630390000106183849006         TORRES, ABINADI TORR432 N ROSE ST                           000N        CARE OF             
MTR06303900001000000000000000RA              75614067    005800420000004200000350000003NN  NNW 000                       N    
RDG06303900WATRL000000004K00000000000000101004106232015070208N000000000000N65       000180400K 10000000010000000090           
CUS0630390000106183851002         PATTERSON PARK VI, L428 N ROSE ST                           000N        CARE OF             
MTR06303900001000000000000000RA              75613666    005800430000004300000350000003NN  NNW 000                       N    
RDG06303900WATRL000000004K00000000000000166004206232015070227N000400000010N65       000190400K 10000000010000000162           
CUS0630390000106183852000         SCHOBER, MARTHA     426 N ROSE ST                           000N        CARE OF             
MTR06303900001000000000000000RA              75613663    005800440000004400000350000003NN  NNW 000                       N    
RDG06303900WATRL000000004K00000000000000085004306232015070247N000000000000N65       000200400K 10000000010000000070           
CUS0630390000106183853008         ATLANTIC BROADWAY RE424 N ROSE ST                           000N        CARE OF             
MTR06303900001000000000000000RA              75615269    005800450000004500000350000003NN  NNW 000                       N    
RDG06303900WATRL000000004K00000000000000148004406232015070313N000000000000N65       000260400K 10000000010000000131           
CUS0630390000106183854006         PATTERSON PARK I LLC422 N ROSE ST                           000N        CARE OF             
MTR06303900001000000000000000RA              77888836    005800460000004600000360000003NN  NNW 000                       N    
RDG06303900WATRL000000004K00000000000000001004506232015070337N000000000010N65       000240400K 10000000010000000000           
CUS0630390000106183855003         OYOLA, OLINDA M.    418 N ROSE ST                           000N        CARE OF             
MTR06303900001000000000000000RA              21854371    005800470000004700000590000003NN  NNW 000   VACANT PROPERTY     N    
RDG06303900WATRL000000004K00000000000000000004606232015070343S018000000000N65       000060400K 10000000010000002916           
CUS0630390000106183856001         TIMBER PROPERTY MANA416 N ROSE ST                           000N        CARE OF             
MTR06303900001000000000000000RA              75426681    005800480000004800000350000003NN  NNW 000                       N    
RDG06303900WATRL000000004K00000000000000073004706232015070400N000400000010N65       000170400K 10000000010000000061           
CUS0630390000106183858007         RIED INVESTMENTS, LL412 N ROSE ST                           000N        CARE OF             
MTR06303900001000000000000000RA              75426678    005800490000004900000350000003NN  NNW 000                       N    
RDG06303900WATRL000000004K00000000000000000004806232015070429N000000000000N65       000290400K 10000000010000000000           
CUS0630390000106183859005         SANKET PROPERTIES, L408 N ROSE ST                           000N        CARE OF             
MTR06303900001000000000000000RA              75426631    005800500000005000000350000003NN  NNW 000   VACANT PROPERTY     N    
RDG06303900WATRL000000004K00000000000000000004906232015070444N000000000000N65       000150400K 10000000010000000000           
CUS0630390000106350474000         HIJE, NORBERTO L    406 N ROSE ST                           000N        CARE OF             
MTR06303900001000000000000000RA              75426630    005800510000005100000350000003NN  NNW 000                       N    
RDG06303900WATRL000000004K00000000000000156005006232015070509N000000000000N65       000250400K 10000000010000000137           
CUS0630390000106183861001         DIDONATO, CLAUDIO   402 N ROSE ST                           000N        CARE OF             
MTR06303900001000000000000000RA              75426640    005800520000005200000350000003NN  NNW 000                       N    
RDG06303900WATRL000000004K00000000000000198005106232015070527N000000000000N65       000180400K 10000000010000000180           
CUS0630390000106183862009         HAINES, MARGARET    403 N MILTON AVE                        000N        CARE OF             
MTR06303900001000000000000000RA              75426372    005800530000005300000350000003NN  NNW 000                       N    
RDG06303900WATRL000000004K00000000000000078005206232015070641N000000000000N65       000740400K 10000000010000000071           
CUS0630390000106183863007         CARLAN, LAUREN M    405 N MILTON AVE                        000N        CARE OF             
MTR06303900001000000000000000RA              75616116    005800540000005400000350000003NN  NNW 000                       N    
RDG06303900WATRL000000004K00000000000000247005306232015070704N000000000000N65       000230400K 10000000010000000216           
CUS0630390000106183864005         SHAYKHOLESLAMI, BEHR409 N MILTON AVE                        000N        CARE OF             
MTR06303900001000000000000000RA              75426374    005800550000005500000350000003NN  NNW 000   VACANT PROPERTY     N    
RDG06303900WATRL000000004K00000000000000000005406232015070726N000000000000N65       000220400K 10000000010000000000           
CUS0630390000106183865002         KOZLOWSKI, MARGARET 413 N MILTON AVE                        000N        CARE OF             
MTR06303900001000000000000000RA              75426371    005800560000005600000350000003NN  NNW 000                       N    
RDG06303900WATRL000000004K00000000000000006005506232015070747N000000000000N65       000210400K 10000000010000000005           
CUS0630390000106183868006         BERNARD K MORRIS & W421 N MILTON AVE                        000N        CARE OF             
MTR06303900001000000000000000RA              75426375    005800570000005700000350000003NN  NNW 000                       N    
RDG06303900WATRL000000004K00000000000000010005606232015070826N000000000010N65       000390400K 10000000010000000009           
CUS0630390000106183871000         SHARP, JAMES A.     433 N MILTON AVE                        000N        CARE OF             
MTR06303900001000000000000000RA              75426439    005800580000005800000350000003NN  NNW 000                       N    
RDG06303900WATRL000000004K00000000000000260005706232015070900N000400000010N65       000340400K 10000000010000000250           
CUS0630390000106357176004         MILTON 449, LLC     449 N MILTON AVE                        000N        CARE OF             
MTR06303900001000000000000000RA              75615248    005800590000005900000350000003NN  NNW 000                       N    
RDG06303900WATRL000000004K00000000000000227005806232015070948N000000000000N65       000480400K 10000000010000000200           
CUS0630390000106183874004         PATTERSON, HORACE   451 N MILTON AVE                        000N        CARE OF             
MTR06303900001000000000000000RA              75426378    005800600000006000000350000003NN  NNW 000                       N    
RDG06303900WATRL000000004K00000000000000000005906232015071002N000000000000N65       000140400K 10000000010000000000           
CUS0630390000106183875001         JONES, LARAE        2509 JEFFERSON ST                       000N        CARE OF             
MTR06303900001000000000000000RA              74688468    005800610000006100000350000003NN  NNW 000                       N    
RDG06303900WATRL000000004K00000000000000091006006232015071102N000000000000N65       000600400K 10000000010000000084           
CUS0630390000106183877007         HABITAT FOR HUMANITY2513 JEFFERSON ST                       000N        CARE OF             
MTR06303900001000000000000000RA              75616543    005800620000006200000350000003NN  NNW 000                       N    
RDG06303900WATRL000000004K00000000000000002006106232015071144N000000000010N65       000420400K 10000000010000000000           
CUS0630390000106357246005         PARK PLACE INVESTMEN2410 JEFFERSON ST                       000N        CARE OF             
MTR06303900001000000000000000RA              75615344    005800630000006300000350000003NN  NNW 000                       N    
RDG06303900WATRL000000004K00000000000000094010206232015073944N000000000000N65       000360400K 10000000010000000074           
CUS0630390000106183888004         EMPIRE PROPERTY MANA2409 JEFFERSON ST                       000N        CARE OF             
MTR06303900001000000000000000RA              75614498    005800640000006400000350000003NN  NNW 000                       N    
RDG06303900WATRL000000004K00000000000000189010106232015073908N000300000010N65       000660400K 10000000010000000162           
CUS0630390000106183891008         SMALL, PETRO        2419 JEFFERSON ST                       000N        CARE OF             
MTR06303900001000000000000000RA              10019525    005800650000006500000570000003NN  NNW 000                       N    
RDG06303900WATRL000000004K00000000000005002010306232015074043N000300000010N65       000590400K 10000000010000000062           
CUS0630390000106183897005         WRIGHT, EZELL       2439 JEFFERSON ST                       000N        CARE OF             
MTR06303900001000000000000000RA              74687573    005800660000006600000350000003NN  NNW 000                       N    
RDG06303900WATRL000000004K00000000000000091006406232015071526N000000000000N65       000500400K 10000000010000000083           
CUS0630390000106183898003         NIDAM, IGAL         2441 JEFFERSON ST                       000N        CARE OF             
MTR06303900001000000000000000RA              74688042    005800670000006700000350000003NN  NNW 000                       N    
RDG06303900WATRL000000004K00000000000000256006306232015071436N000000000000N65       000430400K 10000000010000000237           
CUS0630390000106368215007         MWALIWA, MBEONA     2447 JEFFERSON ST                       000N        CARE OF             
MTR06303900001000000000000000RA              10017847    005800680000006800000570000003NN  NNW 000                       N    
RDG06303900WATRL000000004K00000000000000232006206232015071620N000000000011N65       000540400K 10000000010000000213           
CUS0630390000106183900007         JACINTO, ALBERTO PAD434 N MILTON AVE                        000N        CARE OF             
MTR06303900001000000000000000RA              78021122    005800690000006900000350000003NN  NNW 000   VACANT PROPERTY     N    
RDG06303900WATRL000000004K00000000000000000006506232015071657N000000000000N65       000370400K 10000000010000000000           
CUS0630390000106183901005         BOB POUDRIER        432 N MILTON AVE                        000N        CARE OF             
MTR06303900001000000000000000RA              75615235    005800700000007000000350000003NN  NNW 000                       N    
RDG06303900WATRL000000004K00000000000000156006606232015071720N000000000000N65       000230400K 10000000010000000140           
CUS0630390000106183902003         MELLIUM INC         430 N MILTON AVE                        000N        CARE OF             
MTR06303900001000000000000000RA              75426553    005800710000007100000350000003NN  NNW 000   VACANT PROPERTY     N    
RDG06303900WATRL000000004K00000000000000000006706232015071741N000000000000N65       000210400K 10000000010000000000           
CUS0630390000106183905006         MAISYLYN F ELLIS    424 N MILTON AVE                        000N        CARE OF             
MTR06303900001000000000000000RA              75426379    005800720000007200000350000003NN  NNW 000                       N    
RDG06303900WATRL000000004K00000000000000085006806232015071810N000000000000N65       000290400K 10000000010000000075           
CUS0630390000106183906004         COOK SR., DAVID W.  422 N MILTON AVE                        000N        CARE OF             
MTR06303900001000000000000000RA              75426377    005800730000007300000350000003NN  NNW 000                       N    
RDG06303900WATRL000000004K00000000000000165006906232015071828N000000000000N65       000180400K 10000000010000000145           
CUS0630390000106183908000         EAST BALTIMORE INVES418 N MILTON AVE                        000N        CARE OF             
MTR06303900001000000000000000RA              75424853    005800740000007400000350000003NN  NNW 000                       N    
RDG06303900WATRL000000004K00000000000000227007006232015072009N000000000000N65       001010400K 10000000010000000197           
CUS0630390000106365743001         SMITH, JONATHAN     414 N MILTON AVE                        000N        CARE OF             
MTR06303900001000000000000000RA              75615230    005800750000007500000350000003NN  NNW 000                       N    
RDG06303900WATRL000000004K00000000000000237007106232015072038N000000000000N65       000290400K 10000000010000000201           
CUS0630390000106366579008         SKYLINE 3, LLC      412 N MILTON AVE                        000N        CARE OF             
MTR06303900001000000000000000RA              75424854    005800760000007600000350000003NN  NNW 000   VACANT PROPERTY     N    
RDG06303900WATRL000000004K00000000000000251007206232015072052N000100000010N65       000140400K 10000000010000000251           
CUS0630390000106183911004         TAMAY, LUIS R       406 N MILTON AVE                        000N        CARE OF             
MTR06303900001000000000000000RA              75424858    005800770000007700000350000003NN  NNW 000   VACANT PROPERTY     N    
RDG06303900WATRL000000004K00000000000000001007306232015072122N000000000010N65       000300400K 10000000010000000000           
CUS0630390000106355350007         KEMAR PROPERTIES LLC404 N MILTON AVE                        000N        CARE OF             
MTR06303900001000000000000000RA              75426556    005800780000007800000350000003NN  NNW 000                       N    
RDG06303900WATRL000000004K00000000000000076007406232015072146N000000000010N65       000240400K 10000000010000000000           
CUS0630390000106355288009         KEMAR PROPERTIES, LL402 N MILTON AVE                        000N        CARE OF             
MTR06303900001000000000000000RA              75617311    005800790000007900000350000003NN  NNW 000                       N    
RDG06303900WATRL000000004K00000000000000000007506232015072206N000000000000N65       000200400K 10000000010000000000           
CUS0630390000106367442008         CAREY JOWERS        2416 ORLEANS ST                         000N        CARE OF             
MTR06303900001000000000000000RA              75614748    005800800000008000000350000003NN  NNW 000   VACANT PROPERTY     N    
RDG06303900WATRL000000004K00000000000000000007606232015072341N000000000000N65       000950400K 10000000010000000000           
CUS0630390000106354170000         STARK, MARYLAND     2414 ORLEANS ST                         000N        CARE OF             
MTR06303900001000000000000000RA              75613963    005800810000008100000350000003NN  NNW 000                       N    
RDG06303900WATRL000000004K00000000000000142007706232015072413N000100000010N65       000320400K 10000000010000000142           
CUS0630390000106183918009         LAND RESEARCH ASSOCI409 N PORT ST                           000N        CARE OF             
MTR06303900001000000000000000RA              75426128    005800820000008200000350000003NN  NNW 000                       N    
RDG06303900WATRL000000004K00000000000000034007806232015072536N000000000000N65       000830400K 10000000010000000034           
CUS0630390000106183922001         LIENLOGIC REO F1, LL419 N PORT ST                           000N        CARE OF             
MTR06303900001000000000000000RA              75425433    005800830000008300000350000003NN  NNW 000                       N    
RDG06303900WATRL000000004K00000000000000097007906232015072613N000000000000N65       000370400K 10000000010000000083           
CUS0630390000106183923009         LIENLOGIC REO F1, LL421 N PORT ST                           000N        CARE OF             
MTR06303900001000000000000000RA              75426015    005800840000008400000350000003NN  NNW 000                       N    
RDG06303900WATRL000000004K00000000000000064008006232015072630N000000000000N65       000170400K 10000000010000000058           
CUS0630390000106183924007         LAND RESEARCH ASSOCI423 N PORT ST                           000N        CARE OF             
MTR06303900001000000000000000RA              75426125    005800850000008500000350000003NN  NNW 000                       N    
RDG06303900WATRL000000004K00000000000000206008106232015072656N000000000000N65       000260400K 10000000010000000199           
CUS0630390000106183926002         LAND RESEARCH ASSOCI424 N PORT ST                           000N        CARE OF             
MTR06303900001000000000000000RA              75424746    005800860000008600000350000003NN  NNW 000                       N    
RDG06303900WATRL000000004K00000000000000025008206232015072715N000000000000N65       000190400K 10000000010000000022           
CUS0630390000106183927000         T.G.B. INVESTMENTS L422 N PORT ST                           000N        CARE OF             
MTR06303900001000000000000000RA              77879333    005800870000008700000360000003NN  NNW 000                       N    
RDG06303900WATRL000000004K00000000000000006008306232015072753N000000000010N65       000380400K 10000000010000000000           
CUS0630390000106383406003         MACKLIN, LESTER     420 N PORT ST                           000N        CARE OF             
MTR06303900001000000000000000RA              75425792    005800880000008800000350000003NN  NNW 000                       N    
RDG06303900WATRL000000004K00000000000000439008406232015072840N000000000000N65       000470400K 10000000010000000439           
CUS0630390000106354141001         COSENTINI, PAT MARIO406 N PORT ST                           000N        CARE OF             
MTR06303900001000000000000000RA              75616957    005800890000008900000350000003NY  NNW 000                       N    
MTM0630390075616957    TRUCK PARKED                                                                                           
RDG06303900WATRL000000004K00000000000000000000000000000000000 000000000000U         000000400  10000000010000000213           
CUS0630390000106354142009         DOMINION INVESTMENT 404 N PORT ST                           000N        CARE OF             
MTR06303900001000000000000000RA              75425791    005800900000009000000350000003NN  NNW 000                       N    
RDG06303900WATRL000000004K00000000000000103008506232015072931N000000000000N65       000510400K 10000000010000000090           
CUS0630390000106373974002         LAND RESEARCH ASSOCI402 N PORT ST                           000N        CARE OF             
MTR06303900001000000000000000RA              78022211    005800910000009100000360000003NN  NNW 000                       N    
RDG06303900WATRL000000004K00000000000000008008606232015073009N000300000010N65       000380400K 10000000010000000000           
CUS0630390000106354140003         DOMINION RENTALS, LL400 N PORT ST                           000N        CARE OF             
MTR06303900001000000000000000RA              01109666    005800920000009200000610000003NN  NNW 000                       N    
RDG06303900WATRL000000004K00000000000000869008706232015073053N000000000000N65       000440400K 10000000010000000827           
CUS0630390000106365766002         REED, DEBORAH       2408 ORLEANS ST                         000N        CARE OF             
MTR06303900001000000000000000RA              75614738    005800930000009300000350000003NN  NNW 000                       N    
RDG06303900WATRL000000004K00000000000000115008806232015073136N000000000000N65       000430400K 10000000010000000102           
CUS0630390000106183933008         SMITH, ROOSEVELT    2406 ORLEANS ST                         000N        CARE OF             
MTR06303900001000000000000000RA              75613811    005800940000009400000350000003NN  NNW 000                       N    
RDG06303900WATRL000000004K00000000000000014008906232015073211N000000000000N65       000350400K 10000000010000000012           
CUS0630390000106183935003         BANK OF NEW YORK MEL2402 ORLEANS ST                         000N        CARE OF             
MTR06303900001000000000000000RA              75615264    005800950000009500000350000003NN  NNW 000                       N    
RDG06303900WATRL000000004K00000000000000225009006232015073239N000400000010N65       000280400K 10000000010000000222           
CUS0630390000106355330009         MYERS JR, PURDY     405 N MONTFORD AVE                      000N        CARE OF             
MTR06303900001000000000000000RA              75424737    005800960000009600000350000003NN  NNW 000                       N    
RDG06303900WATRL000000004K00000000000000078009106232015073340N000000000000N65       000610400K 10000000010000000075           
CUS0630390000106355316008         SKYLINE NH RES 5, LP409 N MONTFORD AVE                      000N        CARE OF             
MTR06303900001000000000000000RA              75424749    005800970000009700000350000003NN  NNW 000   VACANT PROPERTY     N    
RDG06303900WATRL000000004K00000000000000000009206232015073359N000000000000N65       000190400K 10000000010000000000           
CUS0630390000106183938007         JAMES W POLLARD & WF415 N MONTFORD AVE                      000N        CARE OF             
MTR06303900001000000000000000RA              75424734    005800980000009800000350000003NN  NNW 000                       N    
RDG06303900WATRL000000004K00000000000000293009306232015073447N000000000000N65       000480400K 10000000010000000267           
CUS0630390000106183939005         HENRY L TABRON & WF 417 N MONTFORD AVE                      000N        CARE OF             
MTR06303900001000000000000000RA              75424735    005800990000009900000350000003NN  NNW 000                       N    
RDG06303900WATRL000000004K00000000000000044009406232015073505N000000000000N65       000180400K 10000000010000000041           
CUS0630390000106183940003         SKYLINE NH RES 5, LP419 N MONTFORD AVE                      000N        CARE OF             
MTR06303900001000000000000000RA              75424725    005801000000010000000350000003NN  NNW 000                       N    
RDG06303900WATRL000000004K00000000000000104009506232015073539N000000000000N65       000340400K 10000000010000000089           
CUS0630390000106183941001         D'ALESSANDRO, OLYMPI421 N MONTFORD AVE                      000N        CARE OF             
MTR06303900001000000000000000RA              77877883    005801010000010100000360000003NN  NNW 000                       N    
RDG06303900WATRL000000004K00000000000000005009606232015073603N000000000010N65       000240400K 10000000010000000000           
CUS0630390000106183944005         SLONIN, MICHAEL H.  427 N MONTFORD AVE                      000N        CARE OF             
MTR06303900001000000000000000RA              75425789    005801020000010200000350000003NN  NNW 000                       N    
RDG06303900WATRL000000004K00000000000000000009706232015073633N000000000000N65       000300400K 10000000010000000000           
CUS0630390000106183945002         SIMPSON, DONOVAN    433 N MONTFORD AVE                      000N        CARE OF             
MTR06303900001000000000000000RA              21725923    005801030000010300000590000003NN  NNW 000                       N    
RDG06303900WATRL000000004K00000000000000000009806232015073719S018000000000N65       000460400K 10000000010000002672           
CUS0630390000106183946000         EAST BALTIMORE INVES437 N MONTFORD AVE                      000N        CARE OF             
MTR06303900001000000000000000RA              75425794    005801040000010400000350000003NN  NNW 000                       N    
RDG06303900WATRL000000004K00000000000000139009906232015073741N000000000000N65       000220400K 10000000010000000135           
CUS0630390000106183947008         CHONG, TONY         439 N MONTFORD AVE                      000N        CARE OF             
MTR06303900001000000000000000RA              75424743    005801050000010500000350000003NN  NNW 000                       N    
RDG06303900WATRL000000004K00000000000000102010006232015073802N000000000000N65       000210400K 10000000010000000102           
RTR06303900NN01050105000001050000000001050105000058NY010501050105000200050000000000000000000002    06102015NY020000 N         
RHD06304600NN00980098000000980000000000980098000063NY009800980098000100030000000000000000000002    06102015NY020000 N         
CUS0630460000106184617006         CHALI, JACQUELINE   3532 NOBLE ST                           000N        CARE OF             
MTR06304600001000000000000000RA              75613519    005800010000000100000350000003NN  NNW 000                       N    
RDG06304600WATRL000000004K00000000000000103000106242015065837N000000000000N65       000000400K 10000000010000000090           
CUS0630460000106184618004         BLUDIS, JOHN W.     3530 NOBLE ST                           000N        CARE OF             
MTR06304600001000000000000000RA              75614034    005800020000000200000350000003NN  NNW 000                       N    
RDG06304600WATRL000000004K00000000000000171000206242015065936N000000000000N65       000590400K 10000000010000000155           
CUS0630460000106184619002         BURROUGHS, ROBERT G.3528 NOBLE ST                           000N        CARE OF             
MTR06304600001000000000000000RA              75613972    005800030000000300000350000003NN  NNW 000                       N    
RDG06304600WATRL000000004K00000000000000161000306242015065954N000400000010N65       000180400K 10000000010000000156           
CUS0630460000106184620000         BROWN, MICHELLE CARL3524 NOBLE ST                           000N        CARE OF             
MTR06304600001000000000000000RA              75613970    005800040000000400000350000003NN  NNW 000                       N    
RDG06304600WATRL000000004K00000000000000073000406242015070016N000000000000N65       000220400K 10000000010000000065           
CUS0630460000106184623004         TEE REE REALTY, LLC 3518 NOBLE ST                           000N        CARE OF             
MTR06304600001000000000000000RA              75614005    005800050000000500000350000003NN  NNW 000                       N    
RDG06304600WATRL000000004K00000000000000073000506242015070043N000000000000N65       000270400K 10000000010000000073           
CUS0630460000106184624002         BRANNOCK, CARLTON   3514 NOBLE ST                           000N        CARE OF             
MTR06304600001000000000000000RA              75614035    005800060000000600000350000003NN  NNW 000                       N    
RDG06304600WATRL000000004K00000000000000125000606242015070124N000000000000N65       000410400K 10000000010000000111           
CUS0630460000106184625009         MAGILL, DAVID PAUL  3510 NOBLE ST                           000N        CARE OF             
MTR06304600001000000000000000RA              75426093    005800070000000700000350000003NN  NNW 000                       N    
RDG06304600WATRL000000004K00000000000000206000706242015070148N000000000000N65       000240400K 10000000010000000177           
CUS0630460000106366965009         DONATO, CLAUDIO DI  3508 NOBLE ST                           000N        CARE OF             
MTR06304600001000000000000000RA              21741031    005800080000000800000590000003NN  NNW 000                       N    
RDG06304600WATRL000000004K00000000000000000000806242015070218S018000000000N65       000300400K 10000000010000004788           
CUS0630460000106184627005         MARION R THOMAS     3504 NOBLE ST                           000N        CARE OF             
MTR06304600001000000000000000RA              75614036    005800090000000900000350000003NN  NNW 000                       N    
RDG06304600WATRL000000004K00000000000000012000906242015070308N000000000000N65       000500400K 10000000010000000012           
CUS0630460000106184628003         KENNETH S BORACKI   3502 NOBLE ST                           000N        CARE OF             
MTR06304600001000000000000000RA              75613973    005800100000001000000350000003NN  NNW 000                       N    
RDG06304600WATRL000000004K00000000000000029001006242015070328N000000000000N65       000200400K 10000000010000000027           
CUS0630460000106184629001         STEWART, ANDRE      3500 NOBLE ST                           000N        CARE OF             
MTR06304600001000000000000000RA              75614016    005800110000001100000350000003NN  NNW 000   VACANT PROPERTY     N    
RDG06304600WATRL000000004K00000000000000000001106242015070338S002000000000N65       000100400K 10000000010000000005           
CUS0630460000106184631007         MUNESES, EPIFANIO B 3418 NOBLE ST                           000N        CARE OF             
MTR06304600001000000000000000RA              75613975    005800120000001200000350000003NN  NNW 000                       N    
RDG06304600WATRL000000004K00000000000000248001206242015070422N000000000000N65       000440400K 10000000010000000215           
CUS0630460000106184633003         JENKINS, DARLENE L  3414 NOBLE ST                           000N        CARE OF             
MTR06304600001000000000000000RA              75613863    005800130000001300000350000003NN  NNW 000                       N    
RDG06304600WATRL000000004K00000000000000074001306242015070448N000000000000N65       000260400K 10000000010000000066           
CUS0630460000106184634001         MOSHE WEISBLUM      3412 NOBLE ST                           000N        CARE OF             
MTR06304600001000000000000000RA              75614039    005800140000001400000350000003NN  NNW 000                       N    
RDG06304600WATRL000000004K00000000000000126001406242015070458N000000000000N65       000100400K 10000000010000000107           
CUS0630460000106184635008         EDWARD A KRAMER JR &3408 NOBLE ST                           000N        CARE OF             
MTR06304600001000000000000000RA              75613525    005800150000001500000350000003NN  NNW 000                       N    
RDG06304600WATRL000000004K00000000000000099001506242015070543N000000000000N65       000450400K 10000000010000000085           
CUS0630460000106184636006         COSGROVE, ALLYSON   3406 NOBLE ST                           000N        CARE OF             
MTR06304600001000000000000000RA              75613522    005800160000001600000350000003NN  NNW 000                       N    
RDG06304600WATRL000000004K00000000000000161001606242015070602N000400000010N65       000190400K 10000000010000000147           
CUS0630460000106184637004         CASTRO, LUIS A      3404 NOBLE ST                           000N        CARE OF             
MTR06304600001000000000000000RA              75614014    005800170000001700000350000003NN  NNW 000                       N    
RDG06304600WATRL000000004K00000000000000310001706242015070621N000000000000N65       000190400K 10000000010000000271           
CUS0630460000106184638002         BANK OF AMERICA, NAT3402 NOBLE ST                           000N        CARE OF             
MTR06304600001000000000000000RA              75614026    005800180000001800000350000003NN  NNW 000                       N    
RDG06304600WATRL000000004K00000000000000342001806242015070646N000000000000N65       000250400K 10000000010000000284           
CUS0630460000106184640008         FEINSTEIN, BORIS    3403 NOBLE ST                           000N        CARE OF             
MTR06304600001000000000000000RA              75613888    005800190000001900000350000003NN  NNW 000                       N    
RDG06304600WATRL000000004K00000000000000203001906242015070716N000000000000N65       000300400K 10000000010000000181           
CUS0630460000106354182005         SUNFLOWER HOMES, LLC3526 E BALTIMORE ST                     000N        CARE OF             
MTR06304600001000000000000000RA              76346831    005800200000002000000350000003NN  NNW 000                       N    
RDG06304600WATRL000000004K00000000000000250002006242015071008N000000000000N65       001720400K 10000000010000000184           
CUS0630460000106362366004         BALSCHE, ARNE O     3522 E BALTIMORE ST                     000N        CARE OF             
MTR06304600001000000000000000RA              74690566    005800210000002100000350000003NN  NNW 000                       N    
RDG06304600WATRL000000004K00000000000000040002106242015071044N000000000000N65       000360400K 10000000010000000037           
CUS0630460000106366040001         DIPASQUALE JR, LOUIS3518 E BALTIMORE ST                     000N        CARE OF             
MTR06304600001000000000000000RA              74690567    005800220000002200000350000003NN  NNW 000                       N    
RDG06304600WATRL000000004K00000000000000129002206242015071111N000000000000N65       000270400K 10000000010000000129           
CUS0630460000106354183003         SPATH PROPERTIES, LL3516 E BALTIMORE ST                     000N        CARE OF             
MTR06304600001000000000000000RA              74690262    005800230000002300000350000003NN  NNW 000                       N    
RDG06304600WATRL000000004K00000000000000542002306242015071121N000000000000N65       000100400K 10000000010000000498           
CUS0630460000106353309005         EARL L HARRIS       3514 E BALTIMORE ST                     000N        CARE OF             
MTR06304600001000000000000000RA              74690260    005800240000002400000350000003NN  NNW 000                       N    
RDG06304600WATRL000000004K00000000000000109002406242015071151N000000000000N65       000300400K 10000000010000000100           
CUS0630460000106184644000         KLINGENSTEIN, EDWARD3512 E BALTIMORE ST                     000N        CARE OF             
MTR06304600001000000000000000RA              74690263    005800250000002500000350000003NN  NNW 000                       N    
RDG06304600WATRL000000004K00000000000000066002506242015071210N000000000000N65       000190400K 10000000010000000066           
CUS0630460000106184645007         SANO-1 LLC          3510 E BALTIMORE ST                     000N        CARE OF             
MTR06304600001000000000000000RA              74690259    005800260000002600000350000003NN  NNW 000                       N    
RDG06304600WATRL000000004K00000000000000440002606242015071226N000000000000N65       000160400K 10000000010000000418           
CUS0630460000106353314005         DE REQUENO, EMELYNDA3508 E BALTIMORE ST                     000N        CARE OF             
MTR06304600001000000000000000RA              74690251    005800270000002700000350000003NN  NNW 000                       N    
RDG06304600WATRL000000004K00000000000000345002706242015071258N000000000000N65       000320400K 10000000010000000310           
CUS0630460000106184647003         RIVERA DEGALDO, BRUN3502 E BALTIMORE ST                     000N        CARE OF             
MTR06304600001000000000000000RA              74690252    005800280000002800000350000003NN  NNW 000                       N    
RDG06304600WATRL000000004K00000000000000233002806242015071334N000000000000N65       000360400K 10000000010000000210           
CUS0630460000106353321000         STUDER, BARBARA A   3426 E BALTIMORE ST                     000N        CARE OF             
MTR06304600001000000000000000RA              74690258    005800290000002900000350000003NN  NNW 000                       N    
RDG06304600WATRL000000004K00000000000000583002906242015071420N000000000000N65       000460400K 10000000010000000533           
CUS0630460000106184650007         JONES, ARTHURETTA   3420 E BALTIMORE ST                     000N        CARE OF             
MTR06304600001000000000000000RA              74690250    005800300000003000000350000003NN  NNW 000                       N    
RDG06304600WATRL000000004K00000000000000052003006242015071513N000000000000N65       000530400K 10000000010000000049           
CUS0630460000106184651005         CALHOUN, SHAWN A.   3416 E BALTIMORE ST                     000N        CARE OF             
MTR06304600001000000000000000RA              74690247    005800310000003100000350000003NN  NNW 000                       N    
RDG06304600WATRL000000004K00000000000000126003106242015071539N000000000000N65       000260400K 10000000010000000115           
CUS0630460000106184652003         MICHAEL L TUITE & WF3414 E BALTIMORE ST                     000N        CARE OF             
MTR06304600001000000000000000RA              74690261    005800320000003200000350000003NN  NNW 000                       N    
RDG06304600WATRL000000004K00000000000000063003206242015071555N000000000000N65       000160400K 10000000010000000060           
CUS0630460000106184654009         TRANSITION PROPERTY 3406 E BALTIMORE ST                     000N        CARE OF             
MTR06304600001000000000000000RA              74690249    005800330000003300000350000003NN  NNW 000                       N    
RDG06304600WATRL000000004K00000000000000317003306242015071627N000000000000N65       000320400K 10000000010000000292           
CUS0630460000106184656004         JOHN, MARLENE       3 N HIGHLAND AVE                        000N        CARE OF             
MTR06304600001000000000000000RA              75614983    005800340000003400000350000003NN  NNW 000                       N    
RDG06304600WATRL000000004K00000000000000190003406242015071732N000000000000N65       000650400K 10000000010000000166           
CUS0630460000106184657002         FAZIO, JOSEPH       5 N HIGHLAND AVE                        000N        CARE OF             
MTR06304600001000000000000000RA              75615492    005800350000003500000350000003NN  NNW 000                       N    
RDG06304600WATRL000000004K00000000000000279003506242015071754N000000000000N65       000220400K 10000000010000000240           
CUS0630460000106184660006         COTTLE, HARVEY E    13 N HIGHLAND AVE                       000N        CARE OF             
MTR06304600001000000000000000RA              75613542    005800360000003600000350000003NN  NNW 000                       N    
RDG06304600WATRL000000004K00000000000000367003606242015071832N000000000000N65       000380400K 10000000010000000329           
CUS0630460000106184661004         KFRNA, LLC          15 N HIGHLAND AVE                       000N        CARE OF             
MTR06304600001000000000000000RA              75613655    005800370000003700000350000003NN  NNW 000   VACANT PROPERTY     N    
RDG06304600WATRL000000004K00000000000000000003706242015071844N000000000000N65       000120400K 10000000010000000000           
CUS0630460000106184662002         FEDERAL NATIONAL MOR17 N HIGHLAND AVE                       000N        CARE OF             
MTR06304600001000000000000000RA              75614660    005800380000003800000350000003NN  NNW 000                       N    
RDG06304600WATRL000000004K00000000000000252003806242015071908N000000000000N65       000240400K 10000000010000000228           
CUS0630460000106184663000         FISCHER, JOSEPH W   19 N HIGHLAND AVE                       000N        CARE OF             
MTR06304600001000000000000000RA              75614661    005800390000003900000350000003NN  NNW 000                       N    
RDG06304600WATRL000000004K00000000000000016003906242015071924N000000000000N65       000160400K 10000000010000000010           
CUS0630460000106184664008         PITTAS SR., DANNY   21 N HIGHLAND AVE                       000N        CARE OF             
MTR06304600001000000000000000RA              75614987    005800400000004000000350000003NN  NNW 000                       N    
RDG06304600WATRL000000004K00000000000000035004006242015071953N000000000000N65       000290400K 10000000010000000032           
CUS0630460000106184665005         DEUTSCHE BANK NATION25 N HIGHLAND AVE                       000N        CARE OF             
MTR06304600001000000000000000RA              75425858    005800410000004100000350000003NN  NNW 000                       N    
RDG06304600WATRL000000004K00000000000000327004106242015072026N000000000000N65       000330400K 10000000010000000312           
CUS0630460000106350996002         SMITH, JONATHAN     103 N HIGHLAND AVE                      000N        CARE OF             
MTR06304600001000000000000000RA              75614662    005800420000004200000350000003NN  NNW 000                       N    
RDG06304600WATRL000000004K00000000000000266004206242015072112N000000000000N65       000460400K 10000000010000000240           
CUS0630460000106184669007         GLORIA A DAGUE      105 N HIGHLAND AVE                      000N        CARE OF             
MTR06304600001000000000000000RA              76344828    005800430000004300000350000003NN  NNW 000                       N    
RDG06304600WATRL000000004K00000000000000038004306242015072133N000000000000N65       000210400K 10000000010000000028           
CUS0630460000106184672001         TAYEBI, ABDELKADER  119 N HIGHLAND AVE                      000N        CARE OF             
MTR06304600001000000000000000RA              75613652    005800440000004400000350000003NN  NNW 000                       N    
RDG06304600WATRL000000004K00000000000000278004406242015072219N000000000000N65       000460400K 10000000010000000243           
CUS0630460000106184675004         HILL, LOUIS         125 N HIGHLAND AVE                      000N        CARE OF             
MTR06304600001000000000000000RA              77881883    005800450000004500000360000003NN  NNW 000                       N    
RDG06304600WATRL000000004K00000000000000013004506242015072259N000000000010N65       000400400K 10000000010000000000           
CUS0630460000106184677000         SERA, LUIS C.       131 N HIGHLAND AVE                      000N        CARE OF             
MTR06304600001000000000000000RA              75613547    005800460000004600000350000003NY  NNW 000                       N    
MTM0630460075613547    DEF PLT                                                                                                
RDG06304600WATRL000000004K00000000000000000000000000000000000 000000000000U         000000400  10000000010000000105           
CUS0630460000106362383009         SHERWOOD JR WILLIAMS149 N HIGHLAND AVE                      000N        CARE OF             
MTR06304600001000000000000000RA              75613404    005800470000004700000350000003NN  NNW 000                       N    
RDG06304600WATRL000000004K00000000000000631004606242015072503N000000000000N65       001240400K 10000000010000000581           
CUS0630460000106184683008         GORDON D. STOUFFER J120 N HIGHLAND AVE                      000N        CARE OF             
MTR06304600001000000000000000RA              78005317    005800480000004800000350000003NN  NNW 000   VACANT PROPERTY     N    
RDG06304600WATRL000000004K00000000000000000004706242015072834N000000000000N65       002110400K 10000000010000000000           
CUS0630460000106184686001         HAKAMI, HAMID M     114 N HIGHLAND AVE                      000N        CARE OF             
MTR06304600001000000000000000RA              75614733    005800490000004900000350000003NN  NNW 000                       N    
RDG06304600WATRL000000004K00000000000000072004806242015072859N000000000000N65       000250400K 10000000010000000063           
CUS0630460000106366015003         GAMSE, JONATHAN     108 N HIGHLAND AVE                      000N        CARE OF             
MTR06304600001000000000000000RA              75614663    005800500000005000000350000003NN  NNW 000                       N    
RDG06304600WATRL000000004K00000000000000105004906242015072934N000000000000N65       000350400K 10000000010000000083           
CUS0630460000106184690003         ROCKS REALTY LLC    26 N HIGHLAND AVE                       000N        CARE OF             
MTR06304600001000000000000000RA              75613559    005800510000005100000350000003NN  NNW 000                       N    
RDG06304600WATRL000000004K00000000000000000005006242015073033N000000000000N65       000590400K 10000000010000000000           
CUS0630460000106184705009         CONCADE VENTURES III3306 NOBLE ST                           000N        CARE OF             
MTR06304600001000000000000000RA              75613874    005800520000005200000350000003NN  NNW 000                       N    
RDG06304600WATRL000000004K00000000000000143005106242015073244N000300000010N65       001310400K 10000000010000000125           
CUS0630460000106184707005         CITY LIFE HISTORIC P3302 NOBLE ST                           000N        CARE OF             
MTR06304600001000000000000000RA              21735499    005800530000005300000590000003NN  NNW 000                       N    
RDG06304600WATRL000000004K00000000000000000005206242015073305S018000000000N65       000210400K 10000000010000001988           
CUS0630460000106184715008         NOBLE STREET PROPERT3327 NOBLE ST                           000N        CARE OF             
MTR06304600001000000000000000RA              75614011    005800540000005400000350000003NN  NNW 000                       N    
RDG06304600WATRL000000004K00000000000000080005306242015073412N000100000010N65       000670400K 10000000010000000080           
CUS0630460000106184716006         FERNANDO RAMIREZ    3329 NOBLE ST                           000N        CARE OF             
MTR06304600001000000000000000RA              75613505    005800550000005500000350000003NN  NNW 000                       N    
RDG06304600WATRL000000004K00000000000000253005406242015073426N000000000000N65       000140400K 10000000010000000216           
CUS0630460000106366018007         SALPEAS, MARIA    (L4 N HIGHLAND AVE                        000N        CARE OF             
MTR06304600001000000000000000RA              75614240    005800560000005600000350000003NN  NNW 000                       N    
RDG06304600WATRL000000004K00000000000000000005506242015073536N000000000000N65       000700400K 10000000010000000000           
CUS0630460000106184717004         FELLUCA, OTTORINO   2 N HIGHLAND AVE                        000N        CARE OF             
MTR06304600001000000000000000RA              75613683    005800570000005700000350000003NN  NNW 000                       N    
RDG06304600WATRL000000004K00000000000000217005606242015073557N000000000000N65       000210400K 10000000010000000193           
CUS0630460000106353322008         EVELYN WARNER       3342 E BALTIMORE ST                     000N        CARE OF             
MTR06304600001000000000000000RA              75426049    005800580000005800000350000003NN  NNW 000                       N    
RDG06304600WATRL000000004K00000000000000000005706242015073653N000000000000N65       000560400K 10000000010000000000           
CUS0630460000106365336004         302 E UNIVERSITY PAR3340 E BALTIMORE ST                     000N        CARE OF             
MTR06304600001000000000000000RA              76348592    005800590000005900000350000003NN  NNW 000                       N    
RDG06304600WATRL000000004K00000000000000181005806242015073701N000000000000N65       000080400K 10000000010000000144           
CUS0630460000106353316000         FLAMINGO PROPERTIES,3338 E BALTIMORE ST                     000N        CARE OF             
MTR06304600001000000000000000RA              75426034    005800600000006000000350000003NN  NNW 000                       N    
RDG06304600WATRL000000004K00000000000000119005906242015073725N000000000000N65       000240400K 10000000010000000100           
CUS0630460000106184718002         ROSADO, GUADALUPE   3328 E BALTIMORE ST                     000N        CARE OF             
MTR06304600001000000000000000RA              75614657    005800610000006100000350000003NN  NNW 000                       N    
RDG06304600WATRL000000004K00000000000000330006006242015073759N000000000000N65       000340400K 10000000010000000291           
CUS0630460000106362402007         TICHI PROPERTY, LLC 3308 E BALTIMORE ST                     000N        CARE OF             
MTR06304600001000000000000000RA              76344823    005800620000006200000350000003NN  NNW 000                       N    
RDG06304600WATRL000000004K00000000000000001006106242015073856N000100000010N65       000570400K 10000000010000000001           
CUS0630460000106184719000         KRAUSE, LAURENCE N  5 N CLINTON ST                          000N        CARE OF             
MTR06304600001000000000000000RA              75424473    005800630000006300000350000003NN  NNW 000                       N    
RDG06304600WATRL000000004K00000000000000079006206242015074012N000000000000N65       000760400K 10000000010000000064           
CUS0630460000106184721006         HISHMEH, MARWAN ABED23 N CLINTON ST                         000N        CARE OF             
