FHDNNNN031005088005088005261N                                                                                           016980
RHD06308700NN00220022000000220000000000220022000018NY002200220022000100020000000000000000000002    07152015NY020000 N         
CUS0630870000106368137003         LUISA, RUIZ         944 N BROADWAY                          000N        CARE OF             
MTR06308700001000000000000000RA              76346072    005800010000000100000350000003NN  NNW 000                       N    
RDG06308700WATRL000000004K00000000000000008000107202015081802N000000000000N40       000000400K 10000000010000000004           
CUS0630870000106371139004         JONES, GRACE YOUNG C940 N BROADWAY                          000N        CARE OF             
MTR06308700001000000000000000RA              75426146    005800020000000200000350000003NN  NNW 000                       N    
RDG06308700WATRL000000004K00000000000000000000207202015081839N000000000010N40       000370400K 10000000010000000116           
CUS0630870000106357164000         HABC                926 N BROADWAY                          000N        CARE OF             
MTR06308700001000000000000000RA              76344422    005800030000000300000350000003NN  NNW 000                       N    
RDG06308700WATRL000000004K00000000000000398000307202015081942N000000000000N40       000630400K 10000000010000000354           
CUS0630870000106369541005         LINDA B COOPER      904 N BROADWAY                          000N        CARE OF             
MTR06308700001000000000000000RA              78021101    005800040000000400000350000003NN  NNW 000                       N    
RDG06308700WATRL000000004K00000000000000000000000000000000000 000000000000U         000000400  10000000010000000063           
CUS0630870000106189500009         MAYOR & CITY COUNCIL917 MCDONOGH ST                         000N        CARE OF             
MTR06308700001000000000000000RA              21718482    005800050000000500000590000003NN  NNW 000                       N    
RDG06308700WATRL000000004K00000000000000000000407202015082039S022000000000N40       000570400K 10000000010000002492           
CUS0630870000106367613004         ASFAW, BERUK        1642 ASHLAND AVE                        000N        CARE OF             
MTR06308700001000000000000000RA              74688744    005800060000000600000350000003NN  NNW 000   VACANT PROPERTY     N    
RDG06308700WATRL000000004K00000000000000069000507202015082131N000000000000N40       000520400K 10000000010000000069           
CUS0630870000106368111008         BERRY, DONNELL      1638 ASHLAND AVE                        000N        CARE OF             
MTR06308700001000000000000000RA              74688745    005800070000000700000350000003NN  NNW 000                       N    
RDG06308700WATRL000000004K00000000000000268000607202015082149N000000000000N40       000180400K 10000000010000000238           
CUS0630870000106367567002         BERRY DONNELL       1636 ASHLAND AVE                        000N        CARE OF             
MTR06308700001000000000000000RA              75613879    005800080000000800000350000003NN  NNW 000                       N    
RDG06308700WATRL000000004K00000000000000063000707202015082206N000000000000N40       000170400K 10000000010000000048           
CUS0630870000106365501003         H A B C             1634 ASHLAND AVE                        000N        CARE OF             
MTR06308700001000000000000000RA              76344496    005800090000000900000350000003NN  NNW 000                       N    
RDG06308700WATRL000000004K00000000000000000000807202015082236N000000000000N40       000300400K 10000000010000000000           
CUS0630870000106365507000         BEGONIA ENTERPRISES,1632 ASHLAND AVE                        000N        CARE OF             
MTR06308700001000000000000000RA              77987795    005800100000001000000350000003NN  NNW 000   VACANT PROPERTY     N    
RDG06308700WATRL000000004K00000000000000000000907202015082253N000000000000N40       000170400K 10000000010000000000           
CUS0630870000106380615002         GHARGHABI, VALIOLAH 1620 ASHLAND AVE                        000N        CARE OF             
MTR06308700001000000000000000RA              74688700    005800110000001100000350000003NN  NNW 000                       N    
RDG06308700WATRL000000004K00000000000000338001007202015082331N000400000010N40       000380400K 10000000010000000337           
CUS0630870000106368112006         FAITH BAPTIST CHURCH824 N BOND ST                           000N        CARE OF             
MTR06308700001000000000000000RA              75422178    005800120000001200000350000003NN  NNW 000   VACANT PROPERTY     N    
RDG06308700WATRL000000004K00000000000000000001107202015082509N000000000000N40       000980400K 10000000010000000000           
CUS0630870000106354636000         HABC                1508 E MADISON ST                       000N        CARE OF             
MTR06308700001000000000000000RA              75422741    005800130000001300000350000003NN  NNW 000                       N    
RDG06308700WATRL000000004K00000000000000356001207202015082731N000000000000N40       001420400K 10000000010000000337           
CUS0630870000106366026000         HOOPER SR, KENNY    1500 E MADISON ST                       000N        CARE OF             
MTR06308700001000000000000000RA              75422753    005800140000001400000350000003NN  NNW 000                       N    
RDG06308700WATRL000000004K00000000000000169001307202015082757N000400000010N40       000260400K 10000000010000000160           
CUS0630870000106354633007         HABC/LUV            807 N CAROLINE ST                       000N        CARE OF             
MTR06308700001000000000000000RA              75613533    005800150000001500000350000003NN  NNW 000                       N    
RDG06308700WATRL000000004K00000000000000319001407202015082917N000000000000N40       000800400K 10000000010000000282           
CUS0630870000106354635002         HABC/LUV            809 N CAROLINE ST                       000N        CARE OF             
MTR06308700001000000000000000RA              75613531    005800160000001600000350000003NN  NNW 000                       N    
RDG06308700WATRL000000004K00000000000000473001507202015082934N000000000000N40       000170400K 10000000010000000395           
CUS0630870000106354634005         HABC                811 N CAROLINE ST                       000N        CARE OF             
MTR06308700001000000000000000RA              75422180    005800170000001700000350000003NN  NNW 000                       N    
RDG06308700WATRL000000004K00000000000000233001607202015082948N000300000010N40       000140400K 10000000010000000185           
CUS0630870000106354638006         HABC                819 N CAROLINE ST                       000N        CARE OF             
MTR06308700001000000000000000RA              76347061    005800180000001800000350000003NN  NNW 000                       N    
RDG06308700WATRL000000004K00000000000000000001707202015083034N000300000010N40       000460400K 10000000010000000073           
CUS0630870000106373966008         YIRGA, RETA         907 N EDEN ST                           000N        CARE OF             
MTR06308700001000000000000000RA              74691013    005800190000001900000350000003NN  NNW 000                       N    
RDG06308700WATRL000000004K00000000000000169002107202015083615N000000000020N40       000840400K 10000000010000000156           
CUS0630870000106371059004         DENISE ROBBINS      1435 E EAGER ST                         000N        CARE OF             
MTR06308700001000000000000000RA              78044235    005800200000002000000350000003NN  NNW 000                       N    
RDG06308700WATRL000000004K00000000000000049001807202015083422N000000000000N40       002280400K 10000000010000000033           
CUS0630870000106366037007         MARY JENKINS-BELT   1445 E EAGER ST                         000N        CARE OF             
MTR06308700001000000000000000RA              75426121    005800210000002100000350000003NN  NNW 000   VACANT PROPERTY     N    
RDG06308700WATRL000000004K00000000000000000001907202015083446S022000000000N40       000240400K 10000000010000000000           
CUS0630870000106366325006         KNIGHTSBRIDGE REAL E924 N CAROLINE ST                       000N        CARE OF             
MTR06308700001000000000000000RA              75613534    005800220000002200000350000003NN  NNW 000                       N    
RDG06308700WATRL000000004K00000000000000000002007202015083451N000000000000N40       000050400K 10000000010000000000           
RTR06308700NN00220022000000220000000000220022000018NY002200220022000100020000000000000000000002    07152015NY020000 N         
RHD06368000NN03280328000003280000000003280328000089NY032803280328000000060000000000000000000002    07082015NY020000 N         
CUS0636800000106284304000         MCCOY, MELVIN P     3701 ERDMAN AVE                         000N        CARE OF             
MTR06368000001000000000000000RA              99392540    005800010000000100000570000003NN  NNW 000                       N    
RDG06368000WATRL000000004K00000000000001108000107172015131406N000000000000N21       000000400K 10000000010000001091           
CUS0636800000106284305007         AJAYI, BRIAN A      3703 ERDMAN AVE                         000N        CARE OF             
MTR06368000001000000000000000RA              99392539    005800020000000200000570000003NN  NNW 000                       N    
RDG06368000WATRL000000004K00000000000001137000207172015131408N000000000000N21       000020400K 10000000010000001091           
CUS0636800000106284306005         ANDERSON-OLIVER, SHA3705 ERDMAN AVE                         000N        CARE OF             
MTR06368000001000000000000000RA              10003879    005800030000000300000570000003NN  NNW 000                       N    
RDG06368000WATRL000000004K00000000000000311000307172015131410N000000000000N21       000020400K 10000000010000000299           
CUS0636800000106284307003         SNEAD, MARION T     3707 ERDMAN AVE                         000N        CARE OF             
MTR06368000001000000000000000RA              48592611    005800040000000400000520000003NN  NNW 000                       N    
RDG06368000WATRL000000004K00000000000001097000407172015131412N000000000000N21       000020400K 10000000010000001084           
CUS0636800000106284308001         PAYNE, LLEWELLYN S  3709 ERDMAN AVE                         000N        CARE OF             
MTR06368000001000000000000000RA              48595974    005800050000000500000520000003NN  NNW 000                       N    
RDG06368000WATRL000000004K00000000000001289001007202015115235N000000000000U21       002430400K 10000000010000001270           
CUS0636800000106284309009         OLIVER, DOROTHY M.  3711 ERDMAN AVE                         000N        CARE OF             
MTR06368000001000000000000000RA              31586080    005800060000000600000520000003NN  NNW 000                       N    
RDG06368000WATRL000000004K00000000000003056001107202015115243N000000000000U21       000080400K 10000000010000003045           
CUS0636800000106284310007         OSBORNE, HEATHER E. 3713 ERDMAN AVE                         000N        CARE OF             
MTR06368000001000000000000000RA              23051724    005800070000000700000520000003NN  NNW 000                       N    
RDG06368000WATRL000000004K00000000000002470000507172015131419N000000000000N21       000070400K 10000000010000002460           
CUS0636800000106284311005         MOORE, JADA         3715 ERDMAN AVE                         000N        CARE OF             
MTR06368000001000000000000000RA              10023626    005800080000000800000570000003NN  NNW 000                       N    
RDG06368000WATRL000000004K00000000000000132000607172015131428N000000000010N21       000090400K 10000000010000000117           
CUS0636800000106284312003         SMITH, LISA D       3717 ERDMAN AVE                         000N        CARE OF             
MTR06368000001000000000000000RA              44175348    005800090000000900000520000003NN  NNW 000                       N    
RDG06368000WATRL000000004K00000000000001020000707172015131432N000000000000N21       000040400K 10000000010000001015           
CUS0636800000106284313001         BARNES, DANNY R.    3719 ERDMAN AVE                         000N        CARE OF             
MTR06368000001000000000000000RA              44175352    005800100000001000000520000003NN  NNW 000                       N    
RDG06368000WATRL000000004K00000000000002467000807172015131437N000000000000N21       000050400K 10000000010000002457           
CUS0636800000106284314009         JOHN H CHARLES SR & 3570 ELMORA AVE                         000N        CARE OF             
MTR06368000001000000000000000RA              01074795    005800110000001100000610000003NN  NNW 000                       N    
RDG06368000WATRL000000004K00000000000000632000907172015131440N000000000000N21       000030400K 10000000010000000627           
CUS0636800000106284315006         LEE, CAROLYN E (LIFE3568 ELMORA AVE                         000N        CARE OF             
MTR06368000001000000000000000RA              76348320    005800120000001200000350000003NN  NNW 000                       N    
RDG06368000WATRL000000004K00000000000000038001007172015131448N000400000020N21       000080400K 10000000010000000034           
CUS0636800000106284316004         TULL, DANITA        3566 ELMORA AVE                         000N        CARE OF             
MTR06368000001000000000000000RA              11337832    005800130000001300000570000003NN  NNW 000                       N    
RDG06368000WATRL000000004K00000000000001790001107172015131528N000000000010N21       000400400K 10000000010000001772           
CUS0636800000106284317002         THOMPSON, TANIKA L  3564 ELMORA AVE                         000N        CARE OF             
MTR06368000001000000000000000RA              11330647    005800140000001400000570000003NN  NNW 000                       N    
RDG06368000WATRL000000004K00000000000002633001207172015131533N000000000000N21       000050400K 10000000010000002615           
CUS0636800000106284318000         LITTLE, BILLY R.    3562 ELMORA AVE                         000N        CARE OF             
MTR06368000001000000000000000RA              01090281    005800150000001500000610000003NN  NNW 000                       N    
RDG06368000WATRL000000004K00000000000000638001307172015131535N000000000000N21       000020400K 10000000010000000616           
CUS0636800000106284319008         BERRY, DONNA        3560 ELMORA AVE                         000N        CARE OF             
MTR06368000001000000000000000RA              10010602    005800160000001600000570000003NN  NNW 000                       N    
RDG06368000WATRL000000004K00000000000000588001407172015131547N000000000000N21       000120400K 10000000010000000550           
CUS0636800000106284320006         FLAGSTAR BANK       3558 ELMORA AVE                         000N        CARE OF             
MTR06368000001000000000000000RA              29082162    005800170000001700000520000003NN  NNW 000                       N    
RDG06368000WATRL000000004K00000000000003023001507202015120129N000000000000U21       000120400K 10000000010000003013           
CUS0636800000106284321004         ELINORA E NOEL      3556 ELMORA AVE                         000N        CARE OF             
MTR06368000001000000000000000RA              10015254    005800180000001800000570000003NN  NNW 000                       N    
RDG06368000WATRL000000004K00000000000000352001407202015120117N000000000000U21       000860400K 10000000010000000329           
CUS0636800000106284322002         OLIVER, CHERYL      3554 ELMORA AVE                         000N        CARE OF             
MTR06368000001000000000000000RA              39583319    005800190000001900000520000003NN  NNW 000                       N    
RDG06368000WATRL000000004K00000000000001441001507172015131553N000000000000N21       000060400K 10000000010000001428           
CUS0636800000106284323000         JOHNSON, MARSHA A   3552 ELMORA AVE                         000N        CARE OF             
MTR06368000001000000000000000RA              99392538    005800200000002000000570000003NN  NNW 000                       N    
RDG06368000WATRL000000004K00000000000000978001607172015131602N000000000000N21       000090400K 10000000010000000961           
CUS0636800000106284324008         ANDERSON, TERRY T   3550 ELMORA AVE                         000N        CARE OF             
MTR06368000001000000000000000RA              00125491    005800210000002100000570000003NN  NNW 000                       N    
RDG06368000WATRL000000004K00000000000002675001707172015131608N000000000000N21       000060400K 10000000010000002647           
CUS0636800000106284325005         PM&L SOLUTIONS, LLC 3548 ELMORA AVE                         000N        CARE OF             
MTR06368000001000000000000000RA              31586016    005800220000002200000520000003NN  NNW 000                       N    
RDG06368000WATRL000000004K00000000000004263001807172015131612N000000000000N21       000040400K 10000000010000004226           
CUS0636800000106284326003         FISHER, ARETHA N.   3546 ELMORA AVE                         000N        CARE OF             
MTR06368000001000000000000000RA              31586013    005800230000002300000520000003NN  NNW 000                       N    
RDG06368000WATRL000000004K00000000000001886001907172015131616N000000000000N21       000040400K 10000000010000001879           
CUS0636800000106284327001         HICKS, MARVIN       3544 ELMORA AVE                         000N        CARE OF             
MTR06368000001000000000000000RA              25783927    005800240000002400000520000003NN  NNW 000                       N    
RDG06368000WATRL000000004K00000000000003277002007172015131618N000000000000N21       000020400K 10000000010000003262           
CUS0636800000106284328009         REALTY MASTERMINDS, 3542 ELMORA AVE                         000N        CARE OF             
MTR06368000001000000000000000RA              01107455    005800250000002500000610000003NN  NNW 000                       N    
RDG06368000WATRL000000004K00000000000001718002107172015131623N000000000000N21       000050400K 10000000010000001684           
CUS0636800000106284329007         BROWN PAMELA E      3540 ELMORA AVE                         000N        CARE OF             
MTR06368000001000000000000000RA              10022510    005800260000002600000570000003NN  NNW 000                       N    
RDG06368000WATRL000000004K00000000000000306002207172015131639N000300000020N21       000160400K 10000000010000000264           
CUS0636800000106284330005         MAYO, RALPH W       3538 ELMORA AVE                         000N        CARE OF             
MTR06368000001000000000000000RA              99187485    005800270000002700000570000003NN  NNW 000                       N    
RDG06368000WATRL000000004K00000000000002560002307172015131644N000000000000N21       000050400K 10000000010000002519           
CUS0636800000106284331003         MEDLEY, DANIELLE M  3536 ELMORA AVE                         000N        CARE OF             
MTR06368000001000000000000000RA              74691581    005800280000002800000350000003NN  NNW 000                       N    
RDG06368000WATRL000000004K00000000000000327002407172015131648N000000000000N21       000040400K 10000000010000000310           
CUS0636800000106284332001         HELEN M MEADE       3534 ELMORA AVE                         000N        CARE OF             
MTR06368000001000000000000000RA              00125492    005800290000002900000570000003NN  NNW 000                       N    
RDG06368000WATRL000000004K00000000000000997002507172015131654N000000000000N21       000060400K 10000000010000000984           
CUS0636800000106284333009         DELORIS NEWKIRK EST.3532 ELMORA AVE                         000N        CARE OF             
MTR06368000001000000000000000RA              27818326    005800300000003000000520000003NN  NNW 000                       N    
RDG06368000WATRL000000004K00000000000004390002607172015131657N000000000000N21       000030400K 10000000010000004390           
CUS0636800000106284334007         PRETTLOW, JAMES     3530 ELMORA AVE                         000N        CARE OF             
MTR06368000001000000000000000RA              48591168    005800310000003100000520000003NN  NNW 000                       N    
RDG06368000WATRL000000004K00000000000000729002707172015131700N000000000000N21       000030400K 10000000010000000716           
CUS0636800000106284335004         KELLEY JR, EARL T   3528 ELMORA AVE                         000N        CARE OF             
MTR06368000001000000000000000RA              00138062    005800320000003200000570000003NN  NNW 000                       N    
RDG06368000WATRL000000004K00000000000000485001307202015115951N000300000010U21       001240400K 10000000010000000611           
CUS0636800000106284336002         EGGLESTON, EVA M. WR3526 ELMORA AVE                         000N        CARE OF             
MTR06368000001000000000000000RA              00138059    005800330000003300000570000003NN  NNW 000                       N    
RDG06368000WATRL000000004K00000000000001429002807172015131721N000000000000N21       000210400K 10000000010000001408           
CUS0636800000106284337000         SAWYER, DAVID J     3524 ELMORA AVE                         000N        CARE OF             
MTR06368000001000000000000000RA              24228940    005800340000003400000520000003NN  NNW 000                       N    
RDG06368000WATRL000000004K00000000000002983002907172015131729N000000000000N21       000080400K 10000000010000002978           
CUS0636800000106284338008         OPPEL, KATHLEEN V   3522 ELMORA AVE                         000N        CARE OF             
MTR06368000001000000000000000RA              00137534    005800350000003500000570000003NN  NNW 000                       N    
RDG06368000WATRL000000004K00000000000000227003007172015131738N000000000000N21       000090400K 10000000010000000227           
CUS0636800000106284339006         ASHER HOME SOLUTIONS3520 ELMORA AVE                         000N        CARE OF             
MTR06368000001000000000000000RA              99392503    005800360000003600000570000003NN  NNW 000                       N    
RDG06368000WATRL000000004K00000000000000781003107172015131751N000400000030N21       000130400K 10000000010000000779           
CUS0636800000106284340004         DARDEN, JAKE        3518 ELMORA AVE                         000N        CARE OF             
MTR06368000001000000000000000RA              52287032    005800370000003700000520000003NN  NNW 000                       N    
RDG06368000WATRL000000004K00000000000001167003207172015131754N000000000000N21       000030400K 10000000010000001149           
CUS0636800000106284341002         JONES, CARL N.      3516 ELMORA AVE                         000N        CARE OF             
MTR06368000001000000000000000RA              14913058    005800380000003800000310000003NN  NNW 000                       N    
RDG06368000WATRL000000004K00000000000001039003307172015131757N000000000000N21       000030400K 10000000010000001026           
CUS0636800000106284342000         WILLIAM WHITE JR & W3514 ELMORA AVE                         000N        CARE OF             
MTR06368000001000000000000000RA              75616618    005800390000003900000350000003NN  NNW 000                       N    
RDG06368000WATRL000000004K00000000000000082003407172015131806N000000000000N21       000090400K 10000000010000000076           
CUS0636800000106284343008         JOHNSON, JR, CARL LE3512 ELMORA AVE                         000N        CARE OF             
MTR06368000001000000000000000RA              46877662    005800400000004000000520000003NN  NNW 000                       N    
RDG06368000WATRL000000004K00000000000001551003507172015131812N000000000000N21       000060400K 10000000010000001543           
CUS0636800000106284344006         FOSTER, GREGORY     3510 ELMORA AVE                         000N        CARE OF             
MTR06368000001000000000000000RA              99392504    005800410000004100000570000003NN  NNW 000                       N    
RDG06368000WATRL000000004K00000000000000998003607172015131815N000000000000N21       000030400K 10000000010000000970           
CUS0636800000106284345003         MARY E BOYD         3508 ELMORA AVE                         000N        CARE OF             
MTR06368000001000000000000000RA              52288697    005800420000004200000520000003NN  NNW 000                       N    
RDG06368000WATRL000000004K00000000000001338003707172015131817N000000000000N21       000020400K 10000000010000001331           
CUS0636800000106284346001         THOMAS, BRIAN HUGH  3506 ELMORA AVE                         000N        CARE OF             
MTR06368000001000000000000000RA              52288643    005800430000004300000520000003NN  NNW 000                       N    
RDG06368000WATRL000000004K00000000000002285003807172015131821N000000000000N21       000040400K 10000000010000002267           
CUS0636800000106284347009         K ARHIN & A ARHIN   3504 ELMORA AVE                         000N        CARE OF             
MTR06368000001000000000000000RA              50479412    005800440000004400000520000003NN  NNW 000                       N    
RDG06368000WATRL000000004K00000000000001024003907172015131823N000000000000N21       000020400K 10000000010000000994           
CUS0636800000106284348007         PHILLIPS, RUTH      3502 ELMORA AVE                         000N        CARE OF             
MTR06368000001000000000000000RA              26006348    005800450000004500000520000003NN  NNW 000                       N    
RDG06368000WATRL000000004K00000000000003534004007172015131828N000000000000N21       000050400K 10000000010000003525           
CUS0636800000106284349005         DARDEN, JAKE F      3500 ELMORA AVE                         000N        CARE OF             
MTR06368000001000000000000000RA              45378836    005800460000004600000520000003NN  NNW 000                       N    
RDG06368000WATRL000000004K00000000000001937004107172015131831N000000000000N21       000030400K 10000000010000001910           
CUS0636800000106284350003         GARDNER, RICKY      3501 ELMORA AVE                         000N        CARE OF             
MTR06368000001000000000000000RA              99392533    005800470000004700000570000003NN  NNW 000                       N    
RDG06368000WATRL000000004K00000000000000647001207202015115747N000100000010U21       003040400K 10000000010000000647           
CUS0636800000106284351001         LINDER, ANEESHA     3503 ELMORA AVE                         000N        CARE OF             
MTR06368000001000000000000000RA              27832239    005800480000004800000520000003NN  NNW 000                       N    
RDG06368000WATRL000000004K00000000000003844004207172015131847N000000000000N21       000160400K 10000000010000003823           
CUS0636800000106284352009         WYCHE, NATHANIEL    3505 ELMORA AVE                         000N        CARE OF             
MTR06368000001000000000000000RA              27832238    005800490000004900000520000003NN  NNW 000                       N    
RDG06368000WATRL000000004K00000000000001680004307172015131851N000000000000N21       000040400K 10000000010000001668           
CUS0636800000106284353007         BROWN, VERONICA     3507 ELMORA AVE                         000N        CARE OF             
MTR06368000001000000000000000RA              24228920    005800500000005000000520000003NN  NNW 000                       N    
RDG06368000WATRL000000004K00000000000002039004407172015131903N000000000000N21       000120400K 10000000010000002024           
CUS0636800000106284354005         BIRCHETT, LORETTA M 3509 ELMORA AVE                         000N        CARE OF             
MTR06368000001000000000000000RA              24228938    005800510000005100000520000003NN  NNW 000                       N    
RDG06368000WATRL000000004K00000000000006199004507172015131906N000000000000N21       000030400K 10000000010000006188           
CUS0636800000106284355002         BINNS, MICHAEL      3511 ELMORA AVE                         000N        CARE OF             
MTR06368000001000000000000000RA              24223015    005800520000005200000520000003NN  NNW 000                       N    
RDG06368000WATRL000000004K00000000000004132004607172015131911N000000000000N21       000050400K 10000000010000004104           
CUS0636800000106284356000         CALVIN L LAWSON     3513 ELMORA AVE                         000N        CARE OF             
MTR06368000001000000000000000RA              30518295    005800530000005300000520000003NN  NNW 000                       N    
RDG06368000WATRL000000004K00000000000003515004707172015131918N000000000000N21       000070400K 10000000010000003500           
CUS0636800000106284357008         LIENLOGIC REO F1, LL3515 ELMORA AVE                         000N        CARE OF             
MTR06368000001000000000000000RA              44089786    005800540000005400000520000003NN  NNW 000                       N    
RDG06368000WATRL000000004K00000000000002546004807172015131925N000000000000N21       000070400K 10000000010000002513           
CUS0636800000106284358006         SIERRA NEVADA ATATUT3517 ELMORA AVE                         000N        CARE OF             
MTR06368000001000000000000000RA              99392534    005800550000005500000570000003NN  NNW 000                       N    
RDG06368000WATRL000000004K00000000000001843004907172015131928N000000000000N21       000030400K 10000000010000001805           
CUS0636800000106284359004         JONES, MICHAEL D    3519 ELMORA AVE                         000N        CARE OF             
MTR06368000001000000000000000RA              00135736    005800560000005600000570000003NN  NNW 000                       N    
RDG06368000WATRL000000004K00000000000001450005007172015131935N000000000020N21       000070400K 10000000010000001445           
CUS0636800000106284360002         ROBINSON, SHIRLEY A 3521 ELMORA AVE                         000N        CARE OF             
MTR06368000001000000000000000RA              24759585    005800570000005700000520000003NN  NNW 000                       N    
RDG06368000WATRL000000004K00000000000002377005107172015131937N000000000000N21       000020400K 10000000010000002347           
CUS0636800000106284361000         PERRY, COLBERT L    3523 ELMORA AVE                         000N        CARE OF             
MTR06368000001000000000000000RA              24759586    005800580000005800000520000003NN  NNW 000                       N    
RDG06368000WATRL000000004K00000000000001680005207172015131944N000000000000N21       000070400K 10000000010000001660           
CUS0636800000106284362008         JONES, BARBARA      3525 ELMORA AVE                         000N        CARE OF             
MTR06368000001000000000000000RA              35108973    005800590000005900000520000003NN  NNW 000                       N    
RDG06368000WATRL000000004K00000000000002200005307172015131945N000000000000N21       000010400K 10000000010000002186           
CUS0636800000106284363006         ODELLA VINSON       3527 ELMORA AVE                         000N        CARE OF             
MTR06368000001000000000000000RA              35109024    005800600000006000000520000003NN  NNW 000                       N    
RDG06368000WATRL000000004K00000000000003236005407172015131947N000000000000N21       000020400K 10000000010000003214           
CUS0636800000106284364004         GRAVES, SAMUEL W    3529 ELMORA AVE                         000N        CARE OF             
MTR06368000001000000000000000RA              54348882    005800610000006100000520000003NN  NNW 000                       N    
RDG06368000WATRL000000004K00000000000001418005507172015131950N000000000000N21       000030400K 10000000010000001410           
CUS0636800000106284365001         MARCELLA HOLLOMAN   3531 ELMORA AVE                         000N        CARE OF             
MTR06368000001000000000000000RA              29679972    005800620000006200000520000003NN  NNW 000                       N    
RDG06368000WATRL000000004K00000000000002810005607172015131952N000000000000N21       000020400K 10000000010000002782           
CUS0636800000106284366009         NUNNALLY JR., ERNEST3533 ELMORA AVE                         000N        CARE OF             
MTR06368000001000000000000000RA              77989192    005800630000006300000350000003NN  NNW 000                       N    
RDG06368000WATRL000000004K00000000000000000005707172015131955S001000000000N21       000030400K 10000000010000000000           
CUS0636800000106284367007         TULL, JEROME L      3535 ELMORA AVE                         000N        CARE OF             
MTR06368000001000000000000000RA              99391770    005800640000006400000570000003NN  NNW 000                       N    
RDG06368000WATRL000000004K00000000000001648005807172015131957N000000000000N21       000020400K 10000000010000001628           
CUS0636800000106284368005         VERNON OLIVER       3537 ELMORA AVE                         000N        CARE OF             
MTR06368000001000000000000000RA              99391631    005800650000006500000570000000NN  NNW 000                       N    
RDG06368000WATRL000000004K00000000000001502005907172015131959N000000000000N21       000020400K 10000000010000001490           
CUS0636800000106284370001         DAVID W WHEAT JR    3541 ELMORA AVE                         000N        CARE OF             
MTR06368000001000000000000000RA              77879420    005800660000006600000360000003NN  NNW 000                       N    
RDG06368000WATRL000000004K00000000000000000006007172015132027S001000000000N21       000280400K 10000000010000000000           
CUS0636800000106284369003         PERRY, JARONDA      3539 ELMORA AVE                         000N        CARE OF             
MTR06368000001000000000000000RA              27818328    005800670000006700000520000003NN  NNW 000                       N    
RDG06368000WATRL000000004K00000000000001980006107172015132031N000000000000N21       000040400K 10000000010000001956           
CUS0636800000106284371009         SMITH, DIANE E      3543 ELMORA AVE                         000N        CARE OF             
MTR06368000001000000000000000RA              00127752    005800680000006800000570000003NN  NNW 000                       N    
RDG06368000WATRL000000004K00000000000001421006207172015132046N000300000020N21       000150400K 10000000010000001458           
CUS0636800000106284372007         KAWALSINGH, MOHANEE 3545 ELMORA AVE                         000N        CARE OF             
MTR06368000001000000000000000RA              41074058    005800690000006900000520000003NN  NNW 000                       N    
RDG06368000WATRL000000004K00000000000001673006307172015132051N000000000000N21       000050400K 10000000010000001624           
CUS0636800000106284373005         EADDY, ROY LEE      3547 ELMORA AVE                         000N        CARE OF             
MTR06368000001000000000000000RA              41074451    005800700000007000000520000003NN  NNW 000                       N    
RDG06368000WATRL000000004K00000000000002074006407172015132054N000000000000N21       000030400K 10000000010000002050           
CUS0636800000106284374003         HARRIS, PATRICIA A. 3549 ELMORA AVE                         000N        CARE OF             
MTR06368000001000000000000000RA              38782444    005800710000007100000520000003NN  NNW 000                       N    
RDG06368000WATRL000000004K00000000000002137006507172015132111N000000000010N21       000170400K 10000000010000002121           
CUS0636800000106284375000         JAMES, ALICE J.     3551 ELMORA AVE                         000N        CARE OF             
MTR06368000001000000000000000RA              38782452    005800720000007200000520000003NN  NNW 000                       N    
RDG06368000WATRL000000004K00000000000002013006607172015132114N000000000000N21       000030400K 10000000010000002004           
CUS0636800000106284376008         JUSTIN JEFFERSON    3553 ELMORA AVE                         000N        CARE OF             
MTR06368000001000000000000000RA              48592697    005800730000007300000520000003NN  NNW 000                       N    
RDG06368000WATRL000000004K00000000000001565006707172015132119N000400000010N21       000050400K 10000000010000001562           
CUS0636800000106284377006         FANTAYE, TEDLA      3555 ELMORA AVE                         000N        CARE OF             
MTR06368000001000000000000000RA              48592689    005800740000007400000520000003NN  NNW 000                       N    
RDG06368000WATRL000000004K00000000000002276006807172015132124N000000000000N21       000050400K 10000000010000002236           
CUS0636800000106284378004         ALLEN, FELICIA      3557 ELMORA AVE                         000N        CARE OF             
MTR06368000001000000000000000RA              48592784    005800750000007500000520000003NN  NNW 000                       N    
RDG06368000WATRL000000004K00000000000001398006907172015132128N000000000000N21       000040400K 10000000010000001384           
CUS0636800000106284379002         TALLARICO, MATILDA J3559 ELMORA AVE                         000N        CARE OF             
MTR06368000001000000000000000RA              45387501    005800760000007600000520000003NN  NNW 000                       N    
RDG06368000WATRL000000004K00000000000001045007007172015132131N000000000000N21       000030400K 10000000010000001032           
CUS0636800000106284380000         NIXON, GARY L       3561 ELMORA AVE                         000N        CARE OF             
MTR06368000001000000000000000RA              45385209    005800770000007700000520000003NN  NNW 000                       N    
RDG06368000WATRL000000004K00000000000002516007107172015132138N000000000000N21       000070400K 10000000010000002498           
CUS0636800000106284381008         WHITE, DARRICK      3563 ELMORA AVE                         000N        CARE OF             
MTR06368000001000000000000000RA              54348858    005800780000007800000520000003NN  NNW 000                       N    
RDG06368000WATRL000000004K00000000000001274007207172015132141N000000000000N21       000030400K 10000000010000001255           
CUS0636800000106284382006         WHITLEY, EVERETT L. 3565 ELMORA AVE                         000N        CARE OF             
MTR06368000001000000000000000RA              00125879    005800790000007900000570000003NN  NNW 000                       N    
RDG06368000WATRL000000004K00000000000000988007307172015132146N000000000000N21       000050400K 10000000010000000970           
CUS0636800000106284383004         HOSSNY, IBRAHIM A.  3567 ELMORA AVE                         000N        CARE OF             
MTR06368000001000000000000000RA              00125527    005800800000008000000570000003NN  NNW 000                       N    
RDG06368000WATRL000000004K00000000000000937007407172015132201N000000000000N21       000150400K 10000000010000000919           
CUS0636800000106284384002         ROBINSON, TARA M    3569 ELMORA AVE                         000N        CARE OF             
MTR06368000001000000000000000RA              27815625    005800810000008100000520000003NN  NNW 000                       N    
RDG06368000WATRL000000004K00000000000001688007507172015132207N000000000000N21       000060400K 10000000010000001666           
CUS0636800000106284385009         CROXTON, GLENDA S.  3571 ELMORA AVE                         000N        CARE OF             
MTR06368000001000000000000000RA              23051962    005800820000008200000520000003NN  NNW 000                       N    
RDG06368000WATRL000000004K00000000000003834007607172015132214N000000000000N21       000070400K 10000000010000003802           
CUS0636800000106284386007         PRYMAS, MATTHEW J.  3573 ELMORA AVE                         000N        CARE OF             
MTR06368000001000000000000000RA              99288329    005800830000008300000570000003NN  NNW 000                       N    
RDG06368000WATRL000000004K00000000000001071007707172015132220N000000000000N21       000060400K 10000000010000001058           
CUS0636800000106284387005         STANLEY, DOROTHY A  3575 ELMORA AVE                         000N        CARE OF             
MTR06368000001000000000000000RA              24771656    005800840000008400000520000003NN  NNW 000                       N    
RDG06368000WATRL000000004K00000000000002552007807172015132228N000400000010N21       000080400K 10000000010000002547           
CUS0636800000106284388003         SUMMERS, WILBERT    3577 ELMORA AVE                         000N        CARE OF             
MTR06368000001000000000000000RA              00125880    005800850000008500000570000003NN  NNW 000                       N    
RDG06368000WATRL000000004K00000000000000943007907172015132231N000000000000N21       000030400K 10000000010000000919           
CUS0636800000106329548009         CARVER, JAMES       3700 ERDMAN AVE                         000N        CARE OF             
MTR06368000001000000000000000RA              24751201    005800860000008600000520000003NN  NNW 000                       N    
RDG06368000WATRL000000004K00000000000004297008007172015132234N000000000000N21       000030400K 10000000010000004292           
CUS0636800000106329549007         BLUE STAR PROPERTY M3702 ERDMAN AVE                         000N        CARE OF             
MTR06368000001000000000000000RA              54351378    005800870000008700000520000003NN  NNW 000                       N    
RDG06368000WATRL000000004K00000000000002181008107172015132237N000000000000N21       000030400K 10000000010000002139           
CUS0636800000106329550005         HADES HOUSING, LLC  3704 ERDMAN AVE                         000N        CARE OF             
MTR06368000001000000000000000RA              35116662    005800880000008800000520000000NN  NNW 000                       N    
RDG06368000WATRL000000004K00000000000003111005507202015124207N000000000010U21       000050400K 10000000010000003111           
CUS0636800000106329551003         PAM33, LLC          3706 ERDMAN AVE                         000N        CARE OF             
MTR06368000001000000000000000RA              14917018    005800890000008900000310000003NN  NNW 000                       N    
RDG06368000WATRL000000004K00000000000001365005407202015124202N000000000020U21       000830400K 10000000010000001351           
CUS0636800000106329552001         PREMIER PPTY MGMT LL3708 ERDMAN AVE                         000N        CARE OF             
MTR06368000001000000000000000RA              24757059    005800900000009000000520000003NN  NNW 000                       N    
RDG06368000WATRL000000004K00000000000004251008207172015132242N000000000000N21       000050400K 10000000010000004240           
CUS0636800000106329553009         RIDDICK, ALFRED D   3710 ERDMAN AVE                         000N        CARE OF             
MTR06368000001000000000000000RA              36687617    005800910000009100000520000003NN  NNW 000                       N    
RDG06368000WATRL000000004K00000000000001891008307172015132245N000000000000N21       000030400K 10000000010000001885           
CUS0636800000106329554007         WILLIAMS, JAMEL K.  3712 ERDMAN AVE                         000N        CARE OF             
MTR06368000001000000000000000RA              35098774    005800920000009200000520000003NN  NNW 000                       N    
RDG06368000WATRL000000004K00000000000003801008407172015132247N000000000000N21       000020400K 10000000010000003750           
CUS0636800000106329555004         PERSIANO, VALERIE   3714 ERDMAN AVE                         000N        CARE OF             
MTR06368000001000000000000000RA              35098784    005800930000009300000520000003NN  NNW 000                       N    
RDG06368000WATRL000000004K00000000000005328008507172015132251N000000000000N21       000040400K 10000000010000005306           
CUS0636800000106329556002         JONES, MARSHA       3716 ERDMAN AVE                         000N        CARE OF             
MTR06368000001000000000000000RA              54348078    005800940000009400000520000003NN  NNW 000                       N    
RDG06368000WATRL000000004K00000000000001410008607172015132253N000000000000N21       000020400K 10000000010000001395           
CUS0636800000106329557000         WILSON, JACQUELINE D3600 ELMORA AVE                         000N        CARE OF             
MTR06368000001000000000000000RA              29684542    005800950000009500000520000003NN  NNW 000                       N    
RDG06368000WATRL000000004K00000000000001653008707172015132255N000000000000N21       000020400K 10000000010000001645           
CUS0636800000106329558008         OWENS, LYNNETTE     3602 ELMORA AVE                         000N        CARE OF             
MTR06368000001000000000000000RA              29684539    005800960000009600000520000003NN  NNW 000                       N    
RDG06368000WATRL000000004K00000000000002133008807172015132303N000000000000N21       000080400K 10000000010000002124           
CUS0636800000106329559006         LANCASTER, LEONA G. 3604 ELMORA AVE                         000N        CARE OF             
MTR06368000001000000000000000RA              24765208    005800970000009700000520000003NN  NNW 000                       N    
RDG06368000WATRL000000004K00000000000002558008907172015132320N000000000000N21       000170400K 10000000010000002532           
CUS0636800000106329560004         WORTHY, EILEEN F    3606 ELMORA AVE                         000N        CARE OF             
MTR06368000001000000000000000RA              50476135    005800980000009800000520000003NN  NNW 000                       N    
RDG06368000WATRL000000004K00000000000000169009007172015132324N000000000000N21       000040400K 10000000010000000167           
CUS0636800000106329561002         ANTOINE, WINSTON O. 3608 ELMORA AVE                         000N        CARE OF             
MTR06368000001000000000000000RA              24757056    005800990000009900000520000003NN  NNW 000                       N    
RDG06368000WATRL000000004K00000000000002791009107172015132327N000000000000N21       000030400K 10000000010000002771           
CUS0636800000106329562000         MCFARLANE SR, ADOLPH3610 ELMORA AVE                         000N        CARE OF             
MTR06368000001000000000000000RA              32573709    005801000000010000000520000003NN  NNW 000                       N    
RDG06368000WATRL000000004K00000000000001525009207172015132333N000000000000N21       000060400K 10000000010000001516           
CUS0636800000106329563008         SCURRY, YOLANDA A   3612 ELMORA AVE                         000N        CARE OF             
MTR06368000001000000000000000RA              32573710    005801010000010100000520000003NN  NNW 000                       N    
RDG06368000WATRL000000004K00000000000002708009307172015132338N000000000000N21       000050400K 10000000010000002688           
CUS0636800000106329564006         FORBES, DOMINIC D   3614 ELMORA AVE                         000N        CARE OF             
MTR06368000001000000000000000RA              32573711    005801020000010200000520000003NN  NNW 000                       N    
RDG06368000WATRL000000004K00000000000000927009407172015132341N000000000000N21       000030400K 10000000010000000910           
CUS0636800000106329565003         LANG, SHARON Y      3616 ELMORA AVE                         000N        CARE OF             
MTR06368000001000000000000000RA              10000847    005801030000010300000570000003NN  NNW 000                       N    
RDG06368000WATRL000000004K00000000000000483009507172015132345N000000000000N21       000040400K 10000000010000000471           
CUS0636800000106329566001         STACY M HILL        3618 ELMORA AVE                         000N        CARE OF             
MTR06368000001000000000000000RA              01101221    005801040000010400000610000003NN  NNW 000                       N    
RDG06368000WATRL000000004K00000000000000817009607172015132348N000000000000N21       000030400K 10000000010000000794           
CUS0636800000106329567009         FOWLKES, LAVERNE M  3620 ELMORA AVE                         000N        CARE OF             
MTR06368000001000000000000000RA              52290259    005801050000010500000520000003NN  NNW 000                       N    
RDG06368000WATRL000000004K00000000000001822009707172015132414N000300000020N21       000260400K 10000000010000001790           
CUS0636800000106329568007         NASH, VERONICA      3622 ELMORA AVE                         000N        CARE OF             
MTR06368000001000000000000000RA              50788384    005801060000010600000520000003NN  NNW 000                       N    
RDG06368000WATRL000000004K00000000000001575009807172015132417N000000000000N21       000030400K 10000000010000001532           
CUS0636800000106329569005         3624 ELMORA AVE. LLC3624 ELMORA AVE                         000N        CARE OF             
MTR06368000001000000000000000RA              32573695    005801070000010700000520000003NN  NNW 000                       N    
RDG06368000WATRL000000004K00000000000002293009907172015132428N000300000020N21       000110400K 10000000010000002396           
CUS0636800000106329570003         MCVAY, JAMES H      3626 ELMORA AVE                         000N        CARE OF             
MTR06368000001000000000000000RA              32573770    005801080000010800000520000003NN  NNW 000                       N    
RDG06368000WATRL000000004K00000000000003586010007172015132432N000000000000N21       000040400K 10000000010000003570           
CUS0636800000106329571001         HENRY, GLADYS       3628 ELMORA AVE                         000N        CARE OF             
MTR06368000001000000000000000RA              32573704    005801090000010900000520000003NN  NNW 000                       N    
RDG06368000WATRL000000004K00000000000001608010107172015132434N000000000000N21       000020400K 10000000010000001592           
CUS0636800000106329572009         SUELL, PAULETTE     3630 ELMORA AVE                         000N        CARE OF             
MTR06368000001000000000000000RA              50786528    005801100000011000000520000003NN  NNW 000                       N    
RDG06368000WATRL000000004K00000000000000612010207172015132436N000000000000N21       000020400K 10000000010000000605           
CUS0636800000106329573007         BANK OF AMERICA     3632 ELMORA AVE                         000N        CARE OF             
MTR06368000001000000000000000RA              54348844    005801110000011100000520000003NN  NNW 000                       N    
RDG06368000WATRL000000004K00000000000001208010307172015132437N000000000000N21       000010400K 10000000010000001208           
CUS0636800000106329574005         RUEHL, TERRI L.     3634 ELMORA AVE                         000N        CARE OF             
MTR06368000001000000000000000RA              54348897    005801120000011200000520000003NN  NNW 000                       N    
RDG06368000WATRL000000004K00000000000001158010407172015132447N000100000010N21       000100400K 10000000010000001158           
CUS0636800000106329575002         COOK, ADRIENNE G    3636 ELMORA AVE                         000N        CARE OF             
MTR06368000001000000000000000RA              39925550    005801130000011300000520000003NN  NNW 000                       N    
RDG06368000WATRL000000004K00000000000002050010507172015132455N000000000000N21       000080400K 10000000010000002042           
CUS0636800000106329576000         WRIGHT JR, HENRY M  3638 ELMORA AVE                         000N        CARE OF             
MTR06368000001000000000000000RA              39925553    005801140000011400000520000003NN  NNW 000                       N    
RDG06368000WATRL000000004K00000000000000881010607172015132458N000000000000N21       000030400K 10000000010000000881           
CUS0636800000106329577008         KEELS, SAMUEL JR    3700 ELMORA AVE                         000N        CARE OF             
MTR06368000001000000000000000RA              35098855    005801150000011500000520000003NN  NNW 000                       N    
RDG06368000WATRL000000004K00000000000002903010707172015132504N000000000000N21       000060400K 10000000010000002890           
CUS0636800000106329578006         PETER L WALKER      3702 ELMORA AVE                         000N        CARE OF             
MTR06368000001000000000000000RA              35098854    005801160000011600000520000003NN  NNW 000                       N    
RDG06368000WATRL000000004K00000000000001284010807172015132509N000100000010N21       000050400K 10000000010000001284           
CUS0636800000106329579004         BRASWELL, PAUL W    3704 ELMORA AVE                         000N        CARE OF             
MTR06368000001000000000000000RA              30527254    005801170000011700000520000003NN  NNW 000                       N    
RDG06368000WATRL000000004K00000000000001460010907172015132511N000000000000N21       000020400K 10000000010000001457           
CUS0636800000106329580002         SMITH-ROGERS, LATEIS3706 ELMORA AVE                         000N        CARE OF             
MTR06368000001000000000000000RA              30527271    005801180000011800000520000003NN  NNW 000                       N    
RDG06368000WATRL000000004K00000000000003381011007172015132515N000000000000N21       000040400K 10000000010000003357           
CUS0636800000106329581000         LAUGHNER, ERIK SHAWN3708 ELMORA AVE                         000N        CARE OF             
MTR06368000001000000000000000RA              24220916    005801190000011900000520000003NN  NNW 000                       N    
RDG06368000WATRL000000004K00000000000002914011107172015132523N000000000000N21       000080400K 10000000010000002888           
CUS0636800000106329582008         BROWN SR., LARRY D  3710 ELMORA AVE                         000N        CARE OF             
MTR06368000001000000000000000RA              25782885    005801200000012000000520000003NN  NNW 000                       N    
RDG06368000WATRL000000004K00000000000003087011207172015132531N000000000010N21       000080400K 10000000010000003070           
CUS0636800000106329583006         NICHOLSON, RONALD   3712 ELMORA AVE                         000N        CARE OF             
MTR06368000001000000000000000RA              22609980    005801210000012100000520000003NN  NNW 000                       N    
RDG06368000WATRL000000004K00000000000003462011307172015132537N000000000000N21       000060400K 10000000010000003456           
CUS0636800000106329584004         DANIELS, DEBORA A.  3714 ELMORA AVE                         000N        CARE OF             
MTR06368000001000000000000000RA              35098857    005801220000012200000520000003NN  NNW 000                       N    
RDG06368000WATRL000000004K00000000000002375011407172015132541N000000000000N21       000040400K 10000000010000002357           
CUS0636800000106329585001         MILLER, CHANDRA     3716 ELMORA AVE                         000N        CARE OF             
MTR06368000001000000000000000RA              35098869    005801230000012300000520000003NN  NNW 000                       N    
RDG06368000WATRL000000004K00000000000004078011507172015132606N000000000011N21       000170400K 10000000010000004067           
CUS0636800000106329586009         HUGHES, AARON D.    3718 ELMORA AVE                         000N        CARE OF             
MTR06368000001000000000000000RA              35098861    005801240000012400000520000003NN  NNW 000                       N    
RDG06368000WATRL000000004K00000000000003479011607172015132611N000000000000N21       000050400K 10000000010000003461           
CUS0636800000106329587007         COOK, RALEE A.      3720 ELMORA AVE                         000N        CARE OF             
MTR06368000001000000000000000RA              26015898    005801250000012500000520000003NN  NNW 000                       N    
RDG06368000WATRL000000004K00000000000003755011707172015132616N000000000000N21       000050400K 10000000010000003742           
CUS0636800000106329588005         AYODELE, OLUWASEYI  3722 ELMORA AVE                         000N        CARE OF             
MTR06368000001000000000000000RA              26015899    005801260000012600000520000003NN  NNW 000                       N    
RDG06368000WATRL000000004K00000000000004343011807172015132626N000300000010N21       000100400K 10000000010000003918           
CUS0636800000106329589003         AYODELE, OLUWASEYI  3724 ELMORA AVE                         000N        CARE OF             
MTR06368000001000000000000000RA              24223682    005801270000012700000520000003NN  NNW 000                       N    
RDG06368000WATRL000000004K00000000000002787011907172015132645N000000000010N21       000190400K 10000000010000002754           
CUS0636800000106329590001         KARL WENDLER        3726 ELMORA AVE                         000N        CARE OF             
MTR06368000001000000000000000RA              24223650    005801280000012800000520000003NN  NNW 000                       N    
RDG06368000WATRL000000004K00000000000002998012007172015132705N000000000020N21       000200400K 10000000010000002948           
CUS0636800000106329591009         CHANCE SR, TRAVIS   3728 ELMORA AVE                         000N        CARE OF             
MTR06368000001000000000000000RA              14922656    005801290000012900000310000003NN  NNW 000                       N    
RDG06368000WATRL000000004K00000000000000578012107172015132709N000000000000N21       000040400K 10000000010000000562           
CUS0636800000106329592007         LYNNELL D SUMMERVILL3730 ELMORA AVE                         000N        CARE OF             
MTR06368000001000000000000000RA              14922657    005801300000013000000310000003NN  NNW 000                       N    
RDG06368000WATRL000000004K00000000000000611012207172015132711N000000000000N21       000020400K 10000000010000000598           
CUS0636800000106329593005         MCCORD, DELORES     3732 ELMORA AVE                         000N        CARE OF             
MTR06368000001000000000000000RA              77989384    005801310000013100000350000000NN  NNW 000                       N    
RDG06368000WATRL000000004K00000000000000000001707202015120819S001000000000U21       001320400K 10000000010000000000           
CUS0636800000106329594003         ELLISON, HARRY L (LI3734 ELMORA AVE                         000N        CARE OF             
MTR06368000001000000000000000RA              24757067    005801320000013200000520000003NN  NNW 000                       N    
RDG06368000WATRL000000004K00000000000002147001807202015120823N000000000000U21       000040400K 10000000010000002143           
CUS0636800000106329595000         JACOBS, ALFONSO R   3736 ELMORA AVE                         000N        CARE OF             
MTR06368000001000000000000000RA              32176916    005801330000013300000520000003NN  NNW 000                       N    
RDG06368000WATRL000000004K00000000000001314012307172015132716N000000000000N21       000050400K 10000000010000001307           
CUS0636800000106329596008         SCOTT, SHANTANNA D. 3738 ELMORA AVE                         000N        CARE OF             
MTR06368000001000000000000000RA              32176869    005801340000013400000520000003NN  NNW 000                       N    
RDG06368000WATRL000000004K00000000000002273012407172015132728N000000000000N21       000120400K 10000000010000002267           
CUS0636800000106329597006         JEREMIAH/CAROL A GLE3740 ELMORA AVE                         000N        CARE OF             
MTR06368000001000000000000000RA              50481068    005801350000013500000520000003NN  NNW 000                       N    
RDG06368000WATRL000000004K00000000000000606012507172015132733N000000000000N21       000050400K 10000000010000000606           
CUS0636800000106329598004         BURGESS, TIFFANY    3742 ELMORA AVE                         000N        CARE OF             
MTR06368000001000000000000000RA              01077829    005801360000013600000610000003NN  NNW 000                       N    
RDG06368000WATRL000000004K00000000000000424012607172015132812N000300000021N21       000340400K 10000000010000000397           
CUS0636800000106329599002         PAYTON, JANICE M    3744 ELMORA AVE                         000N        CARE OF             
MTR06368000001000000000000000RA              00138061    005801370000013700000570000003NN  NNW 000                       N    
RDG06368000WATRL000000004K00000000000000870012707172015132820N000400000020N21       000080400K 10000000010000000865           
CUS0636800000106329600008         CHEATHAM, STANLEY CO3746 ELMORA AVE                         000N        CARE OF             
MTR06368000001000000000000000RA              00138060    005801380000013800000570000003NN  NNW 000                       N    
RDG06368000WATRL000000004K00000000000001350012807172015132827N000000000010N21       000070400K 10000000010000001346           
CUS0636800000106329601006         FRANCIS J HEILMAN   3748 ELMORA AVE                         000N        CARE OF             
MTR06368000001000000000000000RA              14908994    005801390000013900000310000003NN  NNW 000                       N    
RDG06368000WATRL000000004K00000000000000363012907172015132832N000000000000N21       000050400K 10000000010000000359           
CUS0636800000106329602004         PEARSON, ANDREA Y.  3750 ELMORA AVE                         000N        CARE OF             
MTR06368000001000000000000000RA              14905589    005801400000014000000310000003NN  NNW 000                       N    
RDG06368000WATRL000000004K00000000000001831013007172015132835N000000000000N21       000030400K 10000000010000001803           
CUS0636800000106329603002         HURT, JERRY  (ETAL) 3752 ELMORA AVE                         000N        CARE OF             
MTR06368000001000000000000000RA              01096015    005801410000014100000610000003NN  NNW 000                       N    
RDG06368000WATRL000000004K00000000000000440013107172015132842N000100000020N21       000070400K 10000000010000000440           
CUS0636800000106329604000         WHITENER, LINDA     3800 ELMORA AVE                         000N        CARE OF             
MTR06368000001000000000000000RA              10011905    005801420000014200000570000003NN  NNW 000                       N    
RDG06368000WATRL000000004K00000000000000764013207172015132845N000000000000N21       000030400K 10000000010000000737           
CUS0636800000106329605007         CARTER, ANNIE M     3802 ELMORA AVE                         000N        CARE OF             
MTR06368000001000000000000000RA              14916538    005801430000014300000310000003NN  NNW 000                       N    
RDG06368000WATRL000000004K00000000000000651013307172015132856N000000000000N21       000110400K 10000000010000000642           
CUS0636800000106329606005         DUNBAR, TINNELL R.  3804 ELMORA AVE                         000N        CARE OF             
MTR06368000001000000000000000RA              14917052    005801440000014400000310000003NN  NNW 000                       N    
RDG06368000WATRL000000004K00000000000000506013407172015132911N000000000000N21       000150400K 10000000010000000492           
CUS0636800000106329607003         WILLIAMS, CHRISTIAN 3806 ELMORA AVE                         000N        CARE OF             
MTR06368000001000000000000000RA              99288851    005801450000014500000570000003NN  NNW 000                       N    
RDG06368000WATRL000000004K00000000000000782013507172015132913N000000000000N21       000020400K 10000000010000000767           
CUS0636800000106329608001         YOUNG, BERNARD N    3808 ELMORA AVE                         000N        CARE OF             
MTR06368000001000000000000000RA              99289672    005801460000014600000570000003NN  NNW 000                       N    
RDG06368000WATRL000000004K00000000000001142013607172015132917N000000000000N21       000040400K 10000000010000001126           
CUS0636800000106329609009         FOSTER, ANTWON L    3810 ELMORA AVE                         000N        CARE OF             
MTR06368000001000000000000000RA              10022007    005801470000014700000570000003NN  NNW 000                       N    
RDG06368000WATRL000000004K00000000000000162013707172015132930N000000000000N21       000130400K 10000000010000000143           
CUS0636800000106329610007         MONTGOMERY, MONYETTA3812 ELMORA AVE                         000N        CARE OF             
MTR06368000001000000000000000RA              52290379    005801480000014800000520000003NN  NNW 000                       N    
RDG06368000WATRL000000004K00000000000001434013807172015132934N000000000000N21       000040400K 10000000010000001410           
CUS0636800000106329611005         GRAY, DIANNE L      3814 ELMORA AVE                         000N        CARE OF             
MTR06368000001000000000000000RA              01090438    005801490000014900000610000003NN  NNW 000                       N    
RDG06368000WATRL000000004K00000000000000748013907172015132937N000000000000N21       000030400K 10000000010000000729           
CUS0636800000106329612003         ROANE, GLORIA V     3816 ELMORA AVE                         000N        CARE OF             
MTR06368000001000000000000000RA              50788105    005801500000015000000520000003NN  NNW 000                       N    
RDG06368000WATRL000000004K00000000000000733014007172015132940N000000000000N21       000030400K 10000000010000000728           
CUS0636800000106329613001         BROWN, MICHELLE     3818 ELMORA AVE                         000N        CARE OF             
MTR06368000001000000000000000RA              10011890    005801510000015100000570000003NN  NNW 000                       N    
RDG06368000WATRL000000004K00000000000000313014107172015132944N000000000000N21       000040400K 10000000010000000293           
CUS0636800000106329614009         STOCKTON, TANYA     3820 ELMORA AVE                         000N        CARE OF             
MTR06368000001000000000000000RA              10014569    005801520000015200000570000003NN  NNW 000                       N    
RDG06368000WATRL000000004K00000000000000283014207172015132950N000000000000N21       000060400K 10000000010000000272           
CUS0636800000106329615006         LEE, FRANCES B      3822 ELMORA AVE                         000N        CARE OF             
MTR06368000001000000000000000RA              00125907    005801530000015300000570000003NN  NNW 000                       N    
RDG06368000WATRL000000004K00000000000000390001907202015121025N000000000000U21       001220400K 10000000010000000386           
CUS0636800000106329616004         YOUNG, CARLEEN      3824 ELMORA AVE                         000N        CARE OF             
MTR06368000001000000000000000RA              00125835    005801540000015400000570000003NN  NNW 000                       N    
RDG06368000WATRL000000004K00000000000001183002007202015121027N000000000000U21       000020400K 10000000010000001179           
CUS0636800000106329617002         SHORT, ELSIE        3826 ELMORA AVE                         000N        CARE OF             
MTR06368000001000000000000000RA              99391573    005801550000015500000570000003NN  NNW 000                       N    
RDG06368000WATRL000000004K00000000000000494014307172015133013N000000000000N21       000230400K 10000000010000000485           
CUS0636800000106329618000         MARY E KELLEY       3828 ELMORA AVE                         000N        CARE OF             
MTR06368000001000000000000000RA              32176866    005801560000015600000520000003NN  NNW 000                       N    
RDG06368000WATRL000000004K00000000000001604014407172015133015N000000000000N21       000020400K 10000000010000001594           
CUS0636800000106329619008         BOONE, HAZEL ROBINSO3830 ELMORA AVE                         000N        CARE OF             
MTR06368000001000000000000000RA              10004415    005801570000015700000570000003NN  NNW 000                       N    
RDG06368000WATRL000000004K00000000000000326014507172015133018N000000000000N21       000030400K 10000000010000000303           
CUS0636800000106329620006         STEWART, LOLA TINA  3832 ELMORA AVE                         000N        CARE OF             
MTR06368000001000000000000000RA              24772878    005801580000015800000520000003NN  NNW 000                       N    
RDG06368000WATRL000000004K00000000000001208014607172015133025N000000000000N21       000070400K 10000000010000001201           
CUS0636800000106329621004         EAST BALTIMORE INVES3834 ELMORA AVE                         000N        CARE OF             
MTR06368000001000000000000000RA              26006353    005801590000015900000520000003NN  NNW 000                       N    
RDG06368000WATRL000000004K00000000000001208014707172015133034N000000000000N21       000090400K 10000000010000001187           
CUS0636800000106329622002         GRACEY, OLIVE MALINE3836 ELMORA AVE                         000N        CARE OF             
MTR06368000001000000000000000RA              99392201    005801600000016000000570000003NN  NNW 000                       N    
RDG06368000WATRL000000004K00000000000000399014807172015133038N000000000000N21       000040400K 10000000010000000382           
CUS0636800000106329623000         SHERRILL, LAKETA E. 3838 ELMORA AVE                         000N        CARE OF             
MTR06368000001000000000000000RA              00125837    005801610000016100000570000003NN  NNW 000                       N    
RDG06368000WATRL000000004K00000000000000618014907172015133040N000000000000N21       000020400K 10000000010000000604           
CUS0636800000106329624008         GAMBRILL, MARIETTA  3840 ELMORA AVE                         000N        CARE OF             
MTR06368000001000000000000000RA              00125440    005801620000016200000570000003NN  NNW 000                       N    
RDG06368000WATRL000000004K00000000000001214002107202015121141N000000000000U21       000740400K 10000000010000001205           
CUS0636800000106329625005         CONN, EUGENE        3842 ELMORA AVE                         000N        CARE OF             
MTR06368000001000000000000000RA              00125459    005801630000016300000570000003NN  NNW 000                       N    
RDG06368000WATRL000000004K00000000000000286002207202015121148N000000000000U21       000070400K 10000000010000000278           
CUS0636800000106329626003         WALKER, BELINDA L   3844 ELMORA AVE                         000N        CARE OF             
MTR06368000001000000000000000RA              00126790    005801640000016400000570000000NN  NNW 000                       N    
RDG06368000WATRL000000004K00000000000000868015007172015133048N000000000000N21       000080400K 10000000010000000851           
CUS0636800000106329627001         HAWTHORNE, LAURIE   3846 ELMORA AVE                         000N        CARE OF             
MTR06368000001000000000000000RA              46882559    005801650000016500000520000003NN  NNW 000                       N    
RDG06368000WATRL000000004K00000000000002029015107172015133050N000000000000N21       000020400K 10000000010000001987           
CUS0636800000106329628009         LYNCH, YVETTE J     3848 ELMORA AVE                         000N        CARE OF             
MTR06368000001000000000000000RA              39925552    005801660000016600000520000003NN  NNW 000                       N    
RDG06368000WATRL000000004K00000000000003246015207172015133053N000000000000N21       000030400K 10000000010000003233           
CUS0636800000106329629007         PATRICIA ROSE       3850 ELMORA AVE                         000N        CARE OF             
MTR06368000001000000000000000RA              14915398    005801670000016700000310000003NN  NNW 000                       N    
RDG06368000WATRL000000004K00000000000000625015307172015133116N000000000000N21       000230400K 10000000010000000606           
CUS0636800000106329630005         MOORE, JOAN CAROL   3852 ELMORA AVE                         000N        CARE OF             
MTR06368000001000000000000000RA              32902720    005801680000016800000520000003NN  NNW 000                       N    
RDG06368000WATRL000000004K00000000000000852002307202015121319N000000000000U21       000910400K 10000000010000000847           
CUS0636800000106329631003         HOWARD, JAMES A.    3854 ELMORA AVE                         000N        CARE OF             
MTR06368000001000000000000000RA              01090215    005801690000016900000610000003NN  NNW 000                       N    
RDG06368000WATRL000000004K00000000000000689002407202015121348N000300000020U21       000290400K 10000000010000000639           
CUS0636800000106329632001         PERRY, JARONDA      3856 ELMORA AVE                         000N        CARE OF             
MTR06368000001000000000000000RA              50786564    005801700000017000000520000003NN  NNW 000                       N    
RDG06368000WATRL000000004K00000000000001113015407172015133124N000400000010N21       000080400K 10000000010000001104           
CUS0636800000106329633009         JOHNSON SR., JAMES E3858 ELMORA AVE                         000N        CARE OF             
MTR06368000001000000000000000RA              30515450    005801710000017100000520000003NN  NNW 000                       N    
RDG06368000WATRL000000004K00000000000003041015507172015133127N000000000000N21       000030400K 10000000010000003021           
CUS0636800000106329634007         FULLARD, JEFFREY    3861 ELMORA AVE                         000N        CARE OF             
MTR06368000001000000000000000RA              00125840    005801720000017200000570000003NN  NNW 000                       N    
RDG06368000WATRL000000004K00000000000000742002507202015121613N000000000030U21       001450400K 10000000010000000740           
CUS0636800000106329635004         GEBHARDT, WILLIAM F.3859 ELMORA AVE                         000N        CARE OF             
MTR06368000001000000000000000RA              00125526    005801730000017300000570000003NN  NNW 000                       N    
RDG06368000WATRL000000004K00000000000001133002607202015121617N000000000000U21       000040400K 10000000010000001122           
CUS0636800000106329636002         CAMPBELL, HENSLEE   3857 ELMORA AVE                         000N        CARE OF             
MTR06368000001000000000000000RA              01090429    005801740000017400000610000003NN  NNW 000                       N    
RDG06368000WATRL000000004K00000000000000626015607172015133143N000000000000N21       000160400K 10000000010000000616           
CUS0636800000106329637000         PETERMAN, MERCEDES S3855 ELMORA AVE                         000N        CARE OF             
MTR06368000001000000000000000RA              01090426    005801750000017500000610000003NN  NNW 000                       N    
RDG06368000WATRL000000004K00000000000001121015707172015133145N000000000000N21       000020400K 10000000010000001116           
CUS0636800000106329638008         MCLAUGHLIN, BRENDA  3853 ELMORA AVE                         000N        CARE OF             
MTR06368000001000000000000000RA              23054341    005801760000017600000520000003NN  NNW 000                       N    
RDG06368000WATRL000000004K00000000000001935015807172015133215N000300000020N21       000300400K 10000000010000001937           
CUS0636800000106329639006         HARRIS, PAMELA E    3851 ELMORA AVE                         000N        CARE OF             
MTR06368000001000000000000000RA              75613422    005801770000017700000350000003NN  NNW 000                       N    
RDG06368000WATRL000000004K00000000000000044015907172015133216N000000000000N21       000010400K 10000000010000000034           
CUS0636800000106329640004         WILLIAMS, MARY J    3849 ELMORA AVE                         000N        CARE OF             
MTR06368000001000000000000000RA              24233042    005801780000017800000520000003NN  NNW 000                       N    
RDG06368000WATRL000000004K00000000000002327016007172015133222N000000000000N21       000060400K 10000000010000002319           
CUS0636800000106329641002         WATKINS, WADE (LIFE)3847 ELMORA AVE                         000N        CARE OF             
MTR06368000001000000000000000RA              26004141    005801790000017900000520000003NN  NNW 000                       N    
RDG06368000WATRL000000004K00000000000002326016107172015133227N000000000000N21       000050400K 10000000010000002324           
CUS0636800000106329642000         WARDLAW, GISELLE F  3845 ELMORA AVE                         000N        CARE OF             
MTR06368000001000000000000000RA              45386538    005801800000018000000520000003NN  NNW 000                       N    
RDG06368000WATRL000000004K00000000000001268016207172015133229N000000000000N21       000020400K 10000000010000001257           
CUS0636800000106329643008         BROWN, BARIVA C     3843 ELMORA AVE                         000N        CARE OF             
MTR06368000001000000000000000RA              76349317    005801810000018100000350000003NN  NNW 000                       N    
RDG06368000WATRL000000004K00000000000000023016307172015133232N000000000000N21       000030400K 10000000010000000018           
CUS0636800000106329644006         ARMSTRONG, STACEY L.3841 ELMORA AVE                         000N        CARE OF             
MTR06368000001000000000000000RA              01083951    005801820000018200000610000003NN  NNW 000                       N    
RDG06368000WATRL000000004K00000000000000394016407172015133249N000000000010N21       000170400K 10000000010000000383           
CUS0636800000106329645003         LAMMA, JOYCE        3839 ELMORA AVE                         000N        CARE OF             
MTR06368000001000000000000000RA              41074408    005801830000018300000520000003NN  NNW 000                       N    
RDG06368000WATRL000000004K00000000000001627016507172015133251N000000000000N21       000020400K 10000000010000001608           
CUS0636800000106329646001         TAIJIA C DAVIS      3837 ELMORA AVE                         000N        CARE OF             
MTR06368000001000000000000000RA              01090422    005801840000018400000610000003NN  NNW 000                       N    
RDG06368000WATRL000000004K00000000000000358016607172015133253N000000000000N21       000020400K 10000000010000000342           
CUS0636800000106329647009         MILLS, SHARON       3835 ELMORA AVE                         000N        CARE OF             
MTR06368000001000000000000000RA              52290231    005801850000018500000520000003NN  NNW 000                       N    
RDG06368000WATRL000000004K00000000000001352016707172015133255N000000000000N21       000020400K 10000000010000001341           
CUS0636800000106329648007         SHUFFORD, MARIAN    3833 ELMORA AVE                         000N        CARE OF             
MTR06368000001000000000000000RA              14919154    005801860000018600000310000003NN  NNW 000                       N    
RDG06368000WATRL000000004K00000000000000919002707202015121714N000000000000U21       000570400K 10000000010000000899           
CUS0636800000106329649005         VICTORIA ROBINSON   3831 ELMORA AVE                         000N        CARE OF             
MTR06368000001000000000000000RA              14909187    005801870000018700000310000003NN  NNW 000                       N    
RDG06368000WATRL000000004K00000000000000229002807202015121733N000300000020U21       000190400K 10000000010000000231           
CUS0636800000106329650003         MONDOWNEY, GEORGE   3829 ELMORA AVE                         000N        CARE OF             
MTR06368000001000000000000000RA              00125528    005801880000018800000570000003NN  NNW 000                       N    
RDG06368000WATRL000000004K00000000000000698016807172015133412N000000000000N21       000770400K 10000000010000000689           
CUS0636800000106329651001         COOPER-WISE, ANN    3827 ELMORA AVE                         000N        CARE OF             
MTR06368000001000000000000000RA              54348627    005801890000018900000520000003NN  NNW 000                       N    
RDG06368000WATRL000000004K00000000000001040016907172015133415N000000000000N21       000030400K 10000000010000001030           
CUS0636800000106329652009         RICHARDSON, CHARLOTT3825 ELMORA AVE                         000N        CARE OF             
MTR06368000001000000000000000RA              76345971    005801900000019000000350000003NN  NNW 000                       N    
RDG06368000WATRL000000004K00000000000000009017007172015133417N000000000000N21       000020400K 10000000010000000006           
CUS0636800000106329653007         WALKER, TRINA D  (TR3823 ELMORA AVE                         000N        CARE OF             
MTR06368000001000000000000000RA              36696390    005801910000019100000520000003NN  NNW 000                       N    
RDG06368000WATRL000000004K00000000000003436017107172015133428N000000000000N21       000110400K 10000000010000003431           
CUS0636800000106329654005         MATTHEWS, ANTHONY   3821 ELMORA AVE                         000N        CARE OF             
MTR06368000001000000000000000RA              27813472    005801920000019200000520000003NN  NNW 000                       N    
RDG06368000WATRL000000004K00000000000003365017207172015133430N000000000000N21       000020400K 10000000010000003361           
CUS0636800000106329655002         BARNES, LENA B      3819 ELMORA AVE                         000N        CARE OF             
MTR06368000001000000000000000RA              35116306    005801930000019300000520000003NN  NNW 000                       N    
RDG06368000WATRL000000004K00000000000001329017307172015133432N000000000000N21       000020400K 10000000010000001320           
CUS0636800000106329656000         HELEN M JOLLEY      3817 ELMORA AVE                         000N        CARE OF             
MTR06368000001000000000000000RA              00128892    005801940000019400000570000003NN  NNW 000                       N    
RDG06368000WATRL000000004K00000000000001310017407172015133434N000000000000N21       000020400K 10000000010000001294           
CUS0636800000106329657008         WILKINS, CYNTHIA    3815 ELMORA AVE                         000N        CARE OF             
MTR06368000001000000000000000RA              00128890    005801950000019500000570000003NN  NNW 000                       N    
RDG06368000WATRL000000004K00000000000000655017507172015133436N000000000000N21       000020400K 10000000010000000641           
CUS0636800000106329658006         MISSOURI, MARY L.   3813 ELMORA AVE                         000N        CARE OF             
MTR06368000001000000000000000RA              14908597    005801960000019600000310000003NN  NNW 000                       N    
RDG06368000WATRL000000004K00000000000000800017607172015133438N000000000000N21       000020400K 10000000010000000784           
CUS0636800000106329659004         D'ANGELO JR, ANTHONY3811 ELMORA AVE                         000N        CARE OF             
MTR06368000001000000000000000RA              50788508    005801970000019700000520000003NN  NNW 000                       N    
RDG06368000WATRL000000004K00000000000000668017707172015133440N000000000000N21       000020400K 10000000010000000664           
CUS0636800000106329660002         JOHNSON, ROBIN E.   3809 ELMORA AVE                         000N        CARE OF             
MTR06368000001000000000000000RA              27823017    005801980000019800000520000003NN  NNW 000                       N    
RDG06368000WATRL000000004K00000000000002212017807172015133442N000000000000N21       000020400K 10000000010000002197           
CUS0636800000106329661000         WHITEHEAD, CAMILLIA 3807 ELMORA AVE                         000N        CARE OF             
MTR06368000001000000000000000RA              39584987    005801990000019900000520000003NN  NNW 000                       N    
RDG06368000WATRL000000004K00000000000001237017907172015133445N000000000000N21       000030400K 10000000010000001228           
CUS0636800000106329662008         STATON, GARY L.     3805 ELMORA AVE                         000N        CARE OF             
MTR06368000001000000000000000RA              39290921    005802000000020000000520000003NN  NNW 000                       N    
RDG06368000WATRL000000004K00000000000001329018007172015133449N000000000000N21       000040400K 10000000010000001329           
CUS0636800000106329663006         JONES, JANET        3803 ELMORA AVE                         000N        CARE OF             
MTR06368000001000000000000000RA              41258100    005802010000020100000520000003NN  NNW 000                       N    
RDG06368000WATRL000000004K00000000000001367018107172015133455N000000000000N21       000060400K 10000000010000001352           
CUS0636800000106329664004         CURBEAN, LARRY      3801 ELMORA AVE                         000N        CARE OF             
MTR06368000001000000000000000RA              45379260    005802020000020200000520000003NN  NNW 000                       N    
RDG06368000WATRL000000004K00000000000000837018207172015133518N000000000030N21       000230400K 10000000010000000833           
CUS0636800000106329665001         WELLS, ANNETTE      3753 ELMORA AVE                         000N        CARE OF             
MTR06368000001000000000000000RA              14915387    005802030000020300000310000003NN  NNW 000                       N    
RDG06368000WATRL000000004K00000000000000872018307172015133522N000000000000N21       000040400K 10000000010000000853           
CUS0636800000106329666009         LIGHTNER, MARGARET  3751 ELMORA AVE                         000N        CARE OF             
MTR06368000001000000000000000RA              00138057    005802040000020400000570000003NN  NNW 000                       N    
RDG06368000WATRL000000004K00000000000001989018407172015133524N000000000000N21       000020400K 10000000010000001959           
CUS0636800000106329667007         BAKER, CHRISTINE    3749 ELMORA AVE                         000N        CARE OF             
MTR06368000001000000000000000RA              00138058    005802050000020500000570000003NN  NNW 000                       N    
RDG06368000WATRL000000004K00000000000000836018507172015133552N000400000040N21       000280400K 10000000010000000832           
CUS0636800000106329668005         GREEN, SEQUOIA S    3747 ELMORA AVE                         000N        CARE OF             
MTR06368000001000000000000000RA              31584542    005802060000020600000520000003NN  NNW 000                       N    
RDG06368000WATRL000000004K00000000000002305018607172015133554N000000000000N21       000020400K 10000000010000002294           
CUS0636800000106329669003         STEPHENS, MARIEDA A.3745 ELMORA AVE                         000N        CARE OF             
MTR06368000001000000000000000RA              11427858    005802070000020700000570000003NN  NNW 000                       N    
RDG06368000WATRL000000004K00000000000003296018707172015133557N000000000000N21       000030400K 10000000010000003283           
CUS0636800000106329670001         BIGGS, JOSEPH H     3743 ELMORA AVE                         000N        CARE OF             
MTR06368000001000000000000000RA              23055801    005802080000020800000520000003NN  NNW 000                       N    
RDG06368000WATRL000000004K00000000000003294018807172015133600N000000000000N21       000030400K 10000000010000003288           
CUS0636800000106329671009         CAWTHORN, ERIC      3741 ELMORA AVE                         000N        CARE OF             
MTR06368000001000000000000000RA              52287844    005802090000020900000520000003NN  NNW 000                       N    
RDG06368000WATRL000000004K00000000000001530018907172015133602N000000000000N21       000020400K 10000000010000001501           
CUS0636800000106329672007         BROWN, EDWARD       3739 ELMORA AVE                         000N        CARE OF             
MTR06368000001000000000000000RA              41589880    005802100000021000000520000003NN  NNW 000                       N    
RDG06368000WATRL000000004K00000000000002022019007172015133614N000000000000N21       000120400K 10000000010000002012           
CUS0636800000106329673005         GREEN, RODNEY       3737 ELMORA AVE                         000N        CARE OF             
MTR06368000001000000000000000RA              00125525    005802110000021100000570000003NN  NNW 000                       N    
RDG06368000WATRL000000004K00000000000000992019107172015133617N000000000000N21       000030400K 10000000010000000963           
CUS0636800000106329674003         WARD, SAMUEL        3735 ELMORA AVE                         000N        CARE OF             
MTR06368000001000000000000000RA              01090430    005802120000021200000610000003NN  NNW 000                       N    
RDG06368000WATRL000000004K00000000000000918019207172015133619N000000000000N21       000020400K 10000000010000000902           
CUS0636800000106329675000         NICHOLSON, GEORGE M.3733 ELMORA AVE                         000N        CARE OF             
MTR06368000001000000000000000RA              35098863    005802130000021300000520000003NN  NNW 000                       N    
RDG06368000WATRL000000004K00000000000003389019307172015133622N000000000000N21       000030400K 10000000010000003370           
CUS0636800000106329676008         LAMMA SR., JOSEPH J 3731 ELMORA AVE                         000N        CARE OF             
MTR06368000001000000000000000RA              32902355    005802140000021400000520000003NN  NNW 000                       N    
RDG06368000WATRL000000004K00000000000003025019407172015133624N000000000000N21       000020400K 10000000010000003011           
CUS0636800000106329677006         HARRIS, DENNIS A    3729 ELMORA AVE                         000N        CARE OF             
MTR06368000001000000000000000RA              01090212    005802150000021500000610000003NN  NNW 000                       N    
RDG06368000WATRL000000004K00000000000000925019507172015133643N000300000010N21       000190400K 10000000010000000943           
CUS0636800000106329678004         DOMINION RENTAL HOLD3727 ELMORA AVE                         000N        CARE OF             
MTR06368000001000000000000000RA              26015619    005802160000021600000520000003NN  NNW 000                       N    
RDG06368000WATRL000000004K00000000000002993019607172015133645N000000000000N21       000020400K 10000000010000002956           
CUS0636800000106329679002         MADDOX, PAULA Y     3725 ELMORA AVE                         000N        CARE OF             
MTR06368000001000000000000000RA              99999999    005802170000021700000520000003NN  NNW 000                       N    
RDG06368000WATRL000000004K00000000000003970019707172015133648N000000000000N21       000030400K 10000000010000003956           
CUS0636800000106329680000         HICKS, EBONY R      3723 ELMORA AVE                         000N        CARE OF             
MTR06368000001000000000000000RA              10005028    005802180000021800000570000003NN  NNW 000                       N    
RDG06368000WATRL000000004K00000000000000381019807172015133651N000000000000N21       000030400K 10000000010000000365           
CUS0636800000106329681008         TOLES, PAULA        3721 ELMORA AVE                         000N        CARE OF             
MTR06368000001000000000000000RA              30523634    005802190000021900000520000003NN  NNW 000                       N    
RDG06368000WATRL000000004K00000000000003595019907172015133712N000300000030N21       000210400K 10000000010000003562           
CUS0636800000106329682006         WILSON, PAMELA LOUSI3719 ELMORA AVE                         000N        CARE OF             
MTR06368000001000000000000000RA              10021694    005802200000022000000570000003NN  NNW 000                       N    
RDG06368000WATRL000000004K00000000000000145020007172015133718N000000000000N21       000060400K 10000000010000000137           
CUS0636800000106329683004         EDWARDS, VICKY A    3717 ELMORA AVE                         000N        CARE OF             
MTR06368000001000000000000000RA              26015910    005802210000022100000520000003NN  NNW 000                       N    
RDG06368000WATRL000000004K00000000000002395020107172015133724N000000000000N21       000060400K 10000000010000002381           
CUS0636800000106329684002         PARRISH, CARROLL    3715 ELMORA AVE                         000N        CARE OF             
MTR06368000001000000000000000RA              35098870    005802220000022200000520000003NN  NNW 000                       N    
RDG06368000WATRL000000004K00000000000000745020207172015133728N000000000000N21       000040400K 10000000010000000727           
CUS0636800000106329685009         JOHNSON, HELENA     3713 ELMORA AVE                         000N        CARE OF             
MTR06368000001000000000000000RA              35098870    005802230000022300000520000003NN  NNW 000                       N    
RDG06368000WATRL000000004K00000000000000938020307172015133730N000000000000N21       000020400K 10000000010000000932           
CUS0636800000106329686007         LINDA M COX         3711 ELMORA AVE                         000N        CARE OF             
MTR06368000001000000000000000RA              24772027    005802240000022400000520000003NN  NNW 000                       N    
RDG06368000WATRL000000004K00000000000002581020407172015133734N000000000000N21       000040400K 10000000010000002567           
CUS0636800000106329687005         YOUNG, DELORES Y    3709 ELMORA AVE                         000N        CARE OF             
MTR06368000001000000000000000RA              26000055    005802250000022500000520000003NN  NNW 000                       N    
RDG06368000WATRL000000004K00000000000003932020507172015133742N000000000000N21       000080400K 10000000010000003910           
CUS0636800000106329688003         BROCKETT, LENARD    3707 ELMORA AVE                         000N        CARE OF             
MTR06368000001000000000000000RA              35098860    005802260000022600000520000003NN  NNW 000                       N    
RDG06368000WATRL000000004K00000000000001645020607172015133748N000300000010N21       000060400K 10000000010000001639           
CUS0636800000106329689001         GAMBRELL, KIMBERLEY 3705 ELMORA AVE                         000N        CARE OF             
MTR06368000001000000000000000RA              35098867    005802270000022700000520000003NN  NNW 000                       N    
RDG06368000WATRL000000004K00000000000003606020707172015133751N000000000000N21       000030400K 10000000010000003589           
CUS0636800000106329690009         MARION M MOORE      3703 ELMORA AVE                         000N        CARE OF             
MTR06368000001000000000000000RA              45386886    005802280000022800000520000003NN  NNW 000                       N    
RDG06368000WATRL000000004K00000000000001430020807172015133753N000000000000N21       000020400K 10000000010000001423           
CUS0636800000106329691007         JONES, TONYA R      3701 ELMORA AVE                         000N        CARE OF             
MTR06368000001000000000000000RA              35098866    005802290000022900000520000003NN  NNW 000                       N    
RDG06368000WATRL000000004K00000000000002687020907172015133804N000000000000N21       000110400K 10000000010000002673           
CUS0636800000106329692005         PARRIS, BYRON N.    3635 ELMORA AVE                         000N        CARE OF             
MTR06368000001000000000000000RA              76345819    005802300000023000000350000000NN  NNW 000                       N    
RDG06368000WATRL000000004K00000000000000015021007172015133808N000000000000N21       000040400K 10000000010000000008           
CUS0636800000106329693003         BANNERMAN, ERIKA    3633 ELMORA AVE                         000N        CARE OF             
MTR06368000001000000000000000RA              14925316    005802310000023100000310000003NN  NNW 000                       N    
RDG06368000WATRL000000004K00000000000000378021107172015133816N000400000020N21       000080400K 10000000010000000375           
CUS0636800000106329694001         HOUSE SOULUTIONS LLC3631 ELMORA AVE                         000N        CARE OF             
MTR06368000001000000000000000RA              41075318    005802320000023200000520000003NN  NNW 000                       N    
RDG06368000WATRL000000004K00000000000001421021207172015133822N000000000000N21       000060400K 10000000010000001399           
CUS0636800000106329695008         KERNEY-HARRIS, EDITH3629 ELMORA AVE                         000N        CARE OF             
MTR06368000001000000000000000RA              31584641    005802330000023300000520000003NN  NNW 000                       N    
RDG06368000WATRL000000004K00000000000004179021307172015133825N000000000000N21       000030400K 10000000010000004140           
CUS0636800000106329696006         GN PROPERTY GROUP, L3627 ELMORA AVE                         000N        CARE OF             
MTR06368000001000000000000000RA              31584638    005802340000023400000520000003NN  NNW 000                       N    
RDG06368000WATRL000000004K00000000000001386021407172015133836N000300000020N21       000110400K 10000000010000001387           
CUS0636800000106329697004         JEFFERSON, CYNTHIA  3625 ELMORA AVE                         000N        CARE OF             
MTR06368000001000000000000000RA              14924743    005802350000023500000310000003NN  NNW 000                       N    
RDG06368000WATRL000000004K00000000000000354001607202015120607N000000000000U21       002780400K 10000000010000000347           
CUS0636800000106329698002         MEADS, ERNEST A     3623 ELMORA AVE                         000N        CARE OF             
MTR06368000001000000000000000RA              31584543    005802360000023600000520000003NN  NNW 000                       N    
RDG06368000WATRL000000004K00000000000002275021507172015133856N000000000000N21       000200400K 10000000010000002273           
CUS0636800000106329699000         ADEPEGBA, MOJIBADE  3621 ELMORA AVE                         000N        CARE OF             
MTR06368000001000000000000000RA              14909481    005802370000023700000310000003NN  NNW 000                       N    
RDG06368000WATRL000000004K00000000000001095021607172015133901N000000000000N21       000050400K 10000000010000001078           
CUS0636800000106329700006         SMITH JR, CARROLL M.3619 ELMORA AVE                         000N        CARE OF             
MTR06368000001000000000000000RA              48591530    005802380000023800000520000003NN  NNW 000                       N    
RDG06368000WATRL000000004K00000000000001461021707172015133907N000000000000N21       000060400K 10000000010000001447           
CUS0636800000106329701004         MILLER, IRIS        3617 ELMORA AVE                         000N        CARE OF             
MTR06368000001000000000000000RA              01080991    005802390000023900000610000003NN  NNW 000                       N    
RDG06368000WATRL000000004K00000000000001244021807172015133908N000000000000N21       000010400K 10000000010000001221           
