FHDNNNN010002168002168002191N                                                                                           006605
RHD09003400NN01170117000001170000000000940094000014NY009400940117002400120000000000000000000001    06302015NY020000 N         
CUS0900340000109256503005         WASHINGTON-MONROE, L1000 S MONROE ST                        000N        CARE OF             
MTR09003400001000000000000000RA              7177006     000400010000000100000640000003NN  NNW 000                       N    
RDG09003400WATRL000000006K00000000000057665000107082015112525N000300000010N93       000000600K 10000000010000055610           
CUS0900340000109256504003         WASHINGTON-MONROE, L1000 S MONROE ST                        000N        CARE OF             
MTR09003400001000000000000000RA              1092328     000800020000000200000430000003NN  NNW 000   FIRE SERVICE        N    
RDG09003400WATRL000000006K00000000000000096000207082015112528N000000000000N93       000030600K 10000000010000000096           
CUS0900340000109256490005         GREEN PROPERTIES    1300 S MONROE ST                        000N        CARE OF             
MTR09003400001000000000000000RA              32772068    000200030000000300000520000003NN  NNW 000                       N    
RDG09003400WATRL000000005K00000000000019587000307082015112532N000000000000N93       000040500K 10000000010000019533           
CUS0900340000109256489007         GREEN PROPERTIES    1300 S MONROE ST                        000N        CARE OF             
MTR09003400001000000000000000RA              2647600     001000040000000400000410000003NN  NNW 000   FIRE SERVICE        N    
RDG09003400WATRL000000007K00000000000000304000407082015112539N000100000010N93       000070700K 10000000010000000304           
CUS0900340000109395038004         MARYLAND TRANSIT ADM1430 S MONROE ST                        000N        CARE OF             
MTR09003400001000000000000000RA              00066679    000200050000000500000570000003NN  NNW 000                       N    
RDG09003400WATRL000000005K00000000000000153000507082015112542N000000000000N93       000030500K 10000000010000000153           
CUS0900340000109395036008         MARYLAND TRANSIT ADM1430 S MONROE ST                        000N        CARE OF             
MTR09003400001000000000000000RA              E22935      000800060000000600000430000003NN  NNW 000   FIRE SERVICE        N    
RDG09003400WATRL000000006K00000000000000000000607082015112545N000000000000N93       000030600K 10000000010000000000           
CUS0900340000109395673008         MARYLAND TRANSIT ADM1530 S MONROE ST                        000N        CARE OF             
MTR09003400002000000000000000RA              5519869     000800070000000700000480000003NN  NNW 000   FIRE SERVICE        N    
RDG09003400WATAL000000006K00000000000000000000707082015112546N000000000000N93       000010600K 10000000010000000000           
RDG09003400WATBL000000006K00000000000000000000807082015112557N000300000010N93       000110600K 10000000010000000004           
CUS0900340000109395675003         MARYLAND TRANSIT ADM1530 S MONROE ST                        000N        CARE OF             
MTR09003400001000000000000000RA              24403478    000300080000000800000470000003NN  NNW 000                       N    
RDG09003400WATRL000000005K00000000000000000000907082015112559N000000000000N93       000020500K 10000000010000000000           
CUS0900340000109414121005         PATREC LAND L.L.C   1801 S MONROE ST                        000N        CARE OF             
MTR09003400001000000000000000RA              1316752     000600090000000900000490000000NN  NNW 000                       N    
RDG09003400WATRL000000006K00000000000001421001007082015112605N000000000010N93       000060600K 10000000010000001118           
CUS0900340000109256466005         ROSEDA BEEF PROPERTI1805 WICOMICO ST                        000N        CARE OF             
MTR09003400001000000000000000RA              1253687     000300100000001000000470000003NN  NNW 000                       N    
RDG09003400WATRL000000005K00000000000011493001107082015112608N000000000000N93       000030500K 10000000010000011259           
CUS0900340000109256468001         NISC/PENSKE         1711 WICOMICO ST                        000N        CARE OF             
MTR09003400002000000000000000RA              70262966    000300110000001100000460000003NY  NNW 000                       N    
MTM0900340070262966    ert                                                                                                    
RDG09003400WATAL000000005K00000000000000000000000000000000000 000000000000U         000000500  10000000010000000049           
RDG09003400WATBL000000005K00000000000000000000000000000000000 000000000000U         000000500  10000000010000005746           
CUS0900340000109256467003         PENSKE TRUCK LEASING1711 WICOMICO ST                        000N        CARE OF             
MTR09003400001000000000000000RA              5183742     000600120000001200000410000003NN  NNW 000   FIRE SERVICE        N    
RDG09003400WATRL000000006K00000000000000002001207082015112618N000000000000N93       000100600K 10000000010000000002           
CUS0900340000109256472003         WICOMICO 1601, LLC  1601-27 WICOMICO ST                     000N        CARE OF             
MTR09003400001000000000000000RA              1197204     000400130000001300000490000003NN  NNW 000   FERRULE APPLIED     N    
RDG09003400WATRL000000006K00000000000000000000107282015065223S002000000000U93       000000600K 10000000010000000137           
CUS0900340000109256470007         WICOMICO 1601, LLC  1601-27 WICOMICO ST                     000N        CARE OF             
MTR09003400001000000000000000RA              1154033     000400140000001400000490000003NN  NNW 000   FERRULE APPLIED     N    
RDG09003400WATRL000000006K00000000000000000000207282015065226S002000000000U93       000030600K 10000000010000000089           
CUS0900340000109256469009         WICOMICO 1601, LLC  1601-27 WICOMICO ST                     000N        CARE OF             
MTR09003400002000000000000000RA              11800782    000800150000001500000390000003NN  NNW 000   FIRE SERVICE        N    
RDG09003400WATAL000000006K00000000000000000001307082015112625N000000000000N93       000070600K 10000000010000000000           
RDG09003400WATBL000000006K00000000000001934001407082015112634N000400000010N93       000090600K 10000000010000001078           
CUS0900340000109456817007         WICOMICO 1601 LLC   1601-27 WICOMICO ST                     000N        CARE OF             
MTR09003400001000000000000000RA              99999999    005800160000001600000440000000NY  NNW 000                       N    
MTM0900340099999999    cl                                                                                                     
RDG09003400WATRL000000004K00000000000000000000000000000000000 000000000000U         000000400  10000000010000000000           
CUS0900340000109456818005         WICOMICO 1601 LLC   1601-27 WICOMICO ST                     000N        CARE OF             
MTR09003400001000000000000000RA              99999999    005800170000001700000440000000NY  NNW 000                       N    
MTM0900340099999999    cl                                                                                                     
RDG09003400WATRL000000004K00000000000000000000000000000000000 000000000000U         000000400  10000000010000000000           
CUS0900340000109256456006         WM. T. BURNETT & CO.1500 BUSH ST                            000N        CARE OF             
MTR09003400001000000000000000RA              01092791    005800180000001800000610000003NN  NNW 000                       N    
RDG09003400WATRL000000004K00000000000000000001507082015112640N000000000000N93       000060400K 10000000010000000000           
CUS0900340000109256473001         BALTIMORE FABRICATOR1600 BUSH ST                            000N        CARE OF             
MTR09003400001000000000000000RA              01117047    000200190000001900000610000003NN  NNW 000   VACANT PROPERTY     N    
RDG09003400WATRL000000005K00000000000000000001607082015112641N000000000000N93       000010500K 10000000010000000000           
CUS0900340000109394023007         MASS TRANSIT ADM    1331 S MONROE ST                        000N        CARE OF             
MTR09003400001000000000000000RA              37690942    000100200000002000000520000003NN  NNW 000                       N    
RDG09003400WATRL000000004K00000000000009809001707082015112653N000000000000N93       000120400K 10000000010000009745           
CUS0900340000109394021001         MASS TRANSIT ADM    1331 S MONROE ST                        000N        CARE OF             
MTR09003400001000000000000000RA              E22910      000600210000002100000430000003NN  NNW 000   FIRE SERVICE        N    
RDG09003400WATRL000000006K00000000000000000000307282015065353N000000000000U93       000870600K 10000000010000000000           
CUS0900340000109256487001         1701 LLC            1701 WASHINGTON BLVD                    000N        CARE OF             
MTR09003400001000000000000000RA              35109294    000100220000002200000520000003NN  NNW 000                       N    
RDG09003400WATRL000000004K00000000000001598000407282015065400N000400000010U93       000070400K 10000000010000001558           
CUS0900340000109256488009         1701 LLC            1701 WASHINGTON BLVD                    000N        CARE OF             
MTR09003400001000000000000000RA              3353501     000400230000002300000410000003NN  NNW 000   FIRE SERVICE        N    
RDG09003400WATRL000000006K00000000000000003000507282015065404N000000000000U93       000040600K 10000000010000000003           
CUS0900340000109407154005         MASS TRANSIT ADM    1601 WASHINGTON BLVD                    000N        CARE OF             
MTR09003400001000000000000000RA              0910924     000600240000002400000630000003NN  NNW 000                       N    
RDG09003400WATRL000000006K00000000000021560000607282015065410N000000000000U93       000060600K 10000000010000018964           
CUS0900340000109407152009         MASS TRANSIT ADM    1601 WASHINGTON BLVD                    000N        CARE OF             
MTR09003400001000000000000000RA              6029432     001000250000002500000410000003NY  NNW 000   FIRE SERVICE        N    
MTM090034006029432     k                                                                                                      
RDG09003400WATRL000000007K00000000000003707000707282015065423N000300000010U93       000130700K 10000000010000003805           
CUS0900340000109256496002         BOARD OF PARK COMM. 1500 WASHINGTON BLVD                    000N        CARE OF             
MTR09003400001000000000000000RA              00066755    000200260000002600000570000003NN  NNW 000                       N    
RDG09003400WATRL000000005K00000000000014892000807282015065429N000000000010U93       000060500K 10000000010000014888           
CUS0900340000109256498008         BUREAU OF PARKS     1500 WASHINGTON BLVD                    000N        CARE OF             
MTR09003400002000000000000000RA              6029528     000600270000002700000630000003NY  NNW 000                       N    
MTM090034006029528     k                                                                                                      
RDG09003400WATAL000000006K00000000000000001000907282015065437N000300000010U93       000080600K 10000000010000000004           
RDG09003400WATBL000000006K00000000000099819001007282015065449N000000000000U93       000120600K 10000000010000003260           
CUS0900340000109256495004         BUREAU OF INSPECTION1500 WASHINGTON BLVD                    000N        CARE OF             
MTR09003400001000000000000000RA              01105435    000200280000002800000610000003NN  NNW 000                       N    
RDG09003400WATRL000000005K00000000000001983001107282015065458N000400000010U93       000090500K 10000000010000001977           
CUS0900340000109256494007         DEPT OF EDUCATION   1300 HERKIMER ST                        000N        CARE OF             
MTR09003400001000000000000000RA              1215532     000300290000002900000490000003NN  NNW 000                       N    
RDG09003400WATRL000000005K00000000000073063001207282015065505N000300000010U93       000070500K 10000000010000073288           
CUS0900340000109256493009         HOUSING AUTHORITY OF1300 WASHINGTON BLVD                    000N        CARE OF             
MTR09003400002000000000000000RA              5295729     000400300000003000000630000003NN  NNW 000                       N    
RDG09003400WATAL000000006K00000000000000000001307282015065509N000100000010U93       000040600K 10000000010000000000           
RDG09003400WATBL000000006K00000000000001883001407282015065514N000400000010U93       000050600K 10000000010000001862           
CUS0900340000109256492001         BUR CONSTR MGT      1339 WASHINGTON BLVD                    000N        CARE OF             
MTR09003400002000000000000000RA              70263204    000400310000003100000630000003NY  NNW 000                       N    
MTM0900340070263204    ert                                                                                                    
RDG09003400WATAL000000006K00000000000000000000000000000000000 000000000000U         000000600  10000000010000000503           
RDG09003400WATBL000000006K00000000000000000000000000000000000 000000000000U         000000600  10000000010000003030           
CUS0900340000109256491003         BUR CONSTR MGT      1339 WASHINGTON BLVD                    000N        CARE OF             
MTR09003400001000000000000000RA              5705135     000600320000003200000410000003NN  NNW 000   CITY FIRE SERV      N    
RDG09003400WATRL000000006K00000000000000020001507282015065530N000100000010U93       000160600K 10000000010000000020           
CUS0900340000109256451007         MASS TRANSIT ADMINS 1601 WASHINGTON BLVD                    000N        CARE OF             
MTR09003400001000000000000000RA              1453150     000300330000003300000490000003NY  NNW 000                       N    
MTM090034001453150     ert                                                                                                    
RDG09003400WATRL000000005K00000000000001397001607282015065543N000300000010U93       000130500K 10000000010000002081           
CUS0900340000109256452005         MARYLAND TRANSIT ADM1300 BUSH ST                            000N        CARE OF             
MTR09003400001000000000000000RA              33084013    001500340000003400000520000003NN  NNW 000                       N    
RDG09003400WATRL000000005K00000000000025970001707282015065546N000000000000U93       000030500K 10000000010000025970           
CUS0900340000109423954008         WM. T. BURNETT & CO.1500 BUSH ST                            000N        CARE OF             
MTR09003400001000000000000000RA              99999999    000800350000003500000440000003NY  NNW 000   FIRE SERVICE        N    
MTM0900340099999999    cl                                                                                                     
RDG09003400WATRL000000006K00000000000000000000000000000000000 000000000000U         000000600  10000000010000000000           
CUS0900340000109256455008         WM. T. BURNETT & CO.1500-20 BUSH ST                         000N        CARE OF             
MTR09003400001000000000000000RA              29372235    000200360000003600000520000003NN  NNW 000                       N    
RDG09003400WATRL000000005K00000000000005461001807282015065558N000000000000U93       000120500K 10000000010000005345           
CUS0900340000109256474009         SOUTHERN GALVANIZING1620 BUSH ST                            000N        CARE OF             
MTR09003400001000000000000000RA              29256940    001500370000003700000520000003NN  NNW 000                       N    
RDG09003400WATRL000000005K00000000000025333001907282015065601N000000000000U93       000030500K 10000000010000025064           
CUS0900340000109256475006         ELLICOTT PLANT LLC  1601-11 BUSH ST                         000N        CARE OF             
MTR09003400002000000000000000RA              90000132    000200380000003800000570000003NN  NNW 000                       N    
RDG09003400WATAL000000005K00000000000002835002007282015065603N000000000000U93       000020500K 10000000010000002759           
RDG09003400WATBL000000005K00000000000002077002107282015065607N000400000010U93       000040500K 10000000010000002020           
CUS0900340000109256476004         BGH, LLC            1620 BUSH ST                            000N        CARE OF             
MTR09003400001000000000000000RA              00163402    000100390000003900000570000003NN  NNW 000                       N    
RDG09003400WATRL000000004K00000000000000971002207282015065625N000400000010U93       000180400K 10000000010000000964           
CUS0900340000109256477002         BGH, LLC            1620 BUSH ST                            000N        CARE OF             
MTR09003400001000000000000000RA              3353502     000400400000004000000410000003NN  NNW 000   FIRE SERVICE        N    
RDG09003400WATRL000000006K00000000000000055002307282015065627N000000000000U93       000020600K 10000000010000000055           
CUS0900340000109256478000         ELLICOTT DREDGES LLC1501 SEVERN ST                          000N        CARE OF             
MTR09003400001000000000000000RA              35109416    000200410000004100000520000003NN  NNW 000                       N    
RDG09003400WATRL000000005K00000000000006281002407282015065636N000000000000U93       000090500K 10000000010000006239           
CUS0900340000109387466007         BGH, LLC            1620 BUSH ST                            000N        CARE OF             
MTR09003400001000000000000000RA              35112657    000200420000004200000520000003NN  NNW 000                       N    
RDG09003400WATRL000000005K00000000000036949002507282015065640N000000000000U93       000040500K 10000000010000036879           
CUS0900340000109256481004         DEPSCO SERVICES INC 1701 RIDGELY ST                         000N        CARE OF             
MTR09003400001000000000000000RA              00166122    000100430000004300000570000003NY  NNW 000                       N    
MTM0900340000166122    car                                                                                                    
RDG09003400WATRL000000004K00000000000000000000000000000000000 000000000000U         000000400  10000000010000005496           
CUS0900340000109256482002         D.S.I. LLC          1701 RIDGELY ST                         000N        CARE OF             
MTR09003400001000000000000000RA              1074037     000600440000004400000430000003NY  NNW 000   FIRE SERVICE        N    
MTM090034001074037     car                                                                                                    
RDG09003400WATRL000000006K00000000000000000000000000000000000 000000000000U         000000600  10000000010000000000           
CUS0900340000109256480006         S C PROPERTY, LLC   1700-10 RIDGELY ST                      000N        CARE OF             
MTR09003400001000000000000000RA              1313674     000400450000004500000490000003NN  NNW 000                       N    
RDG09003400WATRL000000006K00000000000000980002607282015065707N000000000000U93       000270600K 10000000010000000796           
CUS0900340000109256479008         S C PROPERTY, LLC   1700-10 RIDGELY ST                      000N        CARE OF             
MTR09003400001000000000000000RA              3955208     001000460000004600000410000003NY  NNW 000   FIRE SERVICE        N    
MTM090034003955208     cs                                                                                                     
RDG09003400WATRL000000007K00000000000000000000000000000000000 000000000000U         000000700  10000000010000004096           
CUS0900340000109256484008         S C PROPERTY, LLC   1700-10 RIDGELY ST                      000N        CARE OF             
MTR09003400001000000000000000RA              17190489    007500470000004700000440000003NN  NNW 000                       N    
RDG09003400WATRL000000004K00000000000000000002707282015065720S005000000000U93       000130400K 10000000010000000674           
CUS0900340000109256483000         S C PROPERTY, LLC   1700-10 RIDGELY ST                      000N        CARE OF             
MTR09003400001000000000000000RA              4055400     000600480000004800000410000003NN  NNW 000   FIRE SERVICE        N    
RDG09003400WATRL000000006K00000000000000000002807282015065722S005000000000U93       000020600K 10000000010000002814           
CUS0900340000108445726006         TWO FARMS, INC. #1591801 WASHINGTON BLVD                    000N        CARE OF             
MTR09003400001000000000000000RA              14914917    001500490000004900000310000000NN  NNW 000                       N    
RDG09003400WATRL000000005K00000000000002482002907282015065728N000300000010U93       000060500K 10000000010000002045           
CUS0900340000109256499006         DEBOIS 1835, LLC    1835 WASHINGTON BLVD                    000N        CARE OF             
MTR09003400001000000000000000RA              5603869     000800500000005000000410000003NN  NNW 000   FIRE SERVICE        N    
RDG09003400WATRL000000006K00000000000000001003007282015065731N000000000000U93       000030600K 10000000010000000001           
CUS0900340000109256505000         WASHINGTON-MONROE, L1900 WASHINGTON BLVD                    000N        CARE OF             
MTR09003400003000000000000000RA              3540590     001000510000005100000390000003NN  NNW 000   FIRE SERVICE        N    
RDG09003400WATAL000000007K00000000000000044003107282015065739N000400000010U93       000080700K 10000000010000000043           
RDG09003400WATBL000000007K00000000000000000003207282015065746S022000000000U93       000070700K 10000000010000006987           
RDG09003400WATCL000000007K00000000000000000003307282015065749S022000000000U93       000030700K 10000000010000000560           
CUS0900340000109447617003         PUTNAM CROSSING, LLC1900 WASHINGTON BLVD                    000N        CARE OF             
MTR09003400001000000000000000RA              99999999    001500520000005200000440000000NN  NNW 000                       N    
RDG09003400WATRL000000005K00000000000002744003407282015065752N000000000000U93       000030500K 10000000010000002208           
CUS0900340000109256508004         2015 WASHINGTON LLC 1907-2015 WASHINGTON BLVD               000N        CARE OF             
MTR09003400001000000000000000RA              01117330    000200530000005300000610000003NN  NNW 000                       N    
RDG09003400WATRL000000005K00000000000007398003507282015065755N000000000000U93       000030500K 10000000010000007398           
CUS0900340000109256507006         NAVISTAR INTERNATION1907-2015 WASHINGTON BLVD               000N        CARE OF             
MTR09003400001000000000000000RA              2242258     000800540000005400000410000003NN  NNW 000   FIRE SERVICE        N    
RDG09003400WATRL000000006K00000000000000000003607282015065757S005000000000U93       000020600K 10000000010000000192           
CUS0900340000109398307000         DCT PROPERTY MGMT LL1325 WESTERN AVE                        000N        CARE OF             
MTR09003400001000000000000000RA              01116883    000200550000005500000610000003NY  NNW 000                       N    
MTM0900340001116883    leak                                                                                                   
RDG09003400WATRL000000005K00000000000000000000000000000000000 000000000000U         000000500  10000000010000009117           
CUS0900340000109398305004         DCT PROPERTY MGMT LL1325 WESTERN AVE                        000N        CARE OF             
MTR09003400002000000000000000RA              0910931     001000560000005600000630000003NY  NNW 000   FIRE SERVICE        N    
MTM090034000910931     leak                                                                                                   
RDG09003400WATAL000000007K00000000000000000000000000000000000 000000000000U         000000700  10000000010000000000           
RDG09003400WATBL000000007K00000000000000000000000000000000000 000000000000U         000000700  10000000010000000025           
CUS0900340000109256678005         MORRELL FINANCIAL LL1820 SPENCE ST                          000N        CARE OF             
MTR09003400002000000000000000RA              5124966     000400570000005700000480000003NN  NNW 000                       N    
RDG09003400WATAL000000006K00000000000000000003707282015065846N000100000010U93       000490600K 10000000010000000000           
RDG09003400WATBL000000006K00000000000016321003807282015065851N000400000010U93       000050600K 10000000010000015779           
CUS0900340000109256515009         SCHOOL #220         2601 TOLLEY ST                          000N        CARE OF             
MTR09003400002000000000000000RA              5649256     000800580000005800000630000003NN  NNW 000                       N    
RDG09003400WATAL000000006K00000000000000002003907282015065855N000100000010U93       000040600K 10000000010000000002           
RDG09003400WATBL000000006K00000000000011561004007282015065900N000400000010U93       000050600K 10000000010000000982           
CUS0900340000109447515009         MAYOR & CITY COUNCIL2601 TOLLEY ST                          000N        CARE OF             
MTR09003400001000000000000000RA              99999999    000400590000005900000440000003NN  NNW 000   FIRE SERVICE        N    
RDG09003400WATRL000000006K00000000000000001004107282015065902N000000000000U93       000020600K 10000000010000000001           
CUS0900340000109447517005         MAYOR & CITY COUNCIL2601 TOLLEY ST                          000N        CARE OF             
MTR09003400001000000000000000RA              99999999    000200600000006000000440000003NN  NNW 000                       N    
RDG09003400WATRL000000005K00000000000000089004207282015065905N000000000000U93       000030500K 10000000010000000070           
CUS0900340000109256514002         WALTERHOEFER WASHING2331 WASHINGTON BLVD                    000N        CARE OF             
MTR09003400001000000000000000RA              46889186    007500610000006100000520000003NN  NNW 000                       N    
RDG09003400WATRL000000004K00000000000001734004307282015065911N000300000010U93       000060400K 10000000010000001606           
CUS0900340000109256513004         WALTERHOEFER WASHING2331 WASHINGTON BLVD                    000N        CARE OF             
MTR09003400001000000000000000RA              4781653     000800620000006200000410000003NN  NNW 000   FIRE SERVICE        N    
RDG09003400WATRL000000006K00000000000000020004407282015065917N000000000000U93       000060600K 10000000010000000020           
CUS0900340000109256521007         DIRT EXPRESS COMPANY2036 HOLLINS FERRY RD                   000N        CARE OF             
MTR09003400002000000000000000RA              1832791     000400630000006300000540000003NN  NNW 000   VACANT PROPERTY     N    
RDG09003400WATAL000000006K00000000000000000004507282015065920N000000000000U93       000030600K 10000000010000000000           
RDG09003400WATBL000000006K00000000000000000004607282015065924N000100000010U93       000040600K 10000000010000000000           
CUS0900340000109256516007         BROKEN WING II LLC  2121 WICOMICO ST                        000N        CARE OF             
MTR09003400002000000000000000RA              2114653     000800640000006400000390000003NN  NNW 000   FIRE SERVICE        N    
RDG09003400WATAL000000006K00000000000000000004707282015070045N000000000001U93       000720600K 10000000010000000000           
RDG09003400WATBL000000006K00000000000000000004807282015065931S005000000000U93       000030600K 10000000010000000009           
CUS0900340000109256517005         BROKEN WING II LLC  2121 WICOMICO ST                        000N        CARE OF             
MTR09003400002000000000000000RA              60798796    000400650000006500000470000003NN  NNW 000                       N    
RDG09003400WATAL000000006K00000000000000000004907282015070054S022000000001U93       000090600K 10000000010000001376           
RDG09003400WATBL000000006K00000000000000000005007282015070058S005000000000U93       000040600K 10000000010000005189           
CUS0900340000109256518003         BROKEN WING II LLC  2121 WICOMICO ST                        000N        CARE OF             
MTR09003400002000000000000000RA              1353907     000600660000006600000390000003NN  NNW 000   FIRE SERVICE        N    
RDG09003400WATAL000000006K00000000000000000005107282015070101S005000000000U93       000030600K 10000000010000006682           
RDG09003400WATBL000000006K00000000000000000005207282015070140S005000000000U93       000390600K 10000000010000000167           
CUS0900340000109256519001         BROKEN WING II LLC  2121 WICOMICO ST                        000N        CARE OF             
MTR09003400001000000000000000RA              40000014    000400670000006700000460000003NN  NNW 000   VACANT PROPERTY     N    
RDG09003400WATRL000000006K00000000000000003005307282015070144N000000000000U93       000040600K 10000000010000000003           
CUS0900340000109256520009         DECKER SR., MICHAEL 2007 ONTARIO AVE                        000N        CARE OF             
MTR09003400001000000000000000RA              00066891    001500680000006800000570000003NY  NNW 000                       N    
MTM0900340000066891    cl                                                                                                     
RDG09003400WATRL000000005K00000000000000000000000000000000000 000000000000U         000000500  10000000010000000000           
CUS0900340000109256635005         PETRA VANCE ETAL    2229 HOLLINS FERRY RD                   000N        CARE OF             
MTR09003400001000000000000000RA              99170705    000200690000006900000570000003NN  NNW 000                       N    
RDG09003400WATRL000000005K00000000000001287005407282015070156N000000000000U93       000120500K 10000000010000001253           
CUS0900340000109433473007         PATAPSCO VALLEY SALE2700 HOLLINS FERRY RD                   000N        CARE OF             
MTR09003400001000000000000000RA              8046857     000800700000007000000380000000NY  NNW 000   FIRE SERVICE        N    
MTM090034008046857     cs                                                                                                     
RDG09003400WATRL000000006K00000000000000000000000000000000000 000000000000U         000000600  10000000010000001628           
CUS0900340000109433475002         PATAPSCO VALLEY SALE2700 HOLLINS FERRY RD                   000N        CARE OF             
MTR09003400002000000000000000RA              70262645    000300710000007100000460000000NY  NNW 000                       N    
MTM0900340070262645    ert                                                                                                    
RDG09003400WATAL000000005K00000000000000000000000000000000000 000000000000U         000000500  10000000010000000405           
RDG09003400WATBL000000005K00000000000000000000000000000000000 000000000000U         000000500  10000000010000000102           
CUS0900340000109440156009         L.I.F.E., INC.      2822 HOLLINS FERRY RD                   000N        CARE OF             
MTR09003400001000000000000000RA              8050609     000400720000007200000380000000NN  NNW 000   FIRE SERVICE        N    
RDG09003400WATRL000000006K00000000000000001005507282015070252N000000000000U93       000560600K 10000000010000000001           
CUS0900340000109440155001         L.I.F.E., INC.      2822 HOLLINS FERRY RD                   000N        CARE OF             
MTR09003400001000000000000000RA              01117154    000200730000007300000610000000NN  NNW 000                       N    
RDG09003400WATRL000000005K00000000000002077005607282015070254N000000000000U93       000020500K 10000000010000001988           
CUS0900340000109256535007         MERRITT, LEROY      2830-2838 ANNAPOLIS RD                  000N        CARE OF             
MTR09003400003000000000000000RA              5275681     001000740000007400000480000003NY  NNW 000   FIRE SERVICE        N    
MTM090034005275681     cs                                                                                                     
RDG09003400WATAL000000007K00000000000000187005707282015070300N000100000010U93       000060700K 10000000010000000187           
RDG09003400WATBL000000007K00000000000000000000000000000000000 000000000000U         000000700  10000000010000000608           
RDG09003400WATCL000000007K00000000000000000000000000000000000 000000000000U         000000700  10000000010000001642           
CUS0900340000109256536005         MERRITT, LEROY      2830-2838 ANNAPOLIS RD                  000N        CARE OF             
MTR09003400001000000000000000RA              1115137     000200750000007500000490000003NN  NNW 000                       N    
RDG09003400WATRL000000005K00000000000040345005807282015070318N000000000000U93       000180500K 10000000010000039399           
CUS0900340000109256537003         2323 BANGER LLC     2325 BANGER ST                          000N        CARE OF             
MTR09003400001000000000000000RA              01081669    005800760000007600000610000003NN  NNW 000                       N    
RDG09003400WATRL000000004K00000000000000859005907282015070329N000000000000U93       000110400K 10000000010000000850           
CUS0900340000109438133002         JOE CORBI'S WHOLESAL2800 WEGWORTH LN                        000N        CARE OF             
MTR09003400001000000000000000RA              01104965    001500770000007700000610000000NN  NNW 000                       N    
RDG09003400WATRL000000005K00000000000000769006007282015070331N000000000000U93       000020500K 10000000010000000769           
CUS0900340000109438135007         JOE CORBI'S WHOLESAL2800 WEGWORTH LN                        000N        CARE OF             
MTR09003400001000000000000000RA              8049411     000600780000007800000380000000NN  NNW 000   FIRE SERVICE        N    
RDG09003400WATRL000000006K00000000000000007006107282015070333N000000000000U93       000020600K 10000000010000000007           
CUS0900340000109430587007         BOARD OF EDUCATION  2700 WEGWORTH LN                        000N        CARE OF             
MTR09003400001000000000000000RA              8045174     000600790000007900000380000000NN  NNW 000   CITY FIRE SERV      N    
RDG09003400WATRL000000006K00000000000000005006207282015070335N000000000000U93       000020600K 10000000010000000005           
CUS0900340000109430589003         BOARD OF EDUCATION  2700 WEGWORTH LN                        000N        CARE OF             
MTR09003400001000000000000000RA              11800775    000400800000008000000640000000NY  NNW 000                       N    
MTM0900340011800775    ert                                                                                                    
RDG09003400WATRL000000006K00000000000000000000000000000000000 000000000000U         000000600  10000000010000001570           
CUS0900340000109256539009         BSV HOLLINSWOOD LLC 2159 W PATAPSCO AVE                     000N        CARE OF             
MTR09003400002000000000000000RA              4683189     000600810000008100000630000003NN  NNW 000                       N    
RDG09003400WATAL000000006K00000000000000001006307282015070347N000100000010U93       000120600K 10000000010000000001           
RDG09003400WATBL000000006K00000000000006449006407282015070353N000400000010U93       000060600K 10000000010000006101           
CUS0900340000109256540007         BSV HOLLINSWOOD LLC 2163 W PATAPSCO AVE                     000N        CARE OF             
MTR09003400002000000000000000RA              4683192     000600820000008200000390000003NN  NNW 000                       N    
RDG09003400WATAL000000006K00000000000000000006507282015070358N000100000010U93       000050600K 10000000010000000000           
RDG09003400WATBL000000006K00000000000027225006607282015070404N000400000010U93       000060600K 10000000010000026383           
CUS0900340000109430569005         WALGREENS #6366     2310 W PATAPSCO AVE                     000N        CARE OF             
MTR09003400002000000000000000RA              70050073    000600830000008300000560000000NN  NNW 000                       N    
RDG09003400WATAL000000006K00000000000002116006707282015070410N000100000010U93       000060600K 10000000010000002116           
RDG09003400WATBL000000006K00000000000000602006807282015070416N000400000010U93       000060600K 10000000010000000593           
CUS0900340000109256532004         ARBUTA ARMS APT. CO 2412-14 MARBOURNE AVE                   000N        CARE OF             
MTR09003400001000000000000000RA              29768574    000200840000008400000520000003NN  NNW 000                       N    
RDG09003400WATRL000000005K00000000000025379006907282015070421N000300000010U93       000050500K 10000000010000020097           
CUS0900340000109256533002         ARBUTA ARMS APT. CO 2416-24 MARBOURNE AVE                   000N        CARE OF             
MTR09003400001000000000000000RA              1327065     000200850000008500000490000003NN  NNW 000                       N    
RDG09003400WATRL000000005K00000000000032905007007282015070427N000100000010U93       000060500K 10000000010000032905           
CUS0900340000109256531006         ARBUTA ARMS APT. CO 2408-10 MARBOURNE AVE                   000N        CARE OF             
MTR09003400001000000000000000RA              32905163    000200860000008600000520000003NN  NNW 000                       N    
RDG09003400WATRL000000005K00000000000057037007107282015070429N000000000000U93       000020500K 10000000010000056748           
CUS0900340000109256530008         ARBUTA ARMS APT. CO 2404-06 MARBOURNE AVE                   000N        CARE OF             
MTR09003400001000000000000000RA              01105676    000200870000008700000610000003NN  NNW 000                       N    
RDG09003400WATRL000000005K00000000000020788007207282015070432N000000000000U93       000030500K 10000000010000020277           
CUS0900340000109256529000         ARBUTA ARMS APARTMEN2400-02 MARBOURNE AVE                   000N        CARE OF             
MTR09003400001000000000000000RA              01105672    000200880000008800000610000003NN  NNW 000                       N    
RDG09003400WATRL000000005K00000000000025397007307282015070435N000000000000U93       000030500K 10000000010000025006           
CUS0900340000109256542003         OVERFLO PUBLIC WAREH3010 NIEMAN AVE                         000N        CARE OF             
MTR09003400001000000000000000RA              9411390     000300890000008900000640000003NY  NNW 000                       N    
MTM090034009411390     no acc pump                                                                                            
RDG09003400WATRL000000005K00000000000000000000000000000000000 000000000000U         000000500  10000000010000000792           
CUS0900340000109256541005         OVERFLO PUBLIC WAREH3010 NIEMAN AVE                         000N        CARE OF             
MTR09003400002000000000000000RA              4357770     000800900000009000000390000003NY  NNW 000   FIRE SERVICE        N    
MTM090034004357770     no acc                                                                                                 
RDG09003400WATAL000000006K00000000000000000000000000000000000 000000000000U         000000600  10000000010000000000           
RDG09003400WATBL000000006K00000000000000000000000000000000000 000000000000U         000000600  10000000010000000041           
CUS0900340000109256544009         VANGEL PROPERTIES I,3020 NIEMAN AVE                         000N        CARE OF             
MTR09003400001000000000000000RA              30513692    005800910000009100000520000003NY  NNW 000                       N    
MTM0900340030513692    cond                                                                                                   
RDG09003400WATRL000000004K00000000000000000000000000000000000 000000000000U         000000400  10000000010000006082           
CUS0900340000109256543001         VANGEL PROPERTIES I,3020 NIEMAN AVE                         000N        CARE OF             
MTR09003400001000000000000000RA              4373453     000800920000009200000410000003NN  NNW 000   FIRE SERVICE        N    
RDG09003400WATRL000000006K00000000000000052007407282015070538N000100000020U93       000630600K 10000000010000000052           
CUS0900340000109430529009         BALTO ELECTRICAL JAT2699 W PATAPSCO AVE                     000N        CARE OF             
MTR09003400001000000000000000RA              8037613     000400930000009300000380000000NN  NNW 000   FIRE SERVICE        N    
RDG09003400WATRL000000006K00000000000000000007507282015070541N000000000000U93       000030600K 10000000010000000000           
CUS0900340000109430531005         BALTO ELECTRICAL JAT2699 W PATAPSCO AVE                     000N        CARE OF             
MTR09003400001000000000000000RA              00066916    001500940000009400000570000000NN  NNW 000                       N    
RDG09003400WATRL000000005K00000000000001227007607282015070554N000000000000U93       000130500K 10000000010000001207           
RTR09003400NN01170117000001170000000000940094000014NY009400940117002400120000000000000000000001    06302015NY020000 N         
RHD06362000NN02880288000002880000000002880288000025NY028802880288002000050000000000000000000002    07082015NY020000 N         
CUS0636200000106282892006         CROMWELL-STEVENS, SH3501 KENYON AVE                         000N        CARE OF             
MTR06362000001000000000000000RA              10011375    005800010000000100000570000003NN  NNW 000                       N    
RDG06362000WATRL000000004K00000000000000273000107152015135308N000000000000N21       000000400K 10000000010000000261           
CUS0636200000106282893004         SMITH, MARSHA D.    3503 KENYON AVE                         000N        CARE OF             
MTR06362000001000000000000000RA              41086069    005800020000000200000520000003NN  NNW 000                       N    
RDG06362000WATRL000000004K00000000000001284000207152015135315N000000000000N21       000070400K 10000000010000001262           
CUS0636200000106282894002         JONES, SCIPIO       3505 KENYON AVE                         000N        CARE OF             
MTR06362000001000000000000000RA              35111043    005800030000000300000520000003NN  NNW 000                       N    
RDG06362000WATRL000000004K00000000000002509000307152015135318N000000000000N21       000030400K 10000000010000002503           
CUS0636200000106282895009         HARRIS, SHARON      3507 KENYON AVE                         000N        CARE OF             
MTR06362000001000000000000000RA              40248915    007500040000000400000520000003NN  NNW 000                       N    
RDG06362000WATRL000000004K00000000000003116000407152015135322N000000000000N21       000040400K 10000000010000003103           
CUS0636200000106282896007         PERRY, ELIZABETH    3511 KENYON AVE                         000N        CARE OF             
MTR06362000001000000000000000RA              26003529    005800050000000500000520000003NY  NNW 000                       N    
MTM0636200026003529    BURIED                                                                                                 
RDG06362000WATRL000000004K00000000000000000000000000000000000 000000000000U         000000400  10000000010000003403           
CUS0636200000106282897005         THOMAS, GERALDE     3513 KENYON AVE                         000N        CARE OF             
MTR06362000001000000000000000RA              50789612    005800060000000600000520000003NY  NNW 000                       N    
MTM0636200050789612    BURIED                                                                                                 
RDG06362000WATRL000000004K00000000000000000000000000000000000 000000000000U         000000400  10000000010000001755           
CUS0636200000106282898003         MARIE MARX ETAL     3515 KENYON AVE                         000N        CARE OF             
MTR06362000001000000000000000RA              50786951    005800070000000700000520000003NY  NNW 000                       N    
MTM0636200050786951    CANT LOCATE                                                                                            
RDG06362000WATRL000000004K00000000000000334000007212015100955O000000000000U69       000000400K 10000000010000000330           
CUS0636200000106282899001         THERESA R WATKINS   3517 KENYON AVE                         000N        CARE OF             
MTR06362000001000000000000000RA              50786952    005800080000000800000520000003NN  NNW 000                       N    
RDG06362000WATRL000000004K00000000000001097000507152015135401N000000000000N21       000390400K 10000000010000001089           
CUS0636200000106282900007         BRYANT, ADRIANNE N. 3601 KENYON AVE                         000N        CARE OF             
MTR06362000001000000000000000RA              38782265    005800090000000900000520000003NN  NNW 000                       N    
RDG06362000WATRL000000004K00000000000002731000607152015135403N000000000000N21       000020400K 10000000010000002718           
CUS0636200000106282901005         HOUSTON, MONICA     3603 KENYON AVE                         000N        CARE OF             
MTR06362000001000000000000000RA              50480698    005800100000001000000520000003NN  NNW 000                       N    
RDG06362000WATRL000000004K00000000000001017000707152015135405N000000000000N21       000020400K 10000000010000000986           
CUS0636200000106282902003         WRAY, DAVID C       3605 KENYON AVE                         000N        CARE OF             
MTR06362000001000000000000000RA              26009036    005800110000001100000520000003NN  NNW 000                       N    
RDG06362000WATRL000000004K00000000000002777000807152015135407N000000000000N21       000020400K 10000000010000002777           
CUS0636200000106282903001         LE, SINH            3607 KENYON AVE                         000N        CARE OF             
MTR06362000001000000000000000RA              26009086    005800120000001200000520000003NN  NNW 000                       N    
RDG06362000WATRL000000004K00000000000003250000907152015135410N000000000000N21       000030400K 10000000010000003231           
CUS0636200000106282904009         PITTS, MONIQUE D.   3609 KENYON AVE                         000N        CARE OF             
MTR06362000001000000000000000RA              99391843    005800130000001300000570000003NN  NNW 000                       N    
RDG06362000WATRL000000004K00000000000000948001007152015135412N000000000000N21       000020400K 10000000010000000938           
CUS0636200000106282905006         JONES, KEMMA O.     3611 KENYON AVE                         000N        CARE OF             
MTR06362000001000000000000000RA              99391387    005800140000001400000570000003NN  NNW 000                       N    
RDG06362000WATRL000000004K00000000000000777001107152015135415N000000000000N21       000030400K 10000000010000000774           
CUS0636200000106282906004         ANDERSON, LYNWOOD   3613 KENYON AVE                         000N        CARE OF             
MTR06362000001000000000000000RA              27817374    005800150000001500000520000003NN  NNW 000                       N    
RDG06362000WATRL000000004K00000000000001243001207152015135417N000000000000N21       000020400K 10000000010000001227           
CUS0636200000106282907002         DWYER III, JAMES M. 3615 KENYON AVE                         000N        CARE OF             
MTR06362000001000000000000000RA              27817375    005800160000001600000520000003NN  NNW 000                       N    
RDG06362000WATRL000000004K00000000000004460001307152015135430N000000000000N21       000130400K 10000000010000004439           
CUS0636200000106282908000         SILVER MEADOW REALTY3617 KENYON AVE                         000N        CARE OF             
MTR06362000001000000000000000RA              44175353    005800170000001700000520000003NN  NNW 000                       N    
RDG06362000WATRL000000004K00000000000002277001407152015135435N000000000010N21       000050400K 10000000010000002253           
CUS0636200000106282909008         BYRD, LINDA A.      3619 KENYON AVE                         000N        CARE OF             
MTR06362000001000000000000000RA              44175351    005800180000001800000520000003NN  NNW 000                       N    
RDG06362000WATRL000000004K00000000000001347001507152015135439N000000000000N21       000040400K 10000000010000001339           
CUS0636200000106282910006         JOYNER, CHENELLE    3621 KENYON AVE                         000N        CARE OF             
MTR06362000001000000000000000RA              14905711    005800190000001900000310000003NN  NNW 000                       N    
RDG06362000WATRL000000004K00000000000000619001607152015135441N000000000000N21       000020400K 10000000010000000607           
CUS0636200000106282911004         PERRY, JARONDA      3623 KENYON AVE                         000N        CARE OF             
MTR06362000001000000000000000RA              99391847    005800200000002000000570000003NN  NNW 000                       N    
RDG06362000WATRL000000004K00000000000000702001707152015135451N000000000000N21       000100400K 10000000010000000702           
CUS0636200000106282912002         MOORE, ASIA         3625 KENYON AVE                         000N        CARE OF             
MTR06362000001000000000000000RA              35111683    005800210000002100000520000003NN  NNW 000                       N    
RDG06362000WATRL000000004K00000000000003006001807152015135456N000000000000N21       000050400K 10000000010000003006           
CUS0636200000106282913000         WATSON, TOMIKA      3627 KENYON AVE                         000N        CARE OF             
MTR06362000001000000000000000RA              35111682    005800220000002200000520000003NN  NNW 000                       N    
RDG06362000WATRL000000004K00000000000001794001907152015135458N000000000000N21       000020400K 10000000010000001787           
CUS0636200000106282914008         WILLIAMS, DENISE    3629 KENYON AVE                         000N        CARE OF             
MTR06362000001000000000000000RA              10023136    005800230000002300000570000003NN  NNW 000                       N    
RDG06362000WATRL000000004K00000000000000122002007152015135502N000000000000N21       000040400K 10000000010000000111           
CUS0636200000106282915005         M & T BANK          3631 KENYON AVE                         000N        CARE OF             
MTR06362000001000000000000000RA              10024718    005800240000002400000570000003NN  NNW 000                       N    
RDG06362000WATRL000000004K00000000000000095002107152015135515N000400000030N21       000130400K 10000000010000000094           
CUS0636200000106282916003         BOUYER, CHARLENE    3633 KENYON AVE                         000N        CARE OF             
MTR06362000001000000000000000RA              01090038    005800250000002500000610000003NN  NNW 000                       N    
RDG06362000WATRL000000004K00000000000000825002207152015135518N000000000000N21       000030400K 10000000010000000815           
CUS0636200000106282917001         HELEN H KRELLER     3635 KENYON AVE                         000N        CARE OF             
MTR06362000001000000000000000RA              26003561    005800260000002600000520000003NN  NNW 000                       N    
RDG06362000WATRL000000004K00000000000002618002307152015135529N000100000020N21       000110400K 10000000010000002618           
CUS0636200000106282918009         GROSS, CYNTHIA      3637 KENYON AVE                         000N        CARE OF             
MTR06362000001000000000000000RA              01076167    005800270000002700000610000003NN  NNW 000                       N    
RDG06362000WATRL000000004K00000000000000739002407152015135532N000000000000N21       000030400K 10000000010000000729           
CUS0636200000106282919007         MARIA MISIUKOWIEC   3639 KENYON AVE                         000N        CARE OF             
MTR06362000001000000000000000RA              01076160    005800280000002800000610000003NN  NNW 000                       N    
RDG06362000WATRL000000004K00000000000000394002507152015135535N000000000000N21       000030400K 10000000010000000389           
CUS0636200000106282920005         JONES, EVE C        3641 KENYON AVE                         000N        CARE OF             
MTR06362000001000000000000000RA              99391400    005800290000002900000570000003NN  NNW 000                       N    
RDG06362000WATRL000000004K00000000000000913002607152015135538N000000000000N21       000030400K 10000000010000000896           
CUS0636200000106282921003         JEFFERSON, TRACY NIC3643 KENYON AVE                         000N        CARE OF             
MTR06362000001000000000000000RA              99391844    005800300000003000000570000003NN  NNW 000                       N    
RDG06362000WATRL000000004K00000000000000531002707152015135540N000000000000N21       000020400K 10000000010000000525           
CUS0636200000106282922001         JONES, VERNICE      3645 KENYON AVE                         000N        CARE OF             
MTR06362000001000000000000000RA              10010704    005800310000003100000570000003NN  NNW 000                       N    
RDG06362000WATRL000000004K00000000000000151002807152015135544N000000000000N21       000040400K 10000000010000000143           
CUS0636200000106282923009         ST. AMBROSE HOUSING 3647 KENYON AVE                         000N        CARE OF             
MTR06362000001000000000000000RA              76347655    005800320000003200000350000003NN  NNW 000   VACANT PROPERTY     N    
RDG06362000WATRL000000004K00000000000000004002907152015135546N000000000000N21       000020400K 10000000010000000004           
CUS0636200000106282924007         SEGEARS, ALONNA D   3649 KENYON AVE                         000N        CARE OF             
MTR06362000001000000000000000RA              35116456    005800330000003300000520000003NN  NNW 000                       N    
RDG06362000WATRL000000004K00000000000001205003007152015135550N000000000000N21       000040400K 10000000010000001195           
CUS0636200000106282925004         TURNER, TANGELA J   3651 KENYON AVE                         000N        CARE OF             
MTR06362000001000000000000000RA              35116409    005800340000003400000520000003NN  NNW 000                       N    
RDG06362000WATRL000000004K00000000000001165003107152015135552N000000000000N21       000020400K 10000000010000001159           
CUS0636200000106282926002         COMMUNITY DEVELOPMEN3653 KENYON AVE                         000N        CARE OF             
MTR06362000001000000000000000RA              99391674    005800350000003500000570000003NN  NNW 000                       N    
RDG06362000WATRL000000004K00000000000000404003207152015135555N000000000000N21       000030400K 10000000010000000404           
CUS0636200000106282927000         FLANAGAN, LINDA F.  3655 KENYON AVE                         000N        CARE OF             
MTR06362000001000000000000000RA              99391673    005800360000003600000570000003NN  NNW 000                       N    
RDG06362000WATRL000000004K00000000000000546003307152015135558N000000000000N21       000030400K 10000000010000000537           
CUS0636200000106282928008         WILLIAMS, SHEENA    3657 KENYON AVE                         000N        CARE OF             
MTR06362000001000000000000000RA              99391955    005800370000003700000570000003NN  NNW 000                       N    
RDG06362000WATRL000000004K00000000000000875003407152015135603N000000000000N21       000050400K 10000000010000000862           
CUS0636200000106282929006         RIVERS, MICHELLE    3659 KENYON AVE                         000N        CARE OF             
MTR06362000001000000000000000RA              01076163    005800380000003800000610000003NN  NNW 000                       N    
RDG06362000WATRL000000004K00000000000000625003507152015135605N000000000000N21       000020400K 10000000010000000619           
CUS0636200000106282930004         NEW-DAY INVESTMENT G3661 KENYON AVE                         000N        CARE OF             
MTR06362000001000000000000000RA              01076169    005800390000003900000610000003NN  NNW 000                       N    
RDG06362000WATRL000000004K00000000000000405003607152015135617N000000000000N21       000120400K 10000000010000000382           
CUS0636200000106282931002         MAXWELL, TYRONE J.  3663 KENYON AVE                         000N        CARE OF             
MTR06362000001000000000000000RA              01076166    005800400000004000000610000003NN  NNW 000                       N    
RDG06362000WATRL000000004K00000000000000914003707152015135619N000000000000N21       000020400K 10000000010000000893           
CUS0636200000106282932000         MACKALL, LISA       3665 KENYON AVE                         000N        CARE OF             
MTR06362000001000000000000000RA              99391956    005800410000004100000570000003NN  NNW 000                       N    
RDG06362000WATRL000000004K00000000000001022003807152015135620N000000000000N21       000010400K 10000000010000001000           
CUS0636200000106282933008         DOMAK INVESTMENT, IN3667 KENYON AVE                         000N        CARE OF             
MTR06362000001000000000000000RA              99392028    005800420000004200000570000003NN  NNW 000                       N    
RDG06362000WATRL000000004K00000000000000553003907152015135625N000000000000N21       000050400K 10000000010000000553           
CUS0636200000106282934006         WILLIAMS, DAPHNEY D 3669 KENYON AVE                         000N        CARE OF             
MTR06362000001000000000000000RA              38782276    005800430000004300000520000003NN  NNW 000                       N    
RDG06362000WATRL000000004K00000000000001131004007152015135628N000000000000N21       000030400K 10000000010000001122           
CUS0636200000106282935003         THOMAS, WILLIE L    3671 KENYON AVE                         000N        CARE OF             
MTR06362000001000000000000000RA              26014209    005800440000004400000520000003NY  NNW 000                       N    
MTM0636200026014209    CLEAN OUT                                                                                              
RDG06362000WATRL000000004K00000000000000000000000000000000000 000000000000U         000000400  10000000010000001681           
CUS0636200000106282936001         MCEVOY, CHARLES P.  3673 KENYON AVE                         000N        CARE OF             
MTR06362000001000000000000000RA              24766685    005800450000004500000520000003NY  NNW 000                       N    
MTM0636200024766685    CLEAN OUT                                                                                              
RDG06362000WATRL000000004K00000000000000000000000000000000000 000000000000U         000000400  10000000010000001757           
CUS0636200000106282937009         MCEVOY, CHARLES P.  3675 KENYON AVE                         000N        CARE OF             
MTR06362000001000000000000000RA              41259845    005800460000004600000520000003NN  NNW 000                       N    
RDG06362000WATRL000000004K00000000000000000000000000000000000 000000000000U         000000400  10000000010000001420           
CUS0636200000106282938007         YOUNG, SAMUEL E     3677 KENYON AVE                         000N        CARE OF             
MTR06362000001000000000000000RA              30521222    005800470000004700000520000003NN  NNW 000                       N    
RDG06362000WATRL000000004K00000000000000000000000000000000000 000000000000U         000000400  10000000010000001449           
CUS0636200000106282939005         RED STONE PROPERTIES3679 KENYON AVE                         000N        CARE OF             
MTR06362000001000000000000000RA              01107185    005800480000004800000610000003NN  NNW 000                       N    
RDG06362000WATRL000000004K00000000000000764004107152015135726N000000000000N21       000580400K 10000000010000000741           
CUS0636200000106282940003         MASON, SHERRY A.    3681 KENYON AVE                         000N        CARE OF             
MTR06362000001000000000000000RA              14912803    005800490000004900000310000003NN  NNW 000                       N    
RDG06362000WATRL000000004K00000000000001197004207152015135732N000000000010N21       000060400K 10000000010000001172           
CUS0636200000106282941001         IRENE M HERNANDEZ   3683 KENYON AVE                         000N        CARE OF             
MTR06362000001000000000000000RA              33081555    005800500000005000000520000003NN  NNW 000   VACANT PROPERTY     N    
RDG06362000WATRL000000004K00000000000002340004307152015135734N000000000000N21       000020400K 10000000010000002340           
CUS0636200000106282942009         WARNER, CHRISTIAN T 3685 KENYON AVE                         000N        CARE OF             
MTR06362000001000000000000000RA              54348543    005800510000005100000520000003NN  NNW 000                       N    
RDG06362000WATRL000000004K00000000000003495004407152015135736N000000000000N21       000020400K 10000000010000003478           
CUS0636200000106282943007         ALEXANDER, TAMMY    3687 KENYON AVE                         000N        CARE OF             
MTR06362000001000000000000000RA              26008336    005800520000005200000520000003NN  NNW 000                       N    
RDG06362000WATRL000000004K00000000000000000000000000000000000 000000000000U         000000400  10000000010000002836           
CUS0636200000106282944005         PASCHALL, MEGEEN L  3689 KENYON AVE                         000N        CARE OF             
MTR06362000001000000000000000RA              26008236    005800530000005300000520000003NN  NNW 000                       N    
RDG06362000WATRL000000004K00000000000000000000000000000000000 000000000000U         000000400  10000000010000002300           
CUS0636200000106282945002         FRANK BURKHARDT     3691 KENYON AVE                         000N        CARE OF             
MTR06362000001000000000000000RA              36698509    005800540000005400000520000003NN  NNW 000                       N    
RDG06362000WATRL000000004K00000000000000000000000000000000000 000000000000U         000000400  10000000010000001368           
CUS0636200000106282946000         PRICE, REGINALD     3693 KENYON AVE                         000N        CARE OF             
MTR06362000001000000000000000RA              24765122    005800550000005500000520000003NN  NNW 000                       N    
RDG06362000WATRL000000004K00000000000000000000000000000000000 000000000000U         000000400  10000000010000002050           
CUS0636200000106282947008         MARTIN, JOHN L      3695 KENYON AVE                         000N        CARE OF             
MTR06362000001000000000000000RA              01090031    005800560000005600000610000003NN  NNW 000                       N    
RDG06362000WATRL000000004K00000000000000730004507152015135748N000400000010N21       000120400K 10000000010000000720           
CUS0636200000106282948006         BAYNE, VALARIE      3697 KENYON AVE                         000N        CARE OF             
MTR06362000001000000000000000RA              01090035    005800570000005700000610000003NN  NNW 000                       N    
RDG06362000WATRL000000004K00000000000000761004607152015135752N000000000000N21       000040400K 10000000010000000750           
CUS0636200000106282949004         MILLER, SHARON T    3699 KENYON AVE                         000N        CARE OF             
MTR06362000001000000000000000RA              40321632    005800580000005800000520000003NN  NNW 000                       N    
RDG06362000WATRL000000004K00000000000002253004707152015135802N000000000000N21       000100400K 10000000010000002240           
CUS0636200000106282950002         WILLIAMS, JERMAINE E3699-1/2 KENYON AVE                     000N        CARE OF             
MTR06362000001000000000000000RA              14905708    005800590000005900000310000003NN  NNW 000                       N    
RDG06362000WATRL000000004K00000000000000554004807152015135804N000000000000N21       000020400K 10000000010000000539           
CUS0636200000106282951000         BLAND, TINA SUZETTE 3698 KENYON AVE                         000N        CARE OF             
MTR06362000001000000000000000RA              39583954    005800600000006000000520000003NN  NNW 000                       N    
RDG06362000WATRL000000004K00000000000002083004907152015135807N000000000000N21       000030400K 10000000010000002073           
CUS0636200000106282952008         LINDA LUALLON       3696 KENYON AVE                         000N        CARE OF             
MTR06362000001000000000000000RA              39583932    005800610000006100000520000003NN  NNW 000                       N    
RDG06362000WATRL000000004K00000000000001629005007152015135809N000000000000N21       000020400K 10000000010000001619           
CUS0636200000106282953006         HARRY-BELTON, VALERI3694 KENYON AVE                         000N        CARE OF             
MTR06362000001000000000000000RA              74689752    005800620000006200000350000003NN  NNW 000                       N    
RDG06362000WATRL000000004K00000000000000218005107152015135819N000400000030N21       000100400K 10000000010000000214           
CUS0636200000106282954004         MERRITT, ROBERT L   3692 KENYON AVE                         000N        CARE OF             
MTR06362000001000000000000000RA              33734804    005800630000006300000520000003NN  NNW 000                       N    
RDG06362000WATRL000000004K00000000000001420005207152015135824N000000000000N21       000050400K 10000000010000001376           
CUS0636200000106282955001         BOYD, ROMAEL M      3690 KENYON AVE                         000N        CARE OF             
MTR06362000001000000000000000RA              99391951    005800640000006400000570000003NN  NNW 000                       N    
RDG06362000WATRL000000004K00000000000000000000000000000000000 000000000000U         000000400  10000000010000000916           
CUS0636200000106282956009         MOORE, MANRISE      3688 KENYON AVE                         000N        CARE OF             
MTR06362000001000000000000000RA              99391952    005800650000006500000570000003NN  NNW 000                       N    
RDG06362000WATRL000000004K00000000000000000000000000000000000 000000000000U         000000400  10000000010000001297           
CUS0636200000106282957007         ISANGO PROPERTIES, L3686 KENYON AVE                         000N        CARE OF             
MTR06362000001000000000000000RA              01093039    005800660000006600000610000003NN  NNW 000                       N    
RDG06362000WATRL000000004K00000000000000000000000000000000000 000000000000U         000000400  10000000010000000843           
CUS0636200000106282958005         KUTZBERGER, JOHN    3684 KENYON AVE                         000N        CARE OF             
MTR06362000001000000000000000RA              21194597    005800670000006700000520000003NN  NNW 000                       N    
RDG06362000WATRL000000004K00000000000000000000000000000000000 000000000000U         000000400  10000000010000001650           
CUS0636200000106282959003         WILLIAMS, BRENDA L  3682 KENYON AVE                         000N        CARE OF             
MTR06362000001000000000000000RA              50788737    005800680000006800000520000003NN  NNW 000                       N    
RDG06362000WATRL000000004K00000000000000000000000000000000000 000000000000U         000000400  10000000010000001887           
CUS0636200000106282960001         TATE, KEITH P.      3680 KENYON AVE                         000N        CARE OF             
MTR06362000001000000000000000RA              50788766    005800690000006900000520000003NN  NNW 000                       N    
RDG06362000WATRL000000004K00000000000000000000000000000000000 000000000000U         000000400  10000000010000001133           
CUS0636200000106282961009         DYER-WILLIAMS, ANDRE3678 KENYON AVE                         000N        CARE OF             
MTR06362000001000000000000000RA              24758073    005800700000007000000520000003NN  NNW 000                       N    
RDG06362000WATRL000000004K00000000000000000000000000000000000 000000000000U         000000400  10000000010000003033           
CUS0636200000106282962007         VINSON, CHARLINE    3676 KENYON AVE                         000N        CARE OF             
MTR06362000001000000000000000RA              24758129    005800710000007100000520000003NN  NNW 000                       N    
RDG06362000WATRL000000004K00000000000000000000000000000000000 000000000000U         000000400  10000000010000003130           
CUS0636200000106282963005         DAVIS, LAKEISHA D.  3674 KENYON AVE                         000N        CARE OF             
MTR06362000001000000000000000RA              27131540    005800720000007200000520000003NN  NNW 000                       N    
RDG06362000WATRL000000004K00000000000001994005307152015135832N000000000000N21       000080400K 10000000010000001979           
CUS0636200000106282964003         PATTERSON, SUSAN    3672 KENYON AVE                         000N        CARE OF             
MTR06362000001000000000000000RA              14912607    005800730000007300000310000003NN  NNW 000                       N    
RDG06362000WATRL000000004K00000000000000738005407152015135842N000000000000N21       000100400K 10000000010000000713           
CUS0636200000106282965000         HILL, BRENDA        3670 KENYON AVE                         000N        CARE OF             
MTR06362000001000000000000000RA              45380889    005800740000007400000520000003NN  NNW 000                       N    
RDG06362000WATRL000000004K00000000000002034005507152015135847N000400000010N21       000050400K 10000000010000002019           
CUS0636200000106282966008         BLUGH, ANTHONY      3668 KENYON AVE                         000N        CARE OF             
MTR06362000001000000000000000RA              45380887    005800750000007500000520000003NN  NNW 000                       N    
RDG06362000WATRL000000004K00000000000001127005607152015135854N000300000020N21       000070400K 10000000010000001109           
CUS0636200000106282967006         ROBERT J GONLIN     3666 KENYON AVE                         000N        CARE OF             
MTR06362000001000000000000000RA              48591101    005800760000007600000520000003NN  NNW 000                       N    
RDG06362000WATRL000000004K00000000000000879005707152015135858N000000000000N21       000040400K 10000000010000000870           
CUS0636200000106282968004         REALTY MASTERMINDS, 3664 KENYON AVE                         000N        CARE OF             
MTR06362000001000000000000000RA              52286166    005800770000007700000520000003NN  NNW 000                       N    
RDG06362000WATRL000000004K00000000000000928005807152015135920N000000000000N21       000220400K 10000000010000000904           
CUS0636200000106282969002         BROADWAY, TIFFANY D.3662 KENYON AVE                         000N        CARE OF             
MTR06362000001000000000000000RA              30517814    005800780000007800000520000003NN  NNW 000                       N    
RDG06362000WATRL000000004K00000000000002891005907152015135927N000000000000N21       000070400K 10000000010000002871           
CUS0636200000106282970000         STANKIEWICZ, RICHARD3660 KENYON AVE                         000N        CARE OF             
MTR06362000001000000000000000RA              23051942    005800790000007900000520000003NN  NNW 000                       N    
RDG06362000WATRL000000004K00000000000003599006007152015135930N000000000000N21       000030400K 10000000010000003585           
CUS0636200000106282971008         DEMBY, LYNETTE R    3658 KENYON AVE                         000N        CARE OF             
MTR06362000001000000000000000RA              01076161    005800800000008000000610000003NN  NNW 000                       N    
RDG06362000WATRL000000004K00000000000002578006107152015135933N000000000000N21       000030400K 10000000010000002554           
CUS0636200000106282972006         RICHARD A JONES     3656 KENYON AVE                         000N        CARE OF             
MTR06362000001000000000000000RA              01076168    005800810000008100000610000003NN  NNW 000                       N    
RDG06362000WATRL000000004K00000000000000690006207152015135937N000000000000N21       000040400K 10000000010000000683           
CUS0636200000106282973004         CHERRY, LATSHA D    3654 KENYON AVE                         000N        CARE OF             
MTR06362000001000000000000000RA              45380974    005800820000008200000520000003NN  NNW 000                       N    
RDG06362000WATRL000000004K00000000000001937006307152015135945N000400000020N21       000080400K 10000000010000001930           
CUS0636200000106282974002         TURNER, REGINA      3652 KENYON AVE                         000N        CARE OF             
MTR06362000001000000000000000RA              45380979    005800830000008300000520000003NN  NNW 000                       N    
RDG06362000WATRL000000004K00000000000001683006407152015135950N000000000000N21       000050400K 10000000010000001655           
CUS0636200000106282975009         JOSEPHINE LYONS     3650 KENYON AVE                         000N        CARE OF             
MTR06362000001000000000000000RA              99392025    005800840000008400000570000003NN  NNW 000                       N    
RDG06362000WATRL000000004K00000000000000796006507152015135953N000000000000N21       000030400K 10000000010000000790           
CUS0636200000106282976007         WITHERSPOON, CURTIS 3648 KENYON AVE                         000N        CARE OF             
MTR06362000001000000000000000RA              99392024    005800850000008500000570000003NN  NNW 000                       N    
RDG06362000WATRL000000004K00000000000000697006607152015135955N000000000000N21       000020400K 10000000010000000680           
CUS0636200000106282977005         AHN, HENRY          3646 KENYON AVE                         000N        CARE OF             
MTR06362000001000000000000000RA              99392027    005800860000008600000570000003NN  NNW 000                       N    
RDG06362000WATRL000000004K00000000000001634006707152015135958N000000000000N21       000030400K 10000000010000001621           
CUS0636200000106282978003         EDWARDS JR., JAMES  3644 KENYON AVE                         000N        CARE OF             
MTR06362000001000000000000000RA              99392023    005800870000008700000570000003NN  NNW 000                       N    
RDG06362000WATRL000000004K00000000000001742006807152015140000N000000000000N21       000020400K 10000000010000001726           
CUS0636200000106282979001         MAURICE M NICHOLS JR3642 KENYON AVE                         000N        CARE OF             
MTR06362000001000000000000000RA              32177339    005800880000008800000520000003NN  NNW 000                       N    
RDG06362000WATRL000000004K00000000000002633006907152015140003N000000000000N21       000030400K 10000000010000002621           
CUS0636200000106282980009         MATTHEWS, LORRAINE  3640 KENYON AVE                         000N        CARE OF             
MTR06362000001000000000000000RA              76347715    005800890000008900000350000003NN  NNW 000                       N    
RDG06362000WATRL000000004K00000000000000027007007152015140005N000000000000N21       000020400K 10000000010000000019           
CUS0636200000106282981007         BAKER-MOYE, TONYA   3638 KENYON AVE                         000N        CARE OF             
MTR06362000001000000000000000RA              14905709    005800900000009000000310000003NN  NNW 000                       N    
RDG06362000WATRL000000004K00000000000000373007107152015140007N000000000000N21       000020400K 10000000010000000366           
CUS0636200000106282982005         MEDLEY, KRISTOPHER M3636 KENYON AVE                         000N        CARE OF             
MTR06362000001000000000000000RA              41257882    005800910000009100000520000003NN  NNW 000                       N    
RDG06362000WATRL000000004K00000000000002307007207152015140009N000000000000N21       000020400K 10000000010000002286           
CUS0636200000106282983003         HENRY T DAVIS & WF  3634 KENYON AVE                         000N        CARE OF             
MTR06362000001000000000000000RA              27819425    005800920000009200000520000003NN  NNW 000                       N    
RDG06362000WATRL000000004K00000000000002529007307152015140016N000000000000N21       000070400K 10000000010000002528           
CUS0636200000106282984001         BRAXTON, RICHARD    3632 KENYON AVE                         000N        CARE OF             
MTR06362000001000000000000000RA              27819423    005800930000009300000520000003NN  NNW 000                       N    
RDG06362000WATRL000000004K00000000000001509007407152015140019N000000000000N21       000030400K 10000000010000001492           
CUS0636200000106282985008         BROWN, REGINA L     3630 KENYON AVE                         000N        CARE OF             
MTR06362000001000000000000000RA              27626984    005800940000009400000520000003NN  NNW 000                       N    
RDG06362000WATRL000000004K00000000000003256007507152015140021N000000000000N21       000020400K 10000000010000003243           
CUS0636200000106282986006         STARK, SAMUEL JUDSON3628 KENYON AVE                         000N        CARE OF             
MTR06362000001000000000000000RA              39584798    005800950000009500000520000003NN  NNW 000                       N    
RDG06362000WATRL000000004K00000000000001824007607152015140024N000000000000N21       000030400K 10000000010000001805           
CUS0636200000106282987004         CATALFAMO, MARY R   3626 KENYON AVE                         000N        CARE OF             
MTR06362000001000000000000000RA              39585978    005800960000009600000520000003NN  NNW 000                       N    
RDG06362000WATRL000000004K00000000000000888007707152015140032N000000000000N21       000080400K 10000000010000000885           
CUS0636200000106282988002         FELDMAN, JACQUELINE 3624 KENYON AVE                         000N        CARE OF             
MTR06362000001000000000000000RA              39585981    005800970000009700000520000003NN  NNW 000                       N    
RDG06362000WATRL000000004K00000000000001133007807152015140037N000000000000N21       000050400K 10000000010000001123           
CUS0636200000106282989000         CROSBY, CROSBY & CRO3622 KENYON AVE                         000N        CARE OF             
MTR06362000001000000000000000RA              99391845    005800980000009800000570000003NN  NNW 000                       N    
RDG06362000WATRL000000004K00000000000000650007907152015140039N000000000000N21       000020400K 10000000010000000629           
CUS0636200000106282990008         REVER, JEAN M       3620 KENYON AVE                         000N        CARE OF             
MTR06362000001000000000000000RA              99392037    005800990000009900000570000003NN  NNW 000                       N    
RDG06362000WATRL000000004K00000000000000842008007152015140043N000000000000N21       000040400K 10000000010000000831           
CUS0636200000106282991006         HARRIS, DARNELL     3618 KENYON AVE                         000N        CARE OF             
MTR06362000001000000000000000RA              27833512    005801000000010000000520000003NN  NNW 000                       N    
RDG06362000WATRL000000004K00000000000002257008107152015140046N000000000000N21       000030400K 10000000010000002245           
CUS0636200000106282992004         THOMAS, JOYCE       3616 KENYON AVE                         000N        CARE OF             
MTR06362000001000000000000000RA              30517999    005801010000010100000520000003NN  NNW 000                       N    
RDG06362000WATRL000000004K00000000000001417008207152015140049N000000000000N21       000030400K 10000000010000001410           
CUS0636200000106282993002         PROTZMAN, TIMOTHY J.3614 KENYON AVE                         000N        CARE OF             
MTR06362000001000000000000000RA              99391839    005801020000010200000570000003NN  NNW 000                       N    
RDG06362000WATRL000000004K00000000000000941008307152015140052N000000000000N21       000030400K 10000000010000000928           
CUS0636200000106282994000         HILL, TAMARA M      3612 KENYON AVE                         000N        CARE OF             
MTR06362000001000000000000000RA              99392040    005801030000010300000570000003NN  NNW 000                       N    
RDG06362000WATRL000000004K00000000000001409008407152015140055N000000000000N21       000030400K 10000000010000001386           
CUS0636200000106282995007         GREEN, DARRYL H     3610 KENYON AVE                         000N        CARE OF             
MTR06362000001000000000000000RA              99392035    005801040000010400000570000003NN  NNW 000                       N    
RDG06362000WATRL000000004K00000000000001189008507152015140057N000000000000N21       000020400K 10000000010000001176           
CUS0636200000106282996005         ROGER M EDMUNDS JR. 3608 KENYON AVE                         000N        CARE OF             
MTR06362000001000000000000000RA              99392036    005801050000010500000570000003NN  NNW 000                       N    
RDG06362000WATRL000000004K00000000000000425008607152015140059N000000000000N21       000020400K 10000000010000000419           
CUS0636200000106282997003         DAUGHERTY, JAMES B  3606 KENYON AVE                         000N        CARE OF             
MTR06362000001000000000000000RA              44175349    005801060000010600000520000003NN  NNW 000                       N    
RDG06362000WATRL000000004K00000000000002103008707152015140101N000000000000N21       000020400K 10000000010000002103           
CUS0636200000106282998001         STOKES, JUANITA     3604 KENYON AVE                         000N        CARE OF             
MTR06362000001000000000000000RA              29084611    005801070000010700000520000003NN  NNW 000                       N    
RDG06362000WATRL000000004K00000000000002671008807152015140108N000000000000N21       000070400K 10000000010000002671           
CUS0636200000106282999009         POWELL, CATHY C     3602 KENYON AVE                         000N        CARE OF             
MTR06362000001000000000000000RA              99392031    005801080000010800000570000003NN  NNW 000                       N    
RDG06362000WATRL000000004K00000000000000493008907152015140111N000000000000N21       000030400K 10000000010000000484           
CUS0636200000106283000005         SHARON L LAW        3600 KENYON AVE                         000N        CARE OF             
MTR06362000001000000000000000RA              99392038    005801090000010900000570000003NN  NNW 000                       N    
RDG06362000WATRL000000004K00000000000001381009007152015140114N000000000000N21       000030400K 10000000010000001361           
CUS0636200000106283001003         CLIFTMONT WESLEYAN C3702 CLIFTMONT AVE                      000N        CARE OF             
MTR06362000001000000000000000RA              29121997    007501100000011000000520000003NN  NNW 000                       N    
RDG06362000WATRL000000004K00000000000000000000000000000000000 000000000000U         000000400  10000000010000000882           
CUS0636200000106283002001         CLIFTMONT WESLYAN CH3530 KENYON AVE                         000N        CARE OF             
MTR06362000001000000000000000RA              38887109    005801110000011100000520000003NN  NNW 000                       N    
RDG06362000WATRL000000004K00000000000002265009107152015140144N000300000020N21       000300400K 10000000010000002347           
CUS0636200000106409524003         BERNARD F PARRISH   3510 KENYON AVE                         000N        CARE OF             
MTR06362000001000000000000000RA              77879365    005801120000011200000360000003NN  NNW 000                       N    
RDG06362000WATRL000000004K00000000000000000009207152015140147S001000000000N21       000030400K 10000000010000000000           
CUS0636200000106283003009         OJO, TITUS O.       3508 KENYON AVE                         000N        CARE OF             
MTR06362000001000000000000000RA              01090758    005801130000011300000610000003NY  NNW 000                       N    
MTM0636200001090758    CAR                                                                                                    
RDG06362000WATRL000000004K00000000000000000000000000000000000 000000000000U         000000400  10000000010000001599           
CUS0636200000106283004007         DONALDSON, ARTHUR   3501 DUDLEY AVE                         000N        CARE OF             
MTR06362000001000000000000000RA              41075494    005801140000011400000520000003NN  NNW 000                       N    
RDG06362000WATRL000000004K00000000000002005009307152015140200N000000000000N21       000130400K 10000000010000001985           
CUS0636200000106283005004         MUBENGA, KAMONAYI   3503 DUDLEY AVE                         000N        CARE OF             
MTR06362000001000000000000000RA              41075496    005801150000011500000520000003NN  NNW 000                       N    
RDG06362000WATRL000000004K00000000000002294009407152015140207N000000000000N21       000070400K 10000000010000002252           
CUS0636200000106283006002         STOKES, ROBERT L    3505 DUDLEY AVE                         000N        CARE OF             
MTR06362000001000000000000000RA              14906035    005801160000011600000310000003NN  NNW 000                       N    
RDG06362000WATRL000000004K00000000000000500009507152015140209N000000000000N21       000020400K 10000000010000000493           
CUS0636200000106283007000         FANNING, JEANNETTE L3507 DUDLEY AVE                         000N        CARE OF             
MTR06362000001000000000000000RA              14902544    005801170000011700000310000003NN  NNW 000                       N    
RDG06362000WATRL000000004K00000000000000361009607152015140210N000000000000N21       000010400K 10000000010000000354           
CUS0636200000106283008008         BRAXTON, PATRICIA A.3509 DUDLEY AVE                         000N        CARE OF             
MTR06362000001000000000000000RA              14906033    005801180000011800000310000003NN  NNW 000                       N    
RDG06362000WATRL000000004K00000000000000795009707152015140213N000000000000N21       000030400K 10000000010000000782           
CUS0636200000106283009006         THORPE, CAROLYN B   3511 DUDLEY AVE                         000N        CARE OF             
MTR06362000001000000000000000RA              40781277    005801190000011900000520000003NN  NNW 000                       N    
RDG06362000WATRL000000004K00000000000002155009807152015140215N000000000000N21       000020400K 10000000010000002139           
CUS0636200000106283010004         ROSS, JAMES L       3513 DUDLEY AVE                         000N        CARE OF             
MTR06362000001000000000000000RA              27132775    005801200000012000000520000003NN  NNW 000                       N    
RDG06362000WATRL000000004K00000000000003363009907152015140227N000000000000N21       000120400K 10000000010000003339           
CUS0636200000106283011002         MCINTOSH, MICHAEL   3515 DUDLEY AVE                         000N        CARE OF             
MTR06362000001000000000000000RA              74688661    005801210000012100000350000003NN  NNW 000                       N    
RDG06362000WATRL000000004K00000000000000041010007152015140229N000000000000N21       000020400K 10000000010000000034           
CUS0636200000106283012000         SINGLETON, TONYA L. 3517 DUDLEY AVE                         000N        CARE OF             
MTR06362000001000000000000000RA              99392268    005801220000012200000570000003NN  NNW 000                       N    
RDG06362000WATRL000000004K00000000000001458010107152015140244N000400000020N21       000150400K 10000000010000001445           
CUS0636200000106283013008         HARVERY JR, WILLIAM 3519 DUDLEY AVE                         000N        CARE OF             
MTR06362000001000000000000000RA              44177006    005801230000012300000520000003NN  NNW 000                       N    
RDG06362000WATRL000000004K00000000000002429010207152015140246N000000000000N21       000020400K 10000000010000002418           
CUS0636200000106283014006         WILLS SR., MATTHEW L3521 DUDLEY AVE                         000N        CARE OF             
MTR06362000001000000000000000RA              10021221    005801240000012400000570000003NN  NNW 000                       N    
RDG06362000WATRL000000004K00000000000000063010307152015140251N000000000010N21       000050400K 10000000010000000062           
CUS0636200000106283015003         LOWERY, EARL        3523 DUDLEY AVE                         000N        CARE OF             
MTR06362000001000000000000000RA              39291555    005801250000012500000520000003NN  NNW 000                       N    
RDG06362000WATRL000000004K00000000000002146010407152015140253N000000000000N21       000020400K 10000000010000002141           
CUS0636200000106283016001         ANTHONY F HAUBNER   3525 DUDLEY AVE                         000N        CARE OF             
MTR06362000001000000000000000RA              39289111    005801260000012600000520000003NN  NNW 000                       N    
RDG06362000WATRL000000004K00000000000001239010507152015140302N000000000010N21       000090400K 10000000010000001231           
CUS0636200000106283017009         SIMPSON, DEBORAH Y  3527 DUDLEY AVE                         000N        CARE OF             
MTR06362000001000000000000000RA              39923606    005801270000012700000520000003NN  NNW 000                       N    
RDG06362000WATRL000000004K00000000000001644010607152015140304N000000000000N21       000020400K 10000000010000001630           
CUS0636200000106283018007         HARRISON, SHERITA   3529 DUDLEY AVE                         000N        CARE OF             
MTR06362000001000000000000000RA              39923301    005801280000012800000520000003NN  NNW 000                       N    
RDG06362000WATRL000000004K00000000000002691010707152015140310N000000000000N21       000060400K 10000000010000002680           
CUS0636200000106283019005         SMITH, MADALYN V    3531 DUDLEY AVE                         000N        CARE OF             
MTR06362000001000000000000000RA              00125448    005801290000012900000570000003NN  NNW 000                       N    
RDG06362000WATRL000000004K00000000000000364010807152015140311N000000000000N21       000010400K 10000000010000000357           
CUS0636200000106283020003         CROWELL, HAZEL V    3533 DUDLEY AVE                         000N        CARE OF             
MTR06362000001000000000000000RA              50788414    005801300000013000000520000003NN  NNW 000                       N    
RDG06362000WATRL000000004K00000000000001038010907152015140314N000000000000N21       000030400K 10000000010000001029           
CUS0636200000106283021001         DOCKERY, MARCUS A.  3535 DUDLEY AVE                         000N        CARE OF             
MTR06362000001000000000000000RA              01083957    005801310000013100000610000003NN  NNW 000                       N    
RDG06362000WATRL000000004K00000000000001293011007152015140316N000000000000N21       000020400K 10000000010000001280           
CUS0636200000106283022009         STARK, SAMUEL J     3537 DUDLEY AVE                         000N        CARE OF             
MTR06362000001000000000000000RA              44086694    005801320000013200000520000003NN  NNW 000                       N    
RDG06362000WATRL000000004K00000000000001246011107152015140337N000000000011N21       000070400K 10000000010000001237           
CUS0636200000106283023007         EMERALD ISLE REAL ES3539 DUDLEY AVE                         000N        CARE OF             
MTR06362000001000000000000000RA              27814663    005801330000013300000520000003NN  NNW 000                       N    
RDG06362000WATRL000000004K00000000000002176011207152015140330N000000000000N21       000080400K 10000000010000002161           
CUS0636200000106283024005         JOHNSON, LORETTA    3541 DUDLEY AVE                         000N        CARE OF             
MTR06362000001000000000000000RA              00137893    005801340000013400000570000003NN  NNW 000                       N    
RDG06362000WATRL000000004K00000000000001083011307152015140400N000400000020N21       000230400K 10000000010000001066           
CUS0636200000106283025002         ELDER, SANDRA       3543 DUDLEY AVE                         000N        CARE OF             
MTR06362000001000000000000000RA              00137935    005801350000013500000570000003NN  NNW 000                       N    
RDG06362000WATRL000000004K00000000000000884011407152015140403N000000000000N21       000030400K 10000000010000000871           
CUS0636200000106283026000         LOGAN, ALBERT       3545 DUDLEY AVE                         000N        CARE OF             
MTR06362000001000000000000000RA              01090037    005801360000013600000610000003NN  NNW 000                       N    
RDG06362000WATRL000000004K00000000000001215011507152015140406N000000000000N21       000030400K 10000000010000001185           
CUS0636200000106283027008         MUSIAL, SERAFINA    3547 DUDLEY AVE                         000N        CARE OF             
MTR06362000001000000000000000RA              23053929    005801370000013700000520000003NN  NNW 000                       N    
RDG06362000WATRL000000004K00000000000001356011607152015140407N000000000000N21       000010400K 10000000010000001336           
CUS0636200000106283028006         ERLINE, CHARLES L   3549 DUDLEY AVE                         000N        CARE OF             
MTR06362000001000000000000000RA              25781639    005801380000013800000520000003NN  NNW 000                       N    
RDG06362000WATRL000000004K00000000000001627011707152015140415N000300000020N21       000080400K 10000000010000001586           
CUS0636200000106283029004         SIMMS, CONNIE M     3551 DUDLEY AVE                         000N        CARE OF             
MTR06362000001000000000000000RA              01075355    005801390000013900000610000003NN  NNW 000                       N    
RDG06362000WATRL000000004K00000000000000645011807152015140418N000000000000N21       000030400K 10000000010000000630           
CUS0636200000106283030002         HOLT, RAY           3553 DUDLEY AVE                         000N        CARE OF             
MTR06362000001000000000000000RA              24758457    005801400000014000000520000003NN  NNW 000                       N    
RDG06362000WATRL000000004K00000000000002756011907152015140420N000000000000N21       000020400K 10000000010000002751           
CUS0636200000106283031000         KANE, JACQUAI L.    3555 DUDLEY AVE                         000N        CARE OF             
MTR06362000001000000000000000RA              77987832    005801410000014100000350000003NN  NNW 000                       N    
RDG06362000WATRL000000004K00000000000000000012007152015140422S001000000000N21       000020400K 10000000010000000028           
CUS0636200000106283032008         MOORE, JASON E.     3557 DUDLEY AVE                         000N        CARE OF             
MTR06362000001000000000000000RA              31580399    005801420000014200000520000003NN  NNW 000                       N    
RDG06362000WATRL000000004K00000000000002952012107152015140435N000300000010N21       000130400K 10000000010000002884           
CUS0636200000106283033006         JOHNSON, STACEY     3559 DUDLEY AVE                         000N        CARE OF             
MTR06362000001000000000000000RA              31580396    005801430000014300000520000003NN  NNW 000                       N    
RDG06362000WATRL000000004K00000000000001859012207152015140449N000000000000N21       000140400K 10000000010000001837           
CUS0636200000106283034004         ABLE, VICTOR        3561 DUDLEY AVE                         000N        CARE OF             
MTR06362000001000000000000000RA              01099722    005801440000014400000610000003NN  NNW 000                       N    
RDG06362000WATRL000000004K00000000000001143012307152015140451N000000000000N21       000020400K 10000000010000001122           
CUS0636200000106283035001         CAROL G HEAD        3563 DUDLEY AVE                         000N        CARE OF             
MTR06362000001000000000000000RA              01099718    005801450000014500000610000003NN  NNW 000                       N    
RDG06362000WATRL000000004K00000000000000637012407152015140452N000000000000N21       000010400K 10000000010000000626           
CUS0636200000106283036009         WOODS, ROBERT E     3565 DUDLEY AVE                         000N        CARE OF             
MTR06362000001000000000000000RA              01085362    005801460000014600000610000003NN  NNW 000                       N    
RDG06362000WATRL000000004K00000000000000769012507152015140455N000000000000N21       000030400K 10000000010000000755           
CUS0636200000106283037007         SCRUGGS, JERMAINE L 3567 DUDLEY AVE                         000N        CARE OF             
MTR06362000001000000000000000RA              01085365    005801470000014700000610000003NN  NNW 000                       N    
RDG06362000WATRL000000004K00000000000000646012607152015140458N000000000000N21       000030400K 10000000010000000628           
CUS0636200000106283038005         DAVE, SHAN R        3569 DUDLEY AVE                         000N        CARE OF             
MTR06362000001000000000000000RA              44172599    005801480000014800000520000003NN  NNW 000                       N    
RDG06362000WATRL000000004K00000000000001838012707152015140503N000000000000N21       000050400K 10000000010000001814           
CUS0636200000106283039003         HALL, GILBERT       3571 DUDLEY AVE                         000N        CARE OF             
MTR06362000001000000000000000RA              44172560    005801490000014900000520000003NN  NNW 000                       N    
RDG06362000WATRL000000004K00000000000001041012807152015140505N000000000000N21       000020400K 10000000010000001034           
CUS0636200000106283040001         DESHIELDS, PATRICIA 3573 DUDLEY AVE                         000N        CARE OF             
MTR06362000001000000000000000RA              27132653    005801500000015000000520000003NN  NNW 000                       N    
RDG06362000WATRL000000004K00000000000001655012907152015140507N000000000000N21       000020400K 10000000010000001640           
CUS0636200000106283041009         IMWOLD, DANNY L.    3575 DUDLEY AVE                         000N        CARE OF             
