FHDNNNN036007532007532007532N                                                                                           025559
RHD08516100NN02010201000002010000000002010201000192NY020102010201000000000000000000000000000002    07162015NY020000 N         
CUS0851610000108382484007         SEENEY MICHAEL T    1908 MONUMENTAL RD                      000N        CARE OF             
MTR08516100001000000000000000RA              35097331    005800010000000100000520000003NN  NNW 000                       N    
RDG08516100WATRL000000004K00000000000001897000107252015123713N000000000000N84       000000400K 10000000010000001893           
CUS0851610000108384748003         DAVIS RANDY J       1910 MONUMENTAL RD                      000N        CARE OF             
MTR08516100001000000000000000RA              35098232    005800020000000200000520000003NN  NNW 000                       N    
RDG08516100WATRL000000004K00000000000002488000207252015123748N000300000010N84       000350400K 10000000010000002366           
CUS0851610000108398141005         BRESANI PAUL        1910A MONUMENTAL RD                     000N        CARE OF             
MTR08516100001000000000000000RA              40048983    005800030000000300000520000003NN  NNW 000                       N    
RDG08516100WATRL000000004K00000000000003162000307252015123830N000000000000N84       000420400K 10000000010000003147           
CUS0851610000108391260000         VAN NAWL            1912 MONUMENTAL RD                      000N        CARE OF             
MTR08516100001000000000000000RA              36693792    005800040000000400000520000003NN  NNW 000                       N    
RDG08516100WATRL000000004K00000000000002461000407252015123858N000000000000N84       000280400K 10000000010000002430           
CUS0851610000108364613003         RIPPIN TERRY        1916 MONUMENTAL RD                      000N        CARE OF             
MTR08516100001000000000000000RA              35116463    005800050000000500000520000003NN  NNW 000                       N    
RDG08516100WATRL000000004K00000000000002403000907252015124528N000000000000N84       001660400K 10000000010000002390           
CUS0851610000108352938008         BLEZA JUDY          1922 MONUMENTAL RD                      000N        CARE OF             
MTR08516100001000000000000000RA              01085885    005800060000000600000610000003NN  NNW 000                       N    
RDG08516100WATRL000000004K00000000000002574001007252015124558N000000000010N84       000300400K 10000000010000002414           
CUS0851610000108007151007         RAQUENO TEOFILO R   1924 MONUMENTAL RD                      000N        CARE OF             
MTR08516100001000000000000000RA              99290755    005800070000000700000570000003NN  NNW 000                       N    
RDG08516100WATRL000000004K00000000000001278001107252015132527N000000000010N84       023690400K 10000000010000001268           
CUS0851610000108007139002         KELLY DAVID L,SR    1926 MONUMENTAL RD                      000N        CARE OF             
MTR08516100001000000000000000RA              26003885    005800080000000800000520000003NN  NNW 000                       N    
RDG08516100WATRL000000004K00000000000003686001207252015132546N000000000010N84       000190400K 10000000010000003676           
CUS0851610000108356820004         RENTZ JOAN L        2004 LINCOLN AVE                        000N        CARE OF             
MTR08516100001000000000000000RA              29684989    005800090000000900000520000003NN  NNW 000                       N    
RDG08516100WATRL000000004K00000000000002526001307252015132828N000000000020N84       001620400K 10000000010000002516           
CUS0851610000108356821002         BANKY EDWARD CHARLES2006 LINCOLN AVE                        000N        CARE OF             
MTR08516100001000000000000000RA              29680847    005800100000001000000520000003NN  NNW 000                       N    
RDG08516100WATRL000000004K00000000000003032001407252015132834N000000000010N84       000060400K 10000000010000003022           
CUS0851610000108356822000         BRIAN BUZBEE        2008 LINCOLN AVE                        000N        CARE OF             
MTR08516100001000000000000000RA              75614971    005800110000001100000350000003NN  NNW 000                       N    
RDG08516100WATRL000000004K00000000000000033001507252015132842N000000000010N84       000080400K 10000000010000000023           
CUS0851610000108007152005         PAYLOR DONALD       2000 MONUMENTAL RD                      000N        CARE OF             
MTR08516100001000000000000000RA              48587246    005800120000001200000520000003NN  NNW 000                       N    
RDG08516100WATRL000000004K00000000000001226001607252015132846N000000000000N84       000040400K 10000000010000001226           
CUS0851610000108007141008         CUSTIS WILLIAM P    2010 MONUMENTAL RD                      000N        CARE OF             
MTR08516100001000000000000000RA              25783275    005800130000001300000520000003NN  NNW 000                       N    
RDG08516100WATRL000000004K00000000000003257001707252015133335N000000000000N84       002890400K 10000000010000003252           
CUS0851610000108392957000         LUCAS SHARI L       2010 PUTNAM RD                          000N        CARE OF             
MTR08516100001000000000000000RA              45378391    005800140000001400000520000003NN  NNW 000                       N    
RDG08516100WATRL000000004K00000000000002721000907272015094146N000000000020U84       001670400K 10000000010000002706           
CUS0851610000108392954007         TORBECK LINDSAY S   2012 PUTNAM RD                          000N        CARE OF             
MTR08516100001000000000000000RA              38984001    005800150000001500000520000003NN  NNW 000                       N    
RDG08516100WATRL000000004K00000000000002534001007272015094151N000000000010U84       000050400K 10000000010000002524           
CUS0851610000108392955004         FOOR MARK           2014 PUTNAM RD                          000N        CARE OF             
MTR08516100001000000000000000RA              41590745    005800160000001600000520000003NN  NNW 000                       N    
RDG08516100WATRL000000004K00000000000000828001107272015094159N000000000020U84       000080400K 10000000010000000818           
CUS0851610000108392953009         MARKOV DARLENE L    2016 PUTNAM RD                          000N        CARE OF             
MTR08516100001000000000000000RA              00136860    005800170000001700000570000003NN  NNW 000                       N    
RDG08516100WATRL000000004K00000000000001634001207272015094204N000000000010U84       000050400K 10000000010000001624           
CUS0851610000108392952001         CZYZEWSKI ROBERT J,S2018 PUTNAM RD                          000N        CARE OF             
MTR08516100001000000000000000RA              99391203    005800180000001800000570000003NN  NNW 000                       N    
RDG08516100WATRL000000004K00000000000002258001307272015094217N000000000030U84       000130400K 10000000010000002243           
CUS0851610000108392951003         ALLEN DELORES J     2020 PUTNAM RD                          000N        CARE OF             
MTR08516100001000000000000000RA              38983041    005800190000001900000520000003NN  NNW 000                       N    
RDG08516100WATRL000000004K00000000000004309001407272015094238N000000000040U84       000210400K 10000000010000004289           
CUS0851610000108392949007         ADDISON TYRONE,JR   2022 PUTNAM RD                          000N        CARE OF             
MTR08516100001000000000000000RA              38983015    005800200000002000000520000003NN  NNW 000                       N    
RDG08516100WATRL000000004K00000000000003653001507272015094251N000000000030U84       000130400K 10000000010000003633           
CUS0851610000108392950005         SIMS RINA N         2024 PUTNAM RD                          000N        CARE OF             
MTR08516100001000000000000000RA              38983014    005800210000002100000520000003NN  NNW 000                       N    
RDG08516100WATRL000000004K00000000000002668001607272015094301N000000000020U84       000100400K 10000000010000002653           
CUS0851610000108392987007         HOBAN THOMAS L      2026 PUTNAM RD                          000N        CARE OF             
MTR08516100001000000000000000RA              01071568    005800220000002200000610000003NN  NNW 000                       N    
RDG08516100WATRL000000004K00000000000001797001707272015094324N000000000060U84       000230400K 10000000010000001768           
CUS0851610000108392986009         MELLON JAMES E,JR   2028 PUTNAM RD                          000N        CARE OF             
MTR08516100001000000000000000RA              38983501    005800230000002300000520000003NN  NNW 000                       N    
RDG08516100WATRL000000004K00000000000002713001807272015101032N000000000000U84       016280400K 10000000010000002706           
CUS0851610000108392985001         ANIKAS VINCENT J,JR 2030 PUTNAM RD                          000N        CARE OF             
MTR08516100001000000000000000RA              52285228    005800240000002400000520000003NN  NNW 000                       N    
RDG08516100WATRL000000004K00000000000001598001907272015101035N000000000000U84       000030400K 10000000010000001591           
CUS0851610000108392982008         NOBLE ROBERT L      2032 PUTNAM RD                          000N        CARE OF             
MTR08516100001000000000000000RA              14916596    005800250000002500000310000003NN  NNW 000                       N    
RDG08516100WATRL000000004K00000000000000798002007272015101039N000000000000U84       000040400K 10000000010000000792           
CUS0851610000108392983006         LALL PURUSHOTTAM    2034 PUTNAM RD                          000N        CARE OF             
MTR08516100001000000000000000RA              38983040    005800260000002600000520000003NN  NNW 000                       N    
RDG08516100WATRL000000004K00000000000002017002107272015101042N000000000000U84       000030400K 10000000010000002012           
CUS0851610000108392984004         LABBATE ANTHONY W   2036 PUTNAM RD                          000N        CARE OF             
MTR08516100001000000000000000RA              44090196    005800270000002700000520000003NN  NNW 000                       N    
RDG08516100WATRL000000004K00000000000003316002207272015101122N000000000030U84       000400400K 10000000010000003296           
CUS0851610000108392980002         RITTER JOHN W       2038 PUTNAM RD                          000N        CARE OF             
MTR08516100001000000000000000RA              38983016    005800280000002800000520000003NN  NNW 000                       N    
RDG08516100WATRL000000004K00000000000002091002307272015101304N000000000010U84       001020400K 10000000010000002081           
CUS0851610000108392979004         FOOR MARK A         2040 PUTNAM RD                          000N        CARE OF             
MTR08516100001000000000000000RA              48584452    005800290000002900000520000003NN  NNW 000                       N    
RDG08516100WATRL000000004K00000000000000446002407272015101318N000000000010U84       000140400K 10000000010000000431           
CUS0851610000108392981000         ZINCK LEONARD JOHN,J2042 PUTNAM RD                          000N        CARE OF             
MTR08516100001000000000000000RA              14925704    005800300000003000000310000003NN  NNW 000                       N    
RDG08516100WATRL000000004K00000000000001047002507272015101448N000000000060U84       000900400K 10000000010000001017           
CUS0851610000108392977008         HARCOURT CHRISTINE  2044 PUTNAM RD                          000N        CARE OF             
MTR08516100001000000000000000RA              76346153    005800310000003100000350000003NN  NNW 000                       N    
RDG08516100WATRL000000004K00000000000000135002607272015101509N000000000060U84       000210400K 10000000010000000120           
CUS0851610000108392976000         SNELL BRIAN P       2046 PUTNAM RD                          000N        CARE OF             
MTR08516100001000000000000000RA              99290756    005800320000003200000570000003NN  NNW 000                       N    
RDG08516100WATRL000000004K00000000000001297002707272015101514N000000000010U84       000050400K 10000000010000001287           
CUS0851610000108392978006         MIRABELLO WILLIAM C,2048 PUTNAM RD                          000N        CARE OF             
MTR08516100001000000000000000RA              99290888    005800330000003300000570000003NN  NNW 000                       N    
RDG08516100WATRL000000004K00000000000001497002807272015101520N000000000010U84       000060400K 10000000010000001487           
CUS0851610000108428443009         CHAPMAN KENNETH J   2050 PUTNAM RD                          000N        CARE OF             
MTR08516100001000000000000000RA              99286198    005800340000003400000570000003NN  NNW 000                       N    
RDG08516100WATRL000000004K00000000000002061002907272015101529N000000000020U84       000090400K 10000000010000002046           
CUS0851610000108392975002         SMITH ROBERT ALBERT 2052 PUTNAM RD                          000N        CARE OF             
MTR08516100001000000000000000RA              38983982    005800350000003500000520000003NN  NNW 000                       N    
RDG08516100WATRL000000004K00000000000006666003007272015101557N000000000060U84       000280400K 10000000010000006636           
CUS0851610000108392974005         MARINELLI CONNIE R  2054 PUTNAM RD                          000N        CARE OF             
MTR08516100001000000000000000RA              38983980    005800360000003600000520000003NN  NNW 000                       N    
RDG08516100WATRL000000004K00000000000003467003107272015101619N000000000010U84       000220400K 10000000010000003457           
CUS0851610000108406380009         SHAW RALPH E        2071 PUTNAM RD                          000N        CARE OF             
MTR08516100001000000000000000RA              52287555    005800370000003700000520000000NN  NNW 000                       N    
RDG08516100WATRL000000004K00000000000001617003207272015101625N000000000010U84       000060400K 10000000010000001607           
CUS0851610000108392988005         SCHERER TIMOTHY     2067 PUTNAM RD                          000N        CARE OF             
MTR08516100001000000000000000RA              14901906    005800380000003800000310000003NN  NNW 000                       N    
RDG08516100WATRL000000004K00000000000000893003307272015101634N000000000030U84       000090400K 10000000010000000878           
CUS0851610000108392989003         KALPAXIS GEORGE E   2065 PUTNAM RD                          000N        CARE OF             
MTR08516100001000000000000000RA              46886523    005800390000003900000520000003NN  NNW 000                       N    
RDG08516100WATRL000000004K00000000000000319003407272015101729N000000000040U84       000550400K 10000000010000000319           
CUS0851610000108392990001         SCHERER JOHN C      2063 PUTNAM RD                          000N        CARE OF             
MTR08516100001000000000000000RA              46876235    005800400000004000000520000003NN  NNW 000                       N    
RDG08516100WATRL000000004K00000000000003007003507272015101814N000000000040U84       000450400K 10000000010000002987           
CUS0851610000108392991009         BRADSHAW LARA C     2061 PUTNAM RD                          000N        CARE OF             
MTR08516100001000000000000000RA              10017726    005800410000004100000570000003NN  NNW 000                       N    
RDG08516100WATRL000000004K00000000000000050003607272015101818N000000000000U84       000040400K 10000000010000000045           
CUS0851610000108392992007         WILLINGHAN MICHELE L2059 PUTNAM RD                          000N        CARE OF             
MTR08516100001000000000000000RA              00125469    005800420000004200000570000003NN  NNW 000                       N    
RDG08516100WATRL000000004K00000000000001594003707272015101823N000000000000U84       000050400K 10000000010000001589           
CUS0851610000108392993005         KNOERLEIN GEORGE C,32057 PUTNAM RD                          000N        CARE OF             
MTR08516100001000000000000000RA              00138645    005800430000004300000570000003NN  NNW 000                       N    
RDG08516100WATRL000000004K00000000000001250003807272015101842N000000000011U84       000090400K 10000000010000001240           
CUS0851610000108392994003         WEYANT CHARLES R    2055 PUTNAM RD                          000N        CARE OF             
MTR08516100001000000000000000RA              14917855    005800440000004400000310000003NN  NNW 000                       N    
RDG08516100WATRL000000004K00000000000000970003907272015101905N000000000070U84       000230400K 10000000010000000945           
CUS0851610000108392995000         HOLDREN WILLIAM R,3R2053 PUTNAM RD                          000N        CARE OF             
MTR08516100001000000000000000RA              41080749    005800450000004500000520000003NN  NNW 000                       N    
RDG08516100WATRL000000004K00000000000002216004007272015101924N000000000020U84       000190400K 10000000010000002206           
CUS0851610000108392996008         WINCHESTER CHRISTINE2051 PUTNAM RD                          000N        CARE OF             
MTR08516100001000000000000000RA              99288376    005800460000004600000570000003NN  NNW 000                       N    
RDG08516100WATRL000000004K00000000000001338004107272015101936N000000000030U84       000120400K 10000000010000001323           
CUS0851610000108392997006         MAZZATENTA PAMELA LY2049 PUTNAM RD                          000N        CARE OF             
MTR08516100001000000000000000RA              99388007    005800470000004700000570000003NN  NNW 000                       N    
RDG08516100WATRL000000004K00000000000000951004207272015101941N000000000010U84       000050400K 10000000010000000941           
CUS0851610000108392998004         ORR RICHARD TIMOTHY 2047 PUTNAM RD                          000N        CARE OF             
MTR08516100001000000000000000RA              00138254    005800480000004800000570000003NN  NNW 000                       N    
RDG08516100WATRL000000004K00000000000000342004307272015101944N000000000000U84       000030400K 10000000010000000337           
CUS0851610000108392999002         SCOTT SANGKAVASI    2045 PUTNAM RD                          000N        CARE OF             
MTR08516100001000000000000000RA              76347318    005800490000004900000350000003NN  NNW 000                       N    
RDG08516100WATRL000000004K00000000000000034004407272015101947N000000000000U84       000030400K 10000000010000000029           
CUS0851610000108393000008         WHEELING MICHAEL C  2043 PUTNAM RD                          000N        CARE OF             
MTR08516100001000000000000000RA              14902378    005800500000005000000310000003NN  NNW 000                       N    
RDG08516100WATRL000000004K00000000000000668004507272015101956N000000000020U84       000090400K 10000000010000000658           
CUS0851610000108393001006         OMOROGBE AND ASSOC L2041 PUTNAM RD                          000N        CARE OF             
MTR08516100001000000000000000RA              41080755    005800510000005100000520000003NN  NNW 000                       N    
RDG08516100WATRL000000004K00000000000002265004607272015102006N000000000030U84       000100400K 10000000010000002250           
CUS0851610000108393002004         TRAVIS J MARQUESS   2039 PUTNAM RD                          000N        CARE OF             
MTR08516100001000000000000000RA              99287836    005800520000005200000570000003NN  NNW 000                       N    
RDG08516100WATRL000000004K00000000000001291004707272015102018N000000000020U84       000120400K 10000000010000001276           
CUS0851610000108393003002         MCNAMEE DALE R      2037 PUTNAM RD                          000N        CARE OF             
MTR08516100001000000000000000RA              41080720    005800530000005300000520000003NN  NNW 000                       N    
RDG08516100WATRL000000004K00000000000001809004807272015102021N000000000000U84       000030400K 10000000010000001803           
CUS0851610000108392948009         SCHREIBER JOHN,JR   2035 PUTNAM RD                          000N        CARE OF             
MTR08516100001000000000000000RA              76348458    005800540000005400000350000003NN  NNW 000                       N    
RDG08516100WATRL000000004K00000000000000068004907272015102027N000000000010U84       000060400K 10000000010000000058           
CUS0851610000108392956002         MCCUE KIMBERLY A    2033 PUTNAM RD                          000N        CARE OF             
MTR08516100001000000000000000RA              14902380    005800550000005500000310000003NN  NNW 000                       N    
RDG08516100WATRL000000004K00000000000000832005007272015102045N000000000040U84       000180400K 10000000010000000812           
CUS0851610000108392958008         DIXON JACQUELINE A  2031 PUTNAM RD                          000N        CARE OF             
MTR08516100001000000000000000RA              01094720    005800560000005600000610000003NN  NNW 000                       N    
RDG08516100WATRL000000004K00000000000001574005107272015102111N000000000050U84       000260400K 10000000010000001554           
CUS0851610000108392959006         BOYER BRYAN KEITH   2029 PUTNAM RD                          000N        CARE OF             
MTR08516100001000000000000000RA              41086259    005800570000005700000520000003NN  NNW 000                       N    
RDG08516100WATRL000000004K00000000000000305005207272015102124N000000000010U84       000130400K 10000000010000000294           
CUS0851610000108392960004         LITTRELL JOHNATHAN P2027 PUTNAM RD                          000N        CARE OF             
MTR08516100001000000000000000RA              41086350    005800580000005800000520000003NN  NNW 000                       N    
RDG08516100WATRL000000004K00000000000002400005307272015102148N000000000050U84       000240400K 10000000010000002380           
CUS0851610000108392961002         PURDIE DEANGELO     2025 PUTNAM RD                          000N        CARE OF             
MTR08516100001000000000000000RA              01084254    005800590000005900000610000003NN  NNW 000                       N    
RDG08516100WATRL000000004K00000000000000683005407272015102152N000000000010U84       000040400K 10000000010000000673           
CUS0851610000108392962000         SALIARD SHANNON S   2023 PUTNAM RD                          000N        CARE OF             
MTR08516100001000000000000000RA              01084946    005800600000006000000610000003NN  NNW 000                       N    
RDG08516100WATRL000000004K00000000000001111005507272015102202N000000000020U84       000100400K 10000000010000001095           
CUS0851610000108392963008         LOUDERMILK BROOKE N 2021 PUTNAM RD                          000N        CARE OF             
MTR08516100001000000000000000RA              14903767    005800610000006100000310000003NN  NNW 000                       N    
RDG08516100WATRL000000004K00000000000000727005607272015102209N000000000010U84       000070400K 10000000010000000717           
CUS0851610000108392972009         ARCA PATRICE F      2019 PUTNAM RD                          000N        CARE OF             
MTR08516100001000000000000000RA              14903715    005800620000006200000310000003NN  NNW 000                       N    
RDG08516100WATRL000000004K00000000000000927005707272015102218N000000000020U84       000090400K 10000000010000000912           
CUS0851610000108392964006         KIM CLARA           2017 PUTNAM RD                          000N        CARE OF             
MTR08516100001000000000000000RA              01084266    005800630000006300000610000003NN  NNW 000                       N    
RDG08516100WATRL000000004K00000000000001611005807272015102558N000000000030U84       002200400K 10000000010000001581           
CUS0851610000108392965003         LEICH MATTHEW R     2015 PUTNAM RD                          000N        CARE OF             
MTR08516100001000000000000000RA              01084941    005800640000006400000610000003NN  NNW 000                       N    
RDG08516100WATRL000000004K00000000000001202005907272015102604N000000000010U84       000060400K 10000000010000001190           
CUS0851610000108392966001         JUSTIN T. TAVARES   2013 PUTNAM RD                          000N        CARE OF             
MTR08516100001000000000000000RA              42808593    005800650000006500000520000003NN  NNW 000                       N    
RDG08516100WATRL000000004K00000000000002257006007272015102608N000000000000U84       000040400K 10000000010000002252           
CUS0851610000108392973007         RIGAUD GERALDINE    2011 PUTNAM RD                          000N        CARE OF             
MTR08516100001000000000000000RA              42808623    005800660000006600000520000003NN  NNW 000                       N    
RDG08516100WATRL000000004K00000000000003013006107272015102620N000000000010U84       000120400K 10000000010000002998           
CUS0851610000108392967009         SCHLEUPNER ROBERT   2009 PUTNAM RD                          000N        CARE OF             
MTR08516100001000000000000000RA              76346528    005800670000006700000350000003NN  NNW 000                       N    
RDG08516100WATRL000000004K00000000000000074006207272015102626N000000000010U84       000060400K 10000000010000000064           
CUS0851610000108392969005         RAMOS JOSE A        2007 PUTNAM RD                          000N        CARE OF             
MTR08516100001000000000000000RA              48584458    005800680000006800000520000003NN  NNW 000                       N    
RDG08516100WATRL000000004K00000000000002447006307272015102635N000000000020U84       000090400K 10000000010000002432           
CUS0851610000108392968007         UK HLUNN            2005 PUTNAM RD                          000N        CARE OF             
MTR08516100001000000000000000RA              39923343    005800690000006900000520000003NN  NNW 000                       N    
RDG08516100WATRL000000004K00000000000002960006407272015102658N000000000050U84       000230400K 10000000010000002935           
CUS0851610000108392970003         FLURIE JEAN M       2003 PUTNAM RD                          000N        CARE OF             
MTR08516100001000000000000000RA              39924277    005800700000007000000520000003NN  NNW 000                       N    
RDG08516100WATRL000000004K00000000000002161006507272015102707N000000000020U84       000090400K 10000000010000002146           
CUS0851610000108392971001         SMITH JEFFERY A     2018 MONUMENTAL RD                      000N        CARE OF             
MTR08516100001000000000000000RA              14925647    005800710000007100000310000003NN  NNW 000                       N    
RDG08516100WATRL000000004K00000000000000782001807252015133417N000000000020N84       000420400K 10000000010000000767           
CUS0851610000108393508000         MINNICK GLEN R      2020 MONUMENTAL RD                      000N        CARE OF             
MTR08516100001000000000000000RA              00133430    005800720000007200000570000003NN  NNW 000                       N    
RDG08516100WATRL000000004K00000000000001726001907252015133425N000000000020N84       000080400K 10000000010000001711           
CUS0851610000108407007007         SNYDER BONNIE L     2030 MONUMENTAL RD                      000N        CARE OF             
MTR08516100001000000000000000RA              10017960    005800730000007300000570000003NN  NNW 000                       N    
RDG08516100WATRL000000004K00000000000000290002007252015133441N000000000010N84       000160400K 10000000010000000280           
CUS0851610000108407008005         SZUGAJ DAVID R,JR   2032 MONUMENTAL RD                      000N        CARE OF             
MTR08516100001000000000000000RA              46879775    005800740000007400000520000003NN  NNW 000                       N    
RDG08516100WATRL000000004K00000000000001237002107252015134115N000000000010N84       003940400K 10000000010000001227           
CUS0851610000108407009003         GREEN DOUGLAS A     2034 MONUMENTAL RD                      000N        CARE OF             
MTR08516100001000000000000000RA              14909515    005800750000007500000310000003NN  NNW 000                       N    
RDG08516100WATRL000000004K00000000000000505002207252015134130N000000000010N84       000150400K 10000000010000000495           
CUS0851610000108407010001         GALVIN ROBERT A     4200 SPRING AVE                         000N        CARE OF             
MTR08516100001000000000000000RA              46883028    005800760000007600000520000003NN  NNW 000                       N    
RDG08516100WATRL000000004K00000000000002590006607272015102721N000000000040U84       000140400K 10000000010000002570           
CUS0851610000108407036006         BOWIE DAVID A       4202 SPRING AVE                         000N        CARE OF             
MTR08516100001000000000000000RA              46888665    005800770000007700000520000003NN  NNW 000                       N    
RDG08516100WATRL000000004K00000000000002233006707272015102728N000000000010U84       000070400K 10000000010000002223           
CUS0851610000108407035008         DAWSON TIMOTHY W    4204 SPRING AVE                         000N        CARE OF             
MTR08516100001000000000000000RA              46880328    005800780000007800000520000003NN  NNW 000                       N    
RDG08516100WATRL000000004K00000000000001365006807272015102733N000000000010U84       000050400K 10000000010000001355           
CUS0851610000108407034001         LOPENA MARCO C      4206 SPRING AVE                         000N        CARE OF             
MTR08516100001000000000000000RA              14913003    005800790000007900000310000003NN  NNW 000                       N    
RDG08516100WATRL000000004K00000000000001225006907272015102749N000000000040U84       000160400K 10000000010000001205           
CUS0851610000108407033003         BOYD WALDA ELAINE   4208 SPRING AVE                         000N        CARE OF             
MTR08516100001000000000000000RA              45384376    005800800000008000000520000003NN  NNW 000                       N    
RDG08516100WATRL000000004K00000000000002420007007272015102753N000000000000U84       000040400K 10000000010000002415           
CUS0851610000108407032005         KIM SUNG JIN        4210 SPRING AVE                         000N        CARE OF             
MTR08516100001000000000000000RA              33733770    005800810000008100000520000003NN  NNW 000                       N    
RDG08516100WATRL000000004K00000000000003294007107272015102814N000000000060U84       000210400K 10000000010000003274           
CUS0851610000108407031007         BRYANT CLARENCE     4212 SPRING AVE                         000N        CARE OF             
MTR08516100001000000000000000RA              44176686    005800820000008200000520000003NN  NNW 000                       N    
RDG08516100WATRL000000004K00000000000002909007207272015102823N000000000010U84       000090400K 10000000010000002896           
CUS0851610000108407030009         SALOKA EDWARD J     4214 SPRING AVE                         000N        CARE OF             
MTR08516100001000000000000000RA              01094722    005800830000008300000610000003NN  NNW 000                       N    
RDG08516100WATRL000000004K00000000000000826007307272015102832N000000000020U84       000090400K 10000000010000000811           
CUS0851610000108407029001         WINCHESTER DANIEL G 4216 SPRING AVE                         000N        CARE OF             
MTR08516100001000000000000000RA              46882295    005800840000008400000520000003NN  NNW 000                       N    
RDG08516100WATRL000000004K00000000000002603007407272015102843N000000000020U84       000110400K 10000000010000002589           
CUS0851610000108407028003         SCOTT LYNN M        4218 SPRING AVE                         000N        CARE OF             
MTR08516100001000000000000000RA              44172428    005800850000008500000520000003NN  NNW 000                       N    
RDG08516100WATRL000000004K00000000000002355007507272015102851N000000000020U84       000080400K 10000000010000002340           
CUS0851610000108407027005         MCPHERSON JERRY EMAN4220 SPRING AVE                         000N        CARE OF             
MTR08516100001000000000000000RA              44173061    005800860000008600000520000003NN  NNW 000                       N    
RDG08516100WATRL000000004K00000000000002076007607272015102901N000000000030U84       000100400K 10000000010000002061           
CUS0851610000108406964000         WARD MARY ANGELINE  4222 SPRING AVE                         000N        CARE OF             
MTR08516100001000000000000000RA              44172229    005800870000008700000520000003NN  NNW 000                       N    
RDG08516100WATRL000000004K00000000000003276007707272015102909N000000000020U84       000080400K 10000000010000003261           
CUS0851610000108406965007         KUSIA DERRICK       4224 SPRING AVE                         000N        CARE OF             
MTR08516100001000000000000000RA              44172219    005800880000008800000520000003NN  NNW 000                       N    
RDG08516100WATRL000000004K00000000000002809007807272015103452N000000000030U84       003430400K 10000000010000002789           
CUS0851610000108407026007         CHANNELL RONALD     4300 SPRING AVE                         000N        CARE OF             
MTR08516100001000000000000000RA              00135045    005800890000008900000570000003NN  NNW 000                       N    
RDG08516100WATRL000000004K00000000000001024007907272015103457N000000000010U84       000050400K 10000000010000001014           
CUS0851610000108406966005         CUSTER BRUCE H      4302 SPRING AVE                         000N        CARE OF             
MTR08516100001000000000000000RA              44172067    005800900000009000000520000003NN  NNW 000                       N    
RDG08516100WATRL000000004K00000000000002389008007272015103503N000000000010U84       000060400K 10000000010000002379           
CUS0851610000108407025009         SEAY KEVIN P        4304 SPRING AVE                         000N        CARE OF             
MTR08516100001000000000000000RA              44172544    005800910000009100000520000003NN  NNW 000                       N    
RDG08516100WATRL000000004K00000000000002869008107272015103508N000000000010U84       000050400K 10000000010000002859           
CUS0851610000108407024002         FRANKLIN GWENDOLYN  4306 SPRING AVE                         000N        CARE OF             
MTR08516100001000000000000000RA              44173742    005800920000009200000520000003NN  NNW 000                       N    
RDG08516100WATRL000000004K00000000000001879008207272015103511N000000000000U84       000030400K 10000000010000001872           
CUS0851610000108406967003         ULFRAS G FLOYD      4308 SPRING AVE                         000N        CARE OF             
MTR08516100001000000000000000RA              44172245    005800930000009300000520000003NN  NNW 000                       N    
RDG08516100WATRL000000004K00000000000001989008307272015103516N000000000000U84       000050400K 10000000010000001982           
CUS0851610000108407023004         LINDA M FERGUSON    4310 SPRING AVE                         000N        CARE OF             
MTR08516100001000000000000000RA              36689139    005800940000009400000520000003NN  NNW 000                       N    
RDG08516100WATRL000000004K00000000000004510008407272015103550N000000000000U84       000340400K 10000000010000004499           
CUS0851610000108407460008         JANSEN MICHAEL J    4312 SPRING AVE                         000N        CARE OF             
MTR08516100001000000000000000RA              44175034    005800950000009500000520000003NN  NNW 000                       N    
RDG08516100WATRL000000004K00000000000002332008507272015103553N000000000000U84       000030400K 10000000010000002327           
CUS0851610000108407461006         KISKIS TIMOTHY J    4314 SPRING AVE                         000N        CARE OF             
MTR08516100001000000000000000RA              44175271    005800960000009600000520000003NN  NNW 000                       N    
RDG08516100WATRL000000004K00000000000002473008607272015103605N000000000030U84       000120400K 10000000010000002453           
CUS0851610000108407462004         GENTRY RALPH E      4316 SPRING AVE                         000N        CARE OF             
MTR08516100001000000000000000RA              44175274    005800970000009700000520000003NN  NNW 000                       N    
RDG08516100WATRL000000004K00000000000001176008707272015103612N000000000020U84       000070400K 10000000010000001161           
CUS0851610000108407468001         STOLTE ROBERT J     4327 SPRING AVE                         000N        CARE OF             
MTR08516100001000000000000000RA              46880330    005800980000009800000520000003NN  NNW 000                       N    
RDG08516100WATRL000000004K00000000000001506008807272015103616N000000000000U84       000040400K 10000000010000001495           
CUS0851610000108407467003         SPURGEON BRENT A    4325 SPRING AVE                         000N        CARE OF             
MTR08516100001000000000000000RA              44175072    005800990000009900000520000003NN  NNW 000                       N    
RDG08516100WATRL000000004K00000000000002518008907272015103647N000000000050U84       000310400K 10000000010000002492           
CUS0851610000108407466005         FILIPIAK JOHN A     4323 SPRING AVE                         000N        CARE OF             
MTR08516100001000000000000000RA              44174933    005801000000010000000520000003NN  NNW 000                       N    
RDG08516100WATRL000000004K00000000000002354009007272015103652N000000000010U84       000050400K 10000000010000002344           
CUS0851610000108407465007         LIBERTO JOSEPH S    4321 SPRING AVE                         000N        CARE OF             
MTR08516100001000000000000000RA              44175017    005801010000010100000520000003NN  NNW 000                       N    
RDG08516100WATRL000000004K00000000000001616009107272015103657N000000000010U84       000050400K 10000000010000001606           
CUS0851610000108407464000         RATTELL ROBERT P    4319 SPRING AVE                         000N        CARE OF             
MTR08516100001000000000000000RA              48588253    005801020000010200000520000003NN  NNW 000                       N    
RDG08516100WATRL000000004K00000000000002564009207272015103704N000000000010U84       000070400K 10000000010000002554           
CUS0851610000108407463002         DALANGIN ROMEO  DALA4317 SPRING AVE                         000N        CARE OF             
MTR08516100001000000000000000RA              44175057    005801030000010300000520000003NN  NNW 000                       N    
RDG08516100WATRL000000004K00000000000003779009307272015103717N000000000030U84       000130400K 10000000010000003759           
CUS0851610000108407022006         ODENSOS GEORGE W    4315 SPRING AVE                         000N        CARE OF             
MTR08516100001000000000000000RA              45377392    005801040000010400000520000003NN  NNW 000                       N    
RDG08516100WATRL000000004K00000000000003475009407272015103725N000000000020U84       000080400K 10000000010000003460           
CUS0851610000108407021008         GOSS DEBRA M        4313 SPRING AVE                         000N        CARE OF             
MTR08516100001000000000000000RA              46877519    005801050000010500000520000003NN  NNW 000                       N    
RDG08516100WATRL000000004K00000000000001626009507272015103732N000000000010U84       000070400K 10000000010000001616           
CUS0851610000108407020000         GARTSIDE GREGORY A,S4311 SPRING AVE                         000N        CARE OF             
MTR08516100001000000000000000RA              44173088    005801060000010600000520000003NN  NNW 000                       N    
RDG08516100WATRL000000004K00000000000002691009607272015103802N000000000040U84       000300400K 10000000010000002674           
CUS0851610000108407019002         CESENARO MICHAEL A  4309 SPRING AVE                         000N        CARE OF             
MTR08516100001000000000000000RA              14925898    005801070000010700000310000003NN  NNW 000                       N    
RDG08516100WATRL000000004K00000000000000962009707272015103811N000000000020U84       000090400K 10000000010000000952           
CUS0851610000108407018004         BATES DEBORAH R     4307 SPRING AVE                         000N        CARE OF             
MTR08516100001000000000000000RA              45383082    005801080000010800000520000003NN  NNW 000                       N    
RDG08516100WATRL000000004K00000000000001362009807272015103928N000000000000U84       000770400K 10000000010000001352           
CUS0851610000108407017006         WILLIAM LYONS       4305 SPRING AVE                         000N        CARE OF             
MTR08516100001000000000000000RA              00135209    005801090000010900000570000003NN  NNW 000                       N    
RDG08516100WATRL000000004K00000000000001140009907272015103934N000000000020U84       000060400K 10000000010000001125           
CUS0851610000108407016008         WHITE PATRICIA A    4303 SPRING AVE                         000N        CARE OF             
MTR08516100001000000000000000RA              44173702    005801100000011000000520000003NN  NNW 000                       N    
RDG08516100WATRL000000004K00000000000002947010007272015103947N000000000030U84       000130400K 10000000010000002927           
CUS0851610000108407015000         UEBEL RICHARD C,JR  4301 SPRING AVE                         000N        CARE OF             
MTR08516100001000000000000000RA              46879089    005801110000011100000520000003NN  NNW 000                       N    
RDG08516100WATRL000000004K00000000000000781010107272015103949N000000000000U84       000020400K 10000000010000000776           
CUS0851610000108407042004         WALSTON ARTHUR LEE  4217 SPRING AVE                         000N        CARE OF             
MTR08516100001000000000000000RA              46879075    005801120000011200000520000003NN  NNW 000                       N    
RDG08516100WATRL000000004K00000000000001203010207272015103955N000000000010U84       000060400K 10000000010000001192           
CUS0851610000108407041006         KAREN M PRIESS      4215 SPRING AVE                         000N        CARE OF             
MTR08516100001000000000000000RA              44173707    005801130000011300000520000003NN  NNW 000                       N    
RDG08516100WATRL000000004K00000000000002281010307272015104041N000000000020U84       000460400K 10000000010000002267           
CUS0851610000108407040008         HERRING JEROME L    4213 SPRING AVE                         000N        CARE OF             
MTR08516100001000000000000000RA              44173744    005801140000011400000520000003NN  NNW 000                       N    
RDG08516100WATRL000000004K00000000000002931010407272015104045N000000000010U84       000040400K 10000000010000002921           
CUS0851610000108407039000         COLABELLA ROCCO     4211 SPRING AVE                         000N        CARE OF             
MTR08516100001000000000000000RA              44174932    005801150000011500000520000003NN  NNW 000                       N    
RDG08516100WATRL000000004K00000000000003530010507272015104052N000000000010U84       000070400K 10000000010000003520           
CUS0851610000108407038002         CROCKETT JEFFERY S  4209 SPRING AVE                         000N        CARE OF             
MTR08516100001000000000000000RA              10007084    005801160000011600000570000003NN  NNW 000                       N    
RDG08516100WATRL000000004K00000000000000458010607272015104059N000000000010U84       000070400K 10000000010000000448           
CUS0851610000108407037004         KIM DON HYEON       4207 SPRING AVE                         000N        CARE OF             
MTR08516100001000000000000000RA              32904712    005801170000011700000520000003NN  NNW 000                       N    
RDG08516100WATRL000000004K00000000000003666010707272015104107N000000000020U84       000080400K 10000000010000003651           
CUS0851610000108406969009         PHAN OANH THI       4205 SPRING AVE                         000N        CARE OF             
MTR08516100001000000000000000RA              44172232    005801180000011800000520000003NN  NNW 000                       N    
RDG08516100WATRL000000004K00000000000003023010807272015104206N000000000090U84       000590400K 10000000010000002988           
CUS0851610000108406968001         GRIEVE DENIS R      4203 SPRING AVE                         000N        CARE OF             
MTR08516100001000000000000000RA              44072250    005801190000011900000520000003NN  NNW 000                       N    
RDG08516100WATRL000000004K00000000000004208010907272015104216N000000000020U84       000100400K 10000000010000004192           
CUS0851610000108007153003         GRIEVE DENIS R      4201 SPRING AVE                         000N        CARE OF             
MTR08516100001000000000000000RA              99293314    005801200000012000000570000003NN  NNW 000                       N    
RDG08516100WATRL000000004K00000000000001304011007272015104223N000000000010U84       000070400K 10000000010000001294           
CUS0851610000108007161006         MORRIS BUD J        1915 MONUMENTAL RD                      000N        CARE OF             
MTR08516100001000000000000000RA              26003888    005801210000012100000520000003NN  NNW 000                       N    
RDG08516100WATRL000000004K00000000000002328000507252015123939N000000000000N84       000410400K 10000000010000002320           
CUS0851610000108007162004         NEWBERGER FREDERICK 1911 MONUMENTAL RD                      000N        CARE OF             
MTR08516100001000000000000000RA              99290752    005801220000012200000570000003NN  NNW 000                       N    
RDG08516100WATRL000000004K00000000000000597000607252015124035N000000000010N84       000560400K 10000000010000000589           
CUS0851610000108007163002         HANSEN BRYAN        1909 MONUMENTAL RD                      000N        CARE OF             
MTR08516100001000000000000000RA              26005488    005801230000012300000520000003NN  NNW 000                       N    
RDG08516100WATRL000000004K00000000000004700000707252015124159N000000000000N84       000840400K 10000000010000004676           
CUS0851610000108381901001         HAYDEN PATRICK T    1907 MONUMENTAL RD                      000N        CARE OF             
MTR08516100001000000000000000RA              35099801    005801240000012400000520000003NN  NNW 000                       N    
RDG08516100WATRL000000004K00000000000002175000807252015124242N000000000000N84       000430400K 10000000010000002162           
CUS0851610000108007165007         YOUNG HERBERT W     4127 OLD WASHINGTON BLVD                000N        CARE OF             
MTR08516100001000000000000000RA              14906393    005801250000012500000310000003NN  NNW 000                       N    
RDG08516100WATRL000000004K00000000000000846002307252015134337N000000000010N84       001270400K 10000000010000000836           
CUS0851610000108007166005         DANIEL A LIVINGSTON 4125 OLD WASHINGTON RD                  000N        CARE OF             
MTR08516100001000000000000000RA              32903427    005801260000012600000520000003NN  NNW 000                       N    
RDG08516100WATRL000000004K00000000000001545002407252015134346N000000000020N84       000090400K 10000000010000001535           
CUS0851610000108007167003         6320 HOWARD LANE LLC4119 OLD WASHINGTON RD                  000N        CARE OF             
MTR08516100001000000000000000RA              39290172    005801270000012700000520000003NN  NNW 000                       N    
RDG08516100WATRL000000004K00000000000003044002507252015134405N000000000020N84       000190400K 10000000010000003029           
CUS0851610000108007168001         WAGNER CHARLES J    4117 OLD WASHINGTON RD                  000N        CARE OF             
MTR08516100001000000000000000RA              27832144    005801280000012800000520000003NN  NNW 000                       N    
RDG08516100WATRL000000004K00000000000005464002607252015134412N000000000010N84       000070400K 10000000010000005454           
CUS0851610000108007171005         MUNION JACQUELINE A 4113 OLD WASHINGTON BLVD                000N        CARE OF             
MTR08516100001000000000000000RA              48590295    005801290000012900000520000003NN  NNW 000                       N    
RDG08516100WATRL000000004K00000000000001040002707252015134419N000000000010N84       000070400K 10000000010000001030           
CUS0851610000108422301005         DIXON DONALD L      4109 OLD WASHINGTON BLVD                000N        CARE OF             
MTR08516100001000000000000000RA              00135046    005801300000013000000570000003NN  NNW 000                       N    
RDG08516100WATRL000000004K00000000000001423002807252015134434N000000000020N84       000150400K 10000000010000001408           
CUS0851610000108007172003         SKI INVESTMENTS, LLC1916 GRANT AVE                          000N        CARE OF             
MTR08516100001000000000000000RA              45379437    005801310000013100000520000003NN  NNW 000                       N    
RDG08516100WATRL000000004K00000000000001197002907252015134441N000000000000N84       000070400K 10000000010000001192           
CUS0851610000108347487004         WILLIAMS DENNIS F   1920 GRANT AVE                          000N        CARE OF             
MTR08516100001000000000000000RA              48594432    005801320000013200000520000003NN  NNW 000                       N    
RDG08516100WATRL000000004K00000000000003954003007252015134534N000000000090N84       000530400K 10000000010000003914           
CUS0851610000108347489000         JOSE AVELINA  WARD M1924 GRANT AVE                          000N        CARE OF             
MTR08516100001000000000000000RA              29686074    005801330000013300000520000003NN  NNW 000                       N    
RDG08516100WATRL000000004K00000000000005189003107252015134557N000000000040N84       000230400K 10000000010000005169           
CUS0851610000108347495007         GILLIAN CHARLES C   1937 GRANT AVE                          000N        CARE OF             
MTR08516100001000000000000000RA              99290884    005801340000013400000570000003NN  NNW 000                       N    
RDG08516100WATRL000000004K00000000000001857003207252015134606N000000000020N84       000090400K 10000000010000001842           
CUS0851610000108347494000         MATTHEW LOTTES      1935 GRANT AVE                          000N        CARE OF             
MTR08516100001000000000000000RA              14929025    005801350000013500000310000003NN  NNW 000                       N    
RDG08516100WATRL000000004K00000000000000450003307252015134614N000000000010N84       000080400K 10000000010000000440           
CUS0851610000108352761004         REEVES ROLAND R     1933 GRANT AVE                          000N        CARE OF             
MTR08516100001000000000000000RA              48588519    005801360000013600000520000003NN  NNW 000                       N    
RDG08516100WATRL000000004K00000000000001794003407252015134718N000000000020N84       000640400K 10000000010000001779           
CUS0851610000108352902004         MERCER THERESA C    1931 GRANT AVE                          000N        CARE OF             
MTR08516100001000000000000000RA              29082236    005801370000013700000520000003NN  NNW 000                       N    
RDG08516100WATRL000000004K00000000000002997003507252015134727N000000000020N84       000090400K 10000000010000002982           
CUS0851610000108352760006         BRIANNA L. VANDINE  1929 GRANT RD                           000N        CARE OF             
MTR08516100001000000000000000RA              27829633    005801380000013800000520000003NN  NNW 000                       N    
RDG08516100WATRL000000004K00000000000004540003607252015134733N000000000010N84       000060400K 10000000010000004530           
CUS0851610000108347493002         NITSCH JOSEPH C     1927 GRANT AVE                          000N        CARE OF             
MTR08516100001000000000000000RA              27820919    005801390000013900000520000003NN  NNW 000                       N    
RDG08516100WATRL000000004K00000000000003391003707252015134744N000000000020N84       000110400K 10000000010000003376           
CUS0851610000108347492004         TIPPETT THOMAS A    1925 GRANT AVE                          000N        CARE OF             
MTR08516100001000000000000000RA              27820608    005801400000014000000520000003NN  NNW 000                       N    
RDG08516100WATRL000000004K00000000000003240003807252015134754N000000000010N84       000100400K 10000000010000003230           
CUS0851610000108347491006         HAWK GEORGE R       1923 GRANT AVE                          000N        CARE OF             
MTR08516100001000000000000000RA              29082288    005801410000014100000520000003NN  NNW 000                       N    
RDG08516100WATRL000000004K00000000000002611003907252015134757N000000000000N84       000030400K 10000000010000002606           
CUS0851610000108351115004         SCHMIDT JAMES M     1921 GRANT AVE                          000N        CARE OF             
MTR08516100001000000000000000RA              27826187    005801420000014200000520000003NN  NNW 000                       N    
RDG08516100WATRL000000004K00000000000004119004007252015134805N000000000010N84       000080400K 10000000010000004109           
CUS0851610000108347488002         ROWE HARLESS J      1919 GRANT AVE                          000N        CARE OF             
MTR08516100001000000000000000RA              27820165    005801430000014300000520000003NN  NNW 000                       N    
RDG08516100WATRL000000004K00000000000003772004107252015134915N000000000020N84       000700400K 10000000010000003772           
CUS0851610000108347490008         BROWN LEROY K       1917 GRANT AVE                          000N        CARE OF             
MTR08516100001000000000000000RA              27821841    005801440000014400000520000003NN  NNW 000                       N    
RDG08516100WATRL000000004K00000000000002860004207252015134937N000000000010N84       000220400K 10000000010000002850           
CUS0851610000108007173001         PIELERT ERAN        4111 OLD WASHINGTON RD                  000N        CARE OF             
MTR08516100001000000000000000RA              99291016    005801450000014500000570000003NN  NNW 000                       N    
RDG08516100WATRL000000004K00000000000001821004307252015141251N000000000090N84       013940400K 10000000010000001791           
CUS0851610000108007174009         BROWN RICHARD P     4105 OLD WASHINGTON BLVD                000N        CARE OF             
MTR08516100001000000000000000RA              10023292    005801460000014600000570000003NN  NNW 000                       N    
RDG08516100WATRL000000004K00000000000000129004407252015141254N000000000000N84       000030400K 10000000010000000124           
CUS0851610000108007175006         WECKESSER ROBERT W  4101 OLD WASHINGTON RD                  000N        CARE OF             
MTR08516100001000000000000000RA              35114909    005801470000014700000520000003NN  NNW 000                       N    
RDG08516100WATRL000000004K00000000000002134004507252015141302N000000000010N84       000080400K 10000000010000002124           
CUS0851610000108007176004         BAKER THOMAS D,4TH  1918 LINCOLN AVE                        000N        CARE OF             
MTR08516100001000000000000000RA              99387434    005801480000014800000570000003NN  NNW 000                       N    
RDG08516100WATRL000000004K00000000000000795004607252015141313N000000000010N84       000110400K 10000000010000000785           
CUS0851610000108422710007         BARRASS JOHN E,2ND  1920 LINCOLN AVE                        000N        CARE OF             
MTR08516100001000000000000000RA              50787196    005801490000014900000520000003NN  NNW 000                       N    
RDG08516100WATRL000000004K00000000000001292004707252015141319N000000000010N84       000060400K 10000000010000001282           
CUS0851610000108348807002         POWELL NICOLAS C    1922 LINCOLN AVE                        000N        CARE OF             
MTR08516100001000000000000000RA              30514967    005801500000015000000520000003NN  NNW 000                       N    
RDG08516100WATRL000000004K00000000000003401004807252015141408N000000000020N84       000490400K 10000000010000003386           
CUS0851610000108352644002         ARBELADA JOHN R     1924 LINCOLN AVE                        000N        CARE OF             
MTR08516100001000000000000000RA              27832881    005801510000015100000520000003NN  NNW 000                       N    
RDG08516100WATRL000000004K00000000000001438004907252015141412N000000000000N84       000040400K 10000000010000001433           
CUS0851610000108356910003         AUSTIN KIMBERLY CARO1926 LINCOLN AVE                        000N        CARE OF             
MTR08516100001000000000000000RA              32771177    005801520000015200000520000003NN  NNW 000                       N    
RDG08516100WATRL000000004K00000000000003382005007252015141425N000000000020N84       000130400K 10000000010000003367           
CUS0851610000108007187001         PARR LOWELL FRANKLIN1928 LINCOLN AVE                        000N        CARE OF             
MTR08516100001000000000000000RA              2614214     005801530000015300000520000003NN  NNW 000                       N    
RDG08516100WATRL000000004K00000000000002414005107252015141432N000000000010N84       000070400K 10000000010000002404           
CUS0851610000108007188009         JONES JOHN T,2ND    1932 LINCOLN AVE                        000N        CARE OF             
MTR08516100001000000000000000RA              48590292    005801540000015400000520000003NN  NNW 000                       N    
RDG08516100WATRL000000004K00000000000004183005207252015141440N000000000010N84       000080400K 10000000010000004173           
CUS0851610000108007177002         HOOD PAUL D,JR      2001 MONUMENTAL RD                      000N        CARE OF             
MTR08516100001000000000000000RA              00135048    005801550000015500000570000003NN  NNW 000                       N    
RDG08516100WATRL000000004K00000000000001202005307252015141452N000000000010N84       000120400K 10000000010000001192           
CUS0851610000108007178000         KRAMER MICHAEL D    1939 LINCOLN AVE                        000N        CARE OF             
MTR08516100001000000000000000RA              26018277    005801560000015600000520000003NN  NNW 000                       N    
RDG08516100WATRL000000004K00000000000005031005407252015141504N000000000020N84       000120400K 10000000010000005016           
CUS0851610000108007179008         MCHALE WILLIAM      1935 LINCOLN AVE                        000N        CARE OF             
MTR08516100001000000000000000RA              32899938    005801570000015700000520000003NN  NNW 000                       N    
RDG08516100WATRL000000004K00000000000002544005507252015141509N000000000000N84       000050400K 10000000010000002539           
CUS0851610000108007180006         LUPTON GREGORY      1933 LINCOLN AVE                        000N        CARE OF             
MTR08516100001000000000000000RA              00137815    005801580000015800000570000003NN  NNW 000                       N    
RDG08516100WATRL000000004K00000000000001175005607252015141517N000000000010N84       000080400K 10000000010000001165           
CUS0851610000108007181004         WHITAKER GWENDOLYN E1931 LINCOLN AVE                        000N        CARE OF             
MTR08516100001000000000000000RA              27817574    005801590000015900000520000003NN  NNW 000                       N    
RDG08516100WATRL000000004K00000000000003052005707252015141537N000000000040N84       000200400K 10000000010000003032           
CUS0851610000108007182002         TROTT HARRY DAVID   1925 LINCOLN AVE                        000N        CARE OF             
MTR08516100001000000000000000RA              01113592    005801600000016000000610000003NN  NNW 000                       N    
RDG08516100WATRL000000004K00000000000001221005807252015141607N000000000050N84       000300400K 10000000010000001197           
CUS0851610000108007170007         ZABKA JOHN          1923 LINCOLN AVE                        000N        CARE OF             
MTR08516100001000000000000000RA              26006475    005801610000016100000520000003NN  NNW 000                       N    
RDG08516100WATRL000000004K00000000000003452005907252015141614N000000000000N84       000070400K 10000000010000003447           
CUS0851610000108007183000         POOLE HUMPHREY W,JR 1921 LINCOLN AVE                        000N        CARE OF             
MTR08516100001000000000000000RA              27831401    005801620000016200000520000003NN  NNW 000                       N    
RDG08516100WATRL000000004K00000000000003502006007252015141646N000000000010N84       000320400K 10000000010000003485           
CUS0851610000108007184008         BOWLING ELIZABETH KI1919 LINCOLN AVE                        000N        CARE OF             
MTR08516100001000000000000000RA              26008350    005801630000016300000520000003NN  NNW 000                       N    
RDG08516100WATRL000000004K00000000000004735006107252015141703N000000000020N84       000170400K 10000000010000004720           
CUS0851610000108007185005         VONELLA JOSEPH A    1917 LINCOLN AVE                        000N        CARE OF             
MTR08516100001000000000000000RA              29686935    005801640000016400000520000003NN  NNW 000                       N    
RDG08516100WATRL000000004K00000000000001591006207252015141709N000000000010N84       000060400K 10000000010000001581           
CUS0851610000108007186003         WOJCIECHOWSKI MICHAE1915 LINCOLN AVE                        000N        CARE OF             
MTR08516100001000000000000000RA              14904822    005801650000016500000310000003NN  NNW 000                       N    
RDG08516100WATRL000000004K00000000000001617006307252015141727N000000000040N84       000180400K 10000000010000001617           
CUS0851610000108007189007         VONELLA JOSEPH A,JR 4019 OLD WASHINGTON RD                  000N        CARE OF             
MTR08516100001000000000000000RA              30524272    005801660000016600000520000003NN  NNW 000                       N    
RDG08516100WATRL000000004K00000000000003602006407252015141747N000000000030N84       000200400K 10000000010000003587           
CUS0851610000108007190005         VIOREL LESAN        4017 OLD WASHINGTON RD                  000N        CARE OF             
MTR08516100001000000000000000RA              30515054    005801670000016700000520000003NN  NNW 000                       N    
RDG08516100WATRL000000004K00000000000002784006507252015141804N000000000040N84       000170400K 10000000010000002784           
CUS0851610000108007191003         HURLEY EARL NOLAN   1920 BELL AVE                           000N        CARE OF             
MTR08516100001000000000000000RA              14902777    005801680000016800000310000003NN  NNW 000                       N    
RDG08516100WATRL000000004K00000000000000683011107272015104228N000000000010U84       000050400K 10000000010000000673           
CUS0851610000108397763007         HEATH SHIRLEY K HURL1922 BELL AVE                           000N        CARE OF             
MTR08516100001000000000000000RA              45382213    005801690000016900000520000003NN  NNW 000                       N    
RDG08516100WATRL000000004K00000000000001139011207272015104232N000000000000U84       000040400K 10000000010000001134           
CUS0851610000108007192001         EVANS WILLIAM H     1924 BELL AVE                           000N        CARE OF             
MTR08516100001000000000000000RA              14902697    005801700000017000000310000003NN  NNW 000                       N    
RDG08516100WATRL000000004K00000000000000292011307272015104257N000000000031U84       000170400K 10000000010000000292           
CUS0851610000108007193009         MARSHALL JOSEPH E   1926 BELL AVE                           000N        CARE OF             
MTR08516100001000000000000000RA              27831168    005801710000017100000520000003NN  NNW 000                       N    
RDG08516100WATRL000000004K00000000000002380011407272015104259N000000000000U84       000020400K 10000000010000002375           
CUS0851610000108007194007         FOX JOHN J          1928 BELL AVE                           000N        CARE OF             
MTR08516100001000000000000000RA              32771548    005801720000017200000520000003NN  NNW 000                       N    
RDG08516100WATRL000000004K00000000000002015011507272015104312N000000000010U84       000130400K 10000000010000001999           
CUS0851610000108007195004         VONELLA JOSEPH A    1930 BELL AVE                           000N        CARE OF             
MTR08516100001000000000000000RA              01077955    005801730000017300000610000003NN  NNW 000                       N    
RDG08516100WATRL000000004K00000000000000705011607272015104319N000000000010U84       000070400K 10000000010000000700           
CUS0851610000108007196002         PHILLIPS EARL C     1934 BELL AVE                           000N        CARE OF             
MTR08516100001000000000000000RA              52768065    005801740000017400000520000003NN  NNW 000                       N    
RDG08516100WATRL000000004K00000000000001629000807272015093859N000000000000U84       000790400K 10000000010000001619           
CUS0851610000108007197000         DELAWDER MICHELLE L 1936 BELL AVE                           000N        CARE OF             
MTR08516100001000000000000000RA              45382211    005801750000017500000520000003NN  NNW 000                       N    
RDG08516100WATRL000000004K00000000000001770011707272015104326N000000000010U84       000070400K 10000000010000001760           
CUS0851610000108413146005         BOYER MELVIN C,JR   1938 BELL AVE                           000N        CARE OF             
MTR08516100001000000000000000RA              46879457    005801760000017600000520000003NN  NNW 000                       N    
RDG08516100WATRL000000004K00000000000002937011807272015104425N000000000050U84       000590400K 10000000010000002917           
CUS0851610000108007198008         MARTZ SHARON M      1942 BELL AVE                           000N        CARE OF             
MTR08516100001000000000000000RA              14900524    005801770000017700000310000003NN  NNW 000                       N    
RDG08516100WATRL000000004K00000000000001006011907272015104434N000000000010U84       000090400K 10000000010000000996           
CUS0851610000108007199006         LEBON TIMOTHY L     1944 BELL AVE                           000N        CARE OF             
MTR08516100001000000000000000RA              41076652    005801780000017800000520000003NN  NNW 000                       N    
RDG08516100WATRL000000004K00000000000001025012007272015104439N000000000010U84       000050400K 10000000010000001015           
CUS0851610000108376475003         LEBON TIMOTHY L     1946 BELL AVE                           000N        CARE OF             
MTR08516100001000000000000000RA              21194841    005801790000017900000520000003NN  NNW 000                       N    
RDG08516100WATRL000000004K00000000000004018012107272015104451N000000000011U84       000080400K 10000000010000004008           
CUS0851610000108007200002         BRETT CONLON        1952 BELL AVE                           000N        CARE OF             
MTR08516100001000000000000000RA              44089391    005801800000018000000520000003NN  NNW 000                       N    
RDG08516100WATRL000000004K00000000000001735000107272015092303N000400000010U84       000000400K 10000000010000001732           
CUS0851610000108007201000         BELLE GROVE CORPORAT1954 BELL AVE                           000N        CARE OF             
MTR08516100001000000000000000RA              01085456    005801810000018100000610000003NN  NNW 000                       N    
RDG08516100WATRL000000004K00000000000000620000207272015092307N000000000000U84       000040400K 10000000010000000620           
CUS0851610000108007202008         OAK PARK HOLDINGS LL1956 BELL AVE                           000N        CARE OF             
MTR08516100001000000000000000RA              01073061    005801820000018200000610000003NN  NNW 000                       N    
RDG08516100WATRL000000004K00000000000000205000307272015092309N000000000000U84       000020400K 10000000010000000205           
CUS0851610000108007203006         ROBINSON TONIE      1958 BELL AVE                           000N        CARE OF             
MTR08516100001000000000000000RA              01077130    005801830000018300000610000003NN  NNW 000                       N    
RDG08516100WATRL000000004K00000000000000968012207272015104502N000000000010U84       000110400K 10000000010000000958           
CUS0851610000108393977007         WHITE JOHN T, SR    1958-A BELL AVE                         000N        CARE OF             
MTR08516100001000000000000000RA              76349128    005801840000018400000350000003NN  NNW 000                       N    
RDG08516100WATRL000000004K00000000000000087012307272015104508N000000000010U84       000060400K 10000000010000000077           
CUS0851610000108007205001         PROCTOR KENNETH R  P1962 BELL AVE                           000N        CARE OF             
MTR08516100001000000000000000RA              35109864    005801850000018500000520000003NN  NNW 000                       N    
RDG08516100WATRL000000004K00000000000002355012407272015104511N000000000000U84       000030400K 10000000010000002350           
CUS0851610000108007204004         FLOTO THOMAS EUGENE 1960 BELL AVE                           000N        CARE OF             
MTR08516100001000000000000000RA              14907023    005801860000018600000310000003NN  NNW 000                       N    
RDG08516100WATRL000000004K00000000000000243012507272015104517N000000000000U84       000060400K 10000000010000000238           
CUS0851610000108396723002         FLOTO THOMAS EUGENE 1959 BELL AVE                           000N        CARE OF             
MTR08516100001000000000000000RA              77877813    005801870000018700000360000003NN  NNW 000                       N    
RDG08516100WATRL000000004K00000000000000022000507272015093035N000000000010U84       003530400K 10000000010000000000           
CUS0851610000108007206009         CUMMINGS THELMA DOLO1957 BELL AVE                           000N        CARE OF             
MTR08516100001000000000000000RA              36694171    005801880000018800000520000003NN  NNW 000                       N    
RDG08516100WATRL000000004K00000000000003508012607272015104544N000000000040U84       000270400K 10000000010000003488           
CUS0851610000108409337006         KALER CHARLES L     1955 BELL AVE                           000N        CARE OF             
MTR08516100001000000000000000RA              45376222    005801890000018900000520000000NN  NNW 000                       N    
RDG08516100WATRL000000004K00000000000002510000407272015092442N000000000000U84       000930400K 10000000010000002496           
CUS0851610000108409271007         SULLIVAN ROSEMARY   1953 BELL AVE                           000N        CARE OF             
MTR08516100001000000000000000RA              10010613    005801900000019000000570000003NN  NNW 000                       N    
RDG08516100WATRL000000004K00000000000000353012707272015104553N000000000010U84       000090400K 10000000010000000343           
CUS0851610000108007207007         LEBON GEORGE M      1947 BELL AVE                           000N        CARE OF             
MTR08516100001000000000000000RA              01071564    005801910000019100000610000003NN  NNW 000                       N    
RDG08516100WATRL000000004K00000000000001721012807272015104611N000000000030U84       000180400K 10000000010000001695           
CUS0851610000108388708003         SCHREIBER JAMES L,JR1945-A BELL AVE                         000N        CARE OF             
MTR08516100001000000000000000RA              36687682    005801920000019200000520000003NN  NNW 000                       N    
RDG08516100WATRL000000004K00000000000007408012907272015104623N000000000030U84       000120400K 10000000010000007387           
CUS0851610000108007208005         SEYMER MARTIN A     1945 BELL AVE                           000N        CARE OF             
MTR08516100001000000000000000RA              10018013    005801930000019300000570000003NN  NNW 000                       N    
RDG08516100WATRL000000004K00000000000000392013007272015105440N000000000090U84       004970400K 10000000010000000362           
CUS0851610000108403607008         LOGAN ETIENNE/JENNIF4005 CROSS ST                           000N        CARE OF             
MTR08516100001000000000000000RA              41087778    005801940000019400000520000003NN  NNW 000                       N    
RDG08516100WATRL000000004K00000000000002528013107272015105448N000000000020U84       000080400K 10000000010000002513           
CUS0851610000108007209003         ALLEN DALEN K       1941 BELL AVE                           000N        CARE OF             
MTR08516100001000000000000000RA              36697693    005801950000019500000520000003NN  NNW 000                       N    
RDG08516100WATRL000000004K00000000000002658000607272015093634N000000000000U84       003590400K 10000000010000002646           
CUS0851610000108007210001         SEIBERT RICHARD     1935 BELL AVE                           000N        CARE OF             
MTR08516100001000000000000000RA              27816031    005801960000019600000520000003NN  NNW 000                       N    
RDG08516100WATRL000000004K00000000000003931000707272015093740N000000000000U84       000660400K 10000000010000003919           
CUS0851610000108007211009         ADKINS-BLASY JEAN   1929 BELL AVE                           000N        CARE OF             
MTR08516100001000000000000000RA              27831592    005801970000019700000520000003NN  NNW 000                       N    
RDG08516100WATRL000000004K00000000000000827013207272015105456N000000000010U84       000080400K 10000000010000000817           
CUS0851610000108398135007         PAPIER MICHAEL CRAIG1915 BELL AVE                           000N        CARE OF             
MTR08516100001000000000000000RA              39923250    005801980000019800000520000003NN  NNW 000                       N    
RDG08516100WATRL000000004K00000000000003727013307272015105502N000000000010U84       000060400K 10000000010000003717           
CUS0851610000108397569008         GIBSON ERSKINE W,JR 1913 BELL AVE                           000N        CARE OF             
MTR08516100001000000000000000RA              01114424    005801990000019900000610000003NN  NNW 000                       N    
RDG08516100WATRL000000004K00000000000001008013407272015105510N000000000020U84       000080400K 10000000010000000993           
CUS0851610000108007212007         RICHARD SEIBERT     1909 BELL AVE                           000N        CARE OF             
MTR08516100001000000000000000RA              24763155    005802000000020000000520000003NN  NNW 000                       N    
RDG08516100WATRL000000004K00000000000003416013507272015105516N000000000010U84       000060400K 10000000010000003406           
CUS0851610000108007213005         GAINERS THOMAS H    1901 BELL AVE                           000N        CARE OF             
MTR08516100001000000000000000RA              23053288    005802010000020100000520000003NN  NNW 000                       N    
RDG08516100WATRL000000004K00000000000004418013607272015105521N000000000010U84       000050400K 10000000010000004408           
RTR08516100NN02010201000002010000000002010201000192NY020102010201000000000000000000000000000002    07162015NY020000 N         
RHD08511000NN02110211000002110000000002110211000218NY021102110211000400000000000000000000000002    07162015NY020000 N         
CUS0851100000108003564005         HIGDON EDWARD P     3022 VERMONT AVE                        000N        CARE OF             
MTR08511000001000000000000000RA              27265822    005800010000000100000520000003NN  NNW 000                       N    
RDG08511000WATRL000000004K00000000000005938003207222015071140N000000000000N40       000380400K 10000000010000005898           
CUS0851100000108003565002         PHILLIPS FORBES DENI3018 VERMONT AVE                        000N        CARE OF             
MTR08511000001000000000000000RA              32899773    005800020000000200000520000003NN  NNW 000                       N    
RDG08511000WATRL000000004K00000000000002934003107222015071102N000000000000N40       000280400K 10000000010000002919           
CUS0851100000108003566000         HARMON JUSTEN M     3016 VERMONT AVE                        000N        CARE OF             
MTR08511000001000000000000000RA              50786110    005800030000000300000520000003NN  NNW 000                       N    
RDG08511000WATRL000000004K00000000000002792003007222015071034N000000000000N40       000330400K 10000000010000002766           
CUS0851100000108003567008         MAENNER DONNA       3014 VERMONT AVE                        000N        CARE OF             
MTR08511000001000000000000000RA              44174529    005800040000000400000520000003NN  NNW 000                       N    
RDG08511000WATRL000000004K00000000000002336002907222015071001N000000000000N40       000360400K 10000000010000002326           
CUS0851100000108003568006         REITTERER F W,JR    3012 VERMONT AVE                        000N        CARE OF             
MTR08511000001000000000000000RA              9689775     005800050000000500000570000003NN  NNW 000                       N    
RDG08511000WATRL000000004K00000000000003934002807222015070925N000000000000N40       000530400K 10000000010000003915           
CUS0851100000108003569004         HAROLD STEVEN MARK  3010 VERMONT AVE                        000N        CARE OF             
MTR08511000001000000000000000RA              9689772     005800060000000600000570000003NN  NNW 000                       N    
RDG08511000WATRL000000004K00000000000003775002707222015070832N000000000000N40       000290400K 10000000010000003758           
CUS0851100000108003570002         GERALD ROEDEL 2ND   3008 VERMONT AVE                        000N        CARE OF             
MTR08511000001000000000000000RA              23645785    005800070000000700000520000003NN  NNW 000                       N    
RDG08511000WATRL000000004K00000000000002944002607222015070803N000000000000N40       000450400K 10000000010000002936           
CUS0851100000108003571000         PETTY SCOTT F       3002 VERMONT AVE                        000N        CARE OF             
MTR08511000001000000000000000RA              99187980    005800080000000800000570000003NN  NNW 000                       N    
RDG08511000WATRL000000004K00000000000001316002507222015070718N000000000000N40       000600400K 10000000010000001308           
CUS0851100000108003572008         ROBINSON ERIC P     3000 VERMONT AVE                        000N        CARE OF             
MTR08511000001000000000000000RA              99187984    005800090000000900000570000003NN  NNW 000                       N    
RDG08511000WATRL000000004K00000000000000808002407222015070618N000400000010N40       000690400K 10000000010000000803           
CUS0851100000108003573006         RODRIGUES CLEMENTINA2926 VERMONT AVE                        000N        CARE OF             
MTR08511000001000000000000000RA              44173309    005800100000001000000520000003NN  NNW 000                       N    
RDG08511000WATRL000000004K00000000000000876002307222015070509N000000000000N40       000030400K 10000000010000000873           
CUS0851100000108003574004         LOSS MARK D         2924 VERMONT AVE                        000N        CARE OF             
MTR08511000001000000000000000RA              44173310    005800110000001100000520000003NN  NNW 000                       N    
RDG08511000WATRL000000004K00000000000003076002207222015070506N000000000000N40       000470400K 10000000010000003059           
CUS0851100000108003575001         ZIOLKOWSKI BRYAN C,J2920 VERMONT AVE                        000N        CARE OF             
MTR08511000001000000000000000RA              99188128    005800120000001200000570000003NN  NNW 000                       N    
RDG08511000WATRL000000004K00000000000000705002107222015070419N000000000000N40       000540400K 10000000010000000676           
CUS0851100000108003576009         MEYER WILLIAM J,JR  2918 VERMONT AVE                        000N        CARE OF             
MTR08511000001000000000000000RA              35106381    005800130000001300000520000003NN  NNW 000                       N    
RDG08511000WATRL000000004K00000000000001628002007222015070325N000000000000N40       000390400K 10000000010000001623           
CUS0851100000108003577007         MEYER WILLIAM J,JR  2916 VERMONT AVE                        000N        CARE OF             
MTR08511000001000000000000000RA              22607611    005800140000001400000520000003NN  NNW 000                       N    
RDG08511000WATRL000000004K00000000000002398001907222015070246N000300000010N40       000360400K 10000000010000002386           
CUS0851100000108003578005         MEYER WILLIAM J,JR  2914 VERMONT AVE                        000N        CARE OF             
MTR08511000001000000000000000RA              24773122    005800150000001500000520000003NN  NNW 000                       N    
RDG08511000WATRL000000004K00000000000002962001807222015070210N000000000000N40       000590400K 10000000010000002956           
CUS0851100000108003579003         MANNING MARDELL     2912 VERMONT AVE                        000N        CARE OF             
MTR08511000001000000000000000RA              29684444    005800160000001600000520000003NN  NNW 000                       N    
RDG08511000WATRL000000004K00000000000005420001707222015070111N000000000010N40       000170400K 10000000010000005399           
CUS0851100000108003580001         SARAH HURLEY        2910 VERMONT AVE                        000N        CARE OF             
MTR08511000001000000000000000RA              27818913    005800170000001700000520000003NN  NNW 000                       N    
RDG08511000WATRL000000004K00000000000002831001607222015070054N000000000000N40       000290400K 10000000010000002826           
CUS0851100000108003581009         CURTIN MERRILL H    2908 VERMONT AVE                        000N        CARE OF             
MTR08511000001000000000000000RA              50789254    005800180000001800000520000003NN  NNW 000                       N    
RDG08511000WATRL000000004K00000000000001195001507222015070025N000000000000N40       000740400K 10000000010000001182           
CUS0851100000108003582007         PAYNE DOROTHY J     2906 VERMONT AVE                        000N        CARE OF             
MTR08511000001000000000000000RA              46875225    005800190000001900000520000003NN  NNW 000                       N    
RDG08511000WATRL000000004K00000000000001503001407222015065911N000000000000N40       000810400K 10000000010000001485           
CUS0851100000108003583005         BROOKS MICHAEL      2904 VERMONT AVE                        000N        CARE OF             
MTR08511000001000000000000000RA              27832446    005800200000002000000520000003NN  NNW 000                       N    
RDG08511000WATRL000000004K00000000000003244001307222015065750N000000000000N40       000350400K 10000000010000003185           
CUS0851100000108003584003         AGUILERA SERAFIN    2900 VERMONT AVE                        000N        CARE OF             
MTR08511000001000000000000000RA              32178574    005800210000002100000520000003NN  NNW 000                       N    
RDG08511000WATRL000000004K00000000000004937001207222015065715N000000000000N40       000660400K 10000000010000004894           
CUS0851100000108003585000         WILD THOMAS H       2830 VERMONT AVE                        000N        CARE OF             
MTR08511000001000000000000000RA              45386434    005800220000002200000520000003NN  NNW 000                       N    
RDG08511000WATRL000000004K00000000000000384001107222015065609N000000000000N40       000250400K 10000000010000000384           
CUS0851100000108432919002         ORTEZ LESA L        2828 VERMONT AVE                        000N        CARE OF             
MTR08511000001000000000000000RA              01086868    005800230000002300000570000003NN  NNW 000                       N    
RDG08511000WATRL000000004K00000000000001668001007222015065544N000000000011N40       000250400K 10000000010000001646           
CUS0851100000108003586008         DOWLING MICHAEL THOM2826 VERMONT AVE                        000N        CARE OF             
MTR08511000001000000000000000RA              00126964    005800240000002400000570000003NN  NNW 000                       N    
RDG08511000WATRL000000004K00000000000001341000907222015065425N000000000000N40       000350400K 10000000010000001325           
CUS0851100000108003587006         HOPKINS KIM ANNE    2822 VERMONT AVE                        000N        CARE OF             
MTR08511000001000000000000000RA              00126795    005800250000002500000570000003NN  NNW 000                       N    
RDG08511000WATRL000000004K00000000000001584000807222015065350N000000000000N40       000840400K 10000000010000001558           
CUS0851100000108003588004         WATCHESKI FRANK M   2816 VERMONT AVE                        000N        CARE OF             
MTR08511000001000000000000000RA              26001919    005800260000002600000520000003NN  NNW 000                       N    
RDG08511000WATRL000000004K00000000000004494000707222015065226N000000000000N40       000580400K 10000000010000004484           
CUS0851100000108003589002         YANKULOV JOHN T,SR  2814 VERMONT AVE                        000N        CARE OF             
MTR08511000001000000000000000RA              23053789    005800270000002700000520000003NN  NNW 000                       N    
RDG08511000WATRL000000004K00000000000004650000607222015065128N000000000000N40       000670400K 10000000010000004633           
CUS0851100000108003590000         BREWER JAMES N,JR   2810 VERMONT AVE                        000N        CARE OF             
MTR08511000001000000000000000RA              48593607    005800280000002800000520000003NN  NNW 000                       N    
RDG08511000WATRL000000004K00000000000001859000507222015065021N000000000000N40       000290400K 10000000010000001827           
CUS0851100000108003591008         LANG GEORGE E       2808 VERMONT AVE                        000N        CARE OF             
MTR08511000001000000000000000RA              35116566    005800290000002900000520000003NN  NNW 000                       N    
RDG08511000WATRL000000004K00000000000005013000407222015064952N000000000000N40       000400400K 10000000010000004962           
CUS0851100000108003592006         HIGNUTT MICHAEL L   2806 VERMONT AVE                        000N        CARE OF             
MTR08511000001000000000000000RA              24761339    005800300000003000000520000003NN  NNW 000                       N    
RDG08511000WATRL000000004K00000000000002063000307222015064912N000000000000N40       000120400K 10000000010000002045           
CUS0851100000108003593004         BARNABAE DEBORAH ANN2802 VERMONT AVE                        000N        CARE OF             
MTR08511000001000000000000000RA              14919890    005800310000003100000310000003NN  NNW 000                       N    
RDG08511000WATRL000000004K00000000000000400000207222015064900N000000000000N40       001030400K 10000000010000000381           
CUS0851100000108003594002         PARKER JOHN L       2800 VERMONT AVE                        000N        CARE OF             
MTR08511000001000000000000000RA              14928734    005800320000003200000310000003NN  NNW 000                       N    
RDG08511000WATRL000000004K00000000000002031000107222015083009N000000000011N40       002360400K 10000000010000001919           
CUS0851100000108003595009         RAJVEER LLC         4119 ANNAPOLIS RD                       000N        CARE OF             
MTR08511000001000000000000000RA              01106475    005800330000003300000610000003NN  NNW 000   VACANT / LOT        N    
RDG08511000WATRL000000004K00000000000000000009607222015082523N000000000000N40       001550400K 10000000010000000000           
CUS0851100000108003596007         RAJVEER LLC         4117 ANNAPOLIS RD                       000N        CARE OF             
MTR08511000001000000000000000RA              34409043    007500340000003400000520000003NN  NNW 000                       N    
RDG08511000WATRL000000004K00000000000006371009707222015082613N000000000000N40       000500400K 10000000010000006237           
CUS0851100000108003597005         JONES ROY A         2803 FLORIDA AVE                        000N        CARE OF             
MTR08511000001000000000000000RA              2770460     005800350000003500000520000003NN  NNW 000                       N    
RDG08511000WATRL000000004K00000000000004007009207222015082033N000100000010N40       000510400K 10000000010000004007           
CUS0851100000108003598003         FISHER TERRELL      2807 FLORIDA AVE                        000N        CARE OF             
MTR08511000001000000000000000RA              36698644    005800360000003600000520000003NN  NNW 000                       N    
RDG08511000WATRL000000004K00000000000003583009107222015081942N000000000000N40       001110400K 10000000010000003572           
CUS0851100000108003599001         BERTAZON FRANK L    2811 FLORIDA AVE                        000N        CARE OF             
MTR08511000001000000000000000RA              10017568    005800370000003700000570000003NN  NNW 000                       N    
RDG08511000WATRL000000004K00000000000000583009007222015081751N000000000000N40       000450400K 10000000010000000544           
CUS0851100000108003600007         CONRAD JOHN W       2815 FLORIDA AVE                        000N        CARE OF             
MTR08511000001000000000000000RA              01077786    005800380000003800000610000003NN  NNW 000                       N    
RDG08511000WATRL000000004K00000000000001904008907222015081706N000000000000N40       000060400K 10000000010000001886           
CUS0851100000108003601005         CHURCH BOBBY        2817 FLORIDA AVE                        000N        CARE OF             
MTR08511000001000000000000000RA              00126968    005800390000003900000570000003NN  NNW 000                       N    
RDG08511000WATRL000000004K00000000000000379008807222015081700N000000000000N40       000490400K 10000000010000000373           
CUS0851100000108003602003         BYRUM MELVIN G      2819 FLORIDA AVE                        000N        CARE OF             
MTR08511000001000000000000000RA              23053917    005800400000004000000520000003NN  NNW 000                       N    
RDG08511000WATRL000000004K00000000000002320008707222015081611N000000000000N40       000040400K 10000000010000002315           
CUS0851100000108003603001         MICHAEL W HUGEL JR  2821 FLORIDA AVE                        000N        CARE OF             
MTR08511000001000000000000000RA              32903555    005800410000004100000520000003NN  NNW 000                       N    
RDG08511000WATRL000000004K00000000000001306008607222015081607N000000000000N40       001040400K 10000000010000001302           
CUS0851100000108003604009         KNIGHT RAYMOND J    2823 FLORIDA AVE                        000N        CARE OF             
MTR08511000001000000000000000RA              32903490    005800420000004200000520000003NN  NNW 000                       N    
RDG08511000WATRL000000004K00000000000001679007607222015080535N000000000000N40       000340400K 10000000010000001662           
CUS0851100000108003605006         UMSTEAD GARRISON A  2825 FLORIDA AVE                        000N        CARE OF             
MTR08511000001000000000000000RA              01095817    005800430000004300000610000003NN  NNW 000                       N    
RDG08511000WATRL000000004K00000000000001841007507222015080501N000000000000N40       000520400K 10000000010000001806           
CUS0851100000108003606004         MATTHEW T. DABBS    2827 FLORIDA AVE                        000N        CARE OF             
MTR08511000001000000000000000RA              46888305    005800440000004400000520000003NN  NNW 000                       N    
RDG08511000WATRL000000004K00000000000000593007407222015080409N000000000000N40       000390400K 10000000010000000593           
CUS0851100000108003607002         HOPPE FREDERICK GEOR2829 FLORIDA AVE                        000N        CARE OF             
MTR08511000001000000000000000RA              35110915    005800450000004500000520000003NN  NNW 000                       N    
RDG08511000WATRL000000004K00000000000000581007307222015080330N000000000000N40       000520400K 10000000010000000581           
CUS0851100000108003608000         DOWD CHARLES FRANK  2831 FLORIDA AVE                        000N        CARE OF             
MTR08511000001000000000000000RA              14919889    005800460000004600000310000003NN  NNW 000                       N    
RDG08511000WATRL000000004K00000000000001073007207222015080238N000000000000N40       000430400K 10000000010000001047           
CUS0851100000108003609008         CHRIST METHODIST CHU2833 FLORIDA AVE                        000N        CARE OF             
MTR08511000001000000000000000RA              00126798    005800470000004700000570000003NN  NNW 000                       N    
RDG08511000WATRL000000004K00000000000001173007107222015080155N000300000010N40       000850400K 10000000010000001162           
CUS0851100000108003610006         ROACHE THOMAS F     2903 FLORIDA AVE                        000N        CARE OF             
MTR08511000001000000000000000RA              32771125    005800480000004800000520000003NN  NNW 000                       N    
RDG08511000WATRL000000004K00000000000003958007007222015080030N000000000000N40       000540400K 10000000010000003958           
CUS0851100000108003611004         WFHM                2905 FLORIDA AVE                        000N        CARE OF             
MTR08511000001000000000000000RA              41589308    005800490000004900000520000003NN  NNW 000                       N    
RDG08511000WATRL000000004K00000000000001967006907222015075936N000000000000N40       000030400K 10000000010000001967           
CUS0851100000108003612002         SAN JOSE JORGE      2907 FLORIDA AVE                        000N        CARE OF             
MTR08511000001000000000000000RA              41082345    005800500000005000000520000003NN  NNW 000                       N    
RDG08511000WATRL000000004K00000000000002376006807222015075933N000000000000N40       000380400K 10000000010000002344           
CUS0851100000108003613000         REIF JOHNSON A      2909 FLORIDA AVE                        000N        CARE OF             
MTR08511000001000000000000000RA              01094834    005800510000005100000610000003NN  NNW 000                       N    
RDG08511000WATRL000000004K00000000000000364006707222015075855N000400000010N40       000410400K 10000000010000000360           
CUS0851100000108003614008         FIFIELD DOROTHY E   2911 FLORIDA AVE                        000N        CARE OF             
MTR08511000001000000000000000RA              54350280    005800520000005200000520000003NN  NNW 000                       N    
RDG08511000WATRL000000004K00000000000000408006607222015075814N000400000010N40       001400400K 10000000010000000407           
CUS0851100000108003615005         HOUCK EMIL R        2915 FLORIDA AVE                        000N        CARE OF             
MTR08511000001000000000000000RA              41590742    005800530000005300000520000003NN  NNW 000                       N    
RDG08511000WATRL000000004K00000000000006297005607222015074822N000000000000N40       000550400K 10000000010000006270           
CUS0851100000108003616003         HILL DOROTHY V      2921 FLORIDA AVE                        000N        CARE OF             
MTR08511000001000000000000000RA              41082421    005800540000005400000520000003NN  NNW 000                       N    
RDG08511000WATRL000000004K00000000000000656005507222015074727N000100000010N40       000450400K 10000000010000000656           
CUS0851100000108003617001         DECKER GARY W       2923 FLORIDA AVE                        000N        CARE OF             
MTR08511000001000000000000000RA              77890830    005800550000005500000360000003NN  NNW 000                       N    
RDG08511000WATRL000000004K00000000000000013005407222015074642N000000000010N40       000430400K 10000000010000000000           
CUS0851100000108003618009         CHANEY CALVIN S     2925 FLORIDA AVE                        000N        CARE OF             
MTR08511000001000000000000000RA              41087287    005800560000005600000520000003NN  NNW 000                       N    
RDG08511000WATRL000000004K00000000000001572005307222015074559N000000000000N40       000410400K 10000000010000001558           
CUS0851100000108003619007         MAUNG MYO CHIT      2927 FLORIDA AVE                        000N        CARE OF             
MTR08511000001000000000000000RA              30518706    005800570000005700000520000003NN  NNW 000                       N    
RDG08511000WATRL000000004K00000000000000492005207222015074518N000000000000N40       002850400K 10000000010000000430           
CUS0851100000108003620005         SNYDER WILLIAM      3001 FLORIDA AVE                        000N        CARE OF             
MTR08511000001000000000000000RA              00126800    005800580000005800000570000003NN  NNW 000                       N    
RDG08511000WATRL000000004K00000000000001941004607222015073532N000000000000N40       000860400K 10000000010000001929           
CUS0851100000108444493004         DO HONG THU         3003 FLORIDA AVE                        000N        CARE OF             
MTR08511000001000000000000000RA              00165672    005800590000005900000570000003NN  NNW 000                       N    
RDG08511000WATRL000000004K00000000000000900004507222015073406N000000000000N40       000490400K 10000000010000000863           
CUS0851100000108003621003         NEET JOSEPH E       3009 FLORIDA AVE                        000N        CARE OF             
MTR08511000001000000000000000RA              39923749    005800600000006000000520000003NN  NNW 000                       N    
RDG08511000WATRL000000004K00000000000002752004407222015073317N000000000000N40       000330400K 10000000010000002730           
