FHDNNNN038007468007468007656N                                                                                           023707
RHD09720300NN01540154000001540000000001140114000057NY011401140154000400020000000000000000000001    07242015NY020000 N         
CUS0972030000109123807001         HUNT VALLEY INN     245 SHAWAN RD                           000N        CARE OF             
MTR09720300002000000000000000RA              5003404     000800010000000100000540000003NN  NNW 000                       N    
RDG09720300WATAL000000006K00000000000000000000108042015121327N000100000010N91       000000600K 10000000010000000000           
RDG09720300WATBL000000006K00000000000121848000208042015121346N000400000010N91       000190600K 10000000010000110556           
CUS0972030000109434038007         WIGHT AVENUE        11100 YORK RD                           000N        CARE OF             
MTR09720300001000000000000000RA              99170782    001500020000000200000570000000NN  NNW 000                       N    
RDG09720300WATRL000000005K00000000000020748000108052015114303N000000000000U91       000000500K 10000000010000020456           
CUS0972030000109433235000         DEVON SELF STORAGE L11150 YORK RD                           000N        CARE OF             
MTR09720300001000000000000000RA              8047062     000600030000000300000380000000NN  NNW 000   FIRE SERVICE        N    
RDG09720300WATRL000000006K00000000000000010000208052015114308N000000000000U91       000050600K 10000000010000000010           
CUS0972030000109433237006         EXTRA SPACE MGMT    11150 YORK RD                           000N        CARE OF             
MTR09720300001000000000000000RA              01073881    005800040000000400000610000000NN  NNW 000                       N    
RDG09720300WATRL000000004K00000000000000914000308052015114312N000000000000U91       000040400K 10000000010000000908           
CUS0972030000109428458005         POINT BREEZE CREDIT 11100 MCCORMICK RD                      000N        CARE OF             
MTR09720300001000000000000000RA              99170806    001500050000000500000570000000NN  NNW 000                       N    
RDG09720300WATRL000000005K00000000000006740000308042015121359N000300000010N91       000130500K 10000000010000006590           
CUS0972030000109454472003         TWO FARMS, INC #191 11119 MCCORMICK RD                      000N        CARE OF             
MTR09720300001000000000000000RA              13802084    000800060000000600000390000003NY  NNW 000                       N    
MTM0972030013802084    TWO DIALS 000033               03990                                                                   
RDG09720300WATRL000000006K00000000000003990000408042015121529N000300000010N91       000900600K 10000000010000001465           
CUS0972030000109123811003         EXECUTIVE PLAZA LLC 11350 MCCORMICK RD                      000N        CARE OF             
MTR09720300002000000000000000RA              4683194     000800070000000700000540000003NN  NNW 000                       N    
RDG09720300WATAL000000006K00000000000000001000508042015121534N000100000010N91       000050600K 10000000010000000001           
RDG09720300WATBL000000006K00000000000112688000608042015121548N000300000010N91       000140600K 10000000010000120410           
CUS0972030000109423924001         HUNT VALLEY 1031    11333 MCCORMICK RD                      000N        CARE OF             
MTR09720300002000000000000000RA              9709315     000800080000000800000630000000NN  NNW 000                       N    
RDG09720300WATAL000000006K00000000000000170000708042015121555N000000000010N91       000070600K 10000000010000000152           
RDG09720300WATBL000000006K00000000000035241000808042015121604N000400000010N91       000090600K 10000000010000033800           
CUS0972030000109379866008         BALTIMORE MD GREEN I11311 MCCORMICK RD                      000N        CARE OF             
MTR09720300002000000000000000RA              7098140     001000090000000900000540000003NN  NNW 000                       N    
RDG09720300WATAL000000007K00000000000000003000908042015121610N000100000010N91       000060700K 10000000010000000003           
RDG09720300WATBL000000007K00000000000021658001008042015121618N000400000010N91       000080700K 10000000010000020167           
CUS0972030000109123809007         VERIZON MARYLAND INCNWC YORK RD &                           000N        CARE OF             
MTR09720300002000000000000000RA              5417360     000600100000001000000540000003NN  NNW 000                       N    
RDG09720300WATAL000000006K00000000000000004001108042015121623N000100000010N91       000050600K 10000000010000000004           
RDG09720300WATBL000000006K00000000000097228001208042015121632N000400000010N91       000090600K 10000000010000095444           
CUS0972030000109399459008         KIMCO REALTY CORP   11317 YORK RD                           000N        CARE OF             
MTR09720300002000000000000000RA              8019432     001000110000001100000540000003NN  NNW 000                       N    
RDG09720300WATAL000000007K00000000000000001001308042015121639N000100000010N91       000070700K 10000000010000000001           
RDG09720300WATBL000000007K00000000000016427001408042015121646N000400000010N91       000070700K 10000000010000015549           
CUS0972030000109432638006         SPARKS LOT ONE LLC  120 SPARKS VALLEY RD                    000N        CARE OF             
MTR09720300002000000000000000RA              0109764     000800120000001200000630000000NN  NNW 000                       N    
RDG09720300WATAL000000006K00000000000000001000408052015114427N000100000020U91       000750600K 10000000010000000001           
RDG09720300WATBL000000006K00000000000003812000508052015114433N000400000010U91       000060600K 10000000010000003581           
CUS0972030000109370943004         LIBERTY PROPERTY TRU11429 YORK RD                           000N        CARE OF             
MTR09720300002000000000000000RA              7045913     001000130000001300000630000003NN  NNW 000                       N    
RDG09720300WATAL000000007K00000000000000016001508042015121656N000100000010N91       000100700K 10000000010000000016           
RDG09720300WATBL000000007K00000000000086081001608042015121704N000400000010N91       000080700K 10000000010000084007           
CUS0972030000109348824005         BROADMEAD INC       13801 YORK RD                           000N        CARE OF             
MTR09720300002000000000000000RA              5899524     000800140000001400000540000003NN  NNW 000                       N    
RDG09720300WATAL000000006K00000000000000041001708042015121710N000100000010N91       000060600K 10000000010000000041           
RDG09720300WATBL000000006K00000000000164510001808042015121720N000400000010N91       000100600K 10000000010000156560           
CUS0972030000109386021001         PATHS AT LOVETON FARES LOVETON FARMS RD                     000N        CARE OF             
MTR09720300002000000000000000RA              7121241     000800150000001500000630000003NN  NNW 000                       N    
RDG09720300WATAL000000006K00000000000000358000608052015114448N000100000010U91       000150600K 10000000010000000358           
RDG09720300WATBL000000006K00000000000037828000708052015114500N000400000010U91       000120600K 10000000010000035851           
CUS0972030000109436869003         SPARKS LOT SEVEN LLC10 FILA WAY                             000N        CARE OF             
MTR09720300002000000000000000RA              0208158     000800160000001600000630000000NN  NNW 000                       N    
RDG09720300WATAL000000006K00000000000000000000808052015114509N000100000010U91       000090600K 10000000010000000000           
RDG09720300WATBL000000006K00000000000018548000908052015114516N000400000010U91       000070600K 10000000010000017984           
CUS0972030000109391053007         WINDMILL CHASE AT LO5 ALEXANDER CHASE                       000N        CARE OF             
MTR09720300001000000000000000RA              0908778     000300170000001700000640000003NN  NNW 000                       N    
RDG09720300WATRL000000005K00000000000012658001008052015114530N000000000000U91       000140500K 10000000010000012128           
CUS0972030000109391043008         WINDMILL CHASE LTD P1 WINDMILL CHASE                        000N        CARE OF             
MTR09720300002000000000000000RA              7195875     000800180000001800000630000003NN  NNW 000                       N    
RDG09720300WATAL000000006K00000000000000001001108052015114537N000100000010U91       000070600K 10000000010000000001           
RDG09720300WATBL000000006K00000000000037521001208052015114545N000400000010U91       000080600K 10000000010000035887           
CUS0972030000109401758009         JCB HOLDING, LLC    2 RAINFLOWER PATH                       000N        CARE OF             
MTR09720300001000000000000000RA              29067414    000200190000001900000520000003NN  NNW 000                       N    
RDG09720300WATRL000000005K00000000000009909001308052015114552N000000000000U91       000070500K 10000000010000009852           
CUS0972030000109401759007         RAINFLOWER CONDO    4 RAINFLOWER PATH                       000N        CARE OF             
MTR09720300001000000000000000RA              01105817    000200200000002000000610000003NN  NNW 000                       N    
RDG09720300WATRL000000005K00000000000005883001408052015114558N000000000000U91       000060500K 10000000010000005730           
CUS0972030000109401760005         RAINFLOWER CONDO    6 RAINFLOWER PATH                       000N        CARE OF             
MTR09720300001000000000000000RA              29067427    000200210000002100000520000003NN  NNW 000                       N    
RDG09720300WATRL000000005K00000000000009207001508052015114602N000000000000U91       000040500K 10000000010000009158           
CUS0972030000109401761003         RAINFLOWER CONDO    8 RAINFLOWER PATH                       000N        CARE OF             
MTR09720300001000000000000000RA              29768466    000200220000002200000520000003NN  NNW 000                       N    
RDG09720300WATRL000000005K00000000000011781001608052015114633N000000000000U91       000310500K 10000000010000011596           
CUS0972030000109401762001         RAINFLOWER CONDO    10 RAINFLOWER PATH                      000N        CARE OF             
MTR09720300001000000000000000RA              29372252    000200230000002300000520000003NN  NNW 000                       N    
RDG09720300WATRL000000005K00000000000012060001708052015114638N000000000000U91       000050500K 10000000010000012014           
CUS0972030000109401763009         RAINFLOWER CONDO    12 RAINFLOWER PATH                      000N        CARE OF             
MTR09720300001000000000000000RA              32575127    000200240000002400000520000003NN  NNW 000                       N    
RDG09720300WATRL000000005K00000000000013659001808052015114643N000000000000U91       000050500K 10000000010000013581           
CUS0972030000109401765004         RAINFLOWER CONDO    14 RAINFLOWER PATH                      000N        CARE OF             
MTR09720300001000000000000000RA              31588517    000200250000002500000520000003NN  NNW 000                       N    
RDG09720300WATRL000000005K00000000000010944001908052015114647N000000000000U91       000040500K 10000000010000010875           
CUS0972030000109401767000         RAINFLOWER CONDO    16 RAINFLOWER PATH                      000N        CARE OF             
MTR09720300001000000000000000RA              28966916    000200260000002600000520000003NN  NNW 000                       N    
RDG09720300WATRL000000005K00000000000012498002008052015114650N000000000000U91       000030500K 10000000010000012385           
CUS0972030000109401769006         RAINFLOWER CONDO    18 RAINFLOWER PATH                      000N        CARE OF             
MTR09720300001000000000000000RA              35105180    000200270000002700000520000003NN  NNW 000                       N    
RDG09720300WATRL000000005K00000000000015206002108052015114656N000000000000U91       000060500K 10000000010000015161           
CUS0972030000109401773008         RAINFLOWER CONDOMINI20 RAINFLOWER PATH                      000N        CARE OF             
MTR09720300001000000000000000RA              29067441    000200280000002800000520000003NN  NNW 000                       N    
RDG09720300WATRL000000005K00000000000013185002208052015114700N000000000000U91       000040500K 10000000010000013083           
CUS0972030000109401757001         RAINFLOWER CONDO    22 RAINFLOWER PATH                      000N        CARE OF             
MTR09720300001000000000000000RA              32772061    000200290000002900000520000003NN  NNW 000                       N    
RDG09720300WATRL000000005K00000000000010615002308052015114704N000000000000U91       000040500K 10000000010000010397           
CUS0972030000109401772000         RAINFLOWER CONDOMINI23 RAINFLOWER PATH                      000N        CARE OF             
MTR09720300001000000000000000RA              29550675    000200300000003000000520000003NN  NNW 000                       N    
RDG09720300WATRL000000005K00000000000013256002408052015114709N000000000000U91       000050500K 10000000010000013196           
CUS0972030000109401771002         RAINFLOWER CONDMINIU21 RAINFLOWER PATH                      000N        CARE OF             
MTR09720300001000000000000000RA              26567445    000200310000003100000520000003NN  NNW 000                       N    
RDG09720300WATRL000000005K00000000000012381002508052015114712N000000000000U91       000030500K 10000000010000012334           
CUS0972030000109401770004         RAINFLOWER CONDOMINI19 RAINFLOWER PATH                      000N        CARE OF             
MTR09720300001000000000000000RA              01105774    000200320000003200000610000003NN  NNW 000                       N    
RDG09720300WATRL000000005K00000000000006559002608052015114716N000000000000U91       000040500K 10000000010000006380           
CUS0972030000109401768008         RAINFLOWER CONDOMINI17 RAINFLOWER PATH                      000N        CARE OF             
MTR09720300001000000000000000RA              29768539    000200330000003300000520000003NN  NNW 000                       N    
RDG09720300WATRL000000005K00000000000011557002708052015114730N000000000000U91       000140500K 10000000010000011472           
CUS0972030000109401766002         RAINFLOWER CONDOMINI15 RAINFLOWER PATH                      000N        CARE OF             
MTR09720300001000000000000000RA              01116898    000200340000003400000610000003NN  NNW 000                       N    
RDG09720300WATRL000000005K00000000000005335002808052015114734N000000000000U91       000040500K 10000000010000005190           
CUS0972030000109401764007         RAINFLOWER CONDOMINI13 RAINFLOWER PATH                      000N        CARE OF             
MTR09720300001000000000000000RA              33084114    000200350000003500000520000003NN  NNW 000                       N    
RDG09720300WATRL000000005K00000000000012227002908052015114740N000000000000U91       000060500K 10000000010000012153           
CUS0972030000109354968001         WESTERN RUN LLC     14600 YORK RD                           000N        CARE OF             
MTR09720300001000000000000000RA              1171519     000200360000003600000490000003NN  NNW 000                       N    
RDG09720300WATRL000000005K00000000000008727003008052015114746N000000000000U91       000060500K 10000000010000008250           
CUS0972030000109354967003         WESTERN RUN LLC     14600 YORK RD                           000N        CARE OF             
MTR09720300001000000000000000RA              6029417     000800370000003700000410000003NN  NNW 000   FIRE SERVICE        N    
RDG09720300WATRL000000006K00000000000000000003108052015114751S005000000000U91       000050600K 10000000010000000169           
CUS0972030000109457279009         US LACROSSE CENTER, 2 LOVETON CIR                           000N        CARE OF             
MTR09720300002000000000000000RA              14276057    000800370010003700100390000003NY  NNW 000                       N    
MTM0972030014276057    UNDER CONSTR                                                                                           
RDG09720300WATAL000000006K00000000000000000000000000000000000 000000000000U         000000600  10000000010000000000           
RDG09720300WATBL000000006K00000000000000000000000000000000000 000000000000U         000000600  10000000010000000000           
CUS0972030000109401333001         BECTON DICKINSON&COM7 LOVETON CIR                           000N        CARE OF             
MTR09720300002000000000000000RA              7231229     001000380000003800000630000003NN  NNW 000                       N    
RDG09720300WATAL000000007K00000000000000051003208052015115033N000400000010U91       001620700K 10000000010000000039           
RDG09720300WATBL000000007K00000000000081230003308052015115043N000400000010U91       000100700K 10000000010000075415           
CUS0972030000109355121006         MERRITT LV2 LLC     10 LOVETON CIR                          000N        CARE OF             
MTR09720300001000000000000000RA              35101388    000200390000003900000520000003NN  NNW 000                       N    
RDG09720300WATRL000000005K00000000000035466003408052015115051N000300000010U91       000080500K 10000000010000035068           
CUS0972030000109355120008         MERRITT LV2 LLC     10 LOVETON CIR                          000N        CARE OF             
MTR09720300001000000000000000RA              6029438     000600400000004000000410000003NN  NNW 000   FIRE SERVICE        N    
RDG09720300WATRL000000006K00000000000000000003508052015115055N000000000000U91       000040600K 10000000010000000000           
CUS0972030000109355124000         AMECO INC           9 LOVETON CIR                           000N        CARE OF             
MTR09720300001000000000000000RA              14918251    007500410000004100000310000003NN  NNW 000                       N    
RDG09720300WATRL000000004K00000000000000747003608052015115059N000000000000U91       000040400K 10000000010000000713           
CUS0972030000109355123002         AMECO INC           9 LOVETON CIR                           000N        CARE OF             
MTR09720300001000000000000000RA              6047507     000600420000004200000410000003NY  NNW 000   FIRE SERVICE        N    
MTM097203006047507     CLEAN OUT                                                                                              
RDG09720300WATRL000000006K00000000000000000000000000000000000 000000000000U         000000600  10000000010000000000           
CUS0972030000109355122004         ECOLAIR LLC         15 LOVETON CIR                          000N        CARE OF             
MTR09720300001000000000000000RA              1328225     000200430000004300000490000003NN  NNW 000                       N    
RDG09720300WATRL000000005K00000000000022188003708052015115133N000300000010U91       000340500K 10000000010000022189           
CUS0972030000109404342009         19 LOVETON CIRCLE LL19 LOVETON CIR                          000N        CARE OF             
MTR09720300001000000000000000RA              27778929    001500440000004400000520000003NN  NNW 000                       N    
RDG09720300WATRL000000005K00000000000078449003808052015115138N000000000000U91       000050500K 10000000010000078400           
CUS0972030000109405804007         MCCORMICK & COMPANY 18 LOVETON CIR                          000N        CARE OF             
MTR09720300002000000000000000RA              9050020     000800450000004500000630000003NN  NNW 000                       N    
RDG09720300WATAL000000006K00000000000000003003908052015115144N000100000010U91       000060600K 10000000010000000003           
RDG09720300WATBL000000006K00000000000013331004008052015115157N000400000010U91       000130600K 10000000010000012562           
CUS0972030000109362213002         FIDELITY HEADQUARTER25 LOVETON CIR                          000N        CARE OF             
MTR09720300003000000000000000RA              7032580     000800460000004600000480000003NN  NNW 000   FIRE SERVICE        N    
RDG09720300WATAL000000006K00000000000000019004108052015115202N000000000000U91       000050600K 10000000010000000019           
RDG09720300WATBL000000006K00000000000000063004208052015115212N000400000010U91       000100600K 10000000010000000062           
RDG09720300WATCL000000006K00000000000000031004308052015115218N000100000010U91       000060600K 10000000010000000031           
CUS0972030000109362214000         FIDELITY HEADQUARTER25 LOVETON CIR                          000N        CARE OF             
MTR09720300001000000000000000RA              35109303    001500470000004700000520000003NN  NNW 000                       N    
RDG09720300WATRL000000005K00000000000010702004408052015115227N000300000010U91       000090500K 10000000010000010508           
CUS0972030000109362216005         TAYLOR PROPERTY PART31 LOVETON CIR                          000N        CARE OF             
MTR09720300001000000000000000RA              30509367    001500480000004800000520000003NN  NNW 000                       N    
RDG09720300WATRL000000005K00000000000016906004508052015115231N000000000000U91       000040500K 10000000010000016772           
CUS0972030000109362215007         TAYLOR PROPERTY PART31 LOVETON CIR                          000N        CARE OF             
MTR09720300001000000000000000RA              E13824      000800490000004900000430000003NN  NNW 000   FIRE SERVICE        N    
RDG09720300WATRL000000006K00000000000000027004608052015115302N000400000010U91       000310600K 10000000010000000026           
CUS0972030000109403527006         BECTON DICKINSON&COM26 LOVETON CIR                          000N        CARE OF             
MTR09720300002000000000000000RA              8029317     001000500000005000000630000003NN  NNW 000                       N    
RDG09720300WATAL000000007K00000000000000201004708052015115310N000400000010U91       000080700K 10000000010000000184           
RDG09720300WATBL000000007K00000000000002156004808052015115318N000400000010U91       000080700K 10000000010000002060           
CUS0972030000109404578008         34 LOVETON LLC      34 LOVETON CIR                          000N        CARE OF             
MTR09720300002000000000000000RA              8023171     000800510000005100000630000003NN  NNW 000                       N    
RDG09720300WATAL000000006K00000000000000000004908052015115328N000100000010U91       000100600K 10000000010000000000           
RDG09720300WATBL000000006K00000000000007816005008052015115337N000400000010U91       000090600K 10000000010000007793           
CUS0972030000109375862001         FR LOVETON LLC      38 LOVETON CIR                          000N        CARE OF             
MTR09720300001000000000000000RA              32575097    001500520000005200000520000003NN  NNW 000                       N    
RDG09720300WATRL000000005K00000000000048797005108052015115344N000000000000U91       000070500K 10000000010000048751           
CUS0972030000109375861003         FR LOVETON LLC      38 LOVETON CIR                          000N        CARE OF             
MTR09720300001000000000000000RA              E15938      000800530000005300000430000003NY  NNW 000   FIRE SERVICE        N    
MTM09720300E15938      CLEAN OUT                                                                                              
RDG09720300WATRL000000006K00000000000000000000000000000000000 000000000000U         000000600  10000000010000000000           
CUS0972030000109402431002         E JOHN SCHMITZ & SON37 LOVETON CIR                          000N        CARE OF             
MTR09720300001000000000000000RA              7234899     000600540000005400000340000003NN  NNW 000   FIRE SERVICE        N    
RDG09720300WATRL000000006K00000000000000033005208052015115420N000000000000U91       000360600K 10000000010000000033           
CUS0972030000109402432000         E JOHN SCHMITZ & SON37 LOVETON CIR                          000N        CARE OF             
MTR09720300001000000000000000RA              36700462    001500550000005500000520000003NN  NNW 000                       N    
RDG09720300WATRL000000005K00000000000012087005308052015115424N000000000000U91       000040500K 10000000010000012017           
CUS0972030000109409544005         BECTON DICKINSON & C39 LOVETON CIR                          000N        CARE OF             
MTR09720300002000000000000000RA              2355610     000800560000005600000630000003NN  NNW 000                       N    
RDG09720300WATAL000000006K00000000000000552005408052015115436N000400000010U91       000120600K 10000000010000000525           
RDG09720300WATBL000000006K00000000000033679005508052015115456N000400000010U91       000200600K 10000000010000030255           
CUS0972030000109428596002         LOVETON INVESTORS LL47 LOVETON CIR                          000N        CARE OF             
MTR09720300002000000000000000RA              70067473    000800570000005700000560000003NY  NNW 000                       N    
MTM0972030070067473    OK                                                                                                     
RDG09720300WATAL000000006K00000000000000714005608052015115517N000000000000U91       000210600K 10000000010000000458           
RDG09720300WATBL000000006K00000000000082169005708052015115536N000300000010U91       000190600K 10000000010000091936           
CUS0972030000109388847007         BECTON DICKINSON & C54 LOVETON CIR                          000N        CARE OF             
MTR09720300002000000000000000RA              7164703     000800580000005800000630000003NN  NNW 000                       N    
RDG09720300WATAL000000006K00000000000000001005808052015115542N000100000010U91       000060600K 10000000010000000001           
RDG09720300WATBL000000006K00000000000016282005908052015115551N000400000010U91       000090600K 10000000010000016196           
CUS0972030000109386337001         OWINGS BROTHERS PROP60 LOVETON CIR                          000N        CARE OF             
MTR09720300002000000000000000RA              7121243     000800590000005900000630000003NN  NNW 000                       N    
RDG09720300WATAL000000006K00000000000000001006008052015115559N000100000010U91       000080600K 10000000010000000001           
RDG09720300WATBL000000006K00000000000004904006108052015115619N000400000010U91       000200600K 10000000010000004748           
CUS0972030000109406398009         SAROC LIMITED PARTNE66 LOVETON CIR                          000N        CARE OF             
MTR09720300002000000000000000RA              7219023     000600600000006000000390000003NN  NNW 000   FIRE SERVICE        N    
RDG09720300WATAL000000006K00000000000000004006208052015115627N000100000010U91       000080600K 10000000010000000004           
RDG09720300WATBL000000006K00000000000000045006308052015115647N000400000010U91       000200600K 10000000010000000044           
CUS0972030000109406400003         SAROC LIMITED PARTNE66 LOVETON CIR                          000N        CARE OF             
MTR09720300001000000000000000RA              90000106    000200610000006100000570000003NN  NNW 000                       N    
RDG09720300WATRL000000005K00000000000002487006408052015115707N000000000000U91       000200500K 10000000010000002383           
CUS0972030000109429587000         KELLY & ASSOCIATES I1 FILA WAY                              000N        CARE OF             
MTR09720300002000000000000000RA              70067463    000800620000006200000560000000NN  NNW 000                       N    
RDG09720300WATAL000000006K00000000000000385006508052015115713N000000000000U91       000060600K 10000000010000000259           
RDG09720300WATBL000000006K00000000000006610006608052015115723N000400000010U91       000100600K 10000000010000005042           
CUS0972030000109395031009         UPS                 14402 YORK RD                           000N        CARE OF             
MTR09720300002000000000000000RA              7182376     001000630000006300000540000003NN  NNW 000                       N    
RDG09720300WATAL000000007K00000000000000001006708052015115729N000100000010U91       000060700K 10000000010000000001           
RDG09720300WATBL000000007K00000000000011014006808052015115800N000400000010U91       000310700K 10000000010000010271           
CUS0972030000109403576003         LOVETON/YORK LIMITED72 LOVETON CIR                          000N        CARE OF             
MTR09720300001000000000000000RA              7197623     000800640000006400000340000003NN  NNW 000   FIRE SERVICE        N    
RDG09720300WATRL000000006K00000000000000006006908052015115806N000000000000U91       000060600K 10000000010000000006           
CUS0972030000109403578009         LOVETON/YORK LIMITED72 LOVETON CIR                          000N        CARE OF             
MTR09720300001000000000000000RA              28594320    000200650000006500000520000003NN  NNW 000                       N    
RDG09720300WATRL000000005K00000000000025600007008052015122152N000300000010U91       014260500K 10000000010000025063           
CUS0972030000109426141009         TOWER POINT LOT BB L900 RIDGEBROOK RD                       000N        CARE OF             
MTR09720300002000000000000000RA              70048460    000800660000006600000560000003NN  NNW 000                       N    
RDG09720300WATAL000000006K00000000000004278007108052015122202N000300000010U91       000100600K 10000000010000004150           
RDG09720300WATBL000000006K00000000000030319007208052015122210N000400000010U91       000080600K 10000000010000027424           
CUS0972030000109443678009         HIGHLANDS OFFICE PAR936 RIDGEBROOK RD                       000N        CARE OF             
MTR09720300001000000000000000RA              0717886     000800670000006700000390000000NY  NNW 000                       N    
MTM097203000717886     TWO DIALS 000001               03267                                                                   
RDG09720300WATRL000000006K00000000000003267007308052015122235N000000000000U91       000250600K 10000000010000003116           
CUS0972030000109435178000         HIGHLAND PARTNERS LL940 RIDGEBROOK RD                       000N        CARE OF             
MTR09720300002000000000000000RA              0008066     000800680000006800000630000000NN  NNW 000                       N    
RDG09720300WATAL000000006K00000000000000001007408052015122319N000100000010U91       000440600K 10000000010000000001           
RDG09720300WATBL000000006K00000000000023385007508052015122328N000400000010U91       000090600K 10000000010000022301           
CUS0972030000109436345004         911 RIDGEBROOK ROAD 913 RIDGEBROOK RD                       000N        CARE OF             
MTR09720300002000000000000000RA              0207832     000800690000006900000630000000NN  NNW 000                       N    
RDG09720300WATAL000000006K00000000000000000007608052015122333N000100000010U91       000050600K 10000000010000000000           
RDG09720300WATBL000000006K00000000000006510007708052015122341N000400000010U91       000080600K 10000000010000006185           
CUS0972030000109438214000         HIGHLANDS OFFICE PAR950 RIDGEBROOK RD                       000N        CARE OF             
MTR09720300002000000000000000RA              0503391     000800700000007000000630000000NN  NNW 000                       N    
RDG09720300WATAL000000006K00000000000000002007808052015122346N000100000010U91       000050600K 10000000010000000002           
RDG09720300WATBL000000006K00000000000011296007908052015122354N000400000010U91       000080600K 10000000010000010689           
CUS0972030000109402841002         SHAWAN NORTH PARTNER11426 YORK RD                           000N        CARE OF             
MTR09720300001000000000000000RA              7234869     000600710000007100000340000003NN  NNW 000   FIRE SERVICE        N    
RDG09720300WATRL000000006K00000000000000023001908042015121841N000000000000N91       000810600K 10000000010000000023           
CUS0972030000109402843008         SHAWAN NORTH PARTNER11426 YORK RD                           000N        CARE OF             
MTR09720300001000000000000000RA              29724281    001500720000007200000520000003NN  NNW 000                       N    
RDG09720300WATRL000000005K00000000000007085002008042015121847N000000000000N91       000060500K 10000000010000007034           
CUS0972030000109360087002         HUNT VALLEY HOLDINGS118 SHAWAN RD                           000N        CARE OF             
MTR09720300002000000000000000RA              6087777     000800730000007300000630000003NN  NNW 000                       N    
RDG09720300WATAL000000006K00000000000000121002108042015121852N000100000010N91       000050600K 10000000010000000121           
RDG09720300WATBL000000006K00000000000140229002208042015121900N000400000010N91       000080600K 10000000010000130993           
CUS0972030000109361923007         HUNT VALLEY HOLDINGS118 SHAWAN RD                           000N        CARE OF             
MTR09720300002000000000000000RA              7026392     000800740000007400000630000003NN  NNW 000                       N    
RDG09720300WATAL000000006K00000000000000220008008052015122417N000100000010U91       000230600K 10000000010000000220           
RDG09720300WATBL000000006K00000000000090739008108052015122426N000400000010U91       000090600K 10000000010000074281           
CUS0972030000109360086004         GRAND LODGE OF A.F.&200 SHAWAN RD                           000N        CARE OF             
MTR09720300002000000000000000RA              6047499     000800750000007500000540000003NN  NNW 000                       N    
RDG09720300WATAL000000006K00000000000000005002308042015121941N000100000010N91       000410600K 10000000010000000005           
RDG09720300WATBL000000006K00000000000027152002408042015121948N000400000010N91       000070600K 10000000010000024487           
CUS0972030000109388080005         CENTERPOINTE LIMITED200-12 INTERNATIONAL CIR                000N        CARE OF             
MTR09720300001000000000000000RA              E20756      000600760000007600000430000003NN  NNW 000   FIRE SERVICE        N    
RDG09720300WATRL000000006K00000000000000076002508042015121955N000000000010N91       000070600K 10000000010000000073           
CUS0972030000109388081003         BALTIMORE MD GREEN I200-12 INTERNATIONAL CIR                000N        CARE OF             
MTR09720300001000000000000000RA              1451693     000300770000007700000490000003NN  NNW 000                       N    
RDG09720300WATRL000000005K00000000000023099002608042015122037N000000000000N91       000420500K 10000000010000022090           
CUS0972030000109432346006         HIGH VIEW @ HUNT VLY218 INTERNATIONAL CIR                   000N        CARE OF             
MTR09720300002000000000000000RA              4758        001200780000007800000540000000NN  NNW 000                       N    
RDG09720300WATAL000000007K00000000000000057002708042015122100N000400000010N91       000230700K 10000000010000000056           
RDG09720300WATBL000000007K00000000000126300002808042015122110N000400000010N91       000100700K 10000000010000120803           
CUS0972030000109403966006         GRAND LODG OF A.F.&A300 INTERNATIONAL CIR                   000N        CARE OF             
MTR09720300002000000000000000RA              8028651     001000790000007900000480000003NN  NNW 000                       N    
RDG09720300WATAL000000007K00000000000000003002908042015122145N000100000010N91       000350700K 10000000010000000003           
RDG09720300WATBL000000007K00000000000050177003008042015122154N000400000010N91       000090700K 10000000010000047293           
CUS0972030000109395176002         LIBERTY PROPERTY TRU307 INTERNATIONAL CIR                   000N        CARE OF             
MTR09720300002000000000000000RA              7213856     001000800000008000000630000003NN  NNW 000                       N    
RDG09720300WATAL000000007K00000000000000001003108042015122200N000100000010N91       000060700K 10000000010000000001           
RDG09720300WATBL000000007K00000000000024810003208042015122209N000400000010N91       000090700K 10000000010000023730           
CUS0972030000109400008000         MERRITT-IC1 LLC     303 INTERNATIONAL CIR                   000N        CARE OF             
MTR09720300001000000000000000RA              0609468     000300810000008100000640000003NN  NNW 000                       N    
RDG09720300WATRL000000005K00000000000008790003308042015122233N000000000000N91       000240500K 10000000010000007865           
CUS0972030000109400006004         MERRITT-IC1 LLC     303 INTERNATIONAL CIR                   000N        CARE OF             
MTR09720300001000000000000000RA              E23081      000600820000008200000430000003NN  NNW 000   FIRE SERVICE        N    
RDG09720300WATRL000000006K00000000000000000003408042015122236N000000000000N91       000030600K 10000000010000000000           
CUS0972030000109400197001         KELLY FAMILY ENTERPR301 INTERNATIONAL CIR                   000N        CARE OF             
MTR09720300001000000000000000RA              36700458    001500830000008300000520000003NN  NNW 000                       N    
RDG09720300WATRL000000005K00000000000013223008208052015122505N000000000000U91       000390500K 10000000010000013123           
CUS0972030000109400195005         KELLY FAMILY ENTERPR301 INTERNATIONAL CIR                   000N        CARE OF             
MTR09720300001000000000000000RA              E23084      000600840000008400000430000003NN  NNW 000   FIRE SERVICE        N    
RDG09720300WATRL000000006K00000000000000000008308052015122508N000000000000U91       000030600K 10000000010000000000           
CUS0972030000109392665007         MEDICAL MUTUAL LIABI225 INTERNATIONAL CIR                   000N        CARE OF             
MTR09720300001000000000000000RA              1228587     000300850000008500000470000003NY  NNW 000                       N    
MTM097203001228587     TWO DIALS 08208                3813                                                                    
RDG09720300WATRL000000005K00000000000003813008408052015122634N000300000010U91       000860500K 10000000010000003902           
CUS0972030000109392663002         MEDICAL MUTUAL LIABI225 INTERNATIONAL CIR                   000N        CARE OF             
MTR09720300001000000000000000RA              E22921      000600860000008600000430000003NN  NNW 000   FIRE SERVICE        N    
RDG09720300WATRL000000006K00000000000000050008508052015122643N000100000010U91       000090600K 10000000010000000050           
CUS0972030000109389103004         MARRIOTT CFRST, SITE221 INTERNATIONAL CIR                   000N        CARE OF             
MTR09720300002000000000000000RA              7164717     000800870000008700000630000003NN  NNW 000                       N    
RDG09720300WATAL000000006K00000000000000001008608052015122649N000100000010U91       000060600K 10000000010000000001           
RDG09720300WATBL000000006K00000000000025291008708052015122658N000400000010U91       000090600K 10000000010000023489           
CUS0972030000109373784009         217 INTERNATIONAL CI217 INTERNATIONAL CIR                   000N        CARE OF             
MTR09720300001000000000000000RA              01105100    001500880000008800000610000003NN  NNW 000                       N    
RDG09720300WATRL000000005K00000000000001741008808052015122702N000000000000U91       000040500K 10000000010000001724           
CUS0972030000109373783001         217 INTERNATIONAL CI217 INTERNATIONAL CIR                   000N        CARE OF             
MTR09720300001000000000000000RA              E16726      000600890000008900000430000003NN  NNW 000   FIRE SERVICE        N    
RDG09720300WATRL000000006K00000000000000000008908052015122706N000000000000U91       000040600K 10000000010000000000           
CUS0972030000109381108001         IA URBAN HOTESL HUNT213 INTERNATIONAL CIR                   000N        CARE OF             
MTR09720300002000000000000000RA              7102423     001000900000009000000630000003NN  NNW 000                       N    
RDG09720300WATAL000000007K00000000000000003009008052015122712N000100000010U91       000060700K 10000000010000000003           
RDG09720300WATBL000000007K00000000000097330009108052015122736N000400000010U91       000240700K 10000000010000092104           
CUS0972030000102446085009         203 INTERNATIONAL LP203 INTERNATIONAL CIR                   000N        CARE OF             
MTR09720300001000000000000000RA              30001228    007500910000009100000570000000NN  NNW 000                       N    
RDG09720300WATRL000000004K00000000000000101009208052015122740N000000000000U91       000040400K 10000000010000000096           
CUS0972030000109374026004         BALTIMORE MD GREEN I201 INTERNATIONAL CIR                   000N        CARE OF             
MTR09720300002000000000000000RA              7045907     000800920000009200000630000003NN  NNW 000                       N    
RDG09720300WATAL000000006K00000000000000001009308052015122809N000100000010U91       000290600K 10000000010000000001           
RDG09720300WATBL000000006K00000000000000983009408052015122822N000400000010U91       000130600K 10000000010000000750           
CUS0972030000109381107003         MCCORMICK & COMPANY 211 SCHILLING CIR                       000N        CARE OF             
MTR09720300002000000000000000RA              7095852     000800930000009300000480000003NN  NNW 000                       N    
RDG09720300WATAL000000006K00000000000000003009508052015122829N000100000010U91       000070600K 10000000010000000003           
RDG09720300WATBL000000006K00000000000018957009608052015122841N000400000010U91       000120600K 10000000010000017996           
CUS0972030000109436877006         MERRITT-SC1 LLC     215 SCHILLING CIR                       000N        CARE OF             
MTR09720300001000000000000000RA              8042231     000800940000009400000380000003NN  NNW 000   FIRE SERVICE        N    
RDG09720300WATRL000000006K00000000000000006009708052015122852N000000000010U91       000110600K 10000000010000000005           
CUS0972030000109436879002         MERRITT-SC1 LLC     215 SCHILLING CIR                       000N        CARE OF             
MTR09720300001000000000000000RA              01104904    001500950000009500000610000000NN  NNW 000                       N    
RDG09720300WATRL000000005K00000000000006062009808052015122859N000300000010U91       000070500K 10000000010000005510           
CUS0972030000109396971005         216 SCHILLING REALTY216 SCHILLING CIR                       000N        CARE OF             
MTR09720300001000000000000000RA              E22513      000600960000009600000430000003NN  NNW 000   FIRE SERVICE        N    
RDG09720300WATRL000000006K00000000000000121009908052015122902N000000000000U91       000030600K 10000000010000000121           
CUS0972030000109396970007         216 SCHILLING REALTY216 SCHILLING CIR                       000N        CARE OF             
MTR09720300001000000000000000RA              70000055    001500970000009700000570000003NN  NNW 000                       N    
RDG09720300WATRL000000005K00000000000001644010008052015122936N000000000000U91       000340500K 10000000010000001528           
CUS0972030000109352999008         222-24 SCHILLING CIR222-24 SCHILLING CIR                    000N        CARE OF             
MTR09720300001000000000000000RA              01116827    000200980000009800000610000003NN  NNW 000                       N    
RDG09720300WATRL000000005K00000000000007015010108052015122946N000300000010U91       000100500K 10000000010000006494           
CUS0972030000109352981006         226 SCHILLING CIRCLE226-28 SCHILLING CIR                    000N        CARE OF             
MTR09720300001000000000000000RA              6029446     000600990000009900000410000003NN  NNW 000   FIRE SERVICE        N    
RDG09720300WATRL000000006K00000000000000000010208052015122957N000000000000U91       000110600K 10000000010000000000           
CUS0972030000109352982004         BALTIMORE MD GREEN I226-28 SCHILLING CIR                    000N        CARE OF             
MTR09720300001000000000000000RA              01105544    000201000000010000000610000003NN  NNW 000                       N    
RDG09720300WATRL000000005K00000000000011882010308052015123001N000000000000U91       000040500K 10000000010000011583           
CUS0972030000109364625005         MERRITT SC10 LLC    230 SCHILLING CIR                       000N        CARE OF             
MTR09720300001000000000000000RA              E13531      000601010000010100000430000003NN  NNW 000   FIRE SERVICE        N    
RDG09720300WATRL000000006K00000000000000017010408052015123007N000000000010U91       000060600K 10000000010000000016           
CUS0972030000109364626003         MERRITT SC10 LLC    230 SCHILLING CIR                       000N        CARE OF             
MTR09720300001000000000000000RA              01116838    000201020000010200000610000003NN  NNW 000                       N    
RDG09720300WATRL000000005K00000000000009182010508052015123013N000300000010U91       000060500K 10000000010000008585           
CUS0972030000109123850001         MERRITT-SC1 LLC     225 SCHILLING CIR                       000N        CARE OF             
MTR09720300001000000000000000RA              0911544     000301030000010300000640000003NN  NNW 000                       N    
RDG09720300WATRL000000005K00000000000005739010608052015123027N000300000010U91       000140500K 10000000010000005194           
CUS0972030000109123849003         MERRITT-SC1 LLC     225 SCHILLING CIR                       000N        CARE OF             
MTR09720300001000000000000000RA              4247168     000801040000010400000410000003NN  NNW 000   FIRE SERVICE        N    
RDG09720300WATRL000000006K00000000000000000010708052015123031S005000000000U91       000040600K 10000000010000000050           
CUS0972030000109446698004         MERRITT SC1, LLC    231 SCHILLING CIR                       000N        CARE OF             
MTR09720300001000000000000000RA              99999999    000601050000010500000440000000NN  NNW 000   FIRE SERVICE        N    
RDG09720300WATRL000000006K00000000000000003010808052015123036N000000000000U91       000050600K 10000000010000000003           
CUS0972030000109446697006         MERRITT SC1 LLC     231 SCHILLING CIR                       000N        CARE OF             
MTR09720300001000000000000000RA              99999999    001501060000010600000440000000NN  NNW 000                       N    
RDG09720300WATRL000000005K00000000000001246010908052015123046N000300000010U91       000100500K 10000000010000001092           
CUS0972030000109436880000         MERRITT-SC1 LLC     235 SCHILLING CIR                       000N        CARE OF             
MTR09720300001000000000000000RA              8048684     000801070000010700000380000003NN  NNW 000   FIRE SERVICE        N    
RDG09720300WATRL000000006K00000000000000031011008052015123049N000000000000U91       000030600K 10000000010000000031           
CUS0972030000109436882006         MERRITT-SC1 LLC     235 SCHILLING CIR                       000N        CARE OF             
MTR09720300001000000000000000RA              01104990    001501080000010800000610000003NN  NNW 000                       N    
RDG09720300WATRL000000005K00000000000008080011108052015123055N000000000000U91       000060500K 10000000010000007758           
CUS0972030000109123813009         B-D LABORATORIES INC250 SCHILLING CIR                       000N        CARE OF             
MTR09720300001000000000000000RA              1150680     000301090000010900000490000003NN  NNW 000                       N    
RDG09720300WATRL000000005K00000000000026088011208052015123102N000000000000U91       000070500K 10000000010000098670           
CUS0972030000109123812001         B-D LABORATORIES INC250 SCHILLING CIR                       000N        CARE OF             
MTR09720300001000000000000000RA              4247175     001001100000011000000410000003NN  NNW 000   FIRE SERVICE        N    
RDG09720300WATRL000000007K00000000000000000011308052015123107N000000000000U91       000050700K 10000000010000000000           
CUS0972030000109123814007         MURRAY CORPORATION  SS SCHILLING CIRCLE                     000N        CARE OF             
MTR09720300001000000000000000RA              4247166     000801110000011100000410000003NN  NNW 000   FIRE SERVICE        N    
RDG09720300WATRL000000006K00000000000000000011408052015123110N000000000000U91       000030600K 10000000010000000000           
CUS0972030000109123815004         MURRAY CORPORATION  SS SCHILLING CIRCLE                     000N        CARE OF             
MTR09720300001000000000000000RA              1171178     000201120000011200000490000003NY  NNW 000                       N    
MTM097203001171178     OK                                                                                                     
RDG09720300WATRL000000005K00000000000053192011508052015123119N000000000000U91       000090500K 10000000010000053192           
CUS0972030000102433432008         BENSON LYLE K       13833 THORNTON MILL RD                  000N        CARE OF             
MTR09720300001000000000000000RA              10013917    005801130000011300000570000003NN  NNW 000                       N    
RDG09720300WATRL000000004K00000000000002046011608052015123141N000000000000U91       000220400K 10000000010000001995           
RTR09720300NN01540154000001540000000001140114000057NY011401140154000400020000000000000000000001    07242015NY020000 N         
RHD09720000NN01670167000001670000000001240124000042NY012401240167000800090000000000000000000001    07242015NY020000 N         
CUS0972000000109382327006         KELLY BUILDING,LLC  20 E TIMONIUM RD                        000N        CARE OF             
MTR09720000001000000000000000RA              34953016    001500010000000100000520000003NN  NNW 000                       N    
RDG09720000WATRL000000005K00000000000021101000108012015134013N000000000000N91       000000500K 10000000010000021038           
CUS0972000000109382328004         KELLY BUILDING,LLC  20 E TIMONIUM RD                        000N        CARE OF             
MTR09720000001000000000000000RA              E18474      000600020000000200000430000003NN  NNW 000   FIRE SERVICE        N    
RDG09720000WATRL000000006K00000000000000000000208012015134015N000000000000N91       000020600K 10000000010000000000           
CUS0972000000109385492005         BDL PROPERTIES LLC  2045 YORK RD                            000N        CARE OF             
MTR09720000001000000000000000RA              35105038    001500030000000300000520000003NN  NNW 000                       N    
RDG09720000WATRL000000005K00000000000014692000308012015134019N000000000000N91       000040500K 10000000010000014654           
CUS0972000000109385491007         BDL PROPERTIES LLC  2045 YORK RD                            000N        CARE OF             
MTR09720000001000000000000000RA              E21182      000600040000000400000430000003NN  NNW 000   FIRE SERVICE        N    
RDG09720000WATRL000000006K00000000000000001000408012015134022N000000000000N91       000030600K 10000000010000000001           
CUS0972000000109395061006         NAUTILUS EQUITIES IN2047 YORK RD                            000N        CARE OF             
MTR09720000001000000000000000RA              36700384    001500050000000500000520000003NN  NNW 000                       N    
RDG09720000WATRL000000005K00000000000053299000508012015134027N000000000000N91       000050500K 10000000010000052972           
CUS0972000000109395059000         NAUTILUS EQUITIES IN2047 YORK RD                            000N        CARE OF             
MTR09720000001000000000000000RA              E22917      000600060000000600000430000003NN  NNW 000   FIRE SERVICE        N    
RDG09720000WATRL000000006K00000000000000000000608012015134030N000000000000N91       000030600K 10000000010000000000           
CUS0972000000109123753007         PEACOCK PROPERTIES I2085 YORK RD                            000N        CARE OF             
MTR09720000001000000000000000RA              01105868    000200070000000700000610000003NN  NNW 000                       N    
RDG09720000WATRL000000005K00000000000002522000708012015134035N000000000000N91       000050500K 10000000010000002477           
CUS0972000000109420289002         DINING OUT REALTY LL2119 YORK RD                            000N        CARE OF             
MTR09720000001000000000000000RA              8040027     000600080000000800000380000003NN  NNW 000   FIRE SERVICE        N    
RDG09720000WATRL000000006K00000000000000000000808012015134037N000000000000N91       000020600K 10000000010000000000           
CUS0972000000109420292006         DINING OUT REALTY LL2119 YORK RD                            000N        CARE OF             
MTR09720000001000000000000000RA              50384107    000100090000000900000520000003NN  NNW 000                       N    
RDG09720000WATRL000000004K00000000000005154000908012015134041N000000000000N91       000040400K 10000000010000004543           
CUS0972000000109123754005         TIMONIUM SHOPPING CE2157 YORK RD                            000N        CARE OF             
MTR09720000001000000000000000RA              54378047    000200100000001000000520000003NN  NNW 000                       N    
RDG09720000WATRL000000005K00000000000038192001008012015134045N000000000000N91       000040500K 10000000010000037591           
CUS0972000000109436988001         TIMONIUM SHOPPING CE2159 YORK RD                            000N        CARE OF             
MTR09720000001000000000000000RA              8048953     000600110000001100000380000000NN  NNW 000   FIRE SERVICE        N    
RDG09720000WATRL000000006K00000000000000003001108012015134049N000000000000N91       000040600K 10000000010000000003           
CUS0972000000109436990007         TIMONIUM SHOPPING CE2159 YORK RD                            000N        CARE OF             
MTR09720000001000000000000000RA              01104986    001500120000001200000610000003NY  NNW 000                       N    
MTM0972000001104986    OK                                                                                                     
RDG09720000WATRL000000005K00000000000000936001208012015134103N000300000010N91       000140500K 10000000010000001062           
CUS0972000000109382326008         THE MEADOWS,LLC     16 GREENMEADOW DR                       000N        CARE OF             
MTR09720000001000000000000000RA              34953011    001500130000001300000520000003NN  NNW 000                       N    
RDG09720000WATRL000000005K00000000000014260001308012015134107N000000000000N91       000040500K 10000000010000014153           
CUS0972000000109382329002         THE MEADOWS,LLC     16 GREENMEADOW DR                       000N        CARE OF             
MTR09720000001000000000000000RA              E18475      000600140000001400000430000003NN  NNW 000   FIRE SERVICE        N    
RDG09720000WATRL000000006K00000000000000000001408012015134110N000000000000N91       000030600K 10000000010000000000           
CUS0972000000109123756000         SMYTH REALTY INC    SS GREENMEADOW DR 700 FT                000N        CARE OF             
MTR09720000001000000000000000RA              35100972    007500150000001500000520000003NN  NNW 000                       N    
RDG09720000WATRL000000004K00000000000006119001508012015134112N000000000000N91       000020400K 10000000010000005967           
CUS0972000000109123755002         SMYTH REALTY INC    SS GREENMEADOW DR 700 FT                000N        CARE OF             
MTR09720000001000000000000000RA              5071140     000600160000001600000410000003NN  NNW 000   FIRE SERVICE        N    
RDG09720000WATRL000000006K00000000000000037001608012015134115N000000000000N91       000030600K 10000000010000000037           
CUS0972000000109387368005         2205 YORK ROAD LLC  2205 YORK RD                            000N        CARE OF             
MTR09720000001000000000000000RA              35116730    001500170000001700000520000003NN  NNW 000                       N    
RDG09720000WATRL000000005K00000000000010247001708012015134127N000000000000N91       000120500K 10000000010000010189           
CUS0972000000109387367007         2205 YORK ROAD LLC  2205 YORK RD                            000N        CARE OF             
MTR09720000001000000000000000RA              E21152      000600180000001800000430000003NN  NNW 000   FIRE SERVICE        N    
RDG09720000WATRL000000006K00000000000000000001808012015134129N000000000000N91       000020600K 10000000010000000000           
CUS0972000000109387227003         2219 YORK ROAD LLC  2219 YORK RD                            000N        CARE OF             
MTR09720000001000000000000000RA              01116735    000200190000001900000610000003NN  NNW 000                       N    
RDG09720000WATRL000000005K00000000000012954001908012015134133N000000000000N91       000040500K 10000000010000012519           
CUS0972000000109387226005         2219 YORK ROAD LLC  2219 YORK RD                            000N        CARE OF             
MTR09720000001000000000000000RA              E21167      000600200000002000000430000003NN  NNW 000   FIRE SERVICE        N    
RDG09720000WATRL000000006K00000000000000000002008012015134135N000000000000N91       000020600K 10000000010000000000           
CUS0972000000109123759004         YORK ROAD 2301 INC  2301 YORK RD                            000N        CARE OF             
MTR09720000001000000000000000RA              33734148    001500210000002100000520000003NN  NNW 000   FERRULE APPLIED     N    
RDG09720000WATRL000000005K00000000000000000002108012015134137S002000000000N91       000020500K 10000000010000029889           
CUS0972000000109454252009         YORK ROAD 2301 INC  2301 YORK RD                            000N        CARE OF             
MTR09720000001000000000000000RA              13802087    000800220000002200000390000003NY  NNW 000                       N    
MTM0972000013802087    TWO DIALS 000046               00172                                                                   
RDG09720000WATRL000000006K00000000000000172002208012015134230N000400000010N91       000530600K 10000000010000000163           
CUS0972000000109454254005         YORK ROAD 2301 INC  2235 YORK RD                            000N        CARE OF             
MTR09720000001000000000000000RA              90000421    000200230000002300000570000003NN  NNW 000                       N    
RDG09720000WATRL000000005K00000000000002568002308012015134236N000000000000N91       000060500K 10000000010000002305           
CUS0972000000109399244004         P A S T LIMITED PART2311 YORK RD                            000N        CARE OF             
MTR09720000002000000000000000RA              8013459     000800240000002400000630000003NN  NNW 000                       N    
RDG09720000WATAL000000006K00000000000000001002408012015134241N000100000010N91       000050600K 10000000010000000001           
RDG09720000WATBL000000006K00000000000016140002508012015134249N000300000010N91       000080600K 10000000010000016226           
CUS0972000000109396841000         2331 YORK ASSOCIATES2331 YORK RD                            000N        CARE OF             
MTR09720000001000000000000000RA              29724360    001500250000002500000520000003NN  NNW 000                       N    
RDG09720000WATRL000000005K00000000000008929002608012015134253N000000000000N91       000040500K 10000000010000008861           
CUS0972000000109396838006         2331 YORK ASSOCIATES2331 YORK RD                            000N        CARE OF             
MTR09720000001000000000000000RA              E23073      000600260000002600000430000003NN  NNW 000   FIRE SERVICE        N    
RDG09720000WATRL000000006K00000000000000000002708012015134256N000000000000N91       000030600K 10000000010000000000           
CUS0972000000109393185005         2345 YORK ROAD LLC  2345 YORK RD                            000N        CARE OF             
MTR09720000001000000000000000RA              01116835    000200270000002700000610000003NN  NNW 000                       N    
RDG09720000WATRL000000005K00000000000002201002808012015134300N000000000000N91       000040500K 10000000010000002064           
CUS0972000000109393183000         2345 YORK ROAD LLC  2345 YORK RD                            000N        CARE OF             
MTR09720000001000000000000000RA              E22920      000600280000002800000430000003NN  NNW 000   FIRE SERVICE        N    
RDG09720000WATRL000000006K00000000000000003002908012015134303N000000000000N91       000030600K 10000000010000000003           
CUS0972000000109391787000         PADONIA PLACE LTD PA2405 YORK RD                            000N        CARE OF             
MTR09720000001000000000000000RA              36700317    001500290000002900000520000003NN  NNW 000                       N    
RDG09720000WATRL000000005K00000000000012898003008012015134307N000000000000N91       000040500K 10000000010000012849           
CUS0972000000109391785004         PADONIA PLACE LTD PA2405 YORK RD                            000N        CARE OF             
MTR09720000001000000000000000RA              E22510      000600300000003000000430000003NN  NNW 000   FIRE SERVICE        N    
RDG09720000WATRL000000006K00000000000000087003108012015134312N000000000000N91       000050600K 10000000010000000087           
CUS0972000000109433313005         PLATINUM PROPERTIES 2420-24 YORK RD                         000N        CARE OF             
MTR09720000001000000000000000RA              01105837    000200310000003100000610000000NN  NNW 000                       N    
RDG09720000WATRL000000005K00000000000077356003208012015134317N000000000000N91       000050500K 10000000010000075520           
CUS0972000000109428176003         BROAD ST HTS LLC    2430 BROAD AVE                          000N        CARE OF             
MTR09720000002000000000000000RA              7214137     000800320000003200000480000000NN  NNW 000                       N    
RDG09720000WATAL000000006K00000000000000000003308012015134322N000100000010N91       000050600K 10000000010000000000           
RDG09720000WATBL000000006K00000000000026600003408012015134336N000400000010N91       000140600K 10000000010000024259           
CUS0972000000109123762008         PADONIA VILLAGE SHOPNS DENEISON ST 425 FT                   000N        CARE OF             
MTR09720000001000000000000000RA              1393918     000400330000003300000490000003NN  NNW 000                       N    
RDG09720000WATRL000000006K00000000000030197003508012015134350N000000000000N91       000140600K 10000000010000029363           
CUS0972000000109123761000         PADONIA VILLAGE SHOPNS DENEISON ST 425 FT                   000N        CARE OF             
MTR09720000001000000000000000RA              3480557     000600340000003400000410000003NN  NNW 000   FIRE SERVICE        N    
RDG09720000WATRL000000006K00000000000000000003608032015111541S005000000000U91       000000600K 10000000010000000169           
CUS0972000000109123760002         PADONIA VILLAGE - CR1-5 HILLBROOK CT                        000N        CARE OF             
MTR09720000001000000000000000RA              0911541     000300350000003500000460000003NN  NNW 000                       N    
RDG09720000WATRL000000005K00000000000011291003708012015134357N000000000000N91       000050500K 10000000010000010460           
CUS0972000000109454426009         VALLEY CHEVROLET INC60 E PADONIA RD                         000N        CARE OF             
MTR09720000001000000000000000RA              99999999    000600360000003600000440000000NY  NNW 000   FIRE SERVICE        N    
MTM0972000099999999    CL                                                                                                     
RDG09720000WATRL000000006K00000000000000000000000000000000000 000000000000U         000000600  10000000010000000000           
CUS0972000000109454429003         VALLEY CHEVROLET INC60 E PADONIA RD                         000N        CARE OF             
MTR09720000001000000000000000RA              99999999    000200370000003700000440000000NY  NNW 000                       N    
MTM0972000099999999    CL                                                                                                     
RDG09720000WATRL000000005K00000000000000000000000000000000000 000000000000U         000000500  10000000010000000000           
CUS0972000000109123763006         PADONIA VILLAGE SHOP61 E PADONIA RD                         000N        CARE OF             
MTR09720000001000000000000000RA              0911542     000300380000003800000460000003NN  NNW 000                       N    
RDG09720000WATRL000000005K00000000000004711003808012015134410N000000000000N91       000130500K 10000000010000004464           
CUS0972000000109123766009         PADONIA VILLAGE-CRC 74-78 PADONIA RD                        000N        CARE OF             
MTR09720000001000000000000000RA              9607712     000300390000003900000640000003NN  NNW 000                       N    
RDG09720000WATRL000000005K00000000000017050003908012015134413N000000000000N91       000030500K 10000000010000016405           
CUS0972000000109123765001         PADONIA VILLAGE-CRC 80-98 PADONIA RD                        000N        CARE OF             
MTR09720000001000000000000000RA              1362065     000300400000004000000490000003NN  NNW 000                       N    
RDG09720000WATRL000000005K00000000000046534004008012015134419N000000000000N91       000060500K 10000000010000044465           
CUS0972000000109435269007         TIMONIUM-PADONIA LLC410 PADONIA RD                          000N        CARE OF             
MTR09720000002000000000000000RA              0008067     000800410000004100000630000000NN  NNW 000                       N    
RDG09720000WATAL000000006K00000000000000001004108012015134424N000100000010N91       000050600K 10000000010000000001           
RDG09720000WATBL000000006K00000000000002571004208012015134435N000400000010N91       000110600K 10000000010000002559           
CUS0972000000109123767007         PADONIA VILLAGE-CRC 2416-34 CHETWOOD CIR                    000N        CARE OF             
MTR09720000001000000000000000RA              26483829    000300420000004200000490000003NN  NNW 000                       N    
RDG09720000WATRL000000005K00000000000049904004308012015134442N000000000000N91       000070500K 10000000010000047814           
CUS0972000000109123768005         PADONIA VILLAGE - CR2400-04 CHETWOOD CIR                    000N        CARE OF             
MTR09720000002000000000000000RA              04178318    000300430000004300000460000003NN  NNW 000                       N    
RDG09720000WATAL000000005K00000000000001145004408012015134457N000400000010N91       000150500K 10000000010000001107           
RDG09720000WATBL000000005K00000000000001512004508012015134508N000400000010N91       000110500K 10000000010000000816           
CUS0972000000109123764004         PADONIA VILLAGE-CRC 2301-11 CHETWOOD CIR                    000N        CARE OF             
MTR09720000001000000000000000RA              1362072     000300440000004400000490000003NN  NNW 000                       N    
RDG09720000WATRL000000005K00000000000000000004608032015111610S005000000000U91       000290500K 10000000010000052462           
CUS0972000000109123769003         PADONIA VILLAGE-CRC 2300-12 CHETWOOD CIR                    000N        CARE OF             
MTR09720000001000000000000000RA              9502808     000300450000004500000640000003NN  NNW 000                       N    
RDG09720000WATRL000000005K00000000000035381004708012015134827N000000000000N91       000080500K 10000000010000034277           
CUS0972000000109349425000         PADONIA ASSOCIATES  30 E PADONIA RD                         000N        CARE OF             
MTR09720000001000000000000000RA              01105418    001500460000004600000610000003NN  NNW 000                       N    
RDG09720000WATRL000000005K00000000000016226004808012015134841N000300000010N91       000140500K 10000000010000015816           
CUS0972000000109349424003         PADONIA ASSOCIATES  30 E PADONIA RD                         000N        CARE OF             
MTR09720000001000000000000000RA              5976793     000600470000004700000410000003NN  NNW 000   FIRE SERVICE        N    
RDG09720000WATRL000000006K00000000000000003004908012015134845N000000000000N91       000040600K 10000000010000000003           
CUS0972000000109360053004         BALTIMORE COUNTY MD 9827 GREENSIDE DR                       000N        CARE OF             
MTR09720000001000000000000000RA              35105039    001500480000004800000520000003NN  NNW 000                       N    
RDG09720000WATRL000000005K00000000000004414005008012015134850N000000000000N91       000050500K 10000000010000004279           
CUS0972000000109360052006         BALTIMORE COUNTY MD 9827 GREENSIDE DR                       000N        CARE OF             
MTR09720000001000000000000000RA              E13442      000600490000004900000430000003NN  NNW 000   FIRE SERVICE        N    
RDG09720000WATRL000000006K00000000000000009005108012015135048N000000000000N91       001180600K 10000000010000000009           
CUS0972000000109432380005         BOARD OF EDUCATION  9834 GREENSIDE DR                       000N        CARE OF             
MTR09720000001000000000000000RA              8047071     000600500000005000000380000000NN  NNW 000   FIRE SERVICE        N    
RDG09720000WATRL000000006K00000000000000007005208012015135051N000000000000N91       000030600K 10000000010000000006           
CUS0972000000109432379007         BOARD OF EDUCATION O9834 GREENSIDE DR                       000N        CARE OF             
MTR09720000001000000000000000RA              0908453     000300510000005100000640000000NN  NNW 000                       N    
RDG09720000WATRL000000005K00000000000006228005308012015135057N000000000000N91       000060500K 10000000010000005787           
CUS0972000000109456586008         BALTO. COUNTY SCHOOL9836 GREENSIDE DR                       000N        CARE OF             
MTR09720000001000000000000000RA              1200741     000600520000005200000640000003NN  NNW 000   FIRE SERVICE        N    
RDG09720000WATRL000000006K00000000000000000005408012015135059N000000000000N91       000020600K 10000000010000000000           
CUS0972000000109456588004         BALTO. COUNTY SCHOOL9836 GREENSIDE DR                       000N        CARE OF             
MTR09720000001000000000000000RA              90000518    000200530000005300000320000003NN  NNW 000                       N    
RDG09720000WATRL000000005K00000000000000056005508012015135104N000000000000N91       000050500K 10000000010000000039           
CUS0972000000109434546009         FENWICK PROPERTIES L9800 YORK RD                            000N        CARE OF             
MTR09720000002000000000000000RA              0208720     000800540000005400000000000003NN  NNW 000                       N    
RDG09720000WATAL000000006K00000000000000009005608012015135110N000100000010N91       000060600K 10000000010000000009           
RDG09720000WATBL000000006K00000000000000046005708012015135315N000300000010N91       001250600K 10000000010000023149           
CUS0972000000109427986006         TARGET STORES (T-1269901 YORK RD                            000N        CARE OF             
MTR09720000001000000000000000RA              8036300     000800550000005500000380000003NN  NNW 000   FIRE SERVICE        N    
RDG09720000WATRL000000006K00000000000000000005808012015135317N000000000000N91       000020600K 10000000010000000000           
CUS0972000000109427988002         TARGET CORPORATION  9901 YORK RD                            000N        CARE OF             
MTR09720000001000000000000000RA              01116849    000200560000005600000610000003NN  NNW 000                       N    
RDG09720000WATRL000000005K00000000000013446005908012015135535N000000000000N91       001380500K 10000000010000013094           
CUS0972000000109123774003         BALTIMORE COUNTY MD SEC YORK RD &                           000N        CARE OF             
MTR09720000001000000000000000RA              99169987    000200570000005700000570000003NN  NNW 000                       N    
RDG09720000WATRL000000005K00000000000005553006008012015135540N000000000000N91       000050500K 10000000010000005457           
CUS0972000000109123771009         HOME PROPERTIES     ES GREENSIDE DR 380 FT                  000N        CARE OF             
MTR09720000002000000000000000RA              5124993     000800580000005800000540000003NN  NNW 000                       N    
RDG09720000WATAL000000006K00000000000000044006108012015135621N000100000010N91       000410600K 10000000010000000044           
RDG09720000WATBL000000006K00000000000276116006208012015135629N000400000010N91       000080600K 10000000010000267571           
CUS0972000000109123772007         CENTURY WEST LIMITEDWS SORLEY RD 170 FT                     000N        CARE OF             
MTR09720000002000000000000000RA              5204106     000600590000005900000540000003NN  NNW 000                       N    
RDG09720000WATAL000000006K00000000000000016006308012015135648N000000000010N91       000190600K 10000000010000000017           
RDG09720000WATBL000000006K00000000000003174006408012015135800N000300000010N91       000720600K 10000000010000031746           
CUS0972000000109123773005         CARLTON SQUARE ASSOCES SORELY RD 450 FT                     000N        CARE OF             
MTR09720000002000000000000000RA              5705343     000800600000006000000630000003NN  NNW 000                       N    
RDG09720000WATAL000000006K00000000000000002006508012015135807N000100000010N91       000070600K 10000000010000000002           
RDG09720000WATBL000000006K00000000000024857006608012015135827N000300000010N91       000200600K 10000000010000030139           
CUS0972000000109123790009         MAGAZINE STEEPLECHASSS CRANBROOK RD 2000 FT                 000N        CARE OF             
MTR09720000002000000000000000RA              4867529     000600610000006100000540000003NN  NNW 000                       N    
RDG09720000WATAL000000006K00000000000000005006708012015140703N000100000010N91       005160600K 10000000010000000005           
RDG09720000WATBL000000006K00000000000029423006808012015140712N000400000010N91       000090600K 10000000010000027749           
CUS0972000000109123791007         MAGAZINE STEEPLECHASSS CRANBROOK RD 820 FT                  000N        CARE OF             
MTR09720000002000000000000000RA              4913623     000800620000006200000540000003NY  NNW 000                       N    
MTM097200004913623     OK                                                                                                     
RDG09720000WATAL000000006K00000000000000018006908012015140821N000400000010N91       000690600K 10000000010000000005           
RDG09720000WATBL000000006K00000000000027139007008012015140837N000300000010N91       000160600K 10000000010000075400           
CUS0972000000109123787005         BRIARCLIFF APARTMENT599 CRANBROOK RD                        000N        CARE OF             
MTR09720000001000000000000000RA              01116844    000200630000006300000610000003NN  NNW 000                       N    
RDG09720000WATRL000000005K00000000000016572007108012015140859N000300000010N91       000220500K 10000000010000015167           
CUS0972000000109123788003         BRIARCLIFF APARTMENT601-09 CRANBROOK RD                     000N        CARE OF             
MTR09720000002000000000000000RA              4486404     000800640000006400000540000003NN  NNW 000                       N    
RDG09720000WATAL000000006K00000000000000001007208012015140905N000100000010N91       000060600K 10000000010000000001           
RDG09720000WATBL000000006K00000000000080967007308012015140920N000400000010N91       000150600K 10000000010000072532           
CUS0972000000109123789001         BRIARCLIFF APARTMENT611-15 CRANBROOK RD                     000N        CARE OF             
MTR09720000002000000000000000RA              4433080     000800650000006500000540000003NN  NNW 000                       N    
RDG09720000WATAL000000006K00000000000000000007408012015140947N000300000010N91       000270600K 10000000010000000001           
RDG09720000WATBL000000006K00000000000129581007508012015140955N000400000010N91       000080600K 10000000010000121961           
CUS0972000000109123792005         CINNAMON RIDGE APARTWS CRANBROOK RD 80 FT                   000N        CARE OF             
MTR09720000002000000000000000RA              50034140    000600660000006600000540000003NN  NNW 000                       N    
RDG09720000WATAL000000006K00000000000000000007608012015141001N000100000010N91       000060600K 10000000010000000000           
RDG09720000WATBL000000006K00000000000069814007708012015141012N000400000010N91       000110600K 10000000010000055854           
CUS0972000000109123795008         ROSSBROOKE APARTMENTSS CRANBROOK RD                         000N        CARE OF             
MTR09720000002000000000000000RA              5603838     000800670000006700000540000003NN  NNW 000                       N    
RDG09720000WATAL000000006K00000000000999992007808012015141026N000300000010N91       000140600K 10000000010000000000           
RDG09720000WATBL000000006K00000000000309252007908012015141041N000300000010N91       000150600K 10000000010000309255           
CUS0972000000109123794001         HENDERSON-WEBB INC  1025 CRANBROOK RD                       000N        CARE OF             
MTR09720000001000000000000000RA              01105589    000200680000006800000610000003NN  NNW 000                       N    
RDG09720000WATRL000000005K00000000000003987008008012015141046N000000000000N91       000050500K 10000000010000003833           
CUS0972000000109369603007         LAKECREST APARTMENTS15 BRIDGELAKE CIR                       000N        CARE OF             
MTR09720000002000000000000000RA              7045848     000800690000006900000630000003NY  NNW 000                       N    
MTM097200007045848     NO ACCESS                                                                                              
RDG09720000WATAL000000006K00000000000000000000000000000000000 000000000000U         000000600  10000000010000000010           
RDG09720000WATBL000000006K00000000000000000000000000000000000 000000000000U         000000600  10000000010000044061           
CUS0972000000109374614007         WINTERGREEN APARTMEN317 LAKE VISTA CIR                      000N        CARE OF             
MTR09720000002000000000000000RA              7045849     000800700000007000000540000003NN  NNW 000                       N    
RDG09720000WATAL000000006K00000000000000062008108012015141056N000100000010N91       000100600K 10000000010000000062           
RDG09720000WATBL000000006K00000000000140536008208012015141108N000400000010N91       000120600K 10000000010000134343           
CUS0972000000109348741001         DULANEY SPRING APARTES LAKESPRING WAY                       000N        CARE OF             
MTR09720000001000000000000000RA              1171547     000200710000007100000490000003NN  NNW 000                       N    
RDG09720000WATRL000000005K00000000000003476008308012015141112N000000000000N91       000040500K 10000000010000002901           
CUS0972000000109352344007         KINGS CROSSING APART2-13 KINGS CROSSING CT                  000N        CARE OF             
MTR09720000002000000000000000RA              6029513     000800720000007200000630000003NN  NNW 000                       N    
RDG09720000WATAL000000006K00000000000000002008408012015141117N000100000010N91       000050600K 10000000010000000002           
RDG09720000WATBL000000006K00000000000026873008508012015141126N000400000010N91       000090600K 10000000010000025700           
CUS0972000000109362690001         DULANEY SPRINGS APAR6 QUEENSBRIDGE CT                       000N        CARE OF             
MTR09720000002000000000000000RA              7026388     000800730000007300000630000003NN  NNW 000                       N    
RDG09720000WATAL000000006K00000000000000002008608012015141132N000100000010N91       000060600K 10000000010000000002           
RDG09720000WATBL000000006K00000000000026358008708012015141140N000400000010N91       000080600K 10000000010000025123           
CUS0972000000109364627001         LAKE VIEW APARTMENT 10308 SUNNYLAKE PL                      000N        CARE OF             
MTR09720000002000000000000000RA              7026375     000800740000007400000630000003NN  NNW 000                       N    
RDG09720000WATAL000000006K00000000000000004008808012015141150N000100000010N91       000100600K 10000000010000000004           
RDG09720000WATBL000000006K00000000000052779008908012015141157N000400000010N91       000070600K 10000000010000050639           
CUS0972000000109432901008         BOARD OF EDUCATION  900 BOSLEY RD                           000N        CARE OF             
MTR09720000001000000000000000RA              8046902     000600750000007500000380000000NN  NNW 000   FIRE SERVICE        N    
RDG09720000WATRL000000006K00000000000000010009008012015141202N000000000000N91       000050600K 10000000010000000010           
CUS0972000000109432903004         BOARD OF EDUCATION O900 BOSLEY RD                           000N        CARE OF             
MTR09720000002000000000000000RA              20000034    000300760000007600000460000000NN  NNW 000                       N    
RDG09720000WATAL000000005K00000000000001017009108012015141212N000400000010N91       000100500K 10000000010000000963           
RDG09720000WATBL000000005K00000000000001260009208012015141233N000400000011N91       000170500K 10000000010000001197           
CUS0972000000109123802002         TOPFIELD CONDO ASSOCWS POT SPRING RD 1080 FT                000N        CARE OF             
MTR09720000002000000000000000RA              5275674     000800770000007700000630000003NN  NNW 000                       N    
RDG09720000WATAL000000006K00000000000000004009308012015141239N000100000010N91       000060600K 10000000010000000004           
RDG09720000WATBL000000006K00000000000031214009408012015141247N000400000010N91       000080600K 10000000010000029845           
CUS0972000000109123803000         HOME PROPERTIES     ES ANGLOHILL RD 350 FT                  000N        CARE OF             
MTR09720000002000000000000000RA              5417378     000800780000007800000540000003NN  NNW 000                       N    
RDG09720000WATAL000000006K00000000000000005009508012015141253N000100000010N91       000060600K 10000000010000000005           
RDG09720000WATBL000000006K00000000000049790009608012015141305N000400000010N91       000120600K 10000000010000046908           
CUS0972000000109350875002         WARREN COMMON HOME A2 WARREN CMN                            000N        CARE OF             
MTR09720000002000000000000000RA              5760448     000800790000007900000540000003NN  NNW 000                       N    
RDG09720000WATAL000000006K00000000000000000009708012015141310N000100000010N91       000050600K 10000000010000000000           
RDG09720000WATBL000000006K00000000000012035009808012015141315N000400000010N91       000050600K 10000000010000001115           
CUS0972000000109123793003         HOGARTH APARTMENT CO800 CRANBROOK RD                        000N        CARE OF             
MTR09720000002000000000000000RA              4672930     000800800000008000000540000003NN  NNW 000                       N    
RDG09720000WATAL000000006K00000000000000000009908012015141320N000100000010N91       000050600K 10000000010000000000           
RDG09720000WATBL000000006K00000000000212252010008012015141333N000400000010N91       000130600K 10000000010000199960           
CUS0972000000109123796006         CRANBROOK HILLS APT.NS CRANBROOK RD 920 FT                  000N        CARE OF             
MTR09720000002000000000000000RA              5124972     000600810000008100000480000003NN  NNW 000                       N    
RDG09720000WATAL000000006K00000000000000000010108012015141354N000100000010N91       000210600K 10000000010000000000           
RDG09720000WATBL000000006K00000000000027094010208012015141407N000400000010N91       000130600K 10000000010000025837           
CUS0972000000109123797004         CRANBROOK HILLS APTSES RIDGELAND RD 450 FT                  000N        CARE OF             
MTR09720000002000000000000000RA              5124969     000600820000008200000630000003NY  NNW 000                       N    
MTM097200005124969     OK                                                                                                     
RDG09720000WATAL000000006K00000000000000001010308012015141412N000100000010N91       000050600K 10000000010000000001           
RDG09720000WATBL000000006K00000000000037080010408012015141427N000300000010N91       000150600K 10000000010000041912           
CUS0972000000109123798002         CRANBROOK PLAZA     572-98 CRANBROOK RD                     000N        CARE OF             
MTR09720000002000000000000000RA              5275654     000600830000008300000540000003NN  NNW 000                       N    
RDG09720000WATAL000000006K00000000000000072010508012015141431N000000000000N91       000040600K 10000000010000000072           
RDG09720000WATBL000000006K00000000000001164010608012015141437N000400000010N91       000060600K 10000000010000001128           
CUS0972000000109123799000         BRIARCLIFF NORTH    WS CRANBROOK RD                         000N        CARE OF             
MTR09720000002000000000000000RA              5275669     000800840000008400000540000003NN  NNW 000                       N    
RDG09720000WATAL000000006K00000000000000013010708012015141449N000400000010N91       000120600K 10000000010000000001           
RDG09720000WATBL000000006K00000000000029626010808012015141507N000300000010N91       000180600K 10000000010000077946           
CUS0972000000109123800006         CARLTON SQUARE HOMEOSWC CRANBROOK RD &                      000N        CARE OF             
MTR09720000001000000000000000RA              7177036     000400850000008500000640000003NN  NNW 000                       N    
RDG09720000WATRL000000006K00000000000013087010908012015141524N000000000000N91       000170600K 10000000010000012357           
CUS0972000000109123784002         BALTO CO PUBLIC SCHO10401 GREENSIDE DR                      000N        CARE OF             
MTR09720000001000000000000000RA              77897374    000400860000008600000000000003NN  NNW 000                       N    
RDG09720000WATRL000000006K00000000000000142011008012015141529N000000000000N91       000050600K 10000000010000000053           
CUS0972000000109123783004         BD. OF ED. BALTO. CO10401 GREENSIDE DR                      000N        CARE OF             
MTR09720000002000000000000000RA              4597829     000800870000008700000390000003NN  NNW 000   FIRE SERVICE        N    
RDG09720000WATAL000000006K00000000000000000011108012015141534N000100000010N91       000050600K 10000000010000000000           
RDG09720000WATBL000000006K00000000000000000011208012015141539N000100000010N91       000050600K 10000000010000000000           
CUS0972000000109123786007         SOUTHERN MANAGEMENT SS CRANBROOK RD 480 FT                  000N        CARE OF             
MTR09720000001000000000000000RA              70880417    000300880000008800000470000003NN  NNW 000                       N    
RDG09720000WATRL000000005K00000000000015605011308012015141626N000300000010N91       000470500K 10000000010000014158           
CUS0972000000109123785009         SOUTHERN MANAGEMENT SS CRANBROOK RD 575 FT                  000N        CARE OF             
MTR09720000002000000000000000RA              4586475     000800890000008900000540000003NN  NNW 000                       N    
RDG09720000WATAL000000006K00000000000001333011408012015141632N000100000010N91       000060600K 10000000010000001333           
RDG09720000WATBL000000006K00000000000325216011508012015141641N000400000010N91       000090600K 10000000010000307418           
CUS0972000000109123777006         CEDAR-YORKTOWNE LLC SS HALESWORTH RD 400 FT                 000N        CARE OF             
MTR09720000001000000000000000RA              1362450     000300900000009000000490000003NN  NNW 000                       N    
RDG09720000WATRL000000005K00000000000033620011608012015141645N000000000000N91       000040500K 10000000010000031740           
CUS0972000000109123776008         CEDAR-YORKTOWNE LLC SS HALESWORTH RD 400 FT                 000N        CARE OF             
MTR09720000001000000000000000RA              4733204     000800910000009100000410000003NN  NNW 000   FIRE SERVICE        N    
RDG09720000WATRL000000006K00000000000000000011708012015141648N000000000000N91       000030600K 10000000010000000000           
CUS0972000000109436278007         YORK MARKETPLACE LLC10015 YORK RD                           000N        CARE OF             
MTR09720000002000000000000000RA              0109765     000800920000009200000630000000NN  NNW 000                       N    
RDG09720000WATAL000000006K00000000000000000011808012015141652N000100000010N91       000040600K 10000000010000000000           
RDG09720000WATBL000000006K00000000000024586011908012015141659N000400000010N91       000070600K 10000000010000023596           
CUS0972000000109443563003         BKL HALESWORTH MANGE10111 YORK RD                           000N        CARE OF             
MTR09720000002000000000000000RA              0806865     000800930000009300000390000000NY  NNW 000                       N    
MTM097200000806865     NO ACCESS   CONSTR                                                                                     
RDG09720000WATAL000000006K00000000000000000000000000000000000 000000000000U         000000600  10000000010000000000           
RDG09720000WATBL000000006K00000000000000000000000000000000000 000000000000U         000000600  10000000010000000000           
CUS0972000000109436647003         BKL YORK III LLC    10125 YORK RD                           000N        CARE OF             
MTR09720000002000000000000000RA              10109763    000800940000009400000630000000NN  NNW 000                       N    
RDG09720000WATAL000000006K00000000000000000012008012015141722N000000000000N91       000230600K 10000000010000000000           
RDG09720000WATBL000000006K00000000000000000012108012015141727N000100000010N91       000050600K 10000000010000000000           
CUS0972000000109440353002         DELLCREST REALTY COM10117 YORK RD                           000N        CARE OF             
MTR09720000001000000000000000RA              1395682     000200950000009500000490000000NN  NNW 000                       N    
RDG09720000WATRL000000005K00000000000065242012208012015141735N000000000000N91       000080500K 10000000010000063383           
CUS0972000000109429049001         BKL YORK II LLC     10139 YORK RD                           000N        CARE OF             
MTR09720000001000000000000000RA              99170683    000200960000009600000570000000NN  NNW 000                       N    
RDG09720000WATRL000000005K00000000000011137012308012015141740N000000000000N91       000050500K 10000000010000010847           
CUS0972000000109397619009         YORK ROAD INVESTORS 10151-55 YORK RD                        000N        CARE OF             
MTR09720000002000000000000000RA              7222551     000800970000009700000480000003NN  NNW 000                       N    
RDG09720000WATAL000000006K00000000000000042012408012015141813N000400000010N91       000330600K 10000000010000000005           
RDG09720000WATBL000000006K00000000000016306012508012015141821N000300000010N91       000080600K 10000000010000016543           
CUS0972000000109123778004         STILLPOND CONDOMINIUES YORK RD 460 FT                       000N        CARE OF             
MTR09720000002000000000000000RA              5275657     000600980000009800000540000003NN  NNW 000                       N    
RDG09720000WATAL000000006K00000000000000001000308032015111759N000100000020U91       001090600K 10000000010000000001           
RDG09720000WATBL000000006K00000000000000000000408032015111805S005000000000U91       000060600K 10000000010000026129           
CUS0972000000109123779002         SCOTTS CORNER LP II SEC SCOTT ADAM RD &                     000N        CARE OF             
MTR09720000002000000000000000RA              4683191     000600990000009900000630000003NN  NNW 000                       N    
RDG09720000WATAL000000006K00000000000000000000508032015111812N000100000010U91       000070600K 10000000010000000000           
RDG09720000WATBL000000006K00000000000012808000608032015111819N000400000010U91       000070600K 10000000010000012295           
CUS0972000000109123781008         BALTIMORE COUNTY FIR52 SCOTT ADAM RD                        000N        CARE OF             
MTR09720000001000000000000000RA              35115920    005801000000010000000520000003NN  NNW 000                       N    
RDG09720000WATRL000000004K00000000000005129000708032015111827N000000000000U91       000080400K 10000000010000005120           
CUS0972000000109123780000         HAMPTON MANOR LIMITE101-13 SCOTT ADAM RD                    000N        CARE OF             
MTR09720000002000000000000000RA              4558274     000801010000010100000540000003NN  NNW 000                       N    
RDG09720000WATAL000000006K00000000000000003000808032015111835N000100000010U91       000080600K 10000000010000000003           
RDG09720000WATBL000000006K00000000000050887000908032015111843N000400000010U91       000080600K 10000000010000047835           
CUS0972000000109123782006         WARREN LODGE CONDO. 2 WARREN LODGE CT                       000N        CARE OF             
MTR09720000001000000000000000RA              9500844     000401020000010200000640000003NN  NNW 000                       N    
RDG09720000WATRL000000006K00000000000000000001008032015111846S022000000000U91       000030600K 10000000010000001073           
CUS0972000000109356833005         10 WARREN ROAD LLC  10-12 WARREN RD                         000N        CARE OF             
MTR09720000001000000000000000RA              01105420    001501030000010300000610000003NN  NNW 000                       N    
RDG09720000WATRL000000005K00000000000000000001108032015111851S022000000000U91       000050500K 10000000010000000671           
CUS0972000000109446792005         10 WARREN ROAD LLC  10 WARREN RD                            000N        CARE OF             
MTR09720000001000000000000000RA              70000266    001501040000010400000570000000NN  NNW 000                       N    
RDG09720000WATRL000000005K00000000000002511001208032015111855N000000000000U91       000040500K 10000000010000002304           
CUS0972000000109446793003         10 WARREN ROAD LLC  10 WARREN RD                            000N        CARE OF             
MTR09720000001000000000000000RA              0006867     000601050000010500000570000003NN  NNW 000   FIRE SERVICE        N    
RDG09720000WATRL000000006K00000000000000000001308032015111858N000000000000U91       000030600K 10000000010000000000           
CUS0972000000109447351009         TIMONIUM LLC        10300 YORK RD                           000N        CARE OF             
MTR09720000002000000000000000RA              12800388    000801060000010600000570000003NN  NNW 000                       N    
RDG09720000WATAL000000006K00000000000000028001408032015111907N000400000010U91       000090600K 10000000010000000000           
RDG09720000WATBL000000006K00000000000004017001508032015111914N000400000010U91       000070600K 10000000010000003421           
CUS0972000000109456924001         BILL KIDDS TOYOTA   10401 YORK RD                           000N        CARE OF             
MTR09720000001000000000000000RA              99999999    000801070000010700000440000000NN  NNW 000   FIRE SERVICE        N    
RDG09720000WATRL000000006K00000000000000000001608032015111925N000000000010U91       000110600K 10000000010000001120           
CUS0972000000109456926006         BILL KIDDS TOYOTA   10401 YORK RD                           000N        CARE OF             
MTR09720000001000000000000000RA              99999999    000201080000010800000440000000NN  NNW 000                       N    
RDG09720000WATRL000000005K00000000000099993001708032015111938N000300000010U91       000130500K 10000000010000000246           
CUS0972000000109454554008         WALGREENS CO.       10410 YORK RD                           000N        CARE OF             
MTR09720000001000000000000000RA              1200234     000601090000010900000440000003NN  NNW 000   FIRE SERVICE        N    
RDG09720000WATRL000000006K00000000000000000001808032015111941N000000000000U91       000030600K 10000000010000000000           
CUS0972000000109454556003         WALGREENS CO.       10410 YORK RD                           000N        CARE OF             
MTR09720000001000000000000000RA              70000399    001501100000011000000570000003NN  NNW 000                       N    
RDG09720000WATRL000000005K00000000000000236001908032015111944N000000000000U91       000030500K 10000000010000000225           
CUS0972000000109426259009         COCKEYSVILLE ELEMENT10535 YORK RD                           000N        CARE OF             
MTR09720000002000000000000000RA              1421379     000401110000011100000470000003NN  NNW 000                       N    
RDG09720000WATAL000000006K00000000000000082002008032015111951N000400000010U91       000070600K 10000000010000000072           
RDG09720000WATBL000000006K00000000000000811002108032015111957N000300000010U91       000060600K 10000000010000009897           
CUS0972000000109426257003         COCKEYSVILLE ELEMENT10535 YORK RD                           000N        CARE OF             
MTR09720000001000000000000000RA              8042257     000601120000011200000380000003NN  NNW 000   FIRE SERVICE        N    
RDG09720000WATRL000000006K00000000000000019002208032015112000N000000000000U91       000030600K 10000000010000000019           
CUS0972000000109388857006         A & L REAL ESTATE   10755 YORK RD                           000N        CARE OF             
MTR09720000002000000000000000RA              7180044     000801130000011300000630000003NY  NNW 000                       N    
MTM097200007180044     NO ACCESS                                                                                              
RDG09720000WATAL000000006K00000000000000000000000000000000000 000000000000U         000000600  10000000010000000001           
RDG09720000WATBL000000006K00000000000000000000000000000000000 000000000000U         000000600  10000000010000004732           
CUS0972000000109428008008         COCKEYSVILLE SENIOR 10881 YORK RD                           000N        CARE OF             
MTR09720000001000000000000000RA              90000242    000201140000011400000570000003NN  NNW 000                       N    
RDG09720000WATRL000000005K00000000000001713002308032015112039N000000000000U91       000390500K 10000000010000001624           
CUS0972000000109428006002         10881 YORK ROAD LLC 10881 YORK RD                           000N        CARE OF             
MTR09720000002000000000000000RA              70066701    000801150000011500000560000003NN  NNW 000   FIRE SERVICE        N    
