FHDNNNN008001678001678001678N                                                                                           005101
RHD08543100NN02780278000002780000000002780278000429NY027802780278000600020000000000000000000002    07162015NY020000 N         
CUS0854310000108382283003         ANNE ALTEMUS        702 OELLA AVE                           000N        CARE OF             
MTR08543100001000000000000000RA              35097251    005800010000000100000520000003NN  NNW 000                       N    
RDG08543100WATRL000000004K00000000000002709000108012015070432N000000000000N85       000000400K 10000000010000002701           
CUS0854310000108385067007         RATH-CHAMBERS RAINA 704 OELLA AVE                           000N        CARE OF             
MTR08543100001000000000000000RA              32770817    005800020000000200000520000003NN  NNW 000                       N    
RDG08543100WATRL000000004K00000000000001879000208012015070513N000000000000N85       000410400K 10000000010000001864           
CUS0854310000108402010006         ADVANCED PROP MGMT I714 OELLA AVE                           000N        CARE OF             
MTR08543100001000000000000000RA              41086838    005800030000000300000520000003NN  NNW 000                       N    
RDG08543100WATRL000000004K00000000000001781000308012015070536N000000000000N85       000230400K 10000000010000001761           
CUS0854310000108402009008         CARTNEY JOHN        716 OELLA AVE                           000N        CARE OF             
MTR08543100001000000000000000RA              41086840    005800040000000400000520000003NN  NNW 000                       N    
RDG08543100WATRL000000004K00000000000001432000408012015070548N000000000000N85       000120400K 10000000010000001423           
CUS0854310000108402008000         DANIEL R. CARROLL   718 OELLA AVE                           000N        CARE OF             
MTR08543100001000000000000000RA              41080164    005800050000000500000520000003NN  NNW 000                       N    
RDG08543100WATRL000000004K00000000000002038000508012015070608N000000000000N85       000200400K 10000000010000002027           
CUS0854310000108402007002         GUEVARRA-JOHNSON PAM720 OELLA AVE                           000N        CARE OF             
MTR08543100001000000000000000RA              41080151    005800060000000600000520000003NN  NNW 000                       N    
RDG08543100WATRL000000004K00000000000001625000608012015070611N000000000000N85       000030400K 10000000010000001616           
CUS0854310000108379946000         STEELE LAURA STARK,T728 OELLA AVE                           000N        CARE OF             
MTR08543100001000000000000000RA              10012956    005800070000000700000570000003NN  NNW 000                       N    
RDG08543100WATRL000000004K00000000000000112000708012015070648N000000000000N85       000370400K 10000000010000000107           
CUS0854310000108380026008         GRAHAM ROBERT SCOTT 730 OELLA AVE                           000N        CARE OF             
MTR08543100001000000000000000RA              35106889    005800080000000800000520000000NN  NNW 000                       N    
RDG08543100WATRL000000004K00000000000002562000808012015070654N000000000000N85       000060400K 10000000010000002554           
CUS0854310000108380027006         PETER C BURCH       732 OELLA AVE                           000N        CARE OF             
MTR08543100001000000000000000RA              14909130    005800090000000900000310000000NN  NNW 000                       N    
RDG08543100WATRL000000004K00000000000000414000908012015070812N000000000000N85       000780400K 10000000010000000403           
CUS0854310000108382282005         MILLER DEBRA C      734 OELLA AVE                           000N        CARE OF             
MTR08543100001000000000000000RA              27266734    005800100000001000000520000003NN  NNW 000                       N    
RDG08543100WATRL000000004K00000000000002353001008012015070824N000000000000N85       000120400K 10000000010000002347           
CUS0854310000108379945002         BAXTER JO-ANNE      736 OELLA AVE                           000N        CARE OF             
MTR08543100001000000000000000RA              10012957    005800110000001100000570000003NN  NNW 000                       N    
RDG08543100WATRL000000004K00000000000000352001108012015070847N000000000000N85       000230400K 10000000010000000336           
CUS0854310000108382280009         MELANIE L ROBINSON  738 OELLA AVE                           000N        CARE OF             
MTR08543100001000000000000000RA              35097066    005800120000001200000520000003NN  NNW 000                       N    
RDG08543100WATRL000000004K00000000000001727001208012015070849N000000000000N85       000020400K 10000000010000001722           
CUS0854310000108382281007         CHARLES L WAGANDT LL740 OELLA AVE                           000N        CARE OF             
MTR08543100001000000000000000RA              33080448    005800130000001300000520000003NN  NNW 000                       N    
RDG08543100WATRL000000004K00000000000002170001308012015070919N000000000000N85       000300400K 10000000010000002158           
CUS0854310000108380028004         FABIAN DE KOK-MERCAD742 OELLA AVE                           000N        CARE OF             
MTR08543100001000000000000000RA              45377946    005800140000001400000520000000NN  NNW 000                       N    
RDG08543100WATRL000000004K00000000000001159001408062015144255O000000000010N80       000040400K 10000000010000001146           
CUS0854310000108381332009         JAMES E GEORGE WAGAN744 OELLA AVE                           000N        CARE OF             
MTR08543100001000000000000000RA              29684004    005800150000001500000520000003NN  NNW 000                       N    
RDG08543100WATRL000000004K00000000000001305001508012015070953N000000000000N85       000300400K 10000000010000001294           
CUS0854310000108381333007         ZANDT KRISTEN VAN   746 OELLA AVE                           000N        CARE OF             
MTR08543100001000000000000000RA              00131934    005800160000001600000570000003NN  NNW 000                       N    
RDG08543100WATRL000000004K00000000000000581001608012015070956N000000000000N85       000030400K 10000000010000000575           
CUS0854310000108381334005         MATULEWICZ CHARLES  748 OELLA AVE                           000N        CARE OF             
MTR08543100001000000000000000RA              24772284    005800170000001700000520000003NN  NNW 000                       N    
RDG08543100WATRL000000004K00000000000001988001708012015071110N000000000010N85       000740400K 10000000010000001979           
CUS0854310000108381335002         SHERYL JONES BARR   750 OELLA AVE                           000N        CARE OF             
MTR08543100001000000000000000RA              44090989    005800180000001800000520000003NN  NNW 000                       N    
RDG08543100WATRL000000004K00000000000000956001808012015071114N000000000000N85       000040400K 10000000010000000950           
CUS0854310000108381339004         JEFFREY D. HENSLEY &752 OELLA AVE                           000N        CARE OF             
MTR08543100001000000000000000RA              33734335    005800190000001900000520000003NN  NNW 000                       N    
RDG08543100WATRL000000004K00000000000001209001908012015071146N000000000000N85       000320400K 10000000010000001197           
CUS0854310000108381340002         MCCLURG JOAN        754 OELLA AVE                           000N        CARE OF             
MTR08543100001000000000000000RA              33734339    005800200000002000000520000003NN  NNW 000                       N    
RDG08543100WATRL000000004K00000000000001596002008012015071159N000000000000N85       000130400K 10000000010000001586           
CUS0854310000108381341000         DERBY LAUREN A      756 OELLA AVE                           000N        CARE OF             
MTR08543100001000000000000000RA              33734338    005800210000002100000520000003NN  NNW 000                       N    
RDG08543100WATRL000000004K00000000000001251002108012015071223N000000000000N85       000240400K 10000000010000001247           
CUS0854310000108381342008         DICENZO MARIA       758 OELLA AVE                           000N        CARE OF             
MTR08543100001000000000000000RA              33734336    005800220000002200000520000003NN  NNW 000                       N    
RDG08543100WATRL000000004K00000000000001501002208012015071226N000000000000N85       000030400K 10000000010000001495           
CUS0854310000108381336000         PETERSON SAMANTHA JO760 OELLA AVE                           000N        CARE OF             
MTR08543100001000000000000000RA              24771537    005800230000002300000520000003NN  NNW 000                       N    
RDG08543100WATRL000000004K00000000000001330002308012015071346N000000000000N85       000800400K 10000000010000001324           
CUS0854310000108381337008         BOHART JOSEPH L     762 OELLA AVE                           000N        CARE OF             
MTR08543100001000000000000000RA              32573146    005800240000002400000520000003NN  NNW 000                       N    
RDG08543100WATRL000000004K00000000000001602002408012015071348N000000000000N85       000020400K 10000000010000001588           
CUS0854310000108381338006         MARTIN SULC         764 OELLA AVE                           000N        CARE OF             
MTR08543100001000000000000000RA              24762145    005800250000002500000520000003NN  NNW 000                       N    
RDG08543100WATRL000000004K00000000000003185002508012015071450N000000000010N85       000620400K 10000000010000002160           
CUS0854310000108381343006         SAGE DAWN PATRICIA  766 OELLA AVE                           000N        CARE OF             
MTR08543100001000000000000000RA              44090349    005800260000002600000520000003NN  NNW 000                       N    
RDG08543100WATRL000000004K00000000000001531002608012015071453N000000000000N85       000030400K 10000000010000001510           
CUS0854310000108381838005         INNES CHRISTOPHER A 768 OELLA AVE                           000N        CARE OF             
MTR08543100001000000000000000RA              35097239    005800270000002700000520000003NN  NNW 000                       N    
RDG08543100WATRL000000004K00000000000002629002708012015071538N000000000000N85       000450400K 10000000010000002617           
CUS0854310000108381839003         GREGORY A FERRARA   770 OELLA AVE                           000N        CARE OF             
MTR08543100001000000000000000RA              48588886    005800280000002800000520000003NN  NNW 000                       N    
RDG08543100WATRL000000004K00000000000005754002808012015071630N000000000010N85       000520400K 10000000010000005738           
CUS0854310000108381344004         STEPHANIE M. KING   772 OELLA AVE                           000N        CARE OF             
MTR08543100001000000000000000RA              46887665    005800290000002900000520000003NN  NNW 000                       N    
RDG08543100WATRL000000004K00000000000001005002908012015071650N000000000000N85       000200400K 10000000010000001000           
CUS0854310000108381345001         ALTEMUS ANNE R      774 OELLA AVE                           000N        CARE OF             
MTR08543100001000000000000000RA              33734319    005800300000003000000520000003NN  NNW 000                       N    
RDG08543100WATRL000000004K00000000000001181003008012015071711N000400000010N85       000210400K 10000000010000001178           
CUS0854310000108381348005         JENNIFER M ANDERSON 776 OELLA AVE                           000N        CARE OF             
MTR08543100001000000000000000RA              33734321    005800310000003100000520000003NN  NNW 000                       N    
RDG08543100WATRL000000004K00000000000001614003108012015071714N000000000000N85       000030400K 10000000010000001606           
CUS0854310000108381346009         BRYAN KIMBERLY D    778 OELLA AVE                           000N        CARE OF             
MTR08543100001000000000000000RA              33734317    005800320000003200000520000003NN  NNW 000                       N    
RDG08543100WATRL000000004K00000000000001353003208012015071753N000000000000N85       000390400K 10000000010000001347           
CUS0854310000108381347007         JENNA CLARK         780 OELLA AVE                           000N        CARE OF             
MTR08543100001000000000000000RA              76347463    005800330000003300000350000003NN  NNW 000                       N    
RDG08543100WATRL000000004K00000000000000051003308012015071801N000000000001N85       000080400K 10000000010000000044           
CUS0854310000108429155008         CHARLES L WAGANDT LL804 OELLA AVE                           000N        CARE OF             
MTR08543100001000000000000000RA              99168607    001500340000003400000570000000NN  NNW 000                       N    
RDG08543100WATRL000000005K00000000000001534004408012015072942N000000000000N85       000530500K 10000000010000001508           
CUS0854310000108388069000         PEARL RICHARD W     970 OELLA AVE                           000N        CARE OF             
MTR08543100001000000000000000RA              35118257    005800350000003500000520000003NN  NNW 000                       N    
RDG08543100WATRL000000004K00000000000001698006108012015075013N000000000000N85       000820400K 10000000010000001684           
CUS0854310000108429531000         PETTIT JAMES KING   1010 OELLA AVE                          000N        CARE OF             
MTR08543100001000000000000000RA              99387668    005800360000003600000570000003NN  NNW 000                       N    
RDG08543100WATRL000000004K00000000000001610007108012015080108N000000000000N85       001410400K 10000000010000001588           
CUS0854310000108380030000         LYCHENHEIM DAVID E  1102 OELLA AVE                          000N        CARE OF             
MTR08543100001000000000000000RA              33732879    005800370000003700000520000003NN  NNW 000                       N    
RDG08543100WATRL000000004K00000000000002549007208012015080342N000000000000N85       001540400K 10000000010000002536           
CUS0854310000108446706007         DANIEL FORESTER     1209 OELLA AVE                          000N        CARE OF             
MTR08543100001000000000000000RA              14930068    005800380000003800000310000003NN  NNW 000                       N    
RDG08543100WATRL000000004K00000000000000240003108032015082801N000000000000U85       000090400K 10000000010000000230           
CUS0854310000108446707005         GRANITE HILL, LLC   1213 OELLA AVE                          000N        CARE OF             
MTR08543100001000000000000000RA              77889711    005800390000003900000350000003NN  NNW 000                       N    
RDG08543100WATRL000000004K00000000000000039003008032015082752N000000000000U85       001650400K 10000000010000000037           
CUS0854310000108402548005         GRANITE HILL LLC    1206 OELLA AVE                          000N        CARE OF             
MTR08543100001000000000000000RA              41080974    005800400000004000000520000003NN  NNW 000                       N    
RDG08543100WATRL000000004K00000000000001389002908032015082507N000000000000U85       000040400K 10000000010000001367           
CUS0854310000108432261009         GRANITE HILL LLC    1204 OELLA AVE                          000N        CARE OF             
MTR08543100001000000000000000RA              10004883    005800410000004100000570000003NN  NNW 000                       N    
RDG08543100WATRL000000004K00000000000000417002808032015082503N000000000000U85       004390400K 10000000010000000399           
CUS0854310000108414083009         ROBERTS WILLIAM S   1017 LILLIES LN                         000N        CARE OF             
MTR08543100001000000000000000RA              46288146    000100420000004200000520000003NN  NNW 000                       N    
RDG08543100WATRL000000004K00000000000001952007008012015075847N000000000000N85       000210400K 10000000010000001939           
CUS0854310000108414084007         GAMBRILL RICHARD N  1015 LILLIES LN                         000N        CARE OF             
MTR08543100001000000000000000RA              46288173    000100430000004300000520000003NN  NNW 000                       N    
RDG08543100WATRL000000004K00000000000001188006908012015075826N000000000000N85       000430400K 10000000010000001178           
CUS0854310000108414085004         YOCKEL PATRICIA F   1013 LILLIES LN                         000N        CARE OF             
MTR08543100001000000000000000RA              46288125    000100440000004400000520000003NN  NNW 000                       N    
RDG08543100WATRL000000004K00000000000000658006808012015075743N000000000000N85       000470400K 10000000010000000652           
CUS0854310000108414086002         DUGAN BONNIE A      1011 LILLIES LN                         000N        CARE OF             
MTR08543100001000000000000000RA              46288147    000100450000004500000520000003NN  NNW 000                       N    
RDG08543100WATRL000000004K00000000000001329006708012015075656N000000000000N85       000100400K 10000000010000001325           
CUS0854310000102414087003         HARDY KIRKLAND R    1009 LILLIES LN                         000N        CARE OF             
MTR08543100001000000000000000RA              46288196    000100460000004600000520000003NN  NNW 000                       N    
RDG08543100WATRL000000004K00000000000001165006608012015075646N000000000000N85       001000400K 10000000010000001151           
CUS0854310000108414089006         PETER BERNARD BEATTC1007 LILLIES LN                         000N        CARE OF             
MTR08543100001000000000000000RA              46288197    000100470000004700000520000003NN  NNW 000                       N    
RDG08543100WATRL000000004K00000000000001506006208012015075319N000000000000N85       001860400K 10000000010000001488           
CUS0854310000108414088008         MATHIS HANS G       1005 LILLIES LN                         000N        CARE OF             
MTR08543100001000000000000000RA              46288172    000100480000004800000520000003NN  NNW 000                       N    
RDG08543100WATRL000000004K00000000000001100006308012015075332N000000000000N85       000130400K 10000000010000001097           
CUS0854310000108414090004         GRAY KATHERINE A    1003 LILLIES LN                         000N        CARE OF             
MTR08543100001000000000000000RA              44782160    000100490000004900000520000003NN  NNW 000                       N    
RDG08543100WATRL000000004K00000000000006464006508012015075506N000000000000N85       000210400K 10000000010000006442           
CUS0854310000108414091002         TOMPKINS GERALD S,3R1001 LILLIES LN                         000N        CARE OF             
MTR08543100001000000000000000RA              31938049    000100500000005000000520000003NN  NNW 000                       N    
RDG08543100WATRL000000004K00000000000002381006408012015075445N000000000000N85       000730400K 10000000010000002370           
CUS0854310000108388173000         ROHRBAUGH THOMAS MIC963 OELLA AVE                           000N        CARE OF             
MTR08543100001000000000000000RA              75615694    005800510000005100000350000003NN  NNW 000                       N    
RDG08543100WATRL000000004K00000000000000088006008012015074851N000000000010N85       003460400K 10000000010000000086           
CUS0854310000108388174008         FITCHETT JEFFREY E  947 OELLA AVE                           000N        CARE OF             
MTR08543100001000000000000000RA              35119373    005800520000005200000520000003NN  NNW 000                       N    
RDG08543100WATRL000000004K00000000000001776005608012015074117N000000000000N85       000430400K 10000000010000001764           
CUS0854310000108388175005         CHADWICK JERROLD    945 OELLA AVE                           000N        CARE OF             
MTR08543100001000000000000000RA              46684150    005800530000005300000520000003NN  NNW 000                       N    
RDG08543100WATRL000000004K00000000000000677005508012015074034N000000000000N85       000270400K 10000000010000000676           
CUS0854310000108388176003         CHARLES L WAGANDT LL943 OELLA AVE                           000N        CARE OF             
MTR08543100001000000000000000RA              36687445    005800540000005400000520000003NN  NNW 000                       N    
RDG08543100WATRL000000004K00000000000002224005408012015074007N000000000000N85       000210400K 10000000010000002215           
CUS0854310000108388177001         CASH CHARLES DAVID  941 OELLA AVE                           000N        CARE OF             
MTR08543100001000000000000000RA              36689827    005800550000005500000520000003NN  NNW 000                       N    
RDG08543100WATRL000000004K00000000000000973005308012015073946N000000000000N85       000230400K 10000000010000000967           
CUS0854310000108385064004         MUNRO ILSE          939 OELLA AVE                           000N        CARE OF             
MTR08543100001000000000000000RA              35103150    005800560000005600000520000000NN  NNW 000                       N    
RDG08543100WATRL000000004K00000000000002202005208012015073923N000400000010N85       000270400K 10000000010000002194           
CUS0854310000108385065001         MATTHEW T. GRABOWSKI937 OELLA AVE                           000N        CARE OF             
MTR08543100001000000000000000RA              35103149    005800570000005700000520000000NN  NNW 000                       N    
RDG08543100WATRL000000004K00000000000001781005108012015073856N000000000000N85       000190400K 10000000010000001769           
CUS0854310000108388178009         BUTLER JAMES R      935 OELLA AVE                           000N        CARE OF             
MTR08543100001000000000000000RA              99287593    005800580000005800000570000003NN  NNW 000                       N    
RDG08543100WATRL000000004K00000000000000728005008012015073837N000000000000N85       000230400K 10000000010000000716           
CUS0854310000108388179007         PANZER CATHERINE    933 OELLA AVE                           000N        CARE OF             
MTR08543100001000000000000000RA              36687662    005800590000005900000520000003NN  NNW 000                       N    
RDG08543100WATRL000000004K00000000000001158004908012015073814N000000000000N85       000210400K 10000000010000001151           
CUS0854310000108388180005         CHARLES L WAGANDT LL931 OELLA AVE                           000N        CARE OF             
MTR08543100001000000000000000RA              36687806    005800600000006000000520000003NN  NNW 000                       N    
RDG08543100WATRL000000004K00000000000003520004808012015073753N000000000000N85       000270400K 10000000010000003511           
CUS0854310000108388181003         BELLOWS LAURA J     929 OELLA AVE                           000N        CARE OF             
MTR08543100001000000000000000RA              36687683    005800610000006100000520000003NN  NNW 000                       N    
RDG08543100WATRL000000004K00000000000002142004708012015073726N000000000000N85       002670400K 10000000010000002132           
CUS0854310000108395731006         WILHIDE STEPHEN E   923 OELLA AVE                           000N        CARE OF             
MTR08543100001000000000000000RA              39291134    005800620000006200000520000003NN  NNW 000                       N    
RDG08543100WATRL000000004K00000000000002525002608032015081534N000000000000U85       000440400K 10000000010000002512           
CUS0854310000108395735007         DREHOFF DONALD G    921 OELLA AVE                           000N        CARE OF             
MTR08543100001000000000000000RA              39291156    005800630000006300000520000003NN  NNW 000                       N    
RDG08543100WATRL000000004K00000000000002336002708032015081744N000000000000U85       001300400K 10000000010000002323           
CUS0854310000108395734000         GERATY PAUL M       919 OELLA AVE                           000N        CARE OF             
MTR08543100001000000000000000RA              39291154    005800640000006400000520000003NN  NNW 000                       N    
RDG08543100WATRL000000004K00000000000004713002508032015081450N000000000000U85       000290400K 10000000010000004698           
CUS0854310000108395732004         BAYSINGER NANCEE A  917 OELLA AVE                           000N        CARE OF             
MTR08543100001000000000000000RA              44002170    005800650000006500000520000003NN  NNW 000                       N    
RDG08543100WATRL000000004K00000000000001516002408032015081421N000300000010U85       000870400K 10000000010000001484           
CUS0854310000108432754003         APPLER M STEVEN     883 OELLA AVE                           000N        CARE OF             
MTR08543100001000000000000000RA              99411905    005800660000006600000570000003NN  NNW 000                       N    
RDG08543100WATRL000000004K00000000000000863002308032015081254N000000000000U85       001170400K 10000000010000000857           
CUS0854310000108381536005         YONGHUI YANG        881 OELLA AVE                           000N        CARE OF             
MTR08543100001000000000000000RA              35097011    005800670000006700000520000003NN  NNW 000                       N    
RDG08543100WATRL000000004K00000000000001124002208032015081057N000400000010U85       000050400K 10000000010000001123           
CUS0854310000108381535007         LEONARD ROGER SCOTT 879 OELLA AVE                           000N        CARE OF             
MTR08543100001000000000000000RA              35097010    005800680000006800000520000003NN  NNW 000                       N    
RDG08543100WATRL000000004K00000000000001004002108062015144339O000000000010U80       001590400K 10000000010000000993           
CUS0854310000108381534000         WAKEFIELD SCOTT K   877 OELLA AVE                           000N        CARE OF             
MTR08543100001000000000000000RA              35097009    005800690000006900000520000003NN  NNW 000                       N    
RDG08543100WATRL000000004K00000000000000830002008032015080813N000000000000U85       000580400K 10000000010000000818           
CUS0854310000108381533002         EYRE KEVIN          875 OELLA AVE                           000N        CARE OF             
MTR08543100001000000000000000RA              35097007    005800700000007000000520000003NN  NNW 000                       N    
RDG08543100WATRL000000004K00000000000001117001908032015080715N000000000000U85       000630400K 10000000010000001096           
CUS0854310000108381532004         BOYER SUSAN P       873 OELLA AVE                           000N        CARE OF             
MTR08543100001000000000000000RA              35097008    005800710000007100000520000003NN  NNW 000                       N    
RDG08543100WATRL000000004K00000000000001611001808032015080612N000000000000U85       000090400K 10000000010000001599           
CUS0854310000108381531006         GREELEY THOMAS G    871 OELLA AVE                           000N        CARE OF             
MTR08543100001000000000000000RA              10020015    005800720000007200000570000003NN  NNW 000                       N    
RDG08543100WATRL000000004K00000000000000160001708032015080603N000000000000U85       001840400K 10000000010000000151           
CUS0854310000108435075000         FIGGE ERICA J       837 OELLA AVE                           000N        CARE OF             
MTR08543100001000000000000000RA              01097898    005800730000007300000610000003NN  NNW 000                       N    
RDG08543100WATRL000000004K00000000000000747004508012015073253N000000000000N85       001910400K 10000000010000000728           
CUS0854310000108435069003         CHARLES L WAGANDT LL835 OELLA AVE                           000N        CARE OF             
MTR08543100001000000000000000RA              01097892    005800740000007400000610000003NN  NNW 000                       N    
RDG08543100WATRL000000004K00000000000000712004608012015073259N000000000000N85       000060400K 10000000010000000695           
CUS0854310000108393854008         CHARLES L WAGANDT LL803 OELLA AVE                           000N        CARE OF             
MTR08543100001000000000000000RA              39290502    005800750000007500000520000003NN  NNW 000                       N    
RDG08543100WATRL000000004K00000000000001218004308012015072849N000000000000N85       002150400K 10000000010000001210           
CUS0854310000108425862003         CHARLES L WAGANDT LL787 OELLA AVE                           000N        CARE OF             
MTR08543100001000000000000000RA              52287560    005800760000007600000520000000NN  NNW 000                       N    
RDG08543100WATRL000000004K00000000000000963004208012015072514N000000000000N85       000850400K 10000000010000000960           
CUS0854310000108385066009         WYATT WENDY A       785 OELLA AVE                           000N        CARE OF             
MTR08543100001000000000000000RA              44090325    005800770000007700000520000003NN  NNW 000                       N    
RDG08543100WATRL000000004K00000000000002081004008012015072240N000000000000N85       001010400K 10000000010000002066           
CUS0854310000108382285008         STOFFEL NICOLE E    783 OELLA AVE                           000N        CARE OF             
MTR08543100001000000000000000RA              01094918    005800780000007800000610000003NN  NNW 000                       N    
RDG08543100WATRL000000004K00000000000000760001608032015080259N000000000000U85       000070400K 10000000010000000746           
CUS0854310000108382284001         CHARLES L WAGANDT LL781 OELLA AVE                           000N        CARE OF             
MTR08543100001000000000000000RA              35097065    005800790000007900000520000003NN  NNW 000                       N    
RDG08543100WATRL000000004K00000000000002035001508032015080252N000000000000U85       005310400K 10000000010000002019           
CUS0854310000108381127003         CHARLES L WAGANDT LL763 OELLA AVE                           000N        CARE OF             
MTR08543100001000000000000000RA              33082623    005800800000008000000520000003NN  NNW 000                       N    
RDG08543100WATRL000000004K00000000000004127001408032015075401N000000000000U85       000070400K 10000000010000004094           
CUS0854310000108381126005         CHARLES L WAGANDT LL761 OELLA AVE                           000N        CARE OF             
MTR08543100001000000000000000RA              33082622    005800810000008100000520000003NN  NNW 000                       N    
RDG08543100WATRL000000004K00000000000003552001308032015075354N000000000000U85       001210400K 10000000010000003544           
CUS0854310000108381542003         MYRICK BENJAMIN E   759 OELLA AVE                           000N        CARE OF             
MTR08543100001000000000000000RA              35097248    005800820000008200000520000003NN  NNW 000                       N    
RDG08543100WATRL000000004K00000000000002211001208032015075153N000000000000U85       000080400K 10000000010000002188           
CUS0854310000108381541005         PARR KIMBERLEY J    757 OELLA AVE                           000N        CARE OF             
MTR08543100001000000000000000RA              35097238    005800830000008300000520000003NN  NNW 000                       N    
RDG08543100WATRL000000004K00000000000001842001108032015075145N000000000000U85       000760400K 10000000010000001832           
CUS0854310000108381540007         BERGNER AMANDA L    755 OELLA AVE                           000N        CARE OF             
MTR08543100001000000000000000RA              35097248    005800840000008400000520000003NN  NNW 000                       N    
RDG08543100WATRL000000004K00000000000001485001008032015075029N000000000000U85       000130400K 10000000010000001469           
CUS0854310000108381539009         MCCLURG W SCOTT     753 OELLA AVE                           000N        CARE OF             
MTR08543100001000000000000000RA              35097247    005800850000008500000520000003NN  NNW 000                       N    
RDG08543100WATRL000000004K00000000000001158000908032015075016N000000000000U85       001030400K 10000000010000001154           
CUS0854310000108381538001         CHARLES L WAGANDT II751 OELLA AVE                           000N        CARE OF             
MTR08543100001000000000000000RA              52290000    005800860000008600000520000003NN  NNW 000                       N    
RDG08543100WATRL000000004K00000000000000400000808032015074833N000000000000U85       000060400K 10000000010000000384           
CUS0854310000108381537003         JOSEPH H JONES JR   749 OELLA AVE                           000N        CARE OF             
MTR08543100001000000000000000RA              45378265    005800870000008700000520000003NN  NNW 000                       N    
RDG08543100WATRL000000004K00000000000001832000708032015074827N000000000000U85       002330400K 10000000010000001821           
CUS0854310000108381131005         STEVEN P. ROMO      747 OELLA AVE                           000N        CARE OF             
MTR08543100001000000000000000RA              33082624    005800880000008800000520000003NN  NNW 000                       N    
RDG08543100WATRL000000004K00000000000002061003408012015071945N000000000000N85       001040400K 10000000010000002045           
CUS0854310000108381130007         JAMES ZEHE          745 OELLA AVE                           000N        CARE OF             
MTR08543100001000000000000000RA              44090990    005800890000008900000520000003NN  NNW 000                       N    
RDG08543100WATRL000000004K00000000000000701003508012015071948N000000000000N85       000030400K 10000000010000000696           
CUS0854310000108381129009         AMES MARCIA HOPE    743 OELLA AVE                           000N        CARE OF             
MTR08543100001000000000000000RA              33082625    005800900000009000000520000003NN  NNW 000                       N    
RDG08543100WATRL000000004K00000000000001819003608012015072019N000000000000N85       000310400K 10000000010000001799           
CUS0854310000108381128001         BAKER GEOFFREY S    741 OELLA AVE                           000N        CARE OF             
MTR08543100001000000000000000RA              33082627    005800910000009100000520000003NN  NNW 000                       N    
RDG08543100WATRL000000004K00000000000002004003708012015072021N000000000000N85       000020400K 10000000010000001990           
CUS0854310000108388021001         MILLIKEN TROY E     739 OELLA AVE                           000N        CARE OF             
MTR08543100001000000000000000RA              35116452    005800920000009200000520000000NN  NNW 000                       N    
RDG08543100WATRL000000004K00000000000001349003808012015072056N000400000010N85       000350400K 10000000010000001342           
CUS0854310000108382286006         ROHDE JANE M        737 OELLA AVE                           000N        CARE OF             
MTR08543100001000000000000000RA              35116451    005800930000009300000520000000NN  NNW 000                       N    
RDG08543100WATRL000000004K00000000000001653003908012015072059N000000000000N85       000030400K 10000000010000001648           
CUS0854310000108381530008         WAGENBRENNER THERESA730 PLEASANT HILL RD                    000N        CARE OF             
MTR08543100001000000000000000RA              33735281    005800940000009400000520000003NN  NNW 000                       N    
RDG08543100WATRL000000004K00000000000002315000608032015074434N000400000010U85       001790400K 10000000010000002296           
CUS0854310000108381529000         WRIGHT SARAH A      732 PLEASANT HILL RD                    000N        CARE OF             
MTR08543100001000000000000000RA              33735280    005800950000009500000520000003NN  NNW 000                       N    
RDG08543100WATRL000000004K00000000000000855000508032015074135N000000000010U85       000100400K 10000000010000000854           
CUS0854310000108381528002         BERGER HENRY,3RD    734 PLEASANT HILL RD                    000N        CARE OF             
MTR08543100001000000000000000RA              33735279    005800960000009600000520000003NN  NNW 000                       N    
RDG08543100WATRL000000004K00000000000001515000408032015074125N000000000000U85       000500400K 10000000010000001500           
CUS0854310000108381527004         WEEKS KAY D         736 PLEASANT HILL RD                    000N        CARE OF             
MTR08543100001000000000000000RA              14920874    005800970000009700000310000003NN  NNW 000                       N    
RDG08543100WATRL000000004K00000000000000647000308032015074035N000000000000U85       001580400K 10000000010000000642           
CUS0854310000104381489006         INGRAHAM CHRISTOPHER738 PLEASANT HILL RD                    000N        CARE OF             
MTR08543100001000000000000000RA              33735277    005800980000009800000520000003NN  NNW 000                       N    
RDG08543100WATRL000000004K00000000000001475000208032015073757N000300000010U85       000380400K 10000000010000001478           
CUS0854310000108381526006         CLINGERMAN EMILIE M 740 PLEASANT HILL RD                    000N        CARE OF             
MTR08543100001000000000000000RA              33735276    005800990000009900000520000003NN  NNW 000                       N    
RDG08543100WATRL000000004K00000000000001323000108032015073719N000000000000U85       000000400K 10000000010000001315           
CUS0854310000108385068005         BRINKER ANN TRACEY  663 OELLA AVE                           000N        CARE OF             
MTR08543100001000000000000000RA              35110431    005801000000010000000520000003NN  NNW 000                       N    
RDG08543100WATRL000000004K00000000000002159003208032015083456N000000000000U85       004150400K 10000000010000002147           
CUS0854310000108385069003         KOKKONEN MATTHEW J  721 PLEASANT HILL RD                    000N        CARE OF             
MTR08543100001000000000000000RA              35111405    005801010000010100000520000000NN  NNW 000                       N    
RDG08543100WATRL000000004K00000000000001202003308032015083507N000400000010U85       000110400K 10000000010000001197           
CUS0854310000108385071009         HUGHES DAVID C      655 OELLA AVE                           000N        CARE OF             
MTR08543100001000000000000000RA              35111404    005801020000010200000520000000NN  NNW 000                       N    
RDG08543100WATRL000000004K00000000000001806003408032015083611N000000000000U85       000640400K 10000000010000001796           
CUS0854310000108385070001         PRICE GREGORY       719 PLEASANT HILL RD                    000N        CARE OF             
MTR08543100001000000000000000RA              35111406    005801030000010300000520000000NN  NNW 000                       N    
RDG08543100WATRL000000004K00000000000001152003508062015144503O000400000010U80       000060400K 10000000010000001147           
CUS0854310000108387465001         SMITH SALLY I       715 PLEASANT HILL RD                    000N        CARE OF             
MTR08543100001000000000000000RA              35116450    005801040000010400000520000003NN  NNW 000                       N    
RDG08543100WATRL000000004K00000000000002170003608032015083859N000300000030U85       001620400K 10000000010000002168           
CUS0854310000108387464004         CARPENTER WINIFRED W713 PLEASANT HILL RD                    000N        CARE OF             
MTR08543100001000000000000000RA              35116449    005801050000010500000520000003NN  NNW 000                       N    
RDG08543100WATRL000000004K00000000000001198003708032015084024N000300000021U85       000450400K 10000000010000001180           
CUS0854310000108387463006         DEBOY MARK J        711 PLEASANT HILL RD                    000N        CARE OF             
MTR08543100001000000000000000RA              36688576    005801060000010600000520000003NN  NNW 000                       N    
RDG08543100WATRL000000004K00000000000001666003808062015144420O000000000010U80       001240400K 10000000010000001654           
CUS0854310000108387462008         BROWN GREGG V       709 PLEASANT HILL RD                    000N        CARE OF             
MTR08543100001000000000000000RA              36688573    005801070000010700000520000003NN  NNW 000                       N    
RDG08543100WATRL000000004K00000000000002916003908032015084322N000000000000U85       000540400K 10000000010000002891           
CUS0854310000108385072007         VANORE ROBERT       707 PLEASANT HILL RD                    000N        CARE OF             
MTR08543100001000000000000000RA              35110780    005801080000010800000520000003NN  NNW 000                       N    
RDG08543100WATRL000000004K00000000000001727004108032015085035N000000000000U85       000080400K 10000000010000001706           
CUS0854310000108385073005         REBECCA T SOPER     705 PLEASANT HILL RD                    000N        CARE OF             
MTR08543100001000000000000000RA              35114032    005801090000010900000520000003NN  NNW 000                       N    
RDG08543100WATRL000000004K00000000000002151004008032015085027N000000000000U85       004250400K 10000000010000002138           
CUS0854310000108385074003         PASCALE NANCY L     703 PLEASANT HILL RD                    000N        CARE OF             
MTR08543100001000000000000000RA              33734991    005801100000011000000520000000NN  NNW 000                       N    
RDG08543100WATRL000000004K00000000000001999004208032015085204N000000000000U85       000890400K 10000000010000001981           
CUS0854310000108381132003         CAST THOMAS M       701 PLEASANT HILL RD                    000N        CARE OF             
MTR08543100001000000000000000RA              32900268    005801110000011100000520000003NN  NNW 000                       N    
RDG08543100WATRL000000004K00000000000002100004308032015085238N000000000000U85       000340400K 10000000010000002086           
CUS0854310000108416736000         KOSER ROBERT J      700 MARY JO WAY                         000N        CARE OF             
MTR08543100001000000000000000RA              51447249    000101120000011200000520000003NN  NNW 000                       N    
RDG08543100WATRL000000004K00000000000001387007308012015081247N000000000000N85       005450400K 10000000010000001372           
CUS0854310000108416735002         STRAUB BENJAMIN P   702 MARY JO WAY                         000N        CARE OF             
MTR08543100001000000000000000RA              52291301    000101130000011300000520000003NN  NNW 000                       N    
RDG08543100WATRL000000004K00000000000001122007408012015081320N000000000000N85       000330400K 10000000010000001112           
CUS0854310000108416734005         DANIEL & LINDA BURTO704 MARY JO WAY                         000N        CARE OF             
MTR08543100001000000000000000RA              52291300    000101140000011400000520000003NN  NNW 000                       N    
RDG08543100WATRL000000004K00000000000000999007508012015081347N000000000000N85       000270400K 10000000010000000977           
CUS0854310000108416733007         ZHAO NI             706 MARY JO WAY                         000N        CARE OF             
MTR08543100001000000000000000RA              51447220    000101150000011500000520000003NN  NNW 000                       N    
RDG08543100WATRL000000004K00000000000001876007608012015081419N000000000000N85       000320400K 10000000010000001865           
CUS0854310000108416732009         WHITLOCK MICHAEL FW 708 MARY JO WAY                         000N        CARE OF             
MTR08543100001000000000000000RA              44782022    000101160000011600000520000003NN  NNW 000                       N    
RDG08543100WATRL000000004K00000000000001082007708012015081459N000000000000N85       000400400K 10000000010000001065           
CUS0854310000108416731001         JOSEPHINE M. STRAUSS710 MARY JO WAY                         000N        CARE OF             
MTR08543100001000000000000000RA              50384603    000101170000011700000520000003NN  NNW 000                       N    
RDG08543100WATRL000000004K00000000000000659007808012015081525N000000000000N85       000260400K 10000000010000000642           
CUS0854310000108416730003         REESER BARBARA E    712 MARY JO WAY                         000N        CARE OF             
MTR08543100001000000000000000RA              50384599    000101180000011800000520000003NN  NNW 000                       N    
RDG08543100WATRL000000004K00000000000001134007908012015081555N000000000000N85       000300400K 10000000010000001120           
CUS0854310000108416729005         BERRY THOMAS        714 MARY JO WAY                         000N        CARE OF             
MTR08543100001000000000000000RA              48581442    000101190000011900000520000003NN  NNW 000                       N    
RDG08543100WATRL000000004K00000000000002462008008012015081615N000000000000N85       000200400K 10000000010000002412           
CUS0854310000108416727009         CRONIN THOMAS W     726 MARY JO WAY                         000N        CARE OF             
MTR08543100001000000000000000RA              54349012    005801200000012000000520000003NN  NNW 000                       N    
RDG08543100WATRL000000004K00000000000000851008108012015081725N000000000000N85       000700400K 10000000010000000843           
CUS0854310000108416728007         ROTHENHEBER EDWARD H728 MARY JO WAY                         000N        CARE OF             
MTR08543100001000000000000000RA              01082279    005801210000012100000610000003NY  NNW 000                       N    
MTM0854310001082279    BURIED                                                                                                 
RDG08543100WATRL000000004K00000000000000000000000000000000000 000000000000U         000000400  10000000010000000301           
CUS0854310000108416680000         MORRISON LESLI L    600 PLEASANT HILL RD                    000N        CARE OF             
MTR08543100001000000000000000RA              01110388    005801220000012200000610000003NN  NNW 000                       N    
RDG08543100WATRL000000004K00000000000001296008208012015081922N000000000000N85       001170400K 10000000010000001284           
CUS0854310000108380023005         BEYDOUN RABIA       604 PLEASANT HILL RD                    000N        CARE OF             
MTR08543100001000000000000000RA              48583940    005801230000012300000520000003NN  NNW 000                       N    
RDG08543100WATRL000000004K00000000000001503008308012015082115N000100000010N85       001130400K 10000000010000001503           
CUS0854310000108382279001         WELTY CLAIRE        602 PLEASANT HILL RD                    000N        CARE OF             
MTR08543100001000000000000000RA              48583883    005801240000012400000520000003NN  NNW 000                       N    
RDG08543100WATRL000000004K00000000000001303008408012015082143N000000000000N85       000280400K 10000000010000001283           
CUS0854310000108416682006         CHARLES L WAGANDT LL601 PLEASANT HILL RD                    000N        CARE OF             
MTR08543100001000000000000000RA              10020981    005801250000012500000570000003NN  NNW 000                       N    
RDG08543100WATRL000000004K00000000000000000008508012015082202N000000000000N85       000190400K 10000000010000000000           
CUS0854310000108380024003         GERALDINE MESARD    605 PLEASANT HILL RD                    000N        CARE OF             
MTR08543100001000000000000000RA              48583882    005801260000012600000520000003NN  NNW 000                       N    
RDG08543100WATRL000000004K00000000000002775008708012015082249N000300000010N85       000150400K 10000000010000002720           
CUS0854310000108380025000         DEANGELIS PAMELA    603 PLEASANT HILL RD                    000N        CARE OF             
MTR08543100001000000000000000RA              48583879    005801270000012700000520000003NN  NNW 000                       N    
RDG08543100WATRL000000004K00000000000001196008608012015082234N000000000000N85       000320400K 10000000010000001178           
CUS0854310000108443801009         515 PLEASANT HILL LL515 PLEASANT HILL RD                    000N        CARE OF             
MTR08543100001000000000000000RA              78006588    005801280000012800000360000003NY  NNW 000                       N    
MTM0854310078006588    BURIED                                                                                                 
RDG08543100WATRL000000004K00000000000000000000000000000000000 000000000000U         000000400  10000000010000000022           
CUS0854310000108382274002         GUSEMAN ELIZABETH M 722 MARY JO WAY                         000N        CARE OF             
MTR08543100001000000000000000RA              35097669    005801290000012900000520000003NN  NNW 000                       N    
RDG08543100WATRL000000004K00000000000001854004108012015072349N000300000010N85       000690400K 10000000010000001837           
CUS0854310000108381041006         CARTER RONALD THOMAS601 MARY JO WAY                         000N        CARE OF             
MTR08543100001000000000000000RA              33734988    005801300000013000000520000003NN  NNW 000                       N    
RDG08543100WATRL000000004K00000000000003375008808012015082413N000000000000N85       000840400K 10000000010000003282           
CUS0854310000108379506002         STANNARD STEVEN JAME535 OELLA AVE                           000N        CARE OF             
MTR08543100001000000000000000RA              32903785    005801310000013100000520000003NN  NNW 000                       N    
RDG08543100WATRL000000004K00000000000002287008908012015082643N000000000000N85       001500400K 10000000010000002265           
CUS0854310000108379502001         BLANCHARD, JASON    533 OELLA AVE                           000N        CARE OF             
MTR08543100001000000000000000RA              32899207    005801320000013200000520000003NN  NNW 000                       N    
RDG08543100WATRL000000004K00000000000000898004408032015090431N000300000010U85       007130400K 10000000010000000883           
CUS0854310000108379507000         ANGLES DENISE ANN   529 OELLA AVE                           000N        CARE OF             
MTR08543100001000000000000000RA              32903006    005801330000013300000520000003NN  NNW 000                       N    
RDG08543100WATRL000000004K00000000000003518009008012015082917N000000000000N85       001540400K 10000000010000003476           
CUS0854310000108145120005         WEBB ROBERT M       519 OELLA AVE                           000N        CARE OF             
MTR08543100001000000000000000RA              20767195    005801340000013400000520000003NN  NNW 000                       N    
RDG08543100WATRL000000004K00000000000003478010808032015112029N000000000000U85       003400400K 10000000010000003470           
CUS0854310000108442906007         UZUPUS JOSEPH ANTHON517-B OELLA AVE                         000N        CARE OF             
MTR08543100001000000000000000RA              74814907    005801350000013500000350000003NN  NNW 000                       N    
RDG08543100WATRL000000004K00000000000000148009208012015083402N000000000000N85       000820400K 10000000010000000134           
CUS0854310000108145121003         MARK HONAN          517 OELLA AVE                           000N        CARE OF             
MTR08543100001000000000000000RA              44090974    005801360000013600000520000003NN  NNW 000                       N    
RDG08543100WATRL000000004K00000000000002998009108012015083240N000000000000N85       002030400K 10000000010000002986           
CUS0854310000108442905009         BREZNAK JOHN        517-A OELLA AVE                         000N        CARE OF             
MTR08543100001000000000000000RA              14926840    005801370000013700000310000003NN  NNW 000                       N    
RDG08543100WATRL000000004K00000000000000687009308012015083437N000000000000N85       000350400K 10000000010000000660           
CUS0854310000108394076007         FERRELL PRESTON O   515 OELLA AVE                           000N        CARE OF             
MTR08543100001000000000000000RA              44090975    005801380000013800000520000003NN  NNW 000                       N    
RDG08543100WATRL000000004K00000000000001926009408012015083600N000000000000N85       000830400K 10000000010000001919           
CUS0854310000108429582003         FERRELL RAYMOND     515A OELLA AVE                          000N        CARE OF             
MTR08543100001000000000000000RA              01084371    005801390000013900000610000003NN  NNW 000                       N    
RDG08543100WATRL000000004K00000000000000790005908032015093750N000000000000U85       003850400K 10000000010000000769           
CUS0854310000108348602007         TEMOSHOK LYDIA R    513 OELLA AVE                           000N        CARE OF             
MTR08543100001000000000000000RA              75423678    005801400000014000000350000003NN  NNW 000                       N    
RDG08543100WATRL000000004K00000000000000195009508012015083911N000000000000N85       001910400K 10000000010000000174           
CUS0854310000108145122001         NIBALI STACEY L     445 OELLA AVE                           000N        CARE OF             
MTR08543100001000000000000000RA              44090987    005801410000014100000520000003NN  NNW 000                       N    
RDG08543100WATRL000000004K00000000000003438009608012015084141N000000000000N85       001500400K 10000000010000003402           
CUS0854310000108379973004         BERGMAN HAROLD PAUL 443 OELLA AVE                           000N        CARE OF             
MTR08543100001000000000000000RA              54351924    005801420000014200000520000003NY  NNW 000                       N    
MTM0854310054351924    BURIEDINBUSHES                                                                                         
RDG08543100WATRL000000004K00000000000002251010908032015112920N000000000000U85       005310400K 10000000010000002238           
CUS0854310000108379944005         BERGMAN MARY ELIZABE441 OELLA AVE                           000N        CARE OF             
MTR08543100001000000000000000RA              33079960    005801430000014300000520000003NN  NNW 000                       N    
RDG08543100WATRL000000004K00000000000001365009708012015084755N000000000000N85       003740400K 10000000010000001365           
CUS0854310000108382004003         TERRY HOMES INC     433 OELLA AVE                           000N        CARE OF             
MTR08543100001000000000000000RA              14910206    005801440000014400000310000003NN  NNW 000                       N    
RDG08543100WATRL000000004K00000000000001604009808012015084907N000000000000N85       000720400K 10000000010000001582           
CUS0854310000108145123009         RUSSELL S BROWN     431 OELLA AVE                           000N        CARE OF             
MTR08543100001000000000000000RA              36697191    005801450000014500000520000003NN  NNW 000                       N    
RDG08543100WATRL000000004K00000000000001780009908012015085108N000300000010N85       001210400K 10000000010000001787           
CUS0854310000108145124007         GABRIEL R DEADWYLER 2400 WESTCHESTER AVE                    000N        CARE OF             
MTR08543100001000000000000000RA              26001112    005801460000014600000520000003NN  NNW 000                       N    
RDG08543100WATRL000000004K00000000000002453004508032015091048N000000000000U85       003770400K 10000000010000002439           
CUS0854310000108145125004         KING TANYA M        2402 WESTCHESTER AVE                    000N        CARE OF             
MTR08543100001000000000000000RA              75617596    005801470000014700000350000003NN  NNW 000                       N    
RDG08543100WATRL000000004K00000000000000084010008012015085340N000000000000N85       001520400K 10000000010000000068           
CUS0854310000108145126002         LOVELL TIMOTHY JONES2404 WESTCHESTER AVE                    000N        CARE OF             
MTR08543100001000000000000000RA              44178916    005801480000014800000520000003NN  NNW 000                       N    
RDG08543100WATRL000000004K00000000000001561010108012015085425N000000000000N85       000450400K 10000000010000001538           
CUS0854310000108145127000         BATEMAN DANIEL R    2406 WESTCHESTER AVE                    000N        CARE OF             
MTR08543100001000000000000000RA              14907967    005801490000014900000310000003NN  NNW 000                       N    
RDG08543100WATRL000000004K00000000000000933004608032015091249N000000000000U85       001210400K 10000000010000000901           
CUS0854310000108145128008         BALTIMORE COUNTY MAR2414 WESTCHESTER AVE                    000N        CARE OF             
MTR08543100001000000000000000RA              01105401    001501500000015000000610000003NN  NNW 000                       N    
RDG08543100WATRL000000005K00000000000002172010208012015085556N000000000000N85       000910500K 10000000010000002095           
CUS0854310000108145129006         WRIGHTSON JAMES A,JR2500 WESTCHESTER AVE                    000N        CARE OF             
MTR08543100001000000000000000RA              14910433    005801510000015100000310000003NN  NNW 000                       N    
RDG08543100WATRL000000004K00000000000000754004708032015091444N000000000000U85       001150400K 10000000010000000738           
CUS0854310000108145130004         ROCKENBAUGH LARRY B 2502 WESTCHESTER AVE                    000N        CARE OF             
MTR08543100001000000000000000RA              14910432    005801520000015200000310000003NN  NNW 000                       N    
RDG08543100WATRL000000004K00000000000001584004808032015091645N000000000000U85       001210400K 10000000010000001546           
CUS0854310000108145131002         GUSTIN DAVID S      2506 WESTCHESTER AVE                    000N        CARE OF             
MTR08543100001000000000000000RA              00131844    005801530000015300000570000003NN  NNW 000                       N    
RDG08543100WATRL000000004K00000000000001699004908032015091748N000000000000U85       000630400K 10000000010000001663           
CUS0854310000108145132000         STOLZENBACH NICHOLAS2510 WESTCHESTER AVE                    000N        CARE OF             
MTR08543100001000000000000000RA              38887681    005801540000015400000520000003NN  NNW 000                       N    
RDG08543100WATRL000000004K00000000000003306005008032015091951N000000000000U85       001230400K 10000000010000003296           
CUS0854310000108145133008         GAMBER DENNIS W     2516 WESTCHESTER AVE                    000N        CARE OF             
MTR08543100001000000000000000RA              14916793    005801550000015500000310000003NN  NNW 000                       N    
RDG08543100WATRL000000004K00000000000000539010308012015085954N000000000000N85       002380400K 10000000010000000531           
CUS0854310000108386234002         HEAD STEVEN G       2518 WESTCHESTER AVE                    000N        CARE OF             
MTR08543100001000000000000000RA              14910429    005801560000015600000310000003NN  NNW 000                       N    
RDG08543100WATRL000000004K00000000000000550010708012015090347N000000000000N85       000940400K 10000000010000000539           
CUS0854310000108379947008         SCHATZ BERNARD H    600 HOLLOW RD                           000N        CARE OF             
MTR08543100001000000000000000RA              31587112    005801570000015700000520000003NN  NNW 000                       N    
RDG08543100WATRL000000004K00000000000002812010808012015090517N000000000000N85       000900400K 10000000010000002801           
CUS0854310000108380121007         COFIELL FARLEY Y    606 HOLLOW RD                           000N        CARE OF             
MTR08543100001000000000000000RA              77886853    005801580000015800000360000003NN  NNW 000                       N    
RDG08543100WATRL000000004K00000000000000008010908012015091101N000000000000N85       003440400K 10000000010000000003           
CUS0854310000108379449005         ORDAKOWSKI KURTIS K 610 HOLLOW RD                           000N        CARE OF             
MTR08543100001000000000000000RA              33078807    005801590000015900000520000003NN  NNW 000                       N    
RDG08543100WATRL000000004K00000000000003799011008012015091156N000000000000N85       000550400K 10000000010000003790           
CUS0854310000108386157005         RODES STUART H      612 HOLLOW RD                           000N        CARE OF             
MTR08543100001000000000000000RA              29402375    005801600000016000000520000003NN  NNW 000                       N    
RDG08543100WATRL000000004K00000000000001865011108012015091325N000000000000N85       000890400K 10000000010000001852           
CUS0854310000108379929006         GREITNER CAROL S    716 HOLLOW RD                           000N        CARE OF             
MTR08543100001000000000000000RA              24229431    005801610000016100000520000003NN  NNW 000                       N    
RDG08543100WATRL000000004K00000000000001904011208012015091542N000000000000N85       001370400K 10000000010000001900           
CUS0854310000108379931002         BELLOMO DEREK       718 HOLLOW RD                           000N        CARE OF             
MTR08543100001000000000000000RA              29682677    005801620000016200000520000003NN  NNW 000                       N    
RDG08543100WATRL000000004K00000000000002051005108032015092153N000000000000U85       001220400K 10000000010000002041           
CUS0854310000108380087000         BITTINGER KENNETH   720 HOLLOW RD                           000N        CARE OF             
MTR08543100001000000000000000RA              33734008    005801630000016300000520000003NN  NNW 000                       N    
RDG08543100WATRL000000004K00000000000002091005208032015092243N000000000000U85       000500400K 10000000010000002086           
CUS0854310000108380120009         BARRETT WILLIAM H   732 HOLLOW RD                           000N        CARE OF             
MTR08543100001000000000000000RA              33732973    005801640000016400000520000003NN  NNW 000                       N    
RDG08543100WATRL000000004K00000000000002539005408032015092713N000000000000U85       001330400K 10000000010000002526           
CUS0854310000108379927000         VALENTE ALBERT DAVID734 HOLLOW RD                           000N        CARE OF             
MTR08543100001000000000000000RA              26003934    005801650000016500000520000003NN  NNW 000                       N    
RDG08543100WATRL000000004K00000000000001856005508032015092820N000000000000U85       000670400K 10000000010000001833           
CUS0854310000108380060007         KARL F ROENIGK      736 HOLLOW RD                           000N        CARE OF             
MTR08543100001000000000000000RA              33080498    005801660000016600000520000003NN  NNW 000                       N    
RDG08543100WATRL000000004K00000000000002131006008032015093857N000000000000U85       000670400K 10000000010000002109           
CUS0854310000108388962006         SHUGARS PATRICIA MAL739 HOLLOW RD                           000N        CARE OF             
MTR08543100001000000000000000RA              36688929    005801670000016700000520000003NN  NNW 000                       N    
RDG08543100WATRL000000004K00000000000002442005608032015093017N000400000010U85       001170400K 10000000010000002439           
CUS0854310000108379717005         KINNEAR GREGORY M   738 HOLLOW RD                           000N        CARE OF             
MTR08543100001000000000000000RA              33078810    005801680000016800000520000003NN  NNW 000                       N    
RDG08543100WATRL000000004K00000000000001639005708032015093048N000000000000U85       000310400K 10000000010000001638           
CUS0854310000108387606000         HANSON STEPHEN PAUL 740-A HOLLOW RD                         000N        CARE OF             
MTR08543100001000000000000000RA              35116474    005801690000016900000520000003NN  NNW 000                       N    
RDG08543100WATRL000000004K00000000000001959005808032015093125N000000000000U85       000370400K 10000000010000001955           
CUS0854310000108456899007         JENNIFER VINCENT    750 HOLLOW RD                           000N        CARE OF             
MTR08543100001000000000000000RA              77897064    000101700000017000000360000003NY  NNW 000                       N    
MTM0854310077897064    BURIED                                                                                                 
RDG08543100WATRL000000004K00000000000000000000000000000000000 000000000000U         000000400  10000000010000000000           
CUS0854310000108380122005         DIFOLCO STEPHEN     774 HOLLOW RD                           000N        CARE OF             
MTR08543100001000000000000000RA              33730460    005801710000017100000520000003NN  NNW 000                       N    
RDG08543100WATRL000000004K00000000000001153006108032015094052N000000000000U85       001150400K 10000000010000001152           
CUS0854310000108380123003         FAULKNER RODNEY R 2N776 HOLLOW RD                           000N        CARE OF             
MTR08543100001000000000000000RA              33730697    005801720000017200000520000003NN  NNW 000                       N    
RDG08543100WATRL000000004K00000000000002967006308032015094620N000000000000U85       002100400K 10000000010000002952           
CUS0854310000108386280005         BELLOMO DEREK       778 HOLLOW RD                           000N        CARE OF             
MTR08543100001000000000000000RA              35110778    005801730000017300000520000003NN  NNW 000                       N    
RDG08543100WATRL000000004K00000000000002093006508032015094919N000000000001U85       000710400K 10000000010000002078           
CUS0854310000108381560005         BIDDINGER HENRY W   780 HOLLOW RD                           000N        CARE OF             
MTR08543100001000000000000000RA              77989501    005801740000017400000350000003NN  NNW 000                       N    
RDG08543100WATRL000000004K00000000000000006006408032015094808N000000000000U85       001080400K 10000000010000000004           
CUS0854310000108379331005         CORYELL WALTER T,JR 786 HOLLOW RD                           000N        CARE OF             
MTR08543100001000000000000000RA              00131966    005801750000017500000570000003NN  NNW 000                       N    
RDG08543100WATRL000000004K00000000000001289006608032015095252N000000000000U85       002130400K 10000000010000001262           
CUS0854310000108379334009         HORWITZ DONALD K    792 HOLLOW RD                           000N        CARE OF             
MTR08543100001000000000000000RA              27213639    005801760000017600000520000003NN  NNW 000                       N    
RDG08543100WATRL000000004K00000000000003361006708032015095409N000400000010U85       000770400K 10000000010000003351           
CUS0854310000108440784000         KULA JOHN P         799 HOLLOW RD                           000N        CARE OF             
MTR08543100001000000000000000RA              14919103    005801770000017700000310000003NN  NNW 000                       N    
RDG08543100WATRL000000004K00000000000000785006808032015095510N000000000000U85       000610400K 10000000010000000763           
CUS0854310000108379447009         KYLE WILLIAM        789 HOLLOW RD                           000N        CARE OF             
MTR08543100001000000000000000RA              33078880    005801780000017800000520000003NN  NNW 000                       N    
RDG08543100WATRL000000004K00000000000002102006908032015095942N000000000000U85       002720400K 10000000010000002091           
CUS0854310000108379333001         WELLEN JEFFREY J    779 HOLLOW RD                           000N        CARE OF             
MTR08543100001000000000000000RA              48588785    005801790000017900000520000003NY  NNW 000                       N    
MTM0854310048588785    CLEANOUTVAULT                                                                                          
RDG08543100WATRL000000004K00000000000000000000000000000000000 000000000000U         000000400  10000000010000002523           
CUS0854310000108379332003         WELLEN JEFFREY J    777 HOLLOW RD                           000N        CARE OF             
MTR08543100001000000000000000RA              01110577    005801800000018000000610000003NY  NNW 000                       N    
MTM0854310001110577    CLEANOUTVAULT                                                                                          
RDG08543100WATRL000000004K00000000000000000000000000000000000 000000000000U         000000400  10000000010000000473           
CUS0854310000108424648007         STEPHANIE MCCARTHY  775 HOLLOW RD                           000N        CARE OF             
MTR08543100001000000000000000RA              50790444    005801810000018100000520000000NN  NNW 000                       N    
RDG08543100WATRL000000004K00000000000003148006208032015094250N000400000010U85       001180400K 10000000010000003139           
CUS0854310000108380880008         AFFELDT LAURA MARIE 768 GLEN AVE                            000N        CARE OF             
MTR08543100001000000000000000RA              48584558    005801820000018200000520000003NN  NNW 000                       N    
RDG08543100WATRL000000004K00000000000000838007508032015100710N000000000000U85       000590400K 10000000010000000834           
CUS0854310000108386232006         WENDY J STEVENS     786 GLEN AVE                            000N        CARE OF             
MTR08543100001000000000000000RA              01112004    005801830000018300000610000003NY  NNW 000                       N    
MTM0854310001112004    K                                                                                                      
RDG08543100WATRL000000004K00000000000000541007708032015101711N000000000000U85       005090400K 10000000010000000526           
CUS0854310000108379448007         CHRISTOPHER KRALOWET792 GLEN AVE                            000N        CARE OF             
MTR08543100001000000000000000RA              33081304    005801840000018400000520000003NN  NNW 000                       N    
RDG08543100WATRL000000004K00000000000002470007008032015100122N000000000000U85       001000400K 10000000010000002457           
CUS0854310000108385728004         SHEA PATRICIA A     791 GLEN AVE                            000N        CARE OF             
MTR08543100001000000000000000RA              48584537    005801850000018500000520000003NN  NNW 000                       N    
RDG08543100WATRL000000004K00000000000001410007108032015100230N000000000000U85       000680400K 10000000010000001400           
CUS0854310000108379433009         CARL STIGLER        781 GLEN AVE                            000N        CARE OF             
MTR08543100001000000000000000RA              44174384    005801860000018600000520000003NN  NNW 000                       N    
RDG08543100WATRL000000004K00000000000002105007208032015100340N000000000000U85       000700400K 10000000010000002078           
CUS0854310000108382003005         SAWDEY GARY J       777 GLEN AVE                            000N        CARE OF             
MTR08543100001000000000000000RA              33735035    005801870000018700000520000003NN  NNW 000                       N    
RDG08543100WATRL000000004K00000000000002746007308032015100428N000000000000U85       000480400K 10000000010000002736           
CUS0854310000108380178007         GIBSON DEBRA L      767 GLEN AVE                            000N        CARE OF             
MTR08543100001000000000000000RA              33082211    005801880000018800000520000003NN  NNW 000                       N    
RDG08543100WATRL000000004K00000000000001668007408032015100611N000100000010U85       001030400K 10000000010000001668           
CUS0854310000108379930004         JOHNSON PATRICIA ANN721 HOLLOW RD                           000N        CARE OF             
MTR08543100001000000000000000RA              00131841    005801890000018900000570000003NN  NNW 000                       N    
RDG08543100WATRL000000004K00000000000000843007608032015100842N000000000000U85       000920400K 10000000010000000833           
CUS0854310000108408721002         BAUMGARTNER CHRISTOP700 CHARLES JAMES CIR                   000N        CARE OF             
MTR08543100001000000000000000RA              45378380    005801900000019000000520000003NN  NNW 000                       N    
RDG08543100WATRL000000004K00000000000002606011408012015093756N000000000000N85       012000400K 10000000010000002591           
CUS0854310000108408722000         ECKSTEIN JOHN C     702 CHARLES JAMES CIR                   000N        CARE OF             
MTR08543100001000000000000000RA              45374778    005801910000019100000520000003NN  NNW 000                       N    
RDG08543100WATRL000000004K00000000000003115011508012015093921N000000000000N85       000850400K 10000000010000003102           
CUS0854310000108408720004         WHELAN JOHN R       704 CHARLES JAMES CIR                   000N        CARE OF             
MTR08543100001000000000000000RA              45378381    005801920000019200000520000003NN  NNW 000                       N    
RDG08543100WATRL000000004K00000000000004229011608012015094042N000000000000N85       000810400K 10000000010000004194           
CUS0854310000108407596009         MCMONIGLE SHIRLEY AN800 CHARLES JAMES CIR                   000N        CARE OF             
MTR08543100001000000000000000RA              45384580    005801930000019300000520000003NN  NNW 000                       N    
RDG08543100WATRL000000004K00000000000001198011708012015094842N000000000000N85       004800400K 10000000010000001194           
CUS0854310000108407597007         DIXON MARSHA L      802 CHARLES JAMES CIR                   000N        CARE OF             
MTR08543100001000000000000000RA              45384540    005801940000019400000520000003NN  NNW 000                       N    
RDG08543100WATRL000000004K00000000000001078011808012015094909N000000000000N85       000270400K 10000000010000001070           
CUS0854310000108407598005         GOLDHEIM ROBERT B   804 CHARLES JAMES CIR                   000N        CARE OF             
MTR08543100001000000000000000RA              45384539    005801950000019500000520000003NN  NNW 000                       N    
RDG08543100WATRL000000004K00000000000001917011908012015094914N000000000000N85       000050400K 10000000010000001899           
CUS0854310000108407599003         JEREMIAH KEITH      806 CHARLES JAMES CIR                   000N        CARE OF             
MTR08543100001000000000000000RA              45384543    005801960000019600000520000003NN  NNW 000                       N    
RDG08543100WATRL000000004K00000000000001767012008012015095000N000000000000N85       000460400K 10000000010000001750           
CUS0854310000108407600009         HUGHES CHRISTOPHER J808 CHARLES JAMES CIR                   000N        CARE OF             
MTR08543100001000000000000000RA              45384541    005801970000019700000520000003NN  NNW 000                       N    
RDG08543100WATRL000000004K00000000000001392012108012015095003N000000000000N85       000030400K 10000000010000001380           
CUS0854310000108407579005         CHILDERS CHRISTOPHER810 CHARLES JAMES CIR                   000N        CARE OF             
MTR08543100001000000000000000RA              45384538    005801980000019800000520000003NN  NNW 000                       N    
RDG08543100WATRL000000004K00000000000001884012208012015095107N000000000000N85       000640400K 10000000010000001866           
CUS0854310000108407580003         MEHTA KALYANI D TRUS812 CHARLES JAMES CIR                   000N        CARE OF             
MTR08543100001000000000000000RA              00131935    005801990000019900000570000003NN  NNW 000                       N    
RDG08543100WATRL000000004K00000000000000691012308012015095112N000000000000N85       000050400K 10000000010000000670           
CUS0854310000108407581001         HARTPENCE-WARNER JOY814 CHARLES JAMES CIR                   000N        CARE OF             
MTR08543100001000000000000000RA              45384381    005802000000020000000520000003NN  NNW 000                       N    
RDG08543100WATRL000000004K00000000000002125012408012015095218N000000000000N85       000660400K 10000000010000002101           
CUS0854310000108407582009         DENNIS P. O'BRIEN   816 CHARLES JAMES CIR                   000N        CARE OF             
MTR08543100001000000000000000RA              45384583    005802010000020100000520000003NN  NNW 000                       N    
RDG08543100WATRL000000004K00000000000001647012508012015095232N000000000000N85       000140400K 10000000010000001635           
CUS0854310000108407583007         MOOSHEGIAN DONNA M  818 CHARLES JAMES CIR                   000N        CARE OF             
MTR08543100001000000000000000RA              45384585    005802020000020200000520000003NN  NNW 000                       N    
RDG08543100WATRL000000004K00000000000001785012608012015095242N000000000000N85       000100400K 10000000010000001740           
CUS0854310000108407584005         KANE MARCIA A       820 CHARLES JAMES CIR                   000N        CARE OF             
MTR08543100001000000000000000RA              45378638    005802030000020300000520000003NN  NNW 000                       N    
RDG08543100WATRL000000004K00000000000002161012708012015095259N000000000000N85       000170400K 10000000010000002140           
CUS0854310000108407585002         LARSON DANIEL J     822 CHARLES JAMES CIR                   000N        CARE OF             
MTR08543100001000000000000000RA              45378448    005802040000020400000520000003NN  NNW 000                       N    
RDG08543100WATRL000000004K00000000000001794012808012015095308N000000000000N85       000090400K 10000000010000001782           
CUS0854310000108407586000         YOUNGBLOOD SIMONE   824 CHARLES JAMES CIR                   000N        CARE OF             
MTR08543100001000000000000000RA              50787594    005802050000020500000520000003NN  NNW 000                       N    
RDG08543100WATRL000000004K00000000000001413012908012015095356N000000000000N85       000480400K 10000000010000001406           
CUS0854310000108407587008         JACOB WILSON        826 CHARLES JAMES CIR                   000N        CARE OF             
MTR08543100001000000000000000RA              45378415    005802060000020600000520000003NN  NNW 000                       N    
RDG08543100WATRL000000004K00000000000001487013008012015095425N000000000000N85       000290400K 10000000010000001484           
CUS0854310000108407588006         ARTIOM PUSCAS       828 CHARLES JAMES CIR                   000N        CARE OF             
MTR08543100001000000000000000RA              45378377    005802070000020700000520000003NN  NNW 000                       N    
RDG08543100WATRL000000004K00000000000001162013108012015095431N000300000010N85       000060400K 10000000010000001148           
CUS0854310000108407589004         HOOKER MALCOLM P,JR 830 CHARLES JAMES CIR                   000N        CARE OF             
MTR08543100001000000000000000RA              01115265    005802080000020800000610000003NN  NNW 000                       N    
RDG08543100WATRL000000004K00000000000001379013208012015095518N000000000000N85       000470400K 10000000010000001353           
CUS0854310000108407590002         ROCHE CARMEL        832 CHARLES JAMES CIR                   000N        CARE OF             
MTR08543100001000000000000000RA              10010337    005802090000020900000570000003NN  NNW 000                       N    
RDG08543100WATRL000000004K00000000000001235013308012015095534N000000000000N85       000160400K 10000000010000001212           
CUS0854310000108407591000         MILNER KENNETH & MAR825 CHARLES JAMES CIR                   000N        CARE OF             
MTR08543100001000000000000000RA              45378639    005802100000021000000520000003NN  NNW 000                       N    
RDG08543100WATRL000000004K00000000000000273013408012015095537N000000000000N85       000030400K 10000000010000000264           
CUS0854310000108407592008         CROSLAND KATHLEEN L 823 CHARLES JAMES CIR                   000N        CARE OF             
MTR08543100001000000000000000RA              45378639    005802110000021100000520000003NN  NNW 000                       N    
RDG08543100WATRL000000004K00000000000001169013508012015095550N000000000000N85       000130400K 10000000010000001155           
CUS0854310000108407593006         ZIPFEL HANS MARTIN  821 CHARLES JAMES CIR                   000N        CARE OF             
MTR08543100001000000000000000RA              45378487    005802120000021200000520000003NN  NNW 000                       N    
RDG08543100WATRL000000004K00000000000001336013608012015095607N000000000000N85       000170400K 10000000010000001321           
CUS0854310000108407594004         JENNIFER C. RAO     819 CHARLES JAMES CIR                   000N        CARE OF             
MTR08543100001000000000000000RA              01102345    005802130000021300000610000003NN  NNW 000                       N    
RDG08543100WATRL000000004K00000000000000700013708012015095640N000000000000N85       000330400K 10000000010000000677           
CUS0854310000108407595001         MULLIN TONI MARIE   817 CHARLES JAMES CIR                   000N        CARE OF             
MTR08543100001000000000000000RA              44178268    005802140000021400000520000003NN  NNW 000                       N    
RDG08543100WATRL000000004K00000000000001116013808012015095705N000000000000N85       000250400K 10000000010000001108           
CUS0854310000108407601007         SEIDMAN ALAN M      815 CHARLES JAMES CIR                   000N        CARE OF             
MTR08543100001000000000000000RA              44177603    005802150000021500000520000003NN  NNW 000                       N    
RDG08543100WATRL000000004K00000000000002321013908012015095729N000000000000N85       000240400K 10000000010000002309           
CUS0854310000108407602005         COOK MARY E         813 CHARLES JAMES CIR                   000N        CARE OF             
MTR08543100001000000000000000RA              44177602    005802160000021600000520000003NN  NNW 000                       N    
RDG08543100WATRL000000004K00000000000001258014008012015095733N000000000000N85       000040400K 10000000010000001241           
CUS0854310000108407603003         HYDER MARY L        811 CHARLES JAMES CIR                   000N        CARE OF             
MTR08543100001000000000000000RA              01085133    005802170000021700000610000003NN  NNW 000                       N    
RDG08543100WATRL000000004K00000000000000357014108012015095807N000000000000N85       000340400K 10000000010000000350           
CUS0854310000108407604001         PULONE JOSEPH L     809 CHARLES JAMES CIR                   000N        CARE OF             
MTR08543100001000000000000000RA              45373160    005802180000021800000520000003NN  NNW 000                       N    
RDG08543100WATRL000000004K00000000000003142014208012015095825N000000000000N85       000180400K 10000000010000003111           
CUS0854310000108407605008         REISS CHARLES       807 CHARLES JAMES CIR                   000N        CARE OF             
MTR08543100001000000000000000RA              45373068    005802190000021900000520000003NN  NNW 000                       N    
RDG08543100WATRL000000004K00000000000001631014308012015095846N000000000000N85       000210400K 10000000010000001611           
CUS0854310000108407606006         SERPICO DENNIS P,TRU805 CHARLES JAMES CIR                   000N        CARE OF             
MTR08543100001000000000000000RA              45373146    005802200000022000000520000003NN  NNW 000                       N    
RDG08543100WATRL000000004K00000000000001747014408012015100709N000000000000N85       005030400K 10000000010000001731           
CUS0854310000108407607004         UNDERWOOD KRIS M    803 CHARLES JAMES CIR                   000N        CARE OF             
MTR08543100001000000000000000RA              45373158    005802210000022100000520000003NN  NNW 000                       N    
RDG08543100WATRL000000004K00000000000001919014508012015100725N000000000000N85       000160400K 10000000010000001895           
CUS0854310000108407608002         BRAUNSTEIN ROBIN E  801 CHARLES JAMES CIR                   000N        CARE OF             
MTR08543100001000000000000000RA              45373161    005802220000022200000520000003NN  NNW 000                       N    
RDG08543100WATRL000000004K00000000000002167014608012015100830N000000000000N85       000650400K 10000000010000002151           
CUS0854310000108414105000         BESSON JOHN         795 CHARLES JAMES CIR                   000N        CARE OF             
MTR08543100001000000000000000RA              99999999    005802230000022300000620000003NN  NNW 000                       N    
RDG08543100WATRL000000004K00000000000000000005708012015074216S002000000000N85       000590400K 10000000010000000296           
CUS0854310000108414106008         BESSON JOHN         797 CHARLES JAMES CIR                   000N        CARE OF             
MTR08543100001000000000000000RA              99999999    000102240000022400000620000003NN  NNW 000                       N    
RDG08543100WATRL000000004K00000000000000000005808012015074233S002000000000N85       000170400K 10000000010000000293           
CUS0854310000108414104003         BESSON JOHN         799 CHARLES JAMES CIR                   000N        CARE OF             
MTR08543100001000000000000000RA              75616487    005802250000022500000350000003NN  NNW 000                       N    
RDG08543100WATRL000000004K00000000000000125005908012015074305N000000000000N85       000320400K 10000000010000000103           
CUS0854310000108379928008         PETERS ROBERT J,JR  715 HOLLOW RD                           000N        CARE OF             
MTR08543100001000000000000000RA              30524052    005802260000022600000520000003NN  NNW 000                       N    
RDG08543100WATRL000000004K00000000000003337011308012015091756N000000000000N85       001340400K 10000000010000003302           
CUS0854310000108408724006         MARVIN MILLER       717 HOLLOW RD                           000N        CARE OF             
MTR08543100001000000000000000RA              52285232    005802270000022700000520000003NN  NNW 000                       N    
RDG08543100WATRL000000004K00000000000001597007808032015101909N000000000000U85       001180400K 10000000010000001584           
CUS0854310000108408723008         PAMELA D REDFERN    713 HOLLOW RD                           000N        CARE OF             
MTR08543100001000000000000000RA              45373070    005802280000022800000520000003NN  NNW 000                       N    
RDG08543100WATRL000000004K00000000000002263005308032015092500N000000000000U85       001370400K 10000000010000002247           
CUS0854310000108145134006         BEASLEY MARYBETH G  601 HOLLOW RD                           000N        CARE OF             
MTR08543100001000000000000000RA              00131400    005802290000022900000570000003NN  NNW 000                       N    
RDG08543100WATRL000000004K00000000000001075007908032015102303N000000000000U85       002340400K 10000000010000001052           
CUS0854310000108145135003         DOUGHTERY LINDSAY T 2602 WESTCHESTER AVE                    000N        CARE OF             
MTR08543100001000000000000000RA              48588861    005802300000023000000520000003NN  NNW 000                       N    
RDG08543100WATRL000000004K00000000000001764008008032015102347N000000000000U85       000440400K 10000000010000001729           
CUS0854310000108145136001         CASHOUR CURT P      2604 WESTCHESTER AVE                    000N        CARE OF             
MTR08543100001000000000000000RA              00131470    005802310000023100000570000003NN  NNW 000                       N    
RDG08543100WATRL000000004K00000000000000778008108032015102439N000000000000U85       000520400K 10000000010000000765           
CUS0854310000108145137009         MARKS TODD ANDREW   2610 WESTCHESTER AVE                    000N        CARE OF             
MTR08543100001000000000000000RA              32899766    005802320000023200000520000003NN  NNW 000                       N    
RDG08543100WATRL000000004K00000000000002907008208032015102617N000000000000U85       000980400K 10000000010000002852           
CUS0854310000108145138007         DAPKUNAS RONALD M   2612 WESTCHESTER AVE                    000N        CARE OF             
MTR08543100001000000000000000RA              48588884    005802330000023300000520000003NN  NNW 000                       N    
RDG08543100WATRL000000004K00000000000001635008308032015102716N000000000000U85       000590400K 10000000010000001592           
CUS0854310000108397301006         MANDL STELLA RUTH   2616 WESTCHESTER AVE                    000N        CARE OF             
MTR08543100001000000000000000RA              39585960    005802340000023400000520000003NN  NNW 000                       N    
RDG08543100WATRL000000004K00000000000005076008408032015102806N000000000000U85       000500400K 10000000010000005027           
CUS0854310000108145139005         MEYERS KATHERINE    2622 WESTCHESTER AVE                    000N        CARE OF             
MTR08543100001000000000000000RA              22609451    005802350000023500000520000003NN  NNW 000                       N    
RDG08543100WATRL000000004K00000000000003226008508032015102911N000000000000U85       000650400K 10000000010000003202           
CUS0854310000108145140003         BULLARD WALTER D,JR 2630 WESTCHESTER AVE                    000N        CARE OF             
MTR08543100001000000000000000RA              44179032    005802360000023600000520000003NN  NNW 000                       N    
RDG08543100WATRL000000004K00000000000002431008608032015103212N000400000010U85       001810400K 10000000010000002427           
CUS0854310000108145141001         SHAH NANCY D        2632 WESTCHESTER AVE                    000N        CARE OF             
MTR08543100001000000000000000RA              44179063    005802370000023700000520000003NN  NNW 000                       N    
RDG08543100WATRL000000004K00000000000001478008708032015103300N000000000000U85       000480400K 10000000010000001469           
CUS0854310000108145142009         REEVES BRETT ALAN   2634 WESTCHESTER AVE                    000N        CARE OF             
MTR08543100001000000000000000RA              00131353    005802380000023800000570000003NN  NNW 000                       N    
RDG08543100WATRL000000004K00000000000000754008808032015103434N000000000000U85       000940400K 10000000010000000738           
CUS0854310000108145143007         JENSON MICHAEL D,JR 2636 WESTCHESTER AVE                    000N        CARE OF             
MTR08543100001000000000000000RA              01094790    005802390000023900000610000003NN  NNW 000                       N    
RDG08543100WATRL000000004K00000000000000495008908032015103613N000000000000U85       000990400K 10000000010000000495           
CUS0854310000108145144005         JENSON MICHAEL D,JR 2638 WESTCHESTER AVE                    000N        CARE OF             
MTR08543100001000000000000000RA              00131472    005802400000024000000570000003NN  NNW 000                       N    
RDG08543100WATRL000000004K00000000000000897009008032015103645N000000000000U85       000320400K 10000000010000000897           
CUS0854310000108145145002         BRICH ROBERT J      2642 WESTCHESTER AVE                    000N        CARE OF             
MTR08543100001000000000000000RA              23051923    005802410000024100000520000003NN  NNW 000                       N    
RDG08543100WATRL000000004K00000000000005228009108032015103923N000300000010U85       001580400K 10000000010000005175           
CUS0854310000108145146000         FORSYTH MARK B      2710 WESTCHESTER AVE                    000N        CARE OF             
MTR08543100001000000000000000RA              52770111    005802420000024200000520000003NN  NNW 000                       N    
RDG08543100WATRL000000004K00000000000001759009208032015104105N000000000000U85       001020400K 10000000010000001740           
CUS0854310000108382423005         BOURASSEAU MARCEL   3000 WESTCHESTER AVE                    000N        CARE OF             
MTR08543100001000000000000000RA              35098423    005802430000024300000520000003NN  NNW 000                       N    
RDG08543100WATRL000000004K00000000000002909015108012015101536N000000000000N85       001840400K 10000000010000002894           
CUS0854310000106381240008         KARR HOLLIS         3002 WESTCHESTER AVE                    000N        CARE OF             
MTR08543100001000000000000000RA              33735031    005802440000024400000520000003NN  NNW 000                       N    
RDG08543100WATRL000000004K00000000000002075015208012015101621N000000000000N85       000450400K 10000000010000002064           
CUS0854310000108382691007         HEALEY WILLIAM F    3004 WESTCHESTER AVE                    000N        CARE OF             
MTR08543100001000000000000000RA              35098424    005802450000024500000520000000NN  NNW 000                       N    
RDG08543100WATRL000000004K00000000000003881015308012015101623N000000000000N85       000020400K 10000000010000003866           
CUS0854310000108381040008         ORTIZ JULIA I       3006 WESTCHESTER AVE                    000N        CARE OF             
MTR08543100001000000000000000RA              33735030    005802460000024600000520000000NN  NNW 000                       N    
RDG08543100WATRL000000004K00000000000001445015408012015101703N000000000000N85       000400400K 10000000010000001445           
CUS0854310000106381241006         MELVIN S. BECK      3008 WESTCHESTER AVE                    000N        CARE OF             
MTR08543100001000000000000000RA              48590723    005802470000024700000520000003NN  NNW 000                       N    
RDG08543100WATRL000000004K00000000000000657015508012015101705N000000000000N85       000020400K 10000000010000000650           
CUS0854310000108381349003         BURNS JOHN D        3010 WESTCHESTER AVE                    000N        CARE OF             
MTR08543100001000000000000000RA              33082415    005802480000024800000520000003NN  NNW 000                       N    
RDG08543100WATRL000000004K00000000000002316015608012015101757N000000000000N85       000520400K 10000000010000002304           
CUS0854310000108381246001         ZIYU WANG           3012 WESTCHESTER AVE                    000N        CARE OF             
MTR08543100001000000000000000RA              33734915    005802490000024900000520000003NN  NNW 000                       N    
RDG08543100WATRL000000004K00000000000001414015708012015101759N000000000000N85       000020400K 10000000010000001402           
CUS0854310000108382696006         MOREA JOSEPH        4 FREDERICK RD                          000N        CARE OF             
MTR08543100001000000000000000RA              10012958    005802500000025000000570000003NN  NNW 000                       N    
RDG08543100WATRL000000004K00000000000000807015808012015101845N000000000000N85       000460400K 10000000010000000756           
CUS0854310000108381245003         ZIYU WANG           3014 WESTCHESTER AVE                    000N        CARE OF             
MTR08543100001000000000000000RA              33734912    005802510000025100000520000003NN  NNW 000                       N    
RDG08543100WATRL000000004K00000000000002043015908012015101945N000000000000N85       000600400K 10000000010000002042           
CUS0854310000102382991004         DICK ENTERPRISES, LL3022 WESTCHESTER AVE                    000N        CARE OF             
MTR08543100001000000000000000RA              35098235    005802520000025200000520000003NN  NNW 000                       N    
RDG08543100WATRL000000004K00000000000002213016008012015101953N000000000000N85       000080400K 10000000010000002200           
CUS0854310000102382992002         DICK ENTERPRISES, LL3024 WESTCHESTER AVE                    000N        CARE OF             
MTR08543100001000000000000000RA              35098234    005802530000025300000520000003NN  NNW 000                       N    
RDG08543100WATRL000000004K00000000000001386016108012015102034N000000000000N85       000410400K 10000000010000001375           
CUS0854310000108384757004         KELLIE COSBY        3015 WESTCHESTER AVE                    000N        CARE OF             
MTR08543100001000000000000000RA              44179065    005802540000025400000520000003NN  NNW 000                       N    
RDG08543100WATRL000000004K00000000000002779016208012015102117N000000000000N85       000430400K 10000000010000002770           
CUS0854310000108381159006         JUSTIN D VALENTINE  3005 WESTCHESTER AVE                    000N        CARE OF             
MTR08543100001000000000000000RA              33081846    005802550000025500000520000003NN  NNW 000                       N    
RDG08543100WATRL000000004K00000000000001477016308012015102220N000000000000N85       000630400K 10000000010000001457           
CUS0854310000108381820003         MCLAUGHLIN PATRICIA 3003 WESTCHESTER AVE                    000N        CARE OF             
MTR08543100001000000000000000RA              75615008    005802560000025600000350000003NN  NNW 000                       N    
RDG08543100WATRL000000004K00000000000000127009508032015104518N000000000001U85       001700400K 10000000010000000117           
CUS0854310000108382615006         BLUE BRADLEY M      2919 WESTCHESTER AVE                    000N        CARE OF             
MTR08543100001000000000000000RA              33735947    005802570000025700000520000003NN  NNW 000                       N    
RDG08543100WATRL000000004K00000000000003290015008012015101232N000000000000N85       000410400K 10000000010000003285           
CUS0854310000108379235008         MENDOZA MELANIE H   2917 WESTCHESTER AVE                    000N        CARE OF             
MTR08543100001000000000000000RA              33080503    005802580000025800000520000003NN  NNW 000                       N    
RDG08543100WATRL000000004K00000000000003200014908012015101151N000000000000N85       000350400K 10000000010000003184           
CUS0854310000108379987004         FARRELL FRANCIS G   2911 WESTCHESTER AVE                    000N        CARE OF             
MTR08543100001000000000000000RA              33083094    005802590000025900000520000003NN  NNW 000                       N    
RDG08543100WATRL000000004K00000000000008426014808012015101116N000000000000N85       000760400K 10000000010000008366           
CUS0854310000108386236007         NILLES JOHN CHARLES 2901 WESTCHESTER AVE                    000N        CARE OF             
