FHDNNNN023004831004831004943N                                                                                           014959
RHD06919500NN02280228000002280000000002280228000378NY022802280228001800030000000000000000000002    07162015NY020000 N         
CUS0691950000106091125002         REED CHARLES J,JR   610 GREYHOUND RD                        000N        CARE OF             
MTR06919500001000000000000000RA              00135190    005800010000000100000570000003NN  NNW 000                       N    
RDG06919500WATRL000000004K00000000000000788008607182015091557N000400000010N40       001560400K 10000000010000000779           
CUS0691950000106091124005         CLAYTON WOODROW S,JR606 GREYHOUND RD                        000N        CARE OF             
MTR06919500001000000000000000RA              01102722    005800020000000200000610000003NN  NNW 000                       N    
RDG06919500WATRL000000004K00000000000000910008707182015091757N000400000010N40       001200400K 10000000010000000896           
CUS0691950000106091123007         LISA N. YOST        604 GREYHOUND RD                        000N        CARE OF             
MTR06919500001000000000000000RA              27818089    005800030000000300000520000003NN  NNW 000                       N    
RDG06919500WATRL000000004K00000000000003081008807182015091854N000000000000N40       000570400K 10000000010000003064           
CUS0691950000106091122009         JERRY ZAHRADKA      602 GREYHOUND RD                        000N        CARE OF             
MTR06919500001000000000000000RA              54348442    005800040000000400000520000003NN  NNW 000                       N    
RDG06919500WATRL000000004K00000000000001156008907182015091952N000000000000N40       000580400K 10000000010000001134           
CUS0691950000106091121001         HUGHES KATHERINE K T600 GREYHOUND RD                        000N        CARE OF             
MTR06919500001000000000000000RA              54348173    005800050000000500000520000003NN  NNW 000                       N    
RDG06919500WATRL000000004K00000000000000990009007182015092048N000400000010N40       000560400K 10000000010000000983           
CUS0691950000106421164002         FRENCH HOWARD V     320 GREYHOUND RD                        000N        CARE OF             
MTR06919500001000000000000000RA              50478362    005800060000000600000520000003NN  NNW 000                       N    
RDG06919500WATRL000000004K00000000000001292009107182015092231N000000000000N40       001030400K 10000000010000001280           
CUS0691950000106426042005         WILSON NELSON R     318 GREYHOUND RD                        000N        CARE OF             
MTR06919500001000000000000000RA              99290971    005800070000000700000570000003NN  NNW 000                       N    
RDG06919500WATRL000000004K00000000000002555009407182015092533N000000000000N40       001030400K 10000000010000002522           
CUS0691950000106432235007         FRENCH HOWARD V,JR  316 GREYHOUND RD                        000N        CARE OF             
MTR06919500001000000000000000RA              99999999    005800080000000800000440000003NN  NNW 000                       N    
RDG06919500WATRL000000004K00000000000000754009507182015092821N000000000000N40       001680400K 10000000010000000744           
CUS0691950000106091120003         WAGNER JOANNE       314 GREYHOUND RD                        000N        CARE OF             
MTR06919500001000000000000000RA              44002216    005800090000000900000520000003NN  NNW 000                       N    
RDG06919500WATRL000000004K00000000000000919010007182015093837N000400000010N40       002510400K 10000000010000000915           
CUS0691950000106091119005         SPEALMANN BETTY JOE 304 GREYHOUND RD                        000N        CARE OF             
MTR06919500001000000000000000RA              48590584    005800100000001000000520000003NN  NNW 000                       N    
RDG06919500WATRL000000004K00000000000000861010407182015094529N000000000000N40       001350400K 10000000010000000856           
CUS0691950000106091118007         STARKEY TIMOTHY     302 GREYHOUND RD                        000N        CARE OF             
MTR06919500001000000000000000RA              33732170    005800110000001100000520000003NN  NNW 000                       N    
RDG06919500WATRL000000004K00000000000003726010507182015094615N000000000000N40       000460400K 10000000010000003709           
CUS0691950000106091117009         JONES LEROY E       300 GREYHOUND RD                        000N        CARE OF             
MTR06919500001000000000000000RA              48585488    005800120000001200000520000003NY  NNW 000                       N    
MTM0691950048585488    CANT LOCATE                                                                                            
RDG06919500WATRL000000004K00000000000000000000000000000000000 000000000000U         000000400  10000000010000001591           
CUS0691950000106091116001         NELSON KATHERINE S  2100 ROSALIE AVE                        000N        CARE OF             
MTR06919500001000000000000000RA              75616076    005800130000001300000350000003NY  NNW 000                       N    
MTM0691950075616076    CANT LOCATE                                                                                            
RDG06919500WATRL000000004K00000000000000000000000000000000000 000000000000U         000000400  10000000010000000000           
CUS0691950000106091101003         BRONUSHAS JOHN W    2104 ROSALIE AVE                        000N        CARE OF             
MTR06919500001000000000000000RA              44176118    005800140000001400000520000003NN  NNW 000                       N    
RDG06919500WATRL000000004K00000000000001661010607182015095331N000000000000N40       004360400K 10000000010000001637           
CUS0691950000106091114006         WEBER STEVEN A      2114 ROSALIE AVE                        000N        CARE OF             
MTR06919500001000000000000000RA              14924701    005800150000001500000310000003NN  NNW 000                       N    
RDG06919500WATRL000000004K00000000000000200011107182015100039N000000000000N40       001200400K 10000000010000000196           
CUS0691950000106091113008         WOLF CHRIS          2116 ROSALIE AVE                        000N        CARE OF             
MTR06919500001000000000000000RA              14903449    005800160000001600000310000003NN  NNW 000                       N    
RDG06919500WATRL000000004K00000000000000650011207182015100211N000400000010N40       000920400K 10000000010000000642           
CUS0691950000106091112000         SONBERG EDWARD J    2118 ROSALIE AVE                        000N        CARE OF             
MTR06919500001000000000000000RA              77879486    005800170000001700000360000003NN  NNW 000                       N    
RDG06919500WATRL000000004K00000000000000021011407182015100602N000000000010N40       001620400K 10000000010000000000           
CUS0691950000106091111002         BRASHEARS GEORGE L/J2122 ROSALIE AVE                        000N        CARE OF             
MTR06919500001000000000000000RA              27818084    005800180000001800000520000003NN  NNW 000                       N    
RDG06919500WATRL000000004K00000000000000773011507182015100700N000400000010N40       000580400K 10000000010000000767           
CUS0691950000106091110004         MILLER LINDA LOUISE 2124 ROSALIE AVE                        000N        CARE OF             
MTR06919500001000000000000000RA              27818018    005800190000001900000520000003NN  NNW 000                       N    
RDG06919500WATRL000000004K00000000000000887011607182015100751N000100000010N40       000510400K 10000000010000000887           
CUS0691950000106091109006         SHEILA BEALL        2126 ROSALIE AVE                        000N        CARE OF             
MTR06919500001000000000000000RA              33735200    005800200000002000000520000003NN  NNW 000                       N    
RDG06919500WATRL000000004K00000000000001861009307182015100837N000000000000N65       000570400K 10000000010000001859           
CUS0691950000106091108008         ROSALIE AVENUE LLC  2128 ROSALIE AVE                        000N        CARE OF             
MTR06919500001000000000000000RA              33735410    005800210000002100000520000003NN  NNW 000                       N    
RDG06919500WATRL000000004K00000000000001560009207182015100740N000000000000N65       000520400K 10000000010000001530           
CUS0691950000106091107000         RAYMOND D HAVARD    2132 ROSALIE AVE                        000N        CARE OF             
MTR06919500001000000000000000RA              45381907    005800220000002200000520000003NN  NNW 000                       N    
RDG06919500WATRL000000004K00000000000001947009107182015100648N000300000010N65       000520400K 10000000010000001841           
CUS0691950000106091106002         DR & MRS HUGO BENALC2136 ROSALIE AVE                        000N        CARE OF             
MTR06919500001000000000000000RA              54348051    005800230000002300000520000000NN  NNW 000                       N    
RDG06919500WATRL000000004K00000000000009897009007182015100556N000300000010N65       003850400K 10000000010000009908           
CUS0691950000106433791008         MILBURN JEFFREY     2219 TICKWOOD RD                        000N        CARE OF             
MTR06919500001000000000000000RA              01092242    005800240000002400000610000003NN  NNW 000                       N    
RDG06919500WATRL000000004K00000000000002068008707182015095453N000000000000N65       001670400K 10000000010000002023           
CUS0691950000106457540000         LAWRENCE A. SINCLAIR2307 TICKWOOD RD                        000N        CARE OF             
MTR06919500001000000000000000RA              99999999    005800240010002400100440000003NN  NNW 000                       N    
RDG06919500WATRL000000004K00000000000000000000000000000000000 000000000000U         000000400  10000000010000000000           
CUS0691950000106457544002         WILLIAM & JOANN LOEL2337 TICKWOOD RD                        000N        CARE OF             
MTR06919500001000000000000000RA              99999999    005800240020002400200440000003NN  NNW 000                       N    
RDG06919500WATRL000000004K00000000000000000000000000000000000 000000000000U         000000400  10000000010000000000           
CUS0691950000106457542006         JEAN A. ROMADKA     2339 TICKWOOD RD                        000N        CARE OF             
MTR06919500001000000000000000RA              99999999    005800240030002400300440000003NN  NNW 000                       N    
RDG06919500WATRL000000004K00000000000000000000000000000000000 000000000000U         000000400  10000000010000000000           
CUS0691950000106090910008         SPANGLER FRANK J    2025 TURKEY POINT RD                    000N        CARE OF             
MTR06919500001000000000000000RA              14923857    005800250000002500000310000003NN  NNW 000                       N    
RDG06919500WATRL000000004K00000000000000556002707182015075926N000000000000N65       011070400K 10000000010000000547           
CUS0691950000106420293000         BALTIMORE COUNTY    2121 ROSALIE AVE                        000N        CARE OF             
MTR06919500001000000000000000RA              48596709    005800260000002600000520000003NN  NNW 000                       N    
RDG06919500WATRL000000004K00000000000000311011307182015100320N000000000000N40       000690400K 10000000010000000308           
CUS0691950000106091105004         JASON WOJTKOWIAK    2115 ROSALIE AVE                        000N        CARE OF             
MTR06919500001000000000000000RA              76349390    007500270000002700000350000003NN  NNW 000                       N    
RDG06919500WATRL000000004K00000000000000109011007182015095839N000400000010N40       000740400K 10000000010000000094           
CUS0691950000106091104007         MICHELLE L. DARLING 2113 ROSALIE AVE                        000N        CARE OF             
MTR06919500001000000000000000RA              76349389    007500280000002800000350000003NN  NNW 000                       N    
RDG06919500WATRL000000004K00000000000000086010907182015095725N000400000010N40       000590400K 10000000010000000074           
CUS0691950000106091103009         PAUL JANUARY        2111 ROSALIE AVE                        000N        CARE OF             
MTR06919500001000000000000000RA              76349391    007500290000002900000350000003NN  NNW 000                       N    
RDG06919500WATRL000000004K00000000000000055010807182015095626N000000000010N40       000630400K 10000000010000000031           
CUS0691950000106091102001         FREDERICK H KUHRMANN2109 ROSALIE AVE                        000N        CARE OF             
MTR06919500001000000000000000RA              01085968    005800300000003000000610000003NN  NNW 000                       N    
RDG06919500WATRL000000004K00000000000001598010707182015095523N000000000000N40       001120400K 10000000010000001579           
CUS0691950000106091115003         BRONUSHAS JOHN W    2103 ROSALIE AVE                        000N        CARE OF             
MTR06919500001000000000000000RA              54348170    005800310000003100000520000003NN  NNW 000                       N    
RDG06919500WATRL000000004K00000000000000070011807182015103010N000000000000N40       003910400K 10000000010000000069           
CUS0691950000106091100005         HILL WILLIAM F      309 GREYHOUND RD                        000N        CARE OF             
MTR06919500001000000000000000RA              50480781    005800320000003200000520000003NN  NNW 000                       N    
RDG06919500WATRL000000004K00000000000001446010307182015094314N000400000010N40       000320400K 10000000010000001434           
CUS0691950000106091099009         SCHWEIGER ROBERT D  311 GREYHOUND RD                        000N        CARE OF             
MTR06919500001000000000000000RA              99286349    005800330000003300000570000003NN  NNW 000                       N    
RDG06919500WATRL000000004K00000000000000938010207182015094242N000000000000N40       000870400K 10000000010000000932           
CUS0691950000106091098001         GEORGE KINSEL       313 GREYHOUND RD                        000N        CARE OF             
MTR06919500001000000000000000RA              14911951    005800340000003400000310000003NN  NNW 000                       N    
RDG06919500WATRL000000004K00000000000001191010107182015094115N000000000000N40       001580400K 10000000010000001181           
CUS0691950000106091097003         LETKE MARK G        2102 ANTHONY AVE                        000N        CARE OF             
MTR06919500001000000000000000RA              30522027    005800350000003500000520000003NN  NNW 000                       N    
RDG06919500WATRL000000004K00000000000002336009607182015093243N000000000000N40       002620400K 10000000010000002312           
CUS0691950000106091096005         HICKS CHARLES,SR    2104 ANTHONY AVE                        000N        CARE OF             
MTR06919500001000000000000000RA              14915622    005800360000003600000310000003NN  NNW 000                       N    
RDG06919500WATRL000000004K00000000000000584009707182015093326N000000000000N40       000430400K 10000000010000000570           
CUS0691950000106091095007         ELLIS ANNE S        2105 ANTHONY AVE                        000N        CARE OF             
MTR06919500001000000000000000RA              01095946    005800370000003700000610000000NN  NNW 000                       N    
RDG06919500WATRL000000004K00000000000000611009807182015093404N000400000010N40       000380400K 10000000010000000602           
CUS0691950000106091094000         LINDA NEAL & C NEAL 2103 ANTHONY AVE                        000N        CARE OF             
MTR06919500001000000000000000RA              00137326    005800380000003800000570000003NN  NNW 000                       N    
RDG06919500WATRL000000004K00000000000001251009907182015093426N000400000010N40       000220400K 10000000010000001243           
CUS0691950000106091093002         FIELDS MARLENE      317 GREYHOUND RD                        000N        CARE OF             
MTR06919500001000000000000000RA              10018434    005800390000003900000570000003NY  NNW 000                       N    
MTM0691950010018434    CANT LOCATE                                                                                            
RDG06919500WATRL000000004K00000000000000000000000000000000000 000000000000U         000000400  10000000010000000495           
CUS0691950000106091092004         LIMMER PATRICIA MARI319 GREYHOUND RD                        000N        CARE OF             
MTR06919500001000000000000000RA              25783771    005800400000004000000520000003NN  NNW 000                       N    
RDG06919500WATRL000000004K00000000000001445009307182015092350N000000000000N40       000380400K 10000000010000001431           
CUS0691950000106091091006         DAVILA GERMAN       321 GREYHOUND RD                        000N        CARE OF             
MTR06919500001000000000000000RA              99389102    005800410000004100000570000003NN  NNW 000                       N    
RDG06919500WATRL000000004K00000000000001964009207182015092312N000000000000N40       000410400K 10000000010000001929           
CUS0691950000106091090008         BALTO CO CENTRAL SERES GREYHOUND RD 30 FT                   000N        CARE OF             
MTR06919500001000000000000000RA              33084057    001500420000004200000520000003NN  NNW 000   FERRULE APPLIED     N    
RDG06919500WATRL000000005K00000000000002171008907182015095931N000000000010N65       000760500K 10000000010000002172           
CUS0691950000106091089000         LAWRENCE SINCLAIR JRES GREYHOUND RD                         000N        CARE OF             
MTR06919500001000000000000000RA              24625448    007500430000004300000520000003NN  NNW 000   FERRULE APPLIED     N    
RDG06919500WATRL000000004K00000000000002512008807182015095815N000000000000N65       002020400K 10000000010000002411           
CUS0691950000106091088002         ROCKAWAY BEACH      621 GREYHOUND RD                        000N        CARE OF             
MTR06919500001000000000000000RA              48592706    005800440000004400000520000003NN  NNW 000                       N    
RDG06919500WATRL000000004K00000000000004598008507182015091321N000000000000N40       001330400K 10000000010000004544           
CUS0691950000106091087004         GRESDO CHARLES J    2214 SENECA RD                          000N        CARE OF             
MTR06919500001000000000000000RA              77889734    005800450000004500000350000003NN  NNW 000                       N    
RDG06919500WATRL000000004K00000000000000054008607182015095206N000400000010N65       000900400K 10000000010000000042           
CUS0691950000106436789009         CARL THOMAS H       2235 SENECA RD                          000N        CARE OF             
MTR06919500001000000000000000RA              14902181    005800460000004600000310000000NN  NNW 000                       N    
RDG06919500WATRL000000004K00000000000000894007707182015094157N000400000010N65       003080400K 10000000010000000877           
CUS0691950000106091086006         WDZIECZNY PAULINE JU2233 SENECA RD                          000N        CARE OF             
MTR06919500001000000000000000RA              33080336    005800470000004700000520000003NN  NNW 000                       N    
RDG06919500WATRL000000004K00000000000002222007807182015094247N000400000010N65       000500400K 10000000010000002201           
CUS0691950000106091085008         SCOTT M ANDRESINI   2231 SENECA RD                          000N        CARE OF             
MTR06919500001000000000000000RA              41082753    005800480000004800000520000003NN  NNW 000                       N    
RDG06919500WATRL000000004K00000000000001876007907182015094348N000000000000N65       000610400K 10000000010000001859           
CUS0691950000106091084001         GOLES MILTON J,SR   2229 SENECA RD                          000N        CARE OF             
MTR06919500001000000000000000RA              19461978    005800490000004900000520000003NN  NNW 000                       N    
RDG06919500WATRL000000004K00000000000002499008007182015094414N000000000000N65       000260400K 10000000010000002499           
CUS0691950000106091083003         HUMPHREY JOHNNIE LEE2225 SENECA RD                          000N        CARE OF             
MTR06919500001000000000000000RA              77889735    005800500000005000000350000003NN  NNW 000                       N    
RDG06919500WATRL000000004K00000000000000037008107182015094615N000400000010N65       001210400K 10000000010000000029           
CUS0691950000106435172009         EIKENBERG TIMOTHY M 2215 SENECA RD                          000N        CARE OF             
MTR06919500001000000000000000RA              76349286    005800510000005100000350000000NN  NNW 000                       N    
RDG06919500WATRL000000004K00000000000000113008207182015094716N000000000000N65       000610400K 10000000010000000089           
CUS0691950000106435171001         WEBER CHARLES B     2213 SENECA RD                          000N        CARE OF             
MTR06919500001000000000000000RA              01100300    005800520000005200000610000003NN  NNW 000                       N    
RDG06919500WATRL000000004K00000000000000787008307182015094814N000400000010N65       000580400K 10000000010000000768           
CUS0691950000106439008001         BOWERSOX RICHARD L,S2209 SENECA RD                          000N        CARE OF             
MTR06919500001000000000000000RA              14911097    005800530000005300000310000003NN  NNW 000                       N    
RDG06919500WATRL000000004K00000000000000530008407182015095026N000000000000N65       001320400K 10000000010000000517           
CUS0691950000106439007003         COMPREHENSIVE CONSTR2207 SENECA RD                          000N        CARE OF             
MTR06919500001000000000000000RA              78005248    005800540000005400000360000000NN  NNW 000                       N    
RDG06919500WATRL000000004K00000000000000000008507182015095036N000000000000N65       000100400K 10000000010000000000           
CUS0691950000106091082005         MRYNCZA LISA R      2200 TURKEY POINT RD                    000N        CARE OF             
MTR06919500001000000000000000RA              36691072    005800550000005500000520000003NN  NNW 000                       N    
RDG06919500WATRL000000004K00000000000004188008407182015091108N000000000000N40       000700400K 10000000010000004163           
CUS0691950000106091081007         SEAN D SOTH         2206 TURKEY POINT RD                    000N        CARE OF             
MTR06919500001000000000000000RA              75616078    005800560000005600000350000003NN  NNW 000                       N    
RDG06919500WATRL000000004K00000000000000221008307182015090958N000400000010N40       000800400K 10000000010000000192           
CUS0691950000106091080009         SANTORO ROCHELLE    2208 TURKEY POINT RD                    000N        CARE OF             
MTR06919500001000000000000000RA              52290744    005800570000005700000520000003NN  NNW 000                       N    
RDG06919500WATRL000000004K00000000000000928008207182015090838N000000000000N40       000770400K 10000000010000000918           
CUS0691950000106091079001         CONNALLY PETER C    2210 TURKEY POINT RD                    000N        CARE OF             
MTR06919500001000000000000000RA              10022266    005800580000005800000570000003NN  NNW 000                       N    
RDG06919500WATRL000000004K00000000000000032008107182015090721N000000000010N40       000690400K 10000000010000000028           
CUS0691950000106091078003         ZIEGELHEAFER EARL L 2212 TURKEY POINT RD                    000N        CARE OF             
MTR06919500001000000000000000RA              27818085    005800590000005900000520000003NN  NNW 000                       N    
RDG06919500WATRL000000004K00000000000002061008007182015090612N000000000000N40       001530400K 10000000010000002057           
CUS0691950000106091077005         WATKINS MAYNARD C,JR2218 TURKEY POINT RD                    000N        CARE OF             
MTR06919500001000000000000000RA              78023973    005800600000006000000360000003NN  NNW 000                       N    
RDG06919500WATRL000000004K00000000000000033007907182015090339N000300000010N40       002500400K 10000000010000000008           
CUS0691950000106091076007         LISA DELORIES       2220 TURKEY POINT RD                    000N        CARE OF             
MTR06919500001000000000000000RA              9684536     005800610000006100000570000003NY  NNW 000                       N    
MTM069195009684536     DOG                                                                                                    
RDG06919500WATRL000000004K00000000000000000000000000000000000 000000000000U         000000400  10000000010000005416           
CUS0691950000106091075009         TORBERT WILLIAM L,SR2222 TURKEY POINT RD                    000N        CARE OF             
MTR06919500001000000000000000RA              10012828    005800620000006200000570000003NN  NNW 000                       N    
RDG06919500WATRL000000004K00000000000000157007807182015085929N000400000011N40       004150400K 10000000010000000149           
CUS0691950000106091074002         LEDLEY GARY E       2304 TURKEY POINT RD                    000N        CARE OF             
MTR06919500001000000000000000RA              10010736    005800630000006300000570000003NN  NNW 000                       N    
RDG06919500WATRL000000004K00000000000000255007707182015085234N000400000010N40       000760400K 10000000010000000243           
CUS0691950000106091073004         LLUFRIO ROBERT B    2308 TURKEY POINT RD                    000N        CARE OF             
MTR06919500001000000000000000RA              32178368    005800640000006400000520000003NN  NNW 000                       N    
RDG06919500WATRL000000004K00000000000005180007607182015085118N000000000000N40       000600400K 10000000010000005180           
CUS0691950000106091072006         KARR MICHAEL D,SR   2310 TURKEY POINT RD                    000N        CARE OF             
MTR06919500001000000000000000RA              10009750    005800650000006500000570000003NN  NNW 000                       N    
RDG06919500WATRL000000004K00000000000000538007507182015085018N000000000000N40       001090400K 10000000010000000512           
CUS0691950000106091071008         WACKER JAMES KELSO  2312 TURKEY POINT RD                    000N        CARE OF             
MTR06919500001000000000000000RA              01080807    005800660000006600000610000003NN  NNW 000                       N    
RDG06919500WATRL000000004K00000000000002033007407182015084829N000400000010N40       000530400K 10000000010000001996           
CUS0691950000106422692001         LES SCHREIBER       2316 TURKEY POINT RD                    000N        CARE OF             
MTR06919500001000000000000000RA              50787097    005800670000006700000520000003NN  NNW 000                       N    
RDG06919500WATRL000000004K00000000000001466007307182015084736N000400000010N40       000240400K 10000000010000001448           
CUS0691950000106091070000         BOSTON SHARON O     2318 TURKEY POINT RD                    000N        CARE OF             
MTR06919500001000000000000000RA              54349136    005800680000006800000520000003NN  NNW 000                       N    
RDG06919500WATRL000000004K00000000000000491007207182015084712N000300000011N40       001000400K 10000000010000001063           
CUS0691950000106091069002         WUNDER WAYNE FRANCIS2322 TURKEY POINT RD                    000N        CARE OF             
MTR06919500001000000000000000RA              10010582    005800690000006900000570000003NN  NNW 000                       N    
RDG06919500WATRL000000004K00000000000000542007107182015084532N000000000000N40       001320400K 10000000010000000520           
CUS0691950000106091068004         HORSEY SALLY A      2326 TURKEY POINT RD                    000N        CARE OF             
MTR06919500001000000000000000RA              77889737    005800700000007000000350000003NN  NNW 000                       N    
RDG06919500WATRL000000004K00000000000000088007007182015084320N000000000000N40       000950400K 10000000010000000064           
CUS0691950000106091067006         WOLFORD GINA M      2328 TURKEY POINT RD                    000N        CARE OF             
MTR06919500001000000000000000RA              36690883    005800710000007100000520000003NN  NNW 000                       N    
RDG06919500WATRL000000004K00000000000001939006907182015084145N000400000010N40       000960400K 10000000010000001921           
CUS0691950000106091066008         DIANE L FORD        2334 TURKEY POINT RD                    000N        CARE OF             
MTR06919500001000000000000000RA              44176107    005800720000007200000520000003NN  NNW 000                       N    
RDG06919500WATRL000000004K00000000000000000006807182015084009N000000000000N40       000430400K 10000000010000000000           
CUS0691950000106091065000         DIANE L FORD        2334 TURKEY POINT RD                    000N        CARE OF             
MTR06919500001000000000000000RA              33733577    005800730000007300000520000003NN  NNW 000                       N    
RDG06919500WATRL000000004K00000000000001575006607182015083849N000100000010N40       001090400K 10000000010000001575           
CUS0691950000106091064003         FORD CATHERINE E    2338 TURKEY POINT RD                    000N        CARE OF             
MTR06919500001000000000000000RA              44176109    005800740000007400000520000003NN  NNW 000                       N    
RDG06919500WATRL000000004K00000000000000932006707182015083926N000400000010N40       000370400K 10000000010000000930           
CUS0691950000106091063005         SUTTON GRANT D      2340 TURKEY POINT RD                    000N        CARE OF             
MTR06919500001000000000000000RA              30522059    005800750000007500000520000003NN  NNW 000                       N    
RDG06919500WATRL000000004K00000000000001589006507182015083700N000400000010N40       000490400K 10000000010000001582           
CUS0691950000106432264007         HENNING HOWARD M    2342 TURKEY POINT RD                    000N        CARE OF             
MTR06919500001000000000000000RA              99999999    005800760000007600000440000003NN  NNW 000                       N    
RDG06919500WATRL000000004K00000000000001308006407182015083611N000400000010N40       000310400K 10000000010000001294           
CUS0691950000106091062007         HENNING HOWARD M    2344 TURKEY POINT RD                    000N        CARE OF             
MTR06919500001000000000000000RA              48594187    005800770000007700000520000003NN  NNW 000                       N    
RDG06919500WATRL000000004K00000000000001531006307182015083540N000400000010N40       002500400K 10000000010000001522           
CUS0691950000106091061009         PUHL FREDERICK H    646 ROCKAWAY BEACH AVE                  000N        CARE OF             
MTR06919500001000000000000000RA              26012041    005800780000007800000520000003NN  NNW 000                       N    
RDG06919500WATRL000000004K00000000000002048005907182015082010N000000000000N40       000440400K 10000000010000002042           
CUS0691950000106091060001         BETHESDA LEASING LLC648 ROCKAWAY BEACH AVE                  000N        CARE OF             
MTR06919500001000000000000000RA              26014770    005800790000007900000520000003NN  NNW 000                       N    
RDG06919500WATRL000000004K00000000000003030005807182015081926N000000000000N40       000580400K 10000000010000003030           
CUS0691950000106091059003         MILLER HENRY J,JR   614 ROCKAWAY BEACH AVE                  000N        CARE OF             
MTR06919500001000000000000000RA              10023331    005800800000008000000570000003NN  NNW 000                       N    
RDG06919500WATRL000000004K00000000000000309005407182015081245N000000000000N40       002690400K 10000000010000000279           
CUS0691950000106091058005         ANDY EVANS          640 ROCKAWAY BEACH AVE                  000N        CARE OF             
MTR06919500001000000000000000RA              27816513    005800810000008100000520000003NN  NNW 000                       N    
RDG06919500WATRL000000004K00000000000003057005707182015081828N000400000010N40       000750400K 10000000010000003048           
CUS0691950000106091057007         ANDY EVANS          632 ROCKAWAY BEACH AVE                  000N        CARE OF             
MTR06919500001000000000000000RA              10002009    005800820000008200000570000003NN  NNW 000                       N    
RDG06919500WATRL000000004K00000000000000363005607182015081713N000000000000N40       001600400K 10000000010000000351           
CUS0691950000106091055001         CHARLES J KUYAWA    626 ROCKAWAY BEACH AVE                  000N        CARE OF             
MTR06919500001000000000000000RA              54348165    005800830000008300000520000003NN  NNW 000                       N    
RDG06919500WATRL000000004K00000000000001890005507182015081433N000000000010N40       001080400K 10000000010000001888           
CUS0691950000106091054004         EASTERN YACHT CLUB HWS ROCKAWAY BEACH RD                    000N        CARE OF             
MTR06919500001000000000000000RA              39257516    007500840000008400000520000003NY  NNW 000                       N    
MTM0691950039257516    CANT LOCATE                                                                                            
RDG06919500WATRL000000004K00000000000000000000000000000000000 000000000000U         000000400  10000000010000004935           
CUS0691950000106091053006         MILLER HENRY JACOB,J601 ROCKAWAY BEACH AVE                  000N        CARE OF             
MTR06919500001000000000000000RA              41589807    005800850000008500000520000003NN  NNW 000                       N    
RDG06919500WATRL000000004K00000000000002064005307182015080816N000000000000N40       001560400K 10000000010000002048           
CUS0691950000106091052008         KERBY STEPHEN W     603 ROCKAWAY BEACH AVE                  000N        CARE OF             
MTR06919500001000000000000000RA              48589917    005800860000008600000520000003NN  NNW 000                       N    
RDG06919500WATRL000000004K00000000000002246006007182015082454N000000000021N40       001720400K 10000000010000002221           
CUS0691950000106091051000         STEWART ARLIE E     605 ROCKAWAY BEACH AVE                  000N        CARE OF             
MTR06919500001000000000000000RA              35107052    005800870000008700000520000003NY  NNW 000                       N    
MTM0691950035107052    METER LAYING IN BOTTOM 3653                                                                            
RDG06919500WATRL000000004K00000000000000000011707182015102339S063000000000N40       009480400K 10000000010000003651           
CUS0691950000106091050002         SEIDEL BETTY LORENE 607 ROCKAWAY BEACH AVE                  000N        CARE OF             
MTR06919500001000000000000000RA              10014874    005800880000008800000570000003NN  NNW 000                       N    
RDG06919500WATRL000000004K00000000000000382005207182015080540N000000000000N40       000370400K 10000000010000000359           
CUS0691950000106091049004         DUDEK KARL H        609 ROCKAWAY BEACH AVE                  000N        CARE OF             
MTR06919500001000000000000000RA              52286025    005800890000008900000520000003NN  NNW 000                       N    
RDG06919500WATRL000000004K00000000000001215005107182015080503N000400000010N40       000320400K 10000000010000001210           
CUS0691950000106091048006         PAUL B DUNKLE       613 ROCKAWAY BEACH AVE                  000N        CARE OF             
MTR06919500001000000000000000RA              26012044    005800900000009000000520000003NN  NNW 000                       N    
RDG06919500WATRL000000004K00000000000004338005007182015080431N000000000000N40       000500400K 10000000010000004320           
CUS0691950000106091047008         BAUGHER DAVID W     615 ROCKAWAY BEACH AVE                  000N        CARE OF             
MTR06919500001000000000000000RA              38985802    005800910000009100000520000003NN  NNW 000                       N    
RDG06919500WATRL000000004K00000000000003574004907182015080341N000000000000N40       001010400K 10000000010000003556           
CUS0691950000106091046000         DAVID BAUGHER       617 ROCKAWAY BEACH AVE                  000N        CARE OF             
MTR06919500001000000000000000RA              33734352    005800920000009200000520000003NY  NNW 000                       N    
MTM0691950033734352    CAVED IN                                                                                               
RDG06919500WATRL000000004K00000000000000000000000000000000000 000000000000U         000000400  10000000010000002063           
CUS0691950000106091045002         GOODWIN WILLIAM J,JR619 ROCKAWAY BEACH AVE                  000N        CARE OF             
MTR06919500001000000000000000RA              48594144    005800930000009300000520000003NN  NNW 000                       N    
RDG06919500WATRL000000004K00000000000001540004807182015080200N000400000010N40       000340400K 10000000010000001523           
CUS0691950000106091044005         STEPHEN J MULLAN    623 ROCKAWAY BEACH AVE                  000N        CARE OF             
MTR06919500001000000000000000RA              41590623    005800940000009400000520000003NN  NNW 000                       N    
RDG06919500WATRL000000004K00000000000001876004707182015080126N000000000000N40       000290400K 10000000010000001858           
CUS0691950000106091043007         LINZ ANN LIGOURA    625 ROCKAWAY BEACH AVE                  000N        CARE OF             
MTR06919500001000000000000000RA              48596284    005800950000009500000520000003NN  NNW 000                       N    
RDG06919500WATRL000000004K00000000000000884004607182015080057N000000000012N40       000430400K 10000000010000000856           
CUS0691950000106091042009         RAYMOND W FOEHRKOLB 627 ROCKAWAY BEACH AVE                  000N        CARE OF             
MTR06919500001000000000000000RA              23646005    005800960000009600000520000003NN  NNW 000                       N    
RDG06919500WATRL000000004K00000000000001331004507182015080014N000400000010N40       000410400K 10000000010000001320           
CUS0691950000106091041001         WAYNE F WUNDER      629 ROCKAWAY BEACH AVE                  000N        CARE OF             
MTR06919500001000000000000000RA              24772774    005800970000009700000520000003NN  NNW 000                       N    
RDG06919500WATRL000000004K00000000000003292004407182015075933N000400000010N40       000380400K 10000000010000003281           
CUS0691950000106091040003         ALBERT SCHREIBER & W631 ROCKAWAY BEACH AVE                  000N        CARE OF             
MTR06919500001000000000000000RA              32176541    005800980000009800000520000003NN  NNW 000                       N    
RDG06919500WATRL000000004K00000000000001983004307182015075855N000000000000N40       000270400K 10000000010000001970           
CUS0691950000106091039005         CORUZZI PETER       633 ROCKAWAY BEACH AVE                  000N        CARE OF             
MTR06919500001000000000000000RA              27818021    005800990000009900000520000003NN  NNW 000                       N    
RDG06919500WATRL000000004K00000000000002228004207182015075828N000300000010N40       000470400K 10000000010000002223           
CUS0691950000106091038007         WATTS JOHN L        635 ROCKAWAY BEACH AVE                  000N        CARE OF             
MTR06919500001000000000000000RA              10002672    005801000000010000000570000003NN  NNW 000                       N    
RDG06919500WATRL000000004K00000000000000563004107182015075741N000400000010N40       000410400K 10000000010000000549           
CUS0691950000106091037009         YAZIGI RICARDO      637 ROCKAWAY BEACH AVE                  000N        CARE OF             
MTR06919500001000000000000000RA              48589135    005801010000010100000520000003NN  NNW 000                       N    
RDG06919500WATRL000000004K00000000000001049004007182015075700N000000000000N40       000460400K 10000000010000001040           
CUS0691950000106091036001         ANTHONY MICHALSKI   639 ROCKAWAY BEACH AVE                  000N        CARE OF             
MTR06919500001000000000000000RA              27818006    005801020000010200000520000003NN  NNW 000                       N    
RDG06919500WATRL000000004K00000000000003156003907182015075614N000000000000N40       000380400K 10000000010000003150           
CUS0691950000106091035003         SCHATZ EDWARD A     641 ROCKAWAY BEACH AVE                  000N        CARE OF             
MTR06919500001000000000000000RA              35103198    005801030000010300000520000003NN  NNW 000                       N    
RDG06919500WATRL000000004K00000000000000670003807182015075536N000000000000N40       000460400K 10000000010000000654           
CUS0691950000106091034006         STEALL BRETT J      643 ROCKAWAY BEACH AVE                  000N        CARE OF             
MTR06919500001000000000000000RA              23058496    005801040000010400000520000000NN  NNW 000                       N    
RDG06919500WATRL000000004K00000000000002003003707182015075450N000300000010N40       000340400K 10000000010000001921           
CUS0691950000106091033008         BUTTA JENNIE        645 ROCKAWAY BEACH AVE                  000N        CARE OF             
MTR06919500001000000000000000RA              39291353    005801050000010500000520000003NN  NNW 000                       N    
RDG06919500WATRL000000004K00000000000002080003607182015075416N000400000010N40       000400400K 10000000010000002070           
CUS0691950000106091032000         SEDLAK JOSEPH J     647 ROCKAWAY BEACH AVE                  000N        CARE OF             
MTR06919500001000000000000000RA              54350427    005801060000010600000520000003NN  NNW 000                       N    
RDG06919500WATRL000000004K00000000000001395003507182015075336N000000000000N40       000630400K 10000000010000001364           
CUS0691950000106091031002         PROVEAUX WOODROW J  703 ROCKAWAY BEACH AVE                  000N        CARE OF             
MTR06919500001000000000000000RA              30526744    005801070000010700000520000003NN  NNW 000                       N    
RDG06919500WATRL000000004K00000000000002255003407182015075233N000400000010N40       001290400K 10000000010000002248           
CUS0691950000106091030004         SYBERT MICHAEL J    707 ROCKAWAY BEACH AVE                  000N        CARE OF             
MTR06919500001000000000000000RA              99286421    005801080000010800000570000003NN  NNW 000                       N    
RDG06919500WATRL000000004K00000000000001012006107182015082815N000000000000N40       002010400K 10000000010000001003           
CUS0691950000106091029006         WOUTILA WILLIAM R   711 ROCKAWAY BEACH AVE                  000N        CARE OF             
MTR06919500001000000000000000RA              22609611    005801090000010900000520000003NN  NNW 000                       N    
RDG06919500WATRL000000004K00000000000004235003307182015075024N000000000000N40       000270400K 10000000010000004213           
CUS0691950000106427995003         SIEGMAN MARCYANNA SU715 ROCKAWAY BEACH AVE                  000N        CARE OF             
MTR06919500001000000000000000RA              44087343    005801100000011000000520000003NN  NNW 000                       N    
RDG06919500WATRL000000004K00000000000002741003207182015074957N000000000000N40       000440400K 10000000010000002716           
CUS0691950000106091028008         S F L LLC           717 ROCKAWAY BEACH AVE                  000N        CARE OF             
MTR06919500001000000000000000RA              50478811    005801110000011100000520000003NN  NNW 000                       N    
RDG06919500WATRL000000004K00000000000001820003107182015074913N000300000010N40       000440400K 10000000010000001766           
CUS0691950000106091027000         JOHN J NUTH         719 ROCKAWAY BEACH AVE                  000N        CARE OF             
MTR06919500001000000000000000RA              39291354    005801120000011200000520000003NN  NNW 000                       N    
RDG06919500WATRL000000004K00000000000000954003007182015074829N000400000010N40       000690400K 10000000010000000950           
CUS0691950000106091026002         HUFFINES SCOTT C/JOH721 ROCKAWAY BEACH AVE                  000N        CARE OF             
MTR06919500001000000000000000RA              00135417    005801130000011300000570000003NN  NNW 000                       N    
RDG06919500WATRL000000004K00000000000002055002907182015074720N000000000000N40       000570400K 10000000010000002033           
CUS0691950000106425362008         DEBORAH D BOWLES    2414 BEACH AVE                          000N        CARE OF             
MTR06919500001000000000000000RA              52285150    005801140000011400000520000003NN  NNW 000                       N    
RDG06919500WATRL000000004K00000000000001048001707182015073101N000000000000N40       001090400K 10000000010000001034           
CUS0691950000106091025004         WEINKAM KATHERINE T 2429 BEACH AVE                          000N        CARE OF             
MTR06919500001000000000000000RA              01099651    005801150000011500000610000003NN  NNW 000                       N    
RDG06919500WATRL000000004K00000000000000591002807182015074623N000000000000N40       000310400K 10000000010000000579           
CUS0691950000106091024007         SCHREIBER WILLIAM J,2427 BEACH AVE                          000N        CARE OF             
MTR06919500001000000000000000RA              23841206    005801160000011600000520000003NN  NNW 000                       N    
RDG06919500WATRL000000004K00000000000004131002707182015074552N000400000010N40       000530400K 10000000010000004121           
CUS0691950000106091023009         WILLIAM E MORAN     2425 BEACH AVE                          000N        CARE OF             
MTR06919500001000000000000000RA              23176644    005801170000011700000520000003NN  NNW 000                       N    
RDG06919500WATRL000000004K00000000000002475002607182015074459N000400000010N40       000370400K 10000000010000002464           
CUS0691950000106091022001         HARRIS DEBORAH      2423 BEACH AVE                          000N        CARE OF             
MTR06919500001000000000000000RA              14909243    005801180000011800000310000003NN  NNW 000                       N    
RDG06919500WATRL000000004K00000000000000988002507182015074422N000400000010N40       000490400K 10000000010000000970           
CUS0691950000106091021003         WIESSNER JOHN F,JR  2421 BEACH AVE                          000N        CARE OF             
MTR06919500001000000000000000RA              01111298    005801190000011900000610000003NN  NNW 000                       N    
RDG06919500WATRL000000004K00000000000000450002407182015074333N000000000000N40       000740400K 10000000010000000432           
CUS0691950000106091020005         PING TUNNIE         2419 BEACH AVE                          000N        CARE OF             
MTR06919500001000000000000000RA              22610441    005801200000012000000520000003NN  NNW 000                       N    
RDG06919500WATRL000000004K00000000000002697002307182015074219N000000000000N40       001390400K 10000000010000002687           
CUS0691950000106091019007         GERARD RICHARD TERRY2417 BEACH AVE                          000N        CARE OF             
MTR06919500001000000000000000RA              24220879    005801210000012100000520000003NN  NNW 000                       N    
RDG06919500WATRL000000004K00000000000002442006207182015083130N000000000000N40       001950400K 10000000010000002426           
CUS0691950000106091018009         HESSION JOHN M      2415 BEACH AVE                          000N        CARE OF             
MTR06919500001000000000000000RA              10012185    005801220000012200000570000003NN  NNW 000                       N    
RDG06919500WATRL000000004K00000000000000224002107182015073843N000400000010N40       001070400K 10000000010000000217           
CUS0691950000106091017001         HESSION JOHN M      2411 BEACH AVE                          000N        CARE OF             
MTR06919500001000000000000000RA              32771073    005801230000012300000520000003NN  NNW 000                       N    
RDG06919500WATRL000000004K00000000000002481002207182015074000N000300000010N40       000770400K 10000000010000002454           
CUS0691950000106091016003         HOUSE SAMUEL W  HOUS2407 BEACH AVE                          000N        CARE OF             
MTR06919500001000000000000000RA              10014864    005801240000012400000570000003NN  NNW 000                       N    
RDG06919500WATRL000000004K00000000000000202002007182015073656N000400000010N40       001040400K 10000000010000000190           
CUS0691950000106091015005         HOUSE SAMUEL W      2405 BEACH AVE                          000N        CARE OF             
MTR06919500001000000000000000RA              54350874    005801250000012500000520000003NN  NNW 000                       N    
RDG06919500WATRL000000004K00000000000000585001907182015073512N000300000010N40       000820400K 10000000010000000579           
CUS0691950000106091014008         HENGEMIHLE PAMELA A 2403 BEACH AVE                          000N        CARE OF             
MTR06919500001000000000000000RA              99390469    005801260000012600000570000003NY  NNW 000                       N    
MTM0691950099390469    CANT LOCATE                                                                                            
RDG06919500WATRL000000004K00000000000000000000000000000000000 000000000000U         000000400  10000000010000000825           
CUS0691950000106091013000         MISEY PHILIP J      2401 BEACH AVE                          000N        CARE OF             
MTR06919500001000000000000000RA              35107013    005801270000012700000520000003NN  NNW 000                       N    
RDG06919500WATRL000000004K00000000000003306001807182015073350N000000000000N40       001690400K 10000000010000003289           
CUS0691950000106091012002         MERZBACHER JOHN J   718 ROCKAWAY BEACH AVE                  000N        CARE OF             
MTR06919500001000000000000000RA              31587710    005801280000012800000520000003NN  NNW 000                       N    
RDG06919500WATRL000000004K00000000000003022001607182015072912N000000000000N40       000440400K 10000000010000003016           
CUS0691950000106091011004         BRODA JONATHAN A    716 ROCKAWAY BEACH AVE                  000N        CARE OF             
MTR06919500001000000000000000RA              22608264    005801290000012900000520000003NN  NNW 000                       N    
RDG06919500WATRL000000004K00000000000002274001507182015072828N000000000000N40       000420400K 10000000010000002263           
CUS0691950000106091010006         HAMME THOMAS        712 ROCKAWAY BEACH AVE                  000N        CARE OF             
MTR06919500001000000000000000RA              48583240    005801300000013000000520000003NN  NNW 000                       N    
RDG06919500WATRL000000004K00000000000001536001407182015072746N000400000010N40       000440400K 10000000010000001519           
CUS0691950000106091009008         KUBILIUS JOHN,JR    710 ROCKAWAY BEACH AVE                  000N        CARE OF             
MTR06919500001000000000000000RA              27131704    005801310000013100000520000003NN  NNW 000                       N    
RDG06919500WATRL000000004K00000000000002956001307182015072702N000400000010N40       001330400K 10000000010000002936           
CUS0691950000106091008000         ROBERTS HERBERT E   706 ROCKAWAY BEACH AVE                  000N        CARE OF             
MTR06919500001000000000000000RA              39291306    005801320000013200000520000003NY  NNW 000                       N    
MTM0691950039291306    CAR PARKED                                                                                             
RDG06919500WATRL000000004K00000000000000000000000000000000000 000000000000U         000000400  10000000010000002595           
CUS0691950000106091007002         WILLIAM R LAMP SR   702 ROCKAWAY BEACH AVE                  000N        CARE OF             
MTR06919500001000000000000000RA              54348168    005801330000013300000520000003NN  NNW 000                       N    
RDG06919500WATRL000000004K00000000000001411001207182015072449N000400000010N40       000900400K 10000000010000001397           
CUS0691950000106091006004         REICHEL ANNABELLE Z 700 ROCKAWAY BEACH AVE                  000N        CARE OF             
MTR06919500001000000000000000RA              40781013    005801340000013400000520000003NN  NNW 000                       N    
RDG06919500WATRL000000004K00000000000001685001107182015072319N000000000000N40       001490400K 10000000010000001680           
CUS0691950000106436032004         TAYLOR GERALDINE M  2337 TURKEY POINT RD                    000N        CARE OF             
MTR06919500001000000000000000RA              01111962    005801350000013500000610000003NN  NNW 000                       N    
RDG06919500WATRL000000004K00000000000000291001007182015072050N000400000010N40       000600400K 10000000010000000286           
CUS0691950000106091005006         VINCENT A. DILEONARD2331 TURKEY POINT RD                    000N        CARE OF             
MTR06919500001000000000000000RA              45381992    005801360000013600000520000003NN  NNW 000                       N    
RDG06919500WATRL000000004K00000000000001323000907182015071950N000400000010N40       000670400K 10000000010000001259           
CUS0691950000106091004009         MARKEL CHARLES B    2321 TURKEY POINT RD                    000N        CARE OF             
MTR06919500001000000000000000RA              24232412    005801370000013700000520000003NY  NNW 000                       N    
MTM0691950024232412    HIGH GQASS                                                                                             
RDG06919500WATRL000000004K00000000000000000000000000000000000 000000000000U         000000400  10000000010000001272           
CUS0691950000106091003001         BURROWS DAVID BURROW2319 TURKEY POINT RD                    000N        CARE OF             
MTR06919500001000000000000000RA              39925753    005801380000013800000520000003NN  NNW 000                       N    
RDG06919500WATRL000000004K00000000000001758000707182015071453N000000000000N40       000440400K 10000000010000001737           
CUS0691950000106091002003         HOLLENSHADE THOMAS  2317 TURKEY POINT RD                    000N        CARE OF             
MTR06919500001000000000000000RA              10017557    005801390000013900000570000003NN  NNW 000                       N    
RDG06919500WATRL000000004K00000000000000307000607182015071409N000000000000N40       001450400K 10000000010000000289           
CUS0691950000106091000007         FERRO MICHAEL W     2313 TURKEY POINT RD                    000N        CARE OF             
MTR06919500001000000000000000RA              14928661    005801400000014000000310000003NN  NNW 000                       N    
RDG06919500WATRL000000004K00000000000000893000507182015071144N000300000010N40       001230400K 10000000010000000875           
CUS0691950000106090999001         PATRICK NEWSOM      2327 TURKEY POINT RD                    000N        CARE OF             
MTR06919500001000000000000000RA              23058155    005801410000014100000520000003NN  NNW 000   VACANT / LOT        N    
RDG06919500WATRL000000004K00000000000004755000807182015071843N000000000010N40       002300400K 10000000010000004741           
CUS0691950000106090998003         SMITH WALTER L,JR   2307 TURKEY POINT RD                    000N        CARE OF             
MTR06919500001000000000000000RA              10008529    005801420000014200000570000003NN  NNW 000                       N    
RDG06919500WATRL000000004K00000000000000185000407182015070941N000400000010N40       000670400K 10000000010000000178           
CUS0691950000106090997005         SMITH CHRISTIAN WILL2301 TURKEY POINT RD                    000N        CARE OF             
MTR06919500001000000000000000RA              26012040    005801430000014300000520000003NN  NNW 000                       N    
RDG06919500WATRL000000004K00000000000003093000307182015070834N000400000010N40       000410400K 10000000010000003076           
CUS0691950000106090996007         HOEHN FREDRICK J,JR 2227 TURKEY POINT RD                    000N        CARE OF             
MTR06919500001000000000000000RA              30526697    005801440000014400000520000003NN  NNW 000                       N    
RDG06919500WATRL000000004K00000000000001643000207182015070753N000300000010N40       000750400K 10000000010000001636           
CUS0691950000106090995009         BEILHART EARL O,JR  2225 TURKEY POINT RD                    000N        CARE OF             
MTR06919500001000000000000000RA              26012043    005801450000014500000520000003NN  NNW 000                       N    
RDG06919500WATRL000000004K00000000000003957000107182015070638N000000000000N40       000000400K 10000000010000003943           
CUS0691950000106420291004         BALTIMORE COUNTY MAR721 SUE GROVE RD                        000N        CARE OF             
MTR06919500001000000000000000RA              48596526    005801460000014600000520000000NN  NNW 000                       N    
RDG06919500WATRL000000004K00000000000000320000807182015071758N000400000010N65       001230400K 10000000010000000314           
CUS0691950000106090994002         ZELLINGER NANCY L   ES SUE GROVE RD 260 FT                  000N        CARE OF             
MTR06919500001000000000000000RA              24222698    005801470000014700000520000003NN  NNW 000                       N    
RDG06919500WATRL000000004K00000000000000917002007182015073243N000000000000N65       000590400K 10000000010000000906           
CUS0691950000106090993004         WILSON FLORENCE M   739 SUE GROVE RD                        000N        CARE OF             
MTR06919500001000000000000000RA              46880670    005801480000014800000520000003NN  NNW 000                       N    
RDG06919500WATRL000000004K00000000000001015001807182015073105N000000000000N65       000710400K 10000000010000001004           
CUS0691950000106090992006         CAROLINE F BATES    741 SUE GROVE RD                        000N        CARE OF             
MTR06919500001000000000000000RA              46878788    005801490000014900000520000003NN  NNW 000                       N    
RDG06919500WATRL000000004K00000000000000589001907182015073144N000000000000N65       000390400K 10000000010000000589           
CUS0691950000106090991008         ORTT FRANK J        747 SUE GROVE RD                        000N        CARE OF             
MTR06919500001000000000000000RA              75616817    005801500000015000000350000003NN  NNW 000                       N    
RDG06919500WATRL000000004K00000000000000000001707182015072954N000000000000N65       001000400K 10000000010000000000           
CUS0691950000106090990000         NORRIS CHARLES E,3RD749 SUE GROVE RD                        000N        CARE OF             
MTR06919500001000000000000000RA              14905202    005801510000015100000310000003NN  NNW 000                       N    
RDG06919500WATRL000000004K00000000000004359001607182015072814N000000000000N65       000660400K 10000000010000004234           
CUS0691950000106090989002         BOETTGER JAMES L    751 SUE GROVE RD                        000N        CARE OF             
MTR06919500001000000000000000RA              00131932    005801520000015200000570000003NN  NNW 000                       N    
RDG06919500WATRL000000004K00000000000000238001507182015072708N000000000000N65       000910400K 10000000010000000232           
CUS0691950000106090988004         WITTMAN CHRISTIE L  813 SUE GROVE RD                        000N        CARE OF             
MTR06919500001000000000000000RA              01079566    005801530000015300000610000003NN  NNW 000                       N    
RDG06919500WATRL000000004K00000000000000869004107182015082913N000400000010N65       000470400K 10000000010000000856           
CUS0691950000106090987006         BOWMAN BONNIE J     ES WEST SHORE DR 200 FT                 000N        CARE OF             
MTR06919500001000000000000000RA              76346411    005801540000015400000350000003NN  NNW 000                       N    
RDG06919500WATRL000000004K00000000000000138004007182015082826N000400000010N65       004400400K 10000000010000000122           
CUS0691950000106090986008         CRUM MARY E         NS RIVERSIDE RD 50 FT                   000N        CARE OF             
MTR06919500001000000000000000RA              29083855    005801550000015500000520000003NN  NNW 000                       N    
RDG06919500WATRL000000004K00000000000002247006607182015090012N000000000000N65       000740400K 10000000010000002229           
CUS0691950000106090985000         MELVIN HEINBUCH     NS RIVERSIDE RD 200 FT                  000N        CARE OF             
MTR06919500001000000000000000RA              75614508    005801560000015600000350000003NN  NNW 000                       N    
RDG06919500WATRL000000004K00000000000000085006507182015085858N000400000010N65       001120400K 10000000010000000080           
CUS0691950000106090984003         UHL STEVEN D        859 SUE GROVE RD                        000N        CARE OF             
MTR06919500001000000000000000RA              01108075    005801570000015700000610000003NY  NNW 000                       N    
MTM0691950001108075    TRUCK PARKED OVER   PLATE                                                                              
RDG06919500WATRL000000004K00000000000000000000000000000000000 000000000000U         000000400  10000000010000000967           
CUS0691950000106090983005         WOJTKOWIAK PATRICK O861 SUE GROVE RD                        000N        CARE OF             
MTR06919500001000000000000000RA              42808910    005801580000015800000520000003NN  NNW 000                       N    
RDG06919500WATRL000000004K00000000000001377006407182015085706N000000000010N65       000450400K 10000000010000001376           
CUS0691950000106445202002         J & M INVESTMENTS LL863 SUE GROVE RD                        000N        CARE OF             
MTR06919500001000000000000000RA              10007274    005801590000015900000570000003NN  NNW 000                       N    
RDG06919500WATRL000000004K00000000000000570006307182015085621N000400000010N65       001220400K 10000000010000000547           
CUS0691950000106090982007         AMENT LAWRENCE J,3RDNWC EAST SHORE DR &                     000N        CARE OF             
MTR06919500001000000000000000RA              32903498    005801600000016000000520000003NN  NNW 000   VACANT / LOT        N    
RDG06919500WATRL000000004K00000000000000890006207182015085419N000000000000N65       000550400K 10000000010000000890           
CUS0691950000106421185007         OWEN J & LORRAINE   914 SUE GROVE RD                        000N        CARE OF             
MTR06919500001000000000000000RA              50478361    005801610000016100000520000000NN  NNW 000                       N    
RDG06919500WATRL000000004K00000000000001752003707182015081724N000400000010N65       000820400K 10000000010000001738           
CUS0691950000106090981009         CYR ROBERT A. JR.   912 SUE GROVE RD                        000N        CARE OF             
MTR06919500001000000000000000RA              50477624    005801620000016200000520000003NN  NNW 000                       N    
RDG06919500WATRL000000004K00000000000000624003807182015081825N000400000010N65       000610400K 10000000010000000618           
CUS0691950000106090980001         CARL HERGET         910 SUE GROVE RD                        000N        CARE OF             
MTR06919500001000000000000000RA              36696397    005801630000016300000520000003NY  NNW 000                       N    
MTM0691950036696397    CAR PARKED OVER PLATE                                                                                  
RDG06919500WATRL000000004K00000000000000000000000000000000000 000000000000U         000000400  10000000010000001458           
CUS0691950000106090979003         WOJTKOWIAK PATRICK O906 SUE GROVE RD                        000N        CARE OF             
MTR06919500001000000000000000RA              48596388    005801640000016400000520000003NN  NNW 000                       N    
RDG06919500WATRL000000004K00000000000001489003007182015080954N000000000000N65       001830400K 10000000010000001466           
CUS0691950000106090978005         MAUREEN RODGERS     901 SUE GROVE RD                        000N        CARE OF             
MTR06919500001000000000000000RA              35103189    005801650000016500000520000003NN  NNW 000                       N    
RDG06919500WATRL000000004K00000000000002236002907182015080651N000000000000N65       001710400K 10000000010000002217           
CUS0691950000106090977007         FRANCIS CHARLES URBA900 SUE GROVE RD                        000N        CARE OF             
MTR06919500001000000000000000RA              48592843    005801660000016600000520000003NN  NNW 000                       N    
RDG06919500WATRL000000004K00000000000001132002807182015080400N000400000010N65       002740400K 10000000010000001125           
CUS0691950000106090976009         SPRAGUE WANDA       903 SUE GROVE RD                        000N        CARE OF             
MTR06919500001000000000000000RA              99389110    005801670000016700000570000003NN  NNW 000                       N    
RDG06919500WATRL000000004K00000000000000724003107182015081043N000400000010N65       000490400K 10000000010000000720           
CUS0691950000106090975001         HAYNES ATUSA        905 SUE GROVE RD                        000N        CARE OF             
MTR06919500001000000000000000RA              39289504    005801680000016800000520000003NN  NNW 000                       N    
RDG06919500WATRL000000004K00000000000002837003207182015081117N000000000000N65       000340400K 10000000010000002717           
CUS0691950000106090974004         LOPRESTI JOHN A     ES EAST SHORE DR 296 FT                 000N        CARE OF             
MTR06919500001000000000000000RA              4321699     005801690000016900000320000003NN  NNW 000                       N    
RDG06919500WATRL000000004K00000000000000000003307182015081155S005000000000U65       000380400K 10000000010000000487           
CUS0691950000106090973006         POTTS BARBARA P     909 SUE GROVE RD                        000N        CARE OF             
MTR06919500001000000000000000RA              00134458    005801700000017000000570000003NN  NNW 000                       N    
RDG06919500WATRL000000004K00000000000001612003407182015081236N000400000010N65       000410400K 10000000010000001608           
CUS0691950000106090972008         MAY LISA G          911 SUE GROVE RD                        000N        CARE OF             
MTR06919500001000000000000000RA              10021584    005801710000017100000570000003NY  NNW 000                       N    
MTM0691950010021584    PLATE COV BY OVER   GROWN WEEDS                                                                        
RDG06919500WATRL000000004K00000000000000000003600000000000000 000000000000U         000000400  10000000010000000000           
CUS0691950000106090971000         MAY LISA G          913 SUE GROVE RD                        000N        CARE OF             
MTR06919500001000000000000000RA              10023596    005801720000017200000570000003NN  NNW 000                       N    
RDG06919500WATRL000000004K00000000000000000003507182015081602N000300000021N65       000940400K 10000000010000000185           
CUS0691950000106090970002         MEYERS GERALDINE M  915 SUE GROVE RD                        000N        CARE OF             
MTR06919500001000000000000000RA              14925072    005801730000017300000310000003NN  NNW 000                       N    
RDG06919500WATRL000000004K00000000000000606007607182015093649N000000000000N65       001750400K 10000000010000000590           
CUS0691950000106090969004         MATTES ANDREW J,JR  917 SUE GROVE RD                        000N        CARE OF             
MTR06919500001000000000000000RA              10012829    005801740000017400000570000003NN  NNW 000                       N    
RDG06919500WATRL000000004K00000000000000673007507182015093354N000400000010N65       004680400K 10000000010000000649           
CUS0691950000106090968006         WEATHERSTEIN BERNARD921 SUE GROVE RD                        000N        CARE OF             
MTR06919500001000000000000000RA              39291520    005801750000017500000520000003NN  NNW 000                       N    
RDG06919500WATRL000000004K00000000000003276006107182015085324N000000000000N65       000480400K 10000000010000003249           
CUS0691950000106090967008         JERZY SAMOTYJ       ES EAST SHORE DR                        000N        CARE OF             
MTR06919500001000000000000000RA              46877439    005801760000017600000520000003NN  NNW 000                       N    
RDG06919500WATRL000000004K00000000000001890006007182015085236N000000000000N65       000540400K 10000000010000001871           
CUS0691950000106090966000         EDWARD SABATINO     573 SUE GROVE RD                        000N        CARE OF             
MTR06919500001000000000000000RA              27818995    005801770000017700000520000003NN  NNW 000                       N    
RDG06919500WATRL000000004K00000000000003604005907182015085142N000000000000N65       000570400K 10000000010000003603           
CUS0691950000106090965002         BROGLIE CARLENE F   872 SUE GROVE RD                        000N        CARE OF             
MTR06919500001000000000000000RA              35104246    005801780000017800000520000003NN  NNW 000                       N    
RDG06919500WATRL000000004K00000000000004825005807182015085045N000000000000N65       001820400K 10000000010000004808           
CUS0691950000106090964005         LIPPLE ELLIOTT R    870 SUE GROVE RD                        000N        CARE OF             
MTR06919500001000000000000000RA              10011964    005801790000017900000570000003NN  NNW 000                       N    
RDG06919500WATRL000000004K00000000000000327005707182015084743N000000000000N65       000290400K 10000000010000000312           
CUS0691950000106090963007         UHL KENNETH S       868 SUE GROVE RD                        000N        CARE OF             
MTR06919500001000000000000000RA              10023616    005801800000018000000570000003NN  NNW 000                       N    
RDG06919500WATRL000000004K00000000000000336005607182015084714N000400000010N65       000470400K 10000000010000000312           
CUS0691950000106090962009         FITCH ELMER W       866 SUE GROVE RD                        000N        CARE OF             
MTR06919500001000000000000000RA              32903505    005801810000018100000520000003NN  NNW 000                       N    
RDG06919500WATRL000000004K00000000000005348005507182015084627N000400000010N65       000570400K 10000000010000005303           
CUS0691950000106090961001         LEWIS GARY OWEN     SS RIVERSIDE RD                         000N        CARE OF             
MTR06919500001000000000000000RA              00127437    005801820000018200000570000003NN  NNW 000                       N    
RDG06919500WATRL000000004K00000000000001149005407182015084530N000400000010N65       000810400K 10000000010000001136           
CUS0691950000106090960003         ALBERT JOHN J       860 SUE GROVE RD                        000N        CARE OF             
MTR06919500001000000000000000RA              50481211    005801830000018300000520000003NN  NNW 000                       N    
RDG06919500WATRL000000004K00000000000001293005307182015084409N000400000010N65       001200400K 10000000010000001268           
CUS0691950000106090959005         J & M INVEST LLC    858 SUE GROVE RD                        000N        CARE OF             
MTR06919500001000000000000000RA              50476237    005801840000018400000520000003NY  NNW 000                       N    
MTM0691950050476237    CALLAPSED VAULT     NEEDS CLEAN OUT                                                                    
RDG06919500WATRL000000004K00000000000000000000000000000000000 000000000000U         000000400  10000000010000000781           
CUS0691950000106090958007         ARMIGER LUCILLE G   856-A SUE GROVE RD                      000N        CARE OF             
MTR06919500001000000000000000RA              10012345    005801850000018500000570000003NN  NNW 000                       N    
RDG06919500WATRL000000004K00000000000000486005207182015084209N000400000010N65       000730400K 10000000010000000466           
CUS0691950000106090957009         ARMIGER LUCILLE G   856 SUE GROVE RD                        000N        CARE OF             
MTR06919500001000000000000000RA              45373781    005801860000018600000520000003NN  NNW 000                       N    
RDG06919500WATRL000000004K00000000000000982005107182015084056N000000000000N65       000420400K 10000000010000000974           
CUS0691950000106090956001         COUGHLIN JOSEPH JOHN852 SUE GROVE RD                        000N        CARE OF             
MTR06919500001000000000000000RA              00134460    005801870000018700000570000003NN  NNW 000                       N    
RDG06919500WATRL000000004K00000000000002069005007182015084014N000000000000N65       000570400K 10000000010000002044           
CUS0691950000106090955003         CARBONE DOMINICK S  850 SUE GROVE RD                        000N        CARE OF             
MTR06919500001000000000000000RA              99389101    005801880000018800000570000003NN  NNW 000                       N    
RDG06919500WATRL000000004K00000000000001950004907182015083917N000000000000N65       001070400K 10000000010000001922           
CUS0691950000106090954006         PLUNKETT ROBERT J   NEC RIVERSIDE RD &                      000N        CARE OF             
MTR06919500001000000000000000RA              23059938    005801890000018900000520000003NN  NNW 000                       N    
RDG06919500WATRL000000004K00000000000004153007307182015092412N000000000000N65       001030400K 10000000010000004129           
CUS0691950000106387718007         BRUNE FAMILY LLC    846 SUE GROVE RD                        000N        CARE OF             
MTR06919500001000000000000000RA              01103300    005801900000019000000610000003NN  NNW 000                       N    
RDG06919500WATRL000000004K00000000000000984007107182015091524N000000000000N65       000440400K 10000000010000000956           
CUS0691950000106090953008         PAGE ALEXANDER B,JR SS HERZINGER RD 23 FT                   000N        CARE OF             
MTR06919500001000000000000000RA              10012222    005801910000019100000570000003NN  NNW 000                       N    
RDG06919500WATRL000000004K00000000000000625007007182015091440N000000000000N65       000860400K 10000000010000000605           
CUS0691950000106090952000         STEINMETZ MICHAEL A 836 HERZINGER RD                        000N        CARE OF             
MTR06919500001000000000000000RA              50791191    005801920000019200000520000003NN  NNW 000                       N    
RDG06919500WATRL000000004K00000000000001263006907182015091314N000400000010N65       001020400K 10000000010000001252           
CUS0691950000106090951002         SIMEONE ROGER N     838 SUE GROVE RD                        000N        CARE OF             
MTR06919500001000000000000000RA              27833196    005801930000019300000520000003NN  NNW 000                       N    
RDG06919500WATRL000000004K00000000000002216006807182015091132N000000000000N65       002190400K 10000000010000002207           
CUS0691950000106090950004         SMITH WILLIAM C     SS HERZINGER RD 100 FT                  000N        CARE OF             
MTR06919500001000000000000000RA              48584253    005801940000019400000520000003NN  YNW 000                       N    
RDG06919500WATRL000000004K00000000000000050007207182015092229N000300000010N65       004250400K 10000000010000000663           
CUS0691950000106090949006         VOLZ RAYMOND H      NWC RIVERSIDE RD &                      000N        CARE OF             
MTR06919500001000000000000000RA              54348451    005801950000019500000520000003NN  NNW 000                       N    
RDG06919500WATRL000000004K00000000000000893006707182015090753N000000000000N65       004610400K 10000000010000000888           
CUS0691950000106090948008         HOLLENSHADE THOMAS L828 SUE GROVE RD                        000N        CARE OF             
MTR06919500001000000000000000RA              01083642    005801960000019600000610000003NN  NNW 000                       N    
RDG06919500WATRL000000004K00000000000000373007407182015092606N000000000000N65       001140400K 10000000010000000373           
CUS0691950000106090947000         HAUSER JOHN         826 SUE GROVE RD                        000N        CARE OF             
MTR06919500001000000000000000RA              14902813    005801970000019700000310000003NN  NNW 000                       N    
RDG06919500WATRL000000004K00000000000000494004807182015083730N000400000010N65       001670400K 10000000010000000489           
CUS0691950000106090945004         ISOLA JEROME J      822 SUE GROVE RD                        000N        CARE OF             
MTR06919500001000000000000000RA              01092993    005801980000019800000610000003NN  NNW 000                       N    
RDG06919500WATRL000000004K00000000000000000000000000000000000 000000000000U         000000400  10000000010000001415           
CUS0691950000106090944007         JAMES V SCHEEL      820 SUE GROVE RD                        000N        CARE OF             
MTR06919500001000000000000000RA              77889733    005801990000019900000350000003NN  NNW 000                       N    
RDG06919500WATRL000000004K00000000000000090004607182015083409N000400000010N65       000470400K 10000000010000000069           
CUS0691950000106090943009         GOODRICH HOWARD RUSS818 SUE GROVE RD                        000N        CARE OF             
MTR06919500001000000000000000RA              76346020    005802000000020000000350000003NN  NNW 000                       N    
RDG06919500WATRL000000004K00000000000000059004507182015083322N000000000000N65       000470400K 10000000010000000031           
CUS0691950000106090942001         SIMPSON MARJORIE JOY816 SUE GROVE RD                        000N        CARE OF             
MTR06919500001000000000000000RA              00134459    005802010000020100000570000003NN  NNW 000                       N    
RDG06919500WATRL000000004K00000000000001097004407182015083235N000400000010N65       000630400K 10000000010000001091           
CUS0691950000106090941003         MACHIN DENNIS S     814 SUE GROVE RD                        000N        CARE OF             
MTR06919500001000000000000000RA              50788495    005802020000020200000520000003NN  NNW 000                       N    
RDG06919500WATRL000000004K00000000000000848004307182015083132N000000000000N65       000760400K 10000000010000000831           
CUS0691950000106090940005         MOORE TIMOTHY J     808 SUE GROVE RD                        000N        CARE OF             
MTR06919500001000000000000000RA              48590062    005802030000020300000520000003NN  NNW 000                       N    
RDG06919500WATRL000000004K00000000000000641004207182015083016N000400000010N65       000630400K 10000000010000000634           
CUS0691950000106090939007         SCHREIBER YVONNE NIC802 SUE GROVE RD                        000N        CARE OF             
MTR06919500001000000000000000RA              77987871    005802040000020400000350000003NN  NNW 000                       N    
RDG06919500WATRL000000004K00000000000000064004707182015083443N000000000000N65       000340400K 10000000010000000033           
CUS0691950000106090938009         MOORE ELIZABETH B   800 SUE GROVE RD                        000N        CARE OF             
MTR06919500001000000000000000RA              27832340    005802050000020500000520000003NN  NNW 000                       N    
RDG06919500WATRL000000004K00000000000001569003907182015082106N000000000000N65       001610400K 10000000010000001563           
CUS0691950000106404684000         GENTRY GARY C       748 SUE GROVE RD                        000N        CARE OF             
MTR06919500001000000000000000RA              54349165    005802060000020600000520000003NN  NNW 000                       N    
RDG06919500WATRL000000004K00000000000000540001407182015072537N000400000010N65       001400400K 10000000010000000535           
CUS0691950000106090933000         724 SUE GROVE RD LLC744 SUE GROVE RD                        000N        CARE OF             
MTR06919500001000000000000000RA              10011201    005802070000020700000570000000NN  NNW 000                       N    
RDG06919500WATRL000000004K00000000000000371001307182015072317N000000000000N65       000640400K 10000000010000000356           
CUS0691950000106090934008         KENNEY RICHARD J    742 SUE GROVE RD                        000N        CARE OF             
MTR06919500001000000000000000RA              38983437    005802080000020800000520000003NN  NNW 000                       N    
RDG06919500WATRL000000004K00000000000000547001207182015072213N000000000000N65       000290400K 10000000010000000546           
CUS0691950000106090932002         KENNEY RICHARD J    740 SUE GROVE RD                        000N        CARE OF             
MTR06919500001000000000000000RA              41080689    005802090000020900000520000003NN  NNW 000                       N    
RDG06919500WATRL000000004K00000000000002310001107182015072144N000400000010N65       001040400K 10000000010000002289           
CUS0691950000106090931004         HOFFMAN WILLIAM HOWA738 SUE GROVE RD                        000N        CARE OF             
MTR06919500001000000000000000RA              48595559    005802100000021000000520000003NN  NNW 000                       N    
RDG06919500WATRL000000004K00000000000000681002607182015074059N000000000000N65       000790400K 10000000010000000665           
CUS0691950000106090930006         JOHN MURPHY         736 SUE GROVE RD                        000N        CARE OF             
MTR06919500001000000000000000RA              01080220    005802110000021100000610000003NN  NNW 000                       N    
RDG06919500WATRL000000004K00000000000001829002107182015073454N000000000010N65       001310400K 10000000010000001822           
CUS0691950000106090929008         STUMPF WILLIAM R    732 SUE GROVE RD                        000N        CARE OF             
MTR06919500001000000000000000RA              35107296    005802120000021200000520000003NN  NNW 000                       N    
RDG06919500WATRL000000004K00000000000002731002507182015073940N000000000000N65       000550400K 10000000010000002712           
CUS0691950000106090928000         WILLIAM R STUMPF    730 SUE GROVE RD                        000N        CARE OF             
MTR06919500001000000000000000RA              44176100    005802130000021300000520000003NN  NNW 000                       N    
RDG06919500WATRL000000004K00000000000000457002407182015073845N000100000010N65       000880400K 10000000010000000457           
CUS0691950000106090927002         EDWARD J BURKOWSKI  WS WILTON RD                            000N        CARE OF             
MTR06919500001000000000000000RA              32177291    005802140000021400000520000003NN  NNW 000                       N    
RDG06919500WATRL000000004K00000000000000000000000000000000000 000000000000U         000000400  10000000010000001975           
CUS0691950000106090926004         HOEY PAUL HARRY     722 SUE GROVE RD                        000N        CARE OF             
MTR06919500001000000000000000RA              14902647    005802150000021500000310000003NN  NNW 000                       N    
RDG06919500WATRL000000004K00000000000000629000707182015071555N000400000010N65       001010400K 10000000010000000617           
CUS0691950000106090925006         SUE HAVEN HOLDING COWILTON RD NORTH END                     000N        CARE OF             
MTR06919500001000000000000000RA              99999999    005802160000021600000620000003NN  NNW 000                       N    
RDG06919500WATRL000000004K00000000000000000002307182015073717S002000000000N65       000150400K 10000000010000005316           
CUS0691950000106090924009         MICKLOS JOHN A      734 SUE GROVE RD                        000N        CARE OF             
MTR06919500001000000000000000RA              33734354    005802170000021700000520000003NN  NNW 000                       N    
RDG06919500WATRL000000004K00000000000002514002207182015073702N000000000000N65       001280400K 10000000010000002499           
CUS0691950000106090923001         WEST ALLEN R,3RD    726 SUE GROVE RD                        000N        CARE OF             
MTR06919500001000000000000000RA              48591685    005802180000021800000520000003NN  NNW 000                       N    
RDG06919500WATRL000000004K00000000000000767001007182015072000N000400000010N65       000640400K 10000000010000000758           
CUS0691950000106090922003         HOEY DORIS E        724 SUE GROVE RD                        000N        CARE OF             
MTR06919500001000000000000000RA              50478645    005802190000021900000520000003NN  NNW 000                       N    
RDG06919500WATRL000000004K00000000000000759000907182015071856N000100000010N65       000580400K 10000000010000000759           
CUS0691950000106090921005         JOSEPH SEDLAK       712 SUE GROVE RD                        000N        CARE OF             
MTR06919500001000000000000000RA              36690596    005802200000022000000520000003NN  NNW 000                       N    
RDG06919500WATRL000000004K00000000000001803000607182015071414N000400000010N65       000460400K 10000000010000001800           
CUS0691950000106090920007         COOK MICHAEL B      710 SUE GROVE RD                        000N        CARE OF             
MTR06919500001000000000000000RA              00134461    005802210000022100000570000003NN  NNW 000                       N    
RDG06919500WATRL000000004K00000000000000945000507182015071328N000000000000N65       000780400K 10000000010000000922           
CUS0691950000106090919009         HAUSNER JAMES       708 SUE GROVE RD                        000N        CARE OF             
MTR06919500001000000000000000RA              39584273    005802220000022200000520000003NN  NNW 000                       N    
RDG06919500WATRL000000004K00000000000002753000407182015071210N000100000010N65       000340400K 10000000010000002753           
CUS0691950000106090918001         BELLEW HERMAN F     706 SUE GROVE RD                        000N        CARE OF             
MTR06919500001000000000000000RA              54350413    005802230000022300000520000003NN  NNW 000                       N    
RDG06919500WATRL000000004K00000000000000914000307182015071136N000000000000N65       000390400K 10000000010000000906           
CUS0691950000106090917003         MACHIN DENNIS       704 SUE GROVE RD                        000N        CARE OF             
MTR06919500001000000000000000RA              22609790    005802240000022400000520000003NN  NNW 000                       N    
RDG06919500WATRL000000004K00000000000002604000207182015071057N000400000010N65       000540400K 10000000010000002591           
CUS0691950000106090916005         MARDAGA WILLIAM T   702 SUE GROVE RD                        000N        CARE OF             
MTR06919500001000000000000000RA              50477183    005802250000022500000520000003NN  NNW 000                       N    
RDG06919500WATRL000000004K00000000000002896000107182015071003N000000000000N65       000000400K 10000000010000002870           
RTR06919500NN02280228000002280000000002280228000378NY022802280228001800030000000000000000000002    07162015NY020000 N         
RHD06344300NN01660166000001660000000001660166000115NY016601660166000100000000000000000000000002    08032015NY020000 N         
CUS0634430000106438750009         CAROL THOMAS        5407 PARKSIDE PL                        000N        CARE OF             
MTR06344300001000000000000000RA              00164879    005800010000000100000440000000NN  NNW 000                       N    
RDG06344300WATRL000000004K00000000000000452013008082015081206N000000000000N65       000500400K 10000000010000000426           
CUS0634430000106436841008         ALLEN JR, PHILIP O. 6120 FRANKFORD AVE                      000N        CARE OF             
MTR06344300001000000000000000RA              00163861    000100020000000200000570000000NN  NNW 000                       N    
RDG06344300WATRL000000004K00000000000000616000108082015064606N000000000010N65       000000400K 10000000010000000608           
CUS0634430000106438749001         DEUTSCHE BANK NATION5405 PARKSIDE PL                        000N        CARE OF             
MTR06344300001000000000000000RA              00164878    005800030000000300000440000000NN  NNW 000                       N    
RDG06344300WATRL000000004K00000000000000182013108082015081250N000000000000N65       000440400K 10000000010000000182           
CUS0634430000106438748003         M. NEWTON           5403 PARKSIDE PL                        000N        CARE OF             
MTR06344300001000000000000000RA              00164858    005800040000000400000440000000NN  NNW 000                       N    
RDG06344300WATRL000000004K00000000000000316013208082015081320N000000000000N65       000300400K 10000000010000000293           
CUS0634430000106438747005         LITTLEJOHN, LISA    5401 PARKSIDE PL                        000N        CARE OF             
MTR06344300001000000000000000RA              00164877    005800050000000500000570000000NN  NNW 000                       N    
RDG06344300WATRL000000004K00000000000001456013308082015081332N000000000000N65       000120400K 10000000010000001408           
CUS0634430000106438751007         EASTON, ODAI        5409 PARKSIDE PL                        000N        CARE OF             
MTR06344300001000000000000000RA              99999999    005800060000000600000440000000NN  NNW 000                       N    
RDG06344300WATRL000000004K00000000000000684012908082015081116N000000000000N65       000460400K 10000000010000000655           
CUS0634430000106438752005         HONEMOND JR, JAMES D5411 PARKSIDE PL                        000N        CARE OF             
MTR06344300001000000000000000RA              14915533    005800070000000700000310000000NN  NNW 000                       N    
RDG06344300WATRL000000004K00000000000000502012808082015081030N000000000000N65       000220400K 10000000010000000481           
CUS0634430000106438753003         SMITH, JAMES        5413 PARKSIDE PL                        000N        CARE OF             
MTR06344300001000000000000000RA              14915537    005800080000000800000310000000NN  NNW 000                       N    
RDG06344300WATRL000000004K00000000000000274012708082015081008N000300000010N65       000450400K 10000000010000000266           
CUS0634430000106438754001         NATHAN CHASE        5415 PARKSIDE PL                        000N        CARE OF             
MTR06344300001000000000000000RA              14915354    005800090000000900000310000000NN  NNW 000                       N    
RDG06344300WATRL000000004K00000000000000787012608082015080923N000000000000N65       000630400K 10000000010000000763           
CUS0634430000106438755008         JOE BREWINGTON      5417 PARKSIDE PL                        000N        CARE OF             
MTR06344300001000000000000000RA              14915352    005800100000001000000310000000NN  NNW 000                       N    
RDG06344300WATRL000000004K00000000000000589012508082015080820N000000000000N65       000310400K 10000000010000000568           
CUS0634430000106438756006         MANNING, VICTORIA AN5419 PARKSIDE PL                        000N        CARE OF             
MTR06344300001000000000000000RA              14915542    005800110000001100000310000000NN  NNW 000                       N    
RDG06344300WATRL000000004K00000000000000648012408082015080749N000000000000N65       000330400K 10000000010000000635           
CUS0634430000106438757004         CLINTON MORTON      5421 PARKSIDE PL                        000N        CARE OF             
MTR06344300001000000000000000RA              14915353    005800120000001200000310000000NN  NNW 000                       N    
RDG06344300WATRL000000004K00000000000000912012308082015080716N000000000000N65       000730400K 10000000010000000892           
CUS0634430000106438763002         JEQUN IJIYEMI       4704 DENVIEW WAY                        000N        CARE OF             
MTR06344300001000000000000000RA              14915755    005800130000001300000440000000NN  NNW 000                       N    
RDG06344300WATRL000000004K00000000000000572016008082015083847N000000000000N65       006470400K 10000000010000000559           
CUS0634430000106438762004         ANTOINETTE TAYLOR   4702 DENVIEW WAY                        000N        CARE OF             
MTR06344300001000000000000000RA              14915751    005800140000001400000440000000NN  NNW 000                       N    
RDG06344300WATRL000000004K00000000000001489016108082015083923N000000000000N65       000360400K 10000000010000001468           
CUS0634430000106438761006         FITZGERALD, DEBRISS 4700 DENVIEW WAY                        000N        CARE OF             
MTR06344300001000000000000000RA              14915757    005800150000001500000440000000NN  NNW 000                       N    
RDG06344300WATRL000000004K00000000000000658016208082015084003N000000000000N65       000400400K 10000000010000000642           
CUS0634430000106438760008         JAY STUART          4604 DENVIEW WAY                        000N        CARE OF             
MTR06344300001000000000000000RA              14915759    005800160000001600000440000000NN  NNW 000                       N    
RDG06344300WATRL000000004K00000000000000297016308082015084058N000000000000N65       000550400K 10000000010000000283           
CUS0634430000106438759000         DOUGLAS, KARL       4602 DENVIEW WAY                        000N        CARE OF             
MTR06344300001000000000000000RA              14915798    005800170000001700000310000000NN  NNW 000                       N    
RDG06344300WATRL000000004K00000000000000901016408082015084141N000000000000N65       000430400K 10000000010000000880           
CUS0634430000106438758002         RODNEY C FLOYD      4600 DENVIEW WAY                        000N        CARE OF             
MTR06344300001000000000000000RA              14915753    005800180000001800000440000003NN  NNW 000                       N    
RDG06344300WATRL000000004K00000000000000429016508082015084218N000000000000N65       000370400K 10000000010000000417           
CUS0634430000106438746007         TERRY WELLS         5416 PARKSIDE PL                        000N        CARE OF             
MTR06344300001000000000000000RA              14915434    005800190000001900000310000003NN  NNW 000                       N    
RDG06344300WATRL000000004K00000000000001279012008082015080444N000000000000N65       000870400K 10000000010000001253           
CUS0634430000106438745009         TEKLU NEGIYA        5414 PARKSIDE PL                        000N        CARE OF             
MTR06344300001000000000000000RA              99999999    005800200000002000000440000000NN  NNW 000                       N    
RDG06344300WATRL000000004K00000000000000574011908082015080317N000000000000N65       000400400K 10000000010000000559           
CUS0634430000106438744002         BELLAMY, CARL       5412 PARKSIDE PL                        000N        CARE OF             
MTR06344300001000000000000000RA              99999999    005800210000002100000440000000NN  NNW 000                       N    
RDG06344300WATRL000000004K00000000000000456011808082015080237N000000000000N65       000310400K 10000000010000000444           
CUS0634430000106438743004         YOUNG, LESIA A.     5410 PARKSIDE PL                        000N        CARE OF             
MTR06344300001000000000000000RA              99999999    005800220000002200000440000000NN  NNW 000                       N    
RDG06344300WATRL000000004K00000000000000577011708082015080206N000000000000N65       000350400K 10000000010000000559           
CUS0634430000106438742006         MORIOM GODO         5408 PARKSIDE PL                        000N        CARE OF             
MTR06344300001000000000000000RA              99999999    005800230000002300000440000000NN  NNW 000                       N    
RDG06344300WATRL000000004K00000000000000729011608082015080131N000000000000N65       000380400K 10000000010000000708           
CUS0634430000106438741008         ALTISOURCE SINGLE FA5406 PARKSIDE PL                        000N        CARE OF             
MTR06344300001000000000000000RA              14915477    005800240000002400000310000000NN  NNW 000   VACANT PROPERTY     N    
RDG06344300WATRL000000004K00000000000000241011508082015080053N000000000000N65       000440400K 10000000010000000241           
CUS0634430000106438740000         ELLERBE, TERRON H   5404 PARKSIDE PL                        000N        CARE OF             
MTR06344300001000000000000000RA              99999999    005800250000002500000440000000NN  NNW 000                       N    
RDG06344300WATRL000000004K00000000000000248011408082015080009N000300000010N65       000390400K 10000000010000000266           
CUS0634430000106438739002         LLOYD NOBLE         5402 PARKSIDE PL                        000N        CARE OF             
MTR06344300001000000000000000RA              99999999    005800260000002600000440000000NN  NNW 000                       N    
RDG06344300WATRL000000004K00000000000000805011308082015075930N000000000000N65       000370400K 10000000010000000783           
CUS0634430000106438738004         WRIGHT JR., MELVIN R5400 PARKSIDE PL                        000N        CARE OF             
MTR06344300001000000000000000RA              14915481    005800270000002700000310000000NN  NNW 000                       N    
RDG06344300WATRL000000004K00000000000000540011208082015075853N000000000000N65       001590400K 10000000010000000513           
CUS0634430000106436840000         DUNCAN, JANICE E.   6118 FRANKFORD AVE                      000N        CARE OF             
MTR06344300001000000000000000RA              99999999    000100280000002800000570000003NN  NNW 000                       N    
RDG06344300WATRL000000004K00000000000000587000208082015064640N000000000000N65       000340400K 10000000010000000576           
CUS0634430000106436839002         TANYIFOR TOHNYA     6116 FRANKFORD AVE                      000N        CARE OF             
