FHDNNNN017003643003643003643N                                                                                           011594
RHD04744000NN05180518000005180000000005180518000816NY051805180518000400020000000000000000000001    07082015NY020000 N         
CUS0474400000104131337000         IDLEWYLDE IMP ASN IN6301 SHERWOOD RD                        000N        CARE OF             
MTR04744000001000000000000000RA              76344709    005800010000000100000350000003NN  NNW 000                       N    
RDG04744000WATRL000000004K00000000000000014000107232015064011N000000000000N40       000000400K 10000000010000000014           
CUS0474400000104131320006         BERMAN MORRIS S     6305 SHERWOOD RD                        000N        CARE OF             
MTR04744000001000000000000000RA              50788395    005800020000000200000520000003NN  NNW 000                       N    
RDG04744000WATRL000000004K00000000000003569000207232015064128N000000000000N40       000770400K 10000000010000003534           
CUS0474400000104131321004         BERMAN MORRIS S     6307 SHERWOOD RD                        000N        CARE OF             
MTR04744000001000000000000000RA              01098398    007500030000000300000610000003NN  NNW 000                       N    
RDG04744000WATRL000000004K00000000000006782000307232015064313N000000000000N40       001050400K 10000000010000006597           
CUS0474400000104131336002         BERMAN MORRIS S     6309 SHERWOOD RD                        000N        CARE OF             
MTR04744000001000000000000000RA              01115909    005800040000000400000610000003NN  NNW 000                       N    
RDG04744000WATRL000000004K00000000000003798000407232015064400N000000000010N40       000470400K 10000000010000006798           
CUS0474400000104131335004         KARAVEDAS GEORGE P  6311 SHERWOOD RD                        000N        CARE OF             
MTR04744000001000000000000000RA              39290271    005800050000000500000520000003NN  NNW 000                       N    
RDG04744000WATRL000000004K00000000000001058000507232015064642N000000000000N40       001620400K 10000000010000001052           
CUS0474400000104131334007         7-ELEVEN INC SITE #26327 SHERWOOD RD                        000N        CARE OF             
MTR04744000001000000000000000RA              00163422    000100060000000600000570000003NN  NNW 000                       N    
RDG04744000WATRL000000004K00000000000000989000108052015085836N000000000001U40       000000400K 10000000010000000967           
CUS0474400000104131015002         ELIAS MAGID M       6401 SHERWOOD RD                        000N        CARE OF             
MTR04744000001000000000000000RA              38782298    005800070000000700000520000003NN  NNW 000                       N    
RDG04744000WATRL000000004K00000000000002923012707232015084711N000000000000N40       001000400K 10000000010000002904           
CUS0474400000104131014005         PANICALI RYAN       6501 SHERWOOD RD                        000N        CARE OF             
MTR04744000001000000000000000RA              10020203    005800080000000800000570000003NN  NNW 000                       N    
RDG04744000WATRL000000004K00000000000000166012807232015085113N000000000000N40       002420400K 10000000010000000149           
CUS0474400000104131013007         MICHAEL O CLEARY    6503 SHERWOOD RD                        000N        CARE OF             
MTR04744000001000000000000000RA              33077421    005800090000000900000520000003NN  NNW 000                       N    
RDG04744000WATRL000000004K00000000000002311012907232015085222N000000000000N40       000690400K 10000000010000002298           
CUS0474400000104131012009         MCCARTHY MARY JEAN  6505 SHERWOOD RD                        000N        CARE OF             
MTR04744000001000000000000000RA              36689341    005800100000001000000520000003NN  NNW 000                       N    
RDG04744000WATRL000000004K00000000000003165013007232015085258N000100000010N40       000360400K 10000000010000003165           
CUS0474400000104131011001         NACRELLI DAVID A    6507 SHERWOOD RD                        000N        CARE OF             
MTR04744000001000000000000000RA              01085040    005800110000001100000610000003NN  NNW 000                       N    
RDG04744000WATRL000000004K00000000000001038013107232015085346N000000000000N40       000480400K 10000000010000001025           
CUS0474400000104131010003         VENIA TEVIN D       6511 SHERWOOD RD                        000N        CARE OF             
MTR04744000001000000000000000RA              35118050    005800120000001200000520000003NN  NNW 000                       N    
RDG04744000WATRL000000004K00000000000002923013207232015085455N000000000000N40       000690400K 10000000010000002911           
CUS0474400000104131009005         SCRUGGS BOBBY D     6513 SHERWOOD RD                        000N        CARE OF             
MTR04744000001000000000000000RA              01072098    005800130000001300000610000003NN  NNW 000                       N    
RDG04744000WATRL000000004K00000000000001558013307232015085545N000000000000N40       000500400K 10000000010000001537           
CUS0474400000104131008007         KITZ KAREN ROSE     6515 SHERWOOD RD                        000N        CARE OF             
MTR04744000001000000000000000RA              23052348    005800140000001400000520000003NN  NNW 000                       N    
RDG04744000WATRL000000004K00000000000002115013407232015085621N000000000000N40       000360400K 10000000010000002112           
CUS0474400000104131007009         BULL WILLIAM        6517 SHERWOOD RD                        000N        CARE OF             
MTR04744000001000000000000000RA              23052344    005800150000001500000520000003NN  NNW 000                       N    
RDG04744000WATRL000000004K00000000000005808013507232015085724N000000000000N40       000630400K 10000000010000005778           
CUS0474400000104131143002         GLAUDEMANS PAUL N   809 REGESTER AVE                        000N        CARE OF             
MTR04744000001000000000000000RA              48586557    005800160000001600000520000003NN  NNW 000                       N    
RDG04744000WATRL000000004K00000000000002565018707232015104301N000000000000N40       000380400K 10000000010000002538           
CUS0474400000104131142004         SISSON GEORGE L,JR  807 REGESTER AVE                        000N        CARE OF             
MTR04744000001000000000000000RA              11336562    005800170000001700000570000003NN  NNW 000                       N    
RDG04744000WATRL000000004K00000000000005284018607232015104223N000000000010N40       000500400K 10000000010000005282           
CUS0474400000104131141006         ZIEGLER MICHAEL J   803 REGESTER AVE                        000N        CARE OF             
MTR04744000001000000000000000RA              35116276    005800180000001800000520000003NN  NNW 000                       N    
RDG04744000WATRL000000004K00000000000000180018507232015104133N000000000000N40       000520400K 10000000010000000166           
CUS0474400000104131140008         SCHECH BARRY J      801 REGESTER AVE                        000N        CARE OF             
MTR04744000001000000000000000RA              35116297    005800190000001900000520000003NN  NNW 000                       N    
RDG04744000WATRL000000004K00000000000003541018407232015104041N000000000000N40       006790400K 10000000010000003526           
CUS0474400000104131187009         GARRETT S. SIPERKO  6317 BANBURY RD                         000N        CARE OF             
MTR04744000001000000000000000RA              00127127    005800200000002000000570000003NN  NNW 000                       N    
RDG04744000WATRL000000004K00000000000000867001908052015091631N000300000010U40       000490400K 10000000010000000858           
CUS0474400000104131186001         CHALMERS RONALD C   6315 BANBURY RD                         000N        CARE OF             
MTR04744000001000000000000000RA              00127130    005800210000002100000570000003NN  NNW 000                       N    
RDG04744000WATRL000000004K00000000000000731001808052015091542N000100000010U40       000340400K 10000000010000000731           
CUS0474400000104131185003         ERIC W SHORE        6313 BANBURY RD                         000N        CARE OF             
MTR04744000001000000000000000RA              01115000    005800220000002200000610000003NN  NNW 000                       N    
RDG04744000WATRL000000004K00000000000000816001708052015091508N000000000000U40       000310400K 10000000010000000801           
CUS0474400000104131184006         MACCABEE EARL J     6311 BANBURY RD                         000N        CARE OF             
MTR04744000001000000000000000RA              44088320    005800230000002300000520000003NN  NNW 000                       N    
RDG04744000WATRL000000004K00000000000001580001608052015091437N000000000000U40       000720400K 10000000010000001562           
CUS0474400000104131183008         OPARA ANGELIKA      6309 BANBURY RD                         000N        CARE OF             
MTR04744000001000000000000000RA              39289439    005800240000002400000520000003NN  NNW 000                       N    
RDG04744000WATRL000000004K00000000000002102001508052015091325N000300000010U40       000360400K 10000000010000002052           
CUS0474400000104131182000         PARKS JAMES         6307 BANBURY RD                         000N        CARE OF             
MTR04744000001000000000000000RA              00127129    005800250000002500000570000003NN  NNW 000                       N    
RDG04744000WATRL000000004K00000000000000962001408052015091249N000000000000U40       000450400K 10000000010000000937           
CUS0474400000104131181002         GAY ELIZABETH I     6305 BANBURY RD                         000N        CARE OF             
MTR04744000001000000000000000RA              40321354    005800260000002600000520000003NN  NNW 000                       N    
RDG04744000WATRL000000004K00000000000001090001308052015091204N000000000000U40       000350400K 10000000010000001084           
CUS0474400000104131180004         NIEDERMEYER KARL E  6303 BANBURY RD                         000N        CARE OF             
MTR04744000001000000000000000RA              44086047    005800270000002700000520000003NN  NNW 000                       N    
RDG04744000WATRL000000004K00000000000002202001208052015091129N000000000000U40       000240400K 10000000010000002194           
CUS0474400000104131179006         MAGNUSON JAMES I    6301 BANBURY RD                         000N        CARE OF             
MTR04744000001000000000000000RA              01114998    005800280000002800000610000003NN  NNW 000                       N    
RDG04744000WATRL000000004K00000000000000908001108052015091105N000000000000U40       000830400K 10000000010000000896           
CUS0474400000104131178008         PEARCE KATIE L      6300 BANBURY RD                         000N        CARE OF             
MTR04744000001000000000000000RA              01085668    005800290000002900000610000003NN  NNW 000                       N    
RDG04744000WATRL000000004K00000000000000692001008052015090942N000000000000U40       000790400K 10000000010000000692           
CUS0474400000104131177000         ROBERT Y LEWIS      6302 BANBURY RD                         000N        CARE OF             
MTR04744000001000000000000000RA              32771312    005800300000003000000520000003NN  NNW 000                       N    
RDG04744000WATRL000000004K00000000000001982000908052015090823N000300000010U40       000560400K 10000000010000001953           
CUS0474400000104131176002         SILLARS CHRISTOPHER 6304 BANBURY RD                         000N        CARE OF             
MTR04744000001000000000000000RA              01072097    005800310000003100000610000003NN  NNW 000                       N    
RDG04744000WATRL000000004K00000000000001441000808052015090727N000000000000U40       000330400K 10000000010000001412           
CUS0474400000104131175004         TIM & ROSE MCFADDEN 6306 BANBURY RD                         000N        CARE OF             
MTR04744000001000000000000000RA              00127133    005800320000003200000570000003NN  NNW 000                       N    
RDG04744000WATRL000000004K00000000000001186000708052015090654N000000000000U40       000890400K 10000000010000001165           
CUS0474400000104131174007         SATTLER RITA        6308 BANBURY RD                         000N        CARE OF             
MTR04744000001000000000000000RA              48595899    005800330000003300000520000003NN  NNW 000                       N    
RDG04744000WATRL000000004K00000000000001061000608052015090525N000000000000U40       000350400K 10000000010000001052           
CUS0474400000104131173009         YVONNE VIEYRA       6310 BANBURY RD                         000N        CARE OF             
MTR04744000001000000000000000RA              45380427    005800340000003400000520000003NN  NNW 000                       N    
RDG04744000WATRL000000004K00000000000002822000508052015090450N000000000000U40       000620400K 10000000010000002794           
CUS0474400000104131172001         REUS HENRY W,SR     6312 BANBURY RD                         000N        CARE OF             
MTR04744000001000000000000000RA              50790548    005800350000003500000520000003NN  NNW 000                       N    
RDG04744000WATRL000000004K00000000000000638000408052015090348N000000000000U40       000380400K 10000000010000000629           
CUS0474400000104131171003         REUS HENRY W,JR     6314 BANBURY RD                         000N        CARE OF             
MTR04744000001000000000000000RA              26018864    005800360000003600000520000003NN  NNW 000                       N    
RDG04744000WATRL000000004K00000000000002972000308052015090310N000000000000U40       000340400K 10000000010000002953           
CUS0474400000104131169007         ZOELLER CHRISTOPHER 6318 BANBURY RD                         000N        CARE OF             
MTR04744000001000000000000000RA              40781593    005800370000003700000520000003NN  NNW 000                       N    
RDG04744000WATRL000000004K00000000000002068000208052015090236N000000000000U40       002400400K 10000000010000002039           
CUS0474400000104131168009         WOLF SCHLOSSBERG-COH6400 BANBURY RD                         000N        CARE OF             
MTR04744000001000000000000000RA              01115829    005800380000003800000610000003NN  NNW 000                       N    
RDG04744000WATRL000000004K00000000000000700000108102015090046N000000000000U40       000000400K 10000000010000000671           
CUS0474400000104131161004         HUTCHINGS MARK R    800 OVERBROOK RD                        000N        CARE OF             
MTR04744000001000000000000000RA              99290600    005800390000003900000570000003NN  NNW 000                       N    
RDG04744000WATRL000000004K00000000000001509002008052015091840N000000000000U40       001290400K 10000000010000001479           
CUS0474400000104131160006         BALTIMORE COUNTY,MAR802 OVERBROOK RD                        000N        CARE OF             
MTR04744000001000000000000000RA              27814191    005800400000004000000520000003NN  NNW 000   FERRULE APPLIED     N    
RDG04744000WATRL000000004K00000000000003291002108052015091913N000000000000U40       000330400K 10000000010000003291           
CUS0474400000104131159008         HANNUM JENNIFER J   804 OVERBROOK RD                        000N        CARE OF             
MTR04744000001000000000000000RA              26001932    005800410000004100000520000003NN  NNW 000                       N    
RDG04744000WATRL000000004K00000000000003608002208052015091949N000000000000U40       000360400K 10000000010000003603           
CUS0474400000104131158000         HART DONALD T       806 OVERBROOK RD                        000N        CARE OF             
MTR04744000001000000000000000RA              23054040    005800420000004200000520000003NN  NNW 000                       N    
RDG04744000WATRL000000004K00000000000003544002308052015092016N000000000000U40       000270400K 10000000010000003535           
CUS0474400000104131157002         TOWSON REAL ESTATE S810 OVERBROOK RD                        000N        CARE OF             
MTR04744000001000000000000000RA              41082539    005800430000004300000520000003NN  NNW 000                       N    
RDG04744000WATRL000000004K00000000000001347002408052015092112N000000000000U40       000560400K 10000000010000001324           
CUS0474400000104131167001         KENNARD DAVID S     6411 BANBURY RD                         000N        CARE OF             
MTR04744000001000000000000000RA              01097604    005800440000004400000610000003NN  NNW 000                       N    
RDG04744000WATRL000000004K00000000000001097018307232015102922N000000000000N40       000430400K 10000000010000001081           
CUS0474400000104131166003         BUTH CHANBORY       6409 BANBURY RD                         000N        CARE OF             
MTR04744000001000000000000000RA              01113070    005800450000004500000610000003NN  NNW 000                       N    
RDG04744000WATRL000000004K00000000000001045018207232015102839N000000000000N40       000270400K 10000000010000001023           
CUS0474400000104131165005         GROFT BRENDA K      6407 BANBURY RD                         000N        CARE OF             
MTR04744000001000000000000000RA              01072095    005800460000004600000610000003NN  NNW 000                       N    
RDG04744000WATRL000000004K00000000000000930018107232015102812N000000000000N40       000860400K 10000000010000000917           
CUS0474400000104131164008         HIGGS AMANDA S      6405 BANBURY RD                         000N        CARE OF             
MTR04744000001000000000000000RA              10018067    005800470000004700000570000003NN  NNW 000                       N    
RDG04744000WATRL000000004K00000000000000000003908052015095106S001000000000U40       003530400K 10000000010000000228           
CUS0474400000104131163000         WESTIN SHAWN D      6403 BANBURY RD                         000N        CARE OF             
MTR04744000001000000000000000RA              10016596    005800480000004800000570000003NN  NNW 000                       N    
RDG04744000WATRL000000004K00000000000000295018007232015102646N000000000001N40       000510400K 10000000010000000280           
CUS0474400000104131162002         DAVIS SCOTT         6401 BANBURY RD                         000N        CARE OF             
MTR04744000001000000000000000RA              24772965    005800490000004900000520000003NN  NNW 000                       N    
RDG04744000WATRL000000004K00000000000003824017907232015102555N000000000000N40       004430400K 10000000010000003801           
CUS0474400000104131139000         LITTLETON CHARLES K 800 REGESTER AVE                        000N        CARE OF             
MTR04744000001000000000000000RA              31583459    005800500000005000000520000003NN  NNW 000                       N    
RDG04744000WATRL000000004K00000000000002208004008052015095426N000000000000U40       002000400K 10000000010000002197           
CUS0474400000104131138002         STROHECKER GEORGE M 802 REGESTER AVE                        000N        CARE OF             
MTR04744000001000000000000000RA              10014774    005800510000005100000570000003NN  NNW 000                       N    
RDG04744000WATRL000000004K00000000000001817004108052015095521N000000000000U40       000550400K 10000000010000001758           
CUS0474400000104131137004         SWEENEY EDWARD F,JR 804 REGESTER AVE                        000N        CARE OF             
MTR04744000001000000000000000RA              48589745    005800520000005200000520000003NN  NNW 000                       N    
RDG04744000WATRL000000004K00000000000002203004208052015095556N000000000000U40       000350400K 10000000010000002196           
CUS0474400000104131135008         WILLIAMS ROBERT E,JR806 REGESTER AVE                        000N        CARE OF             
MTR04744000001000000000000000RA              23054465    005800530000005300000520000003NN  NNW 000                       N    
RDG04744000WATRL000000004K00000000000003773004608052015095830N000000000011U40       000040400K 10000000010000003753           
CUS0474400000104131134001         VANIK VICTORIA A    808 REGESTER AVE                        000N        CARE OF             
MTR04744000001000000000000000RA              29403252    005800540000005400000520000003NN  NNW 000                       N    
RDG04744000WATRL000000004K00000000000003651004708052015095913N000000000000U40       000430400K 10000000010000003642           
CUS0474400000104131131007         ROMNEY PAUL         6903 BANBURY RD                         000N        CARE OF             
MTR04744000001000000000000000RA              76345105    005800550000005500000350000003NN  NNW 000                       N    
RDG04744000WATRL000000004K00000000000000057004308052015095645N000400000010U40       000490400K 10000000010000000050           
CUS0474400000104131130009         SPITZNAS RAYMOND    6905 BANBURY RD                         000N        CARE OF             
MTR04744000001000000000000000RA              26009641    005800560000005600000520000003NN  NNW 000                       N    
RDG04744000WATRL000000004K00000000000003674004408052015095715N000000000000U40       000300400K 10000000010000003658           
CUS0474400000104131129001         PIUNTI CHAD         6907 BANBURY RD                         000N        CARE OF             
MTR04744000001000000000000000RA              35116512    005800570000005700000520000003NN  NNW 000                       N    
RDG04744000WATRL000000004K00000000000002794004508052015095746N000300000010U40       000310400K 10000000010000002891           
CUS0474400000104131128003         DILLON NOEL J       6909 BANBURY RD                         000N        CARE OF             
MTR04744000001000000000000000RA              35116508    005800580000005800000520000003NN  NNW 000                       N    
RDG04744000WATRL000000004K00000000000002534013908062015100003N000000000000U40       001050400K 10000000010000002521           
CUS0474400000104130847009         MATTHEW P PERKINS   900 REGESTER AVE                        000N        CARE OF             
MTR04744000001000000000000000RA              24221627    005800590000005900000520000003NN  NNW 000                       N    
RDG04744000WATRL000000004K00000000000004107000408102015091119N000000000000U40       002000400K 10000000010000004092           
CUS0474400000104130848007         CARRASCO CHRISTOPHER906 REGESTER AVE                        000N        CARE OF             
MTR04744000001000000000000000RA              27814190    005800600000006000000520000003NN  NNW 000                       N    
RDG04744000WATRL000000004K00000000000003765004808052015100048N000000000000U40       000950400K 10000000010000003740           
CUS0474400000104130849005         FUNK SUZANNE M      908 REGESTER AVE                        000N        CARE OF             
MTR04744000001000000000000000RA              00127059    005800610000006100000570000003NN  NNW 000                       N    
RDG04744000WATRL000000004K00000000000000965004908052015100129N000000000000U40       000410400K 10000000010000000959           
CUS0474400000104130850003         LIND LOUIS W,SR     912 REGESTER AVE                        000N        CARE OF             
MTR04744000001000000000000000RA              9692787     007500620000006200000570000003NN  NNW 000                       N    
RDG04744000WATRL000000004K00000000000005912005008052015100146N000300000010U40       000170400K 10000000010000005860           
CUS0474400000104130851001         CRAMER NANCY A      914 REGESTER AVE                        000N        CARE OF             
MTR04744000001000000000000000RA              14909258    005800630000006300000310000003NN  NNW 000                       N    
RDG04744000WATRL000000004K00000000000001060005108052015100213N000000000000U40       000270400K 10000000010000001039           
CUS0474400000104130852009         SLAGLE DAVID        916 REGESTER AVE                        000N        CARE OF             
MTR04744000001000000000000000RA              11335123    005800640000006400000570000003NN  NNW 000                       N    
RDG04744000WATRL000000004K00000000000003532005208052015100247N000000000000U40       000340400K 10000000010000003515           
CUS0474400000104130853007         BATTLE RAPHAEL      918 REGESTER AVE                        000N        CARE OF             
MTR04744000001000000000000000RA              14917675    005800650000006500000310000003NN  NNW 000                       N    
RDG04744000WATRL000000004K00000000000000516005308052015100318N000300000010U40       000310400K 10000000010000000485           
CUS0474400000104130854005         GOUEL ELIAS GEORGE  920 REGESTER AVE                        000N        CARE OF             
MTR04744000001000000000000000RA              24763140    005800660000006600000520000003NN  NNW 000                       N    
RDG04744000WATRL000000004K00000000000005137005408052015100417N000400000010U40       000590400K 10000000010000005116           
CUS0474400000104130855002         VALUNAS PROPERTIES L922 REGESTER AVE                        000N        CARE OF             
MTR04744000001000000000000000RA              99189167    005800670000006700000570000003NN  NNW 000                       N    
RDG04744000WATRL000000004K00000000000000715005508052015100457N000300000010U40       000400400K 10000000010000000698           
CUS0474400000104130856000         SWEENEY THOMAS A,JR 924 REGESTER AVE                        000N        CARE OF             
MTR04744000001000000000000000RA              23052564    005800680000006800000520000003NN  NNW 000                       N    
RDG04744000WATRL000000004K00000000000005409005608052015100522N000000000000U40       000250400K 10000000010000005401           
CUS0474400000104130857008         CHANDRASEKAR RONALD 926 REGESTER AVE                        000N        CARE OF             
MTR04744000001000000000000000RA              24765672    005800690000006900000520000003NN  NNW 000                       N    
RDG04744000WATRL000000004K00000000000003641005708052015100613N000000000000U40       000510400K 10000000010000003620           
CUS0474400000104130858006         TRUSTEES OF IDLEWYLD928 REGESTER AVE                        000N        CARE OF             
MTR04744000001000000000000000RA              40322916    005800700000007000000520000003NN  NNW 000                       N    
RDG04744000WATRL000000004K00000000000001023005808052015100652N000400000010U40       000390400K 10000000010000001019           
CUS0474400000104130861000         IDLEWYLDE METH CHURC1000 REGESTER AVE                       000N        CARE OF             
MTR04744000001000000000000000RA              25782546    005800710000007100000520000003NN  NNW 000                       N    
RDG04744000WATRL000000004K00000000000000777005908052015100812N000300000010U40       000800400K 10000000010000000765           
CUS0474400000104130862008         STIARS JOSEPH E     1002 REGESTER AVE                       000N        CARE OF             
MTR04744000001000000000000000RA              36690576    005800720000007200000520000003NN  NNW 000                       N    
RDG04744000WATRL000000004K00000000000002549006008052015100856N000000000000U40       000440400K 10000000010000002517           
CUS0474400000104130863006         STEINBERG BORIS     1004 REGESTER AVE                       000N        CARE OF             
MTR04744000001000000000000000RA              45360425    005800730000007300000520000003NN  NNW 000                       N    
RDG04744000WATRL000000004K00000000000002707006108052015100938N000000000000U40       000420400K 10000000010000002674           
CUS0474400000104130864004         THOMPSON PATRICIA A 1006 REGESTER AVE                       000N        CARE OF             
MTR04744000001000000000000000RA              25782584    005800740000007400000520000003NN  NNW 000                       N    
RDG04744000WATRL000000004K00000000000002627006208052015101013N000000000000U40       000350400K 10000000010000002618           
CUS0474400000104130865001         RYAN LISA MARANI    1008 REGESTER AVE                       000N        CARE OF             
MTR04744000001000000000000000RA              23052566    005800750000007500000520000003NN  NNW 000                       N    
RDG04744000WATRL000000004K00000000000004054006308052015101044N000000000000U40       000310400K 10000000010000004027           
CUS0474400000104130866009         TOLJ WALTER R       1010 REGESTER AVE                       000N        CARE OF             
MTR04744000001000000000000000RA              45383989    005800760000007600000520000003NN  NNW 000                       N    
RDG04744000WATRL000000004K00000000000001034006408052015101117N000000000000U40       000330400K 10000000010000001006           
CUS0474400000104130867007         DIPAULA CHARLES E   1014 REGESTER AVE                       000N        CARE OF             
MTR04744000001000000000000000RA              23052577    005800770000007700000520000003NN  NNW 000                       N    
RDG04744000WATRL000000004K00000000000004186006508052015101145N000000000000U40       000280400K 10000000010000004153           
CUS0474400000104130868005         SELEWACH JANE MARIE 1016 REGESTER AVE                       000N        CARE OF             
MTR04744000001000000000000000RA              36698337    005800780000007800000520000003NN  NNW 000                       N    
RDG04744000WATRL000000004K00000000000003253006608052015101303N000300000010U40       000780400K 10000000010000003229           
CUS0474400000104130869003         BENJAMIN LARSON     1018 REGESTER AVE                       000N        CARE OF             
MTR04744000001000000000000000RA              40321374    005800790000007900000520000003NN  NNW 000                       N    
RDG04744000WATRL000000004K00000000000001336006708052015101341N000000000000U40       000380400K 10000000010000001320           
CUS0474400000104130870001         GOEMBEL LUKE        1020 REGESTER AVE                       000N        CARE OF             
MTR04744000001000000000000000RA              9691419     005800800000008000000570000003NN  NNW 000                       N    
RDG04744000WATRL000000004K00000000000004822006808052015101412N000000000000U40       000310400K 10000000010000004795           
CUS0474400000104130871009         RODNEY YODER        1022 REGESTER AVE                       000N        CARE OF             
MTR04744000001000000000000000RA              10015102    005800810000008100000570000003NN  NNW 000                       N    
RDG04744000WATRL000000004K00000000000000220006908052015101450N000000000000U40       000380400K 10000000010000000196           
CUS0474400000104130873005         HART CRAIG WILBUR   1100 REGESTER AVE                       000N        CARE OF             
MTR04744000001000000000000000RA              30514422    005800820000008200000520000003NN  NNW 000                       N    
RDG04744000WATRL000000004K00000000000001930007008052015101540N000000000000U40       000500400K 10000000010000001915           
CUS0474400000104130874003         PRINTZ BONNIE ALLEN 1104 REGESTER AVE                       000N        CARE OF             
MTR04744000001000000000000000RA              99376338    007500830000008300000570000003NN  NNW 000                       N    
RDG04744000WATRL000000004K00000000000000582007108052015101622N000000000000U40       000420400K 10000000010000000564           
CUS0474400000104130875000         SMITH LONNIE M      1106 REGESTER AVE                       000N        CARE OF             
MTR04744000001000000000000000RA              00127057    005800840000008400000570000003NN  NNW 000                       N    
RDG04744000WATRL000000004K00000000000001271007208052015101711N000000000000U40       000490400K 10000000010000001248           
CUS0474400000104130876008         HOMES FOR ARUNDEL IN1108 REGESTER AVE                       000N        CARE OF             
MTR04744000001000000000000000RA              01113069    005800850000008500000610000003NN  NNW 000                       N    
RDG04744000WATRL000000004K00000000000002299007308052015101829N000000000000U40       000780400K 10000000010000002254           
CUS0474400000104130877006         GEMCRAFT HOMES, INC 1110 REGESTER AVE                       000N        CARE OF             
MTR04744000001000000000000000RA              27133295    005800860000008600000520000003NN  NNW 000                       N    
RDG04744000WATRL000000004K00000000000003211007408052015101854N000000000000U40       000250400K 10000000010000003211           
CUS0474400000104130878004         REID TIMOTHY A      1114 REGESTER AVE                       000N        CARE OF             
MTR04744000001000000000000000RA              23053818    005800870000008700000520000003NN  NNW 000                       N    
RDG04744000WATRL000000004K00000000000004773007508052015101926N000000000000U40       000320400K 10000000010000004751           
CUS0474400000104130879002         SIMMS FRANK         1116 REGESTER AVE                       000N        CARE OF             
MTR04744000001000000000000000RA              23052667    005800880000008800000520000003NN  NNW 000                       N    
RDG04744000WATRL000000004K00000000000004082007608052015102012N000000000000U40       000460400K 10000000010000004064           
CUS0474400000104130880000         PALIJCZUK WASYL     1202 REGESTER AVE                       000N        CARE OF             
MTR04744000001000000000000000RA              00127061    005800890000008900000570000003NN  NNW 000                       N    
RDG04744000WATRL000000004K00000000000000663007708052015102115N000000000010U40       000630400K 10000000010000000659           
CUS0474400000104130881008         SUPENSKY CLAY W     1204 REGESTER AVE                       000N        CARE OF             
MTR04744000001000000000000000RA              31583506    005800900000009000000520000003NN  NNW 000                       N    
RDG04744000WATRL000000004K00000000000004369007808052015102157N000000000000U40       000420400K 10000000010000004318           
CUS0474400000104130882006         DOMINICK DAVID B    1206 REGESTER AVE                       000N        CARE OF             
MTR04744000001000000000000000RA              00127063    005800910000009100000570000003NN  NNW 000                       N    
RDG04744000WATRL000000004K00000000000000517007908052015102311N000000000000U40       000740400K 10000000010000000503           
CUS0474400000104130883004         GLASSMAN DOROTHY E  1208 REGESTER AVE                       000N        CARE OF             
MTR04744000001000000000000000RA              40049887    005800920000009200000520000003NN  NNW 000                       N    
RDG04744000WATRL000000004K00000000000002050008008052015102356N000000000000U40       000450400K 10000000010000002039           
CUS0474400000104130884002         ERCULIANI DAVID R   1210 REGESTER AVE                       000N        CARE OF             
MTR04744000001000000000000000RA              00127060    005800930000009300000570000003NN  NNW 000                       N    
RDG04744000WATRL000000004K00000000000000979008108052015102429N000000000000U40       000330400K 10000000010000000934           
CUS0474400000104130885009         DARIEN R ESLER      1212 REGESTER AVE                       000N        CARE OF             
MTR04744000001000000000000000RA              00131683    005800940000009400000570000003NN  NNW 000                       N    
RDG04744000WATRL000000004K00000000000000982008208052015102506N000300000010U40       000370400K 10000000010000000966           
CUS0474400000104130886007         ELKERTON LORRAINE S 1214 REGESTER AVE                       000N        CARE OF             
MTR04744000001000000000000000RA              00126867    005800950000009500000570000003NN  NNW 000                       N    
RDG04744000WATRL000000004K00000000000000743008308052015102547N000000000000U40       000410400K 10000000010000000727           
CUS0474400000104130887005         TANDA GIANLUIGI     1207 REGESTER AVE                       000N        CARE OF             
MTR04744000001000000000000000RA              01106619    005800960000009600000610000003NN  NNW 000                       N    
RDG04744000WATRL000000004K00000000000001185016007232015092618N000000000000N40       000570400K 10000000010000001132           
CUS0474400000104130889001         RUSSELL AARON E     1205 REGESTER AVE                       000N        CARE OF             
MTR04744000001000000000000000RA              29084262    005800970000009700000520000003NN  NNW 000                       N    
RDG04744000WATRL000000004K00000000000002768015907232015092521N000000000000N40       000520400K 10000000010000002759           
CUS0474400000104130888003         MCBRIAN-KEAGLE JESSA1203 REGESTER AVE                       000N        CARE OF             
MTR04744000001000000000000000RA              24770948    005800980000009800000520000003NN  NNW 000                       N    
RDG04744000WATRL000000004K00000000000004348015807232015092429N000400000010N40       000980400K 10000000010000004332           
CUS0474400000104131048003         PARKS ROBERT W      1110 LITCHFIELD RD                      000N        CARE OF             
MTR04744000001000000000000000RA              45384273    005800990000009900000520000003NN  NNW 000                       N    
RDG04744000WATRL000000004K00000000000003046008408052015103109N000000000000U40       003220400K 10000000010000003020           
CUS0474400000104131049001         VOLZ JOHN ONEILL    1108 LITCHFIELD RD                      000N        CARE OF             
MTR04744000001000000000000000RA              99388514    005801000000010000000570000003NY  NNW 000                       N    
MTM0474400099388514    DONT SEE                                                                                               
RDG04744000WATRL000000004K00000000000001481008508052015103358N000300000010U40       001690400K 10000000010000001806           
CUS0474400000104131050009         PETER C. ISMAY      1102 LITCHFIELD RD                      000N        CARE OF             
MTR04744000001000000000000000RA              26012588    005801010000010100000520000003NN  NNW 000                       N    
RDG04744000WATRL000000004K00000000000003412008608052015103520N000000000000U40       000820400K 10000000010000003388           
CUS0474400000104131051007         LEHRMANN ELIN B M   1100 LITCHFIELD RD                      000N        CARE OF             
MTR04744000001000000000000000RA              99388515    005801020000010200000570000003NN  NNW 000                       N    
RDG04744000WATRL000000004K00000000000001418008708052015103604N000300000010U40       000440400K 10000000010000001375           
CUS0474400000104131052005         STROTT LINDA R      1022 LITCHFIELD RD                      000N        CARE OF             
MTR04744000001000000000000000RA              99390927    005801030000010300000570000003NN  NNW 000                       N    
RDG04744000WATRL000000004K00000000000002243008808052015103652N000400000020U40       000480400K 10000000010000002242           
CUS0474400000104131053003         THOMPSON THEODORE A 1020 LITCHFIELD RD                      000N        CARE OF             
MTR04744000001000000000000000RA              23054464    005801040000010400000520000003NN  NNW 000                       N    
RDG04744000WATRL000000004K00000000000003940008908052015103736N000000000000U40       000440400K 10000000010000003919           
CUS0474400000104131054001         SANZENBACHER KARL ER1010 LITCHFIELD RD                      000N        CARE OF             
MTR04744000001000000000000000RA              75614048    005801050000010500000350000003NN  NNW 000                       N    
RDG04744000WATRL000000004K00000000000000227009008052015103941N000000000010U40       001250400K 10000000010000000205           
CUS0474400000104131055008         ANDREWS DAVID G     1008 LITCHFIELD RD                      000N        CARE OF             
MTR04744000001000000000000000RA              32904156    005801060000010600000520000003NN  NNW 000                       N    
RDG04744000WATRL000000004K00000000000004809009108052015104034N000000000000U40       000530400K 10000000010000004801           
CUS0474400000104131056006         ETHAN M KRIEGER     1002 LITCHFIELD RD                      000N        CARE OF             
MTR04744000001000000000000000RA              31586818    005801070000010700000520000003NN  NNW 000                       N    
RDG04744000WATRL000000004K00000000000002371009208052015104122N000000000000U40       000480400K 10000000010000002360           
CUS0474400000104131057004         SCHMITT CHARLES J   1000 LITCHFIELD RD                      000N        CARE OF             
MTR04744000001000000000000000RA              24766421    005801080000010800000520000003NN  NNW 000                       N    
RDG04744000WATRL000000004K00000000000003495000508102015091500N000000000000U40       002210400K 10000000010000003475           
CUS0474400000104130859004         LLOYD HAROLD C      6604 PARKWAY RD                         000N        CARE OF             
MTR04744000001000000000000000RA              41086221    005801090000010900000520000003NN  NNW 000                       N    
RDG04744000WATRL000000004K00000000000000057000708102015092220N000000000000U40       002320400K 10000000010000000057           
CUS0474400000104131070007         GADSDEN RANSOM W    6620 PARKWAY RD                         000N        CARE OF             
MTR04744000001000000000000000RA              00127056    005801100000011000000570000003NN  NNW 000                       N    
RDG04744000WATRL000000004K00000000000000640015108062015101919N000000000000U40       000420400K 10000000010000000628           
CUS0474400000104352580007         AUER JOHN MICHAEL   6622 PARKWAY RD                         000N        CARE OF             
MTR04744000001000000000000000RA              27832495    005801110000011100000520000003NN  NNW 000                       N    
RDG04744000WATRL000000004K00000000000003248015208062015102009N000000000000U40       000500400K 10000000010000003235           
CUS0474400000104131063002         CONNAGHAN ROBERT JAM6700 PARKWAY RD                         000N        CARE OF             
MTR04744000001000000000000000RA              24230235    005801120000011200000520000003NN  NNW 000                       N    
RDG04744000WATRL000000004K00000000000003227014608062015101153N000000000000U40       000640400K 10000000010000003197           
CUS0474400000104131062004         BRADFORD PETER D    6705 PARKWAY RD                         000N        CARE OF             
MTR04744000001000000000000000RA              10023752    005801130000011300000570000003NN  NNW 000                       N    
RDG04744000WATRL000000004K00000000000000133014708062015101343N000400000010U40       001100400K 10000000010000000121           
CUS0474400000104131061006         JONES ROBERT C      6703 PARKWAY RD                         000N        CARE OF             
MTR04744000001000000000000000RA              23644959    005801140000011400000520000003NN  NNW 000                       N    
RDG04744000WATRL000000004K00000000000003569014808062015101443N000000000000U40       000600400K 10000000010000003557           
CUS0474400000104131060008         LORAN JORDAN R      6701 PARKWAY RD                         000N        CARE OF             
MTR04744000001000000000000000RA              45374334    005801150000011500000520000003NN  NNW 000                       N    
RDG04744000WATRL000000004K00000000000001779014908062015101605N000000000000U40       000820400K 10000000010000001768           
CUS0474400000104131059000         SHECKELLS PATRICK OW6625 PARKWAY RD                         000N        CARE OF             
MTR04744000001000000000000000RA              10022147    005801160000011600000570000003NN  NNW 000                       N    
RDG04744000WATRL000000004K00000000000000238015308062015102051N000000000000U40       000420400K 10000000010000000217           
CUS0474400000104131058002         BACKHAUS GARY MARK  6621 PARKWAY RD                         000N        CARE OF             
MTR04744000001000000000000000RA              19462459    005801170000011700000520000003NN  NNW 000                       N    
RDG04744000WATRL000000004K00000000000004315015008062015101837N000000000000U40       001520400K 10000000010000004286           
CUS0474400000104130860002         BRIAN BARKER        6607 PARKWAY RD                         000N        CARE OF             
MTR04744000001000000000000000RA              00127064    005801180000011800000570000003NY  NNW 000                       N    
MTM0474400000127064    CAR                                                                                                    
RDG04744000WATRL000000004K00000000000000000000000000000000000 000000000000U         000000400  10000000010000001357           
CUS0474400000104131067003         SANDERS CATHERINE R 908 MALDON RD                           000N        CARE OF             
MTR04744000001000000000000000RA              74688084    005801190000011900000350000003NN  NNW 000                       N    
RDG04744000WATRL000000004K00000000000000001014508062015101049N000000000010U40       000130400K 10000000010000000001           
CUS0474400000104131066005         TINSLEY PETER S     914 MALDON RD                           000N        CARE OF             
MTR04744000001000000000000000RA              26001206    005801200000012000000520000003NN  NNW 000   VACANT / LOT        N    
RDG04744000WATRL000000004K00000000000000000014408062015101036N000000000001U40       000730400K 10000000010000000000           
CUS0474400000104131065007         TINSLEY PETER STEPHE918 MALDON RD                           000N        CARE OF             
MTR04744000001000000000000000RA              20767471    005801210000012100000520000003NN  NNW 000                       N    
RDG04744000WATRL000000004K00000000000003309000608102015091828N000000000000U40       002080400K 10000000010000003309           
CUS0474400000104131064000         TINSLEY PETER S     924 MALDON RD                           000N        CARE OF             
MTR04744000001000000000000000RA              30527831    005801220000012200000520000003NN  NNW 000                       N    
RDG04744000WATRL000000004K00000000000001857014308062015100923N000100000010U40       001160400K 10000000010000001857           
CUS0474400000104131069009         LABUFF JESSE BRYANT 925 MALDON RD                           000N        CARE OF             
MTR04744000001000000000000000RA              23054468    005801230000012300000520000003NN  NNW 000                       N    
RDG04744000WATRL000000004K00000000000002591014108062015100635N000000000000U40       000720400K 10000000010000002571           
CUS0474400000104131068001         BOYLE PATRICIA A    923 MALDON RD                           000N        CARE OF             
MTR04744000001000000000000000RA              32770341    005801240000012400000520000003NN  NNW 000                       N    
RDG04744000WATRL000000004K00000000000001311014208062015100727N000000000000U40       000520400K 10000000010000001306           
CUS0474400000104131071005         SCALES STEPHEN J    934 LITCHFIELD RD                       000N        CARE OF             
MTR04744000001000000000000000RA              19461324    005801250000012500000520000003NN  NNW 000                       N    
RDG04744000WATRL000000004K00000000000002451009308052015104335N000000000000U40       001330400K 10000000010000002434           
CUS0474400000104131072003         DOYLE NORMA L       932 LITCHFIELD RD                       000N        CARE OF             
MTR04744000001000000000000000RA              54350522    005801260000012600000520000003NN  NNW 000                       N    
RDG04744000WATRL000000004K00000000000001439009408052015104403N000000000000U40       000280400K 10000000010000001420           
CUS0474400000104131073001         JAMES HUNT          930 LITCHFIELD RD                       000N        CARE OF             
MTR04744000001000000000000000RA              32902597    005801270000012700000520000003NN  NNW 000                       N    
RDG04744000WATRL000000004K00000000000002202009508052015104435N000000000000U40       000320400K 10000000010000002177           
CUS0474400000104131074009         PLATEK JOSEPH M     928 LITCHFIELD RD                       000N        CARE OF             
MTR04744000001000000000000000RA              32902593    005801280000012800000520000003NN  NNW 000                       N    
RDG04744000WATRL000000004K00000000000004228009608052015104513N000000000000U40       000380400K 10000000010000004195           
CUS0474400000104131075006         CLIFFORD B HOFFMAN  926 LITCHFIELD RD                       000N        CARE OF             
MTR04744000001000000000000000RA              26001500    005801290000012900000520000003NY  NNW 000                       N    
MTM0474400026001500    CANT SEE READ                                                                                          
RDG04744000WATRL000000004K00000000000003841014008062015100523N000300000010U40       003200400K 10000000010000003821           
CUS0474400000104131076004         SORIANO TONY        924 LITCHFIELD RD                       000N        CARE OF             
MTR04744000001000000000000000RA              46876441    005801300000013000000520000003NN  NNW 000                       N    
RDG04744000WATRL000000004K00000000000000457009708052015104637N000000000000U40       000840400K 10000000010000000440           
CUS0474400000104131077002         HEMING SHAWN J      922 LITCHFIELD RD                       000N        CARE OF             
MTR04744000001000000000000000RA              26011779    005801310000013100000520000003NN  NNW 000                       N    
RDG04744000WATRL000000004K00000000000003952009808052015104703N000000000000U40       000260400K 10000000010000003837           
CUS0474400000104131078000         DERALD W DUDLEY     920 LITCHFIELD RD                       000N        CARE OF             
MTR04744000001000000000000000RA              35108797    005801320000013200000520000003NN  NNW 000                       N    
RDG04744000WATRL000000004K00000000000003074009908052015104732N000000000000U40       000290400K 10000000010000003047           
CUS0474400000104131079008         TANTON LINDA M      918 LITCHFIELD RD                       000N        CARE OF             
MTR04744000001000000000000000RA              99388517    005801330000013300000570000003NN  NNW 000                       N    
RDG04744000WATRL000000004K00000000000000789010008052015104759N000000000000U40       000270400K 10000000010000000777           
CUS0474400000104131080006         WEAVER PATRICIA A   916 LITCHFIELD RD                       000N        CARE OF             
MTR04744000001000000000000000RA              99388516    005801340000013400000570000003NN  NNW 000                       N    
RDG04744000WATRL000000004K00000000000002187010108052015104849N000000000000U40       000500400K 10000000010000002160           
CUS0474400000104131081004         BECK CHRISTOPHER    910 LITCHFIELD RD                       000N        CARE OF             
MTR04744000001000000000000000RA              00127055    005801350000013500000570000003NN  NNW 000                       N    
RDG04744000WATRL000000004K00000000000001241010208052015104935N000000000000U40       000460400K 10000000010000001232           
CUS0474400000104439352008         OSTER BRIAN A       908 LITCHFIELD RD                       000N        CARE OF             
MTR04744000001000000000000000RA              99999999    005801360000013600000310000003NN  NNW 000                       N    
RDG04744000WATRL000000004K00000000000001149010308052015105011N000000000000U40       000360400K 10000000010000001132           
CUS0474400000104131082002         906 LITCHFIELD ROAD 906 LITCHFIELD RD                       000N        CARE OF             
MTR04744000001000000000000000RA              27133278    005801370000013700000520000003NN  NNW 000                       N    
RDG04744000WATRL000000004K00000000000006382010408052015105057N000000000000U40       000460400K 10000000010000006325           
CUS0474400000104131083000         PITTMAN ERNEST D B  904 LITCHFIELD RD                       000N        CARE OF             
MTR04744000001000000000000000RA              25780981    005801380000013800000520000003NN  NNW 000                       N    
RDG04744000WATRL000000004K00000000000003066010508052015105142N000000000000U40       000450400K 10000000010000003048           
CUS0474400000104131124002         ERIKA D GALTENS     806 LITCHFIELD RD                       000N        CARE OF             
MTR04744000001000000000000000RA              24220538    005801390000013900000520000003NN  NNW 000                       N    
RDG04744000WATRL000000004K00000000000005366013808062015095818N000000000000U40       001000400K 10000000010000005357           
CUS0474400000104131107007         NEVIN JOHN SCOTT    6701 MAXALEA RD                         000N        CARE OF             
MTR04744000001000000000000000RA              40320831    005801400000014000000520000003NN  NNW 000                       N    
RDG04744000WATRL000000004K00000000000001761013708062015095638N000000000000U40       000230400K 10000000010000001744           
CUS0474400000104131108005         RACICOT PAUL JOHN   6703 MAXALEA RD                         000N        CARE OF             
MTR04744000001000000000000000RA              38886329    005801410000014100000520000003NN  NNW 000                       N    
RDG04744000WATRL000000004K00000000000003029013608062015095615N000000000000U40       000920400K 10000000010000003014           
CUS0474400000104131110001         FREEMAN RONALD RICHA803 OAK HILL CT                         000N        CARE OF             
MTR04744000001000000000000000RA              01102874    005801420000014200000610000003NN  NNW 000                       N    
RDG04744000WATRL000000004K00000000000001477013408062015095235N000000000000U40       000370400K 10000000010000001459           
CUS0474400000104131111009         LEIBOVICI WILLIAM   802 OAK HILL CT                         000N        CARE OF             
MTR04744000001000000000000000RA              41081987    005801430000014300000520000003NN  NNW 000                       N    
RDG04744000WATRL000000004K00000000000002543013308062015095158N000000000000U40       000670400K 10000000010000002515           
CUS0474400000104131112007         SEIPP DEREK T       800 OAK HILL CT                         000N        CARE OF             
MTR04744000001000000000000000RA              41590426    005801440000014400000520000003NN  NNW 000                       N    
RDG04744000WATRL000000004K00000000000004188013208062015095051N000000000000U40       000700400K 10000000010000004141           
CUS0474400000104131109003         BRADY GEORGIA S     6705 MAXALEA RD                         000N        CARE OF             
MTR04744000001000000000000000RA              39289668    005801450000014500000520000003NN  NNW 000                       N    
RDG04744000WATRL000000004K00000000000002356013508062015095443N000000000000U40       001280400K 10000000010000002336           
CUS0474400000104131089007         MAXALEA REALTY LLC  SS OAK HILL RD 380 FT                   000N        CARE OF             
MTR04744000001000000000000000RA              00127125    005801460000014600000570000003NN  NNW 000                       N    
RDG04744000WATRL000000004K00000000000002096000808102015093125N000300000010U40       005450400K 10000000010000002052           
CUS0474400000104131090005         MAXALEA REALTY LLC  900 OAK HILL RD                         000N        CARE OF             
MTR04744000001000000000000000RA              40248172    007501470000014700000520000003NN  NNW 000                       N    
RDG04744000WATRL000000004K00000000000004496000908102015093244N000300000010U40       000790400K 10000000010000003883           
CUS0474400000104131091003         5M LLC              902 OAK HILL RD                         000N        CARE OF             
MTR04744000001000000000000000RA              36688524    005801480000014800000520000003NN  NNW 000                       N    
RDG04744000WATRL000000004K00000000000002279001008102015093354N000000000000U40       000700400K 10000000010000002272           
CUS0474400000104131096002         TUPPER LAWRENCE E   6712 MAXALEA RD                         000N        CARE OF             
MTR04744000001000000000000000RA              00126872    005801490000014900000570000003NN  NNW 000                       N    
RDG04744000WATRL000000004K00000000000001379013108062015094941N000000000000U40       000270400K 10000000010000001360           
CUS0474400000104131097000         REED PATRICK        6710 MAXALEA RD                         000N        CARE OF             
MTR04744000001000000000000000RA              99288423    005801500000015000000570000003NN  NNW 000                       N    
RDG04744000WATRL000000004K00000000000001686013008062015094914N000000000000U40       000580400K 10000000010000001661           
CUS0474400000104131098008         KIMBERLY R. HAUSERMA6708 MAXALEA RD                         000N        CARE OF             
MTR04744000001000000000000000RA              75617652    005801510000015100000350000003NN  NNW 000                       N    
RDG04744000WATRL000000004K00000000000000195012908062015094816N000000000000U40       000660400K 10000000010000000152           
CUS0474400000104131099006         DEGUET ANTON        804 MAXALEA CT                          000N        CARE OF             
MTR04744000001000000000000000RA              20968181    005801520000015200000520000003NN  NNW 000                       N    
RDG04744000WATRL000000004K00000000000005499012808062015094710N000000000000U40       000420400K 10000000010000005492           
CUS0474400000104131100002         FREAS DREW          802 MAXALEA CT                          000N        CARE OF             
MTR04744000001000000000000000RA              00126877    005801530000015300000570000003NN  NNW 000                       N    
RDG04744000WATRL000000004K00000000000001357012708062015094628N000000000000U40       000300400K 10000000010000001340           
CUS0474400000104131101000         ARRINGTON ROBERT C  800 MAXALEA CT                          000N        CARE OF             
MTR04744000001000000000000000RA              30521963    005801540000015400000520000003NN  NNW 000                       N    
RDG04744000WATRL000000004K00000000000003818012608062015094558N000000000000U40       000270400K 10000000010000003807           
CUS0474400000104131102008         OMARA MICHAEL P     801 MAXALEA CT                          000N        CARE OF             
MTR04744000001000000000000000RA              00126875    005801550000015500000570000003NN  NNW 000                       N    
RDG04744000WATRL000000004K00000000000001309012508062015094531N000000000000U40       000430400K 10000000010000001289           
CUS0474400000104131103006         SELLS CHARLES E     6706 MAXALEA RD                         000N        CARE OF             
MTR04744000001000000000000000RA              50787806    005801560000015600000520000003NN  NNW 000                       N    
RDG04744000WATRL000000004K00000000000001997012408062015094448N000000000001U40       000940400K 10000000010000001983           
CUS0474400000104131104004         EHRHARDT CARL F     6704 MAXALEA RD                         000N        CARE OF             
MTR04744000001000000000000000RA              00126879    005801570000015700000570000003NN  NNW 000                       N    
RDG04744000WATRL000000004K00000000000000980012308062015094314N000000000000U40       000560400K 10000000010000000972           
CUS0474400000104131105001         VELOSO MARY B       6702 MAXALEA RD                         000N        CARE OF             
MTR04744000001000000000000000RA              48592009    005801580000015800000520000003NN  NNW 000                       N    
RDG04744000WATRL000000004K00000000000001770012208062015094218N000000000000U40       000450400K 10000000010000001745           
CUS0474400000104131106009         SNYDER MICHAEL C    6700 MAXALEA RD                         000N        CARE OF             
MTR04744000001000000000000000RA              00126873    005801590000015900000570000003NN  NNW 000                       N    
RDG04744000WATRL000000004K00000000000000948012108062015094133N000000000000U40       000660400K 10000000010000000935           
CUS0474400000104131125009         WHITE ELLIOTT NEAL  803 LITCHFIELD RD                       000N        CARE OF             
MTR04744000001000000000000000RA              26001247    005801600000016000000520000003NN  NNW 000                       N    
RDG04744000WATRL000000004K00000000000004065012008062015094027N000000000000U40       000410400K 10000000010000004019           
CUS0474400000104131126007         EBAUGH ANA          805 LITCHFIELD RD                       000N        CARE OF             
MTR04744000001000000000000000RA              10022232    005801610000016100000570000003NN  NNW 000                       N    
RDG04744000WATRL000000004K00000000000000229011908062015093946N000000000000U40       000490400K 10000000010000000210           
CUS0474400000104131127005         WHITE LEA KIRSTEN   807 LITCHFIELD RD                       000N        CARE OF             
MTR04744000001000000000000000RA              35116513    005801620000016200000520000003NN  NNW 000                       N    
RDG04744000WATRL000000004K00000000000002114011808062015093857N000000000000U40       001080400K 10000000010000002090           
CUS0474400000104435903002         MAZZULLI CHRISTOPHER811 LITCHFIELD RD                       000N        CARE OF             
MTR04744000001000000000000000RA              01116040    005801630000016300000610000003NN  NNW 000                       N    
RDG04744000WATRL000000004K00000000000000866011708062015093709N000000000000U40       004940400K 10000000010000000827           
CUS0474400000104131018006         CUMOR EDGAR G,JR    901 LITCHFIELD RD                       000N        CARE OF             
MTR04744000001000000000000000RA              39289411    005801640000016400000520000003NN  NNW 000                       N    
RDG04744000WATRL000000004K00000000000002407013408052015123546N000000000000U40       000200400K 10000000010000002393           
CUS0474400000104131019004         ERIC P. SCHELL      903 LITCHFIELD RD                       000N        CARE OF             
MTR04744000001000000000000000RA              45384267    005801650000016500000520000003NN  NNW 000                       N    
RDG04744000WATRL000000004K00000000000002039013308052015123526N000000000000U40       000340400K 10000000010000002016           
CUS0474400000104131020002         DOLAN J BRIAN       905 LITCHFIELD RD                       000N        CARE OF             
MTR04744000001000000000000000RA              99290047    005801660000016600000570000003NN  NNW 000                       N    
RDG04744000WATRL000000004K00000000000001258013208052015123452N000000000000U40       000370400K 10000000010000001237           
CUS0474400000104131021000         DENISON RICHARD C,JR907 LITCHFIELD RD                       000N        CARE OF             
MTR04744000001000000000000000RA              40779920    005801670000016700000520000003NN  NNW 000                       N    
RDG04744000WATRL000000004K00000000000002775013108052015123415N000400000010U40       000800400K 10000000010000002762           
CUS0474400000104131022008         HARRELL ROBERT M,JR 909 LITCHFIELD RD                       000N        CARE OF             
MTR04744000001000000000000000RA              27133019    005801680000016800000520000003NN  NNW 000                       N    
RDG04744000WATRL000000004K00000000000004306013008052015123255N000000000000U40       000970400K 10000000010000004287           
CUS0474400000104131023006         MARSHALL MICHAEL G  911 LITCHFIELD RD                       000N        CARE OF             
MTR04744000001000000000000000RA              00126948    005801690000016900000570000003NN  NNW 000                       N    
RDG04744000WATRL000000004K00000000000002169012908052015123118N000000000000U40       000480400K 10000000010000002134           
CUS0474400000104131024004         VOGEL JANE E        913 LITCHFIELD RD                       000N        CARE OF             
MTR04744000001000000000000000RA              54350569    005801700000017000000520000003NN  NNW 000                       N    
RDG04744000WATRL000000004K00000000000001383012808052015123030N000000000010U40       000540400K 10000000010000001382           
CUS0474400000104131025001         LATTANZI E THOMAS   915 LITCHFIELD RD                       000N        CARE OF             
MTR04744000001000000000000000RA              31586203    005801710000017100000520000003NN  NNW 000                       N    
RDG04744000WATRL000000004K00000000000004062012708052015122936N000000000000U40       000540400K 10000000010000004040           
CUS0474400000104131026009         STURGILL BRIAN D    917 LITCHFIELD RD                       000N        CARE OF             
MTR04744000001000000000000000RA              01094546    005801720000017200000610000003NN  NNW 000                       N    
RDG04744000WATRL000000004K00000000000001707012608052015122842N000000000000U40       000450400K 10000000010000001672           
CUS0474400000104131027007         KYLE OSENBURG       921 LITCHFIELD RD                       000N        CARE OF             
MTR04744000001000000000000000RA              45384268    005801730000017300000520000003NN  NNW 000                       N    
RDG04744000WATRL000000004K00000000000001273012508052015122757N000400000010U40       000660400K 10000000010000001272           
CUS0474400000104131028005         MARCONI TERESA A    923 LITCHFIELD RD                       000N        CARE OF             
MTR04744000001000000000000000RA              24765983    005801740000017400000520000003NN  NNW 000                       N    
RDG04744000WATRL000000004K00000000000002632012408052015122651N000000000000U40       000680400K 10000000010000002605           
CUS0474400000104131029003         FERRENS JAMES       925 LITCHFIELD RD                       000N        CARE OF             
MTR04744000001000000000000000RA              40049891    005801750000017500000520000003NN  NNW 000                       N    
RDG04744000WATRL000000004K00000000000001673012308052015122543N000000000000U40       000240400K 10000000010000001649           
CUS0474400000104131030001         QUEITZSCH JONATHAN T927 LITCHFIELD RD                       000N        CARE OF             
MTR04744000001000000000000000RA              45384180    005801760000017600000520000003NN  NNW 000                       N    
RDG04744000WATRL000000004K00000000000000885012208052015122519N000000000000U40       000430400K 10000000010000000866           
CUS0474400000104131031009         TODD STUDENY        929 LITCHFIELD RD                       000N        CARE OF             
MTR04744000001000000000000000RA              40049886    005801770000017700000520000003NN  NNW 000                       N    
RDG04744000WATRL000000004K00000000000001477012108052015122436N000000000000U40       000200400K 10000000010000001462           
CUS0474400000104131032007         FORDHAM ROBERT M    931 LITCHFIELD RD                       000N        CARE OF             
MTR04744000001000000000000000RA              14916831    005801780000017800000310000003NN  NNW 000                       N    
RDG04744000WATRL000000004K00000000000000578012008052015122416N000000000000U40       000550400K 10000000010000000559           
CUS0474400000104131033005         POLLARD COOPER R    935 LITCHFIELD RD                       000N        CARE OF             
MTR04744000001000000000000000RA              27133279    005801790000017900000520000003NN  NNW 000                       N    
RDG04744000WATRL000000004K00000000000003418011908052015122321N000000000000U40       000940400K 10000000010000003401           
CUS0474400000104131034003         ROBERTS GEORGE A    1001 LITCHFIELD RD                      000N        CARE OF             
MTR04744000001000000000000000RA              32770366    005801800000018000000520000003NN  NNW 000                       N    
RDG04744000WATRL000000004K00000000000003114011808052015122147N000000000000U40       000510400K 10000000010000003091           
CUS0474400000104131035000         FLEMING WILLIAM L   1005 LITCHFIELD RD                      000N        CARE OF             
MTR04744000001000000000000000RA              46876475    005801810000018100000520000003NN  NNW 000                       N    
RDG04744000WATRL000000004K00000000000001942011708052015122056N000000000000U40       000480400K 10000000010000001929           
CUS0474400000104131036008         LEHMAN ANTHONY F    1013 LITCHFIELD RD                      000N        CARE OF             
MTR04744000001000000000000000RA              01101580    005801820000018200000610000003NN  NNW 000                       N    
RDG04744000WATRL000000004K00000000000000969011608052015122008N000300000010U40       000590400K 10000000010000000995           
CUS0474400000104131037006         WEDEKIND MARK V     1015 LITCHFIELD RD                      000N        CARE OF             
MTR04744000001000000000000000RA              32176182    005801830000018300000520000003NN  NNW 000                       N    
RDG04744000WATRL000000004K00000000000003167011508052015121909N000000000000U40       000930400K 10000000010000003143           
CUS0474400000104131038004         HORWITZ LARRY S     1017 LITCHFIELD RD                      000N        CARE OF             
MTR04744000001000000000000000RA              44086339    005801840000018400000520000003NN  NNW 000                       N    
RDG04744000WATRL000000004K00000000000005491011408052015121736N000300000010U40       000550400K 10000000010000005356           
CUS0474400000104131039002         SWING FORTUNATO P,JR1019 LITCHFIELD RD                      000N        CARE OF             
MTR04744000001000000000000000RA              44086252    005801850000018500000520000003NN  NNW 000                       N    
RDG04744000WATRL000000004K00000000000002426011308052015121641N000000000000U40       003560400K 10000000010000002405           
CUS0474400000104131042006         ROBINSON BRUCE      1101 LITCHFIELD RD                      000N        CARE OF             
MTR04744000001000000000000000RA              10006369    005801860000018600000570000003NN  NNW 000                       N    
RDG04744000WATRL000000004K00000000000000655010708052015120737N000000000000U40       003450400K 10000000010000000615           
CUS0474400000104131043004         KATE OKIKIOLU       1103 LITCHFIELD RD                      000N        CARE OF             
MTR04744000001000000000000000RA              38985477    005801870000018700000520000003NN  NNW 000                       N    
RDG04744000WATRL000000004K00000000000001835010808052015120806N000000000000U40       000290400K 10000000010000001835           
CUS0474400000104131044002         SUTER ELTON P       1103-1/2 LITCHFIELD RD                  000N        CARE OF             
MTR04744000001000000000000000RA              36697681    005801880000018800000520000003NN  NNW 000                       N    
RDG04744000WATRL000000004K00000000000003808010908052015120859N000000000000U40       000530400K 10000000010000003795           
CUS0474400000104131045009         CUMOR WILLIAM H     1105 LITCHFIELD RD                      000N        CARE OF             
MTR04744000001000000000000000RA              9686054     005801890000018900000570000003NN  NNW 000                       N    
RDG04744000WATRL000000004K00000000000006004011008052015120929N000000000000U40       000300400K 10000000010000005991           
CUS0474400000104131046007         EBAUGH WILLIAM C,JR 1105-1/2 LITCHFIELD RD                  000N        CARE OF             
MTR04744000001000000000000000RA              40321356    005801900000019000000520000003NN  NNW 000                       N    
RDG04744000WATRL000000004K00000000000001630011108052015121017N000000000000U40       000480400K 10000000010000001620           
CUS0474400000104131047005         HAUF LAWRENCE B     1107 LITCHFIELD RD                      000N        CARE OF             
MTR04744000001000000000000000RA              99290110    005801910000019100000570000003NN  NNW 000                       N    
RDG04744000WATRL000000004K00000000000001764011208052015121045N000000000000U40       000280400K 10000000010000001722           
CUS0474400000104130890009         BARR BRIAN KEVIN    1117 REGESTER AVE                       000N        CARE OF             
MTR04744000001000000000000000RA              27812997    005801920000019200000520000003NN  NNW 000                       N    
RDG04744000WATRL000000004K00000000000003215015707232015092251N000000000000N40       000620400K 10000000010000003174           
CUS0474400000104130891007         ALEXANDER HARVEY G,31113 REGESTER AVE                       000N        CARE OF             
MTR04744000001000000000000000RA              01094544    005801930000019300000610000003NN  NNW 000                       N    
RDG04744000WATRL000000004K00000000000000327015607232015092149N000000000000N40       000730400K 10000000010000000311           
CUS0474400000104130899000         RAVER BENSON F,JR   1111 REGESTER AVE                       000N        CARE OF             
MTR04744000001000000000000000RA              77879478    005801940000019400000360000003NN  NNW 000                       N    
RDG04744000WATRL000000004K00000000000000015015507232015092036N000000000010N40       000540400K 10000000010000000000           
CUS0474400000104130900006         SCHNEIDERMAN HENRY I1109 REGESTER AVE                       000N        CARE OF             
MTR04744000001000000000000000RA              27814187    005801950000019500000520000003NN  NNW 000                       N    
RDG04744000WATRL000000004K00000000000002860015407232015091942N000000000000N40       000620400K 10000000010000002845           
CUS0474400000104130901004         FREEMAN CARROLL L,3R1107 REGESTER AVE                       000N        CARE OF             
MTR04744000001000000000000000RA              00126943    005801960000019600000570000003NY  NNW 000                       N    
MTM0474400000126943    DONT SEE                                                                                               
RDG04744000WATRL000000004K00000000000001143001208102015094501N000000000000U40       002210400K 10000000010000001138           
CUS0474400000104130902002         NOSSEL MARY         1105 REGESTER AVE                       000N        CARE OF             
MTR04744000001000000000000000RA              23052315    005801970000019700000520000003NN  NNW 000                       N    
RDG04744000WATRL000000004K00000000000001548015307232015091840N000000000000N40       001070400K 10000000010000001538           
CUS0474400000104130929005         CIRINCIONE ROSE     1023 REGESTER AVE                       000N        CARE OF             
MTR04744000001000000000000000RA              99290721    005801980000019800000570000003NN  NNW 000                       N    
RDG04744000WATRL000000004K00000000000001371015207232015091653N000000000000N40       001010400K 10000000010000001357           
CUS0474400000104130930003         SOLOWAY WILLIAM S   1021 REGESTER AVE                       000N        CARE OF             
MTR04744000001000000000000000RA              23052362    005801990000019900000520000003NN  NNW 000                       N    
RDG04744000WATRL000000004K00000000000003019015107232015091512N000000000000N40       000430400K 10000000010000003008           
CUS0474400000104130931001         FULTON WILLIAM B    1019 REGESTER AVE                       000N        CARE OF             
MTR04744000001000000000000000RA              23052311    005802000000020000000520000003NN  NNW 000                       N    
RDG04744000WATRL000000004K00000000000003313015007232015091429N000000000000N40       000310400K 10000000010000003298           
CUS0474400000104130932009         GABRIEL JOHN KELLY  1017 REGESTER AVE                       000N        CARE OF             
MTR04744000001000000000000000RA              23052316    005802010000020100000520000003NN  NNW 000                       N    
RDG04744000WATRL000000004K00000000000003648014907232015091358N000000000000N40       000590400K 10000000010000003633           
CUS0474400000104130950001         HAUGER WERNER       1013 REGESTER AVE                       000N        CARE OF             
MTR04744000001000000000000000RA              25782548    005802020000020200000520000003NN  NNW 000                       N    
RDG04744000WATRL000000004K00000000000003590014807232015091259N000000000000N40       000340400K 10000000010000003571           
CUS0474400000104130951009         HAUGER WERNER       1011 REGESTER AVE                       000N        CARE OF             
MTR04744000001000000000000000RA              01081878    005802030000020300000610000003NN  NNW 000                       N    
RDG04744000WATRL000000004K00000000000000321014707232015091225N000400000010N40       000400400K 10000000010000000319           
CUS0474400000104130952007         WITTER FRANK ROBERT 1009 REGESTER AVE                       000N        CARE OF             
MTR04744000001000000000000000RA              45387636    005802040000020400000520000003NN  NNW 000                       N    
RDG04744000WATRL000000004K00000000000001399014607232015091145N000000000000N40       000280400K 10000000010000001385           
CUS0474400000104130953005         ALONSO CHRISTOPHER T1007 REGESTER AVE                       000N        CARE OF             
MTR04744000001000000000000000RA              01109907    005802050000020500000610000003NN  NNW 000                       N    
RDG04744000WATRL000000004K00000000000000742014507232015091117N000000000000N40       000570400K 10000000010000000722           
CUS0474400000104130954003         DAVIS RICK K        1005 REGESTER AVE                       000N        CARE OF             
MTR04744000001000000000000000RA              41081620    005802060000020600000520000003NN  NNW 000                       N    
RDG04744000WATRL000000004K00000000000001774014407232015091020N000000000000N40       002200400K 10000000010000001744           
CUS0474400000104130971007         BELL SAMUEL T,2ND   1003 REGESTER AVE                       000N        CARE OF             
MTR04744000001000000000000000RA              23052363    005802070000020700000520000003NN  NNW 000                       N    
RDG04744000WATRL000000004K00000000000002522001108102015094120N000000000000U40       004460400K 10000000010000002497           
CUS0474400000104130999008         OLDHAM LAURA E      921 REGESTER AVE                        000N        CARE OF             
MTR04744000001000000000000000RA              23052368    005802080000020800000520000003NN  NNW 000                       N    
RDG04744000WATRL000000004K00000000000002430014307232015090640N000000000000N40       000990400K 10000000010000002411           
CUS0474400000104131000004         WHITTLE KIMBERLY D  919 REGESTER AVE                        000N        CARE OF             
MTR04744000001000000000000000RA              32903516    005802090000020900000520000003NN  NNW 000                       N    
RDG04744000WATRL000000004K00000000000002390014207232015090501N000000000000N40       000400400K 10000000010000002373           
CUS0474400000104131001002         BENSON PAUL R       917 REGESTER AVE                        000N        CARE OF             
MTR04744000001000000000000000RA              35103729    005802100000021000000520000003NN  NNW 000                       N    
RDG04744000WATRL000000004K00000000000003484014107232015090421N000000000000N40       001150400K 10000000010000003465           
CUS0474400000104131002000         STOCKSDALE BETSY L  915 REGESTER AVE                        000N        CARE OF             
MTR04744000001000000000000000RA              38984738    005802110000021100000520000003NN  NNW 000                       N    
RDG04744000WATRL000000004K00000000000002526014007232015090226N000000000000N40       000350400K 10000000010000002520           
CUS0474400000104131003008         SCHUH MICHAEL C     913 REGESTER AVE                        000N        CARE OF             
MTR04744000001000000000000000RA              23052367    005802120000021200000520000003NN  NNW 000                       N    
RDG04744000WATRL000000004K00000000000002920013907232015090151N000000000000N40       000470400K 10000000010000002911           
CUS0474400000104131004006         FAULKNER MARY BAKER 911 REGESTER AVE                        000N        CARE OF             
MTR04744000001000000000000000RA              01081870    005802130000021300000610000003NN  NNW 000                       N    
RDG04744000WATRL000000004K00000000000001121013807232015090104N000400000010N40       000490400K 10000000010000001118           
CUS0474400000104131005003         JONES LLEWELLYN E,3R909 REGESTER AVE                        000N        CARE OF             
MTR04744000001000000000000000RA              23052365    005802140000021400000520000003NN  NNW 000                       N    
RDG04744000WATRL000000004K00000000000004156013707232015090015N000000000000N40       000380400K 10000000010000004148           
CUS0474400000104131006001         COWMAN RACHEL F     905 REGESTER AVE                        000N        CARE OF             
MTR04744000001000000000000000RA              25783340    005802150000021500000520000003NN  NNW 000                       N    
RDG04744000WATRL000000004K00000000000001140013607232015085937N000000000000N40       001330400K 10000000010000001129           
CUS0474400000104131016000         GREGORY JAMES W     6603 SHERWOOD RD                        000N        CARE OF             
MTR04744000001000000000000000RA              35115041    005802160000021600000520000003NN  NNW 000                       N    
RDG04744000WATRL000000004K00000000000003863003708062015071311N000000000000U40       000260400K 10000000010000003819           
CUS0474400000104131017008         BOMSTER MARK        6605 SHERWOOD RD                        000N        CARE OF             
MTR04744000001000000000000000RA              29084265    005802170000021700000520000003NN  NNW 000                       N    
RDG04744000WATRL000000004K00000000000003692003608062015071245N000000000000U40       000860400K 10000000010000003672           
CUS0474400000104131084008         CECIL CAROLYN E     6609 SHERWOOD RD                        000N        CARE OF             
MTR04744000001000000000000000RA              74689476    005802180000021800000350000003NN  NNW 000                       N    
RDG04744000WATRL000000004K00000000000000144003508062015071119N000000000000U40       000630400K 10000000010000000129           
CUS0474400000104131085005         MARANI LYNN LLOYD   6703 SHERWOOD RD                        000N        CARE OF             
MTR04744000001000000000000000RA              35110398    005802190000021900000520000003NN  NNW 000                       N    
RDG04744000WATRL000000004K00000000000003178003408062015071016N000000000000U40       000850400K 10000000010000003158           
CUS0474400000104131086003         MILLARD PATRICK J   6705 SHERWOOD RD                        000N        CARE OF             
MTR04744000001000000000000000RA              01102008    005802200000022000000610000003NN  NNW 000                       N    
RDG04744000WATRL000000004K00000000000001586003308062015070851N000000000010U40       001170400K 10000000010000001551           
CUS0474400000104131087001         MAXALEA REALTY LLC  6707 SHERWOOD RD                        000N        CARE OF             
MTR04744000001000000000000000RA              76348144    005802210000022100000350000003NN  NNW 000                       N    
RDG04744000WATRL000000004K00000000000000104003208062015070654N000000000000U40       002160400K 10000000010000000090           
CUS0474400000104131092001         VON PARIS SHARON L  6902 SHERWOOD RD                        000N        CARE OF             
MTR04744000001000000000000000RA              45382297    005802220000022200000520000003NN  NNW 000                       N    
RDG04744000WATRL000000004K00000000000002976003108062015070318N000300000010U40       000390400K 10000000010000002949           
CUS0474400000104131093009         BENJAMIN GOULD      6900 SHERWOOD RD                        000N        CARE OF             
MTR04744000001000000000000000RA              01101873    005802230000022300000610000003NN  NNW 000                       N    
RDG04744000WATRL000000004K00000000000001099003008062015070239N000000000000U40       000430400K 10000000010000001072           
CUS0474400000104131094007         DOMBROWSKI EUGENE F 6802 SHERWOOD RD                        000N        CARE OF             
MTR04744000001000000000000000RA              14902656    005802240000022400000310000003NN  NNW 000                       N    
RDG04744000WATRL000000004K00000000000001512002908062015070156N000000000020U40       000270400K 10000000010000001503           
CUS0474400000104131095004         FINN PATRICK M      6800 SHERWOOD RD                        000N        CARE OF             
MTR04744000001000000000000000RA              26004445    005802250000022500000520000003NN  NNW 000                       N    
RDG04744000WATRL000000004K00000000000003822002808062015070129N000000000000U40       000850400K 10000000010000003795           
CUS0474400000104131113005         DEREK GLAASER       6722 SHERWOOD RD                        000N        CARE OF             
MTR04744000001000000000000000RA              00126876    005802260000022600000570000003NN  NNW 000                       N    
RDG04744000WATRL000000004K00000000000001001002708062015070004N000000000000U40       000370400K 10000000010000000983           
CUS0474400000104131114003         JAMES W HOUCK, III  6720 SHERWOOD RD                        000N        CARE OF             
MTR04744000001000000000000000RA              38984452    005802270000022700000520000003NN  NNW 000                       N    
RDG04744000WATRL000000004K00000000000003582002608062015065927N000100000010U40       000430400K 10000000010000003582           
CUS0474400000104131115000         HOUCK JAMES W,3RD   6718 SHERWOOD RD                        000N        CARE OF             
MTR04744000001000000000000000RA              29403250    005802280000022800000520000003NN  NNW 000                       N    
RDG04744000WATRL000000004K00000000000003894002508062015065844N000000000001U40       000440400K 10000000010000003887           
CUS0474400000104131116008         MICHEL PATRICIA H   6716 SHERWOOD RD                        000N        CARE OF             
MTR04744000001000000000000000RA              50786969    005802290000022900000520000003NN  NNW 000                       N    
RDG04744000WATRL000000004K00000000000001823002408062015065800N000100000010U40       000420400K 10000000010000001823           
CUS0474400000104131117006         QUINN BRENTON       6714 SHERWOOD RD                        000N        CARE OF             
MTR04744000001000000000000000RA              00127126    005802300000023000000570000003NN  NNW 000                       N    
RDG04744000WATRL000000004K00000000000001165002308062015065718N000000000000U40       000420400K 10000000010000001140           
CUS0474400000104131118004         KOLOBIELSKI JOAN B  6710 SHERWOOD RD                        000N        CARE OF             
MTR04744000001000000000000000RA              29681950    007502310000023100000520000003NN  NNW 000                       N    
RDG04744000WATRL000000004K00000000000003944002208062015065636N000000000000U40       000970400K 10000000010000003925           
CUS0474400000104131119002         HINDERER DUANE      6708 SHERWOOD RD                        000N        CARE OF             
MTR04744000001000000000000000RA              24762064    005802320000023200000570000003NN  NNW 000                       N    
RDG04744000WATRL000000004K00000000000002726002108062015065459N000000000000U40       000330400K 10000000010000002703           
CUS0474400000104131120000         FISHBEIN JACOB A    6706 SHERWOOD RD                        000N        CARE OF             
MTR04744000001000000000000000RA              29082659    005802330000023300000520000003NN  NNW 000                       N    
RDG04744000WATRL000000004K00000000000003348002008062015065426N000000000000U40       000330400K 10000000010000003335           
CUS0474400000104131121008         BURGER FREDERICK G  6704 SHERWOOD RD                        000N        CARE OF             
MTR04744000001000000000000000RA              35116273    005802340000023400000520000003NN  NNW 000                       N    
RDG04744000WATRL000000004K00000000000003715001908062015065353N000000000000U40       000390400K 10000000010000003690           
CUS0474400000104131122006         ADAN AYALA          6702 SHERWOOD RD                        000N        CARE OF             
MTR04744000001000000000000000RA              25780115    005802350000023500000520000003NN  NNW 000                       N    
RDG04744000WATRL000000004K00000000000004580001808062015065314N000000000000U40       000320400K 10000000010000004563           
CUS0474400000104131123004         FRINGER CRAIG A     6700 SHERWOOD RD                        000N        CARE OF             
MTR04744000001000000000000000RA              25780114    005802360000023600000520000003NN  NNW 000                       N    
RDG04744000WATRL000000004K00000000000001957001708062015065242N000000000001U40       000480400K 10000000010000001944           
CUS0474400000104131132005         KRAUSE WALTER A,JR  6606 SHERWOOD RD                        000N        CARE OF             
MTR04744000001000000000000000RA              36697713    005802370000023700000520000003NN  NNW 000                       N    
RDG04744000WATRL000000004K00000000000002667001608062015065154N000000000000U40       000640400K 10000000010000002646           
CUS0474400000104131133003         QUETSCHENBACH GARY  6604 SHERWOOD RD                        000N        CARE OF             
MTR04744000001000000000000000RA              33078933    005802380000023800000520000003NN  NNW 000                       N    
RDG04744000WATRL000000004K00000000000003208001508062015065050N000000000000U40       001040400K 10000000010000003195           
CUS0474400000104131144000         SCHMELZ STEPHEN A   6518 SHERWOOD RD                        000N        CARE OF             
MTR04744000001000000000000000RA              24769027    005802390000023900000520000003NN  NNW 000                       N    
RDG04744000WATRL000000004K00000000000005266001408062015064906N000000000000U40       001570400K 10000000010000005228           
CUS0474400000104131145007         BOLING MARK R       6516 SHERWOOD RD                        000N        CARE OF             
MTR04744000001000000000000000RA              27831109    005802400000024000000520000003NN  NNW 000                       N    
RDG04744000WATRL000000004K00000000000002183001308062015064629N000000000000U40       000380400K 10000000010000002168           
CUS0474400000104131146005         GALLATIN WAYNE N    6514 SHERWOOD RD                        000N        CARE OF             
MTR04744000001000000000000000RA              33077302    005802410000024100000520000003NN  NNW 000                       N    
RDG04744000WATRL000000004K00000000000001167001208062015064551N000000000000U40       000400400K 10000000010000001160           
CUS0474400000104131147003         GUGEL DONNA L       6428 SHERWOOD RD                        000N        CARE OF             
MTR04744000001000000000000000RA              45380423    005802420000024200000520000003NN  NNW 000                       N    
RDG04744000WATRL000000004K00000000000001959001108062015064511N000000000000U40       000300400K 10000000010000001940           
CUS0474400000104131148001         SCRUGGS BOBBY D     6426 SHERWOOD RD                        000N        CARE OF             
MTR04744000001000000000000000RA              41080551    005802430000024300000520000003NN  NNW 000                       N    
RDG04744000WATRL000000004K00000000000002166001008062015064441N000000000000U40       000320400K 10000000010000002147           
CUS0474400000104131149009         WHITEHOUSE DENNIS   6422 SHERWOOD RD                        000N        CARE OF             
MTR04744000001000000000000000RA              36691297    005802440000024400000520000003NN  NNW 000                       N    
RDG04744000WATRL000000004K00000000000005733000908062015064409N000000000000U40       000540400K 10000000010000005731           
CUS0474400000104131150007         GERSH TRACEY L      6420 SHERWOOD RD                        000N        CARE OF             
MTR04744000001000000000000000RA              14913903    005802450000024500000310000003NN  NNW 000                       N    
RDG04744000WATRL000000004K00000000000000449000808062015064315N000000000000U40       000280400K 10000000010000000436           
CUS0474400000104407191008         DAVIS DAIN E        6416 SHERWOOD RD                        000N        CARE OF             
MTR04744000001000000000000000RA              44173220    005802460000024600000520000003NN  NNW 000                       N    
RDG04744000WATRL000000004K00000000000001735000708062015064247N000000000000U40       000430400K 10000000010000001721           
CUS0474400000104131151005         KOZAK JOSEPH V      6414 SHERWOOD RD                        000N        CARE OF             
MTR04744000001000000000000000RA              24226172    005802470000024700000520000003NN  NNW 000                       N    
RDG04744000WATRL000000004K00000000000004892000608062015064204N000000000000U40       000350400K 10000000010000004864           
CUS0474400000104131152003         GOURLEY SUSAN V     6412 SHERWOOD RD                        000N        CARE OF             
MTR04744000001000000000000000RA              48592450    005802480000024800000520000003NN  NNW 000                       N    
RDG04744000WATRL000000004K00000000000001983000508062015064129N000000000000U40       000330400K 10000000010000001958           
CUS0474400000104131153001         DORFLER WARREN L    6410 SHERWOOD RD                        000N        CARE OF             
MTR04744000001000000000000000RA              9691215     005802490000024900000570000003NN  NNW 000                       N    
RDG04744000WATRL000000004K00000000000003015000408062015064056N000000000000U40       000450400K 10000000010000003000           
CUS0474400000104131154009         SHAPIRO PAUL        6408 SHERWOOD RD                        000N        CARE OF             
MTR04744000001000000000000000RA              26009919    005802500000025000000520000003NN  NNW 000                       N    
RDG04744000WATRL000000004K00000000000004306000308062015064011N000000000000U40       000500400K 10000000010000004296           
CUS0474400000104131155006         SLIKE CHARLES C     6406 SHERWOOD RD                        000N        CARE OF             
MTR04744000001000000000000000RA              11334876    005802510000025100000570000003NN  NNW 000                       N    
RDG04744000WATRL000000004K00000000000004834000208062015063921N000100000010U40       000320400K 10000000010000004834           
CUS0474400000108374304007         SHOUL ROBERT        6404 SHERWOOD RD                        000N        CARE OF             
MTR04744000001000000000000000RA              10013077    005802520000025200000570000003NN  NNW 000                       N    
RDG04744000WATRL000000004K00000000000000330000108062015063849N000000000000U40       000000400K 10000000010000000313           
CUS0474400000104131136006         BUCHANAN JENNIE C   806 FOREST RD                           000N        CARE OF             
MTR04744000001000000000000000RA              23057370    005802530000025300000520000003NN  NNW 000                       N    
RDG04744000WATRL000000004K00000000000002795001308102015095201N000400000010U40       004200400K 10000000010000002785           
CUS0474400000104131156004         BUTCHER KENNETH J   6400 SHERWOOD RD                        000N        CARE OF             
MTR04744000001000000000000000RA              29685949    005802540000025400000520000003NN  NNW 000                       N    
RDG04744000WATRL000000004K00000000000001697011608062015092855N000000000000U40       000390400K 10000000010000001691           
CUS0474400000104131342000         JOONAHN LLC         6328 SHERWOOD RD                        000N        CARE OF             
MTR04744000001000000000000000RA              50786989    005802550000025500000520000003NN  NNW 000                       N    
RDG04744000WATRL000000004K00000000000001361011508062015092816N000400000010U40       000500400K 10000000010000001348           
CUS0474400000104131341002         JOONAHN LLC         6324 SHERWOOD RD                        000N        CARE OF             
MTR04744000001000000000000000RA              30002513    007502560000025600000570000003NN  NNW 000                       N    
RDG04744000WATRL000000004K00000000000000181011408062015092726N000400000010U40       000430400K 10000000010000000167           
CUS0474400000104131340004         KAUR RAMINDER JEET  6322 SHERWOOD RD                        000N        CARE OF             
MTR04744000001000000000000000RA              10004122    005802570000025700000570000003NN  NNW 000                       N    
RDG04744000WATRL000000004K00000000000000000011308062015092643N000000000000U40       000350400K 10000000010000000000           
CUS0474400000104131339006         KAUR RAMINDER JEET  6320 SHERWOOD RD                        000N        CARE OF             
MTR04744000001000000000000000RA              41086833    005802580000025800000520000003NN  NNW 000                       N    
RDG04744000WATRL000000004K00000000000002717011208062015092608N000000000000U40       000630400K 10000000010000002666           
CUS0474400000104131338008         BRAYSCO PROPERTIES L6318 SHERWOOD RD                        000N        CARE OF             
MTR04744000001000000000000000RA              27820223    005802590000025900000520000003NN  NNW 000                       N    
RDG04744000WATRL000000004K00000000000007638011108062015092505N000000000000U40       005300400K 10000000010000007588           
CUS0474400000104131351001         MARCUS GRACIELA     801 OVERBROOK RD                        000N        CARE OF             
MTR04744000001000000000000000RA              27213009    005802600000026000000520000003NY  NNW 000                       N    
MTM0474400027213009    CLEAN OUT VAULT                                                                                        
RDG04744000WATRL000000004K00000000000000000000000000000000000 000000000000U         000000400  10000000010000004262           
