FHDNNNN037008651008651008706N                                                                                           027338
RHD04827000NN02030203000002030000000002030203000139NY020302030203000100000000000000000000000001    08052015NY020000 N         
CUS0482700000104147924007         TINE DAVID P        716 OLD HOME RD                         000N        CARE OF             
MTR04827000001000000000000000RA              01088235    005800010000000100000610000003NN  NNW 000                       N    
RDG04827000WATRL000000004K00000000000001693000108122015063035N000000000000N47       000000400K 10000000010000001681           
CUS0482700000104147925004         HARRISON RASHELLE   714 OLD HOME RD                         000N        CARE OF             
MTR04827000001000000000000000RA              11428077    005800020000000200000570000003NN  NNW 000                       N    
RDG04827000WATRL000000004K00000000000002291000208122015063118N000000000000N47       000430400K 10000000010000002276           
CUS0482700000104147926002         FITZKE ROBERT J     712 OLD HOME RD                         000N        CARE OF             
MTR04827000001000000000000000RA              50789758    005800030000000300000520000003NN  NNW 000                       N    
RDG04827000WATRL000000004K00000000000001815000308122015063124N000000000000N47       000060400K 10000000010000001806           
CUS0482700000104147927000         ASHLEY D BRIAN      710 OLD HOME RD                         000N        CARE OF             
MTR04827000001000000000000000RA              35108108    005800040000000400000520000003NN  NNW 000                       N    
RDG04827000WATRL000000004K00000000000002385000408122015063511N000000000061N47       000070400K 10000000010000002384           
CUS0482700000104147928008         KRICK JEFFREY       708 OLD HOME RD                         000N        CARE OF             
MTR04827000001000000000000000RA              01113260    005800050000000500000610000003NN  NNW 000                       N    
RDG04827000WATRL000000004K00000000000000810000508122015063526N000000000000N47       000150400K 10000000010000000797           
CUS0482700000104147929006         COSGROVE DANIEL C   706 OLD HOME RD                         000N        CARE OF             
MTR04827000001000000000000000RA              38983642    005800060000000600000520000003NN  NNW 000                       N    
RDG04827000WATRL000000004K00000000000002639000608122015064011N000400000092N47       000270400K 10000000010000002634           
CUS0482700000104147930004         FLAHERTY BRENDAN T  704 OLD HOME RD                         000N        CARE OF             
MTR04827000001000000000000000RA              23052973    005800070000000700000520000003NN  NNW 000                       N    
RDG04827000WATRL000000004K00000000000005960000708122015064017N000000000000N47       000060400K 10000000010000005949           
CUS0482700000104147931002         DEBORAH L GOGEL     702 OLD HOME RD                         000N        CARE OF             
MTR04827000001000000000000000RA              44086515    005800080000000800000520000003NN  NNW 000                       N    
RDG04827000WATRL000000004K00000000000002506000808122015064022N000000000000N47       000050400K 10000000010000002498           
CUS0482700000104147932000         STANLEY PHILIP A    700 OLD HOME RD                         000N        CARE OF             
MTR04827000001000000000000000RA              39585234    005800090000000900000520000003NN  NNW 000                       N    
RDG04827000WATRL000000004K00000000000001721000908122015064025N000000000000N47       000030400K 10000000010000001710           
CUS0482700000104147933008         LINGERMAN ELMER L   616 OLD HOME RD                         000N        CARE OF             
MTR04827000001000000000000000RA              46886572    005800100000001000000520000003NN  NNW 000                       N    
RDG04827000WATRL000000004K00000000000003516001008122015064032N000000000000N47       000070400K 10000000010000003505           
CUS0482700000104147934006         ROMESBURG RONALD    614 OLD HOME RD                         000N        CARE OF             
MTR04827000001000000000000000RA              41074061    005800110000001100000520000003NN  NNW 000                       N    
RDG04827000WATRL000000004K00000000000002131001108122015064056N000000000020N47       000240400K 10000000010000002116           
CUS0482700000104147935003         KAY JOHN J          610 OLD HOME RD                         000N        CARE OF             
MTR04827000001000000000000000RA              45387567    005800120000001200000520000003NN  NNW 000                       N    
RDG04827000WATRL000000004K00000000000001915001208122015064124N000000000000N47       000280400K 10000000010000001904           
CUS0482700000104147936001         RYAN LAWRENCE MICHAE608 OLD HOME RD                         000N        CARE OF             
MTR04827000001000000000000000RA              74689360    005800130000001300000350000003NN  NNW 000                       N    
RDG04827000WATRL000000004K00000000000000273001308122015064129N000000000000N47       000050400K 10000000010000000260           
CUS0482700000104147937009         JAMIE A.PRICHARD    606 OLD HOME RD                         000N        CARE OF             
MTR04827000001000000000000000RA              76347378    005800140000001400000350000003NN  NNW 000                       N    
RDG04827000WATRL000000004K00000000000000473001408122015064133N000000000000N47       000040400K 10000000010000000462           
CUS0482700000104147938007         JEMSKI THOMAS       604 OLD HOME RD                         000N        CARE OF             
MTR04827000001000000000000000RA              48594530    005800150000001500000520000003NN  NNW 000                       N    
RDG04827000WATRL000000004K00000000000002372001508122015064210N000000000051N47       000160400K 10000000010000002351           
CUS0482700000104147939005         BORLIE ROBERT D     602 OLD HOME RD                         000N        CARE OF             
MTR04827000001000000000000000RA              01073072    005800160000001600000610000003NN  NNW 000                       N    
RDG04827000WATRL000000004K00000000000000402001608122015064214N000000000000N47       000040400K 10000000010000000391           
CUS0482700000104147940003         CATRON CAMERON      600 OLD HOME RD                         000N        CARE OF             
MTR04827000001000000000000000RA              76349023    005800170000001700000350000003NN  NNW 000                       N    
RDG04827000WATRL000000004K00000000000000159001708122015064233N000000000030N47       000190400K 10000000010000000143           
CUS0482700000104147941001         MCCOY MICHAEL J     530 OLD HOME RD                         000N        CARE OF             
MTR04827000001000000000000000RA              35108209    005800180000001800000520000003NN  NNW 000                       N    
RDG04827000WATRL000000004K00000000000002193001808122015064237N000000000000N47       000040400K 10000000010000002181           
CUS0482700000104147942009         MIRIAM M SUMMERS    528 OLD HOME RD                         000N        CARE OF             
MTR04827000001000000000000000RA              35109103    005800190000001900000520000003NN  NNW 000                       N    
RDG04827000WATRL000000004K00000000000002389001908122015064243N000000000000N47       000060400K 10000000010000002376           
CUS0482700000104147943007         DIGGS JOYCE Q E     526 OLD HOME RD                         000N        CARE OF             
MTR04827000001000000000000000RA              35108202    005800200000002000000520000003NN  NNW 000                       N    
RDG04827000WATRL000000004K00000000000001663002008122015064247N000000000000N47       000040400K 10000000010000001652           
CUS0482700000104147944005         KELLEY JAMES R      524 OLD HOME RD                         000N        CARE OF             
MTR04827000001000000000000000RA              35108200    005800210000002100000520000003NN  NNW 000                       N    
RDG04827000WATRL000000004K00000000000002093002108122015064257N000000000000N47       000100400K 10000000010000002082           
CUS0482700000104147945002         MADDOX RANDY I      522 OLD HOME RD                         000N        CARE OF             
MTR04827000001000000000000000RA              10021129    005800220000002200000570000003NN  NNW 000                       N    
RDG04827000WATRL000000004K00000000000000128002208122015064302N000000000000N47       000050400K 10000000010000000117           
CUS0482700000104147946000         ADENIJI SAMUEL O    520 OLD HOME RD                         000N        CARE OF             
MTR04827000001000000000000000RA              10013433    005800230000002300000570000003NN  NNW 000                       N    
RDG04827000WATRL000000004K00000000000000285002308122015064311N000000000000N47       000090400K 10000000010000000272           
CUS0482700000104147947008         518 OLD HOME,LLC    518 OLD HOME RD                         000N        CARE OF             
MTR04827000001000000000000000RA              35108667    005800240000002400000520000003NN  NNW 000                       N    
RDG04827000WATRL000000004K00000000000002765002408122015064438N000000000082N47       000120400K 10000000010000002738           
CUS0482700000104147948006         SANDRA MARIE HERNDON516 OLD HOME RD                         000N        CARE OF             
MTR04827000001000000000000000RA              35108657    005800250000002500000520000003NN  NNW 000                       N    
RDG04827000WATRL000000004K00000000000004244002508122015064441N000000000000N47       000030400K 10000000010000004233           
CUS0482700000104147949004         BARNHILL MARGARET J 514 OLD HOME RD                         000N        CARE OF             
MTR04827000001000000000000000RA              23841604    005800260000002600000520000003NN  NNW 000                       N    
RDG04827000WATRL000000004K00000000000002863002608122015064449N000000000000N47       000080400K 10000000010000002854           
CUS0482700000104147950002         KATHERINE SCHAPPERT 512 OLD HOME RD                         000N        CARE OF             
MTR04827000001000000000000000RA              23841611    005800270000002700000520000003NN  NNW 000                       N    
RDG04827000WATRL000000004K00000000000003379002708122015064528N000000000040N47       000390400K 10000000010000003378           
CUS0482700000104147951000         DAVIS JEREMY L      508 OLD HOME RD                         000N        CARE OF             
MTR04827000001000000000000000RA              38984391    005800280000002800000520000003NN  NNW 000                       N    
RDG04827000WATRL000000004K00000000000001956002808122015064604N000000000051N47       000180400K 10000000010000001938           
CUS0482700000104147952008         BEALS JOSEPH A,JR   506 OLD HOME RD                         000N        CARE OF             
MTR04827000001000000000000000RA              27831011    005800290000002900000520000003NN  NNW 000                       N    
RDG04827000WATRL000000004K00000000000001923002908122015064620N000000000030N47       000160400K 10000000010000001908           
CUS0482700000104147953006         BURTON GINA M       504 OLD HOME RD                         000N        CARE OF             
MTR04827000001000000000000000RA              35108670    005800300000003000000520000003NN  NNW 000                       N    
RDG04827000WATRL000000004K00000000000001732003008122015064625N000000000000N47       000050400K 10000000010000001720           
CUS0482700000104147954004         KLOIBER GEORGE J,JR 502 OLD HOME RD                         000N        CARE OF             
MTR04827000001000000000000000RA              30513401    005800310000003100000520000003NN  NNW 000                       N    
RDG04827000WATRL000000004K00000000000004451003108122015064733N000000000092N47       000230400K 10000000010000004421           
CUS0482700000104147955001         LALLY MARY T        500 OLD HOME RD                         000N        CARE OF             
MTR04827000001000000000000000RA              35108669    005800320000003200000520000003NN  NNW 000                       N    
RDG04827000WATRL000000004K00000000000001303003208122015064754N000000000000N47       000210400K 10000000010000001292           
CUS0482700000104147956009         ROGERS KIMBERLY A   4620 RASPE AVE                          000N        CARE OF             
MTR04827000001000000000000000RA              41075967    005800330000003300000520000003NN  NNW 000                       N    
RDG04827000WATRL000000004K00000000000001626003308122015064802N000000000000N47       000080400K 10000000010000001616           
CUS0482700000104147957007         KRONSTADT JEFFREY   4618 RASPE AVE                          000N        CARE OF             
MTR04827000001000000000000000RA              41075966    005800340000003400000520000003NN  NNW 000                       N    
RDG04827000WATRL000000004K00000000000002183003408122015064806N000000000000N47       000040400K 10000000010000002176           
CUS0482700000104147958005         DEAK JULIANNE       4619 RASPE AVE                          000N        CARE OF             
MTR04827000001000000000000000RA              14929795    005800350000003500000310000003NN  NNW 000                       N    
RDG04827000WATRL000000004K00000000000000419003508122015064811N000000000000N47       000050400K 10000000010000000409           
CUS0482700000104147959003         WEYFORTH ROBERT T   4621 RASPE AVE                          000N        CARE OF             
MTR04827000001000000000000000RA              30524342    005800360000003600000520000003NN  NNW 000                       N    
RDG04827000WATRL000000004K00000000000002612003608122015064837N000000000020N47       000260400K 10000000010000002610           
CUS0482700000104147960001         BRUBACH RUSSELL I   454 OLD HOME RD                         000N        CARE OF             
MTR04827000001000000000000000RA              76346798    005800370000003700000350000003NN  NNW 000                       N    
RDG04827000WATRL000000004K00000000000000069003708122015064906N000000000030N47       000290400K 10000000010000000068           
CUS0482700000104147961009         RUTLEDGE MICHAEL STE452 OLD HOME RD                         000N        CARE OF             
MTR04827000001000000000000000RA              10022082    005800380000003800000570000003NN  NNW 000                       N    
RDG04827000WATRL000000004K00000000000000062003808122015064922N000000000012N47       000080400K 10000000010000000060           
CUS0482700000104147962007         FRITTS TIMOTHY B    450 OLD HOME RD                         000N        CARE OF             
MTR04827000001000000000000000RA              50478803    005800390000003900000520000003NN  NNW 000                       N    
RDG04827000WATRL000000004K00000000000001288003908122015064930N000000000000N47       000080400K 10000000010000001277           
CUS0482700000104147963005         WENDY H JAKLITSCH   448 OLD HOME RD                         000N        CARE OF             
MTR04827000001000000000000000RA              10022084    005800400000004000000570000003NN  NNW 000                       N    
RDG04827000WATRL000000004K00000000000000036004008122015064939N000000000010N47       000090400K 10000000010000000031           
CUS0482700000104147964003         GILLETTE LAWRENCE A 446 OLD HOME RD                         000N        CARE OF             
MTR04827000001000000000000000RA              01072904    005800410000004100000610000003NN  NNW 000                       N    
RDG04827000WATRL000000004K00000000000000469004108122015064944N000000000000N47       000050400K 10000000010000000458           
CUS0482700000104147965000         DAVIS TIMOTHY       444 OLD HOME RD                         000N        CARE OF             
MTR04827000001000000000000000RA              14926604    005800420000004200000310000003NN  NNW 000                       N    
RDG04827000WATRL000000004K00000000000000499004208122015065044N000000000092N47       000140400K 10000000010000000471           
CUS0482700000104147966008         WAGNER CHARLES E,SR 442 OLD HOME RD                         000N        CARE OF             
MTR04827000001000000000000000RA              41258489    005800430000004300000520000003NN  NNW 000                       N    
RDG04827000WATRL000000004K00000000000001558004308122015065049N000000000000N47       000050400K 10000000010000001550           
CUS0482700000104147967006         LEONE VINCENT       440 OLD HOME RD                         000N        CARE OF             
MTR04827000001000000000000000RA              41258491    005800440000004400000520000003NN  NNW 000                       N    
RDG04827000WATRL000000004K00000000000001340004408122015065053N000000000000N47       000040400K 10000000010000001328           
CUS0482700000104147968004         KESTLER DIANNE      438 OLD HOME RD                         000N        CARE OF             
MTR04827000001000000000000000RA              45386578    005800450000004500000520000003NN  NNW 000                       N    
RDG04827000WATRL000000004K00000000000002050004508122015065133N000000000021N47       000070400K 10000000010000002050           
CUS0482700000104147969002         SCHMITT CHARLES E,JR436 OLD HOME RD                         000N        CARE OF             
MTR04827000001000000000000000RA              45386562    005800460000004600000520000003NN  NNW 000                       N    
RDG04827000WATRL000000004K00000000000001791004608122015065145N000000000031N47       000120400K 10000000010000001775           
CUS0482700000104147970000         KATHERINE SCHAPPERT 434 OLD HOME RD                         000N        CARE OF             
MTR04827000001000000000000000RA              33079938    005800470000004700000520000003NN  NNW 000                       N    
RDG04827000WATRL000000004K00000000000003683004708122015065229N000000000032N47       000070400K 10000000010000003682           
CUS0482700000104147971008         BRANDT PAUL         432 OLD HOME RD                         000N        CARE OF             
MTR04827000001000000000000000RA              33080035    005800480000004800000520000003NN  NNW 000                       N    
RDG04827000WATRL000000004K00000000000003610004808122015065242N000000000000N47       000130400K 10000000010000003600           
CUS0482700000104147972006         CALDER CHRISTINE M  430 OLD HOME RD                         000N        CARE OF             
MTR04827000001000000000000000RA              41258782    005800490000004900000520000003NN  NNW 000                       N    
RDG04827000WATRL000000004K00000000000003193004908122015065315N000000000031N47       000100400K 10000000010000003167           
CUS0482700000104147973004         JASON CALIMER       428 OLD HOME RD                         000N        CARE OF             
MTR04827000001000000000000000RA              10007446    005800500000005000000570000003NN  NNW 000                       N    
RDG04827000WATRL000000004K00000000000000101005008122015065404N000000000040N47       000490400K 10000000010000000100           
CUS0482700000104147974002         LAMBERT BRIAN K     426 OLD HOME RD                         000N        CARE OF             
MTR04827000001000000000000000RA              01114093    005800510000005100000610000003NN  NNW 000                       N    
RDG04827000WATRL000000004K00000000000000633005108122015065410N000000000000N47       000060400K 10000000010000000620           
CUS0482700000104147975009         REESE MICHAEL K     424 OLD HOME RD                         000N        CARE OF             
MTR04827000001000000000000000RA              44175938    005800520000005200000520000003NN  NNW 000                       N    
RDG04827000WATRL000000004K00000000000001523005208122015065415N000000000000N47       000050400K 10000000010000001512           
CUS0482700000104147976007         THOMPSON GLEN D     422 OLD HOME RD                         000N        CARE OF             
MTR04827000001000000000000000RA              33081263    005800530000005300000520000003NN  NNW 000                       N    
RDG04827000WATRL000000004K00000000000003323005308122015065542N000000000071N47       000090400K 10000000010000003320           
CUS0482700000104147977005         KNAPP W ROLAND,3RD  420 OLD HOME RD                         000N        CARE OF             
MTR04827000001000000000000000RA              33081184    005800540000005400000520000003NN  NNW 000                       N    
RDG04827000WATRL000000004K00000000000002429005408122015065556N000000000010N47       000140400K 10000000010000002416           
CUS0482700000104147978003         SHANNON DELLA M     418 OLD HOME RD                         000N        CARE OF             
MTR04827000001000000000000000RA              14924364    005800550000005500000310000003NN  NNW 000                       N    
RDG04827000WATRL000000004K00000000000000720005508122015065627N000000000000N47       000310400K 10000000010000000707           
CUS0482700000104147979001         MYERS CAROL         416 OLD HOME RD                         000N        CARE OF             
MTR04827000001000000000000000RA              10016948    005800560000005600000570000003NN  NNW 000                       N    
RDG04827000WATRL000000004K00000000000000221005608122015065634N000000000000N47       000070400K 10000000010000000209           
CUS0482700000104147980009         MOODY BENJAMIN W    414 OLD HOME RD                         000N        CARE OF             
MTR04827000001000000000000000RA              14904816    005800570000005700000310000003NN  NNW 000                       N    
RDG04827000WATRL000000004K00000000000000341005708122015065848N000000000092N47       000060400K 10000000010000000335           
CUS0482700000104147981007         GINTLING KATHY L    412 OLD HOME RD                         000N        CARE OF             
MTR04827000001000000000000000RA              14904812    005800580000005800000310000003NN  NNW 000                       N    
RDG04827000WATRL000000004K00000000000000553005808122015065918N000000000000N47       000300400K 10000000010000000542           
CUS0482700000104147982005         FISH KERI D         5948 CLAYTON AVE                        000N        CARE OF             
MTR04827000001000000000000000RA              9687167     005800590000005900000570000003NN  NNW 000                       N    
RDG04827000WATRL000000004K00000000000002709005908122015065929N000000000000N47       000110400K 10000000010000002694           
CUS0482700000104147983003         JENELLE MATTEL      5946 CLAYTON AVE                        000N        CARE OF             
MTR04827000001000000000000000RA              46877135    005800600000006000000520000003NN  NNW 000                       N    
RDG04827000WATRL000000004K00000000000001199006008122015065940N000000000010N47       000110400K 10000000010000001184           
CUS0482700000104147984001         NICHOLS JOHN F      5944 CLAYTON AVE                        000N        CARE OF             
MTR04827000001000000000000000RA              48596379    005800610000006100000520000003NN  NNW 000                       N    
RDG04827000WATRL000000004K00000000000001569006108122015070609N000000000020N47       003890400K 10000000010000001564           
CUS0482700000104147985008         HUD                 5942 CLAYTON AVE                        000N        CARE OF             
MTR04827000001000000000000000RA              00126684    005800620000006200000570000003NN  NNW 000                       N    
RDG04827000WATRL000000004K00000000000001175006208122015070750N000000000051N47       000090400K 10000000010000001175           
CUS0482700000104147986006         NIEBERLEIN DONALD J,5940 CLAYTON AVE                        000N        CARE OF             
MTR04827000001000000000000000RA              23841363    005800630000006300000520000003NN  NNW 000                       N    
RDG04827000WATRL000000004K00000000000004056006308122015071347N000000000000N47       003570400K 10000000010000004047           
CUS0482700000104147987004         PAWLAK KAMILA       5938 CLAYTON AVE                        000N        CARE OF             
MTR04827000001000000000000000RA              39585525    005800640000006400000520000003NN  NNW 000                       N    
RDG04827000WATRL000000004K00000000000000389006408122015071359N000000000010N47       000120400K 10000000010000000389           
CUS0482700000104434564003         MYISHA GORDON       5936 CLAYTON AVE                        000N        CARE OF             
MTR04827000001000000000000000RA              01096957    005800650000006500000610000003NN  NNW 000                       N    
RDG04827000WATRL000000004K00000000000001779006508122015071407N000000000000N47       000080400K 10000000010000001765           
CUS0482700000104147988002         DAVIS TIMOTHY L     5934 CLAYTON AVE                        000N        CARE OF             
MTR04827000001000000000000000RA              40322037    005800660000006600000520000003NN  NNW 000                       N    
RDG04827000WATRL000000004K00000000000001623006608122015071416N000000000000N47       000090400K 10000000010000001607           
CUS0482700000104147989000         SHOESTRING ENTERPRIS5932 CLAYTON AVE                        000N        CARE OF             
MTR04827000001000000000000000RA              11429916    005800670000006700000570000003NN  NNW 000                       N    
RDG04827000WATRL000000004K00000000000005907006708122015071433N000000000010N47       000170400K 10000000010000005907           
CUS0482700000104147990008         BAKER MICHAEL       5928 CLAYTON AVE                        000N        CARE OF             
MTR04827000001000000000000000RA              33081187    005800680000006800000520000003NN  NNW 000                       N    
RDG04827000WATRL000000004K00000000000004977006808122015071515N000000000000N47       000420400K 10000000010000004965           
CUS0482700000104147991006         LAVALLEY RONALD     5926 CLAYTON AVE                        000N        CARE OF             
MTR04827000001000000000000000RA              23841333    005800690000006900000520000003NN  NNW 000                       N    
RDG04827000WATRL000000004K00000000000006779006908122015071530N000000000030N47       000150400K 10000000010000006762           
CUS0482700000104147992004         DOUGHERTY FRANCIS X 5922 CLAYTON AVE                        000N        CARE OF             
MTR04827000001000000000000000RA              01072907    005800700000007000000610000003NN  NNW 000                       N    
RDG04827000WATRL000000004K00000000000000739007008122015071615N000000000091N47       000190400K 10000000010000000711           
CUS0482700000104147993002         PRIBYL WILLIAM J,JR 5920 CLAYTON AVE                        000N        CARE OF             
MTR04827000001000000000000000RA              52768388    005800710000007100000520000003NN  NNW 000                       N    
RDG04827000WATRL000000004K00000000000000805007108122015071713N000000000091N47       000050400K 10000000010000000803           
CUS0482700000104376435006         SINGLE JOSEPH       5918 CLAYTON AVE                        000N        CARE OF             
MTR04827000001000000000000000RA              35106623    005800720000007200000520000003NN  NNW 000                       N    
RDG04827000WATRL000000004K00000000000003226007208122015071801N000000000041N47       000110400K 10000000010000003208           
CUS0482700000104147994000         COOK JAMES R,3RD    5916 CLAYTON AVE                        000N        CARE OF             
MTR04827000001000000000000000RA              23646907    005800730000007300000520000003NN  NNW 000                       N    
RDG04827000WATRL000000004K00000000000005123007308122015071814N000000000020N47       000130400K 10000000010000005101           
CUS0482700000104430534000         COLE SAMUEL B       5914 CLAYTON AVE                        000N        CARE OF             
MTR04827000001000000000000000RA              99391093    005800740000007400000570000003NN  NNW 000                       N    
RDG04827000WATRL000000004K00000000000001044007408122015071919N000000000010N47       000650400K 10000000010000001026           
CUS0482700000104432158006         MOORE ALISA E       5912 CLAYTON AVE                        000N        CARE OF             
MTR04827000001000000000000000RA              01082714    005800750000007500000610000000NN  NNW 000                       N    
RDG04827000WATRL000000004K00000000000006656007508122015072003N000000000070N47       000440400K 10000000010000006582           
CUS0482700000104407967001         STOVER BARNEY W     5910 CLAYTON AVE                        000N        CARE OF             
MTR04827000001000000000000000RA              10020887    005800760000007600000570000003NN  NNW 000                       N    
RDG04827000WATRL000000004K00000000000000070007608122015072035N000000000000N47       000320400K 10000000010000000070           
CUS0482700000104147995007         KINNEAR TIMOTHY P   5904 FARMVIEW AVE                       000N        CARE OF             
MTR04827000001000000000000000RA              33733189    005800770000007700000520000003NN  NNW 000                       N    
RDG04827000WATRL000000004K00000000000004589007708122015072052N000000000020N47       000170400K 10000000010000004575           
CUS0482700000104147996005         STEVENS LLOYD C     5906 FARMVIEW AVE                       000N        CARE OF             
MTR04827000001000000000000000RA              01079191    005800780000007800000610000003NN  NNW 000                       N    
RDG04827000WATRL000000004K00000000000000880007808122015072133N000000000040N47       000410400K 10000000010000000880           
CUS0482700000104147997003         RALPH W BETZ JR.    5908 FARMVIEW AVE                       000N        CARE OF             
MTR04827000001000000000000000RA              22608410    005800790000007900000520000003NN  NNW 000                       N    
RDG04827000WATRL000000004K00000000000003499007908122015072218N000000000000N47       000450400K 10000000010000003487           
CUS0482700000104147998001         GRIGSBY TYRONE P    5910 FARMVIEW AVE                       000N        CARE OF             
MTR04827000001000000000000000RA              46884791    005800800000008000000520000003NN  NNW 000                       N    
RDG04827000WATRL000000004K00000000000000903008008122015072303N000000000000N47       000450400K 10000000010000000892           
CUS0482700000104147999009         BAUER WAYNE C       5912 FARMVIEW AVE                       000N        CARE OF             
MTR04827000001000000000000000RA              33077147    005800810000008100000520000003NN  NNW 000                       N    
RDG04827000WATRL000000004K00000000000003793008108122015073436N000000000000N47       006930400K 10000000010000003781           
CUS0482700000104148000005         KIEFNER MELVIN W KEI5826 FARMVIEW AVE                       000N        CARE OF             
MTR04827000001000000000000000RA              14922779    005800820000008200000310000003NN  NNW 000                       N    
RDG04827000WATRL000000004K00000000000000891008208122015073507N000000000061N47       000210400K 10000000010000000860           
CUS0482700000104148001003         KIEFNER MELVIN W    5824 FARMVIEW AVE                       000N        CARE OF             
MTR04827000001000000000000000RA              48596353    005800830000008300000520000003NN  NNW 000                       N    
RDG04827000WATRL000000004K00000000000003369008308122015073517N000000000000N47       000100400K 10000000010000003358           
CUS0482700000104148002001         ZURICK ELAINE C     5822 FARMVIEW AVE                       000N        CARE OF             
MTR04827000001000000000000000RA              14907121    005800840000008400000310000003NN  NNW 000                       N    
RDG04827000WATRL000000004K00000000000000833008408122015073521N000000000000N47       000040400K 10000000010000000822           
CUS0482700000104148003009         REPP MAUREEN L      5818 FARMVIEW AVE                       000N        CARE OF             
MTR04827000001000000000000000RA              30524406    005800850000008500000520000003NN  NNW 000                       N    
RDG04827000WATRL000000004K00000000000002799008508122015073535N000000000020N47       000140400K 10000000010000002779           
CUS0482700000104377292000         MATTHEU JASON P     5820 FARMVIEW AVE                       000N        CARE OF             
MTR04827000001000000000000000RA              32903533    005800860000008600000520000003NN  NNW 000                       N    
RDG04827000WATRL000000004K00000000000003190008608122015073632N000400000071N47       000140400K 10000000010000003147           
CUS0482700000104148005004         SOMMERVILLE JOSEPH  5810 FARMVIEW AVE                       000N        CARE OF             
MTR04827000001000000000000000RA              99290328    005800870000008700000570000003NN  NNW 000                       N    
RDG04827000WATRL000000004K00000000000001555008708122015073647N000000000030N47       000150400K 10000000010000001555           
CUS0482700000104414947004         KAFKA VICTORIA      5808 FARMVIEW AVE                       000N        CARE OF             
MTR04827000001000000000000000RA              46886874    005800880000008800000520000003NN  NNW 000                       N    
RDG04827000WATRL000000004K00000000000001949008808122015073752N000000000091N47       000120400K 10000000010000001914           
CUS0482700000104148006002         THE BANK OF NEW YORK5806 FARMVIEW AVE                       000N        CARE OF             
MTR04827000001000000000000000RA              10015680    005800890000008900000570000003NN  NNW 000                       N    
RDG04827000WATRL000000004K00000000000000313008908122015073815N000000000060N47       000230400K 10000000010000000285           
CUS0482700000104148007000         BARTGIS BETTY M     5801 FARMVIEW AVE                       000N        CARE OF             
MTR04827000001000000000000000RA              01114319    005800900000009000000610000003NN  NNW 000   VACANT / LOT        N    
RDG04827000WATRL000000004K00000000000000025009008122015073821N000000000000N47       000060400K 10000000010000000025           
CUS0482700000104148008008         LAPLANTE WALTER R   5807 FARMVIEW AVE                       000N        CARE OF             
MTR04827000001000000000000000RA              24228824    005800910000009100000520000003NN  NNW 000                       N    
RDG04827000WATRL000000004K00000000000004553009108122015073832N000000000020N47       000110400K 10000000010000004540           
CUS0482700000104148009006         ACKERMAN NANCY W    5112 OVERDALE AVE                       000N        CARE OF             
MTR04827000001000000000000000RA              9689570     005800920000009200000570000003NN  NNW 000                       N    
RDG04827000WATRL000000004K00000000000004129009208122015073837N000000000000N47       000050400K 10000000010000004129           
CUS0482700000104425780006         THOMAS JOHN         5120 OVERDALE AVE                       000N        CARE OF             
MTR04827000001000000000000000RA              99290362    005800930000009300000570000003NY  NNW 000                       N    
MTM0482700099290362    CANT LOCATE                                                                                            
RDG04827000WATRL000000004K00000000000000000000000000000000000 000000000000U         000000400  10000000010000000469           
CUS0482700000104148010004         WORSHAM FRANK, JR   5811 FARMVIEW AVE                       000N        CARE OF             
MTR04827000001000000000000000RA              14920600    005800940000009400000310000003NN  NNW 000                       N    
RDG04827000WATRL000000004K00000000000000339009308122015074004N000000000000N47       000870400K 10000000010000000327           
CUS0482700000104148011002         WILLIAM ANDERSON    5821 FARMVIEW AVE                       000N        CARE OF             
MTR04827000001000000000000000RA              46877112    005800950000009500000520000003NN  NNW 000                       N    
RDG04827000WATRL000000004K00000000000002023009408122015074101N000000000000N47       000570400K 10000000010000002008           
CUS0482700000104148012000         ROLOSON BERNARD H,JR5819 FARMVIEW AVE                       000N        CARE OF             
MTR04827000001000000000000000RA              29082489    005800960000009600000520000003NN  NNW 000                       N    
RDG04827000WATRL000000004K00000000000002736009508122015074105N000000000000N47       000040400K 10000000010000002721           
CUS0482700000104148013008         KIEF EDWARD G       5823 FARMVIEW AVE                       000N        CARE OF             
MTR04827000001000000000000000RA              75423217    005800970000009700000350000003NN  NNW 000                       N    
RDG04827000WATRL000000004K00000000000000033009608122015074120N000000000010N47       000150400K 10000000010000000033           
CUS0482700000106362676006         HARTMAN JOANNE      5825 FARMVIEW AVE                       000N        CARE OF             
MTR04827000001000000000000000RA              30515704    005800980000009800000520000003NN  NNW 000                       N    
RDG04827000WATRL000000004K00000000000001996009708122015074145N000000000040N47       000250400K 10000000010000001991           
CUS0482700000104148014006         MORI MELINDA R      5901 FARMVIEW AVE                       000N        CARE OF             
MTR04827000001000000000000000RA              46877130    005800990000009900000520000003NN  NNW 000                       N    
RDG04827000WATRL000000004K00000000000001391009808122015074150N000000000000N47       000050400K 10000000010000001379           
CUS0482700000104148015003         DIANE C & ROBERT W H5903 FARMVIEW AVE                       000N        CARE OF             
MTR04827000001000000000000000RA              10003726    005801000000010000000570000003NN  NNW 000                       N    
RDG04827000WATRL000000004K00000000000000376009908122015074159N000000000000N47       000090400K 10000000010000000362           
CUS0482700000104148016001         METALLO NICHOLAS R  5905 FARMVIEW AVE                       000N        CARE OF             
MTR04827000001000000000000000RA              10021515    005801010000010100000570000003NN  NNW 000                       N    
RDG04827000WATRL000000004K00000000000000349010008122015074213N000000000020N47       000140400K 10000000010000000337           
CUS0482700000106382336003         JACOB BROOKS        5929 CLAYTON AVE                        000N        CARE OF             
MTR04827000001000000000000000RA              33735820    005801020000010200000520000003NN  NNW 000                       N    
RDG04827000WATRL000000004K00000000000002611010108122015074220N000000000000N47       000070400K 10000000010000002603           
CUS0482700000104148017009         BARNES JIMMIE L     5933 CLAYTON AVE                        000N        CARE OF             
MTR04827000001000000000000000RA              44172178    005801030000010300000520000003NN  NNW 000                       N    
RDG04827000WATRL000000004K00000000000001509010208122015074233N000000000021N47       000100400K 10000000010000001490           
CUS0482700000104148018007         MACRI MICHAEL S     5935 CLAYTON AVE                        000N        CARE OF             
MTR04827000001000000000000000RA              42810702    005801040000010400000520000003NN  NNW 000                       N    
RDG04827000WATRL000000004K00000000000001652010308122015074247N000000000040N47       000140400K 10000000010000001652           
CUS0482700000104148019005         DODSON RAYMOND E    5935-1/2 CLAYTON AVE                    000N        CARE OF             
MTR04827000001000000000000000RA              23841346    005801050000010500000520000003NN  NNW 000                       N    
RDG04827000WATRL000000004K00000000000006076010408122015080555N000000000020N47       013880400K 10000000010000006049           
CUS0482700000104148020003         NOWICKI LAWRENCE J  5937 CLAYTON AVE                        000N        CARE OF             
MTR04827000001000000000000000RA              10021628    005801060000010600000570000003NN  NNW 000                       N    
RDG04827000WATRL000000004K00000000000000263010508122015080559N000000000000N47       000040400K 10000000010000000250           
CUS0482700000104148021001         SMART OPTIONS 101,LL5939 CLAYTON AVE                        000N        CARE OF             
MTR04827000001000000000000000RA              46877134    005801070000010700000520000003NN  NNW 000                       N    
RDG04827000WATRL000000004K00000000000000912010608122015080602N000000000000N47       000030400K 10000000010000000901           
CUS0482700000104148022009         WAUDBY MEREDITH     5941 CLAYTON AVE                        000N        CARE OF             
MTR04827000001000000000000000RA              10014194    005801080000010800000570000003NN  NNW 000                       N    
RDG04827000WATRL000000004K00000000000000256010708122015080617N000000000000N47       000150400K 10000000010000000245           
CUS0482700000104148023007         OCONNOR ROBERT E    5943 CLAYTON AVE                        000N        CARE OF             
MTR04827000001000000000000000RA              01072901    005801090000010900000610000003NN  NNW 000                       N    
RDG04827000WATRL000000004K00000000000000621010808122015080620N000000000000N47       000030400K 10000000010000000608           
CUS0482700000104148024005         KERNER PAUL W       5945 CLAYTON AVE                        000N        CARE OF             
MTR04827000001000000000000000RA              35111743    005801100000011000000520000003NN  NNW 000                       N    
RDG04827000WATRL000000004K00000000000001883010908122015080625N000000000010N47       000050400K 10000000010000001883           
CUS0482700000104356817009         HOUSE ALLEN R       5947 CLAYTON AVE                        000N        CARE OF             
MTR04827000001000000000000000RA              29402921    005801110000011100000520000003NN  NNW 000                       N    
RDG04827000WATRL000000004K00000000000004903011008122015080632N000000000000N47       000070400K 10000000010000004891           
CUS0482700000104148025002         FAIRLEY DIANA L     410 OLD HOME RD                         000N        CARE OF             
MTR04827000001000000000000000RA              23841539    005801120000011200000520000003NN  NNW 000                       N    
RDG04827000WATRL000000004K00000000000004336011108122015080718N000000000000N47       000460400K 10000000010000004328           
CUS0482700000104148026000         WHITE MELVIN J      408 OLD HOME RD                         000N        CARE OF             
MTR04827000001000000000000000RA              40049565    005801130000011300000520000003NN  NNW 000                       N    
RDG04827000WATRL000000004K00000000000001831011208122015080722N000000000000N47       000040400K 10000000010000001819           
CUS0482700000104148027008         HVF,LLC             406 OLD HOME RD                         000N        CARE OF             
MTR04827000001000000000000000RA              35112380    005801140000011400000520000003NN  NNW 000                       N    
RDG04827000WATRL000000004K00000000000002506011308122015080729N000000000010N47       000070400K 10000000010000002506           
CUS0482700000104148028006         ILGENFRITZ GLADYS,TR404 OLD HOME RD                         000N        CARE OF             
MTR04827000001000000000000000RA              22608449    005801150000011500000520000003NN  NNW 000                       N    
RDG04827000WATRL000000004K00000000000001886011408122015080732N000000000000N47       000030400K 10000000010000001875           
CUS0482700000104148029004         YOUNG JOSEPH R      402 OLD HOME RD                         000N        CARE OF             
MTR04827000001000000000000000RA              10006342    005801160000011600000570000003NN  NNW 000                       N    
RDG04827000WATRL000000004K00000000000000520011508122015080736N000000000000N47       000040400K 10000000010000000507           
CUS0482700000104148030002         RUPERT SUZANNE RENE 400 OLD HOME RD                         000N        CARE OF             
MTR04827000001000000000000000RA              44172177    005801170000011700000520000003NN  NNW 000                       N    
RDG04827000WATRL000000004K00000000000001539011608122015080741N000000000010N47       000050400K 10000000010000001531           
CUS0482700000104148031000         KINLEIN MICHAEL A,JR5935 MEADOW RD                          000N        CARE OF             
MTR04827000001000000000000000RA              39923556    005801180000011800000520000003NN  NNW 000                       N    
RDG04827000WATRL000000004K00000000000001859011708122015080743N000000000000N47       000020400K 10000000010000001847           
CUS0482700000104148032008         PLOSKON BENJAMIN J  5933 MEADOW RD                          000N        CARE OF             
MTR04827000001000000000000000RA              39923557    005801190000011900000520000003NN  NNW 000                       N    
RDG04827000WATRL000000004K00000000000000941011808122015080839N000000000020N47       000560400K 10000000010000000941           
CUS0482700000104148033006         ARMETTA MICHAEL W,JR5927 MEADOW RD                          000N        CARE OF             
MTR04827000001000000000000000RA              14926155    005801200000012000000310000003NN  NNW 000                       N    
RDG04827000WATRL000000004K00000000000000648011908122015080846N000000000010N47       000070400K 10000000010000000633           
CUS0482700000104148034004         MORAN CHARLES K     5925 MEADOW RD                          000N        CARE OF             
MTR04827000001000000000000000RA              00131446    005801210000012100000570000003NN  NNW 000                       N    
RDG04827000WATRL000000004K00000000000000046012008122015080900N000000000040N47       000140400K 10000000010000000045           
CUS0482700000104148035001         SCHULTZE LISA M     5923 MEADOW RD                          000N        CARE OF             
MTR04827000001000000000000000RA              10020780    005801220000012200000570000003NN  NNW 000                       N    
RDG04827000WATRL000000004K00000000000000536012108122015080904N000000000000N47       000040400K 10000000010000000529           
CUS0482700000104148036009         MORRISON JAMES C,JR 5919 MEADOW RD                          000N        CARE OF             
MTR04827000001000000000000000RA              50788642    005801230000012300000520000003NN  NNW 000                       N    
RDG04827000WATRL000000004K00000000000001777012208122015080915N000000000000N47       000110400K 10000000010000001763           
CUS0482700000104148037007         HANLEY KENNETH C    5917 MEADOW RD                          000N        CARE OF             
MTR04827000001000000000000000RA              10007396    005801240000012400000570000003NN  NNW 000                       N    
RDG04827000WATRL000000004K00000000000000875012308122015080931N000000000050N47       000160400K 10000000010000000845           
CUS0482700000104148038005         RATCLIFF MICHELE JOY5915 MEADOW RD                          000N        CARE OF             
MTR04827000001000000000000000RA              21194348    005801250000012500000520000003NN  NNW 000                       N    
RDG04827000WATRL000000004K00000000000003546012408122015080935N000000000000N47       000040400K 10000000010000003539           
CUS0482700000104148039003         RAUSCH BRYAN J  RAUS5913 MEADOW RD                          000N        CARE OF             
MTR04827000001000000000000000RA              23647929    005801260000012600000520000003NN  NNW 000                       N    
RDG04827000WATRL000000004K00000000000003736012508122015080942N000000000020N47       000070400K 10000000010000003716           
CUS0482700000104148040001         SUSAN R ERHARDT     5911 MEADOW RD                          000N        CARE OF             
MTR04827000001000000000000000RA              23647922    005801270000012700000520000003NN  NNW 000                       N    
RDG04827000WATRL000000004K00000000000003315012608122015080946N000000000000N47       000040400K 10000000010000003306           
CUS0482700000104148041009         HORCHAR STEPHEN M,JR5909 MEADOW RD                          000N        CARE OF             
MTR04827000001000000000000000RA              35106631    005801280000012800000520000003NN  NNW 000                       N    
RDG04827000WATRL000000004K00000000000003299012708122015080952N000000000020N47       000060400K 10000000010000003284           
CUS0482700000104148042007         JEAN E KING         5907 MEADOW RD                          000N        CARE OF             
MTR04827000001000000000000000RA              46877114    005801290000012900000520000003NN  NNW 000                       N    
RDG04827000WATRL000000004K00000000000001451012808122015081025N000000000051N47       000140400K 10000000010000001431           
CUS0482700000104397489008         SMITH ROBERT D      5912 MEADOW RD                          000N        CARE OF             
MTR04827000001000000000000000RA              33079423    005801300000013000000520000003NN  NNW 000                       N    
RDG04827000WATRL000000004K00000000000001969013208122015085312N000000000000N47       017900400K 10000000010000001958           
CUS0482700000104148043005         MARRON JOHN J       5914 MEADOW RD                          000N        CARE OF             
MTR04827000001000000000000000RA              32177057    005801310000013100000520000003NN  NNW 000                       N    
RDG04827000WATRL000000004K00000000000002729013308122015085315N000000000000N47       000030400K 10000000010000002718           
CUS0482700000104148044003         BECK RONALD G       5916 MEADOW RD                          000N        CARE OF             
MTR04827000001000000000000000RA              00138842    005801320000013200000570000003NN  NNW 000                       N    
RDG04827000WATRL000000004K00000000000000903013408122015085322N000000000010N47       000070400K 10000000010000000891           
CUS0482700000104148045000         LAUSCH BRIAN L      5918 MEADOW RD                          000N        CARE OF             
MTR04827000001000000000000000RA              01114261    005801330000013300000610000003NN  NNW 000                       N    
RDG04827000WATRL000000004K00000000000000893013508122015085342N000000000020N47       000200400K 10000000010000000875           
CUS0482700000104148046008         FABRIZIO JOSEPH K   5920 MEADOW RD                          000N        CARE OF             
MTR04827000001000000000000000RA              44092383    005801340000013400000520000003NN  NNW 000                       N    
RDG04827000WATRL000000004K00000000000001763013608122015085523N000000000000N47       001010400K 10000000010000001751           
CUS0482700000104148047006         ALEXANDER JOHN H    5924 MEADOW RD                          000N        CARE OF             
MTR04827000001000000000000000RA              00136131    005801350000013500000570000003NN  NNW 000                       N    
RDG04827000WATRL000000004K00000000000000656013708122015085528N000000000000N47       000050400K 10000000010000000645           
CUS0482700000104365532003         ALEXANDER JOHN MCKNI5926 MEADOW RD                          000N        CARE OF             
MTR04827000001000000000000000RA              30521399    005801360000013600000520000003NN  NNW 000                       N    
RDG04827000WATRL000000004K00000000000003406013808122015085548N000000000070N47       000200400K 10000000010000003378           
CUS0482700000104148048004         WOLF CHERYL A       5934 MEADOW RD                          000N        CARE OF             
MTR04827000001000000000000000RA              27831105    005801370000013700000520000003NN  NNW 000                       N    
RDG04827000WATRL000000004K00000000000002915013908122015085600N000000000010N47       000120400K 10000000010000002899           
CUS0482700000104148049002         GAY JAMES JOSEPH,SR 5936 MEADOW RD                          000N        CARE OF             
MTR04827000001000000000000000RA              23050403    005801380000013800000520000003NN  NNW 000                       N    
RDG04827000WATRL000000004K00000000000005039014008122015085603N000000000000N47       000030400K 10000000010000005029           
CUS0482700000104148050000         JOANNE K KREINER    319 OLD HOME RD                         000N        CARE OF             
MTR04827000001000000000000000RA              30520775    005801390000013900000520000003NN  NNW 000                       N    
RDG04827000WATRL000000004K00000000000002921014108122015085607N000000000000N47       000040400K 10000000010000002913           
CUS0482700000104148051008         JANET L COOPER      321 OLD HOME RD                         000N        CARE OF             
MTR04827000001000000000000000RA              23644166    005801400000014000000520000003NN  NNW 000                       N    
RDG04827000WATRL000000004K00000000000002346014208122015085614N000000000000N47       000070400K 10000000010000002335           
CUS0482700000104148052006         TABRIZCHI FARROKH   401 OLD HOME RD                         000N        CARE OF             
MTR04827000001000000000000000RA              75618261    005801410000014100000350000003NN  NNW 000                       N    
RDG04827000WATRL000000004K00000000000000045014308122015085621N000000000020N47       000070400K 10000000010000000041           
CUS0482700000104148053004         HUGHES DONNA JOANN  403 OLD HOME RD                         000N        CARE OF             
MTR04827000001000000000000000RA              31583781    005801420000014200000520000003NN  NNW 000                       N    
RDG04827000WATRL000000004K00000000000003812014408122015085635N000000000020N47       000140400K 10000000010000003799           
CUS0482700000104148054002         COLEMAN JANICE M    405 OLD HOME RD                         000N        CARE OF             
MTR04827000001000000000000000RA              14924039    005801430000014300000310000003NN  NNW 000                       N    
RDG04827000WATRL000000004K00000000000000456014508122015085637N000000000000N47       000020400K 10000000010000000447           
CUS0482700000104148055009         CHRISTINE B LANE    407 OLD HOME RD                         000N        CARE OF             
MTR04827000001000000000000000RA              26017310    005801440000014400000520000003NN  NNW 000                       N    
RDG04827000WATRL000000004K00000000000001893014608122015085642N000000000000N47       000050400K 10000000010000001885           
CUS0482700000104148056007         GRONCKI EMILY M     409 OLD HOME RD                         000N        CARE OF             
MTR04827000001000000000000000RA              41086466    005801450000014500000520000003NN  NNW 000                       N    
RDG04827000WATRL000000004K00000000000002539014708122015085659N000000000020N47       000170400K 10000000010000002518           
CUS0482700000104148057005         GILL WAYNE A        411 OLD HOME RD                         000N        CARE OF             
MTR04827000001000000000000000RA              41086444    005801460000014600000520000003NN  NNW 000                       N    
RDG04827000WATRL000000004K00000000000001365014808122015085704N000000000000N47       000050400K 10000000010000001357           
CUS0482700000104148058003         EDWARDS MARIA       413 OLD HOME RD                         000N        CARE OF             
MTR04827000001000000000000000RA              99187483    005801470000014700000570000003NN  NNW 000                       N    
RDG04827000WATRL000000004K00000000000000555014908122015085707N000000000000N47       000030400K 10000000010000000544           
CUS0482700000104148059001         THOMAS SHEILA       415 OLD HOME RD                         000N        CARE OF             
MTR04827000001000000000000000RA              50481626    005801480000014800000520000003NN  NNW 000                       N    
RDG04827000WATRL000000004K00000000000001371015008122015085710N000000000000N47       000030400K 10000000010000001360           
CUS0482700000104148060009         LANGFORD RAYMOND A  417 OLD HOME RD                         000N        CARE OF             
MTR04827000001000000000000000RA              23841608    005801490000014900000520000003NN  NNW 000                       N    
RDG04827000WATRL000000004K00000000000001766015108122015085741N000000000051N47       000060400K 10000000010000001744           
CUS0482700000104148061007         STRATMANN CHAD      419 OLD HOME RD                         000N        CARE OF             
MTR04827000001000000000000000RA              48595548    005801500000015000000520000003NN  NNW 000                       N    
RDG04827000WATRL000000004K00000000000001135015208122015085801N000000000051N47       000050400K 10000000010000001135           
CUS0482700000104148062005         WENDLER BRADLEY M   421 OLD HOME RD                         000N        CARE OF             
MTR04827000001000000000000000RA              14928570    005801510000015100000310000003NN  NNW 000                       N    
RDG04827000WATRL000000004K00000000000000593015308122015085809N000000000010N47       000080400K 10000000010000000580           
CUS0482700000104148063003         FISHER SCOTT DAVID  423 OLD HOME RD                         000N        CARE OF             
MTR04827000001000000000000000RA              14928576    005801520000015200000310000003NN  NNW 000                       N    
RDG04827000WATRL000000004K00000000000000599015408122015085827N000000000070N47       000180400K 10000000010000000573           
CUS0482700000104148064001         WATSON CHRISTINA    425 OLD HOME RD                         000N        CARE OF             
MTR04827000001000000000000000RA              39925447    005801530000015300000520000003NN  NNW 000                       N    
RDG04827000WATRL000000004K00000000000003731015508122015085923N000000000091N47       000350400K 10000000010000003683           
CUS0482700000104148065008         DAVIS TIMOTHY       427 OLD HOME RD                         000N        CARE OF             
MTR04827000001000000000000000RA              01072903    005801540000015400000610000003NN  NNW 000                       N    
RDG04827000WATRL000000004K00000000000001121015608122015085926N000000000000N47       000030400K 10000000010000001106           
CUS0482700000104148066006         MYERS MICHAEL       429 OLD HOME RD                         000N        CARE OF             
MTR04827000001000000000000000RA              33733004    005801550000015500000520000003NN  NNW 000                       N    
RDG04827000WATRL000000004K00000000000001236015708122015085936N000000000000N47       000100400K 10000000010000001224           
CUS0482700000104148067004         TRUITT DOROTHY      431 OLD HOME RD                         000N        CARE OF             
MTR04827000001000000000000000RA              10002148    005801560000015600000570000003NN  NNW 000                       N    
RDG04827000WATRL000000004K00000000000000759015808122015085947N000000000020N47       000110400K 10000000010000000742           
CUS0482700000104148068002         BAC FIELD SERVICES  433 OLD HOME RD                         000N        CARE OF             
MTR04827000001000000000000000RA              01096900    005801570000015700000610000003NN  NNW 000                       N    
RDG04827000WATRL000000004K00000000000000562015908122015085956N000000000010N47       000090400K 10000000010000000562           
CUS0482700000104148069000         KROUSE MICHAEL B    435 OLD HOME RD                         000N        CARE OF             
MTR04827000001000000000000000RA              26006909    005801580000015800000520000003NN  NNW 000                       N    
RDG04827000WATRL000000004K00000000000003889016008122015090020N000000000061N47       000110400K 10000000010000003863           
CUS0482700000104148070008         VICTORIA L NICHOLS  437 OLD HOME RD                         000N        CARE OF             
MTR04827000001000000000000000RA              23644222    005801590000015900000520000003NN  NNW 000                       N    
RDG04827000WATRL000000004K00000000000003193016108122015090029N000000000020N47       000090400K 10000000010000003188           
CUS0482700000104148071006         PROPST ANTHONY M    439 OLD HOME RD                         000N        CARE OF             
MTR04827000001000000000000000RA              35106851    005801600000016000000520000003NN  NNW 000                       N    
RDG04827000WATRL000000004K00000000000002199016208122015090034N000000000000N47       000050400K 10000000010000002188           
CUS0482700000104148072004         HUNTER WARREN A     441 OLD HOME RD                         000N        CARE OF             
MTR04827000001000000000000000RA              41259401    005801610000016100000520000003NN  NNW 000                       N    
RDG04827000WATRL000000004K00000000000001115016308122015090038N000000000000N47       000040400K 10000000010000001101           
CUS0482700000104148073002         GORDON CHARLES A    443 OLD HOME RD                         000N        CARE OF             
MTR04827000001000000000000000RA              24233033    005801620000016200000520000003NN  NNW 000                       N    
RDG04827000WATRL000000004K00000000000004056016408122015090848N000000000000N47       004900400K 10000000010000004046           
CUS0482700000104148074000         EBERWEIN RAYMOND P,J445 OLD HOME RD                         000N        CARE OF             
MTR04827000001000000000000000RA              01071861    005801630000016300000610000003NN  NNW 000                       N    
RDG04827000WATRL000000004K00000000000001032016508122015090851N000000000000N47       000030400K 10000000010000001023           
CUS0482700000104148075007         JONES, KYLE         447 OLD HOME RD                         000N        CARE OF             
MTR04827000001000000000000000RA              23841534    005801640000016400000520000003NN  NNW 000                       N    
RDG04827000WATRL000000004K00000000000004236016608122015090854N000000000000N47       000030400K 10000000010000004229           
CUS0482700000104148076005         DEBORAH M QUINN     449 OLD HOME RD                         000N        CARE OF             
MTR04827000001000000000000000RA              23050433    005801650000016500000520000003NN  NNW 000                       N    
RDG04827000WATRL000000004K00000000000004989016708122015090858N000000000000N47       000040400K 10000000010000004981           
CUS0482700000104148077003         PUELZT MARGARET A   451 OLD HOME RD                         000N        CARE OF             
MTR04827000001000000000000000RA              45386564    005801660000016600000520000003NN  NNW 000                       N    
RDG04827000WATRL000000004K00000000000001986016808122015090903N000000000000N47       000050400K 10000000010000001979           
CUS0482700000104148078001         PALCHO EUGENE S     453 OLD HOME RD                         000N        CARE OF             
MTR04827000001000000000000000RA              40779340    005801670000016700000520000003NN  NNW 000                       N    
RDG04827000WATRL000000004K00000000000000863016908122015090906N000000000000N47       000030400K 10000000010000000854           
CUS0482700000104148079009         SCOTT JAMES ROGERS  455 OLD HOME RD                         000N        CARE OF             
MTR04827000001000000000000000RA              40779337    005801680000016800000520000003NN  NNW 000                       N    
RDG04827000WATRL000000004K00000000000001900017008122015090910N000000000000N47       000040400K 10000000010000001890           
CUS0482700000104148080007         PEARSON DINH T      501 OLD HOME RD                         000N        CARE OF             
MTR04827000001000000000000000RA              39290430    005801690000016900000520000003NN  NNW 000                       N    
RDG04827000WATRL000000004K00000000000002054017108122015090914N000000000000N47       000040400K 10000000010000002046           
CUS0482700000104148081005         CAMMUE JOHN         503 OLD HOME RD                         000N        CARE OF             
MTR04827000001000000000000000RA              39290433    005801700000017000000520000003NN  NNW 000                       N    
RDG04827000WATRL000000004K00000000000003363017208122015090938N000000000000N47       000240400K 10000000010000003356           
CUS0482700000104148082003         DAVID LANCASTER     505 OLD HOME RD                         000N        CARE OF             
MTR04827000001000000000000000RA              33082782    005801710000017100000520000003NN  NNW 000                       N    
RDG04827000WATRL000000004K00000000000002021017308122015090946N000000000000N47       000080400K 10000000010000002010           
CUS0482700000104148083001         WILSON JOSEPH AUSTIN507 OLD HOME RD                         000N        CARE OF             
MTR04827000001000000000000000RA              50480676    005801720000017200000520000003NN  NNW 000                       N    
RDG04827000WATRL000000004K00000000000000951017408122015090955N000000000020N47       000090400K 10000000010000000947           
CUS0482700000104148084009         GROVE CHERYL L      509 OLD HOME RD                         000N        CARE OF             
MTR04827000001000000000000000RA              30524161    005801730000017300000520000003NN  NNW 000                       N    
RDG04827000WATRL000000004K00000000000004063017508122015091003N000000000010N47       000080400K 10000000010000004050           
CUS0482700000104148085006         THEODORE A DAMICO   513 OLD HOME RD                         000N        CARE OF             
MTR04827000001000000000000000RA              75614880    005801740000017400000350000003NN  NNW 000                       N    
RDG04827000WATRL000000004K00000000000000078017608122015091009N000000000010N47       000060400K 10000000010000000070           
CUS0482700000104148086004         CREELY JOHN L       515 OLD HOME RD                         000N        CARE OF             
MTR04827000001000000000000000RA              35108656    005801750000017500000520000003NN  NNW 000                       N    
RDG04827000WATRL000000004K00000000000003606017708122015091012N000000000000N47       000030400K 10000000010000003597           
CUS0482700000104148087002         FUNK HOWARD MARTIN,J517 OLD HOME RD                         000N        CARE OF             
MTR04827000001000000000000000RA              31587920    005801760000017600000520000003NN  NNW 000                       N    
RDG04827000WATRL000000004K00000000000002810017808122015091018N000000000000N47       000060400K 10000000010000002798           
CUS0482700000104148088000         RATHELL TIMOTHY D   519 OLD HOME RD                         000N        CARE OF             
MTR04827000001000000000000000RA              31587803    005801770000017700000520000003NN  NNW 000                       N    
RDG04827000WATRL000000004K00000000000003206017908122015091022N000000000000N47       000040400K 10000000010000003195           
CUS0482700000104148089008         CALLAHAN ROBERT LAWR521 OLD HOME RD                         000N        CARE OF             
MTR04827000001000000000000000RA              26004098    005801780000017800000520000003NN  NNW 000                       N    
RDG04827000WATRL000000004K00000000000002763018008122015091029N000000000010N47       000070400K 10000000010000002763           
CUS0482700000104148090006         ADAMS KENNETH J     523 OLD HOME RD                         000N        CARE OF             
MTR04827000001000000000000000RA              26004059    005801790000017900000520000003NN  NNW 000                       N    
RDG04827000WATRL000000004K00000000000004125018108122015091033N000000000000N47       000040400K 10000000010000004112           
CUS0482700000104148091004         UHLIK JAMES J,JR    525 OLD HOME RD                         000N        CARE OF             
MTR04827000001000000000000000RA              26019085    005801800000018000000520000003NN  NNW 000                       N    
RDG04827000WATRL000000004K00000000000003139018208122015091038N000000000000N47       000050400K 10000000010000003126           
CUS0482700000104148092002         HINDLE EDGAR C      527 OLD HOME RD                         000N        CARE OF             
MTR04827000001000000000000000RA              26019084    005801810000018100000520000003NN  NNW 000                       N    
RDG04827000WATRL000000004K00000000000005383018308122015091042N000000000000N47       000040400K 10000000010000005377           
CUS0482700000104148093000         GOWLAND DAVID B     529 OLD HOME RD                         000N        CARE OF             
MTR04827000001000000000000000RA              24764618    005801820000018200000520000003NN  NNW 000                       N    
RDG04827000WATRL000000004K00000000000003139018408122015091049N000000000010N47       000070400K 10000000010000003125           
CUS0482700000104148094008         BICHELL DONALD LEE  531 OLD HOME RD                         000N        CARE OF             
MTR04827000001000000000000000RA              10021513    005801830000018300000570000003NN  NNW 000                       N    
RDG04827000WATRL000000004K00000000000000352018508122015091104N000000000020N47       000150400K 10000000010000000337           
CUS0482700000104148095005         NOHE JAMES A        601 OLD HOME RD                         000N        CARE OF             
MTR04827000001000000000000000RA              50787445    005801840000018400000520000003NN  NNW 000                       N    
RDG04827000WATRL000000004K00000000000000355018608122015091127N000000000061N47       000120400K 10000000010000000351           
CUS0482700000104148096003         RENSHAW KEVIN M     603 OLD HOME RD                         000N        CARE OF             
MTR04827000001000000000000000RA              24761796    005801850000018500000520000003NN  NNW 000                       N    
RDG04827000WATRL000000004K00000000000002912018708122015091205N000000000030N47       000380400K 10000000010000002912           
CUS0482700000104148097001         HENSLEY CLAUDE J    605 OLD HOME RD                         000N        CARE OF             
MTR04827000001000000000000000RA              27266300    005801860000018600000520000003NN  NNW 000                       N    
RDG04827000WATRL000000004K00000000000003446018808122015091219N000000000011N47       000050400K 10000000010000003439           
CUS0482700000104148098009         RANDOLPH AMANDA L   607 OLD HOME RD                         000N        CARE OF             
MTR04827000001000000000000000RA              24761784    005801870000018700000520000003NN  NNW 000                       N    
RDG04827000WATRL000000004K00000000000002421018908122015091223N000000000000N47       000040400K 10000000010000002412           
CUS0482700000104148099007         NADEEM MOHAMMED     609 OLD HOME RD                         000N        CARE OF             
MTR04827000001000000000000000RA              14905703    005801880000018800000310000003NN  NNW 000                       N    
RDG04827000WATRL000000004K00000000000000809019008122015091230N000000000010N47       000070400K 10000000010000000797           
CUS0482700000104148100003         DODGE KEVIN C       611 OLD HOME RD                         000N        CARE OF             
MTR04827000001000000000000000RA              35113877    005801890000018900000520000003NN  NNW 000                       N    
RDG04827000WATRL000000004K00000000000002665019108122015091234N000000000000N47       000040400K 10000000010000002656           
CUS0482700000104148101001         NARANGO MAX WILLIAM 613 OLD HOME RD                         000N        CARE OF             
MTR04827000001000000000000000RA              01071855    005801900000019000000610000003NN  NNW 000                       N    
RDG04827000WATRL000000004K00000000000002089019208122015091248N000000000020N47       000140400K 10000000010000002073           
CUS0482700000104148102009         JENNIFER L BEKIER   615 OLD HOME RD                         000N        CARE OF             
MTR04827000001000000000000000RA              46879241    005801910000019100000520000003NN  NNW 000                       N    
RDG04827000WATRL000000004K00000000000001329019308122015091303N000000000011N47       000050400K 10000000010000001319           
CUS0482700000104148103007         HARROW NAOMI L      701 OLD HOME RD                         000N        CARE OF             
MTR04827000001000000000000000RA              33735782    005801920000019200000520000003NN  NNW 000                       N    
RDG04827000WATRL000000004K00000000000003024019408122015091307N000000000000N47       000040400K 10000000010000003015           
CUS0482700000104148104005         FAIRLIE JUAN        703 OLD HOME RD                         000N        CARE OF             
MTR04827000001000000000000000RA              23647926    005801930000019300000520000003NN  NNW 000                       N    
RDG04827000WATRL000000004K00000000000003266019508122015091311N000000000000N47       000040400K 10000000010000003255           
CUS0482700000104148105002         HOLLOMAN SPURGEON L 705 OLD HOME RD                         000N        CARE OF             
MTR04827000001000000000000000RA              26002409    005801940000019400000520000003NN  NNW 000                       N    
RDG04827000WATRL000000004K00000000000002983019608122015091314N000000000000N47       000030400K 10000000010000002971           
CUS0482700000104148106000         MUNN GERALD JOSEPH  707 OLD HOME RD                         000N        CARE OF             
MTR04827000001000000000000000RA              41258711    005801950000019500000520000003NN  NNW 000                       N    
RDG04827000WATRL000000004K00000000000002078019708122015091319N000000000000N47       000050400K 10000000010000002067           
CUS0482700000104148107008         WOODIE REEVES ALLEN,709 OLD HOME RD                         000N        CARE OF             
MTR04827000001000000000000000RA              23647807    005801960000019600000520000003NN  NNW 000                       N    
RDG04827000WATRL000000004K00000000000002835019808122015091325N000000000000N47       000060400K 10000000010000002826           
CUS0482700000104148108006         LOSKOT EDWARD M     711 OLD HOME RD                         000N        CARE OF             
MTR04827000001000000000000000RA              99187994    005801970000019700000570000003NN  NNW 000                       N    
RDG04827000WATRL000000004K00000000000001439019908122015091329N000000000000N47       000040400K 10000000010000001434           
CUS0482700000104148109004         BAYNE DOMINIC F,SR  713 OLD HOME RD                         000N        CARE OF             
MTR04827000001000000000000000RA              10007416    005801980000019800000570000003NN  NNW 000                       N    
RDG04827000WATRL000000004K00000000000000423020008122015091332N000000000000N47       000030400K 10000000010000000414           
CUS0482700000104148110002         GRETCHER TORRES     715 OLD HOME RD                         000N        CARE OF             
MTR04827000001000000000000000RA              10005783    005801990000019900000570000003NN  NNW 000                       N    
RDG04827000WATRL000000004K00000000000000406020108122015091338N000000000000N47       000060400K 10000000010000000399           
CUS0482700000104148111000         PRESTILEO DOMENIC   717 OLD HOME RD                         000N        CARE OF             
MTR04827000001000000000000000RA              14929418    005802000000020000000310000003NN  NNW 000                       N    
RDG04827000WATRL000000004K00000000000000579020208122015091343N000000000000N47       000050400K 10000000010000000560           
CUS0482700000104148112008         C W STONEHAM PROPERT4421 KENWOOD AVE                        000N        CARE OF             
MTR04827000001000000000000000RA              01071850    005802010000020100000610000003NN  NNW 000                       N    
RDG04827000WATRL000000004K00000000000001562012908122015082152N000000000000N47       006870400K 10000000010000001521           
CUS0482700000104148113006         NORINO PROPERTIES IN4423 KENWOOD AVE                        000N        CARE OF             
MTR04827000001000000000000000RA              75615794    005802020000020200000350000003NN  NNW 000                       N    
RDG04827000WATRL000000004K00000000000000207013008122015082308N000000000000N47       000760400K 10000000010000000154           
CUS0482700000104148114004         NORINO PROPERTIES IN4425 KENWOOD AVE                        000N        CARE OF             
MTR04827000001000000000000000RA              45382982    005802030000020300000520000003NN  NNW 000                       N    
RDG04827000WATRL000000004K00000000000001524013108122015082322N000000000000N47       000140400K 10000000010000001498           
RTR04827000NN02030203000002030000000002030203000139NY020302030203000100000000000000000000000001    08052015NY020000 N         
RHD04772000NN02130213000002130000000002130213000095NY021302130213000000010000000000000000000001    08062015NY020000 N         
CUS0477200000104141457004         MILLER JO-ANNE      7807 HIGHPOINT RD                       000N        CARE OF             
MTR04772000001000000000000000RA              36687723    005800010000000100000520000003NN  NNW 000                       N    
RDG04772000WATRL000000004K00000000000002353000108122015061157N000000000000N40       000000400K 10000000010000002344           
CUS0477200000104141458002         TAYLOR JOHN G       7811 HIGHPOINT RD                       000N        CARE OF             
MTR04772000001000000000000000RA              01085580    005800020000000200000610000003NN  NNW 000                       N    
RDG04772000WATRL000000004K00000000000001276000208122015061241N000000000000N40       000440400K 10000000010000001258           
CUS0477200000104141459000         GONZALEZ ANIBAL D   7815 HIGHPOINT RD                       000N        CARE OF             
MTR04772000001000000000000000RA              00135402    005800030000000300000570000003NN  NNW 000                       N    
RDG04772000WATRL000000004K00000000000002078000308122015061320N000000000000N40       000390400K 10000000010000002045           
CUS0477200000104141460008         HENRY THOMAS J,JR   7817 HIGHPOINT RD                       000N        CARE OF             
MTR04772000001000000000000000RA              25780000    005800040000000400000520000003NN  NNW 000                       N    
RDG04772000WATRL000000004K00000000000004084000408122015061348N000000000000N40       000280400K 10000000010000004074           
CUS0477200000104141461006         RUPPERT RICHARD F   7819 HIGHPOINT RD                       000N        CARE OF             
MTR04772000001000000000000000RA              41257088    005800050000000500000520000003NN  NNW 000                       N    
RDG04772000WATRL000000004K00000000000002584000508122015061415N000000000000N40       000270400K 10000000010000002578           
CUS0477200000104141462004         BENNER JOHN ARTHUR,J7821 HIGHPOINT RD                       000N        CARE OF             
MTR04772000001000000000000000RA              41087133    005800060000000600000520000003NN  NNW 000                       N    
RDG04772000WATRL000000004K00000000000001310000608122015061448N000000000000N40       000330400K 10000000010000001302           
CUS0477200000104141463002         LOPEZ FRANCISCO     7822-1/2 HIGHPOINT RD                   000N        CARE OF             
MTR04772000001000000000000000RA              27213980    005800070000000700000520000003NN  NNW 000                       N    
RDG04772000WATRL000000004K00000000000003193019408122015074007N000000000000N40       000370400K 10000000010000003172           
CUS0477200000104141464000         TOPPER KATHLEEN A   7825 HIGHPOINT RD                       000N        CARE OF             
MTR04772000001000000000000000RA              00129544    005800080000000800000570000003NN  NNW 000                       N    
RDG04772000WATRL000000004K00000000000001409000708122015061513N000000000000N40       000250400K 10000000010000001386           
CUS0477200000104141465007         MOORE ERIN A        7827 HIGHPOINT RD                       000N        CARE OF             
MTR04772000001000000000000000RA              27814499    005800090000000900000520000003NN  NNW 000                       N    
RDG04772000WATRL000000004K00000000000002162000808122015061539N000400000010N40       000260400K 10000000010000002144           
CUS0477200000104141466005         RUPPERT MICHAEL J   7829 HIGHPOINT RD                       000N        CARE OF             
MTR04772000001000000000000000RA              9685196     005800100000001000000570000003NN  NNW 000                       N    
RDG04772000WATRL000000004K00000000000003639000908122015061608N000000000010N40       000290400K 10000000010000003639           
CUS0477200000104141467003         AMIG KENNETH K      7831 HIGHPOINT RD                       000N        CARE OF             
MTR04772000001000000000000000RA              26001203    005800110000001100000520000003NN  NNW 000                       N    
RDG04772000WATRL000000004K00000000000003514001008122015061637N000000000000N40       000290400K 10000000010000003489           
CUS0477200000104141468001         WEIMAN JAMES A      7833 HIGHPOINT RD                       000N        CARE OF             
MTR04772000001000000000000000RA              14903112    005800120000001200000310000003NN  NNW 000                       N    
RDG04772000WATRL000000004K00000000000000743001108122015061713N000000000000N40       000360400K 10000000010000000731           
CUS0477200000104141469009         PISAO EVERLY        7835 HIGHPOINT RD                       000N        CARE OF             
MTR04772000001000000000000000RA              14903109    005800130000001300000310000003NN  NNW 000                       N    
RDG04772000WATRL000000004K00000000000001728001208122015061717N000000000000N40       000040400K 10000000010000001688           
CUS0477200000104141470007         HUFF JAMES D        7837 HIGHPOINT RD                       000N        CARE OF             
MTR04772000001000000000000000RA              00129547    005800140000001400000570000003NN  NNW 000                       N    
RDG04772000WATRL000000004K00000000000001860001308122015061750N000000000010N40       000330400K 10000000010000001830           
CUS0477200000104141471005         STIFLER WILLIAM J   7839 HIGHPOINT RD                       000N        CARE OF             
MTR04772000001000000000000000RA              75424631    005800150000001500000350000003NN  NNW 000                       N    
RDG04772000WATRL000000004K00000000000000042001408122015061816N000000000000N40       000260400K 10000000010000000042           
CUS0477200000104141472003         RICHARD RONALD L    7841 HIGHPOINT RD                       000N        CARE OF             
MTR04772000001000000000000000RA              29084097    005800160000001600000520000003NN  NNW 000                       N    
RDG04772000WATRL000000004K00000000000002899001508122015061853N000000000000N40       000370400K 10000000010000002887           
CUS0477200000104141473001         SAHAYDA MATTHEW     7843 HIGHPOINT RD                       000N        CARE OF             
MTR04772000001000000000000000RA              24771563    005800170000001700000520000003NN  NNW 000                       N    
RDG04772000WATRL000000004K00000000000003477001608122015061859N000400000010N40       000060400K 10000000010000003476           
CUS0477200000104141474009         PEDONE PHILIP P,TRUS7901 HIGHPOINT RD                       000N        CARE OF             
MTR04772000001000000000000000RA              00129546    005800180000001800000570000003NN  NNW 000                       N    
RDG04772000WATRL000000004K00000000000001253001708122015061917N000000000000N40       000180400K 10000000010000001242           
CUS0477200000104141475006         CORDUTSKY GEORGE A  7903 HIGHPOINT RD                       000N        CARE OF             
MTR04772000001000000000000000RA              45375622    005800190000001900000520000003NN  NNW 000                       N    
RDG04772000WATRL000000004K00000000000001368001808122015061949N000000000001N40       000070400K 10000000010000001358           
CUS0477200000104141476004         LIND ROBERT J       7905 HIGHPOINT RD                       000N        CARE OF             
MTR04772000001000000000000000RA              35103436    005800200000002000000520000003NN  NNW 000                       N    
RDG04772000WATRL000000004K00000000000002162001908122015062005N000000000000N40       000160400K 10000000010000002159           
CUS0477200000104141477002         CAPERNA ARMANDO H   7909 HIGHPOINT RD                       000N        CARE OF             
MTR04772000001000000000000000RA              40781012    005800210000002100000520000003NN  NNW 000                       N    
RDG04772000WATRL000000004K00000000000002318002008122015062047N000000000000N40       000420400K 10000000010000002296           
CUS0477200000104141478000         BACHELOR GRACE A    7911 HIGHPOINT RD                       000N        CARE OF             
MTR04772000001000000000000000RA              38887202    005800220000002200000520000003NN  NNW 000                       N    
RDG04772000WATRL000000004K00000000000001332002108122015062116N000000000000N40       000290400K 10000000010000001316           
CUS0477200000104141479008         JEANETTE HARRINGTON 7913 HIGHPOINT RD                       000N        CARE OF             
MTR04772000001000000000000000RA              40048595    005800230000002300000520000003NN  NNW 000                       N    
RDG04772000WATRL000000004K00000000000001802002208122015062151N000000000000N40       000350400K 10000000010000001791           
CUS0477200000104141480006         FIORINI JOSEPH      7915 HIGHPOINT RD                       000N        CARE OF             
MTR04772000001000000000000000RA              32903167    005800240000002400000520000003NN  NNW 000                       N    
RDG04772000WATRL000000004K00000000000006746002308122015062225N000000000000N40       000340400K 10000000010000006716           
CUS0477200000104141481004         FIORINI HENRY       7917 HIGHPOINT RD                       000N        CARE OF             
MTR04772000001000000000000000RA              48589276    005800250000002500000520000003NN  NNW 000                       N    
RDG04772000WATRL000000004K00000000000001022002408122015062257N000000000000N40       000320400K 10000000010000001016           
CUS0477200000104141482002         DONNELLY DANIEL     7921 HIGHPOINT RD                       000N        CARE OF             
MTR04772000001000000000000000RA              01085582    005800260000002600000610000003NN  NNW 000                       N    
RDG04772000WATRL000000004K00000000000001679002508122015062334N000000000000N40       000370400K 10000000010000001659           
CUS0477200000104141483000         ANTHONY J FIORINI   7923 HIGHPOINT RD                       000N        CARE OF             
MTR04772000001000000000000000RA              75616447    005800270000002700000350000003NN  NNW 000                       N    
RDG04772000WATRL000000004K00000000000000144002608122015062359N000000000000N40       000250400K 10000000010000000133           
CUS0477200000104141484008         LLAMADO MINDI A     7929 HIGHPOINT RD                       000N        CARE OF             
MTR04772000001000000000000000RA              46885745    005800280000002800000520000003NN  NNW 000                       N    
RDG04772000WATRL000000004K00000000000002815002708122015062443N000000000000N40       000440400K 10000000010000002803           
CUS0477200000104141485005         CUPP JON G,JR       7931 HIGHPOINT RD                       000N        CARE OF             
MTR04772000001000000000000000RA              27820920    005800290000002900000520000003NN  NNW 000                       N    
RDG04772000WATRL000000004K00000000000002908002808122015062510N000000000000N40       000270400K 10000000010000002908           
CUS0477200000104141486003         RYAN M SCHMIDT      7933 HIGHPOINT RD                       000N        CARE OF             
MTR04772000001000000000000000RA              27817707    005800300000003000000520000003NN  NNW 000                       N    
RDG04772000WATRL000000004K00000000000004634002908122015062553N000000000000N40       000430400K 10000000010000004617           
CUS0477200000104141487001         BURLAS LOUIS JAMES,37922 HIGHPOINT RD                       000N        CARE OF             
MTR04772000001000000000000000RA              35104589    005800310000003100000520000003NN  NNW 000                       N    
RDG04772000WATRL000000004K00000000000003573017708122015073200N000000000000N40       000940400K 10000000010000003562           
CUS0477200000104141488009         STROTHER HOWARD LEE,7918 HIGHPOINT RD                       000N        CARE OF             
MTR04772000001000000000000000RA              46876182    005800320000003200000520000003NN  NNW 000                       N    
RDG04772000WATRL000000004K00000000000004290017808122015073251N000400000010N40       000510400K 10000000010000004273           
CUS0477200000104141489007         BAILEY ROBERT M     7916 HIGHPOINT RD                       000N        CARE OF             
MTR04772000001000000000000000RA              27828547    005800330000003300000520000003NN  NNW 000                       N    
RDG04772000WATRL000000004K00000000000003792017908122015073312N000000000000N40       000210400K 10000000010000003773           
CUS0477200000104141490005         BEDSWORTH ARNOLD N  7914 HIGHPOINT RD                       000N        CARE OF             
MTR04772000001000000000000000RA              48589283    005800340000003400000520000003NN  NNW 000                       N    
RDG04772000WATRL000000004K00000000000000988018008122015073340N000000000000N40       000280400K 10000000010000000988           
CUS0477200000104141491003         SCHAEFER STEPHEN JOH7912 HIGHPOINT RD                       000N        CARE OF             
MTR04772000001000000000000000RA              30518162    005800350000003500000520000003NN  NNW 000                       N    
RDG04772000WATRL000000004K00000000000004477018108122015073416N000000000000N40       000360400K 10000000010000004460           
CUS0477200000104141492001         TOTARO JAMES J      7910 HIGHPOINT RD                       000N        CARE OF             
MTR04772000001000000000000000RA              27814497    005800360000003600000520000003NN  NNW 000                       N    
RDG04772000WATRL000000004K00000000000002669018208122015073435N000000000000N40       000190400K 10000000010000002651           
CUS0477200000104141493009         MARCIA S THOMAS     7908 HIGHPOINT RD                       000N        CARE OF             
MTR04772000001000000000000000RA              01094537    005800370000003700000610000003NN  NNW 000                       N    
RDG04772000WATRL000000004K00000000000001705018308122015073518N000000000000N40       000430400K 10000000010000001691           
CUS0477200000104141494007         DECATUR NOBLE L,3RD 7906 HIGHPOINT RD                       000N        CARE OF             
MTR04772000001000000000000000RA              20968989    005800380000003800000520000003NN  NNW 000                       N    
RDG04772000WATRL000000004K00000000000006584018408122015073542N000000000000N40       000240400K 10000000010000006568           
CUS0477200000104141495004         BOER NICHOLAS A     7904 HIGHPOINT RD                       000N        CARE OF             
MTR04772000001000000000000000RA              41257084    005800390000003900000520000003NN  NNW 000                       N    
RDG04772000WATRL000000004K00000000000001855018508122015073615N000000000000N40       000330400K 10000000010000001843           
CUS0477200000104141496002         HENRY NORMAN B,2ND  7900 HIGHPOINT RD                       000N        CARE OF             
MTR04772000001000000000000000RA              24771902    005800400000004000000520000003NN  NNW 000                       N    
RDG04772000WATRL000000004K00000000000003386018708122015073707N000000000000N40       000230400K 10000000010000003380           
CUS0477200000104141497000         GRAY ANDREW         7902 HIGHPOINT RD                       000N        CARE OF             
MTR04772000001000000000000000RA              48589258    005800410000004100000520000003NN  NNW 000                       N    
RDG04772000WATRL000000004K00000000000001838018608122015073644N000000000000N40       000290400K 10000000010000001821           
CUS0477200000104141498008         WALTERS JOSEPH P,SR 7834 HIGHPOINT RD                       000N        CARE OF             
MTR04772000001000000000000000RA              44179045    005800420000004200000520000003NN  NNW 000                       N    
RDG04772000WATRL000000004K00000000000003893018808122015073741N000000000011N40       000090400K 10000000010000003878           
CUS0477200000104141499006         ROCHE LAWRENCE F    7832 HIGHPOINT RD                       000N        CARE OF             
MTR04772000001000000000000000RA              26000727    005800430000004300000520000003NN  NNW 000                       N    
RDG04772000WATRL000000004K00000000000004131018908122015073754N000000000000N40       000130400K 10000000010000004120           
CUS0477200000104141500001         EVANS TIMOTHY A,SR  7830 HIGHPOINT RD                       000N        CARE OF             
MTR04772000001000000000000000RA              9688202     005800440000004400000570000003NN  NNW 000                       N    
RDG04772000WATRL000000004K00000000000006896019008122015073819N000000000000N40       000250400K 10000000010000006877           
CUS0477200000104141501009         STEELE KATHERINE IRE7828 HIGHPOINT RD                       000N        CARE OF             
MTR04772000001000000000000000RA              00129543    005800450000004500000570000003NN  NNW 000                       N    
RDG04772000WATRL000000004K00000000000001569019108122015073842N000000000000N40       000230400K 10000000010000001541           
CUS0477200000104141502007         SHUSTER THOMAS J    7826 HIGHPOINT RD                       000N        CARE OF             
MTR04772000001000000000000000RA              32903166    005800460000004600000520000003NN  NNW 000                       N    
RDG04772000WATRL000000004K00000000000002672019208122015073912N000000000000N40       000300400K 10000000010000002665           
CUS0477200000104141503005         GARRISON SHARON ANN 7824 HIGHPOINT RD                       000N        CARE OF             
MTR04772000001000000000000000RA              48589273    005800470000004700000520000003NN  NNW 000                       N    
RDG04772000WATRL000000004K00000000000003186019308122015073930N000000000000N40       000180400K 10000000010000003161           
CUS0477200000104141504003         LORENZ HERMAN C,JR  7822 HIGHPOINT RD                       000N        CARE OF             
MTR04772000001000000000000000RA              10003737    005800480000004800000570000003NN  NNW 000                       N    
RDG04772000WATRL000000004K00000000000000278019508122015074022N000000000000N40       000150400K 10000000010000000278           
CUS0477200000104141505000         ANTONIO C MARTINEZ  7820 HIGHPOINT RD                       000N        CARE OF             
MTR04772000001000000000000000RA              10007767    005800490000004900000570000003NN  NNW 000                       N    
RDG04772000WATRL000000004K00000000000000435019608122015074043N000000000000N40       000210400K 10000000010000000412           
CUS0477200000104141506008         VALENTE DOMINIC P   7818 HIGHPOINT RD                       000N        CARE OF             
MTR04772000001000000000000000RA              35119200    005800500000005000000520000003NN  NNW 000                       N    
RDG04772000WATRL000000004K00000000000002254019708122015074104N000100000010N40       000210400K 10000000010000002254           
CUS0477200000104141507006         JENNYDB PROPERTIES L7816 HIGHPOINT RD                       000N        CARE OF             
MTR04772000001000000000000000RA              42809358    005800510000005100000520000003NN  NNW 000                       N    
RDG04772000WATRL000000004K00000000000001530019808122015074128N000400000010N40       000240400K 10000000010000001526           
CUS0477200000104141508004         MARSH MARK R        7814 HIGHPOINT RD                       000N        CARE OF             
MTR04772000001000000000000000RA              38887122    005800520000005200000520000003NN  NNW 000                       N    
RDG04772000WATRL000000004K00000000000003969019908122015074148N000000000000N40       000200400K 10000000010000003938           
CUS0477200000104141509002         CHRISTOPHER WALTER T7812 HIGHPOINT RD                       000N        CARE OF             
MTR04772000001000000000000000RA              27832415    005800530000005300000520000003NN  NNW 000                       N    
RDG04772000WATRL000000004K00000000000001898020008122015074212N000000000000N40       000240400K 10000000010000001885           
CUS0477200000104141510000         JOSE PINOS          7810 HIGHPOINT RD                       000N        CARE OF             
MTR04772000001000000000000000RA              9687055     005800540000005400000570000003NN  NNW 000                       N    
RDG04772000WATRL000000004K00000000000003027020108122015074231N000000000000N40       000190400K 10000000010000003011           
CUS0477200000104141511008         FRAVEL RICHARD M    7808 HIGHPOINT RD                       000N        CARE OF             
MTR04772000001000000000000000RA              24768611    005800550000005500000520000003NN  NNW 000                       N    
RDG04772000WATRL000000004K00000000000009481020208122015074300N000000000000N40       000290400K 10000000010000009449           
CUS0477200000104141512006         ZEA JOHN MARCELO    2306 TAYLOR AVE                         000N        CARE OF             
MTR04772000001000000000000000RA              50788981    005800560000005600000520000003NN  NNW 000                       N    
RDG04772000WATRL000000004K00000000000003624020308122015074403N000400000010N40       000630400K 10000000010000003610           
CUS0477200000104141513004         SHIPOWICK DAVID W   2304 TAYLOR AVE                         000N        CARE OF             
MTR04772000001000000000000000RA              99376041    007500570000005700000570000003NN  NNW 000                       N    
RDG04772000WATRL000000004K00000000000001841020408122015074426N000000000000N40       000230400K 10000000010000001830           
CUS0477200000104141514002         2300 TAYLOR, LLC    2300 TAYLOR AVE                         000N        CARE OF             
MTR04772000001000000000000000RA              44002838    005800580000005800000520000003NN  NNW 000                       N    
