FHDNNNN044009285009285009412N                                                                                           029532
RHD08559800NN01560156000001560000000001560156000245NY015601560156000000000000000000000000000002    08032015NY020000 N         
CUS0855980000108023940003         GARBER PHILIP F     1501 INGLESIDE AVE                      000N        CARE OF             
MTR08559800001000000000000000RA              35097728    005800010000000100000520000003NN  NNW 000                       N    
RDG08559800WATRL000000004K00000000000001998008208152015101343N000000000000N84       073430400K 10000000010000001992           
CUS0855980000108023941001         BROWN KATHLEEN M    1503 INGLESIDE AVE                      000N        CARE OF             
MTR08559800001000000000000000RA              33735691    005800020000000200000520000003NN  NNW 000                       N    
RDG08559800WATRL000000004K00000000000002474008308152015101350N000000000010N84       000070400K 10000000010000002464           
CUS0855980000108023942009         CHENG WING H        1505 INGLESIDE AVE                      000N        CARE OF             
MTR08559800001000000000000000RA              00139939    005800030000000300000570000003NN  NNW 000                       N    
RDG08559800WATRL000000004K00000000000001320008408152015101356N000000000010N84       000060400K 10000000010000001310           
CUS0855980000108023943007         HONS DONNA J        1507 INGLESIDE AVE                      000N        CARE OF             
MTR08559800001000000000000000RA              00140116    005800040000000400000570000003NN  NNW 000                       N    
RDG08559800WATRL000000004K00000000000000950008508152015101409N000000000040N84       000130400K 10000000010000000930           
CUS0855980000108023944005         COLLINS GREGORY T   1509 INGLESIDE AVE                      000N        CARE OF             
MTR08559800001000000000000000RA              01094114    005800050000000500000610000003NN  NNW 000                       N    
RDG08559800WATRL000000004K00000000000001688008608152015101414N000000000010N84       000050400K 10000000010000001678           
CUS0855980000108023945002         DAVIS MICHAEL       1511 INGLESIDE AVE                      000N        CARE OF             
MTR08559800001000000000000000RA              01094113    005800060000000600000610000003NN  NNW 000                       N    
RDG08559800WATRL000000004K00000000000001294008708152015101437N000000000050N84       000230400K 10000000010000001269           
CUS0855980000108023946000         PEOPLES WILLIAM H,4T1513 INGLESIDE AVE                      000N        CARE OF             
MTR08559800001000000000000000RA              01075492    005800070000000700000610000003NN  NNW 000                       N    
RDG08559800WATRL000000004K00000000000001622008808152015101451N000000000020N84       000140400K 10000000010000001607           
CUS0855980000108023947008         CHAFFMAN EDWARD CHAR1515 INGLESIDE AVE                      000N        CARE OF             
MTR08559800001000000000000000RA              00140115    005800080000000800000570000003NN  NNW 000                       N    
RDG08559800WATRL000000004K00000000000001735008908152015101456N000000000010N84       000050400K 10000000010000001725           
CUS0855980000108023948006         CRUMBACKER JESSE G  1517 INGLESIDE AVE                      000N        CARE OF             
MTR08559800001000000000000000RA              35108589    005800090000000900000520000003NN  NNW 000                       N    
RDG08559800WATRL000000004K00000000000000223009008152015101501N000000000010N84       000050400K 10000000010000000213           
CUS0855980000108023949004         GRIFFIN KENNETH L   1519 INGLESIDE AVE                      000N        CARE OF             
MTR08559800001000000000000000RA              27825042    005800100000001000000520000003NN  NNW 000                       N    
RDG08559800WATRL000000004K00000000000002589009108152015101517N000000000030N84       000160400K 10000000010000002574           
CUS0855980000108023950002         DAWKINS STUART EARL 1521 INGLESIDE AVE                      000N        CARE OF             
MTR08559800001000000000000000RA              26007677    005800110000001100000520000003NN  NNW 000                       N    
RDG08559800WATRL000000004K00000000000005072009208152015101529N000000000030N84       000120400K 10000000010000005057           
CUS0855980000108023951000         BERRY ALAN          1523 INGLESIDE AVE                      000N        CARE OF             
MTR08559800001000000000000000RA              45376735    005800120000001200000520000003NN  NNW 000                       N    
RDG08559800WATRL000000004K00000000000001248009308152015101534N000000000010N84       000050400K 10000000010000001238           
CUS0855980000108023952008         HEDGEPETH MICHELLE V1525 INGLESIDE AVE                      000N        CARE OF             
MTR08559800001000000000000000RA              26000566    005800130000001300000520000003NN  NNW 000                       N    
RDG08559800WATRL000000004K00000000000005157009408152015101540N000000000010N84       000060400K 10000000010000005147           
CUS0855980000108023953006         BRANDY P WIGGINS    1527 INGLESIDE AVE                      000N        CARE OF             
MTR08559800001000000000000000RA              23056653    005800140000001400000520000003NN  NNW 000                       N    
RDG08559800WATRL000000004K00000000000004583009508152015101558N000000000050N84       000180400K 10000000010000004557           
CUS0855980000108023954004         PARNELL KIMBERLY A  1529 INGLESIDE AVE                      000N        CARE OF             
MTR08559800001000000000000000RA              26007357    005800150000001500000520000003NN  NNW 000                       N    
RDG08559800WATRL000000004K00000000000004634009608152015101601N000000000000N84       000030400K 10000000010000004629           
CUS0855980000108023955001         YOUNG RICHARD K,SR  1531 INGLESIDE AVE                      000N        CARE OF             
MTR08559800001000000000000000RA              26007436    005800160000001600000520000003NN  NNW 000                       N    
RDG08559800WATRL000000004K00000000000002217009708152015101606N000000000010N84       000050400K 10000000010000002217           
CUS0855980000108023956009         EDMONDSON DEBORAH WA1533 INGLESIDE AVE                      000N        CARE OF             
MTR08559800001000000000000000RA              19460328    005800170000001700000520000003NN  NNW 000                       N    
RDG08559800WATRL000000004K00000000000004521009808152015101620N000000000030N84       000140400K 10000000010000004501           
CUS0855980000108023957007         INGLESIDE PARK TOWNH1565-73 INGLESIDE AVE                   000N        CARE OF             
MTR08559800001000000000000000RA              99410402    000100180000001800000570000003NN  NNW 000                       N    
RDG08559800WATRL000000004K00000000000006488000108152015072431N000000000000N84       000000400K 10000000010000006339           
CUS0855980000108023958005         INGLESIDE PARK TOWNH1575-99 INGLESIDE AVE                   000N        CARE OF             
MTR08559800001000000000000000RA              36700150    001500190000001900000520000003NN  NNW 000                       N    
RDG08559800WATRL000000005K00000000000001253000208152015072452N000000000000N84       000210500K 10000000010000000949           
CUS0855980000108022586005         CONSTANGO COREY C   1241 STELLA DR                          000N        CARE OF             
MTR08559800001000000000000000RA              44092823    005800200000002000000520000003NN  NNW 000                       N    
RDG08559800WATRL000000004K00000000000002948000308152015072524N000000000000N84       000320400K 10000000010000002933           
CUS0855980000108022587003         LOMAX FONDA         1239 STELLA DR                          000N        CARE OF             
MTR08559800001000000000000000RA              00139940    005800210000002100000570000003NN  NNW 000                       N    
RDG08559800WATRL000000004K00000000000000850000408152015072556N000000000000N84       000320400K 10000000010000000847           
CUS0855980000108022588001         KELLY DAWN          1237 STELLA DR                          000N        CARE OF             
MTR08559800001000000000000000RA              27132870    005800220000002200000520000003NN  NNW 000                       N    
RDG08559800WATRL000000004K00000000000003463000508152015072624N000000000000N84       000280400K 10000000010000003437           
CUS0855980000108022589009         KNIGHT ARMEDA       1235 STELLA DR                          000N        CARE OF             
MTR08559800001000000000000000RA              44086872    005800230000002300000520000003NN  NNW 000                       N    
RDG08559800WATRL000000004K00000000000002061000608152015072635N000000000000N84       000110400K 10000000010000002046           
CUS0855980000108022590007         MOTLEY CASSANDRA M  1233 STELLA DR                          000N        CARE OF             
MTR08559800001000000000000000RA              00139935    005800240000002400000570000003NN  NNW 000                       N    
RDG08559800WATRL000000004K00000000000002657000708152015072649N000000000000N84       000140400K 10000000010000002610           
CUS0855980000108022591005         CLARK VANESSA A     1231 STELLA DR                          000N        CARE OF             
MTR08559800001000000000000000RA              00139570    005800250000002500000570000003NN  NNW 000                       N    
RDG08559800WATRL000000004K00000000000001071000808152015072656N000000000000N84       000070400K 10000000010000001058           
CUS0855980000108022592003         HARRIS RONALD,SR    1229 STELLA DR                          000N        CARE OF             
MTR08559800001000000000000000RA              45377108    005800260000002600000520000003NN  NNW 000                       N    
RDG08559800WATRL000000004K00000000000001641000908152015072720N000000000000N84       000240400K 10000000010000001629           
CUS0855980000108022593001         BODDIE STANLEY L    1227 STELLA DR                          000N        CARE OF             
MTR08559800001000000000000000RA              48587758    005800270000002700000520000003NN  NNW 000                       N    
RDG08559800WATRL000000004K00000000000001445001008152015072751N000000000000N84       000310400K 10000000010000001430           
CUS0855980000108022594009         AAA PROPERTIES LLC  1225 STELLA DR                          000N        CARE OF             
MTR08559800001000000000000000RA              48587711    005800280000002800000520000003NN  NNW 000                       N    
RDG08559800WATRL000000004K00000000000000616001108152015072753N000000000000N84       000020400K 10000000010000000599           
CUS0855980000108022595006         HISSEY JOSEPH M     1223 STELLA DR                          000N        CARE OF             
MTR08559800001000000000000000RA              01070425    005800290000002900000610000003NN  NNW 000                       N    
RDG08559800WATRL000000004K00000000000000720001208152015072814N000000000000N84       000210400K 10000000010000000714           
CUS0855980000108022596004         FELDER KEISHA Y     1221 STELLA DR                          000N        CARE OF             
MTR08559800001000000000000000RA              01070420    005800300000003000000610000003NN  NNW 000                       N    
RDG08559800WATRL000000004K00000000000000860001308152015072822N000000000000N84       000080400K 10000000010000000835           
CUS0855980000108022597002         DAVIS QUINITA V     1219 STELLA DR                          000N        CARE OF             
MTR08559800001000000000000000RA              29685891    005800310000003100000520000003NN  NNW 000                       N    
RDG08559800WATRL000000004K00000000000003736001408152015072838N000000000000N84       000160400K 10000000010000003711           
CUS0855980000108022598000         MORGAN MICHAEL G    1217 STELLA DR                          000N        CARE OF             
MTR08559800001000000000000000RA              29686064    005800320000003200000520000003NN  NNW 000                       N    
RDG08559800WATRL000000004K00000000000004024001508152015072851N000000000000N84       000130400K 10000000010000003984           
CUS0855980000108022599008         HILLSINGER CHARLOTTE1215 STELLA DR                          000N        CARE OF             
MTR08559800001000000000000000RA              31581205    005800330000003300000520000003NN  NNW 000                       N    
RDG08559800WATRL000000004K00000000000003115001608152015072914N000000000000N84       000230400K 10000000010000003100           
CUS0855980000108022600004         AMES KAY T          1213 STELLA DR                          000N        CARE OF             
MTR08559800001000000000000000RA              01070428    005800340000003400000610000003NN  NNW 000                       N    
RDG08559800WATRL000000004K00000000000001300001708152015073001N000000000000N84       000470400K 10000000010000001284           
CUS0855980000108022601002         TERRY CLAUDE S,JR   1211 STELLA DR                          000N        CARE OF             
MTR08559800001000000000000000RA              48582561    005800350000003500000520000003NN  NNW 000                       N    
RDG08559800WATRL000000004K00000000000001311001808152015073017N000000000000N84       000160400K 10000000010000001293           
CUS0855980000108022602000         SAVAGE THOMAS       1209 STELLA DR                          000N        CARE OF             
MTR08559800001000000000000000RA              44090347    005800360000003600000520000003NN  NNW 000                       N    
RDG08559800WATRL000000004K00000000000002512001908152015073030N000000000000N84       000130400K 10000000010000002495           
CUS0855980000108022603008         EDWARDS DEBBIE D    1207 STELLA DR                          000N        CARE OF             
MTR08559800001000000000000000RA              44090346    005800370000003700000520000003NN  NNW 000                       N    
RDG08559800WATRL000000004K00000000000001891002008152015073055N000000000010N84       000250400K 10000000010000001881           
CUS0855980000108022604006         LENNON GWENDOLYN    1205 STELLA DR                          000N        CARE OF             
MTR08559800001000000000000000RA              01070427    005800380000003800000610000003NN  NNW 000                       N    
RDG08559800WATRL000000004K00000000000000813002108152015073058N000000000000N84       000030400K 10000000010000000806           
CUS0855980000108022605003         LEAKE TONYA Y       1203 STELLA DR                          000N        CARE OF             
MTR08559800001000000000000000RA              50787326    005800390000003900000520000003NN  NNW 000                       N    
RDG08559800WATRL000000004K00000000000001436002208152015073129N000000000000N84       000310400K 10000000010000001388           
CUS0855980000108022606001         HAMMOND TYREASE T   1201 STELLA DR                          000N        CARE OF             
MTR08559800001000000000000000RA              50787328    005800400000004000000520000003NN  NNW 000                       N    
RDG08559800WATRL000000004K00000000000001623002308152015073136N000000000000N84       000070400K 10000000010000001611           
CUS0855980000108022607009         BLOW STACY D        1200 STELLA DR                          000N        CARE OF             
MTR08559800001000000000000000RA              32573010    005800410000004100000520000003NN  NNW 000                       N    
RDG08559800WATRL000000004K00000000000002424002408152015073201N000000000000N84       000250400K 10000000010000002415           
CUS0855980000108022608007         SPADY ARZALIA L     1202 STELLA DR                          000N        CARE OF             
MTR08559800001000000000000000RA              32573006    005800420000004200000520000003NN  NNW 000                       N    
RDG08559800WATRL000000004K00000000000002278002508152015073204N000000000000N84       000030400K 10000000010000002275           
CUS0855980000108022609005         HUDSON NATONYA L    1204 STELLA DR                          000N        CARE OF             
MTR08559800001000000000000000RA              14907643    005800430000004300000310000003NN  NNW 000                       N    
RDG08559800WATRL000000004K00000000000000813002608152015073233N000000000000N84       000290400K 10000000010000000788           
CUS0855980000108022610003         MORAN JOHN B        1206 STELLA DR                          000N        CARE OF             
MTR08559800001000000000000000RA              14907457    005800440000004400000310000003NN  NNW 000                       N    
RDG08559800WATRL000000004K00000000000000359002708152015073235N000000000000N84       000020400K 10000000010000000339           
CUS0855980000108022611001         LOCKE CHARLES       1208 STELLA DR                          000N        CARE OF             
MTR08559800001000000000000000RA              48582601    005800450000004500000520000003NN  NNW 000                       N    
RDG08559800WATRL000000004K00000000000002099002808152015073308N000000000000N84       000330400K 10000000010000002081           
CUS0855980000108022612009         HILTON JOHNATHAN    1210 STELLA DR                          000N        CARE OF             
MTR08559800001000000000000000RA              48582605    005800460000004600000520000003NN  NNW 000                       N    
RDG08559800WATRL000000004K00000000000001293002908152015073315N000000000000N84       000070400K 10000000010000001283           
CUS0855980000108022613007         DICKERSON KAREN HAZE1701 STELLA CT                          000N        CARE OF             
MTR08559800001000000000000000RA              33734763    005800470000004700000520000003NN  NNW 000                       N    
RDG08559800WATRL000000004K00000000000001982003008152015073416N000000000000N84       000610400K 10000000010000001970           
CUS0855980000108022614005         JOHNSON WILLIAM E   1703 STELLA CT                          000N        CARE OF             
MTR08559800001000000000000000RA              44088658    005800480000004800000520000003NN  NNW 000                       N    
RDG08559800WATRL000000004K00000000000001322003108152015073425N000000000000N84       000090400K 10000000010000001300           
CUS0855980000108022615002         BASHIR JAMILAH      1705 STELLA CT                          000N        CARE OF             
MTR08559800001000000000000000RA              44088660    005800490000004900000520000003NN  NNW 000                       N    
RDG08559800WATRL000000004K00000000000001644003208152015073431N000000000000N84       000060400K 10000000010000001637           
CUS0855980000108022616000         BACON TERRY         1707 STELLA CT                          000N        CARE OF             
MTR08559800001000000000000000RA              46882606    005800500000005000000520000003NN  NNW 000                       N    
RDG08559800WATRL000000004K00000000000001644003308152015073456N000000000000N84       000250400K 10000000010000001639           
CUS0855980000108022617008         HOWARD KAREN U      1709 STELLA CT                          000N        CARE OF             
MTR08559800001000000000000000RA              75424166    005800510000005100000350000003NN  NNW 000                       N    
RDG08559800WATRL000000004K00000000000000347003408152015073508N000000000000N84       000120400K 10000000010000000315           
CUS0855980000108022618006         SMITH CHARLES,3RD   1711 STELLA CT                          000N        CARE OF             
MTR08559800001000000000000000RA              35102660    005800520000005200000520000003NN  NNW 000                       N    
RDG08559800WATRL000000004K00000000000004597003508152015073538N000000000000N84       000300400K 10000000010000004539           
CUS0855980000108022619004         MORRIS DEBORAH      1713 STELLA CT                          000N        CARE OF             
MTR08559800001000000000000000RA              44174760    005800530000005300000520000003NN  NNW 000                       N    
RDG08559800WATRL000000004K00000000000001816003608152015073618N000000000000N84       000400400K 10000000010000001802           
CUS0855980000108022620002         FOXE CANDICE M      1715 STELLA CT                          000N        CARE OF             
MTR08559800001000000000000000RA              44174764    005800540000005400000520000003NN  NNW 000                       N    
RDG08559800WATRL000000004K00000000000001961003708152015073626N000000000000N84       000080400K 10000000010000001950           
CUS0855980000108022621000         KATHERINE M. CERRA  1717 STELLA CT                          000N        CARE OF             
MTR08559800001000000000000000RA              44090345    005800550000005500000520000003NN  NNW 000                       N    
RDG08559800WATRL000000004K00000000000003204003808152015073649N000000000000N84       000230400K 10000000010000003189           
CUS0855980000108022622008         CHASE               1719 STELLA CT                          000N        CARE OF             
MTR08559800001000000000000000RA              01070102    005800560000005600000610000003NN  NNW 000                       N    
RDG08559800WATRL000000004K00000000000000873003908152015073659N000000000000N84       000100400K 10000000010000000870           
CUS0855980000108022623006         SQUIRRELL WILLIAM   1721 STELLA CT                          000N        CARE OF             
MTR08559800001000000000000000RA              25781802    005800570000005700000520000003NN  NNW 000                       N    
RDG08559800WATRL000000004K00000000000004945004008152015073913N000000000000N84       001340400K 10000000010000004910           
CUS0855980000108022624004         MATTHEWS DOUGLAS L  1723 STELLA CT                          000N        CARE OF             
MTR08559800001000000000000000RA              39924302    005800580000005800000520000003NN  NNW 000                       N    
RDG08559800WATRL000000004K00000000000002802004108152015073915N000000000000N84       000020400K 10000000010000002790           
CUS0855980000108022625001         GADSON DEREK        1708 STELLA CT                          000N        CARE OF             
MTR08559800001000000000000000RA              44090348    005800590000005900000520000003NN  NNW 000                       N    
RDG08559800WATRL000000004K00000000000001601004208152015073952N000400000010N84       000370400K 10000000010000001597           
CUS0855980000108022626009         MEADS GLENDA M      1706 STELLA CT                          000N        CARE OF             
MTR08559800001000000000000000RA              36688346    005800600000006000000520000003NN  NNW 000                       N    
RDG08559800WATRL000000004K00000000000003995004308152015074035N000000000000N84       000430400K 10000000010000003955           
CUS0855980000108022627007         WEAVER CYNTHIA B    1704 STELLA CT                          000N        CARE OF             
MTR08559800001000000000000000RA              36688386    005800610000006100000520000003NN  NNW 000                       N    
RDG08559800WATRL000000004K00000000000004452004408152015074038N000000000000N84       000030400K 10000000010000004414           
CUS0855980000108022628005         HOPKINS WHITNEY N   1702 STELLA CT                          000N        CARE OF             
MTR08559800001000000000000000RA              24768141    005800620000006200000520000003NN  NNW 000                       N    
RDG08559800WATRL000000004K00000000000003108004508152015074120N000000000000N84       000420400K 10000000010000003086           
CUS0855980000108022629003         CLAYBORNE JOYCE A   1700 STELLA CT                          000N        CARE OF             
MTR08559800001000000000000000RA              24768046    005800630000006300000520000003NN  NNW 000                       N    
RDG08559800WATRL000000004K00000000000003756004608152015074123N000000000000N84       000030400K 10000000010000003745           
CUS0855980000108022630001         JIMENEZ OSCAR       1226 STELLA DR                          000N        CARE OF             
MTR08559800001000000000000000RA              33736075    005800640000006400000520000003NN  NNW 000                       N    
RDG08559800WATRL000000004K00000000000003049004708152015074232N000000000000N84       000690400K 10000000010000003042           
CUS0855980000108022631009         WALTON DEREK J      1228 STELLA DR                          000N        CARE OF             
MTR08559800001000000000000000RA              14904401    005800650000006500000310000003NN  NNW 000                       N    
RDG08559800WATRL000000004K00000000000000439004808152015074235N000000000000N84       000030400K 10000000010000000426           
CUS0855980000108022632007         LEE SARAH Y         1230 STELLA DR                          000N        CARE OF             
MTR08559800001000000000000000RA              27133288    005800660000006600000520000003NN  NNW 000                       N    
RDG08559800WATRL000000004K00000000000003633004908152015074309N000000000000N84       000340400K 10000000010000003600           
CUS0855980000108022633005         WILLIAMS CHANTEL M  1232 STELLA DR                          000N        CARE OF             
MTR08559800001000000000000000RA              44174765    005800670000006700000520000003NN  NNW 000                       N    
RDG08559800WATRL000000004K00000000000001849005008152015074316N000000000000N84       000070400K 10000000010000001846           
CUS0855980000108022634003         JOHNSON MICHAEL     1234 STELLA DR                          000N        CARE OF             
MTR08559800001000000000000000RA              01106225    005800680000006800000610000003NN  NNW 000                       N    
RDG08559800WATRL000000004K00000000000001160005108152015074341N000000000000N84       000250400K 10000000010000001136           
CUS0855980000108022635000         RAHMAN MOHAMMAD T   1236 STELLA DR                          000N        CARE OF             
MTR08559800001000000000000000RA              01106216    005800690000006900000610000003NN  NNW 000                       N    
RDG08559800WATRL000000004K00000000000001334005208152015074351N000000000000N84       000100400K 10000000010000001299           
CUS0855980000108023959003         WALLACE ANTONIO A   5923 FRANKLIN AVE                       000N        CARE OF             
MTR08559800001000000000000000RA              10016688    005800700000007000000570000003NN  NNW 000                       N    
RDG08559800WATRL000000004K00000000000000288009908152015101645N000000000040N84       000250400K 10000000010000000273           
CUS0855980000108023960001         MOORE MELANIE MARIE 5921 FRANKLIN AVE                       000N        CARE OF             
MTR08559800001000000000000000RA              11331069    005800710000007100000570000003NN  NNW 000                       N    
RDG08559800WATRL000000004K00000000000002467010008152015101649N000000000000N84       000040400K 10000000010000002461           
CUS0855980000108023961009         PHU VINH TRUONG     5919 FRANKLIN AVE                       000N        CARE OF             
MTR08559800001000000000000000RA              50791307    005800720000007200000520000003NN  NNW 000                       N    
RDG08559800WATRL000000004K00000000000002234010108152015101702N000000000030N84       000130400K 10000000010000002219           
CUS0855980000108023962007         ELAINE LOTTES       5917 FRANKLIN AVE                       000N        CARE OF             
MTR08559800001000000000000000RA              31585818    005800730000007300000520000003NN  NNW 000                       N    
RDG08559800WATRL000000004K00000000000000803010208152015101714N000000000030N84       000120400K 10000000010000000792           
CUS0855980000108023963005         PHAM MINH-QUANG VAN 5913 FRANKLIN AVE                       000N        CARE OF             
MTR08559800001000000000000000RA              27813774    005800740000007400000520000003NN  NNW 000                       N    
RDG08559800WATRL000000004K00000000000006313010308152015101803N000000000090N84       000490400K 10000000010000006255           
CUS0855980000108023964003         BALTIMORE HOME WHOLE5911 FRANKLIN AVE                       000N        CARE OF             
MTR08559800001000000000000000RA              52287312    005800750000007500000520000003NN  NNW 000                       N    
RDG08559800WATRL000000004K00000000000004613010408152015101816N000000000030N84       000130400K 10000000010000004591           
CUS0855980000108023965000         GONZALEZ NANCY      5909 FRANKLIN AVE                       000N        CARE OF             
MTR08559800001000000000000000RA              01070422    005800760000007600000610000003NN  NNW 000                       N    
RDG08559800WATRL000000004K00000000000001033010508152015101822N000000000010N84       000060400K 10000000010000001023           
CUS0855980000108023966008         CALLOWAY CYNTHIA A  5907 FRANKLIN AVE                       000N        CARE OF             
MTR08559800001000000000000000RA              01070421    005800770000007700000610000003NN  NNW 000                       N    
RDG08559800WATRL000000004K00000000000001952010608152015101828N000000000010N84       000060400K 10000000010000001942           
CUS0855980000108398896004         SHAKINA MARTIN      5905 FRANKLIN AVE                       000N        CARE OF             
MTR08559800001000000000000000RA              40320669    005800780000007800000520000003NN  NNW 000                       N    
RDG08559800WATRL000000004K00000000000005044010708152015101837N000000000020N84       000090400K 10000000010000005029           
CUS0855980000108023967006         REID RICHARD C,JR   1540 INGLESIDE AVE                      000N        CARE OF             
MTR08559800001000000000000000RA              52287314    005800790000007900000520000003NN  NNW 000                       N    
RDG08559800WATRL000000004K00000000000004649005408152015074631N000000000000N84       000350400K 10000000010000004585           
CUS0855980000108441663005         MFUME KEITH         1540A INGLESIDE AVE                     000N        CARE OF             
MTR08559800001000000000000000RA              14929679    005800800000008000000310000003NN  NNW 000                       N    
RDG08559800WATRL000000004K00000000000001358005308152015074556N000000000000N84       001250400K 10000000010000001275           
CUS0855980000108023969002         BURKS MARTIN A JR   1532 INGLESIDE AVE                      000N        CARE OF             
MTR08559800001000000000000000RA              01070426    005800810000008100000610000003NN  NNW 000                       N    
RDG08559800WATRL000000004K00000000000001467008108152015081120N000000000000N84       001580400K 10000000010000001423           
CUS0855980000108023970000         HARMAN NORMAN E     1528 INGLESIDE AVE                      000N        CARE OF             
MTR08559800001000000000000000RA              39289581    005800820000008200000520000003NN  NNW 000                       N    
RDG08559800WATRL000000004K00000000000000700005508152015074957N000000000000N84       002060400K 10000000010000000692           
CUS0855980000108023971008         WIGGINS ROBERT SAMUE1524 INGLESIDE AVE                      000N        CARE OF             
MTR08559800001000000000000000RA              01076052    005800830000008300000610000003NN  NNW 000                       N    
RDG08559800WATRL000000004K00000000000000888005608152015075040N000000000000N84       000430400K 10000000010000000876           
CUS0855980000108023972006         LOTZ JOSEPH L       5904 HILLTOP AVE                        000N        CARE OF             
MTR08559800001000000000000000RA              99290198    005800840000008400000570000003NN  NNW 000                       N    
RDG08559800WATRL000000004K00000000000001304005808152015075202N000000000000N84       000230400K 10000000010000001296           
CUS0855980000108023973004         HALL LARRY L        5906 HILLTOP AVE                        000N        CARE OF             
MTR08559800001000000000000000RA              24765909    005800850000008500000520000003NN  NNW 000                       N    
RDG08559800WATRL000000004K00000000000002034005908152015075223N000000000000N84       000210400K 10000000010000002027           
CUS0855980000108023974002         BROWN CASSANDRA     5908 HILLTOP AVE                        000N        CARE OF             
MTR08559800001000000000000000RA              01070429    005800860000008600000610000003NN  NNW 000                       N    
RDG08559800WATRL000000004K00000000000001542010808152015101849N000000000020N84       000120400K 10000000010000001527           
CUS0855980000108023975009         LUPTON CLAYTON      5910 HILLTOP AVE                        000N        CARE OF             
MTR08559800001000000000000000RA              50789579    005800870000008700000520000003NN  NNW 000                       N    
RDG08559800WATRL000000004K00000000000000874006008152015075307N000000000000N84       000440400K 10000000010000000861           
CUS0855980000108023976007         MCCALL PAUL A,SR    5912 HILLTOP AVE                        000N        CARE OF             
MTR08559800001000000000000000RA              99289915    005800880000008800000570000003NN  NNW 000                       N    
RDG08559800WATRL000000004K00000000000001528006108152015075504N000000000000N84       001170400K 10000000010000001508           
CUS0855980000108023977005         ADIGUN ABAYOMI      5914 HILLTOP AVE                        000N        CARE OF             
MTR08559800001000000000000000RA              99187004    005800890000008900000570000003NN  NNW 000                       N    
RDG08559800WATRL000000004K00000000000001838006208152015075533N000000000000N84       000290400K 10000000010000001816           
CUS0855980000108023978003         BROWN SAMUEL B      5916 HILLTOP AVE                        000N        CARE OF             
MTR08559800001000000000000000RA              01070424    005800900000009000000610000003NN  NNW 000                       N    
RDG08559800WATRL000000004K00000000000000917006308152015075603N000300000010N84       000300400K 10000000010000000847           
CUS0855980000108023979001         PARSONS FRED L,JR   5918 HILLTOP AVE                        000N        CARE OF             
MTR08559800001000000000000000RA              99286610    005800910000009100000570000003NN  NNW 000                       N    
RDG08559800WATRL000000004K00000000000000449006408152015075703N000000000010N84       000600400K 10000000010000000441           
CUS0855980000108023980009         JONES RODNEY R      5922 HILLTOP AVE                        000N        CARE OF             
MTR08559800001000000000000000RA              27833587    005800920000009200000520000003NN  NNW 000                       N    
RDG08559800WATRL000000004K00000000000004995006508152015075722N000000000000N84       000190400K 10000000010000004978           
CUS0855980000108023981007         DELGIUDICE DOROTHY J5926 HILLTOP AVE                        000N        CARE OF             
MTR08559800001000000000000000RA              01070200    005800930000009300000610000003NN  NNW 000                       N    
RDG08559800WATRL000000004K00000000000000443006608152015075829N000000000000N84       000670400K 10000000010000000438           
CUS0855980000108023982005         CAVEY DAVID S       5930 HILLTOP AVE                        000N        CARE OF             
MTR08559800001000000000000000RA              76344423    005800940000009400000350000003NN  NNW 000                       N    
RDG08559800WATRL000000004K00000000000000084010908152015102035N000000000020N84       001060400K 10000000010000000074           
CUS0855980000108371580005         MCGOWAN CATHERINE M 5934 HILLTOP AVE                        000N        CARE OF             
MTR08559800001000000000000000RA              10016126    005800950000009500000570000003NN  NNW 000                       N    
RDG08559800WATRL000000004K00000000000000267011008152015102038N000000000000N84       000030400K 10000000010000000267           
CUS0855980000108352206000         MCCALLA DANIEL      5936 HILLTOP AVE                        000N        CARE OF             
MTR08559800001000000000000000RA              27822520    005800960000009600000520000003NN  NNW 000                       N    
RDG08559800WATRL000000004K00000000000003992011108152015102046N000000000010N84       000080400K 10000000010000003982           
CUS0855980000108403569000         JOSEPH A. FIGUEROA  5936A HILLTOP AVE                       000N        CARE OF             
MTR08559800001000000000000000RA              41088162    005800970000009700000520000000NN  NNW 000                       N    
RDG08559800WATRL000000004K00000000000001941011208152015102109N000000000060N84       000230400K 10000000010000001916           
CUS0855980000108364754005         CARTER WILLIAM C    5938 HILLTOP AVE                        000N        CARE OF             
MTR08559800001000000000000000RA              30520734    005800980000009800000520000003NN  NNW 000                       N    
RDG08559800WATRL000000004K00000000000003868011308152015102112N000000000000N84       000030400K 10000000010000003863           
CUS0855980000108437639001         SANDOVAL HERNAN D   5938A HILLTOP AVE                       000N        CARE OF             
MTR08559800001000000000000000RA              14907446    005800990000009900000310000003NN  NNW 000                       N    
RDG08559800WATRL000000004K00000000000001508011408152015102139N000000000080N84       000270400K 10000000010000001472           
CUS0855980000108023983003         HOUSEHOLD FINANCE CO5940 HILLTOP AVE                        000N        CARE OF             
MTR08559800001000000000000000RA              27823584    005801000000010000000520000003NN  NNW 000                       N    
RDG08559800WATRL000000004K00000000000001122011508152015102149N000000000020N84       000100400K 10000000010000001112           
CUS0855980000108404039003         KHAN RAO JAHANZEB   5959 HILLTOP AVE                        000N        CARE OF             
MTR08559800001000000000000000RA              44090194    005801010000010100000520000003NN  NNW 000                       N    
RDG08559800WATRL000000004K00000000000004808011608152015102235N000000000090N84       000460400K 10000000010000004754           
CUS0855980000108410792009         JOHNSON BEVERLY A   5955 HILLTOP AVE                        000N        CARE OF             
MTR08559800001000000000000000RA              41086777    005801020000010200000520000003NN  NNW 000                       N    
RDG08559800WATRL000000004K00000000000003078011708152015104500N000000000020N84       013450400K 10000000010000003063           
CUS0855980000108390125006         EDWARDS THOMAS,JR   5937 HILLTOP AVE                        000N        CARE OF             
MTR08559800001000000000000000RA              36692439    005801030000010300000520000003NN  NNW 000                       N    
RDG08559800WATRL000000004K00000000000003098011808152015104509N000000000020N84       000090400K 10000000010000003084           
CUS0855980000108023984001         MONGER CAROL        5935 HILLTOP AVE                        000N        CARE OF             
MTR08559800001000000000000000RA              23645047    005801040000010400000520000003NN  NNW 000                       N    
RDG08559800WATRL000000004K00000000000003141011908152015104512N000000000000N84       000030400K 10000000010000003136           
CUS0855980000108401725000         AUSTIN MICHAEL A    5931 HILLTOP AVE                        000N        CARE OF             
MTR08559800001000000000000000RA              41075613    005801050000010500000520000003NN  NNW 000                       N    
RDG08559800WATRL000000004K00000000000004261012008152015104541N000000000040N84       000290400K 10000000010000004241           
CUS0855980000108023985008         KITOE DOROTHY A     1520 DORCHESTER AVE                     000N        CARE OF             
MTR08559800001000000000000000RA              00140258    005801060000010600000570000003NN  NNW 000                       N    
RDG08559800WATRL000000004K00000000000001846015608152015113051N000000000091N84       000120400K 10000000010000001771           
CUS0855980000108023986006         TUCKER OMAR NORRIS  5929 HILLTOP AVE                        000N        CARE OF             
MTR08559800001000000000000000RA              01070104    005801070000010700000610000003NN  NNW 000                       N    
RDG08559800WATRL000000004K00000000000002029007108152015080236N000400000010N84       000750400K 10000000010000001968           
CUS0855980000108023987004         ROE ANNE E          5927 HILLTOP AVE                        000N        CARE OF             
MTR08559800001000000000000000RA              01070109    005801080000010800000610000003NN  NNW 000                       N    
RDG08559800WATRL000000004K00000000000000941007208152015080306N000000000000N84       000300400K 10000000010000000898           
CUS0855980000108023988002         CUMMINGS RAYMOND E  5925 HILLTOP AVE                        000N        CARE OF             
MTR08559800001000000000000000RA              52286003    005801090000010900000520000003NN  NNW 000                       N    
RDG08559800WATRL000000004K00000000000000883007308152015080351N000000000000N84       000450400K 10000000010000000863           
CUS0855980000108023989000         HANNON JAMES I      5923 HILLTOP AVE                        000N        CARE OF             
MTR08559800001000000000000000RA              01070108    005801100000011000000610000003NN  NNW 000                       N    
RDG08559800WATRL000000004K00000000000001649007408152015080413N000000000000N84       000220400K 10000000010000001635           
CUS0855980000108023990008         POE DANIEL          5907 HILLTOP AVE                        000N        CARE OF             
MTR08559800001000000000000000RA              32178593    005801110000011100000520000003NN  NNW 000                       N    
RDG08559800WATRL000000004K00000000000006016007508152015080442N000000000000N84       000290400K 10000000010000005974           
CUS0855980000108023991006         JACKSON AMANDA D    5905 HILLTOP AVE                        000N        CARE OF             
MTR08559800001000000000000000RA              29680801    005801120000011200000520000003NN  NNW 000                       N    
RDG08559800WATRL000000004K00000000000002172007608152015080541N000000000000N84       000590400K 10000000010000002168           
CUS0855980000108023992004         NAGY STEVE M        5903 HILLTOP AVE                        000N        CARE OF             
MTR08559800001000000000000000RA              52286154    005801130000011300000520000003NN  NNW 000                       N    
RDG08559800WATRL000000004K00000000000001334005708152015075139N000000000000N84       000590400K 10000000010000001323           
CUS0855980000108023993002         MCGREGOR KELLY      1520 INGLESIDE AVE                      000N        CARE OF             
MTR08559800001000000000000000RA              77881990    005801140000011400000360000003NN  NNW 000                       N    
RDG08559800WATRL000000004K00000000000000028007708152015080651N000000000000N84       000700400K 10000000010000000011           
CUS0855980000108023994000         CARLYLE JEDLICKICA  1518-1/2 INGLESIDE AVE                  000N        CARE OF             
MTR08559800001000000000000000RA              26000569    005801150000011500000520000003NN  NNW 000                       N    
RDG08559800WATRL000000004K00000000000002788007808152015080742N000000000000N84       000510400K 10000000010000002771           
CUS0855980000108023995007         RODERICK A STREET SR1518 INGLESIDE AVE                      000N        CARE OF             
MTR08559800001000000000000000RA              11331064    005801160000011600000570000003NN  NNW 000                       N    
RDG08559800WATRL000000004K00000000000003065007908152015080816N000400000010N84       000340400K 10000000010000003046           
CUS0855980000108023996005         STARKS SHELBY K     1516 INGLESIDE AVE                      000N        CARE OF             
MTR08559800001000000000000000RA              10023864    005801170000011700000570000003NN  NNW 000                       N    
RDG08559800WATRL000000004K00000000000000193008008152015080842N000000000000N84       000260400K 10000000010000000175           
CUS0855980000108023997003         PETERSON JESSICA    5900 SUNSET AVE                         000N        CARE OF             
MTR08559800001000000000000000RA              32178537    005801180000011800000520000003NN  NNW 000                       N    
RDG08559800WATRL000000004K00000000000001852012108152015104959N000000000010N84       002580400K 10000000010000001842           
CUS0855980000108023998001         WILLIAMS N B,JR     5902 SUNSET AVE                         000N        CARE OF             
MTR08559800001000000000000000RA              01070201    005801190000011900000610000003NN  NNW 000                       N    
RDG08559800WATRL000000004K00000000000001279012208152015105010N000000000020N84       000110400K 10000000010000001264           
CUS0855980000108023999009         MOBUARY YOLANDA A   5904 SUNSET AVE                         000N        CARE OF             
MTR08559800001000000000000000RA              01070207    005801200000012000000570000003NN  NNW 000                       N    
RDG08559800WATRL000000004K00000000000000643012308152015105012N000000000000N84       000020400K 10000000010000000638           
CUS0855980000108024000005         DILLOW NANCY LEE    5906 SUNSET AVE                         000N        CARE OF             
MTR08559800001000000000000000RA              01070205    005801210000012100000610000003NN  NNW 000                       N    
RDG08559800WATRL000000004K00000000000001671012408152015105022N000000000020N84       000100400K 10000000010000001656           
CUS0855980000108024001003         ACQUI JOSEPH KOLLIE,5922 SUNSET AVE                         000N        CARE OF             
MTR08559800001000000000000000RA              44175728    005801220000012200000520000003NN  NNW 000                       N    
RDG08559800WATRL000000004K00000000000002200012508152015105037N000000000030N84       000150400K 10000000010000002200           
CUS0855980000108024002001         BROWN CHARLES L,JR  5928 SUNSET AVE                         000N        CARE OF             
MTR08559800001000000000000000RA              35097325    005801230000012300000520000003NN  NNW 000                       N    
RDG08559800WATRL000000004K00000000000003510012608152015105039N000000000000N84       000020400K 10000000010000003505           
CUS0855980000108024003009         CLAYTON MELISSA J   5930 SUNSET AVE                         000N        CARE OF             
MTR08559800001000000000000000RA              41258846    005801240000012400000520000003NN  NNW 000                       N    
RDG08559800WATRL000000004K00000000000001556012708152015105042N000000000000N84       000030400K 10000000010000001551           
CUS0855980000108442368000         SMITH EARL          1508 DORCHESTER AVE                     000N        CARE OF             
MTR08559800001000000000000000RA              14924860    005801250000012500000310000003NN  NNW 000                       N    
RDG08559800WATRL000000004K00000000000000592006708152015075924N000400000010N84       000550400K 10000000010000000570           
CUS0855980000108442512003         TRAN BILL           1506 DORCHESTER AVE                     000N        CARE OF             
MTR08559800001000000000000000RA              14925057    005801260000012600000310000003NN  NNW 000                       N    
RDG08559800WATRL000000004K00000000000000464006808152015075956N000000000000N84       000320400K 10000000010000000447           
CUS0855980000108024004007         DONALD J GODDARD    1504 DORCHESTER AVE                     000N        CARE OF             
MTR08559800001000000000000000RA              33077130    005801270000012700000520000003NN  NNW 000                       N    
RDG08559800WATRL000000004K00000000000002392006908152015080026N000100000010N84       000300400K 10000000010000002392           
CUS0855980000108024005004         RICHARDSON KAREN A  1502 DORCHESTER AVE                     000N        CARE OF             
MTR08559800001000000000000000RA              26017892    005801280000012800000520000003NN  NNW 000                       N    
RDG08559800WATRL000000004K00000000000002522007008152015080121N000000000000N84       000550400K 10000000010000002519           
CUS0855980000108024006002         LOUDENSLAGER DEBRA M1500 DORCHESTER AVE                     000N        CARE OF             
MTR08559800001000000000000000RA              30517376    005801290000012900000520000003NN  NNW 000                       N    
RDG08559800WATRL000000004K00000000000001165012808152015105051N000000000000N84       000090400K 10000000010000001160           
CUS0855980000108024007000         ANDERSON KENNETH LEE5932 SUNSET AVE                         000N        CARE OF             
MTR08559800001000000000000000RA              35107069    005801300000013000000520000003NN  NNW 000                       N    
RDG08559800WATRL000000004K00000000000001087012908152015105054N000000000000N84       000030400K 10000000010000001082           
CUS0855980000108024008008         WF CHESLEY REAL ESTA5932-1/2 SUNSET AVE                     000N        CARE OF             
MTR08559800001000000000000000RA              30517341    005801310000013100000520000003NN  NNW 000                       N    
RDG08559800WATRL000000004K00000000000003199013008152015105057N000000000000N84       000030400K 10000000010000003199           
CUS0855980000108024009006         GOULD ROBERT J,SR   5934 SUNSET AVE                         000N        CARE OF             
MTR08559800001000000000000000RA              26017895    005801320000013200000520000003NN  NNW 000                       N    
RDG08559800WATRL000000004K00000000000003377013108152015105112N000000000030N84       000150400K 10000000010000003367           
CUS0855980000108024010004         CROUCH ANTHONY B    5936 SUNSET AVE                         000N        CARE OF             
MTR08559800001000000000000000RA              01070204    005801330000013300000610000003NN  NNW 000                       N    
RDG08559800WATRL000000004K00000000000001071013208152015105127N000000000010N84       000150400K 10000000010000001061           
CUS0855980000108024011002         ENRIQUEZ ELIZABETH/M5938 SUNSET AVE                         000N        CARE OF             
MTR08559800001000000000000000RA              01070206    005801340000013400000610000003NN  NNW 000                       N    
RDG08559800WATRL000000004K00000000000001057013308152015105142N000000000050N84       000150400K 10000000010000001037           
CUS0855980000108024012000         CUNNINGHAM MILDRED  5940 SUNSET AVE                         000N        CARE OF             
MTR08559800001000000000000000RA              39289595    005801350000013500000520000003NN  NNW 000                       N    
RDG08559800WATRL000000004K00000000000002552013408152015105146N000000000000N84       000040400K 10000000010000002547           
CUS0855980000108024013008         JONES ELSIE A       5942 SUNSET AVE                         000N        CARE OF             
MTR08559800001000000000000000RA              01070203    005801360000013600000610000003NN  NNW 000                       N    
RDG08559800WATRL000000004K00000000000000985013508152015105148N000000000000N84       000020400K 10000000010000000980           
CUS0855980000108024014006         NASIR SHEILA        5950 SUNSET AVE                         000N        CARE OF             
MTR08559800001000000000000000RA              27819361    005801370000013700000520000003NN  NNW 000                       N    
RDG08559800WATRL000000004K00000000000001961013608152015105205N000000000050N84       000170400K 10000000010000001941           
CUS0855980000108024015003         JIGNYA PATEL        5954 SUNSET AVE                         000N        CARE OF             
MTR08559800001000000000000000RA              14911846    005801380000013800000310000003NN  NNW 000                       N    
RDG08559800WATRL000000004K00000000000000235013708152015105208N000000000000N84       000030400K 10000000010000000228           
CUS0855980000108024016001         KAPRAUN DEBORAH L   5953 SUNSET AVE                         000N        CARE OF             
MTR08559800001000000000000000RA              01077329    005801390000013900000610000003NN  NNW 000                       N    
RDG08559800WATRL000000004K00000000000002198013808152015105211N000000000000N84       000030400K 10000000010000002191           
CUS0855980000108393856003         DUA ASHA            5951 SUNSET AVE                         000N        CARE OF             
MTR08559800001000000000000000RA              38887169    005801400000014000000520000003NN  NNW 000                       N    
RDG08559800WATRL000000004K00000000000003686013908152015105235N000000000070N84       000240400K 10000000010000003656           
CUS0855980000108353176004         CHARLES-PALACIOS NEL5949 SUNSET AVE                         000N        CARE OF             
MTR08559800001000000000000000RA              29082823    005801410000014100000520000003NN  NNW 000                       N    
RDG08559800WATRL000000004K00000000000004373014008152015105419N000000000090N84       001040400K 10000000010000004343           
CUS0855980000108411784005         COTTRELL SHERMAN    5949-A SUNSET AVE                       000N        CARE OF             
MTR08559800001000000000000000RA              44175357    005801420000014200000520000003NN  NNW 000                       N    
RDG08559800WATRL000000004K00000000000001835014108152015105430N000000000020N84       000110400K 10000000010000001820           
CUS0855980000108024017009         DIXON JULIE R       5947 SUNSET AVE                         000N        CARE OF             
MTR08559800001000000000000000RA              24768163    005801430000014300000520000003NN  NNW 000                       N    
RDG08559800WATRL000000004K00000000000002225014208152015112544N000000000000N84       018740400K 10000000010000002220           
CUS0855980000108024018007         WATSIC WENDY MARIE  5945 SUNSET AVE                         000N        CARE OF             
MTR08559800001000000000000000RA              39289597    005801440000014400000520000003NN  NNW 000                       N    
RDG08559800WATRL000000004K00000000000001103014308152015112550N000000000000N84       000060400K 10000000010000001095           
CUS0855980000108024019005         GRUEN MARIKAY D     5941 SUNSET AVE                         000N        CARE OF             
MTR08559800001000000000000000RA              50786905    005801450000014500000520000003NN  NNW 000                       N    
RDG08559800WATRL000000004K00000000000000812014408152015112553N000000000000N84       000030400K 10000000010000000807           
CUS0855980000108024020003         HEATWOLE JUDITH A   5939 SUNSET AVE                         000N        CARE OF             
MTR08559800001000000000000000RA              77889682    005801460000014600000350000003NN  NNW 000                       N    
RDG08559800WATRL000000004K00000000000000000014608152015112719N000000000000N84       000200400K 10000000010000000000           
CUS0855980000108024021001         AN LONG V           5937 SUNSET AVE                         000N        CARE OF             
MTR08559800001000000000000000RA              10015123    005801470000014700000570000003NN  NNW 000                       N    
RDG08559800WATRL000000004K00000000000001149014708152015112803N000000000080N84       000440400K 10000000010000001114           
CUS0855980000108024022009         WOODY GREGORY K     5935 SUNSET AVE                         000N        CARE OF             
MTR08559800001000000000000000RA              41076894    005801480000014800000520000003NN  NNW 000                       N    
RDG08559800WATRL000000004K00000000000002009014808152015112812N000000000010N84       000090400K 10000000010000001997           
CUS0855980000108024023007         GILMORE SABRETA M   5931 SUNSET AVE                         000N        CARE OF             
MTR08559800001000000000000000RA              24765934    005801490000014900000520000003NN  NNW 000                       N    
RDG08559800WATRL000000004K00000000000005695014508152015112659N000000000000N84       000660400K 10000000010000005695           
CUS0855980000108024024005         KLADITIS JOHNATHAN A5929 SUNSET AVE                         000N        CARE OF             
MTR08559800001000000000000000RA              01070208    005801500000015000000610000003NN  NNW 000                       N    
RDG08559800WATRL000000004K00000000000000403014908152015112833N000000000030N84       000210400K 10000000010000000403           
CUS0855980000108024025002         GAITHER JEANETTE J  5927 SUNSET AVE                         000N        CARE OF             
MTR08559800001000000000000000RA              11428676    005801510000015100000570000003NN  NNW 000                       N    
RDG08559800WATRL000000004K00000000000006937015008152015112840N000000000010N84       000070400K 10000000010000006927           
CUS0855980000108396296009         MONTAYA DANIELS     5917 SUNSET AVE                         000N        CARE OF             
MTR08559800001000000000000000RA              01077899    005801520000015200000610000003NN  NNW 000                       N    
RDG08559800WATRL000000004K00000000000001194015108152015112911N000000000080N84       000310400K 10000000010000001164           
CUS0855980000108396297007         ABEBE WONDOSEN      5915 SUNSET AVE                         000N        CARE OF             
MTR08559800001000000000000000RA              39291601    005801530000015300000520000003NN  NNW 000                       N    
RDG08559800WATRL000000004K00000000000003869015208152015112935N000000000060N84       000240400K 10000000010000003839           
CUS0855980000108024026000         DUCKETT KENNETH EARL5905 SUNSET AVE                         000N        CARE OF             
MTR08559800001000000000000000RA              24765937    005801540000015400000520000003NN  NNW 000                       N    
RDG08559800WATRL000000004K00000000000004164015308152015112940N000000000010N84       000050400K 10000000010000004154           
CUS0855980000108024027008         PAT HIBAN           5903 SUNSET AVE                         000N        CARE OF             
MTR08559800001000000000000000RA              75616479    005801550000015500000350000003NN  NNW 000                       N    
RDG08559800WATRL000000004K00000000000000005015408152015112954N000000000040N84       000140400K 10000000010000000003           
CUS0855980000108024028006         INGRAM ARTHUR       5901 SUNSET AVE                         000N        CARE OF             
MTR08559800001000000000000000RA              39289392    005801560000015600000520000003NN  NNW 000                       N    
RDG08559800WATRL000000004K00000000000002736015508152015113000N000000000010N84       000060400K 10000000010000002726           
RTR08559800NN01560156000001560000000001560156000245NY015601560156000000000000000000000000000002    08032015NY020000 N         
RHD08560300NN02980298000002980000000002980298000132NY029802980298000000080000000000000000000002    08062015NY020000 N         
CUS0856030000108403409009         ROSS SANDRA A       2101 CEDAR BARN WAY                     000N        CARE OF             
MTR08560300001000000000000000RA              42810072    005800010000000100000520000003NN  NNW 000                       N    
RDG08560300WATRL000000004K00000000000003091027308152015091921N000000000000N40       002100400K 10000000010000003080           
CUS0856030000108403403002         AKINWANDE OLAKUNLE B2103 CEDAR BARN WAY                     000N        CARE OF             
MTR08560300001000000000000000RA              42810723    005800020000000200000520000003NN  NNW 000                       N    
RDG08560300WATRL000000004K00000000000003427027408152015091940N000000000000N40       000190400K 10000000010000003412           
CUS0856030000108403402004         LAURAN B. HOFFMAN   2105 CEDAR BARN WAY                     000N        CARE OF             
MTR08560300001000000000000000RA              42809636    005800030000000300000520000003NN  NNW 000                       N    
RDG08560300WATRL000000004K00000000000004906027508152015091944N000000000000N40       000040400K 10000000010000004902           
CUS0856030000108403401006         NGUYEN NHUT M       2107 CEDAR BARN WAY                     000N        CARE OF             
MTR08560300001000000000000000RA              40322089    005800040000000400000520000003NN  NNW 000                       N    
RDG08560300WATRL000000004K00000000000004546027608152015092001N000000000000N40       000170400K 10000000010000004517           
CUS0856030000108403400008         JONES KEENAN E      2109 CEDAR BARN WAY                     000N        CARE OF             
MTR08560300001000000000000000RA              42810015    005800050000000500000520000003NN  NNW 000                       N    
RDG08560300WATRL000000004K00000000000006409027708152015092006N000000000000N40       000050400K 10000000010000006103           
CUS0856030000108403502001         HUNTLEY KIANNA      2111 CEDAR BARN WAY                     000N        CARE OF             
MTR08560300001000000000000000RA              45387870    005800060000000600000520000003NN  NNW 000                       N    
RDG08560300WATRL000000004K00000000000002983027808152015092021N000000000000N40       000150400K 10000000010000002965           
CUS0856030000108403501003         KANDOH REMISSA      2113 CEDAR BARN WAY                     000N        CARE OF             
MTR08560300001000000000000000RA              42810026    005800070000000700000520000003NN  NNW 000                       N    
RDG08560300WATRL000000004K00000000000002501027908152015092024N000000000000N40       000030400K 10000000010000002440           
CUS0856030000108403499000         CHANDLER BRUCE LAMON2117 CEDAR BARN WAY                     000N        CARE OF             
MTR08560300001000000000000000RA              44003162    005800080000000800000520000003NN  NNW 000                       N    
RDG08560300WATRL000000004K00000000000004931028008152015092139N000000000001N40       000080400K 10000000010000004836           
CUS0856030000108403500005         FLOYD ANGELA        2115 CEDAR BARN WAY                     000N        CARE OF             
MTR08560300001000000000000000RA              44003171    005800090000000900000520000003NN  NNW 000                       N    
RDG08560300WATRL000000004K00000000000002395028108152015092131N000000000021N40       000340400K 10000000010000002387           
CUS0856030000108403498002         THOMAS SHONTEE L    2119 CEDAR BARN WAY                     000N        CARE OF             
MTR08560300001000000000000000RA              44003264    005800100000001000000520000003NN  NNW 000                       N    
RDG08560300WATRL000000004K00000000000001638028208152015092200N000000000000N40       000210400K 10000000010000001627           
CUS0856030000108403497004         LAGRAND PHYLLIS J   2121 CEDAR BARN WAY                     000N        CARE OF             
MTR08560300001000000000000000RA              44003175    005800110000001100000520000003NN  NNW 000                       N    
RDG08560300WATRL000000004K00000000000002700028308152015092206N000000000000N40       000060400K 10000000010000002649           
CUS0856030000108403496006         BULLOCK SHARDON     2123 CEDAR BARN WAY                     000N        CARE OF             
MTR08560300001000000000000000RA              44003265    005800120000001200000520000003NN  NNW 000                       N    
RDG08560300WATRL000000004K00000000000003110028408152015092225N000000000000N40       000190400K 10000000010000003108           
CUS0856030000108403495008         MONTOUR LANCE G     2125 CEDAR BARN WAY                     000N        CARE OF             
MTR08560300001000000000000000RA              44003172    005800130000001300000520000003NY  NNW 000                       N    
MTM0856030044003172    OCC                                                                                                    
RDG08560300WATRL000000004K00000000000002699028508152015092231N000300000010N40       000060400K 10000000010000002692           
CUS0856030000108403494001         DAPHINE SHROPSHIRE  2127 CEDAR BARN WAY                     000N        CARE OF             
MTR08560300001000000000000000RA              44003274    005800140000001400000520000003NN  NNW 000                       N    
RDG08560300WATRL000000004K00000000000002992028608152015092303N000000000000N40       000320400K 10000000010000002985           
CUS0856030000108403493003         KYU HYUMG LEE       2129 CEDAR BARN WAY                     000N        CARE OF             
MTR08560300001000000000000000RA              44003881    005800150000001500000520000003NN  NNW 000                       N    
RDG08560300WATRL000000004K00000000000003219028708152015092328N000000000000N40       000250400K 10000000010000003197           
CUS0856030000108403492005         WRIGHT JESSICA L    2131 CEDAR BARN WAY                     000N        CARE OF             
MTR08560300001000000000000000RA              14923201    005800160000001600000310000003NN  NNW 000                       N    
RDG08560300WATRL000000004K00000000000001260028808152015092344N000000000000N40       000160400K 10000000010000001187           
CUS0856030000108403491007         WHITE SHEILA M      2133 CEDAR BARN WAY                     000N        CARE OF             
MTR08560300001000000000000000RA              10001961    005800170000001700000570000003NN  NNW 000                       N    
RDG08560300WATRL000000004K00000000000000616028908152015092347N000000000000N40       000030400K 10000000010000000603           
CUS0856030000108403490009         MCCLEARY BERTHA BELL2135 CEDAR BARN WAY                     000N        CARE OF             
MTR08560300001000000000000000RA              44003867    005800180000001800000520000003NN  NNW 000                       N    
RDG08560300WATRL000000004K00000000000007015029008152015092411N000000000000N40       000240400K 10000000010000006992           
CUS0856030000108403489001         MONTGOMERY SEAN J   2137 CEDAR BARN WAY                     000N        CARE OF             
MTR08560300001000000000000000RA              44003884    005800190000001900000520000003NN  NNW 000                       N    
RDG08560300WATRL000000004K00000000000002628029108152015092414N000000000000N40       000030400K 10000000010000002603           
CUS0856030000108403488003         LEWIS SHEILA A      2139 CEDAR BARN WAY                     000N        CARE OF             
MTR08560300001000000000000000RA              44003888    005800200000002000000520000003NN  NNW 000                       N    
RDG08560300WATRL000000004K00000000000002592029208152015092439N000000000000N40       000250400K 10000000010000002582           
CUS0856030000108403487005         MR & MRS GARY FORD  2141 CEDAR BARN WAY                     000N        CARE OF             
MTR08560300001000000000000000RA              44003886    005800210000002100000520000003NY  NNW 000                       N    
MTM0856030044003886    NOT OCC                                                                                                
RDG08560300WATRL000000004K00000000000004725029308152015092450N000100000010N40       000110400K 10000000010000004725           
CUS0856030000108403486007         UME UDODIRIM C      2143 CEDAR BARN WAY                     000N        CARE OF             
MTR08560300001000000000000000RA              44003871    005800220000002200000520000003NY  NNW 000                       N    
MTM0856030044003871    OCC                                                                                                    
RDG08560300WATRL000000004K00000000000003850029408152015092517N000400000010N40       000270400K 10000000010000003844           
CUS0856030000108403485009         FOWLER KENNETH W    2145 CEDAR BARN WAY                     000N        CARE OF             
MTR08560300001000000000000000RA              44003879    005800230000002300000520000003NN  NNW 000                       N    
RDG08560300WATRL000000004K00000000000002329029508152015092525N000000000000N40       000080400K 10000000010000002322           
CUS0856030000108403484002         WILLIAMS SHELLY A   2147 CEDAR BARN WAY                     000N        CARE OF             
MTR08560300001000000000000000RA              42809264    005800240000002400000520000003NN  NNW 000                       N    
RDG08560300WATRL000000004K00000000000002844029608152015092614N000000000000N40       000490400K 10000000010000002829           
CUS0856030000108403483004         HILL FLORENCE T.    2149 CEDAR BARN WAY                     000N        CARE OF             
MTR08560300001000000000000000RA              42809270    005800250000002500000520000003NN  NNW 000                       N    
RDG08560300WATRL000000004K00000000000004169029708152015092619N000000000000N40       000050400K 10000000010000004151           
CUS0856030000108403482006         FLICHMAN AMY L      2151 CEDAR BARN WAY                     000N        CARE OF             
MTR08560300001000000000000000RA              42809300    005800260000002600000520000003NN  NNW 000                       N    
RDG08560300WATRL000000004K00000000000003102000108152015071159N000000000000N40       000000400K 10000000010000003080           
CUS0856030000108403481008         FRANKLIN WILLIAM M  2153 CEDAR BARN WAY                     000N        CARE OF             
MTR08560300001000000000000000RA              42809263    005800270000002700000520000003NN  NNW 000                       N    
RDG08560300WATRL000000004K00000000000002008000208152015071204N000000000000N40       000050400K 10000000010000001996           
CUS0856030000108403480000         DAYNA R SCOTT       2155 CEDAR BARN WAY                     000N        CARE OF             
MTR08560300001000000000000000RA              42809268    005800280000002800000520000003NN  NNW 000                       N    
RDG08560300WATRL000000004K00000000000003277000308152015071225N000000000000N40       000210400K 10000000010000003263           
CUS0856030000108403479002         KORKOYAH JAMES      2157 CEDAR BARN WAY                     000N        CARE OF             
MTR08560300001000000000000000RA              42809269    005800290000002900000520000003NN  NNW 000                       N    
RDG08560300WATRL000000004K00000000000002621000408152015071228N000000000000N40       000030400K 10000000010000002599           
CUS0856030000108403558003         TYRA JEFFRIES       2159 CEDAR BARN WAY                     000N        CARE OF             
MTR08560300001000000000000000RA              10023930    005800300000003000000570000000NN  NNW 000                       N    
RDG08560300WATRL000000004K00000000000000467000508152015071249N000000000000N40       000210400K 10000000010000000448           
CUS0856030000108403557005         ENYIOMA NICHOLAS C  2161 CEDAR BARN WAY                     000N        CARE OF             
MTR08560300001000000000000000RA              42809298    005800310000003100000520000003NN  NNW 000                       N    
RDG08560300WATRL000000004K00000000000002294000608152015071252N000000000000N40       000030400K 10000000010000002245           
CUS0856030000108403556007         LAURYN M KING       69 TRIPLE CROWN CT                      000N        CARE OF             
MTR08560300001000000000000000RA              42809059    005800320000003200000520000003NN  NNW 000                       N    
RDG08560300WATRL000000004K00000000000002126000708152015071330N000000000000N40       000380400K 10000000010000002105           
CUS0856030000108403555009         DOWNES LISA ANN     67 TRIPLE CROWN CT                      000N        CARE OF             
MTR08560300001000000000000000RA              31583926    005800330000003300000520000003NN  NNW 000                       N    
RDG08560300WATRL000000004K00000000000002923000808152015071333N000000000000N40       000030400K 10000000010000002923           
CUS0856030000108403554002         RANDOLPH MICHAEL    65 TRIPLE CROWN CT                      000N        CARE OF             
MTR08560300001000000000000000RA              42809060    005800340000003400000520000003NN  NNW 000                       N    
RDG08560300WATRL000000004K00000000000002447000908152015071353N000000000000N40       000200400K 10000000010000002436           
CUS0856030000108403553004         CARRIE R FARRINGTON 63 TRIPLE CROWN CT                      000N        CARE OF             
MTR08560300001000000000000000RA              42809063    005800350000003500000520000003NN  NNW 000                       N    
RDG08560300WATRL000000004K00000000000001604001008152015071356N000000000000N40       000030400K 10000000010000001598           
CUS0856030000108403552006         TALBERT ANNA MAE    61 TRIPLE CROWN CT                      000N        CARE OF             
MTR08560300001000000000000000RA              42809267    005800360000003600000520000003NY  NNW 000                       N    
MTM0856030042809267    OCC                                                                                                    
RDG08560300WATRL000000004K00000000000001843001108152015071416N000000000010N40       000200400K 10000000010000001830           
CUS0856030000108403551008         COURSEY KATHLEEN H  59 TRIPLE CROWN CT                      000N        CARE OF             
MTR08560300001000000000000000RA              42809303    005800370000003700000520000003NN  NNW 000                       N    
RDG08560300WATRL000000004K00000000000001606001208152015071425N000000000000N40       000090400K 10000000010000001600           
CUS0856030000108403550000         JACKSON GEORGE E,JR 57 TRIPLE CROWN CT                      000N        CARE OF             
MTR08560300001000000000000000RA              42809302    005800380000003800000520000003NN  NNW 000                       N    
RDG08560300WATRL000000004K00000000000001492001308152015071513N000000000000N40       000480400K 10000000010000001487           
CUS0856030000108403549002         ANDERSON MATTHEW    55 TRIPLE CROWN CT                      000N        CARE OF             
MTR08560300001000000000000000RA              42809273    005800390000003900000520000003NN  NNW 000                       N    
RDG08560300WATRL000000004K00000000000001256001408152015071516N000000000000N40       000030400K 10000000010000001237           
CUS0856030000108403548004         SMUCK JAMES T       53 TRIPLE CROWN CT                      000N        CARE OF             
MTR08560300001000000000000000RA              46885893    005800400000004000000520000003NN  NNW 000                       N    
RDG08560300WATRL000000004K00000000000002133001508152015071536N000000000000N40       000200400K 10000000010000002110           
CUS0856030000108403547006         STEVEN GREENWAY     51 TRIPLE CROWN CT                      000N        CARE OF             
MTR08560300001000000000000000RA              99291256    005800410000004100000570000003NN  NNW 000                       N    
RDG08560300WATRL000000004K00000000000002033001608152015071554N000000000000N40       000180400K 10000000010000002013           
CUS0856030000108403546008         WATTS ANTHONY ROBERT49 TRIPLE CROWN CT                      000N        CARE OF             
MTR08560300001000000000000000RA              76344723    005800420000004200000350000003NY  NNW 000                       N    
MTM0856030076344723    OCC                                                                                                    
RDG08560300WATRL000000004K00000000000000042001708152015071619N000400000010N40       000250400K 10000000010000000041           
CUS0856030000108403545000         MCMILLAN SETH       47 TRIPLE CROWN CT                      000N        CARE OF             
MTR08560300001000000000000000RA              77877573    005800430000004300000360000003NN  NNW 000                       N    
RDG08560300WATRL000000004K00000000000000000001808152015071627S001000000000N40       000080400K 10000000010000000000           
CUS0856030000108402680006         PAWAN WAHI          45 TRIPLE CROWN CT                      000N        CARE OF             
MTR08560300001000000000000000RA              42809517    005800440000004400000520000003NY  NNW 000                       N    
MTM0856030042809517    NOT OCC                                                                                                
RDG08560300WATRL000000004K00000000000001674001908152015071653N000000000010N40       000260400K 10000000010000001671           
CUS0856030000108402679008         NELSON ORIN HUTTON  43 TRIPLE CROWN CT                      000N        CARE OF             
MTR08560300001000000000000000RA              42809478    005800450000004500000520000000NN  NNW 000                       N    
RDG08560300WATRL000000004K00000000000002817002008152015071659N000000000000N40       000060400K 10000000010000002794           
CUS0856030000108402678000         SIMPSON JEFFREY,JR  41 TRIPLE CROWN CT                      000N        CARE OF             
MTR08560300001000000000000000RA              45376558    005800460000004600000520000003NY  NNW 000                       N    
MTM0856030045376558    OCC                                                                                                    
RDG08560300WATRL000000004K00000000000002759002108152015071738N000300000010N40       000390400K 10000000010000002356           
CUS0856030000108402677002         CHUNG PHUOI BA      39 TRIPLE CROWN CT                      000N        CARE OF             
MTR08560300001000000000000000RA              50481264    005800470000004700000520000003NN  NNW 000                       N    
RDG08560300WATRL000000004K00000000000002540002208152015071744N000000000000N40       000060400K 10000000010000002466           
CUS0856030000108401565000         AHMED SHAVED        37 TRIPLE CROWN CT                      000N        CARE OF             
MTR08560300001000000000000000RA              44003287    005800480000004800000520000003NN  NNW 000                       N    
RDG08560300WATRL000000004K00000000000002333002308152015071806N000000000000N40       000220400K 10000000010000002283           
CUS0856030000108401566008         SHARON M GOLDER     35 TRIPLE CROWN CT                      000N        CARE OF             
MTR08560300001000000000000000RA              01110465    005800490000004900000610000003NN  NNW 000                       N    
RDG08560300WATRL000000004K00000000000001078002408152015071809N000000000000N40       000030400K 10000000010000001067           
CUS0856030000108401567006         MATHEWS CHRISTOPHER 33 TRIPLE CROWN CT                      000N        CARE OF             
MTR08560300001000000000000000RA              44176217    005800500000005000000520000003NN  NNW 000                       N    
RDG08560300WATRL000000004K00000000000002079002508152015071839N000000000000N40       000300400K 10000000010000002058           
CUS0856030000108401568004         JUDGE MARYANN LOFFT 31 TRIPLE CROWN CT                      000N        CARE OF             
MTR08560300001000000000000000RA              42809496    005800510000005100000520000003NN  NNW 000                       N    
RDG08560300WATRL000000004K00000000000001350002608152015071854N000000000000N40       000150400K 10000000010000001339           
CUS0856030000108401569002         WOODLON MELITA      29 TRIPLE CROWN CT                      000N        CARE OF             
MTR08560300001000000000000000RA              42809495    005800520000005200000520000003NN  NNW 000                       N    
RDG08560300WATRL000000004K00000000000001720002708152015071858N000000000000N40       000040400K 10000000010000001712           
CUS0856030000108401570000         GRIFFITH JEROME M   27 TRIPLE CROWN CT                      000N        CARE OF             
MTR08560300001000000000000000RA              42809498    005800530000005300000520000003NN  NNW 000                       N    
RDG08560300WATRL000000004K00000000000002019002808152015071916N000000000000N40       000180400K 10000000010000002014           
CUS0856030000108401571008         KIEWE RONALD S      25 TRIPLE CROWN CT                      000N        CARE OF             
MTR08560300001000000000000000RA              42809515    005800540000005400000520000003NN  NNW 000                       N    
RDG08560300WATRL000000004K00000000000000823002908152015071922N000000000000N40       000060400K 10000000010000000820           
CUS0856030000108401572006         LITTLE ALMA D       23 TRIPLE CROWN CT                      000N        CARE OF             
MTR08560300001000000000000000RA              42809499    005800550000005500000520000003NN  NNW 000                       N    
RDG08560300WATRL000000004K00000000000002409003008152015071938N000000000000N40       000160400K 10000000010000002393           
CUS0856030000108401573004         JAMAAL THOMAS       21 TRIPLE CROWN CT                      000N        CARE OF             
MTR08560300001000000000000000RA              42809492    005800560000005600000520000003NN  NNW 000                       N    
RDG08560300WATRL000000004K00000000000001514003108152015071944N000000000000N40       000060400K 10000000010000001499           
CUS0856030000108401574002         SUBLIME INVESTMENT L19 TRIPLE CROWN CT                      000N        CARE OF             
MTR08560300001000000000000000RA              42809375    005800570000005700000520000003NN  NNW 000                       N    
RDG08560300WATRL000000004K00000000000001208003208152015072005N000000000010N40       000210400K 10000000010000001143           
CUS0856030000108401575009         WEST DONDI S        17 TRIPLE CROWN CT                      000N        CARE OF             
MTR08560300001000000000000000RA              42809372    005800580000005800000520000003NN  NNW 000                       N    
RDG08560300WATRL000000004K00000000000001929003308152015072011N000000000000N40       000060400K 10000000010000001921           
CUS0856030000108401576007         BAC FIELD SERVICES  15 TRIPLE CROWN CT                      000N        CARE OF             
MTR08560300001000000000000000RA              42809373    005800590000005900000520000003NN  NNW 000                       N    
RDG08560300WATRL000000004K00000000000003247003408152015072033N000000000000N40       000220400K 10000000010000003235           
CUS0856030000108401577005         GOULD CHRISTINE     13 TRIPLE CROWN CT                      000N        CARE OF             
MTR08560300001000000000000000RA              42809368    005800600000006000000520000003NN  NNW 000                       N    
RDG08560300WATRL000000004K00000000000001509003508152015072036N000000000000N40       000030400K 10000000010000001505           
CUS0856030000108401578003         ROBERTS JOSHUA R/RHI11 TRIPLE CROWN CT                      000N        CARE OF             
MTR08560300001000000000000000RA              42809365    005800610000006100000520000003NN  NNW 000                       N    
RDG08560300WATRL000000004K00000000000003095003608152015072055N000000000000N40       000190400K 10000000010000003080           
CUS0856030000108401579001         DAVIS RYLAND,JR     9 TRIPLE CROWN CT                       000N        CARE OF             
MTR08560300001000000000000000RA              45387872    005800620000006200000520000003NN  NNW 000                       N    
RDG08560300WATRL000000004K00000000000003831003708152015072058N000000000000N40       000030400K 10000000010000003818           
CUS0856030000108401580009         4306 STANWOOD AVENUE7 TRIPLE CROWN CT                       000N        CARE OF             
MTR08560300001000000000000000RA              42809265    005800630000006300000520000003NN  NNW 000                       N    
RDG08560300WATRL000000004K00000000000004166003808152015072124N000000000000N40       000260400K 10000000010000004155           
CUS0856030000108401581007         BURKE STERLIND S,JR 5 TRIPLE CROWN CT                       000N        CARE OF             
MTR08560300001000000000000000RA              42809272    005800640000006400000520000003NN  NNW 000                       N    
RDG08560300WATRL000000004K00000000000006131003908152015072126N000000000000N40       000020400K 10000000010000006128           
CUS0856030000108401582005         BELL MORGAN ANDREW  3 TRIPLE CROWN CT                       000N        CARE OF             
MTR08560300001000000000000000RA              77886837    005800650000006500000360000003NN  NNW 000                       N    
RDG08560300WATRL000000004K00000000000000000004008152015072144S001000000000N40       000180400K 10000000010000000009           
CUS0856030000108401583003         JACKSON TYESHA L    1 TRIPLE CROWN CT                       000N        CARE OF             
MTR08560300001000000000000000RA              77886836    005800660000006600000360000003NN  NNW 000                       N    
RDG08560300WATRL000000004K00000000000000000004108152015072145S001000000000N40       000010400K 10000000010000000016           
CUS0856030000108401564003         CHACON KYLE         2 TRIPLE CROWN CT                       000N        CARE OF             
MTR08560300001000000000000000RA              41082524    005800670000006700000520000003NY  NNW 000                       N    
MTM0856030041082524    OCC                                                                                                    
RDG08560300WATRL000000004K00000000000003272004208192015151654O000000000010N27       000320400K 10000000010000003255           
CUS0856030000108401563005         WELLS FARGO BANK    4 TRIPLE CROWN CT                       000N        CARE OF             
MTR08560300001000000000000000RA              41082521    005800680000006800000520000003NN  NNW 000                       N    
RDG08560300WATRL000000004K00000000000002856004308152015072228N000000000000N40       000110400K 10000000010000002850           
CUS0856030000108401562007         GRAY LYNNELLE       6 TRIPLE CROWN CT                       000N        CARE OF             
MTR08560300001000000000000000RA              41082525    005800690000006900000520000003NN  NNW 000                       N    
RDG08560300WATRL000000004K00000000000002921004408152015072251N000000000000N40       000230400K 10000000010000002921           
CUS0856030000108401561009         PARKER GARY         8 TRIPLE CROWN CT                       000N        CARE OF             
MTR08560300001000000000000000RA              41082585    005800700000007000000520000003NY  NNW 000                       N    
MTM0856030041082585    OCC                                                                                                    
RDG08560300WATRL000000004K00000000000005120004508152015072256N000400000010N40       000050400K 10000000010000005061           
CUS0856030000108401560001         PAMELA L WELBORN    10 TRIPLE CROWN CT                      000N        CARE OF             
MTR08560300001000000000000000RA              41086292    005800710000007100000520000003NN  NNW 000                       N    
RDG08560300WATRL000000004K00000000000002490004608152015072322N000000000000N40       000260400K 10000000010000002480           
CUS0856030000108401559003         BHATIA ARVINDER SING12 TRIPLE CROWN CT                      000N        CARE OF             
MTR08560300001000000000000000RA              41086290    005800720000007200000520000003NN  NNW 000                       N    
RDG08560300WATRL000000004K00000000000003847004708152015072325N000000000000N40       000030400K 10000000010000003825           
CUS0856030000108401558005         COUNTS TIA          14 TRIPLE CROWN CT                      000N        CARE OF             
MTR08560300001000000000000000RA              01084376    005800730000007300000610000003NN  NNW 000                       N    
RDG08560300WATRL000000004K00000000000001809004808152015072345N000000000000N40       000200400K 10000000010000001793           
CUS0856030000108401557007         SCHULTZ SHELLY      16 TRIPLE CROWN CT                      000N        CARE OF             
MTR08560300001000000000000000RA              01088862    005800740000007400000610000003NN  NNW 000                       N    
RDG08560300WATRL000000004K00000000000000841004908152015072409N000000000000N40       000240400K 10000000010000000833           
CUS0856030000108401556009         STACEY HILL         18 TRIPLE CROWN CT                      000N        CARE OF             
MTR08560300001000000000000000RA              01087273    005800750000007500000610000003NN  NNW 000                       N    
RDG08560300WATRL000000004K00000000000001713005008152015072411N000000000000N40       000020400K 10000000010000001704           
CUS0856030000108401555001         COLBERT FELICIA R   20 TRIPLE CROWN CT                      000N        CARE OF             
MTR08560300001000000000000000RA              42809649    005800760000007600000520000003NY  NNW 000                       N    
MTM0856030042809649    OCC                                                                                                    
RDG08560300WATRL000000004K00000000000001611005108152015072436N000400000010N40       000250400K 10000000010000001603           
CUS0856030000108401554004         LITTLE MANIKKA S    22 TRIPLE CROWN CT                      000N        CARE OF             
MTR08560300001000000000000000RA              45387869    005800770000007700000520000003NN  NNW 000                       N    
RDG08560300WATRL000000004K00000000000001196005208152015072443N000000000000N40       000070400K 10000000010000001184           
CUS0856030000108401553006         LAMB NINA           24 TRIPLE CROWN CT                      000N        CARE OF             
MTR08560300001000000000000000RA              01113720    005800780000007800000610000003NN  NNW 000                       N    
RDG08560300WATRL000000004K00000000000000676005308152015072504N000000000000N40       000210400K 10000000010000000657           
CUS0856030000108401552008         ANINAKWA YEBOAH     26 TRIPLE CROWN CT                      000N        CARE OF             
MTR08560300001000000000000000RA              44003268    005800790000007900000520000003NN  NNW 000                       N    
RDG08560300WATRL000000004K00000000000002753005408152015072508N000000000000N40       000040400K 10000000010000002734           
CUS0856030000108401551000         MOSHKOVICH ROSTISLAV28 TRIPLE CROWN CT                      000N        CARE OF             
MTR08560300001000000000000000RA              44003284    005800800000008000000520000003NN  NNW 000                       N    
RDG08560300WATRL000000004K00000000000002381005508152015072529N000000000000N40       000210400K 10000000010000002326           
CUS0856030000108401550002         BRADLEY KEVIN L     30 TRIPLE CROWN CT                      000N        CARE OF             
MTR08560300001000000000000000RA              42809519    005800810000008100000520000003NN  NNW 000                       N    
RDG08560300WATRL000000004K00000000000001855005608152015072547N000000000000N40       000180400K 10000000010000001795           
CUS0856030000108401549004         MATTHEWS MILBURN A  32 TRIPLE CROWN CT                      000N        CARE OF             
MTR08560300001000000000000000RA              42809648    005800820000008200000520000003NN  NNW 000                       N    
RDG08560300WATRL000000004K00000000000001960005708152015072551N000000000000N40       000040400K 10000000010000001952           
CUS0856030000108401548006         ANNA GANNON         34 TRIPLE CROWN CT                      000N        CARE OF             
MTR08560300001000000000000000RA              44086595    005800830000008300000520000003NN  NNW 000                       N    
RDG08560300WATRL000000004K00000000000001429005808152015072612N000000000000N40       000210400K 10000000010000001422           
CUS0856030000108401547008         ROSE A PULLIAM      36 TRIPLE CROWN CT                      000N        CARE OF             
MTR08560300001000000000000000RA              44086598    005800840000008400000520000003NN  NNW 000                       N    
RDG08560300WATRL000000004K00000000000001682005908152015072616N000000000000N40       000040400K 10000000010000001670           
CUS0856030000108402675006         ZELDA T PARTEE      38 TRIPLE CROWN CT                      000N        CARE OF             
MTR08560300001000000000000000RA              42809048    005800850000008500000520000003NY  NNW 000                       N    
MTM0856030042809048    CONCRETE COVERING VAULT                                                                                
RDG08560300WATRL000000004K00000000000002392027108152015091546N000000000000N40       002800400K 10000000010000002376           
CUS0856030000108402676004         PREISINGER CATHY L  40 TRIPLE CROWN CT                      000N        CARE OF             
MTR08560300001000000000000000RA              42809474    005800860000008600000520000003NY  NNW 000                       N    
MTM0856030042809474    CONCRETE COVERING VAULT                                                                                
RDG08560300WATRL000000004K00000000000001826027208152015091551N000000000000N40       000050400K 10000000010000001811           
CUS0856030000108403531000         WHALEN ANGELA L     42 TRIPLE CROWN CT                      000N        CARE OF             
MTR08560300001000000000000000RA              42809522    005800870000008700000520000003NN  NNW 000                       N    
RDG08560300WATRL000000004K00000000000001664006008152015072732N000000000000N40       000760400K 10000000010000001654           
CUS0856030000108403532008         PETER FOGELSANGER   44 TRIPLE CROWN CT                      000N        CARE OF             
MTR08560300001000000000000000RA              42809639    005800880000008800000520000003NN  NNW 000                       N    
RDG08560300WATRL000000004K00000000000003154006108152015072735N000000000000N40       000030400K 10000000010000003132           
CUS0856030000108403533006         SAUNDERS VIRGIE M   46 TRIPLE CROWN CT                      000N        CARE OF             
MTR08560300001000000000000000RA              42809646    005800890000008900000520000003NN  NNW 000                       N    
RDG08560300WATRL000000004K00000000000002612006208152015072801N000000000000N40       000260400K 10000000010000002593           
CUS0856030000108403534004         GEE ERICA           48 TRIPLE CROWN CT                      000N        CARE OF             
MTR08560300001000000000000000RA              75614799    005800900000009000000350000003NN  NNW 000                       N    
RDG08560300WATRL000000004K00000000000000118006308152015072804N000000000000N40       000030400K 10000000010000000106           
CUS0856030000108403535001         SAMUEL BALDERAMA & W50 TRIPLE CROWN CT                      000N        CARE OF             
MTR08560300001000000000000000RA              42809480    005800910000009100000520000003NN  NNW 000                       N    
RDG08560300WATRL000000004K00000000000002670006408152015072856N000000000000N40       000520400K 10000000010000002648           
CUS0856030000108403536009         MICHAEL V OTT       52 TRIPLE CROWN CT                      000N        CARE OF             
MTR08560300001000000000000000RA              10010433    005800920000009200000570000003NN  NNW 000                       N    
RDG08560300WATRL000000004K00000000000001076006508152015072859N000000000000N40       000030400K 10000000010000001067           
CUS0856030000108403537007         DUNCAN DAMION       54 TRIPLE CROWN CT                      000N        CARE OF             
MTR08560300001000000000000000RA              42809483    005800930000009300000520000003NN  NNW 000                       N    
RDG08560300WATRL000000004K00000000000003159006608152015072941N000000000000N40       000420400K 10000000010000003096           
CUS0856030000108403538005         CAMPBELL JENETT M   56 TRIPLE CROWN CT                      000N        CARE OF             
MTR08560300001000000000000000RA              42809518    005800940000009400000520000003NN  NNW 000                       N    
RDG08560300WATRL000000004K00000000000002723006708152015072946N000000000000N40       000050400K 10000000010000002707           
CUS0856030000108403539003         DARIUS R LUMPKIN    58 TRIPLE CROWN CT                      000N        CARE OF             
MTR08560300001000000000000000RA              44003263    005800950000009500000520000003NY  NNW 000                       N    
MTM0856030044003263    OCC                                                                                                    
RDG08560300WATRL000000004K00000000000003381006808152015073012N000400000010N40       000260400K 10000000010000003326           
CUS0856030000108403540001         SHYAMSUNDER RAJ JAGA60 TRIPLE CROWN CT                      000N        CARE OF             
MTR08560300001000000000000000RA              10015524    005800960000009600000570000003NN  NNW 000                       N    
RDG08560300WATRL000000004K00000000000000061006908152015073019N000000000000N40       000070400K 10000000010000000048           
CUS0856030000108403541009         PALMER MICHAEL      62 TRIPLE CROWN CT                      000N        CARE OF             
MTR08560300001000000000000000RA              01109580    005800970000009700000610000003NN  NNW 000                       N    
RDG08560300WATRL000000004K00000000000001510007008152015073045N000000000000N40       000260400K 10000000010000001483           
CUS0856030000108403542007         NOVAK STEPHEN P,3RD 64 TRIPLE CROWN CT                      000N        CARE OF             
MTR08560300001000000000000000RA              01109582    005800980000009800000610000003NN  NNW 000                       N    
RDG08560300WATRL000000004K00000000000000866007108152015073048N000000000000N40       000030400K 10000000010000000850           
CUS0856030000108403543005         BROWN LISA D        66 TRIPLE CROWN CT                      000N        CARE OF             
MTR08560300001000000000000000RA              99291678    005800990000009900000570000003NN  NNW 000                       N    
RDG08560300WATRL000000004K00000000000001255007208152015073109N000000000000N40       000210400K 10000000010000001236           
CUS0856030000108403544003         BUPPERT DAVID CHRIS 68 TRIPLE CROWN CT                      000N        CARE OF             
MTR08560300001000000000000000RA              99291822    005801000000010000000570000003NY  NNW 000                       N    
MTM0856030099291822    OCC                                                                                                    
RDG08560300WATRL000000004K00000000000000816007308152015073115N000400000010N40       000060400K 10000000010000000814           
CUS0856030000108403380002         WITEK DONALD L      70 TRIPLE CROWN CT                      000N        CARE OF             
