FHDNNNN044009110009110009211N                                                                                           028516
RHD06924000NN00790302000000790000022303020302000111NY030203020302000300310000000000000000000002    07302015NY020000 N         
CUS0692400000106094778005         ST STEPHENS AFRICAN 1527 OLD EASTERN AVE                    000N        CARE OF             
MTR06924000001000000000000000RA              77895908    000100010000000100000360000003NN  NNW 000                       N    
RDG06924000WATRL000000004R00000000000000057000008192015095204N000400000010N         000010400R 10000000010000000026           
RFF0692400068545398      ERT      0004  956.44375000140004081920150952040000572287100W 1220000N                               
CUS0692400000106094779003         ST STEPHENS AFRICAN 1527 OLD EASTERN AVE                    000N        CARE OF             
MTR06924000001000000000000000RA              77878270    005800020000000200000360000003NN  NNW 000                       N    
RDG06924000WATRL000000004R00000000000000084000008192015095316N000000000000N         000010400R 10000000010000000048           
RFF0692400068453647      ERT      0000  956.44375000140000081920150953160000842094100W 1220000N                               
CUS0692400000106094780001         SALVO LIMITED PARTNE8 BACK RIVER NECK RD                    000N        CARE OF             
MTR06924000001000000000000000RA              99999999    005800030000000300000620000003NN  NNW 000                       N    
RDG06924000WATRL000000004K00000000000000000002808202015083529S002000000000U40       000110400K 10000000010000001972           
CUS0692400000106094782007         JOHNSON FRANK E /GER24 BACK RIVER NECK RD                   000N        CARE OF             
MTR06924000001000000000000000RA              77886546    005800040000000400000360000003NN  NNW 000                       N    
RDG06924000WATRL000000004R00000000000000041000008192015095342N000300000010N         000010400R 10000000010000000000           
RFF0692400068462608      ERT      0000  956.44375000140000081920150953420000412332100W 1220000N                               
CUS0692400000104445237003         ENTERPRISE/MARK J.V.1601 EVERGREEN WAY                      000N        CARE OF             
MTR06924000001000000000000000RA              99999999    000100050000000500000440000003NN  NNW 000                       N    
RDG06924000WATRL000000004K00000000000000000002908202015083903S002000000000U40       002140400K 10000000010000000000           
CUS0692400000104445225008         GRACE G MARTIN      1611 EVERGREEN WAY                      000N        CARE OF             
MTR06924000001000000000000000RA              77895766    000100060000000600000360000003NN  NNW 000                       N    
RDG06924000WATRL000000004R00000000000000039000008192015095312N000000000000N         000010400R 10000000010000000018           
RFF0692400068312513      ERT      0000  956.44375000140000081920150953120000390450100W 1220000N                               
CUS0692400000104445227004         DWAYNE A LYSAITH    1613 EVERGREEN WAY                      000N        CARE OF             
MTR06924000001000000000000000RA              77895669    000100070000000700000360000003NN  NNW 000                       N    
RDG06924000WATRL000000004R00000000000000071000008192015095334N000000000000N         000010400R 10000000010000000045           
RFF0692400068312731      ERT      0000  956.44375000140000081920150953340000716024100W 1220000N                               
CUS0692400000104445228002         LINDA M WILLIAMS    1615 EVERGREEN WAY                      000N        CARE OF             
MTR06924000001000000000000000RA              77895702    000100080000000800000360000003NN  NNW 000                       N    
RDG06924000WATRL000000004R00000000000000029000008192015095302N000400000010N         000010400R 10000000010000000020           
RFF0692400068312338      ERT      0000  956.44375000140000081920150953020000299901100W 1220000N                               
CUS0692400000104445229000         WILLIAM J QUIGLEY   1617 EVERGREEN WAY                      000N        CARE OF             
MTR06924000001000000000000000RA              77895677    000100090000000900000360000003NN  NNW 000                       N    
RDG06924000WATRL000000004R00000000000000033000008192015095334N000300000010N         000010400R 10000000010000000000           
RFF0692400068312753      ERT      0000  956.44375000140000081920150953340000333985100W 1220000N                               
CUS0692400000104445230008         JUSTIN KIMBLE       1619 EVERGREEN WAY                      000N        CARE OF             
MTR06924000001000000000000000RA              77895701    000100100000001000000360000003NN  NNW 000                       N    
RDG06924000WATRL000000004R00000000000000065000008192015095324N000000000000N         000010400R 10000000010000000027           
RFF0692400068312143      ERT      0000  956.44375000140000081920150953240000659495100W 1220000N                               
CUS0692400000104445231006         MICKVIE ANTOINE-WIGG1621 EVERGREEN WAY                      000N        CARE OF             
MTR06924000001000000000000000RA              77895664    000100110000001100000360000003NN  NNW 000                       N    
RDG06924000WATRL000000004R00000000000000042000008192015095310N000000000000N         000010400R 10000000010000000023           
RFF0692400068312750      ERT      0000  956.44375000140000081920150953100000423108100W 1220000N                               
CUS0692400000104445233002         SCHERREE A SMITH    1623 EVERGREEN WAY                      000N        CARE OF             
MTR06924000001000000000000000RA              77895703    000100120000001200000360000003NN  NNW 000                       N    
RDG06924000WATRL000000004R00000000000000024000008192015095326N000000000000N         000010400R 10000000010000000016           
RFF0692400068312284      ERT      0000  956.44375000140000081920150953260000248022100W 1220000N                               
CUS0692400000104445234000         CEDRICK S. TANKSLEY 1625 EVERGREEN WAY                      000N        CARE OF             
MTR06924000001000000000000000RA              77895704    000100130000001300000360000003NN  NNW 000                       N    
RDG06924000WATRL000000004R00000000000000068000008192015095324N000000000000N         000020400R 10000000010000000041           
RFF0692400068312304      ERT      0000  956.44375000140000081920150953240000682748100W 1220000N                               
CUS0692400000104445235007         ONIKA R FRANCIS     1627 EVERGREEN WAY                      000N        CARE OF             
MTR06924000001000000000000000RA              77895773    000100140000001400000360000003NN  NNW 000                       N    
RDG06924000WATRL000000004R00000000000000073000008192015095322N000000000000N         000010400R 10000000010000000045           
RFF0692400068312783      ERT      0000  956.44375000140000081920150953220000730094100W 1220000N                               
CUS0692400000104445236005         RYAN J DIXON        1629 EVERGREEN WAY                      000N        CARE OF             
MTR06924000001000000000000000RA              77895658    000100150000001500000360000003NN  NNW 000                       N    
RDG06924000WATRL000000004R00000000000000053000008192015095342N000000000000N         000010400R 10000000010000000028           
RFF0692400068312268      ERT      0000  956.44375000140000081920150953420000537556100W 1220000N                               
CUS0692400000104445305008         RONALD D CROMER     1633 EVERGREEN WAY                      000N        CARE OF             
MTR06924000001000000000000000RA              77989611    005800160000001600000360000003NN  NNW 000                       N    
RDG06924000WATRL000000004R00000000000000102000008192015095350N000000000000N         000010400R 10000000010000000049           
RFF0692400068461215      ERT      0000  956.44375000140000081920150953500001025368100W 1220000N                               
CUS0692400000104445358007         ENTERPRISE/MARK J.V.1635 EVERGREEN WAY                      000N        CARE OF             
MTR06924000001000000000000000RA              78028450    007500170000001700000350000003NN  NNW 000                       N    
RDG06924000WATRL000000004K00000000000000007003008202015084618N000100000010U40       004350400K 10000000010000000007           
CUS0692400000104445223003         ENTERPRISE/MARK J.V.1635A EVERGREEN WAY                     000N        CARE OF             
MTR06924000001000000000000000RA              99999999    000100180000001800000440000003NN  NNW 000                       N    
RDG06924000WATRL000000004K00000000000000000003108202015084630N000000000000U40       000120400K 10000000010000000000           
CUS0692400000104445359005         ENTERPRISE/MARK J.V.1637 EVERGREEN WAY                      000N        CARE OF             
MTR06924000001000000000000000RA              99999999    005800190000001900000440000003NN  NNW 000                       N    
RDG06924000WATRL000000004K00000000000000000003208202015084702S002000000000U40       000320400K 10000000010000000000           
CUS0692400000104445360003         COVINGTON ARMAND J  1639 EVERGREEN WAY                      000N        CARE OF             
MTR06924000001000000000000000RA              10015298    005800200000002000000570000000NN  NNW 000                       N    
RDG06924000WATRL000000004K00000000000000637003308202015084740N000000000000U40       000380400K 10000000010000000581           
CUS0692400000104445361001         OLUSEGUN ODUFOYE    1641 EVERGREEN WAY                      000N        CARE OF             
MTR06924000001000000000000000RA              10024792    005800210000002100000570000003NN  NNW 000                       N    
RDG06924000WATRL000000004K00000000000000279003408202015084819N000000000000U40       000390400K 10000000010000000255           
CUS0692400000104445362009         KENDRA BROGDEN      1643 EVERGREEN WAY                      000N        CARE OF             
MTR06924000001000000000000000RA              77894140    005800220000002200000360000003NN  NNW 000                       N    
RDG06924000WATRL000000004K00000000000000001003508202015084924N000000000010U40       000650400K 10000000010000000000           
CUS0692400000104445298005         DONALD R. BAILEY, JR1645 EVERGREEN WAY                      000N        CARE OF             
MTR06924000001000000000000000RA              00167097    000100230000002300000570000003NN  NNW 000                       N    
RDG06924000WATRL000000004K00000000000000234003608202015085055N000000000000U40       000910400K 10000000010000000222           
CUS0692400000104445299003         STACEY FULFORD      1647 EVERGREEN WAY                      000N        CARE OF             
MTR06924000001000000000000000RA              00167098    000100240000002400000570000003NN  NNW 000                       N    
RDG06924000WATRL000000004K00000000000000157003708202015085057N000000000000U40       000020400K 10000000010000000149           
CUS0692400000104445300009         STACY M. GREAVER    1649 EVERGREEN WAY                      000N        CARE OF             
MTR06924000001000000000000000RA              00167148    000100250000002500000570000003NN  NNW 000                       N    
RDG06924000WATRL000000004K00000000000000076003808202015085125N000000000000U40       000280400K 10000000010000000071           
CUS0692400000104445301007         METTER L. FLOYD     1651 EVERGREEN WAY                      000N        CARE OF             
MTR06924000001000000000000000RA              00167149    000100260000002600000570000003NN  NNW 000                       N    
RDG06924000WATRL000000004K00000000000000083003908202015085128N000000000000U40       000030400K 10000000010000000075           
CUS0692400000104445303003         SUPREINA MASON      1653 EVERGREEN WAY                      000N        CARE OF             
MTR06924000001000000000000000RA              00167151    000100270000002700000570000003NN  NNW 000                       N    
RDG06924000WATRL000000004K00000000000000112004008202015085202N000000000000U40       000340400K 10000000010000000105           
CUS0692400000104445304001         CYNTHIA E. JONES    1655 EVERGREEN WAY                      000N        CARE OF             
MTR06924000001000000000000000RA              00167150    000100280000002800000570000003NN  NNW 000                       N    
RDG06924000WATRL000000004K00000000000000274004108202015085205N000000000000U40       000030400K 10000000010000000259           
CUS0692400000104445297007         ROMEO & STACEY REGIN1662 EVERGREEN WAY                      000N        CARE OF             
MTR06924000001000000000000000RA              10012073    005800290000002900000570000003NN  NNW 000                       N    
RDG06924000WATRL000000004K00000000000000510004208202015085308N000000000000U40       000630400K 10000000010000000482           
CUS0692400000104445296009         MAUREEN PRIVETTE    1660 EVERGREEN WAY                      000N        CARE OF             
MTR06924000001000000000000000RA              00166725    000100300000003000000570000003NN  NNW 000                       N    
RDG06924000WATRL000000004K00000000000000590004308202015085346N000000000000U40       000380400K 10000000010000000539           
CUS0692400000104445295001         PAULEY LINDA ANN    1658 EVERGREEN WAY                      000N        CARE OF             
MTR06924000001000000000000000RA              00166765    000100310000003100000570000003NN  NNW 000                       N    
RDG06924000WATRL000000004K00000000000000386004408202015085358N000000000000U40       000120400K 10000000010000000373           
CUS0692400000106445504001         SMITH NATASHA       1656 EVERGREEN WAY                      000N        CARE OF             
MTR06924000001000000000000000RA              00166724    000100320000003200000570000000NN  NNW 000                       N    
RDG06924000WATRL000000004K00000000000000297004508202015085452N000000000010U40       000540400K 10000000010000000249           
CUS0692400000104445294004         BOWLES VEATRICE E   1654 EVERGREEN WAY                      000N        CARE OF             
MTR06924000001000000000000000RA              00166764    000100330000003300000570000003NN  NNW 000                       N    
RDG06924000WATRL000000004K00000000000000383004608202015085457N000000000000U40       000050400K 10000000010000000371           
CUS0692400000104445292008         NATHANIEL WILLIAMS  1652 EVERGREEN WAY                      000N        CARE OF             
MTR06924000001000000000000000RA              00166744    005800340000003400000570000003NN  NNW 000                       N    
RDG06924000WATRL000000004K00000000000000372004708202015085532N000000000000U40       000350400K 10000000010000000353           
CUS0692400000104445221007         EVELYN ORTIZ        15 ST STEPHENS LN                       000N        CARE OF             
MTR06924000001000000000000000RA              10007533    005800350000003500000570000003NN  NNW 000                       N    
RDG06924000WATRL000000004K00000000000000209008108202015092809N000000000001U40       006520400K 10000000010000000174           
CUS0692400000104445222005         ENTERPRISE/MARK J.V.17 ST STEPHENS LN                       000N        CARE OF             
MTR06924000001000000000000000RA              99999999    005800360000003600000440000003NN  NNW 000                       N    
RDG06924000WATRL000000004K00000000000000000004808202015085555N000000000000U40       000230400K 10000000010000000000           
CUS0692400000106454644003         INGRID MERCHANT     1701 RENAISSANCE DR                     000N        CARE OF             
MTR06924000001000000000000000RA              78027822    007500370000003700000360000003NN  NNW 000                       N    
RDG06924000WATRL000000004K00000000000000048004908202015085925N000000000010U40       002100400K 10000000010000000000           
CUS0692400000104445363007         JACKIE LEE FERGUSON 1718 RENAISSANCE DR                     000N        CARE OF             
MTR06924000001000000000000000RA              78028451    007500380000003800000350000003NN  NNW 000                       N    
RDG06924000WATRL000000004K00000000000000034005008202015090301N000000000000U40       002160400K 10000000010000000024           
CUS0692400000104445464003         LINDA BURNS         1720 RENAISSANCE DR                     000N        CARE OF             
MTR06924000001000000000000000RA              78028540    007500390000003900000350000003NN  NNW 000                       N    
RDG06924000WATRL000000004K00000000000000000005108202015090351S001000000001U40       000500400K 10000000010000000000           
CUS0692400000104445465000         ERIC LEE            1722 RENAISSANCE DR                     000N        CARE OF             
MTR06924000001000000000000000RA              78027673    007500400000004000000360000003NN  NNW 000                       N    
RDG06924000WATRL000000004K00000000000000012005208202015090442N000000000000U40       000510400K 10000000010000000008           
CUS0692400000104445466008         BORDLEY THOMAS J    1724 RENAISSANCE DR                     000N        CARE OF             
MTR06924000001000000000000000RA              10017528    005800410000004100000570000003NN  NNW 000                       N    
RDG06924000WATRL000000004K00000000000000229005308202015090521N000300000010U40       000390400K 10000000010000000189           
CUS0692400000106454645000         AARON L GEISBERT    1647 RENAISSANCE DR                     000N        CARE OF             
MTR06924000001000000000000000RA              77877717    005800420000004200000360000003NN  NNW 000                       N    
RDG06924000WATRL000000004K00000000000000016005408202015090824N000000000010U40       001830400K 10000000010000000000           
CUS0692400000106454073005         REBECCA WARNTZ      1645 RENAISSANCE DR                     000N        CARE OF             
MTR06924000001000000000000000RA              10023980    005800430000004300000570000003NN  NNW 000                       N    
RDG06924000WATRL000000004K00000000000000212005508202015090904N000000000000U40       000400400K 10000000010000000192           
CUS0692400000106447326007         KEHINDE O JOHNSON   1643 RENAISSANCE DR                     000N        CARE OF             
MTR06924000001000000000000000RA              74816839    000100440000004400000360000003NN  NNW 000                       N    
RDG06924000WATRL000000004R00000000000000127000008192015095340N000000000000N         000010400R 10000000010000000112           
RFF0692400068528535      ERT      0000  956.44375000140000081920150953400001270405100W 1220000N                               
CUS0692400000106447327005         ENTERPRISE/MARK BLDG1641 RENAISSANCE DR                     000N        CARE OF             
MTR06924000001000000000000000RA              74816840    000100450000004500000360000003NN  NNW 000                       N    
RDG06924000WATRL000000004R00000000000000008000008192015095344N000300000010N         000010400R 10000000010000000007           
RFF0692400068528549      ERT      0000  956.44375000140000081920150953440000081326100W 1220000N                               
CUS0692400000106447328003         WILSON CATHERINE & D1639 RENAISSANCE DR                     000N        CARE OF             
MTR06924000001000000000000000RA              74816837    000100460000004600000360000003NN  NNW 000                       N    
RDG06924000WATRL000000004R00000000000000086000008192015095342N000000000000N         000010400R 10000000010000000075           
RFF0692400068528564      ERT      0000  956.44375000140000081920150953420000861024100W 1220000N                               
CUS0692400000106447329001         ENTERPRISE/MARK J V 1637 RENAISSANCE DR                     000N        CARE OF             
MTR06924000001000000000000000RA              99999999    000100470000004700000440000003NN  NNW 000                       N    
RDG06924000WATRL000000004K00000000000000000005608202015090953S002000000000U40       000490400K 10000000010000000000           
CUS0692400000106447110005         ENTERPRISE/MARK J V 1633 RENAISSANCE DR                     000N        CARE OF             
MTR06924000001000000000000000RA              77896024    000100480000004800000360000003NN  NNW 000                       N    
RDG06924000WATRL000000004K00000000000000011005708202015091122N000000000011U40       000760400K 10000000010000000000           
CUS0692400000106447251007         ENTERPRISE/MARK J V 1631 RENAISSANCE DR                     000N        CARE OF             
MTR06924000001000000000000000RA              99999999    000100490000004900000440000000NN  NNW 000                       N    
RDG06924000WATRL000000004K00000000000000000005808202015091001S002000000000U40       000040400K 10000000010000000000           
CUS0692400000106447261006         ENTERPRISE/MARK J V 1629 RENAISSANCE DR                     000N        CARE OF             
MTR06924000001000000000000000RA              99999999    000100500000005000000440000000NN  NNW 000                       N    
RDG06924000WATRL000000004K00000000000000000005908202015091004S002000000000U40       000030400K 10000000010000000000           
CUS0692400000106447262004         ENTERPRISE/MARK J V 1627 RENAISSANCE DR                     000N        CARE OF             
MTR06924000001000000000000000RA              99999999    000100510000005100000440000000NN  NNW 000                       N    
RDG06924000WATRL000000004K00000000000000000006008202015091006S002000000000U40       000020400K 10000000010000000000           
CUS0692400000106447263002         ENTERPRISE/MARK J V 1625 RENAISSANCE DR                     000N        CARE OF             
MTR06924000001000000000000000RA              99999999    000100520000005200000440000000NN  NNW 000                       N    
RDG06924000WATRL000000004K00000000000000000006108202015091128S002000000000U40       000060400K 10000000010000000000           
CUS0692400000106447264000         ENTERPRISE/MARK J V 1623 RENAISSANCE DR                     000N        CARE OF             
MTR06924000001000000000000000RA              99999999    000100530000005300000440000000NN  NNW 000                       N    
RDG06924000WATRL000000004K00000000000000000006208202015091130S002000000000U40       000020400K 10000000010000000000           
CUS0692400000106447265007         ENTERPRISE/MARK J V 1621 RENAISSANCE DR                     000N        CARE OF             
MTR06924000001000000000000000RA              99999999    000100540000005400000440000003NN  NNW 000                       N    
RDG06924000WATRL000000004K00000000000000000006308202015091133S002000000000U40       000030400K 10000000010000000000           
CUS0692400000106447338002         ENTERPRISE/MARK J V 1619 RENAISSANCE DR                     000N        CARE OF             
MTR06924000001000000000000000RA              99999999    000100550000005500000440000000NN  NNW 000                       N    
RDG06924000WATRL000000004K00000000000000000006408202015091136S002000000000U40       000030400K 10000000010000000000           
CUS0692400000106447339000         BALTIMORE COUNTY MAR1617 RENAISSANCE DR                     000N        CARE OF             
MTR06924000001000000000000000RA              99999999    000100560000005600000440000003NN  NNW 000                       N    
RDG06924000WATRL000000004K00000000000000000006508202015091139S002000000000U40       000030400K 10000000010000000000           
CUS0692400000106447342004         BALTIMORE COUNTY MD 1613 RENAISSANCE DR                     000N        CARE OF             
MTR06924000001000000000000000RA              99999999    000100570000005700000440000003NN  NNW 000                       N    
RDG06924000WATRL000000004K00000000000000000006608202015091152S002000000000U40       000130400K 10000000010000000000           
CUS0692400000106447340008         BALTIMORE COUNTY MAR1615 RENAISSANCE DR                     000N        CARE OF             
MTR06924000001000000000000000RA              99999999    000100580000005800000440000003NN  NNW 000                       N    
RDG06924000WATRL000000004K00000000000000000006708202015091155S002000000000U40       000030400K 10000000010000000000           
CUS0692400000106447343002         ENTERPRISE/MARK J V 1611 RENAISSANCE DR                     000N        CARE OF             
MTR06924000001000000000000000RA              99999999    000100590000005900000440000003NN  NNW 000                       N    
RDG06924000WATRL000000004K00000000000000000006808202015091204S002000000000U40       000090400K 10000000010000000000           
CUS0692400000106447344000         ENTERPRISE/MARK J V 1616 RENAISSANCE DR                     000N        CARE OF             
MTR06924000001000000000000000RA              99999999    000100600000006000000440000003NN  NNW 000                       N    
RDG06924000WATRL000000004K00000000000000000006908202015091208S002000000000U40       000040400K 10000000010000000000           
CUS0692400000106447325009         ENTERPRISE/MARK J V 1618 RENAISSANCE DR                     000N        CARE OF             
MTR06924000001000000000000000RA              99999999    000100610000006100000440000003NN  NNW 000                       N    
RDG06924000WATRL000000004K00000000000000000007008202015091212S002000000000U40       000040400K 10000000010000000000           
CUS0692400000106447320000         ENTERPRISE/MARK J V 1620 RENAISSANCE DR                     000N        CARE OF             
MTR06924000001000000000000000RA              99999999    000100620000006200000440000003NN  NNW 000                       N    
RDG06924000WATRL000000004K00000000000000000007108202015091216S002000000000U40       000040400K 10000000010000000000           
CUS0692400000106447317006         ENTERPRISE/MARK J V 1622 RENAISSANCE DR                     000N        CARE OF             
MTR06924000001000000000000000RA              99999999    000100630000006300000440000003NN  NNW 000                       N    
RDG06924000WATRL000000004K00000000000000000007208202015091218S002000000000U40       000020400K 10000000010000000000           
CUS0692400000106447316008         ENTERPRISE/MARK J V 1624 RENAISSANCE DR                     000N        CARE OF             
MTR06924000001000000000000000RA              99999999    000100640000006400000440000003NN  NNW 000                       N    
RDG06924000WATRL000000004K00000000000000000007308202015091221S002000000000U40       000030400K 10000000010000000000           
CUS0692400000106447315000         ENTERPRISE/MARK J V 1626 RENAISSANCE DR                     000N        CARE OF             
MTR06924000001000000000000000RA              99999999    000100650000006500000440000003NN  NNW 000                       N    
RDG06924000WATRL000000004K00000000000000000007408202015091224S002000000000U40       000030400K 10000000010000000000           
CUS0692400000106447314003         ENTERPRISE/J V LLC  1628 RENAISSANCE DR                     000N        CARE OF             
MTR06924000001000000000000000RA              99999999    000100660000006600000440000003NN  NNW 000                       N    
RDG06924000WATRL000000004K00000000000000000007508202015091227S002000000000U40       000030400K 10000000010000000000           
CUS0692400000106447313005         CHARLES SCOTT WISEMA1632 RENAISSANCE DR                     000N        CARE OF             
MTR06924000001000000000000000RA              77896726    000100670000006700000350000003NN  NNW 000                       N    
RDG06924000WATRL000000004K00000000000000066007608202015091313N000000000000U40       000460400K 10000000010000000047           
CUS0692400000106447311009         NO VALID READING    1634 RENAISSANCE DR                     000N        CARE OF             
MTR06924000001000000000000000RA              99999999    005800680000006800000620000000NN  NNW 000   INVALID DAC         N    
RDG06924000WATRL000000004K00000000000000000007708202015091320S002000000000U40       000070400K 10000000010009999999           
CUS0692400000106447312007         ENTERPRISE/MARK J V 1634 RENAISSANCE DR                     000N        CARE OF             
MTR06924000001000000000000000RA              99999999    000100690000006900000440000003NN  NNW 000                       N    
RDG06924000WATRL000000004K00000000000000000007808202015091327S002000000000U40       000070400K 10000000010000000000           
CUS0692400000106447310001         JASON A EIKENBERG   1636 RENAISSANCE DR                     000N        CARE OF             
MTR06924000001000000000000000RA              74816652    000100700000007000000360000003NN  NNW 000                       N    
RDG06924000WATRL000000004R00000000000000159000008192015095338N000400000010N         000010400R 10000000010000000151           
RFF0692400068528552      ERT      0000  956.44375000140000081920150953380001593257100W 1220000N                               
CUS0692400000106447337004         MINSOO CHOI         1638 RENAISSANCE DR                     000N        CARE OF             
MTR06924000001000000000000000RA              74816780    000100710000007100000360000003NN  NNW 000                       N    
RDG06924000WATRL000000004R00000000000000131000008192015095348N000000000000N         000010400R 10000000010000000119           
RFF0692400068528550      ERT      0000  956.44375000140000081920150953480001316882100W 1220000N                               
CUS0692400000106447336006         MALINDA HOLMES      1640 RENAISSANCE DR                     000N        CARE OF             
MTR06924000001000000000000000RA              76350007    000100720000007200000360000003NY  NNW 000                       N    
MTM0692400076350007    CLEANOUT                                                                                               
RDG06924000WATRL000000004K00000000000000000007900000000000000 000000000000U         000000400  10000000010000000000           
CUS0692400000106447335008         JESUS ARQUETA       1642 RENAISSANCE DR                     000N        CARE OF             
MTR06924000001000000000000000RA              76350006    000100730000007300000360000000NN  NNW 000                       N    
RDG06924000WATRL000000004K00000000000000021008008202015091717N000000000010U40       000550400K 10000000010000000000           
CUS0692400000106447334001         JITE O EREGHA       1644 RENAISSANCE DR                     000N        CARE OF             
MTR06924000001000000000000000RA              74816643    000100740000007400000360000003NN  NNW 000                       N    
RDG06924000WATRL000000004R00000000000000185000008192015095248N000000000000N         000010400R 10000000010000000168           
RFF0692400068528560      ERT      0000  956.44375000140000081920150952480001851340100W 1220000N                               
CUS0692400000106447333003         ENTERPRISE/MARK J V 1646 RENAISSANCE DR                     000N        CARE OF             
MTR06924000001000000000000000RA              76350371    000100750000007500000360000003NN  NNW 000                       N    
RDG06924000WATRL000000004R00000000000000042000008192015095340N000000000000N         000020400R 10000000010000000016           
RFF0692400068528545      ERT      0000  956.44375000140000081920150953400000424032100W 1220000N                               
CUS0692400000106447332005         JOSEPH R. VANDYKE   1648 RENAISSANCE DR                     000N        CARE OF             
MTR06924000001000000000000000RA              74816707    000100760000007600000360000003NN  NNW 000                       N    
RDG06924000WATRL000000004R00000000000000041000008192015102254N000400000010N         000010400R 10000000010000000038           
RFF0692400068528565      ERT      0000  956.44375000140000081920151022540000417890100W 1220000N                               
CUS0692400000106447331007         TORRE, DANIELLE     1650 RENAISSANCE DR                     000N        CARE OF             
MTR06924000001000000000000000RA              76350370    000100770000007700000360000003NN  NNW 000                       N    
RDG06924000WATRL000000004R00000000000001930000008192015095348N000300000010N         000010400R 10000000010000000531           
RFF0692400068528562      ERT      0008  956.44375000140008081920150953480019309208100W 1220000N                               
CUS0692400000106094783005         RUSSELL CORA        28 BACK RIVER NECK RD                   000N        CARE OF             
MTR06924000001000000000000000RA              77886521    005800780000007800000360000003NN  NNW 000                       N    
RDG06924000WATRL000000004R00000000000000032000008192015095330N000000000000N         000010400R 10000000010000000019           
RFF0692400068457892      ERT      0000  956.44375000140000081920150953300000321746100W 1220000N                               
CUS0692400000106094784003         BAYNE DOUGLAS A,3RD 32 BACK RIVER NECK RD                   000N        CARE OF             
MTR06924000001000000000000000RA              77886583    005800790000007900000360000003NN  NNW 000                       N    
RDG06924000WATRL000000004R00000000000000000000008192015095322N000100000010N         000010400R 10000000010000000000           
RFF0692400068457991      ERT      0000  956.44375000140000081920150953220000000020100W 1220000N                               
CUS0692400000106094785000         SAMUEL & MARY P HUGH36 BACK RIVER NECK RD                   000N        CARE OF             
MTR06924000001000000000000000RA              77886507    005800800000008000000360000003NN  NNW 000                       N    
RDG06924000WATRL000000004R00000000000000090000008192015095326N000400000010N         000010400R 10000000010000000071           
RFF0692400068462008      ERT      0004  956.44375000140000081920150953260000903911100W 1220000N                               
CUS0692400000106094786008         ALVERTA JORDAN      38 BACK RIVER NECK RD                   000N        CARE OF             
MTR06924000001000000000000000RA              77886517    005800810000008100000360000003NN  NNW 000                       N    
RDG06924000WATRL000000004R00000000000000029000008192015095358N000300000010N         000010400R 10000000010000000002           
RFF0692400068457962      ERT      0000  956.44375000140000081920150953580000292329100W 1220000N                               
CUS0692400000106094787006         MIRZA ARSHAD BAIG   40 BACK RIVER NECK RD                   000N        CARE OF             
MTR06924000001000000000000000RA              77886574    005800820000008200000360000003NN  NNW 000   VACANT / LOT        N    
RDG06924000WATRL000000004R00000000000000001000008192015095330N000300000010N         000010400R 10000000010000000000           
RFF0692400068457984      ERT      0000  956.44375000140000081920150953300000011050100W 1220000N                               
CUS0692400000106094788004         SOUTHSIDE OIL LLC   100 BACK RIVER NECK RD                  000N        CARE OF             
MTR06924000001000000000000000RA              99999999    005800830000008300000620000003NN  NNW 000                       N    
RDG06924000WATRL000000004K00000000000000000000108202015073254S002000000011U40       000080400K 10000000010000004602           
CUS0692400000106427363004         SOUTHSIDE OIL LLC   100 BACK RIVER NECK RD                  000N        CARE OF             
MTR06924000001000000000000000RA              54353649    000100840000008400000520000003NN  NNW 000                       N    
RDG06924000WATRL000000004K00000000000004120000208202015073246N000000000000U40       000060400K 10000000010000004069           
CUS0692400000106094789002         104 BACK RIVER NECK 104 BACK RIVER NECK RD                  000N        CARE OF             
MTR06924000001000000000000000RA              77886545    005800850000008500000360000003NN  NNW 000                       N    
RDG06924000WATRL000000004R00000000000000137000008192015095330N000300000010N         000010400R 10000000010000000297           
RFF0692400068462355      ERT      0000  956.44375000140000081920150953300001371368100W 1220000N                               
CUS0692400000106094790000         104 BACK RIVER NECK 104 BACK RIVER NECK RD                  000N        CARE OF             
MTR06924000001000000000000000RA              77886502    005800860000008600000360000003NN  NNW 000                       N    
RDG06924000WATRL000000004R00000000000000007000008192015095338N000100000010N         000010400R 10000000010000000007           
RFF0692400068461989      ERT      0000  956.44375000140000081920150953380000073830100W 1220000N                               
CUS0692400000106094791008         ZAPPARDINO RICHARD  116 BACK RIVER NECK RD                  000N        CARE OF             
MTR06924000001000000000000000RA              77886572    005800870000008700000360000003NN  NNW 000                       N    
RDG06924000WATRL000000004R00000000000000061000008192015095342N000000000000N         000010400R 10000000010000000029           
RFF0692400068457961      ERT      0000  956.44375000140000081920150953420000618583100W 1220000N                               
CUS0692400000106094792006         MONRO MUFFLER BRAKE 118 BACK RIVER NECK RD                  000N        CARE OF             
MTR06924000001000000000000000RA              77886526    005800880000008800000360000003NY  NNW 000                       N    
MTM0692400077886526    CLEANOUT                                                                                               
RDG06924000WATRL000000004R00000000000000000000000000000000000 000000000000U         000000400  10000000010000000028           
RFF0692400068461899      ERT      0000  956.44375000140000000000000000000000000000        0000N                               
CUS0692400000106094793004         JAMES H SCHOTT      118 BACK RIVER NECK RD                  000N        CARE OF             
MTR06924000001000000000000000RA              77886536    005800890000008900000360000003NN  NNW 000                       N    
RDG06924000WATRL000000004R00000000000000089000008192015095334N000000000000N         000020400R 10000000010000000055           
RFF0692400068462448      ERT      0000  956.44375000140000081920150953340000892097100W 1220000N                               
CUS0692400000106094794002         HYATTSTOWN PROPERTIE126 BACK RIVER NECK RD                  000N        CARE OF             
MTR06924000001000000000000000RA              77893598    007500900000009000000360000003NN  NNW 000                       N    
RDG06924000WATRL000000004R00000000000000295000008192015095334N000000000000N         000010400R 10000000010000000109           
RFF0692400068312760      ERT      0004  956.44375000140004081920150953340002959021100W 1220000N                               
CUS0692400000106094795009         RAP ESSEX MD LLC    140 BACK RIVER NECK RD                  000N        CARE OF             
MTR06924000001000000000000000RA              77886499    005800910000009100000360000003NN  NNW 000                       N    
RDG06924000WATRL000000004R00000000000000044000008192015095412N000000000000N         000010400R 10000000010000000025           
RFF0692400068462505      ERT      0000  956.44375000140000081920150954120000444036100W 1220000N                               
CUS0692400000106094796007         RAP ESSEX MD LLC    146 BACK RIVER NECK RD                  000N        CARE OF             
MTR06924000001000000000000000RA              26014570    005800920000009200000520000003NY  NNW 000                       N    
MTM0692400026014570    77893550                                                                                               
RDG06924000WATRL000000004K00000000000000039000308202015074113N000304100010U40       004990400K 10000000010000000119           
CUS0692400000106094797005         DANJAEKYUNG LLC     146< BACK RIVER NECK RD                 000N        CARE OF             
MTR06924000001000000000000000RA              77893550    007500930000009300000360000003NN  NNW 000                       N    
RDG06924000WATRL000000004R00000000000000039000008192015095410N000400000010N         000010400R 10000000010000000036           
RFF0692400068296333      ERT      0000  956.44375000140000081920150954100000390366100W 1220000N                               
CUS0692400000106094798003         KIM CASEY           150 BACK RIVER NECK RD                  000N        CARE OF             
MTR06924000001000000000000000RA              78007513    005800940000009400000360000003NN  NNW 000                       N    
RDG06924000WATRL000000004R00000000000000036000008192015095510N000000000000N         000010400R 10000000010000000024           
RFF0692400068462363      ERT      0000  956.44375000140000081920150955100000368439100W 1220000N                               
CUS0692400000106094799001         MARIAS DELIGHT CARRY152 BACK RIVER NECK RD                  000N        CARE OF             
MTR06924000001000000000000000RA              77893600    007500950000009500000360000003NN  NNW 000                       N    
RDG06924000WATRL000000004R00000000000000224000008192015095442N000000000000N         000010400R 10000000010000000102           
RFF0692400068312453      ERT      0004  956.44375000140004081920150954420002243455100W 1220000N                               
CUS0692400000106094800007         MALEC PATRICK JOSEPH202 BACK RIVER NECK RD                  000N        CARE OF             
MTR06924000001000000000000000RA              78007946    005800960000009600000360000003NN  NNW 000                       N    
RDG06924000WATRL000000004R00000000000000067000008192015095510N000000000000N         000010400R 10000000010000000026           
RFF0692400068545641      ERT      0000  956.44375000140000081920150955100000675800100W 1220000N                               
CUS0692400000106094801005         PINTOO INC          206 BACK RIVER NECK RD                  000N        CARE OF             
MTR06924000001000000000000000RA              77886543    005800970000009700000360000003NN  NNW 000                       N    
RDG06924000WATRL000000004R00000000000000022000008192015095506N000400000010N         000010400R 10000000010000000018           
RFF0692400068461799      ERT      0000  956.44375000140000081920150955060000221837100W 1220000N                               
CUS0692400000106094802003         PINTOO INC          208 BACK RIVER NECK RD                  000N        CARE OF             
MTR06924000001000000000000000RA              77877755    005800980000009800000360000003NN  NNW 000                       N    
RDG06924000WATRL000000004R00000000000000269000008192015095516N000400000010N         000010400R 10000000010000000203           
RFF0692400068544826      ERT      0004  956.44375000140004081920150955160002691897100W 1220000N                               
CUS0692400000106094803001         PINTOO INC          210 BACK RIVER NECK RD                  000N        CARE OF             
MTR06924000001000000000000000RA              77886501    005800990000009900000360000003NN  NNW 000                       N    
RDG06924000WATRL000000004R00000000000000108000008192015095328N000400000010N         000010400R 10000000010000000081           
RFF0692400068462490      ERT      0000  956.44375000140004081920150953280001084528100W 1220000N                               
CUS0692400000106094804009         PINTOO INC          214 BACK RIVER NECK RD                  000N        CARE OF             
MTR06924000001000000000000000RA              77886642    005801000000010000000360000003NN  NNW 000                       N    
RDG06924000WATRL000000004R00000000000000000000008192015095454N000100000010N         000020400R 10000000010000000000           
RFF0692400068632198      ERT      0000  956.44375000140000081920150954540000000021100W 1220000N                               
CUS0692400000106094805006         KING CHRISTOPHER JOH226 BACK RIVER NECK RD                  000N        CARE OF             
MTR06924000001000000000000000RA              77886538    005801010000010100000360000003NN  NNW 000                       N    
RDG06924000WATRL000000004R00000000000000026000008192015095604N000400000010N         000010400R 10000000010000000021           
RFF0692400068462398      ERT      0000  956.44375000140000081920150956040000266968100W 1220000N                               
CUS0692400000106094806004         SWIDERSKI STEPHEN P 224 BACK RIVER NECK RD                  000N        CARE OF             
MTR06924000001000000000000000RA              77893584    007501020000010200000360000003NN  NNW 000                       N    
RDG06924000WATRL000000004R00000000000000043000008192015095458N000000000000N         000010400R 10000000010000000025           
RFF0692400068312545      ERT      0000  956.44375000140000081920150954580000431085100W 1220000N                               
CUS0692400000106094807002         330 BACK RIVER NECK 330 BACK RIVER NECK RD                  000N        CARE OF             
MTR06924000001000000000000000RA              77886565    005801030000010300000360000003NN  NNW 000                       N    
RDG06924000WATRL000000004R00000000000000004000008192015095626N000400000010N         000010400R 10000000010000000003           
RFF0692400068457943      ERT      0000  956.44375000140000081920150956260000047805100W 1220000N                               
CUS0692400000106094810006         HARRIS ROBERT F     338 BACK RIVER NECK RD                  000N        CARE OF             
MTR06924000001000000000000000RA              77886535    005801040000010400000360000003NN  NNW 000                       N    
RDG06924000WATRL000000004R00000000000000005000008192015095620N000300000010N         000010400R 10000000010000000002           
RFF0692400068462455      ERT      0000  956.44375000140004081920150956200000056906100W 1220000N                               
CUS0692400000106431830006         BURTON MICHAEL F    347 BACK RIVER NECK RD                  000N        CARE OF             
MTR06924000001000000000000000RA              77886516    005801050000010500000360000003NN  NNW 000                       N    
RDG06924000WATRL000000004R00000000000000017000008192015095636N000000000000N         000010400R 10000000010000000011           
RFF0692400068462007      ERT      0000  956.44375000140000081920150956360000179272100W 1220000N                               
CUS0692400000106431828000         HICKS JAMES G       349 BACK RIVER NECK RD                  000N        CARE OF             
MTR06924000001000000000000000RA              77886544    005801060000010600000360000003NN  NNW 000                       N    
RDG06924000WATRL000000004R00000000000000073000008192015095740N000000000000N         000010400R 10000000010000000040           
RFF0692400068462559      ERT      0000  956.44375000140000081920150957400000735265100W 1220000N                               
CUS0692400000106092404000         STEINBERG PHILLIP   355 BACK RIVER NECK RD                  000N        CARE OF             
MTR06924000001000000000000000RA              77886524    005801070000010700000360000003NN  NNW 000                       N    
RDG06924000WATRL000000004R00000000000000047000008192015095638N000400000010N         000010400R 10000000010000000032           
RFF0692400068462626      ERT      0004  956.44375000140000081920150956380000470996100W 1220000N                               
CUS0692400000106432159009         FACELLO KENNETH G   357 BACK RIVER NECK RD                  000N        CARE OF             
MTR06924000001000000000000000RA              77886509    005801080000010800000360000003NN  NNW 000                       N    
RDG06924000WATRL000000004R00000000000000061000008192015095648N000000000000N         000010400R 10000000010000000039           
RFF0692400068461995      ERT      0000  956.44375000140000081920150956480000610809100W 1220000N                               
CUS0692400000106092405007         THOMPSON FELICIA T  353 BACK RIVER NECK RD                  000N        CARE OF             
MTR06924000001000000000000000RA              77886550    005801090000010900000360000003NN  NNW 000                       N    
RDG06924000WATRL000000004R00000000000000094000008192015095612N000000000000N         000010400R 10000000010000000043           
RFF0692400068461801      ERT      0000  956.44375000140000081920150956120000947388100W 1220000N                               
CUS0692400000106415317004         BOCK BRENDA I       351 BACK RIVER NECK RD                  000N        CARE OF             
MTR06924000001000000000000000RA              77886573    005801100000011000000360000003NN  NNW 000                       N    
RDG06924000WATRL000000004R00000000000000067000008192015095646N000400000010N         000010400R 10000000010000000045           
RFF0692400068457979      ERT      0000  956.44375000140004081920150956460000673172100W 1220000N                               
CUS0692400000106092406005         HUGHES DANIEL A     345 BACK RIVER NECK RD                  000N        CARE OF             
MTR06924000001000000000000000RA              77886528    005801110000011100000360000003NN  NNW 000                       N    
RDG06924000WATRL000000004R00000000000000080000008192015095630N000000000000N         000020400R 10000000010000000044           
RFF0692400068462435      ERT      0004  956.44375000140004081920150956300000803354100W 1220000N                               
CUS0692400000106092407003         STANSBURY CHRISTOPHE1635 BROWNS RD                          000N        CARE OF             
MTR06924000001000000000000000RA              78857812    005801120000011200000360000003NN  NNW 000                       N    
RDG06924000WATRL000000004R00000000000000000000408202015074550S002000000000U40       002770400R 10000000010000000000           
RFF0692400068823838      ERT      0000  956.4437500014000000000000000000                  0001N                               
CUS0692400000106442996002         CORNISH BEATRICE    1602 BROWNS RD                          000N        CARE OF             
MTR06924000001000000000000000RA              77878298    005801130000011300000360000003NN  NNW 000                       N    
RDG06924000WATRL000000004R00000000000000013000008192015095716N000400000010N         000010400R 10000000010000000010           
RFF0692400068453484      ERT      0000  956.44375000140000081920150957160000138432100W 1220000N                               
CUS0692400000106410396003         BROWN JOHN E,JR     1604 BROWNS RD                          000N        CARE OF             
MTR06924000001000000000000000RA              77886378    005801140000011400000360000003NN  NNW 000                       N    
RDG06924000WATRL000000004R00000000000000156000008192015095730N000000000000N         000010400R 10000000010000000114           
RFF0692400068457774      ERT      0000  956.44375000140000081920150957300001566019100W 1220000N                               
CUS0692400000106424981006         COLUMBUS BROWN      1610 BROWNS RD                          000N        CARE OF             
MTR06924000001000000000000000RA              77878300    005801150000011500000360000003NN  NNW 000                       N    
RDG06924000WATRL000000004R00000000000000051000008192015095724N000400000010N         000010400R 10000000010000000041           
RFF0692400068453669      ERT      0000  956.44375000140000081920150957240000519167100W 1220000N                               
CUS0692400000106376474000         NEW TESTAMENT CHRIST1639 BROWNS RD                          000N        CARE OF             
MTR06924000001000000000000000RA              78749231    005801160000011600000360000003NN  NNW 000                       N    
RDG06924000WATRL000000004R00000000000000008000008192015095930N000000000000N         000010400R 10000000010000000004           
RFF0692400068831018      ERT      0000  956.44375000140000081920150959300000083094100W 1220000N                               
CUS0692400000106092408001         WOODLAN T JACKSON   1651 BROWNS RD                          000N        CARE OF             
MTR06924000001000000000000000RA              78005074    005801170000011700000360000003NN  NNW 000                       N    
RDG06924000WATRL000000004R00000000000000125000008192015095956N000000000000N         000010400R 10000000010000000053           
RFF0692400068515278      ERT      0004  956.44375000140004081920150959560001254393100W 1220000N                               
CUS0692400000106092410007         PETRI WENDELL A     1710 BROWNS RD                          000N        CARE OF             
MTR06924000001000000000000000RA              77878285    005801180000011800000360000003NN  NNW 000                       N    
RDG06924000WATRL000000004R00000000000000026000008192015100004N000000000000N         000010400R 10000000010000000017           
RFF0692400068453683      ERT      0000  956.44375000140000081920151000040000264900100W 1220000N                               
CUS0692400000106092411005         GREEN RUSSELL M     1704 BROWNS RD                          000N        CARE OF             
MTR06924000001000000000000000RA              77878237    005801190000011900000360000003NN  NNW 000                       N    
RDG06924000WATRL000000004R00000000000000051000008192015100012N000000000000N         000010400R 10000000010000000031           
RFF0692400068457139      ERT      0000  956.44375000140000081920151000120000514013100W 1220000N                               
CUS0692400000106092412003         PALUMBO JO ELLEN    1700 BROWNS RD                          000N        CARE OF             
MTR06924000001000000000000000RA              77878288    005801200000012000000360000003NN  NNW 000                       N    
RDG06924000WATRL000000004R00000000000000037000008192015095956N000000000000N         000010400R 10000000010000000018           
RFF0692400068457534      ERT      0000  956.44375000140000081920150959560000377718100W 1220000N                               
CUS0692400000106353224006         GIRARD BARBARA P    408 ANNETTA RD                          000N        CARE OF             
MTR06924000001000000000000000RA              77878305    005801210000012100000360000003NN  NNW 000                       N    
RDG06924000WATRL000000004R00000000000000046000008192015095950N000000000000N         000010400R 10000000010000000023           
RFF0692400068453652      ERT      0000  956.44375000140000081920150959500000461512100W 1220000N                               
CUS0692400000106092413001         PAINTER DANIEL E    1650 BROWNS RD                          000N        CARE OF             
MTR06924000001000000000000000RA              77878264    005801220000012200000360000003NN  NNW 000                       N    
RDG06924000WATRL000000004R00000000000000051000008192015095940N000000000000N         000020400R 10000000010000000034           
RFF0692400068457087      ERT      0000  956.44375000140004081920150959400000519958100W 1220000N                               
CUS0692400000106092414009         PRESTON EDWARD M    1626 BROWNS RD                          000N        CARE OF             
MTR06924000001000000000000000RA              78749271    005801230000012300000360000003NN  NNW 000                       N    
RDG06924000WATRL000000004R00000000000000000000008192015095904N000100000010N         000010400R 10000000010000000000           
RFF0692400068822558      ERT      0000  956.44375000140000081920150959040000000020100W 1220000N                               
CUS0692400000106422311008         GRAY JOYCE PULLUM   337 BACK RIVER NECK RD                  000N        CARE OF             
MTR06924000001000000000000000RA              77886510    005801240000012400000360000003NN  NNW 000                       N    
RDG06924000WATRL000000004R00000000000000003000008192015095616N000100000010N         000010400R 10000000010000000003           
RFF0692400068462010      ERT      0000  956.44375000140000081920150956160000038363100W 1220000N                               
CUS0692400000106092415006         BROWN ELLA L        335 BACK RIVER NECK RD                  000N        CARE OF             
MTR06924000001000000000000000RA              77886513    005801250000012500000360000003NN  NNW 000                       N    
RDG06924000WATRL000000004R00000000000000051000008192015095626N000000000000N         000010400R 10000000010000000025           
RFF0692400068461258      ERT      0000  956.44375000140000081920150956260000515221100W 1220000N                               
CUS0692400000106092416004         SUKHU INDRA         333 BACK RIVER NECK RD                  000N        CARE OF             
MTR06924000001000000000000000RA              77886537    005801260000012600000360000003NN  NNW 000                       N    
RDG06924000WATRL000000004R00000000000000096000008192015095504N000400000010N         000010400R 10000000010000000067           
RFF0692400068462434      ERT      0000  956.44375000140004081920150955040000962898100W 1220000N                               
CUS0692400000106410616004         CASSANDRA UMOH      331 BACK RIVER NECK RD                  000N        CARE OF             
MTR06924000001000000000000000RA              77886500    005801270000012700000360000003NN  NNW 000                       N    
RDG06924000WATRL000000004R00000000000000138000008192015095600N000000000000N         000010400R 10000000010000000068           
RFF0692400068461905      ERT      0004  956.44375000140004081920150956000001384622100W 1220000N                               
CUS0692400000106092417002         BROWN WILLIAM C     329 BACK RIVER NECK RD                  000N        CARE OF             
MTR06924000001000000000000000RA              77886508    005801280000012800000360000003NN  NNW 000                       N    
RDG06924000WATRL000000004R00000000000000014000008192015095612N000000000000N         000010400R 10000000010000000009           
RFF0692400068461901      ERT      0000  956.44375000140000081920150956120000142297100W 1220000N                               
CUS0692400000109349298001         GALLAGHER RONALD R,S313 BACK RIVER NECK RD                  000N        CARE OF             
MTR06924000001000000000000000RA              60876085    001501290000012900000670000003NN  NNW 000                       N    
RDG06924000WATRL000000005R00000000000000000000008192015095608N000100000010N         000010500R 10000000020000000000           
RFF0692400068419838      ERT      0000  956.44375000140000081920150956080000000004100W 1210000N                               
CUS0692400000106092419008         ROYAL FARMS         NES BACK RIVER NECK RD                  000N        CARE OF             
MTR06924000001000000000000000RA              01084644    005801300000013000000610000003NY  NNW 000                       N    
MTM0692400001084644    78748438                                                                                               
RDG06924000WATRL000000004K00000000000000000000608202015075214N000304100010U40       001070400K 10000000010000001187           
CUS0692400000106092420006         CLOVERLAND FARMS DAI1601 MIDDLEBOROUGH RD                   000N        CARE OF             
MTR06924000001000000000000000RA              78748438    005801310000013100000360000003NN  NNW 000                       N    
RDG06924000WATRL000000004R00000000000000141000008192015095602N000400000010N         000010400R 10000000010000000056           
RFF0692400068632741      ERT      0004  956.44375000140004081920150956020001415460100W 1220000N                               
CUS0692400000106443674004         TWO FARMS INC       1601 MIDDLEBOROUGH RD                   000N        CARE OF             
MTR06924000001000000000000000RA              00166202    000101320000013200000570000003NY  NNW 000                       N    
MTM0692400000166202    78748438                                                                                               
RDG06924000WATRL000000004K00000000000005638000508202015075406N000000000011U40       001120400K 10000000010000005528           
CUS0692400000106092421004         COLVIN EARL E       1609 MIDDLEBOROUGH RD                   000N        CARE OF             
MTR06924000001000000000000000RA              77886483    005801330000013300000360000003NN  NNW 000                       N    
RDG06924000WATRL000000004R00000000000000036000008192015095604N000000000000N         000010400R 10000000010000000024           
RFF0692400068462012      ERT      0000  956.44375000140000081920150956040000367400100W 1220000N                               
CUS0692400000106092422002         SNYDER RICHARD WILLI1613 MIDDLEBOROUGH RD                   000N        CARE OF             
MTR06924000001000000000000000RA              77886529    005801340000013400000360000003NN  NNW 000                       N    
RDG06924000WATRL000000004R00000000000000042000008192015095612N000400000010N         000010400R 10000000010000000032           
RFF0692400068461964      ERT      0000  956.44375000140000081920150956120000425520100W 1220000N                               
CUS0692400000106092423000         BOSSE GORDON M      1615 MIDDLEBOROUGH RD                   000N        CARE OF             
MTR06924000001000000000000000RA              77886486    005801350000013500000360000003NN  NNW 000                       N    
RDG06924000WATRL000000004R00000000000000000000008192015095548N000100000010N         000020400R 10000000010000000000           
RFF0692400068457263      ERT      0000  956.44375000140000081920150955480000005692100W 1220000N                               
CUS0692400000106092424008         SHELDON T ROBINSON  1619 MIDDLEBOROUGH RD                   000N        CARE OF             
MTR06924000001000000000000000RA              77886484    005801360000013600000360000003NN  NNW 000                       N    
RDG06924000WATRL000000004R00000000000000086000008192015095610N000000000000N         000010400R 10000000010000000052           
RFF0692400068461992      ERT      0008  956.44375000140008081920150956100000864661100W 1220000N                               
CUS0692400000106092425005         WELCH GARY DEAN     1703 MIDDLEBOROUGH RD                   000N        CARE OF             
MTR06924000001000000000000000RA              77886504    005801370000013700000360000003NN  NNW 000                       N    
RDG06924000WATRL000000004R00000000000000105000008192015095634N000000000000N         000010400R 10000000010000000053           
RFF0692400068462482      ERT      0000  956.44375000140000081920150956340001050991100W 1220000N                               
CUS0692400000106092426003         DRESCHER FREDERICK L1705 MIDDLEBOROUGH RD                   000N        CARE OF             
MTR06924000001000000000000000RA              48586123    005801380000013800000520000003NN  NNW 000                       N    
RDG06924000WATRL000000004K00000000000003936000708202015075640N000300000010U40       001540400K 10000000010000003938           
CUS0692400000106092427001         BLACKPOOL ENTERPRISE1707 MIDDLEBOROUGH RD                   000N        CARE OF             
MTR06924000001000000000000000RA              77888193    005801390000013900000360000003NN  NNW 000                       N    
RDG06924000WATRL000000004K00000000000000012000808202015075726N000000000000U40       000460400K 10000000010000000004           
CUS0692400000106092428009         JOHNSON JOHN ALFRED 1709 MIDDLEBOROUGH RD                   000N        CARE OF             
MTR06924000001000000000000000RA              77886503    005801400000014000000360000003NN  NNW 000                       N    
RDG06924000WATRL000000004R00000000000000015000008192015100408N000000000000N         000010400R 10000000010000000010           
RFF0692400068462391      ERT      0000  956.44375000140000081920151004080000150140100W 1220000N                               
CUS0692400000106092429007         DEDDER STACY ANN    1711 MIDDLEBOROUGH RD                   000N        CARE OF             
MTR06924000001000000000000000RA              77886482    005801410000014100000360000003NN  NNW 000                       N    
RDG06924000WATRL000000004R00000000000000034000008192015095618N000000000000N         000010400R 10000000010000000022           
RFF0692400068457254      ERT      0000  956.44375000140000081920150956180000348325100W 1220000N                               
CUS0692400000106092430005         THIER JAMES G       300 LOCUST AVE                          000N        CARE OF             
MTR06924000001000000000000000RA              78007172    005801420000014200000360000003NN  NNW 000                       N    
RDG06924000WATRL000000004R00000000000000067000008192015100402N000400000010N         000010400R 10000000010000000046           
RFF0692400068312524      ERT      0000  956.44375000140000081920151004020000675831100W 1220000N                               
CUS0692400000106092431003         TUCKER DANIEL K     302 LOCUST AVE                          000N        CARE OF             
MTR06924000001000000000000000RA              78007178    005801430000014300000360000003NN  NNW 000                       N    
RDG06924000WATRL000000004R00000000000000055000008192015100356N000100000010N         000010400R 10000000010000000055           
RFF0692400068312589      ERT      0000  956.44375000140000081920151003560000556790100W 1220000N                               
CUS0692400000106092432001         CAMPBELL JOHN       304 LOCUST AVE                          000N        CARE OF             
MTR06924000001000000000000000RA              78007207    005801440000014400000360000003NN  NNW 000                       N    
RDG06924000WATRL000000004R00000000000000113000008192015100352N000000000000N         000010400R 10000000010000000071           
RFF0692400068311926      ERT      0000  956.44375000140000081920151003520001136016100W 1220000N                               
CUS0692400000106092433009         GAVAZZI PAUL O      306 LOCUST AVE                          000N        CARE OF             
MTR06924000001000000000000000RA              77989891    005801450000014500000360000003NN  NNW 000                       N    
RDG06924000WATRL000000004R00000000000000032000008192015100344N000000000000N         000010400R 10000000010000000021           
RFF0692400068462625      ERT      0000  956.44375000140000081920151003440000326880100W 1220000N                               
CUS0692400000106092434007         MULLEN FRANK R,JR   308 LOCUST AVE                          000N        CARE OF             
MTR06924000001000000000000000RA              78007166    005801460000014600000360000003NN  NNW 000                       N    
RDG06924000WATRL000000004R00000000000000035000008192015100346N000400000010N         000010400R 10000000010000000024           
RFF0692400068313093      ERT      0000  956.44375000140000081920151003460000352289100W 1220000N                               
CUS0692400000106092435004         MADDEN JAMES ROBERT,310 LOCUST AVE                          000N        CARE OF             
MTR06924000001000000000000000RA              78007205    005801470000014700000360000003NN  NNW 000                       N    
RDG06924000WATRL000000004R00000000000000044000008192015095704N000000000000N         000020400R 10000000010000000028           
RFF0692400068311897      ERT      0000  956.44375000140000081920150957040000440408100W 1220000N                               
CUS0692400000106092436002         HELEN F HICKS       312 LOCUST AVE                          000N        CARE OF             
MTR06924000001000000000000000RA              78007164    005801480000014800000360000003NN  NNW 000                       N    
RDG06924000WATRL000000004R00000000000000038000008192015100318N000000000000N         000010400R 10000000010000000024           
RFF0692400068313204      ERT      0000  956.44375000140000081920151003180000387825100W 1220000N                               
CUS0692400000106427289001         COOKE GILBERT L,JR  314 LOCUST AVE                          000N        CARE OF             
MTR06924000001000000000000000RA              99187151    005801490000014900000520000003NN  NNW 000                       N    
RDG06924000WATRL000000004K00000000000001472000908202015080517N000000000011U40       004660400K 10000000010000001456           
CUS0692400000106427290009         HORNEY RODNEY A     317 LOCUST AVE                          000N        CARE OF             
MTR06924000001000000000000000RA              99188501    005801500000015000000570000003NN  NNW 000                       N    
RDG06924000WATRL000000004K00000000000000651001008202015080607N000400000011U40       000500400K 10000000010000000629           
CUS0692400000106092437000         MOORE PAUL W,JR     315 LOCUST AVE                          000N        CARE OF             
MTR06924000001000000000000000RA              78007169    005801510000015100000360000003NN  NNW 000                       N    
RDG06924000WATRL000000004R00000000000000046000008192015100356N000000000000N         000010400R 10000000010000000029           
RFF0692400068311895      ERT      0000  956.44375000140000081920151003560000468094100W 1220000N                               
CUS0692400000106092438008         GEORGE THIER        313 LOCUST AVE                          000N        CARE OF             
MTR06924000001000000000000000RA              78007189    005801520000015200000360000003NN  NNW 000                       N    
RDG06924000WATRL000000004R00000000000000016000008192015100354N000000000000N         000010400R 10000000010000000008           
RFF0692400068296293      ERT      0000  956.44375000140000081920151003540000166036100W 1220000N                               
CUS0692400000106092439006         MELISSA HUGHES      311 LOCUST AVE                          000N        CARE OF             
MTR06924000001000000000000000RA              78007192    005801530000015300000360000003NN  NNW 000                       N    
RDG06924000WATRL000000004R00000000000000028000008192015095616N000000000000N         000010400R 10000000010000000015           
RFF0692400068311956      ERT      0000  956.44375000140000081920150956160000282211100W 1220000N                               
CUS0692400000106092440004         BLOSSER RUSSELL L   309 LOCUST AVE                          000N        CARE OF             
MTR06924000001000000000000000RA              78007201    005801540000015400000360000003NN  NNW 000   VACANT / LOT        N    
RDG06924000WATRL000000004R00000000000000000000008192015100346N000100000010N         000010400R 10000000010000000000           
RFF0692400068311888      ERT      0000  956.44375000140000081920151003460000000020100W 1220000N                               
CUS0692400000106092441002         SEABOLT AARON N     307 LOCUST AVE                          000N        CARE OF             
MTR06924000001000000000000000RA              78007177    005801550000015500000360000003NN  NNW 000                       N    
RDG06924000WATRL000000004R00000000000000039000008192015100340N000000000000N         000010400R 10000000010000000025           
RFF0692400068312644      ERT      0000  956.44375000140000081920151003400000395259100W 1220000N                               
CUS0692400000106092442000         RONALD L. JAMES     305 LOCUST AVE                          000N        CARE OF             
MTR06924000001000000000000000RA              46888615    005801560000015600000520000003NY  NNW 000                       N    
MTM0692400046888615    COVERED                                                                                                
RDG06924000WATRL000000004K00000000000000000000000000000000000 000000000000U         000000400  10000000010000001122           
CUS0692400000106092443008         MILLER RALPH L      303 LOCUST AVE                          000N        CARE OF             
MTR06924000001000000000000000RA              78007181    005801570000015700000360000003NN  NNW 000                       N    
RDG06924000WATRL000000004R00000000000000014000008192015100354N000000000000N         000010400R 10000000010000000009           
RFF0692400068313195      ERT      0000  956.44375000140000081920151003540000144167100W 1220000N                               
CUS0692400000106092444006         HEALY JOSEPHINE H   301 LOCUST AVE                          000N        CARE OF             
MTR06924000001000000000000000RA              78007202    005801580000015800000360000003NN  NNW 000                       N    
RDG06924000WATRL000000004R00000000000000034000008192015100404N000300000010N         000010400R 10000000010000000021           
RFF0692400068311893      ERT      0000  956.44375000140000081920151004040000345465100W 1220000N                               
CUS0692400000106092445003         BARR DANIEL R       1713 MIDDLEBOROUGH RD                   000N        CARE OF             
MTR06924000001000000000000000RA              77886485    005801590000015900000360000003NN  NNW 000                       N    
RDG06924000WATRL000000004R00000000000000022000008192015100408N000000000000N         000010400R 10000000010000000014           
RFF0692400068457273      ERT      0004  956.44375000140004081920151004080000225362100W 1220000N                               
CUS0692400000106092446001         BENSON DARLENE      1715 MIDDLEBOROUGH RD                   000N        CARE OF             
MTR06924000001000000000000000RA              77886493    005801600000016000000360000003NN  NNW 000                       N    
RDG06924000WATRL000000004R00000000000000024000008192015100408N000000000000N         000020400R 10000000010000000016           
RFF0692400068462494      ERT      0000  956.44375000140000081920151004080000241465100W 1220000N                               
CUS0692400000106092447009         DENSMORE THOMAS W   1717 MIDDLEBOROUGH RD                   000N        CARE OF             
MTR06924000001000000000000000RA              77886530    005801610000016100000360000003NN  NNW 000                       N    
RDG06924000WATRL000000004R00000000000000086000008192015100426N000400000010N         000010400R 10000000010000000058           
RFF0692400068461773      ERT      0004  956.44375000140000081920151004260000860396100W 1220000N                               
CUS0692400000106398161007         COMMUNITY DEVELOPMEN1719 MIDDLEBOROUGH RD                   000N        CARE OF             
MTR06924000001000000000000000RA              77886481    005801620000016200000360000003NN  NNW 000   VACANT / LOT        N    
RDG06924000WATRL000000004R00000000000000000000008192015100410N000100000010N         000010400R 10000000010000000000           
RFF0692400068462486      ERT      0000  956.44375000140000081920151004100000001659100W 1220000N                               
CUS0692400000106401411001         CURTIS-TOWAH LATICIA1723 MIDDLEBOROUGH RD                   000N        CARE OF             
MTR06924000001000000000000000RA              77886491    005801630000016300000360000003NN  NNW 000                       N    
RDG06924000WATRL000000004R00000000000000063000008192015100412N000000000000N         000010400R 10000000010000000041           
RFF0692400068457251      ERT      0008  956.44375000140000081920151004120000631090100W 1220000N                               
CUS0692400000106379714006         FLYNN LISA M        1725 MIDDLEBOROUGH RD                   000N        CARE OF             
MTR06924000001000000000000000RA              77886494    005801640000016400000360000003NN  NNW 000                       N    
RDG06924000WATRL000000004R00000000000000045000008192015100434N000000000000N         000010400R 10000000010000000027           
RFF0692400068462487      ERT      0000  956.44375000140000081920151004340000453737100W 1220000N                               
CUS0692400000106381898003         HAYES CHARLES R,JR  302 WEST RD                             000N        CARE OF             
MTR06924000001000000000000000RA              78007126    005801650000016500000360000003NN  NNW 000                       N    
RDG06924000WATRL000000004R00000000000000025000008192015100438N000400000010N         000010400R 10000000010000000020           
RFF0692400068457715      ERT      0000  956.44375000140000081920151004380000253052100W 1220000N                               
CUS0692400000106387204008         ROBERT SMITH &      304 WEST RD                             000N        CARE OF             
MTR06924000001000000000000000RA              77989804    005801660000016600000360000003NN  NNW 000                       N    
RDG06924000WATRL000000004R00000000000000084000008192015100450N000400000010N         000010400R 10000000010000000060           
RFF0692400068462580      ERT      0004  956.44375000140004081920151004500000847489100W 1220000N                               
CUS0692400000106389215002         STEPHEN J MCMILLION 306 WEST RD                             000N        CARE OF             
MTR06924000001000000000000000RA              78007145    005801670000016700000360000003NN  NNW 000                       N    
RDG06924000WATRL000000004R00000000000000029000008192015100514N000400000010N         000010400R 10000000010000000022           
RFF0692400068457465      ERT      0000  956.44375000140000081920151005140000299878100W 1220000N                               
CUS0692400000106401446007         CRAWFORD KIRK A     6 HORNEY CT                             000N        CARE OF             
MTR06924000001000000000000000RA              78007373    005801680000016800000360000003NN  NNW 000                       N    
RDG06924000WATRL000000004R00000000000000083000008192015100456N000000000000N         000010400R 10000000010000000053           
RFF0692400068312015      ERT      0000  956.44375000140000081920151004560000838139100W 1220000N                               
CUS0692400000106401445009         LEON JOSEPH         8 HORNEY CT                             000N        CARE OF             
MTR06924000001000000000000000RA              77986808    005801690000016900000360000003NN  NNW 000                       N    
RDG06924000WATRL000000004R00000000000000062000008192015100420N000000000000N         000010400R 10000000010000000041           
RFF0692400068313103      ERT      0000  956.44375000140000081920151004200000627156100W 1220000N                               
CUS0692400000106401444002         STRAUSSER VIRGINIA L10 HORNEY CT                            000N        CARE OF             
MTR06924000001000000000000000RA              77989903    005801700000017000000360000003NN  NNW 000                       N    
RDG06924000WATRL000000004R00000000000000016000008192015100432N000000000000N         000010400R 10000000010000000010           
RFF0692400068457700      ERT      0000  956.44375000140000081920151004320000163710100W 1220000N                               
CUS0692400000106401443004         MCDONOUGH JOHN W    12 HORNEY CT                            000N        CARE OF             
MTR06924000001000000000000000RA              77989914    005801710000017100000360000003NN  NNW 000                       N    
RDG06924000WATRL000000004R00000000000000056000008192015100432N000400000010N         000020400R 10000000010000000038           
RFF0692400068457721      ERT      0000  956.44375000140000081920151004320000563334100W 1220000N                               
CUS0692400000106401442006         PITTS HAROLD A      14 HORNEY CT                            000N        CARE OF             
MTR06924000001000000000000000RA              77989904    005801720000017200000360000003NN  NNW 000                       N    
RDG06924000WATRL000000004R00000000000000085000008192015100734N000000000000N         000010400R 10000000010000000053           
RFF0692400068457861      ERT      0004  956.44375000140008081920151007340000857854100W 1220000N                               
CUS0692400000106401441008         FOREHAND MICHAEL L  16 HORNEY CT                            000N        CARE OF             
MTR06924000001000000000000000RA              77989634    005801730000017300000360000003NN  NNW 000                       N    
RDG06924000WATRL000000004R00000000000000064000008192015100442N000000000000N         000010400R 10000000010000000030           
RFF0692400068461969      ERT      0000  956.44375000140000081920151004420000642740100W 1220000N                               
CUS0692400000106401440000         FISHER EARL R,JR    18 HORNEY CT                            000N        CARE OF             
MTR06924000001000000000000000RA              78007428    005801740000017400000360000003NN  NNW 000                       N    
RDG06924000WATRL000000004R00000000000000038000008192015100428N000000000000N         000010400R 10000000010000000023           
RFF0692400068462119      ERT      0000  956.44375000140000081920151004280000385098100W 1220000N                               
CUS0692400000106401439002         ONNEN NADIA ANISYA  11 HORNEY CT                            000N        CARE OF             
MTR06924000001000000000000000RA              78007198    005801750000017500000360000003NN  NNW 000                       N    
RDG06924000WATRL000000004R00000000000000078000008192015100446N000000000000N         000010400R 10000000010000000049           
RFF0692400068311934      ERT      0000  956.44375000140000081920151004460000787689100W 1220000N                               
CUS0692400000106401447005         FISHER WILLIAM R    9 HORNEY CT                             000N        CARE OF             
MTR06924000001000000000000000RA              77989853    005801760000017600000360000003NN  NNW 000                       N    
RDG06924000WATRL000000004R00000000000000074000008192015100432N000000000000N         000010400R 10000000010000000046           
RFF0692400068462589      ERT      0000  956.44375000140000081920151004320000744243100W 1220000N                               
CUS0692400000106401448003         JANIS M BONADIO     7 HORNEY CT                             000N        CARE OF             
MTR06924000001000000000000000RA              78007365    005801770000017700000360000003NN  NNW 000                       N    
RDG06924000WATRL000000004R00000000000000065000008192015100402N000400000010N         000010400R 10000000010000000046           
RFF0692400068312031      ERT      0000  956.44375000140000081920151004020000656615100W 1220000N                               
CUS0692400000106401449001         ADKINS LARRY P      5 HORNEY CT                             000N        CARE OF             
MTR06924000001000000000000000RA              78007159    005801780000017800000360000003NN  NNW 000                       N    
RDG06924000WATRL000000004R00000000000000063000008192015100406N000000000000N         000010400R 10000000010000000039           
RFF0692400068312565      ERT      0000  956.44375000140000081920151004060000639225100W 1220000N                               
CUS0692400000106401450009         EDWIN D & JEAN WAYSO3 HORNEY CT                             000N        CARE OF             
MTR06924000001000000000000000RA              77989867    005801790000017900000360000003NN  NNW 000                       N    
RDG06924000WATRL000000004R00000000000000054000008192015100454N000000000000N         000010400R 10000000010000000032           
RFF0692400068457758      ERT      0000  956.44375000140000081920151004540000541044100W 1220000N                               
CUS0692400000106401410003         ALGOO CECIL         308 WEST RD                             000N        CARE OF             
MTR06924000001000000000000000RA              78007090    005801800000018000000360000003NN  NNW 000                       N    
RDG06924000WATRL000000004R00000000000000070000008192015100512N000400000010N         000010400R 10000000010000000047           
RFF0692400068457701      ERT      0000  956.44375000140000081920151005120000704825100W 1220000N                               
CUS0692400000106401409005         SHUMAKER CHARLES P  310 WEST RD                             000N        CARE OF             
MTR06924000001000000000000000RA              77989812    005801810000018100000360000003NN  NNW 000                       N    
RDG06924000WATRL000000004R00000000000000045000008192015095942N000000000000N         000020400R 10000000010000000030           
RFF0692400068461786      ERT      0000  956.44375000140000081920150959420000458969100W 1220000N                               
CUS0692400000106401408007         WILDBERGER DANIEL G 312 WEST RD                             000N        CARE OF             
MTR06924000001000000000000000RA              78007087    005801820000018200000360000003NN  NNW 000                       N    
RDG06924000WATRL000000004R00000000000000055000008192015100208N000000000000N         000010400R 10000000010000000035           
RFF0692400068457639      ERT      0000  956.44375000140000081920151002080000553697100W 1220000N                               
CUS0692400000106092450003         CASSUP CANDICE L    314 WEST RD                             000N        CARE OF             
MTR06924000001000000000000000RA              78007141    005801830000018300000360000003NN  NNW 000                       N    
RDG06924000WATRL000000004R00000000000000026000008192015100516N000000000000N         000010400R 10000000010000000016           
RFF0692400068457135      ERT      0000  956.44375000140000081920151005160000266662100W 1220000N                               
CUS0692400000106401406001         JOHN P SCHROEDER JR 316 WEST RD                             000N        CARE OF             
MTR06924000001000000000000000RA              77989819    005801840000018400000360000003NN  NNW 000                       N    
RDG06924000WATRL000000004R00000000000000008000008192015100222N000000000000N         000010400R 10000000010000000004           
RFF0692400068457763      ERT      0000  956.44375000140000081920151002220000086262100W 1220000N                               
CUS0692400000106092449005         HEIL HARRY C,JR     318 WEST RD                             000N        CARE OF             
MTR06924000001000000000000000RA              77989811    005801850000018500000360000003NN  NNW 000                       N    
RDG06924000WATRL000000004R00000000000000003000008192015095942N000000000000N         000010400R 10000000010000000001           
RFF0692400068457959      ERT      0000  956.44375000140000081920150959420000036205100W 1220000N                               
CUS0692400000106439714004         DUNN PAUL M         320 WEST RD                             000N        CARE OF             
MTR06924000001000000000000000RA              77989802    005801860000018600000360000003NN  NNW 000                       N    
RDG06924000WATRL000000004R00000000000000082000008192015100706N000100000010N         000010400R 10000000010000000082           
RFF0692400068453483      ERT      0000  956.44375000140000081920151007060000826930100W 1220000N                               
CUS0692400000106092451001         JAMES WILLIAM MORGAN301 WEST RD                             000N        CARE OF             
MTR06924000001000000000000000RA              78007140    005801870000018700000360000003NN  NNW 000                       N    
RDG06924000WATRL000000004R00000000000000017000008192015100416N000000000000N         000010400R 10000000010000000011           
RFF0692400068457168      ERT      0000  956.44375000140000081920151004160000174458100W 1220000N                               
CUS0692400000106092452009         LAUBACH NANCY A     1801 MIDDLEBOROUGH RD                   000N        CARE OF             
MTR06924000001000000000000000RA              77886495    005801880000018800000360000003NN  NNW 000                       N    
RDG06924000WATRL000000004R00000000000000065000008192015100418N000400000010N         000010400R 10000000010000000046           
RFF0692400068462483      ERT      0000  956.44375000140000081920151004180000657320100W 1220000N                               
CUS0692400000106092453007         KRELL SCOTT H       1803 MIDDLEBOROUGH RD                   000N        CARE OF             
MTR06924000001000000000000000RA              77886489    005801890000018900000360000003NN  NNW 000                       N    
RDG06924000WATRL000000004R00000000000000099000008192015100434N000000000000N         000010400R 10000000010000000062           
RFF0692400068462467      ERT      0000  956.44375000140000081920151004340000993082100W 1220000N                               
CUS0692400000106092454005         KRELL PATRICIA JILL 1805 MIDDLEBOROUGH RD                   000N        CARE OF             
MTR06924000001000000000000000RA              77886448    005801900000019000000360000003NN  NNW 000                       N    
RDG06924000WATRL000000004R00000000000000036000008192015100424N000400000010N         000010400R 10000000010000000025           
RFF0692400068462378      ERT      0000  956.44375000140000081920151004240000368405100W 1220000N                               
CUS0692400000106092455002         FRAZIER KYMULA      1807 MIDDLEBOROUGH RD                   000N        CARE OF             
MTR06924000001000000000000000RA              77886456    005801910000019100000360000003NN  NNW 000                       N    
RDG06924000WATRL000000004R00000000000000018000008192015100416N000000000000N         000010400R 10000000010000000012           
RFF0692400068462420      ERT      0000  956.44375000140000081920151004160000188578100W 1220000N                               
CUS0692400000106092456000         CALO RICHARD        1809 MIDDLEBOROUGH RD                   000N        CARE OF             
MTR06924000001000000000000000RA              77886531    005801920000019200000360000003NN  NNW 000                       N    
RDG06924000WATRL000000004R00000000000000070000008192015100434N000000000000N         000020400R 10000000010000000039           
RFF0692400068461934      ERT      0000  956.44375000140000081920151004340000705384100W 1220000N                               
CUS0692400000106092457008         MILLER ALBERT W,JR  1811 MIDDLEBOROUGH RD                   000N        CARE OF             
MTR06924000001000000000000000RA              77886492    005801930000019300000360000003NN  NNW 000                       N    
RDG06924000WATRL000000004R00000000000000040000008192015100426N000400000010N         000010400R 10000000010000000027           
RFF0692400068457262      ERT      0000  956.44375000140000081920151004260000406401100W 1220000N                               
CUS0692400000106092458006         NAYLOR PROPERTIES LL1813 MIDDLEBOROUGH RD                   000N        CARE OF             
MTR06924000001000000000000000RA              77886532    005801940000019400000360000003NN  NNW 000                       N    
RDG06924000WATRL000000004R00000000000000046000008192015100952N000000000000N         000010400R 10000000010000000021           
RFF0692400068461999      ERT      0008  956.44375000140004081920151009520000468772100W 1220000N                               
CUS0692400000106092459004         NAYLOR PROPERTIES LL1815 MIDDLEBOROUGH RD                   000N        CARE OF             
MTR06924000001000000000000000RA              77886496    005801950000019500000360000003NN  NNW 000                       N    
RDG06924000WATRL000000004R00000000000000050000008192015100424N000000000000N         000010400R 10000000010000000032           
RFF0692400068462489      ERT      0000  956.44375000140000081920151004240000505286100W 1220000N                               
CUS0692400000106380078003         MILLER ROSEANN D    1817 MIDDLEBOROUGH RD                   000N        CARE OF             
MTR06924000001000000000000000RA              78749744    005801960000019600000360000003NN  NNW 000                       N    
RDG06924000WATRL000000004R00000000000000038000008192015100424N000400000010N         000010400R 10000000010000000016           
RFF0692400068625918      ERT      0000  956.44375000140000081920151004240000381259100W 1220000N                               
CUS0692400000106380077005         MILLER HARVEY WILLIA1817-A MIDDLEBOROUGH RD                 000N        CARE OF             
MTR06924000001000000000000000RA              77886534    005801970000019700000360000003NN  NNW 000                       N    
RDG06924000WATRL000000004R00000000000000208000008192015100402N000000000000N         000010400R 10000000010000000119           
RFF0692400068461993      ERT      0004  956.44375000140004081920151004020002085199100W 1220000N                               
CUS0692400000106092460002         WILLIAM S BALCH     1819 MIDDLEBOROUGH RD                   000N        CARE OF             
MTR06924000001000000000000000RA              77886487    005801980000019800000360000003NN  NNW 000                       N    
RDG06924000WATRL000000004R00000000000000102000008192015100604N000000000000N         000010400R 10000000010000000059           
RFF0692400068462479      ERT      0000  956.44375000140000081920151006040001029919100W 1220000N                               
CUS0692400000106395719005         RALPH L EVANS       1821 MIDDLEBOROUGH RD                   000N        CARE OF             
MTR06924000001000000000000000RA              77880488    005801990000019900000360000003NN  NNW 000                       N    
RDG06924000WATRL000000004R00000000000000050000008192015100424N000000000000N         000010400R 10000000010000000032           
RFF0692400068253859      ERT      0000  956.44375000140000081920151004240000509470100W 1220000N                               
CUS0692400000106410302001         MUELLER DORIS       1823 MIDDLEBOROUGH RD                   000N        CARE OF             
MTR06924000001000000000000000RA              78749258    005802000000020000000360000003NN  NNW 000                       N    
RDG06924000WATRL000000004R00000000000000043000008192015100428N000000000000N         000010400R 10000000010000000012           
RFF0692400068836392      ERT      0000  956.44375000140000081920151004280000434091100W 1220000N                               
CUS0692400000106398297009         BLANCHE CARDARELLI  1825 MIDDLEBOROUGH RD                   000N        CARE OF             
MTR06924000001000000000000000RA              77886488    005802010000020100000360000003NN  NNW 000                       N    
RDG06924000WATRL000000004R00000000000000027000008192015100434N000000000000N         000010400R 10000000010000000017           
RFF0692400068457272      ERT      0000  956.44375000140000081920151004340000271621100W 1220000N                               
CUS0692400000106092461000         JESSE DAVIS (TRUSTEE1829 MIDDLEBOROUGH RD                   000N        CARE OF             
MTR06924000001000000000000000RA              77886497    005802020000020200000360000003NN  NNW 000                       N    
RDG06924000WATRL000000004R00000000000000043000008192015100428N000000000000N         000020400R 10000000010000000031           
RFF0692400068462461      ERT      0004  956.44375000140004081920151004280000434047100W 1220000N                               
CUS0692400000106092464004         KIRBY ROBERT B      1907 MIDDLEBOROUGH RD                   000N        CARE OF             
MTR06924000001000000000000000RA              77886533    005802030000020300000360000003NN  NNW 000                       N    
RDG06924000WATRL000000004R00000000000000089000008192015100438N000000000000N         000010400R 10000000010000000056           
RFF0692400068461971      ERT      0000  956.44375000140000081920151004380000891460100W 1220000N                               
CUS0692400000106092465001         MICHAEL P FEDORCHAK 1909 MIDDLEBOROUGH RD                   000N        CARE OF             
MTR06924000001000000000000000RA              52768967    005802040000020400000520000003NN  NNW 000                       N    
RDG06924000WATRL000000004K00000000000001772001108202015081017N000000000000U40       002500400K 10000000010000001738           
CUS0692400000106092466009         CHMURA DAVID R      1911 MIDDLEBOROUGH RD                   000N        CARE OF             
MTR06924000001000000000000000RA              77886490    005802050000020500000360000003NN  NNW 000                       N    
RDG06924000WATRL000000004R00000000000005390001208202015081100N000300000010U40       000430400R 10000000010000000067           
RFF0692400068457258      ERT      0000  956.4437500014000008202015081056    955390100 W   0000N                               
CUS0692400000106092511002         MIDDLEBOROUGH VOLUNT1913-15 MIDDLEBOROUGH RD                000N        CARE OF             
MTR06924000001000000000000000RA              77987252    005802060000020600000360000003NN  NNW 000                       N    
RDG06924000WATRL000000004R00000000000000113000008192015101000N000400000010N         000010400R 10000000010000000085           
RFF0692400068457628      ERT      0000  956.44375000140000081920151010000001131515100W 1220000N                               
CUS0692400000106092049003         LONG HENRY WILLIAM  1912 MIDDLEBOROUGH RD                   000N        CARE OF             
MTR06924000001000000000000000RA              78007042    005802070000020700000360000003NN  NNW 000                       N    
RDG06924000WATRL000000004R00000000000000354000008192015101020N000000000000N         000010400R 10000000010000000232           
RFF0692400068457691      ERT      0004  956.44375000140004081920151010200003548635100W 1220000N                               
CUS0692400000106092050001         HENRY LONG          1908 MIDDLEBOROUGH RD                   000N        CARE OF             
MTR06924000001000000000000000RA              38985085    005802080000020800000520000003NN  NNW 000                       N    
RDG06924000WATRL000000004K00000000000001913001308202015081203N000300000010U40       000630400K 10000000010000001857           
CUS0692400000106092051009         WILSON RONALD K     1906 MIDDLEBOROUGH RD                   000N        CARE OF             
MTR06924000001000000000000000RA              10002638    005802090000020900000570000003NN  NNW 000                       N    
RDG06924000WATRL000000004K00000000000001530001408202015081242N000000000000U40       000390400K 10000000010000001475           
CUS0692400000106092062006         WELLS FARGO BANK N A1904 MIDDLEBOROUGH RD                   000N        CARE OF             
MTR06924000001000000000000000RA              77879742    005802100000021000000360000003NN  NNW 000                       N    
RDG06924000WATRL000000004R00000000000000002000008192015100442N000100000010N         000010400R 10000000010000000002           
RFF0692400068272900      ERT      0000  956.44375000140000081920151004420000028481100W 1220000N                               
CUS0692400000106092063004         BRYANT WAYNE,TRUSTEE1902 MIDDLEBOROUGH RD                   000N        CARE OF             
MTR06924000001000000000000000RA              77886498    005802110000021100000360000003NN  NNW 000                       N    
RDG06924000WATRL000000004R00000000000000001000008192015100632N000300000010N         000010400R 10000000010000000000           
RFF0692400068462484      ERT      0000  956.44375000140000081920151006320000014110100W 1220000N                               
CUS0692400000106092064002         SCHULTZ DANIEL C    1900 MIDDLEBOROUGH RD                   000N        CARE OF             
MTR06924000001000000000000000RA              77886452    005802120000021200000360000003NN  NNW 000                       N    
