FHDNNNN033006300006300006300N                                                                                           020685
RHD04912800NN02150215000002150000000002150215000343NY021502150215001000050000000000000000000001    08172015NY020000 N         
CUS0491280000104085826008         ZELAYA JOSE         2 TRANSVERSE AVE                        000N        CARE OF             
MTR04912800001000000000000000RA              31586445    005800010000000100000520000003NN  NNW 000                       N    
RDG04912800WATRL000000004K00000000000002864000108262015081007N000000000000N40       000000400K 10000000010000002821           
CUS0491280000104085827006         LAMARTINA JOSEPH V  4 TRANSVERSE AVE                        000N        CARE OF             
MTR04912800001000000000000000RA              31586449    005800020000000200000520000003NN  NNW 000                       N    
RDG04912800WATRL000000004K00000000000005647000208262015081053N000000000000N40       000460400K 10000000010000005626           
CUS0491280000104085828004         LANCASTER GARY LEE  17 ARMOR CT                             000N        CARE OF             
MTR04912800001000000000000000RA              31587321    005800030000000300000520000003NN  NNW 000                       N    
RDG04912800WATRL000000004K00000000000004461000208272015075354N000000000000U40       000810400K 10000000010000004442           
CUS0491280000104085829002         CORRELLI ANTONINO   19 ARMOR CT                             000N        CARE OF             
MTR04912800001000000000000000RA              76349183    005800040000000400000350000003NN  NNW 000                       N    
RDG04912800WATRL000000004K00000000000000185000108272015075233N000000000000U40       000000400K 10000000010000000156           
CUS0491280000104085830000         BURKE LEROY J       20 ARMOR CT                             000N        CARE OF             
MTR04912800001000000000000000RA              76349178    005800050000000500000350000003NN  NNW 000                       N    
RDG04912800WATRL000000004K00000000000000074000908272015080207N000000000000U40       000150400K 10000000010000000063           
CUS0491280000104085831008         HARDIN ANDREW M     18 ARMOR CT                             000N        CARE OF             
MTR04912800001000000000000000RA              76347062    005800060000000600000350000003NN  NNW 000                       N    
RDG04912800WATRL000000004K00000000000000088000808272015080152N000400000010U40       000920400K 10000000010000000084           
CUS0491280000104085832006         PARKS JERALD A      16 ARMOR CT                             000N        CARE OF             
MTR04912800001000000000000000RA              24230145    005800070000000700000520000003NN  NNW 000                       N    
RDG04912800WATRL000000004K00000000000002398000708272015080020N000400000010U40       001400400K 10000000010000002392           
CUS0491280000104085833004         FLORIAN MICHAEL J   14 ARMOR CT                             000N        CARE OF             
MTR04912800001000000000000000RA              31587324    005800080000000800000520000003NN  NNW 000                       N    
RDG04912800WATRL000000004K00000000000003406000109022015073820N000000000000U40       000000400K 10000000010000003401           
CUS0491280000104085834002         MADDOX LARRY J      12 ARMOR CT                             000N        CARE OF             
MTR04912800001000000000000000RA              31587368    005800090000000900000520000003NY  NNW 000                       N    
MTM0491280031587368    DOGINYARD                                                                                              
RDG04912800WATRL000000004K00000000000002598000209022015073824N000000000000U40       000040400K 10000000010000002589           
CUS0491280000104085835009         LYONS RICHARD L     10 ARMOR CT                             000N        CARE OF             
MTR04912800001000000000000000RA              24759373    005800100000001000000520000003NN  NNW 000                       N    
RDG04912800WATRL000000004K00000000000002526000608272015075800N000000000010U40       000200400K 10000000010000002520           
CUS0491280000104085836007         KIGHT JOHN LEROY    8 ARMOR CT                              000N        CARE OF             
MTR04912800001000000000000000RA              24760060    005800110000001100000520000003NN  NNW 000                       N    
RDG04912800WATRL000000004K00000000000004218000508272015075740N000000000000U40       000850400K 10000000010000004202           
CUS0491280000104085837005         DEBBIE A LEASE      6 ARMOR CT                              000N        CARE OF             
MTR04912800001000000000000000RA              27813016    005800120000001200000520000003NN  NNW 000                       N    
RDG04912800WATRL000000004K00000000000003009000308272015075545N000000000000U40       001110400K 10000000010000002997           
CUS0491280000104085838003         COOK JAMES A        4 ARMOR CT                              000N        CARE OF             
MTR04912800001000000000000000RA              24232279    005800130000001300000520000003NN  NNW 000                       N    
RDG04912800WATRL000000004K00000000000003138000408272015075615N000300000010U40       000300400K 10000000010000003100           
CUS0491280000104085839001         HUDNELL HAROLD LEVOI2 ARMOR CT                              000N        CARE OF             
MTR04912800001000000000000000RA              30519686    005800140000001400000520000003NN  NNW 000                       N    
RDG04912800WATRL000000004K00000000000004613001008272015080218N000000000000U40       000110400K 10000000010000004593           
CUS0491280000104085840009         HODGES THOMAS JAMES 14 TRANSVERSE AVE                       000N        CARE OF             
MTR04912800001000000000000000RA              24230435    005800150000001500000520000003NN  NNW 000                       N    
RDG04912800WATRL000000004K00000000000002431001108272015081044N000400000010U40       005060400K 10000000010000002430           
CUS0491280000104085841007         KEENER DAVID M      16 TRANSVERSE AVE                       000N        CARE OF             
MTR04912800001000000000000000RA              17186120    005800160000001600000520000003NN  NNW 000                       N    
RDG04912800WATRL000000004K00000000000001466001208272015081057N000100000010U40       000130400K 10000000010000001466           
CUS0491280000104085842005         CRAMER EDGAR LEE    18 TRANSVERSE AVE                       000N        CARE OF             
MTR04912800001000000000000000RA              46877737    005800170000001700000520000003NN  NNW 000                       N    
RDG04912800WATRL000000004K00000000000000610001308272015081329N000300000010U40       001520400K 10000000010000000631           
CUS0491280000104085843003         SHIPLEY WILLIAM H   20 TRANSVERSE AVE                       000N        CARE OF             
MTR04912800001000000000000000RA              27814843    005800180000001800000520000003NN  NNW 000                       N    
RDG04912800WATRL000000004K00000000000003673001408272015081336N000000000000U40       000070400K 10000000010000003633           
CUS0491280000104085844001         BROGLEY MICHAEL R   22 TRANSVERSE AVE                       000N        CARE OF             
MTR04912800001000000000000000RA              40781594    005800190000001900000520000003NN  NNW 000                       N    
RDG04912800WATRL000000004K00000000000000000000000000000000000 000000000000U         000000400  10000000010000002150           
CUS0491280000104085845008         WALTERS LINDA GOIN  24 TRANSVERSE AVE                       000N        CARE OF             
MTR04912800001000000000000000RA              10022747    005800200000002000000570000003NN  NNW 000                       N    
RDG04912800WATRL000000004K00000000000000000000000000000000000 000000000000U         000000400  10000000010000000175           
CUS0491280000104085846006         KNAPP JOSEPH C      25 WALKWAY CT                           000N        CARE OF             
MTR04912800001000000000000000RA              14929611    005800210000002100000310000003NN  NNW 000                       N    
RDG04912800WATRL000000004K00000000000000059001508272015082408N000000000010U40       006320400K 10000000010000000051           
CUS0491280000104085847004         BRIAN COSDEN        23 WALKWAY CT                           000N        CARE OF             
MTR04912800001000000000000000RA              10015178    005800220000002200000570000003NN  NNW 000                       N    
RDG04912800WATRL000000004K00000000000000122001608272015082417N000000000000U40       000090400K 10000000010000000116           
CUS0491280000104085848002         LUCKETT RONALD      21 WALKWAY CT                           000N        CARE OF             
MTR04912800001000000000000000RA              77877434    005800230000002300000360000003NN  NNW 000                       N    
RDG04912800WATRL000000004K00000000000000000001708272015082722S001000000000U40       001850400K 10000000010000000000           
CUS0491280000104085849000         RUTHERFORD THERESA A19 WALKWAY CT                           000N        CARE OF             
MTR04912800001000000000000000RA              77877433    005800240000002400000360000003NN  NNW 000                       N    
RDG04912800WATRL000000004K00000000000000000001808272015082726S001000000000U40       000040400K 10000000010000000000           
CUS0491280000104085850008         WINDSOR MONNIE L,JR 17 WALKWAY CT                           000N        CARE OF             
MTR04912800001000000000000000RA              01101027    005800250000002500000610000003NN  NNW 000                       N    
RDG04912800WATRL000000004K00000000000001406001908272015083048N000400000010U40       002020400K 10000000010000001392           
CUS0491280000104085851006         JONATHAN ADAMS      15 WALKWAY CT                           000N        CARE OF             
MTR04912800001000000000000000RA              76348133    005800260000002600000350000003NN  NNW 000                       N    
RDG04912800WATRL000000004K00000000000000021002008272015083054N000400000010U40       000060400K 10000000010000000016           
CUS0491280000104085852004         GRAHAM BONNIE J     1 WALKWAY CT                            000N        CARE OF             
MTR04912800001000000000000000RA              30519689    005800270000002700000520000003NN  NNW 000                       N    
RDG04912800WATRL000000004K00000000000002351000309022015073847N000000000000U40       000230400K 10000000010000002341           
CUS0491280000104085853002         LAWRENCE ROBERT H   3 WALKWAY CT                            000N        CARE OF             
MTR04912800001000000000000000RA              10024661    005800280000002800000570000003NN  NNW 000                       N    
RDG04912800WATRL000000004K00000000000000044000308262015081431N000000000000N40       002180400K 10000000010000000041           
CUS0491280000104085854000         LETURNO TRACY       5 WALKWAY CT                            000N        CARE OF             
MTR04912800001000000000000000RA              10024796    005800290000002900000570000003NN  NNW 000                       N    
RDG04912800WATRL000000004K00000000000000077000408262015081437N000300000010N40       000060400K 10000000010000000045           
CUS0491280000104085855007         RHEA ISAAC C        7 WALKWAY CT                            000N        CARE OF             
MTR04912800001000000000000000RA              10003970    005800300000003000000570000003NN  NNW 000                       N    
RDG04912800WATRL000000004K00000000000000226000508262015081538N000000000000N40       000610400K 10000000010000000219           
CUS0491280000104085856005         EMERICK VERA MAY    9 WALKWAY CT                            000N        CARE OF             
MTR04912800001000000000000000RA              24759875    005800310000003100000520000003NN  NNW 000                       N    
RDG04912800WATRL000000004K00000000000002094000608262015081546N000000000000N40       000080400K 10000000010000002089           
CUS0491280000104085857003         ENGLE JOSEPH R,JR   11 WALKWAY CT                           000N        CARE OF             
MTR04912800001000000000000000RA              40322108    005800320000003200000520000003NY  NNW 000                       N    
MTM0491280040322108    DOGINYARD                                                                                              
RDG04912800WATRL000000004K00000000000001793002308272015084349N000000000000U40       001880400K 10000000010000001792           
CUS0491280000104085858001         LOFTEN ROSALIE      13 WALKWAY CT                           000N        CARE OF             
MTR04912800001000000000000000RA              40322091    005800330000003300000520000003NY  NNW 000                       N    
MTM0491280040322091    DOGINYARD                                                                                              
RDG04912800WATRL000000004K00000000000001444002108272015084032N000000000000U40       005780400K 10000000010000001428           
CUS0491280000104085859009         REDDING ERIN        16 WALKWAY CT                           000N        CARE OF             
MTR04912800001000000000000000RA              52770012    005800340000003400000520000003NY  NNW 000                       N    
MTM0491280052770012    DOGINYARD                                                                                              
RDG04912800WATRL000000004K00000000000002327002208272015090050N000000000011U40       010210400K 10000000010000002285           
CUS0491280000104085860007         MITCHELL GILFORD N  18 WALKWAY CT                           000N        CARE OF             
MTR04912800001000000000000000RA              99287229    005800350000003500000570000003NN  NNW 000                       N    
RDG04912800WATRL000000004K00000000000000881002408272015090058N000000000000U40       000080400K 10000000010000000879           
CUS0491280000104085861005         MORRISON KIM        20 WALKWAY CT                           000N        CARE OF             
MTR04912800001000000000000000RA              31586765    005800360000003600000520000003NN  NNW 000                       N    
RDG04912800WATRL000000004K00000000000002043000708262015081928N000000000000N40       002220400K 10000000010000002038           
CUS0491280000104085862003         BERTRAND ROBERT J   22 WALKWAY CT                           000N        CARE OF             
MTR04912800001000000000000000RA              31586764    005800370000003700000520000003NN  NNW 000                       N    
RDG04912800WATRL000000004K00000000000003480000808262015081938N000000000000N40       000100400K 10000000010000003480           
CUS0491280000104085863001         LYNCH JAMES B       24 WALKWAY CT                           000N        CARE OF             
MTR04912800001000000000000000RA              31586767    005800380000003800000520000003NY  NNW 000                       N    
MTM0491280031586767    CLEANOUT                                                                                               
RDG04912800WATRL000000004K00000000000003821002508272015090433N000000000000U40       002150400K 10000000010000003804           
CUS0491280000104085864009         JOHN R YEAGER       26 WALKWAY CT                           000N        CARE OF             
MTR04912800001000000000000000RA              31586763    005800390000003900000520000003NY  NNW 000                       N    
MTM0491280031586763    CLEANOUT                                                                                               
RDG04912800WATRL000000004K00000000000002575002608272015090439N000000000000U40       000060400K 10000000010000002569           
CUS0491280000104085865006         CURRAN BRENDA L     28 WALKWAY CT                           000N        CARE OF             
MTR04912800001000000000000000RA              99286150    005800400000004000000570000003NN  NNW 000                       N    
RDG04912800WATRL000000004K00000000000001450000908262015082349N000000000000N40       002510400K 10000000010000001439           
CUS0491280000104085866004         BUCKINGHAM JOHN BENJ30 WALKWAY CT                           000N        CARE OF             
MTR04912800001000000000000000RA              27813018    005800410000004100000520000003NN  NNW 000                       N    
RDG04912800WATRL000000004K00000000000003502001008262015082414N000000000000N40       000250400K 10000000010000003488           
CUS0491280000104085867002         POSTERLI ENTERPRISES14 WALKWAY CT                           000N        CARE OF             
MTR04912800001000000000000000RA              44087807    005800420000004200000520000003NY  NNW 000                       N    
MTM0491280044087807    CLEANOUT                                                                                               
RDG04912800WATRL000000004K00000000000002487002808272015090852N000000000000U40       000090400K 10000000010000002477           
CUS0491280000104085868000         MEADOWS JONATHAN N  12 WALKWAY CT                           000N        CARE OF             
MTR04912800001000000000000000RA              44087948    005800430000004300000520000000NY  NNW 000                       N    
MTM0491280044087948    CLEANOUT                                                                                               
RDG04912800WATRL000000004K00000000000002803002708272015090843N000000000001U40       000160400K 10000000010000002789           
CUS0491280000104085869008         HARPER WILLIAM B,JR 10 WALKWAY CT                           000N        CARE OF             
MTR04912800001000000000000000RA              14905524    005800440000004400000310000003NN  NNW 000                       N    
RDG04912800WATRL000000004K00000000000000818001108262015082757N000000000000N40       002230400K 10000000010000000801           
CUS0491280000104085870006         BASS RAYMOND E      8 WALKWAY CT                            000N        CARE OF             
MTR04912800001000000000000000RA              14905511    005800450000004500000310000003NN  NNW 000                       N    
RDG04912800WATRL000000004K00000000000000872001208262015082832N000000000000N40       000350400K 10000000010000000858           
CUS0491280000104085871004         LEACH DOROTHY       6 WALKWAY CT                            000N        CARE OF             
MTR04912800001000000000000000RA              41588127    005800460000004600000520000003NY  NNW 000                       N    
MTM0491280041588127    DOGINYARD                                                                                              
RDG04912800WATRL000000004K00000000000001407002908272015091102N000000000000U40       001300400K 10000000010000001383           
CUS0491280000104085872002         MARIA R JOHNSON     4 WALKWAY CT                            000N        CARE OF             
MTR04912800001000000000000000RA              44175102    005800470000004700000520000003NY  NNW 000                       N    
MTM0491280044175102    CANTFIND                                                                                               
RDG04912800WATRL000000004K00000000000000990003008272015091113N000400000010U40       000110400K 10000000010000000988           
CUS0491280000104085873000         DUFFY PETER C       2 WALKWAY CT                            000N        CARE OF             
MTR04912800001000000000000000RA              14905510    005800480000004800000310000003NY  NNW 000                       N    
MTM0491280014905510    CANTFIND                                                                                               
RDG04912800WATRL000000004K00000000000000000000000000000000000 000000000000U         000000400  10000000010000000767           
CUS0491280000104085874008         CHASSEREAU MARK ANTH1 BLINKER CT                            000N        CARE OF             
MTR04912800001000000000000000RA              14905526    005800490000004900000310000003NY  NNW 000                       N    
MTM0491280014905526    CANTFIND                                                                                               
RDG04912800WATRL000000004K00000000000000000000000000000000000 000000000000U         000000400  10000000010000000903           
CUS0491280000104085875005         LYNCH JOHN LEROY    3 BLINKER CT                            000N        CARE OF             
MTR04912800001000000000000000RA              24759802    005800500000005000000520000003NN  NNW 000                       N    
RDG04912800WATRL000000004K00000000000002358003108272015091422N000000000000U40       001890400K 10000000010000002358           
CUS0491280000104085876003         PORAK RONALD E      5 BLINKER CT                            000N        CARE OF             
MTR04912800001000000000000000RA              77888993    005800510000005100000360000003NN  NNW 000                       N    
RDG04912800WATRL000000004K00000000000000000001308262015083811N000000000000N40       005790400K 10000000010000000000           
CUS0491280000104085877001         DUNFORD FRANK D     7 BLINKER CT                            000N        CARE OF             
MTR04912800001000000000000000RA              24760252    005800520000005200000520000003NN  NNW 000                       N    
RDG04912800WATRL000000004K00000000000003488001508262015084030N000000000010N40       000160400K 10000000010000003476           
CUS0491280000104085878009         WINDSOR ELBERT B    9 BLINKER CT                            000N        CARE OF             
MTR04912800001000000000000000RA              14928851    005800530000005300000310000003NN  NNW 000                       N    
RDG04912800WATRL000000004K00000000000000982001408262015084014N000000000000N40       001230400K 10000000010000000953           
CUS0491280000104085879007         RICADO CAYAS        11 BLINKER CT                           000N        CARE OF             
MTR04912800001000000000000000RA              01086318    005800540000005400000610000003NN  NNW 000                       N    
RDG04912800WATRL000000004K00000000000000477001608262015084223N000000000001N40       001130400K 10000000010000000464           
CUS0491280000104085880005         VERNON WAYNE W      13 BLINKER CT                           000N        CARE OF             
MTR04912800001000000000000000RA              76347756    005800550000005500000350000003NN  NNW 000                       N    
RDG04912800WATRL000000004K00000000000000134001708262015084229N000000000001N40       000060400K 10000000010000000117           
CUS0491280000104085881003         POSTERLI ENTERPRISES14 BLINKER CT                           000N        CARE OF             
MTR04912800001000000000000000RA              01100557    005800560000005600000610000003NN  NNW 000                       N    
RDG04912800WATRL000000004K00000000000000453001808262015084304N000000000000N40       000350400K 10000000010000000441           
CUS0491280000104085882001         MELLOTT GERALD WAYNE12 BLINKER CT                           000N        CARE OF             
MTR04912800001000000000000000RA              75614685    005800570000005700000350000003NN  NNW 000                       N    
RDG04912800WATRL000000004K00000000000000503001908262015084310N000000000000N40       000060400K 10000000010000000476           
CUS0491280000104085883009         MARCHANT MICHAEL O  10 BLINKER CT                           000N        CARE OF             
MTR04912800001000000000000000RA              32898203    005800580000005800000520000003NY  NNW 000                       N    
MTM0491280032898203    DOGINYARD                                                                                              
RDG04912800WATRL000000004K00000000000004578003208272015091944N000300000010U40       003220400K 10000000010000004649           
CUS0491280000104085884007         WELLS JACKIE G      8 BLINKER CT                            000N        CARE OF             
MTR04912800001000000000000000RA              01101025    005800590000005900000610000003NN  NNW 000                       N    
RDG04912800WATRL000000004K00000000000001058003308272015091949N000000000000U40       000050400K 10000000010000001040           
CUS0491280000104085885004         BOSCANA JOSE,JR     6 BLINKER CT                            000N        CARE OF             
MTR04912800001000000000000000RA              76348251    005800600000006000000350000003NY  NNW 000                       N    
MTM0491280076348251    CANTFIND                                                                                               
RDG04912800WATRL000000004K00000000000000163000409022015073916N000000000000U40       000290400K 10000000010000000142           
CUS0491280000104085886002         ZEMAITIS CATHERINE A4 BLINKER CT                            000N        CARE OF             
MTR04912800001000000000000000RA              32904856    005800610000006100000520000003NY  NNW 000                       N    
MTM0491280032904856    CANTFIND                                                                                               
RDG04912800WATRL000000004K00000000000001620000509022015073919N000000000000U40       000030400K 10000000010000001620           
CUS0491280000104085887000         GROSS HELEN M       2 BLINKER CT                            000N        CARE OF             
MTR04912800001000000000000000RA              39925785    005800620000006200000520000003NN  NNW 000                       N    
RDG04912800WATRL000000004K00000000000002257002008262015084759N000000000000N40       002890400K 10000000010000002237           
CUS0491280000104085888008         BOCKLAGE JOSEPH J,JR13 HONEYCOMB RD                         000N        CARE OF             
MTR04912800001000000000000000RA              54352272    005800630000006300000520000003NN  NNW 000                       N    
RDG04912800WATRL000000004K00000000000001138002108262015084940N000000000000N40       001010400K 10000000010000001120           
CUS0491280000104085889006         BURTON WILLIAM R    11 HONEYCOMB RD                         000N        CARE OF             
MTR04912800001000000000000000RA              01087792    005800640000006400000610000003NN  NNW 000                       N    
RDG04912800WATRL000000004K00000000000000613002208262015085328N000000000000N40       002280400K 10000000010000000606           
CUS0491280000104085890004         DAVIS RUTH BERNARD  9 HONEYCOMB RD                          000N        CARE OF             
MTR04912800001000000000000000RA              01087793    005800650000006500000610000003NN  NNW 000                       N    
RDG04912800WATRL000000004K00000000000001041002308262015085337N000000000000N40       000090400K 10000000010000001029           
CUS0491280000104085891002         VOGEL RICHARD       7 HONEYCOMB RD                          000N        CARE OF             
MTR04912800001000000000000000RA              10021032    005800660000006600000570000003NN  NNW 000                       N    
RDG04912800WATRL000000004K00000000000000338002408262015085449N000000000000N40       000720400K 10000000010000000308           
CUS0491280000104085892000         RAMEY MICHAEL E,2ND 5 HONEYCOMB RD                          000N        CARE OF             
MTR04912800001000000000000000RA              10019534    005800670000006700000570000003NN  NNW 000                       N    
RDG04912800WATRL000000004K00000000000000611002508262015085458N000000000000N40       000090400K 10000000010000000572           
CUS0491280000104085893008         JOE K HOLMAN        3 HONEYCOMB RD                          000N        CARE OF             
MTR04912800001000000000000000RA              29082974    005800680000006800000520000003NN  NNW 000                       N    
RDG04912800WATRL000000004K00000000000001645002608262015085619N000300000010N40       000810400K 10000000010000001628           
CUS0491280000104085894006         MADDOX WALTER L     1 HONEYCOMB RD                          000N        CARE OF             
MTR04912800001000000000000000RA              24230474    005800690000006900000520000003NN  NNW 000                       N    
RDG04912800WATRL000000004K00000000000004141002708262015085631N000000000000N40       000120400K 10000000010000004123           
CUS0491280000104085895003         ALLIO JEFFREY B     2 HONEYCOMB RD                          000N        CARE OF             
MTR04912800001000000000000000RA              24229523    005800700000007000000520000003NN  NNW 000                       N    
RDG04912800WATRL000000004K00000000000003407002808262015085819N000000000000N40       001080400K 10000000010000003372           
CUS0491280000104085896001         HENSLER ROBERT T    4 HONEYCOMB RD                          000N        CARE OF             
MTR04912800001000000000000000RA              75616286    005800710000007100000350000003NN  NNW 000                       N    
RDG04912800WATRL000000004K00000000000000070002908262015085828N000000000000N40       000090400K 10000000010000000063           
CUS0491280000104085897009         CORMENY BRENDA      6 HONEYCOMB RD                          000N        CARE OF             
MTR04912800001000000000000000RA              75616287    005800720000007200000350000003NY  NNW 000                       N    
MTM0491280075616287    DOGINYARD                                                                                              
RDG04912800WATRL000000004K00000000000000361003408272015092819N000400000010U40       005100400K 10000000010000000360           
CUS0491280000104085898007         NELSON RUSSELL E,SR 8 HONEYCOMB RD                          000N        CARE OF             
MTR04912800001000000000000000RA              30519671    005800730000007300000520000003NY  NNW 000                       N    
MTM0491280030519671    DOGINYARD                                                                                              
RDG04912800WATRL000000004K00000000000003508003508272015092828N000000000000U40       000090400K 10000000010000003499           
CUS0491280000104085899005         DONNELLY, LAWRENCE P10 HONEYCOMB RD                         000N        CARE OF             
MTR04912800001000000000000000RA              24229519    005800740000007400000520000003NN  NNW 000                       N    
RDG04912800WATRL000000004K00000000000003230003008262015090203N000000000000N40       002150400K 10000000010000003220           
CUS0491280000104085900001         FERGUSON CHARLES D  26 TRANSVERSE AVE                       000N        CARE OF             
MTR04912800001000000000000000RA              30526469    005800750000007500000520000003NN  NNW 000                       N    
RDG04912800WATRL000000004K00000000000002234003108262015090209N000000000000N40       000060400K 10000000010000002212           
CUS0491280000104085901009         CLOUD LASSIE M      28 TRANSVERSE AVE                       000N        CARE OF             
MTR04912800001000000000000000RA              24230148    005800760000007600000520000003NY  NNW 000                       N    
MTM0491280024230148    BROKEMETER                                                                                             
RDG04912800WATRL000000004K00000000000000000000609022015073949S005000000000U40       000300400K 10000000010000001591           
CUS0491280000104085902007         ANDERSON ANTHONY WAY30 TRANSVERSE AVE                       000N        CARE OF             
MTR04912800001000000000000000RA              40048576    005800770000007700000520000003NN  NNW 000                       N    
RDG04912800WATRL000000004K00000000000003248003208262015090454N000000000000N40       001650400K 10000000010000003237           
CUS0491280000104085903005         BUTTAR GURDEV KAUR  32 TRANSVERSE AVE                       000N        CARE OF             
MTR04912800001000000000000000RA              29402631    005800780000007800000520000003NN  NNW 000                       N    
RDG04912800WATRL000000004K00000000000001311003308262015090736N000000000000N40       001620400K 10000000010000001304           
CUS0491280000104085904003         WOODARD CATHY DARLEN1 NAVIGATOR CT                          000N        CARE OF             
MTR04912800001000000000000000RA              76348935    005800790000007900000350000003NN  NNW 000                       N    
RDG04912800WATRL000000004K00000000000000072003408262015090745N000000000000N40       000090400K 10000000010000000068           
CUS0491280000104085905000         MARTIN LESLIE E     3 NAVIGATOR CT                          000N        CARE OF             
MTR04912800001000000000000000RA              01113605    005800800000008000000610000003NN  NNW 000                       N    
RDG04912800WATRL000000004K00000000000000734003508262015090859N000100000010N40       000740400K 10000000010000000734           
CUS0491280000104085906008         POSTERLI ENTREPRISES5 NAVIGATOR CT                          000N        CARE OF             
MTR04912800001000000000000000RA              01113604    005800810000008100000610000003NN  NNW 000                       N    
RDG04912800WATRL000000004K00000000000000942003608262015090905N000000000000N40       000060400K 10000000010000000927           
CUS0491280000104085907006         SALEH KENNA HARLESS 7 NAVIGATOR CT                          000N        CARE OF             
MTR04912800001000000000000000RA              10018607    005800820000008200000570000003NN  NNW 000                       N    
RDG04912800WATRL000000004K00000000000000064003708262015091035N000000000000N40       000900400K 10000000010000000061           
CUS0491280000104085908004         POSTERLI PROPERTIES 9 NAVIGATOR CT                          000N        CARE OF             
MTR04912800001000000000000000RA              35109622    005800830000008300000520000003NN  NNW 000                       N    
RDG04912800WATRL000000004K00000000000003565003808262015091107N000400000010N40       000320400K 10000000010000003558           
CUS0491280000104085909002         RICHTER KIMBERLY    10 NAVIGATOR CT                         000N        CARE OF             
MTR04912800001000000000000000RA              01097099    005800840000008400000610000003NY  NNW 000                       N    
MTM0491280001097099    CANTFIND                                                                                               
RDG04912800WATRL000000004K00000000000000963003608272015093630N000000000000U40       004820400K 10000000010000000945           
CUS0491280000104085910000         WARREN CARL H       8 NAVIGATOR CT                          000N        CARE OF             
MTR04912800001000000000000000RA              01097093    005800850000008500000610000003NY  NNW 000                       N    
MTM0491280001097093    CANTFIND                                                                                               
RDG04912800WATRL000000004K00000000000001218003708272015093645N000000000000U40       000150400K 10000000010000001194           
CUS0491280000104085911008         ZITO BERNADETTE     6 NAVIGATOR CT                          000N        CARE OF             
MTR04912800001000000000000000RA              01080213    005800860000008600000610000003NN  NNW 000                       N    
RDG04912800WATRL000000004K00000000000000610003908262015091445N000000000000N40       002180400K 10000000010000000601           
CUS0491280000104085912006         BURKE BENJAMIN FRANK4 NAVIGATOR CT                          000N        CARE OF             
MTR04912800001000000000000000RA              01080218    005800870000008700000610000003NN  NNW 000                       N    
RDG04912800WATRL000000004K00000000000002469004008262015091458N000000000000N40       000130400K 10000000010000002392           
CUS0491280000104085913004         CASEY STEVE A       2 NAVIGATOR CT                          000N        CARE OF             
MTR04912800001000000000000000RA              46884608    005800880000008800000520000003NN  NNW 000                       N    
RDG04912800WATRL000000004K00000000000003024004108262015091650N000300000010N40       001120400K 10000000010000003017           
CUS0491280000104085914002         WALKER GENEVIEVE    34 TRANSVERSE AVE                       000N        CARE OF             
MTR04912800001000000000000000RA              45385533    005800890000008900000520000003NN  NNW 000                       N    
RDG04912800WATRL000000004K00000000000000459004208262015091708N000000000000N40       000180400K 10000000010000000458           
CUS0491280000104085915009         WELDEN JAMES        36 TRANSVERSE AVE                       000N        CARE OF             
MTR04912800001000000000000000RA              41082610    005800900000009000000520000003NY  NNW 000                       N    
MTM0491280041082610    CANTFIND                                                                                               
RDG04912800WATRL000000004K00000000000000678003808272015094214N000400000010U40       003290400K 10000000010000000677           
CUS0491280000104085916007         MURRAY SUSAN ANN    38 TRANSVERSE AVE                       000N        CARE OF             
MTR04912800001000000000000000RA              41082621    005800910000009100000520000003NY  NNW 000                       N    
MTM0491280041082621    CANTFIND                                                                                               
RDG04912800WATRL000000004K00000000000001311003908272015094219N000000000000U40       000050400K 10000000010000001299           
CUS0491280000104085917005         BROWN JEAN          40 TRANSVERSE AVE                       000N        CARE OF             
MTR04912800001000000000000000RA              45385531    005800920000009200000520000003NN  NNW 000                       N    
RDG04912800WATRL000000004K00000000000001167004308262015092049N000000000000N40       002210400K 10000000010000001157           
CUS0491280000104085918003         SHEETS CLYDE,JR     42 TRANSVERSE AVE                       000N        CARE OF             
MTR04912800001000000000000000RA              24757666    005800930000009300000520000003NN  NNW 000                       N    
RDG04912800WATRL000000004K00000000000003168004408262015092112N000000000000N40       000230400K 10000000010000003158           
CUS0491280000104085919001         KISNER EDWIN M      44 TRANSVERSE AVE                       000N        CARE OF             
MTR04912800001000000000000000RA              01097871    005800940000009400000610000003NN  NNW 000                       N    
RDG04912800WATRL000000004K00000000000000518004508262015092417N000000000010N40       001850400K 10000000010000000516           
CUS0491280000104085920009         DIXON JOHNNY W, JR  1 DURALUMIN CT                          000N        CARE OF             
MTR04912800001000000000000000RA              45385511    005800950000009500000520000003NN  NNW 000                       N    
RDG04912800WATRL000000004K00000000000001546004608262015092425N000000000000N40       000080400K 10000000010000001535           
CUS0491280000104085921007         HINES FREDRICK D,JR 3 DURALUMIN CT                          000N        CARE OF             
MTR04912800001000000000000000RA              14920439    005800960000009600000310000003NN  NNW 000                       N    
RDG04912800WATRL000000004K00000000000001115004708262015092544N000000000000N40       000790400K 10000000010000001094           
CUS0491280000104085922005         STREET RAY          5 DURALUMIN CT                          000N        CARE OF             
MTR04912800001000000000000000RA              00132420    005800970000009700000570000003NN  NNW 000                       N    
RDG04912800WATRL000000004K00000000000001203004808262015092556N000300000010N40       000120400K 10000000010000001199           
CUS0491280000104085923003         PURGAT FRANK        7 DURALUMIN CT                          000N        CARE OF             
MTR04912800001000000000000000RA              48584497    005800980000009800000520000003NN  NNW 000                       N    
RDG04912800WATRL000000004K00000000000001158004908262015092728N000000000000N40       000920400K 10000000010000001150           
CUS0491280000104085924001         BURRS CHARLES HOWARD9 DURALUMIN CT                          000N        CARE OF             
MTR04912800001000000000000000RA              48583672    005800990000009900000520000003NN  NNW 000                       N    
RDG04912800WATRL000000004K00000000000001528005008262015092731N000000000000N40       000030400K 10000000010000001520           
CUS0491280000104085925008         MATTHEU MICHAEL J   10 DURALUMIN CT                         000N        CARE OF             
MTR04912800001000000000000000RA              01104353    005801000000010000000610000003NN  NNW 000                       N    
RDG04912800WATRL000000004K00000000000001136005108262015092820N000000000000N40       000490400K 10000000010000001122           
CUS0491280000104085926006         EVANS VANESSA N     8 DURALUMIN CT                          000N        CARE OF             
MTR04912800001000000000000000RA              01102034    005801010000010100000610000003NN  NNW 000                       N    
RDG04912800WATRL000000004K00000000000000388005208262015092829N000300000010N40       000090400K 10000000010000000368           
CUS0491280000104085927004         HEDDERMAN VINCENT J 6 DURALUMIN CT                          000N        CARE OF             
MTR04912800001000000000000000RA              99189206    005801020000010200000570000003NN  NNW 000                       N    
RDG04912800WATRL000000004K00000000000001283005308262015092925N000000000000N40       000560400K 10000000010000001269           
CUS0491280000104085928002         ICENROAD WILLIAM    4 DURALUMIN CT                          000N        CARE OF             
MTR04912800001000000000000000RA              99287444    005801030000010300000570000003NN  NNW 000                       N    
RDG04912800WATRL000000004K00000000000000947005408262015092932N000000000000N40       000070400K 10000000010000000934           
CUS0491280000104085929000         SHUMAKER SHARON     2 DURALUMIN CT                          000N        CARE OF             
MTR04912800001000000000000000RA              27813217    005801040000010400000520000003NN  NNW 000                       N    
RDG04912800WATRL000000004K00000000000003300005508262015093042N000000000000N40       000700400K 10000000010000003289           
CUS0491280000104085930008         CATHERINE E. GURLEY 46 TRANSVERSE AVE                       000N        CARE OF             
MTR04912800001000000000000000RA              52285440    005801050000010500000520000003NN  NNW 000                       N    
RDG04912800WATRL000000004K00000000000000687005608262015093046N000000000000N40       000040400K 10000000010000000686           
CUS0491280000104085931006         ODEN RICHARD L      48 TRANSVERSE AVE                       000N        CARE OF             
MTR04912800001000000000000000RA              99187290    005801060000010600000570000003NN  NNW 000                       N    
RDG04912800WATRL000000004K00000000000000884005708262015093315N000000000000N40       001490400K 10000000010000000876           
CUS0491280000104085932004         WISEMAN CHARLES W   50 TRANSVERSE AVE                       000N        CARE OF             
MTR04912800001000000000000000RA              10024063    005801070000010700000570000003NN  NNW 000                       N    
RDG04912800WATRL000000004K00000000000000197005808262015093323N000000000000N40       000080400K 10000000010000000187           
CUS0491280000104085933002         CARRAWAY THEDA D    52 TRANSVERSE AVE                       000N        CARE OF             
MTR04912800001000000000000000RA              00132658    005801080000010800000570000003NN  NNW 000                       N    
RDG04912800WATRL000000004K00000000000000769005908262015093534N000400000010N40       001310400K 10000000010000000762           
CUS0491280000104085934000         HANNA SEROKIN       9 NACELLE RD                            000N        CARE OF             
MTR04912800001000000000000000RA              76347109    005801090000010900000350000003NN  NNW 000                       N    
RDG04912800WATRL000000004K00000000000000045006008262015093537N000000000000N40       000030400K 10000000010000000031           
CUS0491280000104085935007         NEWMAN PAUL D       7 NACELLE RD                            000N        CARE OF             
MTR04912800001000000000000000RA              99187152    005801100000011000000570000003NN  NNW 000                       N    
RDG04912800WATRL000000004K00000000000001139006108262015093638N000000000000N40       000610400K 10000000010000001127           
CUS0491280000104085936005         ERTWINE SAMUEL L    5 NACELLE RD                            000N        CARE OF             
MTR04912800001000000000000000RA              48586885    005801110000011100000520000003NN  NNW 000                       N    
RDG04912800WATRL000000004K00000000000001291006208262015093650N000000000000N40       000120400K 10000000010000001282           
CUS0491280000104085937003         THACKOORDEEN NOEL E 3 NACELLE RD                            000N        CARE OF             
MTR04912800001000000000000000RA              14928417    005801120000011200000310000003NN  NNW 000                       N    
RDG04912800WATRL000000004K00000000000000297006308262015093857N000000000000N40       001270400K 10000000010000000288           
CUS0491280000104085938001         DOBRY JOSEPH A      1 NACELLE RD                            000N        CARE OF             
MTR04912800001000000000000000RA              75424591    005801130000011300000350000003NN  NNW 000                       N    
RDG04912800WATRL000000004K00000000000000065006408262015093901N000000000010N40       000040400K 10000000010000000055           
CUS0491280000104085939009         EDWARDS TIMOTHY W   2 SLIPSTREAM CT                         000N        CARE OF             
MTR04912800001000000000000000RA              23644477    005801140000011400000520000003NN  NNW 000                       N    
RDG04912800WATRL000000004K00000000000002803006508262015094034N000000000000N40       000930400K 10000000010000002790           
CUS0491280000104085940007         WORSHAM TESSA       4 SLIPSTREAM CT                         000N        CARE OF             
MTR04912800001000000000000000RA              23644417    005801150000011500000520000003NN  NNW 000                       N    
RDG04912800WATRL000000004K00000000000003551006608262015094039N000000000000N40       000050400K 10000000010000003541           
CUS0491280000104085941005         POSTERLI PROPERTIES 6 SLIPSTREAM CT                         000N        CARE OF             
MTR04912800001000000000000000RA              54352273    005801160000011600000520000003NN  NNW 000                       N    
RDG04912800WATRL000000004K00000000000002229006708262015094244N000000000000N40       001250400K 10000000010000002220           
CUS0491280000104085942003         PENNINGTON JOE D    8 SLIPSTREAM CT                         000N        CARE OF             
MTR04912800001000000000000000RA              54352269    005801170000011700000520000003NN  NNW 000                       N    
RDG04912800WATRL000000004K00000000000001584006808262015094259N000000000000N40       000150400K 10000000010000001568           
CUS0491280000104085943001         DESHAW ANDREW       12 SLIPSTREAM CT                        000N        CARE OF             
MTR04912800001000000000000000RA              35107008    005801180000011800000520000003NN  NNW 000                       N    
RDG04912800WATRL000000004K00000000000003884006908262015094448N000400000042N40       000130400K 10000000010000003874           
CUS0491280000104085944009         POSTERLI ENTERPRISES14 SLIPSTREAM CT                        000N        CARE OF             
MTR04912800001000000000000000RA              14929171    005801190000011900000310000003NN  NNW 000                       N    
RDG04912800WATRL000000004K00000000000000357007008262015094606N000000000000N40       000780400K 10000000010000000347           
CUS0491280000104085945006         CARDARELLI JOHN J   16 SLIPSTREAM CT                        000N        CARE OF             
MTR04912800001000000000000000RA              00138866    005801200000012000000570000003NN  NNW 000                       N    
RDG04912800WATRL000000004K00000000000000972007108262015094614N000400000010N40       000080400K 10000000010000000965           
CUS0491280000104085946004         MARTIN CHRISTINE    9 SLIPSTREAM CT                         000N        CARE OF             
MTR04912800001000000000000000RA              10014117    005801210000012100000570000003NY  NNW 000                       N    
MTM0491280010014117    CANTFIND                                                                                               
RDG04912800WATRL000000004K00000000000000493004008272015094614N000400000010U40       002350400K 10000000010000000487           
CUS0491280000104085947002         SCHOFIELD PAMELA A  7 SLIPSTREAM CT                         000N        CARE OF             
MTR04912800001000000000000000RA              10000449    005801220000012200000570000003NY  NNW 000                       N    
MTM0491280010000449    CANTFIND                                                                                               
RDG04912800WATRL000000004K00000000000000630004108272015094616N000000000000U40       000020400K 10000000010000000608           
CUS0491280000104085948000         KISNER PATRICIA A   5 SLIPSTREAM CT                         000N        CARE OF             
MTR04912800001000000000000000RA              30518878    005801230000012300000520000003NY  NNW 000                       N    
MTM0491280030518878    CLEANOUT                                                                                               
RDG04912800WATRL000000004K00000000000003685004208272015094852N000000000000U40       001560400K 10000000010000003664           
CUS0491280000104085949008         CLAYTON JACK L      3 SLIPSTREAM CT                         000N        CARE OF             
MTR04912800001000000000000000RA              00132715    005801240000012400000570000003NY  NNW 000                       N    
MTM0491280000132715    CLEANOUT                                                                                               
RDG04912800WATRL000000004K00000000000002870004308272015094907N000000000000U40       000150400K 10000000010000002830           
CUS0491280000104085950006         WILLIAMS ROBERT EARL1 SLIPSTREAM CT                         000N        CARE OF             
MTR04912800001000000000000000RA              45385496    005801250000012500000520000003NN  NNW 000                       N    
RDG04912800WATRL000000004K00000000000001974007208262015095134N000000000000N40       003200400K 10000000010000001961           
CUS0491280000104085951004         WHITEHAIR KAREN M   54 TRANSVERSE AVE                       000N        CARE OF             
MTR04912800001000000000000000RA              50790208    005801260000012600000520000003NY  NNW 000                       N    
MTM0491280050790208    CANTFIND                                                                                               
RDG04912800WATRL000000004K00000000000001506004408272015095007N000000000000U40       000600400K 10000000010000001494           
CUS0491280000104085952002         CORSON DAWN         56 TRANSVERSE AVE                       000N        CARE OF             
MTR04912800001000000000000000RA              41259168    005801270000012700000520000003NN  NNW 000                       N    
RDG04912800WATRL000000004K00000000000002868007308262015095424N000400000010N40       001700400K 10000000010000002831           
CUS0491280000104085953000         WAGNER BRUCE C      58 TRANSVERSE AVE                       000N        CARE OF             
MTR04912800001000000000000000RA              44175107    005801280000012800000520000003NN  NNW 000                       N    
RDG04912800WATRL000000004K00000000000002300007408262015095435N000000000000N40       000110400K 10000000010000002272           
CUS0491280000104085954008         BAUMANN ADAM J      60 TRANSVERSE AVE                       000N        CARE OF             
MTR04912800001000000000000000RA              41074419    005801290000012900000520000003NN  NNW 000                       N    
RDG04912800WATRL000000004K00000000000001819007508262015095634N000400000010N40       001190400K 10000000010000001801           
CUS0491280000104085955005         FIELDS ROSE M       62 TRANSVERSE AVE                       000N        CARE OF             
MTR04912800001000000000000000RA              14923624    005801300000013000000310000003NN  NNW 000                       N    
RDG04912800WATRL000000004K00000000000000161007608262015095644N000400000010N40       000100400K 10000000010000000158           
CUS0491280000104085956003         SMITH CAROLYN SUE   64 TRANSVERSE AVE                       000N        CARE OF             
MTR04912800001000000000000000RA              24757669    005801310000013100000520000003NN  NNW 000                       N    
RDG04912800WATRL000000004K00000000000003672007708262015095751N000000000000N40       000670400K 10000000010000003662           
CUS0491280000104085957001         GETTIER RAYMOND LOUI66 TRANSVERSE AVE                       000N        CARE OF             
MTR04912800001000000000000000RA              00132812    005801320000013200000570000003NN  NNW 000                       N    
RDG04912800WATRL000000004K00000000000002018007808262015095757N000400000010N40       000060400K 10000000010000002006           
CUS0491280000104085967000         DYMOND JOSEPH ALFRED68 TRANSVERSE AVE                       000N        CARE OF             
MTR04912800001000000000000000RA              24230479    005801330000013300000520000003NN  NNW 000                       N    
RDG04912800WATRL000000004K00000000000003390007908262015095929N000000000000N40       000920400K 10000000010000003386           
CUS0491280000104085958009         HELL FIRE,INC.      1 OCTANT WAY                            000N        CARE OF             
MTR04912800001000000000000000RA              14902648    005801340000013400000310000003NN  NNW 000                       N    
RDG04912800WATRL000000004K00000000000000444008008262015100037N000000000000N40       000680400K 10000000010000000431           
CUS0491280000104085959007         WILLIAMS HOLBERT LEE3 OCTANT WAY                            000N        CARE OF             
MTR04912800001000000000000000RA              50786907    005801350000013500000520000003NN  NNW 000                       N    
RDG04912800WATRL000000004K00000000000001479008108262015100048N000300000030N40       000110400K 10000000010000001471           
CUS0491280000104085960005         ROSAS-HIDALGO PAULIN5 OCTANT WAY                            000N        CARE OF             
MTR04912800001000000000000000RA              48590616    005801360000013600000520000003NN  NNW 000                       N    
RDG04912800WATRL000000004K00000000000000993008208262015100154N000000000000N40       000660400K 10000000010000000983           
CUS0491280000104085961003         CARDARELLI JOSEPH T 7 OCTANT WAY                            000N        CARE OF             
MTR04912800001000000000000000RA              50788866    005801370000013700000520000003NN  NNW 000                       N    
RDG04912800WATRL000000004K00000000000001285008308262015100156N000000000000N40       000020400K 10000000010000001275           
CUS0491280000104085962001         PARRISH WILLIAM HARL9 OCTANT WAY                            000N        CARE OF             
MTR04912800001000000000000000RA              32903321    005801380000013800000520000003NY  NNW 000                       N    
MTM0491280032903321    CANTFIND                                                                                               
RDG04912800WATRL000000004K00000000000000000000000000000000000 000000000000U         000000400  10000000010000001712           
CUS0491280000104085963009         SMITH EDWARD S      8 OCTANT WAY                            000N        CARE OF             
MTR04912800001000000000000000RA              46878473    005801390000013900000520000003NY  NNW 000                       N    
MTM0491280046878473    CARONMETER                                                                                             
RDG04912800WATRL000000004K00000000000001470004508272015095700N000000000000U40       004130400K 10000000010000001460           
CUS0491280000104085964007         BRUSHMILLER TIMOTHY 6 OCTANT WAY                            000N        CARE OF             
MTR04912800001000000000000000RA              24230319    005801400000014000000520000003NN  NNW 000                       N    
RDG04912800WATRL000000004K00000000000002219004608272015095709N000000000000U40       000090400K 10000000010000002197           
CUS0491280000104085965004         GEPHARDT GEORGE A   4 OCTANT WAY                            000N        CARE OF             
MTR04912800001000000000000000RA              14905525    005801410000014100000310000003NN  NNW 000                       N    
RDG04912800WATRL000000004K00000000000000189008408262015100623N000000000000N40       002670400K 10000000010000000187           
CUS0491280000104085966002         RIDENOUR CAROLYN SUE2 OCTANT WAY                            000N        CARE OF             
MTR04912800001000000000000000RA              46878464    005801420000014200000520000003NN  NNW 000                       N    
RDG04912800WATRL000000004K00000000000002844008508262015100637N000000000000N40       000140400K 10000000010000002827           
CUS0491280000104454012008         STILLSYKES SUPERIOR 139 TRANSVERSE AVE                      000N        CARE OF             
MTR04912800001000000000000000RA              74816733    000101430000014300000350000003NN  NNW 000   VACANT / LOT        N    
RDG04912800WATRL000000004K00000000000000000008608262015100640N000000000000N40       000030400K 10000000010000000000           
CUS0491280000104454013006         STILLSYKES SUPERIOR 137 TRANSVERSE AVE                      000N        CARE OF             
MTR04912800001000000000000000RA              74816734    000101440000014400000350000003NN  NNW 000   VACANT / LOT        N    
RDG04912800WATRL000000004K00000000000000000008708262015100642N000000000000N40       000020400K 10000000010000000000           
CUS0491280000104454014004         STILLSYKES SUPERIOR 135 TRANSVERSE AVE                      000N        CARE OF             
MTR04912800001000000000000000RA              74816693    000101450000014500000350000003NN  NNW 000   VACANT / LOT        N    
RDG04912800WATRL000000004K00000000000000000008808262015100644N000000000000N40       000020400K 10000000010000000000           
CUS0491280000104454015001         STILLSYKES SUPERIOR 133 TRANSVERSE AVE                      000N        CARE OF             
MTR04912800001000000000000000RA              74816691    000101460000014600000350000003NN  NNW 000   VACANT / LOT        N    
RDG04912800WATRL000000004K00000000000000000008908262015100801N000000000000N40       000770400K 10000000010000000000           
CUS0491280000104454017007         STILLSYKES SUPERIOR 131 TRANSVERSE AVE                      000N        CARE OF             
MTR04912800001000000000000000RA              74816694    000101470000014700000350000003NN  NNW 000   VACANT / LOT        N    
RDG04912800WATRL000000004K00000000000000000009008262015100803N000000000000N40       000020400K 10000000010000000000           
CUS0491280000104085968008         BARBARA PETERSON    70 TRANSVERSE AVE                       000N        CARE OF             
MTR04912800001000000000000000RA              24757268    005801480000014800000520000003NN  NNW 000                       N    
RDG04912800WATRL000000004K00000000000002764009208262015100917N000400000010N40       000070400K 10000000010000002757           
CUS0491280000104085969006         MCDONALD AVERY D    72 TRANSVERSE AVE                       000N        CARE OF             
MTR04912800001000000000000000RA              50791624    005801490000014900000520000003NN  NNW 000                       N    
RDG04912800WATRL000000004K00000000000001001009108262015100910N000000000000N40       000670400K 10000000010000000991           
CUS0491280000104085970004         MNSF BALTIMORE, LLC 74 TRANSVERSE AVE                       000N        CARE OF             
MTR04912800001000000000000000RA              42809012    005801500000015000000520000003NN  NNW 000                       N    
RDG04912800WATRL000000004K00000000000003361009308262015101033N000000000000N40       000760400K 10000000010000003347           
CUS0491280000104085971002         PITZ GEORGE         76 TRANSVERSE AVE                       000N        CARE OF             
MTR04912800001000000000000000RA              10004274    005801510000015100000570000003NN  NNW 000                       N    
RDG04912800WATRL000000004K00000000000000315009408262015101159N000000000000N40       000860400K 10000000010000000298           
CUS0491280000104085972000         MORELOCK GLENN JOSEP71 TRANSVERSE AVE                       000N        CARE OF             
MTR04912800001000000000000000RA              24757266    005801520000015200000520000003NN  NNW 000                       N    
RDG04912800WATRL000000004K00000000000003897009508262015102759N000400000010N40       009600400K 10000000010000003892           
CUS0491280000104085973008         PERRY HOMER L,JR    69 TRANSVERSE AVE                       000N        CARE OF             
MTR04912800001000000000000000RA              24757731    005801530000015300000520000003NN  NNW 000                       N    
RDG04912800WATRL000000004K00000000000004471009608262015102853N000000000000N40       000540400K 10000000010000004462           
CUS0491280000104085974006         SMITH LAURIE JUNE   67 TRANSVERSE AVE                       000N        CARE OF             
MTR04912800001000000000000000RA              41259390    005801540000015400000520000003NN  NNW 000                       N    
RDG04912800WATRL000000004K00000000000003582009708262015102937N000000000000N40       000440400K 10000000010000003578           
CUS0491280000104085975003         WILLIAMS HOBERT LEE 65 TRANSVERSE AVE                       000N        CARE OF             
MTR04912800001000000000000000RA              46887447    005801550000015500000520000003NN  NNW 000                       N    
RDG04912800WATRL000000004K00000000000002239009808262015103047N000300000020N40       000700400K 10000000010000002233           
CUS0491280000104085976001         JOAN SIMMS          63 TRANSVERSE AVE                       000N        CARE OF             
MTR04912800001000000000000000RA              01103591    005801560000015600000610000003NN  NNW 000                       N    
RDG04912800WATRL000000004K00000000000000786009908262015103055N000300000010N40       000080400K 10000000010000000779           
CUS0491280000104085977009         DOWDY BARRY B       61 TRANSVERSE AVE                       000N        CARE OF             
MTR04912800001000000000000000RA              14929509    005801570000015700000310000003NN  NNW 000                       N    
RDG04912800WATRL000000004K00000000000001253010008262015103206N000400000010N40       000710400K 10000000010000001240           
CUS0491280000104085978007         JESSOP HARRIS RICHAR59 TRANSVERSE AVE                       000N        CARE OF             
MTR04912800001000000000000000RA              10008440    005801580000015800000570000003NN  NNW 000                       N    
RDG04912800WATRL000000004K00000000000000455010108262015103212N000000000010N40       000060400K 10000000010000000433           
CUS0491280000104085979005         RAMSEY THOMAS EDWARD57 TRANSVERSE AVE                       000N        CARE OF             
MTR04912800001000000000000000RA              46877745    005801590000015900000520000003NN  NNW 000                       N    
RDG04912800WATRL000000004K00000000000000904010308262015103426N000300000010N40       000090400K 10000000010000000892           
CUS0491280000104085980003         CRAMER ADAM B       55 TRANSVERSE AVE                       000N        CARE OF             
MTR04912800001000000000000000RA              44088891    005801600000016000000520000003NN  NNW 000                       N    
RDG04912800WATRL000000004K00000000000000516010208262015103417N000000000000N40       001250400K 10000000010000000503           
CUS0491280000104085981001         THOMAS R. GIBSON    53 TRANSVERSE AVE                       000N        CARE OF             
MTR04912800001000000000000000RA              24230475    005801610000016100000520000003NN  NNW 000                       N    
RDG04912800WATRL000000004K00000000000004714010408262015103545N000000000000N40       000790400K 10000000010000004706           
CUS0491280000104397554009         BANKS JEROME W      51-1/2 TRANSVERSE AVE                   000N        CARE OF             
MTR04912800001000000000000000RA              54351903    005801620000016200000520000003NY  NNW 000                       N    
MTM0491280054351903    CANTFIND                                                                                               
RDG04912800WATRL000000004K00000000000002510004708272015100148N000000000000U40       002790400K 10000000010000002482           
CUS0491280000104085982009         SALERNO ANTHONY P   51 TRANSVERSE AVE                       000N        CARE OF             
MTR04912800001000000000000000RA              24232313    005801630000016300000520000003NN  NNW 000                       N    
RDG04912800WATRL000000004K00000000000002534010508262015103905N000000000000N40       002000400K 10000000010000002524           
CUS0491280000104085983007         BUNNER CAROL A      49 TRANSVERSE AVE                       000N        CARE OF             
MTR04912800001000000000000000RA              44176549    005801640000016400000520000003NN  NNW 000                       N    
RDG04912800WATRL000000004K00000000000001438004808272015100323N000000000000U40       000950400K 10000000010000001425           
CUS0491280000104085984005         ZIERVOGEL BERNHARD G47 TRANSVERSE AVE                       000N        CARE OF             
MTR04912800001000000000000000RA              75614804    005801650000016500000350000003NN  NNW 000                       N    
RDG04912800WATRL000000004K00000000000000126010608262015104105N000300000041N40       000100400K 10000000010000000111           
CUS0491280000104085985002         RINKER ROBERT L     45 TRANSVERSE AVE                       000N        CARE OF             
MTR04912800001000000000000000RA              77877972    005801660000016600000360000003NN  NNW 000                       N    
RDG04912800WATRL000000004K00000000000000000010708262015104107S001000000000N40       000020400K 10000000010000000002           
CUS0491280000104085986000         WANCOWICZ MICHAEL D,11 ALLOY CIR                            000N        CARE OF             
MTR04912800001000000000000000RA              45385515    005801670000016700000520000003NY  NNW 000                       N    
MTM0491280045385515    CANTFIND                                                                                               
RDG04912800WATRL000000004K00000000000000000000000000000000000 000000000000U         000000400  10000000010000001162           
CUS0491280000104085987008         NELSON CAMARON      9 ALLOY CIR                             000N        CARE OF             
MTR04912800001000000000000000RA              41082620    005801680000016800000520000003NN  NNW 000                       N    
RDG04912800WATRL000000004K00000000000000287010808262015104433N000000000000N40       002060400K 10000000010000000278           
CUS0491280000104085988006         TESTERMAN RONALD B  7 ALLOY CIR                             000N        CARE OF             
MTR04912800001000000000000000RA              01116112    005801690000016900000610000003NN  NNW 000                       N    
RDG04912800WATRL000000004K00000000000001256010908262015104436N000000000000N40       000030400K 10000000010000001240           
CUS0491280000104085989004         CORSER JAMES RAY,JR 5 ALLOY CIR                             000N        CARE OF             
MTR04912800001000000000000000RA              40047209    005801700000017000000520000003NN  NNW 000                       N    
RDG04912800WATRL000000004K00000000000002790000709022015074055N000000000000U40       000660400K 10000000010000002752           
CUS0491280000104085990002         CORSER JAMES RAY    3 ALLOY CIR                             000N        CARE OF             
MTR04912800001000000000000000RA              10015313    005801710000017100000570000003NN  NNW 000                       N    
RDG04912800WATRL000000004K00000000000000304000809022015074059N000000000000U40       000040400K 10000000010000000291           
CUS0491280000104085991000         CARDARELLI DEBRA LYN1 ALLOY CIR                             000N        CARE OF             
MTR04912800001000000000000000RA              3970335     005801720000017200000520000003NN  NNW 000                       N    
RDG04912800WATRL000000004K00000000000000000000000000000000000 000000000000U         000000400  10000000010000002825           
CUS0491280000104085992008         MYERS CAROLYN C     2 ALLOY CIR                             000N        CARE OF             
MTR04912800001000000000000000RA              40779154    005801730000017300000520000003NN  NNW 000                       N    
RDG04912800WATRL000000004K00000000000000000000000000000000000 000000000000U         000000400  10000000010000001420           
CUS0491280000104085993006         TERRENCE L COOPER   4 ALLOY CIR                             000N        CARE OF             
MTR04912800001000000000000000RA              99286818    005801740000017400000570000003NN  NNW 000                       N    
RDG04912800WATRL000000004K00000000000000000000000000000000000 000000000000U         000000400  10000000010000001753           
CUS0491280000104085994004         GMAC MORTGAGE       6 ALLOY CIR                             000N        CARE OF             
MTR04912800001000000000000000RA              26013961    005801750000017500000520000003NN  NNW 000                       N    
RDG04912800WATRL000000004K00000000000004631005008272015100854N000300000010U40       000420400K 10000000010000004169           
CUS0491280000104085995001         AMANDA L FOWLER     8 ALLOY CIR                             000N        CARE OF             
MTR04912800001000000000000000RA              41087241    005801760000017600000520000003NN  NNW 000                       N    
RDG04912800WATRL000000004K00000000000002849004908272015100908N000000000011U40       000140400K 10000000010000002830           
CUS0491280000104085996009         SMELSER BONNIE      10 ALLOY CIR                            000N        CARE OF             
MTR04912800001000000000000000RA              00138864    005801770000017700000570000003NN  NNW 000                       N    
RDG04912800WATRL000000004K00000000000000844011108262015104639N000000000000N40       000130400K 10000000010000000818           
CUS0491280000104085997007         BALTIMORE COUNTY MAR12 ALLOY CIR                            000N        CARE OF             
MTR04912800001000000000000000RA              40320761    005801780000017800000520000003NN  NNW 000   FERRULE APPLIED     N    
RDG04912800WATRL000000004K00000000000000355011008262015104626N000000000000N40       001100400K 10000000010000000355           
CUS0491280000104085998005         POSTERLI PROPERTIES 43 TRANSVERSE AVE                       000N        CARE OF             
MTR04912800001000000000000000RA              99287439    005801790000017900000570000003NY  NNW 000                       N    
MTM0491280099287439    CLEANOUT                                                                                               
RDG04912800WATRL000000004K00000000000003199005108272015101433N000000000000U40       003250400K 10000000010000003163           
CUS0491280000104085999003         WOODWARD DARLENE C  41 TRANSVERSE AVE                       000N        CARE OF             
MTR04912800001000000000000000RA              99287435    005801800000018000000570000003NY  NNW 000                       N    
MTM0491280099287435    CLEANOUT                                                                                               
RDG04912800WATRL000000004K00000000000001117005208272015101438N000000000000U40       000050400K 10000000010000001107           
CUS0491280000104086000009         LAWRENCE STEPHEN C  39 TRANSVERSE AVE                       000N        CARE OF             
MTR04912800001000000000000000RA              01097091    005801810000018100000610000003NN  NNW 000                       N    
RDG04912800WATRL000000004K00000000000004172011208262015105459N000400000010N40       005000400K 10000000010000004115           
CUS0491280000104086001007         ALFRED L BRENNAN,JR.37 TRANSVERSE AVE                       000N        CARE OF             
MTR04912800001000000000000000RA              01097098    005801820000018200000610000003NN  NNW 000                       N    
RDG04912800WATRL000000004K00000000000000881011308262015105521N000400000010N40       000220400K 10000000010000000850           
CUS0491280000104086002005         SEIFERT MARY E L    35 TRANSVERSE AVE                       000N        CARE OF             
MTR04912800001000000000000000RA              29402535    005801830000018300000520000003NN  NNW 000                       N    
RDG04912800WATRL000000004K00000000000004825011408262015105814N000400000010N40       001730400K 10000000010000004809           
CUS0491280000104086003003         POSTERLI ENTERPRISES33 TRANSVERSE AVE                       000N        CARE OF             
MTR04912800001000000000000000RA              29402585    005801840000018400000520000003NN  NNW 000                       N    
RDG04912800WATRL000000004K00000000000003008011508262015105838N000400000010N40       000240400K 10000000010000003003           
CUS0491280000104086004001         ROSE DILLO          31 TRANSVERSE AVE                       000N        CARE OF             
MTR04912800001000000000000000RA              10008273    005801850000018500000570000003NN  NNW 000                       N    
RDG04912800WATRL000000004K00000000000000533011608262015110120N000000000000N40       001620400K 10000000010000000521           
CUS0491280000104086005008         TACY RONALD C       29 TRANSVERSE AVE                       000N        CARE OF             
MTR04912800001000000000000000RA              45385513    005801860000018600000520000003NN  NNW 000                       N    
RDG04912800WATRL000000004K00000000000001787011708262015110150N000000000000N40       000300400K 10000000010000001774           
CUS0491280000104086006006         JAMES T MILLER      27 TRANSVERSE AVE                       000N        CARE OF             
MTR04912800001000000000000000RA              26013105    005801870000018700000520000003NN  NNW 000                       N    
RDG04912800WATRL000000004K00000000000002473011808262015110157N000000000000N40       000070400K 10000000010000002456           
CUS0491280000104086007004         SUTHERLAND ROLAND JA25 TRANSVERSE AVE                       000N        CARE OF             
MTR04912800001000000000000000RA              48588278    005801880000018800000520000003NN  NNW 000                       N    
RDG04912800WATRL000000004K00000000000002740011908262015110346N000000000000N40       001090400K 10000000010000002714           
CUS0491280000104086008002         SCHMIDT JOSEPH L    20 HONEYCOMB RD                         000N        CARE OF             
MTR04912800001000000000000000RA              78021664    005801890000018900000360000003NN  NNW 000                       N    
RDG04912800WATRL000000004K00000000000000000012008262015110418S001000000000N40       000320400K 10000000010000000000           
CUS0491280000104086009000         CORDELL BRYAN W     22 HONEYCOMB RD                         000N        CARE OF             
MTR04912800001000000000000000RA              40047205    005801900000019000000520000003NY  NNW 000                       N    
MTM0491280040047205    CANTFIND                                                                                               
RDG04912800WATRL000000004K00000000000003450005308272015101831N000000000000U40       002330400K 10000000010000003424           
CUS0491280000104086010008         EDMUND J SIEN JR    24 HONEYCOMB RD                         000N        CARE OF             
MTR04912800001000000000000000RA              21202727    005801910000019100000520000003NN  NNW 000                       N    
RDG04912800WATRL000000004K00000000000006098005408272015101841N000000000000U40       000100400K 10000000010000006092           
CUS0491280000104086011006         ALT CHARLES A       23 HONEYCOMB RD                         000N        CARE OF             
MTR04912800001000000000000000RA              36696642    005801920000019200000520000003NN  NNW 000                       N    
RDG04912800WATRL000000004K00000000000001938012108262015110811N000000000000N40       002330400K 10000000010000001933           
CUS0491280000104086012004         ARTHUR L DRAGER/GUAR21 HONEYCOMB RD                         000N        CARE OF             
MTR04912800001000000000000000RA              39289018    005801930000019300000520000003NN  NNW 000                       N    
RDG04912800WATRL000000004K00000000000001435012208262015110823N000000000000N40       000120400K 10000000010000001428           
CUS0491280000104086013002         WEST MARVIN L       19 HONEYCOMB RD                         000N        CARE OF             
MTR04912800001000000000000000RA              50788294    005801940000019400000520000003NN  NNW 000                       N    
RDG04912800WATRL000000004K00000000000002108012308262015110926N000000000000N40       000630400K 10000000010000002090           
CUS0491280000104086014000         GIBSON STEVEN M     17 HONEYCOMB RD                         000N        CARE OF             
MTR04912800001000000000000000RA              27813254    005801950000019500000520000003NN  NNW 000                       N    
RDG04912800WATRL000000004K00000000000003917012408262015110946N000400000010N40       000200400K 10000000010000003909           
CUS0491280000104086015007         PATTON RYAN M       15 HONEYCOMB RD                         000N        CARE OF             
MTR04912800001000000000000000RA              26013884    005801960000019600000520000003NN  NNW 000                       N    
RDG04912800WATRL000000004K00000000000001471012508262015111128N000000000000N40       001020400K 10000000010000001471           
CUS0491280000104086016005         SOUTAR-DIETER SHERRY2 CATAPULT CT                           000N        CARE OF             
MTR04912800001000000000000000RA              26013886    005801970000019700000520000003NN  NNW 000                       N    
RDG04912800WATRL000000004K00000000000002756012608262015111138N000000000001N40       000100400K 10000000010000002744           
CUS0491280000104086017003         PEREZ LUIS A        4 CATAPULT CT                           000N        CARE OF             
MTR04912800001000000000000000RA              26013475    005801980000019800000520000003NN  NNW 000                       N    
RDG04912800WATRL000000004K00000000000003061012708262015111348N000400000010N40       001300400K 10000000010000003058           
CUS0491280000104086018001         OLYPHANT SUZANNE LOR6 CATAPULT CT                           000N        CARE OF             
MTR04912800001000000000000000RA              41259474    005801990000019900000520000003NN  NNW 000                       N    
RDG04912800WATRL000000004K00000000000001384012808262015111358N000000000000N40       000100400K 10000000010000001379           
CUS0491280000104086019009         FISHER DAVID L      8 CATAPULT CT                           000N        CARE OF             
MTR04912800001000000000000000RA              10007739    005802000000020000000570000003NN  NNW 000   VACANT / LOT        N    
RDG04912800WATRL000000004K00000000000000000012908262015111402N000000000000N40       000040400K 10000000010000000000           
CUS0491280000104086020007         KITTLE WILLIAM O    10 CATAPULT CT                          000N        CARE OF             
MTR04912800001000000000000000RA              40322106    005802010000020100000520000003NN  NNW 000                       N    
RDG04912800WATRL000000004K00000000000002668013008262015111529N000000000000N40       000870400K 10000000010000002660           
CUS0491280000104086022003         CLEMENTS NORBOURNE,J7 CATAPULT CT                           000N        CARE OF             
MTR04912800001000000000000000RA              00135354    005802020000020200000570000003NY  NNW 000                       N    
MTM0491280000135354    CANTFIND                                                                                               
RDG04912800WATRL000000004K00000000000000000000000000000000000 000000000000U         000000400  10000000010000001485           
CUS0491280000104086023001         NELSON RUSSELL E,JR 5 CATAPULT CT                           000N        CARE OF             
MTR04912800001000000000000000RA              44176969    005802030000020300000520000003NN  NNW 000                       N    
RDG04912800WATRL000000004K00000000000002550013108262015111949N000300000020N40       002600400K 10000000010000002625           
CUS0491280000104086024009         RODRIGUEZ BIENVENIDO3 CATAPULT CT                           000N        CARE OF             
MTR04912800001000000000000000RA              76347760    005802040000020400000350000003NN  NNW 000                       N    
RDG04912800WATRL000000004K00000000000000135013208262015111959N000100000010N40       000100400K 10000000010000000135           
CUS0491280000104086025006         OXLEY EARL STUART,TR1 CATAPULT CT                           000N        CARE OF             
MTR04912800001000000000000000RA              31587233    005802050000020500000520000000NY  NNW 000                       N    
MTM0491280031587233    CANTFIND                                                                                               
RDG04912800WATRL000000004K00000000000002233005508272015102342N000000000000U40       003010400K 10000000010000002225           
CUS0491280000104086026004         ROACH MICHAEL E     2 PLASTIC CT                            000N        CARE OF             
MTR04912800001000000000000000RA              31587325    005802060000020600000520000003NY  NNW 000                       N    
MTM0491280031587325    CANTOPEN                                                                                               
RDG04912800WATRL000000004K00000000000001545005608272015102351N000000000000U40       000090400K 10000000010000001532           
CUS0491280000104086027002         JONES RUSSELL       4 PLASTIC CT                            000N        CARE OF             
MTR04912800001000000000000000RA              99287489    005802070000020700000570000003NN  NNW 000                       N    
RDG04912800WATRL000000004K00000000000001131013308262015112726N000400000020N40       004470400K 10000000010000001125           
CUS0491280000104086028000         JACK ROBERT YOST    6 PLASTIC CT                            000N        CARE OF             
MTR04912800001000000000000000RA              99189205    005802080000020800000570000003NN  NNW 000                       N    
RDG04912800WATRL000000004K00000000000001041013408262015112731N000400000010N40       000050400K 10000000010000001029           
CUS0491280000104086029008         JONES HARRY T       8 PLASTIC CT                            000N        CARE OF             
MTR04912800001000000000000000RA              77888989    005802090000020900000360000003NN  NNW 000                       N    
RDG04912800WATRL000000004K00000000000000000013508262015113122N000000000000N40       002310400K 10000000010000000000           
CUS0491280000104086030006         HEIL MICHAEL L      10 PLASTIC CT                           000N        CARE OF             
MTR04912800001000000000000000RA              77888994    005802100000021000000360000003NN  NNW 000                       N    
RDG04912800WATRL000000004K00000000000000000013608262015113124N000000000000N40       000020400K 10000000010000000000           
CUS0491280000104086031004         CARRAWAY THEDA D    9 PLASTIC CT                            000N        CARE OF             
MTR04912800001000000000000000RA              77888991    005802110000021100000360000003NN  NNW 000                       N    
RDG04912800WATRL000000004K00000000000000000013708262015113127N000000000000N40       000030400K 10000000010000000000           
CUS0491280000104086032002         POSTERLI PROPERTIES 7 PLASTIC CT                            000N        CARE OF             
MTR04912800001000000000000000RA              77892151    005802120000021200000360000003NN  NNW 000                       N    
RDG04912800WATRL000000004K00000000000000000013808262015113129N000000000000N40       000020400K 10000000010000000000           
CUS0491280000104086033000         HEIL MICHAEL L      5 PLASTIC CT                            000N        CARE OF             
MTR04912800001000000000000000RA              77890789    005802130000021300000360000003NN  NNW 000                       N    
RDG04912800WATRL000000004K00000000000000000013908262015113130N000000000000N40       000010400K 10000000010000000000           
CUS0491280000104086034008         KLUCZYK JOSEPH A    3 PLASTIC CT                            000N        CARE OF             
MTR04912800001000000000000000RA              77892153    005802140000021400000360000003NN  NNW 000                       N    
RDG04912800WATRL000000004K00000000000000000014008262015113132N000000000000N40       000020400K 10000000010000000000           
CUS0491280000104086035005         LILLER JAMES D      1 PLASTIC CT                            000N        CARE OF             
MTR04912800001000000000000000RA              31587322    005802150000021500000520000003NY  NNW 000                       N    
MTM0491280031587322    DOGINYARD                                                                                              
RDG04912800WATRL000000004K00000000000005490005708272015102419N000400000020U40       000280400K 10000000010000005488           
RTR04912800NN02150215000002150000000002150215000343NY021502150215001000050000000000000000000001    08172015NY020000 N         
RHD04745000NN02060206000002060000000002060206000186NY020602060206000100050000000000000000000001    08172015NY020000 N         
CUS0474500000104131352009         TAMARA WRIGHT       1602 REGESTER AVE                       000N        CARE OF             
MTR04745000001000000000000000RA              45381658    005800010000000100000520000003NN  NNW 000                       N    
RDG04745000WATRL000000004K00000000000002010000109012015084932N000000000000N40       000000400K 10000000010000001992           
CUS0474500000104131353007         MCCONNELL R MIRTHA O6601 LOCH HILL RD                       000N        CARE OF             
MTR04745000001000000000000000RA              36692125    005800020000000200000520000003NN  NNW 000                       N    
RDG04745000WATRL000000004K00000000000003319000209012015085309N000000000000N40       002170400K 10000000010000003284           
CUS0474500000104131354005         PETERSON CATHERINE  6603 LOCH HILL RD                       000N        CARE OF             
MTR04745000001000000000000000RA              30521717    005800030000000300000520000003NN  NNW 000                       N    
RDG04745000WATRL000000004K00000000000006981000509012015090056N000100000010N40       000680400K 10000000010000006981           
CUS0474500000104131355002         HEIL RAYMOND L      6605 LOCH HILL RD                       000N        CARE OF             
MTR04745000001000000000000000RA              30521721    005800040000000400000520000003NN  NNW 000                       N    
RDG04745000WATRL000000004K00000000000003124000609012015090133N000000000000N40       000370400K 10000000010000003110           
CUS0474500000104131356000         COOPER JAMES ROBERT 6607 LOCH HILL RD                       000N        CARE OF             
MTR04745000001000000000000000RA              14902167    005800050000000500000310000003NN  NNW 000                       N    
RDG04745000WATRL000000004K00000000000001426000809012015090259N000000000000N40       000250400K 10000000010000001414           
CUS0474500000104131357008         COLE MICHAEL B      6609 LOCH HILL RD                       000N        CARE OF             
MTR04745000001000000000000000RA              32177492    005800060000000600000520000003NN  NNW 000                       N    
RDG04745000WATRL000000004K00000000000003285000909012015090346N000000000000N40       000470400K 10000000010000003264           
CUS0474500000104131358006         ROEHL HENRY T       6611 LOCH HILL RD                       000N        CARE OF             
MTR04745000001000000000000000RA              27814189    005800070000000700000520000003NY  NNW 000                       N    
MTM0474500027814189    car                                                                                                    
RDG04745000WATRL000000004K00000000000000000000000000000000000 000000000000U         000000400  10000000010000002620           
CUS0474500000104131359004         PECK RANDALL S      6613 LOCH HILL RD                       000N        CARE OF             
MTR04745000001000000000000000RA              20767695    005800080000000800000520000003NN  NNW 000                       N    
RDG04745000WATRL000000004K00000000000002073001509012015090803N000000000000N40       000420400K 10000000010000002061           
CUS0474500000104131360002         HAMMER KAREN R      6615 LOCH HILL RD                       000N        CARE OF             
MTR04745000001000000000000000RA              14912799    005800090000000900000310000003NN  NNW 000                       N    
RDG04745000WATRL000000004K00000000000000696001609012015090920N000000000000N40       000770400K 10000000010000000685           
CUS0474500000104131361000         SINCLAIR MATTHEW G  6617 LOCH HILL RD                       000N        CARE OF             
MTR04745000001000000000000000RA              36692129    005800100000001000000520000003NN  NNW 000                       N    
RDG04745000WATRL000000004K00000000000002566002009012015091345N000000000000N40       001290400K 10000000010000002546           
CUS0474500000104131362008         LAUREN N ZUNIKOFF   6619 LOCH HILL RD                       000N        CARE OF             
MTR04745000001000000000000000RA              36692341    005800110000001100000520000003NN  NNW 000                       N    
RDG04745000WATRL000000004K00000000000002534002109012015091441N000000000000N40       000560400K 10000000010000002524           
CUS0474500000104131363006         ALINA PARKER        6621 LOCH HILL RD                       000N        CARE OF             
MTR04745000001000000000000000RA              14900084    005800120000001200000310000003NN  NNW 000                       N    
RDG04745000WATRL000000004K00000000000000607002409012015091758N000400000010N40       000530400K 10000000010000000596           
CUS0474500000104131364004         PETERSON MELVIN A   6623 LOCH HILL RD                       000N        CARE OF             
MTR04745000001000000000000000RA              32771260    005800130000001300000520000003NN  NNW 000                       N    
RDG04745000WATRL000000004K00000000000001731002509012015091847N000000000000N40       000490400K 10000000010000001724           
CUS0474500000104131365001         TILL THOMAS LYONS   6625 LOCH HILL RD                       000N        CARE OF             
MTR04745000001000000000000000RA              36692132    005800140000001400000520000003NN  NNW 000                       N    
RDG04745000WATRL000000004K00000000000002046002809012015092105N000000000000N40       000410400K 10000000010000002035           
CUS0474500000104131366009         RENTSCHLER ANN      6627 LOCH HILL RD                       000N        CARE OF             
MTR04745000001000000000000000RA              36692128    005800150000001500000520000003NN  NNW 000                       N    
RDG04745000WATRL000000004K00000000000003068002909012015092140N000000000000N40       000350400K 10000000010000003051           
CUS0474500000104131367007         BOARDMAN GRAHAM C   6629 LOCH HILL RD                       000N        CARE OF             
MTR04745000001000000000000000RA              26000035    005800160000001600000520000003NN  NNW 000                       N    
RDG04745000WATRL000000004K00000000000004275003209012015092344N000000000000N40       000340400K 10000000010000004264           
CUS0474500000104131368005         HOFFMAN JOAN P      6631 LOCH HILL RD                       000N        CARE OF             
MTR04745000001000000000000000RA              35116515    005800170000001700000520000003NN  NNW 000                       N    
RDG04745000WATRL000000004K00000000000001996003309012015092422N000000000000N40       000380400K 10000000010000001990           
CUS0474500000104131369003         JOHNSTON KATHLEEN C 6633 LOCH HILL RD                       000N        CARE OF             
MTR04745000001000000000000000RA              01102826    005800180000001800000610000003NN  NNW 000                       N    
RDG04745000WATRL000000004K00000000000001235003509012015092550N000000000000N40       000390400K 10000000010000001158           
CUS0474500000104131370001         STINE JASON A       6635 LOCH HILL RD                       000N        CARE OF             
MTR04745000001000000000000000RA              01102825    005800190000001900000610000003NN  NNW 000                       N    
RDG04745000WATRL000000004K00000000000000795003609012015092557N000000000000N40       000070400K 10000000010000000786           
CUS0474500000104131371009         BERNER JEAN L/TRUSTE6637 LOCH HILL RD                       000N        CARE OF             
MTR04745000001000000000000000RA              36692138    005800200000002000000520000003NN  NNW 000                       N    
RDG04745000WATRL000000004K00000000000001841003709012015092631N000400000010N40       000340400K 10000000010000001837           
CUS0474500000104131372007         MULLER JEFFREY      6639 LOCH HILL RD                       000N        CARE OF             
MTR04745000001000000000000000RA              36692130    005800210000002100000520000003NN  NNW 000                       N    
RDG04745000WATRL000000004K00000000000003034003809012015092704N000000000000N40       000330400K 10000000010000003034           
CUS0474500000104131373005         ALAOUI HASSAN M     6641 LOCH HILL RD                       000N        CARE OF             
MTR04745000001000000000000000RA              36692135    005800220000002200000520000003NN  NNW 000                       N    
RDG04745000WATRL000000004K00000000000003811003909012015092755N000000000000N40       000510400K 10000000010000003782           
CUS0474500000104131374003         FIGLER JENNIFER S   6643 LOCH HILL RD                       000N        CARE OF             
MTR04745000001000000000000000RA              25780970    005800230000002300000520000003NN  NNW 000                       N    
RDG04745000WATRL000000004K00000000000002810004009012015092831N000000000000N40       000360400K 10000000010000002788           
CUS0474500000104131375000         COSGROVE JAMES F X  6640 LOCH HILL RD                       000N        CARE OF             
MTR04745000001000000000000000RA              35112032    005800240000002400000520000003NN  NNW 000                       N    
RDG04745000WATRL000000004K00000000000003156004209012015093415N000000000000N40       000650400K 10000000010000003131           
CUS0474500000104131376008         KETRON AMY L        6638 LOCH HILL RD                       000N        CARE OF             
MTR04745000001000000000000000RA              36692127    005800250000002500000520000003NN  NNW 000                       N    
RDG04745000WATRL000000004K00000000000001519004109012015093310N000000003300N40       002790400K 10000000010000001504           
CUS0474500000104131377006         CERAUL SHANE M      6636 LOCH HILL RD                       000N        CARE OF             
MTR04745000001000000000000000RA              27814186    005800260000002600000520000003NN  NNW 000                       N    
RDG04745000WATRL000000004K00000000000003895003409012015092511N000000000000N40       000490400K 10000000010000003878           
CUS0474500000104131378004         LORBER BRIAN P      6634 LOCH HILL RD                       000N        CARE OF             
MTR04745000001000000000000000RA              36692124    005800270000002700000520000003NN  NNW 000                       N    
RDG04745000WATRL000000004K00000000000002231003109012015092310N000000000000N40       000420400K 10000000010000002217           
CUS0474500000104131379002         NAYDEN JEROME P     6632 LOCH HILL RD                       000N        CARE OF             
MTR04745000001000000000000000RA              23647058    005800280000002800000520000003NN  NNW 000                       N    
RDG04745000WATRL000000004K00000000000004826003009012015092228N000300000010N40       000480400K 10000000010000004804           
CUS0474500000104131380000         KADONOFF LILLIAN S  6630 LOCH HILL RD                       000N        CARE OF             
MTR04745000001000000000000000RA              76348810    005800290000002900000350000003NN  NNW 000                       N    
RDG04745000WATRL000000004K00000000000000115002709012015092024N000000000000N40       000400400K 10000000010000000096           
CUS0474500000104131381008         PRINGLE L RICHARD   6628 LOCH HILL RD                       000N        CARE OF             
MTR04745000001000000000000000RA              77889600    005800300000003000000350000003NN  NNW 000                       N    
RDG04745000WATRL000000004K00000000000000000002609012015091944S001000000000N40       000570400K 10000000010000000076           
CUS0474500000104131382006         BRENDLINGER JANET   6626 LOCH HILL RD                       000N        CARE OF             
MTR04745000001000000000000000RA              00127238    005800310000003100000570000003NN  NNW 000                       N    
RDG04745000WATRL000000004K00000000000000668002309012015091705N000400000010N40       000970400K 10000000010000000645           
CUS0474500000104131383004         LATREILLE PETER D   6624 LOCH HILL RD                       000N        CARE OF             
MTR04745000001000000000000000RA              14916123    005800320000003200000310000003NN  NNW 000                       N    
RDG04745000WATRL000000004K00000000000000923002209012015091528N000000000000N40       000470400K 10000000010000000900           
CUS0474500000104131384002         FALTER JENNIFER A   6622 LOCH HILL RD                       000N        CARE OF             
MTR04745000001000000000000000RA              36692131    005800330000003300000520000003NN  NNW 000                       N    
RDG04745000WATRL000000004K00000000000002192001909012015091136N000000000000N40       000400400K 10000000010000002171           
