FHDNNNN017003004003004003238N                                                                                           009402
RHD04733000NN01930193000001930000000001930193000121NY019301930193000000010000000000000000000001    08172015NY020000 N         
CUS0473300000104128110006         DIANDERAS EDGAR A   508 HILLEN RD                           000N        CARE OF             
MTR04733000001000000000000000RA              48582260    005800010000000100000520000003NN  NNW 000                       N    
RDG04733000WATRL000000004K00000000000001555000109032015063903N000000000000N91       000000400K 10000000010000001542           
CUS0473300000104128111004         FEI G DANIEL        506 HILLEN RD                           000N        CARE OF             
MTR04733000001000000000000000RA              01084845    005800020000000200000610000003NN  NNW 000                       N    
RDG04733000WATRL000000004K00000000000000772000209032015063950N000000000000N91       000470400K 10000000010000000772           
CUS0473300000104128112002         HALLETT CHRISTOPHER 504 HILLEN RD                           000N        CARE OF             
MTR04733000001000000000000000RA              52768487    005800030000000300000520000003NN  NNW 000                       N    
RDG04733000WATRL000000004K00000000000001075000309032015064042N000000000000N91       000520400K 10000000010000001065           
CUS0473300000104128113000         SIEBERT GERHARD H   502 HILLEN RD                           000N        CARE OF             
MTR04733000001000000000000000RA              27823170    005800040000000400000520000003NN  NNW 000                       N    
RDG04733000WATRL000000004K00000000000002837000409032015064143N000000000000N91       000610400K 10000000010000002826           
CUS0473300000104128114008         LAN THI HOANG TRUONG500 HILLEN RD                           000N        CARE OF             
MTR04733000001000000000000000RA              46887966    005800050000000500000520000003NN  NNW 000                       N    
RDG04733000WATRL000000004K00000000000001663000509032015064258N000000000000N91       000750400K 10000000010000001651           
CUS0473300000104128115005         ERLANDSON ROBERT A  501 BROOK RD                            000N        CARE OF             
MTR04733000001000000000000000RA              01084848    005800060000000600000610000003NN  NNW 000                       N    
RDG04733000WATRL000000004K00000000000001080000609032015064358N000400000010N91       000600400K 10000000010000001063           
CUS0473300000104128116003         ALEXANDER J BALL    503 BROOK RD                            000N        CARE OF             
MTR04733000001000000000000000RA              00139208    005800070000000700000570000003NN  NNW 000                       N    
RDG04733000WATRL000000004K00000000000001465000709032015064432N000000000000N91       000340400K 10000000010000001435           
CUS0473300000104128117001         FANNON MICHAEL T    505 BROOK RD                            000N        CARE OF             
MTR04733000001000000000000000RA              14902278    005800080000000800000310000003NN  NNW 000                       N    
RDG04733000WATRL000000004K00000000000001276000809032015064508N000000000000N91       000360400K 10000000010000001262           
CUS0473300000104128118009         BIGGS JAMES E       507 BROOK RD                            000N        CARE OF             
MTR04733000001000000000000000RA              9686741     005800090000000900000570000003NN  NNW 000                       N    
RDG04733000WATRL000000004K00000000000004655000909032015064557N000000000010N91       000490400K 10000000010000004653           
CUS0473300000104128119007         POSCOVER GEORGE F   509 BROOK RD                            000N        CARE OF             
MTR04733000001000000000000000RA              26004915    005800100000001000000520000003NN  NNW 000                       N    
RDG04733000WATRL000000004K00000000000003549001009032015064636N000400000010N91       000390400K 10000000010000003534           
CUS0473300000104128120005         HAWKINS DENNIS A    511 BROOK RD                            000N        CARE OF             
MTR04733000001000000000000000RA              45381351    005800110000001100000520000003NN  NNW 000                       N    
RDG04733000WATRL000000004K00000000000001616001109032015064719N000000000000N91       000430400K 10000000010000001607           
CUS0473300000104128121003         CARL RICHARD D      513 BROOK RD                            000N        CARE OF             
MTR04733000001000000000000000RA              9683806     005800120000001200000570000003NN  NNW 000                       N    
RDG04733000WATRL000000004K00000000000005183001209032015064818N000000000000N91       000590400K 10000000010000005171           
CUS0473300000104128122001         HIEGEL JAMES S      515 BROOK RD                            000N        CARE OF             
MTR04733000001000000000000000RA              36690826    005800130000001300000520000003NN  NNW 000                       N    
RDG04733000WATRL000000004K00000000000006754001309032015064859N000000000000N91       000410400K 10000000010000006723           
CUS0473300000104128123009         BAHNER JANIS L      517 BROOK RD                            000N        CARE OF             
MTR04733000001000000000000000RA              33734820    005800140000001400000520000003NN  NNW 000                       N    
RDG04733000WATRL000000004K00000000000002140001409032015064922N000300000010N91       000230400K 10000000010000002141           
CUS0473300000104128124007         SINCLAIR WILLIAM T,3519 BROOK RD                            000N        CARE OF             
MTR04733000001000000000000000RA              45381321    005800150000001500000520000003NN  NNW 000                       N    
RDG04733000WATRL000000004K00000000000002567001509032015064955N000000000000N91       000330400K 10000000010000002549           
CUS0473300000104128125004         CR OF MARYLAND,LLC  521 BROOK RD                            000N        CARE OF             
MTR04733000001000000000000000RA              14901960    005800160000001600000310000003NN  NNW 000                       N    
RDG04733000WATRL000000004K00000000000000755001609032015065028N000400000010N91       000330400K 10000000010000000752           
CUS0473300000104128126002         DENGLER HELEN       523 BROOK RD                            000N        CARE OF             
MTR04733000001000000000000000RA              00130716    005800170000001700000570000003NN  NNW 000                       N    
RDG04733000WATRL000000004K00000000000000644001709032015065119N000400000010N91       000510400K 10000000010000000641           
CUS0473300000104128127000         KOCUN KENNETH J     525 BROOK RD                            000N        CARE OF             
MTR04733000001000000000000000RA              9691092     005800180000001800000570000003NN  NNW 000                       N    
RDG04733000WATRL000000004K00000000000004692001809032015065152N000000000000N91       000330400K 10000000010000004650           
CUS0473300000104128128008         STRAUSS NANETTE E   527 BROOK RD                            000N        CARE OF             
MTR04733000001000000000000000RA              24773527    005800190000001900000520000003NN  NNW 000                       N    
RDG04733000WATRL000000004K00000000000003685001909032015065224N000000000000N91       000320400K 10000000010000003676           
CUS0473300000104128129006         GONZALEZ CHAPMAN P,3529 BROOK RD                            000N        CARE OF             
MTR04733000001000000000000000RA              26004832    005800200000002000000520000003NN  NNW 000                       N    
RDG04733000WATRL000000004K00000000000002032002009032015065259N000000000000N91       000350400K 10000000010000002029           
CUS0473300000104128130004         GREEN BRIAN         531 BROOK RD                            000N        CARE OF             
MTR04733000001000000000000000RA              26002545    005800210000002100000520000003NN  NNW 000                       N    
RDG04733000WATRL000000004K00000000000004618002109032015065332N000000000000N91       000330400K 10000000010000004604           
CUS0473300000104128131002         ROBERT A BISHOFF ,JR533 BROOK RD                            000N        CARE OF             
MTR04733000001000000000000000RA              45381577    005800220000002200000520000003NN  NNW 000                       N    
RDG04733000WATRL000000004K00000000000002654002209032015065407N000000000000N91       000350400K 10000000010000002642           
CUS0473300000104128132000         GITTINGS RYAN H     535 BROOK RD                            000N        CARE OF             
MTR04733000001000000000000000RA              48583955    005800230000002300000520000003NN  NNW 000                       N    
RDG04733000WATRL000000004K00000000000002373002309032015065440N000000000000N91       000330400K 10000000010000002357           
CUS0473300000104128133008         KRUM JAMES ALLEN    537 BROOK RD                            000N        CARE OF             
MTR04733000001000000000000000RA              33077569    005800240000002400000520000003NN  NNW 000                       N    
RDG04733000WATRL000000004K00000000000003168002409032015065512N000000000000N91       000320400K 10000000010000003155           
CUS0473300000104128134006         WEINSTOCK MATTHEW A 539 BROOK RD                            000N        CARE OF             
MTR04733000001000000000000000RA              30516840    005800250000002500000520000003NN  NNW 000                       N    
RDG04733000WATRL000000004K00000000000003232002509032015065555N000000000000N91       000430400K 10000000010000003213           
CUS0473300000104128135003         LAVARDERA PAUL A    541 BROOK RD                            000N        CARE OF             
MTR04733000001000000000000000RA              00130013    005800260000002600000570000003NN  NNW 000                       N    
RDG04733000WATRL000000004K00000000000000675002609032015065631N000000000000N91       000360400K 10000000010000000667           
CUS0473300000104128136001         KARA S. BROWN       543 BROOK RD                            000N        CARE OF             
MTR04733000001000000000000000RA              14916420    005800270000002700000310000003NN  NNW 000                       N    
RDG04733000WATRL000000004K00000000000000798002709032015065704N000000000000N91       000330400K 10000000010000000790           
CUS0473300000104128137009         DOHONY JOSEPH P     545 BROOK RD                            000N        CARE OF             
MTR04733000001000000000000000RA              99189519    005800280000002800000570000003NN  NNW 000                       N    
RDG04733000WATRL000000004K00000000000001643002809032015065749N000000000000N91       000450400K 10000000010000001616           
CUS0473300000104128138007         RETTBERG WILLIAM J  547 BROOK RD                            000N        CARE OF             
MTR04733000001000000000000000RA              01111931    005800290000002900000610000003NN  NNW 000                       N    
RDG04733000WATRL000000004K00000000000000812002909032015065826N000000000000N91       000370400K 10000000010000000795           
CUS0473300000104128139005         PEARL MARCIA L      549 BROOK RD                            000N        CARE OF             
MTR04733000001000000000000000RA              26001174    005800300000003000000520000003NN  NNW 000                       N    
RDG04733000WATRL000000004K00000000000000253003009032015065904N000000000000N91       000380400K 10000000010000000240           
CUS0473300000104128140003         RICE GARY W         551 BROOK RD                            000N        CARE OF             
MTR04733000001000000000000000RA              75616850    005800310000003100000350000003NN  NNW 000                       N    
RDG04733000WATRL000000004K00000000000000043003109032015065941N000000000000N91       000370400K 10000000010000000040           
CUS0473300000104128141001         DEMILLO PAUL A      553 BROOK RD                            000N        CARE OF             
MTR04733000001000000000000000RA              45373176    005800320000003200000520000003NN  NNW 000                       N    
RDG04733000WATRL000000004K00000000000003098003209032015070016N000000000000N91       000350400K 10000000010000003075           
CUS0473300000104128142009         BARBIERI JOHN J,JR  555 BROOK RD                            000N        CARE OF             
MTR04733000001000000000000000RA              45381578    005800330000003300000520000003NN  NNW 000                       N    
RDG04733000WATRL000000004K00000000000002891003309032015070124N000000000000N91       000680400K 10000000010000002870           
CUS0473300000104128143007         PLEAH TSIGUE G      557 BROOK RD                            000N        CARE OF             
MTR04733000001000000000000000RA              26013519    005800340000003400000520000003NN  NNW 000                       N    
RDG04733000WATRL000000004K00000000000004476003409032015070159N000000000000N91       000350400K 10000000010000004471           
CUS0473300000104128144005         FRANTZ STEPHEN E    559 BROOK RD                            000N        CARE OF             
MTR04733000001000000000000000RA              9689758     005800350000003500000570000003NN  NNW 000                       N    
RDG04733000WATRL000000004K00000000000006253003509032015070228N000000000000N91       000290400K 10000000010000006236           
CUS0473300000104128145002         MEBUST J LELAND     561 BROOK RD                            000N        CARE OF             
MTR04733000001000000000000000RA              45373202    005800360000003600000520000003NN  NNW 000                       N    
RDG04733000WATRL000000004K00000000000002594003609032015070301N000000000000N91       000330400K 10000000010000002588           
CUS0473300000104128146000         MESSERCOLA NAZARENO 563 BROOK RD                            000N        CARE OF             
MTR04733000001000000000000000RA              45373172    005800370000003700000520000003NN  NNW 000                       N    
RDG04733000WATRL000000004K00000000000004030003709032015070351N000000000000N91       000500400K 10000000010000004014           
CUS0473300000104128147008         WILKENS IRENE A     565 BROOK RD                            000N        CARE OF             
MTR04733000001000000000000000RA              40320871    005800380000003800000520000003NN  NNW 000                       N    
RDG04733000WATRL000000004K00000000000001088003809032015070424N000000000000N91       000330400K 10000000010000001079           
CUS0473300000104128148006         HOOPER ROBERT LAWREN567 BROOK RD                            000N        CARE OF             
MTR04733000001000000000000000RA              38983274    005800390000003900000520000003NN  NNW 000                       N    
RDG04733000WATRL000000004K00000000000002850003909032015070504N000000000000N91       000400400K 10000000010000002806           
CUS0473300000104128149004         SKRIVAN FRANK A     569 BROOK RD                            000N        CARE OF             
MTR04733000001000000000000000RA              99189518    005800400000004000000570000003NN  NNW 000                       N    
RDG04733000WATRL000000004K00000000000001676004009032015070619N000000000000N91       000750400K 10000000010000001653           
CUS0473300000104128150002         RIZZO RALPH J,JR  ET571 BROOK RD                            000N        CARE OF             
MTR04733000001000000000000000RA              99189516    005800410000004100000570000003NN  NNW 000                       N    
RDG04733000WATRL000000004K00000000000000561004109032015070653N000000000000N91       000340400K 10000000010000000558           
CUS0473300000104128151000         HENDERSON MICHAEL C 573 BROOK RD                            000N        CARE OF             
MTR04733000001000000000000000RA              38887238    005800420000004200000520000003NN  NNW 000                       N    
RDG04733000WATRL000000004K00000000000003595004209032015070726N000000000000N91       000330400K 10000000010000003569           
CUS0473300000104128152008         JASON B CONNOR      575 BROOK RD                            000N        CARE OF             
MTR04733000001000000000000000RA              27134472    005800430000004300000520000003NN  NNW 000                       N    
RDG04733000WATRL000000004K00000000000002614004309032015070805N000000000000N91       000390400K 10000000010000002599           
CUS0473300000104128153006         MULLEN THOMAS F,JR  577 BROOK RD                            000N        CARE OF             
MTR04733000001000000000000000RA              38887848    005800440000004400000520000003NN  NNW 000                       N    
RDG04733000WATRL000000004K00000000000002101004409032015070846N000000000000N91       000410400K 10000000010000002097           
CUS0473300000104128154004         LEE RUTHE A         579 BROOK RD                            000N        CARE OF             
MTR04733000001000000000000000RA              40047267    005800450000004500000520000003NN  NNW 000                       N    
RDG04733000WATRL000000004K00000000000002066004509032015070924N000000000000N91       000380400K 10000000010000002064           
CUS0473300000104128155001         ALLEN DENISE A      581 BROOK RD                            000N        CARE OF             
MTR04733000001000000000000000RA              45381555    005800460000004600000520000003NN  NNW 000                       N    
RDG04733000WATRL000000004K00000000000002145004609032015071001N000000000000N91       000370400K 10000000010000002135           
CUS0473300000104128156009         ROLKER JOHN G       548 BROOK RD                            000N        CARE OF             
MTR04733000001000000000000000RA              46888648    005800470000004700000520000003NN  NNW 000                       N    
RDG04733000WATRL000000004K00000000000002748004709032015071134N000000000000N91       000930400K 10000000010000002733           
CUS0473300000104128157007         BENJAMIN BOBLOOCHA  546 BROOK RD                            000N        CARE OF             
MTR04733000001000000000000000RA              01076575    005800480000004800000610000003NN  NNW 000                       N    
RDG04733000WATRL000000004K00000000000000942004809032015071215N000000000000N91       000410400K 10000000010000000925           
CUS0473300000104128158005         BICKERS WANDA K     544 BROOK RD                            000N        CARE OF             
MTR04733000001000000000000000RA              9596694     005800490000004900000570000003NN  NNW 000                       N    
RDG04733000WATRL000000004K00000000000006783004909032015071547N000000000000N91       002120400K 10000000010000006773           
CUS0473300000104128159003         DUNN ELIZABETH BARTO542 BROOK RD                            000N        CARE OF             
MTR04733000001000000000000000RA              26003163    005800500000005000000520000003NN  NNW 000                       N    
RDG04733000WATRL000000004K00000000000001996005009032015071623N000000000000N91       000360400K 10000000010000001990           
CUS0473300000104128160001         CHARLES WATTLES     540 BROOK RD                            000N        CARE OF             
MTR04733000001000000000000000RA              27814999    005800510000005100000520000003NN  NNW 000                       N    
RDG04733000WATRL000000004K00000000000002344005109032015071746N000000000000N91       000830400K 10000000010000002332           
CUS0473300000104128161009         SHEARIN WILLIAM H   538 BROOK RD                            000N        CARE OF             
MTR04733000001000000000000000RA              45381551    005800520000005200000520000003NN  NNW 000                       N    
RDG04733000WATRL000000004K00000000000002278005209032015071808N000000000000N91       000220400K 10000000010000002269           
CUS0473300000104128162007         CURRENS NANCY LEE   536 BROOK RD                            000N        CARE OF             
MTR04733000001000000000000000RA              11429154    005800530000005300000570000003NN  NNW 000                       N    
RDG04733000WATRL000000004K00000000000002325005309032015071850N000000000000N91       000420400K 10000000010000002321           
CUS0473300000104128163005         REED BETTY M        534 BROOK RD                            000N        CARE OF             
MTR04733000001000000000000000RA              44178319    005800540000005400000520000003NN  NNW 000                       N    
RDG04733000WATRL000000004K00000000000001506005409032015071935N000000000000N91       000450400K 10000000010000001500           
CUS0473300000104128164003         ARIO J HORTON       532 BROOK RD                            000N        CARE OF             
MTR04733000001000000000000000RA              45373167    005800550000005500000520000003NN  NNW 000                       N    
RDG04733000WATRL000000004K00000000000000999005509032015072003N000000000000N91       000280400K 10000000010000000990           
CUS0473300000104128165000         LANGRALL DENNIS W   530 BROOK RD                            000N        CARE OF             
MTR04733000001000000000000000RA              45381558    005800560000005600000520000003NN  NNW 000                       N    
RDG04733000WATRL000000004K00000000000003407005609032015072105N000000000000N91       000620400K 10000000010000003362           
CUS0473300000104128166008         BOYLE FRANK J       528 BROOK RD                            000N        CARE OF             
MTR04733000001000000000000000RA              26016669    005800570000005700000520000003NN  NNW 000                       N    
RDG04733000WATRL000000004K00000000000005159005709032015072207N000400000010N91       000620400K 10000000010000005155           
CUS0473300000104128167006         SAMUEL Q THARPE , JR526 BROOK RD                            000N        CARE OF             
MTR04733000001000000000000000RA              45381556    005800580000005800000520000003NN  NNW 000                       N    
RDG04733000WATRL000000004K00000000000002740005809032015072244N000000000000N91       000370400K 10000000010000002736           
CUS0473300000104128168004         BLAUVELT MATTHEW S  524 BROOK RD                            000N        CARE OF             
MTR04733000001000000000000000RA              11337162    005800590000005900000570000003NN  NNW 000                       N    
RDG04733000WATRL000000004K00000000000005548005909032015072318N000000000000N91       000340400K 10000000010000005532           
CUS0473300000104128169002         ROSE JOSEPH A       510 BROOK RD                            000N        CARE OF             
MTR04733000001000000000000000RA              33077054    005800600000006000000520000003NN  NNW 000                       N    
RDG04733000WATRL000000004K00000000000004057006209032015073059N000400000021N91       000210400K 10000000010000004043           
CUS0473300000104128170000         NATHALIE LABARRE    508 BROOK RD                            000N        CARE OF             
MTR04733000001000000000000000RA              14900339    005800610000006100000310000003NN  NNW 000                       N    
RDG04733000WATRL000000004K00000000000000751006309032015073151N000000000000N91       000520400K 10000000010000000740           
CUS0473300000104128171008         RYAN JORDAN         506 BROOK RD                            000N        CARE OF             
MTR04733000001000000000000000RA              45381316    005800620000006200000520000003NN  NNW 000                       N    
RDG04733000WATRL000000004K00000000000002245006409032015073219N000000000000N91       000280400K 10000000010000002217           
CUS0473300000104128172006         KUHN THOMAS D       504 BROOK RD                            000N        CARE OF             
MTR04733000001000000000000000RA              33077059    005800630000006300000520000003NN  NNW 000                       N    
RDG04733000WATRL000000004K00000000000002364006509032015073257N000300000010N91       000380400K 10000000010000002321           
CUS0473300000104128173004         HOLLAND TIMOTHY R   502 BROOK RD                            000N        CARE OF             
MTR04733000001000000000000000RA              00130018    005800640000006400000570000003NN  NNW 000                       N    
RDG04733000WATRL000000004K00000000000001456006609032015073332N000000000000N91       000350400K 10000000010000001428           
CUS0473300000104128174002         BELCHER GREGORY P   500 BROOK RD                            000N        CARE OF             
MTR04733000001000000000000000RA              46888653    005800650000006500000520000003NN  NNW 000                       N    
RDG04733000WATRL000000004K00000000000001867006709032015073406N000000000000N91       000340400K 10000000010000001848           
CUS0473300000104128175009         FADER WILLIAM A     416 BROOK RD                            000N        CARE OF             
MTR04733000001000000000000000RA              23055889    005800660000006600000520000003NN  NNW 000                       N    
RDG04733000WATRL000000004K00000000000002111006809032015073455N000400000010N91       000490400K 10000000010000002103           
CUS0473300000104128176007         NEIBERLINE MIRIAM H 414 BROOK RD                            000N        CARE OF             
MTR04733000001000000000000000RA              30521446    005800670000006700000520000003NN  NNW 000                       N    
RDG04733000WATRL000000004K00000000000003502006909032015073536N000000000000N91       000410400K 10000000010000003488           
CUS0473300000104128177005         SCALLEY KEVIN       412 BROOK RD                            000N        CARE OF             
MTR04733000001000000000000000RA              45381347    005800680000006800000520000003NN  NNW 000                       N    
RDG04733000WATRL000000004K00000000000001783007009032015073623N000000000000N91       000470400K 10000000010000001769           
CUS0473300000104128178003         MERIDA DIEGO C      102 OVERCREST RD                        000N        CARE OF             
MTR04733000001000000000000000RA              24226271    005800690000006900000520000003NN  NNW 000                       N    
RDG04733000WATRL000000004K00000000000003764007109032015073729N000400000010N91       000660400K 10000000010000003762           
CUS0473300000104128179001         DICKENSHEETS TODD   104 OVERCREST RD                        000N        CARE OF             
MTR04733000001000000000000000RA              44089803    005800700000007000000520000003NN  NNW 000                       N    
RDG04733000WATRL000000004K00000000000002338007209032015073809N000400000010N91       000400400K 10000000010000002330           
CUS0473300000104128180009         CWALINA ROBERT B    106 OVERCREST RD                        000N        CARE OF             
MTR04733000001000000000000000RA              75615745    005800710000007100000350000003NN  NNW 000                       N    
RDG04733000WATRL000000004K00000000000000098007309032015073845N000000000000N91       000360400K 10000000010000000087           
CUS0473300000104128181007         TESTONI ROBERT      108 OVERCREST RD                        000N        CARE OF             
MTR04733000001000000000000000RA              23644927    005800720000007200000520000003NN  NNW 000                       N    
RDG04733000WATRL000000004K00000000000005249007409032015073930N000000000000N91       000450400K 10000000010000005237           
CUS0473300000104128182005         MARTIN KAREN L      1307 STEVENSON LN                       000N        CARE OF             
MTR04733000001000000000000000RA              10013080    005800730000007300000570000003NN  NNW 000                       N    
RDG04733000WATRL000000004K00000000000000274007509032015074028N000000000000N91       000580400K 10000000010000000265           
CUS0473300000104128183003         ZHE LI503 LLC       503 OVERCREST RD                        000N        CARE OF             
MTR04733000001000000000000000RA              31580670    005800740000007400000520000003NN  NNW 000                       N    
RDG04733000WATRL000000004K00000000000002014007609032015074101N000000000000N91       000330400K 10000000010000001993           
CUS0473300000104128184001         GOURDIN BARBARA SI  505 OVERCREST RD                        000N        CARE OF             
MTR04733000001000000000000000RA              39925813    005800750000007500000520000003NN  NNW 000                       N    
RDG04733000WATRL000000004K00000000000001961007709032015074129N000000000000N91       000280400K 10000000010000001951           
CUS0473300000104128185008         GROENINGER GERARD T 507 OVERCREST RD                        000N        CARE OF             
MTR04733000001000000000000000RA              29402801    005800760000007600000520000003NN  NNW 000                       N    
RDG04733000WATRL000000004K00000000000002946007809032015074204N000400000010N91       000350400K 10000000010000002943           
CUS0473300000104128186006         BRENNAN GEORGETTE A 509 OVERCREST RD                        000N        CARE OF             
MTR04733000001000000000000000RA              45381584    005800770000007700000520000003NN  NNW 000                       N    
RDG04733000WATRL000000004K00000000000001643007909032015074236N000400000010N91       000320400K 10000000010000001638           
CUS0473300000104128187004         SCHULTZ JEFFREY C   511 OVERCREST RD                        000N        CARE OF             
MTR04733000001000000000000000RA              45381552    005800780000007800000520000003NN  NNW 000                       N    
RDG04733000WATRL000000004K00000000000000882008009032015074305N000000000000N91       000290400K 10000000010000000878           
CUS0473300000104128188002         CUNNINGHAM PAUL     513 OVERCREST RD                        000N        CARE OF             
MTR04733000001000000000000000RA              11337025    005800790000007900000570000003NN  NNW 000                       N    
RDG04733000WATRL000000004K00000000000005855008109032015074355N000000000000N91       000500400K 10000000010000005844           
CUS0473300000104128189000         COONS THOMAS W      516 OVERCREST RD                        000N        CARE OF             
MTR04733000001000000000000000RA              24758204    005800800000008000000520000003NN  NNW 000                       N    
RDG04733000WATRL000000004K00000000000004441006109032015072824N000000000000N91       001720400K 10000000010000004426           
CUS0473300000104128190008         RYAN J WEBER        514 OVERCREST RD                        000N        CARE OF             
MTR04733000001000000000000000RA              78005963    005800810000008100000360000003NN  NNW 000                       N    
RDG04733000WATRL000000004K00000000000000000008209032015074430S001000000000N91       000350400K 10000000010000000032           
CUS0473300000104128191006         TURNER RORY P B     512 OVERCREST RD                        000N        CARE OF             
MTR04733000001000000000000000RA              39925819    005800820000008200000520000003NN  NNW 000                       N    
RDG04733000WATRL000000004K00000000000003178008309032015074448N000000000000N91       000180400K 10000000010000003161           
CUS0473300000104128192004         CACHIA MYRIAM       510 OVERCREST RD                        000N        CARE OF             
MTR04733000001000000000000000RA              44175502    005800830000008300000520000003NN  NNW 000                       N    
RDG04733000WATRL000000004K00000000000001588008409032015074516N000000000000N91       000280400K 10000000010000001575           
CUS0473300000104128193002         PORTER STEPHEN W    508 OVERCREST RD                        000N        CARE OF             
MTR04733000001000000000000000RA              45381581    005800840000008400000520000003NN  NNW 000                       N    
RDG04733000WATRL000000004K00000000000002213008509032015074545N000000000000N91       000290400K 10000000010000002202           
CUS0473300000104128194000         LIST DONALD J       506 OVERCREST RD                        000N        CARE OF             
MTR04733000001000000000000000RA              48585656    005800850000008500000520000003NN  NNW 000                       N    
RDG04733000WATRL000000004K00000000000001914008609032015074616N000000000000N91       000310400K 10000000010000001893           
CUS0473300000104128195007         LIPPA TIMOTHY       504 OVERCREST RD                        000N        CARE OF             
MTR04733000001000000000000000RA              39925812    005800860000008600000520000003NN  NNW 000                       N    
RDG04733000WATRL000000004K00000000000003109008709032015074656N000000000000N91       000400400K 10000000010000003099           
CUS0473300000104128196005         BEAHN JOSEPH E      502 OVERCREST RD                        000N        CARE OF             
MTR04733000001000000000000000RA              26001124    005800870000008700000520000003NN  NNW 000                       N    
RDG04733000WATRL000000004K00000000000004071008809032015074714N000000000000N91       000180400K 10000000010000004036           
CUS0473300000104128197003         SLAYBAUGH HEATHER D 500 OVERCREST RD                        000N        CARE OF             
MTR04733000001000000000000000RA              00129675    005800880000008800000570000003NN  NNW 000                       N    
RDG04733000WATRL000000004K00000000000001732008909032015074818N000000000000N91       000640400K 10000000010000001724           
CUS0473300000104128198001         KATHLEEN REIF       501 HOLDEN RD                           000N        CARE OF             
MTR04733000001000000000000000RA              11330449    005800890000008900000570000003NN  NNW 000                       N    
RDG04733000WATRL000000004K00000000000003967009009032015075004N000300000010N91       001060400K 10000000010000003962           
CUS0473300000104128199009         VONDRASEK CLAUDIA   503 HOLDEN RD                           000N        CARE OF             
MTR04733000001000000000000000RA              40320612    005800900000009000000520000003NN  NNW 000                       N    
RDG04733000WATRL000000004K00000000000002007009109032015075032N000000000000N91       000280400K 10000000010000001998           
CUS0473300000104128200005         TANNAN PAWAN K      505 HOLDEN RD                           000N        CARE OF             
MTR04733000001000000000000000RA              26018317    005800910000009100000520000003NN  NNW 000                       N    
RDG04733000WATRL000000004K00000000000002368009209032015075113N000400000010N91       000410400K 10000000010000002366           
CUS0473300000104128201003         FAHDT FREDERICK E   507 HOLDEN RD                           000N        CARE OF             
MTR04733000001000000000000000RA              00130011    005800920000009200000570000003NN  NNW 000                       N    
RDG04733000WATRL000000004K00000000000001484009309032015075152N000000000000N91       000390400K 10000000010000001471           
CUS0473300000104128202001         MACK JENNIFER R     509 HOLDEN RD                           000N        CARE OF             
MTR04733000001000000000000000RA              50786648    005800930000009300000520000003NN  NNW 000                       N    
RDG04733000WATRL000000004K00000000000001351009409032015075231N000000000000N91       000390400K 10000000010000001338           
CUS0473300000104128203009         BALTIMORE ASSOCIATIO511 HOLDEN RD                           000N        CARE OF             
MTR04733000001000000000000000RA              14902277    005800940000009400000310000003NN  NNW 000                       N    
RDG04733000WATRL000000004K00000000000002004009509032015075326N000400000010N91       000550400K 10000000010000001998           
CUS0473300000104128204007         DILAURA THOMAS EDWIN513 HOLDEN RD                           000N        CARE OF             
MTR04733000001000000000000000RA              27820221    005800950000009500000520000003NN  NNW 000                       N    
RDG04733000WATRL000000004K00000000000004425009609032015075400N000000000000N91       000340400K 10000000010000004413           
CUS0473300000104128205004         DREYFUS BARBARA M   515 HOLDEN RD                           000N        CARE OF             
MTR04733000001000000000000000RA              00130016    005800960000009600000570000003NN  NNW 000                       N    
RDG04733000WATRL000000004K00000000000001161009709032015075455N000000000020N91       000550400K 10000000010000001142           
CUS0473300000104128206002         BETTY W KLARE       517 HOLDEN RD                           000N        CARE OF             
MTR04733000001000000000000000RA              00130012    005800970000009700000570000003NN  NNW 000                       N    
RDG04733000WATRL000000004K00000000000001598009809032015075540N000000000000N91       000450400K 10000000010000001580           
CUS0473300000104128207000         DOLAN DENIS P       519 HOLDEN RD                           000N        CARE OF             
MTR04733000001000000000000000RA              35108076    005800980000009800000520000003NN  NNW 000                       N    
RDG04733000WATRL000000004K00000000000003281009909032015075613N000000000000N91       000330400K 10000000010000003248           
CUS0473300000104128208008         STEPHENS JON E      521 HOLDEN RD                           000N        CARE OF             
MTR04733000001000000000000000RA              31580646    005800990000009900000520000003NN  NNW 000                       N    
RDG04733000WATRL000000004K00000000000001661006009032015072532N000000000000N91       001340400K 10000000010000001654           
CUS0473300000104128209006         LEE THELMA E        522 HOLDEN RD                           000N        CARE OF             
MTR04733000001000000000000000RA              99287691    005801000000010000000570000003NN  NNW 000                       N    
RDG04733000WATRL000000004K00000000000001194010009032015075725N000000000000N91       000720400K 10000000010000001178           
CUS0473300000104128210004         DAVLIN JOSHUA E     520 HOLDEN RD                           000N        CARE OF             
MTR04733000001000000000000000RA              00130014    005801010000010100000570000003NN  NNW 000                       N    
RDG04733000WATRL000000004K00000000000001798010109032015075752N000000000000N91       000270400K 10000000010000001779           
CUS0473300000104128211002         JACOBS DALLAS F,3RD 518 HOLDEN RD                           000N        CARE OF             
MTR04733000001000000000000000RA              35117393    005801020000010200000520000003NN  NNW 000                       N    
RDG04733000WATRL000000004K00000000000002530010209032015075832N000000000000N91       000400400K 10000000010000002524           
CUS0473300000104128212000         BROSSO MARY LOUISE  516 HOLDEN RD                           000N        CARE OF             
MTR04733000001000000000000000RA              14911774    005801030000010300000310000003NN  NNW 000                       N    
RDG04733000WATRL000000004K00000000000000300010309032015075906N000000000000N91       000340400K 10000000010000000284           
CUS0473300000104128213008         REICHEL MICHAEL E   514 HOLDEN RD                           000N        CARE OF             
MTR04733000001000000000000000RA              40781331    005801040000010400000520000003NN  NNW 000                       N    
RDG04733000WATRL000000004K00000000000003738010409032015075935N000000000000N91       000290400K 10000000010000003735           
CUS0473300000104128214006         CATALANA ROSEMARY   512 HOLDEN RD                           000N        CARE OF             
MTR04733000001000000000000000RA              35098903    005801050000010500000520000003NN  NNW 000                       N    
RDG04733000WATRL000000004K00000000000001366010509032015080017N000000000010N91       000420400K 10000000010000001358           
CUS0473300000104128215003         KING-WHITE RYAN     510 HOLDEN RD                           000N        CARE OF             
MTR04733000001000000000000000RA              26013810    005801060000010600000520000003NN  NNW 000                       N    
RDG04733000WATRL000000004K00000000000002039010609032015080113N000400000010N91       000560400K 10000000010000002029           
CUS0473300000104128216001         BEARMAN ANN M       508 HOLDEN RD                           000N        CARE OF             
MTR04733000001000000000000000RA              00130015    005801070000010700000570000003NN  NNW 000                       N    
RDG04733000WATRL000000004K00000000000000728010709032015080150N000000000010N91       000370400K 10000000010000000727           
CUS0473300000104128217009         JONES THEODORE S    506 HOLDEN RD                           000N        CARE OF             
MTR04733000001000000000000000RA              52768464    005801080000010800000520000003NN  NNW 000                       N    
RDG04733000WATRL000000004K00000000000001642010809032015080219N000000000000N91       000290400K 10000000010000001621           
CUS0473300000104128218007         MARYLAND REO REALTY 504 HOLDEN RD                           000N        CARE OF             
MTR04733000001000000000000000RA              10021392    005801090000010900000570000003NN  NNW 000                       N    
RDG04733000WATRL000000004K00000000000000220010909032015080235N000000000000N91       000160400K 10000000010000000220           
CUS0473300000104128219005         HEINZ E ROPERS      502 HOLDEN RD                           000N        CARE OF             
MTR04733000001000000000000000RA              00129730    005801100000011000000570000003NN  NNW 000                       N    
RDG04733000WATRL000000004K00000000000001057011009032015080317N000300000010N91       000420400K 10000000010000001058           
CUS0473300000104128220003         REZEK LUCINDA A     1401 STEVENSON LN                       000N        CARE OF             
MTR04733000001000000000000000RA              44087072    005801110000011100000520000003NN  NNW 000                       N    
RDG04733000WATRL000000004K00000000000001853011109032015080408N000000000010N91       000510400K 10000000010000001819           
CUS0473300000104128221001         TALWAR VIKRAM       1403 STEVENSON LN                       000N        CARE OF             
MTR04733000001000000000000000RA              14912518    005801120000011200000310000003NN  NNW 000                       N    
RDG04733000WATRL000000004K00000000000001135011209032015080539N000000000000N91       000910400K 10000000010000001112           
CUS0473300000104128222009         GERDING JOHN J      115 OVERCREST RD                        000N        CARE OF             
MTR04733000001000000000000000RA              33080701    005801130000011300000520000003NN  NNW 000                       N    
RDG04733000WATRL000000004K00000000000002406015409032015083740N000000000010N91       000890400K 10000000010000002390           
CUS0473300000104128223007         STALTER J LYLE      113 OVERCREST RD                        000N        CARE OF             
MTR04733000001000000000000000RA              39925809    005801140000011400000520000003NN  NNW 000                       N    
RDG04733000WATRL000000004K00000000000002106015509032015083756N000000000020N91       000160400K 10000000010000002086           
CUS0473300000104128224005         HANDLER ROANNE      111 OVERCREST RD                        000N        CARE OF             
MTR04733000001000000000000000RA              45384763    005801150000011500000520000003NN  NNW 000                       N    
RDG04733000WATRL000000004K00000000000001993015609032015083803N000000000010N91       000070400K 10000000010000001977           
CUS0473300000104128225002         COLLINS SAMUEL L    109 OVERCREST RD                        000N        CARE OF             
MTR04733000001000000000000000RA              29682325    005801160000011600000520000003NN  NNW 000                       N    
RDG04733000WATRL000000004K00000000000003526015709032015083809N000000000000N91       000060400K 10000000010000003514           
CUS0473300000104128226000         SEWARD ALBERT B     107 OVERCREST RD                        000N        CARE OF             
MTR04733000001000000000000000RA              48585706    005801170000011700000520000003NN  NNW 000                       N    
RDG04733000WATRL000000004K00000000000000989015809032015083817N000000000000N91       000080400K 10000000010000000978           
CUS0473300000104128227008         FRITSCHE EDGAR CHARL105 OVERCREST RD                        000N        CARE OF             
MTR04733000001000000000000000RA              40320583    005801180000011800000520000003NN  NNW 000                       N    
RDG04733000WATRL000000004K00000000000002249015909032015083821N000000000000N91       000040400K 10000000010000002235           
CUS0473300000104128228006         VOCCI CHRISTOPHER G 103 OVERCREST RD                        000N        CARE OF             
MTR04733000001000000000000000RA              52289661    005801190000011900000520000003NN  NNW 000                       N    
RDG04733000WATRL000000004K00000000000000882016009032015083853N000000000051N91       000200400K 10000000010000000860           
CUS0473300000104128229004         SEIDL RONALD G      400 BROOK RD                            000N        CARE OF             
MTR04733000001000000000000000RA              00130124    005801200000012000000570000003NN  NNW 000                       N    
RDG04733000WATRL000000004K00000000000001999016109032015083909N000000000030N91       000160400K 10000000010000001973           
CUS0473300000104128230002         MURTHY SANKARSHAN NA401 BROOK RD                            000N        CARE OF             
MTR04733000001000000000000000RA              30516845    005801210000012100000520000003NN  NNW 000                       N    
RDG04733000WATRL000000004K00000000000002779016209032015083920N000000000000N91       000110400K 10000000010000002770           
CUS0473300000104128231000         HOKE EDWIN R        403 BROOK RD                            000N        CARE OF             
MTR04733000001000000000000000RA              32573569    005801220000012200000520000003NN  NNW 000                       N    
RDG04733000WATRL000000004K00000000000002823016309032015083923N000000000000N91       000030400K 10000000010000002812           
CUS0473300000104128232008         MAY KENNETH M       405 BROOK RD                            000N        CARE OF             
MTR04733000001000000000000000RA              24220729    005801230000012300000520000003NN  NNW 000                       N    
RDG04733000WATRL000000004K00000000000004436016409032015083929N000000000000N91       000060400K 10000000010000004423           
CUS0473300000104128233006         MCCOLLOCH MARK D    407 BROOK RD                            000N        CARE OF             
MTR04733000001000000000000000RA              48592457    005801240000012400000520000003NN  NNW 000                       N    
RDG04733000WATRL000000004K00000000000001829016509032015083933N000000000000N91       000040400K 10000000010000001817           
CUS0473300000104128234004         HARRIS JOHN L       409 BROOK RD                            000N        CARE OF             
MTR04733000001000000000000000RA              39584009    005801250000012500000520000003NN  NNW 000                       N    
RDG04733000WATRL000000004K00000000000001275016609032015083954N000000000040N91       000210400K 10000000010000001272           
CUS0473300000104128235001         LEVIS MATTHEW       411 BROOK RD                            000N        CARE OF             
MTR04733000001000000000000000RA              33077200    005801260000012600000520000003NN  NNW 000                       N    
RDG04733000WATRL000000004K00000000000002220016709032015084007N000000000040N91       000130400K 10000000010000002203           
CUS0473300000104128236009         SMITH ERVIN S       413 BROOK RD                            000N        CARE OF             
MTR04733000001000000000000000RA              27832066    005801270000012700000520000003NN  NNW 000                       N    
RDG04733000WATRL000000004K00000000000002412016809032015084014N000000000000N91       000070400K 10000000010000002402           
CUS0473300000104128237007         MARY S HORROM       415 BROOK RD                            000N        CARE OF             
MTR04733000001000000000000000RA              38983275    005801280000012800000520000003NN  NNW 000                       N    
RDG04733000WATRL000000004K00000000000001815016909032015084017N000000000000N91       000030400K 10000000010000001801           
CUS0473300000104128238005         CECILIA W MURPHY REV417 BROOK RD                            000N        CARE OF             
MTR04733000001000000000000000RA              11328233    005801290000012900000570000003NN  NNW 000                       N    
RDG04733000WATRL000000004K00000000000002663017009032015084020N000000000000N91       000030400K 10000000010000002652           
CUS0473300000104128239003         EARLY RICHARD  EARLY420 HILLEN RD                           000N        CARE OF             
MTR04733000001000000000000000RA              30513511    005801300000013000000520000003NN  NNW 000                       N    
RDG04733000WATRL000000004K00000000000002463017109032015084023N000000000000N91       000030400K 10000000010000002455           
CUS0473300000104128240001         GEISS GARY A        418 HILLEN RD                           000N        CARE OF             
MTR04733000001000000000000000RA              01093276    005801310000013100000610000003NN  NNW 000                       N    
RDG04733000WATRL000000004K00000000000001146017209032015084026N000000000000N91       000030400K 10000000010000001134           
CUS0473300000104128241009         DANIEL A FISHER     416 HILLEN RD                           000N        CARE OF             
MTR04733000001000000000000000RA              01093274    005801320000013200000610000003NN  NNW 000                       N    
RDG04733000WATRL000000004K00000000000000496017309032015084030N000000000000N91       000040400K 10000000010000000485           
CUS0473300000104128242007         RAVITA PHILIP M     412 HILLEN RD                           000N        CARE OF             
MTR04733000001000000000000000RA              26015787    005801330000013300000520000003NN  NNW 000                       N    
RDG04733000WATRL000000004K00000000000003625017409032015084033N000000000000N91       000030400K 10000000010000003612           
CUS0473300000104128243005         CONTICELLO BRUNO L  410 HILLEN RD                           000N        CARE OF             
MTR04733000001000000000000000RA              35099600    005801340000013400000520000003NN  NNW 000                       N    
RDG04733000WATRL000000004K00000000000004549017509032015084040N000000000010N91       000070400K 10000000010000004537           
CUS0473300000104128244003         ULLAH MOVI          408 HILLEN RD                           000N        CARE OF             
MTR04733000001000000000000000RA              32899238    005801350000013500000520000003NN  NNW 000                       N    
RDG04733000WATRL000000004K00000000000004410017609032015084046N000000000010N91       000060400K 10000000010000004392           
CUS0473300000104128245000         PARSONS DOLORES J   406 HILLEN RD                           000N        CARE OF             
MTR04733000001000000000000000RA              39289903    005801360000013600000520000003NN  NNW 000                       N    
RDG04733000WATRL000000004K00000000000002515017709032015084123N000000000081N91       000090400K 10000000010000002515           
CUS0473300000104128246008         GORDON STEVEN J     404 HILLEN RD                           000N        CARE OF             
MTR04733000001000000000000000RA              52768492    005801370000013700000520000003NN  NNW 000                       N    
RDG04733000WATRL000000004K00000000000001181017809032015084134N000000000030N91       000110400K 10000000010000001162           
CUS0473300000104128247006         CHOI YOUNG          402 HILLEN RD                           000N        CARE OF             
MTR04733000001000000000000000RA              41074617    005801380000013800000520000003NN  NNW 000                       N    
RDG04733000WATRL000000004K00000000000001759017909032015084136N000000000000N91       000020400K 10000000010000001747           
CUS0473300000104128248004         CURTIS R WRGHT      400 HILLEN RD                           000N        CARE OF             
MTR04733000001000000000000000RA              48592447    005801390000013900000520000003NN  NNW 000                       N    
RDG04733000WATRL000000004K00000000000001289018009032015084140N000000000000N91       000040400K 10000000010000001281           
CUS0473300000104128249002         LESLIE JAMES F      2 GREENBRIER RD                         000N        CARE OF             
MTR04733000001000000000000000RA              48594118    005801400000014000000520000003NN  NNW 000                       N    
RDG04733000WATRL000000004K00000000000001289018109032015084146N000000000000N91       000060400K 10000000010000001280           
CUS0473300000104128250000         SANN DAVID G        4 GREENBRIER RD                         000N        CARE OF             
MTR04733000001000000000000000RA              44089126    005801410000014100000520000003NN  NNW 000                       N    
RDG04733000WATRL000000004K00000000000002363018209032015084149N000000000000N91       000030400K 10000000010000002353           
CUS0473300000104128251008         BEHR ROBERT S       100 GREENBRIER RD                       000N        CARE OF             
MTR04733000001000000000000000RA              26005871    005801420000014200000520000003NN  NNW 000                       N    
RDG04733000WATRL000000004K00000000000003841018309032015084153N000000000000N91       000040400K 10000000010000003822           
CUS0473300000104128252006         CONROY VINCENT M    102 GREENBRIER RD                       000N        CARE OF             
MTR04733000001000000000000000RA              26009997    005801430000014300000520000003NN  NNW 000                       N    
RDG04733000WATRL000000004K00000000000003131018409032015084157N000000000000N91       000040400K 10000000010000003120           
CUS0473300000104128253004         PROPERTY ACQ 46 LLC 104 GREENBRIER RD                       000N        CARE OF             
MTR04733000001000000000000000RA              14915048    005801440000014400000310000003NN  NNW 000                       N    
RDG04733000WATRL000000004K00000000000000389018509032015084201N000000000000N91       000040400K 10000000010000000381           
CUS0473300000104128254002         MEEKS DAVID S       106 GREENBRIER RD                       000N        CARE OF             
MTR04733000001000000000000000RA              14915045    005801450000014500000310000003NN  NNW 000                       N    
RDG04733000WATRL000000004K00000000000001163018609032015084229N000000000080N91       000280400K 10000000010000001135           
CUS0473300000104128255009         DESOCIO ROBERT      108 GREENBRIER RD                       000N        CARE OF             
MTR04733000001000000000000000RA              52768425    005801460000014600000520000003NN  NNW 000                       N    
RDG04733000WATRL000000004K00000000000001088018709032015084234N000000000000N91       000050400K 10000000010000001075           
CUS0473300000104128256007         MACKENZIE BRUCE D   110 GREENBRIER RD                       000N        CARE OF             
MTR04733000001000000000000000RA              14915180    005801470000014700000310000003NN  NNW 000                       N    
RDG04733000WATRL000000004K00000000000000363018809032015084240N000000000000N91       000060400K 10000000010000000351           
CUS0473300000104128257005         BENGUR MARTHA S     112 GREENBRIER RD                       000N        CARE OF             
MTR04733000001000000000000000RA              14915181    005801480000014800000310000003NN  NNW 000                       N    
RDG04733000WATRL000000004K00000000000000444018909032015084243N000000000000N91       000030400K 10000000010000000436           
CUS0473300000104128258003         BRETT SMITH         114 GREENBRIER RD                       000N        CARE OF             
MTR04733000001000000000000000RA              24757890    005801490000014900000520000003NN  NNW 000                       N    
RDG04733000WATRL000000004K00000000000003842019009032015084247N000000000000N91       000040400K 10000000010000003831           
CUS0473300000104128259001         COLIMORE SCOTT A    116 GREENBRIER RD                       000N        CARE OF             
MTR04733000001000000000000000RA              99189435    005801500000015000000570000003NN  NNW 000                       N    
RDG04733000WATRL000000004K00000000000001331019109032015084253N000000000010N91       000060400K 10000000010000001319           
CUS0473300000104128260009         STRINGER HARRY PATRI120 GREENBRIER RD                       000N        CARE OF             
MTR04733000001000000000000000RA              14915046    005801510000015100000310000003NN  NNW 000                       N    
RDG04733000WATRL000000004K00000000000000821019209032015084257N000000000000N91       000040400K 10000000010000000806           
CUS0473300000104128261007         INFUSSI RAYMOND V,II122 GREENBRIER RD                       000N        CARE OF             
MTR04733000001000000000000000RA              35106262    005801520000015200000520000003NN  NNW 000                       N    
RDG04733000WATRL000000004K00000000000003853019309032015084303N000000000010N91       000060400K 10000000010000003839           
CUS0473300000104128262005         HOLLAND STEPHEN A   1405 STEVENSON LN                       000N        CARE OF             
MTR04733000001000000000000000RA              35099608    005801530000015300000520000003NN  NNW 000                       N    
RDG04733000WATRL000000004K00000000000005571011309032015080641N000000000000N91       000620400K 10000000010000005542           
CUS0473300000104128263003         ROGERS DONALD F,JR  123 GREENBRIER RD                       000N        CARE OF             
MTR04733000001000000000000000RA              14929606    005801540000015400000310000003NN  NNW 000                       N    
RDG04733000WATRL000000004K00000000000000934011409032015080805N000000000000N91       000840400K 10000000010000000898           
CUS0473300000104128264001         WILLIAM REICHEL     121 GREENBRIER RD                       000N        CARE OF             
MTR04733000001000000000000000RA              99286208    005801550000015500000570000003NN  NNW 000                       N    
RDG04733000WATRL000000004K00000000000001486011509032015080902N000000000000N91       000570400K 10000000010000001444           
CUS0473300000104128265008         PECK HENRY B,JR     119 GREENBRIER RD                       000N        CARE OF             
MTR04733000001000000000000000RA              14915049    005801560000015600000310000003NN  NNW 000                       N    
RDG04733000WATRL000000004K00000000000000782011609032015080940N000000000000N91       000380400K 10000000010000000766           
CUS0473300000104128266006         ANDREW JAMES L      115 GREENBRIER RD                       000N        CARE OF             
MTR04733000001000000000000000RA              14915179    005801570000015700000310000003NN  NNW 000                       N    
RDG04733000WATRL000000004K00000000000000673011709032015081020N000000000000N91       000400400K 10000000010000000661           
CUS0473300000104128267004         FINLEY MARK J       113 GREENBRIER RD                       000N        CARE OF             
MTR04733000001000000000000000RA              14915177    005801580000015800000310000003NN  NNW 000                       N    
RDG04733000WATRL000000004K00000000000000670011809032015081112N000000000000N91       000520400K 10000000010000000661           
CUS0473300000104128268002         NOAH HAHN           111 GREENBRIER RD                       000N        CARE OF             
MTR04733000001000000000000000RA              14915178    005801590000015900000310000003NN  NNW 000                       N    
RDG04733000WATRL000000004K00000000000000941011909032015081157N000000000000N91       000450400K 10000000010000000927           
CUS0473300000104128269000         ELLEN KAY HOCHMAN   109 GREENBRIER RD                       000N        CARE OF             
MTR04733000001000000000000000RA              14915182    005801600000016000000310000003NN  NNW 000                       N    
RDG04733000WATRL000000004K00000000000000646012009032015081208N000000000000N91       000110400K 10000000010000000642           
CUS0473300000104128270008         REDONDO AMY J       107 GREENBRIER RD                       000N        CARE OF             
MTR04733000001000000000000000RA              14915047    005801610000016100000310000003NN  NNW 000                       N    
RDG04733000WATRL000000004K00000000000000645012109032015081251N000000000000N91       000430400K 10000000010000000634           
CUS0473300000104128271006         JAY DAVIS           105 GREENBRIER RD                       000N        CARE OF             
MTR04733000001000000000000000RA              75615992    005801620000016200000350000003NN  NNW 000                       N    
RDG04733000WATRL000000004K00000000000000155012209032015081337N000400000010N91       000460400K 10000000010000000125           
CUS0473300000104128272004         CASTALDI MICHAEL R  103 GREENBRIER RD                       000N        CARE OF             
MTR04733000001000000000000000RA              27820254    005801630000016300000520000003NN  NNW 000                       N    
RDG04733000WATRL000000004K00000000000004147012309032015081408N000000000000N91       000310400K 10000000010000004140           
CUS0473300000104128273002         SHAW JOVELINA M     101 GREENBRIER RD                       000N        CARE OF             
MTR04733000001000000000000000RA              44086665    005801640000016400000520000003NN  NNW 000                       N    
RDG04733000WATRL000000004K00000000000001801012409032015081453N000000000000N91       000450400K 10000000010000001794           
CUS0473300000104128274000         ERICA L WISNER      310 BROOK RD                            000N        CARE OF             
MTR04733000001000000000000000RA              39289862    005801650000016500000520000003NN  NNW 000                       N    
RDG04733000WATRL000000004K00000000000001199012509032015081546N000000000000N91       000530400K 10000000010000001192           
CUS0473300000104128275007         TALBOTT CATHERINE A 308 BROOK RD                            000N        CARE OF             
MTR04733000001000000000000000RA              33079275    005801660000016600000520000003NN  NNW 000                       N    
RDG04733000WATRL000000004K00000000000002848012609032015081614N000000000000N91       000280400K 10000000010000002836           
CUS0473300000104128276005         MARIANI J RICHARD   306 BROOK RD                            000N        CARE OF             
MTR04733000001000000000000000RA              00130085    005801670000016700000570000003NN  NNW 000                       N    
RDG04733000WATRL000000004K00000000000001138012709032015081651N000000000000N91       000370400K 10000000010000001132           
CUS0473300000104128277003         TEGLER HORTENSE B   304 BROOK RD                            000N        CARE OF             
MTR04733000001000000000000000RA              14900550    005801680000016800000310000003NN  NNW 000                       N    
RDG04733000WATRL000000004K00000000000000543012809032015081741N000000000000N91       000500400K 10000000010000000534           
CUS0473300000104128278001         SANDROCK PAUL W,TRUS302 BROOK RD                            000N        CARE OF             
MTR04733000001000000000000000RA              48583922    005801690000016900000520000003NN  NNW 000                       N    
RDG04733000WATRL000000004K00000000000001142012909032015081811N000000000000N91       000300400K 10000000010000001137           
CUS0473300000104128279009         MARTIN EDWIN C      300 BROOK RD                            000N        CARE OF             
MTR04733000001000000000000000RA              36690940    005801700000017000000520000003NN  NNW 000                       N    
RDG04733000WATRL000000004K00000000000001423013009032015081846N000300000010N91       000350400K 10000000010000001450           
CUS0473300000104128280007         MARTINEZ MONICA J   301 LINDEN AVE                          000N        CARE OF             
MTR04733000001000000000000000RA              27830503    005801710000017100000520000003NN  NNW 000                       N    
RDG04733000WATRL000000004K00000000000004804013109032015082121N000000000000N91       001550400K 10000000010000004790           
CUS0473300000104128281005         ELIZABETH GRIFFITH  303 LINDEN AVE                          000N        CARE OF             
MTR04733000001000000000000000RA              30525000    005801720000017200000520000003NN  NNW 000                       N    
RDG04733000WATRL000000004K00000000000001900013209032015082203N000000000000N91       000420400K 10000000010000001891           
CUS0473300000104128282003         RANADIVE AJIT V     305 LINDEN AVE                          000N        CARE OF             
MTR04733000001000000000000000RA              23644453    005801730000017300000520000003NN  NNW 000                       N    
RDG04733000WATRL000000004K00000000000003428013309032015082209N000000000000N91       000060400K 10000000010000003413           
CUS0473300000104128283001         HARVILL JAMES W     307 LINDEN AVE                          000N        CARE OF             
MTR04733000001000000000000000RA              46880824    005801740000017400000520000003NN  NNW 000                       N    
RDG04733000WATRL000000004K00000000000001226013409032015082237N000000000000N91       000280400K 10000000010000001215           
CUS0473300000104128284009         BALDWIN EDWARD A    309 LINDEN AVE                          000N        CARE OF             
MTR04733000001000000000000000RA              38983284    005801750000017500000520000003NN  NNW 000                       N    
RDG04733000WATRL000000004K00000000000004150013509032015082314N000000000000N91       000370400K 10000000010000004137           
CUS0473300000104128285006         GATZKE RODNEY A     311 LINDEN AVE                          000N        CARE OF             
MTR04733000001000000000000000RA              35115726    005801760000017600000520000003NN  NNW 000                       N    
RDG04733000WATRL000000004K00000000000003558013609032015082349N000000000000N91       000350400K 10000000010000003540           
CUS0473300000104128286004         COOK BRADLEY S      313 LINDEN AVE                          000N        CARE OF             
MTR04733000001000000000000000RA              46888787    005801770000017700000520000003NN  NNW 000                       N    
RDG04733000WATRL000000004K00000000000001827013709032015082414N000000000000N91       000250400K 10000000010000001823           
CUS0473300000104128287002         JAROSINSKI GEORGE SI314 LINDEN AVE                          000N        CARE OF             
MTR04733000001000000000000000RA              00130020    005801780000017800000570000003NN  NNW 000                       N    
RDG04733000WATRL000000004K00000000000002700013809032015082516N000000000000N91       000620400K 10000000010000002628           
CUS0473300000104128288000         MORMILE ETTORE W    312 LINDEN AVE                          000N        CARE OF             
MTR04733000001000000000000000RA              40781609    005801790000017900000520000003NN  NNW 000                       N    
RDG04733000WATRL000000004K00000000000001378013909032015082538N000000000000N91       000220400K 10000000010000001363           
CUS0473300000104128289008         MCKENNA JOHN B      310 LINDEN AVE                          000N        CARE OF             
MTR04733000001000000000000000RA              46888638    005801800000018000000520000003NN  NNW 000                       N    
RDG04733000WATRL000000004K00000000000001288014009032015082605N000400000010N91       000270400K 10000000010000001285           
CUS0473300000104128290006         WEISHEIT HUNTER M   308 LINDEN AVE                          000N        CARE OF             
MTR04733000001000000000000000RA              46888641    005801810000018100000520000003NN  NNW 000                       N    
RDG04733000WATRL000000004K00000000000001455014109032015082637N000400000010N91       000320400K 10000000010000001450           
CUS0473300000104128291004         TALBOTT CHARLES F   306 LINDEN AVE                          000N        CARE OF             
MTR04733000001000000000000000RA              00130087    005801820000018200000570000003NN  NNW 000                       N    
RDG04733000WATRL000000004K00000000000000949014209032015082719N000000000000N91       000420400K 10000000010000000942           
CUS0473300000104128292002         BAKER LYNN D        304 LINDEN AVE                          000N        CARE OF             
MTR04733000001000000000000000RA              27214180    005801830000018300000520000003NN  NNW 000                       N    
RDG04733000WATRL000000004K00000000000002391014309032015082756N000300000010N91       000370400K 10000000010000002383           
CUS0473300000104128293000         DODDO MICHAEL F     302 LINDEN AVE                          000N        CARE OF             
MTR04733000001000000000000000RA              00130086    005801840000018400000570000003NN  NNW 000                       N    
RDG04733000WATRL000000004K00000000000000976014409032015082837N000000000000N91       000410400K 10000000010000000956           
CUS0473300000104128294008         KURUPPACHERRIL ANTON300 LINDEN AVE                          000N        CARE OF             
MTR04733000001000000000000000RA              40320407    005801850000018500000520000003NN  NNW 000                       N    
RDG04733000WATRL000000004K00000000000002290014509032015082904N000000000000N91       000270400K 10000000010000002281           
CUS0473300000104128295005         BATTENFELD RODNEY S 301 BROOK RD                            000N        CARE OF             
MTR04733000001000000000000000RA              14900546    005801860000018600000310000003NN  NNW 000                       N    
RDG04733000WATRL000000004K00000000000001040014609032015083055N000000000000N91       001110400K 10000000010000001026           
CUS0473300000104128296003         ATABEK JENISE B     303 BROOK RD                            000N        CARE OF             
MTR04733000001000000000000000RA              19459568    005801870000018700000520000003NN  NNW 000                       N    
RDG04733000WATRL000000004K00000000000003498014709032015083133N000000000000N91       000380400K 10000000010000003489           
CUS0473300000104128297001         MCCORT BARBARA G D  305 BROOK RD                            000N        CARE OF             
MTR04733000001000000000000000RA              52769590    005801880000018800000520000003NN  NNW 000                       N    
RDG04733000WATRL000000004K00000000000000743014809032015083202N000000000000N91       000290400K 10000000010000000737           
CUS0473300000104128298009         PHILLIPS JAMES C,TRU307 BROOK RD                            000N        CARE OF             
MTR04733000001000000000000000RA              24757191    005801890000018900000520000003NN  NNW 000                       N    
RDG04733000WATRL000000004K00000000000004504014909032015083234N000000000000N91       000320400K 10000000010000004492           
CUS0473300000104128299007         VAN WINKLE DOUGLAS G9 GREENBRIER RD                         000N        CARE OF             
MTR04733000001000000000000000RA              75614457    005801900000019000000350000003NN  NNW 000                       N    
RDG04733000WATRL000000004K00000000000000041015009032015083347N000000000000N91       000730400K 10000000010000000038           
CUS0473300000104128300003         WESTERLUND JAMES EAR7 GREENBRIER RD                         000N        CARE OF             
MTR04733000001000000000000000RA              29402803    005801910000019100000520000003NN  NNW 000                       N    
RDG04733000WATRL000000004K00000000000002831015109032015083420N000000000000N91       000330400K 10000000010000002826           
CUS0473300000104128301001         YOUNG CATHY         5 GREENBRIER RD                         000N        CARE OF             
MTR04733000001000000000000000RA              48592456    005801920000019200000520000003NN  NNW 000                       N    
RDG04733000WATRL000000004K00000000000001549015209032015083504N000400000010N91       000440400K 10000000010000001544           
CUS0473300000104128302009         HASSELHOFF DEREK C  300 E BURKE AVE                         000N        CARE OF             
MTR04733000001000000000000000RA              30526044    007501930000019300000520000003NN  NNW 000                       N    
RDG04733000WATRL000000004K00000000000004390015309032015083611N000000000000N91       000670400K 10000000010000004371           
RTR04733000NN01930193000001930000000001930193000121NY019301930193000000010000000000000000000001    08172015NY020000 N         
RHD04803200NN02000200000002000000000002000200000236NY020002000200000600070000000000000000000001    09012015NY020000 N         
CUS0480320000104062348000         PEARCE JOSEPH E, SR 3213 PUTTY HILL AVE                     000N        CARE OF             
MTR04803200001000000000000000RA              40781100    005800010000000100000520000003NN  NNW 000                       N    
RDG04803200WATRL000000004K00000000000002131005109032015072812N000000000001N40       001400400K 10000000010000002119           
CUS0480320000104062349008         ONCENA FABIAN F     3215 PUTTY HILL AVE                     000N        CARE OF             
MTR04803200001000000000000000RA              01071147    005800020000000200000610000003NN  NNW 000                       N    
RDG04803200WATRL000000004K00000000000002157005209032015072843N000400000010N40       000310400K 10000000010000002125           
CUS0480320000104062350006         SILVERMAN NOAH      3217 PUTTY HILL AVE                     000N        CARE OF             
MTR04803200001000000000000000RA              48589053    005800030000000300000520000003NN  NNW 000                       N    
RDG04803200WATRL000000004K00000000000001482005309032015072940N000000000000N40       000570400K 10000000010000001474           
CUS0480320000104062351004         CAMPBELL ROBIN C    3221 PUTTY HILL AVE                     000N        CARE OF             
MTR04803200001000000000000000RA              48589049    005800040000000400000520000003NN  NNW 000                       N    
RDG04803200WATRL000000004K00000000000002859005409032015073026N000000000000N40       000460400K 10000000010000002841           
CUS0480320000104062352002         JOHN W STAHL        3225 PUTTY HILL AVE                     000N        CARE OF             
MTR04803200001000000000000000RA              24759777    005800050000000500000520000003NN  NNW 000                       N    
RDG04803200WATRL000000004K00000000000002264005509032015073148N000000000000N40       000820400K 10000000010000002256           
CUS0480320000104062353000         JOHN PATRICK FREDERI3227 PUTTY HILL AVE                     000N        CARE OF             
MTR04803200001000000000000000RA              99290939    005800060000000600000570000003NN  NNW 000                       N    
RDG04803200WATRL000000004K00000000000001589005609032015073232N000000000000N40       000440400K 10000000010000001582           
CUS0480320000104062354008         SHAW DARIA M        8730 AVONDALE RD                        000N        CARE OF             
MTR04803200001000000000000000RA              50787298    005800070000000700000520000003NN  NNW 000                       N    
RDG04803200WATRL000000004K00000000000001778005709032015075651N000000000000N40       014590400K 10000000010000001764           
CUS0480320000104062355005         VARGO STACY         8728 AVONDALE RD                        000N        CARE OF             
MTR04803200001000000000000000RA              01083679    005800080000000800000610000003NN  NNW 000                       N    
RDG04803200WATRL000000004K00000000000000710005809032015075654N000000000000N40       000030400K 10000000010000000696           
CUS0480320000104062356003         HUMBERTSON PHILIP G 8726 AVONDALE RD                        000N        CARE OF             
MTR04803200001000000000000000RA              99287211    005800090000000900000570000003NN  NNW 000                       N    
RDG04803200WATRL000000004K00000000000000834005909032015075836N000400000010N40       001020400K 10000000010000000823           
CUS0480320000104062357001         ROZICS JAMES D      8724 AVONDALE RD                        000N        CARE OF             
MTR04803200001000000000000000RA              44174435    005800100000001000000520000003NN  NNW 000                       N    
RDG04803200WATRL000000004K00000000000001727007309032015081317N000400000010N40       000860400K 10000000010000001710           
CUS0480320000104062358009         WAGNER IRENE C      8722 AVONDALE RD                        000N        CARE OF             
MTR04803200001000000000000000RA              27829797    005800110000001100000520000003NN  NNW 000                       N    
RDG04803200WATRL000000004K00000000000002346006009032015080010N000000000000N40       000940400K 10000000010000002339           
CUS0480320000104062359007         MELOY MARTIN JAMES  8720 AVONDALE RD                        000N        CARE OF             
MTR04803200001000000000000000RA              10014879    005800120000001200000570000003NN  NNW 000                       N    
RDG04803200WATRL000000004K00000000000000205006109032015080032N000000000000N40       000220400K 10000000010000000197           
CUS0480320000104062360005         LISA PERKINS        8718 AVONDALE RD                        000N        CARE OF             
MTR04803200001000000000000000RA              01071189    005800130000001300000610000003NN  NNW 000                       N    
RDG04803200WATRL000000004K00000000000000517006209032015080128N000000000000N40       000560400K 10000000010000000499           
CUS0480320000104062361003         RIEFNER RICHARD E   8716 AVONDALE RD                        000N        CARE OF             
MTR04803200001000000000000000RA              01071188    005800140000001400000610000003NN  NNW 000                       N    
RDG04803200WATRL000000004K00000000000000783006309032015080131N000000000000N40       000030400K 10000000010000000770           
CUS0480320000104062362001         SIMMS LAURENCE C    8710 AVONDALE RD                        000N        CARE OF             
MTR04803200001000000000000000RA              24760542    005800150000001500000520000003NY  NNW 000                       N    
MTM0480320024760542    OCC                                                                                                    
RDG04803200WATRL000000004K00000000000002579006409032015080408N000300000010N40       001570400K 10000000010000002591           
CUS0480320000104062363009         MCJILTON ROBERT B   8708 AVONDALE RD                        000N        CARE OF             
MTR04803200001000000000000000RA              27825086    005800160000001600000520000003NN  NNW 000                       N    
RDG04803200WATRL000000004K00000000000002630006509032015080410N000000000000N40       000020400K 10000000010000002619           
CUS0480320000104062364007         VELEZ BALTASAR B    8706 AVONDALE RD                        000N        CARE OF             
MTR04803200001000000000000000RA              27819845    005800170000001700000520000003NN  NNW 000                       N    
RDG04803200WATRL000000004K00000000000004387006609032015080607N000000000000N40       001170400K 10000000010000004374           
CUS0480320000104062365004         SWEENEY MICHAEL J   8704 AVONDALE RD                        000N        CARE OF             
MTR04803200001000000000000000RA              27214063    005800180000001800000520000003NN  NNW 000                       N    
RDG04803200WATRL000000004K00000000000007891006709032015080610N000000000000N40       000030400K 10000000010000007873           
CUS0480320000104062366002         TUPIS HARRY W       8702 AVONDALE RD                        000N        CARE OF             
MTR04803200001000000000000000RA              40779247    005800190000001900000520000003NN  NNW 000                       N    
RDG04803200WATRL000000004K00000000000002120006809032015080726N000000000000N40       000760400K 10000000010000002113           
CUS0480320000104062367000         SIEVERS SUSAN C     8700 AVONDALE RD                        000N        CARE OF             
MTR04803200001000000000000000RA              99387734    005800200000002000000570000003NN  NNW 000                       N    
RDG04803200WATRL000000004K00000000000000815006909032015080731N000000000000N40       000050400K 10000000010000000806           
CUS0480320000104062368008         RICHARD A ROBINSON  8719 AVONDALE RD                        000N        CARE OF             
MTR04803200001000000000000000RA              01071187    005800210000002100000610000003NY  NNW 000                       N    
MTM0480320001071187    4 SALE                                                                                                 
RDG04803200WATRL000000004K00000000000000657007009032015081054N000400000010N40       002030400K 10000000010000000656           
CUS0480320000104062369006         YOX JOHN C          8721 AVONDALE RD                        000N        CARE OF             
MTR04803200001000000000000000RA              01071183    005800220000002200000610000003NN  NNW 000                       N    
RDG04803200WATRL000000004K00000000000000321007109032015081149N000000000000N40       000550400K 10000000010000000301           
CUS0480320000104062370004         DI FATTA SANTO      8723 AVONDALE RD                        000N        CARE OF             
MTR04803200001000000000000000RA              10023134    005800230000002300000570000003NN  NNW 000                       N    
RDG04803200WATRL000000004K00000000000000100007209032015081151N000000000000N40       000020400K 10000000010000000090           
CUS0480320000104062371002         DIFATTA SANTO       8725 AVONDALE RD                        000N        CARE OF             
MTR04803200001000000000000000RA              40781959    005800240000002400000520000003NN  NNW 000                       N    
RDG04803200WATRL000000004K00000000000001726007409032015081403N000000000000N40       000460400K 10000000010000001710           
CUS0480320000104062372000         CLEMONS RICHARD HENR8727 AVONDALE RD                        000N        CARE OF             
MTR04803200001000000000000000RA              40781962    005800250000002500000520000003NN  NNW 000                       N    
RDG04803200WATRL000000004K00000000000001765007509032015081406N000000000000N40       000030400K 10000000010000001745           
CUS0480320000104062373008         SCHMIDT GREGORY P   8729 AVONDALE RD                        000N        CARE OF             
MTR04803200001000000000000000RA              01071184    005800260000002600000610000003NN  NNW 000                       N    
RDG04803200WATRL000000004K00000000000000748007609032015081453N000000000000N40       000470400K 10000000010000000730           
CUS0480320000104062374006         PHILPOT DONALD R    8731 AVONDALE RD                        000N        CARE OF             
MTR04803200001000000000000000RA              01071146    005800270000002700000610000003NN  NNW 000                       N    
RDG04803200WATRL000000004K00000000000001018007709032015081455N000000000000N40       000020400K 10000000010000001005           
CUS0480320000104062375003         FROELICH GRACE      3303 PUTTY HILL AVE                     000N        CARE OF             
MTR04803200001000000000000000RA              01095314    005800280000002800000610000003NY  NNW 000                       N    
MTM0480320001095314    CLEAN OUT VAULT                                                                                        
RDG04803200WATRL000000004K00000000000000000000000000000000000 000000000000U         000000400  10000000010000001955           
CUS0480320000104062376001         ECHTERNACH ANTHONY  3307 PUTTY HILL AVE                     000N        CARE OF             
MTR04803200001000000000000000RA              01071145    005800290000002900000610000003NN  NNW 000                       N    
RDG04803200WATRL000000004K00000000000001151007809032015081918N000000000000N40       002630400K 10000000010000001137           
CUS0480320000104062377009         BEST CALVIN         3309 PUTTY HILL AVE                     000N        CARE OF             
MTR04803200001000000000000000RA              76344940    005800300000003000000350000003NN  NNW 000                       N    
RDG04803200WATRL000000004K00000000000000181007909032015082159N000000000000N40       001610400K 10000000010000000162           
CUS0480320000104062378007         JUSTINE SHANNON     3311 PUTTY HILL AVE                     000N        CARE OF             
MTR04803200001000000000000000RA              14921994    005800310000003100000310000003NN  NNW 000                       N    
RDG04803200WATRL000000004K00000000000000472008009032015082230N000000000000N40       000310400K 10000000010000000457           
CUS0480320000104062379005         THRIST CHRISTOPHER R3313 PUTTY HILL AVE                     000N        CARE OF             
MTR04803200001000000000000000RA              14905718    005800320000003200000310000003NN  NNW 000                       N    
RDG04803200WATRL000000004K00000000000001060008109032015082448N000000000000N40       001380400K 10000000010000001045           
CUS0480320000104062380003         CALDER DONALD H     3315 PUTTY HILL AVE                     000N        CARE OF             
MTR04803200001000000000000000RA              44003442    005800330000003300000520000003NN  NNW 000                       N    
RDG04803200WATRL000000004K00000000000001475008209032015082541N000000000000N40       000530400K 10000000010000001448           
CUS0480320000104062381001         JONES JULIANA J     3317 PUTTY HILL AVE                     000N        CARE OF             
MTR04803200001000000000000000RA              11336796    005800340000003400000570000003NN  NNW 000                       N    
RDG04803200WATRL000000004K00000000000003941008309032015082657N000000000000N40       000760400K 10000000010000003909           
CUS0480320000104062382009         SYPNIEWSKI JOSEPH   3319 PUTTY HILL AVE                     000N        CARE OF             
MTR04803200001000000000000000RA              01070368    005800350000003500000610000003NN  NNW 000                       N    
RDG04803200WATRL000000004K00000000000000556008409032015082816N000000000000N40       000790400K 10000000010000000544           
CUS0480320000104062383007         VAIL MICHAEL F      3321 PUTTY HILL AVE                     000N        CARE OF             
MTR04803200001000000000000000RA              14907558    005800360000003600000310000003NN  NNW 000                       N    
RDG04803200WATRL000000004K00000000000000851008509032015082957N000400000010N40       001010400K 10000000010000000833           
CUS0480320000104062384005         PFISTER CHAD M      3323 PUTTY HILL AVE                     000N        CARE OF             
MTR04803200001000000000000000RA              10020158    005800370000003700000570000003NN  NNW 000                       N    
RDG04803200WATRL000000004K00000000000000299008609032015083057N000000000000N40       000600400K 10000000010000000280           
CUS0480320000104062385002         BELL ALICE V        8722 WENDELL AVE                        000N        CARE OF             
MTR04803200001000000000000000RA              9684183     005800380000003800000570000003NN  NNW 000                       N    
RDG04803200WATRL000000004K00000000000004073009609032015084705N000000000000N40       004490400K 10000000010000004069           
CUS0480320000104062386000         CORBIN ROGER C      3314 DELPHA CT                          000N        CARE OF             
MTR04803200001000000000000000RA              27826840    005800390000003900000520000003NN  NNW 000                       N    
RDG04803200WATRL000000004K00000000000002725009709032015084838N000000000000N40       000930400K 10000000010000002718           
CUS0480320000104062387008         SHIPLEY LORRAINE C  3312 DELPHA CT                          000N        CARE OF             
MTR04803200001000000000000000RA              44087571    005800400000004000000520000003NN  NNW 000                       N    
RDG04803200WATRL000000004K00000000000001571009809032015084908N000000000000N40       000300400K 10000000010000001565           
CUS0480320000104062388006         FILIPIAK LORRAINE B 3310 DELPHA CT                          000N        CARE OF             
MTR04803200001000000000000000RA              44087566    005800410000004100000520000003NN  NNW 000                       N    
RDG04803200WATRL000000004K00000000000000900009909032015085001N000000000000N40       000530400K 10000000010000000892           
CUS0480320000104062389004         KUYAWA DANIEL A     3308 DELPHA CT                          000N        CARE OF             
MTR04803200001000000000000000RA              35119804    005800420000004200000520000003NN  NNW 000                       N    
RDG04803200WATRL000000004K00000000000002468010009032015085042N000000000000N40       000410400K 10000000010000002453           
CUS0480320000104062390002         MITCHELL JOHN C     3306 DELPHA CT                          000N        CARE OF             
MTR04803200001000000000000000RA              75618220    005800430000004300000350000003NN  NNW 000                       N    
RDG04803200WATRL000000004K00000000000000065010109032015085146N000000000000N40       000640400K 10000000010000000060           
CUS0480320000104062391000         MARINO CHRISTIAN    3304 DELPHA CT                          000N        CARE OF             
MTR04803200001000000000000000RA              33079788    005800440000004400000520000003NN  NNW 000                       N    
RDG04803200WATRL000000004K00000000000002807010209032015085259N000000000000N40       000730400K 10000000010000002784           
CUS0480320000104062392008         NACHODSKY FRANK J   3302 DELPHA CT                          000N        CARE OF             
MTR04803200001000000000000000RA              14902620    005800450000004500000310000003NN  NNW 000                       N    
RDG04803200WATRL000000004K00000000000001208010309032015085406N000000000000N40       000670400K 10000000010000001192           
CUS0480320000104062393006         PHILLIPS JACKIE LEE 3300 DELPHA CT                          000N        CARE OF             
MTR04803200001000000000000000RA              41081386    005800460000004600000520000003NN  NNW 000                       N    
RDG04803200WATRL000000004K00000000000002307010409032015085457N000000000000N40       000510400K 10000000010000002266           
CUS0480320000104062394004         FLEISHELL ROBERT A  3301 DELPHA CT                          000N        CARE OF             
MTR04803200001000000000000000RA              14923214    005800470000004700000310000003NN  NNW 000                       N    
RDG04803200WATRL000000004K00000000000000699010509032015085526N000000000000N40       000290400K 10000000010000000677           
CUS0480320000104062395001         ORTT RICHARD A      3303 DELPHA CT                          000N        CARE OF             
MTR04803200001000000000000000RA              9687892     005800480000004800000570000003NN  NNW 000                       N    
RDG04803200WATRL000000004K00000000000004108010609032015085549N000000000000N40       000230400K 10000000010000004095           
CUS0480320000104062396009         LOGAN CEDRIC G      3305 DELPHA CT                          000N        CARE OF             
MTR04803200001000000000000000RA              99286547    005800490000004900000570000003NN  NNW 000                       N    
RDG04803200WATRL000000004K00000000000001034010709032015085646N000000000000N40       000570400K 10000000010000001023           
CUS0480320000104062397007         VEGA RONALD         3307 DELPHA CT                          000N        CARE OF             
MTR04803200001000000000000000RA              10016245    005800500000005000000570000003NN  NNW 000                       N    
RDG04803200WATRL000000004K00000000000000451010809032015085753N000000000000N40       000670400K 10000000010000000433           
CUS0480320000104062398005         CUNNINGHAM DOROTHY R3309 DELPHA CT                          000N        CARE OF             
MTR04803200001000000000000000RA              9687899     005800510000005100000570000003NN  NNW 000                       N    
RDG04803200WATRL000000004K00000000000006038010909032015085846N000000000000N40       000530400K 10000000010000006038           
CUS0480320000104062399003         WEST LEROY M        3311 DELPHA CT                          000N        CARE OF             
MTR04803200001000000000000000RA              46887428    005800520000005200000520000003NN  NNW 000                       N    
RDG04803200WATRL000000004K00000000000001603011009032015085909N000000000000N40       000230400K 10000000010000001593           
CUS0480320000104062400009         BACON GEORGE COLE   3313 DELPHA CT                          000N        CARE OF             
MTR04803200001000000000000000RA              9687893     005800530000005300000570000003NN  NNW 000                       N    
RDG04803200WATRL000000004K00000000000003283011109032015085937N000000000000N40       000280400K 10000000010000003275           
CUS0480320000104062401007         CARTER TERRANCE T/PA3315 DELPHA CT                          000N        CARE OF             
MTR04803200001000000000000000RA              10005717    005800540000005400000570000003NN  NNW 000                       N    
RDG04803200WATRL000000004K00000000000000817011209032015090114N000000000000N40       000970400K 10000000010000000795           
CUS0480320000104062402005         JOLLEY EILEEN I     3317 DELPHA CT                          000N        CARE OF             
MTR04803200001000000000000000RA              30526691    005800550000005500000520000003NN  NNW 000                       N    
RDG04803200WATRL000000004K00000000000002320011309032015090147N000000000000N40       000330400K 10000000010000002315           
CUS0480320000104062403003         FARRELL MARY KATHLEE8720 WENDELL AVE                        000N        CARE OF             
MTR04803200001000000000000000RA              27814102    005800560000005600000520000003NN  NNW 000                       N    
RDG04803200WATRL000000004K00000000000003308011409032015090259N000000000000N40       000720400K 10000000010000003290           
CUS0480320000104062404001         MALCZEWSKI WALTER M 8718 WENDELL AVE                        000N        CARE OF             
MTR04803200001000000000000000RA              31582855    005800570000005700000520000003NN  NNW 000                       N    
RDG04803200WATRL000000004K00000000000001374011509032015090353N000000000000N40       000540400K 10000000010000001369           
CUS0480320000104062405008         GARMER LOUIS J      8716 WENDELL AVE                        000N        CARE OF             
MTR04803200001000000000000000RA              01070830    005800580000005800000610000003NN  NNW 000                       N    
RDG04803200WATRL000000004K00000000000001417011609032015090424N000000000000N40       000310400K 10000000010000001398           
CUS0480320000104062406006         TYSZKIEWICZ EDMUND L8714 WENDELL AVE                        000N        CARE OF             
MTR04803200001000000000000000RA              9686958     005800590000005900000570000003NN  NNW 000                       N    
RDG04803200WATRL000000004K00000000000004293011709032015090455N000000000010N40       000310400K 10000000010000004290           
CUS0480320000104062407004         DENNIS KENNETH MARSH8712 WENDELL AVE                        000N        CARE OF             
MTR04803200001000000000000000RA              10008456    005800600000006000000570000003NN  NNW 000                       N    
RDG04803200WATRL000000004K00000000000000344011809032015090534N000000000000N40       000390400K 10000000010000000325           
CUS0480320000104062408002         HENRY BLISCHE       8710 WENDELL AVE                        000N        CARE OF             
MTR04803200001000000000000000RA              75614863    005800610000006100000350000003NN  NNW 000                       N    
RDG04803200WATRL000000004K00000000000000168011909032015090617N000000000000N40       000430400K 10000000010000000150           
CUS0480320000104062409000         LINGNER GEORGE J    8708 WENDELL AVE                        000N        CARE OF             
MTR04803200001000000000000000RA              01113060    005800620000006200000610000003NN  NNW 000                       N    
RDG04803200WATRL000000004K00000000000000615012009032015090655N000000000000N40       000380400K 10000000010000000604           
CUS0480320000104062410008         STETTES CHRISTOPHER 8704 WENDELL AVE                        000N        CARE OF             
MTR04803200001000000000000000RA              10010792    005800630000006300000570000003NN  NNW 000                       N    
RDG04803200WATRL000000004K00000000000000492012109032015090802N000000000000N40       000670400K 10000000010000000472           
CUS0480320000104062411006         CUMMINGS JAMES KEITH8702 WENDELL AVE                        000N        CARE OF             
MTR04803200001000000000000000RA              39925852    005800640000006400000520000003NN  NNW 000                       N    
RDG04803200WATRL000000004K00000000000002640012209032015090905N000000000000N40       000630400K 10000000010000002625           
CUS0480320000104062412004         GEISENDAFFER RAYMOND8700 WENDELL AVE                        000N        CARE OF             
MTR04803200001000000000000000RA              9684036     005800650000006500000570000003NN  NNW 000                       N    
RDG04803200WATRL000000004K00000000000005053012309032015091000N000000000000N40       000550400K 10000000010000005034           
CUS0480320000104062413002         MORGAN RALPH J      8701 WENDELL AVE                        000N        CARE OF             
MTR04803200001000000000000000RA              10000985    005800660000006600000570000003NN  NNW 000                       N    
RDG04803200WATRL000000004K00000000000000336012409032015091039N000000000000N40       000390400K 10000000010000000318           
CUS0480320000104062414000         DILL HARRY L        8703 WENDELL AVE                        000N        CARE OF             
MTR04803200001000000000000000RA              48589055    005800670000006700000520000003NN  NNW 000                       N    
RDG04803200WATRL000000004K00000000000001410012509032015091107N000000000000N40       000280400K 10000000010000001402           
