FHDNNNN032007420007420007420N                                                                                           022661
RHD04913100NN02720272000002720000000002720272000374NY027202720272001100090000000000000000000001    08312015NY020000 N         
CUS0491310000104086176007         JOSEPH V EURICE     6302 EBENEZER RD                        000N        CARE OF             
MTR04913100001000000000000000RA              44086002    005800010000000100000520000003NY  NNW 000                       N    
MTM0491310044086002    COV                                                                                                    
RDG04913100WATRL000000004K00000000000005031025209012015121912N000000000050N45       000630400K 10000000010000005087           
CUS0491310000104086177005         THURMAN KATHLEEN    6300 EBENEZER RD                        000N        CARE OF             
MTR04913100001000000000000000RA              10011235    005800020000000200000570000003NN  NNW 000                       N    
RDG04913100WATRL000000004K00000000000000238000209012015070950N000000000000N45       001090400K 10000000010000000232           
CUS0491310000104086178003         EURICE DONALD JAMES 6250 EBENEZER RD                        000N        CARE OF             
MTR04913100001000000000000000RA              00121256    007500030000000300000570000003NN  NNW 000                       N    
RDG04913100WATRL000000004K00000000000000695000109012015070801N000000000000N45       000000400K 10000000010000000695           
CUS0491310000104086179001         PARLETT DONALD E    6234 EBENEZER RD                        000N        CARE OF             
MTR04913100001000000000000000RA              46882423    005800040000000400000520000003NN  NNW 000                       N    
RDG04913100WATRL000000004K00000000000001862000309012015071330N000000000000N45       002200400K 10000000010000001848           
CUS0491310000104086180009         BISHOP JOHN J,JR/DEL6224 EBENEZER RD                        000N        CARE OF             
MTR04913100001000000000000000RA              00138421    005800050000000500000570000003NN  NNW 000                       N    
RDG04913100WATRL000000004K00000000000001130000509012015071624N000000000000N45       001140400K 10000000010000001106           
CUS0491310000104086181007         PARLETT ROLAND RAYMA6228 EBENEZER RD                        000N        CARE OF             
MTR04913100001000000000000000RA              01097623    005800060000000600000610000003NN  NNW 000                       N    
RDG04913100WATRL000000004K00000000000000729000409012015071430N000000000000N45       000600400K 10000000010000000715           
CUS0491310000104086182005         VERIZON             6210 EBENEZER RD                        000N        CARE OF             
MTR04913100001000000000000000RA              41193291    007500070000000700000520000003NN  NNW 000                       N    
RDG04913100WATRL000000004K00000000000000659000609012015071719N000000000020N45       000550400K 10000000010000000699           
CUS0491310000104373597006         ANDRESS MICHAEL R   6208 EBENEZER RD                        000N        CARE OF             
MTR04913100001000000000000000RA              31585496    005800080000000800000520000003NN  NNW 000                       N    
RDG04913100WATRL000000004K00000000000005269000709012015071811N000300000010N45       000520400K 10000000010000005245           
CUS0491310000104086183003         PORTER DANIEL N     6202 EBENEZER RD                        000N        CARE OF             
MTR04913100001000000000000000RA              45381477    005800090000000900000520000003NN  NNW 000                       N    
RDG04913100WATRL000000004K00000000000001673000809012015071912N000000000000N45       000610400K 10000000010000001663           
CUS0491310000104086184001         STEIN CARROLL WILLIA6158 EBENEZER RD                        000N        CARE OF             
MTR04913100001000000000000000RA              46882355    005800100000001000000520000003NN  NNW 000                       N    
RDG04913100WATRL000000004K00000000000002028001009012015072134N000000000000N45       000220400K 10000000010000002028           
CUS0491310000104086185008         LONG GARY LYNN      6154 EBENEZER RD                        000N        CARE OF             
MTR04913100001000000000000000RA              46882429    005800110000001100000520000003NN  NNW 000                       N    
RDG04913100WATRL000000004K00000000000001495000909012015072112N000000000000N45       001200400K 10000000010000001481           
CUS0491310000104086186006         BIEDENBACK DONALD L 6152 EBENEZER RD                        000N        CARE OF             
MTR04913100001000000000000000RA              40322439    005800120000001200000520000003NN  NNW 000                       N    
RDG04913100WATRL000000004K00000000000004566001209012015072310N000000000000N45       000330400K 10000000010000004540           
CUS0491310000104086187004         BIENSACH RAYMOND L  6150 EBENEZER RD                        000N        CARE OF             
MTR04913100001000000000000000RA              24625394    007500130000001300000520000003NN  NNW 000                       N    
RDG04913100WATRL000000004K00000000000007668001509012015072542N000000000000N45       000090400K 10000000010000007674           
CUS0491310000104086188002         JOHN JONES          6142 EBENEZER RD                        000N        CARE OF             
MTR04913100001000000000000000RA              35114537    005800140000001400000520000003NN  NNW 000                       N    
RDG04913100WATRL000000004K00000000000001617001409012015072533N000000000000N45       000210400K 10000000010000001612           
CUS0491310000104086189000         FLORAL ASSOCIATES   6136 EBENEZER RD                        000N        CARE OF             
MTR04913100001000000000000000RA              41089898    007500150000001500000520000003NN  NNW 000                       N    
RDG04913100WATRL000000004K00000000000009305001309012015072512N000000000000N45       001220400K 10000000010000009262           
CUS0491310000104086190008         HILLSIDE ACRES LLC  6134 EBENEZER RD                        000N        CARE OF             
MTR04913100001000000000000000RA              46890452    007500160000001600000520000003NN  NNW 000                       N    
RDG04913100WATRL000000004K00000000000000934001609012015072644N000000000000N45       000620400K 10000000010000000918           
CUS0491310000104086191006         WRIGHT PERRY C      6130 EBENEZER RD                        000N        CARE OF             
MTR04913100001000000000000000RA              24230568    005800170000001700000520000003NN  NNW 000                       N    
RDG04913100WATRL000000004K00000000000002178001809012015072854N000000000000N45       000060400K 10000000010000002181           
CUS0491310000104086192004         WRIGHT PERRY C      6128 EBENEZER RD                        000N        CARE OF             
MTR04913100001000000000000000RA              00138863    005800180000001800000570000003NN  NNW 000                       N    
RDG04913100WATRL000000004K00000000000000895001709012015072848N000000000000N45       001240400K 10000000010000000895           
CUS0491310000104086193002         WRIGHT PERRY C      6126 EBENEZER RD                        000N        CARE OF             
MTR04913100001000000000000000RA              10022949    005800190000001900000570000003NN  NNW 000                       N    
RDG04913100WATRL000000004K00000000000000396002009012015073012N000400000010N45       000120400K 10000000010000000381           
CUS0491310000104086194000         PARKER ROBERT       6124 EBENEZER RD                        000N        CARE OF             
MTR04913100001000000000000000RA              00138861    005800200000002000000570000003NN  NNW 000                       N    
RDG04913100WATRL000000004K00000000000000671001909012015073000N000000000000N45       000660400K 10000000010000000662           
CUS0491310000104086195007         WRIGHT PERRY C      6120 EBENEZER RD                        000N        CARE OF             
MTR04913100001000000000000000RA              24230566    005800210000002100000520000003NN  NNW 000                       N    
RDG04913100WATRL000000004K00000000000002328002309012015073250N000000000010N45       000800400K 10000000010000002349           
CUS0491310000104086196005         HUMES CHARLES E     6114 EBENEZER RD                        000N        CARE OF             
MTR04913100001000000000000000RA              9987008     005800220000002200000570000003NN  NNW 000                       N    
RDG04913100WATRL000000004K00000000000004512002409012015073320N000000000000N45       000300400K 10000000010000004499           
CUS0491310000104410262002         ALLEN ROY A,JR      6110 EBENEZER RD                        000N        CARE OF             
MTR04913100001000000000000000RA              10023964    005800230000002300000570000003NN  NNW 000                       N    
RDG04913100WATRL000000004K00000000000000132002509012015073419N000000000000N45       000590400K 10000000010000000128           
CUS0491310000104421176001         TREMPER HERBERT C   6020 EBENEZER RD                        000N        CARE OF             
MTR04913100001000000000000000RA              00138566    005800240000002400000570000003NN  NNW 000                       N    
RDG04913100WATRL000000004K00000000000001335014909012015093044N000000000000N45       000150400K 10000000010000001329           
CUS0491310000104422303000         TREMPER KENNETH M   6022 EBENEZER RD                        000N        CARE OF             
MTR04913100001000000000000000RA              50481869    005800250000002500000520000003NN  NNW 000                       N    
RDG04913100WATRL000000004K00000000000002648015009012015093108N000000000050N45       000240400K 10000000010000002627           
CUS0491310000104440578005         FLETCHER ASHTON V,JR5824 GAMBRILL RD                        000N        CARE OF             
MTR04913100001000000000000000RA              14919543    005800260000002600000310000003NN  NNW 000                       N    
RDG04913100WATRL000000004K00000000000000485025109012015121809N000000000010N45       000230400K 10000000010000000474           
CUS0491310000104425391002         TREMPER SCOTT MICHAE6024 EBENEZER RD                        000N        CARE OF             
MTR04913100001000000000000000RA              01114718    005800270000002700000610000003NN  NNW 000                       N    
RDG04913100WATRL000000004K00000000000001932025009012015121746N000000000030N45       001680400K 10000000010000001948           
CUS0491310000104086197003         TREMPER DONALD      6018 EBENEZER RD                        000N        CARE OF             
MTR04913100001000000000000000RA              23056883    005800280000002800000520000003NY  NNW 000                       N    
MTM0491310023056883    CL                                                                                                     
RDG04913100WATRL000000004K00000000000000000000000000000000000 000000000000U         000000400  10000000010000006591           
CUS0491310000104086198001         DANIELS ALVIN L     5818 EBENEZER RD                        000N        CARE OF             
MTR04913100001000000000000000RA              50791040    005800290000002900000520000003NN  NNW 000                       N    
RDG04913100WATRL000000004K00000000000001598004709012015080110N000000000000U45       001440400K 10000000010000001578           
CUS0491310000104086199009         TREMPER BART        6016 EBENEZER RD                        000N        CARE OF             
MTR04913100001000000000000000RA              14922565    005800300000003000000310000003NN  NNW 000                       N    
RDG04913100WATRL000000004K00000000000000785014809012015093029N000000000000N45       000190400K 10000000010000000769           
CUS0491310000104086200005         WEBSTER DARRYL LEE  6006 EBENEZER RD                        000N        CARE OF             
MTR04913100001000000000000000RA              52285257    005800310000003100000520000003NN  NNW 000                       N    
RDG04913100WATRL000000004K00000000000001411003009012015074158N000000000010N45       000430400K 10000000010000001455           
CUS0491310000104086201003         SCHLOGEL PAUL L,SR  5934 EBENEZER RD                        000N        CARE OF             
MTR04913100001000000000000000RA              01097451    005800320000003200000610000003NN  NNW 000                       N    
RDG04913100WATRL000000004K00000000000001649003209012015074320N000000000000N45       000200400K 10000000010000001613           
CUS0491310000104086202001         GROSS JOHN LEO      5930 EBENEZER RD                        000N        CARE OF             
MTR04913100001000000000000000RA              01100005    005800330000003300000610000003NN  NNW 000                       N    
RDG04913100WATRL000000004K00000000000000693003109012015074300N000000000000N45       000620400K 10000000010000000675           
CUS0491310000104086203009         CLARK JOSHUA B      5926 EBENEZER RD                        000N        CARE OF             
MTR04913100001000000000000000RA              14904031    005800340000003400000310000003NN  NNW 000                       N    
RDG04913100WATRL000000004K00000000000000737003309012015074440N000000000000N45       000800400K 10000000010000000719           
CUS0491310000104086204007         ROGERS RICHARD M    5910 EBENEZER RD                        000N        CARE OF             
MTR04913100001000000000000000RA              10024562    005800350000003500000570000003NN  NNW 000                       N    
RDG04913100WATRL000000004K00000000000000189003809012015075025N000000000010N45       000040400K 10000000010000000192           
CUS0491310000104086205004         LANCASTER JAY C     5908 EBENEZER RD                        000N        CARE OF             
MTR04913100001000000000000000RA              50479532    005800360000003600000520000003NN  NNW 000                       N    
RDG04913100WATRL000000004K00000000000001666003709012015075021N000000000010N45       000080400K 10000000010000001668           
CUS0491310000104086206002         BRETT VALLECILLO    5904 EBENEZER RD                        000N        CARE OF             
MTR04913100001000000000000000RA              50791042    005800370000003700000520000003NN  NNW 000                       N    
RDG04913100WATRL000000004K00000000000000943003609012015075013N000000000000N45       002020400K 10000000010000000943           
CUS0491310000104445356001         RICHARDSON HOLDINGS,5900 EBENEZER RD                        000N        CARE OF             
MTR04913100001000000000000000RA              00166637    000100380000003800000570000003NN  NNW 000                       N    
RDG04913100WATRL000000004K00000000000005916003909012015075116N000000000000N45       000510400K 10000000010000005539           
CUS0491310000104086207000         MOSLEY DANIEL J     10715 MEYERS LN                         000N        CARE OF             
MTR04913100001000000000000000RA              11326855    005800390000003900000570000003NY  NNW 000                       N    
MTM0491310011326855    BD GRASS                                                                                               
RDG04913100WATRL000000004K00000000000000000000000000000000000 000000000000U         000000400  10000000010000007042           
CUS0491310000104086209006         RICHARDSON WILLIAM W10734 MEYERS LN                         000N        CARE OF             
MTR04913100001000000000000000RA              24770825    005800400000004000000520000003NN  NNW 000                       N    
RDG04913100WATRL000000004K00000000000000439004009012015075215N000000000000N45       000590400K 10000000010000000412           
CUS0491310000104409284009         CHILCOAT DONALD,JR  10731 MEYERS LN                         000N        CARE OF             
MTR04913100001000000000000000RA              45375166    005800410000004100000520000003NN  NNW 000                       N    
RDG04913100WATRL000000004K00000000000002029004409012015075456N000000000010N45       000050400K 10000000010000002026           
CUS0491310000104086208008         CHILCOAT DONALD L   10735 MEYERS LN                         000N        CARE OF             
MTR04913100001000000000000000RA              50479199    005800420000004200000520000003NN  NNW 000                       N    
RDG04913100WATRL000000004K00000000000001415004309012015075451N000000000000N45       000090400K 10000000010000001416           
CUS0491310000104361603006         CHILCOAT JEFFREY SCO10737 MEYERS LN                         000N        CARE OF             
MTR04913100001000000000000000RA              76346027    005800430000004300000350000003NN  NNW 000                       N    
RDG04913100WATRL000000004K00000000000000431004109012015075440N000400000050N45       001450400K 10000000010000000419           
CUS0491310000104086210004         RICHARDSON HOLDINGS 5902 EBENEZER RD                        000N        CARE OF             
MTR04913100001000000000000000RA              40049444    005800440000004400000520000003NN  NNW 000   FERRULE APPLIED     N    
RDG04913100WATRL000000004K00000000000002588004209012015075442N000000000000N45       000020400K 10000000010000002588           
CUS0491310000104086211002         RICHARDSON HOLDINGS 5828-32 EBENEZER RD                     000N        CARE OF             
MTR04913100001000000000000000RA              41089102    007500450000004500000520000003NN  NNW 000                       N    
RDG04913100WATRL000000004K00000000000007478004509012015075831N000400000090U45       002150400K 10000000010000007328           
CUS0491310000104086212000         RICHARDSON JOHN B   5822 EBENEZER RD                        000N        CARE OF             
MTR04913100001000000000000000RA              24230609    005800460000004600000520000003NN  NNW 000                       N    
RDG04913100WATRL000000004K00000000000004328004609012015075846N000000000010N45       000150400K 10000000010000004336           
CUS0491310000104086213008         FISHER MARVIN V     5820 EBENEZER RD                        000N        CARE OF             
MTR04913100001000000000000000RA              24760057    005800470000004700000520000003NN  NNW 000                       N    
RDG04913100WATRL000000004K00000000000004287005109012015080813N000000000010N45       001350400K 10000000010000004279           
CUS0491310000104086214006         WAHLBERG SCOTT D    5816 EBENEZER RD                        000N        CARE OF             
MTR04913100001000000000000000RA              10012430    005800480000004800000570000003NN  NNW 000                       N    
RDG04913100WATRL000000004K00000000000000289005209012015080907N000000000010N45       000540400K 10000000010000000275           
CUS0491310000104086215003         RAYMOND BREHM III   5814 EBENEZER RD                        000N        CARE OF             
MTR04913100001000000000000000RA              01097459    005800490000004900000610000003NN  NNW 000                       N    
RDG04913100WATRL000000004K00000000000001481005309012015080947N000000000000N45       000400400K 10000000010000001454           
CUS0491310000106353000000         BENIK MARY M        11017 BIRD RIVER GROVE RD               000N        CARE OF             
MTR04913100001000000000000000RA              26018991    005800500000005000000520000003NN  NNW 000                       N    
RDG04913100WATRL000000004K00000000000004862005409012015081248N000000000000N45       001810400K 10000000010000004828           
CUS0491310000104086216001         WHITTEN JOSEPH M    11023 BIRD RIVER GROVE RD               000N        CARE OF             
MTR04913100001000000000000000RA              24226140    005800510000005100000520000003NN  NNW 000                       N    
RDG04913100WATRL000000004K00000000000003635005909012015081646N000000000000N45       000200400K 10000000010000003617           
CUS0491310000104379509005         TITTLE WILLIAM W    11025 BIRD RIVER GROVE RD               000N        CARE OF             
MTR04913100001000000000000000RA              33079380    005800520000005200000520000003NN  NNW 000                       N    
RDG04913100WATRL000000004K00000000000000850006009012015081705N000000000000N45       000190400K 10000000010000000842           
CUS0491310000104388703003         HELLMANN CHARLES J  11027 BIRD RIVER GROVE RD               000N        CARE OF             
MTR04913100001000000000000000RA              36689975    005800530000005300000520000003NN  NNW 000                       N    
RDG04913100WATRL000000004K00000000000001044006209012015082014N000000000010N45       000330400K 10000000010000001038           
CUS0491310000104398235004         WEIKLE DONNA A      11029 BIRD RIVER GROVE RD               000N        CARE OF             
MTR04913100001000000000000000RA              40049737    005800540000005400000520000003NN  NNW 000                       N    
RDG04913100WATRL000000004K00000000000003380006309012015082016N000000000000N45       000020400K 10000000010000003351           
CUS0491310000104086217009         THORPE RAYMOND D/CLA11031 BIRD RIVER GROVE RD               000N        CARE OF             
MTR04913100001000000000000000RA              24230106    005800550000005500000520000003NN  NNW 000                       N    
RDG04913100WATRL000000004K00000000000006298006409012015082234N000000000000N45       001380400K 10000000010000006295           
CUS0491310000104086218007         THORPE RAYMOND D/CLA11039 BIRD RIVER GROVE RD               000N        CARE OF             
MTR04913100001000000000000000RA              24229806    005800560000005600000520000003NN  NNW 000                       N    
RDG04913100WATRL000000004K00000000000003178006509012015082237N000000000000N45       000030400K 10000000010000003185           
CUS0491310000104407138009         ASTARITA MAUREEN DAW11106 BIRD RIVER GROVE RD               000N        CARE OF             
MTR04913100001000000000000000RA              44091980    005800570000005700000520000003NN  NNW 000                       N    
RDG04913100WATRL000000004K00000000000001155014709012015093010N000000000010N45       000490400K 10000000010000001151           
CUS0491310000104086219005         FINNEY VANESSA      11103 BIRD RIVER GROVE RD               000N        CARE OF             
MTR04913100001000000000000000RA              10012355    005800580000005800000570000003NN  NNW 000                       N    
RDG04913100WATRL000000004K00000000000000196006609012015082356N000000000000N45       000790400K 10000000010000000178           
CUS0491310000104086220003         JOSHUA K LENTZNER   11105 BIRD RIVER GROVE RD               000N        CARE OF             
MTR04913100001000000000000000RA              26012948    005800590000005900000520000003NN  NNW 000                       N    
RDG04913100WATRL000000004K00000000000003719006709012015082439N000000000010N45       000430400K 10000000010000003715           
CUS0491310000104086221001         RIEMER STEVEN WAYNE 11107 BIRD RIVER GROVE RD               000N        CARE OF             
MTR04913100001000000000000000RA              50479234    005800600000006000000520000003NN  NNW 000                       N    
RDG04913100WATRL000000004K00000000000001599006809012015082505N000000000000N45       000260400K 10000000010000001604           
CUS0491310000104425090000         WEIKLE RONALD O     11109 BIRD RIVER GROVE RD               000N        CARE OF             
MTR04913100001000000000000000RA              50791346    005800610000006100000520000003NN  NNW 000                       N    
RDG04913100WATRL000000004K00000000000001203006909012015082519N000000000000N45       000140400K 10000000010000001186           
CUS0491310000104086222009         WESTGATE DIANE A    11111 BIRD RIVER GROVE RD               000N        CARE OF             
MTR04913100001000000000000000RA              24226608    005800620000006200000520000003NN  NNW 000                       N    
RDG04913100WATRL000000004K00000000000004052007009012015082623N000300000010N45       000640400K 10000000010000004025           
CUS0491310000104086223007         MACKENZIE KAREN V   11113 BIRD RIVER GROVE RD               000N        CARE OF             
MTR04913100001000000000000000RA              01103192    005800630000006300000610000003NN  NNW 000                       N    
RDG04913100WATRL000000004K00000000000001173007109012015082655N000000000000N45       000320400K 10000000010000001173           
CUS0491310000104086224005         STACEY LYNN HAINES  11117 BIRD RIVER GROVE RD               000N        CARE OF             
MTR04913100001000000000000000RA              24225327    005800640000006400000520000003NN  NNW 000                       N    
RDG04913100WATRL000000004K00000000000002742007209012015082858N000000000010N45       001230400K 10000000010000002734           
CUS0491310000104086225002         GERST BERNARD J     11119 BIRD RIVER GROVE RD               000N        CARE OF             
MTR04913100001000000000000000RA              10008510    005800650000006500000570000003NN  NNW 000                       N    
RDG04913100WATRL000000004K00000000000000198007309012015082905N000000000000N45       000070400K 10000000010000000182           
CUS0491310000106395724005         GERST BERNARD J/ JUD11123 BIRD RIVER GROVE RD               000N        CARE OF             
MTR04913100001000000000000000RA              39290949    005800660000006600000520000003NN  NNW 000                       N    
RDG04913100WATRL000000004K00000000000001295007409012015083221N000000000010N45       001960400K 10000000010000001295           
CUS0491310000104086175009         HAUPT PAGE VIRGINIA 11125 BIRD RIVER GROVE RD               000N        CARE OF             
MTR04913100001000000000000000RA              10012546    005800670000006700000570000003NN  NNW 000                       N    
RDG04913100WATRL000000004K00000000000000038007609012015083401N000000000000N45       000230400K 10000000010000000039           
CUS0491310000104086226000         HOLLAR JEFFREY E    11127 BIRD RIVER GROVE RD               000N        CARE OF             
MTR04913100001000000000000000RA              24227315    005800680000006800000520000003NN  NNW 000                       N    
RDG04913100WATRL000000004K00000000000005260007509012015083338N000000000000N45       000770400K 10000000010000005222           
CUS0491310000104086227008         BAKER LINDA M       11129 BIRD RIVER GROVE RD               000N        CARE OF             
MTR04913100001000000000000000RA              35110986    005800690000006900000520000003NN  NNW 000                       N    
RDG04913100WATRL000000004K00000000000004310007909012015083615N000300000010N45       000060400K 10000000010000004152           
CUS0491310000104086228006         FEDERAL NATIONAL MOR11131 BIRD RIVER GROVE RD               000N        CARE OF             
MTR04913100001000000000000000RA              01101122    005800700000007000000610000003NN  NNW 000                       N    
RDG04913100WATRL000000004K00000000000000629007709012015083533N000000000000N45       000920400K 10000000010000000619           
CUS0491310000104086229004         TEMPLE EARL R       11133 BIRD RIVER GROVE RD               000N        CARE OF             
MTR04913100001000000000000000RA              01095991    005800710000007100000610000003NN  NNW 000                       N    
RDG04913100WATRL000000004K00000000000000542007809012015083609N000400000010N45       000360400K 10000000010000000542           
CUS0491310000104385262003         WHITLOCK RANDALL J  11135 BIRD RIVER GROVE RD               000N        CARE OF             
MTR04913100001000000000000000RA              35104229    005800720000007200000520000003NN  NNW 000                       N    
RDG04913100WATRL000000004K00000000000003692008009012015083717N000000000000N45       000620400K 10000000010000003692           
CUS0491310000104086230002         OGELSBY DIANE H     11205 BIRD RIVER GROVE RD               000N        CARE OF             
MTR04913100001000000000000000RA              24226636    005800730000007300000520000003NN  NNW 000                       N    
RDG04913100WATRL000000004K00000000000003547008109012015084002N000000000000N45       001650400K 10000000010000003527           
CUS0491310000104086231000         BIRD RIVER GROVE,LLC11319 BIRD RIVER GROVE RD               000N        CARE OF             
MTR04913100001000000000000000RA              24768800    005800740000007400000520000003NN  NNW 000                       N    
RDG04913100WATRL000000004K00000000000003211008309012015084337N000000000030N45       000330400K 10000000010000003211           
CUS0491310000104086232008         DIMMER JAMES G      11318 BIRD RIVER GROVE RD               000N        CARE OF             
MTR04913100001000000000000000RA              01101536    005800750000007500000610000003NN  NNW 000                       N    
RDG04913100WATRL000000004K00000000000001111008209012015084304N000300000010N45       001820400K 10000000010000001062           
CUS0491310000104086233006         STEVE PARR          11312 BIRD RIVER GROVE RD               000N        CARE OF             
MTR04913100001000000000000000RA              24226638    005800760000007600000520000003NN  NNW 000                       N    
RDG04913100WATRL000000004K00000000000001965008409012015084407N000300000010N45       000300400K 10000000010000001946           
CUS0491310000104086234004         BENA JOHN A,JR      11310 BIRD RIVER GROVE RD               000N        CARE OF             
MTR04913100001000000000000000RA              10002187    005800770000007700000570000003NY  NNW 000                       N    
MTM0491310010002187    BD                                                                                                     
RDG04913100WATRL000000004K00000000000000000000000000000000000 000000000000U         000000400  10000000010000000201           
CUS0491310000104360078002         PRESTIANNI TIMOTHY J11308 BIRD RIVER GROVE RD               000N        CARE OF             
MTR04913100001000000000000000RA              44088617    005800780000007800000520000003NN  NNW 000                       N    
RDG04913100WATRL000000004K00000000000001247008509012015084450N000000000000N45       000430400K 10000000010000001231           
CUS0491310000104086235001         RHEA MICHAEL        11306 BIRD RIVER GROVE RD               000N        CARE OF             
MTR04913100001000000000000000RA              24231571    005800790000007900000520000003NN  NNW 000                       N    
RDG04913100WATRL000000004K00000000000004253008609012015084647N000000000000N45       001170400K 10000000010000004228           
CUS0491310000104382250001         WOOD RICHARD C      11304 BIRD RIVER GROVE RD               000N        CARE OF             
MTR04913100001000000000000000RA              27213252    005800800000008000000520000003NN  NNW 000                       N    
RDG04913100WATRL000000004K00000000000004330008709012015084700N000000000010N45       000130400K 10000000010000004310           
CUS0491310000104388827000         ERSIE R PATRICK     11302 BIRD RIVER GROVE RD               000N        CARE OF             
MTR04913100001000000000000000RA              36688298    005800810000008100000520000003NN  NNW 000                       N    
RDG04913100WATRL000000004K00000000000002001008909012015084755N000000000000N45       000080400K 10000000010000001987           
CUS0491310000104388829006         MUNDIE JOHN W,SR    11300 BIRD RIVER GROVE RD               000N        CARE OF             
MTR04913100001000000000000000RA              48591948    005800820000008200000520000003NN  NNW 000                       N    
RDG04913100WATRL000000004K00000000000001461008809012015084747N000000000000N45       000470400K 10000000010000001437           
CUS0491310000104086236009         PARSONS THOMAS JAMES11242 BIRD RIVER GROVE RD               000N        CARE OF             
MTR04913100001000000000000000RA              24226583    005800830000008300000520000003NN  NNW 000                       N    
RDG04913100WATRL000000004K00000000000003706009009012015084851N000000000011N45       000340400K 10000000010000003697           
CUS0491310000104386995007         LUTZ ROBERT C,SR,TRU11244 BIRD RIVER GROVE RD               000N        CARE OF             
MTR04913100001000000000000000RA              35114550    005800840000008400000520000003NN  NNW 000                       N    
RDG04913100WATRL000000004K00000000000001227009109012015084817N000000000000N45       000050400K 10000000010000001207           
CUS0491310000104086237007         MCGILTON LARRY JOE  11240 BIRD RIVER GROVE RD               000N        CARE OF             
MTR04913100001000000000000000RA              01101539    005800850000008500000610000003NN  NNW 000                       N    
RDG04913100WATRL000000004K00000000000001375009209012015084932N000000000000N45       000410400K 10000000010000001348           
CUS0491310000104086238005         MENEGHIN YVONNE     11238 BIRD RIVER GROVE RD               000N        CARE OF             
MTR04913100001000000000000000RA              24226867    005800860000008600000520000003NN  NNW 000                       N    
RDG04913100WATRL000000004K00000000000002848009309012015085017N000000000000N45       000450400K 10000000010000002813           
CUS0491310000104086239003         FLEIG GOTTLIEB J,JR 11236 BIRD RIVER GROVE RD               000N        CARE OF             
MTR04913100001000000000000000RA              10019155    005800870000008700000570000003NN  NNW 000   VACANT / LOT        N    
RDG04913100WATRL000000004K00000000000000000009409012015085021N000000000000N45       000040400K 10000000010000000000           
CUS0491310000104086240001         LITTLE JOAN MARIE   11234 BIRD RIVER GROVE RD               000N        CARE OF             
MTR04913100001000000000000000RA              24758665    005800880000008800000520000003NN  NNW 000                       N    
RDG04913100WATRL000000004K00000000000000826009509012015085030N000000000000N45       000090400K 10000000010000000824           
CUS0491310000104086241009         HUGHES RUSSELL G,JR 11232 BIRD RIVER GROVE RD               000N        CARE OF             
MTR04913100001000000000000000RA              24760948    005800890000008900000520000003NN  NNW 000                       N    
RDG04913100WATRL000000004K00000000000000614009609012015085059N000000000000N45       000290400K 10000000010000000598           
CUS0491310000104086242007         ZAJDEL EDWIN S      11230 BIRD RIVER GROVE RD               000N        CARE OF             
MTR04913100001000000000000000RA              10012434    005800900000009000000570000003NN  NNW 000                       N    
RDG04913100WATRL000000004K00000000000000282009709012015085135N000300000010N45       000360400K 10000000010000000264           
CUS0491310000104086243005         MATHEU MICHAEL R    11228 BIRD RIVER GROVE RD               000N        CARE OF             
MTR04913100001000000000000000RA              23057026    005800910000009100000520000003NN  NNW 000                       N    
RDG04913100WATRL000000004K00000000000000820009809012015085139N000000000000N45       000040400K 10000000010000000809           
CUS0491310000104086244003         HORNE ARLEY F       11226 BIRD RIVER GROVE RD               000N        CARE OF             
MTR04913100001000000000000000RA              24226142    005800920000009200000520000003NN  NNW 000                       N    
RDG04913100WATRL000000004K00000000000002186009909012015085230N000000000000N45       000510400K 10000000010000002173           
CUS0491310000104086245000         MCCORMACK JOHN P    11222 BIRD RIVER GROVE RD               000N        CARE OF             
MTR04913100001000000000000000RA              10003896    005800930000009300000570000003NN  NNW 000                       N    
RDG04913100WATRL000000004K00000000000000459010009012015085305N000000000000N45       000350400K 10000000010000000465           
CUS0491310000104086246008         WASILEWSKI EDWARD ST11220 BIRD RIVER GROVE RD               000N        CARE OF             
MTR04913100001000000000000000RA              24226004    005800940000009400000520000003NN  NNW 000                       N    
RDG04913100WATRL000000004K00000000000002124010109012015085337N000000000000N45       000320400K 10000000010000002113           
CUS0491310000104455002008         WEIKLE, CASEY       11216 BIRD RIVER GROVE RD               000N        CARE OF             
MTR04913100001000000000000000RA              99999999    000100950000009500000440000003NN  NNW 000                       N    
RDG04913100WATRL000000004K00000000000000000010209012015085422S063000000000N45       000450400K 10000000010000000000           
CUS0491310000104086247006         FANGMANN DOUGLAS E  11214 BIRD RIVER GROVE RD               000N        CARE OF             
MTR04913100001000000000000000RA              24758448    005800960000009600000520000003NN  NNW 000                       N    
RDG04913100WATRL000000004K00000000000005522010309012015085519N000000000000U45       000570400K 10000000010000005503           
CUS0491310000104086248004         THURMOND VALERIE LYN11212 BIRD RIVER GROVE RD               000N        CARE OF             
MTR04913100001000000000000000RA              99188706    005800970000009700000570000003NN  NNW 000                       N    
RDG04913100WATRL000000004K00000000000000932010509012015085646N000000000000N45       000560400K 10000000010000000932           
CUS0491310000104086249002         BARNES RICHARD H    11210 BIRD RIVER GROVE RD               000N        CARE OF             
MTR04913100001000000000000000RA              54348396    005800980000009800000520000003NN  NNW 000                       N    
RDG04913100WATRL000000004K00000000000002292010409012015085550N000000000000N45       000310400K 10000000010000002276           
CUS0491310000104086250000         SIMONAITIS ANTHONY P11208 BIRD RIVER GROVE RD               000N        CARE OF             
MTR04913100001000000000000000RA              24225330    005800990000009900000520000003NN  NNW 000                       N    
RDG04913100WATRL000000004K00000000000002411010609012015085659N000000000030N45       000130400K 10000000010000002459           
CUS0491310000104086251008         HERGENHAN MICHAEL S 11206 BIRD RIVER GROVE RD               000N        CARE OF             
MTR04913100001000000000000000RA              78024020    005801000000010000000360000003NN  NNW 000                       N    
RDG04913100WATRL000000004K00000000000000062010709012015085741N000000000030U45       000420400K 10000000010000000036           
CUS0491310000104086252006         MALLONEE TERESA A   11204 BIRD RIVER GROVE RD               000N        CARE OF             
MTR04913100001000000000000000RA              24225329    005801010000010100000520000003NN  NNW 000                       N    
RDG04913100WATRL000000004K00000000000002346010809012015085749N000000000000N45       000080400K 10000000010000002324           
CUS0491310000104086253004         GROSS PAUL GERARD   11202 BIRD RIVER GROVE RD               000N        CARE OF             
MTR04913100001000000000000000RA              24226139    005801020000010200000520000003NN  NNW 000                       N    
RDG04913100WATRL000000004K00000000000001194010909012015085838N000000000000N45       000490400K 10000000010000001183           
CUS0491310000104086254002         CLARK NOAH H,JR     11200 BIRD RIVER GROVE RD               000N        CARE OF             
MTR04913100001000000000000000RA              24225944    005801030000010300000520000003NN  NNW 000                       N    
RDG04913100WATRL000000004K00000000000005867011009012015085921N000000000000N45       000430400K 10000000010000005844           
CUS0491310000104086255009         SNYDER JACQUELINE A 11140 BIRD RIVER GROVE RD               000N        CARE OF             
MTR04913100001000000000000000RA              40048140    005801040000010400000520000003NN  NNW 000                       N    
RDG04913100WATRL000000004K00000000000000526011109012015085949N000000000000N45       000280400K 10000000010000000523           
CUS0491310000104086256007         MCEACHEN FAITH E    11132 BIRD RIVER GROVE RD               000N        CARE OF             
MTR04913100001000000000000000RA              01101535    005801050000010500000610000003NN  NNW 000                       N    
RDG04913100WATRL000000004K00000000000001108011509012015090307N000000000010N45       000360400K 10000000010000001115           
CUS0491310000104415244005         BUTT ROBERT R       11134 BIRD RIVER GROVE RD               000N        CARE OF             
MTR04913100001000000000000000RA              77877536    005801060000010600000360000003NN  YNW 000                       N    
RDG04913100WATRL000000004K00000000000000000011409012015090231N000300000010U45       000570400K 10000000010000000000           
CUS0491310000104360062006         QUANG CAO TRUONG    11136 BIRD RIVER GROVE RD               000N        CARE OF             
MTR04913100001000000000000000RA              29684090    005801070000010700000520000003NN  NNW 000                       N    
RDG04913100WATRL000000004K00000000000003146011309012015090134N000300000010N45       000450400K 10000000010000003114           
CUS0491310000104360063004         WEAVER CELESTE      11138 BIRD RIVER GROVE RD               000N        CARE OF             
MTR04913100001000000000000000RA              29684385    005801080000010800000520000003NN  NNW 000                       N    
RDG04913100WATRL000000004K00000000000003215011209012015090049N000300000010N45       000600400K 10000000010000003200           
CUS0491310000104422320004         BOEMMEL NICHOLAS A  11130 BIRD RIVER GROVE RD               000N        CARE OF             
MTR04913100001000000000000000RA              00138869    005801090000010900000570000003NN  NNW 000                       N    
RDG04913100WATRL000000004K00000000000000298011609012015090332N000300000010N45       000250400K 10000000010000000265           
CUS0491310000104086257005         SPERKO FRANK        11128 BIRD RIVER GROVE RD               000N        CARE OF             
MTR04913100001000000000000000RA              24225947    005801100000011000000520000003NN  NNW 000                       N    
RDG04913100WATRL000000004K00000000000000865011709012015090353N000000000000N45       000210400K 10000000010000000865           
CUS0491310000104086258003         HETTCHEN GARY N     11126 BIRD RIVER GROVE RD               000N        CARE OF             
MTR04913100001000000000000000RA              00133547    005801110000011100000570000003NN  NNW 000                       N    
RDG04913100WATRL000000004K00000000000001459011809012015090421N000000000000N45       000280400K 10000000010000001429           
CUS0491310000104086259001         SZELIGA BEVERLEIGH,E11124 BIRD RIVER GROVE RD               000N        CARE OF             
MTR04913100001000000000000000RA              27821092    005801120000011200000520000003NN  NNW 000                       N    
RDG04913100WATRL000000004K00000000000001001011909012015090518N000000000000N45       000570400K 10000000010000000996           
CUS0491310000104086260009         DANIELS ALVIN L JR  11122 BIRD RIVER GROVE RD               000N        CARE OF             
MTR04913100001000000000000000RA              99288004    005801130000011300000570000003NN  NNW 000                       N    
RDG04913100WATRL000000004K00000000000001075012009012015090553N000400000010N45       000350400K 10000000010000001073           
CUS0491310000104358034009         NELSON GREGORY C    11120 BIRD RIVER GROVE RD               000N        CARE OF             
MTR04913100001000000000000000RA              46890669    007501140000011400000520000003NY  NNW 000                       N    
MTM0491310046890669    COV                                                                                                    
RDG04913100WATRL000000004K00000000000000000000000000000000000 000000000000U         000000400  10000000010000001158           
CUS0491310000104399175001         SODY WAYNE ALLEN    11116 BIRD RIVER GROVE RD               000N        CARE OF             
MTR04913100001000000000000000RA              40779531    005801150000011500000520000003NN  NNW 000                       N    
RDG04913100WATRL000000004K00000000000001308012109012015090658N000000000000N45       000650400K 10000000010000001294           
CUS0491310000104086261007         SPLIEDT LINDA       11114 BIRD RIVER GROVE RD               000N        CARE OF             
MTR04913100001000000000000000RA              24762800    005801160000011600000520000003NN  NNW 000                       N    
RDG04913100WATRL000000004K00000000000006410012209012015090742N000000000000N45       000440400K 10000000010000006418           
CUS0491310000104086262005         WOOD ROBERT M       11112 BIRD RIVER GROVE RD               000N        CARE OF             
MTR04913100001000000000000000RA              24229946    005801170000011700000520000003NN  NNW 000                       N    
RDG04913100WATRL000000004K00000000000002764012309012015090751N000000000000N45       000090400K 10000000010000002756           
CUS0491310000104086263003         APPLEGARTH HAROLD G 11110 BIRD RIVER GROVE RD               000N        CARE OF             
MTR04913100001000000000000000RA              24225664    005801180000011800000520000003NN  NNW 000                       N    
RDG04913100WATRL000000004K00000000000003469012409012015090829N000000000000N45       000380400K 10000000010000003466           
CUS0491310000104086264001         MAY CHRISTINE J     11108 BIRD RIVER GROVE RD               000N        CARE OF             
MTR04913100001000000000000000RA              24226640    005801190000011900000520000003NN  NNW 000                       N    
RDG04913100WATRL000000004K00000000000002907012509012015090844N000000000000N45       000150400K 10000000010000002893           
CUS0491310000104086265008         FENZEL LEE FRANCIS  11104 BIRD RIVER GROVE RD               000N        CARE OF             
MTR04913100001000000000000000RA              01080684    005801200000012000000610000003NN  NNW 000                       N    
RDG04913100WATRL000000004K00000000000001464012609012015091005N000300000021N45       000450400K 10000000010000001445           
CUS0491310000104086266006         GORDON KRIS D       11100 BIRD RIVER GROVE RD               000N        CARE OF             
MTR04913100001000000000000000RA              24228280    005801210000012100000520000003NN  NNW 000                       N    
RDG04913100WATRL000000004K00000000000003302012709012015091048N000000000010N45       000430400K 10000000010000003301           
CUS0491310000104437740006         BAKER JEFFREY D     11050 BIRD RIVER GROVE RD               000N        CARE OF             
MTR04913100001000000000000000RA              14904645    005801220000012200000310000003NN  NNW 000                       N    
RDG04913100WATRL000000004K00000000000000719012809012015091139N000000000000N45       000510400K 10000000010000000706           
CUS0491310000104086267004         WELLEIN TIMOTHY J,SR11038 BIRD RIVER GROVE RD               000N        CARE OF             
MTR04913100001000000000000000RA              26001068    005801230000012300000520000003NN  NNW 000                       N    
RDG04913100WATRL000000004K00000000000003371012909012015091330N000000000020N45       001110400K 10000000010000003369           
CUS0491310000104086268002         THORSETT KENNETH R  11036 BIRD RIVER GROVE RD               000N        CARE OF             
MTR04913100001000000000000000RA              24226822    005801240000012400000520000003NN  NNW 000   VACANT / LOT        N    
RDG04913100WATRL000000004K00000000000000048013009012015091333N000000000000N45       000030400K 10000000010000000048           
CUS0491310000104086269000         PENN ELEANOR M      11034 BIRD RIVER GROVE RD               000N        CARE OF             
MTR04913100001000000000000000RA              24227800    005801250000012500000520000003NN  NNW 000                       N    
RDG04913100WATRL000000004K00000000000003034013109012015091402N000000000000N45       000290400K 10000000010000003033           
CUS0491310000104437018007         WEBSTER EUGENIA J   11032 BIRD RIVER GROVE RD               000N        CARE OF             
MTR04913100001000000000000000RA              14902119    005801260000012600000310000003NN  NNW 000                       N    
RDG04913100WATRL000000004K00000000000000948013209012015091646N000000000000N45       001640400K 10000000010000000937           
CUS0491310000104393725009         WEBSTER EUGENIA JO  11030 BIRD RIVER GROVE RD               000N        CARE OF             
MTR04913100001000000000000000RA              44177561    005801270000012700000520000003NN  NNW 000                       N    
RDG04913100WATRL000000004K00000000000001214013309012015091804N000000000000U45       000780400K 10000000010000001211           
CUS0491310000104086270008         WOOD CLARA L        11026 BIRD RIVER GROVE RD               000N        CARE OF             
MTR04913100001000000000000000RA              30525341    005801280000012800000520000003NN  NNW 000                       N    
RDG04913100WATRL000000004K00000000000002058013409012015091807N000000000000N45       000030400K 10000000010000002059           
CUS0491310000104086271006         PECORA J            11022 BIRD RIVER GROVE RD               000N        CARE OF             
MTR04913100001000000000000000RA              24227498    005801290000012900000520000003NN  NNW 000                       N    
RDG04913100WATRL000000004K00000000000001395005809012015081626N000000000000N45       000800400K 10000000010000001396           
CUS0491310000104086272004         HUNTER JOHN M       11018 BIRD RIVER GROVE RD               000N        CARE OF             
MTR04913100001000000000000000RA              24226639    005801300000013000000520000003NN  NNW 000                       N    
RDG04913100WATRL000000004K00000000000002184005709012015081506N000000000000N45       000680400K 10000000010000002165           
CUS0491310000104086273002         JUSTIN HUNTER       11016 BIRD RIVER GROVE RD               000N        CARE OF             
MTR04913100001000000000000000RA              44174453    005801310000013100000520000003NN  NNW 000                       N    
RDG04913100WATRL000000004K00000000000002125005509012015081340N000000000000N45       000520400K 10000000010000002099           
CUS0491310000104086274000         HUNTER JOHN M       11010 BIRD RIVER GROVE RD               000N        CARE OF             
MTR04913100001000000000000000RA              40048307    005801320000013200000520000003NN  NNW 000                       N    
RDG04913100WATRL000000004K00000000000009680005609012015081358N000000000000N45       000180400K 10000000010000009530           
CUS0491310000104369751005         MOHR DAVID LEE      11028 BIRD RIVER GROVE RD               000N        CARE OF             
MTR04913100001000000000000000RA              31581443    005801330000013300000520000003NN  NNW 000                       N    
RDG04913100WATRL000000004K00000000000001986006109012015081941N000300000010N45       001560400K 10000000010000001973           
CUS0491310000104399971003         BENIK JOSEPH F      10821 BIRD RIVER GROVE RD               000N        CARE OF             
MTR04913100001000000000000000RA              48585745    005801340000013400000520000003NY  NNW 000                       N    
MTM0491310048585745    TREE LINE                                                                                              
RDG04913100WATRL000000004K00000000000000000000000000000000000 000000000000U         000000400  10000000010000002822           
CUS0491310000104399970005         BENIK JOSEPH F      10819 BIRD RIVER GROVE RD               000N        CARE OF             
MTR04913100001000000000000000RA              41258365    005801350000013500000520000003NY  NNW 000                       N    
MTM0491310041258365    TREE LINE                                                                                              
RDG04913100WATRL000000004K00000000000000000000000000000000000 000000000000U         000000400  10000000010000004406           
CUS0491310000104086275007         BECK LEROY M        5805 EBENEZER RD                        000N        CARE OF             
MTR04913100001000000000000000RA              46877922    005801360000013600000520000003NN  NNW 000                       N    
RDG04913100WATRL000000004K00000000000001755013509012015092158N000300000010U45       002310400K 10000000010000001729           
CUS0491310000104086276005         MARCELLINO AUGUST F 5807 EBENEZER RD                        000N        CARE OF             
MTR04913100001000000000000000RA              44174422    005801370000013700000520000003NN  NNW 000                       N    
RDG04913100WATRL000000004K00000000000003309013609012015092322N000000000000N45       000840400K 10000000010000003287           
CUS0491310000104086277003         KAHLER THOMAS W     5809 EBENEZER RD                        000N        CARE OF             
MTR04913100001000000000000000RA              01101541    005801380000013800000610000003NN  NNW 000                       N    
RDG04913100WATRL000000004K00000000000001082013809012015092410N000000000000N45       000120400K 10000000010000001060           
CUS0491310000104086278001         WILSON JAY L,JR     5811 EBENEZER RD                        000N        CARE OF             
MTR04913100001000000000000000RA              9684097     005801390000013900000570000003NN  NNW 000                       N    
RDG04913100WATRL000000004K00000000000002303013709012015092358N000000000000N45       000360400K 10000000010000002291           
CUS0491310000104086279009         RANDY LEE STAAB     5813 EBENEZER RD                        000N        CARE OF             
MTR04913100001000000000000000RA              24230606    005801400000014000000520000003NN  NNW 000                       N    
RDG04913100WATRL000000004K00000000000003053013909012015092551N000000000000N45       001010400K 10000000010000003017           
CUS0491310000104086280007         DEGRUCHY DAVID W    5815 EBENEZER RD                        000N        CARE OF             
MTR04913100001000000000000000RA              52285360    005801410000014100000520000003NN  NNW 000                       N    
RDG04913100WATRL000000004K00000000000001075014009012015092642N000000000000N45       000510400K 10000000010000001067           
CUS0491310000104086281005         SMITH LINDA G       5817 EBENEZER RD                        000N        CARE OF             
MTR04913100001000000000000000RA              45381435    005801420000014200000520000003NN  NNW 000                       N    
RDG04913100WATRL000000004K00000000000004428014109012015092836N000000000000N45       001140400K 10000000010000004434           
CUS0491310000104086282003         WALLENFELT JAMES L  5819 EBENEZER RD                        000N        CARE OF             
MTR04913100001000000000000000RA              23649468    005801430000014300000520000003NN  NNW 000                       N    
RDG04913100WATRL000000004K00000000000002031004809012015080400N000000000000N45       001700400K 10000000010000002018           
CUS0491310000104086283001         SEARFINO KEVIN M    5821 EBENEZER RD                        000N        CARE OF             
MTR04913100001000000000000000RA              99188572    005801440000014400000570000003NN  NNW 000                       N    
RDG04913100WATRL000000004K00000000000001551004909012015080436N000000000000N45       000360400K 10000000010000001529           
CUS0491310000104086284009         BOLLING ROBERT W    5825 EBENEZER RD                        000N        CARE OF             
MTR04913100001000000000000000RA              10015852    005801450000014500000570000003NN  NNW 000                       N    
RDG04913100WATRL000000004K00000000000000311005009012015080558N000000000000N45       000820400K 10000000010000000313           
CUS0491310000104086285006         RAWLINGS MITCHELL L 5829 EBENEZER RD                        000N        CARE OF             
MTR04913100001000000000000000RA              44174460    005801460000014600000520000003NN  NNW 000                       N    
RDG04913100WATRL000000004K00000000000003175014209012015092849N000000000020N45       000130400K 10000000010000003185           
CUS0491310000104086286004         WOOD EDWARD D,3RD   5905 EBENEZER RD                        000N        CARE OF             
MTR04913100001000000000000000RA              41075571    005801470000014700000520000003NN  NNW 000                       N    
RDG04913100WATRL000000004K00000000000000945014309012015092853N000000000000N45       000040400K 10000000010000000936           
CUS0491310000104086287002         PARLETTE ROLAND R   5921 EBENEZER RD                        000N        CARE OF             
MTR04913100001000000000000000RA              75427181    007501480000014800000350000003NN  NNW 000                       N    
RDG04913100WATRL000000004K00000000000000039003509012015074651N000000000030N45       000990400K 10000000010000000038           
CUS0491310000104086288000         STRIM FRANCIS       5927 EBENEZER RD                        000N        CARE OF             
MTR04913100001000000000000000RA              52285377    005801490000014900000520000003NN  NNW 000                       N    
RDG04913100WATRL000000004K00000000000000949003409012015074512N000000000000N45       000320400K 10000000010000000938           
CUS0491310000104086289008         BALTIMORE COUNTY MAR5935 EBENEZER RD                        000N        CARE OF             
MTR04913100001000000000000000RA              46878698    005801500000015000000520000003NN  NNW 000   FERRULE APPLIED     N    
RDG04913100WATRL000000004K00000000000000000014409012015092900S002000000000N45       000070400K 10000000010000001743           
CUS0491310000104086290006         KAHL BRIGITTE G     6003 EBENEZER RD                        000N        CARE OF             
MTR04913100001000000000000000RA              9684480     005801510000015100000570000003NN  NNW 000                       N    
RDG04913100WATRL000000004K00000000000002999002909012015074115N000000000000N45       000570400K 10000000010000002990           
CUS0491310000104086291004         SAIN EARL           6015 EBENEZER RD                        000N        CARE OF             
MTR04913100001000000000000000RA              52285363    005801520000015200000520000003NN  NNW 000                       N    
RDG04913100WATRL000000004K00000000000000499002809012015074018N000000000000N45       002820400K 10000000010000000495           
CUS0491310000104086292002         BALTO CO PUBLIC SCHO6025 EBENEZER RD                        000N        CARE OF             
MTR04913100001000000000000000RA              31585595    005801530000015300000520000003NY  NNW 000                       N    
MTM0491310031585595    CL                                                                                                     
RDG04913100WATRL000000004K00000000000000000000000000000000000 000000000000U         000000400  10000000010000004520           
CUS0491310000104086293000         BENNETT JOHN H      6105 EBENEZER RD                        000N        CARE OF             
MTR04913100001000000000000000RA              46890092    007501540000015400000520000003NN  NNW 000                       N    
RDG04913100WATRL000000004K00000000000002953002709012015073536N000400000010N45       000340400K 10000000010000002952           
CUS0491310000104086294008         STARNES GEORGE T    6115 EBENEZER RD                        000N        CARE OF             
MTR04913100001000000000000000RA              24221304    005801550000015500000520000003NN  NNW 000                       N    
RDG04913100WATRL000000004K00000000000003051002609012015073502N000000000000N45       000430400K 10000000010000003039           
CUS0491310000104086295005         LANCASTER DAVID GRAN6119 EBENEZER RD                        000N        CARE OF             
MTR04913100001000000000000000RA              50479202    005801560000015600000520000003NN  NNW 000                       N    
RDG04913100WATRL000000004K00000000000000377002209012015073130N000300000010N45       000340400K 10000000010000000336           
CUS0491310000104086296003         FERGUSON MATTHEW LUK6121 EBENEZER RD                        000N        CARE OF             
MTR04913100001000000000000000RA              24230565    005801570000015700000520000003NN  NNW 000                       N    
RDG04913100WATRL000000004K00000000000001922002109012015073056N000000000000N45       000440400K 10000000010000001914           
CUS0491310000104086297001         MYERS JOHN C        6143 EBENEZER RD                        000N        CARE OF             
MTR04913100001000000000000000RA              48587233    005801580000015800000520000003NN  NNW 000                       N    
RDG04913100WATRL000000004K00000000000000679014509012015092919N000000000000N45       000190400K 10000000010000000671           
CUS0491310000106396651009         MYERS JOHN CALVIN   6147 EBENEZER RD                        000N        CARE OF             
MTR04913100001000000000000000RA              52289310    005801590000015900000520000003NN  NNW 000                       N    
RDG04913100WATRL000000004K00000000000001422014609012015092921N000000000000N45       000020400K 10000000010000001427           
CUS0491310000104086298009         MYERS MARY LINDA    6151 EBENEZER RD                        000N        CARE OF             
MTR04913100001000000000000000RA              46882350    005801600000016000000520000003NN  NNW 000                       N    
RDG04913100WATRL000000004K00000000000002235001109012015072237N000000000000N45       000630400K 10000000010000002202           
CUS0491310000104086299007         REYNOLDS GLEN E     10614 BIRD RIVER RD                     000N        CARE OF             
MTR04913100001000000000000000RA              24230569    005801610000016100000520000003NN  NNW 000                       N    
RDG04913100WATRL000000004K00000000000003245015209012015094042N000000000000N45       000540400K 10000000010000003246           
CUS0491310000104086300003         MYERS JOHN EDWARD,JR10608 BIRD RIVER RD                     000N        CARE OF             
MTR04913100001000000000000000RA              24230611    005801620000016200000520000003NN  NNW 000                       N    
RDG04913100WATRL000000004K00000000000005490015109012015093948N000000000000N45       005200400K 10000000010000005456           
CUS0491310000104086301001         BASS JAMES D        10606 BIRD RIVER RD                     000N        CARE OF             
MTR04913100001000000000000000RA              45385733    005801630000016300000520000003NN  NNW 000                       N    
RDG04913100WATRL000000004K00000000000002648015309012015094124N000000000000N45       000420400K 10000000010000002636           
CUS0491310000104086302009         MAIROSE DONNA E     10602 BIRD RIVER RD                     000N        CARE OF             
MTR04913100001000000000000000RA              50481934    005801640000016400000520000003NN  NNW 000                       N    
RDG04913100WATRL000000004K00000000000001139015409012015094305N000000000000N45       001010400K 10000000010000001130           
CUS0491310000104415320003         TANNER WAYNE RICHARD10540 BIRD RIVER RD                     000N        CARE OF             
MTR04913100001000000000000000RA              46886606    005801650000016500000520000003NN  NNW 000                       N    
RDG04913100WATRL000000004K00000000000002465015509012015094549N000000000010N45       001640400K 10000000010000002550           
CUS0491310000104415319005         HALL WINFORD E      10538 BIRD RIVER RD                     000N        CARE OF             
MTR04913100001000000000000000RA              46886589    005801660000016600000520000003NN  NNW 000                       N    
RDG04913100WATRL000000004K00000000000001599025309012015132440N000000000000N45       039280400K 10000000010000001611           
CUS0491310000104086303007         BAKER FLORENCE J    10534 BIRD RIVER RD                     000N        CARE OF             
MTR04913100001000000000000000RA              45385742    005801670000016700000520000003NN  NNW 000                       N    
RDG04913100WATRL000000004K00000000000002555025409012015132456N000000000060N45       000160400K 10000000010000002557           
CUS0491310000104086304005         GROSS HELEN MARIE   10530 BIRD RIVER RD                     000N        CARE OF             
MTR04913100001000000000000000RA              75616048    005801680000016800000350000003NN  NNW 000                       N    
RDG04913100WATRL000000004K00000000000000095015609012015094614N000300000010N45       000250400K 10000000010000004829           
CUS0491310000104086305002         BURLESON ROGER L    10524 BIRD RIVER RD                     000N        CARE OF             
MTR04913100001000000000000000RA              39290811    005801690000016900000520000003NN  NNW 000                       N    
RDG04913100WATRL000000004K00000000000002475015709012015094721N000000000000N45       000670400K 10000000010000002460           
CUS0491310000104086306000         WOLINSKI BRYAN E    10516 BIRD RIVER RD                     000N        CARE OF             
MTR04913100001000000000000000RA              45385751    005801700000017000000520000003NN  NNW 000                       N    
RDG04913100WATRL000000004K00000000000000762015809012015094848N000000000000N45       000870400K 10000000010000000733           
CUS0491310000104086307008         DENNY CARL J        10510 BIRD RIVER RD                     000N        CARE OF             
MTR04913100001000000000000000RA              45385726    005801710000017100000520000003NN  NNW 000                       N    
RDG04913100WATRL000000004K00000000000001629015909012015095013N000000000000N45       000850400K 10000000010000001600           
CUS0491310000104420733000         HUTTON LEONARD G    10504 BIRD RIVER RD                     000N        CARE OF             
MTR04913100001000000000000000RA              10002503    005801720000017200000570000000NN  NNW 000                       N    
RDG04913100WATRL000000004K00000000000000871016009012015095142N000300000010N45       000890400K 10000000010000000839           
CUS0491310000104348907009         CAPPELLI TERRY A    10500 BIRD RIVER RD                     000N        CARE OF             
MTR04913100001000000000000000RA              14910829    005801730000017300000310000003NN  NNW 000                       N    
RDG04913100WATRL000000004K00000000000001128016109012015095510N000300000010N45       002080400K 10000000010000001077           
CUS0491310000104086308006         HOMSEY MICHAEL,3RD  10414 BIRD RIVER RD                     000N        CARE OF             
MTR04913100001000000000000000RA              10021117    005801740000017400000570000003NN  NNW 000                       N    
RDG04913100WATRL000000004K00000000000000171016209012015100005N000000000011N45       000410400K 10000000010000000154           
CUS0491310000104086309004         KUBILIUS HARRY A    10412 BIRD RIVER RD                     000N        CARE OF             
MTR04913100001000000000000000RA              14901539    005801750000017500000310000003NN  NNW 000                       N    
RDG04913100WATRL000000004K00000000000001086016309012015095924N000000000000N45       000980400K 10000000010000001065           
CUS0491310000104086310002         LAUER LILLIAN       10406 BIRD RIVER RD                     000N        CARE OF             
MTR04913100001000000000000000RA              45385755    005801760000017600000520000003NN  NNW 000                       N    
RDG04913100WATRL000000004K00000000000003069016409012015100118N000000000000N45       000730400K 10000000010000003067           
CUS0491310000104086311000         GOETZINGER MELVIN J 10400 BIRD RIVER RD                     000N        CARE OF             
MTR04913100001000000000000000RA              20968854    005801770000017700000520000003NN  NNW 000                       N    
RDG04913100WATRL000000004K00000000000003893016509012015100217N000000000000N45       000590400K 10000000010000003878           
CUS0491310000104086312008         MARK BLEVINS        10303 VINCENT FARM LN                   000N        CARE OF             
MTR04913100001000000000000000RA              01106630    005801780000017800000610000003NN  NNW 000                       N    
RDG04913100WATRL000000004K00000000000001025016709012015100625N000000000090N45       000270400K 10000000010000001025           
CUS0491310000104086313006         COX WILLIAM K       10307 VINCENT FARM LN                   000N        CARE OF             
MTR04913100001000000000000000RA              40048305    005801790000017900000520000003NN  NNW 000                       N    
RDG04913100WATRL000000004K00000000000002070016609012015100558N000000000000N45       002210400K 10000000010000002053           
CUS0491310000104086314004         LAUER, STANLEY  LAUE10315 VINCENT FARM LN                   000N        CARE OF             
MTR04913100001000000000000000RA              50479235    005801800000018000000520000003NN  NNW 000                       N    
RDG04913100WATRL000000004K00000000000004285016809012015100855N000000000000N45       001500400K 10000000010000004332           
CUS0491310000104086315001         WOODARD GUY JASON   10401 VINCENT FARM LN                   000N        CARE OF             
MTR04913100001000000000000000RA              24761287    005801810000018100000520000003NN  NNW 000                       N    
RDG04913100WATRL000000004K00000000000006811017009012015101010N000000000010N45       000120400K 10000000010000006860           
CUS0491310000104086316009         WELSH SCOTT LEBRUN  10403 VINCENT FARM LN                   000N        CARE OF             
MTR04913100001000000000000000RA              50384489    000101820000018200000520000003YN  NNW 000                       N    
MTS0491310050384489    L OF POLE 5 30 FT L OF GREEN HOUSES 6 FT BACK                                                          
RDG04913100WATRL000000004K00000000000001819017109012015101120N000400000010N45       000700400K 10000000010000002932           
CUS0491310000104376423002         GAMBRILL CHARLES ALB10403 VINCENT FARM LN                   000N        CARE OF             
MTR04913100001000000000000000RA              32898828    005801830000018300000520000003NN  NNW 000                       N    
RDG04913100WATRL000000004K00000000000004726016909012015100958N000300000010U45       000630400K 10000000010000004707           
CUS0491310000104364263006         ALPIN STEPHEN R     10415 VINCENT FARM LN                   000N        CARE OF             
MTR04913100001000000000000000RA              10023941    005801840000018400000570000003NN  NNW 000                       N    
RDG04913100WATRL000000004K00000000000000166017209012015101424N000000000000N45       001840400K 10000000010000000146           
CUS0491310000104086317007         KEDZIOR JOHN A      10503 VINCENT FARM LN                   000N        CARE OF             
MTR04913100001000000000000000RA              24232038    005801850000018500000520000003NN  NNW 000                       N    
RDG04913100WATRL000000004K00000000000006265017409012015102039N000000000080N45       002390400K 10000000010000006254           
CUS0491310000104086318005         BURRS CHARLES H     10505 VINCENT FARM LN                   000N        CARE OF             
MTR04913100001000000000000000RA              24232065    005801860000018600000520000003NN  NNW 000                       N    
RDG04913100WATRL000000004K00000000000003214017309012015101640N000300000010N45       001360400K 10000000010000003196           
CUS0491310000104086319003         BURLESON GEORGE E   10509 VINCENT FARM LN                   000N        CARE OF             
MTR04913100001000000000000000RA              24232040    005801870000018700000520000003NN  NNW 000                       N    
RDG04913100WATRL000000004K00000000000006417017509012015102054N000000000010N45       000150400K 10000000010000006423           
CUS0491310000104434902005         WELLS FARGO BANK TRU10512 VINCENT RD                        000N        CARE OF             
MTR04913100001000000000000000RA              01100318    005801880000018800000610000003NN  NNW 000                       N    
RDG04913100WATRL000000004K00000000000001128017609012015102057N000000000000U45       000030400K 10000000010000001148           
CUS0491310000104086320001         TEWELL SCOTT B      10519 VINCENT FARM LN                   000N        CARE OF             
MTR04913100001000000000000000RA              52771005    007501890000018900000520000003NN  NNW 000                       N    
RDG04913100WATRL000000004K00000000000001780017709012015102133N000000000000N45       000360400K 10000000010000001757           
CUS0491310000104086321009         HEIL RICHARD L      10521 VINCENT FARM LN                   000N        CARE OF             
MTR04913100001000000000000000RA              46881253    005801900000019000000520000003NN  NNW 000                       N    
RDG04913100WATRL000000004K00000000000001653017809012015102158N000300000010N45       000250400K 10000000010000001642           
CUS0491310000104086322007         MATTHEW D SNODGRASS 10525 VINCENT FARM LN                   000N        CARE OF             
MTR04913100001000000000000000RA              48584899    005801910000019100000520000003NN  NNW 000                       N    
RDG04913100WATRL000000004K00000000000001969017909012015102328N000000000030N45       000900400K 10000000010000001982           
CUS0491310000104086323005         YOX ARNOLD          10603 VINCENT FARM LN                   000N        CARE OF             
MTR04913100001000000000000000RA              00132610    005801920000019200000570000003NN  NNW 000                       N    
RDG04913100WATRL000000004K00000000000000777018009012015102502N000100000010N45       000940400K 10000000010000000777           
CUS0491310000104086324003         YOX DAVID           10607 VINCENT FARM LN                   000N        CARE OF             
MTR04913100001000000000000000RA              52287993    005801930000019300000520000003NN  NNW 000                       N    
RDG04913100WATRL000000004K00000000000000745018109012015112335N000000000000N45       035130400K 10000000010000000746           
CUS0491310000104086325000         IRIS J O'DEA        10604 VINCENT FARM LN                   000N        CARE OF             
MTR04913100001000000000000000RA              00132613    005801940000019400000570000003NN  NNW 000                       N    
RDG04913100WATRL000000004K00000000000000678018209012015112412N000000000000N45       000370400K 10000000010000000658           
CUS0491310000104086326008         MATSCHULAT GEORGE J 10602 VINCENT FARM LN                   000N        CARE OF             
MTR04913100001000000000000000RA              01097457    005801950000019500000610000003NN  NNW 000                       N    
RDG04913100WATRL000000004K00000000000001635018309012015112419N000000000010N45       000070400K 10000000010000001648           
CUS0491310000104086327006         MATSCHULAT V ELAINE 10600 VINCENT FARM LN                   000N        CARE OF             
MTR04913100001000000000000000RA              24232064    005801960000019600000520000003NN  NNW 000                       N    
RDG04913100WATRL000000004K00000000000002511018409012015112423N000000000000N45       000040400K 10000000010000002501           
CUS0491310000104086328004         PIELERT JOHN J      10520 VINCENT FARM LN                   000N        CARE OF             
MTR04913100001000000000000000RA              00132611    005801970000019700000570000003NN  NNW 000                       N    
RDG04913100WATRL000000004K00000000000000678018509012015112433N000000000010N45       000100400K 10000000010000000673           
CUS0491310000104086329002         ERIC M TENNEY       10518 VINCENT FARM LN                   000N        CARE OF             
MTR04913100001000000000000000RA              24232062    005801980000019800000520000003NN  NNW 000                       N    
RDG04913100WATRL000000004K00000000000001935018609012015112515N000000000040N45       000420400K 10000000010000001944           
CUS0491310000104086330000         BICKEL JANE GAMBRILL10516 VINCENT FARM LN                   000N        CARE OF             
MTR04913100001000000000000000RA              24231536    005801990000019900000520000003NN  NNW 000                       N    
RDG04913100WATRL000000004K00000000000001484018709012015112826N000000000000N45       001910400K 10000000010000001432           
CUS0491310000104086331008         DUCKWORTH ALLAN L   10514 VINCENT FARM LN                   000N        CARE OF             
MTR04913100001000000000000000RA              00132769    005802000000020000000570000003NN  NNW 000                       N    
RDG04913100WATRL000000004K00000000000000343018809012015112902N000000000000N45       000360400K 10000000010000000339           
CUS0491310000104086332006         DIETZ JOHN          10512 VINCENT FARM LN                   000N        CARE OF             
MTR04913100001000000000000000RA              9594827     005802010000020100000570000003NN  NNW 000                       N    
RDG04913100WATRL000000004K00000000000002730018909012015112946N000000000000N45       000440400K 10000000010000002708           
CUS0491310000104086333004         FIKE SAMUEL W       10510 VINCENT FARM LN                   000N        CARE OF             
MTR04913100001000000000000000RA              24231997    005802020000020200000520000003NN  NNW 000                       N    
RDG04913100WATRL000000004K00000000000003004019009012015113028N000300000010N45       000420400K 10000000010000002995           
CUS0491310000104086334002         LA PLANTE GIRARD B  10508 VINCENT FARM LN                   000N        CARE OF             
MTR04913100001000000000000000RA              32904148    005802030000020300000520000003NN  NNW 000                       N    
RDG04913100WATRL000000004K00000000000003268019109012015113124N000000000000N45       000560400K 10000000010000003251           
CUS0491310000104086335009         KOHLSTADT HORST K   10506 VINCENT FARM LN                   000N        CARE OF             
MTR04913100001000000000000000RA              24231992    005802040000020400000520000003NN  NNW 000                       N    
RDG04913100WATRL000000004K00000000000002840019209012015113137N000300000010N45       000130400K 10000000010000002830           
CUS0491310000104086336007         AZRA RANA           10504 VINCENT FARM LN                   000N        CARE OF             
MTR04913100001000000000000000RA              00132766    005802050000020500000570000003NN  NNW 000                       N    
RDG04913100WATRL000000004K00000000000000883019409012015113256N000300000010N45       000180400K 10000000010000000861           
CUS0491310000104086337005         SENTZ JOANN E       10502 VINCENT FARM LN                   000N        CARE OF             
MTR04913100001000000000000000RA              24231996    005802060000020600000520000003NN  NNW 000                       N    
RDG04913100WATRL000000004K00000000000005101019309012015113238N000000000000N45       000610400K 10000000010000005092           
CUS0491310000104086338003         MCCUBBIN ELAINE M   10500 VINCENT FARM LN                   000N        CARE OF             
MTR04913100001000000000000000RA              48590581    005802070000020700000520000003NN  NNW 000                       N    
RDG04913100WATRL000000004K00000000000001928019509012015113334N000000000000N45       000380400K 10000000010000001911           
CUS0491310000104454139009         DALE THOMAS JONES   5946 GAMBRILL CIR                       000N        CARE OF             
MTR04913100001000000000000000RA              76350146    000102080000020800000350000003NN  NNW 000                       N    
RDG04913100WATRL000000004K00000000000000126024909012015121321N000000000000N45       000580400K 10000000010000000106           
CUS0491310000104454158009         NATHANIEL TABERNERO 5944 GAMBRILL CIR                       000N        CARE OF             
MTR04913100001000000000000000RA              77895466    000102090000020900000360000003NN  NNW 000                       N    
RDG04913100WATRL000000004K00000000000000002024809012015121223N000000000010N45       000460400K 10000000010000000029           
CUS0491310000104454157001         SHERI SCHMITT       5942 GAMBRILL CIR                       000N        CARE OF             
MTR04913100001000000000000000RA              76350256    000102100000021000000350000003NN  NNW 000                       N    
RDG04913100WATRL000000004K00000000000000125024709012015121137N000300000010N45       000430400K 10000000010000000098           
CUS0491310000104454156003         MARK RAU            5940 GAMBRILL CIR                       000N        CARE OF             
MTR04913100001000000000000000RA              99999999    000102110000021100000440000003NN  NNW 000                       N    
RDG04913100WATRL000000004K00000000000000000024609012015121054S063000000000N45       000150400K 10000000010000000000           
CUS0491310000104454154008         COSSITER, HEATHER   5938 GAMBRILL CIR                       000N        CARE OF             
MTR04913100001000000000000000RA              99999999    000102120000021200000440000003NN  NNW 000                       N    
RDG04913100WATRL000000004K00000000000000000024509012015121039S063000000000N45       000070400K 10000000010000000000           
CUS0491310000104454153000         JEFFREY LOOONAN     5936 GAMBRILL CIR                       000N        CARE OF             
MTR04913100001000000000000000RA              99999999    000102130000021300000440000003NN  NNW 000                       N    
RDG04913100WATRL000000004K00000000000000000024409012015121032S063000000000N45       000480400K 10000000010000000000           
CUS0491310000104454152002         AMY KRAEMER         5934 GAMBRILL CIR                       000N        CARE OF             
MTR04913100001000000000000000RA              99999999    000102140000021400000440000003NN  NNW 000                       N    
RDG04913100WATRL000000004K00000000000000000024309012015120944S063000000000N45       000450400K 10000000010000000000           
CUS0491310000104454151004         CANDICE SJOLANDER   5930 GAMBRILL CIR                       000N        CARE OF             
MTR04913100001000000000000000RA              99999999    000102150000021500000440000003NN  NNW 000                       N    
RDG04913100WATRL000000004K00000000000000000024209012015120859S063000000000N45       000020400K 10000000010000000000           
CUS0491310000104454146004         AUSTIN OKORONKWO    5928 GAMBRILL CIR                       000N        CARE OF             
MTR04913100001000000000000000RA              99999999    000102160000021600000440000003NN  NNW 000                       N    
RDG04913100WATRL000000004K00000000000000000024109012015120857S063000000000N45       000980400K 10000000010000000000           
CUS0491310000104454145006         CLINTON SHIFFLETT   5926 GAMBRILL CIR                       000N        CARE OF             
MTR04913100001000000000000000RA              99999999    000102170000021700000440000003NY  NNW 000                       N    
MTM0491310099999999    COV                                                                                                    
RDG04913100WATRL000000004K00000000000000000000000000000000000 000000000000U         000000400  10000000010000000000           
CUS0491310000104454144009         TODD J CLINGAN      5924 GAMBRILL CIR                       000N        CARE OF             
MTR04913100001000000000000000RA              77895465    000102180000021800000360000003NN  NNW 000                       N    
RDG04913100WATRL000000004K00000000000000055024009012015120719N000000000010N45       000430400K 10000000010000000030           
CUS0491310000104454143001         RUDY C GAY          5920 GAMBRILL CIR                       000N        CARE OF             
MTR04913100001000000000000000RA              74817030    000102190000021900000350000003NN  NNW 000                       N    
RDG04913100WATRL000000004K00000000000000132023909012015120636N000300000010N45       000330400K 10000000010000000091           
CUS0491310000104454142003         PRASHANTH DAYANAND  5918 GAMBRILL CIR                       000N        CARE OF             
MTR04913100001000000000000000RA              77895458    000102200000022000000360000003NN  NNW 000                       N    
RDG04913100WATRL000000004K00000000000009974023809012015120603N000000000010N45       000370400K 10000000010000000000           
CUS0491310000104454141005         KENNEADA D ENNIS    5916 GAMBRILL CIR                       000N        CARE OF             
MTR04913100001000000000000000RA              76350147    000102210000022100000350000003NN  NNW 000                       N    
RDG04913100WATRL000000004K00000000000000095023609012015120513N000000000000N45       000300400K 10000000010000000078           
CUS0491310000104454140007         ADOGU OBINNA        5914 GAMBRILL CIR                       000N        CARE OF             
MTR04913100001000000000000000RA              74817034    000102220000022200000350000003NN  NNW 000                       N    
RDG04913100WATRL000000004K00000000000000069023709012015120526N000300000010N45       000130400K 10000000010000000053           
CUS0491310000104454136005         RYAN GRANRUTH       5912 GAMBRILL CIR                       000N        CARE OF             
MTR04913100001000000000000000RA              74817031    000102230000022300000350000003NN  NNW 000                       N    
RDG04913100WATRL000000004K00000000000000167023509012015120443N000300000010N45       000480400K 10000000010000000127           
CUS0491310000104454135007         DEJESUS RENANTE     5910 GAMBRILL CIR                       000N        CARE OF             
MTR04913100001000000000000000RA              74817033    000102240000022400000350000003NN  NNW 000                       N    
RDG04913100WATRL000000004K00000000000000201023409012015120355N000300000010N45       000220400K 10000000010000000162           
CUS0491310000104454134000         CHAUHAN RAMPAL      5908 GAMBRILL CIR                       000N        CARE OF             
MTR04913100001000000000000000RA              74817036    000102250000022500000350000003NN  NNW 000                       N    
RDG04913100WATRL000000004K00000000000000088023309012015120301N000300000010N45       000410400K 10000000010000000069           
CUS0491310000104454133002         SHEPARD, LAWRENCE T 5906 GAMBRILL CIR                       000N        CARE OF             
MTR04913100001000000000000000RA              74817035    000102260000022600000350000003NN  NNW 000                       N    
RDG04913100WATRL000000004K00000000000000143023209012015120333N000300000021N45       000320400K 10000000010000000129           
CUS0491310000104454132004         US HOME CORP        5904 GAMBRILL CIR                       000N        CARE OF             
MTR04913100001000000000000000RA              99999999    000102270000022700000440000003NN  NNW 000                       N    
RDG04913100WATRL000000004K00000000000000000022309012015120003N000000000000N45       000740400K 10000000010000000000           
CUS0491310000104454137003         MINDY S. CHRISTIANSO5905 GAMBRILL CIR                       000N        CARE OF             
MTR04913100001000000000000000RA              99999999    000102280000022800000440000003NN  NNW 000                       N    
RDG04913100WATRL000000004K00000000000000000022409012015121458S063000000001N45       000240400K 10000000010000000000           
CUS0491310000104454138001         YU CHENG JAN        5907 GAMBRILL CIR                       000N        CARE OF             
MTR04913100001000000000000000RA              74816990    000102290000022900000350000003NN  NNW 000                       N    
RDG04913100WATRL000000004K00000000000000260022509012015121434N000000000021N45       000730400K 10000000010000000212           
CUS0491310000104454147002         SUSAN P DEAL        5917 GAMBRILL CIR                       000N        CARE OF             
MTR04913100001000000000000000RA              99999999    000102300000023000000440000003NN  NNW 000                       N    
RDG04913100WATRL000000004K00000000000000000022609012015120030N000000000000N45       000040400K 10000000010000000000           
CUS0491310000104454148000         DAVID CHARLES NOLAN 5921 GAMBRILL CIR                       000N        CARE OF             
MTR04913100001000000000000000RA              99999999    000102310000023100000440000003NN  NNW 000                       N    
RDG04913100WATRL000000004K00000000000000000022709012015120032N000000000000N45       000020400K 10000000010000000000           
CUS0491310000104454149008         ERNESTINE BARNS     5927 GAMBRILL CIR                       000N        CARE OF             
MTR04913100001000000000000000RA              99999999    000102320000023200000440000003NN  NNW 000                       N    
RDG04913100WATRL000000004K00000000000000000022809012015120034N000000000000N45       000020400K 10000000010000000000           
CUS0491310000104454155005         OMAR S FEREJA       5935 GAMBRILL CIR                       000N        CARE OF             
MTR04913100001000000000000000RA              99999999    000102330000023300000440000003NN  NNW 000                       N    
RDG04913100WATRL000000004K00000000000000000022909012015120036N000000000000N45       000020400K 10000000010000000000           
CUS0491310000104454150006         ROBERT WILLIAM DELAN5941 GAMBRILL CIR                       000N        CARE OF             
MTR04913100001000000000000000RA              99999999    000102340000023400000440000003NN  NNW 000                       N    
RDG04913100WATRL000000004K00000000000000000023009012015120038N000000000000N45       000020400K 10000000010000000000           
CUS0491310000104432516005         VETTER HILDA L      5822 GAMBRILL RD                        000N        CARE OF             
MTR04913100001000000000000000RA              01080711    005802350000023500000610000003NN  NNW 000                       N    
RDG04913100WATRL000000004K00000000000000634019609012015113620N000000000000N45       001660400K 10000000010000000628           
CUS0491310000104432515007         MAKOWSKI RAYMOND ALB5820 GAMBRILL RD                        000N        CARE OF             
MTR04913100001000000000000000RA              75615529    005802360000023600000350000003NN  NNW 000                       N    
RDG04913100WATRL000000004K00000000000000260019709012015113709N000000000000N45       000490400K 10000000010000000229           
CUS0491310000104431891003         MAKOWSKI RAYMOND A,S5818 GAMBRILL RD                        000N        CARE OF             
MTR04913100001000000000000000RA              01082715    005802370000023700000610000000NN  NNW 000                       N    
RDG04913100WATRL000000004K00000000000001318019809012015113714N000000000000N45       000050400K 10000000010000001304           
CUS0491310000104086339001         DRAYER DAVID E      5816 GAMBRILL RD                        000N        CARE OF             
MTR04913100001000000000000000RA              75617582    005802380000023800000350000003NN  NNW 000                       N    
RDG04913100WATRL000000004K00000000000000111020009012015113844N000300000010N45       000120400K 10000000010000000100           
CUS0491310000104086340009         GUEST LEON T        5814 GAMBRILL RD                        000N        CARE OF             
MTR04913100001000000000000000RA              22609804    005802390000023900000520000003NN  NNW 000                       N    
RDG04913100WATRL000000004K00000000000003810019909012015113832N000000000000N45       000780400K 10000000010000003802           
CUS0491310000104086341007         JONES MARTIN J      5812 GAMBRILL RD                        000N        CARE OF             
MTR04913100001000000000000000RA              24232041    005802400000024000000520000003NN  NNW 000                       N    
RDG04913100WATRL000000004K00000000000004112020109012015113947N000000000010N45       000630400K 10000000010000004110           
CUS0491310000104086342005         DERRY JAMES         5810 GAMBRILL RD                        000N        CARE OF             
MTR04913100001000000000000000RA              00132768    005802410000024100000570000003NN  NNW 000                       N    
RDG04913100WATRL000000004K00000000000000819020309012015114117N000000000000N45       000560400K 10000000010000000808           
CUS0491310000104086343003         LOUIS / TERRI SZAFAR5808 GAMBRILL RD                        000N        CARE OF             
MTR04913100001000000000000000RA              00132333    005802420000024200000570000003NN  NNW 000                       N    
RDG04913100WATRL000000004K00000000000000753020509012015114223N000000000010N45       000220400K 10000000010000000735           
CUS0491310000104440356006         TOLSON RYAN C       10509 STAHL RD                          000N        CARE OF             
MTR04913100001000000000000000RA              14919953    007502430000024300000310000003NN  NNW 000                       N    
RDG04913100WATRL000000004K00000000000000865023109012015120048N000000000010N45       000100400K 10000000010000000866           
CUS0491310000104440357004         WALTERS MATTHEW     10511 STAHL RD                          000N        CARE OF             
MTR04913100001000000000000000RA              14918834    005802440000024400000310000003NN  NNW 000                       N    
RDG04913100WATRL000000004K00000000000001048021209012015115326N000000000000N45       000320400K 10000000010000001026           
CUS0491310000108440359001         HARVEY VAUGHN E     10507 STAHL RD                          000N        CARE OF             
MTR04913100001000000000000000RA              14919964    005802450000024500000310000003NN  NNW 000                       N    
RDG04913100WATRL000000004K00000000000000892021109012015115254N000300000010N45       002510400K 10000000010000000743           
CUS0491310000108440358003         KALIVOSHKO NAZAR    10506 STAHL RD                          000N        CARE OF             
MTR04913100001000000000000000RA              14919956    005802460000024600000310000003NY  NNW 000                       N    
MTM0491310014919956    BD                                                                                                     
RDG04913100WATRL000000004K00000000000000000000000000000000000 000000000000U         000000400  10000000010000000972           
CUS0491310000104086344001         BETLEY MICHAEL G,JR 5804 GAMBRILL RD                        000N        CARE OF             
MTR04913100001000000000000000RA              52287564    005802470000024700000520000003NN  NNW 000                       N    
RDG04913100WATRL000000004K00000000000002089020609012015114401N000000000000N45       000980400K 10000000010000002050           
CUS0491310000104086345008         WIECIECH THEODORE J 5802 GAMBRILL RD                        000N        CARE OF             
MTR04913100001000000000000000RA              00132767    005802480000024800000570000003NN  NNW 000                       N    
RDG04913100WATRL000000004K00000000000000846020709012015114447N000000000000N45       000460400K 10000000010000000815           
CUS0491310000104086346006         WELSLH LINDSAY M    10417 VINCENT RD                        000N        CARE OF             
MTR04913100001000000000000000RA              00133578    005802490000024900000570000003NN  NNW 000                       N    
RDG04913100WATRL000000004K00000000000001116020809012015114639N000300000010N45       001120400K 10000000010000001015           
CUS0491310000104086347004         HILL JENNIE V       5803 GAMBRILL RD                        000N        CARE OF             
MTR04913100001000000000000000RA              24225704    005802500000025000000520000003NN  NNW 000                       N    
RDG04913100WATRL000000004K00000000000002095020909012015114823N000300000040N45       001040400K 10000000010000002090           
CUS0491310000104086348002         TANKERSLEY WILLIAM E5805 GAMBRILL RD                        000N        CARE OF             
MTR04913100001000000000000000RA              00133729    005802510000025100000570000003NN  NNW 000                       N    
RDG04913100WATRL000000004K00000000000001540021009012015114843N000000000000N45       000200400K 10000000010000001519           
CUS0491310000104086349000         RAY ROBERT F        5809 GAMBRILL RD                        000N        CARE OF             
MTR04913100001000000000000000RA              52770427    005802520000025200000520000003NY  NNW 000                       N    
MTM0491310052770427    BD                                                                                                     
RDG04913100WATRL000000004K00000000000000000000000000000000000 000000000000U         000000400  10000000010000001152           
CUS0491310000104086350008         ASHLEY ELIZABETH G  5807 GAMBRILL RD                        000N        CARE OF             
MTR04913100001000000000000000RA              9683799     005802530000025300000570000003NY  NNW 000                       N    
MTM049131009683799     BD                                                                                                     
RDG04913100WATRL000000004K00000000000000000000000000000000000 000000000000U         000000400  10000000010000003007           
CUS0491310000104086351006         PIEPER NANCY L      5811 GAMBRILL RD                        000N        CARE OF             
MTR04913100001000000000000000RA              27821094    005802540000025400000520000003NN  NNW 000                       N    
RDG04913100WATRL000000004K00000000000002949020409012015114201N000000000000N45       000440400K 10000000010000002938           
CUS0491310000104086352004         H & C TATE          5813 GAMBRILL RD                        000N        CARE OF             
MTR04913100001000000000000000RA              00138872    005802550000025500000570000003NN  NNW 000                       N    
RDG04913100WATRL000000004K00000000000000412020209012015114021N000000000000N45       000340400K 10000000010000000412           
CUS0491310000104439005002         EMERICK DAVID W     5815 GAMBRILL RD                        000N        CARE OF             
MTR04913100001000000000000000RA              14912373    005802560000025600000310000003NN  NNW 000                       N    
RDG04913100WATRL000000004K00000000000000668021309012015115553N000000000000N45       001470400K 10000000010000000669           
CUS0491310000104086353002         KOERNER GEROGE M/CAT5822 LYTLE RD                           000N        CARE OF             
MTR04913100001000000000000000RA              48590764    005802570000025700000520000003NN  NNW 000                       N    
RDG04913100WATRL000000004K00000000000003311021409012015115607N000000000000N45       000140400K 10000000010000003327           
CUS0491310000104086354000         BAILEY MAURICE LEE  5818 LYTLE RD                           000N        CARE OF             
