FHDNNNN012002417002417002417N                                                                                           007601
RHD02672000NN02870287000002870000000002870287000296NY028702870287000200000000000000000000000001    08172015NY020000 N         
CUS0267200000104059316002         WAITE STEPHEN B     1006 W JOPPA RD                         000N        CARE OF             
MTR02672000001000000000000000RA              25781486    005800010000000100000520000003NN  NNW 000                       N    
RDG02672000WATRL000000004K00000000000004194005709082015083325N000000000000N40       000440400K 10000000010000004165           
CUS0267200000104059317000         CHAW TOA GOON       1008 W JOPPA RD                         000N        CARE OF             
MTR02672000001000000000000000RA              48594936    005800020000000200000520000003NN  NNW 000                       N    
RDG02672000WATRL000000004K00000000000003386005609082015083241N000000000000N40       000710400K 10000000010000003348           
CUS0267200000104059318008         FLINT MICHAEL B     1010 W JOPPA RD                         000N        CARE OF             
MTR02672000001000000000000000RA              40048175    005800030000000300000520000003NN  NNW 000                       N    
RDG02672000WATRL000000004K00000000000003171005509082015083130N000000000000N40       000340400K 10000000010000003156           
CUS0267200000104059319006         NOTZON EDMUND M,3RD 1012 W JOPPA RD                         000N        CARE OF             
MTR02672000001000000000000000RA              11471687    005800040000000400000570000003NN  NNW 000                       N    
RDG02672000WATRL000000004K00000000000005441005409082015083056N000000000000N40       001400400K 10000000010000005437           
CUS0267200000104059320004         SLAGLE SUSAN ELIZABE1014 W JOPPA RD                         000N        CARE OF             
MTR02672000001000000000000000RA              23645192    005800050000000500000520000003NN  NNW 000                       N    
RDG02672000WATRL000000004K00000000000004223005309082015082836N000000000000N40       000640400K 10000000010000004207           
CUS0267200000104059321002         SIMMET BRIAN        1016 W JOPPA RD                         000N        CARE OF             
MTR02672000001000000000000000RA              22608017    005800060000000600000520000003NN  NNW 000                       N    
RDG02672000WATRL000000004K00000000000004599005209082015082732N000000000000N40       000740400K 10000000010000004582           
CUS0267200000104059322000         MCGEEHAN JOHN C     1018 W JOPPA RD                         000N        CARE OF             
MTR02672000001000000000000000RA              35110119    005800070000000700000520000003NN  NNW 000                       N    
RDG02672000WATRL000000004K00000000000002203005109082015082618N000000000000N40       000620400K 10000000010000002194           
CUS0267200000104059323008         KIRWIN WILLIAM F,JR 1020 W JOPPA RD                         000N        CARE OF             
MTR02672000001000000000000000RA              22608021    005800080000000800000520000003NN  NNW 000                       N    
RDG02672000WATRL000000004K00000000000003673005009082015082516N000000000000N40       000480400K 10000000010000003663           
CUS0267200000104059324006         DOVE, PATRICIA E    1100 W JOPPA RD                         000N        CARE OF             
MTR02672000001000000000000000RA              22608010    005800090000000900000520000003NN  NNW 000                       N    
RDG02672000WATRL000000004K00000000000004737004909082015082428N000300000010N40       000640400K 10000000010000004716           
CUS0267200000104369813003         HARVEY CAROL DAVIS  1101 W JOPPA RD                         000N        CARE OF             
MTR02672000001000000000000000RA              31584097    005800100000001000000520000003NN  NNW 000                       N    
RDG02672000WATRL000000004K00000000000002605004809082015082324N000000000010N40       001250400K 10000000010000002585           
CUS0267200000104059325003         DONNELLY JANE W     1102 W JOPPA RD                         000N        CARE OF             
MTR02672000001000000000000000RA              26013314    005800110000001100000520000003NN  NNW 000                       N    
RDG02672000WATRL000000004K00000000000004991004709082015082119N000000000000N40       000540400K 10000000010000004980           
CUS0267200000104059326001         HOUARI GANI         1104 W JOPPA RD                         000N        CARE OF             
MTR02672000001000000000000000RA              11329482    005800120000001200000570000003NN  NNW 000                       N    
RDG02672000WATRL000000004K00000000000004244004609082015082025N000000000000N40       000930400K 10000000010000004230           
CUS0267200000104369286002         KNUDSEN KENNETH M   617 MEADOWRIDGE RD                      000N        CARE OF             
MTR02672000001000000000000000RA              33077202    005800130000001300000520000003NN  NNW 000                       N    
RDG02672000WATRL000000004K00000000000003787004409082015081725N000000000000N40       000510400K 10000000010000003754           
CUS0267200000104059327009         MAZZIERI CATIA      1106 W JOPPA RD                         000N        CARE OF             
MTR02672000001000000000000000RA              36696200    005800140000001400000520000003NN  NNW 000                       N    
RDG02672000WATRL000000004K00000000000002692004309082015081634N000000000000N40       000730400K 10000000010000002663           
CUS0267200000104059328007         FURTH MARY STANG,TRU1108 W JOPPA RD                         000N        CARE OF             
MTR02672000001000000000000000RA              36696203    005800150000001500000520000003NN  NNW 000                       N    
RDG02672000WATRL000000004K00000000000002627004209082015081521N000000000000N40       000910400K 10000000010000002607           
CUS0267200000104059329005         JACKSON JOHNNIE L   1110 W JOPPA RD                         000N        CARE OF             
MTR02672000001000000000000000RA              23051114    005800160000001600000520000003NN  NNW 000                       N    
RDG02672000WATRL000000004K00000000000004362004109082015081350N000000000010N40       000670400K 10000000010000004348           
CUS0267200000104059330003         TANG QI-QUN         1112 W JOPPA RD                         000N        CARE OF             
MTR02672000001000000000000000RA              01071732    005800170000001700000610000003NN  NNW 000                       N    
RDG02672000WATRL000000004K00000000000001187004009082015081243N000000000000N40       000600400K 10000000010000001172           
CUS0267200000104059331001         DINA F EL MAHDY     1114 W JOPPA RD                         000N        CARE OF             
MTR02672000001000000000000000RA              22608020    005800180000001800000520000003NN  NNW 000                       N    
RDG02672000WATRL000000004K00000000000005482003909082015081143N000000000000N40       000720400K 10000000010000005472           
CUS0267200000104059332009         NESER J JEROME,2ND  1116 W JOPPA RD                         000N        CARE OF             
MTR02672000001000000000000000RA              22608019    005800190000001900000520000003NN  NNW 000                       N    
RDG02672000WATRL000000004K00000000000005032003809082015081031N000000000000N40       002820400K 10000000010000004999           
CUS0267200000104059333007         MEYERS WILLIAM,2ND  1400 W JOPPA RD                         000N        CARE OF             
MTR02672000001000000000000000RA              23139147    000100200000002000000520000003NN  NNW 000                       N    
RDG02672000WATRL000000004K00000000000003820003209082015075211N000300000010N40       001000400K 10000000010000003761           
CUS0267200000104059334005         EMMONS RONALD F     1406 W JOPPA RD                         000N        CARE OF             
MTR02672000001000000000000000RA              01112540    005800210000002100000610000003NN  NNW 000                       N    
RDG02672000WATRL000000004K00000000000000900003109082015075031N000000000000N40       000470400K 10000000010000000885           
CUS0267200000104059335002         MCPHERSON SCOTT J   1408 W JOPPA RD                         000N        CARE OF             
MTR02672000001000000000000000RA              99411775    007500220000002200000570000003NN  NNW 000                       N    
RDG02672000WATRL000000004K00000000000001934003009082015074944N000000000000N40       002940400K 10000000010000001912           
CUS0267200000104059336000         RITTER CATHERINE ANN1414 W JOPPA RD                         000N        CARE OF             
MTR02672000001000000000000000RA              29403565    005800230000002300000520000003NN  NNW 000                       N    
RDG02672000WATRL000000004K00000000000003080021509082015113647N000000000000N40       000700400K 10000000010000003075           
CUS0267200000104059338006         C & P REAL ESTATE   1420 W JOPPA RD                         000N        CARE OF             
MTR02672000001000000000000000RA              76349747    007500240000002400000350000003NN  NNW 000                       N    
RDG02672000WATRL000000004K00000000000000019028409082015114527N000000000000N40       000130400K 10000000010000000019           
CUS0267200000104059339004         STORM WINONA S,TR   1422 W JOPPA RD                         000N        CARE OF             
MTR02672000001000000000000000RA              99186983    005800250000002500000570000003NN  NNW 000                       N    
RDG02672000WATRL000000004K00000000000000477028609082015114650N000000000000N40       000130400K 10000000010000000472           
CUS0267200000104059340002         LIVINGSTONE BARBARA 1424 W JOPPA RD                         000N        CARE OF             
MTR02672000001000000000000000RA              74689678    005800260000002600000350000003NN  NNW 000                       N    
RDG02672000WATRL000000004K00000000000000349002909082015074450N000000000000N40       001220400K 10000000010000000329           
CUS0267200000104059341000         STEPHEN J. MOULIS   1 ACORN HILL LN                         000N        CARE OF             
MTR02672000001000000000000000RA              39257999    007500270000002700000520000003NN  NNW 000                       N    
RDG02672000WATRL000000004K00000000000001638002009082015072940N000000000000N40       000100400K 10000000010000001612           
CUS0267200000104059342008         BATHO KATHLEEN M    4 ACORN HILL LN                         000N        CARE OF             
MTR02672000001000000000000000RA              46890407    007500280000002800000520000003NN  NNW 000                       N    
RDG02672000WATRL000000004K00000000000003414001709082015072831N000000000000N40       000470400K 10000000010000003284           
CUS0267200000104059343006         HOWARD JOHN B,TRUSTE3 ACORN HILL LN                         000N        CARE OF             
MTR02672000001000000000000000RA              14928350    007500290000002900000310000003NN  NNW 000                       N    
RDG02672000WATRL000000004K00000000000000887001909082015072930N000000000000N40       000280400K 10000000010000000863           
CUS0267200000104059344004         EARL RANDOLPH KUSER NS JOPPA RD 1500 FT                     000N        CARE OF             
MTR02672000001000000000000000RA              77545203    007500300000003000000350000003NN  NNW 000                       N    
RDG02672000WATRL000000004K00000000000000020001809082015072902N000000000010N40       000310400K 10000000010000000017           
CUS0267200000104059345001         BOBLITZ WILLIAM B   1426 W JOPPA RD                         000N        CARE OF             
MTR02672000001000000000000000RA              01106209    005800310000003100000610000003NN  NNW 000                       N    
RDG02672000WATRL000000004K00000000000007855002809082015074248N000000000010N40       000810400K 10000000010000007772           
CUS0267200000104059346009         ROLFES DORIS ANNE   1428 W JOPPA RD                         000N        CARE OF             
MTR02672000001000000000000000RA              01112638    005800320000003200000610000003NN  NNW 000                       N    
RDG02672000WATRL000000004K00000000000000543002709082015074127N000000000000N40       001300400K 10000000010000000535           
CUS0267200000104059347007         PONTIER JAMES T     1428A W JOPPA RD                        000N        CARE OF             
MTR02672000001000000000000000RA              33731255    007500330000003300000520000003NN  NNW 000                       N    
RDG02672000WATRL000000004K00000000000004016002609082015073917N000000000000N40       001350400K 10000000010000003992           
CUS0267200000104399369000         BRODY SAMUEL        1428B W JOPPA RD                        000N        CARE OF             
MTR02672000001000000000000000RA              40780568    005800340000003400000520000003NN  NNW 000                       N    
RDG02672000WATRL000000004K00000000000003289021209082015113516N000000000000N40       001320400K 10000000010000003272           
CUS0267200000104399370008         THOMPSON JOHN TILYNN1428C W JOPPA RD                        000N        CARE OF             
MTR02672000001000000000000000RA              40780567    005800350000003500000520000003NN  NNW 000                       N    
RDG02672000WATRL000000004K00000000000005374021309082015113520N000000000000N40       000040400K 10000000010000005340           
CUS0267200000104059348005         CAREY GEOFFREY R B  1430 W JOPPA RD                         000N        CARE OF             
MTR02672000001000000000000000RA              30000061    007500360000003600000570000003NY  NNW 000                       N    
MTM0267200030000061    15 INCH PLATE                                                                                          
RDG02672000WATRL000000004K00000000000001139021409082015113537N000000000000N40       000170400K 10000000010000001083           
CUS0267200000102429469006         EVANS SARAH L       1434 W JOPPA RD                         000N        CARE OF             
MTR02672000001000000000000000RA              10003863    005800370000003700000570000003NN  NNW 000                       N    
RDG02672000WATRL000000004K00000000000000949002209082015073212N000000000000N40       000240400K 10000000010000000898           
CUS0267200000102429468008         DRIPPS BARBARA L    1436 W JOPPA RD                         000N        CARE OF             
MTR02672000001000000000000000RA              99387384    005800380000003800000570000003NN  NNW 000                       N    
RDG02672000WATRL000000004K00000000000002714002109082015073148N000000000000N40       001280400K 10000000010000002626           
CUS0267200000104059349003         PHILIPP BRIAN C     1506 W JOPPA RD                         000N        CARE OF             
MTR02672000001000000000000000RA              44090023    005800390000003900000520000003NN  NNW 000                       N    
RDG02672000WATRL000000004K00000000000002673001109082015072022N000000000000N40       001830400K 10000000010000002660           
CUS0267200000104059350001         SKLADANEK MICHAEL D 1510 W JOPPA RD                         000N        CARE OF             
MTR02672000001000000000000000RA              01099075    005800400000004000000610000003NN  NNW 000                       N    
RDG02672000WATRL000000004K00000000000001090000809082015071348N000000000000N40       000430400K 10000000010000001072           
CUS0267200000104059351009         WILLIAMS LESLIE J   1508 W JOPPA RD                         000N        CARE OF             
MTR02672000001000000000000000RA              10013050    005800410000004100000570000003NN  NNW 000                       N    
RDG02672000WATRL000000004K00000000000000431001009082015071719N000000000000N40       000520400K 10000000010000000408           
CUS0267200000104059352007         MACGIBENY DAVID B   1512 W JOPPA RD                         000N        CARE OF             
MTR02672000001000000000000000RA              14911057    005800420000004200000310000003NN  NNW 000                       N    
RDG02672000WATRL000000004K00000000000001297000709082015071305N000000000000N40       000850400K 10000000010000001265           
CUS0267200000104059353005         KAMMER WILLIAM H,3RD1514 W JOPPA RD                         000N        CARE OF             
MTR02672000001000000000000000RA              40048217    005800430000004300000520000003NN  NNW 000                       N    
RDG02672000WATRL000000004K00000000000000683000509082015071059N000300000020N40       000770400K 10000000010000000674           
CUS0267200000104059354003         JOSEPH G HARBER     1516 W JOPPA RD                         000N        CARE OF             
MTR02672000001000000000000000RA              29403654    005800440000004400000520000003NN  NNW 000                       N    
RDG02672000WATRL000000004K00000000000001590000409082015070942N000100000010N40       000810400K 10000000010000001590           
CUS0267200000104059356008         WEEKS LINCOLN DOW   1606 W JOPPA RD                         000N        CARE OF             
MTR02672000001000000000000000RA              78024114    005800450000004500000620000003NN  NNW 000                       N    
RDG02672000WATRL000000004K00000000000000035000109082015064705N000000000000N40       000000400K 10000000010000000020           
CUS0267200000104059357006         MCCRYSTLE FRANK C   1531 W JOPPA RD                         000N        CARE OF             
MTR02672000001000000000000000RA              99412345    007500460000004600000570000003NN  NNW 000                       N    
RDG02672000WATRL000000004K00000000000001483000209082015070649N000300000010N40       011840400K 10000000010000001431           
CUS0267200000104059358004         LONG WILLIAM M,3RD  1523 W JOPPA RD                         000N        CARE OF             
MTR02672000001000000000000000RA              30249001    007500470000004700000520000003NN  NNW 000                       N    
RDG02672000WATRL000000004K00000000000004672000309082015070821N000000000000N40       000920400K 10000000010000004660           
CUS0267200000104059360000         WATERS THEODORE C   1517 W JOPPA RD                         000N        CARE OF             
MTR02672000001000000000000000RA              30001416    007500480000004800000570000003NN  NNW 000                       N    
RDG02672000WATRL000000004K00000000000000493000609082015071140N000000000000N40       000410400K 10000000010000000468           
CUS0267200000104059359002         HILL CHARLES B      1515 W JOPPA RD                         000N        CARE OF             
MTR02672000001000000000000000RA              52292302    007500490000004900000520000003NN  NNW 000                       N    
RDG02672000WATRL000000004K00000000000003384001309082015072306N000000000000N40       000780400K 10000000010000003355           
CUS0267200000104059362006         SADLER MARTHA M,TRUS1511 W JOPPA RD                         000N        CARE OF             
MTR02672000001000000000000000RA              27894187    007500500000005000000520000003NN  NNW 000                       N    
RDG02672000WATRL000000004K00000000000001470001509082015072520N000000000000N40       000200400K 10000000010000001418           
CUS0267200000104059361008         BATES HESTER J A    1513 W JOPPA RD                         000N        CARE OF             
MTR02672000001000000000000000RA              75425683    005800510000005100000350000003NN  NNW 000                       N    
RDG02672000WATRL000000004K00000000000000249001409082015072500N000000000031N40       000720400K 10000000010000000226           
CUS0267200000104365527003         SIMPSON KIMBERLY L  1511B W JOPPA RD                        000N        CARE OF             
MTR02672000001000000000000000RA              00119390    007500520000005200000570000003NY  NNW 000                       N    
MTM0267200000119390    INVESTIGATION                                                                                          
RDG02672000WATRL000000004K00000000000000000000900000000000000 000000000000U         000000400  10000000010000001425           
CUS0267200000104059363004         JOAN KLEIN          1507 W JOPPA RD                         000N        CARE OF             
MTR02672000001000000000000000RA              45376969    005800530000005300000520000003NN  NNW 000                       N    
RDG02672000WATRL000000004K00000000000000938001209082015072148N000000000000N40       000860400K 10000000010000000913           
CUS0267200000104059364002         PURINTON JANE M C I 1501 W JOPPA RD                         000N        CARE OF             
MTR02672000001000000000000000RA              48594111    005800540000005400000520000003NN  NNW 000                       N    
RDG02672000WATRL000000004K00000000000002989001609082015072744N000000000000N40       001440400K 10000000010000002982           
CUS0267200000104373583006         HOWARD HAYWARD R    1509 W JOPPA RD                         000N        CARE OF             
MTR02672000001000000000000000RA              33731254    007500550000005500000520000003NN  NNW 000                       N    
RDG02672000WATRL000000004K00000000000005794002409082015073558N000000000000N40       000740400K 10000000010000005780           
CUS0267200000102427568007         FRANGAKIS CONSTANTIN1320 WINE SPRING LN                     000N        CARE OF             
MTR02672000001000000000000000RA              00138032    005800560000005600000570000003NN  NNW 000                       N    
RDG02672000WATRL000000004K00000000000000000000000000000000000 000000000000U         000000400  10000000010000001222           
CUS0267200000102364616009         SEYMOUR STEPHEN D   1308 WINE SPRING LN                     000N        CARE OF             
MTR02672000001000000000000000RA              01105018    001500570000005700000610000003NN  NNW 000                       N    
RDG02672000WATRL000000005K00000000000003986002309082015073444N000300000010N40       001520500K 10000000010000003759           
CUS0267200000102443282005         JOEL SHER           1306 WINE SPRING LN                     000N        CARE OF             
MTR02672000001000000000000000RA              14929390    005800580000005800000310000003NN  NNW 000                       N    
RDG02672000WATRL000000004K00000000000000494021609082015113729N000000000000N40       000420400K 10000000010000000474           
CUS0267200000102364617007         MELFA LAWRENCE A    1302 WINE SPRING LN                     000N        CARE OF             
MTR02672000001000000000000000RA              01104993    001500590000005900000610000003NN  NNW 000                       N    
RDG02672000WATRL000000005K00000000000001757002509082015073702N000000000000N40       000640500K 10000000010000001735           
CUS0267200000102395103001         LAURING JOSH        1300 WINE SPRING LN                     000N        CARE OF             
MTR02672000001000000000000000RA              35100172    007500600000006000000520000003NN  NNW 000                       N    
RDG02672000WATRL000000004K00000000000003132021709082015113736N000000000000N40       000070400K 10000000010000003080           
CUS0267200000104059366007         POGGI FRANCIS X     1415 W JOPPA RD                         000N        CARE OF             
MTR02672000001000000000000000RA              00164392    000100610000006100000570000003NN  NNW 000                       N    
RDG02672000WATRL000000004K00000000000001998028309082015114514N000000000000N40       001250400K 10000000010000001829           
CUS0267200000104059367005         SHELHOSS SUSAN GILL 1407 W JOPPA RD                         000N        CARE OF             
MTR02672000001000000000000000RA              33079578    005800620000006200000520000003NN  NNW 000                       N    
RDG02672000WATRL000000004K00000000000003160028509082015114637N000000000000N40       000700400K 10000000010000003127           
CUS0267200000104059368003         WILLIAM H KNOTT     1401 W JOPPA RD                         000N        CARE OF             
MTR02672000001000000000000000RA              99080452    007500630000006300000570000003NN  NNW 000                       N    
RDG02672000WATRL000000004K00000000000002025003309082015075349N000000000000N40       000980400K 10000000010000002002           
CUS0267200000104059369001         STEPHEN G. NICHOLS  1200 WINE SPRING LN                     000N        CARE OF             
MTR02672000001000000000000000RA              23057391    005800640000006400000520000003NN  NNW 000                       N    
RDG02672000WATRL000000004K00000000000007937021809082015113758N000000000000N40       000220400K 10000000010000007901           
CUS0267200000104059370009         KERSHAW JOHN H      1202 WINE SPRING LN                     000N        CARE OF             
MTR02672000001000000000000000RA              35119296    005800650000006500000520000003NN  NNW 000                       N    
RDG02672000WATRL000000004K00000000000004373021909082015113819N000000000000N40       000210400K 10000000010000004336           
CUS0267200000104059371007         MICHAEL D DRUSANO   1204 WINE SPRING LN                     000N        CARE OF             
MTR02672000001000000000000000RA              23057422    005800660000006600000520000003NN  NNW 000                       N    
RDG02672000WATRL000000004K00000000000002869022009082015113822N000000000000N40       000030400K 10000000010000002838           
CUS0267200000104059372005         LEVY BERNARD A      7020 CHARLES RIDGE RD                   000N        CARE OF             
MTR02672000001000000000000000RA              54352137    005800670000006700000520000003NN  NNW 000                       N    
RDG02672000WATRL000000004K00000000000001355022109082015113825N000000000000N40       000030400K 10000000010000001341           
CUS0267200000104059373003         JILL ANN FISHER     7018 CHARLES RIDGE RD                   000N        CARE OF             
MTR02672000001000000000000000RA              20968829    005800680000006800000520000003NN  NNW 000                       N    
RDG02672000WATRL000000004K00000000000005996022209082015113828N000000000000N40       000030400K 10000000010000005978           
CUS0267200000104059374001         WILLIAM E LEONARD   7016 CHARLES RIDGE RD                   000N        CARE OF             
MTR02672000001000000000000000RA              45376663    005800690000006900000520000003NN  NNW 000                       N    
RDG02672000WATRL000000004K00000000000002046022309082015113831N000000000000N40       000030400K 10000000010000002027           
CUS0267200000104059375008         MACCUAIG RANDALL D  7014 CHARLES RIDGE RD                   000N        CARE OF             
MTR02672000001000000000000000RA              29681394    005800700000007000000520000003NN  NNW 000                       N    
RDG02672000WATRL000000004K00000000000006327022409082015113835N000000000000N40       000040400K 10000000010000006273           
CUS0267200000104059376006         JASON S FRIEDMAN    7012 CHARLES RIDGE RD                   000N        CARE OF             
MTR02672000001000000000000000RA              36693631    005800710000007100000520000003NN  NNW 000                       N    
RDG02672000WATRL000000004K00000000000003940022509082015113838N000000000000N40       000030400K 10000000010000003920           
CUS0267200000104059377004         LANNON STEPHEN J    6 CHARLES RIDGE GARTH                   000N        CARE OF             
MTR02672000001000000000000000RA              35097724    005800720000007200000520000003NN  NNW 000                       N    
RDG02672000WATRL000000004K00000000000004011022609082015113841N000000000000N40       000030400K 10000000010000003992           
CUS0267200000104059378002         BRENT R ATKINS      4 CHARLES RIDGE GARTH                   000N        CARE OF             
MTR02672000001000000000000000RA              00138210    005800730000007300000570000003NN  NNW 000                       N    
RDG02672000WATRL000000004K00000000000001313022709082015113846N000300000010N40       000050400K 10000000010000001299           
CUS0267200000104059379000         SPEDALERE RONALD J  2 CHARLES RIDGE GARTH                   000N        CARE OF             
MTR02672000001000000000000000RA              44176611    005800740000007400000520000003NN  NNW 000                       N    
RDG02672000WATRL000000004K00000000000002279022809082015113849N000000000000N40       000030400K 10000000010000002254           
CUS0267200000104059380008         REICHERT KENT T     1 CHARLES RIDGE GARTH                   000N        CARE OF             
MTR02672000001000000000000000RA              48592203    005800750000007500000520000003NN  NNW 000                       N    
RDG02672000WATRL000000004K00000000000002132022909082015113853N000000000000N40       000040400K 10000000010000002110           
CUS0267200000104059381006         FLANDERS MICHAEL C  3 CHARLES RIDGE GARTH                   000N        CARE OF             
MTR02672000001000000000000000RA              54350179    005800760000007600000520000003NN  NNW 000                       N    
RDG02672000WATRL000000004K00000000000002014023009082015113858N000300000010N40       000050400K 10000000010000001964           
CUS0267200000104059382004         BATT WILLIAM H      7008 CHARLES RIDGE RD                   000N        CARE OF             
MTR02672000001000000000000000RA              23057423    005800770000007700000520000003NN  NNW 000                       N    
RDG02672000WATRL000000004K00000000000004888023109082015113915N000000000000N40       000170400K 10000000010000004873           
CUS0267200000104059383002         THOMPSON GERALD C   7006 CHARLES RIDGE RD                   000N        CARE OF             
MTR02672000001000000000000000RA              44176705    005800780000007800000520000003NN  NNW 000                       N    
RDG02672000WATRL000000004K00000000000002390023209082015113920N000000000000N40       000050400K 10000000010000002376           
CUS0267200000104059384000         CULP JAMES R        7004 CHARLES RIDGE RD                   000N        CARE OF             
MTR02672000001000000000000000RA              54352138    005800790000007900000520000003NN  NNW 000                       N    
RDG02672000WATRL000000004K00000000000001767023309082015113926N000000000000N40       000060400K 10000000010000001746           
CUS0267200000104059385007         JOHN B WARD JR      7002 CHARLES RIDGE RD                   000N        CARE OF             
MTR02672000001000000000000000RA              23057426    005800800000008000000520000003NN  NNW 000                       N    
RDG02672000WATRL000000004K00000000000006154023409082015113930N000000000000N40       000040400K 10000000010000006134           
CUS0267200000104059386005         NICHOLS FOSTER,JR   7001 CHARLES RIDGE RD                   000N        CARE OF             
MTR02672000001000000000000000RA              10013051    005800810000008100000570000003NN  NNW 000                       N    
RDG02672000WATRL000000004K00000000000000422023509082015113939N000000000000N40       000090400K 10000000010000000395           
CUS0267200000104059387003         BOICE CHARLES R     7003 CHARLES RIDGE RD                   000N        CARE OF             
MTR02672000001000000000000000RA              54350608    005800820000008200000520000003NN  NNW 000                       N    
RDG02672000WATRL000000004K00000000000001924023609082015113942N000000000000N40       000030400K 10000000010000001872           
CUS0267200000104059388001         MERING DONALD R     7005 CHARLES RIDGE RD                   000N        CARE OF             
MTR02672000001000000000000000RA              54350604    005800830000008300000520000003NN  NNW 000                       N    
RDG02672000WATRL000000004K00000000000001734023709082015113945N000000000000N40       000030400K 10000000010000001711           
CUS0267200000104059389009         NOLAN JOSEPH P,SR   7007 CHARLES RIDGE RD                   000N        CARE OF             
MTR02672000001000000000000000RA              54352214    005800840000008400000520000000NN  NNW 000                       N    
RDG02672000WATRL000000004K00000000000002098023809082015113948N000000000000N40       000030400K 10000000010000002070           
CUS0267200000104059390007         BOZEL JOSEPH M      7009 CHARLES RIDGE RD                   000N        CARE OF             
MTR02672000001000000000000000RA              54350178    005800850000008500000520000003NN  NNW 000                       N    
RDG02672000WATRL000000004K00000000000000808023909082015113951N000000000000N40       000030400K 10000000010000000796           
CUS0267200000104059391005         HUBIN LYNN L        7011 CHARLES RIDGE RD                   000N        CARE OF             
MTR02672000001000000000000000RA              30517636    005800860000008600000520000003NN  NNW 000                       N    
RDG02672000WATRL000000004K00000000000003084024009082015113954N000000000000N40       000030400K 10000000010000003077           
CUS0267200000104059392003         BEHLERT MARCIA B    7013 CHARLES RIDGE RD                   000N        CARE OF             
MTR02672000001000000000000000RA              44176704    005800870000008700000520000003NN  NNW 000                       N    
RDG02672000WATRL000000004K00000000000001363024109082015113959N000100000010N40       000050400K 10000000010000001363           
CUS0267200000104059393001         FEENEY JOHN T       7015 CHARLES RIDGE RD                   000N        CARE OF             
MTR02672000001000000000000000RA              36693551    005800880000008800000520000003NN  NNW 000                       N    
RDG02672000WATRL000000004K00000000000002677024209082015114004N000000000000N40       000050400K 10000000010000002648           
CUS0267200000104059394009         TYNER MATTHEW D     7017 CHARLES RIDGE RD                   000N        CARE OF             
MTR02672000001000000000000000RA              41259847    005800890000008900000520000003NN  NNW 000                       N    
RDG02672000WATRL000000004K00000000000003280024309082015114007N000000000000N40       000030400K 10000000010000003259           
CUS0267200000104059395006         SHEEHAN DAVID J     1208 WINE SPRING LN                     000N        CARE OF             
MTR02672000001000000000000000RA              44175233    005800900000009000000520000003NN  NNW 000                       N    
RDG02672000WATRL000000004K00000000000002265024409082015114010N000000000000N40       000030400K 10000000010000002248           
CUS0267200000104059396004         VARIPATIS STEPHEN M 1210 WINE SPRING LN                     000N        CARE OF             
MTR02672000001000000000000000RA              01112539    005800910000009100000610000003NN  NNW 000                       N    
RDG02672000WATRL000000004K00000000000001270024509082015114013N000000000000N40       000030400K 10000000010000001254           
CUS0267200000104059397002         GONNERMANN CHARLES H1212 WINE SPRING LN                     000N        CARE OF             
MTR02672000001000000000000000RA              44176610    005800920000009200000520000003NN  NNW 000                       N    
RDG02672000WATRL000000004K00000000000002707024609082015114015N000000000000N40       000020400K 10000000010000002685           
CUS0267200000104059398000         ANDERSON STEPHEN J  1214 WINE SPRING LN                     000N        CARE OF             
MTR02672000001000000000000000RA              23057427    005800930000009300000520000003NN  NNW 000                       N    
RDG02672000WATRL000000004K00000000000004603024709082015114021N000300000010N40       000060400K 10000000010000004584           
CUS0267200000104059399008         BRITTAIN WAYNE M    1216 WINE SPRING LN                     000N        CARE OF             
MTR02672000001000000000000000RA              23645139    005800940000009400000520000003NN  NNW 000                       N    
RDG02672000WATRL000000004K00000000000000449024809082015114026N000000000000N40       000050400K 10000000010000000425           
CUS0267200000104059400004         FORRESTER WILLIAM C 1218 WINE SPRING LN                     000N        CARE OF             
MTR02672000001000000000000000RA              01100551    005800950000009500000610000003NN  NNW 000                       N    
RDG02672000WATRL000000004K00000000000000771024909082015114029N000000000000N40       000030400K 10000000010000000758           
CUS0267200000104059401002         EYRING RITA M       4 RUXTON RIDGE GARTH                    000N        CARE OF             
MTR02672000001000000000000000RA              01084419    005800960000009600000610000003NN  NNW 000                       N    
RDG02672000WATRL000000004K00000000000000699025009082015114033N000400000010N40       000040400K 10000000010000000694           
CUS0267200000104059402000         MATHEWS H BURKE     2 RUXTON RIDGE GARTH                    000N        CARE OF             
MTR02672000001000000000000000RA              01099076    005800970000009700000610000003NN  NNW 000                       N    
RDG02672000WATRL000000004K00000000000000426025109082015114045N000100000010N40       000120400K 10000000010000000426           
CUS0267200000104059403008         MCCLUSKY PHILIP M   1 RUXTON RIDGE GARTH                    000N        CARE OF             
MTR02672000001000000000000000RA              01084414    005800980000009800000610000003NN  NNW 000                       N    
RDG02672000WATRL000000004K00000000000001964025209082015114048N000000000000N40       000030400K 10000000010000001946           
CUS0267200000104059404006         LIMARI LIMITED      3 RUXTON RIDGE GARTH                    000N        CARE OF             
MTR02672000001000000000000000RA              45376967    005800990000009900000520000003NN  NNW 000                       N    
RDG02672000WATRL000000004K00000000000003092025309082015114052N000000000000N40       000040400K 10000000010000003062           
CUS0267200000104059405003         GRACE LOUIS ALAN    1224 WINE SPRING LN                     000N        CARE OF             
MTR02672000001000000000000000RA              54352426    005801000000010000000520000003NN  NNW 000                       N    
RDG02672000WATRL000000004K00000000000001496025409082015114057N000000000000N40       000050400K 10000000010000001466           
CUS0267200000104059406001         YORGIADIS STRATI    1226 WINE SPRING LN                     000N        CARE OF             
MTR02672000001000000000000000RA              44176612    005801010000010100000520000003NN  NNW 000                       N    
RDG02672000WATRL000000004K00000000000002720025509082015114109N000000000000N40       000120400K 10000000010000002695           
CUS0267200000104059407009         DEROGATIS LEONARD R 1228 WINE SPRING LN                     000N        CARE OF             
MTR02672000001000000000000000RA              54352432    005801020000010200000520000000NN  NNW 000                       N    
RDG02672000WATRL000000004K00000000000002000025609082015114112N000000000000N40       000030400K 10000000010000001981           
CUS0267200000104059408007         NELSON RONALD W     1230 WINE SPRING LN                     000N        CARE OF             
MTR02672000001000000000000000RA              54352431    005801030000010300000520000003NN  NNW 000                       N    
RDG02672000WATRL000000004K00000000000001443025709082015114115N000000000000N40       000030400K 10000000010000001413           
CUS0267200000104059409005         SMOLEV JAMES K      7000 CHARLES RIDGE RD                   000N        CARE OF             
MTR02672000001000000000000000RA              54350606    005801040000010400000520000003NN  NNW 000                       N    
RDG02672000WATRL000000004K00000000000001643025809082015114118N000000000000N40       000030400K 10000000010000001618           
CUS0267200000104059410003         BOLTON ANDREW B,3RD 6902 CHARLES RIDGE RD                   000N        CARE OF             
MTR02672000001000000000000000RA              45373977    005801050000010500000520000003NN  NNW 000                       N    
RDG02672000WATRL000000004K00000000000004641025909082015114122N000000000000N40       000040400K 10000000010000004590           
CUS0267200000104059411001         DIAZ GERALD         1300 WALNUT HILL LN                     000N        CARE OF             
MTR02672000001000000000000000RA              99411323    007501060000010600000570000003NN  NNW 000                       N    
RDG02672000WATRL000000004K00000000000003565026009082015114126N000000000000N40       000040400K 10000000010000003445           
CUS0267200000104059412009         SMITH MARGARET C    6900 CHARLES RIDGE RD                   000N        CARE OF             
MTR02672000001000000000000000RA              54350605    005801070000010700000520000003NN  NNW 000                       N    
RDG02672000WATRL000000004K00000000000002313026109082015114129N000000000000N40       000030400K 10000000010000002279           
CUS0267200000104059413007         COX BARBARA J       6901 CHARLES RIDGE RD                   000N        CARE OF             
MTR02672000001000000000000000RA              54352145    005801080000010800000520000003NN  NNW 000                       N    
RDG02672000WATRL000000004K00000000000002040026209082015114134N000300000010N40       000050400K 10000000010000002006           
CUS0267200000104059414005         LOWRY MATTHEW L     1239 WINE SPRING LN                     000N        CARE OF             
MTR02672000001000000000000000RA              36692294    005801090000010900000520000003NN  NNW 000                       N    
RDG02672000WATRL000000004K00000000000002445026309082015114138N000000000000N40       000040400K 10000000010000002425           
CUS0267200000104059415002         GISRIEL TIMOTHY     1237 WINE SPRING LN                     000N        CARE OF             
MTR02672000001000000000000000RA              27816756    005801100000011000000520000003NN  NNW 000                       N    
RDG02672000WATRL000000004K00000000000006571026409082015114142N000000000000N40       000040400K 10000000010000006544           
CUS0267200000104059416000         KORZENEWSKI PETER J 1235 WINE SPRING LN                     000N        CARE OF             
MTR02672000001000000000000000RA              44176709    005801110000011100000520000003NN  NNW 000                       N    
RDG02672000WATRL000000004K00000000000004317026509082015114148N000400000010N40       000060400K 10000000010000004302           
CUS0267200000104059417008         CHANDLER MARK U     1233 WINE SPRING LN                     000N        CARE OF             
MTR02672000001000000000000000RA              54352423    005801120000011200000520000003NN  NNW 000                       N    
RDG02672000WATRL000000004K00000000000001017026609082015114152N000000000000N40       000040400K 10000000010000001010           
CUS0267200000104059418006         DOBROSIELSKI DEVON A1231 WINE SPRING LN                     000N        CARE OF             
MTR02672000001000000000000000RA              29681398    005801130000011300000520000003NN  NNW 000                       N    
RDG02672000WATRL000000004K00000000000001361026709082015114202N000000000000N40       000100400K 10000000010000001345           
CUS0267200000104059419004         BROWN JEANNE GEIGER 1229 WINE SPRING LN                     000N        CARE OF             
MTR02672000001000000000000000RA              00138207    005801140000011400000570000003NN  NNW 000                       N    
RDG02672000WATRL000000004K00000000000001436026809082015114205N000000000000N40       000030400K 10000000010000001422           
CUS0267200000104059420002         MCKECHNIE JOSEPH    1227 WINE SPRING LN                     000N        CARE OF             
MTR02672000001000000000000000RA              54352425    005801150000011500000520000003NN  NNW 000                       N    
RDG02672000WATRL000000004K00000000000001196026909082015114209N000000000000N40       000040400K 10000000010000001186           
CUS0267200000104059421000         CINQUEGRANI GERALD W1225 WINE SPRING LN                     000N        CARE OF             
MTR02672000001000000000000000RA              54352429    005801160000011600000520000003NN  NNW 000                       N    
RDG02672000WATRL000000004K00000000000001830027009082015114211N000000000000N40       000020400K 10000000010000001798           
CUS0267200000104059422008         FASSIO GEORGE P     1223 WINE SPRING LN                     000N        CARE OF             
MTR02672000001000000000000000RA              99291336    005801170000011700000570000003NN  NNW 000                       N    
RDG02672000WATRL000000004K00000000000001563027109082015114214N000000000000N40       000030400K 10000000010000001545           
CUS0267200000104059423006         MEKULSKI JOSEPH L   1221 WINE SPRING LN                     000N        CARE OF             
MTR02672000001000000000000000RA              23057443    005801180000011800000520000003NN  NNW 000                       N    
RDG02672000WATRL000000004K00000000000004562027209082015114218N000000000000N40       000040400K 10000000010000004539           
CUS0267200000104059424004         CHACKO MATTHEWS     1219 WINE SPRING LN                     000N        CARE OF             
MTR02672000001000000000000000RA              23057430    005801190000011900000520000003NN  NNW 000                       N    
RDG02672000WATRL000000004K00000000000007413027309082015114228N000000000000N40       000100400K 10000000010000007396           
CUS0267200000104059425001         JOHNSON RONALD D    1 RUXTON RIDGE RD                       000N        CARE OF             
MTR02672000001000000000000000RA              00138209    005801200000012000000570000003NN  NNW 000                       N    
RDG02672000WATRL000000004K00000000000000981027409082015114231N000000000000N40       000030400K 10000000010000000975           
CUS0267200000104059426009         HUNTER PRIETTE      1217 WINE SPRING LN                     000N        CARE OF             
MTR02672000001000000000000000RA              9596687     005801210000012100000570000003NN  NNW 000                       N    
RDG02672000WATRL000000004K00000000000006331027509082015114241N000300000010N40       000100400K 10000000010000006248           
CUS0267200000104059427007         HAYDEN G PRICE      1215 WINE SPRING LN                     000N        CARE OF             
MTR02672000001000000000000000RA              29402159    005801220000012200000520000003NN  NNW 000                       N    
RDG02672000WATRL000000004K00000000000004011027609082015114245N000000000000N40       000040400K 10000000010000003999           
CUS0267200000104059428005         BIDDISON JAMES H    1213 WINE SPRING LN                     000N        CARE OF             
MTR02672000001000000000000000RA              54352427    005801230000012300000520000003NN  NNW 000                       N    
RDG02672000WATRL000000004K00000000000000749027709082015114249N000000000000N40       000040400K 10000000010000000740           
CUS0267200000104059429003         SIFAKIS GEORGE A    1211 WINE SPRING LN                     000N        CARE OF             
MTR02672000001000000000000000RA              23057425    005801240000012400000520000003NN  NNW 000                       N    
RDG02672000WATRL000000004K00000000000004216027809082015114254N000000000000N40       000050400K 10000000010000004191           
CUS0267200000104059430001         FRANKE SVIETLANA T  3 WINE SPRING GARTH                     000N        CARE OF             
MTR02672000001000000000000000RA              30517635    005801250000012500000520000003NN  NNW 000                       N    
RDG02672000WATRL000000004K00000000000003699027909082015114257N000000000000N40       000030400K 10000000010000003665           
CUS0267200000104059431009         MORRISON ELLEN GOLDS1 WINE SPRING GARTH                     000N        CARE OF             
MTR02672000001000000000000000RA              46886638    005801260000012600000520000003NN  NNW 000                       N    
RDG02672000WATRL000000004K00000000000001062028009082015114300N000000000000N40       000030400K 10000000010000001055           
CUS0267200000104059432007         ROSS BRIAN E        2 WINE SPRING GARTH                     000N        CARE OF             
MTR02672000001000000000000000RA              27819865    005801270000012700000520000003NN  NNW 000                       N    
RDG02672000WATRL000000004K00000000000000482028109082015114303N000000000000N40       000030400K 10000000010000000461           
CUS0267200000104059433005         FISH MICHAEL G      4 WINE SPRING GARTH                     000N        CARE OF             
MTR02672000001000000000000000RA              35102238    005801280000012800000520000003NN  NNW 000                       N    
RDG02672000WATRL000000004K00000000000003121028209082015114309N000000000000N40       000060400K 10000000010000003068           
CUS0267200000104059434003         WILLIAM G ANDERSON  1205 WINE SPRING LN                     000N        CARE OF             
MTR02672000001000000000000000RA              54352422    005801290000012900000520000003NN  NNW 000                       N    
RDG02672000WATRL000000004K00000000000001747019109082015111637N000000000000N40       000430400K 10000000010000001718           
CUS0267200000104059435000         DOBLER-CIOFALO JUDIT1203 WINE SPRING LN                     000N        CARE OF             
MTR02672000001000000000000000RA              48591382    005801300000013000000520000003NN  NNW 000                       N    
RDG02672000WATRL000000004K00000000000001540019209082015111640N000000000000N40       000030400K 10000000010000001503           
CUS0267200000104059436008         CHRISTOPHER ROGERS  1201 WINE SPRING LN                     000N        CARE OF             
MTR02672000001000000000000000RA              23057424    005801310000013100000520000003NN  NNW 000                       N    
RDG02672000WATRL000000004K00000000000009331019309082015111644N000000000000N40       000040400K 10000000010000009305           
CUS0267200000104059437006         ABDUL-GHANI ABDUL-GH1307 W JOPPA RD                         000N        CARE OF             
MTR02672000001000000000000000RA              99186985    005801320000013200000570000003NN  NNW 000                       N    
RDG02672000WATRL000000004K00000000000000724003409082015080206N000000000000N40       004970400K 10000000010000000711           
CUS0267200000104059438004         STAINMAN STUART J   1305 W JOPPA RD                         000N        CARE OF             
MTR02672000001000000000000000RA              35103632    005801330000013300000520000003NN  NNW 000                       N    
RDG02672000WATRL000000004K00000000000003685003509082015080325N000000000010N40       000790400K 10000000010000003657           
CUS0267200000104059439002         CHARLES F BLACK     1303 W JOPPA RD                         000N        CARE OF             
MTR02672000001000000000000000RA              01096630    005801340000013400000610000003NN  NNW 000                       N    
RDG02672000WATRL000000004K00000000000001731003609082015080456N000000000000N40       000910400K 10000000010000001698           
CUS0267200000104059440000         TUFANO RALPH P      1301 W JOPPA RD                         000N        CARE OF             
MTR02672000001000000000000000RA              44179369    005801350000013500000520000003NN  NNW 000                       N    
RDG02672000WATRL000000004K00000000000002829003709082015080549N000000000000N40       000530400K 10000000010000002801           
CUS0267200000104405220007         LAFONTAINE A E      7104 CHARLES SPRING WAY                 000N        CARE OF             
MTR02672000001000000000000000RA              44086984    005801360000013600000520000003NN  NNW 000                       N    
RDG02672000WATRL000000004K00000000000001820019409082015111653N000000000000N40       000090400K 10000000010000001802           
CUS0267200000104405219009         STEVEN R OSSMUS     7106 CHARLES SPRING WAY                 000N        CARE OF             
MTR02672000001000000000000000RA              44086933    005801370000013700000520000003NN  NNW 000                       N    
RDG02672000WATRL000000004K00000000000002148019509082015111657N000000000000N40       000040400K 10000000010000002128           
CUS0267200000104405218001         LALLEY THOMAS BARTON7102 CHARLES SPRING WAY                 000N        CARE OF             
MTR02672000001000000000000000RA              44086986    005801380000013800000520000003NN  NNW 000                       N    
RDG02672000WATRL000000004K00000000000000996019609082015111701N000000000000N40       000040400K 10000000010000000985           
CUS0267200000104405217003         GOELLER RICHARD E   7100 CHARLES SPRING WAY                 000N        CARE OF             
MTR02672000001000000000000000RA              44086931    005801390000013900000520000003NN  NNW 000                       N    
RDG02672000WATRL000000004K00000000000002776019709082015111704N000000000000N40       000030400K 10000000010000002743           
CUS0267200000104405191000         QUINN DARRIN        7103 CHARLES SPRING WAY                 000N        CARE OF             
MTR02672000001000000000000000RA              77877470    005801400000014000000360000003NN  NNW 000                       N    
RDG02672000WATRL000000004K00000000000000006019809082015111711N000000000010N40       000070400K 10000000010000000000           
CUS0267200000104405213002         SZELIGA SCOTT       7105 CHARLES SPRING WAY                 000N        CARE OF             
MTR02672000001000000000000000RA              77877471    005801410000014100000360000003NN  NNW 000                       N    
RDG02672000WATRL000000004K00000000000000022019909082015111716N000000000010N40       000050400K 10000000010000000000           
CUS0267200000104405214000         SHEPARD MICHAEL H   7107 CHARLES SPRING WAY                 000N        CARE OF             
MTR02672000001000000000000000RA              44086257    005801420000014200000520000003NN  NNW 000                       N    
RDG02672000WATRL000000004K00000000000002591020009082015111720N000000000000N40       000040400K 10000000010000002568           
CUS0267200000104405215007         PANOS LOUIS         7109 CHARLES SPRING WAY                 000N        CARE OF             
MTR02672000001000000000000000RA              44003804    005801430000014300000520000003NN  NNW 000                       N    
RDG02672000WATRL000000004K00000000000003310020109082015111723N000000000000N40       000030400K 10000000010000003300           
CUS0267200000104405216005         BARNES SHARON M     7111 CHARLES SPRING WAY                 000N        CARE OF             
MTR02672000001000000000000000RA              00138208    005801440000014400000570000003NN  NNW 000                       N    
RDG02672000WATRL000000004K00000000000001002020209082015111727N000000000000N40       000040400K 10000000010000000989           
CUS0267200000104405221005         LIDINSKY FRANK G    7113 CHARLES SPRING WAY                 000N        CARE OF             
MTR02672000001000000000000000RA              48591319    005801450000014500000520000003NN  NNW 000                       N    
RDG02672000WATRL000000004K00000000000001891020309082015113235N000000000000N40       009080400K 10000000010000001872           
CUS0267200000104405222003         MCCORMICK DANALD R  7115 CHARLES SPRING WAY                 000N        CARE OF             
MTR02672000001000000000000000RA              44086253    005801460000014600000520000003NN  NNW 000                       N    
RDG02672000WATRL000000004K00000000000001738020409082015113238N000000000000N40       000030400K 10000000010000001721           
CUS0267200000104405223001         MANOCHEH JULIA JOYCE7117 CHARLES SPRING WAY                 000N        CARE OF             
MTR02672000001000000000000000RA              44088327    005801470000014700000520000003NN  NNW 000                       N    
RDG02672000WATRL000000004K00000000000001089020509082015113243N000000000000N40       000050400K 10000000010000001078           
CUS0267200000104405224009         PELTON GREGORY H    7119 CHARLES SPRING WAY                 000N        CARE OF             
MTR02672000001000000000000000RA              48591590    005801480000014800000520000003NN  NNW 000                       N    
RDG02672000WATRL000000004K00000000000002416020609082015113246N000000000000N40       000030400K 10000000010000002368           
CUS0267200000104405225006         WARNS CHARLES E     7121 CHARLES SPRING WAY                 000N        CARE OF             
MTR02672000001000000000000000RA              40049157    005801490000014900000520000003NN  NNW 000                       N    
RDG02672000WATRL000000004K00000000000002626020709082015113250N000000000000N40       000040400K 10000000010000002621           
CUS0267200000104405226004         ALEVIZATOS CHRISTEN 7123 CHARLES SPRING WAY                 000N        CARE OF             
MTR02672000001000000000000000RA              44091210    005801500000015000000520000003NN  NNW 000                       N    
RDG02672000WATRL000000004K00000000000002486020809082015113254N000000000000N40       000040400K 10000000010000002459           
CUS0267200000104405227002         DAVIS ALEXIS C      7114 CHARLES SPRING WAY                 000N        CARE OF             
MTR02672000001000000000000000RA              44003805    005801510000015100000520000003NN  NNW 000                       N    
RDG02672000WATRL000000004K00000000000003602020909082015113258N000000000000N40       000040400K 10000000010000003502           
CUS0267200000104405228000         MACVAUGH EDWIN S    7112 CHARLES SPRING WAY                 000N        CARE OF             
MTR02672000001000000000000000RA              44091209    005801520000015200000520000003NN  NNW 000                       N    
RDG02672000WATRL000000004K00000000000003082021009082015113301N000000000000N40       000030400K 10000000010000003068           
CUS0267200000104405229008         KILROY GEORGE J     7110 CHARLES SPRING WAY                 000N        CARE OF             
MTR02672000001000000000000000RA              44091208    005801530000015300000520000003NN  NNW 000                       N    
RDG02672000WATRL000000004K00000000000001982021109082015113304N000000000000N40       000030400K 10000000010000001978           
CUS0267200000104373585001         DONNA GESTL         1103 W JOPPA RD                         000N        CARE OF             
MTR02672000001000000000000000RA              35108198    005801540000015400000520000003NN  NNW 000                       N    
RDG02672000WATRL000000004K00000000000004186004509082015081852N000000000000N40       000870400K 10000000010000004166           
CUS0267200000104059442006         MURRAY, CHRISTOPHER 618 MEADOWRIDGE RD                      000N        CARE OF             
MTR02672000001000000000000000RA              30525012    005801550000015500000520000003NN  NNW 000                       N    
RDG02672000WATRL000000004K00000000000003275016809082015111013N000300000010N40       000220400K 10000000010000003235           
CUS0267200000104059443004         SMOUSE H RUSSELL    614 MEADOWRIDGE RD                      000N        CARE OF             
MTR02672000001000000000000000RA              27816753    005801560000015600000520000003NN  NNW 000                       N    
RDG02672000WATRL000000004K00000000000000748016909082015111018N000000000000N40       000050400K 10000000010000000730           
CUS0267200000104059444002         KIRK AUSTIN P       612 MEADOWRIDGE RD                      000N        CARE OF             
MTR02672000001000000000000000RA              10020506    005801570000015700000570000003NN  NNW 000                       N    
RDG02672000WATRL000000004K00000000000000175017009082015111023N000400000010N40       000050400K 10000000010000000172           
CUS0267200000104059445009         THOMAS DEBORAH L    610 MEADOWRIDGE RD                      000N        CARE OF             
MTR02672000001000000000000000RA              77988010    005801580000015800000360000003NN  NNW 000                       N    
RDG02672000WATRL000000004K00000000000000068017109082015111028N000000000000N40       000050400K 10000000010000000024           
CUS0267200000104059446007         CURRAN JAMES 3RD    608 MEADOWRIDGE RD                      000N        CARE OF             
MTR02672000001000000000000000RA              01112643    005801590000015900000610000003NN  NNW 000                       N    
RDG02672000WATRL000000004K00000000000001305017209082015111038N000000000000N40       000100400K 10000000010000001279           
CUS0267200000104059447005         RODDY KEVIN M       606 MEADOWRIDGE RD                      000N        CARE OF             
MTR02672000001000000000000000RA              14906952    005801600000016000000310000003NN  NNW 000                       N    
RDG02672000WATRL000000004K00000000000001250016709082015110951N000000000000N40       000370400K 10000000010000001222           
CUS0267200000104059448003         WADSWORTH STANLEY BU604 MEADOWRIDGE RD                      000N        CARE OF             
MTR02672000001000000000000000RA              14905753    005801610000016100000310000003NN  NNW 000                       N    
RDG02672000WATRL000000004K00000000000000876015109082015105838N000000000000N40       000230400K 10000000010000000861           
CUS0267200000104059449001         HARRY W RODGERS IV  602 MEADOWRIDGE RD                      000N        CARE OF             
MTR02672000001000000000000000RA              01112642    005801620000016200000610000003NN  NNW 000                       N    
RDG02672000WATRL000000004K00000000000001245015209082015105841N000000000000N40       000030400K 10000000010000001222           
CUS0267200000102423698006         TUTRONE RONALD F    616 GREENWOOD RD                        000N        CARE OF             
MTR02672000001000000000000000RA              50789477    005801630000016300000520000000NN  NNW 000                       N    
RDG02672000WATRL000000004K00000000000002854015309082015105848N000000000000N40       000070400K 10000000010000002745           
CUS0267200000104059450009         GREEN F GILLIS      600 MEADOWRIDGE RD                      000N        CARE OF             
MTR02672000001000000000000000RA              00119711    007501640000016400000570000003NN  NNW 000                       N    
RDG02672000WATRL000000004K00000000000001452015409082015105851N000000000000N40       000030400K 10000000010000001434           
CUS0267200000102423837000         TUNNEY JOHN B       606 GREENWOOD RD                        000N        CARE OF             
MTR02672000001000000000000000RA              50789048    005801650000016500000520000003NN  NNW 000                       N    
RDG02672000WATRL000000004K00000000000001985015509082015105858N000000000010N40       000070400K 10000000010000001967           
CUS0267200000104059451007         TUCKER RICHARD B C,J530 GREENWOOD RD                        000N        CARE OF             
MTR02672000001000000000000000RA              00120449    007501660000016600000570000003NN  NNW 000                       N    
RDG02672000WATRL000000004K00000000000003975015609082015105904N000000000000N40       000060400K 10000000010000003865           
CUS0267200000102415896006         FERRELL RALPH       522 GREENWOOD RD                        000N        CARE OF             
MTR02672000001000000000000000RA              48588033    005801670000016700000520000003NN  NNW 000                       N    
RDG02672000WATRL000000004K00000000000002525015709082015105909N000000000000N40       000050400K 10000000010000002499           
CUS0267200000108415863003         JOHN ANDREW L       518 GREENWOOD RD                        000N        CARE OF             
MTR02672000001000000000000000RA              48584042    005801680000016800000520000003NN  NNW 000                       N    
RDG02672000WATRL000000004K00000000000003720015809082015105918N000000000000N40       000090400K 10000000010000003695           
CUS0267200000102415897004         SCOTT D POTTER      514 GREENWOOD RD                        000N        CARE OF             
MTR02672000001000000000000000RA              48588031    005801690000016900000520000003NN  NNW 000                       N    
RDG02672000WATRL000000004K00000000000003218015909082015105938N000000000000N40       000200400K 10000000010000003184           
CUS0267200000102415898002         STEPHEN C MATHAI    512 GREENWOOD RD                        000N        CARE OF             
MTR02672000001000000000000000RA              50479614    005801700000017000000520000003NN  NNW 000                       N    
RDG02672000WATRL000000004K00000000000002865016009082015110245N000000000000N40       001870400K 10000000010000002844           
CUS0267200000102428366005         ZAHARRIS DRAKE C    510 GREENWOOD RD                        000N        CARE OF             
MTR02672000001000000000000000RA              54351306    005801710000017100000520000003NN  NNW 000                       N    
RDG02672000WATRL000000004K00000000000001984016109082015110251N000000000000N40       000060400K 10000000010000001963           
CUS0267200000102415899000         ALEXANDER PHILIP    508 GREENWOOD RD                        000N        CARE OF             
MTR02672000001000000000000000RA              48594087    005801720000017200000520000003NN  NNW 000                       N    
RDG02672000WATRL000000004K00000000000003036016209082015110259N000000000000N40       000080400K 10000000010000003023           
CUS0267200000104059452005         ODONOVAN CHARLES,5TH600 GREENWOOD RD                        000N        CARE OF             
MTR02672000001000000000000000RA              00119715    007501730000017300000570000003NN  NNW 000                       N    
RDG02672000WATRL000000004K00000000000003508016309082015110312N000000000000N40       000130400K 10000000010000003317           
CUS0267200000104059453003         CAMMACK JOHN H      605 MEADOWRIDGE RD                      000N        CARE OF             
MTR02672000001000000000000000RA              14911775    005801740000017400000310000003NN  NNW 000                       N    
RDG02672000WATRL000000004K00000000000001601016409082015110535N000000000000N40       001430400K 10000000010000001579           
CUS0267200000104059454001         MCNALLY CHARLES C   607 MEADOWRIDGE RD                      000N        CARE OF             
MTR02672000001000000000000000RA              99388573    005801750000017500000570000003NN  NNW 000                       N    
RDG02672000WATRL000000004K00000000000001875016509082015110551N000000000000N40       000160400K 10000000010000001863           
CUS0267200000104059455008         GUARNIERI BARBARA F 609 MEADOWRIDGE RD                      000N        CARE OF             
MTR02672000001000000000000000RA              01112645    005801760000017600000610000003NN  NNW 000                       N    
RDG02672000WATRL000000004K00000000000001639016609082015110914N000000000000N40       002030400K 10000000010000001610           
CUS0267200000104059456006         MASLIN ROBERT S,3RD 611 MEADOWRIDGE RD                      000N        CARE OF             
MTR02672000001000000000000000RA              29082604    005801770000017700000520000003NN  NNW 000                       N    
RDG02672000WATRL000000004K00000000000001724014809082015105752N000300000010N40       005740400K 10000000010000001755           
CUS0267200000104059457004         KUSER E RANDOLPH,JR 613 MEADOWRIDGE RD                      000N        CARE OF             
MTR02672000001000000000000000RA              41588205    005801780000017800000520000003NN  NNW 000                       N    
RDG02672000WATRL000000004K00000000000001858014909082015105802N000000000000N40       000100400K 10000000010000001843           
CUS0267200000104059458002         STACZEK ERIC J      615 MEADOWRIDGE RD                      000N        CARE OF             
MTR02672000001000000000000000RA              35114041    005801790000017900000520000003NN  NNW 000                       N    
RDG02672000WATRL000000004K00000000000002426015009082015105815N000000000000N40       000130400K 10000000010000002411           
CUS0267200000104059460008         OCONOR HERBERT R,3RD628 CHESTNUT AVE                        000N        CARE OF             
MTR02672000001000000000000000RA              48581763    000101800000018000000520000003NN  NNW 000                       N    
RDG02672000WATRL000000004K00000000000001791005809082015084413N000000000000N40       006480400K 10000000010000001782           
CUS0267200000104059461006         MEYER WILLIAM K     626 CHESTNUT AVE                        000N        CARE OF             
MTR02672000001000000000000000RA              45374682    005801810000018100000520000003NN  NNW 000                       N    
RDG02672000WATRL000000004K00000000000002331006009082015084706N000000000000N40       000840400K 10000000010000002318           
CUS0267200000104059462004         HUBER ERWIN W       620 CHESTNUT AVE                        000N        CARE OF             
MTR02672000001000000000000000RA              00120343    007501820000018200000570000003NN  NNW 000                       N    
RDG02672000WATRL000000004K00000000000009990005909082015084542N000000000000N40       000890400K 10000000010000009822           
CUS0267200000104059463002         HEARN B FRANKLIN,4TH616 CHESTNUT AVE                        000N        CARE OF             
MTR02672000001000000000000000RA              14928850    005801830000018300000310000003NN  NNW 000                       N    
RDG02672000WATRL000000004K00000000000002058006109082015085001N000000000000N40       001750400K 10000000010000002026           
CUS0267200000104059464000         FITZPATRICK JAMES LA614 CHESTNUT AVE                        000N        CARE OF             
MTR02672000001000000000000000RA              27895776    007501840000018400000520000003NN  NNW 000                       N    
RDG02672000WATRL000000004K00000000000003583006209082015085251N000000000000N40       001700400K 10000000010000003550           
CUS0267200000104059465007         WALTER STEPHEN JR   610 CHESTNUT AVE                        000N        CARE OF             
MTR02672000001000000000000000RA              01112641    005801850000018500000610000003NN  NNW 000                       N    
RDG02672000WATRL000000004K00000000000002650014709082015104818N000000000000N40       001460400K 10000000010000002570           
CUS0267200000104059466005         GREENLAND CHARLES R,608 CHESTNUT AVE                        000N        CARE OF             
MTR02672000001000000000000000RA              27816783    005801860000018600000520000003NN  NNW 000                       N    
RDG02672000WATRL000000004K00000000000005232014609082015104552N000000000000N40       005000400K 10000000010000005218           
CUS0267200000104059467003         PAFFENBARGER JOHN   606 CHESTNUT AVE                        000N        CARE OF             
MTR02672000001000000000000000RA              23057383    005801870000018700000520000003NN  NNW 000                       N    
RDG02672000WATRL000000004K00000000000004684006309082015085602N000000000000N40       001910400K 10000000010000004665           
CUS0267200000104059468001         KELLY JOHN R        604 CHESTNUT AVE                        000N        CARE OF             
MTR02672000001000000000000000RA              32573228    005801880000018800000520000003NN  NNW 000                       N    
RDG02672000WATRL000000004K00000000000008159006409082015085903N000000000000N40       001810400K 10000000010000008050           
CUS0267200000104059469009         KELLY JOHN R        602 CHESTNUT AVE                        000N        CARE OF             
MTR02672000001000000000000000RA              45389325    007501890000018900000520000003NN  NNW 000                       N    
RDG02672000WATRL000000004K00000000000001658006509082015090057N000300000010N40       001140400K 10000000010000001649           
CUS0267200000104059470007         SEXTON CARLTON C    600 CHESTNUT AVE                        000N        CARE OF             
MTR02672000001000000000000000RA              30517690    005801900000019000000520000003NN  NNW 000                       N    
RDG02672000WATRL000000004K00000000000004701006709082015090520N000000000000N40       000970400K 10000000010000004677           
CUS0267200000104059471005         BOULAY RAYMOND E    520 CHESTNUT AVE                        000N        CARE OF             
MTR02672000001000000000000000RA              40048273    005801910000019100000520000003NN  NNW 000   VACANT / LOT        N    
RDG02672000WATRL000000004K00000000000004568006609082015090343N000000000000N40       001660400K 10000000010000004568           
CUS0267200000104059472003         LOYOLA HIGH SCHOOL  518 CHESTNUT AVE                        000N        CARE OF             
MTR02672000001000000000000000RA              10012260    005801920000019200000570000003NN  NNW 000                       N    
RDG02672000WATRL000000004K00000000000000654006809082015090701N000000000000N40       001010400K 10000000010000000619           
CUS0267200000104059473001         GIANGRANDI MICHAEL J814 BOYCE AVE                           000N        CARE OF             
MTR02672000001000000000000000RA              23057456    005801930000019300000520000003NN  NNW 000                       N    
RDG02672000WATRL000000004K00000000000006498007809082015092555N000400000030N40       001930400K 10000000010000006467           
CUS0267200000104059474009         ALLSTON ADAM        403 CHESTNUT AVE                        000N        CARE OF             
MTR02672000001000000000000000RA              30001482    007501940000019400000570000003NN  NNW 000                       N    
RDG02672000WATRL000000004K00000000000000478007609082015092108N000000000000N40       001060400K 10000000010000000429           
CUS0267200000104059475006         TULLY STEPHEN RICHAR405 CHESTNUT AVE                        000N        CARE OF             
MTR02672000001000000000000000RA              46876177    005801950000019500000520000003NN  NNW 000                       N    
RDG02672000WATRL000000004K00000000000004387007709082015092242N000000000000N40       000940400K 10000000010000004363           
CUS0267200000104059476004         BROWNSTEIN MILTON JO407 CHESTNUT AVE                        000N        CARE OF             
MTR02672000001000000000000000RA              99293650    005801960000019600000570000003NN  NNW 000                       N    
RDG02672000WATRL000000004K00000000000002070007509082015091922N000000000000N40       001260400K 10000000010000002041           
CUS0267200000104059477002         SWEENEY WILLIAM B,JR409 CHESTNUT AVE                        000N        CARE OF             
MTR02672000001000000000000000RA              30527415    005801970000019700000520000003NN  NNW 000                       N    
RDG02672000WATRL000000004K00000000000003081007409082015091716N000000000000N40       000650400K 10000000010000003056           
CUS0267200000104059478000         BURKE JOANN E       411 CHESTNUT AVE                        000N        CARE OF             
MTR02672000001000000000000000RA              74692143    005801980000019800000350000003NN  NNW 000                       N    
RDG02672000WATRL000000004K00000000000000114007309082015091611N000000000000N40       000720400K 10000000010000000103           
CUS0267200000104059479008         MULLIGAN KEVIN      413 CHESTNUT AVE                        000N        CARE OF             
MTR02672000001000000000000000RA              27132334    005801990000019900000520000003NN  NNW 000                       N    
RDG02672000WATRL000000004K00000000000002739007209082015091459N000000000000N40       000550400K 10000000010000002713           
CUS0267200000104059480006         SOMMERHOF ROY A,3RD 415 CHESTNUT AVE                        000N        CARE OF             
MTR02672000001000000000000000RA              14900722    005802000000020000000310000003NN  NNW 000                       N    
RDG02672000WATRL000000004K00000000000001418007109082015091404N000000000000N40       000780400K 10000000010000001395           
CUS0267200000104059481004         MOLZ ROBERT J       417 CHESTNUT AVE                        000N        CARE OF             
MTR02672000001000000000000000RA              99999999    005802010000020100000610000003NN  NNW 000                       N    
RDG02672000WATRL000000004K00000000000000729007009082015091246N000000000000N40       000890400K 10000000010000000708           
CUS0267200000104059482002         LEMBERG DANIEL M    419 CHESTNUT AVE                        000N        CARE OF             
MTR02672000001000000000000000RA              77883582    005802020000020200000360000003NN  NNW 000                       N    
RDG02672000WATRL000000004K00000000000000015006909082015091117N000000000010N40       002560400K 10000000010000000000           
CUS0267200000104059483000         DELAHAY ANITA       829 LOYOLA DR                           000N        CARE OF             
MTR02672000001000000000000000RA              27132341    005802030000020300000520000003NN  NNW 000                       N    
RDG02672000WATRL000000004K00000000000002874010109082015095232N000000000000N40       001060400K 10000000010000002858           
CUS0267200000104059484008         GRACE NANCY C       418 TERRACE WAY                         000N        CARE OF             
MTR02672000001000000000000000RA              48594041    005802040000020400000520000003NN  NNW 000                       N    
RDG02672000WATRL000000004K00000000000001551010009082015095046N000000000000N40       000580400K 10000000010000001535           
CUS0267200000104059485005         EDWARDS ROBERT O    416 TERRACE WAY                         000N        CARE OF             
MTR02672000001000000000000000RA              10012320    005802050000020500000570000003NN  NNW 000                       N    
RDG02672000WATRL000000004K00000000000000518009909082015094948N000000000000N40       000430400K 10000000010000000489           
CUS0267200000104059486003         QUINGERT JOSEPH J,JR414 TERRACE WAY                         000N        CARE OF             
MTR02672000001000000000000000RA              31582121    005802060000020600000520000000NN  NNW 000                       N    
RDG02672000WATRL000000004K00000000000001438009609082015094720N000000000000N40       000450400K 10000000010000001432           
CUS0267200000104059487001         RICHARDSON JOHN W   412 TERRACE WAY                         000N        CARE OF             
MTR02672000001000000000000000RA              32902139    005802070000020700000520000000NN  NNW 000                       N    
RDG02672000WATRL000000004K00000000000002372009509082015094635N000000000000N40       000500400K 10000000010000002358           
CUS0267200000104059488009         KRAFT DONALD J      410 TERRACE WAY                         000N        CARE OF             
MTR02672000001000000000000000RA              33730653    005802080000020800000520000003NN  NNW 000                       N    
RDG02672000WATRL000000004K00000000000003271009209082015094239N000000000000N40       000680400K 10000000010000003254           
CUS0267200000104059489007         LEATHERWOOD MICHAEL 408 TERRACE WAY                         000N        CARE OF             
MTR02672000001000000000000000RA              33080583    005802090000020900000520000003NN  NNW 000                       N    
RDG02672000WATRL000000004K00000000000004289009009082015094101N000000000000N40       000580400K 10000000010000004252           
CUS0267200000104059490005         KANE TOM            406 TERRACE WAY                         000N        CARE OF             
MTR02672000001000000000000000RA              10001801    005802100000021000000570000003NN  NNW 000                       N    
RDG02672000WATRL000000004K00000000000000408008809082015093922N000000000000N40       000580400K 10000000010000000395           
CUS0267200000104059491003         COCKERILLE DARYL J  404 TERRACE WAY                         000N        CARE OF             
MTR02672000001000000000000000RA              48594171    005802110000021100000520000003NN  NNW 000                       N    
RDG02672000WATRL000000004K00000000000003576008709082015093824N000000000000N40       000800400K 10000000010000003548           
CUS0267200000104059492001         GRIMM PAUL W        400 TERRACE WAY                         000N        CARE OF             
MTR02672000001000000000000000RA              30521307    005802120000021200000520000003NN  NNW 000                       N    
RDG02672000WATRL000000004K00000000000004586008109082015092947N000000000000N40       000670400K 10000000010000004554           
CUS0267200000104059493009         HOWE STEPHEN W      402 RANGE RD                            000N        CARE OF             
MTR02672000001000000000000000RA              40321196    005802130000021300000520000003NN  NNW 000                       N    
RDG02672000WATRL000000004K00000000000003475007909082015092739N000300000010N40       001040400K 10000000010000003425           
CUS0267200000104059494007         TRASATTI GINA M     405 RANGE RD                            000N        CARE OF             
MTR02672000001000000000000000RA              33077170    005802140000021400000520000003NN  NNW 000                       N    
RDG02672000WATRL000000004K00000000000001938008009082015092840N000000000000N40       000610400K 10000000010000001925           
CUS0267200000104059495004         HICKS JOHNNIE BYRON 407 RANGE RD                            000N        CARE OF             
MTR02672000001000000000000000RA              48594203    005802150000021500000520000003NN  NNW 000                       N    
RDG02672000WATRL000000004K00000000000001334008209082015093112N000400000010N40       000850400K 10000000010000001326           
CUS0267200000104059496002         ALISON L. KRUK      409 RANGE RD                            000N        CARE OF             
MTR02672000001000000000000000RA              48594170    005802160000021600000520000003NN  NNW 000                       N    
RDG02672000WATRL000000004K00000000000001395008309082015093257N000000000000N40       001050400K 10000000010000001383           
CUS0267200000104059497000         JOSEPH HOWARD       411 RANGE RD                            000N        CARE OF             
MTR02672000001000000000000000RA              48594220    005802170000021700000520000003NN  NNW 000                       N    
RDG02672000WATRL000000004K00000000000001271018009082015111444N000000000000N40       000550400K 10000000010000001245           
CUS0267200000104059498008         CAREY EDWARD H      413 RANGE RD                            000N        CARE OF             
MTR02672000001000000000000000RA              48594199    005802180000021800000520000003NN  NNW 000                       N    
RDG02672000WATRL000000004K00000000000001386018109082015111448N000000000020N40       000040400K 10000000010000001372           
CUS0267200000104059499006         LOTT W DEWITT,JR    803 RANGE CT                            000N        CARE OF             
MTR02672000001000000000000000RA              14918814    005802190000021900000310000003NN  NNW 000                       N    
RDG02672000WATRL000000004K00000000000000677018209082015111452N000000000000N40       000040400K 10000000010000000665           
CUS0267200000104059500001         MICHALOS ELIAS A    801 RANGE CT                            000N        CARE OF             
MTR02672000001000000000000000RA              14916957    005802200000022000000310000003NN  NNW 000                       N    
RDG02672000WATRL000000004K00000000000000941018309082015111456N000000000000N40       000040400K 10000000010000000909           
CUS0267200000104059501009         BOYLE GERALD H      800 RANGE CT                            000N        CARE OF             
MTR02672000001000000000000000RA              76348358    005802210000022100000350000003NN  NNW 000                       N    
RDG02672000WATRL000000004K00000000000000061018409082015111459N000000000000N40       000030400K 10000000010000000048           
CUS0267200000104059502007         NOVICK ABRAHAM S    802 RANGE CT                            000N        CARE OF             
MTR02672000001000000000000000RA              14916955    005802220000022200000310000003NN  NNW 000                       N    
RDG02672000WATRL000000004K00000000000000731018509082015111503N000000000000N40       000040400K 10000000010000000716           
CUS0267200000104059503005         ROWE PETER C        415 RANGE RD                            000N        CARE OF             
MTR02672000001000000000000000RA              48594201    005802230000022300000520000003NN  NNW 000                       N    
RDG02672000WATRL000000004K00000000000001613018609082015111517N000000000000N40       000140400K 10000000010000001600           
CUS0267200000104059504003         GELFOND RICHARD A   417 RANGE RD                            000N        CARE OF             
MTR02672000001000000000000000RA              25781397    005802240000022400000520000003NN  NNW 000                       N    
RDG02672000WATRL000000004K00000000000001772018709082015111523N000000000000N40       000060400K 10000000010000001760           
CUS0267200000104059505000         PALMER ALASTAIR     419 RANGE RD                            000N        CARE OF             
MTR02672000001000000000000000RA              75616413    005802250000022500000350000003NN  NNW 000                       N    
RDG02672000WATRL000000004K00000000000000159017509082015111232N000000000000N40       000150400K 10000000010000000123           
CUS0267200000104059506008         CROCKETT BRYAN L    421 RANGE RD                            000N        CARE OF             
MTR02672000001000000000000000RA              77877472    005802260000022600000360000003NN  NNW 000                       N    
RDG02672000WATRL000000004K00000000000000016017609082015111248N000000000010N40       000160400K 10000000010000000000           
CUS0267200000104059507006         KRIMMEL DEAN A      423 RANGE RD                            000N        CARE OF             
MTR02672000001000000000000000RA              24221042    005802270000022700000520000003NN  NNW 000                       N    
RDG02672000WATRL000000004K00000000000004243017409082015111217N000000000000N40       000110400K 10000000010000004227           
CUS0267200000104059508004         CLAYTON CLARA J     422 RANGE RD                            000N        CARE OF             
MTR02672000001000000000000000RA              30517749    005802280000022800000520000003NN  NNW 000                       N    
RDG02672000WATRL000000004K00000000000000934017309082015111206N000000000000N40       000880400K 10000000010000000932           
CUS0267200000104059509002         BARRAZOTTO JOHN J   420 RANGE RD                            000N        CARE OF             
MTR02672000001000000000000000RA              48594200    005802290000022900000520000003NN  NNW 000                       N    
RDG02672000WATRL000000004K00000000000002312018809082015111538N000000000000N40       000150400K 10000000010000002299           
CUS0267200000104059510000         BARRAZOTTO JOHN J   418 RANGE RD                            000N        CARE OF             
MTR02672000001000000000000000RA              23056312    005802300000023000000520000003NN  NNW 000                       N    
RDG02672000WATRL000000004K00000000000003575018909082015111543N000000000000N40       000050400K 10000000010000003545           
CUS0267200000104059511008         MARK IWANOWSKI      414 RANGE RD                            000N        CARE OF             
MTR02672000001000000000000000RA              48594198    005802310000023100000520000003NN  NNW 000                       N    
RDG02672000WATRL000000004K00000000000002583019009082015111554N000000000000N40       000110400K 10000000010000002572           
CUS0267200000104059512006         KRUPINSKI CHRISTOPHE412 RANGE RD                            000N        CARE OF             
MTR02672000001000000000000000RA              48593992    005802320000023200000520000003NN  NNW 000                       N    
RDG02672000WATRL000000004K00000000000001744008409082015093515N000000000000N40       001380400K 10000000010000001719           
CUS0267200000104059513004         KREUSINGER JUDITH CA405 TERRACE WAY                         000N        CARE OF             
MTR02672000001000000000000000RA              23056903    005802330000023300000520000003NN  NNW 000                       N    
RDG02672000WATRL000000004K00000000000002054008509082015093622N000000000000N40       000670400K 10000000010000002046           
CUS0267200000104059514002         DICKSON BERET G     407 TERRACE WAY                         000N        CARE OF             
MTR02672000001000000000000000RA              35118571    005802340000023400000520000003NN  NNW 000                       N    
RDG02672000WATRL000000004K00000000000002024008609082015093704N000000000000N40       000420400K 10000000010000002003           
CUS0267200000104059515009         MARTINKUS LEONARD J 409 TERRACE WAY                         000N        CARE OF             
MTR02672000001000000000000000RA              23056914    005802350000023500000520000003NN  NNW 000                       N    
RDG02672000WATRL000000004K00000000000002822008909082015094003N000000000000N40       000410400K 10000000010000002818           
CUS0267200000104059516007         MILLER WAYNE H,JR   411 TERRACE WAY                         000N        CARE OF             
MTR02672000001000000000000000RA              48594169    005802360000023600000520000003NN  NNW 000                       N    
RDG02672000WATRL000000004K00000000000001823009109082015094131N000000000000N40       000300400K 10000000010000001806           
CUS0267200000104059517005         ALTHOFF CHARLES MARI413 TERRACE WAY                         000N        CARE OF             
MTR02672000001000000000000000RA              30527357    005802370000023700000520000003NN  NNW 000                       N    
RDG02672000WATRL000000004K00000000000001825009309082015094449N000000000000N40       001300400K 10000000010000001800           
CUS0267200000104059518003         GRANITE TITLE ASSOC 415 TERRACE WAY                         000N        CARE OF             
MTR02672000001000000000000000RA              45377034    005802380000023800000520000003NN  NNW 000                       N    
RDG02672000WATRL000000004K00000000000001660009409082015094545N000000000000N40       000560400K 10000000010000001625           
CUS0267200000104059519001         ELIZABETH M. GLAZER 417 TERRACE WAY                         000N        CARE OF             
MTR02672000001000000000000000RA              48594168    005802390000023900000520000003NN  NNW 000                       N    
RDG02672000WATRL000000004K00000000000002076009709082015094817N000000000000N40       000570400K 10000000010000002054           
CUS0267200000104059520009         AYD MARY ANN        419 TERRACE WAY                         000N        CARE OF             
MTR02672000001000000000000000RA              48594016    005802400000024000000520000000NN  NNW 000                       N    
RDG02672000WATRL000000004K00000000000001412009809082015094905N000000000000N40       000480400K 10000000010000001404           
CUS0267200000104059521007         GONZALEZ CHRISTINE M823 LOYOLA DR                           000N        CARE OF             
MTR02672000001000000000000000RA              50481508    005802410000024100000520000003NN  NNW 000                       N    
RDG02672000WATRL000000004K00000000000001080010609082015095822N000000000000N40       000820400K 10000000010000001069           
CUS0267200000104059522005         JOHN T MEHR         821 LOYOLA DR                           000N        CARE OF             
MTR02672000001000000000000000RA              48594017    005802420000024200000520000003NN  NNW 000                       N    
RDG02672000WATRL000000004K00000000000001392010909082015100207N000000000000N40       000790400K 10000000010000001345           
CUS0267200000104059523003         BONHAGE ROBERT E    819 LOYOLA DR                           000N        CARE OF             
MTR02672000001000000000000000RA              48594202    005802430000024300000520000003NN  NNW 000                       N    
RDG02672000WATRL000000004K00000000000001575011009082015100238N000000000000N40       000310400K 10000000010000001557           
CUS0267200000104059524001         MIRELA LIANA SASUCLA817 LOYOLA DR                           000N        CARE OF             
MTR02672000001000000000000000RA              45376973    005802440000024400000520000003NN  NNW 000                       N    
RDG02672000WATRL000000004K00000000000002084011309082015100639N000000000000N40       001110400K 10000000010000002054           
CUS0267200000104059525008         POST GAEL MCPHERSON 815 LOYOLA DR                           000N        CARE OF             
MTR02672000001000000000000000RA              14913965    005802450000024500000310000003NN  NNW 000                       N    
RDG02672000WATRL000000004K00000000000000311011609082015100915N000000000000N40       000400400K 10000000010000000304           
CUS0267200000104059526006         BARLEY CHRISTOPHER  813 LOYOLA DR                           000N        CARE OF             
MTR02672000001000000000000000RA              48594221    005802460000024600000520000003NN  NNW 000                       N    
RDG02672000WATRL000000004K00000000000000739011709082015101017N000000000000N40       000620400K 10000000010000000725           
CUS0267200000104059527004         JOSEPH JEROME STEINI811 LOYOLA DR                           000N        CARE OF             
MTR02672000001000000000000000RA              29404159    005802470000024700000520000003NN  NNW 000                       N    
RDG02672000WATRL000000004K00000000000002446011909082015101302N000000000000N40       000740400K 10000000010000002440           
CUS0267200000104059528002         STEINITZ MICHELE KEN809 LOYOLA DR                           000N        CARE OF             
MTR02672000001000000000000000RA              20767744    005802480000024800000520000003NN  NNW 000                       N    
RDG02672000WATRL000000004K00000000000006070012009082015101405N000000000000N40       000630400K 10000000010000006044           
CUS0267200000104059529000         PORTER BRETT        428 RANGE RD                            000N        CARE OF             
MTR02672000001000000000000000RA              36688925    005802490000024900000520000003NN  NNW 000                       N    
RDG02672000WATRL000000004K00000000000002865012409082015102057N000000000000N40       001030400K 10000000010000002845           
CUS0267200000104059530008         MASSONE JOHN JOSEPH 426 RANGE RD                            000N        CARE OF             
MTR02672000001000000000000000RA              48593954    005802500000025000000520000003NN  NNW 000                       N    
RDG02672000WATRL000000004K00000000000003549012109082015101640N000000000000N40       001550400K 10000000010000003514           
CUS0267200000104059531006         KNOLL REBECCA A     425 RANGE RD                            000N        CARE OF             
MTR02672000001000000000000000RA              44177760    005802510000025100000520000003NN  NNW 000                       N    
RDG02672000WATRL000000004K00000000000002053012309082015101914N000000000000N40       000840400K 10000000010000002027           
CUS0267200000104059532004         DODGE DOROTHY L     427 RANGE RD                            000N        CARE OF             
MTR02672000001000000000000000RA              48593901    005802520000025200000520000003NN  NNW 000                       N    
RDG02672000WATRL000000004K00000000000002065012209082015101750N000000000000N40       000700400K 10000000010000002060           
CUS0267200000104059533002         MADDOX DOUGLAS B    810 LOYOLA DR                           000N        CARE OF             
MTR02672000001000000000000000RA              44175501    005802530000025300000520000003NN  NNW 000                       N    
RDG02672000WATRL000000004K00000000000002396011809082015101148N000000000000N40       000910400K 10000000010000002367           
CUS0267200000104059534000         JILLIAM L HIGINBOTHO812 LOYOLA DR                           000N        CARE OF             
MTR02672000001000000000000000RA              14913969    005802540000025400000310000003NN  NNW 000                       N    
RDG02672000WATRL000000004K00000000000001025011509082015100835N000000000000N40       000420400K 10000000010000001003           
CUS0267200000104059535007         BRADLEY RICHARD LEE 814 LOYOLA DR                           000N        CARE OF             
MTR02672000001000000000000000RA              14914003    005802550000025500000310000003NN  NNW 000                       N    
RDG02672000WATRL000000004K00000000000000336011409082015100753N000000000000N40       000740400K 10000000010000000332           
CUS0267200000104059536005         JOHN P WARD         429 RANGE RD                            000N        CARE OF             
MTR02672000001000000000000000RA              39290869    005802560000025600000520000003NN  NNW 000                       N    
RDG02672000WATRL000000004K00000000000001963012509082015102150N000000000000N40       000530400K 10000000010000001941           
CUS0267200000104059537003         CYRYCA RONALD W     431 RANGE RD                            000N        CARE OF             
MTR02672000001000000000000000RA              27812543    005802570000025700000520000003NN  NNW 000                       N    
RDG02672000WATRL000000004K00000000000004431012609082015102252N000000000000N40       000620400K 10000000010000004410           
CUS0267200000104059538001         BOLDT RICHARD C     433 RANGE RD                            000N        CARE OF             
MTR02672000001000000000000000RA              48593880    005802580000025800000520000003NN  NNW 000                       N    
RDG02672000WATRL000000004K00000000000002220012809082015102428N000000000000N40       000430400K 10000000010000002194           
CUS0267200000104059539009         MERRILL JOHN G,3RD  435 RANGE RD                            000N        CARE OF             
MTR02672000001000000000000000RA              32903592    005802590000025900000520000003NN  NNW 000                       N    
RDG02672000WATRL000000004K00000000000004381013009082015102611N000000000000N40       000340400K 10000000010000004333           
CUS0267200000104059540007         DENDRINOS JOHN G    437 RANGE RD                            000N        CARE OF             
MTR02672000001000000000000000RA              48593993    005802600000026000000520000003NN  NNW 000                       N    
RDG02672000WATRL000000004K00000000000002138013109082015102646N000000000000N40       000350400K 10000000010000002117           
CUS0267200000104059541005         KIRTS CARL D        439 RANGE RD                            000N        CARE OF             
MTR02672000001000000000000000RA              45376968    005802610000026100000520000003NN  NNW 000                       N    
RDG02672000WATRL000000004K00000000000003431013209082015102742N000000000000N40       000560400K 10000000010000003395           
