FHDNNNN023004816004816004816N                                                                                           014678
RHD06928700NN01750175000001750000000001750175000385NY017501750175000900000000000000000000000002    09022015NY020000 N         
CUS0692870000106149343003         OAK LAWN CEMETARY   7529 EASTERN AVE                        000N        CARE OF             
MTR06928700001000000000000000RA              14927627    005800010000000100000310000003NN  NNW 000                       N    
RDG06928700WATRL000000004K00000000000000639000109092015063913N000000000001N45       000000400K 10000000010000000622           
CUS0692870000106149344001         OAK LAWN CEMETERY OF7531 EASTERN AVE                        000N        CARE OF             
MTR06928700001000000000000000RA              99290760    005800020000000200000570000003NN  NNW 000                       N    
RDG06928700WATRL000000004K00000000000002385000209092015064231N000300000010N45       001980400K 10000000010000002258           
CUS0692870000106149345008         CHARLES BERRY       500 SOUTHERN AVE                        000N        CARE OF             
MTR06928700001000000000000000RA              76348758    005800030000000300000350000003NY  NNW 000                       N    
MTM0692870076348758    CAR ON VAULT                                                                                           
RDG06928700WATRL000000004K00000000000000028015109092015131246N000000000000N45       082010400K 10000000010000000016           
CUS0692870000106149346006         PMIG 1003 LLC       7601 EASTERN AVE                        000N        CARE OF             
MTR06928700001000000000000000RA              14914994    001500040000000400000310000003NN  NNW 000                       N    
RDG06928700WATRL000000005K00000000000001372000409092015064745N000000000000N45       000940500K 10000000010000001333           
CUS0692870000106149347004         TRUSTEES OF THE FIRS501 SOUTHERN AVE                        000N        CARE OF             
MTR06928700001000000000000000RA              46886022    005800050000000500000520000003NY  NNW 000                       N    
MTM0692870046886022    CL                                                                                                     
RDG06928700WATRL000000004K00000000000001168015209092015131301N000000000020N45       000150400K 10000000010000001160           
CUS0692870000106149348002         OAK LAWN CEMETERY OF502 SOUTHERN AVE                        000N        CARE OF             
MTR06928700001000000000000000RA              10024659    005800060000000600000570000003NN  NNW 000                       N    
RDG06928700WATRL000000004K00000000000000172000309092015064611N000000000000N45       002200400K 10000000010000000154           
CUS0692870000106149349000         RUSSELL CLAUDE STALE505 SOUTHERN AVE                        000N        CARE OF             
MTR06928700001000000000000000RA              99391830    005800070000000700000570000003NN  NNW 000                       N    
RDG06928700WATRL000000004K00000000000001253000509092015065159N000000000000N45       002540400K 10000000010000001219           
CUS0692870000106412463009         RICHARD A VITTEK    515 SOUTHERN AVE                        000N        CARE OF             
MTR06928700001000000000000000RA              46877505    005800080000000800000520000003NN  NNW 000                       N    
RDG06928700WATRL000000004K00000000000001057000609092015065420N000000000000N45       001410400K 10000000010000001038           
CUS0692870000106149350008         MARCELLA MASON      527 SOUTHERN AVE                        000N        CARE OF             
MTR06928700001000000000000000RA              99391418    005800090000000900000570000003NN  NNW 000                       N    
RDG06928700WATRL000000004K00000000000000267000709092015065519N000000000000N45       000590400K 10000000010000000266           
CUS0692870000106149351006         KATHERINE A KEDZIERS529 SOUTHERN AVE                        000N        CARE OF             
MTR06928700001000000000000000RA              26019982    005800100000001000000520000003NN  NNW 000                       N    
RDG06928700WATRL000000004K00000000000003818000809092015065552N000000000000N45       000330400K 10000000010000003818           
CUS0692870000106149352004         OTAVIANO ALVES DACOS531 SOUTHERN AVE                        000N        CARE OF             
MTR06928700001000000000000000RA              77989507    005800110000001100000350000003NN  NNW 000                       N    
RDG06928700WATRL000000004K00000000000000002000909092015065645N000000000000N45       000530400K 10000000010000000002           
CUS0692870000106149353002         EYSTER ROBERT JAMES 533 SOUTHERN AVE                        000N        CARE OF             
MTR06928700001000000000000000RA              41082336    005800120000001200000520000003NN  NNW 000   VACANT / LOT        N    
RDG06928700WATRL000000004K00000000000003523001009092015065740N000000000000N45       000550400K 10000000010000003523           
CUS0692870000106149354000         BRINSON FLOYD B     535 SOUTHERN AVE                        000N        CARE OF             
MTR06928700001000000000000000RA              48590774    005800130000001300000520000003NN  NNW 000                       N    
RDG06928700WATRL000000004K00000000000000567001109092015065913N000000000010N45       000930400K 10000000010000000566           
CUS0692870000106149355007         SWAYNE ALBERT T     530 SOUTHERN AVE                        000N        CARE OF             
MTR06928700001000000000000000RA              75614518    005800140000001400000350000003NN  NNW 000                       N    
RDG06928700WATRL000000004K00000000000000104001209092015070033N000000000000N45       000800400K 10000000010000000096           
CUS0692870000106149356005         FRANK MELITA        532 SOUTHERN AVE                        000N        CARE OF             
MTR06928700001000000000000000RA              77877671    005800150000001500000360000003NN  NNW 000                       N    
RDG06928700WATRL000000004K00000000000000037001309092015070123N000000000000N45       000500400K 10000000010000000014           
CUS0692870000106149357003         SIMON RICHARD A     534 SOUTHERN AVE                        000N        CARE OF             
MTR06928700001000000000000000RA              99188446    005800160000001600000570000003NY  NNW 000                       N    
MTM0692870099188446    COV                                                                                                    
RDG06928700WATRL000000004K00000000000001065015309092015131311N000000000000N45       000100400K 10000000010000001050           
CUS0692870000106149358001         BUZGIERSKI MARION W 7518 AVONDALE AVE                       000N        CARE OF             
MTR06928700001000000000000000RA              10010551    005800170000001700000570000003NN  NNW 000                       N    
RDG06928700WATRL000000004K00000000000000344001409092015070613N000000000000N45       002900400K 10000000010000000338           
CUS0692870000106438349000         KOPSIES LOUIS       7516 AVONDALE AVE                       000N        CARE OF             
MTR06928700001000000000000000RA              14907963    005800180000001800000440000003NN  NNW 000                       N    
RDG06928700WATRL000000004K00000000000000816001509092015070730N000400000010N45       000770400K 10000000010000000809           
CUS0692870000106440634001         PAPAYANAKIS NIKOLAOS7513 AVONDALE AVE                       000N        CARE OF             
MTR06928700001000000000000000RA              10009747    005800190000001900000570000003NN  NNW 000                       N    
RDG06928700WATRL000000004K00000000000000398001609092015071003N000000000011N45       000630400K 10000000010000000372           
CUS0692870000106438348002         WEBER DANIEL J      7514 AVONDALE AVE                       000N        CARE OF             
MTR06928700001000000000000000RA              14910645    005800200000002000000440000003NN  NNW 000                       N    
RDG06928700WATRL000000004K00000000000000559001709092015070900N000000000000N45       000720400K 10000000010000000539           
CUS0692870000106372190006         RUDD JAMES F        7515 AVONDALE AVE                       000N        CARE OF             
MTR06928700001000000000000000RA              32899128    005800210000002100000520000003NN  NNW 000                       N    
RDG06928700WATRL000000004K00000000000003436001809092015071125N000300000010N45       000820400K 10000000010000003362           
CUS0692870000106149359009         DAYTON R BALLIET JR.7517 AVONDALE AVE                       000N        CARE OF             
MTR06928700001000000000000000RA              44173681    005800220000002200000520000003NN  NNW 000                       N    
RDG06928700WATRL000000004K00000000000001610001909092015071301N000300000010N45       000960400K 10000000010000002093           
CUS0692870000106149360007         SHOMPER JAMES BRIAN 7519 AVONDALE AVE                       000N        CARE OF             
MTR06928700001000000000000000RA              77882600    005800230000002300000360000003NN  NNW 000                       N    
RDG06928700WATRL000000004K00000000000000047002009092015071443N000000000010N45       001020400K 10000000010000000000           
CUS0692870000106149361005         SOWERS MICHAEL D    606 SOUTHERN AVE                        000N        CARE OF             
MTR06928700001000000000000000RA              19459989    005800240000002400000520000003NN  NNW 000                       N    
RDG06928700WATRL000000004K00000000000005356002109092015071611N000300000010N45       000880400K 10000000010000005350           
CUS0692870000106149362003         BOWERS JOSEPH H     7520 RIDDLE AVE                         000N        CARE OF             
MTR06928700001000000000000000RA              14900616    005800250000002500000310000003NY  NNW 000                       N    
MTM0692870014900616    BURIED                                                                                                 
RDG06928700WATRL000000004K00000000000000596002209092015131332N000000000021N45       000210400K 10000000010000000586           
CUS0692870000106149363001         EDWARD C BOCHIAK    7518 RIDDLE AVE                         000N        CARE OF             
MTR06928700001000000000000000RA              45373132    005800260000002600000520000003NN  NNW 000                       N    
RDG06928700WATRL000000004K00000000000002033002309092015071851N000000000000N45       001020400K 10000000010000001999           
CUS0692870000106417345003         SARIKAS ANTONIOS    7516 RIDDLE AVE                         000N        CARE OF             
MTR06928700001000000000000000RA              48586756    005800270000002700000520000003NN  NNW 000                       N    
RDG06928700WATRL000000004K00000000000001970002409092015071940N000000000000N45       000490400K 10000000010000001954           
CUS0692870000106403677005         JANKOWIAK RICHARD A 7512 RIDDLE AVE                         000N        CARE OF             
MTR06928700001000000000000000RA              01082485    005800280000002800000610000003NN  NNW 000                       N    
RDG06928700WATRL000000004K00000000000001032002509092015072029N000000000000N45       000490400K 10000000010000001012           
CUS0692870000106149364009         FEWSTER WILLIAM     7508 RIDDLE AVE                         000N        CARE OF             
MTR06928700001000000000000000RA              01082486    005800290000002900000610000003NN  NNW 000                       N    
RDG06928700WATRL000000004K00000000000001250002609092015072117N000000000000N45       000480400K 10000000010000001236           
CUS0692870000106149365006         BRESSI REBECCA      7506 RIDDLE AVE                         000N        CARE OF             
MTR06928700001000000000000000RA              01082484    005800300000003000000610000003NN  NNW 000                       N    
RDG06928700WATRL000000004K00000000000000315002709092015072211N000000000000N45       000540400K 10000000010000000302           
CUS0692870000106446562008         MICHAEL MIODUSZEWSKI7504 RIDDLE AVE                         000N        CARE OF             
MTR06928700001000000000000000RA              00167125    000100310000003100000570000003NN  NNW 000                       N    
RDG06928700WATRL000000004K00000000000000197002809092015072304N000000000000N45       000530400K 10000000010000000167           
CUS0692870000106149366004         HAGER JOSHUA T      7502 RIDDLE AVE                         000N        CARE OF             
MTR06928700001000000000000000RA              14900201    005800320000003200000310000003NN  NNW 000                       N    
RDG06928700WATRL000000004K00000000000000317002909092015072352N000000000000N45       000480400K 10000000010000000294           
CUS0692870000106406695004         OAKLAWN CEMETERY CO 7225 EASTERN AVE                        000N        CARE OF             
MTR06928700001000000000000000RA              41193056    007500330000003300000520000003NN  NNW 000                       N    
RDG06928700WATRL000000004K00000000000003492003009092015131357N000000000083N45       000250400K 10000000010000003451           
CUS0692870000106149367002         RIGGEN LES          7501 RIDDLE AVE                         000N        CARE OF             
MTR06928700001000000000000000RA              99288368    005800340000003400000570000003NN  NNW 000                       N    
RDG06928700WATRL000000004K00000000000002107003109092015072717N000000000001N45       001040400K 10000000010000002060           
CUS0692870000106149368000         BRILL MARGARET E    7503 RIDDLE AVE                         000N        CARE OF             
MTR06928700001000000000000000RA              35114536    005800350000003500000520000003NN  NNW 000                       N    
RDG06928700WATRL000000004K00000000000001150003209092015072806N000000000000N45       000490400K 10000000010000001136           
CUS0692870000106149369008         GLINIECKI DAVID     7507 RIDDLE AVE                         000N        CARE OF             
MTR06928700001000000000000000RA              01082483    005800360000003600000610000003NN  NNW 000                       N    
RDG06928700WATRL000000004K00000000000001418003309092015072904N000300000010N45       000580400K 10000000010000001421           
CUS0692870000106149370006         MULLINS THOMAS      7509 RIDDLE AVE                         000N        CARE OF             
MTR06928700001000000000000000RA              01081038    005800370000003700000610000003NN  NNW 000                       N    
RDG06928700WATRL000000004K00000000000001273003409092015073126N000000000000N45       001420400K 10000000010000001258           
CUS0692870000106346139006         JONES GARY DAVID    7511 RIDDLE AVE                         000N        CARE OF             
MTR06928700001000000000000000RA              01082482    005800380000003800000610000003NN  NNW 000                       N    
RDG06928700WATRL000000004K00000000000001234003509092015073306N000000000000N45       001000400K 10000000010000001211           
CUS0692870000106149371004         BARTLEY DAVID PATRIC7513 RIDDLE AVE                         000N        CARE OF             
MTR06928700001000000000000000RA              41082339    005800390000003900000520000003NN  NNW 000                       N    
RDG06928700WATRL000000004K00000000000001524003609092015073523N000000000011N45       000220400K 10000000010000001513           
CUS0692870000106400594005         BURNETT JEFFREY M   7515 RIDDLE AVE                         000N        CARE OF             
MTR06928700001000000000000000RA              41589381    005800400000004000000520000003NN  NNW 000                       N    
RDG06928700WATRL000000004K00000000000002409003709092015073633N000000000000N45       000700400K 10000000010000002348           
CUS0692870000106351819005         IVEY ROBERT O       7519 RIDDLE AVE                         000N        CARE OF             
MTR06928700001000000000000000RA              99291236    005800410000004100000570000003NN  NNW 000                       N    
RDG06928700WATRL000000004K00000000000001484003809092015073752N000000000000N45       000790400K 10000000010000001450           
CUS0692870000106149372002         POWELL GARY L       7601 RIDDLE AVE                         000N        CARE OF             
MTR06928700001000000000000000RA              99293186    005800420000004200000570000003NN  NNW 000                       N    
RDG06928700WATRL000000004K00000000000000747003909092015073838N000000000000N45       000460400K 10000000010000000739           
CUS0692870000106149373000         POLING ROBIN        7603 RIDDLE AVE                         000N        CARE OF             
MTR06928700001000000000000000RA              48588181    005800430000004300000520000003NY  NNW 000                       N    
MTM0692870048588181    C O V                                                                                                  
RDG06928700WATRL000000004K00000000000003399015409092015131411N000000000000N45       000140400K 10000000010000003383           
CUS0692870000106149374008         JORDAN RUTH A       7605 RIDDLE AVE                         000N        CARE OF             
MTR06928700001000000000000000RA              00128196    005800440000004400000570000003NN  NNW 000                       N    
RDG06928700WATRL000000004K00000000000001537004009092015074020N000000000000N45       001020400K 10000000010000001519           
CUS0692870000106149375005         RYKIEL DEBORAH A    7607 RIDDLE AVE                         000N        CARE OF             
MTR06928700001000000000000000RA              10009589    005800450000004500000570000003NN  NNW 000                       N    
RDG06928700WATRL000000004K00000000000000116004109092015074101N000000000000N45       000410400K 10000000010000000111           
CUS0692870000106149376003         MAHALEY CHARLES WALT7609 RIDDLE AVE                         000N        CARE OF             
MTR06928700001000000000000000RA              29686209    005800460000004600000520000003NN  NNW 000                       N    
RDG06928700WATRL000000004K00000000000003235004209092015074150N000000000000N45       000490400K 10000000010000003178           
CUS0692870000106149377001         GEIGER CHELSEA A    7611 RIDDLE AVE                         000N        CARE OF             
MTR06928700001000000000000000RA              26005155    005800470000004700000520000003NN  NNW 000                       N    
RDG06928700WATRL000000004K00000000000001139004309092015074241N000300000010N45       000510400K 10000000010000001133           
CUS0692870000106149378009         HAZLEGROVE CHARLES A7613 RIDDLE AVE                         000N        CARE OF             
MTR06928700001000000000000000RA              78022949    005800480000004800000360000003NN  NNW 000                       N    
RDG06928700WATRL000000004K00000000000000037004409092015074512N000000000000N45       001510400K 10000000010000000022           
CUS0692870000106149379007         MYERS PAUL F        7614 RIDDLE AVE                         000N        CARE OF             
MTR06928700001000000000000000RA              36688444    005800490000004900000520000003NN  NNW 000                       N    
RDG06928700WATRL000000004K00000000000003789004509092015074607N000000000000N45       000550400K 10000000010000003754           
CUS0692870000106149380005         SARIKAS JOHN A      7612 RIDDLE AVE                         000N        CARE OF             
MTR06928700001000000000000000RA              00128195    005800500000005000000570000003NN  NNW 000                       N    
RDG06928700WATRL000000004K00000000000000701004609092015074644N000000000000N45       000370400K 10000000010000000692           
CUS0692870000106149381003         FISHER GEORGE F,SR  7610 RIDDLE AVE                         000N        CARE OF             
MTR06928700001000000000000000RA              45380089    005800510000005100000520000003NN  NNW 000                       N    
RDG06928700WATRL000000004K00000000000001176004709092015074742N000000000000N45       000580400K 10000000010000001163           
CUS0692870000106149382001         DAVIS FREDERICK NORM7606 RIDDLE AVE                         000N        CARE OF             
MTR06928700001000000000000000RA              27815907    005800520000005200000520000003NN  NNW 000                       N    
RDG06928700WATRL000000004K00000000000001922004809092015074832N000300000010N45       000500400K 10000000010000002708           
CUS0692870000106149383009         BOBBY L WILLIAMS    7602 RIDDLE AVE                         000N        CARE OF             
MTR06928700001000000000000000RA              48583010    005800530000005300000520000003NN  NNW 000                       N    
RDG06928700WATRL000000004K00000000000001543004909092015075042N000300000010N45       001300400K 10000000010000001655           
CUS0692870000106149384007         KEVIN S PHILLIPS    7601 AVONDALE AVE                       000N        CARE OF             
MTR06928700001000000000000000RA              48594543    005800540000005400000520000003NN  NNW 000                       N    
RDG06928700WATRL000000004K00000000000001259005009092015075424N000000000000N45       002220400K 10000000010000001243           
CUS0692870000106149385004         NESBITT JEFFERSON S 7600 AVONDALE AVE                       000N        CARE OF             
MTR06928700001000000000000000RA              14906894    005800550000005500000310000003NN  NNW 000                       N    
RDG06928700WATRL000000004K00000000000000929005109092015075613N000000000000N45       001090400K 10000000010000000879           
CUS0692870000106149386002         BONDAY MILDRED      7603 AVONDALE AVE                       000N        CARE OF             
MTR06928700001000000000000000RA              46884209    005800560000005600000520000003NN  NNW 000                       N    
RDG06928700WATRL000000004K00000000000000683005209092015075652N000000000010N45       000390400K 10000000010000000675           
CUS0692870000106149387000         REBECCA MARTIN      7605 AVONDALE AVE                       000N        CARE OF             
MTR06928700001000000000000000RA              00127683    005800570000005700000570000003NN  NNW 000                       N    
RDG06928700WATRL000000004K00000000000000896005309092015075758N000000000000N45       000660400K 10000000010000000881           
CUS0692870000106149388008         BROADBENT KAREN FAYE7602 AVONDALE AVE                       000N        CARE OF             
MTR06928700001000000000000000RA              48582819    005800580000005800000520000003NN  NNW 000                       N    
RDG06928700WATRL000000004K00000000000001412005409092015075839N000000000000N45       000410400K 10000000010000001391           
CUS0692870000106149389006         HUMEN CHARLES D     7606 AVONDALE AVE                       000N        CARE OF             
MTR06928700001000000000000000RA              35114547    005800590000005900000520000003NN  NNW 000                       N    
RDG06928700WATRL000000004K00000000000001858005509092015075954N000300000010N45       000750400K 10000000010000002834           
CUS0692870000106149390004         BRIGHT DENNIS W     7608 AVONDALE AVE                       000N        CARE OF             
MTR06928700001000000000000000RA              33080817    005800600000006000000520000003NN  NNW 000                       N    
RDG06928700WATRL000000004K00000000000002058005609092015080140N000000000000N45       001060400K 10000000010000002014           
CUS0692870000106396670009         WASILEWSKI ANTHONY  7609 AVONDALE AVE                       000N        CARE OF             
MTR06928700001000000000000000RA              39283976    005800610000006100000520000003NN  NNW 000                       N    
RDG06928700WATRL000000004K00000000000001465005709092015080257N000000000000N45       000770400K 10000000010000001435           
CUS0692870000106149391002         DORN JOSEPH D       7611 AVONDALE AVE                       000N        CARE OF             
MTR06928700001000000000000000RA              52287412    005800620000006200000520000003NN  NNW 000                       N    
RDG06928700WATRL000000004K00000000000001393005809092015080358N000000000000N45       000610400K 10000000010000001373           
CUS0692870000106149392000         MORRIS DAVID D      523 FAIRVIEW AVE                        000N        CARE OF             
MTR06928700001000000000000000RA              14905393    005800630000006300000310000003NN  NNW 000                       N    
RDG06928700WATRL000000004K00000000000000067005909092015080536N000000000010N45       000980400K 10000000010000000285           
CUS0692870000106149393008         CALLE CRISTIAN M    521 FAIRVIEW AVE                        000N        CARE OF             
MTR06928700001000000000000000RA              35106482    005800640000006400000520000003NN  NNW 000                       N    
RDG06928700WATRL000000004K00000000000001979006009092015080657N000000000000N45       000810400K 10000000010000001943           
CUS0692870000106149394006         MERSON RICHARD A,SR 519 FAIRVIEW AVE                        000N        CARE OF             
MTR06928700001000000000000000RA              27816176    005800650000006500000520000003NN  NNW 000                       N    
RDG06928700WATRL000000004K00000000000005899006109092015080808N000000000000N45       000710400K 10000000010000005813           
CUS0692870000106149395003         RICHARD GOVER       526 FAIRVIEW AVE                        000N        CARE OF             
MTR06928700001000000000000000RA              48594547    005800660000006600000520000003NN  NNW 000                       N    
RDG06928700WATRL000000004K00000000000001245006209092015080905N000000000000N45       000570400K 10000000010000001233           
CUS0692870000106149396001         GOVER RICHARD ELMER 524 FAIRVIEW AVE                        000N        CARE OF             
MTR06928700001000000000000000RA              33077257    005800670000006700000520000003NN  NNW 000                       N    
RDG06928700WATRL000000004K00000000000001567006309092015081003N000000000000N45       000580400K 10000000010000001558           
CUS0692870000106149397009         KORTASH MARY ALBERTA517 FAIRVIEW AVE                        000N        CARE OF             
MTR06928700001000000000000000RA              35106504    005800680000006800000520000003NN  NNW 000                       N    
RDG06928700WATRL000000004K00000000000001785015509092015131448N000000000000N45       000370400K 10000000010000001776           
CUS0692870000106149398007         DONNA L COTE        515 FAIRVIEW AVE                        000N        CARE OF             
MTR06928700001000000000000000RA              14909156    005800690000006900000310000003NN  NNW 000                       N    
RDG06928700WATRL000000004K00000000000000747006409092015081316N000000000000N45       001930400K 10000000010000000720           
CUS0692870000106149399005         TALLAGSEN JESSE JAME513 FAIRVIEW AVE                        000N        CARE OF             
MTR06928700001000000000000000RA              14909158    005800700000007000000310000003NN  NNW 000                       N    
RDG06928700WATRL000000004K00000000000001031006509092015081328N000000000000N45       000120400K 10000000010000001010           
CUS0692870000106149400001         FELTER CINDY L      507 FAIRVIEW AVE                        000N        CARE OF             
MTR06928700001000000000000000RA              41086411    005800710000007100000520000003NN  NNW 000                       N    
RDG06928700WATRL000000004K00000000000004037006609092015081514N000000000000N45       001060400K 10000000010000003978           
CUS0692870000106149401009         TONY M NICOLARAKIS  522 FAIRVIEW AVE                        000N        CARE OF             
MTR06928700001000000000000000RA              01116629    005800720000007200000610000003NN  NNW 000                       N    
RDG06928700WATRL000000004K00000000000000718015609092015131503N000000000000N45       000150400K 10000000010000000709           
CUS0692870000106149402007         HAVERLY ANDREW J    518 FAIRVIEW AVE                        000N        CARE OF             
MTR06928700001000000000000000RA              33416341    007500730000007300000520000003NN  NNW 000                       N    
RDG06928700WATRL000000004K00000000000002174006709092015081854N000300000010N45       002200400K 10000000010000002271           
CUS0692870000106149403005         BURDUSI MARCELLO ANT511 FAIRVIEW AVE                        000N        CARE OF             
MTR06928700001000000000000000RA              01079895    005800740000007400000610000003NN  NNW 000                       N    
RDG06928700WATRL000000004K00000000000000785015709092015131510N000000000000N45       000070400K 10000000010000000773           
CUS0692870000106149404003         MS.MELISSA WEST     509 FAIRVIEW AVE                        000N        CARE OF             
MTR06928700001000000000000000RA              36695494    005800750000007500000520000003NN  NNW 000                       N    
RDG06928700WATRL000000004K00000000000002027007009092015082631N000000000000N45       001230400K 10000000010000002010           
CUS0692870000106149405000         BRYANT STEWART      516 FAIRVIEW AVE                        000N        CARE OF             
MTR06928700001000000000000000RA              33077514    005800760000007600000520000003NN  NNW 000                       N    
RDG06928700WATRL000000004K00000000000002235015809092015131527N000000000000N45       000170400K 10000000010000002223           
CUS0692870000106149406008         SECRETARY OF HOUSING512 FAIRVIEW AVE                        000N        CARE OF             
MTR06928700001000000000000000RA              44087983    005800770000007700000520000003NN  NNW 000                       N    
RDG06928700WATRL000000004K00000000000002596006809092015082240N000300000010N45       002260400K 10000000010000002584           
CUS0692870000106149407006         VITTEK RICHARD A    510 FAIRVIEW AVE                        000N        CARE OF             
MTR06928700001000000000000000RA              78005347    005800780000007800000360000003NN  NNW 000                       N    
RDG06928700WATRL000000004K00000000000000115006909092015082428N000000000000N45       001080400K 10000000010000000084           
CUS0692870000106149408004         HARRISON NORWOOD H  508 FAIRVIEW AVE                        000N        CARE OF             
MTR06928700001000000000000000RA              78005348    005800790000007900000360000003NN  NNW 000                       N    
RDG06928700WATRL000000004K00000000000000043007109092015082900N000000000000N45       001490400K 10000000010000000034           
CUS0692870000106149409002         KRISDOC INVESTMENTS 505 FAIRVIEW AVE                        000N        CARE OF             
MTR06928700001000000000000000RA              32902775    005800800000008000000520000003NN  NNW 000                       N    
RDG06928700WATRL000000004K00000000000004085015909092015131540N000000000010N45       000130400K 10000000010000004064           
CUS0692870000106414428000         KRISDOC INVESTMENTS 505A FAIRVIEW AVE                       000N        CARE OF             
MTR06928700001000000000000000RA              46883691    005800810000008100000520000003NN  NNW 000                       N    
RDG06928700WATRL000000004K00000000000001234007209092015083027N000300000020N45       000870400K 10000000010000001202           
CUS0692870000106149410000         STRAITT RICHARD A,JR506 FAIRVIEW AVE                        000N        CARE OF             
MTR06928700001000000000000000RA              29682194    005800820000008200000520000003NN  NNW 000                       N    
RDG06928700WATRL000000004K00000000000001524016009092015131552N000000000000N45       000120400K 10000000010000001512           
CUS0692870000106149411008         GALLERY CHURCH      502-04 FAIRVIEW AVE                     000N        CARE OF             
MTR06928700001000000000000000RA              33734971    005800830000008300000520000003NN  NNW 000                       N    
RDG06928700WATRL000000004K00000000000004836016109092015131603N000000000010N45       000110400K 10000000010000004813           
CUS0692870000106149412006         KLEMM CLARA ELIZABET503 FAIRVIEW AVE                        000N        CARE OF             
MTR06928700001000000000000000RA              14928562    005800840000008400000310000003NN  NNW 000                       N    
RDG06928700WATRL000000004K00000000000000223007309092015083802N000000000000N45       004550400K 10000000010000000215           
CUS0692870000106149413004         MNSF BALTIMORE, LLC 501 FAIRVIEW AVE                        000N        CARE OF             
MTR06928700001000000000000000RA              00128198    005800850000008500000570000003NN  NNW 000                       N    
RDG06928700WATRL000000004K00000000000001055007409092015083924N000000000000N45       000820400K 10000000010000001050           
CUS0692870000106149414002         KOLAR MICHAEL E     500-1/2 FAIRVIEW AVE                    000N        CARE OF             
MTR06928700001000000000000000RA              10022585    005800860000008600000570000003NN  NNW 000                       N    
RDG06928700WATRL000000004K00000000000000156007509092015084015N000000000000N45       000510400K 10000000010000000143           
CUS0692870000106149415009         GONZALES JOSE       499 FAIRVIEW AVE                        000N        CARE OF             
MTR06928700001000000000000000RA              01095001    005800870000008700000610000003NN  NNW 000                       N    
RDG06928700WATRL000000004K00000000000002741007609092015084239N000000000000N45       001440400K 10000000010000002688           
CUS0692870000106149416007         7615 EASTERN AVENUE 7615 EASTERN AVE                        000N        CARE OF             
MTR06928700001000000000000000RA              77883470    005800880000008800000360000003NN  NNW 000                       N    
RDG06928700WATRL000000004K00000000000000027007709092015084735N000000000010N45       002960400K 10000000010000000000           
CUS0692870000106149417005         HILL-FRANKLIN LINDA 500 N POINT RD                          000N        CARE OF             
MTR06928700001000000000000000RA              45377812    005800890000008900000520000003NN  NNW 000                       N    
RDG06928700WATRL000000004K00000000000002712016209092015131617N000000000000N45       000140400K 10000000010000002698           
CUS0692870000106149418003         ROBINSON FRANK R    502 OLD NORTH POINT RD                  000N        CARE OF             
MTR06928700001000000000000000RA              36697094    005800900000009000000520000003NN  NNW 000                       N    
RDG06928700WATRL000000004K00000000000002944016309092015131634N000000000021N45       000170400K 10000000010000002944           
CUS0692870000106149419001         ROBERT LAYTE JR     516 OLD NORTH POINT RD                  000N        CARE OF             
MTR06928700001000000000000000RA              45386861    005800910000009100000520000003NN  NNW 000                       N    
RDG06928700WATRL000000004K00000000000000833007809092015085358N000000000000N45       003830400K 10000000010000000815           
CUS0692870000106149420009         TALLAGSEN JESSE     508 N POINT RD                          000N        CARE OF             
MTR06928700001000000000000000RA              01116635    005800920000009200000610000003NN  NNW 000                       N    
RDG06928700WATRL000000004K00000000000001382016409092015131706N000000000030N45       000320400K 10000000010000001358           
CUS0692870000106149421007         HUFFER GARET D      518 N POINT RD                          000N        CARE OF             
MTR06928700001000000000000000RA              27266572    005800930000009300000520000003NN  NNW 000                       N    
RDG06928700WATRL000000004K00000000000001932007909092015085536N000000000000N45       000980400K 10000000010000001914           
CUS0692870000106149422005         MICHAEL M RUDOLPH   520 N POINT RD                          000N        CARE OF             
MTR06928700001000000000000000RA              50790995    005800940000009400000520000003NN  NNW 000                       N    
RDG06928700WATRL000000004K00000000000002884008009092015085804N000000000011N45       000220400K 10000000010000002855           
CUS0692870000106149423003         JEANETTE SMITH      600 N POINT RD                          000N        CARE OF             
MTR06928700001000000000000000RA              36696341    005800950000009500000520000003NN  NNW 000                       N    
RDG06928700WATRL000000004K00000000000003242008109092015090114N000300000010N45       001900400K 10000000010000003290           
CUS0692870000106149424001         RICHARD JOSWICK     602 OLD NORTH POINT RD                  000N        CARE OF             
MTR06928700001000000000000000RA              19460613    005800960000009600000520000003NN  NNW 000                       N    
RDG06928700WATRL000000004K00000000000004250008209092015090210N000300000010N45       000560400K 10000000010000004140           
CUS0692870000106149425008         ANTONIOS J SARIKAS  604 OLD NORTH POINT RD                  000N        CARE OF             
MTR06928700001000000000000000RA              45373082    005800970000009700000520000003NN  NNW 000                       N    
RDG06928700WATRL000000004K00000000000004403008309092015090259N000000000000N45       000490400K 10000000010000004370           
CUS0692870000106149426006         MELTON MARK G       606 N POINT RD                          000N        CARE OF             
MTR06928700001000000000000000RA              76346040    005800980000009800000350000003NN  NNW 000                       N    
RDG06928700WATRL000000004K00000000000000057008409092015090440N000000000000N45       001010400K 10000000010000000041           
CUS0692870000106149427004         THOMAS BITTNER      608 N POINT RD                          000N        CARE OF             
MTR06928700001000000000000000RA              50787193    005800990000009900000520000003NN  NNW 000                       N    
RDG06928700WATRL000000004K00000000000001005008509092015131721N000000000001N45       000150400K 10000000010000000997           
CUS0692870000106149428002         DARA,LLC            610 OLD NORTH POINT RD                  000N        CARE OF             
MTR06928700001000000000000000RA              27815885    005801000000010000000520000003NN  NNW 000                       N    
RDG06928700WATRL000000004K00000000000007788016509092015131736N000000000000N45       000150400K 10000000010000007766           
CUS0692870000106149429000         DARA,LLC            612 N POINT RD                          000N        CARE OF             
MTR06928700001000000000000000RA              40321586    005801010000010100000520000003NN  NNW 000                       N    
RDG06928700WATRL000000004K00000000000004918016609092015131751N000000000000N45       000150400K 10000000010000004902           
CUS0692870000106098140004         BISCHOFF SHIRLEY M  725 OLD NORTH POINT RD                  000N        CARE OF             
MTR06928700001000000000000000RA              27133323    005801020000010200000520000003NN  NNW 000                       N    
RDG06928700WATRL000000004K00000000000002845008609092015092815N000000000011N45       000910400K 10000000010000002843           
CUS0692870000106098141002         FARNER RACHEL T     723 S N POINT RD                        000N        CARE OF             
MTR06928700001000000000000000RA              00128197    005801030000010300000570000003NN  NNW 000                       N    
RDG06928700WATRL000000004K00000000000002143009409092015092644N000000000000N45       000960400K 10000000010000002143           
CUS0692870000106098142000         LOYALL LILLIAN E    721 S N POINT RD                        000N        CARE OF             
MTR06928700001000000000000000RA              39291764    005801040000010400000520000003NN  NNW 000                       N    
RDG06928700WATRL000000004K00000000000004461009309092015092508N000000000000N45       001280400K 10000000010000004451           
CUS0692870000106098143008         BURD RICHARD H,JR   719 OLD NORTH POINT RD                  000N        CARE OF             
MTR06928700001000000000000000RA              2997422     005801050000010500000520000003NN  NNW 000                       N    
RDG06928700WATRL000000004K00000000000000000000000000000000000 000000000000U         000000400  10000000010000003454           
CUS0692870000106098144006         KOLACZ JOHN         717 S N POINT RD                        000N        CARE OF             
MTR06928700001000000000000000RA              44093188    005801060000010600000520000003NN  NNW 000                       N    
RDG06928700WATRL000000004K00000000000004025009209092015092300N000000000000N45       001910400K 10000000010000003960           
CUS0692870000106098145003         GORFINE, HARRY B-TRU719 N POINT BLVD                        000N        CARE OF             
MTR06928700001000000000000000RA              31938261    001501070000010700000520000003NY  NNW 000                       N    
MTM0692870031938261    CL                                                                                                     
RDG06928700WATRL000000005K00000000000000000000000000000000000 000000000000U         000000500  10000000010000026302           
CUS0692870000106098146001         LUMARO LUIGI        715 S N POINT RD                        000N        CARE OF             
MTR06928700001000000000000000RA              44093190    005801080000010800000520000003NN  NNW 000                       N    
RDG06928700WATRL000000004K00000000000001421009109092015091949N000300000020N45       000540400K 10000000010000001403           
CUS0692870000106098147009         DAVENTRY REALTY LLC 713 OLD NORTH POINT RD                  000N        CARE OF             
MTR06928700001000000000000000RA              45386862    005801090000010900000520000003NN  NNW 000                       N    
RDG06928700WATRL000000004K00000000000001655009009092015091855N000000000000N45       001030400K 10000000010000001609           
CUS0692870000106098148007         NAGEL DAVID C       711 S N POINT RD                        000N        CARE OF             
MTR06928700001000000000000000RA              44093189    005801100000011000000520000003NN  NNW 000                       N    
RDG06928700WATRL000000004K00000000000002798008909092015091712N000300000010N45       001210400K 10000000010000002731           
CUS0692870000106098149005         COPINGER PROPERTIES 709 S N POINT RD                        000N        CARE OF             
MTR06928700001000000000000000RA              46886023    005801110000011100000520000003NY  NNW 000                       N    
MTM0692870046886023    BURIED                                                                                                 
RDG06928700WATRL000000004K00000000000000000000000000000000000 000000000000U         000000400  10000000010000001724           
CUS0692870000106098150003         PERZYNSKI JOSEPH WIL707 S N POINT RD                        000N        CARE OF             
MTR06928700001000000000000000RA              14910022    005801120000011200000310000003NN  NNW 000                       N    
RDG06928700WATRL000000004K00000000000000713008809092015091511N000000000000N45       000850400K 10000000010000000696           
CUS0692870000106098151001         SAMMONS RICHARD     703 N POINT RD                          000N        CARE OF             
MTR06928700001000000000000000RA              31581463    005801130000011300000520000003NN  NNW 000                       N    
RDG06928700WATRL000000004K00000000000005840008709092015091346N000000000000N45       002490400K 10000000010000005840           
CUS0692870000106098152009         THE ATRIUM LLC      701 N POINT RD                          000N        CARE OF             
MTR06928700001000000000000000RA              14930736    005801140000011400000310000003NN  NNW 000                       N    
RDG06928700WATRL000000004K00000000000000008013309092015103655N000300000010N45       002520400K 10000000010000000330           
CUS0692870000106149430008         STEFANSKI ROSE      619 N POINT RD                          000N        CARE OF             
MTR06928700001000000000000000RA              14923186    005801150000011500000310000003NN  NNW 000                       N    
RDG06928700WATRL000000004K00000000000000079013409092015103719N000000000000N45       000240400K 10000000010000000079           
CUS0692870000106149431006         GATTUS WILLIAM J,JR 617 N POINT RD                          000N        CARE OF             
MTR06928700001000000000000000RA              26000419    005801160000011600000520000003NN  NNW 000                       N    
RDG06928700WATRL000000004K00000000000001345013609092015104012N000300000020N45       000600400K 10000000010000010336           
CUS0692870000106149432004         GATTUS WILLIAM J,JR 615 N POINT RD                          000N        CARE OF             
MTR06928700001000000000000000RA              26012467    005801170000011700000520000003NN  NNW 000                       N    
RDG06928700WATRL000000004K00000000000004294013509092015103912N000000000000N45       001130400K 10000000010000004270           
CUS0692870000106149433002         BROWN JOSEPH FRANK,I613 N POINT RD                          000N        CARE OF             
MTR06928700001000000000000000RA              46876855    005801180000011800000520000003NN  NNW 000                       N    
RDG06928700WATRL000000004K00000000000001660013709092015104115N000000000000N45       000630400K 10000000010000001650           
CUS0692870000106149434000         FOLK JAMES W  FOLK G611 N POINT RD                          000N        CARE OF             
MTR06928700001000000000000000RA              41082004    005801190000011900000520000003NY  NNW 000   VACANT / LOT        N    
MTM0692870041082004    V LOT                                                                                                  
RDG06928700WATRL000000004K00000000000000000000000000000000000 000000000000U         000000400  10000000010000000046           
CUS0692870000106149435007         FOLK LARRY          605-09 N POINT RD                       000N        CARE OF             
MTR06928700001000000000000000RA              14903666    005801200000012000000310000003NN  NNW 000   VACANT / LOT        N    
RDG06928700WATRL000000004K00000000000001731013809092015104301N000000000000N45       001060400K 10000000010000001731           
CUS0692870000106149436005         FOLK JAMES W,JR     603 N POINT RD                          000N        CARE OF             
MTR06928700001000000000000000RA              01071772    005801210000012100000610000003NN  NNW 000                       N    
RDG06928700WATRL000000004K00000000000002340013909092015104342N000300000010N45       000410400K 10000000010000002509           
CUS0692870000106149437003         525 NORTH POINT RD L525 N POINT RD                          000N        CARE OF             
MTR06928700001000000000000000RA              75615980    005801220000012200000350000003NY  NNW 000                       N    
MTM0692870075615980    BURIED                                                                                                 
RDG06928700WATRL000000004K00000000000000000000000000000000000 000000000000U         000000400  10000000010000000021           
CUS0692870000106149438001         MORRIS J WEAVER     523 N POINT RD                          000N        CARE OF             
MTR06928700001000000000000000RA              76345044    005801230000012300000350000003NN  NNW 000                       N    
RDG06928700WATRL000000004K00000000000000094014009092015104618N000000000000N45       001560400K 10000000010000000066           
CUS0692870000106149439009         VADA EVANS          521 N POINT RD                          000N        CARE OF             
MTR06928700001000000000000000RA              44091804    005801240000012400000520000003NN  NNW 000                       N    
RDG06928700WATRL000000004K00000000000002316014109092015104729N000000000000N45       000710400K 10000000010000002306           
CUS0692870000106149440007         MARTINEZ DIANA      519 N POINT RD                          000N        CARE OF             
MTR06928700001000000000000000RA              27827813    005801250000012500000520000003NN  NNW 000                       N    
RDG06928700WATRL000000004K00000000000004441014209092015104811N000300000010N45       000420400K 10000000010000004985           
CUS0692870000106149441005         RIDGE KATHERINE H   517 N POINT RD                          000N        CARE OF             
MTR06928700001000000000000000RA              40321568    005801260000012600000520000003NY  NNW 000                       N    
MTM0692870040321568    GATE LOCK                                                                                              
RDG06928700WATRL000000004K00000000000000000000000000000000000 000000000000U         000000400  10000000010000003599           
CUS0692870000106149442003         EFFLAND KIMBERLY JO 515 N POINT RD                          000N        CARE OF             
MTR06928700001000000000000000RA              30518002    005801270000012700000520000003NN  NNW 000                       N    
RDG06928700WATRL000000004K00000000000004469014309092015104938N000000000000N45       000870400K 10000000010000004440           
CUS0692870000106149443001         WONG MARY S,TRUSTEE 513 N POINT RD                          000N        CARE OF             
MTR06928700001000000000000000RA              41082335    005801280000012800000520000003NN  NNW 000                       N    
RDG06928700WATRL000000004K00000000000002804014409092015105031N000100000010N45       000530400K 10000000010000002804           
CUS0692870000106149444009         FISHCHEVA OLGA      511 N POINT RD                          000N        CARE OF             
MTR06928700001000000000000000RA              11334345    005801290000012900000570000003NN  NNW 000                       N    
RDG06928700WATRL000000004K00000000000004490014509092015105051N000300000010N45       000200400K 10000000010000004434           
CUS0692870000106149445006         HOLLENSTEIN PAUL P  509 N POINT RD                          000N        CARE OF             
MTR06928700001000000000000000RA              10020858    005801300000013000000570000003NN  NNW 000                       N    
RDG06928700WATRL000000004K00000000000000300014609092015105140N000300000010N45       000490400K 10000000010000000273           
CUS0692870000106149446004         LAGHFIRI ABDERRAHMAN507 N POINT RD                          000N        CARE OF             
MTR06928700001000000000000000RA              75424085    005801310000013100000350000003NN  NNW 000                       N    
RDG06928700WATRL000000004K00000000000000234014709092015105227N000000000000N45       000470400K 10000000010000000195           
CUS0692870000106149447002         GIBBS JASON M       505 N POINT RD                          000N        CARE OF             
MTR06928700001000000000000000RA              45373135    005801320000013200000520000003NN  NNW 000                       N    
RDG06928700WATRL000000004K00000000000003368014809092015105245N000000000000N45       000180400K 10000000010000003341           
CUS0692870000106149448000         DEVLIN JAMES        503 N POINT RD                          000N        CARE OF             
MTR06928700001000000000000000RA              45373079    005801330000013300000520000003NN  NNW 000                       N    
RDG06928700WATRL000000004K00000000000000423014909092015105507N000300000030N45       001420400K 10000000010000000475           
CUS0692870000106149449008         FORCE DOROTHY V     501 N POINT RD                          000N        CARE OF             
MTR06928700001000000000000000RA              9987597     005801340000013400000570000003NN  NNW 000                       N    
RDG06928700WATRL000000004K00000000000000704015009092015105605N000300000010N45       000580400K 10000000010000005754           
CUS0692870000106149450006         DHOWKEE PERSAUD     7618 CYPRESS AVE                        000N        CARE OF             
MTR06928700001000000000000000RA              27823154    005801350000013500000520000003NY  NNW 000                       N    
MTM0692870027823154    BURIED                                                                                                 
RDG06928700WATRL000000004K00000000000000000000000000000000000 000000000000U         000000400  10000000010000004059           
CUS0692870000106149451004         WATERS DONALD O,JR  7616 CYPRESS AVE                        000N        CARE OF             
MTR06928700001000000000000000RA              01082481    005801360000013600000610000003NN  NNW 000                       N    
RDG06928700WATRL000000004K00000000000003780013209092015103243N000000000000N45       000510400K 10000000010000003780           
CUS0692870000106149452002         KIRBY ROBERT C,JR   7614 CYPRESS AVE                        000N        CARE OF             
MTR06928700001000000000000000RA              99286255    005801370000013700000570000003NN  NNW 000                       N    
RDG06928700WATRL000000004K00000000000000965013109092015103152N000000000000N45       000430400K 10000000010000000947           
CUS0692870000106149453000         SLIWINSKI LAWRENCE  7612 CYPRESS AVE                        000N        CARE OF             
MTR06928700001000000000000000RA              01082487    005801380000013800000610000003NN  NNW 000                       N    
RDG06928700WATRL000000004K00000000000000614013009092015103109N000000000000N45       001100400K 10000000010000000606           
CUS0692870000106149454008         PAUL FREELS         7608 CYPRESS AVE                        000N        CARE OF             
MTR06928700001000000000000000RA              01082489    005801390000013900000610000003NY  NNW 000                       N    
MTM0692870001082489    BURIED                                                                                                 
RDG06928700WATRL000000004K00000000000000000000000000000000000 000000000000U         000000400  10000000010000001091           
CUS0692870000106149455005         JACOBS DAVID L,JR   7600 CYPRESS AVE                        000N        CARE OF             
MTR06928700001000000000000000RA              32902802    005801400000014000000520000003NN  NNW 000                       N    
RDG06928700WATRL000000004K00000000000001663012909092015102919N000000000000N45       001540400K 10000000010000001647           
CUS0692870000106149456003         GEORGE C ELLISON    7530 CYPRESS AVE                        000N        CARE OF             
MTR06928700001000000000000000RA              45387113    005801410000014100000520000003NY  NNW 000                       N    
MTM0692870045387113    CAR                                                                                                    
RDG06928700WATRL000000004K00000000000000000000000000000000000 000000000000U         000000400  10000000010000003820           
CUS0692870000106442266000         ILIADIS ANARGYROS   7528 CYPRESS AVE                        000N        CARE OF             
MTR06928700001000000000000000RA              14924078    005801420000014200000310000003NN  NNW 000                       N    
RDG06928700WATRL000000004K00000000000000439012809092015102645N000000000000N45       000460400K 10000000010000000427           
CUS0692870000102401191008         FRANK D MEADOWS     7526 CYPRESS AVE                        000N        CARE OF             
MTR06928700001000000000000000RA              41590602    005801430000014300000520000003NN  NNW 000                       N    
RDG06928700WATRL000000004K00000000000002477012709092015102559N000000000000N45       000110400K 10000000010000002457           
CUS0692870000106149457001         BARBARA EDWARDS     7522 CYPRESS AVE                        000N        CARE OF             
MTR06928700001000000000000000RA              76345915    005801440000014400000350000003NN  NNW 000                       N    
RDG06928700WATRL000000004K00000000000000026012609092015102548N000000000000N45       000510400K 10000000010000000019           
CUS0692870000106149458009         REINHART CARL T     7504 CYPRESS AVE                        000N        CARE OF             
MTR06928700001000000000000000RA              10022597    005801450000014500000570000003NN  NNW 000                       N    
RDG06928700WATRL000000004K00000000000000084012509092015102457N000000000000N45       000090400K 10000000010000000074           
CUS0692870000106149459007         MID-ATLANTIC HUMAN  7502 CYPRESS AVE                        000N        CARE OF             
MTR06928700001000000000000000RA              38984166    005801460000014600000520000003NN  NNW 000                       N    
RDG06928700WATRL000000004K00000000000002963012409092015102448N000000000000N45       000440400K 10000000010000002923           
CUS0692870000106149460005         MATTHEWS THOMAS P   7500 CYPRESS AVE                        000N        CARE OF             
MTR06928700001000000000000000RA              99188490    005801470000014700000570000003NN  NNW 000                       N    
RDG06928700WATRL000000004K00000000000000869012309092015102404N000000000000N45       000380400K 10000000010000000865           
CUS0692870000106149461003         HENRY A DOUGLAS     7501 CYPRESS AVE                        000N        CARE OF             
MTR06928700001000000000000000RA              39584667    005801480000014800000520000003NN  NNW 000                       N    
RDG06928700WATRL000000004K00000000000001813012209092015102326N000000000000N45       000180400K 10000000010000001802           
CUS0692870000106149462001         KANE JOHN P         7503 CYPRESS AVE                        000N        CARE OF             
MTR06928700001000000000000000RA              00128133    005801490000014900000570000003NN  NNW 000                       N    
RDG06928700WATRL000000004K00000000000001921012109092015102308N000300000010N45       000540400K 10000000010000001861           
CUS0692870000106149463009         SCHMITT BRUCE M     7527 CYPRESS AVE                        000N        CARE OF             
MTR06928700001000000000000000RA              14911751    005801500000015000000310000003NN  NNW 000                       N    
RDG06928700WATRL000000004K00000000000000415012009092015102214N000000000000N45       000510400K 10000000010000000405           
CUS0692870000106149464007         CHESTER KOLUCH      7529 CYPRESS AVE                        000N        CARE OF             
MTR06928700001000000000000000RA              77987473    005801510000015100000350000003NN  NNW 000                       N    
RDG06928700WATRL000000004K00000000000000028011909092015102123N000400000010N45       000170400K 10000000010000000020           
CUS0692870000106149465004         JANNEY DEBRA J      7531 CYPRESS AVE                        000N        CARE OF             
MTR06928700001000000000000000RA              26013276    005801520000015200000520000003NN  NNW 000                       N    
RDG06928700WATRL000000004K00000000000003116011809092015102106N000000000000N45       001210400K 10000000010000003110           
CUS0692870000106149466002         WILLARD RICHARD A   7601 CYPRESS AVE                        000N        CARE OF             
MTR06928700001000000000000000RA              44173382    005801530000015300000520000003NN  NNW 000                       N    
RDG06928700WATRL000000004K00000000000001592011709092015101905N000300000010N45       000610400K 10000000010000002203           
CUS0692870000106149467000         HEINE JOSEPH        7603 CYPRESS AVE                        000N        CARE OF             
MTR06928700001000000000000000RA              19461950    005801540000015400000520000003NN  NNW 000                       N    
RDG06928700WATRL000000004K00000000000002800011609092015101804N000300000010N45       000660400K 10000000010000003274           
CUS0692870000106149468008         FREELS BRIAN K      7605 CYPRESS AVE                        000N        CARE OF             
MTR06928700001000000000000000RA              44178717    005801550000015500000520000003NN  NNW 000                       N    
RDG06928700WATRL000000004K00000000000000781011509092015101658N000300000010N45       000630400K 10000000010000000877           
CUS0692870000106149469006         AMATO GUY E         7607 CYPRESS AVE                        000N        CARE OF             
MTR06928700001000000000000000RA              35106502    005801560000015600000520000003NN  NNW 000                       N    
RDG06928700WATRL000000004K00000000000000830011409092015101555N000300000010N45       000570400K 10000000010000001051           
CUS0692870000106149470004         LEWIS STANTON,JR    7609 CYPRESS AVE                        000N        CARE OF             
MTR06928700001000000000000000RA              14900196    005801570000015700000310000003NN  NNW 000                       N    
RDG06928700WATRL000000004K00000000000001134011309092015101458N000000000010N45       000920400K 10000000010000000011           
CUS0692870000106149471002         ELLWOOD & ANNA PAYNE7611 CYPRESS AVE                        000N        CARE OF             
MTR06928700001000000000000000RA              01082488    005801580000015800000610000003NN  NNW 000                       N    
RDG06928700WATRL000000004K00000000000000843011209092015101326N000000000000N45       000670400K 10000000010000000795           
CUS0692870000106149472000         SHENTON JOHN M,3RD  7613 CYPRESS AVE                        000N        CARE OF             
MTR06928700001000000000000000RA              32902805    005801590000015900000520000003NN  NNW 000                       N    
RDG06928700WATRL000000004K00000000000001791011109092015101219N000000000010N45       001580400K 10000000010000001793           
CUS0692870000106149473008         MARSILI ROBERT L,JR 7617 CYPRESS AVE                        000N        CARE OF             
MTR06928700001000000000000000RA              31583450    005801600000016000000520000003NN  NNW 000                       N    
RDG06928700WATRL000000004K00000000000002228010909092015100845N000000000000N45       000770400K 10000000010000002221           
CUS0692870000106149474006         MICHELE DENISIO     7615 CYPRESS AVE                        000N        CARE OF             
MTR06928700001000000000000000RA              01082480    005801610000016100000610000003NN  NNW 000                       N    
RDG06928700WATRL000000004K00000000000002200011009092015100941N000300000010N45       000560400K 10000000010000002341           
CUS0692870000106149475003         BAKAR ABU           7619 CYPRESS AVE                        000N        CARE OF             
MTR06928700001000000000000000RA              14900199    005801620000016200000310000003NN  NNW 000                       N    
RDG06928700WATRL000000004K00000000000001183010809092015100728N000000000000N45       000360400K 10000000010000001165           
CUS0692870000106149476001         DAVENTRY REALTY LLC 7621 CYPRESS AVE                        000N        CARE OF             
MTR06928700001000000000000000RA              41257675    005801630000016300000520000003NN  NNW 000                       N    
RDG06928700WATRL000000004K00000000000002130010709092015100652N000000000011N45       000390400K 10000000010000002115           
CUS0692870000106149477009         GATTUS WILLIAM J    SWC CYPRESS AV &                        000N        CARE OF             
MTR06928700001000000000000000RA              01082155    005801640000016400000610000003NN  NNW 000                       N    
RDG06928700WATRL000000004K00000000000002324010609092015100508N000300000010N45       002680400K 10000000010000002804           
CUS0692870000106149478007         JAMES F FORSYTHE SR 702 N POINT RD                          000N        CARE OF             
MTR06928700001000000000000000RA              2305718     005801650000016500000520000003NN  NNW 000                       N    
RDG06928700WATRL000000004K00000000000004414010509092015100040N000000000000N45       000350400K 10000000010000004396           
CUS0692870000106149479005         HELINE ROBBIE       704 N POINT RD                          000N        CARE OF             
MTR06928700001000000000000000RA              00128194    005801660000016600000570000003NN  NNW 000                       N    
RDG06928700WATRL000000004K00000000000000586010409092015100005N000000000000N45       000630400K 10000000010000000576           
CUS0692870000106149480003         JOHNSON KENNETH L   706 NORTH POINT RD                      000N        CARE OF             
MTR06928700001000000000000000RA              29082624    005801670000016700000520000003NN  NNW 000                       N    
RDG06928700WATRL000000004K00000000000002524010309092015095902N000000000000N45       000410400K 10000000010000002508           
CUS0692870000106149481001         MELONY SORDILLO     708 N POINT RD                          000N        CARE OF             
MTR06928700001000000000000000RA              41086321    005801680000016800000520000003NN  NNW 000                       N    
RDG06928700WATRL000000004K00000000000001662010209092015095821N000300000010N45       002560400K 10000000010000001630           
CUS0692870000106405936003         LANGKAM FRANCIS WILL7624 CRESCENT AVE                       000N        CARE OF             
MTR06928700001000000000000000RA              44090135    005801690000016900000520000000NN  NNW 000                       N    
RDG06928700WATRL000000004K00000000000002283010109092015095405N000000000000N45       001760400K 10000000010000002252           
CUS0692870000106401949000         SONIA FRIEDEL       7626 CRESCENT AVE                       000N        CARE OF             
MTR06928700001000000000000000RA              41076261    005801700000017000000520000003NN  NNW 000                       N    
RDG06928700WATRL000000004K00000000000002129009509092015093229N000000000000N45       002540400K 10000000010000002102           
CUS0692870000106149482009         FELTS ALAN D        714 N POINT RD                          000N        CARE OF             
MTR06928700001000000000000000RA              31936220    005801710000017100000520000003NN  NNW 000                       N    
RDG06928700WATRL000000004K00000000000005206009609092015093357N000300000010N45       000880400K 10000000010000005140           
CUS0692870000106149483007         KATHERINE M WILHELM 716 N POINT RD                          000N        CARE OF             
MTR06928700001000000000000000RA              01116628    005801720000017200000610000003NN  NNW 000                       N    
RDG06928700WATRL000000004K00000000000000828009709092015093501N000000000000N45       000640400K 10000000010000000805           
CUS0692870000106149484005         ANDERSON WILLIAM T  718 N POINT RD                          000N        CARE OF             
MTR06928700001000000000000000RA              44087984    005801730000017300000520000003NN  NNW 000                       N    
RDG06928700WATRL000000004K00000000000002953009809092015093545N000100000010N45       000440400K 10000000010000002953           
CUS0692870000106149485002         KUHN CHARLES B      720 N POINT RD                          000N        CARE OF             
MTR06928700001000000000000000RA              38782552    005801740000017400000520000003NN  NNW 000                       N    
RDG06928700WATRL000000004K00000000000004816009909092015093641N000300000010N45       000560400K 10000000010000004785           
CUS0692870000106149486000         PRICE WILLIAM R     722 N POINT RD                          000N        CARE OF             
MTR06928700001000000000000000RA              75424416    005801750000017500000350000003NN  NNW 000                       N    
RDG06928700WATRL000000004K00000000000000231010009092015095109N000000000000N45       008680400K 10000000010000000216           
RTR06928700NN01750175000001750000000001750175000385NY017501750175000900000000000000000000000002    09022015NY020000 N         
RHD06929000NN01380138000001380000000001380138000193NY013801380138001500090000000000000000000002    08102015NY020000 N         
CUS0692900000106149487008         RANDY A SOUDERS     7624 CARSON AVE                         000N        CARE OF             
MTR06929000001000000000000000RA              76349209    005800010000000100000350000003NN  NNW 000                       N    
RDG06929000WATRL000000004K00000000000000219000108142015123344N000000000000N21       000000400K 10000000010000000182           
CUS0692900000106149488006         JOHNSON PATRICK M   7622 CARSON AVE                         000N        CARE OF             
MTR06929000001000000000000000RA              41082337    005800020000000200000520000003NN  NNW 000                       N    
RDG06929000WATRL000000004K00000000000002220000208142015123534N000000000051N21       000230400K 10000000010000002209           
CUS0692900000106149489004         LOUIS J DEMANSS     7618 CARSON AVE                         000N        CARE OF             
MTR06929000001000000000000000RA              10009110    005800030000000300000570000003NN  NNW 000                       N    
RDG06929000WATRL000000004K00000000000000820000308142015123547N000000000000N21       000130400K 10000000010000000771           
CUS0692900000106149490002         NOVAK GERI LYNN     7616 CARSON AVE                         000N        CARE OF             
MTR06929000001000000000000000RA              32573291    005800040000000400000520000003NN  NNW 000                       N    
RDG06929000WATRL000000004K00000000000003984000408142015123618N000000000000N21       000310400K 10000000010000003943           
CUS0692900000106149491000         HAYES ROBIN ANN     7614 CARSON AVE                         000N        CARE OF             
MTR06929000001000000000000000RA              52287994    005800050000000500000520000003NN  NNW 000                       N    
RDG06929000WATRL000000004K00000000000001777000508142015123640N000000000000N21       000220400K 10000000010000001764           
CUS0692900000106149492008         GOODSON KEITH M     7612 CARSON AVE                         000N        CARE OF             
MTR06929000001000000000000000RA              24757412    005800060000000600000520000003NN  NNW 000                       N    
RDG06929000WATRL000000004K00000000000004034000608142015123709N000000000000N21       000290400K 10000000010000004018           
CUS0692900000106149493006         RICHARD WHARTON     7610 CARSON AVE                         000N        CARE OF             
MTR06929000001000000000000000RA              26001628    005800070000000700000520000003NN  NNW 000                       N    
RDG06929000WATRL000000004K00000000000002754000708142015123808N000000000000N21       000590400K 10000000010000002747           
CUS0692900000106149494004         HARRIS BRENDA L     7608 CARSON AVE                         000N        CARE OF             
MTR06929000001000000000000000RA              01111250    005800080000000800000610000003NN  NNW 000                       N    
RDG06929000WATRL000000004K00000000000000760000209092015080802N000000000000U21       001620400K 10000000010000000750           
CUS0692900000106149495001         HAZEL A BALLISTRERI 7604 CARSON AVE                         000N        CARE OF             
MTR06929000001000000000000000RA              45383168    005800090000000900000520000003NN  NNW 000                       N    
RDG06929000WATRL000000004K00000000000001302000808142015124056N000000000000N21       001680400K 10000000010000001288           
CUS0692900000106149496009         SCALA JOSEPH C      7602 CARSON AVE                         000N        CARE OF             
MTR06929000001000000000000000RA              39925127    005800100000001000000520000003NN  NNW 000                       N    
RDG06929000WATRL000000004K00000000000001693000908142015124142N000000000000N21       000460400K 10000000010000001678           
CUS0692900000106149497007         RODMAN TINA         7600 CARSON AVE                         000N        CARE OF             
MTR06929000001000000000000000RA              32902811    005800110000001100000520000003NN  NNW 000                       N    
RDG06929000WATRL000000004K00000000000001377001008142015124259N000000000000N21       000770400K 10000000010000001367           
CUS0692900000106149498005         JACEK MROCZKOWSKI   706 SOUTHERN AVE                        000N        CARE OF             
MTR06929000001000000000000000RA              48584073    005800120000001200000520000003NN  NNW 000                       N    
RDG06929000WATRL000000004K00000000000002385001108142015124417N000000000000N21       000780400K 10000000010000002367           
CUS0692900000106399439006         BOWLING SHARON L    708 SOUTHERN AVE                        000N        CARE OF             
MTR06929000001000000000000000RA              40781518    005800130000001300000520000003NN  NNW 000                       N    
RDG06929000WATRL000000004K00000000000003615001208142015124524N000000000000N21       000670400K 10000000010000003592           
CUS0692900000106149499003         WAREHEIM GEORGE R   7530 CARSON AVE                         000N        CARE OF             
MTR06929000001000000000000000RA              99188439    005800140000001400000570000003NN  NNW 000                       N    
RDG06929000WATRL000000004K00000000000000998001308142015124612N000300000010N21       000480400K 10000000010000001012           
CUS0692900000106149500008         CARPENTER ROBERT,JR 7528 CARSON AVE                         000N        CARE OF             
MTR06929000001000000000000000RA              52285698    005800150000001500000520000003NY  NNW 000                       N    
MTM0692900052285698    14924862                                                                                               
RDG06929000WATRL000000004K00000000000000021001408142015124753N000304100010N21       001010400K 10000000010000000203           
CUS0692900000106149501006         RICKO GARY TOM      7526 CARSON AVE                         000N        CARE OF             
MTR06929000001000000000000000RA              26016479    005800160000001600000520000003NN  NNW 000                       N    
RDG06929000WATRL000000004K00000000000003467001508142015124854N000400000010N21       000610400K 10000000010000003459           
CUS0692900000106149502004         JEFFREY M DAHNE     7524 CARSON AVE                         000N        CARE OF             
MTR06929000001000000000000000RA              78023984    005800170000001700000360000003NN  NNW 000                       N    
RDG06929000WATRL000000004K00000000000000000001608142015124911S001000000000N21       000170400K 10000000010000000036           
CUS0692900000106149503002         HAYES WILLIAM J     7522 CARSON AVE                         000N        CARE OF             
MTR06929000001000000000000000RA              46878598    005800180000001800000520000003NN  NNW 000                       N    
RDG06929000WATRL000000004K00000000000000740001708142015125057N000000000000N21       001060400K 10000000010000000728           
CUS0692900000106149504000         WILDBERGER ANDREW   7520 CARSON AVE                         000N        CARE OF             
MTR06929000001000000000000000RA              01079897    005800190000001900000610000003NN  NNW 000                       N    
RDG06929000WATRL000000004K00000000000001285001808142015125852N000000000000N21       004750400K 10000000010000001251           
CUS0692900000106149505007         RONNIE D SANTUCCI   7518 CARSON AVE                         000N        CARE OF             
MTR06929000001000000000000000RA              00127693    005800200000002000000570000003NN  NNW 000                       N    
RDG06929000WATRL000000004K00000000000002621001908142015130036N000000000000N21       001040400K 10000000010000002578           
CUS0692900000106149506005         RONALD J SPEALMAN   7516 CARSON AVE                         000N        CARE OF             
MTR06929000001000000000000000RA              44002081    005800210000002100000520000003NN  NNW 000                       N    
RDG06929000WATRL000000004K00000000000003170002008142015130239N000400000010N21       001230400K 10000000010000003159           
CUS0692900000106149507003         GRADY EDGAR F,3RD   7504 CARSON AVE                         000N        CARE OF             
MTR06929000001000000000000000RA              14914330    005800220000002200000310000003NN  NNW 000                       N    
RDG06929000WATRL000000004K00000000000001322002108142015130351N000000000000N21       000720400K 10000000010000001294           
CUS0692900000106149508001         FRASCA STEVEN LOUIS 7502 CARSON AVE                         000N        CARE OF             
MTR06929000001000000000000000RA              48592212    005800230000002300000520000003NN  NNW 000                       N    
RDG06929000WATRL000000004K00000000000000771002208142015130619N000000000011N21       000090400K 10000000010000000761           
CUS0692900000106149509009         KASTNER TOBIAS P    7500 CARSON AVE                         000N        CARE OF             
MTR06929000001000000000000000RA              11337577    005800240000002400000570000003NN  NNW 000                       N    
RDG06929000WATRL000000004K00000000000003150002308142015130704N000000000010N21       000450400K 10000000010000003148           
CUS0692900000106149510007         GEORGE M TARBURTON ,7501 CARSON AVE                         000N        CARE OF             
MTR06929000001000000000000000RA              45374240    005800250000002500000520000003NN  NNW 000                       N    
RDG06929000WATRL000000004K00000000000002223002408142015130800N000400000010N21       000560400K 10000000010000002214           
CUS0692900000106149511005         SANTUCCI RICHARD L,J7505 CARSON AVE                         000N        CARE OF             
MTR06929000001000000000000000RA              44087443    005800260000002600000520000003NN  NNW 000                       N    
RDG06929000WATRL000000004K00000000000001174002508142015130937N000000000000N21       000970400K 10000000010000001167           
CUS0692900000106149512003         JOSEPH E ZIMMERMAN  7513 CARSON AVE                         000N        CARE OF             
MTR06929000001000000000000000RA              54348006    005800270000002700000520000003NN  NNW 000                       N    
RDG06929000WATRL000000004K00000000000001005002608142015131018N000000000000N21       000410400K 10000000010000000997           
CUS0692900000106149513001         TIRABASSI PASQUALINA7515 CARSON AVE                         000N        CARE OF             
MTR06929000001000000000000000RA              10024145    005800280000002800000570000003NN  NNW 000                       N    
RDG06929000WATRL000000004K00000000000000207002708142015131140N000000000010N21       000820400K 10000000010000000197           
CUS0692900000106149514009         GONZALEZ RON        7517 CARSON AVE                         000N        CARE OF             
MTR06929000001000000000000000RA              54348008    005800290000002900000520000003NY  NNW 000                       N    
MTM0692900054348008    cant locate buried but marked                                                                          
RDG06929000WATRL000000004K00000000000000000000000000000000000 000000000000U         000000400  10000000010000001905           
CUS0692900000106149515006         HEPNER SUZANNE MARIE7519 CARSON AVE                         000N        CARE OF             
MTR06929000001000000000000000RA              30523183    005800300000003000000520000003NN  NNW 000                       N    
RDG06929000WATRL000000004K00000000000001692002808142015131401N000000000000N21       001410400K 10000000010000001667           
CUS0692900000106149516004         TARBURTON FREDERICK 7521 CARSON AVE                         000N        CARE OF             
MTR06929000001000000000000000RA              46877935    005800310000003100000520000003NN  NNW 000                       N    
RDG06929000WATRL000000004K00000000000003465002908142015131530N000400000020N21       000890400K 10000000010000003457           
CUS0692900000106149517002         JOSEPH FRANK KREIPL 7525 CARSON AVE                         000N        CARE OF             
MTR06929000001000000000000000RA              36691241    005800320000003200000520000003NN  NNW 000                       N    
RDG06929000WATRL000000004K00000000000002695003008142015131709N000000000000N21       000990400K 10000000010000002676           
CUS0692900000106149518000         WARREN CLARA M      7527 CARSON AVE                         000N        CARE OF             
MTR06929000001000000000000000RA              77987706    005800330000003300000350000003NN  NNW 000                       N    
RDG06929000WATRL000000004K00000000000000000003108142015131745S001000000000N21       000360400K 10000000010000000087           
CUS0692900000106149519008         AHMER CHARLES H,JR  7529 CARSON AVE                         000N        CARE OF             
MTR06929000001000000000000000RA              00127685    005800340000003400000570000003NY  NNW 000                       N    
MTM0692900000127685    buried                                                                                                 
RDG06929000WATRL000000004K00000000000000000000000000000000000 000000000000U         000000400  10000000010000001454           
CUS0692900000106149520006         PORTILLO DOLORES GAR7531 CARSON AVE                         000N        CARE OF             
MTR06929000001000000000000000RA              44176309    005800350000003500000520000003NN  NNW 000                       N    
RDG06929000WATRL000000004K00000000000001024003208142015131837N000000000000N21       000520400K 10000000010000000986           
CUS0692900000106149521004         HOWARD ARBOGAST     7601 CARSON AVE                         000N        CARE OF             
MTR06929000001000000000000000RA              78023573    005800360000003600000360000003NN  NNW 000                       N    
RDG06929000WATRL000000004K00000000000000000003308142015131915S001000000000N21       000380400K 10000000010000000000           
CUS0692900000106149522002         THATCHER DAVID,JR   7603 CARSON AVE                         000N        CARE OF             
MTR06929000001000000000000000RA              32902810    005800370000003700000520000003NN  NNW 000                       N    
RDG06929000WATRL000000004K00000000000002568000109092015080520N000000000000U21       000000400K 10000000010000002557           
CUS0692900000106407354007         HEISLER ELIZABETH A 7605 CARSON AVE                         000N        CARE OF             
MTR06929000001000000000000000RA              35107793    005800380000003800000520000003NN  NNW 000                       N    
RDG06929000WATRL000000004K00000000000002514003408142015132026N000000000000N21       000710400K 10000000010000002514           
CUS0692900000106149523000         SNYDER MARY         7609 CARSON AVE                         000N        CARE OF             
MTR06929000001000000000000000RA              35099169    005800390000003900000520000003NN  NNW 000                       N    
RDG06929000WATRL000000004K00000000000002899003508142015132117N000000000000N21       000510400K 10000000010000002895           
CUS0692900000106149524008         MCGEE PATRICK J     7611 CARSON AVE                         000N        CARE OF             
MTR06929000001000000000000000RA              32770864    005800400000004000000520000003NN  NNW 000                       N    
RDG06929000WATRL000000004K00000000000003321003608142015132215N000400000010N21       000580400K 10000000010000003309           
CUS0692900000106149525005         KATHI SANTONI       7615 CARSON AVE                         000N        CARE OF             
MTR06929000001000000000000000RA              39925097    005800410000004100000520000003NN  NNW 000                       N    
RDG06929000WATRL000000004K00000000000001424003708142015132250N000000000000N21       000350400K 10000000010000001407           
CUS0692900000106149527001         SEXTON DAVID W      7617 CARSON AVE                         000N        CARE OF             
MTR06929000001000000000000000RA              45376956    005800420000004200000520000003NY  NNW 000                       N    
MTM0692900045376956    no access                                                                                              
RDG06929000WATRL000000004K00000000000000000000000000000000000 000000000000U         000000400  10000000010000001466           
CUS0692900000106149528009         HOWARD R HUNT       7619 CARSON AVE                         000N        CARE OF             
MTR06929000001000000000000000RA              24230149    005800430000004300000520000003NN  NNW 000                       N    
RDG06929000WATRL000000004K00000000000005940003808142015132353N000300000010N21       000630400K 10000000010000005875           
CUS0692900000106149529007         DYER HAROLD E       7623 CARSON AVE                         000N        CARE OF             
MTR06929000001000000000000000RA              32902773    005800440000004400000520000003NN  NNW 000                       N    
RDG06929000WATRL000000004K00000000000001669003908142015132506N000000000000N21       000730400K 10000000010000001666           
CUS0692900000106149530005         BEDNARSKI JAMES M   7625 CARSON AVE                         000N        CARE OF             
MTR06929000001000000000000000RA              32902796    005800450000004500000520000003NN  NNW 000                       N    
RDG06929000WATRL000000004K00000000000001614004008142015132541N000000000000N21       000350400K 10000000010000001607           
CUS0692900000106149531003         FISHER GEORGE F     7627 CARSON AVE                         000N        CARE OF             
MTR06929000001000000000000000RA              21202539    005800460000004600000520000003NN  NNW 000                       N    
RDG06929000WATRL000000004K00000000000003145004108142015132608N000000000000N21       000270400K 10000000010000003135           
CUS0692900000106149532001         STEVENS JENNEFER L  7629 CARSON AVE                         000N        CARE OF             
MTR06929000001000000000000000RA              32902777    005800470000004700000520000003NY  NNW 000                       N    
MTM0692900032902777    buried                                                                                                 
RDG06929000WATRL000000004K00000000000000000000000000000000000 000000000000U         000000400  10000000010000002499           
CUS0692900000106149533009         RASHAD MINHAS       800 N POINT RD                          000N        CARE OF             
MTR06929000001000000000000000RA              26012470    005800480000004800000520000003NN  NNW 000                       N    
RDG06929000WATRL000000004K00000000000003259004709042015141919N000000000000U21       000240400K 10000000010000003199           
CUS0692900000106149534007         CHARLES A BAYNE     802 N POINT RD                          000N        CARE OF             
MTR06929000001000000000000000RA              35118299    005800490000004900000520000003NN  NNW 000                       N    
RDG06929000WATRL000000004K00000000000003215004609042015141855N000000000010U21       000460400K 10000000010000003197           
CUS0692900000106149535004         TYSON MICHAEL P     804 N POINT RD                          000N        CARE OF             
MTR06929000001000000000000000RA              46875190    005800500000005000000520000003NN  NNW 000                       N    
RDG06929000WATRL000000004K00000000000002068004509042015141809N000400000020U21       000630400K 10000000010000002056           
CUS0692900000106149536002         CRESTA CARMINE A JR 806 N POINT RD                          000N        CARE OF             
MTR06929000001000000000000000RA              11329193    005800510000005100000570000003NN  NNW 000                       N    
RDG06929000WATRL000000004K00000000000004895004409042015141706N000000000000U21       000450400K 10000000010000004878           
CUS0692900000106149537000         RIDEN JAMES ARTHUR  808 N POINT RD                          000N        CARE OF             
MTR06929000001000000000000000RA              23645795    005800520000005200000520000003NN  NNW 000                       N    
RDG06929000WATRL000000004K00000000000002601004309042015141621N000400000010U21       001080400K 10000000010000002598           
CUS0692900000106149538008         HARBOR HOUSE BUILDER810 N POINT RD                          000N        CARE OF             
MTR06929000001000000000000000RA              48586244    005800530000005300000520000003NY  NNW 000                       N    
MTM0692900048586244    in bush                                                                                                
RDG06929000WATRL000000004K00000000000001749000309092015082014N000000000040U21       007320400K 10000000010000001746           
CUS0692900000106149539006         GEORGE E DIMICK 3RD 814 N POINT RD                          000N        CARE OF             
MTR06929000001000000000000000RA              11334660    005800540000005400000570000003NN  NNW 000                       N    
RDG06929000WATRL000000004K00000000000002543004209042015141433N000000000000U21       006000400K 10000000010000002521           
CUS0692900000106367099006         HARTMAN MICHAEL, JR 7610 BELMONT AVE                        000N        CARE OF             
MTR06929000001000000000000000RA              30523278    005800550000005500000520000003NN  NNW 000                       N    
RDG06929000WATRL000000004K00000000000002647003609042015140003N000000000000U21       000710400K 10000000010000002633           
CUS0692900000106348727006         PATTERSON WILLIAM D 7608 BELMONT AVE                        000N        CARE OF             
MTR06929000001000000000000000RA              26015646    005800560000005600000520000003NN  NNW 000                       N    
RDG06929000WATRL000000004K00000000000004476003509042015135852N000000000000U21       000420400K 10000000010000004455           
CUS0692900000106348990000         STAMP TANYA         7606 BELMONT AVE                        000N        CARE OF             
MTR06929000001000000000000000RA              27133200    005800570000005700000520000003NN  NNW 000                       N    
RDG06929000WATRL000000004K00000000000002732003409042015135810N000000000000U21       001470400K 10000000010000002708           
CUS0692900000106407802005         WILLIAMS RYAN       7600 BELMONT AVE                        000N        CARE OF             
MTR06929000001000000000000000RA              44175883    005800580000005800000520000003NN  NNW 000                       N    
RDG06929000WATRL000000004K00000000000001446002509042015134549N000000000000U21       000470400K 10000000010000001435           
CUS0692900000106149540004         BAZAKOS ZAFIRIOS    7518 BELMONT AVE                        000N        CARE OF             
MTR06929000001000000000000000RA              48593849    005800590000005900000520000003NN  NNW 000                       N    
RDG06929000WATRL000000004K00000000000001593002409042015134502N000000000010U21       000350400K 10000000010000001577           
CUS0692900000106149541002         KUMMER GORDON L,JR  7516 BELMONT AVE                        000N        CARE OF             
MTR06929000001000000000000000RA              99292546    005800600000006000000570000003NN  NNW 000                       N    
RDG06929000WATRL000000004K00000000000001577002309042015134427N000000000000U21       000350400K 10000000010000001551           
CUS0692900000106149542000         RODE DARLENE D      7514 BELMONT AVE                        000N        CARE OF             
MTR06929000001000000000000000RA              00128057    005800610000006100000570000003NN  NNW 000                       N    
RDG06929000WATRL000000004K00000000000001493002209042015134352N000000000000U21       000380400K 10000000010000001461           
CUS0692900000106149543008         GOLDSMITH PHILLIP G 7512 BELMONT AVE                        000N        CARE OF             
MTR06929000001000000000000000RA              24758139    005800620000006200000520000003NN  NNW 000                       N    
RDG06929000WATRL000000004K00000000000004488002109042015134314N000300000020U21       000540400K 10000000010000004594           
CUS0692900000106149544006         ANTOS MARY ANN      7510 BELMONT AVE                        000N        CARE OF             
MTR06929000001000000000000000RA              26013320    005800630000006300000520000003NN  NNW 000                       N    
RDG06929000WATRL000000004K00000000000003123002009042015134220N000000000000U21       000350400K 10000000010000003118           
CUS0692900000106149565001         DECAROLIS JOHN A  DE7508 BELMONT AVE                        000N        CARE OF             
MTR06929000001000000000000000RA              14912057    005800640000006400000310000003NN  NNW 000                       N    
RDG06929000WATRL000000004K00000000000001059001909042015134145N000000000000U21       000600400K 10000000010000001034           
CUS0692900000106149545003         WARREN CLARA M      7504 BELMONT AVE                        000N        CARE OF             
MTR06929000001000000000000000RA              40323096    005800650000006500000520000003NN  NNW 000                       N    
RDG06929000WATRL000000004K00000000000003852001809042015134045N000000000000U21       000610400K 10000000010000003810           
CUS0692900000106149546001         DAVID W. CARSON     7420 BELMONT AVE                        000N        CARE OF             
MTR06929000001000000000000000RA              19459116    005800660000006600000520000003NN  NNW 000                       N    
RDG06929000WATRL000000004K00000000000004181001709042015133944N000300000020U21       003920400K 10000000010000004089           
CUS0692900000106149563006         MARTIN EDWARD J     7416 BELMONT AVE                        000N        CARE OF             
MTR06929000001000000000000000RA              54348215    005800670000006700000520000003NN  NNW 000                       N    
RDG06929000WATRL000000004K00000000000000985001609042015133312N000000000021U21       000130400K 10000000010000000976           
CUS0692900000106149547009         SOUL WILLIAM        7414 BELMONT AVE                        000N        CARE OF             
MTR06929000001000000000000000RA              24758137    005800680000006800000520000003NN  NNW 000                       N    
RDG06929000WATRL000000004K00000000000004566001109042015132608N000000000000U21       000560400K 10000000010000004549           
CUS0692900000106149548007         TAYLORSON BENJAMIN J7412 BELMONT AVE                        000N        CARE OF             
MTR06929000001000000000000000RA              75614515    005800690000006900000350000003NN  NNW 000                       N    
RDG06929000WATRL000000004K00000000000000269001209042015132644N000000000000U21       000360400K 10000000010000000247           
CUS0692900000106149549005         WISNIEWSKI MARY E   7410 BELMONT AVE                        000N        CARE OF             
MTR06929000001000000000000000RA              00127956    005800700000007000000570000003NN  NNW 000                       N    
RDG06929000WATRL000000004K00000000000001158001309042015132909N000000000000U21       001020400K 10000000010000001134           
CUS0692900000106149550003         MUIR JAMES GAULT,JR 7406 BELMONT AVE                        000N        CARE OF             
MTR06929000001000000000000000RA              10024030    005800710000007100000570000003NN  NNW 000                       N    
RDG06929000WATRL000000004K00000000000000467000409092015082602N000000000000U21       003480400K 10000000010000000428           
CUS0692900000106149551001         RUSSEL W JOHNSTON   7404 BELMONT AVE                        000N        CARE OF             
MTR06929000001000000000000000RA              00127954    005800720000007200000570000003NN  NNW 000                       N    
RDG06929000WATRL000000004K00000000000000526001409042015133109N000000000000U21       001200400K 10000000010000000526           
CUS0692900000106149552009         HITCHENS RICHARD D  7400 BELMONT AVE                        000N        CARE OF             
MTR06929000001000000000000000RA              23812344    005800730000007300000520000003NN  NNW 000                       N    
RDG06929000WATRL000000004K00000000000003741001509042015133114N000000000000U21       000050400K 10000000010000003741           
CUS0692900000106149553007         CIESLINSKI NANCY A  7397 BELMONT AVE                        000N        CARE OF             
MTR06929000001000000000000000RA              40321584    005800740000007400000520000003NN  NNW 000                       N    
RDG06929000WATRL000000004K00000000000002198000109042015131627N000000000010U21       000000400K 10000000010000002199           
CUS0692900000106149554005         GENCO MARGARET A    7399 BELMONT AVE                        000N        CARE OF             
MTR06929000001000000000000000RA              44173080    005800750000007500000520000003NN  NNW 000                       N    
RDG06929000WATRL000000004K00000000000001616000209042015131707N000000000000U21       000400400K 10000000010000001597           
CUS0692900000106149555002         VAUGHTERS ROBERT C,J7401 BELMONT AVE                        000N        CARE OF             
MTR06929000001000000000000000RA              44090481    005800760000007600000520000000NN  NNW 000                       N    
RDG06929000WATRL000000004K00000000000002996000309042015131827N000300000020U21       000800400K 10000000010000002952           
CUS0692900000106149556000         MISTER RICHARD REED 7403 BELMONT AVE                        000N        CARE OF             
MTR06929000001000000000000000RA              29082627    005800770000007700000520000003NN  NNW 000                       N    
RDG06929000WATRL000000004K00000000000004295000409042015131850N000300000010U21       000230400K 10000000010000004259           
CUS0692900000106149557008         ROBERT J MOORE      7405 BELMONT AVE                        000N        CARE OF             
MTR06929000001000000000000000RA              44087981    005800780000007800000520000003NY  NNW 000                       N    
MTM0692900044087981    clean out                                                                                              
RDG06929000WATRL000000004K00000000000000000000000000000000000 000000000000U         000000400  10000000010000002673           
CUS0692900000106149558006         SAMMIE M TURNER     7407 BELMONT AVE                        000N        CARE OF             
MTR06929000001000000000000000RA              27213553    005800790000007900000520000003NN  NNW 000                       N    
RDG06929000WATRL000000004K00000000000002100000509042015132126N000000000000U21       001560400K 10000000010000002093           
CUS0692900000106149559004         LAHSEN EL OMARI     7409 BELMONT AVE                        000N        CARE OF             
