FHDNNNN025005592005592005592N                                                                                           017301
RHD08586000NN01880188000001880000000001880188000133NY018801880188000000000000000000000000000002    08102015NY020000 N         
CUS0858600000108409106005         CLARENCE TABB       8823 GREENS LN                          000N        CARE OF             
MTR08586000001000000000000000RA              45379879    005800010000000100000520000003NN  NNW 000                       N    
RDG08586000WATRL000000004K00000000000005234001509092015081451N000000000000N86       000520400K 10000000010000005183           
CUS0858600000108436973005         FULMORE LYNN        8422 GREENS LN                          000N        CARE OF             
MTR08586000001000000000000000RA              14901732    005800020000000200000310000003NN  NNW 000                       N    
RDG08586000WATRL000000004K00000000000000499000309092015080612N000000000010N86       000310400K 10000000010000000487           
CUS0858600000108436972007         MORTON-COLE ROBIN L 8916 GREENS LN                          000N        CARE OF             
MTR08586000001000000000000000RA              14901735    005800030000000300000310000003NN  NNW 000                       N    
RDG08586000WATRL000000004K00000000000000695000209092015080541N000000000000N86       000520400K 10000000010000000679           
CUS0858600000108436971009         MANNING SHERYL      8914 GREENS LN                          000N        CARE OF             
MTR08586000001000000000000000RA              14901729    005800040000000400000310000003NN  NNW 000                       N    
RDG08586000WATRL000000004K00000000000000760000109092015080449N000000000000N86       000000400K 10000000010000000738           
CUS0858600000108409104000         ELLIS E HARRIS JR.  8901 GREENS LN                          000N        CARE OF             
MTR08586000001000000000000000RA              75616870    005800050000000500000350000003NN  NNW 000                       N    
RDG08586000WATRL000000004K00000000000000160001309092015081253N000000000000N86       000220400K 10000000010000000138           
CUS0858600000108409103002         GORDON RONNIE       8903 GREENS LN                          000N        CARE OF             
MTR08586000001000000000000000RA              46885995    005800060000000600000520000003NN  NNW 000                       N    
RDG08586000WATRL000000004K00000000000001775001209092015081231N000000000000N86       000020400K 10000000010000001763           
CUS0858600000108409102004         DERRICK COOPER      8905 GREENS LN                          000N        CARE OF             
MTR08586000001000000000000000RA              01109429    005800070000000700000610000003NN  NNW 000                       N    
RDG08586000WATRL000000004K00000000000001328001109092015081229N000000000000N86       000380400K 10000000010000001299           
CUS0858600000108409101006         DUDLEY MARVIN N     8907 GREENS LN                          000N        CARE OF             
MTR08586000001000000000000000RA              48590490    005800080000000800000520000003NN  NNW 000                       N    
RDG08586000WATRL000000004K00000000000002391001009092015081151N000000000000N86       000140400K 10000000010000002361           
CUS0858600000108352659000         BROWN KAREN J       8909 GREENS LN                          000N        CARE OF             
MTR08586000001000000000000000RA              45380834    005800090000000900000520000003NN  NNW 000                       N    
RDG08586000WATRL000000004K00000000000001872000909092015081137N000000000000N86       001630400K 10000000010000001850           
CUS0858600000108435346005         AGUZIE HAPPINESS    8933 GREENS LN                          000N        CARE OF             
MTR08586000001000000000000000RA              14911629    005800100000001000000310000003NN  NNW 000                       N    
RDG08586000WATRL000000004K00000000000001182000809092015080854N000300000010N86       000240400K 10000000010000001132           
CUS0858600000108435345007         OKELLO BERTHA       8935 GREENS LN                          000N        CARE OF             
MTR08586000001000000000000000RA              01111896    005800110000001100000610000003NN  NNW 000                       N    
RDG08586000WATRL000000004K00000000000002045000709092015080830N000000000000N86       000020400K 10000000010000002045           
CUS0858600000108435343002         MURRAY STANLEY      8937 GREENS LN                          000N        CARE OF             
MTR08586000001000000000000000RA              01111826    005800120000001200000610000003NN  NNW 000                       N    
RDG08586000WATRL000000004K00000000000001240000609092015080828N000000000000N86       000300400K 10000000010000001209           
CUS0858600000108435344000         GOLDEN-BROWN DARLENE8939 GREENS LN                          000N        CARE OF             
MTR08586000001000000000000000RA              01111880    005800130000001300000610000003NN  NNW 000                       N    
RDG08586000WATRL000000004K00000000000001271000509092015080758N000000000000N86       000170400K 10000000010000001235           
CUS0858600000108435342004         COOPER ANISA W      8941 GREENS LN                          000N        CARE OF             
MTR08586000001000000000000000RA              75614797    005800140000001400000350000003NN  NNW 000                       N    
RDG08586000WATRL000000004K00000000000000005000409092015080741N000300000010N86       000890400K 10000000010000000001           
CUS0858600000102406608006         LINWOOD BARRETT     9001 MARLEY DR                          000N        CARE OF             
MTR08586000001000000000000000RA              45384877    005800150000001500000520000003NN  NNW 000                       N    
RDG08586000WATRL000000004K00000000000003814011209092015084634N000000000000N86       000410400K 10000000010000003754           
CUS0858600000102406607008         DENARD ALLEN        9003 MARLEY DR                          000N        CARE OF             
MTR08586000001000000000000000RA              77886916    005800160000001600000360000003NN  NNW 000                       N    
RDG08586000WATRL000000004K00000000000000064011109092015084553N000000000000N86       000570400K 10000000010000000023           
CUS0858600000102406606000         ORNDORFF GREGORY L  9007 MARLEY DR                          000N        CARE OF             
MTR08586000001000000000000000RA              50786526    005800170000001700000520000003NN  NNW 000                       N    
RDG08586000WATRL000000004K00000000000000746011009092015084456N000000000000N86       000160400K 10000000010000000731           
CUS0858600000102406605002         BOND RUTH D         9009 MARLEY DR                          000N        CARE OF             
MTR08586000001000000000000000RA              77882620    005800180000001800000360000003NN  NNW 000                       N    
RDG08586000WATRL000000004K00000000000000000010909092015084440N000000000000N86       000020400K 10000000010000000000           
CUS0858600000102406604005         CURTIS SHIRLEY      9011 MARLEY DR                          000N        CARE OF             
MTR08586000001000000000000000RA              50788643    005800190000001900000520000003NN  NNW 000                       N    
RDG08586000WATRL000000004K00000000000002004010809092015084438N000000000000N86       000310400K 10000000010000001992           
CUS0858600000102406603007         HICKS JAMES LEROY   9013 MARLEY DR                          000N        CARE OF             
MTR08586000001000000000000000RA              50788600    005800200000002000000520000003NN  NNW 000                       N    
RDG08586000WATRL000000004K00000000000001271010709092015084407N000000000000N86       000500400K 10000000010000001259           
CUS0858600000108414820004         WILLIAMS WILLIE C   8801 HARKATE WAY                        000N        CARE OF             
MTR08586000001000000000000000RA              48591702    005800210000002100000520000003NN  NNW 000                       N    
RDG08586000WATRL000000004K00000000000001625008309092015083659N000000000000N86       000390400K 10000000010000001610           
CUS0858600000108414819006         BECKETT MICHAEL     8803 HARKATE WAY                        000N        CARE OF             
MTR08586000001000000000000000RA              48586147    005800220000002200000520000003NN  NNW 000                       N    
RDG08586000WATRL000000004K00000000000002319008409092015083724N000000000000N86       000250400K 10000000010000002290           
CUS0858600000108414818008         FAPOHUNDA RACHEL    8805 HARKATE WAY                        000N        CARE OF             
MTR08586000001000000000000000RA              48584786    005800230000002300000520000003NN  NNW 000                       N    
RDG08586000WATRL000000004K00000000000002457008509092015083744N000000000000N86       000200400K 10000000010000002414           
CUS0858600000108414817000         WALKER ARON         8807 HARKATE WAY                        000N        CARE OF             
MTR08586000001000000000000000RA              48584814    005800240000002400000520000003NN  NNW 000                       N    
RDG08586000WATRL000000004K00000000000001962008609092015083747N000000000010N86       000030400K 10000000010000001838           
CUS0858600000108414815004         SMITH BAVAN D       8809 HARKATE WAY                        000N        CARE OF             
MTR08586000001000000000000000RA              48584785    005800250000002500000520000003NN  NNW 000                       N    
RDG08586000WATRL000000004K00000000000001810008709092015083758N000000000000N86       000110400K 10000000010000001731           
CUS0858600000108414814007         BRADEN SANDRA L     8811 HARKATE WAY                        000N        CARE OF             
MTR08586000001000000000000000RA              48584787    005800260000002600000520000003NY  NNW 000                       N    
MTM0858600048584787    CLEAN OUT                                                                                              
RDG08586000WATRL000000004K00000000000001740008809092015083804N000000000000N86       000060400K 10000000010000001729           
CUS0858600000108414812001         FARRAR KEITH L      8813 HARKATE WAY                        000N        CARE OF             
MTR08586000001000000000000000RA              48584356    005800270000002700000520000003NN  NNW 000                       N    
RDG08586000WATRL000000004K00000000000002287008909092015083902N000000000000N86       000580400K 10000000010000002257           
CUS0858600000108414870009         REEVES TIANA S      8815 HARKATE WAY                        000N        CARE OF             
MTR08586000001000000000000000RA              48584354    005800280000002800000520000003NN  NNW 000                       N    
RDG08586000WATRL000000004K00000000000002027009009092015083904N000300000010N86       000020400K 10000000010000001805           
CUS0858600000108414869001         WAHLGREN B/ FREEZE P8817 HARKATE WAY                        000N        CARE OF             
MTR08586000001000000000000000RA              48584422    005800290000002900000520000003NN  NNW 000                       N    
RDG08586000WATRL000000004K00000000000001307009109092015083945N000000000000N86       000410400K 10000000010000001284           
CUS0858600000108414868003         BYRD SUSIE M        8819 HARKATE WAY                        000N        CARE OF             
MTR08586000001000000000000000RA              48583515    005800300000003000000520000003NN  NNW 000                       N    
RDG08586000WATRL000000004K00000000000000569009209092015083946N000000000000N86       000010400K 10000000010000000564           
CUS0858600000108414867005         RITTER PAMELA ANN   8821 HARKATE WAY                        000N        CARE OF             
MTR08586000001000000000000000RA              48583598    005800310000003100000520000003NN  NNW 000                       N    
RDG08586000WATRL000000004K00000000000002210009309092015084002N000000000000N86       000160400K 10000000010000002179           
CUS0858600000108414866007         VICK BEVERLY L      8823 HARKATE WAY                        000N        CARE OF             
MTR08586000001000000000000000RA              48591698    005800320000003200000520000003NN  NNW 000                       N    
RDG08586000WATRL000000004K00000000000001136009409092015084018N000000000000N86       000160400K 10000000010000001125           
CUS0858600000108414865009         MONENA SONIA F      8825 HARKATE WAY                        000N        CARE OF             
MTR08586000001000000000000000RA              46886828    005800330000003300000520000003NN  NNW 000                       N    
RDG08586000WATRL000000004K00000000000001091009509092015084041N000000000000N86       000230400K 10000000010000001082           
CUS0858600000108414864002         CREATIVE OPTIONS INC8827 HARKATE WAY                        000N        CARE OF             
MTR08586000001000000000000000RA              46886831    005800340000003400000520000003NN  NNW 000                       N    
RDG08586000WATRL000000004K00000000000003954009609092015084043N000000000000N86       000020400K 10000000010000003926           
CUS0858600000108414863004         ALSTON ERIC         8829 HARKATE WAY                        000N        CARE OF             
MTR08586000001000000000000000RA              48584489    005800350000003500000520000003NN  NNW 000                       N    
RDG08586000WATRL000000004K00000000000002041009709092015084103N000000000000N86       000200400K 10000000010000002019           
CUS0858600000108414862006         ELBY TONEICE        8831 HARKATE WAY                        000N        CARE OF             
MTR08586000001000000000000000RA              48592857    005800360000003600000520000003NN  NNW 000                       N    
RDG08586000WATRL000000004K00000000000001175009809092015084104N000000000000N86       000010400K 10000000010000001158           
CUS0858600000108414858004         TAMARA S LANE       8833 HARKATE WAY                        000N        CARE OF             
MTR08586000001000000000000000RA              46886825    005800370000003700000520000003NN  NNW 000                       N    
RDG08586000WATRL000000004K00000000000000858009909092015084137N000000000000N86       000330400K 10000000010000000858           
CUS0858600000108414857006         SHEPPARD DANTE J    8835 HARKATE WAY                        000N        CARE OF             
MTR08586000001000000000000000RA              46886832    005800380000003800000520000003NN  NNW 000                       N    
RDG08586000WATRL000000004K00000000000000947010009092015084139N000000000000N86       000020400K 10000000010000000935           
CUS0858600000108414856008         BONGIOVANI JEFFREY A8837 HARKATE WAY                        000N        CARE OF             
MTR08586000001000000000000000RA              46886781    005800390000003900000520000003NN  NNW 000                       N    
RDG08586000WATRL000000004K00000000000000964010109092015084155N000000000000N86       000160400K 10000000010000000955           
CUS0858600000108414855000         HARRIS JAMES EDWARD,8841 HARKATE WAY                        000N        CARE OF             
MTR08586000001000000000000000RA              46886773    005800400000004000000520000003NN  NNW 000                       N    
RDG08586000WATRL000000004K00000000000001007010209092015084224N000000000000N86       000290400K 10000000010000000998           
CUS0858600000108414854003         NEMAA ENTERPRISES LL8843 HARKATE WAY                        000N        CARE OF             
MTR08586000001000000000000000RA              01078503    005800410000004100000610000003NN  NNW 000                       N    
RDG08586000WATRL000000004K00000000000001361010309092015084250N000000000000N86       000260400K 10000000010000001354           
CUS0858600000108414852007         ODUNIYI JOSEPH      8845 HARKATE WAY                        000N        CARE OF             
MTR08586000001000000000000000RA              01071599    005800420000004200000610000003NN  NNW 000                       N    
RDG08586000WATRL000000004K00000000000000841010409092015084252N000000000000N86       000020400K 10000000010000000823           
CUS0858600000108414847007         SLADE NICHOLAS      8847 HARKATE WAY                        000N        CARE OF             
MTR08586000001000000000000000RA              46886826    005800430000004300000520000003NN  NNW 000                       N    
RDG08586000WATRL000000004K00000000000001210010509092015084314N000000000000N86       000220400K 10000000010000001196           
CUS0858600000108414778004         BRITTON ERICKA N    8849 HARKATE WAY                        000N        CARE OF             
MTR08586000001000000000000000RA              46886824    005800440000004400000520000003NN  NNW 000                       N    
RDG08586000WATRL000000004K00000000000001432010609092015084317N000400000010N86       000030400K 10000000010000001421           
CUS0858600000108408757006         UMEOZULU ROBERT N   8901 HARKATE WAY                        000N        CARE OF             
MTR08586000001000000000000000RA              75614798    005800450000004500000350000003NN  NNW 000                       N    
RDG08586000WATRL000000004K00000000000000190002209092015081902N000000000000N86       000490400K 10000000010000000155           
CUS0858600000108408758004         CARROLL MILLER      8903 HARKATE WAY                        000N        CARE OF             
MTR08586000001000000000000000RA              44178925    005800460000004600000520000003NN  NNW 000                       N    
RDG08586000WATRL000000004K00000000000002174002309092015081926N000000000010N86       000240400K 10000000010000002159           
CUS0858600000108408760000         WILLIAMS ASHLEY DONI8905 HARKATE WAY                        000N        CARE OF             
MTR08586000001000000000000000RA              44179124    005800470000004700000520000003NN  NNW 000                       N    
RDG08586000WATRL000000004K00000000000002923002409092015081927N000000000000N86       000010400K 10000000010000002901           
CUS0858600000108408762006         ROLLINS DENISE N    8907 HARKATE WAY                        000N        CARE OF             
MTR08586000001000000000000000RA              44179104    005800480000004800000520000003NN  NNW 000                       N    
RDG08586000WATRL000000004K00000000000001909002509092015081941N000000000000N86       000140400K 10000000010000001901           
CUS0858600000108408745001         SAWYER TARA         8911 HARKATE WAY                        000N        CARE OF             
MTR08586000001000000000000000RA              44179123    005800490000004900000520000003NN  NNW 000                       N    
RDG08586000WATRL000000004K00000000000002328002609092015082006N000400000010N86       000250400K 10000000010000002315           
CUS0858600000108408746009         JONES ROBERT T      8913 HARKATE WAY                        000N        CARE OF             
MTR08586000001000000000000000RA              44179141    005800500000005000000520000003NN  NNW 000                       N    
RDG08586000WATRL000000004K00000000000003228002709092015082021N000000000000N86       000150400K 10000000010000003213           
CUS0858600000108408747007         SMITH LUCY          8915 HARKATE WAY                        000N        CARE OF             
MTR08586000001000000000000000RA              44179127    005800510000005100000520000003NN  NNW 000                       N    
RDG08586000WATRL000000004K00000000000003113002809092015082023N000000000000N86       000020400K 10000000010000003065           
CUS0858600000108408749003         HARVIN GEORGE       8917 HARKATE WAY                        000N        CARE OF             
MTR08586000001000000000000000RA              44179142    005800520000005200000520000003NY  NNW 000                       N    
MTM0858600044179142    VAC                                                                                                    
RDG08586000WATRL000000004K00000000000002957002909092015082047N000100000010N86       000240400K 10000000010000002957           
CUS0858600000108408751009         BOBBY L BOSTIC      8919 HARKATE WAY                        000N        CARE OF             
MTR08586000001000000000000000RA              44179097    005800530000005300000520000003NN  NNW 000                       N    
RDG08586000WATRL000000004K00000000000001467003009092015082048N000000000000N86       000010400K 10000000010000001451           
CUS0858600000108408753005         BARR BESSIE A       8921 HARKATE WAY                        000N        CARE OF             
MTR08586000001000000000000000RA              44179108    005800540000005400000520000003NN  NNW 000                       N    
RDG08586000WATRL000000004K00000000000002220003109092015082118N000000000000N86       000300400K 10000000010000002197           
CUS0858600000108408754003         HUNTER WILLIAM R    8923 HARKATE WAY                        000N        CARE OF             
MTR08586000001000000000000000RA              44179107    005800550000005500000520000003NN  NNW 000                       N    
RDG08586000WATRL000000004K00000000000001474003209092015082119N000000000000N86       000010400K 10000000010000001462           
CUS0858600000108408755000         ROBIN ROZZELL       8925 HARKATE WAY                        000N        CARE OF             
MTR08586000001000000000000000RA              52770045    005800560000005600000520000003NN  NNW 000                       N    
RDG08586000WATRL000000004K00000000000000958003309092015082135N000000000000N86       000160400K 10000000010000000950           
CUS0858600000108408763004         STODDART MARK A     8927 HARKATE WAY                        000N        CARE OF             
MTR08586000001000000000000000RA              45373883    005800570000005700000520000003NN  NNW 000                       N    
RDG08586000WATRL000000004K00000000000002475003409092015082205N000000000000N86       000300400K 10000000010000002445           
CUS0858600000108408764002         TRIPLIN DON'YELLE K 8929 HARKATE WAY                        000N        CARE OF             
MTR08586000001000000000000000RA              45373884    005800580000005800000520000003NN  NNW 000                       N    
RDG08586000WATRL000000004K00000000000004119003509092015082208N000400000010N86       000030400K 10000000010000004057           
CUS0858600000108408766007         ADAMS CAROL C       8931 HARKATE WAY                        000N        CARE OF             
MTR08586000001000000000000000RA              45373884    005800590000005900000520000003NN  NNW 000                       N    
RDG08586000WATRL000000004K00000000000002080003609092015082224N000000000000N86       000160400K 10000000010000002061           
CUS0858600000108408767005         BERT-COLE CHERVON T 8933 HARKATE WAY                        000N        CARE OF             
MTR08586000001000000000000000RA              45373886    005800600000006000000520000003NN  NNW 000                       N    
RDG08586000WATRL000000004K00000000000001665003709092015082226N000000000000N86       000020400K 10000000010000001653           
CUS0858600000108408769001         JONATHAN WILLIAMS   8935 HARKATE WAY                        000N        CARE OF             
MTR08586000001000000000000000RA              45373834    005800610000006100000520000003NN  NNW 000                       N    
RDG08586000WATRL000000004K00000000000003330003809092015082247N000000000000N86       000210400K 10000000010000003297           
CUS0858600000108408770009         DEBRA NORMAN        8937 HARKATE WAY                        000N        CARE OF             
MTR08586000001000000000000000RA              45385568    005800620000006200000520000003NN  NNW 000                       N    
RDG08586000WATRL000000004K00000000000003625003909092015082259N000000000000N86       000120400K 10000000010000003609           
CUS0858600000108408771007         OKEKE CECILIA  OKEKE8939 HARKATE WAY                        000N        CARE OF             
MTR08586000001000000000000000RA              45385534    005800630000006300000520000003NN  NNW 000                       N    
RDG08586000WATRL000000004K00000000000002793004009092015082316N000000000000N86       000170400K 10000000010000002757           
CUS0858600000108408772005         QUEEN RICHARD       8941 HARKATE WAY                        000N        CARE OF             
MTR08586000001000000000000000RA              45385539    005800640000006400000520000003NN  NNW 000                       N    
RDG08586000WATRL000000004K00000000000002554004109092015082318N000000000000N86       000020400K 10000000010000002529           
CUS0858600000108408773003         SKETERS VALENCIA S  8943 HARKATE WAY                        000N        CARE OF             
MTR08586000001000000000000000RA              45385566    005800650000006500000520000003NN  NNW 000                       N    
RDG08586000WATRL000000004K00000000000001946004209092015082330N000000000000N86       000120400K 10000000010000001923           
CUS0858600000108408774001         BROWN RANDOLPH K,SR 8950 HARKATE WAY                        000N        CARE OF             
MTR08586000001000000000000000RA              45384879    005800660000006600000520000003NN  NNW 000                       N    
RDG08586000WATRL000000004K00000000000003188004309092015082416N000000000000N86       000460400K 10000000010000003177           
CUS0858600000108408775008         JEFFREY GROSS       8948 HARKATE WAY                        000N        CARE OF             
MTR08586000001000000000000000RA              46880095    005800670000006700000520000003NN  NNW 000                       N    
RDG08586000WATRL000000004K00000000000001762004409092015082500N000000000000N86       000440400K 10000000010000001744           
CUS0858600000108408776006         HARRIS HARVEY  WILLI8940 HARKATE WAY                        000N        CARE OF             
MTR08586000001000000000000000RA              45384876    005800680000006800000520000003NN  NNW 000                       N    
RDG08586000WATRL000000004K00000000000003037004509092015082546N000000000000N86       000460400K 10000000010000003006           
CUS0858600000108408777004         HARVEY RONALD C     8938 HARKATE WAY                        000N        CARE OF             
MTR08586000001000000000000000RA              45384912    005800690000006900000520000003NN  NNW 000                       N    
RDG08586000WATRL000000004K00000000000002790004609092015082619N000000000000N86       000330400K 10000000010000002754           
CUS0858600000108408778002         MING CHOW           8936 HARKATE WAY                        000N        CARE OF             
MTR08586000001000000000000000RA              45384943    005800700000007000000520000003NN  NNW 000                       N    
RDG08586000WATRL000000004K00000000000001911004709092015082622N000000000000N86       000030400K 10000000010000001885           
CUS0858600000108408779000         CONWAY VICTORIA     8934 HARKATE WAY                        000N        CARE OF             
MTR08586000001000000000000000RA              45384857    005800710000007100000520000003NN  NNW 000                       N    
RDG08586000WATRL000000004K00000000000004277004809092015082644N000000000000N86       000220400K 10000000010000004243           
CUS0858600000108408780008         DAVID WILSON        8932 HARKATE WAY                        000N        CARE OF             
MTR08586000001000000000000000RA              45384942    005800720000007200000520000003NN  NNW 000                       N    
RDG08586000WATRL000000004K00000000000002984004909092015082648N000000000000N86       000040400K 10000000010000002959           
CUS0858600000108408792003         SANDERS REGINA L    8930 HARKATE WAY                        000N        CARE OF             
MTR08586000001000000000000000RA              45384861    005800730000007300000520000003NN  NNW 000                       N    
RDG08586000WATRL000000004K00000000000001333005009092015082712N000000000000N86       000240400K 10000000010000001308           
CUS0858600000108408781006         POWELL DERRICK E    8926 HARKATE WAY                        000N        CARE OF             
MTR08586000001000000000000000RA              46888767    005800740000007400000520000003NN  NNW 000                       N    
RDG08586000WATRL000000004K00000000000000958005109092015082756N000300000010N86       000440400K 10000000010000000921           
CUS0858600000108408782004         CARSON TIA C        8924 HARKATE WAY                        000N        CARE OF             
MTR08586000001000000000000000RA              46888764    005800750000007500000520000003NN  NNW 000                       N    
RDG08586000WATRL000000004K00000000000001445005209092015082758N000000000000N86       000020400K 10000000010000001408           
CUS0858600000108408783002         SCRUGGS CHARLOTTE ST8922 HARKATE WAY                        000N        CARE OF             
MTR08586000001000000000000000RA              46880384    005800760000007600000520000003NN  NNW 000                       N    
RDG08586000WATRL000000004K00000000000001684005309092015082811N000000000000N86       000130400K 10000000010000001659           
CUS0858600000108408784000         GROGAN ROBERT E     8920 HARKATE WAY                        000N        CARE OF             
MTR08586000001000000000000000RA              46879358    005800770000007700000520000003NN  NNW 000                       N    
RDG08586000WATRL000000004K00000000000001725005409092015082812N000000000000N86       000010400K 10000000010000001710           
CUS0858600000108408785007         SUTHERLAND JON      8918 HARKATE WAY                        000N        CARE OF             
MTR08586000001000000000000000RA              46879596    005800780000007800000520000003NN  NNW 000                       N    
RDG08586000WATRL000000004K00000000000002431005509092015082833N000000000000N86       000210400K 10000000010000002414           
CUS0858600000108408786005         FRANKEL ERICA B     8916 HARKATE WAY                        000N        CARE OF             
MTR08586000001000000000000000RA              46880386    005800790000007900000520000003NN  NNW 000                       N    
RDG08586000WATRL000000004K00000000000001455005609092015082840N000000000010N86       000070400K 10000000010000001440           
CUS0858600000108408787003         BROWN SAMUEL L      8914 HARKATE WAY                        000N        CARE OF             
MTR08586000001000000000000000RA              46880382    005800800000008000000520000003NN  NNW 000                       N    
RDG08586000WATRL000000004K00000000000000884005709092015082905N000000000000N86       000250400K 10000000010000000874           
CUS0858600000108408788001         GWEN ANDERSON       8912 HARKATE WAY                        000N        CARE OF             
MTR08586000001000000000000000RA              46880383    005800810000008100000520000003NN  NNW 000                       N    
RDG08586000WATRL000000004K00000000000001475005809092015082908N000000000000N86       000030400K 10000000010000001457           
CUS0858600000108408789009         SMALLWOOD WHITNEY P 8910 HARKATE WAY                        000N        CARE OF             
MTR08586000001000000000000000RA              10002666    005800820000008200000570000003NN  NNW 000                       N    
RDG08586000WATRL000000004K00000000000000343005909092015082929N000000000000N86       000210400K 10000000010000000320           
CUS0858600000108408756008         SEMBLY BYRON ANTHONY8908 HARKATE WAY                        000N        CARE OF             
MTR08586000001000000000000000RA              77892149    005800830000008300000360000003NN  NNW 000                       N    
RDG08586000WATRL000000004K00000000000000017006009092015082953N000000000010N86       000240400K 10000000010000000000           
CUS0858600000108408759002         DIXON CHONITA D     8906 HARKATE WAY                        000N        CARE OF             
MTR08586000001000000000000000RA              44179125    005800840000008400000520000003NN  NNW 000                       N    
RDG08586000WATRL000000004K00000000000004204006109092015082956N000000000000N86       000030400K 10000000010000003885           
CUS0858600000108408761008         KIM LASHAWN MURPHY  8904 HARKATE WAY                        000N        CARE OF             
MTR08586000001000000000000000RA              44179140    005800850000008500000520000003NN  NNW 000                       N    
RDG08586000WATRL000000004K00000000000002196006209092015083019N000000000000N86       000230400K 10000000010000002178           
CUS0858600000108408765009         MARTINS JULIA A     8902 HARKATE WAY                        000N        CARE OF             
MTR08586000001000000000000000RA              41588446    005800860000008600000520000003NN  NNW 000                       N    
RDG08586000WATRL000000004K00000000000001614006309092015083020N000000000000N86       000010400K 10000000010000001544           
CUS0858600000108408768003         FRANKLIN APRIL      8900 HARKATE WAY                        000N        CARE OF             
MTR08586000001000000000000000RA              44179094    005800870000008700000520000003NN  NNW 000                       N    
RDG08586000WATRL000000004K00000000000002390006409092015083030N000000000000N86       000100400K 10000000010000002369           
CUS0858600000108408790007         THOMAS J SMITH      8840 HARKATE WAY                        000N        CARE OF             
MTR08586000001000000000000000RA              48586051    005800880000008800000520000003NN  NNW 000                       N    
RDG08586000WATRL000000004K00000000000002835006509092015083054N000000000000N86       000240400K 10000000010000002822           
CUS0858600000108408791005         HART DOMONIQUE DERRI8838 HARKATE WAY                        000N        CARE OF             
MTR08586000001000000000000000RA              01077286    005800890000008900000610000003NN  NNW 000                       N    
RDG08586000WATRL000000004K00000000000000000006609092015083135N000000000000N86       000410400K 10000000010000000000           
CUS0858600000108414844004         FORBES DAVID        8836 HARKATE WAY                        000N        CARE OF             
MTR08586000001000000000000000RA              46887122    005800900000009000000520000003NN  NNW 000                       N    
RDG08586000WATRL000000004K00000000000001642006709092015083208N000000000010N86       000330400K 10000000010000001630           
CUS0858600000108414829005         ERICKA LOFTON       8834 HARKATE WAY                        000N        CARE OF             
MTR08586000001000000000000000RA              46887109    005800910000009100000520000003NN  NNW 000                       N    
RDG08586000WATRL000000004K00000000000001705006809092015083210N000000000000N86       000020400K 10000000010000001686           
CUS0858600000108414828007         ADEOSUN ADEDOTUN    8832 HARKATE WAY                        000N        CARE OF             
MTR08586000001000000000000000RA              46887089    005800920000009200000520000003NY  NNW 000                       N    
MTM0858600046887089    VAULT NEEDS REPAIR ON INSIDE                                                                           
RDG08586000WATRL000000004K00000000000000699006909092015083245N000000000000N86       000350400K 10000000010000000686           
CUS0858600000108414827009         EPPS EVELYN         8830 HARKATE WAY                        000N        CARE OF             
MTR08586000001000000000000000RA              46887120    005800930000009300000520000003NY  NNW 000                       N    
MTM0858600046887120    CLEAN OUT                                                                                              
RDG08586000WATRL000000004K00000000000000921007009092015083248N000000000000N86       000030400K 10000000010000000894           
CUS0858600000108414826001         BUTLER DARRELL A    8828 HARKATE WAY                        000N        CARE OF             
MTR08586000001000000000000000RA              48591704    005800940000009400000520000003NN  NNW 000                       N    
RDG08586000WATRL000000004K00000000000002065007109092015083339N000300000010N86       000510400K 10000000010000002025           
CUS0858600000108414824006         CURTIS NORMA Y      8826 HARKATE WAY                        000N        CARE OF             
MTR08586000001000000000000000RA              48591233    005800950000009500000520000003NN  NNW 000                       N    
RDG08586000WATRL000000004K00000000000000967007209092015083341N000000000000N86       000020400K 10000000010000000941           
CUS0858600000108414821002         WALL CASSANDRA M    8824 HARKATE WAY                        000N        CARE OF             
MTR08586000001000000000000000RA              46887091    005800960000009600000520000003NN  NNW 000                       N    
RDG08586000WATRL000000004K00000000000000789007309092015083403N000000000000N86       000220400K 10000000010000000784           
CUS0858600000108414816002         ISRAEL DAWN O       8822 HARKATE WAY                        000N        CARE OF             
MTR08586000001000000000000000RA              46887108    005800970000009700000520000003NN  NNW 000                       N    
RDG08586000WATRL000000004K00000000000002024007409092015083404N000000000000N86       000010400K 10000000010000002011           
CUS0858600000108414811003         TRINIA A JOHNSON    8820 HARKATE WAY                        000N        CARE OF             
MTR08586000001000000000000000RA              46887121    005800980000009800000520000003NN  NNW 000                       N    
RDG08586000WATRL000000004K00000000000001256007509092015083420N000000000000N86       000160400K 10000000010000001241           
CUS0858600000108414810005         MONICA CROMWELL     8818 HARKATE WAY                        000N        CARE OF             
MTR08586000001000000000000000RA              46887088    005800990000009900000520000003NN  NNW 000                       N    
RDG08586000WATRL000000004K00000000000001471007609092015083446N000000000000N86       000260400K 10000000010000001460           
CUS0858600000108414797004         BARNETT FRANK       8816 HARKATE WAY                        000N        CARE OF             
MTR08586000001000000000000000RA              46887093    005801000000010000000520000003NN  NNW 000                       N    
RDG08586000WATRL000000004K00000000000001090007709092015083502N000000000000N86       000160400K 10000000010000001077           
CUS0858600000108414813009         ATKINS CHANTE       8814 HARKATE WAY                        000N        CARE OF             
MTR08586000001000000000000000RA              46887107    005801010000010100000520000003NN  NNW 000                       N    
RDG08586000WATRL000000004K00000000000001594007809092015083504N000000000000N86       000020400K 10000000010000001582           
CUS0858600000108414794001         FAULCON LEE         8812 HARKATE WAY                        000N        CARE OF             
MTR08586000001000000000000000RA              46887092    005801020000010200000520000003NN  NNW 000                       N    
RDG08586000WATRL000000004K00000000000001575007909092015083520N000000000000N86       000160400K 10000000010000001546           
CUS0858600000108414791007         BYRD MARY ANN       8810 HARKATE WAY                        000N        CARE OF             
MTR08586000001000000000000000RA              46887119    005801030000010300000520000003NN  NNW 000                       N    
RDG08586000WATRL000000004K00000000000001271008009092015083521N000000000000N86       000010400K 10000000010000001257           
CUS0858600000108414784002         ORTMEYER HEIDI      8808 HARKATE WAY                        000N        CARE OF             
MTR08586000001000000000000000RA              52286186    005801040000010400000520000003NN  NNW 000                       N    
RDG08586000WATRL000000004K00000000000001100008109092015083604N000000000000N86       000430400K 10000000010000001080           
CUS0858600000108414781008         DANIEL R. KENDALL   8806 HARKATE WAY                        000N        CARE OF             
MTR08586000001000000000000000RA              48586186    005801050000010500000520000003NN  NNW 000                       N    
RDG08586000WATRL000000004K00000000000001339008209092015083620N000000000000N86       000160400K 10000000010000001314           
CUS0858600000102406611000         RUSH CLINTON,JR     9012 MARLEY DR                          000N        CARE OF             
MTR08586000001000000000000000RA              44090314    005801060000010600000520000003NN  NNW 000                       N    
RDG08586000WATRL000000004K00000000000002133002109092015081813N000000000000N86       000170400K 10000000010000002114           
CUS0858600000102406612008         HARRIS PREM C       9010 MARLEY DR                          000N        CARE OF             
MTR08586000001000000000000000RA              44090315    005801070000010700000520000003NN  NNW 000                       N    
RDG08586000WATRL000000004K00000000000002497002009092015081756N000000000000N86       000020400K 10000000010000002467           
CUS0858600000102406613006         HARRIETT MATTHEWS   9008 MARLEY DR                          000N        CARE OF             
MTR08586000001000000000000000RA              44090316    005801080000010800000520000003NN  NNW 000                       N    
RDG08586000WATRL000000004K00000000000000884001909092015081754N000300000010N86       000210400K 10000000010000000869           
CUS0858600000102406614004         REED THERMAN        9006 MARLEY DR                          000N        CARE OF             
MTR08586000001000000000000000RA              44090319    005801090000010900000520000003NN  NNW 000                       N    
RDG08586000WATRL000000004K00000000000003678001809092015081733N000000000000N86       000370400K 10000000010000003641           
CUS0858600000102406609004         HARRIS KEITH MAC    9002 MARLEY DR                          000N        CARE OF             
MTR08586000001000000000000000RA              01111102    005801100000011000000610000003NN  NNW 000                       N    
RDG08586000WATRL000000004K00000000000001473001709092015081656N000000000010N86       000410400K 10000000010000001468           
CUS0858600000102406610002         STOKES WANDA L      9000 MARLEY DR                          000N        CARE OF             
MTR08586000001000000000000000RA              45384856    005801110000011100000520000003NN  NNW 000                       N    
RDG08586000WATRL000000004K00000000000003412001609092015081615N000300000010N86       000840400K 10000000010000003303           
CUS0858600000108032717004         DORSEY WARREN E     8804 GREENS LN                          000N        CARE OF             
MTR08586000001000000000000000RA              35110114    005801120000011200000520000003NN  NNW 000                       N    
RDG08586000WATRL000000004K00000000000003003011309092015084804N000000000000N86       000900400K 10000000010000002986           
CUS0858600000108032718002         DENSON RALPH        8806 GREENS LN                          000N        CARE OF             
MTR08586000001000000000000000RA              01109426    005801130000011300000610000003NN  NNW 000                       N    
RDG08586000WATRL000000004K00000000000001311011409092015084823N000000000000N86       000190400K 10000000010000001276           
CUS0858600000108032719000         BALOTIN RONALD M    8808 GREENS LN                          000N        CARE OF             
MTR08586000001000000000000000RA              27265724    005801140000011400000520000003NN  NNW 000                       N    
RDG08586000WATRL000000004K00000000000004325011509092015084849N000000000000N86       000260400K 10000000010000004317           
CUS0858600000108032720008         BARRETT DONALD      8810 GREENS LN                          000N        CARE OF             
MTR08586000001000000000000000RA              01077223    005801150000011500000610000003NN  NNW 000                       N    
RDG08586000WATRL000000004K00000000000001251011609092015084919N000000000000N86       000300400K 10000000010000001237           
CUS0858600000108032721006         MILLINGTON VIOLA VER8812 GREENS LN                          000N        CARE OF             
MTR08586000001000000000000000RA              9594989     005801160000011600000570000003NN  NNW 000                       N    
RDG08586000WATRL000000004K00000000000006965011709092015084959N000000000011N86       000050400K 10000000010000006944           
CUS0858600000108032722004         MONTEECE C JONES    8814 GREENS LN                          000N        CARE OF             
MTR08586000001000000000000000RA              44087237    005801170000011700000520000003NN  NNW 000                       N    
RDG08586000WATRL000000004K00000000000002774011809092015085023N000000000000N86       000240400K 10000000010000002747           
CUS0858600000108032723002         CROCKETT-MCCLEAN CAR8816 GREENS LN                          000N        CARE OF             
MTR08586000001000000000000000RA              01077889    005801180000011800000610000003NN  NNW 000                       N    
RDG08586000WATRL000000004K00000000000002594011909092015085046N000000000000N86       000230400K 10000000010000002539           
CUS0858600000108032724000         KENNETH N OLIVER    8818 GREENS LN                          000N        CARE OF             
MTR08586000001000000000000000RA              76348875    005801190000011900000350000003NN  NNW 000                       N    
RDG08586000WATRL000000004K00000000000000245012009092015085114N000000000000N86       000280400K 10000000010000000193           
CUS0858600000108032725007         EDWARD L. GREENE    8820 GREENS LN                          000N        CARE OF             
MTR08586000001000000000000000RA              41075423    005801200000012000000520000003NN  NNW 000                       N    
RDG08586000WATRL000000004K00000000000002303012109092015085214N000000000000N86       000600400K 10000000010000002276           
CUS0858600000108032726005         THOMAS J FENWICK JR 8822 GREENS LN                          000N        CARE OF             
MTR08586000001000000000000000RA              44092493    005801210000012100000520000003NN  NNW 000                       N    
RDG08586000WATRL000000004K00000000000002859012209092015085243N000000000000N86       000290400K 10000000010000002831           
CUS0858600000108032743000         JOHNSON MOSES,JR    3503 STONEYBROOK RD                     000N        CARE OF             
MTR08586000001000000000000000RA              01075691    005801220000012200000610000003NN  NNW 000                       N    
RDG08586000WATRL000000004K00000000000000747012309092015085332N000000000000N86       000490400K 10000000010000000747           
CUS0858600000108409105007         LEE G MOODY         8825 GREENS LN                          000N        CARE OF             
MTR08586000001000000000000000RA              45380445    005801230000012300000520000003NY  NNW 000                       N    
MTM0858600045380445    OUT OF SEQ                                                                                             
RDG08586000WATRL000000004K00000000000004750001409092015081359N000000000000N86       000660400K 10000000010000004694           
CUS0858600000108032727003         WEIRS SYLVIA        8821 FLAGSTONE DR                       000N        CARE OF             
MTR08586000001000000000000000RA              24768153    005801240000012400000520000003NN  NNW 000                       N    
RDG08586000WATRL000000004K00000000000003094012409092015085511N000000000000N86       000990400K 10000000010000003072           
CUS0858600000108032728001         REID MARSHA         8819 FLAGSTONE DR                       000N        CARE OF             
MTR08586000001000000000000000RA              48583355    005801250000012500000520000003NN  NNW 000                       N    
RDG08586000WATRL000000004K00000000000000740012509092015085533N000000000000N86       000220400K 10000000010000000727           
CUS0858600000108032729009         ESSET TATE & WIFE   8817 FLAGSTONE DR                       000N        CARE OF             
MTR08586000001000000000000000RA              35110916    005801260000012600000520000003NN  NNW 000                       N    
RDG08586000WATRL000000004K00000000000004166012609092015085558N000003500000N86       000250400K 10000000010000004145           
CUS0858600000108032730007         HAUSLER GEORGE      8815 FLAGSTONE DR                       000N        CARE OF             
MTR08586000001000000000000000RA              14900716    005801270000012700000310000003NN  NNW 000                       N    
RDG08586000WATRL000000004K00000000000001069012709092015085628N000000000000N86       000300400K 10000000010000001061           
CUS0858600000108032731005         TYRA S WALKER       8813 FLAGSTONE DR                       000N        CARE OF             
MTR08586000001000000000000000RA              44002098    005801280000012800000520000003NN  NNW 000                       N    
RDG08586000WATRL000000004K00000000000001696012809092015085704N000000000000N86       000360400K 10000000010000001681           
CUS0858600000108032732003         ROUSE JOSEPH H      8811 FLAGSTONE DR                       000N        CARE OF             
MTR08586000001000000000000000RA              50480013    005801290000012900000520000003NN  NNW 000                       N    
RDG08586000WATRL000000004K00000000000001635012909092015085735N000000000000N86       000310400K 10000000010000001626           
CUS0858600000108032733001         SHERMAN PHILLPOTTS  8809 FLAGSTONE DR                       000N        CARE OF             
MTR08586000001000000000000000RA              01077277    005801300000013000000610000003NN  NNW 000                       N    
RDG08586000WATRL000000004K00000000000002015013009092015085801N000000000000N86       000260400K 10000000010000001974           
CUS0858600000108032734009         PARNELL VINCENT J   8807 FLAGSTONE DR                       000N        CARE OF             
MTR08586000001000000000000000RA              19460406    005801310000013100000520000003NN  NNW 000                       N    
RDG08586000WATRL000000004K00000000000004172013109092015085833N000000000000N86       000320400K 10000000010000004156           
CUS0858600000108032735006         PETTIE LYDIA A      8806 FLAGSTONE DR                       000N        CARE OF             
MTR08586000001000000000000000RA              44177239    005801320000013200000520000003NN  NNW 000                       N    
RDG08586000WATRL000000004K00000000000001369013209092015085907N000003500000N86       000340400K 10000000010000001352           
CUS0858600000108032736004         GOLD PHILLIP M      8808 FLAGSTONE DR                       000N        CARE OF             
MTR08586000001000000000000000RA              99188329    005801330000013300000570000003NN  NNW 000                       N    
RDG08586000WATRL000000004K00000000000000530013309092015085947N000000000000N86       000400400K 10000000010000000521           
CUS0858600000108032737002         JEFFERS COSTELLO    8810 FLAGSTONE DR                       000N        CARE OF             
MTR08586000001000000000000000RA              99188247    005801340000013400000570000003NN  NNW 000                       N    
RDG08586000WATRL000000004K00000000000002213013409092015090044N000000000000N86       000570400K 10000000010000002191           
CUS0858600000108032738000         FORRESTER JACQUELINE8812 FLAGSTONE DR                       000N        CARE OF             
MTR08586000001000000000000000RA              99188245    005801350000013500000570000003NN  NNW 000                       N    
RDG08586000WATRL000000004K00000000000001475013509092015090125N000000000000N86       000410400K 10000000010000001475           
CUS0858600000108032739008         MCCUTCHEN SEYMOUR   8814 FLAGSTONE DR                       000N        CARE OF             
MTR08586000001000000000000000RA              14913422    005801360000013600000310000003NN  NNW 000                       N    
RDG08586000WATRL000000004K00000000000000879013609092015090156N000000000000N86       000310400K 10000000010000000862           
CUS0858600000108032740006         SIEGEL A RAYMOND    8816 FLAGSTONE DR                       000N        CARE OF             
MTR08586000001000000000000000RA              01077883    005801370000013700000610000003NN  NNW 000                       N    
RDG08586000WATRL000000004K00000000000001268013709092015090234N000000000000N86       000380400K 10000000010000001243           
CUS0858600000108032741004         JOHNSON EDDIE       8818 FLAGSTONE DR                       000N        CARE OF             
MTR08586000001000000000000000RA              23842271    005801380000013800000520000003NN  NNW 000                       N    
RDG08586000WATRL000000004K00000000000003643013809092015090303N000000000000N86       000290400K 10000000010000003616           
CUS0858600000108032742002         BROWN RUTH N        8820 FLAGSTONE DR                       000N        CARE OF             
MTR08586000001000000000000000RA              50786546    005801390000013900000520000003NN  NNW 000                       N    
RDG08586000WATRL000000004K00000000000002176013909092015090331N000000000000N86       000280400K 10000000010000002156           
CUS0858600000108032744008         KAMINETZ MORTON S   3505 STONEYBROOK RD                     000N        CARE OF             
MTR08586000001000000000000000RA              01075698    005801400000014000000610000003NN  NNW 000                       N    
RDG08586000WATRL000000004K00000000000000620014009092015090447N000000000000N86       000760400K 10000000010000000611           
CUS0858600000108032745005         GREENE HAROLD       3507 STONEYBROOK RD                     000N        CARE OF             
MTR08586000001000000000000000RA              01075692    005801410000014100000610000003NN  NNW 000                       N    
RDG08586000WATRL000000004K00000000000000987014209092015090549N000000000000N86       000340400K 10000000010000000973           
CUS0858600000108032746003         J-PITTS SHELLEY R   8823 STONEHAVEN RD                      000N        CARE OF             
MTR08586000001000000000000000RA              01075696    005801420000014200000610000003NN  NNW 000                       N    
RDG08586000WATRL000000004K00000000000001170014309092015090640N000000000000N86       000510400K 10000000010000001153           
CUS0858600000108032747001         DUKES DONNA WHITEHEA8821 STONEHAVEN RD                      000N        CARE OF             
MTR08586000001000000000000000RA              01075695    005801430000014300000610000003NN  NNW 000                       N    
RDG08586000WATRL000000004K00000000000002545014409092015090704N000000000000N86       000240400K 10000000010000002523           
CUS0858600000108032748009         MASSEY EARL G       8819 STONEHAVEN RD                      000N        CARE OF             
MTR08586000001000000000000000RA              01075697    005801440000014400000610000003NN  NNW 000                       N    
RDG08586000WATRL000000004K00000000000001361014509092015090731N000000000000N86       000270400K 10000000010000001339           
CUS0858600000108032749007         BELL BERNARD A      8817 STONEHAVEN RD                      000N        CARE OF             
MTR08586000001000000000000000RA              41075409    005801450000014500000520000003NN  NNW 000                       N    
RDG08586000WATRL000000004K00000000000003349014609092015090805N000000000000N86       000340400K 10000000010000003299           
CUS0858600000108032750005         MOORE LENNY E       8815 STONEHAVEN RD                      000N        CARE OF             
MTR08586000001000000000000000RA              31583194    005801460000014600000520000003NN  NNW 000                       N    
RDG08586000WATRL000000004K00000000000003999014709092015090844N000000000000N86       000390400K 10000000010000003977           
CUS0858600000108032751003         WILSON JAMES R      8813 STONEHAVEN RD                      000N        CARE OF             
MTR08586000001000000000000000RA              44179328    005801470000014700000520000003NN  NNW 000                       N    
RDG08586000WATRL000000004K00000000000002769014809092015090910N000000000000N86       000260400K 10000000010000002737           
CUS0858600000108032753009         JOHNSON HYACINTH    8810 STONEHAVEN RD                      000N        CARE OF             
MTR08586000001000000000000000RA              77888820    005801480000014800000360000003NN  NNW 000                       N    
RDG08586000WATRL000000004K00000000000000048014909092015090949N000000000000N86       000390400K 10000000010000000017           
CUS0858600000108032754007         SPANN DAVID W,SR    8812 STONEHAVEN RD                      000N        CARE OF             
MTR08586000001000000000000000RA              9686143     005801490000014900000570000003NN  NNW 000                       N    
RDG08586000WATRL000000004K00000000000005093015009092015091027N000000000000N86       000380400K 10000000010000005059           
CUS0858600000108032755004         BRYANT GLEN E       8814 STONEHAVEN RD                      000N        CARE OF             
MTR08586000001000000000000000RA              44179327    005801500000015000000520000003NN  NNW 000                       N    
RDG08586000WATRL000000004K00000000000001498015109092015091053N000000000000N86       000260400K 10000000010000001484           
CUS0858600000108032756002         ROCCO A ALIBERTI    8816 STONEHAVEN RD                      000N        CARE OF             
MTR08586000001000000000000000RA              44179126    005801510000015100000520000003NN  NNW 000                       N    
RDG08586000WATRL000000004K00000000000003053015209092015091119N000000000000N86       000260400K 10000000010000003041           
CUS0858600000108032757000         ASNER EDWARD M      8818 STONEHAVEN RD                      000N        CARE OF             
MTR08586000001000000000000000RA              41075406    005801520000015200000520000003NN  NNW 000                       N    
RDG08586000WATRL000000004K00000000000003575015309092015091204N000000000000N86       000450400K 10000000010000003535           
CUS0858600000108032758008         ALLEN SINGLETON     8820 STONEHAVEN RD                      000N        CARE OF             
MTR08586000001000000000000000RA              50791553    005801530000015300000520000003NN  NNW 000                       N    
RDG08586000WATRL000000004K00000000000001644015409092015091221N000000000000N86       000170400K 10000000010000001586           
CUS0858600000108032759006         SIMPSON RILEY JAMES 8822 STONEHAVEN RD                      000N        CARE OF             
MTR08586000001000000000000000RA              35106742    005801540000015400000520000003NN  NNW 000                       N    
RDG08586000WATRL000000004K00000000000002034018809092015101830N000000000000N86       026120400K 10000000010000002011           
CUS0858600000108032760004         PEACE ANTHONY       8824 STONEHAVEN RD                      000N        CARE OF             
MTR08586000001000000000000000RA              10024741    005801550000015500000570000003NN  NNW 000                       N    
RDG08586000WATRL000000004K00000000000000132015509092015091242N000000000000N86       000210400K 10000000010000000114           
CUS0858600000108032761002         HICKS ROLAND F      8826 STONEHAVEN RD                      000N        CARE OF             
MTR08586000001000000000000000RA              23645777    005801560000015600000520000003NN  NNW 000                       N    
RDG08586000WATRL000000004K00000000000003857015609092015091355N000000000000N86       000730400K 10000000010000003850           
CUS0858600000108032762000         CODY AMOS LEE       8828 STONEHAVEN RD                      000N        CARE OF             
MTR08586000001000000000000000RA              33732087    005801570000015700000520000003NN  NNW 000                       N    
RDG08586000WATRL000000004K00000000000002247015709092015091526N000000000000N86       000910400K 10000000010000002236           
CUS0858600000108032763008         PHAIR MARIAN A      3509 STONEYBROOK RD                     000N        CARE OF             
MTR08586000001000000000000000RA              41088965    005801580000015800000520000003NY  NNW 000                       N    
MTM0858600041088965    CLEAN OUT                                                                                              
RDG08586000WATRL000000004K00000000000002713016009092015091858N000003500000N86       000820400K 10000000010000002697           
CUS0858600000108032764006         SANDS RUSSELL       3511 STONEYBROOK RD                     000N        CARE OF             
MTR08586000001000000000000000RA              48586080    005801590000015900000520000003NN  NNW 000                       N    
RDG08586000WATRL000000004K00000000000002445016109092015091952N000000000000N86       000540400K 10000000010000002423           
CUS0858600000108032702006         ROBINSON CORANNETTA 3510 STONEYBROOK RD                     000N        CARE OF             
MTR08586000001000000000000000RA              40781441    005801600000016000000520000003NN  NNW 000                       N    
RDG08586000WATRL000000004K00000000000003405016209092015092043N000000000000N86       000510400K 10000000010000003376           
CUS0858600000108032703004         SHARPE DEBORAH F    8917 FLAGSTONE CIR                      000N        CARE OF             
MTR08586000001000000000000000RA              01075706    005801610000016100000610000003NN  NNW 000                       N    
RDG08586000WATRL000000004K00000000000000861016309092015092105N000000000000N86       000220400K 10000000010000000849           
CUS0858600000108032704002         LINDSEY FITZPATRICK 8915 FLAGSTONE CIR                      000N        CARE OF             
MTR08586000001000000000000000RA              46883002    005801620000016200000520000003NN  NNW 000                       N    
RDG08586000WATRL000000004K00000000000001067016409092015092145N000000000000N86       000400400K 10000000010000001055           
CUS0858600000108032705009         GRAY WILLIAM ALBERT 8913 FLAGSTONE CIR                      000N        CARE OF             
MTR08586000001000000000000000RA              46875952    005801630000016300000520000003NN  NNW 000                       N    
RDG08586000WATRL000000004K00000000000003085016509092015092146N000000000000N86       000010400K 10000000010000003043           
CUS0858600000108032706007         DAVID DUNN          8911 FLAGSTONE CIR                      000N        CARE OF             
MTR08586000001000000000000000RA              23644643    005801640000016400000520000003NN  NNW 000                       N    
RDG08586000WATRL000000004K00000000000006645016709092015092315N000000000000N86       000340400K 10000000010000006621           
CUS0858600000108032707005         BROWN GERALD EDWARD 8909 FLAGSTONE CIR                      000N        CARE OF             
MTR08586000001000000000000000RA              41075408    005801650000016500000520000003NN  NNW 000                       N    
RDG08586000WATRL000000004K00000000000002083016809092015092344N000000000000N86       000290400K 10000000010000002078           
CUS0858600000108032708003         ANNA MORRIS         8907 FLAGSTONE CIR                      000N        CARE OF             
MTR08586000001000000000000000RA              46883000    005801660000016600000520000003NN  NNW 000                       N    
RDG08586000WATRL000000004K00000000000001787016909092015092404N000000000000N86       000200400K 10000000010000001760           
CUS0858600000108032709001         EVERETT A SMITH SR  8905 FLAGSTONE CIR                      000N        CARE OF             
MTR08586000001000000000000000RA              48593440    005801670000016700000520000003NN  NNW 000                       N    
RDG08586000WATRL000000004K00000000000001518017109092015092503N000000000000N86       000290400K 10000000010000001506           
CUS0858600000108032710009         FRANCINE JOHNSON    8903 FLAGSTONE CIR                      000N        CARE OF             
MTR08586000001000000000000000RA              33081377    005801680000016800000520000000NN  NNW 000                       N    
RDG08586000WATRL000000004K00000000000002545017209092015092558N000000000000N86       000550400K 10000000010000002531           
CUS0858600000108032711007         BROWN RUSSELL C     8901 FLAGSTONE CIR                      000N        CARE OF             
MTR08586000001000000000000000RA              33081368    005801690000016900000520000003NN  NNW 000                       N    
RDG08586000WATRL000000004K00000000000003521017309092015092601N000000000000N86       000030400K 10000000010000003507           
CUS0858600000108032712005         POULSON-FOSTER LINDA8900 FLAGSTONE CIR                      000N        CARE OF             
MTR08586000001000000000000000RA              30524428    005801700000017000000520000003NN  NNW 000                       N    
RDG08586000WATRL000000004K00000000000002900014109092015090515N000000000000N86       000280400K 10000000010000002868           
CUS0858600000108032713003         LEE SARA J          8902 FLAGSTONE CIR                      000N        CARE OF             
MTR08586000001000000000000000RA              23644641    005801710000017100000520000003NN  NNW 000                       N    
RDG08586000WATRL000000004K00000000000004172017009092015092434N000000000000N86       000300400K 10000000010000004165           
CUS0858600000108032714001         BRAUCKMANN WALTER J 8904 FLAGSTONE CIR                      000N        CARE OF             
MTR08586000001000000000000000RA              23644636    005801720000017200000520000003NN  NNW 000                       N    
RDG08586000WATRL000000004K00000000000005187016609092015092241N000000000000N86       000550400K 10000000010000005160           
CUS0858600000108032715008         WILLIAMS CRAIG E    3508 STONEYBROOK RD                     000N        CARE OF             
MTR08586000001000000000000000RA              35107164    005801730000017300000520000003NY  NNW 000                       N    
MTM0858600035107164    CLEAN OUT                                                                                              
RDG08586000WATRL000000004K00000000000002894015909092015091736N000003500000N86       000620400K 10000000010000002881           
CUS0858600000108032716006         OPEEWE TIMOTHY O    3506 STONEYBROOK RD                     000N        CARE OF             
MTR08586000001000000000000000RA              23640058    005801740000017400000520000003NY  NNW 000                       N    
MTM0858600023640058    CLEAN OUT                                                                                              
RDG08586000WATRL000000004K00000000000004137015809092015091634N000303500010N86       000680400K 10000000010000004130           
CUS0858600000108032690003         DIX FRANCES S       8900 GREENS LN                          000N        CARE OF             
MTR08586000001000000000000000RA              33079945    005801750000017500000520000003NN  NNW 000                       N    
RDG08586000WATRL000000004K00000000000003316017409092015092813N000000000000N86       001320400K 10000000010000003297           
CUS0858600000108032691001         DORNA P HAIRSTON    8902 GREENS LN                          000N        CARE OF             
MTR08586000001000000000000000RA              30518701    005801760000017600000520000003NN  NNW 000                       N    
RDG08586000WATRL000000004K00000000000001461017509092015092854N000000000000N86       000410400K 10000000010000001461           
CUS0858600000108032692009         FORD DANNY S        8904 GREENS LN                          000N        CARE OF             
MTR08586000001000000000000000RA              48593483    005801770000017700000520000003NN  NNW 000                       N    
RDG08586000WATRL000000004K00000000000002629017609092015092926N000003500000N86       000320400K 10000000010000002592           
CUS0858600000108032693007         DIANE ROOME         8906 GREENS LN                          000N        CARE OF             
MTR08586000001000000000000000RA              35110137    005801780000017800000520000003NN  NNW 000                       N    
RDG08586000WATRL000000004K00000000000002437017709092015093016N000000000000N86       000500400K 10000000010000002433           
CUS0858600000108419061000         MURRAY GENEVIEVE A  3500 GREEN CONE DR                      000N        CARE OF             
MTR08586000001000000000000000RA              50476950    005801790000017900000520000003NN  NNW 000                       N    
RDG08586000WATRL000000004K00000000000002474017809092015093054N000000000000N86       000380400K 10000000010000002460           
CUS0858600000108419062008         LOFTON HENRY J,SR   3502 GREEN CONE DR                      000N        CARE OF             
MTR08586000001000000000000000RA              48594704    005801800000018000000520000003NN  NNW 000                       N    
RDG08586000WATRL000000004K00000000000001285017909092015093127N000000000000N86       000330400K 10000000010000001262           
CUS0858600000108419063006         SUTTON THEODORE, 3RD3504 GREEN CONE DR                      000N        CARE OF             
MTR08586000001000000000000000RA              48594741    005801810000018100000520000003NN  NNW 000                       N    
RDG08586000WATRL000000004K00000000000002193018009092015093207N000000000000N86       000400400K 10000000010000002166           
CUS0858600000108419064004         DERASSA LEMMA B     3506 GREEN CONE DR                      000N        CARE OF             
MTR08586000001000000000000000RA              48594739    005801820000018200000520000003NN  NNW 000                       N    
RDG08586000WATRL000000004K00000000000001579018109092015093247N000000000000N86       000400400K 10000000010000001547           
CUS0858600000108419065001         WRIGHT CURTIS L     3508 GREEN CONE DR                      000N        CARE OF             
MTR08586000001000000000000000RA              48594740    005801830000018300000520000003NN  NNW 000                       N    
RDG08586000WATRL000000004K00000000000001760018209092015093324N000000000000N86       000370400K 10000000010000001743           
CUS0858600000108419066009         LEWIS VALERIE D     3510 GREEN CONE DR                      000N        CARE OF             
MTR08586000001000000000000000RA              48592379    005801840000018400000520000003NN  NNW 000                       N    
RDG08586000WATRL000000004K00000000000001176018309092015093404N000000000000N86       000400400K 10000000010000001150           
CUS0858600000108419067007         MBA ELIZABETH M     3512 GREEN CONE DR                      000N        CARE OF             
MTR08586000001000000000000000RA              48594737    005801850000018500000520000003NN  NNW 000                       N    
RDG08586000WATRL000000004K00000000000001471018409092015093421N000000000000N86       000170400K 10000000010000001444           
CUS0858600000108419068005         MYRIE, ALTON        3514 GREEN CONE DR                      000N        CARE OF             
MTR08586000001000000000000000RA              00129463    005801860000018600000570000003NN  NNW 000                       N    
RDG08586000WATRL000000004K00000000000001556018509092015093435N000000000000N86       000140400K 10000000010000001512           
CUS0858600000108419069003         FELICIA H OTSIBA    3516 GREEN CONE DR                      000N        CARE OF             
MTR08586000001000000000000000RA              10015400    005801870000018700000570000003NN  NNW 000                       N    
RDG08586000WATRL000000004K00000000000000307018609092015093445N000000000000N86       000100400K 10000000010000000287           
CUS0858600000108419060002         RANSOM MICHAEL E    3518 GREEN CONE DR                      000N        CARE OF             
MTR08586000001000000000000000RA              52286172    005801880000018800000520000003NN  NNW 000                       N    
RDG08586000WATRL000000004K00000000000001809018709092015093458N000000000000N86       000130400K 10000000010000001741           
RTR08586000NN01880188000001880000000001880188000133NY018801880188000000000000000000000000000002    08102015NY020000 N         
RHD08586600NN02680268000002680000000002680268000197NY026802680268000200010000000000000000000002    08102015NY020000 N         
CUS0858660000108033234009         BALTIMORE COUNTY MARSS OLD COURT RD 85 FT                   000N        CARE OF             
MTR08586600001000000000000000RA              78005322    005800010000000100000350000003NN  NNW 000                       N    
RDG08586600WATRL000000004K00000000000000005000109082015122150N000000000000N86       000000400K 10000000010000000002           
CUS0858660000108033233001         STRAITEN WALTER O   5503 OLD COURT RD                       000N        CARE OF             
MTR08586600001000000000000000RA              42810801    005800020000000200000520000003NN  NNW 000                       N    
RDG08586600WATRL000000004K00000000000002673000209082015123010N000000000000N86       005000400K 10000000010000002658           
CUS0858660000108033232003         CITYSIDE MANAGEMENT 5505 OLD COURT RD                       000N        CARE OF             
MTR08586600001000000000000000RA              10023084    005800030000000300000570000003NN  NNW 000                       N    
RDG08586600WATRL000000004K00000000000000228000309082015123024N000000000000N86       000140400K 10000000010000000210           
CUS0858660000108033231005         ISAACS ROBERT ALEXAN5507 OLD COURT RD                       000N        CARE OF             
MTR08586600001000000000000000RA              14905739    005800040000000400000310000003NN  NNW 000                       N    
RDG08586600WATRL000000004K00000000000000855000409082015123050N000000000000N86       000260400K 10000000010000000828           
CUS0858660000108033230007         BARNETT NNEKA       5509 OLD COURT RD                       000N        CARE OF             
MTR08586600001000000000000000RA              44092543    005800050000000500000520000003NN  NNW 000                       N    
RDG08586600WATRL000000004K00000000000001558000509082015123137N000000000000N86       000470400K 10000000010000001548           
CUS0858660000108033229009         MAI QUY THI         5511 OLD COURT RD                       000N        CARE OF             
MTR08586600001000000000000000RA              35102364    005800060000000600000520000003NN  NNW 000                       N    
RDG08586600WATRL000000004K00000000000003874000609082015123210N000000000000N86       000330400K 10000000010000003833           
CUS0858660000108033228001         DAVIS QUENTIN       5513 OLD COURT RD                       000N        CARE OF             
MTR08586600001000000000000000RA              36687546    005800070000000700000520000003NN  NNW 000                       N    
RDG08586600WATRL000000004K00000000000002337000709082015123256N000300000010N86       000460400K 10000000010000002306           
CUS0858660000108033227003         STEWARD WILLIAM E   5515 OLD COURT RD                       000N        CARE OF             
MTR08586600001000000000000000RA              14905491    005800080000000800000310000003NN  NNW 000                       N    
RDG08586600WATRL000000004K00000000000001507000809082015123319N000000000000N86       000230400K 10000000010000001487           
CUS0858660000108033226005         BEADS WARREN R      5517 OLD COURT RD                       000N        CARE OF             
MTR08586600001000000000000000RA              99388587    005800090000000900000570000003NN  NNW 000                       N    
RDG08586600WATRL000000004K00000000000001362000909082015123345N000000000000N86       000260400K 10000000010000001343           
CUS0858660000108033225007         SMITH STEFAN AKIN   5519 OLD COURT RD                       000N        CARE OF             
MTR08586600001000000000000000RA              01076502    005800100000001000000610000003NN  NNW 000                       N    
RDG08586600WATRL000000004K00000000000001317001109082015123546N000300000020N86       000670400K 10000000010000000809           
CUS0858660000108033224000         HACK ALLEN S        5521 OLD COURT RD                       000N        CARE OF             
MTR08586600001000000000000000RA              24226129    005800110000001100000520000003NN  NNW 000                       N    
RDG08586600WATRL000000004K00000000000004283001209082015123621N000000000000N86       000350400K 10000000010000004266           
CUS0858660000108033223002         LEMON ALMA M        5523 OLD COURT RD                       000N        CARE OF             
MTR08586600001000000000000000RA              44092545    005800120000001200000520000003NN  NNW 000                       N    
RDG08586600WATRL000000004K00000000000003414001409082015123922N000000000010N86       000340400K 10000000010000003405           
CUS0858660000108033222004         OSEI-WUSU ARCHAW    5525 OLD COURT RD                       000N        CARE OF             
MTR08586600001000000000000000RA              01076469    005800130000001300000610000003NN  NNW 000                       N    
RDG08586600WATRL000000004K00000000000003032001509082015123948N000000000000N86       000260400K 10000000010000003006           
CUS0858660000108033221006         BROADNAX MARVIN L   5527 OLD COURT RD                       000N        CARE OF             
MTR08586600001000000000000000RA              24228059    005800140000001400000520000003NN  NNW 000                       N    
RDG08586600WATRL000000004K00000000000002978001609082015124023N000000000000N86       000350400K 10000000010000002970           
CUS0858660000108033220008         BARONELLA JOHN C    5529 OLD COURT RD                       000N        CARE OF             
MTR08586600001000000000000000RA              33077891    005800150000001500000520000003NN  NNW 000                       N    
RDG08586600WATRL000000004K00000000000003540001909082015124233N000000000000N86       000410400K 10000000010000003510           
CUS0858660000108033219000         HARVEY ANTHONY A    5531 OLD COURT RD                       000N        CARE OF             
MTR08586600001000000000000000RA              30516751    005800160000001600000520000003NN  NNW 000                       N    
RDG08586600WATRL000000004K00000000000003126002009082015124307N000000000010N86       000340400K 10000000010000003125           
CUS0858660000108033218002         CONAWAY EDWARD      5533 OLD COURT RD                       000N        CARE OF             
MTR08586600001000000000000000RA              29404463    005800170000001700000520000003NN  NNW 000                       N    
RDG08586600WATRL000000004K00000000000004132002609082015124921N000000000000N86       000640400K 10000000010000004102           
CUS0858660000108033217004         BOWYER JOYCE L      8602 GREENS LN                          000N        CARE OF             
MTR08586600001000000000000000RA              23054953    005800180000001800000520000003NN  NNW 000                       N    
RDG08586600WATRL000000004K00000000000003643002909082015125054N000000000000N86       000260400K 10000000010000003628           
CUS0858660000108033216006         RONALD & DOREEN ERCO8600 GREENS LN                          000N        CARE OF             
MTR08586600001000000000000000RA              24231482    005800190000001900000520000003NN  NNW 000                       N    
RDG08586600WATRL000000004K00000000000004962003009082015125146N000000000000N86       000520400K 10000000010000004930           
CUS0858660000108033215008         NESBIT OTHA LEE     5529 NORTHGREEN RD                      000N        CARE OF             
MTR08586600001000000000000000RA              24760550    005800200000002000000520000003NN  NNW 000                       N    
RDG08586600WATRL000000004K00000000000003593000109092015103540N000000000000U86       000000400K 10000000010000003564           
CUS0858660000108033214001         YACONO ALBERT A     8524 GREENS LN                          000N        CARE OF             
MTR08586600001000000000000000RA              24760551    005800210000002100000520000003NN  NNW 000                       N    
RDG08586600WATRL000000004K00000000000007512000209092015103607N000000000000U86       000270400K 10000000010000007495           
CUS0858660000108033213003         SYDNEY MALCOLM      8522 GREENS LN                          000N        CARE OF             
MTR08586600001000000000000000RA              48591962    005800220000002200000520000003NN  NNW 000                       N    
RDG08586600WATRL000000004K00000000000000919000309092015103652N000000000000U86       000450400K 10000000010000000893           
CUS0858660000108033212005         SIMMS JOHN W        8520 GREENS LN                          000N        CARE OF             
MTR08586600001000000000000000RA              01076228    005800230000002300000610000003NN  NNW 000                       N    
RDG08586600WATRL000000004K00000000000000827000409092015103719N000000000000U86       000270400K 10000000010000000809           
CUS0858660000108033211007         TOWSON MARSHA A     8518 GREENS LN                          000N        CARE OF             
MTR08586600001000000000000000RA              29404599    005800240000002400000520000003NN  NNW 000                       N    
RDG08586600WATRL000000004K00000000000004351000509092015103817N000000000000U86       000580400K 10000000010000004316           
CUS0858660000108033210009         KOHN HOWARD S       8516 GREENS LN                          000N        CARE OF             
MTR08586600001000000000000000RA              01076226    005800250000002500000610000003NN  NNW 000                       N    
RDG08586600WATRL000000004K00000000000001211000609092015103850N000000000000U86       000330400K 10000000010000001201           
CUS0858660000108033209001         TOMBS EDDIE BONSOL,J8514 GREENS LN                          000N        CARE OF             
MTR08586600001000000000000000RA              29684546    005800260000002600000520000003NN  NNW 000                       N    
RDG08586600WATRL000000004K00000000000003913000709092015103929N000400000010U86       000390400K 10000000010000003900           
CUS0858660000108033208003         CAMMON LINDA C      8512 GREENS LN                          000N        CARE OF             
MTR08586600001000000000000000RA              01076637    005800270000002700000610000003NN  NNW 000                       N    
RDG08586600WATRL000000004K00000000000001980000809092015104007N000000000000U86       000380400K 10000000010000001960           
CUS0858660000108033207005         WALLACE WILSON      8510 GREENS LN                          000N        CARE OF             
MTR08586600001000000000000000RA              42810507    005800280000002800000520000003NN  NNW 000                       N    
RDG08586600WATRL000000004K00000000000005108000909092015104050N000303500010U86       000430400K 10000000010000005030           
CUS0858660000108033206007         ROBINSON RONALD D   8508 GREENS LN                          000N        CARE OF             
MTR08586600001000000000000000RA              01076635    005800290000002900000610000003NN  NNW 000                       N    
RDG08586600WATRL000000004K00000000000001287001009092015104147N000000000000U86       000570400K 10000000010000001272           
CUS0858660000108033205009         HUBBARD LORENZO CHAR8506 GREENS LN                          000N        CARE OF             
MTR08586600001000000000000000RA              54352120    005800300000003000000520000003NN  NNW 000                       N    
RDG08586600WATRL000000004K00000000000002008001109092015104209N000000000000U86       000220400K 10000000010000001985           
CUS0858660000108033204002         LAWSON JANE W       8504 GREENS LN                          000N        CARE OF             
MTR08586600001000000000000000RA              9688579     005800310000003100000570000003NN  NNW 000                       N    
RDG08586600WATRL000000004K00000000000004466001209092015104320N000000000000U86       000710400K 10000000010000004445           
CUS0858660000108033203004         MITCHELL NEIL D     8502 GREENS LN                          000N        CARE OF             
MTR08586600001000000000000000RA              99287955    005800320000003200000570000003NN  NNW 000                       N    
RDG08586600WATRL000000004K00000000000001346001309092015104404N000000000000U86       000440400K 10000000010000001327           
CUS0858660000108033202006         NORTH STAR SPECIAL S8500 GREENS LN                          000N        CARE OF             
MTR08586600001000000000000000RA              99288685    005800330000003300000570000003NN  NNW 000                       N    
RDG08586600WATRL000000004K00000000000002342001409092015104445N000000000000U86       000410400K 10000000010000002311           
CUS0858660000108033201008         BUMBRAY PANCHO B    3302 GREENMEADE RD                      000N        CARE OF             
MTR08586600001000000000000000RA              27833306    005800340000003400000520000003NN  NNW 000                       N    
RDG08586600WATRL000000004K00000000000005065001509092015104626N000000000000U86       001010400K 10000000010000005008           
CUS0858660000108033200000         KELLY SHERON A      3304 GREENMEADE RD                      000N        CARE OF             
MTR08586600001000000000000000RA              01082610    005800350000003500000610000003NN  NNW 000                       N    
RDG08586600WATRL000000004K00000000000000860001609092015104654N000000000000U86       000280400K 10000000010000000828           
CUS0858660000108033199004         DORSEY DANIEL E,JR  3306 GREENMEADE RD                      000N        CARE OF             
MTR08586600001000000000000000RA              24231591    005800360000003600000520000003NN  NNW 000                       N    
RDG08586600WATRL000000004K00000000000006516001709092015104845N000000000000U86       001110400K 10000000010000006499           
CUS0858660000108033198006         PORTNEY MELVIN      3308 GREENMEADE RD                      000N        CARE OF             
MTR08586600001000000000000000RA              46881108    005800370000003700000520000003NN  NNW 000                       N    
RDG08586600WATRL000000004K00000000000001548001809092015104908N000000000010U86       000230400K 10000000010000001522           
CUS0858660000108033197008         HEMPHILL DEAN       3310 GREENMEADE RD                      000N        CARE OF             
MTR08586600001000000000000000RA              35103849    005800380000003800000520000003NN  NNW 000                       N    
RDG08586600WATRL000000004K00000000000003278001909092015104935N000000000000U86       000270400K 10000000010000003259           
CUS0858660000108033196000         WILLIAMS DAVID LOUIS3312 GREENMEADE RD                      000N        CARE OF             
MTR08586600001000000000000000RA              99288369    005800390000003900000570000003NN  NNW 000                       N    
RDG08586600WATRL000000004K00000000000001857002009092015104954N000000000000U86       000190400K 10000000010000001840           
CUS0858660000108033195002         COLE ERNEST A/ELNORA3314 GREENMEADE RD                      000N        CARE OF             
MTR08586600001000000000000000RA              9688393     005800400000004000000570000003NN  NNW 000                       N    
RDG08586600WATRL000000004K00000000000004870002109092015105121N000000000000U86       000870400K 10000000010000004853           
CUS0858660000108033194005         COMBS PATSY ANN     3316 GREENMEADE RD                      000N        CARE OF             
MTR08586600001000000000000000RA              27813426    005800410000004100000520000003NN  NNW 000                       N    
RDG08586600WATRL000000004K00000000000004290002209092015105151N000300000010U86       000300400K 10000000010000004263           
CUS0858660000108033193007         ASIEDU KENNETH K    3318 GREENMEADE RD                      000N        CARE OF             
MTR08586600001000000000000000RA              48590742    005800420000004200000520000003NN  NNW 000                       N    
RDG08586600WATRL000000004K00000000000002609002309092015105213N000000000000U86       000220400K 10000000010000002571           
CUS0858660000108033192009         NICHOLS LARRY A     3320 GREENMEADE RD                      000N        CARE OF             
MTR08586600001000000000000000RA              39583476    005800430000004300000520000003NN  NNW 000                       N    
RDG08586600WATRL000000004K00000000000002969002409092015105232N000000000000U86       000190400K 10000000010000002946           
CUS0858660000108033191001         ROEBUCK MARSHA ROBER3325 GREENMEADE RD                      000N        CARE OF             
MTR08586600001000000000000000RA              23842266    005800440000004400000520000003NN  NNW 000                       N    
RDG08586600WATRL000000004K00000000000004676002509092015105318N000000000010U86       000460400K 10000000010000004660           
CUS0858660000108033190003         CARTER MARY LOUISE  3323 GREENMEADE RD                      000N        CARE OF             
MTR08586600001000000000000000RA              32899315    005800450000004500000520000003NN  NNW 000                       N    
RDG08586600WATRL000000004K00000000000005390002609092015105356N000000000000U86       000380400K 10000000010000005336           
CUS0858660000108033189005         OWENS CHARLES H     3321 GREENMEADE RD                      000N        CARE OF             
MTR08586600001000000000000000RA              14928688    005800460000004600000310000003NN  NNW 000                       N    
RDG08586600WATRL000000004K00000000000000814002709092015105427N000300000010U86       000310400K 10000000010000000792           
CUS0858660000108033188007         SHERROD CLIFTON,SR  3319 GREENMEADE RD                      000N        CARE OF             
MTR08586600001000000000000000RA              10005250    005800470000004700000570000003NN  NNW 000                       N    
RDG08586600WATRL000000004K00000000000000599002809092015105500N000000000000U86       000330400K 10000000010000000583           
CUS0858660000108033187009         ANDERSON DENISE C   3317 GREENMEADE RD                      000N        CARE OF             
MTR08586600001000000000000000RA              10009675    005800480000004800000570000003NN  NNW 000                       N    
RDG08586600WATRL000000004K00000000000000285002909092015105521N000000000000U86       000210400K 10000000010000000271           
CUS0858660000108033186001         ANGLADE KWAH E      3315 GREENMEADE RD                      000N        CARE OF             
MTR08586600001000000000000000RA              50789531    005800490000004900000520000003NN  NNW 000                       N    
RDG08586600WATRL000000004K00000000000001279003009092015105554N000000000000U86       000330400K 10000000010000001253           
CUS0858660000108033185003         FLESHMAN LLOYD      3313 GREENMEADE RD                      000N        CARE OF             
MTR08586600001000000000000000RA              01080533    005800500000005000000610000003NN  NNW 000                       N    
RDG08586600WATRL000000004K00000000000001143003109092015105632N000300000010U86       000380400K 10000000010000001118           
CUS0858660000108033184006         AMADI OGECHI STELLA 3311 GREENMEADE RD                      000N        CARE OF             
MTR08586600001000000000000000RA              01108937    005800510000005100000610000003NN  NNW 000                       N    
RDG08586600WATRL000000004K00000000000001987003209092015105701N000000000000U86       000290400K 10000000010000001953           
CUS0858660000108033183008         MURRAY WAYNE LERONE 3309 GREENMEADE RD                      000N        CARE OF             
MTR08586600001000000000000000RA              01080534    005800520000005200000610000003NN  NNW 000                       N    
RDG08586600WATRL000000004K00000000000002800003309092015105732N000000000000U86       000310400K 10000000010000002758           
CUS0858660000108033182000         TOMS HAROLD T,SR    3307 GREENMEADE RD                      000N        CARE OF             
MTR08586600001000000000000000RA              50476036    005800530000005300000520000003NN  NNW 000                       N    
RDG08586600WATRL000000004K00000000000001540003409092015105753N000000000000U86       000210400K 10000000010000001505           
CUS0858660000108033181002         JONES RICHARD W,SR  3305 GREENMEADE RD                      000N        CARE OF             
MTR08586600001000000000000000RA              52285292    005800540000005400000520000003NN  NNW 000                       N    
RDG08586600WATRL000000004K00000000000001974003509092015105855N000400000010U86       000620400K 10000000010000001973           
CUS0858660000108033180004         LOGAN NORMA J       3303 GREENMEADE RD                      000N        CARE OF             
MTR08586600001000000000000000RA              14903675    005800550000005500000310000003NN  NNW 000                       N    
RDG08586600WATRL000000004K00000000000000785003609092015105944N000000000000U86       000490400K 10000000010000000761           
CUS0858660000108033179006         LOMAX ROBERT V      3301 GREENMEADE RD                      000N        CARE OF             
MTR08586600001000000000000000RA              10002941    005800560000005600000570000003NN  NNW 000                       N    
RDG08586600WATRL000000004K00000000000000447003709092015110032N000000000000U86       000480400K 10000000010000000422           
CUS0858660000108033178008         STODDART VINCENT G  8404 GREENS LN                          000N        CARE OF             
MTR08586600001000000000000000RA              33082751    005800570000005700000520000003NN  NNW 000                       N    
RDG08586600WATRL000000004K00000000000003585003809092015110109N000000000000U86       000370400K 10000000010000003563           
CUS0858660000108033177000         HINES JAMES L       8402 GREENS LN                          000N        CARE OF             
MTR08586600001000000000000000RA              14922693    005800580000005800000310000003NN  NNW 000                       N    
RDG08586600WATRL000000004K00000000000000620003909092015110143N000000000000U86       000340400K 10000000010000000600           
CUS0858660000108033176002         CHAMBERS DOROTHY H  8400 GREENS LN                          000N        CARE OF             
MTR08586600001000000000000000RA              46888471    005800590000005900000520000003NN  NNW 000                       N    
RDG08586600WATRL000000004K00000000000001377004009092015110240N000400000010U86       000570400K 10000000010000001373           
CUS0858660000108033175004         JOHNSON TERENCE B   3302 SOUTHGREEN RD                      000N        CARE OF             
MTR08586600001000000000000000RA              46888469    005800600000006000000520000003NN  NNW 000                       N    
RDG08586600WATRL000000004K00000000000001570006209082015131128N000000000000N86       000260400K 10000000010000001551           
CUS0858660000108033174007         STEWARD LAWRENCE    3304 SOUTHGREEN RD                      000N        CARE OF             
MTR08586600001000000000000000RA              24220196    005800610000006100000520000003NN  NNW 000                       N    
RDG08586600WATRL000000004K00000000000005035006109082015131102N000000000000N86       000540400K 10000000010000005014           
CUS0858660000108033173009         JONES KEVIN M       3306 SOUTHGREEN RD                      000N        CARE OF             
MTR08586600001000000000000000RA              30518110    005800620000006200000520000003NN  NNW 000                       N    
RDG08586600WATRL000000004K00000000000003290006009082015131008N000000000000N86       000280400K 10000000010000003268           
CUS0858660000108033172001         BAKER JAMES MCMURRAY3308 SOUTHGREEN RD                      000N        CARE OF             
MTR08586600001000000000000000RA              19459985    005800630000006300000520000003NN  NNW 000                       N    
RDG08586600WATRL000000004K00000000000005400005909082015130940N000000000000N86       000210400K 10000000010000005400           
CUS0858660000108033171003         ONEAL BARBARA       3310 SOUTHGREEN RD                      000N        CARE OF             
MTR08586600001000000000000000RA              99387491    005800640000006400000570000003NN  NNW 000                       N    
RDG08586600WATRL000000004K00000000000001212005809082015130919N000400000010N86       000700400K 10000000010000001211           
CUS0858660000108033170005         BELL BERNADINE L    5501 NORTHGREEN RD                      000N        CARE OF             
MTR08586600001000000000000000RA              99999999    005800650000006500000310000003NN  NNW 000                       N    
RDG08586600WATRL000000004K00000000000001909005709082015130809N000000000000N86       000390400K 10000000010000001902           
CUS0858660000108033169007         GULIN STEVE S       5503 NORTHGREEN RD                      000N        CARE OF             
MTR08586600001000000000000000RA              42808861    005800660000006600000520000003NN  NNW 000                       N    
RDG08586600WATRL000000004K00000000000002472005609082015130730N000000000000N86       000330400K 10000000010000002455           
CUS0858660000108033168009         DINGLE CHARLES O    5505 NORTHGREEN RD                      000N        CARE OF             
MTR08586600001000000000000000RA              35102862    005800670000006700000520000003NN  NNW 000                       N    
RDG08586600WATRL000000004K00000000000003661005509082015130657N000300000010N86       000620400K 10000000010000002502           
CUS0858660000108033167001         HARRELL MARGARET    5507 NORTHGREEN RD                      000N        CARE OF             
MTR08586600001000000000000000RA              31583147    005800680000006800000520000003NN  NNW 000                       N    
RDG08586600WATRL000000004K00000000000003745005309082015130520N000000000000N86       000290400K 10000000010000003733           
CUS0858660000108033166003         ROWE RASHIDA        5509 NORTHGREEN RD                      000N        CARE OF             
MTR08586600001000000000000000RA              42808860    005800690000006900000520000003NN  NNW 000                       N    
RDG08586600WATRL000000004K00000000000002324005109082015130426N000000000000N86       000560400K 10000000010000002313           
CUS0858660000108033165005         ARMSTEAD NOVARRO C  5511 NORTHGREEN RD                      000N        CARE OF             
MTR08586600001000000000000000RA              10015939    005800700000007000000570000003NN  NNW 000                       N    
RDG08586600WATRL000000004K00000000000000564004909082015130259N000000000000N86       000180400K 10000000010000000519           
CUS0858660000108033164008         TORBIT JACQUELINE   5513 NORTHGREEN RD                      000N        CARE OF             
