FHDNNNN034006514006514006514N                                                                                           019816
RHD08608300NN01660166000001660000000001660166000115NY016601660166000000010000000000000000000002    08242015NY020000 N         
CUS0860830000108037454009         CANIDA GEORGE S,2ND 3740 PARKFIELD RD                       000N        CARE OF             
MTR08608300001000000000000000RA              26014064    005800010000000100000520000003NN  NNW 000                       N    
RDG08608300WATRL000000004K00000000000006182000109142015093423N000300000021N84       000330400K 10000000010000006132           
CUS0860830000108037455006         CLARK-BEY DORCAS P  3738 PARKFIELD RD                       000N        CARE OF             
MTR08608300001000000000000000RA              27819459    005800020000000200000520000003NN  NNW 000                       N    
RDG08608300WATRL000000004K00000000000003032000209142015093547N000300000011N84       000840400K 10000000010000002989           
CUS0860830000108037456004         LAWSON MYRA L       3736 PARKFIELD RD                       000N        CARE OF             
MTR08608300001000000000000000RA              24220932    005800030000000300000520000003NN  NNW 000                       N    
RDG08608300WATRL000000004K00000000000006205000309142015093621N000300000011N84       000340400K 10000000010000006131           
CUS0860830000108037457002         CAPLAN ALLAN H      3734 PARKFIELD RD                       000N        CARE OF             
MTR08608300001000000000000000RA              20767321    005800040000000400000520000003NN  NNW 000                       N    
RDG08608300WATRL000000004K00000000000003476000409142015093702N000300000011N84       000410400K 10000000010000003449           
CUS0860830000108037458000         OSBORNE STEPHEN     3732 PARKFIELD RD                       000N        CARE OF             
MTR08608300001000000000000000RA              27817673    005800050000000500000520000003NN  NNW 000                       N    
RDG08608300WATRL000000004K00000000000003213000509142015093739N000000000001N84       000370400K 10000000010000003190           
CUS0860830000108037459008         COOPER JAMES W      3730 PARKFIELD RD                       000N        CARE OF             
MTR08608300001000000000000000RA              00138799    005800060000000600000570000003NN  NNW 000                       N    
RDG08608300WATRL000000004K00000000000001825000609142015093828N000000000001N84       000490400K 10000000010000001791           
CUS0860830000108037460006         FORD JOYCE ANN      3728 PARKFIELD RD                       000N        CARE OF             
MTR08608300001000000000000000RA              00139072    005800070000000700000570000003NY  NNW 000                       N    
MTM0860830000139072    occ                                                                                                    
RDG08608300WATRL000000004K00000000000001979000709142015093924N000000000021N84       000560400K 10000000010000001978           
CUS0860830000108037461004         OLIVER GWENDOLYN    3726 PARKFIELD RD                       000N        CARE OF             
MTR08608300001000000000000000RA              00139074    005800080000000800000570000003NN  NNW 000                       N    
RDG08608300WATRL000000004K00000000000001721000809142015094007N000300000011N84       000430400K 10000000010000001695           
CUS0860830000108037462002         RANDALL CHARLES     3724 PARKFIELD RD                       000N        CARE OF             
MTR08608300001000000000000000RA              24225998    005800090000000900000520000003NN  NNW 000                       N    
RDG08608300WATRL000000004K00000000000003737000909142015094043N000000000001N84       000360400K 10000000010000003721           
CUS0860830000108037463000         ALLEN ALICIA A      4787 BYRON RD                           000N        CARE OF             
MTR08608300001000000000000000RA              24760929    005800100000001000000520000003NN  NNW 000                       N    
RDG08608300WATRL000000004K00000000000005493001009142015091209N000000000020N84       000250400K 10000000010000005488           
CUS0860830000108037464008         SCOTT VALERIE T     4785 BYRON RD                           000N        CARE OF             
MTR08608300001000000000000000RA              14917398    005800110000001100000310000003NN  NNW 000                       N    
RDG08608300WATRL000000004K00000000000000546008009142015105500N000000000000N84       001690400K 10000000010000000536           
CUS0860830000108037465005         TEAH KELVIN         4783 BYRON RD                           000N        CARE OF             
MTR08608300001000000000000000RA              01086613    005800120000001200000610000003NN  NNW 000                       N    
RDG08608300WATRL000000004K00000000000001989008109142015105524N000000000030N84       000240400K 10000000010000001969           
CUS0860830000108037466003         AYENI ANGEL A       4781 BYRON RD                           000N        CARE OF             
MTR08608300001000000000000000RA              50786965    005800130000001300000520000003NN  NNW 000                       N    
RDG08608300WATRL000000004K00000000000001136008209142015105528N000000000000N84       000040400K 10000000010000001126           
CUS0860830000108037467001         PIGATT DETROYE      4779 BYRON RD                           000N        CARE OF             
MTR08608300001000000000000000RA              01083138    005800140000001400000610000003NN  NNW 000                       N    
RDG08608300WATRL000000004K00000000000000989008309142015105535N000000000000N84       000070400K 10000000010000000979           
CUS0860830000108037468009         WIGGINS DAVID L     4777 BYRON RD                           000N        CARE OF             
MTR08608300001000000000000000RA              52285745    005800150000001500000520000003NN  NNW 000                       N    
RDG08608300WATRL000000004K00000000000001798008409142015105541N000000000000N84       000060400K 10000000010000001783           
CUS0860830000108037469007         PIERRE CARTER MAX   4775 BYRON RD                           000N        CARE OF             
MTR08608300001000000000000000RA              27822833    005800160000001600000520000003NN  NNW 000                       N    
RDG08608300WATRL000000004K00000000000005664008509142015110634N000000000021N84       000200400K 10000000010000005654           
CUS0860830000108037470005         REAZER KEVIN STEPHEN4773 BYRON RD                           000N        CARE OF             
MTR08608300001000000000000000RA              27822861    005800170000001700000520000003NN  NNW 000                       N    
RDG08608300WATRL000000004K00000000000003686008609142015110640N000000000000N84       000060400K 10000000010000003676           
CUS0860830000108037471003         ALICIA K. DELACRUZ  4771 BYRON RD                           000N        CARE OF             
MTR08608300001000000000000000RA              27822864    005800180000001800000520000003NN  NNW 000                       N    
RDG08608300WATRL000000004K00000000000002948008709142015110649N000000000010N84       000090400K 10000000010000002938           
CUS0860830000108037472001         LONZIE M JOHNSON III4769 BYRON RD                           000N        CARE OF             
MTR08608300001000000000000000RA              00138796    005800190000001900000570000003NN  NNW 000                       N    
RDG08608300WATRL000000004K00000000000000780008809142015110657N000000000000N84       000080400K 10000000010000000770           
CUS0860830000108037473009         EBUWEI SAUNDERS     4767 BYRON RD                           000N        CARE OF             
MTR08608300001000000000000000RA              27822865    005800200000002000000520000003NN  NNW 000                       N    
RDG08608300WATRL000000004K00000000000004068008909142015110707N000000000000N84       000100400K 10000000010000004058           
CUS0860830000108037474007         PHILLIPS KAREN      4765 BYRON RD                           000N        CARE OF             
MTR08608300001000000000000000RA              44091388    005800210000002100000520000003NN  NNW 000                       N    
RDG08608300WATRL000000004K00000000000001244009009142015110710N000000000000N84       000030400K 10000000010000001234           
CUS0860830000108037475004         JOELLE E FRINER     4763 BYRON RD                           000N        CARE OF             
MTR08608300001000000000000000RA              27820773    005800220000002200000520000003NN  NNW 000                       N    
RDG08608300WATRL000000004K00000000000002920009109142015110713N000000000000N84       000030400K 10000000010000002910           
CUS0860830000108037476002         KNIGHT KARL         4761 BYRON RD                           000N        CARE OF             
MTR08608300001000000000000000RA              00138965    005800230000002300000570000003NN  NNW 000                       N    
RDG08608300WATRL000000004K00000000000001631009209142015110720N000000000010N84       000070400K 10000000010000001621           
CUS0860830000108037477000         LANE RICHARD M      4759 BYRON RD                           000N        CARE OF             
MTR08608300001000000000000000RA              27820781    005800240000002400000520000003NN  NNW 000                       N    
RDG08608300WATRL000000004K00000000000003028009309142015110724N000000000000N84       000040400K 10000000010000003018           
CUS0860830000108037478008         SEDGWICK LARRY W,JR 4757 BYRON RD                           000N        CARE OF             
MTR08608300001000000000000000RA              27820800    005800250000002500000520000003NN  NNW 000                       N    
RDG08608300WATRL000000004K00000000000004056009409142015110727N000000000000N84       000030400K 10000000010000004046           
CUS0860830000108037479006         AREVALO DAGOBERTO   4755 BYRON RD                           000N        CARE OF             
MTR08608300001000000000000000RA              10018966    005800260000002600000570000003NN  NNW 000                       N    
RDG08608300WATRL000000004K00000000000000429009509142015110730N000000000000N84       000030400K 10000000010000000419           
CUS0860830000108037480004         KELCH BARBARA E     4753 BYRON RD                           000N        CARE OF             
MTR08608300001000000000000000RA              52285712    005800270000002700000520000003NN  NNW 000                       N    
RDG08608300WATRL000000004K00000000000000728009609142015110734N000000000000N84       000040400K 10000000010000000718           
CUS0860830000108037481002         LUBMAN TERESA ANN   4751 BYRON RD                           000N        CARE OF             
MTR08608300001000000000000000RA              24758572    005800280000002800000520000003NN  NNW 000                       N    
RDG08608300WATRL000000004K00000000000002761009709142015110740N000000000000N84       000060400K 10000000010000002751           
CUS0860830000108037482000         CAMERON THOMAS R    4749 BYRON RD                           000N        CARE OF             
MTR08608300001000000000000000RA              31583494    005800290000002900000520000003NN  NNW 000                       N    
RDG08608300WATRL000000004K00000000000002739009809142015110744N000000000000N84       000040400K 10000000010000002729           
CUS0860830000108037483008         HARRISON TONYA      4747 BYRON RD                           000N        CARE OF             
MTR08608300001000000000000000RA              27820796    005800300000003000000520000003NN  NNW 000                       N    
RDG08608300WATRL000000004K00000000000003823009909142015110748N000000000000N84       000040400K 10000000010000003813           
CUS0860830000108037484006         JOHNSON MARV E      4745 BYRON RD                           000N        CARE OF             
MTR08608300001000000000000000RA              26001792    005800310000003100000520000003NN  NNW 000                       N    
RDG08608300WATRL000000004K00000000000004271010009142015110751N000000000000N84       000030400K 10000000010000004261           
CUS0860830000108037485003         BOWMAN EVELYN C     4743 BYRON RD                           000N        CARE OF             
MTR08608300001000000000000000RA              41074357    005800320000003200000520000003NN  NNW 000                       N    
RDG08608300WATRL000000004K00000000000003169010109142015110754N000000000000N84       000030400K 10000000010000003159           
CUS0860830000108037486001         COBB ANGELA         4741 BYRON RD                           000N        CARE OF             
MTR08608300001000000000000000RA              01102946    005800330000003300000610000003NN  NNW 000                       N    
RDG08608300WATRL000000004K00000000000001235010209142015110758N000000000000N84       000040400K 10000000010000001225           
CUS0860830000108037487009         WASSERMAN ANNE J    4739 BYRON RD                           000N        CARE OF             
MTR08608300001000000000000000RA              10023305    005800340000003400000570000003NN  NNW 000                       N    
RDG08608300WATRL000000004K00000000000000195010309142015110800N000000000000N84       000020400K 10000000010000000185           
CUS0860830000108037488007         MICHELLE A MOORE    4737 BYRON RD                           000N        CARE OF             
MTR08608300001000000000000000RA              27820779    005800350000003500000520000003NN  NNW 000                       N    
RDG08608300WATRL000000004K00000000000003256010409142015110804N000000000000N84       000040400K 10000000010000003246           
CUS0860830000108037489005         SEIDMAN DOROTHY     4735 BYRON RD                           000N        CARE OF             
MTR08608300001000000000000000RA              27820777    005800360000003600000520000003NN  NNW 000                       N    
RDG08608300WATRL000000004K00000000000003384010509142015110807N000000000000N84       000030400K 10000000010000003374           
CUS0860830000108037490003         ABRAMS DONALD N     4733 BYRON RD                           000N        CARE OF             
MTR08608300001000000000000000RA              44172846    005800370000003700000520000003NN  NNW 000                       N    
RDG08608300WATRL000000004K00000000000002004010609142015110811N000000000000N84       000040400K 10000000010000001994           
CUS0860830000108037491001         LEWIS LEROY         4731 BYRON RD                           000N        CARE OF             
MTR08608300001000000000000000RA              44172677    005800380000003800000520000003NN  NNW 000                       N    
RDG08608300WATRL000000004K00000000000001563010709142015110814N000000000000N84       000030400K 10000000010000001553           
CUS0860830000108037492009         NODELMAN JOSEPH     4729 BYRON RD                           000N        CARE OF             
MTR08608300001000000000000000RA              27820774    005800390000003900000520000003NN  NNW 000                       N    
RDG08608300WATRL000000004K00000000000003633010809142015110819N000000000000N84       000050400K 10000000010000003623           
CUS0860830000108037493007         CHARLES STITH       4727 BYRON RD                           000N        CARE OF             
MTR08608300001000000000000000RA              27820776    005800400000004000000520000003NN  NNW 000                       N    
RDG08608300WATRL000000004K00000000000002390010909142015110825N000000000010N84       000060400K 10000000010000002380           
CUS0860830000108037494005         BAZIZ MICHAEL       4725 BYRON RD                           000N        CARE OF             
MTR08608300001000000000000000RA              00139071    005800410000004100000570000003NN  NNW 000                       N    
RDG08608300WATRL000000004K00000000000000927011009142015110828N000000000000N84       000030400K 10000000010000000917           
CUS0860830000108037495002         WATERS SANDRA       4723 BYRON RD                           000N        CARE OF             
MTR08608300001000000000000000RA              27820798    005800420000004200000520000003NN  NNW 000                       N    
RDG08608300WATRL000000004K00000000000009920011109142015110833N000000000000N84       000050400K 10000000010000009908           
CUS0860830000108037496000         HESS MARGIT M       4721 BYRON RD                           000N        CARE OF             
MTR08608300001000000000000000RA              50786959    005800430000004300000520000003NN  NNW 000                       N    
RDG08608300WATRL000000004K00000000000002036011209142015110838N000000000000N84       000050400K 10000000010000002024           
CUS0860830000108037497008         ACHINONU NNA O      4719 BYRON RD                           000N        CARE OF             
MTR08608300001000000000000000RA              26009627    005800440000004400000520000003NN  NNW 000                       N    
RDG08608300WATRL000000004K00000000000003363011309142015110848N000000000000N84       000100400K 10000000010000003351           
CUS0860830000108037498006         FEIERSTEIN DAVID    4717 BYRON RD                           000N        CARE OF             
MTR08608300001000000000000000RA              14925553    005800450000004500000310000003NN  NNW 000                       N    
RDG08608300WATRL000000004K00000000000000940011409142015110856N000000000000N84       000080400K 10000000010000000928           
CUS0860830000108037499004         TURPIN SANDRA R     4715 BYRON RD                           000N        CARE OF             
MTR08608300001000000000000000RA              26001788    005800460000004600000520000003NN  NNW 000                       N    
RDG08608300WATRL000000004K00000000000003532011509142015110900N000000000000N84       000040400K 10000000010000003520           
CUS0860830000108037500009         MOORE-PRAYLOW NICOLE3704 PARKFIELD RD                       000N        CARE OF             
MTR08608300001000000000000000RA              27819055    005800470000004700000520000003NN  NNW 000                       N    
RDG08608300WATRL000000004K00000000000003506003609142015094745N000000000000N84       000610400K 10000000010000003489           
CUS0860830000108037501007         BROWN WILBUR S      3702 PARKFIELD RD                       000N        CARE OF             
MTR08608300001000000000000000RA              00139073    005800480000004800000570000003NN  NNW 000                       N    
RDG08608300WATRL000000004K00000000000004133003709142015094906N000400000010N84       000810400K 10000000010000004126           
CUS0860830000108037502005         GINYARD DAVID M     3700 PARKFIELD RD                       000N        CARE OF             
MTR08608300001000000000000000RA              27819053    005800490000004900000520000003NN  NNW 000                       N    
RDG08608300WATRL000000004K00000000000004543003809142015094958N000300000011N84       000230400K 10000000010000004527           
CUS0860830000108037503003         STEPNEY LEUTRAL,JR  3701 PARKFIELD RD                       000N        CARE OF             
MTR08608300001000000000000000RA              27818417    005800500000005000000520000003NN  NNW 000                       N    
RDG08608300WATRL000000004K00000000000002109003909142015095019N000000000000N84       000210400K 10000000010000002094           
CUS0860830000108037504001         ROWLEY SHIRLEY R    3703 PARKFIELD RD                       000N        CARE OF             
MTR08608300001000000000000000RA              23644480    005800510000005100000520000003NN  NNW 000                       N    
RDG08608300WATRL000000004K00000000000003791004009142015095055N000000000000N84       000360400K 10000000010000003783           
CUS0860830000108037505008         DUCKSON TAWANA      4711 BYRON RD                           000N        CARE OF             
MTR08608300001000000000000000RA              23644427    005800520000005200000520000003NN  NNW 000                       N    
RDG08608300WATRL000000004K00000000000004445004109142015095128N000000000000N84       000330400K 10000000010000004441           
CUS0860830000108037506006         DAMERON JOHN G      4709 BYRON RD                           000N        CARE OF             
MTR08608300001000000000000000RA              27818387    005800530000005300000520000003NN  NNW 000                       N    
RDG08608300WATRL000000004K00000000000001758004209142015095253N000400000010N84       000850400K 10000000010000001754           
CUS0860830000108037507004         MAHIPAT MARLENE N   4708 BYRON RD                           000N        CARE OF             
MTR08608300001000000000000000RA              14901165    005800540000005400000310000003NN  NNW 000                       N    
RDG08608300WATRL000000004K00000000000000962004309142015095326N000000000000N84       000330400K 10000000010000000926           
CUS0860830000108037508002         LEWIS ANDERSON      4710 BYRON RD                           000N        CARE OF             
MTR08608300001000000000000000RA              27818419    005800550000005500000520000003NN  NNW 000                       N    
RDG08608300WATRL000000004K00000000000003862004409142015095412N000300000010N84       000460400K 10000000010000003814           
CUS0860830000108037509000         LAMONT C MCCLOUD    4716 BYRON RD                           000N        CARE OF             
MTR08608300001000000000000000RA              77889750    005800560000005600000350000003NN  NNW 000                       N    
RDG08608300WATRL000000004K00000000000000000011609142015111012N000000000000N84       000720400K 10000000010000000000           
CUS0860830000108037510008         FIDEL RONALD        3701 PINELEA RD                         000N        CARE OF             
MTR08608300001000000000000000RA              27818462    005800570000005700000520000003NN  NNW 000                       N    
RDG08608300WATRL000000004K00000000000003737011709142015111019N000000000000N84       000070400K 10000000010000003725           
CUS0860830000108037511006         JONES SHARON SIMMONS3703 PINELEA RD                         000N        CARE OF             
MTR08608300001000000000000000RA              27818386    005800580000005800000520000003NN  NNW 000                       N    
RDG08608300WATRL000000004K00000000000004615011809142015111025N000000000000N84       000060400K 10000000010000004603           
CUS0860830000108037512004         WEINER MARVIN H     3705 PINELEA RD                         000N        CARE OF             
MTR08608300001000000000000000RA              26010669    005800590000005900000520000003NN  NNW 000                       N    
RDG08608300WATRL000000004K00000000000004633011909142015111030N000000000000N84       000050400K 10000000010000004621           
CUS0860830000108037513002         DEVANCE WILLIAM J   3707 PINELEA RD                         000N        CARE OF             
MTR08608300001000000000000000RA              27818388    005800600000006000000520000003NN  NNW 000                       N    
RDG08608300WATRL000000004K00000000000003119012009142015111035N000000000000N84       000050400K 10000000010000003107           
CUS0860830000108037514000         SHAFRAN SIMCHA,TRUST3 PINELEA CT                            000N        CARE OF             
MTR08608300001000000000000000RA              10013400    005800610000006100000570000003NN  NNW 000                       N    
RDG08608300WATRL000000004K00000000000000904012109142015111044N000000000000N84       000090400K 10000000010000000891           
CUS0860830000108037515007         CRAWFORD LINDA D    5 PINELEA CT                            000N        CARE OF             
MTR08608300001000000000000000RA              14920790    005800620000006200000310000003NN  NNW 000                       N    
RDG08608300WATRL000000004K00000000000001342012209142015111047N000000000000N84       000030400K 10000000010000001330           
CUS0860830000108037516005         HOWARD GREGORY R    7 PINELEA CT                            000N        CARE OF             
MTR08608300001000000000000000RA              10012983    005800630000006300000570000003NN  NNW 000                       N    
RDG08608300WATRL000000004K00000000000000454012309142015111052N000000000000N84       000050400K 10000000010000000442           
CUS0860830000108037517003         BRAXTON PATRIA      8 PINELEA CT                            000N        CARE OF             
MTR08608300001000000000000000RA              19462196    005800640000006400000520000003NY  NNW 000                       N    
MTM0860830019462196    occ                                                                                                    
RDG08608300WATRL000000004K00000000000003000012409142015111124N000000000070N84       000320400K 10000000010000003000           
CUS0860830000108037518001         BALDWIN SHERRY      6 PINELEA CT                            000N        CARE OF             
MTR08608300001000000000000000RA              10012982    005800650000006500000570000003NN  NNW 000                       N    
RDG08608300WATRL000000004K00000000000000233012509142015111156N000000000000N84       000320400K 10000000010000000223           
CUS0860830000108037519009         BULLOCK JOSEPH      4 PINELEA CT                            000N        CARE OF             
MTR08608300001000000000000000RA              10017640    005800660000006600000570000003NN  NNW 000                       N    
RDG08608300WATRL000000004K00000000000000353012609142015111205N000000000000N84       000090400K 10000000010000000341           
CUS0860830000108037520007         JACKSON MICHAEL R   2 PINELEA CT                            000N        CARE OF             
MTR08608300001000000000000000RA              75425441    005800670000006700000350000003NN  NNW 000                       N    
RDG08608300WATRL000000004K00000000000000126012709142015111210N000000000000N84       000050400K 10000000010000000113           
CUS0860830000108037521005         STREET MICHAEL A    3711 PINELEA RD                         000N        CARE OF             
MTR08608300001000000000000000RA              11335907    005800680000006800000570000003NN  NNW 000                       N    
RDG08608300WATRL000000004K00000000000004055012809142015111216N000000000000N84       000060400K 10000000010000004043           
CUS0860830000108037522003         WILLIAMS JAMES C    3713 PINELEA RD                         000N        CARE OF             
MTR08608300001000000000000000RA              44172672    005800690000006900000520000003NN  NNW 000                       N    
RDG08608300WATRL000000004K00000000000001683012909142015111219N000000000000N84       000030400K 10000000010000001670           
CUS0860830000108037523001         SOLOMON ARTHUR R    3715 PINELEA RD                         000N        CARE OF             
MTR08608300001000000000000000RA              26014273    005800700000007000000520000003NN  NNW 000                       N    
RDG08608300WATRL000000004K00000000000004333013009142015111227N000000000000N84       000080400K 10000000010000004321           
CUS0860830000108037524009         SCRIBNER PAUL A     3717 PINELEA RD                         000N        CARE OF             
MTR08608300001000000000000000RA              44091370    005800710000007100000520000003NN  NNW 000                       N    
RDG08608300WATRL000000004K00000000000002776013109142015111233N000000000000N84       000060400K 10000000010000002763           
CUS0860830000108037525006         HIGHTOWER CHRISTINE 3719 PINELEA RD                         000N        CARE OF             
MTR08608300001000000000000000RA              27818495    005800720000007200000520000003NN  NNW 000                       N    
RDG08608300WATRL000000004K00000000000004298013209142015111239N000000000000N84       000060400K 10000000010000004287           
CUS0860830000108037526004         GREGORY YVONNE J    3721 PINELEA RD                         000N        CARE OF             
MTR08608300001000000000000000RA              27818234    005800730000007300000520000003NN  NNW 000                       N    
RDG08608300WATRL000000004K00000000000002941013309142015111246N000000000000N84       000070400K 10000000010000002928           
CUS0860830000108037527002         CHEATHAM ELANDA     3722 PINELEA RD                         000N        CARE OF             
MTR08608300001000000000000000RA              50786963    005800740000007400000520000003NN  NNW 000                       N    
RDG08608300WATRL000000004K00000000000002689013409142015111303N000000000000N84       000170400K 10000000010000002677           
CUS0860830000108037528000         LEVI CHARLES A,JR   3720 PINELEA RD                         000N        CARE OF             
MTR08608300001000000000000000RA              27818237    005800750000007500000520000003NN  NNW 000                       N    
RDG08608300WATRL000000004K00000000000003402013509142015111307N000000000000N84       000040400K 10000000010000003390           
CUS0860830000108037529008         MOORING CAROLYN L   3718 PINELEA RD                         000N        CARE OF             
MTR08608300001000000000000000RA              27818465    005800760000007600000520000003NN  NNW 000                       N    
RDG08608300WATRL000000004K00000000000003474013609142015111318N000000000020N84       000110400K 10000000010000003464           
CUS0860830000108037530006         A2Z FIELD SERVICES  3716 PINELEA RD                         000N        CARE OF             
MTR08608300001000000000000000RA              24754485    005800770000007700000520000003NY  NNW 000                       N    
MTM0860830024754485    occ                                                                                                    
RDG08608300WATRL000000004K00000000000004929013709142015111336N000000000020N84       000180400K 10000000010000004929           
CUS0860830000108037531004         MILES ERNEST        3714 PINELEA RD                         000N        CARE OF             
MTR08608300001000000000000000RA              27815409    005800780000007800000520000003NN  NNW 000                       N    
RDG08608300WATRL000000004K00000000000002322013809142015111427N000000000000N84       000510400K 10000000010000002310           
CUS0860830000108037532002         LUCAS ALEXIS L      3712 PINELEA RD                         000N        CARE OF             
MTR08608300001000000000000000RA              27818177    005800790000007900000520000003NN  NNW 000                       N    
RDG08608300WATRL000000004K00000000000002232013909142015111431N000000000000N84       000040400K 10000000010000002220           
CUS0860830000108037533000         POOLE VIRGINIA TRUST3710 PINELEA RD                         000N        CARE OF             
MTR08608300001000000000000000RA              26014313    005800800000008000000520000003NN  NNW 000                       N    
RDG08608300WATRL000000004K00000000000003143014009142015111436N000000000000N84       000050400K 10000000010000003131           
CUS0860830000108037534008         WEANQUOI DEMAURIO   3708 PINELEA RD                         000N        CARE OF             
MTR08608300001000000000000000RA              50786918    005800810000008100000520000003NN  NNW 000                       N    
RDG08608300WATRL000000004K00000000000000579014109142015111442N000000000000N84       000060400K 10000000010000000566           
CUS0860830000108037535005         WARD ERNEST         3706 PINELEA RD                         000N        CARE OF             
MTR08608300001000000000000000RA              27818464    005800820000008200000520000003NN  NNW 000                       N    
RDG08608300WATRL000000004K00000000000003538014209142015111448N000000000000N84       000060400K 10000000010000003526           
CUS0860830000108037536003         MCFADDEN CARLA      3704 PINELEA RD                         000N        CARE OF             
MTR08608300001000000000000000RA              27818485    005800830000008300000520000003NN  NNW 000                       N    
RDG08608300WATRL000000004K00000000000004719014309142015111455N000000000000N84       000070400K 10000000010000004707           
CUS0860830000108037537001         YVETTE JENKINS      3702 PINELEA RD                         000N        CARE OF             
MTR08608300001000000000000000RA              26014763    005800840000008400000520000003NN  NNW 000                       N    
RDG08608300WATRL000000004K00000000000002818014409142015111459N000000000000N84       000040400K 10000000010000002806           
CUS0860830000108037538009         MASON CHARLES,JR    3700 PINELEA RD                         000N        CARE OF             
MTR08608300001000000000000000RA              36687079    005800850000008500000520000003NN  NNW 000                       N    
RDG08608300WATRL000000004K00000000000003032014509142015111503N000000000000N84       000040400K 10000000010000003021           
CUS0860830000108037539007         PAYNE DEBORAH       4726 BYRON RD                           000N        CARE OF             
MTR08608300001000000000000000RA              27818496    005800860000008600000520000003NN  NNW 000                       N    
RDG08608300WATRL000000004K00000000000003134014609142015111508N000000000000N84       000050400K 10000000010000003122           
CUS0860830000108037540005         MCCLAMB WILBERT R   4728 BYRON RD                           000N        CARE OF             
MTR08608300001000000000000000RA              40048009    005800870000008700000520000003NN  NNW 000                       N    
RDG08608300WATRL000000004K00000000000002425014709142015111513N000000000000N84       000050400K 10000000010000002413           
CUS0860830000108037541003         BARRON GILBERT L    4730 BYRON RD                           000N        CARE OF             
MTR08608300001000000000000000RA              27818497    005800880000008800000520000003NN  NNW 000                       N    
RDG08608300WATRL000000004K00000000000003118014809142015111516N000000000000N84       000030400K 10000000010000003106           
CUS0860830000108037542001         MOORE OSCAR J       4732 BYRON RD                           000N        CARE OF             
MTR08608300001000000000000000RA              27818482    005800890000008900000520000003NN  NNW 000                       N    
RDG08608300WATRL000000004K00000000000003715014909142015111521N000000000000N84       000050400K 10000000010000003703           
CUS0860830000108037543009         MAXIMA J HANCOCK    4734 BYRON RD                           000N        CARE OF             
MTR08608300001000000000000000RA              27818492    005800900000009000000520000003NN  NNW 000                       N    
RDG08608300WATRL000000004K00000000000003598015009142015111529N000000000000N84       000080400K 10000000010000003585           
CUS0860830000108037544007         DEANE VALENTINE A   4736 BYRON RD                           000N        CARE OF             
MTR08608300001000000000000000RA              27818481    005800910000009100000520000003NN  NNW 000                       N    
RDG08608300WATRL000000004K00000000000004405015109142015111535N000000000000N84       000060400K 10000000010000004393           
CUS0860830000108037545004         NEWMAN JAMES WENDELL4738 BYRON RD                           000N        CARE OF             
MTR08608300001000000000000000RA              27218090    005800920000009200000520000003NN  NNW 000                       N    
RDG08608300WATRL000000004K00000000000003389015209142015111539N000000000000N84       000040400K 10000000010000003377           
CUS0860830000108037546002         YESENIA PORTILLO    4740 BYRON RD                           000N        CARE OF             
MTR08608300001000000000000000RA              01102947    005800930000009300000610000003NN  NNW 000                       N    
RDG08608300WATRL000000004K00000000000001141015309142015111549N000000000000N84       000100400K 10000000010000001129           
CUS0860830000108037547000         GREEN ALBERT L      4742 BYRON RD                           000N        CARE OF             
MTR08608300001000000000000000RA              00138967    005800940000009400000570000003NN  NNW 000                       N    
RDG08608300WATRL000000004K00000000000001943015409142015111552N000000000000N84       000030400K 10000000010000001931           
CUS0860830000108037548008         AUSTIN SHARMA I     4744 BYRON RD                           000N        CARE OF             
MTR08608300001000000000000000RA              27818484    005800950000009500000520000003NN  NNW 000                       N    
RDG08608300WATRL000000004K00000000000003695015509142015111600N000000000000N84       000080400K 10000000010000003682           
CUS0860830000108037549006         TOLLIVER HARRY R,SR 4746 BYRON RD                           000N        CARE OF             
MTR08608300001000000000000000RA              10016477    005800960000009600000570000003NN  NNW 000                       N    
RDG08608300WATRL000000004K00000000000000373015609142015111607N000000000000N84       000070400K 10000000010000000361           
CUS0860830000108037550004         SYBIL B WALKER      4748 BYRON RD                           000N        CARE OF             
MTR08608300001000000000000000RA              99292945    005800970000009700000570000003NN  NNW 000                       N    
RDG08608300WATRL000000004K00000000000000405015709142015111613N000000000000N84       000060400K 10000000010000000392           
CUS0860830000108037551002         DOUGHTY WILLIAM WNED4770 BYRON RD                           000N        CARE OF             
MTR08608300001000000000000000RA              00139076    005800980000009800000570000003NN  NNW 000                       N    
RDG08608300WATRL000000004K00000000000002421015809142015111617N000000000000N84       000040400K 10000000010000002409           
CUS0860830000108037552000         MOODIE RODERICK     4772 BYRON RD                           000N        CARE OF             
MTR08608300001000000000000000RA              27818480    005800990000009900000520000003NN  NNW 000                       N    
RDG08608300WATRL000000004K00000000000003175015909142015111621N000000000000N84       000040400K 10000000010000003162           
CUS0860830000108037553008         ALI MUHAMMAD JAFARU 4774 BYRON RD                           000N        CARE OF             
MTR08608300001000000000000000RA              00139063    005801000000010000000570000000NY  NNW 000                       N    
MTM0860830000139063    occ                                                                                                    
RDG08608300WATRL000000004K00000000000002698016009142015111646N000000000020N84       000250400K 10000000010000002698           
CUS0860830000108037554006         TORAIN PAUL         4776 BYRON RD                           000N        CARE OF             
MTR08608300001000000000000000RA              24220033    005801010000010100000520000003NN  NNW 000                       N    
RDG08608300WATRL000000004K00000000000003382016109142015111738N000000000000N84       000520400K 10000000010000003369           
CUS0860830000108037555003         WOMACK SEAN         4778 BYRON RD                           000N        CARE OF             
MTR08608300001000000000000000RA              27818483    005801020000010200000520000003NN  NNW 000                       N    
RDG08608300WATRL000000004K00000000000003887016209142015111742N000000000000N84       000040400K 10000000010000003875           
CUS0860830000108037556001         GARNER KEVIN        4780 BYRON RD                           000N        CARE OF             
MTR08608300001000000000000000RA              22606821    005801030000010300000520000003NN  NNW 000                       N    
RDG08608300WATRL000000004K00000000000006931016309142015111748N000000000000N84       000060400K 10000000010000006919           
CUS0860830000108037557009         ARMOND HOLMES L     4782 BYRON RD                           000N        CARE OF             
MTR08608300001000000000000000RA              27818493    005801040000010400000520000003NN  NNW 000                       N    
RDG08608300WATRL000000004K00000000000003153016409142015111752N000000000000N84       000040400K 10000000010000003141           
CUS0860830000108037558007         KATRINA POWELL      4784 BYRON RD                           000N        CARE OF             
MTR08608300001000000000000000RA              24757493    005801050000010500000520000003NN  NNW 000                       N    
RDG08608300WATRL000000004K00000000000002775016509142015111757N000000000000N84       000050400K 10000000010000002763           
CUS0860830000108037559005         PARKER PEARLIE      4786 BYRON RD                           000N        CARE OF             
MTR08608300001000000000000000RA              23959596    005801060000010600000520000003NN  NNW 000                       N    
RDG08608300WATRL000000004K00000000000002213016609142015111800N000000000000N84       000030400K 10000000010000002201           
CUS0860830000108037560003         FOGARTY PAULINE     3722 PARKFIELD RD                       000N        CARE OF             
MTR08608300001000000000000000RA              27817674    005801070000010700000520000003NN  NNW 000                       N    
RDG08608300WATRL000000004K00000000000002094002709142015094144N000300000010N84       000610400K 10000000010000002078           
CUS0860830000108037561001         JOHNSON ANGELA P    3720 PARKFIELD RD                       000N        CARE OF             
MTR08608300001000000000000000RA              14912772    005801080000010800000310000003NN  NNW 000                       N    
RDG08608300WATRL000000004K00000000000000562002809142015094210N000000000000N84       000260400K 10000000010000000546           
CUS0860830000108037562009         CATHORNE SHIRLEY A  3718 PARKFIELD RD                       000N        CARE OF             
MTR08608300001000000000000000RA              27817671    005801090000010900000520000003NN  NNW 000                       N    
RDG08608300WATRL000000004K00000000000002559002909142015094251N000000000000N84       000410400K 10000000010000002543           
CUS0860830000108037563007         COLEMAN LORISTINE A 3716 PARKFIELD RD                       000N        CARE OF             
MTR08608300001000000000000000RA              10010525    005801100000011000000570000003NN  NNW 000                       N    
RDG08608300WATRL000000004K00000000000000104003009142015094332N000000000000N84       000410400K 10000000010000000100           
CUS0860830000108037564005         FELDMAN MURRAY IRA  3714 PARKFIELD RD                       000N        CARE OF             
MTR08608300001000000000000000RA              01094008    005801110000011100000610000003NN  NNW 000                       N    
RDG08608300WATRL000000004K00000000000001382003109142015094406N000300000010N84       000340400K 10000000010000001336           
CUS0860830000108037565002         CLAUDE SHELL        3712 PARKFIELD RD                       000N        CARE OF             
MTR08608300001000000000000000RA              27819461    005801120000011200000520000003NN  NNW 000                       N    
RDG08608300WATRL000000004K00000000000001832003209142015094432N000000000000N84       000260400K 10000000010000001821           
CUS0860830000108037566000         ROONER LORETTA      3710 PARKFIELD RD                       000N        CARE OF             
MTR08608300001000000000000000RA              00139194    005801130000011300000570000003NN  NNW 000                       N    
RDG08608300WATRL000000004K00000000000001039003309142015094524N000000000000N84       000520400K 10000000010000001033           
CUS0860830000108037567008         JAMES D MCCLEOD     3708 PARKFIELD RD                       000N        CARE OF             
MTR08608300001000000000000000RA              27819084    005801140000011400000520000003NN  NNW 000                       N    
RDG08608300WATRL000000004K00000000000002757003409142015094604N000000000000N84       000400400K 10000000010000002740           
CUS0860830000108037568006         MCENTYRE MARLON J   3706 PARKFIELD RD                       000N        CARE OF             
MTR08608300001000000000000000RA              27817675    005801150000011500000520000003NN  NNW 000                       N    
RDG08608300WATRL000000004K00000000000002854003509142015094644N000000000000N84       000400400K 10000000010000002843           
CUS0860830000108037569004         PASSEN ALBERT,ET AL 3707 PARKFIELD RD                       000N        CARE OF             
MTR08608300001000000000000000RA              10012330    005801160000011600000570000003NN  NNW 000                       N    
RDG08608300WATRL000000004K00000000000000188004509142015095531N000000000000N84       000790400K 10000000010000000177           
CUS0860830000108037570002         HANDWERGER SAMUEL   3709 PARKFIELD RD                       000N        CARE OF             
MTR08608300001000000000000000RA              27817672    005801170000011700000520000003NN  NNW 000                       N    
RDG08608300WATRL000000004K00000000000004556004609142015095623N000000000000N84       000520400K 10000000010000004554           
CUS0860830000108037571000         MICHELSON VILMA J   4705 PARKFIELD CT                       000N        CARE OF             
MTR08608300001000000000000000RA              39585650    005801180000011800000520000003NN  NNW 000                       N    
RDG08608300WATRL000000004K00000000000001113004709142015095719N000400000010N84       000560400K 10000000010000001110           
CUS0860830000108037572008         HAND ROBERT JAMES   4703 PARKFIELD CT                       000N        CARE OF             
MTR08608300001000000000000000RA              27818467    005801190000011900000520000003NN  NNW 000                       N    
RDG08608300WATRL000000004K00000000000003592004809142015095817N000300000010N84       000580400K 10000000010000003577           
CUS0860830000108037573006         REDD EVANGELIN GENEV4701 PARKFIELD CT                       000N        CARE OF             
MTR08608300001000000000000000RA              26010350    005801200000012000000520000003NN  NNW 000                       N    
RDG08608300WATRL000000004K00000000000003150004909142015095853N000000000000N84       000360400K 10000000010000003146           
CUS0860830000108037574004         CHEEK ELIJAH LADANIA4700 PARKFIELD CT                       000N        CARE OF             
MTR08608300001000000000000000RA              27818463    005801210000012100000520000003NN  NNW 000                       N    
RDG08608300WATRL000000004K00000000000006881005009142015095954N000000000000N84       000610400K 10000000010000006828           
CUS0860830000108037575001         ALEXANDER ELAINE    4702 PARKFIELD CT                       000N        CARE OF             
MTR08608300001000000000000000RA              27818415    005801220000012200000520000003NN  NNW 000                       N    
RDG08608300WATRL000000004K00000000000002705005109142015100122N000300000010N84       000880400K 10000000010000002710           
CUS0860830000108037576009         PAUL TALOR          4704 PARKFIELD CT                       000N        CARE OF             
MTR08608300001000000000000000RA              52290217    005801230000012300000520000003NN  NNW 000                       N    
RDG08608300WATRL000000004K00000000000002418005209142015100230N000000000000N84       000680400K 10000000010000002401           
CUS0860830000108037577007         ASHKENASY JEFFREY M 4790 BYRON RD                           000N        CARE OF             
MTR08608300001000000000000000RA              27818385    005801240000012400000520000003NN  NNW 000                       N    
RDG08608300WATRL000000004K00000000000005127005309142015100337N000000000000N84       000670400K 10000000010000005105           
CUS0860830000108037578005         CARMICHAEL HARTENCIE4792 BYRON RD                           000N        CARE OF             
MTR08608300001000000000000000RA              20767319    005801250000012500000520000003NN  NNW 000                       N    
RDG08608300WATRL000000004K00000000000003850005409142015100423N000000000000N84       000460400K 10000000010000003842           
CUS0860830000108037579003         HEWITT ERIN         4794 BYRON RD                           000N        CARE OF             
MTR08608300001000000000000000RA              27818384    005801260000012600000520000003NN  NNW 000                       N    
RDG08608300WATRL000000004K00000000000000000005509142015100530S090000000000N84       000670400K 10000000010000002580           
CUS0860830000108037580001         ELLA J HINES        4795 BYRON RD                           000N        CARE OF             
MTR08608300001000000000000000RA              26010550    005801270000012700000520000003NN  NNW 000                       N    
RDG08608300WATRL000000004K00000000000003925005609142015100610N000300000010N84       000400400K 10000000010000003908           
CUS0860830000108037581009         ARTHUR PAUL         4793 BYRON RD                           000N        CARE OF             
MTR08608300001000000000000000RA              76348991    005801280000012800000350000003NN  NNW 000                       N    
RDG08608300WATRL000000004K00000000000000275005709142015100643N000000000000N84       000330400K 10000000010000000241           
CUS0860830000108037582007         CHERYL JOHNSON      4791 BYRON RD                           000N        CARE OF             
MTR08608300001000000000000000RA              27818414    005801290000012900000520000003NN  NNW 000                       N    
RDG08608300WATRL000000004K00000000000004541005809142015100726N000300000010N84       000430400K 10000000010000004488           
CUS0860830000108037583005         WOLFE HALLIE L      3727 PARKFIELD RD                       000N        CARE OF             
MTR08608300001000000000000000RA              00139075    005801300000013000000570000003NN  NNW 000                       N    
RDG08608300WATRL000000004K00000000000000702005909142015100845N000000000000N84       000790400K 10000000010000000688           
CUS0860830000108037584003         MENASE OKERSON      4709 MARLING RD                         000N        CARE OF             
MTR08608300001000000000000000RA              30516827    005801310000013100000520000000NN  NNW 000                       N    
RDG08608300WATRL000000004K00000000000004733002109142015093001N000000000000N84       001000400K 10000000010000004710           
CUS0860830000108037585000         MCLENDON FRANCIS D  4707 MARLING RD                         000N        CARE OF             
MTR08608300001000000000000000RA              30513177    005801320000013200000520000003NN  NNW 000                       N    
RDG08608300WATRL000000004K00000000000003966001409142015092426N000000000000N84       000940400K 10000000010000003940           
CUS0860830000108037586008         TAYLOR LEO          4705 MARLING RD                         000N        CARE OF             
MTR08608300001000000000000000RA              45381720    005801330000013300000520000003NN  NNW 000                       N    
RDG08608300WATRL000000004K00000000000001578001109142015092102N000000000000N84       005330400K 10000000010000001559           
CUS0860830000108037587006         GAINEY JERRY DAVID  4703 MARLING RD                         000N        CARE OF             
MTR08608300001000000000000000RA              27833423    005801340000013400000520000003NN  NNW 000                       N    
RDG08608300WATRL000000004K00000000000003650001209142015092212N000000000000N84       000700400K 10000000010000003627           
CUS0860830000108037588004         RICHARDSON ALFONZER 4701 MARLING RD                         000N        CARE OF             
MTR08608300001000000000000000RA              14900342    005801350000013500000310000003NN  NNW 000                       N    
RDG08608300WATRL000000004K00000000000000656001309142015092252N000000000000N84       000400400K 10000000010000000645           
CUS0860830000108412685003         BEVERLY RICHARD B   2 ROCKY LN                              000N        CARE OF             
MTR08608300001000000000000000RA              46886057    005801360000013600000520000003NN  NNW 000                       N    
RDG08608300WATRL000000004K00000000000008835006109142015104334N000000000000N84       000310400K 10000000010000008822           
CUS0860830000108412684006         JOHNSON VERONIQUE V 4 ROCKY LN                              000N        CARE OF             
MTR08608300001000000000000000RA              46885588    005801370000013700000520000003NN  NNW 000                       N    
RDG08608300WATRL000000004K00000000000001546006009142015104303N000000000000N84       020580400K 10000000010000001523           
CUS0860830000108412683008         NKAMJEU MBIANDA     6 ROCKY LN                              000N        CARE OF             
MTR08608300001000000000000000RA              48587997    005801380000013800000520000003NN  NNW 000                       N    
RDG08608300WATRL000000004K00000000000001496006209142015104354N000400000010N84       000200400K 10000000010000001493           
CUS0860830000108412682000         EDWARDS PAULINE C   8 ROCKY LN                              000N        CARE OF             
MTR08608300001000000000000000RA              46885593    005801390000013900000520000003NN  NNW 000                       N    
RDG08608300WATRL000000004K00000000000003107006309142015104409N000300000010N84       000150400K 10000000010000003073           
CUS0860830000108412681002         KNUCKLES ROBERT     10 ROCKY LN                             000N        CARE OF             
MTR08608300001000000000000000RA              46881506    005801400000014000000520000003NN  NNW 000                       N    
RDG08608300WATRL000000004K00000000000004651006409142015104436N000300000010N84       000270400K 10000000010000004663           
CUS0860830000108412680004         CECILIA EBOT        12 ROCKY LN                             000N        CARE OF             
MTR08608300001000000000000000RA              46885422    005801410000014100000520000003NN  NNW 000                       N    
RDG08608300WATRL000000004K00000000000003449006509142015104509N000000000000N84       000330400K 10000000010000003422           
CUS0860830000108412679006         COLLINS ALBERT L    14 ROCKY LN                             000N        CARE OF             
MTR08608300001000000000000000RA              48589292    005801420000014200000520000003NN  NNW 000                       N    
RDG08608300WATRL000000004K00000000000001527006609142015104537N000000000000N84       000280400K 10000000010000001518           
CUS0860830000108412678008         ESTEVEZ LEONIDAS    16 ROCKY LN                             000N        CARE OF             
MTR08608300001000000000000000RA              46885737    005801430000014300000520000003NN  NNW 000                       N    
RDG08608300WATRL000000004K00000000000003767006709142015104633N000100000020N84       000560400K 10000000010000003767           
CUS0860830000108412677000         BROWN SANDRA A      18 ROCKY LN                             000N        CARE OF             
MTR08608300001000000000000000RA              48593680    005801440000014400000520000003NN  NNW 000                       N    
RDG08608300WATRL000000004K00000000000001266006809142015104658N000400000010N84       000250400K 10000000010000001260           
CUS0860830000108412676002         GRAY ARTHUR L       20 ROCKY LN                             000N        CARE OF             
MTR08608300001000000000000000RA              50477405    005801450000014500000520000003NN  NNW 000                       N    
RDG08608300WATRL000000004K00000000000001804006909142015104722N000300000010N84       000240400K 10000000010000001762           
CUS0860830000108412675004         MARTIN JOHN CHARLES 22 ROCKY LN                             000N        CARE OF             
MTR08608300001000000000000000RA              50477738    005801460000014600000520000003NN  NNW 000                       N    
RDG08608300WATRL000000004K00000000000001652007009142015104758N000000000000N84       000360400K 10000000010000001642           
CUS0860830000108412674007         CLARKE GLORIA Y     24 ROCKY LN                             000N        CARE OF             
MTR08608300001000000000000000RA              48584917    005801470000014700000520000003NN  NNW 000                       N    
RDG08608300WATRL000000004K00000000000001026007109142015104812N000000000000N84       000140400K 10000000010000001021           
CUS0860830000108412673009         SMITH CURLINE       17 ROCKY LN                             000N        CARE OF             
MTR08608300001000000000000000RA              50788709    005801480000014800000520000003NN  NNW 000                       N    
RDG08608300WATRL000000004K00000000000002226007209142015104844N000400000010N84       000320400K 10000000010000002220           
CUS0860830000108412672001         PORTER MONTGOMERY B 15 ROCKY LN                             000N        CARE OF             
MTR08608300001000000000000000RA              50480169    005801490000014900000520000003NN  NNW 000                       N    
RDG08608300WATRL000000004K00000000000001439007309142015104903N000000000000N84       000190400K 10000000010000001419           
CUS0860830000108412671003         MINH DO             11 ROCKY LN                             000N        CARE OF             
MTR08608300001000000000000000RA              50480148    005801500000015000000520000003NN  NNW 000                       N    
RDG08608300WATRL000000004K00000000000001622007409142015104921N000300000010N84       000180400K 10000000010000001598           
CUS0860830000108412670005         SMITH DAYLE M       9 ROCKY LN                              000N        CARE OF             
MTR08608300001000000000000000RA              46878877    005801510000015100000520000003NN  NNW 000                       N    
RDG08608300WATRL000000004K00000000000001339007509142015104943N000000000000N84       000220400K 10000000010000001334           
CUS0860830000108412669007         AREBAMEN DENNIS M   7 ROCKY LN                              000N        CARE OF             
MTR08608300001000000000000000RA              48591264    005801520000015200000520000003NN  NNW 000                       N    
RDG08608300WATRL000000004K00000000000001604007609142015105013N000000000000N84       000300400K 10000000010000001587           
CUS0860830000108412668009         LINDA T. AROBIEKE   5 ROCKY LN                              000N        CARE OF             
MTR08608300001000000000000000RA              50480146    005801530000015300000520000003NN  NNW 000                       N    
RDG08608300WATRL000000004K00000000000002607007709142015105107N000000000000N84       000540400K 10000000010000002564           
CUS0860830000108412667001         DAVIES GEORGE G     3 ROCKY LN                              000N        CARE OF             
MTR08608300001000000000000000RA              48590545    005801540000015400000520000003NN  NNW 000                       N    
RDG08608300WATRL000000004K00000000000002241007809142015105147N000300000010N84       000400400K 10000000010000002004           
CUS0860830000108412666003         CHERRY SHAWN DARNELL1 ROCKY LN                              000N        CARE OF             
MTR08608300001000000000000000RA              50478975    005801550000015500000520000003NN  NNW 000                       N    
RDG08608300WATRL000000004K00000000000003901007909142015105211N000000000000N84       000240400K 10000000010000003883           
CUS0860830000102348569001         WINCHESTER ERNYSTENE12 IDEAL CT                             000N        CARE OF             
MTR08608300001000000000000000RA              00139062    005801560000015600000570000003NN  NNW 000                       N    
RDG08608300WATRL000000004K00000000000001465002009142015092821N000000000000N84       000270400K 10000000010000001453           
CUS0860830000102352224006         DUNNOCK PEGGY L     10 IDEAL CT                             000N        CARE OF             
MTR08608300001000000000000000RA              27817778    005801570000015700000520000003NN  NNW 000                       N    
RDG08608300WATRL000000004K00000000000003707001909142015092754N000000000000N84       000270400K 10000000010000003696           
CUS0860830000102348570009         CARTER NOMA K       8 IDEAL CT                              000N        CARE OF             
MTR08608300001000000000000000RA              27817789    005801580000015800000520000003NN  NNW 000                       N    
RDG08608300WATRL000000004K00000000000003613001809142015092727N000300000010N84       000440400K 10000000010000003581           
CUS0860830000102352287003         CLARY BRIAN G       6 IDEAL CT                              000N        CARE OF             
MTR08608300001000000000000000RA              27829316    005801590000015900000520000003NN  NNW 000                       N    
RDG08608300WATRL000000004K00000000000007110001709142015092643N000300000010N84       000320400K 10000000010000007025           
CUS0860830000102352286005         POWERS CAROLYN Z    4 IDEAL CT                              000N        CARE OF             
MTR08608300001000000000000000RA              27828133    005801600000016000000520000003NN  NNW 000                       N    
RDG08608300WATRL000000004K00000000000003067001609142015092611N000000000000N84       000280400K 10000000010000003053           
CUS0860830000108362678008         WRIGHT HARVEY L     2 IDEAL CT                              000N        CARE OF             
MTR08608300001000000000000000RA              33080826    005801610000016100000520000003NN  NNW 000                       N    
RDG08608300WATRL000000004K00000000000002984001509142015092543N000300000020N84       000770400K 10000000010000002943           
CUS0860830000108037589002         TIFFANY METZGER     3731 PARKFIELD RD                       000N        CARE OF             
MTR08608300001000000000000000RA              01113951    005801620000016200000610000003NN  NNW 000                       N    
RDG08608300WATRL000000004K00000000000000363002209142015093111N000000000000N84       000700400K 10000000010000000345           
CUS0860830000108037590000         BOYER FREDERICK D   3733 PARKFIELD RD                       000N        CARE OF             
MTR08608300001000000000000000RA              27819462    005801630000016300000520000003NN  NNW 000                       N    
RDG08608300WATRL000000004K00000000000003324002309142015093159N000300000010N84       000480400K 10000000010000003156           
CUS0860830000108037591008         LATOYLA TILGHMAN    3735 PARKFIELD RD                       000N        CARE OF             
MTR08608300001000000000000000RA              27819083    005801640000016400000520000003NN  NNW 000                       N    
RDG08608300WATRL000000004K00000000000004118002409142015093243N000400000010N84       000440400K 10000000010000004100           
CUS0860830000108037592006         CHEEKS CHANDA L     3737 PARKFIELD RD                       000N        CARE OF             
MTR08608300001000000000000000RA              00138933    005801650000016500000570000003NN  NNW 000                       N    
RDG08608300WATRL000000004K00000000000000959002509142015093320N000300000010N84       000370400K 10000000010000000945           
CUS0860830000108037593004         NOWACKI STEPHEN V,3R3739 PARKFIELD RD                       000N        CARE OF             
MTR08608300001000000000000000RA              26014062    005801660000016600000520000003NN  NNW 000                       N    
RDG08608300WATRL000000004K00000000000002961002609142015093350N000000000000N84       000300400K 10000000010000002951           
RTR08608300NN01660166000001660000000001660166000115NY016601660166000000010000000000000000000002    08242015NY020000 N         
RHD08610400NN02350235000002350000000002350235000278NY023502350235000000000000000000000000000002    08272015NY020000 N         
CUS0861040000108037948000         RONALD D MILES      3701 STONEYBROOK RD                     000N        CARE OF             
MTR08610400001000000000000000RA              48593453    005800010000000100000520000003NN  NNW 000                       N    
RDG08610400WATRL000000004K00000000000002533000109102015083125N000000000000N20       000000400K 10000000010000002512           
CUS0861040000108037949008         WIGGINS ALFREDA L   3703 STONEYBROOK RD                     000N        CARE OF             
MTR08610400001000000000000000RA              48593449    005800020000000200000520000003NN  NNW 000                       N    
RDG08610400WATRL000000004K00000000000003591000109112015121446N000000000000U20       000000400K 10000000010000003588           
CUS0861040000108037950006         AHWIRENG RICHARD    3705 STONEYBROOK RD                     000N        CARE OF             
MTR08610400001000000000000000RA              44092622    005800030000000300000520000003NN  NNW 000                       N    
RDG08610400WATRL000000004K00000000000001770000209112015121527N000300000010U20       000410400K 10000000010000001719           
CUS0861040000108037951004         CHRISTIAN FREDERICKA3707 STONEYBROOK RD                     000N        CARE OF             
MTR08610400001000000000000000RA              19557457    005800040000000400000520000003NN  NNW 000                       N    
RDG08610400WATRL000000004K00000000000004100000309112015121600N000000000000U20       000330400K 10000000010000004100           
CUS0861040000108037952002         WHITTINGTON AARON J/3709 STONEYBROOK RD                     000N        CARE OF             
MTR08610400001000000000000000RA              40781438    005800050000000500000520000003NN  NNW 000                       N    
RDG08610400WATRL000000004K00000000000001821000409112015121650N000000000031U20       000100400K 10000000010000001817           
CUS0861040000108037953000         IKEJIOFOR MOSES E   3711 STONEYBROOK RD                     000N        CARE OF             
MTR08610400001000000000000000RA              29682871    005800060000000600000520000003NN  NNW 000                       N    
RDG08610400WATRL000000004K00000000000004233000509112015121734N000300000010U20       000440400K 10000000010000004167           
CUS0861040000108037954008         SHATTOCK MICHAEL M  3713 STONEYBROOK RD                     000N        CARE OF             
MTR08610400001000000000000000RA              50480162    005800070000000700000520000003NN  NNW 000                       N    
RDG08610400WATRL000000004K00000000000001686000609112015121805N000300000010U20       000310400K 10000000010000001647           
CUS0861040000108037955005         WENTY BROWN         3715 STONEYBROOK RD                     000N        CARE OF             
MTR08610400001000000000000000RA              40781440    005800080000000800000520000003NN  NNW 000                       N    
RDG08610400WATRL000000004K00000000000003499000709112015121855N000300000010U20       000500400K 10000000010000003432           
CUS0861040000108037956003         BARTZ, FARID        3717 STONEYBROOK RD                     000N        CARE OF             
MTR08610400001000000000000000RA              35119705    005800090000000900000520000003NN  NNW 000                       N    
RDG08610400WATRL000000004K00000000000003742000809112015121949N000300000030U20       000540400K 10000000010000003711           
CUS0861040000108037957001         JOHNSON NATHAN O    3708 SHELLBROOK CT                      000N        CARE OF             
MTR08610400001000000000000000RA              48593263    005800100000001000000520000003NN  NNW 000                       N    
RDG08610400WATRL000000004K00000000000001399011709122015112518N000300000010U20       002340400K 10000000010000001366           
CUS0861040000108037958009         TUCKER KAREN        3706 SHELLBROOK CT                      000N        CARE OF             
MTR08610400001000000000000000RA              41080220    005800110000001100000520000003NN  NNW 000                       N    
RDG08610400WATRL000000004K00000000000001883011809122015112558N000300000020U20       000400400K 10000000010000001865           
CUS0861040000108037959007         VONDA TIMMONS       3704 SHELLBROOK CT                      000N        CARE OF             
MTR08610400001000000000000000RA              25780042    005800120000001200000520000003NN  NNW 000                       N    
RDG08610400WATRL000000004K00000000000006865011909122015112714N000300000020U20       000760400K 10000000010000006830           
CUS0861040000108037960005         HARDY WILLIAM       3702 SHELLBROOK CT                      000N        CARE OF             
MTR08610400001000000000000000RA              46875495    005800130000001300000520000003NN  NNW 000                       N    
RDG08610400WATRL000000004K00000000000003691012009122015112746N000300000030U20       000320400K 10000000010000003589           
CUS0861040000108037961003         WILSON GEORGE C,JR  3700 SHELLBROOK CT                      000N        CARE OF             
MTR08610400001000000000000000RA              52285128    005800140000001400000520000003NN  NNW 000                       N    
RDG08610400WATRL000000004K00000000000000807012109122015112815N000000000000U20       000290400K 10000000010000000797           
CUS0861040000108037962001         INNOVATIVE SERVICES 3701 SHELLBROOK CT                      000N        CARE OF             
MTR08610400001000000000000000RA              44092621    005800150000001500000520000003NN  NNW 000                       N    
RDG08610400WATRL000000004K00000000000001622012209122015112911N000000000000U20       000560400K 10000000010000001610           
CUS0861040000108037963009         INNOVATIVE SERVICES 3703 SHELLBROOK CT                      000N        CARE OF             
MTR08610400001000000000000000RA              24223049    005800160000001600000520000003NN  NNW 000                       N    
RDG08610400WATRL000000004K00000000000003592012309122015112931N000300000010U20       000200400K 10000000010000003513           
CUS0861040000108037964007         JENNINGS KEITH A    3705 SHELLBROOK CT                      000N        CARE OF             
MTR08610400001000000000000000RA              48593267    005800170000001700000520000003NN  NNW 000                       N    
RDG08610400WATRL000000004K00000000000002747012409122015113012N000300000010U20       000410400K 10000000010000002719           
CUS0861040000108037965004         WEBSTER CHARLES     3707 SHELLBROOK CT                      000N        CARE OF             
MTR08610400001000000000000000RA              40049590    005800180000001800000520000003NN  NNW 000                       N    
RDG08610400WATRL000000004K00000000000001508012509122015113044N000000000000U20       000320400K 10000000010000001497           
CUS0861040000108037966002         SCHINDLER LIONEL P  8827 ALLENSWOOD RD                      000N        CARE OF             
MTR08610400001000000000000000RA              14926996    005800190000001900000310000003NN  NNW 000                       N    
RDG08610400WATRL000000004K00000000000000410012609122015113239N000400000020U20       001150400K 10000000010000000402           
CUS0861040000108037967000         FAISON ROBERT L     8825 ALLENSWOOD RD                      000N        CARE OF             
MTR08610400001000000000000000RA              48593271    005800200000002000000520000003NN  NNW 000                       N    
RDG08610400WATRL000000004K00000000000003567012709122015113244N000000000000U20       000050400K 10000000010000003530           
CUS0861040000108037968008         GAMBRILL PAUL,JR    8823 ALLENSWOOD RD                      000N        CARE OF             
MTR08610400001000000000000000RA              48593238    005800210000002100000520000003NN  NNW 000                       N    
RDG08610400WATRL000000004K00000000000001946012809122015113312N000000000000U20       000280400K 10000000010000001909           
CUS0861040000108037969006         COATES MARCEL W     3724 BRENBROOK DR                       000N        CARE OF             
MTR08610400001000000000000000RA              44093086    005800220000002200000520000003NN  NNW 000                       N    
RDG08610400WATRL000000004K00000000000001717000109122015085129N000000000000U20       000000400K 10000000010000001717           
CUS0861040000108037970004         WILLIAM MANSON      3722 BRENBROOK DR                       000N        CARE OF             
MTR08610400001000000000000000RA              32573760    005800230000002300000520000003NN  NNW 000                       N    
RDG08610400WATRL000000004K00000000000001965000209122015085241N000000000000U20       000720400K 10000000010000001961           
CUS0861040000108037971002         RIVENDELL HOMES,INC 3720 BRENBROOK DR                       000N        CARE OF             
MTR08610400001000000000000000RA              46885349    005800240000002400000520000003NN  NNW 000                       N    
RDG08610400WATRL000000004K00000000000002658000309122015085315N000000000000U20       000340400K 10000000010000002638           
CUS0861040000108037972000         CHARLES IDALIA      3718 BRENBROOK DR                       000N        CARE OF             
MTR08610400001000000000000000RA              48590606    005800250000002500000520000003NN  NNW 000                       N    
RDG08610400WATRL000000004K00000000000001908000409122015085401N000000000000U20       000460400K 10000000010000001892           
CUS0861040000108037973008         NAIMAN BARBARA LEE  3716 BRENBROOK DR                       000N        CARE OF             
MTR08610400001000000000000000RA              01073334    005800260000002600000610000003NN  NNW 000                       N    
RDG08610400WATRL000000004K00000000000000513000509122015085436N000000000000U20       000350400K 10000000010000000506           
CUS0861040000108398156003         DOGO-ISONAGIE MATTHI3714 BRENBROOK DR                       000N        CARE OF             
MTR08610400001000000000000000RA              10013115    005800270000002700000570000003NN  NNW 000                       N    
RDG08610400WATRL000000004K00000000000000624000609122015085531N000000000000U20       000550400K 10000000010000000609           
CUS0861040000108385239002         HENSON ROBERT S     3712 BRENBROOK DR                       000N        CARE OF             
MTR08610400001000000000000000RA              35104660    005800280000002800000520000003NN  NNW 000                       N    
RDG08610400WATRL000000004K00000000000004653000709122015085620N000000000000U20       000490400K 10000000010000004639           
CUS0861040000108389170005         GREGORY PORTNOY     3710 BRENBROOK DR                       000N        CARE OF             
MTR08610400001000000000000000RA              78006672    005800290000002900000360000003NN  NNW 000                       N    
RDG08610400WATRL000000004K00000000000000030000809122015085650N000000000000U20       000300400K 10000000010000000013           
CUS0861040000108388960000         GARDNER MARLON L    3708 BRENBROOK DR                       000N        CARE OF             
MTR08610400001000000000000000RA              01095320    005800300000003000000610000003NN  NNW 000                       N    
RDG08610400WATRL000000004K00000000000000853000909122015085654N000000000000U20       000040400K 10000000010000000832           
CUS0861040000108388959002         AGBOH DENNIS K      3706 BRENBROOK DR                       000N        CARE OF             
MTR08610400001000000000000000RA              54350579    005800310000003100000520000003NN  NNW 000                       N    
RDG08610400WATRL000000004K00000000000003073001109122015085934N000400000021U20       000650400K 10000000010000003069           
CUS0861040000108385516003         ASMEROM SEREKE      3704 BRENBROOK DR                       000N        CARE OF             
MTR08610400001000000000000000RA              01095591    005800320000003200000610000003NN  NNW 000                       N    
RDG08610400WATRL000000004K00000000000002950001009122015085802N000000000000U20       000680400K 10000000010000002861           
CUS0861040000108441713008         LOGAN ERIN JOHNSON  3702 BRENBROOK DR                       000N        CARE OF             
MTR08610400001000000000000000RA              14929650    005800330000003300000310000003NN  NNW 000                       N    
RDG08610400WATRL000000004K00000000000000918001309122015090102N000000000000U20       000390400K 10000000010000000875           
CUS0861040000108441733006         KAREN LABOO         3700 BRENBROOK DR                       000N        CARE OF             
MTR08610400001000000000000000RA              10001864    005800340000003400000570000003NN  NNW 000                       N    
RDG08610400WATRL000000004K00000000000000716001209122015090023N000000000000U20       000490400K 10000000010000000696           
CUS0861040000108389173009         BANK IF AMERICA     3707 BRENBROOK DR                       000N        CARE OF             
MTR08610400001000000000000000RA              36690435    005800350000003500000520000003NN  NNW 000                       N    
RDG08610400WATRL000000004K00000000000003719001409122015090129N000000000000U20       000270400K 10000000010000003719           
CUS0861040000108389172001         SMITH GLORIA R      3709 BRENBROOK DR                       000N        CARE OF             
MTR08610400001000000000000000RA              36690437    005800360000003600000520000003NN  NNW 000                       N    
RDG08610400WATRL000000004K00000000000004860001509122015090200N000000000000U20       000310400K 10000000010000004842           
CUS0861040000108389171003         AGYEMAN STEPHEN     3711 BRENBROOK DR                       000N        CARE OF             
MTR08610400001000000000000000RA              45377104    005800370000003700000520000003NN  NNW 000                       N    
RDG08610400WATRL000000004K00000000000003598001609122015090235N000000000000U20       000350400K 10000000010000003554           
CUS0861040000108393852002         HALL CASANDRA RENDLE3715 BRENBROOK DR                       000N        CARE OF             
MTR08610400001000000000000000RA              38984397    005800380000003800000520000003NN  NNW 000                       N    
RDG08610400WATRL000000004K00000000000002614001709122015090346N000000000000U20       000710400K 10000000010000002594           
CUS0861040000108037974006         JACKSON MARVIN L    3717 BRENBROOK DR                       000N        CARE OF             
MTR08610400001000000000000000RA              77889647    005800390000003900000350000003NN  NNW 000                       N    
RDG08610400WATRL000000004K00000000000000140001809122015090431N000000000000U20       000450400K 10000000010000000105           
CUS0861040000108037975003         LAYDEN RICARDO E    3719 BRENBROOK DR                       000N        CARE OF             
MTR08610400001000000000000000RA              45373991    005800400000004000000520000003NN  NNW 000                       N    
RDG08610400WATRL000000004K00000000000001935001909122015090501N000000000000U20       000300400K 10000000010000001928           
CUS0861040000108037976001         GREGORY JAMES       8811 STEPHANIE RD                       000N        CARE OF             
MTR08610400001000000000000000RA              35103983    005800410000004100000520000003NN  NNW 000                       N    
RDG08610400WATRL000000004K00000000000003444002009122015090615N000000000000U20       000740400K 10000000010000003422           
CUS0861040000108037977009         DONNA CHERYL WYATT  8809 STEPHANIE RD                       000N        CARE OF             
MTR08610400001000000000000000RA              48593450    005800420000004200000520000003NN  NNW 000                       N    
RDG08610400WATRL000000004K00000000000001167002109122015090757N000000000010U20       001020400K 10000000010000001151           
CUS0861040000108037978007         HARRIS TAMMY V      8807 STEPHANIE RD                       000N        CARE OF             
MTR08610400001000000000000000RA              01082236    005800430000004300000610000003NN  NNW 000                       N    
RDG08610400WATRL000000004K00000000000002478002209122015090857N000000000000U20       000600400K 10000000010000002464           
CUS0861040000108037979005         WARD LARRY E        8805 STEPHANIE RD                       000N        CARE OF             
MTR08610400001000000000000000RA              52287872    005800440000004400000520000003NN  NNW 000                       N    
RDG08610400WATRL000000004K00000000000003362002309122015090930N000000000000U20       000330400K 10000000010000003321           
CUS0861040000108037980003         BENJAMIN RHONDA M   8803 STEPHANIE RD                       000N        CARE OF             
MTR08610400001000000000000000RA              35108928    005800450000004500000520000003NN  NNW 000                       N    
RDG08610400WATRL000000004K00000000000002491002409122015091014N000000000000U20       000440400K 10000000010000002469           
CUS0861040000108037981001         GREENIDGE ANTHONY F 8802 STEPHANIE RD                       000N        CARE OF             
MTR08610400001000000000000000RA              48593432    005800460000004600000520000003NN  NNW 000                       N    
RDG08610400WATRL000000004K00000000000003418002509122015091055N000000000000U20       000410400K 10000000010000003397           
CUS0861040000108037982009         WEST ERIC D         8804 STEPHANIE RD                       000N        CARE OF             
MTR08610400001000000000000000RA              24760302    005800470000004700000520000003NN  NNW 000                       N    
RDG08610400WATRL000000004K00000000000003760002609122015091141N000000000000U20       000460400K 10000000010000003732           
CUS0861040000108037983007         HOLMAN THEODORE     8806 STEPHANIE RD                       000N        CARE OF             
MTR08610400001000000000000000RA              48582589    005800480000004800000520000003NN  NNW 000                       N    
RDG08610400WATRL000000004K00000000000001693002709122015091227N000000000000U20       000460400K 10000000010000001675           
CUS0861040000108037984005         CREATIVE OPTIONS INC8808 STEPHANIE RD                       000N        CARE OF             
MTR08610400001000000000000000RA              41589298    005800490000004900000520000003NN  NNW 000                       N    
RDG08610400WATRL000000004K00000000000004763002809122015091304N000000000000U20       000370400K 10000000010000004724           
CUS0861040000108037985002         TINH V TRUONG       8810 STEPHANIE RD                       000N        CARE OF             
MTR08610400001000000000000000RA              44179487    005800500000005000000520000003NN  NNW 000                       N    
RDG08610400WATRL000000004K00000000000002967002909122015091354N000000000000U20       000500400K 10000000010000002944           
CUS0861040000108037986000         SESSIONS EVELYN G   8812 STEPHANIE RD                       000N        CARE OF             
MTR08610400001000000000000000RA              10013114    005800510000005100000570000003NN  NNW 000                       N    
RDG08610400WATRL000000004K00000000000000326003009122015091433N000000000000U20       000390400K 10000000010000000304           
CUS0861040000108037987008         HENDERSON YVONNE    8814 STEPHANIE RD                       000N        CARE OF             
MTR08610400001000000000000000RA              41588340    005800520000005200000520000003NN  NNW 000                       N    
RDG08610400WATRL000000004K00000000000002674003109122015091610N000000000000U20       000970400K 10000000010000002666           
CUS0861040000108037988006         YOUMBI ROMAIN       8816 STEPHANIE RD                       000N        CARE OF             
MTR08610400001000000000000000RA              41590552    005800530000005300000520000003NN  NNW 000                       N    
RDG08610400WATRL000000004K00000000000002203003209122015091715N000000000000U20       000650400K 10000000010000002170           
CUS0861040000108037989004         WILLIAMS RODNEY     8817 ALLENSWOOD RD                      000N        CARE OF             
MTR08610400001000000000000000RA              32574129    005800540000005400000520000003NN  NNW 000                       N    
RDG08610400WATRL000000004K00000000000003863003309122015091830N000000000000U20       000750400K 10000000010000003844           
CUS0861040000108037990002         FAIDLEY JUAN L      8815 ALLENSWOOD RD                      000N        CARE OF             
MTR08610400001000000000000000RA              24768154    005800550000005500000520000003NN  NNW 000                       N    
RDG08610400WATRL000000004K00000000000004622003409122015091938N000000000000U20       000680400K 10000000010000004565           
CUS0861040000108037991000         TERRELONGE VENETTA T8813 ALLENSWOOD RD                      000N        CARE OF             
MTR08610400001000000000000000RA              48593374    005800560000005600000520000003NN  NNW 000                       N    
RDG08610400WATRL000000004K00000000000002287003509122015092058N000300000020U20       000800400K 10000000010000002271           
CUS0861040000108037992008         SODEN RONALD MELVIN 8811 ALLENSWOOD RD                      000N        CARE OF             
MTR08610400001000000000000000RA              35118278    005800570000005700000520000003NN  NNW 000                       N    
RDG08610400WATRL000000004K00000000000002722003609122015092301N000000000010U20       001230400K 10000000010000002685           
CUS0861040000108037993006         BAVERMAN DORIS R    8809 ALLENSWOOD RD                      000N        CARE OF             
MTR08610400001000000000000000RA              01104598    005800580000005800000610000003NN  NNW 000                       N    
RDG08610400WATRL000000004K00000000000000521003709122015092338N000300000010U20       000370400K 10000000010000000506           
CUS0861040000108037994004         BEAUZILL LUDGENS H  8807 ALLENSWOOD RD                      000N        CARE OF             
MTR08610400001000000000000000RA              01104537    005800590000005900000610000003NN  NNW 000                       N    
RDG08610400WATRL000000004K00000000000001307003809122015092427N000000000000U20       000490400K 10000000010000001293           
CUS0861040000108037995001         GREGORY P TERRY     8805 ALLENSWOOD RD                      000N        CARE OF             
MTR08610400001000000000000000RA              27833009    005800600000006000000520000003NN  NNW 000                       N    
RDG08610400WATRL000000004K00000000000002878003909122015092501N000000000000U20       000340400K 10000000010000002856           
CUS0861040000108037996009         COPELAND JOHN       8803 ALLENSWOOD RD                      000N        CARE OF             
MTR08610400001000000000000000RA              48590338    005800610000006100000520000003NN  NNW 000                       N    
RDG08610400WATRL000000004K00000000000002614004009122015092545N000000000010U20       000440400K 10000000010000002585           
CUS0861040000108037997007         RUTH E STRINGFELLOW 3738 SPRINGDELL AVE                     000N        CARE OF             
MTR08610400001000000000000000RA              46882141    005800620000006200000520000003NN  NNW 000                       N    
RDG08610400WATRL000000004K00000000000002302004109122015092653N000300000010U20       000680400K 10000000010000002268           
CUS0861040000108037998005         BRIGGS DONYELL M    3736 SPRINGDELL AVE                     000N        CARE OF             
MTR08610400001000000000000000RA              14903984    005800630000006300000310000003NN  NNW 000                       N    
RDG08610400WATRL000000004K00000000000000739004209122015092737N000000000000U20       000440400K 10000000010000000714           
CUS0861040000108037999003         NICOLE MCCLAIN      3735 SPRINGDELL AVE                     000N        CARE OF             
MTR08610400001000000000000000RA              01073361    005800640000006400000610000003NN  NNW 000                       N    
RDG08610400WATRL000000004K00000000000001704004309122015092902N000000000000U20       000850400K 10000000010000001690           
CUS0861040000108038000009         PATRICK COHILL      3737 SPRINGDELL AVE                     000N        CARE OF             
MTR08610400001000000000000000RA              48592850    005800650000006500000520000003NN  NNW 000                       N    
RDG08610400WATRL000000004K00000000000003108004409122015092947N000300000010U20       000450400K 10000000010000003044           
CUS0861040000108038001007         MCNEIL CYNTHIA B    3739 SPRINGDELL RD                      000N        CARE OF             
MTR08610400001000000000000000RA              48592908    005800660000006600000520000003NN  NNW 000                       N    
RDG08610400WATRL000000004K00000000000001750004509122015093104N000000000000U20       000770400K 10000000010000001736           
CUS0861040000108038002005         KING JAMES          8717 ALLENSWOOD RD                      000N        CARE OF             
MTR08610400001000000000000000RA              50481298    005800670000006700000520000003NN  NNW 000                       N    
RDG08610400WATRL000000004K00000000000003041004609122015093218N000000000010U20       000740400K 10000000010000003011           
CUS0861040000108038003003         PAYLOR NICOLA D     3708 JULIAN CT                          000N        CARE OF             
MTR08610400001000000000000000RA              48584312    005800680000006800000520000003NN  NNW 000                       N    
RDG08610400WATRL000000004K00000000000000992004709122015093234N000000000000U20       000160400K 10000000010000000973           
CUS0861040000108038004001         JETER MICHAEL A     3706 JULIAN CT                          000N        CARE OF             
MTR08610400001000000000000000RA              50480012    005800690000006900000520000003NN  NNW 000                       N    
RDG08610400WATRL000000004K00000000000002164004809122015093306N000000000000U20       000320400K 10000000010000002142           
CUS0861040000108038005008         SCHNEIDER MARTHA D  3704 JULIAN CT                          000N        CARE OF             
MTR08610400001000000000000000RA              50787506    005800700000007000000520000003NN  NNW 000                       N    
RDG08610400WATRL000000004K00000000000001098004909122015093414N000000000000U20       000680400K 10000000010000001093           
CUS0861040000108038006006         MCGHEE IVY HALL     3702 JULIAN CT                          000N        CARE OF             
MTR08610400001000000000000000RA              42808425    005800710000007100000520000003NN  NNW 000                       N    
RDG08610400WATRL000000004K00000000000003630005009122015093454N000300000010U20       000400400K 10000000010000003613           
CUS0861040000108038007004         NELSON KYLE         3700 JULIAN CT                          000N        CARE OF             
MTR08610400001000000000000000RA              23644627    005800720000007200000520000003NN  NNW 000                       N    
RDG08610400WATRL000000004K00000000000006747005109122015093605N000000000020U20       000710400K 10000000010000006741           
CUS0861040000108038008002         THOMAS GEORGE E     3701 JULIAN CT                          000N        CARE OF             
MTR08610400001000000000000000RA              48592909    005800730000007300000520000003NN  NNW 000                       N    
RDG08610400WATRL000000004K00000000000000796005309122015093731N000300000050U20       000660400K 10000000010000000771           
CUS0861040000108038009000         JENKINS DEBORAH L   3703 JULIAN CT                          000N        CARE OF             
MTR08610400001000000000000000RA              23644646    005800740000007400000520000003NN  NNW 000                       N    
RDG08610400WATRL000000004K00000000000005423005209122015093625N000000000000U20       000200400K 10000000010000005413           
CUS0861040000108038010008         BANKS NATHANIEL C   3705 JULIAN CT                          000N        CARE OF             
MTR08610400001000000000000000RA              50787402    005800750000007500000520000003NN  NNW 000                       N    
RDG08610400WATRL000000004K00000000000001798005409122015093738N000000000000U20       000070400K 10000000010000001780           
CUS0861040000108038011006         WILLOUGHBY DAVID,SR 3707 JULIAN CT                          000N        CARE OF             
MTR08610400001000000000000000RA              01104735    005800760000007600000610000003NN  NNW 000                       N    
RDG08610400WATRL000000004K00000000000000714005509122015093846N000300000010U20       000680400K 10000000010000000678           
CUS0861040000108038012004         LEWIS AMY C DANCE   8713 ALLENSWOOD RD                      000N        CARE OF             
MTR08610400001000000000000000RA              76346501    005800770000007700000350000003NN  NNW 000                       N    
RDG08610400WATRL000000004K00000000000000068005609122015094019N000000000010U20       000930400K 10000000010000000058           
CUS0861040000108038013002         MAYER ZIMMERMAN     8711 ALLENSWOOD RD                      000N        CARE OF             
MTR08610400001000000000000000RA              46884594    005800780000007800000520000003NN  NNW 000                       N    
RDG08610400WATRL000000004K00000000000001728005709122015094124N000000000000U20       000650400K 10000000010000001710           
CUS0861040000108038014000         SMITH JEFFREY M, SR 8709 ALLENSWOOD RD                      000N        CARE OF             
MTR08610400001000000000000000RA              50787398    005800790000007900000520000003NN  NNW 000                       N    
RDG08610400WATRL000000004K00000000000002265005809122015094152N000000000000U20       000280400K 10000000010000002244           
CUS0861040000108038015007         MAULTSBY MICHAEL D  8707 ALLENSWOOD RD                      000N        CARE OF             
MTR08610400001000000000000000RA              48592136    005800800000008000000520000003NN  NNW 000                       N    
RDG08610400WATRL000000004K00000000000001339005909122015094409N000000000000U20       001370400K 10000000010000001324           
CUS0861040000108038016005         ARRINGTON MARY      8705 ALLENSWOOD RD                      000N        CARE OF             
MTR08610400001000000000000000RA              48582603    005800810000008100000520000003NN  NNW 000                       N    
RDG08610400WATRL000000004K00000000000002244006009122015094435N000300000010U20       000260400K 10000000010000002216           
CUS0861040000108038017003         VALERIE PETTY       8703 ALLENSWOOD RD                      000N        CARE OF             
MTR08610400001000000000000000RA              50480232    005800820000008200000520000003NN  NNW 000                       N    
RDG08610400WATRL000000004K00000000000001610006109122015094514N000000000000U20       000390400K 10000000010000001602           
CUS0861040000108038018001         WILKINS VELERIA L   8701 ALLENSWOOD RD                      000N        CARE OF             
MTR08610400001000000000000000RA              50787511    005800830000008300000520000003NN  NNW 000                       N    
RDG08610400WATRL000000004K00000000000001402006209122015094602N000000000000U20       000480400K 10000000010000001390           
CUS0861040000108038019009         YANKELOV LOUIS S    8649 ALLENSWOOD RD                      000N        CARE OF             
MTR08610400001000000000000000RA              50787403    005800840000008400000520000003NN  NNW 000                       N    
RDG08610400WATRL000000004K00000000000001072006309122015094644N000300000020U20       000420400K 10000000010000001075           
CUS0861040000108038020007         BRADY TREVEA        8646 ALLENSWOOD RD                      000N        CARE OF             
MTR08610400001000000000000000RA              14901380    005800850000008500000310000003NN  NNW 000                       N    
RDG08610400WATRL000000004K00000000000000905006409122015094737N000000000000U20       000530400K 10000000010000000868           
CUS0861040000108038021005         LEONARD JOHN W,JR   8648 ALLENSWOOD RD                      000N        CARE OF             
MTR08610400001000000000000000RA              48585554    005800860000008600000520000003NN  NNW 000                       N    
RDG08610400WATRL000000004K00000000000001694006509122015094832N000000000000U20       000550400K 10000000010000001689           
CUS0861040000108038022003         JERRY DIXON SR.     8650 ALLENSWOOD RD                      000N        CARE OF             
MTR08610400001000000000000000RA              50787510    005800870000008700000520000003NN  NNW 000                       N    
RDG08610400WATRL000000004K00000000000001948006609122015094916N000000000000U20       000440400K 10000000010000001925           
CUS0861040000108038023001         OMAR BILAL B        8700 ALLENSWOOD RD                      000N        CARE OF             
MTR08610400001000000000000000RA              50787508    005800880000008800000520000003NN  NNW 000                       N    
RDG08610400WATRL000000004K00000000000001369006709122015095003N000300000010U20       000470400K 10000000010000001355           
CUS0861040000108038024009         NELSON MELVIN       8702 ALLENSWOOD RD                      000N        CARE OF             
MTR08610400001000000000000000RA              36687928    005800890000008900000520000003NN  NNW 000                       N    
RDG08610400WATRL000000004K00000000000001969006809122015095047N000300000010U20       000440400K 10000000010000001955           
CUS0861040000108038025006         SKINNER AMANI       8704 ALLENSWOOD RD                      000N        CARE OF             
MTR08610400001000000000000000RA              50787509    005800900000009000000520000003NN  NNW 000                       N    
RDG08610400WATRL000000004K00000000000001557006909122015095119N000000000000U20       000320400K 10000000010000001546           
CUS0861040000108038026004         FAIR DONALD E       8706 ALLENSWOOD RD                      000N        CARE OF             
MTR08610400001000000000000000RA              9686174     005800910000009100000570000003NN  NNW 000                       N    
RDG08610400WATRL000000004K00000000000005749007009122015095150N000000000000U20       000310400K 10000000010000005749           
CUS0861040000108038027002         KARYES J THOMAS     8708 ALLENSWOOD RD                      000N        CARE OF             
MTR08610400001000000000000000RA              50787507    005800920000009200000520000003NN  NNW 000                       N    
RDG08610400WATRL000000004K00000000000001443007109122015095237N000000000000U20       000470400K 10000000010000001431           
CUS0861040000108038028000         MINOR JOSEPH L      8710 ALLENSWOOD RD                      000N        CARE OF             
MTR08610400001000000000000000RA              50787401    005800930000009300000520000003NN  NNW 000                       N    
RDG08610400WATRL000000004K00000000000001489007209122015095326N000300000010U20       000490400K 10000000010000001458           
CUS0861040000108038029008         IGO C MANUEL        8712 ALLENSWOOD RD                      000N        CARE OF             
MTR08610400001000000000000000RA              50787399    005800940000009400000520000003NN  NNW 000                       N    
