FHDNNNN019002409002409002479N                                                                                           009021
RHD09001000NN01070107000001070000000000950095000029NY009500950107001100160000000000000000000001    08312015NY020000 N         
CUS0900100000109255549009         MAYOR & CITY COUNCIL601 N CENTRAL AVE                       000N        CARE OF             
MTR09001000001000000000000000RA              36696478    005800010000000100000520000003NN  NNW 000   INVALID DAC         N    
RDG09001000WATRL000000004K00000000000000000000109162015114438S022000000000N93       000000400K 10000000010000000000           
CUS0900100000109255550007         HSG AUTH OF BALTO CINEC CENTRAL AV &                        000N        CARE OF             
MTR09001000001000000000000000RA              01092641    005800020000000200000610000003NN  NNW 000                       N    
RDG09001000WATRL000000004K00000000000000000000209162015114443S005000000000U93       000050400K 10000000010000000135           
CUS0900100000109412225006         MASS TRANSIT ADM    18 N EDEN ST                            000N        CARE OF             
MTR09001000001000000000000000RA              8030501     000600030000000300000380000003NN  NNW 000   FIRE SERVICE        N    
RDG09001000WATRL000000006K00000000000000171000309162015114448N000000000000N93       000050600K 10000000010000000171           
CUS0900100000109412227002         MASS TRANSIT ADMIN  18 N EDEN ST                            000N        CARE OF             
MTR09001000001000000000000000RA              01092794    005800040000000400000610000003NN  NNW 000                       N    
RDG09001000WATRL000000004K00000000000000000000409162015114457N000000000000N93       000090400K 10000000010000000000           
CUS0900100000109255552003         HERMAN L. ROSSMARK R1310-1318 E BALTIMORE ST                000N        CARE OF             
MTR09001000001000000000000000RA              39583507    005800050000000500000520000003NN  NNW 000   VACANT PROPERTY     N    
RDG09001000WATRL000000004K00000000000000000000509162015114506S022000000000N93       000090400K 10000000010000000000           
CUS0900100000109414159005         WASHINGTON SQUARE CO1400 E BALTIMORE ST                     000N        CARE OF             
MTR09001000001000000000000000RA              35116821    000200060000000600000520000003NN  NNW 000                       N    
RDG09001000WATRL000000005K00000000000010043000609162015114519N000000000000N93       000130500K 10000000010000009944           
CUS0900100000109414158007         WASHINGTON SQUARE CO1416 E BALTIMORE ST                     000N        CARE OF             
MTR09001000001000000000000000RA              35116869    000200070000000700000520000003NN  NNW 000                       N    
RDG09001000WATRL000000005K00000000000008968000709162015114603N000000000000N93       000440500K 10000000010000008910           
CUS0900100000109255555006         ALLY CAT, LLC       1323 E LOMBARD ST                       000N        CARE OF             
MTR09001000001000000000000000RA              29684366    005800080000000800000520000003NN  NNW 000                       N    
RDG09001000WATRL000000004K00000000000000000000809162015114612S022000000000N93       000090400K 10000000010000000000           
CUS0900100000109435661005         1730 BANK ST LLC    1732 BANK ST                            000N        CARE OF             
MTR09001000001000000000000000RA              01117187    000200090000000900000610000000NN  NNW 000                       N    
RDG09001000WATRL000000005K00000000000001161000909162015114619N000000000010N93       000070500K 10000000010000001159           
CUS0900100000109257374000         HOUSING AUTHORITY   1500 BANK ST                            000N        CARE OF             
MTR09001000001000000000000000RA              7126244     000300100000001000000640000003NN  NNW 000                       N    
RDG09001000WATRL000000005K00000000000069871001009162015114642N000300000010N93       000230500K 10000000010000066642           
CUS0900100000109257373002         HOUSING AUTHORITY   1400 BANK ST                            000N        CARE OF             
MTR09001000001000000000000000RA              1365776     000300110000001100000490000003NN  NNW 000                       N    
RDG09001000WATRL000000005K00000000000065551001109162015114656N000400000010N93       000140500K 10000000010000065329           
CUS0900100000109257372004         HOUSING AUTHORITY   1401 E PRATT ST                         000N        CARE OF             
MTR09001000001000000000000000RA              9103175     000300120000001200000640000003NN  NNW 000                       N    
RDG09001000WATRL000000005K00000000000014413001209162015114701N000000000000N93       000050500K 10000000010000013883           
CUS0900100000109257371006         HABC                1401 E PRATT ST                         000N        CARE OF             
MTR09001000001000000000000000RA              9310115     000400130000001300000640000003NN  NNW 000                       N    
RDG09001000WATRL000000006K00000000000043284001309162015114715N000000000000N93       000140600K 10000000010000037994           
CUS0900100000109257370008         HOUSING AUTHORITY   1501 E PRATT ST                         000N        CARE OF             
MTR09001000001000000000000000RA              9108027     000300140000001400000640000003NY  NNW 000                       N    
MTM090010009108027     ok                                                                                                     
RDG09001000WATRL000000005K00000000000093786001409162015114846N000300000010N93       000910500K 10000000010000102661           
CUS0900100000109257369000         HOUSING AUTHORITY   1501 E PRATT ST                         000N        CARE OF             
MTR09001000001000000000000000RA              9216230     000400150000001500000640000003NN  NNW 000                       N    
RDG09001000WATRL000000006K00000000000086490001509162015114859N000000000000N93       000130600K 10000000010000079873           
CUS0900100000109257368002         HABC                1601 E PRATT ST                         000N        CARE OF             
MTR09001000001000000000000000RA              7157164     000400160000001600000640000003NN  NNW 000                       N    
RDG09001000WATRL000000006K00000000000021804001609162015114908N000000000000N93       000090600K 10000000010000020538           
CUS0900100000109257367004         HOUSING AUTHORITY   1601 E PRATT ST                         000N        CARE OF             
MTR09001000001000000000000000RA              1197227     000400170000001700000490000003NN  NNW 000                       N    
RDG09001000WATRL000000006K00000000000000000001709162015114924S005000000000U93       000160600K 10000000010000047884           
CUS0900100000109257376005         HABC                1401 E PRATT ST                         000N        CARE OF             
MTR09001000001000000000000000RA              1199144     000300180000001800000490000003NN  NNW 000                       N    
RDG09001000WATRL000000005K00000000000000000001809162015114928N000000000000N93       000040500K 10000000010000000000           
CUS0900100000109257375007         HOUSING AUTHORITY   1501 E PRATT ST                         000N        CARE OF             
MTR09001000001000000000000000RA              1150675     000300190000001900000490000003NN  NNW 000                       N    
RDG09001000WATRL000000005K00000000000053545001909162015114933N000000000000N93       000050500K 10000000010000053545           
CUS0900100000109257377003         HOUSING AUTHORITY   1601 E PRATT ST                         000N        CARE OF             
MTR09001000001000000000000000RA              9102691     000300200000002000000640000003NN  NNW 000                       N    
RDG09001000WATRL000000005K00000000000026008002009162015114943N000000000010N93       000100500K 10000000010000026006           
CUS0900100000109257378001         HABC                1415 ORLEANS ST                         000N        CARE OF             
MTR09001000002000000000000000RA              06102501    000300210000002100000460000003NN  NNW 000                       N    
RDG09001000WATAL000000005K00000000000015679002109162015114955N000100000010N93       000120500K 10000000010000015679           
RDG09001000WATBL000000005K00000000000004644002209162015115003N000100000010N93       000080500K 10000000010000004644           
CUS0900100000109257379009         HABC                1501 ORLEANS ST                         000N        CARE OF             
MTR09001000001000000000000000RA              1218837     000300220000002200000490000003NN  NNW 000                       N    
RDG09001000WATRL000000005K00000000000000999002309162015115013N000300000010N93       000100500K 10000000010000001599           
CUS0900100000109430574005         PRESSLEY RIDGE, INC 25 N CAROLINE ST                        000N        CARE OF             
MTR09001000001000000000000000RA              8045165     000600230000002300000380000000NN  NNW 000   FIRE SERVICE        N    
RDG09001000WATRL000000006K00000000000000002002409162015115018N000000000000N93       000050600K 10000000010000000002           
CUS0900100000109430575002         PRESSLEY RIDGE, INC 25 N CAROLINE ST                        000N        CARE OF             
MTR09001000001000000000000000RA              99170732    000200240000002400000570000000NN  NNW 000                       N    
RDG09001000WATRL000000005K00000000000001965002509162015115024N000000000000N93       000060500K 10000000010000001953           
CUS0900100000109257382003         HOUSING AUTHORITY   1501 ORLEANS ST                         000N        CARE OF             
MTR09001000001000000000000000RA              1170574     000300250000002500000490000003NN  NNW 000                       N    
RDG09001000WATRL000000005K00000000000089824002609162015115047N000100000010N93       000230500K 10000000010000089824           
CUS0900100000109436062005         BROADWAY OVERLOOK   1501 E FAYETTE ST                       000N        CARE OF             
MTR09001000001000000000000000RA              8048252     000400260000002600000380000003NN  NNW 000   FIRE SERVICE        N    
RDG09001000WATRL000000006K00000000000000000000000000000000000 000000000000U         000000600  10000000010000000000           
CUS0900100000109436064001         WINN RESIDENTIAL    1501 E FAYETTE ST                       000N        CARE OF             
MTR09001000002000000000000000RA              70225923    000300270000002700000470000003NY  NNW 000                       N    
MTM0900100070225923    no holes                                                                                               
RDG09001000WATAL000000005K00000000000000000000000000000000000 000000000000U         000000500  10000000010000003133           
RDG09001000WATBL000000005K00000000000000000000000000000000000 000000000000U         000000500  10000000010000000176           
CUS0900100000109257383001         HABC                1600-48 E FAYETTE ST                    000N        CARE OF             
MTR09001000001000000000000000RA              1170575     000300280000002800000490000000NN  NNW 000                       N    
RDG09001000WATRL000000005K00000000000082139002709162015115357N000300000010N93       001900500K 10000000010000102241           
CUS0900100000109257381005         HOUSING AUTHORITY   1600-48 E FAYETTE ST                    000N        CARE OF             
MTR09001000001000000000000000RA              1276278     000300290000002900000490000003NN  NNW 000                       N    
RDG09001000WATRL000000005K00000000000007914002809162015115403N000000000000N93       000060500K 10000000010000007914           
CUS0900100000109419013009         BUREAU OF PARKS     7 AISQUITH ST                           000N        CARE OF             
MTR09001000001000000000000000RA              00066657    000200300000003000000570000003NN  NNW 000                       N    
RDG09001000WATRL000000005K00000000000000375002909162015115421N000000000000N93       000180500K 10000000010000000370           
CUS0900100000109421938003         HABC                200 AISQUITH ST                         000N        CARE OF             
MTR09001000001000000000000000RA              8036182     000800310000003100000380000003NN  NNW 000   CITY FIRE SERV      N    
RDG09001000WATRL000000006K00000000000000020003009162015115426N000000000000N93       000050600K 10000000010000000020           
CUS0900100000109421940009         HABC                200 AISQUITH ST                         000N        CARE OF             
MTR09001000002000000000000000RA              40000017    000400320000003200000460000003NN  NNW 000                       N    
RDG09001000WATAL000000006K00000000000000296003109162015115439N000300000010N93       000130600K 10000000010000001145           
RDG09001000WATBL000000006K00000000000005680003209162015115454N000300000010N93       000150600K 10000000010000060653           
CUS0900100000109421968000         HABC                200 AISQUITH ST                         000N        CARE OF             
MTR09001000001000000000000000RA              8041446     000600330000003300000380000003NN  NNW 000   CITY FIRE SERV      N    
RDG09001000WATRL000000006K00000000000000000003309162015115516N000000000000N93       000220600K 10000000010000000000           
CUS0900100000109421970006         VICKIE N COLEMAN    200 AISQUITH ST                         000N        CARE OF             
MTR09001000001000000000000000RA              51476557    001500340000003400000520000003NN  NNW 000                       N    
RDG09001000WATRL000000005K00000000000003031003409162015115521N000000000000N93       000050500K 10000000010000003015           
CUS0900100000109421745002         HABC                200 AISQUITH ST                         000N        CARE OF             
MTR09001000002000000000000000RA              9610314     000800350000003500000410000003NN  NNW 000                       N    
RDG09001000WATAL000000006K00000000000000232003509162015115528N000400000010N93       000070600K 10000000010000000227           
RDG09001000WATBL000000006K00000000000035733003609162015115538N000400000010N93       000100600K 10000000010000031477           
CUS0900100000109422051004         HABC                200 AISQUITH ST                         000N        CARE OF             
MTR09001000002000000000000000RA              40000013    000400360000003600000460000003NN  NNW 000                       N    
RDG09001000WATAL000000006K00000000000099998003709162015115548N000300000010N93       000100600K 10000000010000000000           
RDG09001000WATBL000000006K00000000000006762003809162015115557N000400000010N93       000090600K 10000000010000006696           
CUS0900100000109257387002         HOUSING AUTHORITY   500 N CENTRAL AVE                       000N        CARE OF             
MTR09001000001000000000000000RA              1197248     000400370000003700000490000003NN  NNW 000                       N    
RDG09001000WATRL000000006K00000000000000000003909162015115607S022000000000N93       000100600K 10000000010000002767           
CUS0900100000109257388000         HOUSING AUTHORITY   500 N CENTRAL AVE                       000N        CARE OF             
MTR09001000001000000000000000RA              99999999    000400380000003800000620000003NN  NNW 000                       N    
RDG09001000WATRL000000006K00000000000000000004009162015115610S022000000000N93       000030600K 10000000010000000000           
CUS0900100000109257399007         HOUSING AUTHORITY   1000-1100 E MADISON ST                  000N        CARE OF             
MTR09001000001000000000000000RA              1115677     000300390000003900000490000003NY  NNW 000                       N    
MTM090010001115677     ok                                                                                                     
RDG09001000WATRL000000005K00000000000061850004109162015115624N000000000010N93       000140500K 10000000010000061860           
CUS0900100000109257398009         HOUSING AUTHORITY   1000-1100 E MADISON ST                  000N        CARE OF             
MTR09001000001000000000000000RA              1215548     000300400000004000000490000003NN  NNW 000                       N    
RDG09001000WATRL000000005K00000000000007814004209162015115648N000300000010N93       000240500K 10000000010000085830           
CUS0900100000109257400003         HOUSING AUTHORITY   800-900 E MADISON ST                    000N        CARE OF             
MTR09001000001000000000000000RA              1115671     000300410000004100000490000003NN  NNW 000                       N    
RDG09001000WATRL000000005K00000000000042749004309162015115703N000000000000N93       000150500K 10000000010000036563           
CUS0900100000109257397001         HOUSING AUTHORITY   800-900 E MADISON ST                    000N        CARE OF             
MTR09001000001000000000000000RA              1150408     000300420000004200000490000003NN  NNW 000                       N    
RDG09001000WATRL000000005K00000000000009085004409162015115710N000000000000N93       000070500K 10000000010000009085           
CUS0900100000109257393000         HABC                709-11 E EAGER ST                       000N        CARE OF             
MTR09001000001000000000000000RA              01105399    001500430000004300000610000003NN  NNW 000                       N    
RDG09001000WATRL000000005K00000000000004149004509162015115715N000000000000N93       000050500K 10000000010000004149           
CUS0900100000109424263003         HOUSING AUTHORITY   709 E EAGER ST                          000N        CARE OF             
MTR09001000001000000000000000RA              8040524     000400440000004400000380000000NN  NNW 000   CITY FIRE SERV      N    
RDG09001000WATRL000000006K00000000000000001004609162015115720N000000000000N93       000050600K 10000000010000000001           
CUS0900100000109424265008         CATHOLIC CHARITIES  709 E EAGER ST                          000N        CARE OF             
MTR09001000001000000000000000RA              99168627    001500450000004500000570000000NN  NNW 000                       N    
RDG09001000WATRL000000005K00000000000000062004709162015115723N000000000000N93       000030500K 10000000010000000053           
CUS0900100000109255557002         HABC                NS PRATT ST AT EDEN ST                  000N        CARE OF             
MTR09001000001000000000000000RA              99293603    005800460000004600000570000003NN  NNW 000                       N    
RDG09001000WATRL000000004K00000000000000000004809162015115729S005000000000U93       000060400K 10000000010000000000           
CUS0900100000109228252004         GENERAL SERVICES ADM120 W LOMBARD ST                        000N        CARE OF             
MTR09001000002000000000000000RA              4313703     000800470000004700000540000003NY  NNW 000                       N    
MTM090010004313703     reader dead battery                                                                                    
RDG09001000WATAL000000006K00000000000000026004909162015115747N000300000010U93       000180600K 10000000010000025960           
RDG09001000WATBL000000006K00000000000000000000000000000000000 000000000000U         000000600  10000000010000008835           
CUS0900100000109380153008         DAYS INN INNER HARBO100 HOPKINS PL                          000N        CARE OF             
MTR09001000001000000000000000RA              1362068     000300480000004800000490000003NN  NNW 000                       N    
RDG09001000WATRL000000005K00000000000087650005009162015115954N000000000000N93       001270500K 10000000010000084570           
CUS0900100000109380158007         DAYS INN INNER HARBO100 HOPKINS PL                          000N        CARE OF             
MTR09001000001000000000000000RA              6029426     000800490000004900000410000003NN  NNW 000   FIRE SERVICE        N    
RDG09001000WATRL000000006K00000000000000000005109162015120007S005000000000U93       000130600K 10000000010000000275           
CUS0900100000109228247004         GENERAL SERVICES ADM100 S HANOVER ST                        000N        CARE OF             
MTR09001000001000000000000000RA              8036292     000800500000005000000380000003NN  NNW 000   FIRE SERVICE        N    
RDG09001000WATRL000000006K00000000000000469005209162015120014N000000000000N93       000070600K 10000000010000000468           
CUS0900100000109228248002         GENERAL SERVICES ADM100 S HANOVER ST                        000N        CARE OF             
MTR09001000001000000000000000RA              1421750     000600510000005100000490000003NY  NNW 000                       N    
MTM090010001421750     reader dead battery                                                                                    
RDG09001000WATRL000000006K00000000000000000000000000000000000 000000000000U         000000600  10000000010000001310           
CUS0900100000109395033005         A S K ASSOC         200-02 W PRATT ST                       000N        CARE OF             
MTR09001000001000000000000000RA              E22143      000400520000005200000430000003NN  NNW 000   FIRE SERVICE        N    
RDG09001000WATRL000000006K00000000000000000005309162015120121N000000000000N93       000670600K 10000000010000000000           
CUS0900100000109395035000         ASK ASSOCIATES LLP  200-02 W PRATT ST                       000N        CARE OF             
MTR09001000001000000000000000RA              01116934    000200530000005300000610000003NN  NNW 000                       N    
RDG09001000WATRL000000005K00000000000016717005409162015120125N000000000000N93       000040500K 10000000010000015549           
CUS0900100000109357557009         OLIVER, H WILLIAM   204-08 W PRATT ST                       000N        CARE OF             
MTR09001000001000000000000000RA              01116871    000200540000005400000610000003NN  NNW 000                       N    
RDG09001000WATRL000000005K00000000000015969005509162015120130N000000000000N93       000050500K 10000000010000015140           
CUS0900100000109357556001         OLIVER, H WILLIAM   204-08 W PRATT ST                       000N        CARE OF             
MTR09001000001000000000000000RA              E22882      000400550000005500000430000003NN  NNW 000   FIRE SERVICE        N    
RDG09001000WATRL000000006K00000000000000000005609162015120134N000000000000N93       000040600K 10000000010000000000           
CUS0900100000109349217001         DEPT REC & PARKS    101 W LOMBARD ST                        000N        CARE OF             
MTR09001000001000000000000000RA              29067433    000200560000005600000520000003NY  NNW 000                       N    
MTM0900100029067433    ok                                                                                                     
RDG09001000WATRL000000005K00000000000008420005709162015120150N000300000010N93       000160500K 10000000010000006913           
CUS0900100000109256260002         OHIB HOTEL LLC      301 W LOMBARD ST                        000N        CARE OF             
MTR09001000002000000000000000RA              5603815     000600570000005700000540000003NY  NNW 000                       N    
MTM090010005603815     ert                                                                                                    
RDG09001000WATAL000000006K00000000000000037005809162015120214N000300000010U93       000240600K 10000000010000000048           
RDG09001000WATBL000000006K00000000000000000000000000000000000 000000000000U         000000600  10000000010000065048           
CUS0900100000109388277007         250 CHARM CITY, LLC 250 W PRATT ST                          000N        CARE OF             
MTR09001000001000000000000000RA              06102506    000400580000005800000460000003NN  NNW 000   FIRE SERVICE        N    
RDG09001000WATRL000000006K00000000000009999005909162015120250N000000000000N93       000360600K 10000000010000009999           
CUS0900100000109388279003         250 CHARM CITY, LLC 250 W PRATT ST                          000N        CARE OF             
MTR09001000002000000000000000RA              06102506    000400590000005900000460000003NN  NNW 000                       N    
RDG09001000WATAL000000006K00000000000026699006009162015120259N000000000000N93       000090600K 10000000010000024390           
RDG09001000WATBL000000006K00000000000006001006109162015120307N000400000010N93       000080600K 10000000010000005219           
CUS0900100000109397845000         NORTHSTAR BALTIMORE 22-24 S HOWARD ST                       000N        CARE OF             
MTR09001000001000000000000000RA              E21151      000600600000006000000430000003NN  NNW 000   FIRE SERVICE        N    
RDG09001000WATRL000000006K00000000000000000006209162015120334S005000000000U93       000270600K 10000000010000000007           
CUS0900100000109411157002         CITY CRESCENT LLC   10 S HOWARD ST                          000N        CARE OF             
MTR09001000001000000000000000RA              8033015     000800610000006100000380000000NN  NNW 000   FIRE SERVICE        N    
RDG09001000WATRL000000006K00000000000000000006309162015120340N000000000000N93       000060600K 10000000010000000000           
CUS0900100000109411159008         CITY CRESCENT LLC   10 S HOWARD ST                          000N        CARE OF             
MTR09001000001000000000000000RA              1362930     000300620000006200000490000003NN  NNW 000                       N    
RDG09001000WATRL000000005K00000000000056012006409162015120347N000300000010N93       000070500K 10000000010000053268           
CUS0900100000109434928009         FTP CENTERPOINT LP  20 N HOWARD ST                          000N        CARE OF             
MTR09001000002000000000000000RA              01025951    000600630000006300000460000000NN  NNW 000                       N    
RDG09001000WATAL000000006K00000000000000000006509162015120403S022000000000N93       000160600K 10000000010000000018           
RDG09001000WATBL000000006K00000000000014871006609162015120421N000400000010N93       000180600K 10000000010000014433           
CUS0900100000109434927001         FTP CENTERPOINT LP  326 W BALTIMORE ST                      000N        CARE OF             
MTR09001000001000000000000000RA              0908804     000400640000006400000630000003NN  NNW 000                       N    
RDG09001000WATRL000000006K00000000000025643006709162015120432N000000000000N93       000110600K 10000000010000024268           
CUS0900100000109256267007         CIVIC CENTER        201-27 W BALTIMORE ST                   000N        CARE OF             
MTR09001000001000000000000000RA              3979326     000600650000006500000410000003NN  NNW 000   CITY FIRE SERV      N    
RDG09001000WATRL000000006K00000000000000000006809162015120522S005000000000U93       000500600K 10000000010000047503           
CUS0900100000109256268005         CIVIC CENTER        201-27 W BALTIMORE ST                   000N        CARE OF             
MTR09001000001000000000000000RA              1154031     000400660000006600000490000003NY  NNW 000                       N    
MTM090010001154031     ok                                                                                                     
RDG09001000WATRL000000006K00000000000001502006909162015120547N000300000010N93       000250600K 10000000010000001523           
CUS0900100000109256269003         CIVIC CENTER        201-27 W BALTIMORE ST                   000N        CARE OF             
MTR09001000001000000000000000RA              4049540     000600670000006700000410000003NN  NNW 000   CITY FIRE SERV      N    
RDG09001000WATRL000000006K00000000000000000007009162015120558S005000000000U93       000110600K 10000000010000000045           
CUS0900100000109256270001         CIVIC CENTER        201-27 W BALTIMORE ST                   000N        CARE OF             
MTR09001000001000000000000000RA              1153320     000400680000006800000490000003NY  NNW 000                       N    
MTM090010001153320     reader battery dead                                                                                    
RDG09001000WATRL000000006K00000000000000000000000000000000000 000000000000U         000000600  10000000010000012721           
CUS0900100000108442445006         FAUST BROTHERS L.L.C307-09 W BALTIMORE ST                   000N        CARE OF             
MTR09001000001000000000000000RA              01117065    000200690000006900000610000003NY  NNW 000                       N    
MTM0900100001117065    no access                                                                                              
RDG09001000WATRL000000005K00000000000000000000000000000000000 000000000000U         000000500  10000000010000001622           
CUS0900100000109396877004         BUREAU OF REC & PARK201 W PRATT ST                          000N        CARE OF             
MTR09001000001000000000000000RA              00066792    001500700000007000000570000000NY  NNW 000                       N    
MTM0900100000066792    Cant loc                                                                                               
RDG09001000WATRL000000005K00000000000000000000000000000000000 000000000000U         000000500  10000000010000006557           
CUS0900100000109256252009         INCOM PARKING FUND L110 W LOMBARD ST                        000N        CARE OF             
MTR09001000001000000000000000RA              4289922     000400710000007100000410000003NN  NNW 000   FIRE SERVICE        N    
RDG09001000WATRL000000006K00000000000000291007109162015120824N000000000000N93       001460600K 10000000010000000291           
CUS0900100000109256253007         HOPKINS PLAZA       110 W LOMBARD ST                        000N        CARE OF             
MTR09001000001000000000000000RA              33415987    001500720000007200000520000003NN  NNW 000                       N    
RDG09001000WATRL000000005K00000000000000000007209162015120828S005000000000U93       000040500K 10000000010000011595           
CUS0900100000109429559009         11 S CHARLES ST, LLC11 S CHARLES ST                         000N        CARE OF             
MTR09001000002000000000000000RA              70043324    000400730000007300000560000000NN  NNW 000   FIRE SERVICE        N    
RDG09001000WATAL000000006K00000000000000003007309162015120832N000000000000N93       000040600K 10000000010000000003           
RDG09001000WATBL000000006K00000000000000000007409162015120845N000100000010N93       000130600K 10000000010000000000           
CUS0900100000109429561005         11 S CHARLES ST, LLC11 S CHARLES ST                         000N        CARE OF             
MTR09001000001000000000000000RA              99168643    001500740000007400000570000000NN  NNW 000                       N    
RDG09001000WATRL000000005K00000000000000571007509162015120850N000000000000N93       000050500K 10000000010000000565           
CUS0900100000109256261000         OHIB HOTEL LLC      301 W LOMBARD ST                        000N        CARE OF             
MTR09001000002000000000000000RA              4574056     000600750000007500000630000003NN  NNW 000                       N    
RDG09001000WATAL000000006K00000000000000001007609162015120900N000100000010N93       000100600K 10000000010000000001           
RDG09001000WATBL000000006K00000000000023810007709162015120925N000400000010N93       000250600K 10000000010000022450           
CUS0900100000109398120007         VS PRATT, LLC       300 W PRATT ST                          000N        CARE OF             
MTR09001000001000000000000000RA              E22535      000600760000007600000430000003NN  NNW 000   FIRE SERVICE        N    
RDG09001000WATRL000000006K00000000000000000007809162015120930N000000000000N93       000050600K 10000000010000000000           
CUS0900100000109398122003         VS PRATT, LLC       300 W PRATT ST                          000N        CARE OF             
MTR09001000001000000000000000RA              9057096     000400770000007700000640000000NN  NNW 000                       N    
RDG09001000WATRL000000006K00000000000014387007909162015120938N000000000000N93       000080600K 10000000010000013595           
CUS0900100000109402376009         RECREATION & PARKS  338 W PRATT ST                          000N        CARE OF             
MTR09001000001000000000000000RA              14914804    001500780000007800000310000003NN  NNW 000                       N    
RDG09001000WATRL000000005K00000000000001161008009162015120943N000000000000N93       000050500K 10000000010000001161           
CUS0900100000109408571009         CITY CRESCENT LTD PA11 S EUTAW ST                           000N        CARE OF             
MTR09001000001000000000000000RA              8027205     000800790000007900000340000003NN  NNW 000   CITY FIRE SERV      N    
RDG09001000WATRL000000006K00000000000000000008109162015120949S005000000000U93       000060600K 10000000010000001569           
CUS0900100000109408573005         CITY CRESCENT LTD PA11 S EUTAW ST                           000N        CARE OF             
MTR09001000001000000000000000RA              9311837     000300800000008000000640000003NN  NNW 000                       N    
RDG09001000WATRL000000005K00000000000017433008209162015121017N000000000000N93       000280500K 10000000010000015487           
CUS0900100000109256263006         BUREAU OF INSPECTION15 S EUTAW ST                           000N        CARE OF             
MTR09001000001000000000000000RA              5204120     000400810000008100000410000003NY  NNW 000   CITY FIRE SERV      N    
MTM090010005204120     CLEAN OUT                                                                                              
RDG09001000WATRL000000006K00000000000000000000000000000000000 000000000000U         000000600  10000000010000000564           
CUS0900100000109256264004         BUREAU OF INSPECTION15 S EUTAW ST                           000N        CARE OF             
MTR09001000001000000000000000RA              01116855    000200820000008200000610000003NN  NNW 000                       N    
RDG09001000WATRL000000005K00000000000003141008309162015121108N000000000000N93       000510500K 10000000010000003130           
CUS0900100000109256262008         BUREAU OF INSPECTION15 S EUTAW ST                           000N        CARE OF             
MTR09001000001000000000000000RA              01116857    000200830000008300000610000003NN  NNW 000                       N    
RDG09001000WATRL000000005K00000000000001017008409162015121139N000304104110N93       000310500K 10000000010000005876           
CUS0900100000109417873008         UNIVERSITY PHYSICIAN16-20 S EUTAW ST                        000N        CARE OF             
MTR09001000002000000000000000RA              20000027    000300840000008400000460000003NN  NNW 000                       N    
RDG09001000WATAL000000005K00000000000001929008509162015121150N000400000010N93       000110500K 10000000010000001900           
RDG09001000WATBL000000005K00000000000009269008609162015121204N000400000010N93       000140500K 10000000010000009097           
CUS0900100000102380133005         LAZ PARKING MID-ATLA221 W LOMBARD ST                        000N        CARE OF             
MTR09001000001000000000000000RA              33734060    001500850000008500000520000003NN  NNW 000                       N    
RDG09001000WATRL000000005K00000000000001450008709162015121208N000000000000N93       000040500K 10000000010000001446           
CUS0900100000109417871002         UNIVERSITY PHYSICIAN16-20 S EUTAW ST                        000N        CARE OF             
MTR09001000001000000000000000RA              8036623     000600860000008600000380000003NN  NNW 000   FIRE SERVICE        N    
RDG09001000WATRL000000006K00000000000000028008809162015121212N000000000000N93       000040600K 10000000010000000028           
CUS0900100000109454879009         GEORGE KRITIKOS     36-38 S EUTAW ST                        000N        CARE OF             
MTR09001000001000000000000000RA              99999999    000200870000008700000440000000NN  NNW 000                       N    
RDG09001000WATRL000000005K00000000000000000008909162015121220N000000000000N93       000080500K 10000000010000000000           
CUS0900100000109256276008         SOUTHERN MGMT       412-20 W REDWOOD ST                     000N        CARE OF             
MTR09001000001000000000000000RA              25112673    000200880000008800000520000003NY  NNW 000                       N    
MTM0900100025112673    NO ACCESS                                                                                              
RDG09001000WATRL000000005K00000000000000000000000000000000000 000000000000U         000000500  10000000010000069909           
CUS0900100000109388223001         MARLBORO-CLASSIC LTD401 W REDWOOD ST                        000N        CARE OF             
MTR09001000001000000000000000RA              E21171      000600890000008900000430000003NN  NNW 000   FIRE SERVICE        N    
RDG09001000WATRL000000006K00000000000000000009009162015121245S005000000000U93       000250600K 10000000010000000094           
CUS0900100000109388187008         SOUTHERN MANAGEMENT 401 W REDWOOD ST                        000N        CARE OF             
MTR09001000001000000000000000RA              9305942     000300900000009000000640000003NN  NNW 000                       N    
RDG09001000WATRL000000005K00000000000030423009109162015121253N000000000000N93       000080500K 10000000010000030095           
CUS0900100000109256278004         DAVID S BROWN ENTERP405-07 W REDWOOD ST                     000N        CARE OF             
MTR09001000001000000000000000RA              01105551    000200910000009100000610000003NN  NNW 000                       N    
RDG09001000WATRL000000005K00000000000000000009209162015121329N000004104110N93       000360500K 10000000010000000491           
CUS0900100000109256279002         UNIVERSITY PHYSICIAN419 W REDWOOD ST                        000N        CARE OF             
MTR09001000001000000000000000RA              0911511     000300920000009200000640000003NN  NNW 000                       N    
RDG09001000WATRL000000005K00000000000007744009309162015121334N000000000000N93       000050500K 10000000010000006825           
CUS0900100000109256281008         36 SOUTH PACA STREET36-38 S PACA ST                         000N        CARE OF             
MTR09001000001000000000000000RA              9102677     000300930000009300000640000003NN  NNW 000                       N    
RDG09001000WATRL000000005K00000000000071365009409162015121339N000000000000N93       000050500K 10000000010000070033           
CUS0900100000109256282006         36 SOUTH PACA STREET32-34 S PACA ST                         000N        CARE OF             
MTR09001000001000000000000000RA              35116888    000200940000009400000520000003NN  NNW 000                       N    
RDG09001000WATRL000000005K00000000000011805009509162015121358N000000000000N93       000190500K 10000000010000011721           
CUS0900100000108212613007         22 S HOWARD STREET C22-24 S HOWARD ST                       000N        CARE OF             
MTR09001000001000000000000000RA              40027030    000100950000009500000520000003NY  NNW 000                       N    
MTM0900100040027030    OK                                                                                                     
RDG09001000WATRL000000004K00000000000001437009609162015121415N000300000010N93       000170400K 10000000010000010060           
RTR09001000NN01070107000001070000000000950095000029NY009500950107001100160000000000000000000001    08312015NY020000 N         
RHD09001100NN00970097000000970000000000720072000037NY007200720097001300110000000000000000000001    08312015NY020000 N         
CUS0900110000109257977000         CLOVERLAND REAL ESTA2701 LOCH RAVEN RD                      000N        CARE OF             
MTR09001100002000000000000000RA              4247172     000800010000000100000630000003NN  NNW 000                       N    
RDG09001100WATAL000000006K00000000000070216000109182015114432N000400000010N91       000000600K 10000000010000067330           
RDG09001100WATBL000000006K00000000000594669000209182015114438N000000000000N91       000060600K 10000000010000567693           
CUS0900110000109257866005         434100 FAMILY DOLLAR2024 HARFORD RD                         000N        CARE OF             
MTR09001100001000000000000000RA              1218843     000300020000000200000490000003NN  NNW 000                       N    
RDG09001100WATRL000000005K00000000000000929000309182015114445N000100000010N91       000070500K 10000000010000000929           
CUS0900110000109228272002         ENGINEER OFFICE VETE3801 THE ALAMEDA                        000N        CARE OF             
MTR09001100002000000000000000RA              2459116     000800030000000300000630000003NN  NNW 000                       N    
RDG09001100WATAL000000006K00000000000000923000409182015120750N000400000010N91       013850600K 10000000010000000293           
RDG09001100WATBL000000006K00000000000054136000509182015120803N000400000010N91       000130600K 10000000010000050019           
CUS0900110000109228271004         VETERANS ADM MD CENT3801 THE ALAMEDA                        000N        CARE OF             
MTR09001100002000000000000000RA              3762673     000600040000000400000540000003NY  NNW 000                       N    
MTM090011003762673     OK                                                                                                     
RDG09001100WATAL000000006K00000000000000189000609182015120809N000400000010N91       000060600K 10000000010000000121           
RDG09001100WATBL000000006K00000000000092795000709182015120930N000000000000N91       000810600K 10000000010000012827           
CUS0900110000109258115006         GOOD SAMARITAN HOSPI5601 LOCH RAVEN BLVD                    000N        CARE OF             
MTR09001100002000000000000000RA              4475441     001000050000000500000540000003NN  NNW 000                       N    
RDG09001100WATAL000000007K00000000000000001000809182015120936N000100000010N91       000060700K 10000000010000000001           
RDG09001100WATBL000000007K00000000000123075000909182015120944N000400000010N91       000080700K 10000000010000109337           
CUS0900110000109258112003         GOOD SAMARITAN HOSPI5601 LOCH RAVEN BLVD                    000N        CARE OF             
MTR09001100002000000000000000RA              4542091     001000060000000600000540000003NN  NNW 000                       N    
RDG09001100WATAL000000007K00000000000000003001009182015120952N000100000010N91       000080700K 10000000010000000003           
RDG09001100WATBL000000007K00000000000102811001109182015121008N000400000010N91       000160700K 10000000010000095433           
CUS0900110000109258091009         BUREAU OF WATER SUPP3900 HILLEN RD                          000N        CARE OF             
MTR09001100001000000000000000RA              1154889     000600070000000700000490000003NN  NNW 000                       N    
RDG09001100WATRL000000006K00000000000399129001209182015121013N000000000000N91       000050600K 10000000010000382740           
CUS0900110000109258093005         BUREAU OF ENGINEERIN3900 HILLEN RD                          000N        CARE OF             
MTR09001100001000000000000000RA              99169927    000200080000000800000570000003NN  NNW 000                       N    
RDG09001100WATRL000000005K00000000000000566001309182015121017N000000000000N91       000040500K 10000000010000000561           
CUS0900110000109258092007         BUREAU OF WATER SUPP3900 HILLEN RD                          000N        CARE OF             
MTR09001100001000000000000000RA              1153326     000400090000000900000490000003NY  NNW 000                       N    
MTM090011001153326     CLEAN OUT                                                                                              
RDG09001100WATRL000000006K00000000000000000000000000000000000 000000000000U         000000600  10000000010000000845           
CUS0900110000109374438001         MONTEBELLO CHLORINAT3900 HILLEN RD                          000N        CARE OF             
MTR09001100001000000000000000RA              1107206     000600100000001000000490000003NN  NNW 000                       N    
RDG09001100WATRL000000006K00000000000021958001409182015121040N000000000000N91       000230600K 10000000010000021958           
CUS0900110000109374439009         MONTEBELLO CHLORINAT3900 HILLEN RD                          000N        CARE OF             
MTR09001100001000000000000000RA              22109120    000600110000001100000490000003NN  NNW 000                       N    
RDG09001100WATRL000000006K00000000000000000001509182015121044N000000000000N91       000040600K 10000000010000000000           
CUS0900110000109374440007         MONTEBELLO CHLORINAT3900 HILLEN RD                          000N        CARE OF             
MTR09001100001000000000000000RA              1107207     000600120000001200000490000003NN  NNW 000                       N    
RDG09001100WATRL000000006K00000000000846235001609182015121055N000300000010N91       000110600K 10000000010000578972           
CUS0900110000109433786002         MORGAN STATE UNIV/AC4101 HILLEN RD                          000N        CARE OF             
MTR09001100002000000000000000RA              0203990     000600130000001300000630000000NN  NNW 000                       N    
RDG09001100WATAL000000006K00000000000000000001709182015121100N000100000010N91       000050600K 10000000010000000000           
RDG09001100WATBL000000000K00000000000001188001809182015121109N000400000010N91       000091000K 10000000010000001168           
CUS0900110000109421621005         GINGERBREAD MANOR, I3216 TAYLOR AVE                         000N        CARE OF             
MTR09001100001000000000000000RA              51476600    000200140000001400000520000003NN  NNW 000                       N    
RDG09001100WATRL000000005K00000000000006890001909182015121114N000000000000N91       000050500K 10000000010000006817           
CUS0900110000109406866005         MORGAN STATE UNIV/AC4601 HILLEN RD                          000N        CARE OF             
MTR09001100002000000000000000RA              8028705     001000150000001500000630000003NN  NNW 000                       N    
RDG09001100WATAL000000007K00000000000000001002009182015121119N000400000010N91       000050700K 10000000010000000000           
RDG09001100WATBL000000007K00000000000008261002109182015121127N000400000010N91       000080700K 10000000010000000061           
CUS0900110000109406868001         MORGAN STATE UNIV/AC4601A HILLEN RD                         000N        CARE OF             
MTR09001100002000000000000000RA              9103367     001000160000001600000630000003NN  NNW 000                       N    
RDG09001100WATAL000000007K00000000000000002002209182015121133N000100000010N91       000060700K 10000000010000000002           
RDG09001100WATBL000000007K00000000000283797002309182015121144N000400000010N91       000110700K 10000000010000268493           
CUS0900110000109406869009         MORGAN STATE UNIV/AC1911 E COLD SPRING LN                   000N        CARE OF             
MTR09001100002000000000000000RA              7231172     001000170000001700000630000003NN  NNW 000                       N    
RDG09001100WATAL000000007K00000000000000003002409182015121204N000000000000N91       000200700K 10000000010000000003           
RDG09001100WATBL000000007K00000000000004488002509182015121214N000100000010N91       000100700K 10000000010000004488           
CUS0900110000109429892004         MORGAN STATE UNIVERS1911 E COLD SPRING LN                   000N        CARE OF             
MTR09001100001000000000000000RA              8044862     000400180000001800000380000000NN  NNW 000   FIRE SERVICE        N    
RDG09001100WATRL000000006K00000000000000000002609182015121216N000000000000N91       000020600K 10000000010000000000           
CUS0900110000109429894000         MORGAN STATE UNIV/AC1911 E COLD SPRING LN                   000N        CARE OF             
MTR09001100002000000000000000RA              20000013    000300190000001900000460000000NN  NNW 000                       N    
RDG09001100WATAL000000005K00000000000003000002709182015121223N000400000010N91       000070500K 10000000010000002843           
RDG09001100WATBL000000005K00000000000001246002809182015121226N000000000000N91       000030500K 10000000010000008836           
CUS0900110000109436656004         MORGAN STATE UNIVERS1700 E COLD SPRING LN                   000N        CARE OF             
MTR09001100002000000000000000RA              0310001     000800200000002000000630000000NY  NNW 000                       N    
MTM090011000310001     CANT LOC                                                                                               
RDG09001100WATAL000000006K00000000000000000000000000000000000 000000000000U         000000600  10000000010000000092           
RDG09001100WATBL000000006K00000000000000000000000000000000000 000000000000U         000000600  10000000010000001338           
CUS0900110000109386011002         DEPT. OF RECREATION/6101 HILLEN RD                          000N        CARE OF             
MTR09001100001000000000000000RA              35109475    000200210000002100000520000003NN  NNW 000                       N    
RDG09001100WATRL000000005K00000000000051192002909182015121302N000000000000N91       000360500K 10000000010000050785           
CUS0900110000109386010004         DEPT. RECREATION/PAR6101 HILLEN RD                          000N        CARE OF             
MTR09001100001000000000000000RA              E17887      000400220000002200000430000003NN  NNW 000   CITY FIRE SERV      N    
RDG09001100WATRL000000006K00000000000000000003009182015121304N000000000000N91       000020600K 10000000010000000000           
CUS0900110000109420251002         EVERALL GARDENS APTS6100 EVERALL AVE                        000N        CARE OF             
MTR09001100001000000000000000RA              8041450     000600230000002300000380000003NN  NNW 000   FIRE SERVICE        N    
RDG09001100WATRL000000006K00000000000000004003109182015121308N000000000000N91       000040600K 10000000010000000004           
CUS0900110000109420253008         CATHOLIC CHARITIES  6100 EVERALL AVE                        000N        CARE OF             
MTR09001100001000000000000000RA              42877092    000200240000002400000520000003NN  NNW 000                       N    
RDG09001100WATRL000000005K00000000000027419003209182015121311N000000000000N91       000030500K 10000000010000026998           
CUS0900110000109290150003         MCPHERSON, SHIRLEY J6100 BELAIR RD                          000N        CARE OF             
MTR09001100001000000000000000RA              1209049     000200250000002500000490000003NN  NNW 000                       N    
RDG09001100WATRL000000005K00000000000072614003309182015121317N000000000000N91       000060500K 10000000010000069750           
CUS0900110000103447032008         CARRIBEAN CUISINE   6106 BELAIR RD                          000N        CARE OF             
MTR09001100001000000000000000RA              99999999    005800260000002600000680000003NN  NNW 000                       N    
RDG09001100WATRL000000004K00000000000000000003409182015121319S040000000000N91       000020400K 10000000010000000343           
CUS0900110000109420738008         NATIONAL RETAIL PROP6109 BELAIR RD                          000N        CARE OF             
MTR09001100001000000000000000RA              99408933    000100270000002700000570000003NN  NNW 000                       N    
RDG09001100WATRL000000004K00000000000001535003509182015121325N000000000000N91       000060400K 10000000010000001509           
CUS0900110000109290148007         SMV BALTIMORE LLC   6116 BELAIR RD                          000N        CARE OF             
MTR09001100002000000000000000RA              70225930    000300280000002800000440000003NN  NNW 000                       N    
RDG09001100WATAL000000005K00000000000010308003609182015121333N000400000010N91       000080500K 10000000010000009700           
RDG09001100WATBL000000005K00000000000004777003709182015121339N000400000010N91       000060500K 10000000010000003448           
CUS0900110000109439933004         CITY NEIGHBORS CHART4301 RASPE AVE                          000N        CARE OF             
MTR09001100001000000000000000RA              01117145    000200290000002900000610000003NN  NNW 000                       N    
RDG09001100WATRL000000005K00000000000004398003809182015121346N000400000010N91       000070500K 10000000010000004364           
CUS0900110000109439932006         CITY NEIGHBORS CHART4301 RASPE AVE                          000N        CARE OF             
MTR09001100001000000000000000RA              8047232     000600300000003000000380000003NN  NNW 000   FIRE SERVICE        N    
RDG09001100WATRL000000006K00000000000000000003909182015121348N000000000000N91       000020600K 10000000010000000000           
CUS0900110000109290242008         CHOI, SANG BONG     1515-17 N CHESTER ST                    000N        CARE OF             
MTR09001100001000000000000000RA              99999999    000100310000003100000620000003NN  NNW 000   VACANT PROPERTY     N    
RDG09001100WATRL000000004K00000000000000000004009182015121351S022000000000N91       000030400K 10000000010000000001           
CUS0900110000109416237007         COLLINGTON SQUARE   1211 N CHESTER ST                       000N        CARE OF             
MTR09001100001000000000000000RA              8034955     000400320000003200000380000003NN  NNW 000   FIRE SERVICE        N    
RDG09001100WATRL000000006K00000000000000003004109182015121354N000000000000N91       000030600K 10000000010000000003           
CUS0900110000109416239003         COLLINGTON SQUARE   1211 N CHESTER ST                       000N        CARE OF             
MTR09001100001000000000000000RA              60406661    000300330000003300000470000003NN  NNW 000                       N    
RDG09001100WATRL000000005K00000000000004218004209182015121406N000000000000N91       000120500K 10000000010000004109           
CUS0900110000109435156006         ISRAEL BAPTIST CHURC1220 N CHESTER ST                       000N        CARE OF             
MTR09001100001000000000000000RA              9601815     000400340000003400000640000003NN  NNW 000                       N    
RDG09001100WATRL000000006K00000000000001254004309182015121410N000000000000N91       000040600K 10000000010000001238           
CUS0900110000109435154001         ISRAEL BAPTIST CHURC1220 N CHESTER ST                       000N        CARE OF             
MTR09001100001000000000000000RA              8047659     000600350000003500000410000000NN  NNW 000   FIRE SERVICE        N    
RDG09001100WATRL000000006K00000000000000000004409182015121412N000000000000N91       000020600K 10000000010000000000           
CUS0900110000109378949003         ROCKLAND INDUSTRIES,1601 EDISON HWY                         000N        CARE OF             
MTR09001100001000000000000000RA              73819013    000600360000003600000000000003NY  NNW 000                       N    
MTM0900110073819013    NOT READING                                                                                            
RDG09001100WATRL000000006K00000000000000000000000000000000000 000000000000U         000000600  10000000010000000000           
CUS0900110000106190308004         1030 EDISON HIGHWAY 1030 EDISON HWY                         000N        CARE OF             
MTR09001100001000000000000000RA              26100880    001500370000003700000520000003NN  NNW 000                       N    
RDG09001100WATRL000000005K00000000000019588004509182015121500N000000000000N91       000480500K 10000000010000018788           
CUS0900110000109290269001         ROCKLAND INDUSTRIES,1601 EDISON HWY                         000N        CARE OF             
MTR09001100003000000000000000RA              4715428     001200380000003800000480000003NN  NNW 000   FIRE SERVICE        N    
RDG09001100WATAL000000007K00000000000000000004609182015121505N000000000010U91       000050700K 10000000010000000098           
RDG09001100WATBL000000007K00000000000000000004709182015121506S005000000000U91       000010700K 10000000010000003933           
RDG09001100WATCL000000007K00000000000000000004809182015121518N000300000010U91       000120700K 10000000010000000541           
CUS0900110000109290271007         ROCKLAND INDUSTRIES,1601 EDISON HWY                         000N        CARE OF             
MTR09001100003000000000000000RA              2509678     000800390000003900000480000003NY  NNW 000   FIRE SERVICE        N    
MTM090011002509678     GAS IN VAULT                                                                                           
RDG09001100WATAL000000006K00000000000000000000000000000000000 000000000000U         000000600  10000000010000000001           
RDG09001100WATBL000000006K00000000000000000000000000000000000 000000000000U         000000600  10000000010000003968           
RDG09001100WATCL000000006K00000000000000000000000000000000000 000000000000U         000000600  10000000010000000673           
CUS0900110000109290272005         ROCKLAND INDUSTRIES,1601 EDISON HWY                         000N        CARE OF             
MTR09001100001000000000000000RA              1170549     000300400000004000000490000003NY  NNW 000   VACANT PROPERTY     N    
MTM090011001170549     GAS IN VAULT                                                                                           
RDG09001100WATRL000000005K00000000000000000004909182015121610S022000000000N91       000520500K 10000000010000000000           
CUS0900110000109290260000         CHESAPEAKE GROUP PRO3400 E BIDDLE ST                        000N        CARE OF             
MTR09001100001000000000000000RA              1133827     000200410000004100000490000003NN  NNW 000                       N    
RDG09001100WATRL000000005K00000000000079759005009182015121621N000000000000N91       000110500K 10000000010000079742           
CUS0900110000109290259002         CHESAPEAKE GROUP PRO3400 E BIDDLE ST                        000N        CARE OF             
MTR09001100001000000000000000RA              2996445     000800420000004200000410000003NN  NNW 000   FIRE SERVICE        N    
RDG09001100WATRL000000006K00000000000000000005109182015121625S005000000000U91       000040600K 10000000010000005183           
CUS0900110000109290282004         BIDDLE STREET OWNER 3501 E BIDDLE ST                        000N        CARE OF             
MTR09001100002000000000000000RA              1815058     000800430000004300000540000003NN  NNW 000                       N    
RDG09001100WATAL000000006K00000000000000005005209182015121637N000400000010N91       000120600K 10000000010000000004           
RDG09001100WATBL000000006K00000000000000444005309182015121644N000400000010N91       000070600K 10000000010000000403           
CUS0900110000109290285007         MAYOR AND CITY COUNC3001-15 E MADISON ST                    000N        CARE OF             
MTR09001100001000000000000000RA              00066738    000200440000004400000570000003NN  NNW 000                       N    
RDG09001100WATRL000000005K00000000000003805005409182015121646N000000000000N91       000020500K 10000000010000003735           
CUS0900110000109290286005         MAYOR AND CITY COUNC3001-15 E MADISON ST                    000N        CARE OF             
MTR09001100001000000000000000RA              3144291     000800450000004500000410000000NN  NNW 000   CITY FIRE SERV      N    
RDG09001100WATRL000000006K00000000000000006005509182015121650N000000000000N91       000040600K 10000000010000000006           
CUS0900110000109290300004         MID-ATLANTIC BOTTLIN701 N KRESSON ST                        000N        CARE OF             
MTR09001100002000000000000000RA              4754939     000600460000004600000540000003NN  NNW 000                       N    
RDG09001100WATAL000000006K00000000000170136005609182015121656N000000000000N91       000060600K 10000000010000148777           
RDG09001100WATBL000000006K00000000000057163005709182015121711N000100000010N91       000150600K 10000000010000057163           
CUS0900110000109290313007         ASHLAND CONLEY, LLC 4209 ASHLAND AVE                        000N        CARE OF             
MTR09001100001000000000000000RA              43904371    007500470000004700000520000003NN  NNW 000                       N    
RDG09001100WATRL000000004K00000000000001544005809182015121714N000000000000N91       000030400K 10000000010000001537           
CUS0900110000109290672006         SAVAL PULASKI I LLC 4600-10 PULASKI HWY                     000N        CARE OF             
MTR09001100002000000000000000RA              01116923    000200480000004800000610000003NN  NNW 000                       N    
RDG09001100WATAL000000005K00000000000037367005909182015121719N000000000000N91       000050500K 10000000010000035315           
RDG09001100WATBL000000005K00000000000025821006009182015121726N000400000010N91       000070500K 10000000010000024398           
CUS0900110000109442921004         ACCOUNTS PAYABLE    1901 62ND ST                            000N        CARE OF             
MTR09001100001000000000000000RA              8050583     000800490000004900000380000000NY  NNW 000   FIRE SERVICE        N    
MTM090011008050583     CONSTR                                                                                                 
RDG09001100WATRL000000006K00000000000000000000000000000000000 000000000000U         000000600  10000000010000000000           
CUS0900110000109442918000         ACCOUNTS PAYABLE    1901 62ND ST                            000N        CARE OF             
MTR09001100001000000000000000RA              8050584     000800500000005000000380000000NN  NNW 000   FIRE SERVICE        N    
RDG09001100WATRL000000006K00000000000000000006109182015121757N000000000000N91       000310600K 10000000010000000000           
CUS0900110000109442923000         ACCOUNTS PAYABLE    1901 62ND ST                            000N        CARE OF             
MTR09001100001000000000000000RA              00117116    000200510000005100000570000000NN  NNW 000                       N    
RDG09001100WATRL000000005K00000000000002944006209182015121800N000000000000N91       000030500K 10000000010000002708           
CUS0900110000109442920006         ACCOUNTS PAYABLE    1901 62ND ST                            000N        CARE OF             
MTR09001100001000000000000000RA              01117120    000200520000005200000610000000NN  NNW 000   VACANT PROPERTY     N    
RDG09001100WATRL000000005K00000000000000000006309182015121805S022000000000N91       000050500K 10000000010000000000           
CUS0900110000109290700005         WH-PULASKI, LLC     6709 PULASKI HWY                        000N        CARE OF             
MTR09001100002000000000000000RA              3116328     000600530000005300000540000003NN  NNW 000   VACANT PROPERTY     N    
RDG09001100WATAL000000006K00000000000000000006409182015121813S022000000000N91       000080600K 10000000010000000000           
RDG09001100WATBL000000006K00000000000000000006509182015121817S022000000000N91       000040600K 10000000010000001650           
CUS0900110000109394377007         WH-PULASKI, LLC     6709 PULASKI HWY                        000N        CARE OF             
MTR09001100002000000000000000RA              7213858     001200540000005400000540000003NN  NNW 000   VACANT PROPERTY     N    
RDG09001100WATAL000000007K00000000000000000006609182015121822S022000000000N91       000050700K 10000000010000000002           
RDG09001100WATBL000000007K00000000000000000006709182015121825S022000000000N91       000030700K 10000000010000000002           
CUS0900110000109290725002         SHASTA BEVERAGES    6750 MORAVIA PK DR                      000N        CARE OF             
MTR09001100002000000000000000RA              4017253     000800550000005500000540000003NN  NNW 000                       N    
RDG09001100WATAL000000006K00000000000000001006809182015121838N000100000010N91       000130600K 10000000010000000001           
RDG09001100WATBL000000006K00000000000125848006909182015121846N000400000010N91       000080600K 10000000010000117090           
CUS0900110000109290716001         AUTOMATIC ROLLS INC 7111 COMMERCIAL AVE                     000N        CARE OF             
MTR09001100001000000000000000RA              4373452     000800560000005600000410000003NY  NNW 000   FIRE SERVICE        N    
MTM090011004373452     CLEAN OUT                                                                                              
RDG09001100WATRL000000006K00000000000000000000000000000000000 000000000000U         000000600  10000000010000000392           
CUS0900110000109290717009         AUTOMATIC ROLLS INC 7111 COMMERCIAL AVE                     000N        CARE OF             
MTR09001100001000000000000000RA              1396980     000200570000005700000490000003NN  NNW 000                       N    
RDG09001100WATRL000000005K00000000000048214007009182015121913N000000000000N91       000270500K 10000000010000046977           
CUS0900110000109364035007         POTTS & CALLAHAN, IN5001 PULASKI HWY                        000N        CARE OF             
MTR09001100001000000000000000RA              E13817      000800580000005800000430000003NN  NNW 000   FIRE SERVICE        N    
RDG09001100WATRL000000006K00000000000000000007109182015121916S005000000000U91       000030600K 10000000010000000017           
CUS0900110000109364036005         POTTS & CALLAHAN, IN5001 PULASKI HWY                        000N        CARE OF             
MTR09001100001000000000000000RA              1276257     000300590000005900000490000003NN  NNW 000                       N    
RDG09001100WATRL000000005K00000000000001796007209182015121924N000000000000N91       000080500K 10000000010000001065           
CUS0900110000109290670000         SOMMER PROPERTIES, L501 N KRESSON ST                        000N        CARE OF             
MTR09001100001000000000000000RA              10806672    000300600000006000000490000003NY  NNW 000                       N    
MTM0900110010806672    CS                                                                                                     
RDG09001100WATRL000000005K00000000000000000000000000000000000 000000000000U         000000500  10000000010000000627           
CUS0900110000109290669002         SOMMER PROPERTIES, L501 N KRESSON ST                        000N        CARE OF             
MTR09001100001000000000000000RA              2833395     001000610000006100000410000003NN  NNW 000   FIRE SERVICE        N    
RDG09001100WATRL000000007K00000000000000722007309182015121946N000400000010N91       000220700K 10000000010000000720           
CUS0900110000109290319004         GOETZES CANDY CO    3900 E MONUMENT ST                      000N        CARE OF             
MTR09001100001000000000000000RA              8044654     000600620000006200000380000003NN  NNW 000   FIRE SERVICE        N    
RDG09001100WATRL000000006K00000000000009999007409182015121951N000000000000N91       000050600K 10000000010000009999           
CUS0900110000109290320002         GOETZES CANDY CO    3900 E MONUMENT ST                      000N        CARE OF             
MTR09001100001000000000000000RA              1209004     001500630000006300000490000003NN  NNW 000                       N    
RDG09001100WATRL000000005K00000000000050501007509182015121956N000000000000N91       000050500K 10000000010000049359           
CUS0900110000109290644005         LORD BALTO UNIFORM R3712-16 E BALTIMORE ST                  000N        CARE OF             
MTR09001100001000000000000000RA              1184633     000400640000006400000490000003NN  NNW 000                       N    
RDG09001100WATRL000000006K00000000000045051007609182015122002N000000000000N91       000060600K 10000000010000042198           
CUS0900110000109290666008         4600 EAST FAYETTE, L4600 E FAYETTE ST                       000N        CARE OF             
MTR09001100001000000000000000RA              9310104     000400650000006500000640000003NN  NNW 000                       N    
RDG09001100WATRL000000006K00000000000014392007709182015122011N000000000000N91       000090600K 10000000010000013469           
CUS0900110000109290606004         JOHNS HOPKINS HOSPIT724 N WOLFE ST                          000N        CARE OF             
MTR09001100002000000000000000RA              4108365     000800660000006600000540000003NY  NNW 000                       N    
MTM090011004108365     OK                                                                                                     
RDG09001100WATAL000000006K00000000000219986007809182015122024N000300000010N91       000130600K 10000000010000220051           
RDG09001100WATBL000000006K00000000000347925007909182015122035N000000000000N91       000110600K 10000000010000319895           
CUS0900110000109431947002         JOHNS HOPKINS HOSP  724 N WOLFE ST                          000N        CARE OF             
MTR09001100002000000000000000RA              0007645     000800670000006700000630000000NY  NNW 000                       N    
MTM090011000007645     NO ACCESS                                                                                              
RDG09001100WATAL000000006K00000000000000000000000000000000000 000000000000U         000000600  10000000010000000001           
RDG09001100WATBL000000006K00000000000000000000000000000000000 000000000000U         000000600  10000000010000096905           
CUS0900110000106200906003         PARKWOOD MEMORIAL AS3310 TAYLOR AVE                         000N        CARE OF             
MTR09001100001000000000000000RA              52291038    000100680000006800000520000003NN  NNW 000                       N    
RDG09001100WATRL000000004K00000000000006742008009182015122059N000000000000N91       000240400K 10000000010000006583           
CUS0900110000106245338006         LIPSCOMB, KIMBERLY F4600 ERDMAN AVE                         000N        CARE OF             
MTR09001100001000000000000000RA              52290604    005800690000006900000520000003NN  NNW 000                       N    
RDG09001100WATRL000000004K00000000000002589008109182015122103N000000000000N91       000040400K 10000000010000002533           
CUS0900110000106285397003         POTTS & CALLAHAN, IN5001 PULASKI HWY                        000N        CARE OF             
MTR09001100001000000000000000RA              40248382    007500700000007000000520000003NY  NNW 000                       N    
MTM0900110040248382    CLEAN OUT                                                                                              
RDG09001100WATRL000000004K00000000000000000000000000000000000 000000000000U         000000400  10000000010000006407           
CUS0900110000106383883003         POTTS & CALLAHAN, IN5001 PULASKI HWY                        000N        CARE OF             
MTR09001100001000000000000000RA              00118801    007500710000007100000570000003NN  NNW 000                       N    
RDG09001100WATRL000000004K00000000000006722008209182015122207N000000000010N91       000640400K 10000000010000006695           
CUS0900110000109446078009         CSX TRANSPORTATION, 5301 PULASKI HWY                        000N        CARE OF             
MTR09001100002000000000000000RA              0509196     000600720000007200000630000000NN  NNW 000                       N    
RDG09001100WATAL000000006K00000000000000000008309182015122210N000000000000N91       000030600K 10000000010000000000           
RDG09001100WATBL000000000K00000000000000008008409182015122216N000100000010N91       000061000K 10000000010000000008           
RTR09001100NN00970097000000970000000000720072000037NY007200720097001300110000000000000000000001    08312015NY020000 N         
RHD09001500NN00780080000000780000000200660066000058NY006600660080000700030000000000000000000001    08312015NY020000 N         
CUS0900150000109255982002         PENN-NORTH SQUARE, I2547-67 PENNSYLVANIA AVE                000N        CARE OF             
MTR09001500001000000000000000RA              1453144     000300010000000100000490000003NN  NNW 000   VACANT PROPERTY     N    
RDG09001500WATRL000000005K00000000000066852000109162015114645N000000000000N84       000000500K 10000000010000066852           
CUS0900150000109255980006         PENN-NORTH SQUARE, I2547-67 PENNSYLVANIA AVE                000N        CARE OF             
MTR09001500001000000000000000RA              34953013    001500020000000200000520000003NN  NNW 000   VACANT PROPERTY     N    
RDG09001500WATRL000000005K00000000000000000000209162015114649N000000000000N84       000040500K 10000000010000000000           
CUS0900150000109255979008         PENN-NORTH SQUARE, I2547-67 PENNSYLVANIA AVE                000N        CARE OF             
MTR09001500001000000000000000RA              2460025     001000030000000300000410000003NN  NNW 000   FIRE SERVICE        N    
RDG09001500WATRL000000007K00000000000000000000309162015114652N000000000000N84       000030700K 10000000010000000000           
CUS0900150000109257353004         BUREAU OF WATER SUPP3001 DRUID PARK DR                      000N        CARE OF             
MTR09001500001000000000000000RA              1120570     000600040000000400000490000003NN  NNW 000                       N    
RDG09001500WATRL000000006K00000000000246852000409162015114733N000000000000N84       000410600K 10000000010000165165           
CUS0900150000109257352006         BUREAU OF WATER SUPP3001 DRUID PARK DR                      000N        CARE OF             
MTR09001500001000000000000000RA              1183932     000600050000000500000490000003NN  NNW 000                       N    
RDG09001500WATRL000000006K00000000000242453000509162015114747N000000000000N84       000140600K 10000000010000159876           
CUS0900150000109437750004         BUREAU OF WATER     3001 DRUID PARK DR                      000N        CARE OF             
MTR09001500002000000000000000RA              0502628     000800060000000600000630000000NN  NNW 000                       N    
RDG09001500WATAL000000006K00000000000004260000609162015114808N000400000010N84       000210600K 10000000010000004226           
RDG09001500WATBL000000006K00000000000072608000709162015114821N000400000010N84       000130600K 10000000010000070150           
CUS0900150000109437751002         BUREAU OF WATER     3001 DRUID PARK DR                      000N        CARE OF             
MTR09001500002000000000000000RA              0502629     000800070000000700000630000000NY  NNW 000                       N    
MTM090015000502629     OK                  G/O                                                                                
RDG09001500WATAL000000006K00000000000053880000809162015115003N000300000010N84       001020600K 10000000010000004186           
RDG09001500WATBL000000006K00000000000007126000909162015115055N000300000010N84       000520600K 10000000010000088102           
CUS0900150000102307073003         BUREAU OF WATER SUPP3001 DRUID PARK DR                      000N        CARE OF             
MTR09001500001000000000000000RA              35105827    007500080000000800000520000003NY  NNW 000                       N    
MTM0900150035105827    OK                                                                                                     
RDG09001500WATRL000000004K00000000000002077001009162015115106N000000000000N84       000110400K 10000000010000002077           
CUS0900150000109257351008         STATE OF MARYLAND   3100 TOWANDA AVE                        000N        CARE OF             
MTR09001500002000000000000000RA              4781646     001000090000000900000540000003NN  NNW 000                       N    
RDG09001500WATAL000000007K00000000000000002001109162015115114N000100000010N84       000080700K 10000000010000000002           
RDG09001500WATBL000000007K00000000000000684001209162015115125N000400000010N84       000110700K 10000000010000000642           
CUS0900150000109399381004         DIETZ & WATSON, INC.3301 TOWANDA AVE                        000N        CARE OF             
MTR09001500002000000000000000RA              13939188    001000100000001000000000000003NY  NNW 000                       N    
MTM0900150013939188    OK                    ERT                                                                              
RDG09001500WATAL000000007K00000000000000000001309162015115129N000000000000N84       000040700K 10000000010000000000           
RDG09001500WATBL000000007K00000000000015329001409162015115150N000400000010N84       000210700K 10000000010000000000           
CUS0900150000109257202003         S & G CONCRETE CO   3101 GRANTLEY AVE                       000N        CARE OF             
MTR09001500002000000000000000RA              1519108     000400110000001100000630000003NN  NNW 000                       N    
RDG09001500WATAL000000006K00000000000001960001509162015115217N000100000010N84       000270600K 10000000010000001960           
RDG09001500WATBL000000006K00000000000077598001609162015115233N000400000010N84       000160600K 10000000010000075737           
CUS0900150000109257203001         S & G CONCRETE CO   3101 GRANTLEY AVE                       000N        CARE OF             
MTR09001500001000000000000000RA              36700139    001500120000001200000520000003NY  NNW 000                       N    
MTM0900150036700139    OK                                                                                                     
RDG09001500WATRL000000005K00000000000000000001709162015115254N000000000000N84       000210500K 10000000010000000000           
CUS0900150000109424112002         TUDOR HEIGHTS ASST L7218 PARK HTS AVE                       000N        CARE OF             
MTR09001500002000000000000000RA              9014661     000400130000001300000630000003NN  NNW 000                       N    
RDG09001500WATAL000000006K00000000000000038001809162015115303N000400000010N84       000090600K 10000000010000000033           
RDG09001500WATBL000000006K00000000000008172001909162015115318N000400000010N84       000150600K 10000000010000007722           
CUS0900150000109257269002         PARK VGE COND ASSOC 7340-7396 PARK HTS AVE                  000N        CARE OF             
MTR09001500001000000000000000RA              9203906     000400140000001400000640000003NN  NNW 000                       N    
RDG09001500WATRL000000006K00000000000013311002009162015122403N000000000000N84       018450600K 10000000010000012659           
CUS0900150000109436874003         BALTIMORE CLAYWORK  5706 SMITH AVE                          000N        CARE OF             
MTR09001500001000000000000000RA              8046519     000400150000001500000380000000NN  NNW 000   FIRE SERVICE        N    
RDG09001500WATRL000000006K00000000000000000002109162015122409N000000000000N84       000060600K 10000000010000000000           
CUS0900150000109436876008         BALTIMORE CLAYWORK  5706 SMITH AVE                          000N        CARE OF             
MTR09001500001000000000000000RA              01105264    000200160000001600000610000000NN  NNW 000                       N    
RDG09001500WATRL000000005K00000000000005050002209162015122423N000000000000N84       000140500K 10000000010000004897           
CUS0900150000109375334001         MT WASHINGTON CAMPUS5801 SMITH AVE                          000N        CARE OF             
MTR09001500002000000000000000RA              7091496     000800170000001700000540000003NN  NNW 000                       N    
RDG09001500WATAL000000006K00000000000000001002309162015122444N000100000010N84       000210600K 10000000010000000001           
RDG09001500WATBL000000006K00000000000201613002409162015122500N000400000010N84       000160600K 10000000010000194497           
CUS0900150000109257297003         MAVERICK 5900 SOUTH,5900 REISTERSTOWN RD                    000N        CARE OF             
MTR09001500001000000000000000RA              0911525     000300180000001800000640000003NN  NNW 000                       N    
RDG09001500WATRL000000005K00000000000006428002509162015122513N000000000000N84       000130500K 10000000010000006325           
CUS0900150000109257296005         MAVERICK 5900 SOUTH,5900 REISTERSTOWN RD                    000N        CARE OF             
MTR09001500001000000000000000RA              1699590     000800190000001900000410000003NN  NNW 000   FIRE SERVICE        N    
RDG09001500WATRL000000006K00000000000001379002609162015122519N000000000000N84       000060600K 10000000010000001379           
CUS0900150000109415134007         SY ALLIED, LLC.     5920 REISTERSTOWN RD                    000N        CARE OF             
MTR09001500001000000000000000RA              44782281    000100200000002000000520000003NN  NNW 000                       N    
RDG09001500WATRL000000004K00000000000001432002709162015122528N000300000010N84       000090400K 10000000010000001079           
CUS0900150000109434040003         GENESIS BIBLE CHURCH6010 REISTERSTOWN RD                    000N        CARE OF             
MTR09001500001000000000000000RA              8047556     000600210000002100000380000000NN  NNW 000   FIRE SERVICE        N    
RDG09001500WATRL000000006K00000000000000000002809162015122532N000000000000N84       000040600K 10000000010000000000           
CUS0900150000109434042009         GENESIS BIBLE CHURCH6010 REISTERSTOWN RD                    000N        CARE OF             
MTR09001500001000000000000000RA              01105916    000200220000002200000440000000NY  NNW 000                       N    
MTM0900150001105916    OK                                                                                                     
RDG09001500WATRL000000005K00000000000000000002909162015122537N000000000000N84       000050500K 10000000010000000000           
CUS0900150000109428733001         6320 OAKLEAF, LLC   6320 OAKLEAF AVE                        000N        CARE OF             
MTR09001500001000000000000000RA              8043970     000600230000002300000380000003NN  NNW 000   FIRE SERVICE        N    
RDG09001500WATRL000000006K00000000000009999003009162015122555N000000000000N84       000180600K 10000000010000009999           
CUS0900150000109428735006         6320 OAKLEAF, LLC   6320 OAKLEAF AVE                        000N        CARE OF             
MTR09001500001000000000000000RA              7180099     000300240000002400000640000000NN  NNW 000                       N    
RDG09001500WATRL000000005K00000000000036394003109162015122604N000000000000N84       000090500K 10000000010000034797           
CUS0900150000109256065005         NEW SHILOH BAPTIST C2200-04 N MONROE ST                     000N        CARE OF             
MTR09001500001000000000000000RA              1279012     000300250000002500000490000003NY  NNW 000                       N    
MTM090015001279012     C/L                                                                                                    
RDG09001500WATRL000000005K00000000000000000000000000000000000 000000000000U         000000500  10000000010000049356           
CUS0900150000109256063000         NEW SHILOH BAPTIST  1910 WINDSOR AVE                        000N        CARE OF             
MTR09001500001000000000000000RA              1191872     000300260000002600000490000003NN  NNW 000   VACANT PROPERTY     N    
RDG09001500WATRL000000005K00000000000000000003209162015122735S022000000000N84       000910500K 10000000010000055388           
CUS0900150000109256067001         NEW SHILOH BAPTIST  1920 WINDSOR AVE                        000N        CARE OF             
MTR09001500001000000000000000RA              1362052     000300270000002700000490000003NN  NNW 000   VACANT PROPERTY     N    
RDG09001500WATRL000000005K00000000000000000003309162015122738S022000000000N84       000030500K 10000000010000060927           
CUS0900150000109256140006         WINCHESTER, LLC     2001-45 WINCHESTER ST                   000N        CARE OF             
MTR09001500001000000000000000RA              01116882    000200280000002800000610000003NY  NNW 000                       N    
MTM0900150001116882    BURIED                                                                                                 
RDG09001500WATRL000000005K00000000000000000000000000000000000 000000000000U         000000500  10000000010000019476           
CUS0900150000109255805005         BOLTON MCU, L.P.    1100 BOLTON ST                          000N        CARE OF             
MTR09001500001000000000000000RA              5603871     000800290000002900000410000003NN  NNW 000   FIRE SERVICE        N    
RDG09001500WATRL000000006K00000000000000958003409162015122816N000000000000N84       000380600K 10000000010000000958           
CUS0900150000109255806003         BOLTON HOUSE        1100 BOLTON ST                          000N        CARE OF             
MTR09001500001000000000000000RA              1388968     000600300000003000000490000003NN  NNW 000                       N    
RDG09001500WATRL000000006K00000000000053194003509162015122825N000000000000N84       000090600K 10000000010000050261           
CUS0900150000109431082008         QUEST CECIL HOLDINGS1123 N EUTAW ST                         000N        CARE OF             
MTR09001500001000000000000000RA              8044869     000400310000003100000380000000NN  NNW 000   FIRE SERVICE        N    
RDG09001500WATRL000000006K00000000000000004003609162015122831N000000000000N84       000060600K 10000000010000000004           
CUS0900150000109431084004         QUEST CECIL HOLDINGS1123 N EUTAW ST                         000N        CARE OF             
MTR09001500001000000000000000RA              99170708    000200320000003200000570000000NN  NNW 000                       N    
RDG09001500WATRL000000005K00000000000061450003709162015122839N000000000000N84       000080500K 10000000010000060100           
CUS0900150000109398150004         MD GENERAL PROFESSIO821 N EUTAW ST                          000N        CARE OF             
MTR09001500001000000000000000RA              E22890      000600330000003300000430000003NN  NNW 000   FIRE SERVICE        N    
RDG09001500WATRL000000006K00000000000000002003809162015122912N000000000000N84       000330600K 10000000010000000002           
CUS0900150000109438243009         JOSEPH RICHEY HOSPIC838 N EUTAW ST                          000N        CARE OF             
MTR09001500001000000000000000RA              99999999    000400340000003400000620000000NN  NNW 000   FIRE SERVICE        N    
RDG09001500WATRL000000006K00000000000000007003909162015122949N000000000000N84       000370600K 10000000010000000007           
CUS0900150000109438245004         JOSEPH RICHEY HOSPIC838 N EUTAW ST                          000N        CARE OF             
MTR09001500001000000000000000RA              60876026    001500350000003500000670000003NN  NNW 000                       N    
RDG09001500WATR 000000005R00000000000000049004009172015190000N000000000000N84       000530500R 10000000020000000023           
RFF0900150068532082      ERT      0000  956.44375000140000091720151900000000049723100W 1210001N                               
CUS0900150000109398152000         MD GENERAL PROFESSIO821 N EUTAW ST                          000N        CARE OF             
MTR09001500001000000000000000RA              60876254    000200360000003600000670000003NN  NNW 000                       N    
RDG09001500WATR 000000005R00000000000004022004109172015190000N000000000000N84       000450500R 10000000020000002304           
RFF0900150068619351      ERT      0000  956.44375000140000091720151900000004022284100W 1210001N                               
CUS0900150000109430866005         CHESAPEAKE COMMONS  601 N EUTAW ST                          000N        CARE OF             
MTR09001500001000000000000000RA              0908603     000400370000003700000640000000NY  NNW 000                       N    
MTM090015000908603     OK AMI                                                                                                 
RDG09001500WATRL000000006K00000000000000757004209162015123246N000300000010N84       000790600K 10000000010000029842           
CUS0900150000109255828007         MARYLAND GENERAL    827 LINDEN AVE                          000N        CARE OF             
MTR09001500002000000000000000RA              0700609     000600380000003800000390000003NY  NNW 000                       N    
MTM090015000700609     N/A/G/P                                                                                                
RDG09001500WATAL000000006K00000000000000000000000000000000000 000000000000U         000000600  10000000010000000015           
RDG09001500WATBL000000006K00000000000000000000000000000000000 000000000000U         000000600  10000000010000058074           
CUS0900150000109255833007         MARYLAND GENERAL    827 LINDEN AVE                          000N        CARE OF             
MTR09001500002000000000000000RA              4701087     000600390000003900000540000003NY  NNW 000                       N    
MTM090015004701087     N/A/G/P                                                                                                
RDG09001500WATAL000000006K00000000000000000000000000000000000 000000000000U         000000600  10000000010000000004           
RDG09001500WATBL000000006K00000000000000000000000000000000000 000000000000U         000000600  10000000010000005744           
CUS0900150000109425432003         MARYLAND GENERAL HOS827 LINDEN AVE                          000N        CARE OF             
MTR09001500001000000000000000RA              8038642     000600400000004000000380000003NY  NNW 000   FIRE SERVICE        N    
MTM090015008038642     OK AMI                                                                                                 
RDG09001500WATRL000000006K00000000000000019004309162015123500N000000000010N84       001340600K 10000000010000000011           
CUS0900150000109425434009         MARYLAND GENERAL HOS827 LINDEN AVE                          000N        CARE OF             
MTR09001500001000000000000000RA              0911519     000300410000004100000640000003NN  NNW 000                       N    
RDG09001500WATRL000000005K00000000000008821004409162015123506N000000000000N84       000060500K 10000000010000007289           
CUS0900150000109256157000         GULATI & COMPANY, LL302 N SMALLWOOD ST                      000N        CARE OF             
MTR09001500001000000000000000RA              35112681    000200420000004200000520000003NN  NNW 000   VACANT PROPERTY     N    
RDG09001500WATRL000000005K00000000000000028004509162015123523N000000000000N84       000170500K 10000000010000000028           
CUS0900150000109256201006         KHEE FOUR, LLC      2822 EDMONDSON AVE                      000N        CARE OF             
MTR09001500001000000000000000RA              32905096    001500430000004300000520000003NY  NNW 000                       N    
MTM0900150032905096    OK                                                                                                     
RDG09001500WATRL000000005K00000000000044646004609162015123703N000300000021N84       000350500K 10000000010000044657           
CUS0900150000109256202004         KHEE FOUR, LLC      2822 EDMONDSON AVE                      000N        CARE OF             
MTR09001500001000000000000000RA              1105114     000600440000004400000410000003NN  NNW 000   FIRE SERVICE        N    
RDG09001500WATRL000000006K00000000000000126004709162015123628N000000000000N84       000230600K 10000000010000000126           
CUS0900150000109256212003         NEFAP, INC.         230 N FRANKLINTOWN RD                   000N        CARE OF             
MTR09001500001000000000000000RA              1261742     000300450000004500000490000003NY  NNW 000                       N    
MTM090015001261742     OK                                                                                                     
RDG09001500WATRL000000005K00000000000044431004809162015123729N000300000010N84       000260500K 10000000010000052760           
CUS0900150000109256213001         NEFAP, INC.         230 N FRANKLINTOWN RD                   000N        CARE OF             
MTR09001500003000000000000000RA              2370920     000800460000004600000390000003NY  NNW 000   FIRE SERVICE        N    
MTM090015002370920     OK                                                                                                     
RDG09001500WATAL000000006K00000000000000000004909162015123741S005000000000U84       000120600K 10000000010000000113           
RDG09001500WATBL000000006K00000000000000342005009162015123751N000300000010U84       000100600K 10000000010000000348           
RDG09001500WATCL000000006K00000000000000165005109162015123804N000300000010U84       000130600K 10000000010000000166           
CUS0900150000109256214009         HARVEST PRIDE DISTRI230 N FRANKLINTOWN RD                   000N        CARE OF             
MTR09001500001000000000000000RA              00137439    005800470000004700000570000003NY  NNW 000                       N    
MTM0900150000137439    OK                                                                                                     
RDG09001500WATRL000000004K00000000000000320005209162015123825N000000000000N84       000210400K 10000000010000000320           
CUS0900150000109256836009         UNITED IRON METAL CO910 MILLINGTON AVE                      000N        CARE OF             
MTR09001500001000000000000000RA              32905135    000200480000004800000520000003NN  NNW 000                       N    
RDG09001500WATRL000000005K00000000000036366005309162015123901N000000000000N84       000360500K 10000000010000017405           
CUS0900150000109256215006         MAYFLOWER TEXTILES  2555 W LEXINGTON ST                     000N        CARE OF             
MTR09001500001000000000000000RA              1279014     000300490000004900000490000003NY  NNW 000                       N    
MTM090015001279014     C/L                                                                                                    
RDG09001500WATRL000000005K00000000000000000000000000000000000 000000000000U         000000500  10000000010000217123           
CUS0900150000109256240004         ALAFIA HOLDINGS II, 2206-12 FREDERICK AVE                   000N        CARE OF             
MTR09001500001000000000000000RA              1199148     000300500000005000000490000003NN  NNW 000   VACANT PROPERTY     N    
RDG09001500WATRL000000005K00000000000000000005409162015123942N000000000000N84       000410500K 10000000010000000000           
CUS0900150000109256223000         TERZI PROPERTIES-BAL200 S FRANKLINTOWN RD                   000N        CARE OF             
MTR09001500001000000000000000RA              01116712    000200510000005100000610000003NY  NNW 000                       N    
MTM0900150001116712    OK ERT                                                                                                 
RDG09001500WATRL000000005K00000000000000715005509162015124029N000300000010N84       000470500K 10000000010000001043           
CUS0900150000109256222002         TERZI PROPERTIES-BAL202-12 S FRANKLINTOWN RD                000N        CARE OF             
MTR09001500001000000000000000RA              5003369     000800520000005200000410000003NN  NNW 000   FIRE SERVICE        N    
RDG09001500WATRL000000006K00000000000000052005609162015124036N000000000000N84       000070600K 10000000010000000052           
CUS0900150000109256817009         2804 WILKENS AVE, LL2804 WILKENS AVE                        000N        CARE OF             
MTR09001500001000000000000000RA              1210427     000400530000005300000490000003NN  NNW 000   VACANT PROPERTY     N    
RDG09001500WATRL000000006K00000000000000000005709162015124041N000000000000N84       000050600K 10000000010000000000           
CUS0900150000109256818007         2804 WILKENS AVE, LL2804 WILKENS AVE                        000N        CARE OF             
MTR09001500001000000000000000RA              2176094     000800540000005400000410000000NN  NNW 000   FIRE SERVICE        N    
RDG09001500WATRL000000006K00000000000000056005809162015124047N000000000000N84       000060600K 10000000010000000056           
CUS0900150000109256683005         UP-TO-DATE LAUNDRY, 1215-21 DESOTO RD                       000N        CARE OF             
MTR09001500001000000000000000RA              1153327     000400550000005500000490000003NY  NNW 000                       N    
MTM090015001153327     OK ERT                                                                                                 
RDG09001500WATRL000000006K00000000000008926005909162015124130N000300000010N84       000430600K 10000000010000070436           
CUS0900150000109256811002         PARK & SHIN HOLDINGS601-15 S LONGWOOD ST                    000N        CARE OF             
MTR09001500001000000000000000RA              1362449     000300560000005600000490000003NN  NNW 000                       N    
RDG09001500WATRL000000005K00000000000011687006009162015124213N000000000000N84       000430500K 10000000010000005016           
CUS0900150000109256731002         ST AGNES HEALTHCARE 900 S CATON AVE                         000N        CARE OF             
MTR09001500002000000000000000RA              3664625     000600570000005700000540000003NN  NNW 000   VACANT PROPERTY     N    
RDG09001500WATAL000000006K00000000000000002006109162015124220N000000000000N84       000070600K 10000000010000000002           
RDG09001500WATBL000000006K00000000000000001006209162015124226N000100000010N84       000060600K 10000000010000000001           
CUS0900150000109256734006         TSUNAMI II, LLC     3455 WILKENS AVE                        000N        CARE OF             
MTR09001500001000000000000000RA              32905157    000200580000005800000520000003NY  NNW 000                       N    
MTM0900150032905157    OK ERT                                                                                                 
RDG09001500WATRL000000005K00000000000000014006309162015124319N000300000010N84       000530500K 10000000010000022445           
CUS0900150000109429581003         MT ST JOSEPH COLLEGE4403 FREDERICK AVE                      000N        CARE OF             
MTR09001500002000000000000000RA              70073524    000800590000005900000560000003NN  NNW 000                       N    
RDG09001500WATAL000000006K00000000000000399006409162015124330N000400000010N84       000110600K 10000000010000000398           
RDG09001500WATBL000000006K00000000000014066006509162015124342N000400000010N84       000120600K 10000000010000013124           
CUS0900150000109256805004         MT. ST. JOSEPH COLLE4301 FREDERICK AVE                      000N        CARE OF             
MTR09001500001000000000000000RA              29768445    000200600000006000000520000003NY  NNW 000                       N    
MTM0900150029768445    OK AMI                                                                                                 
RDG09001500WATRL000000005K00000000000000082006609162015124423N000300000010N84       000410500K 10000000010000046555           
CUS0900150000109256742009         UNILEVER MANUFACTURI3701 SOUTHWESTERN BLVD                  000N        CARE OF             
MTR09001500002000000000000000RA              4715422     000800610000006100000540000003NN  NNW 000                       N    
