FHDNNNN046009653009653009653N                                                                                           032331
RHD06963500NN02100210000002100000000002100210000255NY021002100210000100020000000000000000000002    08252015NY020000 N         
CUS0696350000106109512001         BERKEY JOHN,JR      1789 BROOKVIEW RD                       000N        CARE OF             
MTR06963500001000000000000000RA              45387215    005800010000000100000520000003NN  NNW 000                       N    
RDG06963500WATRL000000004K00000000000001448000109042015112528N000000000000N40       000000400K 10000000010000001438           
CUS0696350000106109513009         BUETTNER JOHN R,JR  1787 BROOKVIEW RD                       000N        CARE OF             
MTR06963500001000000000000000RA              41081661    005800020000000200000520000003NN  NNW 000                       N    
RDG06963500WATRL000000004K00000000000002150000209042015112550N000000000000N40       000220400K 10000000010000002146           
CUS0696350000106109514007         STEVENS DAVID       1785 BROOKVIEW RD                       000N        CARE OF             
MTR06963500001000000000000000RA              01111951    005800030000000300000610000003NN  NNW 000                       N    
RDG06963500WATRL000000004K00000000000000894000309042015112620N000000000000N40       000300400K 10000000010000000886           
CUS0696350000106109515004         ROBERT C BERKSHIRE J1783 BROOKVIEW RD                       000N        CARE OF             
MTR06963500001000000000000000RA              54352490    005800040000000400000520000003NN  NNW 000                       N    
RDG06963500WATRL000000004K00000000000001109000409042015112650N000000000000N40       000300400K 10000000010000001092           
CUS0696350000106109516002         BONITA M LEE        1781 BROOKVIEW RD                       000N        CARE OF             
MTR06963500001000000000000000RA              40322280    005800050000000500000520000003NN  NNW 000                       N    
RDG06963500WATRL000000004K00000000000001693000509042015112715N000000000000N40       000250400K 10000000010000001687           
CUS0696350000106109517000         CAPPELLI JACK H     1779 BROOKVIEW RD                       000N        CARE OF             
MTR06963500001000000000000000RA              45375515    005800060000000600000520000003NN  NNW 000                       N    
RDG06963500WATRL000000004K00000000000001651000609042015113049N000000000000N40       002140400K 10000000010000001645           
CUS0696350000106109518008         PERDUE BETTY GAY    1777 BROOKVIEW RD                       000N        CARE OF             
MTR06963500001000000000000000RA              41258030    005800070000000700000520000003NN  NNW 000                       N    
RDG06963500WATRL000000004K00000000000001376000709042015113123N000000000000N40       000340400K 10000000010000001371           
CUS0696350000106109519006         RIGSBY DANNY RAY    1775 BROOKVIEW RD                       000N        CARE OF             
MTR06963500001000000000000000RA              27134131    005800080000000800000520000003NN  NNW 000                       N    
RDG06963500WATRL000000004K00000000000003394000809042015113200N000000000000N40       000370400K 10000000010000003380           
CUS0696350000106109520004         PARKER CHARLES      1773 BROOKVIEW RD                       000N        CARE OF             
MTR06963500001000000000000000RA              46886888    005800090000000900000520000003NN  NNW 000                       N    
RDG06963500WATRL000000004K00000000000001842000909042015113223N000000000000N40       000230400K 10000000010000001834           
CUS0696350000106109521002         BATTEN GLENN T      1771 BROOKVIEW RD                       000N        CARE OF             
MTR06963500001000000000000000RA              14903868    005800100000001000000520000003NN  NNW 000                       N    
RDG06963500WATRL000000004K00000000000000716001009042015113308N000000000000N40       000450400K 10000000010000000701           
CUS0696350000106109522000         SCHRIEFER ALLAN L   1769 BROOKVIEW RD                       000N        CARE OF             
MTR06963500001000000000000000RA              14912440    005800110000001100000310000003NN  NNW 000                       N    
RDG06963500WATRL000000004K00000000000000318001109042015113346N000400000010N40       000380400K 10000000010000000314           
CUS0696350000106109523008         BAUMGART KIRK M     1767 BROOKVIEW RD                       000N        CARE OF             
MTR06963500001000000000000000RA              45386256    005800120000001200000520000003NN  NNW 000                       N    
RDG06963500WATRL000000004K00000000000000707001209042015113413N000000000000N40       000270400K 10000000010000000707           
CUS0696350000106109524006         BOLESCHAK WILLIAM J,1765 BROOKVIEW RD                       000N        CARE OF             
MTR06963500001000000000000000RA              26018359    005800130000001300000520000003NN  NNW 000                       N    
RDG06963500WATRL000000004K00000000000004631001309042015113448N000000000000N40       000350400K 10000000010000004613           
CUS0696350000106109525003         FORTNEY JAMIE       1763 BROOKVIEW RD                       000N        CARE OF             
MTR06963500001000000000000000RA              10002690    005800140000001400000570000003NN  NNW 000                       N    
RDG06963500WATRL000000004K00000000000001261001409042015113517N000000000000N40       000290400K 10000000010000001223           
CUS0696350000106109526001         JUNKER PATRICIA LEE 1761 BROOKVIEW RD                       000N        CARE OF             
MTR06963500001000000000000000RA              01073905    005800150000001500000610000003NN  NNW 000                       N    
RDG06963500WATRL000000004K00000000000000694001509042015113601N000000000000N40       000440400K 10000000010000000694           
CUS0696350000106109527009         POREMSKI JOSEPH M   1759 BROOKVIEW RD                       000N        CARE OF             
MTR06963500001000000000000000RA              48590893    005800160000001600000520000003NN  NNW 000                       N    
RDG06963500WATRL000000004K00000000000001544001609042015113636N000000000000N40       000350400K 10000000010000001516           
CUS0696350000106109528007         PRICE JOYCE L       1757 BROOKVIEW RD                       000N        CARE OF             
MTR06963500001000000000000000RA              14923279    005800170000001700000310000003NN  NNW 000                       N    
RDG06963500WATRL000000004K00000000000000845001709042015113711N000000000000N40       000350400K 10000000010000000819           
CUS0696350000106109529005         MAUL CHARLES R,JR   1755 BROOKVIEW RD                       000N        CARE OF             
MTR06963500001000000000000000RA              14911923    005800180000001800000310000003NN  NNW 000                       N    
RDG06963500WATRL000000004K00000000000000455001809042015113748N000400000010N40       000370400K 10000000010000000450           
CUS0696350000106109530003         MOUBRAY JAMES C,JR  1753 BROOKVIEW RD                       000N        CARE OF             
MTR06963500001000000000000000RA              45374144    005800190000001900000520000003NN  NNW 000                       N    
RDG06963500WATRL000000004K00000000000002751001909042015113828N000000000000N40       000400400K 10000000010000002728           
CUS0696350000106109531001         CRICKENBERGER EARL C1751 BROOKVIEW RD                       000N        CARE OF             
MTR06963500001000000000000000RA              01073855    005800200000002000000610000003NN  NNW 000                       N    
RDG06963500WATRL000000004K00000000000000831002009042015113859N000000000000N40       000310400K 10000000010000000821           
CUS0696350000106109532009         RYAN J MILBURNE     1749 BROOKVIEW RD                       000N        CARE OF             
MTR06963500001000000000000000RA              27133207    005800210000002100000520000003NN  NNW 000                       N    
RDG06963500WATRL000000004K00000000000002419002109042015113939N000000000000N40       000400400K 10000000010000002404           
CUS0696350000106109533007         MERRITT WILLIAM L   1747 BROOKVIEW RD                       000N        CARE OF             
MTR06963500001000000000000000RA              31581583    005800220000002200000520000003NN  NNW 000                       N    
RDG06963500WATRL000000004K00000000000002632002209042015114026N000000000000N40       000470400K 10000000010000002618           
CUS0696350000106109534005         LUCKERT JOSEPH WILLI1745 BROOKVIEW RD                       000N        CARE OF             
MTR06963500001000000000000000RA              01073851    005800230000002300000610000003NN  NNW 000                       N    
RDG06963500WATRL000000004K00000000000000683002309042015114129N000100000010N40       000630400K 10000000010000000683           
CUS0696350000106109535002         EDWARD F CAMALIER, J1743 BROOKVIEW RD                       000N        CARE OF             
MTR06963500001000000000000000RA              01073850    005800240000002400000610000003NN  NNW 000                       N    
RDG06963500WATRL000000004K00000000000001380002409042015114208N000000000000N40       000390400K 10000000010000001339           
CUS0696350000106109536000         SHORTT PAUL T       1741 BROOKVIEW RD                       000N        CARE OF             
MTR06963500001000000000000000RA              54349174    005800250000002500000520000003NN  NNW 000                       N    
RDG06963500WATRL000000004K00000000000001982002509042015114235N000000000000N40       000270400K 10000000010000001963           
CUS0696350000106109537008         DONAHUE RICHARD J   1739 BROOKVIEW RD                       000N        CARE OF             
MTR06963500001000000000000000RA              01071365    005800260000002600000610000003NN  NNW 000                       N    
RDG06963500WATRL000000004K00000000000001040002609042015114324N000000000000N40       000490400K 10000000010000001028           
CUS0696350000106109538006         HARDY DONNA RAE     1737 BROOKVIEW RD                       000N        CARE OF             
MTR06963500001000000000000000RA              01100662    005800270000002700000610000003NN  NNW 000                       N    
RDG06963500WATRL000000004K00000000000000748002709042015114428N000400000010N40       000640400K 10000000010000000728           
CUS0696350000106109539004         BURGESS MARK        1735 BROOKVIEW RD                       000N        CARE OF             
MTR06963500001000000000000000RA              01114310    005800280000002800000610000003NN  NNW 000                       N    
RDG06963500WATRL000000004K00000000000000978002809042015114505N000300000010N40       000370400K 10000000010000000453           
CUS0696350000106109540002         PRESCIMONE CARMELO C1733 BROOKVIEW RD                       000N        CARE OF             
MTR06963500001000000000000000RA              45382659    005800290000002900000520000003NN  NNW 000                       N    
RDG06963500WATRL000000004K00000000000002354002909042015114641N000000000000N40       000960400K 10000000010000002330           
CUS0696350000106109541000         MCGRADY VICTOR L    1731 BROOKVIEW RD                       000N        CARE OF             
MTR06963500001000000000000000RA              52290632    005800300000003000000520000003NN  NNW 000                       N    
RDG06963500WATRL000000004K00000000000001015003009042015114706N000000000000N40       000250400K 10000000010000000999           
CUS0696350000106109542008         CHAUNCEY AARON S    1729 BROOKVIEW RD                       000N        CARE OF             
MTR06963500001000000000000000RA              01104142    005800310000003100000610000003NN  NNW 000                       N    
RDG06963500WATRL000000004K00000000000000965003109042015114733N000000000000N40       000270400K 10000000010000000948           
CUS0696350000106109543006         VANDEVANDER JOHNNY G1727 BROOKVIEW RD                       000N        CARE OF             
MTR06963500001000000000000000RA              54349175    005800320000003200000520000003NN  NNW 000                       N    
RDG06963500WATRL000000004K00000000000000820003209042015114813N000000000000N40       000400400K 10000000010000000814           
CUS0696350000106109544004         SNYDER JERRY R JR   1725 BROOKVIEW RD                       000N        CARE OF             
MTR06963500001000000000000000RA              00138612    005800330000003300000570000003NN  NNW 000                       N    
RDG06963500WATRL000000004K00000000000001265003309042015114850N000000000000N40       000370400K 10000000010000001247           
CUS0696350000106109545001         PHAM HIEN T         1723 BROOKVIEW RD                       000N        CARE OF             
MTR06963500001000000000000000RA              01082252    005800340000003400000610000003NN  NNW 000                       N    
RDG06963500WATRL000000004K00000000000000805003409042015114916N000000000000N40       000260400K 10000000010000000789           
CUS0696350000106109546009         KIMBERLY RICHARDS   1721 BROOKVIEW RD                       000N        CARE OF             
MTR06963500001000000000000000RA              52770480    005800350000003500000520000003NN  NNW 000                       N    
RDG06963500WATRL000000004K00000000000000424003509042015114946N000000000000N40       000300400K 10000000010000000412           
CUS0696350000106109547007         HELEN A FRENCH      1719 BROOKVIEW RD                       000N        CARE OF             
MTR06963500001000000000000000RA              41080037    005800360000003600000520000003NN  NNW 000                       N    
RDG06963500WATRL000000004K00000000000000924003609042015115017N000000000000N40       000310400K 10000000010000000921           
CUS0696350000106109548005         FLORES CANDELARIA D 1717 BROOKVIEW RD                       000N        CARE OF             
MTR06963500001000000000000000RA              48583170    005800370000003700000520000003NN  NNW 000                       N    
RDG06963500WATRL000000004K00000000000000005003709042015115055N000300000010N40       000380400K 10000000010000001096           
CUS0696350000106109549003         SCHAEKEL JAMES W    1715 BROOKVIEW RD                       000N        CARE OF             
MTR06963500001000000000000000RA              14918870    005800380000003800000310000003NN  NNW 000                       N    
RDG06963500WATRL000000004K00000000000000231003809042015115125N000000000000N40       000300400K 10000000010000000228           
CUS0696350000106109567005         WALTER CHARLES R    7126 RAILWAY AVE                        000N        CARE OF             
MTR06963500001000000000000000RA              10017362    005800390000003900000570000003NN  NNW 000                       N    
RDG06963500WATRL000000004K00000000000000070003909042015115727N000300000031N40       003030400K 10000000010000000050           
CUS0696350000106109588001         CAPP CHARLES E      1718 BROOKVIEW RD                       000N        CARE OF             
MTR06963500001000000000000000RA              52290778    005800400000004000000520000003NN  NNW 000                       N    
RDG06963500WATRL000000004K00000000000001740004009042015115826N000400000021N40       000590400K 10000000010000001737           
CUS0696350000106109589009         ERVIN JEFFREY A     1720 BROOKVIEW RD                       000N        CARE OF             
MTR06963500001000000000000000RA              39583336    005800410000004100000520000003NN  NNW 000                       N    
RDG06963500WATRL000000004K00000000000004553004109042015115900N000000000000N40       000340400K 10000000010000004520           
CUS0696350000106109590007         SCRIVANI EDWARD J   1722 BROOKVIEW RD                       000N        CARE OF             
MTR06963500001000000000000000RA              10015590    005800420000004200000570000003NN  NNW 000                       N    
RDG06963500WATRL000000004K00000000000000069004209042015115933N000000000000N40       000330400K 10000000010000000067           
CUS0696350000106109591005         JAMES J SCRIVANI    1724 BROOKVIEW RD                       000N        CARE OF             
MTR06963500001000000000000000RA              24764980    005800430000004300000520000003NN  NNW 000                       N    
RDG06963500WATRL000000004K00000000000001038004309042015120021N000300000010N40       000480400K 10000000010000001054           
CUS0696350000106109592003         MILLAN EDWIN        1726 BROOKVIEW RD                       000N        CARE OF             
MTR06963500001000000000000000RA              01100827    005800440000004400000610000003NN  NNW 000                       N    
RDG06963500WATRL000000004K00000000000002083004409042015120107N000000000000N40       000460400K 10000000010000002000           
CUS0696350000106109593001         PETERS DANIELLE A   1728 BROOKVIEW RD                       000N        CARE OF             
MTR06963500001000000000000000RA              50788150    005800450000004500000520000003NN  NNW 000                       N    
RDG06963500WATRL000000004K00000000000000413004509042015120156N000000000000N40       000490400K 10000000010000000394           
CUS0696350000106109594009         MILLER KAREN L      1730 BROOKVIEW RD                       000N        CARE OF             
MTR06963500001000000000000000RA              36696871    005800460000004600000520000003NN  NNW 000                       N    
RDG06963500WATRL000000004K00000000000002920004609042015120253N000000000000N40       000570400K 10000000010000002897           
CUS0696350000106109595006         TAGG JAMES J        1732 BROOKVIEW RD                       000N        CARE OF             
MTR06963500001000000000000000RA              23055241    005800470000004700000520000003NN  NNW 000                       N    
RDG06963500WATRL000000004K00000000000004510004709042015120422N000000000000N40       000890400K 10000000010000004504           
CUS0696350000106109596004         SAPPE WILLIAM THOMAS1734 BROOKVIEW RD                       000N        CARE OF             
MTR06963500001000000000000000RA              26002419    005800480000004800000520000003NN  NNW 000                       N    
RDG06963500WATRL000000004K00000000000002659004809042015120512N000000000000N40       000500400K 10000000010000002653           
CUS0696350000106109597002         JOHNSON JOHN E      1736 BROOKVIEW RD                       000N        CARE OF             
MTR06963500001000000000000000RA              01073852    005800490000004900000610000003NN  NNW 000                       N    
RDG06963500WATRL000000004K00000000000000669004909042015120549N000000000000N40       000370400K 10000000010000000665           
CUS0696350000106109598000         JULIA SHIFLETT      1738 BROOKVIEW RD                       000N        CARE OF             
MTR06963500001000000000000000RA              76345057    005800500000005000000350000003NN  NNW 000                       N    
RDG06963500WATRL000000004K00000000000000075005009042015120630N000000000000N40       000410400K 10000000010000000053           
CUS0696350000106109599008         ISMAEIL VANISHA BAIL1740 BROOKVIEW RD                       000N        CARE OF             
MTR06963500001000000000000000RA              01110341    005800510000005100000610000003NN  NNW 000                       N    
RDG06963500WATRL000000004K00000000000000796005109042015120705N000000000000N40       000350400K 10000000010000000779           
CUS0696350000106109600004         MR & MRS THOMAS PRES1742 BROOKVIEW RD                       000N        CARE OF             
MTR06963500001000000000000000RA              41081660    005800520000005200000520000003NN  NNW 000                       N    
RDG06963500WATRL000000004K00000000000001670005209042015120744N000000000000N40       000390400K 10000000010000001660           
CUS0696350000106109601002         BOSTON ROBERT W     1744 BROOKVIEW RD                       000N        CARE OF             
MTR06963500001000000000000000RA              14926555    005800530000005300000310000003NN  NNW 000                       N    
RDG06963500WATRL000000004K00000000000000471005309042015120829N000000000000N40       000450400K 10000000010000000456           
CUS0696350000106109602000         MAX A BURGESS       1746 BROOKVIEW RD                       000N        CARE OF             
MTR06963500001000000000000000RA              14923856    005800540000005400000310000003NN  NNW 000                       N    
RDG06963500WATRL000000004K00000000000000679005409042015120915N000400000010N40       000460400K 10000000010000000661           
CUS0696350000106109603008         KIRK BONNIE J       1748 BROOKVIEW RD                       000N        CARE OF             
MTR06963500001000000000000000RA              48591324    005800550000005500000520000003NN  NNW 000                       N    
RDG06963500WATRL000000004K00000000000001163005509042015121004N000000000000N40       000490400K 10000000010000001149           
CUS0696350000106109604006         DAILEY EDWARD M     1750 BROOKVIEW RD                       000N        CARE OF             
MTR06963500001000000000000000RA              35109831    005800560000005600000520000003NN  NNW 000                       N    
RDG06963500WATRL000000004K00000000000002433005609042015121103N000000000000N40       000590400K 10000000010000002416           
CUS0696350000106109605003         MCHENRY GEORGE D,JR 1752 BROOKVIEW RD                       000N        CARE OF             
MTR06963500001000000000000000RA              11330295    005800570000005700000570000003NN  NNW 000                       N    
RDG06963500WATRL000000004K00000000000002132005709042015121158N000300000010N40       000550400K 10000000010000002270           
CUS0696350000106109606001         ECKERT JOHN D       1754 BROOKVIEW RD                       000N        CARE OF             
MTR06963500001000000000000000RA              50790366    005800580000005800000520000003NN  NNW 000                       N    
RDG06963500WATRL000000004K00000000000001720005809042015121230N000400000010N40       000320400K 10000000010000001708           
CUS0696350000106109607009         HENSLER MELVIN,JR   1756 BROOKVIEW RD                       000N        CARE OF             
MTR06963500001000000000000000RA              14922876    005800590000005900000310000003NN  NNW 000                       N    
RDG06963500WATRL000000004K00000000000001017005909042015121305N000000000000N40       000350400K 10000000010000000998           
CUS0696350000106109608007         KOS GEORGE W        1758 BROOKVIEW RD                       000N        CARE OF             
MTR06963500001000000000000000RA              77883428    005800600000006000000360000003NN  NNW 000                       N    
RDG06963500WATRL000000004K00000000000000020006009042015121350N000000000010N40       000450400K 10000000010000000000           
CUS0696350000106109609005         CHRISTINE BONITA BRO1760 BROOKVIEW RD                       000N        CARE OF             
MTR06963500001000000000000000RA              99186996    005800610000006100000570000003NN  NNW 000                       N    
RDG06963500WATRL000000004K00000000000000602006109042015121451N000400000010N40       000610400K 10000000010000000599           
CUS0696350000106109610003         QUINN JOHN M        1762 BROOKVIEW RD                       000N        CARE OF             
MTR06963500001000000000000000RA              41080686    005800620000006200000520000003NN  NNW 000                       N    
RDG06963500WATRL000000004K00000000000002146006209042015121522N000000000000N40       000310400K 10000000010000002135           
CUS0696350000106109611001         SPROUSE LYNN CAROL  1764 BROOKVIEW RD                       000N        CARE OF             
MTR06963500001000000000000000RA              36696870    005800630000006300000520000003NN  NNW 000                       N    
RDG06963500WATRL000000004K00000000000003324006309042015121550N000000000000N40       000280400K 10000000010000003308           
CUS0696350000106109612009         BEAUCHAMP KEVIN     1766 BROOKVIEW RD                       000N        CARE OF             
MTR06963500001000000000000000RA              36696872    005800640000006400000520000003NN  NNW 000                       N    
RDG06963500WATRL000000004K00000000000002212006409042015121704N000000000000N40       000740400K 10000000010000002212           
CUS0696350000106109613007         LIPINSKI GERARD S   1768 BROOKVIEW RD                       000N        CARE OF             
MTR06963500001000000000000000RA              99288451    005800650000006500000570000003NN  NNW 000                       N    
RDG06963500WATRL000000004K00000000000001633006509042015121758N000000000000N40       000540400K 10000000010000001607           
CUS0696350000106109614005         BELCHER DONALD R    1770 BROOKVIEW RD                       000N        CARE OF             
MTR06963500001000000000000000RA              54349171    005800660000006600000520000003NN  NNW 000                       N    
RDG06963500WATRL000000004K00000000000001389006609042015121830N000300000010N40       000320400K 10000000010000001343           
CUS0696350000106109615002         GEORGE EARHART      1772 BROOKVIEW RD                       000N        CARE OF             
MTR06963500001000000000000000RA              32177938    005800670000006700000520000003NN  NNW 000                       N    
RDG06963500WATRL000000004K00000000000002610006709042015121916N000000000000N40       000460400K 10000000010000002599           
CUS0696350000106109616000         SNYDER CARL J       1774 BROOKVIEW RD                       000N        CARE OF             
MTR06963500001000000000000000RA              01073890    005800680000006800000610000003NN  NNW 000                       N    
RDG06963500WATRL000000004K00000000000001224006809042015121945N000000000000N40       000290400K 10000000010000001207           
CUS0696350000106109617008         FREELAND JAMES A    1776 BROOKVIEW RD                       000N        CARE OF             
MTR06963500001000000000000000RA              45385766    005800690000006900000520000003NN  NNW 000                       N    
RDG06963500WATRL000000004K00000000000002104006909042015122022N000300000010N40       000370400K 10000000010000002553           
CUS0696350000106109618006         STEFANOWICZ JOHN W,S1778 BROOKVIEW RD                       000N        CARE OF             
MTR06963500001000000000000000RA              78022586    005800700000007000000350000003NN  NNW 000                       N    
RDG06963500WATRL000000004K00000000000000057007009042015122108N000000000000N40       000460400K 10000000010000000041           
CUS0696350000106109619004         SNYDER LAILA        1780 BROOKVIEW RD                       000N        CARE OF             
MTR06963500001000000000000000RA              11328363    005800710000007100000570000003NN  NNW 000                       N    
RDG06963500WATRL000000004K00000000000003499007109042015122148N000000000000N40       000400400K 10000000010000003488           
CUS0696350000106109620002         TEVIS, JOSHUA P.    1782 BROOKVIEW RD                       000N        CARE OF             
MTR06963500001000000000000000RA              38985643    005800720000007200000520000003NN  NNW 000                       N    
RDG06963500WATRL000000004K00000000000002310007209042015122227N000000000000N40       000390400K 10000000010000002307           
CUS0696350000106109621000         NEUGENT WILLIAM     1784 BROOKVIEW RD                       000N        CARE OF             
MTR06963500001000000000000000RA              30518060    005800730000007300000520000003NN  NNW 000                       N    
RDG06963500WATRL000000004K00000000000001803007309042015122319N000000000000N40       000520400K 10000000010000001781           
CUS0696350000106109622008         MAJORS CAROLYN      1786 BROOKVIEW RD                       000N        CARE OF             
MTR06963500001000000000000000RA              27826731    005800740000007400000520000003NN  NNW 000                       N    
RDG06963500WATRL000000004K00000000000003542007409042015122443N000300000010N40       000840400K 10000000010000004374           
CUS0696350000106109623006         STERLE JOHN J,JR    1788 BROOKVIEW RD                       000N        CARE OF             
MTR06963500001000000000000000RA              31581991    005800750000007500000520000003NN  NNW 000                       N    
RDG06963500WATRL000000004K00000000000001822007509042015122753N000000000000N40       001900400K 10000000010000001815           
CUS0696350000106109624004         JACK H COPPELLI     1790 BROOKVIEW RD                       000N        CARE OF             
MTR06963500001000000000000000RA              41082089    005800760000007600000520000003NY  NNW 000                       N    
MTM0696350041082089    CAR OVER METER                                                                                         
RDG06963500WATRL000000004K00000000000001954000109052015072607N000000000000U40       000000400K 10000000010000001942           
CUS0696350000106109625001         DILSHAD OADIR       7164 HOLABIRD AVE                       000N        CARE OF             
MTR06963500001000000000000000RA              35097766    005800770000007700000520000003NN  NNW 000                       N    
RDG06963500WATRL000000004K00000000000002809003209052015080540N000100000010U40       000220400K 10000000010000002809           
CUS0696350000106109626009         KIMMICH MARTHA EMMA 7158 HOLABIRD AVE                       000N        CARE OF             
MTR06963500001000000000000000RA              01073894    005800780000007800000610000003NN  NNW 000                       N    
RDG06963500WATRL000000004K00000000000001238003109052015080518N000000000000U40       000330400K 10000000010000001238           
CUS0696350000106109627007         KIMMICH MARTHA EMMA 7156 HOLABIRD AVE                       000N        CARE OF             
MTR06963500001000000000000000RA              35102107    005800790000007900000520000003NN  NNW 000                       N    
RDG06963500WATRL000000004K00000000000001402003009052015080445N000000000000U40       001070400K 10000000010000001402           
CUS0696350000106109628005         JOHN KOLLNER        1957 WALNUT AVE                         000N        CARE OF             
MTR06963500001000000000000000RA              77988470    005800800000008000000360000003NN  NNW 000                       N    
RDG06963500WATRL000000004K00000000000000218002909052015080258N000000000000U40       000490400K 10000000010000000159           
CUS0696350000106109629003         HICKMAN WILLIAM N   1955 WALNUT AVE                         000N        CARE OF             
MTR06963500001000000000000000RA              33729668    005800810000008100000520000003NN  NNW 000                       N    
RDG06963500WATRL000000004K00000000000001696002809052015080209N000300000010U40       000410400K 10000000010000002060           
CUS0696350000106109630001         BORDINE PAUL F      1953 WALNUT AVE                         000N        CARE OF             
MTR06963500001000000000000000RA              99290469    005800820000008200000570000003NN  NNW 000                       N    
RDG06963500WATRL000000004K00000000000001734002709052015080128N000000000000U40       000330400K 10000000010000001695           
CUS0696350000106109631009         NOE DONALD W        1951 WALNUT AVE                         000N        CARE OF             
MTR06963500001000000000000000RA              46886885    005800830000008300000520000003NN  NNW 000                       N    
RDG06963500WATRL000000004K00000000000001314002609052015080055N000000000000U40       001400400K 10000000010000001294           
CUS0696350000106109632007         COPELAND MATTHEW R  1949 WALNUT AVE                         000N        CARE OF             
MTR06963500001000000000000000RA              35115406    005800840000008400000520000003NY  NNW 000                       N    
MTM0696350035115406    CLEAN OUT                                                                                              
RDG06963500WATRL000000004K00000000000000000000000000000000000 000000000000U         000000400  10000000010000000633           
CUS0696350000106109633005         HARRY L STACKEVICH  1947 WALNUT AVE                         000N        CARE OF             
MTR06963500001000000000000000RA              14900437    005800850000008500000310000003NN  NNW 000                       N    
RDG06963500WATRL000000004K00000000000000173002509052015075835N000000000000U40       000360400K 10000000010000000166           
CUS0696350000106109634003         EXTER JOHN C,3RD    1945 WALNUT AVE                         000N        CARE OF             
MTR06963500001000000000000000RA              38887482    005800860000008600000520000003NN  NNW 000                       N    
RDG06963500WATRL000000004K00000000000003186002409052015075759N000000000000U40       000290400K 10000000010000003158           
CUS0696350000106109635000         TIRSCHMAN JEAN A    1943 WALNUT AVE                         000N        CARE OF             
MTR06963500001000000000000000RA              41088138    005800870000008700000520000003NN  NNW 000                       N    
RDG06963500WATRL000000004K00000000000004246002309052015075730N000000000000U40       000320400K 10000000010000004203           
CUS0696350000106109636008         HAMMOND KAREN R     1941 WALNUT AVE                         000N        CARE OF             
MTR06963500001000000000000000RA              45386797    005800880000008800000520000003NN  NNW 000                       N    
RDG06963500WATRL000000004K00000000000001042002209052015075658N000000000000U40       000400400K 10000000010000001034           
CUS0696350000106109637006         WEST THOMAS E,JR    1939 WALNUT AVE                         000N        CARE OF             
MTR06963500001000000000000000RA              41075561    005800890000008900000520000003NN  NNW 000                       N    
RDG06963500WATRL000000004K00000000000002248002109052015075618N000000000000U40       000440400K 10000000010000002240           
CUS0696350000106109638004         BENJAMIN A KIMBEL   1937 WALNUT AVE                         000N        CARE OF             
MTR06963500001000000000000000RA              32904467    005800900000009000000520000003NN  NNW 000                       N    
RDG06963500WATRL000000004K00000000000003209002009052015075534N000000000000U40       000600400K 10000000010000003191           
CUS0696350000106109639002         SILVER CASA, INC    1935 WALNUT AVE                         000N        CARE OF             
MTR06963500001000000000000000RA              01073900    005800910000009100000610000003NN  NNW 000                       N    
RDG06963500WATRL000000004K00000000000000756001909052015075434N000000000000U40       000420400K 10000000010000000748           
CUS0696350000106109640000         WELLS G JACQUES     1933 WALNUT AVE                         000N        CARE OF             
MTR06963500001000000000000000RA              01073909    005800920000009200000610000003NN  NNW 000                       N    
RDG06963500WATRL000000004K00000000000001183001809052015075352N000000000000U40       000400400K 10000000010000001170           
CUS0696350000106109641008         MR. & MRS. MARTIN   1931 WALNUT AVE                         000N        CARE OF             
MTR06963500001000000000000000RA              45380563    005800930000009300000520000003NN  NNW 000                       N    
RDG06963500WATRL000000004K00000000000001869001709052015075312N000000000000U40       000470400K 10000000010000001855           
CUS0696350000106109642006         CAIN ELVERA A       1929 WALNUT AVE                         000N        CARE OF             
MTR06963500001000000000000000RA              38985641    005800940000009400000520000003NN  NNW 000                       N    
RDG06963500WATRL000000004K00000000000002908001609052015075225N000000000000U40       000630400K 10000000010000002884           
CUS0696350000106109643004         WISNIEWSKI DIANE    1927 WALNUT AVE                         000N        CARE OF             
MTR06963500001000000000000000RA              01073908    005800950000009500000610000003NN  NNW 000                       N    
RDG06963500WATRL000000004K00000000000000986001509052015075122N000000000000U40       000530400K 10000000010000000977           
CUS0696350000106109644002         PHIPPS JOAN         1925 WALNUT AVE                         000N        CARE OF             
MTR06963500001000000000000000RA              45385765    005800960000009600000520000003NN  NNW 000                       N    
RDG06963500WATRL000000004K00000000000002370001409052015075029N000000000000U40       000330400K 10000000010000002360           
CUS0696350000106109645009         DILLON PHILLIP W    1923 WALNUT AVE                         000N        CARE OF             
MTR06963500001000000000000000RA              22607826    005800970000009700000520000003NN  NNW 000                       N    
RDG06963500WATRL000000004K00000000000003104001309052015074956N000000000000U40       000400400K 10000000010000003089           
CUS0696350000106109646007         VIRGINIA C RUTH     1921 WALNUT AVE                         000N        CARE OF             
MTR06963500001000000000000000RA              10013428    005800980000009800000570000003NN  NNW 000                       N    
RDG06963500WATRL000000004K00000000000000062001209052015074916N000000000000U40       000400400K 10000000010000000062           
CUS0696350000106109647005         ELPIDIO GARCIA      1919 WALNUT AVE                         000N        CARE OF             
MTR06963500001000000000000000RA              77889267    005800990000009900000360000003NN  NNW 000                       N    
RDG06963500WATRL000000004K00000000000000017001109052015074836N000000000010U40       000330400K 10000000010000000000           
CUS0696350000106109648003         SNOOKS CONNIE F     1917 WALNUT AVE                         000N        CARE OF             
MTR06963500001000000000000000RA              01073903    005801000000010000000610000003NN  NNW 000                       N    
RDG06963500WATRL000000004K00000000000002629001009052015074803N000000000000U40       000410400K 10000000010000002603           
CUS0696350000106109649001         KRUE AUDREY D       1915 WALNUT AVE                         000N        CARE OF             
MTR06963500001000000000000000RA              00130951    005801010000010100000570000003NN  NNW 000                       N    
RDG06963500WATRL000000004K00000000000001880000909052015074722N000000000000U40       001100400K 10000000010000001862           
CUS0696350000106109650009         DANIELSON STEVEN R T1913 WALNUT AVE                         000N        CARE OF             
MTR06963500001000000000000000RA              01073891    005801020000010200000610000003NN  NNW 000                       N    
RDG06963500WATRL000000004K00000000000000000000809052015074532S022000000000U40       000950400K 10000000010000000765           
CUS0696350000106109651007         MARIE C MOSLEY      1911 WALNUT AVE                         000N        CARE OF             
MTR06963500001000000000000000RA              50478299    005801030000010300000520000003NN  NNW 000                       N    
RDG06963500WATRL000000004K00000000000001383000709052015074357N000000000000U40       000420400K 10000000010000001383           
CUS0696350000106109652005         FELICIANO PEDRO A   1909 WALNUT AVE                         000N        CARE OF             
MTR06963500001000000000000000RA              45382588    005801040000010400000520000003NN  NNW 000                       N    
RDG06963500WATRL000000004K00000000000003131000609052015074315N000000000000U40       000410400K 10000000010000003104           
CUS0696350000106109673001         MOONEY LINDA CHRISTI1800 WALNUT AVE                         000N        CARE OF             
MTR06963500001000000000000000RA              45379566    005801050000010500000520000003NN  NNW 000                       N    
RDG06963500WATRL000000004K00000000000001228007309052015090635N000000000000U40       000940400K 10000000010000001228           
CUS0696350000106109653003         KURT SCHULZE        1907 WALNUT AVE                         000N        CARE OF             
MTR06963500001000000000000000RA              36687895    005801060000010600000520000003NN  NNW 000                       N    
RDG06963500WATRL000000004K00000000000001747000509052015074234N000000000000U40       000400400K 10000000010000001745           
CUS0696350000106109674009         BORKOWICZ THOMAS T J1802 WALNUT AVE                         000N        CARE OF             
MTR06963500001000000000000000RA              75616786    005801070000010700000350000003NN  NNW 000                       N    
RDG06963500WATRL000000004K00000000000000423007409052015090751N000000000000U40       000760400K 10000000010000000388           
CUS0696350000106109654001         DOVELL MARY K       1905 WALNUT AVE                         000N        CARE OF             
MTR06963500001000000000000000RA              40047056    005801080000010800000520000003NN  NNW 000                       N    
RDG06963500WATRL000000004K00000000000001808000409052015074154N000000000000U40       000390400K 10000000010000001800           
CUS0696350000106109675006         DELGADO RUBEN MUNOZ 1804 WALNUT AVE                         000N        CARE OF             
MTR06963500001000000000000000RA              99189018    005801090000010900000570000003NN  NNW 000                       N    
RDG06963500WATRL000000004K00000000000001607007509052015090856N000000000000U40       000650400K 10000000010000001572           
CUS0696350000106109655008         DRURY WILLIAM C     1903 WALNUT AVE                         000N        CARE OF             
MTR06963500001000000000000000RA              01073902    005801100000011000000610000003NN  NNW 000                       N    
RDG06963500WATRL000000004K00000000000001004000309052015074115N000000000000U40       000450400K 10000000010000000991           
CUS0696350000106109676004         HAUN KAREN M        1806 WALNUT AVE                         000N        CARE OF             
MTR06963500001000000000000000RA              14926615    005801110000011100000310000003NN  NNW 000                       N    
RDG06963500WATRL000000004K00000000000000437007609052015091015N000000000000U40       000790400K 10000000010000000416           
CUS0696350000106109656006         ROBERT KOSIBA       1901 WALNUT AVE                         000N        CARE OF             
MTR06963500001000000000000000RA              50787473    005801120000011200000520000003NN  NNW 000                       N    
RDG06963500WATRL000000004K00000000000001573000209052015074030N000000000000U40       008630400K 10000000010000001554           
CUS0696350000106109677002         SELLARS KENNETH K   1808 WALNUT AVE                         000N        CARE OF             
MTR06963500001000000000000000RA              26011110    005801130000011300000520000003NN  NNW 000                       N    
RDG06963500WATRL000000004K00000000000003387007709052015091134N000000000000U40       000790400K 10000000010000003358           
CUS0696350000106109657004         GURTEI SINGH        1831 WALNUT AVE                         000N        CARE OF             
MTR06963500001000000000000000RA              50478830    005801140000011400000520000003NN  NNW 000                       N    
RDG06963500WATRL000000004K00000000000001193005709052015084848N000100000010U40       006700400K 10000000010000001193           
CUS0696350000106109678000         JOHN & SHIRLEY HOOD 1810 WALNUT AVE                         000N        CARE OF             
MTR06963500001000000000000000RA              30521127    005801150000011500000520000003NN  NNW 000                       N    
RDG06963500WATRL000000004K00000000000001996007809052015091214N000000000000U40       000400400K 10000000010000001996           
CUS0696350000106109658002         GEORGE J WEITZEL    1829 WALNUT AVE                         000N        CARE OF             
MTR06963500001000000000000000RA              38887486    005801160000011600000520000003NN  NNW 000                       N    
RDG06963500WATRL000000004K00000000000002891005809052015085000N000000000000U40       000720400K 10000000010000002891           
CUS0696350000106109679008         ROXANNE M SILWICK   1812 WALNUT AVE                         000N        CARE OF             
MTR06963500001000000000000000RA              01100896    005801170000011700000610000003NN  NNW 000                       N    
RDG06963500WATRL000000004K00000000000002002007909052015091250N000300000010U40       000360400K 10000000010000001975           
CUS0696350000106109659000         GRUEBL JOANN        1827 WALNUT AVE                         000N        CARE OF             
MTR06963500001000000000000000RA              32574632    005801180000011800000520000003NN  NNW 000                       N    
RDG06963500WATRL000000004K00000000000005417005909052015085040N000000000000U40       000400400K 10000000010000005397           
CUS0696350000106109680006         BOWMAN DOUGLAS S    1814 WALNUT AVE                         000N        CARE OF             
MTR06963500001000000000000000RA              01102784    005801190000011900000610000003NN  NNW 000                       N    
RDG06963500WATRL000000004K00000000000000943008009052015091343N000000000000U40       000530400K 10000000010000000929           
CUS0696350000106109660008         DAWN SWINK          1825 WALNUT AVE                         000N        CARE OF             
MTR06963500001000000000000000RA              46886889    005801200000012000000520000003NN  NNW 000                       N    
RDG06963500WATRL000000004K00000000000001194006009052015085159N000300000010U40       000790400K 10000000010000001197           
CUS0696350000106109681004         HEINLEIN HERMAN J,JR1816 WALNUT AVE                         000N        CARE OF             
MTR06963500001000000000000000RA              35103936    005801210000012100000520000003NN  NNW 000                       N    
RDG06963500WATRL000000004K00000000000002918006109052015091440N000300000021U40       000570400K 10000000010000002904           
CUS0696350000106109661006         SWEARINGEN CHARLES A1823 WALNUT AVE                         000N        CARE OF             
MTR06963500001000000000000000RA              41088565    005801220000012200000520000003NN  NNW 000                       N    
RDG06963500WATRL000000004K00000000000003189006209052015091519N000000000011U40       000390400K 10000000010000003175           
CUS0696350000106109682002         FLORENCE K PLISKO   1818 WALNUT AVE                         000N        CARE OF             
MTR06963500001000000000000000RA              01072967    005801230000012300000610000003NN  NNW 000                       N    
RDG06963500WATRL000000004K00000000000001581008109052015091558N000000000000U40       000390400K 10000000010000001570           
CUS0696350000106109662004         TAMATHA JONES       1821 WALNUT AVE                         000N        CARE OF             
MTR06963500001000000000000000RA              11336942    005801240000012400000570000003NN  NNW 000                       N    
RDG06963500WATRL000000004K00000000000002325006309052015085515N000000000001U40       000170400K 10000000010000002314           
CUS0696350000106109683000         HENSLER MELVIN,SR   1820 WALNUT AVE                         000N        CARE OF             
MTR06963500001000000000000000RA              30521126    005801250000012500000520000003NN  NNW 000                       N    
RDG06963500WATRL000000004K00000000000003347008209052015091659N000000000000U40       000610400K 10000000010000003326           
CUS0696350000106109663002         AYERS DENNIS M      1819 WALNUT AVE                         000N        CARE OF             
MTR06963500001000000000000000RA              26014567    005801260000012600000520000003NN  NNW 000                       N    
RDG06963500WATRL000000004K00000000000002813006409052015085539N000400000010U40       000240400K 10000000010000002807           
CUS0696350000106109684008         CAUDILL WILLIAM E,3R1822 WALNUT AVE                         000N        CARE OF             
MTR06963500001000000000000000RA              01100911    005801270000012700000610000003NN  NNW 000                       N    
RDG06963500WATRL000000004K00000000000001887008309052015091744N000000000000U40       000450400K 10000000010000001843           
CUS0696350000106109664000         MUNOZ-SANCHEZ MACARI1817 WALNUT AVE                         000N        CARE OF             
MTR06963500001000000000000000RA              36695493    007501280000012800000520000003NN  NNW 000                       N    
RDG06963500WATRL000000004K00000000000001804006509052015085625N000300000010U40       000460400K 10000000010000002444           
CUS0696350000106109685005         SHIFLETT JAMES C/JUL1824 WALNUT AVE                         000N        CARE OF             
MTR06963500001000000000000000RA              99290471    005801290000012900000570000003NN  NNW 000                       N    
RDG06963500WATRL000000004K00000000000002190008409052015091925N000000000000U40       001010400K 10000000010000002157           
CUS0696350000106109665007         AYERS LILLIAN M     1815 WALNUT AVE                         000N        CARE OF             
MTR06963500001000000000000000RA              27812073    005801300000013000000520000003NN  NNW 000                       N    
RDG06963500WATRL000000004K00000000000003109006609052015085800N000000000000U40       000950400K 10000000010000003079           
CUS0696350000106109686003         LEWIS NICOLE        1826 WALNUT AVE                         000N        CARE OF             
MTR06963500001000000000000000RA              31587398    005801310000013100000520000003NN  NNW 000                       N    
RDG06963500WATRL000000004K00000000000003294008509052015092041N000000000000U40       000760400K 10000000010000003278           
CUS0696350000106109666005         PHELPS EDWARD B     1813 WALNUT AVE                         000N        CARE OF             
MTR06963500001000000000000000RA              35110591    005801320000013200000520000003NN  NNW 000                       N    
RDG06963500WATRL000000004K00000000000003531006709052015085938N000000000000U40       000980400K 10000000010000003515           
CUS0696350000106109687001         MR MILLER           1828 WALNUT AVE                         000N        CARE OF             
MTR06963500001000000000000000RA              50476047    005801330000013300000520000003NN  NNW 000                       N    
RDG06963500WATRL000000004K00000000000000002008609052015092222N000000000010U40       001010400K 10000000010000001838           
CUS0696350000106109667003         KLUGA ELIZABETH L   1811 WALNUT AVE                         000N        CARE OF             
MTR06963500001000000000000000RA              38983569    005801340000013400000520000003NN  NNW 000                       N    
RDG06963500WATRL000000004K00000000000000519006809052015090027N000000000000U40       000490400K 10000000010000000519           
CUS0696350000106109688009         VINCENT ROTUNDO     1830 WALNUT AVE                         000N        CARE OF             
MTR06963500001000000000000000RA              27212988    005801350000013500000520000003NN  NNW 000                       N    
RDG06963500WATRL000000004K00000000000005341008709052015092401N000300000010U40       000990400K 10000000010000006206           
CUS0696350000106109668001         MCELROY BERNADETTE M1809 WALNUT AVE                         000N        CARE OF             
MTR06963500001000000000000000RA              24226159    005801360000013600000520000003NN  NNW 000                       N    
RDG06963500WATRL000000004K00000000000002310006909052015090104N000000000000U40       000370400K 10000000010000002305           
CUS0696350000106109689007         GERARD TONY         1900 WALNUT AVE                         000N        CARE OF             
MTR06963500001000000000000000RA              75617862    005801370000013700000350000003NN  NNW 000                       N    
RDG06963500WATRL000000004K00000000000000235005609052015083738N000000000000U40       000660400K 10000000010000000207           
CUS0696350000106109669009         LYDEN EMILY         1807 WALNUT AVE                         000N        CARE OF             
MTR06963500001000000000000000RA              42810392    005801380000013800000520000003NN  NNW 000                       N    
RDG06963500WATRL000000004K00000000000001802007009052015090153N000000000000U40       000490400K 10000000010000001787           
CUS0696350000106109690005         WILLIAM THOMPSON    1902 WALNUT AVE                         000N        CARE OF             
MTR06963500001000000000000000RA              35098283    005801390000013900000520000003NN  NNW 000                       N    
RDG06963500WATRL000000004K00000000000001620005509052015083632N000000000000U40       000340400K 10000000010000001612           
CUS0696350000106109670007         PAWELSKI JERZY T    1805 WALNUT AVE                         000N        CARE OF             
MTR06963500001000000000000000RA              10003333    005801400000014000000570000003NN  NNW 000                       N    
RDG06963500WATRL000000004K00000000000000252007109052015090242N000000000000U40       000490400K 10000000010000000242           
CUS0696350000106109691003         DAMARIO JOHN L      1904 WALNUT AVE                         000N        CARE OF             
MTR06963500001000000000000000RA              24763934    005801410000014100000520000003NN  NNW 000                       N    
RDG06963500WATRL000000004K00000000000003964005409052015083534N000000000000U40       000930400K 10000000010000003931           
CUS0696350000106109671005         BARTON ANNA         1803 WALNUT AVE                         000N        CARE OF             
MTR06963500001000000000000000RA              10022588    005801420000014200000570000003NN  NNW 000                       N    
RDG06963500WATRL000000004K00000000000000163007209052015090351N000000000000U40       000690400K 10000000010000000149           
CUS0696350000106109692001         STEINERT CHARLES R  1906 WALNUT AVE                         000N        CARE OF             
MTR06963500001000000000000000RA              14910738    005801430000014300000310000003NN  NNW 000                       N    
RDG06963500WATRL000000004K00000000000000353005309052015083558N000000000011U40       000240400K 10000000010000000348           
CUS0696350000106109672003         DEBELLEFEUILLE GERAL1801 WALNUT AVE                         000N        CARE OF             
MTR06963500001000000000000000RA              10024242    005801440000014400000570000003NN  NNW 000                       N    
RDG06963500WATRL000000004K00000000000000397005209052015090501N000400000021U40       000700400K 10000000010000000361           
CUS0696350000106109693009         HARPER TERRY L      1908 WALNUT AVE                         000N        CARE OF             
MTR06963500001000000000000000RA              33729677    005801450000014500000520000003NN  NNW 000                       N    
RDG06963500WATRL000000004K00000000000002368005109052015083152N000000000000U40       000490400K 10000000010000002350           
CUS0696350000106109694007         PAUL BRUCE W        1910 WALNUT AVE                         000N        CARE OF             
MTR06963500001000000000000000RA              01100905    005801460000014600000610000003NN  NNW 000                       N    
RDG06963500WATRL000000004K00000000000001811005009052015083103N000000000000U40       000520400K 10000000010000001786           
CUS0696350000106109695004         VANCE BARBARA  FOUSE1912 WALNUT AVE                         000N        CARE OF             
MTR06963500001000000000000000RA              23644674    005801470000014700000520000003NN  NNW 000                       N    
RDG06963500WATRL000000004K00000000000005078004909052015083011N000000000000U40       000540400K 10000000010000005065           
CUS0696350000106109696002         WAJBEL BERTHA M     1914 WALNUT AVE                         000N        CARE OF             
MTR06963500001000000000000000RA              35112468    005801480000014800000520000003NN  NNW 000                       N    
RDG06963500WATRL000000004K00000000000001484004809052015082917N000000000000U40       000560400K 10000000010000001479           
CUS0696350000106109697000         HAFNER DONALD G,SR  1916 WALNUT AVE                         000N        CARE OF             
MTR06963500001000000000000000RA              41088133    005801490000014900000520000003NN  NNW 000                       N    
RDG06963500WATRL000000004K00000000000009542004709052015082821N000400000010U40       000640400K 10000000010000009497           
CUS0696350000106109698008         BRULINSKI KENNETH D 1918 WALNUT AVE                         000N        CARE OF             
MTR06963500001000000000000000RA              14929901    005801500000015000000310000003NN  NNW 000                       N    
RDG06963500WATRL000000004K00000000000000767004609052015082717N000000000000U40       000640400K 10000000010000000748           
CUS0696350000106109699006         STEFANSKI RAYMOND T 1920 WALNUT AVE                         000N        CARE OF             
MTR06963500001000000000000000RA              26011843    005801510000015100000520000003NN  NNW 000                       N    
RDG06963500WATRL000000004K00000000000003968004509052015082613N000000000000U40       000370400K 10000000010000003956           
CUS0696350000106109700002         SHOUP STEPHEN M     1922 WALNUT AVE                         000N        CARE OF             
MTR06963500001000000000000000RA              26011370    005801520000015200000520000003NN  NNW 000                       N    
RDG06963500WATRL000000004K00000000000003172004309052015082504N000000000000U40       001540400K 10000000010000003153           
CUS0696350000106109701000         FAIKOWSKI JOHN JR   1924 WALNUT AVE                         000N        CARE OF             
MTR06963500001000000000000000RA              00130644    005801530000015300000570000003NN  NNW 000                       N    
RDG06963500WATRL000000004K00000000000001092004409052015082536N000000000000U40       000320400K 10000000010000001072           
CUS0696350000106109702008         BLANKENSHIP JAMES D 1930 WALNUT AVE                         000N        CARE OF             
MTR06963500001000000000000000RA              10011717    005801540000015400000570000003NN  NNW 000                       N    
RDG06963500WATRL000000004K00000000000000271004209052015082230N000000000000U40       000510400K 10000000010000000251           
CUS0696350000106109703006         DAWN D SCANLON      1932 WALNUT AVE                         000N        CARE OF             
MTR06963500001000000000000000RA              26014855    005801550000015500000520000003NN  NNW 000                       N    
RDG06963500WATRL000000004K00000000000002385004109052015082139N000000000000U40       000910400K 10000000010000002371           
CUS0696350000106109704004         WEIFORD WILLIAM D   1934 WALNUT AVE                         000N        CARE OF             
MTR06963500001000000000000000RA              99288134    005801560000015600000570000003NN  NNW 000                       N    
RDG06963500WATRL000000004K00000000000001879004009052015082008N000000000000U40       000830400K 10000000010000001861           
CUS0696350000106109705001         MATTHEW J GOLDSMITH 1936 WALNUT AVE                         000N        CARE OF             
MTR06963500001000000000000000RA              01072965    005801570000015700000610000003NN  NNW 000                       N    
RDG06963500WATRL000000004K00000000000000670003909052015081845N000000000000U40       000640400K 10000000010000000662           
CUS0696350000106109706009         ORTIZ EDILBERTO     1938 WALNUT AVE                         000N        CARE OF             
MTR06963500001000000000000000RA              01072991    005801580000015800000610000003NN  NNW 000                       N    
RDG06963500WATRL000000004K00000000000001083003809052015081741N000000000000U40       002060400K 10000000010000001069           
CUS0696350000106109707007         MCCARTY DENNIS      7108 MAPLE DR                           000N        CARE OF             
MTR06963500001000000000000000RA              10013148    005801590000015900000570000003NN  NNW 000                       N    
RDG06963500WATRL000000004K00000000000000265003309052015080825N000000000000U40       001650400K 10000000010000000252           
CUS0696350000106109708005         GOMEZ YUNIOR ECHENIQ7106 MAPLE DR                           000N        CARE OF             
MTR06963500001000000000000000RA              10012597    005801600000016000000570000003NN  NNW 000                       N    
RDG06963500WATRL000000004K00000000000000552003409052015081022N000000000000U40       001170400K 10000000010000000519           
CUS0696350000106109709003         TEFKE DEANNA J      7104 MAPLE DR                           000N        CARE OF             
MTR06963500001000000000000000RA              35109835    005801610000016100000520000003NN  NNW 000                       N    
RDG06963500WATRL000000004K00000000000002873003509052015081159N000000000000U40       000970400K 10000000010000002859           
CUS0696350000106109710001         JACOBY HELEN J      7102 MAPLE DR                           000N        CARE OF             
MTR06963500001000000000000000RA              38887851    005801620000016200000520000003NN  NNW 000                       N    
RDG06963500WATRL000000004K00000000000000313003609052015081323N000000000021U40       000100400K 10000000010000000313           
CUS0696350000106109711009         MOHLER EDWARD P,JR  7100 MAPLE DR                           000N        CARE OF             
MTR06963500001000000000000000RA              11426925    005801630000016300000570000003NN  NNW 000                       N    
RDG06963500WATRL000000004K00000000000003393003709052015081415N000000000000U40       000520400K 10000000010000003371           
CUS0696350000106109712007         BAUMGART SHARON LEE 1935 CEDAR LN                           000N        CARE OF             
MTR06963500001000000000000000RA              27819239    005801640000016400000520000003NN  NNW 000                       N    
RDG06963500WATRL000000004K00000000000002712010109052015094818N000000000000U40       000610400K 10000000010000002688           
CUS0696350000106109713005         STOFKO JAMES E      1933 CEDAR LN                           000N        CARE OF             
MTR06963500001000000000000000RA              77891733    005801650000016500000360000003NN  NNW 000                       N    
RDG06963500WATRL000000004K00000000000000028010009052015094717N000000000010U40       000400400K 10000000010000000000           
CUS0696350000106109714003         ZIMMERER HENRY      1931 CEDAR LN                           000N        CARE OF             
MTR06963500001000000000000000RA              01073774    005801660000016600000610000003NN  NNW 000                       N    
RDG06963500WATRL000000004K00000000000001085009909052015094637N000000000000U40       000460400K 10000000010000001072           
CUS0696350000106109715000         MANZOOR AHMED       1929 CEDAR LN                           000N        CARE OF             
MTR06963500001000000000000000RA              45379234    005801670000016700000520000003NN  NNW 000                       N    
RDG06963500WATRL000000004K00000000000002336009809052015094551N000000000000U40       000580400K 10000000010000002321           
CUS0696350000106109716008         ANTKOWIAK BERNARD PA1927 CEDAR LN                           000N        CARE OF             
MTR06963500001000000000000000RA              35116257    005801680000016800000520000003NN  NNW 000                       N    
RDG06963500WATRL000000004K00000000000002305009709052015094453N000000000000U40       001210400K 10000000010000002234           
CUS0696350000106109717006         CHES STANLEY T      1926 CEDAR LN                           000N        CARE OF             
MTR06963500001000000000000000RA              52290662    005801690000016900000520000003NN  NNW 000                       N    
RDG06963500WATRL000000004K00000000000003129009609052015094252N000000000000U40       000450400K 10000000010000003067           
CUS0696350000106109718004         KELLY WILLIAM D,JR  1928 CEDAR LN                           000N        CARE OF             
MTR06963500001000000000000000RA              27833510    005801700000017000000520000003NN  NNW 000                       N    
RDG06963500WATRL000000004K00000000000002209009509052015094207N000000000000U40       000380400K 10000000010000002198           
CUS0696350000106109719002         VAHDATSHOAR FOOROZ  1930 CEDAR LN                           000N        CARE OF             
MTR06963500001000000000000000RA              27820051    005801710000017100000520000003NN  NNW 000                       N    
RDG06963500WATRL000000004K00000000000001618009409052015094129N000000000000U40       000490400K 10000000010000001600           
CUS0696350000106109720000         TOLAND MITCHELL J   1932 CEDAR LN                           000N        CARE OF             
MTR06963500001000000000000000RA              50478828    005801720000017200000520000003NN  NNW 000                       N    
RDG06963500WATRL000000004K00000000000002061009309052015094040N000000000000U40       001010400K 10000000010000002031           
CUS0696350000106109721008         SADOWSKI JAMES J    1934 CEDAR LN                           000N        CARE OF             
MTR06963500001000000000000000RA              01073776    005801730000017300000610000003NN  NNW 000                       N    
RDG06963500WATRL000000004K00000000000000901009209052015093859N000000000000U40       000550400K 10000000010000000889           
CUS0696350000106109722006         SADOWSKI GARY THOMAS1936 CEDAR LN                           000N        CARE OF             
MTR06963500001000000000000000RA              30517099    005801740000017400000520000003NN  NNW 000                       N    
RDG06963500WATRL000000004K00000000000001548009109052015093804N000000000010U40       000440400K 10000000010000001848           
CUS0696350000106109723004         WILKES ROBERT A     1938 CEDAR LN                           000N        CARE OF             
MTR06963500001000000000000000RA              31936376    005801750000017500000520000003NN  NNW 000                       N    
RDG06963500WATRL000000004K00000000000003960009009052015093720N000000000000U40       000410400K 10000000010000003954           
CUS0696350000106109724002         ROMEO CHRISTINA SUE 1940 CEDAR LN                           000N        CARE OF             
MTR06963500001000000000000000RA              10003831    005801760000017600000570000003NN  NNW 000                       N    
RDG06963500WATRL000000004K00000000000000508008909052015093639N000000000000U40       000410400K 10000000010000000493           
CUS0696350000106109725009         BOOHER MICHAEL D    1942 CEDAR LN                           000N        CARE OF             
MTR06963500001000000000000000RA              31582102    005801770000017700000520000003NN  NNW 000                       N    
RDG06963500WATRL000000004K00000000000003848008809052015093558N000000000000U40       007170400K 10000000010000003844           
CUS0696350000106109726007         HAGEL JOSEPH M      1979 SNYDER AVE                         000N        CARE OF             
MTR06963500001000000000000000RA              23052359    005801780000017800000520000003NN  NNW 000                       N    
RDG06963500WATRL000000004K00000000000003616012209052015101853N000000000000U40       000680400K 10000000010000003598           
CUS0696350000106109727005         JUDITH A JONES      1977 SNYDER AVE                         000N        CARE OF             
MTR06963500001000000000000000RA              11328270    005801790000017900000570000003NN  NNW 000                       N    
RDG06963500WATRL000000004K00000000000004519012109052015101745N000000000000U40       000500400K 10000000010000004494           
CUS0696350000106109728003         RUFFNER FRANCIS A SR1975 SNYDER AVE                         000N        CARE OF             
MTR06963500001000000000000000RA              26015207    005801800000018000000520000003NN  NNW 000                       N    
RDG06963500WATRL000000004K00000000000004530012009052015101655N000400000010U40       000610400K 10000000010000004513           
CUS0696350000106109729001         SANDERS TROY W      1973 SNYDER AVE                         000N        CARE OF             
MTR06963500001000000000000000RA              40781913    005801810000018100000520000003NN  NNW 000                       N    
RDG06963500WATRL000000004K00000000000001261011909052015101554N000000000000U40       000600400K 10000000010000001252           
CUS0696350000106109730009         ZUK ROBERTA MAY     1971 SNYDER AVE                         000N        CARE OF             
MTR06963500001000000000000000RA              10009587    005801820000018200000570000003NN  NNW 000                       N    
RDG06963500WATRL000000004K00000000000000114011809052015101454N000000000000U40       001250400K 10000000010000000106           
CUS0696350000106109731007         HENKIN JEROME DAVID 1969 SNYDER AVE                         000N        CARE OF             
MTR06963500001000000000000000RA              32904559    005801830000018300000520000003NN  NNW 000                       N    
RDG06963500WATRL000000004K00000000000002987011709052015101249N000000000000U40       001210400K 10000000010000002977           
CUS0696350000106109732005         1957 SNYDER AVE LAND1957 SNYDER AVE                         000N        CARE OF             
MTR06963500001000000000000000RA              23056301    005801840000018400000520000003NN  NNW 000                       N    
RDG06963500WATRL000000004K00000000000009628011609052015101048N000300000010U40       001080400K 10000000010000011118           
CUS0696350000106109733003         GIORGILLI PASQUALINO1953 SNYDER AVE                         000N        CARE OF             
MTR06963500001000000000000000RA              01073384    005801850000018500000610000003NN  NNW 000                       N    
RDG06963500WATRL000000004K00000000000001819011509052015100900N000000000000U40       000440400K 10000000010000001790           
CUS0696350000106109734001         KATRINA G CHESNAVAGE1951 SNYDER AVE                         000N        CARE OF             
MTR06963500001000000000000000RA              26018107    005801860000018600000520000003NN  NNW 000                       N    
RDG06963500WATRL000000004K00000000000005308011409052015100816N000000000000U40       000730400K 10000000010000005301           
CUS0696350000106109735008         WADE L SENSEDAUGH   1949 SNYDER AVE                         000N        CARE OF             
MTR06963500001000000000000000RA              32574763    005801870000018700000520000003NN  NNW 000                       N    
RDG06963500WATRL000000004K00000000000002918011309052015100703N000000000000U40       000330400K 10000000010000002907           
CUS0696350000106109736006         RONALD L HARRIS     1947 SNYDER AVE                         000N        CARE OF             
MTR06963500001000000000000000RA              32574760    005801880000018800000520000003NN  NNW 000                       N    
RDG06963500WATRL000000004K00000000000003144011209052015100630N000000000000U40       000340400K 10000000010000003130           
CUS0696350000106109737004         STARK DEBRA         1945 SNYDER AVE                         000N        CARE OF             
MTR06963500001000000000000000RA              48595437    005801890000018900000520000003NN  NNW 000                       N    
RDG06963500WATRL000000004K00000000000001318011109052015100556N000000000000U40       000610400K 10000000010000001304           
CUS0696350000106109738002         MEGAN N FREUND      1941 SNYDER AVE                         000N        CARE OF             
MTR06963500001000000000000000RA              41258183    005801900000019000000520000003NN  NNW 000                       N    
RDG06963500WATRL000000004K00000000000001055011009052015100455N000000000000U40       000860400K 10000000010000001050           
CUS0696350000106109739000         CHAUNCEY KENNETH    1939 SNYDER AVE                         000N        CARE OF             
MTR06963500001000000000000000RA              76346194    005801910000019100000350000003NN  NNW 000                       N    
RDG06963500WATRL000000004K00000000000000006010909052015100329N000000000010U40       000830400K 10000000010000000001           
CUS0696350000106109740008         MATTHEW R SHROYER   1937 SNYDER AVE                         000N        CARE OF             
MTR06963500001000000000000000RA              27833632    005801920000019200000520000003NN  NNW 000                       N    
RDG06963500WATRL000000004K00000000000003073010809052015100206N000000000000U40       000320400K 10000000010000003047           
CUS0696350000106109741006         SHAVER MICHAEL L,SR 1935 SNYDER AVE                         000N        CARE OF             
MTR06963500001000000000000000RA              44174661    005801930000019300000520000003NN  NNW 000                       N    
RDG06963500WATRL000000004K00000000000003280010709052015100134N000000000000U40       000310400K 10000000010000003252           
CUS0696350000106109742004         BEDNAREK RICHARD J  1929 SNYDER AVE                         000N        CARE OF             
MTR06963500001000000000000000RA              41588555    005801940000019400000520000003NN  NNW 000                       N    
RDG06963500WATRL000000004K00000000000002073010609052015100103N000000000000U40       000620400K 10000000010000002061           
CUS0696350000106109743002         BRADSHAW RAYMOND S  1921 SNYDER AVE                         000N        CARE OF             
MTR06963500001000000000000000RA              35110569    005801950000019500000520000003NN  NNW 000                       N    
RDG06963500WATRL000000004K00000000000003976010509052015100001N000000000000U40       000610400K 10000000010000003942           
CUS0696350000106109744000         HEIDEL DOROTHY D    1919 SNYDER AVE                         000N        CARE OF             
MTR06963500001000000000000000RA              01073373    005801960000019600000610000003NN  NNW 000                       N    
RDG06963500WATRL000000004K00000000000001087010409052015095900N000300000010U40       000490400K 10000000010000001152           
CUS0696350000106109745007         MCGINLEY ANDREW     1915 SNYDER AVE                         000N        CARE OF             
MTR06963500001000000000000000RA              52770284    005801970000019700000520000003NN  NNW 000                       N    
RDG06963500WATRL000000004K00000000000001387010209052015095703N000100000010U40       005250400K 10000000010000001387           
CUS0696350000106109746005         YUTCHISHEN FLORENCE 1911 SNYDER AVE                         000N        CARE OF             
MTR06963500001000000000000000RA              11331110    005801980000019800000570000003NN  NNW 000                       N    
RDG06963500WATRL000000004K00000000000001087010309052015095811N000300000010U40       000680400K 10000000010000006903           
CUS0696350000106109747003         ZAFFIRIS STEVEN     1909 SNYDER AVE                         000N        CARE OF             
MTR06963500001000000000000000RA              11427074    005801990000019900000520000003NN  NNW 000                       N    
RDG06963500WATRL000000004K00000000000004204012309052015103453N000000000000U40       009600400K 10000000010000004189           
CUS0696350000106109748001         VICKERY MARK W      1907 SNYDER AVE                         000N        CARE OF             
MTR06963500001000000000000000RA              30522942    005802000000020000000520000003NN  NNW 000                       N    
RDG06963500WATRL000000004K00000000000001536012409052015103544N000000000000U40       000510400K 10000000010000001526           
CUS0696350000106109749009         LINDEMON ROBERT D,JR1901 SNYDER AVE                         000N        CARE OF             
MTR06963500001000000000000000RA              40048164    005802010000020100000520000003NN  NNW 000                       N    
RDG06963500WATRL000000004K00000000000002997012509052015103704N000000000010U40       000800400K 10000000010000002993           
CUS0696350000106109750007         YEGGE DORIS M       1815 SNYDER AVE                         000N        CARE OF             
MTR06963500001000000000000000RA              01079751    005802020000020200000610000003NN  NNW 000                       N    
RDG06963500WATRL000000004K00000000000001458012609052015103758N000000000000U40       000540400K 10000000010000001438           
CUS0696350000106109752003         BARNES GERALD       1811 SNYDER AVE                         000N        CARE OF             
MTR06963500001000000000000000RA              41588925    005802030000020300000520000003NN  NNW 000                       N    
RDG06963500WATRL000000004K00000000000002082012709052015103954N000000000001U40       000480400K 10000000010000002082           
CUS0696350000106109753001         BARNES GERALD CHARLE1809 SNYDER AVE                         000N        CARE OF             
MTR06963500001000000000000000RA              99288133    005802040000020400000570000003NN  NNW 000                       N    
RDG06963500WATRL000000004K00000000000001354012809052015104119N000000000000U40       000850400K 10000000010000001327           
CUS0696350000106109754009         OWSIANIECKI PAUL M  1807 SNYDER AVE                         000N        CARE OF             
MTR06963500001000000000000000RA              40047663    005802050000020500000520000003NN  NNW 000                       N    
RDG06963500WATRL000000004K00000000000000000012909052015104210S005000000000U40       000510400K 10000000010000003129           
CUS0696350000106109755006         DEVENNY DEBORAH C   1805 SNYDER AVE                         000N        CARE OF             
MTR06963500001000000000000000RA              74815230    007502060000020600000350000003NN  NNW 000                       N    
RDG06963500WATRL000000004K00000000000000699013009052015104306N000400000020U40       000560400K 10000000010000000684           
CUS0696350000106109756004         BURKE KATHERINE M   1803 SNYDER AVE                         000N        CARE OF             
MTR06963500001000000000000000RA              31936295    005802070000020700000520000003NN  NNW 000                       N    
RDG06963500WATRL000000004K00000000000002364013109052015104344N000400000010U40       000380400K 10000000010000002362           
CUS0696350000106109757002         1801 SNYDER LLC     1801 SNYDER AVE                         000N        CARE OF             
MTR06963500001000000000000000RA              44177641    005802080000020800000520000003NN  NNW 000                       N    
RDG06963500WATRL000000004K00000000000005843013209052015104427N000000000000U40       000430400K 10000000010000005825           
CUS0696350000106109758000         DESPER CARL E       1701 BETHLEHEM AVE                      000N        CARE OF             
MTR06963500001000000000000000RA              01073387    005802090000020900000610000003NN  NNW 000                       N    
RDG06963500WATRL000000004K00000000000002580013309052015104630N000400000010U40       001230400K 10000000010000002571           
CUS0696350000106109759008         SACCHETTI RUDOLPH   1703 BETHLEHEM AVE                      000N        CARE OF             
MTR06963500001000000000000000RA              24758526    005802100000021000000520000003NN  NNW 000                       N    
RDG06963500WATRL000000004K00000000000004372013409052015104715N000000000000U40       000450400K 10000000010000004356           
RTR06963500NN02100210000002100000000002100210000255NY021002100210000100020000000000000000000002    08252015NY020000 N         
RHD06965000NN01990213000001990000001402130213000172NY021302130213000000010000000000000000000002    08252015NY020000 N         
CUS0696500000106109837002         KIRANDEEP SINGH     7016 BRENTWOOD AVE                      000N        CARE OF             
MTR06965000001000000000000000RA              27819241    005800010000000100000520000003NN  NNW 000                       N    
RDG06965000WATRL000000004K00000000000006122000109092015071929N000000000000U65       000000400K 10000000010000006087           
CUS0696500000106109838000         STANKOWSKI JAMIE L  7006 BRENTWOOD AVE                      000N        CARE OF             
MTR06965000001000000000000000RA              45386449    005800020000000200000520000003NN  NNW 000                       N    
RDG06965000WATRL000000004K00000000000001174000209092015072026N000000000000U65       000570400K 10000000010000001159           
CUS0696500000106109839008         CRAFT JOHN J,SR     7004 BRENTWOOD AVE                      000N        CARE OF             
MTR06965000001000000000000000RA              01072996    005800030000000300000610000003NN  NNW 000                       N    
RDG06965000WATRL000000004K00000000000001024000309092015072244N000000000000U65       001380400K 10000000010000001003           
CUS0696500000106109840006         ARAVIDIS NICOLAS    7002 BRENTWOOD AVE                      000N        CARE OF             
MTR06965000001000000000000000RA              41258028    005800040000000400000520000003NN  NNW 000                       N    
RDG06965000WATRL000000004K00000000000002471000409092015072338N000000000000U65       000540400K 10000000010000002447           
CUS0696500000106109841004         ZEBROWSKI ROSALIE   7000 BRENTWOOD AVE                      000N        CARE OF             
MTR06965000001000000000000000RA              10017424    005800050000000500000570000003NN  NNW 000                       N    
RDG06965000WATRL000000004K00000000000000333000509092015072443N000000000000U65       000650400K 10000000010000000311           
CUS0696500000106109842002         TAKOVICH TARA       6914 BRENTWOOD AVE                      000N        CARE OF             
MTR06965000001000000000000000RA              01073376    005800060000000600000610000003NN  NNW 000                       N    
RDG06965000WATRL000000004K00000000000001123000809092015072947N000000000000U65       001280400K 10000000010000001103           
CUS0696500000106109843000         TRAYNOR JAMES       6912 BRENTWOOD AVE                      000N        CARE OF             
MTR06965000001000000000000000RA              35102961    005800070000000700000520000003NN  NNW 000                       N    
RDG06965000WATRL000000004K00000000000001205000909092015073019N000000000000U65       000320400K 10000000010000001181           
CUS0696500000106109844008         GORBATY ELLIOTT     6910 BRENTWOOD AVE                      000N        CARE OF             
MTR06965000001000000000000000RA              52287746    005800080000000800000520000003NN  NNW 000                       N    
RDG06965000WATRL000000004K00000000000001296001009092015073051N000000000000U65       000320400K 10000000010000001254           
CUS0696500000106109845005         DIEUMEGARDE JOSEPH J6908 BRENTWOOD AVE                      000N        CARE OF             
MTR06965000001000000000000000RA              45387951    005800090000000900000520000003NN  NNW 000                       N    
RDG06965000WATRL000000004K00000000000001672001109092015073117N000000000000U65       000260400K 10000000010000001632           
CUS0696500000106109846003         GMUREK JOHN T,JR    6906 BRENTWOOD AVE                      000N        CARE OF             
MTR06965000001000000000000000RA              41081451    005800100000001000000520000003NN  NNW 000                       N    
RDG06965000WATRL000000004K00000000000002600001209092015073141N000000000000U65       000240400K 10000000010000002582           
CUS0696500000106109847001         STANLEY PIASKOWSKI  6902 BRENTWOOD AVE                      000N        CARE OF             
MTR06965000001000000000000000RA              46886887    005800110000001100000520000003NN  NNW 000                       N    
RDG06965000WATRL000000004K00000000000001007001309092015073222N000300000010U65       000410400K 10000000010000001433           
CUS0696500000106109848009         SUTHERLAND WILLIAM R6900 BRENTWOOD AVE                      000N        CARE OF             
MTR06965000001000000000000000RA              14900780    005800120000001200000310000003NN  NNW 000                       N    
RDG06965000WATRL000000004K00000000000000348001409092015073339N000000000000U65       000770400K 10000000010000000336           
CUS0696500000106109849007         DINISIO VIRGINIA W  1801 TOLSON AVE                         000N        CARE OF             
MTR06965000001000000000000000RA              14916741    005800130000001300000310000003NN  NNW 000                       N    
RDG06965000WATRL000000004K00000000000000184001509092015073512N000000000000U65       000930400K 10000000010000000174           
CUS0696500000106109850005         HAVEN CANTON LLC    1800 TOLSON AVE                         000N        CARE OF             
MTR06965000001000000000000000RA              24770680    005800140000001400000520000003NN  NNW 000                       N    
RDG06965000WATRL000000004K00000000000004823001609092015073556N000000000000U65       000440400K 10000000010000004811           
CUS0696500000106109851003         SPIKER BRENDA J     1802 TOLSON AVE                         000N        CARE OF             
MTR06965000001000000000000000RA              50478827    005800150000001500000520000003NN  NNW 000                       N    
RDG06965000WATRL000000004K00000000000002778001709092015073646N000000000000U65       000500400K 10000000010000002717           
CUS0696500000106109852001         ECKLOFF, CHARLES A J6816 BRENTWOOD AVE                      000N        CARE OF             
MTR06965000001000000000000000RA              35103154    005800160000001600000520000003NN  NNW 000                       N    
RDG06965000WATRL000000004K00000000000002846001809092015073816N000000000000U65       000900400K 10000000010000002832           
CUS0696500000106109853009         TERRY L GODWIN      6814 BRENTWOOD AVE                      000N        CARE OF             
MTR06965000001000000000000000RA              10010840    005800170000001700000570000003NN  NNW 000                       N    
RDG06965000WATRL000000004K00000000000000452001909092015073858N000300000010U65       000420400K 10000000010000000394           
CUS0696500000106109854007         CRIZER KENNETH E    6804 BRENTWOOD AVE                      000N        CARE OF             
MTR06965000001000000000000000RA              10000429    005800180000001800000570000003NN  NNW 000                       N    
RDG06965000WATRL000000004K00000000000000812002009092015073929N000000000000U65       000310400K 10000000010000000777           
CUS0696500000106109855004         JONES GARY E        6802 BRENTWOOD AVE                      000N        CARE OF             
MTR06965000001000000000000000RA              14920226    005800190000001900000310000003NN  NNW 000                       N    
RDG06965000WATRL000000004K00000000000000578002109092015074001N000000000000U65       000320400K 10000000010000000567           
CUS0696500000106109856002         ROBERT & ANNA LOSOVS6800 BRENTWOOD AVE                      000N        CARE OF             
MTR06965000001000000000000000RA              27831184    005800200000002000000520000003NN  NNW 000                       N    
RDG06965000WATRL000000004K00000000000003377002209092015074038N000000000000U65       000370400K 10000000010000003355           
CUS0696500000106109857000         SCHLAFFER GEORGE C  1801 MONUMENTAL RD                      000N        CARE OF             
MTR06965000001000000000000000RA              01073388    005800210000002100000610000003NN  NNW 000                       N    
RDG06965000WATRL000000004K00000000000001856002309092015074212N000000000000U65       000940400K 10000000010000001828           
CUS0696500000106109858008         DEACHILLA BERNARD A 1800 MONUMENTAL RD                      000N        CARE OF             
MTR06965000001000000000000000RA              35118911    005800220000002200000520000003NN  NNW 000                       N    
RDG06965000WATRL000000004K00000000000002792002409092015074337N000400000010U65       000850400K 10000000010000002773           
CUS0696500000106109859006         JOSPEH DEVAN        1802 MONUMENTAL RD                      000N        CARE OF             
MTR06965000001000000000000000RA              14900785    005800230000002300000310000003NN  NNW 000                       N    
RDG06965000WATRL000000004K00000000000000798002509092015074403N000300000010U65       000260400K 10000000010000000702           
CUS0696500000106109860004         ANTHONY D PETERSON  6724 BRENTWOOD AVE                      000N        CARE OF             
MTR06965000001000000000000000RA              35098284    005800240000002400000520000003NN  NNW 000                       N    
RDG06965000WATRL000000004K00000000000003137002609092015074503N000000000000U65       000600400K 10000000010000003102           
CUS0696500000106109861002         PAIGE GREGORY       6722 BRENTWOOD AVE                      000N        CARE OF             
MTR06965000001000000000000000RA              00132297    005800250000002500000570000003NN  NNW 000                       N    
RDG06965000WATRL000000004K00000000000005521002709092015074533N000000000000U65       000300400K 10000000010000005468           
CUS0696500000106109862000         ULRICH DOUGLAS      6720 BRENTWOOD AVE                      000N        CARE OF             
MTR06965000001000000000000000RA              48583183    005800260000002600000520000003NN  NNW 000                       N    
RDG06965000WATRL000000004K00000000000002095002809092015074615N000400000010U65       000420400K 10000000010000002086           
CUS0696500000106109863008         SOUTH BROADWAY      6718 BRENTWOOD AVE                      000N        CARE OF             
MTR06965000001000000000000000RA              35116688    005800270000002700000520000003NN  NNW 000                       N    
RDG06965000WATRL000000004K00000000000003357002909092015074636N000000000000U65       000210400K 10000000010000003337           
CUS0696500000106109864006         HAMMONDS FRIEDA     6716 BRENTWOOD AVE                      000N        CARE OF             
MTR06965000001000000000000000RA              75615706    005800280000002800000350000003NN  NNW 000                       N    
RDG06965000WATRL000000004K00000000000000027003009092015074710N000000000010U65       000340400K 10000000010000000026           
CUS0696500000106334894000         NEAL, BERNARD       6736 BRENTWOOD AVE                      000N        CARE OF             
MTR06965000001000000000000000RA              79036627    005800290000002900000360000003NN  NNW 000                       N    
RDG06965000WATR 000000004R00000000000000030000009222015170000N0003000000B0N         000000400R 10000000010000000000           
RFF0696500069131755      ERT      0000  956.44375000140000092220151700000000309403100W 1220000N                               
CUS0696500000106109865003         PNIEWSKI MILTON     6714 BRENTWOOD AVE                      000N        CARE OF             
MTR06965000001000000000000000RA              14920283    005800300000003000000310000003NN  NNW 000                       N    
RDG06965000WATRL000000004K00000000000000966003109092015074748N000000000000U65       000380400K 10000000010000000957           
CUS0696500000106334893002         TSAKALAS, JULIA     6734 BRENTWOOD AVE                      000N        CARE OF             
MTR06965000001000000000000000RA              79036626    005800310000003100000360000003NN  NNW 000                       N    
RDG06965000WATR 000000004R00000000000000002000009222015190000N0003000000D0N         000000400R 10000000010000000000           
RFF0696500069132010      ERT      0000  956.44375000140000092220151900000000027477100W 1220000N                               
CUS0696500000106109867009         TAHINOS STEPHANIE   6740 BRENTWOOD AVE                      000N        CARE OF             
MTR06965000001000000000000000RA              19460712    005800320000003200000520000003NN  NNW 000                       N    
RDG06965000WATRL000000004K00000000000002334003209092015074827N000300000010U65       000390400K 10000000010000002360           
CUS0696500000106109868007         URGILES ROSA        6738 BRENTWOOD AVE                      000N        CARE OF             
MTR06965000001000000000000000RA              38886307    005800330000003300000520000003NN  NNW 000                       N    
RDG06965000WATRL000000004K00000000000002976003309092015074841N000000000000U65       000140400K 10000000010000002952           
CUS0696500000106334892004         FETCHIK, ROBERT A   6732 BRENTWOOD AVE                      000N        CARE OF             
MTR06965000001000000000000000RA              79036515    005800340000003400000360000003NN  NNW 000                       N    
RDG06965000WATR 000000004R00000000000000046000009152015060000N0003000000?0N         000000400R 10000000010000000000           
RFF0696500069092245      ERT      0000  956.44375000140000091520150600000000463938100W 1220000N                               
CUS0696500000106334891006         LANFRANCO, ROQUE    6730 BRENTWOOD AVE                      000N        CARE OF             
MTR06965000001000000000000000RA              79036513    005800350000003500000360000003NN  NNW 000                       N    
RDG06965000WATR 000000004R00000000000000023000009222015190000N0003000000D0N         000000400R 10000000010000000000           
RFF0696500069068395      ERT      0000  956.44375000140000092220151900000000239281100W 1220000N                               
CUS0696500000106334890008         KUHN, ANNA S    (LIF6728 BRENTWOOD AVE                      000N        CARE OF             
MTR06965000001000000000000000RA              79036528    005800360000003600000360000003NN  NNW 000                       N    
RDG06965000WATR 000000004R00000000000000009000009222015150000N0003000000D0N         000000400R 10000000010000000000           
RFF0696500069131350      ERT      0000  956.44375000140000092220151500000000091113100W 1220000N                               
CUS0696500000106334889000         STARKEY, ROSEMARY C 6726 BRENTWOOD AVE                      000N        CARE OF             
MTR06965000001000000000000000RA              79036526    005800370000003700000360000003NN  NNW 000                       N    
RDG06965000WATR 000000004R00000000000000004000009152015060000N0003000000?0N         000000400R 10000000010000000000           
RFF0696500069131287      ERT      0000  956.44375000140000091520150600000000048423100W 1220000N                               
CUS0696500000106388011006         S & I BROWN FAMILY L6700 BRENTWOOD AVE                      000N        CARE OF             
MTR06965000001000000000000000RA              36699209    007500380000003800000520000003NN  NNW 000                       N    
RDG06965000WATRL000000004K00000000000006411003409092015075055N000000000000U65       001340400K 10000000010000006396           
CUS0696500000106109869005         ROSSO ROBERT E      6701 BRENTWOOD AVE                      000N        CARE OF             
MTR06965000001000000000000000RA              99999999    007500390000003900000620000003NN  NNW 000   FERRULE APPLIED     N    
RDG06965000WATRL000000004K00000000000000000012409092015084724S002000000000U65       000980400K 10000000010000002060           
CUS0696500000106109870003         BAKER ALLEEN V      6703 BRENTWOOD AVE                      000N        CARE OF             
MTR06965000001000000000000000RA              10019775    005800400000004000000570000003NN  NNW 000                       N    
RDG06965000WATRL000000004K00000000000000109012509092015084846N000000000000U65       000820400K 10000000010000000102           
CUS0696500000106109871001         OVERBY RAYMOND M    6705 BRENTWOOD AVE                      000N        CARE OF             
MTR06965000001000000000000000RA              38984829    005800410000004100000520000003NN  NNW 000                       N    
RDG06965000WATRL000000004K00000000000000587012609092015084931N000300000010U65       000450400K 10000000010000000548           
CUS0696500000106109872009         CREAMER CHARLES     6707 BRENTWOOD AVE                      000N        CARE OF             
MTR06965000001000000000000000RA              50479418    005800420000004200000520000003NN  NNW 000                       N    
RDG06965000WATRL000000004K00000000000001449012709092015084957N000000000000U65       000260400K 10000000010000001445           
CUS0696500000106109873007         KONDRATENKO TONY/MAR6709 BRENTWOOD AVE                      000N        CARE OF             
MTR06965000001000000000000000RA              50791060    005800430000004300000520000003NN  NNW 000                       N    
RDG06965000WATRL000000004K00000000000000873012809092015085026N000000000000U65       000290400K 10000000010000000873           
CUS0696500000106109874005         GUIDO FRANK H       6717 BRENTWOOD AVE                      000N        CARE OF             
MTR06965000001000000000000000RA              76345941    005800440000004400000350000003NN  NNW 000                       N    
RDG06965000WATRL000000004K00000000000000058012909092015085057N000000000000U65       000310400K 10000000010000000045           
CUS0696500000106109875002         SMITH DOUGLAS M     6719 BRENTWOOD AVE                      000N        CARE OF             
MTR06965000001000000000000000RA              48591645    005800450000004500000520000003NN  NNW 000                       N    
RDG06965000WATRL000000004K00000000000001675013009092015085131N000000000000U65       000340400K 10000000010000001632           
CUS0696500000106109876000         DESIRABLE RENOVATION6721 BRENTWOOD AVE                      000N        CARE OF             
MTR06965000001000000000000000RA              39585225    005800460000004600000520000003NN  NNW 000                       N    
RDG06965000WATRL000000004K00000000000001246013109092015085211N000000000000U65       000400400K 10000000010000001246           
CUS0696500000106109877008         JONES ROBERT GARY   6723 BRENTWOOD AVE                      000N        CARE OF             
MTR06965000001000000000000000RA              10006764    005800470000004700000570000003NN  NNW 000                       N    
RDG06965000WATRL000000004K00000000000000450013209092015085242N000000000000U65       000310400K 10000000010000000417           
CUS0696500000106109878006         JONES ROBERT GARY   6723 BRENTWOOD AVE                      000N        CARE OF             
MTR06965000001000000000000000RA              45379813    005800480000004800000520000003NN  NNW 000                       N    
RDG06965000WATRL000000004K00000000000002205013309092015085336N000000000000U65       000540400K 10000000010000002119           
CUS0696500000106109879004         GUIDO JOHN IOZZI (DE6801 BRENTWOOD AVE                      000N        CARE OF             
