FHDNNNN020003551003551003551N                                                                                           013284
RHD02630400NN02200220000002200000000002200220000557NY022002200220000200000000000000000000000001    09282015NY020000 N         
CUS0263040000102045638000         COHEN FADER PROP., L9400-12 REISTERSTOWN RD                 000N        CARE OF             
MTR02630400001000000000000000RA              01105338    001500010000000100000610000003NN  NNW 000                       N    
RDG02630400WATRL000000005K00000000000011006000110062015075835N000000000001N40       000000500K 10000000010000010473           
CUS0263040000108386175007         BERNICE D CALKINS   9100 FIELD RD                           000N        CARE OF             
MTR02630400001000000000000000RA              45381644    005800020000000200000520000003NN  NNW 000                       N    
RDG02630400WATRL000000004K00000000000001565000210062015080319N000000000000N40       002840400K 10000000010000001549           
CUS0263040000102407050000         BROOKS CRAIG A      9106 FIELD RD                           000N        CARE OF             
MTR02630400001000000000000000RA              44172513    005800030000000300000520000000NN  NNW 000                       N    
RDG02630400WATRL000000004K00000000000003109000310062015081629N000000000000N40       007900400K 10000000010000003098           
CUS0263040000102398903001         MYERS ROGER V       9110 FIELD RD                           000N        CARE OF             
MTR02630400001000000000000000RA              40320667    005800040000000400000520000003NN  NNW 000                       N    
RDG02630400WATRL000000004K00000000000004401000410062015081633N000000000000N40       000040400K 10000000010000004347           
CUS0263040000102398168001         JAMES P CORTSON     9118 FIELD RD                           000N        CARE OF             
MTR02630400001000000000000000RA              40049552    005800050000000500000520000003NN  NNW 000                       N    
RDG02630400WATRL000000004K00000000000004591000510062015091852N000000000000N40       037390400K 10000000010000004565           
CUS0263040000108404180005         HOWARD GWENDOLYN MAE9119 FIELD RD                           000N        CARE OF             
MTR02630400001000000000000000RA              33078221    005800060000000600000520000003NN  NNW 000                       N    
RDG02630400WATRL000000004K00000000000004386000910062015092325N000300000010N40       000220400K 10000000010000004297           
CUS0263040000102419669003         IMANOEL BABAK       9115 FIELD RD                           000N        CARE OF             
MTR02630400001000000000000000RA              99292787    005800070000000700000570000000NN  NNW 000                       N    
RDG02630400WATRL000000004K00000000000002063000610062015092250N000000000010N40       002380400K 10000000010000002030           
CUS0263040000102401935008         HENRY POLEE JR      9109 FIELD RD                           000N        CARE OF             
MTR02630400001000000000000000RA              41075610    005800080000000800000520000003NN  NNW 000                       N    
RDG02630400WATRL000000004K00000000000001766000710062015092256N000400000010N40       000060400K 10000000010000001762           
CUS0263040000108398131006         BUNDY LORENZO       9105 FIELD RD                           000N        CARE OF             
MTR02630400001000000000000000RA              40049975    005800090000000900000520000000NN  NNW 000                       N    
RDG02630400WATRL000000004K00000000000005594000810062015092303N000300000010N40       000070400K 10000000010000005497           
CUS0263040000108390197005         MACREAL LIMITED PART7920 MCDONOGH RD                        000N        CARE OF             
MTR02630400001000000000000000RA              99410563    000100100000001000000570000003NN  NNW 000                       N    
RDG02630400WATRL000000004K00000000000004458001010062015094205N000000000000N40       011200400K 10000000010000004357           
CUS0263040000102378370007         BLANK IRA L         8019 MCDONOGH RD                        000N        CARE OF             
MTR02630400001000000000000000RA              32904767    005800110000001100000520000003NN  NNW 000                       N    
RDG02630400WATRL000000004K00000000000002607001110062015094209N000000000000N40       000040400K 10000000010000002597           
CUS0263040000108379126009         FIDEL ADAM M        8023 MCDONOGH RD                        000N        CARE OF             
MTR02630400001000000000000000RA              33077648    005800120000001200000520000003NN  NNW 000                       N    
RDG02630400WATRL000000004K00000000000003404001210062015094215N000000000010N40       000060400K 10000000010000003394           
CUS0263040000102399181003         DENKEVITZ MARIAN K  8101 MCDONOGH RD                        000N        CARE OF             
MTR02630400001000000000000000RA              40779345    005800130000001300000520000000NN  NNW 000                       N    
RDG02630400WATRL000000004K00000000000004016001310062015094222N000000000000N40       000070400K 10000000010000003994           
CUS0263040000102410785006         SMITH CALVIN J      8105 MCDONOGH RD                        000N        CARE OF             
MTR02630400001000000000000000RA              45383581    005800140000001400000520000000NN  NNW 000                       N    
RDG02630400WATRL000000004K00000000000008808001410062015094801N000300000010N40       003390400K 10000000010000008664           
CUS0263040000102415219001         GREENBERG ALLAN J   8109 MCDONOGH RD                        000N        CARE OF             
MTR02630400001000000000000000RA              46885889    005800150000001500000520000000NN  NNW 000                       N    
RDG02630400WATRL000000004K00000000000004305001510062015094805N000000000000N40       000040400K 10000000010000004201           
CUS0263040000102399151006         MARTIN AMY H        8111 MCDONOGH RD                        000N        CARE OF             
MTR02630400001000000000000000RA              40779665    005800160000001600000520000000NN  NNW 000                       N    
RDG02630400WATRL000000004K00000000000004889001610062015094809N000000000000N40       000040400K 10000000010000004873           
CUS0263040000102398386009         LAWYER KIANA        8113 MCDONOGH RD                        000N        CARE OF             
MTR02630400001000000000000000RA              30527676    005800170000001700000520000000NN  NNW 000                       N    
RDG02630400WATRL000000004K00000000000001731001710062015094812N000000000000N40       000030400K 10000000010000001722           
CUS0263040000102398387007         BARTRAM MARILYN SUSA8115 MCDONOGH RD                        000N        CARE OF             
MTR02630400001000000000000000RA              40779089    005800180000001800000520000000NN  NNW 000                       N    
RDG02630400WATRL000000004K00000000000003271001810062015094826N000000000000N40       000140400K 10000000010000003236           
CUS0263040000102398167003         SILBIGER ARNOLD R   8117 MCDONOGH RD                        000N        CARE OF             
MTR02630400001000000000000000RA              40049551    005800190000001900000520000000NN  NNW 000                       N    
RDG02630400WATRL000000004K00000000000007088001910062015094831N000000000000N40       000050400K 10000000010000007068           
CUS0263040000102423774005         EPP MARY JO MAZZACCO8119 MCDONOGH RD                        000N        CARE OF             
MTR02630400001000000000000000RA              50789764    005800200000002000000520000000NN  NNW 000                       N    
RDG02630400WATRL000000004K00000000000003225002010062015094839N000000000000N40       000080400K 10000000010000003175           
CUS0263040000108398134000         GREOGRY W. RAMSEY   8123 MCDONOGH RD                        000N        CARE OF             
MTR02630400001000000000000000RA              27813505    005800210000002100000520000000NN  NNW 000                       N    
RDG02630400WATRL000000004K00000000000001524002110062015094841N000000000000N40       000020400K 10000000010000001507           
CUS0263040000108398133002         ROMEO J DONOFRIO , J8121 MCDONOGH RD                        000N        CARE OF             
MTR02630400001000000000000000RA              14919615    005800220000002200000310000000NN  NNW 000                       N    
RDG02630400WATRL000000004K00000000000002465002210062015094844N000000000000N40       000030400K 10000000010000002199           
CUS0263040000102394235002         MASS TRANSIT ADMIN. 8301 MCDONOGH RD                        000N        CARE OF             
MTR02630400001000000000000000RA              39291992    005800230000002300000520000003NN  NNW 000                       N    
RDG02630400WATRL000000004K00000000000000523002310062015094849N000100000010N40       000050400K 10000000010000000523           
CUS0263040000102045641004         BOLTE JOHN HENRY    117 MT WILSON LN                        000N        CARE OF             
MTR02630400001000000000000000RA              77883533    005800240000002400000360000003NN  NNW 000                       N    
RDG02630400WATRL000000004K00000000000000017002410062015095248N000000000010N40       002390400K 10000000010000000000           
CUS0263040000102045642002         RICKARD CHARLES E   115 MT WILSON LN                        000N        CARE OF             
MTR02630400001000000000000000RA              52288355    005800250000002500000520000003NN  NNW 000                       N    
RDG02630400WATRL000000004K00000000000002079002610062015095449N000000000000N40       000480400K 10000000010000001987           
CUS0263040000102404137008         BURNS RAYMOND R,JR  115A MT WILSON LN                       000N        CARE OF             
MTR02630400001000000000000000RA              77987685    005800260000002600000350000003NY  NNW 000                       N    
MTM0263040077987685    RD 0124                                                                                                
RDG02630400WATRL000000004K00000000000000000000000000000000000 000000000000U         000000400  10000000010000002410           
CUS0263040000102404164002         HEKLER MILO         25 MT WILSON LN                         000N        CARE OF             
MTR02630400001000000000000000RA              42809240    005800270000002700000520000003NN  NNW 000                       N    
RDG02630400WATRL000000004K00000000000001856002710062015095518N000000000000N40       000290400K 10000000010000001848           
CUS0263040000102045643000         REAMER ELIZABETH H  109 MT WILSON LN                        000N        CARE OF             
MTR02630400001000000000000000RA              10013590    005800280000002800000570000003NN  NNW 000                       N    
RDG02630400WATRL000000004K00000000000000270002510062015095401N000000000000N40       000730400K 10000000010000000262           
CUS0263040000102414676003         SORKIN JOHN         1 STONE GATE CT                         000N        CARE OF             
MTR02630400001000000000000000RA              01092684    005800290000002900000610000003NN  NNW 000                       N    
RDG02630400WATRL000000004K00000000000000832011710062015125743N000000000000N40       000040400K 10000000010000000817           
CUS0263040000102414675005         DRAPER ROBERT F,JR  3 STONE GATE CT                         000N        CARE OF             
MTR02630400001000000000000000RA              01113946    005800300000003000000610000003NN  NNW 000                       N    
RDG02630400WATRL000000004K00000000000000548011610062015125739N000000000000N40       000040400K 10000000010000000527           
CUS0263040000102414674008         DON R CHANCE        5 STONE GATE CT                         000N        CARE OF             
MTR02630400001000000000000000RA              52770739    005800310000003100000520000003NN  NNW 000                       N    
RDG02630400WATRL000000004K00000000000000955011510062015125735N000000000000N40       000040400K 10000000010000000945           
CUS0263040000102414673000         JEROME S FIELDS     7 STONE GATE CT                         000N        CARE OF             
MTR02630400001000000000000000RA              50791925    005800320000003200000520000003NN  NNW 000                       N    
RDG02630400WATRL000000004K00000000000001563011410062015125731N000000000000N40       000040400K 10000000010000001550           
CUS0263040000102414672002         GOLOB MARSHA J      9 STONE GATE CT                         000N        CARE OF             
MTR02630400001000000000000000RA              99286297    005800330000003300000570000003NN  NNW 000                       N    
RDG02630400WATRL000000004K00000000000000722011310062015125727N000000000000N40       000070400K 10000000010000000718           
CUS0263040000102414671004         SHAIVITZ JULES      11 STONE GATE CT                        000N        CARE OF             
MTR02630400001000000000000000RA              99286309    005800340000003400000570000003NN  NNW 000                       N    
RDG02630400WATRL000000004K00000000000001289011210062015125720N000000000000N40       000050400K 10000000010000001261           
CUS0263040000102414670006         COPELAND RENE G     15 STONE GATE CT                        000N        CARE OF             
MTR02630400001000000000000000RA              99293113    005800350000003500000570000003NN  NNW 000                       N    
RDG02630400WATRL000000004K00000000000001284011110062015125715N000000000000N40       000040400K 10000000010000001264           
CUS0263040000102414669008         PERLMUTTER RICHARD A19 STONE GATE CT                        000N        CARE OF             
MTR02630400001000000000000000RA              50477576    005800360000003600000520000003NN  NNW 000                       N    
RDG02630400WATRL000000004K00000000000001398011010062015125711N000000000000N40       000040400K 10000000010000001386           
CUS0263040000102414668000         KANG JAMES M        21 STONE GATE CT                        000N        CARE OF             
MTR02630400001000000000000000RA              50478849    005800370000003700000520000003NN  NNW 000                       N    
RDG02630400WATRL000000004K00000000000001092010910062015125707N000000000000N40       000040400K 10000000010000001074           
CUS0263040000102414667002         STELLER BARRY I     23 STONE GATE CT                        000N        CARE OF             
MTR02630400001000000000000000RA              54351329    005800380000003800000520000003NN  NNW 000                       N    
RDG02630400WATRL000000004K00000000000001373010810062015125703N000000000000N40       000050400K 10000000010000001358           
CUS0263040000102414666004         KNOWLTON MYRA A     25 STONE GATE CT                        000N        CARE OF             
MTR02630400001000000000000000RA              48593256    005800390000003900000520000003NN  NNW 000                       N    
RDG02630400WATRL000000004K00000000000001155010710062015125658N000000000000N40       000040400K 10000000010000001144           
CUS0263040000102414665006         GORIN JOSEPH        27 STONE GATE CT                        000N        CARE OF             
MTR02630400001000000000000000RA              50481328    005800400000004000000520000003NN  NNW 000                       N    
RDG02630400WATRL000000004K00000000000000917010610062015125654N000000000000N40       000050400K 10000000010000000896           
CUS0263040000102414664009         GOLDSTEIN BENNETT H 29 STONE GATE CT                        000N        CARE OF             
MTR02630400001000000000000000RA              46883583    005800410000004100000520000003NN  NNW 000                       N    
RDG02630400WATRL000000004K00000000000002098010510062015125649N000000000000N40       000080400K 10000000010000002081           
CUS0263040000102414663001         JOHNSON MICHAEL D   31 STONE GATE CT                        000N        CARE OF             
MTR02630400001000000000000000RA              99287352    005800420000004200000570000003NN  NNW 000                       N    
RDG02630400WATRL000000004K00000000000001829010410062015125641N000400000010N40       000070400K 10000000010000001822           
CUS0263040000102414662003         HALPERN RENEE B     30 STONE GATE CT                        000N        CARE OF             
MTR02630400001000000000000000RA              48583178    005800430000004300000520000003NN  NNW 000                       N    
RDG02630400WATRL000000004K00000000000001711010310062015125634N000000000000N40       000040400K 10000000010000001701           
CUS0263040000102414661005         DO BICH THUY        28 STONE GATE CT                        000N        CARE OF             
MTR02630400001000000000000000RA              48592035    005800440000004400000520000003NN  NNW 000                       N    
RDG02630400WATRL000000004K00000000000001615010210062015125630N000000000000N40       000070400K 10000000010000001601           
CUS0263040000102414660007         PASHEN MARSHA L     26 STONE GATE CT                        000N        CARE OF             
MTR02630400001000000000000000RA              50788408    005800450000004500000520000003NN  NNW 000                       N    
RDG02630400WATRL000000004K00000000000000586010110062015125623N000300000021N40       000360400K 10000000010000000576           
CUS0263040000102414659009         BRENDA SHOENIG      24 STONE GATE CT                        000N        CARE OF             
MTR02630400001000000000000000RA              48593261    005800460000004600000520000003NN  NNW 000                       N    
RDG02630400WATRL000000004K00000000000001170010010062015125540N000000000000N40       000040400K 10000000010000001158           
CUS0263040000102414123006         BEN KEITH KANEDA    22 STONE GATE CT                        000N        CARE OF             
MTR02630400001000000000000000RA              14923007    005800470000004700000310000003NN  NNW 000                       N    
RDG02630400WATRL000000004K00000000000000523009910062015125536N000000000000N40       000040400K 10000000010000000508           
CUS0263040000102414658001         KALIB SYLVAN        20 STONE GATE CT                        000N        CARE OF             
MTR02630400001000000000000000RA              46887287    005800480000004800000520000003NN  NNW 000                       N    
RDG02630400WATRL000000004K00000000000002151009810062015125532N000000000000N40       000060400K 10000000010000002129           
CUS0263040000102414657003         MARTIN COHN H       18 STONE GATE CT                        000N        CARE OF             
MTR02630400001000000000000000RA              46887288    005800490000004900000520000003NN  NNW 000                       N    
RDG02630400WATRL000000004K00000000000002065009710062015125526N000000000000N40       000050400K 10000000010000002045           
CUS0263040000102414656005         FRIED BARRY         16 STONE GATE CT                        000N        CARE OF             
MTR02630400001000000000000000RA              48596537    005800500000005000000520000003NN  NNW 000                       N    
RDG02630400WATRL000000004K00000000000001782009610062015125521N000000000000N40       000070400K 10000000010000001769           
CUS0263040000102414655007         CHUNG BRIAN         14 STONE GATE CT                        000N        CARE OF             
MTR02630400001000000000000000RA              48582925    005800510000005100000520000003NN  NNW 000                       N    
RDG02630400WATRL000000004K00000000000001608009510062015125514N000000000000N40       000060400K 10000000010000001585           
CUS0263040000102414654000         STREICHER THOMAS E  12 STONE GATE CT                        000N        CARE OF             
MTR02630400001000000000000000RA              48587842    005800520000005200000520000003NN  NNW 000                       N    
RDG02630400WATRL000000004K00000000000002138009410062015125508N000000000000N40       000110400K 10000000010000002124           
CUS0263040000102414653002         DANIEL ELLEN A      10 STONE GATE CT                        000N        CARE OF             
MTR02630400001000000000000000RA              48586626    005800530000005300000520000003NN  NNW 000                       N    
RDG02630400WATRL000000004K00000000000001354009310062015125457N000300000010N40       000070400K 10000000010000001289           
CUS0263040000102414652004         ROSAY JACK F        8 STONE GATE CT                         000N        CARE OF             
MTR02630400001000000000000000RA              50478174    005800540000005400000520000003NN  NNW 000                       N    
RDG02630400WATRL000000004K00000000000001438009210062015125450N000000000000N40       000050400K 10000000010000001418           
CUS0263040000102414651006         FRIER LEONARD       6 STONE GATE CT                         000N        CARE OF             
MTR02630400001000000000000000RA              50787893    005800550000005500000520000003NN  NNW 000                       N    
RDG02630400WATRL000000004K00000000000000621009110062015125445N000300000010N40       000080400K 10000000010000000597           
CUS0263040000102414650008         MUMBY WILLIAM,SR    4 STONE GATE CT                         000N        CARE OF             
MTR02630400001000000000000000RA              48590824    005800560000005600000520000003NN  NNW 000                       N    
RDG02630400WATRL000000004K00000000000001513009010062015125437N000000000000N40       020200400K 10000000010000001488           
CUS0263040000102414649000         LVOVSKY SVETLANA    2 STONE GATE CT                         000N        CARE OF             
MTR02630400001000000000000000RA              99188714    005800570000005700000570000003NN  NNW 000                       N    
RDG02630400WATRL000000004K00000000000001130008910062015122057N000000000000N40       000380400K 10000000010000001117           
CUS0263040000102407077003         ROBERTS STEVEN      1 STAGS LEAP CT                         000N        CARE OF             
MTR02630400001000000000000000RA              36692667    005800580000005800000520000003NN  NNW 000                       N    
RDG02630400WATRL000000004K00000000000005735005510062015112454N000000000000N40       000450400K 10000000010000005698           
CUS0263040000102407078001         KRONBERG NORMAN     3 STAGS LEAP CT                         000N        CARE OF             
MTR02630400001000000000000000RA              44177958    005800590000005900000520000003NN  NNW 000                       N    
RDG02630400WATRL000000004K00000000000003835005610062015112500N000000000000N40       000060400K 10000000010000003760           
CUS0263040000102407079009         BROWN BRUCE H       5 STAGS LEAP CT                         000N        CARE OF             
MTR02630400001000000000000000RA              44177959    005800600000006000000520000003NN  NNW 000                       N    
RDG02630400WATRL000000004K00000000000002800005710062015112509N000000000000N40       000090400K 10000000010000002772           
CUS0263040000102407080007         DANIEL WAGNER TRUSTE7 STAGS LEAP CT                         000N        CARE OF             
MTR02630400001000000000000000RA              52288703    005800610000006100000520000003NN  NNW 000                       N    
RDG02630400WATRL000000004K00000000000002053005810062015112514N000000000000N40       000050400K 10000000010000002034           
CUS0263040000102407082003         NICOLL JOANNE M     9 STAGS LEAP CT                         000N        CARE OF             
MTR02630400001000000000000000RA              36687256    005800620000006200000520000003NN  NNW 000                       N    
RDG02630400WATRL000000004K00000000000002639005910062015112522N000000000000N40       000080400K 10000000010000002609           
CUS0263040000102407083001         BASS RICHARD        11 STAGS LEAP CT                        000N        CARE OF             
MTR02630400001000000000000000RA              33732854    005800630000006300000520000003NN  NNW 000                       N    
RDG02630400WATRL000000004K00000000000004270006010062015112529N000000000000N40       000070400K 10000000010000004258           
CUS0263040000102407084009         TEITEL RICHARD      15 STAGS LEAP CT                        000N        CARE OF             
MTR02630400001000000000000000RA              33732378    005800640000006400000520000003NN  NNW 000                       N    
RDG02630400WATRL000000004K00000000000000655006110062015112533N000000000000N40       000040400K 10000000010000000639           
CUS0263040000102407085006         GELLAR LARRY M      17 STAGS LEAP CT                        000N        CARE OF             
MTR02630400001000000000000000RA              39924021    005800650000006500000520000003NN  NNW 000                       N    
RDG02630400WATRL000000004K00000000000002139006210062015112537N000000000000N40       000040400K 10000000010000002126           
CUS0263040000102407086004         LEVINE ROBERT R LEVI19 STAGS LEAP CT                        000N        CARE OF             
MTR02630400001000000000000000RA              46884414    005800660000006600000520000003NN  NNW 000                       N    
RDG02630400WATRL000000004K00000000000001689006310062015112544N000000000000N40       000070400K 10000000010000001669           
CUS0263040000102407087002         HINKLE GREGORY      21 STAGS LEAP CT                        000N        CARE OF             
MTR02630400001000000000000000RA              50788612    005800670000006700000520000003NN  NNW 000                       N    
RDG02630400WATRL000000004K00000000000001603006410062015112550N000000000000N40       000060400K 10000000010000001575           
CUS0263040000102407089008         GOLDSCHER SHERI ROBY23 STAGS LEAP CT                        000N        CARE OF             
MTR02630400001000000000000000RA              52286674    005800680000006800000520000003NN  NNW 000                       N    
RDG02630400WATRL000000004K00000000000001432006510062015112555N000000000000N40       000050400K 10000000010000001414           
CUS0263040000102407090006         BETTS JAMES E       27 STAGS LEAP CT                        000N        CARE OF             
MTR02630400001000000000000000RA              99188473    005800690000006900000570000003NN  NNW 000                       N    
RDG02630400WATRL000000004K00000000000001621006610062015112602N000000000000N40       000070400K 10000000010000001594           
CUS0263040000102407091004         HOFFMAN STEVEN E    29 STAGS LEAP CT                        000N        CARE OF             
MTR02630400001000000000000000RA              99187282    005800700000007000000570000003NN  NNW 000                       N    
RDG02630400WATRL000000004K00000000000001357006710062015112608N000000000000N40       000060400K 10000000010000001345           
CUS0263040000102407092002         BERMAN STACY C      31 STAGS LEAP CT                        000N        CARE OF             
MTR02630400001000000000000000RA              50791924    005800710000007100000520000003NN  NNW 000                       N    
RDG02630400WATRL000000004K00000000000001337006810062015112614N000000000000N40       000060400K 10000000010000001307           
CUS0263040000102407093000         GORDON BRUCE M      33 STAGS LEAP CT                        000N        CARE OF             
MTR02630400001000000000000000RA              45383571    005800720000007200000520000003NN  NNW 000                       N    
RDG02630400WATRL000000004K00000000000002151006910062015112620N000000000000N40       000060400K 10000000010000002127           
CUS0263040000102407094008         KIM LEWIS F,JR      40 STAGS LEAP CT                        000N        CARE OF             
MTR02630400001000000000000000RA              45383660    005800730000007300000520000003NN  NNW 000                       N    
RDG02630400WATRL000000004K00000000000001985007010062015112625N000000000000N40       000050400K 10000000010000001979           
CUS0263040000102407095005         DALTON AMY V        38 STAGS LEAP CT                        000N        CARE OF             
MTR02630400001000000000000000RA              46876717    005800740000007400000520000003NN  NNW 000                       N    
RDG02630400WATRL000000004K00000000000002563007110062015112630N000000000000N40       000050400K 10000000010000002530           
CUS0263040000102407096003         YOUNG HAROLD D      36 STAGS LEAP CT                        000N        CARE OF             
MTR02630400001000000000000000RA              74688170    005800750000007500000350000003NN  NNW 000                       N    
RDG02630400WATRL000000004K00000000000000135007210062015112638N000000000000N40       000080400K 10000000010000000121           
CUS0263040000102407097001         BARNETT JOSEPH H    34 STAGS LEAP CT                        000N        CARE OF             
MTR02630400001000000000000000RA              48586666    005800760000007600000520000003NN  NNW 000                       N    
RDG02630400WATRL000000004K00000000000002357007310062015112646N000000000000N40       000080400K 10000000010000002323           
CUS0263040000102407098009         MCCABE LUKE A       32 STAGS LEAP CT                        000N        CARE OF             
MTR02630400001000000000000000RA              46876721    005800770000007700000520000003NN  NNW 000                       N    
RDG02630400WATRL000000004K00000000000001438007410062015112652N000000000000N40       000060400K 10000000010000001415           
CUS0263040000102407099007         S. HAROLD SPENCER   30 STAGS LEAP CT                        000N        CARE OF             
MTR02630400001000000000000000RA              48587178    005800780000007800000520000003NN  NNW 000                       N    
RDG02630400WATRL000000004K00000000000001701007510062015112730N000000000000N40       000380400K 10000000010000001677           
CUS0263040000102407107008         WEINER DAVID M      210 GLENN ELLEN CIR                     000N        CARE OF             
MTR02630400001000000000000000RA              46888585    005800790000007900000520000003NN  NNW 000                       N    
RDG02630400WATRL000000004K00000000000001992007610062015112744N000300000010N40       000140400K 10000000010000001885           
CUS0263040000102407101001         DACKMAN HARRIETT L  24 STAGS LEAP CT                        000N        CARE OF             
MTR02630400001000000000000000RA              45382738    005800800000008000000520000003NN  NNW 000                       N    
RDG02630400WATRL000000004K00000000000001944007710062015112759N000000000000N40       000150400K 10000000010000001929           
CUS0263040000102407102009         ROTH JUSTINE P      22 STAGS LEAP CT                        000N        CARE OF             
MTR02630400001000000000000000RA              99288183    005800810000008100000570000003NN  NNW 000                       N    
RDG02630400WATRL000000004K00000000000000697007810062015121852N000000000000N40       030530400K 10000000010000000660           
CUS0263040000102407103007         WEINBERG LILLIAN    20 STAGS LEAP CT                        000N        CARE OF             
MTR02630400001000000000000000RA              50478509    005800820000008200000520000003NN  NNW 000                       N    
RDG02630400WATRL000000004K00000000000000848007910062015121901N000000000000N40       000090400K 10000000010000000842           
CUS0263040000102409525009         LARONNA W HARRIS    200 GLENN ELLEN CIR                     000N        CARE OF             
MTR02630400001000000000000000RA              45377206    005800830000008300000520000003NN  NNW 000                       N    
RDG02630400WATRL000000004K00000000000004146008010062015121909N000000000000N40       000080400K 10000000010000004129           
CUS0263040000102407112008         BEYLIS JEFFERY Y    202 GLENN ELLEN CIR                     000N        CARE OF             
MTR02630400001000000000000000RA              45376723    005800840000008400000520000003NN  NNW 000                       N    
RDG02630400WATRL000000004K00000000000002237008110062015121914N000000000000N40       000050400K 10000000010000002233           
CUS0263040000102407104005         GREENEBAUM NONA NISM204 GLENN ELLEN CIR                     000N        CARE OF             
MTR02630400001000000000000000RA              00128672    005800850000008500000570000003NN  NNW 000                       N    
RDG02630400WATRL000000004K00000000000001787008210062015121926N000300000010N40       000120400K 10000000010000001744           
CUS0263040000102407105002         FEINSTEIN CHARLES KE206 GLENN ELLEN CIR                     000N        CARE OF             
MTR02630400001000000000000000RA              14924097    005800860000008600000310000003NN  NNW 000                       N    
RDG02630400WATRL000000004K00000000000000539008310062015121940N000000000000N40       000140400K 10000000010000000523           
CUS0263040000102407106000         CHANG WONCHUL       208 GLENN ELLEN CIR                     000N        CARE OF             
MTR02630400001000000000000000RA              45376737    005800870000008700000520000003NN  NNW 000                       N    
RDG02630400WATRL000000004K00000000000003226008410062015121949N000400000010N40       000090400K 10000000010000003224           
CUS0263040000102407108006         MILLER VERLENA      212 GLENN ELLEN CIR                     000N        CARE OF             
MTR02630400001000000000000000RA              78024053    005800880000008800000360000003NN  NNW 000                       N    
RDG02630400WATRL000000004K00000000000000050008510062015121956N000000000000N40       000070400K 10000000010000000027           
CUS0263040000102407109004         BLUM STEPHEN G      214 GLENN ELLEN CIR                     000N        CARE OF             
MTR02630400001000000000000000RA              45374148    005800890000008900000520000003NN  NNW 000                       N    
RDG02630400WATRL000000004K00000000000002309008610062015122004N000000000000N40       000080400K 10000000010000002279           
CUS0263040000102407110002         RHODY DOLORES R     216 GLENN ELLEN CIR                     000N        CARE OF             
MTR02630400001000000000000000RA              45377209    005800900000009000000520000003NN  NNW 000                       N    
RDG02630400WATRL000000004K00000000000003557008710062015122013N000000000000N40       000090400K 10000000010000003550           
CUS0263040000102407111000         MANN JOHN E         218 GLENN ELLEN CIR                     000N        CARE OF             
MTR02630400001000000000000000RA              50788409    005800910000009100000520000003NN  NNW 000                       N    
RDG02630400WATRL000000004K00000000000001280008810062015122019N000000000000N40       000060400K 10000000010000001269           
CUS0263040000102413436003         KLEEMAN ALBERT      301 CHALK HILL DR                       000N        CARE OF             
MTR02630400001000000000000000RA              46884531    005800920000009200000520000003NN  NNW 000                       N    
RDG02630400WATRL000000004K00000000000002904000110062015080605N000000000000N40       000000400K 10000000010000002870           
CUS0263040000102413435005         REMESLENNIK GREGORY 303 CHALK HILL DR                       000N        CARE OF             
MTR02630400001000000000000000RA              50477156    005800930000009300000520000003NN  NNW 000                       N    
RDG02630400WATRL000000004K00000000000001561000210062015080658N000300000010N40       000530400K 10000000010000001543           
CUS0263040000102413428000         GOLDBERG JEROME D   305 CHALK HILL DR                       000N        CARE OF             
MTR02630400001000000000000000RA              48596899    005800940000009400000520000003NN  NNW 000                       N    
RDG02630400WATRL000000004K00000000000001166000310062015081431N000000000000N40       004530400K 10000000010000001159           
CUS0263040000102413429008         YOSPE DIANNE B      307 CHALK HILL DR                       000N        CARE OF             
MTR02630400001000000000000000RA              46884530    005800950000009500000520000003NN  NNW 000                       N    
RDG02630400WATRL000000004K00000000000001125000410062015081435N000000000000N40       000040400K 10000000010000001107           
CUS0263040000102413430006         FENNOY THOMAS       309 CHALK HILL DR                       000N        CARE OF             
MTR02630400001000000000000000RA              99287050    005800960000009600000570000003NN  NNW 000                       N    
RDG02630400WATRL000000004K00000000000001228000510062015081603N000000000000N40       000880400K 10000000010000001209           
CUS0263040000102413431004         HUSSEIN AHMED       311 CHALK HILL DR                       000N        CARE OF             
MTR02630400001000000000000000RA              46884532    005800970000009700000520000003NN  NNW 000                       N    
RDG02630400WATRL000000004K00000000000001525000610062015084031N000000000010N40       014680400K 10000000010000001498           
CUS0263040000102413432002         BERLIN BARRY        313 CHALK HILL DR                       000N        CARE OF             
MTR02630400001000000000000000RA              46884528    005800980000009800000520000003NN  NNW 000                       N    
RDG02630400WATRL000000004K00000000000000960000710062015084938N000000000000N40       005470400K 10000000010000000946           
CUS0263040000102413433000         RING ZIVAH L        315 CHALK HILL DR                       000N        CARE OF             
MTR02630400001000000000000000RA              77889275    005800990000009900000360000003NN  NNW 000                       N    
RDG02630400WATRL000000004K00000000000000021000810062015084944N000000000010N40       000060400K 10000000010000000000           
CUS0263040000102413434008         KALMAN MATTHEW A    317 CHALK HILL DR                       000N        CARE OF             
MTR02630400001000000000000000RA              50479803    005801000000010000000520000003NN  NNW 000                       N    
RDG02630400WATRL000000004K00000000000001192000910062015084947N000000000000N40       000030400K 10000000010000001184           
CUS0263040000102413427002         FISHER RHONA S,PHD  319 CHALK HILL DR                       000N        CARE OF             
MTR02630400001000000000000000RA              50479844    005801010000010100000520000003NN  NNW 000                       N    
RDG02630400WATRL000000004K00000000000001039001010062015085159N000000000000N40       001320400K 10000000010000001021           
CUS0263040000102413426004         FINKELSTEIN HOWARD H321 CHALK HILL DR                       000N        CARE OF             
MTR02630400001000000000000000RA              50788681    005801020000010200000520000003NN  NNW 000                       N    
RDG02630400WATRL000000004K00000000000000990001110062015085204N000000000000N40       000050400K 10000000010000000973           
CUS0263040000102413425006         MICHELMAN KURT      326 CHALK HILL DR                       000N        CARE OF             
MTR02630400001000000000000000RA              46884539    005801030000010300000520000003NN  NNW 000                       N    
RDG02630400WATRL000000004K00000000000001044001210062015085720N000000000000N40       003160400K 10000000010000001038           
CUS0263040000102413437001         SMELKINSON CARL     324 CHALK HILL DR                       000N        CARE OF             
MTR02630400001000000000000000RA              46883029    005801040000010400000520000003NN  NNW 000                       N    
RDG02630400WATRL000000004K00000000000001544001310062015085854N000000000000N40       000940400K 10000000010000001526           
CUS0263040000102413438009         SO HO YOUNG         322 CHALK HILL DR                       000N        CARE OF             
MTR02630400001000000000000000RA              46883832    005801050000010500000520000003NN  NNW 000                       N    
RDG02630400WATRL000000004K00000000000001602001410062015085857N000000000000N40       000030400K 10000000010000001588           
CUS0263040000102413439007         EISENBACH AARON M   320 CHALK HILL DR                       000N        CARE OF             
MTR02630400001000000000000000RA              46884318    005801060000010600000520000003NN  NNW 000                       N    
RDG02630400WATRL000000004K00000000000001281001510062015085906N000000000000N40       000090400K 10000000010000001254           
CUS0263040000102413440005         GRIGGSBY WILLIAM L  318 CHALK HILL DR                       000N        CARE OF             
MTR02630400001000000000000000RA              46884289    005801070000010700000520000003NN  NNW 000                       N    
RDG02630400WATRL000000004K00000000000001734001610062015085910N000000000000N40       000040400K 10000000010000001721           
CUS0263040000102413441003         SAPP HOWARD S       316 CHALK HILL DR                       000N        CARE OF             
MTR02630400001000000000000000RA              46882824    005801080000010800000520000003NN  NNW 000                       N    
RDG02630400WATRL000000004K00000000000001765001710062015090443N000000000000N40       003330400K 10000000010000001748           
CUS0263040000102413442001         HORWITZ MORRIS E    314 CHALK HILL DR                       000N        CARE OF             
MTR02630400001000000000000000RA              46884292    005801090000010900000520000003NN  NNW 000                       N    
RDG02630400WATRL000000004K00000000000001663001810062015090447N000000000000N40       000040400K 10000000010000001649           
CUS0263040000102413443009         LEVIN JOSEPH C      312 CHALK HILL DR                       000N        CARE OF             
MTR02630400001000000000000000RA              46884321    005801100000011000000520000003NN  NNW 000                       N    
RDG02630400WATRL000000004K00000000000001826001910062015090450N000000000000N40       000030400K 10000000010000001810           
CUS0263040000102413444007         HIRSCH SOL          310 CHALK HILL DR                       000N        CARE OF             
MTR02630400001000000000000000RA              46887815    005801110000011100000520000003NN  NNW 000                       N    
RDG02630400WATRL000000004K00000000000001922002010062015090454N000000000000N40       000040400K 10000000010000001907           
CUS0263040000102413423001         DENNARD BENJAMIN J,J1 STONE PINE CT                         000N        CARE OF             
MTR02630400001000000000000000RA              46879971    005801120000011200000520000003NN  NNW 000                       N    
RDG02630400WATRL000000004K00000000000002719002110062015091242N000000000000N40       004680400K 10000000010000002694           
CUS0263040000102413605003         DAVIDSON GEORGE G   3 STONE PINE CT                         000N        CARE OF             
MTR02630400001000000000000000RA              46884533    005801130000011300000520000003NN  NNW 000                       N    
RDG02630400WATRL000000004K00000000000002153002210062015092031N000000000000N40       004690400K 10000000010000002123           
CUS0263040000102413604006         WEITZ HENRY H       21 STONE PINE CT                        000N        CARE OF             
MTR02630400001000000000000000RA              48593430    005801140000011400000520000003NN  NNW 000                       N    
RDG02630400WATRL000000004K00000000000002121002310062015092043N000000000000N40       000120400K 10000000010000002085           
CUS0263040000102413603008         LERNER BERYL        23 STONE PINE CT                        000N        CARE OF             
MTR02630400001000000000000000RA              48596534    005801150000011500000520000003NN  NNW 000                       N    
RDG02630400WATRL000000004K00000000000001801002410062015092054N000000000010N40       000110400K 10000000010000001769           
CUS0263040000102413602000         LEIBOWITZ AVI EZEKIE25 STONE PINE CT                        000N        CARE OF             
MTR02630400001000000000000000RA              48593433    005801160000011600000520000003NN  NNW 000                       N    
RDG02630400WATRL000000004K00000000000002058002510062015092106N000000000000N40       000120400K 10000000010000002023           
CUS0263040000102413601002         TANGEMAN GRETCHEN   27 STONE PINE CT                        000N        CARE OF             
MTR02630400001000000000000000RA              50478159    005801170000011700000520000003NN  NNW 000                       N    
RDG02630400WATRL000000004K00000000000000562002610062015094347N000000000000N40       013610400K 10000000010000000558           
CUS0263040000102413600004         MILLER ROBERT B     29 STONE PINE CT                        000N        CARE OF             
MTR02630400001000000000000000RA              48596533    005801180000011800000520000003NN  NNW 000                       N    
RDG02630400WATRL000000004K00000000000001184002710062015094357N000300000010N40       000100400K 10000000010000001169           
CUS0263040000102413599008         LOWE ELISE C        31 STONE PINE CT                        000N        CARE OF             
MTR02630400001000000000000000RA              54350196    005801190000011900000520000003NN  NNW 000                       N    
RDG02630400WATRL000000004K00000000000001738002810062015094407N000000000000N40       000100400K 10000000010000001696           
CUS0263040000102413629003         WEINSTEIN RAY NEIL  33 STONE PINE CT                        000N        CARE OF             
MTR02630400001000000000000000RA              54350201    005801200000012000000520000003NN  NNW 000                       N    
RDG02630400WATRL000000004K00000000000001115002910062015094649N000000000000N40       001620400K 10000000010000001100           
CUS0263040000102413628005         SILVERMAN WAYNE S   35 STONE PINE CT                        000N        CARE OF             
MTR02630400001000000000000000RA              54352041    005801210000012100000520000003NN  NNW 000                       N    
RDG02630400WATRL000000004K00000000000001069003010062015094654N000000000000N40       000050400K 10000000010000001060           
CUS0263040000102413627007         ROBERTS JAMES L     37 STONE PINE CT                        000N        CARE OF             
MTR02630400001000000000000000RA              50787418    005801220000012200000520000003NN  NNW 000                       N    
RDG02630400WATRL000000004K00000000000001582003110062015094659N000000000000N40       000050400K 10000000010000001565           
CUS0263040000102413626009         VALENTINE MARTIN D  41 STONE PINE CT                        000N        CARE OF             
MTR02630400001000000000000000RA              50479971    005801230000012300000520000003NN  NNW 000                       N    
RDG02630400WATRL000000004K00000000000001968003210062015095411N000000000000N40       004320400K 10000000010000001947           
CUS0263040000102413625001         STEIN BERNARD A,TRUS43 STONE PINE CT                        000N        CARE OF             
MTR02630400001000000000000000RA              46884530    005801240000012400000520000003NN  NNW 000                       N    
RDG02630400WATRL000000004K00000000000002112003310062015095417N000000000000N40       000060400K 10000000010000002069           
CUS0263040000102413606001         WALCZAK DAVID M     44 STONE PINE CT                        000N        CARE OF             
MTR02630400001000000000000000RA              50786698    005801250000012500000520000003NN  NNW 000                       N    
RDG02630400WATRL000000004K00000000000001600003410062015095424N000000000000N40       000070400K 10000000010000001587           
CUS0263040000102413607009         GREENSPUN RICHARD J 42 STONE PINE CT                        000N        CARE OF             
MTR02630400001000000000000000RA              14907922    005801260000012600000310000003NN  NNW 000                       N    
RDG02630400WATRL000000004K00000000000000781003510062015095931N000000000000N40       003070400K 10000000010000000759           
CUS0263040000102413608007         MANNIX NORMA J      40 STONE PINE CT                        000N        CARE OF             
MTR02630400001000000000000000RA              99188065    005801270000012700000570000003NN  NNW 000                       N    
RDG02630400WATRL000000004K00000000000001161003610062015095936N000000000000N40       000050400K 10000000010000001154           
CUS0263040000102413609005         RUSSELL GEORGE L,JR 38 STONE PINE CT                        000N        CARE OF             
MTR02630400001000000000000000RA              54350200    005801280000012800000520000003NN  NNW 000                       N    
RDG02630400WATRL000000004K00000000000001406003710062015095944N000000000000N40       000080400K 10000000010000001391           
CUS0263040000102413610003         NIGRIN RAPHAEL R    36 STONE PINE CT                        000N        CARE OF             
MTR02630400001000000000000000RA              50478822    005801290000012900000520000003NN  NNW 000                       N    
RDG02630400WATRL000000004K00000000000001172003810062015101229N000000000000N40       007650400K 10000000010000001157           
CUS0263040000102413611001         SCHOENFELD FRANK HAR34 STONE PINE CT                        000N        CARE OF             
MTR02630400001000000000000000RA              50479301    005801300000013000000520000003NN  NNW 000                       N    
RDG02630400WATRL000000004K00000000000002069003910062015101234N000000000000N40       000050400K 10000000010000002039           
CUS0263040000102413612009         KOPPELMAN MARK S    32 STONE PINE CT                        000N        CARE OF             
MTR02630400001000000000000000RA              52769902    005801310000013100000520000003NN  NNW 000                       N    
RDG02630400WATRL000000004K00000000000001028004010062015101240N000000000000N40       000060400K 10000000010000001021           
CUS0263040000102413613007         LEE RICHARD E       30 STONE PINE CT                        000N        CARE OF             
MTR02630400001000000000000000RA              50789652    005801320000013200000520000003NN  NNW 000                       N    
RDG02630400WATRL000000004K00000000000001173004110062015101244N000000000000N40       000040400K 10000000010000001160           
CUS0263040000102413614005         SCHWARTZ GORDON A   28 STONE PINE CT                        000N        CARE OF             
MTR02630400001000000000000000RA              52287069    005801330000013300000520000003NN  NNW 000                       N    
RDG02630400WATRL000000004K00000000000001185004210062015101249N000000000000N40       000050400K 10000000010000001178           
CUS0263040000102413615002         GOLDSCHER ISADORE,TR26 STONE PINE CT                        000N        CARE OF             
MTR02630400001000000000000000RA              54348293    005801340000013400000520000003NN  NNW 000                       N    
RDG02630400WATRL000000004K00000000000002053004310062015101321N000000000000N40       000320400K 10000000010000002032           
CUS0263040000102413616000         FELIX L KAUFMAN     24 STONE PINE CT                        000N        CARE OF             
MTR02630400001000000000000000RA              54350895    005801350000013500000520000003NN  NNW 000                       N    
RDG02630400WATRL000000004K00000000000000988004410062015101335N000300000020N40       000140400K 10000000010000000956           
CUS0263040000102413617008         MOORE ROBERT        22 STONE PINE CT                        000N        CARE OF             
MTR02630400001000000000000000RA              50791997    005801360000013600000520000003NN  NNW 000                       N    
RDG02630400WATRL000000004K00000000000001875004510062015101340N000000000000N40       000050400K 10000000010000001829           
CUS0263040000102413618006         BERMAN LARRY B      20 STONE PINE CT                        000N        CARE OF             
MTR02630400001000000000000000RA              50477651    005801370000013700000520000003NN  NNW 000                       N    
RDG02630400WATRL000000004K00000000000001780004610062015101344N000000000000N40       000040400K 10000000010000001766           
CUS0263040000102413619004         COMPTON HERBERT ROY,18 STONE PINE CT                        000N        CARE OF             
MTR02630400001000000000000000RA              10001136    005801380000013800000570000003NN  NNW 000                       N    
RDG02630400WATRL000000004K00000000000001012004710062015101348N000000000000N40       000040400K 10000000010000001000           
CUS0263040000102413620002         SANDLER MICHAEL L   16 STONE PINE CT                        000N        CARE OF             
MTR02630400001000000000000000RA              99287565    005801390000013900000570000003NN  NNW 000                       N    
RDG02630400WATRL000000004K00000000000001032004810062015101353N000000000000N40       000050400K 10000000010000001006           
CUS0263040000102413621000         MANDL DAVID         14 STONE PINE CT                        000N        CARE OF             
MTR02630400001000000000000000RA              76345346    005801400000014000000350000003NN  NNW 000                       N    
RDG02630400WATRL000000004K00000000000000091004910062015101418N000300000010N40       000250400K 10000000010000000062           
CUS0263040000102413622008         BAER GUSTAV         12 STONE PINE CT                        000N        CARE OF             
MTR02630400001000000000000000RA              50476747    005801410000014100000520000003NY  NNW 000                       N    
MTM0263040050476747    MTR NOT MATCHING ADDRESS INVESTIGATE                                                                   
RDG02630400WATRL000000004K00000000000000000000000000000000000 000000000000U         000000400  10000000010000001481           
CUS0263040000102413623006         FISHBEIN BERNARD    10 STONE PINE CT                        000N        CARE OF             
MTR02630400001000000000000000RA              78008180    005801420000014200000360000003NN  NNW 000                       N    
RDG02630400WATRL000000004K00000000000000017005010062015101451N000000000000N40       000330400K 10000000010000000006           
CUS0263040000102413624004         DONALDSON ALAN W    8 STONE PINE CT                         000N        CARE OF             
MTR02630400001000000000000000RA              48589829    005801430000014300000520000003NN  NNW 000                       N    
RDG02630400WATRL000000004K00000000000001794005110062015110711N000000000000N40       031400400K 10000000010000001746           
CUS0263040000102413422003         NEMTSEV LEONID      6 STONE PINE CT                         000N        CARE OF             
MTR02630400001000000000000000RA              77889123    005801440000014400000360000003NN  NNW 000                       N    
RDG02630400WATRL000000004K00000000000000016005210062015110722N000300000010N40       000110400K 10000000010000000004           
CUS0263040000102413424009         ZAYON SHELDON       4 STONE PINE CT                         000N        CARE OF             
MTR02630400001000000000000000RA              01095335    005801450000014500000610000003NN  NNW 000                       N    
RDG02630400WATRL000000004K00000000000001075005310062015110728N000000000000N40       000060400K 10000000010000001057           
CUS0263040000102413421005         PLATT ALAN L        2 STONE PINE CT                         000N        CARE OF             
MTR02630400001000000000000000RA              48584620    005801460000014600000520000003NN  NNW 000                       N    
RDG02630400WATRL000000004K00000000000001533005410062015112409N000000000000N40       010010400K 10000000010000001520           
CUS0263040000102045644008         BARRON AYAUNA T     107 MOUNT WILSON LN                     000N        CARE OF             
MTR02630400001000000000000000RA              33078750    005801470000014700000520000003NN  NNW 000                       N    
RDG02630400WATRL000000004K00000000000000363002810062015115657N000000000000N40       072990400K 10000000010000000363           
CUS0263040000102045645005         CLARK, STEVEN & MARA105 MOUNT WILSON LN                     000N        CARE OF             
MTR02630400001000000000000000RA              01109315    005801480000014800000610000003NN  NNW 000                       N    
RDG02630400WATRL000000004K00000000000000168002910062015115701N000000000000N40       000040400K 10000000010000000163           
CUS0263040000102395197003         BALTIMORE COUNTY MAR300 MT WILSON LN                        000N        CARE OF             
MTR02630400001000000000000000RA              01105327    001501490000014900000610000003NN  NNW 000   FERRULE APPLIED     N    
RDG02630400WATRL000000005K00000000000002920003010062015115712N000300000010N40       000110500K 10000000010000002898           
CUS0263040000102045646003         8830 ORCHARD RD LLC 8830 ORCHARD RD                         000N        CARE OF             
MTR02630400001000000000000000RA              00129048    005801500000015000000570000003NN  NNW 000                       N    
RDG02630400WATRL000000004K00000000000001908003110062015115740N000000000011N40       000220400K 10000000010000001806           
CUS0263040000102045647001         RYAN JOHN P,SR      2 ORCHARD RD                            000N        CARE OF             
MTR02630400001000000000000000RA              14909790    005801510000015100000310000003NN  NNW 000                       N    
RDG02630400WATRL000000004K00000000000000477003210062015115744N000000000000N40       000040400K 10000000010000000461           
CUS0263040000102045648009         RYAN JOHN P,SR      8824 ORCHARD RD                         000N        CARE OF             
MTR02630400001000000000000000RA              10011565    005801520000015200000570000003NN  NNW 000                       N    
RDG02630400WATRL000000004K00000000000000277003310062015115806N000000000000N40       000220400K 10000000010000000257           
CUS0263040000102045649007         HAMOND RASHAD       102 NELSON RD                           000N        CARE OF             
MTR02630400001000000000000000RA              33734387    005801530000015300000520000003NN  NNW 000                       N    
RDG02630400WATRL000000004K00000000000001908003410062015115812N000000000000N40       000060400K 10000000010000001899           
CUS0263040000102045650005         LANGREHR DAVID J    104 NELSON RD                           000N        CARE OF             
MTR02630400001000000000000000RA              01084048    005801540000015400000610000003NN  NNW 000                       N    
RDG02630400WATRL000000004K00000000000000993003510062015115819N000000000000N40       000070400K 10000000010000000987           
CUS0263040000102045651003         RAMLAL TOOLCIEDASS  106 NELSON RD                           000N        CARE OF             
MTR02630400001000000000000000RA              76346763    005801550000015500000350000003NN  NNW 000                       N    
RDG02630400WATRL000000004K00000000000000069003610062015115831N000000000000N40       000120400K 10000000010000000051           
CUS0263040000102045652001         FOX ZENAIDA         108 NELSON RD                           000N        CARE OF             
MTR02630400001000000000000000RA              20767859    005801560000015600000520000003NN  NNW 000                       N    
RDG02630400WATRL000000004K00000000000003719003710062015115835N000000000000N40       000040400K 10000000010000003690           
CUS0263040000102045653009         HIKEN SEAN          110 NELSON RD                           000N        CARE OF             
MTR02630400001000000000000000RA              01083131    005801570000015700000610000003NN  NNW 000                       N    
RDG02630400WATRL000000004K00000000000000980003810062015115838N000000000000N40       000030400K 10000000010000000950           
CUS0263040000102045654007         LEVIN JOSHUA A      112 NELSON RD                           000N        CARE OF             
MTR02630400001000000000000000RA              32903928    005801580000015800000520000003NN  NNW 000                       N    
RDG02630400WATRL000000004K00000000000003465003910062015115856N000000000011N40       000070400K 10000000010000003423           
CUS0263040000102045655004         BUCZEK ROBERT D     114 NELSON RD                           000N        CARE OF             
MTR02630400001000000000000000RA              32902676    005801590000015900000520000003NN  NNW 000                       N    
RDG02630400WATRL000000004K00000000000002384004010062015115900N000000000000N40       000040400K 10000000010000002370           
CUS0263040000102045656002         GALLION HENRY CLEMEN116 NELSON RD                           000N        CARE OF             
MTR02630400001000000000000000RA              11426974    005801600000016000000570000003NN  NNW 000                       N    
RDG02630400WATRL000000004K00000000000002465004110062015115952N000000000000N40       000520400K 10000000010000002462           
CUS0263040000102045657000         BEVERLY SAVAGE      118 NELSON RD                           000N        CARE OF             
MTR02630400001000000000000000RA              46879094    005801610000016100000520000003NN  NNW 000                       N    
RDG02630400WATRL000000004K00000000000001191004210062015115958N000100000010N40       000060400K 10000000010000001191           
CUS0263040000102436982009         WOODHOLME COUNTRY CL8814 DIVISION LN                        000N        CARE OF             
MTR02630400001000000000000000RA              01105011    001501620000016200000610000000NN  NNW 000                       N    
RDG02630400WATRL000000005K00000000000000558004310062015120011N000000000000N40       000130500K 10000000010000000558           
CUS0263040000102387802008         WOODHOLME COUNTRY CL8824 DIVISION LN                        000N        CARE OF             
MTR02630400001000000000000000RA              01073651    005801630000016300000610000003NN  NNW 000                       N    
RDG02630400WATRL000000004K00000000000005492004410062015120018N000000000000N40       000070400K 10000000010000005271           
CUS0263040000102045658008         WOODHOLME COUNTRY CLWS DIVISION LN                          000N        CARE OF             
MTR02630400001000000000000000RA              52771135    007501640000016400000520000003NN  NNW 000                       N    
RDG02630400WATRL000000004K00000000000001925004510062015120021N000000000000N40       000030400K 10000000010000001900           
CUS0263040000102045659006         FARAONE THOMAS      121 NELSON RD                           000N        CARE OF             
MTR02630400001000000000000000RA              52288870    005801650000016500000520000003NN  NNW 000                       N    
RDG02630400WATRL000000004K00000000000001660004610062015120029N000000000000N40       000080400K 10000000010000001640           
CUS0263040000102045660004         GOGGANS KEITH  LEVIN119 NELSON RD                           000N        CARE OF             
MTR02630400001000000000000000RA              11428867    005801660000016600000570000003NN  NNW 000                       N    
RDG02630400WATRL000000004K00000000000005744004710062015120032N000000000000N40       000030400K 10000000010000005730           
CUS0263040000102406691002         LUARSABOV ARTUR     117A NELSON RD                          000N        CARE OF             
MTR02630400001000000000000000RA              76347445    005801670000016700000350000003NN  NNW 000                       N    
RDG02630400WATRL000000004K00000000000000074004810062015120036N000000000000N40       000040400K 10000000010000000062           
CUS0263040000102407253000         LANDSMAN STEPHEN P  117 NELSON RD                           000N        CARE OF             
MTR02630400001000000000000000RA              44173885    005801680000016800000520000003NN  NNW 000                       N    
RDG02630400WATRL000000004K00000000000001721004910062015120040N000000000000N40       000040400K 10000000010000001711           
CUS0263040000102045661002         TIBBO PAMELA D      115 NELSON RD                           000N        CARE OF             
MTR02630400001000000000000000RA              00129049    005801690000016900000570000003NN  NNW 000                       N    
RDG02630400WATRL000000004K00000000000000903005010062015120045N000000000000N40       000050400K 10000000010000000903           
CUS0263040000102045662000         CRUZ LYNN C         113 NELSON RD                           000N        CARE OF             
MTR02630400001000000000000000RA              00128774    005801700000017000000570000003NN  NNW 000                       N    
RDG02630400WATRL000000004K00000000000000559005110062015120049N000000000000N40       000040400K 10000000010000000551           
CUS0263040000102045663008         RICE KEITH M        111 NELSON RD                           000N        CARE OF             
MTR02630400001000000000000000RA              10002971    005801710000017100000570000003NN  NNW 000                       N    
RDG02630400WATRL000000004K00000000000000592005210062015120053N000000000000N40       000040400K 10000000010000000562           
CUS0263040000102045664006         YAIR R SHALEM       109 NELSON RD                           000N        CARE OF             
MTR02630400001000000000000000RA              10016631    005801720000017200000570000003NN  NNW 000                       N    
RDG02630400WATRL000000004K00000000000000408005310062015120058N000000000000N40       000050400K 10000000010000000366           
CUS0263040000102045665003         SLUTSKIY MIKHAEL    107 NELSON RD                           000N        CARE OF             
MTR02630400001000000000000000RA              27814057    005801730000017300000520000003NN  NNW 000                       N    
RDG02630400WATRL000000004K00000000000004196005410062015120109N000000000000N40       000110400K 10000000010000004176           
CUS0263040000102045666001         OLSON MELISSA V     105 NELSON RD                           000N        CARE OF             
MTR02630400001000000000000000RA              45381725    005801740000017400000520000003NN  NNW 000                       N    
RDG02630400WATRL000000004K00000000000002928005510062015120114N000000000000N40       000050400K 10000000010000002916           
CUS0263040000102045667009         MANDELL HARRY H     8820 ORCHARD RD                         000N        CARE OF             
MTR02630400001000000000000000RA              00129046    005801750000017500000570000003NN  NNW 000                       N    
RDG02630400WATRL000000004K00000000000001792000110072015122356N000000000000U40       000000400K 10000000010000001752           
CUS0263040000102045668007         FELLER HENRY S      8816 ORCHARD RD                         000N        CARE OF             
MTR02630400001000000000000000RA              24230987    005801760000017600000520000003NN  NNW 000                       N    
RDG02630400WATRL000000004K00000000000003082000210072015122400N000000000000U40       000040400K 10000000010000003074           
CUS0263040000102045669005         JESSE TANENBLATT    8810 ORCHARD RD                         000N        CARE OF             
MTR02630400001000000000000000RA              24760668    005801770000017700000520000003NN  NNW 000                       N    
RDG02630400WATRL000000004K00000000000003930000310072015122831N000000000000U40       002710400K 10000000010000003911           
CUS0263040000102045670003         BUIKEMA BONNIE E    8808 ORCHARD RD                         000N        CARE OF             
MTR02630400001000000000000000RA              99290962    005801780000017800000570000003NN  NNW 000                       N    
RDG02630400WATRL000000004K00000000000000709000410072015123023N000000000000U40       001120400K 10000000010000000709           
CUS0263040000102045671001         BOBRINEV ALEKSANDR  8806 ORCHARD RD                         000N        CARE OF             
MTR02630400001000000000000000RA              30517261    005801790000017900000520000003NN  NNW 000                       N    
RDG02630400WATRL000000004K00000000000002671000510072015123029N000000000000U40       000060400K 10000000010000002664           
CUS0263040000102045672009         CORTEZ CAROLINA     8804 ORCHARD RD                         000N        CARE OF             
MTR02630400001000000000000000RA              27825090    005801800000018000000520000003NN  NNW 000                       N    
RDG02630400WATRL000000004K00000000000002353000610072015123043N000000000000U40       000140400K 10000000010000002333           
CUS0263040000102045673007         NGUYEN ANH THU      8809 ORCHARD RD                         000N        CARE OF             
MTR02630400001000000000000000RA              36697640    005801810000018100000520000003NN  NNW 000                       N    
RDG02630400WATRL000000004K00000000000002711004610072015124732N000000000000U40       000060400K 10000000010000002680           
CUS0263040000102406238002         GROSSO CARMELLA T   8825 ORCHARD RD                         000N        CARE OF             
MTR02630400001000000000000000RA              44092547    005801820000018200000520000003NN  NNW 000                       N    
RDG02630400WATRL000000004K00000000000005030004510072015124726N000000000000U40       000050400K 10000000010000004995           
CUS0263040000102352547000         BROOKS ROBERT H     8807 PIKESVILLE RD                      000N        CARE OF             
MTR02630400001000000000000000RA              01083268    005801830000018300000610000003NN  NNW 000                       N    
RDG02630400WATRL000000004K00000000000001270004410072015124721N000000000000U40       000050400K 10000000010000001231           
CUS0263040000102352548008         CHIMES INC          8803 ORCHARD RD                         000N        CARE OF             
MTR02630400001000000000000000RA              27832790    005801840000018400000520000003NN  NNW 000                       N    
RDG02630400WATRL000000004K00000000000007816004310072015124716N000000000000U40       000070400K 10000000010000007779           
CUS0263040000102425998008         FASTOVSKY LEONID    8805 ORCHARD RD                         000N        CARE OF             
MTR02630400001000000000000000RA              54348329    005801850000018500000520000003NN  NNW 000                       N    
RDG02630400WATRL000000004K00000000000001961004210072015124703N000000000000U40       000070400K 10000000010000001934           
CUS0263040000102413142007         BURDGE RANDOLPH, JR 8813 ORCHARD RD                         000N        CARE OF             
MTR02630400001000000000000000RA              33734576    005801860000018600000520000003NN  NNW 000                       N    
RDG02630400WATRL000000004K00000000000004685004110072015124709N000000000011U40       000060400K 10000000010000004636           
CUS0263040000102045674005         ADOMANIS MEGAN L    8815 ORCHARD RD                         000N        CARE OF             
MTR02630400001000000000000000RA              19460317    005801870000018700000520000003NN  NNW 000                       N    
RDG02630400WATRL000000004K00000000000007080004010072015124648N000000000000U40       000040400K 10000000010000007070           
CUS0263040000102045675002         FREEDMAN TIBOR FORRA8821 ORCHARD RD                         000N        CARE OF             
MTR02630400001000000000000000RA              00129045    005801880000018800000570000003NN  NNW 000                       N    
RDG02630400WATRL000000004K00000000000000883003910072015124644N000000000000U40       000060400K 10000000010000000866           
CUS0263040000102045676000         MUCHNYK BORYS       8827 ORCHARD RD                         000N        CARE OF             
MTR02630400001000000000000000RA              00129050    005801890000018900000570000003NN  NNW 000                       N    
RDG02630400WATRL000000004K00000000000001487003810072015124638N000000000000U40       000050400K 10000000010000001465           
CUS0263040000102045677008         RUBIN OLGA          8831 ORCHARD RD                         000N        CARE OF             
MTR02630400001000000000000000RA              31582080    005801900000019000000520000003NN  NNW 000                       N    
RDG02630400WATRL000000004K00000000000002267003710072015124633N000000000000U40       000080400K 10000000010000002252           
CUS0263040000102045678006         BOELLER JENNIFER L  33 MT WILSON LN                         000N        CARE OF             
MTR02630400001000000000000000RA              01114104    005801910000019100000610000003NN  NNW 000                       N    
RDG02630400WATRL000000004K00000000000000610003610072015124625N000000000000U40       000030400K 10000000010000000593           
CUS0263040000102045679004         BOELLER BETTY L     31 MT WILSON LN                         000N        CARE OF             
MTR02630400001000000000000000RA              01088832    005801920000019200000610000003NN  NNW 000                       N    
RDG02630400WATRL000000004K00000000000000587003510072015124622N000000000000U40       000090400K 10000000010000000584           
CUS0263040000102400445009         BROOKS ROBERT H     8832 PIKESVILLE RD                      000N        CARE OF             
MTR02630400001000000000000000RA              41259587    005801930000019300000520000003NN  NNW 000                       N    
RDG02630400WATRL000000004K00000000000004778003410072015124613N000000000000U40       000030400K 10000000010000004751           
CUS0263040000102400444002         JEROME T MCCRARY    8830 PIKESVILLE RD                      000N        CARE OF             
MTR02630400001000000000000000RA              41259457    005801940000019400000520000003NN  NNW 000                       N    
RDG02630400WATRL000000004K00000000000001918003310072015124610N000000000000U40       000040400K 10000000010000001901           
CUS0263040000102045680002         8828 PIKESVILLE ROAD8828 PIKESVILLE RD                      000N        CARE OF             
MTR02630400001000000000000000RA              99286860    005801950000019500000570000003NN  NNW 000                       N    
RDG02630400WATRL000000004K00000000000000968003210072015124606N000000000000U40       000050400K 10000000010000000944           
CUS0263040000102045681000         BROOKS ROBERT H     8826 PIKESVILLE RD                      000N        CARE OF             
MTR02630400001000000000000000RA              01085111    005801960000019600000610000003NN  NNW 000                       N    
RDG02630400WATRL000000004K00000000000001709003110072015124601N000000000000U40       000050400K 10000000010000001691           
CUS0263040000102045682008         KONOVALCHIK NATALYA 8824 PIKESVILLE RD                      000N        CARE OF             
MTR02630400001000000000000000RA              14917407    005801970000019700000310000003NN  NNW 000                       N    
RDG02630400WATRL000000004K00000000000000470003010072015124556N000300000010U40       000050400K 10000000010000000394           
CUS0263040000102045683006         PAMELA J. PETTIS    8822 PIKESVILLE RD                      000N        CARE OF             
MTR02630400001000000000000000RA              27815176    005801980000019800000520000003NN  NNW 000                       N    
RDG02630400WATRL000000004K00000000000004633002910072015124551N000000000000U40       000040400K 10000000010000004596           
CUS0263040000102045684004         STALLSMITH BRIAN K  8816 PIKESVILLE RD                      000N        CARE OF             
MTR02630400001000000000000000RA              01083363    005801990000019900000610000003NN  NNW 000                       N    
RDG02630400WATRL000000004K00000000000000480002810072015124547N000000000000U40       000030400K 10000000010000000471           
CUS0263040000102045685001         GISCHEL JOHN        8814 PIKESVILLE RD                      000N        CARE OF             
MTR02630400001000000000000000RA              31580632    005802000000020000000520000003NN  NNW 000                       N    
RDG02630400WATRL000000004K00000000000000765002710072015124544N000000000000U40       000030400K 10000000010000000762           
CUS0263040000102045686009         BOODOO GREGORY      8812 PIKESVILLE RD                      000N        CARE OF             
MTR02630400001000000000000000RA              33080272    005802010000020100000520000003NN  NNW 000                       N    
RDG02630400WATRL000000004K00000000000003655002610072015124541N000000000000U40       000030400K 10000000010000003628           
CUS0263040000102045687007         FREYER LEONARD JOSEP8810 PIKESVILLE RD                      000N        CARE OF             
MTR02630400001000000000000000RA              27823931    005802020000020200000520000003NN  NNW 000                       N    
RDG02630400WATRL000000004K00000000000005343002510072015124538N000000000011U40       000120400K 10000000010000005317           
CUS0263040000102045688005         MORRIS JENNIFER B   8806 PIKESVILLE RD                      000N        CARE OF             
MTR02630400001000000000000000RA              10021758    005802030000020300000570000003NN  NNW 000                       N    
RDG02630400WATRL000000004K00000000000000269002410072015124518N000000000000U40       000020400K 10000000010000000250           
CUS0263040000102045689003         BINGHAM MICHAEL ALLE8804 PIKESVILLE RD                      000N        CARE OF             
MTR02630400001000000000000000RA              99288475    005802040000020400000570000003NN  NNW 000                       N    
RDG02630400WATRL000000004K00000000000002438002310072015124516N000000000000U40       000030400K 10000000010000002413           
CUS0263040000102419888009         MEADOWS ANGELA      8802 PIKESVILLE RD                      000N        CARE OF             
MTR02630400001000000000000000RA              48594731    005802050000020500000520000003NN  NNW 000                       N    
RDG02630400WATRL000000004K00000000000001843002210072015124513N000000000000U40       000030400K 10000000010000001822           
CUS0263040000102045690001         GORANT TERRY,TRUSTEE8801 PIKESVILLE RD                      000N        CARE OF             
MTR02630400001000000000000000RA              38984282    005802060000020600000520000003NN  NNW 000                       N    
RDG02630400WATRL000000004K00000000000007508002110072015124510N000000000000U40       000030400K 10000000010000007457           
CUS0263040000102045691009         DILLON GEORGE A,3RD 8803 PIKESVILLE RD                      000N        CARE OF             
MTR02630400001000000000000000RA              32573043    005802070000020700000520000003NN  NNW 000                       N    
RDG02630400WATRL000000004K00000000000002991002010072015124507N000000000000U40       000040400K 10000000010000002964           
CUS0263040000102045692007         GRANT PATRICIA A    8805 PIKESVILLE RD                      000N        CARE OF             
MTR02630400001000000000000000RA              44172480    005802080000020800000520000003NN  NNW 000                       N    
RDG02630400WATRL000000004K00000000000004339001910072015124503N000000000000U40       000030400K 10000000010000004318           
CUS0263040000102045693005         MIMER ARON LEIB     NS PIKESVILLE RD                        000N        CARE OF             
MTR02630400001000000000000000RA              36697638    005802090000020900000520000003NN  NNW 000                       N    
RDG02630400WATRL000000004K00000000000002760001810072015124500N000000000000U40       000030400K 10000000010000002747           
CUS0263040000102045694003         JERRY OVADIA        8813 PIKESVILLE RD                      000N        CARE OF             
MTR02630400001000000000000000RA              31586058    005802100000021000000520000003NN  NNW 000                       N    
RDG02630400WATRL000000004K00000000000004547001710072015124457N000000000000U40       000040400K 10000000010000004514           
CUS0263040000102045695000         ELLIOT FERMIN OBINA 8815 PIKESVILLE RD                      000N        CARE OF             
MTR02630400001000000000000000RA              29084932    005802110000021100000520000003NN  NNW 000                       N    
RDG02630400WATRL000000004K00000000000003350001610072015124453N000000000000U40       000030400K 10000000010000003343           
CUS0263040000102045696008         BANGS TERRI A       8819 PIKESVILLE RD                      000N        CARE OF             
MTR02630400001000000000000000RA              41590705    005802120000021200000520000003NN  NNW 000                       N    
RDG02630400WATRL000000004K00000000000003192001510072015124450N000000000000U40       000030400K 10000000010000003176           
CUS0263040000102045697006         JOHNSON ROBIN Y     8817 PIKESVILLE RD                      000N        CARE OF             
MTR02630400001000000000000000RA              45381094    005802130000021300000520000003NN  NNW 000                       N    
RDG02630400WATRL000000004K00000000000001261001410072015124447N000000000000U40       000030400K 10000000010000001246           
CUS0263040000102045698004         BROOKS ROBERT H     8825 PIKESVILLE RD                      000N        CARE OF             
MTR02630400001000000000000000RA              36697641    005802140000021400000520000003NN  NNW 000                       N    
RDG02630400WATRL000000004K00000000000007363001310072015124444N000000000000U40       000030400K 10000000010000007287           
CUS0263040000102413200003         LEAF VERNON         8829 PIKESVILLE RD                      000N        CARE OF             
MTR02630400001000000000000000RA              46880244    005802150000021500000520000003NN  NNW 000                       N    
RDG02630400WATRL000000004K00000000000000521001210072015124441N000000000000U40       000070400K 10000000010000000510           
CUS0263040000102045699002         19 MT WILSON LN LLC 19 MT WILSON LN                         000N        CARE OF             
MTR02630400001000000000000000RA              46880779    005802160000021600000520000003NN  NNW 000                       N    
RDG02630400WATRL000000004K00000000000001810001110072015124434N000000000000U40       000070400K 10000000010000001764           
CUS0263040000102045700008         BROOKS EMMETT H,JR  15 MOUNT WILSON LN                      000N        CARE OF             
MTR02630400001000000000000000RA              48593512    005802170000021700000520000003NN  NNW 000                       N    
RDG02630400WATRL000000004K00000000000003251001010072015124427N000400000010U40       000090400K 10000000010000003240           
CUS0263040000102409513005         JANKIELSZTAJN JANUSZ115B MT WILSON LN                       000N        CARE OF             
MTR02630400001000000000000000RA              14928637    005802180000021800000310000003NN  NNW 000                       N    
RDG02630400WATRL000000004K00000000000000668000910072015124418N000000000000U40       000140400K 10000000010000000654           
CUS0263040000102365658000         PATAPSCO BUILDERS LL101 MOUNT WILSON LN                     000N        CARE OF             
MTR02630400001000000000000000RA              01083130    005802190000021900000610000003NY  NNW 000                       N    
MTM0263040001083130    VACANT                                                                                                 
RDG02630400WATRL000000004K00000000000000063000710072015123402N000000000000U40       001990400K 10000000010000000063           
CUS0263040000102376484008         NER ISRAEL RABBINICA500 MOUNT WILSON LN                     000N        CARE OF             
MTR02630400001000000000000000RA              10019208    005802200000022000000570000003NN  NNW 000                       N    
RDG02630400WATRL000000004K00000000000000854000810072015124404N000300000010U40       006020400K 10000000010000000628           
RTR02630400NN02200220000002200000000002200220000557NY022002200220000200000000000000000000000001    09282015NY020000 N         
RHD06313700NN00830087000000830000000400870087000042NY008700870087000000070000000000000000000002    10052015NY020000 N         
CUS0631370000106368705007         STEWARD, REGINALD   2137 HARFORD RD                         000N        CARE OF             
MTR06313700001000000000000000RA              75426618    005800010000000100000350000003NN  NNW 000                       N    
RDG06313700WATRL000000004K00000000000000000000310072015074140S002000000000U40       000250400K 10000000010000000000           
CUS0631370000106366510003         SHIRLEY A RODRIGUEZ 2141 HARFORD RD                         000N        CARE OF             
MTR06313700001000000000000000RA              76345732    005800020000000200000350000003NN  NNW 000                       N    
RDG06313700WATRL000000004K00000000000000003000210072015074115N000000000000U40       002260400K 10000000010000000003           
CUS0631370000106192344007         LILA, RAYWAN        1419 DARLEY AVE                         000N        CARE OF             
MTR06313700001000000000000000RA              75614686    005800030000000300000350000003NY  NNW 000                       N    
MTM0631370075614686    occ                                                                                                    
RDG06313700WATRL000000004K00000000000000705000810072015074401N000300000010U40       000350400K 10000000010000000562           
CUS0631370000106350781008         HABC/LUV            1425 DARLEY AVE                         000N        CARE OF             
MTR06313700001000000000000000RA              76346578    005800040000000400000350000003NN  NNW 000                       N    
RDG06313700WATRL000000004K00000000000000000000910072015074427S002000000000U40       000260400K 10000000010000000000           
CUS0631370000106368223001         BELTRAND, RONI      1603 DARLEY AVE                         000N        CARE OF             
MTR06313700001000000000000000RA              78023852    005800050000000500000360000003NY  NNW 000                       N    
MTM0631370078023852    vacant                                                                                                 
RDG06313700WATRL000000004K00000000000000000001010072015074501S002000000000U40       000340400K 10000000010000000000           
CUS0631370000106365893004         EAMES, SEAN         1611 DARLEY AVE                         000N        CARE OF             
MTR06313700001000000000000000RA              76345696    005800060000000600000350000003NN  NNW 000                       N    
RDG06313700WATRL000000004K00000000000000154001110072015074548N000000000000U40       000470400K 10000000010000000134           
CUS0631370000106350771009         THREAT, WENDELL     1613 DARLEY AVE                         000N        CARE OF             
MTR06313700001000000000000000RA              76345613    005800070000000700000350000003NN  NNW 000                       N    
RDG06313700WATRL000000004K00000000000000072001210072015074608N000000000000U40       000200400K 10000000010000000060           
CUS0631370000106366522008         NANNIE BRANCH       1615 DARLEY AVE                         000N        CARE OF             
MTR06313700001000000000000000RA              76345428    005800080000000800000350000003NN  NNW 000                       N    
RDG06313700WATRL000000004K00000000000000009001310072015074627N000000000000U40       000190400K 10000000010000000007           
CUS0631370000106357726006         A&M REAL ESTATE INVE1619 DARLEY AVE                         000N        CARE OF             
MTR06313700001000000000000000RA              77887370    005800090000000900000360000003NN  NNW 000                       N    
RDG06313700WATRL000000004K00000000000000000001410072015074654N000000000000U40       000270400K 10000000010000000000           
CUS0631370000106366961008         BHOLA, NELAM        1625 DARLEY AVE                         000N        CARE OF             
MTR06313700001000000000000000RA              77878593    005800100000001000000360000003NN  NNW 000                       N    
RDG06313700WATRL000000004K00000000000000034001910072015074954N000400000010U40       000470400K 10000000010000000028           
CUS0631370000106192348008         WADDELL, HERBERT N  1627 DARLEY AVE                         000N        CARE OF             
MTR06313700001000000000000000RA              77878594    005800110000001100000360000003NN  NNW 000                       N    
RDG06313700WATRL000000004K00000000000000038002010072015075016N000000000000U40       000220400K 10000000010000000012           
CUS0631370000106192349006         HILL, ALICE         1629 DARLEY AVE                         000N        CARE OF             
MTR06313700001000000000000000RA              76345420    005800120000001200000350000003NN  NNW 000                       N    
RDG06313700WATRL000000004K00000000000000079002110072015075032N000000000000U40       000160400K 10000000010000000060           
CUS0631370000106350772007         FORD, DARRYL L      1639 DARLEY AVE                         000N        CARE OF             
MTR06313700001000000000000000RA              76345412    005800130000001300000350000003NN  NNW 000                       N    
RDG06313700WATRL000000004K00000000000000012002510072015075217N000000000000U40       000390400K 10000000010000000012           
CUS0631370000106192351002         ENVISAGE BLUE LLC   1641 DARLEY AVE                         000N        CARE OF             
MTR06313700001000000000000000RA              76347389    005800140000001400000350000003NN  NNW 000                       N    
RDG06313700WATRL000000004K00000000000000045002610072015075233N000000000000U40       000160400K 10000000010000000041           
CUS0631370000106192352000         KNIGHT, DANIEL E.   1643 DARLEY AVE                         000N        CARE OF             
MTR06313700001000000000000000RA              76347388    005800150000001500000350000003NN  NNW 000   VACANT PROPERTY     N    
RDG06313700WATRL000000004K00000000000000022002710072015075248N000000000000U40       000150400K 10000000010000000022           
CUS0631370000106192357009         PERCELL NORRIS ETAL 1663 DARLEY AVE                         000N        CARE OF             
MTR06313700001000000000000000RA              76347516    005800160000001600000350000003NN  NNW 000                       N    
RDG06313700WATRL000000004K00000000000000083003110072015075518N000000000000U40       000630400K 10000000010000000069           
CUS0631370000106192358007         JONES-EVANS, RONDA  1665 DARLEY AVE                         000N        CARE OF             
MTR06313700001000000000000000RA              76347518    005800170000001700000350000003NN  NNW 000                       N    
RDG06313700WATRL000000004K00000000000000105003210072015075522N000000000000U40       000040400K 10000000010000000082           
CUS0631370000106192364005         STAFFORD, LANAE G   1691 DARLEY AVE                         000N        CARE OF             
MTR06313700001000000000000000RA              78006650    005800180000001800000360000003NN  NNW 000                       N    
RDG06313700WATRL000000004K00000000000000000003610072015075751N000000000000U40       000740400K 10000000010000000000           
CUS0631370000106357750006         WELLS FARGO BANK, N 1693 DARLEY AVE                         000N        CARE OF             
MTR06313700001000000000000000RA              76347454    005800190000001900000350000003NN  NNW 000                       N    
RDG06313700WATRL000000004K00000000000000000003710072015075758N000000000000U40       000070400K 10000000010000000000           
CUS0631370000106192365002         D&M HOMES LLC       1695 DARLEY AVE                         000N        CARE OF             
MTR06313700001000000000000000RA              76347519    005800200000002000000350000003NY  NNW 000                       N    
MTM0631370076347519    investigate                                                                                            
RDG06313700WATRL000000004K00000000000009952003810072015075834N000300000020U40       000360400K 10000000010000000005           
CUS0631370000106192366000         RICE, COURTNEY STEVE1697 DARLEY AVE                         000N        CARE OF             
MTR06313700001000000000000000RA              76347450    005800210000002100000350000003NY  NNW 000                       N    
MTM0631370076347450    investigate                                                                                            
RDG06313700WATRL000000004K00000000000009979003910072015075916N000000000010U40       000420400K 10000000010000000022           
CUS0631370000106366528005         MARTIN, JAMES J     1699 DARLEY AVE                         000N        CARE OF             
MTR06313700001000000000000000RA              77988369    005800220000002200000360000003NN  NNW 000                       N    
RDG06313700WATRL000000004K00000000000000019004010072015075950N000000000010U40       000340400K 10000000010000000000           
CUS0631370000106368575004         BOB DAVIS SOLO 401K 1701 DARLEY AVE                         000N        CARE OF             
MTR06313700001000000000000000RA              77988371    005800230000002300000360000003NN  NNW 000                       N    
RDG06313700WATRL000000004K00000000000000050004110072015075958N000000000010U40       000080400K 10000000010000000000           
CUS0631370000106192368006         CLAYTON, THEODORE   1707 DARLEY AVE                         000N        CARE OF             
MTR06313700001000000000000000RA              76347452    005800240000002400000350000003NN  NNW 000                       N    
RDG06313700WATRL000000004K00000000000000072004510072015080211N000000000000U40       000460400K 10000000010000000064           
CUS0631370000106192369004         TUCKER, IVORY       1709 DARLEY AVE                         000N        CARE OF             
MTR06313700001000000000000000RA              78023905    005800250000002500000360000003NN  NNW 000                       N    
RDG06313700WATRL000000004K00000000000000070004610072015080232N000400000010U40       000210400K 10000000010000000061           
CUS0631370000106192370002         MARGARET RUSSELL    1711 DARLEY AVE                         000N        CARE OF             
MTR06313700001000000000000000RA              76345419    005800260000002600000350000003NN  NNW 000                       N    
RDG06313700WATRL000000004K00000000000000009004710072015080243N000000000000U40       000110400K 10000000010000000006           
CUS0631370000106192372008         HUNT, MARIE ELIZABET1715 DARLEY AVE                         000N        CARE OF             
MTR06313700001000000000000000RA              77890814    005800270000002700000360000003NN  NNW 000                       N    
RDG06313700WATRL000000004K00000000000000011004810072015080307N000000000000U40       000240400K 10000000010000000004           
CUS0631370000106192376009         LOUISE W CUFFIE     1727 DARLEY AVE                         000N        CARE OF             
MTR06313700001000000000000000RA              76347769    005800280000002800000350000003NN  NNW 000                       N    
RDG06313700WATRL000000004K00000000000000103004910072015080347N000000000000U40       000400400K 10000000010000000074           
CUS0631370000106350782006         GODFREY, LINDA      1731 DARLEY AVE                         000N        CARE OF             
MTR06313700001000000000000000RA              75618113    005800290000002900000350000003NN  NNW 000                       N    
RDG06313700WATRL000000004K00000000000000486005010072015080413N000400000010U40       000260400K 10000000010000000452           
CUS0631370000106192377007         SAVOY, CATHERINE    1733 DARLEY AVE                         000N        CARE OF             
MTR06313700001000000000000000RA              77887297    005800300000003000000360000003NN  NNW 000                       N    
RDG06313700WATRL000000004K00000000000000000005110072015080431N000000000000U40       000180400K 10000000010000000000           
CUS0631370000106367644009         JO ANN MCCLAIN      1747 DARLEY AVE                         000N        CARE OF             
MTR06313700001000000000000000RA              76345433    005800310000003100000350000003NN  NNW 000                       N    
RDG06313700WATRL000000004K00000000000000013005210072015080456N000000000010U40       000250400K 10000000010000000000           
CUS0631370000106368557002         VINSON, DARCELL     1753 DARLEY AVE                         000N        CARE OF             
MTR06313700001000000000000000RA              76345735    005800320000003200000350000003NN  NNW 000                       N    
RDG06313700WATRL000000004K00000000000000143005510072015080647N000000000000U40       000340400K 10000000010000000126           
CUS0631370000106192386008         CHISOLM JR., CAMBERY1769 DARLEY AVE                         000N        CARE OF             
MTR06313700001000000000000000RA              76345430    005800330000003300000350000003NN  NNW 000                       N    
RDG06313700WATRL000000004K00000000000000000005610072015080726N000000000000U40       000390400K 10000000010000000000           
CUS0631370000106357752002         CHARLENE KEITH      1771 DARLEY AVE                         000N        CARE OF             
MTR06313700001000000000000000RA              77881960    005800340000003400000360000003NN  NNW 000                       N    
RDG06313700WATRL000000004K00000000000000011005710072015080757N000000000000U40       000310400K 10000000010000000007           
CUS0631370000106192387006         FLEET, MICHELLE I.  2130 N WOLFE ST                         000N        CARE OF             
MTR06313700001000000000000000RA              75422014    005800350000003500000350000003NN  NNW 000                       N    
RDG06313700WATRL000000004K00000000000000307006110072015081000N000000000000U40       000200400K 10000000010000000287           
CUS0631370000106357742003         ALLEN MYRTLE        2124 N WOLFE ST                         000N        CARE OF             
MTR06313700001000000000000000RA              75422024    005800360000003600000350000003NN  NNW 000                       N    
RDG06313700WATRL000000004K00000000000000112006010072015080940N000100000010U40       000240400K 10000000010000000112           
CUS0631370000106377772006         LACEY SR, CALVIN A  2120 N WOLFE ST                         000N        CARE OF             
MTR06313700001000000000000000RA              76346651    005800370000003700000350000003NN  NNW 000                       N    
RDG06313700WATRL000000004K00000000000000000005910072015080916N000000000000U40       000270400K 10000000010000000000           
CUS0631370000106192391008         ADEBAYO A/ABIODUN EB2116 N WOLFE ST                         000N        CARE OF             
MTR06313700001000000000000000RA              75422021    005800380000003800000350000003NN  NNW 000                       N    
RDG06313700WATRL000000004K00000000000000229005810072015080849N000100000010U40       000520400K 10000000010000000229           
CUS0631370000106383694004         MATTHEWS, JEAN E    2104 N WOLFE ST                         000N        CARE OF             
MTR06313700001000000000000000RA              79080996    005800390000003900000360000003NN  NNW 000                       N    
