FHDNNNN023005792005792005792N                                                                                           019524
RHD04739500NN02070207000002070000000002070207000139NY020702070207000100010000000000000000000001    10132015NY020000 N         
CUS0473950000104129773000         ST CLAIR JOSEPH N   803 WELLINGTON RD                       000N        CARE OF             
MTR04739500001000000000000000RA              35108723    005800010000000100000520000003NN  NNW 000                       N    
RDG04739500WATRL000000004K00000000000004304000110152015074551N000000000000N40       000000400K 10000000010000004278           
CUS0473950000104129774008         KANE MAUREEN A      805 WELLINGTON RD                       000N        CARE OF             
MTR04739500001000000000000000RA              22607594    005800020000000200000520000003NN  NNW 000                       N    
RDG04739500WATRL000000004K00000000000004416000210152015074618N000000000000N40       000270400K 10000000010000004386           
CUS0473950000104129775005         HICKLEN WILLIAM L JR807 WELLINGTON RD                       000N        CARE OF             
MTR04739500001000000000000000RA              23050605    005800030000000300000520000003NN  NNW 000                       N    
RDG04739500WATRL000000004K00000000000005064000310152015074648N000000000000N40       000300400K 10000000010000005046           
CUS0473950000104129776003         KOHLER JOHN FREDERIC809 WELLINGTON RD                       000N        CARE OF             
MTR04739500001000000000000000RA              21194524    005800040000000400000520000003NN  NNW 000                       N    
RDG04739500WATRL000000004K00000000000004573000410152015074720N000000000000N40       000320400K 10000000010000004564           
CUS0473950000104129777001         PALMISANO FRANK S,JR811 WELLINGTON RD                       000N        CARE OF             
MTR04739500001000000000000000RA              30514194    005800050000000500000520000003NN  NNW 000                       N    
RDG04739500WATRL000000004K00000000000006077000510152015074753N000000000000N40       000330400K 10000000010000006062           
CUS0473950000104129778009         SUNDERLAND GARY L   813 WELLINGTON RD                       000N        CARE OF             
MTR04739500001000000000000000RA              48587475    005800060000000600000520000003NN  NNW 000                       N    
RDG04739500WATRL000000004K00000000000001756000610152015074823N000000000000N40       000300400K 10000000010000001742           
CUS0473950000104129779007         NEUBERGER THOMAS F  815 WELLINGTON RD                       000N        CARE OF             
MTR04739500001000000000000000RA              35108638    005800070000000700000520000003NN  NNW 000                       N    
RDG04739500WATRL000000004K00000000000001298000710152015074850N000000000000N40       000270400K 10000000010000001289           
CUS0473950000104129780005         MARDEN BRIAN M      817 WELLINGTON RD                       000N        CARE OF             
MTR04739500001000000000000000RA              44173668    005800080000000800000520000003NN  NNW 000                       N    
RDG04739500WATRL000000004K00000000000003044000810152015074923N000000000000N40       000330400K 10000000010000003028           
CUS0473950000104129781003         WHITE STANLEY T     819 WELLINGTON RD                       000N        CARE OF             
MTR04739500001000000000000000RA              35108655    005800090000000900000520000003NN  NNW 000                       N    
RDG04739500WATRL000000004K00000000000003170000910152015074958N000000000000N40       000350400K 10000000010000003133           
CUS0473950000104129782001         WETHERINGTON CHARLES821 WELLINGTON RD                       000N        CARE OF             
MTR04739500001000000000000000RA              46878679    005800100000001000000520000003NN  NNW 000                       N    
RDG04739500WATRL000000004K00000000000002448001010152015075019N000000000000N40       000210400K 10000000010000002428           
CUS0473950000104129783009         TURNER DOUGLAS S    823 WELLINGTON RD                       000N        CARE OF             
MTR04739500001000000000000000RA              35108683    005800110000001100000520000003NN  NNW 000                       N    
RDG04739500WATRL000000004K00000000000003038001110152015075057N000000000000N40       000380400K 10000000010000003001           
CUS0473950000104129784007         TALBOTT RICHARD F   825 WELLINGTON RD                       000N        CARE OF             
MTR04739500001000000000000000RA              30516660    005800120000001200000520000003NN  NNW 000                       N    
RDG04739500WATRL000000004K00000000000006196001210152015075121N000000000000N40       000240400K 10000000010000006161           
CUS0473950000104129785004         RESURRECCION NICK   6910 COPELEIGH RD                       000N        CARE OF             
MTR04739500001000000000000000RA              23050316    005800130000001300000520000003NN  NNW 000                       N    
RDG04739500WATRL000000004K00000000000005526001310152015075145N000000000000N40       000240400K 10000000010000005502           
CUS0473950000104129786002         FLICKINGER MARK     901 WELLINGTON RD                       000N        CARE OF             
MTR04739500001000000000000000RA              26001974    005800140000001400000520000003NN  NNW 000                       N    
RDG04739500WATRL000000004K00000000000004835001410152015075243N000000000000N40       000580400K 10000000010000004810           
CUS0473950000104129787000         DAMON JAY A         903 WELLINGTON RD                       000N        CARE OF             
MTR04739500001000000000000000RA              46878682    005800150000001500000520000003NN  NNW 000                       N    
RDG04739500WATRL000000004K00000000000003340001510152015075309N000000000000N40       000260400K 10000000010000003316           
CUS0473950000104129788008         RODNEY OMRON        905 WELLINGTON RD                       000N        CARE OF             
MTR04739500001000000000000000RA              41588514    005800160000001600000520000003NN  NNW 000                       N    
RDG04739500WATRL000000004K00000000000002472001610152015075342N000000000000N40       000330400K 10000000010000002460           
CUS0473950000104129789006         HARMAN TODD W       907 WELLINGTON RD                       000N        CARE OF             
MTR04739500001000000000000000RA              74690280    005800170000001700000350000003NN  NNW 000                       N    
RDG04739500WATRL000000004K00000000000000293001710152015075410N000300000010N40       000280400K 10000000010000000248           
CUS0473950000104129790004         LAFFERTY STEPHEN W  909 WELLINGTON RD                       000N        CARE OF             
MTR04739500001000000000000000RA              10014410    005800180000001800000570000003NN  NNW 000                       N    
RDG04739500WATRL000000004K00000000000000548001810152015075433N000000000000N40       000230400K 10000000010000000497           
CUS0473950000104129791002         COSTIGAN JAMES J    911 WELLINGTON RD                       000N        CARE OF             
MTR04739500001000000000000000RA              23050601    005800190000001900000520000003NN  NNW 000                       N    
RDG04739500WATRL000000004K00000000000006076001910152015075455N000300000010N40       000220400K 10000000010000006026           
CUS0473950000104129792000         SOMERVILLE WILLIAM G915 WELLINGTON RD                       000N        CARE OF             
MTR04739500001000000000000000RA              23053138    005800200000002000000520000003NN  NNW 000                       N    
RDG04739500WATRL000000004K00000000000003857002010152015075516N000000000000N40       000210400K 10000000010000003844           
CUS0473950000104129793008         HOLIN JOYCE S       917 WELLINGTON RD                       000N        CARE OF             
MTR04739500001000000000000000RA              44093273    005800210000002100000520000003NN  NNW 000                       N    
RDG04739500WATRL000000004K00000000000001470002110152015075540N000000000000N40       000240400K 10000000010000001459           
CUS0473950000104129794006         DEIGNAN PATRICK H   919 WELLINGTON RD                       000N        CARE OF             
MTR04739500001000000000000000RA              27133259    005800220000002200000520000003NN  NNW 000                       N    
RDG04739500WATRL000000004K00000000000006133002210152015075640N000000000000N40       000600400K 10000000010000006094           
CUS0473950000104129795003         DISHLER DAVID EDWARD7002 KENLEIGH RD                        000N        CARE OF             
MTR04739500001000000000000000RA              00136266    005800230000002300000570000003NN  NNW 000                       N    
RDG04739500WATRL000000004K00000000000000802002310152015075741N000000000000N40       000610400K 10000000010000000786           
CUS0473950000104129796001         RHEA CLIFTON L      7000 KENLEIGH RD                        000N        CARE OF             
MTR04739500001000000000000000RA              27823140    005800240000002400000520000003NN  NNW 000                       N    
RDG04739500WATRL000000004K00000000000006145002410152015075933N000000000000N40       001120400K 10000000010000006125           
CUS0473950000104129797009         CERVENY ERVIN J     7001 KENLEIGH RD                        000N        CARE OF             
MTR04739500001000000000000000RA              29681946    005800250000002500000520000003NN  NNW 000                       N    
RDG04739500WATRL000000004K00000000000004086002510152015080113N000000000010N40       001000400K 10000000010000004085           
CUS0473950000104129798007         CERVENY ERVIN J     7003 KENLEIGH RD                        000N        CARE OF             
MTR04739500001000000000000000RA              36691564    005800260000002600000520000003NN  NNW 000                       N    
RDG04739500WATRL000000004K00000000000003052002610152015080141N000000000000N40       000280400K 10000000010000003033           
CUS0473950000104129799005         VOSS KEITH D        7005 KENLEIGH RD                        000N        CARE OF             
MTR04739500001000000000000000RA              33080420    005800270000002700000520000003NN  NNW 000                       N    
RDG04739500WATRL000000004K00000000000004667002710152015080223N000000000000N40       000420400K 10000000010000004627           
CUS0473950000104129800001         MACGREGOR JANICE L  7009 KENLEIGH RD                        000N        CARE OF             
MTR04739500001000000000000000RA              54351301    005800280000002800000520000003NN  NNW 000                       N    
RDG04739500WATRL000000004K00000000000001502002810152015080300N000000000000N40       000370400K 10000000010000001493           
CUS0473950000104129801009         VOSS JAMES BRIAN    7011 KENLEIGH RD                        000N        CARE OF             
MTR04739500001000000000000000RA              36691494    005800290000002900000520000003NN  NNW 000                       N    
RDG04739500WATRL000000004K00000000000002232002910152015080339N000000000000N40       000390400K 10000000010000002198           
CUS0473950000104129802007         ABELL ARUNAH S      7017 KENLEIGH RD                        000N        CARE OF             
MTR04739500001000000000000000RA              36691484    005800300000003000000520000003NN  NNW 000                       N    
RDG04739500WATRL000000004K00000000000003984003010152015080427N000300000010N40       000480400K 10000000010000003971           
CUS0473950000104129803005         KAMMER PATRICIA MULL7019 KENLEIGH RD                        000N        CARE OF             
MTR04739500001000000000000000RA              10023515    005800310000003100000570000003NN  NNW 000                       N    
RDG04739500WATRL000000004K00000000000000268003110152015080452N000000000000N40       000250400K 10000000010000000249           
CUS0473950000104129804003         ZAPPAS SAM A        7021 KENLEIGH RD                        000N        CARE OF             
MTR04739500001000000000000000RA              23050319    005800320000003200000520000003NN  NNW 000                       N    
RDG04739500WATRL000000004K00000000000004855003210152015080513N000000000000N40       000210400K 10000000010000004833           
CUS0473950000104129805000         GUNBY DEAN P        7023 KENLEIGH RD                        000N        CARE OF             
MTR04739500001000000000000000RA              75614727    005800330000003300000350000003NN  NNW 000                       N    
RDG04739500WATRL000000004K00000000000000145003310152015080538N000000000000N40       000250400K 10000000010000000128           
CUS0473950000104129806008         WINDSOR JOHN Z      7025 KENLEIGH RD                        000N        CARE OF             
MTR04739500001000000000000000RA              23050717    005800340000003400000520000003NN  NNW 000                       N    
RDG04739500WATRL000000004K00000000000005609003410152015080601N000000000000N40       000230400K 10000000010000005601           
CUS0473950000104129807006         WILLIAMS MICHAEL D  7027 KENLEIGH RD                        000N        CARE OF             
MTR04739500001000000000000000RA              35112037    005800350000003500000520000003NN  NNW 000                       N    
RDG04739500WATRL000000004K00000000000004977003510152015080625N000000000000N40       000240400K 10000000010000004938           
CUS0473950000104129808004         MCCURDY JOHN F      7029 KENLEIGH RD                        000N        CARE OF             
MTR04739500001000000000000000RA              36691487    005800360000003600000520000003NN  NNW 000                       N    
RDG04739500WATRL000000004K00000000000004836003610152015080658N000000000000N40       000330400K 10000000010000004803           
CUS0473950000104129809002         BERMAN MARGARET C   7031 KENLEIGH RD                        000N        CARE OF             
MTR04739500001000000000000000RA              33079508    005800370000003700000520000003NN  NNW 000                       N    
RDG04739500WATRL000000004K00000000000004923003710152015080717N000000000000N40       000190400K 10000000010000004891           
CUS0473950000104129810000         AGRE PETER COURTLAND7033 KENLEIGH RD                        000N        CARE OF             
MTR04739500001000000000000000RA              36691494    005800380000003800000520000003NN  NNW 000                       N    
RDG04739500WATRL000000004K00000000000003996003810152015080748N000000000000N40       000310400K 10000000010000003977           
CUS0473950000104129811008         CORBETT BRIAN P     901 PEMBERTON RD                        000N        CARE OF             
MTR04739500001000000000000000RA              35110342    005800390000003900000520000003NY  NNW 000                       N    
MTM0473950035110342    15                                                                                                     
RDG04739500WATRL000000004K00000000000002567003910152015080953N000000000000N40       001250400K 10000000010000002541           
CUS0473950000104129812006         MCFADDEN MARTIN J   903 PEMBERTON RD                        000N        CARE OF             
MTR04739500001000000000000000RA              35104193    005800400000004000000520000003NY  NNW 000                       N    
MTM0473950035104193    15                                                                                                     
RDG04739500WATRL000000004K00000000000000515004010152015081044N000000000000N40       000510400K 10000000010000000505           
CUS0473950000104129813004         LAPAYOWKER ANDREW   905 PEMBERTON RD                        000N        CARE OF             
MTR04739500001000000000000000RA              31581172    005800410000004100000520000003NN  NNW 000                       N    
RDG04739500WATRL000000004K00000000000005250004110152015081142N000000000000N40       000580400K 10000000010000005204           
CUS0473950000104129814002         HITTI EVELINE A     7018 KENLEIGH RD                        000N        CARE OF             
MTR04739500001000000000000000RA              32899585    005800420000004200000520000003NY  NNW 000                       N    
MTM0473950032899585    15                                                                                                     
RDG04739500WATRL000000004K00000000000004661004210152015081242N000000000000N40       000600400K 10000000010000004655           
CUS0473950000104129815009         LINDBLAD HANS       7016 KENLEIGH RD                        000N        CARE OF             
MTR04739500001000000000000000RA              23050321    005800430000004300000520000003NN  NNW 000                       N    
RDG04739500WATRL000000004K00000000000004725004310152015081332N000000000000N40       000500400K 10000000010000004687           
CUS0473950000104129816007         KEVIN G KLINEDINST  7014 KENLEIGH RD                        000N        CARE OF             
MTR04739500001000000000000000RA              45382697    005800440000004400000520000003NN  NNW 000                       N    
RDG04739500WATRL000000004K00000000000002081004410152015081430N000000000000N40       000580400K 10000000010000002070           
CUS0473950000104129817005         PICKUS PHILLIP M    908 GREENLEIGH RD                       000N        CARE OF             
MTR04739500001000000000000000RA              45374710    005800450000004500000520000003NN  NNW 000                       N    
RDG04739500WATRL000000004K00000000000001917004510152015081453N000000000000N40       000230400K 10000000010000001892           
CUS0473950000104129818003         STEELE CHRISTOPHER P906 GREENLEIGH RD                       000N        CARE OF             
MTR04739500001000000000000000RA              31584743    005800460000004600000520000003NN  NNW 000                       N    
RDG04739500WATRL000000004K00000000000004037004610152015081546N000000000000N40       000530400K 10000000010000004015           
CUS0473950000104129819001         KIRCHGRABER PETER G 904 GREENLEIGH RD                       000N        CARE OF             
MTR04739500001000000000000000RA              23050604    005800470000004700000520000003NN  NNW 000                       N    
RDG04739500WATRL000000004K00000000000005549004710152015081602N000000000000N40       000160400K 10000000010000005524           
CUS0473950000104129820009         BAIDA ANDREW H      902 GREENLEIGH RD                       000N        CARE OF             
MTR04739500001000000000000000RA              54351198    005800480000004800000520000003NN  NNW 000                       N    
RDG04739500WATRL000000004K00000000000001711004810152015081640N000000000000N40       000380400K 10000000010000001674           
CUS0473950000104129821007         MATTHEW M. PATTON   900 GREENLEIGH RD                       000N        CARE OF             
MTR04739500001000000000000000RA              23050685    005800490000004900000520000003NN  NNW 000                       N    
RDG04739500WATRL000000004K00000000000009241004910152015081658N000000000000N40       000180400K 10000000010000009207           
CUS0473950000104129822005         CERVENY ERVIN J     7013 COPELEIGH RD                       000N        CARE OF             
MTR04739500001000000000000000RA              44086337    005800500000005000000520000003NN  NNW 000                       N    
RDG04739500WATRL000000004K00000000000003885005010152015081737N000000000000N40       000390400K 10000000010000003846           
CUS0473950000104129823003         PILACHOWSKI MARTIN G901 GREENLEIGH RD                       000N        CARE OF             
MTR04739500001000000000000000RA              44086255    005800510000005100000520000003NN  NNW 000                       N    
RDG04739500WATRL000000004K00000000000002847005110152015081809N000000000000N40       000320400K 10000000010000002811           
CUS0473950000104129824001         BURGESS RYAN N      903 GREENLEIGH RD                       000N        CARE OF             
MTR04739500001000000000000000RA              45382942    005800520000005200000520000003NN  NNW 000                       N    
RDG04739500WATRL000000004K00000000000002600005210152015081830N000000000000N40       000210400K 10000000010000002562           
CUS0473950000104129825008         CARSON ROBERT F,2ND 905 GREENLEIGH RD                       000N        CARE OF             
MTR04739500001000000000000000RA              23050683    005800530000005300000520000003NN  NNW 000                       N    
RDG04739500WATRL000000004K00000000000002754005310152015081903N000300000010N40       000330400K 10000000010000003735           
CUS0473950000104129826006         HOVANEC ANDREW S    907 GREENLEIGH RD                       000N        CARE OF             
MTR04739500001000000000000000RA              27816196    005800540000005400000520000003NN  NNW 000                       N    
RDG04739500WATRL000000004K00000000000005946005410152015081923N000000000000N40       000200400K 10000000010000005908           
CUS0473950000104129827004         BRANDAU JOHN E,TRUST909 GREENLEIGH RD                       000N        CARE OF             
MTR04739500001000000000000000RA              31570723    005800550000005500000520000003NN  NNW 000                       N    
RDG04739500WATRL000000004K00000000000004116005510152015082033N000000000000N40       000700400K 10000000010000004099           
CUS0473950000104129828002         SCHEVE DAVID M      7012 KENLEIGH RD                        000N        CARE OF             
MTR04739500001000000000000000RA              26008654    005800560000005600000520000003NN  NNW 000                       N    
RDG04739500WATRL000000004K00000000000004698005610152015082120N000000000000N40       000470400K 10000000010000004656           
CUS0473950000104129829000         LOGAN JAMES R       912 OLD OAK RD                          000N        CARE OF             
MTR04739500001000000000000000RA              24758202    005800570000005700000520000003NN  NNW 000                       N    
RDG04739500WATRL000000004K00000000000004703005710152015082217N000000000000N40       000570400K 10000000010000004667           
CUS0473950000104129830008         SICILIANO WILLIAM P 910 OLD OAK RD                          000N        CARE OF             
MTR04739500001000000000000000RA              14907504    005800580000005800000310000003NN  NNW 000                       N    
RDG04739500WATRL000000004K00000000000000797005810152015082240N000000000000N40       000230400K 10000000010000000761           
CUS0473950000104129831006         FORTE LOUIS G,JR    908 OLD OAK RD                          000N        CARE OF             
MTR04739500001000000000000000RA              23050698    005800590000005900000520000003NN  NNW 000                       N    
RDG04739500WATRL000000004K00000000000005401005910152015082312N000000000000N40       000320400K 10000000010000005387           
CUS0473950000104129832004         CHRISTOPHER S ALLMON906 OLD OAK RD                          000N        CARE OF             
MTR04739500001000000000000000RA              25783041    005800600000006000000520000003NN  NNW 000                       N    
RDG04739500WATRL000000004K00000000000002843006010152015082334N000000000000N40       000220400K 10000000010000002819           
CUS0473950000104129833002         GLASS THOMAS A      904 OLD OAK RD                          000N        CARE OF             
MTR04739500001000000000000000RA              52286011    005800610000006100000520000003NY  NNW 000                       N    
MTM0473950052286011    V                                                                                                      
RDG04739500WATRL000000004K00000000000001350006110152015082400N000000000000N40       000260400K 10000000010000001350           
CUS0473950000104129834000         PATRICK BOVE        902 OLD OAK RD                          000N        CARE OF             
MTR04739500001000000000000000RA              50481245    005800620000006200000520000003NN  NNW 000                       N    
RDG04739500WATRL000000004K00000000000001337006210152015082527N000000000000N40       000870400K 10000000010000001326           
CUS0473950000104129835007         JORDAN SMALL        900 OLD OAK RD                          000N        CARE OF             
MTR04739500001000000000000000RA              45373688    005800630000006300000520000003NN  NNW 000                       N    
RDG04739500WATRL000000004K00000000000002330006310152015082557N000000000000N40       000300400K 10000000010000002309           
CUS0473950000104129836005         STUIBER DEBORAH C   901 OLD OAK RD                          000N        CARE OF             
MTR04739500001000000000000000RA              45385314    005800640000006400000520000003NN  NNW 000                       N    
RDG04739500WATRL000000004K00000000000002597006410152015082643N000000000000N40       000460400K 10000000010000002578           
CUS0473950000104129837003         VINK HEATH D        903 OLD OAK RD                          000N        CARE OF             
MTR04739500001000000000000000RA              23050317    005800650000006500000520000003NN  NNW 000                       N    
RDG04739500WATRL000000004K00000000000004343006510152015082702N000000000000N40       000190400K 10000000010000004324           
CUS0473950000104129838001         JOHN KIM            905 OLD OAK RD                          000N        CARE OF             
MTR04739500001000000000000000RA              23050684    005800660000006600000520000003NN  NNW 000                       N    
RDG04739500WATRL000000004K00000000000006181006610152015082736N000300000010N40       000340400K 10000000010000006152           
CUS0473950000104129839009         DILDINE GREGORY S   907 OLD OAK RD                          000N        CARE OF             
MTR04739500001000000000000000RA              23050320    005800670000006700000520000003NN  NNW 000                       N    
RDG04739500WATRL000000004K00000000000005883006710152015082821N000000000000N40       000450400K 10000000010000005855           
CUS0473950000104129840007         JANELLO MARK K      909 OLD OAK RD                          000N        CARE OF             
MTR04739500001000000000000000RA              01072223    005800680000006800000610000003NN  NNW 000                       N    
RDG04739500WATRL000000004K00000000000000747006810152015082902N000000000000N40       000410400K 10000000010000000725           
CUS0473950000104129841005         BAILEY KRISTIN E    7004 KENLEIGH RD                        000N        CARE OF             
MTR04739500001000000000000000RA              01072227    005800690000006900000610000003NN  NNW 000                       N    
RDG04739500WATRL000000004K00000000000002159006910152015082951N000000000000N40       000490400K 10000000010000002101           
CUS0473950000104129842003         BROUSSARD STEVEN W  918 WELLINGTON RD                       000N        CARE OF             
MTR04739500001000000000000000RA              00126975    005800700000007000000570000003NN  NNW 000                       N    
RDG04739500WATRL000000004K00000000000002461007010152015083045N000000000000N40       000540400K 10000000010000002429           
CUS0473950000104129843001         DIMENNA JOHN J      914 WELLINGTON RD                       000N        CARE OF             
MTR04739500001000000000000000RA              52770023    005800710000007100000520000003NN  NNW 000                       N    
RDG04739500WATRL000000004K00000000000002396007110152015083114N000000000000N40       000290400K 10000000010000002349           
CUS0473950000104129844009         MCINTIRE ROBERR A   910 WELLINGTON RD                       000N        CARE OF             
MTR04739500001000000000000000RA              22609407    005800720000007200000520000003NN  NNW 000                       N    
RDG04739500WATRL000000004K00000000000005836007210152015083149N000000000000N40       000350400K 10000000010000005808           
CUS0473950000104129845006         WILLIAMS HOWARD S   906 WELLINGTON RD                       000N        CARE OF             
MTR04739500001000000000000000RA              41076296    005800730000007300000520000003NN  NNW 000                       N    
RDG04739500WATRL000000004K00000000000003862007310152015083218N000000000000N40       000290400K 10000000010000003846           
CUS0473950000104129846004         SIEWERT DONALD J    904 WELLINGTON RD                       000N        CARE OF             
MTR04739500001000000000000000RA              50478660    005800740000007400000520000003NN  NNW 000                       N    
RDG04739500WATRL000000004K00000000000001954007410152015083259N000300000010N40       000410400K 10000000010000001924           
CUS0473950000104129847002         SHELLEY PATRICK     900 WELLINGTON RD                       000N        CARE OF             
MTR04739500001000000000000000RA              29685908    005800750000007500000520000003NN  NNW 000                       N    
RDG04739500WATRL000000004K00000000000004565007510152015083329N000000000000N40       000300400K 10000000010000004550           
CUS0473950000104129848000         WOODALL PHILLIP J   7001 COPELEIGH RD                       000N        CARE OF             
MTR04739500001000000000000000RA              23050700    005800760000007600000520000003NN  NNW 000                       N    
RDG04739500WATRL000000004K00000000000008589007610152015083414N000000000000N40       000450400K 10000000010000008495           
CUS0473950000104129849008         BARTON RICHARD C    7003 COPELEIGH RD                       000N        CARE OF             
MTR04739500001000000000000000RA              30515051    005800770000007700000520000003NN  NNW 000                       N    
RDG04739500WATRL000000004K00000000000004295007710152015083447N000000000000N40       000330400K 10000000010000004277           
CUS0473950000104129850006         TAYLOR LESLIE G     7005 COPELEIGH RD                       000N        CARE OF             
MTR04739500001000000000000000RA              40321440    005800780000007800000520000003NN  NNW 000                       N    
RDG04739500WATRL000000004K00000000000003440007810152015083539N000000000000N40       000520400K 10000000010000003426           
CUS0473950000104129851004         HEAVERS IAN R       7007 COPELEIGH RD                       000N        CARE OF             
MTR04739500001000000000000000RA              23050699    005800790000007900000520000003NN  NNW 000                       N    
RDG04739500WATRL000000004K00000000000005570007910152015083613N000000000000N40       000340400K 10000000010000005557           
CUS0473950000104129852002         IGUSA TAKERU        7011 COPELEIGH RD                       000N        CARE OF             
MTR04739500001000000000000000RA              54351558    005800800000008000000520000003NN  NNW 000                       N    
RDG04739500WATRL000000004K00000000000001449008010152015083649N000000000000N40       000360400K 10000000010000001430           
CUS0473950000104129853000         STEVEN MCINTIRE     7101 COPELEIGH RD                       000N        CARE OF             
MTR04739500001000000000000000RA              23050738    005800810000008100000520000003NN  NNW 000                       N    
RDG04739500WATRL000000004K00000000000003464008110152015083744N000000000000N40       000550400K 10000000010000003429           
CUS0473950000104129854008         STARKEY CHARLES W   7103 COPELEIGH RD                       000N        CARE OF             
MTR04739500001000000000000000RA              41076718    005800820000008200000520000003NN  NNW 000                       N    
RDG04739500WATRL000000004K00000000000002076008210152015083821N000000000000N40       000370400K 10000000010000002066           
CUS0473950000104129855005         GERRITY DAVID JOHN  7101 RICH HILL RD                       000N        CARE OF             
MTR04739500001000000000000000RA              23050341    005800830000008300000520000003NN  NNW 000                       N    
RDG04739500WATRL000000004K00000000000003539008310152015083939N000000000000N40       000780400K 10000000010000003523           
CUS0473950000104129856003         DAVIS KIRK W        7103 RICH HILL RD                       000N        CARE OF             
MTR04739500001000000000000000RA              44173192    005800840000008400000520000003NN  NNW 000                       N    
RDG04739500WATRL000000004K00000000000002893008410152015083951N000000000000N40       000120400K 10000000010000002873           
CUS0473950000104129857001         BOYD GEOFFREY J C   7105 RICH HILL RD                       000N        CARE OF             
MTR04739500001000000000000000RA              54351562    005800850000008500000520000003NN  NNW 000                       N    
RDG04739500WATRL000000004K00000000000001232008510152015084016N000000000000N40       000250400K 10000000010000001224           
CUS0473950000104129858009         MELLOR ERIC C       7107 RICH HILL RD                       000N        CARE OF             
MTR04739500001000000000000000RA              00126659    005800860000008600000570000003NN  NNW 000                       N    
RDG04739500WATRL000000004K00000000000001000008610152015084040N000000000000N40       000240400K 10000000010000000982           
CUS0473950000104129859007         MAXWELL DONALD M    7109 RICH HILL RD                       000N        CARE OF             
MTR04739500001000000000000000RA              39585955    005800870000008700000520000003NN  NNW 000                       N    
RDG04739500WATRL000000004K00000000000004053008710152015084108N000000000000N40       000280400K 10000000010000003964           
CUS0473950000104129860005         JACOBSON ELLIOT     7111 RICH HILL RD                       000N        CARE OF             
MTR04739500001000000000000000RA              9689388     005800880000008800000570000003NN  NNW 000                       N    
RDG04739500WATRL000000004K00000000000005796008810152015084152N000000000000N40       000440400K 10000000010000005772           
CUS0473950000104129861003         STEPHEN L. MORGAN   7113 RICH HILL RD                       000N        CARE OF             
MTR04739500001000000000000000RA              25783237    005800890000008900000520000003NN  NNW 000                       N    
RDG04739500WATRL000000004K00000000000003688008910152015084227N000000000000N40       000350400K 10000000010000003671           
CUS0473950000104129862001         WHEELER JAMES A,3RD 7115 RICH HILL RD                       000N        CARE OF             
MTR04739500001000000000000000RA              23050729    005800900000009000000520000003NN  NNW 000                       N    
RDG04739500WATRL000000004K00000000000008014009010152015084257N000000000000N40       000300400K 10000000010000007996           
CUS0473950000104129863009         ZEITHAML DONALD P JR818 HATHERLEIGH RD                      000N        CARE OF             
MTR04739500001000000000000000RA              27814275    005800910000009100000520000003NN  NNW 000                       N    
RDG04739500WATRL000000004K00000000000004614009110152015084332N000000000000N40       000350400K 10000000010000004600           
CUS0473950000104380110009         GWIAZDOWSKI EUGENE P816 HATHERLEIGH RD                      000N        CARE OF             
MTR04739500001000000000000000RA              33732966    005800920000009200000520000003NN  NNW 000                       N    
RDG04739500WATRL000000004K00000000000004795009210152015084416N000000000000N40       000440400K 10000000010000004776           
CUS0473950000104129864007         MARR KIEREN A       814 HATHERLEIGH RD                      000N        CARE OF             
MTR04739500001000000000000000RA              26013518    005800930000009300000520000003NN  NNW 000                       N    
RDG04739500WATRL000000004K00000000000007048009310152015084445N000000000000N40       000290400K 10000000010000007034           
CUS0473950000104129865004         MCGLONE MARK G      812 HATHERLEIGH RD                      000N        CARE OF             
MTR04739500001000000000000000RA              23050585    005800940000009400000520000003NN  NNW 000                       N    
RDG04739500WATRL000000004K00000000000005814009410152015084521N000000000000N40       000360400K 10000000010000005790           
CUS0473950000104129866002         HUISMAN THIERRY A G 810 HATHERLEIGH RD                      000N        CARE OF             
MTR04739500001000000000000000RA              76347273    005800950000009500000350000003NN  NNW 000                       N    
RDG04739500WATRL000000004K00000000000000204009510152015084538N000000000000N40       000170400K 10000000010000000163           
CUS0473950000104129867000         MITSAK JOHN C       808 HATHERLEIGH RD                      000N        CARE OF             
MTR04739500001000000000000000RA              01100177    005800960000009600000610000003NN  NNW 000                       N    
RDG04739500WATRL000000004K00000000000001428009610152015084604N000000000000N40       000260400K 10000000010000001410           
CUS0473950000104129868008         SKEEN JOHN H,3RD    806 HATHERLEIGH RD                      000N        CARE OF             
MTR04739500001000000000000000RA              35097195    005800970000009700000520000003NN  NNW 000                       N    
RDG04739500WATRL000000004K00000000000003747009710152015084632N000000000000N40       000280400K 10000000010000003711           
CUS0473950000104129869006         LEY THOMAS RIVERA   804 HATHERLEIGH RD                      000N        CARE OF             
MTR04739500001000000000000000RA              23050651    005800980000009800000520000003NN  NNW 000                       N    
RDG04739500WATRL000000004K00000000000003837009810152015084724N000000000000N40       000520400K 10000000010000003821           
CUS0473950000104129870004         MACRI CECILIA T     802 HATHERLEIGH RD                      000N        CARE OF             
MTR04739500001000000000000000RA              01099281    005800990000009900000610000003NN  NNW 000                       N    
RDG04739500WATRL000000004K00000000000001419009910152015084805N000000000000N40       000410400K 10000000010000001404           
CUS0473950000104129871002         DRAKE CHARLES GEORGE800 HATHERLEIGH RD                      000N        CARE OF             
MTR04739500001000000000000000RA              20767030    005801000000010000000520000003NN  NNW 000                       N    
RDG04739500WATRL000000004K00000000000003585010010152015084856N000000000000N40       000510400K 10000000010000003576           
CUS0473950000104129872000         PRICE JAMES M,3RD   801 TRED AVON RD                        000N        CARE OF             
MTR04739500001000000000000000RA              46888939    005801010000010100000520000003NN  NNW 000                       N    
RDG04739500WATRL000000004K00000000000000821010410152015085206N000000000000N40       000780400K 10000000010000000811           
CUS0473950000104129873008         CLINT W. MORROW     803 TRED AVON RD                        000N        CARE OF             
MTR04739500001000000000000000RA              00127838    005801020000010200000570000003NN  NNW 000                       N    
RDG04739500WATRL000000004K00000000000001184010510152015085238N000000000000N40       000320400K 10000000010000001156           
CUS0473950000104129874006         MOLLY U SULLIVAN    805 TRED AVON RD                        000N        CARE OF             
MTR04739500001000000000000000RA              00126854    005801030000010300000570000003NN  NNW 000                       N    
RDG04739500WATRL000000004K00000000000001550010610152015085334N000000000000N40       000560400K 10000000010000001541           
CUS0473950000104129875003         HARLEY DAVID E      807 TRED AVON RD                        000N        CARE OF             
MTR04739500001000000000000000RA              00126853    005801040000010400000570000003NN  NNW 000                       N    
RDG04739500WATRL000000004K00000000000000944010710152015085336N000000000000N40       000020400K 10000000010000000927           
CUS0473950000104129876001         FILLMORE FRANK C,JR 809 TRED AVON RD                        000N        CARE OF             
MTR04739500001000000000000000RA              00127835    005801050000010500000570000003NN  NNW 000                       N    
RDG04739500WATRL000000004K00000000000002266010810152015085419N000000000000N40       000430400K 10000000010000002238           
CUS0473950000104129877009         ROBERTS MARY ELEANOR811 TRED AVON RD                        000N        CARE OF             
MTR04739500001000000000000000RA              23050587    005801060000010600000520000003NN  NNW 000                       N    
RDG04739500WATRL000000004K00000000000005145010910152015085503N000000000000N40       000440400K 10000000010000005123           
CUS0473950000104129878007         COMBER JAMES E      813 TRED AVON RD                        000N        CARE OF             
MTR04739500001000000000000000RA              29402852    005801070000010700000520000003NN  NNW 000                       N    
RDG04739500WATRL000000004K00000000000004841011010152015085530N000000000000N40       000270400K 10000000010000004822           
CUS0473950000104129879005         CUMMINGS JOHN D,JR  815 TRED AVON RD                        000N        CARE OF             
MTR04739500001000000000000000RA              41074778    005801080000010800000520000003NN  NNW 000                       N    
RDG04739500WATRL000000004K00000000000003189011110152015085603N000000000000N40       000330400K 10000000010000003175           
CUS0473950000104129880003         WALDINGER THOMAS E  817 TRED AVON RD                        000N        CARE OF             
MTR04739500001000000000000000RA              29681888    005801090000010900000520000003NN  NNW 000                       N    
RDG04739500WATRL000000004K00000000000003188011210152015085623N000000000000N40       000200400K 10000000010000003183           
CUS0473950000104129881001         STUCKI WALTER ALBERT819 TRED AVON RD                        000N        CARE OF             
MTR04739500001000000000000000RA              01094253    005801100000011000000610000003NN  NNW 000                       N    
RDG04739500WATRL000000004K00000000000000814011310152015085640N000000000000N40       000170400K 10000000010000000775           
CUS0473950000104129882009         ANDREW S DAVIS      901 HATHERLEIGH RD                      000N        CARE OF             
MTR04739500001000000000000000RA              23050650    005801110000011100000520000003NN  NNW 000                       N    
RDG04739500WATRL000000004K00000000000006131011410152015085805N000000000000N40       000850400K 10000000010000006076           
CUS0473950000104129883007         POFFEL ANDREW E     7114 RICH HILL RD                       000N        CARE OF             
MTR04739500001000000000000000RA              99189276    005801120000011200000570000003NN  NNW 000                       N    
RDG04739500WATRL000000004K00000000000002149011510152015085942N000000000000N40       000970400K 10000000010000002129           
CUS0473950000104129884005         MUNOZ CARLOS        7112 RICH HILL RD                       000N        CARE OF             
MTR04739500001000000000000000RA              30522936    005801130000011300000520000003NY  NNW 000                       N    
MTM0473950030522936    CAR                                                                                                    
RDG04739500WATRL000000004K00000000000000000000000000000000000 000000000000U         000000400  10000000010000005087           
CUS0473950000104129885002         ABELL BENJAMIN H    7110 RICH HILL RD                       000N        CARE OF             
MTR04739500001000000000000000RA              00137357    005801140000011400000570000003NN  NNW 000                       N    
RDG04739500WATRL000000004K00000000000002714011610152015090022N000000000000N40       000400400K 10000000010000002665           
CUS0473950000104129886000         LECHTZIN NOAH       7104 RICH HILL RD                       000N        CARE OF             
MTR04739500001000000000000000RA              99189280    005801150000011500000570000003NN  NNW 000                       N    
RDG04739500WATRL000000004K00000000000001836011710152015090047N000000000000N40       000250400K 10000000010000001804           
CUS0473950000104129887008         BROOME PATRICK M    7102 RICH HILL RD                       000N        CARE OF             
MTR04739500001000000000000000RA              14915321    005801160000011600000310000003NN  NNW 000                       N    
RDG04739500WATRL000000004K00000000000000910011810152015090114N000000000000N40       000270400K 10000000010000000866           
CUS0473950000104129888006         BAROODY NEAL C      7100 RICH HILL RD                       000N        CARE OF             
MTR04739500001000000000000000RA              14919802    005801170000011700000310000003NN  NNW 000                       N    
RDG04739500WATRL000000004K00000000000001786011910152015090145N000300000010N40       000310400K 10000000010000001725           
CUS0473950000104129889004         HALSEY SHAWN J      818 RIDGELEIGH RD                       000N        CARE OF             
MTR04739500001000000000000000RA              48595876    005801180000011800000520000003NN  NNW 000                       N    
RDG04739500WATRL000000004K00000000000003333012010152015090245N000000000000N40       000600400K 10000000010000003310           
CUS0473950000104129890002         SCRIVENER JOHN D    816 RIDGELEIGH RD                       000N        CARE OF             
MTR04739500001000000000000000RA              23050741    005801190000011900000520000003NN  NNW 000                       N    
RDG04739500WATRL000000004K00000000000006956012110152015090317N000000000000N40       000320400K 10000000010000006945           
CUS0473950000104129891000         STRUNGE JAMES J     814 RIDGELEIGH RD                       000N        CARE OF             
MTR04739500001000000000000000RA              10021747    005801200000012000000570000003NN  NNW 000                       N    
RDG04739500WATRL000000004K00000000000000321012210152015090351N000000000000N40       000340400K 10000000010000000296           
CUS0473950000104129892008         ONEILL REBECCA      812 RIDGELEIGH RD                       000N        CARE OF             
MTR04739500001000000000000000RA              48587477    005801210000012100000520000003NN  NNW 000                       N    
RDG04739500WATRL000000004K00000000000001914012310152015090429N000000000000N40       000380400K 10000000010000001900           
CUS0473950000104129893006         ZIPP ANTHONY P P    810 RIDGELEIGH RD                       000N        CARE OF             
MTR04739500001000000000000000RA              29402808    005801220000012200000520000003NN  NNW 000                       N    
RDG04739500WATRL000000004K00000000000005906012410152015090523N000000000000N40       000540400K 10000000010000005901           
CUS0473950000104129894004         BECK LAWRENCE M     808 RIDGELEIGH RD                       000N        CARE OF             
MTR04739500001000000000000000RA              23050726    005801230000012300000520000003NN  NNW 000                       N    
RDG04739500WATRL000000004K00000000000003776012510152015090556N000000000000N40       000330400K 10000000010000003766           
CUS0473950000104129895001         FEY STEPHANIE D     806 RIDGELEIGH RD                       000N        CARE OF             
MTR04739500001000000000000000RA              00126850    005801240000012400000570000003NN  NNW 000                       N    
RDG04739500WATRL000000004K00000000000001751012610152015090624N000000000000N40       000280400K 10000000010000001739           
CUS0473950000104129896009         SULKOWSKI MARK      804 RIDGELEIGH RD                       000N        CARE OF             
MTR04739500001000000000000000RA              26008652    005801250000012500000520000003NN  NNW 000                       N    
RDG04739500WATRL000000004K00000000000003381012710152015090701N000000000000N40       000370400K 10000000010000003329           
CUS0473950000104129897007         WILLIAMS CHARLES GRA802 RIDGELEIGH RD                       000N        CARE OF             
MTR04739500001000000000000000RA              23050739    005801260000012600000520000003NY  NNW 000                       N    
MTM0473950023050739    O                                                                                                      
RDG04739500WATRL000000004K00000000000004319012810152015090748N000000000000N40       000470400K 10000000010000004319           
CUS0473950000104129898005         DAVID J. BRIGLIO    800 RIDGELEIGH RD                       000N        CARE OF             
MTR04739500001000000000000000RA              54350690    005801270000012700000520000003NN  NNW 000                       N    
RDG04739500WATRL000000004K00000000000001814012910152015090836N000000000000N40       000480400K 10000000010000001790           
CUS0473950000104129899003         HOBBS BENJAMIN F    7107 WARDMAN RD                         000N        CARE OF             
MTR04739500001000000000000000RA              27821627    005801280000012800000520000003NN  NNW 000                       N    
RDG04739500WATRL000000004K00000000000004479013010152015090907N000000000000N40       000310400K 10000000010000004451           
CUS0473950000104129900009         HAYS ANN T,TRUSTEE  803 RIDGELEIGH RD                       000N        CARE OF             
MTR04739500001000000000000000RA              32177510    005801290000012900000520000003NN  NNW 000                       N    
RDG04739500WATRL000000004K00000000000004465013110152015090935N000000000000N40       000280400K 10000000010000004451           
CUS0473950000104129901007         SAMUEL C STEINBACH  805 RIDGELEIGH RD                       000N        CARE OF             
MTR04739500001000000000000000RA              32904481    005801300000013000000520000003NN  NNW 000                       N    
RDG04739500WATRL000000004K00000000000005060013210152015091024N000000000000N40       000490400K 10000000010000005048           
CUS0473950000104129902005         ROBINSON JAY B      807 RIDGELEIGH RD                       000N        CARE OF             
MTR04739500001000000000000000RA              01092541    005801310000013100000610000003NN  NNW 000                       N    
RDG04739500WATRL000000004K00000000000001145013310152015091100N000000000000N40       000360400K 10000000010000001119           
CUS0473950000104129903003         DEMPSEY ROBERT J    809 RIDGELEIGH RD                       000N        CARE OF             
MTR04739500001000000000000000RA              26009308    005801320000013200000520000003NN  NNW 000                       N    
RDG04739500WATRL000000004K00000000000003819013410152015091135N000000000000N40       000350400K 10000000010000003802           
CUS0473950000104129904001         KILLEN KATHERINE    811 RIDGELEIGH RD                       000N        CARE OF             
MTR04739500001000000000000000RA              29082434    005801330000013300000520000003NN  NNW 000                       N    
RDG04739500WATRL000000004K00000000000004934013510152015091200N000000000000N40       000250400K 10000000010000004902           
CUS0473950000104129905008         LAPAGLIA PETER J,JR 813 RIDGELEIGH RD                       000N        CARE OF             
MTR04739500001000000000000000RA              99189593    005801340000013400000570000003NN  NNW 000                       N    
RDG04739500WATRL000000004K00000000000002065013610152015091220N000000000000N40       000200400K 10000000010000002048           
CUS0473950000104129906006         LOVE EDWIN P        815 RIDGELEIGH RD                       000N        CARE OF             
MTR04739500001000000000000000RA              99189554    005801350000013500000570000003NN  NNW 000                       N    
RDG04739500WATRL000000004K00000000000002681013710152015091326N000000000000N40       000660400K 10000000010000002660           
CUS0473950000104129907004         LOVE EDWIN O,JR     7102 RIDGELEIGH CT                      000N        CARE OF             
MTR04739500001000000000000000RA              00000000    005801360000013600000600000000NN  NNW 000                       N    
RDG04739500WATRL000000004K00000000000000000013810152015091355S022000000000N40       000290400K 10000000010000000066           
CUS0473950000104129908002         HANSEN JONATHAN L   7100 RIDGELEIGH CT                      000N        CARE OF             
MTR04739500001000000000000000RA              42808857    005801370000013700000520000003NN  NNW 000                       N    
RDG04739500WATRL000000004K00000000000001709013910152015091429N000000000000N40       000340400K 10000000010000001681           
CUS0473950000104129909000         NAZEMI ATOLLAH F    7101 RIDGELEIGH CT                      000N        CARE OF             
MTR04739500001000000000000000RA              00126860    005801380000013800000570000003NN  NNW 000                       N    
RDG04739500WATRL000000004K00000000000001994014010152015091503N000000000000N40       000340400K 10000000010000001948           
CUS0473950000104129910008         KUEHN WILLIAM F     817 RIDGELEIGH RD                       000N        CARE OF             
MTR04739500001000000000000000RA              14915324    005801390000013900000310000003NY  NNW 000                       N    
MTM0473950014915324    O                                                                                                      
RDG04739500WATRL000000004K00000000000000977014110152015091601N000100000010N40       000580400K 10000000010000000977           
CUS0473950000104129911006         MCCLOSKEY MICHAEL E 819 RIDGELEIGH RD                       000N        CARE OF             
MTR04739500001000000000000000RA              23050344    005801400000014000000520000003NN  NNW 000                       N    
RDG04739500WATRL000000004K00000000000004524014210152015091655N000000000000N40       000540400K 10000000010000004497           
CUS0473950000104129912004         BALL WILLIAM P      7104 COPELEIGH RD                       000N        CARE OF             
MTR04739500001000000000000000RA              00126979    005801410000014100000570000003NN  NNW 000                       N    
RDG04739500WATRL000000004K00000000000001376014310152015091756N000400000010N40       000610400K 10000000010000001366           
CUS0473950000104129913002         LIANA SULLIVAN      7102 COPELEIGH RD                       000N        CARE OF             
MTR04739500001000000000000000RA              40321439    005801420000014200000520000003NN  NNW 000                       N    
RDG04739500WATRL000000004K00000000000001863014410152015091912N000000000000N40       000760400K 10000000010000001850           
CUS0473950000104129914000         ROURKE FRANCIS E,TRU7100 COPELEIGH RD                       000N        CARE OF             
MTR04739500001000000000000000RA              26015620    005801430000014300000520000003NN  NNW 000                       N    
RDG04739500WATRL000000004K00000000000003997014510152015091957N000000000000N40       000450400K 10000000010000003971           
CUS0473950000104129915007         BUTTARAZZI JOSEPH   7010 COPELEIGH RD                       000N        CARE OF             
MTR04739500001000000000000000RA              24220264    005801440000014400000520000003NN  NNW 000                       N    
RDG04739500WATRL000000004K00000000000005217019010152015095330N000000000000N40       000540400K 10000000010000005158           
CUS0473950000104129916005         BURKE CHARLES J     7008 COPELEIGH RD                       000N        CARE OF             
MTR04739500001000000000000000RA              11334428    005801450000014500000570000003NN  NNW 000                       N    
RDG04739500WATRL000000004K00000000000004491019110152015095403N000000000000N40       000330400K 10000000010000004481           
CUS0473950000104129917003         KREJCI MADELYN K    7006 COPELEIGH RD                       000N        CARE OF             
MTR04739500001000000000000000RA              23050740    005801460000014600000520000003NN  NNW 000                       N    
RDG04739500WATRL000000004K00000000000004339019210152015095448N000000000000N40       000450400K 10000000010000004333           
CUS0473950000104129918001         NUCKELS JOHN B      7004 COPELEIGH RD                       000N        CARE OF             
MTR04739500001000000000000000RA              10001539    005801470000014700000570000003NN  NNW 000                       N    
RDG04739500WATRL000000004K00000000000000508019310152015095517N000000000000N40       000290400K 10000000010000000482           
CUS0473950000104129919009         CHRISTENSEN ERIC L  7002 COPELEIGH RD                       000N        CARE OF             
MTR04739500001000000000000000RA              29686187    005801480000014800000520000003NN  NNW 000                       N    
RDG04739500WATRL000000004K00000000000001913019410152015095605N000000000000N40       000480400K 10000000010000001896           
CUS0473950000104129920007         KIMBALL BARRIE K    7000 COPELEIGH RD                       000N        CARE OF             
MTR04739500001000000000000000RA              36688606    005801490000014900000520000003NN  NNW 000                       N    
RDG04739500WATRL000000004K00000000000004819019510152015095653N000000000000N40       000480400K 10000000010000004793           
CUS0473950000104129921005         ROSE THOMAS D,JR    820 WELLINGTON RD                       000N        CARE OF             
MTR04739500001000000000000000RA              26009017    005801500000015000000520000003NN  NNW 000                       N    
RDG04739500WATRL000000004K00000000000003959019610152015095734N000000000000N40       000410400K 10000000010000003945           
CUS0473950000104129922003         DENNY DONALD D      818 WELLINGTON RD                       000N        CARE OF             
MTR04739500001000000000000000RA              35108654    005801510000015100000520000003NN  NNW 000                       N    
RDG04739500WATRL000000004K00000000000004133019710152015095807N000000000000N40       000330400K 10000000010000004120           
CUS0473950000104129923001         FITZ-PATRICK RYAN E 816 WELLINGTON RD                       000N        CARE OF             
MTR04739500001000000000000000RA              23050594    005801520000015200000520000003NN  NNW 000                       N    
RDG04739500WATRL000000004K00000000000007988019810152015095932N000000000000N40       000850400K 10000000010000007948           
CUS0473950000104129924009         CLEMMENS JAMES C    814 WELLINGTON RD                       000N        CARE OF             
MTR04739500001000000000000000RA              35108658    005801530000015300000520000003NN  NNW 000                       N    
RDG04739500WATRL000000004K00000000000005060019910152015100009N000000000000N40       000370400K 10000000010000005029           
CUS0473950000104129925006         BOWERS DANIEL       7003 WELLINGTON CT                      000N        CARE OF             
MTR04739500001000000000000000RA              35108639    005801540000015400000520000003NN  NNW 000                       N    
RDG04739500WATRL000000004K00000000000005349020010152015100110N000000000000N40       000610400K 10000000010000005284           
CUS0473950000104129926004         OTTINGER MARC W     7004 WELLINGTON CT                      000N        CARE OF             
MTR04739500001000000000000000RA              19461362    005801550000015500000520000003NN  NNW 000                       N    
RDG04739500WATRL000000004K00000000000005800020110152015100131N000000000000N40       000210400K 10000000010000005785           
CUS0473950000104129927002         CHRISTOPHER BROOKS  7002 WELLINGTON CT                      000N        CARE OF             
MTR04739500001000000000000000RA              75618100    005801560000015600000350000003NN  NNW 000                       N    
RDG04739500WATRL000000004K00000000000000095020210152015100201N000300000010N40       000300400K 10000000010000000071           
CUS0473950000104129928000         CARNES JANET W,TRUST806 WELLINGTON RD                       000N        CARE OF             
MTR04739500001000000000000000RA              35108722    005801570000015700000520000003NN  NNW 000                       N    
RDG04739500WATRL000000004K00000000000003867020310152015100227N000000000000N40       000260400K 10000000010000003841           
CUS0473950000104129929008         DEMARZO ANGELO      804 WELLINGTON RD                       000N        CARE OF             
MTR04739500001000000000000000RA              24758201    005801580000015800000570000003NN  NNW 000                       N    
RDG04739500WATRL000000004K00000000000005633020410152015100335N000000000000N40       000680400K 10000000010000005605           
CUS0473950000104129930006         COOK JANE FELDMAN   802 WELLINGTON RD                       000N        CARE OF             
MTR04739500001000000000000000RA              99289095    005801590000015900000570000003NN  NNW 000                       N    
RDG04739500WATRL000000004K00000000000000278020510152015100423N000300000010N40       000480400K 10000000010000000274           
CUS0473950000104129931004         HELD JUDITH A       800 WELLINGTON RD                       000N        CARE OF             
MTR04739500001000000000000000RA              23050599    005801600000016000000520000003NN  NNW 000                       N    
RDG04739500WATRL000000004K00000000000003441020610152015100515N000000000000N40       000520400K 10000000010000003426           
CUS0473950000104129932002         SCHAFFER BRIAN D    801 STONELEIGH RD                       000N        CARE OF             
MTR04739500001000000000000000RA              23050591    005801610000016100000520000003NN  NNW 000                       N    
RDG04739500WATRL000000004K00000000000002333017610152015094457N000000000000N40       000890400K 10000000010000002326           
CUS0473950000104129933000         CERVENY ERVIN J     803 STONELEIGH RD                       000N        CARE OF             
MTR04739500001000000000000000RA              25780478    005801620000016200000520000003NN  NNW 000                       N    
RDG04739500WATRL000000004K00000000000003772017710152015094543N000300000010N40       000460400K 10000000010000003757           
CUS0473950000104129934008         SMITH CRAIG E       805 STONELEIGH RD                       000N        CARE OF             
MTR04739500001000000000000000RA              27816258    005801630000016300000520000003NN  NNW 000                       N    
RDG04739500WATRL000000004K00000000000006207017810152015094613N000000000000N40       000300400K 10000000010000006162           
CUS0473950000104129935005         GODFREY DEBORAH A,TR807 STONELEIGH RD                       000N        CARE OF             
MTR04739500001000000000000000RA              23050597    005801640000016400000520000003NN  NNW 000                       N    
RDG04739500WATRL000000004K00000000000005122017910152015094648N000000000000N40       000350400K 10000000010000005110           
CUS0473950000104129936003         DONKAR ELI N        809 STONELEIGH RD                       000N        CARE OF             
MTR04739500001000000000000000RA              35107042    005801650000016500000520000003NN  NNW 000                       N    
RDG04739500WATRL000000004K00000000000002850018010152015094716N000000000000N40       000280400K 10000000010000002822           
CUS0473950000104129937001         DUKLEWSKI, LAURA K  811 STONELEIGH RD                       000N        CARE OF             
MTR04739500001000000000000000RA              45381330    005801660000016600000520000003NN  NNW 000                       N    
RDG04739500WATRL000000004K00000000000002294018110152015094817N000000000000N40       000610400K 10000000010000002269           
CUS0473950000104129938009         ROEBBER H JOSEPH    813 STONELEIGH RD                       000N        CARE OF             
MTR04739500001000000000000000RA              00126978    005801670000016700000570000003NN  NNW 000                       N    
RDG04739500WATRL000000004K00000000000001510018210152015094845N000000000000N40       000280400K 10000000010000001484           
CUS0473950000104129939007         STAHOVEC RICHARD T  7003 STONELEIGH CT                      000N        CARE OF             
MTR04739500001000000000000000RA              46877931    005801680000016800000520000003NN  NNW 000                       N    
RDG04739500WATRL000000004K00000000000002132018310152015094925N000000000000N40       000400400K 10000000010000002114           
CUS0473950000104129940005         WURZBACHER WARREN W 7001 STONELEIGH CT                      000N        CARE OF             
MTR04739500001000000000000000RA              01111333    005801690000016900000610000003NN  NNW 000                       N    
RDG04739500WATRL000000004K00000000000001036018410152015094952N000000000000N40       000270400K 10000000010000001011           
CUS0473950000104129941003         JOHN F REILLY       7002 STONELEIGH CT                      000N        CARE OF             
MTR04739500001000000000000000RA              00126980    005801700000017000000570000003NN  NNW 000                       N    
RDG04739500WATRL000000004K00000000000001280018610152015095055N000000000000N40       000300400K 10000000010000001263           
CUS0473950000104129942001         CHRISTMAS COLLEEN   7000 STONELEIGH CT                      000N        CARE OF             
MTR04739500001000000000000000RA              00126977    005801710000017100000570000003NN  NNW 000                       N    
RDG04739500WATRL000000004K00000000000001566018510152015095025N000000000000N40       000330400K 10000000010000001550           
CUS0473950000104129943009         SMITH HENRY A,3RD   815 STONELEIGH RD                       000N        CARE OF             
MTR04739500001000000000000000RA              27134216    005801720000017200000520000003NN  NNW 000                       N    
RDG04739500WATRL000000004K00000000000005537018710152015095119N000000000000N40       000240400K 10000000010000005510           
CUS0473950000104129944007         KIRK WILLIAM J,3RD  817 STONELEIGH RD                       000N        CARE OF             
MTR04739500001000000000000000RA              19461315    005801730000017300000520000003NN  NNW 000                       N    
RDG04739500WATRL000000004K00000000000007694018810152015095210N000400000010N40       000510400K 10000000010000007687           
CUS0473950000104129945004         SNEAD MICHAEL C     819 STONELEIGH RD                       000N        CARE OF             
MTR04739500001000000000000000RA              29402160    005801740000017400000520000003NN  NNW 000                       N    
RDG04739500WATRL000000004K00000000000002679018910152015095236N000000000000N40       000260400K 10000000010000002665           
CUS0473950000104129946002         DAUGHERTY MATTHEW   820 STONELEIGH RD                       000N        CARE OF             
MTR04739500001000000000000000RA              36693809    005801750000017500000520000003NN  NNW 000                       N    
RDG04739500WATRL000000004K00000000000003032014610152015092105N000000000000N40       000680400K 10000000010000003015           
CUS0473950000104129947000         CERVENY ERVIN J     818 STONELEIGH RD                       000N        CARE OF             
MTR04739500001000000000000000RA              36693808    005801760000017600000520000003NN  NNW 000                       N    
RDG04739500WATRL000000004K00000000000003367014710152015092139N000000000000N40       000340400K 10000000010000003348           
CUS0473950000104129948008         SWETT JEFFREY TELLER815 CHULMLEIGH RD                       000N        CARE OF             
MTR04739500001000000000000000RA              00126976    005801770000017700000570000003NN  NNW 000                       N    
RDG04739500WATRL000000004K00000000000001631016710152015093643N000000000000N40       000800400K 10000000010000001603           
CUS0473950000104129949006         ALEXANDER D LUSKIN  814 STONELEIGH RD                       000N        CARE OF             
MTR04739500001000000000000000RA              23050593    005801780000017800000520000003NN  NNW 000                       N    
RDG04739500WATRL000000004K00000000000003786016810152015093719N000000000000N40       000360400K 10000000010000003773           
CUS0473950000104129950004         KELLY MIKE          812 STONELEIGH RD                       000N        CARE OF             
MTR04739500001000000000000000RA              39289471    005801790000017900000520000003NN  NNW 000                       N    
RDG04739500WATRL000000004K00000000000004448016910152015093752N000000000000N40       000330400K 10000000010000004421           
CUS0473950000104129951002         TYRIE JOHN R        810 STONELEIGH RD                       000N        CARE OF             
MTR04739500001000000000000000RA              52769659    005801800000018000000520000003NN  NNW 000                       N    
RDG04739500WATRL000000004K00000000000001793017010152015093844N000000000000N40       000520400K 10000000010000001755           
CUS0473950000104129952000         GILL IRMA J         808 STONELEIGH RD                       000N        CARE OF             
MTR04739500001000000000000000RA              35104191    005801810000018100000520000003NN  NNW 000                       N    
RDG04739500WATRL000000004K00000000000003276017110152015094049N000000000000N40       001250400K 10000000010000003258           
CUS0473950000104129953008         SMITH JANET MARIE   806 STONELEIGH RD                       000N        CARE OF             
MTR04739500001000000000000000RA              48583924    005801820000018200000520000003NN  NNW 000                       N    
RDG04739500WATRL000000004K00000000000002283017210152015094119N000000000000N40       000300400K 10000000010000002269           
CUS0473950000104129954006         SWEET KATHLEEN      804 STONELEIGH RD                       000N        CARE OF             
MTR04739500001000000000000000RA              9684014     005801830000018300000570000003NN  NNW 000                       N    
RDG04739500WATRL000000004K00000000000006914017310152015094159N000000000000N40       000400400K 10000000010000006892           
CUS0473950000104129955003         HAMMER SETH         802 STONELEIGH RD                       000N        CARE OF             
MTR04739500001000000000000000RA              41588678    005801840000018400000520000003NN  NNW 000                       N    
RDG04739500WATRL000000004K00000000000003461017410152015094238N000000000000N40       000390400K 10000000010000003438           
CUS0473950000104129956001         MOLD DAVID E        800 STONELEIGH RD                       000N        CARE OF             
MTR04739500001000000000000000RA              23050589    005801850000018500000520000003NN  NNW 000                       N    
RDG04739500WATRL000000004K00000000000004705017510152015094328N000000000000N40       000500400K 10000000010000004674           
CUS0473950000104129957009         CERVENY ERVIN J     7003 WARDMAN RD                         000N        CARE OF             
MTR04739500001000000000000000RA              40047527    005801860000018600000520000003NN  NNW 000                       N    
RDG04739500WATRL000000004K00000000000002712015910152015093101N000000000010N40       001260400K 10000000010000002590           
CUS0473950000104129958007         MERWIN JEFFREY      7005 WARDMAN RD                         000N        CARE OF             
MTR04739500001000000000000000RA              40321785    005801870000018700000520000003NN  NNW 000                       N    
RDG04739500WATRL000000004K00000000000002045016010152015093134N000000000000N40       000330400K 10000000010000002030           
CUS0473950000104129959005         BODIAN BRENDA J     803 CHUMLEIGH RD                        000N        CARE OF             
MTR04739500001000000000000000RA              23050596    005801880000018800000520000003NN  NNW 000                       N    
RDG04739500WATRL000000004K00000000000005641016110152015093217N000000000000N40       000430400K 10000000010000005594           
CUS0473950000104129960003         FIELD BRUCE B       805 CHUMLEIGH RD                        000N        CARE OF             
MTR04739500001000000000000000RA              29404212    005801890000018900000520000003NN  NNW 000                       N    
RDG04739500WATRL000000004K00000000000004280016210152015093252N000000000000N40       000350400K 10000000010000004271           
CUS0473950000104129961001         HEATHER A SAFTEIA   807 CHUMLEIGH RD                        000N        CARE OF             
MTR04739500001000000000000000RA              29686166    005801900000019000000520000003NN  NNW 000                       N    
RDG04739500WATRL000000004K00000000000002558016310152015093322N000000000000N40       000300400K 10000000010000002544           
CUS0473950000104129962009         SLADE ERIC          809 CHUMLEIGH RD                        000N        CARE OF             
MTR04739500001000000000000000RA              01078874    005801910000019100000610000003NN  NNW 000                       N    
RDG04739500WATRL000000004K00000000000002253016410152015093403N000000000000N40       000410400K 10000000010000002236           
CUS0473950000104129963007         MATHIAS WILLIAM T   811 CHUMLEIGH RD                        000N        CARE OF             
MTR04739500001000000000000000RA              24227199    005801920000019200000520000003NN  NNW 000                       N    
RDG04739500WATRL000000004K00000000000006974016510152015093447N000000000000N40       000440400K 10000000010000006939           
CUS0473950000104129964005         PFLAUM MILTON J     813 CHUMLEIGH RD                        000N        CARE OF             
MTR04739500001000000000000000RA              48582365    005801930000019300000520000003NN  NNW 000                       N    
RDG04739500WATRL000000004K00000000000002936016610152015093523N000000000000N40       000360400K 10000000010000002899           
CUS0473950000104129965002         SWIFT ERIK J        816 CHUMLEIGH RD                        000N        CARE OF             
MTR04739500001000000000000000RA              48583362    005801940000019400000520000003NN  NNW 000                       N    
RDG04739500WATRL000000004K00000000000002150014810152015092300N000000000000N40       000810400K 10000000010000002104           
CUS0473950000104129966000         DONNENBERG BERNADETT814 CHUMLEIGH RD                        000N        CARE OF             
MTR04739500001000000000000000RA              01079696    005801950000019500000610000003NN  NNW 000                       N    
RDG04739500WATRL000000004K00000000000001492014910152015092326N000400000010N40       000260400K 10000000010000001479           
CUS0473950000104129967008         MCGUIRE WALTER F JR 812 CHUMLEIGH RD                        000N        CARE OF             
MTR04739500001000000000000000RA              99286087    005801960000019600000570000003NN  NNW 000                       N    
RDG04739500WATRL000000004K00000000000000721015010152015092402N000000000000N40       000360400K 10000000010000000686           
CUS0473950000104129968006         BOSLEY RHODY A      810 CHUMLEIGH RD                        000N        CARE OF             
MTR04739500001000000000000000RA              54351118    005801970000019700000520000003NN  NNW 000                       N    
RDG04739500WATRL000000004K00000000000001060015110152015092430N000000000000N40       000280400K 10000000010000001046           
CUS0473950000104129969004         BRIAN T. GRIGG      808 CHUMLEIGH RD                        000N        CARE OF             
MTR04739500001000000000000000RA              30515682    005801980000019800000520000003NN  NNW 000                       N    
RDG04739500WATRL000000004K00000000000004453015210152015092509N000000000000N40       000390400K 10000000010000004443           
CUS0473950000104129970002         MARX BRIAN L        806 CHUMLEIGH RD                        000N        CARE OF             
MTR04739500001000000000000000RA              14917641    005801990000019900000310000003NN  NNW 000                       N    
RDG04739500WATRL000000004K00000000000001120015310152015092552N000000000000N40       000430400K 10000000010000001089           
CUS0473950000104129971000         KEVIN S GRODNITZKY  804 CHUMLEIGH RD                        000N        CARE OF             
MTR04739500001000000000000000RA              76345719    005802000000020000000350000003NN  NNW 000                       N    
RDG04739500WATRL000000004K00000000000000098015410152015092626N000000000000N40       000340400K 10000000010000000082           
CUS0473950000104129972008         COLVIN PERRY L,JR   802 CHUMLEIGH RD                        000N        CARE OF             
MTR04739500001000000000000000RA              27214086    005802010000020100000520000003NN  NNW 000                       N    
RDG04739500WATRL000000004K00000000000005451015510152015092654N000000000000N40       000280400K 10000000010000005421           
CUS0473950000104129973006         KIMBALL MATTHEW L   800 CHUMLEIGH RD                        000N        CARE OF             
MTR04739500001000000000000000RA              00126855    005802020000020200000570000003NN  NNW 000                       N    
RDG04739500WATRL000000004K00000000000001430015610152015092750N000000000000N40       000560400K 10000000010000001414           
CUS0473950000104129974004         SANCHEZ JOSEPH F    7103 WARDMAN RD                         000N        CARE OF             
MTR04739500001000000000000000RA              40321790    005802030000020300000520000003NN  NNW 000                       N    
RDG04739500WATRL000000004K00000000000001615015710152015092834N000000000000N40       000440400K 10000000010000001591           
CUS0473950000104129975001         LEVY STEPHEN L      7105 WARDMAN RD                         000N        CARE OF             
MTR04739500001000000000000000RA              41088180    005802040000020400000520000003NN  NNW 000                       N    
RDG04739500WATRL000000004K00000000000002433015810152015092855N000000000000N40       000210400K 10000000010000002399           
CUS0473950000104129976009         BURKHARDT JOHN K    7113 WARDMAN RD                         000N        CARE OF             
MTR04739500001000000000000000RA              48587497    005802050000020500000520000003NN  NNW 000                       N    
RDG04739500WATRL000000004K00000000000002570010310152015085048N000000000000N40       000240400K 10000000010000002544           
CUS0473950000104129977007         RYAN HIGGINS        7115 WARDMAN RD                         000N        CARE OF             
MTR04739500001000000000000000RA              23050141    005802060000020600000520000003NN  NNW 000                       N    
RDG04739500WATRL000000004K00000000000004295010210152015085024N000000000000N40       000340400K 10000000010000004288           
CUS0473950000104129978005         CLIFTON RYAN C      7117 WARDMAN RD                         000N        CARE OF             
MTR04739500001000000000000000RA              23050592    005802070000020700000520000003NN  NNW 000                       N    
RDG04739500WATRL000000004K00000000000002760010110152015084950N000000000000N40       000540400K 10000000010000002744           
RTR04739500NN02070207000002070000000002070207000139NY020702070207000100010000000000000000000001    10132015NY020000 N         
RHD04752500NN02820282000002820000000002820282000089NY028202820282000000000000000000000000000001    10132015NY020000 N         
CUS0475250000104134679002         CAREY SAMUEL W      8468 LOCH RAVEN BLVD                    000N        CARE OF             
MTR04752500001000000000000000RA              24766301    005800010000000100000520000003NN  NNW 000                       N    
RDG04752500WATRL000000004K00000000000004877000110152015075038N000000000000N40       000000400K 10000000010000004869           
CUS0475250000104134680000         DIANNA JJ GROSSMAN  8466 LOCH RAVEN BLVD                    000N        CARE OF             
MTR04752500001000000000000000RA              32573859    005800020000000200000520000003NN  NNW 000                       N    
RDG04752500WATRL000000004K00000000000001233000210152015075041N000000000000N40       000030400K 10000000010000001221           
CUS0475250000104134681008         GRIFFIN ROBERT W    8464 LOCH RAVEN BLVD                    000N        CARE OF             
MTR04752500001000000000000000RA              32573814    005800030000000300000520000003NN  NNW 000                       N    
RDG04752500WATRL000000004K00000000000001592000310152015075050N000000000020N40       000090400K 10000000010000001591           
CUS0475250000104134682006         FOX MARGARET M      8462 LOCH RAVEN BLVD                    000N        CARE OF             
MTR04752500001000000000000000RA              32573813    005800040000000400000520000003NN  NNW 000                       N    
RDG04752500WATRL000000004K00000000000001553000410152015075102N000000000000N40       000120400K 10000000010000001545           
CUS0475250000104134683004         MURCIA CLAUDIA      8460 LOCH RAVEN BLVD                    000N        CARE OF             
MTR04752500001000000000000000RA              32573810    005800050000000500000520000003NN  NNW 000                       N    
RDG04752500WATRL000000004K00000000000002188000510152015075104N000000000000N40       000020400K 10000000010000002177           
CUS0475250000104134684002         ROBERTS JOHN C      8458 LOCH RAVEN BLVD                    000N        CARE OF             
MTR04752500001000000000000000RA              27823485    005800060000000600000520000003NN  NNW 000                       N    
RDG04752500WATRL000000004K00000000000003321000610152015075108N000000000000N40       000040400K 10000000010000003312           
CUS0475250000104134685009         OLINDE DAVID C      8456 LOCH RAVEN BLVD                    000N        CARE OF             
MTR04752500001000000000000000RA              33079341    005800070000000700000520000003NN  NNW 000                       N    
RDG04752500WATRL000000004K00000000000001966000710152015075110N000000000000N40       000020400K 10000000010000001955           
CUS0475250000104134686007         WILLIAM RICE JR     1680 THETFORD RD                        000N        CARE OF             
MTR04752500001000000000000000RA              01095851    005800080000000800000610000003NN  NNW 000                       N    
RDG04752500WATRL000000004K00000000000001242000810152015075114N000000000000N40       000040400K 10000000010000001236           
CUS0475250000104134687005         HALL GREGORY C      1678 THETFORD RD                        000N        CARE OF             
MTR04752500001000000000000000RA              50788535    005800090000000900000520000003NN  NNW 000                       N    
RDG04752500WATRL000000004K00000000000000293000910152015075118N000000000000N40       000040400K 10000000010000000283           
CUS0475250000104134688003         GOSTOMSKI ANTHONY V 1676 THETFORD RD                        000N        CARE OF             
MTR04752500001000000000000000RA              10019414    005800100000001000000570000003NN  NNW 000                       N    
RDG04752500WATRL000000004K00000000000000183001010152015075134N000000000040N40       000160400K 10000000010000000182           
CUS0475250000104134689001         METSCH ELLEN JEAN   1674 THETFORD RD                        000N        CARE OF             
MTR04752500001000000000000000RA              14921132    005800110000001100000310000003NN  NNW 000                       N    
RDG04752500WATRL000000004K00000000000000436001110152015075142N000000000000N40       000080400K 10000000010000000425           
CUS0475250000104134690009         CHATHAM MICHELE L   1672 THETFORD RD                        000N        CARE OF             
MTR04752500001000000000000000RA              99290489    005800120000001200000570000003NN  NNW 000                       N    
RDG04752500WATRL000000004K00000000000000453001210152015075147N000000000000N40       000050400K 10000000010000000444           
CUS0475250000104134691007         ZEARFOSS GEOFFREY W 1670 THETFORD RD                        000N        CARE OF             
MTR04752500001000000000000000RA              45376927    005800130000001300000520000003NN  NNW 000                       N    
RDG04752500WATRL000000004K00000000000001653001310152015075155N000000000000N40       000080400K 10000000010000001641           
CUS0475250000104134692005         FLETCHER BRYAN K    1668 THETFORD RD                        000N        CARE OF             
MTR04752500001000000000000000RA              14920010    005800140000001400000310000003NN  NNW 000                       N    
RDG04752500WATRL000000004K00000000000000736001410152015075201N000000000000N40       000060400K 10000000010000000725           
CUS0475250000104134693003         FINK JOHN L         1666 THETFORD RD                        000N        CARE OF             
MTR04752500001000000000000000RA              00137387    005800150000001500000570000003NN  NNW 000                       N    
RDG04752500WATRL000000004K00000000000001221001510152015075229N000000000000N40       000280400K 10000000010000001210           
CUS0475250000104134694001         HODNETT BARBARA H   1664 THETFORD RD                        000N        CARE OF             
MTR04752500001000000000000000RA              10023537    005800160000001600000570000003NN  NNW 000                       N    
RDG04752500WATRL000000004K00000000000000044001610152015075244N000000000000N40       000150400K 10000000010000000032           
CUS0475250000104134695008         CAGGIANO MARSHALL L 1662 THETFORD RD                        000N        CARE OF             
MTR04752500001000000000000000RA              10023538    005800170000001700000570000003NN  NNW 000                       N    
RDG04752500WATRL000000004K00000000000000253001710152015075252N000000000000N40       000080400K 10000000010000000239           
CUS0475250000104134696006         POWERS SUSAN C      1660 THETFORD RD                        000N        CARE OF             
MTR04752500001000000000000000RA              32573753    005800180000001800000520000003NN  NNW 000                       N    
RDG04752500WATRL000000004K00000000000002339001810152015075256N000000000000N40       000040400K 10000000010000002329           
CUS0475250000104134697004         DAVIS SUSAN HELENE  1658 THETFORD RD                        000N        CARE OF             
MTR04752500001000000000000000RA              99286751    005800190000001900000570000003NN  NNW 000                       N    
RDG04752500WATRL000000004K00000000000000986001910152015075300N000000000000N40       000040400K 10000000010000000975           
CUS0475250000104134698002         BOEHK KARL E        1656 THETFORD RD                        000N        CARE OF             
MTR04752500001000000000000000RA              32573751    005800200000002000000520000003NN  NNW 000                       N    
RDG04752500WATRL000000004K00000000000001877002010152015075303N000000000000N40       000030400K 10000000010000001866           
CUS0475250000104134699000         STOUT JACK N        1654 THETFORD RD                        000N        CARE OF             
MTR04752500001000000000000000RA              29685928    005800210000002100000520000003NN  NNW 000                       N    
RDG04752500WATRL000000004K00000000000002889002110152015075316N000000000000N40       000130400K 10000000010000002881           
CUS0475250000104134700006         ADOLFO M RODRIGUEZ  1652 THETFORD RD                        000N        CARE OF             
MTR04752500001000000000000000RA              29685925    005800220000002200000520000003NN  NNW 000                       N    
RDG04752500WATRL000000004K00000000000002375002210152015075326N000000000020N40       000100400K 10000000010000002359           
CUS0475250000104134701004         MCLANE STEPHANIE L  1650 THETFORD RD                        000N        CARE OF             
MTR04752500001000000000000000RA              78022467    005800230000002300000350000003NN  NNW 000                       N    
RDG04752500WATRL000000004K00000000000000055002310152015075328N000000000000N40       000020400K 10000000010000000044           
CUS0475250000104134702002         GILLISS ROBINS L    1648 THETFORD RD                        000N        CARE OF             
MTR04752500001000000000000000RA              32573668    005800240000002400000520000003NN  NNW 000                       N    
RDG04752500WATRL000000004K00000000000002459002410152015075521N000000000000N40       001130400K 10000000010000002444           
CUS0475250000104134703000         PATRICK R. MALLOY   1646 THETFORD RD                        000N        CARE OF             
MTR04752500001000000000000000RA              26017064    005800250000002500000520000003NN  NNW 000                       N    
RDG04752500WATRL000000004K00000000000002306002510152015075525N000000000000N40       000040400K 10000000010000002296           
CUS0475250000104134704008         BOWDEN MARY J       1644 THETFORD RD                        000N        CARE OF             
MTR04752500001000000000000000RA              45384121    005800260000002600000520000003NN  NNW 000                       N    
RDG04752500WATRL000000004K00000000000001110002610152015075528N000000000000N40       000030400K 10000000010000001100           
CUS0475250000104134705005         CROWL ADAM J        1642 THETFORD RD                        000N        CARE OF             
MTR04752500001000000000000000RA              00128242    005800270000002700000570000003NN  NNW 000                       N    
RDG04752500WATRL000000004K00000000000001020002710152015075540N000000000000N40       000120400K 10000000010000001006           
CUS0475250000104134706003         THOMAS MARK A       1640 THETFORD RD                        000N        CARE OF             
MTR04752500001000000000000000RA              32573667    005800280000002800000520000003NN  NNW 000                       N    
RDG04752500WATRL000000004K00000000000003003002810152015075700N000000000021N40       000530400K 10000000010000002989           
CUS0475250000104134707001         MCMANUS WILSON P,TRU1638 THETFORD RD                        000N        CARE OF             
MTR04752500001000000000000000RA              10021351    005800290000002900000570000003NN  NNW 000                       N    
RDG04752500WATRL000000004K00000000000000188002910152015075703N000000000000N40       000030400K 10000000010000000177           
CUS0475250000104134708009         SIMONS DAVID W      1636 THETFORD RD                        000N        CARE OF             
MTR04752500001000000000000000RA              76347551    005800300000003000000350000003NN  NNW 000                       N    
RDG04752500WATRL000000004K00000000000000041003010152015075705N000000000000N40       000020400K 10000000010000000032           
CUS0475250000104134709007         GAN JUAN G          1634 THETFORD RD                        000N        CARE OF             
MTR04752500001000000000000000RA              00131287    005800310000003100000570000003NN  NNW 000                       N    
RDG04752500WATRL000000004K00000000000000772003110152015075709N000000000000N40       000040400K 10000000010000000763           
CUS0475250000104134710005         MANOKIAN MANNIK N   1632 THETFORD RD                        000N        CARE OF             
MTR04752500001000000000000000RA              00131285    005800320000003200000570000003NN  NNW 000                       N    
RDG04752500WATRL000000004K00000000000000736003210152015075713N000000000000N40       000040400K 10000000010000000723           
CUS0475250000104134711003         WITTELSBERGER ERIC J1630 THETFORD RD                        000N        CARE OF             
MTR04752500001000000000000000RA              00131288    005800330000003300000570000003NN  NNW 000                       N    
RDG04752500WATRL000000004K00000000000000463003310152015075716N000000000000N40       000030400K 10000000010000000453           
CUS0475250000104134712001         SADOWSKI CHARLES H  1628 THETFORD RD                        000N        CARE OF             
MTR04752500001000000000000000RA              52288860    005800340000003400000520000003NN  NNW 000                       N    
RDG04752500WATRL000000004K00000000000000758003410152015075719N000000000000N40       000030400K 10000000010000000747           
CUS0475250000104134713009         KNAUSS LINDSEY MARIE1626 THETFORD RD                        000N        CARE OF             
MTR04752500001000000000000000RA              00136444    005800350000003500000570000003NN  NNW 000                       N    
RDG04752500WATRL000000004K00000000000000944003510152015075721N000000000000N40       000020400K 10000000010000000936           
CUS0475250000104134714007         HENDERSON HEATHER   1624 THETFORD RD                        000N        CARE OF             
MTR04752500001000000000000000RA              99188145    005800360000003600000570000003NN  NNW 000                       N    
RDG04752500WATRL000000004K00000000000000877003610152015075725N000000000000N40       000040400K 10000000010000000869           
CUS0475250000104134715004         BRIAN T. TRAUGOTT   1622 THETFORD RD                        000N        CARE OF             
MTR04752500001000000000000000RA              01077633    005800370000003700000610000003NN  NNW 000                       N    
RDG04752500WATRL000000004K00000000000001053003710152015075728N000000000000N40       000030400K 10000000010000001041           
CUS0475250000104134716002         HITCHCOCK KAREN J   1620 THETFORD RD                        000N        CARE OF             
MTR04752500001000000000000000RA              33077148    005800380000003800000520000003NN  NNW 000                       N    
RDG04752500WATRL000000004K00000000000002353003810152015075753N000000000000N40       000250400K 10000000010000002342           
CUS0475250000104134717000         PUTHUR RAGI         1618 THETFORD RD                        000N        CARE OF             
MTR04752500001000000000000000RA              32573858    005800390000003900000520000003NN  NNW 000                       N    
RDG04752500WATRL000000004K00000000000002712003910152015075809N000000000000N40       000160400K 10000000010000002705           
CUS0475250000104134718008         WILSON KAREN        1616 THETFORD RD                        000N        CARE OF             
MTR04752500001000000000000000RA              76349283    005800400000004000000350000003NN  NNW 000                       N    
RDG04752500WATRL000000004K00000000000000186004010152015075813N000000000000N40       000040400K 10000000010000000173           
CUS0475250000104134719006         BRIGGS MATTHEW D    1614 THETFORD RD                        000N        CARE OF             
MTR04752500001000000000000000RA              01115031    005800410000004100000610000003NN  NNW 000                       N    
RDG04752500WATRL000000004K00000000000000788004110152015075816N000000000000N40       000030400K 10000000010000000777           
CUS0475250000104134720004         STOUGH SABRINA      1612 THETFORD RD                        000N        CARE OF             
MTR04752500001000000000000000RA              77891991    005800420000004200000360000003NN  NNW 000                       N    
RDG04752500WATRL000000004K00000000000000041004210152015075831N000000000040N40       000150400K 10000000010000000017           
CUS0475250000104134721002         STOUGH SABRINA      1610 THETFORD RD                        000N        CARE OF             
MTR04752500001000000000000000RA              77892109    005800430000004300000360000003NN  NNW 000                       N    
RDG04752500WATRL000000004K00000000000000052004310152015075852N000000000030N40       000210400K 10000000010000000029           
CUS0475250000104134722000         DERENBERGER JAMES J 1608 THETFORD RD                        000N        CARE OF             
MTR04752500001000000000000000RA              75615465    005800440000004400000350000003NN  NNW 000                       N    
RDG04752500WATRL000000004K00000000000000121004410152015075857N000000000000N40       000050400K 10000000010000000102           
CUS0475250000104134723008         ROZANKOWSKI LEON J  1606 THETFORD RD                        000N        CARE OF             
MTR04752500001000000000000000RA              76347710    005800450000004500000350000003NN  NNW 000                       N    
RDG04752500WATRL000000004K00000000000000058004510152015075931N000000000000N40       000340400K 10000000010000000049           
CUS0475250000104134724006         BERGER PROPERTIES MA1604 THETFORD RD                        000N        CARE OF             
MTR04752500001000000000000000RA              14915527    005800460000004600000310000003NN  NNW 000                       N    
RDG04752500WATRL000000004K00000000000000477004610152015075934N000000000000N40       000030400K 10000000010000000466           
CUS0475250000104134725003         LINCOLN LYNN R      1602 THETFORD RD                        000N        CARE OF             
MTR04752500001000000000000000RA              14915529    005800470000004700000310000003NN  NNW 000                       N    
RDG04752500WATRL000000004K00000000000000673004710152015080014N000000000000N40       000400400K 10000000010000000663           
CUS0475250000104134726001         OLIVER YVETTE E     1600 THETFORD RD                        000N        CARE OF             
MTR04752500001000000000000000RA              14915614    005800480000004800000310000003NN  NNW 000                       N    
RDG04752500WATRL000000004K00000000000000663004810152015080028N000000000000N40       000140400K 10000000010000000652           
CUS0475250000104134727009         CHARLES H WATSON    1601 THETFORD RD                        000N        CARE OF             
MTR04752500001000000000000000RA              32573811    005800490000004900000520000003NN  NNW 000                       N    
RDG04752500WATRL000000004K00000000000002258004910152015080034N000000000000N40       000060400K 10000000010000002249           
CUS0475250000104134728007         STOUT JACK          1603 THETFORD RD                        000N        CARE OF             
MTR04752500001000000000000000RA              32573863    005800500000005000000520000003NN  NNW 000                       N    
RDG04752500WATRL000000004K00000000000004110005010152015080038N000000000000N40       000040400K 10000000010000004100           
CUS0475250000104134729005         ZIOLKOWSKI ANDREW   1605 THETFORD RD                        000N        CARE OF             
MTR04752500001000000000000000RA              26013119    005800510000005100000520000003NN  NNW 000                       N    
RDG04752500WATRL000000004K00000000000003366005110152015080048N000000000000N40       000100400K 10000000010000003355           
CUS0475250000104134730003         LEIBOVITCH JACK I   1607 THETFORD RD                        000N        CARE OF             
MTR04752500001000000000000000RA              35117202    005800520000005200000520000003NN  NNW 000                       N    
