FHDNNNN034007406007406007406N                                                                                           028113
RHD02637100NN07260726000007260000000007260726001149NY072607260726000401110000000000000000000001    10062015NY020000 N         
CUS0263710000102047124009         GOLDMAN SOL         600 REISTERSTOWN RD                     000N        CARE OF             
MTR02637100001000000000000000RA              99410300    000100010010000100100570000003NN  NNW 000                       N    
RDG02637100WATRL000000004K00000000000001360004110142015093755N000000000000N40       000610400K 10000000010000001256           
CUS0263710000102047125006         LIMAWARARUT WEERASAK606 MAIN ST                             000N        CARE OF             
MTR02637100001000000000000000RA              39583287    005800020000000200000520000003NN  NNW 000                       N    
RDG02637100WATRL000000004K00000000000003196004010142015093654N000000000000N40       000350400K 10000000010000003192           
CUS0263710000102395223007         LOCH ASSOCIATES, LLC616 REISTERSTOWN RD                     000N        CARE OF             
MTR02637100001000000000000000RA              78027719    007500030000000300000360000003NN  NNW 000                       N    
RDG02637100WATRL000000004K00000000000000075003910142015093619N000400000010N40       000790400K 10000000010000000071           
CUS0263710000102047127002         MARBLE LLC          620 MAIN ST                             000N        CARE OF             
MTR02637100001000000000000000RA              01103975    005800040000000400000610000003NN  NNW 000                       N    
RDG02637100WATRL000000004K00000000000001033003810142015093500N000000000000N40       000820400K 10000000010000001015           
CUS0263710000102433455009         SAMIE KAMINA        624 MAIN ST                             000N        CARE OF             
MTR02637100001000000000000000RA              00066853    001500050000000500000570000000NN  NNW 000                       N    
RDG02637100WATRL000000005K00000000000002797003710142015093338N000400000010N40       000430500K 10000000010000002796           
CUS0263710000102047129008         APPLIED SYSTEMS PROP630 REISTERSTOWN RD                     000N        CARE OF             
MTR02637100001000000000000000RA              48583931    005800060000000600000520000003NN  NNW 000                       N    
RDG02637100WATRL000000004K00000000000001572003610142015093255N000000000000N40       000600400K 10000000010000001439           
CUS0263710000102047130006         JAMES STEPHEN P     634 REISTERSTOWN RD                     000N        CARE OF             
MTR02637100001000000000000000RA              26796125    007500070000000700000520000003NN  NNW 000                       N    
RDG02637100WATRL000000004K00000000000004330003510142015093155N000000000000N40       000780400K 10000000010000004324           
CUS0263710000102047131004         FERRA PETER J       638 MAIN ST                             000N        CARE OF             
MTR02637100001000000000000000RA              00135239    005800080000000800000570000003NN  NNW 000                       N    
RDG02637100WATRL000000004K00000000000000895003210142015092938N000000000000N40       000560400K 10000000010000000887           
CUS0263710000102047132002         JAMES STEPHEN P     642 REISTERSTOWN RD                     000N        CARE OF             
MTR02637100001000000000000000RA              00136161    005800090000000900000570000003NN  NNW 000                       N    
RDG02637100WATRL000000004K00000000000000225003110142015092842N000000000000N40       000820400K 10000000010000000224           
CUS0263710000102047133000         BOSLEY RHODY A,TRUST11 WALSTAN AVE                          000N        CARE OF             
MTR02637100001000000000000000RA              27827031    005800100000001000000520000003NN  NNW 000                       N    
RDG02637100WATRL000000004K00000000000004262003310142015093016N000000000000N40       000380400K 10000000010000004248           
CUS0263710000102047134008         BOSLEY RHODY A,TRUST700 MAIN ST                             000N        CARE OF             
MTR02637100001000000000000000RA              24223763    005800110000001100000520000003NN  NNW 000                       N    
RDG02637100WATRL000000004K00000000000007409003410142015093037N000000000000N40       000210400K 10000000010000007393           
CUS0263710000102047135005         RHODY A BOSLEY/TRUST702 MAIN ST                             000N        CARE OF             
MTR02637100001000000000000000RA              46880511    005800120000001200000520000003NN  NNW 000                       N    
RDG02637100WATRL000000004K00000000000000758003010142015092720N000000000000N40       000210400K 10000000010000000748           
CUS0263710000102047136003         MAIN STREET GROUP LL706 REISTERSTOWN RD                     000N        CARE OF             
MTR02637100001000000000000000RA              23648905    005800130000001300000520000003NN  NNW 000   VACANT / LOT        N    
RDG02637100WATRL000000004K00000000000005768002910142015092659N000000000000N40       001210400K 10000000010000005768           
CUS0263710000102047137001         MAIN STREET GROUP LL708 MAIN ST                             000N        CARE OF             
MTR02637100001000000000000000RA              99999999    005800140000001400000620000003NN  NNW 000   VACANT / LOT        N    
RDG02637100WATRL000000004K00000000000000000002810142015092458S022000000000N40       000120400K 10000000010000001525           
CUS0263710000102047138009         EZRINE, MILTON  EZRI720 REISTERSTOWN RD                     000N        CARE OF             
MTR02637100001000000000000000RA              01095293    005800150000001500000610000003NN  NNW 000                       N    
RDG02637100WATRL000000004K00000000000003377002710142015092446N000000000000N40       000750400K 10000000010000003319           
CUS0263710000102047139007         MBRS LLC            726 REISTERSTOWN RD                     000N        CARE OF             
MTR02637100001000000000000000RA              00136163    005800160000001600000570000003NN  NNW 000   VACANT / LOT        N    
RDG02637100WATRL000000004K00000000000000031002610142015092331N000000000000N40       000440400K 10000000010000000031           
CUS0263710000102047140005         MBRS LLC            728 REISTERSTOWN RD                     000N        CARE OF             
MTR02637100001000000000000000RA              4618913     005800170000001700000320000003NY  NNW 000                       N    
MTM026371004618913     VACANT LOT                                                                                             
RDG02637100WATRL000000004K00000000000000000004210142015093928S022000000000N40       000930400K 10000000010000000107           
CUS0263710000102420351005         ROBINSON MICHAEL W  12 BOSLEY LN                            000N        CARE OF             
MTR02637100001000000000000000RA              50476195    005800180000001800000520000000NN  NNW 000                       N    
RDG02637100WATRL000000004K00000000000002648004510142015094226N000000000000N40       000520400K 10000000010000002522           
CUS0263710000102047141003         DAY BY DAY ENTERPRIS14 BOSLEY LN                            000N        CARE OF             
MTR02637100001000000000000000RA              26001236    005800190000001900000520000003NN  NNW 000                       N    
RDG02637100WATRL000000004K00000000000003555004410142015094134N000000000000N40       000280400K 10000000010000003528           
CUS0263710000102420352003         SMITH TROY D        16 BOSLEY LN                            000N        CARE OF             
MTR02637100001000000000000000RA              50476155    005800200000002000000520000000NN  NNW 000                       N    
RDG02637100WATRL000000004K00000000000002848004610142015094328N000300000010N40       000620400K 10000000010000002760           
CUS0263710000102348572005         DOBRY GILLIAN       18 BOSLEY LN                            000N        CARE OF             
MTR02637100001000000000000000RA              27816238    005800210000002100000520000003NN  NNW 000                       N    
RDG02637100WATRL000000004K00000000000005236004710142015094420N000000000000N40       000520400K 10000000010000005214           
CUS0263710000102382057004         ROCKWOOD BRENDA J   26 BOSLEY LN                            000N        CARE OF             
MTR02637100001000000000000000RA              33734514    005800220000002200000520000003NN  NNW 000                       N    
RDG02637100WATRL000000004K00000000000003636004810142015094515N000000000000N40       000550400K 10000000010000003602           
CUS0263710000102047142001         SOLBODYAN NICK      30 BOSLEY LN                            000N        CARE OF             
MTR02637100001000000000000000RA              00136215    005800230000002300000570000003NN  NNW 000                       N    
RDG02637100WATRL000000004K00000000000001752005210142015094925N000000000000N40       000750400K 10000000010000001739           
CUS0263710000102047143009         KLINEFELTER DENNIS L34 BOSLEY LN                            000N        CARE OF             
MTR02637100001000000000000000RA              48586146    005800240000002400000520000003NN  NNW 000                       N    
RDG02637100WATRL000000004K00000000000002852005010142015094713N000000000000N40       000840400K 10000000010000002816           
CUS0263710000102047144007         BOEHM MARY ANN      31 BOSLEY LN                            000N        CARE OF             
MTR02637100001000000000000000RA              26002823    005800250000002500000520000003NN  NNW 000                       N    
RDG02637100WATRL000000004K00000000000002964005110142015094810N000003200000N40       000570400K 10000000010000002950           
CUS0263710000102415340005         WHITE ROBERT L      25 BOSLEY LN                            000N        CARE OF             
MTR02637100001000000000000000RA              46887143    005800260000002600000520000003NN  NNW 000                       N    
RDG02637100WATRL000000004K00000000000002564004910142015094549N000000000000N40       000340400K 10000000010000002532           
CUS0263710000102047145004         15 BOSLEY, LLC      15 BOSLEY LN                            000N        CARE OF             
MTR02637100001000000000000000RA              25591934    007500270000002700000520000003NN  NNW 000                       N    
RDG02637100WATRL000000004K00000000000005222004310142015094106N000000000000N40       000980400K 10000000010000005183           
CUS0263710000102047146002         MBRS LLC            730 REISTERSTOWN RD                     000N        CARE OF             
MTR02637100001000000000000000RA              00136166    005800280000002800000570000003NN  NNW 000                       N    
RDG02637100WATRL000000004K00000000000000210002510142015092247N000000000000N40       001060400K 10000000010000000210           
CUS0263710000102376323008         BUTLER RIDGE DEVELOP6 CARAWAY RD                            000N        CARE OF             
MTR02637100001000000000000000RA              32905036    001500290000002900000520000003NN  NNW 000                       N    
RDG02637100WATRL000000005K00000000000042651005310142015095314N000000000000N40       002290500K 10000000010000042326           
CUS0263710000102047149006         LENNARD HARRILAL/CHR12 CARAWAY RD                           000N        CARE OF             
MTR02637100001000000000000000RA              50477555    005800300000003000000520000003NN  NNW 000                       N    
RDG02637100WATRL000000004K00000000000003042005510142015095729N000000000000N40       002090400K 10000000010000002988           
CUS0263710000102047150004         KYLIN ROGER D       14 CARAWAY RD                           000N        CARE OF             
MTR02637100001000000000000000RA              40322268    005800310000003100000520000003NN  NNW 000                       N    
RDG02637100WATRL000000004K00000000000002744005610142015095820N000000000000N40       000510400K 10000000010000002721           
CUS0263710000102047151002         LOVO SANTOS V       16 CARAWAY RD                           000N        CARE OF             
MTR02637100001000000000000000RA              00138490    005800320000003200000570000003NN  NNW 000                       N    
RDG02637100WATRL000000004K00000000000002600005710142015095840N000000000000N40       000200400K 10000000010000002506           
CUS0263710000102047152000         DOOLBAR ROGER       18 CARAWAY RD                           000N        CARE OF             
MTR02637100001000000000000000RA              50477550    005800330000003300000520000003NN  NNW 000                       N    
RDG02637100WATRL000000004K00000000000002416005810142015095913N000000000000N40       000330400K 10000000010000002401           
CUS0263710000102047153008         JAVIER JOEL         20 CARAWAY RD                           000N        CARE OF             
MTR02637100001000000000000000RA              00138546    005800340000003400000570000003NN  NNW 000                       N    
RDG02637100WATRL000000004K00000000000001896005910142015100021N000000000000N40       000680400K 10000000010000001861           
CUS0263710000102047154006         LEWIS HENRY A       22 CARAWAY RD                           000N        CARE OF             
MTR02637100001000000000000000RA              00138494    005800350000003500000570000003NN  NNW 000                       N    
RDG02637100WATRL000000004K00000000000000598006010142015100054N000000000000N40       000330400K 10000000010000000594           
CUS0263710000102047155003         STIEGLER CARL E     24 CARAWAY RD                           000N        CARE OF             
MTR02637100001000000000000000RA              50477557    005800360000003600000520000003NN  NNW 000                       N    
RDG02637100WATRL000000004K00000000000001821006110142015100127N000000000000N40       000330400K 10000000010000001819           
CUS0263710000102047156001         HILDRETH PATRICIA A 26 CARAWAY RD                           000N        CARE OF             
MTR02637100001000000000000000RA              00138493    005800370000003700000570000003NN  NNW 000                       N    
RDG02637100WATRL000000004K00000000000000265006210142015100157N000000000000N40       000300400K 10000000010000000262           
CUS0263710000102047157009         LEVIN PHILLIP C     28 CARAWAY RD                           000N        CARE OF             
MTR02637100001000000000000000RA              01098936    005800380000003800000610000003NN  NNW 000                       N    
RDG02637100WATRL000000004K00000000000002249006310142015100240N000000000000N40       000430400K 10000000010000002207           
CUS0263710000102047158007         CALLAHAN SHARON     30 CARAWAY RD                           000N        CARE OF             
MTR02637100001000000000000000RA              24223623    005800390000003900000520000003NN  NNW 000                       N    
RDG02637100WATRL000000004K00000000000005484006410142015100328N000000000000N40       000480400K 10000000010000005468           
CUS0263710000102047159005         LUCIANO S. MEJIA    32 CARAWAY RD                           000N        CARE OF             
MTR02637100001000000000000000RA              00138548    005800400000004000000570000003NN  NNW 000                       N    
RDG02637100WATRL000000004K00000000000001956006510142015100417N000000000000N40       000490400K 10000000010000001885           
CUS0263710000102047160003         STERN HANS GEORGE   34 CARAWAY RD                           000N        CARE OF             
MTR02637100001000000000000000RA              50477430    005800410000004100000520000003NN  NNW 000                       N    
RDG02637100WATRL000000004K00000000000000889006610142015100452N000000000000N40       000350400K 10000000010000000881           
CUS0263710000102047161001         STEPHEN A SCRIBNER, 36 CARAWAY RD                           000N        CARE OF             
MTR02637100001000000000000000RA              50477428    005800420000004200000520000003NN  NNW 000                       N    
RDG02637100WATRL000000004K00000000000002061006710142015100520N000000000000N40       000280400K 10000000010000002046           
CUS0263710000102047162009         ROBERTS ELIJAH      38 CARAWAY RD                           000N        CARE OF             
MTR02637100001000000000000000RA              50477429    005800430000004300000520000003NN  NNW 000                       N    
RDG02637100WATRL000000004K00000000000001262006810142015100603N000000000000N40       000430400K 10000000010000001252           
CUS0263710000102047163007         RIVENDELL HOMES INC 40 CARAWAY RD                           000N        CARE OF             
MTR02637100001000000000000000RA              50477458    005800440000004400000520000003NN  NNW 000                       N    
RDG02637100WATRL000000004K00000000000003871006910142015100635N000000000000N40       000320400K 10000000010000003843           
CUS0263710000102047164005         IGLESIAS SANTOS     2 SAFFRON CT                            000N        CARE OF             
MTR02637100001000000000000000RA              00130027    005800450000004500000570000003NN  NNW 000                       N    
RDG02637100WATRL000000004K00000000000002713007010142015100730N000000000000N40       000550400K 10000000010000002674           
CUS0263710000102047165002         KAFKA PENNY L       4 SAFFRON CT                            000N        CARE OF             
MTR02637100001000000000000000RA              44173412    005800460000004600000520000003NN  NNW 000                       N    
RDG02637100WATRL000000004K00000000000002502007110142015100820N000000000000N40       000500400K 10000000010000002486           
CUS0263710000102047166000         MONKMAN ELBERT T    6 SAFFRON CT                            000N        CARE OF             
MTR02637100001000000000000000RA              01083987    005800470000004700000610000003NN  NNW 000                       N    
RDG02637100WATRL000000004K00000000000001275007210142015100841N000000000000N40       000210400K 10000000010000001252           
CUS0263710000102047167008         CESSNA MARK         7 SAFFRON CT                            000N        CARE OF             
MTR02637100001000000000000000RA              38984008    005800480000004800000520000003NN  NNW 000                       N    
RDG02637100WATRL000000004K00000000000002501007310142015100910N000000000000N40       000290400K 10000000010000002475           
CUS0263710000102047168006         NOBILE JOHN S       5 SAFFRON CT                            000N        CARE OF             
MTR02637100001000000000000000RA              44177263    005800490000004900000520000003NN  NNW 000                       N    
RDG02637100WATRL000000004K00000000000002218007410142015100951N000000000000N40       000410400K 10000000010000002196           
CUS0263710000102047169004         LONG MARK R         3 SAFFRON CT                            000N        CARE OF             
MTR02637100001000000000000000RA              44087102    005800500000005000000520000003NN  NNW 000                       N    
RDG02637100WATRL000000004K00000000000003807007510142015101009N000000000000N40       000180400K 10000000010000003768           
CUS0263710000102047170002         BLATT MELVIN        1 SAFFRON CT                            000N        CARE OF             
MTR02637100001000000000000000RA              22610259    005800510000005100000520000003NN  NNW 000                       N    
RDG02637100WATRL000000004K00000000000004415007610142015101120N000000000000N40       000710400K 10000000010000004407           
CUS0263710000102047171000         NORTON DOROTHEE     48 CARAWAY RD                           000N        CARE OF             
MTR02637100001000000000000000RA              52770622    005800520000005200000520000003NN  NNW 000                       N    
RDG02637100WATRL000000004K00000000000001798007710142015101208N000000000000N40       000480400K 10000000010000001777           
CUS0263710000102047172008         THOMAS NORMA JANINE 50 CARAWAY RD                           000N        CARE OF             
MTR02637100001000000000000000RA              45374838    005800530000005300000520000003NN  NNW 000                       N    
RDG02637100WATRL000000004K00000000000002101007810142015101238N000000000000N40       000300400K 10000000010000002085           
CUS0263710000102047173006         LEON CARLOS JAVIER  52 CARAWAY RD                           000N        CARE OF             
MTR02637100001000000000000000RA              52770612    005800540000005400000520000003NN  NNW 000                       N    
RDG02637100WATRL000000004K00000000000001235007910142015101310N000000000000N40       000320400K 10000000010000001208           
CUS0263710000102047174004         INTERNATIONAL PLAZA 54 CARAWAY RD                           000N        CARE OF             
MTR02637100001000000000000000RA              00130028    005800550000005500000570000003NN  NNW 000                       N    
RDG02637100WATRL000000004K00000000000001475008010142015101344N000000000000N40       000340400K 10000000010000001449           
CUS0263710000102047175001         OBRYANT ANTHONY T   56 CARAWAY RD                           000N        CARE OF             
MTR02637100001000000000000000RA              00130025    005800560000005600000570000003NN  NNW 000                       N    
RDG02637100WATRL000000004K00000000000002866008110142015101439N000000000000N40       000550400K 10000000010000002817           
CUS0263710000102047176009         VILLAGOMEZ-CAPUZANO 58 CARAWAY RD                           000N        CARE OF             
MTR02637100001000000000000000RA              52285919    005800570000005700000520000003NN  NNW 000                       N    
RDG02637100WATRL000000004K00000000000001574008210142015101535N000000000000N40       000560400K 10000000010000001566           
CUS0263710000102403711001         PROLOGUE INC        12094 TARRAGON RD                       000N        CARE OF             
MTR02637100001000000000000000RA              41087340    005800580000005800000520000003NN  NNW 000                       N    
RDG02637100WATRL000000004K00000000000003514008610142015101900N000000000000N40       000420400K 10000000010000003491           
CUS0263710000102403743004         PROLOGUE INC        12096 TARRAGON RD                       000N        CARE OF             
MTR02637100001000000000000000RA              42810015    005800590000005900000520000003NN  NNW 000                       N    
RDG02637100WATRL000000004K00000000000004686008510142015101818N000000000000N40       000350400K 10000000010000004662           
CUS0263710000102047177007         BARRIENTOS ROSA     12100 TARRAGON RD                       000N        CARE OF             
MTR02637100001000000000000000RA              50476172    005800600000006000000520000003NN  NNW 000                       N    
RDG02637100WATRL000000004K00000000000003264008410142015101743N000400000010N40       000670400K 10000000010000003245           
CUS0263710000102047179003         REFUGIO RAMIREZ     12102 TARRAGON RD                       000N        CARE OF             
MTR02637100001000000000000000RA              00130023    005800610000006100000570000003NN  NNW 000                       N    
RDG02637100WATRL000000004K00000000000002295008310142015101636N000000000000N40       000610400K 10000000010000002244           
CUS0263710000102047180001         AHMED SYED K        61 CARAWAY RD                           000N        CARE OF             
MTR02637100001000000000000000RA              01113374    005800620000006200000610000003NN  NNW 000                       N    
RDG02637100WATRL000000004K00000000000001404008710142015102023N000000000000N40       000830400K 10000000010000001379           
CUS0263710000102047181009         SEIDMAN S ARTHUR    59 CARAWAY RD                           000N        CARE OF             
MTR02637100001000000000000000RA              01113370    005800630000006300000610000003NN  NNW 000                       N    
RDG02637100WATRL000000004K00000000000001023008810142015102116N000000000000N40       000530400K 10000000010000001007           
CUS0263710000102047182007         JULIUS CHE NYAMBI   57 CARAWAY RD                           000N        CARE OF             
MTR02637100001000000000000000RA              99387375    005800640000006400000570000003NN  NNW 000                       N    
RDG02637100WATRL000000004K00000000000000865008910142015102153N000000000000N40       000370400K 10000000010000000767           
CUS0263710000102047183005         DAVE SHAILESH V     55 CARAWAY RD                           000N        CARE OF             
MTR02637100001000000000000000RA              45374836    005800650000006500000520000003NN  NNW 000                       N    
RDG02637100WATRL000000004K00000000000002051009010142015102257N000000000000N40       000640400K 10000000010000002030           
CUS0263710000102047184003         BESMARA REYES       53 CARAWAY RD                           000N        CARE OF             
MTR02637100001000000000000000RA              00130026    005800660000006600000570000003NN  NNW 000                       N    
RDG02637100WATRL000000004K00000000000002033009110142015102325N000000000000N40       000280400K 10000000010000001994           
CUS0263710000102047185000         JENKINS KENNETH G,2N51 CARAWAY RD                           000N        CARE OF             
MTR02637100001000000000000000RA              32903539    005800670000006700000520000003NN  NNW 000                       N    
RDG02637100WATRL000000004K00000000000004535009210142015102414N000000000000N40       000490400K 10000000010000004535           
CUS0263710000102047186008         GELDMACHER JOHN W   49 CARAWAY RD                           000N        CARE OF             
MTR02637100001000000000000000RA              52770624    005800680000006800000520000003NN  NNW 000                       N    
RDG02637100WATRL000000004K00000000000001346009310142015102502N000000000000N40       000480400K 10000000010000001326           
CUS0263710000102047187006         HAFT MARTIN A       47 CARAWAY RD                           000N        CARE OF             
MTR02637100001000000000000000RA              52770620    005800690000006900000520000003NN  NNW 000                       N    
RDG02637100WATRL000000004K00000000000002494009410142015102543N000000000000N40       000410400K 10000000010000002482           
CUS0263710000102047188004         DAY BY DAY ENTERPRIS45 CARAWAY RD                           000N        CARE OF             
MTR02637100001000000000000000RA              50477462    005800700000007000000520000003NN  NNW 000                       N    
RDG02637100WATRL000000004K00000000000001452009510142015102618N000000000000N40       000350400K 10000000010000001431           
CUS0263710000102047189002         MARKS ROBERT C      43 CARAWAY RD                           000N        CARE OF             
MTR02637100001000000000000000RA              10001802    005800710000007100000570000003NN  NNW 000                       N    
RDG02637100WATRL000000004K00000000000000741009610142015102655N000000000000N40       000370400K 10000000010000000709           
CUS0263710000102047190000         STOWE JOSEPH R      41 CARAWAY RD                           000N        CARE OF             
MTR02637100001000000000000000RA              50477463    005800720000007200000520000003NN  NNW 000                       N    
RDG02637100WATRL000000004K00000000000002027009710142015102731N000000000000N40       000360400K 10000000010000002008           
CUS0263710000102047191008         LONG & FOSTER ESTATE39 CARAWAY RD                           000N        CARE OF             
MTR02637100001000000000000000RA              10009984    005800730000007300000570000003NY  NNW 000                       N    
MTM0263710010009984    VACANT                                                                                                 
RDG02637100WATRL000000004K00000000000000688009810142015102757N000100000010N40       000260400K 10000000010000000688           
CUS0263710000102047192006         LIN ZHUANGHONG      37 CARAWAY RD                           000N        CARE OF             
MTR02637100001000000000000000RA              50477436    005800740000007400000520000003NN  NNW 000                       N    
RDG02637100WATRL000000004K00000000000002012009910142015102841N000000000000N40       000440400K 10000000010000001980           
CUS0263710000102047193004         HUKPORTIE PAUL K    35 CARAWAY RD                           000N        CARE OF             
MTR02637100001000000000000000RA              00138491    005800750000007500000570000003NN  NNW 000                       N    
RDG02637100WATRL000000004K00000000000001595010010142015102911N000000000000N40       000300400K 10000000010000001571           
CUS0263710000102047194002         EDICK-SMITH BARBARA 33 CARAWAY RD                           000N        CARE OF             
MTR02637100001000000000000000RA              50477432    005800760000007600000520000003NN  NNW 000                       N    
RDG02637100WATRL000000004K00000000000003420010110142015102942N000000000000N40       000310400K 10000000010000003383           
CUS0263710000102047195009         BOWER THOMAS,JR     31 CARAWAY RD                           000N        CARE OF             
MTR02637100001000000000000000RA              00138492    005800770000007700000570000003NN  NNW 000                       N    
RDG02637100WATRL000000004K00000000000002293010210142015103010N000000000000N40       000280400K 10000000010000002245           
CUS0263710000102047196007         HO YAU-YUEN  HO LAI-29 CARAWAY RD                           000N        CARE OF             
MTR02637100001000000000000000RA              00134095    005800780000007800000570000003NN  NNW 000                       N    
RDG02637100WATRL000000004K00000000000001244010310142015103043N000000000000N40       000330400K 10000000010000001223           
CUS0263710000102047197005         ZELLMER, SAMANTHA   27 CARAWAY RD                           000N        CARE OF             
MTR02637100001000000000000000RA              00138547    005800790000007900000570000003NN  NNW 000                       N    
RDG02637100WATRL000000004K00000000000001347010410142015103114N000000000000N40       000310400K 10000000010000001316           
CUS0263710000102047198003         LEE MELISSA         25 CARAWAY RD                           000N        CARE OF             
MTR02637100001000000000000000RA              00133991    005800800000008000000570000003NN  NNW 000                       N    
RDG02637100WATRL000000004K00000000000002328010510142015103151N000000000000N40       000370400K 10000000010000002300           
CUS0263710000102047199001         AHMAD ZULFIQAR      21 CARAWAY RD                           000N        CARE OF             
MTR02637100001000000000000000RA              00138791    005800810000008100000570000003NN  NNW 000                       N    
RDG02637100WATRL000000004K00000000000001393010610142015103243N000000000000N40       000520400K 10000000010000001372           
CUS0263710000102047200007         CARR PYA LYNN       19 CARAWAY RD                           000N        CARE OF             
MTR02637100001000000000000000RA              00138543    005800820000008200000570000003NN  NNW 000                       N    
RDG02637100WATRL000000004K00000000000001264010710142015103320N000000000000N40       000370400K 10000000010000001241           
CUS0263710000102047201005         NICHOLAS MALONE     17 CARAWAY RD                           000N        CARE OF             
MTR02637100001000000000000000RA              50477552    005800830000008300000520000003NN  NNW 000                       N    
RDG02637100WATRL000000004K00000000000001930010810142015103358N000000000000N40       000380400K 10000000010000001915           
CUS0263710000102047202003         HENRY CHESTER W     15 CARAWAY RD                           000N        CARE OF             
MTR02637100001000000000000000RA              14924746    005800840000008400000310000003NN  NNW 000                       N    
RDG02637100WATRL000000004K00000000000000995010910142015103429N000000000000N40       000310400K 10000000010000000959           
CUS0263710000102047203001         PRESERVE AT OWINGS C1-5 CARAWAY RD                          000N        CARE OF             
MTR02637100001000000000000000RA              35101276    001500850000008500000520000003NN  NNW 000                       N    
RDG02637100WATRL000000005K00000000000073793005410142015095400N000000000000N40       000460500K 10000000010000073333           
CUS0263710000102047205006         GOODYEAR STORE #023111906 REISTERSTOWN RD                   000N        CARE OF             
MTR02637100001000000000000000RA              46881046    005800860000008600000520000003NN  NNW 000                       N    
RDG02637100WATRL000000004K00000000000002106002410142015092101N000000000000N40       000560400K 10000000010000002089           
CUS0263710000102415901004         SOUTHSIDE OIL LLC   11904 REISTERSTOWN RD                   000N        CARE OF             
MTR02637100001000000000000000RA              47377096    000100870000008700000520000003NN  NNW 000                       N    
RDG02637100WATRL000000004K00000000000004741002310142015092005N000000000000N40       000840400K 10000000010000004323           
CUS0263710000108457299009         BEAZER HOMES        601 FRANKLIN BLVD                       000N        CARE OF             
MTR02637100001000000000000000RA              99999999    005800870010008700100440000003NY  NNW 000                       N    
MTM0263710099999999    S22                                                                                                    
RDG02637100WATRL000000004K00000000000000000000000000000000000 000000000000U         000000400  10000000010000000000           
CUS0263710000108389844005         BEAN MARY G (ESTATE)37 FRANKLIN BLVD                        000N        CARE OF             
MTR02637100001000000000000000RA              10004616    005800880000008800000570000003NN  NNW 000                       N    
RDG02637100WATRL000000004K00000000000000129002010142015090408N000000000000N40       001330400K 10000000010000000129           
CUS0263710000108389843007         KLINE ROBERT L      35 FRANKLIN BLVD                        000N        CARE OF             
MTR02637100001000000000000000RA              36692117    005800890000008900000520000003NN  NNW 000                       N    
RDG02637100WATRL000000004K00000000000002490002110142015090415N000000000000N40       000070400K 10000000010000002466           
CUS0263710000102421067006         FRANKLIN AND REISTER10-18 FRANKLIN BLVD                     000N        CARE OF             
MTR02637100001000000000000000RA              50384662    000100900000009000000520000000NN  NNW 000                       N    
RDG02637100WATRL000000004K00000000000005196002210142015091841N000000000000N40       008660400K 10000000010000004386           
CUS0263710000102047206004         CHERRY HILL LLC     15 CHERRY HILL RD                       000N        CARE OF             
MTR02637100001000000000000000RA              20767583    005800910000009100000520000003NY  NNW 000                       N    
MTM0263710020767583    CANT LOCATE                                                                                            
RDG02637100WATRL000000004K00000000000000000000000000000000000 000000000000U         000000400  10000000010000002264           
CUS0263710000102427291006         DAVCO RESTAURANTS, I11818 REISTERSTOWN RD                   000N        CARE OF             
MTR02637100001000000000000000RA              54375006    001500920000009200000520000003NN  NNW 000                       N    
RDG02637100WATRL000000005K00000000000008156001710142015085916N000000000000N40       000810500K 10000000010000008014           
CUS0263710000108456350001         WOODSYDE RIDGE INC  105 W CHERRY HILL RD                    000N        CARE OF             
MTR02637100001000000000000000RA              77893910    007500930000009300000360000003NN  NNW 000                       N    
RDG02637100WATRL000000004K00000000000000027011010162015114221N000000000010U40       001100400K 10000000010000000000           
CUS0263710000108434577006         NICO INVESTMENT COMP107 W CHERRY HILL RD                    000N        CARE OF             
MTR02637100001000000000000000RA              99999999    005800940000009400000620000003NN  NNW 000   FERRULE APPLIED     N    
RDG02637100WATRL000000004K00000000000000000011110162015114227S002000000000U40       000060400K 10000000010000000001           
CUS0263710000108456349003         WOODSYDE RIDGE INC  107 W CHERRY HILL RD                    000N        CARE OF             
MTR02637100001000000000000000RA              99999999    007500950000009500000440000003NN  NNW 000                       N    
RDG02637100WATRL000000004K00000000000000000011210162015114230S002000000000U40       000030400K 10000000010000000000           
CUS0263710000102445203009         IGOR & GALINA GUSMAN109 W CHERRY HILL RD                    000N        CARE OF             
MTR02637100001000000000000000RA              10006004    005800960000009600000570000003NN  NNW 000                       N    
RDG02637100WATRL000000004K00000000000000180011310162015114235N000000000000U40       000050400K 10000000010000000176           
CUS0263710000108446623004         RAFEY SUBHANI       11600 AMARALLES DR                      000N        CARE OF             
MTR02637100001000000000000000RA              74817021    000100970000009700000350000003NN  NNW 000                       N    
RDG02637100WATRL000000004K00000000000000062012010152015131316N000000000000U40       000950400K 10000000010000000047           
CUS0263710000108446624002         ZACHARY S CROFT     11602 AMARALLES DR                      000N        CARE OF             
MTR02637100001000000000000000RA              50000406    000100980000009800000570000003NN  NNW 000                       N    
RDG02637100WATRL000000004K00000000000000150012110152015131329N000000000000U40       000130400K 10000000010000000134           
CUS0263710000108446625009         ALFONZA J DORSEY    11604 AMARALLES DR                      000N        CARE OF             
MTR02637100001000000000000000RA              50000407    000100990000009900000570000003NN  NNW 000                       N    
RDG02637100WATRL000000004K00000000000000106012210152015131331N000000000000U40       000020400K 10000000010000000097           
CUS0263710000108446626007         CHRISTOPHER S TROUTM11606 AMARALLES DR                      000N        CARE OF             
MTR02637100001000000000000000RA              74816997    000101000000010000000350000003NN  NNW 000                       N    
RDG02637100WATRL000000004K00000000000000040012310152015131334N000000000000U40       000030400K 10000000010000000029           
CUS0263710000108446627005         GARRETT I MARSH     11608 AMARALLES DR                      000N        CARE OF             
MTR02637100001000000000000000RA              74816996    000101010000010100000350000003NN  NNW 000                       N    
RDG02637100WATRL000000004K00000000000000105012410152015131337N000000000000U40       000030400K 10000000010000000090           
CUS0263710000108446628003         SHANNA K PINKNEY    11610 AMARALLES DR                      000N        CARE OF             
MTR02637100001000000000000000RA              50000408    000101020000010200000570000003NN  NNW 000                       N    
RDG02637100WATRL000000004K00000000000000146012510152015131339N000000000000U40       000020400K 10000000010000000135           
CUS0263710000108446629001         YELENA KATSNELSON   11614 AMARALLES DR                      000N        CARE OF             
MTR02637100001000000000000000RA              50000352    000101030000010300000570000003NN  NNW 000                       N    
RDG02637100WATRL000000004K00000000000000159012610152015131342N000000000000U40       000030400K 10000000010000000143           
CUS0263710000108446630009         ARTAMOSHYNA YANA    11616 AMARALLES DR                      000N        CARE OF             
MTR02637100001000000000000000RA              50000405    000101040000010400000570000003NN  NNW 000                       N    
RDG02637100WATRL000000004K00000000000000116012710152015131344N000000000000U40       000020400K 10000000010000000104           
CUS0263710000108446631007         BRYAN BOKEY         11618 AMARALLES DR                      000N        CARE OF             
MTR02637100001000000000000000RA              50000350    000101050000010500000570000003NN  NNW 000                       N    
RDG02637100WATRL000000004K00000000000000076012810152015131346N000000000000U40       000020400K 10000000010000000067           
CUS0263710000108446632005         FURR DONALD R JR    11620 AMARALLES DR                      000N        CARE OF             
MTR02637100001000000000000000RA              50000349    000101060000010600000570000003NN  NNW 000                       N    
RDG02637100WATRL000000004K00000000000000140012910152015131349N000000000000U40       000030400K 10000000010000000125           
CUS0263710000108446633003         LAFAYETTE O GOINS   11622 AMARALLES DR                      000N        CARE OF             
MTR02637100001000000000000000RA              50000356    000101070000010700000570000003NN  NNW 000                       N    
RDG02637100WATRL000000004K00000000000000256013010152015131352N000000000000U40       000030400K 10000000010000000219           
CUS0263710000108446634001         TRAVIS D KERR       11624 AMARALLES DR                      000N        CARE OF             
MTR02637100001000000000000000RA              50000355    000101080000010800000570000003NN  NNW 000                       N    
RDG02637100WATRL000000004K00000000000000082013110152015131354N000000000000U40       000020400K 10000000010000000070           
CUS0263710000108446635008         POWERS HOMES CHERRY 11626 AMARALLES DR                      000N        CARE OF             
MTR02637100001000000000000000RA              50000354    000101090000010900000570000003NN  NNW 000                       N    
RDG02637100WATRL000000004K00000000000000308013210152015131356N000000000000U40       000020400K 10000000010000000282           
CUS0263710000108446636006         MONEEKA JENISE ALLEN11628 AMARALLES DR                      000N        CARE OF             
MTR02637100001000000000000000RA              50000353    000101100000011000000570000003NN  NNW 000                       N    
RDG02637100WATRL000000004K00000000000000256009510152015125118N000000000000U40       112230400K 10000000010000000240           
CUS0263710000108446637004         EDWARD C ENNELS     11630 AMARALLES DR                      000N        CARE OF             
MTR02637100001000000000000000RA              50000222    000101110000011100000570000003NN  NNW 000                       N    
RDG02637100WATRL000000004K00000000000000185009610152015125850N000000000000U40       004520400K 10000000010000000176           
CUS0263710000108446638002         SUDHEER R SOMALARAJU11632 AMARALLES DR                      000N        CARE OF             
MTR02637100001000000000000000RA              50000401    000101120000011200000570000003NN  NNW 000                       N    
RDG02637100WATRL000000004K00000000000000158009710152015125852N000000000000U40       000020400K 10000000010000000143           
CUS0263710000108446639000         FELISSA A HALL      11634 AMARALLES DR                      000N        CARE OF             
MTR02637100001000000000000000RA              50000402    000101130000011300000570000003NN  NNW 000                       N    
RDG02637100WATRL000000004K00000000000000182009810152015125856N000000000000U40       000040400K 10000000010000000161           
CUS0263710000108446640008         VARGHESE BABY PUTHEN11636 AMARALLES DR                      000N        CARE OF             
MTR02637100001000000000000000RA              50000403    000101140000011400000570000003NN  NNW 000                       N    
RDG02637100WATRL000000004K00000000000000255009910152015125859N000000000000U40       000030400K 10000000010000000225           
CUS0263710000108446641006         EDNA CLARK          11638 AMARALLES DR                      000N        CARE OF             
MTR02637100001000000000000000RA              99999999    000101150000011500000440000003NN  NNW 000                       N    
RDG02637100WATRL000000004K00000000000000240010010152015125902N000000000000U40       000030400K 10000000010000000231           
CUS0263710000108446642004         JASON D WOOTEN      11640 AMARALLES DR                      000N        CARE OF             
MTR02637100001000000000000000RA              50000040    000101160000011600000570000003NN  NNW 000                       N    
RDG02637100WATRL000000004K00000000000000317010110152015125905N000000000000U40       000030400K 10000000010000000305           
CUS0263710000108446643002         JORDAN S WILKERSON  11642 AMARALLES DR                      000N        CARE OF             
MTR02637100001000000000000000RA              50000039    000101170000011700000570000003NN  NNW 000                       N    
RDG02637100WATRL000000004K00000000000000184010210152015130220N000000000000U40       001950400K 10000000010000000169           
CUS0263710000108446644000         DAMOND THOINGTON    11644 AMARALLES DR                      000N        CARE OF             
MTR02637100001000000000000000RA              50000160    000101180000011800000570000003NN  NNW 000                       N    
RDG02637100WATRL000000004K00000000000000163010310152015130223N000000000000U40       000030400K 10000000010000000154           
CUS0263710000108446645007         STEVEN C RETER JR   11646 AMARALLES DR                      000N        CARE OF             
MTR02637100001000000000000000RA              50000377    000101190000011900000570000003NN  NNW 000                       N    
RDG02637100WATRL000000004K00000000000000165010410152015130231N000000000000U40       000080400K 10000000010000000151           
CUS0263710000108446646005         WILLIAM G PRINCE, JR11648 AMARALLES DR                      000N        CARE OF             
MTR02637100001000000000000000RA              50000404    000101200000012000000570000003NN  NNW 000                       N    
RDG02637100WATRL000000004K00000000000000120010510152015130233N000000000000U40       000020400K 10000000010000000108           
CUS0263710000108446647003         LISA LEE            11650 AMARALLES DR                      000N        CARE OF             
MTR02637100001000000000000000RA              50000379    000101210000012100000570000003NN  NNW 000                       N    
RDG02637100WATRL000000004K00000000000000303010610152015130953N000000000000U40       004400400K 10000000010000000268           
CUS0263710000108446648001         STUMP MARK A        11652 AMARALLES DR                      000N        CARE OF             
MTR02637100001000000000000000RA              50000380    000101220000012200000570000003NN  NNW 000                       N    
RDG02637100WATRL000000004K00000000000000081010710152015130957N000000000000U40       000040400K 10000000010000000073           
CUS0263710000108446649009         EVAN DAHNE          11654 AMARALLES DR                      000N        CARE OF             
MTR02637100001000000000000000RA              50000348    000101230000012300000570000003NN  NNW 000                       N    
RDG02637100WATRL000000004K00000000000000226010810152015131002N000000000000U40       000050400K 10000000010000000204           
CUS0263710000108446650007         SEVERN KEITH G      11656 AMARALLES DR                      000N        CARE OF             
MTR02637100001000000000000000RA              50000378    000101240000012400000570000003NN  NNW 000                       N    
RDG02637100WATRL000000004K00000000000000284010910152015131007N000000000000U40       000050400K 10000000010000000255           
CUS0263710000108446651005         US HOME CORPORATION 11658 AMARALLES DR                      000N        CARE OF             
MTR02637100001000000000000000RA              50000346    000101250000012500000570000003NN  NNW 000                       N    
RDG02637100WATRL000000004K00000000000000110011010152015131010N000000000000U40       000030400K 10000000010000000100           
CUS0263710000108446652003         KIRSCH DAVID W      11660 AMARALLES DR                      000N        CARE OF             
MTR02637100001000000000000000RA              50000345    000101260000012600000570000003NN  NNW 000                       N    
RDG02637100WATRL000000004K00000000000000226011110152015131015N000000000000U40       000050400K 10000000010000000205           
CUS0263710000108446653001         OWENS-COLE DESNEE S 11662 AMARALLES DR                      000N        CARE OF             
MTR02637100001000000000000000RA              50000347    000101270000012700000570000003NN  NNW 000                       N    
RDG02637100WATRL000000004K00000000000000200011210152015131019N000000000000U40       000040400K 10000000010000000178           
CUS0263710000108446671003         TIMOTHY P BESSE     11619 AMARALLES DR                      000N        CARE OF             
MTR02637100001000000000000000RA              50000373    000101280000012800000570000003NN  NNW 000                       N    
RDG02637100WATRL000000004K00000000000000075011310152015131123N000000000000U40       000640400K 10000000010000000068           
CUS0263710000108446668009         BRYAN ESHKENAZI     11617 AMARALLES DR                      000N        CARE OF             
MTR02637100001000000000000000RA              50000376    000101290000012900000570000003NN  NNW 000                       N    
RDG02637100WATRL000000004K00000000000000091011410152015131127N000000000000U40       000040400K 10000000010000000080           
CUS0263710000108446664008         KELLE O NORRIS      11615 AMARALLES DR                      000N        CARE OF             
MTR02637100001000000000000000RA              50000374    000101300000013000000570000003NN  NNW 000                       N    
RDG02637100WATRL000000004K00000000000000190011510152015131130N000000000000U40       000030400K 10000000010000000167           
CUS0263710000108446661004         CHRISTOPHER P FUNK  11613 AMARALLES DR                      000N        CARE OF             
MTR02637100001000000000000000RA              50000360    000101310000013100000570000003NN  NNW 000                       N    
RDG02637100WATRL000000004K00000000000000134011610152015131132N000000000000U40       000020400K 10000000010000000127           
CUS0263710000108446659008         PRIETO RAYMUNDO M   11611 AMARALLES DR                      000N        CARE OF             
MTR02637100001000000000000000RA              50000359    000101320000013200000570000003NN  NNW 000                       N    
RDG02637100WATRL000000004K00000000000000329011710152015131135N000000000000U40       000030400K 10000000010000000296           
CUS0263710000108446658000         BERNSTORF, BRYAN P  11609 AMARALLES DR                      000N        CARE OF             
MTR02637100001000000000000000RA              74816654    000101330000013300000350000003NN  NNW 000                       N    
RDG02637100WATRL000000004K00000000000000037011810152015131138N000000000000U40       000030400K 10000000010000000034           
CUS0263710000108446654009         TRUDY RUNGE         11607 AMARALLES DR                      000N        CARE OF             
MTR02637100001000000000000000RA              74816653    000101340000013400000350000003NN  NNW 000                       N    
RDG02637100WATRL000000004K00000000000000177011910152015131141N000000000000U40       000030400K 10000000010000000156           
CUS0263710000104441472000         ALFORD KEVIN M      130 W CHERRY HILL RD                    000N        CARE OF             
MTR02637100001000000000000000RA              14925971    005801350000013500000310000003NN  NNW 000                       N    
RDG02637100WATRL000000004K00000000000001230011410162015114348N000000000000U40       000730400K 10000000010000001204           
CUS0263710000104441471002         VILLANUEVA REINA ISA128 W CHERRY HILL RD                    000N        CARE OF             
MTR02637100001000000000000000RA              14925975    005801360000013600000310000003NN  NNW 000                       N    
RDG02637100WATRL000000004K00000000000001658011510162015114411N000000000000U40       000230400K 10000000010000001613           
CUS0263710000104441470004         DHANESAR SUBHASH    126 W CHERRY HILL RD                    000N        CARE OF             
MTR02637100001000000000000000RA              14925973    005801370000013700000310000003NN  NNW 000                       N    
RDG02637100WATRL000000004K00000000000000411011610162015114415N000000000000U40       000040400K 10000000010000000400           
CUS0263710000104441469006         NAZ AQSA            124 W CHERRY HILL RD                    000N        CARE OF             
MTR02637100001000000000000000RA              14925976    005801380000013800000310000003NN  NNW 000                       N    
RDG02637100WATRL000000004K00000000000000538011710162015114511N000000000000U40       000560400K 10000000010000000498           
CUS0263710000104441468008         HOUSTON WILLIAM S   122 W CHERRY HILL RD                    000N        CARE OF             
MTR02637100001000000000000000RA              14925974    005801390000013900000310000003NN  NNW 000                       N    
RDG02637100WATRL000000004K00000000000000693011810162015114514N000000000000U40       000030400K 10000000010000000667           
CUS0263710000104441467000         THOMAS GIBY         120 W CHERRY HILL RD                    000N        CARE OF             
MTR02637100001000000000000000RA              14925687    005801400000014000000310000003NN  NNW 000                       N    
RDG02637100WATRL000000004K00000000000000557011910162015114529N000000000000U40       000150400K 10000000010000000534           
CUS0263710000104441466002         EMIL SEDRAKYAN      118 W CHERRY HILL RD                    000N        CARE OF             
MTR02637100001000000000000000RA              14925685    005801410000014100000310000003NN  NNW 000                       N    
RDG02637100WATRL000000004K00000000000000599012010162015114535N000400000010U40       000060400K 10000000010000000591           
CUS0263710000104441465004         KUKOYI SAMUEL       116 W CHERRY HILL RD                    000N        CARE OF             
MTR02637100001000000000000000RA              14925686    005801420000014200000310000003NN  NNW 000                       N    
RDG02637100WATRL000000004K00000000000001249012110162015114541N000000000000U40       000060400K 10000000010000001211           
CUS0263710000104441464007         SHORTS CHARLES  SHOR114 W CHERRY HILL RD                    000N        CARE OF             
MTR02637100001000000000000000RA              14925683    005801430000014300000310000003NN  NNW 000                       N    
RDG02637100WATRL000000004K00000000000001100012210162015114544N000000000000U40       000030400K 10000000010000001069           
CUS0263710000104441463009         RAMPATH CHAITRAM    112 W CHERRY HILL RD                    000N        CARE OF             
MTR02637100001000000000000000RA              78006020    005801440000014400000360000003NN  NNW 000                       N    
RDG02637100WATRL000000004K00000000000000074012310162015114549N000000000000U40       000050400K 10000000010000000041           
CUS0263710000104441462001         REDIL MARIA JENNELYN110 W CHERRY HILL RD                    000N        CARE OF             
MTR02637100001000000000000000RA              14929008    005801450000014500000310000003NN  NNW 000                       N    
RDG02637100WATRL000000004K00000000000001002012410162015114553N000000000000U40       000040400K 10000000010000000981           
CUS0263710000102394346007         FIRST JOURNEY INC   11824 MAREN CT                          000N        CARE OF             
MTR02637100001000000000000000RA              39584500    005801460000014600000520000003NN  NNW 000                       N    
RDG02637100WATRL000000004K00000000000003094000110162015083325N000000000000U40       000000400K 10000000010000003075           
CUS0263710000102394345009         HARRIS ROBERT C,JR  11826 MAREN CT                          000N        CARE OF             
MTR02637100001000000000000000RA              48591534    005801470000014700000520000003NN  NNW 000                       N    
RDG02637100WATRL000000004K00000000000001439000210162015084255N000000000000U40       005700400K 10000000010000001416           
CUS0263710000102394347005         LUDWIG EDWARD W,JR  11822 MAREN CT                          000N        CARE OF             
MTR02637100001000000000000000RA              39584501    005801480000014800000520000003NN  NNW 000                       N    
RDG02637100WATRL000000004K00000000000002392000310162015084300N000000000000U40       000050400K 10000000010000002376           
CUS0263710000102394348003         JASON CORBETT       11820 MAREN CT                          000N        CARE OF             
MTR02637100001000000000000000RA              39584475    005801490000014900000520000003NN  NNW 000                       N    
RDG02637100WATRL000000004K00000000000002352000410162015084320N000000000000U40       000200400K 10000000010000002327           
CUS0263710000102394349001         MICHAEL & SANDRA HOF11818 MAREN CT                          000N        CARE OF             
MTR02637100001000000000000000RA              39584473    005801500000015000000520000003NN  NNW 000                       N    
RDG02637100WATRL000000004K00000000000005605000510162015084424N000000000000U40       000640400K 10000000010000005530           
CUS0263710000102394350009         MANZOOR MOTSHAM     11816 MAREN CT                          000N        CARE OF             
MTR02637100001000000000000000RA              39584470    005801510000015100000520000003NN  NNW 000                       N    
RDG02637100WATRL000000004K00000000000002754000610162015084427N000000000000U40       000030400K 10000000010000002722           
CUS0263710000102394351007         ELKAYAM ASHER       11814 MAREN CT                          000N        CARE OF             
MTR02637100001000000000000000RA              39584474    005801520000015200000520000003NN  NNW 000                       N    
RDG02637100WATRL000000004K00000000000001115000710162015084431N000000000000U40       000040400K 10000000010000001108           
CUS0263710000102394352005         JOSEPH KRAMER       11812 MAREN CT                          000N        CARE OF             
MTR02637100001000000000000000RA              40321715    005801530000015300000520000003NN  NNW 000                       N    
RDG02637100WATRL000000004K00000000000002022000810162015085710N000000000000U40       007590400K 10000000010000002003           
CUS0263710000102394353003         MCELVEEN DORIS      11810 MAREN CT                          000N        CARE OF             
MTR02637100001000000000000000RA              40321737    005801540000015400000520000003NN  NNW 000                       N    
RDG02637100WATRL000000004K00000000000003327000910162015085713N000000000000U40       000030400K 10000000010000003289           
CUS0263710000102394354001         GARCIA PATRICIA     11808 MAREN CT                          000N        CARE OF             
MTR02637100001000000000000000RA              40321688    005801550000015500000520000003NN  NNW 000                       N    
RDG02637100WATRL000000004K00000000000001953001010162015085718N000000000000U40       000050400K 10000000010000001926           
CUS0263710000102394355008         PROLOGUE INC        11806 MAREN CT                          000N        CARE OF             
MTR02637100001000000000000000RA              14922702    005801560000015600000310000003NN  NNW 000                       N    
RDG02637100WATRL000000004K00000000000000703001110162015085723N000000000000U40       000050400K 10000000010000000681           
CUS0263710000102394356006         BELYANINOV YURI  SHR11804 MAREN CT                          000N        CARE OF             
MTR02637100001000000000000000RA              40321733    005801570000015700000520000003NN  NNW 000                       N    
RDG02637100WATRL000000004K00000000000001571001210162015085759N000000000000U40       000360400K 10000000010000001554           
CUS0263710000102394357004         HECTOR JOY          11802 MAREN CT                          000N        CARE OF             
MTR02637100001000000000000000RA              40321736    005801580000015800000520000003NN  NNW 000                       N    
RDG02637100WATRL000000004K00000000000002630001310162015085815N000000000000U40       000160400K 10000000010000002608           
CUS0263710000102394358002         LEWIS NANCY L       11800 MAREN CT                          000N        CARE OF             
MTR02637100001000000000000000RA              40321732    005801590000015900000520000003NN  NNW 000                       N    
RDG02637100WATRL000000004K00000000000002364001410162015085819N000000000000U40       000040400K 10000000010000002349           
CUS0263710000102394359000         QUENNIE Q.MARMOLEJO 11801 MAREN CT                          000N        CARE OF             
MTR02637100001000000000000000RA              52289199    005801600000016000000520000003NN  NNW 000                       N    
RDG02637100WATRL000000004K00000000000000416001510162015085833N000000000000U40       000140400K 10000000010000000400           
CUS0263710000102394360008         SILVERMAN CRAIG     11803 MAREN CT                          000N        CARE OF             
MTR02637100001000000000000000RA              39923779    005801610000016100000520000003NN  NNW 000                       N    
RDG02637100WATRL000000004K00000000000002563001610162015085836N000000000000U40       000030400K 10000000010000002547           
CUS0263710000102394361006         KAZANOW STUART C    11805 MAREN CT                          000N        CARE OF             
MTR02637100001000000000000000RA              39923891    005801620000016200000520000003NN  NNW 000                       N    
RDG02637100WATRL000000004K00000000000002541001710162015090222N000000000000U40       002260400K 10000000010000002516           
CUS0263710000102394362004         HAMILTON JOHNS      11807 MAREN CT                          000N        CARE OF             
MTR02637100001000000000000000RA              39923889    005801630000016300000520000003NN  NNW 000                       N    
RDG02637100WATRL000000004K00000000000002363001810162015090226N000000000000U40       000040400K 10000000010000002355           
CUS0263710000102394363002         WILLIAM & LORI JANUS11809 MAREN CT                          000N        CARE OF             
MTR02637100001000000000000000RA              39923890    005801640000016400000520000003NN  NNW 000                       N    
RDG02637100WATRL000000004K00000000000004479001910162015090232N000000000000U40       000060400K 10000000010000004448           
CUS0263710000102394364000         JACOBY RONALD L     11811 MAREN CT                          000N        CARE OF             
MTR02637100001000000000000000RA              76346893    005801650000016500000350000003NN  NNW 000                       N    
RDG02637100WATRL000000004K00000000000000090002010162015090236N000000000000U40       000040400K 10000000010000000073           
CUS0263710000102394365007         SCOTT VIVIAN M      11813 MAREN CT                          000N        CARE OF             
MTR02637100001000000000000000RA              39583456    005801660000016600000520000003NN  NNW 000                       N    
RDG02637100WATRL000000004K00000000000003158002110162015090654N000300000010U40       002580400K 10000000010000003118           
CUS0263710000102394366005         DAWN C WELLS        11815 MAREN CT                          000N        CARE OF             
MTR02637100001000000000000000RA              39291979    005801670000016700000520000003NN  NNW 000                       N    
RDG02637100WATRL000000004K00000000000002567002210162015090701N000000000000U40       000070400K 10000000010000002554           
CUS0263710000102394367003         NAUGHTON VALERIE J  11817 MAREN CT                          000N        CARE OF             
MTR02637100001000000000000000RA              39291968    005801680000016800000520000003NN  NNW 000                       N    
RDG02637100WATRL000000004K00000000000001738002310162015090707N000000000000U40       000060400K 10000000010000001720           
CUS0263710000102394368001         CARLOS HOLMES       11819 MAREN CT                          000N        CARE OF             
MTR02637100001000000000000000RA              39291958    005801690000016900000520000003NN  NNW 000                       N    
RDG02637100WATRL000000004K00000000000002132002410162015090911N000000000000U40       001240400K 10000000010000002113           
CUS0263710000102394369009         CHANDROS JOSHUA     11821 MAREN CT                          000N        CARE OF             
MTR02637100001000000000000000RA              39291969    005801700000017000000520000003NN  NNW 000                       N    
RDG02637100WATRL000000004K00000000000002540002510162015090914N000000000000U40       000030400K 10000000010000002519           
CUS0263710000102394370007         WALSH JENNIFER      11823 MAREN CT                          000N        CARE OF             
MTR02637100001000000000000000RA              39291967    005801710000017100000520000003NN  NNW 000                       N    
RDG02637100WATRL000000004K00000000000002657002610162015091014N000000000000U40       000600400K 10000000010000002605           
CUS0263710000102394371005         BALLOU EMERSON H 3RD11825 MAREN CT                          000N        CARE OF             
MTR02637100001000000000000000RA              44087222    005801720000017200000520000003NN  NNW 000                       N    
RDG02637100WATRL000000004K00000000000001980002710162015091019N000000000000U40       000050400K 10000000010000001971           
CUS0263710000102394372003         WATERS NATHANIEL    11827 MAREN CT                          000N        CARE OF             
MTR02637100001000000000000000RA              44087166    005801730000017300000520000003NN  NNW 000                       N    
RDG02637100WATRL000000004K00000000000001718002810162015091025N000000000000U40       000060400K 10000000010000001700           
CUS0263710000102047209008         J F ELINE & SONS INC11824 REISTERSTOWN RD                   000N        CARE OF             
MTR02637100001000000000000000RA              52770715    005801740000017400000520000003NN  NNW 000                       N    
RDG02637100WATRL000000004K00000000000001688001910142015090155N000000000000N40       000470400K 10000000010000001658           
CUS0263710000102047210006         11822 REISTERSTOWN R11822 REISTERSTOWN RD                   000N        CARE OF             
MTR02637100001000000000000000RA              19461608    005801750000017500000520000003NN  NNW 000                       N    
RDG02637100WATRL000000004K00000000000004321001810142015090108N000000000000N40       001120400K 10000000010000004300           
CUS0263710000102047212002         S & W PIZZA HUT OF M10 CHESTNUT HILL LN                     000N        CARE OF             
MTR02637100001000000000000000RA              30002364    007501760000017600000570000003NN  NNW 000                       N    
RDG02637100WATRL000000004K00000000000001313001610142015085755N000000000000N40       000600400K 10000000010000001266           
CUS0263710000102047213000         J F ELINE & SONS INC14 CHESTNUT HILL LN                     000N        CARE OF             
MTR02637100001000000000000000RA              00000000    005801770000017700000600000003NN  NNW 000                       N    
RDG02637100WATRL000000004K00000000000000000006710152015091602S022000000000U40       000040400K 10000000010000000118           
CUS0263710000102047214008         POWELL MICHAEL T    16 CHESTNUT HILL LN                     000N        CARE OF             
MTR02637100001000000000000000RA              44090933    005801780000017800000520000003NN  NNW 000                       N    
RDG02637100WATRL000000004K00000000000004274006610152015091558N000000000000U40       000430400K 10000000010000004096           
CUS0263710000102047215005         MERANDA JOSE MANUEL 18 CHESTNUT HILL LN                     000N        CARE OF             
MTR02637100001000000000000000RA              99999999    005801790000017900000620000003NY  NNW 000                       N    
MTM0263710099999999    VACANT                                                                                                 
RDG02637100WATRL000000004K00000000000000000006510152015091515S002000000000U40       000490400K 10000000010000000000           
CUS0263710000102047216003         PEGGY CASTILLO-COX  20 CHESTNUT HILL LN                     000N        CARE OF             
MTR02637100001000000000000000RA              23649456    005801800000018000000520000003NN  NNW 000                       N    
RDG02637100WATRL000000004K00000000000004029006410152015091426N000000000000U40       000420400K 10000000010000004001           
CUS0263710000102047217001         SWANTKO MAXIMILIAN M22 CHESTNUT HILL LN                     000N        CARE OF             
MTR02637100001000000000000000RA              23649455    005801810000018100000520000003NN  NNW 000                       N    
RDG02637100WATRL000000004K00000000000005142006310152015091344N000000000000U40       000550400K 10000000010000005138           
CUS0263710000102047218009         CHAUDHRY SAFDER     26 CHESTNUT HILL LN                     000N        CARE OF             
MTR02637100001000000000000000RA              23649453    005801820000018200000520000003NN  NNW 000                       N    
RDG02637100WATRL000000004K00000000000006303006210152015091249N000000000000U40       000480400K 10000000010000006234           
CUS0263710000102047219007         UMANA ALBERTO       28 CHESTNUT HILL LN                     000N        CARE OF             
MTR02637100001000000000000000RA              23649457    005801830000018300000520000003NN  NNW 000                       N    
RDG02637100WATRL000000004K00000000000001855006110152015091201N000000000000U40       000510400K 10000000010000001839           
CUS0263710000102047220005         NORRIS LEE H        32 CHESTNUT HILL LN                     000N        CARE OF             
MTR02637100001000000000000000RA              45377580    005801840000018400000520000003NN  NNW 000                       N    
RDG02637100WATRL000000004K00000000000002454006010152015091110N000000000000U40       000340400K 10000000010000002428           
CUS0263710000102047221003         COURTNEY MATTHEW    100 CHESTNUT HILL LN                    000N        CARE OF             
MTR02637100001000000000000000RA              44002116    005801850000018500000520000003NN  NNW 000                       N    
RDG02637100WATRL000000004K00000000000001400005910152015091036N000000000000U40       000720400K 10000000010000001379           
CUS0263710000102047222001         LACAYO LISETT       102 CHESTNUT HILL LN                    000N        CARE OF             
MTR02637100001000000000000000RA              45374597    005801860000018600000520000003NN  NNW 000                       N    
RDG02637100WATRL000000004K00000000000002217005710152015090849N000000000000U40       000570400K 10000000010000002188           
CUS0263710000102047223009         VILLALTA ANA N      104 W CHESTNUT HILL LN                  000N        CARE OF             
MTR02637100001000000000000000RA              41082085    005801870000018700000520000003NN  NNW 000                       N    
RDG02637100WATRL000000004K00000000000001987005510152015090705N000000000000U40       000370400K 10000000010000001944           
CUS0263710000102047224007         MARTINEZ ANTONIO G  106 CHESTNUT HILL LN                    000N        CARE OF             
MTR02637100001000000000000000RA              50479973    005801880000018800000520000003NN  NNW 000                       N    
RDG02637100WATRL000000004K00000000000001389005210152015090442N000000000000U40       000520400K 10000000010000001376           
CUS0263710000102047225004         NINA A. KAGAN       108 CHESTNUT HILL LN                    000N        CARE OF             
MTR02637100001000000000000000RA              48588986    005801890000018900000520000003NN  NNW 000                       N    
RDG02637100WATRL000000004K00000000000001205005110152015090350N000000000000U40       000280400K 10000000010000001193           
CUS0263710000102047226002         MRUCK MARLENE M     112 CHESTNUT HILL LN                    000N        CARE OF             
MTR02637100001000000000000000RA              40049995    005801900000019000000520000003NN  NNW 000                       N    
RDG02637100WATRL000000004K00000000000002172004810152015090144N000000000000U40       000230400K 10000000010000002155           
CUS0263710000102047227000         SAGE JAMES R        114 W CHESTNUT HILL LN                  000N        CARE OF             
MTR02637100001000000000000000RA              42810227    005801910000019100000520000003NN  NNW 000                       N    
RDG02637100WATRL000000004K00000000000001479004710152015090121N000000000000U40       000460400K 10000000010000001445           
CUS0263710000102047228008         LYONS KATHERINE J   116 CHESTNUT HILL LN                    000N        CARE OF             
MTR02637100001000000000000000RA              44177686    005801920000019200000520000003NN  NNW 000                       N    
RDG02637100WATRL000000004K00000000000001612004410152015085919N000000000000U40       000460400K 10000000010000001599           
CUS0263710000102047229006         MATHESON EDDIE W    118 CHESTNUT HILL LN                    000N        CARE OF             
MTR02637100001000000000000000RA              44173316    005801930000019300000520000003NN  NNW 000                       N    
RDG02637100WATRL000000004K00000000000002043004310152015085833N000000000000U40       000690400K 10000000010000002001           
CUS0263710000102430022000         BARNABY JENNIFER Y  121 PERSIMMON CIR                       000N        CARE OF             
MTR02637100001000000000000000RA              99315167    000101940000019400000570000003NN  NNW 000                       N    
RDG02637100WATRL000000004K00000000000000661002910162015091918N000000000000U40       005330400K 10000000010000000653           
CUS0263710000102047230004         TERRY DUBBS         11801 PRESGRAVES RD                     000N        CARE OF             
MTR02637100001000000000000000RA              9684365     005801950000019500000570000003NN  NNW 000                       N    
RDG02637100WATRL000000004K00000000000007560010710152015132240N000000000000U40       000450400K 10000000010000007538           
CUS0263710000102047231002         BRAVERMAN MARK      11803 PRESGRAVES RD                     000N        CARE OF             
MTR02637100001000000000000000RA              50787990    005801960000019600000520000003NN  NNW 000                       N    
RDG02637100WATRL000000004K00000000000002747010810152015132247N000000000000U40       000070400K 10000000010000002724           
CUS0263710000102456347000         XIAOHUI ZHANG       11807 PRESGRAVES RD                     000N        CARE OF             
MTR02637100001000000000000000RA              77893909    007501970000019700000360000003NN  NNW 000                       N    
RDG02637100WATRL000000004K00000000000000054010910152015132638N000000000000U40       002310400K 10000000010000000023           
CUS0263710000102456348008         NVR INC             11809 PRESGRAVES RD                     000N        CARE OF             
MTR02637100001000000000000000RA              99999999    007501980000019800000440000003NN  NNW 000                       N    
RDG02637100WATRL000000004K00000000000000000011010152015132646S063000000000U40       000080400K 10000000010000000000           
CUS0263710000102456340005         GIBBS, CHRISTOPHER J11806 PRESGRAVES RD                     000N        CARE OF             
MTR02637100001000000000000000RA              77894118    007501990000019900000360000003NN  NNW 000                       N    
RDG02637100WATRL000000004K00000000000000023011110152015132653N000000000010U40       000070400K 10000000010000000000           
CUS0263710000102456341003         NVR INC             11808 PRESGRAVES RD                     000N        CARE OF             
MTR02637100001000000000000000RA              99999999    007502000000020000000440000003NN  NNW 000                       N    
RDG02637100WATRL000000004K00000000000000000011210152015132703S063000000000U40       000100400K 10000000010000000000           
CUS0263710000102456342001         DEMETRIUS JACKSON   11810 PRESGRAVES RD                     000N        CARE OF             
MTR02637100001000000000000000RA              99999999    007502010000020100000440000003NN  NNW 000                       N    
RDG02637100WATRL000000004K00000000000000000011310152015132711S063000000000U40       000080400K 10000000010000000000           
CUS0263710000102456343009         MAURICE D. JAMISON  11812 PRESGRAVES RD                     000N        CARE OF             
MTR02637100001000000000000000RA              99999999    007502020000020200000440000003NN  NNW 000                       N    
RDG02637100WATRL000000004K00000000000000000011410152015132717S063000000000U40       000060400K 10000000010000000000           
CUS0263710000102456344007         JACKSON RODERICK D  11814 PRESGRAVES RD                     000N        CARE OF             
MTR02637100001000000000000000RA              77984304    007502030000020300000360000003NN  NNW 000                       N    
RDG02637100WATRL000000004K00000000000000050011510152015132725N000000000000U40       000080400K 10000000010000000029           
CUS0263710000102456345004         ARNALDO L CUEVAS    11816 PRESGRAVES RD                     000N        CARE OF             
MTR02637100001000000000000000RA              77894303    007502040000020400000360000003NN  NNW 000                       N    
RDG02637100WATRL000000004K00000000000000089011610152015132734N000400000010U40       000090400K 10000000010000000076           
CUS0263710000102456346002         WOODSYDE RIDGE INC  11818 PRESGRAVES RD                     000N        CARE OF             
MTR02637100001000000000000000RA              99999999    007502050000020500000440000003NN  NNW 000   **NEW ACCOUNT**     N    
RDG02637100WATRL000000004K00000000000000000011710152015132740S063000000000U40       000060400K 10000000010000000000           
CUS0263710000102456390000         JESSIE M OSIMA TRUST200 ALVIE LN                            000N        CARE OF             
MTR02637100001000000000000000RA              77984185    007502060000020600000360000003NN  NNW 000                       N    
RDG02637100WATRL000000004K00000000000000089009910152015132014N000000000000U40       001590400K 10000000010000000040           
CUS0263710000102456391008         NVR INC             202 ALVIE LN                            000N        CARE OF             
MTR02637100001000000000000000RA              99999999    007502070000020700000440000003NN  NNW 000                       N    
RDG02637100WATRL000000004K00000000000000000010010152015132019S063000000000U40       000050400K 10000000010000000000           
CUS0263710000102456392006         RUSSELL R WESLEY,2ND204 ALVIE LN                            000N        CARE OF             
MTR02637100001000000000000000RA              77894187    007502080000020800000360000003NN  NNW 000                       N    
RDG02637100WATRL000000004K00000000000000075010110152015132030N000300000010U40       000110400K 10000000010000000010           
CUS0263710000102456351002         GLENN TURK          201 ALVIE LN                            000N        CARE OF             
MTR02637100001000000000000000RA              77894340    007502090000020900000360000003NN  NNW 000                       N    
RDG02637100WATRL000000004K00000000000000084010210152015132040N000000000000U40       000100400K 10000000010000000025           
CUS0263710000102456393004         MARTIN HINES        203 ALVIE LN                            000N        CARE OF             
MTR02637100001000000000000000RA              99999999    007502100000021000000440000003NN  NNW 000                       N    
RDG02637100WATRL000000004K00000000000000000010310152015132046S063000000000U40       000060400K 10000000010000000000           
CUS0263710000102456394002         STEPHEN BUTSCH      205 ALVIE LN                            000N        CARE OF             
MTR02637100001000000000000000RA              77894186    007502110000021100000360000003NN  NNW 000                       N    
RDG02637100WATRL000000004K00000000000000084010410152015132056N000000000000U40       000100400K 10000000010000000026           
CUS0263710000102456395009         LAKSHMANA SURESH    207 ALVIE LN                            000N        CARE OF             
MTR02637100001000000000000000RA              99999999    007502120000021200000440000003NN  NNW 000                       N    
RDG02637100WATRL000000004K00000000000000000010510152015132104S063000000000U40       000080400K 10000000010000000000           
CUS0263710000108431621005         BROWN CORTNEY M     11801 TARRAGON RD                       000N        CARE OF             
MTR02637100001000000000000000RA              99408836    000102130000021300000570000003NN  NNW 000                       N    
RDG02637100WATRL000000004K00000000000000908010910162015114031N000000000000U40       000040400K 10000000010000000877           
CUS0263710000108431620007         KOHN DAVID M        11803 TARRAGON RD                       000N        CARE OF             
MTR02637100001000000000000000RA              99408834    000102140000021400000570000003NN  NNW 000                       N    
RDG02637100WATRL000000004K00000000000001495010810162015114027N000000000000U40       000040400K 10000000010000001461           
CUS0263710000108431619009         BILLUPS BRIAN A     11805 TARRAGON RD                       000N        CARE OF             
MTR02637100001000000000000000RA              99408866    000102150000021500000570000003NN  NNW 000                       N    
RDG02637100WATRL000000004K00000000000001133010710162015114023N000000000000U40       000040400K 10000000010000001119           
CUS0263710000108431618001         STRINGFELLOW JACKIE 11807 TARRAGON RD                       000N        CARE OF             
MTR02637100001000000000000000RA              99408868    000102160000021600000570000003NN  NNW 000                       N    
RDG02637100WATRL000000004K00000000000001122010610162015114019N000000000000U40       000090400K 10000000010000001093           
CUS0263710000108431617003         BEMBENEK ALICIA FAY 11809 TARRAGON RD                       000N        CARE OF             
MTR02637100001000000000000000RA              99408865    000102170000021700000570000003NN  NNW 000                       N    
RDG02637100WATRL000000004K00000000000000747010510162015114010N000000000000U40       001060400K 10000000010000000734           
CUS0263710000108431616005         FENNELL EULA B      11811 TARRAGON RD                       000N        CARE OF             
MTR02637100001000000000000000RA              76350216    000102180000021800000350000003NN  NNW 000                       N    
RDG02637100WATRL000000004K00000000000000170010410162015113824N000400000010U40       000800400K 10000000010000000165           
CUS0263710000102429998004         ADEWALE SEUN O      100 PERSIMMON CIR                       000N        CARE OF             
MTR02637100001000000000000000RA              99408970    000102190000021900000570000003NN  NNW 000                       N    
RDG02637100WATRL000000004K00000000000000666003010162015091955N000000000000U40       000370400K 10000000010000000666           
CUS0263710000102429999002         WHITE CHARLES,JR    102 PERSIMMON CIR                       000N        CARE OF             
MTR02637100001000000000000000RA              99408899    000102200000022000000570000003NN  NNW 000                       N    
RDG02637100WATRL000000004K00000000000001101003110162015092558N000400000010U40       003630400K 10000000010000001092           
CUS0263710000102430000006         KEARNEY BONITA      104 PERSIMMON CIR                       000N        CARE OF             
MTR02637100001000000000000000RA              99408900    000102210000022100000570000003NN  NNW 000                       N    
RDG02637100WATRL000000004K00000000000001140003210162015092604N000000000000U40       000060400K 10000000010000001123           
CUS0263710000102430001004         DUNTON CARMELITA    106 PERSIMMON CIR                       000N        CARE OF             
MTR02637100001000000000000000RA              99408897    000102220000022200000570000003NN  NNW 000                       N    
RDG02637100WATRL000000004K00000000000000491003310162015092612N000000000000U40       000080400K 10000000010000000482           
CUS0263710000102430002002         MONTGOMERY GWENDOLYN108 PERSIMMON CIR                       000N        CARE OF             
MTR02637100001000000000000000RA              99408931    000102230000022300000570000003NN  NNW 000                       N    
RDG02637100WATRL000000004K00000000000000737003410162015092622N000000000000U40       000100400K 10000000010000000721           
CUS0263710000102430003000         ASHFORD BOBBY J     110 PERSIMMON CIR                       000N        CARE OF             
MTR02637100001000000000000000RA              99408989    000102240000022400000570000003NN  NNW 000                       N    
RDG02637100WATRL000000004K00000000000000924003510162015093559N000000000000U40       005770400K 10000000010000000905           
CUS0263710000102430004008         ROSE FANNIE GRANT   112 PERSIMMON CIR                       000N        CARE OF             
MTR02637100001000000000000000RA              99408898    000102250000022500000570000003NN  NNW 000                       N    
RDG02637100WATRL000000004K00000000000001067003610162015093602N000000000000U40       000030400K 10000000010000001051           
CUS0263710000102430005005         HAMILTON ANDREA R   114 PERSIMMON CIR                       000N        CARE OF             
MTR02637100001000000000000000RA              99315003    000102260000022600000570000003NN  NNW 000                       N    
RDG02637100WATRL000000004K00000000000003257003710162015093607N000000000000U40       000050400K 10000000010000003197           
CUS0263710000102430006003         REDMOND-ALDRIDGE NYO116 PERSIMMON CIR                       000N        CARE OF             
MTR02637100001000000000000000RA              99314976    000102270000022700000570000003NN  NNW 000                       N    
RDG02637100WATRL000000004K00000000000001496003810162015093610N000000000000U40       000030400K 10000000010000001473           
CUS0263710000102430007001         JASON ARMSTRONG     118 PERSIMMON CIR                       000N        CARE OF             
MTR02637100001000000000000000RA              99315005    000102280000022800000570000003NN  NNW 000                       N    
RDG02637100WATRL000000004K00000000000001080003910162015093617N000000000000U40       000070400K 10000000010000001066           
CUS0263710000102430008009         BABADJANOV ALIMDJAN 120 PERSIMMON CIR                       000N        CARE OF             
MTR02637100001000000000000000RA              99314785    000102290000022900000570000003NN  NNW 000                       N    
RDG02637100WATRL000000004K00000000000002116004010162015093621N000000000000U40       000040400K 10000000010000002097           
CUS0263710000102430009007         BARNES MICHELE      122 PERSIMMON CIR                       000N        CARE OF             
MTR02637100001000000000000000RA              99315002    000102300000023000000570000003NN  NNW 000                       N    
RDG02637100WATRL000000004K00000000000001837004110162015093625N000000000000U40       000040400K 10000000010000001824           
CUS0263710000102430010005         RIVERA MIGUEL       124 PERSIMMON CIR                       000N        CARE OF             
MTR02637100001000000000000000RA              99314885    000102310000023100000570000003NN  NNW 000                       N    
RDG02637100WATRL000000004K00000000000000581004210162015093713N000000000000U40       000480400K 10000000010000000577           
CUS0263710000102430011003         JOHNSON SANDRA      126 PERSIMMON CIR                       000N        CARE OF             
MTR02637100001000000000000000RA              99315133    000102320000023200000570000003NN  NNW 000                       N    
RDG02637100WATRL000000004K00000000000000319004310162015093717N000000000000U40       000040400K 10000000010000000316           
CUS0263710000102430012001         LARAMIE PAUL L      128 PERSIMMON CIR                       000N        CARE OF             
MTR02637100001000000000000000RA              99315235    000102330000023300000570000003NN  NNW 000                       N    
RDG02637100WATRL000000004K00000000000000852004410162015094045N000000000010U40       002080400K 10000000010000000850           
CUS0263710000102430013009         MARTEY LOUIS K      130 PERSIMMON CIR                       000N        CARE OF             
MTR02637100001000000000000000RA              99315109    000102340000023400000570000003NN  NNW 000                       N    
RDG02637100WATRL000000004K00000000000001335004510162015094105N000300000010U40       000200400K 10000000010000001363           
CUS0263710000102430014007         PAGE JEFFREY A      132 PERSIMMON CIR                       000N        CARE OF             
MTR02637100001000000000000000RA              99315219    000102350000023500000570000003NN  NNW 000                       N    
RDG02637100WATRL000000004K00000000000000986004610162015094109N000000000000U40       000040400K 10000000010000000959           
CUS0263710000102430015004         AYDLETT LAWRENCE L  134 PERSIMMON CIR                       000N        CARE OF             
MTR02637100001000000000000000RA              00167074    000102360000023600000570000003NN  NNW 000                       N    
RDG02637100WATRL000000004K00000000000000653004710162015095251N000000000000U40       007020400K 10000000010000000646           
CUS0263710000102430016002         JOHNSON VONZELLA C  136 PERSIMMON CIR                       000N        CARE OF             
MTR02637100001000000000000000RA              99315053    000102370000023700000570000003NN  NNW 000                       N    
RDG02637100WATRL000000004K00000000000000541004810162015095408N000000000001U40       000670400K 10000000010000000534           
CUS0263710000102431655006         CARSON GREGORY T    216 PERSIMMON CIR                       000N        CARE OF             
MTR02637100001000000000000000RA              99409112    000102380000023800000570000003NN  NNW 000                       N    
RDG02637100WATRL000000004K00000000000000708004910162015095650N000000000011U40       001620400K 10000000010000000700           
CUS0263710000102431656004         RANJITKAR ASHIM CHAN218 PERSIMMON CIR                       000N        CARE OF             
MTR02637100001000000000000000RA              99409104    000102390000023900000570000003NN  NNW 000                       N    
RDG02637100WATRL000000004K00000000000001653005010162015095658N000000000000U40       000080400K 10000000010000001627           
CUS0263710000102431657002         SANTOS SANDRA O     220 PERSIMMON CIR                       000N        CARE OF             
MTR02637100001000000000000000RA              99409111    000102400000024000000570000003NN  NNW 000                       N    
RDG02637100WATRL000000004K00000000000000871005110162015095711N000000000000U40       000130400K 10000000010000000856           
CUS0263710000102431658000         SHRESTHA DEEPENDRA  222 PERSIMMON CIR                       000N        CARE OF             
MTR02637100001000000000000000RA              99409140    000102410000024100000570000003NN  NNW 000                       N    
RDG02637100WATRL000000004K00000000000000881005210162015095849N000000000000U40       000980400K 10000000010000000872           
CUS0263710000102431659008         RILEY JOHN A        224 PERSIMMON CIR                       000N        CARE OF             
MTR02637100001000000000000000RA              99409109    000102420000024200000570000003NN  NNW 000                       N    
RDG02637100WATRL000000004K00000000000000684005310162015100035N000000000010U40       001060400K 10000000010000000681           
CUS0263710000102431660006         THAYER JULIAN F     226 PERSIMMON CIR                       000N        CARE OF             
MTR02637100001000000000000000RA              99409137    000102430000024300000570000003NN  NNW 000                       N    
RDG02637100WATRL000000004K00000000000000428005410162015100304N000000000000U40       001490400K 10000000010000000422           
CUS0263710000102431661004         L.O.G. LLC          228 PERSIMMON CIR                       000N        CARE OF             
MTR02637100001000000000000000RA              99999999    000102440000024400000570000003NN  NNW 000                       N    
RDG02637100WATRL000000004K00000000000001067005510162015100412N000000000000U40       000680400K 10000000010000001049           
CUS0263710000102431662002         COASTAL HOMES LLC   230 PERSIMMON CIR                       000N        CARE OF             
MTR02637100001000000000000000RA              99409083    000102450000024500000570000003NN  NNW 000                       N    
RDG02637100WATRL000000004K00000000000000845005610162015100547N000000000000U40       000950400K 10000000010000000824           
CUS0263710000102431663000         SHCHERBAKOVA YELENA 232 PERSIMMON CIR                       000N        CARE OF             
MTR02637100001000000000000000RA              74816642    000102460000024600000350000003NN  NNW 000                       N    
RDG02637100WATRL000000004K00000000000000107005710162015100720N000000000000U40       000930400K 10000000010000000094           
CUS0263710000102431664008         RILEY REGINALD      234 PERSIMMON CIR                       000N        CARE OF             
MTR02637100001000000000000000RA              74816853    000102470000024700000350000003NN  NNW 000                       N    
RDG02637100WATRL000000004K00000000000001314005810162015101019N000000000000U40       001790400K 10000000010000001258           
CUS0263710000102431665005         SHAPIRO BORIS       236 PERSIMMON CIR                       000N        CARE OF             
MTR02637100001000000000000000RA              99409156    000102480000024800000570000003NN  NNW 000                       N    
RDG02637100WATRL000000004K00000000000001169005910162015101839N000000000000U40       005000400K 10000000010000001152           
CUS0263710000102431666003         MASON WURZBURGER    238 PERSIMMON CIR                       000N        CARE OF             
MTR02637100001000000000000000RA              99409084    000102490000024900000570000003NN  NNW 000                       N    
RDG02637100WATRL000000004K00000000000000495006010162015101844N000000000000U40       000050400K 10000000010000000487           
CUS0263710000102431667001         COASTAL HOMES LLC   240 PERSIMMON CIR                       000N        CARE OF             
MTR02637100001000000000000000RA              99409147    000102500000025000000570000003NN  NNW 000                       N    
RDG02637100WATRL000000004K00000000000000766006110162015101851N000000000000U40       000070400K 10000000010000000747           
CUS0263710000102431668009         CLANTON WILMA V     242 PERSIMMON CIR                       000N        CARE OF             
MTR02637100001000000000000000RA              99409380    000102510000025100000570000003NN  NNW 000                       N    
RDG02637100WATRL000000004K00000000000000129006210162015104112N000400000010U40       013410400K 10000000010000000127           
CUS0263710000102431669007         KEHINDE A OYEKAN    244 PERSIMMON CIR                       000N        CARE OF             
MTR02637100001000000000000000RA              99409379    000102520000025200000570000003NN  NNW 000                       N    
RDG02637100WATRL000000004K00000000000001034006310162015104119N000000000000U40       000070400K 10000000010000001022           
CUS0263710000102431670005         PAMELA ARBAUGH      246 PERSIMMON CIR                       000N        CARE OF             
MTR02637100001000000000000000RA              99409373    000102530000025300000570000003NN  NNW 000                       N    
RDG02637100WATRL000000004K00000000000001141006410162015104127N000300000010U40       000080400K 10000000010000001075           
CUS0263710000102431671003         MEER DAVID M        248 PERSIMMON CIR                       000N        CARE OF             
MTR02637100001000000000000000RA              99409377    000102540000025400000570000003NN  NNW 000                       N    
RDG02637100WATRL000000004K00000000000000560006510162015104133N000000000000U40       000060400K 10000000010000000552           
CUS0263710000102431672001         ELVIS G. LANGHA     250 PERSIMMON CIR                       000N        CARE OF             
MTR02637100001000000000000000RA              99409086    000102550000025500000570000003NN  NNW 000                       N    
RDG02637100WATRL000000004K00000000000000976006610162015104147N000000000000U40       000140400K 10000000010000000969           
CUS0263710000102431654009         CHEN JOEY           225 PERSIMMON CIR                       000N        CARE OF             
MTR02637100001000000000000000RA              99408761    000102560000025600000570000003NN  NNW 000                       N    
RDG02637100WATRL000000004K00000000000001089006710162015104427N000000000000U40       001600400K 10000000010000001065           
CUS0263710000102431653001         CLAUDETTE DENISE MCL223 PERSIMMON CIR                       000N        CARE OF             
MTR02637100001000000000000000RA              99408768    000102570000025700000570000003NN  NNW 000                       N    
RDG02637100WATRL000000004K00000000000001037006810162015104432N000000000000U40       000050400K 10000000010000001033           
CUS0263710000102431652003         LOCHTE JOHN E,3RD   221 PERSIMMON CIR                       000N        CARE OF             
MTR02637100001000000000000000RA              99408766    000102580000025800000570000003NN  NNW 000                       N    
RDG02637100WATRL000000004K00000000000002101006910162015104436N000000000000U40       000040400K 10000000010000002092           
CUS0263710000102431651005         PATEL RAJANIKANT R  219 PERSIMMON CIR                       000N        CARE OF             
MTR02637100001000000000000000RA              99408765    000102590000025900000570000003NN  NNW 000                       N    
RDG02637100WATRL000000004K00000000000001495007010162015104458N000000000000U40       000220400K 10000000010000001466           
