FHDNNNN024005206005206005269N                                                                                           018398
RHD09004900NN01490149000001490000000001340134000095NY013401340149001200090000000000000000000001    10092015NY020000 N         
CUS0900490000109442823002         CHARLES & BLACKSTONE3333 N CHARLES ST                       000N        CARE OF             
MTR09004900001000000000000000RA              8051955     000600010000000100000410000000NN  NNW 000   FIRE SERVICE        N    
RDG09004900WATRL000000006K00000000000002145000110242015120612N000000000010N93       000000600K 10000000010000002061           
CUS0900490000109442822004         WP& M REAL ESTATE GR3333 N CHARLES ST                       000N        CARE OF             
MTR09004900001000000000000000RA              60795954    000300020000000200000470000000NN  NNW 000                       N    
RDG09004900WATRL000000005K00000000000017450000210242015120620N000000000000N93       000080500K 10000000010000016361           
CUS0900490000109433452001         JOHNS HOPKINS UNIVER3505 N CHARLES ST                       000N        CARE OF             
MTR09004900001000000000000000RA              8047066     000600030000000300000380000000NN  NNW 000   FIRE SERVICE        N    
RDG09004900WATRL000000006K00000000000000001000310242015120623N000000000000N93       000030600K 10000000010000000001           
CUS0900490000109433454007         JOHNS HOPKINS, JHFRE3505 N CHARLES ST                       000N        CARE OF             
MTR09004900001000000000000000RA              99168646    001500040000000400000570000000NN  NNW 000                       N    
RDG09004900WATRL000000005K00000000000001199000410242015120626N000000000000N93       000030500K 10000000010000001187           
CUS0900490000109257561002         CARLTON CONDOMINIUM 3507-09 N CHARLES ST                    000N        CARE OF             
MTR09004900001000000000000000RA              01117221    000200050000000500000610000003NN  NNW 000                       N    
RDG09004900WATRL000000005K00000000000011592000510242015120631N000000000000N93       000050500K 10000000010000011454           
CUS0900490000109437737001         JOHN HOPKINS, JHFRE 3330 ST PAUL ST                         000N        CARE OF             
MTR09004900002000000000000000RA              8042238     000800060000000600000380000000NY  NNW 000   FIRE SERVICE        N    
MTM090049008042238     1dial                                                                                                  
RDG09004900WATAL000000006K00000000000000000000000000000000000 000000000000U         000000600  10000000010000000089           
RDG09004900WATBL000000006K00000000000000086000210282015111606N000400000010U93       000200600K 10000000010000000085           
CUS0900490000109437739007         JOHN HOPKINS, JHFRE 3330 ST PAUL ST                         000N        CARE OF             
MTR09004900002000000000000000RA              60000002    000600070000000700000460000000NN  NNW 000                       N    
RDG09004900WATAL000000006K00000000000027187000610242015120658N000400000010N93       000270600K 10000000010000025610           
RDG09004900WATBL000000006K00000000000001535000710242015120715N000300000010N93       000170600K 10000000010000009873           
CUS0900490000109385890000         BALTIMORE INTERNATIO3404 ST PAUL ST                         000N        CARE OF             
MTR09004900001000000000000000RA              35109481    000200080000000800000520000003NN  NNW 000                       N    
RDG09004900WATRL000000005K00000000000024346000810242015120724N000000000000N93       000090500K 10000000010000024147           
CUS0900490000109385889002         BALTIMORE INTERNATIO3404 ST PAUL ST                         000N        CARE OF             
MTR09004900001000000000000000RA              E21149      000600090000000900000430000003NN  NNW 000   FIRE SERVICE        N    
RDG09004900WATRL000000006K00000000000000000000910242015120728N000000000000N93       000040600K 10000000010000000000           
CUS0900490000109403632004         JOHNS HOPKINS UNIVER3301 ST PAUL ST                         000N        CARE OF             
MTR09004900001000000000000000RA              7234080     000600100000001000000340000003NN  NNW 000   FIRE SERVICE        N    
RDG09004900WATRL000000006K00000000000000001001010242015120730N000000000000N93       000020600K 10000000010000000001           
CUS0900490000109439750002         VILLAGE LOFT CONDOMI3201 ST PAUL ST                         000N        CARE OF             
MTR09004900001000000000000000RA              01025953    000400110000001100000460000003NN  NNW 000                       N    
RDG09004900WATRL000000006K00000000000020253001110242015120736N000000000000N93       000060600K 10000000010000019191           
CUS0900490000103447057005         CHIPOLTE MEXICAN GRI3201 ST PAUL ST                         000N        CARE OF             
MTR09004900001000000000000000RA              99999999    005800120000001200000680000003NN  NNW 000                       N    
RDG09004900WATRL000000004K00000000000000000000310282015111648S040000000000U93       000420400K 10000000010000002592           
CUS0900490000109439748006         VILLAGE LOFTS CONDOM3201 ST PAUL ST                         000N        CARE OF             
MTR09004900001000000000000000RA              8047231     000600130000001300000380000000NN  NNW 000   FIRE SERVICE        N    
RDG09004900WATRL000000006K00000000000000000001210242015120753N000000000000N93       000170600K 10000000010000000000           
CUS0900490000109410493002         UNION MEMORIAL HOSPI3400 N CALVERT ST                       000N        CARE OF             
MTR09004900001000000000000000RA              01105068    001500140000001400000610000000NN  NNW 000                       N    
RDG09004900WATRL000000005K00000000000002777001310242015120759N000300000010N93       000060500K 10000000010000002723           
CUS0900490000109410491006         UNION MEMORIAL HOSPI3400 N CALVERT ST                       000N        CARE OF             
MTR09004900001000000000000000RA              8032143     000600150000001500000380000000NN  NNW 000   FIRE SERVICE        N    
RDG09004900WATRL000000006K00000000000000000001410242015120803N000000000000N93       000040600K 10000000010000000000           
CUS0900490000109410523006         UNION MEMORIAL HOSPI110 E 33RD ST                           000N        CARE OF             
MTR09004900001000000000000000RA              31664178    001500160000001600000520000003NN  NNW 000                       N    
RDG09004900WATRL000000005K00000000000005342001510242015120808N000000000000N93       000050500K 10000000010000005289           
CUS0900490000109410519004         UNION MEMORIAL HOSPI110 E 33RD ST                           000N        CARE OF             
MTR09004900001000000000000000RA              8032200     000400170000001700000380000003NN  NNW 000   FIRE SERVICE        N    
RDG09004900WATRL000000006K00000000000000002001610242015120814N000000000000N93       000060600K 10000000010000000002           
CUS0900490000109410524004         UNI0N MEMORIAL HOSPI3311 N CALVERT ST                       000N        CARE OF             
MTR09004900001000000000000000RA              45382537    005800180000001800000520000003NN  NNW 000                       N    
RDG09004900WATRL000000004K00000000000000000001710242015120817N000000000000N93       000030400K 10000000010000000000           
CUS0900490000109410521000         UNION MEMORIAL HOSPT3311 N CALVERT ST                       000N        CARE OF             
MTR09004900001000000000000000RA              8032147     000600190000001900000380000003NN  NNW 000   FIRE SERVICE        N    
RDG09004900WATRL000000006K00000000000001132001810242015120827N000000000000N93       000100600K 10000000010000001118           
CUS0900490000109410527007         UNION MEMORIAL HOSPI3310 N CALVERT ST                       000N        CARE OF             
MTR09004900001000000000000000RA              37690700    000100200000002000000520000003NN  NNW 000                       N    
RDG09004900WATRL000000004K00000000000001306001910242015120834N000000000000N93       000070400K 10000000010000001303           
CUS0900490000109410525001         UNION MEMORIAL HOSPI3310 N CALVERT ST                       000N        CARE OF             
MTR09004900001000000000000000RA              8023198     000400210000002100000340000003NN  NNW 000   FIRE SERVICE        N    
RDG09004900WATRL000000006K00000000000000012002010242015120838N000000000000N93       000040600K 10000000010000000012           
CUS0900490000109257588005         MARYLANDER ASSOCIATE3501 ST PAUL ST                         000N        CARE OF             
MTR09004900002000000000000000RA              5461294     000400220000002200000480000003NY  NNW 000                       N    
MTM090049005461294     read ok             not reg                                                                            
RDG09004900WATAL000000006K00000000000039148002110242015120855N000300000010N93       000170600K 10000000010000042049           
RDG09004900WATBL000000006K00000000000021631002210242015120915N000300000010N93       000200600K 10000000010000025528           
CUS0900490000109257587007         MARYLANDER ASSOCIATE3501 ST PAUL ST                         000N        CARE OF             
MTR09004900002000000000000000RA              2564340     000400230000002300000480000003NN  NNW 000   VACANT PROPERTY     N    
RDG09004900WATAL000000006K00000000000000000002310242015120947N000000000000N93       000320600K 10000000010000000000           
RDG09004900WATBL000000006K00000000000002304002410242015120955N000100000010N93       000080600K 10000000010000002304           
CUS0900490000109257595000         GUILFORD COURT, LLC 300A E UNIVERSITY PKWY                  000N        CARE OF             
MTR09004900001000000000000000RA              29768533    000200240000002400000520000003NN  NNW 000                       N    
RDG09004900WATRL000000005K00000000000020905002510242015121001N000000000000N93       000060500K 10000000010000020734           
CUS0900490000109395178008         JAPAK, LLC          3240 GREENMOUNT AVE                     000N        CARE OF             
MTR09004900001000000000000000RA              99169978    000200250000002500000570000003NN  NNW 000                       N    
RDG09004900WATRL000000005K00000000000011844002610242015121007N000000000000N93       000060500K 10000000010000011696           
CUS0900490000109367353001         MAVERICK 3203 GREENM3203 GREENMOUNT AVE                     000N        CARE OF             
MTR09004900001000000000000000RA              30523642    005800260000002600000520000003NN  NNW 000                       N    
RDG09004900WATRL000000004K00000000000003238002710242015121013N000000000000N93       000060400K 10000000010000003211           
CUS0900490000109367352003         MAVERICK 3203 GREENM3203 GREENMOUNT AVE                     000N        CARE OF             
MTR09004900001000000000000000RA              E16206      000600270000002700000430000003NN  NNW 000   FIRE SERVICE        N    
RDG09004900WATRL000000006K00000000000000004002810242015121017N000000000000N93       000040600K 10000000010000000004           
CUS0900490000109257597006         3040 GREENMOUNT LLC 3042 GREENMOUNT AVE                     000N        CARE OF             
MTR09004900001000000000000000RA              31938279    001500280000002800000520000003NN  NNW 000                       N    
RDG09004900WATRL000000005K00000000000004324002910242015121022N000000000000N93       000050500K 10000000010000004302           
CUS0900490000109422218009         JHQ PROPERTIES LLC  3007 GREENMOUNT AVE                     000N        CARE OF             
MTR09004900001000000000000000RA              1476483     000200290000002900000490000003NN  NNW 000                       N    
RDG09004900WATRL000000005K00000000000073716003010242015121028N000000000000N93       000060500K 10000000010000072688           
CUS0900490000109257596008         SNYDER, ROSALIND (LI3302-06 GREENMOUNT AVE                  000N        CARE OF             
MTR09004900001000000000000000RA              9411386     000300300000003000000640000003NY  NNW 000                       N    
MTM090049009411386     cond                                                                                                   
RDG09004900WATRL000000005K00000000000000000003110242015121032S005000000000U93       000040500K 10000000010000001289           
CUS0900490000109257581000         BRODY, BARBARA C    101 STRATFORD RD                        000N        CARE OF             
MTR09004900001000000000000000RA              14914832    001500310000003100000310000003NN  NNW 000                       N    
RDG09004900WATRL000000005K00000000000004118003210242015121037N000000000000N93       000050500K 10000000010000004024           
CUS0900490000109373842005         STRATFORD GREEN     4310 UNDERWOOD RD                       000N        CARE OF             
MTR09004900001000000000000000RA              1115123     000200320000003200000490000003NN  NNW 000                       N    
RDG09004900WATRL000000005K00000000000027330003310242015121042N000000000000N93       000050500K 10000000010000026643           
CUS0900490000109257580002         FLEMING, BRUCE & LIN225 NORTHWAY                            000N        CARE OF             
MTR09004900001000000000000000RA              52291031    000100330000003300000520000003NN  NNW 000                       N    
RDG09004900WATRL000000004K00000000000004224003410242015121046N000000000000N93       000040400K 10000000010000004172           
CUS0900490000109257579004         BUREAU OF WATER SUPP4428 UNDERWOOD RD                       000N        CARE OF             
MTR09004900001000000000000000RA              1150681     000300340000003400000490000000NN  NNW 000                       N    
RDG09004900WATRL000000005K00000000000000985003510242015121049N000000000000N93       000030500K 10000000010000000985           
CUS0900490000109411021000         BUREAU OF WATER SUPP4428 UNDERWOOD RD                       000N        CARE OF             
MTR09004900001000000000000000RA              01117273    000200350000003500000610000003NN  NNW 000                       N    
RDG09004900WATRL000000005K00000000000000000003610242015121103N000000000000N93       000140500K 10000000010000000000           
CUS0900490000109408641000         AN, HYUN SOOK       4520 YORK RD                            000N        CARE OF             
MTR09004900001000000000000000RA              1421384     000400360000003600000470000003NN  NNW 000                       N    
RDG09004900WATRL000000006K00000000000013530003710242015121108N000000000000N93       000050600K 10000000010000012945           
CUS0900490000109375010007         LOYOLA COLLEGE IN MD4501 N CHARLES ST                       000N        CARE OF             
MTR09004900002000000000000000RA              7045847     000800370000003700000630000003NN  NNW 000                       N    
RDG09004900WATAL000000006K00000000000000001003810242015121114N000100000010N93       000060600K 10000000010000000001           
RDG09004900WATBL000000006K00000000000007614003910242015121122N000400000010N93       000080600K 10000000010000006852           
CUS0900490000109428245006         LOYOLA COLLEGE IN MD4501 N CHARLES ST                       000N        CARE OF             
MTR09004900002000000000000000RA              70073529    000800380000003800000560000000NN  NNW 000                       N    
RDG09004900WATAL000000006K00000000000000538004010242015121130N000400000010N93       000080600K 10000000010000000521           
RDG09004900WATBL000000006K00000000000004455004110242015121145N000400000010N93       000150600K 10000000010000004183           
CUS0900490000109257565003         JOHNS HOPKINS UNIVER4545 N CHARLES ST                       000N        CARE OF             
MTR09004900001000000000000000RA              90000071    000200390000003900000570000003NN  NNW 000                       N    
RDG09004900WATRL000000005K00000000000005350004210242015121155N000000000000N93       000100500K 10000000010000005098           
CUS0900490000109257566001         JOHNS HOPKINS UNIVER4545 N CHARLES ST                       000N        CARE OF             
MTR09004900002000000000000000RA              1551613     000600400000004000000390000000NN  NNW 000   FIRE SERVICE        N    
RDG09004900WATAL000000006K00000000000000022000410282015111825N000000000010U93       000970600K 10000000010000000016           
RDG09004900WATBL000000006K00000000000000005000510282015111829N000400000010U93       000040600K 10000000010000000003           
CUS0900490000109257569005         VILLAGES @ HOMELAND 311 HOMELAND AVE                        000N        CARE OF             
MTR09004900002000000000000000RA              0200751     000600410000004100000540000003NN  NNW 000                       N    
RDG09004900WATAL000000006K00000000000000006000610282015111839N000100000010U93       000100600K 10000000010000000006           
RDG09004900WATBL000000006K00000000000065428000710282015111845N000400000010U93       000060600K 10000000010000058366           
CUS0900490000109257571001         VILLAGE OF HOMELAND 401-11 HOMELAND AVE                     000N        CARE OF             
MTR09004900002000000000000000RA              6047495     000600420000004200000540000003NY  NNW 000                       N    
MTM090049006047495     4fig                                                                                                   
RDG09004900WATAL000000006K00000000000000000000810282015111852N000100000010U93       000070600K 10000000010000000000           
RDG09004900WATBL000000006K00000000000007430000910282015111907N000300000010U93       000150600K 10000000010000022928           
CUS0900490000109442371002         GREATER TEXAS       5230 YORK RD                            000N        CARE OF             
MTR09004900001000000000000000RA              61381515    000400430000004300000470000000NN  NNW 000                       N    
RDG09004900WATRL000000006K00000000000000000001010282015111912S063000000000U93       000050600K 10000000010000000377           
CUS0900490000109442369006         GREATER TEXAS       5230 YORK RD                            000N        CARE OF             
MTR09004900001000000000000000RA              99999999    000400440000004400000440000000NN  NNW 000   FIRE SERVICE        N    
RDG09004900WATRL000000006K00000000000000000001110282015111915N000000000000U93       000030600K 10000000010000000000           
CUS0900490000109257573007         HABC 16-71          5218-22 YORK RD                         000N        CARE OF             
MTR09004900001000000000000000RA              1385687     000400450000004500000490000003NN  NNW 000                       N    
RDG09004900WATRL000000006K00000000000096255001210282015111919N000000000000U93       000040600K 10000000010000093418           
CUS0900490000109257572009         HABC 16-71          5218-22 YORK RD                         000N        CARE OF             
MTR09004900001000000000000000RA              5183744     000600460000004600000410000003NN  NNW 000   CITY FIRE SERV      N    
RDG09004900WATRL000000006K00000000000000454001310282015111925N000000000010U93       000060600K 10000000010000000453           
CUS0900490000109381734004         LOYOLA COLLEGE IN MD430 NOTRE DAME LN                       000N        CARE OF             
MTR09004900002000000000000000RA              7102374     000600470000004700000630000000NN  NNW 000                       N    
RDG09004900WATAL000000006K00000000000000000001410282015111927N000000000000U93       000020600K 10000000010000000000           
RDG09004900WATBL000000006K00000000000000002001510282015111931N000400000010U93       000040600K 10000000010000000001           
CUS0900490000109419491007         GALLAGEHER MANSION I431 NOTRE DAME LN                       000N        CARE OF             
MTR09004900001000000000000000RA              8036086     000400480000004800000380000003NN  NNW 000   FIRE SERVICE        N    
RDG09004900WATRL000000006K00000000000000004001610282015111933N000000000000U93       000020600K 10000000010000000004           
CUS0900490000109419493003         GALLAGEHER MANSION 0431 NOTRE DAME LN                       000N        CARE OF             
MTR09004900001000000000000000RA              1401280     000300490000004900000470000003NY  NNW 000                       N    
MTM090049001401280     k                                                                                                      
RDG09004900WATRL000000005K00000000000010303001710282015111942N000300000010U93       000090500K 10000000010000010310           
CUS0900490000109445910004         LOYOLA UNIVERSITY   417 NOTRE DAME LN                       000N        CARE OF             
MTR09004900001000000000000000RA              90000189    000200500000005000000570000003NN  NNW 000                       N    
RDG09004900WATRL000000005K00000000000005305001810282015111945N000000000000U93       000030500K 10000000010000005031           
CUS0900490000109257576000         LOYOLA COLLEGE IN MD200 WINSTON AVE                         000N        CARE OF             
MTR09004900002000000000000000RA              5003425     000600510000005100000630000003NN  NNW 000                       N    
RDG09004900WATAL000000006K00000000000000012001910282015111949N000100000010U93       000040600K 10000000010000000012           
RDG09004900WATBL000000006K00000000000030463002010282015111955N000400000010U93       000060600K 10000000010000028259           
CUS0900490000109420658008         CVS SITE            5200 YORK RD                            000N        CARE OF             
MTR09004900001000000000000000RA              45388803    007500520000005200000520000003NN  NNW 000                       N    
RDG09004900WATRL000000004K00000000000005169002110282015112001N000000000000U93       000060400K 10000000010000005150           
CUS0900490000109257575002         5010 YORK ROAD REAL 5010 YORK RD                            000N        CARE OF             
MTR09004900001000000000000000RA              00066656    000200530000005300000570000003NN  NNW 000                       N    
RDG09004900WATRL000000005K00000000000006556002210282015112003N000000000000U93       000020500K 10000000010000006354           
CUS0900490000109437730006         THE ARC OF BALTIMORE4800 YORK RD                            000N        CARE OF             
MTR09004900001000000000000000RA              8046585     000400540000005400000380000000NN  NNW 000   FIRE SERVICE        N    
RDG09004900WATRL000000006K00000000000000001002310282015112005N000000000000U93       000020600K 10000000010000000001           
CUS0900490000109437732002         THE ARC OF BALTIMORE4800 YORK RD                            000N        CARE OF             
MTR09004900001000000000000000RA              01105841    000200550000005500000610000003NN  NNW 000                       N    
RDG09004900WATRL000000005K00000000000002485002410282015112008N000000000000U93       000030500K 10000000010000002406           
CUS0900490000109257577008         U S POSTAL SERVICE  4902-06 YORK RD                         000N        CARE OF             
MTR09004900001000000000000000RA              01105915    000200560000005600000610000003NY  NNW 000                       N    
MTM0900490001105915    k                                                                                                      
RDG09004900WATRL000000005K00000000000001031002510282015112016N000300000010U93       000080500K 10000000010000001277           
CUS0900490000109257606005         SLH PROPERTIES LIMIT2920 GREENMOUNT AVE                     000N        CARE OF             
MTR09004900001000000000000000RA              99999999    000200570000005700000620000003NN  NNW 000   FERRULE APPLIED     N    
RDG09004900WATRL000000005K00000000000000000002610282015112020S002000000000U93       000040500K 10000000010000000000           
CUS0900490000109257605007         SLH PROPERTIES LIMIT2920 GREENMOUNT AVE                     000N        CARE OF             
MTR09004900001000000000000000RA              5183739     000600580000005800000410000003NN  NNW 000   FIRE SERVICE        N    
RDG09004900WATRL000000006K00000000000000032002710282015112042N000000000000U93       000220600K 10000000010000000032           
CUS0900490000109257610007         SALVATION ARMY, THE 400 E 29TH ST                           000N        CARE OF             
MTR09004900001000000000000000RA              01105417    001500590000005900000440000003NN  NNW 000   VACANT PROPERTY     N    
RDG09004900WATRL000000005K00000000000000926002810282015112045N000000000000U93       000030500K 10000000010000000926           
CUS0900490000109257608001         SALVATION ARMY, THE 400 E 29TH ST                           000N        CARE OF             
MTR09004900001000000000000000RA              3051280     000400600000006000000410000003NN  NNW 000   FIRE SERVICE        N    
RDG09004900WATRL000000006K00000000000000004002910282015112048N000000000000U93       000030600K 10000000010000000004           
CUS0900490000109257607003         DEPT. OF EDUCATION  2900 BARCLAY ST                         000N        CARE OF             
MTR09004900001000000000000000RA              9504076     000300610000006100000640000003NN  NNW 000                       N    
RDG09004900WATRL000000005K00000000000016751003010282015112053N000000000000U93       000050500K 10000000010000015217           
CUS0900490000109257609009         DEPT. OF EDUCATION  2900 BARCLAY ST                         000N        CARE OF             
MTR09004900001000000000000000RA              3359768     000600620000006200000410000003NN  NNW 000   CITY FIRE SERV      N    
RDG09004900WATRL000000006K00000000000000000003110282015112056N000000000000U93       000030600K 10000000010000000000           
CUS0900490000109257602004         PEABODY APARTMENTS, 201-05 E 30TH ST                        000N        CARE OF             
MTR09004900001000000000000000RA              31588353    000200630000006300000520000003NN  NNW 000                       N    
RDG09004900WATRL000000005K00000000000040456003210282015112059N000000000000U93       000030500K 10000000010000040295           
CUS0900490000109257601006         GILMAN PROPERTIES, I3025-43 N CALVERT ST                    000N        CARE OF             
MTR09004900001000000000000000RA              51476589    000200640000006400000520000003NN  NNW 000                       N    
RDG09004900WATRL000000005K00000000000036406003310282015112103N000000000000U93       000040500K 10000000010000036058           
CUS0900490000109257600008         CALVERT COURT CO    3024 N CALVERT ST                       000N        CARE OF             
MTR09004900001000000000000000RA              01117064    000200650000006500000610000003NY  NNW 000                       N    
MTM0900490001117064    locked                                                                                                 
RDG09004900WATRL000000005K00000000000000000000000000000000000 000000000000U         000000500  10000000010000010972           
CUS0900490000109257599002         QUASAR PROPERTIES LL220 E 31ST ST                           000N        CARE OF             
MTR09004900001000000000000000RA              33084130    000200660000006600000520000003NY  NNW 000                       N    
MTM0900490033084130    locked                                                                                                 
RDG09004900WATRL000000005K00000000000000000000000000000000000 000000000000U         000000500  10000000010000030086           
CUS0900490000109257598004         QUASAR PROPERTIES LL220 E 31ST ST                           000N        CARE OF             
MTR09004900001000000000000000RA              6030926     000400670000006700000410000003NY  NNW 000   FIRE SERVICE        N    
MTM090049006030926     locked                                                                                                 
RDG09004900WATRL000000006K00000000000000000000000000000000000 000000000000U         000000600  10000000010000000000           
CUS0900490000109367349009         VERIZON             210 E 31ST ST                           000N        CARE OF             
MTR09004900001000000000000000RA              00066659    000200680000006800000570000003NN  NNW 000                       N    
RDG09004900WATRL000000005K00000000000000420003410282015112147N000300000010U93       000440500K 10000000010000000355           
CUS0900490000109367348001         C & P TELEPHONE CO  210 E 31ST ST                           000N        CARE OF             
MTR09004900001000000000000000RA              E13204      000400690000006900000430000003NN  NNW 000   FIRE SERVICE        N    
RDG09004900WATRL000000006K00000000000000000003510282015112149N000000000000U93       000020600K 10000000010000000000           
CUS0900490000109257612003         HABC                401 E 25TH ST                           000N        CARE OF             
MTR09004900001000000000000000RA              9310128     000400700000007000000640000003NN  NNW 000                       N    
RDG09004900WATRL000000006K00000000000051968003610282015112158N000300000010U93       000090600K 10000000010000049649           
CUS0900490000109257611005         HOUSING AUTHORITY   401 E 25TH ST                           000N        CARE OF             
MTR09004900001000000000000000RA              5603847     000600710000007100000410000003NY  NNW 000   CITY FIRE SERV      N    
MTM090049005603847     cond                                                                                                   
RDG09004900WATRL000000006K00000000000000000000000000000000000 000000000000U         000000600  10000000010000005366           
CUS0900490000109436965009         MANNER HOUSE INC    437 E 25TH ST                           000N        CARE OF             
MTR09004900001000000000000000RA              8046052     000400720000007200000380000003NN  NNW 000   FIRE SERVICE        N    
RDG09004900WATRL000000006K00000000000000000003710282015112206N000000000000U93       000080600K 10000000010000000000           
CUS0900490000109436967005         MANNER HOUSE INC    437 E 25TH ST                           000N        CARE OF             
MTR09004900001000000000000000RA              01105356    001500730000007300000610000000NN  NNW 000                       N    
RDG09004900WATRL000000005K00000000000003377003810282015112210N000000000000U93       000040500K 10000000010000003303           
CUS0900490000109257613001         MARYLAND 25, LLC    2434-44 GREENMOUNT AVE                  000N        CARE OF             
MTR09004900001000000000000000RA              01105806    000200740000007400000610000003NN  NNW 000                       N    
RDG09004900WATRL000000005K00000000000002412003910282015112216N000400000010U93       000060500K 10000000010000002402           
CUS0900490000109257614009         MARYLAND 25, LLC    2434-44 GREENMOUNT AVE                  000N        CARE OF             
MTR09004900001000000000000000RA              1105119     000800750000007500000410000000NN  NNW 000   FIRE SERVICE        N    
RDG09004900WATRL000000006K00000000000000000004010282015112218N000000000000U93       000020600K 10000000010000000000           
CUS0900490000109257617002         DHCD                1812-22 GREENMOUNT AVE                  000N        CARE OF             
MTR09004900001000000000000000RA              0908785     000300760000007600000640000003NN  NNW 000                       N    
RDG09004900WATRL000000005K00000000000001365004110282015112220N000000000000U93       000020500K 10000000010000001193           
CUS0900490000109454242000         2007 BARCLAY LLC    400-412 E 20TH ST                       000N        CARE OF             
MTR09004900001000000000000000RA              0006702     000400770000007700000640000003NN  NNW 000   FIRE SERVICE        N    
RDG09004900WATRL000000006K00000000000000000004210282015112237N000000000000U93       000170600K 10000000010000000000           
CUS0900490000109454243008         2007 BARCLAY LLC    400-412 E 20TH ST                       000N        CARE OF             
MTR09004900001000000000000000RA              70000082    001500780000007800000570000003NN  NNW 000                       N    
RDG09004900WATRL000000005K00000000000001611004310282015112240N000000000000U93       000030500K 10000000010000001380           
CUS0900490000109454249005         2007 BARCLAY LLC    420-428 E 20TH ST                       000N        CARE OF             
MTR09004900001000000000000000RA              0006719     000400790000007900000570000003NN  NNW 000   FIRE SERVICE        N    
RDG09004900WATRL000000006K00000000000000001004410282015112242N000000000000U93       000020600K 10000000010000000001           
CUS0900490000109454250003         2007 BARCLAY LLC    420-428 E 20TH ST                       000N        CARE OF             
MTR09004900001000000000000000RA              70000071    001500800000008000000570000003NN  NNW 000                       N    
RDG09004900WATRL000000005K00000000000000886004510282015112244N000000000000U93       000020500K 10000000010000000734           
CUS0900490000109454245003         HABC/HOUSING AUTH   401-427 E 20TH ST                       000N        CARE OF             
MTR09004900001000000000000000RA              0006918     000600810000008100000570000000NN  NNW 000   FIRE SERVICE        N    
RDG09004900WATRL000000006K00000000000000002004610282015112246N000000000000U93       000020600K 10000000010000000002           
CUS0900490000109454246001         2007 BARCLAY LLC    401-427 E 20TH ST                       000N        CARE OF             
MTR09004900001000000000000000RA              74032974    000400820000008200000460000000NN  NNW 000                       N    
RDG09004900WATRL000000006K00000000000001642004710282015112250N000000000000U93       000040600K 10000000010000001433           
CUS0900490000109454248007         2007 BARCLAY LLC    427-433 E 21ST ST                       000N        CARE OF             
MTR09004900001000000000000000RA              90000262    001500830000008300000570000003NN  NNW 000                       N    
RDG09004900WATRL000000005K00000000000000933004810282015112252N000000000000U93       000020500K 10000000010000000739           
CUS0900490000109444455001         MOTHER SETON ACADEMY2209 GREENMOUNT AVE                     000N        CARE OF             
MTR09004900001000000000000000RA              8053232     000600840000008400000410000000NN  NNW 000   FIRE SERVICE        N    
RDG09004900WATRL000000006K00000000000000002004910282015112254N000000000000U93       000020600K 10000000010000000002           
CUS0900490000109444457007         MOTHER SETON ACADEMY2215 GREENMOUNT AVE                     000N        CARE OF             
MTR09004900001000000000000000RA              90000007    000200850000008500000570000000NN  NNW 000                       N    
RDG09004900WATRL000000005K00000000000001306005010282015112257N000000000000U93       000030500K 10000000010000001253           
CUS0900490000109257618000         BALTIMORE METROPOLIT425 E FEDERAL ST                        000N        CARE OF             
MTR09004900002000000000000000RA              5364241     000400860000008600000480000003NN  NNW 000                       N    
RDG09004900WATAL000000006K00000000000000001005110282015112301N000100000010U93       000040600K 10000000010000000001           
RDG09004900WATBL000000006K00000000000001032005210282015112306N000400000010U93       000050600K 10000000010000001017           
CUS0900490000109257620006         C&H REALTY          419-31 E OLIVER ST                      000N        CARE OF             
MTR09004900001000000000000000RA              31588422    000200870000008700000520000003NN  NNW 000                       N    
RDG09004900WATRL000000005K00000000000009385005310282015112309N000000000000U93       000030500K 10000000010000009133           
CUS0900490000109257622002         1400 GREENMOUNT, LLC1400-10 GREENMOUNT AVE                  000N        CARE OF             
MTR09004900001000000000000000RA              41091114    001500880000008800000520000003NN  NNW 000                       N    
RDG09004900WATRL000000005K00000000000000788005410282015112312N000000000000U93       000030500K 10000000010000000782           
CUS0900490000109257621004         1400 GREENMOUNT, LLC1400-10 GREENMOUNT AVE                  000N        CARE OF             
MTR09004900001000000000000000RA              1162432     000400890000008900000410000003NN  NNW 000   FIRE SERVICE        N    
RDG09004900WATRL000000006K00000000000000000005510282015112315S005000000000U93       000030600K 10000000010000000435           
CUS0900490000109454560005         LJ JOHNSON SQUARE, L1303 GREENMOUNT AVE                     000N        CARE OF             
MTR09004900001000000000000000RA              99999999    000600900000009000000440000000NN  NNW 000   FIRE SERVICE        N    
RDG09004900WATRL000000006K00000000000000121005610282015112318N000000000000U93       000030600K 10000000010000000121           
CUS0900490000109454562001         LJ JOHNSON SQUARE, L1303 GREENMOUNT AVE                     000N        CARE OF             
MTR09004900001000000000000000RA              99999999    000200910000009100000440000000NN  NNW 000                       N    
RDG09004900WATRL000000005K00000000000005467005710282015112320N000000000000U93       000020500K 10000000010000004891           
CUS0900490000109257624008         GENERAL GREENE LIMIT1200 GREENMOUNT AVE                     000N        CARE OF             
MTR09004900001000000000000000RA              1279010     000300920000009200000490000003NY  NNW 000                       N    
MTM090049001279010     locked                                                                                                 
RDG09004900WATRL000000005K00000000000000000000000000000000000 000000000000U         000000500  10000000010000043767           
CUS0900490000109445614002         HOUSING AUTHORITY OF800 E PRESTON ST                        000N        CARE OF             
MTR09004900001000000000000000RA              99999999    001500930000009300000440000003NN  NNW 000                       N    
RDG09004900WATRL000000005K00000000000001192005810282015112331N000000000000U93       000110500K 10000000010000001143           
CUS0900490000109445622005         HOUSING AUTHORITY   802 E PRESTON ST                        000N        CARE OF             
MTR09004900001000000000000000RA              99999999    001500940000009400000440000003NN  NNW 000                       N    
RDG09004900WATRL000000005K00000000000001337005910282015112333N000000000000U93       000020500K 10000000010000001276           
CUS0900490000109445624001         HOUSING AUTHORITY OF836 E PRESTON ST                        000N        CARE OF             
MTR09004900001000000000000000RA              99999999    001500950000009500000440000003NN  NNW 000                       N    
RDG09004900WATRL000000005K00000000000001342006010282015112405N000000000000U93       000320500K 10000000010000001265           
CUS0900490000109445625008         HOUSING AUTHORITY OF838 E PRESTON ST                        000N        CARE OF             
MTR09004900001000000000000000RA              99999999    001500960000009600000440000003NN  NNW 000                       N    
RDG09004900WATRL000000005K00000000000001161006110282015112408N000000000000U93       000030500K 10000000010000001086           
CUS0900490000109257625005         IN SEON LEE         508 E PRESTON ST                        000N        CARE OF             
MTR09004900001000000000000000RA              31346516    001500970000009700000520000003NN  NNW 000                       N    
RDG09004900WATRL000000005K00000000000018213006210282015112424N000000000010U93       000160500K 10000000010000018073           
CUS0900490000109257626003         TRAVAJU, LLC        439-57 E PRESTON ST                     000N        CARE OF             
MTR09004900001000000000000000RA              28594308    000200980000009800000520000003NN  NNW 000   VACANT PROPERTY     N    
RDG09004900WATRL000000005K00000000000000437006310282015112426N000000000000U93       000020500K 10000000010000000437           
CUS0900490000109257627001         KOMAR PROP LMT PRTNS424-28 E PRESTON ST                     000N        CARE OF             
MTR09004900001000000000000000RA              01116847    000200990000009900000610000003NN  NNW 000                       N    
RDG09004900WATRL000000005K00000000000002671006410282015112428N000000000000U93       000020500K 10000000010000002585           
CUS0900490000109428024005         PEOPLE'S COMMUNITY H1726-34 MARYLAND AVE                    000N        CARE OF             
MTR09004900001000000000000000RA              8040715     000601000000010000000380000003NN  NNW 000   FIRE SERVICE        N    
RDG09004900WATRL000000006K00000000000000001006510282015112431N000000000000U93       000030600K 10000000010000000001           
CUS0900490000109428026000         PEOPLE'S COMMUNITY H1726-34 MARYLAND AVE                    000N        CARE OF             
MTR09004900001000000000000000RA              54378028    000201010000010100000520000003NN  NNW 000                       N    
RDG09004900WATRL000000005K00000000000006016006610282015112438N000400000010U93       000070500K 10000000010000006015           
CUS0900490000109398845009         MARYLAND INSTITUTE, 1801 FALLS RD                           000N        CARE OF             
MTR09004900001000000000000000RA              99999999    000201020000010200000620000003NN  NNW 000                       N    
RDG09004900WATRL000000005K00000000000000000006710282015112441S022000000000U93       000030500K 10000000010000000000           
CUS0900490000109456187005         MD INSTITUTE COLLEGE1801 FALLS RD                           000N        CARE OF             
MTR09004900001000000000000000RA              1200255     000601030000010300000620000003NN  NNW 000   FIRE SERVICE        N    
RDG09004900WATRL000000006K00000000000000000006810282015112444S022000000000U93       000030600K 10000000010000000000           
CUS0900490000109456189001         MD INSTITUTE COLLEGE1801 FALLS RD                           000N        CARE OF             
MTR09004900001000000000000000RA              77859864    000301040000010400000000000003NY  NNW 000                       N    
MTM0900490077859864    ert                                                                                                    
RDG09004900WATRL000000005K00000000000000000000000000000000000 000000000000U         000000500  10000000010000000116           
CUS0900490000109257629007         BUREAU OF PARKS     1901-2001 FALLS RD                      000N        CARE OF             
MTR09004900001000000000000000RA              2191250     000601050000010500000410000003NN  NNW 000   CITY FIRE SERV      N    
RDG09004900WATRL000000006K00000000000000005006910282015112455N000000000000U93       000110600K 10000000010000000005           
CUS0900490000109257630005         BUR OF PARKS        1901-2001 FALLS RD                      000N        CARE OF             
MTR09004900001000000000000000RA              99376461    007501060000010600000570000003NN  NNW 000                       N    
RDG09004900WATRL000000004K00000000000000399007010282015112457N000000000000U93       000020400K 10000000010000000397           
CUS0900490000109257631003         STREET CAR MUSEUM IN1901-11 FALLS RD                        000N        CARE OF             
MTR09004900001000000000000000RA              01093805    005801070000010700000610000003NN  NNW 000                       N    
RDG09004900WATRL000000004K00000000000000000007110282015112500S063000000000U93       000030400K 10000000010000000410           
CUS0900490000109257635004         BUREAU OF HIGHWAYS  2601 FALLS RD                           000N        CARE OF             
MTR09004900001000000000000000RA              35116866    000201080000010800000520000003NN  NNW 000                       N    
RDG09004900WATRL000000005K00000000000005261007210282015112503N000000000000U93       000030500K 10000000010000005261           
CUS0900490000109257633009         MAYOR & CITY COUNCIL2601 FALLS RD                           000N        CARE OF             
MTR09004900002000000000000000RA              14931013    000601090000010900000460000003NN  NNW 000                       N    
RDG09004900WATAL000000006K00000000000000002009510282015124543N000100000010U93       046180600K 10000000010000000002           
RDG09004900WATBL000000006K00000000000000268009610282015124549N000400000010U93       000060600K 10000000010000000264           
CUS0900490000109434497005         MD INSTITUTE COLLEGE401 W NORTH AVE                         000N        CARE OF             
MTR09004900001000000000000000RA              01105594    000201100000011000000440000003NY  NNW 000                       N    
MTM0900490001105594    car                                                                                                    
RDG09004900WATRL000000005K00000000000000000000000000000000000 000000000000U         000000500  10000000010000016721           
CUS0900490000109257636002         POTTS & CALLAHAN    2801 FALLS RD                           000N        CARE OF             
MTR09004900001000000000000000RA              32905142    000201110000011100000520000003NY  NNW 000                       N    
MTM0900490032905142    k                                                                                                      
RDG09004900WATRL000000005K00000000000004738007310282015112553N000300000010U93       000500500K 10000000010000004768           
CUS0900490000109257638008         ROB SULLIVAN        2981 FALLS RD                           000N        CARE OF             
MTR09004900001000000000000000RA              39583508    005801120000011200000520000003NN  NNW 000                       N    
RDG09004900WATRL000000004K00000000000001996007410282015112556N000000000000U93       000030400K 10000000010000001964           
CUS0900490000109257637000         DOUGLAS G CARROLL   2981 FALLS RD                           000N        CARE OF             
MTR09004900001000000000000000RA              5380769     000601130000011300000410000003NN  NNW 000   FIRE SERVICE        N    
RDG09004900WATRL000000006K00000000000000000007510282015112600S005000000000U93       000040600K 10000000010000000653           
CUS0900490000109257641002         MT VERNON MILL LLC  3000 FALLS RD                           000N        CARE OF             
MTR09004900001000000000000000RA              1228581     000301140000011400000470000003NN  NNW 000                       N    
RDG09004900WATRL000000005K00000000000033411007610282015112615N000300000010U93       000150500K 10000000010000033404           
CUS0900490000109257640004         MT VERNON MILL LLC  3000 FALLS RD                           000N        CARE OF             
MTR09004900001000000000000000RA              5417354     000801150000011500000410000003NY  NNW 000   FIRE SERVICE        N    
MTM090049005417354     cond                                                                                                   
RDG09004900WATRL000000006K00000000000000000000000000000000000 000000000000U         000000600  10000000010000000775           
CUS0900490000109445909006         SPCA                3300 FALLS RD                           000N        CARE OF             
MTR09004900001000000000000000RA              90000219    000201160000011600000570000000NN  NNW 000                       N    
RDG09004900WATRL000000005K00000000000005744007710282015112641N000000000000U93       000260500K 10000000010000005445           
CUS0900490000109445904007         SPCA                3300 FALLS RD                           000N        CARE OF             
MTR09004900002000000000000000RA              10802470    000801170000011700000390000000NN  NNW 000   FIRE SERVICE        N    
RDG09004900WATAL000000006K00000000000000003007810282015112642N000000000000U93       000010600K 10000000010000000003           
RDG09004900WATBL000000000K00000000000000014007910282015112648N000400000010U93       000061000K 10000000010000000012           
CUS0900490000109257645003         RAY, DEAN T         2900 CHESTNUT AVE                       000N        CARE OF             
MTR09004900001000000000000000RA              30001983    007501180000011800000570000003NN  NNW 000                       N    
RDG09004900WATRL000000004K00000000000000095008010282015112651N000000000000U93       000030400K 10000000010000000086           
CUS0900490000109257644006         RAY, DEAN T         2900 CHESTNUT AVE                       000N        CARE OF             
MTR09004900001000000000000000RA              5125003     000401190000011900000410000003NN  NNW 000   FIRE SERVICE        N    
RDG09004900WATRL000000006K00000000000000102008110282015112657N000000000000U93       000060600K 10000000010000000102           
CUS0900490000109257639006         REMINGTON MILL CENTR3000 CHESTNUT AVE                       000N        CARE OF             
MTR09004900002000000000000000RA              1481433     000801200000012000000630000003NY  NNW 000                       N    
MTM090049001481433     cl                                                                                                     
RDG09004900WATAL000000006K00000000000000000000000000000000000 000000000000U         000000600  10000000010000000000           
RDG09004900WATBL000000006K00000000000000000000000000000000000 000000000000U         000000600  10000000010000013159           
CUS0900490000109433459006         IDF CHESTNUT SQUARE 3301 CHESTNUT AVE                       000N        CARE OF             
MTR09004900001000000000000000RA              8046666     000401210000012100000380000000NN  NNW 000   FIRE SERVICE        N    
RDG09004900WATRL000000006K00000000000000000008210282015112744N000000000000U93       000470600K 10000000010000000000           
CUS0900490000109433456002         IDF CHESTNUT SQUARE 3301 CHESTNUT AVE                       000N        CARE OF             
MTR09004900001000000000000000RA              00066619    000201220000012200000570000000NN  NNW 000                       N    
RDG09004900WATRL000000005K00000000000034243008310282015112748N000000000000U93       000040500K 10000000010000033836           
CUS0900490000109257647009         D & C MANAGEMENT, LL3200 FALLS CLIFF RD                     000N        CARE OF             
MTR09004900001000000000000000RA              01116736    000201230000012300000610000003NN  NNW 000                       N    
RDG09004900WATRL000000005K00000000000018052008410282015112807N000300000010U93       000190500K 10000000010000008921           
CUS0900490000109257649005         D & C MANAGEMENT, LL3100 FALLS CLIFF RD                     000N        CARE OF             
MTR09004900001000000000000000RA              29074679    000101240000012400000520000003NN  NNW 000                       N    
RDG09004900WATRL000000004K00000000000005617008510282015112810N000000000000U93       000030400K 10000000010000005601           
CUS0900490000109257648007         D & C MANAGEMENT, LL3100 FALLS CLIFF RD                     000N        CARE OF             
MTR09004900001000000000000000RA              1480438     000401250000012500000410000003NN  NNW 000   FIRE SERVICE        N    
RDG09004900WATRL000000006K00000000000000020008610282015112813N000000000000U93       000030600K 10000000010000000020           
CUS0900490000109410235007         CRITTENTON HILL, LLC3110-30 CRITTENTON PL                   000N        CARE OF             
MTR09004900001000000000000000RA              29768437    000201260000012600000520000003NN  NNW 000   VACANT PROPERTY     N    
RDG09004900WATRL000000005K00000000000024714008710282015112821N000000000000U93       000080500K 10000000010000024714           
CUS0900490000109410233002         CRITTENTON HILL, LLC3110-30 CRITTENTON PL                   000N        CARE OF             
MTR09004900001000000000000000RA              8032145     000601270000012700000380000003NN  NNW 000   FIRE SERVICE        N    
RDG09004900WATRL000000006K00000000000000000008810282015112823N000000000000U93       000020600K 10000000010000000000           
CUS0900490000109257650003         1899 LIMITED LIABILI3361 KESWICK RD                         000N        CARE OF             
MTR09004900001000000000000000RA              70921016    000201280000012800000490000003NN  NNW 000                       N    
RDG09004900WATRL000000005K00000000000000038008910282015112825N000000000000U93       000020500K 10000000010000000028           
CUS0900490000109444538004         1899 LLC            3355 KESWICK RD                         000N        CARE OF             
MTR09004900001000000000000000RA              90000070    000201290000012900000570000003NN  NNW 000                       N    
RDG09004900WATRL000000005K00000000000000965009010282015112828N000000000000U93       000030500K 10000000010000000847           
CUS0900490000109257651001         WYMAN COURT ASSOCIAT3500 BEECH AVE                          000N        CARE OF             
MTR09004900001000000000000000RA              7122475     000401300000013000000640000003NN  NNW 000                       N    
RDG09004900WATRL000000006K00000000000027916009110282015112831N000000000000U93       000030600K 10000000010000026525           
CUS0900490000109257585001         EDEN HALL CONDOM ASS3401 GREENWAY                           000N        CARE OF             
MTR09004900001000000000000000RA              1228447     000301310000013100000470000003NN  NNW 000                       N    
RDG09004900WATRL000000005K00000000000022481009210282015112834N000000000000U93       000030500K 10000000010000022348           
CUS0900490000109257583006         GENEVA CONDOMINIUM  3405 GREENWAY                           000N        CARE OF             
MTR09004900001000000000000000RA              9012817     000301320000013200000640000003NN  NNW 000                       N    
RDG09004900WATRL000000005K00000000000005823009310282015112838N000000000000U93       000040500K 10000000010000005521           
CUS0900490000104408639005         JESUIT COMMUNITY OF 4603 MILLBROOK RD                       000N        CARE OF             
MTR09004900001000000000000000RA              27567877    000201330000013300000520000003NN  NNW 000                       N    
RDG09004900WATRL000000005K00000000000026289009410282015112845N000000000000U93       000070500K 10000000010000026119           
CUS0900490000102375748007         BUREAU OF PARKS     2201 FALLS RD                           000N        CARE OF             
MTR09004900001000000000000000RA              52771479    007501340000013400000520000003NY  NNW 000                       N    
MTM0900490052771479    const                                                                                                  
RDG09004900WATRL000000004K00000000000000000000000000000000000 000000000000U         000000400  10000000010000000091           
RTR09004900NN01490149000001490000000001340134000095NY013401340149001200090000000000000000000001    10092015NY020000 N         
RHD09008800NN01540154000001540000000001290129000069NY012901290154001700170000000000000000000001    10092015NY020000 N         
CUS0900880000109457189000         LP TOWNS LLC        9999 ANDRE ST                           000N        CARE OF             
MTR09008800001000000000000000RA              60900653    000200010000000100000570000003NY  NNW 000                       N    
MTM0900880060900653    CONST                                                                                                  
RDG09008800WATRL000000005K00000000000000000000000000000000000 000000000000U         000000500  10000000010000000000           
CUS0900880000109457187004         LP TOWNS LLC        9999 ANDRE ST                           000N        CARE OF             
MTR09008800001000000000000000RA              1200836     000600020000000200000570000003NY  NNW 000   FIRE SERVICE        N    
MTM090088001200836     CONST                                                                                                  
RDG09008800WATRL000000006K00000000000000000000000000000000000 000000000000U         000000600  10000000010000000000           
CUS0900880000109291226000         MARYLAND PORT ADMIN 1101-2001 MCCOMAS ST                    000N        CARE OF             
MTR09008800002000000000000000RA              3478517     001200030000000300000540000003NY  NNW 000                       N    
MTM090088003478517                         ERROR                                                                              
RDG09008800WATAL000000007K00000000000009479000110212015112638N000000000010U84       000000700K 10000000010000005017           
RDG09008800WATBL000000007K00000000000000000000000000000000000 000000000000U         000000700  10000000010000021628           
CUS0900880000109372576000         CSX TRANS, INC      300 E MCCOMAS ST                        000N        CARE OF             
MTR09008800002000000000000000RA              7045905     000800040000000400000540000003NY  NNW 000                       N    
MTM090088007045905     OK                                                                                                     
RDG09008800WATAL000000006K00000000000000001000110202015120403N000100000010N84       000000600K 10000000010000000001           
RDG09008800WATBL000000006K00000000000000001000210202015120409N000100000010N84       000060600K 10000000010000000001           
CUS0900880000109291227008         MARYLAND PORT       SS MCCOMAS ST 225 FT                    000N        CARE OF             
MTR09008800002000000000000000RA              7108803     001200050000000500000540000003NY  NNW 000                       N    
MTM090088007108803     OK                                                                                                     
RDG09008800WATAL000000007K00000000000000831000310202015120430N000300000010N84       000210700K 10000000010000000083           
RDG09008800WATBL000000007K00000000000005802000410202015120441N000400000010N84       000110700K 10000000010000005543           
CUS0900880000109372784000         MARYLAND PORT AUTHOR2101 E MCCOMAS ST                       000N        CARE OF             
MTR09008800002000000000000000RA              7045960     000800060000000600000630000003NY  NNW 000                       N    
MTM090088007045960     OK                    ERT                                                                              
RDG09008800WATAL000000006K00000000000000169000210212015112741N000000000010U84       000630600K 10000000010000000014           
RDG09008800WATBL000000006K00000000000000000000000000000000000 000000000000U         000000600  10000000010000000000           
CUS0900880000109349264003         BUREAU OF ENGINEERIN1800 KEY HWY                            000N        CARE OF             
MTR09008800001000000000000000RA              99999999    000200070000000700000620000003NN  NNW 000                       N    
RDG09008800WATRL000000005K00000000000000159000510202015120523N000000000010N84       000420500K 10000000010000000158           
CUS0900880000109291229004         AMERICAN SUGAR TRUCK1022 KEY HWY                            000N        CARE OF             
MTR09008800001000000000000000RA              99999999    000100080000000800000620000003NN  NNW 000                       N    
RDG09008800WATRL000000004K00000000000000000000610202015120527S022000000000N84       000040400K 10000000010000000698           
CUS0900880000109291230002         KEY HIGHWAY 1000 EAS1000 KEY HWY                            000N        CARE OF             
MTR09008800001000000000000000RA              35113497    007500090000000900000520000003NY  NNW 000                       N    
MTM0900880035113497    OK                                                                                                     
RDG09008800WATRL000000004K00000000000006739000710202015120624N000300000010N84       000570400K 10000000010000006911           
CUS0900880000109436968003         HARBORVIEW MARINA & 1101 KEY HWY                            000N        CARE OF             
MTR09008800002000000000000000RA              0203076     000600100000001000000640000003NN  NNW 000                       N    
RDG09008800WATAL000000006K00000000000000047000810202015120641N000400000010N84       000170600K 10000000010000000043           
RDG09008800WATBL000000006K00000000000029778000910202015120651N000400000010N84       000100600K 10000000010000028275           
CUS0900880000109291231000         THE GEN SHIP REPAIR 1449 KEY HWY                            000N        CARE OF             
MTR09008800001000000000000000RA              1228585     000300110000001100000470000003NN  NNW 000                       N    
RDG09008800WATRL000000005K00000000000010652001010202015120702N000000000000N84       000110500K 10000000010000010620           
CUS0900880000109454437006         KEY HIGHWAY ASSOC., 1420 KEY HWY                            000N        CARE OF             
MTR09008800001000000000000000RA              0006846     000600120000001200000470000003NN  NNW 000   FIRE SERVICE        N    
RDG09008800WATRL000000006K00000000000000035001110202015120828N000000000000N84       000860600K 10000000010000000035           
CUS0900880000109454439002         KEY HIGHWAY ASSOC., 1420 KEY HWY                            000N        CARE OF             
MTR09008800001000000000000000RA              90000269    000200130000001300000570000003NY  NNW 000                       N    
MTM0900880090000269    OK                                                                                                     
RDG09008800WATRL000000005K00000000000000906001210202015120840N000300000010N84       000120500K 10000000010000001314           
CUS0900880000109291235001         BUREAU OF BUILDINGS 1407 KEY HWY                            000N        CARE OF             
MTR09008800001000000000000000RA              35105409    000800140000001400000410000003NN  NNW 000   CITY FIRE SERV      N    
RDG09008800WATRL000000006K00000000000000000001310202015120858N000000000000N84       000180600K 10000000010000000000           
CUS0900880000109291236009         BUREAU OF BLDG.CONST1407 KEY HWY                            000N        CARE OF             
MTR09008800001000000000000000RA              9305969     000300150000001500000640000000NN  NNW 000                       N    
RDG09008800WATRL000000005K00000000000002189001410202015120906N000300000010N84       000080500K 10000000010000002012           
CUS0900880000109291238005         HARBORVIEW LIMITED  1401-05 KEY HWY                         000N        CARE OF             
MTR09008800001000000000000000RA              30478249    000200160000001600000520000003NN  NNW 000   VACANT PROPERTY     N    
RDG09008800WATRL000000005K00000000000005706001510202015120912N000000000000N84       000060500K 10000000010000005706           
CUS0900880000109228285004         U.S. NATIONAL PARK S1401 CONSTELLATION PLZ                  000N        CARE OF             
MTR09008800001000000000000000RA              9216956     000600170000001700000640000003NN  NNW 000                       N    
RDG09008800WATRL000000006K00000000000007794001610202015121757N000000000000N84       005250600K 10000000010000007760           
CUS0900880000109420810005         1323 KEY HIGHWAY, LL1321 KEY HWY                            000N        CARE OF             
MTR09008800001000000000000000RA              99999999    001500180000001800000620000003NN  NNW 000   VACANT PROPERTY     N    
RDG09008800WATRL000000005K00000000000000000001710202015121803S022000000000N84       000060500K 10000000010000000000           
CUS0900880000109431372003         HARBORVIEW LTD      1201 KEY HWY                            000N        CARE OF             
MTR09008800002000000000000000RA              0008519     000800190000001900000630000003NY  NNW 000   FIRE SERVICE        N    
MTM090088000008519     ERT OK                                                                                                 
RDG09008800WATAL000000006K00000000000000000001810202015121834N000000000010N84       000310600K 10000000010000000004           
RDG09008800WATBL000000006K00000000000000000001910202015121839N000300000010N84       000050600K 10000000010000000035           
CUS0900880000109431374009         23 PIERSIDE DRIVE CO1201 KEY HWY                            000N        CARE OF             
MTR09008800001000000000000000RA              0911749     000400200000002000000640000003NY  NNW 000                       N    
MTM090088000911749     ERT OK                                                                                                 
RDG09008800WATRL000000006K00000000000000426002010202015121906N000300000010N84       000270600K 10000000010000029250           
CUS0900880000109409620003         HARBORVIEW LTD PARTN1121 KEY HWY                            000N        CARE OF             
MTR09008800002000000000000000RA              9108019     000800210000002100000630000003NY  NNW 000   FIRE SERVICE        N    
MTM090088009108019     ERT OK                                                                                                 
RDG09008800WATAL000000006K00000000000000021002110202015122246N000000000010N84       002200600K 10000000010000001055           
RDG09008800WATBL000000006K00000000000001000002210202015122256N000300000010N84       000100600K 10000000010000002050           
CUS0900880000109409622009         HARBORVIEW COURT A/P1121 KEY HWY                            000N        CARE OF             
MTR09008800001000000000000000RA              7231229     000600220000002200000640000003NN  NNW 000                       N    
RDG09008800WATRL000000006K00000000000083395002310202015122304N000000000000N84       000080600K 10000000010000078513           
CUS0900880000109441825008         PROMENADE UNIT LLC  801 KEY HWY                             000N        CARE OF             
MTR09008800001000000000000000RA              8051678     000800230000002300000380000000NN  NNW 000   FIRE SERVICE        N    
RDG09008800WATRL000000006K00000000000000055002410202015122314N000000000000N84       000100600K 10000000010000000055           
CUS0900880000109441826006         PROMENADE UNIT LLC  801 KEY HWY                             000N        CARE OF             
MTR09008800001000000000000000RA              01098485    007500240000002400000610000000NY  NNW 000                       N    
MTM0900880001098485    OK                                                                                                     
RDG09008800WATRL000000004K00000000000000043002510202015122323N000300000010N84       000090400K 10000000010000000162           
CUS0900880000109374896000         INNER HARBOR CITY VI410 KEY HWY                             000N        CARE OF             
MTR09008800001000000000000000RA              E16201      000600250000002500000430000000NY  NNW 000   FIRE SERVICE        N    
MTM09008800E16201      C/O/V                                                                                                  
RDG09008800WATRL000000006K00000000000000000000000000000000000 000000000000U         000000600  10000000010000000001           
CUS0900880000109374897008         INNER HARBOR CITY VI410 KEY HWY                             000N        CARE OF             
MTR09008800001000000000000000RA              31058520    000200260000002600000520000003NN  NNW 000                       N    
RDG09008800WATRL000000005K00000000000039459002610202015122429N000000000000N84       000660500K 10000000010000038729           
CUS0900880000109380887001         MAYOR & CITY COUNCIL400 KEY HWY                             000N        CARE OF             
MTR09008800001000000000000000RA              01105556    000200270000002700000610000003NY  NNW 000                       N    
MTM0900880001105556    OK                                                                                                     
RDG09008800WATRL000000005K00000000000000000002710202015122432N000000000000N84       000030500K 10000000010000000000           
CUS0900880000109380886003         TPOB PIER FIVE, LLC 400 KEY HWY                             000N        CARE OF             
MTR09008800001000000000000000RA              01105472    000200280000002800000610000003NY  NNW 000                       N    
MTM0900880001105472    OK                                                                                                     
RDG09008800WATRL000000005K00000000000000002002810202015122440N000000000000N84       000080500K 10000000010000000002           
CUS0900880000108403605002         414 LIGHT STREET OWN414 LIGHT ST                            000N        CARE OF             
MTR09008800001000000000000000RA              14923600    005800290000002900000310000003NN  NNW 000                       N    
RDG09008800WATRL000000004K00000000000001073002910202015122455N000000000000N84       000150400K 10000000010000000971           
CUS0900880000108438125000         BALTIMORE DEV. CORP.561 LIGHT ST                            000N        CARE OF             
MTR09008800001000000000000000RA              01104941    001500300000003000000610000000NY  NNW 000                       N    
MTM0900880001104941    C/L                                                                                                    
RDG09008800WATRL000000005K00000000000000000000000000000000000 000000000000U         000000500  10000000010000001357           
CUS0900880000109374895002         INNER HARBOR        400 KEY HWY                             000N        CARE OF             
MTR09008800001000000000000000RA              52293003    000200310000003100000520000003NN  NNW 000                       N    
RDG09008800WATRL000000005K00000000000009902003010202015122506N000000000000N84       000110500K 10000000010000009825           
CUS0900880000109440219005         MARINE ASSOCIATES, L400 KEY HWY                             000N        CARE OF             
MTR09008800001000000000000000RA              61381537    000600320000003200000470000003NY  NNW 000                       N    
MTM0900880061381537    OK                                                                                                     
RDG09008800WATRL000000006K00000000000002169003110202015122521N000300000010N84       000150600K 10000000010000072998           
CUS0900880000109380160003         BUREAU OF PARKS     400 KEY HWY                             000N        CARE OF             
MTR09008800001000000000000000RA              E15935      000800330000003300000430000003NN  NNW 000   CITY FIRE SERV      N    
RDG09008800WATRL000000006K00000000000000001003210202015122644N000000000000N84       000830600K 10000000010000000001           
CUS0900880000109291261007         BUREAU OF PARKS     300 KEY HWY                             000N        CARE OF             
MTR09008800001000000000000000RA              61581312    000400340000003400000470000003NN  NNW 000                       N    
RDG09008800WATRL000000006K00000000000013953003310202015122655N000000000000N84       000110600K 10000000010000013776           
CUS0900880000109440524008         THE RESIDENCES AT TH300 KEY HWY                             000N        CARE OF             
MTR09008800001000000000000000RA              01097937    007500350000003500000610000000NY  NNW 000                       N    
MTM0900880001097937    C/L                                                                                                    
RDG09008800WATRL000000004K00000000000000000000000000000000000 000000000000U         000000400  10000000010000000279           
CUS0900880000109291265008         MD. ACADEMY OF SCIEN601 LIGHT ST                            000N        CARE OF             
MTR09008800001000000000000000RA              5204126     000600360000003600000410000003NN  NNW 000   FIRE SERVICE        N    
RDG09008800WATRL000000006K00000000000000382003410202015122705N000000000000N84       000100600K 10000000010000000382           
CUS0900880000109291266006         SCIENCES            601 LIGHT ST                            000N        CARE OF             
MTR09008800001000000000000000RA              1393916     000400370000003700000490000003NN  NNW 000                       N    
RDG09008800WATRL000000006K00000000000017111003510202015122710N000000000000N84       000050600K 10000000010000016110           
CUS0900880000109291267004         DEPT OF REC & PARKS ES LIGHT ST OPP. LEE ST                 000N        CARE OF             
MTR09008800002000000000000000RA              5492082     000800380000003800000630000003NN  NNW 000                       N    
RDG09008800WATAL000000006K00000000000000019003610202015122719N000100000010N84       000090600K 10000000010000000019           
RDG09008800WATBL000000006K00000000000089103003710202015122736N000300000010N84       000170600K 10000000010000083412           
CUS0900880000109291268002         DEPT OF REC & PARKS ES LIGHT ST OPP. CONWAY                 000N        CARE OF             
MTR09008800002000000000000000RA              5480054     000800390000003900000480000000NY  NNW 000                       N    
MTM090088005480054                         C/S                                                                                
RDG09008800WATAL000000006K00000000000000000000310212015112940N000100000010U84       001190600K 10000000010000000000           
RDG09008800WATBL000000006K00000000000000000000000000000000000 000000000000U         000000600  10000000010000004010           
CUS0900880000109357632000         BUREAU OF PARKS     111 S HANOVER ST                        000N        CARE OF             
MTR09008800001000000000000000RA              9108029     000300400000004000000640000003NN  NNW 000                       N    
RDG09008800WATRL000000005K00000000000001765003810202015122744N000000000000N84       000080500K 10000000010000001694           
CUS0900880000109349260001         BALTIMORE CONVENTION1 W PRATT ST                            000N        CARE OF             
MTR09008800001000000000000000RA              5921548     000800410000004100000410000003NY  NNW 000   CITY FIRE SERV      N    
MTM090088005921548     AMI OK                                                                                                 
RDG09008800WATRL000000006K00000000000000000003910202015122801N000000000010N84       000170600K 10000000010000006185           
CUS0900880000109349261009         BALTIMORE CONVENTION1 W PRATT ST                            000N        CARE OF             
MTR09008800001000000000000000RA              73819113    000400420000004200000000000003NY  NNW 000                       N    
MTM0900880073819113    OK                                                                                                     
RDG09008800WATRL000000006K00000000000000000004010202015122827N000000000000N84       000260600K 10000000010000000000           
CUS0900880000109291271006         DEPT HOUSING & COMM C PRATT & CHARLES ST                    000N        CARE OF             
MTR09008800001000000000000000RA              35116882    000200430000004300000520000003NY  NNW 000                       N    
MTM0900880035116882    ERT OK                                                                                                 
RDG09008800WATRL000000005K00000000000000000004110202015122847N000000000010N84       000200500K 10000000010000000056           
CUS0900880000109291272004         E PRATT STRATEGIC VE1 E PRATT ST                            000N        CARE OF             
MTR09008800001000000000000000RA              5603863     000800440000004400000410000003NN  NNW 000   FIRE SERVICE        N    
RDG09008800WATRL000000006K00000000000003804004210202015122852N000000000000N84       000050600K 10000000010000003791           
CUS0900880000109291273002         E PRATT STRATEGIC VE1 E PRATT ST                            000N        CARE OF             
MTR09008800001000000000000000RA              1313665     000400450000004500000490000003NN  NNW 000                       N    
RDG09008800WATRL000000006K00000000000046294004310202015122859N000000000000N84       000070600K 10000000010000042960           
CUS0900880000109353015002         HANOVER SQUARE AFFOR1 W CONWAY ST                           000N        CARE OF             
MTR09008800001000000000000000RA              1243137     000400460000004600000490000003NY  NNW 000                       N    
MTM090088001243137     OK                                                                                                     
RDG09008800WATRL000000006K00000000000050605004410202015122914N000300000010N84       000150600K 10000000010000050783           
CUS0900880000109353041008         HANOVER SQUARE AFFOR1 W CONWAY ST                           000N        CARE OF             
MTR09008800001000000000000000RA              6029447     000600470000004700000410000003NY  NNW 000   FIRE SERVICE        N    
MTM090088006029447     AMI OK                                                                                                 
RDG09008800WATRL000000006K00000000000000000004510202015122928N000000000010N84       000140600K 10000000010000000085           
CUS0900880000109357636001         DEPT REC & PARKS    WS CHARLES ST                           000N        CARE OF             
MTR09008800001000000000000000RA              00066782    001500480000004800000570000003NY  NNW 000                       N    
MTM0900880000066782    ERT OK                                                                                                 
RDG09008800WATRL000000005K00000000000000000004610202015122939N000000000010N84       000110500K 10000000010000001577           
CUS0900880000109385079000         BALTO HARBOR CNTR   300 S CHARLES ST                        000N        CARE OF             
MTR09008800001000000000000000RA              E21147      000600490000004900000430000003NY  NNW 000   FIRE SERVICE        N    
MTM09008800E21147      AMI OK                                                                                                 
RDG09008800WATRL000000006K00000000000000000004710202015122958N000000000000N84       000190600K 10000000010000000000           
CUS0900880000109385080008         SHERATON INNER HARBO300 S CHARLES ST                        000N        CARE OF             
MTR09008800001000000000000000RA              52292948    007500500000005000000520000003NY  NNW 000                       N    
MTM0900880052292948    AMI OK                                                                                                 
RDG09008800WATRL000000004K00000000000000000004810202015123012N000300000010N84       000140400K 10000000010000000377           
CUS0900880000109391213007         HARBOR WAY EAST-COND500 S CHARLES ST                        000N        CARE OF             
MTR09008800002000000000000000RA              7135358     000300510000005100000440000003NN  NNW 000                       N    
RDG09008800WATAL000000005K00000000000000000004910202015123021N000100000010N84       000090500K 10000000010000000000           
RDG09008800WATBL000000005K00000000000005710005010202015123028N000400000010N84       000070500K 10000000010000005530           
CUS0900880000109387807002         COPELAND, BONNIE S. 820-26 WILLIAM ST                       000N        CARE OF             
MTR09008800001000000000000000RA              E18462      000600520000005200000430000003NN  NNW 000   FIRE SERVICE        N    
RDG09008800WATRL000000006K00000000000000000005110202015123033N000000000000N84       000050600K 10000000010000000000           
CUS0900880000109387806004         CHURCHILL PLACE     820-26 WILLIAM ST                       000N        CARE OF             
MTR09008800001000000000000000RA              33084047    001500530000005300000520000003NN  NNW 000                       N    
RDG09008800WATRL000000005K00000000000009488005210202015123038N000000000000N84       000050500K 10000000010000009455           
CUS0900880000109395691000         GRINDALL'S YD HOMEOW1011 WILLIAM ST                         000N        CARE OF             
MTR09008800002000000000000000RA              70262964    000300540000005400000460000003NY  NNW 000                       N    
MTM0900880070262964    ERT OK                                                                                                 
RDG09008800WATAL000000005K00000000000000001005310202015123106N000300000010N84       000280500K 10000000010000000110           
RDG09008800WATBL000000005K00000000000001524005410202015123114N000400000010N84       000080500K 10000000010000000110           
CUS0900880000109291093004         SOUTHERN HS AFFORDAB201 WARREN AVE                          000N        CARE OF             
MTR09008800002000000000000000RA              2976898     000600550000005500000630000003NN  NNW 000                       N    
RDG09008800WATAL000000006K00000000000000000005510202015123121N000100000010N84       000070600K 10000000010000000000           
RDG09008800WATBL000000006K00000000000001599005610202015123128N000400000010N84       000070600K 10000000010000001432           
CUS0900880000109291092006         VA HARBOR HILL LLC  211 WARREN AVE                          000N        CARE OF             
MTR09008800002000000000000000RA              3279954     000600560000005600000630000003NN  NNW 000                       N    
RDG09008800WATAL000000006K00000000000000000005710202015123134N000100000010N84       000060600K 10000000010000000000           
RDG09008800WATBL000000006K00000000000003869005810202015123142N000400000010N84       000080600K 10000000010000003487           
CUS0900880000109291091008         DEPT OF RECREATION &300 WARREN AVE                          000N        CARE OF             
MTR09008800001000000000000000RA              46288279    000100570000005700000520000003NN  NNW 000                       N    
RDG09008800WATRL000000004K00000000000009245005910202015123150N000300000010N84       000080400K 10000000010000008763           
CUS0900880000109396835002         FED'L PARK CONDO ASS327-33 WARREN AVE                       000N        CARE OF             
MTR09008800001000000000000000RA              2248197     000400580000005800000410000003NN  NNW 000   FIRE SERVICE        N    
RDG09008800WATRL000000006K00000000000000000006010202015123153N000000000000N84       000030600K 10000000010000000000           
CUS0900880000109396837008         FED'L PARK CONDO ASS327-33 WARREN AVE                       000N        CARE OF             
MTR09008800001000000000000000RA              31588455    000200590000005900000520000003NN  NNW 000                       N    
RDG09008800WATRL000000005K00000000000013737006110202015123159N000000000000N84       000060500K 10000000010000013651           
CUS0900880000109395001002         WHITTAKER, JONATHAN 425-29 GRINDALL ST                      000N        CARE OF             
MTR09008800001000000000000000RA              01105471    000200600000006000000610000003NN  NNW 000                       N    
RDG09008800WATRL000000005K00000000000004859006210202015123204N000000000000N84       000050500K 10000000010000004796           
CUS0900880000109291108000         AMERICAN VISIONARY A820 KEY HWY                             000N        CARE OF             
MTR09008800001000000000000000RA              46288261    000100610000006100000520000003NN  NNW 000                       N    
RDG09008800WATRL000000004K00000000000000000006310202015123210S022000000000N84       000060400K 10000000010000000821           
CUS0900880000109419702007         AMERICAN VISIONARY A800 KEY HWY                             000N        CARE OF             
MTR09008800001000000000000000RA              01105709    000200620000006200000610000003NN  NNW 000                       N    
RDG09008800WATRL000000005K00000000000009201006410202015123219N000000000000N84       000090500K 10000000010000009047           
CUS0900880000103426053009         MR RAINS FUN HOUSE  800 KEY HWY                             000N        CARE OF             
MTR09008800001000000000000000RA              99999999    005800630000006300000680000003NN  NNW 000                       N    
RDG09008800WATRL000000004K00000000000000000006510202015123223S040000000000N84       000040400K 10000000010000001559           
CUS0900880000109291090000         BUREAU OF CONSTR. MG1100 COVINGTON ST                       000N        CARE OF             
MTR09008800001000000000000000RA              9103203     000400640000006400000640000003NN  NNW 000                       N    
RDG09008800WATRL000000006K00000000000097401006610202015123230N000000000000N84       000070600K 10000000010000094341           
CUS0900880000109291089002         BUREAU OF CONSTR. MG1100 COVINGTON ST                       000N        CARE OF             
MTR09008800001000000000000000RA              E9989       000600650000006500000430000003NN  NNW 000   CITY FIRE SERV      N    
RDG09008800WATRL000000006K00000000000006311006710202015123244N000000000000N84       000140600K 10000000010000006194           
CUS0900880000109291105006         DEPT OF EDUCATION   1030 WILLIAM ST                         000N        CARE OF             
MTR09008800002000000000000000RA              5367731     000400660000006600000480000003NN  NNW 000                       N    
RDG09008800WATAL000000006K00000000000000000006810202015123249N000100000010N84       000050600K 10000000010000000000           
RDG09008800WATBL000000006K00000000000015828006910202015123258N000400000010N84       000090600K 10000000010000014727           
CUS0900880000109291103001         MCHENRY THEATER, LLC1032 LIGHT ST                           000N        CARE OF             
MTR09008800001000000000000000RA              31938300    000200670000006700000520000003NN  NNW 000                       N    
RDG09008800WATRL000000005K00000000000022210007010202015123304N000000000000N84       000060500K 10000000010000021720           
CUS0900880000109291102003         BANK OF AMERICA/MDSO1042-46 LIGHT ST                        000N        CARE OF             
MTR09008800001000000000000000RA              31346589    000200680000006800000520000003NN  NNW 000                       N    
RDG09008800WATRL000000005K00000000000002680007110202015123309N000000000000N84       000050500K 10000000010000002677           
CUS0900880000109291104009         BALTIMORE PUBLIC    1065 S CHARLES ST                       000N        CARE OF             
MTR09008800001000000000000000RA              1328240     000200690000006900000490000003NY  NNW 000                       N    
MTM090088001328240     OK                                                                                                     
RDG09008800WATRL000000005K00000000000029359007210202015123324N000300000010N84       000150500K 10000000010000029446           
CUS0900880000109423179002         LASKER WON HOLLANDS,1110 S CHARLES ST                       000N        CARE OF             
MTR09008800001000000000000000RA              52293034    000200700000007000000520000003NN  NNW 000                       N    
RDG09008800WATRL000000005K00000000000030731007310202015123330N000000000000N84       000060500K 10000000010000030598           
CUS0900880000109397822009         FEDERAL HILL SHOPS, 1100 LIGHT ST                           000N        CARE OF             
MTR09008800001000000000000000RA              01105497    000200710000007100000610000003NN  NNW 000                       N    
RDG09008800WATRL000000005K00000000000004226007410202015123335N000000000000N84       000050500K 10000000010000004189           
CUS0900880000109291097005         RESIDENCES AT 1211 C1211-29 LIGHT ST                        000N        CARE OF             
MTR09008800001000000000000000RA              7126126     000300720000007200000640000003NN  NNW 000                       N    
RDG09008800WATRL000000005K00000000000024626007510202015123340N000000000000N84       000050500K 10000000010000023681           
CUS0900880000109291096007         RESIDENCES AT 2111 L1211-29 LIGHT ST                        000N        CARE OF             
MTR09008800001000000000000000RA              3537016     000600730000007300000410000003NN  NNW 000   FIRE SERVICE        N    
RDG09008800WATRL000000006K00000000000000046007610202015123345N000000000000N84       000050600K 10000000010000000046           
CUS0900880000109291101005         1230-1232 LIGHT STRE1230-32 LIGHT ST                        000N        CARE OF             
MTR09008800001000000000000000RA              01105686    000200740000007400000610000003NN  NNW 000                       N    
RDG09008800WATRL000000005K00000000000000292007710202015123349N000000000000N84       000040500K 10000000010000000287           
CUS0900880000109291098003         MAYOR & CITY COUNCIL1251 LIGHT ST                           000N        CARE OF             
MTR09008800001000000000000000RA              01105469    000200750000007500000610000003NN  NNW 000                       N    
RDG09008800WATRL000000005K00000000000002193007810202015123353N000000000000N84       000040500K 10000000010000002178           
CUS0900880000109433615003         SOUTH BALTIMORE LEAR28 E OSTEND ST                          000N        CARE OF             
MTR09008800001000000000000000RA              8044864     000400760000007600000380000000NN  NNW 000   FIRE SERVICE        N    
RDG09008800WATRL000000006K00000000000000005007910202015123358N000000000000N84       000050600K 10000000010000000005           
CUS0900880000109433614006         SOUTH BALTIMORE LEAR28 E OSTEND ST                          000N        CARE OF             
MTR09008800001000000000000000RA              00066695    000200770000007700000570000003NN  NNW 000                       N    
RDG09008800WATRL000000005K00000000000001457008010202015123406N000000000000N84       000080500K 10000000010000001433           
CUS0900880000109434897006         PILGRIM LANDING HOA 111 PILGRIM LANDING                     000N        CARE OF             
MTR09008800001000000000000000RA              01105897    000200780000007800000610000000NN  NNW 000                       N    
RDG09008800WATRL000000005K00000000000005961008110202015123412N000000000000N84       000060500K 10000000010000005848           
CUS0900880000109435459004         112 EAST WEST STREET112 E WEST ST                           000N        CARE OF             
MTR09008800001000000000000000RA              01117322    000200790000007900000610000003NN  NNW 000                       N    
RDG09008800WATRL000000005K00000000000002995008210202015123417N000000000000N84       000050500K 10000000010000002948           
CUS0900880000109439091001         VINLIN CORP         48 E WEST ST                            000N        CARE OF             
MTR09008800001000000000000000RA              01117332    000200800000008000000610000000NY  NNW 000                       N    
MTM0900880001117332    OK                                                                                                     
RDG09008800WATRL000000005K00000000000000431008310202015123424N000000000000N84       000070500K 10000000010000000431           
CUS0900880000109406152000         BDS REALTY, LLC     1400-02 S CHARLES ST                    000N        CARE OF             
MTR09008800001000000000000000RA              26408115    000200810000008100000520000003NN  NNW 000                       N    
RDG09008800WATRL000000005K00000000000000552008410202015124536N000000000000N84       006720500K 10000000010000000549           
CUS0900880000109291095009         RESIDENCE AT 1211 CO1211-29 LIGHT ST                        000N        CARE OF             
MTR09008800001000000000000000RA              1199125     000300820000008200000490000003NY  NNW 000                       N    
MTM090088001199125     OK                                                                                                     
RDG09008800WATRL000000005K00000000000000000008510202015124550N000300000010N84       000140500K 10000000010000000022           
CUS0900880000109291094002         ST MARY, STAR OF THE1281 BATTERY AVE                        000N        CARE OF             
MTR09008800001000000000000000RA              36700239    001500830000008300000520000003NN  NNW 000                       N    
RDG09008800WATRL000000005K00000000000006951008610202015124555N000000000000N84       000050500K 10000000010000006938           
CUS0900880000103390287005         E PRATT STRATEGIC VE1 E PRATT ST                            000N        CARE OF             
MTR09008800001000000000000000RA              99999999    005800840000008400000680000003NN  NNW 000                       N    
RDG09008800WATRL000000004K00000000000000000008710202015124559S040000000000N84       000040400K 10000000010000007883           
CUS0900880000109435314001         RATHER PROPERTIES, L8-10 E CROSS ST                         000N        CARE OF             
MTR09008800001000000000000000RA              01105782    000200850000008500000610000000NN  NNW 000                       N    
RDG09008800WATRL000000005K00000000000003740008810202015124606N000000000000N84       000070500K 10000000010000003698           
CUS0900880000109457396001         FED HILL PARTNERS, I12 E CROSS ST                           000N        CARE OF             
MTR09008800001000000000000000RA              77896040    000100860000008600000570000003NY  NNW 000                       N    
MTM0900880077896040    OK                                                                                                     
RDG09008800WATRL000000004K00000000000000000008910202015124608N000000000000N84       000020400K 10000000010000000000           
CUS0900880000109457394006         FED HILL PARTNERS II12 E CROSS ST                           000N        CARE OF             
MTR09008800001000000000000000RA              1200677     000400870000008700000410000003NN  NNW 000   FIRE SERVICE        N    
RDG09008800WATRL000000006K00000000000000000009010202015124627N000000000000N84       000190600K 10000000010000000000           
CUS0900880000109445163000         STALKING HORSE, LLC 26-28 E CROSS ST                        000N        CARE OF             
MTR09008800001000000000000000RA              8053601     000400880000008800000410000000NN  NNW 000   FIRE SERVICE        N    
RDG09008800WATRL000000006K00000000000000000009110202015124642N000000000000N84       000150600K 10000000010000000000           
CUS0900880000109446213002         25 E CROSS STREET   25 E CROSS ST                           000N        CARE OF             
MTR09008800001000000000000000RA              30001202    007500890000008900000320000003NY  NNW 000                       N    
MTM0900880030001202    OK                                                                                                     
RDG09008800WATRL000000004K00000000000000000009210202015124719N000000000000N84       000370400K 10000000010000000000           
CUS0900880000109446211006         25 E CROSS STREET   25 E CROSS ST                           000N        CARE OF             
MTR09008800001000000000000000RA              09053905    000400900000009000000380000003NN  NNW 000   FIRE SERVICE        N    
RDG09008800WATRL000000006K00000000000000000009310202015124721N000000000000N84       000020600K 10000000010000000000           
CUS0900880000109446450000         STALKING HORSE, LLC 26-28 E CROSS ST                        000N        CARE OF             
MTR09008800001000000000000000RA              99999999    001500910000009100000440000003NN  NNW 000                       N    
RDG09008800WATRL000000005K00000000000005944009410202015124725N000000000000N84       000040500K 10000000010000005522           
CUS0900880000109456897009         31 CROSS STREET ASSO31-33 E CROSS ST                        000N        CARE OF             
MTR09008800001000000000000000RA              90000389    000200920000009200000570000003NY  NNW 000                       N    
MTM0900880090000389    OK                                                                                                     
RDG09008800WATRL000000005K00000000000000000009510202015124742N000000000000N84       000170500K 10000000010000000000           
CUS0900880000109440043009         FEDERAL PLACE HOMEOW1301 JACKSON ST                         000N        CARE OF             
MTR09008800001000000000000000RA              11800801    000400930000009300000640000003NN  NNW 000   VACANT PROPERTY     N    
RDG09008800WATRL000000006K00000000000000000009610202015124751S022000000000N84       000090600K 10000000010000000000           
CUS0900880000109440042001         FEDERAL PLACE HOMEOW1301-25 COVINGTON ST                    000N        CARE OF             
MTR09008800001000000000000000RA              11800785    000300940000009400000640000003NY  NNW 000                       N    
MTM0900880011800785    B/T                                                                                                    
RDG09008800WATRL000000005K00000000000000000000000000000000000 000000000000U         000000500  10000000010000002950           
CUS0900880000109291118009         BUREAU OF PARKS     301 E RANDALL ST                        000N        CARE OF             
MTR09008800001000000000000000RA              31588529    000200950000009500000520000003NY  NNW 000                       N    
MTM0900880031588529    OK                                                                                                     
RDG09008800WATRL000000005K00000000000006812009710202015124811N000300000010N84       000200500K 10000000010000007429           
CUS0900880000109445216006         TIMBER RUN CAPITAL, 554 E FORT AVE                          000N        CARE OF             
MTR09008800001000000000000000RA              8053287     000400960000009600000410000000NN  NNW 000   FIRE SERVICE        N    
RDG09008800WATRL000000006K00000000000000000009810202015124818N000000000000N84       000070600K 10000000010000000000           
CUS0900880000109445218002         TIMBER RUN CAPITAL, 554 E FORT AVE                          000N        CARE OF             
MTR09008800001000000000000000RA              30000701    007500970000009700000570000000NN  NNW 000                       N    
RDG09008800WATRL000000004K00000000000000597009910202015124835N000400000010N84       000170400K 10000000010000000575           
CUS0900880000109407363002         REGENCY CENTER      843 E FORT AVE                          000N        CARE OF             
MTR09008800002000000000000000RA              9017683     000800980000009800000630000000NN  NNW 000                       N    
RDG09008800WATAL000000006K00000000000000000010110202015125258N000100000010N84       001870600K 10000000010000000000           
RDG09008800WATBL000000006K00000000000011870010210202015125306N000400000010N84       000080600K 10000000010000010640           
CUS0900880000108446586003         SOUTHSIDE MARKETPLAC919 E FORT AVE                          000N        CARE OF             
MTR09008800001000000000000000RA              70000003    001500990000009900000570000000NN  NNW 000                       N    
RDG09008800WATRL000000005K00000000000003908010010202015124951N000000000000N84       000760500K 10000000010000003657           
CUS0900880000109291122001         MERRITT PROPERTIES L921 E FORT AVE                          000N        CARE OF             
