FHDNNNN015002852002852002926N                                                                                           009187
RHD06918200NN01760176000001760000000001760176000255NY017601760176000600040000000000000000000002    11022015NY020000 N         
CUS0691820000102378286005         WARNER WILLIAM W    7101 OLIVER BEACH RD                    000N        CARE OF             
MTR06918200001000000000000000RA              01085175    005800010000000100000610000003NN  NNW 000                       N    
RDG06918200WATRL000000004K00000000000001001000811032015081720N000000000000N61       002440400K 10000000010000000989           
CUS0691820000102378285007         LEWIS STEPHEN B     7103 OLIVER BEACH RD                    000N        CARE OF             
MTR06918200001000000000000000RA              35108777    005800020000000200000520000003NN  NNW 000                       N    
RDG06918200WATRL000000004K00000000000003733000911032015081800N000000000000N61       000400400K 10000000010000003709           
CUS0691820000102378284000         JONES JOHN K,JR     7105 OLIVER BEACH RD                    000N        CARE OF             
MTR06918200001000000000000000RA              76348615    005800030000000300000350000003NN  NNW 000                       N    
RDG06918200WATRL000000004K00000000000000276001011032015081912N000400000010N61       000720400K 10000000010000000235           
CUS0691820000102378283002         ADEOYE JAMES O      7107 OLIVER BEACH RD                    000N        CARE OF             
MTR06918200001000000000000000RA              35097189    005800040000000400000520000003NN  NNW 000                       N    
RDG06918200WATRL000000004K00000000000003771001111032015082037N000000000000N61       000850400K 10000000010000003748           
CUS0691820000102378282004         WAGNER CRAIG G      7111 OLIVER BEACH RD                    000N        CARE OF             
MTR06918200001000000000000000RA              99388992    005800050000000500000570000003NN  NNW 000                       N    
RDG06918200WATRL000000004K00000000000002774001211032015082149N000400000010N61       000720400K 10000000010000002764           
CUS0691820000102378281006         HANDS ERIC D        7113 OLIVER BEACH RD                    000N        CARE OF             
MTR06918200001000000000000000RA              35110572    005800060000000600000520000003NN  NNW 000                       N    
RDG06918200WATRL000000004K00000000000003193001311032015082243N000000000000N61       000540400K 10000000010000003174           
CUS0691820000106378200007         BOHNS WILLIAM E     7115 OLIVER BEACH RD                    000N        CARE OF             
MTR06918200001000000000000000RA              35108779    005800070000000700000520000003NN  NNW 000                       N    
RDG06918200WATRL000000004K00000000000003087001411032015082354N000000000000N61       000710400K 10000000010000003070           
CUS0691820000106378196007         MARY E BETCH        4 MIRA CT                               000N        CARE OF             
MTR06918200001000000000000000RA              35108689    005800080000000800000520000003NN  NNW 000                       N    
RDG06918200WATRL000000004K00000000000003758001511032015082514N000000000000N61       000800400K 10000000010000003745           
CUS0691820000106378195009         HELEN STEVENS       6 MIRA CT                               000N        CARE OF             
MTR06918200001000000000000000RA              35115591    005800090000000900000520000003NN  NNW 000                       N    
RDG06918200WATRL000000004K00000000000003516001611032015082602N000000000000N61       000480400K 10000000010000003478           
CUS0691820000106378190000         STEGER JAMES GREGORY8 MIRA CT                               000N        CARE OF             
MTR06918200001000000000000000RA              10010577    005800100000001000000570000003NN  NNW 000                       N    
RDG06918200WATRL000000004K00000000000000439001711032015082640N000400000010N61       000380400K 10000000010000000421           
CUS0691820000106378197005         HAMILTON JEANETTE   10 MIRA CT                              000N        CARE OF             
MTR06918200001000000000000000RA              32903221    005800110000001100000520000003NN  NNW 000                       N    
RDG06918200WATRL000000004K00000000000003679001811032015082723N000000000000N61       000430400K 10000000010000003660           
CUS0691820000106378198003         CHRISTOPHER M SCARPI12 MIRA CT                              000N        CARE OF             
MTR06918200001000000000000000RA              10009393    005800120000001200000570000003NN  NNW 000                       N    
RDG06918200WATRL000000004K00000000000000347001911032015082810N000000000000N61       000470400K 10000000010000000334           
CUS0691820000106378199001         DOUGLAS BRIAN MICHAE11 MIRA CT                              000N        CARE OF             
MTR06918200001000000000000000RA              99387533    005800130000001300000570000003NN  NNW 000                       N    
RDG06918200WATRL000000004K00000000000002872002011032015082930N000000000000N61       000800400K 10000000010000002817           
CUS0691820000106378191008         BURROWS SHERRY      9 MIRA CT                               000N        CARE OF             
MTR06918200001000000000000000RA              01086676    005800140000001400000610000003NN  NNW 000                       N    
RDG06918200WATRL000000004K00000000000002290002111032015083005N000000000000N61       000350400K 10000000010000002241           
CUS0691820000106378194002         GARDNER HARRY WILLIA7 MIRA CT                               000N        CARE OF             
MTR06918200001000000000000000RA              52287453    005800150000001500000520000003NN  NNW 000                       N    
RDG06918200WATRL000000004K00000000000001180002211032015083043N000400000010N61       000380400K 10000000010000001179           
CUS0691820000106378193004         BAYER LEONARD J     5 MIRA CT                               000N        CARE OF             
MTR06918200001000000000000000RA              35106968    005800160000001600000520000003NN  NNW 000                       N    
RDG06918200WATRL000000004K00000000000003664002311032015083132N000000000000N61       000490400K 10000000010000003650           
CUS0691820000106378192006         LOGUE ROBERT J,JR   3 MIRA CT                               000N        CARE OF             
MTR06918200001000000000000000RA              01111544    005800170000001700000610000003NN  NNW 000                       N    
RDG06918200WATRL000000004K00000000000000698002411032015083221N000000000000N61       000490400K 10000000010000000684           
CUS0691820000102378275008         GERARD LOUIS DIBLASI7119 OLIVER BEACH RD                    000N        CARE OF             
MTR06918200001000000000000000RA              35103420    005800180000001800000520000003NN  NNW 000                       N    
RDG06918200WATRL000000004K00000000000003886002511032015083310N000000000000N61       000490400K 10000000010000003869           
CUS0691820000102378274001         MITCHELL CHARLES C  7121 OLIVER BEACH RD                    000N        CARE OF             
MTR06918200001000000000000000RA              35104451    005800190000001900000520000003NN  NNW 000                       N    
RDG06918200WATRL000000004K00000000000003806002611032015083431N000000000000N61       000810400K 10000000010000003780           
CUS0691820000102378273003         MILLER RICHARD A    7123 OLIVER BEACH RD                    000N        CARE OF             
MTR06918200001000000000000000RA              33730108    005800200000002000000520000003NN  NNW 000                       N    
RDG06918200WATRL000000004K00000000000002081002711032015083458N000000000000N61       000270400K 10000000010000002074           
CUS0691820000106089163007         MONTGOMERY CHARLES M12954 CUNNINGHILL COVE RD               000N        CARE OF             
MTR06918200001000000000000000RA              14919319    005800210000002100000310000003NN  NNW 000                       N    
RDG06918200WATRL000000004K00000000000000939011411032015120345N000000000000N61       049750400K 10000000010000000921           
CUS0691820000106397378008         JOHN BERNARDING III 7203 OLIVER BEACH RD                    000N        CARE OF             
MTR06918200001000000000000000RA              41590910    005800220000002200000520000003NN  NNW 000                       N    
RDG06918200WATRL000000004K00000000000002110011511032015120401N000000000000N61       000160400K 10000000010000002103           
CUS0691820000106397377000         HUMER FRANZ E       7205 OLIVER BEACH RD                    000N        CARE OF             
MTR06918200001000000000000000RA              41590913    005800230000002300000520000000NN  NNW 000                       N    
RDG06918200WATRL000000004K00000000000001838011611032015120409N000400000010N61       000080400K 10000000010000001831           
CUS0691820000106089165002         RYDER CHARLES T  HUG7209 OLIVER BEACH RD                    000N        CARE OF             
MTR06918200001000000000000000RA              99188031    005800240000002400000570000003NN  NNW 000                       N    
RDG06918200WATRL000000004K00000000000001812011711032015120431N000300000010N61       000220400K 10000000010000001771           
CUS0691820000106089164005         RYDER CHARLES T  HUG7231 OLIVER BEACH RD                    000N        CARE OF             
MTR06918200001000000000000000RA              46887922    005800250000002500000520000003NN  NNW 000                       N    
RDG06918200WATRL000000004K00000000000002516011811032015120442N000000000000N61       000110400K 10000000010000002507           
CUS0691820000106423205001         ROBERT RAYNER       7246 OLIVER BEACH RD                    000N        CARE OF             
MTR06918200001000000000000000RA              10024458    005800260000002600000570000003NN  NNW 000                       N    
RDG06918200WATRL000000004K00000000000000145011911032015120532N000300000010N61       000500400K 10000000010000000183           
CUS0691820000106397106003         SCHAUB RICHARD WAYNE7244 OLIVER BEACH RD                    000N        CARE OF             
MTR06918200001000000000000000RA              40049557    005800270000002700000520000000NN  NNW 000                       N    
RDG06918200WATRL000000004K00000000000002703012011032015120536N000000000000N61       000040400K 10000000010000002692           
CUS0691820000106398123007         CICHOCKI JOHN A     7242 OLIVER BEACH RD                    000N        CARE OF             
MTR06918200001000000000000000RA              50789481    005800280000002800000520000000NY  NNW 000                       N    
MTM0691820050789481    buried                                                                                                 
RDG06918200WATRL000000004K00000000000000000000000000000000000 000000000000U         000000400  10000000010000002033           
CUS0691820000106397067007         JOHN W MONROE       7238 OLIVER BEACH RD                    000N        CARE OF             
MTR06918200001000000000000000RA              01078148    005800290000002900000610000003NY  NNW 000                       N    
MTM0691820001078148    flooded                                                                                                
RDG06918200WATRL000000004K00000000000000000000000000000000000 000000000000U         000000400  10000000010000001999           
CUS0691820000106385238008         MCLAURIN LARRY D    7234 OLIVER BEACH RD                    000N        CARE OF             
MTR06918200001000000000000000RA              35104550    005800300000003000000520000003NN  NNW 000                       N    
RDG06918200WATRL000000004K00000000000001746012111032015120639N000000000000N61       000630400K 10000000010000001743           
CUS0691820000106089166000         PEDDICORD CRAIG     7232 OLIVER BEACH RD                    000N        CARE OF             
MTR06918200001000000000000000RA              14923447    005800310000003100000310000003NN  NNW 000                       N    
RDG06918200WATRL000000004K00000000000002063012211032015120714N000400000020N61       000350400K 10000000010000002054           
CUS0691820000106394611005         CULLINGS GARY R     7224 OLIVER BEACH RD                    000N        CARE OF             
MTR06918200001000000000000000RA              00138193    005800320000003200000570000003NN  NNW 000                       N    
RDG06918200WATRL000000004K00000000000001064012311032015120722N000000000000N61       000080400K 10000000010000001053           
CUS0691820000106396730001         PICKLE DAVID R      7222-A OLIVER BEACH RD                  000N        CARE OF             
MTR06918200001000000000000000RA              39584551    005800330000003300000520000003NN  NNW 000                       N    
RDG06918200WATRL000000004K00000000000002874012411032015120818N000000000000N61       000560400K 10000000010000002847           
CUS0691820000106380076007         JONES LACY R        7222 OLIVER BEACH RD                    000N        CARE OF             
MTR06918200001000000000000000RA              50788352    005800340000003400000520000003NN  NNW 000                       N    
RDG06918200WATRL000000004K00000000000000772012511032015120830N000000000000N61       000120400K 10000000010000000765           
CUS0691820000106348799005         MILLER STEVEN V     7220 OLIVER BEACH RD                    000N        CARE OF             
MTR06918200001000000000000000RA              27816601    005800350000003500000520000003NN  NNW 000                       N    
RDG06918200WATRL000000004K00000000000004484012611032015120838N000000000000N61       000080400K 10000000010000004458           
CUS0691820000106089167008         MARKLEY JEFFREY T   7216 OLIVER BEACH RD                    000N        CARE OF             
MTR06918200001000000000000000RA              01084640    005800360000003600000610000003NN  NNW 000                       N    
RDG06918200WATRL000000004K00000000000001332012711032015120844N000000000000N61       000060400K 10000000010000001318           
CUS0691820000106089168006         AYRES MATTHEW       7201 GUNPOWDER RD                       000N        CARE OF             
MTR06918200001000000000000000RA              99388242    005800370000003700000570000003NN  NNW 000                       N    
RDG06918200WATRL000000004K00000000000001178012811032015120850N000300000010N61       000060400K 10000000010000001148           
CUS0691820000106439340008         STEINER ALBERT S    7205 GUNPOWDER RD                       000N        CARE OF             
MTR06918200001000000000000000RA              14914673    005800380000003800000310000003NN  NNW 000                       N    
RDG06918200WATRL000000004K00000000000000648012911032015120855N000000000000N61       000050400K 10000000010000000632           
CUS0691820000106089169004         BAKER ROBERT W      7215 GUNPOWDER RD                       000N        CARE OF             
MTR06918200001000000000000000RA              10008613    005800390000003900000570000003NN  NNW 000                       N    
RDG06918200WATRL000000004K00000000000000063013011032015120906N000300000010N61       000110400K 10000000010000000069           
CUS0691820000106089170002         ROBERSON BRUCE G    7301 TRED AVON RD                       000N        CARE OF             
MTR06918200001000000000000000RA              10023580    005800400000004000000570000003NN  NNW 000                       N    
RDG06918200WATRL000000004K00000000000000304013111032015120917N000400000010N61       000110400K 10000000010000000289           
CUS0691820000106089171000         CAROLE D MADDEN     7307 TRED AVON RD                       000N        CARE OF             
MTR06918200001000000000000000RA              00132554    005800410000004100000570000003NN  NNW 000                       N    
RDG06918200WATRL000000004K00000000000000690013211032015120924N000400000010N61       000070400K 10000000010000000689           
CUS0691820000106089172008         CICHOCKI RITA A     7309 TRED AVON RD                       000N        CARE OF             
MTR06918200001000000000000000RA              46887724    005800420000004200000520000003NN  NNW 000                       N    
RDG06918200WATRL000000004K00000000000001233013311032015120932N000400000010N61       000080400K 10000000010000001228           
CUS0691820000106089173006         CAMPBELL CHRISTOPHER7311 TRED AVON RD                       000N        CARE OF             
MTR06918200001000000000000000RA              46887725    005800430000004300000520000003NN  NNW 000                       N    
RDG06918200WATRL000000004K00000000000001469013411032015120938N000000000000N61       000060400K 10000000010000001461           
CUS0691820000106089174004         CAMPBELL MICHELLE   SS TRED AVON RD 490 FT                  000N        CARE OF             
MTR06918200001000000000000000RA              24771317    005800440000004400000520000003NN  NNW 000                       N    
RDG06918200WATRL000000004K00000000000000000013511032015121025S022000000020N61       000470400K 10000000010000000601           
CUS0691820000106089175001         CLASS JOHN G,3RD    7321 TRED AVON RD                       000N        CARE OF             
MTR06918200001000000000000000RA              01104879    005800450000004500000610000003NN  NNW 000                       N    
RDG06918200WATRL000000004K00000000000000926013611032015121034N000400000010N61       000090400K 10000000010000000920           
CUS0691820000106089176009         LAW REGINA K        7325 TRED AVON RD                       000N        CARE OF             
MTR06918200001000000000000000RA              45381432    005800460000004600000520000003NN  NNW 000                       N    
RDG06918200WATRL000000004K00000000000000995013711032015121042N000000000000N61       000080400K 10000000010000000982           
CUS0691820000106089177007         JONES ROY E         7327 TRED AVON RD                       000N        CARE OF             
MTR06918200001000000000000000RA              46887726    005800470000004700000520000003NN  NNW 000                       N    
RDG06918200WATRL000000004K00000000000000188013811032015121107N000300000010N61       000250400K 10000000010000000328           
CUS0691820000106386195009         MILES BARRY S       7337 TRED AVON RD                       000N        CARE OF             
MTR06918200001000000000000000RA              35110999    005800480000004800000520000003NN  NNW 000                       N    
RDG06918200WATRL000000004K00000000000002531013911032015121115N000000000000N61       000080400K 10000000010000002519           
CUS0691820000106089178005         SCHILDT JAMES A     7347 TRED AVON RD                       000N        CARE OF             
MTR06918200001000000000000000RA              41074312    005800490000004900000520000003NY  NNW 000                       N    
MTM0691820041074312    buried                                                                                                 
RDG06918200WATRL000000004K00000000000000000000000000000000000 000000000000U         000000400  10000000010000002714           
CUS0691820000106089179003         CHARLES E WOLFE SR  7354 TRED AVON RD                       000N        CARE OF             
MTR06918200001000000000000000RA              39583082    005800500000005000000520000003NN  NNW 000                       N    
RDG06918200WATRL000000004K00000000000002251014011032015121158N000000000000N61       000430400K 10000000010000002240           
CUS0691820000106089180001         STALLARD KENNETH ROS7346 TRED AVON RD                       000N        CARE OF             
MTR06918200001000000000000000RA              23647288    005800510000005100000520000003NN  NNW 000                       N    
RDG06918200WATRL000000004K00000000000001743014111032015121202N000000000000N61       000040400K 10000000010000001733           
CUS0691820000106089181009         TAYLOR JAMES C      7344 TRED AVON RD                       000N        CARE OF             
MTR06918200001000000000000000RA              00138331    005800520000005200000570000003NN  NNW 000                       N    
RDG06918200WATRL000000004K00000000000001220014211032015121205N000000000000N61       000030400K 10000000010000001215           
CUS0691820000106089182007         SHIPLEY FRANKLIN W,J7342 TRED AVON RD                       000N        CARE OF             
MTR06918200001000000000000000RA              22608127    005800530000005300000520000003NN  NNW 000                       N    
RDG06918200WATRL000000004K00000000000005343014311032015121214N000000000000N61       000090400K 10000000010000005329           
CUS0691820000106089183005         CUSHING RICHARD A,JR7338 TRED AVON RD                       000N        CARE OF             
MTR06918200001000000000000000RA              42810391    005800540000005400000520000003NN  NNW 000                       N    
RDG06918200WATRL000000004K00000000000002575014411032015121305N000300000010N61       000510400K 10000000010000002418           
CUS0691820000106089184003         HEIL LINDA D        7330 TRED AVON RD                       000N        CARE OF             
MTR06918200001000000000000000RA              27819549    005800550000005500000520000003NN  NNW 000                       N    
RDG06918200WATRL000000004K00000000000004059014511032015121311N000000000000N61       000060400K 10000000010000004050           
CUS0691820000106089185000         LUCAS RICHARD LYLE,S7326 TRED AVON RD                       000N        CARE OF             
MTR06918200001000000000000000RA              01116562    005800560000005600000610000003NN  NNW 000                       N    
RDG06918200WATRL000000004K00000000000000407014611032015121321N000300000010N61       000100400K 10000000010000000453           
CUS0691820000106430195005         DAVID B WILLIAMS    7322 TRED AVON RD                       000N        CARE OF             
MTR06918200001000000000000000RA              99389107    005800570000005700000570000003NN  NNW 000                       N    
RDG06918200WATRL000000004K00000000000002745014711032015121328N000400000010N61       000070400K 10000000010000002713           
CUS0691820000106089186008         PETRE DONALD J      7320 TRED AVON RD                       000N        CARE OF             
MTR06918200001000000000000000RA              10021118    005800580000005800000570000003NN  NNW 000                       N    
RDG06918200WATRL000000004K00000000000000266014811032015121335N000000000010N61       000070400K 10000000010000000237           
CUS0691820000106089187006         MOORMAN RICHARD E   7318 TRED AVON RD                       000N        CARE OF             
MTR06918200001000000000000000RA              10024697    005800590000005900000570000003NY  NNW 000                       N    
MTM0691820010024697    flooded                                                                                                
RDG06918200WATRL000000004K00000000000000000000000000000000000 000000000000U         000000400  10000000010000000254           
CUS0691820000106089190000         COOK DOUGLAS W      7314 TRED AVON RD                       000N        CARE OF             
MTR06918200001000000000000000RA              22862007    005800600000006000000520000003NN  NNW 000                       N    
RDG06918200WATRL000000004K00000000000003573014911032015121355N000000000000N61       000200400K 10000000010000003559           
CUS0691820000106089189002         THOMAS J MARCINIAK  7312 TRED AVON RD                       000N        CARE OF             
MTR06918200001000000000000000RA              46887729    005800610000006100000520000003NN  NNW 000                       N    
RDG06918200WATRL000000004K00000000000001874015011032015121359N000000000000N61       000040400K 10000000010000001842           
CUS0691820000106089188004         THOMAS TIMOTHY BOLLI7310 TRED AVON RD                       000N        CARE OF             
MTR06918200001000000000000000RA              24757417    005800620000006200000520000003NN  NNW 000                       N    
RDG06918200WATRL000000004K00000000000003879015111032015121407N000000000000N61       000080400K 10000000010000003865           
CUS0691820000106089191008         MARK BOCKLAGE       7306 TRED AVON RD                       000N        CARE OF             
MTR06918200001000000000000000RA              00138190    005800630000006300000570000003NN  NNW 000                       N    
RDG06918200WATRL000000004K00000000000001043015211032015121418N000000000010N61       000110400K 10000000010000001045           
CUS0691820000106089192006         ORZOLEK FRANK B     7237 GUNPOWDER RD                       000N        CARE OF             
MTR06918200001000000000000000RA              9684354     005800640000006400000520000003NN  NNW 000                       N    
RDG06918200WATRL000000004K00000000000006536015311032015121423N000000000000N61       000050400K 10000000010000006531           
CUS0691820000106361608000         SZIMANSKI MILTON J  7246 GUNPOWDER RD                       000N        CARE OF             
MTR06918200001000000000000000RA              30513883    005800650000006500000520000003NN  NNW 000                       N    
RDG06918200WATRL000000004K00000000000003871015411032015121557N000000000000N61       000940400K 10000000010000003848           
CUS0691820000106089260001         DUTTON GEORGE E     7244 GUNPOWDER RD                       000N        CARE OF             
MTR06918200001000000000000000RA              23647311    005800660000006600000520000003NN  NNW 000                       N    
RDG06918200WATRL000000004K00000000000003007015511032015121609N000000000000N61       000120400K 10000000010000003007           
CUS0691820000106374799002         BURLESON LOUIE D    7240 GUNPOWDER RD                       000N        CARE OF             
MTR06918200001000000000000000RA              41074313    005800670000006700000520000003NN  NNW 000                       N    
RDG06918200WATRL000000004K00000000000001485015611032015121623N000000000000N61       000140400K 10000000010000001474           
CUS0691820000106089272006         BURLESON LOUIE      7236 GUNPOWDER RD                       000N        CARE OF             
MTR06918200001000000000000000RA              27131692    005800680000006800000520000003NN  NNW 000                       N    
RDG06918200WATRL000000004K00000000000004629015711032015121632N000000000010N61       000090400K 10000000010000004599           
CUS0691820000106089273004         THOMAS LESTER W     7232 GUNPOWDER RD                       000N        CARE OF             
MTR06918200001000000000000000RA              22608128    005800690000006900000520000003NN  NNW 000                       N    
RDG06918200WATRL000000004K00000000000004283015811032015121644N000000000010N61       000120400K 10000000010000004258           
CUS0691820000106089274002         MASON CHARLES A     7230 GUNPOWDER RD                       000N        CARE OF             
MTR06918200001000000000000000RA              22608112    005800700000007000000520000003NN  NNW 000                       N    
RDG06918200WATRL000000004K00000000000001838015911032015121705N000100000010N61       000210400K 10000000010000001838           
CUS0691820000106089275009         HANDY MALLORY R     NS GUNPOWDER RD 160 FT                  000N        CARE OF             
MTR06918200001000000000000000RA              45379287    005800710000007100000520000003NN  NNW 000                       N    
RDG06918200WATRL000000004K00000000000001765016011032015121801N000000000000N61       000560400K 10000000010000001751           
CUS0691820000106378645003         DAVID M COLLINS     7220 GUNPOWDER RD                       000N        CARE OF             
MTR06918200001000000000000000RA              35108778    005800720000007200000520000003NN  NNW 000                       N    
RDG06918200WATRL000000004K00000000000005403016111032015121831N000000000000N61       000300400K 10000000010000005380           
CUS0691820000106376122005         HABERKAM DOUGLAS B  7218 GUNPOWDER RD                       000N        CARE OF             
MTR06918200001000000000000000RA              33729866    005800730000007300000520000003NN  NNW 000                       N    
RDG06918200WATRL000000004K00000000000004195016211032015121849N000400000010N61       000180400K 10000000010000004182           
CUS0691820000106379516005         SHEA BRIAN          7216 GUNPOWDER RD                       000N        CARE OF             
MTR06918200001000000000000000RA              33729864    005800740000007400000520000003NN  NNW 000                       N    
RDG06918200WATRL000000004K00000000000002583016311032015121855N000000000000N61       000060400K 10000000010000002576           
CUS0691820000106379517003         CULLINGS DONOVAN    7214 GUNPOWDER RD                       000N        CARE OF             
MTR06918200001000000000000000RA              33729881    005800750000007500000520000003NN  NNW 000                       N    
RDG06918200WATRL000000004K00000000000002124016411032015121900N000000000000N61       000050400K 10000000010000002124           
CUS0691820000106379446005         SANDRIDGE SHAWN     7212 GUNPOWDER RD                       000N        CARE OF             
MTR06918200001000000000000000RA              33729868    005800760000007600000520000003NN  NNW 000                       N    
RDG06918200WATRL000000004K00000000000003423016511032015121909N000000000000N61       000090400K 10000000010000003406           
CUS0691820000106364969003          HART CAROL SUE     7210 GUNPOWDER RD                       000N        CARE OF             
MTR06918200001000000000000000RA              30520578    005800770000007700000520000003NN  NNW 000                       N    
RDG06918200WATRL000000004K00000000000004238016611032015121914N000000000000N61       000050400K 10000000010000004238           
CUS0691820000106384819006         BETTY H HERKLOTZ REV7208 GUNPOWDER RD                       000N        CARE OF             
MTR06918200001000000000000000RA              35102019    005800780000007800000520000003NN  NNW 000                       N    
RDG06918200WATRL000000004K00000000000002500016711032015121920N000000000000N61       000060400K 10000000010000002491           
CUS0691820000106385670002         IMWOLD NANCY I      7206 GUNPOWDER RD                       000N        CARE OF             
MTR06918200001000000000000000RA              35108376    005800790000007900000520000003NN  NNW 000                       N    
RDG06918200WATRL000000004K00000000000003714016811032015121928N000300000010N61       000080400K 10000000010000003667           
CUS0691820000106370038009         MIHALY GREG         7204 GUNPOWDER RD                       000N        CARE OF             
MTR06918200001000000000000000RA              29683531    005800800000008000000520000003NN  NNW 000                       N    
RDG06918200WATRL000000004K00000000000002357016911032015121932N000000000000N61       000040400K 10000000010000002344           
CUS0691820000106089276007         LINDA S GILLAND     7134 OLIVER BEACH RD                    000N        CARE OF             
MTR06918200001000000000000000RA              01107429    005800810000008100000610000003NN  NNW 000                       N    
RDG06918200WATRL000000004K00000000000000156017011032015121948N000000000000N61       000160400K 10000000010000000148           
CUS0691820000106348726008         ASBURY DENNIS G     13105 CHOPTANK RD                       000N        CARE OF             
MTR06918200001000000000000000RA              46878249    005800820000008200000520000003NN  NNW 000                       N    
RDG06918200WATRL000000004K00000000000001230011111032015103031N000000000000N61       001050400K 10000000010000001219           
CUS0691820000106391019004         ALDERSON DONALD R   13109 CHOPTANK RD                       000N        CARE OF             
MTR06918200001000000000000000RA              99188078    005800830000008300000570000003NN  NNW 000                       N    
RDG06918200WATRL000000004K00000000000001901010811032015102547N000000000000N61       000700400K 10000000010000001875           
CUS0691820000106403561001         WAYNE HENNINGER     13111 CHOPTANK RD                       000N        CARE OF             
MTR06918200001000000000000000RA              41086756    005800840000008400000520000003NN  NNW 000                       N    
RDG06918200WATRL000000004K00000000000006222010511032015102224N000000000000N61       000560400K 10000000010000006197           
CUS0691820000106089277005         RONALD R MASLIN JR  13115 CHOPTANK RD                       000N        CARE OF             
MTR06918200001000000000000000RA              46887942    005800850000008500000520000003NN  NNW 000                       N    
RDG06918200WATRL000000004K00000000000002139010411032015102128N000000000000N61       000500400K 10000000010000002135           
CUS0691820000106089278003         STEVEN M ANDREWS    13117 CHOPTANK RD                       000N        CARE OF             
MTR06918200001000000000000000RA              41087201    005800860000008600000520000003NN  NNW 000                       N    
RDG06918200WATRL000000004K00000000000003122010111032015101807N000400000010N61       000360400K 10000000010000003116           
CUS0691820000106089279001         BUDZYNSKI ANGELA J  13119 CHOPTANK RD                       000N        CARE OF             
MTR06918200001000000000000000RA              24764039    005800870000008700000520000003NN  NNW 000                       N    
RDG06918200WATRL000000004K00000000000004149010011032015101731N000000000000N61       000970400K 10000000010000004117           
CUS0691820000106089280009         JAMES  J. PODHORNIAK13201 CHOPTANK RD                       000N        CARE OF             
MTR06918200001000000000000000RA              35107001    005800880000008800000520000003NN  NNW 000                       N    
RDG06918200WATRL000000004K00000000000001882009711032015101412N000400000010N61       000370400K 10000000010000001880           
CUS0691820000106089281007         BIGGS GEORGE E,JR   13205 CHOPTANK RD                       000N        CARE OF             
MTR06918200001000000000000000RA              01088774    005800890000008900000610000003NN  NNW 000                       N    
RDG06918200WATRL000000004K00000000000000766009411032015101141N000400000010N61       000630400K 10000000010000000758           
CUS0691820000106397304004         SANN JOSEPH C       13209 CHOPTANK RD                       000N        CARE OF             
MTR06918200001000000000000000RA              48584588    005800900000009000000520000003NN  NNW 000                       N    
RDG06918200WATRL000000004K00000000000001301009311032015101038N000000000000N61       000440400K 10000000010000001289           
CUS0691820000106089282005         MCWILLIAMS THOMAS   13211 CHOPTANK RD                       000N        CARE OF             
MTR06918200001000000000000000RA              41075774    005800910000009100000520000003NN  NNW 000                       N    
RDG06918200WATRL000000004K00000000000001893009011032015100751N000000000000N61       000560400K 10000000010000001876           
CUS0691820000106089283003         STURGIS TERRI S     13217 CHOPTANK RD                       000N        CARE OF             
MTR06918200001000000000000000RA              27828694    005800920000009200000520000003NN  NNW 000                       N    
RDG06918200WATRL000000004K00000000000002670008811032015100615N000000000000N61       005310400K 10000000010000002661           
CUS0691820000106089284001         COMEGNA JOSEPH H    13212 CHOPTANK RD                       000N        CARE OF             
MTR06918200001000000000000000RA              48582922    005800930000009300000520000003NN  NNW 000                       N    
RDG06918200WATRL000000004K00000000000002807008911032015100655N000000000000N61       000400400K 10000000010000002787           
CUS0691820000106089285008         JOSEPH WOHLFORT     13208 CHOPTANK RD                       000N        CARE OF             
MTR06918200001000000000000000RA              24228515    005800940000009400000520000003NN  NNW 000                       N    
RDG06918200WATRL000000004K00000000000002411009111032015100916N000000000000N61       000850400K 10000000010000002398           
CUS0691820000106089286006         BEALMEAR MARY J     13206 CHOPTANK RD                       000N        CARE OF             
MTR06918200001000000000000000RA              27817491    005800950000009500000520000003NN  NNW 000                       N    
RDG06918200WATRL000000004K00000000000003596009211032015100954N000000000000N61       000380400K 10000000010000003585           
CUS0691820000106089287004         CECIL SINES         13204 CHOPTANK RD                       000N        CARE OF             
MTR06918200001000000000000000RA              46887938    005800960000009600000520000003NN  NNW 000                       N    
RDG06918200WATRL000000004K00000000000001671009511032015101258N000000000000N61       000770400K 10000000010000001668           
CUS0691820000106456596003         TIMOTHY KUHN        13202 CHOPTANK RD                       000N        CARE OF             
MTR06918200001000000000000000RA              99999999    007500970000009700000440000003NN  NNW 000                       N    
RDG06918200WATRL000000004K00000000000000000009611032015101335S063000000000N61       000370400K 10000000010000000000           
CUS0691820000106089288002         MATTHEW TENAN       13200 CHOPTANK RD                       000N        CARE OF             
MTR06918200001000000000000000RA              78028546    005800980000009800000350000003NN  NNW 000                       N    
RDG06918200WATRL000000004K00000000000000048009811032015101504N000000000000N61       000520400K 10000000010000000035           
CUS0691820000106089289000         REIDER EDWARD L     13120 CHOPTANK RD                       000N        CARE OF             
MTR06918200001000000000000000RA              24765617    005800990000009900000520000003NY  NNW 000                       N    
MTM0691820024765617    need plt                                                                                               
RDG06918200WATRL000000004K00000000000003207009911032015101554N000400000010N61       000500400K 10000000010000003204           
CUS0691820000106089290008         JACOBS GREGORY PAUL 13118 CHOPTANK RD                       000N        CARE OF             
MTR06918200001000000000000000RA              41589614    005801000000010000000520000003NN  NNW 000                       N    
RDG06918200WATRL000000004K00000000000000708010211032015101907N000000000000N61       000600400K 10000000010000000705           
CUS0691820000106089291006         WAGNER KATHLEEN ELIZ13116 CHOPTANK RD                       000N        CARE OF             
MTR06918200001000000000000000RA              46887926    005801010000010100000520000003NN  NNW 000                       N    
RDG06918200WATRL000000004K00000000000001889010311032015102038N000000000000N61       000910400K 10000000010000001885           
CUS0691820000106089292004         OGLE GLENN J        13112 CHOPTANK RD                       000N        CARE OF             
MTR06918200001000000000000000RA              14900984    005801020000010200000310000003NN  NNW 000                       N    
RDG06918200WATRL000000004K00000000000001388010611032015102314N000000000000N61       000500400K 10000000010000001388           
CUS0691820000106089293002         WILMERING DERRICK   13108 CHOPTANK RD                       000N        CARE OF             
MTR06918200001000000000000000RA              00138157    005801030000010300000570000003NN  NNW 000                       N    
RDG06918200WATRL000000004K00000000000001312010711032015102437N000000000000N61       000830400K 10000000010000001299           
CUS0691820000106089294000         RONALD T OBRIEN     13106 CHOPTANK RD                       000N        CARE OF             
MTR06918200001000000000000000RA              24228910    005801040000010400000520000003NN  NNW 000                       N    
RDG06918200WATRL000000004K00000000000006342010911032015102717N000300000010N61       000900400K 10000000010000006352           
CUS0691820000106386198003         MICHAEL T LEAR      13102 CHOPTANK RD                       000N        CARE OF             
MTR06918200001000000000000000RA              50477363    005801050000010500000520000003NN  NNW 000                       N    
RDG06918200WATRL000000004K00000000000002620011011032015102846N000400000010N61       000890400K 10000000010000002615           
CUS0691820000106089295007         DUNN ROBERT J       7130 OLIVER BEACH RD                    000N        CARE OF             
MTR06918200001000000000000000RA              46878216    005801060000010600000520000003NN  NNW 000                       N    
RDG06918200WATRL000000004K00000000000001500002811032015083912N000000000000N61       002540400K 10000000010000001492           
CUS0691820000106089296005         KOHNE MARADA J      7128 OLIVER BEACH RD                    000N        CARE OF             
MTR06918200001000000000000000RA              50476954    005801070000010700000520000003NN  NNW 000                       N    
RDG06918200WATRL000000004K00000000000002293002911032015083951N000000000000N61       000390400K 10000000010000002271           
CUS0691820000106089297003         BRIGGS JOHN M       7124 OLIVER BEACH RD                    000N        CARE OF             
MTR06918200001000000000000000RA              46887927    005801080000010800000520000003NN  NNW 000                       N    
RDG06918200WATRL000000004K00000000000001308003011032015084040N000000000000N61       000490400K 10000000010000001281           
CUS0691820000106089298001         FOARD CHRISTINE     7122 OLIVER BEACH RD                    000N        CARE OF             
MTR06918200001000000000000000RA              14905788    005801090000010900000310000000NN  NNW 000                       N    
RDG06918200WATRL000000004K00000000000000548003111032015084127N000000000000N61       000470400K 10000000010000000534           
CUS0691820000102378269001         PORCELLA FRANCES    7116 OLIVER BEACH RD                    000N        CARE OF             
MTR06918200001000000000000000RA              35103489    005801100000011000000520000003NN  NNW 000                       N    
RDG06918200WATRL000000004K00000000000002506003211032015084325N000000000000N61       001180400K 10000000010000002500           
CUS0691820000102378270009         WILSON VERNON J     7114 OLIVER BEACH RD                    000N        CARE OF             
MTR06918200001000000000000000RA              75617540    005801110000011100000350000003NN  NNW 000                       N    
RDG06918200WATRL000000004K00000000000000244003311032015084400N000000000000N61       000350400K 10000000010000000223           
CUS0691820000102378271007         MCCULLOUGH KATHLEEN 7112 OLIVER BEACH RD                    000N        CARE OF             
MTR06918200001000000000000000RA              35106999    005801120000011200000520000003NN  NNW 000                       N    
RDG06918200WATRL000000004K00000000000004255003411032015084513N000000000000N61       000730400K 10000000010000004214           
CUS0691820000102378272005         HIGGINS THOMAS G    7110 OLIVER BEACH RD                    000N        CARE OF             
MTR06918200001000000000000000RA              35114040    005801130000011300000520000003NN  NNW 000                       N    
RDG06918200WATRL000000004K00000000000002811003511032015084551N000000000000N61       000380400K 10000000010000002803           
CUS0691820000102378276006         RAVENSCROFT MARGARET7108 OLIVER BEACH RD                    000N        CARE OF             
MTR06918200001000000000000000RA              33077094    005801140000011400000520000003NN  NNW 000                       N    
RDG06918200WATRL000000004K00000000000003559003611032015084629N000000000000N61       000380400K 10000000010000003546           
CUS0691820000102378277004         TERRY L BAIER       7106 OLIVER BEACH RD                    000N        CARE OF             
MTR06918200001000000000000000RA              33077105    005801150000011500000520000003NN  NNW 000                       N    
RDG06918200WATRL000000004K00000000000002447003711032015084710N000000000000N61       000410400K 10000000010000002417           
CUS0691820000102378278002         FLECKENSTEIN VICTOR 7104 OLIVER BEACH RD                    000N        CARE OF             
MTR06918200001000000000000000RA              99288889    005801160000011600000570000003NN  NNW 000                       N    
RDG06918200WATRL000000004K00000000000000925003811032015084744N000400000010N61       000340400K 10000000010000000918           
CUS0691820000102378279000         GWILLIAM LAURA A    7102 OLIVER BEACH RD                    000N        CARE OF             
MTR06918200001000000000000000RA              35107093    005801170000011700000520000003NN  NNW 000                       N    
RDG06918200WATRL000000004K00000000000002585003911032015084832N000000000000N61       000480400K 10000000010000002577           
CUS0691820000102378280008         MICHAEL & KAREN WEIS7100 OLIVER BEACH RD                    000N        CARE OF             
MTR06918200001000000000000000RA              35108776    005801180000011800000520000003NN  NNW 000                       N    
RDG06918200WATRL000000004K00000000000004061004011032015084909N000000000000N61       000370400K 10000000010000003968           
CUS0691820000106393558009         CHRISTOPHER HOGUE   13003 OLIVERWOOD RD                     000N        CARE OF             
MTR06918200001000000000000000RA              39584922    005801190000011900000520000003NN  NNW 000                       N    
RDG06918200WATRL000000004K00000000000002371004111032015085100N000000000000N61       001110400K 10000000010000002362           
CUS0691820000106393560005         GILLESPIE DARRELL C 13005 OLIVERWOOD RD                     000N        CARE OF             
MTR06918200001000000000000000RA              39584041    005801200000012000000520000003NN  NNW 000                       N    
RDG06918200WATRL000000004K00000000000002742004211032015085147N000400000010N61       000470400K 10000000010000002726           
CUS0691820000106394612003         NECKAR JIRI         13007 OLIVERWOOD RD                     000N        CARE OF             
MTR06918200001000000000000000RA              39584105    005801210000012100000520000003NN  NNW 000                       N    
RDG06918200WATRL000000004K00000000000003109004311032015085235N000000000000N61       000480400K 10000000010000003103           
CUS0691820000106393559007         BRIAN E MYERS       13009 OLIVERWOOD RD                     000N        CARE OF             
MTR06918200001000000000000000RA              39585692    005801220000012200000520000003NN  NNW 000                       N    
RDG06918200WATRL000000004K00000000000002388004411032015085312N000000000000N61       000370400K 10000000010000002388           
CUS0691820000106348801009         ELIZABETH A JUNG    13011 OLIVERWOOD RD                     000N        CARE OF             
MTR06918200001000000000000000RA              39584107    005801230000012300000520000003NN  NNW 000                       N    
RDG06918200WATRL000000004K00000000000001091004511032015085433N000000000000N61       000810400K 10000000010000001087           
CUS0691820000106345727009         CHRISTINE RIEGEL    7035 OLIVERWOOD RD                      000N        CARE OF             
MTR06918200001000000000000000RA              27819695    005801240000012400000520000003NN  NNW 000                       N    
RDG06918200WATRL000000004K00000000000002471004711032015085557N000300000010N61       000400400K 10000000010000002455           
CUS0691820000106348800001         CATHERINE WATSON    7037 OLIVERWOOD RD                      000N        CARE OF             
MTR06918200001000000000000000RA              27816873    005801250000012500000520000003NN  NNW 000                       N    
RDG06918200WATRL000000004K00000000000002934004811032015085652N000000000000N61       000550400K 10000000010000002919           
CUS0691820000106389304004         HAGAN MICHAEL       7101 OLIVERWOOD RD                      000N        CARE OF             
MTR06918200001000000000000000RA              50787095    005801260000012600000520000003NN  NNW 000                       N    
RDG06918200WATRL000000004K00000000000001369004911032015085751N000000000000N61       000590400K 10000000010000001363           
CUS0691820000106396269000         GREENSFELDER TIMOTHY7103 OLIVERWOOD RD                      000N        CARE OF             
MTR06918200001000000000000000RA              39584921    005801270000012700000520000003NN  NNW 000                       N    
RDG06918200WATRL000000004K00000000000002624005011032015085900N000000000000N61       000690400K 10000000010000002614           
CUS0691820000106395188003         WILLIAMS JEFFREY B  7105 OLIVERWOOD RD                      000N        CARE OF             
MTR06918200001000000000000000RA              39584919    005801280000012800000520000003NN  NNW 000                       N    
RDG06918200WATRL000000004K00000000000002168005111032015085939N000000000000N61       000390400K 10000000010000002155           
CUS0691820000106358051008         CRISLIP FREDERICK M 7107 OLIVERWOOD RD                      000N        CARE OF             
MTR06918200001000000000000000RA              29681607    005801290000012900000520000003NN  NNW 000                       N    
RDG06918200WATRL000000004K00000000000001558005311032015090047N000000000000N61       000300400K 10000000010000001547           
CUS0691820000106354964006         ZEMAN ALLAN T       7111 OLIVERWOOD RD                      000N        CARE OF             
MTR06918200001000000000000000RA              27819692    005801300000013000000520000003NN  NNW 000                       N    
RDG06918200WATRL000000004K00000000000001743005511032015090605N000000000000N61       000500400K 10000000010000001740           
CUS0691820000106089299009         ALFRED JACK L       13103 PATUXENT RD                       000N        CARE OF             
MTR06918200001000000000000000RA              32771776    005801310000013100000520000003NN  NNW 000                       N    
RDG06918200WATRL000000004K00000000000006097005811032015091252N000000000000N61       000690400K 10000000010000005980           
CUS0691820000106377439002         SINES NORMAN I      13105 PATUXENT RD                       000N        CARE OF             
MTR06918200001000000000000000RA              22610267    005801320000013200000520000003NN  NNW 000                       N    
RDG06918200WATRL000000004K00000000000002230005911032015091409N000400000010N61       000770400K 10000000010000002201           
CUS0691820000106348966000         HOFFMAN JOHN EDWARD 13107 PATUXENT RD                       000N        CARE OF             
MTR06918200001000000000000000RA              27133026    005801330000013300000520000003NN  NNW 000                       N    
RDG06918200WATRL000000004K00000000000004840006111032015091751N000000000000N61       000740400K 10000000010000004811           
CUS0691820000106089300005         SHEW VINSON B  SHEW 13109 PATUXENT RD                       000N        CARE OF             
MTR06918200001000000000000000RA              14901546    005801340000013400000310000003NN  NNW 000                       N    
RDG06918200WATRL000000004K00000000000000511006411032015092020N000400000010N61       000720400K 10000000010000000497           
CUS0691820000106407437000         SANDRA MYERS        13111 PATUXENT RD                       000N        CARE OF             
MTR06918200001000000000000000RA              75616096    005801350000013500000350000003NY  NNW 000                       N    
MTM0691820075616096    cant locate                                                                                            
RDG06918200WATRL000000004K00000000000000000000000000000000000 000000000000U         000000400  10000000010000000156           
CUS0691820000106089301003         DALE DAVIS          13113 PATUXENT RD                       000N        CARE OF             
MTR06918200001000000000000000RA              23057303    005801360000013600000520000000NN  NNW 000                       N    
RDG06918200WATRL000000004K00000000000003816006711032015092650N000000000000N61       000490400K 10000000010000003808           
CUS0691820000106089302001         WHITE DONALD R      13115 PATUXENT RD                       000N        CARE OF             
MTR06918200001000000000000000RA              39584038    005801370000013700000520000003NN  NNW 000                       N    
RDG06918200WATRL000000004K00000000000001384006811032015092901N000000000000N61       001310400K 10000000010000001375           
CUS0691820000106089304007         MCDONALD GARY       13117 PATUXENT RD                       000N        CARE OF             
MTR06918200001000000000000000RA              24768582    005801380000013800000520000003NN  NNW 000                       N    
RDG06918200WATRL000000004K00000000000004603006911032015092953N000000000000N61       000520400K 10000000010000004599           
CUS0691820000106089303009         JOHN J MAURER       13119 PATUXENT RD                       000N        CARE OF             
MTR06918200001000000000000000RA              39291716    005801390000013900000520000003NN  NNW 000                       N    
RDG06918200WATRL000000004K00000000000002911007111032015093210N000400000010N61       000710400K 10000000010000002899           
CUS0691820000106089305004         BAGGETT PATRICK     13123 PATUXENT RD                       000N        CARE OF             
MTR06918200001000000000000000RA              25781766    005801400000014000000520000003NN  NNW 000                       N    
RDG06918200WATRL000000004K00000000000002554007311032015093713N000000000000N61       001440400K 10000000010000002538           
CUS0691820000106089306002         P. K. &T.H. BAGGHETT13201 PATUXENT RD                       000N        CARE OF             
MTR06918200001000000000000000RA              46887933    005801410000014100000520000003NN  NNW 000                       N    
RDG06918200WATRL000000004K00000000000000494007411032015093820N000300000010N61       000670400K 10000000010000000495           
CUS0691820000106089307000         FELTS LARRY R       13203 PATUXENT RD                       000N        CARE OF             
MTR06918200001000000000000000RA              14909319    005801420000014200000310000003NN  NNW 000                       N    
RDG06918200WATRL000000004K00000000000000808007511032015093924N000000000000N61       000640400K 10000000010000000783           
CUS0691820000106089308008         SHEW VINSON BRENT   13205 PATUXENT RD                       000N        CARE OF             
MTR06918200001000000000000000RA              35107260    005801430000014300000520000003NN  NNW 000                       N    
RDG06918200WATRL000000004K00000000000002539007611032015094152N000300000010N61       001480400K 10000000010000002764           
CUS0691820000106089309006         ODONNELL RONALD T   13207 PATUXENT RD                       000N        CARE OF             
MTR06918200001000000000000000RA              39290630    005801440000014400000520000003NN  NNW 000                       N    
RDG06918200WATRL000000004K00000000000002781007711032015094254N000300000010N61       000620400K 10000000010000002849           
CUS0691820000106089310004         PENNINGTON JESSE J  13209 PATUXENT RD                       000N        CARE OF             
MTR06918200001000000000000000RA              27825037    005801450000014500000520000003NN  NNW 000                       N    
RDG06918200WATRL000000004K00000000000000000007811032015094330S005000000000U61       000360400K 10000000010000001811           
CUS0691820000106089311002         TUCKER JOAN B       13211 PATUXENT RD                       000N        CARE OF             
MTR06918200001000000000000000RA              10003883    005801460000014600000570000003NN  NNW 000                       N    
RDG06918200WATRL000000004K00000000000000377007911032015094430N000000000010N61       000600400K 10000000010000000369           
CUS0691820000106089312000         HARMON BOBBIE S     13215 PATUXENT RD                       000N        CARE OF             
MTR06918200001000000000000000RA              78024151    005801470000014700000350000003NN  NNW 000                       N    
RDG06918200WATRL000000004K00000000000000085011211032015103550N000000000000N61       003190400K 10000000010000000030           
CUS0691820000106089313008         CROWTHER CHARLES J  13214 PATUXENT RD                       000N        CARE OF             
MTR06918200001000000000000000RA              10015297    005801480000014800000570000003NN  NNW 000                       N    
RDG06918200WATRL000000004K00000000000000495008011032015094700N000000000000N61       001500400K 10000000010000000466           
CUS0691820000106401901001         DENNIS RAFFERTY     13212 PATUXENT RD                       000N        CARE OF             
MTR06918200001000000000000000RA              41075522    005801490000014900000520000003NN  NNW 000                       N    
RDG06918200WATRL000000004K00000000000003797008111032015094746N000400000010N61       000460400K 10000000010000003785           
CUS0691820000106089314006         WAGNER ANTHONY J    13210 PATUXENT RD                       000N        CARE OF             
MTR06918200001000000000000000RA              75615704    005801500000015000000350000003NN  NNW 000                       N    
RDG06918200WATRL000000004K00000000000000169008211032015094823N000000000000N61       000370400K 10000000010000000150           
CUS0691820000106089315003         THOMAS A RAPANOTTI &13208 PATUXENT RD                       000N        CARE OF             
MTR06918200001000000000000000RA              00000000    005801510000015100000600000000NN  NNW 000                       N    
RDG06918200WATRL000000004K00000000000002840008311032015094909N000000000000N61       000460400K 10000000010000002826           
CUS0691820000106352593005         MEYERS RONALD L     13206 PATUXENT RD                       000N        CARE OF             
MTR06918200001000000000000000RA              27829223    005801520000015200000520000003NN  NNW 000                       N    
RDG06918200WATRL000000004K00000000000004707008411032015095036N000000000000N61       000870400K 10000000010000004688           
CUS0691820000106089316001         EDWARDS WILLIAM E   13204 PATUXENT RD                       000N        CARE OF             
MTR06918200001000000000000000RA              46887873    005801530000015300000520000003NN  NNW 000                       N    
RDG06918200WATRL000000004K00000000000002177008511032015095225N000000000000N61       001090400K 10000000010000002159           
CUS0691820000106089317009         EDWARDS WILLIAM R   13200 PATUXENT RD                       000N        CARE OF             
MTR06918200001000000000000000RA              26002160    005801540000015400000520000003NN  NNW 000                       N    
RDG06918200WATRL000000004K00000000000001156008611032015095318N000000000000N61       000530400K 10000000010000001131           
CUS0691820000106089318007         RUPP WALTER EARL    13124 PATUXENT RD                       000N        CARE OF             
MTR06918200001000000000000000RA              35109056    005801550000015500000520000003NN  NNW 000                       N    
RDG06918200WATRL000000004K00000000000001565007211032015093449N000000000000N61       001590400K 10000000010000001543           
CUS0691820000106089319005         EARLL DENNIS E      13118 PATUXENT RD                       000N        CARE OF             
MTR06918200001000000000000000RA              44002366    005801560000015600000520000003NN  NNW 000                       N    
RDG06918200WATRL000000004K00000000000003058007011032015093059N000000000000N61       000660400K 10000000010000003025           
CUS0691820000106089320003         WAGNER SHEILA       13114 PATUXENT RD                       000N        CARE OF             
MTR06918200001000000000000000RA              48588765    005801570000015700000520000003NN  NNW 000                       N    
RDG06918200WATRL000000004K00000000000003727006611032015092601N000400000010N61       000370400K 10000000010000003718           
CUS0691820000106089321001         HENDON GERALD WOODRO13112 PATUXENT RD                       000N        CARE OF             
MTR06918200001000000000000000RA              40320814    005801580000015800000520000003NN  NNW 000                       N    
RDG06918200WATRL000000004K00000000000003860006511032015092524N000300000010N61       003040400K 10000000010000003820           
CUS0691820000106373319000         ELMER JOHN CLARK, JR13110 PATUXENT RD                       000N        CARE OF             
MTR06918200001000000000000000RA              10016957    005801590000015900000570000003NN  NNW 000                       N    
RDG06918200WATRL000000004K00000000000000298006311032015091908N000000000000N61       000450400K 10000000010000000290           
CUS0691820000106089323007         SNYDER RONALD E,JR  13108 PATUXENT RD                       000N        CARE OF             
MTR06918200001000000000000000RA              46887856    005801600000016000000520000003NN  NNW 000                       N    
RDG06918200WATRL000000004K00000000000002168006211032015091823N000400000010N61       000320400K 10000000010000002158           
CUS0691820000106089322009         GAYDOS LEWIS E      13106 PATUXENT RD                       000N        CARE OF             
MTR06918200001000000000000000RA              14923370    005801610000016100000310000003NN  NNW 000                       N    
RDG06918200WATRL000000004K00000000000000250006011032015091637N000000000000N61       001480400K 10000000010000000247           
CUS0691820000106089324005         LARRY R FELTS       13104 PATUXENT RD                       000N        CARE OF             
MTR06918200001000000000000000RA              14919630    005801620000016200000310000003NN  NNW 000                       N    
RDG06918200WATRL000000004K00000000000000029008711032015095724N000300000010N61       002460400K 10000000010000000051           
CUS0691820000106089325002         RUCCI ANTHONY F     13102 PATUXENT RD                       000N        CARE OF             
MTR06918200001000000000000000RA              14923772    005801630000016300000310000003NN  NNW 000                       N    
RDG06918200WATRL000000004K00000000000000519005711032015091143N000000000000N61       002740400K 10000000010000000506           
CUS0691820000106089326000         JOHNSON RICHARD T   7110 OLIVERWOOD RD                      000N        CARE OF             
MTR06918200001000000000000000RA              46877958    005801640000016400000520000003NN  NNW 000                       N    
RDG06918200WATRL000000004K00000000000000000005611032015090709S063000000000N61       000640400K 10000000010000002298           
CUS0691820000106432581004         COX MARIAN R  GOELLE7108 OLIVERWOOD RD                      000N        CARE OF             
MTR06918200001000000000000000RA              14913090    005801650000016500000310000003NN  NNW 000                       N    
RDG06918200WATRL000000004K00000000000000633005411032015090515N000000000000N61       002680400K 10000000010000000611           
CUS0691820000106386271008         MILLER CHARLES M    7106 OLIVERWOOD RD                      000N        CARE OF             
MTR06918200001000000000000000RA              35111253    005801660000016600000520000003NY  NNW 000                       N    
MTM0691820035111253    bush                                                                                                   
RDG06918200WATRL000000004K00000000000000000000000000000000000 000000000000U         000000400  10000000010000003789           
CUS0691820000106379359000         DANE E GLISAN       7102 OLIVERWOOD RD                      000N        CARE OF             
MTR06918200001000000000000000RA              32904198    005801670000016700000520000003NN  NNW 000                       N    
RDG06918200WATRL000000004K00000000000003686005211032015090017N000400000010N61       000380400K 10000000010000003674           
CUS0691820000106089345000         DOBIHAL RICHARD A   7036 OLIVERWOOD RD                      000N        CARE OF             
MTR06918200001000000000000000RA              46888833    005801680000016800000520000003NN  NNW 000                       N    
RDG06918200WATRL000000004K00000000000001806004611032015085517N000000000000N61       000440400K 10000000010000001796           
CUS0691820000106396300003         JULIA A HUBER       13012 OLIVERWOOD RD                     000N        CARE OF             
MTR06918200001000000000000000RA              39291817    005801690000016900000520000003NN  NNW 000                       N    
RDG06918200WATRL000000004K00000000000003143000711032015081316N000000000000N61       000520400K 10000000010000003135           
CUS0691820000106413090009         MCCUBBIN MICHAEL A  13010 OLIVERWOOD RD                     000N        CARE OF             
MTR06918200001000000000000000RA              46878559    005801700000017000000520000003NN  NNW 000                       N    
RDG06918200WATRL000000004K00000000000003326000611032015081224N000000000000N61       000740400K 10000000010000003304           
CUS0691820000106414391000         REYNOLDS THOMAS     13000 OLIVERWOOD RD                     000N        CARE OF             
MTR06918200001000000000000000RA              46883539    005801710000017100000520000000NN  NNW 000                       N    
RDG06918200WATRL000000004K00000000000002049000511032015081110N000400000010N61       000970400K 10000000010000002040           
CUS0691820000106419300006         ESPEY CHARLES A     7002 OLIVER BEACH RD                    000N        CARE OF             
MTR06918200001000000000000000RA              48592673    005801720000017200000520000003NN  NNW 000                       N    
RDG06918200WATRL000000004K00000000000001592000211032015080646N000400000010N61       001370400K 10000000010000001585           
CUS0691820000106412140003         PRESTIANNI PAUL     7000 OLIVER BEACH RD                    000N        CARE OF             
MTR06918200001000000000000000RA              46876298    005801730000017300000520000003NN  NNW 000                       N    
RDG06918200WATRL000000004K00000000000002688000111032015080429N000300000010N61       000000400K 10000000010000002723           
CUS0691820000106089670001         CHARLOTTE SCOTT     7001 OLIVER BEACH RD                    000N        CARE OF             
MTR06918200001000000000000000RA              46887923    005801740000017400000520000003NN  NNW 000                       N    
RDG06918200WATRL000000004K00000000000000834011311032015104050N000000000000N61       003000400K 10000000010000000827           
CUS0691820000106421188001         TRIONFO DOMINIC JOHN7005 OLIVER BEACH RD                    000N        CARE OF             
MTR06918200001000000000000000RA              50479095    005801750000017500000520000000NN  NNW 000                       N    
RDG06918200WATRL000000004K00000000000002394000311032015080743N000000000000N61       000570400K 10000000010000002346           
CUS0691820000106414991007         DUKES BARRY A       7007 OLIVER BEACH RD                    000N        CARE OF             
MTR06918200001000000000000000RA              46884642    005801760000017600000520000003NN  NNW 000                       N    
RDG06918200WATRL000000004K00000000000002372000411032015080933N000000000000N61       001100400K 10000000010000002356           
RTR06918200NN01760176000001760000000001760176000255NY017601760176000600040000000000000000000002    11022015NY020000 N         
RHD09005000NN01380139000001380000000101200120000043NY012001200139001000110000000000000000000001    09212015NY020000 N         
CUS0900500000103447055009         ROLAND PARK PL      830 W 40TH ST                           000N        CARE OF             
MTR09005000001000000000000000RA              99999999    005800010000000100000680000003NN  NNW 000                       N    
RDG09005000WATRL000000004K00000000000000000000111042015110947S040000000000N84       000000400K 10000000010000003191           
CUS0900500000109388581002         HOOPER INDUSTRIES, I2165 DRUID PARK DR                      000N        CARE OF             
MTR09005000002000000000000000RA              7194714     000800020000000200000630000003NY  NNW 000   FIRE SERVICE        N    
MTM090050007194714     OK                                                                                                     
RDG09005000WATAL000000006K00000000000003454000211042015111009N000400000010N84       000220600K 10000000010000003347           
RDG09005000WATBL000000006K00000000000006121000311042015111028N000400000010N84       000190600K 10000000010000005875           
CUS0900500000103447056007         KESWICK MULTI-CARE C700 W 40TH ST                           000N        CARE OF             
MTR09005000001000000000000000RA              99999999    005800030000000300000680000003NN  NNW 000                       N    
RDG09005000WATRL000000004K00000000000000000000411042015111037S040000000000N84       000090400K 10000000010000002014           
CUS0900500000109454831000         GRANDE ROTUNDA, LLC 711 W 40TH ST                           000N        CARE OF             
MTR09005000001000000000000000RA              13800702    001000040000000400000680000003NY  NNW 000   FIRE SERVICE        N    
MTM0900500013800702    DIAL 1 000162       DIAL 2  00107                                                                      
RDG09005000WATRL000000007K00000000000000107000511042015111138N000000000010N84       000610700K 10000000010000000001           
CUS0900500000109454833006         GRANDE ROTUNDA, LLC 711 W 40TH ST                           000N        CARE OF             
MTR09005000001000000000000000RA              74033022    000400050000000500000000000003NN  NNW 000                       N    
RDG09005000WATRL000000006K00000000000001383000611042015111152N000300000010N84       000140600K 10000000010000000633           
CUS0900500000109388583008         HOOPER INDUSTRIES, I2165 DRUID PARK DR                      000N        CARE OF             
MTR09005000001000000000000000RA              99170728    000200060000000600000570000003NY  NNW 000                       N    
MTM0900500099170728    C/S                                                                                                    
RDG09005000WATRL000000005K00000000000000000000000000000000000 000000000000U         000000500  10000000010000000813           
CUS0900500000109435865002         MILLRACE CON. OWNRS 2007 CLIPPER PARK RD                    000N        CARE OF             
MTR09005000001000000000000000RA              8048679     000800070000000700000380000000NN  NNW 000   FIRE SERVICE        N    
RDG09005000WATRL000000006K00000000000000006000711042015111159N000000000000N84       000070600K 10000000010000000006           
CUS0900500000109435867008         MILLRACE CON OWNRS A2007 CLIPPER PARK RD                    000N        CARE OF             
MTR09005000001000000000000000RA              0904467     000400080000000800000640000003NN  NNW 000                       N    
RDG09005000WATRL000000006K00000000000017231000811042015111228N000000000000N84       000290600K 10000000010000016419           
CUS0900500000109257686007         HOOPER INDUSTRIES IN3502-06 PARKDALE AVE                    000N        CARE OF             
MTR09005000001000000000000000RA              99999999    005800090000000900000620000003NN  NNW 000   INVALID DAC         N    
RDG09005000WATRL000000004K00000000000000000000911042015111234S022000000000N84       000060400K 10000000010000000000           
CUS0900500000109257685009         DRUID PK INDUSTRAL C3502 PARKDALE AVE                       000N        CARE OF             
MTR09005000001000000000000000RA              01105127    001500100000001000000610000003NN  NNW 000                       N    
RDG09005000WATRL000000005K00000000000029153001011042015111246N000400000010N84       000120500K 10000000010000028840           
CUS0900500000109257684002         DRUID PK INDUSTRAL C3502 PARKDALE AVE                       000N        CARE OF             
MTR09005000001000000000000000RA              5705141     000800110000001100000410000003NN  NNW 000   FIRE SERVICE        N    
RDG09005000WATRL000000006K00000000000000395001111042015111256N000000000000N84       000100600K 10000000010000000395           
CUS0900500000109257682006         PARKDALE ENTERPRISES3500 PARKDALE AVE                       000N        CARE OF             
MTR09005000002000000000000000RA              1508243     000800120000001200000630000003NY  NNW 000   FIRE SERVICE        N    
MTM090050001508243     OK                                                                                                     
RDG09005000WATAL000000006K00000000000000000001211052015123702S005000000000U84       000000600K 10000000010000000013           
RDG09005000WATBL000000006K00000000000008483001311052015123745N000400000010U84       000430600K 10000000010000001638           
CUS0900500000109257681008         PARKDALE ENTERPRISES3500 PARKDALE AVE                       000N        CARE OF             
MTR09005000001000000000000000RA              11800838    000300130000001300000640000003NN  NNW 000                       N    
RDG09005000WATRL000000005K00000000000001974001411042015111341N000000000000N84       000090500K 10000000010000001865           
CUS0900500000109257668005         FRATERNAL ORDER OF P3920 BUENA VISTA AVE                    000N        CARE OF             
MTR09005000001000000000000000RA              27775126    000100140000001400000520000003NN  NNW 000   VACANT PROPERTY     N    
RDG09005000WATRL000000004K00000000000009999001511042015111348N000000000000N84       000070400K 10000000010000009999           
CUS0900500000109257667007         ZIEGFIELD CORP.     4000 BUENA VISTA AVE                    000N        CARE OF             
MTR09005000001000000000000000RA              5003366     001000150000001500000410000003NN  NNW 000   FIRE SERVICE        N    
RDG09005000WATRL000000007K00000000000007405001611042015111354N000000000000N84       000060700K 10000000010000007405           
CUS0900500000109257666009         AMERICAN BUILDERS & 3901 BUENA VISTA AVE                    000N        CARE OF             
MTR09005000001000000000000000RA              35115399    005800160000001600000520000003NN  NNW 000                       N    
RDG09005000WATRL000000004K00000000000009952001711042015111402N000300000010N84       000080400K 10000000010000009662           
CUS0900500000109257665001         AMERICAN BUILDERS & 3901 BUENA VISTA AVE                    000N        CARE OF             
MTR09005000001000000000000000RA              5275692     000800170000001700000410000003NN  NNW 000   FIRE SERVICE        N    
RDG09005000WATRL000000006K00000000000000000001811052015123811S005000000000U84       000260600K 10000000010000000007           
CUS0900500000109257664004         WELDON COURT INVESTO1400-38 WELDON PL N                     000N        CARE OF             
MTR09005000001000000000000000RA              01116907    000200180000001800000610000003NN  NNW 000                       N    
RDG09005000WATRL000000005K00000000000013552001911042015111446N000000000000N84       000060500K 10000000010000013265           
CUS0900500000109257663006         WELDON COURT INVESTO4100-42 WELDON PL W                     000N        CARE OF             
MTR09005000001000000000000000RA              01117033    000200190000001900000610000003NN  NNW 000                       N    
RDG09005000WATRL000000005K00000000000020542002011042015111455N000000000000N84       000090500K 10000000010000020131           
CUS0900500000109257662008         BEN FREDERICK AGENT 1401-07 WELDON PL S                     000N        CARE OF             
MTR09005000001000000000000000RA              01116996    000200200000002000000610000003NN  NNW 000                       N    
RDG09005000WATRL000000005K00000000000011941002111042015111519N000000000000N84       000240500K 10000000010000011559           
CUS0900500000109257661000         HEDWIN CORPORATION  1700 W 41ST ST                          000N        CARE OF             
MTR09005000002000000000000000RA              1537466     000800210000002100000630000003NY  NNW 000   FIRE SERVICE        N    
MTM090050001537466     OK                                                                                                     
RDG09005000WATAL000000006K00000000000000247002211042015111609N000000000000N84       000500600K 10000000010000000247           
RDG09005000WATBL000000006K00000000000000022002311042015111617N000300000010N84       000080600K 10000000010000051061           
CUS0900500000109257660002         HEDWIN CORPORATION  1700 W 41ST ST                          000N        CARE OF             
MTR09005000001000000000000000RA              73437908    000200220000002200000640000003NN  NNW 000                       N    
RDG09005000WATRL000000005K00000000000000259002411042015111633N000300000010N84       000160500K 10000000010000000086           
CUS0900500000109257659004         KEYSER INVESTMENT GR2000-08 W 41ST ST                       000N        CARE OF             
MTR09005000001000000000000000RA              35105036    001500230000002300000520000003NN  NNW 000                       N    
RDG09005000WATRL000000005K00000000000022507002511042015111640N000000000000N84       000070500K 10000000010000022389           
CUS0900500000109435870002         CLIPPER REDEV. CO. L2002 CLIPPER PARK RD                    000N        CARE OF             
MTR09005000001000000000000000RA              0910843     000400240000002400000630000003NN  NNW 000                       N    
RDG09005000WATRL000000006K00000000000000832002611042015111646N000000000000N84       000060600K 10000000010000000802           
CUS0900500000109435868006         CLIPPER REDEV CO. LL2002 CLIPPER PARK RD                    000N        CARE OF             
MTR09005000001000000000000000RA              8048193     000600250000002500000380000000NY  NNW 000   FIRE SERVICE        N    
MTM090050008048193     OK                                                                                                     
RDG09005000WATRL000000006K00000000000000777002711042015111715N000000000010N84       000290600K 10000000010000000796           
CUS0900500000109411032007         ALICE BUILDING II, L2095 ROCKROSE AVE                       000N        CARE OF             
MTR09005000001000000000000000RA              60795936    000300260000002600000470000003NN  NNW 000                       N    
RDG09005000WATRL000000005K00000000000055566002811042015111721N000000000000N84       000060500K 10000000010000054695           
CUS0900500000109257673005         WMAR-TV             3724 PARKDALE AVE                       000N        CARE OF             
MTR09005000001000000000000000RA              46288268    000100270000002700000520000003NY  NNW 000                       N    
MTM0900500046288268    AMI OK                                                                                                 
RDG09005000WATRL000000004K00000000000000001002911042015111807N000000000010N84       000460400K 10000000010000002527           
CUS0900500000109257669003         TYPO BUILDING, LLC  2050 ROCKROSE AVE                       000N        CARE OF             
MTR09005000001000000000000000RA              33731729    007500280000002800000520000003NN  NNW 000                       N    
RDG09005000WATRL000000004K00000000000006142003011042015111815N000300000010N84       000080400K 10000000010000005131           
CUS0900500000109257672007         HEARST-ARGYLE STATIO3800 HOOPER AVE                         000N        CARE OF             
MTR09005000001000000000000000RA              01116729    000200290000002900000610000003NY  NNW 000                       N    
MTM0900500001116729    OK                                                                                                     
RDG09005000WATRL000000005K00000000000014652003111042015111902N000300000010N84       000470500K 10000000010000015763           
CUS0900500000109257671009         HEARST-ARGYLE STATIO3800 HOOPER AVE                         000N        CARE OF             
MTR09005000001000000000000000RA              5204131     000600300000003000000410000003NY  NNW 000   FIRE SERVICE        N    
MTM090050005204131     OK                                                                                                     
RDG09005000WATRL000000006K00000000000000029003211042015111925N000000000010N84       000230600K 10000000010000000030           
CUS0900500000109388122005         3701 MALDEN AVENUE  3701 MALDEN AVE                         000N        CARE OF             
MTR09005000001000000000000000RA              35105327    007500310000003100000520000003NN  NNW 000                       N    
RDG09005000WATRL000000004K00000000000009620003311042015112008N000000000000N84       000430400K 10000000010000009561           
CUS0900500000109388121007         3701 MALDEN AVENUE  3701 MALDEN AVE                         000N        CARE OF             
MTR09005000001000000000000000RA              E21154      000600320000003200000430000003NN  NNW 000   FIRE SERVICE        N    
RDG09005000WATRL000000006K00000000000000000003411042015112011N000000000000N84       000030600K 10000000010000000000           
CUS0900500000109257675000         WESTINGHOUSE        3725 MALDEN AVE                         000N        CARE OF             
MTR09005000001000000000000000RA              9103171     000300330000003300000640000003NN  NNW 000                       N    
RDG09005000WATRL000000005K00000000000017367000411052015123953N000000000000U84       001020500K 10000000010000016425           
CUS0900500000109257674003         WESTINGHOUSE        3725 MALDEN AVE                         000N        CARE OF             
MTR09005000002000000000000000RA              5204111     000800340000003400000480000003NY  NNW 000   FIRE SERVICE        N    
MTM090050005204111     C/S                    C/S                                                                             
RDG09005000WATAL000000006K00000000000000000000000000000000000 000000000000U         000000600  10000000010000000019           
RDG09005000WATBL000000006K00000000000000000000000000000000000 000000000000U         000000600  10000000010000000023           
CUS0900500000109257676008         2200 GIRARD AVENUE, 2200 GIRARD AVE                         000N        CARE OF             
MTR09005000001000000000000000RA              29074436    000100350000003500000520000003NY  NNW 000                       N    
MTM0900500029074436    BURIED                                                                                                 
RDG09005000WATRL000000004K00000000000000000000000000000000000 000000000000U         000000400  10000000010000003366           
CUS0900500000109430543000         1700 UNION AVENUE, L1700 UNION AVE                          000N        CARE OF             
MTR09005000001000000000000000RA              8037574     000600360000003600000380000003NN  NNW 000   FIRE SERVICE        N    
RDG09005000WATRL000000006K00000000000000000003611042015112104N000000000000N84       000230600K 10000000010000000000           
CUS0900500000109430545005         1700 UNION AVENUE, L1700 UNION AVE                          000N        CARE OF             
MTR09005000001000000000000000RA              78027893    007500370000003700000360000003NY  NNW 000                       N    
MTM0900500078027893    AMI OK                                                                                                 
RDG09005000WATR 000000004R00000000000000821003711052015180000N000300000030N84       000280400R 10000000010000000000           
RFF0900500068865862      ERT      0016  956.44375000140800110520151800000008213096100W 1220001N                               
CUS0900500000109257689001         LEO V MILLER JR.    1750 UNION AVE                          000N        CARE OF             
MTR09005000001000000000000000RA              E23085      000600380000003800000430000003NN  NNW 000   FIRE SERVICE        N    
RDG09005000WATRL000000006K00000000000000000003811042015112210S022000000000N84       000380600K 10000000010000000193           
CUS0900500000109257692005         CLIPPER MILL,LLC.   1760 UNION AVE                          000N        CARE OF             
MTR09005000001000000000000000RA              7197302     000800390000003900000340000003NN  NNW 000   FIRE SERVICE        N    
RDG09005000WATRL000000006K00000000000005811003911042015112221N000400000010N84       000110600K 10000000010000005805           
CUS0900500000109257688003         LEO V MILLER JR     1750 UNION AVE                          000N        CARE OF             
MTR09005000001000000000000000RA              01116992    000200400000004000000610000003NN  NNW 000                       N    
RDG09005000WATRL000000005K00000000000001132004011042015112230N000000000000N84       000090500K 10000000010000001100           
CUS0900500000109257693003         CLIPPER MILL,LLC.   1760 UNION AVE                          000N        CARE OF             
MTR09005000001000000000000000RA              61858480    000300410000004100000470000003NY  NNW 000                       N    
MTM0900500061858480    CAR                                                                                                    
RDG09005000WATRL000000005K00000000000000000000000000000000000 000000000000U         000000500  10000000010000002182           
CUS0900500000109257694001         CLIPPER MILL, LLC   1770-1800 UNION AVE                     000N        CARE OF             
MTR09005000003000000000000000RA              4672929     000800420000004200000480000003NN  NNW 000   FIRE SERVICE        N    
RDG09005000WATAL000000006K00000000000000001004111042015112302N000000000000N84       000320600K 10000000010000000001           
RDG09005000WATBL000000006K00000000000018614004211042015112314N000100000010N84       000120600K 10000000010000018614           
RDG09005000WATCL000000006K00000000000000000004311042015112323N000100000010N84       000090600K 10000000010000000000           
CUS0900500000109386574009         CLIPPER MILL,LLC.   1770-1800 UNION AVE                     000N        CARE OF             
MTR09005000001000000000000000RA              26012438    005800430000004300000520000003NN  NNW 000                       N    
RDG09005000WATRL000000004K00000000000000180004411042015112330N000000000010N84       000070400K 10000000010000000179           
CUS0900500000109257656000         EUTAW PROPERTY ENTER3600 CLIPPER MILL RD                    000N        CARE OF             
MTR09005000003000000000000000RA              1491948     000800440000004400000390000003NN  NNW 000   FIRE SERVICE        N    
RDG09005000WATAL000000006K00000000000000207000511052015124119N000000000000U84       000860600K 10000000010000000207           
RDG09005000WATBL000000006K00000000000000969000611052015124127N000100000010U84       000080600K 10000000010000000969           
RDG09005000WATCL000000006K00000000000008398000711052015124136N000100000010U84       000090600K 10000000010000008398           
CUS0900500000109257657008         EUTAW PROPERTY ENTER3600 CLIPPER MILL RD                    000N        CARE OF             
MTR09005000001000000000000000RA              99919923    000300450000004500000460000003NY  NNW 000                       N    
MTM0900500099919923    COND                                                                                                   
RDG09005000WATRL000000005K00000000000000000000000000000000000 000000000000U         000000500  10000000010000054754           
CUS0900500000109446222003         SEAWALL UNION AVENUE1500 UNION AVE                          000N        CARE OF             
MTR09005000001000000000000000RA              09053955    000800460000004600000380000000NY  NNW 000   FIRE SERVICE        N    
MTM0900500009053955    AMI OK                                                                                                 
RDG09005000WATRL000000006K00000000000000000004511042015112415N000000000010N84       000450600K 10000000010000000008           
CUS0900500000109446224009         SEAWALL UNION AVENUE1500 UNION AVE                          000N        CARE OF             
MTR09005000001000000000000000RA              90000223    000200470000004700000570000000NN  NNW 000                       N    
RDG09005000WATRL000000005K00000000000013097004611042015112425N000000000000N84       000100500K 10000000010000011899           
CUS0900500000109257699000         ST.AMBROSE HOUSING A1420-36 UNION AVE                       000N        CARE OF             
MTR09005000001000000000000000RA              01116730    000200480000004800000610000003NN  NNW 000                       N    
RDG09005000WATRL000000005K00000000000023101004711042015112431N000000000000N84       000060500K 10000000010000022440           
CUS0900500000109257701004         CAIRNES LLC         3622 CAIRNES LN                         000N        CARE OF             
MTR09005000001000000000000000RA              99999999    007500490000004900000620000003NN  NNW 000                       N    
RDG09005000WATRL000000004K00000000000000000004811042015112604S022000000000N84       000930400K 10000000010000002309           
CUS0900500000102457637003         CAIRNES LN DEVELOPME3622 CAIRNES LN                         000N        CARE OF             
MTR09005000001000000000000000RA              14276048    000800490010004900100390000003NY  NNW 000                       N    
MTM0900500014276048    CONST                                                                                                  
RDG09005000WATRL000000006K00000000000000000000000000000000000 000000000000U         000000600  10000000010000000000           
CUS0900500000109257700006         ST.AMBROSE HOUSING A1420-36 UNION AVE                       000N        CARE OF             
MTR09005000001000000000000000RA              29768400    000200500000005000000520000003NY  NNW 000                       N    
MTM0900500029768400    OK                                                                                                     
RDG09005000WATRL000000005K00000000000018726004911042015112647N000000000010N84       000430500K 10000000010000004168           
CUS0900500000109257655002         WASTE WATER JONES FA3400 ASH ST                             000N        CARE OF             
MTR09005000002000000000000000RA              04178307    000300510000005100000460000003NY  NNW 000                       N    
MTM0900500004178307    DOOR LOCKED                                                                                            
RDG09005000WATAL000000005K00000000000000000000000000000000000 000000000000U         000000500  10000000010000008562           
RDG09005000WATBL000000005K00000000000000000000000000000000000 000000000000U         000000500  10000000010000006393           
CUS0900500000109257654005         WHITEHALL MILL, LLC 3300 CLIPPER MILL RD                    000N        CARE OF             
MTR09005000001000000000000000RA              33084137    000200520000005200000520000003NY  NNW 000                       N    
MTM0900500033084137    CONST                                                                                                  
RDG09005000WATRL000000005K00000000000000000000000000000000000 000000000000U         000000500  10000000010000015283           
CUS0900500000109376568003         DEPT OF EDUCATION   1300 W 36TH ST                          000N        CARE OF             
MTR09005000001000000000000000RA              9203698     000400530000005300000640000003NN  NNW 000                       N    
RDG09005000WATRL000000006K00000000000066580005011042015112706N000000000000N84       000190600K 10000000010000062994           
CUS0900500000109376567005         DEPT OF EDUCATION   1300 W 36TH ST                          000N        CARE OF             
MTR09005000001000000000000000RA              E17976      000600540000005400000430000003NN  NNW 000   CITY FIRE SERV      N    
RDG09005000WATRL000000006K00000000000000041005111042015112711N000000000000N84       000050600K 10000000010000000041           
CUS0900500000109443383006         URBAN MENNONITE MINI1228 W 36TH ST                          000N        CARE OF             
MTR09005000001000000000000000RA              8052233     000600550000005500000410000000NN  NNW 000   FIRE SERVICE        N    
RDG09005000WATRL000000006K00000000000000001005211042015112719N000000000000N84       000080600K 10000000010000000001           
CUS0900500000109443385001         LEARNING INC        1228 W 36TH ST                          000N        CARE OF             
MTR09005000001000000000000000RA              01117290    000200560000005600000610000000NN  NNW 000                       N    
RDG09005000WATRL000000005K00000000000001649005311042015112729N000300000010N84       000100500K 10000000010000001583           
CUS0900500000109257704008         BD OF PARK COMM     1201 W 36TH ST                          000N        CARE OF             
MTR09005000001000000000000000RA              1362075     000300570000005700000490000003NN  NNW 000                       N    
RDG09005000WATRL000000005K00000000000019641005411042015112740N000000000000N84       000110500K 10000000010000018056           
CUS0900500000109257703000         DEPT. RECREATION AND1201 W 36TH ST                          000N        CARE OF             
MTR09005000001000000000000000RA              1293020     000300580000005800000470000003NN  NNW 000                       N    
RDG09005000WATRL000000005K00000000000072449005511042015112747N000000000000N84       000070500K 10000000010000072384           
CUS0900500000109257711003         TOTAL BUILDING SERVI3618 HICKORY AVE                        000N        CARE OF             
MTR09005000001000000000000000RA              39583820    005800590000005900000520000003NN  NNW 000                       N    
RDG09005000WATRL000000004K00000000000000735005611042015112756N000300000010N84       000090400K 10000000010000000726           
CUS0900500000109257710005         3605 HICKORY AVE, LL3605-11 HICKORY AVE                     000N        CARE OF             
MTR09005000001000000000000000RA              00066896    001500600000006000000570000003NN  NNW 000   VACANT PROPERTY     N    
RDG09005000WATRL000000005K00000000000000033005711042015112805N000000000000N84       000090500K 10000000010000000033           
CUS0900500000109257709007         3605 HICKORY AVE, LL3605-11 HICKORY AVE                     000N        CARE OF             
MTR09005000001000000000000000RA              1849749     000400610000006100000410000003NN  NNW 000   FIRE SERVICE        N    
RDG09005000WATRL000000006K00000000000000000005811052015124315S005000000000U84       000990600K 10000000010000000315           
CUS0900500000109447116006         1017 W 36TH STREET L1017 W 36TH ST                          000N        CARE OF             
MTR09005000001000000000000000RA              30002704    007500620000006200000570000000NN  NNW 000                       N    
RDG09005000WATRL000000004K00000000000004698005911042015112820N000000000000N84       000080400K 10000000010000004273           
CUS0900500000109440069004         HISTORIC HAMDEN HALL921-31 W 36TH ST                        000N        CARE OF             
MTR09005000001000000000000000RA              8047540     000400630000006300000380000000NN  NNW 000   FIRE SERVICE        N    
RDG09005000WATRL000000006K00000000000000001006011042015112825N000000000000N84       000050600K 10000000010000000001           
CUS0900500000109440071000         HISTORIC HAMDEN HALL921-31 W 36TH ST                        000N        CARE OF             
MTR09005000001000000000000000RA              01117149    000200640000006400000610000000NN  NNW 000                       N    
RDG09005000WATRL000000005K00000000000003768006111042015112833N000000000000N84       000080500K 10000000010000003652           
CUS0900500000109358964006         ELIAS HOULIARAS     911-13 W 36TH ST                        000N        CARE OF             
MTR09005000001000000000000000RA              27316358    001500650000006500000520000003NN  NNW 000                       N    
RDG09005000WATRL000000005K00000000000011207006211042015112915N000000000000N84       000420500K 10000000010000010912           
CUS0900500000109358963008         IM ETAL, JOHN N     911-13 W 36TH ST                        000N        CARE OF             
MTR09005000001000000000000000RA              E13441      000600660000006600000430000000NN  NNW 000   FIRE SERVICE        N    
RDG09005000WATRL000000006K00000000000000000006311042015112919N000000000000N84       000040600K 10000000010000000000           
CUS0900500000109410608005         US POST OFC - HAMPDE919 W 34TH ST                           000N        CARE OF             
MTR09005000001000000000000000RA              00066704    000200670000006700000570000003NN  NNW 000                       N    
RDG09005000WATRL000000005K00000000000003176006411042015112924N000000000000N84       000050500K 10000000010000003140           
CUS0900500000109410606009         US POST OFC - HAMPDE919 W 34TH ST                           000N        CARE OF             
MTR09005000001000000000000000RA              07994       000600680000006800000440000003NN  NNW 000   FIRE SERVICE        N    
RDG09005000WATRL000000006K00000000000000002006511042015112930N000000000000N84       000060600K 10000000010000000002           
CUS0900500000109257653007         WIMBROUGH JR, RICHAR3110 ELM AVE                            000N        CARE OF             
MTR09005000001000000000000000RA              31346565    001500690000006900000520000003NN  NNW 000                       N    
RDG09005000WATRL000000005K00000000000016697006611042015112936N000000000000N84       000060500K 10000000010000016673           
CUS0900500000109257652009         WIMBROUGH JR, RICHAR3110 ELM AVE                            000N        CARE OF             
MTR09005000001000000000000000RA              1386980     000600700000007000000410000003NN  NNW 000   FIRE SERVICE        N    
RDG09005000WATRL000000006K00000000000000000006711052015124331S005000000000U84       000160600K 10000000010000000521           
CUS0900500000109436558002         ROLAND VIEW, LLC    3622 ELM AVE                            000N        CARE OF             
MTR09005000001000000000000000RA              01117000    000200710000007100000610000000NN  NNW 000                       N    
RDG09005000WATRL000000005K00000000000002671006811042015112948N000000000000N84       000070500K 10000000010000002599           
CUS0900500000109436560008         LANCE CONTR         3710-1/2 ELM AVE                        000N        CARE OF             
MTR09005000001000000000000000RA              01117003    000200720000007200000610000000NN  NNW 000                       N    
RDG09005000WATRL000000005K00000000000001340006911042015113048N000000000000N84       000600500K 10000000010000001282           
