FHDNNNN013002774002774002774N                                                                                           008688
RHD04903200NN01490149000001490000000001490149000296NY014901490149002200080000000000000000000001    10292015NY020000 N         
CUS0490320000104079612000         TAYLORSON BENJAMIN J8120 NORRIS LN                          000N        CARE OF             
MTR04903200001000000000000000RA              01115917    005800010000000100000610000003NY  NNW 000                       N    
MTM0490320001115917    car                                                                                                    
RDG04903200WATRL000000004K00000000000000000000000000000000000 000000000000U         000000400  10000000010000001109           
CUS0490320000104079611002         RUDO HARRY          NEC COTTAGE &NORRIS AVS                 000N        CARE OF             
MTR04903200001000000000000000RA              9685080     005800020000000200000520000003NY  NNW 000                       N    
MTM049032009685080     cant locate                                                                                            
RDG04903200WATRL000000004K00000000000000000000000000000000000 000000000000U         000000400  10000000010000000090           
CUS0490320000104079608008         RUDO HARRY          SEC COTTAGE &NORRIS AVS                 000N        CARE OF             
MTR04903200001000000000000000RA              2477922     005800030000000300000320000003NY  NNW 000                       N    
MTM049032002477922     cant locate                                                                                            
RDG04903200WATRL000000004K00000000000000000000000000000000000 000000000000U         000000400  10000000010000001099           
CUS0490320000106373602009         2700 NORTH POINT LLC2700 NORTH POINT BLVD                   000N        CARE OF             
MTR04903200001000000000000000RA              99999999    007500040000000400000520000003NY  NNW 000   VACANT / LOT        N    
MTM0490320099999999    cant locate                                                                                            
RDG04903200WATRL000000004K00000000000000000000000000000000000 000000000000U         000000400  10000000010000000070           
CUS0490320000106446424001         MAXWELL, RICHARD    2615 N POINT BLVD                       000N        CARE OF             
MTR04903200001000000000000000RA              10024545    005800050000000500000570000000NN  NNW 000                       N    
RDG04903200WATRL000000004K00000000000000041004011022015092143N000000000000U61       008740400K 10000000010000000039           
CUS0490320000104079606002         13523 LONG GREEN PIK2718 N POINT BLVD                       000N        CARE OF             
MTR04903200001000000000000000RA              45383118    005800060000000600000520000003NN  NNW 000                       N    
RDG04903200WATRL000000004K00000000000002789003911022015090709N000400000010U61       000310400K 10000000010000002782           
CUS0490320000104079605004         CARAVELLO THOMAS L  2800 N POINT BLVD                       000N        CARE OF             
MTR04903200001000000000000000RA              48593785    005800070000000700000520000003NN  NNW 000                       N    
RDG04903200WATRL000000004K00000000000000469003811022015090638N000000000000U61       005290400K 10000000010000000465           
CUS0490320000104079604007         KUEMMER BRIAN SCOTT 3620 N POINT BLVD                       000N        CARE OF             
MTR04903200001000000000000000RA              45380226    005800080000000800000520000003NN  NNW 000                       N    
RDG04903200WATRL000000004K00000000000000885002411022015075702N000000000000U61       000750400K 10000000010000000881           
CUS0490320000104079603009         KUEMMER BRIAN S     8100 DUKIE AVE                          000N        CARE OF             
MTR04903200001000000000000000RA              30521915    005800090000000900000520000003NN  NNW 000                       N    
RDG04903200WATRL000000004K00000000000002776002311022015075547N000000000000U61       001260400K 10000000010000002745           
CUS0490320000104079602001         SPANGLO DOMINIC E,JR8102 DUKIE AVE                          000N        CARE OF             
MTR04903200001000000000000000RA              39290953    005800100000001000000520000003NY  NNW 000                       N    
MTM0490320039290953    dirt                                                                                                   
RDG04903200WATRL000000004K00000000000000000000000000000000000 000000000000U         000000400  10000000010000004272           
CUS0490320000104079601003         GILLENWATER RANDY   8104 DUKIE AVE                          000N        CARE OF             
MTR04903200001000000000000000RA              40047914    005800110000001100000520000003NN  NNW 000                       N    
RDG04903200WATRL000000004K00000000000002422002211022015075341N000000000000U61       000400400K 10000000010000002399           
CUS0490320000104079600005         MISKIMON LESTER PAUL8106 DUKIE AVE                          000N        CARE OF             
MTR04903200001000000000000000RA              45378133    005800120000001200000520000003NN  NNW 000                       N    
RDG04903200WATRL000000004K00000000000002194002111022015075301N000300000020U61       000640400K 10000000010000002212           
CUS0490320000104441210004         STEVEN & PATRICIA MA8219 ROSEBANK AVE                       000N        CARE OF             
MTR04903200001000000000000000RA              01098679    005800130000001300000610000000NN  NNW 000                       N    
RDG04903200WATRL000000004K00000000000000173012711022015122928N000000000000U61       000300400K 10000000010000000168           
CUS0490320000104079599009         HOHMAN NANCY J      8110 DUKIE AVE                          000N        CARE OF             
MTR04903200001000000000000000RA              48596510    005800140000001400000520000003NN  NNW 000                       N    
RDG04903200WATRL000000004K00000000000003305002011022015075157N000000000000U61       000730400K 10000000010000003264           
CUS0490320000104421846009         MISKIMON LESTER P,JR8116 DUKIE AVE                          000N        CARE OF             
MTR04903200001000000000000000RA              14900445    005800150000001500000310000003NN  NNW 000                       N    
RDG04903200WATRL000000004K00000000000001195001811022015074950N000300000010U61       001440400K 10000000010000001147           
CUS0490320000104079598001         LALL CHRISTOPHER    8111 DUKIE AVE                          000N        CARE OF             
MTR04903200001000000000000000RA              76346139    005800160000001600000350000003NN  NNW 000                       N    
RDG04903200WATRL000000004K00000000000000307001911022015075044N000000000000U61       000540400K 10000000010000000274           
CUS0490320000104079597003         SPANGLER GENE L     8107 DUKIE AVE                          000N        CARE OF             
MTR04903200001000000000000000RA              46885314    005800170000001700000520000003NN  NNW 000                       N    
RDG04903200WATRL000000004K00000000000001460001711022015074726N000400000010U61       000310400K 10000000010000001454           
CUS0490320000104079596005         YEAGER BRIAN        8105 DUKIE AVE                          000N        CARE OF             
MTR04903200001000000000000000RA              45378132    005800180000001800000520000003NN  NNW 000                       N    
RDG04903200WATRL000000004K00000000000004964001611022015074655N000000000000U61       000430400K 10000000010000004949           
CUS0490320000104079595007         8103 DUKEI AVENUE IN8103 DUKIE AVE                          000N        CARE OF             
MTR04903200001000000000000000RA              35103388    005800190000001900000520000003NN  NNW 000                       N    
RDG04903200WATRL000000004K00000000000006629001511022015074612N000000000000U61       000500400K 10000000010000006602           
CUS0490320000104079594000         HAYES JACK D        8101 DUKIE AVE                          000N        CARE OF             
MTR04903200001000000000000000RA              44178091    005800200000002000000520000003NN  NNW 000                       N    
RDG04903200WATRL000000004K00000000000003261001411022015074522N000000000000U61       000590400K 10000000010000003230           
CUS0490320000104079593002         KUEMMER WILLIAM     3700 N POINT BLVD                       000N        CARE OF             
MTR04903200001000000000000000RA              45380565    005800210000002100000520000003NN  NNW 000                       N    
RDG04903200WATRL000000004K00000000000001077001311022015074423N000000000000U61       000810400K 10000000010000001068           
CUS0490320000104079592004         MADDISON LLC        3706 N POINT BLVD                       000N        CARE OF             
MTR04903200001000000000000000RA              27828438    005800220000002200000520000003NN  NNW 000   VACANT / LOT        N    
RDG04903200WATRL000000004K00000000000001850001211022015074302N000000000000U61       002230400K 10000000010000001850           
CUS0490320000104079591006         WILSON DAVID CHARLES8100B ROSEBANK AVE                      000N        CARE OF             
MTR04903200001000000000000000RA              14901496    005800230000002300000310000003NN  NNW 000                       N    
RDG04903200WATRL000000004K00000000000001518001111022015073919N000000000000U61       000440400K 10000000010000001477           
CUS0490320000104079590008         WILSON DAVID CHARLES8100 ROSEBANK AVE                       000N        CARE OF             
MTR04903200001000000000000000RA              45377466    005800240000002400000520000003NN  NNW 000                       N    
RDG04903200WATRL000000004K00000000000001367001011022015073835N000000000000U61       001850400K 10000000010000001364           
CUS0490320000104079589000         MEYERS JAMES E JR   8102 ROSEBANK AVE                       000N        CARE OF             
MTR04903200001000000000000000RA              29402655    005800250000002500000520000003NN  NNW 000                       N    
RDG04903200WATRL000000004K00000000000003565000911022015073530N000000000000U61       003970400K 10000000010000003532           
CUS0490320000104079588002         SMITH SOPHIE LOUISE 8214 ROSEBANK AVE                       000N        CARE OF             
MTR04903200001000000000000000RA              44088715    005800260000002600000520000003NN  NNW 000                       N    
RDG04903200WATRL000000004K00000000000000492012611022015122858N000300000010U61       000060400K 10000000010000000475           
CUS0490320000104079587004         CASH DENNIS PATRICK 8218 ROSEBANK AVE                       000N        CARE OF             
MTR04903200001000000000000000RA              14902632    005800270000002700000310000003NN  NNW 000                       N    
RDG04903200WATRL000000004K00000000000000756012511022015122852N000000000000U61       000040400K 10000000010000000746           
CUS0490320000104079586006         CLARK JOSEPH CHRISTI8224 ROSEBANK AVE                       000N        CARE OF             
MTR04903200001000000000000000RA              36692818    005800280000002800000520000003NN  NNW 000                       N    
RDG04903200WATRL000000004K00000000000002021012411022015122848N000400000010U61       000070400K 10000000010000002019           
CUS0490320000104079585008         WICKMAN DOROTHY     8228 ROSEBANK AVE                       000N        CARE OF             
MTR04903200001000000000000000RA              46877775    005800290000002900000520000003NN  NNW 000                       N    
RDG04903200WATRL000000004K00000000000000576012311022015122841N000000000000U61       000030400K 10000000010000000555           
CUS0490320000104079584001         ZACHERL ROBERT REGIS8230 ROSEBANK AVE                       000N        CARE OF             
MTR04903200001000000000000000RA              14904063    005800300000003000000310000003NN  NNW 000                       N    
RDG04903200WATRL000000004K00000000000001946012211022015122838N000000000000U61       000040400K 10000000010000001897           
CUS0490320000104079583003         ZACHERL ROBERT REGIS8232 ROSEBANK AVE                       000N        CARE OF             
MTR04903200001000000000000000RA              01085743    005800310000003100000610000003NN  NNW 000                       N    
RDG04903200WATRL000000004K00000000000001321012111022015122834N000400000010U61       000190400K 10000000010000001316           
CUS0490320000104079582005         LAURAMAC LLC        SWC ROSEBANK AVE &                      000N        CARE OF             
MTR04903200001000000000000000RA              9692561     007500320000003200000570000003NN  NNW 000                       N    
RDG04903200WATRL000000004K00000000000000749012011022015122815N000000000010U61       000320400K 10000000010000000731           
CUS0490320000104079581007         ISABELL CURTIS L    3700 EDGEWATER PL                       000N        CARE OF             
MTR04903200001000000000000000RA              39291743    005800330000003300000520000003NN  NNW 000                       N    
RDG04903200WATRL000000004K00000000000002879011911022015122743N000000000000U61       000050400K 10000000010000002857           
CUS0490320000104079580009         MARK MADIGAN , JR.  3702 EDGEWATER PL                       000N        CARE OF             
MTR04903200001000000000000000RA              41082322    005800340000003400000520000003NN  NNW 000                       N    
RDG04903200WATRL000000004K00000000000002749011811022015122738N000400000010U61       000090400K 10000000010000002734           
CUS0490320000104079579001         ANTKOWIAK BERNARD P 3704 EDGEWATER PL                       000N        CARE OF             
MTR04903200001000000000000000RA              76349289    005800350000003500000350000003NN  NNW 000                       N    
RDG04903200WATRL000000004K00000000000000253011711022015122729N000400000010U61       000090400K 10000000010000000230           
CUS0490320000104079578003         DEVENDRA & DONNA DAT3706 EDGEWATER PL                       000N        CARE OF             
MTR04903200001000000000000000RA              45377465    005800360000003600000520000003NN  NNW 000                       N    
RDG04903200WATRL000000004K00000000000002593011611022015122720N000000000000U61       000060400K 10000000010000002573           
CUS0490320000104079577005         MENINGER GENEVIEVE M3708 EDGEWATER PL                       000N        CARE OF             
MTR04903200001000000000000000RA              50786672    005800370000003700000520000003NN  NNW 000                       N    
RDG04903200WATRL000000004K00000000000002086011511022015122714N000300000010U61       000190400K 10000000010000002072           
CUS0490320000104079576007         NIEMCZAK LEON S     3712 EDGEWATER PL                       000N        CARE OF             
MTR04903200001000000000000000RA              01113359    005800380000003800000610000003NN  NNW 000                       N    
RDG04903200WATRL000000004K00000000000000000011411022015122655S005000000000U61       000030400K 10000000010000000031           
CUS0490320000104079575009         SHORT GEORGE A,JR   3800 EDGEWATER PL                       000N        CARE OF             
MTR04903200001000000000000000RA              75615253    005800390000003900000350000003NN  NNW 000                       N    
RDG04903200WATRL000000004K00000000000000238011311022015122652N000000000000U61       000050400K 10000000010000000211           
CUS0490320000104079574002         CLARENE E BOSTON JR NS EDGEWATER PL                         000N        CARE OF             
MTR04903200001000000000000000RA              24226395    005800400000004000000520000003NN  NNW 000                       N    
RDG04903200WATRL000000004K00000000000002620011211022015122647N000000000000U61       000110400K 10000000010000002610           
CUS0490320000104079573004         RED HOME AT EDGEWATE3804 EDGEWATER PL                       000N        CARE OF             
MTR04903200001000000000000000RA              48584692    005800410000004100000520000003NN  NNW 000                       N    
RDG04903200WATRL000000004K00000000000000764011111022015122636N000000000000U61       000400400K 10000000010000000759           
CUS0490320000104079572006         SMITH CHALMER       3806 EDGEWATER PL                       000N        CARE OF             
MTR04903200001000000000000000RA              01085749    005800420000004200000610000003NY  NNW 000                       N    
MTM0490320001085749    buried                                                                                                 
RDG04903200WATRL000000004K00000000000000000000000000000000000 000000000000U         000000400  10000000010000001542           
CUS0490320000104079571008         ROSEBANK PROPERTIES 8243 ROSEBANK AVE                       000N        CARE OF             
MTR04903200001000000000000000RA              99080630    007500430000004300000570000003NN  NNW 000                       N    
RDG04903200WATRL000000004K00000000000008549011011022015122556N000300000010U61       000450400K 10000000010000008280           
CUS0490320000104079570000         BALTO. COUNTY BUREAU8239 ROSEBANK AVE                       000N        CARE OF             
MTR04903200001000000000000000RA              01109484    005800440000004400000610000003NY  NNW 000                       N    
MTM0490320001109484    flooded                                                                                                
RDG04903200WATRL000000004K00000000000000000000000000000000000 000000000000U         000000400  10000000010000000379           
CUS0490320000104079569002         BOYD GLENN          8231 ROSEBANK AVE                       000N        CARE OF             
MTR04903200001000000000000000RA              14925876    005800450000004500000310000003NN  NNW 000                       N    
RDG04903200WATRL000000004K00000000000000099010911022015122511N000000000000U61       000040400K 10000000010000000084           
CUS0490320000104079568004         BOYD GLENN          8225 ROSEBANK AVE                       000N        CARE OF             
MTR04903200001000000000000000RA              45377464    005800460000004600000520000003NN  NNW 000                       N    
RDG04903200WATRL000000004K00000000000001405010811022015122507N000000000000U61       000110400K 10000000010000001405           
CUS0490320000104079567006         STEVEN P MALLY      8217 ROSEBANK AVE                       000N        CARE OF             
MTR04903200001000000000000000RA              01085747    005800470000004700000610000003NN  NNW 000   VACANT / LOT        N    
RDG04903200WATRL000000004K00000000000000682010711022015122456N000000000000U61       000100400K 10000000010000000682           
CUS0490320000104441599000         BARTKO CAMERON J    8213 ROSEBANK AVE                       000N        CARE OF             
MTR04903200001000000000000000RA              74814872    007500480000004800000350000003NN  NNW 000                       N    
RDG04903200WATRL000000004K00000000000000138010611022015122446N000000000000U61       000330400K 10000000010000000137           
CUS0490320000104079566008         GALLO SAM RICHARD   8209 ROSEBANK AVE                       000N        CARE OF             
MTR04903200001000000000000000RA              14928941    005800490000004900000310000003NN  NNW 000                       N    
RDG04903200WATRL000000004K00000000000002289010411022015122353N000400000010U61       000090400K 10000000010000002286           
CUS0490320000104079565000         SAMUEL & ANITA GALLO8203 ROSEBANK AVE                       000N        CARE OF             
MTR04903200001000000000000000RA              99286256    005800500000005000000570000003NN  NNW 000                       N    
RDG04903200WATRL000000004K00000000000001387010311022015122344N000000000000U61       001790400K 10000000010000001385           
CUS0490320000104079564003         WISE GEORGE THOMAS,38143 ROSEBANK AVE                       000N        CARE OF             
MTR04903200001000000000000000RA              10000430    005800510000005100000570000003NN  NNW 000                       N    
RDG04903200WATRL000000004K00000000000000697010511022015122413N000400000010U61       000200400K 10000000010000000685           
CUS0490320000104079561009         NEW NORTH POINT COMP8115 ROSEBANK AVE                       000N        CARE OF             
MTR04903200001000000000000000RA              17185467    005800520000005200000440000003NY  NNW 000                       N    
MTM0490320017185467    cant locate                                                                                            
RDG04903200WATRL000000004K00000000000000000000000000000000000 000000000000U         000000400  10000000010000002262           
CUS0490320000104079560001         NEW NORTH POINT CO  8111 ROSEBANK AVE                       000N        CARE OF             
MTR04903200001000000000000000RA              44091587    005800530000005300000520000003NN  NNW 000                       N    
RDG04903200WATRL000000004K00000000000003530000811022015072853N000000000000U61       001700400K 10000000010000003509           
CUS0490320000104079559003         NEW NORTH POINT COMP8117-19 ROSEBANK AVE                    000N        CARE OF             
MTR04903200001000000000000000RA              5977884     005800540000005400000320000003NY  NNW 000                       N    
MTM049032005977884     cant locate                                                                                            
RDG04903200WATRL000000004K00000000000000000000000000000000000 000000000000U         000000400  10000000010000003760           
CUS0490320000104079558005         NEW NORTH POINT CO  8109 ROSEBANK AVE                       000N        CARE OF             
MTR04903200001000000000000000RA              46879614    005800550000005500000520000003NY  NNW 000                       N    
MTM0490320046879614    cant locate                                                                                            
RDG04903200WATRL000000004K00000000000000000000000000000000000 000000000000U         000000400  10000000010000003768           
CUS0490320000104079557007         NEW NORTH POINT CO  8107 ROSEBANK AVE                       000N        CARE OF             
MTR04903200001000000000000000RA              99293289    005800560000005600000570000003NN  NNW 000                       N    
RDG04903200WATRL000000004K00000000000002136000711022015072603N000000000000U61       002040400K 10000000010000002105           
CUS0490320000104079556009         NEW NORTH POINT CO  8105 ROSEBANK AVE                       000N        CARE OF             
MTR04903200001000000000000000RA              24234784    005800570000005700000520000003NY  NNW 000   VACANT / LOT        N    
MTM0490320024234784    cant locate                                                                                            
RDG04903200WATRL000000004K00000000000000000000000000000000000 000000000000U         000000400  10000000010000001469           
CUS0490320000104079555001         TOMAK AUGUST K      8101 ROSEBANK AVE                       000N        CARE OF             
MTR04903200001000000000000000RA              10013162    005800580000005800000570000003NN  NNW 000                       N    
RDG04903200WATRL000000004K00000000000000068000511022015072115N000000000000U61       000500400K 10000000010000000066           
CUS0490320000104079554004         MADDISON LLC        3800 N POINT BLVD                       000N        CARE OF             
MTR04903200001000000000000000RA              41082314    005800590000005900000520000003NN  NNW 000                       N    
RDG04903200WATRL000000004K00000000000002642000411022015072025N000000000000U61       001430400K 10000000010000002637           
CUS0490320000104079553006         YEVGENIY BARG       3814 N POINT BLVD                       000N        CARE OF             
MTR04903200001000000000000000RA              10024584    005800600000006000000570000003NN  NNW 000                       N    
RDG04903200WATRL000000004K00000000000000820000311022015071802N000400000010U61       000710400K 10000000010000000762           
CUS0490320000104079552008         ROSEBANK TRAILER PRK3822 N POINT BLVD                       000N        CARE OF             
MTR04903200001000000000000000RA              43905778    007500610000006100000520000003NN  NNW 000                       N    
RDG04903200WATRL000000004K00000000000007720000611022015072239N000000000000U61       000840400K 10000000010000007367           
CUS0490320000104398723009         PIROG JOSEPH J,JR   3826 NORTH POINT BLVD                   000N        CARE OF             
MTR04903200001000000000000000RA              39257420    007500620000006200000520000003NN  NNW 000                       N    
RDG04903200WATRL000000004K00000000000003073000111022015071330N000000000000U61       000000400K 10000000010000003055           
CUS0490320000104079551000         MANOR SOUTH INC     3825 N POINT BLVD                       000N        CARE OF             
MTR04903200001000000000000000RA              99388359    005800630000006300000570000003NY  NNW 000                       N    
MTM0490320099388359    treescovered                                                                                           
RDG04903200WATRL000000004K00000000000000000000000000000000000 000000000000U         000000400  10000000010000000451           
CUS0490320000104079550002         CURD PATRICIA ALICE 3819 N POINT BLVD                       000N        CARE OF             
MTR04903200001000000000000000RA              77989523    005800640000006400000350000003NN  NNW 000                       N    
RDG04903200WATRL000000004K00000000000000115003711022015085749N000400000011U61       001280400K 10000000010000000101           
CUS0490320000104079549004         STRICKLER KARL E    3814 OLD NORTH POINT RD                 000N        CARE OF             
MTR04903200001000000000000000RA              45380122    005800650000006500000520000003NN  NNW 000                       N    
RDG04903200WATRL000000004K00000000000001377003611022015085501N000300000010U61       006160400K 10000000010000001339           
CUS0490320000104079548006         WHITEFORD KENT ELWOO3813 N POINT BLVD                       000N        CARE OF             
MTR04903200001000000000000000RA              75614522    005800660000006600000350000003NN  NNW 000                       N    
RDG04903200WATRL000000004K00000000000000610010211022015122045N000000000000U61       001220400K 10000000010000000591           
CUS0490320000104079547008         NEW NORTH POINT CO  3807-11 N POINT BLVD                    000N        CARE OF             
MTR04903200001000000000000000RA              44094586    005800670000006700000520000003NY  NNW 000                       N    
MTM0490320044094586    cantlocate                                                                                             
RDG04903200WATRL000000004K00000000000000000000000000000000000 000000000000U         000000400  10000000010000004796           
CUS0490320000104079546000         MUENCH NORBERT H    3808 N POINT BLVD                       000N        CARE OF             
MTR04903200001000000000000000RA              75426747    005800680000006800000350000003NN  NNW 000                       N    
RDG04903200WATRL000000004K00000000000000077000211022015071651N000400000010U61       002010400K 10000000010000000074           
CUS0490320000104079545002         SZYMANSKI RICHARD ED3804 OLD NORTH POINT RD                 000N        CARE OF             
MTR04903200001000000000000000RA              21202400    005800690000006900000520000003NN  NNW 000                       N    
RDG04903200WATRL000000004K00000000000001331010111022015121843N000000000000U61       001400400K 10000000010000001314           
CUS0490320000104079544005         3801 NORTH POINT BLV3801 N POINT BLVD                       000N        CARE OF             
MTR04903200001000000000000000RA              99376205    007500700000007000000570000003NY  NNW 000                       N    
MTM0490320099376205    car                                                                                                    
RDG04903200WATRL000000004K00000000000000000000000000000000000 000000000000U         000000400  10000000010000000913           
CUS0490320000104079543007         CHARLES A KLIMA     3707 NORTH POINT BLVD                   000N        CARE OF             
MTR04903200001000000000000000RA              45380119    005800710000007100000520000003NN  NNW 000                       N    
RDG04903200WATRL000000004K00000000000001795003511022015084445N000000000000U61       001620400K 10000000010000001790           
CUS0490320000104079542009         BAUERS DAVID W      3710 OLD NORTH POINT RD                 000N        CARE OF             
MTR04903200001000000000000000RA              40321570    005800720000007200000520000003NN  NNW 000                       N    
RDG04903200WATRL000000004K00000000000002421003411022015084203N000400000010U61       000570400K 10000000010000002406           
CUS0490320000104079541001         VORBACH ESCOLASTICA 3708 OLD NORTH POINT RD                 000N        CARE OF             
MTR04903200001000000000000000RA              45380083    005800730000007300000520000003NN  NNW 000                       N    
RDG04903200WATRL000000004K00000000000002367003311022015084106N000300000010U61       000580400K 10000000010000002376           
CUS0490320000104079540003         H WHITE PROPERTIES L3706 OLD NORTH POINT RD                 000N        CARE OF             
MTR04903200001000000000000000RA              01108835    005800740000007400000610000003NN  NNW 000                       N    
RDG04903200WATRL000000004K00000000000002658003211022015084008N000400000010U61       000740400K 10000000010000002644           
CUS0490320000104079539005         KINSER ROGER R      3704 OLD NORTH POINT RD                 000N        CARE OF             
MTR04903200001000000000000000RA              45380126    005800750000007500000520000003NN  NNW 000                       N    
RDG04903200WATRL000000004K00000000000002353003111022015083854N000000000000U61       000380400K 10000000010000002334           
CUS0490320000104079538007         SMALL LINDA LOUISE  3702 OLD NORTH POINT RD                 000N        CARE OF             
MTR04903200001000000000000000RA              10016139    005800760000007600000570000003NN  NNW 000   VACANT / LOT        N    
RDG04903200WATRL000000004K00000000000000004002911022015083731N000000000000U61       000430400K 10000000010000000004           
CUS0490320000104079537009         LINDA SMALL         3702A OLD NORTH POINT RD                000N        CARE OF             
MTR04903200001000000000000000RA              45380124    005800770000007700000520000003NN  NNW 000                       N    
RDG04903200WATRL000000004K00000000000000358003011022015083816N000100000010U61       000450400K 10000000010000000358           
CUS0490320000104079536001         ALDERSON ROBERT LEE 3700 OLD NORTH POINT RD                 000N        CARE OF             
MTR04903200001000000000000000RA              45381209    005800780000007800000520000003NN  NNW 000                       N    
RDG04903200WATRL000000004K00000000000003634002811022015083648N000400000010U61       000650400K 10000000010000003620           
CUS0490320000104079535003         PASSAS PYTHAGORAS N 3620 OLD NORTH POINT RD                 000N        CARE OF             
MTR04903200001000000000000000RA              40781225    005800790000007900000520000003NN  NNW 000                       N    
RDG04903200WATRL000000004K00000000000006024002711022015083543N000000000000U61       000930400K 10000000010000005988           
CUS0490320000106397826006         3615 NORTH POINT LLC3615 N POINT BLVD                       000N        CARE OF             
MTR04903200001000000000000000RA              35116769    001500800000008000000520000003NN  NNW 000                       N    
RDG04903200WATRL000000005K00000000000005536002611022015083410N000000000000U61       002440500K 10000000010000005511           
CUS0490320000104079533008         1532 MURRAY PLACE LL3600 OLD NORTH POINT RD                 000N        CARE OF             
MTR04903200001000000000000000RA              14916890    005800810000008100000310000003NN  NNW 000                       N    
RDG04903200WATRL000000004K00000000000000788002511022015083006N000100000010U61       019840400K 10000000010000000788           
CUS0490320000104079532000         HOLBROOK JOHN T     3705 N POINT BLVD                       000N        CARE OF             
MTR04903200001000000000000000RA              26011818    005800820000008200000520000003NY  NNW 000                       N    
MTM0490320026011818    buried                                                                                                 
RDG04903200WATRL000000004K00000000000000000000000000000000000 000000000000U         000000400  10000000010000003688           
CUS0490320000104079531002         WILLS MARVIN A,JR   3701 N POINT BLVD                       000N        CARE OF             
MTR04903200001000000000000000RA              14901448    005800830000008300000310000003NN  NNW 000                       N    
RDG04903200WATRL000000004K00000000000000840010011022015121623N000000000000U61       002240400K 10000000010000000823           
CUS0490320000104079462000         PATRICIA BOGDAN     7808 EASTERN AVE                        000N        CARE OF             
MTR04903200001000000000000000RA              45375323    005800840000008400000520000003NY  NNW 000                       N    
MTM0490320045375323    dirt                                                                                                   
RDG04903200WATRL000000004K00000000000000000000000000000000000 000000000000U         000000400  10000000010000003379           
CUS0490320000104079463008         WARREN PROPERTIES, L7812 EASTERN AVE                        000N        CARE OF             
MTR04903200001000000000000000RA              14900311    005800850000008500000310000003NN  NNW 000   VACANT / LOT        N    
RDG04903200WATRL000000004K00000000000002154004111022015094201N000000000001U61       001080400K 10000000010000002154           
CUS0490320000104079464006         WARREN PROPERTIES, L7814 EASTERN AVE                        000N        CARE OF             
MTR04903200001000000000000000RA              26017230    005800860000008600000520000003NN  NNW 000                       N    
RDG04903200WATRL000000004K00000000000004150004211022015094221N000000000000U61       000200400K 10000000010000004147           
CUS0490320000104079465003         WARREN PROPERTIES, L7816 EASTERN AVE                        000N        CARE OF             
MTR04903200001000000000000000RA              26017936    005800870000008700000520000003NN  NNW 000                       N    
RDG04903200WATRL000000004K00000000000003327004311022015094317N000300000010U61       000560400K 10000000010000003355           
CUS0490320000104079466001         LAW DAVID B         7818 EASTERN AVE                        000N        CARE OF             
MTR04903200001000000000000000RA              26017941    005800880000008800000520000003NN  NNW 000                       N    
RDG04903200WATRL000000004K00000000000004010004411022015094347N000000000000U61       000300400K 10000000010000004003           
CUS0490320000104079467009         JONES JAMES L       7820 EASTERN AVE                        000N        CARE OF             
MTR04903200001000000000000000RA              26017939    005800890000008900000520000003NN  NNW 000                       N    
RDG04903200WATRL000000004K00000000000003049004511022015094445N000000000000U61       000580400K 10000000010000003038           
CUS0490320000104079468007         JONES JAMES L       7822 EASTERN AVE                        000N        CARE OF             
MTR04903200001000000000000000RA              48596821    005800900000009000000520000003NN  NNW 000                       N    
RDG04903200WATRL000000004K00000000000000750009911022015121239N000300000010U61       000070400K 10000000010000000764           
CUS0490320000104079469005         DEBELIUS FRANCIS G  7824 EASTERN AVE                        000N        CARE OF             
MTR04903200001000000000000000RA              31936248    005800910000009100000520000003NN  NNW 000                       N    
RDG04903200WATRL000000004K00000000000006740009811022015121232N000000000000U61       000030400K 10000000010000006735           
CUS0490320000104079470003         PARKS KIMBERLY ANN  7826 EASTERN AVE                        000N        CARE OF             
MTR04903200001000000000000000RA              10016147    005800920000009200000570000003NN  NNW 000                       N    
RDG04903200WATRL000000004K00000000000000269009711022015121229N000000000000U61       000370400K 10000000010000000254           
CUS0490320000104079471001         ST PETERS E L CHURCH7832 EASTERN AVE                        000N        CARE OF             
MTR04903200001000000000000000RA              38782470    005800930000009300000520000003NY  NNW 000                       N    
MTM0490320038782470    flooded                                                                                                
RDG04903200WATRL000000004K00000000000000000000000000000000000 000000000000U         000000400  10000000010000002241           
CUS0490320000104079472009         ST PETERS E L CHURCH7834 EASTERN AVE                        000N        CARE OF             
MTR04903200001000000000000000RA              39256568    007500940000009400000520000003NN  NNW 000                       N    
RDG04903200WATRL000000004K00000000000005764009611022015121152N000000000000U61       000050400K 10000000010000005712           
CUS0490320000104079473007         HMC L L C           7838 EASTERN AVE                        000N        CARE OF             
MTR04903200001000000000000000RA              35109380    001500950000009500000520000003NN  NNW 000                       N    
RDG04903200WATRL000000005K00000000000001792009511022015121147N000300000010U61       000120500K 10000000010000001786           
CUS0490320000104079474005         JONES JAMES L       7840 EASTERN AVE                        000N        CARE OF             
MTR04903200001000000000000000RA              35099760    005800960000009600000520000003NN  NNW 000                       N    
RDG04903200WATRL000000004K00000000000000688009411022015121135N000000000000U61       001590400K 10000000010000000688           
CUS0490320000104079475002         ARGETAKIS GEORGE    7842 EASTERN AVE                        000N        CARE OF             
MTR04903200001000000000000000RA              45378609    005800970000009700000520000003NY  NNW 000                       N    
MTM0490320045378609    covered                                                                                                
RDG04903200WATRL000000004K00000000000000000000000000000000000 000000000000U         000000400  10000000010000002590           
CUS0490320000104079476000         ZANNINO SALVATORE   7846 EASTERN AVE                        000N        CARE OF             
MTR04903200001000000000000000RA              41193811    007500980000009800000520000003NN  NNW 000                       N    
RDG04903200WATRL000000004K00000000000004154009311022015120856N000000000000U61       000050400K 10000000010000004021           
CUS0490320000104079477008         7850 EASTERN AVE LLC7850 EASTERN AVE                        000N        CARE OF             
MTR04903200001000000000000000RA              41193499    007500990000009900000520000003NN  NNW 000                       N    
RDG04903200WATRL000000004K00000000000001091009211022015120851N000000000000U61       000190400K 10000000010000001084           
CUS0490320000104079478006         PRICE BUSTERS FURNIT7856 EASTERN AVE                        000N        CARE OF             
MTR04903200001000000000000000RA              44177732    005801000000010000000520000003NN  NNW 000                       N    
RDG04903200WATRL000000004K00000000000002992004711022015095237N000000000000U61       000640400K 10000000010000002982           
CUS0490320000104079479004         LEECAM PROPERTIES LL7868 EASTERN AVE                        000N        CARE OF             
MTR04903200001000000000000000RA              14918730    005801010000010100000310000003NN  NNW 000                       N    
RDG04903200WATRL000000004K00000000000000382004611022015095133N000000000000U61       004080400K 10000000010000000373           
CUS0490320000104079481000         MONRO MUFFLER/BRAKE 7870 EASTERN BLVD                       000N        CARE OF             
MTR04903200001000000000000000RA              9693222     007501020000010200000570000003NN  NNW 000                       N    
RDG04903200WATRL000000004K00000000000008426004811022015095507N000000000000U61       001500400K 10000000010000008259           
CUS0490320000104360177002         GEM OF BALTIMORE-EAS7938 EASTERN AVE                        000N        CARE OF             
MTR04903200001000000000000000RA              43904973    007501030000010300000520000003NN  NNW 000                       N    
RDG04903200WATRL000000004K00000000000001544004911022015095840N000400000010U61       002130400K 10000000010000001471           
CUS0490320000104079482008         BALTIMORE COUNTY MD WS OAK AV 400 FT N OF                   000N        CARE OF             
MTR04903200001000000000000000RA              18778409    007501040000010400000440000003NN  NNW 000                       N    
RDG04903200WATRL000000004K00000000000000589009111022015120832N000000000000U61       000190400K 10000000010000000589           
CUS0490320000106408224001         JACKSON SHERRY M    8218 DIAMOND POINT RD                   000N        CARE OF             
MTR04903200001000000000000000RA              44178237    005801050000010500000520000003NN  NNW 000                       N    
RDG04903200WATRL000000004K00000000000002026005511022015101631N000000000000U61       003400400K 10000000010000002018           
CUS0490320000104414220006         KAHL CLARENCE ANDREW8214 DIAMOND POINT RD                   000N        CARE OF             
MTR04903200001000000000000000RA              01099601    005801060000010600000610000003NN  NNW 000                       N    
RDG04903200WATRL000000004K00000000000000838005611022015101742N000000000000U61       000710400K 10000000010000000821           
CUS0490320000104415528001         DOTY ROBERT A       8212 DIAMOND POINT RD                   000N        CARE OF             
MTR04903200001000000000000000RA              46887902    005801070000010700000520000003NN  NNW 000                       N    
RDG04903200WATRL000000004K00000000000000789005711022015101811N000000000000U61       000290400K 10000000010000000783           
CUS0490320000104411028006         SCHNEIDER JAMES M   8210 DIAMOND POINT RD                   000N        CARE OF             
MTR04903200001000000000000000RA              45385563    005801080000010800000520000003NN  NNW 000                       N    
RDG04903200WATRL000000004K00000000000001656005811022015102057N000000000000U61       001660400K 10000000010000001624           
CUS0490320000106408377007         SAMUEL J SCHMIDT    8208 DIAMOND POINT RD                   000N        CARE OF             
MTR04903200001000000000000000RA              01099693    005801090000010900000610000003NN  NNW 000                       N    
RDG04903200WATRL000000004K00000000000000324009011022015120813N000000000000U61       000160400K 10000000010000000313           
CUS0490320000104407470006         BENNINGTON NATIONAL 8200 DIAMOND POINT RD                   000N        CARE OF             
MTR04903200001000000000000000RA              10008152    005801100000011000000570000003NN  NNW 000                       N    
RDG04903200WATRL000000004K00000000000000060008911022015120757N000000000000U61       000490400K 10000000010000000059           
CUS0490320000104079483006         CARMEN R. MIRABILE  440 ORIOLE AVE                          000N        CARE OF             
MTR04903200001000000000000000RA              45374905    005801110000011100000520000003NN  NNW 000                       N    
RDG04903200WATRL000000004K00000000000001646006111022015102732N000000000000U61       001400400K 10000000010000001624           
CUS0490320000104079484004         BECKER ANNA M       438 ORIOLE AVE                          000N        CARE OF             
MTR04903200001000000000000000RA              26018016    005801120000011200000520000003NN  NNW 000                       N    
RDG04903200WATRL000000004K00000000000001820006211022015102826N000400000010U61       000540400K 10000000010000001817           
CUS0490320000104079485001         BECKER ANNA M       436 ORIOLE AVE                          000N        CARE OF             
MTR04903200001000000000000000RA              44003565    005801130000011300000520000003NY  NNW 000                       N    
MTM0490320044003565    truck parked on vlt                                                                                    
RDG04903200WATRL000000004K00000000000000000000000000000000000 000000000000U         000000400  10000000010000002610           
CUS0490320000104079486009         BECKER ANNA M       434 ORIOLE AVE                          000N        CARE OF             
MTR04903200001000000000000000RA              44003561    005801140000011400000520000003NN  NNW 000                       N    
RDG04903200WATRL000000004K00000000000001253006411022015103116N000300000010U61       000990400K 10000000010000001232           
CUS0490320000104079487007         432 OREO LLC        432 ORIOLE AVE                          000N        CARE OF             
MTR04903200001000000000000000RA              32770898    005801150000011500000520000003NN  NNW 000                       N    
RDG04903200WATRL000000004K00000000000007687006511022015103215N000000000000U61       000590400K 10000000010000007672           
CUS0490320000104079488005         MIRABILE SAMUEL P   428 ORIOLE AVE                          000N        CARE OF             
MTR04903200001000000000000000RA              44172121    005801160000011600000520000003NY  NNW 000                       N    
MTM0490320044172121    cant locate                                                                                            
RDG04903200WATRL000000004K00000000000000000000000000000000000 000000000000U         000000400  10000000010000001547           
CUS0490320000104079491009         432 OREO, LLC       420 ORIOLE AVE                          000N        CARE OF             
MTR04903200001000000000000000RA              00129594    005801170000011700000570000003NN  NNW 000                       N    
RDG04903200WATRL000000004K00000000000000777006811022015103825N000000000000U61       002610400K 10000000010000000774           
CUS0490320000104079492007         JACKSON  & LINDA FOS418 ORIOLE AVE                          000N        CARE OF             
MTR04903200001000000000000000RA              26015190    005801180000011800000520000003NN  NNW 000                       N    
RDG04903200WATRL000000004K00000000000002211006911022015104027N000000000000U61       001220400K 10000000010000002199           
CUS0490320000104079493005         MIRABILE RUSSELL R  416 ORIOLE AVE                          000N        CARE OF             
MTR04903200001000000000000000RA              304362      005801190000011900000530000003NN  NNW 000   VACANT / LOT        N    
RDG04903200WATRL000000004K00000000000000000007011022015104239S022000000000U61       001320400K 10000000010000000044           
CUS0490320000104079494003         MIRABILE RUSSELL R  410 ORIOLE AVE                          000N        CARE OF             
MTR04903200001000000000000000RA              01086011    005801200000012000000610000003NN  NNW 000                       N    
RDG04903200WATRL000000004K00000000000000502008811022015120708N000000000000U61       000070400K 10000000010000000467           
CUS0490320000104079495000         CHULLIN MATKO LEE   408 ORIOLE AVE                          000N        CARE OF             
MTR04903200001000000000000000RA              26015165    005801210000012100000520000003NN  NNW 000                       N    
RDG04903200WATRL000000004K00000000000003281008711022015120701N000300000010U61       000080400K 10000000010000003286           
CUS0490320000104079496008         KAREN M. MILLER     406 ORIOLE AVE                          000N        CARE OF             
MTR04903200001000000000000000RA              32770925    005801220000012200000520000003NN  NNW 000                       N    
RDG04903200WATRL000000004K00000000000002144008611022015120653N000400000010U61       000120400K 10000000010000002141           
CUS0490320000104079497006         404 ORIOLE AVE LLC  402-04 ORIOLE AVE                       000N        CARE OF             
MTR04903200001000000000000000RA              32770928    005801230000012300000520000003NN  NNW 000                       N    
RDG04903200WATRL000000004K00000000000001483008511022015120641N000000000000U61       000090400K 10000000010000001478           
CUS0490320000104079498004         MIRABILE RUSSELL R  400 ORIOLE AVE                          000N        CARE OF             
MTR04903200001000000000000000RA              32770932    005801240000012400000520000003NN  NNW 000                       N    
RDG04903200WATRL000000004K00000000000002293008411022015120632N000000000000U61       000130400K 10000000010000002285           
CUS0490320000104079499002         BALTIMORE COUNTY MAR320 ORIOLE AVE                          000N        CARE OF             
MTR04903200001000000000000000RA              45374914    005801250000012500000520000003NN  NNW 000                       N    
RDG04903200WATRL000000004K00000000000003379008311022015120619N000000000000U61       000090400K 10000000010000003379           
CUS0490320000104079500007         MIRABILE RUSSELL R  318 ORIOLE AVE                          000N        CARE OF             
MTR04903200001000000000000000RA              77889604    005801260000012600000350000003NN  NNW 000                       N    
RDG04903200WATRL000000004K00000000000000045008211022015120610N000000000000U61       000080400K 10000000010000000030           
CUS0490320000104079501005         WERNER JOSEPH L,JR  304 ORIOLE AVE                          000N        CARE OF             
MTR04903200001000000000000000RA              43905710    007501270000012700000520000003NN  NNW 000   VACANT / LOT        N    
RDG04903200WATRL000000004K00000000000000494008111022015120602N000000000000U61       000080400K 10000000010000000494           
CUS0490320000104079502003         MIRABILE RUSSELL R  399 ORIOLE AVE                          000N        CARE OF             
MTR04903200001000000000000000RA              26017256    005801280000012800000520000003NN  NNW 000   VACANT / LOT        N    
RDG04903200WATRL000000004K00000000000001126008011022015120554N000000000000U61       000180400K 10000000010000001126           
CUS0490320000104079503001         LEITER NANCY M      NWC ORIOLE AV &                         000N        CARE OF             
MTR04903200001000000000000000RA              01102445    005801290000012900000610000003NN  NNW 000   VACANT / LOT        N    
RDG04903200WATRL000000004K00000000000000000007911022015120536S022000000000U61       000120400K 10000000010000000000           
CUS0490320000109096793006         MIRABILE RUSSELL R  397 ORIOLE AV REAR                      000N        CARE OF             
MTR04903200001000000000000000RA              00118576    007501300000013000000570000003NN  NNW 000                       N    
RDG04903200WATRL000000004K00000000000001175007811022015120524N000000000000U61       000410400K 10000000010000001156           
CUS0490320000104079504009         LEITER NANCY        397 ORIOLE AVE                          000N        CARE OF             
MTR04903200001000000000000000RA              26012828    005801310000013100000520000003NN  NNW 000                       N    
RDG04903200WATRL000000004K00000000000001523007711022015120443N000000000000U61       000220400K 10000000010000001497           
CUS0490320000104079505006         MIRABILE CHARLES J  401 ORIOLE AVE                          000N        CARE OF             
MTR04903200001000000000000000RA              32770933    005801320000013200000520000003NN  NNW 000   VACANT / LOT        N    
RDG04903200WATRL000000004K00000000000000000007611022015120421S022000000000U61       000080400K 10000000010000000393           
CUS0490320000104079506004         MIRABILE CHARLES J  403 ORIOLE AVE                          000N        CARE OF             
MTR04903200001000000000000000RA              32770930    005801330000013300000520000003NN  NNW 000   VACANT / LOT        N    
RDG04903200WATRL000000004K00000000000000000007511022015120413S022000000000U61       000250400K 10000000010000002489           
CUS0490320000104079507002         GIBSON JOSEPH V     429 ORIOLE AVE                          000N        CARE OF             
MTR04903200001000000000000000RA              45374903    005801340000013400000520000003NY  NNW 000                       N    
MTM0490320045374903    dirt                                                                                                   
RDG04903200WATRL000000004K00000000000000000000000000000000000 000000000000U         000000400  10000000010000001680           
CUS0490320000104079508000         BROWN JOSEPH FRANK,4431 ORIOLE AVE                          000N        CARE OF             
MTR04903200001000000000000000RA              32770895    005801350000013500000520000003NN  NNW 000                       N    
RDG04903200WATRL000000004K00000000000002084006711022015103404N000400000010U61       000680400K 10000000010000002083           
CUS0490320000104079509008         PENNINGTON JEFFREY  433 ORIOLE AVE                          000N        CARE OF             
MTR04903200001000000000000000RA              27832156    005801360000013600000520000003NN  NNW 000                       N    
RDG04903200WATRL000000004K00000000000003969006611022015103256N000000000000U61       000410400K 10000000010000003957           
CUS0490320000104079510006         SCHMITT RICHARD W   435 ORIOLE AVE                          000N        CARE OF             
MTR04903200001000000000000000RA              32770897    005801370000013700000520000003NN  NNW 000                       N    
RDG04903200WATRL000000004K00000000000002654006311022015102937N000000000010U61       000710400K 10000000010000002635           
CUS0490320000104079511004         SUDEK WILLIAM F     439 ORIOLE AVE                          000N        CARE OF             
MTR04903200001000000000000000RA              27832155    005801380000013800000520000003NN  NNW 000                       N    
RDG04903200WATRL000000004K00000000000006056006011022015102512N000000000000U61       000320400K 10000000010000006017           
CUS0490320000104079512002         SUDEK WILLIAM F     441 ORIOLE AVE                          000N        CARE OF             
MTR04903200001000000000000000RA              45374918    005801390000013900000520000003NN  NNW 000   VACANT / LOT        N    
RDG04903200WATRL000000004K00000000000002077005911022015102440N000000000000U61       002230400K 10000000010000002077           
CUS0490320000104079523009         MEYERS WILLIAM F    8220 EASTERN AVE                        000N        CARE OF             
MTR04903200001000000000000000RA              4759265     005801400000014000000320000003NN  NNW 000   VACANT / LOT        N    
RDG04903200WATRL000000004K00000000000000000007411022015120348S002000000000U61       000550400K 10000000010000000323           
CUS0490320000104079524007         ROYAL FARMS         8235 EASTERN AVE                        000N        CARE OF             
MTR04903200001000000000000000RA              50786856    005801410000014100000520000003NN  NNW 000                       N    
RDG04903200WATRL000000004K00000000000002410005111022015100551N000000000000U61       000900400K 10000000010000002373           
CUS0490320000104079526002         TREADWAY ALBERT L   8241 EASTERN AVE                        000N        CARE OF             
MTR04903200001000000000000000RA              10007273    005801420000014200000570000003NN  NNW 000                       N    
RDG04903200WATRL000000004K00000000000000094005011022015100421N000000000000U61       003410400K 10000000010000000091           
CUS0490320000104079527000         BILAL EL-OMARI      8243 EASTERN AVE                        000N        CARE OF             
MTR04903200001000000000000000RA              77887415    005801430000014300000360000003NY  NNW 000                       N    
MTM0490320077887415    10017326                                                                                               
RDG04903200WATRL000000004K00000000000000080005211022015100820N000100000010U61       001490400K 10000000010000000080           
CUS0490320000104079529006         F & E LLC           8247 EASTERN AVE                        000N        CARE OF             
MTR04903200001000000000000000RA              46890552    007501440000014400000520000003NN  NNW 000                       N    
RDG04903200WATRL000000004K00000000000009148005311022015101021N000000000000U61       001210400K 10000000010000008900           
CUS0490320000104079528008         F & E LLC           8247 EASTERN AVE                        000N        CARE OF             
MTR04903200001000000000000000RA              52290657    005801450000014500000520000003NN  NNW 000   VACANT / LOT        N    
RDG04903200WATRL000000004K00000000000000000005411022015101051N000000000000U61       000300400K 10000000010000000000           
CUS0490320000106391397004         HARKINS GERALD LEE  515 ISLAND POINT RD                     000N        CARE OF             
MTR04903200001000000000000000RA              36694595    005801460000014600000520000003NY  NNW 000                       N    
MTM0490320036694595    car                                                                                                    
RDG04903200WATRL000000004K00000000000000000000000000000000000 000000000000U         000000400  10000000010000002675           
CUS0490320000104399958000         MAYOR & CITY COUNCIL523 ISLAND POINT RD                     000N        CARE OF             
MTR04903200001000000000000000RA              41257513    005801470000014700000520000003NN  NNW 000   VACANT / LOT        N    
RDG04903200WATRL000000004K00000000000000000007311022015120253S022000000000U61       000110400K 10000000010000000756           
CUS0490320000104400357002         MAYOR & CITY COUNCIL529 ISLAND POINT RD                     000N        CARE OF             
MTR04903200001000000000000000RA              44175983    005801480000014800000520000000NN  NNW 000                       N    
RDG04903200WATRL000000004K00000000000000000007211022015120242S022000000000U61       000210400K 10000000010000000000           
CUS0490320000104400358000         MAYOR & CITY COUNCIL533 ISLAND POINT RD                     000N        CARE OF             
MTR04903200001000000000000000RA              41259923    005801490000014900000520000003NN  NNW 000                       N    
RDG04903200WATRL000000004K00000000000000377007111022015120221N000000000000U61       047820400K 10000000010000000377           
RTR04903200NN01490149000001490000000001490149000296NY014901490149002200080000000000000000000001    10292015NY020000 N         
RHD06905500NN02080208000002080000000002080208000029NY020802080208000600000000000000000000000002    11022015NY020000 N         
CUS0690550000104080694005         HAVARD CHARLES W    100 EASTERN BLVD                        000N        CARE OF             
MTR06905500001000000000000000RA              35109817    005800010000000100000520000003NN  NNW 000                       N    
RDG06905500WATRL000000004K00000000000001808000111042015091256N000000000000N83       000000400K 10000000010000001786           
CUS0690550000104080695002         ARTHUR M MAYFIELD JR44 RIVERSIDE RD                         000N        CARE OF             
MTR06905500001000000000000000RA              39291395    005800020000000200000520000003NN  NNW 000                       N    
RDG06905500WATRL000000004K00000000000001133000211042015091304N000000000000N83       000080400K 10000000010000001119           
CUS0690550000104080696000         WILLETT CARMELITA D 46 RIVERSIDE RD                         000N        CARE OF             
MTR06905500001000000000000000RA              45376178    005800030000000300000520000003NN  NNW 000                       N    
RDG06905500WATRL000000004K00000000000001552000311042015091309N000000000000N83       000050400K 10000000010000001538           
CUS0690550000104080697008         MORNINGSTAR CLARENCE48 RIVERSIDE RD                         000N        CARE OF             
MTR06905500001000000000000000RA              77891626    005800040000000400000360000003NN  NNW 000                       N    
RDG06905500WATRL000000004K00000000000000032000411042015091319N000000000010N83       000100400K 10000000010000000000           
CUS0690550000104080698006         MORGANTI SANTI C    50 RIVERSIDE RD                         000N        CARE OF             
MTR06905500001000000000000000RA              10003667    005800050000000500000570000003NN  NNW 000                       N    
RDG06905500WATRL000000004K00000000000000300000511042015091325N000000000000N83       000060400K 10000000010000000291           
CUS0690550000104080699004         BAKER BILLY T,JR    52 RIVERSIDE RD                         000N        CARE OF             
MTR06905500001000000000000000RA              23647247    005800060000000600000520000003NN  NNW 000                       N    
RDG06905500WATRL000000004K00000000000003132000611042015091331N000000000000N83       000060400K 10000000010000003114           
CUS0690550000104080700000         BENEDICT THOMAS     54 RIVERSIDE RD                         000N        CARE OF             
MTR06905500001000000000000000RA              01080710    005800070000000700000610000003NN  NNW 000                       N    
RDG06905500WATRL000000004K00000000000000895000711042015091338N000000000000N83       000070400K 10000000010000000886           
CUS0690550000104080701008         BUTLER LINTON J     56 RIVERSIDE RD                         000N        CARE OF             
MTR06905500001000000000000000RA              36696106    005800080000000800000520000003NN  NNW 000                       N    
RDG06905500WATRL000000004K00000000000002836000811042015091344N000000000000N83       000060400K 10000000010000002832           
CUS0690550000104080702006         ROBERTS FREDDIE J   58 RIVERSIDE RD                         000N        CARE OF             
MTR06905500001000000000000000RA              23841248    005800090000000900000520000003NN  NNW 000                       N    
RDG06905500WATRL000000004K00000000000003840000911042015091349N000000000000N83       000050400K 10000000010000003831           
CUS0690550000104080703004         DUELLA M CLARK      60 RIVERSIDE RD                         000N        CARE OF             
MTR06905500001000000000000000RA              45376175    005800100000001000000520000003NN  NNW 000                       N    
RDG06905500WATRL000000004K00000000000001901001011042015091355N000000000000N83       000060400K 10000000010000001888           
CUS0690550000104080704002         FEEHELEY MELISSA    62 RIVERSIDE RD                         000N        CARE OF             
MTR06905500001000000000000000RA              10003330    005800110000001100000570000003NN  NNW 000                       N    
RDG06905500WATRL000000004K00000000000000721001111042015091404N000000000000N83       000090400K 10000000010000000703           
CUS0690550000104080705009         SMITH CAROLYN SUE   64 RIVERSIDE RD                         000N        CARE OF             
MTR06905500001000000000000000RA              24226058    005800120000001200000520000003NN  NNW 000                       N    
RDG06905500WATRL000000004K00000000000003998001211042015091411N000300000010N83       000070400K 10000000010000003999           
CUS0690550000104080706007         JUSTIN SHAFFER      66 RIVERSIDE RD                         000N        CARE OF             
MTR06905500001000000000000000RA              33735254    005800130000001300000520000003NN  NNW 000                       N    
RDG06905500WATRL000000004K00000000000003376001311042015091417N000000000000N83       000060400K 10000000010000003375           
CUS0690550000104080707005         AULD JOHN J,JR      68 RIVERSIDE RD                         000N        CARE OF             
MTR06905500001000000000000000RA              30523267    005800140000001400000520000003NN  NNW 000                       N    
RDG06905500WATRL000000004K00000000000005217001411042015091429N000400000010N83       000120400K 10000000010000005203           
CUS0690550000104080708003         CHRISTOPHER QUIRK   1 CLIPPER RD                            000N        CARE OF             
MTR06905500001000000000000000RA              29679306    005800150000001500000520000003NN  NNW 000                       N    
RDG06905500WATRL000000004K00000000000000000000000000000000000 000000000000U         000000400  10000000010000003978           
CUS0690550000104080709001         ANGEL JAMES S       3 CLIPPER RD                            000N        CARE OF             
MTR06905500001000000000000000RA              75618225    005800160000001600000350000003NN  NNW 000                       N    
RDG06905500WATRL000000004K00000000000000328001511042015091443N000000000000N83       000140400K 10000000010000000308           
CUS0690550000104080710009         BOWINGS ROBERT L,JR 5 CLIPPER RD                            000N        CARE OF             
MTR06905500001000000000000000RA              25782057    005800170000001700000520000003NN  NNW 000                       N    
RDG06905500WATRL000000004K00000000000004234001611042015091446N000000000000N83       000030400K 10000000010000004223           
CUS0690550000104080711007         HARRIS GLORIA L     7 CLIPPER RD                            000N        CARE OF             
MTR06905500001000000000000000RA              14901040    005800180000001800000310000003NN  NNW 000                       N    
RDG06905500WATRL000000004K00000000000000860001711042015091454N000400000010N83       000080400K 10000000010000000858           
CUS0690550000104080712005         CARNES DOUGLAS P,SR 9 CLIPPER RD                            000N        CARE OF             
MTR06905500001000000000000000RA              23841239    005800190000001900000520000003NN  NNW 000                       N    
RDG06905500WATRL000000004K00000000000006707001811042015091458N000000000000N83       000040400K 10000000010000006678           
CUS0690550000104080713003         WELLS FARGO BANK    11 CLIPPER RD                           000N        CARE OF             
MTR06905500001000000000000000RA              23647198    005800200000002000000520000003NN  NNW 000                       N    
RDG06905500WATRL000000004K00000000000004825001911042015091507N000000000000N83       000090400K 10000000010000004819           
CUS0690550000104080714001         SHUMAKER DAVID R    13 CLIPPER RD                           000N        CARE OF             
MTR06905500001000000000000000RA              01080686    005800210000002100000610000003NN  NNW 000                       N    
RDG06905500WATRL000000004K00000000000000936002011042015091511N000000000000N83       000040400K 10000000010000000925           
CUS0690550000104080715008         GENCO TINA M        15 CLIPPER RD                           000N        CARE OF             
MTR06905500001000000000000000RA              45381879    005800220000002200000520000003NN  NNW 000                       N    
RDG06905500WATRL000000004K00000000000001149002111042015091516N000000000000N83       000050400K 10000000010000001137           
CUS0690550000104080716006         WHITE DOROTHY MADELI17 CLIPPER RD                           000N        CARE OF             
MTR06905500001000000000000000RA              23057153    005800230000002300000520000003NN  NNW 000                       N    
RDG06905500WATRL000000004K00000000000002941002211042015091524N000100000010N83       000080400K 10000000010000002941           
CUS0690550000104080717004         COSTIN TIMOTHY M    19 CLIPPER RD                           000N        CARE OF             
MTR06905500001000000000000000RA              42808787    005800240000002400000520000003NN  NNW 000                       N    
RDG06905500WATRL000000004K00000000000001745002311042015091530N000000000000N83       000060400K 10000000010000001722           
CUS0690550000104080718002         NATALIE MAJEWSKI    21 CLIPPER RD                           000N        CARE OF             
MTR06905500001000000000000000RA              27828979    005800250000002500000520000003NN  NNW 000                       N    
RDG06905500WATRL000000004K00000000000003152002411042015091534N000000000000N83       000040400K 10000000010000003146           
CUS0690550000104080719000         BENCZKOWSKI BARBARA 23 CLIPPER RD                           000N        CARE OF             
MTR06905500001000000000000000RA              33732130    005800260000002600000520000003NN  NNW 000                       N    
RDG06905500WATRL000000004K00000000000001857002511042015091542N000300000010N83       000080400K 10000000010000001866           
CUS0690550000104080720008         SCHULTZ EDWARD C,JR 25 CLIPPER RD                           000N        CARE OF             
MTR06905500001000000000000000RA              33732132    005800270000002700000520000003NN  NNW 000                       N    
RDG06905500WATRL000000004K00000000000001966002611042015091546N000000000000N83       000040400K 10000000010000001962           
CUS0690550000104080721006         MARTIN-AIELLO CHRIST27 CLIPPER RD                           000N        CARE OF             
MTR06905500001000000000000000RA              31583170    005800280000002800000520000003NN  NNW 000                       N    
RDG06905500WATRL000000004K00000000000000000000000000000000000 000000000000U         000000400  10000000010000002690           
CUS0690550000104080722004         TATE FRED D         29 CLIPPER RD                           000N        CARE OF             
MTR06905500001000000000000000RA              45381878    005800290000002900000520000003NN  NNW 000                       N    
RDG06905500WATRL000000004K00000000000001091002711042015091556N000000000010N83       000100400K 10000000010000001090           
CUS0690550000104080723002         DELAIR VINCENT L,3RD31 CLIPPER RD                           000N        CARE OF             
MTR06905500001000000000000000RA              45381874    005800300000003000000520000003NN  NNW 000                       N    
RDG06905500WATRL000000004K00000000000002049002811042015091602N000000000000N83       000060400K 10000000010000002033           
CUS0690550000104080724000         GORDON D. MCDANIELS 33 CLIPPER RD                           000N        CARE OF             
MTR06905500001000000000000000RA              27830882    005800310000003100000520000003NN  NNW 000                       N    
RDG06905500WATRL000000004K00000000000004350002911042015091605N000000000000N83       000030400K 10000000010000004342           
CUS0690550000104080725007         BROWN EDWARD N,SR   35 CLIPPER RD                           000N        CARE OF             
MTR06905500001000000000000000RA              50479555    005800320000003200000520000003NN  NNW 000                       N    
RDG06905500WATRL000000004K00000000000001848003011042015091610N000000000000N83       000050400K 10000000010000001835           
CUS0690550000104080726005         GIORDANO MARGARET A 37 CLIPPER RD                           000N        CARE OF             
MTR06905500001000000000000000RA              10022262    005800330000003300000570000003NN  NNW 000                       N    
RDG06905500WATRL000000004K00000000000000572003111042015091616N000000000000N83       000060400K 10000000010000000553           
CUS0690550000104080727003         DEINLEIN JEFFREY A  39 CLIPPER RD                           000N        CARE OF             
MTR06905500001000000000000000RA              33732133    005800340000003400000520000003NN  NNW 000                       N    
RDG06905500WATRL000000004K00000000000002984003211042015091623N000000000000N83       000070400K 10000000010000002970           
CUS0690550000104080728001         OBRIEN LAWRENCE J,3R41 CLIPPER RD                           000N        CARE OF             
MTR06905500001000000000000000RA              10004066    005800350000003500000570000003NN  NNW 000                       N    
RDG06905500WATRL000000004K00000000000000397003311042015091628N000000000000N83       000050400K 10000000010000000385           
CUS0690550000104080729009         OBRIEN LAWRENCE J,3R43 CLIPPER RD                           000N        CARE OF             
MTR06905500001000000000000000RA              45381834    005800360000003600000520000003NN  NNW 000                       N    
RDG06905500WATRL000000004K00000000000003218003411042015091633N000000000000N83       000050400K 10000000010000003180           
CUS0690550000104080730007         JUSTIN DEINLEIN     45 CLIPPER RD                           000N        CARE OF             
MTR06905500001000000000000000RA              45381836    005800370000003700000520000003NN  NNW 000                       N    
RDG06905500WATRL000000004K00000000000002197003511042015091640N000000000000N83       000070400K 10000000010000002192           
CUS0690550000104080731005         GABRIEL D. DEJESUS  47 CLIPPER RD                           000N        CARE OF             
MTR06905500001000000000000000RA              10022260    005800380000003800000570000003NN  NNW 000                       N    
RDG06905500WATRL000000004K00000000000000329003611042015091644N000000000000N83       000040400K 10000000010000000308           
CUS0690550000104080732003         GUFFEY FOREST O     49 CLIPPER RD                           000N        CARE OF             
MTR06905500001000000000000000RA              14924254    005800390000003900000310000003NN  NNW 000                       N    
RDG06905500WATRL000000004K00000000000000209003711042015091654N000000000000N83       000100400K 10000000010000000207           
CUS0690550000104080733001         FRANCIS GILBERT M   51 CLIPPER RD                           000N        CARE OF             
MTR06905500001000000000000000RA              27816411    005800400000004000000520000003NN  NNW 000                       N    
RDG06905500WATRL000000004K00000000000004487003811042015091658N000000000000N83       000040400K 10000000010000004470           
CUS0690550000104080734009         GOMEZ VALENTIN L    53 CLIPPER RD                           000N        CARE OF             
MTR06905500001000000000000000RA              41082949    005800410000004100000520000003NN  NNW 000                       N    
RDG06905500WATRL000000004K00000000000003764003911042015091702N000000000000N83       000040400K 10000000010000003731           
CUS0690550000104080735006         PETER G LUKK        42 CLIPPER RD                           000N        CARE OF             
MTR06905500001000000000000000RA              40780388    005800420000004200000520000003NN  NNW 000                       N    
RDG06905500WATRL000000004K00000000000002171004011042015091713N000000000000N83       000110400K 10000000010000002149           
CUS0690550000104080736004         URIE VIRGINIA D     40 CLIPPER RD                           000N        CARE OF             
MTR06905500001000000000000000RA              39291698    005800430000004300000520000003NN  NNW 000                       N    
RDG06905500WATRL000000004K00000000000003768004111042015091719N000000000000N83       000060400K 10000000010000003751           
CUS0690550000104080737002         GRAYBILL CHRISTINE  38 CLIPPER RD                           000N        CARE OF             
MTR06905500001000000000000000RA              39291714    005800440000004400000520000003NN  NNW 000                       N    
RDG06905500WATRL000000004K00000000000001184004211042015091723N000000000000N83       000040400K 10000000010000001172           
CUS0690550000104080738000         NEWMAN HARRY A,JR   36 CLIPPER RD                           000N        CARE OF             
MTR06905500001000000000000000RA              45381876    005800450000004500000520000003NN  NNW 000                       N    
RDG06905500WATRL000000004K00000000000001387004311042015091726N000000000000N83       000030400K 10000000010000001382           
CUS0690550000104080739008         MONTGOMERY MILTON T/34 CLIPPER RD                           000N        CARE OF             
MTR06905500001000000000000000RA              10015813    005800460000004600000570000003NN  NNW 000                       N    
RDG06905500WATRL000000004K00000000000000837004411042015091731N000000000000N83       000050400K 10000000010000000771           
CUS0690550000104080740006         LITTLEJOHN LEON W   32 CLIPPER RD                           000N        CARE OF             
MTR06905500001000000000000000RA              01109929    005800470000004700000610000003NN  NNW 000                       N    
RDG06905500WATRL000000004K00000000000000463004511042015091734N000000000000N83       000030400K 10000000010000000453           
CUS0690550000104080741004         HALL DOUGLAS R      28 CLIPPER RD                           000N        CARE OF             
MTR06905500001000000000000000RA              45381833    005800480000004800000520000003NN  NNW 000                       N    
RDG06905500WATRL000000004K00000000000001715004611042015091739N000000000000N83       000050400K 10000000010000001706           
CUS0690550000104080742002         WINGLE CHARLES A    26 CLIPPER RD                           000N        CARE OF             
MTR06905500001000000000000000RA              14901228    005800490000004900000310000003NN  NNW 000                       N    
RDG06905500WATRL000000004K00000000000000651004711042015091745N000000000000N83       000060400K 10000000010000000640           
CUS0690550000104080743000         WHITSEL NATASJA K   24 CLIPPER RD                           000N        CARE OF             
MTR06905500001000000000000000RA              39923576    005800500000005000000520000003NN  NNW 000                       N    
RDG06905500WATRL000000004K00000000000002333004811042015091747N000000000000N83       000020400K 10000000010000002294           
CUS0690550000104080744008         DAWN M MARKEY       16 CLIPPER RD                           000N        CARE OF             
MTR06905500001000000000000000RA              50789841    005800510000005100000520000003NN  NNW 000                       N    
RDG06905500WATRL000000004K00000000000000629004911042015091752N000000000000N83       000050400K 10000000010000000629           
CUS0690550000104080745005         DONNA LINN          14 CLIPPER RD                           000N        CARE OF             
MTR06905500001000000000000000RA              78005866    005800520000005200000360000003NN  NNW 000                       N    
RDG06905500WATRL000000004K00000000000000000005011042015091755N000000000000N83       000030400K 10000000010000000000           
CUS0690550000104080746003         KAPP VAUGHN         12 CLIPPER RD                           000N        CARE OF             
MTR06905500001000000000000000RA              23647218    005800530000005300000520000003NN  NNW 000                       N    
RDG06905500WATRL000000004K00000000000001196005111042015091758N000000000000N83       000030400K 10000000010000001194           
CUS0690550000104080747001         RITCHIE ELDON L     10 CLIPPER RD                           000N        CARE OF             
MTR06905500001000000000000000RA              39289451    005800540000005400000520000003NN  NNW 000                       N    
RDG06905500WATRL000000004K00000000000000756005211042015091803N000000000000N83       000050400K 10000000010000000741           
CUS0690550000104080748009         NICHOLS JOHN L,JR   8 CLIPPER RD                            000N        CARE OF             
MTR06905500001000000000000000RA              40321882    005800550000005500000520000003NN  NNW 000                       N    
RDG06905500WATRL000000004K00000000000002555005311042015091805N000000000000N83       000020400K 10000000010000002528           
CUS0690550000104080749007         MILBURN WILLIAM P   6 CLIPPER RD                            000N        CARE OF             
MTR06905500001000000000000000RA              23647234    005800560000005600000520000003NN  NNW 000                       N    
RDG06905500WATRL000000004K00000000000004391005411042015091812N000300000010N83       000070400K 10000000010000004611           
CUS0690550000104080750005         LONG JESSICA ANNA   4 CLIPPER RD                            000N        CARE OF             
MTR06905500001000000000000000RA              23647224    005800570000005700000520000003NN  NNW 000                       N    
RDG06905500WATRL000000004K00000000000003038005511042015091820N000000000000N83       000080400K 10000000010000003017           
CUS0690550000104080751003         BRAY DARIUS D       2 CLIPPER RD                            000N        CARE OF             
MTR06905500001000000000000000RA              45381875    005800580000005800000520000003NN  NNW 000                       N    
RDG06905500WATRL000000004K00000000000001331005611042015091829N000000000000N83       000090400K 10000000010000001329           
CUS0690550000104381201005         LEFFMAN GERALDINE M 49-A CLIPPER RD                         000N        CARE OF             
MTR06905500001000000000000000RA              14926374    005800590000005900000310000003NN  NNW 000                       N    
RDG06905500WATRL000000004K00000000000000262005711042015091839N000000000000N83       000100400K 10000000010000000256           
CUS0690550000104080752001         HOFFMAN JOSEPH GEORG33 RIVERSIDE RD                         000N        CARE OF             
MTR06905500001000000000000000RA              25781540    005800600000006000000520000003NN  NNW 000                       N    
RDG06905500WATRL000000004K00000000000003884005811042015091843N000000000000N83       000040400K 10000000010000003874           
CUS0690550000104080753009         AULT WILLIAM H,JR   31 RIVERSIDE RD                         000N        CARE OF             
MTR06905500001000000000000000RA              45376176    005800610000006100000520000003NN  NNW 000                       N    
RDG06905500WATRL000000004K00000000000001357005911042015091847N000000000000N83       000040400K 10000000010000001356           
CUS0690550000104080754007         BELT GARY THOMAS    29 RIVERSIDE RD                         000N        CARE OF             
MTR06905500001000000000000000RA              10004991    005800620000006200000570000003NN  NNW 000                       N    
RDG06905500WATRL000000004K00000000000000508006011042015091852N000000000000N83       000050400K 10000000010000000499           
CUS0690550000104080755004         CASTLE ROSA         1 PLATEAU RD                            000N        CARE OF             
MTR06905500001000000000000000RA              54350361    005800630000006300000520000003NN  NNW 000                       N    
RDG06905500WATRL000000004K00000000000002213006111042015091855N000000000000N83       000030400K 10000000010000002195           
CUS0690550000104080756002         WILKINSON HAZEL JEAN3 PLATEAU RD                            000N        CARE OF             
MTR06905500001000000000000000RA              10002493    005800640000006400000570000003NN  NNW 000                       N    
RDG06905500WATRL000000004K00000000000000235006211042015091909N000000000000N83       000140400K 10000000010000000229           
CUS0690550000104080757000         SANTONI MARY D      5 PLATEAU RD                            000N        CARE OF             
MTR06905500001000000000000000RA              45381832    005800650000006500000520000003NN  NNW 000                       N    
RDG06905500WATRL000000004K00000000000000000000000000000000000 000000000000U         000000400  10000000010000001256           
CUS0690550000104080758008         HERNANDEZ GEORGE O  7 PLATEAU RD                            000N        CARE OF             
MTR06905500001000000000000000RA              21194186    005800660000006600000520000003NN  NNW 000                       N    
RDG06905500WATRL000000004K00000000000000000000000000000000000 000000000000U         000000400  10000000010000002977           
CUS0690550000104080759006         SIFORD ROSALIE      9 PLATEAU RD                            000N        CARE OF             
MTR06905500001000000000000000RA              45381735    005800670000006700000520000003NN  NNW 000                       N    
RDG06905500WATRL000000004K00000000000002565006311042015091924N000000000000N83       000150400K 10000000010000002543           
CUS0690550000104080760004         SMITH CHARLENE      11 PLATEAU RD                           000N        CARE OF             
MTR06905500001000000000000000RA              45382023    005800680000006800000520000003NN  NNW 000                       N    
RDG06905500WATRL000000004K00000000000002467006411042015091929N000000000000N83       000050400K 10000000010000002448           
CUS0690550000104080761002         HARMAN TIMOTHY A    13 PLATEAU RD                           000N        CARE OF             
MTR06905500001000000000000000RA              45382020    005800690000006900000520000003NN  NNW 000                       N    
RDG06905500WATRL000000004K00000000000003044006511042015091935N000000000000N83       000060400K 10000000010000003040           
CUS0690550000104080762000         CHATHAM HAROLD CHARL15 PLATEAU RD                           000N        CARE OF             
MTR06905500001000000000000000RA              44088372    005800700000007000000520000003NN  NNW 000                       N    
RDG06905500WATRL000000004K00000000000003162006611042015091941N000000000000N83       000060400K 10000000010000003136           
CUS0690550000104080763008         MOORE GEORGE W      19 AVENAL RD                            000N        CARE OF             
MTR06905500001000000000000000RA              44175222    005800710000007100000520000003NN  NNW 000                       N    
RDG06905500WATRL000000004K00000000000003163006711042015091945N000000000000N83       000040400K 10000000010000003137           
CUS0690550000104080764006         CURRY DEAN M II     21 AVENAL RD                            000N        CARE OF             
MTR06905500001000000000000000RA              23647271    005800720000007200000520000003NN  NNW 000                       N    
RDG06905500WATRL000000004K00000000000002123006811042015091951N000000000000N83       000060400K 10000000010000002106           
CUS0690550000104080765003         SHUPE EDWIN G       23 AVENAL RD                            000N        CARE OF             
MTR06905500001000000000000000RA              35111638    005800730000007300000520000003NN  NNW 000                       N    
RDG06905500WATRL000000004K00000000000001257006911042015091955N000000000000N83       000040400K 10000000010000001254           
CUS0690550000104080766001         FITCH HAZEL J       25 AVENAL RD                            000N        CARE OF             
MTR06905500001000000000000000RA              45378819    005800740000007400000520000003NN  NNW 000                       N    
RDG06905500WATRL000000004K00000000000001312007011042015091959N000000000000N83       000040400K 10000000010000001305           
CUS0690550000104080767009         AMENT ARIC C        27 AVENAL RD                            000N        CARE OF             
MTR06905500001000000000000000RA              10006922    005800750000007500000570000003NN  NNW 000   VACANT / LOT        N    
RDG06905500WATRL000000004K00000000000000011007111042015092003N000000000000N83       000040400K 10000000010000000011           
CUS0690550000104080768007         YAPHET MARCO M      29 AVENAL RD                            000N        CARE OF             
MTR06905500001000000000000000RA              46883906    005800760000007600000520000003NN  NNW 000                       N    
RDG06905500WATRL000000004K00000000000001526007211042015092006N000000000000N83       000030400K 10000000010000001522           
CUS0690550000104080769005         SAXON DAVID LEE     31 AVENAL RD                            000N        CARE OF             
MTR06905500001000000000000000RA              42808796    005800770000007700000520000003NN  NNW 000                       N    
RDG06905500WATRL000000004K00000000000003009007311042015092016N000000000000N83       000100400K 10000000010000002999           
CUS0690550000104080770003         PAINE GERTRUDE M    33 AVENAL RD                            000N        CARE OF             
MTR06905500001000000000000000RA              42808765    005800780000007800000520000003NN  NNW 000                       N    
RDG06905500WATRL000000004K00000000000000691007411042015092020N000000000000N83       000040400K 10000000010000000691           
CUS0690550000104080771001         KOMORNIK MELANIE L  28 AVENAL RD                            000N        CARE OF             
MTR06905500001000000000000000RA              75616813    005800790000007900000350000003NN  NNW 000                       N    
RDG06905500WATRL000000004K00000000000000124007511042015092023N000000000000N83       000030400K 10000000010000000108           
CUS0690550000104080772009         WINGLE CHARLES L,JR 26 AVENAL RD                            000N        CARE OF             
MTR06905500001000000000000000RA              45378858    005800800000008000000520000003NN  NNW 000                       N    
RDG06905500WATRL000000004K00000000000002511007611042015092027N000000000000N83       000040400K 10000000010000002498           
CUS0690550000104080773007         GUANTI FRANK J,JR   24 AVENAL RD                            000N        CARE OF             
MTR06905500001000000000000000RA              24231799    005800810000008100000520000003NN  NNW 000                       N    
RDG06905500WATRL000000004K00000000000003775007711042015092035N000400000010N83       000080400K 10000000010000003765           
CUS0690550000104080774005         RATLIFF WILLIAM K,JR22 AVENAL RD                            000N        CARE OF             
MTR06905500001000000000000000RA              10011157    005800820000008200000570000003NN  NNW 000                       N    
RDG06905500WATRL000000004K00000000000000142007811042015092045N000000000000N83       000100400K 10000000010000000137           
CUS0690550000104080775002         LERCH ROBERT F      20 AVENAL RD                            000N        CARE OF             
MTR06905500001000000000000000RA              45378650    005800830000008300000520000003NN  NNW 000                       N    
RDG06905500WATRL000000004K00000000000001354007911042015092048N000000000000N83       000030400K 10000000010000001350           
CUS0690550000104080776000         STOTLER RICHARD P/GE18 AVENAL RD                            000N        CARE OF             
MTR06905500001000000000000000RA              23841189    005800840000008400000520000003NN  NNW 000                       N    
RDG06905500WATRL000000004K00000000000003403008011042015092050N000000000000N83       000020400K 10000000010000003398           
CUS0690550000104080777008         SHOCK DOUGLAS H     16 AVENAL RD                            000N        CARE OF             
MTR06905500001000000000000000RA              14902178    005800850000008500000310000003NN  NNW 000                       N    
RDG06905500WATRL000000004K00000000000000332008111042015092101N000300000010N83       000110400K 10000000010000000513           
CUS0690550000104080778006         JERNIGAN RICHARD CEC16 PLATEAU RD                           000N        CARE OF             
MTR06905500001000000000000000RA              35104720    005800860000008600000520000003NN  NNW 000                       N    
RDG06905500WATRL000000004K00000000000004114008211042015092110N000000000000N83       000090400K 10000000010000004080           
CUS0690550000104080779004         SANDRA WHITE        14 PLATEAU RD                           000N        CARE OF             
MTR06905500001000000000000000RA              25781621    005800870000008700000520000003NN  NNW 000                       N    
RDG06905500WATRL000000004K00000000000003086008311042015092119N000000000000N83       000090400K 10000000010000003070           
CUS0690550000104080780002         LAMBERT LAWRENCE LAM12 PLATEAU RD                           000N        CARE OF             
MTR06905500001000000000000000RA              45381731    005800880000008800000520000003NN  NNW 000                       N    
RDG06905500WATRL000000004K00000000000003363008411042015092123N000000000000N83       000040400K 10000000010000003357           
CUS0690550000104080781000         PETTERSON NORMAN R,J10 PLATEAU RD                           000N        CARE OF             
MTR06905500001000000000000000RA              45381860    005800890000008900000520000003NN  NNW 000                       N    
RDG06905500WATRL000000004K00000000000002469008511042015092126N000000000000N83       000030400K 10000000010000002446           
CUS0690550000104080782008         BOLING JOHN ALEXANDE8 PLATEAU RD                            000N        CARE OF             
MTR06905500001000000000000000RA              35116586    005800900000009000000520000003NN  NNW 000                       N    
RDG06905500WATRL000000004K00000000000003414008611042015092133N000000000000N83       000070400K 10000000010000003396           
CUS0690550000104080783006         REDMON DAVID W      6 PLATEAU RD                            000N        CARE OF             
MTR06905500001000000000000000RA              45381734    005800910000009100000520000003NN  NNW 000                       N    
RDG06905500WATRL000000004K00000000000001635008711042015092140N000400000010N83       000070400K 10000000010000001617           
CUS0690550000104080784004         TODD RAMPMEYER      4 PLATEAU RD                            000N        CARE OF             
MTR06905500001000000000000000RA              29082938    005800920000009200000520000003NN  NNW 000                       N    
RDG06905500WATRL000000004K00000000000003808008811042015092145N000000000000N83       000050400K 10000000010000003801           
CUS0690550000104080785001         MONAHAN KALI R      2 PLATEAU RD                            000N        CARE OF             
MTR06905500001000000000000000RA              30519283    005800930000009300000520000003NN  NNW 000                       N    
RDG06905500WATRL000000004K00000000000001303008911042015092149N000000000000N83       000040400K 10000000010000001293           
CUS0690550000104080786009         DARMSTEADT RYAN L   27 RIVERSIDE RD                         000N        CARE OF             
MTR06905500001000000000000000RA              26004500    005800940000009400000520000003NN  NNW 000                       N    
RDG06905500WATRL000000004K00000000000005109009011042015092157N000300000010N83       000080400K 10000000010000005323           
CUS0690550000104080787007         STACHOWIAK JOSEPH A,25 RIVERSIDE RD                         000N        CARE OF             
MTR06905500001000000000000000RA              78023637    005800950000009500000360000003NN  NNW 000                       N    
RDG06905500WATRL000000004K00000000000000026009111042015092202N000000000000N83       000050400K 10000000010000000015           
CUS0690550000104080788005         J G J ASSOCIATES    104 EASTERN BLVD                        000N        CARE OF             
MTR06905500001000000000000000RA              75427127    007500960000009600000350000003NN  NNW 000                       N    
RDG06905500WATRL000000004K00000000000000000009211042015092516N000300000010N83       001940400K 10000000010000000015           
CUS0690550000104080789003         ISENNOCK LINDA E    106 EASTERN BLVD                        000N        CARE OF             
MTR06905500001000000000000000RA              45374262    005800970000009700000520000003NN  NNW 000                       N    
RDG06905500WATRL000000004K00000000000008208009311042015092529N000000000010N83       000130400K 10000000010000007989           
CUS0690550000104080791009         EUCLAY REALTY CORPOR142-44 EASTERN AVE                      000N        CARE OF             
MTR06905500001000000000000000RA              01105393    001500980000009800000610000003NN  NNW 000                       N    
RDG06905500WATRL000000005K00000000000010558009411042015092605N000000000000N83       000360500K 10000000010000010355           
CUS0690550000104080792007         ELIADES STEVEN W/AND200-02 EASTERN AVE                      000N        CARE OF             
MTR06905500001000000000000000RA              41258611    005800990000009900000520000003NN  NNW 000                       N    
RDG06905500WATRL000000004K00000000000009821009511042015092615N000300000010N83       000100400K 10000000010000010798           
CUS0690550000104080793005         ALBERT KOON YU/KIRBY204 EASTERN BLVD                        000N        CARE OF             
MTR06905500001000000000000000RA              99288883    005801000000010000000570000003NN  NNW 000                       N    
RDG06905500WATRL000000004K00000000000003026009611042015092629N000400000010N83       000140400K 10000000010000002952           
CUS0690550000104080794003         204 EASTERN AVE LLC 206 EASTERN BLVD                        000N        CARE OF             
MTR06905500001000000000000000RA              45385480    005801010000010100000520000003NN  NNW 000                       N    
RDG06905500WATRL000000004K00000000000001883009711042015092635N000000000000N83       000060400K 10000000010000001881           
CUS0690550000104080795000         210 EASTERN LLC     210 EASTERN BLVD                        000N        CARE OF             
MTR06905500001000000000000000RA              01095288    005801020000010200000610000003NN  NNW 000   VACANT / LOT        N    
RDG06905500WATRL000000004K00000000000000601009811042015092640N000000000000N83       000050400K 10000000010000000601           
CUS0690550000104080796008         P AND R BROTHERS LLC10 WILTSHIRE RD                         000N        CARE OF             
MTR06905500001000000000000000RA              01107737    005801030000010300000610000003NN  NNW 000                       N    
RDG06905500WATRL000000004K00000000000000931009911042015092645N000000000000N83       000050400K 10000000010000000921           
CUS0690550000104080797006         SHABBIR SYED        26 WILTSHIRE RD                         000N        CARE OF             
MTR06905500001000000000000000RA              75615730    005801040000010400000350000003NN  NNW 000                       N    
RDG06905500WATRL000000004K00000000000000253010011042015092651N000000000000N83       000060400K 10000000010000000228           
CUS0690550000104080798004         LEEANNE PROPERTIES, 28 WILTSHIRE RD                         000N        CARE OF             
