FHDNNNN018003253003253003448N                                                                                           011090
RHD09720300NN01540154000001540000000001140114000022NY011401140154000100000000000000000000000001    10202015NY020000 N         
CUS0972030000109123807001         HUNT VALLEY INN     245 SHAWAN RD                           000N        CARE OF             
MTR09720300002000000000000000RA              5003404     000800010000000100000540000003NN  NNW 000                       N    
RDG09720300WATAL000000006K00000000000000009000111032015121027N000400000010N93       000000600K 10000000010000000000           
RDG09720300WATBL000000006K00000000000131518000211032015121043N000400000010N93       000160600K 10000000010000121848           
CUS0972030000109434038007         WIGHT AVENUE        11100 YORK RD                           000N        CARE OF             
MTR09720300001000000000000000RA              99170782    001500020000000200000570000000NN  NNW 000                       N    
RDG09720300WATRL000000005K00000000000020989000311032015121048N000000000000N93       000050500K 10000000010000020748           
CUS0972030000109433235000         DEVON SELF STORAGE L11150 YORK RD                           000N        CARE OF             
MTR09720300001000000000000000RA              8047062     000600030000000300000380000000NN  NNW 000   FIRE SERVICE        N    
RDG09720300WATRL000000006K00000000000000010000411032015121052N000000000000N93       000040600K 10000000010000000010           
CUS0972030000109433237006         EXTRA SPACE MGMT    11150 YORK RD                           000N        CARE OF             
MTR09720300001000000000000000RA              01073881    005800040000000400000610000000NN  NNW 000                       N    
RDG09720300WATRL000000004K00000000000000925000511032015121056N000000000000N93       000040400K 10000000010000000914           
CUS0972030000109428458005         POINT BREEZE CREDIT 11100 MCCORMICK RD                      000N        CARE OF             
MTR09720300001000000000000000RA              99170806    001500050000000500000570000000NN  NNW 000                       N    
RDG09720300WATRL000000005K00000000000006898000611032015121103N000000000000N93       000070500K 10000000010000006740           
CUS0972030000109454472003         TWO FARMS, INC #191 11119 MCCORMICK RD                      000N        CARE OF             
MTR09720300001000000000000000RA              13802084    000800060000000600000390000003NY  NNW 000                       N    
MTM0972030013802084    2 dial meter 000034               04660                                                                
RDG09720300WATRL000000006K00000000000004660000711032015121142N000300000011N93       000390600K 10000000010000001839           
CUS0972030000109123811003         EXECUTIVE PLAZA LLC 11350 MCCORMICK RD                      000N        CARE OF             
MTR09720300002000000000000000RA              4683194     000800070000000700000540000003NY  NNW 000                       N    
MTM097203004683194     read ok                                                                                                
RDG09720300WATAL000000006K00000000000000001000811032015121150N000100000010N93       000080600K 10000000010000000001           
RDG09720300WATBL000000006K00000000000119971000911032015121221N000300000010N93       000310600K 10000000010000129514           
CUS0972030000109423924001         HUNT VALLEY 1031    11333 MCCORMICK RD                      000N        CARE OF             
MTR09720300002000000000000000RA              9709315     000800080000000800000630000000NN  NNW 000                       N    
RDG09720300WATAL000000006K00000000000000170001011032015121240N000100000010N93       000190600K 10000000010000000170           
RDG09720300WATBL000000006K00000000000036445001111032015121257N000400000010N93       000170600K 10000000010000035241           
CUS0972030000109379866008         BALTIMORE MD GREEN I11311 MCCORMICK RD                      000N        CARE OF             
MTR09720300002000000000000000RA              7098140     001000090000000900000540000003NN  NNW 000                       N    
RDG09720300WATAL000000007K00000000000000003001211032015121304N000100000010N93       000070700K 10000000010000000003           
RDG09720300WATBL000000007K00000000000022794001311032015121323N000400000010N93       000190700K 10000000010000021658           
CUS0972030000109123809007         VERIZON MARYLAND INC99 SHAWAN RD                            000N        CARE OF             
MTR09720300002000000000000000RA              5417360     000600100000001000000540000003NN  NNW 000                       N    
RDG09720300WATAL000000006K00000000000000004001411032015121332N000100000010N93       000090600K 10000000010000000004           
RDG09720300WATBL000000006K00000000000009862001511032015121353N000300000020N93       000210600K 10000000010000097228           
CUS0972030000109399459008         KIMCO REALTY CORP   11317 YORK RD                           000N        CARE OF             
MTR09720300002000000000000000RA              8019432     001000110000001100000540000003NN  NNW 000                       N    
RDG09720300WATAL000000007K00000000000000001001611032015121414N000100000010N93       000210700K 10000000010000000001           
RDG09720300WATBL000000007K00000000000017502001711032015121428N000400000010N93       000140700K 10000000010000016427           
CUS0972030000109432638006         SPARKS LOT ONE LLC  120 SPARKS VALLEY RD                    000N        CARE OF             
MTR09720300002000000000000000RA              0109764     000800120000001200000630000000NN  NNW 000                       N    
RDG09720300WATAL000000006K00000000000000001001811032015121433N000100000010N93       000050600K 10000000010000000001           
RDG09720300WATBL000000006K00000000000004018001911032015121441N000400000010N93       000080600K 10000000010000003812           
CUS0972030000109370943004         LIBERTY PROPERTY TRU11429 YORK RD                           000N        CARE OF             
MTR09720300002000000000000000RA              7045913     001000130000001300000630000003NN  NNW 000                       N    
RDG09720300WATAL000000007K00000000000000016002011032015121448N000100000010N93       000070700K 10000000010000000016           
RDG09720300WATBL000000007K00000000000088092002111032015121459N000400000010N93       000110700K 10000000010000086081           
CUS0972030000109348824005         BROADMEAD INC       13801 YORK RD                           000N        CARE OF             
MTR09720300002000000000000000RA              5899524     000800140000001400000540000003NN  NNW 000                       N    
RDG09720300WATAL000000006K00000000000000041002211032015121511N000100000010N93       000120600K 10000000010000000041           
RDG09720300WATBL000000006K00000000000170662002311032015121522N000400000010N93       000110600K 10000000010000164510           
CUS0972030000109386021001         PATHS AT LOVETON FARES LOVETON FARMS RD                     000N        CARE OF             
MTR09720300002000000000000000RA              7121241     000800150000001500000630000003NN  NNW 000                       N    
RDG09720300WATAL000000006K00000000000000358002411032015121527N000100000010N93       000050600K 10000000010000000358           
RDG09720300WATBL000000006K00000000000039263002511032015121537N000400000010N93       000100600K 10000000010000037828           
CUS0972030000109436869003         SPARKS LOT SEVEN LLC10 FILA WAY                             000N        CARE OF             
MTR09720300002000000000000000RA              0208158     000800160000001600000630000000NN  NNW 000                       N    
RDG09720300WATAL000000006K00000000000000000002611032015121553N000100000010N93       000160600K 10000000010000000000           
RDG09720300WATBL000000006K00000000000019356002711032015121602N000400000010N93       000090600K 10000000010000018548           
CUS0972030000109391053007         WINDMILL CHASE AT LO5 ALEXANDER CHASE                       000N        CARE OF             
MTR09720300001000000000000000RA              0908778     000300170000001700000640000003NN  NNW 000                       N    
RDG09720300WATRL000000005K00000000000013155000111052015105429N000000000000U93       000000500K 10000000010000012658           
CUS0972030000109391043008         WINDMILL CHASE LTD P1 WINDMILL CHASE                        000N        CARE OF             
MTR09720300002000000000000000RA              7195875     000800180000001800000630000003NN  NNW 000                       N    
RDG09720300WATAL000000006K00000000000000001000211052015105432N000100000010U93       000030600K 10000000010000000001           
RDG09720300WATBL000000006K00000000000038942000311052015105439N000400000010U93       000070600K 10000000010000037521           
CUS0972030000109401758009         JCB HOLDING, LLC    2 RAINFLOWER PATH                       000N        CARE OF             
MTR09720300001000000000000000RA              29067414    000200190000001900000520000003NN  NNW 000                       N    
RDG09720300WATRL000000005K00000000000009957000411052015105442N000000000000U93       000030500K 10000000010000009909           
CUS0972030000109401759007         RAINFLOWER CONDO    4 RAINFLOWER PATH                       000N        CARE OF             
MTR09720300001000000000000000RA              01105817    000200200000002000000610000003NN  NNW 000                       N    
RDG09720300WATRL000000005K00000000000006044000511052015105507N000000000000U93       000250500K 10000000010000005883           
CUS0972030000109401760005         RAINFLOWER CONDO    6 RAINFLOWER PATH                       000N        CARE OF             
MTR09720300001000000000000000RA              29067427    000200210000002100000520000003NN  NNW 000                       N    
RDG09720300WATRL000000005K00000000000009265000611052015105510N000000000000U93       000030500K 10000000010000009207           
CUS0972030000109401761003         RAINFLOWER CONDO    8 RAINFLOWER PATH                       000N        CARE OF             
MTR09720300001000000000000000RA              29768466    000200220000002200000520000003NN  NNW 000                       N    
RDG09720300WATRL000000005K00000000000011860000711052015105515N000400000010U93       000050500K 10000000010000011781           
CUS0972030000109401762001         RAINFLOWER CONDO    10 RAINFLOWER PATH                      000N        CARE OF             
MTR09720300001000000000000000RA              29372252    000200230000002300000520000003NN  NNW 000                       N    
RDG09720300WATRL000000005K00000000000012103000811052015105517N000000000000U93       000020500K 10000000010000012060           
CUS0972030000109401763009         RAINFLOWER CONDO    12 RAINFLOWER PATH                      000N        CARE OF             
MTR09720300001000000000000000RA              32575127    000200240000002400000520000003NN  NNW 000                       N    
RDG09720300WATRL000000005K00000000000013734000911052015105523N000000000000U93       000060500K 10000000010000013659           
CUS0972030000109401765004         RAINFLOWER CONDO    14 RAINFLOWER PATH                      000N        CARE OF             
MTR09720300001000000000000000RA              31588517    000200250000002500000520000003NN  NNW 000                       N    
RDG09720300WATRL000000005K00000000000011012001011052015105525N000000000000U93       000020500K 10000000010000010944           
CUS0972030000109401767000         RAINFLOWER CONDO    16 RAINFLOWER PATH                      000N        CARE OF             
MTR09720300001000000000000000RA              28966916    000200260000002600000520000003NN  NNW 000                       N    
RDG09720300WATRL000000005K00000000000012623001111052015105529N000000000000U93       000040500K 10000000010000012498           
CUS0972030000109401769006         RAINFLOWER CONDO    18 RAINFLOWER PATH                      000N        CARE OF             
MTR09720300001000000000000000RA              35105180    000200270000002700000520000003NN  NNW 000                       N    
RDG09720300WATRL000000005K00000000000015246001211052015105532N000000000000U93       000030500K 10000000010000015206           
CUS0972030000109401773008         RAINFLOWER CONDOMINI20 RAINFLOWER PATH                      000N        CARE OF             
MTR09720300001000000000000000RA              29067441    000200280000002800000520000003NN  NNW 000                       N    
RDG09720300WATRL000000005K00000000000013283001311052015105535N000000000000U93       000030500K 10000000010000013185           
CUS0972030000109401757001         RAINFLOWER CONDO    22 RAINFLOWER PATH                      000N        CARE OF             
MTR09720300001000000000000000RA              32772061    000200290000002900000520000003NN  NNW 000                       N    
RDG09720300WATRL000000005K00000000000010788001411052015105537N000000000000U93       000020500K 10000000010000010615           
CUS0972030000109401772000         RAINFLOWER CONDOMINI23 RAINFLOWER PATH                      000N        CARE OF             
MTR09720300001000000000000000RA              29550675    000200300000003000000520000003NN  NNW 000                       N    
RDG09720300WATRL000000005K00000000000013305001511052015105542N000000000000U93       000050500K 10000000010000013256           
CUS0972030000109401771002         RAINFLOWER CONDMINIU21 RAINFLOWER PATH                      000N        CARE OF             
MTR09720300001000000000000000RA              26567445    000200310000003100000520000003NN  NNW 000                       N    
RDG09720300WATRL000000005K00000000000012425001611052015105550N000000000000U93       000080500K 10000000010000012381           
CUS0972030000109401770004         RAINFLOWER CONDOMINI19 RAINFLOWER PATH                      000N        CARE OF             
MTR09720300001000000000000000RA              01105774    000200320000003200000610000003NN  NNW 000                       N    
RDG09720300WATRL000000005K00000000000006696001711052015105553N000000000000U93       000030500K 10000000010000006559           
CUS0972030000109401768008         RAINFLOWER CONDOMINI17 RAINFLOWER PATH                      000N        CARE OF             
MTR09720300001000000000000000RA              29768539    000200330000003300000520000003NN  NNW 000                       N    
RDG09720300WATRL000000005K00000000000011662001811052015105556N000000000000U93       000030500K 10000000010000011557           
CUS0972030000109401766002         RAINFLOWER CONDOMINI15 RAINFLOWER PATH                      000N        CARE OF             
MTR09720300001000000000000000RA              01116898    000200340000003400000610000003NN  NNW 000                       N    
RDG09720300WATRL000000005K00000000000005508001911052015105559N000000000000U93       000030500K 10000000010000005335           
CUS0972030000109401764007         RAINFLOWER CONDOMINI13 RAINFLOWER PATH                      000N        CARE OF             
MTR09720300001000000000000000RA              33084114    000200350000003500000520000003NN  NNW 000                       N    
RDG09720300WATRL000000005K00000000000012301002011052015105601N000000000000U93       000020500K 10000000010000012227           
CUS0972030000109354968001         WESTERN RUN LLC     14600 YORK RD                           000N        CARE OF             
MTR09720300001000000000000000RA              1171519     000200360000003600000490000003NN  NNW 000                       N    
RDG09720300WATRL000000005K00000000000009112002111052015105604N000000000000U93       000030500K 10000000010000008727           
CUS0972030000109354967003         WESTERN RUN LLC     14600 YORK RD                           000N        CARE OF             
MTR09720300001000000000000000RA              6029417     000800370000003700000410000003NN  NNW 000   FIRE SERVICE        N    
RDG09720300WATRL000000006K00000000000000169002211052015105608N000000000000U93       000040600K 10000000010000000169           
CUS0972030000109457279009         US LACROSSE CENTER, 2 LOVETON CIR                           000N        CARE OF             
MTR09720300002000000000000000RA              14276057    000800380000003800000390000003NN  NNW 000                       N    
RDG09720300WATAL000000006K00000000000000044002311052015105616N000000000010U93       000080600K 10000000010000000000           
RDG09720300WATBL000000006K00000000000000103002411052015105625N000400000010U93       000090600K 10000000010000000000           
CUS0972030000109401333001         BECTON DICKINSON&COM7 LOVETON CIR                           000N        CARE OF             
MTR09720300002000000000000000RA              7231229     001000390000003900000630000003NN  NNW 000                       N    
RDG09720300WATAL000000007K00000000000000058002511052015105644N000400000010U93       000190700K 10000000010000000051           
RDG09720300WATBL000000007K00000000000085910002611052015105655N000400000010U93       000110700K 10000000010000081230           
CUS0972030000109355121006         MERRITT LV2 LLC     10 LOVETON CIR                          000N        CARE OF             
MTR09720300001000000000000000RA              35101388    000200400000004000000520000003NN  NNW 000                       N    
RDG09720300WATRL000000005K00000000000035733002711052015105658N000000000000U93       000030500K 10000000010000035466           
CUS0972030000109355120008         MERRITT LV2 LLC     10 LOVETON CIR                          000N        CARE OF             
MTR09720300001000000000000000RA              6029438     000600410000004100000410000003NN  NNW 000   FIRE SERVICE        N    
RDG09720300WATRL000000006K00000000000000000002811052015105700N000000000000U93       000020600K 10000000010000000000           
CUS0972030000109355124000         AMECO INC           9 LOVETON CIR                           000N        CARE OF             
MTR09720300001000000000000000RA              14918251    007500420000004200000310000003NY  NNW 000                       N    
MTM0972030014918251    k                                                                                                      
RDG09720300WATRL000000004K00000000000000769002911052015105726N000000000000U93       000260400K 10000000010000000747           
CUS0972030000109355123002         AMECO INC           9 LOVETON CIR                           000N        CARE OF             
MTR09720300001000000000000000RA              6047507     000600430000004300000410000003NN  NNW 000   FIRE SERVICE        N    
RDG09720300WATRL000000006K00000000000000000003011052015105728N000000000000U93       000020600K 10000000010000000000           
CUS0972030000109355122004         ECOLAIR, LLC.       15 LOVETON CIR                          000N        CARE OF             
MTR09720300001000000000000000RA              1328225     000200440000004400000490000003NY  NNW 000                       N    
MTM097203001328225     k                                                                                                      
RDG09720300WATRL000000005K00000000000022187003111052015105740N000000000010U93       000120500K 10000000010000022189           
CUS0972030000109404342009         19 LOVETON CIRCLE, L19 LOVETON CIR                          000N        CARE OF             
MTR09720300001000000000000000RA              27778929    001500450000004500000520000003NN  NNW 000                       N    
RDG09720300WATRL000000005K00000000000078494003211052015105746N000000000000U93       000060500K 10000000010000078449           
CUS0972030000109405804007         MCCORMICK & COMPANY 18 LOVETON CIR                          000N        CARE OF             
MTR09720300002000000000000000RA              9050020     000800460000004600000630000003NN  NNW 000                       N    
RDG09720300WATAL000000006K00000000000000003003311052015105751N000100000010U93       000050600K 10000000010000000003           
RDG09720300WATBL000000006K00000000000013871003411052015105758N000400000010U93       000070600K 10000000010000013331           
CUS0972030000109362213002         FIDELITY HEADQUARTER25 LOVETON CIR                          000N        CARE OF             
MTR09720300003000000000000000RA              7032580     000800470000004700000480000003NN  NNW 000   FIRE SERVICE        N    
RDG09720300WATAL000000006K00000000000000019003511052015105805N000100000010U93       000070600K 10000000010000000019           
RDG09720300WATBL000000006K00000000000000063003611052015105809N000100000010U93       000040600K 10000000010000000063           
RDG09720300WATCL000000006K00000000000000031003711052015105814N000100000010U93       000050600K 10000000010000000031           
CUS0972030000109362214000         FIDELITY HEADQUARTER25 LOVETON CIR                          000N        CARE OF             
MTR09720300001000000000000000RA              35109303    001500480000004800000520000003NN  NNW 000                       N    
RDG09720300WATRL000000005K00000000000010840003811052015105817N000000000000U93       000030500K 10000000010000010702           
CUS0972030000109362216005         TAYLOR PROPERTY PART31 LOVETON CIR                          000N        CARE OF             
MTR09720300001000000000000000RA              30509367    001500490000004900000520000003NN  NNW 000                       N    
RDG09720300WATRL000000005K00000000000017013003911052015105820N000000000000U93       000030500K 10000000010000016906           
CUS0972030000109362215007         TAYLOR PROPERTY PART31 LOVETON CIR                          000N        CARE OF             
MTR09720300001000000000000000RA              E13824      000800500000005000000430000003NN  NNW 000   FIRE SERVICE        N    
RDG09720300WATRL000000006K00000000000000027004011052015105824N000100000010U93       000040600K 10000000010000000027           
CUS0972030000109403527006         BECTON DICKINSON&COM26 LOVETON CIR                          000N        CARE OF             
MTR09720300002000000000000000RA              8029317     001000510000005100000630000003NN  NNW 000                       N    
RDG09720300WATAL000000007K00000000000000201004111052015105830N000100000010U93       000060700K 10000000010000000201           
RDG09720300WATBL000000007K00000000000002226004211052015105846N000400000010U93       000160700K 10000000010000002156           
CUS0972030000109404578008         34 LOVETON LLC      34 LOVETON CIR                          000N        CARE OF             
MTR09720300002000000000000000RA              8023171     000800520000005200000630000003NY  NNW 000                       N    
MTM097203008023171     conden                                                                                                 
RDG09720300WATAL000000006K00000000000000000004311052015105900N000100000010U93       000140600K 10000000010000000000           
RDG09720300WATBL000000006K00000000000000000000000000000000000 000000000000U         000000600  10000000010000008104           
CUS0972030000109375862001         FR LOVETON LLC      38 LOVETON CIR                          000N        CARE OF             
MTR09720300001000000000000000RA              32575097    001500530000005300000520000003NN  NNW 000                       N    
RDG09720300WATRL000000005K00000000000048832004411052015105904N000000000000U93       000040500K 10000000010000048797           
CUS0972030000109375861003         FR LOVETON LLC      38 LOVETON CIR                          000N        CARE OF             
MTR09720300001000000000000000RA              E15938      000800540000005400000430000003NN  NNW 000   FIRE SERVICE        N    
RDG09720300WATRL000000006K00000000000000000004511052015105908N000000000000U93       000040600K 10000000010000000000           
CUS0972030000109402431002         E JOHN SCHMITZ & SON37 LOVETON CIR                          000N        CARE OF             
MTR09720300001000000000000000RA              7234899     000600550000005500000340000003NN  NNW 000   FIRE SERVICE        N    
RDG09720300WATRL000000006K00000000000000033004611052015105911N000000000000U93       000030600K 10000000010000000033           
CUS0972030000109402432000         E JOHN SCHMITZ & SON37 LOVETON CIR                          000N        CARE OF             
MTR09720300001000000000000000RA              36700462    001500560000005600000520000003NN  NNW 000                       N    
RDG09720300WATRL000000005K00000000000012150004711052015105915N000000000000U93       000040500K 10000000010000012087           
CUS0972030000109409544005         BECTON DICKINSON & C39 LOVETON CIR                          000N        CARE OF             
MTR09720300002000000000000000RA              2355610     000800570000005700000630000003NN  NNW 000                       N    
RDG09720300WATAL000000006K00000000000000552004811052015105920N000100000010U93       000050600K 10000000010000000552           
RDG09720300WATBL000000006K00000000000035907004911052015105926N000400000010U93       000060600K 10000000010000033679           
CUS0972030000109428596002         LOVETON INVESTORS LL47 LOVETON CIR                          000N        CARE OF             
MTR09720300002000000000000000RA              70067473    000800580000005800000560000003NY  NNW 000                       N    
MTM0972030070067473    k                                                                                                      
RDG09720300WATAL000000006K00000000000000734005011052015110101N000000000000U93       000950600K 10000000010000000458           
RDG09720300WATBL000000006K00000000000081464005111052015110139N000300000010U93       000380600K 10000000010000092120           
CUS0972030000109388847007         BECTON DICKINSON & C54 LOVETON CIR                          000N        CARE OF             
MTR09720300002000000000000000RA              7164703     000800590000005900000630000003NN  NNW 000                       N    
RDG09720300WATAL000000006K00000000000000001005211052015110143N000100000010U93       000040600K 10000000010000000001           
RDG09720300WATBL000000006K00000000000016357005311052015110150N000400000010U93       000070600K 10000000010000016282           
CUS0972030000109386337001         OWINGS BROTHERS PROP60 LOVETON CIR                          000N        CARE OF             
MTR09720300002000000000000000RA              7121243     000800600000006000000630000003NN  NNW 000                       N    
RDG09720300WATAL000000006K00000000000000001005411052015110155N000100000010U93       000050600K 10000000010000000001           
RDG09720300WATBL000000006K00000000000005082005511052015110210N000400000010U93       000150600K 10000000010000004904           
CUS0972030000109406398009         SAROC LIMITED PARTNE66 LOVETON CIR                          000N        CARE OF             
MTR09720300002000000000000000RA              7219023     000600610000006100000390000003NN  NNW 000   FIRE SERVICE        N    
RDG09720300WATAL000000006K00000000000000004005611052015110216N000100000010U93       000060600K 10000000010000000004           
RDG09720300WATBL000000006K00000000000000045005711052015110221N000100000010U93       000050600K 10000000010000000045           
CUS0972030000109406400003         SAROC LIMITED PARTNE66 LOVETON CIR                          000N        CARE OF             
MTR09720300001000000000000000RA              90000106    000200620000006200000570000003NN  NNW 000                       N    
RDG09720300WATRL000000005K00000000000002580005811052015110224N000000000000U93       000030500K 10000000010000002487           
CUS0972030000109429587000         KELLY & ASSOCIATES I1 FILA WAY                              000N        CARE OF             
MTR09720300002000000000000000RA              70067463    000800630000006300000560000000NN  NNW 000                       N    
RDG09720300WATAL000000006K00000000000000486005911052015110229N000400000010U93       000050600K 10000000010000000465           
RDG09720300WATBL000000006K00000000000007672006011052015110237N000400000010U93       000080600K 10000000010000007361           
CUS0972030000109395031009         UPS                 14402 YORK RD                           000N        CARE OF             
MTR09720300002000000000000000RA              7182376     001000640000006400000540000003NN  NNW 000                       N    
RDG09720300WATAL000000007K00000000000000001006111052015110241N000100000010U93       000040700K 10000000010000000001           
RDG09720300WATBL000000007K00000000000011702006211052015110250N000400000010U93       000090700K 10000000010000011014           
CUS0972030000109403576003         LOVETON/YORK LIMITED72 LOVETON CIR                          000N        CARE OF             
MTR09720300001000000000000000RA              7197623     000800650000006500000340000003NN  NNW 000   FIRE SERVICE        N    
RDG09720300WATRL000000006K00000000000000006006311052015110253N000000000000U93       000030600K 10000000010000000006           
CUS0972030000109403578009         LOVETON/YORK LIMITED72 LOVETON CIR                          000N        CARE OF             
MTR09720300001000000000000000RA              28594320    000200660000006600000520000003NN  NNW 000                       N    
RDG09720300WATRL000000005K00000000000026050006411052015110258N000000000000U93       000050500K 10000000010000025600           
CUS0972030000109426141009         TOWER POINT LOT BB L900 RIDGEBROOK RD                       000N        CARE OF             
MTR09720300002000000000000000RA              70048460    000800670000006700000560000003NN  NNW 000                       N    
RDG09720300WATAL000000006K00000000000004492006511052015110307N000400000010U93       000090600K 10000000010000004278           
RDG09720300WATBL000000006K00000000000032680006611052015110319N000400000010U93       000120600K 10000000010000030319           
CUS0972030000109443678009         HIGHLANDS OFFICE PAR936 RIDGEBROOK RD                       000N        CARE OF             
MTR09720300001000000000000000RA              0717886     000800680000006800000390000000NY  NNW 000                       N    
MTM097203000717886     2dial 000001                                                                                           
RDG09720300WATRL000000006K00000000000003379006711052015110342N000000000000U93       000230600K 10000000010000003267           
CUS0972030000109435178000         HIGHLAND PARTNERS LL940 RIDGEBROOK RD                       000N        CARE OF             
MTR09720300002000000000000000RA              0008066     000800690000006900000630000000NN  NNW 000                       N    
RDG09720300WATAL000000006K00000000000000001006811052015110347N000100000010U93       000050600K 10000000010000000001           
RDG09720300WATBL000000006K00000000000025076006911052015110354N000400000010U93       000070600K 10000000010000023385           
CUS0972030000109436345004         911 RIDGEBROOK ROAD 913 RIDGEBROOK RD                       000N        CARE OF             
MTR09720300002000000000000000RA              0207832     000800700000007000000630000000NN  NNW 000                       N    
RDG09720300WATAL000000006K00000000000000000007011052015110403N000100000010U93       000090600K 10000000010000000000           
RDG09720300WATBL000000006K00000000000006785007111052015110413N000400000010U93       000100600K 10000000010000006510           
CUS0972030000109438214000         HIGHLANDS OFFICE PAR950 RIDGEBROOK RD                       000N        CARE OF             
MTR09720300002000000000000000RA              0503391     000800710000007100000630000000NN  NNW 000                       N    
RDG09720300WATAL000000006K00000000000000002007211052015110418N000100000010U93       000050600K 10000000010000000002           
RDG09720300WATBL000000006K00000000000012150007311052015110423N000400000010U93       000050600K 10000000010000011296           
CUS0972030000109402841002         SHAWAN NORTH PARTNER11426 YORK RD                           000N        CARE OF             
MTR09720300001000000000000000RA              7234869     000600720000007200000340000003NN  NNW 000   FIRE SERVICE        N    
RDG09720300WATRL000000006K00000000000000023007411052015110432N000000000000U93       000090600K 10000000010000000023           
CUS0972030000109402843008         SHAWAN NORTH PARTNER11426 YORK RD                           000N        CARE OF             
MTR09720300001000000000000000RA              29724281    001500730000007300000520000003NN  NNW 000                       N    
RDG09720300WATRL000000005K00000000000007139007511052015110439N000000000000U93       000070500K 10000000010000007085           
CUS0972030000109360087002         HUNT VALLEY HOLDINGS118 SHAWAN RD                           000N        CARE OF             
MTR09720300002000000000000000RA              6087777     000800740000007400000630000003NN  NNW 000                       N    
RDG09720300WATAL000000006K00000000000000121007611052015110445N000100000010U93       000060600K 10000000010000000121           
RDG09720300WATBL000000006K00000000000147683007711052015110456N000400000010U93       000110600K 10000000010000140229           
CUS0972030000109361923007         HUNT VALLEY HOLDINGS118 SHAWAN RD                           000N        CARE OF             
MTR09720300002000000000000000RA              7026392     000800750000007500000630000003NN  NNW 000                       N    
RDG09720300WATAL000000006K00000000000000223007811052015110501N000000000010U93       000050600K 10000000010000000220           
RDG09720300WATBL000000006K00000000000085969007911052015110534N000400000020U93       000330600K 10000000010000082092           
CUS0972030000109360086004         GRAND LODGE OF A.F.&200 SHAWAN RD                           000N        CARE OF             
MTR09720300002000000000000000RA              6047499     000800760000007600000540000003NN  NNW 000                       N    
RDG09720300WATAL000000006K00000000000000005008011052015110540N000100000010U93       000060600K 10000000010000000005           
RDG09720300WATBL000000006K00000000000029353008111052015110547N000400000010U93       000070600K 10000000010000027152           
CUS0972030000109388080005         CENTERPOINTE LIMITED200-12 INTERNATIONAL CIR                000N        CARE OF             
MTR09720300001000000000000000RA              E20756      000600770000007700000430000003NN  NNW 000   FIRE SERVICE        N    
RDG09720300WATRL000000006K00000000000000078008211052015110605N000000000000U93       000180600K 10000000010000000076           
CUS0972030000109388081003         BALTIMORE MD GREEN I200-12 INTERNATIONAL CIR                000N        CARE OF             
MTR09720300001000000000000000RA              1451693     000300780000007800000490000003NN  NNW 000                       N    
RDG09720300WATRL000000005K00000000000023952008311052015110609N000000000000U93       000040500K 10000000010000023099           
CUS0972030000109432346006         HIGH VIEW @ HUNT VLY218 INTERNATIONAL CIR                   000N        CARE OF             
MTR09720300002000000000000000RA              4758        001200790000007900000540000000NN  NNW 000                       N    
RDG09720300WATAL000000007K00000000000000067008411052015110613N000400000010U93       000040700K 10000000010000000057           
RDG09720300WATBL000000007K00000000000130766008511052015110625N000400000010U93       000120700K 10000000010000126300           
CUS0972030000109403966006         GRAND LODG OF A.F.&A300 INTERNATIONAL CIR                   000N        CARE OF             
MTR09720300002000000000000000RA              8028651     001000800000008000000480000003NN  NNW 000                       N    
RDG09720300WATAL000000007K00000000000000003008611052015110630N000100000010U93       000050700K 10000000010000000003           
RDG09720300WATBL000000007K00000000000052732008711052015110639N000400000010U93       000090700K 10000000010000050177           
CUS0972030000109395176002         LIBERTY PROPERTY TRU307 INTERNATIONAL CIR                   000N        CARE OF             
MTR09720300002000000000000000RA              7213856     001000810000008100000630000003NN  NNW 000                       N    
RDG09720300WATAL000000007K00000000000000001008811052015110643N000100000010U93       000040700K 10000000010000000001           
RDG09720300WATBL000000007K00000000000025631008911052015110653N000400000010U93       000100700K 10000000010000024810           
CUS0972030000109400008000         MERRITT-IC1 LLC     303 INTERNATIONAL CIR                   000N        CARE OF             
MTR09720300001000000000000000RA              0609468     000300820000008200000640000003NN  NNW 000                       N    
RDG09720300WATRL000000005K00000000000009536009011052015110659N000000000000U93       000060500K 10000000010000008790           
CUS0972030000109400006004         MERRITT-IC1 LLC     303 INTERNATIONAL CIR                   000N        CARE OF             
MTR09720300001000000000000000RA              E23081      000600830000008300000430000003NN  NNW 000   FIRE SERVICE        N    
RDG09720300WATRL000000006K00000000000000000009111052015110701N000000000000U93       000020600K 10000000010000000000           
CUS0972030000109400197001         JAI MEDICAL SYSTEMS 301 INTERNATIONAL CIR                   000N        CARE OF             
MTR09720300001000000000000000RA              36700458    001500840000008400000520000003NN  NNW 000                       N    
RDG09720300WATRL000000005K00000000000013317009211052015110709N000000000000U93       000080500K 10000000010000013223           
CUS0972030000109400195005         JAI MEDICAL SYSTEMS 301 INTERNATIONAL CIR                   000N        CARE OF             
MTR09720300001000000000000000RA              E23084      000600850000008500000430000003NN  NNW 000   FIRE SERVICE        N    
RDG09720300WATRL000000006K00000000000000000009311052015110712N000000000000U93       000030600K 10000000010000000000           
CUS0972030000109392665007         MEDICAL MUTUAL LIABI225 INTERNATIONAL CIR                   000N        CARE OF             
MTR09720300001000000000000000RA              1228587     000300860000008600000470000003NY  NNW 000                       N    
MTM097203001228587     2dial 04680                                                                                            
RDG09720300WATRL000000005K00000000000004000009411052015110750N000400000010U93       000380500K 10000000010000003902           
CUS0972030000109392663002         MEDICAL MUTUAL LIABI225 INTERNATIONAL CIR                   000N        CARE OF             
MTR09720300001000000000000000RA              E22921      000600870000008700000430000003NN  NNW 000   FIRE SERVICE        N    
RDG09720300WATRL000000006K00000000000000050009511052015110754N000000000000U93       000040600K 10000000010000000050           
CUS0972030000109389103004         MARRIOTT CFRST, SITE221 INTERNATIONAL CIR                   000N        CARE OF             
MTR09720300002000000000000000RA              7164717     000800880000008800000630000003NN  NNW 000                       N    
RDG09720300WATAL000000006K00000000000000004009611052015110758N000400000010U93       000040600K 10000000010000000001           
RDG09720300WATBL000000006K00000000000026771009711052015110804N000400000010U93       000060600K 10000000010000025291           
CUS0972030000109373784009         217 INTERNATIONAL CI217 INTERNATIONAL CIR                   000N        CARE OF             
MTR09720300001000000000000000RA              01105100    001500890000008900000610000003NN  NNW 000                       N    
RDG09720300WATRL000000005K00000000000001768009811052015110821N000000000000U93       000170500K 10000000010000001741           
CUS0972030000109373783001         217 INTERNATIONAL CI217 INTERNATIONAL CIR                   000N        CARE OF             
MTR09720300001000000000000000RA              E16726      000600900000009000000430000003NN  NNW 000   FIRE SERVICE        N    
RDG09720300WATRL000000006K00000000000000000009911052015110823N000000000000U93       000020600K 10000000010000000000           
CUS0972030000109381108001         IA URBAN HOTESL HUNT213 INTERNATIONAL CIR                   000N        CARE OF             
MTR09720300002000000000000000RA              7102423     001000910000009100000630000003NN  NNW 000                       N    
RDG09720300WATAL000000007K00000000000000003010011052015110828N000100000010U93       000050700K 10000000010000000003           
RDG09720300WATBL000000007K00000000000102140010111052015110839N000400000010U93       000110700K 10000000010000097330           
CUS0972030000102446085009         BRANCH BANKING & TRU203 INTERNATIONAL CIR                   000N        CARE OF             
MTR09720300001000000000000000RA              30001228    007500920000009200000570000000NN  NNW 000                       N    
RDG09720300WATRL000000004K00000000000000106010211052015110842N000000000000U93       000030400K 10000000010000000101           
CUS0972030000109374026004         BALTIMORE MD GREEN I201 INTERNATIONAL CIR                   000N        CARE OF             
MTR09720300002000000000000000RA              7045907     000800930000009300000630000003NN  NNW 000                       N    
RDG09720300WATAL000000006K00000000000000001010311052015110846N000100000010U93       000040600K 10000000010000000001           
RDG09720300WATBL000000006K00000000000001159010411052015110854N000400000010U93       000080600K 10000000010000000983           
CUS0972030000109381107003         MCCORMICK & COMPANY 211 SCHILLING CIR                       000N        CARE OF             
MTR09720300002000000000000000RA              7095852     000800940000009400000480000003NN  NNW 000                       N    
RDG09720300WATAL000000006K00000000000000003010511062015120338N000100000010U93       000000600K 10000000010000000003           
RDG09720300WATBL000000006K00000000000019728000211062015120348N000400000010U93       000100600K 10000000010000018957           
CUS0972030000109436877006         MERRITT-SC1 LLC     215 SCHILLING CIR                       000N        CARE OF             
MTR09720300001000000000000000RA              8042231     000800950000009500000380000003NN  NNW 000   FIRE SERVICE        N    
RDG09720300WATRL000000006K00000000000000006000311062015120354N000100000010U93       000060600K 10000000010000000006           
CUS0972030000109436879002         MERRITT-SC1 LLC     215 SCHILLING CIR                       000N        CARE OF             
MTR09720300001000000000000000RA              01104904    001500960000009600000610000000NN  NNW 000                       N    
RDG09720300WATRL000000005K00000000000006355000411062015120404N000000000000U93       000100500K 10000000010000006062           
CUS0972030000109396971005         216 SCHILLING REALTY216 SCHILLING CIR                       000N        CARE OF             
MTR09720300001000000000000000RA              E22513      000600970000009700000430000003NN  NNW 000   FIRE SERVICE        N    
RDG09720300WATRL000000006K00000000000000121000511062015120408N000000000000U93       000040600K 10000000010000000121           
CUS0972030000109396970007         216 SCHILLING REALTY216 SCHILLING CIR                       000N        CARE OF             
MTR09720300001000000000000000RA              70000055    001500980000009800000570000003NN  NNW 000                       N    
RDG09720300WATRL000000005K00000000000001732000611062015120412N000000000000U93       000040500K 10000000010000001644           
CUS0972030000109352999008         222-24 SCHILLING CIR222-24 SCHILLING CIR                    000N        CARE OF             
MTR09720300001000000000000000RA              01116827    000200990000009900000610000003NN  NNW 000                       N    
RDG09720300WATRL000000005K00000000000007239000711062015120419N000400000010U93       000070500K 10000000010000007015           
CUS0972030000109352981006         226 SCHILLING CIRCLE226-28 SCHILLING CIR                    000N        CARE OF             
MTR09720300001000000000000000RA              6029446     000601000000010000000410000003NN  NNW 000   FIRE SERVICE        N    
RDG09720300WATRL000000006K00000000000000000000811062015120423N000000000000U93       000040600K 10000000010000000000           
CUS0972030000109352982004         BALTIMORE MD GREEN I226-28 SCHILLING CIR                    000N        CARE OF             
MTR09720300001000000000000000RA              01105544    000201010000010100000610000003NN  NNW 000                       N    
RDG09720300WATRL000000005K00000000000012174000911062015120426N000000000000U93       000030500K 10000000010000011882           
CUS0972030000109364625005         MERRITT SC10 LLC    230 SCHILLING CIR                       000N        CARE OF             
MTR09720300001000000000000000RA              E13531      000601020000010200000430000003NN  NNW 000   FIRE SERVICE        N    
RDG09720300WATRL000000006K00000000000000017001011062015120432N000100000010U93       000060600K 10000000010000000017           
CUS0972030000109364626003         MERRITT SC10 LLC    230 SCHILLING CIR                       000N        CARE OF             
MTR09720300001000000000000000RA              01116838    000201030000010300000610000003NN  NNW 000                       N    
RDG09720300WATRL000000005K00000000000009780001111062015120437N000000000000U93       000050500K 10000000010000009182           
CUS0972030000109123850001         MERRITT-SC1 LLC     225 SCHILLING CIR                       000N        CARE OF             
MTR09720300001000000000000000RA              0911544     000301040000010400000640000003NN  NNW 000                       N    
RDG09720300WATRL000000005K00000000000006626001211062015120441N000000000000U93       000040500K 10000000010000005739           
CUS0972030000109123849003         MERRITT-SC1 LLC     225 SCHILLING CIR                       000N        CARE OF             
MTR09720300001000000000000000RA              4247168     000801050000010500000410000003NN  NNW 000   FIRE SERVICE        N    
RDG09720300WATRL000000006K00000000000000050001311062015120445N000000000000U93       000040600K 10000000010000000050           
CUS0972030000109446698004         MERRITT SC1, LLC    231 SCHILLING CIR                       000N        CARE OF             
MTR09720300001000000000000000RA              99999999    000601060000010600000440000000NN  NNW 000   FIRE SERVICE        N    
RDG09720300WATRL000000006K00000000000000003001411062015120448N000000000000U93       000030600K 10000000010000000003           
CUS0972030000109446697006         MERRITT SC1 LLC     231 SCHILLING CIR                       000N        CARE OF             
MTR09720300001000000000000000RA              99999999    001501070000010700000440000000NN  NNW 000                       N    
RDG09720300WATRL000000005K00000000000001380001511062015120450N000000000000U93       000020500K 10000000010000001246           
CUS0972030000109436880000         MERRITT-SC1 LLC     235 SCHILLING CIR                       000N        CARE OF             
MTR09720300001000000000000000RA              8048684     000801080000010800000380000003NN  NNW 000   FIRE SERVICE        N    
RDG09720300WATRL000000006K00000000000000031001611062015120454N000000000000U93       000040600K 10000000010000000031           
CUS0972030000109436882006         MERRITT-SC1 LLC     235 SCHILLING CIR                       000N        CARE OF             
MTR09720300001000000000000000RA              01104990    001501090000010900000610000003NN  NNW 000                       N    
RDG09720300WATRL000000005K00000000000008512001711062015120508N000000000000U93       000140500K 10000000010000008080           
CUS0972030000109123813009         B-D LABORATORIES INC250 SCHILLING CIR                       000N        CARE OF             
MTR09720300001000000000000000RA              1150680     000301100000011000000490000003NY  NNW 000                       N    
MTM097203001150680     read ok                                                                                                
RDG09720300WATRL000000005K00000000000050239001811062015120516N000000000000U93       000080500K 10000000010000026088           
CUS0972030000109123812001         B-D LABORATORIES INC250 SCHILLING CIR                       000N        CARE OF             
MTR09720300001000000000000000RA              4247175     001001110000011100000410000003NN  NNW 000   FIRE SERVICE        N    
RDG09720300WATRL000000007K00000000000000000001911062015120531N000000000000U93       000150700K 10000000010000000000           
CUS0972030000109123814007         MURRAY CORPORATION  SS SCHILLING CIRCLE                     000N        CARE OF             
MTR09720300001000000000000000RA              4247166     000801120000011200000410000003NN  NNW 000   FIRE SERVICE        N    
RDG09720300WATRL000000006K00000000000000000002011062015120533N000000000000U93       000020600K 10000000010000000000           
CUS0972030000109123815004         MURRAY CORPORATION  SS SCHILLING CIRCLE                     000N        CARE OF             
MTR09720300001000000000000000RA              1171178     000201130000011300000490000003NN  NNW 000                       N    
RDG09720300WATRL000000005K00000000000053192002111062015120537N000000000000U93       000040500K 10000000010000053192           
CUS0972030000102433432008         BENSON LYLE K       13833 THORNTON MILL RD                  000N        CARE OF             
MTR09720300001000000000000000RA              10013917    005801140000011400000570000003NN  NNW 000                       N    
RDG09720300WATRL000000004K00000000000002114002211062015120543N000000000000U93       000060400K 10000000010000002046           
RTR09720300NN01540154000001540000000001140114000022NY011401140154000100000000000000000000000001    10202015NY020000 N         
RHD09720100NN01550155000001550000000001360136000026NY013601360155001900060000000000000000000001    10202015NY020000 N         
CUS0972010000109350878006         PRESBYTERIAN HOME OF400 GEORGIA CT                          000N        CARE OF             
MTR09720100001000000000000000RA              90000107    000200010000000100000570000003NN  NNW 000                       N    
RDG09720100WATRL000000005K00000000000007196000111022015131557N000000000000N93       000000500K 10000000010000006959           
CUS0972010000109434036001         WIGHT AVENUE        11100 YORK RD                           000N        CARE OF             
MTR09720100001000000000000000RA              8043194     000400020000000200000380000000NN  NNW 000   FIRE SERVICE        N    
RDG09720100WATRL000000006K00000000000000000000211022015131601N000000000000N93       000040600K 10000000010000000000           
CUS0972010000109350877008         PRESBYTERIAN HOME OF400 GEORGIA CT                          000N        CARE OF             
MTR09720100002000000000000000RA              6012967     000600030000000300000480000003NN  NNW 000   FIRE SERVICE        N    
RDG09720100WATAL000000006K00000000000000014000311022015131604N000000000000N93       000030600K 10000000010000000014           
RDG09720100WATBL000000006K00000000000000014000411022015131610N000400000010N93       000060600K 10000000010000000013           
CUS0972010000109123704000         PRESBYTERIAN HOME OF400-08 GEORGIA CT                       000N        CARE OF             
MTR09720100001000000000000000RA              1179169     001500040000000400000490000003NY  NNW 000                       N    
MTM097201001179169     read ok                                                                                                
RDG09720100WATRL000000005K00000000000058187000511022015131624N000300000010N93       000140500K 10000000010000058845           
CUS0972010000109123703002         PRESBYTERIAN HOME OF400-08 GEORGIA CT                       000N        CARE OF             
MTR09720100001000000000000000RA              2930965     000400050000000500000410000003NN  NNW 000   FIRE SERVICE        N    
RDG09720100WATRL000000006K00000000000000092000611022015131642N000000000000N93       000180600K 10000000010000000092           
CUS0972010000109410010004         YMCA OF CENTRAL MD. 600 W CHESAPEAKE AVE                    000N        CARE OF             
MTR09720100001000000000000000RA              01105636    000200060000000600000610000003NN  NNW 000   FERRULE APPLIED     N    
RDG09720100WATRL000000005K00000000000000000000111032015110530S002000000000U93       000000500K 10000000010000032546           
CUS0972010000109410008008         YMCA OF BALTIMORE   600 W CHESAPEAKE AVE                    000N        CARE OF             
MTR09720100001000000000000000RA              8027130     000600070000000700000340000003NN  NNW 000   FERRULE APPLIED     N    
RDG09720100WATRL000000006K00000000000000000000211032015110534S002000000000U93       000040600K 10000000010000000000           
CUS0972010000109453265002         YMCA                600 W CHESAPEAKE AVE                    000N        CARE OF             
MTR09720100002000000000000000RA              12800274    000800080000000800000000000003NN  NNW 000                       N    
RDG09720100WATAL000000006K00000000000000402000711022015131654N000400000010N93       000120600K 10000000010000000321           
RDG09720100WATBL000000006K00000000000007047000811022015131703N000400000010N93       000090600K 10000000010000006104           
CUS0972010000109382481001         CHESAPEAKE STONE MAN2 STONE MANOR CT                        000N        CARE OF             
MTR09720100002000000000000000RA              7116762     000800090000000900000630000003NY  NNW 000                       N    
MTM097201007116762     conden                                                                                                 
RDG09720100WATAL000000006K00000000000000001000311032015110550N000100000010U93       000160600K 10000000010000000001           
RDG09720100WATBL000000006K00000000000000000000000000000000000 000000000000U         000000600  10000000010000002494           
CUS0972010000109444926001         TRUSTEE OF TOWSON   400 W CHESAPEAKE AVE                    000N        CARE OF             
MTR09720100001000000000000000RA              14914875    001500100000001000000310000000NN  NNW 000                       N    
RDG09720100WATRL000000005K00000000000005635000911022015131710N000000000000N93       000070500K 10000000010000005529           
CUS0972010000109444927009         TUSTEE OF TOWSON    400 W CHESAPEAKE AVE                    000N        CARE OF             
MTR09720100001000000000000000RA              8053227     000600110000001100000410000000NN  NNW 000   FIRE SERVICE        N    
RDG09720100WATRL000000006K00000000000000001001011022015131714N000000000000N93       000040600K 10000000010000000001           
CUS0972010000109123706005         TOWSON ASSOCIATES LL305 W CHESAPEAKE AVE                    000N        CARE OF             
MTR09720100001000000000000000RA              9215530     000300120000001200000640000003NN  NNW 000                       N    
RDG09720100WATRL000000005K00000000000010114001111022015131720N000000000000N93       000060500K 10000000010000009636           
CUS0972010000109123705007         TOWSON ASSOCIATES LL305 W CHESAPEAKE AVE                    000N        CARE OF             
MTR09720100001000000000000000RA              4247165     000600130000001300000410000003NN  NNW 000   FIRE SERVICE        N    
RDG09720100WATRL000000006K00000000000002044001211022015131725N000000000000N93       000050600K 10000000010000002044           
CUS0972010000109123730005         BALTIMORE COUNTY MAR401 BOSLEY AVE                          000N        CARE OF             
MTR09720100001000000000000000RA              1197230     000400140000001400000490000003NN  NNW 000                       N    
RDG09720100WATRL000000006K00000000000030969001311022015131730N000000000000N93       000050600K 10000000010000028830           
CUS0972010000109123729007         BALTIMORE COUNTY MAR401 BOSLEY AVE                          000N        CARE OF             
MTR09720100001000000000000000RA              5275696     000800150000001500000410000003NN  NNW 000   FIRE SERVICE        N    
RDG09720100WATRL000000006K00000000000000135001411022015131735N000000000000N93       000050600K 10000000010000000135           
CUS0972010000109446245004         BRIGHTVIEW TOWSON LL20 BURKE AVE                            000N        CARE OF             
MTR09720100002000000000000000RA              11807112    000600160000001600000390000000NN  NNW 000                       N    
RDG09720100WATAL000000006K00000000000000016001511022015131742N000100000010N93       000070600K 10000000010000000016           
RDG09720100WATBL000000006K00000000000009474001611022015131751N000400000010N93       000090600K 10000000010000008553           
CUS0972010000109399403006         PGA COURT TOWERS    210 W PENNSYLVANIA AVE                  000N        CARE OF             
MTR09720100001000000000000000RA              1115668     000300170000001700000490000003NN  NNW 000                       N    
RDG09720100WATRL000000005K00000000000007174001711022015131758N000000000000N93       000070500K 10000000010000006646           
CUS0972010000109399401000         PGA COURT TOWERS    210 W PENNSYLVANIA AVE                  000N        CARE OF             
MTR09720100001000000000000000RA              7196723     000800180000001800000340000003NN  NNW 000   FIRE SERVICE        N    
RDG09720100WATRL000000006K00000000000000239001811022015131803N000000000000N93       000050600K 10000000010000000239           
CUS0972010000109123708001         WEST CHESAPEAKE LLC 301 W CHESAPEAKE AVE                    000N        CARE OF             
MTR09720100001000000000000000RA              00066921    001500190000001900000570000003NN  NNW 000                       N    
RDG09720100WATRL000000005K00000000000002001001911022015131809N000000000000N93       000060500K 10000000010000001961           
CUS0972010000109123707003         WEST CHESAPEAKE LLC 301 W CHESAPEAKE AVE                    000N        CARE OF             
MTR09720100001000000000000000RA              4198111     000400200000002000000410000000NN  NNW 000   FIRE SERVICE        N    
RDG09720100WATRL000000006K00000000000000025002011022015131819N000000000000N93       000100600K 10000000010000000025           
CUS0972010000109123711005         OFFICE OF BUDGET AND200 BALTIMORE AVE                       000N        CARE OF             
MTR09720100001000000000000000RA              9203920     000400210000002100000640000003NN  NNW 000   FERRULE APPLIED     N    
RDG09720100WATRL000000006K00000000000000000000411032015110602S002000000000U93       000120600K 10000000010000006181           
CUS0972010000109123713001         BALTIMORE COUNTY MAR111 W CHESAPEAKE AVE                    000N        CARE OF             
MTR09720100001000000000000000RA              0911754     000400220000002200000640000003NN  NNW 000                       N    
RDG09720100WATRL000000006K00000000000011662002111022015131831N000000000000N93       000120600K 10000000010000010761           
CUS0972010000109123712003         BALTIMORE COUNTY MAR111 W CHESAPEAKE AVE                    000N        CARE OF             
MTR09720100001000000000000000RA              3083563     000600230000002300000410000000NN  NNW 000   FIRE SERVICE        N    
RDG09720100WATRL000000006K00000000000000033002211022015131835N000000000000N93       000040600K 10000000010000000033           
CUS0972010000109123726003         FALLSTON MEDICAL COM409 WASHINGTON AVE                      000N        CARE OF             
MTR09720100002000000000000000RA              5077431     000400240000002400000540000003NY  NNW 000                       N    
MTM097201005077431     read ok                                                                                                
RDG09720100WATAL000000006K00000000000000001002311022015131841N000100000010N93       000060600K 10000000010000000001           
RDG09720100WATBL000000006K00000000000001728002411022015131852N000300000010N93       000110600K 10000000010000010114           
CUS0972010000109440936004         BALTIMORE CO. BUREAU105 W CHESAPEAKE AVE                    000N        CARE OF             
MTR09720100001000000000000000RA              8050823     000600250000002500000410000000NN  NNW 000   FIRE SERVICE        N    
RDG09720100WATRL000000006K00000000000000017002511022015131908N000000000000N93       000160600K 10000000010000000017           
CUS0972010000109440935006         BALTIMORE CO BUREAU 105 W CHESAPEAKE AVE                    000N        CARE OF             
MTR09720100001000000000000000RA              11800844    000300260000002600000640000000NN  NNW 000                       N    
RDG09720100WATRL000000005K00000000000005630002611022015131913N000000000000N93       000050500K 10000000010000005109           
CUS0972010000109146446001         U S OF AMERICA POST 101 W CHESAPEAKE AVE                    000N        CARE OF             
MTR09720100001000000000000000RA              99410873    000100270000002700000570000003NN  NNW 000                       N    
RDG09720100WATRL000000004K00000000000002721002711022015131921N000400000010N93       000080400K 10000000010000002715           
CUS0972010000109406225004         305 WASHINGTON AVENU305 WASHINGTON AVE                      000N        CARE OF             
MTR09720100001000000000000000RA              41091061    001500280000002800000520000003NN  NNW 000                       N    
RDG09720100WATRL000000005K00000000000026220002811022015131926N000000000000N93       000050500K 10000000010000025990           
CUS0972010000109406223009         305 WASHINGTON AVENU305 WASHINGTON AVE                      000N        CARE OF             
MTR09720100001000000000000000RA              8025835     000600290000002900000340000003NN  NNW 000   FIRE SERVICE        N    
RDG09720100WATRL000000006K00000000000000515002911022015131930N000000000000N93       000040600K 10000000010000000515           
CUS0972010000109445747000         TOWSON JAIL ASSOC., 200 COURTHOUSE CT                       000N        CARE OF             
MTR09720100001000000000000000RA              00166732    005800300000003000000570000003NN  NNW 000                       N    
RDG09720100WATRL000000004K00000000000000185003011022015131936N000000000000N93       000060400K 10000000010000000177           
CUS0972010000109445745004         TOWSON JAIL ASSOC.,L200 COURTHOUSE CT                       000N        CARE OF             
MTR09720100001000000000000000RA              09053887    000400310000003100000380000003NN  NNW 000   FIRE SERVICE        N    
RDG09720100WATRL000000006K00000000000000000003111022015131939N000000000000N93       000030600K 10000000010000000000           
CUS0972010000109428433008         BALTIMORE COUNTY MAR115 W SUSQUEHANNA AVE                   000N        CARE OF             
MTR09720100001000000000000000RA              8044785     000400320000003200000380000000NN  NNW 000   FIRE SERVICE        N    
RDG09720100WATRL000000006K00000000000000003003211022015131942N000000000000N93       000030600K 10000000010000000003           
CUS0972010000109428435003         BALTIMORE COUNTY MAR115 W SUSQUEHANNA AVE                   000N        CARE OF             
MTR09720100001000000000000000RA              0908459     000300330000003300000640000000NN  NNW 000                       N    
RDG09720100WATRL000000005K00000000000001289003311022015131945N000000000000N93       000030500K 10000000010000001227           
CUS0972010000109123717002         BALTIMORE COUNTY MAR100 W SUSQUEHANNA AVE                   000N        CARE OF             
MTR09720100001000000000000000RA              14914887    001500340000003400000310000003NN  NNW 000                       N    
RDG09720100WATRL000000005K00000000000001264003411022015132001N000400000010N93       000160500K 10000000010000001238           
CUS0972010000109123716004         BALTIMORE COUNTY MAR100 W SUSQUEHANNA AVE                   000N        CARE OF             
MTR09720100001000000000000000RA              5427377     000600350000003500000370000003NN  NNW 000   FIRE SERVICE        N    
RDG09720100WATRL000000006K00000000000000011003511022015132007N000000000000N93       000060600K 10000000010000000011           
CUS0972010000109378945001         WASHINGTON AV LTD PA29 W SUSQUEHANNA AVE                    000N        CARE OF             
MTR09720100002000000000000000RA              7102429     000800360000003600000480000003NN  NNW 000                       N    
RDG09720100WATAL000000006K00000000000000003003611022015132013N000100000010N93       000060600K 10000000010000000003           
RDG09720100WATBL000000006K00000000000011836003711022015132023N000400000010N93       000100600K 10000000010000011245           
CUS0972010000109361926000         BALTIMORE COUNTY EMP23 W SUSQUEHANNA AVE                    000N        CARE OF             
MTR09720100001000000000000000RA              00163353    000100370000003700000570000003NN  NNW 000                       N    
RDG09720100WATRL000000004K00000000000003302003811022015132027N000000000000N93       000040400K 10000000010000003244           
CUS0972010000109456895003         BALTIMORE COUNTY MAR204 COURTLAND AVE                       000N        CARE OF             
MTR09720100001000000000000000RA              14444792    000600380000003800000570000003NY  NNW 000   INVALID DAC         N    
MTM0972010014444792    no meter                                                                                               
RDG09720100WATRL000000006K00000000000000000000000000000000000 000000000000U         000000600  10000000010000000000           
CUS0972010000109445335004         PALISADES OF TOWSON 212 WASHINGTON AVE                      000N        CARE OF             
MTR09720100001000000000000000RA              01025940    000600390000003900000460000000NY  NNW 000                       N    
MTM0972010001025940    conden                                                                                                 
RDG09720100WATRL000000006K00000000000000000000000000000000000 000000000000U         000000600  10000000010000073212           
CUS0972010000109445336002         PALISADES OF TOWSON,212 WASHINGTON AVE                      000N        CARE OF             
MTR09720100001000000000000000RA              8052512     000800400000004000000410000000NN  NNW 000   FIRE SERVICE        N    
RDG09720100WATRL000000006K00000000000000170003911022015132044N000000000000N93       000170600K 10000000010000000167           
CUS0972010000109443862009         MORRIS WEINMAN COMPA7 W CHESAPEAKE AVE                      000N        CARE OF             
MTR09720100001000000000000000RA              14914846    001500410000004100000310000003NN  NNW 000                       N    
RDG09720100WATRL000000005K00000000000006202004011022015132049N000000000000N93       000050500K 10000000010000006105           
CUS0972010000109443858007         MORRIS WEINMAN COMPA7 W CHESAPEAKE AVE                      000N        CARE OF             
MTR09720100001000000000000000RA              8051979     000400420000004200000410000003NN  NNW 000   FIRE SERVICE        N    
RDG09720100WATRL000000006K00000000000000005004111022015132053N000000000000N93       000040600K 10000000010000000005           
CUS0972010000109123718000         TOWSON ROW, LLC     309 WASHINGTON AVE                      000N        CARE OF             
MTR09720100001000000000000000RA              31588482    000200430000004300000520000003NY  NNW 000                       N    
MTM0972010031588482    not reg occ                                                                                            
RDG09720100WATRL000000005K00000000000010100004211022015132107N000000000000N93       000140500K 10000000010000010100           
CUS0972010000109123719008         401 ASSOCIATES LLC  401 WASHINGTON AVE                      000N        CARE OF             
MTR09720100001000000000000000RA              10803550    000300440000004400000640000003NN  NNW 000                       N    
RDG09720100WATRL000000005K00000000000014677004311022015132130N000000000000N93       000230500K 10000000010000013954           
CUS0972010000109123715006         TOWSON COMMONS, LLC 40 W CHESAPEAKE AVE                     000N        CARE OF             
MTR09720100001000000000000000RA              1451695     000300450000004500000490000003NN  NNW 000                       N    
RDG09720100WATRL000000005K00000000000002037004411022015132134N000000000000N93       000040500K 10000000010000001994           
CUS0972010000109123714009         TOWSON COMMONS LLC  40 W CHESAPEAKE AVE                     000N        CARE OF             
MTR09720100001000000000000000RA              E9986       000600460000004600000430000003NN  NNW 000   FIRE SERVICE        N    
RDG09720100WATRL000000006K00000000000000000004511022015132138N000000000000N93       000040600K 10000000010000000000           
CUS0972010000109427375002         AMERICAN LEGION     125 YORK RD                             000N        CARE OF             
MTR09720100002000000000000000RA              70048340    000600470000004700000560000003NY  NNW 000                       N    
MTM0972010070048340    const                                                                                                  
RDG09720100WATAL000000006K00000000000000000000000000000000000 000000000000U         000000600  10000000010000000028           
RDG09720100WATBL000000006K00000000000000000000000000000000000 000000000000U         000000600  10000000010000003198           
CUS0972010000109368795002         CHESAPEAKE & YORK LL321 YORK RD                             000N        CARE OF             
MTR09720100001000000000000000RA              36699724    000100480000004800000520000003NN  NNW 000                       N    
RDG09720100WATRL000000004K00000000000009210004611022015132147N000000000000N93       000090400K 10000000010000009174           
CUS0972010000109368794005         CHESAPEAKE & YORK LL321 YORK RD                             000N        CARE OF             
MTR09720100001000000000000000RA              E13209      000400490000004900000430000003NN  NNW 000   FIRE SERVICE        N    
RDG09720100WATRL000000006K00000000000000000004711022015132150N000000000000N93       000030600K 10000000010000000000           
CUS0972010000109405403008         TOWSON COMMONS LLC  1 W PENNSYLVANIA AVE                    000N        CARE OF             
MTR09720100001000000000000000RA              1241577     000400500000005000000490000003NN  NNW 000                       N    
RDG09720100WATRL000000006K00000000000000000000511032015110659S001000000000U93       000570600K 10000000010000051989           
CUS0972010000109405401002         TOWSON COMMONS LLC  1 W PENNSYLVANIA AVE                    000N        CARE OF             
MTR09720100001000000000000000RA              8027105     000800510000005100000340000003NN  NNW 000   FIRE SERVICE        N    
RDG09720100WATRL000000006K00000000000004137004811022015132200N000000000000N93       000100600K 10000000010000003865           
CUS0972010000109409296002         PENNSYLVANIA AVENUE 16 W PENNSYLVANIA AVE                   000N        CARE OF             
MTR09720100001000000000000000RA              01101629    005800520000005200000610000003NN  NNW 000                       N    
RDG09720100WATRL000000004K00000000000005429004911022015132207N000000000000N93       000070400K 10000000010000004809           
CUS0972010000109409294007         PENNSYLVANIA AVENUE 16 W PENNSYLVANIA AVE                   000N        CARE OF             
MTR09720100001000000000000000RA              8030405     000400530000005300000380000003NN  NNW 000   FIRE SERVICE        N    
RDG09720100WATRL000000006K00000000000000000005011022015132210N000000000000N93       000030600K 10000000010000000000           
CUS0972010000109385248001         TOWSON 17 LLC       17 W PENNSYLVANIA AVE                   000N        CARE OF             
MTR09720100001000000000000000RA              35101230    001500540000005400000520000003NN  NNW 000                       N    
RDG09720100WATRL000000005K00000000000048418005111022015132215N000000000000N93       000050500K 10000000010000048345           
CUS0972010000109385247003         TOWSON 17 LLC       17 W PENNSYLVANIA AVE                   000N        CARE OF             
MTR09720100001000000000000000RA              E18638      000800550000005500000430000003NN  NNW 000   FIRE SERVICE        N    
RDG09720100WATRL000000006K00000000000000012005211022015132219N000000000000N93       000040600K 10000000010000000012           
CUS0972010000109446724008         BIELSKI LLC         19 W PENNSYLVANIA AVE                   000N        CARE OF             
MTR09720100001000000000000000RA              90000372    000200560000005600000570000000NN  NNW 000                       N    
RDG09720100WATRL000000005K00000000000004415005311022015132223N000000000000N93       000040500K 10000000010000004110           
CUS0972010000109446725005         BIELSKI LLC         19 W PENNSYLVANIA AVE                   000N        CARE OF             
MTR09720100001000000000000000RA              0005808     000400570000005700000570000000NN  NNW 000   FIRE SERVICE        N    
RDG09720100WATRL000000006K00000000000000000005411022015132226N000000000000N93       000030600K 10000000010000000000           
CUS0972010000109123725005         22 PENNSYLVANIA LLC 22 W PENNSYLVANIA AVE                   000N        CARE OF             
MTR09720100001000000000000000RA              01105824    000200580000005800000610000003NN  NNW 000                       N    
RDG09720100WATRL000000005K00000000000012956005511022015132244N000400000010N93       000180500K 10000000010000012785           
CUS0972010000109123724008         22 PENNSYLVANIA LLC 22 W PENNSYLVANIA AVE                   000N        CARE OF             
MTR09720100001000000000000000RA              1721643     000600590000005900000410000003NN  NNW 000   FIRE SERVICE        N    
RDG09720100WATRL000000006K00000000000000007005611022015132249N000000000000N93       000050600K 10000000010000000007           
CUS0972010000109447560005         ADOLPH FRANCES      28 W PENNSYLVANIA AVE                   000N        CARE OF             
MTR09720100001000000000000000RA              10023511    005800600000006000000570000003NN  NNW 000                       N    
RDG09720100WATRL000000004K00000000000000386005711022015132253N000000000000N93       000040400K 10000000010000000326           
CUS0972010000109447561003         ADOLPH FRANCES      28 W PENNSYLVANIA AVE                   000N        CARE OF             
MTR09720100001000000000000000RA              0006817     000400610000006100000570000003NN  NNW 000   FIRE SERVICE        N    
RDG09720100WATRL000000006K00000000000000000005811022015132257N000000000000N93       000040600K 10000000010000000000           
CUS0972010000109351879003         32 WEST PENN LLC    32 W PENNSYLVANIA AVE                   000N        CARE OF             
MTR09720100001000000000000000RA              01104944    001500620000006200000610000003NN  NNW 000                       N    
RDG09720100WATRL000000005K00000000000000851005911022015132301N000000000000N93       000040500K 10000000010000000838           
CUS0972010000109351878005         32 WEST PENN LLC    32 W PENNSYLVANIA AVE                   000N        CARE OF             
MTR09720100001000000000000000RA              5976795     000600630000006300000410000003NN  NNW 000   FIRE SERVICE        N    
RDG09720100WATRL000000006K00000000000000009006011022015132307N000000000000N93       000060600K 10000000010000000009           
CUS0972010000109123728009         102 W PA AVE LLC    102 W PENNSYLVANIA AVE                  000N        CARE OF             
MTR09720100001000000000000000RA              35101375    000200640000006400000520000003NN  NNW 000                       N    
RDG09720100WATRL000000005K00000000000030940006111022015132312N000000000000N93       000050500K 10000000010000030791           
CUS0972010000109123727001         102 W PENNSYLVANIA A102 W PENNSYLVANIA AVE                  000N        CARE OF             
MTR09720100001000000000000000RA              4542087     000400650000006500000410000003NN  NNW 000   FIRE SERVICE        N    
RDG09720100WATRL000000006K00000000000000002006211022015132315N000000000000N93       000030600K 10000000010000000002           
CUS0972010000109123732001         BALTIMORE COUNTY MARSS PENNSYLVANIA AVE                     000N        CARE OF             
MTR09720100001000000000000000RA              10806446    000400660000006600000460000003NN  NNW 000                       N    
RDG09720100WATRL000000006K00000000000009071006311022015132326N000000000000N93       000110600K 10000000010000008297           
CUS0972010000109123731003         BALTIMORE COUNTY MARSS PENNSYLVANIA AVE                     000N        CARE OF             
MTR09720100001000000000000000RA              3550319     000600670000006700000410000003NN  NNW 000   FIRE SERVICE        N    
RDG09720100WATRL000000006K00000000000000001006411022015132329N000000000000N93       000030600K 10000000010000000001           
CUS0972010000109381106005         H ADAMS LTD PARTNERS600 BALTIMORE AVE                       000N        CARE OF             
MTR09720100002000000000000000RA              7102410     000600680000006800000480000003NN  NNW 000                       N    
RDG09720100WATAL000000006K00000000000000001006511022015132528N000100000021N93       001110600K 10000000010000000001           
RDG09720100WATBL000000006K00000000000006547006611022015132535N000400000010N93       000070600K 10000000010000006414           
CUS0972010000109385463006         TABALD LTD PART     604-06 BALTIMORE AVE                    000N        CARE OF             
MTR09720100001000000000000000RA              35109369    001500690000006900000520000003NN  NNW 000                       N    
RDG09720100WATRL000000005K00000000000014155006711022015132806N000000000000N93       001510500K 10000000010000014061           
CUS0972010000109385462008         TABALD LTD PART     604-06 BALTIMORE AVE                    000N        CARE OF             
MTR09720100001000000000000000RA              E18675      000800700000007000000430000003NN  NNW 000   FIRE SERVICE        N    
RDG09720100WATRL000000006K00000000000000087006811022015132922N000000000000N93       000760600K 10000000010000000087           
CUS0972010000109426311008         BALTIMORE COUNTY REV108 WARE AVE                            000N        CARE OF             
MTR09720100001000000000000000RA              8042263     000600710000007100000380000003NN  NNW 000   FIRE SERVICE        N    
RDG09720100WATRL000000006K00000000000000001006911022015132925N000000000000N93       000030600K 10000000010000000001           
CUS0972010000109426313004         BALTIMORE COUNTY REV108 WARE AVE                            000N        CARE OF             
MTR09720100001000000000000000RA              52768767    005800720000007200000520000003NN  NNW 000                       N    
RDG09720100WATRL000000004K00000000000002774007011022015132932N000000000000N93       000070400K 10000000010000002655           
CUS0972010000109123723000         ARCHBISHOP OF BALTIM200 WARE AVE                            000N        CARE OF             
MTR09720100001000000000000000RA              01105629    000200730000007300000610000003NN  NNW 000                       N    
RDG09720100WATRL000000005K00000000000011437007111022015133024N000000000000N93       000520500K 10000000010000010921           
CUS0972010000109123722002         ARCHBISHOP OF BALTIM200 WARE AVE                            000N        CARE OF             
MTR09720100002000000000000000RA              40000009    000400740000007400000460000003NN  NNW 000                       N    
RDG09720100WATAL000000006K00000000000002212007211022015133033N000400000010N93       000090600K 10000000010000002044           
RDG09720100WATBL000000006K00000000000001093007311022015133041N000400000010N93       000080600K 10000000010000001075           
CUS0972010000109435749008         ARCHBISHOP OF BALTIM200 WARE AVE                            000N        CARE OF             
MTR09720100001000000000000000RA              8048241     000800750000007500000380000000NY  NNW 000   FIRE SERVICE        N    
MTM097201008048241     cl                                                                                                     
RDG09720100WATRL000000006K00000000000000000000000000000000000 000000000000U         000000600  10000000010000000001           
CUS0972010000109444196001         FOSTER REALTY LLC   31 ALLEGHENY AVE                        000N        CARE OF             
MTR09720100001000000000000000RA              14914855    001500760000007600000310000000NN  NNW 000                       N    
RDG09720100WATRL000000005K00000000000004186007411022015133050N000000000000N93       000090500K 10000000010000004079           
CUS0972010000109444197009         FOSTER REALTY LLC   31 ALLEGHENY AVE                        000N        CARE OF             
MTR09720100001000000000000000RA              99999999    000400770000007700000440000000NN  NNW 000   FIRE SERVICE        N    
RDG09720100WATRL000000006K00000000000000000007511022015133109N000000000000N93       000190600K 10000000010000000000           
CUS0972010000109435751004         ARCHBISHOP OF BALTIM200 WARE AVE                            000N        CARE OF             
MTR09720100001000000000000000RA              01104192    005800780000007800000610000000NY  NNW 000                       N    
MTM0972010001104192    cl                                                                                                     
RDG09720100WATRL000000004K00000000000000000000000000000000000 000000000000U         000000400  10000000010000000528           
CUS0972010000109391802007         WOOD ARTHUR F       22 ALLEGHENY AVE                        000N        CARE OF             
MTR09720100001000000000000000RA              37690950    000100790000007900000520000003NN  NNW 000                       N    
RDG09720100WATRL000000004K00000000000003915007611022015133119N000000000000N93       000100400K 10000000010000003825           
CUS0972010000109391800001         WOOD ARTHUR F       22 ALLEGHENY AVE                        000N        CARE OF             
MTR09720100001000000000000000RA              E23082      000600800000008000000430000003NN  NNW 000   FIRE SERVICE        N    
RDG09720100WATRL000000006K00000000000000000007711022015133123N000000000000N93       000040600K 10000000010000000000           
CUS0972010000109123738008         BARNEY D PRICE      28 ALLEGHENY AVE                        000N        CARE OF             
MTR09720100002000000000000000RA              5492085     000600810000008100000540000003NY  NNW 000                       N    
MTM097201005492085     read ok 4 fig read                                                                                     
RDG09720100WATAL000000006K00000000000000066007811022015133129N000100000010N93       000060600K 10000000010000000066           
RDG09720100WATBL000000006K00000000000005511007911022015133138N000300000010N93       000090600K 10000000010000043049           
CUS0972010000109397075004         TBC-TOWSON LLC      600 WASHINGTON AVE                      000N        CARE OF             
MTR09720100001000000000000000RA              01105823    000200820000008200000610000003NN  NNW 000                       N    
RDG09720100WATRL000000005K00000000000018440008011022015133213N000000000000N93       000350500K 10000000010000018112           
CUS0972010000109397080004         TBC-TOWSON LLC      600 WASHINGTON AVE                      000N        CARE OF             
MTR09720100001000000000000000RA              E22888      000600830000008300000430000003NN  NNW 000   FIRE SERVICE        N    
RDG09720100WATRL000000006K00000000000000000008111022015133215N000000000000N93       000020600K 10000000010000000000           
CUS0972010000109378947007         502 WASHINGTON AVE L502 WASHINGTON AVE                      000N        CARE OF             
MTR09720100001000000000000000RA              9208107     000300840000008400000640000003NN  NNW 000                       N    
RDG09720100WATRL000000005K00000000000017423008311022015133258N000000000000N93       000370500K 10000000010000016657           
CUS0972010000109378946009         502 WASHINGTON AVE L502 WASHINGTON AVE                      000N        CARE OF             
MTR09720100001000000000000000RA              E18464      000600850000008500000430000003NN  NNW 000   FIRE SERVICE        N    
RDG09720100WATRL000000006K00000000000000000000611032015110800N000000000000U93       000610600K 10000000010000000000           
CUS0972010000109123737000         111 ALLEGHENY AVE LL111 ALLEGHENY AVE                       000N        CARE OF             
MTR09720100001000000000000000RA              41091107    001500860000008600000520000003NN  NNW 000                       N    
RDG09720100WATRL000000005K00000000000005920000711032015110816N000000000000U93       000160500K 10000000010000005869           
CUS0972010000109123736002         111 ALLEGHENY AVE. L111 ALLEGHENY AVE                       000N        CARE OF             
MTR09720100001000000000000000RA              4918918     000400870000008700000410000003NN  NNW 000   FIRE SERVICE        N    
RDG09720100WATRL000000006K00000000000000022000811032015110820N000000000000U93       000040600K 10000000010000000022           
CUS0972010000109432129006         TRUSTEE OF TRINITY P120 ALLEGHENY AVE                       000N        CARE OF             
MTR09720100001000000000000000RA              8045956     000400880000008800000380000003NN  NNW 000   FIRE SERVICE        N    
RDG09720100WATRL000000006K00000000000000000000911032015110823N000000000000U93       000030600K 10000000010000000000           
CUS0972010000109123735004         KCS TOWSON LLC      210 ALLEGHENY AVE                       000N        CARE OF             
MTR09720100001000000000000000RA              99170741    001500890000008900000570000003NN  NNW 000                       N    
RDG09720100WATRL000000005K00000000000005390001011032015110829N000000000010U93       000060500K 10000000010000005389           
CUS0972010000109123734007         KCS TOWSON LLC      210 ALLEGHENY AVE                       000N        CARE OF             
MTR09720100002000000000000000RA              5702366     000400900000009000000480000003NN  NNW 000   FIRE SERVICE        N    
RDG09720100WATAL000000006K00000000000000001001111032015110832N000000000000U93       000030600K 10000000010000000001           
RDG09720100WATBL000000006K00000000000000000001211032015110837N000100000010U93       000050600K 10000000010000000000           
CUS0972010000109401532008         BALTIMORE COUNTY MAR308 ALLEGHENY AVE                       000N        CARE OF             
MTR09720100001000000000000000RA              00066903    001500910000009100000570000003NN  NNW 000                       N    
RDG09720100WATRL000000005K00000000000002384001311032015110840N000000000000U93       000030500K 10000000010000002340           
CUS0972010000109401530002         BALTIMORE COUNTY MAR308 ALLEGHENY AVE                       000N        CARE OF             
MTR09720100001000000000000000RA              7235127     000600920000009200000340000003NN  NNW 000   FIRE SERVICE        N    
RDG09720100WATRL000000006K00000000000000004001411032015110843N000000000000U93       000030600K 10000000010000000004           
CUS0972010000109377429007         BALTIMORE COUNTY MAR611 CENTRAL AVE                         000N        CARE OF             
MTR09720100001000000000000000RA              22491755    000200930000009300000490000003NY  NNW 000                       N    
MTM0972010022491755    sod                                                                                                    
RDG09720100WATRL000000005K00000000000000000000000000000000000 000000000000U         000000500  10000000010000010653           
CUS0972010000109377428009         BALTIMORE COUNTY MAR611 CENTRAL AVE                         000N        CARE OF             
MTR09720100001000000000000000RA              1701247     000600940000009400000410000003NY  NNW 000   FIRE SERVICE        N    
MTM097201001701247     sod                                                                                                    
RDG09720100WATRL000000006K00000000000000000000000000000000000 000000000000U         000000600  10000000010000000886           
CUS0972010000109433260008         BALTIMORE COUNTY MAR400 KENILWORTH DR                       000N        CARE OF             
MTR09720100003000000000000000RA              0203841     000800950000009500000630000003NY  NNW 000                       N    
MTM097201000203841     no holes                                                                                               
RDG09720100WATAL000000006K00000000000000000000000000000000000 000000000000U         000000600  10000000010000000000           
RDG09720100WATBL000000006K00000000000000000000000000000000000 000000000000U         000000600  10000000010000000000           
RDG09720100WATCL000000000K00000000000000000000000000000000000 000000000000U         000001000  10000000010000000000           
CUS0972010000109352907001         BALTIMORE COUNTY MAR404 KENILWORTH DR                       000N        CARE OF             
MTR09720100002000000000000000RA              6029517     000800960000009600000540000003NY  NNW 000                       N    
MTM097201006029517     no access                                                                                              
RDG09720100WATAL000000006K00000000000000000000000000000000000 000000000000U         000000600  10000000010000000024           
RDG09720100WATBL000000006K00000000000000000000000000000000000 000000000000U         000000600  10000000010000139922           
CUS0972010000109443837001         TOWSON PROMENADE LLC707 YORK RD                             000N        CARE OF             
MTR09720100001000000000000000RA              0811919     000800970000009700000390000000NN  NNW 000                       N    
RDG09720100WATRL000000006K00000000000000119001511032015110939N000100000010U93       000560600K 10000000010000000119           
CUS0972010000109429266001         ELLIS FINKELSTEIN IN406-10 YORK RD                          000N        CARE OF             
MTR09720100001000000000000000RA              8044826     000600980000009800000380000000NY  NNW 000   FIRE SERVICE        N    
MTM097201008044826     gate locked                                                                                            
RDG09720100WATRL000000006K00000000000000000000000000000000000 000000000000U         000000600  10000000010000000004           
CUS0972010000109123740004         BALTIMORE COUNTY MAR725 BOSLEY AVE                          000N        CARE OF             
MTR09720100002000000000000000RA              3187498     000800990000009900000630000003NY  NNW 000                       N    
MTM097201003187498     gate locked                                                                                            
RDG09720100WATAL000000006K00000000000000000000000000000000000 000000000000U         000000600  10000000010000000000           
RDG09720100WATBL000000006K00000000000000000000000000000000000 000000000000U         000000600  10000000010000003457           
CUS0972010000109433687002         MARSDEN CHEVROLET IN725 YORK RD                             000N        CARE OF             
MTR09720100001000000000000000RA              99387174    005801000000010000000570000000NN  NNW 000                       N    
RDG09720100WATRL000000004K00000000000000000001611032015111032N000000000000U93       000530400K 10000000010000000000           
CUS0972010000109433688000         MARSDEN CHEVROLET IN725 YORK RD                             000N        CARE OF             
MTR09720100001000000000000000RA              8047234     000601010000010100000380000000NN  NNW 000   FIRE SERVICE        N    
RDG09720100WATRL000000006K00000000000000000001711032015111034N000000000000U93       000020600K 10000000010000000000           
CUS0972010000109426413002         718 YORK ROAD LLC   718 YORK RD                             000N        CARE OF             
MTR09720100001000000000000000RA              8037614     000401020000010200000380000003NN  NNW 000   FIRE SERVICE        N    
RDG09720100WATRL000000006K00000000000000000001811032015111046N000000000000U93       000120600K 10000000010000000000           
CUS0972010000109426415007         718 YORK ROAD LLC   718 YORK RD                             000N        CARE OF             
MTR09720100001000000000000000RA              54353378    000101030000010300000520000003NN  NNW 000                       N    
RDG09720100WATRL000000004K00000000000001540001911032015111051N000000000000U93       000050400K 10000000010000001069           
CUS0972010000109443179008         TOWSON PROMENADE LLC707 YORK RD                             000N        CARE OF             
MTR09720100001000000000000000RA              8052525     000801040000010400000410000000NN  NNW 000   FIRE SERVICE        N    
RDG09720100WATRL000000006K00000000000000143002011032015111058N000300000010U93       000070600K 10000000010000000138           
CUS0972010000109443181004         TOWSON PROMENADE LLC707 YORK RD                             000N        CARE OF             
MTR09720100001000000000000000RA              78365747    000301050000010500000000000000NN  NNW 000                       N    
RDG09720100WATRL000000005K00000000000000000002111032015111101S001000000000U93       000030500K 10000000010000000000           
CUS0972010000109445333009         BOARD OF ED OF BALT 938 YORK RD                             000N        CARE OF             
MTR09720100001000000000000000RA              0901832     000801060000010600000390000000NY  NNW 000                       N    
MTM097201000901832     2 dial meter 000161               24807                                                                
RDG09720100WATRL000000006K00000000000024807002211032015111134N000000000000U93       000330600K 10000000010000023700           
CUS0972010000109446136005         MICHEL J ERTEL      937-39 YORK RD                          000N        CARE OF             
MTR09720100001000000000000000RA              14914968    001501070000010700000310000000NN  NNW 000                       N    
RDG09720100WATRL000000005K00000000000000346002311032015111138N000000000000U93       000040500K 10000000010000000334           
CUS0972010000109446134000         MICHEL J ERTEL      937-39 YORK RD                          000N        CARE OF             
MTR09720100001000000000000000RA              99999999    000601080000010800000440000000NN  NNW 000   FIRE SERVICE        N    
RDG09720100WATRL000000006K00000000000000000002411032015111141N000000000000U93       000030600K 10000000010000000000           
CUS0972010000109434596004         CAR MI MD YORK L L C801 YORK RD                             000N        CARE OF             
MTR09720100001000000000000000RA              8047532     000601090000010900000380000003NN  NNW 000   FIRE SERVICE        N    
RDG09720100WATRL000000006K00000000000000000002511032015111143N000000000000U93       000020600K 10000000010000000000           
CUS0972010000109123741002         YONG KYU PARK       901 YORK RD                             000N        CARE OF             
MTR09720100001000000000000000RA              35112660    000201100000011000000520000003NN  NNW 000                       N    
RDG09720100WATRL000000005K00000000000017867002611032015111147N000000000000U93       000040500K 10000000010000017766           
CUS0972010000109446924004         937 YORK RD LLC     937-39 YORK RD                          000N        CARE OF             
MTR09720100001000000000000000RA              50000206    000101110000011100000570000003NN  NNW 000                       N    
RDG09720100WATRL000000004K00000000000000047002711032015111151N000000000000U93       000040400K 10000000010000000047           
CUS0972010000109374445006         LAUREL OAKS PARTNERS908-20 YORK RD                          000N        CARE OF             
MTR09720100001000000000000000RA              31938254    001501120000011200000520000003NN  NNW 000                       N    
RDG09720100WATRL000000005K00000000000010276002811032015111156N000000000000U93       000050500K 10000000010000010247           
CUS0972010000109374444009         LAUREL OAKS PARTNERS908-20 YORK RD                          000N        CARE OF             
MTR09720100001000000000000000RA              3557        000601130000011300000440000003NN  NNW 000   FIRE SERVICE        N    
RDG09720100WATRL000000006K00000000000009999002911032015111200N000000000000U93       000040600K 10000000010000009999           
CUS0972010000109123742000         CVS-#02216-02       1001 YORK RD                            000N        CARE OF             
MTR09720100001000000000000000RA              42877016    000201140000011400000520000003NY  NNW 000                       N    
MTM0972010042877016    read ok                                                                                                
RDG09720100WATRL000000005K00000000000007472003011032015111208N000300000010U93       000080500K 10000000010000008290           
CUS0972010000109414911009         KIMCO REALTY CORP   1015 YORK RD                            000N        CARE OF             
MTR09720100002000000000000000RA              7163021     000601150000011500000630000000NN  NNW 000                       N    
RDG09720100WATAL000000006K00000000000000001003111032015111226N000100000010U93       000180600K 10000000010000000001           
RDG09720100WATBL000000006K00000000000008270003211032015111233N000400000010U93       000070600K 10000000010000007755           
CUS0972010000109348743007         STATE OF MD MILITARY1035 YORK RD                            000N        CARE OF             
MTR09720100001000000000000000RA              01117312    000201160000011600000610000003NN  NNW 000                       N    
RDG09720100WATRL000000005K00000000000007790003311032015111236N000000000000U93       000030500K 10000000010000007748           
CUS0972010000109348742009         STATE OF MD MILITARY1035 YORK RD                            000N        CARE OF             
MTR09720100001000000000000000RA              5976796     000601170000011700000410000003NN  NNW 000   FIRE SERVICE        N    
RDG09720100WATRL000000006K00000000000000101003411032015111240N000000000000U93       000040600K 10000000010000000101           
CUS0972010000109440933001         1209 YORK RD PARTNSH1209 YORK RD                            000N        CARE OF             
MTR09720100002000000000000000RA              0207829     000801180000011800000630000000NN  NNW 000                       N    
RDG09720100WATAL000000006K00000000000000001003511032015111244N000100000010U93       000040600K 10000000010000000001           
RDG09720100WATBL000000006K00000000000002461003611032015111251N000400000010U93       000070600K 10000000010000002371           
CUS0972010000109386861000         SEBCO FED CREDIT UNI1215 YORK RD                            000N        CARE OF             
MTR09720100001000000000000000RA              35116743    001501190000011900000520000003NN  NNW 000                       N    
RDG09720100WATRL000000005K00000000000017910003711032015111300N000400000010U93       000090500K 10000000010000017828           
