FHDNNNN035008241008241008241N                                                                                           028444
RHD08562900NN01940194000001940000000001940194000174NY019401940194000400000000000000000000000002    11032015NY020000 N         
CUS0856290000108025491005         TAMIRAT-ASSEFA ASNAK1402 PLEASANT VALLEY DR                 000N        CARE OF             
MTR08562900001000000000000000RA              76348426    005800010000000100000350000003NN  NNW 000                       N    
RDG08562900WATRL000000004K00000000000000212004011232015142629O000000000010N80       000420400K 10000000010000000194           
CUS0856290000108025492003         DEADY THOMASENA     1400 PLEASANT VALLEY DR                 000N        CARE OF             
MTR08562900001000000000000000RA              21194272    005800020000000200000520000003NN  NNW 000                       N    
RDG08562900WATRL000000004K00000000000004269003911042015102409N000000000000N40       001850400K 10000000010000004247           
CUS0856290000108025493001         GILL MATTHEW        6445 CLIFTON FORGE CIR                  000N        CARE OF             
MTR08562900001000000000000000RA              48591925    005800030000000300000520000003NN  NNW 000                       N    
RDG08562900WATRL000000004K00000000000002085012411042015121247N000000000000N40       001060400K 10000000010000002061           
CUS0856290000108025494009         GRUBE WAYNE LOUIS,SR6443 CLIFTON FORGE CIR                  000N        CARE OF             
MTR08562900001000000000000000RA              10004356    005800040000000400000570000003NN  NNW 000                       N    
RDG08562900WATRL000000004K00000000000000908012511042015121355N000000000000N40       000680400K 10000000010000000890           
CUS0856290000108025495006         GREGORY K BETZ      6441 CLIFTON FORGE CIR                  000N        CARE OF             
MTR08562900001000000000000000RA              11337735    005800050000000500000570000003NN  NNW 000                       N    
RDG08562900WATRL000000004K00000000000005706016911042015123612N000000000000N40       000060400K 10000000010000005701           
CUS0856290000108025496004         ESSERWEIN PHILIP A  6439 CLIFTON FORGE CIR                  000N        CARE OF             
MTR08562900001000000000000000RA              11337653    005800060000000600000570000003NN  NNW 000                       N    
RDG08562900WATRL000000004K00000000000007253016811042015123606N000000000000N40       000050400K 10000000010000007236           
CUS0856290000108025497002         REINHARD RICHARD J  6437 CLIFTON FORGE CIR                  000N        CARE OF             
MTR08562900001000000000000000RA              11337736    005800070000000700000570000003NN  NNW 000                       N    
RDG08562900WATRL000000004K00000000000000268016711232015142705O000400000010N80       000080400K 10000000010000000258           
CUS0856290000108025498000         LOCKIE RICHARD THOMA6435 CLIFTON FORGE CIR                  000N        CARE OF             
MTR08562900001000000000000000RA              11337707    005800080000000800000570000003NN  NNW 000                       N    
RDG08562900WATRL000000004K00000000000005470016611042015123553N000000000000N40       000060400K 10000000010000005438           
CUS0856290000108025499008         SHERMAN / DARRYL CAL6433 CLIFTON FORGE CIR                  000N        CARE OF             
MTR08562900001000000000000000RA              11337651    005800090000000900000570000003NN  NNW 000                       N    
RDG08562900WATRL000000004K00000000000006501016511042015123547N000000000000N40       000070400K 10000000010000006493           
CUS0856290000108025500003         HOPKINS VANESSA A   6431 CLIFTON FORGE CIR                  000N        CARE OF             
MTR08562900001000000000000000RA              11337737    005800100000001000000570000003NN  NNW 000                       N    
RDG08562900WATRL000000004K00000000000008651016411042015123540N000000000000N40       000050400K 10000000010000008625           
CUS0856290000108025501001         WILKINS HARU D      6429 CLIFTON FORGE CIR                  000N        CARE OF             
MTR08562900001000000000000000RA              01083853    005800110000001100000610000003NN  NNW 000                       N    
RDG08562900WATRL000000004K00000000000001074016311042015123535N000000000000N40       000050400K 10000000010000001054           
CUS0856290000108025502009         HELFRITCH DENNIS JOH6427 CLIFTON FORGE CIR                  000N        CARE OF             
MTR08562900001000000000000000RA              01084028    005800120000001200000610000003NN  NNW 000                       N    
RDG08562900WATRL000000004K00000000000001196016211042015123530N000000000000N40       000050400K 10000000010000001159           
CUS0856290000108025503007         HOFFMAN J HANSEN    6425 CLIFTON FORGE CIR                  000N        CARE OF             
MTR08562900001000000000000000RA              14916274    005800130000001300000310000003NN  NNW 000                       N    
RDG08562900WATRL000000004K00000000000000531016111042015123525N000000000000N40       000090400K 10000000010000000522           
CUS0856290000108025504005         MOORE FRANK         6423 CLIFTON FORGE CIR                  000N        CARE OF             
MTR08562900001000000000000000RA              11337732    005800140000001400000570000003NN  NNW 000                       N    
RDG08562900WATRL000000004K00000000000004102016011042015123516N000000000000N40       000410400K 10000000010000004091           
CUS0856290000108025505002         DANTZLER VICTOR     6421 CLIFTON FORGE CIR                  000N        CARE OF             
MTR08562900001000000000000000RA              11337648    005800150000001500000570000003NN  NNW 000                       N    
RDG08562900WATRL000000004K00000000000005561015911042015123435N000000000000N40       000440400K 10000000010000005541           
CUS0856290000108025506000         BOWEN EDWARD I      4 STUART MILLS PL                       000N        CARE OF             
MTR08562900001000000000000000RA              01078887    005800160000001600000610000003NN  NNW 000                       N    
RDG08562900WATRL000000004K00000000000001196017011042015123705N000000000000N40       000530400K 10000000010000001173           
CUS0856290000108025507008         MERRITT GLORIA T    6 STUART MILLS PL                       000N        CARE OF             
MTR08562900001000000000000000RA              14920359    005800170000001700000310000003NN  NNW 000                       N    
RDG08562900WATRL000000004K00000000000000871017111042015123721N000000000000N40       000160400K 10000000010000000854           
CUS0856290000108025508006         KHALIK MOHAMMED     8 STUART MILLS PL                       000N        CARE OF             
MTR08562900001000000000000000RA              46878485    005800180000001800000520000003NN  NNW 000                       N    
RDG08562900WATRL000000004K00000000000003625017211042015123725N000000000000N40       000040400K 10000000010000003614           
CUS0856290000108025509004         CHEUNG HA SHUI      10 STUART MILLS PL                      000N        CARE OF             
MTR08562900001000000000000000RA              01078886    005800190000001900000610000003NN  NNW 000                       N    
RDG08562900WATRL000000004K00000000000001332017311042015123730N000000000000N40       000050400K 10000000010000001310           
CUS0856290000108025510002         KAPLUNOVICH DORA    12 STUART MILLS PL                      000N        CARE OF             
MTR08562900001000000000000000RA              26010045    005800200000002000000520000003NN  NNW 000                       N    
RDG08562900WATRL000000004K00000000000005355017411042015123734N000000000000N40       000040400K 10000000010000005335           
CUS0856290000108025511000         LITTLE SHEILA       14 STUART MILLS PL                      000N        CARE OF             
MTR08562900001000000000000000RA              99189428    005800210000002100000570000003NN  NNW 000                       N    
RDG08562900WATRL000000004K00000000000000194017511042015123741N000000000010N40       000070400K 10000000010000000193           
CUS0856290000108025512008         BLITZ ALVIN MICHAEL 16 STUART MILLS PL                      000N        CARE OF             
MTR08562900001000000000000000RA              01080989    005800220000002200000610000003NN  NNW 000                       N    
RDG08562900WATRL000000004K00000000000000834017611042015123745N000000000000N40       000040400K 10000000010000000819           
CUS0856290000108025513006         PHILLAR, LLC        18 STUART MILLS PL                      000N        CARE OF             
MTR08562900001000000000000000RA              00139906    005800230000002300000570000003NN  NNW 000                       N    
RDG08562900WATRL000000004K00000000000000912017711042015123750N000000000000N40       000050400K 10000000010000000896           
CUS0856290000108025514004         ALLEN MERVIN        20 STUART MILLS PL                      000N        CARE OF             
MTR08562900001000000000000000RA              10000158    005800240000002400000570000003NN  NNW 000                       N    
RDG08562900WATRL000000004K00000000000000616017811042015123754N000000000000N40       000040400K 10000000010000000602           
CUS0856290000108025515001         BURS LEE C,JR       22 STUART MILLS PL                      000N        CARE OF             
MTR08562900001000000000000000RA              11471234    005800250000002500000570000003NN  NNW 000                       N    
RDG08562900WATRL000000004K00000000000005457017911042015123800N000000000000N40       000060400K 10000000010000005445           
CUS0856290000108025516009         BLACK EDWINA E      24 STUART MILLS PL                      000N        CARE OF             
MTR08562900001000000000000000RA              11471438    005800260000002600000570000003NN  NNW 000                       N    
RDG08562900WATRL000000004K00000000000003565018011042015123804N000000000000N40       000040400K 10000000010000003559           
CUS0856290000108025517007         HOLMES REBECCA V    26 STUART MILLS PL                      000N        CARE OF             
MTR08562900001000000000000000RA              00137631    005800270000002700000570000003NY  NNW 000                       N    
MTM0856290000137631    CLEAN OUT                                                                                              
RDG08562900WATRL000000004K00000000000000000000000000000000000 000000000000U         000000400  10000000010000000903           
CUS0856290000108025518005         MOORE CYNTHIA       23 STUART MILLS PL                      000N        CARE OF             
MTR08562900001000000000000000RA              48594210    005800280000002800000520000003NN  NNW 000                       N    
RDG08562900WATRL000000004K00000000000002415018111042015123814N000000000000N40       000100400K 10000000010000002402           
CUS0856290000108025519003         NORRIS HAROLD E     21 STUART MILLS PL                      000N        CARE OF             
MTR08562900001000000000000000RA              11471439    005800290000002900000570000003NN  NNW 000                       N    
RDG08562900WATRL000000004K00000000000006461018211042015123818N000000000000N40       000040400K 10000000010000006446           
CUS0856290000108025520001         TEAL ZONA           19 STUART MILLS PL                      000N        CARE OF             
MTR08562900001000000000000000RA              11471243    005800300000003000000570000003NN  NNW 000                       N    
RDG08562900WATRL000000004K00000000000004146018311042015123823N000000000000N40       000050400K 10000000010000004145           
CUS0856290000108025521009         KING JOHN ARNOLD    17 STUART MILLS PL                      000N        CARE OF             
MTR08562900001000000000000000RA              41590484    005800310000003100000520000003NN  NNW 000                       N    
RDG08562900WATRL000000004K00000000000006544018411042015123828N000000000000N40       000050400K 10000000010000006503           
CUS0856290000108025522007         BACKERT GEORGE H    15 STUART MILLS PL                      000N        CARE OF             
MTR08562900001000000000000000RA              11471235    005800320000003200000570000003NN  NNW 000                       N    
RDG08562900WATRL000000004K00000000000004425018511042015123834N000000000000N40       000060400K 10000000010000004425           
CUS0856290000108025523005         LAURA L OAKS        13 STUART MILLS PL                      000N        CARE OF             
MTR08562900001000000000000000RA              11471537    005800330000003300000570000003NN  NNW 000                       N    
RDG08562900WATRL000000004K00000000000007536018611042015123842N000000000000N40       000080400K 10000000010000007527           
CUS0856290000108025524003         JOHNSON ROSCOE,3RD  11 STUART MILLS PL                      000N        CARE OF             
MTR08562900001000000000000000RA              39923769    005800340000003400000520000003NN  NNW 000                       N    
RDG08562900WATRL000000004K00000000000004955018711042015123846N000000000000N40       000040400K 10000000010000004932           
CUS0856290000108025525000         NEAL JAMES DARRYL   9 STUART MILLS PL                       000N        CARE OF             
MTR08562900001000000000000000RA              48588348    005800350000003500000520000003NN  NNW 000                       N    
RDG08562900WATRL000000004K00000000000001771018811042015123850N000000000000N40       000040400K 10000000010000001754           
CUS0856290000108025526008         GAILUNAS CHARLES P  7 STUART MILLS PL                       000N        CARE OF             
MTR08562900001000000000000000RA              11471346    005800360000003600000570000003NN  NNW 000                       N    
RDG08562900WATRL000000004K00000000000007229018911042015123855N000000000000N40       000050400K 10000000010000007215           
CUS0856290000108025527006         REYMANN STEPHEN E   5 STUART MILLS PL                       000N        CARE OF             
MTR08562900001000000000000000RA              11471396    005800370000003700000570000003NN  NNW 000                       N    
RDG08562900WATRL000000004K00000000000004465019011042015123859N000000000000N40       000040400K 10000000010000004447           
CUS0856290000108025528004         SCHULTHEIS RAYMOND,33 STUART MILLS PL                       000N        CARE OF             
MTR08562900001000000000000000RA              99286002    005800380000003800000570000003NN  NNW 000                       N    
RDG08562900WATRL000000004K00000000000001900019111042015123905N000000000001N40       000060400K 10000000010000001883           
CUS0856290000108025529002         HORAN WILLIAM JOHN  6409 CLIFTON FORGE CIR                  000N        CARE OF             
MTR08562900001000000000000000RA              11337702    005800390000003900000570000003NN  NNW 000                       N    
RDG08562900WATRL000000004K00000000000007286015811042015123351N000000000000N40       000060400K 10000000010000007279           
CUS0856290000108025530000         CHAUDHARY K GILL    6407 CLIFTON FORGE CIR                  000N        CARE OF             
MTR08562900001000000000000000RA              11337734    005800400000004000000570000003NN  NNW 000                       N    
RDG08562900WATRL000000004K00000000000004901015711042015123345N000000000000N40       000080400K 10000000010000004863           
CUS0856290000108025531008         BETTER-DAVIS WANDA P6405 CLIFTON FORGE CIR                  000N        CARE OF             
MTR08562900001000000000000000RA              01078880    005800410000004100000610000003NN  NNW 000                       N    
RDG08562900WATRL000000004K00000000000001720015611232015142725O000400000010N80       000070400K 10000000010000001704           
CUS0856290000108025532006         PHYLLIS E AUBREY    6403 CLIFTON FORGE CIR                  000N        CARE OF             
MTR08562900001000000000000000RA              48591932    005800420000004200000520000003NN  NNW 000                       N    
RDG08562900WATRL000000004K00000000000002217015511042015123330N000000000000N40       000060400K 10000000010000002194           
CUS0856290000108025533004         SHONAIYA ABIODUN B  6401 CLIFTON FORGE CIR                  000N        CARE OF             
MTR08562900001000000000000000RA              27832976    005800430000004300000520000003NN  NNW 000                       N    
RDG08562900WATRL000000004K00000000000003474015411042015123324N000000000000N40       000440400K 10000000010000003450           
CUS0856290000108025534002         PARKS FRANCES       6418 CLIFTON FORGE CIR                  000N        CARE OF             
MTR08562900001000000000000000RA              41590034    005800440000004400000520000003NN  NNW 000                       N    
RDG08562900WATRL000000004K00000000000003914011711042015120511N000000000000N40       000340400K 10000000010000003891           
CUS0856290000108025535009         ZITZER JAMES A,JR   6420 CLIFTON FORGE CIR                  000N        CARE OF             
MTR08562900001000000000000000RA              48594363    005800450000004500000520000003NN  NNW 000                       N    
RDG08562900WATRL000000004K00000000000001817011611042015120437N000000000000N40       000340400K 10000000010000001804           
CUS0856290000108025536007         SINGLETARY DWAYNE R 6422 CLIFTON FORGE CIR                  000N        CARE OF             
MTR08562900001000000000000000RA              11337348    005800460000004600000570000003NN  NNW 000                       N    
RDG08562900WATRL000000004K00000000000006826011511042015120403N000000000000N40       000410400K 10000000010000006813           
CUS0856290000108025537005         RAUNAK ISLAM        6424 CLIFTON FORGE CIR                  000N        CARE OF             
MTR08562900001000000000000000RA              11337333    005800470000004700000570000003NN  NNW 000                       N    
RDG08562900WATRL000000004K00000000000004918011411042015120322N000000000000N40       000370400K 10000000010000004899           
CUS0856290000108025538003         AKHTAR SHAHEEN      6426 CLIFTON FORGE CIR                  000N        CARE OF             
MTR08562900001000000000000000RA              11471486    005800480000004800000570000003NN  NNW 000                       N    
RDG08562900WATRL000000004K00000000000004717011311042015120245N000000000000N40       000390400K 10000000010000004703           
CUS0856290000108025539001         SHORTER MICHAEL J SR6428 CLIFTON FORGE CIR                  000N        CARE OF             
MTR08562900001000000000000000RA              48589569    005800490000004900000520000003NN  NNW 000                       N    
RDG08562900WATRL000000004K00000000000002223011211042015120206N000000000000N40       018010400K 10000000010000002207           
CUS0856290000108025540009         YUTH BOON           6430 CLIFTON FORGE CIR                  000N        CARE OF             
MTR08562900001000000000000000RA              11337336    005800500000005000000570000003NN  NNW 000                       N    
RDG08562900WATRL000000004K00000000000008094011811042015120711N000000000000N40       001200400K 10000000010000008081           
CUS0856290000108025541007         PHILLIP L NIX       6432 CLIFTON FORGE CIR                  000N        CARE OF             
MTR08562900001000000000000000RA              11337335    005800510000005100000570000003NN  NNW 000                       N    
RDG08562900WATRL000000004K00000000000005559011911042015120747N000000000000N40       000360400K 10000000010000005538           
CUS0856290000108025542005         LAWRENCE E PENN,JR  6434 CLIFTON FORGE CIR                  000N        CARE OF             
MTR08562900001000000000000000RA              29403731    005800520000005200000520000003NN  NNW 000                       N    
RDG08562900WATRL000000004K00000000000006202012011042015120818N000000000000N40       000310400K 10000000010000006179           
CUS0856290000108025543003         ALMOND JOYCE ANN    6436 CLIFTON FORGE CIR                  000N        CARE OF             
MTR08562900001000000000000000RA              24766028    005800530000005300000520000003NN  NNW 000                       N    
RDG08562900WATRL000000004K00000000000004038012111042015120908N000000000000N40       000500400K 10000000010000004033           
CUS0856290000108025544001         TURBE FERDINAND,JR  6438 CLIFTON FORGE CIR                  000N        CARE OF             
MTR08562900001000000000000000RA              46888426    005800540000005400000520000003NN  NNW 000                       N    
RDG08562900WATRL000000004K00000000000004009012211042015120950N000000000000N40       000420400K 10000000010000003991           
CUS0856290000108025545008         ANUSIE FELIX & MAUDL6440 CLIFTON FORGE CIR                  000N        CARE OF             
MTR08562900001000000000000000RA              10000174    005800550000005500000570000003NN  NNW 000                       N    
RDG08562900WATRL000000004K00000000000001051012311042015121101N000000000000N40       000710400K 10000000010000001028           
CUS0856290000108025546006         MALIK ATTIQ S       1318 GATEFIELD RD                       000N        CARE OF             
MTR08562900001000000000000000RA              14915036    005800560000005600000310000003NN  NNW 000                       N    
RDG08562900WATRL000000004K00000000000002145015211042015123234N000000000000N40       000330400K 10000000010000002091           
CUS0856290000108025547004         BUTLER TRACEY A  BUT1316 GATEFIELD RD                       000N        CARE OF             
MTR08562900001000000000000000RA              36688395    005800570000005700000520000003NN  NNW 000                       N    
RDG08562900WATRL000000004K00000000000002498015311042015123240N000000000000N40       000060400K 10000000010000002494           
CUS0856290000108025548002         CLAY EARL C,JR      2 HOFFIELD CT                           000N        CARE OF             
MTR08562900001000000000000000RA              23059472    005800580000005800000520000003NN  NNW 000                       N    
RDG08562900WATRL000000004K00000000000005595012611042015121919N000000000000N40       003240400K 10000000010000005577           
CUS0856290000108025549000         GREEN FRANKLIN JR   4 HOFFIELD CT                           000N        CARE OF             
MTR08562900001000000000000000RA              01078885    005800590000005900000610000003NN  NNW 000                       N    
RDG08562900WATRL000000004K00000000000000714012711042015121927N000300000010N40       000080400K 10000000010000000727           
CUS0856290000108025550008         SOLOMON ADAMU       5 HOFFIELD CT                           000N        CARE OF             
MTR08562900001000000000000000RA              01078888    005800600000006000000610000003NN  NNW 000                       N    
RDG08562900WATRL000000004K00000000000001297012811042015121933N000000000000N40       000060400K 10000000010000001274           
CUS0856290000108025551006         SAMUEL D BATTLE     3 HOFFIELD CT                           000N        CARE OF             
MTR08562900001000000000000000RA              01078883    005800610000006100000610000003NN  NNW 000                       N    
RDG08562900WATRL000000004K00000000000000791012911042015121957N000000000000N40       000240400K 10000000010000000786           
CUS0856290000108025552004         BURLEY KENNETH      1 HOFFIELD CT                           000N        CARE OF             
MTR08562900001000000000000000RA              00137742    005800620000006200000570000003NN  NNW 000                       N    
RDG08562900WATRL000000004K00000000000001187013011042015122002N000000000000N40       000050400K 10000000010000001174           
CUS0856290000108025553002         MITCHELL MARLOW L   1304 GATEFIELD RD                       000N        CARE OF             
MTR08562900001000000000000000RA              11335468    005800630000006300000570000003NN  NNW 000                       N    
RDG08562900WATRL000000004K00000000000006903013111042015122459N000000000011N40       000190400K 10000000010000006886           
CUS0856290000108025554000         SCHUETTE GEORGE J   1302 GATEFIELD RD                       000N        CARE OF             
MTR08562900001000000000000000RA              11335469    005800640000006400000570000003NN  NNW 000                       N    
RDG08562900WATRL000000004K00000000000006283013211042015122351N000000000011N40       000150400K 10000000010000006274           
CUS0856290000108025555007         MITCHELL SAMUEL,JR  1301 GATEFIELD RD                       000N        CARE OF             
MTR08562900001000000000000000RA              11335478    005800650000006500000570000003NN  NNW 000                       N    
RDG08562900WATRL000000004K00000000000006770013311042015122431N000000000000N40       000400400K 10000000010000006750           
CUS0856290000108025556005         FASSETT RHODA C     1303 GATEFIELD RD                       000N        CARE OF             
MTR08562900001000000000000000RA              45385598    005800660000006600000520000003NN  NNW 000                       N    
RDG08562900WATRL000000004K00000000000001897013411042015122436N000000000000N40       000050400K 10000000010000001883           
CUS0856290000108025557003         LLOYD IRIS W        1305 GATEFIELD RD                       000N        CARE OF             
MTR08562900001000000000000000RA              45385603    005800670000006700000520000003NN  NNW 000                       N    
RDG08562900WATRL000000004K00000000000002250013511042015122440N000000000000N40       000040400K 10000000010000002230           
CUS0856290000108025558001         MANCINE BENJAMIN J  1307 GATEFIELD RD                       000N        CARE OF             
MTR08562900001000000000000000RA              11335592    005800680000006800000570000003NN  NNW 000                       N    
RDG08562900WATRL000000004K00000000000005654013611042015122534N000000000000N40       000350400K 10000000010000005642           
CUS0856290000108025559009         WILLIAMS SAMUEL     1309 GATEFIELD RD                       000N        CARE OF             
MTR08562900001000000000000000RA              11335471    005800690000006900000570000003NN  NNW 000                       N    
RDG08562900WATRL000000004K00000000000003223013711042015122539N000000000000N40       000050400K 10000000010000003215           
CUS0856290000108025560007         KELLY STEPHEN R,TRUS1311 GATEFIELD RD                       000N        CARE OF             
MTR08562900001000000000000000RA              11335380    005800700000007000000570000003NN  NNW 000                       N    
RDG08562900WATRL000000004K00000000000006609013811042015122543N000000000000N40       000040400K 10000000010000006589           
CUS0856290000108025561005         STEVENSON JOSEPH    1313 GATEFIELD RD                       000N        CARE OF             
MTR08562900001000000000000000RA              11335366    005800710000007100000570000003NN  NNW 000                       N    
RDG08562900WATRL000000004K00000000000008943013911042015122548N000000000000N40       000050400K 10000000010000008927           
CUS0856290000108025562003         MARSHALL RUSSELL B  1315 GATEFIELD RD                       000N        CARE OF             
MTR08562900001000000000000000RA              21194091    005800720000007200000520000003NN  NNW 000                       N    
RDG08562900WATRL000000004K00000000000006425014011042015124025N000000000011N40       000800400K 10000000010000006413           
CUS0856290000108025563001         FATIMA RUQIA  BATOOL1317 GATEFIELD RD                       000N        CARE OF             
MTR08562900001000000000000000RA              01097065    005800730000007300000610000003NN  NNW 000                       N    
RDG08562900WATRL000000004K00000000000001164014111042015122759N000000000000N40       001230400K 10000000010000001141           
CUS0856290000108025564009         BASILIO ANTONIO C   1319 GATEFIELD RD                       000N        CARE OF             
MTR08562900001000000000000000RA              45385931    005800740000007400000520000003NN  NNW 000                       N    
RDG08562900WATRL000000004K00000000000001764014211042015122805N000000000000N40       000060400K 10000000010000001752           
CUS0856290000108025565006         KATTA SURYANANDA R  1321 GATEFIELD RD                       000N        CARE OF             
MTR08562900001000000000000000RA              21194275    005800750000007500000520000003NN  NNW 000                       N    
RDG08562900WATRL000000004K00000000000006335014311232015142752O000000000010N80       000090400K 10000000010000006319           
CUS0856290000108025566004         GLENN HAZEL I       1334 PLEASANT VALLEY DR                 000N        CARE OF             
MTR08562900001000000000000000RA              48593228    005800760000007600000520000003NN  NNW 000                       N    
RDG08562900WATRL000000004K00000000000001698003811042015102104N000000000000N40       000600400K 10000000010000001693           
CUS0856290000108025567002         TRAN XUAN D         1332 PLEASANT VALLEY DR                 000N        CARE OF             
MTR08562900001000000000000000RA              35103433    005800770000007700000520000003NN  NNW 000                       N    
RDG08562900WATRL000000004K00000000000005003003711232015142812O000000000010N80       000560400K 10000000010000004983           
CUS0856290000108025568000         NGUYEN KIET         1330 PLEASANT VALLEY DR                 000N        CARE OF             
MTR08562900001000000000000000RA              48594336    005800780000007800000520000003NN  NNW 000                       N    
RDG08562900WATRL000000004K00000000000001460003611042015101908N000000000000N40       000370400K 10000000010000001443           
CUS0856290000108025569008         TABB JANE R         1328 PLEASANT VALLEY DR                 000N        CARE OF             
MTR08562900001000000000000000RA              48583280    005800790000007900000520000003NN  NNW 000                       N    
RDG08562900WATRL000000004K00000000000001036003511042015101831N000000000000N40       000640400K 10000000010000001029           
CUS0856290000108025570006         HANSEL WILLIAM B    1326 PLEASANT VALLEY DR                 000N        CARE OF             
MTR08562900001000000000000000RA              76348425    005800800000008000000350000003NN  NNW 000                       N    
RDG08562900WATRL000000004K00000000000000098003411042015101727N000000000000N40       000430400K 10000000010000000082           
CUS0856290000108025571004         DAVID A BURJA       1324 PLEASANT VALLEY DR                 000N        CARE OF             
MTR08562900001000000000000000RA              14929989    005800810000008100000310000003NN  NNW 000                       N    
RDG08562900WATRL000000004K00000000000000350003311042015101644N000000000000N40       000410400K 10000000010000000336           
CUS0856290000108025572002         MARTIN DANNY J      1322 PLEASANT VALLEY DR                 000N        CARE OF             
MTR08562900001000000000000000RA              14900055    005800820000008200000310000003NN  NNW 000                       N    
RDG08562900WATRL000000004K00000000000000688003211042015101603N000000000000N40       000360400K 10000000010000000680           
CUS0856290000108025573000         MICHAEL GILLIGAN    1320 PLEASANT VALLEY DR                 000N        CARE OF             
MTR08562900001000000000000000RA              00139782    005800830000008300000570000003NN  NNW 000                       N    
RDG08562900WATRL000000004K00000000000001417003111042015101527N000000000000N40       000320400K 10000000010000001398           
CUS0856290000108025574008         JOHNSON PATRICIA H A1318 PLEASANT VALLEY DR                 000N        CARE OF             
MTR08562900001000000000000000RA              26004698    005800840000008400000520000003NN  NNW 000                       N    
RDG08562900WATRL000000004K00000000000005711003011042015101455N000000000000N40       000530400K 10000000010000005693           
CUS0856290000108025575005         LANGER ALLAN        1316 PLEASANT VALLEY DR                 000N        CARE OF             
MTR08562900001000000000000000RA              44173504    005800850000008500000520000003NN  NNW 000                       N    
RDG08562900WATRL000000004K00000000000002490002911042015101402N000000000000N40       000220400K 10000000010000002476           
CUS0856290000108025576003         LAUREEN PENN        1314 PLEASANT VALLEY DR                 000N        CARE OF             
MTR08562900001000000000000000RA              24227787    005800860000008600000520000003NN  NNW 000                       N    
RDG08562900WATRL000000004K00000000000000112002811042015101340N000000000011N40       000310400K 10000000010000000104           
CUS0856290000108025577001         HANDY BROWN KRISTEN 1312 PLEASANT VALLEY DR                 000N        CARE OF             
MTR08562900001000000000000000RA              00140031    005800870000008700000570000003NN  NNW 000                       N    
RDG08562900WATRL000000004K00000000000000892002711042015101227N000000000000N40       000460400K 10000000010000000878           
CUS0856290000108025578009         RAJA RAZAQ A        1310 PLEASANT VALLEY DR                 000N        CARE OF             
MTR08562900001000000000000000RA              39290462    005800880000008800000520000003NN  NNW 000                       N    
RDG08562900WATRL000000004K00000000000003966002611042015101141N000000000000N40       000480400K 10000000010000003943           
CUS0856290000108025579007         SHEPPARD ROBERT GARY1308 PLEASANT VALLEY DR                 000N        CARE OF             
MTR08562900001000000000000000RA              23054758    005800890000008900000520000003NN  NNW 000                       N    
RDG08562900WATRL000000004K00000000000005254002511042015101053N000000000000N40       000560400K 10000000010000005241           
CUS0856290000108025580005         SANSONE NADA A      1304 PLEASANT VALLEY DR                 000N        CARE OF             
MTR08562900001000000000000000RA              14920355    005800900000009000000310000003NN  NNW 000                       N    
RDG08562900WATRL000000004K00000000000000807002411042015100957N000000000000N40       002840400K 10000000010000000791           
CUS0856290000108025581003         JACOX GEORGE L      1302 PLEASANT VALLEY DR                 000N        CARE OF             
MTR08562900001000000000000000RA              11329675    005800910000009100000570000003NN  NNW 000                       N    
RDG08562900WATRL000000004K00000000000005385002211042015100429N000000000000N40       004230400K 10000000010000005377           
CUS0856290000108025582001         SYED A AHMED        1300 PLEASANT VALLEY DR                 000N        CARE OF             
MTR08562900001000000000000000RA              11329674    005800920000009200000570000003NN  NNW 000                       N    
RDG08562900WATRL000000004K00000000000006700002311042015113205N000000000011N40       001170400K 10000000010000006695           
CUS0856290000108025815005         BIEDRZYCKI JOHN H   6313 CHESWORTH RD                       000N        CARE OF             
MTR08562900001000000000000000RA              23841834    005800930000009300000520000003NN  NNW 000                       N    
RDG08562900WATRL000000004K00000000000002868014411042015123003N000000000000N40       001090400K 10000000010000002861           
CUS0856290000108025816003         CUMMISKEY MARTIN CUL6311 CHESWORTH RD                       000N        CARE OF             
MTR08562900001000000000000000RA              41076078    005800940000009400000520000003NN  NNW 000                       N    
RDG08562900WATRL000000004K00000000000002749014511042015123009N000000000000N40       000060400K 10000000010000002742           
CUS0856290000108025817001         LOOVIS RENEE V      6309 CHESWORTH RD                       000N        CARE OF             
MTR08562900001000000000000000RA              14905594    005800950000009500000310000003NN  NNW 000                       N    
RDG08562900WATRL000000004K00000000000000743014611042015123013N000000000000N40       000040400K 10000000010000000732           
CUS0856290000108025818009         FAROOQ Y BUTT       6307 CHESWORTH RD                       000N        CARE OF             
MTR08562900001000000000000000RA              27817317    005800960000009600000520000003NY  NNW 000                       N    
MTM0856290027817317    CLEAN OUT                                                                                              
RDG08562900WATRL000000004K00000000000000000000000000000000000 000000000000U         000000400  10000000010000003923           
CUS0856290000108025819007         PATEL CHANDRAKANT D 4 CEDAR BLUFF CT                        000N        CARE OF             
MTR08562900001000000000000000RA              11337631    005800970000009700000570000003NN  NNW 000                       N    
RDG08562900WATRL000000004K00000000000004749014711042015123039N000300000010N40       000260400K 10000000010000004770           
CUS0856290000108025820005         MOHAMMED Y ABBASI   6 CEDAR BLUFF CT                        000N        CARE OF             
MTR08562900001000000000000000RA              11337811    005800980000009800000570000003NN  NNW 000                       N    
RDG08562900WATRL000000004K00000000000003170014811042015123044N000000000000N40       000050400K 10000000010000003121           
CUS0856290000108025821003         DOTSON SANDRA P     7 CEDAR BLUFF CT                        000N        CARE OF             
MTR08562900001000000000000000RA              11337634    005800990000009900000570000003NN  NNW 000                       N    
RDG08562900WATRL000000004K00000000000005788014911042015123146N000000000000N40       000620400K 10000000010000005776           
CUS0856290000108025822001         AMBUSH RUTH NAOMI   5 CEDAR BLUFF CT                        000N        CARE OF             
MTR08562900001000000000000000RA              99288479    005801000000010000000570000003NN  NNW 000                       N    
RDG08562900WATRL000000004K00000000000001425015011042015123153N000000000000N40       000070400K 10000000010000001412           
CUS0856290000108025823009         DAVID C CHEURONT    3 CEDAR BLUFF CT                        000N        CARE OF             
MTR08562900001000000000000000RA              14905584    005801010000010100000310000000NN  NNW 000                       N    
RDG08562900WATRL000000004K00000000000000417015111042015123201N000000000000N40       000080400K 10000000010000000413           
CUS0856290000108025824007         RANDALL MICHAEL H   6303 CHESWORTH RD                       000N        CARE OF             
MTR08562900001000000000000000RA              26015576    005801020000010200000520000003NN  NNW 000                       N    
RDG08562900WATRL000000004K00000000000003612000111042015093902N000000000000N40       000000400K 10000000010000003603           
CUS0856290000108025825004         KEYSER PIERCE R,SR  1228 N ROLLING RD                       000N        CARE OF             
MTR08562900001000000000000000RA              23054031    005801030000010300000520000003NN  NNW 000                       N    
RDG08562900WATRL000000004K00000000000003619000211042015094007N000000000000N40       000650400K 10000000010000003602           
CUS0856290000108025826002         SAN JUAN ROMEO G    6300 CHESWORTH RD                       000N        CARE OF             
MTR08562900001000000000000000RA              48594604    005801040000010400000520000003NN  NNW 000                       N    
RDG08562900WATRL000000004K00000000000001845000311042015094037N000000000000N40       000300400K 10000000010000001837           
CUS0856290000108025827000         CAMONAYAN FERDIE    6302 CHESWORTH RD                       000N        CARE OF             
MTR08562900001000000000000000RA              41076387    005801050000010500000520000003NN  NNW 000                       N    
RDG08562900WATRL000000004K00000000000004536000411042015094132N000000000000N40       000550400K 10000000010000004517           
CUS0856290000108025828008         MILLER HENRY G      6304 CHESWORTH RD                       000N        CARE OF             
MTR08562900001000000000000000RA              26002072    005801060000010600000520000003NN  NNW 000                       N    
RDG08562900WATRL000000004K00000000000005565000511042015094212N000000000000N40       000400400K 10000000010000005554           
CUS0856290000108025829006         GAGNE MICHAEL P     6306 CHESWORTH RD                       000N        CARE OF             
MTR08562900001000000000000000RA              11335617    005801070000010700000570000003NN  NNW 000                       N    
RDG08562900WATRL000000004K00000000000005898000611042015094252N000000000000N40       000400400K 10000000010000005871           
CUS0856290000108025830004         BIEDZYNSKI JOSEPH   6308 CHESWORTH RD                       000N        CARE OF             
MTR08562900001000000000000000RA              41076440    005801080000010800000520000003NN  NNW 000                       N    
RDG08562900WATRL000000004K00000000000003598000711042015094328N000000000000N40       000360400K 10000000010000003583           
CUS0856290000108025831002         CUMMISKEY MICHAEL C 6310 CHESWORTH RD                       000N        CARE OF             
MTR08562900001000000000000000RA              36688969    005801090000010900000520000003NN  NNW 000                       N    
RDG08562900WATRL000000004K00000000000002644000811042015094404N000000000000N40       000360400K 10000000010000002641           
CUS0856290000108025832000         BUTT JAVED A        6312 CHESWORTH RD                       000N        CARE OF             
MTR08562900001000000000000000RA              27826093    005801100000011000000520000003NN  NNW 000                       N    
RDG08562900WATRL000000004K00000000000003809000911042015094443N000000000000N40       000390400K 10000000010000003789           
CUS0856290000108025833008         NOVAK BARBARA H     6314 CHESWORTH RD                       000N        CARE OF             
MTR08562900001000000000000000RA              99289215    005801110000011100000570000003NN  NNW 000                       N    
RDG08562900WATRL000000004K00000000000000766001011042015094525N000000000000N40       000420400K 10000000010000000759           
CUS0856290000108025834006         SMITH LISA O        1 MONROE FIELD CT                       000N        CARE OF             
MTR08562900001000000000000000RA              11329698    005801120000011200000570000003NN  NNW 000                       N    
RDG08562900WATRL000000004K00000000000006144001111042015094857N000000000000N40       002120400K 10000000010000006130           
CUS0856290000108025835003         OLIVIER RENE        3 MONROE FIELD CT                       000N        CARE OF             
MTR08562900001000000000000000RA              11329676    005801130000011300000570000003NN  NNW 000                       N    
RDG08562900WATRL000000004K00000000000005070001211042015094937N000000000000N40       000400400K 10000000010000005069           
CUS0856290000108025836001         DIANE JONES         5 MONROE FIELD CT                       000N        CARE OF             
MTR08562900001000000000000000RA              14905583    005801140000011400000310000003NN  NNW 000                       N    
RDG08562900WATRL000000004K00000000000000424001311042015095026N000000000000N40       000490400K 10000000010000000416           
CUS0856290000108025837009         WEST SHANNON L      7 MONROE FIELD CT                       000N        CARE OF             
MTR08562900001000000000000000RA              45374165    005801150000011500000520000003NN  NNW 000                       N    
RDG08562900WATRL000000004K00000000000002177001411042015095107N000000000000N40       000410400K 10000000010000002168           
CUS0856290000108025838007         ULLAH ASAD          9 MONROE FIELD CT                       000N        CARE OF             
MTR08562900001000000000000000RA              75426409    005801160000011600000350000003NN  NNW 000                       N    
RDG08562900WATRL000000004K00000000000000301001511042015095143N000000000000N40       000360400K 10000000010000000274           
CUS0856290000108025839005         PALMER BARRY LYNN   11 MONROE FIELD CT                      000N        CARE OF             
MTR08562900001000000000000000RA              11329703    005801170000011700000570000003NN  NNW 000                       N    
RDG08562900WATRL000000004K00000000000006554001611042015095220N000000000000N40       000370400K 10000000010000006505           
CUS0856290000108025840003         DEMETRAKIS DEAN     10 MONROE FIELD CT                      000N        CARE OF             
MTR08562900001000000000000000RA              11329693    005801180000011800000570000003NN  NNW 000                       N    
RDG08562900WATRL000000004K00000000000005726001711042015095308N000000000000N40       000480400K 10000000010000005714           
CUS0856290000108025841001         CORCORAN CHARLES J  8 MONROE FIELD CT                       000N        CARE OF             
MTR08562900001000000000000000RA              10015641    005801190000011900000570000003NN  NNW 000                       N    
RDG08562900WATRL000000004K00000000000000502001811042015095510N000000000000N40       001220400K 10000000010000000479           
CUS0856290000108025842009         HOLMES ROY J,JR     6 MONROE FIELD CT                       000N        CARE OF             
MTR08562900001000000000000000RA              46883926    005801200000012000000520000003NN  NNW 000                       N    
RDG08562900WATRL000000004K00000000000002296001911042015095559N000000000000N40       000490400K 10000000010000002275           
CUS0856290000108025843007         HALL ROBERT K       4 MONROE FIELD CT                       000N        CARE OF             
MTR08562900001000000000000000RA              24229036    005801210000012100000520000003NN  NNW 000                       N    
RDG08562900WATRL000000004K00000000000006933002011042015095648N000000000000N40       000490400K 10000000010000006911           
CUS0856290000108025844005         CREIGHTON DONALD J  2 MONROE FIELD CT                       000N        CARE OF             
MTR08562900001000000000000000RA              10017458    005801220000012200000570000003NN  NNW 000                       N    
RDG08562900WATRL000000004K00000000000000307002111042015095726N000000000000N40       000380400K 10000000010000000274           
CUS0856290000108025845002         BOOSE AIMEE         1305 PLEASANT VALLEY DR                 000N        CARE OF             
MTR08562900001000000000000000RA              11337334    005801230000012300000570000003NN  NNW 000                       N    
RDG08562900WATRL000000004K00000000000007935011111042015113008N000000000001N40       000420400K 10000000010000007915           
CUS0856290000108025846000         PAULSEN JERRY E,JR  1307 PLEASANT VALLEY DR                 000N        CARE OF             
MTR08562900001000000000000000RA              11337339    005801240000012400000570000003NN  NNW 000                       N    
RDG08562900WATRL000000004K00000000000006551011011042015112926N000300000010N40       000440400K 10000000010000006563           
CUS0856290000108025847008         TRICE MARK          1309 PLEASANT VALLEY DR                 000N        CARE OF             
MTR08562900001000000000000000RA              39923823    005801250000012500000520000003NN  NNW 000                       N    
RDG08562900WATRL000000004K00000000000004232010911042015112842N000000000000N40       000600400K 10000000010000004213           
CUS0856290000108025848006         MATULIONIS JOHN A   1311 PLEASANT VALLEY DR                 000N        CARE OF             
MTR08562900001000000000000000RA              77886601    005801260000012600000350000003NN  NNW 000                       N    
RDG08562900WATRL000000004K00000000000000065010811232015142839O000000000010N80       000510400K 10000000010000000054           
CUS0856290000108025849004         JOHNSON CHARLES H   1313 PLEASANT VALLEY DR                 000N        CARE OF             
MTR08562900001000000000000000RA              11329699    005801270000012700000570000003NN  NNW 000                       N    
RDG08562900WATRL000000004K00000000000006069010711042015112651N000000000000N40       000440400K 10000000010000006055           
CUS0856290000108025850002         DALY JAMES P,3RD    1315 PLEASANT VALLEY DR                 000N        CARE OF             
MTR08562900001000000000000000RA              14900056    005801280000012800000310000003NN  NNW 000                       N    
RDG08562900WATRL000000004K00000000000000835010611042015112607N000000000000N40       000460400K 10000000010000000816           
CUS0856290000108025851000         RUSSELL MYRA C      1317 PLEASANT VALLEY DR                 000N        CARE OF             
MTR08562900001000000000000000RA              00140034    005801290000012900000570000003NN  NNW 000                       N    
RDG08562900WATRL000000004K00000000000000792010511042015112521N000000000000N40       001160400K 10000000010000000780           
CUS0856290000108025853006         AKHTAR MOHAMMAD     6300 COLLINSWAY RD                      000N        CARE OF             
MTR08562900001000000000000000RA              39923375    005801300000013000000520000003NN  NNW 000                       N    
RDG08562900WATRL000000004K00000000000002597010411042015112325N000000000000N40       000480400K 10000000010000002567           
CUS0856290000108025854004         LITTLE CALVIN       6302 COLLINSWAY RD                      000N        CARE OF             
MTR08562900001000000000000000RA              35110258    005801310000013100000520000003NN  NNW 000                       N    
RDG08562900WATRL000000004K00000000000002780010311042015112237N000000000000N40       000200400K 10000000010000002758           
CUS0856290000108025855001         RICE HENRY J        6304 COLLINSWAY RD                      000N        CARE OF             
MTR08562900001000000000000000RA              35115174    005801320000013200000520000003NN  NNW 000                       N    
RDG08562900WATRL000000004K00000000000002102010111042015112145N000000000000N40       001140400K 10000000010000002090           
CUS0856290000108025856009         STRIEDL JOSEPH C    6306 COLLINSWAY RD                      000N        CARE OF             
MTR08562900001000000000000000RA              32178043    005801330000013300000520000003NY  NNW 000                       N    
MTM0856290032178043    BURIED                                                                                                 
RDG08562900WATRL000000004K00000000000000000010200000000000000 000000000000U         000000400  10000000010000005055           
CUS0856290000108025857007         WATERMAN BRIAN CRAIG6308 COLLINSWAY RD                      000N        CARE OF             
MTR08562900001000000000000000RA              11331097    005801340000013400000570000003NN  NNW 000                       N    
RDG08562900WATRL000000004K00000000000004922010011042015111951N000300000010N40       001000400K 10000000010000004923           
CUS0856290000108025858005         EVANS THELMA A      1323 PLEASANT VALLEY DR                 000N        CARE OF             
MTR08562900001000000000000000RA              21194090    005801350000013500000520000003NN  NNW 000                       N    
RDG08562900WATRL000000004K00000000000006010009911042015111811N000000000000N40       000400400K 10000000010000005998           
CUS0856290000108025859003         UM PETER            1325 PLEASANT VALLEY DR                 000N        CARE OF             
MTR08562900001000000000000000RA              46883861    005801360000013600000520000003NN  NNW 000                       N    
RDG08562900WATRL000000004K00000000000001530009811042015111731N000000000000N40       000560400K 10000000010000001529           
CUS0856290000108025860001         EDWARDS THOMAS L    1327 PLEASANT VALLEY DR                 000N        CARE OF             
MTR08562900001000000000000000RA              35111326    005801370000013700000520000003NN  NNW 000                       N    
RDG08562900WATRL000000004K00000000000003882009711232015142904O000000000010N80       000510400K 10000000010000003722           
CUS0856290000108025861009         COMET MELVIN R      1329 PLEASANT VALLEY DR                 000N        CARE OF             
MTR08562900001000000000000000RA              14926206    005801380000013800000310000003NN  NNW 000                       N    
RDG08562900WATRL000000004K00000000000000335009611042015111544N000000000000N40       000350400K 10000000010000000325           
CUS0856290000108025862007         SANSBURY JEAN A     1331 PLEASANT VALLEY DR                 000N        CARE OF             
MTR08562900001000000000000000RA              44088017    005801390000013900000520000003NN  NNW 000                       N    
RDG08562900WATRL000000004K00000000000002046009511042015111509N000000000000N40       000770400K 10000000010000002037           
CUS0856290000108025863005         WILLIAMS NATHANIEL M1 DOE HILL CT                           000N        CARE OF             
MTR08562900001000000000000000RA              00140032    005801400000014000000570000003NN  NNW 000                       N    
RDG08562900WATRL000000004K00000000000002284009411042015111352N000000000000N40       000500400K 10000000010000002253           
CUS0856290000108025864003         MICHAEL WILLIAM M   3 DOE HILL CT                           000N        CARE OF             
MTR08562900001000000000000000RA              48594338    005801410000014100000520000003NN  NNW 000                       N    
RDG08562900WATRL000000004K00000000000001060009311042015111302N000000000000N40       000450400K 10000000010000001052           
CUS0856290000108025865000         ASRAR ARSHAD        5 DOE HILL CT                           000N        CARE OF             
MTR08562900001000000000000000RA              46879335    005801420000014200000520000003NN  NNW 000                       N    
RDG08562900WATRL000000004K00000000000002871009211042015111217N000000000000N40       000450400K 10000000010000002839           
CUS0856290000108025866008         STEIN CHARLES G     7 DOE HILL CT                           000N        CARE OF             
MTR08562900001000000000000000RA              41087801    005801430000014300000520000003NN  NNW 000                       N    
RDG08562900WATRL000000004K00000000000002666009111042015111132N000000000000N40       000360400K 10000000010000002655           
CUS0856290000108025867006         KEY PROPERTY MANAGEM9 DOE HILL CT                           000N        CARE OF             
MTR08562900001000000000000000RA              24761321    005801440000014400000520000003NN  NNW 000                       N    
RDG08562900WATRL000000004K00000000000000680009011042015111056N000300000010N40       000420400K 10000000010000000668           
CUS0856290000108025868004         FREDERICK S HEUSCHIL10 DOE HILL CT                          000N        CARE OF             
MTR08562900001000000000000000RA              41081772    005801450000014500000520000003NN  NNW 000                       N    
RDG08562900WATRL000000004K00000000000003601008911042015111014N000000000000N40       000500400K 10000000010000003589           
CUS0856290000108025869002         BATOFF STEVEN I,TRUS8 DOE HILL CT                           000N        CARE OF             
MTR08562900001000000000000000RA              01095013    005801460000014600000610000003NN  NNW 000                       N    
RDG08562900WATRL000000004K00000000000001871008811042015110924N000000000000N40       000430400K 10000000010000001846           
CUS0856290000108025870000         ST PIERRE SEAN P    6 DOE HILL CT                           000N        CARE OF             
MTR08562900001000000000000000RA              00140035    005801470000014700000570000003NN  NNW 000                       N    
RDG08562900WATRL000000004K00000000000002033008711042015110841N000000000000N40       000400400K 10000000010000002014           
CUS0856290000108025871008         THOMPSON KAREN L    4 DOE HILL CT                           000N        CARE OF             
MTR08562900001000000000000000RA              99290893    005801480000014800000570000003NN  NNW 000                       N    
RDG08562900WATRL000000004K00000000000001085008611042015110801N000000000000N40       004050400K 10000000010000001069           
CUS0856290000108025872006         MCKNIGHT ELEX JUSTIN1401 PLEASANT VALLEY DR                 000N        CARE OF             
MTR08562900001000000000000000RA              35115550    005801490000014900000520000003NN  NNW 000                       N    
RDG08562900WATRL000000004K00000000000005657004111042015102616N000000000000N40       000850400K 10000000010000005640           
CUS0856290000108025873004         COHILL JAMES A,3RD  1403 PLEASANT VALLEY DR                 000N        CARE OF             
MTR08562900001000000000000000RA              24225237    005801500000015000000520000003NN  NNW 000                       N    
RDG08562900WATRL000000004K00000000000004808004211042015102653N000000000000N40       000370400K 10000000010000004793           
CUS0856290000108025874002         HARTLEY MILDRED M   1405 PLEASANT VALLEY DR                 000N        CARE OF             
MTR08562900001000000000000000RA              24220052    005801510000015100000520000003NN  NNW 000                       N    
RDG08562900WATRL000000004K00000000000004159004311042015102816N000000000021N40       000060400K 10000000010000004154           
CUS0856290000108025875009         QUIVERS CHARLES A   1407 PLEASANT VALLEY DR                 000N        CARE OF             
MTR08562900001000000000000000RA              50481287    005801520000015200000520000003NN  NNW 000                       N    
RDG08562900WATRL000000004K00000000000001263004411042015102909N000000000000N40       000530400K 10000000010000001256           
CUS0856290000108025876007         GIBSON TONY M SR    1409 PLEASANT VALLEY DR                 000N        CARE OF             
MTR08562900001000000000000000RA              35111397    005801530000015300000520000003NN  NNW 000                       N    
RDG08562900WATRL000000004K00000000000002654004511042015102958N000300000010N40       000490400K 10000000010000002645           
CUS0856290000108025877005         YANG TZU C          1411 PLEASANT VALLEY DR                 000N        CARE OF             
MTR08562900001000000000000000RA              41076380    005801540000015400000520000003NN  NNW 000                       N    
RDG08562900WATRL000000004K00000000000002971004611042015103035N000000000000N40       000370400K 10000000010000002948           
CUS0856290000108025878003         BLOCK TIMOTHY ARNOLD1413 PLEASANT VALLEY DR                 000N        CARE OF             
MTR08562900001000000000000000RA              41076444    005801550000015500000520000003NN  NNW 000                       N    
RDG08562900WATRL000000004K00000000000003376004711042015103126N000000000000N40       000510400K 10000000010000003357           
CUS0856290000108025879001         KANG KYU LIM        1415 PLEASANT VALLEY DR                 000N        CARE OF             
MTR08562900001000000000000000RA              14905594    005801560000015600000310000003NN  NNW 000                       N    
RDG08562900WATRL000000004K00000000000001390004811042015103208N000000000000N40       000420400K 10000000010000001354           
CUS0856290000108025880009         MATERON-ARUM ESTHER 1417 PLEASANT VALLEY DR                 000N        CARE OF             
MTR08562900001000000000000000RA              10000171    005801570000015700000570000003NN  NNW 000                       N    
RDG08562900WATRL000000004K00000000000000339004911042015103319N000000000000N40       000710400K 10000000010000000325           
CUS0856290000108025881007         AVARA SIMON J       1419 PLEASANT VALLEY DR                 000N        CARE OF             
MTR08562900001000000000000000RA              52289837    005801580000015800000520000003NN  NNW 000                       N    
RDG08562900WATRL000000004K00000000000001680005011042015103354N000000000000N40       000350400K 10000000010000001664           
CUS0856290000108025882005         HAYDEN RONALD L     1421 PLEASANT VALLEY DR                 000N        CARE OF             
MTR08562900001000000000000000RA              01115125    005801590000015900000610000003NN  NNW 000                       N    
RDG08562900WATRL000000004K00000000000001288005111042015103451N000000000000N40       000570400K 10000000010000001265           
CUS0856290000108025883003         KAZIM NATALYA       1423 PLEASANT VALLEY DR                 000N        CARE OF             
MTR08562900001000000000000000RA              14924936    005801600000016000000310000003NN  NNW 000                       N    
RDG08562900WATRL000000004K00000000000000517005211042015103541N000000000000N40       000500400K 10000000010000000491           
CUS0856290000108025884001         RITTER JOHN A       1425 PLEASANT VALLEY DR                 000N        CARE OF             
MTR08562900001000000000000000RA              29686019    005801610000016100000520000003NN  NNW 000                       N    
RDG08562900WATRL000000004K00000000000003739005311042015103612N000000000000N40       000310400K 10000000010000003732           
CUS0856290000108025885008         HALL EDWARD A J     1427 PLEASANT VALLEY DR                 000N        CARE OF             
MTR08562900001000000000000000RA              30516829    005801620000016200000520000003NN  NNW 000                       N    
RDG08562900WATRL000000004K00000000000004566005411042015103704N000000000010N40       000520400K 10000000010000004552           
CUS0856290000108025886006         JENKINS JOSEPH L    1429 PLEASANT VALLEY DR                 000N        CARE OF             
MTR08562900001000000000000000RA              44088018    005801630000016300000520000003NN  NNW 000                       N    
RDG08562900WATRL000000004K00000000000001536005511042015103750N000300000010N40       000460400K 10000000010000001540           
CUS0856290000108025887004         OPAY ROSIELENE M    3 SPARROW HILL CT                       000N        CARE OF             
MTR08562900001000000000000000RA              35111396    005801640000016400000520000003NN  NNW 000                       N    
RDG08562900WATRL000000004K00000000000006143005611042015103906N000000000000N40       000760400K 10000000010000006128           
CUS0856290000108025888002         SLOWIKOWSKI WILLIAM 5 SPARROW HILL CT                       000N        CARE OF             
MTR08562900001000000000000000RA              35111398    005801650000016500000520000003NN  NNW 000                       N    
RDG08562900WATRL000000004K00000000000004613005711042015103955N000000000000N40       000490400K 10000000010000004596           
CUS0856290000108025889000         HEATH GEORGE A      4 ELKWOOD CT                            000N        CARE OF             
MTR08562900001000000000000000RA              00139784    005801660000016600000570000003NN  NNW 000                       N    
RDG08562900WATRL000000004K00000000000000970005811042015104100N000000000000N40       000650400K 10000000010000000954           
CUS0856290000108025890008         PERRY WILLIAM D     6 ELKWOOD CT                            000N        CARE OF             
MTR08562900001000000000000000RA              00139783    005801670000016700000570000003NN  NNW 000                       N    
RDG08562900WATRL000000004K00000000000000599005911232015142934O000000000010N80       000550400K 10000000010000000596           
CUS0856290000108025891006         BROYLES RUTH L,TRUST8 ELKWOOD CT                            000N        CARE OF             
MTR08562900001000000000000000RA              00139780    005801680000016800000570000003NN  NNW 000                       N    
RDG08562900WATRL000000004K00000000000001215006011042015104225N000000000000N40       000300400K 10000000010000001203           
CUS0856290000108025892004         CURRY RONALD D      10 ELKWOOD CT                           000N        CARE OF             
MTR08562900001000000000000000RA              00139781    005801690000016900000570000003NN  NNW 000                       N    
RDG08562900WATRL000000004K00000000000003091006111232015142954O000000000010N80       000740400K 10000000010000003023           
CUS0856290000108025893002         RAO PAUL RICHARD    12 ELKWOOD CT                           000N        CARE OF             
MTR08562900001000000000000000RA              00140033    005801700000017000000570000003NN  NNW 000                       N    
RDG08562900WATRL000000004K00000000000000906006211042015104419N000000000000N40       000400400K 10000000010000000894           
CUS0856290000108025894000         SEAN MICHAEL SMITH  14 ELKWOOD CT                           000N        CARE OF             
MTR08562900001000000000000000RA              00139861    005801710000017100000570000003NN  NNW 000                       N    
RDG08562900WATRL000000004K00000000000001558006311042015104501N000000000010N40       000420400K 10000000010000001543           
CUS0856290000108025895007         JOSEPH VELEZ        13 ELKWOOD CT                           000N        CARE OF             
MTR08562900001000000000000000RA              00139860    005801720000017200000570000003NN  NNW 000                       N    
RDG08562900WATRL000000004K00000000000001100006411042015104531N000000000000N40       000300400K 10000000010000001089           
CUS0856290000108025896005         BAHLER ERNEST P     11 ELKWOOD CT                           000N        CARE OF             
MTR08562900001000000000000000RA              00138705    005801730000017300000570000003NN  NNW 000                       N    
RDG08562900WATRL000000004K00000000000001417006511042015104557N000000000000N40       000260400K 10000000010000001399           
CUS0856290000108025897003         ROSE JAMES H,JR     9 ELKWOOD CT                            000N        CARE OF             
MTR08562900001000000000000000RA              31583336    005801740000017400000520000003NN  NNW 000                       N    
RDG08562900WATRL000000004K00000000000004768006611042015104624N000000000000N40       000270400K 10000000010000004755           
CUS0856290000108025898001         PRAILEAU LEROY      7 ELKWOOD CT                            000N        CARE OF             
MTR08562900001000000000000000RA              38985184    005801750000017500000520000003NN  NNW 000                       N    
RDG08562900WATRL000000004K00000000000002116006711042015104653N000000000000N40       000290400K 10000000010000002102           
CUS0856290000108025899009         CHITTIWUTTINON PAIRO5 ELKWOOD CT                            000N        CARE OF             
MTR08562900001000000000000000RA              00138889    005801760000017600000570000003NN  NNW 000                       N    
RDG08562900WATRL000000004K00000000000001681006811042015104740N000000000000N40       000470400K 10000000010000001659           
CUS0856290000108025900005         LOPEZ RICARDO R     3 ELKWOOD CT                            000N        CARE OF             
MTR08562900001000000000000000RA              00138887    005801770000017700000570000003NN  NNW 000                       N    
RDG08562900WATRL000000004K00000000000001338006911042015104849N000000000000N40       000690400K 10000000010000001320           
CUS0856290000108025901003         YUAN ERNEST Y       1 ELKWOOD CT                            000N        CARE OF             
MTR08562900001000000000000000RA              00138888    005801780000017800000570000003NN  NNW 000                       N    
RDG08562900WATRL000000004K00000000000001321007011042015104928N000000000000N40       000390400K 10000000010000001312           
CUS0856290000108025902001         TONER, JOHN FN R    11 SPARROW HILL CT                      000N        CARE OF             
MTR08562900001000000000000000RA              32771301    005801790000017900000520000003NN  NNW 000                       N    
RDG08562900WATRL000000004K00000000000002401007111042015105034N000000000000N40       000660400K 10000000010000002368           
CUS0856290000108025903009         JONES SHIRLEY       13 SPARROW HILL CT                      000N        CARE OF             
MTR08562900001000000000000000RA              48588791    005801800000018000000520000003NN  NNW 000                       N    
RDG08562900WATRL000000004K00000000000002165007211232015143020O000000000010N80       000500400K 10000000010000002131           
CUS0856290000108025904007         DAILEY STUART C     15 SPARROW HILL CT                      000N        CARE OF             
MTR08562900001000000000000000RA              35099666    005801810000018100000520000003NN  NNW 000                       N    
RDG08562900WATRL000000004K00000000000005235007311042015105227N000000000000N40       000630400K 10000000010000005214           
CUS0856290000108025905004         PETERS GEORGE A,4TH 17 SPARROW HILL CT                      000N        CARE OF             
MTR08562900001000000000000000RA              00138709    005801820000018200000570000003NN  NNW 000                       N    
RDG08562900WATRL000000004K00000000000001714007411042015105317N000000000000N40       000500400K 10000000010000001696           
CUS0856290000108025906002         ZANTO FRANK J,JR    19 SPARROW HILL CT                      000N        CARE OF             
MTR08562900001000000000000000RA              01084244    005801830000018300000610000003NN  NNW 000                       N    
RDG08562900WATRL000000004K00000000000001808007511042015105356N000000000000N40       000390400K 10000000010000001786           
CUS0856290000108025907000         GUENSCHEL HELMUT    21 SPARROW HILL CT                      000N        CARE OF             
MTR08562900001000000000000000RA              00138710    005801840000018400000570000003NN  NNW 000                       N    
RDG08562900WATRL000000004K00000000000001211007611042015105429N000000000000N40       000330400K 10000000010000001201           
CUS0856290000108025908008         CARVER DENNIS L,JR  20 SPARROW HILL CT                      000N        CARE OF             
MTR08562900001000000000000000RA              00138707    005801850000018500000570000003NN  NNW 000                       N    
RDG08562900WATRL000000004K00000000000002613007711042015105454N000000000000N40       000250400K 10000000010000002575           
CUS0856290000108025909006         AKOSA PAULINUS      18 SPARROW HILL CT                      000N        CARE OF             
MTR08562900001000000000000000RA              00138708    005801860000018600000570000003NN  NNW 000                       N    
RDG08562900WATRL000000004K00000000000001462007811042015105530N000000000000N40       000360400K 10000000010000001444           
CUS0856290000108025910004         ROYSTER DEBORAH     16 SPARROW HILL CT                      000N        CARE OF             
MTR08562900001000000000000000RA              00138706    005801870000018700000570000003NN  NNW 000                       N    
RDG08562900WATRL000000004K00000000000001320007911232015143039O000000000010N80       000380400K 10000000010000001308           
CUS0856290000108025911002         LE QUOC             14 SPARROW HILL CT                      000N        CARE OF             
MTR08562900001000000000000000RA              26010048    005801880000018800000520000003NN  NNW 000                       N    
RDG08562900WATRL000000004K00000000000003987008011042015105650N000000000000N40       000420400K 10000000010000003975           
CUS0856290000108025912000         NAN SENG            12 SPARROW HILL CT                      000N        CARE OF             
MTR08562900001000000000000000RA              14905587    005801890000018900000310000003NN  NNW 000                       N    
RDG08562900WATRL000000004K00000000000001267008111042015105732N000000000000N40       000420400K 10000000010000001254           
CUS0856290000108025913008         ROSE MARIE HELLMANN 10 SPARROW HILL CT                      000N        CARE OF             
MTR08562900001000000000000000RA              48582551    005801900000019000000520000003NN  NNW 000                       N    
RDG08562900WATRL000000004K00000000000001197008211042015105810N000000000000N40       000380400K 10000000010000001167           
CUS0856290000108025914006         PROVANCE JOSEPH PAUL8 SPARROW HILL CT                       000N        CARE OF             
MTR08562900001000000000000000RA              50787938    005801910000019100000520000003NN  NNW 000                       N    
RDG08562900WATRL000000004K00000000000001722008311042015105845N000000000000N40       000350400K 10000000010000001712           
CUS0856290000108025915003         CHARANPREET S JOHAL 6 SPARROW HILL CT                       000N        CARE OF             
MTR08562900001000000000000000RA              24770713    005801920000019200000520000003NN  NNW 000                       N    
RDG08562900WATRL000000004K00000000000001687008411042015105930N000000000000N40       000450400K 10000000010000001665           
CUS0856290000108025916001         PARSON DEBRA C      4 SPARROW HILL CT                       000N        CARE OF             
MTR08562900001000000000000000RA              11429334    005801930000019300000570000003NY  NNW 000                       N    
MTM0856290011429334    CLEAN OUT                                                                                              
RDG08562900WATRL000000004K00000000000000000000000000000000000 000000000000U         000000400  10000000010000006345           
CUS0856290000108025917009         IQBAL NADEEM  IQBAL 2 SPARROW HILL CT                       000N        CARE OF             
MTR08562900001000000000000000RA              36698924    005801940000019400000520000003NN  NNW 000                       N    
RDG08562900WATRL000000004K00000000000003082008511042015110116N000000000000N40       001060400K 10000000010000003041           
RTR08562900NN01940194000001940000000001940194000174NY019401940194000400000000000000000000000002    11032015NY020000 N         
RHD08563100NN01760176000001760000000001760176000179NY017601760176000100010000000000000000000002    11052015NY020000 N         
CUS0856310000108025944003         JOHNSON GAIL N      810 CROSBY RD                           000N        CARE OF             
MTR08563100001000000000000000RA              45376448    005800010000000100000520000003NN  NNW 000                       N    
RDG08563100WATRL000000004K00000000000002446000111092015083039N000000000000N81       000000400K 10000000010000002439           
CUS0856310000108025945000         ODELL ROBERT K      808 CROSBY RD                           000N        CARE OF             
MTR08563100001000000000000000RA              31581080    005800020000000200000520000003NN  NNW 000                       N    
RDG08563100WATRL000000004K00000000000001392000211092015083145N000000000000N81       000660400K 10000000010000001386           
CUS0856310000108025946008         DAVIS DEBORAH       806 CROSBY RD                           000N        CARE OF             
MTR08563100001000000000000000RA              52770105    005800030000000300000520000003NN  NNW 000                       N    
RDG08563100WATRL000000004K00000000000002230000311092015083222N000000000000N81       000370400K 10000000010000002206           
CUS0856310000108025947006         VALLE ADA A         804 CROSBY RD                           000N        CARE OF             
MTR08563100001000000000000000RA              45375818    005800040000000400000520000003NN  NNW 000                       N    
RDG08563100WATRL000000004K00000000000002515000411092015083257N000000000000N81       000350400K 10000000010000002493           
CUS0856310000108025948004         RAGIN JOHN W        802 CROSBY RD                           000N        CARE OF             
MTR08563100001000000000000000RA              01078929    005800050000000500000610000003NN  NNW 000                       N    
RDG08563100WATRL000000004K00000000000000558000511092015083332N000000000000N81       000350400K 10000000010000000551           
CUS0856310000108025949002         SIGAFOOSE JAMES F   800 CROSBY RD                           000N        CARE OF             
MTR08563100001000000000000000RA              45376449    005800060000000600000520000003NN  NNW 000                       N    
RDG08563100WATRL000000004K00000000000002194000611092015083426N000000000000N81       000540400K 10000000010000002187           
CUS0856310000108025950000         GAUTAM PREM         6500 WOODBRIDGE CIR                     000N        CARE OF             
MTR08563100001000000000000000RA              77887482    005800070000000700000360000003NN  NNW 000                       N    
RDG08563100WATRL000000004K00000000000000024000711092015083522N000000000000N81       000560400K 10000000010000000016           
CUS0856310000108025951008         BORLAND LARRY       6502 WOODBRIDGE CIR                     000N        CARE OF             
MTR08563100001000000000000000RA              77989182    005800080000000800000350000003NN  NNW 000                       N    
RDG08563100WATRL000000004K00000000000000067000811092015083646N000000000000N81       000840400K 10000000010000000054           
CUS0856310000108025952006         SCHNEIDER PAUL J    6504 WOODBRIDGE CIR                     000N        CARE OF             
MTR08563100001000000000000000RA              45376499    005800090000000900000520000003NN  NNW 000                       N    
RDG08563100WATRL000000004K00000000000002041000911092015083721N000000000000N81       000350400K 10000000010000002032           
CUS0856310000108025953004         ARIAS MARIA ELENA   6506 WOODBRIDGE CIR                     000N        CARE OF             
MTR08563100001000000000000000RA              36691100    005800100000001000000520000003NN  NNW 000                       N    
RDG08563100WATRL000000004K00000000000001872001011092015083807N000000000000N81       000460400K 10000000010000001842           
CUS0856310000108025954002         WALTON-RAJI ANGELA Y6508 WOODBRIDGE CIR                     000N        CARE OF             
MTR08563100001000000000000000RA              14916280    005800110000001100000310000003NN  NNW 000                       N    
RDG08563100WATRL000000004K00000000000000786001111092015083835N000000000000N81       000280400K 10000000010000000764           
CUS0856310000108025955009         SWIFT DUANE         6510 WOODBRIDGE CIR                     000N        CARE OF             
MTR08563100001000000000000000RA              45382736    005800120000001200000520000003NN  NNW 000                       N    
RDG08563100WATRL000000004K00000000000002642001211092015083910N000000000000N81       000350400K 10000000010000002625           
CUS0856310000108025956007         HAYNES JOYCE E      6512 WOODBRIDGE CIR                     000N        CARE OF             
MTR08563100001000000000000000RA              45376498    005800130000001300000520000003NN  NNW 000                       N    
RDG08563100WATRL000000004K00000000000002343001311232015143124O000400000010N80       000220400K 10000000010000002334           
CUS0856310000108025957005         ALLEN ISAIAH        6514 WOODBRIDGE CIR                     000N        CARE OF             
MTR08563100001000000000000000RA              10016159    005800140000001400000570000003NN  NNW 000                       N    
RDG08563100WATRL000000004K00000000000000245001411092015084006N000000000000N81       000340400K 10000000010000000228           
CUS0856310000108025958003         RODRIGUEZ JUANA     6516 WOODBRIDGE CIR                     000N        CARE OF             
MTR08563100001000000000000000RA              24228820    005800150000001500000520000003NN  NNW 000                       N    
RDG08563100WATRL000000004K00000000000009291001511092015084040N000000000000N81       000340400K 10000000010000009232           
CUS0856310000108025959001         CENTENO MANUEL A    6518 WOODBRIDGE CIR                     000N        CARE OF             
MTR08563100001000000000000000RA              35103227    005800160000001600000520000003NN  NNW 000                       N    
RDG08563100WATRL000000004K00000000000003465001611092015084130N000000000000N81       000500400K 10000000010000003415           
CUS0856310000108025960009         SCHISLER JOHN H     6520 WOODBRIDGE CIR                     000N        CARE OF             
MTR08563100001000000000000000RA              23647766    005800170000001700000520000003NN  NNW 000                       N    
RDG08563100WATRL000000004K00000000000003679001711092015084146N000000000000N81       000160400K 10000000010000003670           
CUS0856310000108025961007         WILSON LAURIE       6522 WOODBRIDGE CIR                     000N        CARE OF             
MTR08563100001000000000000000RA              27213248    005800180000001800000520000003NN  NNW 000                       N    
RDG08563100WATRL000000004K00000000000003755001811092015084219N000000000000N81       000330400K 10000000010000003747           
CUS0856310000108025962005         SCHISLER MELVIN E   6524 WOODBRIDGE CIR                     000N        CARE OF             
MTR08563100001000000000000000RA              01078095    005800190000001900000610000003NN  NNW 000                       N    
RDG08563100WATRL000000004K00000000000000660009811092015101739N000000000000N81       005650400K 10000000010000000647           
CUS0856310000108025963003         MALLOY STEVEN W     6526 WOODBRIDGE CIR                     000N        CARE OF             
MTR08563100001000000000000000RA              26004386    005800200000002000000520000003NN  NNW 000                       N    
RDG08563100WATRL000000004K00000000000004085001911092015084437N000000000000N81       001380400K 10000000010000004074           
CUS0856310000108025964001         REESE ROBERT P      6528 WOODBRIDGE CIR                     000N        CARE OF             
MTR08563100001000000000000000RA              35118702    005800210000002100000520000003NN  NNW 000                       N    
RDG08563100WATRL000000004K00000000000003695002011092015084522N000000000000N81       000450400K 10000000010000003690           
CUS0856310000108025965008         NOVOTNY JAMES T     6530 WOODBRIDGE CIR                     000N        CARE OF             
MTR08563100001000000000000000RA              01078092    005800220000002200000610000003NN  NNW 000                       N    
RDG08563100WATRL000000004K00000000000001611002111092015084551N000000000000N81       000290400K 10000000010000001583           
CUS0856310000108025966006         KIRWAN GAIL L       1319 WILLOW SPRING RD                   000N        CARE OF             
MTR08563100001000000000000000RA              40048243    005800230000002300000520000003NN  NNW 000                       N    
RDG08563100WATRL000000004K00000000000003799002211232015143145O000000000010N80       000720400K 10000000010000003781           
CUS0856310000108025967004         ALTISOURCE SINGLE FA1321 WILLOW SPRING RD                   000N        CARE OF             
MTR08563100001000000000000000RA              23427098    005800240000002400000520000003NN  NNW 000   VACANT / LOT        N    
RDG08563100WATRL000000004K00000000000006132002311092015084731N000000000000N81       000280400K 10000000010000006132           
CUS0856310000108025968002         GREGORY C GOERGE    1323 WILLOW SPRING RD                   000N        CARE OF             
MTR08563100001000000000000000RA              26002137    005800250000002500000520000003NN  NNW 000                       N    
RDG08563100WATRL000000004K00000000000004259002411092015084807N000000000000N81       000360400K 10000000010000004248           
CUS0856310000108404392006         JAMES DAVID         1325 WILLOW SPRING RD                   000N        CARE OF             
MTR08563100001000000000000000RA              44090365    005800260000002600000520000003NN  NNW 000                       N    
RDG08563100WATRL000000004K00000000000002386002511092015084840N000000000000N81       000330400K 10000000010000002378           
CUS0856310000108404367008         FORD JOSEPH F,JR    1327 WILLOW SPRING RD                   000N        CARE OF             
MTR08563100001000000000000000RA              44090362    005800270000002700000520000003NN  NNW 000                       N    
RDG08563100WATRL000000004K00000000000001956002611092015084910N000300000010N81       000300400K 10000000010000001962           
CUS0856310000108407141004         DARGIS DUSTIN T     1329 WILLOW SPRING RD                   000N        CARE OF             
MTR08563100001000000000000000RA              44172189    005800280000002800000520000003NN  NNW 000                       N    
RDG08563100WATRL000000004K00000000000002561002711092015085021N000000000000N81       000710400K 10000000010000002555           
CUS0856310000108398897002         BARKSDALE MICHAEL E 1330 WILLOW SPRING RD                   000N        CARE OF             
MTR08563100001000000000000000RA              40320964    005800290000002900000520000003NN  NNW 000                       N    
RDG08563100WATRL000000004K00000000000002016002811092015085133N000000000000N81       000720400K 10000000010000001992           
CUS0856310000108398901002         DAIRSOW GLORIA K    1328 WILLOW SPRING RD                   000N        CARE OF             
MTR08563100001000000000000000RA              40321025    005800300000003000000520000003NN  NNW 000                       N    
RDG08563100WATRL000000004K00000000000002806002911092015085154N000000000000N81       000210400K 10000000010000002785           
CUS0856310000108025969000         DOUGHER KEVIN M     1326 WILLOW SPRING RD                   000N        CARE OF             
MTR08563100001000000000000000RA              01078091    005800310000003100000610000003NN  NNW 000                       N    
RDG08563100WATRL000000004K00000000000000835003011092015085322N000000000010N81       000880400K 10000000010000000823           
CUS0856310000108379859005         NILES GLEN A        1324 WILLOW SPRING RD                   000N        CARE OF             
MTR08563100001000000000000000RA              30522855    005800320000003200000520000003NN  NNW 000                       N    
RDG08563100WATRL000000004K00000000000003773003111092015085407N000000000000N81       000450400K 10000000010000003762           
CUS0856310000108025970008         DIAZ CARLOS         1320 WILLOW SPRING RD                   000N        CARE OF             
MTR08563100001000000000000000RA              26009433    005800330000003300000520000003NN  NNW 000                       N    
RDG08563100WATRL000000004K00000000000001420003211092015085505N000000000000N81       000580400K 10000000010000001411           
CUS0856310000108025971006         KRZYWICKI RICHARD   1318 WILLOW SPRING RD                   000N        CARE OF             
MTR08563100001000000000000000RA              01078098    005800340000003400000610000003NN  NNW 000                       N    
RDG08563100WATRL000000004K00000000000001742003311092015085614N000000000000N81       000690400K 10000000010000001735           
CUS0856310000108025972004         BURDEN ANGELA T     6534 WOODBRIDGE CIR                     000N        CARE OF             
MTR08563100001000000000000000RA              26005792    005800350000003500000520000003NN  NNW 000                       N    
RDG08563100WATRL000000004K00000000000002476003411092015085756N000000000000N81       001020400K 10000000010000002462           
CUS0856310000108025973002         HODGE CHARLES K     6536 WOODBRIDGE CIR                     000N        CARE OF             
MTR08563100001000000000000000RA              10015971    005800360000003600000570000003NN  NNW 000                       N    
RDG08563100WATRL000000004K00000000000000237003511092015085836N000000000000N81       000400400K 10000000010000000227           
CUS0856310000108025974000         MICHAEL/MARK JR THOM6521 WOODBRIDGE CIR                     000N        CARE OF             
MTR08563100001000000000000000RA              01075886    005800370000003700000610000003NN  NNW 000                       N    
RDG08563100WATRL000000004K00000000000000904003611092015085925N000000000000N81       000490400K 10000000010000000887           
CUS0856310000108025975007         DAVIS AARON H       6519 WOODBRIDGE CIR                     000N        CARE OF             
MTR08563100001000000000000000RA              26004320    005800380000003800000520000003NN  NNW 000                       N    
RDG08563100WATRL000000004K00000000000003394003711092015090042N000000000000N81       000770400K 10000000010000003373           
CUS0856310000108025976005         WRIGHT SANDRA M     6517 WOODBRIDGE CIR                     000N        CARE OF             
MTR08563100001000000000000000RA              41088512    005800390000003900000520000003NN  NNW 000                       N    
RDG08563100WATRL000000004K00000000000001319003811092015090128N000000000000N81       000460400K 10000000010000001314           
CUS0856310000108025977003         GARAYEVA ELVIRA     6515 WOODBRIDGE CIR                     000N        CARE OF             
MTR08563100001000000000000000RA              01078099    005800400000004000000610000003NN  NNW 000                       N    
RDG08563100WATRL000000004K00000000000001217003911092015090236N000000000000N81       000680400K 10000000010000001189           
CUS0856310000108025978001         CAUDLE JAMES L      6513 WOODBRIDGE CIR                     000N        CARE OF             
MTR08563100001000000000000000RA              27213253    005800410000004100000520000003NN  NNW 000                       N    
RDG08563100WATRL000000004K00000000000001708004011092015090414N000000000000N81       000980400K 10000000010000001707           
CUS0856310000108025979009         LANSEY TEAKLE WALLIS6511 WOODBRIDGE CIR                     000N        CARE OF             
MTR08563100001000000000000000RA              48593636    005800420000004200000520000003NN  NNW 000                       N    
RDG08563100WATRL000000004K00000000000001666004111092015090457N000000000000N81       000430400K 10000000010000001659           
CUS0856310000108025980007         BARNABAE VINCENT A  6509 WOODBRIDGE CIR                     000N        CARE OF             
MTR08563100001000000000000000RA              99188453    005800430000004300000570000003NN  NNW 000                       N    
RDG08563100WATRL000000004K00000000000000630004211092015090543N000000000000N81       000460400K 10000000010000000626           
CUS0856310000108025981005         CUSTIS STEWART C,JR 6507 WOODBRIDGE CIR                     000N        CARE OF             
MTR08563100001000000000000000RA              48593732    005800440000004400000520000003NN  NNW 000                       N    
RDG08563100WATRL000000004K00000000000002037004311092015090655N000000000000N81       000720400K 10000000010000002020           
CUS0856310000108025982003         HUMPHREY NEDRICK L  6505 WOODBRIDGE CIR                     000N        CARE OF             
MTR08563100001000000000000000RA              01078097    005800450000004500000610000003NN  NNW 000                       N    
RDG08563100WATRL000000004K00000000000001725004411092015090717N000000000000N81       000220400K 10000000010000001711           
CUS0856310000108025983001         NOOR JUMAGUL        6503 WOODBRIDGE CIR                     000N        CARE OF             
MTR08563100001000000000000000RA              29082780    005800460000004600000520000003NN  NNW 000                       N    
RDG08563100WATRL000000004K00000000000003765004511092015090755N000000000000N81       000380400K 10000000010000003746           
CUS0856310000108025984009         SANBORN SUSAN H     6501 WOODBRIDGE CIR                     000N        CARE OF             
MTR08563100001000000000000000RA              30516832    005800470000004700000520000003NN  NNW 000                       N    
RDG08563100WATRL000000004K00000000000002755004611092015090932N000000000010N81       000970400K 10000000010000002748           
CUS0856310000108025985006         SMITH RICHARD E,JR  1307 WOODBRIDGE RD                      000N        CARE OF             
MTR08563100001000000000000000RA              48591806    005800480000004800000520000003NN  NNW 000                       N    
RDG08563100WATRL000000004K00000000000001722004711092015091020N000000000000N81       000480400K 10000000010000001706           
CUS0856310000108025986004         SEAN M DEHNEL       1309 WOODBRIDGE RD                      000N        CARE OF             
MTR08563100001000000000000000RA              01092506    005800490000004900000610000003NN  NNW 000                       N    
RDG08563100WATRL000000004K00000000000000714004811092015091102N000000000000N81       000420400K 10000000010000000691           
CUS0856310000108025987002         EDMONDS THOMAS B    1311 WOODBRIDGE RD                      000N        CARE OF             
MTR08563100001000000000000000RA              45382844    005800500000005000000520000003NN  NNW 000                       N    
RDG08563100WATRL000000004K00000000000001158004911092015091132N000000000000N81       000300400K 10000000010000001145           
CUS0856310000108025988000         BRONICO GIOVANNI    1313 WOODBRIDGE RD                      000N        CARE OF             
MTR08563100001000000000000000RA              99999999    005800510000005100000610000003NN  NNW 000                       N    
RDG08563100WATRL000000004K00000000000001194005011092015091204N000000000000N81       000320400K 10000000010000001179           
CUS0856310000108409642009         SALMA PARVEEN       1317 DILLON HEIGHTS AVE                 000N        CARE OF             
MTR08563100001000000000000000RA              45378382    005800520000005200000520000003NN  NNW 000                       N    
RDG08563100WATRL000000004K00000000000003214005111092015091600N000000000000N81       002360400K 10000000010000003063           
CUS0856310000108410375003         IBRAHIM MOHAMMED    1319 DILLON HEIGHTS AVE                 000N        CARE OF             
MTR08563100001000000000000000RA              45381198    005800530000005300000520000003NN  NNW 000                       N    
RDG08563100WATRL000000004K00000000000001804005211092015091712N000000000000N81       000720400K 10000000010000001773           
CUS0856310000108025989008         MUSE MICHAEL J      1321 DILLON HEIGHTS AVE                 000N        CARE OF             
MTR08563100001000000000000000RA              7202871     005800540000005400000440000003NN  NNW 000                       N    
RDG08563100WATRL000000004K00000000000004795005311092015091753N000000000000N81       000410400K 10000000010000004766           
CUS0856310000108025990006         YATES CHARLES H     1325 DILLON HEIGHTS AVE                 000N        CARE OF             
MTR08563100001000000000000000RA              01078093    005800550000005500000610000003NN  NNW 000                       N    
RDG08563100WATRL000000004K00000000000001862005411092015091905N000000000000N81       000720400K 10000000010000001841           
CUS0856310000108025991004         KING BARBARA L      1327 DILLON HEIGHTS AVE                 000N        CARE OF             
MTR08563100001000000000000000RA              01078103    005800560000005600000610000003NN  NNW 000                       N    
RDG08563100WATRL000000004K00000000000001972005511092015092222N000000000000N81       001970400K 10000000010000001954           
CUS0856310000108025992002         MORSBERGER JAMES    1329 DILLON HEIGHTS AVE                 000N        CARE OF             
MTR08563100001000000000000000RA              01078090    005800570000005700000610000003NN  NNW 000                       N    
RDG08563100WATRL000000004K00000000000000928005611092015092307N000000000000N81       000450400K 10000000010000000920           
CUS0856310000108410613007         KHAN TARIQ          1331 DILLON HEIGHTS AVE                 000N        CARE OF             
MTR08563100001000000000000000RA              45384571    005800580000005800000520000003NN  NNW 000                       N    
RDG08563100WATRL000000004K00000000000003410005711092015092333N000000000000N81       000260400K 10000000010000003401           
CUS0856310000108025993000         KHAN TARIQ BASHIR   1333 DILLON HEIGHTS AVE                 000N        CARE OF             
MTR08563100001000000000000000RA              01078094    005800590000005900000610000003NN  NNW 000                       N    
RDG08563100WATRL000000004K00000000000001122005811092015092414N000000000000N81       000410400K 10000000010000001080           
CUS0856310000108402575008         KANINE ZOUHEIR      1337 DILLON HEIGHTS AVE                 000N        CARE OF             
MTR08563100001000000000000000RA              41081220    005800600000006000000520000003NN  NNW 000                       N    
RDG08563100WATRL000000004K00000000000002156005911092015092522N000000000000N81       000680400K 10000000010000002102           
CUS0856310000108025994008         ISLAMIC SOCIETY OF B6625 JOHNNYCAKE RD                      000N        CARE OF             
MTR08563100001000000000000000RA              50480362    005800610000006100000520000003NY  NNW 000                       N    
MTM0856310050480362    BURIED                                                                                                 
RDG08563100WATRL000000004K00000000000000000006000000000000000 000000000000U         000000400  10000000010000001832           
CUS0856310000108025995005         THE ISLAMIC SOCIETY 6623 JOHNNYCAKE RD                      000N        CARE OF             
MTR08563100001000000000000000RA              39289853    005800620000006200000520000003NN  NNW 000                       N    
RDG08563100WATRL000000004K00000000000001786006111092015104351N000300000022N81       000860400K 10000000010000001789           
CUS0856310000108025996003         CAPOBIANCO ELLA C   6621 JOHNNYCAKE RD                      000N        CARE OF             
MTR08563100001000000000000000RA              77887439    005800630000006300000360000003NN  NNW 000                       N    
RDG08563100WATRL000000004K00000000000000018010911092015104225N000000000000N81       000770400K 10000000010000000012           
CUS0856310000108025997001         HUSSAIN ABDUL NASIR 6619 JOHNNYCAKE RD                      000N        CARE OF             
MTR08563100001000000000000000RA              27817507    005800640000006400000520000003NN  NNW 000                       N    
RDG08563100WATRL000000004K00000000000004195010811092015104108N000000000010N81       000340400K 10000000010000004182           
CUS0856310000108025998009         KHAN TARIQ B        6617 JOHNNYCAKE RD                      000N        CARE OF             
MTR08563100001000000000000000RA              77887437    005800650000006500000360000003NN  NNW 000                       N    
RDG08563100WATRL000000004K00000000000000224010711092015104034N000000000000N81       000380400K 10000000010000000149           
CUS0856310000108025999007         JESSEN DOROTHY L    6615 JOHNNYCAKE RD                      000N        CARE OF             
