FHDNNNN013002740002740002740N                                                                                           008782
RHD04817000NN02370237000002370000000002370237000106NY023702370237000600010000000000000000000001    11092015NY020000 N         
CUS0481700000104402633004         BAHATTIN ERGIN      4416 SOUTHFIELD DR                      000N        CARE OF             
MTR04817000001000000000000000RA              41588876    005800010000000100000520000003NN  NNW 000                       N    
RDG04817000WATRL000000004K00000000000001789000111192015074509N000000000000NFC08     000000400K 10000000010000001761           
CUS0481700000104402634002         POLK WALTER E,JR    4414 SOUTHFIELD DR                      000N        CARE OF             
MTR04817000001000000000000000RA              14928706    005800020000000200000310000003NN  NNW 000                       N    
RDG04817000WATRL000000004K00000000000000412000211192015074604N000000000000NFC08     000550400K 10000000010000000407           
CUS0481700000104402635009         TITUS JENNIFER M    4412 SOUTHFIELD DR                      000N        CARE OF             
MTR04817000001000000000000000RA              14929159    005800030000000300000310000003NN  NNW 000                       N    
RDG04817000WATRL000000004K00000000000000601000311192015074607N000300000010NFC08     000030400K 10000000010000000523           
CUS0481700000104402636007         SEAMAN SHAWNNA A    4410 SOUTHFIELD DR                      000N        CARE OF             
MTR04817000001000000000000000RA              48588892    005800040000000400000520000003NN  NNW 000                       N    
RDG04817000WATRL000000004K00000000000001639000411192015074714N000000000000NFC08     000670400K 10000000010000001604           
CUS0481700000104402637005         MECCA ROBERT J,JR   4408 SOUTHFIELD DR                      000N        CARE OF             
MTR04817000001000000000000000RA              41588785    005800050000000500000520000003NN  NNW 000                       N    
RDG04817000WATRL000000004K00000000000002002000511192015074745N000000000000NFC08     000310400K 10000000010000001986           
CUS0481700000104402638003         ALEXANDER R FILIPKOW4406 SOUTHFIELD DR                      000N        CARE OF             
MTR04817000001000000000000000RA              52286083    005800060000000600000520000003NN  NNW 000                       N    
RDG04817000WATRL000000004K00000000000001322000611192015074812N000000000000NFC08     000270400K 10000000010000001311           
CUS0481700000104402639001         LETITIA D BLACK     4404 SOUTHFIELD DR                      000N        CARE OF             
MTR04817000001000000000000000RA              41588783    005800070000000700000520000003NN  NNW 000                       N    
RDG04817000WATRL000000004K00000000000001631000711192015074825N000000000000NFC08     000130400K 10000000010000001603           
CUS0481700000104402640009         PRESS LEIGH         4402 SOUTHFIELD DR                      000N        CARE OF             
MTR04817000001000000000000000RA              42810520    005800080000000800000520000003NN  NNW 000                       N    
RDG04817000WATRL000000004K00000000000002732000811192015074907N000000000000NFC08     000420400K 10000000010000002704           
CUS0481700000104402641007         CLEMENTE DANILO  CLE4400 SOUTHFIELD DR                      000N        CARE OF             
MTR04817000001000000000000000RA              42810603    005800090000000900000520000003NN  NNW 000                       N    
RDG04817000WATRL000000004K00000000000002765000911192015074921N000000000000NFC08     000140400K 10000000010000002745           
CUS0481700000104400039006         BURKE JULIE A       1 MARGERY CT                            000N        CARE OF             
MTR04817000001000000000000000RA              41588790    005800100000001000000520000003NN  NNW 000                       N    
RDG04817000WATRL000000004K00000000000001776001011192015075157N000000000000NFC08     001560400K 10000000010000001769           
CUS0481700000104400040004         SANGHA GURPAL SINGH 3 MARGERY CT                            000N        CARE OF             
MTR04817000001000000000000000RA              41588789    005800110000001100000520000003NN  NNW 000                       N    
RDG04817000WATRL000000004K00000000000004632001111192015075229N000000000000NFC08     000320400K 10000000010000004585           
CUS0481700000104400041002         AUNG KHANT          5 MARGERY CT                            000N        CARE OF             
MTR04817000001000000000000000RA              77889626    005800120000001200000350000003NN  NNW 000                       N    
RDG04817000WATRL000000004K00000000000000070001211192015075231N000000000000NFC08     000020400K 10000000010000000044           
CUS0481700000104400042000         TOOTEN TIMOTHY L    7 MARGERY CT                            000N        CARE OF             
MTR04817000001000000000000000RA              44002058    005800130000001300000520000003NN  NNW 000                       N    
RDG04817000WATRL000000004K00000000000003180001311192015075258N000000000000NFC08     000270400K 10000000010000003164           
CUS0481700000104400043008         BARBARA E PERRIUE   9 MARGERY CT                            000N        CARE OF             
MTR04817000001000000000000000RA              41588788    005800140000001400000520000003NN  NNW 000                       N    
RDG04817000WATRL000000004K00000000000001700001411192015075259N000000000000NFC08     000010400K 10000000010000001679           
CUS0481700000104400044006         GESLOIS DAVID       15 MARGERY CT                           000N        CARE OF             
MTR04817000001000000000000000RA              78006092    005800150000001500000360000003NN  NNW 000                       N    
RDG04817000WATRL000000004K00000000000000043001511192015075336N000000000000NFC08     000370400K 10000000010000000028           
CUS0481700000104400045003         ROSE BARBARA E      17 MARGERY CT                           000N        CARE OF             
MTR04817000001000000000000000RA              41589844    005800160000001600000520000003NN  NNW 000                       N    
RDG04817000WATRL000000004K00000000000001924001611192015075348N000000000000NFC08     000120400K 10000000010000001915           
CUS0481700000104400046001         ALLEN PAUL          19 MARGERY CT                           000N        CARE OF             
MTR04817000001000000000000000RA              41589845    005800170000001700000520000003NN  NNW 000                       N    
RDG04817000WATRL000000004K00000000000002000001711192015075359N000300000010NFC08     000110400K 10000000010000001994           
CUS0481700000104400047009         MAZZONE, DANIELA M  21 MARGERY CT                           000N        CARE OF             
MTR04817000001000000000000000RA              14923446    005800180000001800000310000003NN  NNW 000                       N    
RDG04817000WATRL000000004K00000000000000517001811192015075416N000000000000NFC08     000170400K 10000000010000000499           
CUS0481700000104400048007         OTOOLE JAMES J      46 MARGERY CT                           000N        CARE OF             
MTR04817000001000000000000000RA              01078968    005800190000001900000610000003NN  NNW 000                       N    
RDG04817000WATRL000000004K00000000000000000000000000000000000 000000000000U         000000400  10000000010000000600           
CUS0481700000104400049005         GOLABIEWSKI AMY K   44 MARGERY CT                           000N        CARE OF             
MTR04817000001000000000000000RA              41074859    005800200000002000000520000003NN  NNW 000                       N    
RDG04817000WATRL000000004K00000000000001878001911192015075452N000000000000NFC08     000360400K 10000000010000001865           
CUS0481700000104400050003         SEXTON STEVEN R     42 MARGERY CT                           000N        CARE OF             
MTR04817000001000000000000000RA              41074906    005800210000002100000520000003NN  NNW 000                       N    
RDG04817000WATRL000000004K00000000000001580002011192015075455N000000000000NFC08     000030400K 10000000010000001566           
CUS0481700000104400051001         LAFEVERS SANDRA     40 MARGERY CT                           000N        CARE OF             
MTR04817000001000000000000000RA              41074488    005800220000002200000520000003NN  NNW 000                       N    
RDG04817000WATRL000000004K00000000000002566002111192015075528N000000000000NFC08     000330400K 10000000010000002554           
CUS0481700000104400052009         EBEL LORRAINE F     38 MARGERY CT                           000N        CARE OF             
MTR04817000001000000000000000RA              41074486    005800230000002300000520000003NN  NNW 000                       N    
RDG04817000WATRL000000004K00000000000002346002211192015075530N000000000000NFC08     000020400K 10000000010000002330           
CUS0481700000104400038008         OSSMUS LAURA A      36 MARGERY CT                           000N        CARE OF             
MTR04817000001000000000000000RA              77888971    005800240000002400000360000003NN  NNW 000                       N    
RDG04817000WATRL000000004K00000000000000018002311192015075600N000300000010NFC08     000300400K 10000000010000000002           
CUS0481700000104400037000         MICHAEL K WEISS     34 MARGERY CT                           000N        CARE OF             
MTR04817000001000000000000000RA              10021884    005800250000002500000570000003NN  NNW 000                       N    
RDG04817000WATRL000000004K00000000000000226002411192015075615N000000000000NFC08     000150400K 10000000010000000209           
CUS0481700000104400053007         ATHEED A AZZET      32 MARGERY CT                           000N        CARE OF             
MTR04817000001000000000000000RA              10008855    005800260000002600000570000003NN  NNW 000                       N    
RDG04817000WATRL000000004K00000000000000589002511192015075631N000000000000NFC08     000160400K 10000000010000000569           
CUS0481700000104400054005         LARSON JOHN W       30 MARGERY CT                           000N        CARE OF             
MTR04817000001000000000000000RA              41074685    005800270000002700000520000003NN  NNW 000                       N    
RDG04817000WATRL000000004K00000000000000723002611192015075644N000000000000NFC08     000130400K 10000000010000000712           
CUS0481700000104400055002         SMITH JACOB H,5TH   26 MARGERY CT                           000N        CARE OF             
MTR04817000001000000000000000RA              41076801    005800280000002800000520000003NN  NNW 000                       N    
RDG04817000WATRL000000004K00000000000000000002711192015075714S063000000000NFC08     000300400K 10000000010000002142           
CUS0481700000104400056000         WEBER JESSICA       24 MARGERY CT                           000N        CARE OF             
MTR04817000001000000000000000RA              41076796    005800290000002900000520000003NN  NNW 000                       N    
RDG04817000WATRL000000004K00000000000002321002811192015075739N000000000000NFC08     000250400K 10000000010000002306           
CUS0481700000104400057008         BELTRAN ENRICO,JR   22 MARGERY CT                           000N        CARE OF             
MTR04817000001000000000000000RA              41076798    005800300000003000000520000003NN  NNW 000                       N    
RDG04817000WATRL000000004K00000000000002669002911192015075748N000000000000NFC08     000090400K 10000000010000002654           
CUS0481700000104400058006         BELING JEFFREY E    20 MARGERY CT                           000N        CARE OF             
MTR04817000001000000000000000RA              10002203    005800310000003100000570000003NN  NNW 000                       N    
RDG04817000WATRL000000004K00000000000000297003011192015075805N000000000000NFC08     000170400K 10000000010000000282           
CUS0481700000104400059004         COATES THOMAS E     18 MARGERY CT                           000N        CARE OF             
MTR04817000001000000000000000RA              50478319    005800320000003200000520000003NN  NNW 000                       N    
RDG04817000WATRL000000004K00000000000001454003111192015075817N000000000000NFC08     000120400K 10000000010000001436           
CUS0481700000104400060002         CHRISTOPHER P INGLES16 MARGERY CT                           000N        CARE OF             
MTR04817000001000000000000000RA              41076800    005800330000003300000520000003NN  NNW 000                       N    
RDG04817000WATRL000000004K00000000000002958003211192015075846N000300000010NFC08     000290400K 10000000010000002929           
CUS0481700000102400061004         MICHAEL REEDER      12 MARGERY CT                           000N        CARE OF             
MTR04817000001000000000000000RA              41082626    005800340000003400000520000003NN  NNW 000                       N    
RDG04817000WATRL000000004K00000000000002178003311192015075927N000000000000NFC08     000410400K 10000000010000002171           
CUS0481700000104400062008         FONTANILLA BENIGNO A10 MARGERY CT                           000N        CARE OF             
MTR04817000001000000000000000RA              14907658    005800350000003500000310000003NN  NNW 000                       N    
RDG04817000WATRL000000004K00000000000000721003411192015075957N000000000000NFC08     000300400K 10000000010000000695           
CUS0481700000104400063006         ROBERT G GIBLIN     8 MARGERY CT                            000N        CARE OF             
MTR04817000001000000000000000RA              14907660    005800360000003600000310000003NN  NNW 000                       N    
RDG04817000WATRL000000004K00000000000000314003511192015075958N000000000000NFC08     000010400K 10000000010000000308           
CUS0481700000104400064004         PROVENZANO BARBARA M6 MARGERY CT                            000N        CARE OF             
MTR04817000001000000000000000RA              01112287    005800370000003700000610000003NN  NNW 000                       N    
RDG04817000WATRL000000004K00000000000000226003611192015080022N000000000000NFC08     000240400K 10000000010000000209           
CUS0481700000104400065001         ELIZABETH M TAYLOR  4 MARGERY CT                            000N        CARE OF             
MTR04817000001000000000000000RA              01112287    005800380000003800000610000003NN  NNW 000                       N    
RDG04817000WATRL000000004K00000000000001115003711192015080023N000000000000NFC08     000010400K 10000000010000001087           
CUS0481700000104400066009         BRAJEVICH NANCY JOAN2 MARGERY CT                            000N        CARE OF             
MTR04817000001000000000000000RA              99290974    005800390000003900000570000003NN  NNW 000                       N    
RDG04817000WATRL000000004K00000000000001419003811192015080052N000000000000NFC08     000290400K 10000000010000001400           
CUS0481700000104400098002         DANILO L. IIAGAN    4316 SOUTHFIELD DR                      000N        CARE OF             
MTR04817000001000000000000000RA              01114240    005800400000004000000610000003NN  NNW 000                       N    
RDG04817000WATRL000000004K00000000000001172003911192015080245N000000000000NFC08     001130400K 10000000010000001133           
CUS0481700000104400099000         CHO MIN H           4314 SOUTHFIELD DR                      000N        CARE OF             
MTR04817000001000000000000000RA              41080862    005800410000004100000520000003NN  NNW 000                       N    
RDG04817000WATRL000000004K00000000000003536004011192015080352N000000000000NFC08     000670400K 10000000010000003516           
CUS0481700000104400100006         PETRUCCI FRANK J,JR 4312 SOUTHFIELD DR                      000N        CARE OF             
MTR04817000001000000000000000RA              01111701    005800420000004200000610000003NN  NNW 000                       N    
RDG04817000WATRL000000004K00000000000000542004111192015080403N000300000010NFC08     000110400K 10000000010000000532           
CUS0481700000104400101004         MARY S DUGGAN       4310 SOUTHFIELD DR                      000N        CARE OF             
MTR04817000001000000000000000RA              45385350    005800430000004300000520000003NN  NNW 000                       N    
RDG04817000WATRL000000004K00000000000001229004211192015080425N000000000010NFC08     000220400K 10000000010000001224           
CUS0481700000104400102002         FROCK MICHELE L     4308 SOUTHFIELD DR                      000N        CARE OF             
MTR04817000001000000000000000RA              10003015    005800440000004400000570000003NN  NNW 000                       N    
RDG04817000WATRL000000004K00000000000000440004311192015080454N000000000000NFC08     000290400K 10000000010000000430           
CUS0481700000104400103000         ROBERTS JACQUELINE M4306 SOUTHFIELD DR                      000N        CARE OF             
MTR04817000001000000000000000RA              41080859    005800450000004500000520000003NN  NNW 000                       N    
RDG04817000WATRL000000004K00000000000002872004411192015080530N000000000000NFC08     000360400K 10000000010000002858           
CUS0481700000104400104008         NATHAN B BICKERSTAFF4304 SOUTHFIELD DR                      000N        CARE OF             
MTR04817000001000000000000000RA              01084610    005800460000004600000610000000NN  NNW 000                       N    
RDG04817000WATRL000000004K00000000000000972004511192015080532N000000000000NFC08     000020400K 10000000010000000954           
CUS0481700000104400105005         VIEL CARRIE L       4302 SOUTHFIELD DR                      000N        CARE OF             
MTR04817000001000000000000000RA              01101533    005800470000004700000610000003NN  NNW 000                       N    
RDG04817000WATRL000000004K00000000000000713004611192015080558N000300000010NFC08     000260400K 10000000010000000700           
CUS0481700000104400106003         RUSH SHERRY         4300 SOUTHFIELD DR                      000N        CARE OF             
MTR04817000001000000000000000RA              99287198    005800480000004800000570000003NN  NNW 000                       N    
RDG04817000WATRL000000004K00000000000000813004711192015080600N000000000000NFC08     000020400K 10000000010000000802           
CUS0481700000104403118005         RAPISARDA DOUGLAS J 8201 BERRYFIELD DR                      000N        CARE OF             
MTR04817000001000000000000000RA              44176323    005800490000004900000520000003NN  NNW 000                       N    
RDG04817000WATRL000000004K00000000000001288004811192015081503N000000000000NFC08     005430400K 10000000010000001275           
CUS0481700000104403120001         ASHLEY HARDER       8203 BERRYFIELD DR                      000N        CARE OF             
MTR04817000001000000000000000RA              10003616    005800500000005000000570000003NN  NNW 000                       N    
RDG04817000WATRL000000004K00000000000000376004911192015081518N000000000000NFC08     000150400K 10000000010000000363           
CUS0481700000104403121009         BRANT EVAN          8205 BERRYFIELD DR                      000N        CARE OF             
MTR04817000001000000000000000RA              44176372    005800510000005100000520000003NN  NNW 000                       N    
RDG04817000WATRL000000004K00000000000002075005011192015081528N000000000000NFC08     000100400K 10000000010000002057           
CUS0481700000104403123005         C SCOTT WELLER      8207 BERRYFIELD DR                      000N        CARE OF             
MTR04817000001000000000000000RA              00126686    005800520000005200000570000003NN  NNW 000                       N    
RDG04817000WATRL000000004K00000000000000000000000000000000000 000000000000U         000000400  10000000010000000699           
CUS0481700000104403135009         FOLTYN GEOFFREY M   8209 BERRYFIELD DR                      000N        CARE OF             
MTR04817000001000000000000000RA              99189258    005800530000005300000570000003NN  NNW 000                       N    
RDG04817000WATRL000000004K00000000000000000000000000000000000 000000000000U         000000400  10000000010000001450           
CUS0481700000104403143003         RUSH WILLIAM        8211 BERRYFIELD DR                      000N        CARE OF             
MTR04817000001000000000000000RA              44176369    005800540000005400000520000003NN  NNW 000                       N    
RDG04817000WATRL000000004K00000000000000000000000000000000000 000000000000U         000000400  10000000010000002317           
CUS0481700000104403144001         STALEY ERIN C       8213 BERRYFIELD DR                      000N        CARE OF             
MTR04817000001000000000000000RA              14914322    005800550000005500000310000003NN  NNW 000                       N    
RDG04817000WATRL000000004K00000000000000587005111192015081633N000000000000NFC08     000650400K 10000000010000000574           
CUS0481700000104403145008         ERNST MARY C        8215 BERRYFIELD DR                      000N        CARE OF             
MTR04817000001000000000000000RA              44176373    005800560000005600000520000003NN  NNW 000                       N    
RDG04817000WATRL000000004K00000000000003393005211192015081658N000000000000NFC08     000250400K 10000000010000003355           
CUS0481700000104403127006         SWINGLE RONALD R    8221 BERRYFIELD DR                      000N        CARE OF             
MTR04817000001000000000000000RA              01083440    005800570000005700000610000003NN  NNW 000                       N    
RDG04817000WATRL000000004K00000000000001322005311192015081816N000000000000NFC08     000780400K 10000000010000001309           
CUS0481700000104403126008         HALL DIANE WORKMAN  8223 BERRYFIELD DR                      000N        CARE OF             
MTR04817000001000000000000000RA              30527352    005800580000005800000520000003NN  NNW 000                       N    
RDG04817000WATRL000000004K00000000000001909005411192015081844N000000000000NFC08     000280400K 10000000010000001899           
CUS0481700000104403125000         MARTELLO MELISSA A  8225 BERRYFIELD DR                      000N        CARE OF             
MTR04817000001000000000000000RA              31587894    005800590000005900000520000003NN  NNW 000                       N    
RDG04817000WATRL000000004K00000000000003335005511192015081845N000000000000NFC08     000010400K 10000000010000003316           
CUS0481700000104403124003         KUENZEL PAUL W      8227 BERRYFIELD DR                      000N        CARE OF             
MTR04817000001000000000000000RA              40047565    005800600000006000000520000003NN  NNW 000                       N    
RDG04817000WATRL000000004K00000000000002499005611192015081905N000000000000NFC08     000200400K 10000000010000002480           
CUS0481700000104403122007         ERIC S SAPPINGTON   8229 BERRYFIELD DR                      000N        CARE OF             
MTR04817000001000000000000000RA              32899746    005800610000006100000520000003NN  NNW 000                       N    
RDG04817000WATRL000000004K00000000000002529005711192015081913N000000000000NFC08     000080400K 10000000010000002516           
CUS0481700000104403105002         POMMETT LAURA L     8231 BERRYFIELD DR                      000N        CARE OF             
MTR04817000001000000000000000RA              33734734    005800620000006200000520000003NN  NNW 000                       N    
RDG04817000WATRL000000004K00000000000003634005811192015081937N000000000000NFC08     000240400K 10000000010000003567           
CUS0481700000104403104005         HOVATTER JAMIE D    8233 BERRYFIELD DR                      000N        CARE OF             
MTR04817000001000000000000000RA              50480864    005800630000006300000520000003NN  NNW 000                       N    
RDG04817000WATRL000000004K00000000000002404005911192015081942N000400000010NFC08     000050400K 10000000010000002383           
CUS0481700000104403099007         N & Z HASHMI        8235 BERRYFIELD DR                      000N        CARE OF             
MTR04817000001000000000000000RA              99188753    005800640000006400000570000003NN  NNW 000                       N    
RDG04817000WATRL000000004K00000000000001500006011192015082000N000400000010NFC08     000180400K 10000000010000001489           
CUS0481700000104403098009         VAZQUEZ OCTAVIO     8237 BERRYFIELD DR                      000N        CARE OF             
MTR04817000001000000000000000RA              52769721    005800650000006500000520000003NN  NNW 000                       N    
RDG04817000WATRL000000004K00000000000001337006111192015082022N000000000000NFC08     000220400K 10000000010000001317           
CUS0481700000104403097001         HARRISON ALLEN      8239 BERRYFIELD DR                      000N        CARE OF             
MTR04817000001000000000000000RA              41088186    005800660000006600000520000003NN  NNW 000                       N    
RDG04817000WATRL000000004K00000000000002894006211192015082035N000000000000NFC08     000130400K 10000000010000002864           
CUS0481700000104403096003         BAWAR JOY R         8241 BERRYFIELD DR                      000N        CARE OF             
MTR04817000001000000000000000RA              41081883    005800670000006700000520000003NN  NNW 000                       N    
RDG04817000WATRL000000004K00000000000000848006311192015082058N000000000000NFC08     000230400K 10000000010000000840           
CUS0481700000104403095005         MCNULTY PATRICK     8243 BERRYFIELD DR                      000N        CARE OF             
MTR04817000001000000000000000RA              41088189    005800680000006800000520000003NN  NNW 000                       N    
RDG04817000WATRL000000004K00000000000002336006411192015082126N000000000000NFC08     000280400K 10000000010000002311           
CUS0481700000104403094008         DANIEL MARCONI      8245 BERRYFIELD DR                      000N        CARE OF             
MTR04817000001000000000000000RA              41082075    005800690000006900000520000003NN  NNW 000                       N    
RDG04817000WATRL000000004K00000000000002093006511192015082129N000000000000NFC08     000030400K 10000000010000002077           
CUS0481700000104403156005         CARR SANDRA J       8247 BERRYFIELD DR                      000N        CARE OF             
MTR04817000001000000000000000RA              42808682    005800700000007000000520000003NN  NNW 000                       N    
RDG04817000WATRL000000004K00000000000001383006611192015082150N000000000010NFC08     000210400K 10000000010000001374           
CUS0481700000104403155007         ALEXIS L WEINRICH   8249 BERRYFIELD DR                      000N        CARE OF             
MTR04817000001000000000000000RA              42808529    005800710000007100000520000003NN  NNW 000                       N    
RDG04817000WATRL000000004K00000000000002036006711192015082203N000000000000NFC08     000130400K 10000000010000002031           
CUS0481700000104403154000         LAMONS SHERRY Y     8251 BERRYFIELD DR                      000N        CARE OF             
MTR04817000001000000000000000RA              42808527    005800720000007200000520000003NN  NNW 000                       N    
RDG04817000WATRL000000004K00000000000002319006811192015082206N000000000000NFC08     000030400K 10000000010000002297           
CUS0481700000104403153002         MERBAUM STEPHEN     8253 BERRYFIELD DR                      000N        CARE OF             
MTR04817000001000000000000000RA              46883606    005800730000007300000520000003NN  NNW 000                       N    
RDG04817000WATRL000000004K00000000000001600006911192015082222N000000000000NFC08     000160400K 10000000010000001587           
CUS0481700000104403152004         GLAVA MARLENE J     8255 BERRYFIELD DR                      000N        CARE OF             
MTR04817000001000000000000000RA              42808526    005800740000007400000520000003NN  NNW 000                       N    
RDG04817000WATRL000000004K00000000000001980007011192015082228N000000000000NFC08     000060400K 10000000010000001929           
CUS0481700000104403151006         QUARANTA THOMAS L, J8257 BERRYFIELD DR                      000N        CARE OF             
MTR04817000001000000000000000RA              10004158    005800750000007500000570000003NN  NNW 000                       N    
RDG04817000WATRL000000004K00000000000000725007111192015082309N000300000010NFC08     000410400K 10000000010000000646           
CUS0481700000104403150008         SAMMANASU, FRANCIS  8259 BERRYFIELD DR                      000N        CARE OF             
MTR04817000001000000000000000RA              14908788    005800760000007600000310000003NN  NNW 000                       N    
RDG04817000WATRL000000004K00000000000000267007211242015142052O000400000010N80       000180400K 10000000010000000263           
CUS0481700000104403149000         DAVIS CARLEE        8261 BERRYFIELD DR                      000N        CARE OF             
MTR04817000001000000000000000RA              42809117    005800770000007700000520000003NN  NNW 000                       N    
RDG04817000WATRL000000004K00000000000002804007311192015082341N000400000031NFC08     000070400K 10000000010000002756           
CUS0481700000104403148002         KIOUNE MIEN-DOOR    8263 BERRYFIELD DR                      000N        CARE OF             
MTR04817000001000000000000000RA              42809116    005800780000007800000520000003NN  NNW 000                       N    
RDG04817000WATRL000000004K00000000000003020007411192015082400N000300000010NFC08     000190400K 10000000010000002974           
CUS0481700000104403147004         CONWAY JOHN L,3RD   8265 BERRYFIELD DR                      000N        CARE OF             
MTR04817000001000000000000000RA              10021438    005800790000007900000570000003NN  NNW 000                       N    
RDG04817000WATRL000000004K00000000000000273007511192015082403N000000000000NFC08     000030400K 10000000010000000262           
CUS0481700000104403146006         SCRIBNER STEPHEN    8267 BERRYFIELD DR                      000N        CARE OF             
MTR04817000001000000000000000RA              52768194    005800800000008000000520000003NN  NNW 000                       N    
RDG04817000WATRL000000004K00000000000001799007611192015082451N000300000010NFC08     000480400K 10000000010000001737           
CUS0481700000104403178009         BULL MELVIN         8269 BERRYFIELD DR                      000N        CARE OF             
MTR04817000001000000000000000RA              14925027    005800810000008100000310000003NN  NNW 000                       N    
RDG04817000WATRL000000004K00000000000001243007711192015082848N000000000000NFC08     002370400K 10000000010000001207           
CUS0481700000104403177001         MAXWELL RICHARD G   8271 BERRYFIELD DR                      000N        CARE OF             
MTR04817000001000000000000000RA              44086501    005800820000008200000520000003NN  NNW 000                       N    
RDG04817000WATRL000000004K00000000000000879007811192015082918N000300000010NFC08     000300400K 10000000010000000829           
CUS0481700000104403176003         FERRARSE GEORGE J   8273 BERRYFIELD DR                      000N        CARE OF             
MTR04817000001000000000000000RA              14910830    005800830000008300000310000003NN  NNW 000                       N    
RDG04817000WATRL000000004K00000000000000467007911192015082920N000000000000NFC08     000020400K 10000000010000000455           
CUS0481700000104403175005         STACHURSKI DENISE A 8275 BERRYFIELD DR                      000N        CARE OF             
MTR04817000001000000000000000RA              99189086    005800840000008400000570000003NN  NNW 000                       N    
RDG04817000WATRL000000004K00000000000002636008011192015082941N000000000000NFC08     000210400K 10000000010000002594           
CUS0481700000104403174008         BROWN DAVID JASON   8277 BERRYFIELD DR                      000N        CARE OF             
MTR04817000001000000000000000RA              99188955    005800850000008500000570000003NN  NNW 000                       N    
RDG04817000WATRL000000004K00000000000001537008111192015082943N000000000000NFC08     000020400K 10000000010000001512           
CUS0481700000104403173000         PIAZZA SHIRLEY A    8279 BERRYFIELD DR                      000N        CARE OF             
MTR04817000001000000000000000RA              10007007    005800860000008600000570000003NN  NNW 000                       N    
RDG04817000WATRL000000004K00000000000000133008211192015083000N000000000000NFC08     000170400K 10000000010000000127           
CUS0481700000104403172002         MCMULLEN CHARLES L,J8281 BERRYFIELD DR                      000N        CARE OF             
MTR04817000001000000000000000RA              10007164    005800870000008700000570000003NN  NNW 000                       N    
RDG04817000WATRL000000004K00000000000000517008311192015083027N000000000000NFC08     000270400K 10000000010000000502           
CUS0481700000104403171004         HEPNER JESSICA L    8283 BERRYFIELD DR                      000N        CARE OF             
MTR04817000001000000000000000RA              44089383    005800880000008800000520000003NN  NNW 000                       N    
RDG04817000WATRL000000004K00000000000002449008411192015083050N000000000000NFC08     000230400K 10000000010000002431           
CUS0481700000104403170006         SMERO KATHLEEN A    8285 BERRYFIELD DR                      000N        CARE OF             
MTR04817000001000000000000000RA              44089381    005800890000008900000520000003NN  NNW 000                       N    
RDG04817000WATRL000000004K00000000000002033008511192015083051N000000000000NFC08     000010400K 10000000010000002021           
CUS0481700000104403169008         JUNGBLUT MICHAEL J  8287 BERRYFIELD DR                      000N        CARE OF             
MTR04817000001000000000000000RA              01111914    005800900000009000000610000003NN  NNW 000                       N    
RDG04817000WATRL000000004K00000000000000545008611192015083118N000000000000NFC08     000270400K 10000000010000000530           
CUS0481700000104403163001         SWANN BRANDON T     8289 BERRYFIELD DR                      000N        CARE OF             
MTR04817000001000000000000000RA              10007116    005800910000009100000570000003NN  NNW 000                       N    
RDG04817000WATRL000000004K00000000000000509008711192015083120N000000000000NFC08     000020400K 10000000010000000486           
CUS0481700000104403179007         CHILDRESS FRANCIS B 8298 BERRYFIELD DR                      000N        CARE OF             
MTR04817000001000000000000000RA              01100486    005800920000009200000610000003NY  NNW 000                       N    
MTM0481700001100486    CEMENTED DOWN                                                                                          
RDG04817000WATRL000000004K00000000000000000000000000000000000 000000000000U         000000400  10000000010000001423           
CUS0481700000104403180005         CASTRO LUIS J       8296 BERRYFIELD DR                      000N        CARE OF             
MTR04817000001000000000000000RA              01100643    005800930000009300000610000003NY  NNW 000                       N    
MTM0481700001100643    CEMENTED DOWN                                                                                          
RDG04817000WATRL000000004K00000000000000000000000000000000000 000000000000U         000000400  10000000010000000960           
CUS0481700000104403181003         ALLEN RODNEY D      8294 BERRYFIELD DR                      000N        CARE OF             
MTR04817000001000000000000000RA              99187129    005800940000009400000570000003NN  NNW 000                       N    
RDG04817000WATRL000000004K00000000000002372008811192015083317N000000000000NFC08     001170400K 10000000010000002338           
CUS0481700000104403182001         CRUZADO ABEL S      8292 BERRYFIELD DR                      000N        CARE OF             
MTR04817000001000000000000000RA              99287566    005800950000009500000570000003NN  NNW 000                       N    
RDG04817000WATRL000000004K00000000000000974008911192015083323N000400000010NFC08     000060400K 10000000010000000973           
CUS0481700000104403183009         MYERS MAYNARD R     8290 BERRYFIELD DR                      000N        CARE OF             
MTR04817000001000000000000000RA              99287193    005800960000009600000570000003NN  NNW 000                       N    
RDG04817000WATRL000000004K00000000000001179009011192015083339N000000000000NFC08     000160400K 10000000010000001166           
CUS0481700000104403184007         KEVIN T HUI         8288 BERRYFIELD DR                      000N        CARE OF             
MTR04817000001000000000000000RA              44172475    005800970000009700000520000003NN  NNW 000                       N    
RDG04817000WATRL000000004K00000000000001797009111192015083630N000000000000NFC08     001710400K 10000000010000001774           
CUS0481700000104403185004         ERICK JENKINS       8286 BERRYFIELD DR                      000N        CARE OF             
MTR04817000001000000000000000RA              10005457    005800980000009800000570000003NN  NNW 000                       N    
RDG04817000WATRL000000004K00000000000000688009211192015083634N000400000010NFC08     000040400K 10000000010000000687           
CUS0481700000104403186002         STARUK THOMAS M     8284 BERRYFIELD DR                      000N        CARE OF             
MTR04817000001000000000000000RA              50481514    005800990000009900000520000003NN  NNW 000                       N    
RDG04817000WATRL000000004K00000000000001599009311192015083820N000000000000NFC08     001060400K 10000000010000001587           
CUS0481700000104403187000         SIEGMUND WILLIAM,JR 8282 BERRYFIELD DR                      000N        CARE OF             
MTR04817000001000000000000000RA              48596731    005801000000010000000520000003NN  NNW 000                       N    
RDG04817000WATRL000000004K00000000000002855009411192015083822N000000000000NFC08     000020400K 10000000010000002818           
CUS0481700000104403188008         THOMAS M WLODARCZYK 8280 BERRYFIELD DR                      000N        CARE OF             
MTR04817000001000000000000000RA              48595560    005801010000010100000520000003NN  NNW 000                       N    
RDG04817000WATRL000000004K00000000000001794009511192015083845N000000000000NFC08     000230400K 10000000010000001764           
CUS0481700000104403189006         OCONNOR KEVIN       8278 BERRYFIELD DR                      000N        CARE OF             
MTR04817000001000000000000000RA              78022520    005801020000010200000350000003NN  NNW 000                       N    
RDG04817000WATRL000000004K00000000000000073009611192015083913N000000000010NFC08     000280400K 10000000010000000033           
CUS0481700000104403190004         EVANS JOHN M        8276 BERRYFIELD DR                      000N        CARE OF             
MTR04817000001000000000000000RA              10005680    005801030000010300000570000003NN  NNW 000                       N    
RDG04817000WATRL000000004K00000000000000240009711192015083914N000000000000NFC08     000010400K 10000000010000000240           
CUS0481700000104403191002         STEPHON WHITE       8274 BERRYFIELD DR                      000N        CARE OF             
MTR04817000001000000000000000RA              01109492    005801040000010400000610000003NN  NNW 000                       N    
RDG04817000WATRL000000004K00000000000000855009811192015083952N000000000000NFC08     000380400K 10000000010000000831           
CUS0481700000104403192000         CRAIG R. BORCHERS   8272 BERRYFIELD DR                      000N        CARE OF             
MTR04817000001000000000000000RA              44174424    005801050000010500000520000003NN  NNW 000                       N    
RDG04817000WATRL000000004K00000000000001589009911192015083954N000000000000NFC08     000020400K 10000000010000001574           
CUS0481700000104403193008         WELLS KAREN A       8270 BERRYFIELD DR                      000N        CARE OF             
MTR04817000001000000000000000RA              10015010    005801060000010600000570000003NN  NNW 000                       N    
RDG04817000WATRL000000004K00000000000000441010011192015084016N000000000000NFC08     000220400K 10000000010000000417           
CUS0481700000104405859002         JOSEPH G D'ADAMO SR.2 REDFIELD CT                           000N        CARE OF             
MTR04817000001000000000000000RA              10021437    005801070000010700000570000003NN  NNW 000                       N    
RDG04817000WATRL000000004K00000000000000259010111192015084124N000000000000NFC08     000680400K 10000000010000000243           
CUS0481700000104405860000         WILLIAM J JOYNES    4 REDFIELD CT                           000N        CARE OF             
MTR04817000001000000000000000RA              35111489    005801080000010800000520000003NN  NNW 000                       N    
RDG04817000WATRL000000004K00000000000002948010211192015084200N000000000000NFC08     000360400K 10000000010000002920           
CUS0481700000104405861008         LEDER GEORGE L      6 REDFIELD CT                           000N        CARE OF             
MTR04817000001000000000000000RA              39290248    005801090000010900000520000003NN  NNW 000                       N    
RDG04817000WATRL000000004K00000000000003526010311192015084202N000000000000NFC08     000020400K 10000000010000003500           
CUS0481700000104405862006         ELLIS KATHLEEN A    8 REDFIELD CT                           000N        CARE OF             
MTR04817000001000000000000000RA              14908632    005801100000011000000310000003NN  NNW 000                       N    
RDG04817000WATRL000000004K00000000000000652010411192015084225N000000000000NFC08     000230400K 10000000010000000639           
CUS0481700000104405864002         EHRHARDT ERROL      10 REDFIELD CT                          000N        CARE OF             
MTR04817000001000000000000000RA              14908629    005801110000011100000310000003NN  NNW 000                       N    
RDG04817000WATRL000000004K00000000000000780010511192015084227N000000000000NFC08     000020400K 10000000010000000763           
CUS0481700000104405866007         PIOTROWSKI STEPHEN  12 REDFIELD CT                          000N        CARE OF             
MTR04817000001000000000000000RA              14909320    005801120000011200000310000003NN  NNW 000                       N    
RDG04817000WATRL000000004K00000000000000800010611192015084239N000000000000NFC08     000120400K 10000000010000000770           
CUS0481700000104405868003         KOCH DEBORAH L      21 REDFIELD CT                          000N        CARE OF             
MTR04817000001000000000000000RA              50790134    005801130000011300000520000000NN  NNW 000                       N    
RDG04817000WATRL000000004K00000000000000012010711192015084316N000300000010NFC08     000370400K 10000000010000002056           
CUS0481700000104405870009         HEIDARI HAMID       19 REDFIELD CT                          000N        CARE OF             
MTR04817000001000000000000000RA              44088192    005801140000011400000520000000NN  NNW 000                       N    
RDG04817000WATRL000000004K00000000000002594010811192015084343N000000000000NFC08     000270400K 10000000010000002561           
CUS0481700000104405863004         BECKER JONATHAN & EL17 REDFIELD CT                          000N        CARE OF             
MTR04817000001000000000000000RA              44088181    005801150000011500000520000003NN  NNW 000                       N    
RDG04817000WATRL000000004K00000000000002307010911192015084345N000000000000NFC08     000020400K 10000000010000002237           
CUS0481700000102405865003         JENNIFER C JANUSZKIE15 REDFIELD CT                          000N        CARE OF             
MTR04817000001000000000000000RA              44088182    005801160000011600000520000003NN  NNW 000                       N    
RDG04817000WATRL000000004K00000000000001958011011192015084426N000000000000NFC08     000410400K 10000000010000001930           
CUS0481700000104405867005         ARTHUR AGATA        13 REDFIELD CT                          000N        CARE OF             
MTR04817000001000000000000000RA              01114059    005801170000011700000610000003NN  NNW 000                       N    
RDG04817000WATRL000000004K00000000000000743011111192015084452N000000000011NFC08     000050400K 10000000010000000729           
CUS0481700000104405869001         MOSCATO MELINDA     11 REDFIELD CT                          000N        CARE OF             
MTR04817000001000000000000000RA              44088193    005801180000011800000520000003NN  NNW 000                       N    
RDG04817000WATRL000000004K00000000000002109011211192015084447N000000000000NFC08     000150400K 10000000010000002091           
CUS0481700000104405871007         ROBERTSON BRIAN T   9 REDFIELD CT                           000N        CARE OF             
MTR04817000001000000000000000RA              77880368    005801190000011900000360000003NN  NNW 000                       N    
RDG04817000WATRL000000004K00000000000000037011311192015084513N000000000000NFC08     000210400K 10000000010000000014           
CUS0481700000104405872005         MARK B RICCIARDI    7 REDFIELD CT                           000N        CARE OF             
MTR04817000001000000000000000RA              44088180    005801200000012000000520000003NN  NNW 000                       N    
RDG04817000WATRL000000004K00000000000001716011411192015084531N000000000000NFC08     000180400K 10000000010000001700           
CUS0481700000104405873003         ROHIT KUMAR         5 REDFIELD CT                           000N        CARE OF             
MTR04817000001000000000000000RA              44088164    005801210000012100000520000003NN  NNW 000                       N    
RDG04817000WATRL000000004K00000000000001619011511192015084533N000000000000NFC08     000020400K 10000000010000001603           
CUS0481700000104405874001         SOKOL A JEROME      3 REDFIELD CT                           000N        CARE OF             
MTR04817000001000000000000000RA              14926357    005801220000012200000310000003NN  NNW 000                       N    
RDG04817000WATRL000000004K00000000000000677011611192015084547N000000000000NFC08     000140400K 10000000010000000660           
CUS0481700000104405875008         SHUI HUA            1 REDFIELD CT                           000N        CARE OF             
MTR04817000001000000000000000RA              99291848    005801230000012300000570000003NN  NNW 000                       N    
RDG04817000WATRL000000004K00000000000001202011711192015084556N000000000000NFC08     000090400K 10000000010000001191           
CUS0481700000104403157003         PARKER GARY C       8258 BERRYFIELD DR                      000N        CARE OF             
MTR04817000001000000000000000RA              42810601    005801240000012400000520000003NN  NNW 000                       N    
RDG04817000WATRL000000004K00000000000002864011811242015142141O000300000010N80       000810400K 10000000010000002755           
CUS0481700000104403158001         SATMARY CHARLES LEON8256 BERRYFIELD DR                      000N        CARE OF             
MTR04817000001000000000000000RA              99189203    005801250000012500000570000003NN  NNW 000                       N    
RDG04817000WATRL000000004K00000000000002230011911192015084734N000000000000NFC08     000170400K 10000000010000002201           
CUS0481700000104403159009         ANN PIERSANTI       8254 BERRYFIELD DR                      000N        CARE OF             
MTR04817000001000000000000000RA              99287440    005801260000012600000570000003NN  NNW 000                       N    
RDG04817000WATRL000000004K00000000000001256012011192015084736N000000000000NFC08     000020400K 10000000010000001236           
CUS0481700000104403160007         KEVIN M. THOMAS II  8252 BERRYFIELD DR                      000N        CARE OF             
MTR04817000001000000000000000RA              42810669    005801270000012700000520000003NN  NNW 000                       N    
RDG04817000WATRL000000004K00000000000002157012111192015084751N000000000000NFC08     000150400K 10000000010000002145           
CUS0481700000104403161005         GUS HARRIS          8250 BERRYFIELD DR                      000N        CARE OF             
MTR04817000001000000000000000RA              42810666    005801280000012800000520000003NN  NNW 000                       N    
RDG04817000WATRL000000004K00000000000002299012211192015084753N000000000000NFC08     000020400K 10000000010000002284           
CUS0481700000104403162003         ELSOBKY RIAD A      8248 BERRYFIELD DR                      000N        CARE OF             
MTR04817000001000000000000000RA              42810654    005801290000012900000520000003NN  NNW 000                       N    
RDG04817000WATRL000000004K00000000000001761012311192015084804N000000000000NFC08     000110400K 10000000010000001742           
CUS0481700000104403106000         CHIERICONI PAOLO    8246 BERRYFIELD DR                      000N        CARE OF             
MTR04817000001000000000000000RA              42808737    005801300000013000000520000003NN  NNW 000                       N    
RDG04817000WATRL000000004K00000000000001505012411192015084833N000000000000NFC08     000290400K 10000000010000001496           
CUS0481700000104403107008         REITER MICHAEL R    8244 BERRYFIELD DR                      000N        CARE OF             
MTR04817000001000000000000000RA              42808734    005801310000013100000520000003NN  NNW 000                       N    
RDG04817000WATRL000000004K00000000000001849012511192015084835N000000000000NFC08     000020400K 10000000010000001839           
CUS0481700000104403110002         MILLER THOMAS E     8242 BERRYFIELD DR                      000N        CARE OF             
MTR04817000001000000000000000RA              14923965    005801320000013200000310000003NN  NNW 000                       N    
RDG04817000WATRL000000004K00000000000001064012611192015084857N000000000000NFC08     000220400K 10000000010000001044           
CUS0481700000104403114004         ROWLES COURTNEY     8240 BERRYFIELD DR                      000N        CARE OF             
MTR04817000001000000000000000RA              14921866    005801330000013300000310000003NN  NNW 000                       N    
RDG04817000WATRL000000004K00000000000000828012711192015084859N000000000000NFC08     000020400K 10000000010000000805           
CUS0481700000104403116009         HART JAMES ROBERT   8238 BERRYFIELD DR                      000N        CARE OF             
MTR04817000001000000000000000RA              01097088    005801340000013400000610000003NN  NNW 000                       N    
RDG04817000WATRL000000004K00000000000002160012811242015142214O000000000010N80       000200400K 10000000010000002062           
CUS0481700000104403117007         ZAMOSTNY ANTHONY J  8236 BERRYFIELD DR                      000N        CARE OF             
MTR04817000001000000000000000RA              42808735    005801350000013500000520000003NN  NNW 000                       N    
RDG04817000WATRL000000004K00000000000002470012911192015084925N000300000010NFC08     000060400K 10000000010000002417           
CUS0481700000104403119003         KLINE AUGUSTUS J    8234 BERRYFIELD DR                      000N        CARE OF             
MTR04817000001000000000000000RA              52770691    005801360000013600000520000003NN  NNW 000                       N    
RDG04817000WATRL000000004K00000000000001181013011192015084941N000000000000NFC08     000160400K 10000000010000001174           
CUS0481700000104403128004         HERZOG LAWRENCE P   8232 BERRYFIELD DR                      000N        CARE OF             
MTR04817000001000000000000000RA              14909042    005801370000013700000310000003NN  NNW 000                       N    
RDG04817000WATRL000000004K00000000000000739013111192015085004N000000000000NFC08     000230400K 10000000010000000725           
CUS0481700000104403129002         CURRERI JOHN A      8230 BERRYFIELD DR                      000N        CARE OF             
MTR04817000001000000000000000RA              41088757    005801380000013800000520000003NN  NNW 000                       N    
RDG04817000WATRL000000004K00000000000003187013211192015085025N000000000000NFC08     000210400K 10000000010000003159           
CUS0481700000104403130000         CHAMBERLAIN KATHRYN 8228 BERRYFIELD DR                      000N        CARE OF             
MTR04817000001000000000000000RA              41088756    005801390000013900000520000003NN  NNW 000                       N    
RDG04817000WATRL000000004K00000000000002596013311192015085027N000000000000NFC08     000020400K 10000000010000002560           
CUS0481700000104403131008         GRAF ROBERT W       8226 BERRYFIELD DR                      000N        CARE OF             
MTR04817000001000000000000000RA              41088707    005801400000014000000520000003NN  NNW 000                       N    
RDG04817000WATRL000000004K00000000000001313013411192015085054N000000000000NFC08     000270400K 10000000010000001293           
CUS0481700000104403132006         KING BLAKE          8224 BERRYFIELD DR                      000N        CARE OF             
MTR04817000001000000000000000RA              41088730    005801410000014100000520000003NN  NNW 000                       N    
RDG04817000WATRL000000004K00000000000001999013511192015085056N000000000000NFC08     000020400K 10000000010000001984           
CUS0481700000104403133004         NEVILLE JONATHAN A  8222 BERRYFIELD DR                      000N        CARE OF             
MTR04817000001000000000000000RA              41088742    005801420000014200000520000003NN  NNW 000                       N    
RDG04817000WATRL000000004K00000000000002625013611192015085115N000000000000NFC08     000190400K 10000000010000002605           
CUS0481700000104403134002         BARAZ CEM           8220 BERRYFIELD DR                      000N        CARE OF             
MTR04817000001000000000000000RA              48596381    005801430000014300000520000003NN  NNW 000                       N    
RDG04817000WATRL000000004K00000000000001948013711192015085150N000000000000NFC08     000350400K 10000000010000001921           
CUS0481700000104403100003         LETTS PATRICK D,JR  8218 BERRYFIELD DR                      000N        CARE OF             
MTR04817000001000000000000000RA              99188718    005801440000014400000570000003NN  NNW 000                       N    
RDG04817000WATRL000000004K00000000000001382013811192015085152N000000000000NFC08     000020400K 10000000010000001368           
CUS0481700000104403101001         NIA MASSOUD MILANI  8216 BERRYFIELD DR                      000N        CARE OF             
MTR04817000001000000000000000RA              41086102    005801450000014500000520000003NN  NNW 000                       N    
RDG04817000WATRL000000004K00000000000001389013911192015085210N000000000000NFC08     000180400K 10000000010000001379           
CUS0481700000104403102009         AFFINITY PROPERTY MN8214 BERRYFIELD DR                      000N        CARE OF             
MTR04817000001000000000000000RA              41086105    005801460000014600000520000003NN  NNW 000                       N    
RDG04817000WATRL000000004K00000000000002204014011192015085212N000000000000NFC08     000020400K 10000000010000002195           
CUS0481700000104403103007         JENNIFER A. BILLS   8212 BERRYFIELD DR                      000N        CARE OF             
MTR04817000001000000000000000RA              14922249    005801470000014700000310000000NN  NNW 000                       N    
RDG04817000WATRL000000004K00000000000000903014111192015085228N000000000000NFC08     000160400K 10000000010000000866           
CUS0481700000104403115001         DAVID G CICCHELLI   8210 BERRYFIELD DR                      000N        CARE OF             
MTR04817000001000000000000000RA              44088202    005801480000014800000520000003NN  NNW 000                       N    
RDG04817000WATRL000000004K00000000000001788014211192015085256N000000000000NFC08     000280400K 10000000010000001774           
CUS0481700000104403113006         XU XIU X            8208 BERRYFIELD DR                      000N        CARE OF             
MTR04817000001000000000000000RA              10024589    005801490000014900000570000003NN  NNW 000                       N    
RDG04817000WATRL000000004K00000000000000151014311192015085313N000000000000NFC08     000170400K 10000000010000000142           
CUS0481700000104403112008         COMMODARI ROBERT A  8206 BERRYFIELD DR                      000N        CARE OF             
MTR04817000001000000000000000RA              44088209    005801500000015000000520000003NN  NNW 000                       N    
RDG04817000WATRL000000004K00000000000002222014411192015085314N000000000000NFC08     000010400K 10000000010000002212           
CUS0481700000104403111000         TOPICO JOSE JEFFREY 8204 BERRYFIELD DR                      000N        CARE OF             
MTR04817000001000000000000000RA              44088212    005801510000015100000520000003NN  NNW 000                       N    
RDG04817000WATRL000000004K00000000000003742014511192015085333N000000000000NFC08     000190400K 10000000010000003709           
CUS0481700000104403109004         WALTER MICHAEL J,JR 8202 BERRYFIELD DR                      000N        CARE OF             
MTR04817000001000000000000000RA              44088208    005801520000015200000520000003NN  NNW 000                       N    
RDG04817000WATRL000000004K00000000000002358014611192015085340N000000000000NFC08     000070400K 10000000010000002338           
CUS0481700000104403108006         COLE THOMAS         8200 BERRYFIELD DR                      000N        CARE OF             
MTR04817000001000000000000000RA              44088204    005801530000015300000520000003NN  NNW 000                       N    
RDG04817000WATRL000000004K00000000000001826014711192015085355N000000000000NFC08     000150400K 10000000010000001817           
CUS0481700000104402502001         RICHMOND JONATHAN   1 TURNMILL CT                           000N        CARE OF             
MTR04817000001000000000000000RA              14917366    005801540000015400000310000000NN  NNW 000                       N    
RDG04817000WATRL000000004K00000000000000745019811192015091505N000000000000NFC08     000200400K 10000000010000000726           
CUS0481700000104402501003         STEN DANIELLE       3 TURNMILL CT                           000N        CARE OF             
MTR04817000001000000000000000RA              76346156    005801550000015500000350000000NN  NNW 000                       N    
RDG04817000WATRL000000004K00000000000000114019711192015091445N000000000000NFC08     000010400K 10000000010000000104           
CUS0481700000104402500005         CHEN QIAN           5 TURNMILL CT                           000N        CARE OF             
MTR04817000001000000000000000RA              14900263    005801560000015600000310000000NN  NNW 000                       N    
RDG04817000WATRL000000004K00000000000000660019611192015091444N000000000000NFC08     000190400K 10000000010000000647           
CUS0481700000104402499000         KRAKAU CATHERINE    7 TURNMILL CT                           000N        CARE OF             
MTR04817000001000000000000000RA              44178763    005801570000015700000520000000NN  NNW 000                       N    
RDG04817000WATRL000000004K00000000000001933019511192015091425N000000000000NFC08     000100400K 10000000010000001922           
CUS0481700000104402498002         POETZEL JOHN J,JR   9 TURNMILL CT                           000N        CARE OF             
MTR04817000001000000000000000RA              44178767    005801580000015800000520000000NN  NNW 000                       N    
RDG04817000WATRL000000004K00000000000001496019411192015091415N000000000000NFC08     000140400K 10000000010000001490           
CUS0481700000104402497004         COLES CARLETON D,JR 11 TURNMILL CT                          000N        CARE OF             
MTR04817000001000000000000000RA              01086067    005801590000015900000610000003NN  NNW 000                       N    
RDG04817000WATRL000000004K00000000000001278019311192015091401N000000000000NFC08     000180400K 10000000010000001255           
CUS0481700000104402490009         KATRINAK RYAN KEITH 15 TURNMILL CT                          000N        CARE OF             
MTR04817000001000000000000000RA              44178769    005801600000016000000520000003NN  NNW 000                       N    
RDG04817000WATRL000000004K00000000000002909019211192015091343N000000000000NFC08     000150400K 10000000010000002880           
CUS0481700000104402489001         GEE RONALD          17 TURNMILL CT                          000N        CARE OF             
MTR04817000001000000000000000RA              50790319    005801610000016100000520000003NY  NNW 000                       N    
MTM0481700050790319    77891622 SENSUS                                                                                        
RDG04817000WATRL000000004K00000000000000023019111192015091328N000300000010NFC08     000510400K 10000000010000001142           
CUS0481700000104402488003         PEIMER CORY         19 TURNMILL CT                          000N        CARE OF             
MTR04817000001000000000000000RA              54351980    005801620000016200000520000003NY  NNW 000                       N    
MTM0481700054351980    77884462 SENSUS                                                                                        
RDG04817000WATRL000000004K00000000000000018019011192015091237N000300000010NFC08     000190400K 10000000010000001809           
CUS0481700000104402487005         GOEDEKE MICHAEL T   21 TURNMILL CT                          000N        CARE OF             
MTR04817000001000000000000000RA              44178770    005801630000016300000520000003NN  NNW 000                       N    
RDG04817000WATRL000000004K00000000000000757018911192015091218N000000000000NFC08     000570400K 10000000010000000752           
CUS0481700000104402486007         WAGNER KAREN J      23 TURNMILL CT                          000N        CARE OF             
MTR04817000001000000000000000RA              10022217    005801640000016400000570000003NN  NNW 000                       N    
RDG04817000WATRL000000004K00000000000000079018811192015091121N000000000000NFC08     000160400K 10000000010000000073           
CUS0481700000104402485009         FEARSON STEPHANIE D 25 TURNMILL CT                          000N        CARE OF             
MTR04817000001000000000000000RA              76347439    005801650000016500000350000003NN  NNW 000                       N    
RDG04817000WATRL000000004K00000000000000098018711192015091105N000000000000NFC08     000030400K 10000000010000000086           
CUS0481700000104402484002         EISEMANN KEVIN JOSEP27 TURNMILL CT                          000N        CARE OF             
MTR04817000001000000000000000RA              10022137    005801660000016600000570000003NN  NNW 000                       N    
RDG04817000WATRL000000004K00000000000000235018611192015091102N000000000000NFC08     000220400K 10000000010000000212           
CUS0481700000104402483004         ZIMMERER KATHLEEN D 29 TURNMILL CT                          000N        CARE OF             
MTR04817000001000000000000000RA              10006697    005801670000016700000570000003NN  NNW 000                       N    
RDG04817000WATRL000000004K00000000000000165018511192015091040N000000000000NFC08     000020400K 10000000010000000153           
CUS0481700000104402482006         JANET CARLSON       31 TURNMILL CT                          000N        CARE OF             
MTR04817000001000000000000000RA              52286529    005801680000016800000520000003NN  NNW 000                       N    
RDG04817000WATRL000000004K00000000000001266018411192015091038N000000000000NFC08     000280400K 10000000010000001259           
CUS0481700000104402481008         DIANRONG ZHANG      33 TURNMILL CT                          000N        CARE OF             
MTR04817000001000000000000000RA              45379171    005801690000016900000520000003NN  NNW 000                       N    
RDG04817000WATRL000000004K00000000000002606018311192015091010N000000000000NFC08     000210400K 10000000010000002568           
CUS0481700000104402514006         QUINAN MERI BETH    36 TURNMILL CT                          000N        CARE OF             
MTR04817000001000000000000000RA              10019052    005801700000017000000570000000NN  NNW 000                       N    
RDG04817000WATRL000000004K00000000000000125018211192015090949N000000000000NFC08     000220400K 10000000010000000117           
CUS0481700000104402513008         ASHLEY M RODRIGUEZ  34 TURNMILL CT                          000N        CARE OF             
MTR04817000001000000000000000RA              14925865    005801710000017100000310000000NN  NNW 000                       N    
RDG04817000WATRL000000004K00000000000000422018011192015090921N000000000001NFC08     000600400K 10000000010000000418           
CUS0481700000104402512000         CARTER PHYLLIS      32 TURNMILL CT                          000N        CARE OF             
MTR04817000001000000000000000RA              14929976    005801720000017200000310000000NN  NNW 000                       N    
RDG04817000WATRL000000004K00000000000000364018111192015090927N000000000000NFC08     000060400K 10000000010000000350           
CUS0481700000104402511002         KOLBE JAIMIE        30 TURNMILL CT                          000N        CARE OF             
MTR04817000001000000000000000RA              45379152    005801730000017300000520000000NN  NNW 000                       N    
RDG04817000WATRL000000004K00000000000000804017911192015090821N000000000000NFC08     000040400K 10000000010000000788           
CUS0481700000104402510004         DICKERSON PAMELA    28 TURNMILL CT                          000N        CARE OF             
MTR04817000001000000000000000RA              45379170    005801740000017400000520000000NN  NNW 000                       N    
RDG04817000WATRL000000004K00000000000001825017811192015090817N000000000000NFC08     000480400K 10000000010000001802           
CUS0481700000104402509006         CHEN HAO            26 TURNMILL CT                          000N        CARE OF             
MTR04817000001000000000000000RA              45379181    005801750000017500000520000000NN  NNW 000                       N    
RDG04817000WATRL000000004K00000000000002831017711192015090729N000000000000NFC08     000200400K 10000000010000002785           
CUS0481700000104402491007         WOIKA MARK LOUIS    24 TURNMILL CT                          000N        CARE OF             
MTR04817000001000000000000000RA              44178773    005801760000017600000520000000NN  NNW 000                       N    
RDG04817000WATRL000000004K00000000000002166017611192015090709N000000000000NFC08     000780400K 10000000010000002151           
CUS0481700000104402492005         BOWMAN TIMOTHY J    22 TURNMILL CT                          000N        CARE OF             
MTR04817000001000000000000000RA              99388836    005801770000017700000570000000NN  NNW 000                       N    
RDG04817000WATRL000000004K00000000000001006017511192015090551N000000000000NFC08     000010400K 10000000010000000978           
CUS0481700000104402493003         LU YI WEN           20 TURNMILL CT                          000N        CARE OF             
MTR04817000001000000000000000RA              01114238    005801780000017800000610000000NN  NNW 000                       N    
RDG04817000WATRL000000004K00000000000001373017411192015090550N000000000000NFC08     000230400K 10000000010000001349           
CUS0481700000104402494001         ROOS-WHITNEY ROSEMAR18 TURNMILL CT                          000N        CARE OF             
MTR04817000001000000000000000RA              76344665    005801790000017900000350000000NN  NNW 000                       N    
RDG04817000WATRL000000004K00000000000000129017311192015090527N000000000000NFC08     000020400K 10000000010000000109           
CUS0481700000104402495008         CHANCE SUSAN ANN    16 TURNMILL CT                          000N        CARE OF             
MTR04817000001000000000000000RA              44178486    005801800000018000000520000003NN  NNW 000                       N    
RDG04817000WATRL000000004K00000000000002353017211192015090525N000000000000NFC08     000220400K 10000000010000002334           
CUS0481700000104402496006         TORRES MARIA DEL CAR14 TURNMILL CT                          000N        CARE OF             
MTR04817000001000000000000000RA              44178488    005801810000018100000520000000NN  NNW 000                       N    
RDG04817000WATRL000000004K00000000000002488017111192015090503N000000000000NFC08     000300400K 10000000010000002459           
CUS0481700000104402503009         STANLEY MONROE WOOD 12 TURNMILL CT                          000N        CARE OF             
MTR04817000001000000000000000RA              45373359    005801820000018200000520000000NN  NNW 000                       N    
RDG04817000WATRL000000004K00000000000003814017011192015090433N000000000000NFC08     000160400K 10000000010000003791           
CUS0481700000104402504007         BOUCHER LISA MARIE  10 TURNMILL CT                          000N        CARE OF             
MTR04817000001000000000000000RA              45373358    005801830000018300000520000000NN  NNW 000                       N    
RDG04817000WATRL000000004K00000000000001866016911192015090417N000000000000NFC08     000020400K 10000000010000001849           
CUS0481700000104402505004         JOHNSON JOSEPH A,JR 8 TURNMILL CT                           000N        CARE OF             
MTR04817000001000000000000000RA              45373354    005801840000018400000520000000NN  NNW 000                       N    
RDG04817000WATRL000000004K00000000000001711016811192015090415N000000000010NFC08     000300400K 10000000010000001709           
CUS0481700000104402506002         KELLIHER THOMAS P   6 TURNMILL CT                           000N        CARE OF             
MTR04817000001000000000000000RA              45373355    005801850000018500000520000000NN  NNW 000                       N    
RDG04817000WATRL000000004K00000000000001015016711192015090345N000000000000NFC08     000030400K 10000000010000001010           
CUS0481700000104402507000         AMANDA WOIKA        4 TURNMILL CT                           000N        CARE OF             
MTR04817000001000000000000000RA              45373356    005801860000018600000520000000NN  NNW 000                       N    
RDG04817000WATRL000000004K00000000000001813016611192015090342N000300000010NFC08     000210400K 10000000010000001773           
CUS0481700000104402508008         DUAN RUI            2 TURNMILL CT                           000N        CARE OF             
MTR04817000001000000000000000RA              45373357    005801870000018700000520000000NN  NNW 000                       N    
RDG04817000WATRL000000004K00000000000002099016511192015090321N000000000000NFC08     000690400K 10000000010000002082           
CUS0481700000104402422002         CHRISTINE POTTER    4232 SOUTHFIELD DR                      000N        CARE OF             
MTR04817000001000000000000000RA              01111499    005801880000018800000610000003NN  NNW 000                       N    
RDG04817000WATRL000000004K00000000000000823016411192015090212N000000000000NFC08     000020400K 10000000010000000801           
CUS0481700000104402421004         VALERIE FOWLER      4230 SOUTHFIELD DR                      000N        CARE OF             
MTR04817000001000000000000000RA              44088437    005801890000018900000520000003NN  NNW 000                       N    
RDG04817000WATRL000000004K00000000000001593016311192015090210N000000000000NFC08     000100400K 10000000010000001581           
CUS0481700000104402420006         ELLIS JOHN B        4228 SOUTHFIELD DR                      000N        CARE OF             
MTR04817000001000000000000000RA              44088510    005801900000019000000520000003NN  NNW 000                       N    
RDG04817000WATRL000000004K00000000000002322016211192015090200N000000000000NFC08     000030400K 10000000010000002308           
CUS0481700000104402419008         GRACE SHERRY L      4226 SOUTHFIELD DR                      000N        CARE OF             
MTR04817000001000000000000000RA              44088512    005801910000019100000520000003NN  NNW 000                       N    
RDG04817000WATRL000000004K00000000000001557016111192015090157N000400000010NFC08     000210400K 10000000010000001539           
CUS0481700000104402418000         BURKE LLOYD D JR    4224 SOUTHFIELD DR                      000N        CARE OF             
MTR04817000001000000000000000RA              52768192    005801920000019200000520000003NN  NNW 000                       N    
RDG04817000WATRL000000004K00000000000001488016011192015090136N000000000000NFC08     000300400K 10000000010000001471           
CUS0481700000104402417002         RITA EGEOLU         4222 SOUTHFIELD DR                      000N        CARE OF             
MTR04817000001000000000000000RA              44087100    005801930000019300000520000003NN  NNW 000                       N    
RDG04817000WATRL000000004K00000000000002150015911192015090106N000000000000NFC08     000120400K 10000000010000002123           
CUS0481700000104402416004         MICHAEL T TSOTTLES  4220 SOUTHFIELD DR                      000N        CARE OF             
MTR04817000001000000000000000RA              44087098    005801940000019400000520000003NN  NNW 000                       N    
RDG04817000WATRL000000004K00000000000001807015811192015090054N000000000000NFC08     000070400K 10000000010000001798           
CUS0481700000104402415006         LORENZ CAROLYN M    4218 SOUTHFIELD DR                      000N        CARE OF             
MTR04817000001000000000000000RA              44087046    005801950000019500000520000003NN  NNW 000                       N    
RDG04817000WATRL000000004K00000000000001674015711192015090047N000000000000NFC08     000140400K 10000000010000001646           
CUS0481700000104402414009         MARY G WARNS        4216 SOUTHFIELD DR                      000N        CARE OF             
MTR04817000001000000000000000RA              44087048    005801960000019600000520000003NN  NNW 000                       N    
RDG04817000WATRL000000004K00000000000001116015611192015090033N000000000000NFC08     000070400K 10000000010000001101           
CUS0481700000104402413001         HODGES ROSALIE M    4214 SOUTHFIELD DR                      000N        CARE OF             
MTR04817000001000000000000000RA              44087105    005801970000019700000520000003NN  NNW 000                       N    
RDG04817000WATRL000000004K00000000000001712015511192015090026N000000000000NFC08     000110400K 10000000010000001695           
CUS0481700000104402412003         DUTTON DONALD E     4212 SOUTHFIELD DR                      000N        CARE OF             
MTR04817000001000000000000000RA              44087033    005801980000019800000520000003NN  NNW 000                       N    
RDG04817000WATRL000000004K00000000000001707015411192015090015N000000000000NFC08     000340400K 10000000010000001696           
CUS0481700000104402411005         DAVID M COLBERT     4210 SOUTHFIELD DR                      000N        CARE OF             
MTR04817000001000000000000000RA              44086638    005801990000019900000520000003NN  NNW 000                       N    
RDG04817000WATRL000000004K00000000000001993015311192015085941N000000000000NFC08     000110400K 10000000010000001982           
CUS0481700000104402410007         TIMOTHY L KLINE     4208 SOUTHFIELD DR                      000N        CARE OF             
MTR04817000001000000000000000RA              44086641    005802000000020000000520000003NN  NNW 000                       N    
RDG04817000WATRL000000004K00000000000003009015211192015085930N000000000000NFC08     000200400K 10000000010000002971           
CUS0481700000104402409009         WILLNER JOANNA      4206 SOUTHFIELD DR                      000N        CARE OF             
MTR04817000001000000000000000RA              44086639    005802010000020100000520000003NN  NNW 000                       N    
RDG04817000WATRL000000004K00000000000001548015111192015085910N000000000000NFC08     000160400K 10000000010000001527           
CUS0481700000104402408001         ROBINSON-HERNANDEZ D4204 SOUTHFIELD DR                      000N        CARE OF             
MTR04817000001000000000000000RA              44086640    005802020000020200000520000003NN  NNW 000                       N    
RDG04817000WATRL000000004K00000000000002005015011192015085854N000000000000NFC08     000020400K 10000000010000001993           
CUS0481700000104402406005         GULNORA OMARGALIEVA 4202 SOUTHFIELD DR                      000N        CARE OF             
MTR04817000001000000000000000RA              44086636    005802030000020300000520000003NN  NNW 000                       N    
RDG04817000WATRL000000004K00000000000002009014911192015085852N000000000000NFC08     000380400K 10000000010000002008           
CUS0481700000104402407003         BELLAMY VICKIE LYNN 4200 SOUTHFIELD DR                      000N        CARE OF             
MTR04817000001000000000000000RA              44086637    005802040000020400000520000003NN  NNW 000                       N    
RDG04817000WATRL000000004K00000000000001653014811192015085814N000000000000NFC08     002590400K 10000000010000001633           
CUS0481700000104407946005         GREUL STEPHEN M     1 ASHMILL CT                            000N        CARE OF             
MTR04817000001000000000000000RA              45387467    005802050000020500000520000003NN  NNW 000                       N    
RDG04817000WATRL000000004K00000000000001858019911242015142310O000000000010N80       004550400K 10000000010000001834           
CUS0481700000104407947003         HUYNH KIET          3 ASHMILL CT                            000N        CARE OF             
MTR04817000001000000000000000RA              99388452    005802060000020600000570000003NN  NNW 000                       N    
RDG04817000WATRL000000004K00000000000001616020011192015092324N000000000000NFC08     000440400K 10000000010000001583           
CUS0481700000104407948001         HAZARD MEGAN A      5 ASHMILL CT                            000N        CARE OF             
MTR04817000001000000000000000RA              14900469    005802070000020700000310000003NN  NNW 000                       N    
RDG04817000WATRL000000004K00000000000000837020111192015092333N000000000000NFC08     000090400K 10000000010000000819           
CUS0481700000104407949009         SHERRI KRAEMER      7 ASHMILL CT                            000N        CARE OF             
MTR04817000001000000000000000RA              45376020    005802080000020800000520000003NN  NNW 000                       N    
RDG04817000WATRL000000004K00000000000002501020211192015092346N000000000000NFC08     000130400K 10000000010000002493           
CUS0481700000104407950007         DANA CASTAGNETTI    9 ASHMILL CT                            000N        CARE OF             
MTR04817000001000000000000000RA              45376022    005802090000020900000520000003NN  NNW 000                       N    
RDG04817000WATRL000000004K00000000000002942020311192015092352N000000000000NFC08     000060400K 10000000010000002926           
CUS0481700000104407951005         SIMON BINDA         11 ASHMILL CT                           000N        CARE OF             
MTR04817000001000000000000000RA              45376202    005802100000021000000520000003NN  NNW 000                       N    
RDG04817000WATRL000000004K00000000000002624020411192015092409N000000000000NFC08     000170400K 10000000010000002605           
CUS0481700000104407952003         BRANDY N PERKINS    13 ASHMILL CT                           000N        CARE OF             
MTR04817000001000000000000000RA              99388279    005802110000021100000570000003NN  NNW 000                       N    
RDG04817000WATRL000000004K00000000000001231020511192015092416N000000000000NFC08     000070400K 10000000010000001224           
CUS0481700000104407953001         STEVENS LEIGH       15 ASHMILL CT                           000N        CARE OF             
MTR04817000001000000000000000RA              45376200    005802120000021200000520000003NN  NNW 000                       N    
RDG04817000WATRL000000004K00000000000002217020611192015092427N000000000000NFC08     000110400K 10000000010000002200           
CUS0481700000104407954009         NOWICKI MARK R      17 ASHMILL CT                           000N        CARE OF             
MTR04817000001000000000000000RA              14920442    005802130000021300000310000003NN  NNW 000                       N    
RDG04817000WATRL000000004K00000000000000515020711192015092436N000000000000NFC08     000090400K 10000000010000000504           
CUS0481700000104407964008         SMITH NOEL K        19 ASHMILL CT                           000N        CARE OF             
MTR04817000001000000000000000RA              50476366    005802140000021400000520000003NN  NNW 000                       N    
RDG04817000WATRL000000004K00000000000002441020811192015092454N000000000000NFC08     000180400K 10000000010000002421           
CUS0481700000104407963000         KIMBERLY SEGLER     21 ASHMILL CT                           000N        CARE OF             
MTR04817000001000000000000000RA              50476452    005802150000021500000520000003NN  NNW 000                       N    
RDG04817000WATRL000000004K00000000000001024020911192015092503N000000000000NFC08     000090400K 10000000010000001005           
CUS0481700000104407962002         BRUSAK JOSEPH,4TH   23 ASHMILL CT                           000N        CARE OF             
MTR04817000001000000000000000RA              45374865    005802160000021600000520000003NN  NNW 000                       N    
RDG04817000WATRL000000004K00000000000001338021011192015092517N000000000000NFC08     000140400K 10000000010000001326           
CUS0481700000104407961004         KELLER ERIK LOUIS   25 ASHMILL CT                           000N        CARE OF             
MTR04817000001000000000000000RA              01088398    005802170000021700000610000003NN  NNW 000                       N    
RDG04817000WATRL000000004K00000000000001057021111192015092525N000000000000NFC08     000080400K 10000000010000001040           
CUS0481700000104407960006         BACON JAMIE R       27 ASHMILL CT                           000N        CARE OF             
MTR04817000001000000000000000RA              10006334    005802180000021800000570000003NN  NNW 000                       N    
RDG04817000WATRL000000004K00000000000000346021211192015092538N000000000000NFC08     000130400K 10000000010000000331           
CUS0481700000104407959008         NORRIS BRIAN J      20 ASHMILL CT                           000N        CARE OF             
MTR04817000001000000000000000RA              45373185    005802190000021900000520000003NN  NNW 000                       N    
RDG04817000WATRL000000004K00000000000002691021311192015092556N000000000000NFC08     000180400K 10000000010000002660           
CUS0481700000104407958000         CRAIG REYNOLDS      18 ASHMILL CT                           000N        CARE OF             
MTR04817000001000000000000000RA              14925172    005802200000022000000310000003NN  NNW 000                       N    
RDG04817000WATRL000000004K00000000000000381021411192015092603N000000000000NFC08     000070400K 10000000010000000351           
CUS0481700000104407957002         CHASE LINDSAY M     16 ASHMILL CT                           000N        CARE OF             
MTR04817000001000000000000000RA              14900164    005802210000022100000310000003NN  NNW 000                       N    
RDG04817000WATRL000000004K00000000000000783021511192015092628N000000000000NFC08     000250400K 10000000010000000764           
CUS0481700000104407956004         ELIZABETH MONICA BRZ14 ASHMILL CT                           000N        CARE OF             
MTR04817000001000000000000000RA              14903102    005802220000022200000310000003NN  NNW 000                       N    
RDG04817000WATRL000000004K00000000000000556021611192015092630N000000000000NFC08     000020400K 10000000010000000549           
CUS0481700000104407955006         TUMMINELLO JOSEPH,JR12 ASHMILL CT                           000N        CARE OF             
MTR04817000001000000000000000RA              45373182    005802230000022300000520000003NN  NNW 000                       N    
RDG04817000WATRL000000004K00000000000002730021711192015092643N000000000000NFC08     000130400K 10000000010000002690           
CUS0481700000104407945007         VERZOSA JULIETA RIEL10 ASHMILL CT                           000N        CARE OF             
MTR04817000001000000000000000RA              75425741    005802240000022400000350000003NN  NNW 000                       N    
RDG04817000WATRL000000004K00000000000000267021811192015092714N000000000000NFC08     000310400K 10000000010000000239           
CUS0481700000104407944000         GECKLE MARK         8 ASHMILL CT                            000N        CARE OF             
MTR04817000001000000000000000RA              45373498    005802250000022500000520000003NN  NNW 000                       N    
RDG04817000WATRL000000004K00000000000002607021911192015092723N000000000000NFC08     000090400K 10000000010000002586           
CUS0481700000104407943002         MOYER CHRISTOPHER PA6 ASHMILL CT                            000N        CARE OF             
MTR04817000001000000000000000RA              46882700    005802260000022600000520000003NN  NNW 000                       N    
RDG04817000WATRL000000004K00000000000001623022011192015092736N000000000000NFC08     000130400K 10000000010000001608           
CUS0481700000104407942004         MARK E VOWLES       4 ASHMILL CT                            000N        CARE OF             
MTR04817000001000000000000000RA              45373502    005802270000022700000520000003NN  NNW 000                       N    
RDG04817000WATRL000000004K00000000000001274022111192015092738N000000000000NFC08     000020400K 10000000010000001194           
CUS0481700000104407941006         FRED W ALLEN JR     2 ASHMILL CT                            000N        CARE OF             
MTR04817000001000000000000000RA              01095407    005802280000022800000610000003NN  NNW 000                       N    
RDG04817000WATRL000000004K00000000000001225022211242015142339O000400000010N80       000320400K 10000000010000001218           
CUS0481700000104406149007         BRYAN CAVALLARO     4116 SOUTHFIELD DR                      000N        CARE OF             
MTR04817000001000000000000000RA              01084617    005802290000022900000610000003NN  NNW 000                       N    
RDG04817000WATRL000000004K00000000000000583023111192015093203N000000000000NFC08     000180400K 10000000010000000564           
CUS0481700000104406148009         PATRICIA LYBA       4114 SOUTHFIELD DR                      000N        CARE OF             
MTR04817000001000000000000000RA              44093001    005802300000023000000520000003NN  NNW 000                       N    
RDG04817000WATRL000000004K00000000000002641023011192015093145N000000000000NFC08     000010400K 10000000010000002618           
CUS0481700000104406147001         SZYMANSKI THOMAS F,J4112 SOUTHFIELD DR                      000N        CARE OF             
MTR04817000001000000000000000RA              10006038    005802310000023100000570000003NN  NNW 000                       N    
RDG04817000WATRL000000004K00000000000000173022911192015093144N000000000000NFC08     000220400K 10000000010000000165           
CUS0481700000104406146003         KARWACKI KEVIN A    4110 SOUTHFIELD DR                      000N        CARE OF             
MTR04817000001000000000000000RA              10006164    005802320000023200000570000003NN  NNW 000                       N    
RDG04817000WATRL000000004K00000000000000164022811192015093122N000000000000NFC08     000380400K 10000000010000000158           
CUS0481700000104406145005         FRANKS NANCY G      4108 SOUTHFIELD DR                      000N        CARE OF             
MTR04817000001000000000000000RA              10024480    005802330000023300000570000003NN  NNW 000                       N    
RDG04817000WATRL000000004K00000000000000195022711192015093044N000000000000NFC08     000070400K 10000000010000000168           
CUS0481700000104406144008         JOSEPH M KARANJA    4106 SOUTHFIELD DR                      000N        CARE OF             
MTR04817000001000000000000000RA              10005556    005802340000023400000570000003NN  NNW 000                       N    
RDG04817000WATRL000000004K00000000000000824022611192015093037N000000000000NFC08     000120400K 10000000010000000807           
CUS0481700000104406143000         GRUBBS JAMES W,3RD  4104 SOUTHFIELD DR                      000N        CARE OF             
MTR04817000001000000000000000RA              44174210    005802350000023500000520000003NN  NNW 000                       N    
RDG04817000WATRL000000004K00000000000004357022511192015093025N000000000000NFC08     000100400K 10000000010000004330           
CUS0481700000108406142003         FITCH KENNETH E     4102 SOUTHFIELD DR                      000N        CARE OF             
MTR04817000001000000000000000RA              44173055    005802360000023600000520000003NN  NNW 000                       N    
RDG04817000WATRL000000004K00000000000001911022411192015093015N000000000000NFC08     000170400K 10000000010000001903           
CUS0481700000104406141004         NOWACZYK KAZIMIERZ  4100 SOUTHFIELD DR                      000N        CARE OF             
MTR04817000001000000000000000RA              44174119    005802370000023700000520000003NN  NNW 000                       N    
RDG04817000WATRL000000004K00000000000001797022311192015092958N000300000010NFC08     001080400K 10000000010000001782           
RTR04817000NN02370237000002370000000002370237000106NY023702370237000600010000000000000000000001    11092015NY020000 N         
RHD04820100NN02980298000002980000000002980298000154NY029802980298000300000000000000000000000001    11092015NY020000 N         
CUS0482010000104412970008         PETRANDA SIMMONS    5346 KELMSCOT RD                        000N        CARE OF             
MTR04820100001000000000000000RA              52768148    005800010000000100000520000003NN  NNW 000                       N    
RDG04820100WATRL000000004K00000000000001567000111232015093338N000000000000N40       000000400K 10000000010000001540           
CUS0482010000104412953004         HO TAN              5344 KELMSCOT RD                        000N        CARE OF             
MTR04820100001000000000000000RA              48589405    005800020000000200000520000003NN  NNW 000                       N    
RDG04820100WATRL000000004K00000000000001196000211232015093412N000000000000N40       000340400K 10000000010000001181           
CUS0482010000104412956007         STREETT CAROL F     5342 KELMSCOT RD                        000N        CARE OF             
MTR04820100001000000000000000RA              48589407    005800030000000300000520000003NN  NNW 000                       N    
RDG04820100WATRL000000004K00000000000000881000311232015093446N000300000010N40       000340400K 10000000010000000869           
CUS0482010000104412957005         SHEILA D. HARRISON  5340 KELMSCOT RD                        000N        CARE OF             
MTR04820100001000000000000000RA              48589408    005800040000000400000520000003NN  NNW 000                       N    
RDG04820100WATRL000000004K00000000000001445000411232015093518N000000000000N40       000320400K 10000000010000001427           
CUS0482010000104412959001         SCRIVENS SIESTER    5338 KELMSCOT RD                        000N        CARE OF             
MTR04820100001000000000000000RA              48589409    005800050000000500000520000003NN  NNW 000                       N    
RDG04820100WATRL000000004K00000000000002400000511232015093520N000000000000N40       000020400K 10000000010000002381           
CUS0482010000104412962005         DELEON MARISOL      5336 KELMSCOT RD                        000N        CARE OF             
MTR04820100001000000000000000RA              01102139    005800060000000600000610000003NN  NNW 000                       N    
RDG04820100WATRL000000004K00000000000000999000611232015093602N000000000000N40       000420400K 10000000010000000978           
CUS0482010000104412964001         MOXLEY JOHN T       5334 KELMSCOT RD                        000N        CARE OF             
MTR04820100001000000000000000RA              48582670    005800070000000700000520000003NN  NNW 000                       N    
RDG04820100WATRL000000004K00000000000001828000711232015093618N000000000000N40       000160400K 10000000010000001811           
CUS0482010000104412966006         MITCHELL DONNIE L   5332 KELMSCOT RD                        000N        CARE OF             
MTR04820100001000000000000000RA              48584722    005800080000000800000520000003NN  NNW 000                       N    
RDG04820100WATRL000000004K00000000000001634000811232015093639N000000000000N40       000210400K 10000000010000001617           
CUS0482010000104412969000         FRANKS GREGORY M    5330 KELMSCOT RD                        000N        CARE OF             
MTR04820100001000000000000000RA              48582672    005800090000000900000520000003NN  NNW 000                       N    
RDG04820100WATRL000000004K00000000000001064000911232015093645N000400000010N40       000060400K 10000000010000001061           
CUS0482010000104412971006         FOSTER MARVIN       5328 KELMSCOT RD                        000N        CARE OF             
MTR04820100001000000000000000RA              48584242    005800100000001000000520000003NN  NNW 000                       N    
RDG04820100WATRL000000004K00000000000001741001011232015093718N000000000000N40       000330400K 10000000010000001729           
CUS0482010000104412972004         RIVERA RAYMOND A    5326 KELMSCOT RD                        000N        CARE OF             
MTR04820100001000000000000000RA              48584243    005800110000001100000520000003NN  NNW 000                       N    
RDG04820100WATRL000000004K00000000000001235001111232015093723N000000000000N40       000050400K 10000000010000001220           
CUS0482010000104412961007         GEORGE HOLTER       5324 KELMSCOT RD                        000N        CARE OF             
MTR04820100001000000000000000RA              14909355    005800120000001200000310000003NN  NNW 000                       N    
RDG04820100WATRL000000004K00000000000000822001211232015093750N000000000000N40       000270400K 10000000010000000789           
CUS0482010000104412947006         POPA SERGIU         5322 KELMSCOT RD                        000N        CARE OF             
MTR04820100001000000000000000RA              14919115    005800130000001300000310000003NN  NNW 000                       N    
RDG04820100WATRL000000004K00000000000000582001311232015093848N000000000000N40       000580400K 10000000010000000565           
CUS0482010000104412949002         HUSH DAVID M        5320 KELMSCOT RD                        000N        CARE OF             
MTR04820100001000000000000000RA              46886132    005800140000001400000520000003NN  NNW 000                       N    
RDG04820100WATRL000000004K00000000000001355001411232015093924N000000000000N40       000360400K 10000000010000001355           
CUS0482010000104412950000         FREY GRETCHEN       5318 KELMSCOT RD                        000N        CARE OF             
MTR04820100001000000000000000RA              46886077    005800150000001500000520000003NN  NNW 000                       N    
RDG04820100WATRL000000004K00000000000000856001511232015093927N000000000000N40       000030400K 10000000010000000847           
CUS0482010000104412951008         GIOIA MICHAEL       5316 KELMSCOT RD                        000N        CARE OF             
MTR04820100001000000000000000RA              46886092    005800160000001600000520000003NN  NNW 000                       N    
RDG04820100WATRL000000004K00000000000001540001611232015094012N000000000000N40       000450400K 10000000010000001510           
CUS0482010000104412952006         HURLEY SCOTT B      5314 KELMSCOT RD                        000N        CARE OF             
MTR04820100001000000000000000RA              46886096    005800170000001700000520000003NN  NNW 000                       N    
RDG04820100WATRL000000004K00000000000001693001711232015094018N000000000000N40       000060400K 10000000010000001668           
CUS0482010000104412954002         PIKE CLINTON R      5312 KELMSCOT RD                        000N        CARE OF             
MTR04820100001000000000000000RA              46886095    005800180000001800000520000003NN  NNW 000                       N    
RDG04820100WATRL000000004K00000000000001498001811232015094052N000000000000N40       000340400K 10000000010000001477           
CUS0482010000104412955009         WYNN ADAM J         5310 KELMSCOT RD                        000N        CARE OF             
MTR04820100001000000000000000RA              46886075    005800190000001900000520000003NN  NNW 000                       N    
RDG04820100WATRL000000004K00000000000001842001911232015094123N000000000000N40       000310400K 10000000010000001839           
CUS0482010000104412960009         NGUYEN LY B         5308 KELMSCOT RD                        000N        CARE OF             
MTR04820100001000000000000000RA              46886090    005800200000002000000520000003NN  NNW 000                       N    
RDG04820100WATRL000000004K00000000000002835002011232015094210N000000000000N40       000470400K 10000000010000002808           
CUS0482010000104412958003         BURK CHRISTOPHER    5306 KELMSCOT RD                        000N        CARE OF             
MTR04820100001000000000000000RA              46886079    005800210000002100000520000003NN  NNW 000                       N    
RDG04820100WATRL000000004K00000000000001138002111232015094212N000000000000N40       000020400K 10000000010000001130           
CUS0482010000104412963003         SCAVUZZO THOMAS P   5304 KELMSCOT RD                        000N        CARE OF             
MTR04820100001000000000000000RA              46886093    005800220000002200000520000003NN  NNW 000                       N    
RDG04820100WATRL000000004K00000000000001671002211232015094249N000000000000N40       000370400K 10000000010000001655           
CUS0482010000104412965008         LIPPENHOLZ ANDREW D 5302 KELMSCOT RD                        000N        CARE OF             
MTR04820100001000000000000000RA              46886074    005800230000002300000520000003NN  NNW 000                       N    
