FHDNNNN003000759000759000759N                                                                                           002719
RHD04835000NN02880288000002880000000002880288000319NY028802880288000300050000000000000000000001    11042015NY020000 N         
CUS0483500000104071532008         SHADDOCK DALE P     4901 KENWOOD AVE                        000N        CARE OF             
MTR04835000001000000000000000RA              14905716    005800010000000100000310000003NN  NNW 000                       N    
RDG04835000WATRL000000004K00000000000000692000211192015082143N000000000000N47       000270400K 10000000010000000687           
CUS0483500000104071533006         PREETHI RAGHAVENDRA 4903 KENWOOD AVE                        000N        CARE OF             
MTR04835000001000000000000000RA              531806      005800020000000200000570000003NN  NNW 000                       N    
RDG04835000WATRL000000004K00000000000004783000111192015082116N000300000010N47       000000400K 10000000010000004844           
CUS0483500000104071534004         CANDLER WILLIAM J   4905 KENWOOD AVE                        000N        CARE OF             
MTR04835000001000000000000000RA              40048399    005800030000000300000520000003NN  NNW 000                       N    
RDG04835000WATRL000000004K00000000000001881000311192015082242N000000000000N47       000590400K 10000000010000001870           
CUS0483500000104071535001         LANDIS ROBERT M     4907 KENWOOD AVE                        000N        CARE OF             
MTR04835000001000000000000000RA              17531797    005800040000000400000570000003NY  NNW 000                       N    
MTM0483500017531797    578006360                                                                                              
RDG04835000WATRL000000004K00000000000000002000411192015082405N000300000010N47       000830400K 10000000010000004716           
CUS0483500000104071536009         MARSHALL ROBERT S,JR4909 KENWOOD AVE                        000N        CARE OF             
MTR04835000001000000000000000RA              14911034    005800050000000500000310000003NN  NNW 000                       N    
RDG04835000WATRL000000004K00000000000001089000511192015082410N000000000000N47       000050400K 10000000010000001068           
CUS0483500000104071537007         CYRAN CEDRIC S      4911 KENWOOD AVE                        000N        CARE OF             
MTR04835000001000000000000000RA              01090780    005800060000000600000610000003NN  NNW 000                       N    
RDG04835000WATRL000000004K00000000000000753000611192015082531N000000000000N47       000810400K 10000000010000000742           
CUS0483500000104071538005         TOLLEY MARGARET     4913 KENWOOD AVE                        000N        CARE OF             
MTR04835000001000000000000000RA              75618105    005800070000000700000350000003NN  NNW 000                       N    
RDG04835000WATRL000000004K00000000000000286000711192015082558N000000000000N47       000270400K 10000000010000000251           
CUS0483500000104071539003         KATHY HAWKINS       4915 KENWOOD AVE                        000N        CARE OF             
MTR04835000001000000000000000RA              45381856    005800080000000800000520000003NN  NNW 000                       N    
RDG04835000WATRL000000004K00000000000003856000811192015082641N000000000000N47       000430400K 10000000010000003846           
CUS0483500000104071540001         GULLIVAN JAMES R    5001 KENWOOD AVE                        000N        CARE OF             
MTR04835000001000000000000000RA              99291843    005800090000000900000570000003NN  NNW 000                       N    
RDG04835000WATRL000000004K00000000000000825000911192015082720N000000000000N47       000390400K 10000000010000000812           
CUS0483500000104071541009         MISEK RICHARD A     5003 KENWOOD AVE                        000N        CARE OF             
MTR04835000001000000000000000RA              40048398    005800100000001000000520000003NN  NNW 000                       N    
RDG04835000WATRL000000004K00000000000002802001011192015082752N000000000000N47       000320400K 10000000010000002780           
CUS0483500000104071542007         PFEIFER GARY LEE    5005 KENWOOD AVE                        000N        CARE OF             
MTR04835000001000000000000000RA              42809215    005800110000001100000520000003NN  NNW 000                       N    
RDG04835000WATRL000000004K00000000000003453001111192015082824N000000000000N47       000320400K 10000000010000003414           
CUS0483500000104071543005         VELDERMAN MATTHEW JO5101 KENWOOD AVE                        000N        CARE OF             
MTR04835000001000000000000000RA              99291602    005800120000001200000570000003NN  NNW 000                       N    
RDG04835000WATRL000000004K00000000000000577001411192015083050N000000000000N47       000610400K 10000000010000000557           
CUS0483500000104071544003         ZITINSKIENE JOLANTA 5103 KENWOOD AVE                        000N        CARE OF             
MTR04835000001000000000000000RA              52769084    005800130000001300000520000003NN  NNW 000                       N    
RDG04835000WATRL000000004K00000000000001599001511192015083122N000000000000N47       000320400K 10000000010000001556           
CUS0483500000104071545000         BENSEL JOHN A       5105 KENWOOD AVE                        000N        CARE OF             
MTR04835000001000000000000000RA              11330373    005800140000001400000570000003NN  NNW 000                       N    
RDG04835000WATRL000000004K00000000000004086001611192015083150N000000000000N47       000280400K 10000000010000004068           
CUS0483500000104071546008         HILDEBRAND JACQUELYN5009 KENWOOD AVE                        000N        CARE OF             
MTR04835000001000000000000000RA              32178671    005800150000001500000520000003NN  NNW 000                       N    
RDG04835000WATRL000000004K00000000000002320001311192015082949N000000000000N47       000430400K 10000000010000002306           
CUS0483500000104071547006         DELLONE KATHRYN M   2 COUNCILMAN AVE                        000N        CARE OF             
MTR04835000001000000000000000RA              10018371    005800160000001600000570000003NN  NNW 000                       N    
RDG04835000WATRL000000004K00000000000000340001711192015083301N000000000000N47       000710400K 10000000010000000289           
CUS0483500000104071548004         SHIMP CATHERINE A   4 COUNCILMAN AVE                        000N        CARE OF             
MTR04835000001000000000000000RA              01077992    005800170000001700000610000003NN  NNW 000                       N    
RDG04835000WATRL000000004K00000000000000767002011192015083512N000000000000N47       000430400K 10000000010000000747           
CUS0483500000104071549002         CHILDRESS CHARLES M,6 COUNCILMAN AVE                        000N        CARE OF             
MTR04835000001000000000000000RA              29404091    005800180000001800000520000003NN  NNW 000                       N    
RDG04835000WATRL000000004K00000000000003485002111192015083536N000000000000N47       000240400K 10000000010000003457           
CUS0483500000104071550000         COTSARIS NICHOLAS   8 COUNCILMAN AVE                        000N        CARE OF             
MTR04835000001000000000000000RA              40048403    005800190000001900000520000003NN  NNW 000                       N    
RDG04835000WATRL000000004K00000000000002483002211192015083614N000000000000N47       000380400K 10000000010000002460           
CUS0483500000104071551008         YABLONSKI JAMES     10 COUNCILMAN AVE                       000N        CARE OF             
MTR04835000001000000000000000RA              40049408    005800200000002000000520000003NN  NNW 000                       N    
RDG04835000WATRL000000004K00000000000003475002311192015083644N000000000000N47       000300400K 10000000010000003456           
CUS0483500000104071552006         MANGANO RUTH        12 COUNCILMAN AVE                       000N        CARE OF             
MTR04835000001000000000000000RA              45385634    005800210000002100000520000003NN  NNW 000                       N    
RDG04835000WATRL000000004K00000000000001201002611192015083814N000000000000N47       000370400K 10000000010000001187           
CUS0483500000104071553004         CLAASSEN DENNIS A   14 COUNCILMAN AVE                       000N        CARE OF             
MTR04835000001000000000000000RA              44172175    005800220000002200000520000003NN  NNW 000                       N    
RDG04835000WATRL000000004K00000000000001925003011192015084021N000000000000N47       000040400K 10000000010000001903           
CUS0483500000104071554002         DEANNA R SAYLOR     16 COUNCILMAN AVE                       000N        CARE OF             
MTR04835000001000000000000000RA              40780319    005800230000002300000520000003NN  NNW 000                       N    
RDG04835000WATRL000000004K00000000000002412002711192015083915N000000000000N47       000610400K 10000000010000002399           
CUS0483500000104071555009         HOBACK MATTHEW R    13 COUNCILMAN AVE                       000N        CARE OF             
MTR04835000001000000000000000RA              44086834    005800240000002400000520000003NN  NNW 000                       N    
RDG04835000WATRL000000004K00000000000001622002911192015084017N000000000000N47       000320400K 10000000010000001611           
CUS0483500000104360106001         FRANCES F THRASHER  15 COUNCILMAN AVE                       000N        CARE OF             
MTR04835000001000000000000000RA              29404780    005800250000002500000520000003NN  NNW 000                       N    
RDG04835000WATRL000000004K00000000000003240002811192015083945N000000000000N47       000300400K 10000000010000003220           
CUS0483500000104071558003         SCHMIDT GEORGE A    11 COUNCILMAN AVE                       000N        CARE OF             
MTR04835000001000000000000000RA              19459141    005800260000002600000520000003NN  NNW 000                       N    
RDG04835000WATRL000000004K00000000000004057002511192015083737N000000000000N47       000370400K 10000000010000004044           
CUS0483500000104071557005         SHELSBY EMMA M      9 COUNCILMAN AVE                        000N        CARE OF             
MTR04835000001000000000000000RA              41081654    005800270000002700000520000003NN  NNW 000                       N    
RDG04835000WATRL000000004K00000000000001860002411192015083700N000000000000N47       000160400K 10000000010000001842           
CUS0483500000104071559001         KLINE BARBARA C     5 COUNCILMAN AVE                        000N        CARE OF             
MTR04835000001000000000000000RA              40049443    005800280000002800000520000003NN  NNW 000                       N    
RDG04835000WATRL000000004K00000000000002245001911192015083429N000000000000N47       000560400K 10000000010000002238           
CUS0483500000104071560009         HADJIGEORGALIS MICHA1 COUNCILMAN AVE                        000N        CARE OF             
MTR04835000001000000000000000RA              45387977    005800290000002900000520000003NN  NNW 000                       N    
RDG04835000WATRL000000004K00000000000001592001811192015083333N000300000010N47       000320400K 10000000010000001585           
CUS0483500000104071561007         WALDHAUSER STEVEN   5107 KENWOOD AVE                        000N        CARE OF             
MTR04835000001000000000000000RA              99291830    005800300000003000000570000003NN  NNW 000                       N    
RDG04835000WATRL000000004K00000000000002205003111192015084308N000000000000N47       001670400K 10000000010000002149           
CUS0483500000104071562005         MANGANO SALVATORE J 5109 KENWOOD AVE                        000N        CARE OF             
MTR04835000001000000000000000RA              01114532    005800310000003100000610000003NN  NNW 000                       N    
RDG04835000WATRL000000004K00000000000001787003211192015084416N000000000000N47       000680400K 10000000010000001761           
CUS0483500000104071563003         DAMON B DURETT      5007 KENWOOD AVE                        000N        CARE OF             
MTR04835000001000000000000000RA              48585067    005800320000003200000520000000NN  NNW 000                       N    
RDG04835000WATRL000000004K00000000000001783001211192015082906N000000000000N47       000420400K 10000000010000001755           
CUS0483500000104071564001         JOHN/DINO MANGANO   5113 KENWOOD AVE                        000N        CARE OF             
MTR04835000001000000000000000RA              77987775    005800330000003300000350000003NN  NNW 000                       N    
RDG04835000WATRL000000004K00000000000000186003311192015084518N000000000000N47       000620400K 10000000010000000128           
CUS0483500000104071565008         FERGUSON SWITHUN A  5115 KENWOOD AVE                        000N        CARE OF             
MTR04835000001000000000000000RA              14912213    005800340000003400000310000003NN  NNW 000                       N    
RDG04835000WATRL000000004K00000000000000883003411192015084551N000000000000N47       000330400K 10000000010000000871           
CUS0483500000104071566006         DANGERFIELD GEORGE A5117 KENWOOD AVE                        000N        CARE OF             
MTR04835000001000000000000000RA              45376891    005800350000003500000520000003NN  NNW 000                       N    
RDG04835000WATRL000000004K00000000000003129003511192015084622N000000000000N47       000310400K 10000000010000003106           
CUS0483500000104071567004         MORGAN L FOX        5119 KENWOOD AVE                        000N        CARE OF             
MTR04835000001000000000000000RA              23055899    005800360000003600000520000003NN  NNW 000                       N    
RDG04835000WATRL000000004K00000000000004823003611192015084704N000000000000N47       000420400K 10000000010000004787           
CUS0483500000104071568002         SWIECZKOWSKI JASON A5121 KENWOOD AVE                        000N        CARE OF             
MTR04835000001000000000000000RA              00139579    005800370000003700000570000003NN  NNW 000                       N    
RDG04835000WATRL000000004K00000000000001544003711192015084733N000000000000N47       000290400K 10000000010000001527           
CUS0483500000104071569000         JENNINGS WILLIAM DAV5123 KENWOOD AVE                        000N        CARE OF             
MTR04835000001000000000000000RA              26003008    005800380000003800000520000003NN  NNW 000                       N    
RDG04835000WATRL000000004K00000000000003741003811192015084810N000000000000N47       000370400K 10000000010000003737           
CUS0483500000104071570008         MENTZEL FREDERICK E 207 MCCORMICK AVE                       000N        CARE OF             
MTR04835000001000000000000000RA              45378876    005800390000003900000520000003NN  NNW 000                       N    
RDG04835000WATRL000000004K00000000000001740003911192015084919N000000000000N47       000690400K 10000000010000001731           
CUS0483500000104071571006         BARRANCO FRANK J    203 MCCORMICK AVE                       000N        CARE OF             
MTR04835000001000000000000000RA              29084639    005800400000004000000520000003NN  NNW 000                       N    
RDG04835000WATRL000000004K00000000000006552004011192015085010N000000000000N47       000510400K 10000000010000006511           
CUS0483500000104071572004         GIOIOSO WAYNE R     201 MCCORMICK AVE                       000N        CARE OF             
MTR04835000001000000000000000RA              45380918    005800410000004100000520000003NN  NNW 000                       N    
RDG04835000WATRL000000004K00000000000002373004211192015085157N000000000000N47       000480400K 10000000010000002353           
CUS0483500000104437667001         JAMES KELVIN O      201A MCCORMICK AVE                      000N        CARE OF             
MTR04835000001000000000000000RA              14910048    005800420000004200000310000003NN  NNW 000                       N    
RDG04835000WATRL000000004K00000000000001193004111192015085109N000000000000N47       000590400K 10000000010000001162           
CUS0483500000104071573002         DERAL FALLS         111 MCCORMICK AVE                       000N        CARE OF             
MTR04835000001000000000000000RA              35108244    005800430000004300000520000003NN  NNW 000                       N    
RDG04835000WATRL000000004K00000000000001164004411192015085347N000000000000N47       000400400K 10000000010000001136           
CUS0483500000104434594000         BALTIMORE COUNTY MAR102 MCCORMICK AVE                       000N        CARE OF             
MTR04835000001000000000000000RA              01098931    005800440000004400000610000000NN  NNW 000                       N    
RDG04835000WATRL000000004K00000000000000087004511192015085704N000300000021N47       001440400K 10000000010000000213           
CUS0483500000104406360000         BALTIMORE COUNTY    112 MCCORMICK AVE                       000N        CARE OF             
MTR04835000001000000000000000RA              77890255    005800450000004500000360000003NN  NNW 000                       N    
RDG04835000WATRL000000004K00000000000000000004311192015085307N000000000000N47       000700400K 10000000010000000000           
CUS0483500000104071574000         SWINDER RICHARD A,SR200 MCCORMICK AVE                       000N        CARE OF             
MTR04835000001000000000000000RA              36688024    005800460000004600000520000003NN  NNW 000                       N    
RDG04835000WATRL000000004K00000000000003177004611192015085957N000300000010N47       001730400K 10000000010000003153           
CUS0483500000104071575007         FRITSCH MARK A      202 MCCORMICK AVE                       000N        CARE OF             
MTR04835000001000000000000000RA              22608294    005800470000004700000520000003NN  NNW 000                       N    
RDG04835000WATRL000000004K00000000000005936004711192015090039N000000000000N47       000420400K 10000000010000005910           
CUS0483500000104071576005         NIZER DANIEL EDWARD 204 MCCORMICK AVE                       000N        CARE OF             
MTR04835000001000000000000000RA              00130617    005800480000004800000570000003NN  NNW 000                       N    
RDG04835000WATRL000000004K00000000000002231004811192015090206N000000000000N47       000870400K 10000000010000002200           
CUS0483500000104071577003         DONNAMARIA THOMAS   5201 KENWOOD AVE                        000N        CARE OF             
MTR04835000001000000000000000RA              50481701    005800490000004900000520000003NN  NNW 000                       N    
RDG04835000WATRL000000004K00000000000000000004911192015090356S063000000011N47       000200400K 10000000010000003421           
CUS0483500000104071578001         CITRO MICHAEL R     5215 KENWOOD AVE                        000N        CARE OF             
MTR04835000001000000000000000RA              01084117    005800500000005000000610000003NN  NNW 000                       N    
RDG04835000WATRL000000004K00000000000000979005011192015090509N000000000000N47       000730400K 10000000010000000957           
CUS0483500000104071579009         SHROPSHIRE ROSE E   2 CLIFFWOOD RD                          000N        CARE OF             
MTR04835000001000000000000000RA              42810860    005800510000005100000520000003NN  NNW 000                       N    
RDG04835000WATRL000000004K00000000000000871005211192015090733N000000000000N47       000330400K 10000000010000000771           
CUS0483500000104393839008         BARKMAN BRADLEY A   2-A CLIFFWOOD RD                        000N        CARE OF             
MTR04835000001000000000000000RA              14922022    005800520000005200000310000003NN  NNW 000                       N    
RDG04835000WATRL000000004K00000000000000382005111192015090700N000300000010N47       001110400K 10000000010000000363           
CUS0483500000104432708008         WATSON STEPHANIE A  4 CLIFFWOOD RD                          000N        CARE OF             
MTR04835000001000000000000000RA              01081698    005800530000005300000610000003NN  NNW 000                       N    
RDG04835000WATRL000000004K00000000000000661005311192015090813N000000000000N47       000400400K 10000000010000000646           
CUS0483500000104071580007         EHSANI-SHISHVAN HAMI5 CLIFFWOOD RD                          000N        CARE OF             
MTR04835000001000000000000000RA              00139688    005800540000005400000570000003NN  NNW 000                       N    
RDG04835000WATRL000000004K00000000000001488005411192015090856N000000000000N47       000430400K 10000000010000001476           
CUS0483500000104071581005         GUBERNAT NEIL A     7 CLIFFWOOD RD                          000N        CARE OF             
MTR04835000001000000000000000RA              14912427    005800550000005500000310000003NY  NNW 000                       N    
MTM0483500014912427    CL                                                                                                     
RDG04835000WATRL000000004K00000000000000000008000000000000000 000000000000U         000000400  10000000010000000577           
CUS0483500000104071582003         GORDON KEITH N      9 CLIFFWOOD RD                          000N        CARE OF             
MTR04835000001000000000000000RA              74690268    005800560000005600000350000003NN  NNW 000                       N    
RDG04835000WATRL000000004K00000000000000358005511192015091040N000000000000N47       001040400K 10000000010000000310           
CUS0483500000104071583001         PFADENHAUER PHILIP C11 CLIFFWOOD RD                         000N        CARE OF             
MTR04835000001000000000000000RA              75616927    005800570000005700000350000003NN  NNW 000                       N    
RDG04835000WATRL000000004K00000000000000781005811192015091340N000000000000N47       000540400K 10000000010000000672           
CUS0483500000104071584009         SCHENKELBERG DANNETT22 CLIFFWOOD RD                         000N        CARE OF             
MTR04835000001000000000000000RA              00139788    005800580000005800000570000003NN  NNW 000                       N    
RDG04835000WATRL000000004K00000000000001330005611192015091124N000000000010N47       000440400K 10000000010000001305           
CUS0483500000104071585006         CITRO MICHAEL R,JR  24 CLIFFWOOD RD                         000N        CARE OF             
MTR04835000001000000000000000RA              44172185    005800590000005900000520000003NN  NNW 000                       N    
RDG04835000WATRL000000004K00000000000001046005711192015091246N000000000000N47       000820400K 10000000010000001031           
CUS0483500000104071586004         CHRISTOPHER COOK    26 CLIFFWOOD RD                         000N        CARE OF             
MTR04835000001000000000000000RA              99387555    005800600000006000000570000003NN  NNW 000                       N    
RDG04835000WATRL000000004K00000000000000806005911192015091431N000000000000N47       000510400K 10000000010000000790           
CUS0483500000104071587002         GERAGHTY WILLIAM,3RD28 CLIFFWOOD RD                         000N        CARE OF             
MTR04835000001000000000000000RA              99286943    005800610000006100000570000003NN  NNW 000                       N    
RDG04835000WATRL000000004K00000000000000577006011192015091511N000000000000N47       000400400K 10000000010000000567           
CUS0483500000104071588000         EMILY JAMES         30 CLIFFWOOD RD                         000N        CARE OF             
MTR04835000001000000000000000RA              76344719    005800620000006200000350000003NN  NNW 000                       N    
RDG04835000WATRL000000004K00000000000000098006111192015091540N000400000010N47       000290400K 10000000010000000076           
CUS0483500000104071589008         COLLIER DAVID       32 CLIFFWOOD RD                         000N        CARE OF             
MTR04835000001000000000000000RA              00134732    005800630000006300000570000003NN  NNW 000                       N    
RDG04835000WATRL000000004K00000000000001765006211192015091710N000000000000N47       000900400K 10000000010000001723           
CUS0483500000104071590006         FOSTER JERRY C      34 CLIFFWOOD RD                         000N        CARE OF             
MTR04835000001000000000000000RA              48590065    005800640000006400000520000003NN  NNW 000                       N    
RDG04835000WATRL000000004K00000000000001899006311192015091834N000000000000N47       000840400K 10000000010000001890           
CUS0483500000104399346008         ZANNINO BARBARA A   45 CLIFFWOOD RD                         000N        CARE OF             
MTR04835000001000000000000000RA              40781171    005800650000006500000520000003NN  NNW 000                       N    
RDG04835000WATRL000000004K00000000000004066006411192015091957N000400000010N47       000830400K 10000000010000003942           
CUS0483500000104421033004         PFEIFER KAREN       43 CLIFFWOOD RD                         000N        CARE OF             
MTR04835000001000000000000000RA              50477304    005800660000006600000520000003NN  NNW 000                       N    
RDG04835000WATRL000000004K00000000000001169006511192015092343N000300000021N47       000450400K 10000000010000001127           
CUS0483500000104071591004         WINTER JAMES E      41 CLIFFWOOD RD                         000N        CARE OF             
MTR04835000001000000000000000RA              99289856    005800670000006700000570000003NN  NNW 000                       N    
RDG04835000WATRL000000004K00000000000001156006611192015092140N000000000000N47       000040400K 10000000010000001127           
CUS0483500000104421034002         COOK T GUY,JR       39 CLIFFWOOD RD                         000N        CARE OF             
MTR04835000001000000000000000RA              50477266    005800680000006800000520000003NN  NNW 000                       N    
RDG04835000WATRL000000004K00000000000001123006811192015092258N000000000000N47       000240400K 10000000010000001110           
CUS0483500000104421035009         PALMER GUY A        37 CLIFFWOOD RD                         000N        CARE OF             
MTR04835000001000000000000000RA              50477271    005800690000006900000520000003NN  NNW 000                       N    
RDG04835000WATRL000000004K00000000000002007006711192015092234N000000000000N47       000540400K 10000000010000001984           
CUS0483500000104071593000         DENMYER RANDY L,JR  35 CLIFFWOOD RD                         000N        CARE OF             
MTR04835000001000000000000000RA              14914370    005800700000007000000310000003NN  NNW 000                       N    
RDG04835000WATRL000000004K00000000000000904006911192015092447N000000000000N47       000640400K 10000000010000000882           
CUS0483500000104071592002         HYLE JESSICA L      33 CLIFFWOOD RD                         000N        CARE OF             
MTR04835000001000000000000000RA              01114415    005800710000007100000610000003NN  NNW 000                       N    
RDG04835000WATRL000000004K00000000000000389007011192015092535N000000000000N47       000480400K 10000000010000000381           
CUS0483500000104402744009         NIZER EDWARD D      31 CLIFFWOOD RD                         000N        CARE OF             
MTR04835000001000000000000000RA              41081558    005800720000007200000520000003NN  NNW 000                       N    
RDG04835000WATRL000000004K00000000000002339007111192015092625N000000000000N47       000500400K 10000000010000002322           
CUS0483500000104071594008         GILLIS DAVID B      4 WILDWOOD AVE                          000N        CARE OF             
MTR04835000001000000000000000RA              76346368    005800730000007300000350000003NY  NNW 000                       N    
MTM0483500076346368    77884194                                                                                               
RDG04835000WATRL000000004K00000000000000000007211192015092758N000300000010N47       000930400K 10000000010000000094           
CUS0483500000104071595005         BROUGHMAN DIANE JANE6 WILDWOOD AVE                          000N        CARE OF             
MTR04835000001000000000000000RA              00139968    005800740000007400000570000003NN  NNW 000                       N    
RDG04835000WATRL000000004K00000000000002158007311192015092831N000000000001N47       000330400K 10000000010000002104           
CUS0483500000104071596003         BARSOTTI CONSTANCE M10 WILDWOOD AVE                         000N        CARE OF             
MTR04835000001000000000000000RA              75616028    005800750000007500000350000003NN  NNW 000                       N    
RDG04835000WATRL000000004K00000000000000140007411192015093000N000000000000N47       000890400K 10000000010000000117           
CUS0483500000104432448001         SINKLER RHONDA D    11 WILDWOOD AVE                         000N        CARE OF             
MTR04835000001000000000000000RA              14922018    005800760000007600000310000003NN  NNW 000                       N    
RDG04835000WATRL000000004K00000000000000466007511192015093047N000000000000N47       000470400K 10000000010000000451           
CUS0483500000104071597001         IHEANACHO GODFREY C 9 WILDWOOD AVE                          000N        CARE OF             
MTR04835000001000000000000000RA              76346366    005800770000007700000350000003NN  NNW 000                       N    
RDG04835000WATRL000000004K00000000000000222007611192015093152N000000000000N47       000650400K 10000000010000000180           
CUS0483500000104071598009         HAMILTON ROBERT W   7 WILDWOOD AVE                          000N        CARE OF             
MTR04835000001000000000000000RA              27265772    005800780000007800000520000003NN  NNW 000                       N    
RDG04835000WATRL000000004K00000000000005749007711192015093314N000000000000N47       000820400K 10000000010000005667           
CUS0483500000104071599007         GUBERNAT KYLE W     15 CLIFFWOOD RD                         000N        CARE OF             
MTR04835000001000000000000000RA              50786478    005800790000007900000520000003NN  NNW 000                       N    
RDG04835000WATRL000000004K00000000000000669007811192015093407N000000000000N47       000530400K 10000000010000000658           
CUS0483500000104071600003         DECKER STEVEN P     13 CLIFFWOOD RD                         000N        CARE OF             
MTR04835000001000000000000000RA              00132089    005800800000008000000570000003NN  NNW 000                       N    
RDG04835000WATRL000000004K00000000000001545007911192015093528N000000000000N47       000810400K 10000000010000001520           
CUS0483500000104071601001         GRAY MARK W         5301 KENWOOD AVE                        000N        CARE OF             
MTR04835000001000000000000000RA              00138514    005800810000008100000570000003NN  NNW 000                       N    
RDG04835000WATRL000000004K00000000000002422008111192015093815N000000000000N47       000860400K 10000000010000002398           
CUS0483500000104071602009         BAYLESS LESLIE H    5303 KENWOOD AVE                        000N        CARE OF             
MTR04835000001000000000000000RA              01070442    005800820000008200000610000003NN  NNW 000                       N    
RDG04835000WATRL000000004K00000000000002268008211192015093847N000000000000N47       000320400K 10000000010000002212           
CUS0483500000104071603007         MARKOWSKI PHYLLIS A 5305 KENWOOD AVE                        000N        CARE OF             
MTR04835000001000000000000000RA              35110150    005800830000008300000520000003NN  NNW 000                       N    
RDG04835000WATRL000000004K00000000000001614008311192015093916N000000000000N47       000290400K 10000000010000001598           
CUS0483500000104071604005         THAXTON MYA         5307 KENWOOD AVE                        000N        CARE OF             
MTR04835000001000000000000000RA              01080164    005800840000008400000610000003NN  NNW 000                       N    
RDG04835000WATRL000000004K00000000000000999008411192015094001N000000000000N47       000450400K 10000000010000000987           
CUS0483500000104071605002         DAGOSTINO ALFRED T  5309 KENWOOD AVE                        000N        CARE OF             
MTR04835000001000000000000000RA              99289388    005800850000008500000570000003NN  NNW 000                       N    
RDG04835000WATRL000000004K00000000000001803008511192015094034N000000000000N47       000330400K 10000000010000001782           
CUS0483500000104419779006         SHERINSKY MARK D    5309A KENWOOD AVE                       000N        CARE OF             
MTR04835000001000000000000000RA              99999999    005800860000008600000520000003NN  NNW 000                       N    
RDG04835000WATRL000000004K00000000000000364008611192015094037N000000000000N47       000030400K 10000000010000000364           
CUS0483500000104071606000         REDINGTON ALEXANDER 5311 KENWOOD AVE                        000N        CARE OF             
MTR04835000001000000000000000RA              14921118    005800870000008700000310000003NN  NNW 000                       N    
RDG04835000WATRL000000004K00000000000000424008711192015094157N000000000000N47       000800400K 10000000010000000402           
CUS0483500000104071607008         DOLATA WALTER E,SR  5315 KENWOOD AVE                        000N        CARE OF             
MTR04835000001000000000000000RA              14921122    005800880000008800000310000003NN  NNW 000                       N    
RDG04835000WATRL000000004K00000000000000955008811192015094246N000000000000N47       000490400K 10000000010000000934           
CUS0483500000104071608006         GLENDON FRANKLYN HER5317 KENWOOD AVE                        000N        CARE OF             
MTR04835000001000000000000000RA              01103247    005800890000008900000610000003NN  NNW 000                       N    
RDG04835000WATRL000000004K00000000000001835008911192015094312N000000000000N47       000260400K 10000000010000001813           
CUS0483500000104071609004         TABOR GARY C        5319 KENWOOD AVE                        000N        CARE OF             
MTR04835000001000000000000000RA              01083864    005800900000009000000610000003NN  NNW 000                       N    
RDG04835000WATRL000000004K00000000000001143009011192015094404N000000000000N47       000520400K 10000000010000001123           
CUS0483500000104071610002         ZEBRASKI DAVID A    5321 KENWOOD AVE                        000N        CARE OF             
MTR04835000001000000000000000RA              10008024    005800910000009100000570000003NN  NNW 000                       N    
RDG04835000WATRL000000004K00000000000000037009111192015094434N000000000000N47       000300400K 10000000010000000033           
CUS0483500000104071611000         MISTER GEORGE C     5327 KENWOOD AVE                        000N        CARE OF             
MTR04835000001000000000000000RA              44176197    005800920000009200000520000003NN  NNW 000                       N    
RDG04835000WATRL000000004K00000000000002846009211192015094523N000000000000N47       000490400K 10000000010000002816           
CUS0483500000104071612008         COOPER FRANCIS E S  5329 KENWOOD AVE                        000N        CARE OF             
MTR04835000001000000000000000RA              48593135    005800930000009300000520000003NN  NNW 000                       N    
RDG04835000WATRL000000004K00000000000000772009311192015094551N000000000000N47       000280400K 10000000010000000768           
CUS0483500000104071613006         COFFEY KIMBERLY A   5331 KENWOOD AVE                        000N        CARE OF             
MTR04835000001000000000000000RA              00135404    005800940000009400000570000003NN  NNW 000                       N    
RDG04835000WATRL000000004K00000000000001542009411192015094732N000000000000N47       001010400K 10000000010000001512           
CUS0483500000104071614004         SCHAEFER MARY MAGDAL5333 KENWOOD AVE                        000N        CARE OF             
MTR04835000001000000000000000RA              99291590    005800950000009500000570000003NN  NNW 000                       N    
RDG04835000WATRL000000004K00000000000001419009511192015094812N000000000000N47       000400400K 10000000010000001400           
CUS0483500000104071615001         QUANTMEYER LOUIS E  5335 KENWOOD AVE                        000N        CARE OF             
MTR04835000001000000000000000RA              48591764    005800960000009600000520000003NN  NNW 000                       N    
RDG04835000WATRL000000004K00000000000001219009611192015094920N000000000000N47       000680400K 10000000010000001212           
CUS0483500000104071616009         HEDGES RICHARD      5337 KENWOOD AVE                        000N        CARE OF             
MTR04835000001000000000000000RA              45387015    005800970000009700000520000003NN  NNW 000                       N    
RDG04835000WATRL000000004K00000000000001214009711192015095021N000000000000N47       000610400K 10000000010000001208           
CUS0483500000104071617007         HAYES TIMOTHY C     5339 KENWOOD AVE                        000N        CARE OF             
MTR04835000001000000000000000RA              75613953    005800980000009800000350000003NN  NNW 000                       N    
RDG04835000WATRL000000004K00000000000000176009811192015095049N000000000000N47       000280400K 10000000010000000161           
CUS0483500000104071618005         HEDGES JOAN F       5341 KENWOOD AVE                        000N        CARE OF             
MTR04835000001000000000000000RA              41081650    005800990000009900000520000003NN  NNW 000                       N    
RDG04835000WATRL000000004K00000000000001611009911192015095249N000000000000N47       001200400K 10000000010000001590           
CUS0483500000104071619003         MAY ROBYN T         5603 KENWOOD AVE                        000N        CARE OF             
MTR04835000001000000000000000RA              99291827    005801000000010000000570000003NN  NNW 000                       N    
RDG04835000WATRL000000004K00000000000002169010011192015095541N000000000000N47       001720400K 10000000010000002149           
CUS0483500000104071620001         BOULOUBASSIS CHRIST 5605 KENWOOD AVE                        000N        CARE OF             
MTR04835000001000000000000000RA              10024747    005801010000010100000570000003NN  NNW 000                       N    
RDG04835000WATRL000000004K00000000000000498010111192015095732N000000000000N47       001110400K 10000000010000000442           
CUS0483500000104071621009         BOULOUBASSIS CHRIST 5611 KENWOOD AVE                        000N        CARE OF             
MTR04835000001000000000000000RA              10013023    005801020000010200000570000003NN  NNW 000                       N    
RDG04835000WATRL000000004K00000000000001072010211192015095850N000000000000N47       000780400K 10000000010000000826           
CUS0483500000104071622007         ORDANZA DAVID J     5615 KENWOOD AVE                        000N        CARE OF             
MTR04835000001000000000000000RA              48593069    005801030000010300000520000003NN  NNW 000                       N    
RDG04835000WATRL000000004K00000000000002226010311192015095935N000000000000N47       000450400K 10000000010000002198           
CUS0483500000104071623005         KLOESZ WENDY DOROTHY5701 KENWOOD AVE                        000N        CARE OF             
MTR04835000001000000000000000RA              24773638    005801040000010400000520000003NN  NNW 000                       N    
RDG04835000WATRL000000004K00000000000002062010411192015100037N000100000010N47       000620400K 10000000010000002062           
CUS0483500000104071624003         HAACK CHESTER A     5703 KENWOOD AVE                        000N        CARE OF             
MTR04835000001000000000000000RA              00139967    005801050000010500000570000003NN  NNW 000                       N    
RDG04835000WATRL000000004K00000000000000453010511192015100125N000000000000N47       000480400K 10000000010000000421           
CUS0483500000104071625000         CRAIG PATRICK S     5705 KENWOOD AVE                        000N        CARE OF             
MTR04835000001000000000000000RA              40048436    005801060000010600000520000003NN  NNW 000   VACANT / LOT        N    
RDG04835000WATRL000000004K00000000000000000010611192015100209S002000000000N47       000440400K 10000000010000001555           
CUS0483500000104071626008         WARREN STEPHEN C    5707 KENWOOD AVE                        000N        CARE OF             
MTR04835000001000000000000000RA              10007853    005801070000010700000570000003NN  NNW 000                       N    
RDG04835000WATRL000000004K00000000000000753010711192015100242N000000000000N47       000330400K 10000000010000000713           
CUS0483500000104071627006         HORST-PAGLIA GALE L 5709 KENWOOD AVE                        000N        CARE OF             
MTR04835000001000000000000000RA              10002408    005801080000010800000570000003NN  NNW 000                       N    
RDG04835000WATRL000000004K00000000000000629010811192015100327N000000000000N47       000450400K 10000000010000000603           
CUS0483500000104071628004         CP PROPERTIES       5905 KENWOOD AVE                        000N        CARE OF             
MTR04835000001000000000000000RA              01080168    005801090000010900000610000003NN  NNW 000                       N    
RDG04835000WATRL000000004K00000000000002954010911192015100639N000000000000N47       001920400K 10000000010000002912           
CUS0483500000104071629002         CP PROPERTIES       WS KENWOOD AV 1050 FT                   000N        CARE OF             
MTR04835000001000000000000000RA              99411929    007501100000011000000570000003NN  NNW 000                       N    
RDG04835000WATRL000000004K00000000000000000011000000000000000 000000000000U         000000400  10000000010000002077           
CUS0483500000104071630000         CP PROPERTIES       6001 KENWOOD AVE                        000N        CARE OF             
MTR04835000001000000000000000RA              44175494    005801110000011100000520000003NN  NNW 000                       N    
RDG04835000WATRL000000004K00000000000005030011111192015100751N000000000000N47       000640400K 10000000010000004971           
CUS0483500000104071631008         CHAUDRON JOHN D     6003 KENWOOD AVE                        000N        CARE OF             
MTR04835000001000000000000000RA              01084037    005801120000011200000610000003NN  NNW 000                       N    
RDG04835000WATRL000000004K00000000000000914011211192015100930N000000000010N47       000990400K 10000000010000000900           
CUS0483500000104071632006         TOSCANO FRANKLIN    6005 KENWOOD AVE                        000N        CARE OF             
MTR04835000001000000000000000RA              01091050    005801130000011300000610000003NN  NNW 000                       N    
RDG04835000WATRL000000004K00000000000000411011311192015101002N000000000000N47       000320400K 10000000010000000402           
CUS0483500000104071633004         DINISIO SHARON L    6007 KENWOOD AVE                        000N        CARE OF             
MTR04835000001000000000000000RA              32901086    005801140000011400000520000003NN  NNW 000                       N    
RDG04835000WATRL000000004K00000000000004179011611192015101217N000000000000N47       000500400K 10000000010000004103           
CUS0483500000104415331000         ATKINSON EARL L     6009 KENWOOD AVE                        000N        CARE OF             
MTR04835000001000000000000000RA              46886434    005801150000011500000520000003NN  NNW 000                       N    
RDG04835000WATRL000000004K00000000000003750011411192015101048N000000000000N47       000460400K 10000000010000003719           
CUS0483500000104415332008         CARTER HUGH WILLIAM 6009A KENWOOD AVE                       000N        CARE OF             
MTR04835000001000000000000000RA              01084448    005801160000011600000610000003NN  NNW 000                       N    
RDG04835000WATRL000000004K00000000000002529011511192015101127N000000000000N47       000390400K 10000000010000002495           
CUS0483500000104071634002         DARCHICOURT APRIL   6011 KENWOOD AVE                        000N        CARE OF             
MTR04835000001000000000000000RA              01102497    005801170000011700000610000003NN  NNW 000                       N    
RDG04835000WATRL000000004K00000000000001334011711192015101316N000000000000N47       000590400K 10000000010000001218           
CUS0483500000104071636007         KENWOOD HAZELWOOD LLWS KENWOOD AV AT                        000N        CARE OF             
MTR04835000001000000000000000RA              5096458     007501180000011800000570000003NN  NNW 000                       N    
RDG04835000WATRL000000004K00000000000000000011911192015101619S005000000000U47       000520400K 10000000010000010131           
CUS0483500000104071637005         BALTIMORE COUNTY MAR6101 KENWOOD AVE                        000N        CARE OF             
MTR04835000001000000000000000RA              35101212    001501190000011900000520000003NN  NNW 000                       N    
RDG04835000WATRL000000005K00000000000005329011811192015101527N000000000000N47       001310500K 10000000010000005270           
CUS0483500000104071638003         KENWOOD HAZELWOOD LL6241 KENWOOD AVE                        000N        CARE OF             
MTR04835000001000000000000000RA              41091072    001501200000012000000520000003NN  NNW 000                       N    
RDG04835000WATRL000000005K00000000000009407012011192015101745N000000000000N47       000860500K 10000000010000009348           
CUS0483500000104071639001         KENWOOD-HAZELWOOD   6269 KENWOOD AVE                        000N        CARE OF             
MTR04835000001000000000000000RA              33416728    007501210000012100000520000003NN  NNW 000                       N    
RDG04835000WATRL000000004K00000000000002161012111192015101846N000400000010N47       000610400K 10000000010000002154           
CUS0483500000104416286005         THEODORE J DUPACK JR6430 HAZELWOOD AVE                      000N        CARE OF             
MTR04835000001000000000000000RA              48584759    005801220000012200000520000003NN  NNW 000                       N    
RDG04835000WATRL000000004K00000000000002516000111192015082443N000000000000N40       000000400K 10000000010000002496           
CUS0483500000104372183006         BECK CHARLES FEDERIC6406 HAZELWOOD AVE                      000N        CARE OF             
MTR04835000001000000000000000RA              45374439    005801230000012300000520000003NN  NNW 000                       N    
RDG04835000WATRL000000004K00000000000002231000211192015083232N000000000000N40       004690400K 10000000010000002219           
CUS0483500000104071640009         MORALES PEDRO J     6404 HAZELWOOD AVE                      000N        CARE OF             
MTR04835000001000000000000000RA              77988588    005801240000012400000360000003NN  NNW 000                       N    
RDG04835000WATRL000000004K00000000000000000000311192015083314N000000000000N40       000420400K 10000000010000000000           
CUS0483500000104071641007         PFEIFFER WILLIAM E  6400 HAZELWOOD AVE                      000N        CARE OF             
MTR04835000001000000000000000RA              01080160    005801250000012500000610000003NN  NNW 000                       N    
RDG04835000WATRL000000004K00000000000000345000411192015083811N000000000000N40       002970400K 10000000010000000341           
CUS0483500000104071642005         RICHARDSON ELEANOR  6328 HAZELWOOD AVE                      000N        CARE OF             
MTR04835000001000000000000000RA              42809888    005801260000012600000520000003NN  NNW 000                       N    
RDG04835000WATRL000000004K00000000000003678000511192015083900N000000000000N40       000490400K 10000000010000003656           
CUS0483500000104071643003         SPANELLIS PHILIP    6326 HAZELWOOD AVE                      000N        CARE OF             
MTR04835000001000000000000000RA              10000892    005801270000012700000570000003NN  NNW 000                       N    
RDG04835000WATRL000000004K00000000000000541000611192015084000N000400000010N40       000600400K 10000000010000000533           
CUS0483500000104071644001         JOSEPH ALLEGRO JR   6324 HAZELWOOD AVE                      000N        CARE OF             
MTR04835000001000000000000000RA              38887124    005801280000012800000520000003NN  NNW 000                       N    
RDG04835000WATRL000000004K00000000000004123000711192015084133N000000000000N40       000930400K 10000000010000004102           
CUS0483500000104071645008         HAZELWOOD BAPTIST CH6220 HAZELWOOD AVE                      000N        CARE OF             
MTR04835000001000000000000000RA              10024561    005801290000012900000570000003NN  NNW 000                       N    
RDG04835000WATRL000000004K00000000000000346000811192015084442N000000000000N40       001890400K 10000000010000000333           
CUS0483500000104071683009         JANKIEWICZ STEVEN J 6001 POINT PLEASANT RD                  000N        CARE OF             
MTR04835000001000000000000000RA              10010722    005801300000013000000570000003NN  NNW 000                       N    
RDG04835000WATRL000000004K00000000000000855001011192015085227N000000000000N40       000630400K 10000000010000000811           
CUS0483500000104395190004         SUTPHIN WAYNE S     6003 POINT PLEASANT RD                  000N        CARE OF             
MTR04835000001000000000000000RA              38985649    005801310000013100000520000003NN  NNW 000                       N    
RDG04835000WATRL000000004K00000000000003369000911192015085124N000000000000N40       004020400K 10000000010000003363           
CUS0483500000104071684007         TUREK ROGER K       6005 POINT PLEASANT RD                  000N        CARE OF             
MTR04835000001000000000000000RA              23842412    005801320000013200000520000003NN  NNW 000                       N    
RDG04835000WATRL000000004K00000000000006022002011192015090247N000000000000N40       002070400K 10000000010000005987           
CUS0483500000104071685004         ERISMAN GREGORY P   6007 POINT PLEASANT RD                  000N        CARE OF             
MTR04835000001000000000000000RA              32899607    005801330000013300000520000003NN  NNW 000                       N    
RDG04835000WATRL000000004K00000000000005426002111192015090352N000000000000N40       000650400K 10000000010000005409           
CUS0483500000104071686002         ERISMAN GREGORY P   6009 POINT PLEASANT RD                  000N        CARE OF             
MTR04835000001000000000000000RA              11427416    005801340000013400000570000003NN  NNW 000                       N    
RDG04835000WATRL000000004K00000000000003119002511192015090616N000000000000N40       000300400K 10000000010000003076           
CUS0483500000104071687000         RODNEY PRICE        6015 POINT PLEASANT RD                  000N        CARE OF             
MTR04835000001000000000000000RA              10011371    005801350000013500000570000003NN  NNW 000                       N    
RDG04835000WATRL000000004K00000000000000701002811192015090842N000000000000N40       000700400K 10000000010000000670           
CUS0483500000104071688008         DEWEY RODGER F      6017 POINT PLEASANT RD                  000N        CARE OF             
MTR04835000001000000000000000RA              11471831    005801360000013600000570000003NN  NNW 000                       N    
RDG04835000WATRL000000004K00000000000000544002911192015090921N000000000000N40       000390400K 10000000010000000482           
CUS0483500000104352901005         MCPHERSON JOHN C,JR 6019 POINT PLEASANT RD                  000N        CARE OF             
MTR04835000001000000000000000RA              27833999    005801370000013700000520000003NN  NNW 000                       N    
RDG04835000WATRL000000004K00000000000008610003211192015091132N000400000020N40       000420400K 10000000010000008485           
CUS0483500000104374340000         GASQUE HOWARD       6021 POINT PLEASANT RD                  000N        CARE OF             
MTR04835000001000000000000000RA              14902409    005801380000013800000310000003NN  NNW 000                       N    
RDG04835000WATRL000000004K00000000000001335003311192015091309N000000000000N40       000970400K 10000000010000001321           
CUS0483500000104400839009         ALLONG CHRISTOPHER  6028 POINT PLEASANT RD                  000N        CARE OF             
MTR04835000001000000000000000RA              41589419    005801390000013900000520000003NN  NNW 000                       N    
RDG04835000WATRL000000004K00000000000003554003611192015091523N000000000000N40       000460400K 10000000010000003520           
CUS0483500000104402049003         BENNETT REBECCA J   6026 POINT PLEASANT RD                  000N        CARE OF             
MTR04835000001000000000000000RA              41082065    005801400000014000000520000003NN  NNW 000                       N    
RDG04835000WATRL000000004K00000000000002655003511192015091437N000000000000N40       000600400K 10000000010000002641           
CUS0483500000104427381001         UDUMUKWU FLORA C    6024 POINT PLEASANT RD                  000N        CARE OF             
MTR04835000001000000000000000RA              99389735    005801410000014100000570000003NN  NNW 000                       N    
RDG04835000WATRL000000004K00000000000001537003411192015091337N000000000000N40       000280400K 10000000010000001518           
CUS0483500000106362198001         WANKEL MICHAEL ROBER6022 POINT PLEASANT RD                  000N        CARE OF             
MTR04835000001000000000000000RA              99999999    005801420000014200000620000003NN  NNW 000                       N    
RDG04835000WATRL000000004K00000000000000000003111192015091050S002000000001N40       000050400K 10000000010000000167           
CUS0483500000104071689006         SEWELL BARRY G      6020 POINT PLEASANT RD                  000N        CARE OF             
MTR04835000001000000000000000RA              24759888    005801430000014300000520000003NN  NNW 000                       N    
RDG04835000WATRL000000004K00000000000004120003011192015090951N000000000000N40       000300400K 10000000010000004101           
CUS0483500000104071690004         COGGINS LAWRENCE E  6014 POINT PLEASANT RD                  000N        CARE OF             
MTR04835000001000000000000000RA              11336652    005801440000014400000570000003NN  NNW 000                       N    
RDG04835000WATRL000000004K00000000000004504002711192015090732N000000000000N40       000420400K 10000000010000004489           
CUS0483500000104071691002         TENNYSON CHARLES F,36010 POINT PLEASANT RD                  000N        CARE OF             
MTR04835000001000000000000000RA              01080951    005801450000014500000610000003NN  NNW 000                       N    
RDG04835000WATRL000000004K00000000000001924002611192015090650N000000000000N40       000340400K 10000000010000001903           
CUS0483500000104421378003         VANSANT MATTHEW DANI6008A POINT PLEASANT RD                 000N        CARE OF             
MTR04835000001000000000000000RA              50479129    005801460000014600000520000003NN  NNW 000                       N    
RDG04835000WATRL000000004K00000000000000519002411192015090546N000100000010N40       000390400K 10000000010000000519           
CUS0483500000104071692000         VANSANT MATTHEW D   6008 POINT PLEASANT RD                  000N        CARE OF             
MTR04835000001000000000000000RA              10018367    005801470000014700000570000003NN  NNW 000                       N    
RDG04835000WATRL000000004K00000000000000229002311192015090507N000000000000N40       000200400K 10000000010000000209           
CUS0483500000104071693008         SMOOT WILBERT C     6006 POINT PLEASANT RD                  000N        CARE OF             
MTR04835000001000000000000000RA              41088019    005801480000014800000520000003NN  NNW 000                       N    
RDG04835000WATRL000000004K00000000000004180002211192015090447N000000000000N40       000550400K 10000000010000004157           
CUS0483500000104071694006         HAYNES JOSEPH B     6002 POINT PLEASANT RD                  000N        CARE OF             
MTR04835000001000000000000000RA              52769892    005801490000014900000520000003NN  NNW 000                       N    
RDG04835000WATRL000000004K00000000000002916001911192015085920N000000000000N40       000600400K 10000000010000002881           
CUS0483500000104071695003         CALDERONE MABEL L   320 ST PATRICK RD                       000N        CARE OF             
MTR04835000001000000000000000RA              29683102    005801500000015000000520000003NN  NNW 000                       N    
RDG04835000WATRL000000004K00000000000003463001711192015085758N000000000000N40       000350400K 10000000010000003452           
CUS0483500000104071696001         THOMPSON GEORGE     318 ST PATRICK RD                       000N        CARE OF             
MTR04835000001000000000000000RA              10002385    005801510000015100000570000003NN  NNW 000                       N    
RDG04835000WATRL000000004K00000000000000624001811192015085820N000000000000N40       000220400K 10000000010000000618           
CUS0483500000104071697009         BRZOZOWSKI GREGORY  5912 POINT PLEASANT RD                  000N        CARE OF             
MTR04835000001000000000000000RA              14905197    005801520000015200000310000003NN  NNW 000                       N    
RDG04835000WATRL000000004K00000000000001482001611192015085723N000000000000N40       000380400K 10000000010000001449           
CUS0483500000104071698007         PALIY VIKTOR        5910 POINT PLEASANT RD                  000N        CARE OF             
MTR04835000001000000000000000RA              01082331    005801530000015300000610000003NN  NNW 000                       N    
RDG04835000WATRL000000004K00000000000001531001511192015085645N000000000000N40       000280400K 10000000010000001506           
CUS0483500000104071699005         MARTAK DAVID ELWOOD,5908 POINT PLEASANT RD                  000N        CARE OF             
MTR04835000001000000000000000RA              22609674    005801540000015400000520000003NN  NNW 000                       N    
RDG04835000WATRL000000004K00000000000005682001411192015085617N000000000000N40       000290400K 10000000010000005668           
CUS0483500000104071700001         RASPA FRANCIS P     5906 POINT PLEASANT RD                  000N        CARE OF             
MTR04835000001000000000000000RA              22862105    005801550000015500000520000003NN  NNW 000                       N    
RDG04835000WATRL000000004K00000000000004671001311192015085548N000000000000N40       000260400K 10000000010000004669           
CUS0483500000104071701009         WOLFF STEPHEN G     5904 POINT PLEASANT RD                  000N        CARE OF             
MTR04835000001000000000000000RA              33081737    005801560000015600000520000003NN  NNW 000                       N    
RDG04835000WATRL000000004K00000000000001648001211192015085522N000000000000N40       000640400K 10000000010000001636           
CUS0483500000104071702007         FULLANO GENARO NICOL5902 POINT PLEASANT RD                  000N        CARE OF             
MTR04835000001000000000000000RA              27825982    005801570000015700000520000003NN  NNW 000                       N    
RDG04835000WATRL000000004K00000000000003154001111192015085418N000000000000N40       001110400K 10000000010000003150           
CUS0483500000104071748000         MOORE IBN A         5800 COMSTOCK AVE                       000N        CARE OF             
MTR04835000001000000000000000RA              14914319    005801580000015800000310000003NN  NNW 000                       N    
RDG04835000WATRL000000004K00000000000001170003711192015092251N000000000000N40       004480400K 10000000010000001142           
CUS0483500000104071749008         DIXON-LEE DEBRA     5120 HAZELWOOD AVE                      000N        CARE OF             
MTR04835000001000000000000000RA              38983006    005801590000015900000520000003NN  NNW 000                       N    
RDG04835000WATRL000000004K00000000000002734003811192015092331N000000000000N40       000400400K 10000000010000002727           
CUS0483500000104071750006         CERNY BRIAN         5118 HAZELWOOD AVE                      000N        CARE OF             
MTR04835000001000000000000000RA              10000830    005801600000016000000570000003NN  NNW 000                       N    
RDG04835000WATRL000000004K00000000000000254003911192015092436N000000000000N40       000650400K 10000000010000000241           
CUS0483500000104071751004         TISDALE-CLARY EMMA R5114 HAZELWOOD AVE                      000N        CARE OF             
MTR04835000001000000000000000RA              01079631    005801610000016100000610000003NN  NNW 000                       N    
RDG04835000WATRL000000004K00000000000000662004011192015092645N000000000000N40       001290400K 10000000010000000648           
CUS0483500000104071752002         COLEMAN DOTSON,JR   5112 HAZELWOOD AVE                      000N        CARE OF             
MTR04835000001000000000000000RA              01079635    005801620000016200000610000003NN  NNW 000                       N    
RDG04835000WATRL000000004K00000000000001123004111192015092647N000000000000N40       000020400K 10000000010000001116           
CUS0483500000104071753000         WILLIAMS STEFFANIE  5110 HAZELWOOD AVE                      000N        CARE OF             
MTR04835000001000000000000000RA              14926833    005801630000016300000310000003NN  NNW 000                       N    
RDG04835000WATRL000000004K00000000000000412004211192015092752N000000000000N40       000650400K 10000000010000000390           
CUS0483500000104071754008         LAWRENCE STUART     5108 HAZELWOOD AVE                      000N        CARE OF             
MTR04835000001000000000000000RA              01079639    005801640000016400000610000003NN  NNW 000                       N    
RDG04835000WATRL000000004K00000000000001215004311192015092846N000000000000N40       000540400K 10000000010000001197           
CUS0483500000104071755005         JAMES MARGARET A    5106 HAZELWOOD AVE                      000N        CARE OF             
MTR04835000001000000000000000RA              41076764    005801650000016500000520000003NN  NNW 000                       N    
RDG04835000WATRL000000004K00000000000001433004411192015092916N000000000000N40       000300400K 10000000010000001409           
CUS0483500000104071756003         HILDITCH ALFRED J   5104 HAZELWOOD AVE                      000N        CARE OF             
MTR04835000001000000000000000RA              01079632    005801660000016600000610000003NN  NNW 000                       N    
RDG04835000WATRL000000004K00000000000000670004511192015092938N000000000000N40       000220400K 10000000010000000659           
CUS0483500000104071757001         LOVETT CHAD         5102 HAZELWOOD AVE                      000N        CARE OF             
MTR04835000001000000000000000RA              01079636    005801670000016700000610000003NN  NNW 000                       N    
RDG04835000WATRL000000004K00000000000001470004611192015093000N000000000000N40       000220400K 10000000010000001417           
CUS0483500000104071758009         JOHNSON CLIFFTON L  5100 HAZELWOOD AVE                      000N        CARE OF             
MTR04835000001000000000000000RA              01114455    005801680000016800000610000003NN  NNW 000                       N    
RDG04835000WATRL000000004K00000000000002921004711192015093249N000000000000N40       001690400K 10000000010000002868           
CUS0483500000104071759007         MCCALLUM TARITA M   5010 HAZELWOOD AVE                      000N        CARE OF             
MTR04835000001000000000000000RA              35115030    005801690000016900000520000003NN  NNW 000                       N    
RDG04835000WATRL000000004K00000000000003651004811192015093417N000000000000N40       000880400K 10000000010000003636           
CUS0483500000104071760005         KELLY MARGARET S    5004 HAZELWOOD AVE                      000N        CARE OF             
MTR04835000001000000000000000RA              23645058    005801700000017000000520000003NN  NNW 000                       N    
RDG04835000WATRL000000004K00000000000004069005911192015094139N000000000000N40       000410400K 10000000010000004048           
CUS0483500000104071761003         BROOKS ALMA D       5002 HAZELWOOD AVE                      000N        CARE OF             
MTR04835000001000000000000000RA              39290080    005801710000017100000520000003NN  NNW 000                       N    
RDG04835000WATRL000000004K00000000000002041005811192015094058N000000000000N40       000420400K 10000000010000002028           
CUS0483500000104395429006         BOWERS JAMES        5000 HAZELWOOD AVE                      000N        CARE OF             
MTR04835000001000000000000000RA              39289431    005801720000017200000520000003NN  NNW 000                       N    
RDG04835000WATRL000000004K00000000000004579005711192015094016N000000000000N40       000130400K 10000000010000004535           
CUS0483500000104395405006         ISAACS STEVEN A     4950 HAZELWOOD AVE                      000N        CARE OF             
MTR04835000001000000000000000RA              39289360    005801730000017300000520000003NN  NNW 000                       N    
RDG04835000WATRL000000004K00000000000003715005511192015093929N000000000000N40       001060400K 10000000010000003683           
CUS0483500000104071764007         BONNETT WILLIAM RICH4920 HAZELWOOD AVE                      000N        CARE OF             
MTR04835000001000000000000000RA              22606878    005801740000017400000520000003NN  NNW 000                       N    
RDG04835000WATRL000000004K00000000000003724005611192015094839N000000000011N40       000310400K 10000000010000003705           
CUS0483500000104071765004         PALMISANO JOSEPH FRA4918 HAZELWOOD AVE                      000N        CARE OF             
MTR04835000001000000000000000RA              24220688    005801750000017500000520000003NN  NNW 000                       N    
RDG04835000WATRL000000004K00000000000006990006311192015095033N000000000000N40       001140400K 10000000010000006908           
CUS0483500000104071766002         LGL LLC             4912 HAZELWOOD AVE                      000N        CARE OF             
MTR04835000001000000000000000RA              25782302    005801760000017600000520000003NN  NNW 000                       N    
RDG04835000WATRL000000004K00000000000007188006411192015095154N000000000010N40       000810400K 10000000010000007117           
CUS0483500000104071767000         CLOVERLAND FARMS DAI4908 HAZELWOOD AVE                      000N        CARE OF             
MTR04835000001000000000000000RA              29682905    005801770000017700000520000003NN  NNW 000                       N    
RDG04835000WATRL000000004K00000000000005440006511192015095249N000300000010N40       000550400K 10000000010000005365           
CUS0483500000104071768008         ODEYEMI LAWRENCE    4902 HAZELWOOD AVE                      000N        CARE OF             
MTR04835000001000000000000000RA              41089484    007501780000017800000520000003NN  NNW 000                       N    
RDG04835000WATRL000000004K00000000000002422006611192015095403N000000000000N40       000740400K 10000000010000002419           
CUS0483500000104071769006         MORALES FERNANDO A  5801 WESTWOOD AVE                       000N        CARE OF             
MTR04835000001000000000000000RA              32178670    005801790000017900000520000003NN  NNW 000                       N    
RDG04835000WATRL000000004K00000000000003474006711192015095525N000000000000N40       000820400K 10000000010000003438           
CUS0483500000104071770004         PACIS RANIER        5803 WESTWOOD AVE                       000N        CARE OF             
MTR04835000001000000000000000RA              44091472    005801800000018000000520000003NN  NNW 000                       N    
RDG04835000WATRL000000004K00000000000002594006811192015095601N000000000000N40       000360400K 10000000010000002562           
CUS0483500000104071771002         GRAMMER OWEN F      5808 WESTWOOD AVE                       000N        CARE OF             
MTR04835000001000000000000000RA              01070001    005801810000018100000610000003NN  NNW 000                       N    
RDG04835000WATRL000000004K00000000000001020006911192015095703N000000000000N40       000620400K 10000000010000000984           
CUS0483500000104071772000         GRAMMER OWEN F      5810 WESTWOOD AVE                       000N        CARE OF             
MTR04835000001000000000000000RA              01070000    005801820000018200000610000003NN  NNW 000                       N    
RDG04835000WATRL000000004K00000000000000643007011192015095918N000000000000N40       001350400K 10000000010000000601           
CUS0483500000104071773008         GRABOWSKI JOHN A,JR 5812 WESTWOOD AVE                       000N        CARE OF             
MTR04835000001000000000000000RA              46890102    007501830000018300000520000003NN  NNW 000                       N    
RDG04835000WATRL000000004K00000000000002239007411192015100538N000000000000N40       000590400K 10000000010000002213           
CUS0483500000104376433001         WARENDA GREGORY     5814 WESTWOOD AVE                       000N        CARE OF             
MTR04835000001000000000000000RA              33080940    005801840000018400000520000003NN  NNW 000                       N    
RDG04835000WATRL000000004K00000000000003516007511192015100617N000000000000N40       000390400K 10000000010000003494           
CUS0483500000102411735000         AJUZIE JULIANA O    5832 WESTWOOD AVE                       000N        CARE OF             
MTR04835000001000000000000000RA              45387591    005801850000018500000520000003NN  NNW 000                       N    
RDG04835000WATRL000000004K00000000000003036008711192015101237N000000000000N40       000550400K 10000000010000003012           
CUS0483500000104071774006         PARRISH RAYMOND E   5809 WESTWOOD AVE                       000N        CARE OF             
MTR04835000001000000000000000RA              52289809    005801860000018600000520000003NN  NNW 000                       N    
RDG04835000WATRL000000004K00000000000000866007111192015100059N000000000000N40       001010400K 10000000010000000852           
CUS0483500000104071775003         MILLER RONALD ROBERT5811 WESTWOOD AVE                       000N        CARE OF             
MTR04835000001000000000000000RA              99388496    005801870000018700000570000003NN  NNW 000                       N    
RDG04835000WATRL000000004K00000000000001230007211192015100224N000000000000N40       000850400K 10000000010000001197           
CUS0483500000104071776001         HERFEL LEROY        5815 WESTWOOD AVE                       000N        CARE OF             
MTR04835000001000000000000000RA              41259072    005801880000018800000520000000NN  NNW 000                       N    
RDG04835000WATRL000000004K00000000000002845007311192015100439N000000000000N40       001350400K 10000000010000002831           
CUS0483500000104071777009         HERFEL LEROY        5817 WESTWOOD AVE                       000N        CARE OF             
MTR04835000001000000000000000RA              14907974    005801890000018900000310000003NN  NNW 000                       N    
RDG04835000WATRL000000004K00000000000000454007611192015100650N000000000000N40       000330400K 10000000010000000433           
CUS0483500000104071778007         VIERA MIGUEL        5819 WESTWOOD AVE                       000N        CARE OF             
MTR04835000001000000000000000RA              14904428    005801900000019000000310000003NN  NNW 000                       N    
RDG04835000WATRL000000004K00000000000000588007711192015100716N000400000010N40       000260400K 10000000010000000578           
CUS0483500000104071779005         YOUNG TIMOTHY C     5823 WESTWOOD AVE                       000N        CARE OF             
MTR04835000001000000000000000RA              10009005    005801910000019100000570000003NN  NNW 000                       N    
RDG04835000WATRL000000004K00000000000000339007811192015100807N000000000000N40       000510400K 10000000010000000326           
CUS0483500000104071780003         CRITCHER ERIN A     5825 WESTWOOD AVE                       000N        CARE OF             
MTR04835000001000000000000000RA              10009422    005801920000019200000570000003NN  NNW 000                       N    
RDG04835000WATRL000000004K00000000000000444007911192015100833N000000000000N40       000260400K 10000000010000000424           
CUS0483500000104071781001         HARROLD CLYDE H     5827 WESTWOOD AVE                       000N        CARE OF             
MTR04835000001000000000000000RA              76346735    005801930000019300000350000003NN  NNW 000                       N    
RDG04835000WATRL000000004K00000000000000036008011192015100855N000000000000N40       000220400K 10000000010000000031           
CUS0483500000104071782009         GEORGIADIS JORGE JUA5826 WESTWOOD AVE                       000N        CARE OF             
MTR04835000001000000000000000RA              42810522    005801940000019400000520000003NN  NNW 000                       N    
RDG04835000WATRL000000004K00000000000002489008111192015100915N000000000000N40       000200400K 10000000010000002469           
CUS0483500000104071783007         SPRING EVERETT N    5829 WESTWOOD AVE                       000N        CARE OF             
MTR04835000001000000000000000RA              77890257    005801950000019500000360000003NN  NNW 000                       N    
RDG04835000WATRL000000004K00000000000000001008211192015100957N000000000010N40       000420400K 10000000010000000000           
CUS0483500000104071784005         SNOWDEN GLENDA      5828 WESTWOOD AVE                       000N        CARE OF             
MTR04835000001000000000000000RA              10012772    005801960000019600000570000003NN  NNW 000                       N    
RDG04835000WATRL000000004K00000000000000349008311192015101023N000000000000N40       000260400K 10000000010000000323           
CUS0483500000104071785002         BORAM TINA M        5830 WESTWOOD AVE                       000N        CARE OF             
MTR04835000001000000000000000RA              10007991    005801970000019700000570000003NN  NNW 000                       N    
RDG04835000WATRL000000004K00000000000000625008411192015101054N000000000000N40       000310400K 10000000010000000600           
CUS0483500000104071786000         WATSON JOHN WILLIAM 5831 WESTWOOD AVE                       000N        CARE OF             
MTR04835000001000000000000000RA              10010818    005801980000019800000570000003NN  NNW 000                       N    
RDG04835000WATRL000000004K00000000000000451008511192015101114N000000000000N40       000200400K 10000000010000000428           
CUS0483500000104071787008         HULSE GEORGE E,SR   5833 WESTWOOD AVE                       000N        CARE OF             
MTR04835000001000000000000000RA              01107359    005801990000019900000610000003NN  NNW 000                       N    
RDG04835000WATRL000000004K00000000000000412008611192015101142N000000000000N40       000280400K 10000000010000000400           
CUS0483500000104071788006         STONE HEATH W       5835 WESTWOOD AVE                       000N        CARE OF             
MTR04835000001000000000000000RA              45387800    005802000000020000000520000003NN  NNW 000                       N    
RDG04835000WATRL000000004K00000000000003494008911192015101432N000000000000N40       000740400K 10000000010000003474           
CUS0483500000104071789004         WILSON WARREN K     5839 WESTWOOD AVE                       000N        CARE OF             
MTR04835000001000000000000000RA              99287554    005802010000020100000570000003NN  NNW 000                       N    
RDG04835000WATRL000000004K00000000000002129009011192015101507N000000000000N40       000350400K 10000000010000002092           
CUS0483500000104071790002         FRANKHOUSER JOHN R  5841 WESTWOOD AVE                       000N        CARE OF             
MTR04835000001000000000000000RA              01070005    005802020000020200000610000003NN  NNW 000                       N    
RDG04835000WATRL000000004K00000000000001203009211192015101634N000000000000N40       000540400K 10000000010000001178           
CUS0483500000104071791000         RINK PHILIP L       5843 WESTWOOD AVE                       000N        CARE OF             
MTR04835000001000000000000000RA              14918037    005802030000020300000310000003NN  NNW 000                       N    
RDG04835000WATRL000000004K00000000000000469009311192015101702N000000000000N40       000280400K 10000000010000000456           
CUS0483500000104071792008         STUPAK JOHN WILLIAM,5845 WESTWOOD AVE                       000N        CARE OF             
MTR04835000001000000000000000RA              00135614    005802040000020400000570000003NN  NNW 000                       N    
RDG04835000WATRL000000004K00000000000000765009611192015101933N000000000000N40       000280400K 10000000010000000747           
CUS0483500000104071793006         MANIK CHARLES L     5847 WESTWOOD AVE                       000N        CARE OF             
MTR04835000001000000000000000RA              33734510    005802050000020500000520000003NN  NNW 000                       N    
RDG04835000WATRL000000004K00000000000002517009711192015102109N000000000000N40       000960400K 10000000010000002507           
CUS0483500000104071794004         COLBURN JOHN        5848 WESTWOOD AVE                       000N        CARE OF             
MTR04835000001000000000000000RA              24233578    005802060000020600000520000003NN  NNW 000                       N    
RDG04835000WATRL000000004K00000000000004013009811192015102144N000000000000N40       000350400K 10000000010000003988           
CUS0483500000104071795001         RYE SHAWN L.        5846 WESTWOOD AVE                       000N        CARE OF             
MTR04835000001000000000000000RA              75424499    005802070000020700000350000003NN  NNW 000                       N    
RDG04835000WATRL000000004K00000000000000282009911192015102318N000000000010N40       000940400K 10000000010000000232           
CUS0483500000104071796009         DILLON JAMES P      5844 WESTWOOD AVE                       000N        CARE OF             
MTR04835000001000000000000000RA              10012645    005802080000020800000570000003NN  NNW 000                       N    
RDG04835000WATRL000000004K00000000000000534009511192015101905N000000000000N40       000410400K 10000000010000000502           
CUS0483500000104071797007         RUMBERGER RICHARD A 5842 WESTWOOD AVE                       000N        CARE OF             
MTR04835000001000000000000000RA              01113259    005802090000020900000610000003NN  NNW 000                       N    
RDG04835000WATRL000000004K00000000000000792009411192015101824N000000000000N40       000820400K 10000000010000000771           
CUS0483500000104071798005         WEHNER SCOTT A      5838 WESTWOOD AVE                       000N        CARE OF             
MTR04835000001000000000000000RA              78021682    005802100000021000000360000003NN  NNW 000                       N    
RDG04835000WATRL000000004K00000000000000003009111192015101540N000000000010N40       000330400K 10000000010000000000           
CUS0483500000104435282001         MILLER RICHARD L    5834 WESTWOOD AVE                       000N        CARE OF             
MTR04835000001000000000000000RA              01101357    005802110000021100000610000003NN  NNW 000                       N    
RDG04835000WATRL000000004K00000000000001355008811192015101318N000000000000N40       000410400K 10000000010000001320           
CUS0483500000104071799003         MCLEAN MOULTON MARCI4856 HAZELWOOD AVE                      000N        CARE OF             
MTR04835000001000000000000000RA              14901611    005802120000021200000310000003NN  NNW 000                       N    
RDG04835000WATRL000000004K00000000000000977010011192015103044N000000000000N40       004460400K 10000000010000000910           
CUS0483500000104071800009         BETUEL BARAHONA RAMO4854 HAZELWOOD AVE                      000N        CARE OF             
MTR04835000001000000000000000RA              75617772    005802130000021300000350000003NN  NNW 000                       N    
RDG04835000WATRL000000004K00000000000000328010111192015103057N000000000000N40       000130400K 10000000010000000301           
CUS0483500000104071801007         EISENHART FRANKLIN  4852 HAZELWOOD AVE                      000N        CARE OF             
MTR04835000001000000000000000RA              01082984    005802140000021400000610000003NN  NNW 000                       N    
RDG04835000WATRL000000004K00000000000000616010211192015103126N000000000000N40       000290400K 10000000010000000616           
CUS0483500000104071802005         K&S RENOVATIONS LLC 4850 HAZELWOOD AVE                      000N        CARE OF             
MTR04835000001000000000000000RA              99187174    005802150000021500000570000003NN  NNW 000   VACANT / LOT        N    
RDG04835000WATRL000000004K00000000000001348010311192015103155N000000000000N40       000290400K 10000000010000001348           
CUS0483500000104071803003         PAULA I NYITRAI     4836 HAZELWOOD AVE                      000N        CARE OF             
MTR04835000001000000000000000RA              531813      005802160000021600000570000003NN  NNW 000                       N    
RDG04835000WATRL000000004K00000000000004805010411192015103336N000000000000N40       001010400K 10000000010000004793           
CUS0483500000104071804001         COBO RAFAEL         4605 POWELL AVE                         000N        CARE OF             
MTR04835000001000000000000000RA              01079637    005802170000021700000610000003NN  NNW 000                       N    
RDG04835000WATRL000000004K00000000000000273010511192015103618N000000000000N40       001620400K 10000000010000000269           
CUS0483500000104071805008         SORRELLS FRANKLIN LY4607 POWELL AVE                         000N        CARE OF             
MTR04835000001000000000000000RA              01079638    005802180000021800000610000003NY  NNW 000                       N    
MTM0483500001079638    75615913 ERT                                                                                           
RDG04835000WATRL000000004K00000000000000673010611192015103819N000300000021N40       000270400K 10000000010000000632           
CUS0483500000104071806006         ERIK K FRANZ        4609 POWELL AVE                         000N        CARE OF             
MTR04835000001000000000000000RA              39925533    005802190000021900000520000003NN  NNW 000                       N    
RDG04835000WATRL000000004K00000000000001286010711192015104010N000000000001N40       000600400K 10000000010000001272           
CUS0483500000104071807004         LINGHAM WAYNE G     4612 POWELL AVE                         000N        CARE OF             
MTR04835000001000000000000000RA              39924721    005802200000022000000520000003NN  NNW 000                       N    
RDG04835000WATRL000000004K00000000000003932010811192015104042N000000000000N40       000320400K 10000000010000003905           
CUS0483500000104071808002         NUSS TERRINA L      4610 POWELL AVE                         000N        CARE OF             
MTR04835000001000000000000000RA              31582027    005802210000022100000520000003NN  NNW 000                       N    
RDG04835000WATRL000000004K00000000000004355010911192015104155N000000000000N40       000730400K 10000000010000004343           
CUS0483500000104071809000         JOHNSON WILLIAM     4608 POWELL AVE                         000N        CARE OF             
MTR04835000001000000000000000RA              50481030    005802220000022200000520000003NN  NNW 000                       N    
RDG04835000WATRL000000004K00000000000002988011011192015104235N000400000010N40       000400400K 10000000010000002981           
CUS0483500000104071810008         MOORE KATINA        4606 POWELL AVE                         000N        CARE OF             
MTR04835000001000000000000000RA              01079633    005802230000022300000610000003NN  NNW 000                       N    
RDG04835000WATRL000000004K00000000000001266011111192015110059N000000000000N40       011040400K 10000000010000001251           
CUS0483500000104071822003         BALTIMORE GAS & ELEC4931 HAZELWOOD AVE                      000N        CARE OF             
MTR04835000001000000000000000RA              36700114    001502240000022400000520000003NN  NNW 000                       N    
RDG04835000WATRL000000005K00000000000004074006011192015094538N000100000010N40       002390500K 10000000010000004074           
CUS0483500000104071823001         ELIAS RIZAKOS       4937 HAZELWOOD AVE                      000N        CARE OF             
MTR04835000001000000000000000RA              77894282    005802250000022500000360000003NN  NNW 000                       N    
RDG04835000WATRL000000004K00000000000000285006111192015094656N000000000010N40       000780400K 10000000010000000000           
CUS0483500000104071824009         MITCHELL MAURICE L  4945 HAZELWOOD AVE                      000N        CARE OF             
MTR04835000001000000000000000RA              01115866    005802260000022600000610000003NN  NNW 000                       N    
RDG04835000WATRL000000004K00000000000001231005411192015093743N000000000000N40       000150400K 10000000010000001206           
CUS0483500000104376006005         BALTO CO CENTRAL SER6126 RADECKE AVE                        000N        CARE OF             
MTR04835000001000000000000000RA              35103057    005802270000022700000520000003NN  NNW 000   FERRULE APPLIED     N    
RDG04835000WATRL000000004K00000000000000000005311192015093728S002000000000N40       000440400K 10000000010000000007           
CUS0483500000104435528007         SIMMONS ANTONIE V   6321 RADECKE AVE                        000N        CARE OF             
MTR04835000001000000000000000RA              78005771    005802280000022800000360000003NN  NNW 000                       N    
RDG04835000WATRL000000004K00000000000000012012311192015102854N000000000010N47       002240400K 10000000010000000000           
CUS0483500000104071825006         JUDY WILLIAMS       5716 MCCORMICK AVE                      000N        CARE OF             
MTR04835000001000000000000000RA              10016331    005802290000022900000570000003NN  NNW 000                       N    
RDG04835000WATRL000000004K00000000000000062012511192015103150N000000000000N47       000360400K 10000000010000000048           
CUS0483500000104071826004         JORDAN JIMMIE       5714 MCCORMICK AVE                      000N        CARE OF             
MTR04835000001000000000000000RA              50788371    005802300000023000000520000003NN  NNW 000                       N    
RDG04835000WATRL000000004K00000000000001302012611192015103227N000000000000N47       000370400K 10000000010000001287           
CUS0483500000104071827002         RAMSEY CAROL ANNE   5712 MCCORMICK AVE                      000N        CARE OF             
MTR04835000001000000000000000RA              27819862    005802310000023100000520000003NN  NNW 000                       N    
RDG04835000WATRL000000004K00000000000003642012711192015103311N000000000000N47       000440400K 10000000010000003631           
CUS0483500000104372074007         PORTILLO MARIA JESUS5610 MCCORMICK AVE                      000N        CARE OF             
MTR04835000001000000000000000RA              27825131    005802320000023200000520000003NN  NNW 000   VACANT / LOT        N    
RDG04835000WATRL000000004K00000000000004149013011192015103552N000000000000N47       000740400K 10000000010000004149           
CUS0483500000104377433000         ROMERO VICTOR M     5608 MCCORMICK AVE                      000N        CARE OF             
MTR04835000001000000000000000RA              10013020    005802330000023300000570000003NN  NNW 000                       N    
RDG04835000WATRL000000004K00000000000000774012811192015103408N000000000000N47       000570400K 10000000010000000726           
CUS0483500000104376949006         ASHBY TOVA          5606 MCCORMICK AVE                      000N        CARE OF             
MTR04835000001000000000000000RA              10013021    005802340000023400000570000003NN  NNW 000                       N    
RDG04835000WATRL000000004K00000000000001062012911192015103438N000000000000N47       000300400K 10000000010000001029           
CUS0483500000104375261007         ROBEY RICHARD M     5604 MCCORMICK AVE                      000N        CARE OF             
MTR04835000001000000000000000RA              32178698    005802350000023500000520000003NN  NNW 000                       N    
RDG04835000WATRL000000004K00000000000002047013311192015103912N000000000000N47       000320400K 10000000010000002035           
CUS0483500000104379071006         COHEN SAMUEL MORRIS 5602 MCCORMICK AVE                      000N        CARE OF             
MTR04835000001000000000000000RA              32902588    005802360000023600000520000003NN  NNW 000                       N    
RDG04835000WATRL000000004K00000000000005343013211192015103840N000000000000N47       000330400K 10000000010000005318           
CUS0483500000104376455004         RANTIN TONY L       5600 MCCORMICK AVE                      000N        CARE OF             
MTR04835000001000000000000000RA              10013022    005802370000023700000570000003NN  NNW 000                       N    
RDG04835000WATRL000000004K00000000000000883013111192015103807N000000000000N47       001350400K 10000000010000000844           
CUS0483500000104378900007         BIVENS GARY L       5532 MCCORMICK AV REAR                  000N        CARE OF             
MTR04835000001000000000000000RA              33077656    005802380000023800000520000003NN  NNW 000                       N    
RDG04835000WATRL000000004K00000000000002738013411192015103950N000000000010N47       000380400K 10000000010000002728           
CUS0483500000104372073009         BRACEY FELTON S     5530 MCCORMICK AVE                      000N        CARE OF             
MTR04835000001000000000000000RA              31583165    005802390000023900000520000003NN  NNW 000                       N    
RDG04835000WATRL000000004K00000000000002993013511192015104015N000000000000N47       000250400K 10000000010000002969           
CUS0483500000104379354006         SIZEMORE DONALD LEE,5528 MCCORMICK AVE                      000N        CARE OF             
MTR04835000001000000000000000RA              33078822    005802400000024000000520000003NN  NNW 000                       N    
RDG04835000WATRL000000004K00000000000003781013611192015104057N000400000010N47       000420400K 10000000010000003753           
CUS0483500000104374365007         K & S RENOVATIONS LL5526 MCCORMICK AVE                      000N        CARE OF             
MTR04835000001000000000000000RA              14930232    005802410000024100000310000003NN  NNW 000                       N    
RDG04835000WATRL000000004K00000000000000354013711192015104131N000000000000N47       000340400K 10000000010000000353           
CUS0483500000104374366005         TRIPPS DELROY M     5524 MCCORMICK AVE                      000N        CARE OF             
MTR04835000001000000000000000RA              32176725    005802420000024200000520000003NN  NNW 000                       N    
RDG04835000WATRL000000004K00000000000004057013811192015104135N000000000000N47       000040400K 10000000010000004029           
CUS0483500000104379355003         WELLS JEROME V      5522 MCCORMICK AVE                      000N        CARE OF             
MTR04835000001000000000000000RA              33078890    005802430000024300000520000003NN  NNW 000                       N    
RDG04835000WATRL000000004K00000000000001943013911192015104220N000000000001N47       000070400K 10000000010000001924           
CUS0483500000104368369007         MAGGITTI ROSA I     5520 MCCORMICK AVE                      000N        CARE OF             
MTR04835000001000000000000000RA              30524521    005802440000024400000520000003NN  NNW 000                       N    
RDG04835000WATRL000000004K00000000000002770014011192015104303N000000000000N47       000430400K 10000000010000002758           
CUS0483500000104372072001         EKIKO JOHN          5518 MCCORMICK AVE                      000N        CARE OF             
MTR04835000001000000000000000RA              48586249    005802450000024500000520000003NN  NNW 000                       N    
RDG04835000WATRL000000004K00000000000002438014111192015104352N000000000000N47       000490400K 10000000010000002416           
CUS0483500000104372071003         GARDNER SHERYL D    5516 MCCORMICK AVE                      000N        CARE OF             
MTR04835000001000000000000000RA              14900889    005802460000024600000310000003NN  NNW 000                       N    
RDG04835000WATRL000000004K00000000000000681014211192015104359N000000000000N47       000070400K 10000000010000000664           
CUS0483500000104367894005         LARRY VICK          5514 MCCORMICK AVE                      000N        CARE OF             
MTR04835000001000000000000000RA              27814006    005802470000024700000520000003NN  NNW 000                       N    
RDG04835000WATRL000000004K00000000000003202014311192015104630N000000000000N47       001510400K 10000000010000003196           
CUS0483500000104377892007         VOIR-GEIGER DEBORAH 5512 MCCORMICK AVE                      000N        CARE OF             
MTR04835000001000000000000000RA              32902266    005802480000024800000520000003NN  NNW 000                       N    
RDG04835000WATRL000000004K00000000000002393014411192015104730N000000000000N47       000600400K 10000000010000002374           
CUS0483500000104374641001         HARRIS DAVID LEE    5510 MCCORMICK AVE                      000N        CARE OF             
MTR04835000001000000000000000RA              99388872    005802490000024900000570000003NN  NNW 000                       N    
RDG04835000WATRL000000004K00000000000001344014511192015104802N000000000000N47       000320400K 10000000010000001331           
CUS0483500000104374640003         CONNELLY CAMILLE M  5508 MCCORMICK AVE                      000N        CARE OF             
MTR04835000001000000000000000RA              99388833    005802500000025000000570000003NN  NNW 000                       N    
RDG04835000WATRL000000004K00000000000001143014611192015104821N000000000000N47       000190400K 10000000010000001131           
CUS0483500000104377893005         HARRIS LIONEL       5506 MCCORMICK AVE                      000N        CARE OF             
MTR04835000001000000000000000RA              29681783    005802510000025100000520000003NN  NNW 000                       N    
RDG04835000WATRL000000004K00000000000003543014711192015104859N000000000000N47       000380400K 10000000010000003531           
CUS0483500000104383134006         PHILLIPS CHRISTOPHER5504 MCCORMICK AVE                      000N        CARE OF             
MTR04835000001000000000000000RA              99999999    005802520000025200000520000003NN  NNW 000                       N    
RDG04835000WATRL000000004K00000000000000379014811192015104935N000000000000N47       000360400K 10000000010000000379           
CUS0483500000104383135003         PHILLIPS CHRISTOPHER5502 MCCORMICK AVE                      000N        CARE OF             
MTR04835000001000000000000000RA              44176756    005802530000025300000520000003NY  NNW 000                       N    
MTM0483500044176756    78021577                                                                                               
RDG04835000WATRL000000004K00000000000000000014911192015105124N000300000010N47       001090400K 10000000010000000013           
CUS0483500000104383144005         WHEELER ERIC        5504 CYNTHIA TER                        000N        CARE OF             
MTR04835000001000000000000000RA              36694328    005802540000025400000520000003NN  NNW 000                       N    
RDG04835000WATRL000000004K00000000000003066015011192015105347N000000000000N47       001430400K 10000000010000003023           
CUS0483500000104383143007         RIPPEL VIRGINIA R   5502 CYNTHIA TER                        000N        CARE OF             
MTR04835000001000000000000000RA              52287960    005802550000025500000520000003NN  NNW 000                       N    
RDG04835000WATRL000000004K00000000000001716015111192015105437N000000000000N47       000500400K 10000000010000001699           
CUS0483500000104383142009         ROTZ DAVID S        5500 CYNTHIA TER                        000N        CARE OF             
MTR04835000001000000000000000RA              14910297    005802560000025600000310000003NN  NNW 000                       N    
RDG04835000WATRL000000004K00000000000000484015211192015105531N000000000000N47       000540400K 10000000010000000464           
CUS0483500000104383145002         ZEILER WILLIAM M,2ND5501 CYNTHIA TER                        000N        CARE OF             
MTR04835000001000000000000000RA              44091178    005802570000025700000520000003NN  NNW 000                       N    
RDG04835000WATRL000000004K00000000000004644015311192015105608N000000000000N47       000370400K 10000000010000004625           
CUS0483500000104383146000         MCCLAIRN LORETTA    5503 CYNTHIA TER                        000N        CARE OF             
MTR04835000001000000000000000RA              36696823    005802580000025800000520000003NN  NNW 000                       N    
RDG04835000WATRL000000004K00000000000002173015411192015105633N000000000000N47       000250400K 10000000010000002165           
CUS0483500000104383147008         SHORT HERBERT M     5505 CYNTHIA TER                        000N        CARE OF             
MTR04835000001000000000000000RA              36687241    005802590000025900000520000003NN  NNW 000                       N    
RDG04835000WATRL000000004K00000000000002948015511192015105716N000000000000N47       000430400K 10000000010000002921           
CUS0483500000104383133008         DEGASPERIS HERMAN   5414 MCCORMICK AVE                      000N        CARE OF             
MTR04835000001000000000000000RA              35098338    005802600000026000000520000003NN  NNW 000                       N    
RDG04835000WATRL000000004K00000000000002504015611272015080454O000000000010N83       000800400K 10000000010000002503           
