FHDNNNN010002622002622002696N                                                                                           008054
RHD04844300NN01840184000001840000000001840184000357NY018401840184000300000000000000000000000001    11092015NY020000 N         
CUS0484430000104075852006         GARDENVILLAGE RLTY C5919 SCHERING RD                        000N        CARE OF             
MTR04844300001000000000000000RA              13247296    005800010000000100000310000003NN  NNW 000                       N    
RDG04844300WATRL000000004K00000000000002233000111162015101115N000000000022N40       037590400K 10000000010000002150           
CUS0484430000104075853004         GARDENVILLAGE RLTY C5921 SCHERING RD                        000N        CARE OF             
MTR04844300001000000000000000RA              13249004    005800020000000200000310000003NN  NNW 000                       N    
RDG04844300WATRL000000004K00000000000001579000211162015101314N000300000011N40       001190400K 10000000010000001546           
CUS0484430000104075854002         GARDENVILLAGE RLTY C5923 SCHERING RD                        000N        CARE OF             
MTR04844300001000000000000000RA              13249006    005800030000000300000310000003NN  NNW 000                       N    
RDG04844300WATRL000000004K00000000000001799000311162015101329N000300000010N40       000150400K 10000000010000001776           
CUS0484430000104075855009         GARDENVILLAGE RLTY C5925 SCHERING RD                        000N        CARE OF             
MTR04844300001000000000000000RA              10014296    005800040000000400000570000003NN  NNW 000                       N    
RDG04844300WATRL000000004K00000000000000063000411162015101415N000000000000N40       000460400K 10000000010000000056           
CUS0484430000104075856007         GARDENVILLAGE RLTY C5927 SCHERING RD                        000N        CARE OF             
MTR04844300001000000000000000RA              13249005    005800050000000500000310000003NN  NNW 000                       N    
RDG04844300WATRL000000004K00000000000001051000511162015101424N000300000010N40       000090400K 10000000010000000986           
CUS0484430000104075857005         GARDENVILLAGE RLTY C5929 SCHERING RD                        000N        CARE OF             
MTR04844300001000000000000000RA              13248075    005800060000000600000310000003NN  NNW 000                       N    
RDG04844300WATRL000000004K00000000000000937000611162015101528N000000000000N40       000640400K 10000000010000000915           
CUS0484430000104075858003         GARDENVILLAGE REALTY5931 SCHERING RD                        000N        CARE OF             
MTR04844300001000000000000000RA              10014297    005800070000000700000570000003NN  NNW 000                       N    
RDG04844300WATRL000000004K00000000000000398000711162015101541N000300000010N40       000130400K 10000000010000000375           
CUS0484430000104075859001         GARDENVILLAGE REALTY5933 SCHERING RD                        000N        CARE OF             
MTR04844300001000000000000000RA              13249100    005800080000000800000310000003NN  NNW 000                       N    
RDG04844300WATRL000000004K00000000000000873000811162015101703N000000000000N40       000820400K 10000000010000000831           
CUS0484430000104075860009         GARDENVILLAGE REALTY5935 SCHERING RD                        000N        CARE OF             
MTR04844300001000000000000000RA              13249097    005800090000000900000310000003NN  NNW 000                       N    
RDG04844300WATRL000000004K00000000000001069000911162015101708N000000000000N40       000050400K 10000000010000001052           
CUS0484430000104075861007         GARDENVILLAGE REALTY5937 SCHERING RD                        000N        CARE OF             
MTR04844300001000000000000000RA              13249102    005800100000001000000310000003NN  NNW 000                       N    
RDG04844300WATRL000000004K00000000000001136001011162015101846N000300000010N40       000980400K 10000000010000001074           
CUS0484430000104075862005         GARDENVILLAGE REALTY5939 SCHERING RD                        000N        CARE OF             
MTR04844300001000000000000000RA              13249117    005800110000001100000310000003NN  NNW 000                       N    
RDG04844300WATRL000000004K00000000000001830001111162015101903N000300000010N40       000170400K 10000000010000001763           
CUS0484430000104075863003         GARDENVILLAGE REALTY5941 SCHERING RD                        000N        CARE OF             
MTR04844300001000000000000000RA              13248072    005800120000001200000310000003NN  NNW 000                       N    
RDG04844300WATRL000000004K00000000000001086001211162015102005N000000000000N40       000620400K 10000000010000001077           
CUS0484430000104075864001         GARDENVILLAGE REALTY5943 SCHERING RD                        000N        CARE OF             
MTR04844300001000000000000000RA              13247978    005800130000001300000310000003NN  NNW 000                       N    
RDG04844300WATRL000000004K00000000000001881001311162015102146N000300000010N40       001010400K 10000000010000001806           
CUS0484430000104075865008         GARDENVILLAGE REALTY5945 SCHERING RD                        000N        CARE OF             
MTR04844300001000000000000000RA              10017841    005800140000001400000570000003NN  NNW 000                       N    
RDG04844300WATRL000000004K00000000000000266001411162015102303N000000000000N40       000770400K 10000000010000000239           
CUS0484430000104075866006         GARDENVILLAGE REALTY5947 SCHERING RD                        000N        CARE OF             
MTR04844300001000000000000000RA              10017843    005800150000001500000570000003NN  NNW 000                       N    
RDG04844300WATRL000000004K00000000000000316001511162015102309N000000000000N40       000060400K 10000000010000000299           
CUS0484430000104075867004         GARDENVILLAGE REALTY5949 SCHERING RD                        000N        CARE OF             
MTR04844300001000000000000000RA              13247973    005800160000001600000310000003NN  NNW 000                       N    
RDG04844300WATRL000000004K00000000000002893001611162015102522N000300000010N40       001330400K 10000000010000002821           
CUS0484430000104075868002         GARDENVILLAGE REALTY5951 SCHERING RD                        000N        CARE OF             
MTR04844300001000000000000000RA              13247252    005800170000001700000310000003NN  NNW 000                       N    
RDG04844300WATRL000000004K00000000000001630001711162015102531N000000000000N40       000090400K 10000000010000001606           
CUS0484430000104075869000         GARDENVILLAGE REALTY5953 SCHERING RD                        000N        CARE OF             
MTR04844300001000000000000000RA              13292286    005800180000001800000310000003NN  NNW 000                       N    
RDG04844300WATRL000000004K00000000000001229001811162015102707N000300000010N40       000960400K 10000000010000001136           
CUS0484430000104075870008         GARDENVILLAGE REALTY5955 SCHERING RD                        000N        CARE OF             
MTR04844300001000000000000000RA              13247938    005800190000001900000310000003NN  NNW 000                       N    
RDG04844300WATRL000000004K00000000000001756001911162015102934N000300000010N40       001470400K 10000000010000001714           
CUS0484430000104075871006         GARDENVILLAGE REALTY5957 SCHERING RD                        000N        CARE OF             
MTR04844300001000000000000000RA              13249071    005800200000002000000310000003NN  NNW 000                       N    
RDG04844300WATRL000000004K00000000000001005002011162015103002N000000000010N40       000280400K 10000000010000000959           
CUS0484430000104075872004         GARDENVILLAGE REALTY5959 SCHERING RD                        000N        CARE OF             
MTR04844300001000000000000000RA              10014298    005800210000002100000570000003NN  NNW 000                       N    
RDG04844300WATRL000000004K00000000000000391002111162015103056N000000000000N40       000540400K 10000000010000000360           
CUS0484430000104075873002         GARDENVILLAGE REALTY5961 SCHERING RD                        000N        CARE OF             
MTR04844300001000000000000000RA              13247291    005800220000002200000310000003NN  NNW 000                       N    
RDG04844300WATRL000000004K00000000000001883002211162015103103N000000000000N40       000070400K 10000000010000001855           
CUS0484430000104075874000         GARDENVILLAGE REALTY5963 SCHERING RD                        000N        CARE OF             
MTR04844300001000000000000000RA              13248048    005800230000002300000310000003NN  NNW 000                       N    
RDG04844300WATRL000000004K00000000000001623002311162015103354N000000000000N40       001710400K 10000000010000001606           
CUS0484430000104075875007         GARDENVILLAGE REALTY5965 SCHERING RD                        000N        CARE OF             
MTR04844300001000000000000000RA              13248052    005800240000002400000310000003NN  NNW 000                       N    
RDG04844300WATRL000000004K00000000000001933002411162015103405N000000000000N40       000110400K 10000000010000001875           
CUS0484430000104075876005         GARDENVILLAGE REALTY5967 SCHERING RD                        000N        CARE OF             
MTR04844300001000000000000000RA              13248047    005800250000002500000310000003NN  NNW 000                       N    
RDG04844300WATRL000000004K00000000000001175002611162015103719N000300000010N40       000840400K 10000000010000001126           
CUS0484430000104075877003         GARDENVILLAGE REALTY5969 SCHERING RD                        000N        CARE OF             
MTR04844300001000000000000000RA              75614665    005800260000002600000350000003NN  NNW 000                       N    
RDG04844300WATRL000000004K00000000000000185002711162015103754N000300000030N40       000350400K 10000000010000000123           
CUS0484430000104075878001         GARDENVILLAGE REALTY5971 SCHERING RD                        000N        CARE OF             
MTR04844300001000000000000000RA              13247840    005800270000002700000310000003NN  NNW 000                       N    
RDG04844300WATRL000000004K00000000000001112002511162015103555N000000000000N40       001100400K 10000000010000001044           
CUS0484430000104075879009         GARDENVILLAGE REALTY5973 SCHERING RD                        000N        CARE OF             
MTR04844300001000000000000000RA              13248212    005800280000002800000310000003NN  NNW 000                       N    
RDG04844300WATRL000000004K00000000000001018002811162015103857N000000000000N40       000630400K 10000000010000000991           
CUS0484430000104075880007         GARDENVILLAGE REALTY5975 SCHERING RD                        000N        CARE OF             
MTR04844300001000000000000000RA              13248246    005800290000002900000310000003NY  NNW 000                       N    
MTM0484430013248246    MUDDY WATER                                                                                            
RDG04844300WATRL000000004K00000000000001497000111272015085440N000000000010U86       000000400K 10000000010000001478           
CUS0484430000104075881005         GARDENVILLAGE REALTY5977 SCHERING RD                        000N        CARE OF             
MTR04844300001000000000000000RA              13248210    005800300000003000000310000003NY  NNW 000                       N    
MTM0484430013248210    MUDDY WATER                                                                                            
RDG04844300WATRL000000004K00000000000001504000211272015085452N000300000010U86       000120400K 10000000010000001442           
CUS0484430000104075882003         GARDENVILLAGE REALTY5979 SCHERING RD                        000N        CARE OF             
MTR04844300001000000000000000RA              13248250    005800310000003100000310000003NY  NNW 000                       N    
MTM0484430013248250    WATER                                                                                                  
RDG04844300WATRL000000004K00000000000001406000311272015085610N000000000000U86       000780400K 10000000010000001383           
CUS0484430000104075883001         GARDENVILLAGE REALTY5981 SCHERING RD                        000N        CARE OF             
MTR04844300001000000000000000RA              13248247    005800320000003200000310000003NY  NNW 000                       N    
MTM0484430013248247    WATER                                                                                                  
RDG04844300WATRL000000004K00000000000001085000411272015085613N000300000010U86       000030400K 10000000010000001089           
CUS0484430000104075884009         GARDENVILLAGE RLTY C6001 STARLEIGH RD                       000N        CARE OF             
MTR04844300001000000000000000RA              13291666    005800330000003300000310000003NN  NNW 000                       N    
RDG04844300WATRL000000004K00000000000001076002911162015104545N000000000000N40       004080400K 10000000010000001053           
CUS0484430000104075885006         GARDENVILLAGE RLTY C6003 STARLEIGH RD                       000N        CARE OF             
MTR04844300001000000000000000RA              13291637    005800340000003400000310000003NN  NNW 000                       N    
RDG04844300WATRL000000004K00000000000001048003011162015104655N000000000000N40       000700400K 10000000010000001021           
CUS0484430000104075886004         GARDENVILLAGE RLTY C6005 STARLEIGH RD                       000N        CARE OF             
MTR04844300001000000000000000RA              13291641    005800350000003500000310000003NN  NNW 000                       N    
RDG04844300WATRL000000004K00000000000001008003111162015104734N000000000000N40       000390400K 10000000010000000976           
CUS0484430000104075887002         GARDENVILLAGE RLTY C6007 STARLEIGH RD                       000N        CARE OF             
MTR04844300001000000000000000RA              13291691    005800360000003600000310000003NN  NNW 000                       N    
RDG04844300WATRL000000004K00000000000002367003211162015104915N000300000010N40       001010400K 10000000010000002283           
CUS0484430000104075888000         GARDENVILLAGE RLTY C6009 STARLEIGH RD                       000N        CARE OF             
MTR04844300001000000000000000RA              10024848    005800370000003700000570000003NN  NNW 000                       N    
RDG04844300WATRL000000004K00000000000000234003311162015104930N000000000000N40       000150400K 10000000010000000223           
CUS0484430000104075889008         CASCADE REALTY CORP 5946 SCHERING RD                        000N        CARE OF             
MTR04844300001000000000000000RA              13291689    005800380000003800000310000003NN  NNW 000                       N    
RDG04844300WATRL000000004K00000000000000791003411162015105132N000300000010N40       001220400K 10000000010000000758           
CUS0484430000104075890006         CASCADE REALTY CORP 5944 SCHERING RD                        000N        CARE OF             
MTR04844300001000000000000000RA              13291690    005800390000003900000310000003NN  NNW 000                       N    
RDG04844300WATRL000000004K00000000000000948003511162015105243N000000000000N40       000710400K 10000000010000000921           
CUS0484430000104075891004         CASCADE REALTY CORP 5942 SCHERING RD                        000N        CARE OF             
MTR04844300001000000000000000RA              13291704    005800400000004000000310000003NN  NNW 000                       N    
RDG04844300WATRL000000004K00000000000000938003611162015105309N000000000000N40       000260400K 10000000010000000899           
CUS0484430000104075892002         CASCADE REALTY CORP 5940 SCHERING RD                        000N        CARE OF             
MTR04844300001000000000000000RA              10011289    005800410000004100000570000003NN  NNW 000                       N    
RDG04844300WATRL000000004K00000000000000386003711162015105410N000000000000N40       000610400K 10000000010000000316           
CUS0484430000104075893000         GARDENVILLAGE RLTY C5938 SCHERING RD                        000N        CARE OF             
MTR04844300001000000000000000RA              13291708    005800420000004200000310000003NN  NNW 000                       N    
RDG04844300WATRL000000004K00000000000001056003811162015105700N000300000010N40       001700400K 10000000010000001012           
CUS0484430000104075894008         GARDENVILLAGE RLTY C5936 SCHERING RD                        000N        CARE OF             
MTR04844300001000000000000000RA              13291703    005800430000004300000310000003NN  NNW 000                       N    
RDG04844300WATRL000000004K00000000000001176003911162015105803N000300000010N40       000630400K 10000000010000001136           
CUS0484430000104075895005         GARDENVILLAGE RLTY C5934 SCHERING RD                        000N        CARE OF             
MTR04844300001000000000000000RA              13291698    005800440000004400000310000003NN  NNW 000                       N    
RDG04844300WATRL000000004K00000000000000923004011162015105820N000000000000N40       000170400K 10000000010000000906           
CUS0484430000104075896003         GARDENVILLAGE RLTY C5932 SCHERING RD                        000N        CARE OF             
MTR04844300001000000000000000RA              13291684    005800450000004500000310000003NN  NNW 000                       N    
RDG04844300WATRL000000004K00000000000000742004111162015105949N000300000010N40       000890400K 10000000010000000706           
CUS0484430000104075897001         GARDENVILLAGE REALTY5930 SCHERING RD                        000N        CARE OF             
MTR04844300001000000000000000RA              13291682    005800460000004600000310000003NY  NNW 000                       N    
MTM0484430013291682    BURIED                                                                                                 
RDG04844300WATRL000000004K00000000000001181000511272015085812N000300000010U86       001190400K 10000000010000001183           
CUS0484430000104075898009         GARDENVILLAGE REALTY5928 SCHERING RD                        000N        CARE OF             
MTR04844300001000000000000000RA              13291875    005800470000004700000310000003NN  NNW 000                       N    
RDG04844300WATRL000000004K00000000000001395004211162015110335N000100000010N40       002260400K 10000000010000001395           
CUS0484430000104075899007         GARDENVILLAGE REALTY5926 SCHERING RD                        000N        CARE OF             
MTR04844300001000000000000000RA              13291874    005800480000004800000310000003NN  NNW 000                       N    
RDG04844300WATRL000000004K00000000000001936004311162015110342N000000000000N40       000070400K 10000000010000001926           
CUS0484430000104075900003         GARDENVILLAGE REALTY5924 SCHERING RD                        000N        CARE OF             
MTR04844300001000000000000000RA              10004497    005800490000004900000570000003NY  NNW 000                       N    
MTM0484430010004497    BURIED                                                                                                 
RDG04844300WATRL000000004K00000000000000388000611272015085918N000000000000U86       000660400K 10000000010000000363           
CUS0484430000104075901001         GARDENVILLAGE REALTY6029 MARQUETTE RD                       000N        CARE OF             
MTR04844300001000000000000000RA              13249378    005800500000005000000310000003NN  NNW 000                       N    
RDG04844300WATRL000000004K00000000000001497004411162015112211N000000000000N40       011090400K 10000000010000001480           
CUS0484430000104075902009         GARDENVILLAGE REALTY6031 MARQUETTE RD                       000N        CARE OF             
MTR04844300001000000000000000RA              13249374    005800510000005100000310000003NN  NNW 000                       N    
RDG04844300WATRL000000004K00000000000001186004511162015112338N000100000010N40       000870400K 10000000010000001186           
CUS0484430000104075903007         GARDENVILLAGE REALTY6033 MARQUETTE RD                       000N        CARE OF             
MTR04844300001000000000000000RA              13249409    005800520000005200000310000003NN  NNW 000                       N    
RDG04844300WATRL000000004K00000000000001043004612022015091432O000000000010N41       000140400K 10000000010000001036           
CUS0484430000104075904005         GARDENVILLAGE REALTY6035 MARQUETTE RD                       000N        CARE OF             
MTR04844300001000000000000000RA              13249415    005800530000005300000310000003NN  NNW 000                       N    
RDG04844300WATRL000000004K00000000000000810004711162015112548N000000000000N40       001160400K 10000000010000000800           
CUS0484430000104075905002         GARDENVILLAGE REALTY6037 MARQUETTE RD                       000N        CARE OF             
MTR04844300001000000000000000RA              13247702    005800540000005400000310000003NN  NNW 000                       N    
RDG04844300WATRL000000004K00000000000000941004811162015112553N000000000000N40       000050400K 10000000010000000921           
CUS0484430000104075906000         GARDENVILLAGE REALTY6039 MARQUETTE RD                       000N        CARE OF             
MTR04844300001000000000000000RA              13247608    005800550000005500000310000003NN  NNW 000                       N    
RDG04844300WATRL000000004K00000000000001984004911162015112749N000000000000N40       001160400K 10000000010000001911           
CUS0484430000104075907008         GARDENVILLAGE REALTY6041 MARQUETTE RD                       000N        CARE OF             
MTR04844300001000000000000000RA              13247663    005800560000005600000310000003NN  NNW 000                       N    
RDG04844300WATRL000000004K00000000000001058005011162015112852N000000000000N40       000630400K 10000000010000001031           
CUS0484430000104075908006         GARDENVILLAGE REALTY6043 MARQUETTE RD                       000N        CARE OF             
MTR04844300001000000000000000RA              13247665    005800570000005700000310000003NN  NNW 000                       N    
RDG04844300WATRL000000004K00000000000001150005111162015113042N000000000000N40       001100400K 10000000010000001124           
CUS0484430000104075909004         GARDENVILLAGE REALTY6045 MARQUETTE RD                       000N        CARE OF             
MTR04844300001000000000000000RA              13248081    005800580000005800000310000003NN  NNW 000                       N    
RDG04844300WATRL000000004K00000000000002044005211162015113121N000000000000N40       000390400K 10000000010000002001           
CUS0484430000104075910002         GARDENVILLAGE REALTY6047 MARQUETTE RD                       000N        CARE OF             
MTR04844300001000000000000000RA              13247935    005800590000005900000310000003NY  NNW 000                       N    
MTM0484430013247935    MUDDY WATER                                                                                            
RDG04844300WATRL000000004K00000000000001204002311272015094628N000000000000U86       002280400K 10000000010000001171           
CUS0484430000104075911000         GARDENVILLAGE REALTY6049 MARQUETTE RD                       000N        CARE OF             
MTR04844300001000000000000000RA              13248073    005800600000006000000310000003NY  NNW 000                       N    
MTM0484430013248073    MUDDY WATER                                                                                            
RDG04844300WATRL000000004K00000000000000611002411272015094629N000000000000U86       000010400K 10000000010000000603           
CUS0484430000104075912008         GARDENVILLAGE REALTY6051 MARQUETTE RD                       000N        CARE OF             
MTR04844300001000000000000000RA              13248076    005800610000006100000310000003NN  NNW 000                       N    
RDG04844300WATRL000000004K00000000000001067005311162015113802N000000000000N40       004010400K 10000000010000001041           
CUS0484430000104075913006         GARDENVILLAGE REALTY6053 MARQUETTE RD                       000N        CARE OF             
MTR04844300001000000000000000RA              13247780    005800620000006200000310000003NN  NNW 000                       N    
RDG04844300WATRL000000004K00000000000000769005411162015113959N000000000000N40       001170400K 10000000010000000747           
CUS0484430000104075914004         GARDENVILLAGE REALTY6055 MARQUETTE RD                       000N        CARE OF             
MTR04844300001000000000000000RA              13247811    005800630000006300000310000003NN  NNW 000                       N    
RDG04844300WATRL000000004K00000000000001521005511162015114157N000000000000N40       001180400K 10000000010000001503           
CUS0484430000104075915001         GARDENVILLAGE REALTY6057 MARQUETTE RD                       000N        CARE OF             
MTR04844300001000000000000000RA              13247821    005800640000006400000310000003NN  NNW 000                       N    
RDG04844300WATRL000000004K00000000000001358005611162015114207N000000000000N40       000100400K 10000000010000001332           
CUS0484430000104075916009         GARDENVILLAGE REALTY6059 MARQUETTE RD                       000N        CARE OF             
MTR04844300001000000000000000RA              13247782    005800650000006500000310000003NN  NNW 000                       N    
RDG04844300WATRL000000004K00000000000002786005711162015114353N000000000000N40       001060400K 10000000010000002759           
CUS0484430000104075917007         GARDENVILLAGE REALTY6061 MARQUETTE RD                       000N        CARE OF             
MTR04844300001000000000000000RA              13248093    005800660000006600000310000003NN  NNW 000                       N    
RDG04844300WATRL000000004K00000000000001128005811162015114401N000000000000N40       000080400K 10000000010000001095           
CUS0484430000104075918005         GARDENVILLAGE REALTY6063 MARQUETTE RD                       000N        CARE OF             
MTR04844300001000000000000000RA              13247943    005800670000006700000310000003NN  NNW 000                       N    
RDG04844300WATRL000000004K00000000000001632005911162015114541N000000000000N40       001000400K 10000000010000001599           
CUS0484430000104075919003         GARDENVILLAGE REALTY6065 MARQUETTE RD                       000N        CARE OF             
MTR04844300001000000000000000RA              13247939    005800680000006800000310000003NN  NNW 000                       N    
RDG04844300WATRL000000004K00000000000001671006011162015114658N000300000010N40       000770400K 10000000010000001616           
CUS0484430000104075920001         GARDENVILLAGE REALTY6067 MARQUETTE RD                       000N        CARE OF             
MTR04844300001000000000000000RA              13248092    005800690000006900000310000003NY  NNW 000                       N    
MTM0484430013248092    WATER                                                                                                  
RDG04844300WATRL000000004K00000000000001690001911272015093533N000300000010U86       000060400K 10000000010000001619           
CUS0484430000104075921009         GARDENVILLAGE REALTY6069 MARQUETTE RD                       000N        CARE OF             
MTR04844300001000000000000000RA              13249615    005800700000007000000310000003NY  NNW 000                       N    
MTM0484430013249615    WATER                                                                                                  
RDG04844300WATRL000000004K00000000000002124001811272015094240N000300000021U86       002710400K 10000000010000002020           
CUS0484430000104075922007         GARDENVILLAGE REALTY6071 MARQUETTE RD                       000N        CARE OF             
MTR04844300001000000000000000RA              13249614    005800710000007100000310000003NY  NNW 000                       N    
MTM0484430013249614    MUDDY WATER                                                                                            
RDG04844300WATRL000000004K00000000000001156001711272015093141N000000000000U86       000030400K 10000000010000001123           
CUS0484430000104075923005         GARDENVILLAGE REALTY6073 MARQUETTE RD                       000N        CARE OF             
MTR04844300001000000000000000RA              13249621    005800720000007200000310000003NY  NNW 000                       N    
MTM0484430013249621    MUDDY WATER                                                                                            
RDG04844300WATRL000000004K00000000000002076001611272015093138N000000000001U86       000050400K 10000000010000002048           
CUS0484430000104075924003         GARDENVILLAGE REALTY6075 MARQUETTE RD                       000N        CARE OF             
MTR04844300001000000000000000RA              13249620    005800730000007300000310000003NN  NNW 000                       N    
RDG04844300WATRL000000004K00000000000001488006111162015115346N000000000000N40       004080400K 10000000010000001462           
CUS0484430000104075925000         GARDENVILLAGE REALTY6077 MARQUETTE RD                       000N        CARE OF             
MTR04844300001000000000000000RA              13247886    005800740000007400000310000003NN  NNW 000                       N    
RDG04844300WATRL000000004K00000000000001149006211162015115500N000000000000N40       000740400K 10000000010000001122           
CUS0484430000104075926008         GARDENVILLAGE REALTY6079 MARQUETTE RD                       000N        CARE OF             
MTR04844300001000000000000000RA              13247885    005800750000007500000310000003NN  NNW 000                       N    
RDG04844300WATRL000000004K00000000000001857006311162015115636N000000000000N40       000960400K 10000000010000001844           
CUS0484430000104075927006         GARDENVILLAGE REALTY6081 MARQUETTE RD                       000N        CARE OF             
MTR04844300001000000000000000RA              13247888    005800760000007600000310000003NY  NNW 000                       N    
MTM0484430013247888    MUDDY WATER                                                                                            
RDG04844300WATRL000000004K00000000000001201001511272015092815N000000000000U86       000680400K 10000000010000001177           
CUS0484430000104075928004         GARDENVILLAGE REALTY6083 MARQUETTE RD                       000N        CARE OF             
MTR04844300001000000000000000RA              13247890    005800770000007700000310000003NN  NNW 000                       N    
RDG04844300WATRL000000004K00000000000001104006411162015120020N000000000000N40       002240400K 10000000010000001089           
CUS0484430000104075929002         GARDENVILLAGE REALTY6085 MARQUETTE RD                       000N        CARE OF             
MTR04844300001000000000000000RA              13249116    005800780000007800000310000003NN  NNW 000                       N    
RDG04844300WATRL000000004K00000000000001418006511162015120051N000000000000N40       000310400K 10000000010000001369           
CUS0484430000104075930000         GARDENVILLAGE REALTY6087 MARQUETTE RD                       000N        CARE OF             
MTR04844300001000000000000000RA              10019790    005800790000007900000570000003NY  NNW 000                       N    
MTM0484430010019790    BURIED                                                                                                 
RDG04844300WATRL000000004K00000000000000415001411272015092707N000000000000U86       002160400K 10000000010000000392           
CUS0484430000104075931008         GARDENVILLAGE REALTY6089 MARQUETTE RD                       000N        CARE OF             
MTR04844300001000000000000000RA              10003730    005800800000008000000570000003NN  NNW 000                       N    
RDG04844300WATRL000000004K00000000000000347006611162015120428N000000000000N40       002170400K 10000000010000000314           
CUS0484430000104075932006         GARDENVILLAGE REALTY6091 MARQUETTE RD                       000N        CARE OF             
MTR04844300001000000000000000RA              13248082    005800810000008100000310000003NN  NNW 000                       N    
RDG04844300WATRL000000004K00000000000001535006711162015120636N000000000000N40       001280400K 10000000010000001508           
CUS0484430000104075933004         GARDENVILLAGE REALTY6093 MARQUETTE RD                       000N        CARE OF             
MTR04844300001000000000000000RA              10004498    005800820000008200000570000003NN  NNW 000                       N    
RDG04844300WATRL000000004K00000000000000681006811162015120714N000000000000N40       000380400K 10000000010000000656           
CUS0484430000104075934002         GARDENVILLAGE REALTY6095 MARQUETTE RD                       000N        CARE OF             
MTR04844300001000000000000000RA              13247976    005800830000008300000310000003NN  NNW 000                       N    
RDG04844300WATRL000000004K00000000000001245006911162015120922N000000000000N40       001280400K 10000000010000001220           
CUS0484430000104075935009         GARDENVILLAGE REALTY6097 MARQUETTE RD                       000N        CARE OF             
MTR04844300001000000000000000RA              13247980    005800840000008400000310000003NN  NNW 000                       N    
RDG04844300WATRL000000004K00000000000001065007011162015121004N000000000010N40       000420400K 10000000010000001033           
CUS0484430000104075936007         GARDENVILLAGE REALTY6099 MARQUETTE RD                       000N        CARE OF             
MTR04844300001000000000000000RA              13248077    005800850000008500000310000003NN  NNW 000                       N    
RDG04844300WATRL000000004K00000000000002086007111162015121354N000000000000N40       002300400K 10000000010000001909           
CUS0484430000104075937005         MARQUETTE REALTY COR6101 MARQUETTE RD                       000N        CARE OF             
MTR04844300001000000000000000RA              13248343    005800860000008600000310000003NN  NNW 000                       N    
RDG04844300WATRL000000004K00000000000001357007211162015121525N000000000000N40       000910400K 10000000010000001345           
CUS0484430000104075938003         MARQUETTE REALTY COR6103 MARQUETTE RD                       000N        CARE OF             
MTR04844300001000000000000000RA              13248291    005800870000008700000310000003NY  NNW 000                       N    
MTM0484430013248291    MUD WATER                                                                                              
RDG04844300WATRL000000004K00000000000001313001311272015092331N000300000010U86       000060400K 10000000010000001244           
CUS0484430000104075939001         MARQUETTE REALTY COR6105 MARQUETTE RD                       000N        CARE OF             
MTR04844300001000000000000000RA              13248323    005800880000008800000310000003NY  NNW 000                       N    
MTM0484430013248323    MUD WATER                                                                                              
RDG04844300WATRL000000004K00000000000001153001211272015092325N000300000010U86       003770400K 10000000010000001156           
CUS0484430000104075940009         MARQUETTE REALTY COR6107 MARQUETTE RD                       000N        CARE OF             
MTR04844300001000000000000000RA              13248396    005800890000008900000310000003NN  NNW 000                       N    
RDG04844300WATRL000000004K00000000000001166007311162015121908N000000000000N40       002230400K 10000000010000001142           
CUS0484430000104075941007         MARQUETTE REALTY COR6109 MARQUETTE RD                       000N        CARE OF             
MTR04844300001000000000000000RA              13248313    005800900000009000000310000003NN  NNW 000                       N    
RDG04844300WATRL000000004K00000000000001670007411162015121915N000000000010N40       000070400K 10000000010000001642           
CUS0484430000104075942005         MARQUETTE REALTY COR6111 MARQUETTE RD                       000N        CARE OF             
MTR04844300001000000000000000RA              13248449    005800910000009100000310000003NN  NNW 000                       N    
RDG04844300WATRL000000004K00000000000000888007511162015122050N000000000000N40       000950400K 10000000010000000861           
CUS0484430000104075943003         MARQUETTE REALTY COR6113 MARQUETTE RD                       000N        CARE OF             
MTR04844300001000000000000000RA              13249070    005800920000009200000310000003NN  NNW 000                       N    
RDG04844300WATRL000000004K00000000000001109007611162015122234N000000000000N40       001040400K 10000000010000001096           
CUS0484430000104075944001         MARQUETTE REALTY COR6115 MARQUETTE RD                       000N        CARE OF             
MTR04844300001000000000000000RA              13249037    005800930000009300000310000003NN  NNW 000                       N    
RDG04844300WATRL000000004K00000000000001378007711162015122409N000000000000N40       000950400K 10000000010000001350           
CUS0484430000104075945008         MARQUETTE REALTY COR6117 MARQUETTE RD                       000N        CARE OF             
MTR04844300001000000000000000RA              13249067    005800940000009400000310000003NN  NNW 000                       N    
RDG04844300WATRL000000004K00000000000002350007811162015122419N000000000000N40       000100400K 10000000010000002315           
CUS0484430000104075946006         MARQUETTE REALTY COR6119 MARQUETTE RD                       000N        CARE OF             
MTR04844300001000000000000000RA              13249040    005800950000009500000310000003NN  NNW 000                       N    
RDG04844300WATRL000000004K00000000000000960007911162015122614N000000000000N40       001150400K 10000000010000000933           
CUS0484430000104075947004         MARQUETTE REALTY COR6121 MARQUETTE RD                       000N        CARE OF             
MTR04844300001000000000000000RA              13247977    005800960000009600000310000003NN  NNW 000                       N    
RDG04844300WATRL000000004K00000000000001308008011162015122620N000000000000N40       000060400K 10000000010000001284           
CUS0484430000104075948002         MARQUETTE REALTY COR6123 MARQUETTE RD                       000N        CARE OF             
MTR04844300001000000000000000RA              13249077    005800970000009700000310000003NN  NNW 000                       N    
RDG04844300WATRL000000004K00000000000001347008111162015122814N000000000000N40       001140400K 10000000010000001329           
CUS0484430000104075949000         MARQUETTE REALTY COR6125 MARQUETTE RD                       000N        CARE OF             
MTR04844300001000000000000000RA              13249072    005800980000009800000310000003NN  NNW 000                       N    
RDG04844300WATRL000000004K00000000000001260008211162015123005N000000000000N40       001110400K 10000000010000001223           
CUS0484430000104075950008         MARQUETTE REALTY COR6127 MARQUETTE RD                       000N        CARE OF             
MTR04844300001000000000000000RA              13249008    005800990000009900000310000003NY  NNW 000                       N    
MTM0484430013249008    MUDDY WATER                                                                                            
RDG04844300WATRL000000004K00000000000000488001111272015091708N000300000010U86       002320400K 10000000010000000489           
CUS0484430000104075951006         MARQUETTE REALTY COR6129 MARQUETTE RD                       000N        CARE OF             
MTR04844300001000000000000000RA              13249074    005801000000010000000310000003NY  NNW 000                       N    
MTM0484430013249074    MUDDY WATER                                                                                            
RDG04844300WATRL000000004K00000000000001550001011272015091316N000000000000U86       000520400K 10000000010000001536           
CUS0484430000104075952004         MARQUETTE REALTY COR6131 MARQUETTE RD                       000N        CARE OF             
MTR04844300001000000000000000RA              13249036    005801010000010100000310000003NN  NNW 000                       N    
RDG04844300WATRL000000004K00000000000001436008311162015123721N000000000000N40       004360400K 10000000010000001410           
CUS0484430000104075953002         MARQUETTE REALTY COR6133 MARQUETTE RD                       000N        CARE OF             
MTR04844300001000000000000000RA              13249031    005801020000010200000310000003NN  NNW 000                       N    
RDG04844300WATRL000000004K00000000000002459008411162015123727N000000000000N40       000060400K 10000000010000002368           
CUS0484430000104075954000         MARQUETTE REALTY COR6135 MARQUETTE RD                       000N        CARE OF             
MTR04844300001000000000000000RA              13249007    005801030000010300000310000003NY  NNW 000                       N    
MTM0484430013249007    MUDDY WATER                                                                                            
RDG04844300WATRL000000004K00000000000000981000911272015091224N000300000010U86       002890400K 10000000010000000939           
CUS0484430000104075955007         MARQUETTE REALTY COR6152 MARQUETTE RD                       000N        CARE OF             
MTR04844300001000000000000000RA              13248414    005801040000010400000310000003NN  NNW 000                       N    
RDG04844300WATRL000000004K00000000000001808008511162015124125N000000000000N40       002380400K 10000000010000001789           
CUS0484430000104075956005         MARQUETTE REALTY COR6150 MARQUETTE RD                       000N        CARE OF             
MTR04844300001000000000000000RA              13248321    005801050000010500000310000003NN  NNW 000                       N    
RDG04844300WATRL000000004K00000000000000827008611162015124323N000000000001N40       001180400K 10000000010000000803           
CUS0484430000104075957003         MARQUETTE REALTY COR6148 MARQUETTE RD                       000N        CARE OF             
MTR04844300001000000000000000RA              13248450    005801060000010600000310000003NN  NNW 000                       N    
RDG04844300WATRL000000004K00000000000001924008711162015124354N000000000000N40       000310400K 10000000010000001888           
CUS0484430000104075958001         MARQUETTE REALTY COR6146 MARQUETTE RD                       000N        CARE OF             
MTR04844300001000000000000000RA              13244852    005801070000010700000310000003NY  NNW 000                       N    
MTM0484430013244852    MUDDY WATER                                                                                            
RDG04844300WATRL000000004K00000000000001350000711272015090732N000300000010U86       004940400K 10000000010000001279           
CUS0484430000104075959009         MARQUETTE REALTY COR6144 MARQUETTE RD                       000N        CARE OF             
MTR04844300001000000000000000RA              13248395    005801080000010800000310000003NY  NNW 000                       N    
MTM0484430013248395    MUDDY WATER                                                                                            
RDG04844300WATRL000000004K00000000000001404000811272015090735N000300000010U86       000030400K 10000000010000001332           
CUS0484430000104075960007         MARQUETTE REALTY COR6142 MARQUETTE RD                       000N        CARE OF             
MTR04844300001000000000000000RA              13247785    005801090000010900000310000003NY  NNW 000                       N    
MTM0484430013247785    CLEAN OUT VAULT NEED REPAIR                                                                            
RDG04844300WATRL000000004K00000000000000000000000000000000000 000000000000U         000000400  10000000010000001194           
CUS0484430000104075961005         MARQUETTE REALTY COR6140 MARQUETTE RD                       000N        CARE OF             
MTR04844300001000000000000000RA              13247845    005801100000011000000310000003NN  NNW 000                       N    
RDG04844300WATRL000000004K00000000000001230008811162015125418N000000000000N40       006240400K 10000000010000001203           
CUS0484430000104075962003         MARQUETTE REALTY COR6138 MARQUETTE RD                       000N        CARE OF             
MTR04844300001000000000000000RA              10023763    005801110000011100000570000003NN  NNW 000                       N    
RDG04844300WATRL000000004K00000000000000160008911162015125527N000300000010N40       000690400K 10000000010000000148           
CUS0484430000104075963001         MARQUETTE REALTY COR6136 MARQUETTE RD                       000N        CARE OF             
MTR04844300001000000000000000RA              10004492    005801120000011200000570000003NN  NNW 000                       N    
RDG04844300WATRL000000004K00000000000000377009011162015125532N000000000000N40       000050400K 10000000010000000352           
CUS0484430000104075964009         MARQUETTE REALTY COR6134 MARQUETTE RD                       000N        CARE OF             
MTR04844300001000000000000000RA              13247748    005801130000011300000310000003NN  NNW 000                       N    
RDG04844300WATRL000000004K00000000000001260009111162015125649N000400000010N40       000770400K 10000000010000001253           
CUS0484430000104075965006         MARQUETTE REALTY COR6132 MARQUETTE RD                       000N        CARE OF             
MTR04844300001000000000000000RA              13247844    005801140000011400000310000003NN  NNW 000                       N    
RDG04844300WATRL000000004K00000000000001036009211162015125658N000000000000N40       000090400K 10000000010000001022           
CUS0484430000104075966004         MARQUETTE REALTY COR6130 MARQUETTE RD                       000N        CARE OF             
MTR04844300001000000000000000RA              13247883    005801150000011500000310000003NN  NNW 000                       N    
RDG04844300WATRL000000004K00000000000002023009311162015125917N000000000000N40       001390400K 10000000010000001966           
CUS0484430000104075967002         MARQUETTE REALTY COR6118 MARQUETTE RD                       000N        CARE OF             
MTR04844300001000000000000000RA              13247118    005801160000011600000310000003NN  NNW 000                       N    
RDG04844300WATRL000000004K00000000000001996009411162015130051N000300000010N40       000940400K 10000000010000001971           
CUS0484430000104075968000         MARQUETTE REALTY COR6116 MARQUETTE RD                       000N        CARE OF             
MTR04844300001000000000000000RA              13247094    005801170000011700000310000003NN  NNW 000                       N    
RDG04844300WATRL000000004K00000000000001350009511162015130201N000000000000N40       000700400K 10000000010000001339           
CUS0484430000104075969008         MARQUETTE REALTY COR6114 MARQUETTE RD                       000N        CARE OF             
MTR04844300001000000000000000RA              13247851    005801180000011800000310000003NN  NNW 000                       N    
RDG04844300WATRL000000004K00000000000001590009611162015130209N000000000000N40       000080400K 10000000010000001560           
CUS0484430000104075970006         MARQUETTE REALTY COR6112 MARQUETTE RD                       000N        CARE OF             
MTR04844300001000000000000000RA              13247410    005801190000011900000310000003NN  NNW 000                       N    
RDG04844300WATRL000000004K00000000000001806009711162015130321N000000000000N40       000720400K 10000000010000001794           
CUS0484430000104075971004         MARQUETTE REALTY COR6110 MARQUETTE RD                       000N        CARE OF             
MTR04844300001000000000000000RA              13247119    005801200000012000000310000003NN  NNW 000                       N    
RDG04844300WATRL000000004K00000000000001837009811162015130329N000000000000N40       000080400K 10000000010000001825           
CUS0484430000104075972002         MARQUETTE REALTY COR6108 MARQUETTE RD                       000N        CARE OF             
MTR04844300001000000000000000RA              13247122    005801210000012100000310000003NN  NNW 000                       N    
RDG04844300WATRL000000004K00000000000001584009911162015130434N000000000000N40       000650400K 10000000010000001575           
CUS0484430000104075973000         MARQUETTE REALTY COR6106 MARQUETTE RD                       000N        CARE OF             
MTR04844300001000000000000000RA              13247163    005801220000012200000310000003NN  NNW 000                       N    
RDG04844300WATRL000000004K00000000000001043010011162015130638N000000000000N40       001240400K 10000000010000001020           
CUS0484430000104075974008         MARQUETTE REALTY COR6104 MARQUETTE RD                       000N        CARE OF             
MTR04844300001000000000000000RA              13242117    005801230000012300000310000003NN  NNW 000                       N    
RDG04844300WATRL000000004K00000000000001303010111162015130840N000000000000N40       001220400K 10000000010000001287           
CUS0484430000104075975005         MARQUETTE REALTY COR6102 MARQUETTE RD                       000N        CARE OF             
MTR04844300001000000000000000RA              13247121    005801240000012400000310000003NN  NNW 000                       N    
RDG04844300WATRL000000004K00000000000001193010211162015130846N000000000000N40       000060400K 10000000010000001168           
CUS0484430000104075976003         MARQUETTE REALTY COR6100 MARQUETTE RD                       000N        CARE OF             
MTR04844300001000000000000000RA              13247120    005801250000012500000310000003NN  NNW 000                       N    
RDG04844300WATRL000000004K00000000000001860010311162015130943N000000000000N40       000570400K 10000000010000001825           
CUS0484430000104075977001         GARDENVILLAGE REALTY6070 MARQUETTE RD                       000N        CARE OF             
MTR04844300001000000000000000RA              13247392    005801260000012600000310000003NN  NNW 000                       N    
RDG04844300WATRL000000004K00000000000001214010411162015131150N000000000000N40       001270400K 10000000010000001157           
CUS0484430000104075978009         GARDENVILLAGE REALTY6068 MARQUETTE RD                       000N        CARE OF             
MTR04844300001000000000000000RA              13247183    005801270000012700000310000003NN  NNW 000                       N    
RDG04844300WATRL000000004K00000000000001665010511162015131339N000000000000N40       001090400K 10000000010000001630           
CUS0484430000104075979007         GARDENVILLAGE REALTY6066 MARQUETTE RD                       000N        CARE OF             
MTR04844300001000000000000000RA              13247157    005801280000012800000310000003NN  NNW 000                       N    
RDG04844300WATRL000000004K00000000000001244010611162015131346N000000000000N40       000070400K 10000000010000001234           
CUS0484430000104075980005         GARDENVILLAGE REALTY6064 MARQUETTE RD                       000N        CARE OF             
MTR04844300001000000000000000RA              13247153    005801290000012900000310000003NN  NNW 000                       N    
RDG04844300WATRL000000004K00000000000001351010711162015131504N000000000000N40       000780400K 10000000010000001299           
CUS0484430000104075981003         GARDENVILLAGE REALTY6062 MARQUETTE RD                       000N        CARE OF             
MTR04844300001000000000000000RA              13247192    005801300000013000000310000003NN  NNW 000                       N    
RDG04844300WATRL000000004K00000000000000933010811162015131516N000000000000N40       000120400K 10000000010000000900           
CUS0484430000104075982001         GARDENVILLAGE REALTY6060 MARQUETTE RD                       000N        CARE OF             
MTR04844300001000000000000000RA              13247194    005801310000013100000310000003NN  NNW 000                       N    
RDG04844300WATRL000000004K00000000000001851010911162015131618N000000000000N40       000620400K 10000000010000001819           
CUS0484430000104075983009         GARDEN VILLAGE REALT6058 MARQUETTE RD                       000N        CARE OF             
MTR04844300001000000000000000RA              13247464    005801320000013200000310000003NN  NNW 000                       N    
RDG04844300WATRL000000004K00000000000000692011011162015131850N000000000000N40       001520400K 10000000010000000682           
CUS0484430000104075984007         GARDEN VILLAGE REALT6056 MARQUETTE RD                       000N        CARE OF             
MTR04844300001000000000000000RA              13247158    005801330000013300000310000003NN  NNW 000                       N    
RDG04844300WATRL000000004K00000000000001637011111162015132045N000000000000N40       001150400K 10000000010000001609           
CUS0484430000104075985004         GARDEN VILLAGE REALT6054 MARQUETTE RD                       000N        CARE OF             
MTR04844300001000000000000000RA              13247176    005801340000013400000310000003NN  NNW 000                       N    
RDG04844300WATRL000000004K00000000000000883011212022015091545O000000000010N41       000170400K 10000000010000000881           
CUS0484430000104075986002         GARDEN VILLAGE REALT6052 MARQUETTE RD                       000N        CARE OF             
MTR04844300001000000000000000RA              13247108    005801350000013500000310000003NN  NNW 000                       N    
RDG04844300WATRL000000004K00000000000001144011311162015132316N000000000000N40       001340400K 10000000010000001130           
CUS0484430000104075987000         GARDENVILLAGE REALTY6050 MARQUETTE RD                       000N        CARE OF             
MTR04844300001000000000000000RA              13247109    005801360000013600000310000003NN  NNW 000                       N    
RDG04844300WATRL000000004K00000000000000744011411162015132555N000000000000N40       001590400K 10000000010000000726           
CUS0484430000104075988008         GARDENVILLAGE REALTY6048 MARQUETTE RD                       000N        CARE OF             
MTR04844300001000000000000000RA              13247179    005801370000013700000310000003NN  NNW 000                       N    
RDG04844300WATRL000000004K00000000000001272011511162015132600N000000000000N40       000050400K 10000000010000001263           
CUS0484430000104075989006         GARDENVILLAGE REALTY6046 MARQUETTE RD                       000N        CARE OF             
MTR04844300001000000000000000RA              13247105    005801380000013800000310000003NN  NNW 000                       N    
RDG04844300WATRL000000004K00000000000001680011611162015132830N000300000020N40       001500400K 10000000010000001658           
CUS0484430000104075990004         GARDENVILLAGE REALTY6044 MARQUETTE RD                       000N        CARE OF             
MTR04844300001000000000000000RA              13247141    005801390000013900000310000003NN  NNW 000                       N    
RDG04844300WATRL000000004K00000000000001084011711162015132947N000000000000N40       000770400K 10000000010000001074           
CUS0484430000104075991002         GARDENVILLAGE REALTY6042 MARQUETTE RD                       000N        CARE OF             
MTR04844300001000000000000000RA              13247107    005801400000014000000310000003NN  NNW 000                       N    
RDG04844300WATRL000000004K00000000000001298011811162015132953N000000000000N40       000060400K 10000000010000001271           
CUS0484430000104075992000         GARDENVILLAGE REALTY6040 MARQUETTE RD                       000N        CARE OF             
MTR04844300001000000000000000RA              13247498    005801410000014100000310000003NN  NNW 000                       N    
RDG04844300WATRL000000004K00000000000001787011911162015133136N000000000000N40       001030400K 10000000010000001754           
CUS0484430000104075993008         GARDENVILLAGE REALTY6038 MARQUETTE RD                       000N        CARE OF             
MTR04844300001000000000000000RA              13247106    005801420000014200000310000003NN  NNW 000                       N    
RDG04844300WATRL000000004K00000000000001351012011162015133142N000000000000N40       000060400K 10000000010000001332           
CUS0484430000104075994006         GARDENVILLAGE REALTY6036 MARQUETTE RD                       000N        CARE OF             
MTR04844300001000000000000000RA              13247457    005801430000014300000310000003NN  NNW 000                       N    
RDG04844300WATRL000000004K00000000000001604012111162015133301N000400000010N40       000790400K 10000000010000001573           
CUS0484430000104075995003         GARDENVILLAGE REALTY6034 MARQUETTE RD                       000N        CARE OF             
MTR04844300001000000000000000RA              13247494    005801440000014400000310000003NN  NNW 000                       N    
RDG04844300WATRL000000004K00000000000001068012211162015133422N000000000000N40       000810400K 10000000010000001050           
CUS0484430000104075996001         GARDENVILLAGE REALTY6032 MARQUETTE RD                       000N        CARE OF             
MTR04844300001000000000000000RA              13247178    005801450000014500000310000003NN  NNW 000                       N    
RDG04844300WATRL000000004K00000000000001358012311162015133604N000000000000N40       001020400K 10000000010000001340           
CUS0484430000104075997009         GARDENVILLAGE REALTY6030 MARQUETTE RD                       000N        CARE OF             
MTR04844300001000000000000000RA              13292205    005801460000014600000310000003NN  NNW 000                       N    
RDG04844300WATRL000000004K00000000000001481012411162015133625N000000000000N40       000210400K 10000000010000001445           
CUS0484430000104075998007         GARDENVILLAGE REALTY6028 MARQUETTE RD                       000N        CARE OF             
MTR04844300001000000000000000RA              10023781    005801470000014700000570000003NN  NNW 000                       N    
RDG04844300WATRL000000004K00000000000000151012511162015133857N000000000010N40       001520400K 10000000010000000136           
CUS0484430000104075999005         GARDENVILLAGE REALTY6026 MARQUETTE RD                       000N        CARE OF             
MTR04844300001000000000000000RA              10023768    005801480000014800000570000003NN  NNW 000                       N    
RDG04844300WATRL000000004K00000000000000330012611162015133932N000000000000N40       000350400K 10000000010000000294           
CUS0484430000104076000001         GARDENVILLAGE REALTY6024 MARQUETTE RD                       000N        CARE OF             
MTR04844300001000000000000000RA              13292510    005801490000014900000310000003NN  NNW 000                       N    
RDG04844300WATRL000000004K00000000000001223012711162015134231N000000000000N40       001790400K 10000000010000001191           
CUS0484430000104076001009         GARDENVILLAGE REALTY6022 MARQUETTE RD                       000N        CARE OF             
MTR04844300001000000000000000RA              13247138    005801500000015000000310000003NY  NNW 000                       N    
MTM0484430013247138    BURIED                                                                                                 
RDG04844300WATRL000000004K00000000000000000000000000000000000 000000000000U         000000400  10000000010000001867           
CUS0484430000104076002007         GARDENVILLAGE REALTY6020 MARQUETTE RD                       000N        CARE OF             
MTR04844300001000000000000000RA              13247139    005801510000015100000310000003NY  NNW 000                       N    
MTM0484430013247139    BURIED                                                                                                 
RDG04844300WATRL000000004K00000000000000000000000000000000000 000000000000U         000000400  10000000010000001524           
CUS0484430000104076003005         GARDENVILLAGE REALTY6018 MARQUETTE RD                       000N        CARE OF             
MTR04844300001000000000000000RA              13292192    005801520000015200000310000003NY  NNW 000                       N    
MTM0484430013292192    MUDDY WATER                                                                                            
RDG04844300WATRL000000004K00000000000001919002511272015095124N000000000000U86       002950400K 10000000010000001843           
CUS0484430000104076004003         GARDENVILLAGE REALTY6016 MARQUETTE RD                       000N        CARE OF             
MTR04844300001000000000000000RA              13292193    005801530000015300000310000003NY  NNW 000                       N    
MTM0484430013292193    MUDDY WATER                                                                                            
RDG04844300WATRL000000004K00000000000000980002611272015095138N000400000010U86       000140400K 10000000010000000976           
CUS0484430000104076005000         GARDENVILLAGE REALTY6014 MARQUETTE RD                       000N        CARE OF             
MTR04844300001000000000000000RA              13292194    005801540000015400000310000003NN  NNW 000                       N    
RDG04844300WATRL000000004K00000000000001421012811162015135011N000000000011N40       000670400K 10000000010000001382           
CUS0484430000104076006008         GARDENVILLAGE REALTY6012 MARQUETTE RD                       000N        CARE OF             
MTR04844300001000000000000000RA              13291674    005801550000015500000310000003NN  NNW 000                       N    
RDG04844300WATRL000000004K00000000000001077012911162015135214N000000000010N40       001230400K 10000000010000001041           
CUS0484430000104076007006         GARDENVILLAGE REALTY6010 MARQUETTE RD                       000N        CARE OF             
MTR04844300001000000000000000RA              13291648    005801560000015600000310000003NN  NNW 000                       N    
RDG04844300WATRL000000004K00000000000001131013011162015135355N000000000000N40       001010400K 10000000010000001095           
CUS0484430000104076008004         GARDENVILLAGE REALTY6008 MARQUETTE RD                       000N        CARE OF             
MTR04844300001000000000000000RA              13291643    005801570000015700000310000003NN  NNW 000                       N    
RDG04844300WATRL000000004K00000000000000773013111162015135400N000000000000N40       000050400K 10000000010000000759           
CUS0484430000104076009002         GARDENVILLAGE REALTY6006 MARQUETTE RD                       000N        CARE OF             
MTR04844300001000000000000000RA              13291631    005801580000015800000310000003NN  NNW 000                       N    
RDG04844300WATRL000000004K00000000000001107013211162015135501N000000000000N40       000610400K 10000000010000001091           
CUS0484430000104076010000         GARDENVILLAGE REALTY6004 MARQUETTE RD                       000N        CARE OF             
MTR04844300001000000000000000RA              13291636    005801590000015900000310000003NN  NNW 000                       N    
RDG04844300WATRL000000004K00000000000000853013311162015135511N000000000000N40       000100400K 10000000010000000826           
CUS0484430000104076011008         GARDENVILLAGE REALTY6002 MARQUETTE RD                       000N        CARE OF             
MTR04844300001000000000000000RA              13291654    005801600000016000000310000003NN  NNW 000                       N    
RDG04844300WATRL000000004K00000000000001100013411162015135609N000300000010N40       000580400K 10000000010000001043           
CUS0484430000104076012006         GARDENVILLAGE REALTY6011 SAINT REGIS RD                     000N        CARE OF             
MTR04844300001000000000000000RA              13248517    005801610000016100000310000003NN  NNW 000                       N    
RDG04844300WATRL000000004K00000000000000849013511162015135800N000300000010N40       001110400K 10000000010000000787           
CUS0484430000104076013004         GARDENVILLAGE REALTY6013 SAINT REGIS RD                     000N        CARE OF             
MTR04844300001000000000000000RA              13248474    005801620000016200000310000003NN  NNW 000                       N    
RDG04844300WATRL000000004K00000000000000146013611162015135909N000300000011N40       000690400K 10000000010000000138           
CUS0484430000104076014002         GARDENVILLAGE REALTY6015 SAINT REGIS RD                     000N        CARE OF             
MTR04844300001000000000000000RA              13248556    005801630000016300000310000003NN  NNW 000                       N    
RDG04844300WATRL000000004K00000000000001115013711162015135918N000000000000N40       000090400K 10000000010000001065           
CUS0484430000104076015009         GARDENVILLAGE REALTY6017 SAINT REGIS RD                     000N        CARE OF             
MTR04844300001000000000000000RA              13249329    005801640000016400000310000003NN  NNW 000                       N    
RDG04844300WATRL000000004K00000000000002011013811162015140009N000400000010N40       000510400K 10000000010000001945           
CUS0484430000104076016007         GARDENVILLAGE REALTY6019 SAINT REGIS RD                     000N        CARE OF             
MTR04844300001000000000000000RA              13292306    005801650000016500000310000003NN  NNW 000                       N    
RDG04844300WATRL000000004K00000000000001442013911162015140121N000300000010N40       000720400K 10000000010000001414           
CUS0484430000104076017005         GARDENVILLAGE REALTY6021 SAINT REGIS RD                     000N        CARE OF             
MTR04844300001000000000000000RA              13292273    005801660000016600000310000003NN  NNW 000                       N    
RDG04844300WATRL000000004K00000000000001437014011162015140347N000000000000N40       001460400K 10000000010000001412           
CUS0484430000104076018003         GARDENVILLAGE REALTY6023 SAINT REGIS RD                     000N        CARE OF             
MTR04844300001000000000000000RA              13292179    005801670000016700000310000003NN  NNW 000                       N    
RDG04844300WATRL000000004K00000000000001423014111162015140358N000000000000N40       000110400K 10000000010000001401           
CUS0484430000104076019001         GARDENVILLAGE REALTY6025 SAINT REGIS RD                     000N        CARE OF             
MTR04844300001000000000000000RA              13292304    005801680000016800000310000003NN  NNW 000                       N    
RDG04844300WATRL000000004K00000000000001128014211162015140536N000000000000N40       000980400K 10000000010000001110           
CUS0484430000104076020009         GARDENVILLAGE REALTY6003 NAHANT RD                          000N        CARE OF             
MTR04844300001000000000000000RA              13291700    005801690000016900000310000003NN  NNW 000                       N    
RDG04844300WATRL000000004K00000000000001417014311162015140726N000000000000N40       001100400K 10000000010000001407           
CUS0484430000104076021007         GARDENVILLAGE REALTY6005 NAHANT RD                          000N        CARE OF             
MTR04844300001000000000000000RA              13291697    005801700000017000000310000003NN  NNW 000                       N    
RDG04844300WATRL000000004K00000000000001783014411162015140838N000000000000N40       000720400K 10000000010000001752           
CUS0484430000104076022005         GARDENVILLAGE REALTY6007 NAHANT RD                          000N        CARE OF             
MTR04844300001000000000000000RA              13291679    005801710000017100000310000003NN  NNW 000                       N    
RDG04844300WATRL000000004K00000000000001438014511162015140847N000000000000N40       000090400K 10000000010000001412           
CUS0484430000104076023003         GARDENVILLAGE REALTY6009 NAHANT RD                          000N        CARE OF             
MTR04844300001000000000000000RA              13291683    005801720000017200000310000003NN  NNW 000                       N    
RDG04844300WATRL000000004K00000000000002225014611162015140954N000000000000N40       000670400K 10000000010000002195           
CUS0484430000104076024001         GARDENVILLAGE REALTY6011 NAHANT RD                          000N        CARE OF             
MTR04844300001000000000000000RA              13249084    005801730000017300000310000003NN  NNW 000                       N    
RDG04844300WATRL000000004K00000000000001431014711162015141000N000000000000N40       000060400K 10000000010000001402           
CUS0484430000104076025008         GARDENVILLAGE REALTY6013 NAHANT RD                          000N        CARE OF             
MTR04844300001000000000000000RA              13249080    005801740000017400000310000003NN  NNW 000                       N    
RDG04844300WATRL000000004K00000000000002661014811162015141118N000400000010N40       000780400K 10000000010000002592           
CUS0484430000104076026006         GARDENVILLAGE REALTY6015 NAHANT RD                          000N        CARE OF             
MTR04844300001000000000000000RA              13249079    005801750000017500000310000003NN  NNW 000                       N    
RDG04844300WATRL000000004K00000000000000918014912022015091636O000000000010N41       000610400K 10000000010000000913           
CUS0484430000104076027004         GARDENVILLAGE REALTY6017 NAHANT RD                          000N        CARE OF             
MTR04844300001000000000000000RA              13249026    005801760000017600000310000003NN  NNW 000                       N    
RDG04844300WATRL000000004K00000000000000505015011162015141324N000000000000N40       000650400K 10000000010000000496           
CUS0484430000104076028002         GARDENVILLAGE REALTY6019 NAHANT RD                          000N        CARE OF             
MTR04844300001000000000000000RA              13249066    005801770000017700000310000003NN  NNW 000                       N    
RDG04844300WATRL000000004K00000000000001124015111162015141345N000000000000N40       000210400K 10000000010000001096           
CUS0484430000104076029000         GARDENVILLAGE REALTY6021 NAHANT RD                          000N        CARE OF             
MTR04844300001000000000000000RA              13249180    005801780000017800000310000003NN  NNW 000                       N    
RDG04844300WATRL000000004K00000000000000984015211162015141519N000000000000N40       000940400K 10000000010000000946           
CUS0484430000104076030008         GARDENVILLAGE REALTY6023 NAHANT RD                          000N        CARE OF             
MTR04844300001000000000000000RA              13249061    005801790000017900000310000003NN  NNW 000                       N    
RDG04844300WATRL000000004K00000000000001445015311162015141553N000000000000N40       000340400K 10000000010000001420           
CUS0484430000104076031006         GARDENVILLAGE REALTY6025 NAHANT RD                          000N        CARE OF             
MTR04844300001000000000000000RA              13249046    005801800000018000000310000003NY  NNW 000                       N    
MTM0484430013249046    MUDDY WATER                                                                                            
RDG04844300WATRL000000004K00000000000000932002211272015093809N000000000000U86       000300400K 10000000010000000918           
CUS0484430000104076032004         GARDENVILLAGE REALTY6027 NAHANT RD                          000N        CARE OF             
MTR04844300001000000000000000RA              13249125    005801810000018100000310000003NN  NNW 000                       N    
RDG04844300WATRL000000004K00000000000001855015411162015142030N000000000000N40       002770400K 10000000010000001829           
CUS0484430000104076033002         GARDENVILLAGE REALTY6029 NAHANT RD                          000N        CARE OF             
MTR04844300001000000000000000RA              13249096    005801820000018200000310000003NY  NNW 000                       N    
MTM0484430013249096    MUDDY WATER                                                                                            
RDG04844300WATRL000000004K00000000000001006002011272015093737N000100000010U86       001240400K 10000000010000001006           
CUS0484430000104076034000         GARDENVILLAGE REALTY6031 NAHANT RD                          000N        CARE OF             
MTR04844300001000000000000000RA              13249124    005801830000018300000310000003NY  NNW 000                       N    
MTM0484430013249124    MUDDY WATER                                                                                            
RDG04844300WATRL000000004K00000000000001693002111272015093739N000000000000U86       000020400K 10000000010000001663           
CUS0484430000104076035007         GARDENVILLAGE REALTY6033 NAHANT RD                          000N        CARE OF             
MTR04844300001000000000000000RA              13249093    005801840000018400000310000003NN  NNW 000                       N    
RDG04844300WATRL000000004K00000000000001511015511162015142248N000000000000N40       001380400K 10000000010000001498           
RTR04844300NN01840184000001840000000001840184000357NY018401840184000300000000000000000000000001    11092015NY020000 N         
RHD04758000NN03040304000003040000000003040304000065NY030403040304000100010000000000000000000001    10262015NY020000 N         
CUS0475800000104136341007         DEVEAS DOUGLAS G    1711 NORTHVIEW RD                       000N        CARE OF             
MTR04758000001000000000000000RA              01081983    005800010000000100000610000003NN  NNW 000                       N    
RDG04758000WATRL000000004K00000000000001059000010282015120007O000000000000N40       000000400K 10000000010000001045           
CUS0475800000104136342005         NEW LEAF PROP LLC   1713 NORTHVIEW RD                       000N        CARE OF             
MTR04758000001000000000000000RA              01083765    005800020000000200000610000003NN  NNW 000                       N    
RDG04758000WATRL000000004K00000000000000537000010282015120027O000000000000N40       000000400K 10000000010000000518           
CUS0475800000104136343003         GLOS MICHAEL F,3RD  1715 NORTHVIEW RD                       000N        CARE OF             
MTR04758000001000000000000000RA              31583905    005800030000000300000520000003NN  NNW 000                       N    
RDG04758000WATRL000000004K00000000000002286000111022015134221N000000000000U81       000000400K 10000000010000002273           
CUS0475800000104136344001         FORSYTHE GEORGE,JR  1717 NORTHVIEW RD                       000N        CARE OF             
MTR04758000001000000000000000RA              75615029    005800040000000400000350000003NN  NNW 000                       N    
RDG04758000WATRL000000004K00000000000000052000211022015134224N000000000000U81       000030400K 10000000010000000041           
CUS0475800000104136345008         JOHNSTON MICHELE    8372 HILLENDALE RD                      000N        CARE OF             
MTR04758000001000000000000000RA              24770928    005800050000000500000520000003NN  NNW 000                       N    
RDG04758000WATRL000000004K00000000000004087000311022015134227N000000000000U81       000030400K 10000000010000004062           
CUS0475800000104136346006         WEST ELIZABETH      8370 HILLENDALE RD                      000N        CARE OF             
MTR04758000001000000000000000RA              33730438    005800060000000600000520000003NN  NNW 000                       N    
RDG04758000WATRL000000004K00000000000001864000411022015134232N000000000000U81       000050400K 10000000010000001850           
CUS0475800000104136347004         INSLEY MARSHA M     8368 HILLENDALE RD                      000N        CARE OF             
MTR04758000001000000000000000RA              33083111    005800070000000700000520000003NN  NNW 000                       N    
RDG04758000WATRL000000004K00000000000001219000511022015134236N000000000000U81       000040400K 10000000010000001188           
CUS0475800000104136348002         ANDERSON DEBORAH D  8366 HILLENDALE RD                      000N        CARE OF             
MTR04758000001000000000000000RA              33083142    005800080000000800000520000003NN  NNW 000                       N    
RDG04758000WATRL000000004K00000000000001246000611022015134239N000000000000U81       000030400K 10000000010000001238           
CUS0475800000104136349000         MARSH LINDA C       8364 HILLENDALE RD                      000N        CARE OF             
MTR04758000001000000000000000RA              14906057    005800090000000900000310000003NN  NNW 000                       N    
RDG04758000WATRL000000004K00000000000000299000711022015134244N000300000010U81       000050400K 10000000010000000290           
CUS0475800000104136350008         BROOKHART JAMES W   8362 HILLENDALE RD                      000N        CARE OF             
MTR04758000001000000000000000RA              33730436    005800100000001000000520000003NN  NNW 000                       N    
RDG04758000WATRL000000004K00000000000001676000811022015134250N000000000000U81       000060400K 10000000010000001672           
CUS0475800000104136351006         YOSKEY RICHARD P    8360 HILLENDALE RD                      000N        CARE OF             
MTR04758000001000000000000000RA              33730439    005800110000001100000520000003NN  NNW 000                       N    
RDG04758000WATRL000000004K00000000000002571000911022015134253N000000000000U81       000030400K 10000000010000002556           
CUS0475800000104136352004         HAROLD & RITA CONGER8358 HILLENDALE RD                      000N        CARE OF             
MTR04758000001000000000000000RA              33730437    005800120000001200000520000003NN  NNW 000                       N    
RDG04758000WATRL000000004K00000000000003343001011022015134256N000000000000U81       000030400K 10000000010000003326           
CUS0475800000104136353002         PAGE ZACHARY        8356 HILLENDALE RD                      000N        CARE OF             
MTR04758000001000000000000000RA              33730435    005800130000001300000520000003NN  NNW 000                       N    
RDG04758000WATRL000000004K00000000000002380001111022015134258N000000000000U81       000020400K 10000000010000002372           
CUS0475800000104136354000         MCCABE CURTIS G,3RD 8354 HILLENDALE RD                      000N        CARE OF             
MTR04758000001000000000000000RA              19459309    005800140000001400000520000003NN  NNW 000                       N    
RDG04758000WATRL000000004K00000000000002921001211022015134301N000000000000U81       000030400K 10000000010000002914           
CUS0475800000104136355007         BAHAR BILAL H       8352 HILLENDALE RD                      000N        CARE OF             
MTR04758000001000000000000000RA              11471398    005800150000001500000570000003NN  NNW 000                       N    
RDG04758000WATRL000000004K00000000000003792001311022015134303N000000000000U81       000020400K 10000000010000003783           
CUS0475800000104136356005         MASON DONNA G       8350 HILLENDALE RD                      000N        CARE OF             
MTR04758000001000000000000000RA              29404521    005800160000001600000520000003NN  NNW 000                       N    
RDG04758000WATRL000000004K00000000000003025001411022015134306N000000000000U81       000030400K 10000000010000003020           
CUS0475800000104136357003         KUENNE HERBERT F, JR8348 HILLENDALE RD                      000N        CARE OF             
MTR04758000001000000000000000RA              31582865    005800170000001700000520000003NN  NNW 000                       N    
RDG04758000WATRL000000004K00000000000001801001511022015134308N000000000000U81       000020400K 10000000010000001795           
CUS0475800000104136358001         CHENOWITH HOWARD J  8346 HILLENDALE RD                      000N        CARE OF             
MTR04758000001000000000000000RA              32771345    005800180000001800000520000003NN  NNW 000                       N    
RDG04758000WATRL000000004K00000000000004114001611022015134316N000000000000U81       000080400K 10000000010000004093           
CUS0475800000104136359009         WISNER WILLIAM      8344 HILLENDALE RD                      000N        CARE OF             
MTR04758000001000000000000000RA              32771346    005800190000001900000520000003NN  NNW 000                       N    
RDG04758000WATRL000000004K00000000000002303001711022015134320N000000000000U81       000040400K 10000000010000002290           
CUS0475800000104136360007         CLEMENT BRYAN R     8342 HILLENDALE RD                      000N        CARE OF             
MTR04758000001000000000000000RA              30517281    005800200000002000000520000003NN  NNW 000                       N    
RDG04758000WATRL000000004K00000000000003885001811022015134328N000000000000U81       000080400K 10000000010000003875           
CUS0475800000104136361005         MANGIERI KIMBERLY D 8340 HILLENDALE RD                      000N        CARE OF             
MTR04758000001000000000000000RA              26018028    005800210000002100000520000003NN  NNW 000                       N    
RDG04758000WATRL000000004K00000000000004330001911022015134331N000000000000U81       000030400K 10000000010000004313           
CUS0475800000104136362003         VAN STONE MICHAEL   8338 HILLENDALE RD                      000N        CARE OF             
MTR04758000001000000000000000RA              33730434    005800220000002200000520000003NN  NNW 000                       N    
RDG04758000WATRL000000004K00000000000003834002011022015134334N000000000000U81       000030400K 10000000010000003834           
CUS0475800000104136363001         CESELSKY MARY CAROL 8336 HILLENDALE RD                      000N        CARE OF             
MTR04758000001000000000000000RA              33730864    005800230000002300000520000003NN  NNW 000                       N    
RDG04758000WATRL000000004K00000000000002723002111022015134338N000000000000U81       000040400K 10000000010000002711           
CUS0475800000104136364009         MCHALE JEAN M       8334 HILLENDALE RD                      000N        CARE OF             
MTR04758000001000000000000000RA              44003582    005800240000002400000520000003NN  NNW 000                       N    
RDG04758000WATRL000000004K00000000000000930002211022015134341N000000000000U81       000030400K 10000000010000000925           
CUS0475800000104136365006         ANDERSEN DALE A     8332 HILLENDALE RD                      000N        CARE OF             
MTR04758000001000000000000000RA              44003583    005800250000002500000520000003NN  NNW 000                       N    
RDG04758000WATRL000000004K00000000000001520002311022015134344N000000000000U81       000030400K 10000000010000001492           
CUS0475800000104136366004         DEGROAT GARY M      8330 HILLENDALE RD                      000N        CARE OF             
MTR04758000001000000000000000RA              33732207    005800260000002600000520000003NN  NNW 000                       N    
RDG04758000WATRL000000004K00000000000001006002411022015134346N000000000000U81       000020400K 10000000010000000994           
CUS0475800000104136367002         PHILLIPS DOLORES B  8328 HILLENDALE RD                      000N        CARE OF             
MTR04758000001000000000000000RA              33730843    005800270000002700000520000003NN  NNW 000                       N    
RDG04758000WATRL000000004K00000000000001769002511022015134350N000000000000U81       000040400K 10000000010000001760           
CUS0475800000104136368000         PIOTR ZAJACZKOWSKI  8326 HILLENDALE RD                      000N        CARE OF             
MTR04758000001000000000000000RA              30516311    005800280000002800000520000003NN  NNW 000                       N    
RDG04758000WATRL000000004K00000000000004404002611022015134352N000000000000U81       000020400K 10000000010000004396           
CUS0475800000104136369008         STURGIS HARRY G     8324 HILLENDALE RD                      000N        CARE OF             
MTR04758000001000000000000000RA              33730899    005800290000002900000520000003NN  NNW 000                       N    
RDG04758000WATRL000000004K00000000000002270002711022015134355N000000000000U81       000030400K 10000000010000002243           
CUS0475800000104136370006         REICH ANNA C        8322 HILLENDALE RD                      000N        CARE OF             
MTR04758000001000000000000000RA              33730937    005800300000003000000520000003NN  NNW 000                       N    
RDG04758000WATRL000000004K00000000000002780002811022015134358N000000000000U81       000030400K 10000000010000002769           
CUS0475800000104136371004         VIDUNAS MARY ELIZABE8320 HILLENDALE RD                      000N        CARE OF             
MTR04758000001000000000000000RA              32900816    005800310000003100000520000003NN  NNW 000                       N    
RDG04758000WATRL000000004K00000000000002137002911022015134400N000000000000U81       000020400K 10000000010000002134           
CUS0475800000104136372002         SOBUS MARIA         8318 HILLENDALE RD                      000N        CARE OF             
MTR04758000001000000000000000RA              32900818    005800320000003200000520000003NN  NNW 000                       N    
RDG04758000WATRL000000004K00000000000001660003011022015134404N000000000000U81       000040400K 10000000010000001654           
CUS0475800000104136373000         RITTMEYER ERIC J    8316 HILLENDALE RD                      000N        CARE OF             
MTR04758000001000000000000000RA              44090651    005800330000003300000520000003NN  NNW 000                       N    
RDG04758000WATRL000000004K00000000000001454003111022015134408N000000000000U81       000040400K 10000000010000001434           
CUS0475800000104136374008         BROOKS BARBARA E    8314 HILLENDALE RD                      000N        CARE OF             
MTR04758000001000000000000000RA              33732211    005800340000003400000520000003NN  NNW 000                       N    
RDG04758000WATRL000000004K00000000000001197003211022015134412N000000000000U81       000040400K 10000000010000001190           
CUS0475800000104136375005         SHEPHARD JOANNE L   8312 HILLENDALE RD                      000N        CARE OF             
MTR04758000001000000000000000RA              33732204    005800350000003500000520000003NN  NNW 000                       N    
RDG04758000WATRL000000004K00000000000001779003311022015134414N000000000000U81       000020400K 10000000010000001767           
CUS0475800000104136376003         KUROWSKI MICHAEL E  8310 HILLENDALE RD                      000N        CARE OF             
MTR04758000001000000000000000RA              99293797    005800360000003600000570000003NN  NNW 000                       N    
RDG04758000WATRL000000004K00000000000000955003411022015134417N000000000000U81       000030400K 10000000010000000943           
CUS0475800000104136377001         MELANSON VINCENT    8308 HILLENDALE RD                      000N        CARE OF             
MTR04758000001000000000000000RA              27823055    005800370000003700000520000003NN  NNW 000                       N    
RDG04758000WATRL000000004K00000000000003353003511022015134419N000000000000U81       000020400K 10000000010000003333           
CUS0475800000104136378009         WEEKLY YVONNE R     8306 HILLENDALE RD                      000N        CARE OF             
MTR04758000001000000000000000RA              11331557    005800380000003800000570000003NN  NNW 000                       N    
RDG04758000WATRL000000004K00000000000003672003611022015134423N000300000010U81       000040400K 10000000010000003849           
CUS0475800000104136379007         MICHAEL J. SHOOK    8304 HILLENDALE RD                      000N        CARE OF             
MTR04758000001000000000000000RA              78021650    005800390000003900000360000003NN  NNW 000                       N    
RDG04758000WATRL000000004K00000000000000007003711022015134430N000000000010U81       000070400K 10000000010000000000           
CUS0475800000104136380005         TRIOLO FRANK A,SR   8302 HILLENDALE RD                      000N        CARE OF             
MTR04758000001000000000000000RA              33732209    005800400000004000000520000003NN  NNW 000                       N    
RDG04758000WATRL000000004K00000000000001124003811022015134434N000100000010U81       000040400K 10000000010000001124           
CUS0475800000104136381003         THEBPANYA PAPORN    8300 HILLENDALE RD                      000N        CARE OF             
MTR04758000001000000000000000RA              10006099    005800410000004100000570000003NN  NNW 000                       N    
RDG04758000WATRL000000004K00000000000000153003911022015134439N000000000000U81       000050400K 10000000010000000149           
CUS0475800000104136382001         HANNAH E. SCHWARTZ  8301 HILLENDALE RD                      000N        CARE OF             
MTR04758000001000000000000000RA              01104376    005800420000004200000610000003NN  NNW 000                       N    
RDG04758000WATRL000000004K00000000000000540004011022015134442N000000000000U81       000030400K 10000000010000000530           
CUS0475800000104136383009         SMITH THERESE M     8303 HILLENDALE RD                      000N        CARE OF             
MTR04758000001000000000000000RA              33083133    005800430000004300000520000003NN  NNW 000                       N    
RDG04758000WATRL000000004K00000000000001764004111022015134446N000000000000U81       000040400K 10000000010000001754           
CUS0475800000104136384007         MARYANNE LEISTER    8305 HILLENDALE RD                      000N        CARE OF             
MTR04758000001000000000000000RA              24228962    005800440000004400000520000003NN  NNW 000                       N    
RDG04758000WATRL000000004K00000000000002979004211022015134450N000000000000U81       000040400K 10000000010000002956           
CUS0475800000104136385004         JOHN K KELLY        8307 HILLENDALE RD                      000N        CARE OF             
MTR04758000001000000000000000RA              99288033    005800450000004500000570000003NN  NNW 000                       N    
RDG04758000WATRL000000004K00000000000000788004311022015134453N000000000000U81       000030400K 10000000010000000776           
CUS0475800000104136386002         BAIBA WHEELER       8309 HILLENDALE RD                      000N        CARE OF             
MTR04758000001000000000000000RA              33083167    005800460000004600000520000003NN  NNW 000                       N    
RDG04758000WATRL000000004K00000000000001735004411022015134454N000000000000U81       000010400K 10000000010000001728           
CUS0475800000104136387000         MURK JOSEPH         8311 HILLENDALE RD                      000N        CARE OF             
MTR04758000001000000000000000RA              33083137    005800470000004700000520000003NN  NNW 000                       N    
RDG04758000WATRL000000004K00000000000002740004511022015134459N000000000000U81       000050400K 10000000010000002734           
CUS0475800000104136388008         BAIER FRED W        8313 HILLENDALE RD                      000N        CARE OF             
MTR04758000001000000000000000RA              33083132    005800480000004800000520000003NN  NNW 000                       N    
RDG04758000WATRL000000004K00000000000001654004611022015134501N000000000000U81       000020400K 10000000010000001640           
CUS0475800000104136389006         OBRINGER CHRISTINA  8315 HILLENDALE RD                      000N        CARE OF             
MTR04758000001000000000000000RA              23056780    005800490000004900000520000003NN  NNW 000                       N    
RDG04758000WATRL000000004K00000000000002325004711022015134504N000000000000U81       000030400K 10000000010000002321           
CUS0475800000104136390004         MURRAY LILIYA N     8317 HILLENDALE RD                      000N        CARE OF             
MTR04758000001000000000000000RA              33083135    005800500000005000000520000003NN  NNW 000                       N    
RDG04758000WATRL000000004K00000000000001902004811022015134506N000000000000U81       000020400K 10000000010000001879           
CUS0475800000104136391002         ZAJACZKOWSKI PIOTR  8319 HILLENDALE RD                      000N        CARE OF             
MTR04758000001000000000000000RA              33083136    005800510000005100000520000003NN  NNW 000                       N    
RDG04758000WATRL000000004K00000000000002195004912022015085007O000000000010U41       000080400K 10000000010000002180           
CUS0475800000104136392000         WILLIAMS IVAN M     8321 HILLENDALE RD                      000N        CARE OF             
MTR04758000001000000000000000RA              39290332    005800520000005200000520000003NN  NNW 000                       N    
RDG04758000WATRL000000004K00000000000001863005011022015134517N000000000000U81       000030400K 10000000010000001856           
CUS0475800000104136393008         KLARMAN JOHN C,JR   8323 HILLENDALE RD                      000N        CARE OF             
MTR04758000001000000000000000RA              26006883    005800530000005300000520000003NN  NNW 000                       N    
RDG04758000WATRL000000004K00000000000003433005111022015134518N000000000000U81       000010400K 10000000010000003422           
CUS0475800000104136394006         DAVENPORT DEBORAH S 8325 HILLENDALE RD                      000N        CARE OF             
MTR04758000001000000000000000RA              26006830    005800540000005400000520000003NN  NNW 000                       N    
RDG04758000WATRL000000004K00000000000001787005211022015134525N000300000010U81       000070400K 10000000010000001774           
CUS0475800000104136395003         HANNA MARY E        8327 HILLENDALE RD                      000N        CARE OF             
MTR04758000001000000000000000RA              26006832    005800550000005500000520000003NN  NNW 000                       N    
RDG04758000WATRL000000004K00000000000002476005311252015135918O000000000010U41       000080400K 10000000010000002463           
CUS0475800000104136396001         ABBEY STACEY J      8329 HILLENDALE RD                      000N        CARE OF             
MTR04758000001000000000000000RA              33083164    005800560000005600000520000003NN  NNW 000                       N    
RDG04758000WATRL000000004K00000000000001626005411022015134542N000000000000U81       000090400K 10000000010000001613           
CUS0475800000104136397009         SEETS KAREN E       8331 HILLENDALE RD                      000N        CARE OF             
MTR04758000001000000000000000RA              33083163    005800570000005700000520000003NN  NNW 000                       N    
RDG04758000WATRL000000004K00000000000001159005511022015134544N000000000000U81       000020400K 10000000010000001157           
CUS0475800000104136398007         HILL JENNIFER B     8333 HILLENDALE RD                      000N        CARE OF             
MTR04758000001000000000000000RA              33083162    005800580000005800000520000003NN  NNW 000                       N    
RDG04758000WATRL000000004K00000000000000996005611022015134554N000000000000U81       000100400K 10000000010000000992           
CUS0475800000104136399005         STROHMAN TODD A     8335 HILLENDALE RD                      000N        CARE OF             
MTR04758000001000000000000000RA              33083134    005800590000005900000520000003NN  NNW 000                       N    
RDG04758000WATRL000000004K00000000000001435005711022015134558N000300000010U81       000040400K 10000000010000001145           
CUS0475800000104136400001         SAO PAUL            8337 HILLENDALE RD                      000N        CARE OF             
MTR04758000001000000000000000RA              33083165    005800600000006000000520000003NN  NNW 000                       N    
RDG04758000WATRL000000004K00000000000002259005811022015134600N000000000000U81       000020400K 10000000010000002239           
CUS0475800000104136401009         MULLEN MICHAEL      8339 HILLENDALE RD                      000N        CARE OF             
MTR04758000001000000000000000RA              33083166    005800610000006100000520000003NN  NNW 000                       N    
RDG04758000WATRL000000004K00000000000001103005911022015134604N000000000000U81       000040400K 10000000010000001097           
CUS0475800000104136402007         WOLF MARY K         8341 HILLENDALE RD                      000N        CARE OF             
MTR04758000001000000000000000RA              33083143    005800620000006200000520000003NN  NNW 000                       N    
RDG04758000WATRL000000004K00000000000002922006011022015134608N000000000000U81       000040400K 10000000010000002914           
CUS0475800000104136403005         BAKER GREGORY T     8343 HILLENDALE RD                      000N        CARE OF             
MTR04758000001000000000000000RA              26006882    005800630000006300000520000003NN  NNW 000                       N    
RDG04758000WATRL000000004K00000000000005632006111022015134612N000000000000U81       000040400K 10000000010000005599           
CUS0475800000104136404003         KELLER CATHERINE G  8345 HILLENDALE RD                      000N        CARE OF             
MTR04758000001000000000000000RA              33083109    005800640000006400000520000003NN  NNW 000                       N    
RDG04758000WATRL000000004K00000000000000890006211022015134615N000000000000U81       000030400K 10000000010000000888           
CUS0475800000104136405000         SPRINGER MATILDA    8347 HILLENDALE RD                      000N        CARE OF             
MTR04758000001000000000000000RA              48586497    005800650000006500000520000003NN  NNW 000                       N    
RDG04758000WATRL000000004K00000000000000667006311022015134618N000000000000U81       000030400K 10000000010000000663           
CUS0475800000104136406008         BERGER DOUGLAS T    8349 HILLENDALE RD                      000N        CARE OF             
MTR04758000001000000000000000RA              33083110    005800660000006600000520000003NN  NNW 000                       N    
RDG04758000WATRL000000004K00000000000003417006411022015134622N000000000000U81       000040400K 10000000010000003406           
CUS0475800000104136407006         BOND JAIME          8351 HILLENDALE RD                      000N        CARE OF             
MTR04758000001000000000000000RA              33083112    005800670000006700000520000003NN  NNW 000                       N    
RDG04758000WATRL000000004K00000000000001524006511022015134625N000000000000U81       000030400K 10000000010000001511           
CUS0475800000104136408004         HIEBLER CHARLES H,JR8353 HILLENDALE RD                      000N        CARE OF             
