FHDNNNN042008618008618008618N                                                                                           026179
RHD08607900NN01350135000001350000000001350135000136NY013501350135000900010000000000000000000002    11102014NY020000 N         
CUS0860790000108445813002         HILL, JOSEPHINE     4110 BRAD JACOB CT                      000N        CARE OF             
MTR08607900001000000000000000RA              75614478    005800010000000100000350000003NN  NNW 000                       N    
RDG08607900WATRL000000004K00000000000000118000111282014122339N000400000010N23       000000400K 10000000010000000110           
CUS0860790000108445814000         MARIE G BAUTISTA    4112 BRAD JACOB CT                      000N        CARE OF             
MTR08607900001000000000000000RA              30001782    007500020000000200000570000003NN  NNW 000                       N    
RDG08607900WATRL000000004K00000000000000384000211282014122344N000000000000N23       000050400K 10000000010000000310           
CUS0860790000108373541005         JAMES JOHN CHRISTOPH2 JOLIE CT                              000N        CARE OF             
MTR08607900001000000000000000RA              32177594    005800030000000300000520000003NN  NNW 000                       N    
RDG08607900WATRL000000004K00000000000003880000311282014122709N000000000000N23       002050400K 10000000010000003880           
CUS0860790000108373542003         DEJESUS FELIPE,JR   4 JOLIE CT                              000N        CARE OF             
MTR08607900001000000000000000RA              31586059    005800040000000400000520000003NN  NNW 000                       N    
RDG08607900WATRL000000004K00000000000008353000411282014122743N000400000020N23       000340400K 10000000010000008340           
CUS0860790000108369736007         BROWN JAMES L       6 JOLIE CT                              000N        CARE OF             
MTR08607900001000000000000000RA              31583496    005800050000000500000520000003NN  NNW 000                       N    
RDG08607900WATRL000000004K00000000000003439000511282014122818N000000000000N23       000350400K 10000000010000003371           
CUS0860790000108373543001         WILLIAMSON ROBERT   8 JOLIE CT                              000N        CARE OF             
MTR08607900001000000000000000RA              31582307    005800060000000600000520000003NN  NNW 000                       N    
RDG08607900WATRL000000004K00000000000003305000611282014122843N000000000000N23       000250400K 10000000010000003220           
CUS0860790000108373544009         HARDEN RICHARD J    10 JOLIE CT                             000N        CARE OF             
MTR08607900001000000000000000RA              31582305    005800070000000700000520000003NN  NNW 000                       N    
RDG08607900WATRL000000004K00000000000003958000711282014122915N000000000000N23       000320400K 10000000010000003943           
CUS0860790000108373545006         RANDALL WILLIAM R   12 JOLIE CT                             000N        CARE OF             
MTR08607900001000000000000000RA              31583193    005800080000000800000520000003NN  NNW 000                       N    
RDG08607900WATRL000000004K00000000000003726000811282014122951N000400000010N23       000360400K 10000000010000003710           
CUS0860790000108373546004         LAWRENCE M WILLIAMS 14 JOLIE CT                             000N        CARE OF             
MTR08607900001000000000000000RA              31583195    005800090000000900000520000003NN  NNW 000                       N    
RDG08607900WATRL000000004K00000000000003058000911282014123021N000000000000N23       000300400K 10000000010000003048           
CUS0860790000108373547002         WILLIAMS FRED LEE,3R16 JOLIE CT                             000N        CARE OF             
MTR08607900001000000000000000RA              31583197    005800100000001000000520000003NN  NNW 000                       N    
RDG08607900WATRL000000004K00000000000002478001011282014123057N000000000000N23       000360400K 10000000010000002467           
CUS0860790000108373548000         FILSAIME RICHARD    18 JOLIE CT                             000N        CARE OF             
MTR08607900001000000000000000RA              52769912    005800110000001100000520000003NN  NNW 000                       N    
RDG08607900WATRL000000004K00000000000002837001311282014123157N000000000000N23       000270400K 10000000010000002816           
CUS0860790000108373549008         MAXINE V TATUM      20 JOLIE CT                             000N        CARE OF             
MTR08607900001000000000000000RA              48584548    005800120000001200000520000003NN  NNW 000                       N    
RDG08607900WATRL000000004K00000000000001804001111282014123123N000000000000N23       000260400K 10000000010000001800           
CUS0860790000108373550006         DOHERTY KEVIN H     22 JOLIE CT                             000N        CARE OF             
MTR08607900001000000000000000RA              31583145    005800130000001300000520000003NN  NNW 000                       N    
RDG08607900WATRL000000004K00000000000005376001211282014123130N000000000010N23       000070400K 10000000010000005333           
CUS0860790000108373551004         ROSALIND ROSCOE     24 JOLIE CT                             000N        CARE OF             
MTR08607900001000000000000000RA              50480332    005800140000001400000520000003NN  NNW 000                       N    
RDG08607900WATRL000000004K00000000000002076001411282014123237N000000000000N23       000400400K 10000000010000002061           
CUS0860790000108373552002         BYRDSONG CHARLES E  21 JOLIE CT                             000N        CARE OF             
MTR08607900001000000000000000RA              44179441    005800150000001500000520000003NN  NNW 000                       N    
RDG08607900WATRL000000004K00000000000002509001511282014123321N000000000001N23       000050400K 10000000010000002481           
CUS0860790000108373559007         JEAN A WILSON       19 JOLIE CT                             000N        CARE OF             
MTR08607900001000000000000000RA              31583189    005800160000001600000520000003NN  NNW 000                       N    
RDG08607900WATRL000000004K00000000000007041001611282014123342N000000000000N23       000210400K 10000000010000007038           
CUS0860790000108373553000         ELFREDA E GRANT     17 JOLIE CT                             000N        CARE OF             
MTR08607900001000000000000000RA              31583148    005800170000001700000520000003NN  NNW 000                       N    
RDG08607900WATRL000000004K00000000000002595001711282014123344N000000000000N23       000020400K 10000000010000002584           
CUS0860790000108373561003         DOTSON LEHRMAN W,JR 15 JOLIE CT                             000N        CARE OF             
MTR08607900001000000000000000RA              31583149    005800180000001800000520000003NN  NNW 000                       N    
RDG08607900WATRL000000004K00000000000003678001811282014123402N000000000000N23       000180400K 10000000010000003650           
CUS0860790000108373560005         ZHEN LIN LIU        13 JOLIE CT                             000N        CARE OF             
MTR08607900001000000000000000RA              31583188    005800190000001900000520000003NN  NNW 000                       N    
RDG08607900WATRL000000004K00000000000003079001911282014123404N000000000000N23       000020400K 10000000010000003077           
CUS0860790000108373558009         NGUGI JANE W        11 JOLIE CT                             000N        CARE OF             
MTR08607900001000000000000000RA              01070546    005800200000002000000610000003NN  NNW 000                       N    
RDG08607900WATRL000000004K00000000000001424002011282014123435N000000000000N23       000310400K 10000000010000001217           
CUS0860790000108373557001         YEE TING TUNG       9 JOLIE CT                              000N        CARE OF             
MTR08607900001000000000000000RA              32177006    005800210000002100000520000003NN  NNW 000                       N    
RDG08607900WATRL000000004K00000000000005013002111282014123506N000000000000N23       000310400K 10000000010000005000           
CUS0860790000108373556003         JONES KEVIN         7 JOLIE CT                              000N        CARE OF             
MTR08607900001000000000000000RA              99188244    005800220000002200000570000003NN  NNW 000                       N    
RDG08607900WATRL000000004K00000000000001062002211282014123534N000000000000N23       000280400K 10000000010000001045           
CUS0860790000108373555005         ABDELKAREM GIHAD/MEL5 JOLIE CT                              000N        CARE OF             
MTR08607900001000000000000000RA              31583190    005800230000002300000520000003NN  NNW 000                       N    
RDG08607900WATRL000000004K00000000000002031002311282014123618N000000000000N23       000440400K 10000000010000002024           
CUS0860790000108373554008         PRISCILLA E ROBINSON3 JOLIE CT                              000N        CARE OF             
MTR08607900001000000000000000RA              31583146    005800240000002400000520000003NN  NNW 000                       N    
RDG08607900WATRL000000004K00000000000002686002411282014123625N000000000000N23       000070400K 10000000010000002665           
CUS0860790000108360254000         3 PERCENT , LLC     8559 WINANDS RD                         000N        CARE OF             
MTR08607900001000000000000000RA              30513179    005800250000002500000520000003NN  NNW 000                       N    
RDG08607900WATRL000000004K00000000000003404002511282014123715N000000000000N23       000500400K 10000000010000003387           
CUS0860790000108360253002         TAYLOR DAVID        8557 WINANDS RD                         000N        CARE OF             
MTR08607900001000000000000000RA              01100185    005800260000002600000610000003NN  NNW 000                       N    
RDG08607900WATRL000000004K00000000000000688002611282014123748N000000000000N23       000330400K 10000000010000000672           
CUS0860790000108373562001         WILSON MICHAEL      8555 WINANDS RD                         000N        CARE OF             
MTR08607900001000000000000000RA              35106231    005800270000002700000520000003NN  NNW 000                       N    
RDG08607900WATRL000000004K00000000000003771002711282014123821N000000000000N23       000330400K 10000000010000003752           
CUS0860790000108387926002         PARKER ROBERT L     8549 WINANDS RD                         000N        CARE OF             
MTR08607900001000000000000000RA              35118486    005800280000002800000520000003NN  NNW 000                       N    
RDG08607900WATRL000000004K00000000000001509002811282014123922N000000000000N23       000610400K 10000000010000001497           
CUS0860790000108387927000         KENNETH O NWAJOKU   8547 WINANDS RD                         000N        CARE OF             
MTR08607900001000000000000000RA              35118482    005800290000002900000520000003NN  NNW 000                       N    
RDG08607900WATRL000000004K00000000000003098002911282014124009N000000000000N23       000470400K 10000000010000003077           
CUS0860790000108360035003         SMITH CHARLES T     8545 WINANDS RD                         000N        CARE OF             
MTR08607900001000000000000000RA              99999999    005800300000003000000610000003NN  NNW 000                       N    
RDG08607900WATRL000000004K00000000000001056003011282014124115N000000000000N23       000660400K 10000000010000001049           
CUS0860790000108360034006         YASKOWITZ LARUE J   8543 WINANDS RD                         000N        CARE OF             
MTR08607900001000000000000000RA              75617871    005800310000003100000350000003NN  NNW 000                       N    
RDG08607900WATRL000000004K00000000000000028003111282014124145N000000000000N23       000300400K 10000000010000000021           
CUS0860790000108373533002         STARKS LARRY        8402 LUCERNE RD                         000N        CARE OF             
MTR08607900001000000000000000RA              01070134    005800320000003200000610000003NN  NNW 000                       N    
RDG08607900WATRL000000004K00000000000000648003211282014124318N000000000000N23       000930400K 10000000010000000636           
CUS0860790000108373534000         LUI HOI-SHAN        8404 LUCERNE RD                         000N        CARE OF             
MTR08607900001000000000000000RA              45384878    005800330000003300000520000003NN  NNW 000                       N    
RDG08607900WATRL000000004K00000000000001406003311282014124350N000400000010N23       000320400K 10000000010000001402           
CUS0860790000108373535007         JONES KENNETH       8406 LUCERNE RD                         000N        CARE OF             
MTR08607900001000000000000000RA              76348643    005800340000003400000350000003NN  NNW 000                       N    
RDG08607900WATRL000000004K00000000000000036003811282014124708N000000000000N23       000320400K 10000000010000000023           
CUS0860790000108373536005         DORSEY DWAYNE A     8408 LUCERNE RD                         000N        CARE OF             
MTR08607900001000000000000000RA              14905498    005800350000003500000310000003NN  NNW 000                       N    
RDG08607900WATRL000000004K00000000000000705003911282014124711N000000000000N23       000030400K 10000000010000000692           
CUS0860790000108373537003         JENNINGS SAMUEL T   8410 LUCERNE RD                         000N        CARE OF             
MTR08607900001000000000000000RA              00128507    005800360000003600000570000003NN  NNW 000                       N    
RDG08607900WATRL000000004K00000000000000607003411282014124516N000000000000N23       000860400K 10000000010000000599           
CUS0860790000108373538001         NEWTON HOWARD PAYNE 8412 LUCERNE RD                         000N        CARE OF             
MTR08607900001000000000000000RA              01075593    005800370000003700000610000003NN  NNW 000                       N    
RDG08607900WATRL000000004K00000000000001224003511282014124522N000000000000N23       000060400K 10000000010000001206           
CUS0860790000108373539009         LATNEY TRINA M      8414 LUCERNE RD                         000N        CARE OF             
MTR08607900001000000000000000RA              50479022    005800380000003800000520000003NN  NNW 000                       N    
RDG08607900WATRL000000004K00000000000001756003611282014124807N000000000011N23       000150400K 10000000010000001738           
CUS0860790000108373509002         LIN WEI EN          8416 LUCERNE RD                         000N        CARE OF             
MTR08607900001000000000000000RA              32573093    005800390000003900000520000003NN  NNW 000                       N    
RDG08607900WATRL000000004K00000000000003679003711282014124852N000000000043N23       000450400K 10000000010000003662           
CUS0860790000108373490005         ERWIN SHIRLEY R     3930 TEVIS CIR                          000N        CARE OF             
MTR08607900001000000000000000RA              35106267    005800400000004000000520000003NN  NNW 000                       N    
RDG08607900WATRL000000004K00000000000002895004011282014124946N000000000000N23       000540400K 10000000010000002873           
CUS0860790000108373491003         ARMSTRONG CLAUDIA   3928 TEVIS CIR                          000N        CARE OF             
MTR08607900001000000000000000RA              36696880    005800410000004100000520000003NN  NNW 000                       N    
RDG08607900WATRL000000004K00000000000002826004111282014125024N000000000000N23       000380400K 10000000010000002819           
CUS0860790000108373492001         BURTON ROSETTA S    3926 TEVIS CIR                          000N        CARE OF             
MTR08607900001000000000000000RA              32573102    005800420000004200000520000003NN  NNW 000                       N    
RDG08607900WATRL000000004K00000000000004186004211282014125109N000000000010N23       000450400K 10000000010000004152           
CUS0860790000108373493009         DAVIS ADELAIDE      3924 TEVIS CIR                          000N        CARE OF             
MTR08607900001000000000000000RA              35106266    005800430000004300000520000003NN  NNW 000                       N    
RDG08607900WATRL000000004K00000000000003805004311282014125138N000000000000N23       000290400K 10000000010000003782           
CUS0860790000108373494007         WEST BERNARD J,SR   3922 TEVIS CIR                          000N        CARE OF             
MTR08607900001000000000000000RA              33734683    005800440000004400000520000003NN  NNW 000                       N    
RDG08607900WATRL000000004K00000000000003594004411282014125204N000400000010N23       000260400K 10000000010000003586           
CUS0860790000108365031007         BLUE ERNEST         3920 TEVIS CIR                          000N        CARE OF             
MTR08607900001000000000000000RA              30521846    005800450000004500000520000003NN  NNW 000                       N    
RDG08607900WATRL000000004K00000000000003876004511282014125235N000000000000N23       000310400K 10000000010000003856           
CUS0860790000108373495004         PERRY CEDRIC B      3918 TEVIS CIR                          000N        CARE OF             
MTR08607900001000000000000000RA              35106268    005800460000004600000520000003NN  NNW 000                       N    
RDG08607900WATRL000000004K00000000000003346004611282014125310N000000000000N23       000350400K 10000000010000003323           
CUS0860790000108373484008         SLAUGHTER ANTHONY R 3916 TEVIS CIR                          000N        CARE OF             
MTR08607900001000000000000000RA              01108595    005800470000004700000610000003NN  NNW 000                       N    
RDG08607900WATRL000000004K00000000000001358004711282014125340N000000000000N23       000300400K 10000000010000001335           
CUS0860790000108373483000         MICHEL BERNADETTE E 3914 TEVIS CIR                          000N        CARE OF             
MTR08607900001000000000000000RA              32771793    005800480000004800000520000003NN  NNW 000                       N    
RDG08607900WATRL000000004K00000000000004964004811282014125423N000000000000N23       000430400K 10000000010000004917           
CUS0860790000108373482002         MERVIS MARVIN P     3912 TEVIS CIR                          000N        CARE OF             
MTR08607900001000000000000000RA              14923196    005800490000004900000310000003NN  NNW 000                       N    
RDG08607900WATRL000000004K00000000000000579004911282014125518N000000000000N23       000550400K 10000000010000000571           
CUS0860790000108373481004         MCGOWENS GILBERT H  3910 TEVIS CIR                          000N        CARE OF             
MTR08607900001000000000000000RA              01083723    005800500000005000000610000003NN  NNW 000                       N    
RDG08607900WATRL000000004K00000000000001253005011282014125554N000300000010N23       000360400K 10000000010000001243           
CUS0860790000108365030009         FRIESORGER DAVID JOS3908 TEVIS CIR                          000N        CARE OF             
MTR08607900001000000000000000RA              50479935    005800510000005100000520000003NN  NNW 000                       N    
RDG08607900WATRL000000004K00000000000001693005111282014125635N000000000000N23       000410400K 10000000010000001683           
CUS0860790000108373480006         KWAN HENRY KAM YUEN 3906 TEVIS CIR                          000N        CARE OF             
MTR08607900001000000000000000RA              01084545    005800520000005200000610000003NN  NNW 000                       N    
RDG08607900WATRL000000004K00000000000001053005211282014125719N000000000000N23       000440400K 10000000010000001021           
CUS0860790000108373479008         INGRAM ANTHONY      3904 TEVIS CIR                          000N        CARE OF             
MTR08607900001000000000000000RA              01102952    005800530000005300000610000003NN  NNW 000                       N    
RDG08607900WATRL000000004K00000000000000750005311282014125749N000000000000N23       000300400K 10000000010000000738           
CUS0860790000108373478000         KUTCH IRIS C        3902 TEVIS CIR                          000N        CARE OF             
MTR08607900001000000000000000RA              01102997    005800540000005400000610000003NN  NNW 000                       N    
RDG08607900WATRL000000004K00000000000001188005412032014151200O000400000010N80       000320400K 10000000010000001187           
CUS0860790000108373485005         BRADLEY MARGARITE T 3907 TEVIS CIR                          000N        CARE OF             
MTR08607900001000000000000000RA              33080107    005800550000005500000520000003NN  NNW 000                       N    
RDG08607900WATRL000000004K00000000000002885005511282014125859N000000000000N23       000380400K 10000000010000002875           
CUS0860790000108373486003         MAYBIN ALBERT       3911 TEVIS CIR                          000N        CARE OF             
MTR08607900001000000000000000RA              14906551    005800560000005600000310000003NN  NNW 000                       N    
RDG08607900WATRL000000004K00000000000000840005612032014151238O000000000010N80       000430400K 10000000010000000829           
CUS0860790000108373487001         ALREEN DAY L ALFONSO3913 TEVIS CIR                          000N        CARE OF             
MTR08607900001000000000000000RA              36694014    005800570000005700000520000003NN  NNW 000                       N    
RDG08607900WATRL000000004K00000000000002037005711282014130021N000000000000N23       000390400K 10000000010000002023           
CUS0860790000108373488009         GLENN MICHAEL AUGUST3915 TEVIS CIR                          000N        CARE OF             
MTR08607900001000000000000000RA              36691465    005800580000005800000520000003NN  NNW 000                       N    
RDG08607900WATRL000000004K00000000000003648005811282014130059N000000000000N23       000380400K 10000000010000003637           
CUS0860790000108373489007         JOHNSON-NICHOLAS LYN3917 TEVIS CIR                          000N        CARE OF             
MTR08607900001000000000000000RA              35108595    005800590000005900000520000003NN  NNW 000                       N    
RDG08607900WATRL000000004K00000000000005004005911282014130128N000400000010N23       000290400K 10000000010000004987           
CUS0860790000108373496002         SPEIKES MYERS A     3919 TEVIS CIR                          000N        CARE OF             
MTR08607900001000000000000000RA              10022483    005800600000006000000570000003NN  NNW 000                       N    
RDG08607900WATRL000000004K00000000000000209006011282014130222N000000000000N23       000540400K 10000000010000000198           
CUS0860790000108365032005         LAMOUR THIERRY      3927 TEVIS CIR                          000N        CARE OF             
MTR08607900001000000000000000RA              30521843    005800610000006100000520000003NN  NNW 000                       N    
RDG08607900WATRL000000004K00000000000003490006111282014130307N000000000000N23       000450400K 10000000010000003472           
CUS0860790000108373510000         CHACKO MATHEW V     8418 LUCERNE RD                         000N        CARE OF             
MTR08607900001000000000000000RA              14923946    005800620000006200000310000003NN  NNW 000                       N    
RDG08607900WATRL000000004K00000000000000627006211282014130532N000000000000N23       001450400K 10000000010000000615           
CUS0860790000108373511008         WILLIAMS, CARLOS    8420 LUCERNE RD                         000N        CARE OF             
MTR08607900001000000000000000RA              33734681    005800630000006300000520000003NN  NNW 000                       N    
RDG08607900WATRL000000004K00000000000004578006311282014130550N000000000000N23       000180400K 10000000010000004563           
CUS0860790000108373512006         IMES KELLY V        8422 LUCERNE RD                         000N        CARE OF             
MTR08607900001000000000000000RA              14901163    005800640000006400000310000003NN  NNW 000                       N    
RDG08607900WATRL000000004K00000000000000681006411282014130620N000000000000N23       000300400K 10000000010000000677           
CUS0860790000108373513004         JOSEPH A OKE        8424 LUCERNE RD                         000N        CARE OF             
MTR08607900001000000000000000RA              35117474    005800650000006500000520000003NN  NNW 000                       N    
RDG08607900WATRL000000004K00000000000001802006511282014130651N000000000000N23       000310400K 10000000010000001770           
CUS0860790000108373500001         ROSE ELVIS J        8426 LUCERNE RD                         000N        CARE OF             
MTR08607900001000000000000000RA              36689681    005800660000006600000520000003NN  NNW 000                       N    
RDG08607900WATRL000000004K00000000000002024006611282014130722N000000000000N23       000310400K 10000000010000002011           
CUS0860790000108373501009         ABLAKWA SAMUEL      8428 LUCERNE RD                         000N        CARE OF             
MTR08607900001000000000000000RA              36689680    005800670000006700000520000003NN  NNW 000                       N    
RDG08607900WATRL000000004K00000000000002981006711282014130802N000000000000N23       000400400K 10000000010000002960           
CUS0860790000108373502007         CHAN XIC TONG       8430 LUCERNE RD                         000N        CARE OF             
MTR08607900001000000000000000RA              32573429    005800680000006800000520000003NN  NNW 000                       N    
RDG08607900WATRL000000004K00000000000003501006811282014130834N000000000000N23       000320400K 10000000010000003484           
CUS0860790000108373503005         FORD SUSANA R       8432 LUCERNE RD                         000N        CARE OF             
MTR08607900001000000000000000RA              52290243    005800690000006900000520000003NN  NNW 000                       N    
RDG08607900WATRL000000004K00000000000001333006911282014131049N000000000000N23       001350400K 10000000010000001323           
CUS0860790000108373504003         MATTHEWS ALICIA J   8434 LUCERNE RD                         000N        CARE OF             
MTR08607900001000000000000000RA              35106234    005800700000007000000520000003NN  NNW 000                       N    
RDG08607900WATRL000000004K00000000000003391007011282014131519N000000000000N23       002700400K 10000000010000003383           
CUS0860790000108442726009         STEVEN, NELSON      8435 LUCERNE RD                         000N        CARE OF             
MTR08607900001000000000000000RA              14929644    005800710000007100000310000003NN  NNW 000                       N    
RDG08607900WATRL000000004K00000000000000520007111282014131536N000000000000N23       000170400K 10000000010000000501           
CUS0860790000108373499006         MAIDEN BERNARD THOMA8433 LUCERNE RD                         000N        CARE OF             
MTR08607900001000000000000000RA              36697320    005800720000007200000520000003NN  NNW 000                       N    
RDG08607900WATRL000000004K00000000000002437007211282014131707N000000000000N23       000910400K 10000000010000002417           
CUS0860790000108373498008         MILLER MICHAEL K    8431 LUCERNE RD                         000N        CARE OF             
MTR08607900001000000000000000RA              01083151    005800730000007300000610000003NN  NNW 000                       N    
RDG08607900WATRL000000004K00000000000001388007311282014131737N000000000010N23       000300400K 10000000010000001361           
CUS0860790000108373497000         DAVIS LINDA Y       8429 LUCERNE RD                         000N        CARE OF             
MTR08607900001000000000000000RA              10023545    005800740000007400000570000003NN  NNW 000                       N    
RDG08607900WATRL000000004K00000000000000614007411282014131806N000000000000N23       000290400K 10000000010000000604           
CUS0860790000108373529000         JOHNSON RUTH ANN    8417 HORATIO RD                         000N        CARE OF             
MTR08607900001000000000000000RA              35108629    005800750000007500000520000003NN  NNW 000                       N    
RDG08607900WATRL000000004K00000000000003802007511282014131856N000000000000N23       000500400K 10000000010000003786           
CUS0860790000108373528002         MACKLIN HAROLD A    8415 HORATIO RD                         000N        CARE OF             
MTR08607900001000000000000000RA              46887835    005800760000007600000520000003NN  NNW 000                       N    
RDG08607900WATRL000000004K00000000000002305007611282014131926N000000000000N23       000300400K 10000000010000002279           
CUS0860790000108373527004         PENELOPE DENNIS     8413 HORATIO RD                         000N        CARE OF             
MTR08607900001000000000000000RA              35108628    005800770000007700000520000003NN  NNW 000                       N    
RDG08607900WATRL000000004K00000000000002547007711282014131953N000000000000N23       000270400K 10000000010000002528           
CUS0860790000108373526006         ARTIS JAMES WATSON J8411 HORATIO RD                         000N        CARE OF             
MTR08607900001000000000000000RA              36689452    005800780000007800000520000003NN  NNW 000                       N    
RDG08607900WATRL000000004K00000000000004188007811282014132025N000400000010N23       000320400K 10000000010000004163           
CUS0860790000108373525008         HICKS LARRY         8409 HORATIO RD                         000N        CARE OF             
MTR08607900001000000000000000RA              14906577    005800790000007900000310000003NN  NNW 000                       N    
RDG08607900WATRL000000004K00000000000001560007911282014132241N000000000000N23       001360400K 10000000010000001543           
CUS0860790000108373524001         ANTHONY ANGELINA M  8405 HORATIO RD                         000N        CARE OF             
MTR08607900001000000000000000RA              50786477    005800800000008000000520000003NN  NNW 000                       N    
RDG08607900WATRL000000004K00000000000002579008011282014132333N000000000010N23       000520400K 10000000010000002557           
CUS0860790000108373523003         KOMEHEKE, GODFREY   8403 HORATIO RD                         000N        CARE OF             
MTR08607900001000000000000000RA              75618119    005800810000008100000350000003NN  NNW 000                       N    
RDG08607900WATRL000000004K00000000000000092008111282014132401N000000000000N23       000280400K 10000000010000000072           
CUS0860790000108373522005         GRIFFIN ROXANNE     8401 HORATIO RD                         000N        CARE OF             
MTR08607900001000000000000000RA              10022666    005800820000008200000570000003NN  NNW 000                       N    
RDG08607900WATRL000000004K00000000000000100008211282014132433N000000000000N23       000320400K 10000000010000000088           
CUS0860790000108373514002         DOLORES EVANS       8533 WINANDS RD                         000N        CARE OF             
MTR08607900001000000000000000RA              35107493    005800830000008300000520000003NN  NNW 000                       N    
RDG08607900WATRL000000004K00000000000002714008311282014132529N000000000000N23       000560400K 10000000010000002673           
CUS0860790000108373515009         FREDA CRUMP         8402 HORATIO RD                         000N        CARE OF             
MTR08607900001000000000000000RA              14912785    005800840000008400000310000003NN  NNW 000                       N    
RDG08607900WATRL000000004K00000000000000919008411282014132610N000000000000N23       000410400K 10000000010000000902           
CUS0860790000108373516007         OSEI-AGYEMANG ROBERT8404 HORATIO RD                         000N        CARE OF             
MTR08607900001000000000000000RA              36689477    005800850000008500000520000003NN  NNW 000                       N    
RDG08607900WATRL000000004K00000000000002206008511282014132644N000400000010N23       000340400K 10000000010000002203           
CUS0860790000108373517005         SHERRIE L DAVIS     8406 HORATIO RD                         000N        CARE OF             
MTR08607900001000000000000000RA              01088197    005800860000008600000610000003NN  NNW 000                       N    
RDG08607900WATRL000000004K00000000000000751008611282014132804N000000000000N23       000800400K 10000000010000000732           
CUS0860790000108373518003         JOHNSON BERNICE     8410 HORATIO RD                         000N        CARE OF             
MTR08607900001000000000000000RA              48594858    005800870000008700000520000003NN  NNW 000                       N    
RDG08607900WATRL000000004K00000000000001709008711282014132845N000000000000N23       000410400K 10000000010000001696           
CUS0860790000108373519001         C OSCAR PAJARES     8412 HORATIO RD                         000N        CARE OF             
MTR08607900001000000000000000RA              44175520    005800880000008800000520000003NN  NNW 000                       N    
RDG08607900WATRL000000004K00000000000002995008811282014132940N000000000000N23       000550400K 10000000010000002963           
CUS0860790000108373520009         WIGGINS KENDRICK L  8414 HORATIO RD                         000N        CARE OF             
MTR08607900001000000000000000RA              36691168    005800890000008900000520000003NN  NNW 000                       N    
RDG08607900WATRL000000004K00000000000002939008911282014132952N000000000000N23       000120400K 10000000010000002922           
CUS0860790000108373521007         SJOLANDER JOHN G    8416 HORATIO RD                         000N        CARE OF             
MTR08607900001000000000000000RA              36689450    005800900000009000000520000003NN  NNW 000                       N    
RDG08607900WATRL000000004K00000000000002159009011282014133027N000000000000N23       000350400K 10000000010000002149           
CUS0860790000108373540007         CHARLES L MAURA     8417 LUCERNE RD                         000N        CARE OF             
MTR08607900001000000000000000RA              35106269    005800910000009100000520000003NN  NNW 000                       N    
RDG08607900WATRL000000004K00000000000003057009111282014133106N000000000000N23       000390400K 10000000010000003045           
CUS0860790000108373508004         BYRD TIMOTHY E      8415 LUCERNE RD                         000N        CARE OF             
MTR08607900001000000000000000RA              14901171    005800920000009200000310000003NN  NNW 000                       N    
RDG08607900WATRL000000004K00000000000001293009211282014133213N000000000000N23       000670400K 10000000010000001285           
CUS0860790000108373507006         DAVIS, PAUL L       8413 LUCERNE RD                         000N        CARE OF             
MTR08607900001000000000000000RA              36694186    005800930000009300000520000003NN  NNW 000                       N    
RDG08607900WATRL000000004K00000000000002442009311282014133241N000000000000N23       000280400K 10000000010000002421           
CUS0860790000108373506008         MATTHEWS WILLIAM J  8411 LUCERNE RD                         000N        CARE OF             
MTR08607900001000000000000000RA              10022337    005800940000009400000570000003NN  NNW 000                       N    
RDG08607900WATRL000000004K00000000000000158009411282014133330N000000000000N23       000490400K 10000000010000000147           
CUS0860790000108373505000         KNOX DENNIS L       8409 LUCERNE RD                         000N        CARE OF             
MTR08607900001000000000000000RA              01070533    005800950000009500000610000003NN  NNW 000                       N    
RDG08607900WATRL000000004K00000000000001029009511282014133410N000000000011N23       000070400K 10000000010000001020           
CUS0860790000108373532004         MILTON BRENDA       8407 LUCERNE RD                         000N        CARE OF             
MTR08607900001000000000000000RA              75422679    005800960000009600000350000003NN  NNW 000                       N    
RDG08607900WATRL000000004K00000000000000106009611282014133459N000000000000N23       000490400K 10000000010000000097           
CUS0860790000108373531006         DIANA ROBESON       8405 LUCERNE RD                         000N        CARE OF             
MTR08607900001000000000000000RA              14930717    005800970000009700000310000003NN  NNW 000                       N    
RDG08607900WATRL000000004K00000000000000315009711282014133543N000000000000N23       000440400K 10000000010000000307           
CUS0860790000108373530008         BAI LIANG LEE       8403 LUCERNE RD                         000N        CARE OF             
MTR08607900001000000000000000RA              36694237    005800980000009800000520000003NN  NNW 000                       N    
RDG08607900WATRL000000004K00000000000002666009811282014133702N000000000000N23       000790400K 10000000010000002655           
CUS0860790000108368386002         MASON-MILLER SHEILA 8539 WINANDS RD                         000N        CARE OF             
MTR08607900001000000000000000RA              75424876    005800990000009900000350000003NN  NNW 000                       N    
RDG08607900WATRL000000004K00000000000000268010011282014133923N000000000000N23       000440400K 10000000010000000242           
CUS0860790000108373477002         VENDREYS NERINE A   8537 WINANDS RD                         000N        CARE OF             
MTR08607900001000000000000000RA              33734693    005801000000010000000520000003NN  NNW 000                       N    
RDG08607900WATRL000000004K00000000000003915009911282014133839N000000000000N23       000970400K 10000000010000003876           
CUS0860790000108382091000         REID TYRONE A       8535 WINANDS RD                         000N        CARE OF             
MTR08607900001000000000000000RA              33734684    005801010000010100000520000003NN  NNW 000                       N    
RDG08607900WATRL000000004K00000000000003840010111282014134037N000000000000N23       000740400K 10000000010000003819           
CUS0860790000108035676009         CLARK MICHAEL R     8527 WINANDS RD                         000N        CARE OF             
MTR08607900001000000000000000RA              9987226     005801020000010200000570000003NN  NNW 000                       N    
RDG08607900WATRL000000004K00000000000003980000112012014090419N000000000000U23       000000400K 10000000010000003974           
CUS0860790000108035675001         DENNIS JOHNSON JR   8525 WINANDS RD                         000N        CARE OF             
MTR08607900001000000000000000RA              9684021     005801030000010300000570000003NN  NNW 000                       N    
RDG08607900WATRL000000004K00000000000003720000212012014090501N000000000000U23       000420400K 10000000010000003701           
CUS0860790000108035677007         PHYLLIS WILLIAMS    4806 VALLEY FORGE RD                    000N        CARE OF             
MTR08607900001000000000000000RA              10024694    005801040000010400000570000003NN  NNW 000                       N    
RDG08607900WATRL000000004K00000000000000097001712012014095902N000000000000U23       002390400K 10000000010000000089           
CUS0860790000108434377001         JACKIE G.CARTER-MILT4814 VALLEY FORGE RD                    000N        CARE OF             
MTR08607900001000000000000000RA              75617672    005801050000010500000350000003NN  NNW 000                       N    
RDG08607900WATRL000000004K00000000000000309001812012014100009N000000000000U23       000670400K 10000000010000000266           
CUS0860790000108035678005         CHAMBERS MILTON,JR  4816 VALLEY FORGE RD                    000N        CARE OF             
MTR08607900001000000000000000RA              75617578    005801060000010600000350000003NN  NNW 000                       N    
RDG08607900WATRL000000004K00000000000000199001912012014100106N000000000000U23       000570400K 10000000010000000162           
CUS0860790000108035679003         HENRIETTA BURGESS   4820 VALLEY FORGE RD                    000N        CARE OF             
MTR08607900001000000000000000RA              14904427    005801070000010700000310000003NN  NNW 000                       N    
RDG08607900WATRL000000004K00000000000001143002012012014100212N000000000000U23       000660400K 10000000010000001117           
CUS0860790000108035680001         SMITH OSCAR O       4824 VALLEY FORGE RD                    000N        CARE OF             
MTR08607900001000000000000000RA              23059471    005801080000010800000520000003NN  NNW 000                       N    
RDG08607900WATRL000000004K00000000000003519002112012014100248N000400000010U23       000360400K 10000000010000003506           
CUS0860790000108035681009         CHRISTIAN LINDA R   4828 VALLEY FORGE RD                    000N        CARE OF             
MTR08607900001000000000000000RA              32178367    005801090000010900000520000003NN  NNW 000                       N    
RDG08607900WATRL000000004K00000000000002011002212012014100409N000000000000U23       000810400K 10000000010000002000           
CUS0860790000108374650003         DORSEY BERNICE D    4834 VALLEY FORGE RD                    000N        CARE OF             
MTR08607900001000000000000000RA              35118120    005801100000011000000520000003NN  NNW 000                       N    
RDG08607900WATRL000000004K00000000000001920002312012014100515N000000000000U23       000660400K 10000000010000001914           
CUS0860790000108035682007         CARPENTER LISA      4825 VALLEY FORGE RD                    000N        CARE OF             
MTR08607900001000000000000000RA              76346813    005801110000011100000350000003NN  NNW 000                       N    
RDG08607900WATRL000000004K00000000000000004002412012014100643N000000000010U23       000880400K 10000000010000000000           
CUS0860790000108035683005         IRENE H COSTLEY     4821 VALLEY FORGE RD                    000N        CARE OF             
MTR08607900001000000000000000RA              01101059    005801120000011200000610000003NN  NNW 000                       N    
RDG08607900WATRL000000004K00000000000001537002512012014100810N000000000000U23       000870400K 10000000010000001418           
CUS0860790000102376947004         STRATTON DARRYL     4817 VALLEY FORGE RD                    000N        CARE OF             
MTR08607900001000000000000000RA              48596811    005801130000011300000520000003NY  NNW 000                       N    
MTM0860790048596811    caronmeter                                                                                             
RDG08607900WATRL000000004K00000000000000000000000000000000000 000000000000U         000000400  10000000010000001720           
CUS0860790000108386212008         RAMOS JUAN JOSE  ROD4815 VALLEY FORGE RD                    000N        CARE OF             
MTR08607900001000000000000000RA              50479112    005801140000011400000520000003NY  NNW 000                       N    
MTM0860790050479112    caronmeter                                                                                             
RDG08607900WATRL000000004K00000000000000000000000000000000000 000000000000U         000000400  10000000010000002066           
CUS0860790000108035685000         OWENS JAMES R       4813 VALLEY FORGE RD                    000N        CARE OF             
MTR08607900001000000000000000RA              75616053    005801150000011500000350000003NY  NNW 000                       N    
MTM0860790075616053    caronmeter                                                                                             
RDG08607900WATRL000000004K00000000000000000000000000000000000 000000000000U         000000400  10000000010000000010           
CUS0860790000108035686008         CURRY JOHANNA       4811 VALLEY FORGE RD                    000N        CARE OF             
MTR08607900001000000000000000RA              14906581    005801160000011600000310000003NY  NNW 000                       N    
MTM0860790014906581    caronmeter                                                                                             
RDG08607900WATRL000000004K00000000000000000000000000000000000 000000000000U         000000400  10000000010000000925           
CUS0860790000108035684003         RYAN JOHN B,JR      4807 VALLEY FORGE RD                    000N        CARE OF             
MTR08607900001000000000000000RA              54348353    005801170000011700000520000003NY  NNW 000                       N    
MTM0860790054348353    caronmeter                                                                                             
RDG08607900WATRL000000004K00000000000000000000000000000000000 000000000000U         000000400  10000000010000002186           
CUS0860790000108393555001         EGBAI SYLVESTER DAVI8521 WINANDS RD                         000N        CARE OF             
MTR08607900001000000000000000RA              00120272    007501180000011800000570000003NN  NNW 000                       N    
RDG08607900WATRL000000004K00000000000000000000000000000000000 000000000000U         000000400  10000000010000001662           
CUS0860790000108035688004         DARNELL C MCMILLAN  8513 WINANDS RD                         000N        CARE OF             
MTR08607900001000000000000000RA              14921113    005801190000011900000310000003NN  NNW 000                       N    
RDG08607900WATRL000000004K00000000000000582000312012014091845N000000000000U23       008240400K 10000000010000000570           
CUS0860790000108035689002         JOHNSON JANICE Y    8511 WINANDS RD                         000N        CARE OF             
MTR08607900001000000000000000RA              14925226    005801200000012000000310000003NN  NNW 000                       N    
RDG08607900WATRL000000004K00000000000001524000412012014092233N000000000012U23       001500400K 10000000010000001494           
CUS0860790000108035690000         GUITY ORBIL N       8509 WINANDS RD                         000N        CARE OF             
MTR08607900001000000000000000RA              48593929    005801210000012100000520000003NN  NNW 000                       N    
RDG08607900WATRL000000004K00000000000000889000512012014092336N000000000000U23       000630400K 10000000010000000868           
CUS0860790000108035691008         CONNER JAMES CLIFFORNS OAKLAND PARK RD                      000N        CARE OF             
MTR08607900001000000000000000RA              14910221    005801220000012200000310000003NN  NNW 000                       N    
RDG08607900WATRL000000004K00000000000000484000612012014092615N000000000000U23       001590400K 10000000010000000473           
CUS0860790000108445311007         CONNER LINDA ANN    4810A OAKLAND PARK RD                   000N        CARE OF             
MTR08607900001000000000000000RA              10007333    005801230000012300000570000003NN  NNW 000                       N    
RDG08607900WATRL000000004K00000000000000338000712012014092647N000000000000U23       000320400K 10000000010000000321           
CUS0860790000108035692006         MARQUIDA GILBERT    4812 OAKLAND PARK RD                    000N        CARE OF             
MTR08607900001000000000000000RA              14909907    005801240000012400000310000003NN  NNW 000                       N    
RDG08607900WATRL000000004K00000000000000336000812012014092733N000300000010U23       000460400K 10000000010000000324           
CUS0860790000108435191005         BROWN H GREGORY     4814 OAKLAND PARK RD                    000N        CARE OF             
MTR08607900001000000000000000RA              01100248    005801250000012500000610000003NN  NNW 000                       N    
RDG08607900WATRL000000004K00000000000000817000912012014092839N000000000000U23       000660400K 10000000010000000804           
CUS0860790000108035695009         BOND RONALD LEE,JR  4830 OAKLAND PARK RD                    000N        CARE OF             
MTR08607900001000000000000000RA              19461050    005801260000012600000520000003NY  NNW 000                       N    
MTM0860790019461050    cannlocate                                                                                             
RDG08607900WATRL000000004K00000000000000000000000000000000000 000000000000U         000000400  10000000010000005697           
CUS0860790000108035694002         SEAN & RICHARD MCNAL4834 OAKLAND PARK RD                    000N        CARE OF             
MTR08607900001000000000000000RA              76345757    005801270000012700000350000003NY  NNW 000                       N    
MTM0860790076345757    cantlocate                                                                                             
RDG08607900WATRL000000004K00000000000000000000000000000000000 000000000000U         000000400  10000000010000000061           
CUS0860790000108035696007         LEWIS ANDRE         4838 OAKLAND PARK RD                    000N        CARE OF             
MTR08607900001000000000000000RA              50476876    005801280000012800000520000003NN  NNW 000                       N    
RDG08607900WATRL000000004K00000000000001978001012012014093107N000000000000U23       001480400K 10000000010000001954           
CUS0860790000108035697005         LEWIS ANDRE         4902 OAKLAND PARK RD                    000N        CARE OF             
MTR08607900001000000000000000RA              99999999    005801290000012900000620000003NN  NNW 000                       N    
RDG08607900WATRL000000004K00000000000000000001112012014093128S002000000000U23       000210400K 10000000010000000065           
CUS0860790000108035698003         GREEN RUFUS         4908 OAKLAND PARK RD                    000N        CARE OF             
MTR08607900001000000000000000RA              24769252    005801300000013000000520000003NN  NNW 000                       N    
RDG08607900WATRL000000004K00000000000005363001212012014093249N000000000000U23       000810400K 10000000010000005344           
CUS0860790000108035699001         WELLS CHARLES K     4910 OAKLAND PARK RD                    000N        CARE OF             
MTR08607900001000000000000000RA              33082458    005801310000013100000520000003NY  NNW 000                       N    
MTM0860790033082458    meterburied                                                                                            
RDG08607900WATRL000000004K00000000000000000000000000000000000 000000000000U         000000400  10000000010000002353           
CUS0860790000108035671000         TICIA S. JONES      8502 WINANDS RD                         000N        CARE OF             
MTR08607900001000000000000000RA              38886055    005801320000013200000520000003NN  NNW 000                       N    
RDG08607900WATRL000000004K00000000000006372001312012014095250N000000000000U23       012010400K 10000000010000006356           
CUS0860790000108035672008         HALEY BARBARA       8504 WINANDS RD                         000N        CARE OF             
MTR08607900001000000000000000RA              9690626     005801330000013300000570000003NN  NNW 000                       N    
RDG08607900WATRL000000004K00000000000006031001412012014095337N000000000000U23       000470400K 10000000010000006021           
CUS0860790000108035673006         ANTONIO CLARKE      8506 WINANDS RD                         000N        CARE OF             
MTR08607900001000000000000000RA              52768378    005801340000013400000520000003NN  NNW 000                       N    
RDG08607900WATRL000000004K00000000000002209001512012014095426N000000000000U23       000490400K 10000000010000002191           
CUS0860790000108035674004         RHINEHART TEZERA/LIN8508 WINANDS RD                         000N        CARE OF             
MTR08607900001000000000000000RA              27831663    005801350000013500000520000003NN  NNW 000                       N    
RDG08607900WATRL000000004K00000000000004496001612012014095503N000000000000U23       000370400K 10000000010000004459           
RTR08607900NN01350135000001350000000001350135000136NY013501350135000900010000000000000000000002    11102014NY020000 N         
RHD08610200NN01820182000001820000000001820182000193NY018201820182000000000000000000000000000002    11132014NY020000 N         
CUS0861020000108037766006         MARK A WRIGHT       9223 ALLENSWOOD RD                      000N        CARE OF             
MTR08610200001000000000000000RA              01072507    005800010000000100000610000003NN  NNW 000                       N    
RDG08610200WATRL000000004K00000000000001851000111262014091343N000000000000U81       000000400K 10000000010000001832           
CUS0861020000108037767004         MCGRAW SHENEQUE S   9221 ALLENSWOOD RD                      000N        CARE OF             
MTR08610200001000000000000000RA              48582592    005800020000000200000520000003NN  NNW 000                       N    
RDG08610200WATRL000000004K00000000000001934000211262014091446N000000000000U81       000630400K 10000000010000001914           
CUS0861020000108037768002         MARTIN-SMITH SHARON 9219 ALLENSWOOD RD                      000N        CARE OF             
MTR08610200001000000000000000RA              29682826    005800030000000300000520000003NN  NNW 000                       N    
RDG08610200WATRL000000004K00000000000007056000311262014091516N000000000000U81       000300400K 10000000010000007027           
CUS0861020000108037769000         WILLIAMS LEOLA      9217 ALLENSWOOD RD                      000N        CARE OF             
MTR08610200001000000000000000RA              44091647    005800040000000400000520000003NN  NNW 000                       N    
RDG08610200WATRL000000004K00000000000002933000411262014091552N000000000000U81       000360400K 10000000010000002882           
CUS0861020000108037770008         STANLEY J HELM      9215 ALLENSWOOD RD                      000N        CARE OF             
MTR08610200001000000000000000RA              11430268    005800050000000500000570000003NN  NNW 000                       N    
RDG08610200WATRL000000004K00000000000005094000511262014091629N000000000000U81       000370400K 10000000010000005075           
CUS0861020000108037771006         OLIVER SHEILA R     9213 ALLENSWOOD RD                      000N        CARE OF             
MTR08610200001000000000000000RA              44091626    005800060000000600000520000003NN  NNW 000                       N    
RDG08610200WATRL000000004K00000000000002269000611262014091707N000000000000U81       000380400K 10000000010000002257           
CUS0861020000108037772004         BELL ANTHONY D      9211 ALLENSWOOD RD                      000N        CARE OF             
MTR08610200001000000000000000RA              44091648    005800070000000700000520000003NN  NNW 000                       N    
RDG08610200WATRL000000004K00000000000003063001411282014084823N000000000000U81       002660400K 10000000010000003050           
CUS0861020000108037773002         JUDITH K MOULAISON  9209 ALLENSWOOD RD                      000N        CARE OF             
MTR08610200001000000000000000RA              01072460    005800080000000800000610000003NN  NNW 000                       N    
RDG08610200WATRL000000004K00000000000000987001511282014084919N000000000000U81       000560400K 10000000010000000974           
CUS0861020000108037774000         FITZGERALD MARY A   9207 ALLENSWOOD RD                      000N        CARE OF             
MTR08610200001000000000000000RA              44091622    005800090000000900000520000003NN  NNW 000                       N    
RDG08610200WATRL000000004K00000000000004662000711262014091843N000000000000U81       000960400K 10000000010000004639           
CUS0861020000108037775007         SIGUENZA WALTER     9205 ALLENSWOOD RD                      000N        CARE OF             
MTR08610200001000000000000000RA              01072505    005800100000001000000610000003NN  NNW 000                       N    
RDG08610200WATRL000000004K00000000000001378000811262014091929N000000000000U81       000460400K 10000000010000001343           
CUS0861020000108037776005         HOUSTON PITTS JOAN Y9203 ALLENSWOOD RD                      000N        CARE OF             
MTR08610200001000000000000000RA              01072000    005800110000001100000610000003NN  NNW 000                       N    
RDG08610200WATRL000000004K00000000000000970000911262014091953N000000000000U81       000240400K 10000000010000000951           
CUS0861020000108037777003         LAMB DERRICK        9201 ALLENSWOOD RD                      000N        CARE OF             
MTR08610200001000000000000000RA              01072480    005800120000001200000610000003NN  NNW 000                       N    
RDG08610200WATRL000000004K00000000000002124001011262014092025N000400000010U81       000320400K 10000000010000002117           
CUS0861020000108037778001         BURNEY VALERIE M    9107 ALLENSWOOD RD                      000N        CARE OF             
MTR08610200001000000000000000RA              00126627    005800130000001300000570000003NN  NNW 000                       N    
RDG08610200WATRL000000004K00000000000001376001111262014092057N000000000000U81       000320400K 10000000010000001354           
CUS0861020000108037779009         NGOZI EJLOGU        9105 ALLENSWOOD RD                      000N        CARE OF             
MTR08610200001000000000000000RA              52770043    005800140000001400000520000003NN  NNW 000                       N    
RDG08610200WATRL000000004K00000000000001839001211262014092147N000000000000U81       000500400K 10000000010000001828           
CUS0861020000108037780007         BROWN LYNN          9103 ALLENSWOOD RD                      000N        CARE OF             
MTR08610200001000000000000000RA              39585721    005800150000001500000520000003NN  NNW 000                       N    
RDG08610200WATRL000000004K00000000000002896001612032014151609O000000000010U80       002210400K 10000000010000002869           
CUS0861020000108037781005         BERMINA W GRAY      9101 ALLENSWOOD RD                      000N        CARE OF             
MTR08610200001000000000000000RA              39291596    005800160000001600000520000003NN  NNW 000                       N    
RDG08610200WATRL000000004K00000000000004448001311262014092435N000000000000U81       001680400K 10000000010000004414           
CUS0861020000108037782003         RANDOLF HERMAN      3736 OFFUTT RD                          000N        CARE OF             
MTR08610200001000000000000000RA              41080245    005800170000001700000520000003NN  NNW 000                       N    
RDG08610200WATRL000000004K00000000000002600001411262014092523N000000000000U81       000480400K 10000000010000002579           
CUS0861020000108037783001         ITEMERE DAVID       3734 OFFUTT RD                          000N        CARE OF             
MTR08610200001000000000000000RA              01112892    005800180000001800000610000003NN  NNW 000                       N    
RDG08610200WATRL000000004K00000000000001155001511262014092600N000000000000U81       000370400K 10000000010000001138           
CUS0861020000108037784009         LINDA RANDOLPH      3732 OFFUTT RD                          000N        CARE OF             
MTR08610200001000000000000000RA              99999999    005800190000001900000570000003NN  NNW 000                       N    
RDG08610200WATRL000000004K00000000000001583001611262014092700N000000000000U81       000600400K 10000000010000001545           
CUS0861020000108037785006         SAMPSON MOZELLA E   3730 OFFUTT RD                          000N        CARE OF             
MTR08610200001000000000000000RA              24772761    005800200000002000000520000003NN  NNW 000                       N    
RDG08610200WATRL000000004K00000000000004751001711282014085925N000000000010U81       003850400K 10000000010000004728           
CUS0861020000108037786004         NUNNALLY LINDA L    3728 OFFUTT RD                          000N        CARE OF             
MTR08610200001000000000000000RA              01106687    005800210000002100000610000003NN  NNW 000                       N    
RDG08610200WATRL000000004K00000000000000740001811282014090033N000000000000U81       000680400K 10000000010000000731           
CUS0861020000108037787002         FRANKLIN SAPPERSTEIN3726 OFFUTT RD                          000N        CARE OF             
MTR08610200001000000000000000RA              41074496    005800220000002200000520000003NN  NNW 000                       N    
RDG08610200WATRL000000004K00000000000003079001911282014090146N000000000000U81       000730400K 10000000010000003063           
CUS0861020000108037788000         CONNOR LAFAYE       3724 OFFUTT RD                          000N        CARE OF             
MTR08610200001000000000000000RA              31583372    005800230000002300000520000003NN  NNW 000                       N    
RDG08610200WATRL000000004K00000000000008424001711262014093025N000000000000U81       002050400K 10000000010000008404           
CUS0861020000108037789008         HUDGINS LINDA J     3722 OFFUTT RD                          000N        CARE OF             
MTR08610200001000000000000000RA              30517277    005800240000002400000520000003NN  NNW 000                       N    
RDG08610200WATRL000000004K00000000000004104002011282014090305N000000000000U81       000790400K 10000000010000004066           
CUS0861020000108037790006         DEZURN BERNARD SR   3720 OFFUTT RD                          000N        CARE OF             
MTR08610200001000000000000000RA              01084943    005800250000002500000610000003NN  NNW 000                       N    
RDG08610200WATRL000000004K00000000000001494001811262014093122N000000000000U81       000570400K 10000000010000001468           
CUS0861020000108037791004         EDWARD MIDDLETON & W3714 OFFUTT RD                          000N        CARE OF             
MTR08610200001000000000000000RA              40048970    005800260000002600000520000003NN  NNW 000                       N    
RDG08610200WATRL000000004K00000000000003170001911262014093301N000000000000U81       000990400K 10000000010000003158           
CUS0861020000108037792002         TRAN THANH TRUNG    3712 OFFUTT RD                          000N        CARE OF             
MTR08610200001000000000000000RA              41259580    005800270000002700000520000003NN  NNW 000                       N    
RDG08610200WATRL000000004K00000000000002075002011262014093451N000000000000U81       001100400K 10000000010000002048           
CUS0861020000108037793000         MCSEARS KEVIN T     3710 OFFUTT RD                          000N        CARE OF             
MTR08610200001000000000000000RA              41259582    005800280000002800000520000000NN  NNW 000                       N    
RDG08610200WATRL000000004K00000000000002868002111262014093612N000000000000U81       000810400K 10000000010000002859           
CUS0861020000108037794008         BROWN MICHAEL D,SR  3708 OFFUTT RD                          000N        CARE OF             
MTR08610200001000000000000000RA              48589926    005800290000002900000520000003NN  NNW 000                       N    
RDG08610200WATRL000000004K00000000000001593002111282014090756N000000000000U81       002910400K 10000000010000001575           
CUS0861020000108037795005         MOSES ROBERT F      3706 OFFUTT RD                          000N        CARE OF             
MTR08610200001000000000000000RA              99288818    005800300000003000000570000003NN  NNW 000                       N    
RDG08610200WATRL000000004K00000000000001258002211282014091039N000000000000U81       001630400K 10000000010000001247           
CUS0861020000108037796003         SYKES JANE ELIZABETH3704 OFFUTT RD                          000N        CARE OF             
MTR08610200001000000000000000RA              44093058    005800310000003100000520000003NN  NNW 000                       N    
RDG08610200WATRL000000004K00000000000002468002211262014093807N000000000000U81       001150400K 10000000010000002447           
CUS0861020000108037797001         WHEELER SERENA T    3702 OFFUTT RD                          000N        CARE OF             
MTR08610200001000000000000000RA              21202906    005800320000003200000520000003NN  NNW 000                       N    
RDG08610200WATRL000000004K00000000000005267002311282014091237N000000000000U81       001180400K 10000000010000005237           
CUS0861020000108037798009         ROBERTS CYNTHIA D   3700 OFFUTT RD                          000N        CARE OF             
MTR08610200001000000000000000RA              44093072    005800330000003300000520000003NN  NNW 000                       N    
RDG08610200WATRL000000004K00000000000001813002411282014091349N000000000000U81       000720400K 10000000010000001794           
CUS0861020000108037799007         SMITH SAMUEL        9102 SAMOSET RD                         000N        CARE OF             
MTR08610200001000000000000000RA              41258297    005800340000003400000520000003NN  NNW 000                       N    
RDG08610200WATRL000000004K00000000000001275002311262014094023N000000000000U81       001360400K 10000000010000001259           
CUS0861020000108037800003         VICTOR JACKSON      3701 VEGA RD                            000N        CARE OF             
MTR08610200001000000000000000RA              01072501    005800350000003500000610000003NN  NNW 000                       N    
RDG08610200WATRL000000004K00000000000000627002411262014094127N000000000000U81       000640400K 10000000010000000604           
CUS0861020000108037801001         POWELL CHRISTINE B  3703 VEGA RD                            000N        CARE OF             
MTR08610200001000000000000000RA              48596373    005800360000003600000520000003NN  NNW 000                       N    
RDG08610200WATRL000000004K00000000000001959002511262014094237N000000000000U81       000700400K 10000000010000001947           
CUS0861020000108037802009         DILLARD MYRA        3705 VEGA RD                            000N        CARE OF             
MTR08610200001000000000000000RA              01072504    005800370000003700000610000003NN  NNW 000                       N    
RDG08610200WATRL000000004K00000000000001277002611262014094328N000000000000U81       000510400K 10000000010000001244           
CUS0861020000108037803007         STEPHANIE D SIMMS   3707 VEGA RD                            000N        CARE OF             
MTR08610200001000000000000000RA              41074678    005800380000003800000520000003NN  NNW 000                       N    
RDG08610200WATRL000000004K00000000000002109002711262014094404N000000000000U81       000360400K 10000000010000002100           
CUS0861020000108037804005         JERROLD DARDICK     3709 VEGA RD                            000N        CARE OF             
MTR08610200001000000000000000RA              22609833    005800390000003900000520000003NN  NNW 000                       N    
RDG08610200WATRL000000004K00000000000006850002511282014091859N000000000000U81       003100400K 10000000010000006837           
CUS0861020000108037805002         DAVID SHUK          3711 VEGA RD                            000N        CARE OF             
MTR08610200001000000000000000RA              41259562    005800400000004000000520000003NN  NNW 000                       N    
RDG08610200WATRL000000004K00000000000002949002811262014094542N000000000000U81       000980400K 10000000010000002935           
CUS0861020000108037806000         MILES STEVEN L      3713 VEGA RD                            000N        CARE OF             
MTR08610200001000000000000000RA              44091255    005800410000004100000520000003NN  NNW 000                       N    
RDG08610200WATRL000000004K00000000000001933002911262014094636N000000000000U81       000540400K 10000000010000001920           
CUS0861020000108037807008         EGBE FELECIA M      3715 VEGA RD                            000N        CARE OF             
MTR08610200001000000000000000RA              41259577    005800420000004200000520000003NN  NNW 000                       N    
RDG08610200WATRL000000004K00000000000003162003011262014094720N000000000000U81       000440400K 10000000010000003145           
CUS0861020000108037808006         DAKIEM LEWIS        3717 VEGA RD                            000N        CARE OF             
MTR08610200001000000000000000RA              40048960    005800430000004300000520000003NN  NNW 000                       N    
RDG08610200WATRL000000004K00000000000004580002611282014092221N000000000000U81       002020400K 10000000010000004552           
CUS0861020000108037809004         KETTY NGONA         3719 VEGA RD                            000N        CARE OF             
MTR08610200001000000000000000RA              41259581    005800440000004400000520000003NN  NNW 000                       N    
RDG08610200WATRL000000004K00000000000005075003112032014151638O000000000010U80       001370400K 10000000010000004969           
CUS0861020000108037810002         GITAGIA MICHAEL     9101 BENGAL RD                          000N        CARE OF             
MTR08610200001000000000000000RA              01072509    005800450000004500000610000003NN  NNW 000                       N    
RDG08610200WATRL000000004K00000000000001309003211262014095033N000000000000U81       000560400K 10000000010000001285           
CUS0861020000108037811000         CYGNORIA BUCKSON    3718 OFFUTT RD                          000N        CARE OF             
MTR08610200001000000000000000RA              52770258    005800460000004600000520000003NN  NNW 000                       N    
RDG08610200WATRL000000004K00000000000001922003311262014095102N000000000000U81       000290400K 10000000010000001894           
CUS0861020000108037812008         THORNE CONNIE M     9102 BENGAL RD                          000N        CARE OF             
MTR08610200001000000000000000RA              41259606    005800470000004700000520000003NN  NNW 000                       N    
RDG08610200WATRL000000004K00000000000002722003411262014095151N000000000000U81       000490400K 10000000010000002681           
CUS0861020000108037813006         ETTERSHANK WALTER B 3701 EASTMAN RD                         000N        CARE OF             
MTR08610200001000000000000000RA              48587804    005800480000004800000520000003NN  NNW 000                       N    
RDG08610200WATRL000000004K00000000000001274003511262014095305N000000000000U81       000740400K 10000000010000001272           
CUS0861020000108037814004         SAKS-MARTIN ARLENE J3703 EASTMAN RD                         000N        CARE OF             
MTR08610200001000000000000000RA              14911040    005800490000004900000310000003NN  NNW 000                       N    
RDG08610200WATRL000000004K00000000000000484003611262014095349N000000000000U81       000440400K 10000000010000000473           
CUS0861020000108037815001         EZEKA HYACINTH      3705 EASTMAN RD                         000N        CARE OF             
MTR08610200001000000000000000RA              44091253    005800500000005000000520000003NN  NNW 000                       N    
RDG08610200WATRL000000004K00000000000003231003711262014095459N000000000000U81       000700400K 10000000010000003213           
CUS0861020000108037816009         MITCHELL MAURICE E  3707 EASTMAN RD                         000N        CARE OF             
MTR08610200001000000000000000RA              44090639    005800510000005100000520000003NN  NNW 000                       N    
RDG08610200WATRL000000004K00000000000003967003811262014095543N000000000000U81       000440400K 10000000010000003919           
CUS0861020000108037817007         COLEMAN RICHARD     3709 EASTMAN RD                         000N        CARE OF             
MTR08610200001000000000000000RA              26007651    005800520000005200000520000003NN  NNW 000                       N    
RDG08610200WATRL000000004K00000000000003856003911262014095635N000000000000U81       000520400K 10000000010000003837           
CUS0861020000108037818005         ANDERSON LOCKSLEY J 9103 EASTMAN CT                         000N        CARE OF             
MTR08610200001000000000000000RA              2261590     005800530000005300000520000003NN  NNW 000                       N    
RDG08610200WATRL000000004K00000000000002802004011262014095732N000000000000U81       000570400K 10000000010000002785           
CUS0861020000108037819003         KULWINDER S ASSI    9101 EASTMAN CT                         000N        CARE OF             
MTR08610200001000000000000000RA              24773433    005800540000005400000520000003NN  NNW 000                       N    
RDG08610200WATRL000000004K00000000000005006004111262014095854N000000000000U81       000820400K 10000000010000004961           
CUS0861020000108037820001         JOHN B DILLY JR     9100 EASTMAN CT                         000N        CARE OF             
MTR08610200001000000000000000RA              46888622    005800550000005500000520000003NN  NNW 000                       N    
RDG08610200WATRL000000004K00000000000001888002711282014092504N000000000000U81       001630400K 10000000010000001867           
CUS0861020000108037821009         THOMPSON CHERYL E   9102 EASTMAN CT                         000N        CARE OF             
MTR08610200001000000000000000RA              48588037    005800560000005600000520000003NN  NNW 000                       N    
RDG08610200WATRL000000004K00000000000002561004211262014100008N000000000000U81       000740400K 10000000010000002537           
CUS0861020000108037822007         CHASE NORMAN S      3713 EASTMAN RD                         000N        CARE OF             
MTR08610200001000000000000000RA              48588633    005800570000005700000520000003NN  NNW 000                       N    
RDG08610200WATRL000000004K00000000000002243004311262014100059N000000000000U81       000510400K 10000000010000002221           
CUS0861020000108037823005         TUCKER VINCENT H    3715 EASTMAN RD                         000N        CARE OF             
MTR08610200001000000000000000RA              45376531    005800580000005800000520000003NN  NNW 000                       N    
RDG08610200WATRL000000004K00000000000001257002811282014092713N000000000000U81       001290400K 10000000010000001242           
CUS0861020000108037824003         INNOVATIVE SERVICES 3717 EASTMAN RD                         000N        CARE OF             
MTR08610200001000000000000000RA              48588625    005800590000005900000520000003NN  NNW 000                       N    
RDG08610200WATRL000000004K00000000000002186004411262014100224N000400000010U81       000850400K 10000000010000002176           
CUS0861020000108037825000         ALEXANDER THOMAS J,J3719 EASTMAN RD                         000N        CARE OF             
MTR08610200001000000000000000RA              41074683    005800600000006000000520000003NN  NNW 000                       N    
RDG08610200WATRL000000004K00000000000001874004511262014100306N000000000000U81       000420400K 10000000010000001857           
CUS0861020000108037826008         FRANK E HASTINGS    3721 EASTMAN RD                         000N        CARE OF             
MTR08610200001000000000000000RA              48588630    005800610000006100000520000003NN  NNW 000                       N    
RDG08610200WATRL000000004K00000000000001083004611262014100336N000000000000U81       000300400K 10000000010000001078           
CUS0861020000108037827006         DAWN G CUNNINGHAM   3723 EASTMAN RD                         000N        CARE OF             
MTR08610200001000000000000000RA              48588600    005800620000006200000520000003NN  NNW 000                       N    
RDG08610200WATRL000000004K00000000000002308004711262014100354N000000000000U81       000180400K 10000000010000002285           
CUS0861020000108037828004         CONAWAY CORNELL C   3725 EASTMAN RD                         000N        CARE OF             
MTR08610200001000000000000000RA              48588628    005800630000006300000520000003NN  NNW 000                       N    
RDG08610200WATRL000000004K00000000000001911004811262014100428N000000000000U81       000340400K 10000000010000001892           
CUS0861020000108037829002         HAMILTON ROBERT PHIL3727 EASTMAN RD                         000N        CARE OF             
MTR08610200001000000000000000RA              41259529    005800640000006400000520000003NN  NNW 000                       N    
RDG08610200WATRL000000004K00000000000001946004911262014100449N000000000000U81       000210400K 10000000010000001930           
CUS0861020000108037830000         THOMAS ANGELA P     3729 EASTMAN RD                         000N        CARE OF             
MTR08610200001000000000000000RA              48588624    005800650000006500000520000003NN  NNW 000                       N    
RDG08610200WATRL000000004K00000000000001327005011262014100515N000000000000U81       000260400K 10000000010000001310           
CUS0861020000108037831008         THEROLD S BEST      3731 EASTMAN RD                         000N        CARE OF             
MTR08610200001000000000000000RA              31583480    005800660000006600000520000003NN  NNW 000                       N    
RDG08610200WATRL000000004K00000000000002639005111262014100604N000000000011U81       000170400K 10000000010000002632           
CUS0861020000108037832006         JAMES DARLENE R     3733 EASTMAN RD                         000N        CARE OF             
MTR08610200001000000000000000RA              48585241    005800670000006700000520000003NN  NNW 000                       N    
RDG08610200WATRL000000004K00000000000001781005211262014100653N000000000000U81       000490400K 10000000010000001760           
CUS0861020000108037833004         HAKANSON M JEAN     3734 EASTMAN RD                         000N        CARE OF             
MTR08610200001000000000000000RA              44091251    005800680000006800000520000003NN  NNW 000                       N    
RDG08610200WATRL000000004K00000000000001532005311262014100753N000000000000U81       000600400K 10000000010000001527           
CUS0861020000108037834002         PENN JEFFREY        3732 EASTMAN RD                         000N        CARE OF             
MTR08610200001000000000000000RA              27265903    005800690000006900000520000003NN  NNW 000                       N    
RDG08610200WATRL000000004K00000000000004303005411262014100828N000000000000U81       000350400K 10000000010000004268           
CUS0861020000108037835009         FASNACHT DONALD LEE 3730 EASTMAN RD                         000N        CARE OF             
MTR08610200001000000000000000RA              31587805    005800700000007000000520000003NN  NNW 000                       N    
RDG08610200WATRL000000004K00000000000002539005511262014100843N000000000000U81       000150400K 10000000010000002528           
CUS0861020000108037836007         MITCHELL JAMES L    3728 EASTMAN RD                         000N        CARE OF             
MTR08610200001000000000000000RA              35111504    005800710000007100000520000003NN  NNW 000                       N    
RDG08610200WATRL000000004K00000000000002334005611262014100917N000000000000U81       000340400K 10000000010000002315           
CUS0861020000108037837005         WILSON KIMBERLY     3726 EASTMAN RD                         000N        CARE OF             
MTR08610200001000000000000000RA              48583037    005800720000007200000520000003NN  NNW 000                       N    
RDG08610200WATRL000000004K00000000000002474005711262014100957N000000000000U81       000400400K 10000000010000002456           
CUS0861020000108037838003         MILDRED A KNIGHT    3724 EASTMAN RD                         000N        CARE OF             
MTR08610200001000000000000000RA              44091250    005800730000007300000520000003NN  NNW 000                       N    
RDG08610200WATRL000000004K00000000000002955005811262014101039N000000000000U81       000420400K 10000000010000002922           
CUS0861020000108037839001         GRAY JOSIE          3722 EASTMAN RD                         000N        CARE OF             
MTR08610200001000000000000000RA              48588635    005800740000007400000520000003NN  NNW 000                       N    
RDG08610200WATRL000000004K00000000000001287005911262014101104N000000000000U81       000250400K 10000000010000001277           
CUS0861020000108037840009         JAMES ROBERT        3720 EASTMAN RD                         000N        CARE OF             
MTR08610200001000000000000000RA              48588631    005800750000007500000520000003NN  NNW 000                       N    
RDG08610200WATRL000000004K00000000000001552006011262014101136N000000000000U81       000320400K 10000000010000001541           
CUS0861020000108037841007         QUEEN GEROGE S      3718 EASTMAN RD                         000N        CARE OF             
MTR08610200001000000000000000RA              48588626    005800760000007600000520000003NN  NNW 000                       N    
RDG08610200WATRL000000004K00000000000002460006111262014101157N000000000000U81       000210400K 10000000010000002456           
CUS0861020000108037842005         LEE CHING           3716 EASTMAN RD                         000N        CARE OF             
MTR08610200001000000000000000RA              48588634    005800770000007700000520000003NN  NNW 000                       N    
RDG08610200WATRL000000004K00000000000001479006211262014101228N000000000000U81       000310400K 10000000010000001457           
CUS0861020000108037843003         PATRICIA PRIDE      3714 EASTMAN RD                         000N        CARE OF             
MTR08610200001000000000000000RA              48588244    005800780000007800000520000003NN  NNW 000                       N    
RDG08610200WATRL000000004K00000000000000953006311262014101310N000000000000U81       000420400K 10000000010000000941           
CUS0861020000108037844001         HERMAN HAZELWOOD    3712 EASTMAN RD                         000N        CARE OF             
MTR08610200001000000000000000RA              48588627    005800790000007900000520000003NN  NNW 000                       N    
RDG08610200WATRL000000004K00000000000001139006411262014101400N000000000000U81       000500400K 10000000010000001130           
CUS0861020000108037845008         CROSBY MAURICE J    3710 EASTMAN RD                         000N        CARE OF             
MTR08610200001000000000000000RA              48587802    005800800000008000000520000003NN  NNW 000                       N    
RDG08610200WATRL000000004K00000000000001345006511262014101453N000000000000U81       000530400K 10000000010000001342           
CUS0861020000108037846006         COLBERT JOSEPH A    3708 EASTMAN RD                         000N        CARE OF             
MTR08610200001000000000000000RA              48587806    005800810000008100000520000003NN  NNW 000                       N    
RDG08610200WATRL000000004K00000000000001163002911282014092753N000000000000U81       000400400K 10000000010000001154           
CUS0861020000108037847004         4306 STANWOOD AVENUE3706 EASTMAN RD                         000N        CARE OF             
MTR08610200001000000000000000RA              48588632    005800820000008200000520000003NN  NNW 000                       N    
RDG08610200WATRL000000004K00000000000005566006611262014101613N000000000000U81       000800400K 10000000010000005534           
CUS0861020000108037848002         PERCY ALSTON & WF   3704 EASTMAN RD                         000N        CARE OF             
MTR08610200001000000000000000RA              31581175    005800830000008300000520000003NN  NNW 000                       N    
RDG08610200WATRL000000004K00000000000003706003011282014093058N000000000001U81       000130400K 10000000010000003696           
CUS0861020000108037849000         JOANA ROSARIO       3702 EASTMAN RD                         000N        CARE OF             
MTR08610200001000000000000000RA              48585398    005800840000008400000520000003NN  NNW 000                       N    
RDG08610200WATRL000000004K00000000000002583006711262014101900N000000000000U81       001670400K 10000000010000002536           
CUS0861020000108037850008         RICHARDSON ADRIENNE 3700 EASTMAN RD                         000N        CARE OF             
MTR08610200001000000000000000RA              31936648    005800850000008500000520000003NN  NNW 000                       N    
RDG08610200WATRL000000004K00000000000004269006811262014102037N000000000000U81       000970400K 10000000010000004231           
CUS0861020000108037851006         MCCOLL ELLEN        9112 BENGAL RD                          000N        CARE OF             
MTR08610200001000000000000000RA              9685551     005800860000008600000570000003NN  NNW 000                       N    
RDG08610200WATRL000000004K00000000000006081006911262014102202N000000000000U81       000850400K 10000000010000006081           
CUS0861020000108037852004         SHIPLEY MILTON      9114 BENGAL RD                          000N        CARE OF             
MTR08610200001000000000000000RA              41074650    005800870000008700000520000003NN  NNW 000                       N    
RDG08610200WATRL000000004K00000000000004446007011262014102247N000000000000U81       000450400K 10000000010000004394           
CUS0861020000108037853002         PRICE PATRICIA L    9116 BENGAL RD                          000N        CARE OF             
MTR08610200001000000000000000RA              41074640    005800880000008800000520000003NN  NNW 000                       N    
RDG08610200WATRL000000004K00000000000002326007111262014102331N000000000000U81       000440400K 10000000010000002319           
CUS0861020000108037854000         HOLLINS STEVEN T    9118 BENGAL RD                          000N        CARE OF             
MTR08610200001000000000000000RA              01113677    005800890000008900000610000003NN  NNW 000                       N    
RDG08610200WATRL000000004K00000000000003623000111282014081955N000000000000U81       000000400K 10000000010000003571           
CUS0861020000108037855007         HARRIS JOSEPHINE    9120 BENGAL RD                          000N        CARE OF             
MTR08610200001000000000000000RA              01072508    005800900000009000000610000003NN  NNW 000                       N    
RDG08610200WATRL000000004K00000000000001648007211262014102432N000000000000U81       000610400K 10000000010000001648           
CUS0861020000108037856005         MILLER LORETTA      9122 BENGAL RD                          000N        CARE OF             
MTR08610200001000000000000000RA              44091252    005800910000009100000520000003NN  NNW 000                       N    
RDG08610200WATRL000000004K00000000000001648000211282014082102N000000000000U81       000670400K 10000000010000001636           
CUS0861020000108037857003         SANDRA L COE        9124 BENGAL RD                          000N        CARE OF             
MTR08610200001000000000000000RA              76346031    005800920000009200000350000003NN  NNW 000                       N    
RDG08610200WATRL000000004K00000000000000006000311282014082149N000000000000U81       000470400K 10000000010000000001           
CUS0861020000108037858001         JOSEPHINE BROWN     9126 BENGAL RD                          000N        CARE OF             
MTR08610200001000000000000000RA              35118601    005800930000009300000520000003NN  NNW 000                       N    
RDG08610200WATRL000000004K00000000000002004000411282014082251N000000000000U81       000620400K 10000000010000001995           
CUS0861020000108037859009         BROADNAX SHIRLEY    9128 BENGAL RD                          000N        CARE OF             
MTR08610200001000000000000000RA              01072465    005800940000009400000610000003NN  NNW 000                       N    
RDG08610200WATRL000000004K00000000000001512007311262014102718N000000000000U81       001660400K 10000000010000001480           
CUS0861020000108037860007         JOHNSON BARBARA J   9200 BENGAL RD                          000N        CARE OF             
MTR08610200001000000000000000RA              75618257    005800950000009500000350000003NN  NNW 000                       N    
RDG08610200WATRL000000004K00000000000000047000511282014082642N000000000000U81       002310400K 10000000010000000032           
CUS0861020000108037861005         MORRIS LORNA M      9202 BENGAL RD                          000N        CARE OF             
MTR08610200001000000000000000RA              01103557    005800960000009600000610000003NN  NNW 000                       N    
RDG08610200WATRL000000004K00000000000000768000611282014082756N000000000000U81       000740400K 10000000010000000752           
CUS0861020000108037862003         S. DORIS WAREHIME   9204 BENGAL RD                          000N        CARE OF             
MTR08610200001000000000000000RA              48591341    005800970000009700000520000003NN  NNW 000                       N    
RDG08610200WATRL000000004K00000000000002470000711282014082921N000000000000U81       000850400K 10000000010000002443           
CUS0861020000108037863001         DIENER HARRY DAVID  9206 BENGAL RD                          000N        CARE OF             
MTR08610200001000000000000000RA              01103510    005800980000009800000610000003NN  NNW 000                       N    
RDG08610200WATRL000000004K00000000000000933007411262014102903N000000000000U81       001050400K 10000000010000000922           
CUS0861020000108037864009         COOPER BARBARA A    9208 BENGAL RD                          000N        CARE OF             
MTR08610200001000000000000000RA              01103498    005800990000009900000610000003NN  NNW 000                       N    
RDG08610200WATRL000000004K00000000000000670007511262014102934N000000000000U81       000310400K 10000000010000000652           
CUS0861020000108037865006         WIEBKING RICHARD D  9210 BENGAL RD                          000N        CARE OF             
MTR08610200001000000000000000RA              01103507    005801000000010000000610000003NN  NNW 000                       N    
RDG08610200WATRL000000004K00000000000000558007611262014103013N000000000000U81       000390400K 10000000010000000544           
CUS0861020000108037866004         HIGH GARY L,SR      3719 COLLIER RD                         000N        CARE OF             
MTR08610200001000000000000000RA              41074648    005801010000010100000520000003NN  NNW 000                       N    
RDG08610200WATRL000000004K00000000000002556000811282014083615N000000000000U81       004140400K 10000000010000002534           
CUS0861020000108037867002         MARVIN WISE         3721 COLLIER RD                         000N        CARE OF             
MTR08610200001000000000000000RA              22607716    005801020000010200000520000003NN  NNW 000                       N    
RDG08610200WATRL000000004K00000000000006072000911282014083713N000000000000U81       000580400K 10000000010000006057           
CUS0861020000108037868000         HAYWOOD WATSON      3723 COLLIER RD                         000N        CARE OF             
MTR08610200001000000000000000RA              50480815    005801030000010300000520000003NN  NNW 000                       N    
RDG08610200WATRL000000004K00000000000001722007711262014103237N000000000010U81       001440400K 10000000010000001508           
CUS0861020000108037869008         SHAW CARROLL L      3725 COLLIER RD                         000N        CARE OF             
MTR08610200001000000000000000RA              44002855    005801040000010400000520000003NN  NNW 000                       N    
RDG08610200WATRL000000004K00000000000001341007811262014103320N000000000000U81       000430400K 10000000010000001334           
CUS0861020000108037870006         SARPONG WESLEY      3727 COLLIER RD                         000N        CARE OF             
MTR08610200001000000000000000RA              48583513    005801050000010500000520000003NN  NNW 000                       N    
RDG08610200WATRL000000004K00000000000001864007911262014103358N000000000000U81       000380400K 10000000010000001841           
CUS0861020000108037871004         SOLOMON HOWARD      3728 COLLIER RD                         000N        CARE OF             
MTR08610200001000000000000000RA              23427430    005801060000010600000520000003NN  NNW 000                       N    
RDG08610200WATRL000000004K00000000000003281008011262014103503N000000000000U81       000650400K 10000000010000003272           
CUS0861020000108037872002         F WILLIAM GIANFORTE 3726 COLLIER RD                         000N        CARE OF             
MTR08610200001000000000000000RA              50481073    005801070000010700000520000003NN  NNW 000                       N    
RDG08610200WATRL000000004K00000000000000858008111262014103605N000300000010U81       000620400K 10000000010000000810           
CUS0861020000108037873000         KENISHA MARTIN      3724 COLLIER RD                         000N        CARE OF             
MTR08610200001000000000000000RA              33077894    005801080000010800000520000003NN  NNW 000                       N    
RDG08610200WATRL000000004K00000000000002080008211262014103630N000000000000U81       000250400K 10000000010000002071           
CUS0861020000108037874008         BULLOCK WENDY       3722 COLLIER RD                         000N        CARE OF             
MTR08610200001000000000000000RA              50481071    005801090000010900000520000003NN  NNW 000                       N    
RDG08610200WATRL000000004K00000000000000924008311262014103701N000100000010U81       000310400K 10000000010000000924           
CUS0861020000108037875005         WHITE FREDERICK JR  3720 COLLIER RD                         000N        CARE OF             
MTR08610200001000000000000000RA              44091204    005801100000011000000520000003NN  NNW 000                       N    
RDG08610200WATRL000000004K00000000000002959008411262014103727N000000000000U81       000260400K 10000000010000002943           
CUS0861020000108037876003         ROBERT BROWN        3718 COLLIER RD                         000N        CARE OF             
MTR08610200001000000000000000RA              50481007    005801110000011100000520000003NN  NNW 000                       N    
RDG08610200WATRL000000004K00000000000001743008511262014103805N000000000000U81       000380400K 10000000010000001731           
CUS0861020000108037877001         TRUESDEL JACQUELINE 3716 COLLIER RD                         000N        CARE OF             
MTR08610200001000000000000000RA              41074645    005801120000011200000520000003NN  NNW 000                       N    
RDG08610200WATRL000000004K00000000000002896001011282014083939N000000000010U81       001460400K 10000000010000002862           
CUS0861020000108037878009         TASEW KINEKAL       3714 COLLIER RD                         000N        CARE OF             
MTR08610200001000000000000000RA              26007717    005801130000011300000520000003NN  NNW 000                       N    
RDG08610200WATRL000000004K00000000000003916001111282014084115N000000000000U81       000960400K 10000000010000003899           
CUS0861020000108037879007         AKERS ERIKA         3712 COLLIER RD                         000N        CARE OF             
MTR08610200001000000000000000RA              54350216    005801140000011400000520000003NN  NNW 000                       N    
RDG08610200WATRL000000004K00000000000002107008611262014103953N000000000000U81       001080400K 10000000010000002107           
CUS0861020000108037880005         SCOTT LARRY OLIVER  3710 COLLIER RD                         000N        CARE OF             
MTR08610200001000000000000000RA              41074651    005801150000011500000520000003NN  NNW 000                       N    
RDG08610200WATRL000000004K00000000000001785008711262014104038N000000000000U81       000450400K 10000000010000001777           
CUS0861020000108037881003         HARRY H KULP        3708 COLLIER RD                         000N        CARE OF             
MTR08610200001000000000000000RA              31936344    005801160000011600000520000003NN  NNW 000                       N    
RDG08610200WATRL000000004K00000000000005129008811262014104058N000000000000U81       000200400K 10000000010000005129           
CUS0861020000108037882001         JOSEPHINE AIKINS    3706 COLLIER RD                         000N        CARE OF             
MTR08610200001000000000000000RA              50481138    005801170000011700000520000003NN  NNW 000                       N    
RDG08610200WATRL000000004K00000000000002825008911262014104149N000000000000U81       000510400K 10000000010000002774           
CUS0861020000108037883009         WILLIAMS DAPHNE ANGE3704 COLLIER RD                         000N        CARE OF             
MTR08610200001000000000000000RA              29082846    005801180000011800000520000003NN  NNW 000   VACANT / LOT        N    
RDG08610200WATRL000000004K00000000000002519009011262014104232N000000000000U81       000430400K 10000000010000002519           
CUS0861020000108037884007         WHITAKER ERIC T     3702 COLLIER RD                         000N        CARE OF             
MTR08610200001000000000000000RA              44173655    005801190000011900000520000003NN  NNW 000                       N    
RDG08610200WATRL000000004K00000000000001705009111262014104309N000000000000U81       000370400K 10000000010000001687           
CUS0861020000108037885004         JOHNSON MARGARET L  9300 SAMOSET RD                         000N        CARE OF             
MTR08610200001000000000000000RA              01077189    005801200000012000000610000003NN  NNW 000                       N    
RDG08610200WATRL000000004K00000000000001038009211262014104420N000000000000U81       000710400K 10000000010000001033           
CUS0861020000108037886002         BAILEY CHERYL L     9302 SAMOSET RD                         000N        CARE OF             
MTR08610200001000000000000000RA              01074940    005801210000012100000610000003NN  NNW 000                       N    
RDG08610200WATRL000000004K00000000000000994000111252014124639N000000000000N81       000000400K 10000000010000000977           
CUS0861020000108037887000         CHESNAVAGE  THOMAS  9304 SAMOSET RD                         000N        CARE OF             
MTR08610200001000000000000000RA              01074942    005801220000012200000610000003NN  NNW 000                       N    
RDG08610200WATRL000000004K00000000000000551000211252014124644N000000000000N81       000050400K 10000000010000000542           
CUS0861020000108037888008         BRYANT ANTHONY      3701 TRENT RD                           000N        CARE OF             
MTR08610200001000000000000000RA              75614963    005801230000012300000350000003NN  NNW 000                       N    
RDG08610200WATRL000000004K00000000000000075000311252014124746N000400000010N81       000620400K 10000000010000000072           
CUS0861020000108037889006         BRENDA L PINKETT    3703 TRENT RD                           000N        CARE OF             
