FHDNNNN028005908005908005908N                                                                                           017861
RHD08627000NN01590159000001590000000001590159000236YY015901590159000000000000000000000000000002    11132014NY020000 I         
CUS0862700000108410367000         ST MARKS EPISCOPAL C1624 REISTERSTOWN RD                    000N        CARE OF             
MTR08627000001000000000000000RA              45380803    005800010000000100000520000000NN  NNW 000                       N    
RDG08627000WATRL000000004K00000000000009363000111292014075958N000300000010N80       000000400K 10000000010000009098           
CUS0862700000102045215007         ST MARKS EPISCOPAL C1620 REISTERSTOWN RD                    000N        CARE OF             
MTR08627000001000000000000000RA              99412504    007500020000000200000570000003NN  NNW 000                       N    
RDG08627000WATRL000000004K00000000000001242000211292014080116N000000000000N80       000780400K 10000000010000001209           
CUS0862700000102045214000         MEISEL CAPITAL PARTN1514 REISTERSTOWN RD                    000N        CARE OF             
MTR08627000001000000000000000RA              10004508    005800030000000300000570000003NN  NNW 000                       N    
RDG08627000WATRL000000004K00000000000000518000311292014080255N000000000000N80       000990400K 10000000010000000308           
CUS0862700000102045216005         RYEE CHONG O        1502-08 REISTERSTOWN RD                 000N        CARE OF             
MTR08627000001000000000000000RA              27893549    007500040000000400000520000003NN  NNW 000                       N    
RDG08627000WATRL000000004K00000000000001500000411292014080514N000000000000N80       001390400K 10000000010000001123           
CUS0862700000102045222003         SYDNEY & HENRY REALT1430 REISTERSTOWN RD                    000N        CARE OF             
MTR08627000001000000000000000RA              00066815    001500050000000500000570000003NN  NNW 000                       N    
RDG08627000WATRL000000005K00000000000006821000511292014080659N000000000000N80       001050500K 10000000010000006757           
CUS0862700000102045224009         ALLEYSHOP ENTERPRISE1420 REISTERSTOWN RD                    000N        CARE OF             
MTR08627000001000000000000000RA              27815263    005800060000000600000520000003NN  NNW 000                       N    
RDG08627000WATRL000000004K00000000000008348000611292014080748N000000000000N80       000490400K 10000000010000008318           
CUS0862700000102045225006         NATHAN COHN REALTY, 1416 REISTERSTOWN RD                    000N        CARE OF             
MTR08627000001000000000000000RA              00120697    007500070000000700000570000003NN  NNW 000                       N    
RDG08627000WATRL000000004K00000000000000128000711292014080829N000000000000N80       000410400K 10000000010000000127           
CUS0862700000102045226004         1414 REISTERSTOWN HO1414 REISTERSTOWN RD                    000N        CARE OF             
MTR08627000001000000000000000RA              11331047    005800080000000800000570000003NY  NNW 000                       N    
MTM0862700011331047    CLOUDY GLASS                                                                                           
RDG08627000WATRL000000004K00000000000003791000811292014081142N000000000000N80       001930400K 10000000010000003743           
CUS0862700000102045230006         ALLEYSHOP ENTERPRISE1330 REISTERSTOWN RD                    000N        CARE OF             
MTR08627000001000000000000000RA              35119970    005800090000000900000520000003NN  NNW 000                       N    
RDG08627000WATRL000000004K00000000000001535000911292014081716N000000000001N80       003340400K 10000000010000001443           
CUS0862700000102045231004         ALLEYSHOP ENTERPRISE1326-28 REISTERSTOWN RD                 000N        CARE OF             
MTR08627000001000000000000000RA              99410479    000100100000001000000570000003NN  NNW 000                       N    
RDG08627000WATRL000000004K00000000000003249001011292014081749N000000000000N80       000330400K 10000000010000003197           
CUS0862700000102045232002         PIKESVILLE LLC      1322-24 REISTERSTOWN RD                 000N        CARE OF             
MTR08627000001000000000000000RA              39211791    005800110000001100000520000003NN  NNW 000                       N    
RDG08627000WATRL000000004K00000000000001634001111292014081822N000000000000N80       000330400K 10000000010000001629           
CUS0862700000102045233000         SUMMERFIELD MARC S  1320 REISTERSTOWN RD                    000N        CARE OF             
MTR08627000001000000000000000RA              31580518    005800120000001200000520000003NN  NNW 000                       N    
RDG08627000WATRL000000004K00000000000002493001211292014081854N000000000000N80       000320400K 10000000010000002491           
CUS0862700000102045234008         PIKESVILLE OFFICE SU1314-18 REISTERSTOWN RD                 000N        CARE OF             
MTR08627000001000000000000000RA              27818732    005800130000001300000520000003NN  NNW 000                       N    
RDG08627000WATRL000000004K00000000000002843001311292014082025N000000000000N80       000910400K 10000000010000002835           
CUS0862700000102045235005         WEINREB NECHEMIA    1312 REISTERSTOWN RD                    000N        CARE OF             
MTR08627000001000000000000000RA              45376849    005800140000001400000520000003NN  NNW 000                       N    
RDG08627000WATRL000000004K00000000000000443001411292014082048N000000000010N80       000230400K 10000000010000000441           
CUS0862700000102045236003         BROTH FAMILY,LLC    1308-10 REISTERSTOWN RD                 000N        CARE OF             
MTR08627000001000000000000000RA              14901346    005800150000001500000310000003NN  NNW 000                       N    
RDG08627000WATRL000000004K00000000000001479001511292014082108N000000000000N80       000200400K 10000000010000001470           
CUS0862700000102045237001         SILBIGER ARNOLD R   1306 REISTERSTOWN RD                    000N        CARE OF             
MTR08627000001000000000000000RA              76345778    005800160000001600000350000003NN  NNW 000                       N    
RDG08627000WATRL000000004K00000000000000013001611292014082133N000000000000N80       000250400K 10000000010000000006           
CUS0862700000102045239007         ALLEYSHOP ENTERPRISE4 CHURCH LN                             000N        CARE OF             
MTR08627000001000000000000000RA              27818733    005800170000001700000520000003NN  NNW 000                       N    
RDG08627000WATRL000000004K00000000000000000003711292014090705N000000000000N80       003160400K 10000000010000000000           
CUS0862700000102045240005         SOUTH FORK LLC      6 CHURCH LN                             000N        CARE OF             
MTR08627000001000000000000000RA              19460264    005800180000001800000520000003NN  NNW 000                       N    
RDG08627000WATRL000000004K00000000000002639003611292014090149N000000000000N80       000720400K 10000000010000002633           
CUS0862700000102045241003         8 CHURCH LANE LLC   8 CHURCH LN                             000N        CARE OF             
MTR08627000001000000000000000RA              27833275    005800190000001900000520000003NN  NNW 000                       N    
RDG08627000WATRL000000004K00000000000001847003511292014090037N000300000010N80       000520400K 10000000010000001789           
CUS0862700000102045242001         AUSYDARB LLP        10 CHURCH LN                            000N        CARE OF             
MTR08627000001000000000000000RA              29084454    005800200000002000000520000003NN  NNW 000                       N    
RDG08627000WATRL000000004K00000000000005344003411292014085945N000000000000N80       001080400K 10000000010000005337           
CUS0862700000102045243009         PIKESVILLE OFFICE SU14 CHURCH LN                            000N        CARE OF             
MTR08627000001000000000000000RA              14901674    005800210000002100000310000003NN  NNW 000                       N    
RDG08627000WATRL000000004K00000000000001410003811292014090832N000000000000N80       000870400K 10000000010000001404           
CUS0862700000102045244007         CRAIN STANLEY L     18 CHURCH LN                            000N        CARE OF             
MTR08627000001000000000000000RA              01095421    005800220000002200000610000003NN  NNW 000                       N    
RDG08627000WATRL000000004K00000000000000274003911292014090859N000000000000N80       000270400K 10000000010000000274           
CUS0862700000108379858007         BEDFORD SQUARE LLP  119 MCHENRY AVE                         000N        CARE OF             
MTR08627000001000000000000000RA              99410457    000100230000002300000570000003NN  NNW 000                       N    
RDG08627000WATRL000000004K00000000000005984002811292014084603N000000000000N80       001700400K 10000000010000005895           
CUS0862700000108428743002         BEDFORD SQUARE II LL115 MCHENRY AVE                         000N        CARE OF             
MTR08627000001000000000000000RA              99259009    000100240000002400000570000003NN  NNW 000                       N    
RDG08627000WATRL000000004K00000000000008094002611292014084130N000000000000N80       007050400K 10000000010000006824           
CUS0862700000102045245004         100 CHURCH LANE PART100 CHURCH LN                           000N        CARE OF             
MTR08627000001000000000000000RA              35109061    005800250000002500000520000003NN  NNW 000                       N    
RDG08627000WATRL000000004K00000000000002352002711292014091334N000000000011N80       000970400K 10000000010000002336           
CUS0862700000102045250004         HALL CHRISTOPHER T  112 CHURCH LN                           000N        CARE OF             
MTR08627000001000000000000000RA              14905045    005800260000002600000310000003NN  NNW 000                       N    
RDG08627000WATRL000000004K00000000000000948004911292014092424N000000000001N80       000620400K 10000000010000000922           
CUS0862700000102045251002         CHIKVASHVILI DAVID J204 CHURCH LN                           000N        CARE OF             
MTR08627000001000000000000000RA              10022028    005800270000002700000570000003NN  NNW 000                       N    
RDG08627000WATRL000000004K00000000000000295005311292014093009N000000000000N80       000690400K 10000000010000000273           
CUS0862700000102045252000         LUXENBURG BRIAN A   206 CHURCH LN                           000N        CARE OF             
MTR08627000001000000000000000RA              14901347    005800280000002800000310000003NN  NNW 000                       N    
RDG08627000WATRL000000004K00000000000000771005411292014093024N000000000000N80       000150400K 10000000010000000760           
CUS0862700000102045253008         RUDOLPH SUSAN M     208 CHURCH LN                           000N        CARE OF             
MTR08627000001000000000000000RA              10018060    005800290000002900000570000003NN  NNW 000                       N    
RDG08627000WATRL000000004K00000000000000284005511292014093204N000000000000N80       001000400K 10000000010000000267           
CUS0862700000102045254006         HOWARD HENRY B      210 CHURCH LN                           000N        CARE OF             
MTR08627000001000000000000000RA              39291994    005800300000003000000520000003NN  NNW 000                       N    
RDG08627000WATRL000000004K00000000000002259005611292014093302N000400000010N80       000580400K 10000000010000002256           
CUS0862700000102045255003         WEBER CHRISTIAN TOBI212 CHURCH LN                           000N        CARE OF             
MTR08627000001000000000000000RA              01081704    005800310000003000010610000003NN  NNW 000                       N    
RDG08627000WATRL000000004K00000000000001062005711292014093438N000000000001N80       000960400K 10000000010000001042           
CUS0862700000102045256001         RAMSEY BRIAN L      214 CHURCH LN                           000N        CARE OF             
MTR08627000001000000000000000RA              39291962    005800320000003200000520000003NN  NNW 000                       N    
RDG08627000WATRL000000004K00000000000001498006111292014094333N000300000010N80       000970400K 10000000010000001490           
CUS0862700000102045257009         SMITH BRUCE W       216 CHURCH LN                           000N        CARE OF             
MTR08627000001000000000000000RA              36696632    005800330000003300000520000003NN  NNW 000                       N    
RDG08627000WATRL000000004K00000000000002184006211292014094449N000000000000N80       000760400K 10000000010000002184           
CUS0862700000102045258007         CROXTON BONNIE JANE 218 CHURCH LA REAR                      000N        CARE OF             
MTR08627000001000000000000000RA              14901381    005800340000003400000310000003NN  NNW 000                       N    
RDG08627000WATRL000000004K00000000000001350006611292014095808N000000000000N80       001610400K 10000000010000001314           
CUS0862700000102045259005         ROSENBERG BRUCE     218 CHURCH LN                           000N        CARE OF             
MTR08627000001000000000000000RA              14901373    005800350000003500000310000003NN  NNW 000                       N    
RDG08627000WATRL000000004K00000000000001027006311292014094556N000000000000N80       000670400K 10000000010000001010           
CUS0862700000102045260003         MYERS MATTHEW D     220 CHURCH LN                           000N        CARE OF             
MTR08627000001000000000000000RA              40321714    005800360000003600000520000003NN  NNW 000                       N    
RDG08627000WATRL000000004K00000000000004538007411292014101054N000000000000N80       001950400K 10000000010000004484           
CUS0862700000102045261001         MILNER DAVID M      222 CHURCH LN                           000N        CARE OF             
MTR08627000001000000000000000RA              27831938    005800370000003700000520000003NN  NNW 000                       N    
RDG08627000WATRL000000004K00000000000004216007311292014100739N000000000000N80       000350400K 10000000010000004206           
CUS0862700000102045262009         LEISTER KYLE        224 CHURCH LN                           000N        CARE OF             
MTR08627000001000000000000000RA              14902930    005800380000003800000310000003NN  NNW 000                       N    
RDG08627000WATRL000000004K00000000000000444007211292014100704N000000000000N80       000180400K 10000000010000000430           
CUS0862700000102045263007         MCCUSKER MARY PATRIC226 CHURCH LN                           000N        CARE OF             
MTR08627000001000000000000000RA              14902933    005800390000003900000310000003NN  NNW 000                       N    
RDG08627000WATRL000000004K00000000000000579007111292014100646N000000000000N80       001040400K 10000000010000000562           
CUS0862700000102045264005         VALIS PAMELA MARIE  300 CHURCH LN                           000N        CARE OF             
MTR08627000001000000000000000RA              01079699    005800400000004000000610000003NN  NNW 000                       N    
RDG08627000WATRL000000004K00000000000001170007511292014101303N000400000010N80       001290400K 10000000010000001151           
CUS0862700000108428014008         PRIHODA KELLY       332 CHURCH LN                           000N        CARE OF             
MTR08627000001000000000000000RA              99187803    005800410000004100000570000003NN  NNW 000                       N    
RDG08627000WATRL000000004K00000000000001225008211292014102645N000000000000N80       003450400K 10000000010000001205           
CUS0862700000102045266000         PAULSEN JAMES R     1201 HARDEN LN                          000N        CARE OF             
MTR08627000001000000000000000RA              27815195    005800420000004200000520000003NY  NNW 000                       N    
MTM0862700027815195    DANGER BROKEN FRAME N COLLAR CLEANOUT                                                                  
RDG08627000WATRL000000004K00000000000002402008111292014102100N000003206500N80       002290400K 10000000010000002395           
CUS0862700000102045267008         SEABOLD VICTOR R    1301 ST ALBANS RD                       000N        CARE OF             
MTR08627000001000000000000000RA              27820318    005800430000004300000520000003NN  NNW 000                       N    
RDG08627000WATRL000000004K00000000000004709009112042014144256O000000000010N83       000650400K 10000000010000004686           
CUS0862700000102045268006         BASSAN MICHAEL J    1303 ST ALBANS RD                       000N        CARE OF             
MTR08627000001000000000000000RA              38886102    005800440000004400000520000003NN  NNW 000                       N    
RDG08627000WATRL000000004K00000000000003532009211292014104219N000000000000N80       000110400K 10000000010000003507           
CUS0862700000102045269004         KROOPNICK ALLEN J   1305 ST ALBANS RD                       000N        CARE OF             
MTR08627000001000000000000000RA              40321685    005800450000004500000520000003NN  NNW 000                       N    
RDG08627000WATRL000000004K00000000000003219009311292014104605N000000000000N80       002260400K 10000000010000003203           
CUS0862700000102045270002         GOLDSTEIN ROSALIND S1307 ST ALBANS RD                       000N        CARE OF             
MTR08627000001000000000000000RA              40321731    005800460000004600000520000003NN  NNW 000                       N    
RDG08627000WATRL000000004K00000000000001881009411292014104614N000000000000N80       000090400K 10000000010000001877           
CUS0862700000102045271000         JEFFEIN GERALD      1309 ST ALBANS RD                       000N        CARE OF             
MTR08627000001000000000000000RA              14922200    005800470000004700000310000003NN  NNW 000                       N    
RDG08627000WATRL000000004K00000000000000425009611292014104932N000000000000N80       001210400K 10000000010000000410           
CUS0862700000102045272008         GINSBURG ANN        1311 ST ALBANS RD                       000N        CARE OF             
MTR08627000001000000000000000RA              20968340    005800480000004800000520000003NN  NNW 000                       N    
RDG08627000WATRL000000004K00000000000007231009711292014104934N000000000000N80       000020400K 10000000010000007225           
CUS0862700000102045273006         MARCUS P ANDUZE     1313 ST ALBANS RD                       000N        CARE OF             
MTR08627000001000000000000000RA              01081703    005800490000004900000610000003NN  NNW 000                       N    
RDG08627000WATRL000000004K00000000000001361009811292014105143N000000000000N80       001290400K 10000000010000001343           
CUS0862700000102045274004         LWIN AYE  KYI HNIN A1315 ST ALBANS RD                       000N        CARE OF             
MTR08627000001000000000000000RA              27829019    005800500000005000000520000003NN  NNW 000                       N    
RDG08627000WATRL000000004K00000000000003405009911292014105148N000400000010N80       000050400K 10000000010000003393           
CUS0862700000102045275001         CALHOUN KIM         1317 ST ALBANS RD                       000N        CARE OF             
MTR08627000001000000000000000RA              35118117    005800510000005100000520000003NN  NNW 000                       N    
RDG08627000WATRL000000004K00000000000003107010011292014105328N000000000000N80       001000400K 10000000010000003096           
CUS0862700000102045276009         MANAPSAL LEANDRO B  1319 ST ALBANS RD                       000N        CARE OF             
MTR08627000001000000000000000RA              35118121    005800520000005200000520000003NN  NNW 000                       N    
RDG08627000WATRL000000004K00000000000002995010111292014105330N000000000000N80       000020400K 10000000010000002967           
CUS0862700000102045277007         OTTENHEIMER MARJORIE4005 OLD COURT RD                       000N        CARE OF             
MTR08627000001000000000000000RA              39291597    005800530000005300000520000003NN  NNW 000                       N    
RDG08627000WATRL000000004K00000000000006038010211292014105557N000000000000N80       001470400K 10000000010000006003           
CUS0862700000102045289002         KESNER HOWARD G     1312 PINE RIDGE LN                      000N        CARE OF             
MTR08627000001000000000000000RA              44091362    005800540000005400000520000003NN  NNW 000                       N    
RDG08627000WATRL000000004K00000000000001814010311292014105826N000000000000N80       001490400K 10000000010000001796           
CUS0862700000102045290000         COHN HOWARD L       1310 PINE RIDGE LN                      000N        CARE OF             
MTR08627000001000000000000000RA              44174186    005800550000005500000520000003NN  NNW 000                       N    
RDG08627000WATRL000000004K00000000000003368011011292014110440N000000000000N80       000670400K 10000000010000003340           
CUS0862700000102045291008         PORTNEY DAVID       1308 PINE RIDGE LN                      000N        CARE OF             
MTR08627000001000000000000000RA              24228737    005800560000005600000520000003NN  NNW 000                       N    
RDG08627000WATRL000000004K00000000000005837011111292014110525N000000000010N80       000450400K 10000000010000005825           
CUS0862700000102045292006         BANK BARRON C       1306 PINE RIDGE LN                      000N        CARE OF             
MTR08627000001000000000000000RA              52285746    005800570000005700000520000003NN  NNW 000                       N    
RDG08627000WATRL000000004K00000000000001808011211292014110624N000000000000N80       000590400K 10000000010000001791           
CUS0862700000102045293004         YOLANDA S ARANA     1304 PINE RIDGE LN                      000N        CARE OF             
MTR08627000001000000000000000RA              36698552    005800580000005800000520000003NN  NNW 000                       N    
RDG08627000WATRL000000004K00000000000001519011311292014110626N000000000000N80       000020400K 10000000010000001497           
CUS0862700000102045294002         THE CHIMES INC      1302 PINE RIDGE LN                      000N        CARE OF             
MTR08627000001000000000000000RA              24228732    005800590000005900000520000003NN  NNW 000                       N    
RDG08627000WATRL000000004K00000000000005328011411292014110741N000000000000N80       000750400K 10000000010000005284           
CUS0862700000102045283005         GREENWALD ALAN F    1303 PINE RIDGE LN                      000N        CARE OF             
MTR08627000001000000000000000RA              38984237    005800600000006000000520000003NN  NNW 000                       N    
RDG08627000WATRL000000004K00000000000001947010811292014110323N000000000000N80       000620400K 10000000010000001934           
CUS0862700000102045284003         CHEATHAM WANDA      1305 PINE RIDGE LN                      000N        CARE OF             
MTR08627000001000000000000000RA              22609925    005800610000006100000520000000NN  NNW 000                       N    
RDG08627000WATRL000000004K00000000000005431010911292014110333N000000000000N80       000100400K 10000000010000005427           
CUS0862700000102045285000         JOFFE MALCOLM L     1307 PINE RIDGE LN                      000N        CARE OF             
MTR08627000001000000000000000RA              22607573    005800620000006200000520000003NN  NNW 000                       N    
RDG08627000WATRL000000004K00000000000003921010711292014110221N000000000000N80       000500400K 10000000010000003907           
CUS0862700000102045286008         MICHAELSON BARRY SCO1309 PINE RIDGE LN                      000N        CARE OF             
MTR08627000001000000000000000RA              44093749    005800630000006300000520000003NN  NNW 000                       N    
RDG08627000WATRL000000004K00000000000002972010611292014110131N000300000010N80       000730400K 10000000010000002953           
CUS0862700000102045288004         KIMMELMAN DAVID     1308 ST ALBANS RD                       000N        CARE OF             
MTR08627000001000000000000000RA              35102628    005800640000006400000520000003NN  NNW 000                       N    
RDG08627000WATRL000000004K00000000000003229010411292014105918N000000000000N80       000520400K 10000000010000003219           
CUS0862700000102045287006         BEACHLER LARRY THOMA1306 ST ALBANS RD                       000N        CARE OF             
MTR08627000001000000000000000RA              01081702    005800650000006500000610000003NN  NNW 000                       N    
RDG08627000WATRL000000004K00000000000002214010511292014110018N000000000000N80       000600400K 10000000010000002167           
CUS0862700000102045278005         MARCUS MORTON D     1304 ST ALBANS RD                       000N        CARE OF             
MTR08627000001000000000000000RA              24765765    005800660000006600000520000003NN  NNW 000                       N    
RDG08627000WATRL000000004K00000000000003866009511292014104731N000000000000N80       000770400K 10000000010000003851           
CUS0862700000102045279003         GOLDFINE L J        1302 ST ALBANS RD                       000N        CARE OF             
MTR08627000001000000000000000RA              24765680    005800670000006700000520000003NN  NNW 000                       N    
RDG08627000WATRL000000004K00000000000004653009011292014104103N000000000000N80       000040400K 10000000010000004631           
CUS0862700000102045280001         SMITH LYNDELL D     1300 ST ALBANS RD                       000N        CARE OF             
MTR08627000001000000000000000RA              41075902    005800680000006800000520000003NN  NNW 000                       N    
RDG08627000WATRL000000004K00000000000001928008911292014104059N000000000000N80       001680400K 10000000010000001917           
CUS0862700000102045281009         QUARTNER STEPHEN    1315 HARDEN LN                          000N        CARE OF             
MTR08627000001000000000000000RA              38984359    005800690000006900000520000003NN  NNW 000                       N    
RDG08627000WATRL000000004K00000000000002277008711292014103758N000000000000N80       001680400K 10000000010000002262           
CUS0862700000102045282007         ORETHA SOGBIE       1317 HARDEN LN                          000N        CARE OF             
MTR08627000001000000000000000RA              38984356    005800700000007000000520000003NN  NNW 000                       N    
RDG08627000WATRL000000004K00000000000002181008811292014103811N000000000000N80       000130400K 10000000010000002176           
CUS0862700000108411898003         BAXTER TONI M       1303 CHURCH HILL DR                     000N        CARE OF             
MTR08627000001000000000000000RA              00125512    005800710000007100000570000003NN  NNW 000                       N    
RDG08627000WATRL000000004K00000000000000531015611292014115341N000000000000N80       000570400K 10000000010000000521           
CUS0862700000108411897005         SPRIGGS WARREN,JR   1305 CHURCH HILL DR                     000N        CARE OF             
MTR08627000001000000000000000RA              01089778    005800720000007200000610000003NN  NNW 000                       N    
RDG08627000WATRL000000004K00000000000003639015711292014115405N000000000000N80       000240400K 10000000010000003591           
CUS0862700000108411896007         SCHILLER DANIEL     1307 CHURCH HILL DR                     000N        CARE OF             
MTR08627000001000000000000000RA              01095627    005800730000007300000610000003NN  NNW 000                       N    
RDG08627000WATRL000000004K00000000000000419015811292014115523N000000000000N80       000780400K 10000000010000000410           
CUS0862700000108411895009         CHASE ERIC          1309 CHURCH HILL DR                     000N        CARE OF             
MTR08627000001000000000000000RA              48596405    005800740000007400000520000003NN  NNW 000                       N    
RDG08627000WATRL000000004K00000000000001460015111292014114951N000000000000N80       000750400K 10000000010000001444           
CUS0862700000108411894002         LI KWONG            1311 CHURCH HILL DR                     000N        CARE OF             
MTR08627000001000000000000000RA              50477157    005800750000007500000520000003NN  NNW 000                       N    
RDG08627000WATRL000000004K00000000000002293015011292014114836N000000000000N80       000710400K 10000000010000002267           
CUS0862700000108411899001         VAUGHAN GREGORY B   1201 PINE RIDGE LN                      000N        CARE OF             
MTR08627000001000000000000000RA              50481076    005800760000007600000520000003NN  NNW 000                       N    
RDG08627000WATRL000000004K00000000000001001011911292014111423N000000000000N80       000720400K 10000000010000000994           
CUS0862700000108411900007         BUTLER DERRICK M    1203 PINE RIDGE LN                      000N        CARE OF             
MTR08627000001000000000000000RA              54351534    005800770000007700000520000003NN  NNW 000                       N    
RDG08627000WATRL000000004K00000000000000544011811292014111311N000000000000N80       000300400K 10000000010000000535           
CUS0862700000108411901005         RIDGELY MARSHA      1205 PINE RIDGE LN                      000N        CARE OF             
MTR08627000001000000000000000RA              48588644    005800780000007800000520000003NN  NNW 000                       N    
RDG08627000WATRL000000004K00000000000002447011711292014111241N000000000000N80       001310400K 10000000010000002419           
CUS0862700000108411902003         KUPPERS RUDOLPH C JR1207 PINE RIDGE LN                      000N        CARE OF             
MTR08627000001000000000000000RA              46884866    005800790000007900000520000003NN  NNW 000                       N    
RDG08627000WATRL000000004K00000000000001675011611292014111030N000000000000N80       000620400K 10000000010000001662           
CUS0862700000108411903001         KEATING NADINE  PARK1209 PINE RIDGE LN                      000N        CARE OF             
MTR08627000001000000000000000RA              48588665    005800800000008000000520000003NN  NNW 000                       N    
RDG08627000WATRL000000004K00000000000001522011511292014110928N000000000000N80       001070400K 10000000010000001506           
CUS0862700000102045295009         COLEMAN DAVID       1319 HARDEN LN                          000N        CARE OF             
MTR08627000001000000000000000RA              22610299    005800810000008100000520000003NN  NNW 000                       N    
RDG08627000WATRL000000004K00000000000003335012011292014111755N000000000000N80       002120400K 10000000010000003314           
CUS0862700000102045296007         NEEDLE HOWARD J     1321 HARDEN LN                          000N        CARE OF             
MTR08627000001000000000000000RA              36696641    005800820000008200000520000003NN  NNW 000                       N    
RDG08627000WATRL000000004K00000000000001899012211292014111915N000000000000N80       000110400K 10000000010000001885           
CUS0862700000102045297005         ELLIN BARRY         1323 HARDEN LN                          000N        CARE OF             
MTR08627000001000000000000000RA              36696637    005800830000008300000520000003NN  NNW 000                       N    
RDG08627000WATRL000000004K00000000000001367012111292014111904N000000000000N80       000690400K 10000000010000001351           
CUS0862700000102045298003         GARRUS DENISE A     1325 HARDEN LN                          000N        CARE OF             
MTR08627000001000000000000000RA              44092202    005800840000008400000520000003NN  NNW 000                       N    
RDG08627000WATRL000000004K00000000000002208012611292014112310N000000000000N80       000620400K 10000000010000002204           
CUS0862700000102045299001         WEINER MARILYN S    1327 HARDEN LN                          000N        CARE OF             
MTR08627000001000000000000000RA              42809599    005800850000008500000520000003NN  NNW 000                       N    
RDG08627000WATRL000000004K00000000000001032012711292014112318N000000000000N80       000080400K 10000000010000001023           
CUS0862700000102045300007         FLEISHMAN BERNARD K 1329 HARDEN LN                          000N        CARE OF             
MTR08627000001000000000000000RA              23056142    005800860000008600000520000003NN  NNW 000                       N    
RDG08627000WATRL000000004K00000000000004068013011292014112816N000000000000N80       001490400K 10000000010000004052           
CUS0862700000102045310006         THEODORE NANCY L    1320 HARDEN LN                          000N        CARE OF             
MTR08627000001000000000000000RA              99286037    005800870000008700000570000003NN  NNW 000                       N    
RDG08627000WATRL000000004K00000000000000688012311292014112015N000000000000N80       000600400K 10000000010000000676           
CUS0862700000102045301005         KARPEL SUSAN        1331 HARDEN LN                          000N        CARE OF             
MTR08627000001000000000000000RA              24768304    005800880000008800000520000003NN  NNW 000                       N    
RDG08627000WATRL000000004K00000000000003438013111292014112820N000000000000N80       000040400K 10000000010000003423           
CUS0862700000102045302003         COLTON ELAINE       1333 HARDEN LN                          000N        CARE OF             
MTR08627000001000000000000000RA              33082281    005800890000008900000520000003NN  NNW 000                       N    
RDG08627000WATRL000000004K00000000000002615013411292014113028N000000000000N80       000390400K 10000000010000002609           
CUS0862700000102045303001         OWENS DIANA L       1335 HARDEN LN                          000N        CARE OF             
MTR08627000001000000000000000RA              33082284    005800900000009000000520000003NN  NNW 000                       N    
RDG08627000WATRL000000004K00000000000002462013511292014113035N000000000000N80       000070400K 10000000010000002456           
CUS0862700000102045304009         IMMANUEL GRAHAM     1332 HARDEN LN                          000N        CARE OF             
MTR08627000001000000000000000RA              22606958    005800910000009100000520000003NN  NNW 000                       N    
RDG08627000WATRL000000004K00000000000005758013311292014112949N000000000000N80       000260400K 10000000010000005748           
CUS0862700000102045305006         FRIEDMANN ALAN      1330 HARDEN LN                          000N        CARE OF             
MTR08627000001000000000000000RA              29683288    005800920000009200000520000003NN  NNW 000                       N    
RDG08627000WATRL000000004K00000000000003727013211292014112923N000000000000N80       000630400K 10000000010000003701           
CUS0862700000102045306004         GHASSAN SALMAN SHAAN1328 HARDEN LN                          000N        CARE OF             
MTR08627000001000000000000000RA              38984357    005800930000009300000520000003NN  NNW 000                       N    
RDG08627000WATRL000000004K00000000000002008012911292014112547N000000000000N80       000050400K 10000000010000001987           
CUS0862700000102045307002         BERNSTEIN JACK      1326 HARDEN LN                          000N        CARE OF             
MTR08627000001000000000000000RA              38984360    005800940000009400000520000003NN  NNW 000                       N    
RDG08627000WATRL000000004K00000000000002344012811292014112542N000000000000N80       001440400K 10000000010000002333           
CUS0862700000102045308000         REAMER DAVID A      1324 HARDEN LN                          000N        CARE OF             
MTR08627000001000000000000000RA              40321422    005800950000009500000520000003NN  NNW 000                       N    
RDG08627000WATRL000000004K00000000000001448012511292014112208N000000000000N80       000800400K 10000000010000001434           
CUS0862700000102045309008         BLITZSTEIN ROBERT J 1322 HARDEN LN                          000N        CARE OF             
MTR08627000001000000000000000RA              99286020    005800960000009600000570000003NN  NNW 000                       N    
RDG08627000WATRL000000004K00000000000001753012411292014112048N000000000000N80       000330400K 10000000010000001730           
CUS0862700000108411904009         GERALYN PIELAGO     1306 HARDEN LN                          000N        CARE OF             
MTR08627000001000000000000000RA              50787241    005800970000009700000520000003NN  NNW 000                       N    
RDG08627000WATRL000000004K00000000000001223008611292014103510N000000000000N80       000610400K 10000000010000001210           
CUS0862700000108411905006         SYLVESTER KIRK D    1304 HARDEN LN                          000N        CARE OF             
MTR08627000001000000000000000RA              50787612    005800980000009800000520000003NN  NNW 000                       N    
RDG08627000WATRL000000004K00000000000001146008511292014103409N000000000000N80       000850400K 10000000010000001129           
CUS0862700000108411906004         MCLEAN ELEANOR      1302 HARDEN LN                          000N        CARE OF             
MTR08627000001000000000000000RA              48594950    005800990000009900000520000003NN  NNW 000                       N    
RDG08627000WATRL000000004K00000000000001881008411292014103244N000000000000N80       001810400K 10000000010000001859           
CUS0862700000102045312002         BICKEL DAVID K      1319 CHURCH HILL DR                     000N        CARE OF             
MTR08627000001000000000000000RA              38984358    005801000000010000000520000003NN  NNW 000                       N    
RDG08627000WATRL000000004K00000000000002133014311292014114022N000000000000N80       001170400K 10000000010000002107           
CUS0862700000102045313000         EADDY SINCLAIR,SR   1321 CHURCH HILL DR                     000N        CARE OF             
MTR08627000001000000000000000RA              38984361    005801010000010100000520000003NN  NNW 000                       N    
RDG08627000WATRL000000004K00000000000002817014411292014114027N000000000000N80       000050400K 10000000010000002812           
CUS0862700000102045314008         ASSOCIATED JEWISH   1323 CHURCH HILL DR                     000N        CARE OF             
MTR08627000001000000000000000RA              75617025    005801020000010200000350000003NN  NNW 000                       N    
RDG08627000WATRL000000004K00000000000000154014111292014113809N000000000000N80       000570400K 10000000010000000123           
CUS0862700000102045315005         FINEBLUM CHARLES A  1325 CHURCH HILL DR                     000N        CARE OF             
MTR08627000001000000000000000RA              14907575    005801030000010300000310000003NN  NNW 000                       N    
RDG08627000WATRL000000004K00000000000001566014211292014113825N000000000000N80       000160400K 10000000010000001504           
CUS0862700000102045316003         HERSKOVITZ HARVEY H 1334 CHURCH HILL DR                     000N        CARE OF             
MTR08627000001000000000000000RA              41082835    005801040000010400000520000003NN  NNW 000                       N    
RDG08627000WATRL000000004K00000000000002564013611292014113414N000000000000N80       002190400K 10000000010000002552           
CUS0862700000102045317001         EMERGE INC          1332 CHURCH HILL DR                     000N        CARE OF             
MTR08627000001000000000000000RA              42808082    005801050000010500000520000003NN  NNW 000                       N    
RDG08627000WATRL000000004K00000000000003696013711292014113518N000300000010N80       000640400K 10000000010000003670           
CUS0862700000102045318009         JAMES PHILLIP A,JR  1330 CHURCH HILL DR                     000N        CARE OF             
MTR08627000001000000000000000RA              30525887    005801060000010600000520000003NN  NNW 000                       N    
RDG08627000WATRL000000004K00000000000004222013811292014113610N000000000011N80       000210400K 10000000010000004213           
CUS0862700000102045319007         HAMPTON CECELIA     1328 CHURCH HILL DR                     000N        CARE OF             
MTR08627000001000000000000000RA              27131864    005801070000010700000520000003NN  NNW 000                       N    
RDG08627000WATRL000000004K00000000000004169013911292014113658N000000000000N80       000480400K 10000000010000004148           
CUS0862700000102045320005         QUINCE KHARY E      1326 CHURCH HILL DR                     000N        CARE OF             
MTR08627000001000000000000000RA              27131860    005801080000010800000520000003NN  NNW 000                       N    
RDG08627000WATRL000000004K00000000000005094014011292014113712N000000000000N80       000140400K 10000000010000005069           
CUS0862700000102045321003         ALEXIS MARK STEVEN  1324 CHURCH HILL DR                     000N        CARE OF             
MTR08627000001000000000000000RA              99291491    005801090000010900000570000003NN  NNW 000                       N    
RDG08627000WATRL000000004K00000000000000781014511292014114135N000000000000N80       000680400K 10000000010000000773           
CUS0862700000102045322001         DAWSON GREGORY J    1322 CHURCH HILL DR                     000N        CARE OF             
MTR08627000001000000000000000RA              99291492    005801100000011000000570000003NN  NNW 000                       N    
RDG08627000WATRL000000004K00000000000001309014611292014114143N000000000000N80       000080400K 10000000010000001276           
CUS0862700000102045323009         STANCIL RENARD J    1320 CHURCH HILL DR                     000N        CARE OF             
MTR08627000001000000000000000RA              23427374    005801110000011100000520000003NY  NNW 000                       N    
MTM0862700023427374    CLOUDY GLASS                                                                                           
RDG08627000WATRL000000004K00000000000001984014711292014114316N000000000000N80       000930400K 10000000010000001978           
CUS0862700000102045324007         AYUK JANET EGBE     1318 CHURCH HILL DR                     000N        CARE OF             
MTR08627000001000000000000000RA              23427369    005801120000011200000520000003NY  NNW 000                       N    
MTM0862700023427369    RD OK  CLOUDY GLASS                                                                                    
RDG08627000WATRL000000004K00000000000004259014811292014114443N000000000000N80       000870400K 10000000010000004021           
CUS0862700000102045325004         VALERIE A CASH      1316 CHURCH HILL DR                     000N        CARE OF             
MTR08627000001000000000000000RA              40321459    005801130000011300000520000003NN  NNW 000                       N    
RDG08627000WATRL000000004K00000000000002939014911292014114725N000400000010N80       001620400K 10000000010000002934           
CUS0862700000102045326002         ROMERO CHRISTOPHER  1314 CHURCH HILL DR                     000N        CARE OF             
MTR08627000001000000000000000RA              14901386    005801140000011400000310000003NN  NNW 000                       N    
RDG08627000WATRL000000004K00000000000000750015211292014115101N000000000000N80       000700400K 10000000010000000726           
CUS0862700000102045327000         DENICK BERNARD S    1312 CHURCH HILL DR                     000N        CARE OF             
MTR08627000001000000000000000RA              33734413    005801150000011500000520000003NN  NNW 000                       N    
RDG08627000WATRL000000004K00000000000002605015311292014115128N000000000000N80       000270400K 10000000010000002591           
CUS0862700000102045328008         CALLENDER DEREK F   1310 CHURCH HILL DR                     000N        CARE OF             
MTR08627000001000000000000000RA              14901391    005801160000011600000310000003NN  NNW 000                       N    
RDG08627000WATRL000000004K00000000000002557015411292014115200N000000000000N80       000320400K 10000000010000002488           
CUS0862700000102045329006         MICHAEL P GORDON    1308 CHURCH HILL DR                     000N        CARE OF             
MTR08627000001000000000000000RA              19459512    005801170000011700000520000003NN  NNW 000                       N    
RDG08627000WATRL000000004K00000000000005440015511292014115244N000000000000N80       000440400K 10000000010000005421           
CUS0862700000102045330004         CARLYLE ADRIENNE L  1306 CHURCH HILL DR                     000N        CARE OF             
MTR08627000001000000000000000RA              26011165    005801180000011800000520000003NN  NNW 000                       N    
RDG08627000WATRL000000004K00000000000002618015911292014115815N000000000000N80       001720400K 10000000010000002613           
CUS0862700000102045331002         BALENSON JEFFREY S  320 CHURCH LN                           000N        CARE OF             
MTR08627000001000000000000000RA              10015412    005801190000011900000570000003NN  NNW 000                       N    
RDG08627000WATRL000000004K00000000000000378008311292014102943N000000000000N80       001780400K 10000000010000000343           
CUS0862700000102045332000         JOHNSON JEAN L      311 CHURCH LN                           000N        CARE OF             
MTR08627000001000000000000000RA              23646287    005801200000012000000520000003NN  NNW 000                       N    
RDG08627000WATRL000000004K00000000000001395008011292014101711N000000000000N80       000210400K 10000000010000001390           
CUS0862700000102045333008         CASSADAY CLAIR EUGEN309 CHURCH LN                           000N        CARE OF             
MTR08627000001000000000000000RA              39289573    005801210000012100000520000003NN  NNW 000                       N    
RDG08627000WATRL000000004K00000000000002214007911292014101650N000000000000N80       000320400K 10000000010000002202           
CUS0862700000102045334006         ENOS EVERETT M      307 CHURCH LN                           000N        CARE OF             
MTR08627000001000000000000000RA              27818737    005801220000012200000520000003NN  NNW 000                       N    
RDG08627000WATRL000000004K00000000000003729007811292014101618N000000000000N80       000730400K 10000000010000003723           
CUS0862700000102045335003         MEDAIRY GEORGE C,JR 303 CHURCH LN                           000N        CARE OF             
MTR08627000001000000000000000RA              14922001    005801230000012300000310000003NN  NNW 000                       N    
RDG08627000WATRL000000004K00000000000000457007711292014101505N000000000000N80       000430400K 10000000010000000444           
CUS0862700000102045336001         JOSEPH A ABEL       301 CHURCH LN                           000N        CARE OF             
MTR08627000001000000000000000RA              52286562    005801240000012400000520000003NN  NNW 000                       N    
RDG08627000WATRL000000004K00000000000001355007611292014101422N000300000010N80       000790400K 10000000010000001337           
CUS0862700000102045337009         IPPOLITO CHARLES C  227 CHURCH LN                           000N        CARE OF             
MTR08627000001000000000000000RA              01101163    005801250000012500000610000003NN  NNW 000                       N    
RDG08627000WATRL000000004K00000000000000876007011292014100502N000000000000N80       000310400K 10000000010000000857           
CUS0862700000102045338007         SELL ARNOLD J       225 CHURCH LN                           000N        CARE OF             
MTR08627000001000000000000000RA              48586936    005801260000012600000520000003NN  NNW 000                       N    
RDG08627000WATRL000000004K00000000000002330006911292014100431N000000000000N80       000500400K 10000000010000002307           
CUS0862700000102045339005         NORINSKY HILLARY A  223 CHURCH LN                           000N        CARE OF             
MTR08627000001000000000000000RA              10002678    005801270000012700000570000003NN  NNW 000                       N    
RDG08627000WATRL000000004K00000000000000389006811292014100341N000000000000N80       000310400K 10000000010000000369           
CUS0862700000102348945003         LANGREHR MARK       221 CHURCH LN                           000N        CARE OF             
MTR08627000001000000000000000RA              14914015    005801280000012800000310000003NN  NNW 000                       N    
RDG08627000WATRL000000004K00000000000001130006711292014100310N000000000000N80       003020400K 10000000010000001116           
CUS0862700000102045340003         ALALOU ALI          219 CHURCH LN                           000N        CARE OF             
MTR08627000001000000000000000RA              20968004    005801290000012900000520000003NN  NNW 000                       N    
RDG08627000WATRL000000004K00000000000005795006511292014095527N000000000000N80       001640400K 10000000010000005790           
CUS0862700000102045341001         LACIENSKI STANLEY   217 CHURCH LN                           000N        CARE OF             
MTR08627000001000000000000000RA              14929761    005801300000013000000310000003NN  NNW 000                       N    
RDG08627000WATRL000000004K00000000000000498006411292014095243N000000000000N80       004070400K 10000000010000000472           
CUS0862700000102444759001         ROSS MICHAEL        215 CHURCH LN                           000N        CARE OF             
MTR08627000001000000000000000RA              10019429    005801310000013100000570000003NN  NNW 000                       N    
RDG08627000WATRL000000004K00000000000000196006011292014094156N000000000000N80       002610400K 10000000010000000176           
CUS0862700000102045342009         HILL EDMUND M       213 CHURCH LN                           000N        CARE OF             
MTR08627000001000000000000000RA              45382602    005801320000013200000520000003NN  NNW 000                       N    
RDG08627000WATRL000000004K00000000000001276005811292014093636N000000000000N80       001180400K 10000000010000001260           
CUS0862700000102045343007         ESAKOFF LAUREN B    211 CHURCH LN                           000N        CARE OF             
MTR08627000001000000000000000RA              39080407    007501330000013300000520000003NN  NNW 000                       N    
RDG08627000WATRL000000004K00000000000001335005911292014093735N000000000000N80       000590400K 10000000010000001316           
CUS0862700000102045344005         PRESSLEY JAMES      207 CHURCH LN                           000N        CARE OF             
MTR08627000001000000000000000RA              76346866    005801340000013400000350000003NN  NNW 000                       N    
RDG08627000WATRL000000004K00000000000000081005111292014092811N000000000000N80       000960400K 10000000010000000050           
CUS0862700000102045345002         MANSFIELD MARGARET A205 CHURCH LN                           000N        CARE OF             
MTR08627000001000000000000000RA              11334363    005801350000013500000570000003NN  NNW 000                       N    
RDG08627000WATRL000000004K00000000000006677005211292014092900N000000000000N80       000490400K 10000000010000006673           
CUS0862700000102045346000         MARCIA J JONES      201 CHURCH LN                           000N        CARE OF             
MTR08627000001000000000000000RA              32899969    005801360000013600000520000003NN  NNW 000                       N    
RDG08627000WATRL000000004K00000000000002433005011292014092635N000000000000N80       001310400K 10000000010000002420           
CUS0862700000108382693003         BRIGHTSIDE PROPERTIE1310 BEDFORD AVE                        000N        CARE OF             
MTR08627000001000000000000000RA              36691435    005801370000013700000520000003NN  NNW 000                       N    
RDG08627000WATRL000000004K00000000000002481002911292014084843N000000000000N80       001600400K 10000000010000002477           
CUS0862700000102045347008         LALLY SEAN          115 CHURCH LN                           000N        CARE OF             
MTR08627000001000000000000000RA              10008259    005801380000013800000570000003NN  NNW 000                       N    
RDG08627000WATRL000000004K00000000000000571004811292014092322N000000000000N80       000630400K 10000000010000000532           
CUS0862700000102045348006         BRYANT OWEN KEITH   113 CHURCH LN                           000N        CARE OF             
MTR08627000001000000000000000RA              01085085    005801390000013900000610000003NN  NNW 000                       N    
RDG08627000WATRL000000004K00000000000001781004711292014092219N000000000000N80       000530400K 10000000010000001719           
CUS0862700000102045349004         BOWERSOX GORDON EDWA111 CHURCH LN                           000N        CARE OF             
MTR08627000001000000000000000RA              41086296    005801400000014000000520000003NN  NNW 000                       N    
RDG08627000WATRL000000004K00000000000002916004611292014092126N000000000000N80       000780400K 10000000010000002880           
CUS0862700000102045350002         OSTER IGOR          109 CHURCH LN                           000N        CARE OF             
MTR08627000001000000000000000RA              01111869    005801410000014100000610000003NN  NNW 000                       N    
RDG08627000WATRL000000004K00000000000001700004511292014092008N000000000000N80       000320400K 10000000010000001674           
CUS0862700000102434513004         CARIA V TAYLOR      107 CHURCH LN                           000N        CARE OF             
MTR08627000001000000000000000RA              01097171    005801420000014200000610000003NN  NNW 000                       N    
RDG08627000WATRL000000004K00000000000000629004411292014091936N000000000000N80       000200400K 10000000010000000611           
CUS0862700000102434512006         HATCH JOANN         105 CHURCH LN                           000N        CARE OF             
MTR08627000001000000000000000RA              14901369    005801430000014300000310000003NN  NNW 000                       N    
RDG08627000WATRL000000004K00000000000000534004311292014091916N000000000000N80       000250400K 10000000010000000510           
CUS0862700000102045351000         NGUYEN ANNA  NGUYEN 103 CHURCH LN                           000N        CARE OF             
MTR08627000001000000000000000RA              01083654    005801440000014400000610000003NN  NNW 000                       N    
RDG08627000WATRL000000004K00000000000001324004211292014091851N000000000000N80       001200400K 10000000010000001269           
CUS0862700000102045352008         ST CHARLES BORROMEOS101 CHURCH LN                           000N        CARE OF             
MTR08627000001000000000000000RA              41257405    005801450000014500000520000003NN  NNW 000                       N    
RDG08627000WATRL000000004K00000000000007323004011292014091157N000000000000N80       001780400K 10000000010000007114           
CUS0862700000108418046002         ST CHARLES BORROMEOS101 CHURCH LN                           000N        CARE OF             
MTR08627000001000000000000000RA              28151489    001501460000014600000520000003NN  NNW 000                       N    
RDG08627000WATRL000000005K00000000000002473004111292014091651N000300000010N80       001970500K 10000000010000002426           
CUS0862700000102045354004         MCKIM EUGENIA H     9 CHURCH LN                             000N        CARE OF             
MTR08627000001000000000000000RA              33082942    005801470000014700000520000003NN  NNW 000                       N    
RDG08627000WATRL000000004K00000000000002204003311292014085757N000000000000N80       000470400K 10000000010000002193           
CUS0862700000102045355001         PIKESVILLE PROFESSIO7 CHURCH LN                             000N        CARE OF             
MTR08627000001000000000000000RA              01104976    001501480000014800000610000003NN  NNW 000                       N    
RDG08627000WATRL000000005K00000000000001357003211292014085710N000000000000N80       000300500K 10000000010000001332           
CUS0862700000102045356009         GUPPY & MOOSE LLC   5 CHURCH LN                             000N        CARE OF             
MTR08627000001000000000000000RA              10012505    005801490000014900000570000003NN  NNW 000                       N    
RDG08627000WATRL000000004K00000000000000024003111292014085640N000000000010N80       000910400K 10000000010000000023           
CUS0862700000102045358005         STRAUSS WILLIAM R   1 CHURCH LN                             000N        CARE OF             
MTR08627000001000000000000000RA              50786701    005801500000015000000520000003NN  NNW 000                       N    
RDG08627000WATRL000000004K00000000000001917003011292014085509N000000000000N80       003860400K 10000000010000001901           
CUS0862700000102045359003         PIKESVILLE REALTY CO1220-24 REISTERSTOWN RD                 000N        CARE OF             
MTR08627000001000000000000000RA              99999999    005801510000015100000570000003NN  NNW 000                       N    
RDG08627000WATRL000000004K00000000000003372001711292014082319N000000000000N80       001060400K 10000000010000003155           
CUS0862700000102045360001         PIKESVILLE REALTY CO1216-18 REISTERSTOWN RD                 000N        CARE OF             
MTR08627000001000000000000000RA              00133280    005801520000015200000570000003NN  NNW 000                       N    
RDG08627000WATRL000000004K00000000000001593001811292014082434N000000000000N80       000750400K 10000000010000001453           
CUS0862700000102045361009         FIREHOUSE HOLDINGS L1214 REISTERSTOWN RD                    000N        CARE OF             
MTR08627000001000000000000000RA              01077226    005801530000015300000610000003NN  NNW 000                       N    
RDG08627000WATRL000000004K00000000000000000001911292014082506N000000000000N80       000320400K 10000000010000000000           
CUS0862700000102045362007         JOEL B FEDDER ETAL  1210-1/2 REISTERSTOWN RD                000N        CARE OF             
MTR08627000001000000000000000RA              10010174    005801540000015400000570000003NN  NNW 000                       N    
RDG08627000WATRL000000004K00000000000000473002011292014082549N000000000000N80       000430400K 10000000010000000403           
CUS0862700000102045363005         JOEL D FEDDER & ETAL1208-1/2 REISTERSTOWN RD                000N        CARE OF             
MTR08627000001000000000000000RA              14905722    005801550000015500000310000003NN  NNW 000                       N    
RDG08627000WATRL000000004K00000000000000016002111292014082621N000000000010N80       000320400K 10000000010000000015           
CUS0862700000102045364003         J D FEDDER/S F GARTE1208 REISTERSTOWN RD                    000N        CARE OF             
MTR08627000001000000000000000RA              01114444    005801560000015600000610000003NY  NNW 000                       N    
MTM0862700001114444    RD METER INFO OK                                                                                       
RDG08627000WATRL000000004K00000000000000000002211292014082803N000000000010N80       001020400K 10000000010000000015           
CUS0862700000102045365000         J D FEDDER/S F GARTE1206-1/2 REISTERSTOWN RD                000N        CARE OF             
MTR08627000001000000000000000RA              75617407    005801570000015700000350000003NN  NNW 000                       N    
RDG08627000WATRL000000004K00000000000000197002311292014082829N000000000000N80       000260400K 10000000010000000154           
CUS0862700000102045366008         PIKESVILLE REALTY CO1204-1/2 REISTERSTOWN RD                000N        CARE OF             
MTR08627000001000000000000000RA              01114441    005801580000015800000610000003NN  NNW 000                       N    
RDG08627000WATRL000000004K00000000000000997002411292014082902N000000000000N80       000330400K 10000000010000000828           
CUS0862700000102045367006         SUDBROOK ASSOCIATES 1204 REISTERSTOWN RD                    000N        CARE OF             
MTR08627000001000000000000000RA              45379679    005801590000015900000520000003NN  NNW 000                       N    
RDG08627000WATRL000000004K00000000000003156002511292014082945N000000000000N80       000430400K 10000000010000002777           
RTR08627000NN01590159000001590000000001590159000236YY015901590159000000000000000000000000000002    11132014NY020000 I         
RHD08636600NN02420242000002420000000002420242000285NY024202420242000700010000000000000000000002    11282014NY020000 N         
CUS0863660000102046802001         COPPOLA ANNETTE P   12802 SAGAMORE FOREST LN                000N        CARE OF             
MTR08636600001000000000000000RA              26016237    005800010000000100000520000003NN  NNW 000                       N    
RDG08636600WATRL000000004K00000000000005488000112012014084102N000000000000N83       000000400K 10000000010000005474           
CUS0863660000102046803009         RHINEHART DAVID P   12800 SAGAMORE FOREST LN                000N        CARE OF             
MTR08636600001000000000000000RA              26018784    005800020000000200000520000003NN  NNW 000                       N    
RDG08636600WATRL000000004K00000000000004672000212012014084210N000000000000N83       000680400K 10000000010000004653           
CUS0863660000102046804007         THOMAS RAJIV G      12708 SAGAMORE FOREST LN                000N        CARE OF             
MTR08636600001000000000000000RA              26007655    005800030000000300000520000003NN  NNW 000                       N    
RDG08636600WATRL000000004K00000000000003896000312012014084714N000000000000N83       003040400K 10000000010000003885           
CUS0863660000102046805004         SCHINGECK ROBERT E  12706 SAGAMORE FOREST LN                000N        CARE OF             
MTR08636600001000000000000000RA              14917746    005800040000000400000310000003NN  NNW 000                       N    
RDG08636600WATRL000000004K00000000000000441000412012014084844N000000000000N83       000900400K 10000000010000000435           
CUS0863660000102046806002         BROOK GAIL MACHT    12704 SAGAMORE FOREST LN                000N        CARE OF             
MTR08636600001000000000000000RA              33735729    005800050000000500000520000003NN  NNW 000                       N    
RDG08636600WATRL000000004K00000000000002311000512012014085040N000000000000N83       001160400K 10000000010000002301           
CUS0863660000102046807000         ROSMAN MICHAEL R    12621 MOUNT LAUREL CT                   000N        CARE OF             
MTR08636600001000000000000000RA              36687555    005800060000000600000520000003NN  NNW 000                       N    
RDG08636600WATRL000000004K00000000000002895000612012014085138N000000000000N83       000580400K 10000000010000002872           
CUS0863660000102046809006         COLE CRAIG L        12702 SAGAMORE FOREST LN                000N        CARE OF             
MTR08636600001000000000000000RA              30515517    005800070000000700000520000003NN  NNW 000                       N    
RDG08636600WATRL000000004K00000000000004620000712012014085252N000400000010N83       000740400K 10000000010000004578           
CUS0863660000102046810004         HUGH L. WILSON      12700 SAGAMORE FOREST LN                000N        CARE OF             
MTR08636600001000000000000000RA              10005479    005800080000000800000570000003NN  NNW 000                       N    
RDG08636600WATRL000000004K00000000000000802000812012014085519N000000000000N83       001470400K 10000000010000000802           
CUS0863660000102046811002         NEUTZE WILLIAM C    12608 SAGAMORE FOREST LN                000N        CARE OF             
MTR08636600001000000000000000RA              33083091    005800090000000900000520000003NN  NNW 000                       N    
RDG08636600WATRL000000004K00000000000001475000912012014085643N000000000000N83       000840400K 10000000010000001469           
CUS0863660000102046812000         HOFFMAN JAMES E     12606 SAGAMORE FOREST LN                000N        CARE OF             
MTR08636600001000000000000000RA              14916610    005800100000001000000310000003NN  NNW 000                       N    
RDG08636600WATRL000000004K00000000000000677001012012014085917N000000000000N83       001540400K 10000000010000000659           
CUS0863660000102046813008         MYERS JEFFREY CRAIG 12604 SAGAMORE FOREST LN                000N        CARE OF             
MTR08636600001000000000000000RA              10013838    005800110000001100000570000003NN  NNW 000                       N    
RDG08636600WATRL000000004K00000000000000297001112012014090140N000000000000N83       001430400K 10000000010000000283           
CUS0863660000102046814006         LAWRENCE HARRIS     12602 SAGAMORE FOREST LN                000N        CARE OF             
MTR08636600001000000000000000RA              44088030    005800120000001200000520000003NN  NNW 000                       N    
RDG08636600WATRL000000004K00000000000001587001212012014090401N000000000000N83       001410400K 10000000010000001581           
CUS0863660000102046815003         JOSEPH R DENGLER    12600 SAGAMORE FOREST LN                000N        CARE OF             
MTR08636600001000000000000000RA              44088031    005800130000001300000520000003NN  NNW 000                       N    
RDG08636600WATRL000000004K00000000000001541001312012014090505N000000000000N83       000640400K 10000000010000001510           
CUS0863660000102046816001         HOLMES ERIC P       712 ST PAUL AVE                         000N        CARE OF             
MTR08636600001000000000000000RA              29084572    005800140000001400000520000003NN  NNW 000                       N    
RDG08636600WATRL000000004K00000000000003619001412012014090935N000000000001N83       001530400K 10000000010000003605           
CUS0863660000102046817009         CATALINA M MCHENRY  710 ST PAUL AVE                         000N        CARE OF             
MTR08636600001000000000000000RA              29683785    005800150000001500000520000003NN  NNW 000                       N    
RDG08636600WATRL000000004K00000000000003536001512012014090702N000000000000N83       000310400K 10000000010000003525           
CUS0863660000102046818007         BEAVERS NANCY C     12516 SAGAMORE FOREST LN                000N        CARE OF             
MTR08636600001000000000000000RA              26002196    005800160000001600000520000003NN  NNW 000                       N    
RDG08636600WATRL000000004K00000000000005217001612012014091127N000000000000N83       001120400K 10000000010000005201           
CUS0863660000102350177008         CROWLEY MARK J      12514 SAGAMORE FOREST LN                000N        CARE OF             
MTR08636600001000000000000000RA              10015017    005800170000001700000570000003NN  NNW 000                       N    
RDG08636600WATRL000000004K00000000000000280001712012014091230N000000000000N83       000630400K 10000000010000000258           
CUS0863660000102046819005         FRED M. STEINBERG   12512 SAGAMORE FOREST LN                000N        CARE OF             
MTR08636600001000000000000000RA              26002195    005800180000001800000520000003NN  NNW 000                       N    
RDG08636600WATRL000000004K00000000000005022001812012014091441N000000000000N83       001310400K 10000000010000005011           
CUS0863660000102046820003         NEWMAN JONATHAN     12510 SAGAMORE FOREST LN                000N        CARE OF             
MTR08636600001000000000000000RA              39585088    005800190000001900000520000003NN  NNW 000                       N    
RDG08636600WATRL000000004K00000000000002932001912012014091739N000000000000N83       001780400K 10000000010000002902           
CUS0863660000102046823007         POLANSKY PAUL M     718 ST PAUL AVE                         000N        CARE OF             
MTR08636600001000000000000000RA              32574948    005800200000002000000520000003NN  NNW 000                       N    
RDG08636600WATRL000000004K00000000000005917002012012014092042N000000000000N83       001830400K 10000000010000005895           
CUS0863660000102046824005         HANIT AIZEN         716 ST PAUL AVE                         000N        CARE OF             
MTR08636600001000000000000000RA              24772972    005800210000002100000520000003NN  NNW 000                       N    
RDG08636600WATRL000000004K00000000000004963002112012014092221N000000000000N83       000990400K 10000000010000004908           
CUS0863660000102046825002         JOHN K MORGAN       714 ST PAUL AVE                         000N        CARE OF             
MTR08636600001000000000000000RA              14921257    005800220000002200000310000003NN  NNW 000                       N    
RDG08636600WATRL000000004K00000000000000747002212012014092312N000000000000N83       000510400K 10000000010000000729           
CUS0863660000102046826000         GEHRING-LIKER JOHN I708 ST PAUL AVE                         000N        CARE OF             
MTR08636600001000000000000000RA              52286452    005800230000002300000520000003NN  NNW 000                       N    
RDG08636600WATRL000000004K00000000000003403002312012014092427N000000000000N83       000750400K 10000000010000003395           
CUS0863660000102046827008         SHEITEL FERN        706 ST PAUL AVE                         000N        CARE OF             
MTR08636600001000000000000000RA              14916622    005800240000002400000310000003NN  NNW 000                       N    
RDG08636600WATRL000000004K00000000000001513002412012014092508N000000000000N83       000410400K 10000000010000001474           
CUS0863660000102046828006         CODD BERNARD P      704 ST PAUL AVE                         000N        CARE OF             
MTR08636600001000000000000000RA              27214088    005800250000002500000520000003NN  NNW 000                       N    
RDG08636600WATRL000000004K00000000000004162002512012014092643N000000000000N83       000950400K 10000000010000004119           
CUS0863660000102046829004         BERKO DAVID A       702 ST PAUL AVE                         000N        CARE OF             
MTR08636600001000000000000000RA              30514030    005800260000002600000520000003NN  NNW 000                       N    
RDG08636600WATRL000000004K00000000000002937002612012014092754N000000000000N83       000710400K 10000000010000002924           
CUS0863660000102046830002         SHAMIS ROMAN        700 ST PAUL AVE                         000N        CARE OF             
MTR08636600001000000000000000RA              27830385    005800270000002700000520000003NN  NNW 000                       N    
RDG08636600WATRL000000004K00000000000005612002712012014093002N000000000000N83       001280400K 10000000010000005590           
CUS0863660000102046831000         STOKES PAUL         12603 MOUNT LAUREL CT                   000N        CARE OF             
MTR08636600001000000000000000RA              26013843    005800280000002800000520000003NN  NNW 000                       N    
RDG08636600WATRL000000004K00000000000003765002812012014093116N000000000000N83       000740400K 10000000010000003755           
CUS0863660000102046832008         STEWART CHARLES I,4T12605 MOUNT LAUREL CT                   000N        CARE OF             
MTR08636600001000000000000000RA              48589811    005800290000002900000520000003NN  NNW 000                       N    
RDG08636600WATRL000000004K00000000000001357002912012014093230N000000000000N83       000740400K 10000000010000001347           
CUS0863660000102046833006         MARY A TWOMEY       12607 MOUNT LAUREL CT                   000N        CARE OF             
MTR08636600001000000000000000RA              26013840    005800300000003000000520000003NN  NNW 000                       N    
RDG08636600WATRL000000004K00000000000003683003012012014093338N000000000000N83       000680400K 10000000010000003675           
CUS0863660000102046834004         SACHS KAREN LEE     12609 MOUNT LAUREL CT                   000N        CARE OF             
MTR08636600001000000000000000RA              36689265    005800310000003100000520000003NN  NNW 000                       N    
RDG08636600WATRL000000004K00000000000000000000000000000000000 000000000000U         000000400  10000000010000004249           
CUS0863660000102046835001         TANNENBAUM HARVEY   12611 MOUNT LAUREL CT                   000N        CARE OF             
MTR08636600001000000000000000RA              24231982    005800320000003200000520000003NN  NNW 000                       N    
RDG08636600WATRL000000004K00000000000002543004112012014095610N000000000000N83       005370400K 10000000010000002536           
CUS0863660000102046836009         GARY A KLEIN        12613 MOUNT LAUREL CT                   000N        CARE OF             
MTR08636600001000000000000000RA              26013842    005800330000003300000520000003NN  NNW 000                       N    
RDG08636600WATRL000000004K00000000000006291004212012014095653N000000000000N83       000430400K 10000000010000006262           
CUS0863660000102046837007         GEBLER GARY         12615 MOUNT LAUREL CT                   000N        CARE OF             
MTR08636600001000000000000000RA              26013825    005800340000003400000520000003NN  NNW 000                       N    
RDG08636600WATRL000000004K00000000000005238004312012014095747N000000000000N83       000540400K 10000000010000005210           
CUS0863660000102046838005         MEDNICK STEVEN      12617 MOUNT LAUREL CT                   000N        CARE OF             
MTR08636600001000000000000000RA              35097703    005800350000003500000520000003NN  NNW 000                       N    
RDG08636600WATRL000000004K00000000000002698004412012014095914N000000000000N83       000870400K 10000000010000002670           
CUS0863660000102046808008         HARDENBURG WILLIAM J12619 MOUNT LAUREL CT                   000N        CARE OF             
MTR08636600001000000000000000RA              00000000    005800360000003600000600000003NN  NNW 000                       N    
RDG08636600WATRL000000004K00000000000000000005212012014101406S002000000000N83       001860400K 10000000010000000113           
CUS0863660000102046839003         HORSHAM JOHN W      12622 MOUNT LAUREL CT                   000N        CARE OF             
MTR08636600001000000000000000RA              27822521    005800370000003700000520000003NN  NNW 000                       N    
RDG08636600WATRL000000004K00000000000002457004512012014100009N000000000000N83       000550400K 10000000010000002446           
CUS0863660000102046840001         FRANKLIN ANDREW B   12620 MOUNT LAUREL CT                   000N        CARE OF             
MTR08636600001000000000000000RA              32900724    005800380000003800000520000003NN  NNW 000                       N    
RDG08636600WATRL000000004K00000000000003902004612012014100236N000000000000N83       001470400K 10000000010000003877           
CUS0863660000102046841009         LEGENDRE STEPHEN M  12618 MOUNT LAUREL CT                   000N        CARE OF             
MTR08636600001000000000000000RA              29680632    005800390000003900000520000003NN  NNW 000                       N    
RDG08636600WATRL000000004K00000000000002851004712012014100307N000000000000N83       000310400K 10000000010000002838           
CUS0863660000102046842007         TRUDIL DAVID P      12616 MOUNT LAUREL CT                   000N        CARE OF             
MTR08636600001000000000000000RA              26013826    005800400000004000000520000003NN  NNW 000                       N    
RDG08636600WATRL000000004K00000000000005031004812012014100412N000400000010N83       000650400K 10000000010000005027           
CUS0863660000102046843005         HERTS JOHN B        12614 MOUNT LAUREL CT                   000N        CARE OF             
MTR08636600001000000000000000RA              27819269    005800410000004100000520000003NN  NNW 000                       N    
RDG08636600WATRL000000004K00000000000004297004912012014100502N000000000000N83       000500400K 10000000010000004279           
CUS0863660000102046844003         HORTA MICAHEL C     12612 MOUNT LAUREL CT                   000N        CARE OF             
MTR08636600001000000000000000RA              99288126    005800420000004200000570000003NN  NNW 000                       N    
RDG08636600WATRL000000004K00000000000002387005012012014100613N000000000000N83       000710400K 10000000010000002383           
CUS0863660000102046845000         WOLF JOSEPH R       14 TRIGHTON CT                          000N        CARE OF             
MTR08636600001000000000000000RA              31581797    005800430000004300000520000003NN  NNW 000                       N    
RDG08636600WATRL000000004K00000000000003371005112012014101100N000000000000N83       002870400K 10000000010000003357           
CUS0863660000102046846008         MANKO GARY A        12608 MOUNT LAUREL CT                   000N        CARE OF             
MTR08636600001000000000000000RA              27213579    005800440000004400000520000003NN  NNW 000                       N    
RDG08636600WATRL000000004K00000000000006337005312012014101746N000000000000N83       002200400K 10000000010000006324           
CUS0863660000102046847006         BRACEY LEONARD      12606 MOUNT LAUREL CT                   000N        CARE OF             
MTR08636600001000000000000000RA              27213634    005800450000004500000520000003NN  NNW 000                       N    
RDG08636600WATRL000000004K00000000000006597003112012014093455N000000000000N83       000770400K 10000000010000006559           
CUS0863660000102046848004         SHAPIRO MARK A      12604 MOUNT LAUREL CT                   000N        CARE OF             
MTR08636600001000000000000000RA              32904905    005800460000004600000520000003NN  NNW 000                       N    
RDG08636600WATRL000000004K00000000000003018003212012014093548N000000000000N83       000530400K 10000000010000003015           
CUS0863660000102046849002         BUREN JOHN S        12602 MOUNT LAUREL CT                   000N        CARE OF             
MTR08636600001000000000000000RA              01107495    005800470000004700000610000003NN  NNW 000                       N    
RDG08636600WATRL000000004K00000000000000764003312012014093659N000000000010N83       000710400K 10000000010000000784           
CUS0863660000102046850000         RICKETTS MARVIN     12600 MOUNT LAUREL CT                   000N        CARE OF             
MTR08636600001000000000000000RA              01109142    005800480000004800000610000003NN  NNW 000                       N    
RDG08636600WATRL000000004K00000000000000874003412012014093752N000000000000N83       000530400K 10000000010000000857           
CUS0863660000102046851008         CAMPBELL JEAN ANN   701 ST PAUL AVE                         000N        CARE OF             
MTR08636600001000000000000000RA              35099784    005800490000004900000520000003NN  NNW 000                       N    
RDG08636600WATRL000000004K00000000000001888003512012014094005N000000000000N83       001330400K 10000000010000001879           
CUS0863660000102046852006         BORMEL IRA          703 ST PAUL AVE                         000N        CARE OF             
MTR08636600001000000000000000RA              45376284    005800500000005000000520000003NN  NNW 000                       N    
RDG08636600WATRL000000004K00000000000002872003612012014094118N000000000000N83       000730400K 10000000010000002859           
CUS0863660000102046853004         DASINGER JAMES F    705 ST PAUL AVE                         000N        CARE OF             
MTR08636600001000000000000000RA              26013827    005800510000005100000520000003NN  NNW 000                       N    
RDG08636600WATRL000000004K00000000000003734005412012014102248N000000000000N83       003020400K 10000000010000003724           
CUS0863660000102046854002         DANISZEWSKI GREGORY 707 ST PAUL AVE                         000N        CARE OF             
MTR08636600001000000000000000RA              32900275    005800520000005200000520000003NN  NNW 000                       N    
RDG08636600WATRL000000004K00000000000003193003712012014094327N000000000000N83       001290400K 10000000010000003168           
CUS0863660000102046855009         SCHWARTZBERG SCOTT  709 ST PAUL AVE                         000N        CARE OF             
MTR08636600001000000000000000RA              29084569    005800530000005300000520000003NN  NNW 000                       N    
RDG08636600WATRL000000004K00000000000002844003812012014094458N000000000000N83       000910400K 10000000010000002827           
CUS0863660000102046856007         DEMANSS JOANN       711 ST PAUL AVE                         000N        CARE OF             
MTR08636600001000000000000000RA              50787565    005800540000005400000520000003NN  NNW 000                       N    
RDG08636600WATRL000000004K00000000000001333003912012014094626N000000000000N83       000880400K 10000000010000001319           
CUS0863660000102046857005         EUGENE L HUX        713 ST PAUL AVE                         000N        CARE OF             
MTR08636600001000000000000000RA              01104026    005800550000005500000610000003NN  NNW 000                       N    
RDG08636600WATRL000000004K00000000000002353004012012014094713N000000000000N83       000470400K 10000000010000002345           
CUS0863660000102046821001         VERMA RAMESH S      12500 SAGAMORE FOREST LN                000N        CARE OF             
MTR08636600001000000000000000RA              27820934    005800560000005600000520000003NN  NNW 000                       N    
RDG08636600WATRL000000004K00000000000003312005512012014102429N000000000000N83       001010400K 10000000010000003292           
CUS0863660000102046858003         KARAP JASON R       700 BOND AVE                            000N        CARE OF             
MTR08636600001000000000000000RA              24757206    005800570000005700000520000003NN  NNW 000                       N    
RDG08636600WATRL000000004K00000000000002691005612012014102658N000000000011N83       000160400K 10000000010000002683           
CUS0863660000102362553006         SLUTSKY PETER       628 BOND AVE                            000N        CARE OF             
MTR08636600001000000000000000RA              14900331    005800580000005800000310000003NN  NNW 000                       N    
RDG08636600WATRL000000004K00000000000000407005712012014102840N000000000000N83       001020400K 10000000010000000390           
CUS0863660000108396413000         MURRILL ROBERT      626 BOND AVE                            000N        CARE OF             
MTR08636600001000000000000000RA              01116348    005800590000005900000610000003NN  NNW 000                       N    
RDG08636600WATRL000000004K00000000000001158005812012014103003N000000000000N83       000830400K 10000000010000001120           
CUS0863660000108392361005         WAGNER AMY E        624 BOND AVE                            000N        CARE OF             
MTR08636600001000000000000000RA              01116153    005800600000006000000610000003NN  NNW 000                       N    
RDG08636600WATRL000000004K00000000000000547005912012014103152N000000000010N83       001090400K 10000000010000000685           
CUS0863660000108392359009         DUNICK WALTER T     1 PATERWAL CT                           000N        CARE OF             
MTR08636600001000000000000000RA              35114438    005800610000006100000520000003NN  NNW 000                       N    
RDG08636600WATRL000000004K00000000000004330006012012014103414N000000000000N83       001420400K 10000000010000004313           
CUS0863660000108392358001         MARKUS RALPH N      3 PATERWAL CT                           000N        CARE OF             
MTR08636600001000000000000000RA              00132125    005800620000006200000570000003NN  NNW 000                       N    
RDG08636600WATRL000000004K00000000000001192006112012014103450N000000000000N83       000360400K 10000000010000001177           
CUS0863660000108392357003         RENDEL MARC J       5 PATERWAL CT                           000N        CARE OF             
MTR08636600001000000000000000RA              38886453    005800630000006300000520000003NN  NNW 000                       N    
RDG08636600WATRL000000004K00000000000002957006212012014103519N000000000000N83       000290400K 10000000010000002946           
CUS0863660000108392356005         VAN CAMP MARC W     7 PATERWAL CT                           000N        CARE OF             
MTR08636600001000000000000000RA              46877581    005800640000006400000520000003NN  NNW 000                       N    
RDG08636600WATRL000000004K00000000000002286006312012014103537N000000000000N83       000180400K 10000000010000002274           
CUS0863660000108392355007         LINDENBAUM JEFFREY  9 PATERWAL CT                           000N        CARE OF             
MTR08636600001000000000000000RA              14909109    005800650000006500000310000003NN  NNW 000                       N    
RDG08636600WATRL000000004K00000000000001513006412012014103615N000000000000N83       000380400K 10000000010000001458           
CUS0863660000108392354000         BAKER BERNARD MICHAE11 PATERWAL CT                          000N        CARE OF             
MTR08636600001000000000000000RA              50480092    005800660000006600000520000003NN  NNW 000                       N    
RDG08636600WATRL000000004K00000000000002480006512012014103648N000000000000N83       000330400K 10000000010000002456           
CUS0863660000108392353002         WESTREICH KEVIN     13 PATERWAL CT                          000N        CARE OF             
MTR08636600001000000000000000RA              36696888    005800670000006700000520000003NN  NNW 000                       N    
RDG08636600WATRL000000004K00000000000003108006612012014103722N000000000000N83       000340400K 10000000010000003090           
CUS0863660000108392264001         ECKERT ANNIE M      15 PATERWAL CT                          000N        CARE OF             
MTR08636600001000000000000000RA              46885731    005800680000006800000520000003NN  NNW 000                       N    
RDG08636600WATRL000000004K00000000000001455006712012014103751N000000000000N83       000290400K 10000000010000001435           
CUS0863660000108392265008         KLEIN BARRY S       14 PATERWAL CT                          000N        CARE OF             
MTR08636600001000000000000000RA              36697569    005800690000006900000520000003NN  NNW 000                       N    
RDG08636600WATRL000000004K00000000000001720006812012014103836N000000000000N83       000450400K 10000000010000001710           
CUS0863660000108392352004         DUBBERT MARK KENDALL10 PATERWAL CT                          000N        CARE OF             
MTR08636600001000000000000000RA              50476448    005800700000007000000520000003NN  NNW 000                       N    
RDG08636600WATRL000000004K00000000000000842006912012014103923N000000000000N83       000470400K 10000000010000000831           
CUS0863660000102392487001         FORT SARA B         8 PATERWAL CT                           000N        CARE OF             
MTR08636600001000000000000000RA              41087396    005800710000007100000520000003NN  NNW 000                       N    
RDG08636600WATRL000000004K00000000000000000000000000000000000 000000000000U         000000400  10000000010000001204           
CUS0863660000102392488009         SIRKIS HOWARD       4 DYSON DAN CT                          000N        CARE OF             
MTR08636600001000000000000000RA              31587566    005800720000007200000520000003NN  NNW 000                       N    
RDG08636600WATRL000000004K00000000000004522007112012014104147N000000000000N83       000210400K 10000000010000004494           
CUS0863660000102392489007         RITZER LONNIE       6 DYSON DAN CT                          000N        CARE OF             
MTR08636600001000000000000000RA              36698054    005800730000007300000520000003NN  NNW 000                       N    
RDG08636600WATRL000000004K00000000000001692007212012014104303N000000000000N83       000760400K 10000000010000001674           
CUS0863660000102392490005         FRIEMAN STANLEY     10 DYSON DAN CT                         000N        CARE OF             
MTR08636600001000000000000000RA              36697412    005800740000007400000520000003NN  NNW 000                       N    
RDG08636600WATRL000000004K00000000000002956007312012014104339N000000000000N83       000360400K 10000000010000002945           
CUS0863660000102392491003         SZTAJER IRA J       12 DYSON DAN CT                         000N        CARE OF             
MTR08636600001000000000000000RA              38887310    005800750000007500000520000003NN  NNW 000                       N    
RDG08636600WATRL000000004K00000000000003486007412012014104414N000000000000N83       000350400K 10000000010000003456           
CUS0863660000102392492001         RUDOW SCOTT P       14 DYSON DAN CT                         000N        CARE OF             
MTR08636600001000000000000000RA              10007518    005800760000007600000570000003NN  NNW 000                       N    
RDG08636600WATRL000000004K00000000000000445007512012014104444N000000000000N83       000300400K 10000000010000000425           
CUS0863660000102392486003         ZABA IRA HOWARD     13 DYSON DAN CT                         000N        CARE OF             
MTR08636600001000000000000000RA              36697411    005800770000007700000520000003NN  NNW 000                       N    
RDG08636600WATRL000000004K00000000000002121007612012014104525N000000000000N83       000410400K 10000000010000002116           
CUS0863660000102392485005         VANODIA PUSHPAHAS H 11 DYSON DAN CT                         000N        CARE OF             
MTR08636600001000000000000000RA              36698261    005800780000007800000520000003NN  NNW 000                       N    
RDG08636600WATRL000000004K00000000000004058007712012014104559N000000000000N83       000340400K 10000000010000004034           
CUS0863660000102394287003         LAVRENOV OLEG       9 DYSON DAN CT                          000N        CARE OF             
MTR08636600001000000000000000RA              39584460    005800790000007900000520000003NN  NNW 000                       N    
RDG08636600WATRL000000004K00000000000003796007812012014104633N000000000000N83       000340400K 10000000010000003745           
CUS0863660000102392484008         STEPHEN KATZ        7 DYSON DAN CT                          000N        CARE OF             
MTR08636600001000000000000000RA              45374706    005800800000008000000520000003NN  NNW 000                       N    
RDG08636600WATRL000000004K00000000000002121007912012014104704N000000000000N83       000310400K 10000000010000002104           
CUS0863660000102392483000         MR & MRS ANTHONY VIL5 DYSON DAN CT                          000N        CARE OF             
MTR08636600001000000000000000RA              48595517    005800810000008100000520000003NN  NNW 000                       N    
RDG08636600WATRL000000004K00000000000002302008012012014104729N000000000000N83       000250400K 10000000010000002278           
CUS0863660000102392482002         HAUSER JEFFREY      3 DYSON DAN CT                          000N        CARE OF             
MTR08636600001000000000000000RA              24227397    005800820000008200000520000003NN  NNW 000                       N    
RDG08636600WATRL000000004K00000000000002000008112012014104830N000000000000N83       000610400K 10000000010000001987           
CUS0863660000102392481004         ARNOLD THOMAS L     1 DYSON DAN CT                          000N        CARE OF             
MTR08636600001000000000000000RA              36698803    005800830000008300000520000003NN  NNW 000                       N    
RDG08636600WATRL000000004K00000000000002265008212012014104923N000000000000N83       000530400K 10000000010000002249           
CUS0863660000108392360007         ADLER BRIAN         2 PATERWAL CT                           000N        CARE OF             
MTR08636600001000000000000000RA              36697562    005800840000008400000520000003NN  NNW 000                       N    
RDG08636600WATRL000000004K00000000000003024008312012014105036N000000000000N83       000730400K 10000000010000003003           
CUS0863660000102393163007         DOWEARY CHARLES M,JR616 BOND AVE                            000N        CARE OF             
MTR08636600001000000000000000RA              39583268    005800850000008500000520000003NN  NNW 000                       N    
RDG08636600WATRL000000004K00000000000002371008412012014105225N000000000000N83       001090400K 10000000010000002354           
CUS0863660000102385336009         GONZALO MEJIA       614 BOND AVE                            000N        CARE OF             
MTR08636600001000000000000000RA              35106220    005800860000008600000520000003NN  NNW 000                       N    
RDG08636600WATRL000000004K00000000000003598008512012014105259N000000000000N83       000340400K 10000000010000003558           
CUS0863660000102385337007         MINTER PAMELA G     612 BOND AVE                            000N        CARE OF             
MTR08636600001000000000000000RA              35106223    005800870000008700000520000003NN  NNW 000                       N    
RDG08636600WATRL000000004K00000000000001819008612012014105442N000000000000N83       001030400K 10000000010000001814           
CUS0863660000102385338005         JOHN P RYDELL       610 BOND AVE                            000N        CARE OF             
MTR08636600001000000000000000RA              36697752    005800880000008800000520000003NN  NNW 000                       N    
RDG08636600WATRL000000004K00000000000001923008712012014105520N000000000000N83       000380400K 10000000010000001913           
CUS0863660000102385339003         HUGH CARSON         608 BOND AVE                            000N        CARE OF             
MTR08636600001000000000000000RA              35106219    005800890000008900000520000003NN  NNW 000                       N    
RDG08636600WATRL000000004K00000000000003992008812012014105643N000000000000N83       000830400K 10000000010000003983           
CUS0863660000102385340001         KAVALERCHYK GRYGOREY606 BOND AVE                            000N        CARE OF             
MTR08636600001000000000000000RA              35106360    005800900000009000000520000003NN  NNW 000                       N    
RDG08636600WATRL000000004K00000000000003502008912012014105717N000300000010N83       000340400K 10000000010000003458           
CUS0863660000108429466009         KLEIMAN GERALD S    503 BOND AVE                            000N        CARE OF             
MTR08636600001000000000000000RA              99289950    005800910000009100000570000003NN  NNW 000                       N    
RDG08636600WATRL000000004K00000000000003812009312012014110309N000000000000N83       001680400K 10000000010000003769           
CUS0863660000108395222006         LEVEY WILLIAM K     509 CENTRAL AVE                         000N        CARE OF             
MTR08636600001000000000000000RA              38984485    005800920000009200000520000003NN  NNW 000                       N    
RDG08636600WATRL000000004K00000000000002471009012012014105842N000000000000N83       000850400K 10000000010000002457           
CUS0863660000108395221008         SHAPIRO DAVID N  SHA507 CENTRAL AVE                         000N        CARE OF             
MTR08636600001000000000000000RA              38984487    005800930000009300000520000003NN  NNW 000                       N    
RDG08636600WATRL000000004K00000000000004149009112012014105922N000000000001N83       000400400K 10000000010000004119           
CUS0863660000108395220000         SHAVDIA VIRENDRA NAT505 CENTRAL AVE                         000N        CARE OF             
MTR08636600001000000000000000RA              39584817    005800940000009400000520000003NN  NNW 000                       N    
RDG08636600WATRL000000004K00000000000002381009212012014110021N000000000000N83       000590400K 10000000010000002369           
CUS0863660000102392527004         BURNS MICHAEL S     605 ST PAUL AVE                         000N        CARE OF             
MTR08636600001000000000000000RA              40321591    005800950000009500000520000003NN  NNW 000                       N    
RDG08636600WATRL000000004K00000000000003301009412012014110540N000000000000N83       001510400K 10000000010000003268           
CUS0863660000102392526006         JOHN C ETOH         607 ST PAUL AVE                         000N        CARE OF             
MTR08636600001000000000000000RA              40047497    005800960000009600000520000003NN  NNW 000                       N    
RDG08636600WATRL000000004K00000000000002703009512012014110621N000000000000N83       000410400K 10000000010000002695           
CUS0863660000102392525008         RANDALL JOHN W      609 ST PAUL AVE                         000N        CARE OF             
MTR08636600001000000000000000RA              38782538    005800970000009700000520000003NN  NNW 000                       N    
RDG08636600WATRL000000004K00000000000002877009612012014110658N000000000000N83       000370400K 10000000010000002852           
CUS0863660000102392524001         MIKHAIL ZILBERMAN   611 ST PAUL AVE                         000N        CARE OF             
MTR08636600001000000000000000RA              35099764    005800980000009800000520000003NN  NNW 000                       N    
RDG08636600WATRL000000004K00000000000005161009712012014110736N000000000000N83       000380400K 10000000010000005149           
CUS0863660000102392523003         JUDY/MICHAEL BLUME  613 ST PAUL AVE                         000N        CARE OF             
MTR08636600001000000000000000RA              27827454    005800990000009900000520000003NN  NNW 000                       N    
RDG08636600WATRL000000004K00000000000003710009812012014110806N000000000000N83       000300400K 10000000010000003691           
CUS0863660000102392522005         KINSTLINGER JEREMY  615 ST PAUL ST                          000N        CARE OF             
MTR08636600001000000000000000RA              39924251    005801000000010000000520000003NN  NNW 000                       N    
RDG08636600WATRL000000004K00000000000002749009912012014110839N000000000000N83       000330400K 10000000010000002737           
CUS0863660000102392521007         STEVEN R SAVOLD     617 ST PAUL AVE                         000N        CARE OF             
