FHDNNNN026004223004223004677N                                                                                           014612
RHD06921000NN02280228000002280000000002280228000352NY022802280228002600360000000000000000000002    10262015NY020000 N         
CUS0692100000106093580006         CANTERBURY PROPERTY SWC BACK RIVER NECK RD &                000N        CARE OF             
MTR06921000001000000000000000RA              41074324    005800010000000100000520000003NN  NNW 000                       N    
RDG06921000WATRL000000004K00000000000001773012410302015122654N000400000010N61       000760400K 10000000010000001770           
CUS0692100000106093581004         402 BACK RIVER NECK 402 BACK RIVER NECK RD                  000N        CARE OF             
MTR06921000001000000000000000RA              10017656    005800020000000200000570000003NN  NNW 000                       N    
RDG06921000WATRL000000004K00000000000001629012310302015122538N000000000000N61       000080400K 10000000010000001566           
CUS0692100000106093582002         POZOULAKIS GUS C    412 BACK RIVER NECK RD                  000N        CARE OF             
MTR06921000001000000000000000RA              01104620    005800030000000300000610000003NN  NNW 000                       N    
RDG06921000WATRL000000004K00000000000000698012210302015122530N000000000000N61       001540400K 10000000010000000689           
CUS0692100000106093583000         APG HOME CONSTRUCTIO414 BACK RIVER NECK RD                  000N        CARE OF             
MTR06921000001000000000000000RA              30517140    005800040000000400000520000003NY  NNW 000                       N    
MTM0692100030517140    covered                                                                                                
RDG06921000WATRL000000004K00000000000000000000000000000000000 000000000000U         000000400  10000000010000000955           
CUS0692100000106093584008         THE REALTY ASSOCIATE418 BACK RIVER NECK RD                  000N        CARE OF             
MTR06921000001000000000000000RA              29684250    005800050000000500000520000003NN  NNW 000                       N    
RDG06921000WATRL000000004K00000000000000000000000000000000000 000000000000U         000000400  10000000010000001475           
CUS0692100000106093585005         436 LLC             436 BACK RIVER NECK RD                  000N        CARE OF             
MTR06921000001000000000000000RA              10022599    005800060000000600000570000003NN  NNW 000                       N    
RDG06921000WATRL000000004K00000000000000052012110302015122256N000000000000N61       000130400K 10000000010000000046           
CUS0692100000106093586003         THE REALTY ASSOCIATE424 BACK RIVER NECK RD                  000N        CARE OF             
MTR06921000001000000000000000RA              38985793    005800070000000700000520000003NN  NNW 000   VACANT / LOT        N    
RDG06921000WATRL000000004K00000000000000000012010302015122243S022000000000N61       000130400K 10000000010000000426           
CUS0692100000106093579008         THE REALTY ASSOCIATEES HYDE PARK RD 325 FT                  000N        CARE OF             
MTR06921000001000000000000000RA              29069613    007500080000000800000520000003NN  NNW 000                       N    
RDG06921000WATRL000000004K00000000000000000011910302015122230S022000000000N61       016240400K 10000000010000001894           
CUS0692100000106455949005         GUDMAR MG, LLC      1600 MORNING GLORY LN                   000N        CARE OF             
MTR06921000001000000000000000RA              99999999    007500090000000900000440000003NN  NNW 000                       N    
RDG06921000WATRL000000004K00000000000000000011810302015115526S063000000000N61       000120400K 10000000010000000000           
CUS0692100000106455950003         WILLIAM NEBLETT     1602 MORNING GLORY LN                   000N        CARE OF             
MTR06921000001000000000000000RA              78028078    007500100000001000000360000003NN  NNW 000                       N    
RDG06921000WATRL000000004K00000000000000112011710302015115514N000000000000N61       000570400K 10000000010000000094           
CUS0692100000106455951001         ESTHER OSEMWEGIE    1604 MORNING GLORY LN                   000N        CARE OF             
MTR06921000001000000000000000RA              78028081    007500110000001100000360000003NN  NNW 000                       N    
RDG06921000WATRL000000004K00000000000000107011610302015115417N000400000010N61       000660400K 10000000010000000091           
CUS0692100000106455952009         ANTHONY COOLEY      1606 MORNING GLORY LN                   000N        CARE OF             
MTR06921000001000000000000000RA              78028079    007500120000001200000360000003NN  NNW 000                       N    
RDG06921000WATRL000000004K00000000000000053011510302015115311N000000000000N61       000540400K 10000000010000000039           
CUS0692100000106455953007         GUDMAR MG, LLC      1608 MORNING GLORY LN                   000N        CARE OF             
MTR06921000001000000000000000RA              99999999    007500130000001300000440000003NN  NNW 000                       N    
RDG06921000WATRL000000004K00000000000000000011410302015115217S022000000000N61       000310400K 10000000010000000000           
CUS0692100000106455954005         JONAH MONROE        1610 MORNING GLORY LN                   000N        CARE OF             
MTR06921000001000000000000000RA              77894541    007500140000001400000360000003NN  NNW 000                       N    
RDG06921000WATRL000000004K00000000000000004011310302015115146N000000000010N61       000290400K 10000000010000000000           
CUS0692100000106455955002         GUDMAR MG, LLC      1612 MORNING GLORY LN                   000N        CARE OF             
MTR06921000001000000000000000RA              77894553    007500150000001500000360000003NN  NNW 000                       N    
RDG06921000WATRL000000004K00000000000000009011210302015115117N000000000010N61       000480400K 10000000010000000000           
CUS0692100000106457009006         GUDMAR MG, LLC      1614 MORNING GLORY LN                   000N        CARE OF             
MTR06921000001000000000000000RA              99999999    007500160000001600000440000003NN  NNW 000                       N    
RDG06921000WATRL000000004K00000000000000000011110302015115029S063000000000N61       000420400K 10000000010000000000           
CUS0692100000106457010004         GUDMAR MG, LLC      1616 MORNING GLORY LN                   000N        CARE OF             
MTR06921000001000000000000000RA              99999999    007500170000001700000440000003NN  NNW 000                       N    
RDG06921000WATRL000000004K00000000000000000011010302015114947S022000000000N61       000480400K 10000000010000000000           
CUS0692100000106457011002         GUDMAR MG, LLC      1618 MORNING GLORY LN                   000N        CARE OF             
MTR06921000001000000000000000RA              99999999    007500180000001800000440000003NN  NNW 000                       N    
RDG06921000WATRL000000004K00000000000000000010910302015114859S063000000000N61       000140400K 10000000010000000000           
CUS0692100000106457012000         TYNER SALLIE A      1620 MORNING GLORY LN                   000N        CARE OF             
MTR06921000001000000000000000RA              99999999    007500190000001900000440000003NN  NNW 000                       N    
RDG06921000WATRL000000004K00000000000000000010810302015114845S063000000000N61       000300400K 10000000010000000000           
CUS0692100000106457013008         DOGED, SEAN         1622 MORNING GLORY LN                   000N        CARE OF             
MTR06921000001000000000000000RA              99999999    007500200000002000000440000003NN  NNW 000                       N    
RDG06921000WATRL000000004K00000000000000000010710302015114815S063000000000N61       000350400K 10000000010000000000           
CUS0692100000106457014006         HARMON, PHILLIP D   1624 MORNING GLORY LN                   000N        CARE OF             
MTR06921000001000000000000000RA              99999999    007500210000002100000440000003NN  NNW 000                       N    
RDG06921000WATRL000000004K00000000000000000010610302015114740S063000000000N61       000370400K 10000000010000000000           
CUS0692100000106457015003         CHAMBERS, GEORGE    1626 MORNING GLORY LN                   000N        CARE OF             
MTR06921000001000000000000000RA              99999999    007500220000002200000440000003NN  NNW 000                       N    
RDG06921000WATRL000000004K00000000000000153010510302015114703N000000000010N61       001080400K 10000000010000000000           
CUS0692100000106456418000         CHRISTIAN CROCITTA  1630 MORNING GLORY LN                   000N        CARE OF             
MTR06921000001000000000000000RA              77895023    007500230000002300000360000003NN  NNW 000                       N    
RDG06921000WATRL000000004K00000000000000003010310302015114308N000000000010N61       000710400K 10000000010000000000           
CUS0692100000106456419008         GUDMAR MG LLC       1632 MORNING GLORY LN                   000N        CARE OF             
MTR06921000001000000000000000RA              99999999    007500240000002400000440000003NN  NNW 000                       N    
RDG06921000WATRL000000004K00000000000000000010210302015114157S063000000000N61       000250400K 10000000010000000000           
CUS0692100000106456420006         CASSELL, CHERYL     1634 MORNING GLORY LN                   000N        CARE OF             
MTR06921000001000000000000000RA              77895022    007500250000002500000360000003NN  NNW 000                       N    
RDG06921000WATRL000000004K00000000000000008010110302015114132N000000000010N61       000410400K 10000000010000000000           
CUS0692100000106456421004         MICHAEL ZWICK       1636 MORNING GLORY LN                   000N        CARE OF             
MTR06921000001000000000000000RA              77894544    007500260000002600000360000003NN  NNW 000                       N    
RDG06921000WATRL000000004K00000000000000002010010302015114051N000000000010N61       001250400K 10000000010000000000           
CUS0692100000106457023007         GODBOUT, BRITTANI   1601 MORNING GLORY LN                   000N        CARE OF             
MTR06921000001000000000000000RA              99999999    007500270000002700000440000003NN  NNW 000                       N    
RDG06921000WATRL000000004K00000000000000000008010302015112208S063000000000N61       005750400K 10000000010000000000           
CUS0692100000106457024005         GUDMAR MG, LLC      1603 MORNING GLORY LN                   000N        CARE OF             
MTR06921000001000000000000000RA              99999999    007500280000002800000440000003NN  NNW 000                       N    
RDG06921000WATRL000000004K00000000000000000009910302015113846S063000000000N61       000160400K 10000000010000000000           
CUS0692100000106457025002         LAM, MOUSSA         1605 MORNING GLORY LN                   000N        CARE OF             
MTR06921000001000000000000000RA              99999999    007500290000002900000440000003NN  NNW 000                       N    
RDG06921000WATRL000000004K00000000000000000008110302015112330S063000000000N61       000820400K 10000000010000000000           
CUS0692100000106457026000         MOORE MACEY, BIANCA 1607 MORNING GLORY LN                   000N        CARE OF             
MTR06921000001000000000000000RA              99999999    007500300000003000000440000003NN  NNW 000                       N    
RDG06921000WATRL000000004K00000000000000000008210302015112407S063000000000N61       000370400K 10000000010000000000           
CUS0692100000106457027008         PUENTE, MARK        1609 MORNING GLORY LN                   000N        CARE OF             
MTR06921000001000000000000000RA              99999999    007500310000003100000440000003NN  NNW 000                       N    
RDG06921000WATRL000000004K00000000000000000008310302015112439S063000000000N61       000320400K 10000000010000000000           
CUS0692100000106455956000         EARL E SHIFLETT     1611 MORNING GLORY LN                   000N        CARE OF             
MTR06921000001000000000000000RA              78028080    007500320000003200000360000003NN  NNW 000                       N    
RDG06921000WATRL000000004K00000000000000034008410302015112602N000000000000N61       000830400K 10000000010000000022           
CUS0692100000106457022009         GUDMAR MG, LLC      1613 MORNING GLORY LN                   000N        CARE OF             
MTR06921000001000000000000000RA              99999999    007500330000003300000440000003NN  NNW 000                       N    
RDG06921000WATRL000000004K00000000000000000008510302015112625S022000000000N61       000230400K 10000000010000000000           
CUS0692100000106457021001         GUDMAR MG, LLC      1615 MORNING GLORY LN                   000N        CARE OF             
MTR06921000001000000000000000RA              99999999    007500340000003400000440000003NN  NNW 000                       N    
RDG06921000WATRL000000004K00000000000000000008610302015112632S063000000000N61       000070400K 10000000010000000000           
CUS0692100000106457020003         GUDMAR MG, LLC      1617 MORNING GLORY LN                   000N        CARE OF             
MTR06921000001000000000000000RA              99999999    007500350000003500000440000003NN  NNW 000                       N    
RDG06921000WATRL000000004K00000000000000000008710302015112742S063000000000N61       000700400K 10000000010000000000           
CUS0692100000106457019005         GUDMAR MG, LLC      1619 MORNING GLORY LN                   000N        CARE OF             
MTR06921000001000000000000000RA              99999999    007500360000003600000440000003NN  NNW 000                       N    
RDG06921000WATRL000000004K00000000000000000008810302015112815S063000000000N61       000330400K 10000000010000000000           
CUS0692100000106457018007         HAMPTON, EUGENE     1621 MORNING GLORY LN                   000N        CARE OF             
MTR06921000001000000000000000RA              99999999    007500370000003700000440000003NN  NNW 000                       N    
RDG06921000WATRL000000004K00000000000000000008910302015112852S063000000000N61       000370400K 10000000010000000000           
CUS0692100000106457017009         NVR INC             1623 MORNING GLORY LN                   000N        CARE OF             
MTR06921000001000000000000000RA              99999999    007500380000003800000440000003NN  NNW 000                       N    
RDG06921000WATRL000000004K00000000000000000009010302015112920S063000000000N61       000280400K 10000000010000000000           
CUS0692100000106457016001         DARRYL & TINA ROUSE 1625 MORNING GLORY LN                   000N        CARE OF             
MTR06921000001000000000000000RA              99999999    007500390000003900000440000003NN  NNW 000                       N    
RDG06921000WATRL000000004K00000000000000000009110302015113005S063000000000N61       000450400K 10000000010000000000           
CUS0692100000106456422002         GUDMAR MG LLC       1627 MORNING GLORY LN                   000N        CARE OF             
MTR06921000001000000000000000RA              99999999    007500400000004000000440000003NN  NNW 000                       N    
RDG06921000WATRL000000004K00000000000000000009210302015113037S063000000000N61       000320400K 10000000010000000000           
CUS0692100000106456423000         GUDMAR MG LLC       1629 MORNING GLORY LN                   000N        CARE OF             
MTR06921000001000000000000000RA              99999999    007500410000004100000440000003NN  NNW 000                       N    
RDG06921000WATRL000000004K00000000000000000009310302015113133S022000000000N61       000560400K 10000000010000000000           
CUS0692100000106456424008         GUDMAR MG LLC       1637 MORNING GLORY LN                   000N        CARE OF             
MTR06921000001000000000000000RA              77894543    007500420000004200000360000003NN  NNW 000                       N    
RDG06921000WATRL000000004K00000000000000018009410302015113220N000000000010N61       000470400K 10000000010000000000           
CUS0692100000106456425005         MARSHALL STARKEY    1639 MORNING GLORY LN                   000N        CARE OF             
MTR06921000001000000000000000RA              77894542    007500430000004300000360000003NN  NNW 000                       N    
RDG06921000WATRL000000004K00000000000000006009510302015113544N000000000010N61       002040400K 10000000010000000000           
CUS0692100000106456426003         GUDMAR MG LLC       1641 MORNING GLORY LN                   000N        CARE OF             
MTR06921000001000000000000000RA              77894556    007500440000004400000360000003NN  NNW 000                       N    
RDG06921000WATRL000000004K00000000000000009009610302015113622N000000000010N61       000380400K 10000000010000000000           
CUS0692100000106456427001         GUDMAR MG LLC       1643 MORNING GLORY LN                   000N        CARE OF             
MTR06921000001000000000000000RA              77894554    007500450000004500000360000003NN  NNW 000                       N    
RDG06921000WATRL000000004K00000000000000006009710302015113737N000000000010N61       000750400K 10000000010000000000           
CUS0692100000106456428009         ZACHARY LIPSKY      1645 MORNING GLORY LN                   000N        CARE OF             
MTR06921000001000000000000000RA              77894555    007500460000004600000360000003NN  NNW 000                       N    
RDG06921000WATRL000000004K00000000000000006009810302015113830N000000000010N61       000530400K 10000000010000000000           
CUS0692100000106093587001         MR.JOHN KUBILIUS,JR 512 BACK RIVER NECK RD                  000N        CARE OF             
MTR06921000001000000000000000RA              35118449    005800470000004700000520000003NN  NNW 000                       N    
RDG06921000WATRL000000004K00000000000001914019810302015134428N000000000000N61       000040400K 10000000010000001905           
CUS0692100000106093588009         WAYNE SANDERS       514 BACK RIVER NECK RD                  000N        CARE OF             
MTR06921000001000000000000000RA              48594425    005800480000004800000520000003NN  NNW 000                       N    
RDG06921000WATRL000000004K00000000000001264019710302015134424N000300000010N61       000260400K 10000000010000001538           
CUS0692100000106418036007         COLE ROBERT M, JR   516 BACK RIVER NECK RD                  000N        CARE OF             
MTR06921000001000000000000000RA              48586917    005800490000004900000520000003NN  NNW 000                       N    
RDG06921000WATRL000000004K00000000000001093019610302015134358N000000000000N61       000040400K 10000000010000001087           
CUS0692100000106093589007         HENRY J MILLER      518 BACK RIVER NECK RD                  000N        CARE OF             
MTR06921000001000000000000000RA              45376717    005800500000005000000520000003NN  NNW 000                       N    
RDG06921000WATRL000000004K00000000000001253019510302015134354N000000000000N61       000050400K 10000000010000001248           
CUS0692100000106093590005         JULIO CARL T  JULIO 522 BACK RIVER NECK RD                  000N        CARE OF             
MTR06921000001000000000000000RA              27827387    005800510000005100000520000003NN  NNW 000                       N    
RDG06921000WATRL000000004K00000000000000000019410302015134349S002000000000N61       000050400K 10000000010000002646           
CUS0692100000106093591003         COATS WALTER,JR     526 BACK RIVER NECK RD                  000N        CARE OF             
MTR06921000001000000000000000RA              14900895    005800520000005200000310000003NN  NNW 000                       N    
RDG06921000WATRL000000004K00000000000001024019310302015134344N000000000000N61       000100400K 10000000010000001003           
CUS0692100000106399377008         MARTIN BRUCE S      536 BACK RIVER NECK RD                  000N        CARE OF             
MTR06921000001000000000000000RA              40780694    005800530000005300000520000003NN  NNW 000                       N    
RDG06921000WATRL000000004K00000000000002107019210302015134334N000000000000N61       000030400K 10000000010000002098           
CUS0692100000106399378006         PROTANI FRANK JOSEPH536A BACK RIVER NECK RD                 000N        CARE OF             
MTR06921000001000000000000000RA              40780703    005800540000005400000520000003NN  NNW 000                       N    
RDG06921000WATRL000000004K00000000000001793019110302015134331N000000000000N61       000030400K 10000000010000001782           
CUS0692100000106399347001         SUE FRANCES JARRETT 536B BACK RIVER NECK RD                 000N        CARE OF             
MTR06921000001000000000000000RA              40780445    005800550000005500000520000000NN  NNW 000                       N    
RDG06921000WATRL000000004K00000000000001780019010302015134328N000000000000N61       000050400K 10000000010000001757           
CUS0692100000106387241000         NOOFT HENRY JOHN    538 BACK RIVER NECK RD                  000N        CARE OF             
MTR06921000001000000000000000RA              35114004    005800560000005600000520000003NN  NNW 000                       N    
RDG06921000WATRL000000004K00000000000003618018910302015134323N000000000000N61       000050400K 10000000010000003605           
CUS0692100000106093592001         TRUSTEES OF THE BACK544 BACK RIVER NECK RD                  000N        CARE OF             
MTR06921000001000000000000000RA              35118458    005800570000005700000520000003NN  NNW 000                       N    
RDG06921000WATRL000000004K00000000000000863018810302015134318N000000000000N61       000070400K 10000000010000000850           
CUS0692100000106093593009         WILLIS W HOLDEN     606 BACK RIVER NECK RD                  000N        CARE OF             
MTR06921000001000000000000000RA              30521670    005800580000005800000520000003NN  NNW 000                       N    
RDG06921000WATRL000000004K00000000000004588018710302015134311N000000000000N61       000090400K 10000000010000004571           
CUS0692100000106093594007         HOLDEN WILLIS WARD  612 BACK RIVER NECK RD                  000N        CARE OF             
MTR06921000001000000000000000RA              27827585    005800590000005900000520000003NN  NNW 000                       N    
RDG06921000WATRL000000004K00000000000004465018610302015134302N000000000000N61       000060400K 10000000010000004448           
CUS0692100000106093595004         DUNN PATRICK R      616 BACK RIVER NECK RD                  000N        CARE OF             
MTR06921000001000000000000000RA              14912374    005800600000006000000310000003NN  NNW 000                       N    
RDG06921000WATRL000000004K00000000000000269018510302015134256N000000000000N61       000050400K 10000000010000000262           
CUS0692100000106093596002         FIVE BROTHERS       626 BACK RIVER NECK RD                  000N        CARE OF             
MTR06921000001000000000000000RA              75423836    005800610000006100000350000003NN  NNW 000   VACANT / LOT        N    
RDG06921000WATRL000000004K00000000000000000018410302015134251N000000000000N61       000060400K 10000000010000000000           
CUS0692100000106093597000         TUCKER MELVIN J,SR  628 BACK RIVER NECK RD                  000N        CARE OF             
MTR06921000001000000000000000RA              38985399    005800620000006200000520000003NN  NNW 000                       N    
RDG06921000WATRL000000004K00000000000001059018310302015134245N000000000000N61       000020400K 10000000010000001046           
CUS0692100000106093598008         KALFAS MICHAEL E    630 BACK RIVER NECK RD                  000N        CARE OF             
MTR06921000001000000000000000RA              99388758    005800630000006300000570000003NN  NNW 000                       N    
RDG06921000WATRL000000004K00000000000001917018210302015134243N000000000000N61       000030400K 10000000010000001899           
CUS0692100000106353096008         BALTO CO UTILITIES  726 BACK RIVER NECK RD                  000N        CARE OF             
MTR06921000001000000000000000RA              48582315    005800640000006400000520000003NN  NNW 000                       N    
RDG06921000WATRL000000004K00000000000001045018110302015134240N000400000010N61       000800400K 10000000010000001043           
CUS0692100000106093599006         KRZYSTOF ZIELINSKI  728 BACK RIVER NECK RD                  000N        CARE OF             
MTR06921000001000000000000000RA              44090133    007500650000006500000520000003NN  NNW 000                       N    
RDG06921000WATRL000000004K00000000000004765018010302015134120N000000000000N61       000390400K 10000000010000004741           
CUS0692100000106093600002         LUCIANO ELSIE R     806 BACK RIVER NECK RD                  000N        CARE OF             
MTR06921000001000000000000000RA              99188134    005800660000006600000570000003NY  NNW 000                       N    
MTM0692100099188134    flooded                                                                                                
RDG06921000WATRL000000004K00000000000000000000000000000000000 000000000000U         000000400  10000000010000000669           
CUS0692100000106093601000         A & J PROPERTIES, LL810 BACK RIVER NECK RD                  000N        CARE OF             
MTR06921000001000000000000000RA              10016955    005800670000006700000570000003NN  NNW 000                       N    
RDG06921000WATRL000000004K00000000000000000017910302015134041S001000000000N61       002580400K 10000000010000001541           
CUS0692100000106093602008         WHEELER THOMAS G,JR 1402 CHERRY GARDEN RD                   000N        CARE OF             
MTR06921000001000000000000000RA              00137241    005800680000006800000570000003NN  NNW 000                       N    
RDG06921000WATRL000000004K00000000000001442000110302015075047N000400000010N61       000000400K 10000000010000001428           
CUS0692100000106430727005         GIBSON, WILLIS D &  808 BACK RIVER NECK RD                  000N        CARE OF             
MTR06921000001000000000000000RA              01078780    005800690000006900000610000003NY  NNW 000                       N    
MTM0692100001078780    flooded                                                                                                
RDG06921000WATRL000000004K00000000000000000000000000000000000 000000000000U         000000400  10000000010000000632           
CUS0692100000106093603006         HAGER MICHAEL       1400 CHERRY GARDEN RD                   000N        CARE OF             
MTR06921000001000000000000000RA              45380900    005800700000007000000520000003NN  NNW 000                       N    
RDG06921000WATRL000000004K00000000000000609000210302015075209N000000000000N61       000820400K 10000000010000000601           
CUS0692100000106093604004         MCDONALD ALFRED A   1503 PATTISON RD                        000N        CARE OF             
MTR06921000001000000000000000RA              00137243    005800710000007100000570000003NN  NNW 000                       N    
RDG06921000WATRL000000004K00000000000000366000410302015075435N000300000010N61       000640400K 10000000010000000407           
CUS0692100000104444774006         PUSINSKY SHANNA R   1505 PATTISON RD                        000N        CARE OF             
MTR06921000001000000000000000RA              10002637    005800720000007200000570000003NN  NNW 000                       N    
RDG06921000WATRL000000004K00000000000000373000310302015075331N000000000000N61       000820400K 10000000010000000360           
CUS0692100000106093605001         LIGHTNER STEVEN M   1511 PATTISON RD                        000N        CARE OF             
MTR06921000001000000000000000RA              52289316    005800730000007300000520000003NN  NNW 000                       N    
RDG06921000WATRL000000004K00000000000001445000510302015075635N000000000000N61       001200400K 10000000010000001412           
CUS0692100000106093606009         KESSELRING JAMES J  1513 PATTISON RD                        000N        CARE OF             
MTR06921000001000000000000000RA              35102037    005800740000007400000520000003NN  NNW 000                       N    
RDG06921000WATRL000000004K00000000000002299000610302015075720N000000000000N61       000450400K 10000000010000002276           
CUS0692100000106441953004         BONNIE L MARCHETTI  1512 PATTISON RD                        000N        CARE OF             
MTR06921000001000000000000000RA              14922855    005800750000007500000310000003NN  NNW 000                       N    
RDG06921000WATRL000000004K00000000000000581000710302015075802N000000000000N61       000420400K 10000000010000000568           
CUS0692100000106093607007         FRANK H. WINTERLING 1508 PATTISON RD                        000N        CARE OF             
MTR06921000001000000000000000RA              00137242    005800760000007600000570000003NN  NNW 000                       N    
RDG06921000WATRL000000004K00000000000001121000810302015075903N000000000000N61       000610400K 10000000010000001110           
CUS0692100000106093608005         DOUGLASS LILLIAN M  1506 PATTISON RD                        000N        CARE OF             
MTR06921000001000000000000000RA              44003931    005800770000007700000520000003NY  NNW 000                       N    
MTM0692100044003931    cant locate                                                                                            
RDG06921000WATRL000000004K00000000000000000000000000000000000 000000000000U         000000400  10000000010000000454           
CUS0692100000106093609003         DOUGLASS CHRISTOPHER1504 PATTISON RD                        000N        CARE OF             
MTR06921000001000000000000000RA              40781877    005800780000007800000520000003NN  NNW 000                       N    
RDG06921000WATRL000000004K00000000000001097000910302015080142N000000000010N61       001590400K 10000000010000001096           
CUS0692100000106093610001         SMITH DONALD J      1500 PATTISON RD                        000N        CARE OF             
MTR06921000001000000000000000RA              00137244    005800790000007900000570000003NN  NNW 000                       N    
RDG06921000WATRL000000004K00000000000000622001010302015080253N000000000000N61       000710400K 10000000010000000616           
CUS0692100000106093611009         BRIGGS & BRIGGS INVS1320 CHERRY GARDEN RD                   000N        CARE OF             
MTR06921000001000000000000000RA              00137279    005800800000008000000570000003NN  NNW 000                       N    
RDG06921000WATRL000000004K00000000000000508001110302015080456N000000000000N61       001230400K 10000000010000000490           
CUS0692100000106093612007         WISNIEWSKI MARK     1318 CHERRY GARDEN RD                   000N        CARE OF             
MTR06921000001000000000000000RA              00139393    005800810000008100000570000003NN  NNW 000                       N    
RDG06921000WATRL000000004K00000000000001049001210302015080609N000000000000N61       000730400K 10000000010000001041           
CUS0692100000106093613005         STEVEN SNYDER       1316 CHERRY GARDEN RD                   000N        CARE OF             
MTR06921000001000000000000000RA              35110977    005800820000008200000520000003NN  NNW 000                       N    
RDG06921000WATRL000000004K00000000000003527001310302015080841N000000000000N61       001520400K 10000000010000003506           
CUS0692100000106093614003         MALON SOPHIA I      1314 CHERRY GARDEN RD                   000N        CARE OF             
MTR06921000001000000000000000RA              10003091    005800830000008300000570000003NN  NNW 000                       N    
RDG06921000WATRL000000004K00000000000000911001410302015080946N000300000010N61       000650400K 10000000010000000746           
CUS0692100000106093615000         MELTON KATHY SIMS   1312 CHERRY GARDEN RD                   000N        CARE OF             
MTR06921000001000000000000000RA              32902103    005800840000008400000520000003NN  NNW 000                       N    
RDG06921000WATRL000000004K00000000000003674001510302015081149N000000000000N61       001230400K 10000000010000003661           
CUS0692100000106093616008         KRUG JANET L        1310 CHERRY GARDEN RD                   000N        CARE OF             
MTR06921000001000000000000000RA              40779852    005800850000008500000520000003NN  NNW 000                       N    
RDG06921000WATRL000000004K00000000000001965001610302015081319N000000000000N61       000900400K 10000000010000001959           
CUS0692100000106441194005         HARRIS JOSHUA       1308 CHERRY GARDEN RD                   000N        CARE OF             
MTR06921000001000000000000000RA              14923123    005800860000008600000310000000NN  NNW 000                       N    
RDG06921000WATRL000000004K00000000000000418001710302015081343N000000000000N61       000240400K 10000000010000000410           
CUS0692100000106093617006         TAFT YVONNE         1306 CHERRY GARDEN RD                   000N        CARE OF             
MTR06921000001000000000000000RA              38984152    005800870000008700000520000003NN  NNW 000                       N    
RDG06921000WATRL000000004K00000000000003492001810302015081523N000300000010N61       001000400K 10000000010000003448           
CUS0692100000106093618004         BIUK DONNA M        1304 CHERRY GARDEN RD                   000N        CARE OF             
MTR06921000001000000000000000RA              36694800    005800880000008800000520000003NN  NNW 000                       N    
RDG06921000WATRL000000004K00000000000001983001910302015081608N000000000000N61       000450400K 10000000010000001967           
CUS0692100000106444320003         TERRATRUST, LLC     1537 DENTON RD                          000N        CARE OF             
MTR06921000001000000000000000RA              10008628    005800890000008900000570000003NN  NNW 000                       N    
RDG06921000WATRL000000004K00000000000000234002210302015082445N000000000000N61       001220400K 10000000010000000215           
CUS0692100000106093619002         BERRY MARK G        1531 DENTON RD                          000N        CARE OF             
MTR06921000001000000000000000RA              00137022    005800900000009000000570000003NN  NNW 000                       N    
RDG06921000WATRL000000004K00000000000001120002010302015082033N000000000000N61       002650400K 10000000010000001094           
CUS0692100000106093620000         BERRY MARK G        1533 DENTON RD                          000N        CARE OF             
MTR06921000001000000000000000RA              24222214    005800910000009100000520000003NN  NNW 000                       N    
RDG06921000WATRL000000004K00000000000000007002110302015082243N000000000000N61       001300400K 10000000010000000007           
CUS0692100000106093621008         MAYNARD CARL A      1546 DENTON RD                          000N        CARE OF             
MTR06921000001000000000000000RA              10001088    005800920000009200000570000003NN  NNW 000                       N    
RDG06921000WATRL000000004K00000000000000583002310302015082603N000000000000N61       000780400K 10000000010000000566           
CUS0692100000106093622006         SCOTT E WATERWORTH  1534 DENTON RD                          000N        CARE OF             
MTR06921000001000000000000000RA              01115581    005800930000009300000610000003NN  NNW 000                       N    
RDG06921000WATRL000000004K00000000000000770002410302015082823N000000000000N61       001400400K 10000000010000000757           
CUS0692100000106093623004         FRANCIS D'AMICO , JR1532 DENTON RD                          000N        CARE OF             
MTR06921000001000000000000000RA              14903445    005800940000009400000310000003NN  NNW 000                       N    
RDG06921000WATRL000000004K00000000000000673002510302015082943N000000000000N61       000800400K 10000000010000000667           
CUS0692100000106093624002         BILZ SUSAN M        1526 DENTON RD                          000N        CARE OF             
MTR06921000001000000000000000RA              01111296    005800950000009500000610000003NN  NNW 000                       N    
RDG06921000WATRL000000004K00000000000000350002610302015083116N000000000000N61       000930400K 10000000010000000346           
CUS0692100000106093625009         BUZGIERSKI MARION W 1524 DENTON RD                          000N        CARE OF             
MTR06921000001000000000000000RA              14914078    005800960000009600000310000003NN  NNW 000                       N    
RDG06921000WATRL000000004K00000000000000312002710302015083229N000000000000N61       000730400K 10000000010000000309           
CUS0692100000106093626007         WITOLD J MALKOWSKI  1522 DENTON RD                          000N        CARE OF             
MTR06921000001000000000000000RA              01075247    005800970000009700000610000003NN  NNW 000                       N    
RDG06921000WATRL000000004K00000000000001307002810302015083327N000300000010N61       000580400K 10000000010000001333           
CUS0692100000106093627005         ANDREW H HAGAN      1520 DENTON RD                          000N        CARE OF             
MTR06921000001000000000000000RA              48591814    005800980000009800000520000003NN  NNW 000                       N    
RDG06921000WATRL000000004K00000000000002600002910302015083446N000000000000N61       000790400K 10000000010000002588           
CUS0692100000106093628003         SNYDER JENNIFER     1518 DENTON RD                          000N        CARE OF             
MTR06921000001000000000000000RA              36697165    005800990000009900000520000003NY  NNW 000                       N    
MTM0692100036697165    cant                    locate                                                                         
RDG06921000WATRL000000004K00000000000000000000000000000000000 000000000000U         000000400  10000000010000000795           
CUS0692100000106093629001         FRANK B. BROWN      1512 DENTON RD                          000N        CARE OF             
MTR06921000001000000000000000RA              10020331    005801000000010000000570000003NN  NNW 000                       N    
RDG06921000WATRL000000004K00000000000000183003010302015083940N000400000010N61       002940400K 10000000010000000175           
CUS0692100000106093630009         GIRARD DENISE M     1510 DENTON RD                          000N        CARE OF             
MTR06921000001000000000000000RA              10008110    005801010000010100000570000003NN  NNW 000                       N    
RDG06921000WATRL000000004K00000000000000314003110302015084109N000000000000N61       000890400K 10000000010000000300           
CUS0692100000106093631007         EVANS ADA B         1516 DENTON RD                          000N        CARE OF             
MTR06921000001000000000000000RA              25783501    005801020000010200000520000003NY  NNW 000                       N    
MTM0692100025783501    cant locate                                                                                            
RDG06921000WATRL000000004K00000000000000000000000000000000000 000000000000U         000000400  10000000010000002045           
CUS0692100000106093632005         TERESA A NEEDLE     1508 DENTON RD                          000N        CARE OF             
MTR06921000001000000000000000RA              10009366    005801030000010300000570000003NN  NNW 000                       N    
RDG06921000WATRL000000004K00000000000000409003210302015084147N000000000000N61       000380400K 10000000010000000397           
CUS0692100000106093326004         NEEDLE MICHAEL S    1507 DENTON RD                          000N        CARE OF             
MTR06921000001000000000000000RA              46876666    005801040000010400000520000003NN  NNW 000   VACANT / LOT        N    
RDG06921000WATRL000000004K00000000000000857003310302015084223N000000000000N61       000360400K 10000000010000000857           
CUS0692100000106093327002         AUGUST W PAKASKI    1509 DENTON RD                          000N        CARE OF             
MTR06921000001000000000000000RA              14906082    005801050000010500000310000003NN  NNW 000                       N    
RDG06921000WATRL000000004K00000000000000669003410302015084319N000000000000N61       000560400K 10000000010000000647           
CUS0692100000106093328000         PAKASKI AUGUST W    1511 DENTON RD                          000N        CARE OF             
MTR06921000001000000000000000RA              10018519    005801060000010600000570000000NN  NNW 000                       N    
RDG06921000WATRL000000004K00000000000000345003510302015084357N000400000010N61       000380400K 10000000010000000333           
CUS0692100000106093329008         KEN & CYNDI HOWARD  1315 CHERRY GARDEN RD                   000N        CARE OF             
MTR06921000001000000000000000RA              45385730    005801070000010700000520000003NN  NNW 000                       N    
RDG06921000WATRL000000004K00000000000000000003610302015084747S005000000000U61       002300400K 10000000010000000880           
CUS0692100000106093330006         RICE JOHN D         1211 ELSING RD                          000N        CARE OF             
MTR06921000001000000000000000RA              44172940    005801080000010800000520000003NN  NNW 000                       N    
RDG06921000WATRL000000004K00000000000000000000000000000000000 000000000000U         000000400  10000000010000001737           
CUS0692100000106093331004         RISTON LAWRENCE R   1210 ELSING RD                          000N        CARE OF             
MTR06921000001000000000000000RA              32902100    005801090000010900000520000003NN  NNW 000                       N    
RDG06921000WATRL000000004K00000000000004456004210302015093228N000000000000N61       001870400K 10000000010000004437           
CUS0692100000106093332002         HORACE CUGLE        1208 ELSING RD                          000N        CARE OF             
MTR06921000001000000000000000RA              35110976    005801100000011000000520000003NY  NNW 000                       N    
MTM0692100035110976    cleanout                                                                                               
RDG06921000WATRL000000004K00000000000000000000000000000000000 000000000000U         000000400  10000000010000002977           
CUS0692100000106093333000         MIDWIG ROBERT A     1205 ELSING RD                          000N        CARE OF             
MTR06921000001000000000000000RA              24764966    005801110000011100000520000003NN  NNW 000                       N    
RDG06921000WATRL000000004K00000000000003670004010302015092821N000000000000N61       015900400K 10000000010000003655           
CUS0692100000106093334008         BOEHM MAY C         1207 ELSING RD                          000N        CARE OF             
MTR06921000001000000000000000RA              99999999    005801120000011200000620000003NN  NNW 000                       N    
RDG06921000WATRL000000004K00000000000000000004110302015092921S002000000000N61       000600400K 10000000010000000203           
CUS0692100000106093335005         GARY R HALE         1209 ELSING RD                          000N        CARE OF             
MTR06921000001000000000000000RA              76347353    005801130000011300000350000000NN  NNW 000                       N    
RDG06921000WATRL000000004K00000000000000100004310302015093339N000000000000N61       000710400K 10000000010000000086           
CUS0692100000106093336003         RODNEY COSTER       1213 ELSING RD                          000N        CARE OF             
MTR06921000001000000000000000RA              14910034    005801140000011400000310000003NN  NNW 000                       N    
RDG06921000WATRL000000004K00000000000000915004410302015093731N000400000021N61       001750400K 10000000010000000909           
CUS0692100000106093337001         SMITH ALLEN W       1313 ELSING RD                          000N        CARE OF             
MTR06921000001000000000000000RA              42808179    005801150000011500000520000003NN  NNW 000                       N    
RDG06921000WATRL000000004K00000000000000000004510302015093856S022000000010N61       000850400K 10000000010000004553           
CUS0692100000106093338009         OLIVER PAUL         1219 ELSING RD                          000N        CARE OF             
MTR06921000001000000000000000RA              27833141    005801160000011600000520000003NN  NNW 000                       N    
RDG06921000WATRL000000004K00000000000003737004610302015094019N000000000000N61       000830400K 10000000010000003719           
CUS0692100000106093339007         FLOYD BOWMAN        1217 ELSING RD                          000N        CARE OF             
MTR06921000001000000000000000RA              46880685    005801170000011700000520000003NN  NNW 000                       N    
RDG06921000WATRL000000004K00000000000001977004710302015094155N000000000000N61       000960400K 10000000010000001970           
CUS0692100000106093340005         BROWN THEODORE J,JR 1219 ROSE GARDEN RD                     000N        CARE OF             
MTR06921000001000000000000000RA              77987781    005801180000011800000350000003NN  NNW 000                       N    
RDG06921000WATRL000000004K00000000000000060004810302015094352N000400000010N61       001170400K 10000000010000000052           
CUS0692100000106093341003         LOOKABILL GEORGE C  1221 ROSE GARDEN RD                     000N        CARE OF             
MTR06921000001000000000000000RA              48583357    005801190000011900000520000003NN  NNW 000                       N    
RDG06921000WATRL000000004K00000000000000776004910302015094527N000300000010N61       000950400K 10000000010000000779           
CUS0692100000106398293008         FRANCIS W SCHONOWSKI1414 CHERRY GARDEN RD                   000N        CARE OF             
MTR06921000001000000000000000RA              78028545    007501200000012000000350000003NN  NNW 000                       N    
RDG06921000WATRL000000004K00000000000000037003810302015085953N000000000010N61       001030400K 10000000010000000000           
CUS0692100000106093342001         MIHAVETZ MICHAEL    1421 CHERRY GARDEN RD                   000N        CARE OF             
MTR06921000001000000000000000RA              00137021    005801210000012100000570000003NN  NNW 000                       N    
RDG06921000WATRL000000004K00000000000000884003710302015085810N000300000010N61       006230400K 10000000010000000897           
CUS0692100000106093343009         1501 CHERRY GARDEN R1501 CHERRY GARDEN RD                   000N        CARE OF             
MTR06921000001000000000000000RA              00136962    005801220000012200000570000003NN  NNW 000                       N    
RDG06921000WATRL000000004K00000000000001023003910302015090151N000000000000N61       001180400K 10000000010000001010           
CUS0692100000106093344007         FALKENSTEIN JOHN WICSWC BACK RIVER NECK RD&                 000N        CARE OF             
MTR06921000001000000000000000RA              10022755    005801230000012300000570000003NY  NNW 000                       N    
MTM0692100010022755    78021585                                                                                               
RDG06921000WATRL000000004K00000000000000009005010302015095309N000304100010N61       004620400K 10000000010000000189           
CUS0692100000106093345004         FALKENSTEIN JOHN WIC850 BACK RIVER NECK RD                  000N        CARE OF             
MTR06921000001000000000000000RA              14919321    005801240000012400000310000003NN  NNW 000                       N    
RDG06921000WATRL000000004K00000000000000000000000000000000000 000000000000U         000000400  10000000010000002576           
CUS0692100000106093346002         KWJ PROPERTIES LLC  1014 BACK RIVER NECK RD                 000N        CARE OF             
MTR06921000001000000000000000RA              10013741    005801250000012500000570000003NY  NNW 000                       N    
MTM0692100010013741    buried                                                                                                 
RDG06921000WATRL000000004K00000000000000000000000000000000000 000000000000U         000000400  10000000010000000254           
CUS0692100000106093347000         BONOLIS PAUL A      1102 BACK RIVER NECK RD                 000N        CARE OF             
MTR06921000001000000000000000RA              35105591    007501260000012600000520000003NN  NNW 000                       N    
RDG06921000WATRL000000004K00000000000005285005110302015095905N000400000010N61       003560400K 10000000010000005279           
CUS0692100000106093348008         SOMOGYI ELOISE D    1108 BACK RIVER NECK RD                 000N        CARE OF             
MTR06921000001000000000000000RA              14902996    005801270000012700000310000003NY  NNW 000                       N    
MTM0692100014902996    flooded                                                                                                
RDG06921000WATRL000000004K00000000000000654005210302015100139N000008400000N61       001540400K 10000000010000000644           
CUS0692100000106441957005         KILLIAN MICHELLE & J1216 BACK RIVER NECK RD                 000N        CARE OF             
MTR06921000001000000000000000RA              10011050    005801280000012800000570000003NN  NNW 000                       N    
RDG06921000WATRL000000004K00000000000000310017810302015133623N000000000010N61       000130400K 10000000010000000299           
CUS0692100000106093349006         BUXENSTEIN ELMER H,J1212 BACK RIVER NECK RD                 000N        CARE OF             
MTR06921000001000000000000000RA              24765570    005801290000012900000520000003NN  NNW 000                       N    
RDG06921000WATRL000000004K00000000000004291017710302015133610N000000000000N61       000050400K 10000000010000004270           
CUS0692100000106444398009         814 GLEN ALLEN LLC  1208 BACK RIVER NECK RD                 000N        CARE OF             
MTR06921000001000000000000000RA              10004680    005801300000013000000570000003NN  NNW 000                       N    
RDG06921000WATRL000000004K00000000000000231017610302015133605N000000000000N61       003440400K 10000000010000000220           
CUS0692100000106355066009         PAKASKI MICHAEL W,JR1204 BACK RIVER NECK RD                 000N        CARE OF             
MTR06921000001000000000000000RA              01086912    005801310000013100000610000003NN  NNW 000                       N    
RDG06921000WATRL000000004K00000000000000000000000000000000000 000000000000U         000000400  10000000010000000688           
CUS0692100000106093350004         A T L INVESTMENTS LL1200 BACK RIVER NECK RD                 000N        CARE OF             
MTR06921000001000000000000000RA              25783186    005801320000013200000520000003NN  NNW 000   VACANT / LOT        N    
RDG06921000WATRL000000004K00000000000000000017510302015133021S022000000000N61       000380400K 10000000010000003082           
CUS0692100000106414192002         RICARDO RAMTAHAL    1501 SOMOGYI RD                         000N        CARE OF             
MTR06921000001000000000000000RA              43905696    007501330000013300000520000003NY  NNW 000                       N    
MTM0692100043905696    flooded                                                                                                
RDG06921000WATRL000000004K00000000000000000000000000000000000 000000000000U         000000400  10000000010000002933           
CUS0692100000106456417002         ERNEST JENKINS      1628 MORNING GLORY LN                   000N        CARE OF             
MTR06921000001000000000000000RA              78028056    007501340000013400000360000003NN  NNW 000                       N    
RDG06921000WATRL000000004K00000000000000144010410302015114515N000000000010N61       001270400K 10000000010000000000           
CUS0692100000106093351002         BEAVERS ROBERT B    1153 E RIVERSIDE AVE                    000N        CARE OF             
MTR06921000001000000000000000RA              27812782    005801350000013500000520000003NN  NNW 000                       N    
RDG06921000WATRL000000004K00000000000003694017410302015132943N000300000010N61       000080400K 10000000010000003651           
CUS0692100000106093352000         TMRT COUNTY LLC     1115 E RIVERSIDE AVE                    000N        CARE OF             
MTR06921000001000000000000000RA              31581448    005801360000013600000520000003NN  NNW 000                       N    
RDG06921000WATRL000000004K00000000000002123017310302015132935N000300000010N61       000170400K 10000000010000002052           
CUS0692100000106093353008         GORALSKI ELEANOR A  1105 E RIVERSIDE AVE                    000N        CARE OF             
MTR06921000001000000000000000RA              14909234    005801370000013700000310000003NN  NNW 000                       N    
RDG06921000WATRL000000004K00000000000000235017210302015132918N000300000010N61       000690400K 10000000010000000257           
CUS0692100000106093354006         MARINA HOLDING LLC  1101 E RIVERSIDE AVE                    000N        CARE OF             
MTR06921000001000000000000000RA              44173690    005801380000013800000520000003NY  NNW 000                       N    
MTM0692100044173690    buried                                                                                                 
RDG06921000WATRL000000004K00000000000000000000000000000000000 000000000000U         000000400  10000000010000000822           
CUS0692100000106093355003         MARINA HOLDING LLC  1100 E RIVERSIDE AVE                    000N        CARE OF             
MTR06921000001000000000000000RA              00120418    007501390000013900000570000003NN  NNW 000                       N    
RDG06921000WATRL000000004K00000000000003697017110302015132809N000000000000N61       000120400K 10000000010000003603           
CUS0692100000106093356001         RIVERSIDE INN INC   1106 E RIVERSIDE AVE                    000N        CARE OF             
MTR06921000001000000000000000RA              14910409    005801400000014000000310000003NN  NNW 000                       N    
RDG06921000WATRL000000004K00000000000002566017010302015132757N000000000000N61       000080400K 10000000010000002532           
CUS0692100000106093357009         UMBERGER MARY ANN   1108 E RIVERSIDE AVE                    000N        CARE OF             
MTR06921000001000000000000000RA              75615960    005801410000014100000350000003NN  NNW 000                       N    
RDG06921000WATRL000000004K00000000000000072016910302015132749N000000000000N61       000630400K 10000000010000000064           
CUS0692100000106093358007         ENGLEMAN PATRICIA A 1110 E RIVERSIDE AVE                    000N        CARE OF             
MTR06921000001000000000000000RA              14904905    005801420000014200000310000003NY  NNW 000                       N    
MTM0692100014904905    flooded                                                                                                
RDG06921000WATRL000000004K00000000000000000000000000000000000 000000000000U         000000400  10000000010000000280           
CUS0692100000106438808005         PODHORNIAK GREGORY K1112E RIVERSIDE AVE                     000N        CARE OF             
MTR06921000001000000000000000RA              99999999    005801430000014300000570000003NN  NNW 000                       N    
RDG06921000WATRL000000004K00000000000000730016810302015132646N000000000000N61       000600400K 10000000010000000712           
CUS0692100000108438579008         KATHLEEN & DAVID COH1114 E RIVERSIDE AVE                    000N        CARE OF             
MTR06921000001000000000000000RA              14910566    005801440000014400000310000000NY  NNW 000                       N    
MTM0692100014910566    car                                                                                                    
RDG06921000WATRL000000004K00000000000000000000000000000000000 000000000000U         000000400  10000000010000000609           
CUS0692100000106093359005         HAHN LAURENCE R     1116 E RIVERSIDE AVE                    000N        CARE OF             
MTR06921000001000000000000000RA              36691405    005801450000014500000520000003NY  NNW 000                       N    
MTM0692100036691405    buried                                                                                                 
RDG06921000WATRL000000004K00000000000000000000000000000000000 000000000000U         000000400  10000000010000003199           
CUS0692100000106093360003         SCHULTZ KENNETH L   1118 E RIVERSIDE AVE                    000N        CARE OF             
MTR06921000001000000000000000RA              77877824    005801460000014600000360000003NN  NNW 000                       N    
RDG06921000WATRL000000004K00000000000000000016710302015132546N000000000000N61       000050400K 10000000010000000000           
CUS0692100000106093361001         DEREZINSKI LINDA S  1120 E RIVERSIDE AVE                    000N        CARE OF             
MTR06921000001000000000000000RA              75615117    005801470000014700000350000003NN  NNW 000                       N    
RDG06921000WATRL000000004K00000000000000275016610302015132541N000000000000N61       000030400K 10000000010000000249           
CUS0692100000106093362009         BENICEWICZ MICHAEL  1122 E RIVERSIDE AVE                    000N        CARE OF             
MTR06921000001000000000000000RA              44087543    005801480000014800000520000003NN  NNW 000                       N    
RDG06921000WATRL000000004K00000000000000736016510302015132538N000000000000N61       000060400K 10000000010000000722           
CUS0692100000106093363007         BARTHELMES  JOSEPH H1124 E RIVERSIDE AVE                    000N        CARE OF             
MTR06921000001000000000000000RA              14916931    005801490000014900000310000003NN  NNW 000                       N    
RDG06921000WATRL000000004K00000000000000081016410302015132532N000000000000N61       000240400K 10000000010000000052           
CUS0692100000106093364005         MILES JACKIE L      1126 E RIVERSIDE AVE                    000N        CARE OF             
MTR06921000001000000000000000RA              00136964    005801500000015000000570000003NN  NNW 000                       N    
RDG06921000WATRL000000004K00000000000001838016310302015132508N000400000010N61       000080400K 10000000010000001814           
CUS0692100000106093365002         RACILLA PAUL        1128-30 E RIVERSIDE AVE                 000N        CARE OF             
MTR06921000001000000000000000RA              36691404    005801510000015100000570000003NN  NNW 000                       N    
RDG06921000WATRL000000004K00000000000001970016210302015132500N000000000000N61       000060400K 10000000010000001951           
CUS0692100000106093366000         BROWN JAMES C       1132 E RIVERSIDE AVE                    000N        CARE OF             
MTR06921000001000000000000000RA              01109162    005801520000015200000610000003NN  NNW 000                       N    
RDG06921000WATRL000000004K00000000000000760016110302015132454N000000000000N61       000050400K 10000000010000000752           
CUS0692100000106093367008         MOORE JAMES H,3RD   1134 E RIVERSIDE AVE                    000N        CARE OF             
MTR06921000001000000000000000RA              27827778    005801530000015300000520000000NN  NNW 000                       N    
RDG06921000WATRL000000004K00000000000002811016010302015132449N000000000000N61       000060400K 10000000010000002800           
CUS0692100000106093368006         HUGHES THOMAS A     1136 E RIVERSIDE AVE                    000N        CARE OF             
MTR06921000001000000000000000RA              30526653    005801540000015400000520000003NN  NNW 000                       N    
RDG06921000WATRL000000004K00000000000004522015910302015132443N000000000000N61       000050400K 10000000010000004497           
CUS0692100000106093369004         LARGENT ROBERT      1138 E RIVERSIDE AVE                    000N        CARE OF             
MTR06921000001000000000000000RA              10017659    005801550000015500000570000003NN  NNW 000                       N    
RDG06921000WATRL000000004K00000000000000291015810302015132438N000000000000N61       000050400K 10000000010000000275           
CUS0692100000106093370002         DUDAR LAWRENCE V    1142 E RIVERSIDE AVE                    000N        CARE OF             
MTR06921000001000000000000000RA              21202772    005801560000015600000520000003NN  NNW 000                       N    
RDG06921000WATRL000000004K00000000000003358015710302015132433N000000000000N61       000040400K 10000000010000003351           
CUS0692100000106093371000         BEAVERS ROBERT      1146 E RIVERSIDE AVE                    000N        CARE OF             
MTR06921000001000000000000000RA              10017655    005801570000015700000570000003NN  NNW 000                       N    
RDG06921000WATRL000000004K00000000000000214015610302015132429N000000000000N61       000100400K 10000000010000000208           
CUS0692100000106093372008         LINGELBACH WINIFRED 1148 E RIVERSIDE AVE                    000N        CARE OF             
MTR06921000001000000000000000RA              26008466    005801580000015800000520000003NN  NNW 000                       N    
RDG06921000WATRL000000004K00000000000004314015510302015132419N000000000000N61       000110400K 10000000010000004292           
CUS0692100000106093373006         ROBERT JEFFERSON    1150 E RIVERSIDE AVE                    000N        CARE OF             
MTR06921000001000000000000000RA              01097874    005801590000015900000610000003NN  NNW 000                       N    
RDG06921000WATRL000000004K00000000000000870015410302015132408N000000000000N61       000740400K 10000000010000000868           
CUS0692100000106093374004         ROBERT A JEFFERSON  1152 E RIVERSIDE AVE                    000N        CARE OF             
MTR06921000001000000000000000RA              76349290    005801600000016000000350000003NY  NNW 000                       N    
MTM0692100076349290    flooded                                                                                                
RDG06921000WATRL000000004K00000000000000000000000000000000000 000000000000U         000000400  10000000010000000034           
CUS0692100000106442220007         SOUTHWORTH EDWARD AL1154 E RIVERSIDE AVE                    000N        CARE OF             
MTR06921000001000000000000000RA              14924131    005801610000016100000310000003NN  NNW 000                       N    
RDG06921000WATRL000000004K00000000000000823015310302015132254N000000000000N61       000070400K 10000000010000000807           
CUS0692100000106093375001         KENDRICK RICHARD    1158 E RIVERSIDE AVE                    000N        CARE OF             
MTR06921000001000000000000000RA              14923657    005801620000016200000310000003NN  NNW 000                       N    
RDG06921000WATRL000000004K00000000000000168015210302015132247N000000000000N61       000040400K 10000000010000000166           
CUS0692100000106093376009         CASSEDY PATRICIA    1200 E RIVERSIDE AVE                    000N        CARE OF             
MTR06921000001000000000000000RA              21202967    005801630000016300000520000003NN  NNW 000                       N    
RDG06921000WATRL000000004K00000000000003742015110302015132243N000000000000N61       000060400K 10000000010000003732           
CUS0692100000106093377007         LOVE-RUFFELL MARIA L1202 E RIVERSIDE AVE                    000N        CARE OF             
MTR06921000001000000000000000RA              75427051    007501640000016400000350000003NN  NNW 000                       N    
RDG06921000WATRL000000004K00000000000000091015010302015132237N000400000010N61       000220400K 10000000010000000086           
CUS0692100000106093378005         LOVE GARY WAYNE     1206 E RIVERSIDE AVE                    000N        CARE OF             
MTR06921000001000000000000000RA              44087546    005801650000016500000520000003NN  NNW 000                       N    
RDG06921000WATRL000000004K00000000000001756014910302015132215N000000000000N61       000060400K 10000000010000001752           
CUS0692100000106093379003         MITCHELL CHARLES C  1210 E RIVERSIDE AVE                    000N        CARE OF             
MTR06921000001000000000000000RA              10004698    005801660000016600000570000003NN  NNW 000                       N    
RDG06921000WATRL000000004K00000000000001070014810302015132209N000400000010N61       000240400K 10000000010000001063           
CUS0692100000106093380001         ELMER M POKLEMBA    1216 E RIVERSIDE AVE                    000N        CARE OF             
MTR06921000001000000000000000RA              00136961    005801670000016700000570000003NN  NNW 000                       N    
RDG06921000WATRL000000004K00000000000000561014710302015132145N000000000000N61       000070400K 10000000010000000557           
CUS0692100000106351824005         BROMWELL STEVEN G   1218 E RIVERSIDE AVE                    000N        CARE OF             
MTR06921000001000000000000000RA              14920030    005801680000016800000310000003NN  NNW 000                       N    
RDG06921000WATRL000000004K00000000000000902014610302015132138N000000000000N61       000070400K 10000000010000000895           
CUS0692100000106093381009         JUAN C ARROYO       1220 E RIVERSIDE AVE                    000N        CARE OF             
MTR06921000001000000000000000RA              44174022    005801690000016900000520000003NN  NNW 000                       N    
RDG06921000WATRL000000004K00000000000001662014510302015132131N000000000000N61       000080400K 10000000010000001661           
CUS0692100000106093382007         BROOKS WILLIAM L    1222 E RIVERSIDE AVE                    000N        CARE OF             
MTR06921000001000000000000000RA              50788582    005801700000017000000520000003NN  NNW 000   VACANT / LOT        N    
RDG06921000WATRL000000004K00000000000000123014410302015132123N000000000001N61       000440400K 10000000010000000123           
CUS0692100000106093383005         HEISE ETHEL G       1224 E RIVERSIDE AVE                    000N        CARE OF             
MTR06921000001000000000000000RA              33077022    005801710000017100000520000000NN  NNW 000                       N    
RDG06921000WATRL000000004K00000000000001502006610302015103000N000300000020N61       001170400K 10000000010000001510           
CUS0692100000106093384003         RISTON JOSEPH W,JR  1226 E RIVERSIDE AVE                    000N        CARE OF             
MTR06921000001000000000000000RA              12305336    005801720000017200000520000003NN  NNW 000                       N    
RDG06921000WATRL000000004K00000000000003076006510302015102803N000000000000N61       000330400K 10000000010000003061           
CUS0692100000106093385000         ERIC MABE           1228 E RIVERSIDE AVE                    000N        CARE OF             
MTR06921000001000000000000000RA              48590562    005801730000017300000520000000NN  NNW 000                       N    
RDG06921000WATRL000000004K00000000000001213006410302015102730N000000000000N61       000440400K 10000000010000001203           
CUS0692100000104353165006         FUCHS EDWARD R      1230 E RIVERSIDE AVE                    000N        CARE OF             
MTR06921000001000000000000000RA              75618143    005801740000017400000350000003NN  NNW 000                       N    
RDG06921000WATRL000000004K00000000000000061006210302015102607N000000000000N61       000700400K 10000000010000000057           
CUS0692100000106093386008         GERICKE GEORGE      1232 E RIVERSIDE AVE                    000N        CARE OF             
MTR06921000001000000000000000RA              00136963    005801750000017500000570000003NN  NNW 000                       N    
RDG06921000WATRL000000004K00000000000000767006310302015102646N000000000000N61       000390400K 10000000010000000756           
CUS0692100000106093387006         ROE CHARLES P       1236 E RIVERSIDE AVE                    000N        CARE OF             
MTR06921000001000000000000000RA              01078405    005801760000017600000610000003NN  NNW 000                       N    
RDG06921000WATRL000000004K00000000000001089006110302015102457N000000000000N61       000530400K 10000000010000001065           
CUS0692100000106093389002         ROE CHARLES P       1238 E RIVERSIDE AVE                    000N        CARE OF             
MTR06921000001000000000000000RA              25782013    005801770000017700000520000000NN  NNW 000                       N    
RDG06921000WATRL000000004K00000000000003310006010302015102404N000000000000N61       000430400K 10000000010000003292           
CUS0692100000106093390000         JERRY CROWELL       1242 E RIVERSIDE AVE                    000N        CARE OF             
MTR06921000001000000000000000RA              24223056    005801780000017800000520000000NN  NNW 000                       N    
RDG06921000WATRL000000004K00000000000002985005910302015102321N000000000000N61       001270400K 10000000010000002978           
CUS0692100000106093391008         ANDREWS DONALD M    1244 E RIVERSIDE AVE                    000N        CARE OF             
MTR06921000001000000000000000RA              75614684    005801790000017900000350000003NN  NNW 000                       N    
RDG06921000WATRL000000004K00000000000000165005810302015102114N000000000000N61       003460400K 10000000010000000152           
CUS0692100000106093392006         MATTHEU ROSEMARY DOR1246 E RIVERSIDE AVE                    000N        CARE OF             
MTR06921000001000000000000000RA              14921203    005801800000018000000310000003NN  NNW 000                       N    
RDG06921000WATRL000000004K00000000000000975005710302015101528N000000000000N61       000670400K 10000000010000000943           
CUS0692100000106093393004         BRAWNER BRIAN       1300 E RIVERSIDE AVE                    000N        CARE OF             
MTR06921000001000000000000000RA              23649267    005801810000018100000520000003NY  NNW 000                       N    
MTM0692100023649267    cant locate                                                                                            
RDG06921000WATRL000000004K00000000000000000000000000000000000 000000000000U         000000400  10000000010000002902           
CUS0692100000106093394002         WHEELER JACQUELINE A1302 E RIVERSIDE AVE                    000N        CARE OF             
MTR06921000001000000000000000RA              10002171    005801820000018200000570000000NN  NNW 000                       N    
RDG06921000WATRL000000004K00000000000000280005610302015101421N000000000000N61       000390400K 10000000010000000273           
CUS0692100000106093395009         ROBERT CLINT KNETEN 1306 E RIVERSIDE AVE                    000N        CARE OF             
MTR06921000001000000000000000RA              48589134    005801830000018300000520000003NN  NNW 000                       N    
RDG06921000WATRL000000004K00000000000000290005410302015101019N000000000000N61       000650400K 10000000010000000285           
CUS0692100000106093396007         PATRICIA I FROCK    1308 E RIVERSIDE AVE                    000N        CARE OF             
MTR06921000001000000000000000RA              21202964    005801840000018400000520000003NN  NNW 000                       N    
RDG06921000WATRL000000004K00000000000005072005310302015100914N000000000000N61       004550400K 10000000010000005067           
CUS0692100000106093397005         HAMMOND GARY A      1312 E RIVERSIDE AVE                    000N        CARE OF             
MTR06921000001000000000000000RA              11427646    005801850000018500000570000003NY  NNW 000                       N    
MTM0692100011427646    dog                                                                                                    
RDG06921000WATRL000000004K00000000000000000000000000000000000 000000000000U         000000400  10000000010000003762           
CUS0692100000106093398003         SNOWDEN EDWARD A,JR 1337 E RIVERSIDE AVE                    000N        CARE OF             
MTR06921000001000000000000000RA              14904903    005801860000018600000310000003NN  NNW 000                       N    
RDG06921000WATRL000000004K00000000000000000000000000000000000 000000000000U         000000400  10000000010000000547           
CUS0692100000106093399001         KONARSKI LINDA K    1333 E RIVERSIDE AVE                    000N        CARE OF             
MTR06921000001000000000000000RA              27818999    005801870000018700000520000000NN  NNW 000                       N    
RDG06921000WATRL000000004K00000000000000842006810302015104309N000000000000N61       001200400K 10000000010000000831           
CUS0692100000106093400007         CARMELO G SERIO     1304 E RIVERSIDE AVE                    000N        CARE OF             
MTR06921000001000000000000000RA              44178170    005801880000018800000520000000NN  NNW 000                       N    
RDG06921000WATRL000000004K00000000000001753005510302015101342N000300000010N61       002030400K 10000000010000001845           
CUS0692100000106093401005         SCHAUFERT JEFFREY A 1322 E RIVERSIDE AVE                    000N        CARE OF             
MTR06921000001000000000000000RA              75615116    005801890000018900000350000000NN  NNW 000                       N    
RDG06921000WATRL000000004K00000000000000099006910302015104537N000000000000N61       001480400K 10000000010000000089           
CUS0692100000106093402003         WITTIG JOHN L       1350 E RIVERSIDE AVE                    000N        CARE OF             
MTR06921000001000000000000000RA              14904923    005801900000019000000310000003NN  NNW 000                       N    
RDG06921000WATRL000000004K00000000000000000000000000000000000 000000000000U         000000400  10000000010000000759           
CUS0692100000106093403001         GERNHART JAMES R,JR 1328 E RIVERSIDE AVE                    000N        CARE OF             
MTR06921000001000000000000000RA              27822114    005801910000019100000520000003NN  NNW 000                       N    
RDG06921000WATRL000000004K00000000000002056007010302015104650N000000000000N61       000730400K 10000000010000002044           
CUS0692100000106093405006         DONALDF W CHRISTINE 1330 E RIVERSIDE AVE                    000N        CARE OF             
MTR06921000001000000000000000RA              01097878    005801920000019200000610000003NN  NNW 000                       N    
RDG06921000WATRL000000004K00000000000001461007110302015104743N000000000000N61       000530400K 10000000010000001378           
CUS0692100000106093406004         DYSON MARK          1332 E RIVERSIDE AVE                    000N        CARE OF             
MTR06921000001000000000000000RA              75615077    005801930000019300000350000003NN  NNW 000                       N    
RDG06921000WATRL000000004K00000000000000116007210302015104816N000000000000N61       000330400K 10000000010000000100           
CUS0692100000106093407002         LUDWIG JAMES L      1336 E RIVERSIDE AVE                    000N        CARE OF             
MTR06921000001000000000000000RA              10003816    005801940000019400000570000003NN  NNW 000                       N    
RDG06921000WATRL000000004K00000000000000533007410302015105032N000300000020N61       000740400K 10000000010000000499           
CUS0692100000106388259001         MAHLA CONSTANCE G   1338 E RIVERSIDE AVE                    000N        CARE OF             
MTR06921000001000000000000000RA              35119365    005801950000019500000520000003NY  NNW 000                       N    
MTM0692100035119365    cant locate                                                                                            
RDG06921000WATRL000000004K00000000000000000000000000000000000 000000000000U         000000400  10000000010000000878           
CUS0692100000106093408000         JAMES WALTER LUDWIG 1334 E RIVERSIDE AVE                    000N        CARE OF             
MTR06921000001000000000000000RA              76346039    005801960000019600000350000003NN  NNW 000                       N    
RDG06921000WATRL000000004K00000000000000031007310302015104918N000000000000N61       000620400K 10000000010000000027           
CUS0692100000106093409008         OSSIE RAYMOND M,SR  1340 E RIVERSIDE AVE                    000N        CARE OF             
MTR06921000001000000000000000RA              36688758    005801970000019700000520000003NN  NNW 000                       N    
RDG06921000WATRL000000004K00000000000002177007510302015105217N000000000000N61       001050400K 10000000010000002163           
CUS0692100000106093410006         COX JAMES F,JR      1342 E RIVERSIDE AVE                    000N        CARE OF             
MTR06921000001000000000000000RA              10023594    005801980000019800000570000003NN  NNW 000                       N    
RDG06921000WATRL000000004K00000000000000234007610302015105503N000000000000N61       001660400K 10000000010000000222           
CUS0692100000106093411004         MERBACH SCOTT M     1344 E RIVERSIDE AVE                    000N        CARE OF             
MTR06921000001000000000000000RA              99288103    005801990000019900000570000003NY  NNW 000                       N    
MTM0692100099288103    cant locate                                                                                            
RDG06921000WATRL000000004K00000000000000000000000000000000000 000000000000U         000000400  10000000010000001091           
CUS0692100000106352186008         BUCHACZ FRANCIS J   1348 E RIVERSIDE AVE                    000N        CARE OF             
MTR06921000001000000000000000RA              14916898    005802000000020000000310000003NN  NNW 000                       N    
RDG06921000WATRL000000004K00000000000001309014310302015131905N000000000000N61       000060400K 10000000010000001280           
CUS0692100000106093412002         COMER TROY D        1346 E RIVERSIDE AVE                    000N        CARE OF             
MTR06921000001000000000000000RA              24764078    005802010000020100000520000003NN  NNW 000                       N    
RDG06921000WATRL000000004K00000000000000330014210302015131859N000000000000N61       000210400K 10000000010000000322           
CUS0692100000106410796004         CROUCHER HERBERT E  1356 E RIVERSIDE AVE                    000N        CARE OF             
MTR06921000001000000000000000RA              14904914    005802020000020200000310000003NN  NNW 000                       N    
RDG06921000WATRL000000004K00000000000000839014110302015131838N000000000000N61       000090400K 10000000010000000820           
CUS0692100000106093413000         BRUSHMILLER EDWIN W,1360 E RIVERSIDE AVE                    000N        CARE OF             
MTR06921000001000000000000000RA              14904915    005802030000020300000310000003NN  NNW 000                       N    
RDG06921000WATRL000000004K00000000000000000014010302015131829S005000000000U61       000100400K 10000000010000002058           
CUS0692100000106093414008         CAYFORD MARSHA S    1364 E RIVERSIDE AVE                    000N        CARE OF             
MTR06921000001000000000000000RA              76344388    005802040000020400000350000003NN  NNW 000                       N    
RDG06921000WATRL000000004K00000000000000112013910302015131819N000000000000N61       000060400K 10000000010000000099           
CUS0692100000106352833005         DOUGLAS B CELMER    1355 E RIVERSIDE AVE                    000N        CARE OF             
MTR06921000001000000000000000RA              27832192    005802050000020500000520000003NN  NNW 000                       N    
RDG06921000WATRL000000004K00000000000000000013810302015131813S005000000000U61       000070400K 10000000010000002489           
CUS0692100000106093415005         CELMER JUDITH A     1353 E RIVERSIDE AVE                    000N        CARE OF             
MTR06921000001000000000000000RA              10024140    005802060000020600000570000003NN  NNW 000                       N    
RDG06921000WATRL000000004K00000000000000222013710302015131806N000000000000N61       000290400K 10000000010000000209           
CUS0692100000106093417001         JAMES M COLLIER     1347 E RIVERSIDE AVE                    000N        CARE OF             
MTR06921000001000000000000000RA              44003930    005802070000020700000520000003NY  NNW 000                       N    
MTM0692100044003930    buried                                                                                                 
RDG06921000WATRL000000004K00000000000000000000000000000000000 000000000000U         000000400  10000000010000002013           
CUS0692100000106093418009         MERBACH SCOTT MICHAE1345 E RIVERSIDE AVE                    000N        CARE OF             
MTR06921000001000000000000000RA              77989342    005802080000020800000350000003NN  NNW 000                       N    
RDG06921000WATRL000000004K00000000000000096013610302015131737N000000000000N61       000870400K 10000000010000000082           
CUS0692100000106093419007         GOOD NANCY A        1343 E RIVERSIDE AVE                    000N        CARE OF             
MTR06921000001000000000000000RA              10022752    005802090000020900000570000003NN  NNW 000                       N    
RDG06921000WATRL000000004K00000000000000187007710302015105538N000000000000N61       000350400K 10000000010000000174           
CUS0692100000106445970004         WILEMAN BYRON R     1325 E RIVERSIDE AVE                    000N        CARE OF             
MTR06921000001000000000000000RA              10012141    005802100000021000000570000003NN  NNW 000                       N    
RDG06921000WATRL000000004K00000000000000445006710302015104109N000000000000N61       006690400K 10000000010000000425           
CUS0692100000106093420005         CELMER DOUGLAS BRIAN1341 E RIVERSIDE AVE                    000N        CARE OF             
MTR06921000001000000000000000RA              75617881    005802110000021100000350000003NN  NNW 000                       N    
RDG06921000WATRL000000004K00000000000000101013510302015131610N000000000000N61       000580400K 10000000010000000093           
CUS0692100000106441429005         CELMER DOUGLAS BRIAN1415 BAY AVE                            000N        CARE OF             
MTR06921000001000000000000000RA              14929771    005802120000021200000310000003NY  NNW 000                       N    
MTM0692100014929771    buried mulch                                                                                           
RDG06921000WATRL000000004K00000000000000000000000000000000000 000000000000U         000000400  10000000010000000752           
CUS0692100000106407296000         NAUGHTON TIMOTHY C  1513 BAY AVE                            000N        CARE OF             
MTR06921000001000000000000000RA              44174024    005802130000021300000520000003NN  NNW 000   VACANT / LOT        N    
RDG06921000WATRL000000004K00000000000000000013410302015131512S022000000000N61       000070400K 10000000010000000814           
CUS0692100000106093421003         CELMER DOUGLAS B    SS MITCHELL RD 655 FT                   000N        CARE OF             
MTR06921000001000000000000000RA              00120415    007502140000021400000570000003NN  NNW 000                       N    
RDG06921000WATRL000000004K00000000000002099013310302015131505N000000000000N61       000200400K 10000000010000002071           
CUS0692100000106433574008         SVEHLE, JOSEPH & BAR1001 BACK RIVER NECK RD                 000N        CARE OF             
MTR06921000001000000000000000RA              01097626    005802150000021500000610000003NN  NNW 000                       N    
RDG06921000WATRL000000004K00000000000001338007810302015111021N000000000000N61       008830400K 10000000010000001315           
CUS0692100000106093422001         HOLLY NECK LLC      1015 BACK RIVER NECK RD                 000N        CARE OF             
MTR06921000001000000000000000RA              01084194    005802160000021600000610000003NN  NNW 000                       N    
RDG06921000WATRL000000004K00000000000004008007910302015111233N000300000010N61       001320400K 10000000010000003066           
CUS0692100000106429153007         BALTIMORE COUNTY MD 1300 BACK RIVER NECK RD                 000N        CARE OF             
MTR06921000001000000000000000RA              52771034    007502170000021700000520000003NN  NNW 000                       N    
RDG06921000WATRL000000004K00000000000001314013210302015131445N000000000010N61       000280400K 10000000010000001310           
CUS0692100000106093416003         CELMER JOHN J       1349 E RIVERSIDE AVE                    000N        CARE OF             
MTR06921000001000000000000000RA              48584339    005802180000021800000520000003NN  NNW 000                       N    
RDG06921000WATRL000000004K00000000000000690013110302015131417N000000000000N61       000870400K 10000000010000000673           
CUS0692100000106092395000         MORNING GLORY LLC   533 BACK RIVER NECK RD                  000N        CARE OF             
MTR06921000001000000000000000RA              19462129    005802190000021900000520000003NN  NNW 000                       N    
RDG06921000WATRL000000004K00000000000001207013010302015131250N000000000020N61       021710400K 10000000010000001207           
CUS0692100000106092396008         MORNING GLORY L L C 529 BACK RIVER NECK RD                  000N        CARE OF             
MTR06921000001000000000000000RA              10011202    005802200000022000000570000003NN  NNW 000   VACANT / LOT        N    
RDG06921000WATRL000000004K00000000000000000012910302015123639S022000000000N61       000050400K 10000000010000000000           
CUS0692100000106092397006         OWINGS JOHN F,JR    521 BACK RIVER NECK RD                  000N        CARE OF             
MTR06921000001000000000000000RA              52287479    005802210000022100000520000003NN  NNW 000   VACANT / LOT        N    
RDG06921000WATRL000000004K00000000000000000012810302015123634S022000000000N61       000670400K 10000000010000000441           
CUS0692100000106092398004         DOROTHY M FERSTERMAN513 BACK RIVER NECK RD                  000N        CARE OF             
MTR06921000001000000000000000RA              22862314    005802220000022200000520000003NN  NNW 000                       N    
RDG06921000WATRL000000004K00000000000002841012710302015123527N000000000000N61       000100400K 10000000010000002825           
CUS0692100000106414067006         THOMPSON WILBURT M  431 BACK RIVER NECK RD                  000N        CARE OF             
MTR06921000001000000000000000RA              46881292    005802230000022300000520000003NN  NNW 000                       N    
RDG06921000WATRL000000004K00000000000002189012610302015123517N000000000000N61       000160400K 10000000010000002189           
CUS0692100000106440488002         AMOS ANTWON A       423 BACK RIVER NECK RD                  000N        CARE OF             
MTR06921000001000000000000000RA              14916687    005802240000022400000310000000NN  NNW 000                       N    
RDG06921000WATRL000000004K00000000000001103012510302015123501N000000000000N61       004870400K 10000000010000001079           
CUS0692100000106092400008         THOMPSON GERALDINE A427 BACK RIVER NECK RD                  000N        CARE OF             
MTR06921000001000000000000000RA              35118462    005802250000022500000520000003NN  NNW 000                       N    
RDG06921000WATRL000000004K00000000000005580020210302015134544N000000000000N61       000060400K 10000000010000005555           
CUS0692100000106092401006         MALLOY BENJAMIN C   413 BACK RIVER NECK RD                  000N        CARE OF             
MTR06921000001000000000000000RA              25781632    005802260000022600000520000003NN  NNW 000                       N    
RDG06921000WATRL000000004K00000000000002956020110302015134538N000000000000N61       000100400K 10000000010000002943           
CUS0692100000106092402004         BOND CHARLES L, JR  407 BACK RIVER NECK RD                  000N        CARE OF             
MTR06921000001000000000000000RA              46878444    005802270000022700000520000003NN  NNW 000                       N    
RDG06921000WATRL000000004K00000000000000938020010302015134528N000300000010N61       000090400K 10000000010000000950           
CUS0692100000106092403002         MATTHEW PAEPCKE     405 BACK RIVER NECK RD                  000N        CARE OF             
MTR06921000001000000000000000RA              50786934    005802280000022800000520000003NN  NNW 000                       N    
RDG06921000WATRL000000004K00000000000002391019910302015134519N000000000000N61       000510400K 10000000010000002356           
RTR06921000NN02280228000002280000000002280228000352NY022802280228002600360000000000000000000002    10262015NY020000 N         
RHD06937000NN01400140000001400000000001400140000351NY014001400140001300030000000000000000000002    11092015NY020000 N         
CUS0693700000106442915002         NPR LLC             4204 NORTH POINT BLVD                   000N        CARE OF             
MTR06937000001000000000000000RA              99999999    007500010000000100000440000000NN  NNW 000                       N    
RDG06937000WATRL000000004K00000000000000220007811122015125110N000000000010N61       117030400K 10000000010000000200           
CUS0693700000106101654009         PLEASANT ZION BAPT C4317 N POINT BLVD                       000N        CARE OF             
MTR06937000001000000000000000RA              45384672    005800020000000200000520000003NN  NNW 000                       N    
RDG06937000WATRL000000004K00000000000005136007911122015125151N000000000000N61       000410400K 10000000010000005117           
CUS0693700000106101659008         IRON WOLF IMPORTS LL4321 N POINT BLVD                       000N        CARE OF             
MTR06937000001000000000000000RA              40781433    005800030000000300000520000003NY  NNW 000                       N    
MTM0693700040781433    79824608                                                                                               
RDG06937000WATRL000000004K00000000000000000008011122015125221N000004100010N61       000300400K 10000000010000000505           
CUS0693700000106101660006         GAWLIK JULIUS C,SR  4343 NORTH POINT BLVD                   000N        CARE OF             
MTR06937000001000000000000000RA              46886443    005800040000000400000520000003NY  NNW 000                       N    
MTM0693700046886443    flooded                                                                                                
RDG06937000WATRL000000004K00000000000000000000000000000000000 000000000000U         000000400  10000000010000009434           
CUS0693700000106099687003         FIRST MARINER BANK  7860 WISE AVE                           000N        CARE OF             
MTR06937000001000000000000000RA              32573119    005800050000000500000520000003NY  NNW 000                       N    
MTM0693700032573119    cantlocate                                                                                             
RDG06937000WATRL000000004K00000000000000000000000000000000000 000000000000U         000000400  10000000010000002399           
CUS0693700000106099688001         307 WISE AVE, LLC   8819 WISE AVE                           000N        CARE OF             
MTR06937000001000000000000000RA              24226814    005800060000000600000520000003NY  NNW 000                       N    
MTM0693700024226814    buried                                                                                                 
RDG06937000WATRL000000004K00000000000000000000000000000000000 000000000000U         000000400  10000000010000002732           
CUS0693700000106099689009         307 WISE AVE, LLC   4401 NORTH POINT BLVD                   000N        CARE OF             
MTR06937000001000000000000000RA              10024143    005800070000000700000570000003NN  NNW 000                       N    
RDG06937000WATRL000000004K00000000000001170008111122015125418N000000000000N61       001170400K 10000000010000001047           
CUS0693700000106099690007         307 WISE AVE, LLC   WS NORTH POINT BLVD                     000N        CARE OF             
MTR06937000001000000000000000RA              30517152    005800080000000800000520000003NY  NNW 000                       N    
MTM0693700030517152    cantlocate                                                                                             
RDG06937000WATRL000000004K00000000000000000000000000000000000 000000000000U         000000400  10000000010000000284           
CUS0693700000106099692003         BOCEK NORMAN M      4425 NORTH POINT BLVD                   000N        CARE OF             
MTR06937000001000000000000000RA              01100435    005800090000000900000610000003NN  NNW 000                       N    
RDG06937000WATRL000000004K00000000000004401008211122015125547N000000000000N61       000890400K 10000000010000004347           
CUS0693700000106099693001         BALTIMORE CNTY UTILIWS NORTH POINT BLVD                     000N        CARE OF             
MTR06937000001000000000000000RA              30001766    007500100000001000000570000003NN  NNW 000                       N    
RDG06937000WATRL000000004K00000000000000062008311122015125555N000300000010N61       000080400K 10000000010000000128           
CUS0693700000106425277008         JEFFREY M DABROWSKI 4411 TODD POINT LN                      000N        CARE OF             
MTR06937000001000000000000000RA              54348211    005800110000001100000520000003NY  NNW 000                       N    
MTM0693700054348211    79821979                                                                                               
RDG06937000WATRL000000004K00000000000000000004611122015083758N000300000010N61       000170400K 10000000010000000458           
CUS0693700000108425278002         JOHN W BRANDT       4413 TODD POINT LN                      000N        CARE OF             
MTR06937000001000000000000000RA              52290387    005800120000001200000520000003NY  NNW 000                       N    
MTM0693700052290387    79821976                                                                                               
RDG06937000WATRL000000004K00000000000000000004511122015083741N000300000010N61       000540400K 10000000010000002018           
CUS0693700000108425279000         WILSON STEPHANIE L  4415 TODD POINT LN                      000N        CARE OF             
MTR06937000001000000000000000RA              99390238    005800130000001300000570000003NY  NNW 000                       N    
MTM0693700099390238    79822019                                                                                               
RDG06937000WATRL000000004K00000000000000000004411122015083647N000300000010N61       000430400K 10000000010000001029           
CUS0693700000106425267009         LEWINSKI THEODORE J,4417 TODD POINT LN                      000N        CARE OF             
MTR06937000001000000000000000RA              00128476    005800140000001400000570000003NY  NNW 000                       N    
MTM0693700000128476    79821977                                                                                               
RDG06937000WATRL000000004K00000000000000000004311122015083604N000300000010N61       000520400K 10000000010000002475           
CUS0693700000106425268007         AMEDORE MARK A      4419 TODD POINT LN                      000N        CARE OF             
MTR06937000001000000000000000RA              52285262    005800150000001500000520000003NY  NNW 000                       N    
MTM0693700052285262    79821975                                                                                               
RDG06937000WATRL000000004K00000000000000000004211122015083512N000300000010N61       000750400K 10000000010000001349           
CUS0693700000106425269005         BARTH ANTHONY W     4421 TODD POINT LN                      000N        CARE OF             
MTR06937000001000000000000000RA              52286102    005800160000001600000520000003NY  NNW 000                       N    
MTM0693700052286102    79821891                                                                                               
RDG06937000WATRL000000004K00000000000000000004111122015083357N000300000010N61       000360400K 10000000010000001549           
CUS0693700000106425270003         DEBRA A GRIMM       4423 TODD POINT LN                      000N        CARE OF             
MTR06937000001000000000000000RA              52286107    005800170000001700000520000003NY  NNW 000                       N    
MTM0693700052286107    79821890                                                                                               
RDG06937000WATRL000000004K00000000000000000004011122015083321N000300000010N61       000560400K 10000000010000001425           
CUS0693700000106425271001         SANDRA L IHLE       4425 TODD POINT LN                      000N        CARE OF             
MTR06937000001000000000000000RA              50791657    005800180000001800000520000003NY  NNW 000                       N    
MTM0693700050791657    79821895                                                                                               
RDG06937000WATRL000000004K00000000000000000003911122015083225N000300000010N61       000720400K 10000000010000000971           
CUS0693700000108425272005         ROBERT K JOHNSON JR 4429 TODD POINT LN                      000N        CARE OF             
MTR06937000001000000000000000RA              50791814    005800190000001900000520000003NY  NNW 000                       N    
MTM0693700050791814    79821931                                                                                               
RDG06937000WATRL000000004K00000000000000000003511122015082831N000300000010N61       000620400K 10000000010000001246           
CUS0693700000106425274005         DOLCH KERRY         4431 TODD POINT LN                      000N        CARE OF             
MTR06937000001000000000000000RA              50791817    005800200000002000000520000003NY  NNW 000                       N    
MTM0693700050791817    79821927                                                                                               
RDG06937000WATRL000000004K00000000000000000003311122015082612N000300000010N61       000530400K 10000000010000001429           
CUS0693700000106425395008         HURST DEBORAH A     4433 TODD POINT LN                      000N        CARE OF             
MTR06937000001000000000000000RA              00137234    005800210000002100000570000003NY  NNW 000                       N    
