FHDNNNN017003727003727003727N                                                                                           012488
RHD06367500NN00690204000000690000013502040204000127NY020402040204000600010000000000000000000002    11232015NY020000 N         
CUS0636750000106284054001         BENDER, MARY (LIFE) 3847 BONVIEW AVE                        000N        CARE OF             
MTR06367500001000000000000000RA              11429495    005800010000000100000570000003NY  NNW 000                       N    
MTM0636750011429495    COV                                                                                                    
RDG06367500WATRL000000004K00000000000003062000412082015072523N000000000000U40       000050400K 10000000010000003048           
CUS0636750000106284055008         WILLIAM SMITH JR    3845 BONVIEW AVE                        000N        CARE OF             
MTR06367500001000000000000000RA              27817720    005800020000000200000520000003NY  NNW 000                       N    
MTM0636750027817720    COV                                                                                                    
RDG06367500WATRL000000004K00000000000001705000212082015072450N000000000000U40       000370400K 10000000010000001686           
CUS0636750000106284056006         BARLOW, KATRINA D   3843 BONVIEW AVE                        000N        CARE OF             
MTR06367500001000000000000000RA              41076473    005800030000000300000520000003NY  NNW 000                       N    
MTM0636750041076473    COV                                                                                                    
RDG06367500WATRL000000004K00000000000001444000112082015072413N000000000000U40       000000400K 10000000010000001434           
CUS0636750000106284057004         ROBERTS, JAMES E    3841 BONVIEW AVE                        000N        CARE OF             
MTR06367500001000000000000000RA              23050682    005800040000000400000520000003NY  NNW 000                       N    
MTM0636750023050682    COV                                                                                                    
RDG06367500WATRL000000004K00000000000002836000312082015072518N000000000000U40       000280400K 10000000010000002835           
CUS0636750000106284058002         EDMONDS, LATISHA Y  3839 BONVIEW AVE                        000N        CARE OF             
MTR06367500001000000000000000RA              29084805    005800050000000500000520000003NY  NNW 000                       N    
MTM0636750029084805    MUD                                                                                                    
RDG06367500WATRL000000004K00000000000000000000000000000000000 000000000000U         000000400  10000000010000000801           
CUS0636750000106284059000         RHUE, JOHNNY        3837 BONVIEW AVE                        000N        CARE OF             
MTR06367500001000000000000000RA              29084806    005800060000000600000520000003NY  NNW 000                       N    
MTM0636750029084806    MUD                                                                                                    
RDG06367500WATRL000000004K00000000000000000000000000000000000 000000000000U         000000400  10000000010000003927           
CUS0636750000106284060008         TUCKER, LARRY D.    3835 BONVIEW AVE                        000N        CARE OF             
MTR06367500001000000000000000RA              01090437    005800070000000700000610000003NY  NNW 000                       N    
MTM0636750001090437    COV                                                                                                    
RDG06367500WATRL000000004K00000000000000455000512082015073008N000000000000U40       002850400K 10000000010000000416           
CUS0636750000106284061006         LYTTLE, GRANVILLE   3833 BONVIEW AVE                        000N        CARE OF             
MTR06367500001000000000000000RA              24767515    005800080000000800000520000003NY  NNW 000                       N    
MTM0636750024767515    COV                                                                                                    
RDG06367500WATRL000000004K00000000000000127000612082015073046N000000000000U40       000380400K 10000000010000000123           
CUS0636750000106284062004         MAE KNIGHT, KATIE   3831 BONVIEW AVE                        000N        CARE OF             
MTR06367500001000000000000000RA              01090289    005800090000000900000610000003NY  NNW 000                       N    
MTM0636750001090289    COV                                                                                                    
RDG06367500WATRL000000004K00000000000000332000712082015073051N000000000000U40       000050400K 10000000010000000327           
CUS0636750000106284063002         ADAMSON, IRWIN A    3829 BONVIEW AVE                        000N        CARE OF             
MTR06367500001000000000000000RA              01090285    005800100000001000000610000003NY  NNW 000                       N    
MTM0636750001090285    COV                                                                                                    
RDG06367500WATRL000000004K00000000000000985000812082015073116N000300000011U40       000250400K 10000000010000000968           
CUS0636750000106284064000         WHITTED, CARL E.    3827 BONVIEW AVE                        000N        CARE OF             
MTR06367500001000000000000000RA              79210599    005800110000001100000360000003NN  NNW 000                       N    
RDG06367500WATR 000000004R00000000000000013000012082015180000N000300000070N         000000400R 10000000010000000000           
RFF0636750069495810      ERT      0000  956.44375000140000120820151800000000131121100W 1220000N                               
CUS0636750000106284065007         HOUSE SOLUTIONS,LLC 3825 BONVIEW AVE                        000N        CARE OF             
MTR06367500001000000000000000RA              79210583    005800120000001200000360000003NN  NNW 000                       N    
RDG06367500WATR 000000004R00000000000000019000012082015180000N000300000070N         000000400R 10000000010000000000           
RFF0636750069495673      ERT      0000  956.44375000140000120820151800000000194314100W 1220000N                               
CUS0636750000106284066005         JONES, LEON         3823 BONVIEW AVE                        000N        CARE OF             
MTR06367500001000000000000000RA              76346191    005800130000001300000350000003NN  NNW 000                       N    
RDG06367500WATR 000000004R00000000000000108000012082015180000N000300000070N         000000400R 10000000010000000087           
RFF0636750069231636      ERT      0000  956.44375000140000120820151800000001087763100W 1220000N                               
CUS0636750000106284067003         BURGESS, JANICE H   3821 BONVIEW AVE                        000N        CARE OF             
MTR06367500001000000000000000RA              79210537    005800140000001400000360000003NN  NNW 000                       N    
RDG06367500WATR 000000004R00000000000000018000012082015180000N000300000070N         000000400R 10000000010000000000           
RFF0636750069496270      ERT      0000  956.44375000140000120820151800000000183797100W 1220000N                               
CUS0636750000106284068001         ISAAC KINDE         3819 BONVIEW AVE                        000N        CARE OF             
MTR06367500001000000000000000RA              78024088    005800150000001500000360000003NN  NNW 000                       N    
RDG06367500WATR 000000004R00000000000000027000012082015180000N000300000070N         000000400R 10000000010000000017           
RFF0636750070003765      ERT      0000  956.44375000140000120820151800000000273909100W 1220000N                               
CUS0636750000106284069009         FORBES JR, ELANDER  3817 BONVIEW AVE                        000N        CARE OF             
MTR06367500001000000000000000RA              79210558    005800160000001600000360000003NN  NNW 000                       N    
RDG06367500WATR 000000004R00000000000000047000012082015180000N000300000070N         000000400R 10000000010000000000           
RFF0636750069499575      ERT      0000  956.44375000140000120820151800000000476388100W 1220000N                               
CUS0636750000106284070007         BISSESSAR, MICHEL   3815 BONVIEW AVE                        000N        CARE OF             
MTR06367500001000000000000000RA              79537786    005800170000001700000360000003NN  NNW 000                       N    
RDG06367500WATR 000000004R00000000000000014000012082015180000N000300000070N         000000400R 10000000010000000000           
RFF0636750069496208      ERT      0000  956.44375000140000120820151800000000140211100W 1220000N                               
CUS0636750000106284071005         DELEAVER-COATES, CYN3813 BONVIEW AVE                        000N        CARE OF             
MTR06367500001000000000000000RA              79210579    005800180000001800000360000003NN  NNW 000                       N    
RDG06367500WATR 000000004R00000000000000002000012082015180000N000300000070N         000000400R 10000000010000000000           
RFF0636750069495681      ERT      0000  956.44375000140000120820151800000000026816100W 1220000N                               
CUS0636750000106284072003         MOORE, MADDIE B     3811 BONVIEW AVE                        000N        CARE OF             
MTR06367500001000000000000000RA              27833806    005800190000001900000520000003NY  NNW 000                       N    
MTM0636750027833806    DIRT AND WATER                                                                                         
RDG06367500WATRL000000004K00000000000000000000000000000000000 000000000000U         000000400  10000000010000002472           
CUS0636750000106284073001         MENGISTU, FIKADU T. 3809 BONVIEW AVE                        000N        CARE OF             
MTR06367500001000000000000000RA              27833805    005800200000002000000520000003NY  NNW 000                       N    
MTM0636750027833805    DIRT AND WATER                                                                                         
RDG06367500WATRL000000004K00000000000000000000000000000000000 000000000000U         000000400  10000000010000002521           
CUS0636750000106284074009         WILSON, RYAN G.     3807 BONVIEW AVE                        000N        CARE OF             
MTR06367500001000000000000000RA              14919748    005800210000002100000310000003NN  NNW 000                       N    
RDG06367500WATRL000000004K00000000000000337000112042015104344N000000000000U45       000000400K 10000000010000000314           
CUS0636750000106284075006         REED, BARRY L.      3805 BONVIEW AVE                        000N        CARE OF             
MTR06367500001000000000000000RA              29402844    005800220000002200000520000003NN  NNW 000                       N    
RDG06367500WATRL000000004K00000000000000001000212042015104353N000300000010U45       000090400K 10000000010000001384           
CUS0636750000106284076004         MONTAGUE, KENDRICK J3803 BONVIEW AVE                        000N        CARE OF             
MTR06367500001000000000000000RA              79210587    005800230000002300000360000003NN  NNW 000                       N    
RDG06367500WATR 000000004R00000000000000010000012082015180000N000300000070N         000000400R 10000000010000000000           
RFF0636750069499502      ERT      0000  956.44375000140000120820151800000000107795100W 1220000N                               
CUS0636750000106284077002         KURT K/ORAN KENNEDY 3801 BONVIEW AVE                        000N        CARE OF             
MTR06367500001000000000000000RA              79210561    005800240000002400000360000003NN  NNW 000                       N    
RDG06367500WATR 000000004R00000000000000001000012082015180000N000300000070N         000000400R 10000000010000000000           
RFF0636750069499548      ERT      0000  956.44375000140000120820151800000000014096100W 1220000N                               
CUS0636750000106284078000         ALLEN, RONALD W     4100 EASTMONT AVE                       000N        CARE OF             
MTR06367500001000000000000000RA              79210522    005800250000002500000360000003NN  NNW 000                       N    
RDG06367500WATR 000000004R00000000000000010000012082015180000N000300000070N         000000400R 10000000010000000000           
RFF0636750069494230      ERT      0000  956.44375000140000120820151800000000101103100W 1220000N                               
CUS0636750000106284079008         ROBINSON JR., THEODO4102 EASTMONT AVE                       000N        CARE OF             
MTR06367500001000000000000000RA              79210498    005800260000002600000360000003NN  NNW 000                       N    
RDG06367500WATR 000000004R00000000000000022000012082015180000N000300000070N         000000400R 10000000010000000000           
RFF0636750069499542      ERT      0000  956.44375000140000120820151800000000224503100W 1220000N                               
CUS0636750000106284080006         HASKINS, HELENA E   4104 EASTMONT AVE                       000N        CARE OF             
MTR06367500001000000000000000RA              78024218    005800270000002700000360000003NN  NNW 000                       N    
RDG06367500WATR 000000004R00000000000000066000012082015180000N000300000070N         000000400R 10000000010000000051           
RFF0636750069231625      ERT      0000  956.44375000140000120820151800000000665516100W 1220000N                               
CUS0636750000106284081004         SAUNDERS, MICHAEL J 4106 EASTMONT AVE                       000N        CARE OF             
MTR06367500001000000000000000RA              32899302    005800280000002800000520000003NN  NNW 000                       N    
RDG06367500WATRL000000004K00000000000000012000312042015104553N000300000010U45       001200400K 10000000010000002266           
CUS0636750000106284082002         JANET A BRICE       4108 EASTMONT AVE                       000N        CARE OF             
MTR06367500001000000000000000RA              99291064    005800290000002900000570000003NN  NNW 000                       N    
RDG06367500WATRL000000004K00000000000000812000412042015104602N000000000000U45       000090400K 10000000010000000806           
CUS0636750000106284083000         GLOVER, ERIC L.     4110 EASTMONT AVE                       000N        CARE OF             
MTR06367500001000000000000000RA              79210549    005800300000003000000360000003NN  NNW 000                       N    
RDG06367500WATR 000000004R00000000000000012000012082015180000N000300000070N         000000400R 10000000010000000000           
RFF0636750069499626      ERT      0000  956.44375000140000120820151800000000124460100W 1220000N                               
CUS0636750000106284084008         WELLS FARDO         4112 EASTMONT AVE                       000N        CARE OF             
MTR06367500001000000000000000RA              79210463    005800310000003100000360000003NN  NNW 000                       N    
RDG06367500WATR 000000004R00000000000000003000012082015180000N000300000070N         000000400R 10000000010000000000           
RFF0636750069496131      ERT      0000  956.44375000140000120820151800000000033129100W 1220000N                               
CUS0636750000106284085005         EPPS, LINYA         4114 EASTMONT AVE                       000N        CARE OF             
MTR06367500001000000000000000RA              79210462    005800320000003200000360000003NN  NNW 000                       N    
RDG06367500WATR 000000004R00000000000000032000012082015180000N000300000070N         000000400R 10000000010000000000           
RFF0636750069496040      ERT      0000  956.44375000140000120820151800000000324637100W 1220000N                               
CUS0636750000106284086003         RICHARD, RYAN B     4116 EASTMONT AVE                       000N        CARE OF             
MTR06367500001000000000000000RA              79210461    005800330000003300000360000003NN  NNW 000                       N    
RDG06367500WATR 000000004R00000000000000002000012082015180000N000300000070N         000000400R 10000000010000000000           
RFF0636750069496092      ERT      0000  956.44375000140000120820151800000000021925100W 1220000N                               
CUS0636750000106284087001         BAILEY, BLANCHE     4117 EASTMONT AVE                       000N        CARE OF             
MTR06367500001000000000000000RA              76348867    005800340000003400000350000003NN  NNW 000                       N    
RDG06367500WATR 000000004R00000000000000113000012082015180000N000100000070N         000000400R 10000000010000000113           
RFF0636750069231653      ERT      0000  956.44375000140000120820151800000001139931100W 1220000N                               
CUS0636750000106284088009         NEW RED TAG LLC, THE4115 EASTMONT AVE                       000N        CARE OF             
MTR06367500001000000000000000RA              75618174    005800350000003500000350000003NN  NNW 000                       N    
RDG06367500WATR 000000004R00000000000000097000012082015180000N000300000070N         000000400R 10000000010000000092           
RFF0636750069231571      ERT      0000  956.44375000140000120820151800000000979970100W 1220000N                               
CUS0636750000106284089007         JETT, TEHRA A       4113 EASTMONT AVE                       000N        CARE OF             
MTR06367500001000000000000000RA              79210523    005800360000003600000360000003NN  NNW 000                       N    
RDG06367500WATR 000000004R00000000000000023000012082015180000N000300000070N         000000400R 10000000010000000000           
RFF0636750069479848      ERT      0000  956.44375000140000120820151800000000232322100W 1220000N                               
CUS0636750000106284090005         MICKEY, LARRY       4111 EASTMONT AVE                       000N        CARE OF             
MTR06367500001000000000000000RA              76348871    005800370000003700000350000003NN  NNW 000                       N    
RDG06367500WATR 000000004R00000000000000103000012082015180000N000300000070N         000000400R 10000000010000000083           
RFF0636750069231656      ERT      0000  956.44375000140000120820151800000001030014100W 1220000N                               
CUS0636750000106284091003         DANTZLER, DARNELL   4109 EASTMONT AVE                       000N        CARE OF             
MTR06367500001000000000000000RA              36691938    005800380000003800000520000003NY  NNW 000                       N    
MTM0636750036691938    BURIED                                                                                                 
RDG06367500WATRL000000004K00000000000002188001012082015073741N000000000000U40       000180400K 10000000010000002167           
CUS0636750000106284092001         DOMINION RENTAL HOLD4107 EASTMONT AVE                       000N        CARE OF             
MTR06367500001000000000000000RA              36691939    005800390000003900000520000003NY  NNW 000                       N    
MTM0636750036691939    BURIED                                                                                                 
RDG06367500WATRL000000004K00000000000002232001112082015073822N000000000010U40       000410400K 10000000010000002231           
CUS0636750000106284093009         BARBARA FORREST     4105 EASTMONT AVE                       000N        CARE OF             
MTR06367500001000000000000000RA              01101218    005800400000004000000610000003NN  NNW 000                       N    
RDG06367500WATRL000000004K00000000000000922000512042015104855N000000000000U45       001730400K 10000000010000000912           
CUS0636750000106284094007         FARABEE-CLARK, EUNIC4103 EASTMONT AVE                       000N        CARE OF             
MTR06367500001000000000000000RA              01101222    005800410000004100000610000003NN  NNW 000                       N    
RDG06367500WATRL000000004K00000000000000410000612042015104908N000000000000U45       000130400K 10000000010000000400           
CUS0636750000106284095004         DANTZLER JR, CHARLES4101 EASTMONT AVE                       000N        CARE OF             
MTR06367500001000000000000000RA              30519954    005800420000004200000520000003NY  NNW 000                       N    
MTM0636750030519954     COV                                                                                                   
RDG06367500WATRL000000004K00000000000002136000912082015073723N000000000000U40       003670400K 10000000010000002124           
CUS0636750000106284096002         GILBERT, ARTHUR R   3753 BONVIEW AVE                        000N        CARE OF             
MTR06367500001000000000000000RA              45384719    005800430000004300000520000003NN  NNW 000                       N    
RDG06367500WATRL000000004K00000000000001412000712042015105213N000000000000U45       001850400K 10000000010000001394           
CUS0636750000106284097000         OWENS, LAWRENCE M   3751 BONVIEW AVE                        000N        CARE OF             
MTR06367500001000000000000000RA              32770446    005800440000004400000520000003NY  NNW 000                       N    
MTM0636750032770446    COV                                                                                                    
RDG06367500WATRL000000004K00000000000002636001312082015074127N000000000000U40       000120400K 10000000010000002632           
CUS0636750000106284098008         FOWLKES, TYRONE C   3749 BONVIEW AVE                        000N        CARE OF             
MTR06367500001000000000000000RA              24768667    005800450000004500000520000003NN  NNW 000                       N    
RDG06367500WATRL000000004K00000000000004368000812042015105604N000000000011U45       001800400K 10000000010000004340           
CUS0636750000106284099006         TAYLOR, YOLANDA D.  3747 BONVIEW AVE                        000N        CARE OF             
MTR06367500001000000000000000RA              24768686    005800460000004600000520000003NY  NNW 000                       N    
MTM0636750024768686    COV                                                                                                    
RDG06367500WATRL000000004K00000000000001771001212082015074115N000000000000U40       001730400K 10000000010000001765           
CUS0636750000106284100002         COLLINS, RAYMOND A  3745 BONVIEW AVE                        000N        CARE OF             
MTR06367500001000000000000000RA              79210542    005800470000004700000360000003NN  NNW 000                       N    
RDG06367500WATR 000000004R00000000000000034000012082015180000N000300000070N         000000400R 10000000010000000000           
RFF0636750069496190      ERT      0000  956.44375000140000120820151800000000341557100W 1220000N                               
CUS0636750000106284101000         WTCK PROPERTIES, LLC3743 BONVIEW AVE                        000N        CARE OF             
MTR06367500001000000000000000RA              79210550    005800480000004800000360000003NN  NNW 000                       N    
RDG06367500WATR 000000004R00000000000000022000012082015180000N000300000070N         000000400R 10000000010000000000           
RFF0636750069499608      ERT      0000  956.44375000140000120820151800000000228405100W 1220000N                               
CUS0636750000106284102008         BALTRENTALS DOT COM 3741 BONVIEW AVE                        000N        CARE OF             
MTR06367500001000000000000000RA              79210540    005800490000004900000360000003NN  NNW 000                       N    
RDG06367500WATR 000000004R00000000000000011000012012015080000N000300000020N         000000400R 10000000010000000000           
RFF0636750069496136      ERT      0000  956.44375000140000120120150800000000119776100W 1220000N                               
CUS0636750000106284103006         JOHN F DRESSEL JR & 3739 BONVIEW AVE                        000N        CARE OF             
MTR06367500001000000000000000RA              79210538    005800500000005000000360000003NN  NNW 000                       N    
RDG06367500WATRL000000004R00000000000000005000912042015105932N000000000010U45       002080400K 10000000010000000000           
RFF0636750069495680      ERT      0000  956.4437500014000000000000000000                  0003Y                               
CUS0636750000106284104004         WHITAKER, CHANTELL L3737 BONVIEW AVE                        000N        CARE OF             
MTR06367500001000000000000000RA              79537802    005800510000005100000360000003NN  NNW 000                       N    
RDG06367500WATR 000000004R00000000000000024000012082015180000N000300000070N         000000400R 10000000010000000000           
RFF0636750069496192      ERT      0000  956.44375000140000120820151800000000244993100W 1220000N                               
CUS0636750000106284105001         GRAHAM, BRIDGET L   3735 BONVIEW AVE                        000N        CARE OF             
MTR06367500001000000000000000RA              79536145    005800520000005200000360000003NN  NNW 000                       N    
RDG06367500WATR 000000004R00000000000000009000012082015180000N000300000070N         000000400R 10000000010000000000           
RFF0636750069495004      ERT      0000  956.44375000140000120820151800000000096649100W 1220000N                               
CUS0636750000106284106009         CUNNINGHAM, JOYCE   4100 COLEMAN AVE                        000N        CARE OF             
MTR06367500001000000000000000RA              79210500    005800530000005300000360000003NN  NNW 000                       N    
RDG06367500WATR 000000004R00000000000000015000012082015180000N000300000070N         000000400R 10000000010000000000           
RFF0636750069480237      ERT      0000  956.44375000140000120820151800000000156571100W 1220000N                               
CUS0636750000106284107007         DRUMMOND, HELEN L   4102 COLEMAN AVE                        000N        CARE OF             
MTR06367500001000000000000000RA              79210521    005800540000005400000360000003NN  NNW 000                       N    
RDG06367500WATR 000000004R00000000000000007000012082015180000N000300000070N         000000400R 10000000010000000000           
RFF0636750069494215      ERT      0000  956.44375000140000120820151800000000073108100W 1220000N                               
CUS0636750000106284108005         SPENCE, GAIL        4104 COLEMAN AVE                        000N        CARE OF             
MTR06367500001000000000000000RA              76348020    005800550000005500000350000003NN  NNW 000                       N    
RDG06367500WATR 000000004R00000000000000038000012082015180000N000300000070N         000000400R 10000000010000000030           
RFF0636750069231628      ERT      0000  956.44375000140000120820151800000000385219100W 1220000N                               
CUS0636750000106284109003         BOKUN PROPERTIES, LL4106 COLEMAN AVE                        000N        CARE OF             
MTR06367500001000000000000000RA              76348017    005800560000005600000350000003NN  NNW 000                       N    
RDG06367500WATR 000000004R00000000000000096000012082015180000N000300000070N         000000400R 10000000010000000082           
RFF0636750069231645      ERT      0000  956.44375000140000120820151800000000960232100W 1220000N                               
CUS0636750000106284110001         ALLIANCE RE HOLDINGS4108 COLEMAN AVE                        000N        CARE OF             
MTR06367500001000000000000000RA              01086752    005800570000005700000610000003NY  NNW 000                       N    
MTM0636750001086752    COV                                                                                                    
RDG06367500WATRL000000004K00000000000001311002012082015075033N000000000000U40       000090400K 10000000010000001288           
CUS0636750000106284111009         KERTIS G MARSHALL & 4110 COLEMAN AVE                        000N        CARE OF             
MTR06367500001000000000000000RA              01086756    005800580000005800000610000003NY  NNW 000                       N    
MTM0636750001086756    COV                                                                                                    
RDG06367500WATRL000000004K00000000000000926001912082015075024N000000000000U40       001570400K 10000000010000000912           
CUS0636750000106284112007         ADEKUNLE, ANTHONY A 4112 COLEMAN AVE                        000N        CARE OF             
MTR06367500001000000000000000RA              79536568    005800590000005900000360000003NN  NNW 000                       N    
RDG06367500WATR 000000004R00000000000000010000012082015180000N000300000070N         000000400R 10000000010000000000           
RFF0636750069499468      ERT      0000  956.44375000140000120820151800000000105308100W 1220000N                               
CUS0636750000106284113005         RICHARDSON, BENEDICT4114 COLEMAN AVE                        000N        CARE OF             
MTR06367500001000000000000000RA              79210535    005800600000006000000360000003NN  NNW 000                       N    
RDG06367500WATR 000000004R00000000000000029000012082015180000N000300000070N         000000400R 10000000010000000000           
RFF0636750069499594      ERT      0000  956.44375000140000120820151800000000293868100W 1220000N                               
CUS0636750000106284114003         YANCY, ULYSSES      4116 COLEMAN AVE                        000N        CARE OF             
MTR06367500001000000000000000RA              79210495    005800610000006100000360000003NN  NNW 000                       N    
RDG06367500WATR 000000004R00000000000000029000012082015180000N000300000060N         000000400R 10000000010000000000           
RFF0636750069499535      ERT      0000  956.44375000140000120820151800000000295978100W 1220000N                               
CUS0636750000106284115000         WHITAKER JR., BERRY 4118 COLEMAN AVE                        000N        CARE OF             
MTR06367500001000000000000000RA              79210519    005800620000006200000360000003NN  NNW 000                       N    
RDG06367500WATR 000000004R00000000000000011000012082015180000N000300000060N         000000400R 10000000010000000000           
RFF0636750069479900      ERT      0000  956.44375000140000120820151800000000117861100W 1220000N                               
CUS0636750000106284116008         MCMILLIAN, DELOISE A4120 COLEMAN AVE                        000N        CARE OF             
MTR06367500001000000000000000RA              44177053    005800630000006300000520000003NY  NNW 000                       N    
MTM0636750044177053    COV                                                                                                    
RDG06367500WATRL000000004K00000000000002121002112082015075247N000000000000U40       001340400K 10000000010000002099           
CUS0636750000106284117006         MCCOLLOUGH, SHARON  4122 COLEMAN AVE                        000N        CARE OF             
MTR06367500001000000000000000RA              44177054    005800640000006400000520000003NY  NNW 000                       N    
MTM0636750044177054    COV                                                                                                    
RDG06367500WATRL000000004K00000000000000718001812082015074747N000300000010U40       000790400K 10000000010000000710           
CUS0636750000106284118004         RED STONE PROPERTIES4124 COLEMAN AVE                        000N        CARE OF             
MTR06367500001000000000000000RA              79210497    005800650000006500000360000003NN  NNW 000                       N    
RDG06367500WATR 000000004R00000000000000033000012082015180000N000300000070N         000000400R 10000000010000000000           
RFF0636750069499709      ERT      0000  956.44375000140000120820151800000000339751100W 1220000N                               
CUS0636750000106284119002         BRYANT, KIRK        4126 COLEMAN AVE                        000N        CARE OF             
MTR06367500001000000000000000RA              79210594    005800660000006600000360000003NN  NNW 000                       N    
RDG06367500WATR 000000004R00000000000000014000012082015180000N000300000070N         000000400R 10000000010000000000           
RFF0636750069499595      ERT      0000  956.44375000140000120820151800000000143635100W 1220000N                               
CUS0636750000106284120000         DOWNS, DIONYSIA L   4128 COLEMAN AVE                        000N        CARE OF             
MTR06367500001000000000000000RA              79210539    005800670000006700000360000003NN  NNW 000                       N    
RDG06367500WATR 000000004R00000000000000008000012082015180000N000300000070N         000000400R 10000000010000000000           
RFF0636750069496261      ERT      0000  956.44375000140000120820151800000000088700100W 1220000N                               
CUS0636750000106284121008         BRILL, THERESA T    4130 COLEMAN AVE                        000N        CARE OF             
MTR06367500001000000000000000RA              79210580    005800680000006800000360000003NN  NNW 000                       N    
RDG06367500WATR 000000004R00000000000000004000012082015180000N000300000070N         000000400R 10000000010000000000           
RFF0636750069495645      ERT      0000  956.44375000140000120820151800000000043041100W 1220000N                               
CUS0636750000106284122006         LETT, DIANE J       4129 COLEMAN AVE                        000N        CARE OF             
MTR06367500001000000000000000RA              35108465    005800690000006900000520000003NY  NNW 000                       N    
MTM0636750035108465    COV                                                                                                    
RDG06367500WATRL000000004K00000000000002582001712082015074628N000000000000U40       000290400K 10000000010000002555           
CUS0636750000106284123004         GRAY, AARON C.      4127 COLEMAN AVE                        000N        CARE OF             
MTR06367500001000000000000000RA              35108466    005800700000007000000520000003NN  NNW 000                       N    
RDG06367500WATRL000000004K00000000000001910001612082015074559N000000000000U40       001020400K 10000000010000001905           
CUS0636750000106284124002         ALEXIS LLC, THE     4125 COLEMAN AVE                        000N        CARE OF             
MTR06367500001000000000000000RA              79210536    005800710000007100000360000003NN  NNW 000                       N    
RDG06367500WATR 000000004R00000000000000000000012082015180000N000100000070N         000000400R 10000000010000000000           
RFF0636750069499498      ERT      0000  956.44375000140000120820151800000000002668100W 1220000N                               
CUS0636750000106284125009         DIAMOND, BERNICE FRA4123 COLEMAN AVE                        000N        CARE OF             
MTR06367500001000000000000000RA              79210554    005800720000007200000360000003NN  NNW 000                       N    
RDG06367500WATR 000000004R00000000000000003000012082015180000N000300000070N         000000400R 10000000010000000000           
RFF0636750069499488      ERT      0000  956.44375000140000120820151800000000032778100W 1220000N                               
CUS0636750000106284126007         VENEY, CHRISTINE P  4121 COLEMAN AVE                        000N        CARE OF             
MTR06367500001000000000000000RA              79210534    005800730000007300000360000003NN  NNW 000                       N    
RDG06367500WATR 000000004R00000000000000014000012082015180000N000300000070N         000000400R 10000000010000000000           
RFF0636750069495717      ERT      0000  956.44375000140000120820151800000000149484100W 1220000N                               
CUS0636750000106284127005         MCDANIEL, ELMOND L  4119 COLEMAN AVE                        000N        CARE OF             
MTR06367500001000000000000000RA              79210584    005800740000007400000360000003NN  NNW 000                       N    
RDG06367500WATR 000000004R00000000000000014000012082015180000N000300000070N         000000400R 10000000010000000000           
RFF0636750069496274      ERT      0000  956.44375000140000120820151800000000144865100W 1220000N                               
CUS0636750000106284128003         CARNEY, THOMAS F    4117 COLEMAN AVE                        000N        CARE OF             
MTR06367500001000000000000000RA              14908429    005800750000007500000310000003NY  NNW 000                       N    
MTM0636750014908429    COV                                                                                                    
RDG06367500WATRL000000004K00000000000000329001012042015110751N000000000000U45       004990400K 10000000010000000327           
CUS0636750000106284129001         DAVIS, SHALONDA M   4115 COLEMAN AVE                        000N        CARE OF             
MTR06367500001000000000000000RA              14908425    005800760000007600000310000003NY  NNW 000                       N    
MTM0636750014908425    COV                                                                                                    
RDG06367500WATRL000000004K00000000000000702001112042015110802N000000000000U45       000110400K 10000000010000000692           
CUS0636750000106284130009         HURT, GARLAND       4113 COLEMAN AVE                        000N        CARE OF             
MTR06367500001000000000000000RA              79210548    005800770000007700000360000003NN  NNW 000                       N    
RDG06367500WATR 000000004R00000000000000024000012082015180000N000300000070N         000000400R 10000000010000000000           
RFF0636750069499393      ERT      0000  956.44375000140000120820151800000000244526100W 1220000N                               
CUS0636750000106284131007         JOHN F DRESSEL      4111 COLEMAN AVE                        000N        CARE OF             
MTR06367500001000000000000000RA              79210464    005800780000007800000360000003NN  NNW 000                       N    
RDG06367500WATR 000000004R00000000000000122000012082015180000N000300000070N         000000400R 10000000010000000000           
RFF0636750069494221      ERT      0000  956.44375000140000120820151800000001224336100W 1220000N                               
CUS0636750000106284132005         H. RICHARD BOWERMAN 4109 COLEMAN AVE                        000N        CARE OF             
MTR06367500001000000000000000RA              79210517    005800790000007900000360000003NN  NNW 000                       N    
RDG06367500WATR 000000004R00000000000000009000012082015180000N000300000070N         000000400R 10000000010000000000           
RFF0636750069499467      ERT      0000  956.44375000140000120820151800000000092710100W 1220000N                               
CUS0636750000106284133003         RITTER, FRANCES  (LI4107 COLEMAN AVE                        000N        CARE OF             
MTR06367500001000000000000000RA              79210496    005800800000008000000360000003NN  NNW 000                       N    
RDG06367500WATR 000000004R00000000000000003000012082015180000N000300000070N         000000400R 10000000010000000000           
RFF0636750069499388      ERT      0000  956.44375000140000120820151800000000037783100W 1220000N                               
CUS0636750000106284134001         COOK, TRAVIS J.     4105 COLEMAN AVE                        000N        CARE OF             
MTR06367500001000000000000000RA              79210508    005800810000008100000360000003NN  NNW 000                       N    
RDG06367500WATR 000000004R00000000000000028000012082015180000N000300000070N         000000400R 10000000010000000000           
RFF0636750069494219      ERT      0000  956.44375000140000120820151800000000286060100W 1220000N                               
CUS0636750000106284135008         HEATH, THOMAS       4103 COLEMAN AVE                        000N        CARE OF             
MTR06367500001000000000000000RA              27133526    005800820000008200000520000003NY  NNW 000                       N    
MTM0636750027133526    COV                                                                                                    
RDG06367500WATRL000000004K00000000000003429001512082015074417N000000000001U40       000330400K 10000000010000003411           
CUS0636750000106284136006         COLEMAN, ROBERT E   4101 COLEMAN AVE                        000N        CARE OF             
MTR06367500001000000000000000RA              27133524    005800830000008300000520000003NY  NNW 000                       N    
MTM0636750027133524    COV                                                                                                    
RDG06367500WATRL000000004K00000000000001954001412082015074344N000000000010U40       001370400K 10000000010000001945           
CUS0636750000106284137004         CONCORD PROPERTY MGM3733 BONVIEW AVE                        000N        CARE OF             
MTR06367500001000000000000000RA              79210596    005800840000008400000360000003NN  NNW 000                       N    
RDG06367500WATR 000000004R00000000000000011000012082015180000N000300000070N         000000400R 10000000010000000000           
RFF0636750069499452      ERT      0000  956.44375000140000120820151800000000111366100W 1220000N                               
CUS0636750000106284138002         COOPER, PEGGIE J.   3731 BONVIEW AVE                        000N        CARE OF             
MTR06367500001000000000000000RA              79537800    005800850000008500000360000003NN  NNW 000                       N    
RDG06367500WATR 000000004R00000000000000018000012082015180000N000300000070N         000000400R 10000000010000000000           
RFF0636750069499774      ERT      0000  956.44375000140000120820151800000000185500100W 1220000N                               
CUS0636750000106284139000         HARRIS, KELVIN L    3729 BONVIEW AVE                        000N        CARE OF             
MTR06367500001000000000000000RA              79210541    005800860000008600000360000003NN  NNW 000                       N    
RDG06367500WATR 000000004R00000000000000000000012082015180000N000100000050N         000000400R 10000000010000000000           
RFF0636750069496194      ERT      0000  956.44375000140000120820151800000000000020100W 1220000N                               
CUS0636750000106284140008         PEARSON ANDREA Y    3727 BONVIEW AVE                        000N        CARE OF             
MTR06367500001000000000000000RA              79537782    005800870000008700000360000003NN  NNW 000                       N    
RDG06367500WATR 000000004R00000000000000021000012082015180000N000300000060N         000000400R 10000000010000000000           
RFF0636750069496196      ERT      0000  956.44375000140000120820151800000000211942100W 1220000N                               
CUS0636750000106284141006         BRUNNER, CATHERINE J3725 BONVIEW AVE                        000N        CARE OF             
MTR06367500001000000000000000RA              14915389    005800880000008800000310000003NY  NNW 000                       N    
MTM0636750014915389    COV                                                                                                    
RDG06367500WATRL000000004K00000000000000687002212082015075948N000000000000U40       004210400K 10000000010000000665           
CUS0636750000106284142004         CHARLES JENKINS     3723 BONVIEW AVE                        000N        CARE OF             
MTR06367500001000000000000000RA              99291720    005800890000008900000570000003NY  NNW 000                       N    
MTM0636750099291720    COV                                                                                                    
RDG06367500WATRL000000004K00000000000001983002312082015080224N000000000000U40       001560400K 10000000010000001946           
CUS0636750000106284143002         MELTON, GREGORY     3721 BONVIEW AVE                        000N        CARE OF             
MTR06367500001000000000000000RA              79210595    005800900000009000000360000003NN  NNW 000                       N    
RDG06367500WATR 000000004R00000000000000028000012082015180000N000300000060N         000000400R 10000000010000000000           
RFF0636750069499775      ERT      0000  956.44375000140000120820151800000000286950100W 1220000N                               
CUS0636750000106284144000         SELLMAN, SHAKEY A.  3719 BONVIEW AVE                        000N        CARE OF             
MTR06367500001000000000000000RA              79537781    005800910000009100000360000003NN  NNW 000                       N    
RDG06367500WATR 000000004R00000000000000019000012082015180000N000300000070N         000000400R 10000000010000000000           
RFF0636750069496253      ERT      0000  956.44375000140000120820151800000000196614100W 1220000N                               
CUS0636750000106284145007         JOHNSON JR., LEO    3717 BONVIEW AVE                        000N        CARE OF             
MTR06367500001000000000000000RA              79537804    005800920000009200000360000003NN  NNW 000                       N    
RDG06367500WATR 000000004R00000000000000028000012082015180000N000300000070N         000000400R 10000000010000000000           
RFF0636750069499655      ERT      0000  956.44375000140000120820151800000000282815100W 1220000N                               
CUS0636750000106284146005         MORAVEC, ALICE R    4100 GLADDEN AVE                        000N        CARE OF             
MTR06367500001000000000000000RA              79210410    005800930000009300000360000003NN  NNW 000                       N    
RDG06367500WATR 000000004R00000000000000009000012082015180000N000300000060N         000000400R 10000000010000000000           
RFF0636750069499616      ERT      0000  956.44375000140000120820151800000000091473100W 1220000N                               
CUS0636750000106284147003         PINKNEY, ANTHONY    4102 GLADDEN AVE                        000N        CARE OF             
MTR06367500001000000000000000RA              79210442    005800940000009400000360000003NN  NNW 000                       N    
RDG06367500WATR 000000004R00000000000000015000012082015180000N000300000070N         000000400R 10000000010000000000           
RFF0636750069499824      ERT      0000  956.44375000140000120820151800000000153060100W 1220000N                               
CUS0636750000106284148001         COOKE, SHIRLEY YVONN4104 GLADDEN AVE                        000N        CARE OF             
MTR06367500001000000000000000RA              79210398    005800950000009500000360000003NN  NNW 000                       N    
RDG06367500WATR 000000004R00000000000000024000012082015180000N000300000070N         000000400R 10000000010000000000           
RFF0636750069499710      ERT      0000  956.44375000140000120820151800000000243802100W 1220000N                               
CUS0636750000106284149009         LINO OQUENDO        4106 GLADDEN AVE                        000N        CARE OF             
MTR06367500001000000000000000RA              79209948    005800960000009600000360000003NN  NNW 000                       N    
RDG06367500WATR 000000004R00000000000000000000012082015180000N000100000070N         000000400R 10000000010000000000           
RFF0636750069497426      ERT      0000  956.44375000140000120820151800000000004367100W 1220000N                               
CUS0636750000106284150007         THAMES, SAMUEL W    4108 GLADDEN AVE                        000N        CARE OF             
MTR06367500001000000000000000RA              42810238    005800970000009700000520000003NN  NNW 000                       N    
RDG06367500WATRL000000004K00000000000003405001212082015080537N000000000000U40       001930400K 10000000010000003366           
CUS0636750000106284151005         MICKEY, ROBERT E    4110 GLADDEN AVE                        000N        CARE OF             
MTR06367500001000000000000000RA              42801252    005800980000009800000520000003NN  NNW 000                       N    
RDG06367500WATRL000000004K00000000000001237001412082015080551N000000000000U40       000140400K 10000000010000001226           
CUS0636750000106284152003         TUCKER, PEGGY J     4112 GLADDEN AVE                        000N        CARE OF             
MTR06367500001000000000000000RA              79210401    005800990000009900000360000003NN  NNW 000                       N    
RDG06367500WATR 000000004R00000000000000026000012082015180000N000300000070N         000000400R 10000000010000000000           
RFF0636750069499277      ERT      0000  956.44375000140000120820151800000000260273100W 1220000N                               
CUS0636750000106284153001         DUCKETT, JOANIE V   4114 GLADDEN AVE                        000N        CARE OF             
MTR06367500001000000000000000RA              79210397    005801000000010000000360000003NN  NNW 000                       N    
RDG06367500WATR 000000004R00000000000000004000012082015180000N000300000070N         000000400R 10000000010000000000           
RFF0636750069499637      ERT      0000  956.44375000140000120820151800000000044976100W 1220000N                               
CUS0636750000106284154009         BOONE, SHAVONNE L H 4116 GLADDEN AVE                        000N        CARE OF             
MTR06367500001000000000000000RA              24767487    005801010000010100000520000003NY  NNW 000                       N    
MTM0636750024767487    COV                                                                                                    
RDG06367500WATRL000000004K00000000000003448002812082015081223N000000000000U40       001370400K 10000000010000003410           
CUS0636750000106284155006         FLEMING, DONNA Y.   4118 GLADDEN AVE                        000N        CARE OF             
MTR06367500001000000000000000RA              24767484    005801020000010200000520000003NY  NNW 000                       N    
MTM0636750024767484    COV                                                                                                    
RDG06367500WATRL000000004K00000000000003105002712082015081006N000000000000U40       000470400K 10000000010000003091           
CUS0636750000106284156004         CARL CARLEVARO      4120 GLADDEN AVE                        000N        CARE OF             
MTR06367500001000000000000000RA              24227492    005801030000010300000520000003NN  NNW 000                       N    
RDG06367500WATRL000000004K00000000000002809003112082015082001N000000000000U40       001460400K 10000000010000002802           
CUS0636750000106284157002         THOMAS, JOY         4122 GLADDEN AVE                        000N        CARE OF             
MTR06367500001000000000000000RA              44176073    005801040000010400000520000003NN  NNW 000                       N    
RDG06367500WATRL000000004K00000000000002228001512042015111443N000400000010U45       001100400K 10000000010000002220           
CUS0636750000106284158000         BROWN SR., DARRELL  4124 GLADDEN AVE                        000N        CARE OF             
MTR06367500001000000000000000RA              44176072    005801050000010500000520000003NY  NNW 000                       N    
MTM0636750044176072    COV                                                                                                    
RDG06367500WATRL000000004K00000000000003413002912082015082010N000000000001U40       000090400K 10000000010000003395           
CUS0636750000106284159008         FOSTER JR., SAMUEL  4126 GLADDEN AVE                        000N        CARE OF             
MTR06367500001000000000000000RA              14905158    005801060000010600000310000003NY  NNW 000                       N    
MTM0636750014905158    COV                                                                                                    
RDG06367500WATRL000000004K00000000000000935003012082015081735N000000000000U40       000240400K 10000000010000000915           
CUS0636750000106284160006         BROWN JR., BRANCHE L4121 GLADDEN AVE                        000N        CARE OF             
MTR06367500001000000000000000RA              79210408    005801070000010700000360000003NN  NNW 000                       N    
RDG06367500WATR 000000004R00000000000000039000012082015180000N000300000070N         000000400R 10000000010000000000           
RFF0636750069496122      ERT      0000  956.44375000140000120820151800000000392841100W 1220000N                               
CUS0636750000106284161004         HOLLIMON, ADRIENNE  4119 GLADDEN AVE                        000N        CARE OF             
MTR06367500001000000000000000RA              79209944    005801080000010800000360000003NN  NNW 000                       N    
RDG06367500WATR 000000004R00000000000000025000012082015180000N000300000060N         000000400R 10000000010000000000           
RFF0636750069499444      ERT      0000  956.44375000140000120820151800000000256596100W 1220000N                               
CUS0636750000106284162002         HUDSON HART III     4117 GLADDEN AVE                        000N        CARE OF             
MTR06367500001000000000000000RA              10005198    005801090000010900000570000003NN  NNW 000                       N    
RDG06367500WATRL000000004K00000000000000000001612042015111738N000300000010U45       001750400K 10000000010000000941           
CUS0636750000106284163000         ANDERSON PROPERTIES 4115 GLADDEN AVE                        000N        CARE OF             
MTR06367500001000000000000000RA              52285491    005801100000011000000520000003NN  NNW 000                       N    
RDG06367500WATRL000000004K00000000000000000001712042015111748N000000000010U45       000100400K 10000000010000000472           
CUS0636750000106284164008         NATHANIEL L THACKER 4113 GLADDEN AVE                        000N        CARE OF             
MTR06367500001000000000000000RA              79209954    005801110000011100000360000003NN  NNW 000                       N    
RDG06367500WATR 000000004R00000000000000025000012082015180000N000300000070N         000000400R 10000000010000000000           
RFF0636750069497420      ERT      0000  956.44375000140000120820151800000000256749100W 1220000N                               
CUS0636750000106284165005         SHIRLEY BATES       4111 GLADDEN AVE                        000N        CARE OF             
MTR06367500001000000000000000RA              24768688    005801120000011200000520000003NN  NNW 000   VACANT PROPERTY     N    
RDG06367500WATRL000000004K00000000000000000001812042015111756N000000000010U45       000080400K 10000000010000002955           
CUS0636750000106284166003         RAMONA BASILIO      4109 GLADDEN AVE                        000N        CARE OF             
MTR06367500001000000000000000RA              24759402    005801130000011300000520000003NY  NNW 000                       N    
MTM0636750024759402    COV                                                                                                    
RDG06367500WATRL000000004K00000000000004643002612082015080919N000100000010U40       002080400K 10000000010000004643           
CUS0636750000106284167001         REALTY MASTERMINDS, 4107 GLADDEN AVE                        000N        CARE OF             
MTR06367500001000000000000000RA              79210407    005801140000011400000360000003NN  NNW 000   VACANT PROPERTY     N    
RDG06367500WATR 000000004R00000000000000000000012082015180000N000100000070N         000000400R 10000000010000000000           
RFF0636750069499604      ERT      0000  956.44375000140000120820151800000000001638100W 1220000N                               
CUS0636750000106284168009         HOWARD, CHANTAY G   4105 GLADDEN AVE                        000N        CARE OF             
MTR06367500001000000000000000RA              79210412    005801150000011500000360000003NN  NNW 000                       N    
RDG06367500WATR 000000004R00000000000000014000012082015180000N000300000070N         000000400R 10000000010000000000           
RFF0636750069499606      ERT      0000  956.44375000140000120820151800000000145897100W 1220000N                               
CUS0636750000106284169007         WILKINS, ELLANNA J. 4103 GLADDEN AVE                        000N        CARE OF             
MTR06367500001000000000000000RA              79210450    005801160000011600000360000003NN  NNW 000                       N    
RDG06367500WATR 000000004R00000000000000000000012082015180000N000100000070N         000000400R 10000000010000000000           
RFF0636750069499860      ERT      0000  956.44375000140000120820151800000000000020100W 1220000N                               
CUS0636750000106284170005         MOSLEY, ROBERT      4101 GLADDEN AVE                        000N        CARE OF             
MTR06367500001000000000000000RA              79210447    005801170000011700000360000003NN  NNW 000                       N    
RDG06367500WATR 000000004R00000000000000018000012082015180000N000300000070N         000000400R 10000000010000000000           
RFF0636750069495675      ERT      0000  956.44375000140000120820151800000000186862100W 1220000N                               
CUS0636750000106284171003         DAVIS, TIFFANY LEE  3715 BONVIEW AVE                        000N        CARE OF             
MTR06367500001000000000000000RA              79537775    005801180000011800000360000003NN  NNW 000                       N    
RDG06367500WATR 000000004R00000000000000022000012082015180000N000300000070N         000000400R 10000000010000000000           
RFF0636750069499795      ERT      0000  956.44375000140000120820151800000000226434100W 1220000N                               
CUS0636750000106284172001         TOLBERT, KIM D.     3713 BONVIEW AVE                        000N        CARE OF             
MTR06367500001000000000000000RA              79537803    005801190000011900000360000003NN  NNW 000                       N    
RDG06367500WATR 000000004R00000000000000013000012082015180000N000300000070N         000000400R 10000000010000000000           
RFF0636750069499793      ERT      0000  956.44375000140000120820151800000000139567100W 1220000N                               
CUS0636750000106284173009         SCOTT, JAMES C      3711 BONVIEW AVE                        000N        CARE OF             
MTR06367500001000000000000000RA              79210600    005801200000012000000360000003NN  NNW 000                       N    
RDG06367500WATR 000000004R00000000000000010000012082015180000N000300000070N         000000400R 10000000010000000000           
RFF0636750069499442      ERT      0000  956.44375000140000120820151800000000106535100W 1220000N                               
CUS0636750000106284174007         HAMLET, RITA        3709 BONVIEW AVE                        000N        CARE OF             
MTR06367500001000000000000000RA              79210591    005801210000012100000360000003NN  NNW 000                       N    
RDG06367500WATR 000000004R00000000000000130000012082015180000N000300000070N         000000400R 10000000010000000000           
RFF0636750069499746      ERT      0000  956.44375000140000120820151800000001309820100W 1220000N                               
CUS0636750000106284175004         CREST, WARREN       3707 BONVIEW AVE                        000N        CARE OF             
MTR06367500001000000000000000RA              79537776    005801220000012200000360000003NN  NNW 000                       N    
RDG06367500WATR 000000004R00000000000000020000012082015180000N000300000070N         000000400R 10000000010000000000           
RFF0636750069499798      ERT      0000  956.44375000140000120820151800000000205850100W 1220000N                               
CUS0636750000106284176002         BROOKS, ARIENA      3705 BONVIEW AVE                        000N        CARE OF             
MTR06367500001000000000000000RA              79537777    005801230000012300000360000003NN  NNW 000                       N    
RDG06367500WATR 000000004R00000000000000030000012082015180000N000300000070N         000000400R 10000000010000000000           
RFF0636750069499780      ERT      0000  956.44375000140000120820151800000000300367100W 1220000N                               
CUS0636750000106284177000         SCOTT, CLARICER M.  3703 BONVIEW AVE                        000N        CARE OF             
MTR06367500001000000000000000RA              79210598    005801240000012400000360000003NN  NNW 000                       N    
RDG06367500WATR 000000004R00000000000000008000012082015180000N000300000070N         000000400R 10000000010000000000           
RFF0636750069495789      ERT      0000  956.44375000140000120820151800000000086968100W 1220000N                               
CUS0636750000106284178008         GLENFORD E SIMON    3701 BONVIEW AVE                        000N        CARE OF             
MTR06367500001000000000000000RA              79210601    005801250000012500000360000003NN  NNW 000                       N    
RDG06367500WATR 000000004R00000000000000019000012082015180000N000300000070N         000000400R 10000000010000000000           
RFF0636750069479888      ERT      0000  956.44375000140000120820151800000000196356100W 1220000N                               
CUS0636750000106284179006         BLUE, ACQUANETTE D. 4100 BRENDAN AVE                        000N        CARE OF             
MTR06367500001000000000000000RA              79210562    005801260000012600000360000003NN  NNW 000                       N    
RDG06367500WATR 000000004R00000000000000007000012082015180000N000300000070N         000000400R 10000000010000000000           
RFF0636750069499566      ERT      0000  956.44375000140000120820151800000000077595100W 1220000N                               
CUS0636750000106284180004         OGUNBOR, TIMMY      4102 BRENDAN AVE                        000N        CARE OF             
MTR06367500001000000000000000RA              79210566    005801270000012700000360000003NN  NNW 000                       N    
RDG06367500WATR 000000004R00000000000000012000012082015180000N000300000070N         000000400R 10000000010000000000           
RFF0636750069499364      ERT      0000  956.44375000140000120820151800000000128929100W 1220000N                               
CUS0636750000106284181002         GRAHAM, CLARICE     4104 BRENDAN AVE                        000N        CARE OF             
MTR06367500001000000000000000RA              79210551    005801280000012800000360000003NN  NNW 000                       N    
RDG06367500WATR 000000004R00000000000000016000012082015180000N000300000070N         000000400R 10000000010000000000           
RFF0636750069499600      ERT      0000  956.44375000140000120820151800000000160784100W 1220000N                               
CUS0636750000106284182000         JOASIL, JOANA       4106 BRENDAN AVE                        000N        CARE OF             
MTR06367500001000000000000000RA              00126066    005801290000012900000570000003NN  NNW 000                       N    
RDG06367500WATRL000000004K00000000000000009001912042015112230N000000000010U45       002740400K 10000000010000000778           
CUS0636750000106284183008         DAVIS-EL, CLYDE M   4108 BRENDAN AVE                        000N        CARE OF             
MTR06367500001000000000000000RA              32574828    005801300000013000000520000003NN  NNW 000                       N    
RDG06367500WATRL000000004K00000000000001376002112042015112345N000000000000U45       000080400K 10000000010000001367           
CUS0636750000106284184006         MCINTYRE, DARLENE   4110 BRENDAN AVE                        000N        CARE OF             
MTR06367500001000000000000000RA              10010112    005801310000013100000570000003NN  NNW 000                       N    
RDG06367500WATRL000000004K00000000000000251002012042015112337N000100000010U45       000670400K 10000000010000000251           
CUS0636750000106284185003         REALTY MASTERMINDS, 4112 BRENDAN AVE                        000N        CARE OF             
MTR06367500001000000000000000RA              79210581    005801320000013200000360000003NN  NNW 000                       N    
RDG06367500WATR 000000004R00000000000000026000012082015180000N000300000070N         000000400R 10000000010000000000           
RFF0636750069496276      ERT      0000  956.44375000140000120820151800000000267625100W 1220000N                               
CUS0636750000106284186001         ALPHA DFS,LLC.      4114 BRENDAN AVE                        000N        CARE OF             
MTR06367500001000000000000000RA              79210555    005801330000013300000360000003NN  NNW 000                       N    
RDG06367500WATR 000000004R00000000000000011000012082015180000N000300000070N         000000400R 10000000010000000000           
RFF0636750069499596      ERT      0000  956.44375000140000120820151800000000112287100W 1220000N                               
CUS0636750000106284187009         GREEN, KING D.      4116 BRENDAN AVE                        000N        CARE OF             
MTR06367500001000000000000000RA              79210532    005801340000013400000360000003NN  NNW 000                       N    
RDG06367500WATR 000000004R00000000000000028000012082015180000N000300000070N         000000400R 10000000010000000000           
RFF0636750069495693      ERT      0000  956.44375000140000120820151800000000285510100W 1220000N                               
CUS0636750000106284188007         BONNER, DOROTHY M   4118 BRENDAN AVE                        000N        CARE OF             
MTR06367500001000000000000000RA              79210516    005801350000013500000360000003NN  NNW 000                       N    
RDG06367500WATR 000000004R00000000000000005000012082015180000N000300000070N         000000400R 10000000010000000000           
RFF0636750069499743      ERT      0000  956.44375000140000120820151800000000057926100W 1220000N                               
CUS0636750000106284189005         STAMN, FRANK        4120 BRENDAN AVE                        000N        CARE OF             
MTR06367500001000000000000000RA              79210556    005801360000013600000360000003NN  NNW 000                       N    
RDG06367500WATR 000000004R00000000000000054000012082015180000N000300000070N         000000400R 10000000010000000000           
RFF0636750069499540      ERT      0000  956.44375000140000120820151800000000541603100W 1220000N                               
CUS0636750000106284190003         SHAWN P BRIGMAN     4122 BRENDAN AVE                        000N        CARE OF             
MTR06367500001000000000000000RA              79210564    005801370000013700000360000003NN  NNW 000                       N    
RDG06367500WATR 000000004R00000000000000008000012082015180000N000300000070N         000000400R 10000000010000000000           
RFF0636750069499365      ERT      0000  956.44375000140000120820151800000000088744100W 1220000N                               
CUS0636750000106284191001         LEE, LOLITA         4117 BRENDAN AVE                        000N        CARE OF             
MTR06367500001000000000000000RA              79210585    005801380000013800000360000003NN  NNW 000                       N    
RDG06367500WATR 000000004R00000000000000020000012082015180000N000300000070N         000000400R 10000000010000000000           
RFF0636750069499369      ERT      0000  956.44375000140000120820151800000000202190100W 1220000N                               
CUS0636750000106284192009         GRIFFIN, BENITA L   4115 BRENDAN AVE                        000N        CARE OF             
MTR06367500001000000000000000RA              79210514    005801390000013900000360000003NN  NNW 000                       N    
RDG06367500WATR 000000004R00000000000000022000012082015180000N000300000070N         000000400R 10000000010000000000           
RFF0636750069494217      ERT      0000  956.44375000140000120820151800000000228901100W 1220000N                               
CUS0636750000106284193007         BETTY JEAN HOLT     4113 BRENDAN AVE                        000N        CARE OF             
MTR06367500001000000000000000RA              79210531    005801400000014000000360000003NN  NNW 000                       N    
RDG06367500WATR 000000004R00000000000000009000012082015180000N000300000070N         000000400R 10000000010000000000           
RFF0636750069495670      ERT      0000  956.44375000140000120820151800000000094581100W 1220000N                               
CUS0636750000106284194005         BENNETT, TONY       4111 BRENDAN AVE                        000N        CARE OF             
MTR06367500001000000000000000RA              79210565    005801410000014100000360000003NN  NNW 000                       N    
RDG06367500WATR 000000004R00000000000000011000012082015180000N000300000070N         000000400R 10000000010000000000           
RFF0636750069499496      ERT      0000  956.44375000140000120820151800000000117571100W 1220000N                               
CUS0636750000106284195002         ONORATO, ELAINE D   4109 BRENDAN AVE                        000N        CARE OF             
MTR06367500001000000000000000RA              40048766    005801420000014200000520000003NN  NNW 000                       N    
RDG06367500WATRL000000004K00000000000001385002212042015112444N000000000000U45       000590400K 10000000010000001370           
CUS0636750000106284196000         SCOTT, TOWANDA      4107 BRENDAN AVE                        000N        CARE OF             
MTR06367500001000000000000000RA              40048764    005801430000014300000520000003NN  NNW 000                       N    
RDG06367500WATRL000000004K00000000000002935002312042015112452N000000000000U45       000080400K 10000000010000002930           
CUS0636750000106284197008         BROWN, DENNIS E     4105 BRENDAN AVE                        000N        CARE OF             
MTR06367500001000000000000000RA              79210582    005801440000014400000360000003NN  NNW 000                       N    
RDG06367500WATR 000000004R00000000000000015000012082015180000N000300000070N         000000400R 10000000010000000000           
RFF0636750069495679      ERT      0000  956.44375000140000120820151800000000151101100W 1220000N                               
CUS0636750000106284198006         HARMON, MARY L      4103 BRENDAN AVE                        000N        CARE OF             
MTR06367500001000000000000000RA              79210559    005801450000014500000360000003NN  NNW 000                       N    
RDG06367500WATR 000000004R00000000000000020000012082015180000N000300000070N         000000400R 10000000010000000000           
RFF0636750069496215      ERT      0000  956.44375000140000120820151800000000208981100W 1220000N                               
CUS0636750000106284199004         GILBERT J LUKOWSKI  4101 BRENDAN AVE                        000N        CARE OF             
MTR06367500001000000000000000RA              99187816    005801460000014600000570000003NN  NNW 000                       N    
RDG06367500WATRL000000004K00000000000001366002412042015112511N000000000000U45       000190400K 10000000010000001346           
CUS0636750000106284200000         JOANN N BRIGGEMAN   3621 BONVIEW AVE                        000N        CARE OF             
MTR06367500001000000000000000RA              79537795    005801470000014700000360000003NN  NNW 000                       N    
RDG06367500WATR 000000004R00000000000000005000012082015180000N000300000070N         000000400R 10000000010000000000           
RFF0636750069499805      ERT      0000  956.44375000140000120820151800000000057935100W 1220000N                               
CUS0636750000106284201008         BLUE JR., THOMAS    3619 BONVIEW AVE                        000N        CARE OF             
MTR06367500001000000000000000RA              79210593    005801480000014800000360000003NN  NNW 000                       N    
RDG06367500WATR 000000004R00000000000000027000012082015180000N000300000070N         000000400R 10000000010000000000           
RFF0636750069499759      ERT      0000  956.44375000140000120820151800000000273122100W 1220000N                               
CUS0636750000106284202006         SULE, HAKEEM        3617 BONVIEW AVE                        000N        CARE OF             
MTR06367500001000000000000000RA              79210597    005801490000014900000360000003NN  NNW 000                       N    
RDG06367500WATR 000000004R00000000000000003000012082015180000N000300000070N         000000400R 10000000010000000000           
RFF0636750069479860      ERT      0000  956.44375000140000120820151800000000033573100W 1220000N                               
CUS0636750000106284203004         MASUCCI, MICHAEL G  3615 BONVIEW AVE                        000N        CARE OF             
MTR06367500001000000000000000RA              79537799    005801500000015000000360000003NN  NNW 000                       N    
RDG06367500WATR 000000004R00000000000000000000012082015180000N000100000070N         000000400R 10000000010000000000           
RFF0636750069499427      ERT      0000  956.44375000140000120820151800000000005922100W 1220000N                               
CUS0636750000106284204002         BOESHORE PATRICIA F 3613 BONVIEW AVE                        000N        CARE OF             
MTR06367500001000000000000000RA              79537785    005801510000015100000360000003NN  NNW 000                       N    
RDG06367500WATR 000000004R00000000000000027000012082015180000N000300000070N         000000400R 10000000010000000000           
RFF0636750069496213      ERT      0000  956.44375000140000120820151800000000270708100W 1220000N                               
CUS0636750000106284205009         BOLDEN, MICHAEL C   3611 BONVIEW AVE                        000N        CARE OF             
MTR06367500001000000000000000RA              79210602    005801520000015200000360000003NN  NNW 000                       N    
RDG06367500WATR 000000004R00000000000000006000012082015180000N000300000070N         000000400R 10000000010000000000           
RFF0636750069480238      ERT      0000  956.44375000140000120820151800000000061726100W 1220000N                               
CUS0636750000106284206007         CARTER, KATRINA K   3609 BONVIEW AVE                        000N        CARE OF             
MTR06367500001000000000000000RA              50787488    005801530000015300000520000003NY  NNW 000                       N    
MTM0636750050787488    COV                                                                                                    
RDG06367500WATRL000000004K00000000000000999003312082015082548N000000000000U40       000540400K 10000000010000000988           
CUS0636750000106284207005         CALLEN, TIFFANY     3607 BONVIEW AVE                        000N        CARE OF             
MTR06367500001000000000000000RA              50787491    005801540000015400000520000003NY  NNW 000                       N    
MTM0636750050787491    COV                                                                                                    
RDG06367500WATRL000000004K00000000000000745003212082015082454N000000000000U40       002840400K 10000000010000000724           
CUS0636750000106284208003         JAMES L CURLEY      3605 BONVIEW AVE                        000N        CARE OF             
MTR06367500001000000000000000RA              79537779    005801550000015500000360000003NN  NNW 000                       N    
RDG06367500WATR 000000004R00000000000000023000012082015180000N000300000070N         000000400R 10000000010000000000           
RFF0636750069499761      ERT      0000  956.44375000140000120820151800000000231535100W 1220000N                               
CUS0636750000106284209001         KELLEY, GEORGE R    3603 BONVIEW AVE                        000N        CARE OF             
MTR06367500001000000000000000RA              79537778    005801560000015600000360000003NN  NNW 000                       N    
RDG06367500WATR 000000004R00000000000000014000012082015180000N000300000070N         000000400R 10000000010000000000           
RFF0636750069499753      ERT      0000  956.44375000140000120820151800000000145343100W 1220000N                               
CUS0636750000106284210009         THOMAS, FRANK L.    3601 BONVIEW AVE                        000N        CARE OF             
MTR06367500001000000000000000RA              79537780    005801570000015700000360000003NN  NNW 000                       N    
RDG06367500WATR 000000004R00000000000000013000012082015180000N000300000070N         000000400R 10000000010000000000           
RFF0636750069499656      ERT      0000  956.44375000140000120820151800000000138113100W 1220000N                               
CUS0636750000106284211007         TAN, FELIX          4000 ERDMAN AVE                         000N        CARE OF             
MTR06367500001000000000000000RA              79210510    005801580000015800000360000003NN  NNW 000   VACANT PROPERTY     N    
RDG06367500WATR 000000004R00000000000000000000012082015180000N000100000070N         000000400R 10000000010000000000           
RFF0636750069494233      ERT      0000  956.44375000140000120820151800000000004851100W 1220000N                               
CUS0636750000106284212005         CMB ELITE PROPERTIES4002 ERDMAN AVE                         000N        CARE OF             
MTR06367500001000000000000000RA              79210545    005801590000015900000360000003NN  NNW 000                       N    
RDG06367500WATR 000000004R00000000000000018000012082015180000N000300000060N         000000400R 10000000010000000000           
RFF0636750069480231      ERT      0000  956.44375000140000120820151800000000188573100W 1220000N                               
CUS0636750000106284213003         DIMATTEO, GAETANO   4004 ERDMAN AVE                         000N        CARE OF             
MTR06367500001000000000000000RA              79210557    005801600000016000000360000003NN  NNW 000                       N    
RDG06367500WATR 000000004R00000000000000024000012082015180000N000300000060N         000000400R 10000000010000000000           
RFF0636750069499568      ERT      0000  956.44375000140000120820151800000000243168100W 1220000N                               
CUS0636750000106284214001         DIMATTEO, GAETANO   4006 ERDMAN AVE                         000N        CARE OF             
MTR06367500001000000000000000RA              79210546    005801610000016100000360000003NN  NNW 000                       N    
RDG06367500WATR 000000004R00000000000000003000012082015180000N000300000070N         000000400R 10000000010000000000           
RFF0636750069499537      ERT      0000  956.44375000140000120820151800000000030196100W 1220000N                               
CUS0636750000106284215008         VITO A CAMPANELLA & 4008 ERDMAN AVE                         000N        CARE OF             
MTR06367500001000000000000000RA              79210544    005801620000016200000360000003NN  NNW 000                       N    
RDG06367500WATR 000000004R00000000000000027000012082015180000N000300000070N         000000400R 10000000010000000000           
RFF0636750069498600      ERT      0000  956.44375000140000120820151800000000274605100W 1220000N                               
CUS0636750000106284216006         DOROTHY THOMPSON    4010 ERDMAN AVE                         000N        CARE OF             
MTR06367500001000000000000000RA              79210518    005801630000016300000360000003NN  NNW 000                       N    
RDG06367500WATR 000000004R00000000000000014000012082015180000N000300000070N         000000400R 10000000010000000000           
RFF0636750069499376      ERT      0000  956.44375000140000120820151800000000144894100W 1220000N                               
CUS0636750000106284217004         DIMATTEO, GAETANO   4100 ERDMAN AVE                         000N        CARE OF             
MTR06367500001000000000000000RA              79210499    005801640000016400000360000003NN  NNW 000                       N    
RDG06367500WATR 000000004R00000000000000040000012082015180000N000300000070N         000000400R 10000000010000000000           
RFF0636750069499394      ERT      0000  956.44375000140000120820151800000000403246100W 1220000N                               
CUS0636750000106284218002         RUTH A DAWSON ETAL  4102 ERDMAN AVE                         000N        CARE OF             
MTR06367500001000000000000000RA              79210524    005801650000016500000360000003NN  NNW 000                       N    
RDG06367500WATR 000000004R00000000000000010000012082015180000N000300000070N         000000400R 10000000010000000000           
RFF0636750069480178      ERT      0000  956.44375000140000120820151800000000103557100W 1220000N                               
CUS0636750000106284219000         JOHNSON JR, ELMER   4104 ERDMAN AVE                         000N        CARE OF             
MTR06367500001000000000000000RA              79210552    005801660000016600000360000003NN  NNW 000                       N    
RDG06367500WATR 000000004R00000000000000015000012082015180000N000300000070N         000000400R 10000000010000000000           
RFF0636750069499621      ERT      0000  956.44375000140000120820151800000000157924100W 1220000N                               
CUS0636750000106284220008         PHIPPS, RANDOLPH    4106 ERDMAN AVE                         000N        CARE OF             
MTR06367500001000000000000000RA              79210543    005801670000016700000360000003NN  NNW 000                       N    
RDG06367500WATR 000000004R00000000000000025000012082015180000N000300000070N         000000400R 10000000010000000000           
RFF0636750069499447      ERT      0000  956.44375000140000120820151800000000257064100W 1220000N                               
CUS0636750000106284221006         LANVALE DESIGN AND R4108 ERDMAN AVE                         000N        CARE OF             
MTR06367500001000000000000000RA              79210533    005801680000016800000360000003NN  NNW 000                       N    
RDG06367500WATR 000000004R00000000000000024000012082015180000N000300000070N         000000400R 10000000010000000000           
RFF0636750069499539      ERT      0000  956.44375000140000120820151800000000240376100W 1220000N                               
CUS0636750000106284222004         PENNSYLVANIA AVENUE 4110 ERDMAN AVE                         000N        CARE OF             
MTR06367500001000000000000000RA              79210547    005801690000016900000360000003NN  NNW 000                       N    
RDG06367500WATR 000000004R00000000000000043000012082015180000N000300000070N         000000400R 10000000010000000000           
RFF0636750069479751      ERT      0000  956.44375000140000120820151800000000433178100W 1220000N                               
CUS0636750000106284223002         LAWS, MARQUERITE    4112 ERDMAN AVE                         000N        CARE OF             
MTR06367500001000000000000000RA              79210563    005801700000017000000360000003NN  NNW 000                       N    
RDG06367500WATR 000000004R00000000000000022000012072015190000N000300000040N         000000400R 10000000010000000000           
RFF0636750069499536      ERT      0000  956.44375000140000120720151900000000229060100W 1220000N                               
CUS0636750000106284224000         GORDON, FRANCES M.  3856 SINCLAIR LN                        000N        CARE OF             
MTR06367500001000000000000000RA              79209945    005801710000017100000360000003NN  NNW 000                       N    
RDG06367500WATR 000000004R00000000000000005000012082015180000N000300000070N         000000400R 10000000010000000000           
RFF0636750069497368      ERT      0000  956.44375000140000120820151800000000051402100W 1220000N                               
CUS0636750000106284225007         MCGUIRE, DRAYDE M (L3854 SINCLAIR LN                        000N        CARE OF             
MTR06367500001000000000000000RA              79210459    005801720000017200000360000003NN  NNW 000                       N    
RDG06367500WATR 000000004R00000000000000000000012082015180000N000100000070N         000000400R 10000000010000000000           
RFF0636750069496116      ERT      0000  956.44375000140000120820151800000000007685100W 1220000N                               
CUS0636750000106284226005         BAILEY, JEROME F    3852 SINCLAIR LN                        000N        CARE OF             
MTR06367500001000000000000000RA              30517395    005801730000017300000520000003NY  NNW 000                       N    
MTM0636750030517395    DIRT AND TREE ROOTS                                                                                    
RDG06367500WATRL000000004K00000000000000000000000000000000000 000000000000U         000000400  10000000010000002612           
CUS0636750000106284227003         RABB, ALICE J.      3850 SINCLAIR LN                        000N        CARE OF             
MTR06367500001000000000000000RA              01091091    005801740000017400000610000003NY  NNW 000                       N    
MTM0636750001091091    DIRT AND TREE ROOTS                                                                                    
RDG06367500WATRL000000004K00000000000000000000000000000000000 000000000000U         000000400  10000000010000000597           
CUS0636750000106284228001         VERNELLE G SCRIBER  3848 SINCLAIR LN                        000N        CARE OF             
MTR06367500001000000000000000RA              24233049    005801750000017500000520000003NY  NNW 000                       N    
MTM0636750024233049    COV                                                                                                    
RDG06367500WATRL000000004K00000000000003732003412082015083301N000000000000U40       004330400K 10000000010000003561           
CUS0636750000106284229009         WILLARD, MICHAEL I  3846 SINCLAIR LN                        000N        CARE OF             
MTR06367500001000000000000000RA              30522046    005801760000017600000520000003NY  NNW 000                       N    
MTM0636750030522046    COV                                                                                                    
RDG06367500WATRL000000004K00000000000001947003512082015083348N000000000001U40       000470400K 10000000010000001942           
CUS0636750000106284230007         JONES, SHAVONIA     3844 SINCLAIR LN                        000N        CARE OF             
MTR06367500001000000000000000RA              27816904    005801770000017700000520000003NN  NNW 000                       N    
RDG06367500WATRL000000004K00000000000000018002512042015114234N000000000000U45       010430400K 10000000010000000018           
CUS0636750000106284231005         HARPER, HERBERT W   3842 SINCLAIR LN                        000N        CARE OF             
MTR06367500001000000000000000RA              79209943    005801780000017800000360000003NN  NNW 000                       N    
RDG06367500WATR 000000004R00000000000000034000012082015180000N000300000070N         000000400R 10000000010000000000           
RFF0636750069499624      ERT      0000  956.44375000140000120820151800000000347448100W 1220000N                               
CUS0636750000106284232003         JACKSON, CLIFTON B. 3840 SINCLAIR LN                        000N        CARE OF             
MTR06367500001000000000000000RA              79210427    005801790000017900000360000003NN  NNW 000                       N    
RDG06367500WATR 000000004R00000000000000024000012082015180000N000300000070N         000000400R 10000000010000000000           
RFF0636750069499833      ERT      0000  956.44375000140000120820151800000000240990100W 1220000N                               
CUS0636750000106284233001         JOHNSON, TALISHA    3838 SINCLAIR LN                        000N        CARE OF             
MTR06367500001000000000000000RA              79210394    005801800000018000000360000003NN  NNW 000                       N    
RDG06367500WATR 000000004R00000000000000021000012082015180000N000300000070N         000000400R 10000000010000000000           
RFF0636750069499645      ERT      0000  956.44375000140000120820151800000000213262100W 1220000N                               
CUS0636750000106284234009         WOODY, KENNETH W    3836 SINCLAIR LN                        000N        CARE OF             
MTR06367500001000000000000000RA              79210414    005801810000018100000360000003NN  NNW 000                       N    
RDG06367500WATR 000000004R00000000000000012000012082015180000N000300000070N         000000400R 10000000010000000000           
RFF0636750069499617      ERT      0000  956.44375000140000120820151800000000126033100W 1220000N                               
CUS0636750000106284235006         LOFTON, JAMES A.    3834 SINCLAIR LN                        000N        CARE OF             
MTR06367500001000000000000000RA              79209950    005801820000018200000360000003NN  NNW 000                       N    
RDG06367500WATR 000000004R00000000000000038000012082015180000N000300000070N         000000400R 10000000010000000000           
RFF0636750069496081      ERT      0000  956.44375000140000120820151800000000383517100W 1220000N                               
CUS0636750000106284236004         MADDOX, WAYNE V     3832 SINCLAIR LN                        000N        CARE OF             
MTR06367500001000000000000000RA              79210403    005801830000018300000360000003NN  NNW 000                       N    
RDG06367500WATR 000000004R00000000000000043000012082015180000N000300000070N         000000400R 10000000010000000000           
RFF0636750069499708      ERT      0000  956.44375000140000120820151800000000431969100W 1220000N                               
CUS0636750000106284237002         RUBY PROPERTIES, LLC3830 SINCLAIR LN                        000N        CARE OF             
MTR06367500001000000000000000RA              79210344    005801840000018400000360000003NN  NNW 000                       N    
RDG06367500WATR 000000004R00000000000000034000012082015180000N000300000070N         000000400R 10000000010000000000           
RFF0636750069496297      ERT      0000  956.44375000140000120820151800000000344421100W 1220000N                               
CUS0636750000106284238000         REGINALD E EDWARDS &3828 SINCLAIR LN                        000N        CARE OF             
MTR06367500001000000000000000RA              26012913    005801850000018500000520000003NY  NNW 000                       N    
MTM0636750026012913    COV                                                                                                    
RDG06367500WATRL000000004K00000000000004325003612082015083439N000000000000U40       000510400K 10000000010000004298           
CUS0636750000106284239008         SCOTT, MAURICE      3826 SINCLAIR LN                        000N        CARE OF             
MTR06367500001000000000000000RA              10022369    005801860000018600000570000003NY  NNW 000                       N    
MTM0636750010022369    COV                                                                                                    
RDG06367500WATRL000000004K00000000000000156003712082015083442N000000000000U40       000030400K 10000000010000000154           
CUS0636750000106284240006         BUTLER-SHABAZZ, LAKE3824 SINCLAIR LN                        000N        CARE OF             
MTR06367500001000000000000000RA              31585920    005801870000018700000520000003NN  NNW 000                       N    
RDG06367500WATRL000000004K00000000000001639002612042015114453N000300000010U45       001390400K 10000000010000001841           
CUS0636750000106284241004         BROWN, ARNETTA V.   3822 SINCLAIR LN                        000N        CARE OF             
MTR06367500001000000000000000RA              31586023    005801880000018800000520000003NN  NNW 000                       N    
RDG06367500WATRL000000004K00000000000000000002712082015083541S005000000000U40       000590400K 10000000010000000000           
CUS0636750000106284242002         DORSEY, SANDRA E   (3820 SINCLAIR LN                        000N        CARE OF             
MTR06367500001000000000000000RA              79210399    005801890000018900000360000003NN  NNW 000                       N    
RDG06367500WATR 000000004R00000000000000006000012082015180000N000300000070N         000000400R 10000000010000000000           
RFF0636750069499632      ERT      0000  956.44375000140000120820151800000000065243100W 1220000N                               
CUS0636750000106284243000         MULDROW, ERICA      3818 SINCLAIR LN                        000N        CARE OF             
MTR06367500001000000000000000RA              79210390    005801900000019000000360000003NN  NNW 000                       N    
RDG06367500WATR 000000004R00000000000000020000012082015180000N000300000070N         000000400R 10000000010000000000           
RFF0636750069499605      ERT      0000  956.44375000140000120820151800000000201396100W 1220000N                               
CUS0636750000106284244008         BROOKS, JOHN        3816 SINCLAIR LN                        000N        CARE OF             
MTR06367500001000000000000000RA              79210400    005801910000019100000360000003NY  NNW 000                       N    
MTM0636750079210400    FLOOD                                                                                                  
RDG06367500WATR 000000004R00000000000000012000012032015180000N000300000010U         000000400R 10000000010000000000           
RFF0636750069499633      ERT      0000  956.44375000140000120320151800000000122718100W 1220000N                               
CUS0636750000106284245005         NEWNAM PROPERTIES, L3814 SINCLAIR LN                        000N        CARE OF             
MTR06367500001000000000000000RA              79209946    005801920000019200000360000003NN  NNW 000                       N    
RDG06367500WATR 000000004R00000000000000015000012082015140000N000300000070N         000000400R 10000000010000000000           
RFF0636750069497401      ERT      0000  956.44375000140000120820151400000000159162100W 1220000N                               
CUS0636750000106284246003         COOK, CONTRINA V    3812 SINCLAIR LN                        000N        CARE OF             
MTR06367500001000000000000000RA              79209947    005801930000019300000360000003NN  NNW 000                       N    
RDG06367500WATR 000000004R00000000000000027000012082015180000N000300000070N         000000400R 10000000010000000000           
RFF0636750069497448      ERT      0000  956.44375000140000120820151800000000274789100W 1220000N                               
CUS0636750000106284247001         KING, LAUREN R.     3810 SINCLAIR LN                        000N        CARE OF             
MTR06367500001000000000000000RA              79210411    005801940000019400000360000003NN  NNW 000                       N    
RDG06367500WATR 000000004R00000000000000015000012082015180000N000300000070N         000000400R 10000000010000000000           
RFF0636750069499630      ERT      0000  956.44375000140000120820151800000000152454100W 1220000N                               
CUS0636750000106284248009         DELOYDE T NELSON & W3808 SINCLAIR LN                        000N        CARE OF             
MTR06367500001000000000000000RA              99288610    005801950000019500000570000003NN  NNW 000                       N    
RDG06367500WATRL000000004K00000000000001302002812042015114847N000000000000U45       001690400K 10000000010000001285           
CUS0636750000106284249007         GEORGE BERNARD MILLS3806 SINCLAIR LN                        000N        CARE OF             
MTR06367500001000000000000000RA              99388642    005801960000019600000570000003NN  NNW 000                       N    
RDG06367500WATRL000000004K00000000000001459002912042015114854N000000000000U45       000070400K 10000000010000001440           
CUS0636750000106284250005         TRAORE, M'BARICK    3804 SINCLAIR LN                        000N        CARE OF             
MTR06367500001000000000000000RA              79210409    005801970000019700000360000003NN  NNW 000                       N    
RDG06367500WATR 000000004R00000000000000022000012082015180000N000300000070N         000000400R 10000000010000000000           
RFF0636750069499622      ERT      0000  956.44375000140000120820151800000000226893100W 1220000N                               
CUS0636750000106284251003         BERRY, TERESA       3802 SINCLAIR LN                        000N        CARE OF             
MTR06367500001000000000000000RA              79210441    005801980000019800000360000003NN  NNW 000                       N    
RDG06367500WATR 000000004R00000000000000002000012082015180000N000300000070N         000000400R 10000000010000000000           
RFF0636750069495792      ERT      0000  956.44375000140000120820151800000000027718100W 1220000N                               
CUS0636750000106284252001         TODD, TRACEY E.     3800 SINCLAIR LN                        000N        CARE OF             
MTR06367500001000000000000000RA              79210393    005801990000019900000360000003NN  NNW 000                       N    
RDG06367500WATR 000000004R00000000000000009000012082015180000N000300000070N         000000400R 10000000010000000000           
RFF0636750069499640      ERT      0000  956.44375000140000120820151800000000099620100W 1220000N                               
CUS0636750000106284253009         RAY, EUGENE A.      3756 SINCLAIR LN                        000N        CARE OF             
MTR06367500001000000000000000RA              79209935    005802000000020000000360000003NN  NNW 000                       N    
RDG06367500WATR 000000004R00000000000000026000012082015180000N000300000050N         000000400R 10000000010000000000           
RFF0636750069496205      ERT      0000  956.44375000140000120820151800000000261966100W 1220000N                               
CUS0636750000106284254007         LOFLAND, CARLA      3754 SINCLAIR LN                        000N        CARE OF             
MTR06367500001000000000000000RA              77987885    005802010000020100000360000003NN  NNW 000                       N    
RDG06367500WATR 000000004R00000000000000045000012082015180000N000300000060N         000000400R 10000000010000000026           
RFF0636750070000907      ERT      0000  956.44375000140000120820151800000000455331100W 1220000N                               
CUS0636750000106284255004         STREET, ANTHONY     3752 SINCLAIR LN                        000N        CARE OF             
MTR06367500001000000000000000RA              79210391    005802020000020200000360000003NN  NNW 000                       N    
RDG06367500WATR 000000004R00000000000000008000012082015180000N000300000060N         000000400R 10000000010000000000           
RFF0636750069499625      ERT      0000  956.44375000140000120820151800000000088270100W 1220000N                               
CUS0636750000106284256002         DICKENS, HARRY      3750 SINCLAIR LN                        000N        CARE OF             
MTR06367500001000000000000000RA              79210444    005802030000020300000360000003NN  NNW 000                       N    
RDG06367500WATR 000000004R00000000000000011000012082015180000N000300000060N         000000400R 10000000010000000000           
