FHDNNNN037007543007543007543N                                                                                           022792
RHD08057000NN02830283000002830000000002830283000074NY028302830283000000040000000000000000000002    12042014NY020000 N         
CUS0805700000102264737004         MOSES, ROBERT L.    332 N GRANTLEY ST                       000N        CARE OF             
MTR08057000001000000000000000RA              24234062    005800010000000100000520000003NN  NNW 000                       N    
RDG08057000WATRL000000004K00000000000003462000112112014104724N000000000000N86       000000400K 10000000010000003457           
CUS0805700000102264738002         STEWART, LEE ESTHER 330 N GRANTLEY ST                       000N        CARE OF             
MTR08057000001000000000000000RA              99390066    005800020000000200000570000003NN  NNW 000                       N    
RDG08057000WATRL000000004K00000000000000729000212112014104730N000000000000N86       000060400K 10000000010000000725           
CUS0805700000102264739000         MIMS, SHARON L      328 N GRANTLEY ST                       000N        CARE OF             
MTR08057000001000000000000000RA              46886563    005800030000000300000520000003NN  NNW 000                       N    
RDG08057000WATRL000000004K00000000000001506000312112014104744N000000000000N86       000140400K 10000000010000001490           
CUS0805700000102264740008         SAVAGE, NAKIA D.    326 N GRANTLEY ST                       000N        CARE OF             
MTR08057000001000000000000000RA              76347961    005800040000000400000350000003NN  NNW 000                       N    
RDG08057000WATRL000000004K00000000000000016000412112014104745N000000000000N86       000010400K 10000000010000000008           
CUS0805700000102264741006         SHIRLEY M LOKEMAN   324 N GRANTLEY ST                       000N        CARE OF             
MTR08057000001000000000000000RA              39584775    005800050000000500000520000003NN  NNW 000                       N    
RDG08057000WATRL000000004K00000000000003478000512112014104757N000000000000N86       000120400K 10000000010000003467           
CUS0805700000102264742004         APEX HOME BUYERS, LL322 N GRANTLEY ST                       000N        CARE OF             
MTR08057000001000000000000000RA              39584773    005800060000000600000520000003NN  NNW 000                       N    
RDG08057000WATRL000000004K00000000000002244000612112014104758N000000000000N86       000010400K 10000000010000002209           
CUS0805700000102264743002         KENNY A HOOPER      320 N GRANTLEY ST                       000N        CARE OF             
MTR08057000001000000000000000RA              01078317    005800070000000700000610000003NN  NNW 000                       N    
RDG08057000WATRL000000004K00000000000000519000712112014104813N000000000000N86       000150400K 10000000010000000513           
CUS0805700000102264744000         TRUST COMPANY OF AME318 N GRANTLEY ST                       000N        CARE OF             
MTR08057000001000000000000000RA              41087821    005800080000000800000520000003NN  NNW 000                       N    
RDG08057000WATRL000000004K00000000000002432000812112014104815N000000000000N86       000020400K 10000000010000002425           
CUS0805700000102264745007         MITCHELL JR., MAURIC316 N GRANTLEY ST                       000N        CARE OF             
MTR08057000001000000000000000RA              01078311    005800090000000900000610000003NN  NNW 000                       N    
RDG08057000WATRL000000004K00000000000000792000912112014104828N000000000000N86       000130400K 10000000010000000781           
CUS0805700000102264746005         TEE REE REALTY, LLC 314 N GRANTLEY ST                       000N        CARE OF             
MTR08057000001000000000000000RA              23427100    005800100000001000000520000003NN  NNW 000                       N    
RDG08057000WATRL000000004K00000000000001638001012112014104830N000000000000N86       000020400K 10000000010000001638           
CUS0805700000102264747003         JOHN PARHAM         312 N GRANTLEY ST                       000N        CARE OF             
MTR08057000001000000000000000RA              33078144    005800110000001100000520000003NN  NNW 000                       N    
RDG08057000WATRL000000004K00000000000002437001112112014104844N000000000000N86       000140400K 10000000010000002428           
CUS0805700000102264748001         JESSIE HAIRSTON     310 N GRANTLEY ST                       000N        CARE OF             
MTR08057000001000000000000000RA              99390063    005800120000001200000570000003NN  NNW 000                       N    
RDG08057000WATRL000000004K00000000000000522001212112014104846N000000000000N86       000020400K 10000000010000000507           
CUS0805700000102264749009         SCOTT, FAITH M      308 N GRANTLEY ST                       000N        CARE OF             
MTR08057000001000000000000000RA              99390064    005800130000001300000570000003NN  NNW 000                       N    
RDG08057000WATRL000000004K00000000000000374001312112014104857N000000000000N86       000110400K 10000000010000000370           
CUS0805700000102264750007         BENNETT, THOMAS F   306 N GRANTLEY ST                       000N        CARE OF             
MTR08057000001000000000000000RA              25782789    005800140000001400000520000003NN  NNW 000                       N    
RDG08057000WATRL000000004K00000000000001897001412112014104858N000000000000N86       000010400K 10000000010000001870           
CUS0805700000102264751005         M & T BANK          304 N GRANTLEY ST                       000N        CARE OF             
MTR08057000001000000000000000RA              27825145    005800150000001500000520000003NN  NNW 000                       N    
RDG08057000WATRL000000004K00000000000002644001512112014104914N000000000010N86       000160400K 10000000010000002642           
CUS0805700000102264752003         REYNOLDS, FRANK L   302 N GRANTLEY ST                       000N        CARE OF             
MTR08057000001000000000000000RA              31587495    005800160000001600000520000003NN  NNW 000                       N    
RDG08057000WATRL000000004K00000000000001419001612112014104916N000000000000N86       000020400K 10000000010000001413           
CUS0805700000102264753001         SAVAGE, BETTY       300 N GRANTLEY ST                       000N        CARE OF             
MTR08057000001000000000000000RA              45374811    005800170000001700000520000003NN  NNW 000                       N    
RDG08057000WATRL000000004K00000000000001321001712112014104927N000000000000N86       000110400K 10000000010000001311           
CUS0805700000102264754009         PLUMMER, HUGH       3600 W SARATOGA ST                      000N        CARE OF             
MTR08057000001000000000000000RA              14914049    005800180000001800000310000003NN  NNW 000                       N    
RDG08057000WATRL000000004K00000000000000547001812112014105015N000000000000N86       000480400K 10000000010000000543           
CUS0805700000102264755006         NOCK, DESIREE L.    3602 W SARATOGA ST                      000N        CARE OF             
MTR08057000001000000000000000RA              99390062    005800190000001900000570000003NN  NNW 000                       N    
RDG08057000WATRL000000004K00000000000000678001912112014105032N000000000000N86       000170400K 10000000010000000670           
CUS0805700000102264756004         LOUCYLLE B GALES    3604 W SARATOGA ST                      000N        CARE OF             
MTR08057000001000000000000000RA              99390061    005800200000002000000570000003NN  NNW 000                       N    
RDG08057000WATRL000000004K00000000000000616002012112014105033N000000000000N86       000010400K 10000000010000000605           
CUS0805700000102264757002         TOWAH, TWAN         3606 W SARATOGA ST                      000N        CARE OF             
MTR08057000001000000000000000RA              45374965    005800210000002100000520000003NN  NNW 000                       N    
RDG08057000WATRL000000004K00000000000001282002112112014105044N000400000010N86       000110400K 10000000010000001278           
CUS0805700000102264758000         BARBER, MARY E      3608 W SARATOGA ST                      000N        CARE OF             
MTR08057000001000000000000000RA              45374988    005800220000002200000520000003NN  NNW 000                       N    
RDG08057000WATRL000000004K00000000000001778002212112014105045N000000000000N86       000010400K 10000000010000001764           
CUS0805700000102264759008         ELI J BARBER & WF   3610 W SARATOGA ST                      000N        CARE OF             
MTR08057000001000000000000000RA              26011732    005800230000002300000520000003NN  NNW 000                       N    
RDG08057000WATRL000000004K00000000000004013002312112014105112N000003500000N86       000270400K 10000000010000004011           
CUS0805700000102264760006         SMITH JR., MICHAEL R3612 W SARATOGA ST                      000N        CARE OF             
MTR08057000001000000000000000RA              26011734    005800240000002400000520000003NY  NNW 000                       N    
MTM0805700026011734    C\O VAULT                                                                                              
RDG08057000WATRL000000004K00000000000001243002412112014105132N000000000000N86       000200400K 10000000010000001234           
CUS0805700000102264761004         BELL, ROBERT        3614 W SARATOGA ST                      000N        CARE OF             
MTR08057000001000000000000000RA              19460813    005800250000002500000520000003NN  NNW 000                       N    
RDG08057000WATRL000000004K00000000000003170002512112014105203N000000000000N86       000310400K 10000000010000003164           
CUS0805700000102264762002         COLEMAN, FRANKLIN R 3616 W SARATOGA ST                      000N        CARE OF             
MTR08057000001000000000000000RA              99389891    005800260000002600000570000003NN  NNW 000                       N    
RDG08057000WATRL000000004K00000000000000805002612112014105204N000000000000N86       000010400K 10000000010000000796           
CUS0805700000102264763000         LEE-JOHNSON, JOHN   3617 W SARATOGA ST                      000N        CARE OF             
MTR08057000001000000000000000RA              32177139    005800270000002700000520000003NN  NNW 000                       N    
RDG08057000WATRL000000004K00000000000001721002712112014105231N000000000000N86       000270400K 10000000010000001714           
CUS0805700000102264764008         REEDER, JERALINE    3615 W SARATOGA ST                      000N        CARE OF             
MTR08057000001000000000000000RA              10006983    005800280000002800000570000003NN  NNW 000                       N    
RDG08057000WATRL000000004K00000000000000213002812112014105233N000000000000N86       000020400K 10000000010000000204           
CUS0805700000102264765005         CATLETT, JOHN R.    3613 W SARATOGA ST                      000N        CARE OF             
MTR08057000001000000000000000RA              77886797    005800290000002900000350000003NN  NNW 000                       N    
RDG08057000WATRL000000004K00000000000000021002912112014105257N000400000010N86       000240400K 10000000010000000011           
CUS0805700000102264766003         REED, CHARLES C     3611 W SARATOGA ST                      000N        CARE OF             
MTR08057000001000000000000000RA              77987739    005800300000003000000350000003NN  NNW 000                       N    
RDG08057000WATRL000000004K00000000000000002003012112014105259N000000000010N86       000020400K 10000000010000000000           
CUS0805700000102264767001         CLARENCE E WILLIAMS 3609 W SARATOGA ST                      000N        CARE OF             
MTR08057000001000000000000000RA              38887598    005800310000003100000520000003NN  NNW 000                       N    
RDG08057000WATRL000000004K00000000000000811003112112014105312N000000000000N86       000130400K 10000000010000000807           
CUS0805700000102264768009         POINT BLANK, LLC    3607 W SARATOGA ST                      000N        CARE OF             
MTR08057000001000000000000000RA              38887377    005800320000003200000520000003NN  NNW 000                       N    
RDG08057000WATRL000000004K00000000000001823003212112014105315N000000000010N86       000030400K 10000000010000001820           
CUS0805700000102264769007         DOROTHY B GRESHAM & 3605 W SARATOGA ST                      000N        CARE OF             
MTR08057000001000000000000000RA              42808101    005800330000003300000520000003NN  NNW 000                       N    
RDG08057000WATRL000000004K00000000000001637003312112014105402N000000000000N86       000470400K 10000000010000001616           
CUS0805700000102264770005         SUMMERS, DONTE      3603 W SARATOGA ST                      000N        CARE OF             
MTR08057000001000000000000000RA              42808104    005800340000003400000520000003NN  NNW 000                       N    
RDG08057000WATRL000000004K00000000000001816003412112014105405N000000000000N86       000030400K 10000000010000001808           
CUS0805700000102264771003         QUICK HOME SOLUTION,3601 W SARATOGA ST                      000N        CARE OF             
MTR08057000001000000000000000RA              01086565    005800350000003500000610000003NN  NNW 000                       N    
RDG08057000WATRL000000004K00000000000002099003512112014105458N000000000000N86       000530400K 10000000010000002057           
CUS0805700000102264772001         CHARLES A PICCININI 208 N GRANTLEY ST                       000N        CARE OF             
MTR08057000001000000000000000RA              41088060    005800360000003600000520000003NN  NNW 000                       N    
RDG08057000WATRL000000004K00000000000002186003612112014105552N000000000000N86       000540400K 10000000010000002164           
CUS0805700000102264773009         BRADFORD, SANDRA L  206 N GRANTLEY ST                       000N        CARE OF             
MTR08057000001000000000000000RA              41088058    005800370000003700000520000003NN  NNW 000                       N    
RDG08057000WATRL000000004K00000000000001647003712112014105553N000000000000N86       000010400K 10000000010000001641           
CUS0805700000102264774007         HOUSE, BARBARA      204 N GRANTLEY ST                       000N        CARE OF             
MTR08057000001000000000000000RA              33732990    005800380000003800000520000003NN  NNW 000                       N    
RDG08057000WATRL000000004K00000000000001394003812112014105606N000000000000N86       000130400K 10000000010000001379           
CUS0805700000102264775004         WILLIAMS, MALINDA LA202 N GRANTLEY ST                       000N        CARE OF             
MTR08057000001000000000000000RA              33733034    005800390000003900000520000003NN  NNW 000                       N    
RDG08057000WATRL000000004K00000000000001599003912112014105607N000000000000N86       000010400K 10000000010000001591           
CUS0805700000102264776002         MCLENDON, CHRISTAL  200 N GRANTLEY ST                       000N        CARE OF             
MTR08057000001000000000000000RA              14911404    005800400000004000000310000003NN  NNW 000                       N    
RDG08057000WATRL000000004K00000000000000378004012112014105620N000000000000N86       000130400K 10000000010000000371           
CUS0805700000102264777000         RUDOLPH MADISON     3600 W LEXINGTON ST                     000N        CARE OF             
MTR08057000001000000000000000RA              40323389    005800410000004100000520000003NN  NNW 000                       N    
RDG08057000WATRL000000004K00000000000002270004112112014105700N000000000000N86       000400400K 10000000010000002241           
CUS0805700000102264778008         WILLIAMS, WALTER    3602 W LEXINGTON ST                     000N        CARE OF             
MTR08057000001000000000000000RA              40323343    005800420000004200000520000003NN  NNW 000                       N    
RDG08057000WATRL000000004K00000000000001641004212112014105701N000000000000N86       000010400K 10000000010000001627           
CUS0805700000102264779006         DUNNOCK PROPERTY MTG3604 W LEXINGTON ST                     000N        CARE OF             
MTR08057000001000000000000000RA              40322989    005800430000004300000520000003NN  NNW 000                       N    
RDG08057000WATRL000000004K00000000000003485004312112014105718N000300000010N86       000170400K 10000000010000003473           
CUS0805700000102264780004         TM3 HOME SOLUTIONS L3606 W LEXINGTON ST                     000N        CARE OF             
MTR08057000001000000000000000RA              44175332    005800440000004400000520000003NN  NNW 000                       N    
RDG08057000WATRL000000004K00000000000000941004412112014105722N000000000000N86       000040400K 10000000010000000936           
CUS0805700000102264781002         TM3 HOME SOLUTIONS L3608 W LEXINGTON ST                     000N        CARE OF             
MTR08057000001000000000000000RA              29403595    005800450000004500000520000003NN  NNW 000                       N    
RDG08057000WATRL000000004K00000000000002924004512112014105742N000000000000N86       000200400K 10000000010000002915           
CUS0805700000102264782000         THOMAS, LAFAYETTE   3610 W LEXINGTON ST                     000N        CARE OF             
MTR08057000001000000000000000RA              29403591    005800460000004600000520000003NN  NNW 000                       N    
RDG08057000WATRL000000004K00000000000002739004612112014105743N000000000000N86       000010400K 10000000010000002730           
CUS0805700000102264783008         TM3 HOME SOLUTIONS, 3612 W LEXINGTON ST                     000N        CARE OF             
MTR08057000001000000000000000RA              2726657     005800470000004700000520000003NN  NNW 000                       N    
RDG08057000WATRL000000004K00000000000001943004712112014105757N000000000000N86       000140400K 10000000010000001930           
CUS0805700000102264784006         SMITH LILLIAN (LIFE)3614 W LEXINGTON ST                     000N        CARE OF             
MTR08057000001000000000000000RA              27266645    005800480000004800000520000003NN  NNW 000                       N    
RDG08057000WATRL000000004K00000000000002725004812112014105758N000000000000N86       000010400K 10000000010000002723           
CUS0805700000102264785003         MOYE, ANTHONY       3616 W LEXINGTON ST                     000N        CARE OF             
MTR08057000001000000000000000RA              44177699    005800490000004900000520000000NN  NNW 000                       N    
RDG08057000WATRL000000004K00000000000001254004912112014105825N000000000010N86       000270400K 10000000010000001233           
CUS0805700000102264786001         BROWN, JASMINE E.   3629 W LEXINGTON ST                     000N        CARE OF             
MTR08057000001000000000000000RA              01087856    005800500000005000000610000003NN  NNW 000                       N    
RDG08057000WATRL000000004K00000000000000429005012112014105838N000000000000N86       000130400K 10000000010000000426           
CUS0805700000102264787009         BROWN, CHRISTINE    3627 W LEXINGTON ST                     000N        CARE OF             
MTR08057000001000000000000000RA              01087851    005800510000005100000610000003NN  NNW 000                       N    
RDG08057000WATRL000000004K00000000000000871005112112014105839N000000000000N86       000010400K 10000000010000000865           
CUS0805700000102264788007         DENNIS, LACRESHEA   3625 W LEXINGTON ST                     000N        CARE OF             
MTR08057000001000000000000000RA              01093478    005800520000005200000610000003NN  NNW 000                       N    
RDG08057000WATRL000000004K00000000000001066005212112014105855N000000000000N86       000160400K 10000000010000001047           
CUS0805700000102264789005         BALTRENTALS DOT COM 3623 W LEXINGTON ST                     000N        CARE OF             
MTR08057000001000000000000000RA              01087855    005800530000005300000610000003NN  NNW 000                       N    
RDG08057000WATRL000000004K00000000000000666005312112014105857N000000000000N86       000020400K 10000000010000000647           
CUS0805700000102264790003         GREEN, SEAN A.      3621 W LEXINGTON ST                     000N        CARE OF             
MTR08057000001000000000000000RA              45374964    005800540000005400000520000003NN  NNW 000                       N    
RDG08057000WATRL000000004K00000000000000934005412112014105913N000000000000N86       000160400K 10000000010000000925           
CUS0805700000102264791001         ROSS, JAMES         3619 W LEXINGTON ST                     000N        CARE OF             
MTR08057000001000000000000000RA              45374972    005800550000005500000520000003NN  NNW 000                       N    
RDG08057000WATRL000000004K00000000000001499005512112014105915N000000000000N86       000020400K 10000000010000001485           
CUS0805700000102264792009         ROSETTA ROOTS, LLC  3617 W LEXINGTON ST                     000N        CARE OF             
MTR08057000001000000000000000RA              27816795    005800560000005600000520000003NN  NNW 000                       N    
RDG08057000WATRL000000004K00000000000002897005612112014105937N000000000000N86       000220400K 10000000010000002853           
CUS0805700000102264793007         POWELL SR, GREGORY L3615 W LEXINGTON ST                     000N        CARE OF             
MTR08057000001000000000000000RA              26011735    005800570000005700000520000003NN  NNW 000                       N    
RDG08057000WATRL000000004K00000000000002505005712112014105952N000000000000N86       000150400K 10000000010000002501           
CUS0805700000102264794005         LUNA PARK COMPANY   3613 W LEXINGTON ST                     000N        CARE OF             
MTR08057000001000000000000000RA              26011738    005800580000005800000520000003NN  NNW 000                       N    
RDG08057000WATRL000000004K00000000000001791005812112014110054N000000000001N86       000200400K 10000000010000001785           
CUS0805700000102264795002         FENNOY, RAMANO D.   3611 W LEXINGTON ST                     000N        CARE OF             
MTR08057000001000000000000000RA              38887357    005800590000005900000520000003NN  NNW 000                       N    
RDG08057000WATRL000000004K00000000000001769005912112014110139N000400000031N86       000450400K 10000000010000001763           
CUS0805700000102264796000         FEDERAL HOME LOAN MO3609 W LEXINGTON ST                     000N        CARE OF             
MTR08057000001000000000000000RA              38887571    005800600000006000000520000003NN  NNW 000                       N    
RDG08057000WATRL000000004K00000000000002462006012112014110143N000000000010N86       000040400K 10000000010000002451           
CUS0805700000102264797008         HOWARD J BROADWAY   3607 W LEXINGTON ST                     000N        CARE OF             
MTR08057000001000000000000000RA              10022807    005800610000006100000570000003NN  NNW 000                       N    
RDG08057000WATRL000000004K00000000000000000006112112014110150N000000000000N86       000070400K 10000000010000000000           
CUS0805700000102264798006         BESSIE GRIFFIN      3605 W LEXINGTON ST                     000N        CARE OF             
MTR08057000001000000000000000RA              35110202    005800620000006200000520000003NN  NNW 000                       N    
RDG08057000WATRL000000004K00000000000001620006212112014110203N000000000000N86       000130400K 10000000010000001614           
CUS0805700000102264799004         PATRICIA A BELIN    3603 W LEXINGTON ST                     000N        CARE OF             
MTR08057000001000000000000000RA              99189465    005800630000006300000570000003NN  NNW 000                       N    
RDG08057000WATRL000000004K00000000000000617006312112014110215N000000000000N86       000120400K 10000000010000000605           
CUS0805700000102264800000         JAMES A WHIDBY & WF 3601 W LEXINGTON ST                     000N        CARE OF             
MTR08057000001000000000000000RA              45379371    005800640000006400000520000003NN  NNW 000                       N    
RDG08057000WATRL000000004K00000000000001453006412112014110217N000000000000N86       000020400K 10000000010000001445           
CUS0805700000102264801008         VIOLA L MATTHEWS ETA3509 W LEXINGTON ST                     000N        CARE OF             
MTR08057000001000000000000000RA              00139987    005800650000006500000570000003NN  NNW 000                       N    
RDG08057000WATRL000000004K00000000000001180006512112014110305N000000000000N86       000480400K 10000000010000001163           
CUS0805700000102264802006         WATKINS, DEANNA E.  3507 W LEXINGTON ST                     000N        CARE OF             
MTR08057000001000000000000000RA              00139985    005800660000006600000570000003NN  NNW 000                       N    
RDG08057000WATRL000000004K00000000000000893006612112014110306N000000000000N86       000010400K 10000000010000000880           
CUS0805700000102264803004         GOURGOULIATOU, MARIA3505 W LEXINGTON ST                     000N        CARE OF             
MTR08057000001000000000000000RA              10008267    005800670000006700000570000003NN  NNW 000                       N    
RDG08057000WATRL000000004K00000000000000385006712112014110320N000000000000N86       000140400K 10000000010000000363           
CUS0805700000102264804002         THORTON, THIA       3503 W LEXINGTON ST                     000N        CARE OF             
MTR08057000001000000000000000RA              44177698    005800680000006800000520000003NN  NNW 000                       N    
RDG08057000WATRL000000004K00000000000000000006812112014110322S063000000000N86       000020400K 10000000010000000891           
CUS0805700000102264805009         STONECREST INCOME AN3501 W LEXINGTON ST                     000N        CARE OF             
MTR08057000001000000000000000RA              24766220    005800690000006900000520000003NN  NNW 000                       N    
RDG08057000WATRL000000004K00000000000002571006912112014110330N000000000000N86       000080400K 10000000010000002569           
CUS0805700000102264806007         UPSHUR, ALAN        3500 W LEXINGTON ST                     000N        CARE OF             
MTR08057000001000000000000000RA              10015561    005800700000007000000570000003NN  NNW 000                       N    
RDG08057000WATRL000000004K00000000000000261007012112014110345N000000000000N86       000150400K 10000000010000000244           
CUS0805700000102264807005         T R A HOMEBUYERS, LL3502 W LEXINGTON ST                     000N        CARE OF             
MTR08057000001000000000000000RA              10021741    005800710000007100000570000003NN  NNW 000                       N    
RDG08057000WATRL000000004K00000000000000155007112112014110346N000000000000N86       000010400K 10000000010000000146           
CUS0805700000102264808003         AHEBRON LLC         3504 W LEXINGTON ST                     000N        CARE OF             
MTR08057000001000000000000000RA              27816799    005800720000007200000520000003NN  NNW 000                       N    
RDG08057000WATRL000000004K00000000000001607007212112014110403N000400000010N86       000170400K 10000000010000001603           
CUS0805700000102264809001         MOORE, MICHAEL LAURE3506 W LEXINGTON ST                     000N        CARE OF             
MTR08057000001000000000000000RA              27816813    005800730000007300000520000003NN  NNW 000                       N    
RDG08057000WATRL000000004K00000000000001561007312112014110405N000000000000N86       000020400K 10000000010000001544           
CUS0805700000102264810009         ANTONINA C WHITTLE  3508 W LEXINGTON ST                     000N        CARE OF             
MTR08057000001000000000000000RA              46879452    005800740000007400000520000003NN  NNW 000                       N    
RDG08057000WATRL000000004K00000000000000887007412112014110419N000000000000N86       000140400K 10000000010000000876           
CUS0805700000102264811007         NGUYEN, TUNG T      3510 W LEXINGTON ST                     000N        CARE OF             
MTR08057000001000000000000000RA              40323361    005800750000007500000520000003NN  NNW 000                       N    
RDG08057000WATRL000000004K00000000000002024007512112014110420N000000000000N86       000010400K 10000000010000002018           
CUS0805700000102264812005         BOWERS, EDWIN E.    301 N GRANTLEY ST                       000N        CARE OF             
MTR08057000001000000000000000RA              10005583    005800760000007600000570000003NN  NNW 000                       N    
RDG08057000WATRL000000004K00000000000000843007612112014110451N000000000000N86       000310400K 10000000010000000838           
CUS0805700000102264813003         MARY ESTHER BROWN   303 N GRANTLEY ST                       000N        CARE OF             
MTR08057000001000000000000000RA              29682254    005800770000007700000520000003NN  NNW 000                       N    
RDG08057000WATRL000000004K00000000000002572007712112014110452N000000000000N86       000010400K 10000000010000002562           
CUS0805700000102264814001         KEEENE, KEITH       305 N GRANTLEY ST                       000N        CARE OF             
MTR08057000001000000000000000RA              45374777    005800780000007800000520000003NN  NNW 000                       N    
RDG08057000WATRL000000004K00000000000001551007812112014110508N000000000000N86       000160400K 10000000010000001524           
CUS0805700000102264815008         OBIE LEE KING       307 N GRANTLEY ST                       000N        CARE OF             
MTR08057000001000000000000000RA              10019980    005800790000007900000570000003NN  NNW 000                       N    
RDG08057000WATRL000000004K00000000000000162007912112014110511N000000000010N86       000030400K 10000000010000000161           
CUS0805700000102264816006         MEALY, GARNET A     309 N GRANTLEY ST                       000N        CARE OF             
MTR08057000001000000000000000RA              14919419    005800800000008000000310000003NN  NNW 000                       N    
RDG08057000WATRL000000004K00000000000000398008012112014110523N000000000000N86       000120400K 10000000010000000384           
CUS0805700000102264817004         URBAN RENOVATION, LL311 N GRANTLEY ST                       000N        CARE OF             
MTR08057000001000000000000000RA              14919422    005800810000008100000310000003NN  NNW 000                       N    
RDG08057000WATRL000000004K00000000000000228008112112014110526N000400000010N86       000030400K 10000000010000000218           
CUS0805700000102264818002         KING, SHARON, DENISE313 N GRANTLEY ST                       000N        CARE OF             
MTR08057000001000000000000000RA              48583114    005800820000008200000520000003NN  NNW 000                       N    
RDG08057000WATRL000000004K00000000000001276008212112014110537N000000000000N86       000110400K 10000000010000001264           
CUS0805700000102264819000         EZEKA, HYACINTH     315 N GRANTLEY ST                       000N        CARE OF             
MTR08057000001000000000000000RA              30515641    005800830000008300000520000003NN  NNW 000                       N    
RDG08057000WATRL000000004K00000000000002321008312112014110540N000000000000N86       000030400K 10000000010000002311           
CUS0805700000102264820008         SOLOMON TAYLOR      317 N GRANTLEY ST                       000N        CARE OF             
MTR08057000001000000000000000RA              29684474    005800840000008400000520000003NN  NNW 000                       N    
RDG08057000WATRL000000004K00000000000001137008412112014110606N000000000000N86       000260400K 10000000010000001134           
CUS0805700000102264821006         BROOKS, VIRGINIA D  319 N GRANTLEY ST                       000N        CARE OF             
MTR08057000001000000000000000RA              29684396    005800850000008500000520000003NN  NNW 000                       N    
RDG08057000WATRL000000004K00000000000001998008512112014110608N000000000000N86       000020400K 10000000010000001984           
CUS0805700000102264822004         STEPHANIE D EVANS   321 N GRANTLEY ST                       000N        CARE OF             
MTR08057000001000000000000000RA              44177694    005800860000008600000520000003NN  NNW 000                       N    
RDG08057000WATRL000000004K00000000000002869008612112014110621N000000000000N86       000130400K 10000000010000002864           
CUS0805700000102264823002         ELLIS, ANTIONETTE   323 N GRANTLEY ST                       000N        CARE OF             
MTR08057000001000000000000000RA              44177867    005800870000008700000520000003NN  NNW 000                       N    
RDG08057000WATRL000000004K00000000000004038008712112014110623N000000000000N86       000020400K 10000000010000004027           
CUS0805700000102264824000         THE RICHIE ASSOCIATE325 N GRANTLEY ST                       000N        CARE OF             
MTR08057000001000000000000000RA              38985577    005800880000008800000520000003NN  NNW 000                       N    
RDG08057000WATRL000000004K00000000000004677008812112014110635N000000000000N86       000120400K 10000000010000004671           
CUS0805700000102264825007         WATSON, LAKESHA S.  327 N GRANTLEY ST                       000N        CARE OF             
MTR08057000001000000000000000RA              40048985    005800890000008900000520000003NN  NNW 000                       N    
RDG08057000WATRL000000004K00000000000001241008912112014110637N000000000000N86       000020400K 10000000010000001234           
CUS0805700000102264826005         SIMEN PEARSON       329 N GRANTLEY ST                       000N        CARE OF             
MTR08057000001000000000000000RA              45374809    005800900000009000000520000003NN  NNW 000                       N    
RDG08057000WATRL000000004K00000000000001147009012112014110651N000000000000N86       000140400K 10000000010000001139           
CUS0805700000102264827003         ANDERSON, DOROTHY L 331 N GRANTLEY ST                       000N        CARE OF             
MTR08057000001000000000000000RA              14916457    005800910000009100000310000003NN  NNW 000                       N    
RDG08057000WATRL000000004K00000000000000194009112112014110652N000000000000N86       000010400K 10000000010000000185           
CUS0805700000102264828001         BURDETT, DANIEL L.  333 N GRANTLEY ST                       000N        CARE OF             
MTR08057000001000000000000000RA              41087664    005800920000009200000520000003NN  NNW 000                       N    
RDG08057000WATRL000000004K00000000000002051009212112014110705N000000000000N86       000130400K 10000000010000002027           
CUS0805700000102264829009         JONES, LILLY B.     335 N GRANTLEY ST                       000N        CARE OF             
MTR08057000001000000000000000RA              41087881    005800930000009300000520000003NN  NNW 000                       N    
RDG08057000WATRL000000004K00000000000001341009312112014110706N000000000000N86       000010400K 10000000010000001331           
CUS0805700000102264830007         BROWN, MARVIN BENNET337 N GRANTLEY ST                       000N        CARE OF             
MTR08057000001000000000000000RA              44088648    005800940000009400000520000003NN  NNW 000                       N    
RDG08057000WATRL000000004K00000000000000816009412112014110719N000000000000N86       000130400K 10000000010000000808           
CUS0805700000102264831005         JONES, IRMA L       339 N GRANTLEY ST                       000N        CARE OF             
MTR08057000001000000000000000RA              36690515    005800950000009500000520000003NN  NNW 000                       N    
RDG08057000WATRL000000004K00000000000003077009512112014110721N000000000000N86       000020400K 10000000010000003051           
CUS0805700000102264736006         DEPT. OF RECREATION 400 N GRANTLEY ST                       000N        CARE OF             
MTR08057000001000000000000000RA              26100866    001500960000009600000520000003NN  NNW 000                       N    
RDG08057000WATRL000000005K00000000000001484009612112014110808N000000000000N86       000470500K 10000000010000001464           
CUS0805700000102264832003         OLIVET BAPTIST CHURC3529 EDMONDSON AVE                      000N        CARE OF             
MTR08057000001000000000000000RA              14921371    005800970000009700000310000003NN  NNW 000                       N    
RDG08057000WATRL000000004K00000000000000144012212112014112351N000000000000N86       001680400K 10000000010000000143           
CUS0805700000102264833001         WILLIAM PAIGE       3527 EDMONDSON AVE                      000N        CARE OF             
MTR08057000001000000000000000RA              33083784    005800980000009800000520000003NN  NNW 000                       N    
RDG08057000WATRL000000004K00000000000003125012312112014112433N000000000000N86       000420400K 10000000010000003082           
CUS0805700000102264834009         ESPINOZA, HERTA     3525 EDMONDSON AVE                      000N        CARE OF             
MTR08057000001000000000000000RA              50790891    005800990000009900000520000003NN  NNW 000                       N    
RDG08057000WATRL000000004K00000000000001939012412112014112435N000000000000N86       000020400K 10000000010000001920           
CUS0805700000102264835006         GALLOWAY, E. BERNARD3523 EDMONDSON AVE                      000N        CARE OF             
MTR08057000001000000000000000RA              14922775    005801000000010000000310000003NN  NNW 000                       N    
RDG08057000WATRL000000004K00000000000000882012512112014112450N000000000000N86       000150400K 10000000010000000850           
CUS0805700000102264836004         MARGUERITE MCGLOTHLI3521 EDMONDSON AVE                      000N        CARE OF             
MTR08057000001000000000000000RA              10001223    005801010000010100000570000003NN  NNW 000                       N    
RDG08057000WATRL000000004K00000000000000452012612112014112452N000000000000N86       000020400K 10000000010000000441           
CUS0805700000102264837002         SUTTON, BARBARA M   3519 EDMONDSON AVE                      000N        CARE OF             
MTR08057000001000000000000000RA              01091668    005801020000010200000610000003NN  NNW 000                       N    
RDG08057000WATRL000000004K00000000000001234012712112014112507N000000000000N86       000150400K 10000000010000001202           
CUS0805700000102264838000         HATTEN, SHIRLEY M   3517 EDMONDSON AVE                      000N        CARE OF             
MTR08057000001000000000000000RA              01095779    005801030000010300000610000003NN  NNW 000                       N    
RDG08057000WATRL000000004K00000000000001185012812112014112508N000000000000N86       000010400K 10000000010000001154           
CUS0805700000102441875008         DEPT OF RECREATION &3515-1/2 EDMONDSON AVE                  000N        CARE OF             
MTR08057000001000000000000000RA              14921000    001501040000010400000310000003NN  NNW 000                       N    
RDG08057000WATRL000000005K00000000000000065012112112014112103N000000000000N86       000250500K 10000000010000000065           
CUS0805700000102264839008         FEDERAL NATIONAL MOR3515 EDMONDSON AVE                      000N        CARE OF             
MTR08057000001000000000000000RA              14909452    005801050000010500000310000003NN  NNW 000                       N    
RDG08057000WATRL000000004K00000000000000727012912112014112524N000000000000N86       000160400K 10000000010000000727           
CUS0805700000102264840006         BAKER, BRANDY N.    3513 EDMONDSON AVE                      000N        CARE OF             
MTR08057000001000000000000000RA              14922616    005801060000010600000310000003NN  NNW 000                       N    
RDG08057000WATRL000000004K00000000000000361013012112014112525N000000000000N86       000010400K 10000000010000000327           
CUS0805700000102264841004         PRIESTLEY, LEIGHTON 3511 EDMONDSON AVE                      000N        CARE OF             
MTR08057000001000000000000000RA              14922719    005801070000010700000310000003NN  NNW 000                       N    
RDG08057000WATRL000000004K00000000000001103013112112014112556N000000000000N86       000310400K 10000000010000001022           
CUS0805700000102264842002         AKINYOYENU, TITILAYO3509 EDMONDSON AVE                      000N        CARE OF             
MTR08057000001000000000000000RA              14904359    005801080000010800000310000003NN  NNW 000                       N    
RDG08057000WATRL000000004K00000000000001645013212112014112557N000000000000N86       000010400K 10000000010000001620           
CUS0805700000102264843000         GRAHAM, SHEILA DIANE3507 EDMONDSON AVE                      000N        CARE OF             
MTR08057000001000000000000000RA              01110390    005801090000010900000610000003NN  NNW 000                       N    
RDG08057000WATRL000000004K00000000000000987013312112014112614N000000000000N86       000170400K 10000000010000000978           
CUS0805700000102264844008         DAYARAM & ASSOCIATES3505 EDMONDSON AVE                      000N        CARE OF             
MTR08057000001000000000000000RA              01110674    005801100000011000000610000003NN  NNW 000                       N    
RDG08057000WATRL000000004K00000000000000441013412112014112615N000000000000N86       000010400K 10000000010000000435           
CUS0805700000102264845005         MOSENTHAL, LLC      3503 EDMONDSON AVE                      000N        CARE OF             
MTR08057000001000000000000000RA              76344748    005801110000011100000350000003NN  NNW 000                       N    
RDG08057000WATRL000000004K00000000000000067013512112014112624N000000000000N86       000090400K 10000000010000000042           
CUS0805700000102264846003         TRAVELERS REST BIBLE3501 EDMONDSON AVE                      000N        CARE OF             
MTR08057000001000000000000000RA              76347081    005801120000011200000350000003NN  NNW 000                       N    
RDG08057000WATRL000000004K00000000000000054013612112014112648N000300000010N86       000240400K 10000000010000000004           
CUS0805700000102264847001         AYETIGBO, AYODELE   526 EDGEWOOD ST                         000N        CARE OF             
MTR08057000001000000000000000RA              45386949    005801130000011300000520000003NN  NNW 000                       N    
RDG08057000WATRL000000004K00000000000002166009612132014090926N000400000010U86       000110400K 10000000010000002161           
CUS0805700000102264848009         JOCELYN HAYE        524 EDGEWOOD ST                         000N        CARE OF             
MTR08057000001000000000000000RA              45386956    005801140000011400000520000003NN  NNW 000                       N    
RDG08057000WATRL000000004K00000000000002479009512132014090915N000000000000U86       000020400K 10000000010000002479           
CUS0805700000102264849007         LAWRENCE JR, DANNY  522 EDGEWOOD ST                         000N        CARE OF             
MTR08057000001000000000000000RA              40048901    005801150000011500000520000003NN  NNW 000                       N    
RDG08057000WATRL000000004K00000000000003157009412132014090913N000000000000U86       000230400K 10000000010000003148           
CUS0805700000102264850005         COUSER, MABEL       520 EDGEWOOD ST                         000N        CARE OF             
MTR08057000001000000000000000RA              99389221    005801160000011600000570000003NN  NNW 000                       N    
RDG08057000WATRL000000004K00000000000004554009112132014090828N000000000000U86       000020400K 10000000010000004534           
CUS0805700000102264851003         CLARA M WILLIAMS ETA518 EDGEWOOD ST                         000N        CARE OF             
MTR08057000001000000000000000RA              99389224    005801170000011700000570000003NN  NNW 000                       N    
RDG08057000WATRL000000004K00000000000001083009012132014090826N000400000010U86       000260400K 10000000010000001074           
CUS0805700000102264852001         WHITT, VIOLA        516 EDGEWOOD ST                         000N        CARE OF             
MTR08057000001000000000000000RA              01087858    005801180000011800000610000003NN  NNW 000                       N    
RDG08057000WATRL000000004K00000000000001443008712132014090721N000000000000U86       000020400K 10000000010000001425           
CUS0805700000102264853009         U S BANK NATIONAL AS514 EDGEWOOD ST                         000N        CARE OF             
MTR08057000001000000000000000RA              14926946    005801190000011900000310000003NN  NNW 000                       N    
RDG08057000WATRL000000004K00000000000000000008612132014090719S002000000000U86       000290400K 10000000010000000453           
CUS0805700000102264854007         JEFFERSON, DONALD   512 EDGEWOOD ST                         000N        CARE OF             
MTR08057000001000000000000000RA              99187135    005801200000012000000570000003NN  NNW 000                       N    
RDG08057000WATRL000000004K00000000000001311008312132014090624N000000000000U86       000030400K 10000000010000001258           
CUS0805700000102264855004         MARY ANN FITCH      510 EDGEWOOD ST                         000N        CARE OF             
MTR08057000001000000000000000RA              24759086    005801210000012100000520000003NN  NNW 000                       N    
RDG08057000WATRL000000004K00000000000003874008212132014090621N000000000000U86       000200400K 10000000010000003874           
CUS0805700000102264856002         CHARLES A JONES & WF508 EDGEWOOD ST                         000N        CARE OF             
MTR08057000001000000000000000RA              14918677    005801220000012200000310000003NN  NNW 000                       N    
RDG08057000WATRL000000004K00000000000000457007912132014090537N000000000010U86       000080400K 10000000010000000444           
CUS0805700000102264857000         BERNARD AMERNICK    506 EDGEWOOD ST                         000N        CARE OF             
MTR08057000001000000000000000RA              14918682    005801230000012300000310000003NN  NNW 000                       N    
RDG08057000WATRL000000004K00000000000001057007812132014090529N000000000000U86       000210400K 10000000010000001057           
CUS0805700000102264858008         ROY N WRICE         504 EDGEWOOD ST                         000N        CARE OF             
MTR08057000001000000000000000RA              01101183    005801240000012400000610000003NN  NNW 000                       N    
RDG08057000WATRL000000004K00000000000000553007512132014090353N000100000010U86       000030400K 10000000010000000553           
CUS0805700000102264859006         ALLEN-CARTER, DEBBIE502 EDGEWOOD ST                         000N        CARE OF             
MTR08057000001000000000000000RA              01099828    005801250000012500000610000003NN  NNW 000                       N    
RDG08057000WATRL000000004K00000000000001191007412132014090350N000000000000U86       000100400K 10000000010000001191           
CUS0805700000102264860004         LUCAS, VERNAY       500 EDGEWOOD ST                         000N        CARE OF             
MTR08057000001000000000000000RA              23057576    005801260000012600000520000003NN  NNW 000                       N    
RDG08057000WATRL000000004K00000000000008633007312132014090340N000000000011U86       000040400K 10000000010000008633           
CUS0805700000102264862000         AYRSHIRE, LLC       3502 W FRANKLIN ST                      000N        CARE OF             
MTR08057000001000000000000000RA              45374946    005801270000012700000520000003NN  NNW 000                       N    
RDG08057000WATRL000000004K00000000000001530010612112014111605N000300000010N86       001900400K 10000000010000001510           
CUS0805700000102264863008         MILLER MURRAY       3504 W FRANKLIN ST                      000N        CARE OF             
MTR08057000001000000000000000RA              27812156    005801280000012800000520000003NN  NNW 000                       N    
RDG08057000WATRL000000004K00000000000003403010712112014111634N000000000000N86       000290400K 10000000010000003403           
CUS0805700000102264864006         HABC/RH             3506 W FRANKLIN ST                      000N        CARE OF             
MTR08057000001000000000000000RA              27812158    005801290000012900000520000003NN  NNW 000                       N    
RDG08057000WATRL000000004K00000000000007673010812112014111636N000000000000N86       000020400K 10000000010000007646           
CUS0805700000102264865003         MANNING, MICHAEL    3508 W FRANKLIN ST                      000N        CARE OF             
MTR08057000001000000000000000RA              44174678    005801300000013000000520000003NN  NNW 000                       N    
RDG08057000WATRL000000004K00000000000001632010912112014111700N000000000000N86       000240400K 10000000010000001626           
CUS0805700000102264866001         ESTATE OF CARRIE V C3510 W FRANKLIN ST                      000N        CARE OF             
MTR08057000001000000000000000RA              44174776    005801310000013100000520000003NN  NNW 000                       N    
RDG08057000WATRL000000004K00000000000003791011012112014111701N000000000000N86       000010400K 10000000010000003781           
CUS0805700000102264867009         ALLEN, DEBORA A.    3512 W FRANKLIN ST                      000N        CARE OF             
MTR08057000001000000000000000RA              32770965    005801320000013200000520000003NN  NNW 000                       N    
RDG08057000WATRL000000004K00000000000002548011112112014111728N000000000000N86       000270400K 10000000010000002548           
CUS0805700000102264868007         ALLEN, PHILLIP      3514 W FRANKLIN ST                      000N        CARE OF             
MTR08057000001000000000000000RA              32770962    005801330000013300000520000003NN  NNW 000                       N    
RDG08057000WATRL000000004K00000000000002943011212112014111732N000000000000N86       000040400K 10000000010000002943           
CUS0805700000102264869005         WEST, TINNIE C      3515 W FRANKLIN ST                      000N        CARE OF             
MTR08057000001000000000000000RA              45374947    005801340000013400000520000003NN  NNW 000                       N    
RDG08057000WATRL000000004K00000000000002478011312112014111751N000000000000N86       000190400K 10000000010000002466           
CUS0805700000102264870003         WICKS, DELORES MARGA3513 W FRANKLIN ST                      000N        CARE OF             
MTR08057000001000000000000000RA              45374944    005801350000013500000520000003NN  NNW 000                       N    
RDG08057000WATRL000000004K00000000000003227011412112014111753N000000000000N86       000020400K 10000000010000003217           
CUS0805700000102264871001         MARVIN UNDERWOOD    3511 W FRANKLIN ST                      000N        CARE OF             
MTR08057000001000000000000000RA              10004217    005801360000013600000570000000NN  NNW 000                       N    
RDG08057000WATRL000000004K00000000000000409011512112014111847N000000000000N86       000540400K 10000000010000000396           
CUS0805700000102264872009         BELCHESTER PARTNERS 3509 W FRANKLIN ST                      000N        CARE OF             
MTR08057000001000000000000000RA              01088043    005801370000013700000610000003NN  NNW 000                       N    
RDG08057000WATRL000000004K00000000000003498011812112014111959N000300000020N86       000320400K 10000000010000003487           
CUS0805700000102264873007         RICE, REBECCA       3507 W FRANKLIN ST                      000N        CARE OF             
MTR08057000001000000000000000RA              01080751    005801380000013800000610000003NN  NNW 000                       N    
RDG08057000WATRL000000004K00000000000001054011612112014111923N000000000000N86       000360400K 10000000010000001054           
CUS0805700000102264874005         HOLMES, LILLIE V    3505 W FRANKLIN ST                      000N        CARE OF             
MTR08057000001000000000000000RA              01080750    005801390000013900000610000003NN  NNW 000                       N    
RDG08057000WATRL000000004K00000000000001400011712112014111927N000000000000N86       000040400K 10000000010000001377           
CUS0805700000102264875002         PORTILLO, ROMEO A   3503 W FRANKLIN ST                      000N        CARE OF             
MTR08057000001000000000000000RA              45387157    005801400000014000000520000003NN  NNW 000   VACANT PROPERTY     N    
RDG08057000WATRL000000004K00000000000002277011912112014112037N000000000010N86       000380400K 10000000010000002264           
CUS0805700000102264876000         RULOFF, ALAN        3501 W FRANKLIN ST                      000N        CARE OF             
MTR08057000001000000000000000RA              01114043    005801410000014100000610000003NN  NNW 000                       N    
RDG08057000WATRL000000004K00000000000002070012012112014112038N000000000000N86       000010400K 10000000010000002041           
CUS0805700000102264877008         JOHNSON, LA KEISHA C424 EDGEWOOD ST                         000N        CARE OF             
MTR08057000001000000000000000RA              99390065    005801420000014200000570000003NN  NNW 000                       N    
RDG08057000WATRL000000004K00000000000000764005312132014085851N000000000000U86       000020400K 10000000010000000755           
CUS0805700000102264878006         ASEIN, CLEMENTINA   422 EDGEWOOD ST                         000N        CARE OF             
MTR08057000001000000000000000RA              99288417    005801430000014300000570000003NN  NNW 000                       N    
RDG08057000WATRL000000004K00000000000001348005212132014085849N000100000010U86       000290400K 10000000010000001348           
CUS0805700000102264879004         BURKETT, FLORENCE   420 EDGEWOOD ST                         000N        CARE OF             
MTR08057000001000000000000000RA              10001808    005801440000014400000570000003NN  NNW 000                       N    
RDG08057000WATRL000000004K00000000000000669004912132014085759N000000000000U86       000030400K 10000000010000000651           
CUS0805700000102264880002         HARRIS, ANGELA      418 EDGEWOOD ST                         000N        CARE OF             
MTR08057000001000000000000000RA              99389965    005801450000014500000570000003NN  NNW 000                       N    
RDG08057000WATRL000000004K00000000000001828004812132014085756N000000000000U86       000240400K 10000000010000001811           
CUS0805700000102264881000         JENKINS, LENA R     416 EDGEWOOD ST                         000N        CARE OF             
MTR08057000001000000000000000RA              99389967    005801460000014600000570000000NN  NNW 000                       N    
RDG08057000WATRL000000004K00000000000001663004512132014085712N000000000000U86       000020400K 10000000010000001615           
CUS0805700000102264882008         BERTHA DINGEL BUTTS 414 EDGEWOOD ST                         000N        CARE OF             
MTR08057000001000000000000000RA              99389966    005801470000014700000570000003NN  NNW 000                       N    
RDG08057000WATRL000000004K00000000000000307004412132014085710N000000000000U86       000240400K 10000000010000000302           
CUS0805700000102264883006         EMERUWA, IKENNA     412 EDGEWOOD ST                         000N        CARE OF             
MTR08057000001000000000000000RA              41082805    005801480000014800000520000003NN  NNW 000                       N    
RDG08057000WATRL000000004K00000000000002807004112132014085627N000000000000U86       000020400K 10000000010000002792           
CUS0805700000102264884004         SCH REAL ESTATE HOLD410 EDGEWOOD ST                         000N        CARE OF             
MTR08057000001000000000000000RA              10005417    005801490000014900000570000003NN  NNW 000                       N    
RDG08057000WATRL000000004K00000000000000369004012132014085625N000000000000U86       000330400K 10000000010000000352           
CUS0805700000102264885001         TORBIT, WILLIE B    408 EDGEWOOD ST                         000N        CARE OF             
MTR08057000001000000000000000RA              33735394    005801500000015000000520000003NN  NNW 000                       N    
RDG08057000WATRL000000004K00000000000001862003912132014085552N000000000000U86       000040400K 10000000010000001859           
CUS0805700000102264886009         LEGRANDE, DONNETTA  406 EDGEWOOD ST                         000N        CARE OF             
MTR08057000001000000000000000RA              33082659    005801510000015100000520000003NN  NNW 000                       N    
RDG08057000WATRL000000004K00000000000002299003812132014085548N000000000000U86       000180400K 10000000010000002292           
CUS0805700000102264887007         ASSEST PRESERVATION 404 EDGEWOOD ST                         000N        CARE OF             
MTR08057000001000000000000000RA              46885641    005801520000015200000520000003NN  NNW 000                       N    
RDG08057000WATRL000000004K00000000000005240003312132014085438N000000000000U86       000050400K 10000000010000005240           
CUS0805700000102264888005         AMERNICK, BERNARD A 402 EDGEWOOD ST                         000N        CARE OF             
MTR08057000001000000000000000RA              30527687    005801530000015300000520000003NN  NNW 000                       N    
RDG08057000WATRL000000004K00000000000003742003212132014085433N000000000000U86       000140400K 10000000010000003742           
CUS0805700000102264889003         DAVIS, MONICA       400 EDGEWOOD ST                         000N        CARE OF             
MTR08057000001000000000000000RA              14930107    005801540000015400000310000003NN  NNW 000                       N    
RDG08057000WATRL000000004K00000000000000294003112132014085419N000000000000U86       000170400K 10000000010000000294           
CUS0805700000102264890001         VAULINE T. MALLOY   3517 W MULBERRY ST                      000N        CARE OF             
MTR08057000001000000000000000RA              30513871    005801550000015500000520000003NN  NNW 000                       N    
RDG08057000WATRL000000004K00000000000002503010512112014111255N000000000000N86       000030400K 10000000010000002493           
CUS0805700000102264891009         MORANO, SHIRLEY     3515 W MULBERRY ST                      000N        CARE OF             
MTR08057000001000000000000000RA              30513871    005801560000015600000520000003NN  NNW 000                       N    
RDG08057000WATRL000000004K00000000000001733010412112014111252N000000000000N86       000260400K 10000000010000001726           
CUS0805700000102264892007         CADEROCK ENTERPRISES3513 W MULBERRY ST                      000N        CARE OF             
MTR08057000001000000000000000RA              75422818    005801570000015700000350000003NN  NNW 000                       N    
RDG08057000WATRL000000004K00000000000000027010312112014111226N000000000010N86       000210400K 10000000010000000025           
CUS0805700000102264893005         SHAREEF, NAJLA      3511 W MULBERRY ST                      000N        CARE OF             
MTR08057000001000000000000000RA              44172026    005801580000015800000520000003NY  NNW 000                       N    
MTM0805700044172026    C\O VAULT                                                                                              
RDG08057000WATRL000000004K00000000000000661010212112014111205N000000000000N86       000430400K 10000000010000000661           
CUS0805700000102264894003         MALLOY, ROBERT T    3509 W MULBERRY ST                      000N        CARE OF             
MTR08057000001000000000000000RA              30518773    005801590000015900000520000003NN  NNW 000                       N    
RDG08057000WATRL000000004K00000000000000745010112112014111122N000000000000N86       000030400K 10000000010000000741           
CUS0805700000102264895000         TEE REE REALTY, LLC 3507 W MULBERRY ST                      000N        CARE OF             
MTR08057000001000000000000000RA              30518770    005801600000016000000520000003NN  NNW 000                       N    
RDG08057000WATRL000000004K00000000000002927010012112014111119N000400000010N86       000380400K 10000000010000002916           
CUS0805700000102264896008         SMITH, VIVIAN I.    3505 W MULBERRY ST                      000N        CARE OF             
MTR08057000001000000000000000RA              27831294    005801610000016100000520000003NN  NNW 000   VACANT PROPERTY     N    
RDG08057000WATRL000000004K00000000000001851009912112014111041N000000000000N86       000070400K 10000000010000001851           
CUS0805700000102264897006         HAIRSTON JR, A/K HAI3503 W MULBERRY ST                      000N        CARE OF             
MTR08057000001000000000000000RA              27831296    005801620000016200000520000003NN  NNW 000                       N    
RDG08057000WATRL000000004K00000000000002580009812112014111034N000000000000N86       000150400K 10000000010000002567           
CUS0805700000102264898004         LEATHERS, TIMOTHY C 3501 W MULBERRY ST                      000N        CARE OF             
MTR08057000001000000000000000RA              24221948    005801630000016300000520000003NN  NNW 000                       N    
RDG08057000WATRL000000004K00000000000001135009712112014111019N000000000000N86       001310400K 10000000010000001116           
CUS0805700000102264899002         WHITEHEAD, SARAH L. 320 EDGEWOOD ST                         000N        CARE OF             
MTR08057000001000000000000000RA              10023062    005801640000016400000570000003NN  NNW 000                       N    
RDG08057000WATRL000000004K00000000000000108000112132014084617N000000000000U86       000000400K 10000000010000000096           
CUS0805700000102264900008         JACKSON, ERNEST H   318 EDGEWOOD ST                         000N        CARE OF             
MTR08057000001000000000000000RA              24758470    005801650000016500000520000003NN  NNW 000                       N    
RDG08057000WATRL000000004K00000000000001987000212132014084618N000000000000U86       000010400K 10000000010000001978           
CUS0805700000102264901006         GAYLES, SHEILA A.   316 EDGEWOOD ST                         000N        CARE OF             
MTR08057000001000000000000000RA              26016089    005801660000016600000520000003NN  NNW 000                       N    
RDG08057000WATRL000000004K00000000000001543000312132014084640N000000000000U86       000220400K 10000000010000001538           
CUS0805700000102264902004         PATRICIA E GILLIAM  314 EDGEWOOD ST                         000N        CARE OF             
MTR08057000001000000000000000RA              23057612    005801670000016700000520000003NN  NNW 000                       N    
RDG08057000WATRL000000004K00000000000002439000412132014084642N000000000000U86       000020400K 10000000010000002436           
CUS0805700000102264903002         DAVIS, WILLIAM      312 EDGEWOOD ST                         000N        CARE OF             
MTR08057000001000000000000000RA              01099625    005801680000016800000610000003NN  NNW 000                       N    
RDG08057000WATRL000000004K00000000000000567000512132014084653N000000000000U86       000110400K 10000000010000000549           
CUS0805700000102264904000         FEDERAL NATIONAL MOR310 EDGEWOOD ST                         000N        CARE OF             
MTR08057000001000000000000000RA              01099631    005801690000016900000610000003NN  NNW 000                       N    
RDG08057000WATRL000000004K00000000000001446000612132014084655N000000000000U86       000020400K 10000000010000001446           
CUS0805700000102264905007         TAYLOR, LOIS D.     308 EDGEWOOD ST                         000N        CARE OF             
MTR08057000001000000000000000RA              99288013    005801700000017000000570000003NN  NNW 000                       N    
RDG08057000WATRL000000004K00000000000001716000712132014084709N000000000000U86       000140400K 10000000010000001689           
CUS0805700000102264906005         WILBERT WARD        306 EDGEWOOD ST                         000N        CARE OF             
MTR08057000001000000000000000RA              01082165    005801710000017100000610000003NN  NNW 000                       N    
RDG08057000WATRL000000004K00000000000001287000812132014084710N000000000000U86       000010400K 10000000010000001262           
CUS0805700000102264907003         RISE COLLINS        304 EDGEWOOD ST                         000N        CARE OF             
MTR08057000001000000000000000RA              99289356    005801720000017200000570000003NN  NNW 000                       N    
RDG08057000WATRL000000004K00000000000000278000912132014084751N000000000000U86       000410400K 10000000010000000275           
CUS0805700000102264908001         NORWOOD WHITAKER JR.302 EDGEWOOD ST                         000N        CARE OF             
MTR08057000001000000000000000RA              99289354    005801730000017300000570000003NN  NNW 000                       N    
RDG08057000WATRL000000004K00000000000000944001012132014084803N000000000000U86       000120400K 10000000010000000937           
CUS0805700000102264909009         POINTER, MARY L     300 EDGEWOOD ST                         000N        CARE OF             
MTR08057000001000000000000000RA              33732989    005801740000017400000520000003NN  NNW 000                       N    
RDG08057000WATRL000000004K00000000000003281001112132014084833N000000000000U86       000300400K 10000000010000003263           
CUS0805700000102264910007         JACKSON, ANTOINE    301 EDGEWOOD ST                         000N        CARE OF             
MTR08057000001000000000000000RA              99389959    005801750000017500000570000003NN  NNW 000                       N    
RDG08057000WATRL000000004K00000000000000659001212132014084910N000000000000U86       000370400K 10000000010000000653           
CUS0805700000102264911005         EDMONDS, ROBINITA M.303 EDGEWOOD ST                         000N        CARE OF             
MTR08057000001000000000000000RA              24758403    005801760000017600000520000003NN  NNW 000                       N    
RDG08057000WATRL000000004K00000000000002658001312132014084942N000000000000U86       000320400K 10000000010000002643           
CUS0805700000102264912003         REGINA D WAGSTAFF   305 EDGEWOOD ST                         000N        CARE OF             
MTR08057000001000000000000000RA              99187682    005801770000017700000570000003NN  NNW 000                       N    
RDG08057000WATRL000000004K00000000000001555001412132014084944N000000000000U86       000020400K 10000000010000001533           
CUS0805700000102264913001         ISABELLE C MARTIN   307 EDGEWOOD ST                         000N        CARE OF             
MTR08057000001000000000000000RA              10005591    005801780000017800000570000003NN  NNW 000                       N    
RDG08057000WATRL000000004K00000000000000052001512132014084957N000000000000U86       000130400K 10000000010000000052           
CUS0805700000102264914009         HOLLEY, GARIAN D.   309 EDGEWOOD ST                         000N        CARE OF             
MTR08057000001000000000000000RA              10016363    005801790000017900000570000003NN  NNW 000                       N    
RDG08057000WATRL000000004K00000000000000090001612132014084958N000000000000U86       000010400K 10000000010000000082           
CUS0805700000102264915006         HUDSON JR., WILLIAM 311 EDGEWOOD ST                         000N        CARE OF             
MTR08057000001000000000000000RA              14927584    005801800000018000000310000003NN  NNW 000                       N    
RDG08057000WATRL000000004K00000000000000418001712132014085021N000000000000U86       000230400K 10000000010000000399           
CUS0805700000102264916004         ELLA M WILKINS      313 EDGEWOOD ST                         000N        CARE OF             
MTR08057000001000000000000000RA              32574089    005801810000018100000520000003NN  NNW 000                       N    
RDG08057000WATRL000000004K00000000000002349001812132014085023N000000000000U86       000020400K 10000000010000002334           
CUS0805700000102264917002         EDNA DUKES          315 EDGEWOOD ST                         000N        CARE OF             
MTR08057000001000000000000000RA              46877998    005801820000018200000520000003NY  NNW 000                       N    
MTM0805700046877998    C\O VAULT                                                                                              
RDG08057000WATRL000000004K00000000000001330001912132014085101N000000000000U86       000380400K 10000000010000001321           
CUS0805700000102264918000         JONES, GERALDINE    317 EDGEWOOD ST                         000N        CARE OF             
MTR08057000001000000000000000RA              14914465    005801830000018300000310000003NY  NNW 000                       N    
MTM0805700014914465    C\O VAULT                                                                                              
RDG08057000WATRL000000004K00000000000000219002012132014085127N000000000000U86       000260400K 10000000010000000214           
CUS0805700000102264919008         TILGHMAN JR., CHARLE319 EDGEWOOD ST                         000N        CARE OF             
MTR08057000001000000000000000RA              46878169    005801840000018400000520000003NY  NNW 000                       N    
MTM0805700046878169    C\O VAULT                                                                                              
RDG08057000WATRL000000004K00000000000001155002112132014085157N000000000010U86       000300400K 10000000010000001139           
CUS0805700000102264920006         JACKSON, BOBBY      321 EDGEWOOD ST                         000N        CARE OF             
MTR08057000001000000000000000RA              01078319    005801850000018500000610000003NN  NNW 000                       N    
RDG08057000WATRL000000004K00000000000000496002212132014085158N000000000000U86       000010400K 10000000010000000482           
CUS0805700000102264921004         DOWNING, ROSLYN MOON323 EDGEWOOD ST                         000N        CARE OF             
MTR08057000001000000000000000RA              14905771    005801860000018600000310000003NN  NNW 000                       N    
RDG08057000WATRL000000004K00000000000000268002312132014085229N000000000000U86       000310400K 10000000010000000257           
CUS0805700000102264922002         MC CLAINE, ANTONIO  325 EDGEWOOD ST                         000N        CARE OF             
MTR08057000001000000000000000RA              32574078    005801870000018700000520000003NN  NNW 000                       N    
RDG08057000WATRL000000004K00000000000001788002412132014085230N000000000000U86       000010400K 10000000010000001778           
CUS0805700000102264923000         SMITH, DAWN L       327 EDGEWOOD ST                         000N        CARE OF             
MTR08057000001000000000000000RA              26002856    005801880000018800000520000003NN  NNW 000                       N    
RDG08057000WATRL000000004K00000000000003644002512132014085258N000000000000U86       000280400K 10000000010000003631           
CUS0805700000102264924008         BROOKS, ERIC A      329 EDGEWOOD ST                         000N        CARE OF             
MTR08057000001000000000000000RA              26002853    005801890000018900000520000003NN  NNW 000                       N    
RDG08057000WATRL000000004K00000000000002304002612132014085302N000000000000U86       000040400K 10000000010000002294           
CUS0805700000102264925005         WITHERSPOON SR., JER331 EDGEWOOD ST                         000N        CARE OF             
MTR08057000001000000000000000RA              29684398    005801900000019000000520000003NN  NNW 000                       N    
RDG08057000WATRL000000004K00000000000004593002712132014085325N000000000000U86       000230400K 10000000010000004576           
CUS0805700000102264926003         CLARK, CRYSTAL D.   333 EDGEWOOD ST                         000N        CARE OF             
MTR08057000001000000000000000RA              29684399    005801910000019100000520000003NN  NNW 000                       N    
RDG08057000WATRL000000004K00000000000004113002812132014085327N000000000000U86       000020400K 10000000010000004087           
CUS0805700000102264927001         RICHARDSON, ALVEDA  401 EDGEWOOD ST                         000N        CARE OF             
MTR08057000001000000000000000RA              99389969    005801920000019200000570000003NN  NNW 000   VACANT PROPERTY     N    
RDG08057000WATRL000000004K00000000000000000002912132014085359S002000000000U86       000320400K 10000000010000000001           
CUS0805700000102264928009         NOEL, RAYNETTE      403 EDGEWOOD ST                         000N        CARE OF             
MTR08057000001000000000000000RA              99390105    005801930000019300000570000003NN  NNW 000                       N    
RDG08057000WATRL000000004K00000000000001139003012132014085402N000000000010U86       000030400K 10000000010000001116           
CUS0805700000102264929007         SLAM, LLC           405 EDGEWOOD ST                         000N        CARE OF             
MTR08057000001000000000000000RA              10009622    005801940000019400000570000003NN  NNW 000                       N    
RDG08057000WATRL000000004K00000000000001092003412132014085509N000000000000U86       000310400K 10000000010000001015           
CUS0805700000102264930005         STROMAN, ERIC       407 EDGEWOOD ST                         000N        CARE OF             
MTR08057000001000000000000000RA              14928111    007501950000019500000310000003NN  NNW 000                       N    
RDG08057000WATRL000000004K00000000000000704003512132014085511N000000000000U86       000020400K 10000000010000000690           
CUS0805700000102264931003         FRANKIE JOSEPH      409 EDGEWOOD ST                         000N        CARE OF             
MTR08057000001000000000000000RA              45374779    005801960000019600000520000003NN  NNW 000                       N    
RDG08057000WATRL000000004K00000000000002047003612132014085528N000000000000U86       000170400K 10000000010000002026           
CUS0805700000102264932001         PETERS, JAMES ROBERT411 EDGEWOOD ST                         000N        CARE OF             
MTR08057000001000000000000000RA              45374808    005801970000019700000520000003NN  NNW 000                       N    
RDG08057000WATRL000000004K00000000000001535003712132014085530N000000000000U86       000020400K 10000000010000001520           
CUS0805700000102264933009         JONES, NANCY R.     413 EDGEWOOD ST                         000N        CARE OF             
MTR08057000001000000000000000RA              01081089    005801980000019800000610000003NN  NNW 000                       N    
RDG08057000WATRL000000004K00000000000002284004212132014085645N000000000000U86       000180400K 10000000010000002253           
CUS0805700000102264934007         K. MILLER PROPERTIES415 EDGEWOOD ST                         000N        CARE OF             
MTR08057000001000000000000000RA              01081087    005801990000019900000610000003NN  NNW 000                       N    
RDG08057000WATRL000000004K00000000000000699004312132014085646N000000000000U86       000010400K 10000000010000000666           
CUS0805700000102264935004         CAMP, WINDELL       417 EDGEWOOD ST                         000N        CARE OF             
MTR08057000001000000000000000RA              24231247    005802000000020000000520000003NN  NNW 000                       N    
RDG08057000WATRL000000004K00000000000003699004612132014085731N000000000000U86       000190400K 10000000010000003681           
CUS0805700000102264936002         FDK HOMES, LLC      419 EDGEWOOD ST                         000N        CARE OF             
MTR08057000001000000000000000RA              10018033    005802010000020100000570000003NN  NNW 000                       N    
RDG08057000WATRL000000004K00000000000000222004712132014085732N000000000000U86       000010400K 10000000010000000210           
CUS0805700000102264937000         ABRAMOWITZ, PHILLIP 421 EDGEWOOD ST                         000N        CARE OF             
MTR08057000001000000000000000RA              99390150    005802020000020200000570000003NN  NNW 000                       N    
RDG08057000WATRL000000004K00000000000001427005012132014085817N000000000000U86       000180400K 10000000010000001408           
CUS0805700000102264938008         ROBERT ARTIS        423 EDGEWOOD ST                         000N        CARE OF             
MTR08057000001000000000000000RA              99390149    005802030000020300000570000003NN  NNW 000                       N    
RDG08057000WATRL000000004K00000000000000995005112132014085820N000000000000U86       000030400K 10000000010000000984           
CUS0805700000102264939006         EDWARD, JOHN R      425 EDGEWOOD ST                         000N        CARE OF             
MTR08057000001000000000000000RA              52771277    007502040000020400000520000003NN  NNW 000                       N    
RDG08057000WATRL000000004K00000000000002860005412132014085918N000000000000U86       000270400K 10000000010000002410           
CUS0805700000102264940004         SLAM, LLC           501 EDGEWOOD ST                         000N        CARE OF             
MTR08057000001000000000000000RA              75424065    005802050000020500000350000003NN  NNW 000                       N    
RDG08057000WATRL000000004K00000000000000362007112132014090301N000300000010U86       000440400K 10000000010000000273           
CUS0805700000102264941002         BANKS, JACQUELINE   503 EDGEWOOD ST                         000N        CARE OF             
MTR08057000001000000000000000RA              45374945    005802060000020600000520000003NN  NNW 000                       N    
RDG08057000WATRL000000004K00000000000001490007212132014090302N000000000000U86       000010400K 10000000010000001484           
CUS0805700000102264942000         SCUDERI, FRANCIS    505 EDGEWOOD ST                         000N        CARE OF             
MTR08057000001000000000000000RA              27823942    005802070000020700000520000003NY  NNW 000                       N    
MTM0805700027823942    C\O VAULT                                                                                              
RDG08057000WATRL000000004K00000000000006189007612132014090445N000000000000U86       000520400K 10000000010000006162           
CUS0805700000102264943008         BURGESS, PATRICIA   507 EDGEWOOD ST                         000N        CARE OF             
MTR08057000001000000000000000RA              45377404    005802080000020800000520000003NN  NNW 000                       N    
RDG08057000WATRL000000004K00000000000001790007712132014090508N000000000000U86       000230400K 10000000010000001784           
CUS0805700000102264944006         HALL RICHARD P      509 EDGEWOOD ST                         000N        CARE OF             
MTR08057000001000000000000000RA              01106793    005802090000020900000610000003NN  NNW 000                       N    
RDG08057000WATRL000000004K00000000000000943008012132014090557N000000000000U86       000200400K 10000000010000000943           
CUS0805700000102264945003         HALL, ROBERTA       511 EDGEWOOD ST                         000N        CARE OF             
MTR08057000001000000000000000RA              01114359    005802100000021000000610000003NN  NNW 000                       N    
RDG08057000WATRL000000004K00000000000005849008112132014090601N000000000000U86       000040400K 10000000010000005792           
CUS0805700000102264946001         BLANCHE IRENE WICKS 513 EDGEWOOD ST                         000N        CARE OF             
MTR08057000001000000000000000RA              01093789    005802110000021100000610000003NN  NNW 000                       N    
RDG08057000WATRL000000004K00000000000001250008412132014090649N000000000000U86       000250400K 10000000010000001250           
CUS0805700000102264947009         WALKER, KENNETH     515 EDGEWOOD ST                         000N        CARE OF             
MTR08057000001000000000000000RA              01087852    005802120000021200000610000003NN  NNW 000                       N    
RDG08057000WATRL000000004K00000000000000964008512132014090650N000000000000U86       000010400K 10000000010000000927           
CUS0805700000102264948007         JONES ETAL, CYNTHIA 517 EDGEWOOD ST                         000N        CARE OF             
MTR08057000001000000000000000RA              01093470    005802130000021300000610000003NN  NNW 000                       N    
RDG08057000WATRL000000004K00000000000000607008812132014090759N000000000000U86       000380400K 10000000010000000584           
CUS0805700000102264949005         FRANCU PENSION, LLC 519 EDGEWOOD ST                         000N        CARE OF             
MTR08057000001000000000000000RA              01093477    005802140000021400000610000003NN  NNW 000                       N    
RDG08057000WATRL000000004K00000000000002167008912132014090800N000000000000U86       000010400K 10000000010000002143           
CUS0805700000102264950003         WYNNEMONT ASSOCIATES521 EDGEWOOD ST                         000N        CARE OF             
MTR08057000001000000000000000RA              35119988    005802150000021500000520000003NN  NNW 000                       N    
RDG08057000WATRL000000004K00000000000000991009212132014090847N000000000000U86       000190400K 10000000010000000964           
CUS0805700000102264951001         BRIGGS, KARLEEN MARI523 EDGEWOOD ST                         000N        CARE OF             
MTR08057000001000000000000000RA              46884601    005802160000021600000520000003NN  NNW 000                       N    
RDG08057000WATRL000000004K00000000000002043009312132014090850N000400000010U86       000030400K 10000000010000002033           
CUS0805700000102264952009         DAYARAM & SONS II, L525 EDGEWOOD ST                         000N        CARE OF             
MTR08057000001000000000000000RA              01101174    005802170000021700000610000003NN  NNW 000                       N    
RDG08057000WATRL000000004K00000000000000429009712132014090946N000000000000U86       000200400K 10000000010000000407           
CUS0805700000102264953007         KEITH A SHOATS      527 EDGEWOOD ST                         000N        CARE OF             
MTR08057000001000000000000000RA              01101178    005802180000021800000610000003NN  NNW 000                       N    
RDG08057000WATRL000000004K00000000000001241009812132014090947N000000000000U86       000010400K 10000000010000001218           
CUS0805700000102264563004         GODFREY, LINDA C    3443 EDMONDSON AVE                      000N        CARE OF             
MTR08057000001000000000000000RA              99390104    005802190000021900000570000003NN  NNW 000                       N    
RDG08057000WATRL000000004K00000000000000901009912132014091037N000000000000U86       000500400K 10000000010000000896           
CUS0805700000102264564002         COFIELD, SPENCER    3441 EDMONDSON AVE                      000N        CARE OF             
MTR08057000001000000000000000RA              99390103    005802200000022000000570000003NN  NNW 000                       N    
RDG08057000WATRL000000004K00000000000000471010012132014091039N000000000000U86       000020400K 10000000010000000458           
CUS0805700000102264565009         GREEN, ELSIE        3439 EDMONDSON AVE                      000N        CARE OF             
MTR08057000001000000000000000RA              54348141    005802210000022100000520000003NN  NNW 000                       N    
RDG08057000WATRL000000004K00000000000001101010112132014091059N000400000010U86       000200400K 10000000010000001095           
CUS0805700000102264566007         BEE RENTALS, LLC    3437 EDMONDSON AVE                      000N        CARE OF             
MTR08057000001000000000000000RA              14921305    005802220000022200000310000003NN  NNW 000                       N    
RDG08057000WATRL000000004K00000000000000128010212132014091100N000000000000U86       000010400K 10000000010000000124           
CUS0805700000102264567005         DENNISON, SIERRA    3435 EDMONDSON AVE                      000N        CARE OF             
MTR08057000001000000000000000RA              44178758    005802230000022300000520000003NN  NNW 000                       N    
RDG08057000WATRL000000004K00000000000001285010312132014091117N000000000000U86       000170400K 10000000010000001281           
CUS0805700000102264568003         AAA HANDY JOHNS, INC3433 EDMONDSON AVE                      000N        CARE OF             
MTR08057000001000000000000000RA              99388770    005802240000022400000570000003NN  NNW 000   VACANT PROPERTY     N    
RDG08057000WATRL000000004K00000000000000281010412132014091119N000000000000U86       000020400K 10000000010000000281           
CUS0805700000102264569001         HENSON INC.         3431 EDMONDSON AVE                      000N        CARE OF             
MTR08057000001000000000000000RA              76347628    005802250000022500000350000003NN  NNW 000                       N    
RDG08057000WATRL000000004K00000000000000017010512132014091140N000000000000U86       000210400K 10000000010000000010           
CUS0805700000102264570009         SAMUELS, RODNEY D.  3429 EDMONDSON AVE                      000N        CARE OF             
MTR08057000001000000000000000RA              14916183    005802260000022600000310000003NN  NNW 000                       N    
RDG08057000WATRL000000004K00000000000001804010612132014091142N000000000000U86       000020400K 10000000010000001770           
CUS0805700000102264571007         SAMUEL AND NIGHISTY,3427 EDMONDSON AVE                      000N        CARE OF             
MTR08057000001000000000000000RA              01109411    005802270000022700000610000003NN  NNW 000                       N    
RDG08057000WATRL000000004K00000000000001543010712132014091202N000000000000U86       000200400K 10000000010000001531           
CUS0805700000102264572005         BLEDSOE, WILLIAM    3425 EDMONDSON AVE                      000N        CARE OF             
MTR08057000001000000000000000RA              99287522    005802280000022800000570000003NN  NNW 000                       N    
RDG08057000WATRL000000004K00000000000001364010812132014091203N000000000000U86       000010400K 10000000010000001338           
CUS0805700000102264573003         CITY HOMES INC      3423 EDMONDSON AVE                      000N        CARE OF             
MTR08057000001000000000000000RA              10004911    005802290000022900000570000003NN  NNW 000                       N    
RDG08057000WATRL000000004K00000000000000821010912132014091312N000000000000U86       000690400K 10000000010000000776           
CUS0805700000102264574001         E LINE PROPERTY MANA3421 EDMONDSON AVE                      000N        CARE OF             
MTR08057000001000000000000000RA              10004799    005802300000023000000570000003NN  NNW 000                       N    
RDG08057000WATRL000000004K00000000000000566011012132014091314N000000000000U86       000020400K 10000000010000000536           
CUS0805700000102264575008         TALAVERA, MARIA M ME3419 EDMONDSON AVE                      000N        CARE OF             
MTR08057000001000000000000000RA              76344746    005802310000023100000350000003NN  NNW 000                       N    
RDG08057000WATRL000000004K00000000000000000011112132014091359N000000000000U86       000450400K 10000000010000000000           
CUS0805700000102264576006         HUNTER JR, JAMES E  3417 EDMONDSON AVE                      000N        CARE OF             
MTR08057000001000000000000000RA              01095386    005802320000023200000610000003NN  NNW 000                       N    
RDG08057000WATRL000000004K00000000000000653011212132014091400N000000000000U86       000010400K 10000000010000000644           
CUS0805700000102264577004         COTTOY, RAYMOND     3415 EDMONDSON AVE                      000N        CARE OF             
MTR08057000001000000000000000RA              76349125    005802330000023300000350000003NN  NNW 000                       N    
RDG08057000WATRL000000004K00000000000000008011312132014091424N000000000000U86       000240400K 10000000010000000005           
CUS0805700000102264578002         3413 EDMONDSON, INC 3413 EDMONDSON AVE                      000N        CARE OF             
MTR08057000001000000000000000RA              01081959    005802340000023400000610000003NN  NNW 000                       N    
RDG08057000WATRL000000004K00000000000001383011412132014091426N000000000000U86       000020400K 10000000010000001372           
CUS0805700000102264579000         UTOPIA GROUP OF COMP3411 EDMONDSON AVE                      000N        CARE OF             
MTR08057000001000000000000000RA              76348385    005802350000023500000350000003NN  NNW 000                       N    
RDG08057000WATRL000000004K00000000000000054011512132014091450N000100000010U86       000240400K 10000000010000000054           
CUS0805700000102264580008         SARAH L ROGERS      3409 EDMONDSON AVE                      000N        CARE OF             
MTR08057000001000000000000000RA              99390106    005802360000023600000570000003NN  NNW 000                       N    
RDG08057000WATRL000000004K00000000000000841011612132014091452N000000000000U86       000020400K 10000000010000000834           
CUS0805700000102264581006         CASTRO, JOAQUIN     3407 EDMONDSON AVE                      000N        CARE OF             
MTR08057000001000000000000000RA              01076149    005802370000023700000610000003NN  NNW 000                       N    
RDG08057000WATRL000000004K00000000000001606011712132014091504N000000000000U86       000120400K 10000000010000001606           
CUS0805700000102264582004         ZAIDI & ZAIDI, LLC  3403-05 EDMONDSON AVE                   000N        CARE OF             
MTR08057000001000000000000000RA              24624943    007502380000023800000520000003NN  NNW 000   VACANT PROPERTY     N    
RDG08057000WATRL000000004K00000000000000060011812132014091521N000000000010U86       000170400K 10000000010000000002           
CUS0805700000102264583002         LEE, JUNG HO        3401 EDMONDSON AVE                      000N        CARE OF             
MTR08057000001000000000000000RA              10005407    005802390000023900000570000003NN  NNW 000                       N    
RDG08057000WATRL000000004K00000000000000000011912132014091535S002000000000U86       000140400K 10000000010000000046           
CUS0805700000102264584000         LU, CHENHONG        520 DENISON ST                          000N        CARE OF             
MTR08057000001000000000000000RA              10011276    005802400000024000000570000003NN  NNW 000                       N    
RDG08057000WATRL000000004K00000000000000000012012132014091628N000300000010U86       000530400K 10000000010000000001           
CUS0805700000102264585007         EUNICE MURPHY       518 DENISON ST                          000N        CARE OF             
MTR08057000001000000000000000RA              10021998    005802410000024100000570000003NN  NNW 000                       N    
RDG08057000WATRL000000004K00000000000000129012112132014091646N000000000000U86       000180400K 10000000010000000117           
CUS0805700000102264586005         FERRELL, MONA L     516 DENISON ST                          000N        CARE OF             
MTR08057000001000000000000000RA              01087695    005802420000024200000610000003NN  NNW 000                       N    
RDG08057000WATRL000000004K00000000000001948012212132014091648N000000000000U86       000020400K 10000000010000001923           
CUS0805700000102264587003         JOHN J WALKER       514 DENISON ST                          000N        CARE OF             
MTR08057000001000000000000000RA              44172033    005802430000024300000520000003NN  NNW 000                       N    
RDG08057000WATRL000000004K00000000000002763012312132014091704N000000000000U86       000160400K 10000000010000002752           
CUS0805700000102264588001         RER PROPERTIES, LLC 512 DENISON ST                          000N        CARE OF             
MTR08057000001000000000000000RA              44172000    005802440000024400000520000003NN  NNW 000                       N    
RDG08057000WATRL000000004K00000000000002068012412132014091705N000000000000U86       000010400K 10000000010000002049           
CUS0805700000102264589009         PEM PROPERTIES,LLC  510 DENISON ST                          000N        CARE OF             
MTR08057000001000000000000000RA              01078810    005802450000024500000610000003NN  NNW 000                       N    
RDG08057000WATRL000000004K00000000000001132012512132014091822N000000000001U86       000270400K 10000000010000001090           
CUS0805700000102264590007         U.S. BANK NATIONAL A508 DENISON ST                          000N        CARE OF             
MTR08057000001000000000000000RA              26011062    005802460000024600000520000003NN  NNW 000   VACANT PROPERTY     N    
RDG08057000WATRL000000004K00000000000003977012612132014091724N000000000010U86       000030400K 10000000010000003960           
CUS0805700000102264591005         BAKER, CHARLENE     506 DENISON ST                          000N        CARE OF             
MTR08057000001000000000000000RA              33079000    005802470000024700000520000003NN  NNW 000                       N    
RDG08057000WATRL000000004K00000000000001748012712132014091737N000000000000U86       000130400K 10000000010000001740           
CUS0805700000102264592003         THOMPSON, LUCRETIA  504 DENISON ST                          000N        CARE OF             
MTR08057000001000000000000000RA              25762849    007502480000024800000520000003NN  NNW 000                       N    
RDG08057000WATRL000000004K00000000000003833012812132014091755N000000000000U86       000180400K 10000000010000003833           
CUS0805700000102264593001         CHARLES C TOY 3RD   502 DENISON ST                          000N        CARE OF             
MTR08057000001000000000000000RA              10006598    005802490000024900000570000003NN  NNW 000                       N    
RDG08057000WATRL000000004K00000000000000099012912132014091850N000000000000U86       000280400K 10000000010000000094           
CUS0805700000102264594009         MURIEL HARRID ETAL  500 DENISON ST                          000N        CARE OF             
MTR08057000001000000000000000RA              41257531    005802500000025000000520000003NN  NNW 000                       N    
RDG08057000WATRL000000004K00000000000002434013012132014091852N000000000000U86       000020400K 10000000010000002433           
CUS0805700000102264595006         GREEN, GERALD       3400 W FRANKLIN ST                      000N        CARE OF             
MTR08057000001000000000000000RA              14922789    005802510000025100000310000003NN  NNW 000                       N    
RDG08057000WATRL000000004K00000000000000334006312132014090117N000000000000U86       000270400K 10000000010000000329           
CUS0805700000102264596004         JEROME ALEX. JOHNSON3402 W FRANKLIN ST                      000N        CARE OF             
MTR08057000001000000000000000RA              35110956    005802520000025200000520000003NN  NNW 000                       N    
RDG08057000WATRL000000004K00000000000002423006412132014090118N000000000000U86       000010400K 10000000010000002414           
CUS0805700000102264597002         MOORE, JR, ALDOPHUS 3404 W FRANKLIN ST                      000N        CARE OF             
MTR08057000001000000000000000RA              32770782    005802530000025300000520000003NN  NNW 000                       N    
RDG08057000WATRL000000004K00000000000002388006512132014090140N000000000000U86       000220400K 10000000010000002388           
CUS0805700000102264598000         KIWI CONSTRUCTION, L3406 W FRANKLIN ST                      000N        CARE OF             
MTR08057000001000000000000000RA              45387108    005802540000025400000520000003NN  NNW 000                       N    
RDG08057000WATRL000000004K00000000000001662006612132014090141N000000000000U86       000010400K 10000000010000001639           
CUS0805700000102264599008         ESTELLE FAIRLEY     3408 W FRANKLIN ST                      000N        CARE OF             
MTR08057000001000000000000000RA              01102429    005802550000025500000610000003NN  NNW 000                       N    
RDG08057000WATRL000000004K00000000000000700006712132014090158N000000000000U86       000170400K 10000000010000000693           
CUS0805700000102264600004         JOHNSON BRENDA M    3410 W FRANKLIN ST                      000N        CARE OF             
MTR08057000001000000000000000RA              01102431    005802560000025600000610000003NN  NNW 000                       N    
RDG08057000WATRL000000004K00000000000000608006812132014090200N000000000000U86       000020400K 10000000010000000608           
CUS0805700000102264601002         ANITA K CLAY        3412 W FRANKLIN ST                      000N        CARE OF             
MTR08057000001000000000000000RA              14916729    005802570000025700000310000003NN  NNW 000                       N    
RDG08057000WATRL000000004K00000000000000497006912132014090214N000000000000U86       000140400K 10000000010000000482           
CUS0805700000102264602000         MARTIN III, JAMES W.3414 W FRANKLIN ST                      000N        CARE OF             
MTR08057000001000000000000000RA              14916951    005802580000025800000310000003NN  NNW 000                       N    
RDG08057000WATRL000000004K00000000000000527007012132014090217N000300000010U86       000030400K 10000000010000000511           
CUS0805700000102264603008         JOHNSON, RODNEY     3415 W FRANKLIN ST                      000N        CARE OF             
MTR08057000001000000000000000RA              01102426    005802590000025900000610000003NN  NNW 000                       N    
RDG08057000WATRL000000004K00000000000000931005512132014085954N000000000000U86       000360400K 10000000010000000923           
CUS0805700000102264604006         MARTHA POWELL       3413 W FRANKLIN ST                      000N        CARE OF             
MTR08057000001000000000000000RA              01102432    005802600000026000000610000003NN  NNW 000                       N    
