FHDNNNN022004754004754004754N                                                                                           016532
RHD02646000NN01780178000001780000000001780178000178NY017801780178000000000000000000000000000001    11182015NY020000 N         
CUS0264600000102053560005         ASHKENAZI STEVE     6818 CHEROKEE DR                        000N        CARE OF             
MTR02646000001000000000000000RA              00132580    005800010000000100000570000003NN  NNW 000                       N    
RDG02646000WATRL000000004K00000000000000751000912212015081650N000000000000N40       000420400K 10000000010000000738           
CUS0264600000102053561003         ALEKSONDROV ALEKSAND6816 CHEROKEE DR                        000N        CARE OF             
MTR02646000001000000000000000RA              41257143    005800020000000200000520000003NN  NNW 000                       N    
RDG02646000WATRL000000004K00000000000002769000812212015081608N000000000000N40       000480400K 10000000010000002744           
CUS0264600000102053562001         WEISBORD ZIPPORAH   6814 CHEROKEE DR                        000N        CARE OF             
MTR02646000001000000000000000RA              52286560    005800030000000300000520000003NN  NNW 000                       N    
RDG02646000WATRL000000004K00000000000001826000712212015081520N000000000000N40       000430400K 10000000010000001799           
CUS0264600000102053563009         GOLDSMITH AVROHOM Y 6812 CHEROKEE DR                        000N        CARE OF             
MTR02646000001000000000000000RA              41257139    005800040000000400000520000003NN  NNW 000                       N    
RDG02646000WATRL000000004K00000000000002497000612212015081437N000000000000N40       000540400K 10000000010000002466           
CUS0264600000102053564007         LIOR GEDALYAHU      6810 CHEROKEE DR                        000N        CARE OF             
MTR02646000001000000000000000RA              48595090    005800050000000500000520000003NN  NNW 000                       N    
RDG02646000WATRL000000004K00000000000002008000512212015081343N000000000000N40       000430400K 10000000010000001974           
CUS0264600000102053565004         FLAX IRVIN          6808 CHEROKEE DR                        000N        CARE OF             
MTR02646000001000000000000000RA              41257142    005800060000000600000520000003NN  NNW 000                       N    
RDG02646000WATRL000000004K00000000000003603000412212015081300N000000000000N40       000330400K 10000000010000003580           
CUS0264600000102053566002         KHAZANOVA TATYANA   6806 CHEROKEE DR                        000N        CARE OF             
MTR02646000001000000000000000RA              41257138    005800070000000700000520000003NN  NNW 000                       N    
RDG02646000WATRL000000004K00000000000001466000312212015081227N000000000010N40       000350400K 10000000010000001455           
CUS0264600000102053567000         HAYES CLARENCE R    6804 CHEROKEE DR                        000N        CARE OF             
MTR02646000001000000000000000RA              41257187    005800080000000800000520000003NN  NNW 000                       N    
RDG02646000WATRL000000004K00000000000002094000212212015081152N000000000000N40       000400400K 10000000010000002080           
CUS0264600000102053568008         PEARLMAN FRANCINE I 6802 CHEROKEE DR                        000N        CARE OF             
MTR02646000001000000000000000RA              24760538    005800090000000900000520000003NN  NNW 000                       N    
RDG02646000WATRL000000004K00000000000005623000112212015081112N000000000000N40       000000400K 10000000010000005596           
CUS0264600000102053569006         RUPARELIA CHANDRAKAN6801 CHIPPEWA DR                        000N        CARE OF             
MTR02646000001000000000000000RA              41257172    005800100000001000000520000003NN  NNW 000                       N    
RDG02646000WATRL000000004K00000000000002184003912212015090412N000300000010N40       002940400K 10000000010000002089           
CUS0264600000102053570004         CHAIM MEISTER       6803 CHIPPEWA DR                        000N        CARE OF             
MTR02646000001000000000000000RA              10022758    005800110000001100000570000003NN  NNW 000                       N    
RDG02646000WATRL000000004K00000000000000139003312212015084044N000300000010N40       001350400K 10000000010000000147           
CUS0264600000102053571002         YIZHAK BUSHWICK     6805 CHIPPEWA DR                        000N        CARE OF             
MTR02646000001000000000000000RA              45373592    005800120000001200000520000003NN  NNW 000                       N    
RDG02646000WATRL000000004K00000000000001893003212212015083829N000000000000N40       000600400K 10000000010000001866           
CUS0264600000102053572000         ROTHSTEIN WILLIAM G 6807 CHIPPEWA DR                        000N        CARE OF             
MTR02646000001000000000000000RA              00132734    005800130000001300000570000003NN  NNW 000                       N    
RDG02646000WATRL000000004K00000000000000399003012212015083649N000000000000N40       000430400K 10000000010000000390           
CUS0264600000102053573008         ERIC LEICHTER       6809 CHIPPEWA DR                        000N        CARE OF             
MTR02646000001000000000000000RA              24768638    005800140000001400000520000003NN  NNW 000                       N    
RDG02646000WATRL000000004K00000000000004160002712212015083441N000000000000N40       000500400K 10000000010000004130           
CUS0264600000102053574006         ORLOV MIKHAILO      6811 CHIPPEWA DR                        000N        CARE OF             
MTR02646000001000000000000000RA              00133111    005800150000001500000570000003NN  NNW 000                       N    
RDG02646000WATRL000000004K00000000000000982002612212015083351N000000000000N40       000380400K 10000000010000000955           
CUS0264600000102053575003         COHEN BETTY         6813 CHIPPEWA DR                        000N        CARE OF             
MTR02646000001000000000000000RA              33081489    005800160000001600000520000003NN  NNW 000                       N    
RDG02646000WATRL000000004K00000000000003505002312212015083143N000300000010N40       000390400K 10000000010000003495           
CUS0264600000102053576001         BARDOS RICHARD B    6815 CHIPPEWA DR                        000N        CARE OF             
MTR02646000001000000000000000RA              24769515    005800170000001700000520000003NN  NNW 000                       N    
RDG02646000WATRL000000004K00000000000003587002212212015083104N000300000021N40       000120400K 10000000010000003588           
CUS0264600000102053577009         SCHUGAM LAWRENCE    6817 CHIPPEWA DR                        000N        CARE OF             
MTR02646000001000000000000000RA              41588669    005800180000001800000520000003NN  NNW 000                       N    
RDG02646000WATRL000000004K00000000000002417001912212015082902N000300000010N40       000670400K 10000000010000002343           
CUS0264600000102053578007         LEVIN MARTIN M      6819 CHIPPEWA DR                        000N        CARE OF             
MTR02646000001000000000000000RA              31581748    005800190000001900000520000003NN  NNW 000                       N    
RDG02646000WATRL000000004K00000000000004054001812212015082755N000000000000N40       000430400K 10000000010000004029           
CUS0264600000102053579005         KWATINETZ NEIL I    6821 CHIPPEWA DR                        000N        CARE OF             
MTR02646000001000000000000000RA              33081376    005800200000002000000520000003NN  NNW 000                       N    
RDG02646000WATRL000000004K00000000000001785003712212015085516N000000000000N40       002140400K 10000000010000001768           
CUS0264600000102053580003         MUTCHNIK HENRIETTA  6823 CHIPPEWA DR                        000N        CARE OF             
MTR02646000001000000000000000RA              50786170    005800210000002100000520000003NN  NNW 000                       N    
RDG02646000WATRL000000004K00000000000000919003612212015085142N000000000000N40       005770400K 10000000010000000901           
CUS0264600000102053581001         VAUGHAN MARY ROEDER 6901 CHIPPEWA DR                        000N        CARE OF             
MTR02646000001000000000000000RA              24761443    005800220000002200000520000003NN  NNW 000                       N    
RDG02646000WATRL000000004K00000000000009565001012212015082026N000300000021N40       000080400K 10000000010000009365           
CUS0264600000102053582009         DELANEY DAVID E     6903 CHIPPEWA DR                        000N        CARE OF             
MTR02646000001000000000000000RA              24768632    005800230000002300000520000003NN  NNW 000                       N    
RDG02646000WATRL000000004K00000000000003820001112212015082110N000400000010N40       000440400K 10000000010000003814           
CUS0264600000102364228003         KERBEL URI Y        6904 CHIPPEWA DR                        000N        CARE OF             
MTR02646000001000000000000000RA              30516687    005800240000002400000520000003NN  NNW 000                       N    
RDG02646000WATRL000000004K00000000000004429001212212015082159N000000000000N40       000490400K 10000000010000004396           
CUS0264600000102053586000         KAPLAN MARK  LEVITAN6902 CHIPPEWA DR                        000N        CARE OF             
MTR02646000001000000000000000RA              00133141    005800250000002500000570000003NN  NNW 000                       N    
RDG02646000WATRL000000004K00000000000000934001312212015082235N000000000000N40       000360400K 10000000010000000918           
CUS0264600000102053587008         ROITMAN ALICIA NUDEL6900 CHIPPEWA DR                        000N        CARE OF             
MTR02646000001000000000000000RA              44086853    005800260000002600000520000003NN  NNW 000                       N    
RDG02646000WATRL000000004K00000000000000905001412212015082307N000000000000N40       000320400K 10000000010000000897           
CUS0264600000102053588006         TANDILASHVILI ZAZA  6826 CHIPPEWA DR                        000N        CARE OF             
MTR02646000001000000000000000RA              40047236    005800270000002700000520000003NN  NNW 000                       N    
RDG02646000WATRL000000004K00000000000002821001512212015082409N000000000000N40       000620400K 10000000010000002799           
CUS0264600000102053589004         GARDNER REBECCA J   6824 CHIPPEWA DR                        000N        CARE OF             
MTR02646000001000000000000000RA              29404312    005800280000002800000520000003NN  NNW 000                       N    
RDG02646000WATRL000000004K00000000000003564001612212015082638N000000000000N40       001490400K 10000000010000003543           
CUS0264600000102053590002         WEINSTEIN JAY       6822 CHIPPEWA DR                        000N        CARE OF             
MTR02646000001000000000000000RA              35114357    005800290000002900000520000003NN  NNW 000                       N    
RDG02646000WATRL000000004K00000000000004457001712212015082712N000000000000N40       000340400K 10000000010000004437           
CUS0264600000102053591000         ZIRKIN BARRY R      6820 CHIPPEWA DR                        000N        CARE OF             
MTR02646000001000000000000000RA              38187402    005800300000003000000520000003NN  NNW 000                       N    
RDG02646000WATRL000000004K00000000000002143002012212015082932N000000000000N40       000300400K 10000000010000002124           
CUS0264600000102053592008         MANDEL AVROHOM      6818 CHIPPEWA DR                        000N        CARE OF             
MTR02646000001000000000000000RA              38984758    005800310000003100000520000003NN  NNW 000                       N    
RDG02646000WATRL000000004K00000000000001347002112212015083012N000000000000N40       000400400K 10000000010000001327           
CUS0264600000102053593006         SCHUMAN LEONARD N   6816 CHIPPEWA DR                        000N        CARE OF             
MTR02646000001000000000000000RA              32176971    005800320000003200000520000003NN  NNW 000                       N    
RDG02646000WATRL000000004K00000000000003109002412212015083225N000000000000N40       000420400K 10000000010000003093           
CUS0264600000102053594004         FERDMAN SIMON       6814 CHIPPEWA DR                        000N        CARE OF             
MTR02646000001000000000000000RA              33079883    005800330000003300000520000003NN  NNW 000                       N    
RDG02646000WATRL000000004K00000000000003363002512212015083313N000000000000N40       000480400K 10000000010000003339           
CUS0264600000102053595001         COHEN, WARREN       6812 CHIPPEWA DR                        000N        CARE OF             
MTR02646000001000000000000000RA              27212823    005800340000003400000520000003NN  NNW 000                       N    
RDG02646000WATRL000000004K00000000000004068002812212015083524N000000000000N40       000430400K 10000000010000004032           
CUS0264600000102053596009         RUDYAK MARK         6810 CHIPPEWA DR                        000N        CARE OF             
MTR02646000001000000000000000RA              44174074    005800350000003500000520000003NN  NNW 000                       N    
RDG02646000WATRL000000004K00000000000001224002912212015083606N000000000000N40       000420400K 10000000010000001218           
CUS0264600000102053597007         WARREN COHEN        6808 CHIPPEWA DR                        000N        CARE OF             
MTR02646000001000000000000000RA              24760202    005800360000003600000520000003NN  NNW 000                       N    
RDG02646000WATRL000000004K00000000000002313003112212015083729N000300000010N40       000400400K 10000000010000002281           
CUS0264600000102053598005         MORAD YACOV         6806 CHIPPEWA DR                        000N        CARE OF             
MTR02646000001000000000000000RA              52289686    005800370000003700000520000003NN  NNW 000                       N    
RDG02646000WATRL000000004K00000000000001092003812212015085918N000300000010N40       002420400K 10000000010000001038           
CUS0264600000102053599003         CHASMAN MIKE        6804 CHIPPEWA DR                        000N        CARE OF             
MTR02646000001000000000000000RA              29082822    005800380000003800000520000003NN  NNW 000   VACANT / LOT        N    
RDG02646000WATRL000000004K00000000000003363003412212015084136N000000000000N40       000520400K 10000000010000003363           
CUS0264600000102053600009         HAMILTON ALBERT W,JR6802 CHIPPEWA DR                        000N        CARE OF             
MTR02646000001000000000000000RA              44086803    005800390000003900000520000003NN  NNW 000                       N    
RDG02646000WATRL000000004K00000000000002512003512212015084205N000000000000N40       000290400K 10000000010000002480           
CUS0264600000102053601007         MITCHELL PATRICIA   6702 CHEROKEE DR                        000N        CARE OF             
MTR02646000001000000000000000RA              24768525    005800400000004000000520000003NN  NNW 000                       N    
RDG02646000WATRL000000004K00000000000002940004012212015090817N000000000000N40       002450400K 10000000010000002921           
CUS0264600000102053602005         LEHTO KELLY A       6700 CHEROKEE DR                        000N        CARE OF             
MTR02646000001000000000000000RA              41257173    005800410000004100000520000003NN  NNW 000                       N    
RDG02646000WATRL000000004K00000000000002950004112212015090923N000000000000N40       000660400K 10000000010000002932           
CUS0264600000102053603003         WEINER PAUL J       6701 CHEROKEE DR                        000N        CARE OF             
MTR02646000001000000000000000RA              30514033    005800420000004200000520000003NN  NNW 000                       N    
RDG02646000WATRL000000004K00000000000005116004212212015091009N000300000010N40       000460400K 10000000010000005126           
CUS0264600000102053604001         YOUNES ELIE L       6703 CHEROKEE DR                        000N        CARE OF             
MTR02646000001000000000000000RA              41257190    005800430000004300000520000003NN  NNW 000                       N    
RDG02646000WATRL000000004K00000000000003061004312212015091104N000000000000N40       000550400K 10000000010000003024           
CUS0264600000102053605008         GOLDBERG LEON       6718 CHIPPEWA DR                        000N        CARE OF             
MTR02646000001000000000000000RA              36689981    005800440000004400000520000003NN  NNW 000                       N    
RDG02646000WATRL000000004K00000000000003439004412212015091218N000300000010N40       000740400K 10000000010000003533           
CUS0264600000102053606006         SMITH KATHLEEN      6716 CHIPPEWA DR                        000N        CARE OF             
MTR02646000001000000000000000RA              41257168    005800450000004500000520000003NN  NNW 000                       N    
RDG02646000WATRL000000004K00000000000001445004512212015091308N000000000000N40       000500400K 10000000010000001432           
CUS0264600000102053607004         LAX JOSEF           6714 CHIPPEWA DR                        000N        CARE OF             
MTR02646000001000000000000000RA              00133243    005800460000004600000570000003NN  NNW 000                       N    
RDG02646000WATRL000000004K00000000000000992004612212015091351N000000000000N40       000430400K 10000000010000000986           
CUS0264600000102053608002         GALITSKY NIKOLAI    6712 CHIPPEWA DR                        000N        CARE OF             
MTR02646000001000000000000000RA              32573931    005800470000004700000520000003NN  NNW 000                       N    
RDG02646000WATRL000000004K00000000000003005004712212015091431N000000000000N40       000400400K 10000000010000002997           
CUS0264600000102053609000         GOLDFEIZ DAVID KHOSR6710 CHIPPEWA DR                        000N        CARE OF             
MTR02646000001000000000000000RA              24761503    005800480000004800000520000003NN  NNW 000                       N    
RDG02646000WATRL000000004K00000000000003591004812212015091515N000000000000N40       000440400K 10000000010000003567           
CUS0264600000102053610008         KOBITZ NAT          6708 CHIPPEWA DR                        000N        CARE OF             
MTR02646000001000000000000000RA              41257178    005800490000004900000520000003NN  NNW 000                       N    
RDG02646000WATRL000000004K00000000000002480004912212015091546N000000000000N40       000310400K 10000000010000002460           
CUS0264600000102053611006         TCHERNYSHYOV OLEG   6706 CHIPPEWA DR                        000N        CARE OF             
MTR02646000001000000000000000RA              41257185    005800500000005000000520000003NN  NNW 000                       N    
RDG02646000WATRL000000004K00000000000001499005012212015091619N000000000000N40       000330400K 10000000010000001486           
CUS0264600000102053612004         AXELMAN JOYCE       6704 CHIPPEWA DR                        000N        CARE OF             
MTR02646000001000000000000000RA              00134164    005800510000005100000570000003NN  NNW 000                       N    
RDG02646000WATRL000000004K00000000000001459005112212015091649N000000000000N40       000300400K 10000000010000001437           
CUS0264600000102053613002         MAIER NORBERT       6702 CHIPPEWA DR                        000N        CARE OF             
MTR02646000001000000000000000RA              00132582    005800520000005200000570000003NN  NNW 000                       N    
RDG02646000WATRL000000004K00000000000000511005212212015091722N000000000000N40       000330400K 10000000010000000503           
CUS0264600000102053614000         SCHUMAN CHARLES     6700 CHIPPEWA DR                        000N        CARE OF             
MTR02646000001000000000000000RA              22607694    005800530000005300000520000003NN  NNW 000                       N    
RDG02646000WATRL000000004K00000000000003385005312212015091803N000000000000N40       000410400K 10000000010000003349           
CUS0264600000102053616005         SIEGEL MARY L       6701 SAGINAW CIR                        000N        CARE OF             
MTR02646000001000000000000000RA              45382575    005800540000005400000520000003NN  NNW 000                       N    
RDG02646000WATRL000000004K00000000000001442005812212015092226N000000000000N40       000440400K 10000000010000001432           
CUS0264600000102053617003         SMITH EVERETT JASON 6703 SAGINAW CIR                        000N        CARE OF             
MTR02646000001000000000000000RA              48589504    005800550000005500000520000003NN  NNW 000                       N    
RDG02646000WATRL000000004K00000000000003147005412212015092009N000000000000N40       001260400K 10000000010000003088           
CUS0264600000102053618001         MINSTER HOWARD M    6705 SAGINAW CIR                        000N        CARE OF             
MTR02646000001000000000000000RA              33081466    005800560000005600000520000003NN  NNW 000                       N    
RDG02646000WATRL000000004K00000000000005054005512212015092046N000000000000N40       000370400K 10000000010000005015           
CUS0264600000102053619009         YAEL SCHONFELD      6704 SAGINAW CIR                        000N        CARE OF             
MTR02646000001000000000000000RA              14929438    005800570000005700000310000003NN  NNW 000                       N    
RDG02646000WATRL000000004K00000000000000432005612212015092113N000000000000N40       000270400K 10000000010000000415           
CUS0264600000102053620007         KESSLER ROBERT J    6702 SAGINAW CIR                        000N        CARE OF             
MTR02646000001000000000000000RA              27814596    005800580000005800000520000003NN  NNW 000                       N    
RDG02646000WATRL000000004K00000000000004843005712212015092142N000000000000N40       000290400K 10000000010000004838           
CUS0264600000102053621005         STEIN LARRY N  SHURK6700 SAGINAW CIR                        000N        CARE OF             
MTR02646000001000000000000000RA              33732222    005800590000005900000520000003NN  NNW 000                       N    
RDG02646000WATRL000000004K00000000000001424005912212015092258N000000000000N40       000320400K 10000000010000001419           
CUS0264600000102053622003         PERLBERG LENORA     2506 SMITH AVE                          000N        CARE OF             
MTR02646000001000000000000000RA              40779745    005800600000006000000520000003NN  NNW 000                       N    
RDG02646000WATRL000000004K00000000000001891006012212015092400N000000000000N40       000620400K 10000000010000001883           
CUS0264600000102053623001         WEINRAUB MICHAEL A  2508 SMITH AVE                          000N        CARE OF             
MTR02646000001000000000000000RA              78006520    005800610000006100000360000003NN  NNW 000                       N    
RDG02646000WATRL000000004K00000000000000000006112212015092455N000000000000N40       000550400K 10000000010000000000           
CUS0264600000102053624009         FEIGE CHINN         2510 SMITH AVE                          000N        CARE OF             
MTR02646000001000000000000000RA              00133137    005800620000006200000570000003NN  NNW 000                       N    
RDG02646000WATRL000000004K00000000000001404006212212015092541N000000000000N40       000460400K 10000000010000001368           
CUS0264600000102053625006         LOSOVER STANLEY     2512 SMITH AVE                          000N        CARE OF             
MTR02646000001000000000000000RA              35102863    005800630000006300000520000003NN  NNW 000                       N    
RDG02646000WATRL000000004K00000000000004467006312212015092617N000000000000N40       000360400K 10000000010000004429           
CUS0264600000102053626004         YAAKOV HAKIMI-SETAT 2514 SMITH AVE                          000N        CARE OF             
MTR02646000001000000000000000RA              00133140    005800640000006400000570000003NN  NNW 000                       N    
RDG02646000WATRL000000004K00000000000001223006412212015092700N000000000000N40       000430400K 10000000010000001196           
CUS0264600000102053627002         TARNOVETSKYY MYROSLA2516 SMITH AVE                          000N        CARE OF             
MTR02646000001000000000000000RA              48589500    005800650000006500000520000003NN  NNW 000                       N    
RDG02646000WATRL000000004K00000000000001085006512212015092733N000000000000N40       000330400K 10000000010000001063           
CUS0264600000102053628000         FRANKLIN D BERGER   2518 SMITH AVE                          000N        CARE OF             
MTR02646000001000000000000000RA              10024532    005800660000006600000570000003NN  NNW 000                       N    
RDG02646000WATRL000000004K00000000000000251006612212015092814N000000000000N40       000410400K 10000000010000000221           
CUS0264600000102053629008         CUSTIS ANN L        2520 SMITH AVE                          000N        CARE OF             
MTR02646000001000000000000000RA              24757714    005800670000006700000520000003NN  NNW 000                       N    
RDG02646000WATRL000000004K00000000000009000006712212015092847N000000000000N40       000330400K 10000000010000008967           
CUS0264600000102053630006         IMANOEL BABAK       2602 SMITH AVE                          000N        CARE OF             
MTR02646000001000000000000000RA              33081379    005800680000006800000520000003NN  NNW 000                       N    
RDG02646000WATRL000000004K00000000000002834006812212015093242N000000000000N40       002350400K 10000000010000002818           
CUS0264600000102053631004         SCHWIGER RUTH       2604 SMITH AVE                          000N        CARE OF             
MTR02646000001000000000000000RA              14902750    005800690000006900000310000003NN  NNW 000                       N    
RDG02646000WATRL000000004K00000000000001068006912212015093349N000000000000N40       000670400K 10000000010000001038           
CUS0264600000102053632002         BERKOWITZ BRUCE P   6701 MAURLEEN RD                        000N        CARE OF             
MTR02646000001000000000000000RA              41257728    005800700000007000000520000003NN  NNW 000                       N    
RDG02646000WATRL000000004K00000000000002349007012212015093902N000000000000N40       003130400K 10000000010000002335           
CUS0264600000102053633000         GORDON ROBERT       6703 MAURLEEN RD                        000N        CARE OF             
MTR02646000001000000000000000RA              35110492    005800710000007100000520000003NN  NNW 000                       N    
RDG02646000WATRL000000004K00000000000003636007112212015093955N000000000000N40       000530400K 10000000010000003611           
CUS0264600000102053634008         ORATZ YEHUDA        6705 MAURLEEN RD                        000N        CARE OF             
MTR02646000001000000000000000RA              44086471    005800720000007200000520000003NN  NNW 000                       N    
RDG02646000WATRL000000004K00000000000007266007212212015093959N000000000000N40       000040400K 10000000010000007187           
CUS0264600000102053635005         SCHWARTZ ARI        6707 MAURLEEN RD                        000N        CARE OF             
MTR02646000001000000000000000RA              41074820    005800730000007300000520000003NN  NNW 000                       N    
RDG02646000WATRL000000004K00000000000002642007612212015094743N000000000000N40       001140400K 10000000010000002599           
CUS0264600000102053636003         MILNER MELVIN B     6709 MAURLEEN RD                        000N        CARE OF             
MTR02646000001000000000000000RA              41257718    005800740000007400000520000003NN  NNW 000                       N    
RDG02646000WATRL000000004K00000000000002751007712212015094750N000000000000N40       000070400K 10000000010000002730           
CUS0264600000102053637001         AFRAH SHOKROLLAH    6801 MAURLEEN RD                        000N        CARE OF             
MTR02646000001000000000000000RA              41074817    005800750000007500000520000003NN  NNW 000                       N    
RDG02646000WATRL000000004K00000000000001868007812212015094858N000000000000N40       000680400K 10000000010000001807           
CUS0264600000102053638009         SKOLIMOVSKAJA KRISTI6803 MAURLEEN RD                        000N        CARE OF             
MTR02646000001000000000000000RA              41257744    005800760000007600000520000003NN  NNW 000                       N    
RDG02646000WATRL000000004K00000000000001817007912212015094909N000000000010N40       000110400K 10000000010000001810           
CUS0264600000102053639007         GOREN BLANCHE W     6805 MAURLEEN RD                        000N        CARE OF             
MTR02646000001000000000000000RA              24768630    005800770000007700000520000003NN  NNW 000                       N    
RDG02646000WATRL000000004K00000000000006254008012212015094955N000000000000N40       000460400K 10000000010000006227           
CUS0264600000102053640005         FRYDMAN JOSEPH I    6807 MAURLEEN RD                        000N        CARE OF             
MTR02646000001000000000000000RA              24768527    005800780000007800000520000003NN  NNW 000                       N    
RDG02646000WATRL000000004K00000000000004311008112212015095000N000000000000N40       000050400K 10000000010000004282           
CUS0264600000102053641003         SHUSTER YAKOV       6809 MAURLEEN RD                        000N        CARE OF             
MTR02646000001000000000000000RA              00133258    005800790000007900000570000003NN  NNW 000                       N    
RDG02646000WATRL000000004K00000000000000805008212212015095049N000000000000N40       000490400K 10000000010000000798           
CUS0264600000102053642001         COHN DANA           6811 MAURLEEN RD                        000N        CARE OF             
MTR02646000001000000000000000RA              24220009    005800800000008000000520000003NN  NNW 000                       N    
RDG02646000WATRL000000004K00000000000004067008312212015095103N000000000000N40       000140400K 10000000010000004037           
CUS0264600000102053643009         BAILEY VALENTINA    6813 MAURLEEN RD                        000N        CARE OF             
MTR02646000001000000000000000RA              40321628    005800810000008100000520000003NN  NNW 000                       N    
RDG02646000WATRL000000004K00000000000003187008412212015095155N000000000000N40       000520400K 10000000010000003163           
CUS0264600000102053644007         SHER BERNARD E      6815 MAURLEEN RD                        000N        CARE OF             
MTR02646000001000000000000000RA              00133257    005800820000008200000570000003NN  NNW 000                       N    
RDG02646000WATRL000000004K00000000000000891008512212015095234N000000000000N40       000390400K 10000000010000000880           
CUS0264600000102053645004         BERLIN JEFFREY      2605 LIGHTFOOT DR                       000N        CARE OF             
MTR02646000001000000000000000RA              00133261    005800830000008300000570000003NN  NNW 000                       N    
RDG02646000WATRL000000004K00000000000002493008612212015095346N000000000000N40       000720400K 10000000010000002432           
CUS0264600000102053646002         JONES CAROLE J P    2603 LIGHTFOOT DR                       000N        CARE OF             
MTR02646000001000000000000000RA              41257733    005800840000008400000520000003NN  NNW 000                       N    
RDG02646000WATRL000000004K00000000000006489008712212015095432N000400000010N40       000460400K 10000000010000006439           
CUS0264600000102053647000         HANLEY MARY LOULA   2602 LIGHTFOOT DR                       000N        CARE OF             
MTR02646000001000000000000000RA              48589719    005800850000008500000520000003NN  NNW 000                       N    
RDG02646000WATRL000000004K00000000000002332008812212015095526N000000000000N40       000540400K 10000000010000002314           
CUS0264600000102053648008         BERKOVICH ADAM      2604 LIGHTFOOT DR                       000N        CARE OF             
MTR02646000001000000000000000RA              41257738    005800860000008600000520000003NN  NNW 000                       N    
RDG02646000WATRL000000004K00000000000001467008912212015095550N000000000000N40       000240400K 10000000010000001448           
CUS0264600000102053649006         SILINKER TATYANA G  2606 LIGHTFOOT DR                       000N        CARE OF             
MTR02646000001000000000000000RA              41257188    005800870000008700000520000003NN  NNW 000                       N    
RDG02646000WATRL000000004K00000000000003819009012212015095635N000400000010N40       000450400K 10000000010000003791           
CUS0264600000102053650004         KOKOTOV BORIS       2700 LIGHTFOOT DR                       000N        CARE OF             
MTR02646000001000000000000000RA              41257719    005800880000008800000520000003NN  NNW 000                       N    
RDG02646000WATRL000000004K00000000000002701009112212015095700N000000000000N40       000250400K 10000000010000002686           
CUS0264600000102053651002         SILVER MELVIN A     2702 LIGHTFOOT DR                       000N        CARE OF             
MTR02646000001000000000000000RA              19460113    005800890000008900000520000003NN  NNW 000                       N    
RDG02646000WATRL000000004K00000000000003654009212212015095759N000000000000N40       000590400K 10000000010000003644           
CUS0264600000102439426004         ARKING DAN E        2710 LIGHTFOOT DR                       000N        CARE OF             
MTR02646000001000000000000000RA              14913568    005800900000009000000310000003NN  NNW 000                       N    
RDG02646000WATRL000000004K00000000000000835017812212015111606N000000000000N40       000190400K 10000000010000000799           
CUS0264600000102439427002         KHAN MUHAMMAD       2712 LIGHTFOOT DR                       000N        CARE OF             
MTR02646000001000000000000000RA              14913787    005800910000009100000310000003NN  NNW 000                       N    
RDG02646000WATRL000000004K00000000000001268017712212015111547N000000000000N40       000190400K 10000000010000001232           
CUS0264600000102439428000         ROZIN JEAN          2714 LIGHTFOOT DR                       000N        CARE OF             
MTR02646000001000000000000000RA              14915557    005800920000009200000310000003NN  NNW 000                       N    
RDG02646000WATRL000000004K00000000000001128017612212015111528N000000000000N40       000350400K 10000000010000001091           
CUS0264600000102439429008         LEIBOWITZ GARY H    2716 LIGHTFOOT DR                       000N        CARE OF             
MTR02646000001000000000000000RA              14915560    005800930000009300000310000003NN  NNW 000                       N    
RDG02646000WATRL000000004K00000000000001063017512212015111453N000000000000N40       000440400K 10000000010000000992           
CUS0264600000102439430006         SMITH SAMUEL        2718 LIGHTFOOT DR                       000N        CARE OF             
MTR02646000001000000000000000RA              14913657    005800940000009400000310000003NN  NNW 000                       N    
RDG02646000WATRL000000004K00000000000001533017412212015111409N000000000000N40       000620400K 10000000010000001488           
CUS0264600000102439432002         KLOPOUH LEONID A    2722 LIGHTFOOT DR                       000N        CARE OF             
MTR02646000001000000000000000RA              14913655    005800950000009500000310000003NN  NNW 000                       N    
RDG02646000WATRL000000004K00000000000001307017212212015111225N000000000000N40       000340400K 10000000010000001279           
CUS0264600000102439702008         ZALIS KENNETH       2720 LIGHTFOOT DR                       000N        CARE OF             
MTR02646000001000000000000000RA              14913789    005800960000009600000310000003NN  NNW 000                       N    
RDG02646000WATRL000000004K00000000000003268017312212015111307N000000000000N40       000420400K 10000000010000003220           
CUS0264600000102439433000         FRIEDMAN KEITH      2724 LIGHTFOOT DR                       000N        CARE OF             
MTR02646000001000000000000000RA              14917402    005800970000009700000310000003NN  NNW 000                       N    
RDG02646000WATRL000000004K00000000000000730017112212015111151N000000000000N40       000510400K 10000000010000000705           
CUS0264600000102439434008         BURDMAN MARK        2726 LIGHTFOOT DR                       000N        CARE OF             
MTR02646000001000000000000000RA              14917607    005800980000009800000310000003NN  NNW 000                       N    
RDG02646000WATRL000000004K00000000000000672017012212015111100N000000000000N40       000220400K 10000000010000000649           
CUS0264600000102439435005         FREDERICK MICHAEL D 2728 LIGHTFOOT DR                       000N        CARE OF             
MTR02646000001000000000000000RA              14917610    005800990000009900000310000003NN  NNW 000                       N    
RDG02646000WATRL000000004K00000000000000948016912212015111038N000400000010N40       000350400K 10000000010000000941           
CUS0264600000102439436003         DELLER ARKADY  DELLE2730 LIGHTFOOT DR                       000N        CARE OF             
MTR02646000001000000000000000RA              14917609    005801000000010000000310000003NN  NNW 000                       N    
RDG02646000WATRL000000004K00000000000000940016812212015111003N000000000000N40       000350400K 10000000010000000928           
CUS0264600000102439437001         OSTROWSKY OLEG  OSTR2732 LIGHTFOOT DR                       000N        CARE OF             
MTR02646000001000000000000000RA              14912908    005801010000010100000310000003NN  NNW 000                       N    
RDG02646000WATRL000000004K00000000000000673016712212015110928N000000000000N40       000090400K 10000000010000000657           
CUS0264600000102439438009         ROMALIS ROMAN       2734 LIGHTFOOT DR                       000N        CARE OF             
MTR02646000001000000000000000RA              14912909    005801020000010200000310000003NN  NNW 000                       N    
RDG02646000WATRL000000004K00000000000001371016612212015110919N000000000000N40       000320400K 10000000010000001333           
CUS0264600000102439439007         GOMBERG SVETLANA    2736 LIGHTFOOT DR                       000N        CARE OF             
MTR02646000001000000000000000RA              14912912    005801030000010300000310000003NN  NNW 000                       N    
RDG02646000WATRL000000004K00000000000000926016512212015110847N000000000000N40       001580400K 10000000010000000895           
CUS0264600000102053652000         OHNONA AARON HENRY  2703 LIGHTFOOT DR                       000N        CARE OF             
MTR02646000001000000000000000RA              33081407    005801040000010400000520000003NN  NNW 000                       N    
RDG02646000WATRL000000004K00000000000003394011712212015102150N000000000000N40       001250400K 10000000010000003388           
CUS0264600000102053653008         POLYAKOV ALEXANDER  2701 LIGHTFOOT DR                       000N        CARE OF             
MTR02646000001000000000000000RA              36692441    005801050000010500000520000003NN  NNW 000                       N    
RDG02646000WATRL000000004K00000000000002775011812212015102232N000000000000N40       000420400K 10000000010000002757           
CUS0264600000102053654006         KASSEL ALEXANDER ELI6814 MAURLEEN RD                        000N        CARE OF             
MTR02646000001000000000000000RA              41074816    005801060000010600000520000003NN  NNW 000                       N    
RDG02646000WATRL000000004K00000000000002358011912212015102417N000000000000N40       001050400K 10000000010000002325           
CUS0264600000102053655003         MOSHE KROHN,        6812 MAURLEEN RD                        000N        CARE OF             
MTR02646000001000000000000000RA              41075297    005801070000010700000520000003NN  NNW 000                       N    
RDG02646000WATRL000000004K00000000000003082012012212015102519N000000000000N40       000620400K 10000000010000003059           
CUS0264600000102053656001         DETWILER JON        2700 MAURLEEN CT                        000N        CARE OF             
MTR02646000001000000000000000RA              41074846    005801080000010800000520000003NN  NNW 000                       N    
RDG02646000WATRL000000004K00000000000002662012112212015102622N000000000000N40       000630400K 10000000010000002647           
CUS0264600000102053657009         BRENER ROMAN        2702 MAURLEEN CT                        000N        CARE OF             
MTR02646000001000000000000000RA              44086473    005801090000010900000520000003NN  NNW 000                       N    
RDG02646000WATRL000000004K00000000000002530012212212015102710N000000000000N40       000480400K 10000000010000002497           
CUS0264600000102053658007         DMITRI MIKELADZE    2704 MAURLEEN CT                        000N        CARE OF             
MTR02646000001000000000000000RA              9689485     005801100000011000000570000003NN  NNW 000                       N    
RDG02646000WATRL000000004K00000000000005281012312212015102750N000000000000N40       000400400K 10000000010000005249           
CUS0264600000102053659005         POROKHOVNIKOV DMITRY2706 MAURLEEN CT                        000N        CARE OF             
MTR02646000001000000000000000RA              41074848    005801110000011100000520000003NN  NNW 000                       N    
RDG02646000WATRL000000004K00000000000001741012412212015102803N000000000000N40       000130400K 10000000010000001713           
CUS0264600000102053660003         SITCHON JOCELYN C   2708 MAURLEEN CT                        000N        CARE OF             
MTR02646000001000000000000000RA              45382984    005801120000011200000520000003NN  NNW 000                       N    
RDG02646000WATRL000000004K00000000000002866012512212015102806N000000000000N40       000030400K 10000000010000002810           
CUS0264600000102053661001         MORDECHAI DIAMOND   2709 MAURLEEN CT                        000N        CARE OF             
MTR02646000001000000000000000RA              27132045    005801130000011300000520000003NN  NNW 000                       N    
RDG02646000WATRL000000004K00000000000001701012612212015102841N000000000000N40       000350400K 10000000010000001678           
CUS0264600000102053662009         GERSHON TOPAS       2707 MAURLEEN CT                        000N        CARE OF             
MTR02646000001000000000000000RA              24768633    005801140000011400000520000003NN  NNW 000                       N    
RDG02646000WATRL000000004K00000000000003073012712212015102922N000000000000N40       000410400K 10000000010000003048           
CUS0264600000102053663007         HERNANDEZ MARIO     2705 MAURLEEN CT                        000N        CARE OF             
MTR02646000001000000000000000RA              00130834    005801150000011500000570000003NN  NNW 000                       N    
RDG02646000WATRL000000004K00000000000000962012812212015103003N000300000010N40       000410400K 10000000010000000947           
CUS0264600000102053664005         DAVID&AKSINIJA SHAMA2703 MAURLEEN CT                        000N        CARE OF             
MTR02646000001000000000000000RA              00131829    005801160000011600000570000003NN  NNW 000                       N    
RDG02646000WATRL000000004K00000000000000592012912212015103009N000000000000N40       000060400K 10000000010000000578           
CUS0264600000102053665002         ARON HERSCHEL SCHNUR2701 MAURLEEN CT                        000N        CARE OF             
MTR02646000001000000000000000RA              23055363    005801170000011700000520000003NN  NNW 000                       N    
RDG02646000WATRL000000004K00000000000005306013012212015103135N000300000010N40       000860400K 10000000010000005185           
CUS0264600000102053666000         LEVENSON LEROY      6804 MAURLEEN RD                        000N        CARE OF             
MTR02646000001000000000000000RA              20968038    005801180000011800000520000003NN  NNW 000                       N    
RDG02646000WATRL000000004K00000000000005636013112212015103301N000000000000N40       000860400K 10000000010000005625           
CUS0264600000102053667008         MAHPOUR EBRAHIM     6802 MAURLEEN RD                        000N        CARE OF             
MTR02646000001000000000000000RA              00131833    005801190000011900000570000003NN  NNW 000                       N    
RDG02646000WATRL000000004K00000000000001667013212212015103407N000000000000N40       000660400K 10000000010000001642           
CUS0264600000102053668006         KAMENEZKY MOTY      2700 GEARTNER RD                        000N        CARE OF             
MTR02646000001000000000000000RA              24768562    005801200000012000000520000003NN  NNW 000                       N    
RDG02646000WATRL000000004K00000000000002208013312212015103535N000000000000N40       000880400K 10000000010000002171           
CUS0264600000102053669004         MAINSTAIN H MIRIAM  2702 GEARTNER RD                        000N        CARE OF             
MTR02646000001000000000000000RA              27829417    005801210000012100000520000003NN  NNW 000                       N    
RDG02646000WATRL000000004K00000000000002506013612212015103814N000300000010N40       000830400K 10000000010000002523           
CUS0264600000102053670002         HEINEMANN MANFRED   2704 GEARTNER RD                        000N        CARE OF             
MTR02646000001000000000000000RA              44086675    005801220000012200000520000003NN  NNW 000                       N    
RDG02646000WATRL000000004K00000000000002873013712212015103908N000000000000N40       000540400K 10000000010000002842           
CUS0264600000102053671000         SLUTSKY GENIA       2706 GEARTNER RD                        000N        CARE OF             
MTR02646000001000000000000000RA              52288540    005801230000012300000520000003NN  NNW 000                       N    
RDG02646000WATRL000000004K00000000000001179013912212015104023N000000000000N40       000230400K 10000000010000001171           
CUS0264600000102053672008         GRAMATIKOV BORIS I  2708 GEARTNER RD                        000N        CARE OF             
MTR02646000001000000000000000RA              27826867    005801240000012400000520000003NN  NNW 000                       N    
RDG02646000WATRL000000004K00000000000003430014112212015104142N000000000000N40       000400400K 10000000010000003414           
CUS0264600000102053673006         MICHAEL SHOLOM      2710 GEARTNER RD                        000N        CARE OF             
MTR02646000001000000000000000RA              00131851    005801250000012500000570000003NN  NNW 000                       N    
RDG02646000WATRL000000004K00000000000000714014412212015104333N000000000000N40       000460400K 10000000010000000695           
CUS0264600000102053674004         MELTZER BARBARA LYNN2712 GEARTNER RD                        000N        CARE OF             
MTR02646000001000000000000000RA              44092723    005801260000012600000520000003NN  NNW 000                       N    
RDG02646000WATRL000000004K00000000000002262014612212015104445N000000000000N40       000310400K 10000000010000002243           
CUS0264600000102053675001         WOLK DANIEL         6807 TIMBERLANE RD                      000N        CARE OF             
MTR02646000001000000000000000RA              30513894    005801270000012700000520000000NN  NNW 000                       N    
RDG02646000WATRL000000004K00000000000002591011012212015101454N000000000000N40       001460400K 10000000010000002575           
CUS0264600000102053676009         DOPKIN AMY R        2719 GEARTNER RD                        000N        CARE OF             
MTR02646000001000000000000000RA              19462397    005801280000012800000520000003NN  NNW 000                       N    
RDG02646000WATRL000000004K00000000000005500010912212015101228N000100000010N40       000630400K 10000000010000005500           
CUS0264600000102053677007         SAGAL PHILLIP L     2717 GEARTNER RD                        000N        CARE OF             
MTR02646000001000000000000000RA              32900844    005801290000012900000520000003NN  NNW 000                       N    
RDG02646000WATRL000000004K00000000000002543014712212015104522N000000000000N40       000370400K 10000000010000002530           
CUS0264600000102053678005         FRIEDMAN MILTON LEON2715 GEARTNER RD                        000N        CARE OF             
MTR02646000001000000000000000RA              33077156    005801300000013000000520000003NN  NNW 000                       N    
RDG02646000WATRL000000004K00000000000002423014512212015104414N000100000010N40       000410400K 10000000010000002423           
CUS0264600000102053679003         DUCHEV VLADIMIR     2713 GEARTNER RD                        000N        CARE OF             
MTR02646000001000000000000000RA              33081370    005801310000013100000520000003NN  NNW 000                       N    
RDG02646000WATRL000000004K00000000000003752014312212015104247N000000000000N40       000240400K 10000000010000003714           
CUS0264600000102053680001         SHAPIRO YISSACHAR   2711 GEARTNER RD                        000N        CARE OF             
MTR02646000001000000000000000RA              44086675    005801320000013200000520000003NN  NNW 000                       N    
RDG02646000WATRL000000004K00000000000003093014212212015104223N000000000000N40       000410400K 10000000010000003055           
CUS0264600000102053681009         GARDYN MICHAEL      2709 GEARTNER RD                        000N        CARE OF             
MTR02646000001000000000000000RA              52286780    005801330000013300000520000003NN  NNW 000                       N    
RDG02646000WATRL000000004K00000000000002270014012212015104102N000000000000N40       000390400K 10000000010000002258           
CUS0264600000102053682007         BOROVSKIY DMITRIY   2707 GEARTNER RD                        000N        CARE OF             
MTR02646000001000000000000000RA              48588854    005801340000013400000520000003NN  NNW 000                       N    
RDG02646000WATRL000000004K00000000000001969013812212015104000N000000000000N40       000520400K 10000000010000001935           
CUS0264600000102053683005         IRVIN NAILMAN       2705 GEARTNER RD                        000N        CARE OF             
MTR02646000001000000000000000RA              24768639    005801350000013500000520000003NN  NNW 000                       N    
RDG02646000WATRL000000004K00000000000003875013512212015103651N000000000000N40       000440400K 10000000010000003858           
CUS0264600000102053684003         GERSHON / ITA FEIT  2703 GEARTNER RD                        000N        CARE OF             
MTR02646000001000000000000000RA              14922057    005801360000013600000310000003NN  NNW 000                       N    
RDG02646000WATRL000000004K00000000000000897013412212015103607N000000000000N40       000320400K 10000000010000000862           
CUS0264600000102053685000         AMOYAL KAREN        2701 GEARTNER RD                        000N        CARE OF             
MTR02646000001000000000000000RA              10019313    005801370000013700000570000003NN  NNW 000                       N    
RDG02646000WATRL000000004K00000000000000515007312212015094222N000000000000N40       001430400K 10000000010000000477           
CUS0264600000102053686008         HUTMAN DANIEL       6702 MAURLEEN RD                        000N        CARE OF             
MTR02646000001000000000000000RA              32900904    005801380000013800000520000003NN  NNW 000                       N    
RDG02646000WATRL000000004K00000000000002238007412212015094254N000000000000N40       000320400K 10000000010000002208           
CUS0264600000102053687006         BRAUN ARI           2700 SMITH AVE                          000N        CARE OF             
MTR02646000001000000000000000RA              14908541    005801390000013900000310000003NN  NNW 000                       N    
RDG02646000WATRL000000004K00000000000000824007512212015094549N000000000000N40       001750400K 10000000010000000807           
CUS0264600000102053688004         KRAVETZ MARK        2702 SMITH AVE                          000N        CARE OF             
MTR02646000001000000000000000RA              00131834    005801400000014000000570000003NN  NNW 000                       N    
RDG02646000WATRL000000004K00000000000001587016012212015105555N000000000000N40       000030400K 10000000010000001553           
CUS0264600000102053689002         DAVID OLIVIA H      2704 SMITH AVE                          000N        CARE OF             
MTR02646000001000000000000000RA              00131850    005801410000014100000570000003NN  NNW 000                       N    
RDG02646000WATRL000000004K00000000000001178015912212015105552N000000000000N40       000680400K 10000000010000001117           
CUS0264600000102053690000         DOSTO THERESA       2706 SMITH AVE                          000N        CARE OF             
MTR02646000001000000000000000RA              45382758    005801420000014200000520000003NN  NNW 000                       N    
RDG02646000WATRL000000004K00000000000001478015812212015105444N000000000000N40       000040400K 10000000010000001446           
CUS0264600000102053691008         DIAMOND DAVID B     2708 SMITH AVE                          000N        CARE OF             
MTR02646000001000000000000000RA              23055787    005801430000014300000520000003NN  NNW 000                       N    
RDG02646000WATRL000000004K00000000000002982015712212015105440N000000000000N40       000720400K 10000000010000002966           
CUS0264600000102053692006         JACOBSON YALE H     2710 SMITH AVE                          000N        CARE OF             
MTR02646000001000000000000000RA              24761253    005801440000014400000520000003NN  NNW 000                       N    
RDG02646000WATRL000000004K00000000000002979015512212015105302N000000000000N40       000920400K 10000000010000002960           
CUS0264600000102053693004         COOPERMAN JERROLD   2712 SMITH AVE                          000N        CARE OF             
MTR02646000001000000000000000RA              24761502    005801450000014500000520000003NN  NNW 000                       N    
RDG02646000WATRL000000004K00000000000003872015612212015105328N000000000020N40       000260400K 10000000010000003837           
CUS0264600000102053694002         TABANNEJAD MORIS    2714 SMITH AVE                          000N        CARE OF             
MTR02646000001000000000000000RA              00131830    005801460000014600000570000003NN  NNW 000                       N    
RDG02646000WATRL000000004K00000000000000909015412212015105130N000000000000N40       000090400K 10000000010000000886           
CUS0264600000102053695009         RAUSEO WILLIAM STEPH2716 SMITH AVE                          000N        CARE OF             
MTR02646000001000000000000000RA              01073475    005801470000014700000610000003NN  NNW 000                       N    
RDG02646000WATRL000000004K00000000000001430015312212015105121N000000000000N40       000530400K 10000000010000001406           
CUS0264600000102053696007         FRATER NEIL         2718 SMITH AVE                          000N        CARE OF             
MTR02646000001000000000000000RA              31584841    005801480000014800000520000003NN  NNW 000                       N    
RDG02646000WATRL000000004K00000000000004678015212212015105028N000000000000N40       000060400K 10000000010000004671           
CUS0264600000102053697005         AGUILAR JASMIN S    2720 SMITH AVE                          000N        CARE OF             
MTR02646000001000000000000000RA              31584837    005801490000014900000520000003NN  NNW 000                       N    
RDG02646000WATRL000000004K00000000000002994015112212015105022N000000000000N40       000380400K 10000000010000002957           
CUS0264600000102053698003         MARILYN D. CLAWSON  2722 SMITH AVE                          000N        CARE OF             
MTR02646000001000000000000000RA              29402086    005801500000015000000520000003NN  NNW 000                       N    
RDG02646000WATRL000000004K00000000000002629015012212015104944N000000000000N40       000430400K 10000000010000002620           
CUS0264600000102053699001         DONIEL ADLER        2802 SMITH AVE                          000N        CARE OF             
MTR02646000001000000000000000RA              50481341    005801510000015100000520000003NN  NNW 000                       N    
RDG02646000WATRL000000004K00000000000001565016212212015110450N000000000000N40       001410400K 10000000010000001551           
CUS0264600000102053700007         HUSSAIN MOHAMMAD M  2804 SMITH AVE                          000N        CARE OF             
MTR02646000001000000000000000RA              40779727    005801520000015200000520000003NN  NNW 000                       N    
RDG02646000WATRL000000004K00000000000003091016312212015110505N000300000010N40       000150400K 10000000010000003104           
CUS0264600000102053701005         ERDMAN DONALD G     2806 SMITH AVE                          000N        CARE OF             
MTR02646000001000000000000000RA              40779749    005801530000015300000520000003NN  NNW 000                       N    
RDG02646000WATRL000000004K00000000000001457016412212015110559N000000000000N40       000540400K 10000000010000001447           
CUS0264600000102053702003         CONGREGATION OHEL MO2808 SMITH AVE                          000N        CARE OF             
MTR02646000001000000000000000RA              77894235    005801540000015400000360000003NN  NNW 000                       N    
RDG02646000WATRL000000004K00000000000000209014912212015110609N000000000011N40       000100400K 10000000010000000115           
CUS0264600000102053703001         ISENBERG JOSEPH     2724 SMITH AVE                          000N        CARE OF             
MTR02646000001000000000000000RA              20968247    005801550000015500000520000000NN  NNW 000                       N    
RDG02646000WATRL000000004K00000000000003409014812212015104804N000000000000N40       001620400K 10000000010000003375           
CUS0264600000102053704009         ABANTE-GALLARDO KARE6801 TIMBERLANE RD                      000N        CARE OF             
MTR02646000001000000000000000RA              32900042    005801560000015600000520000003NN  NNW 000                       N    
RDG02646000WATRL000000004K00000000000004839010712212015101114N000000000000N40       001350400K 10000000010000004802           
CUS0264600000102053705006         KREYMER LEV         6803 TIMBERLANE RD                      000N        CARE OF             
MTR02646000001000000000000000RA              27212991    005801570000015700000520000003NN  NNW 000                       N    
RDG02646000WATRL000000004K00000000000005002010812212015101125N000000000000N40       000110400K 10000000010000004954           
CUS0264600000102053706004         GAMZEH JOSHUA       6809 TIMBERLANE RD                      000N        CARE OF             
MTR02646000001000000000000000RA              50791623    005801580000015800000520000003NN  NNW 000                       N    
RDG02646000WATRL000000004K00000000000001286011112212015101529N000000000000N40       000350400K 10000000010000001262           
CUS0264600000102053707002         SHERESHEVSKY ARKADY 6811 TIMBERLANE RD                      000N        CARE OF             
MTR02646000001000000000000000RA              00131848    005801590000015900000570000003NN  NNW 000                       N    
RDG02646000WATRL000000004K00000000000002565011212212015101611N000000000000N40       000420400K 10000000010000002429           
CUS0264600000102053708000         REINSTEIN RICHARD M 6813 TIMBERLANE RD                      000N        CARE OF             
MTR02646000001000000000000000RA              41588617    005801600000016000000520000003NN  NNW 000                       N    
RDG02646000WATRL000000004K00000000000001879011312212015101636N000000000000N40       000250400K 10000000010000001872           
CUS0264600000102053709008         PEZESHKI HADI       6815 TIMBERLANE RD                      000N        CARE OF             
MTR02646000001000000000000000RA              00131831    005801610000016100000570000003NN  NNW 000                       N    
RDG02646000WATRL000000004K00000000000001595011412212015101711N000000000000N40       000350400K 10000000010000001559           
CUS0264600000102053710006         IGOR SERY           6817 TIMBERLANE RD                      000N        CARE OF             
MTR02646000001000000000000000RA              30513897    005801620000016200000520000003NN  NNW 000                       N    
RDG02646000WATRL000000004K00000000000002864016112212015110229N000300000010N40       003940400K 10000000010000002795           
CUS0264600000102053711004         NALTY CHARMAINE     6819 TIMBERLANE RD                      000N        CARE OF             
MTR02646000001000000000000000RA              78024130    005801630000016300000350000003NN  NNW 000                       N    
RDG02646000WATRL000000004K00000000000000079011512212015101916N000000000000N40       001250400K 10000000010000000069           
CUS0264600000102053712002         COREY RINGER        6821 TIMBERLANE RD                      000N        CARE OF             
MTR02646000001000000000000000RA              32899457    005801640000016400000520000003NN  NNW 000                       N    
RDG02646000WATRL000000004K00000000000001807011612212015101945N000000000000N40       000290400K 10000000010000001793           
CUS0264600000102053713000         NACHMIAS NITZA      6818 TIMBERLANE RD                      000N        CARE OF             
MTR02646000001000000000000000RA              00131849    005801650000016500000570000003NN  NNW 000                       N    
RDG02646000WATRL000000004K00000000000001281009312212015095959N000000000000N40       001200400K 10000000010000001268           
CUS0264600000102053714008         JOHNSON DARRIN      6816 TIMBERLANE RD                      000N        CARE OF             
MTR02646000001000000000000000RA              14922064    005801660000016600000310000003NN  NNW 000                       N    
RDG02646000WATRL000000004K00000000000001305009412212015100036N000000000000N40       000370400K 10000000010000001263           
CUS0264600000102053715005         SHALEV ARYE ERIC    6814 TIMBERLANE RD                      000N        CARE OF             
MTR02646000001000000000000000RA              41588660    005801670000016700000520000003NN  NNW 000                       N    
RDG02646000WATRL000000004K00000000000002437009512212015100103N000000000000N40       000270400K 10000000010000002415           
CUS0264600000102053716003         DAVID KASTNER       6812 TIMBERLANE RD                      000N        CARE OF             
MTR02646000001000000000000000RA              33079572    005801680000016800000520000003NN  NNW 000                       N    
RDG02646000WATRL000000004K00000000000002172009612212015100129N000000000000N40       000260400K 10000000010000002151           
CUS0264600000102053717001         TOIBMAN HERSH       6810 TIMBERLANE RD                      000N        CARE OF             
MTR02646000001000000000000000RA              41588612    005801690000016900000520000003NN  NNW 000                       N    
RDG02646000WATRL000000004K00000000000001456009712212015100203N000000000000N40       000340400K 10000000010000001439           
CUS0264600000102053718009         BENJAMIN MOSS       6808 TIMBERLANE RD                      000N        CARE OF             
MTR02646000001000000000000000RA              44092707    005801700000017000000520000003NN  NNW 000                       N    
RDG02646000WATRL000000004K00000000000002025009812212015100246N000300000010N40       000430400K 10000000010000001989           
CUS0264600000102053719007         NIYAZOVA NINA       6806 TIMBERLANE RD                      000N        CARE OF             
MTR02646000001000000000000000RA              10013137    005801710000017100000570000003NN  NNW 000                       N    
RDG02646000WATRL000000004K00000000000000223009912212015100334N000000000000N40       000480400K 10000000010000000210           
CUS0264600000102053720005         SHORR JONATHAN L    6804 TIMBERLANE RD                      000N        CARE OF             
MTR02646000001000000000000000RA              41588662    005801720000017200000520000003NN  NNW 000                       N    
RDG02646000WATRL000000004K00000000000002504010012212015100409N000000000000N40       000350400K 10000000010000002484           
CUS0264600000102053721003         MESSICK STEVEN D    6802 TIMBERLANE RD                      000N        CARE OF             
MTR02646000001000000000000000RA              23427285    005801730000017300000520000003NN  NNW 000                       N    
RDG02646000WATRL000000004K00000000000004603010112212015100534N000000000011N40       000200400K 10000000010000004565           
CUS0264600000102053722001         INDENBAUM MIKHAIL   6705 LAURELWOOD AVE                     000N        CARE OF             
MTR02646000001000000000000000RA              30513896    005801740000017400000520000003NN  NNW 000                       N    
RDG02646000WATRL000000004K00000000000004244010212212015100650N000000000000N40       000760400K 10000000010000004228           
CUS0264600000102053723009         SIEGEL SETH A       6707 LAURELWOOD AVE                     000N        CARE OF             
MTR02646000001000000000000000RA              48589502    005801750000017500000520000003NN  NNW 000                       N    
RDG02646000WATRL000000004K00000000000001478010312212015100716N000000000000N40       000260400K 10000000010000001455           
CUS0264600000102053724007         DANIELS MAURICE L   6709 LAURELWOOD AVE                     000N        CARE OF             
MTR02646000001000000000000000RA              44093138    005801760000017600000520000003NN  NNW 000                       N    
RDG02646000WATRL000000004K00000000000001672010412212015100800N000000000000N40       000440400K 10000000010000001658           
CUS0264600000102053725004         KARLIP FRED         6711 LAURELWOOD AVE                     000N        CARE OF             
MTR02646000001000000000000000RA              32898103    005801770000017700000520000003NN  NNW 000                       N    
RDG02646000WATRL000000004K00000000000003927010512212015100807N000000000000N40       000070400K 10000000010000003901           
CUS0264600000102053726002         LEVENTER MARVIN     6713 LAURELWOOD AVE                     000N        CARE OF             
MTR02646000001000000000000000RA              24765820    005801780000017800000520000003NN  NNW 000                       N    
RDG02646000WATRL000000004K00000000000005051010612212015100859N000000000000N40       000520400K 10000000010000005030           
RTR02646000NN01780178000001780000000001780178000178NY017801780178000000000000000000000000000001    11182015NY020000 N         
RHD02647100NN02860286000002860000000002860286000217NY028602860286000000000000000000000000000001    11182015NY020000 N         
CUS0264710000102415447008         PURISCH IRMA        2 SANDVIEW CT                           000N        CARE OF             
MTR02647100001000000000000000RA              50384205    000100010000000100000520000003NN  NNW 000                       N    
RDG02647100WATRL000000004K00000000000001517000212212015083718N000000000000U20       017220400K 10000000010000001501           
CUS0264710000102415446000         BEARMAN MICHAEL     4 SANDVIEW CT                           000N        CARE OF             
MTR02647100001000000000000000RA              46288089    000100020000000200000520000003NN  NNW 000                       N    
RDG02647100WATRL000000004K00000000000001728000312212015083724N000000000000U20       000060400K 10000000010000001713           
CUS0264710000102415445002         WITENSTEIN-WEAVER JA6 SANDVIEW CT                           000N        CARE OF             
MTR02647100001000000000000000RA              46288083    000100030000000300000520000003NN  NNW 000                       N    
RDG02647100WATRL000000004K00000000000001336000412212015083732N000400000030U20       000080400K 10000000010000001331           
CUS0264710000102415444005         ZAK MICHAEL         8 SANDVIEW CT                           000N        CARE OF             
MTR02647100001000000000000000RA              00165284    000100040000000400000570000003NN  NNW 000                       N    
RDG02647100WATRL000000004K00000000000000758000512212015083742N000300000030U20       000100400K 10000000010000000742           
CUS0264710000102415443007         OBOT ISIDORE S      10 SANDVIEW CT                          000N        CARE OF             
MTR02647100001000000000000000RA              47377104    000100050000000500000520000003NN  NNW 000                       N    
RDG02647100WATRL000000004K00000000000000896000612212015083744N000000000000U20       000020400K 10000000010000000883           
CUS0264710000102415442009         PESIN LENNY         12 SANDVIEW CT                          000N        CARE OF             
MTR02647100001000000000000000RA              47377196    000100060000000600000520000003NN  NNW 000                       N    
RDG02647100WATRL000000004K00000000000001329000712212015083747N000000000000U20       000030400K 10000000010000001320           
CUS0264710000102415441001         RADAMS YURI         14 SANDVIEW CT                          000N        CARE OF             
MTR02647100001000000000000000RA              47377097    000100070000000700000520000003NN  NNW 000                       N    
RDG02647100WATRL000000004K00000000000001445000812212015083749N000000000000U20       000020400K 10000000010000001428           
CUS0264710000102415440003         CROSBY STEPHEN J    16 SANDVIEW CT                          000N        CARE OF             
MTR02647100001000000000000000RA              48581033    000100080000000800000520000003NN  NNW 000                       N    
RDG02647100WATRL000000004K00000000000001313000912212015083751N000000000000U20       000020400K 10000000010000001303           
CUS0264710000102415439005         RIFKIND NICHOLAI    18 SANDVIEW CT                          000N        CARE OF             
MTR02647100001000000000000000RA              48581032    000100090000000900000520000003NN  NNW 000                       N    
RDG02647100WATRL000000004K00000000000001726001012212015083754N000000000000U20       000030400K 10000000010000001708           
CUS0264710000102415438007         MORGAN DAPHNE       20 SANDVIEW CT                          000N        CARE OF             
MTR02647100001000000000000000RA              48581035    000100100000001000000520000003NN  NNW 000                       N    
RDG02647100WATRL000000004K00000000000001046001112212015083803N000000000000U20       000090400K 10000000010000001031           
CUS0264710000102415437009         GOMELSKY ALEXANDER  22 SANDVIEW CT                          000N        CARE OF             
MTR02647100001000000000000000RA              47377111    000100110000001100000520000003NN  NNW 000                       N    
RDG02647100WATRL000000004K00000000000001546001212212015083808N000000000000U20       000050400K 10000000010000001526           
CUS0264710000102415436001         KLEIN JEROME        24 SANDVIEW CT                          000N        CARE OF             
MTR02647100001000000000000000RA              48581024    000100120000001200000520000003NN  NNW 000                       N    
RDG02647100WATRL000000004K00000000000001908001312212015083810N000000000000U20       000020400K 10000000010000001897           
CUS0264710000102415435003         RAKHAMIMOV ELCHIN   26 SANDVIEW CT                          000N        CARE OF             
MTR02647100001000000000000000RA              48581025    000100130000001300000520000003NN  NNW 000                       N    
RDG02647100WATRL000000004K00000000000002159001412212015083813N000000000000U20       000030400K 10000000010000002135           
CUS0264710000102415434006         ROSEN JARED A       28 SANDVIEW CT                          000N        CARE OF             
MTR02647100001000000000000000RA              51447298    000100140000001400000520000003NN  NNW 000                       N    
RDG02647100WATRL000000004K00000000000001735001512212015083815N000000000000U20       000020400K 10000000010000001715           
CUS0264710000102415433008         MARK KRAVETS        11 SANDVIEW CT                          000N        CARE OF             
MTR02647100001000000000000000RA              46288053    000100150000001500000520000003NN  NNW 000                       N    
RDG02647100WATRL000000004K00000000000002113001612212015083819N000000000000U20       000040400K 10000000010000002083           
CUS0264710000102415432000         MAYYA LADYZHENSKAY  9 SANDVIEW CT                           000N        CARE OF             
MTR02647100001000000000000000RA              46288082    000100160000001600000520000003NN  NNW 000                       N    
RDG02647100WATRL000000004K00000000000001806001712212015083822N000000000000U20       000030400K 10000000010000001799           
CUS0264710000102415431002         KORPHAGE ERIC G     7 SANDVIEW CT                           000N        CARE OF             
MTR02647100001000000000000000RA              46288066    000100170000001700000520000003NN  NNW 000                       N    
RDG02647100WATRL000000004K00000000000001347001812212015083825N000000000000U20       000030400K 10000000010000001339           
CUS0264710000102415430004         BORODKIN ALEKSEY M  5 SANDVIEW CT                           000N        CARE OF             
MTR02647100001000000000000000RA              46288049    000100180000001800000520000003NN  NNW 000                       N    
RDG02647100WATRL000000004K00000000000001280001912212015083830N000000000000U20       000050400K 10000000010000001266           
CUS0264710000102415429006         RACHETTA PAUL       3 SANDVIEW CT                           000N        CARE OF             
MTR02647100001000000000000000RA              50384826    000100190000001900000520000003NN  NNW 000                       N    
RDG02647100WATRL000000004K00000000000000970002012212015083834N000000000000U20       000040400K 10000000010000000944           
CUS0264710000102415428008         GEORGE BENJAMIN     1 SANDVIEW CT                           000N        CARE OF             
MTR02647100001000000000000000RA              46288067    000100200000002000000520000003NN  NNW 000                       N    
RDG02647100WATRL000000004K00000000000001678002112212015083837N000000000000U20       000030400K 10000000010000001665           
CUS0264710000102417654007         HODNICKI ANDREW C,JR2 IRONWOOD CIR                          000N        CARE OF             
MTR02647100001000000000000000RA              50384223    000100210000002100000520000003NN  NNW 000                       N    
RDG02647100WATRL000000004K00000000000002136000711302015130632N000000000000N20       000280400K 10000000010000002125           
CUS0264710000102417655004         MELKUMOV SERGEY     4 IRONWOOD CIR                          000N        CARE OF             
MTR02647100001000000000000000RA              50384195    000100220000002200000520000003NN  NNW 000                       N    
RDG02647100WATRL000000004K00000000000001956000811302015130731N000000000030N20       000590400K 10000000010000001945           
CUS0264710000102417656002         OZ RAUSIM           6 IRONWOOD CIR                          000N        CARE OF             
MTR02647100001000000000000000RA              50384222    000100230000002300000520000003NN  NNW 000                       N    
RDG02647100WATRL000000004K00000000000000995000911302015130736N000000000000N20       000050400K 10000000010000000989           
CUS0264710000102417657000         KATSNELSON MOYSEY   8 IRONWOOD CIR                          000N        CARE OF             
MTR02647100001000000000000000RA              50384214    000100240000002400000520000003NN  NNW 000                       N    
RDG02647100WATRL000000004K00000000000001149001011302015130807N000000000000N20       000310400K 10000000010000001137           
CUS0264710000102417658008         MENAKA SIRTHARA     10 IRONWOOD CIR                         000N        CARE OF             
MTR02647100001000000000000000RA              50384215    000100250000002500000520000003NN  NNW 000                       N    
RDG02647100WATRL000000004K00000000000001158001111302015130809N000000000000N20       000020400K 10000000010000001145           
CUS0264710000102417659006         HICKS HERMIONE M    12 IRONWOOD CIR                         000N        CARE OF             
MTR02647100001000000000000000RA              50384194    000100260000002600000520000003NN  NNW 000                       N    
RDG02647100WATRL000000004K00000000000002136001211302015130839N000000000001N20       000080400K 10000000010000002112           
CUS0264710000102417660004         PEVZNER BORIS       14 IRONWOOD CIR                         000N        CARE OF             
MTR02647100001000000000000000RA              50384200    000100270000002700000520000003NN  NNW 000                       N    
RDG02647100WATRL000000004K00000000000001238001311302015130903N000000000000N20       000240400K 10000000010000001220           
CUS0264710000102417700008         NOVABOS JUNITHA D   16 IRONWOOD CIR                         000N        CARE OF             
MTR02647100001000000000000000RA              50384201    000100280000002800000520000003NN  NNW 000                       N    
RDG02647100WATRL000000004K00000000000001654001411302015130906N000000000000N20       000030400K 10000000010000001636           
CUS0264710000102417661002         MARIASUSAI FRANCISCA18 IRONWOOD CIR                         000N        CARE OF             
MTR02647100001000000000000000RA              50384206    000100290000002900000520000003NN  NNW 000                       N    
RDG02647100WATRL000000004K00000000000001056001511302015130938N000000000000N20       000320400K 10000000010000001039           
CUS0264710000102417662000         CAPUTO JOSEPH A     20 IRONWOOD CIR                         000N        CARE OF             
MTR02647100001000000000000000RA              50384207    000100300000003000000520000003NN  NNW 000                       N    
RDG02647100WATRL000000004K00000000000001378001611302015130940N000000000000N20       000020400K 10000000010000001358           
CUS0264710000102417663008         GERSON ARLENE C     22 IRONWOOD CIR                         000N        CARE OF             
MTR02647100001000000000000000RA              50384199    000100310000003100000520000003NN  NNW 000                       N    
RDG02647100WATRL000000004K00000000000000540001711302015131011N000000000000N20       000310400K 10000000010000000538           
CUS0264710000102417664006         FEDDERMAN KATHY     24 IRONWOOD CIR                         000N        CARE OF             
MTR02647100001000000000000000RA              50384204    000100320000003200000520000003NN  NNW 000                       N    
RDG02647100WATRL000000004K00000000000001445001811302015131014N000000000000N20       000030400K 10000000010000001434           
CUS0264710000102417665003         AGRANOVICH LEONID JA26 IRONWOOD CIR                         000N        CARE OF             
MTR02647100001000000000000000RA              50384198    000100330000003300000520000003NN  NNW 000                       N    
RDG02647100WATRL000000004K00000000000000923001911302015131046N000000000000N20       000320400K 10000000010000000906           
CUS0264710000102417679004         KRAUSE AARON  KRAUSE30 IRONWOOD CIR                         000N        CARE OF             
MTR02647100001000000000000000RA              36699580    000100340000003400000520000003NN  NNW 000                       N    
RDG02647100WATRL000000004K00000000000001489003111302015131555N000000000000N20       000610400K 10000000010000001472           
CUS0264710000102417680002         KAHLENBERG LYNN     32 IRONWOOD CIR                         000N        CARE OF             
MTR02647100001000000000000000RA              48581552    000100350000003500000520000003NN  NNW 000                       N    
RDG02647100WATRL000000004K00000000000000545003211302015131609N000000000000N20       000140400K 10000000010000000539           
CUS0264710000102417681000         POLAND LISA A       34 IRONWOOD CIR                         000N        CARE OF             
MTR02647100001000000000000000RA              48581569    000100360000003600000520000003NN  NNW 000                       N    
RDG02647100WATRL000000004K00000000000000727003311302015131611N000000000000N20       000020400K 10000000010000000718           
CUS0264710000102417682008         ALVAREZ MARTA       36 IRONWOOD CIR                         000N        CARE OF             
MTR02647100001000000000000000RA              48581568    000100370000003700000520000003NN  NNW 000                       N    
RDG02647100WATRL000000004K00000000000000684003411302015131634N000000000000N20       000230400K 10000000010000000682           
CUS0264710000102417683006         STANNE WENDY        38 IRONWOOD CIR                         000N        CARE OF             
MTR02647100001000000000000000RA              48581553    000100380000003800000520000003NN  NNW 000                       N    
RDG02647100WATRL000000004K00000000000000391003511302015131636N000000000000N20       000020400K 10000000010000000388           
CUS0264710000102417684004         LIMBURG DAVID B     40 IRONWOOD CIR                         000N        CARE OF             
MTR02647100001000000000000000RA              37690916    000100390000003900000520000003NN  NNW 000                       N    
RDG02647100WATRL000000004K00000000000001207003611302015131655N000000000000N20       000190400K 10000000010000001195           
CUS0264710000102417685001         KESSELMAN DAVID     42 IRONWOOD CIR                         000N        CARE OF             
MTR02647100001000000000000000RA              48581917    000100400000004000000520000003NN  NNW 000                       N    
RDG02647100WATRL000000004K00000000000001484003711302015131703N000000000000N20       000080400K 10000000010000001472           
CUS0264710000102417686009         LEYBELMAN YAKOV     44 IRONWOOD CIR                         000N        CARE OF             
MTR02647100001000000000000000RA              44782191    000100410000004100000520000003NN  NNW 000                       N    
RDG02647100WATRL000000004K00000000000001276003811302015131730N000000000000N20       000270400K 10000000010000001264           
CUS0264710000102417687007         HAN XIAO            46 IRONWOOD CIR                         000N        CARE OF             
MTR02647100001000000000000000RA              36699920    000100420000004200000520000003NN  NNW 000                       N    
RDG02647100WATRL000000004K00000000000000827003911302015131750N000000000001N20       000170400K 10000000010000000818           
CUS0264710000102417699002         CHERYL K. BLANCO    48 IRONWOOD CIR                         000N        CARE OF             
MTR02647100001000000000000000RA              36699747    000100430000004300000520000003NN  NNW 000                       N    
RDG02647100WATRL000000004K00000000000000868004011302015131807N000000000000N20       000170400K 10000000010000000866           
CUS0264710000102417688005         ZEYFMAN ALEXANDER   50 IRONWOOD CIR                         000N        CARE OF             
MTR02647100001000000000000000RA              24815071    000100440000004400000520000003NN  NNW 000                       N    
RDG02647100WATRL000000004K00000000000001346004111302015131814N000000000000N20       000070400K 10000000010000001333           
CUS0264710000102417689003         BEARDSLEY SAMUEL F  52 IRONWOOD CIR                         000N        CARE OF             
MTR02647100001000000000000000RA              48581407    000100450000004500000520000003NN  NNW 000                       N    
RDG02647100WATRL000000004K00000000000001213004211302015131830N000000000000N20       000160400K 10000000010000001201           
CUS0264710000102417690001         KLEEMAN BRANDON A   54 IRONWOOD CIR                         000N        CARE OF             
MTR02647100001000000000000000RA              29074667    000100460000004600000520000003NN  NNW 000                       N    
RDG02647100WATRL000000004K00000000000001641004311302015131833N000000000000N20       000030400K 10000000010000001621           
CUS0264710000102417695000         HERNANDEZ MARY M    56 IRONWOOD CIR                         000N        CARE OF             
MTR02647100001000000000000000RA              50384170    000100470000004700000520000003NN  NNW 000                       N    
RDG02647100WATRL000000004K00000000000001491004411302015131904N000000000000N20       000310400K 10000000010000001470           
CUS0264710000102417696008         VADIM RONZHES       58 IRONWOOD CIR                         000N        CARE OF             
MTR02647100001000000000000000RA              50384171    000100480000004800000520000003NN  NNW 000                       N    
RDG02647100WATRL000000004K00000000000001299004511302015131907N000000000000N20       000030400K 10000000010000001280           
CUS0264710000102417697006         MARTIN PATRICIA E   60 IRONWOOD CIR                         000N        CARE OF             
MTR02647100001000000000000000RA              50384190    000100490000004900000520000003NN  NNW 000                       N    
RDG02647100WATRL000000004K00000000000001350004611302015131928N000000000000N20       000210400K 10000000010000001338           
CUS0264710000102419348004         SIMON ILSE S        62 IRONWOOD CIR                         000N        CARE OF             
MTR02647100001000000000000000RA              50384161    000100500000005000000520000003NN  NNW 000                       N    
RDG02647100WATRL000000004K00000000000000471004711302015131932N000000000000N20       000040400K 10000000010000000466           
CUS0264710000102417698004         MARGARET K GROSS    64 IRONWOOD CIR                         000N        CARE OF             
MTR02647100001000000000000000RA              50384177    000100510000005100000520000003NN  NNW 000                       N    
RDG02647100WATRL000000004K00000000000001270004811302015131952N000000000000N20       000200400K 10000000010000001257           
CUS0264710000102417691009         KAUFMAN FRANK M     51 IRONWOOD CIR                         000N        CARE OF             
MTR02647100001000000000000000RA              50384228    000100520000005200000520000003NN  NNW 000                       N    
RDG02647100WATRL000000004K00000000000001424003011302015131454N000000000000N20       000030400K 10000000010000001402           
CUS0264710000102417692007         SHEFLYAND GREGORY   49 IRONWOOD CIR                         000N        CARE OF             
MTR02647100001000000000000000RA              50384226    000100530000005300000520000003NN  NNW 000                       N    
RDG02647100WATRL000000004K00000000000003160002911302015131451N000000000000N20       000230400K 10000000010000003150           
CUS0264710000102417693005         KHUVIS IGOR         47 IRONWOOD CIR                         000N        CARE OF             
MTR02647100001000000000000000RA              50384262    000100540000005400000520000003NN  NNW 000                       N    
RDG02647100WATRL000000004K00000000000002225002811302015131428N000000000000N20       000020400K 10000000010000002206           
CUS0264710000102417694003         MAHESHWARI ANURAG   45 IRONWOOD CIR                         000N        CARE OF             
MTR02647100001000000000000000RA              50384263    000100550000005500000520000003NN  NNW 000                       N    
RDG02647100WATRL000000004K00000000000001067002711302015131426N000000000000N20       000320400K 10000000010000001067           
CUS0264710000102417678006         SHIFRIN OLEG        43 IRONWOOD CIR                         000N        CARE OF             
MTR02647100001000000000000000RA              50000440    000100560000005600000570000003NN  NNW 000                       N    
RDG02647100WATRL000000004K00000000000000160002611302015131354N000000000000N20       000270400K 10000000010000000146           
CUS0264710000102417677008         ATTA MOHAMED        41 IRONWOOD CIR                         000N        CARE OF             
MTR02647100001000000000000000RA              48581949    000100570000005700000520000003NN  NNW 000                       N    
RDG02647100WATRL000000004K00000000000001924002511302015131327N000000000000N20       000260400K 10000000010000001903           
CUS0264710000102417676000         CHRISTINE CRAIG     39 IRONWOOD CIR                         000N        CARE OF             
MTR02647100001000000000000000RA              48581948    000100580000005800000520000003NN  NNW 000                       N    
RDG02647100WATRL000000004K00000000000001385002411302015131301N000000000000N20       000030400K 10000000010000001372           
CUS0264710000102417675002         MICHAEL F GRIER     37 IRONWOOD CIR                         000N        CARE OF             
MTR02647100001000000000000000RA              48581984    000100590000005900000520000003NN  NNW 000                       N    
RDG02647100WATRL000000004K00000000000001305002311302015131258N000000000000N20       000210400K 10000000010000001293           
CUS0264710000102417674005         MORGANSTEIN HARRIET 35 IRONWOOD CIR                         000N        CARE OF             
MTR02647100001000000000000000RA              48581985    000100600000006000000520000003NN  NNW 000                       N    
RDG02647100WATRL000000004K00000000000000551002211302015131237N000000000010N20       000110400K 10000000010000000546           
CUS0264710000102417673007         LOWENTRITT BENJAMIN 33 IRONWOOD CIR                         000N        CARE OF             
MTR02647100001000000000000000RA              48581934    000100610000006100000520000003NN  NNW 000                       N    
RDG02647100WATRL000000004K00000000000001258002111302015131226N000000000000N20       000210400K 10000000010000001243           
CUS0264710000102417672009         BEATY NARLIN B      31 IRONWOOD CIR                         000N        CARE OF             
MTR02647100001000000000000000RA              48581935    000100620000006200000520000003NN  NNW 000                       N    
RDG02647100WATRL000000004K00000000000001691002011302015131205N000000000010N20       000790400K 10000000010000001673           
CUS0264710000102417666001         ELANA N CAVALIER    11 IRONWOOD CIR                         000N        CARE OF             
MTR02647100001000000000000000RA              48581232    000100630000006300000520000003NN  NNW 000                       N    
RDG02647100WATRL000000004K00000000000001212000611302015130604N000000000010N20       000250400K 10000000010000001148           
CUS0264710000102417667009         KAIXIAN LIU         9 IRONWOOD CIR                          000N        CARE OF             
MTR02647100001000000000000000RA              48581233    000100640000006400000520000003NN  NNW 000                       N    
RDG02647100WATRL000000004K00000000000001221000511302015130539N000000000000N20       000020400K 10000000010000001207           
CUS0264710000102417668007         NOZHNITSKIY ARNOLD G7 IRONWOOD CIR                          000N        CARE OF             
MTR02647100001000000000000000RA              48581234    000100650000006500000520000003NN  NNW 000                       N    
RDG02647100WATRL000000004K00000000000001802000411302015130537N000000000000N20       000190400K 10000000010000001785           
CUS0264710000102417669005         CAPLAN ILENE L      5 IRONWOOD CIR                          000N        CARE OF             
MTR02647100001000000000000000RA              48581206    000100660000006600000520000003NN  NNW 000                       N    
RDG02647100WATRL000000004K00000000000001304000311302015130518N000000000000N20       000020400K 10000000010000001290           
CUS0264710000102417670003         SCHECTMAN CLAIRE    3 IRONWOOD CIR                          000N        CARE OF             
MTR02647100001000000000000000RA              48581235    000100670000006700000520000003NN  NNW 000                       N    
RDG02647100WATRL000000004K00000000000002096000211302015130516N000000000000N20       000110400K 10000000010000002076           
CUS0264710000102417671001         LONG SETH           1 IRONWOOD CIR                          000N        CARE OF             
MTR02647100001000000000000000RA              48581203    000100680000006800000520000003NN  NNW 000                       N    
RDG02647100WATRL000000004K00000000000000944000111302015130505N000000000000N20       000000400K 10000000010000000931           
CUS0264710000102403520006         SANDLER IAN B       1 PAR THREE WAY                         000N        CARE OF             
MTR02647100001000000000000000RA              36688525    005800690000006900000520000003NN  NNW 000                       N    
RDG02647100WATRL000000004K00000000000002522008011302015133212N000000000000N20       000240400K 10000000010000002512           
CUS0264710000102403521004         SUMLUT GOON A       3 PAR THREE WAY                         000N        CARE OF             
MTR02647100001000000000000000RA              44089856    005800700000007000000520000003NN  NNW 000                       N    
RDG02647100WATRL000000004K00000000000002302007911302015133148N000000000000N20       000040400K 10000000010000002265           
CUS0264710000102403522002         KRISTOPHER S. WEIDNE5 PAR THREE WAY                         000N        CARE OF             
MTR02647100001000000000000000RA              44089857    005800710000007100000520000003NN  NNW 000                       N    
RDG02647100WATRL000000004K00000000000002152007811302015133144N000000000000N20       000300400K 10000000010000002136           
CUS0264710000102403523000         GOTTFRIED ALAN S    7 PAR THREE WAY                         000N        CARE OF             
MTR02647100001000000000000000RA              44089852    005800720000007200000520000003NN  NNW 000                       N    
RDG02647100WATRL000000004K00000000000002437007711302015133114N000000000000N20       000020400K 10000000010000002425           
CUS0264710000102403524008         KRAVETS VLADIMIR    9 PAR THREE WAY                         000N        CARE OF             
MTR02647100001000000000000000RA              44089855    005800730000007300000520000003NN  NNW 000                       N    
RDG02647100WATRL000000004K00000000000002692007611302015133112N000000000000N20       000330400K 10000000010000002656           
CUS0264710000102403525005         AMELIA T ROSE       11 PAR THREE WAY                        000N        CARE OF             
MTR02647100001000000000000000RA              44089853    005800740000007400000520000003NN  NNW 000                       N    
RDG02647100WATRL000000004K00000000000001741007511302015133039N000000000000N20       000020400K 10000000010000001726           
CUS0264710000102403526003         ROSS JACLYN         13 PAR THREE WAY                        000N        CARE OF             
MTR02647100001000000000000000RA              14930567    005800750000007500000310000003NN  NNW 000                       N    
RDG02647100WATRL000000004K00000000000000899007411302015133037N000000000000N20       000290400K 10000000010000000881           
CUS0264710000102403513001         KIRK HOWARD A       14 PAR THREE WAY                        000N        CARE OF             
MTR02647100001000000000000000RA              45379484    005800760000007600000520000003NN  NNW 000                       N    
RDG02647100WATRL000000004K00000000000002375007311302015133008N000000000000N20       000180400K 10000000010000002357           
CUS0264710000102403514009         HORVITZ ALLEN N     12 PAR THREE WAY                        000N        CARE OF             
MTR02647100001000000000000000RA              45377971    005800770000007700000520000003NN  NNW 000                       N    
RDG02647100WATRL000000004K00000000000001438007111302015132939N000000000000N20       000470400K 10000000010000001401           
CUS0264710000102403515006         HUANG MARK P        10 PAR THREE WAY                        000N        CARE OF             
MTR02647100001000000000000000RA              45377966    005800780000007800000520000003NN  NNW 000                       N    
RDG02647100WATRL000000004K00000000000002090007211302015132950N000000000000N20       000110400K 10000000010000002071           
CUS0264710000102403516004         JEWELYROSE P DUNN   8 PAR THREE WAY                         000N        CARE OF             
MTR02647100001000000000000000RA              45377975    005800790000007900000520000003NY  NNW 000                       N    
MTM0264710045377975    78005862                                                                                               
RDG02647100WATRL000000004K00000000000000006007011302015132852N000304100010N20       000080400K 10000000010000001966           
CUS0264710000102403517002         LIEBERMAN SHELLY    6 PAR THREE WAY                         000N        CARE OF             
MTR02647100001000000000000000RA              45377968    005800800000008000000520000003NN  NNW 000                       N    
RDG02647100WATRL000000004K00000000000001033006911302015132844N000000000000N20       000110400K 10000000010000001022           
CUS0264710000102403518000         DIFILIPPO SARA A    4 PAR THREE WAY                         000N        CARE OF             
MTR02647100001000000000000000RA              75614394    005800810000008100000350000003NN  NNW 000                       N    
RDG02647100WATRL000000004K00000000000000160006811302015132833N000000000000N20       000190400K 10000000010000000133           
CUS0264710000102403519008         JOHN M MCGRAW       2 PAR THREE WAY                         000N        CARE OF             
MTR02647100001000000000000000RA              45377967    005800820000008200000520000003NN  NNW 000                       N    
RDG02647100WATRL000000004K00000000000001728006711302015132814N000000000000N20       000700400K 10000000010000001717           
CUS0264710000102420420008         LAW DAVID A         2 DEAVEN CT                             000N        CARE OF             
MTR02647100001000000000000000RA              50384156    000100830000008300000520000003NN  NNW 000                       N    
