FHDNNNN019003129003129003205N                                                                                           010733
RHD09001000NN00970107000000970000001000950095000030NY009500950107000400140000000000000000000001    12112015NY020000 N         
CUS0900100000109255549009         MAYOR & CITY COUNCIL601 N CENTRAL AVE                       000N        CARE OF             
MTR09001000001000000000000000RA              36696478    005800010000000100000520000003NN  NNW 000   INVALID DAC         N    
RDG09001000WATRL000000004K00000000000000000000112232015115938S022000000001U91       000380400K 10000000010000000000           
CUS0900100000109255550007         MAYOR & CITY COUNCILNEC CENTRAL AV &                        000N        CARE OF             
MTR09001000001000000000000000RA              01092641    005800020000000200000610000003NN  NNW 000                       N    
RDG09001000WATRL000000004K00000000000000000000212232015115630S005000000000U91       000030400K 10000000010000000140           
CUS0900100000109412225006         MASS TRANSIT ADM    18 N EDEN ST                            000N        CARE OF             
MTR09001000001000000000000000RA              8030501     000600030000000300000380000003NN  NNW 000   FIRE SERVICE        N    
RDG09001000WATRL000000006K00000000000000171000312232015115645N000000000000U91       000150600K 10000000010000000171           
CUS0900100000109412227002         MASS TRANSIT ADMIN  18 N EDEN ST                            000N        CARE OF             
MTR09001000001000000000000000RA              01092794    005800040000000400000610000003NN  NNW 000                       N    
RDG09001000WATRL000000004K00000000000000000000412232015115648N000000000000U91       000030400K 10000000010000000000           
CUS0900100000109255552003         HERMAN L. ROSSMARK R1310-1318 E BALTIMORE ST                000N        CARE OF             
MTR09001000001000000000000000RA              39583507    005800050000000500000520000003NN  NNW 000   VACANT PROPERTY     N    
RDG09001000WATRL000000004K00000000000000000000512232015115652S022000000000U91       000040400K 10000000010000000000           
CUS0900100000109414159005         WASHINGTON SQUARE CO1400 E BALTIMORE ST                     000N        CARE OF             
MTR09001000001000000000000000RA              35116821    000200060000000600000520000003NN  NNW 000                       N    
RDG09001000WATRL000000005K00000000000010201000612232015115700N000000000000U91       000080500K 10000000010000010043           
CUS0900100000109414158007         WASHINGTON SQUARE CO1416 E BALTIMORE ST                     000N        CARE OF             
MTR09001000001000000000000000RA              35116869    000200070000000700000520000003NN  NNW 000                       N    
RDG09001000WATRL000000005K00000000000009029000712232015115710N000000000000U91       000100500K 10000000010000008968           
CUS0900100000109255555006         ALLY CAT, LLC       1323 E LOMBARD ST                       000N        CARE OF             
MTR09001000001000000000000000RA              99999999    005800080000000800000620000003NN  NNW 000                       N    
RDG09001000WATRL000000004K00000000000000000000812232015115713S022000000000U91       000030400K 10000000010000000000           
CUS0900100000109435661005         1730 BANK ST LLC    1732 BANK ST                            000N        CARE OF             
MTR09001000001000000000000000RA              01117187    000200090000000900000610000000NN  NNW 000                       N    
RDG09001000WATRL000000005K00000000000001187000912232015115722N000300000010U91       000090500K 10000000010000001161           
CUS0900100000109257374000         HOUSING AUTHORITY   1500 BANK ST                            000N        CARE OF             
MTR09001000001000000000000000RA              7126244     000300100000001000000640000003NN  NNW 000                       N    
RDG09001000WATRL000000005K00000000000074279001012232015115731N000000000000U91       000090500K 10000000010000069871           
CUS0900100000109257373002         HOUSING AUTHORITY   1400 BANK ST                            000N        CARE OF             
MTR09001000001000000000000000RA              1365776     000300110000001100000490000003NY  NNW 000                       N    
MTM090010001365776     ok                                                                                                     
RDG09001000WATRL000000005K00000000000065551001112232015115747N000100000010U91       000160500K 10000000010000065551           
CUS0900100000109257372004         HOUSING AUTHORITY   1401 E PRATT ST                         000N        CARE OF             
MTR09001000001000000000000000RA              9103175     000300120000001200000640000003NN  NNW 000                       N    
RDG09001000WATRL000000005K00000000000014768001212232015115756N000000000000U91       000090500K 10000000010000014413           
CUS0900100000109257371006         HABC                1401 E PRATT ST                         000N        CARE OF             
MTR09001000001000000000000000RA              9310115     000400130000001300000640000003NN  NNW 000                       N    
RDG09001000WATRL000000006K00000000000050111001312232015115807N000000000000U91       000110600K 10000000010000043284           
CUS0900100000109257370008         HOUSING AUTHORITY   1501 E PRATT ST                         000N        CARE OF             
MTR09001000001000000000000000RA              9108027     000300140000001400000640000003NY  NNW 000                       N    
MTM090010009108027     ok                                                                                                     
RDG09001000WATRL000000005K00000000000093442001412232015115830N000300000010U91       000230500K 10000000010000103054           
CUS0900100000109257369000         HOUSING AUTHORITY   1501 E PRATT ST                         000N        CARE OF             
MTR09001000001000000000000000RA              9216230     000400150000001500000640000003NN  NNW 000                       N    
RDG09001000WATRL000000006K00000000000093676001512232015115849N000000000000U91       000190600K 10000000010000086490           
CUS0900100000109257368002         HABC                1601 E PRATT ST                         000N        CARE OF             
MTR09001000001000000000000000RA              7157164     000400160000001600000640000003NN  NNW 000                       N    
RDG09001000WATRL000000006K00000000000023025001612232015115900N000000000000U91       000110600K 10000000010000021804           
CUS0900100000109257367004         HOUSING AUTHORITY   1601 E PRATT ST                         000N        CARE OF             
MTR09001000001000000000000000RA              1197227     000400170000001700000490000003NN  NNW 000                       N    
RDG09001000WATRL000000006K00000000000000000001712232015115959S005000000000U91       000210600K 10000000010000049817           
CUS0900100000109257376005         HABC                1401 E PRATT ST                         000N        CARE OF             
MTR09001000001000000000000000RA              1199144     000300180000001800000490000003NY  NNW 000                       N    
MTM090010001199144     ok                                                                                                     
RDG09001000WATRL000000005K00000000000000000001812232015120006N000000000000U91       000070500K 10000000010000000000           
CUS0900100000109257375007         HOUSING AUTHORITY   1501 E PRATT ST                         000N        CARE OF             
MTR09001000001000000000000000RA              1150675     000300190000001900000490000003NY  NNW 000                       N    
MTM090010001150675     ok                                                                                                     
RDG09001000WATRL000000005K00000000000053545001912232015120017N000000000000U91       000110500K 10000000010000053545           
CUS0900100000109257377003         HOUSING AUTHORITY   1601 E PRATT ST                         000N        CARE OF             
MTR09001000001000000000000000RA              9102691     000300200000002000000640000003NN  NNW 000                       N    
RDG09001000WATRL000000005K00000000000026010002012232015120028N000000000000U91       000110500K 10000000010000026008           
CUS0900100000109257378001         HABC                1415 ORLEANS ST                         000N        CARE OF             
MTR09001000002000000000000000RA              06102501    000300210000002100000460000003NY  NNW 000                       N    
MTM0900100006102501    ok                                                                                                     
RDG09001000WATAL000000005K00000000000015679002112232015120035N000000000000U91       000070500K 10000000010000015679           
RDG09001000WATBL000000005K00000000000004644002212232015120046N000100000010U91       000110500K 10000000010000004644           
CUS0900100000109257379009         HABC                1501 ORLEANS ST                         000N        CARE OF             
MTR09001000001000000000000000RA              1218837     000300220000002200000490000003NY  NNW 000                       N    
MTM090010001218837     ok                                                                                                     
RDG09001000WATRL000000005K00000000000000999002312232015120105N000300000010U91       000190500K 10000000010000001644           
CUS0900100000109430574005         PRESSLEY RIDGE, INC 25 N CAROLINE ST                        000N        CARE OF             
MTR09001000001000000000000000RA              8045165     000600230000002300000380000000NN  NNW 000   FIRE SERVICE        N    
RDG09001000WATRL000000006K00000000000000002002412232015120109N000000000000U91       000040600K 10000000010000000002           
CUS0900100000109430575002         PRESSLEY RIDGE, INC 25 N CAROLINE ST                        000N        CARE OF             
MTR09001000001000000000000000RA              99170732    000200240000002400000570000000NN  NNW 000                       N    
RDG09001000WATRL000000005K00000000000001976002512232015120113N000000000000U91       000040500K 10000000010000001965           
CUS0900100000109257382003         HOUSING AUTHORITY   1501 ORLEANS ST                         000N        CARE OF             
MTR09001000001000000000000000RA              1170574     000300250000002500000490000003NY  NNW 000                       N    
MTM090010001170574     ok                                                                                                     
RDG09001000WATRL000000005K00000000000089824002612232015120123N000000000000U91       000100500K 10000000010000089824           
CUS0900100000109436062005         BROADWAY OVERLOOK   1501 E FAYETTE ST                       000N        CARE OF             
MTR09001000001000000000000000RA              8048252     000400260000002600000380000003NN  NNW 000   FIRE SERVICE        N    
RDG09001000WATRL000000006K00000000000000000002712232015120126N000000000000U91       000030600K 10000000010000000000           
CUS0900100000109436064001         WINN RESIDENTIAL    1501 E FAYETTE ST                       000N        CARE OF             
MTR09001000002000000000000000RA              70225923    000300270000002700000470000003NY  NNW 000                       N    
MTM0900100070225923    ok one dial                                                                                            
RDG09001000WATAL000000005K00000000000000000002812232015120151N000300000010U91       000250500K 10000000010000003607           
RDG09001000WATBL000000005K00000000000000000002912232015120214S022000000000U91       000230500K 10000000010000000183           
CUS0900100000109257383001         HABC                1600-48 E FAYETTE ST                    000N        CARE OF             
MTR09001000001000000000000000RA              1170575     000300280000002800000490000000NY  NNW 000                       N    
MTM090010001170575     ok                                                                                                     
RDG09001000WATRL000000005K00000000000085440003012232015120444N000300000010U91       001500500K 10000000010000106200           
CUS0900100000109257381005         HOUSING AUTHORITY   1600-48 E FAYETTE ST                    000N        CARE OF             
MTR09001000001000000000000000RA              1276278     000300290000002900000490000003NY  NNW 000                       N    
MTM090010001276278     ok                                                                                                     
RDG09001000WATRL000000005K00000000000007914003112232015120453N000000000000U91       000090500K 10000000010000007914           
CUS0900100000109419013009         MAYOR & CITY        7 AISQUITH ST                           000N        CARE OF             
MTR09001000001000000000000000RA              60908150    000200300000003000000670000003NN  NNW 000                       N    
RDG09001000WATR 000000005R00000000000000000000012222015180000N000100000080N         000000500R 10000000020000000000           
RFF0900100070310915      ERT      0000  956.44375000140000122220151800000000000806100W 1210000N                               
CUS0900100000109421938003         COLEMAN VICKIE      200 AISQUITH ST                         000N        CARE OF             
MTR09001000001000000000000000RA              8036182     000800310000003100000380000003NN  NNW 000                       N    
RDG09001000WATRL000000006K00000000000000020003312232015120612N000000000000U91       000360600K 10000000010000000020           
CUS0900100000109421940009         COLEMAN VICKIE N    200 AISQUITH ST                         000N        CARE OF             
MTR09001000002000000000000000RA              40000017    000400320000003200000460000003NY  NNW 000   FIRE SERVICE        N    
MTM0900100040000017     ok                                                                                                    
RDG09001000WATAL000000006K00000000000000296003412232015120622N000300000010U91       000100600K 10000000010000001190           
RDG09001000WATBL000000006K00000000000005681003512232015120652N000300000010U91       000300600K 10000000010000063596           
CUS0900100000109421968000         COLEMAN VICKIE N    200 AISQUITH ST                         000N        CARE OF             
MTR09001000001000000000000000RA              8041446     000600330000003300000380000003NN  NNW 000   FIRE SERVICE        N    
RDG09001000WATRL000000006K00000000000000000003212232015120536N000000000000U91       000430600K 10000000010000000000           
CUS0900100000109421970006         VICKIE N COLEMAN    200 AISQUITH ST                         000N        CARE OF             
MTR09001000001000000000000000RA              60904531    001500340000003400000670000003NN  NNW 000                       N    
RDG09001000WATR 000000005R00000000000000003000012222015180000N000300000080N         000000500R 10000000020000000000           
RFF0900100070310965      ERT      0000  956.44375000140000122220151800000000003393100W 1210000N                               
CUS0900100000109421745002         COLEMAN VICKIE N    200 AISQUITH ST                         000N        CARE OF             
MTR09001000002000000000000000RA              9610314     000800350000003500000410000003NN  NNW 000   FIRE SERVICE        N    
RDG09001000WATAL000000006K00000000000000232003612232015120733N000100000010U91       000410600K 10000000010000000232           
RDG09001000WATBL000000006K00000000000040509003712232015120741N000400000010U91       000080600K 10000000010000035733           
CUS0900100000109422051004         COLEMAN VICKIE N    200 AISQUITH ST                         000N        CARE OF             
MTR09001000002000000000000000RA              40000013    000400360000003600000460000003NY  NNW 000                       N    
MTM0900100040000013    one dial now                                                                                           
RDG09001000WATAL000000006K00000000000000000003812232015120756N000100000010U91       000150600K 10000000010000000000           
RDG09001000WATBL000000006K00000000000000000003912232015120820S022000000000U91       000240600K 10000000010000006987           
CUS0900100000109257387002         HOUSING AUTHORITY   500 N CENTRAL AVE                       000N        CARE OF             
MTR09001000001000000000000000RA              1197248     000400370000003700000490000003NN  NNW 000                       N    
RDG09001000WATRL000000006K00000000000000000004012232015120827S022000000000U91       000070600K 10000000010000002767           
CUS0900100000109257388000         HOUSING AUTHORITY   500 N CENTRAL AVE                       000N        CARE OF             
MTR09001000001000000000000000RA              99999999    000400380000003800000620000003NN  NNW 000                       N    
RDG09001000WATRL000000006K00000000000000000004112232015120830S022000000000U91       000030600K 10000000010000000000           
CUS0900100000109257399007         HOUSING AUTHORITY   1000-1100 E MADISON ST                  000N        CARE OF             
MTR09001000001000000000000000RA              1115677     000300390000003900000490000003NY  NNW 000                       N    
MTM090010001115677     ok                                                                                                     
RDG09001000WATRL000000005K00000000000061860004212232015120842N000000000000U91       000120500K 10000000010000061860           
CUS0900100000109257398009         HOUSING AUTHORITY   1000-1100 E MADISON ST                  000N        CARE OF             
MTR09001000001000000000000000RA              1215548     000300400000004000000490000003NY  NNW 000                       N    
MTM090010001215548     clean out                                                                                              
RDG09001000WATRL000000005K00000000000000000000000000000000000 000000000000U         000000500  10000000010000089383           
CUS0900100000109257400003         HOUSING AUTHORITY   800-900 E MADISON ST                    000N        CARE OF             
MTR09001000001000000000000000RA              1115671     000300410000004100000490000003NN  NNW 000                       N    
RDG09001000WATRL000000005K00000000000050803004312232015120928N000000000000U91       000460500K 10000000010000042749           
CUS0900100000109257397001         HOUSING AUTHORITY   800-900 E MADISON ST                    000N        CARE OF             
MTR09001000001000000000000000RA              1150408     000300420000004200000490000003NY  NNW 000                       N    
MTM090010001150408     ok                                                                                                     
RDG09001000WATRL000000005K00000000000009085004412232015120937N000000000000U91       000090500K 10000000010000009085           
CUS0900100000109257393000         HABC                709-11 E EAGER ST                       000N        CARE OF             
MTR09001000001000000000000000RA              60904424    001500430000004300000670000003NN  NNW 000                       N    
RDG09001000WATR 000000005R00000000000000000000012222015180000N000100000080N         000000500R 10000000020000000000           
RFF0900100070426231      ERT      0000  956.44375000140000122220151800000000000003100W 1210000N                               
CUS0900100000109424263003         HOUSING AUTHORITY   709 E EAGER ST                          000N        CARE OF             
MTR09001000001000000000000000RA              8040524     000400440000004400000380000000NN  NNW 000   CITY FIRE SERV      N    
RDG09001000WATRL000000006K00000000000000001004512232015120945N000000000000U91       000080600K 10000000010000000001           
CUS0900100000109424265008         HOUSING AUTHORITY   709 E EAGER ST                          000N        CARE OF             
MTR09001000001000000000000000RA              60904425    001500450000004500000670000003NN  NNW 000                       N    
RDG09001000WATR 000000005R00000000000000001000012222015180000N000300000080N         000000500R 10000000020000000000           
RFF0900100070426215      ERT      0000  956.44375000140000122220151800000000001625100W 1210000N                               
CUS0900100000109255557002         HABC                NS PRATT ST AT EDEN ST                  000N        CARE OF             
MTR09001000001000000000000000RA              99293603    005800460000004600000570000003NN  NNW 000                       N    
RDG09001000WATRL000000004K00000000000000001004612232015121005N000000000010U91       000200400K 10000000010000000000           
CUS0900100000109228252004         GENERAL SERVICES ADM120 W LOMBARD ST                        000N        CARE OF             
MTR09001000002000000000000000RA              4313703     000800470000004700000540000003NY  NNW 000                       N    
MTM090010004313703     ok                                                                                                     
RDG09001000WATAL000000006K00000000000000026004712232015121203N000300000010U91       001180600K 10000000010000025960           
RDG09001000WATBL000000006K00000000000034932004812232015121219N000400000010U91       000160600K 10000000010000010097           
CUS0900100000109380153008         DAYS INN INNER HARBO100 HOPKINS PL                          000N        CARE OF             
MTR09001000001000000000000000RA              1362068     000300480000004800000490000003NN  NNW 000                       N    
RDG09001000WATRL000000005K00000000000000115004912232015121240N000304104110U91       000210500K 10000000010000087650           
CUS0900100000109380158007         DAYS INN INNER HARBO100 HOPKINS PL                          000N        CARE OF             
MTR09001000001000000000000000RA              6029426     000800490000004900000410000003NN  NNW 000   FIRE SERVICE        N    
RDG09001000WATRL000000006K00000000000000000005012232015121316N000004104110U91       000360600K 10000000010000000275           
CUS0900100000109228247004         GENERAL SERVICES ADM100 S HANOVER ST                        000N        CARE OF             
MTR09001000001000000000000000RA              8036292     000800500000005000000380000003NN  NNW 000   FIRE SERVICE        N    
RDG09001000WATRL000000006K00000000000000009005112232015121337N000304104110U91       000210600K 10000000010000000469           
CUS0900100000109228248002         GENERAL SERVICES ADM100 S HANOVER ST                        000N        CARE OF             
MTR09001000001000000000000000RA              1421750     000600510000005100000490000003NN  NNW 000                       N    
RDG09001000WATRL000000006K00000000000002220005212232015121347N000300000010U91       000100600K 10000000010000001447           
CUS0900100000109395033005         A S K ASSOC         200-02 W PRATT ST                       000N        CARE OF             
MTR09001000001000000000000000RA              E22143      000400520000005200000430000003NN  NNW 000   FIRE SERVICE        N    
RDG09001000WATRL000000006K00000000000000000005312232015121350N000000000000U91       000030600K 10000000010000000000           
CUS0900100000109395035000         ASK ASSOCIATES LLP  200-02 W PRATT ST                       000N        CARE OF             
MTR09001000001000000000000000RA              60908169    000200530000005300000670000003NN  NNW 000                       N    
RDG09001000WATR 000000005R00000000000000334000012222015180000N000300000080N         000000500R 10000000020000000000           
RFF0900100070142646      ERT      0000  956.44375000140000122220151800000000334267100W 1210000N                               
CUS0900100000109357557009         OLIVER, H WILLIAM   204-08 W PRATT ST                       000N        CARE OF             
MTR09001000001000000000000000RA              60876180    000200540000005400000670000003NN  NNW 000                       N    
RDG09001000WATR 000000005R00000000000000561000012222015160000N000300000050N         000000500R 10000000020000000000           
RFF0900100070142663      ERT      0000  956.44375000140000122220151600000000561149100W 1210000N                               
CUS0900100000109357556001         OLIVER, H WILLIAM   204-08 W PRATT ST                       000N        CARE OF             
MTR09001000001000000000000000RA              E22882      000400550000005500000430000003NN  NNW 000   FIRE SERVICE        N    
RDG09001000WATRL000000006K00000000000000000005412232015121355N000000000000U91       000050600K 10000000010000000000           
CUS0900100000109349217001         DEPT REC & PARKS    101 W LOMBARD ST                        000N        CARE OF             
MTR09001000001000000000000000RA              29067433    000200560000005600000520000003NN  NNW 000                       N    
RDG09001000WATRL000000005K00000000000008420005512232015121412N000300000010U91       000170500K 10000000010000006913           
CUS0900100000109256260002         OHIB HOTEL LLC      301 W LOMBARD ST                        000N        CARE OF             
MTR09001000002000000000000000RA              5603815     000600570000005700000540000003NN  NNW 000                       N    
RDG09001000WATAL000000006K00000000000000037005612232015121437N000300000010U91       000250600K 10000000010000000051           
RDG09001000WATBL000000006K00000000000074104005712232015121445N000400000010U91       000080600K 10000000010000069974           
CUS0900100000109388277007         250 CHARM CITY, LLC 250 W PRATT ST                          000N        CARE OF             
MTR09001000001000000000000000RA              06102506    000400580000005800000460000003NN  NNW 000   FIRE SERVICE        N    
RDG09001000WATRL000000006K00000000000009999005812232015121451N000000000000U91       000060600K 10000000010000009999           
CUS0900100000109388279003         250 CHARM CITY, LLC 250 W PRATT ST                          000N        CARE OF             
MTR09001000002000000000000000RA              06102506    000400590000005900000460000003NN  NNW 000                       N    
RDG09001000WATAL000000006K00000000000028287005912232015121509N000000000000U91       000180600K 10000000010000026699           
RDG09001000WATBL000000006K00000000000006829006012232015121518N000400000010U91       000090600K 10000000010000006001           
CUS0900100000109397845000         NORTHSTAR BALTIMORE 22-24 S HOWARD ST                       000N        CARE OF             
MTR09001000001000000000000000RA              E21151      000600600000006000000430000003NN  NNW 000   FIRE SERVICE        N    
RDG09001000WATRL000000006K00000000000000000006112232015121522S005000000000U91       000040600K 10000000010000000007           
CUS0900100000109411157002         CITY CRESCENT LLC   10 S HOWARD ST                          000N        CARE OF             
MTR09001000001000000000000000RA              8033015     000800610000006100000380000000NN  NNW 000   FIRE SERVICE        N    
RDG09001000WATRL000000006K00000000000000000006212232015121527N000000000000U91       000050600K 10000000010000000000           
CUS0900100000109411159008         CITY CRESCENT LLC   10 S HOWARD ST                          000N        CARE OF             
MTR09001000001000000000000000RA              1362930     000300620000006200000490000003NN  NNW 000                       N    
RDG09001000WATRL000000005K00000000000057654006312232015121531N000000000000U91       000040500K 10000000010000056012           
CUS0900100000109434928009         FTP CENTERPOINT LP  20 N HOWARD ST                          000N        CARE OF             
MTR09001000002000000000000000RA              01025951    000600630000006300000460000000NN  NNW 000                       N    
RDG09001000WATAL000000006K00000000000000000006412232015121550S022000000000U91       000190600K 10000000010000000018           
RDG09001000WATBL000000006K00000000000015231006512232015121557N000400000010U91       000070600K 10000000010000014871           
CUS0900100000109434927001         FTP CENTERPOINT LP  326 W BALTIMORE ST                      000N        CARE OF             
MTR09001000001000000000000000RA              0908804     000400640000006400000630000003NN  NNW 000                       N    
RDG09001000WATRL000000006K00000000000000056006612232015121654N000304104110U91       000570600K 10000000010000025643           
CUS0900100000109256267007         CIVIC CENTER        201-27 W BALTIMORE ST                   000N        CARE OF             
MTR09001000001000000000000000RA              3979326     000600650000006500000410000003NN  NNW 000   CITY FIRE SERV      N    
RDG09001000WATRL000000006K00000000000000000006712232015121725N000304104110U91       000310600K 10000000010000051452           
CUS0900100000109256268005         CIVIC CENTER        201-27 W BALTIMORE ST                   000N        CARE OF             
MTR09001000001000000000000000RA              1154031     000400660000006600000490000003NN  NNW 000                       N    
RDG09001000WATRL000000006K00000000000001514006812232015121801N000300000030U91       000360600K 10000000010000001552           
CUS0900100000109256269003         CIVIC CENTER        201-27 W BALTIMORE ST                   000N        CARE OF             
MTR09001000001000000000000000RA              4049540     000600670000006700000410000003NN  NNW 000   CITY FIRE SERV      N    
RDG09001000WATRL000000006K00000000000000000006912232015121824N000000004110U91       000230600K 10000000010000000045           
CUS0900100000109256270001         MAYOR & CITY COUNCIL201-27 W BALTIMORE ST                   000N        CARE OF             
MTR09001000001000000000000000RA              1153320     000400680000006800000490000003NN  NNW 000                       N    
RDG09001000WATRL000000006K00000000000017552007012232015121832N000400000010U91       000080600K 10000000010000016045           
CUS0900100000108442445006         FAUST BROTHERS L.L.C307-09 W BALTIMORE ST                   000N        CARE OF             
MTR09001000001000000000000000RA              01117065    000200690000006900000610000003NY  NNW 000                       N    
MTM0900100001117065    no access                                                                                              
RDG09001000WATRL000000005K00000000000000000000000000000000000 000000000000U         000000500  10000000010000001784           
CUS0900100000109396877004         MAYOR & CITY        201 W PRATT ST                          000N        CARE OF             
MTR09001000001000000000000000RA              00066792    001500700000007000000570000000NY  NNW 000                       N    
MTM0900100000066792    cant loc                                                                                               
RDG09001000WATRL000000005K00000000000000000000000000000000000 000000000000U         000000500  10000000010000006708           
CUS0900100000109256252009         INCOM PARKING FUND L110 W LOMBARD ST                        000N        CARE OF             
MTR09001000001000000000000000RA              4289922     000400710000007100000410000003NN  NNW 000   FIRE SERVICE        N    
RDG09001000WATRL000000006K00000000000000291007112232015121952N000000000000U91       000800600K 10000000010000000291           
CUS0900100000109256253007         HOPKINS PLAZA       110 W LOMBARD ST                        000N        CARE OF             
MTR09001000001000000000000000RA              33415987    001500720000007200000520000003NN  NNW 000                       N    
RDG09001000WATRL000000005K00000000000000000007212232015121957S005000000000U91       000050500K 10000000010000011694           
CUS0900100000109429559009         11 S CHARLES ST, LLC11 S CHARLES ST                         000N        CARE OF             
MTR09001000002000000000000000RA              70043324    000400730000007300000560000000NN  NNW 000   FIRE SERVICE        N    
RDG09001000WATAL000000006K00000000000000003007312232015122008N000000000010U91       000110600K 10000000010000000003           
RDG09001000WATBL000000006K00000000000000000007412232015122015N000100000010U91       000070600K 10000000010000000000           
CUS0900100000109429561005         11 S CHARLES ST, LLC11 S CHARLES ST                         000N        CARE OF             
MTR09001000001000000000000000RA              60908617    001500740000007400000670000003NN  NNW 000                       N    
RDG09001000WATR 000000005R00000000000000004000012222015180000N000300000080N         000000500R 10000000020000000000           
RFF0900100070142717      ERT      0000  956.44375000140000122220151800000000004998100W 1210000N                               
CUS0900100000109256261000         OHIB HOTEL LLC      301 W LOMBARD ST                        000N        CARE OF             
MTR09001000002000000000000000RA              4574056     000600750000007500000630000003NN  NNW 000                       N    
RDG09001000WATAL000000006K00000000000000000007512232015122044N000300000010U91       000290600K 10000000010000000001           
RDG09001000WATBL000000006K00000000000000644007612232015122103N000304104110U91       000190600K 10000000010000023810           
CUS0900100000109398120007         VS PRATT, LLC       300 W PRATT ST                          000N        CARE OF             
MTR09001000001000000000000000RA              E22535      000600760000007600000430000003NN  NNW 000   FIRE SERVICE        N    
RDG09001000WATRL000000006K00000000000000000007712232015122107N000000000000U91       000040600K 10000000010000000000           
CUS0900100000109398122003         VS PRATT, LLC       300 W PRATT ST                          000N        CARE OF             
MTR09001000001000000000000000RA              9057096     000400770000007700000640000000NN  NNW 000                       N    
RDG09001000WATRL000000006K00000000000000057007812232015122135N000304104110U91       000280600K 10000000010000014387           
CUS0900100000109402376009         RECREATION & PARKS  338 W PRATT ST                          000N        CARE OF             
MTR09001000001000000000000000RA              60908610    001500780000007800000670000003NN  NNW 000                       N    
RDG09001000WATR 000000005R00000000000000000000012222015180000N000100000080N         000000500R 10000000020000000000           
RFF0900100070098527      ERT      0000  956.44375000140000122220151800000000000001100W 1210000N                               
CUS0900100000109408571009         MAYOR AND CITY COUNC11 S EUTAW ST                           000N        CARE OF             
MTR09001000001000000000000000RA              8027205     000800790000007900000340000003NN  NNW 000   CITY FIRE SERV      N    
RDG09001000WATRL000000006K00000000000000000007912232015122716S005000000031U91       000320600K 10000000010000001569           
CUS0900100000109408573005         MAYOR AND CITY COUNC11 S EUTAW ST                           000N        CARE OF             
MTR09001000001000000000000000RA              9311837     000300800000008000000640000003NN  NNW 000                       N    
RDG09001000WATRL000000005K00000000000019495008012232015122258N000000000000U91       000170500K 10000000010000017433           
CUS0900100000109256263006         BUREAU OF INSPECTION15 S EUTAW ST                           000N        CARE OF             
MTR09001000001000000000000000RA              5204120     000400810000008100000410000003NN  NNW 000   CITY FIRE SERV      N    
RDG09001000WATRL000000006K00000000000000000008112232015122326N000004104110U91       000280600K 10000000010000000564           
CUS0900100000109256264004         BUREAU OF INSPECTION15 S EUTAW ST                           000N        CARE OF             
MTR09001000001000000000000000RA              60900427    000200820000008200000670000003NN  NNW 000                       N    
RDG09001000WATR 000000005R00000000000000005000012222015180000N000300000060N         000000500R 10000000020000000000           
RFF0900100070100055      ERT      0000  956.44375000140000122220151800000000005468100W 1210000N                               
CUS0900100000109256262008         BUREAU OF INSPECTION15 S EUTAW ST                           000N        CARE OF             
MTR09001000001000000000000000RA              01116857    000200830000008300000610000003NN  NNW 000                       N    
RDG09001000WATRL000000005K00000000000001151008212232015122521N000300000021U91       000960500K 10000000010000006062           
CUS0900100000109417873008         UNIVERSITY PHYSICIAN16-20 S EUTAW ST                        000N        CARE OF             
MTR09001000002000000000000000RA              20000027    000300840000008400000460000003NN  NNW 000                       N    
RDG09001000WATAL000000005K00000000000001960008312232015122529N000400000010U91       000080500K 10000000010000001900           
RDG09001000WATBL000000005K00000000000009589008412232015122547N000400000010U91       000180500K 10000000010000009097           
CUS0900100000102380133005         LAZ PARKING MID-ATLA221 W LOMBARD ST                        000N        CARE OF             
MTR09001000001000000000000000RA              60908739    001500850000008500000670000003NN  NNW 000                       N    
RDG09001000WATR 000000005R00000000000000004000012222015180000N000300000080N         000000500R 10000000020000000000           
RFF0900100070088005      ERT      0000  956.44375000140000122220151800000000004242100W 1210000N                               
CUS0900100000109417871002         UNIVERSITY PHYSICIAN16-20 S EUTAW ST                        000N        CARE OF             
MTR09001000001000000000000000RA              8036623     000600860000008600000380000003NN  NNW 000   FIRE SERVICE        N    
RDG09001000WATRL000000006K00000000000000028008512232015122601N000000000000U91       000140600K 10000000010000000028           
CUS0900100000109454879009         GEORGE KRITIKOS     36-38 S EUTAW ST                        000N        CARE OF             
MTR09001000001000000000000000RA              99999999    000200870000008700000440000000NY  NNW 000                       N    
MTM0900100099999999    ok                                                                                                     
RDG09001000WATRL000000005K00000000000000000008612232015122610N000000000000U91       000090500K 10000000010000000000           
CUS0900100000109256276008         SOUTHERN MGMT       412-20 W REDWOOD ST                     000N        CARE OF             
MTR09001000001000000000000000RA              25112673    000200880000008800000520000003NY  NNW 000                       N    
MTM0900100025112673    no access                                                                                              
RDG09001000WATRL000000005K00000000000000000000000000000000000 000000000000U         000000500  10000000010000071363           
CUS0900100000109388223001         MARLBORO-CLASSIC LTD401 W REDWOOD ST                        000N        CARE OF             
MTR09001000001000000000000000RA              E21171      000600890000008900000430000003NN  NNW 000   FIRE SERVICE        N    
RDG09001000WATRL000000006K00000000000000000008712232015122644S005000000000U91       000340600K 10000000010000000111           
CUS0900100000109388187008         SOUTHERN MANAGEMENT 401 W REDWOOD ST                        000N        CARE OF             
MTR09001000001000000000000000RA              9305942     000300900000009000000640000003NN  NNW 000                       N    
RDG09001000WATRL000000005K00000000000030767008812232015122759N000000000000U91       000430500K 10000000010000030423           
CUS0900100000109256278004         DAVID S BROWN ENTERP405-07 W REDWOOD ST                     000N        CARE OF             
MTR09001000001000000000000000RA              01105551    000200910000009100000610000003NN  NNW 000                       N    
RDG09001000WATRL000000005K00000000000000000008912232015122816N000304104110U91       000170500K 10000000010000000496           
CUS0900100000109256279002         UNIVERSITY PHYSICIAN419 W REDWOOD ST                        000N        CARE OF             
MTR09001000001000000000000000RA              0911511     000300920000009200000640000003NN  NNW 000                       N    
RDG09001000WATRL000000005K00000000000008490009012232015122824N000000000000U91       000080500K 10000000010000007744           
CUS0900100000109256281008         36 SOUTH PACA STREET36-38 S PACA ST                         000N        CARE OF             
MTR09001000001000000000000000RA              9102677     000300930000009300000640000003NN  NNW 000                       N    
RDG09001000WATRL000000005K00000000000072368009112232015122828N000000000000U91       000040500K 10000000010000071365           
CUS0900100000109256282006         36 SOUTH PACA STREET32-34 S PACA ST                         000N        CARE OF             
MTR09001000001000000000000000RA              35116888    000200940000009400000520000003NN  NNW 000                       N    
RDG09001000WATRL000000005K00000000000011849009212232015122834N000000000000U91       000060500K 10000000010000011805           
CUS0900100000108212613007         22 S HOWARD STREET C22-24 S HOWARD ST                       000N        CARE OF             
MTR09001000001000000000000000RA              40027030    000100950000009500000520000003NN  NNW 000                       N    
RDG09001000WATRL000000004K00000000000001587009312232015122850N000300000010U91       000160400K 10000000010000010128           
RTR09001000NN00970107000000970000001000950095000030NY009500950107000400140000000000000000000001    12112015NY020000 N         
RHD09001200NN00900091000000900000000100720072000014NY007200720091000500050000000000000000000001    12112015NY020000 N         
CUS0900120000109256868002         BUREAU OF WATER SUPP2743 N LONGWOOD ST                      000N        CARE OF             
MTR09001200001000000000000000RA              1179170     001500010000000100000490000003NN  NNW 000                       N    
RDG09001200WATRL000000005K00000000000078719000112212015122224N000000000000N93       000000500K 10000000010000074885           
CUS0900120000109367117000         BUR WTR & WST WTR PU2743 N LONGWOOD ST                      000N        CARE OF             
MTR09001200001000000000000000RA              1170614     000300020000000200000490000003NN  NNW 000                       N    
RDG09001200WATRL000000005K00000000000028585000212212015122231N000000000000N93       000070500K 10000000010000028585           
CUS0900120000109257013004         MADSION STREET PROPE3825 GREENSPRING AVE                    000N        CARE OF             
MTR09001200002000000000000000RA              2295127     000800030000000300000540000003NN  NNW 000                       N    
RDG09001200WATAL000000006K00000000000000000000312212015122243N000100000010N93       000120600K 10000000010000000000           
RDG09001200WATBL000000006K00000000000000011000412212015122247N000304100010N93       000040600K 10000000010000018168           
CUS0900120000109382322007         MADISON ST PROP, INC3825 GREENSPRING AVE                    000N        CARE OF             
MTR09001200001000000000000000RA              00066701    000200040000000400000570000003NY  NNW 000                       N    
MTM0900120000066701    conden                                                                                                 
RDG09001200WATRL000000005K00000000000000000000000000000000000 000000000000U         000000500  10000000010000018365           
CUS0900120000109431932004         KENNEDY KRIEGER     3825 GREENSPRING AVE                    000N        CARE OF             
MTR09001200001000000000000000RA              8046043     000600050000000500000380000000NN  NNW 000   FIRE SERVICE        N    
RDG09001200WATRL000000006K00000000000000005000512212015122310N000000000000N93       000230600K 10000000010000000005           
CUS0900120000109431934000         KENNEDY KRIEGER     3825 GREENSPRING AVE                    000N        CARE OF             
MTR09001200001000000000000000RA              01071254    005800060000000600000610000000NN  NNW 000                       N    
RDG09001200WATRL000000004K00000000000000000000612212015122315N000000000000N93       000050400K 10000000010000000000           
CUS0900120000109257019001         FLEISCHMANN'S VINEGA1900 BRAND AVE                          000N        CARE OF             
MTR09001200001000000000000000RA              1198212     000600070000000700000490000003NN  NNW 000                       N    
RDG09001200WATRL000000006K00000000000664840000712212015122326N000000000000N93       000110600K 10000000010000619012           
CUS0900120000109257017005         FLEISCHMANN'S VINEGA1900 BRAND AVE                          000N        CARE OF             
MTR09001200001000000000000000RA              1518538     000600080000000800000410000000NN  NNW 000   FIRE SERVICE        N    
RDG09001200WATRL000000006K00000000000004265000812212015122332N000000000000N93       000060600K 10000000010000004265           
CUS0900120000109257077009         SINAI HOSPIAL OF BAL2401 W BELVEDERE AVE                    000N        CARE OF             
MTR09001200002000000000000000RA              2638430     000800090000000900000630000003NN  NNW 000                       N    
RDG09001200WATAL000000006K00000000000000000000912212015122338N000100000010N93       000060600K 10000000010000000000           
RDG09001200WATBL000000006K00000000000074125001012212015122348N000400000010N93       000100600K 10000000010000069621           
CUS0900120000109257048000         SINAI HOSPITAL OF BA2401 W BELVEDERE AVE                    000N        CARE OF             
MTR09001200002000000000000000RA              1915830     000600100000001000000540000003NY  NNW 000                       N    
MTM090012001915830     read ok                                                                                                
RDG09001200WATAL000000006K00000000000000158001112212015122355N000100000010N93       000070600K 10000000010000000158           
RDG09001200WATBL000000006K00000000000076756001212212015122409N000300000010N93       000140600K 10000000010000085651           
CUS0900120000109257076001         SINAI HOSPITAL      2401 W BELVEDERE AVE                    000N        CARE OF             
MTR09001200002000000000000000RA              3448936     001000110000001100000540000003NN  NNW 000                       N    
RDG09001200WATAL000000007K00000000000000001001312212015122426N000100000010N93       000170700K 10000000010000000001           
RDG09001200WATBL000000007K00000000000506521001412212015122443N000400000010N93       000170700K 10000000010000490092           
CUS0900120000109404031008         THE ASSOCIATED JEWIS2411 W BELVEDERE AVE                    000N        CARE OF             
MTR09001200001000000000000000RA              7235079     000600120000001200000340000003NN  NNW 000   FIRE SERVICE        N    
RDG09001200WATRL000000006K00000000000000000001512212015122446N000000000000N93       000030600K 10000000010000000000           
CUS0900120000109404033004         WHITE MED PARTNERSHI2411 W BELVEDERE AVE                    000N        CARE OF             
MTR09001200001000000000000000RA              61381516    000400130000001300000470000003NN  NNW 000                       N    
RDG09001200WATRL000000006K00000000000018506001612212015122452N000000000000N93       000060600K 10000000010000017780           
CUS0900120000109433233005         SINAI HOSPITAL OF BA2401 W BELVEDERE AVE                    000N        CARE OF             
MTR09001200001000000000000000RA              01116876    000200140000001400000610000003NN  NNW 000                       N    
RDG09001200WATRL000000005K00000000000002805001712212015122509N000400000030N93       000170500K 10000000010000002778           
CUS0900120000109257755000         ROLLING WIND GARDENS1190-92 W NORTHERN PKWY                 000N        CARE OF             
MTR09001200002000000000000000RA              4234292     000600150000001500000540000003NY  NNW 000                       N    
MTM090012004234292     not reg                                                                                                
RDG09001200WATAL000000006K00000000000000001001812212015122513N000000000000N93       000040600K 10000000010000000001           
RDG09001200WATBL000000006K00000000000005776001912212015122521N000100000010N93       000080600K 10000000010000005776           
CUS0900120000109257067000         MARYLAND JOCKEY CLUB3213 HAYWARD AVE                        000N        CARE OF             
MTR09001200002000000000000000RA              3317709     000600160000001600000540000003NN  NNW 000                       N    
RDG09001200WATAL000000006K00000000000000018002012212015122539N000100000010N93       000180600K 10000000010000000018           
RDG09001200WATBL000000006K00000000000069575002112212015122601N000400000010N93       000220600K 10000000010000065918           
CUS0900120000109457872001         TWO FARMS, INC.     2330 SMITH AVE                          000N        CARE OF             
MTR09001200001000000000000000RA              99999999    001500160010001600100440000000NY  NNW 000                       N    
MTM0900120099999999    cl                                                                                                     
RDG09001200WATRL000000005K00000000000000000000000000000000000 000000000000U         000000500  10000000010000000000           
CUS0900120000109409638005         MT WASHINGTON MILL  1330-B SMITH AVE                        000N        CARE OF             
MTR09001200001000000000000000RA              33736650    007500170000001700000520000003NN  NNW 000                       N    
RDG09001200WATRL000000004K00000000000006294002212212015122616N000000000000N93       000150400K 10000000010000006294           
CUS0900120000109257758004         WASHINGTONVILLE LTD 1330 SMITH AVE                          000N        CARE OF             
MTR09001200001000000000000000RA              1178034     000200180000001800000490000003NN  NNW 000                       N    
RDG09001200WATRL000000005K00000000000029914002312212015122621N000000000000N93       000050500K 10000000010000029093           
CUS0900120000109257756008         WASHINGTONVILLE LIMI1330 SMITH AVE                          000N        CARE OF             
MTR09001200002000000000000000RA              2440494     000600190000001900000630000003NN  NNW 000   FIRE SERVICE        N    
RDG09001200WATAL000000006K00000000000000000002412212015122633N000000000000N93       000120600K 10000000010000000000           
RDG09001200WATBL000000006K00000000000000128002512212015122642N000100000010N93       000090600K 10000000010000000128           
CUS0900120000109257782004         ROLAND PARK SWIMMING5021 LAWNDALE AVE                       000N        CARE OF             
MTR09001200001000000000000000RA              1319923     000200200000002000000490000003NN  NNW 000                       N    
RDG09001200WATRL000000005K00000000000019455002612212015122650N000100000010N93       000080500K 10000000010000019455           
CUS0900120000109416243005         MEADOWBROOK AQUATIC 5600 COTTONWORTH AVE                    000N        CARE OF             
MTR09001200001000000000000000RA              61381508    000400210000002100000470000003NY  NNW 000                       N    
MTM0900120061381508    cs                                                                                                     
RDG09001200WATRL000000006K00000000000000000000000000000000000 000000000000U         000000600  10000000010000168895           
CUS0900120000109416244003         MEADOWBROOK AQUATIC 5600 COTTONWORTH AVE                    000N        CARE OF             
MTR09001200001000000000000000RA              8034916     000600220000002200000380000003NN  NNW 000   FIRE SERVICE        N    
RDG09001200WATRL000000006K00000000000000000002712212015122710N000000000000N93       000200600K 10000000010000000000           
CUS0900120000109257718008         GRANDE ROTUNDA, LLC 711 W 40TH ST                           000N        CARE OF             
MTR09001200001000000000000000RA              1275713     000300230000002300000490000003NY  NNW 000                       N    
MTM090012001275713     const                                                                                                  
RDG09001200WATRL000000005K00000000000000000000000000000000000 000000000000U         000000500  10000000010000051214           
CUS0900120000109257719006         GRANDE ROTUNDA, LLC 711 W 40TH ST                           000N        CARE OF             
MTR09001200001000000000000000RA              5003377     000600240000002400000410000003NN  NNW 000   FIRE SERVICE        N    
RDG09001200WATRL000000006K00000000000000046002812212015122727N000000000000N93       000170600K 10000000010000000046           
CUS0900120000109412418007         L.V.M. LTD PARTNSHP 1020-40 W 41ST ST                       000N        CARE OF             
MTR09001200002000000000000000RA              9216959     000800250000002500000630000003NN  NNW 000                       N    
RDG09001200WATAL000000006K00000000000000001002912212015122733N000100000010N93       000060600K 10000000010000000001           
RDG09001200WATBL000000006K00000000000021990003012212015122745N000400000010N93       000120600K 10000000010000020381           
CUS0900120000103447052006         NEW CHINA           1030B W 41ST ST                         000N        CARE OF             
MTR09001200001000000000000000RA              99999999    005800260000002600000680000003NN  NNW 000                       N    
RDG09001200WATRL000000004K00000000000000000003112212015122752S040000000000N93       000070400K 10000000010000000478           
CUS0900120000103447053004         YAMA SUSHI BAR      1030 W 41ST ST                          000N        CARE OF             
MTR09001200001000000000000000RA              99999999    005800270000002700000680000003NN  NNW 000                       N    
RDG09001200WATRL000000004K00000000000000000003212212015122755S040000000000N93       000030400K 10000000010000001436           
CUS0900120000109428748009         DEVON SELF STORAGE L3634 FALLS RD                           000N        CARE OF             
MTR09001200001000000000000000RA              8046714     000600280000002800000380000000NN  NNW 000   FIRE SERVICE        N    
RDG09001200WATRL000000006K00000000000000008003312212015122800N000000000000N93       000050600K 10000000010000000008           
CUS0900120000109428750005         DEVON FALLS RD/DEVON3634 FALLS RD                           000N        CARE OF             
MTR09001200001000000000000000RA              52771050    007500290000002900000520000000NN  NNW 000                       N    
RDG09001200WATRL000000004K00000000000001081003412212015122803N000000000000N93       000030400K 10000000010000001065           
CUS0900120000109257691007         IDAC TAILGATE, LLC  1650 UNION AVE                          000N        CARE OF             
MTR09001200002000000000000000RA              4781642     000800300000003000000540000003NN  NNW 000                       N    
RDG09001200WATAL000000006K00000000000000001003512212015122809N000304100010N93       000060600K 10000000010000000148           
RDG09001200WATBL000000006K00000000000000038003612212015122823N000304100010N93       000140600K 10000000010000351927           
CUS0900120000109435859005         CLIPPER REDEV. CO LL2081 CLIPPER PARK RD                    000N        CARE OF             
MTR09001200001000000000000000RA              8046520     000400310000003100000380000003NN  NNW 000   FIRE SERVICE        N    
RDG09001200WATRL000000006K00000000000000000003712212015122833N000000000000N93       000100600K 10000000010000000000           
CUS0900120000109435861001         CLIPPER REDEV CO. LL2081 CLIPPER PARK RD                    000N        CARE OF             
MTR09001200001000000000000000RA              01105584    000200320000003200000610000003NN  NNW 000                       N    
RDG09001200WATRL000000005K00000000000000852003812212015122836N000000000000N93       000030500K 10000000010000000834           
CUS0900120000109435871000         CLIPPER REDEV. CO LL2031 CLIPPER PARK RD                    000N        CARE OF             
MTR09001200001000000000000000RA              8048190     000600330000003300000380000003NY  NNW 000   FIRE SERVICE        N    
MTM090012008048190     cl                                                                                                     
RDG09001200WATRL000000006K00000000000000000000000000000000000 000000000000U         000000600  10000000010000000000           
CUS0900120000109435874004         CLIPPER FOR SALE, LL3441 WOODBERRY AVE                      000N        CARE OF             
MTR09001200001000000000000000RA              8048191     000600340000003400000380000003NN  NNW 000   FIRE SERVICE        N    
RDG09001200WATRL000000006K00000000000000000003912212015122846N000000000000N93       000100600K 10000000010000000000           
CUS0900120000109435876009         CLIPPER FOR SALE, LL3441 WOODBERRY AVE                      000N        CARE OF             
MTR09001200001000000000000000RA              16027935    000400350000003500000460000003NN  NNW 000   VACANT PROPERTY     N    
RDG09001200WATRL000000006K00000000000000001004012212015122848N000000000000N93       000020600K 10000000010000000001           
CUS0900120000109257825001         D TRAUB & SON INC   2700-06 SISSON ST                       000N        CARE OF             
MTR09001200001000000000000000RA              1151967     007500360000003600000520000003NN  NNW 000                       N    
RDG09001200WATRL000000004K00000000000000021004112212015122852N000000000000N93       000040400K 10000000010000000021           
CUS0900120000109257592007         MEDSTARC/OAMERESCO  200 E 33RD ST                           000N        CARE OF             
MTR09001200002000000000000000RA              5275649     000600370000003700000630000003NN  NNW 000                       N    
RDG09001200WATAL000000006K00000000000000001004212212015122857N000100000010N93       000050600K 10000000010000000001           
RDG09001200WATBL000000006K00000000000001360004312212015122903N000400000010N93       000060600K 10000000010000001287           
CUS0900120000109257593005         MEDSTARC/OAMERESCO  200 E 33RD ST                           000N        CARE OF             
MTR09001200001000000000000000RA              80252745    000400380000003800000000000003NN  NNW 000                       N    
RDG09001200WATRL000000006K00000000000000000004412212015122915N000000000000N93       000120600K 10000000010000000000           
CUS0900120000109257594003         MEDSTARC/OAMERESCO  200 E 33RD ST                           000N        CARE OF             
MTR09001200002000000000000000RA              5204104     000600390000003900000630000003NN  NNW 000                       N    
RDG09001200WATAL000000006K00000000000000017004512212015122921N000100000010N93       000060600K 10000000010000000017           
RDG09001200WATBL000000006K00000000000035467004612212015122929N000400000010N93       000080600K 10000000010000033017           
CUS0900120000109349245002         JOHNS HOPKINS, JHFRE3200-3500 N CHARLES ST                  000N        CARE OF             
MTR09001200002000000000000000RA              5895158     001200400000004000000540000003NY  NNW 000                       N    
MTM090012005895158     read ok                                                                                                
RDG09001200WATAL000000007K00000000000000980004712212015122938N000300000010N93       000090700K 10000000010000000990           
RDG09001200WATBL000000007K00000000000824771004812212015122953N000000000000N93       000150700K 10000000010000801120           
CUS0900120000109407123000         JOHNS HOPKINS, JHFRE3339 N CHARLES ST                       000N        CARE OF             
MTR09001200002000000000000000RA              7199903     000400410000004100000540000003NN  NNW 000                       N    
RDG09001200WATAL000000006K00000000000000021004912212015123001N000100000010N93       000080600K 10000000010000000021           
RDG09001200WATBL000000006K00000000000053132005012212015123009N000400000010N93       000080600K 10000000010000050323           
CUS0900120000109437734008         JOHNS HOPKINS, JHFRE3301 N CHARLES ST                       000N        CARE OF             
MTR09001200002000000000000000RA              8049715     000800420000004200000380000000NY  NNW 000   FIRE SERVICE        N    
MTM090012008049715     1 dial meter                                                                                           
RDG09001200WATAL000000006K00000000000000068005112212015123019N000100000010N93       000100600K 10000000010000000068           
RDG09001200WATBL000000006K00000000000000000005212212015123035S022000000000N93       000160600K 10000000010000000000           
CUS0900120000109437736003         JOHNS HOPKINS, JHFRE3301 N CHARLES ST                       000N        CARE OF             
MTR09001200002000000000000000RA              60000001    000600430000004300000460000000NN  NNW 000                       N    
RDG09001200WATAL000000006K00000000000002354005312212015123049N000400000010N93       000140600K 10000000010000002270           
RDG09001200WATBL000000006K00000000000006973005412212015123057N000400000010N93       000080600K 10000000010000005576           
CUS0900120000109409001006         JOHNS HOPKINS UNIVER3401 N CHARLES ST                       000N        CARE OF             
MTR09001200001000000000000000RA              8026600     000600440000004400000340000003NN  NNW 000   FIRE SERVICE        N    
RDG09001200WATRL000000006K00000000000000012005512212015123101N000000000000N93       000040600K 10000000010000000012           
CUS0900120000109409003002         JOHNS HOPKINS, JHFRE3401 N CHARLES ST                       000N        CARE OF             
MTR09001200001000000000000000RA              11800729    000300450000004500000460000003NN  NNW 000                       N    
RDG09001200WATRL000000005K00000000000039691005612212015123145N000300000031N93       000350500K 10000000010000029475           
CUS0900120000109257793001         THE GUILFORD        3900 N CHARLES ST                       000N        CARE OF             
MTR09001200002000000000000000RA              4054350     000600460000004600000540000003NN  NNW 000                       N    
RDG09001200WATAL000000006K00000000000000002005712212015123207N000100000030N93       000220600K 10000000010000000002           
RDG09001200WATBL000000006K00000000000063296005812212015123218N000400000010N93       000110600K 10000000010000058705           
CUS0900120000109433168003         CALVERT SCHOOL INC  4300 N CHARLES ST                       000N        CARE OF             
MTR09001200001000000000000000RA              11800725    000300470000004700000640000000NN  NNW 000                       N    
RDG09001200WATRL000000005K00000000000009915005912212015123225N000400000010N93       000070500K 10000000010000009799           
CUS0900120000109433166007         CALVERT SCHOOL INC  4300 N CHARLES ST                       000N        CARE OF             
MTR09001200001000000000000000RA              8046391     000600480000004800000380000000NN  NNW 000   FIRE SERVICE        N    
RDG09001200WATRL000000006K00000000000000012006012212015123231N000100000010N93       000060600K 10000000010000000012           
CUS0900120000109257799008         CW PROPERTIES LIMITE110 W 39TH ST                           000N        CARE OF             
MTR09001200001000000000000000RA              1376071     000400490000004900000490000003NN  NNW 000                       N    
RDG09001200WATRL000000006K00000000000055674006112212015123240N000000000010N93       000090600K 10000000010000053941           
CUS0900120000109257798000         CW PROPERTIES LIMITE110 W 39TH ST                           000N        CARE OF             
MTR09001200001000000000000000RA              4546560     000600500000005000000410000003NN  NNW 000   FIRE SERVICE        N    
RDG09001200WATRL000000006K00000000000000332006212212015123245N000000000000N93       000050600K 10000000010000000332           
CUS0900120000109257567009         NOTRE DAME OF MARYLA4701 N CHARLES ST                       000N        CARE OF             
MTR09001200002000000000000000RA              3663184     000600510000005100000540000003NN  NNW 000                       N    
RDG09001200WATAL000000006K00000000000000001006312212015123250N000100000010N93       000050600K 10000000010000000001           
RDG09001200WATBL000000006K00000000000000636006412212015123257N000400000010N93       000070600K 10000000010000000614           
CUS0900120000109405897001         NOTRE DAME OF MARYLA4701 N CHARLES ST                       000N        CARE OF             
MTR09001200002000000000000000RA              8023179     000800520000005200000630000003NN  NNW 000                       N    
RDG09001200WATAL000000006K00000000000000092006512212015123304N000100000010N93       000070600K 10000000010000000092           
RDG09001200WATBL000000006K00000000000064658006612212015123313N000400000010N93       000090600K 10000000010000060641           
CUS0900120000109257589003         CARROLLTON CONDOMINI3601 GREENWAY                           000N        CARE OF             
MTR09001200001000000000000000RA              1393925     000400530000005300000490000003NN  NNW 000                       N    
RDG09001200WATRL000000006K00000000000022638006712212015123326N000000000000N93       000130600K 10000000010000021291           
CUS0900120000109257582008         UNIVERSITY ONE CONDO1 E UNIVERSITY PKWY                     000N        CARE OF             
MTR09001200001000000000000000RA              78018699    000400540000005400000000000003NN  NNW 000                       N    
RDG09001200WATRL000000006K00000000000000416006812212015123339N000304100010N93       000130600K 10000000010000001223           
CUS0900120000109403634000         JOHNS HOPKINS, JHFRE3301 ST PAUL ST                         000N        CARE OF             
MTR09001200001000000000000000RA              11800869    000300550000005500000460000003NN  NNW 000                       N    
RDG09001200WATRL000000005K00000000000015185006912212015123351N000000000000N93       000120500K 10000000010000014099           
CUS0900120000109456569004         OFFICE OF FACILITIES3506 GREENWAY                           000N        CARE OF             
MTR09001200001000000000000000RA              78030191    000100560000005600000360000003NN  NNW 000                       N    
RDG09001200WATRL000000004K00000000000000310007012212015123355N000000000000N93       000040400K 10000000010000000237           
CUS0900120000109456567008         OFFICE OF FACILITIES3506 GREENWAY                           000N        CARE OF             
MTR09001200001000000000000000RA              1200717     000400570000005700000360000003NN  NNW 000   FIRE SERVICE        N    
RDG09001200WATRL000000006K00000000000000000007112212015123406N000000000000N93       000110600K 10000000010000000000           
CUS0900120000109400017001         COLONNADE CONDOMINIU4 W UNIVERSITY PKWY                     000N        CARE OF             
MTR09001200002000000000000000RA              7222573     001000580000005800000630000003NN  NNW 000                       N    
RDG09001200WATAL000000007K00000000000000098007212212015123412N000100000010N93       000060700K 10000000010000000098           
RDG09001200WATBL000000007K00000000000015051007312212015123426N000400000010N93       000140700K 10000000010000014948           
CUS0900120000109451999008         401 E. 30TH STREET L401 E 30TH ST                           000N        CARE OF             
MTR09001200001000000000000000RA              60900527    000200590000005900000670000003NN  NNW 000                       N    
RDG09001200WATR 000000005R00000000000000098007412212015123512N000000000010N93       000460500K 10000000020000000000           
RFF0900120070431087      ERT      0000  956.4437500014000000000000000000                  0001Y                               
CUS0900120000109454299000         401 E. 30TH STREET L401 E 30TH ST                           000N        CARE OF             
MTR09001200001000000000000000RA              99999999    000200600000006000000690000003NN  NNW 000                       N    
RDG09001200WATRL000000005K00000000000000000007512212015123521S040000000000N93       000090500K 10000000010000002037           
CUS0900120000109446594005         401 E. 30TH STREET L401 E 30TH ST                           000N        CARE OF             
MTR09001200001000000000000000RA              0007342     000600610000006100000690000000NN  NNW 000   FIRE SERVICE        N    
RDG09001200WATRL000000006K00000000000000000007612212015123539N000004100010N93       000180600K 10000000010000000041           
CUS0900120000109446596000         401 E. 30TH STREET L401 E 30TH ST                           000N        CARE OF             
MTR09001200001000000000000000RA              99999999    001500620000006200000620000000NN  NNW 000   FERRULE APPLIED     N    
RDG09001200WATRL000000005K00000000000000000007712212015123550S002000000000N93       000110500K 10000000010000000000           
CUS0900120000104176918003         MEYERLE, JON H      4305 ST PAUL ST                         000N        CARE OF             
MTR09001200001000000000000000RA              00163774    000100630000006300000570000003NN  NNW 000                       N    
RDG09001200WATRL000000004K00000000000002584007812212015123600N000400000010N93       000100400K 10000000010000002561           
CUS0900120000102270482009         MURPHY, STEPHEN     1 WHITFIELD RD                          000N        CARE OF             
MTR09001200001000000000000000RA              46890559    007500640000006400000520000003NN  NNW 000                       N    
RDG09001200WATRL000000004K00000000000005739007912212015123608N000400000010N93       000080400K 10000000010000005710           
CUS0900120000104179072006         BOZZUTO JR, THOMAS S6001 CHARLESMEAD AVE                    000N        CARE OF             
MTR09001200001000000000000000RA              50384928    000100650000006500000520000003NN  NNW 000                       N    
RDG09001200WATRL000000004K00000000000009664008012212015123614N000400000010N93       000060400K 10000000010000009595           
CUS0900120000104178322006         CAMPBELL, R BRUCE   200 CHURCHWARDENS RD                    000N        CARE OF             
MTR09001200001000000000000000RA              43905533    007500660000006600000520000003NN  NNW 000                       N    
RDG09001200WATRL000000004K00000000000007597008112212015123620N000400000010N93       000060400K 10000000010000007575           
CUS0900120000102321248003         SPECTOR, BRUCE R    21 BLYTHEWOOD RD                        000N        CARE OF             
MTR09001200001000000000000000RA              39267007    000100670000006700000520000003NN  NNW 000                       N    
RDG09001200WATRL000000004K00000000000006681008212212015123627N000300000010N93       000070400K 10000000010000006303           
CUS0900120000104176941005         TABB, D. WINSTON    3 E HIGHFIELD RD                        000N        CARE OF             
MTR09001200001000000000000000RA              99412438    007500680000006800000570000003NN  NNW 000                       N    
RDG09001200WATRL000000004K00000000000003185008312212015123633N000400000010N93       000060400K 10000000010000003154           
CUS0900120000102270058007         MT WASHINGTON SWIM C2300 ENSLOW AVE                         000N        CARE OF             
MTR09001200001000000000000000RA              99314710    000100690000006900000570000003NN  NNW 000                       N    
RDG09001200WATRL000000004K00000000000003089008412212015123639N000100000010N93       000060400K 10000000010000003089           
CUS0900120000102270067008         NAPP, STEPHEN G     5731 COTTONWORTH AVE                    000N        CARE OF             
MTR09001200001000000000000000RA              42847079    001500700000007000000520000003NN  NNW 000   VACANT PROPERTY     N    
RDG09001200WATRL000000005K00000000000042532008512212015123644N000000000000N93       000050500K 10000000010000042532           
CUS0900120000102323313003         TSW PROPERTIES, LLC 3626 FALLS RD                           000N        CARE OF             
MTR09001200001000000000000000RA              99168628    001500710000007100000570000003NN  NNW 000                       N    
RDG09001200WATRL000000005K00000000000074251008612212015123650N000000000000N93       000060500K 10000000010000074198           
RTR09001200NN00900091000000900000000100720072000014NY007200720091000500050000000000000000000001    12112015NY020000 N         
RHD09001300NN00970102000000970000000500960096000015NY009600960102000500080000000000000000000001    12112015NY020000 N         
CUS0900130000109255680002         PLANNED PARENTHOOD O330-36 N HOWARD ST                      000N        CARE OF             
MTR09001300001000000000000000RA              60876018    001500010000000100000670000003NN  NNW 000                       N    
RDG09001300WATR 000000005R00000000000000267000012222015180000N000000000000N         000000500R 10000000020000000201           
RFF0900130068391274      ERT      0000  956.44375000140000122220151800000000267990100W 1210000N                               
CUS0900130000109255679004         PLANNED PARENTHOOD O330-36 N HOWARD ST                      000N        CARE OF             
MTR09001300001000000000000000RA              3987947     000600020000000200000410000003NN  NNW 000   FIRE SERVICE        N    
RDG09001300WATRL000000006K00000000000000000000112232015110857N000000000000U93       000000600K 10000000010000000000           
CUS0900130000109255678006         314 N HOWARD STREET 318 N HOWARD ST                         000N        CARE OF             
MTR09001300001000000000000000RA              35105131    000200030000000300000520000003NN  NNW 000                       N    
RDG09001300WATRL000000005K00000000000003216000212232015110907N000000000000U93       000100500K 10000000010000003156           
CUS0900130000109255677008         9 JEWELS LLC        306-10 N HOWARD ST                      000N        CARE OF             
MTR09001300001000000000000000RA              31938262    001500040000000400000520000003NN  NNW 000   VACANT PROPERTY     N    
RDG09001300WATRL000000005K00000000000000300000312232015110910N000000000000U93       000030500K 10000000010000000300           
CUS0900130000109255676000         AHMED ELSIGAI LLC   300-04 N HOWARD ST                      000N        CARE OF             
MTR09001300001000000000000000RA              00066764    000200050000000500000570000003NN  NNW 000                       N    
RDG09001300WATRL000000005K00000000000004270000412232015110915N000400000010U93       000050500K 10000000010000004244           
CUS0900130000109255681000         309 NORTH HOWARD STR309-11 N HOWARD ST                      000N        CARE OF             
MTR09001300001000000000000000RA              99999999    000200060000000600000620000003NN  NNW 000   FERRULE APPLIED     N    
RDG09001300WATRL000000005K00000000000000000000512232015110918N000000000000U93       000030500K 10000000010000000000           
CUS0900130000109255687007         CATHOLIC RELIEF SERV226-34 W LEXINGTON ST                   000N        CARE OF             
MTR09001300003000000000000000RA              3598047     000800070000000700000480000003NY  NNW 000                       N    
MTM090013003598047     k                                                                                                      
RDG09001300WATAL000000006K00000000000009079000612232015110933N000300000010U93       000150600K 10000000010000000035           
RDG09001300WATBL000000006K00000000000001566000712232015110939N000300000010U93       000060600K 10000000010000012018           
RDG09001300WATCL000000006K00000000000000000000812232015110954S022000000000U93       000150600K 10000000010000000000           
CUS0900130000109445127005         MICHAEL RAZAVI      201 W SARATOGA ST                       000N        CARE OF             
MTR09001300001000000000000000RA              90000063    000200080000000800000570000000NN  NNW 000                       N    
RDG09001300WATRL000000005K00000000000000529000912232015111001N000400000010U93       000070500K 10000000010000000517           
CUS0900130000109255682008         229 WEST SARATOGA ST229-31 W SARATOGA ST                    000N        CARE OF             
MTR09001300001000000000000000RA              2919368     000400090000000900000410000003NN  NNW 000   FIRE SERVICE        N    
RDG09001300WATRL000000006K00000000000000024001012232015111003N000000000000U93       000020600K 10000000010000000024           
CUS0900130000109255683006         229 WEST SARATOGA ST229-31 W SARATOGA ST                    000N        CARE OF             
MTR09001300001000000000000000RA              01105204    001500100000001000000610000003NN  NNW 000                       N    
RDG09001300WATRL000000005K00000000000000686001112232015111008N000000000000U93       000050500K 10000000010000000610           
CUS0900130000109255685001         JENNY NGUYEN        225 N HOWARD ST                         000N        CARE OF             
MTR09001300001000000000000000RA              6030929     000400110000001100000410000003NN  NNW 000   FIRE SERVICE        N    
RDG09001300WATRL000000006K00000000000009999001212232015111011N000000000000U93       000030600K 10000000010000009999           
CUS0900130000109255684004         LADY CHEA           225 N HOWARD ST                         000N        CARE OF             
MTR09001300001000000000000000RA              00120789    007500120000001200000570000003NN  NNW 000                       N    
RDG09001300WATRL000000004K00000000000000992001312232015111013N000000000000U93       000020400K 10000000010000000964           
CUS0900130000109387366009         G & T PARTNERSHIP, L231 N HOWARD ST                         000N        CARE OF             
MTR09001300001000000000000000RA              6030928     000400130000001300000410000000NN  NNW 000   FIRE SERVICE        N    
RDG09001300WATRL000000006K00000000000000816001412232015111017N000000000000U93       000040600K 10000000010000000816           
CUS0900130000109255673007         DEPT OF GENERAL SERV303-09 W SARATOGA ST                    000N        CARE OF             
MTR09001300001000000000000000RA              1374422     001000140000001400000410000003NN  NNW 000   FIRE SERVICE        N    
RDG09001300WATRL000000007K00000000000000000001512232015111019S005000000000U93       000020700K 10000000010000002981           
CUS0900130000109432752005         MR MILT ROSENBAUM   231 N EUTAW ST                          000N        CARE OF             
MTR09001300001000000000000000RA              99168602    001500150000001500000570000000NY  NNW 000                       N    
MTM0900130099168602    cl                                                                                                     
RDG09001300WATRL000000005K00000000000000000000000000000000000 000000000000U         000000500  10000000010000002385           
CUS0900130000109375160000         MTA                 301 N EUTAW ST                          000N        CARE OF             
MTR09001300001000000000000000RA              01116856    000200160000001600000610000003NN  NNW 000                       N    
RDG09001300WATRL000000005K00000000000017779001612232015111353N000300000010U93       002140500K 10000000010000015207           
CUS0900130000109375159002         MTA                 301 N EUTAW ST                          000N        CARE OF             
MTR09001300001000000000000000RA              6029448     000600170000001700000410000003NN  NNW 000   FIRE SERVICE        N    
RDG09001300WATRL000000006K00000000000000000001712232015111414N000004100010U93       000210600K 10000000010000000984           
CUS0900130000109454398000         329 N EUTAW, LLC    329 N EUTAW ST                          000N        CARE OF             
MTR09001300001000000000000000RA              70000097    001500180000001800000570000003NY  NNW 000                       N    
MTM0900130070000097    cl                                                                                                     
RDG09001300WATRL000000005K00000000000000000000000000000000000 000000000000U         000000500  10000000010000000321           
CUS0900130000109255670003         6601 SUITLAND ROAD, 322 N EUTAW ST                          000N        CARE OF             
MTR09001300001000000000000000RA              01116825    000200190000001900000610000003NN  NNW 000   VACANT PROPERTY     N    
RDG09001300WATRL000000005K00000000000000000001812232015111425N000000000000U93       000110500K 10000000010000000000           
CUS0900130000109255671001         6601 SUITLAND ROAD, 312 N EUTAW ST                          000N        CARE OF             
MTR09001300001000000000000000RA              31362920    000300200000002000000470000003NN  NNW 000   VACANT PROPERTY     N    
RDG09001300WATRL000000005K00000000000000689001912232015111442N000000000000U93       000170500K 10000000010000000689           
CUS0900130000109364651001         MASS TRANSIT ADMIN  301 N EUTAW ST                          000N        CARE OF             
MTR09001300001000000000000000RA              01116983    000200210000002100000610000003NY  NNW 000                       N    
MTM0900130001116983    k                                                                                                      
RDG09001300WATRL000000005K00000000000005446002012232015111450N000300000010U93       000080500K 10000000010000030901           
CUS0900130000109364650003         MASS TRANSIT ADMIN  301 N EUTAW ST                          000N        CARE OF             
MTR09001300001000000000000000RA              6010521     000800220000002200000410000003NY  NNW 000   FIRE SERVICE        N    
MTM090013006010521     mud                                                                                                    
RDG09001300WATRL000000006K00000000000000000000000000000000000 000000000000U         000000600  10000000010000001263           
CUS0900130000109364653007         MASS TRANSIT ADMIN  301 N EUTAW ST                          000N        CARE OF             
MTR09001300001000000000000000RA              01105476    000200230000002300000610000003NN  NNW 000                       N    
RDG09001300WATRL000000005K00000000000000000002112232015111505N000304100010U93       000150500K 10000000010000015752           
CUS0900130000109364652009         MASS TRANSIT ADMIN  301 N EUTAW ST                          000N        CARE OF             
MTR09001300001000000000000000RA              E13819      000800240000002400000430000003NN  NNW 000   FIRE SERVICE        N    
RDG09001300WATRL000000006K00000000000000000002212232015111507N000000000000U93       000020600K 10000000010000000000           
CUS0900130000109414960006         ST JUDES SHRINE CORP512 W SARATOGA ST                       000N        CARE OF             
MTR09001300001000000000000000RA              60406665    000300250000002500000470000000NN  NNW 000                       N    
RDG09001300WATRL000000005K00000000000005246002312232015111510N000000000000U93       000030500K 10000000010000005165           
CUS0900130000109414958000         ST JUDES SHRINE CORP512 W SARATOGA ST                       000N        CARE OF             
MTR09001300001000000000000000RA              E18469      000600260000002600000430000000NN  NNW 000   FIRE SERVICE        N    
RDG09001300WATRL000000006K00000000000000005002412232015111512N000000000000U93       000020600K 10000000010000000005           
CUS0900130000109255669005         LEXINGTON MARKET,INC200 N EUTAW ST                          000N        CARE OF             
MTR09001300001000000000000000RA              1150309     000300270000002700000490000003NN  NNW 000                       N    
RDG09001300WATRL000000005K00000000000002801002512232015111525N000304100010U93       000130500K 10000000010000007631           
CUS0900130000109417824001         PACA HOUSING LIMITED116 N PACA ST                           000N        CARE OF             
MTR09001300001000000000000000RA              8041182     000600280000002800000380000003NN  NNW 000   FIRE SERVICE        N    
RDG09001300WATRL000000006K00000000000000003002612232015111531N000000000010U93       000060600K 10000000010000000803           
CUS0900130000109417826006         PACA HOUSING LIMITED116 N PACA ST                           000N        CARE OF             
MTR09001300001000000000000000RA              0911515     000300290000002900000640000003NN  NNW 000                       N    
RDG09001300WATRL000000005K00000000000000010002712232015111540N000304100010U93       000090500K 10000000010000030270           
CUS0900130000109385496006         PALLOTTINE CENTER FO221 N PACA ST                           000N        CARE OF             
MTR09001300001000000000000000RA              01092795    005800300000003000000610000003NN  NNW 000                       N    
RDG09001300WATRL000000004K00000000000000047002812232015111543N000000000000U93       000030400K 10000000010000000047           
CUS0900130000109385495008         OFF STREET PARKING  221 N PACA ST                           000N        CARE OF             
MTR09001300001000000000000000RA              E21180      000600310000003100000430000003NN  NNW 000   CITY FIRE SERV      N    
RDG09001300WATRL000000006K00000000000000000002912232015111545N000000000000U93       000020600K 10000000010000000000           
CUS0900130000109255668007         LEXINGTON MARKET INC520-24 W LEXINGTON ST                   000N        CARE OF             
MTR09001300001000000000000000RA              1394184     000200320000003200000490000003NN  NNW 000                       N    
RDG09001300WATRL000000005K00000000000003986003012232015111547N000000000000U93       000020500K 10000000010000002356           
CUS0900130000102445149004         312 N PACA ST       312 N PACA ST                           000N        CARE OF             
MTR09001300001000000000000000RA              90000062    000200330000003300000570000000NN  NNW 000                       N    
RDG09001300WATRL000000005K00000000000000000003112232015111554N000304100010U93       000070500K 10000000010000000895           
CUS0900130000109403197008         UNIV OF MD AT BALTIM121 N GREENE ST                         000N        CARE OF             
MTR09001300001000000000000000RA              01105128    001500340000003400000610000003NN  NNW 000   VACANT PROPERTY     N    
RDG09001300WATRL000000005K00000000000000000003212232015111557N000000000000U93       000030500K 10000000010000000000           
CUS0900130000109403195002         UNIV OF MD AT BALTIM121 N GREENE ST                         000N        CARE OF             
MTR09001300001000000000000000RA              7234928     000600350000003500000340000003NN  NNW 000   FIRE SERVICE        N    
RDG09001300WATRL000000006K00000000000000440003312232015111559N000000000000U93       000020600K 10000000010000000440           
CUS0900130000109395015002         UNIVERSITY OF MD AT 104-112 N GREENE ST                     000N        CARE OF             
MTR09001300001000000000000000RA              0808114     000300360000003600000460000003NN  NNW 000                       N    
RDG09001300WATRL000000005K00000000000041344003412232015111602N000000000000U93       000030500K 10000000010000039550           
CUS0900130000109395013007         OFFICE OF FACILITIES104-112 N GREENE ST                     000N        CARE OF             
MTR09001300001000000000000000RA              E22903      000600370000003700000430000003NN  NNW 000   FIRE SERVICE        N    
RDG09001300WATRL000000006K00000000000000000003512232015111605N000000000000U93       000030600K 10000000010000000000           
CUS0900130000109255665003         WESTMINSTER TRUST   520 W FAYETTE ST                        000N        CARE OF             
MTR09001300001000000000000000RA              01116840    000200380000003800000610000003NN  NNW 000                       N    
RDG09001300WATRL000000005K00000000000002071003612232015111608N000000000000U93       000030500K 10000000010000002006           
CUS0900130000109255664006         WESTMINSTER TRUST   520 W FAYETTE ST                        000N        CARE OF             
MTR09001300001000000000000000RA              5003383     000600390000003900000410000003NN  NNW 000   FIRE SERVICE        N    
RDG09001300WATRL000000006K00000000000000000003712232015111619N000004100010U93       000110600K 10000000010000000039           
CUS0900130000109435577003         MEDCO DEV           500 W FAYETTE ST                        000N        CARE OF             
MTR09001300001000000000000000RA              8048188     000600400000004000000380000000NN  NNW 000   FIRE SERVICE        N    
RDG09001300WATRL000000006K00000000000000000003812232015111635N000000000000U93       000160600K 10000000010000000000           
CUS0900130000109435579009         MEDCO DEV           500 W FAYETTE ST                        000N        CARE OF             
MTR09001300001000000000000000RA              61858419    000300410000004100000470000000NN  NNW 000                       N    
RDG09001300WATRL000000005K00000000000004112003912232015111643N000300000010U93       000080500K 10000000010000003860           
CUS0900130000109435574000         MEDCO DEV           518 W FAYETTE ST                        000N        CARE OF             
MTR09001300001000000000000000RA              8046856     000800420000004200000380000000NN  NNW 000   FIRE SERVICE        N    
RDG09001300WATRL000000006K00000000000000011004012232015111647N000000000000U93       000040600K 10000000010000000011           
CUS0900130000109435576005         MEDCO DEV           518 W FAYETTE ST                        000N        CARE OF             
MTR09001300001000000000000000RA              60795961    000400430000004300000470000000NN  NNW 000                       N    
RDG09001300WATRL000000006K00000000000000000004112232015111741N000304100010U93       000540600K 10000000010000001762           
CUS0900130000109422624008         UNIVERSITY OF MD AT 513 W FAYETTE ST                        000N        CARE OF             
MTR09001300001000000000000000RA              29768433    000200440000004400000520000003NN  NNW 000                       N    
RDG09001300WATRL000000005K00000000000000001004212232015111803N000304100010U93       000220500K 10000000010000002347           
CUS0900130000109447111007         EVERYMAN'S THEATRE, 315 W FAYETTE ST                        000N        CARE OF             
MTR09001300001000000000000000RA              0006888     000600450000004500000520000000NN  NNW 000   FIRE SERVICE        N    
RDG09001300WATRL000000006K00000000000000001004312232015111808N000000000000U93       000050600K 10000000010000000001           
CUS0900130000109442033008         LA/ABELL LLC        329-35 W BALTIMORE ST                   000N        CARE OF             
MTR09001300001000000000000000RA              01117038    000200460000004600000440000003NY  NNW 000                       N    
MTM0900130001117038    steel plate                                                                                            
RDG09001300WATRL000000005K00000000000000000000000000000000000 000000000000U         000000500  10000000010000014488           
CUS0900130000109442034006         LA/ABELL LLC        329-35 W BALTIMORE ST                   000N        CARE OF             
MTR09001300001000000000000000RA              8050606     000600470000004700000380000003NY  NNW 000   FIRE SERVICE        N    
MTM090013008050606     steel plate                                                                                            
RDG09001300WATRL000000006K00000000000000000000000000000000000 000000000000U         000000600  10000000010000000006           
CUS0900130000109255661002         BALTIMORE ARENA PARK210-18 W BALTIMORE ST                   000N        CARE OF             
MTR09001300001000000000000000RA              60904439    001500480000004800000670000003NN  NNW 000                       N    
RDG09001300WATR 000000005R00000000000000001000012222015180000N000300000080N         000000500R 10000000020000000000           
RFF0900130070422868      ERT      0000  956.44375000140000122220151800000000001030100W 1210000N                               
CUS0900130000109255659006         MD. DEPT. OF GENERAL200-08 W BALTIMORE ST                   000N        CARE OF             
MTR09001300001000000000000000RA              70305392    000200490000004900000670000003NN  NNW 000                       N    
RDG09001300WATR 000000005R00000000000000136000012222015180000N000300000080N         000000500R 10000000020000000000           
RFF0900130070422864      ERT      0000  956.44375000140000122220151800000000136194100W 1210000N                               
CUS0900130000109256249005         MBC REALTY LLC      111 W BALTIMORE ST                      000N        CARE OF             
MTR09001300002000000000000000RA              4754936     000600500000005000000630000003NN  NNW 000                       N    
RDG09001300WATAL000000006K00000000000000000004412232015111951N000100000021U93       000320600K 10000000010000000000           
RDG09001300WATBL000000006K00000000000002630004512232015111919N000400000010U93       000220600K 10000000010000002356           
CUS0900130000109256250003         MBC REALTY, LLC     111 W BALTIMORE ST                      000N        CARE OF             
MTR09001300002000000000000000RA              4754935     000600510000005100000630000003NN  NNW 000                       N    
RDG09001300WATAL000000006K00000000000000010004612232015112034N000100000030U93       000430600K 10000000010000000010           
RDG09001300WATBL000000006K00000000000011445004712232015112041N000400000010U93       000070600K 10000000010000009614           
CUS0900130000109256251001         MBC REALTY INC.     111 W BALTIMORE ST                      000N        CARE OF             
MTR09001300001000000000000000RA              9203919     000400520000005200000640000003NN  NNW 000                       N    
RDG09001300WATRL000000006K00000000000000000004812232015112044S005000000000U93       000030600K 10000000010000034586           
CUS0900130000109377542007         INGERMAN & HORWITZ L20 PARK AVE                             000N        CARE OF             
MTR09001300001000000000000000RA              26100896    001500530000005300000520000003NN  NNW 000                       N    
RDG09001300WATRL000000005K00000000000000000004912232015112055N000304100010U93       000110500K 10000000010000004234           
CUS0900130000109377541009         INGERMAN & HORWITZ L20 PARK AVE                             000N        CARE OF             
MTR09001300001000000000000000RA              6030920     000400540000005400000410000003NN  NNW 000   FIRE SERVICE        N    
RDG09001300WATRL000000006K00000000000000010005012232015112058N000000000000U93       000030600K 10000000010000000010           
CUS0900130000109255657000         BLUE OCEAN 209, LLC 209-11 W FAYETTE ST                     000N        CARE OF             
MTR09001300001000000000000000RA              9104333     000400550000005500000640000003NN  NNW 000                       N    
RDG09001300WATRL000000006K00000000000017885005112232015112104N000300000010U93       000060600K 10000000010000017213           
CUS0900130000109255658008         WEST FAYETTE ASSOCIA213-25 W FAYETTE ST                     000N        CARE OF             
MTR09001300001000000000000000RA              9800056     000300560000005600000640000003NN  NNW 000                       N    
RDG09001300WATRL000000005K00000000000000562005212232015112108N000000000000U93       000040500K 10000000010000000546           
CUS0900130000109255655004         MAYOR & CITY COUNCIL221-25 W LEXINGTON ST                   000N        CARE OF             
MTR09001300001000000000000000RA              46889571    007500570000005700000520000003NN  NNW 000                       N    
RDG09001300WATRL000000004K00000000000004599005312232015112118N000400000011U93       000100400K 10000000010000004394           
CUS0900130000109255650005         MAYOR AND CITY COUNC201-13 W LEXINGTON ST                   000N        CARE OF             
MTR09001300001000000000000000RA              1377820     000800580000005800000410000000NN  NNW 000   CITY FIRE SERV      N    
RDG09001300WATRL000000006K00000000000000004005412232015112120N000000000000U93       000020600K 10000000010000000004           
CUS0900130000109255646003         CARMEL  REALTY ASSOC117-23 W LEXINGTON ST                   000N        CARE OF             
MTR09001300001000000000000000RA              32772071    000200590000005900000520000003NN  NNW 000   VACANT PROPERTY     N    
RDG09001300WATRL000000005K00000000000000564005512232015112127N000000000000U93       000070500K 10000000010000000564           
CUS0900130000109255654007         MAYOR AND CITY COUNC215-19 W LEXINGTON ST                   000N        CARE OF             
MTR09001300001000000000000000RA              5275701     000800600000006000000410000000NN  NNW 000   FIRE SERVICE        N    
RDG09001300WATRL000000006K00000000000000000005612232015112130S022000000000U93       000030600K 10000000010000000696           
CUS0900130000109255641004         MAYOR & CITY COUNCIL215 PARK AVE                            000N        CARE OF             
MTR09001300001000000000000000RA              99999999    000600610000006100000620000003NN  NNW 000   FIRE SERVICE        N    
RDG09001300WATRL000000006K00000000000000000005712232015112134S002000000000U93       000040600K 10000000010000000002           
CUS0900130000109255638000         MAYOR & CITY COUNCIL210-16 N LIBERTY ST                     000N        CARE OF             
MTR09001300001000000000000000RA              99999999    000300620000006200000620000003NN  NNW 000   FERRULE APPLIED     N    
RDG09001300WATRL000000005K00000000000000000005812232015112138N000000000000U93       000040500K 10000000010000000000           
CUS0900130000109255635006         CHARLES PLAZA, LLC  222 N CHARLES ST                        000N        CARE OF             
MTR09001300002000000000000000RA              1983375     000800630000006300000540000003NN  NNW 000                       N    
RDG09001300WATAL000000006K00000000000000324005912232015112143N000100000010U93       000050600K 10000000010000000324           
RDG09001300WATBL000000006K00000000000055471006012232015112151N000400000010U93       000080600K 10000000010000053387           
CUS0900130000109385505004         PARK CHARLES 060    211-17 N LIBERTY ST                     000N        CARE OF             
MTR09001300001000000000000000RA              1412014     000600640000006400000490000003NN  NNW 000                       N    
RDG09001300WATRL000000006K00000000000187081006112232015112157N000000000000U93       000060600K 10000000010000181392           
CUS0900130000109385504007         PARK CHARLES 060    211-17 N LIBERTY ST                     000N        CARE OF             
MTR09001300001000000000000000RA              E18636      000800650000006500000430000003NN  NNW 000   FIRE SERVICE        N    
