FHDNNNN013002418002418002418N                                                                                           007337
RHD04733000NN01930193000001930000000001930193000106NY019301930193000300000000000000000000000001    11272015NY020000 N         
CUS0473300000104128110006         DANIEL BILLINGTON CL508 HILLEN RD                           000N        CARE OF             
MTR04733000001000000000000000RA              48582260    005800010000000100000520000003NN  NNW 000                       N    
RDG04733000WATRL000000004K00000000000001572000112162015084553N000000000000N40       000000400K 10000000010000001555           
CUS0473300000104128111004         FEI G DANIEL        506 HILLEN RD                           000N        CARE OF             
MTR04733000001000000000000000RA              01084845    005800020000000200000610000003NN  NNW 000                       N    
RDG04733000WATRL000000004K00000000000000772000212162015084608N000300000010N40       000150400K 10000000010000000784           
CUS0473300000104128112002         HALLETT CHRISTOPHER 504 HILLEN RD                           000N        CARE OF             
MTR04733000001000000000000000RA              52768487    005800030000000300000520000003NN  NNW 000                       N    
RDG04733000WATRL000000004K00000000000001085000312162015084612N000000000000N40       000040400K 10000000010000001075           
CUS0473300000104128113000         SIEBERT GERHARD H   502 HILLEN RD                           000N        CARE OF             
MTR04733000001000000000000000RA              27823170    005800040000000400000520000003NN  NNW 000                       N    
RDG04733000WATRL000000004K00000000000002852000412162015084618N000000000000N40       000060400K 10000000010000002837           
CUS0473300000104128114008         LAN THI HOANG TRUONG500 HILLEN RD                           000N        CARE OF             
MTR04733000001000000000000000RA              46887966    005800050000000500000520000003NN  NNW 000                       N    
RDG04733000WATRL000000004K00000000000001709000512162015084635N000300000010N40       000170400K 10000000010000001663           
CUS0473300000104128115005         ERLANDSON ROBERT A  501 BROOK RD                            000N        CARE OF             
MTR04733000001000000000000000RA              01084848    005800060000000600000610000003NN  NNW 000                       N    
RDG04733000WATRL000000004K00000000000001116000612162015084648N000000000000N40       000130400K 10000000010000001080           
CUS0473300000104128116003         ALEXANDER J BALL    503 BROOK RD                            000N        CARE OF             
MTR04733000001000000000000000RA              00139208    005800070000000700000570000003NN  NNW 000                       N    
RDG04733000WATRL000000004K00000000000001496000712162015084652N000000000000N40       000040400K 10000000010000001465           
CUS0473300000104128117001         FANNON MICHAEL T    505 BROOK RD                            000N        CARE OF             
MTR04733000001000000000000000RA              14902278    005800080000000800000310000003NN  NNW 000                       N    
RDG04733000WATRL000000004K00000000000001296000812162015084656N000000000000N40       000040400K 10000000010000001276           
CUS0473300000104128118009         BIGGS JAMES E       507 BROOK RD                            000N        CARE OF             
MTR04733000001000000000000000RA              9686741     005800090000000900000570000003NN  NNW 000                       N    
RDG04733000WATRL000000004K00000000000004658000912162015084704N000000000000N40       000080400K 10000000010000004655           
CUS0473300000104128119007         POSCOVER GEORGE F   509 BROOK RD                            000N        CARE OF             
MTR04733000001000000000000000RA              26004915    005800100000001000000520000003NN  NNW 000                       N    
RDG04733000WATRL000000004K00000000000003570001012162015084710N000000000000N40       000060400K 10000000010000003549           
CUS0473300000104128120005         HAWKINS DENNIS A    511 BROOK RD                            000N        CARE OF             
MTR04733000001000000000000000RA              45381351    005800110000001100000520000003NN  NNW 000                       N    
RDG04733000WATRL000000004K00000000000001627001112162015084716N000000000000N40       000060400K 10000000010000001616           
CUS0473300000104128121003         CARL RICHARD D      513 BROOK RD                            000N        CARE OF             
MTR04733000001000000000000000RA              9683806     005800120000001200000570000003NN  NNW 000                       N    
RDG04733000WATRL000000004K00000000000005200001212162015084720N000000000000N40       000040400K 10000000010000005183           
CUS0473300000104128122001         HIEGEL JAMES S      515 BROOK RD                            000N        CARE OF             
MTR04733000001000000000000000RA              36690826    005800130000001300000520000003NN  NNW 000                       N    
RDG04733000WATRL000000004K00000000000006792001312162015084726N000000000000N40       000060400K 10000000010000006754           
CUS0473300000104128123009         JANIS L. BAHNER     517 BROOK RD                            000N        CARE OF             
MTR04733000001000000000000000RA              33734820    005800140000001400000520000003NN  NNW 000                       N    
RDG04733000WATRL000000004K00000000000002141001412162015084734N000000000010N40       000080400K 10000000010000002140           
CUS0473300000104128124007         SINCLAIR WILLIAM T,3519 BROOK RD                            000N        CARE OF             
MTR04733000001000000000000000RA              45381321    005800150000001500000520000003NN  NNW 000                       N    
RDG04733000WATRL000000004K00000000000002589001512162015084737N000000000000N40       000030400K 10000000010000002567           
CUS0473300000104128125004         CR OF MARYLAND,LLC  521 BROOK RD                            000N        CARE OF             
MTR04733000001000000000000000RA              14901960    005800160000001600000310000003NN  NNW 000                       N    
RDG04733000WATRL000000004K00000000000000762001612162015084741N000000000000N40       000040400K 10000000010000000755           
CUS0473300000104128126002         DENGLER HELEN       523 BROOK RD                            000N        CARE OF             
MTR04733000001000000000000000RA              00130716    005800170000001700000570000003NN  NNW 000                       N    
RDG04733000WATRL000000004K00000000000000649001712162015084800N000000000000N40       000190400K 10000000010000000644           
CUS0473300000104128127000         KOCUN KENNETH J     525 BROOK RD                            000N        CARE OF             
MTR04733000001000000000000000RA              9691092     005800180000001800000570000003NN  NNW 000                       N    
RDG04733000WATRL000000004K00000000000004715001812162015084805N000000000000N40       000050400K 10000000010000004692           
CUS0473300000104128128008         STRAUSS NANETTE E   527 BROOK RD                            000N        CARE OF             
MTR04733000001000000000000000RA              24773527    005800190000001900000520000003NN  NNW 000                       N    
RDG04733000WATRL000000004K00000000000003696001912162015084810N000000000000N40       000050400K 10000000010000003685           
CUS0473300000104128129006         GONZALEZ CHAPMAN P,3529 BROOK RD                            000N        CARE OF             
MTR04733000001000000000000000RA              26004832    005800200000002000000520000003NN  NNW 000                       N    
RDG04733000WATRL000000004K00000000000002036002012162015084813N000000000000N40       000030400K 10000000010000002032           
CUS0473300000104128130004         GREEN BRIAN         531 BROOK RD                            000N        CARE OF             
MTR04733000001000000000000000RA              26002545    005800210000002100000520000003NN  NNW 000                       N    
RDG04733000WATRL000000004K00000000000004640002112162015084818N000000000000N40       000050400K 10000000010000004618           
CUS0473300000104128131002         ROBERT A BISHOFF ,JR533 BROOK RD                            000N        CARE OF             
MTR04733000001000000000000000RA              45381577    005800220000002200000520000003NN  NNW 000                       N    
RDG04733000WATRL000000004K00000000000002675002212162015084822N000000000000N40       000040400K 10000000010000002654           
CUS0473300000104128132000         GITTINGS RYAN H     535 BROOK RD                            000N        CARE OF             
MTR04733000001000000000000000RA              48583955    005800230000002300000520000003NN  NNW 000                       N    
RDG04733000WATRL000000004K00000000000002396002312162015084827N000000000000N40       000050400K 10000000010000002373           
CUS0473300000104128133008         KRUM JAMES ALLEN    537 BROOK RD                            000N        CARE OF             
MTR04733000001000000000000000RA              33077569    005800240000002400000520000003NN  NNW 000                       N    
RDG04733000WATRL000000004K00000000000003179002412162015084830N000000000000N40       000030400K 10000000010000003168           
CUS0473300000104128134006         WEINSTOCK MATTHEW A 539 BROOK RD                            000N        CARE OF             
MTR04733000001000000000000000RA              30516840    005800250000002500000520000003NN  NNW 000                       N    
RDG04733000WATRL000000004K00000000000003255002512162015084832N000000000000N40       000020400K 10000000010000003232           
CUS0473300000104128135003         LISA M. KATULIS     541 BROOK RD                            000N        CARE OF             
MTR04733000001000000000000000RA              00130013    005800260000002600000570000003NN  NNW 000                       N    
RDG04733000WATRL000000004K00000000000000683002612162015084842N000000000000N40       000100400K 10000000010000000675           
CUS0473300000104128136001         KARA S. BROWN       543 BROOK RD                            000N        CARE OF             
MTR04733000001000000000000000RA              14916420    005800270000002700000310000003NN  NNW 000                       N    
RDG04733000WATRL000000004K00000000000000811002712162015084847N000000000000N40       000050400K 10000000010000000798           
CUS0473300000104128137009         DOHONY JOSEPH P     545 BROOK RD                            000N        CARE OF             
MTR04733000001000000000000000RA              99189519    005800280000002800000570000003NN  NNW 000                       N    
RDG04733000WATRL000000004K00000000000001664002812162015084850N000000000000N40       000030400K 10000000010000001643           
CUS0473300000104128138007         RETTBERG WILLIAM J  547 BROOK RD                            000N        CARE OF             
MTR04733000001000000000000000RA              01111931    005800290000002900000610000003NN  NNW 000                       N    
RDG04733000WATRL000000004K00000000000000833002912162015084853N000000000000N40       000030400K 10000000010000000812           
CUS0473300000104128139005         PEARL MARCIA L      549 BROOK RD                            000N        CARE OF             
MTR04733000001000000000000000RA              26001174    005800300000003000000520000003NN  NNW 000                       N    
RDG04733000WATRL000000004K00000000000000264003012162015084857N000000000000N40       000040400K 10000000010000000253           
CUS0473300000104128140003         RICE GARY W         551 BROOK RD                            000N        CARE OF             
MTR04733000001000000000000000RA              75616850    005800310000003100000350000003NN  NNW 000                       N    
RDG04733000WATRL000000004K00000000000000047003112162015084907N000000000000N40       000100400K 10000000010000000043           
CUS0473300000104128141001         DEMILLO PAUL A      553 BROOK RD                            000N        CARE OF             
MTR04733000001000000000000000RA              45373176    005800320000003200000520000003NN  NNW 000                       N    
RDG04733000WATRL000000004K00000000000003116003212162015084912N000000000000N40       000050400K 10000000010000003098           
CUS0473300000104128142009         BARBIERI JOHN J,JR  555 BROOK RD                            000N        CARE OF             
MTR04733000001000000000000000RA              45381578    005800330000003300000520000003NN  NNW 000                       N    
RDG04733000WATRL000000004K00000000000002914003312162015084925N000000000000N40       000130400K 10000000010000002891           
CUS0473300000104128143007         PLEAH TSIGUE G      557 BROOK RD                            000N        CARE OF             
MTR04733000001000000000000000RA              26013519    005800340000003400000520000003NN  NNW 000                       N    
RDG04733000WATRL000000004K00000000000004489003412162015084931N000000000000N40       000060400K 10000000010000004476           
CUS0473300000104128144005         FRANTZ STEPHEN E    559 BROOK RD                            000N        CARE OF             
MTR04733000001000000000000000RA              9689758     005800350000003500000570000003NN  NNW 000                       N    
RDG04733000WATRL000000004K00000000000006277003512162015084938N000000000000N40       000070400K 10000000010000006253           
CUS0473300000104128145002         MEBUST J LELAND     561 BROOK RD                            000N        CARE OF             
MTR04733000001000000000000000RA              45373202    005800360000003600000520000003NN  NNW 000                       N    
RDG04733000WATRL000000004K00000000000002603003612162015084943N000000000000N40       000050400K 10000000010000002594           
CUS0473300000104128146000         MESSERCOLA NAZARENO 563 BROOK RD                            000N        CARE OF             
MTR04733000001000000000000000RA              45373172    005800370000003700000520000003NN  NNW 000                       N    
RDG04733000WATRL000000004K00000000000004051003712162015084947N000000000000N40       000040400K 10000000010000004030           
CUS0473300000104128147008         WILKENS IRENE A     565 BROOK RD                            000N        CARE OF             
MTR04733000001000000000000000RA              40320871    005800380000003800000520000003NN  NNW 000                       N    
RDG04733000WATRL000000004K00000000000001099003812162015084951N000000000000N40       000040400K 10000000010000001088           
CUS0473300000104128148006         HOOPER ROBERT LAWREN567 BROOK RD                            000N        CARE OF             
MTR04733000001000000000000000RA              38983274    005800390000003900000520000003NN  NNW 000                       N    
RDG04733000WATRL000000004K00000000000002875003912162015084956N000000000000N40       000050400K 10000000010000002850           
CUS0473300000104128149004         SKRIVAN FRANK A     569 BROOK RD                            000N        CARE OF             
MTR04733000001000000000000000RA              99189518    005800400000004000000570000003NN  NNW 000                       N    
RDG04733000WATRL000000004K00000000000001709004012162015085002N000000000000N40       000060400K 10000000010000001676           
CUS0473300000104128150002         RIZZO RALPH J,JR  ET571 BROOK RD                            000N        CARE OF             
MTR04733000001000000000000000RA              99189516    005800410000004100000570000003NN  NNW 000                       N    
RDG04733000WATRL000000004K00000000000000565004112162015085009N000000000000N40       000070400K 10000000010000000561           
CUS0473300000104128151000         HENDERSON MICHAEL C 573 BROOK RD                            000N        CARE OF             
MTR04733000001000000000000000RA              38887238    005800420000004200000520000003NN  NNW 000                       N    
RDG04733000WATRL000000004K00000000000003642004212162015085014N000000000000N40       000050400K 10000000010000003595           
CUS0473300000104128152008         JASON B. CONNOR     575 BROOK RD                            000N        CARE OF             
MTR04733000001000000000000000RA              27134472    005800430000004300000520000003NN  NNW 000                       N    
RDG04733000WATRL000000004K00000000000002629004312162015085022N000000000000N40       000080400K 10000000010000002614           
CUS0473300000104128153006         MULLEN THOMAS F,JR  577 BROOK RD                            000N        CARE OF             
MTR04733000001000000000000000RA              38887848    005800440000004400000520000003NN  NNW 000                       N    
RDG04733000WATRL000000004K00000000000002105004412162015085026N000000000000N40       000040400K 10000000010000002101           
CUS0473300000104128154004         LEE RUTHE A         579 BROOK RD                            000N        CARE OF             
MTR04733000001000000000000000RA              40047267    005800450000004500000520000003NN  NNW 000                       N    
RDG04733000WATRL000000004K00000000000002070004512162015085031N000000000000N40       000050400K 10000000010000002066           
CUS0473300000104128155001         ALLEN DENISE A      581 BROOK RD                            000N        CARE OF             
MTR04733000001000000000000000RA              45381555    005800460000004600000520000003NN  NNW 000                       N    
RDG04733000WATRL000000004K00000000000002155004612162015085035N000000000000N40       000040400K 10000000010000002145           
CUS0473300000104128156009         ROLKER JOHN G       548 BROOK RD                            000N        CARE OF             
MTR04733000001000000000000000RA              46888648    005800470000004700000520000003NN  NNW 000                       N    
RDG04733000WATRL000000004K00000000000002772004712162015085040N000000000000N40       000050400K 10000000010000002748           
CUS0473300000104128157007         BENJAMIN BOBLOOCHA  546 BROOK RD                            000N        CARE OF             
MTR04733000001000000000000000RA              01076575    005800480000004800000610000003NN  NNW 000                       N    
RDG04733000WATRL000000004K00000000000000966004812162015085043N000000000000N40       000030400K 10000000010000000942           
CUS0473300000104128158005         BICKERS WANDA K     544 BROOK RD                            000N        CARE OF             
MTR04733000001000000000000000RA              9596694     005800490000004900000570000003NN  NNW 000                       N    
RDG04733000WATRL000000004K00000000000006809004912162015085054N000300000010N40       000110400K 10000000010000006783           
CUS0473300000104128159003         DUNN ELIZABETH BARTO542 BROOK RD                            000N        CARE OF             
MTR04733000001000000000000000RA              26003163    005800500000005000000520000003NN  NNW 000                       N    
RDG04733000WATRL000000004K00000000000002005005012162015085057N000000000000N40       000030400K 10000000010000001996           
CUS0473300000104128160001         CHARLES WATTLES     540 BROOK RD                            000N        CARE OF             
MTR04733000001000000000000000RA              27814999    005800510000005100000520000003NN  NNW 000                       N    
RDG04733000WATRL000000004K00000000000002347005112162015085105N000400000010N40       000080400K 10000000010000002344           
CUS0473300000104128161009         SHEARIN WILLIAM H   538 BROOK RD                            000N        CARE OF             
MTR04733000001000000000000000RA              45381551    005800520000005200000520000003NN  NNW 000                       N    
RDG04733000WATRL000000004K00000000000002291005212162015085110N000000000000N40       000050400K 10000000010000002278           
CUS0473300000104128162007         CURRENS NANCY LEE   536 BROOK RD                            000N        CARE OF             
MTR04733000001000000000000000RA              11429154    005800530000005300000570000003NN  NNW 000                       N    
RDG04733000WATRL000000004K00000000000002330005312162015085115N000000000000N40       000050400K 10000000010000002325           
CUS0473300000104128163005         REED BETTY M        534 BROOK RD                            000N        CARE OF             
MTR04733000001000000000000000RA              44178319    005800540000005400000520000003NN  NNW 000                       N    
RDG04733000WATRL000000004K00000000000001514005412162015085121N000000000000N40       000060400K 10000000010000001506           
CUS0473300000104128164003         ARIO J HORTON       532 BROOK RD                            000N        CARE OF             
MTR04733000001000000000000000RA              45373167    005800550000005500000520000003NN  NNW 000                       N    
RDG04733000WATRL000000004K00000000000001013005512162015085126N000000000000N40       000050400K 10000000010000000999           
CUS0473300000104128165000         LANGRALL DENNIS W   530 BROOK RD                            000N        CARE OF             
MTR04733000001000000000000000RA              45381558    005800560000005600000520000003NN  NNW 000                       N    
RDG04733000WATRL000000004K00000000000003424005612162015085134N000400000010N40       000080400K 10000000010000003407           
CUS0473300000104128166008         BOYLE FRANK J       528 BROOK RD                            000N        CARE OF             
MTR04733000001000000000000000RA              26016669    005800570000005700000520000003NN  NNW 000                       N    
RDG04733000WATRL000000004K00000000000005178005712162015085149N000300000010N40       000150400K 10000000010000005159           
CUS0473300000104128167006         SAMUEL Q THARPE , JR526 BROOK RD                            000N        CARE OF             
MTR04733000001000000000000000RA              45381556    005800580000005800000520000003NN  NNW 000                       N    
RDG04733000WATRL000000004K00000000000002744005812162015085154N000000000000N40       000050400K 10000000010000002740           
CUS0473300000104128168004         BLAUVELT MATTHEW S  524 BROOK RD                            000N        CARE OF             
MTR04733000001000000000000000RA              11337162    005800590000005900000570000003NN  NNW 000                       N    
RDG04733000WATRL000000004K00000000000005573005912162015085159N000000000000N40       000050400K 10000000010000005548           
CUS0473300000104128169002         ROSE JOSEPH A       510 BROOK RD                            000N        CARE OF             
MTR04733000001000000000000000RA              33077054    005800600000006000000520000003NN  NNW 000                       N    
RDG04733000WATRL000000004K00000000000004086006012162015085205N000000000000N40       000060400K 10000000010000004057           
CUS0473300000104128170000         NATHALIE LABARRE    508 BROOK RD                            000N        CARE OF             
MTR04733000001000000000000000RA              14900339    005800610000006100000310000003NN  NNW 000                       N    
RDG04733000WATRL000000004K00000000000000772006112162015085215N000000000000N40       000100400K 10000000010000000751           
CUS0473300000104128171008         RYAN JORDAN         506 BROOK RD                            000N        CARE OF             
MTR04733000001000000000000000RA              45381316    005800620000006200000520000003NN  NNW 000                       N    
RDG04733000WATRL000000004K00000000000002261006212162015085219N000000000000N40       000040400K 10000000010000002245           
CUS0473300000104128172006         KUHN THOMAS D       504 BROOK RD                            000N        CARE OF             
MTR04733000001000000000000000RA              33077059    005800630000006300000520000003NN  NNW 000                       N    
RDG04733000WATRL000000004K00000000000002389006312162015085224N000000000000N40       000050400K 10000000010000002364           
CUS0473300000104128173004         HOLLAND TIMOTHY R   502 BROOK RD                            000N        CARE OF             
MTR04733000001000000000000000RA              00130018    005800640000006400000570000003NN  NNW 000                       N    
RDG04733000WATRL000000004K00000000000001495006412162015085230N000000000000N40       000060400K 10000000010000001456           
CUS0473300000104128174002         BELCHER GREGORY P   500 BROOK RD                            000N        CARE OF             
MTR04733000001000000000000000RA              46888653    005800650000006500000520000003NN  NNW 000                       N    
RDG04733000WATRL000000004K00000000000001892006512162015085240N000000000000N40       000100400K 10000000010000001867           
CUS0473300000104128175009         FADER WILLIAM A     416 BROOK RD                            000N        CARE OF             
MTR04733000001000000000000000RA              23055889    005800660000006600000520000003NN  NNW 000                       N    
RDG04733000WATRL000000004K00000000000002125013612162015094015N000000000000N40       001220400K 10000000010000002111           
CUS0473300000104128176007         NEIBERLINE MIRIAM H 414 BROOK RD                            000N        CARE OF             
MTR04733000001000000000000000RA              30521446    005800670000006700000520000003NN  NNW 000                       N    
RDG04733000WATRL000000004K00000000000003520013712162015094144N000000000000N40       000890400K 10000000010000003502           
CUS0473300000104128177005         SCALLEY KEVIN       412 BROOK RD                            000N        CARE OF             
MTR04733000001000000000000000RA              45381347    005800680000006800000520000003NN  NNW 000                       N    
RDG04733000WATRL000000004K00000000000001808013812162015094232N000000000000N40       000480400K 10000000010000001783           
CUS0473300000104128178003         MERIDA DIEGO C      102 OVERCREST RD                        000N        CARE OF             
MTR04733000001000000000000000RA              24226271    005800690000006900000520000003NN  NNW 000                       N    
RDG04733000WATRL000000004K00000000000003781013912162015094412N000000000000N40       001000400K 10000000010000003762           
CUS0473300000104128179001         DICKENSHEETS TODD   104 OVERCREST RD                        000N        CARE OF             
MTR04733000001000000000000000RA              44089803    005800700000007000000520000003NN  NNW 000                       N    
RDG04733000WATRL000000004K00000000000002354014012162015094455N000000000000N40       000430400K 10000000010000002330           
CUS0473300000104128180009         CWALINA ROBERT B    106 OVERCREST RD                        000N        CARE OF             
MTR04733000001000000000000000RA              75615745    005800710000007100000350000003NN  NNW 000                       N    
RDG04733000WATRL000000004K00000000000000113014112162015094547N000000000000N40       000520400K 10000000010000000098           
CUS0473300000104128181007         TESTONI ROBERT      108 OVERCREST RD                        000N        CARE OF             
MTR04733000001000000000000000RA              23644927    005800720000007200000520000003NN  NNW 000                       N    
RDG04733000WATRL000000004K00000000000005270014212162015094651N000000000000N40       000640400K 10000000010000005249           
CUS0473300000104128182005         MARTIN KAREN L      1307 STEVENSON LN                       000N        CARE OF             
MTR04733000001000000000000000RA              10013080    005800730000007300000570000003NN  NNW 000                       N    
RDG04733000WATRL000000004K00000000000000293014312162015094828N000000000000N40       000970400K 10000000010000000274           
CUS0473300000104128183003         ZHE LI503 LLC       503 OVERCREST RD                        000N        CARE OF             
MTR04733000001000000000000000RA              31580670    005800740000007400000520000003NN  NNW 000                       N    
RDG04733000WATRL000000004K00000000000002045014412162015094916N000000000000N40       000480400K 10000000010000002014           
CUS0473300000104128184001         GOURDIN BARBARA SI  505 OVERCREST RD                        000N        CARE OF             
MTR04733000001000000000000000RA              39925813    005800750000007500000520000003NN  NNW 000                       N    
RDG04733000WATRL000000004K00000000000001975014512162015095002N000000000000N40       000460400K 10000000010000001961           
CUS0473300000104128185008         GROENINGER GERARD T 507 OVERCREST RD                        000N        CARE OF             
MTR04733000001000000000000000RA              29402801    005800760000007600000520000003NN  NNW 000                       N    
RDG04733000WATRL000000004K00000000000002951014612162015095046N000000000000N40       000440400K 10000000010000002946           
CUS0473300000104128186006         ARTHUR L LEGAR III  509 OVERCREST RD                        000N        CARE OF             
MTR04733000001000000000000000RA              45381584    005800770000007700000520000003NN  NNW 000                       N    
RDG04733000WATRL000000004K00000000000001644014712162015095231N000400000010N40       001050400K 10000000010000001643           
CUS0473300000104128187004         SCHULTZ JEFFREY C   511 OVERCREST RD                        000N        CARE OF             
MTR04733000001000000000000000RA              45381552    005800780000007800000520000003NN  NNW 000                       N    
RDG04733000WATRL000000004K00000000000000886014812162015095313N000000000000N40       000420400K 10000000010000000882           
CUS0473300000104128188002         CUNNINGHAM PAUL     513 OVERCREST RD                        000N        CARE OF             
MTR04733000001000000000000000RA              11337025    005800790000007900000570000003NN  NNW 000                       N    
RDG04733000WATRL000000004K00000000000005881014912162015095447N000000000000N40       000940400K 10000000010000005855           
CUS0473300000104128189000         COONS THOMAS W      516 OVERCREST RD                        000N        CARE OF             
MTR04733000001000000000000000RA              24758204    005800800000008000000520000003NN  NNW 000                       N    
RDG04733000WATRL000000004K00000000000004461006612162015085312N000000000000N40       000320400K 10000000010000004441           
CUS0473300000104128190008         RYAN J WEBER        514 OVERCREST RD                        000N        CARE OF             
MTR04733000001000000000000000RA              78005963    005800810000008100000360000003NN  NNW 000                       N    
RDG04733000WATRL000000004K00000000000000056015012162015095632N000400000010N40       001050400K 10000000010000000049           
CUS0473300000104128191006         TURNER RORY P B     512 OVERCREST RD                        000N        CARE OF             
MTR04733000001000000000000000RA              39925819    005800820000008200000520000003NN  NNW 000                       N    
RDG04733000WATRL000000004K00000000000003208015112162015095821N000000000000N40       001090400K 10000000010000003178           
CUS0473300000104128192004         CACHIA MYRIAM       510 OVERCREST RD                        000N        CARE OF             
MTR04733000001000000000000000RA              44175502    005800830000008300000520000003NN  NNW 000                       N    
RDG04733000WATRL000000004K00000000000001604015212162015095914N000000000000N40       000530400K 10000000010000001588           
CUS0473300000104128193002         PORTER STEPHEN W    508 OVERCREST RD                        000N        CARE OF             
MTR04733000001000000000000000RA              45381581    005800840000008400000520000003NN  NNW 000                       N    
RDG04733000WATRL000000004K00000000000002231015312162015100000N000000000000N40       000460400K 10000000010000002213           
CUS0473300000104128194000         LIST DONALD J       506 OVERCREST RD                        000N        CARE OF             
MTR04733000001000000000000000RA              48585656    005800850000008500000520000003NN  NNW 000                       N    
RDG04733000WATRL000000004K00000000000001944015412162015100146N000000000000N40       001060400K 10000000010000001914           
CUS0473300000104128195007         LIPPA TIMOTHY       504 OVERCREST RD                        000N        CARE OF             
MTR04733000001000000000000000RA              39925812    005800860000008600000520000003NN  NNW 000                       N    
RDG04733000WATRL000000004K00000000000003139015512162015100230N000300000010N40       000440400K 10000000010000003109           
CUS0473300000104128196005         BEAHN JOSEPH E      502 OVERCREST RD                        000N        CARE OF             
MTR04733000001000000000000000RA              26001124    005800870000008700000520000003NN  NNW 000                       N    
RDG04733000WATRL000000004K00000000000004113015612162015100306N000000000000N40       000360400K 10000000010000004071           
CUS0473300000104128197003         SLAYBAUGH HEATHER D 500 OVERCREST RD                        000N        CARE OF             
MTR04733000001000000000000000RA              00129675    005800880000008800000570000003NN  NNW 000                       N    
RDG04733000WATRL000000004K00000000000001745015712162015100403N000000000000N40       000570400K 10000000010000001732           
CUS0473300000104128198001         KATHLEEN REIF       501 HOLDEN RD                           000N        CARE OF             
MTR04733000001000000000000000RA              11330449    005800890000008900000570000003NN  NNW 000                       N    
RDG04733000WATRL000000004K00000000000003981015812162015100542N000300000010N40       000990400K 10000000010000003967           
CUS0473300000104128199009         VONDRASEK CLAUDIA   503 HOLDEN RD                           000N        CARE OF             
MTR04733000001000000000000000RA              40320612    005800900000009000000520000003NN  NNW 000                       N    
RDG04733000WATRL000000004K00000000000002013015912162015100620N000000000000N40       000380400K 10000000010000002007           
CUS0473300000104128200005         TANNAN PAWAN K      505 HOLDEN RD                           000N        CARE OF             
MTR04733000001000000000000000RA              26018317    005800910000009100000520000003NN  NNW 000                       N    
RDG04733000WATRL000000004K00000000000002404016012162015100736N000300000010N40       000760400K 10000000010000002368           
CUS0473300000104128201003         FAHDT FREDERICK E   507 HOLDEN RD                           000N        CARE OF             
MTR04733000001000000000000000RA              00130011    005800920000009200000570000003NN  NNW 000                       N    
RDG04733000WATRL000000004K00000000000001501016112162015100832N000000000000N40       000560400K 10000000010000001484           
CUS0473300000104128202001         MACK JENNIFER R     509 HOLDEN RD                           000N        CARE OF             
MTR04733000001000000000000000RA              50786648    005800930000009300000520000003NN  NNW 000                       N    
RDG04733000WATRL000000004K00000000000001361016212162015100919N000000000000N40       000470400K 10000000010000001351           
CUS0473300000104128203009         BALTIMORE ASSOCIATIO511 HOLDEN RD                           000N        CARE OF             
MTR04733000001000000000000000RA              14902277    005800940000009400000310000003NN  NNW 000                       N    
RDG04733000WATRL000000004K00000000000002168016312162015101104N000300000010N40       001050400K 10000000010000002004           
CUS0473300000104128204007         DILAURA THOMAS EDWIN513 HOLDEN RD                           000N        CARE OF             
MTR04733000001000000000000000RA              27820221    005800950000009500000520000003NN  NNW 000                       N    
RDG04733000WATRL000000004K00000000000004452016412162015101202N000000000000N40       000580400K 10000000010000004425           
CUS0473300000104128205004         DREYFUS BARBARA M   515 HOLDEN RD                           000N        CARE OF             
MTR04733000001000000000000000RA              00130016    005800960000009600000570000003NN  NNW 000                       N    
RDG04733000WATRL000000004K00000000000001180016512162015101244N000000000000N40       000420400K 10000000010000001161           
CUS0473300000104128206002         BETTY W KLARE       517 HOLDEN RD                           000N        CARE OF             
MTR04733000001000000000000000RA              00130012    005800970000009700000570000003NN  NNW 000                       N    
RDG04733000WATRL000000004K00000000000001623016612162015101326N000000000000N40       000420400K 10000000010000001598           
CUS0473300000104128207000         DOLAN DENIS P       519 HOLDEN RD                           000N        CARE OF             
MTR04733000001000000000000000RA              35108076    005800980000009800000520000003NN  NNW 000                       N    
RDG04733000WATRL000000004K00000000000003313016712162015101351N000000000000N40       000250400K 10000000010000003281           
CUS0473300000104128208008         STEPHENS JON E      521 HOLDEN RD                           000N        CARE OF             
MTR04733000001000000000000000RA              31580646    005800990000009900000520000003NN  NNW 000                       N    
RDG04733000WATRL000000004K00000000000001669006712162015085347N000000000000N40       000350400K 10000000010000001661           
CUS0473300000104128209006         LEE THELMA E        522 HOLDEN RD                           000N        CARE OF             
MTR04733000001000000000000000RA              99287691    005801000000010000000570000003NN  NNW 000                       N    
RDG04733000WATRL000000004K00000000000001216016812162015101432N000000000000N40       000410400K 10000000010000001194           
CUS0473300000104128210004         DAVLIN JOSHUA E     520 HOLDEN RD                           000N        CARE OF             
MTR04733000001000000000000000RA              00130014    005801010000010100000570000003NN  NNW 000                       N    
RDG04733000WATRL000000004K00000000000001825016912162015101453N000000000000N40       000210400K 10000000010000001798           
CUS0473300000104128211002         JACOBS DALLAS F,3RD 518 HOLDEN RD                           000N        CARE OF             
MTR04733000001000000000000000RA              35117393    005801020000010200000520000003NN  NNW 000                       N    
RDG04733000WATRL000000004K00000000000002539017012162015101552N000000000000N40       000590400K 10000000010000002530           
CUS0473300000104128212000         BROSSO MARY LOUISE  516 HOLDEN RD                           000N        CARE OF             
MTR04733000001000000000000000RA              14911774    005801030000010300000310000003NN  NNW 000                       N    
RDG04733000WATRL000000004K00000000000000328017112162015101621N000000000000N40       000290400K 10000000010000000300           
CUS0473300000104128213008         REICHEL MICHAEL E   514 HOLDEN RD                           000N        CARE OF             
MTR04733000001000000000000000RA              40781331    005801040000010400000520000003NN  NNW 000                       N    
RDG04733000WATRL000000004K00000000000003742017212162015101658N000000000000N40       000370400K 10000000010000003738           
CUS0473300000104128214006         CATALANA ROSEMARY   512 HOLDEN RD                           000N        CARE OF             
MTR04733000001000000000000000RA              35098903    005801050000010500000520000003NN  NNW 000                       N    
RDG04733000WATRL000000004K00000000000001374017312162015101759N000000000000N40       000610400K 10000000010000001366           
CUS0473300000104128215003         KING-WHITE RYAN     510 HOLDEN RD                           000N        CARE OF             
MTR04733000001000000000000000RA              26013810    005801060000010600000520000003NN  NNW 000                       N    
RDG04733000WATRL000000004K00000000000002055017412162015101926N000000000000N40       000870400K 10000000010000002039           
CUS0473300000104128216001         THOMAS KLINE        508 HOLDEN RD                           000N        CARE OF             
MTR04733000001000000000000000RA              00130015    005801070000010700000570000003NN  NNW 000                       N    
RDG04733000WATRL000000004K00000000000000734017512162015101956N000300000010N40       000300400K 10000000010000000728           
CUS0473300000104128217009         JONES THEODORE S    506 HOLDEN RD                           000N        CARE OF             
MTR04733000001000000000000000RA              52768464    005801080000010800000520000003NN  NNW 000                       N    
RDG04733000WATRL000000004K00000000000001672017612162015102048N000000000000N40       000520400K 10000000010000001642           
CUS0473300000104128218007         MARYLAND REO REALTY 504 HOLDEN RD                           000N        CARE OF             
MTR04733000001000000000000000RA              10021392    005801090000010900000570000003NN  NNW 000                       N    
RDG04733000WATRL000000004K00000000000000223017712162015102115N000000000000N40       000270400K 10000000010000000221           
CUS0473300000104128219005         HEINZ E ROPERS      502 HOLDEN RD                           000N        CARE OF             
MTR04733000001000000000000000RA              00129730    005801100000011000000570000003NN  NNW 000                       N    
RDG04733000WATRL000000004K00000000000001062017812162015102147N000400000010N40       000320400K 10000000010000001058           
CUS0473300000104128220003         REZEK LUCINDA A     1401 STEVENSON LN                       000N        CARE OF             
MTR04733000001000000000000000RA              44087072    005801110000011100000520000003NN  NNW 000                       N    
RDG04733000WATRL000000004K00000000000001865006812162015085414N000400000010N40       000270400K 10000000010000001853           
CUS0473300000104128221001         TALWAR VIKRAM       1403 STEVENSON LN                       000N        CARE OF             
MTR04733000001000000000000000RA              14912518    005801120000011200000310000003NN  NNW 000                       N    
RDG04733000WATRL000000004K00000000000000000000000000000000000 000000000000U         000000400  10000000010000001135           
CUS0473300000104128222009         GERDING JOHN J      115 OVERCREST RD                        000N        CARE OF             
MTR04733000001000000000000000RA              33080701    005801130000011300000520000003NN  NNW 000                       N    
RDG04733000WATRL000000004K00000000000002454017912162015102418N000300000010N40       001510400K 10000000010000002406           
CUS0473300000104128223007         STALTER J LYLE      113 OVERCREST RD                        000N        CARE OF             
MTR04733000001000000000000000RA              39925809    005801140000011400000520000003NN  NNW 000                       N    
RDG04733000WATRL000000004K00000000000002143018012162015102439N000000000000N40       000210400K 10000000010000002106           
CUS0473300000104128224005         HANDLER ROANNE      111 OVERCREST RD                        000N        CARE OF             
MTR04733000001000000000000000RA              45384763    005801150000011500000520000003NN  NNW 000                       N    
RDG04733000WATRL000000004K00000000000002033018112162015102502N000000000000N40       000230400K 10000000010000001993           
CUS0473300000104128225002         COLLINS SAMUEL L    109 OVERCREST RD                        000N        CARE OF             
MTR04733000001000000000000000RA              29682325    005801160000011600000520000003NN  NNW 000                       N    
RDG04733000WATRL000000004K00000000000003537018212162015102533N000000000000N40       000310400K 10000000010000003526           
CUS0473300000104128226000         SEWARD ALBERT B     107 OVERCREST RD                        000N        CARE OF             
MTR04733000001000000000000000RA              48585706    005801170000011700000520000003NN  NNW 000                       N    
RDG04733000WATRL000000004K00000000000000996018312162015102611N000000000000N40       000380400K 10000000010000000989           
CUS0473300000104128227008         FRITSCHE EDGAR CHARL105 OVERCREST RD                        000N        CARE OF             
MTR04733000001000000000000000RA              40320583    005801180000011800000520000003NN  NNW 000                       N    
RDG04733000WATRL000000004K00000000000002258018412162015102647N000000000000N40       000360400K 10000000010000002249           
CUS0473300000104128228006         VOCCI CHRISTOPHER G 103 OVERCREST RD                        000N        CARE OF             
MTR04733000001000000000000000RA              52289661    005801190000011900000520000003NN  NNW 000                       N    
RDG04733000WATRL000000004K00000000000000915018512162015102711N000000000000N40       000240400K 10000000010000000882           
CUS0473300000104128229004         SEIDL RONALD G      400 BROOK RD                            000N        CARE OF             
MTR04733000001000000000000000RA              00130124    005801200000012000000570000003NN  NNW 000                       N    
RDG04733000WATRL000000004K00000000000002039018612162015102909N000000000000N40       001180400K 10000000010000001999           
CUS0473300000104128230002         MURTHY SANKARSHAN NA401 BROOK RD                            000N        CARE OF             
MTR04733000001000000000000000RA              30516845    005801210000012100000520000003NN  NNW 000                       N    
RDG04733000WATRL000000004K00000000000002788013112162015093500N000000000000N40       005610400K 10000000010000002779           
CUS0473300000104128231000         HOKE EDWIN R        403 BROOK RD                            000N        CARE OF             
MTR04733000001000000000000000RA              32573569    005801220000012200000520000003NN  NNW 000                       N    
RDG04733000WATRL000000004K00000000000002833013212162015093532N000000000000N40       000320400K 10000000010000002823           
CUS0473300000104128232008         MAY KENNETH M       405 BROOK RD                            000N        CARE OF             
MTR04733000001000000000000000RA              24220729    005801230000012300000520000003NN  NNW 000                       N    
RDG04733000WATRL000000004K00000000000004457013312162015093609N000000000000N40       000370400K 10000000010000004436           
CUS0473300000104128233006         MCCOLLOCH MARK D    407 BROOK RD                            000N        CARE OF             
MTR04733000001000000000000000RA              48592457    005801240000012400000520000003NN  NNW 000                       N    
RDG04733000WATRL000000004K00000000000001849013412162015093654N000000000000N40       000450400K 10000000010000001829           
CUS0473300000104128234004         HARRIS JOHN L       409 BROOK RD                            000N        CARE OF             
MTR04733000001000000000000000RA              39584009    005801250000012500000520000003NN  NNW 000                       N    
RDG04733000WATRL000000004K00000000000001273013512162015093813N000300000021N40       000340400K 10000000010000001275           
CUS0473300000104128235001         LEVIS MATTHEW       411 BROOK RD                            000N        CARE OF             
MTR04733000001000000000000000RA              33077200    005801260000012600000520000003NN  NNW 000                       N    
RDG04733000WATRL000000004K00000000000002277018712162015103046N000300000010N40       000970400K 10000000010000002220           
CUS0473300000104128236009         SMITH ERVIN S       413 BROOK RD                            000N        CARE OF             
MTR04733000001000000000000000RA              27832066    005801270000012700000520000003NN  NNW 000                       N    
RDG04733000WATRL000000004K00000000000002424018812162015103211N000000000011N40       000390400K 10000000010000002412           
CUS0473300000104128237007         MARY S HORROM       415 BROOK RD                            000N        CARE OF             
MTR04733000001000000000000000RA              38983275    005801280000012800000520000003NN  NNW 000                       N    
RDG04733000WATRL000000004K00000000000001824018912162015103230N000000000000N40       000190400K 10000000010000001815           
CUS0473300000104128238005         CECILIA W MURPHY REV417 BROOK RD                            000N        CARE OF             
MTR04733000001000000000000000RA              11328233    005801290000012900000570000003NN  NNW 000                       N    
RDG04733000WATRL000000004K00000000000002711019012162015103354N000300000010N40       000840400K 10000000010000002663           
CUS0473300000104128239003         EARLY RICHARD  EARLY420 HILLEN RD                           000N        CARE OF             
MTR04733000001000000000000000RA              30513511    005801300000013000000520000003NN  NNW 000                       N    
RDG04733000WATRL000000004K00000000000002485012212162015091922N000300000010N40       011330400K 10000000010000002463           
CUS0473300000104128240001         GEISS GARY A        418 HILLEN RD                           000N        CARE OF             
MTR04733000001000000000000000RA              01093276    005801310000013100000610000003NN  NNW 000                       N    
RDG04733000WATRL000000004K00000000000001164012312162015092037N000000000000N40       000750400K 10000000010000001146           
CUS0473300000104128241009         DANIEL A FISHER     416 HILLEN RD                           000N        CARE OF             
MTR04733000001000000000000000RA              01093274    005801320000013200000610000003NN  NNW 000                       N    
RDG04733000WATRL000000004K00000000000000507012412162015092056N000000000000N40       000190400K 10000000010000000496           
CUS0473300000104128242007         RAVITA PHILIP M     412 HILLEN RD                           000N        CARE OF             
MTR04733000001000000000000000RA              26015787    005801330000013300000520000003NN  NNW 000                       N    
RDG04733000WATRL000000004K00000000000003645012512162015092216N000000000000N40       000800400K 10000000010000003625           
CUS0473300000104128243005         CONTICELLO BRUNO L  410 HILLEN RD                           000N        CARE OF             
MTR04733000001000000000000000RA              35099600    005801340000013400000520000003NN  NNW 000                       N    
RDG04733000WATRL000000004K00000000000004567012612162015092302N000000000000N40       000460400K 10000000010000004549           
CUS0473300000104128244003         ULLAH MOVI          408 HILLEN RD                           000N        CARE OF             
MTR04733000001000000000000000RA              32899238    005801350000013500000520000003NN  NNW 000                       N    
RDG04733000WATRL000000004K00000000000004430012712162015092355N000000000000N40       000530400K 10000000010000004410           
CUS0473300000104128245000         PARSONS DOLORES J   406 HILLEN RD                           000N        CARE OF             
MTR04733000001000000000000000RA              39289903    005801360000013600000520000003NN  NNW 000   VACANT / LOT        N    
RDG04733000WATRL000000004K00000000000002515012812162015092416N000000000000N40       000210400K 10000000010000002515           
CUS0473300000104128246008         GORDON STEVEN J     404 HILLEN RD                           000N        CARE OF             
MTR04733000001000000000000000RA              52768492    005801370000013700000520000003NN  NNW 000                       N    
RDG04733000WATRL000000004K00000000000001198012912162015092455N000000000000N40       000390400K 10000000010000001181           
CUS0473300000104128247006         AIDEN E.BALDUMAN-GER402 HILLEN RD                           000N        CARE OF             
MTR04733000001000000000000000RA              41074617    005801380000013800000520000003NN  NNW 000                       N    
RDG04733000WATRL000000004K00000000000001768013012162015092539N000000000000N40       000440400K 10000000010000001759           
CUS0473300000104128248004         JUN MA              400 HILLEN RD                           000N        CARE OF             
MTR04733000001000000000000000RA              48592447    005801390000013900000520000003NN  NNW 000                       N    
RDG04733000WATRL000000004K00000000000000000000000000000000000 000000000000U         000000400  10000000010000001289           
CUS0473300000104128249002         LESLIE JAMES F      2 GREENBRIER RD                         000N        CARE OF             
MTR04733000001000000000000000RA              48594118    005801400000014000000520000003NN  NNW 000                       N    
RDG04733000WATRL000000004K00000000000001307006912162015085454N000000000000N40       000400400K 10000000010000001289           
CUS0473300000104128250000         SANN DAVID G        4 GREENBRIER RD                         000N        CARE OF             
MTR04733000001000000000000000RA              44089126    005801410000014100000520000003NN  NNW 000                       N    
RDG04733000WATRL000000004K00000000000002382007012162015085459N000000000000N40       000050400K 10000000010000002363           
CUS0473300000104128251008         BEHR ROBERT S       100 GREENBRIER RD                       000N        CARE OF             
MTR04733000001000000000000000RA              26005871    005801420000014200000520000003NN  NNW 000                       N    
RDG04733000WATRL000000004K00000000000003854007112162015085504N000000000000N40       000050400K 10000000010000003841           
CUS0473300000104128252006         CONROY VINCENT M    102 GREENBRIER RD                       000N        CARE OF             
MTR04733000001000000000000000RA              26009997    005801430000014300000520000003NN  NNW 000                       N    
RDG04733000WATRL000000004K00000000000000000000000000000000000 000000000000U         000000400  10000000010000003131           
CUS0473300000104128253004         PROPERTY ACQ 46 LLC 104 GREENBRIER RD                       000N        CARE OF             
MTR04733000001000000000000000RA              14915048    005801440000014400000310000003NN  NNW 000                       N    
RDG04733000WATRL000000004K00000000000000397007212162015085510N000000000000N40       000060400K 10000000010000000389           
CUS0473300000104128254002         MEEKS DAVID S       106 GREENBRIER RD                       000N        CARE OF             
MTR04733000001000000000000000RA              14915045    005801450000014500000310000003NN  NNW 000                       N    
RDG04733000WATRL000000004K00000000000001331007312162015085519N000300000010N40       000090400K 10000000010000001163           
CUS0473300000104128255009         DESOCIO ROBERT      108 GREENBRIER RD                       000N        CARE OF             
MTR04733000001000000000000000RA              52768425    005801460000014600000520000003NN  NNW 000                       N    
RDG04733000WATRL000000004K00000000000001107007412162015085526N000000000000N40       000070400K 10000000010000001088           
CUS0473300000104128256007         MACKENZIE BRUCE D   110 GREENBRIER RD                       000N        CARE OF             
MTR04733000001000000000000000RA              14915180    005801470000014700000310000003NN  NNW 000                       N    
RDG04733000WATRL000000004K00000000000000364007512162015085536N000400000010N40       000100400K 10000000010000000363           
CUS0473300000104128257005         BENGUR MARTHA S     112 GREENBRIER RD                       000N        CARE OF             
MTR04733000001000000000000000RA              14915181    005801480000014800000310000003NN  NNW 000                       N    
RDG04733000WATRL000000004K00000000000000456007612162015085539N000000000000N40       000030400K 10000000010000000444           
CUS0473300000104128258003         BRETT SMITH         114 GREENBRIER RD                       000N        CARE OF             
MTR04733000001000000000000000RA              24757890    005801490000014900000520000003NN  NNW 000                       N    
RDG04733000WATRL000000004K00000000000003862007712162015085545N000000000000N40       000060400K 10000000010000003842           
CUS0473300000104128259001         COLIMORE SCOTT A    116 GREENBRIER RD                       000N        CARE OF             
MTR04733000001000000000000000RA              99189435    005801500000015000000570000003NN  NNW 000                       N    
RDG04733000WATRL000000004K00000000000001345007812162015085550N000000000000N40       000050400K 10000000010000001331           
CUS0473300000104128260009         STRINGER HARRY PATRI120 GREENBRIER RD                       000N        CARE OF             
MTR04733000001000000000000000RA              14915046    005801510000015100000310000003NN  NNW 000                       N    
RDG04733000WATRL000000004K00000000000000842007912162015085553N000000000000N40       000030400K 10000000010000000821           
CUS0473300000104128261007         INFUSSI RAYMOND V,II122 GREENBRIER RD                       000N        CARE OF             
MTR04733000001000000000000000RA              35106262    005801520000015200000520000003NN  NNW 000                       N    
RDG04733000WATRL000000004K00000000000003890008012162015085602N000300000010N40       000090400K 10000000010000003853           
CUS0473300000104128262005         HOLLAND STEPHEN A   1405 STEVENSON LN                       000N        CARE OF             
MTR04733000001000000000000000RA              35099608    005801530000015300000520000003NN  NNW 000                       N    
RDG04733000WATRL000000004K00000000000005598008112162015085606N000000000000N40       000040400K 10000000010000005571           
CUS0473300000104128263003         ROGERS DONALD F,JR  123 GREENBRIER RD                       000N        CARE OF             
MTR04733000001000000000000000RA              14929606    005801540000015400000310000003NN  NNW 000                       N    
RDG04733000WATRL000000004K00000000000000976008212162015085610N000000000000N40       000040400K 10000000010000000934           
CUS0473300000104128264001         WILLIAM REICHEL     121 GREENBRIER RD                       000N        CARE OF             
MTR04733000001000000000000000RA              99286208    005801550000015500000570000003NN  NNW 000                       N    
RDG04733000WATRL000000004K00000000000001520008312162015085614N000000000000N40       000040400K 10000000010000001486           
CUS0473300000104128265008         PECK HENRY B,JR     119 GREENBRIER RD                       000N        CARE OF             
MTR04733000001000000000000000RA              14915049    005801560000015600000310000003NN  NNW 000                       N    
RDG04733000WATRL000000004K00000000000000811008412162015085621N000000000000N40       000070400K 10000000010000000782           
CUS0473300000104128266006         ANDREW JAMES L      115 GREENBRIER RD                       000N        CARE OF             
MTR04733000001000000000000000RA              14915179    005801570000015700000310000003NN  NNW 000                       N    
RDG04733000WATRL000000004K00000000000000695008512162015085627N000000000000N40       000060400K 10000000010000000673           
CUS0473300000104128267004         FINLEY MARK J       113 GREENBRIER RD                       000N        CARE OF             
MTR04733000001000000000000000RA              14915177    005801580000015800000310000003NN  NNW 000                       N    
RDG04733000WATRL000000004K00000000000000681008612162015085631N000000000000N40       000040400K 10000000010000000670           
CUS0473300000104128268002         NOAH HAHN           111 GREENBRIER RD                       000N        CARE OF             
MTR04733000001000000000000000RA              14915178    005801590000015900000310000003NN  NNW 000                       N    
RDG04733000WATRL000000004K00000000000000967008712162015085635N000000000000N40       000040400K 10000000010000000941           
CUS0473300000104128269000         ELLEN KAY HOCHMAN   109 GREENBRIER RD                       000N        CARE OF             
MTR04733000001000000000000000RA              14915182    005801600000016000000310000003NN  NNW 000                       N    
RDG04733000WATRL000000004K00000000000000651008812162015085642N000000000000N40       000070400K 10000000010000000646           
CUS0473300000104128270008         REDONDO AMY J       107 GREENBRIER RD                       000N        CARE OF             
MTR04733000001000000000000000RA              14915047    005801610000016100000310000003NN  NNW 000                       N    
RDG04733000WATRL000000004K00000000000000661008912162015085654N000000000000N40       000120400K 10000000010000000645           
CUS0473300000104128271006         JAY DAVIS           105 GREENBRIER RD                       000N        CARE OF             
MTR04733000001000000000000000RA              75615992    005801620000016200000350000003NN  NNW 000                       N    
RDG04733000WATRL000000004K00000000000000294009012162015085707N000300000010N40       000130400K 10000000010000000155           
CUS0473300000104128272004         CASTALDI MICHAEL R  103 GREENBRIER RD                       000N        CARE OF             
MTR04733000001000000000000000RA              27820254    005801630000016300000520000003NN  NNW 000                       N    
RDG04733000WATRL000000004K00000000000004159009112162015085713N000000000000N40       000060400K 10000000010000004147           
CUS0473300000104128273002         SHAW JOVELINA M     101 GREENBRIER RD                       000N        CARE OF             
MTR04733000001000000000000000RA              44086665    005801640000016400000520000003NN  NNW 000                       N    
RDG04733000WATRL000000004K00000000000001812009212162015085719N000000000000N40       000060400K 10000000010000001801           
CUS0473300000104128274000         ERICA L WISNER      310 BROOK RD                            000N        CARE OF             
MTR04733000001000000000000000RA              39289862    005801650000016500000520000003NN  NNW 000                       N    
RDG04733000WATRL000000004K00000000000001211009312162015085723N000000000000N40       000040400K 10000000010000001199           
CUS0473300000104128275007         TALBOTT CATHERINE A 308 BROOK RD                            000N        CARE OF             
MTR04733000001000000000000000RA              33079275    005801660000016600000520000003NN  NNW 000                       N    
RDG04733000WATRL000000004K00000000000002909009412162015085730N000300000010N40       000070400K 10000000010000002848           
CUS0473300000104128276005         MARIANI J RICHARD   306 BROOK RD                            000N        CARE OF             
MTR04733000001000000000000000RA              00130085    005801670000016700000570000003NN  NNW 000                       N    
RDG04733000WATRL000000004K00000000000001148009512162015085734N000000000000N40       000040400K 10000000010000001138           
CUS0473300000104128277003         TEGLER HORTENSE B   304 BROOK RD                            000N        CARE OF             
MTR04733000001000000000000000RA              14900550    005801680000016800000310000003NN  NNW 000                       N    
RDG04733000WATRL000000004K00000000000000553009612162015085740N000000000000N40       000060400K 10000000010000000543           
CUS0473300000104128278001         SANDROCK PAUL W,TRUS302 BROOK RD                            000N        CARE OF             
MTR04733000001000000000000000RA              48583922    005801690000016900000520000003NN  NNW 000                       N    
RDG04733000WATRL000000004K00000000000001153009712162015085746N000000000000N40       000060400K 10000000010000001142           
CUS0473300000104128279009         MARTIN EDWIN C      300 BROOK RD                            000N        CARE OF             
MTR04733000001000000000000000RA              36690940    005801700000017000000520000003NN  NNW 000                       N    
RDG04733000WATRL000000004K00000000000001438009812162015085753N000300000010N40       000070400K 10000000010000001450           
CUS0473300000104128280007         MARTINEZ MONICA J   301 LINDEN AVE                          000N        CARE OF             
MTR04733000001000000000000000RA              27830503    005801710000017100000520000003NN  NNW 000                       N    
RDG04733000WATRL000000004K00000000000004825009912162015085757N000000000000N40       000040400K 10000000010000004804           
CUS0473300000104128281005         ELIZABETH GRIFFITH  303 LINDEN AVE                          000N        CARE OF             
MTR04733000001000000000000000RA              30525000    005801720000017200000520000003NN  NNW 000                       N    
RDG04733000WATRL000000004K00000000000001909010012162015085801N000000000000N40       000040400K 10000000010000001900           
CUS0473300000104128282003         RANADIVE AJIT V     305 LINDEN AVE                          000N        CARE OF             
MTR04733000001000000000000000RA              23644453    005801730000017300000520000003NN  NNW 000                       N    
RDG04733000WATRL000000004K00000000000003451010112162015085805N000000000000N40       000040400K 10000000010000003428           
CUS0473300000104128283001         HARVILL JAMES W     307 LINDEN AVE                          000N        CARE OF             
MTR04733000001000000000000000RA              46880824    005801740000017400000520000003NN  NNW 000                       N    
RDG04733000WATRL000000004K00000000000001242010212162015085808N000000000000N40       000030400K 10000000010000001226           
CUS0473300000104128284009         BALDWIN EDWARD A    309 LINDEN AVE                          000N        CARE OF             
MTR04733000001000000000000000RA              38983284    005801750000017500000520000003NN  NNW 000                       N    
RDG04733000WATRL000000004K00000000000004185010312162015085819N000300000010N40       000110400K 10000000010000004150           
CUS0473300000104128285006         GATZKE RODNEY A     311 LINDEN AVE                          000N        CARE OF             
MTR04733000001000000000000000RA              35115726    005801760000017600000520000003NN  NNW 000                       N    
RDG04733000WATRL000000004K00000000000003572010412162015085829N000000000000N40       000100400K 10000000010000003558           
CUS0473300000104128286004         COOK BRADLEY S      313 LINDEN AVE                          000N        CARE OF             
MTR04733000001000000000000000RA              46888787    005801770000017700000520000003NN  NNW 000                       N    
RDG04733000WATRL000000004K00000000000001833010512162015085836N000000000000N40       000070400K 10000000010000001827           
CUS0473300000104128287002         JAROSINSKI GEORGE SI314 LINDEN AVE                          000N        CARE OF             
MTR04733000001000000000000000RA              00130020    005801780000017800000570000003NN  NNW 000                       N    
RDG04733000WATRL000000004K00000000000002718010612162015085847N000400000010N40       000110400K 10000000010000002700           
CUS0473300000104128288000         MORMILE ETTORE W    312 LINDEN AVE                          000N        CARE OF             
MTR04733000001000000000000000RA              40781609    005801790000017900000520000003NN  NNW 000                       N    
RDG04733000WATRL000000004K00000000000001403010712162015085854N000000000000N40       000070400K 10000000010000001378           
CUS0473300000104128289008         MCKENNA JOHN B      310 LINDEN AVE                          000N        CARE OF             
MTR04733000001000000000000000RA              46888638    005801800000018000000520000003NN  NNW 000                       N    
RDG04733000WATRL000000004K00000000000001289010812162015085902N000400000010N40       000080400K 10000000010000001288           
CUS0473300000104128290006         WEISHEIT HUNTER M   308 LINDEN AVE                          000N        CARE OF             
MTR04733000001000000000000000RA              46888641    005801810000018100000520000003NN  NNW 000                       N    
RDG04733000WATRL000000004K00000000000001456010912162015085910N000400000010N40       000080400K 10000000010000001455           
CUS0473300000104128291004         TALBOTT CHARLES F   306 LINDEN AVE                          000N        CARE OF             
MTR04733000001000000000000000RA              00130087    005801820000018200000570000003NN  NNW 000                       N    
RDG04733000WATRL000000004K00000000000000963011012162015085916N000000000000N40       000060400K 10000000010000000949           
CUS0473300000104128292002         BAKER LYNN D        304 LINDEN AVE                          000N        CARE OF             
MTR04733000001000000000000000RA              27214180    005801830000018300000520000003NN  NNW 000                       N    
RDG04733000WATRL000000004K00000000000002398011112162015085920N000000000000N40       000040400K 10000000010000002391           
CUS0473300000104128293000         DODDO MICHAEL F     302 LINDEN AVE                          000N        CARE OF             
MTR04733000001000000000000000RA              00130086    005801840000018400000570000003NN  NNW 000                       N    
RDG04733000WATRL000000004K00000000000000992011212162015085925N000000000000N40       000050400K 10000000010000000976           
CUS0473300000104128294008         KURUPPACHERRIL ANTON300 LINDEN AVE                          000N        CARE OF             
MTR04733000001000000000000000RA              40320407    005801850000018500000520000003NN  NNW 000                       N    
RDG04733000WATRL000000004K00000000000002301011312162015085928N000000000000N40       000030400K 10000000010000002290           
CUS0473300000104128295005         BATTENFELD RODNEY S 301 BROOK RD                            000N        CARE OF             
MTR04733000001000000000000000RA              14900546    005801860000018600000310000003NN  NNW 000                       N    
RDG04733000WATRL000000004K00000000000001056011412162015085934N000000000000N40       000060400K 10000000010000001040           
CUS0473300000104128296003         ATABEK JENISE B     303 BROOK RD                            000N        CARE OF             
MTR04733000001000000000000000RA              19459568    005801870000018700000520000003NN  NNW 000                       N    
RDG04733000WATRL000000004K00000000000003510011512162015085939N000000000000N40       000050400K 10000000010000003498           
CUS0473300000104128297001         MCCORT BARBARA G D  305 BROOK RD                            000N        CARE OF             
MTR04733000001000000000000000RA              52769590    005801880000018800000520000003NN  NNW 000                       N    
RDG04733000WATRL000000004K00000000000000748011612162015085954N000000000000N40       000150400K 10000000010000000743           
CUS0473300000104128298009         PHILLIPS JAMES C,TRU307 BROOK RD                            000N        CARE OF             
MTR04733000001000000000000000RA              24757191    005801890000018900000520000003NN  NNW 000                       N    
RDG04733000WATRL000000004K00000000000004513011712162015090000N000000000000N40       000060400K 10000000010000004504           
CUS0473300000104128299007         VAN WINKLE DOUGLAS G9 GREENBRIER RD                         000N        CARE OF             
MTR04733000001000000000000000RA              75614457    005801900000019000000350000003NN  NNW 000                       N    
RDG04733000WATRL000000004K00000000000000046011812162015090005N000000000000N40       000050400K 10000000010000000041           
CUS0473300000104128300003         WESTERLUND JAMES EAR7 GREENBRIER RD                         000N        CARE OF             
MTR04733000001000000000000000RA              29402803    005801910000019100000520000003NN  NNW 000                       N    
RDG04733000WATRL000000004K00000000000002837011912162015090013N000000000000N40       000080400K 10000000010000002831           
CUS0473300000104128301001         YOUNG CATHY         5 GREENBRIER RD                         000N        CARE OF             
MTR04733000001000000000000000RA              48592456    005801920000019200000520000003NN  NNW 000                       N    
RDG04733000WATRL000000004K00000000000001565012012162015090017N000000000000N40       000040400K 10000000010000001544           
CUS0473300000104128302009         HASSELHOFF DEREK C  300 E BURKE AVE                         000N        CARE OF             
MTR04733000001000000000000000RA              30526044    007501930000019300000520000003NN  NNW 000                       N    
RDG04733000WATRL000000004K00000000000004423012112162015090029N000000000000N40       000120400K 10000000010000004390           
RTR04733000NN01930193000001930000000001930193000106NY019301930193000300000000000000000000000001    11272015NY020000 N         
RHD04742500NN01300130000001300000000001300130000202NY013001300130000500020000000000000000000001    11092015NY020000 N         
CUS0474250000104130724000         NELSON SHEILA L     805 WALKER AVE                          000N        CARE OF             
MTR04742500001000000000000000RA              40047439    005800010000000100000520000003NN  NNW 000                       N    
RDG04742500WATRL000000004K00000000000002967000111252015101849N000000000000N40       000000400K 10000000010000002954           
CUS0474250000104130725007         YOUNG KENNETH J     803 WALKER AVE                          000N        CARE OF             
MTR04742500001000000000000000RA              40047403    005800020000000200000520000003NN  NNW 000                       N    
RDG04742500WATRL000000004K00000000000001823000211252015101937N000000000000N40       000480400K 10000000010000001808           
CUS0474250000104130726005         CHERY MARIE A       810 WALKER AVE                          000N        CARE OF             
MTR04742500001000000000000000RA              36690946    005800030000000300000520000003NN  NNW 000                       N    
RDG04742500WATRL000000004K00000000000003307000311252015102156N000000000000N40       001390400K 10000000010000003272           
CUS0474250000104130727003         THE DEAN L PENDLETON808 WALKER AVE                          000N        CARE OF             
MTR04742500001000000000000000RA              27812379    005800040000000400000520000003NN  NNW 000                       N    
RDG04742500WATRL000000004K00000000000003866000411252015102242N000000000000N40       000460400K 10000000010000003840           
CUS0474250000104130728001         PETERSON MARGARET   806 WALKER AVE                          000N        CARE OF             
MTR04742500001000000000000000RA              10007541    005800050000000500000570000003NN  NNW 000                       N    
RDG04742500WATRL000000004K00000000000000374000511252015102347N000000000000N40       000650400K 10000000010000000363           
CUS0474250000104130729009         PARHAM JOSEPH L     804 WALKER AVE                          000N        CARE OF             
MTR04742500001000000000000000RA              00126216    005800060000000600000570000003NN  NNW 000                       N    
RDG04742500WATRL000000004K00000000000001105000611252015102443N000400000010N40       000560400K 10000000010000001104           
CUS0474250000104130730007         FEUSTLE EDWARD A    802 WALKER AVE                          000N        CARE OF             
MTR04742500001000000000000000RA              01085640    005800070000000700000610000003NN  NNW 000                       N    
RDG04742500WATRL000000004K00000000000000000000711272015085914S005000000000U40       000780400K 10000000010000000430           
CUS0474250000104130731005         OPENDEN JOSEPH      800 WALKER AVE                          000N        CARE OF             
MTR04742500001000000000000000RA              25780538    005800080000000800000520000003NN  NNW 000                       N    
RDG04742500WATRL000000004K00000000000001531000811252015102757N000100000010N40       001180400K 10000000010000001531           
CUS0474250000104130732003         TASSONE JOSEPH F    724 WALKER AVE                          000N        CARE OF             
MTR04742500001000000000000000RA              44086297    005800090000000900000520000003NN  NNW 000                       N    
RDG04742500WATRL000000004K00000000000002697000911252015102915N000000000001N40       000780400K 10000000010000002663           
CUS0474250000104130733001         OPENDEN JOSEPH      722 WALKER AVE                          000N        CARE OF             
MTR04742500001000000000000000RA              14901426    005800100000001000000310000003NN  NNW 000                       N    
RDG04742500WATRL000000004K00000000000000281001011252015103005N000400000010N40       000500400K 10000000010000000272           
CUS0474250000104130734009         DAVID P SILVERS     720 WALKER AVE                          000N        CARE OF             
MTR04742500001000000000000000RA              31581805    005800110000001100000520000003NN  NNW 000                       N    
RDG04742500WATRL000000004K00000000000003725001111252015103109N000000000000N40       000640400K 10000000010000003711           
CUS0474250000104130735006         KARNOUTSAS CLAIRE H 727 WALKER AVE                          000N        CARE OF             
MTR04742500001000000000000000RA              00134910    005800120000001200000570000003NN  NNW 000                       N    
RDG04742500WATRL000000004K00000000000000708001411252015103931N000300000010N40       001170400K 10000000010000000688           
CUS0474250000104130736004         MCCUBBIN PATRICK L  725 WALKER AVE                          000N        CARE OF             
MTR04742500001000000000000000RA              14909478    005800130000001300000310000003NN  NNW 000                       N    
RDG04742500WATRL000000004K00000000000000457001311252015103734N000000000000N40       002760400K 10000000010000000445           
CUS0474250000104130737002         SILVERMAN JEFFREY D 721 WALKER AVE                          000N        CARE OF             
MTR04742500001000000000000000RA              23054251    005800140000001400000520000003NY  NNW 000                       N    
MTM0474250023054251    PLATE BURIED                                                                                           
RDG04742500WATRL000000004K00000000000000000000000000000000000 000000000000U         000000400  10000000010000004733           
CUS0474250000104130738000         GUTHRIE-CRAIG LLC   719 WALKER AVE                          000N        CARE OF             
MTR04742500001000000000000000RA              41074822    005800150000001500000520000003NY  NNW 000   VACANT / LOT        N    
MTM0474250041074822    PLATE BURIED                                                                                           
RDG04742500WATRL000000004K00000000000000000000000000000000000 000000000000U         000000400  10000000010000000088           
CUS0474250000104130739008         LERNER SHIRLEY J TRU717 WALKER AVE                          000N        CARE OF             
MTR04742500001000000000000000RA              45381818    005800160000001600000520000003NN  NNW 000                       N    
RDG04742500WATRL000000004K00000000000000839001211252015103258N000000000000N40       001090400K 10000000010000000817           
CUS0474250000104130740006         JACKSON JEROME A    716 WALKER AVE                          000N        CARE OF             
MTR04742500001000000000000000RA              41258084    005800170000001700000520000003NN  NNW 000                       N    
RDG04742500WATRL000000004K00000000000003199001511252015104422N000000000000N40       002910400K 10000000010000003182           
CUS0474250000104130741004         SIMMONS JENNIFER    713 WALKER AVE                          000N        CARE OF             
MTR04742500001000000000000000RA              99188407    005800180000001800000570000003NN  NNW 000                       N    
RDG04742500WATRL000000004K00000000000000872001611252015104524N000000000000N40       000620400K 10000000010000000861           
CUS0474250000104130742002         VERHEYEN GERO       714 WALKER AVE                          000N        CARE OF             
MTR04742500001000000000000000RA              01094620    005800190000001900000610000003NN  NNW 000                       N    
RDG04742500WATRL000000004K00000000000000986001711252015104620N000000000000N40       000560400K 10000000010000000975           
CUS0474250000104130743000         ROBERTS ERIC        712 WALKER AVE                          000N        CARE OF             
MTR04742500001000000000000000RA              27894069    007500200000002000000520000003NN  NNW 000                       N    
RDG04742500WATRL000000004K00000000000008631001811252015104806N000000000010N40       001060400K 10000000010000008506           
CUS0474250000104130744008         PATTERSON DORIS D   710 WALKER AVE                          000N        CARE OF             
MTR04742500001000000000000000RA              14910125    005800210000002100000310000003NY  NNW 000                       N    
MTM0474250014910125    CANNOT LOCATE                                                                                          
RDG04742500WATRL000000004K00000000000000000000000000000000000 000000000000U         000000400  10000000010000000238           
CUS0474250000104130745005         DAHLMAN HOLLY R     708 WALKER AVE                          000N        CARE OF             
MTR04742500001000000000000000RA              48592368    005800220000002200000520000003NN  NNW 000                       N    
RDG04742500WATRL000000004K00000000000002997001911252015105234N000300000010N40       002680400K 10000000010000003013           
CUS0474250000104130746003         TRANSPARENTI VINCENT711 WALKER AVE                          000N        CARE OF             
MTR04742500001000000000000000RA              10024296    005800230000002300000570000003NN  NNW 000                       N    
RDG04742500WATRL000000004K00000000000000314002311252015105801N000000000000N40       000560400K 10000000010000000293           
CUS0474250000104130747001         HOUCK JAMES W,3RD   709 WALKER AVE                          000N        CARE OF             
MTR04742500001000000000000000RA              29680524    005800240000002400000520000003NN  NNW 000                       N    
RDG04742500WATRL000000004K00000000000003238002211252015105705N000000000010N40       000910400K 10000000010000003206           
CUS0474250000104130748009         LINDENBERG KRISTIN M706 WALKER AVE                          000N        CARE OF             
MTR04742500001000000000000000RA              00121219    007500250000002500000570000003NN  NNW 000                       N    
RDG04742500WATRL000000004K00000000000000627002011252015105402N000400000010N40       000880400K 10000000010000000614           
CUS0474250000104130749007         SHELDON-COST PRISCIL707 WALKER AVE                          000N        CARE OF             
MTR04742500001000000000000000RA              00126102    005800260000002600000570000003NN  NNW 000                       N    
RDG04742500WATRL000000004K00000000000000922002111252015105534N000000000000N40       000920400K 10000000010000000917           
CUS0474250000104130750005         HORN JOHN P,JR TRUST704 WALKER AVE                          000N        CARE OF             
MTR04742500001000000000000000RA              45387202    005800270000002700000520000003NY  NNW 000                       N    
MTM0474250045387202    PLATE BURIED                                                                                           
RDG04742500WATRL000000004K00000000000000000000000000000000000 000000000000U         000000400  10000000010000001698           
CUS0474250000104130751003         HOMES FOR ARUNDEL IN701 WALKER AVE                          000N        CARE OF             
MTR04742500001000000000000000RA              36697676    005800280000002800000520000003NN  NNW 000                       N    
RDG04742500WATRL000000004K00000000000002356003911252015113302N000000000000N40       000900400K 10000000010000002330           
CUS0474250000104130752001         SABET KIYA D  SABET 703 WALKER AVE                          000N        CARE OF             
MTR04742500001000000000000000RA              36697678    005800290000002900000520000003NN  NNW 000                       N    
RDG04742500WATRL000000004K00000000000004890004011252015113334N000000000010N40       000320400K 10000000010000004863           
CUS0474250000104130753009         SCHWARTZ JOSEPH,ET A705 WALKER AVE                          000N        CARE OF             
MTR04742500001000000000000000RA              36700140    001500300000003000000520000003NN  NNW 000                       N    
RDG04742500WATRL000000005K00000000000048728004111252015113435N000000000000N40       000610500K 10000000010000048126           
CUS0474250000104130754007         ACKLER NANCY V,TRUST702 WALKER AVE                          000N        CARE OF             
MTR04742500001000000000000000RA              36697705    005800310000003100000520000003NN  NNW 000                       N    
RDG04742500WATRL000000004K00000000000001895002411252015111235N000300000010N40       008740400K 10000000010000001876           
CUS0474250000104130755004         LOUGHLIN PAUL J     700 WALKER AVE                          000N        CARE OF             
MTR04742500001000000000000000RA              36697704    005800320000003200000520000003NY  NNW 000                       N    
MTM0474250036697704    PLATE BURIED                                                                                           
RDG04742500WATRL000000004K00000000000000000000000000000000000 000000000000U         000000400  10000000010000002161           
CUS0474250000104130756002         KINGSBURY JEFFREY A 622 WALKER AVE                          000N        CARE OF             
MTR04742500001000000000000000RA              36697706    005800330000003300000520000003NN  NNW 000                       N    
RDG04742500WATRL000000004K00000000000003077002511252015111524N000000000000N40       001690400K 10000000010000003058           
CUS0474250000104130757000         STAHL ROBERT E JR   620 WALKER AVE                          000N        CARE OF             
MTR04742500001000000000000000RA              35114327    005800340000003400000520000003NN  NNW 000                       N    
RDG04742500WATRL000000004K00000000000002917002611252015111725N000400000010N40       001210400K 10000000010000002909           
CUS0474250000104130758008         STRAHAN GARY D      618 WALKER AVE                          000N        CARE OF             
MTR04742500001000000000000000RA              36697680    005800350000003500000520000003NN  NNW 000                       N    
RDG04742500WATRL000000004K00000000000003425002711252015111825N000000000000N40       000600400K 10000000010000003384           
CUS0474250000104130759006         WONDIMGEZHU SERKALEM633 WALKER AVE                          000N        CARE OF             
MTR04742500001000000000000000RA              36697404    005800360000003600000520000003NN  NNW 000                       N    
RDG04742500WATRL000000004K00000000000003134003811252015113132N000000000000N40       000080400K 10000000010000003110           
CUS0474250000104130760004         SHIELDS BRIAN J     631 WALKER AVE                          000N        CARE OF             
MTR04742500001000000000000000RA              36697407    005800370000003700000520000003NN  NNW 000                       N    
RDG04742500WATRL000000004K00000000000003229003711252015113124N000000000000N40       000490400K 10000000010000003217           
CUS0474250000104130761002         SHIFLETT WYATT A,2ND629 WALKER AVE                          000N        CARE OF             
MTR04742500001000000000000000RA              35114855    005800380000003800000520000003NN  NNW 000                       N    
RDG04742500WATRL000000004K00000000000001966003611252015113035N000400000010N40       000140400K 10000000010000001953           
CUS0474250000104130762000         SLAYSMAN-STURGIS DEB627 WALKER AVE                          000N        CARE OF             
MTR04742500001000000000000000RA              30514717    005800390000003900000520000003NN  NNW 000                       N    
RDG04742500WATRL000000004K00000000000003203003511252015113021N000000000000N40       000530400K 10000000010000003195           
CUS0474250000104130763008         KANWISHER WILLIAM W 625 WALKER AVE                          000N        CARE OF             
MTR04742500001000000000000000RA              14902292    005800400000004000000310000003NN  NNW 000                       N    
RDG04742500WATRL000000004K00000000000001421003411252015112928N000300000010N40       000100400K 10000000010000001331           
CUS0474250000104130764006         BIENEMAN PETER G    623 WALKER AVE                          000N        CARE OF             
MTR04742500001000000000000000RA              14902373    005800410000004100000310000003NN  NNW 000                       N    
RDG04742500WATRL000000004K00000000000000436003311252015112918N000000000000N40       000510400K 10000000010000000425           
CUS0474250000104130765003         BELT ANDREW         621 WALKER AVE                          000N        CARE OF             
MTR04742500001000000000000000RA              22607744    005800420000004200000520000003NN  NNW 000                       N    
RDG04742500WATRL000000004K00000000000004214003211252015112827N000400000010N40       000190400K 10000000010000004200           
CUS0474250000104130766001         POWELL JANE F       619 WALKER AVE                          000N        CARE OF             
MTR04742500001000000000000000RA              35111457    005800430000004300000520000003NN  NNW 000                       N    
RDG04742500WATRL000000004K00000000000003591003111252015112808N000400000010N40       000850400K 10000000010000003581           
CUS0474250000104130767009         SIMONINI KENNETH D  617A WALKER AVE                         000N        CARE OF             
MTR04742500001000000000000000RA              50790161    005800440000004400000520000003NN  NNW 000                       N    
RDG04742500WATRL000000004K00000000000000752003011252015112643N000400000010N40       000110400K 10000000010000000748           
CUS0474250000104130768007         STEWART STEVEN EVERE617 WALKER AVE                          000N        CARE OF             
MTR04742500001000000000000000RA              40779043    005800450000004500000520000003NN  NNW 000                       N    
RDG04742500WATRL000000004K00000000000001686002911252015112632N000000000000N40       000750400K 10000000010000001634           
CUS0474250000104130769005         BRIDGELALL DAVID    615 WALKER AVE                          000N        CARE OF             
MTR04742500001000000000000000RA              01100647    005800460000004600000610000003NN  NNW 000                       N    
RDG04742500WATRL000000004K00000000000001814002811252015112517N000400000010N40       004120400K 10000000010000001805           
CUS0474250000104445489000         MOLOCK REGINALD,JR  1232 LIMIT AVE                          000N        CARE OF             
MTR04742500001000000000000000RA              10009016    005800470000004700000570000003NN  NNW 000                       N    
RDG04742500WATRL000000004K00000000000000582005711252015123728N000000000021N40       000430400K 10000000010000000536           
CUS0474250000104445676002         RICHBURG BRYAN C.   1234 LIMIT AVE                          000N        CARE OF             
MTR04742500001000000000000000RA              77890681    007500480000004800000360000003NN  NNW 000                       N    
RDG04742500WATRL000000004K00000000000000050005811252015123645N000000000021N40       000230400K 10000000010000000000           
CUS0474250000104445677000         SHANDOLYN D. ALEXAND1236 LIMIT AVE                          000N        CARE OF             
MTR04742500001000000000000000RA              77894162    007500490000004900000360000003NN  NNW 000                       N    
RDG04742500WATRL000000004K00000000000000021005911252015123622N000003600010N40       001350400K 10000000010000000003           
CUS0474250000104410717005         CORNETT JONATHAN L  1260 LIMIT AVE                          000N        CARE OF             
MTR04742500001000000000000000RA              45383278    005800500000005000000520000003NN  NNW 000                       N    
RDG04742500WATRL000000004K00000000000002816004211252015121322N000000000000N40       023270400K 10000000010000002801           
CUS0474250000104130770003         OJO KIM NOVENE      1262 LIMIT AVE                          000N        CARE OF             
MTR04742500001000000000000000RA              38782109    005800510000005100000520000003NN  NNW 000                       N    
RDG04742500WATRL000000004K00000000000003035004311252015121433N000000000000N40       000710400K 10000000010000003014           
CUS0474250000104130771001         DELGADO NORMA I     1264 LIMIT AVE                          000N        CARE OF             
MTR04742500001000000000000000RA              38782081    005800520000005200000520000003NN  NNW 000                       N    
RDG04742500WATRL000000004K00000000000002327004411252015121525N000000000000N40       000520400K 10000000010000002300           
CUS0474250000104437715008         ADKINS PATRICIA ARNE1266 LIMIT AVE                          000N        CARE OF             
MTR04742500001000000000000000RA              14906561    005800530000005300000310000000NN  NNW 000                       N    
RDG04742500WATRL000000004K00000000000000930004511252015121639N000000000000N40       000740400K 10000000010000000917           
CUS0474250000104349279002         SAPPE ROBERT C      1290 LIMIT AVE                          000N        CARE OF             
MTR04742500001000000000000000RA              27813596    005800540000005400000520000003NN  NNW 000                       N    
RDG04742500WATRL000000004K00000000000003038004611252015121835N000000000000N40       001160400K 10000000010000003021           
CUS0474250000104349280000         LINDA D. PATE       1292 LIMIT AVE                          000N        CARE OF             
MTR04742500001000000000000000RA              24764610    005800550000005500000520000003NN  NNW 000                       N    
RDG04742500WATRL000000004K00000000000004447004711252015121851N000000000000N40       000160400K 10000000010000004115           
CUS0474250000104130772009         EQUITABLE CALVERT LL1300 LIMIT AVE                          000N        CARE OF             
MTR04742500001000000000000000RA              32903387    005800560000005600000520000003NN  NNW 000                       N    
RDG04742500WATRL000000004K00000000000003040004811252015122018N000000000000N40       000870400K 10000000010000003015           
CUS0474250000104130773007         JONES FREDERICK     1302 LIMIT AVE                          000N        CARE OF             
MTR04742500001000000000000000RA              38782079    005800570000005700000520000003NN  NNW 000                       N    
RDG04742500WATRL000000004K00000000000001591004911252015122029N000000000000N40       000110400K 10000000010000001579           
CUS0474250000104130774005         LISA M MILLER       1304 LIMIT AVE                          000N        CARE OF             
MTR04742500001000000000000000RA              00126783    005800580000005800000570000003NN  NNW 000                       N    
RDG04742500WATRL000000004K00000000000000511005011252015122140N000000000000N40       000710400K 10000000010000000502           
CUS0474250000104130775002         BACH DAVID          1306 LIMIT AVE                          000N        CARE OF             
MTR04742500001000000000000000RA              52770752    005800590000005900000520000003NN  NNW 000                       N    
RDG04742500WATRL000000004K00000000000001367005111252015122220N000000000000N40       000400400K 10000000010000001344           
CUS0474250000104130776000         TARKEGN WEGYHU A    1308 LIMIT AVE                          000N        CARE OF             
MTR04742500001000000000000000RA              50479416    005800600000006000000520000003NN  NNW 000                       N    
RDG04742500WATRL000000004K00000000000001015005211252015122225N000000000000N40       000050400K 10000000010000001008           
CUS0474250000104130777008         CHRISTOPHER DIANE Z 1310 LIMIT AVE                          000N        CARE OF             
MTR04742500001000000000000000RA              29681890    005800610000006100000520000003NN  NNW 000                       N    
RDG04742500WATRL000000004K00000000000003075005311252015122318N000400000010N40       000530400K 10000000010000003071           
CUS0474250000104130778006         MAYO-STURDIFEN LESLE1312 LIMIT AVE                          000N        CARE OF             
MTR04742500001000000000000000RA              30525190    005800620000006200000520000003NN  NNW 000                       N    
RDG04742500WATRL000000004K00000000000002712005411252015122328N000000000000N40       000100400K 10000000010000002696           
CUS0474250000104130779004         GRAY APRIL L        1314 LIMIT AVE                          000N        CARE OF             
MTR04742500001000000000000000RA              36687601    005800630000006300000520000003NN  NNW 000                       N    
RDG04742500WATRL000000004K00000000000001494005511252015122424N000000000000N40       000560400K 10000000010000001481           
CUS0474250000104130780002         WIMBUISH SEANTRESE  1316 LIMIT AVE                          000N        CARE OF             
MTR04742500001000000000000000RA              35115474    005800640000006400000520000003NN  NNW 000                       N    
RDG04742500WATRL000000004K00000000000001971005611252015122514N000300000010N40       000500400K 10000000010000001984           
CUS0474250000104130781000         HALL ANGELA         1318 LIMIT AVE                          000N        CARE OF             
MTR04742500001000000000000000RA              38782110    005800650000006500000520000003NN  NNW 000                       N    
RDG04742500WATRL000000004K00000000000003494000111272015074503N000000000000U40       000000400K 10000000010000003449           
CUS0474250000104130782008         CRAIG DIANE         1320 LIMIT AVE                          000N        CARE OF             
MTR04742500001000000000000000RA              36687790    005800660000006600000520000003NN  NNW 000                       N    
RDG04742500WATRL000000004K00000000000001544000211272015074517N000000000000U40       000140400K 10000000010000001521           
CUS0474250000104130783006         ALSTON MICHELE A    1322 LIMIT AVE                          000N        CARE OF             
