FHDNNNN004000948000948000948N                                                                                           002855
RHD08572000NN02240224000002240000000002240224000186NY022402240224002200090000000000000000000002    11092015NY020000 N         
CUS0857200000108028341009         BOND KATHRYN ANN    5903 GWYNN OAK AVE                      000N        CARE OF             
MTR08572000001000000000000000RA              01111846    005800010000000100000610000003NN  NNW 000                       N    
RDG08572000WATRL000000004K00000000000000000000000000000000000 000000000000U         000000400  10000000010000001434           
CUS0857200000108028342007         BULLOCK FREDDIE A   5905 GWYNN OAK AVE                      000N        CARE OF             
MTR08572000001000000000000000RA              46884922    005800020000000200000520000003NN  NNW 000                       N    
RDG08572000WATRL000000004K00000000000000000000000000000000000 000000000000U         000000400  10000000010000002401           
CUS0857200000108028343005         PEOPLE ENCOURAGING P5907 GWYNN OAK AVE                      000N        CARE OF             
MTR08572000001000000000000000RA              99410560    000100030000000300000570000003NN  NNW 000                       N    
RDG08572000WATRL000000004K00000000000000000000000000000000000 000000000000U         000000400  10000000010000003348           
CUS0857200000108028344003         JACKSON ADRIAN W    1 PARK DR                               000N        CARE OF             
MTR08572000001000000000000000RA              27819923    005800040000000400000520000003NN  NNW 000                       N    
RDG08572000WATRL000000004K00000000000000000000000000000000000 000000000000U         000000400  10000000010000003445           
CUS0857200000108028345000         TATE VALERIE        3 PARK DR                               000N        CARE OF             
MTR08572000001000000000000000RA              50480288    005800050000000500000520000003NN  NNW 000                       N    
RDG08572000WATRL000000004K00000000000000000000000000000000000 000000000000U         000000400  10000000010000002340           
CUS0857200000108028346008         MILLER DOUGLAS C    5 PARK DR                               000N        CARE OF             
MTR08572000001000000000000000RA              01079534    005800060000000600000610000003NN  NNW 000                       N    
RDG08572000WATRL000000004K00000000000000000000000000000000000 000000000000U         000000400  10000000010000002460           
CUS0857200000108028347006         CARDALL ROGER I     2502 POPLAR DR                          000N        CARE OF             
MTR08572000001000000000000000RA              14916614    005800070000000700000310000003NN  NNW 000                       N    
RDG08572000WATRL000000004K00000000000000000000000000000000000 000000000000U         000000400  10000000010000000749           
CUS0857200000108028348004         FOUNTAIN BERNARD    2504 POPLAR DR                          000N        CARE OF             
MTR08572000001000000000000000RA              41257468    005800080000000800000520000003NN  NNW 000                       N    
RDG08572000WATRL000000004K00000000000001897020412032015142436N000000000010N21       001630400K 10000000010000001892           
CUS0857200000108028349002         BOWLES BARBARA J    2506 POPLAR DR                          000N        CARE OF             
MTR08572000001000000000000000RA              14911431    005800090000000900000310000003NN  NNW 000                       N    
RDG08572000WATRL000000004K00000000000000537020312032015142153N000000000000N21       000350400K 10000000010000000529           
CUS0857200000108028350000         OTUKOYA SONDRA H    2508 POPLAR DR                          000N        CARE OF             
MTR08572000001000000000000000RA              24222711    005800100000001000000520000003NN  NNW 000                       N    
RDG08572000WATRL000000004K00000000000003759020212032015142118N000000000000N21       000550400K 10000000010000003739           
CUS0857200000108028351008         PITTMAN CARLA ALETHI2510 POPLAR DR                          000N        CARE OF             
MTR08572000001000000000000000RA              24222494    005800110000001100000520000003NN  NNW 000                       N    
RDG08572000WATRL000000004K00000000000004137020112032015142023N000000000000N21       000350400K 10000000010000004103           
CUS0857200000108028352006         MALCOLM HENRY W     2512 POPLAR DR                          000N        CARE OF             
MTR08572000001000000000000000RA              01079672    005800120000001200000610000003NN  NNW 000                       N    
RDG08572000WATRL000000004K00000000000000761020012032015141948N000000000000N21       000740400K 10000000010000000749           
CUS0857200000108028353004         MYSLINSKI NORBERT R 2514 POPLAR DR                          000N        CARE OF             
MTR08572000001000000000000000RA              30515576    005800130000001300000520000000NN  NNW 000                       N    
RDG08572000WATRL000000004K00000000000000000000000000000000000 000000000000U         000000400  10000000010000008304           
CUS0857200000108028354002         MARP MD LLC         2516 POPLAR DR                          000N        CARE OF             
MTR08572000001000000000000000RA              10010598    005800140000001400000570000003NN  NNW 000   VACANT / LOT        N    
RDG08572000WATRL000000004K00000000000000003019912032015141834N000000000000N21       000020400K 10000000010000000003           
CUS0857200000108028355009         MEYER JOHN R        2600 POPLAR DR                          000N        CARE OF             
MTR08572000001000000000000000RA              52289268    005800150000001500000520000003NN  NNW 000                       N    
RDG08572000WATRL000000004K00000000000006882019812032015141832N000300000030N21       001520400K 10000000010000006913           
CUS0857200000108028356007         EPPS ANTHONY F      2604 POPLAR DR                          000N        CARE OF             
MTR08572000001000000000000000RA              24220945    005800160000001600000520000003NN  NNW 000                       N    
RDG08572000WATRL000000004K00000000000003510019712032015141600N000300000010N21       000790400K 10000000010000005507           
CUS0857200000108028357005         CONLEY CHARLES L    2606 POPLAR DR                          000N        CARE OF             
MTR08572000001000000000000000RA              14911632    005800170000001700000310000003NN  NNW 000                       N    
RDG08572000WATRL000000004K00000000000000278019612032015141441N000000000000N21       000280400K 10000000010000000272           
CUS0857200000108028358003         JOHNSON JOHN W      2608 POPLAR DR                          000N        CARE OF             
MTR08572000001000000000000000RA              01079677    005800180000001800000610000003NN  NNW 000                       N    
RDG08572000WATRL000000004K00000000000000718019512282015095333O000000000010N89       001200400K 10000000010000000710           
CUS0857200000108028359001         BRIED DONALD RAMOND 2610 POPLAR DR                          000N        CARE OF             
MTR08572000001000000000000000RA              24232664    005800190000001900000520000003NN  NNW 000                       N    
RDG08572000WATRL000000004K00000000000000000000000000000000000 000000000000U         000000400  10000000010000002872           
CUS0857200000108028360009         TESTER ERNEST W,JR  2612 POPLAR DR                          000N        CARE OF             
MTR08572000001000000000000000RA              24220942    005800200000002000000520000003NN  NNW 000                       N    
RDG08572000WATRL000000004K00000000000003972019412032015141213N000000000000N21       000500400K 10000000010000003936           
CUS0857200000108393727006         METRO HOUSING PROJEC2614 POPLAR DR                          000N        CARE OF             
MTR08572000001000000000000000RA              38886225    005800210000002100000520000003NN  NNW 000                       N    
RDG08572000WATRL000000004K00000000000001266019312032015141123N000000000000N21       000500400K 10000000010000001255           
CUS0857200000108028361007         EPPS LORENZO JULIEN 2616 POPLAR DR                          000N        CARE OF             
MTR08572000001000000000000000RA              01079678    005800220000002200000610000003NN  NNW 000                       N    
RDG08572000WATRL000000004K00000000000000971019212032015141033N000000000000N21       000420400K 10000000010000000939           
CUS0857200000108028362005         LUCAS MARIA         2618 POPLAR DR                          000N        CARE OF             
MTR08572000001000000000000000RA              31582907    005800230000002300000520000003NN  NNW 000                       N    
RDG08572000WATRL000000004K00000000000002649019112032015140951N000000000000N21       001050400K 10000000010000002629           
CUS0857200000108028363003         MATTHEWS ANDRIEL R  2620 POPLAR DR                          000N        CARE OF             
MTR08572000001000000000000000RA              45373395    005800240000002400000520000003NN  NNW 000                       N    
RDG08572000WATRL000000004K00000000000001176019012032015140806N000300000010N21       000600400K 10000000010000001179           
CUS0857200000108437354007         JACKSON WESLEY Q    2700 POPLAR DR                          000N        CARE OF             
MTR08572000001000000000000000RA              14916096    005800250000002500000570000003NN  NNW 000                       N    
RDG08572000WATRL000000004K00000000000001206018912032015140706N000000000000N21       000660400K 10000000010000001182           
CUS0857200000108437355004         MONTGOMERY TONISHA R2702 POPLAR DR                          000N        CARE OF             
MTR08572000001000000000000000RA              10015628    005800260000002600000570000003NN  NNW 000                       N    
RDG08572000WATRL000000004K00000000000000227018812032015140600N000000000000N21       000430400K 10000000010000000212           
CUS0857200000108437371001         DEVON N FELTON      2704 POPLAR DR                          000N        CARE OF             
MTR08572000001000000000000000RA              14928677    005800270000002700000570000003NN  NNW 000                       N    
RDG08572000WATRL000000004K00000000000000128018712032015140517N000000000000N21       000380400K 10000000010000000118           
CUS0857200000108437378006         RODNA THOMPSON      2706 POPLAR DR                          000N        CARE OF             
MTR08572000001000000000000000RA              14928891    005800280000002800000310000003NN  NNW 000                       N    
RDG08572000WATRL000000004K00000000000000457018612032015140439N000000000000N21       000680400K 10000000010000000438           
CUS0857200000108437379004         RUSSELL MILTON,JR   2708 POPLAR DR                          000N        CARE OF             
MTR08572000001000000000000000RA              14916615    005800290000002900000310000003NN  NNW 000                       N    
RDG08572000WATRL000000004K00000000000001653018512032015140331N000000000000N21       000460400K 10000000010000001620           
CUS0857200000108437380002         HARLEE YVONGELIA L  2710 POPLAR DR                          000N        CARE OF             
MTR08572000001000000000000000RA              14918184    005800300000003000000310000003NN  NNW 000                       N    
RDG08572000WATRL000000004K00000000000001000018412032015140245N000000000000N21       000490400K 10000000010000000981           
CUS0857200000108437381000         LEWIS TONYA         2712 POPLAR DR                          000N        CARE OF             
MTR08572000001000000000000000RA              14917614    005800310000003100000310000003NN  NNW 000                       N    
RDG08572000WATRL000000004K00000000000001428018312282015095431O000000000010N89       000580400K 10000000010000001389           
CUS0857200000108437382008         DELLA RATTA INC     2716 POPLAR DR                          000N        CARE OF             
MTR08572000001000000000000000RA              99999999    005800320000003200000570000000NN  NNW 000                       N    
RDG08572000WATRL000000004K00000000000000000000000000000000000 000000000000U         000000400  10000000010000000016           
CUS0857200000108437383006         DELLA RATTA INC     2718 POPLAR DR                          000N        CARE OF             
MTR08572000001000000000000000RA              99999999    005800330000003300000570000003NN  NNW 000                       N    
RDG08572000WATRL000000004K00000000000000000018212032015140058S022000000000N21       000030400K 10000000010000000000           
CUS0857200000108437384004         DELLA RATTA INC     2720 POPLAR DR                          000N        CARE OF             
MTR08572000001000000000000000RA              99999999    005800340000003400000570000003NN  NNW 000                       N    
RDG08572000WATRL000000004K00000000000000000018112032015140055S022000000000N21       000560400K 10000000010000000000           
CUS0857200000108437394003         DELLA RATTA INC     2714 POPLAR DR                          000N        CARE OF             
MTR08572000001000000000000000RA              99999999    005800350000003500000570000003NN  NNW 000                       N    
RDG08572000WATRL000000004K00000000000000000018012032015135959S022000000000N21       000530400K 10000000010000000000           
CUS0857200000108437356002         WAYNE T EVANS       2800 POPLAR DR                          000N        CARE OF             
MTR08572000001000000000000000RA              14924792    005800360000003600000310000003NN  NNW 000                       N    
RDG08572000WATRL000000004K00000000000000438017912032015135906N000000000000N21       000390400K 10000000010000000401           
CUS0857200000108437357000         LEWIS GWENDOLYN     2802 POPLAR DR                          000N        CARE OF             
MTR08572000001000000000000000RA              14917753    005800370000003700000310000003NN  NNW 000                       N    
RDG08572000WATRL000000004K00000000000000404017812032015135827N000000000000N21       000080400K 10000000010000000398           
CUS0857200000108437358008         DELLA RATTA INC     2804 POPLAR DR                          000N        CARE OF             
MTR08572000001000000000000000RA              99999999    005800380000003800000440000000NN  NNW 000                       N    
RDG08572000WATRL000000004K00000000000000000017712032015135819S022000000000N21       000040400K 10000000010000000000           
CUS0857200000108437359006         DELLA RATTA INC     2806 POPLAR DR                          000N        CARE OF             
MTR08572000001000000000000000RA              99999999    005800390000003900000570000003NN  NNW 000                       N    
RDG08572000WATRL000000004K00000000000000000017612032015135815S022000000000N21       000330400K 10000000010000000000           
CUS0857200000108437360004         DELLA RATTA INC     2808 POPLAR DR                          000N        CARE OF             
MTR08572000001000000000000000RA              99999999    005800400000004000000570000003NN  NNW 000                       N    
RDG08572000WATRL000000004K00000000000000000017512032015135742S022000000000N21       000360400K 10000000010000000000           
CUS0857200000108437361002         MONTGOMERY JANICE   2810 POPLAR DR                          000N        CARE OF             
MTR08572000001000000000000000RA              14915571    005800410000004100000570000003NN  NNW 000                       N    
RDG08572000WATRL000000004K00000000000000000017412032015135706S001000000010N21       000420400K 10000000010000000725           
CUS0857200000108437362000         HEYWARD MASCIO      2812 POPLAR DR                          000N        CARE OF             
MTR08572000001000000000000000RA              14910189    005800420000004200000310000003NN  NNW 000                       N    
RDG08572000WATRL000000004K00000000000000831017312032015135624N000000000000N21       000240400K 10000000010000000807           
CUS0857200000108437363008         DELLA RATTA INC     2814 POPLAR DR                          000N        CARE OF             
MTR08572000001000000000000000RA              99999999    005800430000004300000570000003NN  NNW 000                       N    
RDG08572000WATRL000000004K00000000000000000017212032015135600S002000000000N21       000050400K 10000000010000000000           
CUS0857200000108437364006         DELLA RATTA INC     2816 POPLAR DR                          000N        CARE OF             
MTR08572000001000000000000000RA              99999999    005800440000004400000570000003NN  NNW 000                       N    
RDG08572000WATRL000000004K00000000000000000017112032015135555S002000000000N21       000390400K 10000000010000000000           
CUS0857200000108437365003         MANNERS PAMELLA     2818 POPLAR DR                          000N        CARE OF             
MTR08572000001000000000000000RA              14905357    005800450000004500000310000003NN  NNW 000                       N    
RDG08572000WATRL000000004K00000000000000531017012032015135516N000000000000N21       000550400K 10000000010000000519           
CUS0857200000108437366001         LACHERYL S PAGE     2820 POPLAR DR                          000N        CARE OF             
MTR08572000001000000000000000RA              14929180    005800460000004600000310000003NN  NNW 000                       N    
RDG08572000WATRL000000004K00000000000000281016912032015135421N000000000000N21       000470400K 10000000010000000260           
CUS0857200000108437367009         GONZALES LOUISE MICH2822 POPLAR DR                          000N        CARE OF             
MTR08572000001000000000000000RA              14928684    005800470000004700000310000003NN  NNW 000                       N    
RDG08572000WATRL000000004K00000000000001771016812032015135334N000000000000N21       000030400K 10000000010000001718           
CUS0857200000108437368007         GOODE BERNARD M     2824 POPLAR DR                          000N        CARE OF             
MTR08572000001000000000000000RA              14903289    005800480000004800000310000003NN  NNW 000                       N    
RDG08572000WATRL000000004K00000000000002304016712032015135331N000000000000N21       000340400K 10000000010000002220           
CUS0857200000108437369005         BROWN MICHAEL A     2826 POPLAR DR                          000N        CARE OF             
MTR08572000001000000000000000RA              14903288    005800490000004900000310000003NN  NNW 000                       N    
RDG08572000WATRL000000004K00000000000000991016612032015135257N000000000000N21       000270400K 10000000010000000973           
CUS0857200000108437400008         ELDRIDGE GREGORY S,S2811 POPLAR DR                          000N        CARE OF             
MTR08572000001000000000000000RA              14907572    005800500000005000000310000003NN  NNW 000                       N    
RDG08572000WATRL000000004K00000000000000842016512032015135230N000000000000N21       000180400K 10000000010000000831           
CUS0857200000108437399002         LAWSON WAYNE A      2809 POPLAR DR                          000N        CARE OF             
MTR08572000001000000000000000RA              14907577    005800510000005100000310000003NN  NNW 000                       N    
RDG08572000WATRL000000004K00000000000000780016412032015135212N000000000000N21       001270400K 10000000010000000769           
CUS0857200000108437398004         GREEN DAWN B        2807 POPLAR DR                          000N        CARE OF             
MTR08572000001000000000000000RA              14915737    005800520000005200000310000003NN  NNW 000                       N    
RDG08572000WATRL000000004K00000000000000670016312032015135005N000000000000N21       000430400K 10000000010000000660           
CUS0857200000108437397006         CROSBY THOMAS       2805 POPLAR DR                          000N        CARE OF             
MTR08572000001000000000000000RA              14910193    005800530000005300000310000003NN  NNW 000                       N    
RDG08572000WATRL000000004K00000000000002937016212032015134922N000000000000N21       000450400K 10000000010000002516           
CUS0857200000108437396008         MULLEN JAMES GARDNER2803 POPLAR DR                          000N        CARE OF             
MTR08572000001000000000000000RA              14919383    005800540000005400000310000003NN  NNW 000                       N    
RDG08572000WATRL000000004K00000000000001574016112032015134837N000000000000N21       000480400K 10000000010000001559           
CUS0857200000108437395000         WELLS KAREN         2801 POPLAR DR                          000N        CARE OF             
MTR08572000001000000000000000RA              14905354    005800550000005500000310000003NN  NNW 000                       N    
RDG08572000WATRL000000004K00000000000001070016012032015134749N000000000000N21       001510400K 10000000010000001032           
CUS0857200000108028364001         ANTONIO SPELL       2619 POPLAR DR                          000N        CARE OF             
MTR08572000001000000000000000RA              32770707    005800560000005600000520000003NN  NNW 000                       N    
RDG08572000WATRL000000004K00000000000003214015912032015134518N000000000000N21       000560400K 10000000010000003191           
CUS0857200000108028365008         CREIGHTON LYDIA J   2617 POPLAR DR                          000N        CARE OF             
MTR08572000001000000000000000RA              44179304    005800570000005700000520000003NN  NNW 000                       N    
RDG08572000WATRL000000004K00000000000001856015812032015134422N000000000000N21       001680400K 10000000010000001836           
CUS0857200000108028366006         JOHNSON EUGENIA HELE2615 POPLAR DR                          000N        CARE OF             
MTR08572000001000000000000000RA              01079679    005800580000005800000610000003NN  NNW 000                       N    
RDG08572000WATRL000000004K00000000000000000000000000000000000 000000000000U         000000400  10000000010000000636           
CUS0857200000108028367004         AKPABLI BENJAMIN    2609 POPLAR DR                          000N        CARE OF             
MTR08572000001000000000000000RA              52290325    005800590000005900000520000003NN  NNW 000                       N    
RDG08572000WATRL000000004K00000000000000000000000000000000000 000000000000U         000000400  10000000010000001339           
CUS0857200000108028368002         GOLDSMITH WILLIAM W 2607 POPLAR DR                          000N        CARE OF             
MTR08572000001000000000000000RA              23055982    005800600000006000000520000003NN  NNW 000                       N    
RDG08572000WATRL000000004K00000000000004419015712282015095453O000400000010N89       000730400K 10000000010000004403           
CUS0857200000108028369000         BOAK JAMES KNOX, 4TH2605 POPLAR DR                          000N        CARE OF             
MTR08572000001000000000000000RA              52290366    005800610000006100000520000003NN  NNW 000                       N    
RDG08572000WATRL000000004K00000000000000570015612032015134021N000300000010N21       000440400K 10000000010000000577           
CUS0857200000108028370008         COSHNEAR LAWRENCE B 2603 POPLAR DR                          000N        CARE OF             
MTR08572000001000000000000000RA              40321637    005800620000006200000520000003NN  NNW 000                       N    
RDG08572000WATRL000000004K00000000000001823015512032015133937N000000000000N21       000300400K 10000000010000001814           
CUS0857200000108028371006         MEEHAN ANN M        2601 POPLAR DR                          000N        CARE OF             
MTR08572000001000000000000000RA              41257470    005800630000006300000520000003NN  NNW 000                       N    
RDG08572000WATRL000000004K00000000000003247015412032015133907N000000000000N21       002400400K 10000000010000003230           
CUS0857200000108028372004         WORRELL GEORGE R    2616 WEST PARK DR                       000N        CARE OF             
MTR08572000001000000000000000RA              24769238    005800640000006400000520000003NN  NNW 000                       N    
RDG08572000WATRL000000004K00000000000003508015312032015133507N000000000000N21       000540400K 10000000010000003491           
CUS0857200000108028373002         BELL BERNEDETTE R   2600 LARCHMONT DR                       000N        CARE OF             
MTR08572000001000000000000000RA              01078905    005800650000006500000610000003NN  NNW 000                       N    
RDG08572000WATRL000000004K00000000000002468015212032015133413N000000000000N21       000790400K 10000000010000002291           
CUS0857200000108028374000         HEMINGWAY GEORGE W,J2602 LARCHMONT DR                       000N        CARE OF             
MTR08572000001000000000000000RA              44172292    005800660000006600000520000003NN  NNW 000                       N    
RDG08572000WATRL000000004K00000000000000992015112032015133254N000000000000N21       000510400K 10000000010000000977           
CUS0857200000108028375007         TALLEY DEBORAH      2604 LARCHMONT DR                       000N        CARE OF             
MTR08572000001000000000000000RA              14905499    005800670000006700000310000003NN  NNW 000                       N    
RDG08572000WATRL000000004K00000000000001018015012032015133203N000000000011N21       000080400K 10000000010000001006           
CUS0857200000108028376005         ZUMBRUN LINDA       2606 LARCHMONT DR                       000N        CARE OF             
MTR08572000001000000000000000RA              24222598    005800680000006800000520000003NN  NNW 000                       N    
RDG08572000WATRL000000004K00000000000004246014912032015133055N000000000000N21       000560400K 10000000010000004234           
CUS0857200000108028377003         NORMANT VIRGINIA LEE2608 LARCHMONT DR                       000N        CARE OF             
MTR08572000001000000000000000RA              24222404    005800690000006900000520000003NN  NNW 000                       N    
RDG08572000WATRL000000004K00000000000004766014812032015132959N000000000000N21       000740400K 10000000010000004757           
CUS0857200000108028378001         RANDOLPH JENNIFER RU2610 LARCHMONT DR                       000N        CARE OF             
MTR08572000001000000000000000RA              50476167    005800700000007000000520000003NN  NNW 000                       N    
RDG08572000WATRL000000004K00000000000000844014712032015132845N000000000000N21       000540400K 10000000010000000841           
CUS0857200000108028379009         JONES CALVIN,SR     2617 LARCHMONT DR                       000N        CARE OF             
MTR08572000001000000000000000RA              23647878    005800710000007100000520000003NN  NNW 000                       N    
RDG08572000WATRL000000004K00000000000004053014612032015132751N000000000011N21       000170400K 10000000010000004042           
CUS0857200000108028380007         BOWDEN DANISE P     2615 LARCHMONT DR                       000N        CARE OF             
MTR08572000001000000000000000RA              45376569    005800720000007200000520000003NN  NNW 000                       N    
RDG08572000WATRL000000004K00000000000001818014512032015132648N000000000000N21       000900400K 10000000010000001812           
CUS0857200000108028381005         MARTIN JOHN         2613 LARCHMONT DR                       000N        CARE OF             
MTR08572000001000000000000000RA              45376567    005800730000007300000520000003NN  NNW 000                       N    
RDG08572000WATRL000000004K00000000000003076014412032015132518N000000000000N21       000430400K 10000000010000003063           
CUS0857200000108028382003         ANDREWS JOSEPH J    2611 LARCHMONT DR                       000N        CARE OF             
MTR08572000001000000000000000RA              76348138    005800740000007400000350000003NN  NNW 000                       N    
RDG08572000WATRL000000004K00000000000000006014312032015132435N000400000010N21       000620400K 10000000010000000005           
CUS0857200000108028383001         RAVON H TAYLOR III  2609 LARCHMONT DR                       000N        CARE OF             
MTR08572000001000000000000000RA              31584407    005800750000007500000520000003NN  NNW 000                       N    
RDG08572000WATRL000000004K00000000000002697014212032015132333N000000000000N21       000480400K 10000000010000002683           
CUS0857200000108028384009         BROWN WANDA M       2607 LARCHMONT DR                       000N        CARE OF             
MTR08572000001000000000000000RA              01079644    005800760000007600000610000003NN  NNW 000                       N    
RDG08572000WATRL000000004K00000000000001036014112032015132245N000000000000N21       000440400K 10000000010000001014           
CUS0857200000108028385006         THOMPSON EMMANUEL A 2605 LARCHMONT DR                       000N        CARE OF             
MTR08572000001000000000000000RA              10015630    005800770000007700000570000003NN  NNW 000                       N    
RDG08572000WATRL000000004K00000000000000195014012032015132201N000000000000N21       000410400K 10000000010000000183           
CUS0857200000108028386004         PAYNE-JONES HARRIET 2603 LARCHMONT DR                       000N        CARE OF             
MTR08572000001000000000000000RA              24761254    005800780000007800000520000003NN  NNW 000                       N    
RDG08572000WATRL000000004K00000000000003234013912032015132120N000000000000N21       000110400K 10000000010000003227           
CUS0857200000108028387002         MUHAMMAD OMAR S     2601 LARCHMONT DR                       000N        CARE OF             
MTR08572000001000000000000000RA              01072136    005800790000007900000610000003NN  NNW 000                       N    
RDG08572000WATRL000000004K00000000000001238013812032015132109N000000000021N21       000090400K 10000000010000001226           
CUS0857200000108028388000         PASSPORT REALTY     2630 WEST PARK DR                       000N        CARE OF             
MTR08572000001000000000000000RA              01071830    005800800000008000000610000003NN  NNW 000                       N    
RDG08572000WATRL000000004K00000000000000768013712032015131928N000000000000N21       000320400K 10000000010000000753           
CUS0857200000108028389008         NICOLAY JOAN C      2632 WEST PARK DR                       000N        CARE OF             
MTR08572000001000000000000000RA              01071805    005800810000008100000610000003NN  NNW 000                       N    
RDG08572000WATRL000000004K00000000000000500013612032015131856N000000000000N21       000410400K 10000000010000000486           
CUS0857200000108028390006         DINGLE RAYFEL A     2636 WEST PARK DR                       000N        CARE OF             
MTR08572000001000000000000000RA              46877607    005800820000008200000520000003NN  NNW 000                       N    
RDG08572000WATRL000000004K00000000000001463013512032015131815N000000000000N21       000550400K 10000000010000001453           
CUS0857200000108028391004         KUJAN JAMES         2638 WEST PARK DR                       000N        CARE OF             
MTR08572000001000000000000000RA              26019141    005800830000008300000520000003NN  NNW 000                       N    
RDG08572000WATRL000000004K00000000000004441013412032015131720N000000000010N21       001070400K 10000000010000004408           
CUS0857200000108028392002         ROYSON ROY B        2640 WEST PARK DR                       000N        CARE OF             
MTR08572000001000000000000000RA              01073062    005800840000008400000610000003NN  NNW 000                       N    
RDG08572000WATRL000000004K00000000000001141013312032015131533N000000000000N21       000040400K 10000000010000001103           
CUS0857200000108028393000         PARK DRIVE, LLC     2642 WEST PARK DR                       000N        CARE OF             
MTR08572000001000000000000000RA              01072920    005800850000008500000610000003NN  NNW 000                       N    
RDG08572000WATRL000000004K00000000000000776013212032015131529N000000000000N21       000160400K 10000000010000000765           
CUS0857200000108028394008         BALTO CO PUBLIC SCHO2650 WEST PARK DR                       000N        CARE OF             
MTR08572000001000000000000000RA              23841800    005800860000008600000520000003NN  NNW 000                       N    
RDG08572000WATRL000000004K00000000000000000013100000000000000 000000000000U         000000400  10000000010000002464           
CUS0857200000108028395005         JOHNSON JAMES L     2660 WEST PARK DR                       000N        CARE OF             
MTR08572000001000000000000000RA              52289343    005800870000008700000520000003NN  NNW 000                       N    
RDG08572000WATRL000000004K00000000000000736013012032015131043N000000000000N21       000430400K 10000000010000000728           
CUS0857200000108028396003         JACKSON NEAL        2662 WEST PARK DR                       000N        CARE OF             
MTR08572000001000000000000000RA              44091458    005800880000008800000520000003NN  NNW 000                       N    
RDG08572000WATRL000000004K00000000000002163012912032015131000N000000000000N21       000070400K 10000000010000002151           
CUS0857200000108028397001         SMITH TALMADGE F    2664 WEST PARK DR                       000N        CARE OF             
MTR08572000001000000000000000RA              24222281    005800890000008900000520000003NN  NNW 000                       N    
RDG08572000WATRL000000004K00000000000005457012812032015130953N000000000000N21       000820400K 10000000010000005449           
CUS0857200000108028398009         MCNEIL MARVIN       2666 WEST PARK DR                       000N        CARE OF             
MTR08572000001000000000000000RA              01072927    005800900000009000000610000003NN  NNW 000                       N    
RDG08572000WATRL000000004K00000000000001870012712032015130831N000000000020N21       000190400K 10000000010000001770           
CUS0857200000108028399007         LATTEA DAVID J      2668 WEST PARK DR                       000N        CARE OF             
MTR08572000001000000000000000RA              01072929    005800910000009100000610000003NN  NNW 000                       N    
RDG08572000WATRL000000004K00000000000000994012612032015130812N000000000000N21       000620400K 10000000010000000974           
CUS0857200000108028400003         JOHNSON MARK ANTHONY2670 WEST PARK DR                       000N        CARE OF             
MTR08572000001000000000000000RA              40780555    005800920000009200000520000003NN  NNW 000                       N    
RDG08572000WATRL000000004K00000000000003015012512032015130710N000000000000N21       000040400K 10000000010000002995           
CUS0857200000108028401001         FOGUS HERMAN W      2672 WEST PARK DR                       000N        CARE OF             
MTR08572000001000000000000000RA              31583718    005800930000009300000520000003NN  NNW 000                       N    
RDG08572000WATRL000000004K00000000000004143012412032015130706N000000000000N21       000460400K 10000000010000004126           
CUS0857200000108028402009         BURGESS LISA M      2674 WEST PARK DR                       000N        CARE OF             
MTR08572000001000000000000000RA              01072925    005800940000009400000610000003NN  NNW 000                       N    
RDG08572000WATRL000000004K00000000000001196012312032015130620N000000000000N21       000040400K 10000000010000001192           
CUS0857200000108028403007         LORRAINE-WINDSOR LLC2676 WEST PARK DR                       000N        CARE OF             
MTR08572000001000000000000000RA              01072926    005800950000009500000610000003NN  NNW 000                       N    
RDG08572000WATRL000000004K00000000000001662012212032015130616N000000000000N21       000610400K 10000000010000001641           
CUS0857200000108028404005         REYNOLDS JUANITA    2678 WEST PARK DR                       000N        CARE OF             
MTR08572000001000000000000000RA              01072923    005800960000009600000610000003NN  NNW 000                       N    
RDG08572000WATRL000000004K00000000000001479012112032015130515N000000000000N21       000030400K 10000000010000001432           
CUS0857200000108028405002         JOHNSON HAYWOOD,JR  2680 WEST PARK DR                       000N        CARE OF             
MTR08572000001000000000000000RA              99999999    005800970000009700000610000003NN  NNW 000                       N    
RDG08572000WATRL000000004K00000000000002309012012032015130512N000000000000N21       000470400K 10000000010000002235           
CUS0857200000108028406000         HILL LEON           2682 WEST PARK DR                       000N        CARE OF             
MTR08572000001000000000000000RA              32902562    005800980000009800000520000003NN  NNW 000                       N    
RDG08572000WATRL000000004K00000000000003596011912032015130425N000100000010N21       000100400K 10000000010000003596           
CUS0857200000108028407008         JOHNSON ANTHONY     2684 WEST PARK DR                       000N        CARE OF             
MTR08572000001000000000000000RA              30514198    005800990000009900000520000003NN  NNW 000                       N    
RDG08572000WATRL000000004K00000000000002953011812032015130415N000000000000N21       000530400K 10000000010000002941           
CUS0857200000108028408006         WILLIAMS WILLIS C,JR2686 WEST PARK DR                       000N        CARE OF             
MTR08572000001000000000000000RA              41257266    005801000000010000000520000003NN  NNW 000                       N    
RDG08572000WATRL000000004K00000000000002152011712032015130322N000000000000N21       000020400K 10000000010000002130           
CUS0857200000108028409004         LUCAS JOHN C        2688 WEST PARK DR                       000N        CARE OF             
MTR08572000001000000000000000RA              76347683    005801010000010100000350000003NN  NNW 000                       N    
RDG08572000WATRL000000004K00000000000000063011612032015130320N000000000000N21       000480400K 10000000010000000043           
CUS0857200000108028410002         JONES WILLIAM F     2690 WEST PARK DR                       000N        CARE OF             
MTR08572000001000000000000000RA              26008219    005801020000010200000520000003NN  NNW 000                       N    
RDG08572000WATRL000000004K00000000000002134011512032015130232N000000000000N21       000710400K 10000000010000002122           
CUS0857200000108028411000         JACKSON MAURICE     2691 WEST PARK DR                       000N        CARE OF             
MTR08572000001000000000000000RA              41258211    005801030000010300000520000003NN  NNW 000                       N    
RDG08572000WATRL000000004K00000000000004116011412032015130121N000000000000N21       000520400K 10000000010000004077           
CUS0857200000108028412008         JAMES VANZETTA V    2689 WEST PARK DR                       000N        CARE OF             
MTR08572000001000000000000000RA              45386768    005801040000010400000520000003NN  NNW 000                       N    
RDG08572000WATRL000000004K00000000000001374011312032015130029N000000000000N21       000060400K 10000000010000001362           
CUS0857200000108028413006         RODGERS DONALD      2687 WEST PARK DR                       000N        CARE OF             
MTR08572000001000000000000000RA              35119090    005801050000010500000520000003NN  NNW 000                       N    
RDG08572000WATRL000000004K00000000000003084011212032015130023N000000000000N21       000530400K 10000000010000003073           
CUS0857200000108028414004         COONS MARGARET M    2685 WEST PARK DR                       000N        CARE OF             
MTR08572000001000000000000000RA              41076627    005801060000010600000520000003NN  NNW 000                       N    
RDG08572000WATRL000000004K00000000000002694011112032015125930N000000000000N21       000030400K 10000000010000002692           
CUS0857200000108028415001         GRAY WINSTON R      2683 WEST PARK DR                       000N        CARE OF             
MTR08572000001000000000000000RA              41076641    005801070000010700000520000003NN  NNW 000                       N    
RDG08572000WATRL000000004K00000000000001952011012032015125927N000000000000N21       001510400K 10000000010000001935           
CUS0857200000108028416009         WILLIAMS WILLIS CARL2681 WEST PARK DR                       000N        CARE OF             
MTR08572000001000000000000000RA              26006757    005801080000010800000520000003NN  NNW 000                       N    
RDG08572000WATRL000000004K00000000000005374010912032015125656N000000000000N21       000120400K 10000000010000005344           
CUS0857200000108028417007         WILSON RAYMOND G    2679 WEST PARK DR                       000N        CARE OF             
MTR08572000001000000000000000RA              52285630    005801090000010900000520000003NN  NNW 000                       N    
RDG08572000WATRL000000004K00000000000002749010812032015125644N000000000000N21       000820400K 10000000010000002737           
CUS0857200000108028418005         ROBERTS REGINALD    2677 WEST PARK DR                       000N        CARE OF             
MTR08572000001000000000000000RA              41076634    005801100000011000000520000003NN  NNW 000                       N    
RDG08572000WATRL000000004K00000000000002139010712032015125522N000000000000N21       000040400K 10000000010000002119           
CUS0857200000108028419003         MAYS ALICIA         2675 WEST PARK DR                       000N        CARE OF             
MTR08572000001000000000000000RA              44093472    005801110000011100000520000003NN  NNW 000                       N    
RDG08572000WATRL000000004K00000000000002183010612032015125518N000000000000N21       000620400K 10000000010000002156           
CUS0857200000108028420001         BOYD OMAR K,3RD     2673 WEST PARK DR                       000N        CARE OF             
MTR08572000001000000000000000RA              24222382    005801120000011200000520000003NN  NNW 000                       N    
RDG08572000WATRL000000004K00000000000004575010512032015125416N000000000000N21       000040400K 10000000010000004557           
CUS0857200000108028421009         ROBINS MARK         2671 WEST PARK DR                       000N        CARE OF             
MTR08572000001000000000000000RA              24222403    005801130000011300000520000003NN  NNW 000                       N    
RDG08572000WATRL000000004K00000000000005222010412032015125412N000000000000N21       000460400K 10000000010000005211           
CUS0857200000108028422007         CLARK ROBERT        2669 WEST PARK DR                       000N        CARE OF             
MTR08572000001000000000000000RA              24221098    005801140000011400000520000003NN  NNW 000                       N    
RDG08572000WATRL000000004K00000000000004413010312032015125326N000000000000N21       000030400K 10000000010000004370           
CUS0857200000108028423005         CLARK JOYCE ANITA   2667 WEST PARK DR                       000N        CARE OF             
MTR08572000001000000000000000RA              27812358    005801150000011500000520000003NN  NNW 000                       N    
RDG08572000WATRL000000004K00000000000002000010212032015125323N000300000010N21       000530400K 10000000010000002008           
CUS0857200000108028424003         BRADBY REMONA       2665 WEST PARK DR                       000N        CARE OF             
MTR08572000001000000000000000RA              14905490    005801160000011600000310000003NN  NNW 000                       N    
RDG08572000WATRL000000004K00000000000000623010112032015125230N000000000000N21       000300400K 10000000010000000609           
CUS0857200000108028425000         WILSON KEDRIC       2663 WEST PARK DR                       000N        CARE OF             
MTR08572000001000000000000000RA              41076612    005801170000011700000520000003NN  NNW 000                       N    
RDG08572000WATRL000000004K00000000000002920010012032015125200N000000000000N21       000420400K 10000000010000002897           
CUS0857200000108028426008         NANCE ANDREW        2661 WEST PARK DR                       000N        CARE OF             
MTR08572000001000000000000000RA              01072924    005801180000011800000610000003NN  NNW 000                       N    
RDG08572000WATRL000000004K00000000000000912009912032015125118N000000000000N21       000030400K 10000000010000000904           
CUS0857200000108028427006         JEFFERSON SEBEKE A  2659 WEST PARK DR                       000N        CARE OF             
MTR08572000001000000000000000RA              01072922    005801190000011900000610000003NN  NNW 000                       N    
RDG08572000WATRL000000004K00000000000001141009812032015125115N000300000020N21       000510400K 10000000010000001164           
CUS0857200000108028428004         ROBERT BURCH        2657 WEST PARK DR                       000N        CARE OF             
MTR08572000001000000000000000RA              24222276    005801200000012000000520000003NN  NNW 000                       N    
RDG08572000WATRL000000004K00000000000001792009712032015125024N000000000000N21       000060400K 10000000010000001741           
CUS0857200000108028429002         GASTON EDWIN R      2655 WEST PARK DR                       000N        CARE OF             
MTR08572000001000000000000000RA              41076625    005801210000012100000520000003NN  NNW 000                       N    
RDG08572000WATRL000000004K00000000000002354009612032015125018N000000000000N21       000400400K 10000000010000002338           
CUS0857200000108028430000         CRITCHLOW NICOLA E  2653 WEST PARK DR                       000N        CARE OF             
MTR08572000001000000000000000RA              01072921    005801220000012200000610000003NN  NNW 000                       N    
RDG08572000WATRL000000004K00000000000001891009512032015124938N000000000000N21       000380400K 10000000010000001864           
CUS0857200000108028431008         FAWTHROP KATHLEEN D 2651 WEST PARK DR                       000N        CARE OF             
MTR08572000001000000000000000RA              41076569    005801230000012300000520000003NN  NNW 000                       N    
RDG08572000WATRL000000004K00000000000001928009412032015124900N000000000000N21       000040400K 10000000010000001908           
CUS0857200000108028432006         DECKER HELEN L      2649 WEST PARK DR                       000N        CARE OF             
MTR08572000001000000000000000RA              41076610    005801240000012400000520000003NN  NNW 000                       N    
RDG08572000WATRL000000004K00000000000001734009312032015124856N000000000000N21       000500400K 10000000010000001725           
CUS0857200000108028433004         QUIRK JOHN          2647 WEST PARK DR                       000N        CARE OF             
MTR08572000001000000000000000RA              41076644    005801250000012500000520000003NN  NNW 000                       N    
RDG08572000WATRL000000004K00000000000001254009212032015124806N000000000000N21       000030400K 10000000010000001252           
CUS0857200000108028434002         SAMS GREGORY O      2645 WEST PARK DR                       000N        CARE OF             
MTR08572000001000000000000000RA              41076572    005801260000012600000520000003NN  NNW 000                       N    
RDG08572000WATRL000000004K00000000000002011009112032015124803N000000000000N21       000530400K 10000000010000001996           
CUS0857200000108028435009         ANTOINE D BURRELL   2643 WEST PARK DR                       000N        CARE OF             
MTR08572000001000000000000000RA              22608629    005801270000012700000520000003NN  NNW 000                       N    
RDG08572000WATRL000000004K00000000000005166009012032015124710N000000000000N21       000100400K 10000000010000005153           
CUS0857200000108028436007         QUICK MARGARETE     2641 WEST PARK DR                       000N        CARE OF             
MTR08572000001000000000000000RA              41257268    005801280000012800000520000003NN  NNW 000                       N    
RDG08572000WATRL000000004K00000000000000776008912032015124700N000000000000N21       000670400K 10000000010000000771           
CUS0857200000108028437005         TURNER MARY DOLORES 2639 WEST PARK DR                       000N        CARE OF             
MTR08572000001000000000000000RA              01073154    005801290000012900000610000003NN  NNW 000                       N    
RDG08572000WATRL000000004K00000000000001330008812032015124553N000000000000N21       000030400K 10000000010000001313           
CUS0857200000108028438003         KROHN NICHOLAS K    2637 WEST PARK DR                       000N        CARE OF             
MTR08572000001000000000000000RA              01073065    005801300000013000000610000003NN  NNW 000                       N    
RDG08572000WATRL000000004K00000000000001222008712032015124550N000000000000N21       000650400K 10000000010000001206           
CUS0857200000108028439001         EVRY MARGARET F     2635 WEST PARK DR                       000N        CARE OF             
MTR08572000001000000000000000RA              01073063    005801310000013100000610000003NN  NNW 000                       N    
RDG08572000WATRL000000004K00000000000000962008612032015124445N000000000000N21       000420400K 10000000010000000947           
CUS0857200000108028440009         EDSON SUSAN         2633 WEST PARK DR                       000N        CARE OF             
MTR08572000001000000000000000RA              01073069    005801320000013200000610000003NN  NNW 000                       N    
RDG08572000WATRL000000004K00000000000001450008512032015124403N000000000000N21       000390400K 10000000010000001435           
CUS0857200000108028441007         BENNETT THOMAS MONRO2631 WEST PARK DR                       000N        CARE OF             
MTR08572000001000000000000000RA              41074985    005801330000013300000520000003NN  NNW 000                       N    
RDG08572000WATRL000000004K00000000000005232008412032015124324N000000000000N21       000390400K 10000000010000005193           
CUS0857200000108028442005         ANDERSON RAYMOND M,J2629 WEST PARK DR                       000N        CARE OF             
MTR08572000001000000000000000RA              01073064    005801340000013400000610000003NN  NNW 000                       N    
RDG08572000WATRL000000004K00000000000001772008312032015124245N000000000000N21       000310400K 10000000010000001744           
CUS0857200000108028443003         DILLARD KIM K       2627 WEST PARK DR                       000N        CARE OF             
MTR08572000001000000000000000RA              01073158    005801350000013500000610000003NN  NNW 000                       N    
RDG08572000WATRL000000004K00000000000000907008212032015124214N000000000000N21       000390400K 10000000010000000897           
CUS0857200000108028444001         JONES SHAWN M       2625 WEST PARK DR                       000N        CARE OF             
MTR08572000001000000000000000RA              01073171    005801360000013600000610000003NN  NNW 000                       N    
RDG08572000WATRL000000004K00000000000001065008112032015124135N000000000000N21       000220400K 10000000010000001057           
CUS0857200000108028445008         FITCH JERRY L       2623 WEST PARK DR                       000N        CARE OF             
MTR08572000001000000000000000RA              01073178    005801370000013700000610000003NN  NNW 000                       N    
RDG08572000WATRL000000004K00000000000001581008012032015124113N000000000000N21       000120400K 10000000010000001563           
CUS0857200000108028446006         PENDERGRASS LAVERNE 2621 WEST PARK DR                       000N        CARE OF             
MTR08572000001000000000000000RA              01073170    005801380000013800000610000003NN  NNW 000                       N    
RDG08572000WATRL000000004K00000000000001699007912032015124101N000000000000N21       000730400K 10000000010000001688           
CUS0857200000108028447004         CANADA JAMES P      2619 WEST PARK DR                       000N        CARE OF             
MTR08572000001000000000000000RA              76348139    005801390000013900000350000003NN  NNW 000                       N    
RDG08572000WATRL000000004K00000000000000176007812032015123948N000000000000N21       000330400K 10000000010000000145           
CUS0857200000108028448002         APEX GROUND PROPERTI2617 WEST PARK DR                       000N        CARE OF             
MTR08572000001000000000000000RA              01073173    005801400000014000000610000003NN  NNW 000                       N    
RDG08572000WATRL000000004K00000000000004879007712032015123915N000000000000N21       000370400K 10000000010000004830           
CUS0857200000108028449000         BAAJUN SULEIMAN     2615 WEST PARK DR                       000N        CARE OF             
MTR08572000001000000000000000RA              01073175    005801410000014100000610000003NN  NNW 000                       N    
RDG08572000WATRL000000004K00000000000001933007612032015123838N000000000000N21       001350400K 10000000010000001929           
CUS0857200000108028450008         DOWNEY CHAD JAMISON 2501 BIRCH DR                           000N        CARE OF             
MTR08572000001000000000000000RA              24222320    005801420000014200000520000003NN  NNW 000                       N    
RDG08572000WATRL000000004K00000000000004049007512032015123623N000000000000N21       000800400K 10000000010000004026           
CUS0857200000108028451006         HALL MARLENE K      2413 BIRCH DR                           000N        CARE OF             
MTR08572000001000000000000000RA              01073172    005801430000014300000610000003NN  NNW 000                       N    
RDG08572000WATRL000000004K00000000000001485007412032015123503N000300000010N21       000350400K 10000000010000001499           
CUS0857200000108028452004         NITSCH SUSAN F      2411 BIRCH DR                           000N        CARE OF             
MTR08572000001000000000000000RA              01073177    005801440000014400000610000003NN  NNW 000                       N    
RDG08572000WATRL000000004K00000000000000508007312032015123428N000300000020N21       000910400K 10000000010000000496           
CUS0857200000108028453002         WILLETTE MALCOLM M  2407 BIRCH DR                           000N        CARE OF             
MTR08572000001000000000000000RA              01073176    005801450000014500000610000003NN  NNW 000                       N    
RDG08572000WATRL000000004K00000000000001338007212032015123257N000000000000N21       000820400K 10000000010000001324           
CUS0857200000108028454000         SEEHUSEN LEANN B    2405 BIRCH DR                           000N        CARE OF             
MTR08572000001000000000000000RA              19462268    005801460000014600000520000003NN  NNW 000                       N    
RDG08572000WATRL000000004K00000000000000000000000000000000000 000000000000U         000000400  10000000010000003779           
CUS0857200000108028455007         BLATCHLEY ROBERT E  2401 BIRCH DR                           000N        CARE OF             
MTR08572000001000000000000000RA              39289227    005801470000014700000520000003NN  NNW 000                       N    
RDG08572000WATRL000000004K00000000000002936007112032015123135N000000000000N21       000450400K 10000000010000002914           
CUS0857200000108028456005         JACKSON YASMIN      2321 BIRCH DR                           000N        CARE OF             
MTR08572000001000000000000000RA              24221771    005801480000014800000520000003NN  NNW 000                       N    
RDG08572000WATRL000000004K00000000000002993007012032015123050N000000000000N21       000180400K 10000000010000002976           
CUS0857200000108028457003         CHAVIS THOMAS W     2319 BIRCH DR                           000N        CARE OF             
MTR08572000001000000000000000RA              29402148    005801490000014900000520000003NN  NNW 000                       N    
RDG08572000WATRL000000004K00000000000001961006912032015123032N000000000000N21       000470400K 10000000010000001943           
CUS0857200000108028458001         ATKINSON JOEL       2317 BIRCH DR                           000N        CARE OF             
MTR08572000001000000000000000RA              01072657    005801500000015000000610000003NN  NNW 000                       N    
RDG08572000WATRL000000004K00000000000001082006812032015122945N000000000000N21       000500400K 10000000010000001074           
CUS0857200000108028459009         BRANDENBURG CARL A  2315 BIRCH DR                           000N        CARE OF             
MTR08572000001000000000000000RA              44091606    005801510000015100000520000003NN  NNW 000                       N    
RDG08572000WATRL000000004K00000000000001036006712032015122855N000000000000N21       000370400K 10000000010000001035           
CUS0857200000108028460007         GUIDA EDWARD        2313 BIRCH DR                           000N        CARE OF             
MTR08572000001000000000000000RA              24222597    005801520000015200000520000003NN  NNW 000                       N    
RDG08572000WATRL000000004K00000000000003480006612032015122818N000000000000N21       000700400K 10000000010000003458           
CUS0857200000108028461005         HILL DONNELL        2305 BIRCH DR                           000N        CARE OF             
MTR08572000001000000000000000RA              44091611    005801530000015300000520000003NN  NNW 000                       N    
RDG08572000WATRL000000004K00000000000002622006512032015122708N000000000000N21       000290400K 10000000010000002608           
CUS0857200000108028462003         TRACEY LORRAINE M   2303 BIRCH DR                           000N        CARE OF             
MTR08572000001000000000000000RA              78005276    005801540000015400000360000003NN  NNW 000                       N    
RDG08572000WATRL000000004K00000000000000045006412032015122639N000000000000N21       000510400K 10000000010000000034           
CUS0857200000108028463001         PERKINS RUSSELL     2301 BIRCH DR                           000N        CARE OF             
MTR08572000001000000000000000RA              01072659    005801550000015500000610000003NN  NNW 000                       N    
RDG08572000WATRL000000004K00000000000001184006312032015122548N000000000000N21       000560400K 10000000010000001162           
CUS0857200000108028464009         MATTHEW J MADDOX    2300 BIRCH DR                           000N        CARE OF             
MTR08572000001000000000000000RA              29683423    005801560000015600000520000003NN  NNW 000                       N    
RDG08572000WATRL000000004K00000000000000000000000000000000000 000000000000U         000000400  10000000010000001986           
CUS0857200000108028465006         WELLS FARGO HOME MOR2302 BIRCH DR                           000N        CARE OF             
MTR08572000001000000000000000RA              77987457    005801570000015700000350000003NN  NNW 000   VACANT / LOT        N    
RDG08572000WATRL000000004K00000000000000000006212032015122452N000000000000N21       000230400K 10000000010000000000           
CUS0857200000108028466004         MILLER NANCY DIANE  2304 BIRCH DR                           000N        CARE OF             
MTR08572000001000000000000000RA              24228120    005801580000015800000520000003NN  NNW 000                       N    
RDG08572000WATRL000000004K00000000000002476006112032015122429N000000000000N21       000420400K 10000000010000002467           
CUS0857200000108028467002         HERBICK PAUL JOHN   2306 BIRCH DR                           000N        CARE OF             
MTR08572000001000000000000000RA              01072655    005801590000015900000610000003NN  NNW 000                       N    
RDG08572000WATRL000000004K00000000000000516006012032015122347N000000000010N21       001180400K 10000000010000000515           
CUS0857200000108028468000         BROOKS DIANE        2308 BIRCH DR                           000N        CARE OF             
MTR08572000001000000000000000RA              46882040    005801600000016000000520000003NN  NNW 000                       N    
RDG08572000WATRL000000004K00000000000001749005912032015122149N000000000000N21       000270400K 10000000010000001739           
CUS0857200000108028469008         MARIANO ROCHELLE L  2310 BIRCH DR                           000N        CARE OF             
MTR08572000001000000000000000RA              24221907    005801610000016100000520000003NN  NNW 000                       N    
RDG08572000WATRL000000004K00000000000004680005812032015122122N000000000000N21       000350400K 10000000010000004665           
CUS0857200000108028470006         WIDERMAN NORMA W    2312 BIRCH DR                           000N        CARE OF             
MTR08572000001000000000000000RA              44091601    005801620000016200000520000003NN  NNW 000                       N    
RDG08572000WATRL000000004K00000000000001569005712032015122047N000000000000N21       000390400K 10000000010000001564           
CUS0857200000108028471004         STEVEN P MARTINELLI 2314 BIRCH DR                           000N        CARE OF             
MTR08572000001000000000000000RA              35109565    005801630000016300000520000003NN  NNW 000                       N    
RDG08572000WATRL000000004K00000000000002279005612032015122008N000000000000N21       001020400K 10000000010000002266           
CUS0857200000108028472002         CROUSE MARY         108 LOCUST DR                           000N        CARE OF             
MTR08572000001000000000000000RA              22608966    005801640000016400000520000003NN  NNW 000                       N    
RDG08572000WATRL000000004K00000000000004698003812032015115302N000000000000N21       000310400K 10000000010000004691           
CUS0857200000108028473000         SOUTHWELL SHEILA M  106 LOCUST DR                           000N        CARE OF             
MTR08572000001000000000000000RA              77877835    005801650000016500000360000003NN  NNW 000                       N    
RDG08572000WATRL000000004K00000000000000020003712032015115231N000000000000N21       000390400K 10000000010000000011           
CUS0857200000108028474008         JACKSON KIM         104 LOCUST DR                           000N        CARE OF             
MTR08572000001000000000000000RA              24222712    005801660000016600000520000003NN  NNW 000                       N    
RDG08572000WATRL000000004K00000000000003915003612032015115152N000000000000N21       000910400K 10000000010000003902           
CUS0857200000108028475005         RANDALL CARITA      102 LOCUST DR                           000N        CARE OF             
MTR08572000001000000000000000RA              24222710    005801670000016700000520000003NN  NNW 000                       N    
RDG08572000WATRL000000004K00000000000000000000000000000000000 000000000000U         000000400  10000000010000004808           
CUS0857200000108028476003         LOWTHER DAVID,JR    100 LOCUST DR                           000N        CARE OF             
MTR08572000001000000000000000RA              24220944    005801680000016800000520000003NN  NNW 000                       N    
RDG08572000WATRL000000004K00000000000003471003512032015115021N000000000000N21       000850400K 10000000010000003444           
CUS0857200000108028477001         FORTUNE ANN T       2321 POPLAR DR                          000N        CARE OF             
MTR08572000001000000000000000RA              24222713    005801690000016900000520000003NN  NNW 000                       N    
RDG08572000WATRL000000004K00000000000003113003412032015114856N000000000000N21       001840400K 10000000010000003109           
CUS0857200000108028478009         LEARY GEORGE E      103 LOCUST DR                           000N        CARE OF             
MTR08572000001000000000000000RA              24222715    005801700000017000000520000003NN  NNW 000                       N    
RDG08572000WATRL000000004K00000000000003543004212032015115659N000000000000N21       000470400K 10000000010000003508           
CUS0857200000108028479007         BOARDLEY DONNA L    101 LOCUST DR                           000N        CARE OF             
MTR08572000001000000000000000RA              24220947    005801710000017100000520000003NN  NNW 000                       N    
RDG08572000WATRL000000004K00000000000004232004112032015115612N000000000000N21       000370400K 10000000010000004216           
CUS0857200000108028480005         YOUNGER JASON M     105 LOCUST DR                           000N        CARE OF             
MTR08572000001000000000000000RA              24222708    005801720000017200000520000003NN  NNW 000                       N    
RDG08572000WATRL000000004K00000000000003744004012032015115535N000100000030N21       000830400K 10000000010000003744           
CUS0857200000108028481003         TURNER BURLEIGH B,3R107 LOCUST DR                           000N        CARE OF             
MTR08572000001000000000000000RA              36695734    005801730000017300000520000003NN  NNW 000                       N    
RDG08572000WATRL000000004K00000000000003783003912032015115412N000000000000N21       000700400K 10000000010000003761           
CUS0857200000108028482001         ANDREW  J VACHE     2400 BIRCH DR                           000N        CARE OF             
MTR08572000001000000000000000RA              24222920    005801740000017400000520000003NN  NNW 000                       N    
RDG08572000WATRL000000004K00000000000003797005512032015121826N000000000000N21       000990400K 10000000010000003789           
CUS0857200000108028483009         NEUMANN WILLIAM H   2402 BIRCH DR                           000N        CARE OF             
MTR08572000001000000000000000RA              14902370    005801750000017500000310000003NN  NNW 000                       N    
RDG08572000WATRL000000004K00000000000000436005412032015121647N000000000000N21       000420400K 10000000010000000427           
CUS0857200000108028484007         MARC A. WYNNE       2404 BIRCH DR                           000N        CARE OF             
MTR08572000001000000000000000RA              14902307    005801760000017600000310000003NN  NNW 000                       N    
RDG08572000WATRL000000004K00000000000001033005312032015121605N000000000000N21       000340400K 10000000010000001023           
CUS0857200000108028485004         JOAN GOWER          2408 BIRCH DR                           000N        CARE OF             
MTR08572000001000000000000000RA              24222022    005801770000017700000520000003NN  NNW 000                       N    
RDG08572000WATRL000000004K00000000000003718005212032015121531N000000000000N21       001210400K 10000000010000003705           
CUS0857200000108028486002         SCHULTZ LINDSEY N   2600 WEST PARK DR                       000N        CARE OF             
MTR08572000001000000000000000RA              46882042    005801780000017800000520000003NN  NNW 000                       N    
RDG08572000WATRL000000004K00000000000000000005100000000000000 000000000000U         000000400  10000000010000001079           
CUS0857200000108028487000         NITSCH JEANE T      2509 POPLAR DR                          000N        CARE OF             
MTR08572000001000000000000000RA              24220946    005801790000017900000520000003NN  NNW 000                       N    
RDG08572000WATRL000000004K00000000000005686005012032015121125N000000000000N21       000970400K 10000000010000005675           
CUS0857200000108028488008         MASON TONYA         2507 POPLAR DR                          000N        CARE OF             
MTR08572000001000000000000000RA              14911633    005801800000018000000310000003NN  NNW 000                       N    
RDG08572000WATRL000000004K00000000000000000000000000000000000 000000000000U         000000400  10000000010000000229           
CUS0857200000108028489006         OBREBSKI JAN L      2505 POPLAR DR                          000N        CARE OF             
MTR08572000001000000000000000RA              48588112    005801810000018100000520000003NN  NNW 000                       N    
RDG08572000WATRL000000004K00000000000001493004912032015120948N000000000000N21       000860400K 10000000010000001482           
CUS0857200000108028490004         HART ANTOINETTE D   2503 POPLAR DR                          000N        CARE OF             
MTR08572000001000000000000000RA              75426656    005801820000018200000350000003NN  NNW 000                       N    
RDG08572000WATRL000000004K00000000000000000000000000000000000 000000000000U         000000400  10000000010000000181           
CUS0857200000108028491002         SEESTEDT DAWN M     2501 POPLAR DR                          000N        CARE OF             
MTR08572000001000000000000000RA              23055992    005801830000018300000520000003NN  NNW 000                       N    
RDG08572000WATRL000000004K00000000000005522004812032015120822N000000000000N21       001070400K 10000000010000005510           
CUS0857200000108028492000         OBRIECHT WILLIAM L  2415 POPLAR DR                          000N        CARE OF             
MTR08572000001000000000000000RA              27812352    005801840000018400000520000003NN  NNW 000                       N    
RDG08572000WATRL000000004K00000000000004314004712032015120635N000000000000N21       000990400K 10000000010000004286           
CUS0857200000108028493008         OBRIECHT WILLIAM L  2411 POPLAR DR                          000N        CARE OF             
MTR08572000001000000000000000RA              76348137    005801850000018500000350000003NN  NNW 000                       N    
RDG08572000WATRL000000004K00000000000000000000000000000000000 000000000000U         000000400  10000000010000000151           
CUS0857200000108028494006         NICOLE D MILES      2409 POPLAR DR                          000N        CARE OF             
MTR08572000001000000000000000RA              36695697    005801860000018600000520000003NN  NNW 000                       N    
RDG08572000WATRL000000004K00000000000001742004612032015120456N000000000001N21       002650400K 10000000010000001737           
CUS0857200000108028495003         BRYSON THOMAS E     2405 POPLAR DR                          000N        CARE OF             
MTR08572000001000000000000000RA              27822896    005801870000018700000520000003NN  NNW 000                       N    
RDG08572000WATRL000000004K00000000000000384004512032015120031N000000000000N21       000370400K 10000000010000000379           
CUS0857200000108028496001         SIDDIQI MOHAMMED    2403 POPLAR DR                          000N        CARE OF             
MTR08572000001000000000000000RA              24222714    005801880000018800000520000003NN  NNW 000                       N    
RDG08572000WATRL000000004K00000000000004226004412032015115954N000003200000N21       000410400K 10000000010000004213           
CUS0857200000108028497009         BROWN CHARLES E,2ND 2401 POPLAR DR                          000N        CARE OF             
MTR08572000001000000000000000RA              01073152    005801890000018900000610000003NN  NNW 000                       N    
RDG08572000WATRL000000004K00000000000001700004312032015115913N000000000000N21       001340400K 10000000010000001649           
CUS0857200000108028498007         WILLIAMS JAMES      2400 POPLAR DR                          000N        CARE OF             
MTR08572000001000000000000000RA              01073765    005801900000019000000610000003NN  NNW 000                       N    
RDG08572000WATRL000000004K00000000000003387003312032015114552N000000000000N21       001120400K 10000000010000003359           
CUS0857200000108028499005         COUSIN MARCUS L     2402 POPLAR DR                          000N        CARE OF             
MTR08572000001000000000000000RA              24222716    005801910000019100000520000003NN  NNW 000                       N    
RDG08572000WATRL000000004K00000000000000000000000000000000000 000000000000U         000000400  10000000010000004658           
CUS0857200000108028500000         MARIN FRANCISCO     2404 POPLAR DR                          000N        CARE OF             
MTR08572000001000000000000000RA              01084939    005801920000019200000610000003NN  NNW 000                       N    
RDG08572000WATRL000000004K00000000000003157003212032015114400N000000000000N21       000330400K 10000000010000003140           
CUS0857200000108028501008         NAMINI MAHNAZ A  NAM2406 POPLAR DR                          000N        CARE OF             
MTR08572000001000000000000000RA              41257472    005801930000019300000520000003NN  NNW 000                       N    
RDG08572000WATRL000000004K00000000000001871003112032015114327N000000000000N21       000500400K 10000000010000001858           
CUS0857200000108028502006         KELLEY E CORDELL    2408 POPLAR DR                          000N        CARE OF             
MTR08572000001000000000000000RA              01073762    005801940000019400000610000003NN  NNW 000                       N    
RDG08572000WATRL000000004K00000000000000000000000000000000000 000000000000U         000000400  10000000010000000779           
CUS0857200000108028503004         SHAUN M. PREALON    2410 POPLAR DR                          000N        CARE OF             
MTR08572000001000000000000000RA              01073764    005801950000019500000610000003NN  NNW 000                       N    
RDG08572000WATRL000000004K00000000000001464003012032015114237N000000000000N21       000820400K 10000000010000001454           
CUS0857200000108028504002         PREMUZIC-MCCHESNEY A2412 POPLAR DR                          000N        CARE OF             
MTR08572000001000000000000000RA              23841811    005801960000019600000520000003NN  NNW 000                       N    
RDG08572000WATRL000000004K00000000000006690002912032015114115N000000000000N21       000720400K 10000000010000006657           
CUS0857200000108028505009         BANKS RAINA T       2414 POPLAR DR                          000N        CARE OF             
MTR08572000001000000000000000RA              14902305    005801970000019700000310000003NN  NNW 000                       N    
RDG08572000WATRL000000004K00000000000001078002812032015114003N000000000000N21       000990400K 10000000010000001069           
CUS0857200000108028506007         DARDEN DONALD R     6 PARK DR                               000N        CARE OF             
MTR08572000001000000000000000RA              24222719    005801980000019800000520000003NN  NNW 000                       N    
RDG08572000WATRL000000004K00000000000002524002712032015113824N000000000000N21       000420400K 10000000010000002514           
CUS0857200000108028507005         WILLIAMS MIKE M     4 PARK DR                               000N        CARE OF             
MTR08572000001000000000000000RA              01114299    005801990000019900000610000003NN  NNW 000                       N    
RDG08572000WATRL000000004K00000000000000559002612032015113742N000000000000N21       000570400K 10000000010000000549           
CUS0857200000108028508003         COLEMAN, LOLITA     2 PARK DR                               000N        CARE OF             
MTR08572000001000000000000000RA              41076614    005802000000020000000520000003NN  NNW 000                       N    
RDG08572000WATRL000000004K00000000000001592002512032015113645N000000000000N21       000860400K 10000000010000001577           
CUS0857200000108028313008         HILL AARON          6001 GWYNN OAK AVE                      000N        CARE OF             
MTR08572000001000000000000000RA              01079670    005802010000020100000610000003NN  NNW 000                       N    
RDG08572000WATRL000000004K00000000000002451002412032015113519N000300000010N21       001250400K 10000000010000002482           
CUS0857200000108028312000         JONES EARL          6003 GWYNN OAK AVE                      000N        CARE OF             
MTR08572000001000000000000000RA              40047934    005802020000020200000520000003NN  NNW 000                       N    
RDG08572000WATRL000000004K00000000000001223002312032015113314N000000000000N21       000530400K 10000000010000001207           
CUS0857200000108028311002         HOWARD JOE LOUIS    6005 GWYNN OAK AVE                      000N        CARE OF             
MTR08572000001000000000000000RA              41588037    005802030000020300000520000003NN  NNW 000                       N    
RDG08572000WATRL000000004K00000000000002285002212032015113221N000000000000N21       000520400K 10000000010000002274           
CUS0857200000108387129003         AKINTILO ADENIKE    6009 GWYNN OAK AVE                      000N        CARE OF             
MTR08572000001000000000000000RA              41588038    005802040000020400000520000003NN  NNW 000                       N    
RDG08572000WATRL000000004K00000000000002190002112032015113129N000300000020N21       001060400K 10000000010000002216           
CUS0857200000108028310004         PUMPHREY ROLAND     6007 GWYNN OAK AVE                      000N        CARE OF             
MTR08572000001000000000000000RA              36695699    005802050000020500000520000003NN  NNW 000                       N    
RDG08572000WATRL000000004K00000000000002238002012032015112943N000300000020N21       000760400K 10000000010000002182           
CUS0857200000108028309006         GLAESER BRYAN S     6011 GWYNN OAK AVE                      000N        CARE OF             
MTR08572000001000000000000000RA              01073763    005802060000020600000610000003NN  NNW 000                       N    
RDG08572000WATRL000000004K00000000000000799001912032015112827N000000000010N21       001210400K 10000000010000000793           
CUS0857200000108028308008         DONALDSON JOHN A    6013 GWYNN OAK AVE                      000N        CARE OF             
MTR08572000001000000000000000RA              9693259     007502070000020700000570000003NN  NNW 000                       N    
RDG08572000WATRL000000004K00000000000004728001812032015112626N000000000000N21       000440400K 10000000010000004701           
CUS0857200000108028307000         BROOKS RANDALL E    6015 GWYNN OAK AVE                      000N        CARE OF             
MTR08572000001000000000000000RA              27333623    007502080000020800000520000003NN  NNW 000                       N    
RDG08572000WATRL000000004K00000000000001149001712032015112542N000000000000N21       000370400K 10000000010000001144           
CUS0857200000108028306002         BUSHEY MICHAEL A    6017 GWYNN OAK AVE                      000N        CARE OF             
MTR08572000001000000000000000RA              00119689    007502090000020900000570000003NN  NNW 000                       N    
RDG08572000WATRL000000004K00000000000000527001612032015112505N000000000000N21       000690400K 10000000010000000509           
CUS0857200000108028305004         GWYNN OAK HOLDINGS L6019 GWYNN OAK AVE                      000N        CARE OF             
MTR08572000001000000000000000RA              99187002    005802100000021000000570000003NN  NNW 000                       N    
RDG08572000WATRL000000004K00000000000001598001512032015112356N000000000000N21       000390400K 10000000010000001570           
CUS0857200000108028304007         THOMPSON MARQUITA J 6021 GWYNN OAK AVE                      000N        CARE OF             
MTR08572000001000000000000000RA              52770637    005802110000021100000520000003NN  NNW 000                       N    
RDG08572000WATRL000000004K00000000000003428001412032015112317N000000000000N21       000340400K 10000000010000003407           
CUS0857200000108028303009         6023 GWYNN OAK AVE L6023 GWYNN OAK AVE                      000N        CARE OF             
MTR08572000001000000000000000RA              99410458    000102120000021200000570000003NN  NNW 000                       N    
RDG08572000WATRL000000004K00000000000007284001312032015112243N000000000000N21       000790400K 10000000010000007156           
CUS0857200000108028302001         JASON P BUTCHER     6025 GWYNN OAK AVE                      000N        CARE OF             
MTR08572000001000000000000000RA              45388700    007502130000021300000520000003NN  NNW 000                       N    
RDG08572000WATRL000000004K00000000000002119001112032015112110N000000000000N21       002200400K 10000000010000002091           
CUS0857200000108028301003         FREDERICK ERMINTRUDE6027 GWYNN OAK AVE                      000N        CARE OF             
MTR08572000001000000000000000RA              31580602    005802140000021400000520000003NN  NNW 000                       N    
RDG08572000WATRL000000004K00000000000002562001212032015112124N000000000030N21       000140400K 10000000010000002546           
CUS0857200000108028300005         COURTS SHIRLEY H    6029 GWYNN OAK AVE                      000N        CARE OF             
MTR08572000001000000000000000RA              77987888    005802150000021500000360000003NN  NNW 000                       N    
RDG08572000WATRL000000004K00000000000000037001012032015111730N000000000000N21       000710400K 10000000010000000019           
CUS0857200000108028299009         SWAN GEORGE D,JR    6031 GWYNN OAK AVE                      000N        CARE OF             
MTR08572000001000000000000000RA              14905246    005802160000021600000310000003NN  NNW 000                       N    
RDG08572000WATRL000000004K00000000000000506000912032015111619N000000000000N21       000440400K 10000000010000000493           
CUS0857200000108028298001         LUNDGREN EDITH K    6033 GWYNN OAK AVE                      000N        CARE OF             
MTR08572000001000000000000000RA              36694108    005802170000021700000520000003NN  NNW 000                       N    
RDG08572000WATRL000000004K00000000000002220000812032015111535N000000000000N21       000550400K 10000000010000002214           
CUS0857200000108028297003         WRIGHT PHILLIP L    6035 GWYNN OAK AVE                      000N        CARE OF             
MTR08572000001000000000000000RA              35119892    005802180000021800000520000003NN  NNW 000                       N    
RDG08572000WATRL000000004K00000000000002192000712282015095539O000000000010N89       000700400K 10000000010000002191           
CUS0857200000108028296005         JOSEPH CLARENCE RUDO6037 GWYNN OAK AVE                      000N        CARE OF             
MTR08572000001000000000000000RA              10015631    005802190000021900000570000003NN  NNW 000                       N    
RDG08572000WATRL000000004K00000000000000060000612032015111330N000000000000N21       000680400K 10000000010000000057           
CUS0857200000108028295007         JOHNSON ROBERT      6039 GWYNN OAK AVE                      000N        CARE OF             
MTR08572000001000000000000000RA              76348136    005802200000022000000350000003NN  NNW 000                       N    
RDG08572000WATRL000000004K00000000000000012000512032015111222N000300000010N21       000380400K 10000000010000000015           
CUS0857200000108028294000         OCONNOR JEAN-MARC   6041 GWYNN OAK AVE                      000N        CARE OF             
MTR08572000001000000000000000RA              29681365    005802210000022100000520000003NN  NNW 000                       N    
RDG08572000WATRL000000004K00000000000001710000412032015111144N000000000000N21       000610400K 10000000010000001694           
CUS0857200000108028293002         ELLIS HELEN P       6043 GWYNN OAK AVE                      000N        CARE OF             
MTR08572000001000000000000000RA              14905224    005802220000022200000310000003NN  NNW 000                       N    
RDG08572000WATRL000000004K00000000000000321000312032015111043N000000000000N21       000320400K 10000000010000000302           
CUS0857200000108028292004         JOHNSON DEBORAH R   6045 GWYNN OAK AVE                      000N        CARE OF             
MTR08572000001000000000000000RA              40047902    005802230000022300000520000003NN  NNW 000                       N    
RDG08572000WATRL000000004K00000000000002096000212032015111011N000000000000N21       001040400K 10000000010000002089           
CUS0857200000108028271008         STERLING ROBERT OLDE6047 GWYNN OAK AVE                      000N        CARE OF             
MTR08572000001000000000000000RA              27132557    005802240000022400000520000003NN  NNW 000                       N    
RDG08572000WATRL000000004K00000000000004616000112032015110827N000000000000N21       000000400K 10000000010000004585           
RTR08572000NN02240224000002240000000002240224000186NY022402240224002200090000000000000000000002    11092015NY020000 N         
RHD08576000NN02150215000002150000000002150215000281NY021502150215001300000000000000000000000002    11102015NY020000 N         
CUS0857600000108029335000         VIRGO GILBOURNE W   3054 ESSEX RD                           000N        CARE OF             
MTR08576000001000000000000000RA              01072042    005800010000000100000610000003NN  NNW 000                       N    
RDG08576000WATRL000000004K00000000000000556000112282015095617O000400000010N89       000000400K 10000000010000000550           
CUS0857600000108029336008         DAVENPORT JAMES T   3052 ESSEX RD                           000N        CARE OF             
MTR08576000001000000000000000RA              9684223     005800020000000200000570000003NN  NNW 000                       N    
RDG08576000WATRL000000004K00000000000007827000211302015090549N000000000010N40       001420400K 10000000010000007822           
CUS0857600000108029337006         OPHELIA M HORNE ETAL3050 ESSEX RD                           000N        CARE OF             
MTR08576000001000000000000000RA              9688486     005800030000000300000570000003NN  NNW 000                       N    
RDG08576000WATRL000000004K00000000000006008000311302015090629N000000000000N40       000400400K 10000000010000005922           
CUS0857600000108029338004         TONEY JAKE          3048 ESSEX RD                           000N        CARE OF             
MTR08576000001000000000000000RA              9688343     005800040000000400000570000003NN  NNW 000                       N    
RDG08576000WATRL000000004K00000000000000279000411302015090708N000000000000N40       000390400K 10000000010000000268           
CUS0857600000108029339002         BRICE VINCENT T     3046 ESSEX RD                           000N        CARE OF             
MTR08576000001000000000000000RA              78005731    005800050000000500000360000003NN  NNW 000                       N    
RDG08576000WATRL000000004K00000000000000041000511302015090836N000000000010N40       000880400K 10000000010000000000           
CUS0857600000108029340000         BILLY JACQUELINE    3044 ESSEX RD                           000N        CARE OF             
MTR08576000001000000000000000RA              78005732    005800060000000600000360000003NN  NNW 000                       N    
RDG08576000WATRL000000004K00000000000000008000611302015090932N000000000010N40       000560400K 10000000010000000000           
CUS0857600000108029341008         WILLIAMS ROBYN M    3042 ESSEX RD                           000N        CARE OF             
MTR08576000001000000000000000RA              19459336    005800070000000700000520000003NN  NNW 000                       N    
RDG08576000WATRL000000004K00000000000003102000711302015091028N000000000000N40       000560400K 10000000010000003093           
CUS0857600000108029342006         HUGHES KAY QUEEN    3040 ESSEX RD                           000N        CARE OF             
MTR08576000001000000000000000RA              99291074    005800080000000800000570000003NN  NNW 000                       N    
RDG08576000WATRL000000004K00000000000002773000811302015091128N000000000000N40       000600400K 10000000010000002721           
CUS0857600000108029343004         LOUIS BROMLEY       3038 ESSEX RD                           000N        CARE OF             
MTR08576000001000000000000000RA              78005733    005800090000000900000360000003NN  NNW 000                       N    
RDG08576000WATRL000000004K00000000000000008000911302015091212N000000000010N40       000440400K 10000000010000000000           
CUS0857600000108029344002         PATTERSON MELVIN L  3036 ESSEX RD                           000N        CARE OF             
MTR08576000001000000000000000RA              9690575     005800100000001000000570000003NN  NNW 000                       N    
RDG08576000WATRL000000004K00000000000006694001012282015095649O000000000010N89       000560400K 10000000010000006679           
CUS0857600000108029345009         FLOOD JAMES,JR      3034 ESSEX RD                           000N        CARE OF             
MTR08576000001000000000000000RA              24772548    005800110000001100000520000003NN  NNW 000                       N    
RDG08576000WATRL000000004K00000000000005168001111302015091348N000000000000N40       000400400K 10000000010000005142           
CUS0857600000108029346007         SCOTT SHANTHA A     3032 ESSEX RD                           000N        CARE OF             
MTR08576000001000000000000000RA              9688998     005800120000001200000570000003NN  NNW 000                       N    
RDG08576000WATRL000000004K00000000000007696001211302015091442N000000000000N40       000540400K 10000000010000007687           
CUS0857600000108029347005         RAYNARD L WHITE     3030 ESSEX RD                           000N        CARE OF             
MTR08576000001000000000000000RA              30514649    005800130000001300000520000003NN  NNW 000                       N    
RDG08576000WATRL000000004K00000000000004327001412282015095715O000000000010N89       000330400K 10000000010000004300           
CUS0857600000108029348003         DOROTHY REID        3028 ESSEX RD                           000N        CARE OF             
MTR08576000001000000000000000RA              01072820    005800140000001400000610000003NN  NNW 000                       N    
RDG08576000WATRL000000004K00000000000001090001311302015091518N000000000000N40       000360400K 10000000010000001074           
CUS0857600000108029349001         HAWKINS BRYAN M     3026 ESSEX RD                           000N        CARE OF             
MTR08576000001000000000000000RA              41086944    005800150000001500000520000003NN  NNW 000                       N    
RDG08576000WATRL000000004K00000000000002248001511302015091652N000000000000N40       000610400K 10000000010000002230           
CUS0857600000108029350009         WILLIE L SMITH      3024 ESSEX RD                           000N        CARE OF             
MTR08576000001000000000000000RA              35107064    005800160000001600000520000003NN  NNW 000                       N    
RDG08576000WATRL000000004K00000000000004302001611302015091712N000000000000N40       000200400K 10000000010000004284           
CUS0857600000108029351007         LORRAINE RANDOLPH-BE3022 ESSEX RD                           000N        CARE OF             
MTR08576000001000000000000000RA              39585761    005800170000001700000520000003NN  NNW 000                       N    
RDG08576000WATRL000000004K00000000000005177001711302015091757N000000000000N40       000450400K 10000000010000005171           
CUS0857600000108029352005         HICE BILLY JOE      3020 ESSEX RD                           000N        CARE OF             
MTR08576000001000000000000000RA              01072825    005800180000001800000610000003NN  NNW 000                       N    
RDG08576000WATRL000000004K00000000000001315001811302015091801N000000000000N40       000040400K 10000000010000001305           
CUS0857600000108029353003         PAYLOR LINDA D      3018 ESSEX RD                           000N        CARE OF             
MTR08576000001000000000000000RA              01072824    005800190000001900000610000003NN  NNW 000                       N    
RDG08576000WATRL000000004K00000000000000603001911302015091859N000000000000N40       000580400K 10000000010000000594           
CUS0857600000108029354001         JOHNS LAWRENCE M    3016 ESSEX RD                           000N        CARE OF             
MTR08576000001000000000000000RA              24772823    005800200000002000000520000003NN  NNW 000                       N    
RDG08576000WATRL000000004K00000000000004176002011302015091915N000000000000N40       000160400K 10000000010000004167           
CUS0857600000108029355008         RANSOM WILLIE,JR    3014 ESSEX RD                           000N        CARE OF             
MTR08576000001000000000000000RA              01072829    005800210000002100000610000003NN  NNW 000                       N    
RDG08576000WATRL000000004K00000000000000579002111302015092001N000000000000N40       000460400K 10000000010000000577           
CUS0857600000108029356006         ALFRED E GREGORY    3012 ESSEX RD                           000N        CARE OF             
MTR08576000001000000000000000RA              24231486    005800220000002200000520000003NN  NNW 000                       N    
RDG08576000WATRL000000004K00000000000004168002211302015092011N000000000000N40       000100400K 10000000010000004163           
CUS0857600000108029357004         SIRA,LLC            3010 ESSEX RD                           000N        CARE OF             
MTR08576000001000000000000000RA              24231484    005800230000002300000520000003NN  NNW 000                       N    
RDG08576000WATRL000000004K00000000000005280002311302015092050N000000000000N40       000390400K 10000000010000005268           
CUS0857600000108029358002         BARNES LAWRENCE S   3008 ESSEX RD                           000N        CARE OF             
MTR08576000001000000000000000RA              25782303    005800240000002400000520000003NN  NNW 000                       N    
RDG08576000WATRL000000004K00000000000003341002412282015095735O000000000010N89       000280400K 10000000010000003332           
CUS0857600000108029359000         JOHNSON GLENN       3006 ESSEX RD                           000N        CARE OF             
MTR08576000001000000000000000RA              24231485    005800250000002500000520000003NN  NNW 000                       N    
RDG08576000WATRL000000004K00000000000004252002511302015092149N000000000000N40       000310400K 10000000010000004241           
CUS0857600000108029360008         JUBILEE JAMES T,JR  3004 ESSEX RD                           000N        CARE OF             
MTR08576000001000000000000000RA              24231487    005800260000002600000520000003NN  NNW 000                       N    
RDG08576000WATRL000000004K00000000000005309002611302015092214N000000000000N40       000250400K 10000000010000005284           
CUS0857600000108029361006         THOMPSON ROBIN V    3002 ESSEX RD                           000N        CARE OF             
MTR08576000001000000000000000RA              25781488    005800270000002700000520000003NN  NNW 000                       N    
RDG08576000WATRL000000004K00000000000005416002711302015092306N000000000000N40       000520400K 10000000010000005387           
CUS0857600000108029363002         SRH FOX HAVEN LLC   3109 WINDSOR BLVD                       000N        CARE OF             
MTR08576000001000000000000000RA              18774630    005800280000002800000610000003NN  NNW 000                       N    
RDG08576000WATRL000000004K00000000000000000000000000000000000 000000000000U         000000400  10000000010000005317           
CUS0857600000108433489005         MARSHALL LARNETTE A 3 CRESTFORD CT                          000N        CARE OF             
MTR08576000001000000000000000RA              00166905    000100290000002900000570000003NN  NNW 000                       N    
RDG08576000WATRL000000004K00000000000000275002811302015092819N000000000000N40       003130400K 10000000010000000259           
CUS0857600000108433547000         BUTLER ANNA M       5 CRESTFORD CT                          000N        CARE OF             
MTR08576000001000000000000000RA              99409487    000100300000003000000570000003NN  NNW 000                       N    
RDG08576000WATRL000000004K00000000000000539002911302015092834N000000000000N40       000150400K 10000000010000000526           
CUS0857600000108433548008         THOMPSON DEREK A    7 CRESTFORD CT                          000N        CARE OF             
MTR08576000001000000000000000RA              99409486    000100310000003100000570000003NN  NNW 000                       N    
RDG08576000WATRL000000004K00000000000000441003011302015092838N000000000000N40       000040400K 10000000010000000438           
CUS0857600000108433549006         BAZEMORE YVETTE S   9 CRESTFORD CT                          000N        CARE OF             
MTR08576000001000000000000000RA              99409433    000100320000003200000570000003NN  NNW 000                       N    
RDG08576000WATRL000000004K00000000000000817003111302015092858N000000000000N40       000200400K 10000000010000000799           
CUS0857600000108433550004         KAMARA FANTA L      11 CRESTFORD CT                         000N        CARE OF             
MTR08576000001000000000000000RA              99409482    000100330000003300000570000003NN  NNW 000                       N    
RDG08576000WATRL000000004K00000000000000596003211302015092903N000000000000N40       000050400K 10000000010000000591           
CUS0857600000108433551002         JAMES WOMACK        13 CRESTFORD CT                         000N        CARE OF             
MTR08576000001000000000000000RA              99409481    000100340000003400000570000003NN  NNW 000                       N    
RDG08576000WATRL000000004K00000000000001170003311302015092923N000000000000N40       000200400K 10000000010000001140           
CUS0857600000108433490003         HARRIS TINA D       15 CRESTFORD CT                         000N        CARE OF             
MTR08576000001000000000000000RA              99409485    000100350000003500000570000003NN  NNW 000                       N    
RDG08576000WATRL000000004K00000000000001444003411302015092926N000000000000N40       000030400K 10000000010000001416           
CUS0857600000108433552000         BOYKIN LYNNE        17 CRESTFORD CT                         000N        CARE OF             
MTR08576000001000000000000000RA              99409484    000100360000003600000570000003NN  NNW 000                       N    
RDG08576000WATRL000000004K00000000000000713003511302015092943N000000000000N40       000170400K 10000000010000000704           
CUS0857600000108433553008         FOREMAN STEPHEN     19 CRESTFORD CT                         000N        CARE OF             
MTR08576000001000000000000000RA              99409488    000100370000003700000570000003NN  NNW 000                       N    
RDG08576000WATRL000000004K00000000000000907003612282015095800O000400000010N89       000090400K 10000000010000000903           
