FHDNNNN056011815011815011873N                                                                                           035763
RHD08543800NN02190219000002190000000002190219000197NY021902190219000000000000000000000000000002    10282014NY020000 N         
CUS0854380000108016753009         ALTSHULER JILL R    412 GRALAN RD                           000N        CARE OF             
MTR08543800001000000000000000RA              44176021    005800010000000100000520000003NN  NNW 000                       N    
RDG08543800WATRL000000004K00000000000001930000111072014074958N000300000010N88       000000400K 10000000010000001898           
CUS0854380000108016754007         MANN NANCY LEE LINDE410 GRALAN RD                           000N        CARE OF             
MTR08543800001000000000000000RA              23842332    005800020000000200000520000003NN  NNW 000                       N    
RDG08543800WATRL000000004K00000000000005371000211072014075144N000000000000N88       001060400K 10000000010000005350           
CUS0854380000108016755004         WINTERS MARK        408 GRALAN RD                           000N        CARE OF             
MTR08543800001000000000000000RA              11336388    005800030000000300000570000003NN  NNW 000                       N    
RDG08543800WATRL000000004K00000000000003996000311072014075235N000000000000N88       000510400K 10000000010000003983           
CUS0854380000108016756002         RUANE SEAN F        406 GRALAN RD                           000N        CARE OF             
MTR08543800001000000000000000RA              23842489    005800040000000400000520000003NN  NNW 000                       N    
RDG08543800WATRL000000004K00000000000003546000411072014075322N000000000000N88       000470400K 10000000010000003524           
CUS0854380000108016757000         EVANS TRENT HOLLIS  404 GRALAN RD                           000N        CARE OF             
MTR08543800001000000000000000RA              10024026    005800050000000500000570000003NN  NNW 000                       N    
RDG08543800WATRL000000004K00000000000000104000511072014075354N000000000000N88       000320400K 10000000010000000084           
CUS0854380000108016758008         STROCKBINE CALAB S  402 GRALAN RD                           000N        CARE OF             
MTR08543800001000000000000000RA              23644585    005800060000000600000520000003NN  NNW 000                       N    
RDG08543800WATRL000000004K00000000000004618000611072014075452N000000000000N88       000580400K 10000000010000004601           
CUS0854380000108016759006         STEPHEN ROBERTA K   400 GRALAN RD                           000N        CARE OF             
MTR08543800001000000000000000RA              44176047    005800070000000700000520000003NN  NNW 000                       N    
RDG08543800WATRL000000004K00000000000001122000711072014075552N000000000000N88       000600400K 10000000010000001118           
CUS0854380000108016760004         KELLY N MYERS       324 GRALAN RD                           000N        CARE OF             
MTR08543800001000000000000000RA              46880568    005800080000000800000520000003NN  NNW 000                       N    
RDG08543800WATRL000000004K00000000000001701000811072014075658N000000000000N88       000660400K 10000000010000001690           
CUS0854380000108016761002         DORNBUSCH JOHN T    322 GRALAN RD                           000N        CARE OF             
MTR08543800001000000000000000RA              32898944    005800090000000900000520000003NN  NNW 000                       N    
RDG08543800WATRL000000004K00000000000001606000911072014075727N000000000010N88       000290400K 10000000010000001597           
CUS0854380000108016762000         TOLSON DESA         320 GRALAN RD                           000N        CARE OF             
MTR08543800001000000000000000RA              23644574    005800100000001000000520000003NN  NNW 000                       N    
RDG08543800WATRL000000004K00000000000003695001011072014075758N000000000000N88       000310400K 10000000010000003682           
CUS0854380000108016763008         WHIPPS SAMUEL G     318 GRALAN RD                           000N        CARE OF             
MTR08543800001000000000000000RA              35104844    005800110000001100000520000003NN  NNW 000                       N    
RDG08543800WATRL000000004K00000000000001904001111072014075839N000000000000N88       000410400K 10000000010000001898           
CUS0854380000108016764006         MORGAN CHAD M       316 GRALAN RD                           000N        CARE OF             
MTR08543800001000000000000000RA              26016155    005800120000001200000520000003NN  NNW 000                       N    
RDG08543800WATRL000000004K00000000000003139001211072014075913N000000000000N88       000340400K 10000000010000003129           
CUS0854380000108016765003         EHRMAN CHARLES W    314 GRALAN RD                           000N        CARE OF             
MTR08543800001000000000000000RA              35104847    005800130000001300000520000003NN  NNW 000                       N    
RDG08543800WATRL000000004K00000000000002315001311072014075954N000000000000N88       000410400K 10000000010000002297           
CUS0854380000108016766001         KREPS CARL A        312 GRALAN RD                           000N        CARE OF             
MTR08543800001000000000000000RA              10014868    005800140000001400000570000003NN  NNW 000                       N    
RDG08543800WATRL000000004K00000000000000259001411072014080041N000000000000N88       000470400K 10000000010000000248           
CUS0854380000108016767009         DAVIS MARY ANNE     310 GRALAN RD                           000N        CARE OF             
MTR08543800001000000000000000RA              01078120    005800150000001500000610000003NN  NNW 000                       N    
RDG08543800WATRL000000004K00000000000001112001511072014080222N000000000000N88       001010400K 10000000010000001098           
CUS0854380000108016768007         WHARRY E GORDON     308 GRALAN RD                           000N        CARE OF             
MTR08543800001000000000000000RA              35104845    005800160000001600000520000003NN  NNW 000                       N    
RDG08543800WATRL000000004K00000000000001410001611072014080252N000000000000N88       000300400K 10000000010000001410           
CUS0854380000108016769005         ANDERSON LEE C,3RD  306 GRALAN RD                           000N        CARE OF             
MTR08543800001000000000000000RA              32898008    005800170000001700000520000003NN  NNW 000                       N    
RDG08543800WATRL000000004K00000000000004584001711072014080326N000000000000N88       000340400K 10000000010000004571           
CUS0854380000108016770003         REYMANN JOSEPH H    304 GRALAN RD                           000N        CARE OF             
MTR08543800001000000000000000RA              19557773    005800180000001800000520000003NN  NNW 000                       N    
RDG08543800WATRL000000004K00000000000005195001811072014080406N000000000000N88       000400400K 10000000010000005176           
CUS0854380000108016771001         SIMPSON KEVIN M     302 GRALAN RD                           000N        CARE OF             
MTR08543800001000000000000000RA              26010132    005800190000001900000520000003NN  NNW 000                       N    
RDG08543800WATRL000000004K00000000000003048001911072014080525N000000000000N88       000790400K 10000000010000002999           
CUS0854380000108016772009         CALLANAN JOHN F     2026 EDMONDSON AVE                      000N        CARE OF             
MTR08543800001000000000000000RA              46888838    005800200000002000000520000003NN  NNW 000                       N    
RDG08543800WATRL000000004K00000000000001722002011072014080626N000000000000N88       000610400K 10000000010000001713           
CUS0854380000108016773007         QUIRK JOHN F        2028 EDMONDSON AVE                      000N        CARE OF             
MTR08543800001000000000000000RA              30514407    005800210000002100000520000003NN  NNW 000                       N    
RDG08543800WATRL000000004K00000000000002903002111072014080703N000000000000N88       000370400K 10000000010000002886           
CUS0854380000108016774005         KINGSBURY MARK W    2034 EDMONDSON AVE                      000N        CARE OF             
MTR08543800001000000000000000RA              01086070    005800220000002200000610000003NN  NNW 000                       N    
RDG08543800WATRL000000004K00000000000001952002211072014080742N000000000000N88       000390400K 10000000010000001923           
CUS0854380000108015766002         BURK MICHAEL S      2038 EDMONDSON AVE                      000N        CARE OF             
MTR08543800001000000000000000RA              01070571    005800230000002300000610000003NN  NNW 000                       N    
RDG08543800WATRL000000004K00000000000001876002311072014080840N000000000000N88       000580400K 10000000010000001857           
CUS0854380000108016775002         MILANICZ MELVIN P   303 GRALAN RD                           000N        CARE OF             
MTR08543800001000000000000000RA              01070576    005800240000002400000610000003NN  NNW 000                       N    
RDG08543800WATRL000000004K00000000000000515002411072014081119N000000000000N88       001590400K 10000000010000000507           
CUS0854380000108016776000         CASHOUR ALBERT M    305 GRALAN RD                           000N        CARE OF             
MTR08543800001000000000000000RA              38985600    005800250000002500000520000003NN  NNW 000                       N    
RDG08543800WATRL000000004K00000000000003015002511072014081155N000000000000N88       000360400K 10000000010000002991           
CUS0854380000108016777008         TAYLOR BRADLEY SCOTT307 GRALAN RD                           000N        CARE OF             
MTR08543800001000000000000000RA              11429034    005800260000002600000570000003NN  NNW 000                       N    
RDG08543800WATRL000000004K00000000000003673002611072014081227N000000000000N88       000320400K 10000000010000003654           
CUS0854380000108016778006         BRENNAN EDWARD X    309 GRALAN RD                           000N        CARE OF             
MTR08543800001000000000000000RA              01070574    005800270000002700000610000003NN  NNW 000                       N    
RDG08543800WATRL000000004K00000000000001204002711072014081306N000000000000N88       000390400K 10000000010000001193           
CUS0854380000108016779004         BOECKER ALBERT C    311 GRALAN RD                           000N        CARE OF             
MTR08543800001000000000000000RA              38985612    005800280000002800000520000003NN  NNW 000                       N    
RDG08543800WATRL000000004K00000000000002424002811072014081344N000000000000N88       000380400K 10000000010000002402           
CUS0854380000108016780002         SIMON NICOLE L      313 GRALAN RD                           000N        CARE OF             
MTR08543800001000000000000000RA              33078120    005800290000002900000520000003NN  NNW 000                       N    
RDG08543800WATRL000000004K00000000000001960002911072014081425N000000000000N88       000410400K 10000000010000001949           
CUS0854380000108016781000         WINTERS DENNIS      315 GRALAN RD                           000N        CARE OF             
MTR08543800001000000000000000RA              44176046    005800300000003000000520000003NN  NNW 000                       N    
RDG08543800WATRL000000004K00000000000001473003011072014081504N000000000000N88       000390400K 10000000010000001460           
CUS0854380000108016782008         HESS JONATHAN R     317 GRALAN RD                           000N        CARE OF             
MTR08543800001000000000000000RA              39291680    005800310000003100000520000003NN  NNW 000                       N    
RDG08543800WATRL000000004K00000000000002441003111072014081608N000000000000N88       000640400K 10000000010000002422           
CUS0854380000108016783006         LAURA E LEMIRE      319 GRALAN RD                           000N        CARE OF             
MTR08543800001000000000000000RA              46880570    005800320000003200000520000003NN  NNW 000                       N    
RDG08543800WATRL000000004K00000000000000982003211072014081700N000000000000N88       000520400K 10000000010000000973           
CUS0854380000108016784004         BRADY ALICIA M      321 GRALAN RD                           000N        CARE OF             
MTR08543800001000000000000000RA              44176049    005800330000003300000520000003NN  NNW 000                       N    
RDG08543800WATRL000000004K00000000000001866003311072014081741N000400000010N88       000410400K 10000000010000001857           
CUS0854380000108016785001         HISSEM LESLIE ANN   323 GRALAN RD                           000N        CARE OF             
MTR08543800001000000000000000RA              46880348    005800340000003400000520000003NN  NNW 000                       N    
RDG08543800WATRL000000004K00000000000001819003411072014081840N000000000000N88       000590400K 10000000010000001805           
CUS0854380000108016786009         MOYLAN MARTIN M     401 GRALAN RD                           000N        CARE OF             
MTR08543800001000000000000000RA              23842493    005800350000003500000520000003NN  NNW 000                       N    
RDG08543800WATRL000000004K00000000000002468003511072014081952N000000000000N88       000720400K 10000000010000002458           
CUS0854380000108016787007         WILLIAMS HILDA P    403 GRALAN RD                           000N        CARE OF             
MTR08543800001000000000000000RA              01070575    005800360000003600000610000003NN  NNW 000                       N    
RDG08543800WATRL000000004K00000000000000293003611072014082026N000000000000N88       000340400K 10000000010000000288           
CUS0854380000108016788005         JOHN F KNAUER       405 GRALAN RD                           000N        CARE OF             
MTR08543800001000000000000000RA              01070562    005800370000003700000610000003NN  NNW 000                       N    
RDG08543800WATRL000000004K00000000000002152003711072014082106N000000000000N88       000400400K 10000000010000002135           
CUS0854380000108016789003         COLE GERALD STEPHEN 407 GRALAN RD                           000N        CARE OF             
MTR08543800001000000000000000RA              44176041    005800380000003800000520000003NN  NNW 000                       N    
RDG08543800WATRL000000004K00000000000002746003811072014082225N000000000000N88       000790400K 10000000010000002727           
CUS0854380000108016790001         PILACHOWSKI LOIS A,T409 GRALAN RD                           000N        CARE OF             
MTR08543800001000000000000000RA              01070579    005800390000003900000610000003NN  NNW 000                       N    
RDG08543800WATRL000000004K00000000000000606003911072014082311N000000000000N88       000460400K 10000000010000000600           
CUS0854380000108016791009         BILL JEFFREY F      411 GRALAN RD                           000N        CARE OF             
MTR08543800001000000000000000RA              48586866    005800400000004000000520000003NN  NNW 000                       N    
RDG08543800WATRL000000004K00000000000001746004011072014082343N000000000000N88       000320400K 10000000010000001728           
CUS0854380000108016792007         LUKE W BROADWATER   413 GRALAN RD                           000N        CARE OF             
MTR08543800001000000000000000RA              01078124    005800410000004100000610000003NN  NNW 000                       N    
RDG08543800WATRL000000004K00000000000000809004111072014082503N000000000000N88       000800400K 10000000010000000790           
CUS0854380000108016793005         EDWARDS JAMES RUSHFO2013 OLD FREDERICK RD                   000N        CARE OF             
MTR08543800001000000000000000RA              01071870    005800420000004200000610000003NN  NNW 000                       N    
RDG08543800WATRL000000004K00000000000001412004211072014082543N000000000000N88       000400400K 10000000010000001405           
CUS0854380000108016794003         JOHANSON CHRISTOPHER2011 OLD FREDERICK RD                   000N        CARE OF             
MTR08543800001000000000000000RA              22610386    005800430000004300000520000003NN  NNW 000                       N    
RDG08543800WATRL000000004K00000000000006345014511122014104225N000000000000U88       001780400K 10000000010000006284           
CUS0854380000108016795000         KUNKEL ALAN P       2007 OLD FREDERICK RD                   000N        CARE OF             
MTR08543800001000000000000000RA              24773688    005800440000004400000520000003NN  NNW 000                       N    
RDG08543800WATRL000000004K00000000000001847014611122014104313N000000000000U88       000480400K 10000000010000001844           
CUS0854380000108016679006         PERARO SALVATOR V   2002 OLD FREDERICK RD                   000N        CARE OF             
MTR08543800001000000000000000RA              46886911    005800450000004500000520000003NN  NNW 000                       N    
RDG08543800WATRL000000004K00000000000000869014911122014104757N000000000000U88       001730400K 10000000010000000862           
CUS0854380000108016680004         WEST AMY B          2004 OLD FREDERICK RD                   000N        CARE OF             
MTR08543800001000000000000000RA              14912205    005800460000004600000310000003NN  NNW 000                       N    
RDG08543800WATRL000000004K00000000000000472015011122014104939N000000000000U88       001020400K 10000000010000000452           
CUS0854380000108421810006         SELL ANNA L         5 UPMAN CT                              000N        CARE OF             
MTR08543800001000000000000000RA              50786904    005800470000004700000520000003NN  NNW 000                       N    
RDG08543800WATRL000000004K00000000000000949015111122014105059N000000000000U88       000800400K 10000000010000000931           
CUS0854380000108421811004         MUNEEM SADIA C      7 UPMAN CT                              000N        CARE OF             
MTR08543800001000000000000000RA              41074916    005800480000004800000520000003NN  NNW 000                       N    
RDG08543800WATRL000000004K00000000000001699015211122014105138N000100000010U88       000390400K 10000000010000001699           
CUS0854380000108421812002         SAMBHI SOHAN L      9 UPMAN CT                              000N        CARE OF             
MTR08543800001000000000000000RA              50791182    005800490000004900000520000003NN  NNW 000                       N    
RDG08543800WATRL000000004K00000000000005628015311122014105213N000000000000U88       000350400K 10000000010000005598           
CUS0854380000108421813000         LYONS KEVIN P       11 UPMAN CT                             000N        CARE OF             
MTR08543800001000000000000000RA              50787174    005800500000005000000520000003NN  NNW 000                       N    
RDG08543800WATRL000000004K00000000000001399015411122014105242N000000000000U88       000290400K 10000000010000001385           
CUS0854380000108421814008         ALINSOD GEORGE F    15 UPMAN CT                             000N        CARE OF             
MTR08543800001000000000000000RA              44086886    005800510000005100000520000003NN  NNW 000                       N    
RDG08543800WATRL000000004K00000000000001374015511122014105317N000000000000U88       000350400K 10000000010000001364           
CUS0854380000108421683007         SHAH RAJESH M       17 UPMAN CT                             000N        CARE OF             
MTR08543800001000000000000000RA              50480131    005800520000005200000520000003NN  NNW 000                       N    
RDG08543800WATRL000000004K00000000000003460015611122014105355N000000000000U88       000380400K 10000000010000003427           
CUS0854380000108421815005         WIGGINS WANDA M     19 UPMAN CT                             000N        CARE OF             
MTR08543800001000000000000000RA              50791183    005800530000005300000520000003NN  NNW 000                       N    
RDG08543800WATRL000000004K00000000000001710015711122014105433N000000000000U88       000380400K 10000000010000001681           
CUS0854380000108421816003         QAYUM ABDUL M       21 UPMAN CT                             000N        CARE OF             
MTR08543800001000000000000000RA              50791154    005800540000005400000520000003NN  NNW 000                       N    
RDG08543800WATRL000000004K00000000000003327015811122014105506N000000000000U88       000330400K 10000000010000003327           
CUS0854380000108421817001         DODGE ROBERT B      23 UPMAN CT                             000N        CARE OF             
MTR08543800001000000000000000RA              50791180    005800550000005500000520000003NN  NNW 000                       N    
RDG08543800WATRL000000004K00000000000001293015911122014105546N000000000000U88       000400400K 10000000010000001281           
CUS0854380000108421818009         RANA WAJID I        25 UPMAN CT                             000N        CARE OF             
MTR08543800001000000000000000RA              52285301    005800560000005600000520000003NN  NNW 000                       N    
RDG08543800WATRL000000004K00000000000001617016011122014105614N000000000000U88       000280400K 10000000010000001593           
CUS0854380000108421819007         ELLWOOD BUILDING COR27 UPMAN CT                             000N        CARE OF             
MTR08543800001000000000000000RA              50481439    005800570000005700000520000003NN  NNW 000                       N    
RDG08543800WATRL000000004K00000000000001686016111122014105651N000000000000U88       000370400K 10000000010000001668           
CUS0854380000108421820005         ROMERO MARIO M      29 UPMAN CT                             000N        CARE OF             
MTR08543800001000000000000000RA              46888063    005800580000005800000520000003NN  NNW 000                       N    
RDG08543800WATRL000000004K00000000000002781016211122014105725N000000000000U88       000340400K 10000000010000002726           
CUS0854380000108421809008         WELLS FARGO BANK N.A28 UPMAN CT                             000N        CARE OF             
MTR08543800001000000000000000RA              50787735    005800590000005900000520000003NN  NNW 000                       N    
RDG08543800WATRL000000004K00000000000003046016311122014105828N000100000010U88       000630400K 10000000010000003046           
CUS0854380000108421808000         NGUYEN TUYET T      26 UPMAN CT                             000N        CARE OF             
MTR08543800001000000000000000RA              10017460    005800600000006000000570000003NN  NNW 000                       N    
RDG08543800WATRL000000004K00000000000000428016411122014105858N000000000000U88       000300400K 10000000010000000393           
CUS0854380000108421807002         MISTRY ASHOK KUMAR  24 UPMAN CT                             000N        CARE OF             
MTR08543800001000000000000000RA              50789089    005800610000006100000520000003NN  NNW 000                       N    
RDG08543800WATRL000000004K00000000000001260016511122014105935N000400000010U88       000370400K 10000000010000001258           
CUS0854380000108421806004         STEHLIK MELONY ANN  22 UPMAN CT                             000N        CARE OF             
MTR08543800001000000000000000RA              76348382    005800620000006200000350000003NN  NNW 000                       N    
RDG08543800WATRL000000004K00000000000000072016611122014110006N000000000000U88       000310400K 10000000010000000045           
CUS0854380000108421805006         FOLKS ALBERT L, JR  20 UPMAN CT                             000N        CARE OF             
MTR08543800001000000000000000RA              50791156    005800630000006300000520000003NN  NNW 000                       N    
RDG08543800WATRL000000004K00000000000001720016711122014110039N000000000000U88       000330400K 10000000010000001697           
CUS0854380000108421804009         HOPKINS DOROTHY K   18 UPMAN CT                             000N        CARE OF             
MTR08543800001000000000000000RA              01107251    005800640000006400000610000003NN  NNW 000                       N    
RDG08543800WATRL000000004K00000000000000559016811122014110113N000000000000U88       000340400K 10000000010000000540           
CUS0854380000108421803001         BLAIR TANEKA C      16 UPMAN CT                             000N        CARE OF             
MTR08543800001000000000000000RA              50787172    005800650000006500000520000003NN  NNW 000                       N    
RDG08543800WATRL000000004K00000000000000763016911122014110146N000000000000U88       000330400K 10000000010000000741           
CUS0854380000108421802003         GREENE PRESTON R    14 UPMAN CT                             000N        CARE OF             
MTR08543800001000000000000000RA              50787103    005800660000006600000520000003NN  NNW 000                       N    
RDG08543800WATRL000000004K00000000000002311017011122014110223N000000000000U88       000370400K 10000000010000002285           
CUS0854380000108421801005         TRINITY METHODIST CH12 UPMAN CT                             000N        CARE OF             
MTR08543800001000000000000000RA              50480763    005800670000006700000520000003NN  NNW 000                       N    
RDG08543800WATRL000000004K00000000000001148017111122014110259N000000000000U88       000360400K 10000000010000001137           
CUS0854380000108421800007         EMANUEL CHRISTOPHER 10 UPMAN CT                             000N        CARE OF             
MTR08543800001000000000000000RA              50791181    005800680000006800000520000003NN  NNW 000                       N    
RDG08543800WATRL000000004K00000000000001729017211122014110333N000000000000U88       000340400K 10000000010000001707           
CUS0854380000108421799001         WU KAN HUA          8 UPMAN CT                              000N        CARE OF             
MTR08543800001000000000000000RA              50787736    005800690000006900000520000003NN  NNW 000                       N    
RDG08543800WATRL000000004K00000000000000876017311122014110407N000000000000U88       000340400K 10000000010000000852           
CUS0854380000108421798003         BURKE MARTIN J JR   6 UPMAN CT                              000N        CARE OF             
MTR08543800001000000000000000RA              50787163    005800700000007000000520000003NN  NNW 000                       N    
RDG08543800WATRL000000004K00000000000001131017411122014110440N000000000000U88       000330400K 10000000010000001113           
CUS0854380000108421685002         GLAESER SHARON F    4 UPMAN CT                              000N        CARE OF             
MTR08543800001000000000000000RA              50480171    005800710000007100000520000003NN  NNW 000                       N    
RDG08543800WATRL000000004K00000000000000949017511122014110512N000000000000U88       000320400K 10000000010000000941           
CUS0854380000108421684005         BITSUAMLAK ALAZAR   2 UPMAN CT                              000N        CARE OF             
MTR08543800001000000000000000RA              50480133    005800720000007200000520000003NN  NNW 000                       N    
RDG08543800WATRL000000004K00000000000001348017611122014110542N000000000000U88       000300400K 10000000010000001335           
CUS0854380000108016681002         LAUTERBACH DONALD C 2010 OLD FREDERICK RD                   000N        CARE OF             
MTR08543800001000000000000000RA              33079953    005800730000007300000520000003NN  NNW 000                       N    
RDG08543800WATRL000000004K00000000000003953014711122014104427N000000000000U88       000740400K 10000000010000003918           
CUS0854380000108016682000         MARTIN GAIL L       2012 OLD FREDERICK RD                   000N        CARE OF             
MTR08543800001000000000000000RA              41086222    005800740000007400000520000003NN  NNW 000                       N    
RDG08543800WATRL000000004K00000000000001510014811122014104504N000000000000U88       000370400K 10000000010000001505           
CUS0854380000108016683008         WALKER JOSEPH D     2014 OLD FREDERICK RD                   000N        CARE OF             
MTR08543800001000000000000000RA              26005683    005800750000007500000520000003NN  NNW 000                       N    
RDG08543800WATRL000000004K00000000000004441017711122014111047N000000000000U88       003050400K 10000000010000004426           
CUS0854380000108016684006         MIDDLETON TIM D     603 WOODSHURST WAY                      000N        CARE OF             
MTR08543800001000000000000000RA              11336457    005800760000007600000570000003NN  NNW 000                       N    
RDG08543800WATRL000000004K00000000000006510007211122014091900N000000000000U88       008880400K 10000000010000006486           
CUS0854380000108016685003         BOWERS DONALD L     605 WOODSHURST WAY                      000N        CARE OF             
MTR08543800001000000000000000RA              11336759    005800770000007700000570000003NN  NNW 000                       N    
RDG08543800WATRL000000004K00000000000003098007311122014091939N000000000000U88       000390400K 10000000010000003087           
CUS0854380000108016686001         WILBOURNE ELAINE W  607 WOODSHURST WAY                      000N        CARE OF             
MTR08543800001000000000000000RA              11336378    005800780000007800000570000003NN  NNW 000                       N    
RDG08543800WATRL000000004K00000000000002828007411122014092011N000000000000U88       000320400K 10000000010000002818           
CUS0854380000108016687009         TIPPETT DAWN A      1913 NORHURST WAY N                     000N        CARE OF             
MTR08543800001000000000000000RA              25783358    005800790000007900000520000003NN  NNW 000                       N    
RDG08543800WATRL000000004K00000000000003179000111122014082823N000000000000U88       000000400K 10000000010000003164           
CUS0854380000108016688007         HANI ABDERRAHIM EL  1911 NORHURST WAY N                     000N        CARE OF             
MTR08543800001000000000000000RA              11427899    005800800000008000000570000003NN  NNW 000                       N    
RDG08543800WATRL000000004K00000000000003488000211122014082850N000000000000U88       000270400K 10000000010000003472           
CUS0854380000108016689005         SAUNDERS ANISSA     1909 NORHURST WAY N                     000N        CARE OF             
MTR08543800001000000000000000RA              11428450    005800810000008100000570000003NN  NNW 000                       N    
RDG08543800WATRL000000004K00000000000005284000311122014082932N000000000000U88       000420400K 10000000010000005265           
CUS0854380000108016690003         JANOWIAK ROBERT M   1907 NORHURST WAY N                     000N        CARE OF             
MTR08543800001000000000000000RA              11427772    005800820000008200000570000003NN  NNW 000                       N    
RDG08543800WATRL000000004K00000000000005437000411122014083006N000000000000U88       000340400K 10000000010000005421           
CUS0854380000108381449001         BENFOUZI HAJJA H    1903 NORHURST WAY N                     000N        CARE OF             
MTR08543800001000000000000000RA              33734334    005800830000008300000520000003NN  NNW 000                       N    
RDG08543800WATRL000000004K00000000000003124000511122014083054N000000000000U88       000480400K 10000000010000003104           
CUS0854380000108381455008         BURKE MARTIN JOSEPH,1901 NORHURST WAY N                     000N        CARE OF             
MTR08543800001000000000000000RA              33081836    005800840000008400000520000003NN  NNW 000                       N    
RDG08543800WATRL000000004K00000000000003559000611122014083203N000000000000U88       000690400K 10000000010000003539           
CUS0854380000108381452005         LONG MATTHEW R      1899 NORHURST WAY N                     000N        CARE OF             
MTR08543800001000000000000000RA              33082539    005800850000008500000520000003NN  NNW 000                       N    
RDG08543800WATRL000000004K00000000000003479000711122014083244N000000000000U88       000410400K 10000000010000003465           
CUS0854380000108381456006         RICHARD SNADER      1897 NORHURST WAY N                     000N        CARE OF             
MTR08543800001000000000000000RA              33081839    005800860000008600000520000003NN  NNW 000                       N    
RDG08543800WATRL000000004K00000000000003161000811122014083321N000000000000U88       000370400K 10000000010000003149           
CUS0854380000108381563009         MCCLUNG MANDY L     1895 NORHURST WAY N                     000N        CARE OF             
MTR08543800001000000000000000RA              35099721    005800870000008700000520000003NN  NNW 000                       N    
RDG08543800WATRL000000004K00000000000003392000911122014083409N000000000000U88       000480400K 10000000010000003385           
CUS0854380000108381562001         POLLON DONNA L      1893 NORHURST WAY N                     000N        CARE OF             
MTR08543800001000000000000000RA              35099720    005800880000008800000520000003NN  NNW 000                       N    
RDG08543800WATRL000000004K00000000000003038001011122014083439N000000000000U88       000300400K 10000000010000003030           
CUS0854380000108381561003         CUNNINGHAM PAUL     1891 NORHURST WAY N                     000N        CARE OF             
MTR08543800001000000000000000RA              35099612    005800890000008900000520000003NN  NNW 000                       N    
RDG08543800WATRL000000004K00000000000002891001111122014083443N000000000000U88       000040400K 10000000010000002877           
CUS0854380000108381448003         JACKSON LISA ANTOINE1889 NORHURST WAY N                     000N        CARE OF             
MTR08543800001000000000000000RA              35099722    005800900000009000000520000003NN  NNW 000                       N    
RDG08543800WATRL000000004K00000000000004292001211122014083514N000000000000U88       000310400K 10000000010000004271           
CUS0854380000108381447005         TARSIA DONNA ANN    1887 NORHURST WAY N                     000N        CARE OF             
MTR08543800001000000000000000RA              35099718    005800910000009100000520000003NN  NNW 000                       N    
RDG08543800WATRL000000004K00000000000002499001311122014083520N000000000000U88       000060400K 10000000010000002491           
CUS0854380000108381446007         MECHTAT LHOUSSAIN   1885 NORHURST WAY N                     000N        CARE OF             
MTR08543800001000000000000000RA              01090061    005800920000009200000610000003NN  NNW 000                       N    
RDG08543800WATRL000000004K00000000000001147001411122014083553N000000000000U88       000330400K 10000000010000001129           
CUS0854380000108381445009         TAYLOR MICHAEL WAYNE1883 NORHURST WAY N                     000N        CARE OF             
MTR08543800001000000000000000RA              01090063    005800930000009300000610000003NN  NNW 000                       N    
RDG08543800WATRL000000004K00000000000001192001511122014083609N000000000011U88       000100400K 10000000010000001177           
CUS0854380000108381450009         YIM HANNA H         1881 NORHURST WAY N                     000N        CARE OF             
MTR08543800001000000000000000RA              35110320    005800940000009400000520000003NN  NNW 000                       N    
RDG08543800WATRL000000004K00000000000002416001611122014083639N000000000000U88       000300400K 10000000010000002396           
CUS0854380000108381444002         SAFFORD SUSAN E     1879 NORHURST WAY N                     000N        CARE OF             
MTR08543800001000000000000000RA              35110319    005800950000009500000520000003NN  NNW 000                       N    
RDG08543800WATRL000000004K00000000000002517001711122014083642N000000000000U88       000030400K 10000000010000002502           
CUS0854380000108381443004         NICKLAS JEANNE      1877 NORHURST WAY N                     000N        CARE OF             
MTR08543800001000000000000000RA              35110318    005800960000009600000520000003NN  NNW 000                       N    
RDG08543800WATRL000000004K00000000000003635001811122014083707N000000000000U88       000250400K 10000000010000003623           
CUS0854380000108381442006         TERRY MARY K        1875 NORHURST WAY N                     000N        CARE OF             
MTR08543800001000000000000000RA              35110317    005800970000009700000520000003NN  NNW 000                       N    
RDG08543800WATRL000000004K00000000000004396001911122014083716N000100000010U88       000090400K 10000000010000004396           
CUS0854380000108381441008         TRAYNHAM WENDELL J  1873 NORHURST WAY N                     000N        CARE OF             
MTR08543800001000000000000000RA              35110316    005800980000009800000520000003NN  NNW 000                       N    
RDG08543800WATRL000000004K00000000000003096002011122014083747N000000000000U88       000310400K 10000000010000003077           
CUS0854380000108381440000         LAUTERBACH JUDITH K 1871 NORHURST WAY N                     000N        CARE OF             
MTR08543800001000000000000000RA              35119580    005800990000009900000520000003NN  NNW 000                       N    
RDG08543800WATRL000000004K00000000000002494002111122014083752N000000000000U88       000050400K 10000000010000002489           
CUS0854380000108381439002         MCNEAL DAVID K      1869 NORHURST WAY N                     000N        CARE OF             
MTR08543800001000000000000000RA              35119581    005801000000010000000520000003NN  NNW 000                       N    
RDG08543800WATRL000000004K00000000000001465002211122014083831N000000000000U88       000390400K 10000000010000001440           
CUS0854380000108381438004         ROMANG DINA E       1867 NORHURST WAY N                     000N        CARE OF             
MTR08543800001000000000000000RA              10014703    005801010000010100000570000003NN  NNW 000                       N    
RDG08543800WATRL000000004K00000000000000543002311122014083835N000000000000U88       000040400K 10000000010000000530           
CUS0854380000108381437006         SHAPIRO LAUREN R    1865 NORHURST WAY N                     000N        CARE OF             
MTR08543800001000000000000000RA              35119586    005801020000010200000520000003NN  NNW 000                       N    
RDG08543800WATRL000000004K00000000000001224002411122014083901N000000000000U88       000260400K 10000000010000001216           
CUS0854380000108381436008         TWARDOWICZ JOHN D   1863 NORHURST WAY N                     000N        CARE OF             
MTR08543800001000000000000000RA              35119585    005801030000010300000520000003NN  NNW 000                       N    
RDG08543800WATRL000000004K00000000000002430002511122014083905N000000000000U88       000040400K 10000000010000002427           
CUS0854380000108381435000         OSWALD WOODIN H,JR  1861 NORHURST WAY N                     000N        CARE OF             
MTR08543800001000000000000000RA              35119590    005801040000010400000520000003NN  NNW 000                       N    
RDG08543800WATRL000000004K00000000000002499002611122014083934N000000000000U88       000290400K 10000000010000002486           
CUS0854380000108381434003         BONITA BISSONETTE   1859 NORHURST WAY N                     000N        CARE OF             
MTR08543800001000000000000000RA              35119583    005801050000010500000520000003NN  NNW 000                       N    
RDG08543800WATRL000000004K00000000000002526002711122014083937N000000000000U88       000030400K 10000000010000002511           
CUS0854380000108385817005         BHATT RAJESH G      2 WINEHURST RD                          000N        CARE OF             
MTR08543800001000000000000000RA              36690369    005801060000010600000520000003NN  NNW 000                       N    
RDG08543800WATRL000000004K00000000000003008002811122014084035N000000000000U88       000580400K 10000000010000002990           
CUS0854380000108385816007         DULANEY STATION COMM4 WINEHURST RD                          000N        CARE OF             
MTR08543800001000000000000000RA              36690462    005801070000010700000520000003NN  NNW 000                       N    
RDG08543800WATRL000000004K00000000000003878002911122014084056N000000000000U88       000210400K 10000000010000003862           
CUS0854380000108385815009         HOMES FOR ARUNDEL IN6 WINEHURST RD                          000N        CARE OF             
MTR08543800001000000000000000RA              36690465    005801080000010800000520000003NN  NNW 000                       N    
RDG08543800WATRL000000004K00000000000002315003011122014084107N000000000000U88       000110400K 10000000010000002291           
CUS0854380000108385814002         HEATHER D. DALY     8 WINEHURST RD                          000N        CARE OF             
MTR08543800001000000000000000RA              36690461    005801090000010900000520000003NN  NNW 000                       N    
RDG08543800WATRL000000004K00000000000002608003111122014084133N000000000000U88       000260400K 10000000010000002596           
CUS0854380000108385827004         BLIMLINE STEVEN L   10 WINEHURST RD                         000N        CARE OF             
MTR08543800001000000000000000RA              36690364    005801100000011000000520000003NN  NNW 000                       N    
RDG08543800WATRL000000004K00000000000002286003211122014084139N000000000000U88       000060400K 10000000010000002274           
CUS0854380000108385826006         KIM EUNG KOO        12 WINEHURST RD                         000N        CARE OF             
MTR08543800001000000000000000RA              36690457    005801110000011100000520000003NN  NNW 000                       N    
RDG08543800WATRL000000004K00000000000001733003311122014084206N000000000000U88       000270400K 10000000010000001729           
CUS0854380000108385825008         PERRY JASON         14 WINEHURST RD                         000N        CARE OF             
MTR08543800001000000000000000RA              36689257    005801120000011200000520000003NN  NNW 000                       N    
RDG08543800WATRL000000004K00000000000001518003411122014084209N000000000000U88       000030400K 10000000010000001508           
CUS0854380000108385824001         LINDH-SLACK PATRICIA16 WINEHURST RD                         000N        CARE OF             
MTR08543800001000000000000000RA              36689362    005801130000011300000520000003NN  NNW 000                       N    
RDG08543800WATRL000000004K00000000000002912003511122014084233N000000000000U88       000240400K 10000000010000002891           
CUS0854380000108385823003         LAUER KENNETH J     18 WINEHURST RD                         000N        CARE OF             
MTR08543800001000000000000000RA              36689363    005801140000011400000520000003NN  NNW 000                       N    
RDG08543800WATRL000000004K00000000000002638003611122014084236N000000000000U88       000030400K 10000000010000002630           
CUS0854380000108385822005         KEYUR & SUNANDA SHAR20 WINEHURST RD                         000N        CARE OF             
MTR08543800001000000000000000RA              36689358    005801150000011500000520000003NN  NNW 000                       N    
RDG08543800WATRL000000004K00000000000002902003711122014084259N000000000000U88       000230400K 10000000010000002869           
CUS0854380000108385821007         DOWER MICHAEL E,JR  22 WINEHURST RD                         000N        CARE OF             
MTR08543800001000000000000000RA              36689559    005801160000011600000520000003NN  NNW 000                       N    
RDG08543800WATRL000000004K00000000000002364003811122014084303N000000000000U88       000040400K 10000000010000002349           
CUS0854380000108385820009         SAMMEL JUDITH LYNNE 24 WINEHURST RD                         000N        CARE OF             
MTR08543800001000000000000000RA              36689361    005801170000011700000520000003NN  NNW 000                       N    
RDG08543800WATRL000000004K00000000000001353003911122014084330N000000000000U88       000270400K 10000000010000001349           
CUS0854380000108385819001         TRENKLE FRED A      26 WINEHURST RD                         000N        CARE OF             
MTR08543800001000000000000000RA              76347636    005801180000011800000350000000NN  NNW 000                       N    
RDG08543800WATRL000000004K00000000000000012004011122014084336N000000000000U88       000060400K 10000000010000000004           
CUS0854380000108385818003         MANSFIELD THOMAS S,J28 WINEHURST RD                         000N        CARE OF             
MTR08543800001000000000000000RA              50789933    005801190000011900000520000003NN  NNW 000                       N    
RDG08543800WATRL000000004K00000000000001283004111122014084358N000000000000U88       000220400K 10000000010000001267           
CUS0854380000108385844009         HIEBLER HENRY G,JR  30 WINEHURST RD                         000N        CARE OF             
MTR08543800001000000000000000RA              10003390    005801200000012000000570000003NN  NNW 000                       N    
RDG08543800WATRL000000004K00000000000000201004211122014084437N000000000000U88       000390400K 10000000010000000192           
CUS0854380000108385843001         WELTY ALAN D        32 WINEHURST RD                         000N        CARE OF             
MTR08543800001000000000000000RA              52289883    005801210000012100000520000003NN  NNW 000                       N    
RDG08543800WATRL000000004K00000000000001006004311122014084526N000000000000U88       000490400K 10000000010000000992           
CUS0854380000108385842003         ZELLER CAROL A      34 WINEHURST RD                         000N        CARE OF             
MTR08543800001000000000000000RA              36693375    005801220000012200000520000003NN  NNW 000                       N    
RDG08543800WATRL000000004K00000000000003338004411122014084615N000000000000U88       000490400K 10000000010000003316           
CUS0854380000108385841005         CHRISTOPHER PAUL R  36 WINEHURST RD                         000N        CARE OF             
MTR08543800001000000000000000RA              36692005    005801230000012300000520000003NN  NNW 000                       N    
RDG08543800WATRL000000004K00000000000003503004511122014084714N000000000000U88       000590400K 10000000010000003479           
CUS0854380000108385840007         BOER ANGELO M       38 WINEHURST RD                         000N        CARE OF             
MTR08543800001000000000000000RA              36691997    005801240000012400000520000003NN  NNW 000                       N    
RDG08543800WATRL000000004K00000000000003506004611122014084808N000000000000U88       000540400K 10000000010000003483           
CUS0854380000108385839009         FULP WILLIAM G,JR   40 WINEHURST RD                         000N        CARE OF             
MTR08543800001000000000000000RA              01116110    005801250000012500000610000003NN  NNW 000                       N    
RDG08543800WATRL000000004K00000000000001313004711122014084901N000000000000U88       000530400K 10000000010000001288           
CUS0854380000108385838001         VERARDI EUGENE J    42 WINEHURST RD                         000N        CARE OF             
MTR08543800001000000000000000RA              36692006    005801260000012600000520000003NN  NNW 000                       N    
RDG08543800WATRL000000004K00000000000001173004811122014084936N000000000000U88       000350400K 10000000010000001167           
CUS0854380000108385845006         NOPPENBERGER KENNETH43 WINEHURST RD                         000N        CARE OF             
MTR08543800001000000000000000RA              46884661    005801270000012700000520000003NN  NNW 000                       N    
RDG08543800WATRL000000004K00000000000002157004911122014084958N000000000000U88       000220400K 10000000010000002147           
CUS0854380000108385846004         BUCK BARBARA W      41 WINEHURST RD                         000N        CARE OF             
MTR08543800001000000000000000RA              36688178    005801280000012800000520000003NN  NNW 000                       N    
RDG08543800WATRL000000004K00000000000003153005011122014085052N000000000000U88       000540400K 10000000010000003145           
CUS0854380000108385847002         WALLACE JAMES P     39 WINEHURST RD                         000N        CARE OF             
MTR08543800001000000000000000RA              36689394    005801290000012900000520000003NN  NNW 000                       N    
RDG08543800WATRL000000004K00000000000003564005111122014085132N000000000000U88       000400400K 10000000010000003554           
CUS0854380000108385848000         KLIMA WILLIAM M     37 WINEHURST RD                         000N        CARE OF             
MTR08543800001000000000000000RA              36694281    005801300000013000000520000003NN  NNW 000                       N    
RDG08543800WATRL000000004K00000000000004298005211122014085213N000000000000U88       000410400K 10000000010000004267           
CUS0854380000108385849008         YOUNG JOHN W        35 WINEHURST RD                         000N        CARE OF             
MTR08543800001000000000000000RA              35118574    005801310000013100000520000003NN  NNW 000                       N    
RDG08543800WATRL000000004K00000000000005207005311122014085304N000000000000U88       000510400K 10000000010000005185           
CUS0854380000108385850006         THRIFT CHARLES T    33 WINEHURST RD                         000N        CARE OF             
MTR08543800001000000000000000RA              01114315    005801320000013200000610000003NN  NNW 000                       N    
RDG08543800WATRL000000004K00000000000000709005411122014085349N000000000000U88       000450400K 10000000010000000700           
CUS0854380000108385851004         ALLEN CATHERINE     31 WINEHURST RD                         000N        CARE OF             
MTR08543800001000000000000000RA              36689396    005801330000013300000520000003NN  NNW 000                       N    
RDG08543800WATRL000000004K00000000000003493005511122014085429N000400000010U88       000400400K 10000000010000003491           
CUS0854380000108385828002         KENNEALLY WILLIAM J 29 WINEHURST RD                         000N        CARE OF             
MTR08543800001000000000000000RA              52286638    005801340000013400000520000003NN  NNW 000                       N    
RDG08543800WATRL000000004K00000000000001759005611122014085450N000000000000U88       000210400K 10000000010000001736           
CUS0854380000108385829000         MCSPADEN MICHAEL D  27 WINEHURST RD                         000N        CARE OF             
MTR08543800001000000000000000RA              35117066    005801350000013500000520000003NN  NNW 000                       N    
RDG08543800WATRL000000004K00000000000003205005711122014085525N000000000000U88       000350400K 10000000010000003188           
CUS0854380000108385830008         SANDERS ARLENE J    25 WINEHURST RD                         000N        CARE OF             
MTR08543800001000000000000000RA              01110220    005801360000013600000610000003NN  NNW 000                       N    
RDG08543800WATRL000000004K00000000000000913005811122014085548N000000000000U88       000230400K 10000000010000000898           
CUS0854380000108385831006         MCSPADEN CLARE SHEA 21 WINEHURST RD                         000N        CARE OF             
MTR08543800001000000000000000RA              35118997    005801370000013700000520000003NN  NNW 000                       N    
RDG08543800WATRL000000004K00000000000002827006011122014085657N000000000000U88       000310400K 10000000010000002795           
CUS0854380000108385832004         BASS CHANA FAYE     23 WINEHURST RD                         000N        CARE OF             
MTR08543800001000000000000000RA              99387781    005801380000013800000570000003NN  NNW 000                       N    
RDG08543800WATRL000000004K00000000000000618005911122014085626N000000000000U88       000380400K 10000000010000000611           
CUS0854380000108385833002         FIATO PETER G       19 WINEHURST RD                         000N        CARE OF             
MTR08543800001000000000000000RA              35119108    005801390000013900000520000003NN  NNW 000                       N    
RDG08543800WATRL000000004K00000000000002852006111122014085729N000000000000U88       000320400K 10000000010000002832           
CUS0854380000108385834000         JOSEPH A KEENAN     17 WINEHURST RD                         000N        CARE OF             
MTR08543800001000000000000000RA              35119107    005801400000014000000520000003NN  NNW 000                       N    
RDG08543800WATRL000000004K00000000000001932006211122014085733N000000000000U88       000040400K 10000000010000001925           
CUS0854380000108385835007         ANANDRAJAH SOMASUNDA15 WINEHURST RD                         000N        CARE OF             
MTR08543800001000000000000000RA              76346550    005801410000014100000350000003NN  NNW 000                       N    
RDG08543800WATRL000000004K00000000000000045006311122014085804N000000000000U88       000310400K 10000000010000000030           
CUS0854380000108385836005         JIANG MING LIANG    13 WINEHURST RD                         000N        CARE OF             
MTR08543800001000000000000000RA              35119589    005801420000014200000520000003NN  NNW 000                       N    
RDG08543800WATRL000000004K00000000000002460006411122014085809N000000000000U88       000050400K 10000000010000002452           
CUS0854380000108385837003         MCSPADEN DAVID P    11 WINEHURST RD                         000N        CARE OF             
MTR08543800001000000000000000RA              35119588    005801430000014300000520000003NN  NNW 000                       N    
RDG08543800WATRL000000004K00000000000002134006511122014085837N000000000000U88       000280400K 10000000010000002126           
CUS0854380000108381454001         LEONARD EDMUND T    1898 NORHURST WAY N                     000N        CARE OF             
MTR08543800001000000000000000RA              48593587    005801440000014400000520000003NN  NNW 000                       N    
RDG08543800WATRL000000004K00000000000002022006611122014090008N000000000000U88       000910400K 10000000010000002006           
CUS0854380000108381433005         GEMMELL DAVID J     1900 NORHURST WAY N                     000N        CARE OF             
MTR08543800001000000000000000RA              33082540    005801450000014500000520000003NN  NNW 000                       N    
RDG08543800WATRL000000004K00000000000004345006711122014090059N000000000000U88       000510400K 10000000010000004326           
CUS0854380000108381453003         CARVER MICHAEL F    1902 NORHURST WAY N                     000N        CARE OF             
MTR08543800001000000000000000RA              33081837    005801460000014600000520000003NN  NNW 000                       N    
RDG08543800WATRL000000004K00000000000004746006811122014090208N000000000010U88       000690400K 10000000010000004723           
CUS0854380000108381451007         JOHN C FRIES        1904 NORHURST WAY N                     000N        CARE OF             
MTR08543800001000000000000000RA              46876201    005801470000014700000520000003NN  NNW 000                       N    
RDG08543800WATRL000000004K00000000000002713006911122014090249N000000000000U88       000410400K 10000000010000002679           
CUS0854380000108016691001         SMITH NANCY V       1906 NORHURST WAY N                     000N        CARE OF             
MTR08543800001000000000000000RA              21194218    005801480000014800000520000003NN  NNW 000                       N    
RDG08543800WATRL000000004K00000000000003903007011122014090325N000000000000U88       000360400K 10000000010000003892           
CUS0854380000108016692009         FRIES DAVID ERIC    1912 NORHURST WAY N                     000N        CARE OF             
MTR08543800001000000000000000RA              46881233    005801490000014900000520000003NN  NNW 000                       N    
RDG08543800WATRL000000004K00000000000001618007111122014090412N000000000000U88       000470400K 10000000010000001603           
CUS0854380000108016693007         SHINSATO LLOYD K    615 WOODSHURST WAY                      000N        CARE OF             
MTR08543800001000000000000000RA              01078064    005801500000015000000610000003NN  NNW 000                       N    
RDG08543800WATRL000000004K00000000000001015014011122014103153N000000000000U88       000340400K 10000000010000001008           
CUS0854380000108016694005         FANGMAN EARL T      617 WOODSHURST WAY                      000N        CARE OF             
MTR08543800001000000000000000RA              48594967    005801510000015100000520000003NN  NNW 000                       N    
RDG08543800WATRL000000004K00000000000002495013911122014103119N000000000000U88       000480400K 10000000010000002479           
CUS0854380000108016695002         FANGMAN LEROY C     619 WOODSHURST WAY                      000N        CARE OF             
MTR08543800001000000000000000RA              11337934    005801520000015200000570000003NN  NNW 000                       N    
RDG08543800WATRL000000004K00000000000002039013811122014103031N000000000000U88       000290400K 10000000010000002028           
CUS0854380000108016696000         JONES VIRGINIA L    621 WOODSHURST WAY                      000N        CARE OF             
MTR08543800001000000000000000RA              99388325    005801530000015300000570000003NN  NNW 000                       N    
RDG08543800WATRL000000004K00000000000001052013711122014103002N000000000000U88       000610400K 10000000010000001039           
CUS0854380000108016697008         WILSON STEPHEN A    623 WOODSHURST WAY                      000N        CARE OF             
MTR08543800001000000000000000RA              48584858    005801540000015400000520000003NN  NNW 000                       N    
RDG08543800WATRL000000004K00000000000001982010811122014102901N000000000011U88       001220400K 10000000010000001963           
CUS0854380000108016698006         LEHANE BRENDAN P    613 MEYERS DR                           000N        CARE OF             
MTR08543800001000000000000000RA              01070199    005801550000015500000610000003NN  NNW 000                       N    
RDG08543800WATRL000000004K00000000000001107010711122014095600N000000000000U88       000670400K 10000000010000001088           
CUS0854380000108397483002         LOWMAN STEPHEN      615 MEYERS DR                           000N        CARE OF             
MTR08543800001000000000000000RA              39925586    005801560000015600000520000003NN  NNW 000                       N    
RDG08543800WATRL000000004K00000000000002663010911122014095655N000000000000U88       000120400K 10000000010000002642           
CUS0854380000108387719001         MCELGUNN DENNIS W   619 MEYERS DR                           000N        CARE OF             
MTR08543800001000000000000000RA              35117733    005801570000015700000520000003NN  NNW 000                       N    
RDG08543800WATRL000000004K00000000000006677011011122014095731N000000000000U88       000360400K 10000000010000006638           
CUS0854380000108410389004         KOUVARIS JENNIFER T 623 MEYERS DR                           000N        CARE OF             
MTR08543800001000000000000000RA              46877310    005801580000015800000520000000NN  NNW 000                       N    
RDG08543800WATRL000000004K00000000000001855010011122014094816N000000000000U88       001560400K 10000000010000001832           
CUS0854380000108410500006         QWEDAR JOHN JOSEPH  625 MEYERS DR                           000N        CARE OF             
MTR08543800001000000000000000RA              01116190    005801590000015900000610000003NN  NNW 000                       N    
RDG08543800WATRL000000004K00000000000000233007811122014092858N000000000010U88       001290400K 10000000010000000232           
CUS0854380000108411783007         MORRA GIOVANNI      627 MEYERS DR                           000N        CARE OF             
MTR08543800001000000000000000RA              45387822    005801600000016000000520000000NN  NNW 000                       N    
RDG08543800WATRL000000004K00000000000001500007911122014093023N000300000010U88       000850400K 10000000010000001480           
CUS0854380000108396728001         LORRAINE-WINDSOR LLC704 MEYERS DR                           000N        CARE OF             
MTR08543800001000000000000000RA              39080235    007501610000016100000520000003NN  NNW 000                       N    
RDG08543800WATRL000000004K00000000000001588009911122014094540N000000000010U88       002120400K 10000000010000001868           
CUS0854380000108411416004         SENTZ DAVID R       3 CATONRIDGE CT                         000N        CARE OF             
MTR08543800001000000000000000RA              46881277    005801620000016200000520000003NN  NNW 000                       N    
RDG08543800WATRL000000004K00000000000001197009811122014094208N000000000010U88       000200400K 10000000010000001182           
CUS0854380000108411417002         TENNIES FRANCIS E   5 CATONRIDGE CT                         000N        CARE OF             
MTR08543800001000000000000000RA              14920357    005801630000016300000310000003NN  NNW 000                       N    
RDG08543800WATRL000000004K00000000000000943009711122014094148N000000000000U88       000970400K 10000000010000000905           
CUS0854380000108411418000         REGAN ANDREW        7 CATONRIDGE CT                         000N        CARE OF             
MTR08543800001000000000000000RA              46878913    005801640000016400000520000003NN  NNW 000                       N    
RDG08543800WATRL000000004K00000000000001636009511122014093851N000300000010U88       000660400K 10000000010000001617           
CUS0854380000108411419008         HOLTMAN JOSEPH      9 CATONRIDGE CT                         000N        CARE OF             
MTR08543800001000000000000000RA              46878863    005801650000016500000520000003NN  NNW 000                       N    
RDG08543800WATRL000000004K00000000000003115009611122014094011N000000000000U88       000800400K 10000000010000003093           
CUS0854380000108411420006         HILL VIRGINIA       11 CATONRIDGE CT                        000N        CARE OF             
MTR08543800001000000000000000RA              46878922    005801660000016600000520000003NN  NNW 000                       N    
RDG08543800WATRL000000004K00000000000002482009411122014093745N000000000000U88       000250400K 10000000010000002461           
CUS0854380000108411421004         CALLANAN TERRY L    28 CATONRIDGE CT                        000N        CARE OF             
MTR08543800001000000000000000RA              46881076    005801670000016700000520000003NN  NNW 000                       N    
RDG08543800WATRL000000004K00000000000001505009311122014093720N000000000000U88       000290400K 10000000010000001465           
CUS0854380000108411422002         JACOB RICHMOND      26 CATONRIDGE CT                        000N        CARE OF             
MTR08543800001000000000000000RA              46878921    005801680000016800000520000003NN  NNW 000                       N    
RDG08543800WATRL000000004K00000000000001666009211122014093651N000000000000U88       000210400K 10000000010000001653           
CUS0854380000108411423000         WOOLFENDEN ROBERT B,24 CATONRIDGE CT                        000N        CARE OF             
MTR08543800001000000000000000RA              46878917    005801690000016900000520000003NN  NNW 000                       N    
RDG08543800WATRL000000004K00000000000001989009111122014093630N000000000000U88       000410400K 10000000010000001976           
CUS0854380000108411424008         LISA ANN SIEGRIED   22 CATONRIDGE CT                        000N        CARE OF             
MTR08543800001000000000000000RA              46878912    005801700000017000000520000003NN  NNW 000                       N    
RDG08543800WATRL000000004K00000000000003204009011122014093549N000000000000U88       000040400K 10000000010000003185           
CUS0854380000108411425005         KELLY ANGELA C      20 CATONRIDGE CT                        000N        CARE OF             
MTR08543800001000000000000000RA              48591305    005801710000017100000520000003NN  NNW 000                       N    
RDG08543800WATRL000000004K00000000000003655008911122014093545N000000000000U88       000450400K 10000000010000003503           
CUS0854380000108411426003         TSANG YUK PING      18 CATONRIDGE CT                        000N        CARE OF             
MTR08543800001000000000000000RA              48591303    005801720000017200000520000003NN  NNW 000                       N    
RDG08543800WATRL000000004K00000000000002257008811122014093500N000300000010U88       000200400K 10000000010000002016           
CUS0854380000108411427001         NORMAN DOUGLAS      16 CATONRIDGE CT                        000N        CARE OF             
MTR08543800001000000000000000RA              14922058    005801730000017300000310000003NN  NNW 000                       N    
RDG08543800WATRL000000004K00000000000000438008711122014093440N000000000000U88       000280400K 10000000010000000426           
CUS0854380000108411428009         LARA ELENA S        14 CATONRIDGE CT                        000N        CARE OF             
MTR08543800001000000000000000RA              46878861    005801740000017400000520000003NN  NNW 000                       N    
RDG08543800WATRL000000004K00000000000003356008611122014093412N000000000000U88       000080400K 10000000010000003335           
CUS0854380000108411429007         KARESKIE JEFFREY E  12 CATONRIDGE CT                        000N        CARE OF             
MTR08543800001000000000000000RA              46878858    005801750000017500000520000003NN  NNW 000                       N    
RDG08543800WATRL000000004K00000000000001510008511122014093404N000000000000U88       000210400K 10000000010000001500           
CUS0854380000108411430005         CHISM CHAD R        10 CATONRIDGE CT                        000N        CARE OF             
MTR08543800001000000000000000RA              46878860    005801760000017600000520000003NN  NNW 000                       N    
RDG08543800WATRL000000004K00000000000002363008411122014093343N000000000000U88       000050400K 10000000010000002340           
CUS0854380000108411431003         ARCIAGA WENDELL S   8 CATONRIDGE CT                         000N        CARE OF             
MTR08543800001000000000000000RA              46881297    005801770000017700000520000003NN  NNW 000                       N    
RDG08543800WATRL000000004K00000000000001821008311122014093338N000000000000U88       000190400K 10000000010000001805           
CUS0854380000108411432001         ASHBROOK JOSEPH P   6 CATONRIDGE CT                         000N        CARE OF             
MTR08543800001000000000000000RA              46881264    005801780000017800000520000003NN  NNW 000                       N    
RDG08543800WATRL000000004K00000000000002003008211122014093319N000000000000U88       000400400K 10000000010000001989           
CUS0854380000108411433009         HEGDE MANOHAR S     4 CATONRIDGE CT                         000N        CARE OF             
MTR08543800001000000000000000RA              14929988    005801790000017900000310000003NN  NNW 000                       N    
RDG08543800WATRL000000004K00000000000000485008111122014093239N000000000000U88       000610400K 10000000010000000470           
CUS0854380000104411017009         DYSON JEANNINE D    2 CATONRIDGE CT                         000N        CARE OF             
MTR08543800001000000000000000RA              48586581    005801800000018000000520000003NN  NNW 000                       N    
RDG08543800WATRL000000004K00000000000003199008011122014093138N000000000000U88       000750400K 10000000010000003189           
CUS0854380000104411018007         BROADUS KEVIN G     1 CATONRIDGE CT                         000N        CARE OF             
MTR08543800001000000000000000RA              48592030    005801810000018100000520000003NN  NNW 000                       N    
RDG08543800WATRL000000004K00000000000002244007711122014092649N000000000000U88       002930400K 10000000010000002222           
CUS0854380000104411019005         THOMAS REGINALD,SR  620 MEYERS DR                           000N        CARE OF             
MTR08543800001000000000000000RA              46881229    005801820000018200000520000003NN  NNW 000                       N    
RDG08543800WATRL000000004K00000000000002750010111122014094930N000000000000U88       000740400K 10000000010000002735           
CUS0854380000104411020003         LAM NAIN ZHONG      618 MEYERS DR                           000N        CARE OF             
MTR08543800001000000000000000RA              14923943    005801830000018300000310000003NN  NNW 000                       N    
RDG08543800WATRL000000004K00000000000000877010211122014095014N000300000010U88       000440400K 10000000010000000847           
CUS0854380000104411023007         BROWN STEVEN E      616 MEYERS DR                           000N        CARE OF             
MTR08543800001000000000000000RA              45385606    005801840000018400000520000003NN  NNW 000                       N    
RDG08543800WATRL000000004K00000000000002729010311122014095126N000000000000U88       000720400K 10000000010000002706           
CUS0854380000108382695008         HUANG BENJAMIN W    612 MEYERS DR                           000N        CARE OF             
MTR08543800001000000000000000RA              48592119    005801850000018500000520000003NN  NNW 000                       N    
RDG08543800WATRL000000004K00000000000000993010411122014095328N000000000000U88       001220400K 10000000010000000983           
CUS0854380000108016699004         DAVIS JAMES M       610 MEYERS DR                           000N        CARE OF             
MTR08543800001000000000000000RA              27213355    005801860000018600000520000003NN  NNW 000                       N    
RDG08543800WATRL000000004K00000000000002844010511122014095433N000300000010U88       000650400K 10000000010000002833           
CUS0854380000108016700000         ANTONELLI KEENA     608 MEYERS DR                           000N        CARE OF             
MTR08543800001000000000000000RA              48585136    005801870000018700000520000003NN  NNW 000                       N    
RDG08543800WATRL000000004K00000000000000755010611122014095453N000000000010U88       000200400K 10000000010000000743           
CUS0854380000108016701008         SCHENE WILLIS J     2004 NORHURST WAY N                     000N        CARE OF             
MTR08543800001000000000000000RA              23050986    005801880000018800000520000003NN  NNW 000                       N    
RDG08543800WATRL000000004K00000000000002041011111122014100610N000000000000U88       005190400K 10000000010000002035           
CUS0854380000108016702006         TUCKER CYNTHIA ANN  2006 NORHURST WAY N                     000N        CARE OF             
MTR08543800001000000000000000RA              01070165    005801890000018900000610000003NN  NNW 000                       N    
RDG08543800WATRL000000004K00000000000002202011211122014100652N000000000000U88       000420400K 10000000010000002166           
CUS0854380000108016703004         SCHATZ MARK ROBERT  2008 NORHURST WAY N                     000N        CARE OF             
MTR08543800001000000000000000RA              29682212    005801900000019000000520000003NN  NNW 000                       N    
RDG08543800WATRL000000004K00000000000003152011311122014100732N000000000000U88       000400400K 10000000010000003139           
CUS0854380000108016704002         CLAUSS WILLIAM J    2010 NORHURST WAY N                     000N        CARE OF             
MTR08543800001000000000000000RA              01099855    005801910000019100000610000003NN  NNW 000                       N    
RDG08543800WATRL000000004K00000000000000465011411122014100801N000000000000U88       000290400K 10000000010000000457           
CUS0854380000108016705009         MCGUINN COLLEEN E   2012 NORHURST WAY N                     000N        CARE OF             
MTR08543800001000000000000000RA              01070162    005801920000019200000610000003NN  NNW 000                       N    
RDG08543800WATRL000000004K00000000000001244011511122014100849N000000000000U88       000480400K 10000000010000001221           
CUS0854380000108016706007         ANI ARMIGER         2018 NORHURST WAY N                     000N        CARE OF             
MTR08543800001000000000000000RA              01070169    005801930000019300000610000003NN  NNW 000                       N    
RDG08543800WATRL000000004K00000000000000795011611122014100959N000000000000U88       000700400K 10000000010000000782           
CUS0854380000108016707005         HOGUE JAMES M       2020 NORHURST WAY N                     000N        CARE OF             
MTR08543800001000000000000000RA              27213417    005801940000019400000520000003NN  NNW 000                       N    
RDG08543800WATRL000000004K00000000000002825011711122014101046N000000000000U88       000470400K 10000000010000002811           
CUS0854380000108016708003         STEVEN CALLAHAN     2022 NORHURST WAY N                     000N        CARE OF             
MTR08543800001000000000000000RA              35117505    005801950000019500000520000003NN  NNW 000                       N    
RDG08543800WATRL000000004K00000000000002364011811122014101132N000000000000U88       000460400K 10000000010000002346           
CUS0854380000108016709001         KNICKERBOCKER ERIC M2024 NORHURST WAY N                     000N        CARE OF             
MTR08543800001000000000000000RA              01070167    005801960000019600000610000003NN  NNW 000                       N    
RDG08543800WATRL000000004K00000000000001995011911122014101203N000000000000U88       000310400K 10000000010000001983           
CUS0854380000108016710009         WOOLDRIDGE LAWRENCE 2026 NORHURST WAY N                     000N        CARE OF             
MTR08543800001000000000000000RA              26003891    005801970000019700000520000003NN  NNW 000                       N    
RDG08543800WATRL000000004K00000000000001373012011122014101236N000000000000U88       000330400K 10000000010000001372           
CUS0854380000108016711007         CASTILANO JOHN P    2028 NORHURST WAY N                     000N        CARE OF             
MTR08543800001000000000000000RA              01070163    005801980000019800000610000003NN  NNW 000                       N    
RDG08543800WATRL000000004K00000000000000745012111122014101309N000000000000U88       000330400K 10000000010000000726           
CUS0854380000108016712005         VOGELSANG MARJORIE L2029 NORHURST WAY N                     000N        CARE OF             
MTR08543800001000000000000000RA              26013085    005801990000019900000520000003NN  NNW 000                       N    
RDG08543800WATRL000000004K00000000000004470012211122014101340N000000000000U88       000310400K 10000000010000004450           
CUS0854380000108016713003         RICHARDS EDWIN MICHA2027 NORHURST WAY N                     000N        CARE OF             
MTR08543800001000000000000000RA              24232478    005802000000020000000520000003NN  NNW 000                       N    
RDG08543800WATRL000000004K00000000000003586012311122014101426N000000000010U88       000460400K 10000000010000003574           
CUS0854380000108016714001         SHAW PAMELA         2025 NORHURST WAY N                     000N        CARE OF             
MTR08543800001000000000000000RA              01109738    005802010000020100000610000003NN  NNW 000                       N    
RDG08543800WATRL000000004K00000000000001110012411122014101510N000000000000U88       000440400K 10000000010000001089           
CUS0854380000108016715008         KOHL EDWARD T       2023 NORHURST WAY N                     000N        CARE OF             
MTR08543800001000000000000000RA              24766074    005802020000020200000520000003NN  NNW 000                       N    
RDG08543800WATRL000000004K00000000000004779012511122014101604N000000000000U88       000540400K 10000000010000004761           
CUS0854380000108016716006         ANDREW J MACLEOD    2021 NORHURST WAY N                     000N        CARE OF             
MTR08543800001000000000000000RA              32770634    005802030000020300000520000003NN  NNW 000                       N    
RDG08543800WATRL000000004K00000000000002722012611122014101639N000000000000U88       000350400K 10000000010000002715           
CUS0854380000108016717004         PIERCE WALTER HOWARD2019 NORHURST WAY N                     000N        CARE OF             
MTR08543800001000000000000000RA              26016552    005802040000020400000520000003NN  NNW 000                       N    
RDG08543800WATRL000000004K00000000000004762012711122014101726N000000000000U88       000470400K 10000000010000004748           
CUS0854380000108016718002         TAYLOR GILBERT B    2017 NORHURST WAY N                     000N        CARE OF             
MTR08543800001000000000000000RA              01070160    005802050000020500000610000003NN  NNW 000                       N    
RDG08543800WATRL000000004K00000000000001310012811122014101809N000000000000U88       000430400K 10000000010000001293           
CUS0854380000108016719000         RENCEWICZ ROBERT W  2013 NORHURST WAY N                     000N        CARE OF             
MTR08543800001000000000000000RA              01087088    005802060000020600000610000003NN  NNW 000                       N    
RDG08543800WATRL000000004K00000000000000904012911122014101859N000000000000U88       000500400K 10000000010000000883           
CUS0854380000108016720008         KATHLEEN HEADLEY    2011 NORHURST WAY N                     000N        CARE OF             
MTR08543800001000000000000000RA              99388186    005802070000020700000570000003NN  NNW 000                       N    
RDG08543800WATRL000000004K00000000000000587013011122014102029N000000000000U88       000900400K 10000000010000000574           
CUS0854380000108016721006         ROGERS JIMMY W      2009 NORHURST WAY N                     000N        CARE OF             
MTR08543800001000000000000000RA              46879808    005802080000020800000520000003NN  NNW 000                       N    
RDG08543800WATRL000000004K00000000000001042013111122014102102N000000000000U88       000330400K 10000000010000001035           
CUS0854380000108016722004         BUKER PAUL A        2007 NORHURST WAY N                     000N        CARE OF             
MTR08543800001000000000000000RA              27213421    005802090000020900000520000003NN  NNW 000                       N    
RDG08543800WATRL000000004K00000000000003070013211122014102147N000000000000U88       000450400K 10000000010000003051           
CUS0854380000108016723002         DERINGER MICHAEL A  2005 N NORHURST WAY                     000N        CARE OF             
MTR08543800001000000000000000RA              01070166    005802100000021000000610000003NN  NNW 000                       N    
RDG08543800WATRL000000004K00000000000000962013311122014102212N000000000000U88       000250400K 10000000010000000954           
CUS0854380000108016724000         WELLS FARGO HOME MOR620 WOODSHURST WAY                      000N        CARE OF             
MTR08543800001000000000000000RA              01077737    005802110000021100000610000003NN  NNW 000                       N    
RDG08543800WATRL000000004K00000000000001168013411122014102528N000000000000U88       001960400K 10000000010000001168           
CUS0854380000108016725007         KELLY AMY M         618 WOODSHURST WAY                      000N        CARE OF             
MTR08543800001000000000000000RA              46886580    005802120000021200000520000003NN  NNW 000                       N    
RDG08543800WATRL000000004K00000000000000943013511122014102559N000000000000U88       000310400K 10000000010000000928           
CUS0854380000108016726005         PATRICK D DONAHUE   616 WOODSHURST WAY                      000N        CARE OF             
MTR08543800001000000000000000RA              99387849    005802130000021300000570000003NN  NNW 000                       N    
RDG08543800WATRL000000004K00000000000001158013611122014102659N000000000000U88       000600400K 10000000010000001148           
CUS0854380000108016727003         YACHERA DONALD      602 WOODSHURST WAY                      000N        CARE OF             
MTR08543800001000000000000000RA              32904212    005802140000021400000520000003NN  NNW 000                       N    
RDG08543800WATRL000000004K00000000000003815007511122014092131N000000000000U88       000800400K 10000000010000003793           
CUS0854380000108016728001         ROGERS LYNDA C      600 WOODSHURST WAY                      000N        CARE OF             
MTR08543800001000000000000000RA              01116013    005802150000021500000610000003NN  NNW 000                       N    
RDG08543800WATRL000000004K00000000000000477007611122014092156N000000000000U88       000250400K 10000000010000000471           
CUS0854380000108016729009         ARTHUR & KIYOMI BIKE2020 OLD FREDERICK RD                   000N        CARE OF             
MTR08543800001000000000000000RA              14900161    005802160000021600000310000003NN  NNW 000                       N    
RDG08543800WATRL000000004K00000000000001408014111122014103625N000000000000U88       002720400K 10000000010000001372           
CUS0854380000108016730007         CHERRY JOHN H,3RD   2022 OLD FREDERICK RD                   000N        CARE OF             
MTR08543800001000000000000000RA              46881311    005802170000021700000520000003NN  NNW 000                       N    
RDG08543800WATRL000000004K00000000000001010014211122014103712N000000000000U88       000470400K 10000000010000001003           
CUS0854380000108016731005         KENNEDY JULIAN MICHA2024 OLD FREDERICK RD                   000N        CARE OF             
MTR08543800001000000000000000RA              00134932    005802180000021800000570000003NN  NNW 000                       N    
RDG08543800WATRL000000004K00000000000000737014311122014103744N000000000000U88       000320400K 10000000010000000725           
CUS0854380000108016732003         CHEN HSU            2026 OLD FREDERICK RD                   000N        CARE OF             
MTR08543800001000000000000000RA              01081865    005802190000021900000610000003NN  NNW 000                       N    
RDG08543800WATRL000000004K00000000000001678014411122014103927N000000000000U88       001030400K 10000000010000001663           
RTR08543800NN02190219000002190000000002190219000197NY021902190219000000000000000000000000000002    10282014NY020000 N         
RHD04763700NN01850185000001850000000001850185000086NY018501850185000200020000000000000000000001    10022014NY020000 N         
CUS0476370000104138671005         WITOWSKI JOHN J     8569 HARRIS AVE                         000N        CARE OF             
MTR04763700001000000000000000RA              14908841    005800010000000100000310000003NN  NNW 000                       N    
RDG04763700WATRL000000004K00000000000001317000111132014091111N000000000000N40       000000400K 10000000010000001290           
CUS0476370000104138672003         DIRIENZI JOSEPH     8567 HARRIS AVE                         000N        CARE OF             
MTR04763700001000000000000000RA              14908873    005800020000000200000310000003NN  NNW 000                       N    
RDG04763700WATRL000000004K00000000000000760000211132014091144N000000000000N40       000330400K 10000000010000000749           
CUS0476370000104138673001         COMPTON JOHN H      8565 HARRIS AVE                         000N        CARE OF             
MTR04763700001000000000000000RA              14908869    005800030000000300000310000003NN  NNW 000                       N    
RDG04763700WATRL000000004K00000000000000432000311132014091145N000000000000N40       000010400K 10000000010000000423           
CUS0476370000104138674009         DEWIT MARY B        8563 HARRIS AVE                         000N        CARE OF             
MTR04763700001000000000000000RA              26011557    005800040000000400000520000003NN  NNW 000                       N    
RDG04763700WATRL000000004K00000000000003674000411132014091204N000000000000N40       000190400K 10000000010000003663           
CUS0476370000104138675006         XU JIN WEN          8561 HARRIS AVE                         000N        CARE OF             
MTR04763700001000000000000000RA              26011645    005800050000000500000520000003NN  NNW 000                       N    
RDG04763700WATRL000000004K00000000000003020000511132014091206N000000000000N40       000020400K 10000000010000002999           
CUS0476370000104138676004         NORDHOFF ROBERT J   8559 HARRIS AVE                         000N        CARE OF             
MTR04763700001000000000000000RA              00127328    005800060000000600000570000003NN  NNW 000                       N    
RDG04763700WATRL000000004K00000000000000883000611132014091226N000000000000N40       000200400K 10000000010000000869           
CUS0476370000104138677002         TRIMBLE STEVEN R    8557 HARRIS AVE                         000N        CARE OF             
MTR04763700001000000000000000RA              10017578    005800070000000700000570000003NN  NNW 000                       N    
RDG04763700WATRL000000004K00000000000000061000711132014091309N000000000010N40       000430400K 10000000010000000056           
CUS0476370000104138678000         MISEK PATRICIA A    8555 HARRIS AVE                         000N        CARE OF             
MTR04763700001000000000000000RA              33077232    005800080000000800000520000003NN  NNW 000                       N    
RDG04763700WATRL000000004K00000000000002413000811132014091333N000000000000N40       000240400K 10000000010000002405           
CUS0476370000104138679008         TUREK KENNETH F     8553 HARRIS AVE                         000N        CARE OF             
MTR04763700001000000000000000RA              33077229    005800090000000900000520000003NN  NNW 000                       N    
RDG04763700WATRL000000004K00000000000001836000911132014091335N000000000000N40       000020400K 10000000010000001809           
CUS0476370000104138680006         BRINKMAN JOHN K     8551 HARRIS AVE                         000N        CARE OF             
MTR04763700001000000000000000RA              50479180    005800100000001000000520000003NN  NNW 000                       N    
RDG04763700WATRL000000004K00000000000000798001011132014091407N000000000000N40       000320400K 10000000010000000790           
CUS0476370000104138681004         ALT WILLIAM H       8549 HARRIS AVE                         000N        CARE OF             
MTR04763700001000000000000000RA              50479185    005800110000001100000520000003NN  NNW 000                       N    
RDG04763700WATRL000000004K00000000000001700001111132014091410N000000000000N40       000030400K 10000000010000001688           
CUS0476370000104138682002         NEVEROSKY MARK      8547 HARRIS AVE                         000N        CARE OF             
MTR04763700001000000000000000RA              52768502    005800120000001200000520000003NN  NNW 000                       N    
RDG04763700WATRL000000004K00000000000001359001211132014091434N000000000000N40       000240400K 10000000010000001344           
CUS0476370000104138683000         BLACK PATRICIA L    8545 HARRIS AVE                         000N        CARE OF             
MTR04763700001000000000000000RA              32904361    005800130000001300000520000003NN  NNW 000                       N    
RDG04763700WATRL000000004K00000000000003164001311132014091530N000000000000N40       000560400K 10000000010000003140           
CUS0476370000104138684008         POWELL MONICA       8543 HARRIS AVE                         000N        CARE OF             
MTR04763700001000000000000000RA              00127313    005800140000001400000570000003NN  NNW 000                       N    
RDG04763700WATRL000000004K00000000000000471001411132014091605N000000000000N40       000350400K 10000000010000000464           
CUS0476370000104138685005         BARONDEAU LEWIS M   8541 HARRIS AVE                         000N        CARE OF             
MTR04763700001000000000000000RA              00127327    005800150000001500000570000003NN  NNW 000                       N    
RDG04763700WATRL000000004K00000000000001170001511132014091607N000000000000N40       000020400K 10000000010000001143           
CUS0476370000104138686003         WHITNEY GRANT       8539 HARRIS AVE                         000N        CARE OF             
MTR04763700001000000000000000RA              01099269    005800160000001600000610000003NN  NNW 000                       N    
RDG04763700WATRL000000004K00000000000000774001611132014091638N000000000000N40       000310400K 10000000010000000754           
CUS0476370000104138687001         CLINE DENNIS MICHAEL8537 HARRIS AVE                         000N        CARE OF             
MTR04763700001000000000000000RA              30520164    005800170000001700000520000003NN  NNW 000                       N    
RDG04763700WATRL000000004K00000000000003057001711132014091640N000000000000N40       000020400K 10000000010000003045           
CUS0476370000104138688009         NEISSER JAMES C     8535 HARRIS AVE                         000N        CARE OF             
MTR04763700001000000000000000RA              27833412    005800180000001800000520000003NN  NNW 000                       N    
RDG04763700WATRL000000004K00000000000002878001811132014091702N000000000000N40       000220400K 10000000010000002876           
CUS0476370000104138689007         LOEHMER CHARLES A   8533 HARRIS AVE                         000N        CARE OF             
MTR04763700001000000000000000RA              40322493    005800190000001900000520000003NN  NNW 000                       N    
RDG04763700WATRL000000004K00000000000000000001911132014091803N000004100010N40       000610400K 10000000010000002385           
CUS0476370000104138690005         JAYSON L DILUTIS    8531 HARRIS AVE                         000N        CARE OF             
MTR04763700001000000000000000RA              44091154    005800200000002000000520000003NN  NNW 000                       N    
RDG04763700WATRL000000004K00000000000001371002011132014091838N000000000010N40       000350400K 10000000010000001357           
CUS0476370000104138691003         HODGES RYAN G       8529 HARRIS AVE                         000N        CARE OF             
MTR04763700001000000000000000RA              44091150    005800210000002100000520000003NN  NNW 000                       N    
RDG04763700WATRL000000004K00000000000000714002111132014091840N000000000000N40       000020400K 10000000010000000701           
CUS0476370000104138692001         WHITE CHRISTOPHER   8527 HARRIS AVE                         000N        CARE OF             
MTR04763700001000000000000000RA              44091151    005800220000002200000520000003NN  NNW 000                       N    
RDG04763700WATRL000000004K00000000000001818002211132014091900N000000000000N40       000200400K 10000000010000001806           
CUS0476370000104138693009         SHAW DANIEL J       8525 HARRIS AVE                         000N        CARE OF             
MTR04763700001000000000000000RA              44091149    005800230000002300000520000003NN  NNW 000                       N    
RDG04763700WATRL000000004K00000000000002097002311132014091902N000000000000N40       000020400K 10000000010000002085           
CUS0476370000104138694007         DAPP DOUGLAS L      8523 HARRIS AVE                         000N        CARE OF             
MTR04763700001000000000000000RA              32178575    005800240000002400000520000003NN  NNW 000                       N    
RDG04763700WATRL000000004K00000000000000000002411132014091935N000004100010N40       000330400K 10000000010000002979           
CUS0476370000104138695004         GRAY ROBERT ALLEN   8511 HARRIS AVE                         000N        CARE OF             
MTR04763700001000000000000000RA              00127290    005800250000002500000570000003NN  NNW 000                       N    
RDG04763700WATRL000000004K00000000000001557002511132014092019N000000000000N40       000440400K 10000000010000001541           
CUS0476370000104138696002         ZALEWSKI BOBBIE J   8509 HARRIS AVE                         000N        CARE OF             
MTR04763700001000000000000000RA              23842634    005800260000002600000520000003NN  NNW 000                       N    
RDG04763700WATRL000000004K00000000000002927002611132014092045N000000000000N40       000260400K 10000000010000002912           
CUS0476370000104138697000         TREDWAY JAMES THOMAS8507 HARRIS AVE                         000N        CARE OF             
MTR04763700001000000000000000RA              26003136    005800270000002700000520000003NN  NNW 000                       N    
RDG04763700WATRL000000004K00000000000002952002711132014092150N000000000010N40       000650400K 10000000010000002951           
CUS0476370000104138698008         MAKIN SHIRLEY S     8505 HARRIS AVE                         000N        CARE OF             
MTR04763700001000000000000000RA              50479912    005800280000002800000520000003NN  NNW 000                       N    
RDG04763700WATRL000000004K00000000000001809002811132014092227N000000000010N40       000370400K 10000000010000001769           
CUS0476370000104138699006         LOBER HARRY J,JR    8503 HARRIS AVE                         000N        CARE OF             
MTR04763700001000000000000000RA              52288901    005800290000002900000520000003NN  NNW 000                       N    
RDG04763700WATRL000000004K00000000000001457002911132014092253N000000000000N40       000260400K 10000000010000001437           
CUS0476370000104138700002         SILBERZAHN SANDRA K 8501 HARRIS AVE                         000N        CARE OF             
MTR04763700001000000000000000RA              00127291    005800300000003000000570000003NN  NNW 000                       N    
RDG04763700WATRL000000004K00000000000000746003011132014092322N000000000000N40       000290400K 10000000010000000744           
CUS0476370000104138701000         PHILLIPS JOANN M    8500 HARRIS AVE                         000N        CARE OF             
MTR04763700001000000000000000RA              30520242    005800310000003100000520000003NN  NNW 000                       N    
RDG04763700WATRL000000004K00000000000005111003111132014092359N000000000000N40       000370400K 10000000010000005076           
CUS0476370000104138702008         WATKINSON L DALE    8502 HARRIS AVE                         000N        CARE OF             
MTR04763700001000000000000000RA              76347408    005800320000003200000350000003NN  NNW 000                       N    
RDG04763700WATRL000000004K00000000000000075003211132014092457N000000000000N40       000580400K 10000000010000000054           
CUS0476370000104138703006         TRAGESER JAMES A    8504 HARRIS AVE                         000N        CARE OF             
MTR04763700001000000000000000RA              14930097    005800330000003300000310000003NN  NNW 000                       N    
RDG04763700WATRL000000004K00000000000000735003311132014092459N000000000000N40       000020400K 10000000010000000695           
CUS0476370000104138704004         MAYORGA GLADYS      8506 HARRIS AVE                         000N        CARE OF             
MTR04763700001000000000000000RA              48591641    005800340000003400000520000003NN  NNW 000                       N    
RDG04763700WATRL000000004K00000000000001026003411132014092613N000000000010N40       000740400K 10000000010000001016           
CUS0476370000104138705001         ERASO HUGO R        8508 HARRIS AVE                         000N        CARE OF             
MTR04763700001000000000000000RA              30520209    005800350000003500000520000003NN  NNW 000                       N    
RDG04763700WATRL000000004K00000000000003596003511132014092615N000000000000N40       000020400K 10000000010000003585           
CUS0476370000104138706009         GRUENINGER HERBERT J8510 HARRIS AVE                         000N        CARE OF             
MTR04763700001000000000000000RA              50789334    005800360000003600000520000003NN  NNW 000                       N    
RDG04763700WATRL000000004K00000000000000326003611132014092700N000000000000N40       000450400K 10000000010000000324           
CUS0476370000104138707007         TOWNSLEY JOYCE A    8512 HARRIS AVE                         000N        CARE OF             
MTR04763700001000000000000000RA              00127284    005800370000003700000570000003NN  NNW 000                       N    
RDG04763700WATRL000000004K00000000000000813003711132014092742N000300000010N40       000420400K 10000000010000000816           
CUS0476370000104138708005         BUBIEN KENNETH A    8514 HARRIS AVE                         000N        CARE OF             
MTR04763700001000000000000000RA              24225523    005800380000003800000520000003NN  NNW 000                       N    
RDG04763700WATRL000000004K00000000000003125003811132014092818N000000000000N40       000360400K 10000000010000003116           
CUS0476370000104138709003         HUSSELBAUGH PATRICIA8516 HARRIS AVE                         000N        CARE OF             
MTR04763700001000000000000000RA              10016743    005800390000003900000570000003NN  NNW 000                       N    
RDG04763700WATRL000000004K00000000000000096003911132014092819N000000000000N40       000010400K 10000000010000000088           
CUS0476370000104138710001         MOFFETT JESSICA E   8518 HARRIS AVE                         000N        CARE OF             
MTR04763700001000000000000000RA              00127288    005800400000004000000570000003NN  NNW 000                       N    
RDG04763700WATRL000000004K00000000000000802004011132014092914N000000000000N40       000550400K 10000000010000000794           
CUS0476370000104138711009         SROKA THOMAS E,JR   8520 HARRIS AVE                         000N        CARE OF             
MTR04763700001000000000000000RA              00127283    005800410000004100000570000003NN  NNW 000                       N    
RDG04763700WATRL000000004K00000000000000955004111132014092916N000000000000N40       000020400K 10000000010000000942           
CUS0476370000104138712007         GARY KIMBERLY A     8522 HARRIS AVE                         000N        CARE OF             
MTR04763700001000000000000000RA              36698912    005800420000004200000520000003NN  NNW 000                       N    
RDG04763700WATRL000000004K00000000000002093004211132014092939N000000000000N40       000230400K 10000000010000002084           
