FHDNNNN056011815011815011873N                                                                                           035763
RHD08543800NN02190219000002190000000002190219000197NY021902190219000000000000000000000000000002    10282014NY020000 N  
CUS0633750000106242945001         CONRAD JR., JOHN W. 4513 BAYONNE AVE                        000N        CARE OF             
MTR06337500001000000000000000RA              29684339    005800250000002500000520000003NN  NNW 000                       N    
RDG06337500WATRL000000004K00000000000001712002211082014075811N000000000000N26       000570400K 10000000010000001706           
CUS0633750000106242946009         WILBERT B DORAN & WF4601 BAYONNE AVE                        000N        CARE OF             
MTR06337500001000000000000000RA              01093555    005800260000002600000610000003NN  NNW 000                       N    
RDG06337500WATRL000000004K00000000000000469002311082014075901N000000000000N26       000500400K 10000000010000000466           
CUS0633750000106242947007         POWER, JASON M.     4605 BAYONNE AVE                        000N        CARE OF             
MTR06337500001000000000000000RA              01080924    005800270000002700000610000003NN  NNW 000                       N    
RDG06337500WATRL000000004K00000000000001006002411082014075944N000000000000N26       000430400K 10000000010000000995           
CUS0633750000106242948005         SMYTHE, ERIC E      4607 BAYONNE AVE                        000N        CARE OF             
MTR06337500001000000000000000RA              01080921    005800280000002800000610000003NN  NNW 000                       N    
RDG06337500WATRL000000004K00000000000000850002511082014080026N000000000000N26       000420400K 10000000010000000839           
CUS0633750000106242949003         BOYD, TINA          4609 BAYONNE AVE                        000N        CARE OF             
MTR06337500001000000000000000RA              45381503    005800290000002900000520000003NN  NNW 000                       N    
RDG06337500WATRL000000004K00000000000002045002611082014080102N000000000000N26       000360400K 10000000010000002012           
CUS0633750000106242950001         BANK OF AMERICA     4610 BAYONNE AVE                        000N        CARE OF             
MTR06337500001000000000000000RA              99389690    005800300000003000000570000003NN  NNW 000                       N    
RDG06337500WATRL000000004K00000000000002318002711082014080238N000100000010N26       000960400K 10000000010000002318           
CUS0633750000106242951009         SAMUEL, DENFIELD C. 4608 BAYONNE AVE                        000N        CARE OF             
MTR06337500001000000000000000RA              48596087    005800310000003100000520000003NN  NNW 000                       N    
RDG06337500WATRL000000004K00000000000001065002811082014080337N000400000010N26       000590400K 10000000010000001063           
CUS0633750000106242952007         CUMMINGS, CRYSTAL-CL4606 BAYONNE AVE                        000N        CARE OF             
MTR06337500001000000000000000RA              99390339    005800320000003200000570000003NN  NNW 000                       N    
RDG06337500WATRL000000004K00000000000000834002911082014080446N000000000000N26       000690400K 10000000010000000812           
CUS0633750000106242953005         DODSON, EUNICE      4604 BAYONNE AVE                        000N        CARE OF             
MTR06337500001000000000000000RA              32770065    005800330000003300000520000003NN  NNW 000                       N    
RDG06337500WATRL000000004K00000000000003734003011082014080542N000000000000N26       000560400K 10000000010000003722           
CUS0633750000106242954003         BONOMO, DOMINIC J   4602 BAYONNE AVE                        000N        CARE OF             
MTR06337500001000000000000000RA              45383345    005800340000003400000520000003NN  NNW 000                       N    
RDG06337500WATRL000000004K00000000000001200003111082014080627N000000000000N26       000450400K 10000000010000001188           
CUS0633750000106242955000         JADD & LISA C PETERS4600 BAYONNE AVE                        000N        CARE OF             
MTR06337500001000000000000000RA              46876361    005800350000003500000520000003NN  NNW 000                       N    
RDG06337500WATRL000000004K00000000000001261003211082014080711N000000000000N26       000440400K 10000000010000001234           
CUS0633750000106242956008         DAVIS, III, LONZELL 4514 BAYONNE AVE                        000N        CARE OF             
MTR06337500001000000000000000RA              99390819    005800360000003600000570000003NN  NNW 000                       N    
RDG06337500WATRL000000004K00000000000000336003311082014080757N000000000000N26       000460400K 10000000010000000326           
CUS0633750000106242957006         BOULDIN, AGNES R.   4510 BAYONNE AVE                        000N        CARE OF             
MTR06337500001000000000000000RA              44091474    005800370000003700000520000003NN  NNW 000                       N    
RDG06337500WATRL000000004K00000000000001705003411082014080912N000000000000N26       000750400K 10000000010000001691           
CUS0633750000106242958004         SCHUSTER, PATRICIA D4506 BAYONNE AVE                        000N        CARE OF             
MTR06337500001000000000000000RA              29684335    005800380000003800000520000003NN  NNW 000                       N    
RDG06337500WATRL000000004K00000000000001285003511082014080956N000000000000N26       000440400K 10000000010000001276           
CUS0633750000106242959002         THOMAS, DEBRA J     4504 BAYONNE AVE                        000N        CARE OF             
MTR06337500001000000000000000RA              01108762    005800390000003900000610000003NN  NNW 000                       N    
RDG06337500WATRL000000004K00000000000000772003611082014081029N000000000000N26       000330400K 10000000010000000749           
CUS0633750000106242960000         SMITH, JEFFREY S    4502 BAYONNE AVE                        000N        CARE OF             
MTR06337500001000000000000000RA              99390812    005800400000004000000570000003NN  NNW 000                       N    
RDG06337500WATRL000000004K00000000000000520003711082014081104N000000000000N26       000350400K 10000000010000000510           
CUS0633750000106242961008         SMITH, ANDREW G     4500 BAYONNE AVE                        000N        CARE OF             
MTR06337500001000000000000000RA              24769227    005800410000004100000520000003NN  NNW 000                       N    
RDG06337500WATRL000000004K00000000000003878003811082014081159N000000000000N26       000550400K 10000000010000003857           
CUS0633750000106242962006         WILEY, KEVIN D.     4414 BAYONNE AVE                        000N        CARE OF             
MTR06337500001000000000000000RA              46877330    005800420000004200000520000003NN  NNW 000                       N    
RDG06337500WATRL000000004K00000000000001676003911082014081248N000000000000N26       000490400K 10000000010000001645           
CUS0633750000106242963004         STILLS, APRIL N     4412 BAYONNE AVE                        000N        CARE OF             
MTR06337500001000000000000000RA              24234148    005800430000004300000520000003NN  NNW 000                       N    
RDG06337500WATRL000000004K00000000000003620004011082014081326N000000000000N26       000380400K 10000000010000003590           
CUS0633750000106242964002         FISHER, VIVIAN L    4410 BAYONNE AVE                        000N        CARE OF             
MTR06337500001000000000000000RA              14911599    005800440000004400000310000003NN  NNW 000                       N    
RDG06337500WATRL000000004K00000000000000184004111082014081400N000000000000N26       000340400K 10000000010000000178           
CUS0633750000106242965009         PALMER, DARNELL     4408 BAYONNE AVE                        000N        CARE OF             
MTR06337500001000000000000000RA              29684372    005800450000004500000520000003NN  NNW 000                       N    
RDG06337500WATRL000000004K00000000000002594004211082014081433N000000000000N26       000330400K 10000000010000002583           
CUS0633750000106242966007         CHARLES E SMITH     4406 BAYONNE AVE                        000N        CARE OF             
MTR06337500001000000000000000RA              11430067    005800460000004600000570000003NN  NNW 000                       N    
RDG06337500WATRL000000004K00000000000006255004311082014081515N000000000000N26       000420400K 10000000010000006238           
CUS0633750000106242967005         WALTER, NETTIE D    4404 BAYONNE AVE                        000N        CARE OF             
MTR06337500001000000000000000RA              99390815    005800470000004700000570000003NN  NNW 000                       N    
RDG06337500WATRL000000004K00000000000000763004411082014081551N000400000010N26       000360400K 10000000010000000756           
CUS0633750000106242968003         PCBC BC, LLC        4400 BAYONNE AVE                        000N        CARE OF             
MTR06337500001000000000000000RA              29684333    005800480000004800000520000003NN  NNW 000                       N    
RDG06337500WATRL000000004K00000000000002579004511082014081619N000100000010N26       000280400K 10000000010000002579           
CUS0633750000106242969001         FORD, ROBERT L      5716 GREENHILL AVE                      000N        CARE OF             
MTR06337500001000000000000000RA              23649302    005800490000004900000520000003NN  NNW 000                       N    
RDG06337500WATRL000000004K00000000000002926004611082014081750N000000000000N26       000910400K 10000000010000002919           
CUS0633750000106242970009         HORNE, MYRTLE       5714 GREENHILL AVE                      000N        CARE OF             
MTR06337500001000000000000000RA              24223831    005800500000005000000520000003NN  NNW 000                       N    
RDG06337500WATRL000000004K00000000000001732004711082014081801N000000000000N26       000110400K 10000000010000001723           
CUS0633750000106242971007         WILLIAMS, BRIAN K   5712 GREENHILL AVE                      000N        CARE OF             
MTR06337500001000000000000000RA              41074856    005800510000005100000520000003NN  NNW 000                       N    
RDG06337500WATRL000000004K00000000000001641004811082014081901N000000000000N26       000600400K 10000000010000001631           
CUS0633750000106242972005         BIVENS, EARL S      4310 BAYONNE AVE                        000N        CARE OF             
MTR06337500001000000000000000RA              36693753    005800520000005200000520000003NN  NNW 000                       N    
RDG06337500WATRL000000004K00000000000001971004911082014081948N000000000000N26       000470400K 10000000010000001958           
CUS0633750000106242973003         CATES, TROY         4308 BAYONNE AVE                        000N        CARE OF             
MTR06337500001000000000000000RA              36693636    005800530000005300000520000003NN  NNW 000                       N    
RDG06337500WATRL000000004K00000000000002819005011082014081955N000000000000N26       000070400K 10000000010000002805           
CUS0633750000106242974001         DZIWULSKI, LAWRENCE 5715 KAVON AVE                          000N        CARE OF             
MTR06337500001000000000000000RA              29083973    005800540000005400000520000003NN  NNW 000                       N    
RDG06337500WATRL000000004K00000000000002332005111082014082443N000000000000N26       002880400K 10000000010000002309           
CUS0633750000106242975008         MORENO, ROBERTO ALVA5717 KAVON AVE                          000N        CARE OF             
MTR06337500001000000000000000RA              22610013    005800550000005500000520000003NN  NNW 000                       N    
RDG06337500WATRL000000004K00000000000002940005211082014082459N000000000000N26       000160400K 10000000010000002922           
CUS0633750000106242976006         DAVIS, BRIAN H.     5719 KAVON AVE                          000N        CARE OF             
MTR06337500001000000000000000RA              30522629    005800560000005600000520000003NN  NNW 000                       N    
RDG06337500WATRL000000004K00000000000001744005311082014082551N000000000000N26       000520400K 10000000010000001733           
CUS0633750000106242977004         JUMAN, SEAN    (TR) 5721 KAVON AVE                          000N        CARE OF             
MTR06337500001000000000000000RA              30522625    005800570000005700000520000003NN  NNW 000                       N    
RDG06337500WATRL000000004K00000000000002873005411082014082659N000000000000N26       000680400K 10000000010000002857           
CUS0633750000106242978002         CALICCHIA, LISA     4226 BAYONNE AVE                        000N        CARE OF             
MTR06337500001000000000000000RA              24225716    005800580000005800000520000003NN  NNW 000                       N    
RDG06337500WATRL000000004K00000000000002976005511082014082838N000000000000N26       000990400K 10000000010000002963           
CUS0633750000106242979000         KNELLINGER, BRENNAN 4220 BAYONNE AVE                        000N        CARE OF             
MTR06337500001000000000000000RA              29684330    005800590000005900000520000003NN  NNW 000                       N    
RDG06337500WATRL000000004K00000000000004796005611082014082942N000400000010N26       000640400K 10000000010000004792           
CUS0633750000106242980008         JACOBSON, STEVEN R  4218 BAYONNE AVE                        000N        CARE OF             
MTR06337500001000000000000000RA              99390097    005800600000006000000570000003NN  NNW 000                       N    
RDG06337500WATRL000000004K00000000000000896005711082014083026N000400000010N26       000440400K 10000000010000000895           
CUS0633750000106242981006         NEGRON, ANDREA      4214 BAYONNE AVE                        000N        CARE OF             
MTR06337500001000000000000000RA              99287486    005800610000006100000570000003NN  NNW 000                       N    
RDG06337500WATRL000000004K00000000000000880005811082014083109N000000000000N26       000430400K 10000000010000000880           
CUS0633750000106242982004         WILLIAMS, MICHAEL   4210 BAYONNE AVE                        000N        CARE OF             
MTR06337500001000000000000000RA              46885149    005800620000006200000520000003NN  NNW 000   VACANT PROPERTY     N    
RDG06337500WATRL000000004K00000000000002327005911082014083144N000000000000N26       000350400K 10000000010000002327           
CUS0633750000106242983002         LEE, DUNCAN E       4206 BAYONNE AVE                        000N        CARE OF             
MTR06337500001000000000000000RA              33734312    005800630000006300000520000003NN  NNW 000                       N    
RDG06337500WATRL000000004K00000000000002559006011082014083221N000000000000N26       000370400K 10000000010000002553           
CUS0633750000104397917008         PRICE, BARBARA      4204 BAYONNE AVE                        000N        CARE OF             
MTR06337500001000000000000000RA              39923048    005800640000006400000520000003NN  NNW 000                       N    
RDG06337500WATRL000000004K00000000000002316006111082014083254N000000000000N26       000330400K 10000000010000002306           
CUS0633750000106242984000         BLACKFORD, MONICA   4202 BAYONNE AVE                        000N        CARE OF             
MTR06337500001000000000000000RA              29684373    005800650000006500000520000003NN  NNW 000                       N    
RDG06337500WATRL000000004K00000000000002251006211082014083324N000000000000N26       000300400K 10000000010000002251           
CUS0633750000106242988001         HOPKINS, DAVIDA     4205 WHITE AVE                          000N        CARE OF             
MTR06337500001000000000000000RA              29684664    005800660000006600000520000003NN  NNW 000                       N    
RDG06337500WATRL000000004K00000000000001967006311082014084425N000000000000N26       006610400K 10000000010000001953           
CUS0633750000106242989009         MITCHELL, JUWANA L  4207 WHITE AVE                          000N        CARE OF             
MTR06337500001000000000000000RA              29684812    005800670000006700000520000003NN  NNW 000                       N    
RDG06337500WATRL000000004K00000000000001820006411082014084529N000000000000N26       000640400K 10000000010000001820           
CUS0633750000106242990007         CLEMENTS, NATASHA   4211 WHITE AVE                          000N        CARE OF             
MTR06337500001000000000000000RA              10024416    005800680000006800000570000003NN  NNW 000                       N    
RDG06337500WATRL000000004K00000000000000305006511082014084623N000000000000N26       000540400K 10000000010000000290           
CUS0633750000106242991005         LAUMAN, DAVID L     4215 WHITE AVE                          000N        CARE OF             
MTR06337500001000000000000000RA              29684703    005800690000006900000520000003NN  NNW 000                       N    
RDG06337500WATRL000000004K00000000000002480006611082014084718N000000000000N26       000550400K 10000000010000002461           
CUS0633750000106242992003         PCBC PARTNERS LLC   4221 WHITE AVE                          000N        CARE OF             
MTR06337500001000000000000000RA              01095401    005800700000007000000610000003NN  NNW 000                       N    
RDG06337500WATRL000000004K00000000000000423006711082014084821N000000000000N26       000630400K 10000000010000000399           
CUS0633750000106242993001         BORDLEY, BONITA EVEL4223 WHITE AVE                          000N        CARE OF             
MTR06337500001000000000000000RA              41080845    005800710000007100000520000003NN  NNW 000                       N    
RDG06337500WATRL000000004K00000000000001782006811082014084911N000000000000N26       000500400K 10000000010000001773           
CUS0633750000106242994009         LOVE SR, IRWIN      5723 KAVON AVE                          000N        CARE OF             
MTR06337500001000000000000000RA              30513071    005800720000007200000520000003NN  NNW 000                       N    
RDG06337500WATRL000000004K00000000000007803006911082014085015N000000000000N26       000640400K 10000000010000007747           
CUS0633750000106242995006         AYCOCK, DORIS J     4301 WHITE AVE                          000N        CARE OF             
MTR06337500001000000000000000RA              39923578    005800730000007300000520000003NN  NNW 000                       N    
RDG06337500WATRL000000004K00000000000001174007011082014085122N000000000000N26       000670400K 10000000010000001166           
CUS0633750000106242996004         MAXWELL, JAMES B    4303 WHITE AVE                          000N        CARE OF             
MTR06337500001000000000000000RA              29683079    005800740000007400000520000003NN  NNW 000                       N    
RDG06337500WATRL000000004K00000000000002460007111082014085131N000000000000N26       000090400K 10000000010000002450           
CUS0633750000106242997002         MCFADDEN, PATRICIA A4307 WHITE AVE                          000N        CARE OF             
MTR06337500001000000000000000RA              29684702    005800750000007500000520000003NN  NNW 000                       N    
RDG06337500WATRL000000004K00000000000003340007211082014085237N000000000000N26       000660400K 10000000010000003317           
CUS0633750000106242998000         BRATTON-PAYNE, JOCEL4309 WHITE AVE                          000N        CARE OF             
MTR06337500001000000000000000RA              30515601    005800760000007600000520000003NN  NNW 000                       N    
RDG06337500WATRL000000004K00000000000001771007311082014085307N000000000000N26       000300400K 10000000010000001759           
CUS0633750000106242999008         GANNON, GREGORY O.  4311 WHITE AVE                          000N        CARE OF             
MTR06337500001000000000000000RA              26007216    005800770000007700000520000003NN  NNW 000                       N    
RDG06337500WATRL000000004K00000000000001403007411082014085404N000000000000N26       000570400K 10000000010000001395           
CUS0633750000106243000004         MICHAEL PROAKIS     4401 WHITE AVE                          000N        CARE OF             
MTR06337500001000000000000000RA              11430565    005800780000007800000570000003NN  NNW 000                       N    
RDG06337500WATRL000000004K00000000000003296007511082014085454N000000000000N26       000500400K 10000000010000003290           
CUS0633750000106243001002         LARO, PATRICIA (LIFE4403 WHITE AVE                          000N        CARE OF             
MTR06337500001000000000000000RA              50481069    005800790000007900000520000003NN  NNW 000                       N    
RDG06337500WATRL000000004K00000000000001093007611082014085523N000000000000N26       000290400K 10000000010000001082           
CUS0633750000106243002000         SETTLE, MELISSA     4405 WHITE AVE                          000N        CARE OF             
MTR06337500001000000000000000RA              74687804    005800800000008000000350000003NN  NNW 000                       N    
RDG06337500WATRL000000004K00000000000000667007711082014085602N000000000000N26       000390400K 10000000010000000667           
CUS0633750000106243003008         HASLBECK, JAMES S   4407 WHITE AVE                          000N        CARE OF             
MTR06337500001000000000000000RA              99999999    005800810000008100000610000003NN  NNW 000                       N    
RDG06337500WATRL000000004K00000000000000483007811082014085645N000000000000N26       000430400K 10000000010000000450           
CUS0633750000106243004006         MCCOY, DEBORAH J    4411 WHITE AVE                          000N        CARE OF             
MTR06337500001000000000000000RA              48596142    005800820000008200000520000003NN  NNW 000                       N    
RDG06337500WATRL000000004K00000000000000329007911082014085752N000300000010N26       000670400K 10000000010000000436           
CUS0633750000106243005003         RUSZALA, MATTHEW W  4501 WHITE AVE                          000N        CARE OF             
MTR06337500001000000000000000RA              29684847    005800830000008300000520000003NN  NNW 000                       N    
RDG06337500WATRL000000004K00000000000002092008011082014085838N000000000000N26       000460400K 10000000010000002063           
CUS0633750000106243006001         RAPHAELI, YITZCHAK  4505 WHITE AVE                          000N        CARE OF             
MTR06337500001000000000000000RA              29684741    005800840000008400000520000003NN  NNW 000                       N    
RDG06337500WATRL000000004K00000000000003118008111082014090316N000000000000N26       002780400K 10000000010000003063           
CUS0633750000106243007009         WIEBER, JOSEPH N.   4509 WHITE AVE                          000N        CARE OF             
MTR06337500001000000000000000RA              99289383    005800850000008500000570000003NN  NNW 000                       N    
RDG06337500WATRL000000004K00000000000001037008211082014090350N000000000000N26       000340400K 10000000010000001015           
CUS0633750000106243008007         POSEDENTI, REGINA LU4511 WHITE AVE                          000N        CARE OF             
MTR06337500001000000000000000RA              32904987    005800860000008600000520000003NN  NNW 000                       N    
RDG06337500WATRL000000004K00000000000005528008311082014090428N000000000000N26       000380400K 10000000010000005528           
CUS0633750000106243009005         KULONDI J LUPUMBA   4515 WHITE AVE                          000N        CARE OF             
MTR06337500001000000000000000RA              29683113    005800870000008700000520000003NN  NNW 000                       N    
RDG06337500WATRL000000004K00000000000003638008411082014090533N000400000010N26       000650400K 10000000010000003603           
CUS0633750000106243010003         THOMAS, LEROY (LIFE)4601 WHITE AVE                          000N        CARE OF             
MTR06337500001000000000000000RA              9691694     005800880000008800000570000003NN  NNW 000                       N    
RDG06337500WATRL000000004K00000000000001333008511082014090657N000000000000N26       000840400K 10000000010000001328           
CUS0633750000106243011001         FRANKENBERGER, KATHL4603 WHITE AVE                          000N        CARE OF             
MTR06337500001000000000000000RA              29683132    005800890000008900000520000003NN  NNW 000                       N    
RDG06337500WATRL000000004K00000000000001921008611082014090730N000000000000N26       000330400K 10000000010000001917           
CUS0633750000106243012009         ROWLETT, HERMAN     4605 WHITE AVE                          000N        CARE OF             
MTR06337500001000000000000000RA              27831209    005800900000009000000520000003NN  NNW 000                       N    
RDG06337500WATRL000000004K00000000000003245008711082014090835N000000000000N26       000650400K 10000000010000003230           
CUS0633750000106243013007         WRIGHT, CHRISTINA L 4609 WHITE AVE                          000N        CARE OF             
MTR06337500001000000000000000RA              29683130    005800910000009100000520000003NN  NNW 000                       N    
RDG06337500WATRL000000004K00000000000002850008811082014090926N000000000000N26       000510400K 10000000010000002820           
CUS0633750000106243014005         CONLEY D REEMS      4611 WHITE AVE                          000N        CARE OF             
MTR06337500001000000000000000RA              01079082    005800920000009200000610000003NN  NNW 000                       N    
RDG06337500WATRL000000004K00000000000001196008911082014090957N000100000010N26       000310400K 10000000010000001196           
CUS0633750000106243015002         OLUWASEFUMI, AJIBOLA4615 WHITE AVE                          000N        CARE OF             
MTR06337500001000000000000000RA              26000649    005800930000009300000520000003NN  NNW 000                       N    
RDG06337500WATRL000000004K00000000000000000009011142014081902S005000000000UFC08     000210400K 10000000010000002535           
CUS0633750000106243016000         SANDRA B SASSER     4620 WHITE AVE                          000N        CARE OF             
MTR06337500001000000000000000RA              01088146    005800940000009400000610000003NN  NNW 000                       N    
RDG06337500WATRL000000004K00000000000001302009111082014091218N000000000000N26       000980400K 10000000010000001282           
CUS0633750000106243017008         DEUTSCHE BANK NATION4618 WHITE AVE                          000N        CARE OF             
MTR06337500001000000000000000RA              01114450    005800950000009500000610000003NN  NNW 000                       N    
RDG06337500WATRL000000004K00000000000001198009211082014091310N000100000010N26       000520400K 10000000010000001198           
CUS0633750000106243018006         4616 WHITE AVENUE LA4616 WHITE AVE                          000N        CARE OF             
MTR06337500001000000000000000RA              29684774    005800960000009600000520000003NN  NNW 000                       N    
RDG06337500WATRL000000004K00000000000003149009311082014091349N000000000000N26       000390400K 10000000010000003112           
CUS0633750000106243019004         GREENE, GREGORY     4614 WHITE AVE                          000N        CARE OF             
MTR06337500001000000000000000RA              24769229    005800970000009700000520000003NN  NNW 000                       N    
RDG06337500WATRL000000004K00000000000002064009411082014091431N000000000000N26       000420400K 10000000010000002042           
CUS0633750000106243020002         ANDES, CRAIG        4610 WHITE AVE                          000N        CARE OF             
MTR06337500001000000000000000RA              54348923    005800980000009800000520000003NN  NNW 000                       N    
RDG06337500WATRL000000004K00000000000003544009511082014091527N000400000010N26       000560400K 10000000010000003484           
CUS0633750000106243021000         ROBERT P NIEBERLEIN 4606 WHITE AVE                          000N        CARE OF             
MTR06337500001000000000000000RA              01112082    005800990000009900000610000003NN  NNW 000                       N    
RDG06337500WATRL000000004K00000000000000000009611142014081914S005000000000UFC08     000120400K 10000000010000001355           
CUS0633750000106243022008         CLARK-BURNSIDE, DEBR4604 WHITE AVE                          000N        CARE OF             
MTR06337500001000000000000000RA              14920603    005801000000010000000310000003NN  NNW 000                       N    
RDG06337500WATRL000000004K00000000000000946009711082014091659N000000000010N26       000430400K 10000000010000000918           
CUS0633750000106243023006         DRAKE, YOLANDA ANN  4602 WHITE AVE                          000N        CARE OF             
MTR06337500001000000000000000RA              27132284    005801010000010100000520000003NN  NNW 000                       N    
RDG06337500WATRL000000004K00000000000002348009811082014091746N000000000000N26       000470400K 10000000010000002314           
CUS0633750000106243024004         GREEN, ANTHONY L.   4600 WHITE AVE                          000N        CARE OF             
MTR06337500001000000000000000RA              30513550    005801020000010200000520000003NN  NNW 000                       N    
RDG06337500WATRL000000004K00000000000003122009911082014091902N000000000000N26       000760400K 10000000010000003078           
CUS0633750000106243025001         FREDERICK T BETZ JR.4512 WHITE AVE                          000N        CARE OF             
MTR06337500001000000000000000RA              54348919    005801030000010300000520000003NN  NNW 000                       N    
RDG06337500WATRL000000004K00000000000000741010011082014091943N000000000000N26       000410400K 10000000010000000729           
CUS0633750000106243026009         MARSHALL, SHANA     4510 WHITE AVE                          000N        CARE OF             
MTR06337500001000000000000000RA              44091477    005801040000010400000520000003NN  NNW 000                       N    
RDG06337500WATRL000000004K00000000000001820010111082014092020N000000000000N26       000370400K 10000000010000001800           
CUS0633750000106243027007         LAWRENCE, ELEANOR HU4508 WHITE AVE                          000N        CARE OF             
MTR06337500001000000000000000RA              14929287    005801050000010500000310000003NN  NNW 000                       N    
RDG06337500WATRL000000004K00000000000001780010211082014092051N000400000010N26       000310400K 10000000010000001739           
CUS0633750000106243028005         PROTO, MICHAEL J C  4504 WHITE AVE                          000N        CARE OF             
MTR06337500001000000000000000RA              11429127    005801060000010600000570000003NN  NNW 000                       N    
RDG06337500WATRL000000004K00000000000005032010311082014092129N000000000000N26       000380400K 10000000010000005023           
CUS0633750000106243029003         JOHN K DAVIES JR    4500 WHITE AVE                          000N        CARE OF             
MTR06337500001000000000000000RA              29684701    005801070000010700000520000003NN  NNW 000                       N    
RDG06337500WATRL000000004K00000000000005194010411082014092216N000400000020N26       000470400K 10000000010000005159           
CUS0633750000106243030001         MARY LINSALATA      4410 WHITE AVE                          000N        CARE OF             
MTR06337500001000000000000000RA              29684775    005801080000010800000520000003NN  NNW 000                       N    
RDG06337500WATRL000000004K00000000000003121010511082014092256N000000000000N26       000400400K 10000000010000003106           
CUS0633750000106243031009         TRENT, LAWRENCE     4408 WHITE AVE                          000N        CARE OF             
MTR06337500001000000000000000RA              44177792    005801090000010900000520000003NN  NNW 000                       N    
RDG06337500WATRL000000004K00000000000001758010611082014092334N000000000000N26       000380400K 10000000010000001734           
CUS0633750000106243032007         MIRABILE, JOHN R    4406 WHITE AVE                          000N        CARE OF             
MTR06337500001000000000000000RA              01088133    005801100000011000000610000003NN  NNW 000                       N    
RDG06337500WATRL000000004K00000000000001182010711082014092436N000100000010N26       000620400K 10000000010000001182           
CUS0633750000106243033005         EZELL, RANDY T.     4404 WHITE AVE                          000N        CARE OF             
MTR06337500001000000000000000RA              23841370    005801110000011100000520000003NN  NNW 000                       N    
RDG06337500WATRL000000004K00000000000002048010811082014092526N000000000000N26       000500400K 10000000010000002021           
CUS0633750000106243034003         GRIGG, JOHN C       4402 WHITE AVE                          000N        CARE OF             
MTR06337500001000000000000000RA              29684773    005801120000011200000520000003NN  NNW 000                       N    
RDG06337500WATRL000000004K00000000000003091010911082014092615N000100000010N26       000490400K 10000000010000003091           
CUS0633750000106243035000         ROBERT M FORESMAN   4400 WHITE AVE                          000N        CARE OF             
MTR06337500001000000000000000RA              29084327    005801130000011300000520000003NN  NNW 000                       N    
RDG06337500WATRL000000004K00000000000000000011011142014082130S005000000000UFC08     001360400K 10000000010000003304           
CUS0633750000106243036008         ZILL, ANDREW J      5800 GREENHILL AVE                      000N        CARE OF             
MTR06337500001000000000000000RA              10017306    005801140000011400000570000003NN  NNW 000                       N    
RDG06337500WATRL000000004K00000000000000116011111082014092925N000000000000N26       000530400K 10000000010000000102           
CUS0633750000106243037006         SPEKIS, WANDA LEE   4310 WHITE AVE                          000N        CARE OF             
MTR06337500001000000000000000RA              99291358    005801150000011500000570000003NN  NNW 000                       N    
RDG06337500WATRL000000004K00000000000002274011211082014093046N000000000000N26       000810400K 10000000010000002240           
CUS0633750000106243038004         CHRISTA M MORRIS    4308 WHITE AVE                          000N        CARE OF             
MTR06337500001000000000000000RA              29684705    005801160000011600000520000003NN  NNW 000                       N    
RDG06337500WATRL000000004K00000000000002072011311082014093128N000000000000N26       000420400K 10000000010000002056           
CUS0633750000106243039002         RICHARD G DIXON     4302 WHITE AVE                          000N        CARE OF             
MTR06337500001000000000000000RA              24223940    005801170000011700000520000003NN  NNW 000                       N    
RDG06337500WATRL000000004K00000000000005628011411082014093225N000400000010N26       000570400K 10000000010000005623           
CUS0633750000106243040000         CRWAFORD, LATRICE LY4300 WHITE AVE                          000N        CARE OF             
MTR06337500001000000000000000RA              29684700    005801180000011800000520000003NN  NNW 000                       N    
RDG06337500WATRL000000004K00000000000004309011511082014093234N000000000000N26       000090400K 10000000010000004299           
CUS0633750000106243041008         5801 KAVON AVENUE LA5801 KAVON AVE                          000N        CARE OF             
MTR06337500001000000000000000RA              29684845    005801190000011900000520000003NN  NNW 000                       N    
RDG06337500WATRL000000004K00000000000004854011611082014093422N000300000010N26       001080400K 10000000010000005079           
CUS0633750000106243042006         BODDIE, SHARON DENIS5805 KAVON AVE                          000N        CARE OF             
MTR06337500001000000000000000RA              29684368    005801200000012000000520000003NN  NNW 000                       N    
RDG06337500WATRL000000004K00000000000001935011711082014093528N000000000000N26       000660400K 10000000010000001915           
CUS0633750000106243043004         CLYDE JR., DAVID N  4220 WHITE AVE                          000N        CARE OF             
MTR06337500001000000000000000RA              26004131    005801210000012100000520000003NN  NNW 000                       N    
RDG06337500WATRL000000004K00000000000004402011811082014093651N000000000000N26       000830400K 10000000010000004384           
CUS0633750000106243044002         EVRY, STEPHEN       4216 WHITE AVE                          000N        CARE OF             
MTR06337500001000000000000000RA              25781799    005801220000012200000520000003NN  NNW 000                       N    
RDG06337500WATRL000000004K00000000000004863011911082014093815N000000000000N26       000840400K 10000000010000004832           
CUS0633750000106243045009         CZUBACKI, JERZY     4214 WHITE AVE                          000N        CARE OF             
MTR06337500001000000000000000RA              41257262    005801230000012300000520000003NN  NNW 000                       N    
RDG06337500WATRL000000004K00000000000001864012011082014093847N000000000000N26       000320400K 10000000010000001828           
CUS0633750000106243046007         WELLS FARGO HOME MOR4210 WHITE AVE                          000N        CARE OF             
MTR06337500001000000000000000RA              29684665    005801240000012400000520000003NN  NNW 000                       N    
RDG06337500WATRL000000004K00000000000003123012111082014093927N000000000000N26       000400400K 10000000010000003123           
CUS0633750000106243047005         4208 WHITE AVENUE LL4208 WHITE AVE                          000N        CARE OF             
MTR06337500001000000000000000RA              29684740    005801250000012500000520000003NN  NNW 000                       N    
RDG06337500WATRL000000004K00000000000000690012211082014094030N000400000010N26       000630400K 10000000010000000674           
CUS0633750000106441219000         WANG, LANZHI        4208-1/2 WHITE AVE                      000N        CARE OF             
MTR06337500001000000000000000RA              14921216    005801260000012600000310000003NN  NNW 000                       N    
RDG06337500WATRL000000004K00000000000000675012311082014094109N000100000010N26       000390400K 10000000010000000675           
CUS0633750000106243048003         PACKER REALTY LLC   5801 BELAIR RD                          000N        CARE OF             
MTR06337500001000000000000000RA              01105226    001501270000012700000610000003NN  NNW 000                       N    
RDG06337500WATRL000000005K00000000000002597000711142014082146N000000000000UFC08     000160500K 10000000010000002568           
CUS0633750000106243049001         PACKER REALTY LLC   5807 BELAIR RD                          000N        CARE OF             
MTR06337500001000000000000000RA              99999999    005801280000012800000620000003NN  NNW 000                       N    
RDG06337500WATRL000000004K00000000000000000000811142014082149N000000000000UFC08     000030400K 10000000010000000000           
CUS0633750000106243050009         AL PACKER WHITE MARS5813 BELAIR RD                          000N        CARE OF             
MTR06337500001000000000000000RA              14904839    005801290000012900000310000003NN  NNW 000                       N    
RDG06337500WATRL000000004K00000000000000173000911142014082152N000000000000UFC08     000030400K 10000000010000000170           
CUS0633750000106243051007         PACKER REALTY LLC   5817 BELAIR RD                          000N        CARE OF             
MTR06337500001000000000000000RA              01110298    005801300000013000000610000003NN  NNW 000                       N    
RDG06337500WATRL000000004K00000000000001302001011142014082207N000000000000UFC08     000150400K 10000000010000001177           
CUS0633750000106243052005         EAST, MICHAEL       5817-1/2 BELAIR RD                      000N        CARE OF             
MTR06337500001000000000000000RA              10010341    005801310000013100000570000003NN  NNW 000                       N    
RDG06337500WATRL000000004K00000000000000353001111142014082212N000000000000UFC08     000050400K 10000000010000000334           
CUS0633750000106243053003         ROLANDO P BINSOL    5819 BELAIR RD                          000N        CARE OF             
MTR06337500001000000000000000RA              31585680    005801320000013200000520000003NN  NNW 000                       N    
RDG06337500WATRL000000004K00000000000002156001211142014082220N000100000010UFC08     000080400K 10000000010000002156           
CUS0633750000106243054001         POWELL, MELISSA     4205 MARY AVE                           000N        CARE OF             
MTR06337500001000000000000000RA              99290316    005801330000013300000570000003NN  NNW 000                       N    
RDG06337500WATRL000000004K00000000000002259012411082014115223N000000000000N26       078740400K 10000000010000002220           
CUS0633750000106243055008         GREENBERG, WARREN   4207 MARY AVE                           000N        CARE OF             
MTR06337500001000000000000000RA              10017309    005801340000013400000570000003NN  NNW 000                       N    
RDG06337500WATRL000000004K00000000000000043012511082014115300N000000000000N26       000370400K 10000000010000000040           
CUS0633750000106243056006         4209 MARY AVE LAND T4209 MARY AVE                           000N        CARE OF             
MTR06337500001000000000000000RA              10017304    005801350000013500000570000003NN  NNW 000                       N    
RDG06337500WATRL000000004K00000000000000213012611082014115354N000000000000N26       000540400K 10000000010000000193           
CUS0633750000106243057004         ORNER, SARAH R      4211 MARY AVE                           000N        CARE OF             
MTR06337500001000000000000000RA              00138924    005801360000013600000570000003NN  NNW 000                       N    
RDG06337500WATRL000000004K00000000000000362012711082014115436N000000000000N26       000420400K 10000000010000000349           
CUS0633750000106243058002         JOHN R MIRABILE & WF4215 MARY AVE                           000N        CARE OF             
MTR06337500001000000000000000RA              01093245    005801370000013700000610000003NN  NNW 000                       N    
RDG06337500WATRL000000004K00000000000000871012811082014115514N000000000000N26       000380400K 10000000010000000854           
CUS0633750000106243059000         KAMMER, JOSEPHINE V.4217 MARY AVE                           000N        CARE OF             
MTR06337500001000000000000000RA              29684611    005801380000013800000520000003NN  NNW 000                       N    
RDG06337500WATRL000000004K00000000000001600012911082014115549N000000000000N26       000350400K 10000000010000001597           
CUS0633750000106243060008         WILLIAMS JR., NORMAN4219 MARY AVE                           000N        CARE OF             
MTR06337500001000000000000000RA              39923896    005801390000013900000520000003NN  NNW 000                       N    
RDG06337500WATRL000000004K00000000000002347013011082014115625N000000000000N26       000360400K 10000000010000002331           
CUS0633750000106243061006         CHRISTY, DONNY C.   4221 MARY AVE                           000N        CARE OF             
MTR06337500001000000000000000RA              01092931    005801400000014000000610000003NN  NNW 000                       N    
RDG06337500WATRL000000004K00000000000000902013111082014115644N000000000000N26       000190400K 10000000010000000884           
CUS0633750000106243062004         ARVIN, SHANNON R.   4301 MARY AVE                           000N        CARE OF             
MTR06337500001000000000000000RA              36696155    005801410000014100000520000003NN  NNW 000                       N    
RDG06337500WATRL000000004K00000000000001991013211082014115720N000000000000N26       000360400K 10000000010000001980           
CUS0633750000106243063002         RYAN, MICHAEL F     4303 MARY AVE                           000N        CARE OF             
MTR06337500001000000000000000RA              29684646    005801420000014200000520000003NN  NNW 000                       N    
RDG06337500WATRL000000004K00000000000004129013311082014115729N000000000000N26       000090400K 10000000010000004100           
CUS0633750000106243064000         OLIVER, STEPHANIE YO4305 MARY AVE                           000N        CARE OF             
MTR06337500001000000000000000RA              29684657    005801430000014300000520000000NN  NNW 000                       N    
RDG06337500WATRL000000004K00000000000002765013411082014115813N000000000000N26       000440400K 10000000010000002740           
CUS0633750000106243065007         COSBY, WINFREY C    4307 MARY AVE                           000N        CARE OF             
MTR06337500001000000000000000RA              36689593    005801440000014400000520000003NN  NNW 000                       N    
RDG06337500WATRL000000004K00000000000001856013511082014115819N000000000000N26       000060400K 10000000010000001844           
CUS0633750000106243066005         STOKES, STEVEN L.   4309 MARY AVE                           000N        CARE OF             
MTR06337500001000000000000000RA              24766746    005801450000014500000520000003NN  NNW 000                       N    
RDG06337500WATRL000000004K00000000000002100013611082014115909N000000000001N26       000500400K 10000000010000002091           
CUS0633750000106243067003         JOHNSON, TERRI J    4311 MARY AVE                           000N        CARE OF             
MTR06337500001000000000000000RA              23053142    005801460000014600000520000003NN  NNW 000                       N    
RDG06337500WATRL000000004K00000000000005169013711082014115916N000000000000N26       000070400K 10000000010000005149           
CUS0633750000106243068001         BROWN, KEVIN        4315 MARY AVE                           000N        CARE OF             
MTR06337500001000000000000000RA              01086331    005801470000014700000610000003NN  NNW 000                       N    
RDG06337500WATRL000000004K00000000000001584013811082014120019N000000000000N26       000630400K 10000000010000001561           
CUS0633750000106243069009         WALKER, CHANELL N.  4319 MARY AVE                           000N        CARE OF             
MTR06337500001000000000000000RA              01076496    005801480000014800000610000003NN  NNW 000                       N    
RDG06337500WATRL000000004K00000000000001537013911082014120104N000000000000N26       000450400K 10000000010000001516           
CUS0633750000106243070007         FORESMAN, ROBERT M. 4401 MARY AVE                           000N        CARE OF             
MTR06337500001000000000000000RA              23059161    005801490000014900000520000003NN  NNW 000                       N    
RDG06337500WATRL000000004K00000000000001809014011082014120213N000000000000N26       000690400K 10000000010000001789           
CUS0633750000106243071005         ANJORIN, OLADELE    4405 MARY AVE                           000N        CARE OF             
MTR06337500001000000000000000RA              75614503    005801500000015000000350000003NN  NNW 000                       N    
RDG06337500WATRL000000004K00000000000000000014111142014082236S005000000000UFC08     000160400K 10000000010000000184           
CUS0633750000106243072003         ANJORIN, ENIOLA C.  4407 MARY AVE                           000N        CARE OF             
MTR06337500001000000000000000RA              10003900    005801510000015100000570000003NN  NNW 000                       N    
RDG06337500WATRL000000004K00000000000000533014211082014120349N000000000000N26       000240400K 10000000010000000509           
CUS0633750000106243073001         CHAMBERS, EVERETT A.4411 MARY AVE                           000N        CARE OF             
MTR06337500001000000000000000RA              99390739    005801520000015200000570000003NN  NNW 000                       N    
RDG06337500WATRL000000004K00000000000001017014311082014120427N000000000000N26       000380400K 10000000010000001000           
CUS0633750000106243074009         CAMPBELL, GARY      4415 MARY AVE                           000N        CARE OF             
MTR06337500001000000000000000RA              33734314    005801530000015300000520000003NN  NNW 000                       N    
RDG06337500WATRL000000004K00000000000001250014411082014120507N000000000000N26       000400400K 10000000010000001223           
CUS0633750000106243075006         PENA, RAY           4501 MARY AVE                           000N        CARE OF             
MTR06337500001000000000000000RA              99288093    005801540000015400000570000003NN  NNW 000                       N    
RDG06337500WATRL000000004K00000000000000934014511082014120621N000000000000N26       000740400K 10000000010000000908           
CUS0633750000106243076004         PCBC PROPERTIES LLC 4503 MARY AVE                           000N        CARE OF             
MTR06337500001000000000000000RA              99390817    005801550000015500000570000003NN  NNW 000                       N    
RDG06337500WATRL000000004K00000000000000000014611142014082244S005000000000UFC08     000080400K 10000000010000001652           
CUS0633750000106243077002         ROSS, ERICA T.      4507 MARY AVE                           000N        CARE OF             
MTR06337500001000000000000000RA              14904824    005801560000015600000310000003NN  NNW 000                       N    
RDG06337500WATRL000000004K00000000000000341014711082014120804N000000000000N26       000480400K 10000000010000000329           
CUS0633750000106243078000         LAWSON, ANGELA M.   4509 MARY AVE                           000N        CARE OF             
MTR06337500001000000000000000RA              99390822    005801570000015700000570000003NN  NNW 000                       N    
RDG06337500WATRL000000004K00000000000000000014811142014082250S005000000000UFC08     000060400K 10000000010000001027           
CUS0633750000106243079008         GRAZIANO, MAURA L   4601 MARY AVE                           000N        CARE OF             
MTR06337500001000000000000000RA              29684617    005801580000015800000520000003NN  NNW 000                       N    
RDG06337500WATRL000000004K00000000000002837014911082014120914N000000000000N26       000420400K 10000000010000002822           
CUS0633750000106243080006         JONES SR., DAVID GLE4603 MARY AVE                           000N        CARE OF             
MTR06337500001000000000000000RA              29684647    005801590000015900000520000003NN  NNW 000                       N    
RDG06337500WATRL000000004K00000000000004431015011082014121005N000000000000N26       000510400K 10000000010000004400           
CUS0633750000106243081004         SHAPIRO, DEBORAH L. 4605 MARY AVE                           000N        CARE OF             
MTR06337500001000000000000000RA              99390816    005801600000016000000570000003NN  NNW 000                       N    
RDG06337500WATRL000000004K00000000000000961015111082014121045N000000000000N26       000400400K 10000000010000000934           
CUS0633750000106243082002         BRANDFORD, STANLEY  4607 MARY AVE                           000N        CARE OF             
MTR06337500001000000000000000RA              24229503    005801610000016100000520000003NN  NNW 000                       N    
RDG06337500WATRL000000004K00000000000002791015211082014121126N000000000000N26       000410400K 10000000010000002770           
CUS0633750000106243083000         SPRIGGS, DANIEL     4609 MARY AVE                           000N        CARE OF             
MTR06337500001000000000000000RA              27816228    005801620000016200000520000003NN  NNW 000                       N    
RDG06337500WATRL000000004K00000000000001762015311082014121211N000000000000N26       000450400K 10000000010000001756           
CUS0633750000106243084008         PATRAS, JOHN C      4611 MARY AVE                           000N        CARE OF             
MTR06337500001000000000000000RA              32176715    005801630000016300000520000003NN  NNW 000                       N    
RDG06337500WATRL000000004K00000000000002428015411082014121308N000000000000N26       000570400K 10000000010000002412           
CUS0633750000106243085005         ADAMSKI JR., NORMAN 4613 MARY AVE                           000N        CARE OF             
MTR06337500001000000000000000RA              10019883    005801640000016400000570000003NN  NNW 000                       N    
RDG06337500WATRL000000004K00000000000000221015511082014121344N000000000000N26       000360400K 10000000010000000200           
CUS0633750000106243086003         XAN ASH             4615 MARY AVE                           000N        CARE OF             
MTR06337500001000000000000000RA              24768036    005801650000016500000520000003NN  NNW 000                       N    
RDG06337500WATRL000000004K00000000000003830015611082014121428N000000000000N26       000440400K 10000000010000003809           
CUS0633750000106243087001         IRBY, KENYATTE S.   4617 MARY AVE                           000N        CARE OF             
MTR06337500001000000000000000RA              24769049    005801660000016600000520000003NN  NNW 000                       N    
RDG06337500WATRL000000004K00000000000000000015711142014082304S005000000000UFC08     000140400K 10000000010000002329           
CUS0633750000106243088009         DAVIS, SCOTTIE      4619 MARY AVE                           000N        CARE OF             
MTR06337500001000000000000000RA              26001077    005801670000016700000520000003NN  NNW 000                       N    
RDG06337500WATRL000000004K00000000000003871015811082014121544N000000000000N26       000290400K 10000000010000003838           
CUS0633750000106243089007         BRAXTON, PAUL D     4621 MARY AVE                           000N        CARE OF             
MTR06337500001000000000000000RA              45381289    005801680000016800000520000003NN  NNW 000                       N    
RDG06337500WATRL000000004K00000000000002230015911142014082311N000000000000UFC08     000070400K 10000000010000002193           
CUS0633750000106243090005         RESH-KORDEK, EILEEN 4623 MARY AVE                           000N        CARE OF             
MTR06337500001000000000000000RA              99390340    005801690000016900000570000003NN  NNW 000                       N    
RDG06337500WATRL000000004K00000000000001004001811142014082315N000000000000UFC08     000040400K 10000000010000000992           
CUS0633750000106243091003         GOLDSBOROUGH, MARJOR4625 MARY AVE                           000N        CARE OF             
MTR06337500001000000000000000RA              27132503    005801700000017000000520000000NN  NNW 000                       N    
RDG06337500WATRL000000004K00000000000002222001911142014082320N000000000000UFC08     000050400K 10000000010000002214           
CUS0633750000106243092001         JEANNE F HITZELBERGE4627 MARY AVE                           000N        CARE OF             
MTR06337500001000000000000000RA              99291230    005801710000017100000570000003NN  NNW 000                       N    
RDG06337500WATRL000000004K00000000000000377002011142014082325N000000000000UFC08     000050400K 10000000010000000373           
CUS0633750000106243093009         DRAPER, PATRICIA E (4629 MARY AVE                           000N        CARE OF             
MTR06337500001000000000000000RA              99389692    005801720000017200000570000003NN  NNW 000                       N    
RDG06337500WATRL000000004K00000000000000859002111142014082329N000000000000UFC08     000040400K 10000000010000000859           
RTR06337500NN01720172000001720000000001720172000287YY017201720172000000080000000000000000000002    10272014NY020000 I         
RHD06420900NN03900390000003900000000003900390000296NY039003900390001100030000000000000000000002    10202014NY020000 N         
CUS0642090000106346946004         MICHAEL F MASSIMINI 2936 ELLIOTT ST                         000N        CARE OF             
MTR06420900001000000000000000RA              29682000    005800010000000100000520000003NN  NNW 000                       N    
RDG06420900WATRL000000004K00000000000001948000111052014075700N000000000000N21       000000400K 10000000010000001939           
CUS0642090000106393744005         JOHN, AMBALLUR D.   2803 ELLIOTT ST                         000N        CARE OF             
MTR06420900001000000000000000RA              38983541    005800020000000200000520000003NN  NNW 000                       N    
RDG06420900WATRL000000004K00000000000002062006811052014092502N000000000000N21       000560400K 10000000010000002042           
CUS0642090000106393745002         CHESKIN, ERIC S     2805 ELLIOTT ST                         000N        CARE OF             
MTR06420900001000000000000000RA              38983542    005800030000000300000520000003NN  NNW 000                       N    
RDG06420900WATRL000000004K00000000000002248006911052014092644N000000000010N21       001020400K 10000000010000002222           
CUS0642090000106393746000         EAGERS, WILLIAM H   2807 ELLIOTT ST                         000N        CARE OF             
MTR06420900001000000000000000RA              38983543    005800040000000400000520000003NN  NNW 000                       N    
RDG06420900WATRL000000004K00000000000001516007011052014092646N000000000000N21       000020400K 10000000010000001505           
CUS0642090000106393747008         ALTER, JONATHAN Z   2809 ELLIOTT ST                         000N        CARE OF             
MTR06420900001000000000000000RA              38983544    005800050000000500000520000003NN  NNW 000                       N    
RDG06420900WATRL000000004K00000000000001884007111052014092717N000000000000N21       000310400K 10000000010000001877           
CUS0642090000106393748006         FREDERICK C WILLIAMS2811 ELLIOTT ST                         000N        CARE OF             
MTR06420900001000000000000000RA              44174280    005800060000000600000520000003NN  NNW 000                       N    
RDG06420900WATRL000000004K00000000000001356007211052014092724N000000000000N21       000070400K 10000000010000001341           
CUS0642090000106398331006         CANTON SQ HOME ASSOC1196 S LINWOOD AVE                      000N        CARE OF             
MTR06420900001000000000000000RA              46883717    005800070000000700000520000003NN  NNW 000                       N    
RDG06420900WATRL000000004K00000000000000000007300000000000000 000000000000U         000000400  10000000010000004197           
CUS0642090000106393763005         DELL PROPERTIES, LLC1200 S STREEPER ST                      000N        CARE OF             
MTR06420900001000000000000000RA              38983754    005800080000000800000520000000NN  NNW 000                       N    
RDG06420900WATRL000000004K00000000000001283007411052014092811N000000000000N21       000140400K 10000000010000001277           
CUS0642090000106393764003         KOAS, NICHOLAS J.   1202 S STREEPER ST                      000N        CARE OF             
MTR06420900001000000000000000RA              38983753    005800090000000900000520000003NN  NNW 000                       N    
RDG06420900WATRL000000004K00000000000001883007511052014093114N000000000000N21       001830400K 10000000010000001875           
CUS0642090000106393765000         WISOR, BERNADETTE TH1204 S STREEPER ST                      000N        CARE OF             
MTR06420900001000000000000000RA              38983752    005800100000001000000520000003NN  NNW 000                       N    
RDG06420900WATRL000000004K00000000000001131007611052014093118N000000000000N21       000040400K 10000000010000001119           
CUS0642090000106393766008         KARANGELEN, DANA K  1206 S STREEPER ST                      000N        CARE OF             
MTR06420900001000000000000000RA              38983751    005800110000001100000520000003NN  NNW 000                       N    
RDG06420900WATRL000000004K00000000000001267007711052014093201N000000000000N21       000430400K 10000000010000001259           
CUS0642090000106393767006         DICKSON, THEODORE   1208 S STREEPER ST                      000N        CARE OF             
MTR06420900001000000000000000RA              38983750    005800120000001200000520000003NN  NNW 000                       N    
RDG06420900WATRL000000004K00000000000002197007811052014093206N000000000000N21       000050400K 10000000010000002169           
CUS0642090000106393762007         WILLIAMS, HUBERT    1201 S STREEPER ST                      000N        CARE OF             
MTR06420900001000000000000000RA              38983718    005800130000001300000520000003NN  NNW 000                       N    
RDG06420900WATRL000000004K00000000000003212007911052014093323N000000000000N21       000770400K 10000000010000003175           
CUS0642090000106393738007         MOSS, GEOFFREY R.   2817 ELLIOTT ST                         000N        CARE OF             
MTR06420900001000000000000000RA              38983715    005800140000001400000520000003NN  NNW 000                       N    
RDG06420900WATRL000000004K00000000000001333008011052014093330N000000000010N21       000070400K 10000000010000001322           
CUS0642090000106393739005         JOHNSON, ANGELA D.  2819 ELLIOTT ST                         000N        CARE OF             
MTR06420900001000000000000000RA              38983649    005800150000001500000520000003NN  NNW 000                       N    
RDG06420900WATRL000000004K00000000000001611008111052014093454N000000000000N21       000840400K 10000000010000001605           
CUS0642090000106393740003         IRWIN, JUSTIN A     2821 ELLIOTT ST                         000N        CARE OF             
MTR06420900001000000000000000RA              38983651    005800160000001600000520000003NN  NNW 000                       N    
RDG06420900WATRL000000004K00000000000002250008211052014093458N000000000000N21       000040400K 10000000010000002236           
CUS0642090000106393741001         MALLEK JR., EMIL T  2823 ELLIOTT ST                         000N        CARE OF             
MTR06420900001000000000000000RA              38983652    005800170000001700000520000003NN  NNW 000                       N    
RDG06420900WATRL000000004K00000000000002174008311052014093602N000000000000N21       000640400K 10000000010000002164           
CUS0642090000106393742009         ROSENSWEIG, MITCHELL2825 ELLIOTT ST                         000N        CARE OF             
MTR06420900001000000000000000RA              38983650    005800180000001800000520000003NN  NNW 000                       N    
RDG06420900WATRL000000004K00000000000001300008411052014093609N000300000010N21       000070400K 10000000010000001278           
CUS0642090000106393743007         BRAYMER, NANCY A    2827 ELLIOTT ST                         000N        CARE OF             
MTR06420900001000000000000000RA              38983653    005800190000001900000520000003NN  NNW 000                       N    
RDG06420900WATRL000000004K00000000000000942008511052014093704N000000000000N21       000550400K 10000000010000000936           
CUS0642090000106393768004         BROADWATER, MARY    1200 S LINWOOD AVE                      000N        CARE OF             
MTR06420900001000000000000000RA              38983648    005800200000002000000520000003NN  NNW 000                       N    
RDG06420900WATRL000000004K00000000000002082008611052014093707N000000000000N21       000030400K 10000000010000002069           
CUS0642090000106393769002         DAVID & ERIN BARR   1202 S LINWOOD AVE                      000N        CARE OF             
MTR06420900001000000000000000RA              39288981    005800210000002100000520000003NN  NNW 000                       N    
RDG06420900WATRL000000004K00000000000002695008711052014093853N000000000000N21       001060400K 10000000010000002683           
CUS0642090000106393770000         MATHEWS, SIMON      1204 S LINWOOD AVE                      000N        CARE OF             
MTR06420900001000000000000000RA              39289880    005800220000002200000520000003NN  NNW 000                       N    
RDG06420900WATRL000000004K00000000000001970008811052014093900N000000000000N21       000070400K 10000000010000001950           
CUS0642090000106393771008         ARSCOTT, JEFFREY E. 1206 S LINWOOD AVE                      000N        CARE OF             
MTR06420900001000000000000000RA              39289879    005800230000002300000520000003NN  NNW 000                       N    
RDG06420900WATRL000000004K00000000000003034008911052014093947N000000000000N21       000470400K 10000000010000003016           
CUS0642090000106393772006         PAPPAS, JASON PLATO 1208 S LINWOOD AVE                      000N        CARE OF             
MTR06420900001000000000000000RA              39289877    005800240000002400000520000003NN  NNW 000                       N    
RDG06420900WATRL000000004K00000000000003919009011052014093951N000000000000N21       000040400K 10000000010000003898           
CUS0642090000106395558007         WITTEMANN, PAUL F.  1219 S LINWOOD AVE                      000N        CARE OF             
MTR06420900001000000000000000RA              39289555    005800250000002500000520000003NN  NNW 000                       N    
RDG06420900WATRL000000004K00000000000001685009111052014094207N000100000010N21       001360400K 10000000010000001685           
CUS0642090000106395557009         LEVIN, MYLES R      1217 S LINWOOD AVE                      000N        CARE OF             
MTR06420900001000000000000000RA              39289526    005800260000002600000520000003NN  NNW 000                       N    
RDG06420900WATRL000000004K00000000000001597009211052014094235N000000000010N21       000280400K 10000000010000001578           
CUS0642090000106395556001         WARD, BENJAMIN J    1215 S LINWOOD AVE                      000N        CARE OF             
MTR06420900001000000000000000RA              39289505    005800270000002700000520000003NN  NNW 000                       N    
RDG06420900WATRL000000004K00000000000001077009311052014094241N000000000000N21       000060400K 10000000010000001065           
CUS0642090000106395555003         HETTLEMAN, JAMES D. 1213 S LINWOOD AVE                      000N        CARE OF             
MTR06420900001000000000000000RA              39290111    005800280000002800000520000003NN  NNW 000                       N    
RDG06420900WATRL000000004K00000000000000875009411052014094305N000000000000N21       000240400K 10000000010000000867           
CUS0642090000106395554006         ABDULNOUR, RAJA-ELIE1211 S LINWOOD AVE                      000N        CARE OF             
MTR06420900001000000000000000RA              39290110    005800290000002900000520000003NN  NNW 000                       N    
RDG06420900WATRL000000004K00000000000002149009511052014094311N000000000000N21       000060400K 10000000010000002088           
CUS0642090000106395553008         NEIL, BENJAMIN A.   1209 S LINWOOD AVE                      000N        CARE OF             
MTR06420900001000000000000000RA              39290115    005800300000003000000520000003NN  NNW 000                       N    
RDG06420900WATRL000000004K00000000000001224009611052014094337N000000000000N21       000260400K 10000000010000001217           
CUS0642090000106395552000         MAVRELLOS, ANNA     1207 S LINWOOD AVE                      000N        CARE OF             
MTR06420900001000000000000000RA              39290112    005800310000003100000520000003NN  NNW 000                       N    
RDG06420900WATRL000000004K00000000000002000009711052014094339N000000000000N21       000020400K 10000000010000001988           
CUS0642090000106395551002         HAYTHORNTHWAITE, JEN1205 S LINWOOD AVE                      000N        CARE OF             
MTR06420900001000000000000000RA              39290073    005800320000003200000520000003NN  NNW 000                       N    
RDG06420900WATRL000000004K00000000000001223009811052014094406N000000000000N21       000270400K 10000000010000001219           
CUS0642090000106395550004         KARPOVICH, PAUL W   1203 S LINWOOD AVE                      000N        CARE OF             
MTR06420900001000000000000000RA              39290108    005800330000003300000520000003NN  NNW 000                       N    
RDG06420900WATRL000000004K00000000000001719009911052014094409N000000000000N21       000030400K 10000000010000001706           
CUS0642090000106395549006         TAUB, DENNIS D      1201 S LINWOOD AVE                      000N        CARE OF             
MTR06420900001000000000000000RA              39289523    005800340000003400000520000003NN  NNW 000                       N    
RDG06420900WATRL000000004K00000000000002105010011052014094520N000000000000N21       000710400K 10000000010000002096           
CUS0642090000106395548008         ZDUNSKI, JOHN J     2903 ELLIOTT ST                         000N        CARE OF             
MTR06420900001000000000000000RA              39289524    005800350000003500000520000003NN  NNW 000                       N    
RDG06420900WATRL000000004K00000000000002284010111052014094522N000000000000N21       000020400K 10000000010000002266           
CUS0642090000106395565002         ENGLAND, WILLIAM A. 2905 ELLIOTT ST                         000N        CARE OF             
MTR06420900001000000000000000RA              39290283    005800360000003600000520000003NN  NNW 000                       N    
RDG06420900WATRL000000004K00000000000001249010211052014094553N000000000000N21       000310400K 10000000010000001235           
CUS0642090000106395566000         EZCURRA, JOAQUIN    2907 ELLIOTT ST                         000N        CARE OF             
MTR06420900001000000000000000RA              39290280    005800370000003700000520000003NN  NNW 000                       N    
RDG06420900WATRL000000004K00000000000001003010311052014094642N000000000001N21       000460400K 10000000010000000989           
CUS0642090000106395547000         COOKE, KEVIN C.     2909 ELLIOTT ST                         000N        CARE OF             
MTR06420900001000000000000000RA              00127407    005800380000003800000570000003NN  NNW 000                       N    
RDG06420900WATRL000000004K00000000000001433010411052014094648N000000000000N21       000060400K 10000000010000001418           
CUS0642090000106395546002         JOSEPH, ANDREW W    2911 ELLIOTT ST                         000N        CARE OF             
MTR06420900001000000000000000RA              00127410    005800390000003900000570000003NN  NNW 000                       N    
RDG06420900WATRL000000004K00000000000000960010511052014094706N000000000010N21       000180400K 10000000010000000955           
CUS0642090000106395567008         COOPER, WILLIAM C   2913 ELLIOTT ST                         000N        CARE OF             
MTR06420900001000000000000000RA              39290278    005800400000004000000520000003NN  NNW 000                       N    
RDG06420900WATRL000000004K00000000000001215010611052014094728N000000000000N21       000220400K 10000000010000001200           
CUS0642090000106395568006         WEBER, KEVIN A.     2915 ELLIOTT ST                         000N        CARE OF             
MTR06420900001000000000000000RA              39290279    005800410000004100000520000003NN  NNW 000                       N    
RDG06420900WATRL000000004K00000000000001676010711052014094732N000000000000N21       000040400K 10000000010000001663           
CUS0642090000106395569004         LEARS, BRADLEY W    2917 ELLIOTT ST                         000N        CARE OF             
MTR06420900001000000000000000RA              39290288    005800420000004200000520000003NN  NNW 000                       N    
RDG06420900WATRL000000004K00000000000001840010811052014094825N000000000000N21       000530400K 10000000010000001815           
CUS0642090000106395570002         MCBRIRNEY, TERI L   2919 ELLIOTT ST                         000N        CARE OF             
MTR06420900001000000000000000RA              46883225    005800430000004300000520000003NN  NNW 000                       N    
RDG06420900WATRL000000004K00000000000001208010911052014094830N000000000000N21       000050400K 10000000010000001192           
CUS0642090000106395559005         BAKER, PATRICIA A   2921 ELLIOTT ST                         000N        CARE OF             
MTR06420900001000000000000000RA              39290287    005800440000004400000520000003NN  NNW 000                       N    
RDG06420900WATRL000000004K00000000000002401011011052014095008N000000000000N21       000980400K 10000000010000002380           
CUS0642090000106395560003         FELDMAN FAMILY LTD P2923 ELLIOTT ST                         000N        CARE OF             
MTR06420900001000000000000000RA              39290285    005800450000004500000520000003NN  NNW 000                       N    
RDG06420900WATRL000000004K00000000000001977011111052014095020N000300000010N21       000120400K 10000000010000001902           
CUS0642090000106395561001         GARY WHITTEN        2925 ELLIOTT ST                         000N        CARE OF             
MTR06420900001000000000000000RA              39290174    005800460000004600000520000003NN  NNW 000                       N    
RDG06420900WATRL000000004K00000000000001493011211052014095056N000000000000N21       000360400K 10000000010000001471           
CUS0642090000106395562009         COADY, THOMAS A   (L2927 ELLIOTT ST                         000N        CARE OF             
MTR06420900001000000000000000RA              39290282    005800470000004700000520000003NN  NNW 000                       N    
RDG06420900WATRL000000004K00000000000001157011311052014095105N000000000000N21       000090400K 10000000010000001149           
CUS0642090000106395563007         MCKINNEY, RODNEY KEN2929 ELLIOTT ST                         000N        CARE OF             
MTR06420900001000000000000000RA              39290289    005800480000004800000520000003NN  NNW 000                       N    
RDG06420900WATRL000000004K00000000000001786011411052014095153N000000000000N21       000480400K 10000000010000001767           
CUS0642090000106395564005         GRATTAN, JAMES R    1200 S POTOMAC ST                       000N        CARE OF             
MTR06420900001000000000000000RA              39290286    005800490000004900000520000003NN  NNW 000                       N    
RDG06420900WATRL000000004K00000000000001797011511052014095158N000000000000N21       000050400K 10000000010000001783           
CUS0642090000106395640003         KARP, JORDAN P      1202 S POTOMAC ST                       000N        CARE OF             
MTR06420900001000000000000000RA              39290452    005800500000005000000520000003NN  NNW 000                       N    
RDG06420900WATRL000000004K00000000000001885011611052014095319N000000000000N21       000810400K 10000000010000001860           
CUS0642090000106395641001         CARRIER, JOHN F.    1204 S POTOMAC ST                       000N        CARE OF             
MTR06420900001000000000000000RA              39290408    005800510000005100000520000003NN  NNW 000                       N    
RDG06420900WATRL000000004K00000000000001265011711052014095321N000000000000N21       000020400K 10000000010000001259           
CUS0642090000106395572008         PATRICIA D GILLEASE 1206 S POTOMAC ST                       000N        CARE OF             
MTR06420900001000000000000000RA              39290406    005800520000005200000520000003NN  NNW 000                       N    
RDG06420900WATRL000000004K00000000000000589011811052014095353N000000000000N21       000320400K 10000000010000000580           
CUS0642090000106395573006         SMITH, AMANDA       1208 S POTOMAC ST                       000N        CARE OF             
MTR06420900001000000000000000RA              39290456    005800530000005300000520000003NN  NNW 000                       N    
RDG06420900WATRL000000004K00000000000001449011911052014095356N000000000000N21       000030400K 10000000010000001434           
CUS0642090000106395642009         HOLLANDER, WILLIAM B1210 S POTOMAC ST                       000N        CARE OF             
MTR06420900001000000000000000RA              39290346    005800540000005400000520000003NN  NNW 000                       N    
RDG06420900WATRL000000004K00000000000001610012011052014095429N000000000010N21       000330400K 10000000010000001571           
CUS0642090000106395574004         BEALL, KATHERINE E  1214 S POTOMAC ST                       000N        CARE OF             
MTR06420900001000000000000000RA              39584395    005800550000005500000520000003NN  NNW 000                       N    
RDG06420900WATRL000000004K00000000000001971012211052014095558N000300000010N21       000450400K 10000000010000001961           
CUS0642090000106396693001         STEPHEN GLICK       1216 S POTOMAC ST                       000N        CARE OF             
MTR06420900001000000000000000RA              39584393    005800560000005600000520000000NN  NNW 000                       N    
RDG06420900WATRL000000004K00000000000001666012311052014100017N000000000000N21       002590400K 10000000010000001642           
CUS0642090000106395643007         COOGAN, WILLIAM C   1212 S POTOMAC ST                       000N        CARE OF             
MTR06420900001000000000000000RA              39290454    005800570000005700000520000003NN  NNW 000                       N    
RDG06420900WATRL000000004K00000000000001278012111052014095513N000000000000N21       000440400K 10000000010000001269           
CUS0642090000106396692003         DORSEY, CHARLES E.  2924 TOONE ST                           000N        CARE OF             
MTR06420900001000000000000000RA              39584392    005800580000005800000520000000NN  NNW 000                       N    
RDG06420900WATRL000000004K00000000000001822012411052014100032N000000000000N21       000150400K 10000000010000001807           
CUS0642090000106395545004         SNELLINGER, RICHARD 2922 TOONE ST                           000N        CARE OF             
MTR06420900001000000000000000RA              39290106    005800590000005900000520000003NN  NNW 000                       N    
RDG06420900WATRL000000004K00000000000001837012511052014100220N000000000000N21       001080400K 10000000010000001835           
CUS0642090000106395544007         STAFFORD, DRUCILLE H2920 TOONE ST                           000N        CARE OF             
MTR06420900001000000000000000RA              75424593    005800600000006000000350000000NN  NNW 000                       N    
RDG06420900WATRL000000004K00000000000000023012611052014100223N000000000000N21       000030400K 10000000010000000016           
CUS0642090000106395543009         MICHAEL P BUCKLEY   2918 TOONE ST                           000N        CARE OF             
MTR06420900001000000000000000RA              48590072    005800610000006100000520000000NN  NNW 000                       N    
RDG06420900WATRL000000004K00000000000000302012711052014100336N000000000000N21       000730400K 10000000010000000302           
CUS0642090000106395542001         SPIRKO, EDWARD J    2916 TOONE ST                           000N        CARE OF             
MTR06420900001000000000000000RA              48589998    005800620000006200000520000000NN  NNW 000                       N    
RDG06420900WATRL000000004K00000000000001842012811052014100340N000000000000N21       000040400K 10000000010000001817           
CUS0642090000106395637009         BARNYCZ, DANIEL K   1215 S CURLEY ST                        000N        CARE OF             
MTR06420900001000000000000000RA              01094523    005800630000006300000610000000NN  NNW 000                       N    
RDG06420900WATRL000000004K00000000000001323012911052014100505N000000000000N21       000850400K 10000000010000001291           
CUS0642090000106395639005         SCOTT HINES         1213 S CURLEY ST                        000N        CARE OF             
MTR06420900001000000000000000RA              39290825    005800640000006400000520000003NN  NNW 000                       N    
RDG06420900WATRL000000004K00000000000002125013011052014100854N000000000000N21       002290400K 10000000010000002112           
CUS0642090000106395638007         TODD, EMMA MARIE    1211 S CURLEY ST                        000N        CARE OF             
MTR06420900001000000000000000RA              39290826    005800650000006500000520000003NN  NNW 000                       N    
RDG06420900WATRL000000004K00000000000002964013111052014100900N000000000000N21       000060400K 10000000010000002955           
CUS0642090000106395541003         MCGUIGAN, PATRICK J.1210 S CURLEY ST                        000N        CARE OF             
MTR06420900001000000000000000RA              39290070    005800660000006600000520000000NN  NNW 000                       N    
RDG06420900WATRL000000004K00000000000001915013211052014101050N000000000010N21       001100400K 10000000010000001902           
CUS0642090000106395540005         MCNICHOLAS, THOMAS J1212 S CURLEY ST                        000N        CARE OF             
MTR06420900001000000000000000RA              39290068    005800670000006700000520000000NN  NNW 000                       N    
RDG06420900WATRL000000004K00000000000002609013311052014101054N000000000000N21       000040400K 10000000010000002588           
CUS0642090000106395539007         BERSTOCK, AVI J.    1214 S CURLEY ST                        000N        CARE OF             
MTR06420900001000000000000000RA              39290102    005800680000006800000520000000NN  NNW 000                       N    
RDG06420900WATRL000000004K00000000000001677013411052014101203N000000000000N21       000690400K 10000000010000001674           
CUS0642090000106395538009         VISHER, BARBARA     1216 S CURLEY ST                        000N        CARE OF             
MTR06420900001000000000000000RA              39290071    005800690000006900000520000000NN  NNW 000                       N    
RDG06420900WATRL000000004K00000000000001859013511052014101208N000000000000N21       000050400K 10000000010000001836           
CUS0642090000106395537001         NATOLI, BRIAN       1218 S CURLEY ST                        000N        CARE OF             
MTR06420900001000000000000000RA              99291306    005800700000007000000570000000NN  NNW 000                       N    
RDG06420900WATRL000000004K00000000000000756013611052014101247N000000000000N21       000390400K 10000000010000000745           
CUS0642090000106395536003         CHARLES AND MARY CAM1220 S CURLEY ST                        000N        CARE OF             
MTR06420900001000000000000000RA              99290583    005800710000007100000570000000NN  NNW 000                       N    
RDG06420900WATRL000000004K00000000000001070013711052014101300N000000000000N21       000130400K 10000000010000001056           
CUS0642090000106395571000         GALANTE, JAMES L    1222 S CURLEY ST                        000N        CARE OF             
MTR06420900001000000000000000RA              39290345    005800720000007200000520000000NN  NNW 000                       N    
RDG06420900WATRL000000004K00000000000001527013811052014101351N000000000000N21       000510400K 10000000010000001512           
CUS0642090000106395654004         KARABELAS, GEORGE S 1309 S POTOMAC ST                       000N        CARE OF             
MTR06420900001000000000000000RA              39290855    005800730000007300000520000003NN  NNW 000                       N    
RDG06420900WATRL000000004K00000000000002078013911052014101541N000000000000N21       001100400K 10000000010000002075           
CUS0642090000106395653006         PATTEN, KAREN A     1307 S POTOMAC ST                       000N        CARE OF             
MTR06420900001000000000000000RA              01071461    005800740000007400000610000003NN  NNW 000                       N    
RDG06420900WATRL000000004K00000000000001932014011052014101608N000000000000N21       000270400K 10000000010000001894           
CUS0642090000106395652008         MICHAEL HURLY       1305 S POTOMAC ST                       000N        CARE OF             
MTR06420900001000000000000000RA              01099160    005800750000007500000610000003NN  NNW 000                       N    
RDG06420900WATRL000000004K00000000000000681014111052014101612N000000000000N21       000040400K 10000000010000000664           
CUS0642090000106395651000         BELL, ALAN S        1303 S POTOMAC ST                       000N        CARE OF             
MTR06420900001000000000000000RA              39290829    005800760000007600000520000003NN  NNW 000                       N    
RDG06420900WATRL000000004K00000000000002178014211052014101659N000000000000N21       000470400K 10000000010000002167           
CUS0642090000106395649004         FRANK JR., RUSSELL L1221 S POTOMAC ST                       000N        CARE OF             
MTR06420900001000000000000000RA              39584110    005800770000007700000520000003NN  NNW 000                       N    
RDG06420900WATRL000000004K00000000000001469014311052014101707N000300000010N21       000080400K 10000000010000001776           
CUS0642090000106395650002         SOKOL, JODI B       1301 S POTOMAC ST                       000N        CARE OF             
MTR06420900001000000000000000RA              39290857    005800780000007800000520000003NN  NNW 000                       N    
RDG06420900WATRL000000004K00000000000001792014411052014101744N000300000010N21       000370400K 10000000010000001461           
CUS0642090000106395648006         CANTON RESIDENTIAL T1219 S POTOMAC ST                       000N        CARE OF             
MTR06420900001000000000000000RA              39583782    005800790000007900000520000003NN  NNW 000                       N    
RDG06420900WATRL000000004K00000000000002837014511052014101752N000000000000N21       000080400K 10000000010000002809           
CUS0642090000106395647008         MAENNER, NANCY L.   1217 S POTOMAC ST                       000N        CARE OF             
MTR06420900001000000000000000RA              39290407    005800800000008000000520000003NN  NNW 000                       N    
RDG06420900WATRL000000004K00000000000001538014611052014101840N000000000010N21       000480400K 10000000010000001520           
CUS0642090000106395646000         FEIT, MARJORIE C    1215 S POTOMAC ST                       000N        CARE OF             
MTR06420900001000000000000000RA              29289194    005800810000008100000520000003NN  NNW 000                       N    
RDG06420900WATRL000000004K00000000000001035014711052014101844N000000000000N21       000040400K 10000000010000001020           
CUS0642090000106395645002         BALLIS, MICHAEL J   1213 S POTOMAC ST                       000N        CARE OF             
MTR06420900001000000000000000RA              39290344    005800820000008200000520000003NN  NNW 000                       N    
RDG06420900WATRL000000004K00000000000001992014811052014101914N000000000000N21       000300400K 10000000010000001969           
CUS0642090000106395644005         RONNETT, BRIGITTE M 1211 S POTOMAC ST                       000N        CARE OF             
MTR06420900001000000000000000RA              39583780    005800830000008300000520000003NN  NNW 000                       N    
RDG06420900WATRL000000004K00000000000001290014911052014101917N000000000000N21       000030400K 10000000010000001284           
CUS0642090000106395577007         HORN, SHARON        1207 S POTOMAC ST                       000N        CARE OF             
MTR06420900001000000000000000RA              39290457    005800840000008400000520000003NN  NNW 000                       N    
RDG06420900WATRL000000004K00000000000001223015111052014102021N000000000000N21       000050400K 10000000010000001213           
CUS0642090000106395578005         NICKERSON, R CAROL  1209 S POTOMAC ST                       000N        CARE OF             
MTR06420900001000000000000000RA              39290453    005800850000008500000520000003NN  NNW 000                       N    
RDG06420900WATRL000000004K00000000000001491015011052014102016N000000000000N21       000590400K 10000000010000001483           
CUS0642090000106395576009         STEPHANIE LINDER    1205 S POTOMAC ST                       000N        CARE OF             
MTR06420900001000000000000000RA              39290455    005800860000008600000520000003NN  NNW 000                       N    
RDG06420900WATRL000000004K00000000000002168015211052014102053N000000000000N21       000320400K 10000000010000002153           
CUS0642090000106395575001         ST PIERRE, KEVIN M  1203 S POTOMAC ST                       000N        CARE OF             
MTR06420900001000000000000000RA              39290405    005800870000008700000520000003NN  NNW 000                       N    
RDG06420900WATRL000000004K00000000000001886015311052014102056N000000000000N21       000030400K 10000000010000001869           
CUS0642090000106336864001         MCGOVERN, PATRICK J 3003 ELLIOTT ST                         000N        CARE OF             
MTR06420900001000000000000000RA              50478638    005800880000008800000520000000NN  NNW 000                       N    
RDG06420900WATRL000000004K00000000000001184015411052014102208N000000000030N21       000720400K 10000000010000001169           
CUS0642090000106336863003         SMITH, PATRICIA J   3005 ELLIOTT ST                         000N        CARE OF             
MTR06420900001000000000000000RA              01107750    005800890000008900000610000003NN  NNW 000                       N    
RDG06420900WATRL000000004K00000000000000497015511052014102238N000000000000N21       000300400K 10000000010000000483           
CUS0642090000106336862005         RICE, MOLLY S       3007 ELLIOTT ST                         000N        CARE OF             
MTR06420900001000000000000000RA              01107746    005800900000009000000610000003NN  NNW 000                       N    
RDG06420900WATRL000000004K00000000000000770015611052014102256N000000000010N21       000180400K 10000000010000000740           
CUS0642090000106336861007         SOELLERS, MARGARET E3009 ELLIOTT ST                         000N        CARE OF             
MTR06420900001000000000000000RA              01107751    005800910000009100000610000003NN  NNW 000                       N    
RDG06420900WATRL000000004K00000000000000489015711052014102330N000300000020N21       000340400K 10000000010000000509           
CUS0642090000106336860009         MARY C HETMANSKI    3011 ELLIOTT ST                         000N        CARE OF             
MTR06420900001000000000000000RA              01108182    005800920000009200000610000003NN  NNW 000                       N    
RDG06420900WATRL000000004K00000000000000376015811052014102638N000000000000N21       001880400K 10000000010000000367           
CUS0642090000106336859001         KENLEY JR., BANNON B3013 ELLIOTT ST                         000N        CARE OF             
MTR06420900001000000000000000RA              01107754    005800930000009300000610000003NN  NNW 000                       N    
RDG06420900WATRL000000004K00000000000001048015911052014102655N000000000000N21       000170400K 10000000010000001042           
CUS0642090000106336858003         M J RYCHWALSKI SR   3015 ELLIOTT ST                         000N        CARE OF             
MTR06420900001000000000000000RA              01107752    005800940000009400000610000003NN  NNW 000                       N    
RDG06420900WATRL000000004K00000000000000248016011052014102707N000000000000N21       000120400K 10000000010000000241           
CUS0642090000106336857005         FERGUS, MICHAEL     3017 ELLIOTT ST                         000N        CARE OF             
MTR06420900001000000000000000RA              01107753    005800950000009500000610000003NN  NNW 000                       N    
RDG06420900WATRL000000004K00000000000000744016111052014102730N000000000000N21       000230400K 10000000010000000720           
CUS0642090000106341930003         FAWEETT, MICHAEL    3021 ELLIOTT ST                         000N        CARE OF             
MTR06420900001000000000000000RA              50480542    005800960000009600000520000003NN  NNW 000                       N    
RDG06420900WATRL000000004K00000000000000580016211052014102803N000000000010N21       000330400K 10000000010000000557           
CUS0642090000106341931001         BAKER, JAMES A.     3023 ELLIOTT ST                         000N        CARE OF             
MTR06420900001000000000000000RA              27829327    005800970000009700000520000003NN  NNW 000                       N    
RDG06420900WATRL000000004K00000000000002616016311052014103051N000000000000N21       001680400K 10000000010000002579           
CUS0642090000106336855009         BAKER SR., GENE C.  3025 ELLIOTT ST                         000N        CARE OF             
MTR06420900001000000000000000RA              01108185    005800980000009800000610000003NN  NNW 000                       N    
RDG06420900WATRL000000004K00000000000000557016411052014103107N000000000000N21       000160400K 10000000010000000541           
CUS0642090000106336854002         SANDERS, ALAN MICHAE3027 ELLIOTT ST                         000N        CARE OF             
MTR06420900001000000000000000RA              01108179    005800990000009900000610000003NN  NNW 000                       N    
RDG06420900WATRL000000004K00000000000000768016511052014103111N000000000000N21       000040400K 10000000010000000760           
CUS0642090000106336853004         PEGG, HARRY P       3029 ELLIOTT ST                         000N        CARE OF             
MTR06420900001000000000000000RA              01108180    005801000000010000000610000003NN  NNW 000                       N    
RDG06420900WATRL000000004K00000000000000731016611052014103146N000400000010N21       000350400K 10000000010000000726           
CUS0642090000106336852006         RHOADES, NOAH L     3031 ELLIOTT ST                         000N        CARE OF             
MTR06420900001000000000000000RA              01107371    005801010000010100000610000003NN  NNW 000                       N    
RDG06420900WATRL000000004K00000000000000672016711052014103151N000000000000N21       000050400K 10000000010000000661           
CUS0642090000106336851008         JOHANNA POLANOWSKI  3033 ELLIOTT ST                         000N        CARE OF             
MTR06420900001000000000000000RA              14905651    005801020000010200000310000003NN  NNW 000                       N    
RDG06420900WATRL000000004K00000000000000256016811052014103213N000000000000N21       000220400K 10000000010000000256           
CUS0642090000106336850000         ERLER, KURT GEBHARD 3035 ELLIOTT ST                         000N        CARE OF             
MTR06420900001000000000000000RA              01107047    005801030000010300000610000003NN  NNW 000                       N    
RDG06420900WATRL000000004K00000000000000833016911052014103215N000000000000N21       000020400K 10000000010000000818           
CUS0642090000106336849002         SNYDER, PATRICIA L  3037 ELLIOTT ST                         000N        CARE OF             
MTR06420900001000000000000000RA              01112772    005801040000010400000610000003NN  NNW 000                       N    
RDG06420900WATRL000000004K00000000000000632017011052014103320N000000000000N21       000650400K 10000000010000000625           
CUS0642090000106345894007         ROBERT R REVELS     3041 ELLIOTT ST                         000N        CARE OF             
MTR06420900001000000000000000RA              29404884    005801050000010500000520000003NN  NNW 000                       N    
RDG06420900WATRL000000004K00000000000003565017111052014103428N000000000021N21       000600400K 10000000010000003548           
CUS0642090000106336846008         PAUL S AMOS         3045 ELLIOTT ST                         000N        CARE OF             
MTR06420900001000000000000000RA              14910940    005801060000010600000310000003NY  NNW 000                       N    
MTM0642090014910940    75613693                                                                                               
RDG06420900WATRL000000004K00000000000000047017211052014103526N000304100020N21       000580400K 10000000010000000516           
CUS0642090000106331910007         WILLIAM REED        1217 N ELLWOOD AVE                      000N        CARE OF             
MTR06420900001000000000000000RA              01100425    005801070000010700000610000003NN  NNW 000                       N    
RDG06420900WATRL000000004K00000000000000000017311052014103849S022000000011N21       000710400K 10000000010000000371           
CUS0642090000106336845000         HAMILL, COLIN P.G.  1213 S ELLWOOD AVE                      000N        CARE OF             
MTR06420900001000000000000000RA              01103756    005801080000010800000610000003NN  NNW 000                       N    
RDG06420900WATRL000000004K00000000000000597017411052014103738N000000000000N21       000330400K 10000000010000000587           
CUS0642090000106336844003         ROSSMAN, JAMES A    1211 S ELLWOOD AVE                      000N        CARE OF             
MTR06420900001000000000000000RA              01103755    005801090000010900000610000003NN  NNW 000                       N    
RDG06420900WATRL000000004K00000000000000424017511052014103920N000000000000N21       000310400K 10000000010000000411           
CUS0642090000106336843005         GOGINENI, ARUNDHATI 1209 S ELLWOOD AVE                      000N        CARE OF             
MTR06420900001000000000000000RA              01103757    005801100000011000000610000003NN  NNW 000                       N    
RDG06420900WATRL000000004K00000000000000270017611052014103939N000000000000N21       000190400K 10000000010000000265           
CUS0642090000106336842007         ALASCIO, CHRISTOPHER1207 S ELLWOOD AVE                      000N        CARE OF             
MTR06420900001000000000000000RA              01103754    005801110000011100000610000003NN  NNW 000                       N    
RDG06420900WATRL000000004K00000000000000571017711052014103955N000000000000N21       000160400K 10000000010000000559           
CUS0642090000106336841009         MARSH, GREGORY N.   1205 S ELLWOOD AVE                      000N        CARE OF             
MTR06420900001000000000000000RA              48584460    005801120000011200000520000003NN  NNW 000                       N    
RDG06420900WATRL000000004K00000000000001338017811052014104021N000000000000N21       000260400K 10000000010000001322           
CUS0642090000106341964002         LAMB, JOSEPH        3101 ELLIOTT ST                         000N        CARE OF             
MTR06420900001000000000000000RA              99376288    007501130000011300000570000003NN  NNW 000                       N    
