CUS0263130000102423909007         TIMOTHY M. HALL     4735 BUXTON CIR                         000N        CARE OF             
MTR02631300001000000000000000RA              52291403    000102870000028700000520000003NN  NNW 000                       N    
RDG02631300WATRL000000004K00000000000000798005211032014122012N000000000000U20       000240400K 10000000010000000789           
CUS0263130000102423910005         STEELE DESHAUN      4733 BUXTON CIR                         000N        CARE OF             
MTR02631300001000000000000000RA              52291482    000102880000028800000520000003NN  NNW 000                       N    
RDG02631300WATRL000000004K00000000000001201005311032014122014N000000000000U20       000020400K 10000000010000001191           
CUS0263130000102423911003         LANGLEY KELLI D     4731 BUXTON CIR                         000N        CARE OF             
MTR02631300001000000000000000RA              52291483    000102890000028900000520000003NN  NNW 000                       N    
RDG02631300WATRL000000004K00000000000001127005411032014122046N000000000000U20       000320400K 10000000010000001114           
CUS0263130000102423893003         ON LAP QUYEN        4715 BUXTON CIR                         000N        CARE OF             
MTR02631300001000000000000000RA              52291112    000102900000029000000520000003NN  NNW 000                       N    
RDG02631300WATRL000000004K00000000000001106005511032014122138N000000000010U20       000520400K 10000000010000001095           
CUS0263130000102423890009         MOLESWORTH JASON G  4713 BUXTON CIR                         000N        CARE OF             
MTR02631300001000000000000000RA              52291171    000102910000029100000520000003NN  NNW 000                       N    
RDG02631300WATRL000000004K00000000000000594005611032014122156N000000000000U20       000180400K 10000000010000000591           
CUS0263130000102423891007         BROWN KEVIN         4711 BUXTON CIR                         000N        CARE OF             
MTR02631300001000000000000000RA              52291219    000102920000029200000520000003NN  NNW 000                       N    
RDG02631300WATRL000000004K00000000000001236005711032014122216N000000000000U20       000200400K 10000000010000001203           
CUS0263130000102423892005         MUSTAPHA OLUSOLA    4709 BUXTON CIR                         000N        CARE OF             
MTR02631300001000000000000000RA              52291227    000102930000029300000520000003NN  NNW 000                       N    
RDG02631300WATRL000000004K00000000000000770005811032014122219N000000000000U20       000030400K 10000000010000000759           
CUS0263130000102423894001         MARGARET WILES      4707 BUXTON CIR                         000N        CARE OF             
MTR02631300001000000000000000RA              52291310    000102940000029400000520000003NN  NNW 000                       N    
RDG02631300WATRL000000004K00000000000000941005911032014122238N000000000000U20       000190400K 10000000010000000923           
CUS0263130000102425209000         MARTIN REGINA S     4705 BUXTON CIR                         000N        CARE OF             
MTR02631300001000000000000000RA              52291197    000102950000029500000520000000NN  NNW 000                       N    
RDG02631300WATRL000000004K00000000000000699006011032014122305N000000000000U20       000270400K 10000000010000000684           
CUS0263130000102423896006         BURGONIO CHERYL     4703 BUXTON CIR                         000N        CARE OF             
MTR02631300001000000000000000RA              52291241    000102960000029600000520000003NN  NNW 000                       N    
RDG02631300WATRL000000004K00000000000001648006111032014122332N000000000000U20       000270400K 10000000010000001630           
CUS0263130000102423897004         WASHINGTON DARRELL L4701 BUXTON CIR                         000N        CARE OF             
MTR02631300001000000000000000RA              52291245    000102970000029700000520000003NN  NNW 000                       N    
RDG02631300WATRL000000004K00000000000001046006211032014122420N000000000010U20       000480400K 10000000010000001044           
RTR02631300NN02970297000002970000000002970297000134NY029702970297000000000000000000000000000001    10272014NY020000 N         
FTRNNNN035008116008116008116N    