FHDNNNN032007111007111007111N                                                                                           026848
RHD04912100NN00780374000000780000029603740374000951NY037403740374000100640000000000000000000001    01052016NY020000 N         
CUS0491210000106444577008         SUN JUSTIN          743 SHERMAN RD                          000N        CARE OF             
MTR04912100001000000000000000RA              00166643    000100010000000100000570000003NN  NNW 000                       N    
RDG04912100WATRL000000004K00000000000000000000101112016082428S001000000000U40       000000400K 10000000010000000351           
CUS0491210000106444576000         ZHANG HONGWEI       741 SHERMAN RD                          000N        CARE OF             
MTR04912100001000000000000000RA              00166641    000100020000000200000570000003NN  NNW 000                       N    
RDG04912100WATRL000000004K00000000000000000000201112016082451S001000000000U40       000230400K 10000000010000000887           
CUS0491210000106444575002         RICHARD J. REYNOLDS 739 SHERMAN RD                          000N        CARE OF             
MTR04912100001000000000000000RA              00166642    000100030000000300000570000003NN  NNW 000                       N    
RDG04912100WATRL000000004K00000000000000000000301112016082454S001000000000U40       000030400K 10000000010000000299           
CUS0491210000106444574005         GIBBONS NICHOLE C   737 SHERMAN RD                          000N        CARE OF             
MTR04912100001000000000000000RA              79657026    000100040000000400000360000003NN  NNW 000                       N    
RDG04912100WATRL000000004R00000000000000005000001062016112504N000300000010U         001760400R 10000000010000000000           
RFF0491210070292976      ERT      0000  956.44375000140000010620161125040000056257100W 1220000N                               
CUS0491210000106444573007         MAI JIN CHEN        735 SHERMAN RD                          000N        CARE OF             
MTR04912100001000000000000000RA              79657027    000100050000000500000360000003NN  NNW 000                       N    
RDG04912100WATRL000000004R00000000000000020000001062016112508N000300000010U         001760400R 10000000010000000000           
RFF0491210070292984      ERT      0000  956.44375000140004010620161125080000203126100W 1220000N                               
CUS0491210000106444572009         GASKIN- IFILL RICHEL733 SHERMAN RD                          000N        CARE OF             
MTR04912100001000000000000000RA              79657018    000100060000000600000360000003NN  NNW 000                       N    
RDG04912100WATRL000000004R00000000000000006000001062016112452N000300000010U         001770400R 10000000010000000000           
RFF0491210070292996      ERT      0000  956.44375000140000010620161124520000064988100W 1220000N                               
CUS0491210000106444571001         JAMIE A. BATEMAN    731 SHERMAN RD                          000N        CARE OF             
MTR04912100001000000000000000RA              79657019    000100070000000700000360000003NN  NNW 000                       N    
RDG04912100WATRL000000004R00000000000000017000001062016112428N000300000010U         001760400R 10000000010000000000           
RFF0491210070293005      ERT      0000  956.44375000140004010620161124280000175091100W 1220000N                               
CUS0491210000106444550005         MINTER ROBERT L     9700 LEAH WAY                           000N        CARE OF             
MTR04912100001000000000000000RA              79833613    000100080000000800000360000003NN  NNW 000                       N    
RDG04912100WATRL000000004R00000000000000010000001062016112516N000300000010U         001760400R 10000000010000000000           
RFF0491210070447849      ERT      0000  956.44375000140000010620161125160000100935100W 1220000N                               
CUS0491210000106444549007         JOSEPH BURGER       9702 LEAH WAY                           000N        CARE OF             
MTR04912100001000000000000000RA              79833612    000100090000000900000360000003NN  NNW 000                       N    
RDG04912100WATRL000000004R00000000000000002000001062016112512N000300000010U         001770400R 10000000010000000000           
RFF0491210070447843      ERT      0000  956.44375000140000010620161125120000029754100W 1220000N                               
CUS0491210000104444516001         JEAN FRANCOIS       9704 LEAH WAY                           000N        CARE OF             
MTR04912100001000000000000000RA              79833559    000100100000001000000360000003NN  NNW 000                       N    
RDG04912100WATRL000000004R00000000000000004000001062016112508N000300000010U         001760400R 10000000010000000000           
RFF0491210070447852      ERT      0000  956.44375000140000010620161125080000044848100W 1220000N                               
CUS0491210000104444492005         LAM THUAN           9706 LEAH WAY                           000N        CARE OF             
MTR04912100001000000000000000RA              79833558    000100110000001100000360000003NN  NNW 000                       N    
RDG04912100WATRL000000004R00000000000000013000001062016112516N000300000010U         001760400R 10000000010000000000           
RFF0491210070447790      ERT      0000  956.44375000140000010620161125160000134422100W 1220000N                               
CUS0491210000104444477006         ARJUNE NISCHAL      9708 LEAH WAY                           000N        CARE OF             
MTR04912100001000000000000000RA              79833587    000100120000001200000360000003NN  NNW 000                       N    
RDG04912100WATRL000000004R00000000000000007000001062016112510N000300000010U         001770400R 10000000010000000000           
RFF0491210070447848      ERT      0000  956.44375000140000010620161125100000078436100W 1220000N                               
CUS0491210000104444476008         TOLSON GERALD A     9710 LEAH WAY                           000N        CARE OF             
MTR04912100001000000000000000RA              79833586    000100130000001300000360000003NN  NNW 000                       N    
RDG04912100WATRL000000004R00000000000000002000001062016112508N000300000010U         001760400R 10000000010000000000           
RFF0491210070448704      ERT      0000  956.44375000140000010620161125080000027998100W 1220000N                               
CUS0491210000106444579004         CENG SUE ZHAO SHU   9712 LEAH WAY                           000N        CARE OF             
MTR04912100001000000000000000RA              79833288    000100140000001400000360000003NN  NNW 000                       N    
RDG04912100WATRL000000004R00000000000000023000001062016112456N000300000010U         001760400R 10000000010000000000           
RFF0491210070310815      ERT      0000  956.44375000140004010620161124560000236558100W 1220000N                               
CUS0491210000106444580002         JENNIFER L. BALL    9714 LEAH WAY                           000N        CARE OF             
MTR04912100001000000000000000RA              00166742    000100150000001500000570000003NN  NNW 000                       N    
RDG04912100WATRL000000004K00000000000000000001801112016084032S001000000000U40       000350400K 10000000010000000644           
CUS0491210000106444581000         MICHELLE L WHITEHEAD9716 LEAH WAY                           000N        CARE OF             
MTR04912100001000000000000000RA              79833289    000100160000001600000360000003NN  NNW 000                       N    
RDG04912100WATRL000000004R00000000000000005000001062016112528N000300000010U         001770400R 10000000010000000000           
RFF0491210070310827      ERT      0000  956.44375000140000010620161125280000051839100W 1220000N                               
CUS0491210000106444582008         RANABHAT KAMAL      9718 LEAH WAY                           000N        CARE OF             
MTR04912100001000000000000000RA              79657048    000100170000001700000360000003NN  NNW 000                       N    
RDG04912100WATRL000000004R00000000000000005000001062016112512N000300000010U         001760400R 10000000010000000000           
RFF0491210070292931      ERT      0000  956.44375000140000010620161125120000051590100W 1220000N                               
CUS0491210000106444583006         AKWO EUNICE F       9720 LEAH WAY                           000N        CARE OF             
MTR04912100001000000000000000RA              79833321    000100180000001800000360000003NN  NNW 000                       N    
RDG04912100WATRL000000004R00000000000000007000001062016112512N000300000010U         001760400R 10000000010000000000           
RFF0491210070288431      ERT      0000  956.44375000140000010620161125120000071617100W 1220000N                               
CUS0491210000106442030000         BAIR GAIL L         9831 BIGGS RD                           000N        CARE OF             
MTR04912100001000000000000000RA              79833217    000100190000001900000360000003NN  NNW 000                       N    
RDG04912100WATRL000000004R00000000000000001000001062016112508N000300000010U         001770400R 10000000010000000000           
RFF0491210070447311      ERT      0000  956.44375000140000010620161125080000012852100W 1220000N                               
CUS0491210000106442029002         DOLLENTE JOSELITO S 9829 BIGGS RD                           000N        CARE OF             
MTR04912100001000000000000000RA              00166205    000100200000002000000570000003NN  NNW 000                       N    
RDG04912100WATRL000000004K00000000000000000001501112016083536S001000000000U40       000320400K 10000000010000000923           
CUS0491210000106442028004         KENNETH L BRATCHER J9827 BIGGS RD                           000N        CARE OF             
MTR04912100001000000000000000RA              00165963    000100210000002100000570000003NN  NNW 000                       N    
RDG04912100WATRL000000004K00000000000000000001401112016083504S001000000000U40       000030400K 10000000010000000855           
CUS0491210000106442027006         BANK OF AMERICA     9825 BIGGS RD                           000N        CARE OF             
MTR04912100001000000000000000RA              00165962    000100220000002200000570000003NN  NNW 000                       N    
RDG04912100WATRL000000004K00000000000000000001301112016083501S001000000000U40       000990400K 10000000010000001150           
CUS0491210000106442026008         CHOW KWAI FUN       9823 BIGGS RD                           000N        CARE OF             
MTR04912100001000000000000000RA              79833194    000100230000002300000360000003NN  NNW 000                       N    
RDG04912100WATRL000000004R00000000000000000000001062016112518N000100000010U         001760400R 10000000010000000000           
RFF0491210070447017      ERT      0000  956.44375000140000010620161125180000001109100W 1220000N                               
CUS0491210000106442025000         KLINE AARON J       9821 BIGGS RD                           000N        CARE OF             
MTR04912100001000000000000000RA              79833195    000100240000002400000360000003NN  NNW 000                       N    
RDG04912100WATRL000000004R00000000000000000000001062016112510N000100000010U         001760400R 10000000010000000000           
RFF0491210070448112      ERT      0000  956.44375000140000010620161125100000000020100W 1220000N                               
CUS0491210000106442024003         JOHNSON VERONICA M  9819 BIGGS RD                           000N        CARE OF             
MTR04912100001000000000000000RA              79833794    000100250000002500000360000003NN  NNW 000                       N    
RDG04912100WATRL000000004R00000000000000001000001062016112534N000300000010U         001770400R 10000000010000000000           
RFF0491210070447028      ERT      0000  956.44375000140000010620161125340000012876100W 1220000N                               
CUS0491210000106442023005         GBADEBO JOEL ADEJARE9817 BIGGS RD                           000N        CARE OF             
MTR04912100001000000000000000RA              79833818    000100260000002600000360000003NN  NNW 000                       N    
RDG04912100WATRL000000004R00000000000000006000001062016112520N000300000010U         001760400R 10000000010000000000           
RFF0491210070447075      ERT      0000  956.44375000140000010620161125200000060469100W 1220000N                               
CUS0491210000106442022007         SMITH HELENA T      9815 BIGGS RD                           000N        CARE OF             
MTR04912100001000000000000000RA              79833201    000100270000002700000360000003NN  NNW 000                       N    
RDG04912100WATRL000000004R00000000000000001000001062016112508N000300000010U         001770400R 10000000010000000000           
RFF0491210070448663      ERT      0000  956.44375000140000010620161125080000015302100W 1220000N                               
CUS0491210000106442021009         HABACON MARIA CARMIN9813 BIGGS RD                           000N        CARE OF             
MTR04912100001000000000000000RA              79833200    000100280000002800000360000003NN  NNW 000                       N    
RDG04912100WATRL000000004R00000000000000004000001062016112524N000300000010U         001760400R 10000000010000000000           
RFF0491210070448662      ERT      0000  956.44375000140000010620161125240000043855100W 1220000N                               
CUS0491210000106442020001         OKOH-ESENE AUSTIN I 9811 BIGGS RD                           000N        CARE OF             
MTR04912100001000000000000000RA              79833152    000100290000002900000360000003NN  NNW 000                       N    
RDG04912100WATRL000000004R00000000000000005000001062016112530N000300000010U         001760400R 10000000010000000000           
RFF0491210070448599      ERT      0000  956.44375000140000010620161125300000056455100W 1220000N                               
CUS0491210000106442019003         NAVARETTE JAYSON S  9809 BIGGS RD                           000N        CARE OF             
MTR04912100001000000000000000RA              79833153    000100300000003000000360000003NN  NNW 000                       N    
RDG04912100WATRL000000004R00000000000000002000001062016112540N000300000010U         001770400R 10000000010000000000           
RFF0491210070448600      ERT      0000  956.44375000140000010620161125400000029231100W 1220000N                               
CUS0491210000106441991004         FORNOFF MARY M      9800 BIGGS RD                           000N        CARE OF             
MTR04912100001000000000000000RA              79833820    000100310000003100000360000003NN  NNW 000                       N    
RDG04912100WATRL000000004R00000000000000003000001062016112706N000300000010U         001760400R 10000000010000000000           
RFF0491210070447083      ERT      0000  956.44375000140000010620161127060000034248100W 1220000N                               
CUS0491210000106441992002         CHEN LIANG JIN      9802 BIGGS RD                           000N        CARE OF             
MTR04912100001000000000000000RA              79833821    000100320000003200000360000003NN  NNW 000                       N    
RDG04912100WATRL000000004R00000000000000003000001062016112520N000300000010U         001760400R 10000000010000000000           
RFF0491210070447081      ERT      0000  956.44375000140000010620161125200000032346100W 1220000N                               
CUS0491210000106441993000         KIAMA JOYCE N       9804 BIGGS RD                           000N        CARE OF             
MTR04912100001000000000000000RA              79833781    000100330000003300000360000003NN  NNW 000                       N    
RDG04912100WATRL000000004R00000000000000008000001062016112522N000300000010U         001770400R 10000000010000000000           
RFF0491210070447056      ERT      0000  956.44375000140000010620161125220000083585100W 1220000N                               
CUS0491210000106441999007         ADEKUNLE ADEWALE O  9806 BIGGS RD                           000N        CARE OF             
MTR04912100001000000000000000RA              79833780    000100340000003400000360000003NN  NNW 000                       N    
RDG04912100WATRL000000004R00000000000000002000001062016112510N000300000010U         001760400R 10000000010000000000           
RFF0491210070447109      ERT      0000  956.44375000140000010620161125100000024804100W 1220000N                               
CUS0491210000106442001001         ELLERS ANTHONY S    9808 BIGGS RD                           000N        CARE OF             
MTR04912100001000000000000000RA              79833777    000100350000003500000360000003NN  NNW 000                       N    
RDG04912100WATRL000000004R00000000000000002000001062016112532N000300000010U         001760400R 10000000010000000000           
RFF0491210070447064      ERT      0000  956.44375000140000010620161125320000028899100W 1220000N                               
CUS0491210000106442002009         FULMORE MANZY O,3RD 9810 BIGGS RD                           000N        CARE OF             
MTR04912100001000000000000000RA              79833776    000100360000003600000360000003NN  NNW 000                       N    
RDG04912100WATRL000000004R00000000000000003000001062016112524N000300000010U         001770400R 10000000010000000000           
RFF0491210070447734      ERT      0000  956.44375000140000010620161125240000034237100W 1220000N                               
CUS0491210000106442003007         FORSYTHE VONDER     9812 BIGGS RD                           000N        CARE OF             
MTR04912100001000000000000000RA              79833819    000100370000003700000360000003NN  NNW 000                       N    
RDG04912100WATRL000000004R00000000000000006000001062016112542N000300000010U         001760400R 10000000010000000000           
RFF0491210070447078      ERT      0000  956.44375000140000010620161125420000061505100W 1220000N                               
CUS0491210000106442004005         ENSMINGER DAVID A   9814 BIGGS RD                           000N        CARE OF             
MTR04912100001000000000000000RA              76350215    000100380000003800000350000003NN  NNW 000                       N    
RDG04912100WATRL000000004K00000000000000111001201112016083322N000000000001U40       000290400K 10000000010000000083           
CUS0491210000106442005002         KETSELA NARDOST     9816 BIGGS RD                           000N        CARE OF             
MTR04912100001000000000000000RA              79833748    000100390000003900000360000003NN  NNW 000                       N    
RDG04912100WATRL000000004R00000000000000001000001062016112526N000300000010U         001760400R 10000000010000000000           
RFF0491210070447101      ERT      0000  956.44375000140000010620161125260000013442100W 1220000N                               
CUS0491210000106442006000         FREEMAN NA'IM H     9818 BIGGS RD                           000N        CARE OF             
MTR04912100001000000000000000RA              00166366    000100400000004000000570000003NN  NNW 000   VACANT / LOT        N    
RDG04912100WATRL000000004K00000000000000000001101112016083159S001000000000U40       000200400K 10000000010000000099           
CUS0491210000106442007008         TAYLOR DECARLOS E   9820 BIGGS RD                           000N        CARE OF             
MTR04912100001000000000000000RA              00166367    000100410000004100000570000000NN  NNW 000                       N    
RDG04912100WATRL000000004K00000000000000000001001112016083139S001000000000U40       000310400K 10000000010000000142           
CUS0491210000106442008006         MILAM WILLIAM       9822 BIGGS RD                           000N        CARE OF             
MTR04912100001000000000000000RA              79833829    000100420000004200000360000003NN  NNW 000                       N    
RDG04912100WATRL000000004R00000000000000003000001062016112522N000300000010U         001770400R 10000000010000000000           
RFF0491210070448175      ERT      0000  956.44375000140000010620161125220000033184100W 1220000N                               
CUS0491210000106442009004         FRIMPONG ALFRED     9824 BIGGS RD                           000N        CARE OF             
MTR04912100001000000000000000RA              79833774    000100430000004300000360000003NN  NNW 000                       N    
RDG04912100WATRL000000004R00000000000000007000001062016112526N000300000010U         001760400R 10000000010000000000           
RFF0491210070448134      ERT      0000  956.44375000140000010620161125260000070212100W 1220000N                               
CUS0491210000106442010002         WILLIAMS CLARENCE F,9826 BIGGS RD                           000N        CARE OF             
MTR04912100001000000000000000RA              00166186    000100440000004400000570000003NN  NNW 000                       N    
RDG04912100WATRL000000004K00000000000000000000901112016083108S001000000000U40       000370400K 10000000010000000222           
CUS0491210000106442011000         BRANSBY RICHARD W   9828 BIGGS RD                           000N        CARE OF             
MTR04912100001000000000000000RA              79833768    000100450000004500000360000003NN  NNW 000                       N    
RDG04912100WATRL000000004R00000000000000002000001062016112510N000300000010U         001760400R 10000000010000000000           
RFF0491210070447086      ERT      0000  956.44375000140000010620161125100000023493100W 1220000N                               
CUS0491210000106442012008         TAYLOR FRANCES NADIN9830 BIGGS RD                           000N        CARE OF             
MTR04912100001000000000000000RA              00166206    000100460000004600000570000003NN  NNW 000                       N    
RDG04912100WATRL000000004K00000000000000560000801112016083031N000400000010U40       000500400K 10000000010000000550           
CUS0491210000106442013006         MILLS VERNON        9832 BIGGS RD                           000N        CARE OF             
MTR04912100001000000000000000RA              00166164    000100470000004700000570000003NN  NNW 000                       N    
RDG04912100WATRL000000004K00000000000000429000701112016082941N000000000000U40       000600400K 10000000010000000405           
CUS0491210000106442014004         GILL BRIAN C        9834 BIGGS RD                           000N        CARE OF             
MTR04912100001000000000000000RA              99999999    000100480000004800000440000003NN  NNW 000                       N    
RDG04912100WATRL000000004K00000000000000514000601112016082841N000000000000U40       000320400K 10000000010000000489           
CUS0491210000106442016009         RACHEL &JAMES MORISS9836 BIGGS RD                           000N        CARE OF             
MTR04912100001000000000000000RA              00166058    000100490000004900000570000003NN  NNW 000                       N    
RDG04912100WATRL000000004K00000000000000000000501112016082809S001000000000U40       000300400K 10000000010000000423           
CUS0491210000106442015001         NGUYEN TONYA        9838 BIGGS RD                           000N        CARE OF             
MTR04912100001000000000000000RA              99999999    000100500000005000000440000003NN  NNW 000                       N    
RDG04912100WATRL000000004K00000000000000561000401112016082739N000000000000U40       001650400K 10000000010000000520           
CUS0491210000106442017007         PRIDGEN MARILYN     9840 BIGGS RD                           000N        CARE OF             
MTR04912100001000000000000000RA              79833757    000100510000005100000360000003NN  NNW 000                       N    
RDG04912100WATRL000000004R00000000000000001000001062016112508N000300000010U         001770400R 10000000010000000000           
RFF0491210070303197      ERT      0000  956.44375000140000010620161125080000015573100W 1220000N                               
CUS0491210000106442018005         PETROVIA DOMINIC    9842 BIGGS RD                           000N        CARE OF             
MTR04912100001000000000000000RA              79833756    000100520000005200000360000003NN  NNW 000                       N    
RDG04912100WATRL000000004R00000000000000000000001062016112506N000100000010U         001760400R 10000000010000000000           
RFF0491210070303194      ERT      0000  956.44375000140000010620161125060000006787100W 1220000N                               
CUS0491210000106444570003         ITWARU CLIFF        721 SHERMAN RD                          000N        CARE OF             
MTR04912100001000000000000000RA              79833287    000100530000005300000360000003NN  NNW 000                       N    
RDG04912100WATRL000000004R00000000000000003000001062016112520N000300000010U         001770400R 10000000010000000000           
RFF0491210070310804      ERT      0000  956.44375000140000010620161125200000030048100W 1220000N                               
CUS0491210000106444569005         TREVOR DURHAM       719 SHERMAN RD                          000N        CARE OF             
MTR04912100001000000000000000RA              79833286    000100540000005400000360000003NN  NNW 000                       N    
RDG04912100WATRL000000004R00000000000000002000001062016112522N000300000010U         001760400R 10000000010000000000           
RFF0491210070310801      ERT      0000  956.44375000140000010620161125220000020454100W 1220000N                               
CUS0491210000106444568007         CENG SUE ZHAO SHU(P.717 SHERMAN RD                          000N        CARE OF             
MTR04912100001000000000000000RA              79833304    000100550000005500000360000003NN  NNW 000                       N    
RDG04912100WATRL000000004R00000000000000006000001062016112514N000300000010U         001760400R 10000000010000000000           
RFF0491210070310785      ERT      0000  956.44375000140000010620161125140000066990100W 1220000N                               
CUS0491210000106444567009         LISA EIBEN          715 SHERMAN RD                          000N        CARE OF             
MTR04912100001000000000000000RA              79833305    000100560000005600000360000003NN  NNW 000                       N    
RDG04912100WATRL000000004R00000000000000000000001062016112510N000100000010U         001770400R 10000000010000000000           
RFF0491210070310799      ERT      0000  956.44375000140000010620161125100000009691100W 1220000N                               
CUS0491210000106444565003         LARRY A. ASHE       713 SHERMAN RD                          000N        CARE OF             
MTR04912100001000000000000000RA              79833281    000100570000005700000360000003NN  NNW 000                       N    
RDG04912100WATRL000000004R00000000000000001000001062016112426N000300000010U         001760400R 10000000010000000000           
RFF0491210070292043      ERT      0000  956.44375000140000010620161124260000016645100W 1220000N                               
CUS0491210000106444564006         DONG YUE            711 SHERMAN RD                          000N        CARE OF             
MTR04912100001000000000000000RA              79833280    000100580000005800000360000003NN  NNW 000                       N    
RDG04912100WATRL000000004R00000000000000012000001062016112534N000300000010U         001760400R 10000000010000000000           
RFF0491210070292042      ERT      0000  956.44375000140004010620161125340000127945100W 1220000N                               
CUS0491210000106444563008         ARYA RAVI           709 SHERMAN RD                          000N        CARE OF             
MTR04912100001000000000000000RA              79833337    000100590000005900000360000003NN  NNW 000                       N    
RDG04912100WATRL000000004R00000000000000005000001062016112514N000300000010U         001770400R 10000000010000000000           
RFF0491210070310796      ERT      0000  956.44375000140000010620161125140000055264100W 1220000N                               
CUS0491210000106444562000         DAVID DING          707 SHERMAN RD                          000N        CARE OF             
MTR04912100001000000000000000RA              79833663    000100600000006000000360000003NN  NNW 000                       N    
RDG04912100WATRL000000004R00000000000000003000001062016112506N000300000010U         001760400R 10000000010000000000           
RFF0491210070292944      ERT      0000  956.44375000140000010620161125060000032232100W 1220000N                               
CUS0491210000104441354000         MARIANO ALVIN L     9600 MAXWELL RD                         000N        CARE OF             
MTR04912100001000000000000000RA              79855029    005800610000006100000360000003NN  NNW 000                       N    
RDG04912100WATRL000000004R00000000000000006000001062016113858N000300000010U         001760400R 10000000010000000000           
RFF0491210070432755      ERT      0000  956.44375000140000010620161138580000062701100W 1220000N                               
CUS0491210000104441355007         CARR WILLIAM L,JR   9602 MAXWELL RD                         000N        CARE OF             
MTR04912100001000000000000000RA              79854978    005800620000006200000360000003NN  NNW 000                       N    
RDG04912100WATRL000000004R00000000000000003000001062016112404N000300000010U         001770400R 10000000010000000000           
RFF0491210070432731      ERT      0000  956.44375000140000010620161124040000037629100W 1220000N                               
CUS0491210000104441356005         KETANKUMAR S. PATEL 9604 MAXWELL RD                         000N        CARE OF             
MTR04912100001000000000000000RA              79855028    005800630000006300000360000003NN  NNW 000                       N    
RDG04912100WATRL000000004R00000000000000001000001062016112350N000300000010U         001760400R 10000000010000000000           
RFF0491210070432795      ERT      0000  956.44375000140000010620161123500000016543100W 1220000N                               
CUS0491210000104441358001         GUNN MARTINO C      9606 MAXWELL RD                         000N        CARE OF             
MTR04912100001000000000000000RA              10009561    005800640000006400000570000003NN  NNW 000                       N    
RDG04912100WATRL000000004K00000000000000000004701112016092212S001000000000U40       000510400K 10000000010000000196           
CUS0491210000104441361005         DAVIES EMMANUEL     9608 MAXWELL RD                         000N        CARE OF             
MTR04912100001000000000000000RA              79855020    005800650000006500000360000003NN  NNW 000                       N    
RDG04912100WATRL000000004R00000000000000012000001062016113508N000300000010U         001760400R 10000000010000000000           
RFF0491210070433053      ERT      0000  956.44375000140004010620161135080000128180100W 1220000N                               
CUS0491210000104441362003         MARTINEZ ROSALIE M  9610 MAXWELL RD                         000N        CARE OF             
MTR04912100001000000000000000RA              79855056    005800660000006600000360000003NN  NNW 000                       N    
RDG04912100WATRL000000004R00000000000000007000001062016113706N000300000010U         001770400R 10000000010000000000           
RFF0491210070431846      ERT      0000  956.44375000140004010620161137060000072981100W 1220000N                               
CUS0491210000104441363001         CHEN FANG           9612 MAXWELL RD                         000N        CARE OF             
MTR04912100001000000000000000RA              79855054    005800670000006700000360000003NN  NNW 000                       N    
RDG04912100WATRL000000004R00000000000000013000001062016113316N000300000010U         001760400R 10000000010000000000           
RFF0491210070432352      ERT      0000  956.44375000140004010620161133160000132332100W 1220000N                               
CUS0491210000104441366004         DONG CHAO           9614 MAXWELL RD                         000N        CARE OF             
MTR04912100001000000000000000RA              79855018    005800680000006800000360000003NN  NNW 000                       N    
RDG04912100WATRL000000004R00000000000000005000001062016113200N000300000010U         001760400R 10000000010000000000           
RFF0491210070431523      ERT      0000  956.44375000140000010620161132000000055558100W 1220000N                               
CUS0491210000104441367002         PETERSON TIZIANA I  9616 MAXWELL RD                         000N        CARE OF             
MTR04912100001000000000000000RA              79854975    005800690000006900000360000003NN  NNW 000                       N    
RDG04912100WATRL000000004R00000000000000000000001062016112356N000100000010U         001770400R 10000000010000000000           
RFF0491210070432738      ERT      0000  956.44375000140000010620161123560000000020100W 1220000N                               
CUS0491210000104441368000         KLACIK JEFFREY T    9618 MAXWELL RD                         000N        CARE OF             
MTR04912100001000000000000000RA              79855017    005800700000007000000360000003NN  NNW 000                       N    
RDG04912100WATRL000000004R00000000000000005000001062016112350N000300000010U         001760400R 10000000010000000000           
RFF0491210070432748      ERT      0000  956.44375000140000010620161123500000058425100W 1220000N                               
CUS0491210000104441369008         ARRON MANGOROBAN    9620 MAXWELL RD                         000N        CARE OF             
MTR04912100001000000000000000RA              79854974    005800710000007100000360000003NN  NNW 000                       N    
RDG04912100WATRL000000004R00000000000000004000001062016112432N000300000010U         001760400R 10000000010000000000           
RFF0491210070432718      ERT      0000  956.44375000140000010620161124320000040693100W 1220000N                               
CUS0491210000104441370006         MORALES PUERTORICO R9622 MAXWELL RD                         000N        CARE OF             
MTR04912100001000000000000000RA              79854962    005800720000007200000360000003NN  NNW 000                       N    
RDG04912100WATRL000000004R00000000000000005000001062016112402N000300000010U         001770400R 10000000010000000000           
RFF0491210070432801      ERT      0000  956.44375000140000010620161124020000056152100W 1220000N                               
CUS0491210000104441371004         WHARTON DARNYLE K   9624 MAXWELL RD                         000N        CARE OF             
MTR04912100001000000000000000RA              79855057    005800730000007300000360000003NN  NNW 000                       N    
RDG04912100WATRL000000004R00000000000000007000001062016112412N000300000010U         001760400R 10000000010000000000           
RFF0491210070431558      ERT      0000  956.44375000140004010620161124120000072168100W 1220000N                               
CUS0491210000104441372002         THOMAS SHEILA A     9626 MAXWELL RD                         000N        CARE OF             
MTR04912100001000000000000000RA              79854977    005800740000007400000360000003NN  NNW 000                       N    
RDG04912100WATRL000000004R00000000000000005000001062016112400N000300000010U         001770400R 10000000010000000000           
RFF0491210070432758      ERT      0000  956.44375000140000010620161124000000055112100W 1220000N                               
CUS0491210000104441373000         CANTORIA ALFREDO MAG9628 MAXWELL RD                         000N        CARE OF             
MTR04912100001000000000000000RA              79855053    005800750000007500000360000003NN  NNW 000                       N    
RDG04912100WATRL000000004R00000000000000005000001062016112352N000300000010U         001760400R 10000000010000000000           
RFF0491210070432784      ERT      0000  956.44375000140000010620161123520000053830100W 1220000N                               
CUS0491210000106443187007         TENNESSEE DEBBRA E  716 PETERSON RD                         000N        CARE OF             
MTR04912100001000000000000000RA              80058620    005800760000007600000360000003NN  NNW 000                       N    
RDG04912100WATRL000000004R00000000000000000000001062016112352N000100000010U         001760400R 10000000010000000000           
RFF0491210070444936      ERT      0000  956.44375000140000010620161123520000009322100W 1220000N                               
CUS0491210000106443186009         MCARTHUR JEROME BENJ724 PETERSON RD                         000N        CARE OF             
MTR04912100001000000000000000RA              14928408    005800770000007700000310000003NN  NNW 000                       N    
RDG04912100WATRL000000004K00000000000000000004601112016092121S001000000000U40       001030400K 10000000010000001516           
CUS0491210000106443185001         BRISCOE MARIAN D    726 PETERSON RD                         000N        CARE OF             
MTR04912100001000000000000000RA              80058621    005800780000007800000360000003NN  NNW 000                       N    
RDG04912100WATRL000000004R00000000000000005000001062016112350N000300000010U         001770400R 10000000010000000000           
RFF0491210070444916      ERT      0000  956.44375000140000010620161123500000050566100W 1220000N                               
CUS0491210000106443184004         ROSALES JANETTE G   728 PETERSON RD                         000N        CARE OF             
MTR04912100001000000000000000RA              80058624    005800790000007900000360000003NN  NNW 000                       N    
RDG04912100WATRL000000004R00000000000000005000001062016112458N000300000010U         001760400R 10000000010000000000           
RFF0491210070444914      ERT      0000  956.44375000140000010620161124580000050014100W 1220000N                               
CUS0491210000106443183006         ANOBAS MARILOU R    730 PETERSON RD                         000N        CARE OF             
MTR04912100001000000000000000RA              80058623    005800800000008000000360000003NN  NNW 000                       N    
RDG04912100WATRL000000004R00000000000000027000001062016112458N000300000010U         001760400R 10000000010000000000           
RFF0491210070444850      ERT      0000  956.44375000140004010620161124580000273827100W 1220000N                               
CUS0491210000104444978003         CARRIE OECHSLER     9700 BIGGS RD                           000N        CARE OF             
MTR04912100001000000000000000RA              79833824    000100810000008100000360000003NN  NNW 000                       N    
RDG04912100WATRL000000004R00000000000000003000001062016112526N000300000010U         001770400R 10000000010000000000           
RFF0491210070447033      ERT      0000  956.44375000140000010620161125260000034215100W 1220000N                               
CUS0491210000104444979001         MICHELLE A. VILLA   9702 BIGGS RD                           000N        CARE OF             
MTR04912100001000000000000000RA              79833825    000100820000008200000360000003NN  NNW 000                       N    
RDG04912100WATRL000000004R00000000000000003000001062016112526N000300000010U         001760400R 10000000010000000000           
RFF0491210070447098      ERT      0000  956.44375000140000010620161125260000033991100W 1220000N                               
CUS0491210000104444980009         POLISZCZUK ANTOINIA 9704 BIGGS RD                           000N        CARE OF             
MTR04912100001000000000000000RA              79833800    000100830000008300000360000003NN  NNW 000                       N    
RDG04912100WATRL000000004R00000000000000002000001062016112514N000300000010U         001760400R 10000000010000000000           
RFF0491210070447753      ERT      0000  956.44375000140000010620161125140000029038100W 1220000N                               
CUS0491210000104444981007         SHAKEAD L. WEBSTER  9706 BIGGS RD                           000N        CARE OF             
MTR04912100001000000000000000RA              79833801    000100840000008400000360000003NN  NNW 000                       N    
RDG04912100WATRL000000004R00000000000000009000001062016112528N000300000010U         001770400R 10000000010000000000           
RFF0491210070447740      ERT      0000  956.44375000140000010620161125280000094863100W 1220000N                               
CUS0491210000104444982005         ALEXANDER SHUSHEEN A9708 BIGGS RD                           000N        CARE OF             
MTR04912100001000000000000000RA              79833770    000100850000008500000360000003NN  NNW 000                       N    
RDG04912100WATRL000000004R00000000000000006000001062016112528N000300000010U         001760400R 10000000010000000000           
RFF0491210070448125      ERT      0000  956.44375000140000010620161125280000063761100W 1220000N                               
CUS0491210000104444983003         SHAH HIMANSHU P     9710 BIGGS RD                           000N        CARE OF             
MTR04912100001000000000000000RA              79833771    000100860000008600000360000003NN  NNW 000                       N    
RDG04912100WATRL000000004R00000000000000005000001062016112512N000300000010U         001760400R 10000000010000000000           
RFF0491210070448135      ERT      0000  956.44375000140000010620161125120000059382100W 1220000N                               
CUS0491210000104444984001         MARITES L. DAVID    9712 BIGGS RD                           000N        CARE OF             
MTR04912100001000000000000000RA              79833772    000100870000008700000360000003NN  NNW 000                       N    
RDG04912100WATRL000000004R00000000000000003000001062016112516N000300000010U         001770400R 10000000010000000000           
RFF0491210070448165      ERT      0000  956.44375000140000010620161125160000032389100W 1220000N                               
CUS0491210000104444985008         SALGADO GABRIEL S,2N9714 BIGGS RD                           000N        CARE OF             
MTR04912100001000000000000000RA              79833773    000100880000008800000360000003NN  NNW 000                       N    
RDG04912100WATRL000000004R00000000000000004000001062016112516N000300000010U         001760400R 10000000010000000000           
RFF0491210070448160      ERT      0000  956.44375000140000010620161125160000040800100W 1220000N                               
CUS0491210000104444986006         TENOR CORNELIUS     9716 BIGGS RD                           000N        CARE OF             
MTR04912100001000000000000000RA              79833822    000100890000008900000360000003NN  NNW 000                       N    
RDG04912100WATRL000000004R00000000000000009000001062016112512N000300000010U         001760400R 10000000010000000000           
RFF0491210070448216      ERT      0000  956.44375000140004010620161125120000098946100W 1220000N                               
CUS0491210000104444987004         MAE M. CLARK        9718 BIGGS RD                           000N        CARE OF             
MTR04912100001000000000000000RA              79833823    000100900000009000000360000003NN  NNW 000                       N    
RDG04912100WATRL000000004R00000000000000000000001062016112526N000100000010U         001770400R 10000000010000000000           
RFF0491210070448199      ERT      0000  956.44375000140000010620161125260000007000100W 1220000N                               
CUS0491210000104444988002         LIU QING            9720 BIGGS RD                           000N        CARE OF             
MTR04912100001000000000000000RA              79833802    000100910000009100000360000003NN  NNW 000                       N    
RDG04912100WATRL000000004R00000000000000002000001062016112514N000300000010U         001760400R 10000000010000000000           
RFF0491210070447082      ERT      0000  956.44375000140000010620161125140000026765100W 1220000N                               
CUS0491210000104444997003         VAETH LAURA M       9724 BIGGS RD                           000N        CARE OF             
MTR04912100001000000000000000RA              79833817    000100920000009200000360000003NN  NNW 000                       N    
RDG04912100WATRL000000004R00000000000000001000001062016112530N000300000010U         001770400R 10000000010000000000           
RFF0491210070447091      ERT      0000  956.44375000140000010620161125300000018824100W 1220000N                               
CUS0491210000106441979009         LEAR JANICE L       9726 BIGGS RD                           000N        CARE OF             
MTR04912100001000000000000000RA              79833816    000100930000009300000360000003NN  NNW 000                       N    
RDG04912100WATRL000000004R00000000000000001000001062016112514N000300000010U         001760400R 10000000010000000000           
RFF0491210070447087      ERT      0000  956.44375000140000010620161125140000019772100W 1220000N                               
CUS0491210000106441980007         RUEDA LOURDES       9728 BIGGS RD                           000N        CARE OF             
MTR04912100001000000000000000RA              79833803    000100940000009400000360000003NN  NNW 000                       N    
RDG04912100WATRL000000004R00000000000000006000001062016112708N000300000010U         001760400R 10000000010000000000           
RFF0491210070447053      ERT      0000  956.44375000140000010620161127080000069349100W 1220000N                               
CUS0491210000106441983001         CUEVAS PILAR VILLEGA9734 BIGGS RD                           000N        CARE OF             
MTR04912100001000000000000000RA              79833791    000100950000009500000360000003NN  NNW 000                       N    
RDG04912100WATRL000000004R00000000000000002000001062016112512N000300000010U         001770400R 10000000010000000000           
RFF0491210070447736      ERT      0000  956.44375000140000010620161125120000026864100W 1220000N                               
CUS0491210000106441981005         BOLICK JENNIFER     9730 BIGGS RD                           000N        CARE OF             
MTR04912100001000000000000000RA              79656978    000100960000009600000360000003NN  NNW 000                       N    
RDG04912100WATRL000000004R00000000000000002000001062016112518N000300000010U         001760400R 10000000010000000000           
RFF0491210070292942      ERT      0000  956.44375000140000010620161125180000027078100W 1220000N                               
CUS0491210000106441982003         RIVAS REYNALDO      9732 BIGGS RD                           000N        CARE OF             
MTR04912100001000000000000000RA              79833812    000100970000009700000360000003NN  NNW 000                       N    
RDG04912100WATRL000000004R00000000000000004000001062016112510N000300000010U         001760400R 10000000010000000000           
RFF0491210070448221      ERT      0000  956.44375000140000010620161125100000041776100W 1220000N                               
CUS0491210000106441984009         OLIVER JASON L      9736 BIGGS RD                           000N        CARE OF             
MTR04912100001000000000000000RA              00165564    000100980000009800000570000003NN  NNW 000                       N    
RDG04912100WATRL000000004K00000000000000000001701112016083957S001000000000U40       000390400K 10000000010000000708           
CUS0491210000106441985006         GWALTNEY DANIEL S   9738 BIGGS RD                           000N        CARE OF             
MTR04912100001000000000000000RA              79833840    000100990000009900000360000003NN  NNW 000                       N    
RDG04912100WATRL000000004R00000000000000005000001062016112526N000300000010U         001770400R 10000000010000000000           
RFF0491210070447108      ERT      0000  956.44375000140004010620161125260000050680100W 1220000N                               
CUS0491210000106441986004         VANESSA O. SEALY    9740 BIGGS RD                           000N        CARE OF             
MTR04912100001000000000000000RA              79833841    000101000000010000000360000003NN  NNW 000                       N    
RDG04912100WATRL000000004R00000000000000014000001062016112604N000300000010U         001760400R 10000000010000000000           
RFF0491210070447107      ERT      0000  956.44375000140000010620161126040000140626100W 1220000N                               
CUS0491210000106441987002         KIMBERLY A MORNINGST9742 BIGGS RD                           000N        CARE OF             
MTR04912100001000000000000000RA              00166114    000101010000010100000570000003NN  NNW 000                       N    
RDG04912100WATRL000000004K00000000000000000001601112016083918S001000000000U40       002220400K 10000000010000000224           
CUS0491210000106441988000         CHRISTOPHER M FISCHE9744 BIGGS RD                           000N        CARE OF             
MTR04912100001000000000000000RA              79833752    000101020000010200000360000003NN  NNW 000                       N    
RDG04912100WATRL000000004R00000000000000005000001062016112630N000300000010U         001760400R 10000000010000000000           
RFF0491210070447089      ERT      0000  956.44375000140000010620161126300000052203100W 1220000N                               
CUS0491210000106441989008         STEFAN LITVAK       9746 BIGGS RD                           000N        CARE OF             
MTR04912100001000000000000000RA              79833753    000101030000010300000360000003NN  NNW 000                       N    
RDG04912100WATRL000000004R00000000000000000000001062016112542N000100000010U         001770400R 10000000010000000000           
RFF0491210070447135      ERT      0000  956.44375000140000010620161125420000005434100W 1220000N                               
CUS0491210000106441990006         HUDSON PATRICIA A   9748 BIGGS RD                           000N        CARE OF             
MTR04912100001000000000000000RA              79833790    000101040000010400000360000003NN  NNW 000                       N    
RDG04912100WATRL000000004R00000000000000000000001062016112618N000100000010U         001760400R 10000000010000000000           
RFF0491210070447072      ERT      0000  956.44375000140000010620161126180000005335100W 1220000N                               
CUS0491210000106443975005         HENRY E. CURRY 3RD  9806 DAVISON RD                         000N        CARE OF             
MTR04912100001000000000000000RA              79657114    000101050000010500000360000003NN  NNW 000                       N    
RDG04912100WATRL000000004R00000000000000010000001062016112742N000300000010U         001760400R 10000000010000000000           
RFF0491210070430609      ERT      0000  956.44375000140000010620161127420000103461100W 1220000N                               
CUS0491210000106443974008         GLENN PURNELL W     9808 DAVISON RD                         000N        CARE OF             
MTR04912100001000000000000000RA              79657115    000101060000010600000360000003NN  NNW 000                       N    
RDG04912100WATRL000000004R00000000000000003000001062016112742N000300000010U         001770400R 10000000010000000000           
RFF0491210070439835      ERT      0000  956.44375000140000010620161127420000033480100W 1220000N                               
CUS0491210000106443973000         HALE TIMOTHY D      9810 DAVISON RD                         000N        CARE OF             
MTR04912100001000000000000000RA              79657051    000101070000010700000360000003NN  NNW 000                       N    
RDG04912100WATRL000000004R00000000000000000000001062016112738N000100000010U         001760400R 10000000010000000000           
RFF0491210070293409      ERT      0000  956.44375000140000010620161127380000001635100W 1220000N                               
CUS0491210000106443972002         REDERAL NATIONAL MOR9812 DAVISON RD                         000N        CARE OF             
MTR04912100001000000000000000RA              79657050    000101080000010800000360000003NN  NNW 000                       N    
RDG04912100WATRL000000004R00000000000000005000001062016112732N000300000010U         001760400R 10000000010000000000           
RFF0491210070292990      ERT      0000  956.44375000140000010620161127320000056409100W 1220000N                               
CUS0491210000106443971004         JONES NIKOLE S      9814 DAVISON RD                         000N        CARE OF             
MTR04912100001000000000000000RA              79833426    000101090000010900000360000003NN  NNW 000                       N    
RDG04912100WATRL000000004R00000000000000009000001062016112928N000300000010U         001770400R 10000000010000000000           
RFF0491210070447088      ERT      0000  956.44375000140000010620161129280000096223100W 1220000N                               
CUS0491210000106443970006         JOHN JOHNSON        9816 DAVISON RD                         000N        CARE OF             
MTR04912100001000000000000000RA              79833427    000101100000011000000360000003NN  NNW 000                       N    
RDG04912100WATRL000000004R00000000000000003000001062016112732N000300000010U         001760400R 10000000010000000000           
RFF0491210070447362      ERT      0000  956.44375000140000010620161127320000034078100W 1220000N                               
CUS0491210000106443969008         CHENG YUNG SANG     9818 DAVISON RD                         000N        CARE OF             
MTR04912100001000000000000000RA              79833353    000101110000011100000360000003NN  NNW 000                       N    
RDG04912100WATRL000000004R00000000000000007000001062016112718N000300000010U         001760400R 10000000010000000000           
RFF0491210070448729      ERT      0000  956.44375000140000010620161127180000070198100W 1220000N                               
CUS0491210000106443968000         ELLEN A OPOKU       9829 DAVISON RD                         000N        CARE OF             
MTR04912100001000000000000000RA              79833352    000101120000011200000360000003NN  NNW 000                       N    
RDG04912100WATRL000000004R00000000000000021000001062016112542N000300000010U         001770400R 10000000010000000000           
RFF0491210070448722      ERT      0000  956.44375000140004010620161125420000210800100W 1220000N                               
CUS0491210000106443967002         ROBINSON RUGELEY E J9827 DAVISON RD                         000N        CARE OF             
MTR04912100001000000000000000RA              79657142    000101130000011300000360000003NN  NNW 000                       N    
RDG04912100WATRL000000004R00000000000000015000001062016112708N000300000010U         001760400R 10000000010000000000           
RFF0491210070430686      ERT      0000  956.44375000140004010620161127080000151087100W 1220000N                               
CUS0491210000106443966004         HARLEY FRANK K      9825 DAVISON RD                         000N        CARE OF             
MTR04912100001000000000000000RA              79657143    000101140000011400000360000003NN  NNW 000                       N    
RDG04912100WATRL000000004R00000000000000007000001062016112516N000300000010U         001770400R 10000000010000000000           
RFF0491210070430684      ERT      0000  956.44375000140000010620161125160000076348100W 1220000N                               
CUS0491210000106443965006         JOHNSON ROBERT R    9823 DAVISON RD                         000N        CARE OF             
MTR04912100001000000000000000RA              79657071    000101150000011500000360000003NN  NNW 000                       N    
RDG04912100WATRL000000004R00000000000000007000001062016112630N000300000010U         001760400R 10000000010000000000           
RFF0491210070051236      ERT      0000  956.44375000140004010620161126300000071758100W 1220000N                               
CUS0491210000106443964009         SHAMIM ARSHED       9821 DAVISON RD                         000N        CARE OF             
MTR04912100001000000000000000RA              79657070    000101160000011600000360000003NN  NNW 000                       N    
RDG04912100WATRL000000004R00000000000000008000001062016112720N000300000010U         001760400R 10000000010000000000           
RFF0491210070051262      ERT      0000  956.44375000140000010620161127200000085725100W 1220000N                               
CUS0491210000106443963001         BERYL L PIERCE      9819 DAVISON RD                         000N        CARE OF             
MTR04912100001000000000000000RA              79657069    000101170000011700000360000003NN  NNW 000                       N    
RDG04912100WATRL000000004R00000000000000017000001062016112520N000300000010U         001770400R 10000000010000000000           
RFF0491210070430701      ERT      0000  956.44375000140000010620161125200000177622100W 1220000N                               
CUS0491210000106443962003         AGDHIYA DHIRU N     9817 DAVISON RD                         000N        CARE OF             
MTR04912100001000000000000000RA              79657068    000101180000011800000360000003NN  NNW 000                       N    
RDG04912100WATRL000000004R00000000000000014000001062016112512N000300000010U         001760400R 10000000010000000000           
RFF0491210070430700      ERT      0000  956.44375000140004010620161125120000149356100W 1220000N                               
CUS0491210000106443961005         CHARLES A SCOTT     9815 DAVISON RD                         000N        CARE OF             
MTR04912100001000000000000000RA              79657089    000101190000011900000360000003NN  NNW 000                       N    
RDG04912100WATRL000000004R00000000000000010000001062016112728N000300000010U         001760400R 10000000010000000000           
RFF0491210070289067      ERT      0000  956.44375000140004010620161127280000106281100W 1220000N                               
CUS0491210000106443960007         GORDON ALISHA A     9813 DAVISON RD                         000N        CARE OF             
MTR04912100001000000000000000RA              79657088    000101200000012000000360000003NN  NNW 000                       N    
RDG04912100WATRL000000004R00000000000000022000001062016112736N000300000010U         001770400R 10000000010000000000           
RFF0491210070292628      ERT      0000  956.44375000140004010620161127360000222362100W 1220000N                               
CUS0491210000106443959009         MCCOLLUM BURNA L    9811 DAVISON RD                         000N        CARE OF             
MTR04912100001000000000000000RA              79656980    000101210000012100000360000003NN  NNW 000                       N    
RDG04912100WATRL000000004R00000000000000003000001062016112712N000300000010U         001760400R 10000000010000000000           
RFF0491210070430661      ERT      0000  956.44375000140000010620161127120000036316100W 1220000N                               
CUS0491210000106443958001         AZONG VINCENT A     9809 DAVISON RD                         000N        CARE OF             
MTR04912100001000000000000000RA              79656981    000101220000012200000360000003NN  NNW 000                       N    
RDG04912100WATRL000000004R00000000000000008000001062016112736N000300000010U         001760400R 10000000010000000000           
RFF0491210070430695      ERT      0000  956.44375000140000010620161127360000080223100W 1220000N                               
CUS0491210000106443957003         KADIRI KENNETH A    9807 DAVISON RD                         000N        CARE OF             
MTR04912100001000000000000000RA              79657157    000101230000012300000360000003NN  NNW 000                       N    
RDG04912100WATRL000000004R00000000000000000000001062016112736N000100000010U         001770400R 10000000010000000000           
RFF0491210070430694      ERT      0000  956.44375000140000010620161127360000000019100W 1220000N                               
CUS0491210000106443956005         PATRICK UMEZURIKE   9805 DAVISON RD                         000N        CARE OF             
MTR04912100001000000000000000RA              79657156    000101240000012400000360000003NN  NNW 000                       N    
RDG04912100WATRL000000004R00000000000000007000001062016112746N000300000010U         001760400R 10000000010000000000           
RFF0491210070441135      ERT      0000  956.44375000140000010620161127460000078784100W 1220000N                               
CUS0491210000106443955007         WELCH RAQUEL M      9803 DAVISON RD                         000N        CARE OF             
MTR04912100001000000000000000RA              79833420    000101250000012500000360000003NN  NNW 000                       N    
RDG04912100WATRL000000004R00000000000000012000001062016112732N000300000010U         001760400R 10000000010000000000           
RFF0491210070303230      ERT      0000  956.44375000140004010620161127320000120559100W 1220000N                               
CUS0491210000106443954000         WILLIAMS SHERRIE    9801 DAVISON RD                         000N        CARE OF             
MTR04912100001000000000000000RA              79833421    000101260000012600000360000003NN  NNW 000                       N    
RDG04912100WATRL000000004R00000000000000009000001062016112726N000300000010U         001770400R 10000000010000000000           
RFF0491210070303206      ERT      0000  956.44375000140000010620161127260000097441100W 1220000N                               
CUS0491210000106443953002         REY CATHERINE       9731 DAVISON RD                         000N        CARE OF             
MTR04912100001000000000000000RA              79657024    000101270000012700000360000003NN  NNW 000                       N    
RDG04912100WATRL000000004R00000000000000003000001062016112732N000300000010U         001760400R 10000000010000000000           
RFF0491210070441133      ERT      0000  956.44375000140000010620161127320000031596100W 1220000N                               
CUS0491210000106443952004         FERRELL GEQUETA     9729 DAVISON RD                         000N        CARE OF             
MTR04912100001000000000000000RA              79657025    000101280000012800000360000003NN  NNW 000                       N    
RDG04912100WATRL000000004R00000000000000005000001062016112730N000300000010U         001760400R 10000000010000000000           
RFF0491210070440947      ERT      0000  956.44375000140008010620161127300000055262100W 1220000N                               
CUS0491210000106443951006         BING LIN            9727 DAVISON RD                         000N        CARE OF             
MTR04912100001000000000000000RA              79657119    000101290000012900000360000003NN  NNW 000                       N    
RDG04912100WATRL000000004R00000000000000005000001062016112742N000300000010U         001770400R 10000000010000000000           
RFF0491210070441113      ERT      0000  956.44375000140000010620161127420000052298100W 1220000N                               
CUS0491210000106443950008         ROPER TYRONE,SR     9725 DAVISON RD                         000N        CARE OF             
MTR04912100001000000000000000RA              79833369    000101300000013000000360000003NN  NNW 000                       N    
RDG04912100WATRL000000004R00000000000000004000001062016112732N000300000010U         001760400R 10000000010000000000           
RFF0491210070448589      ERT      0000  956.44375000140000010620161127320000043587100W 1220000N                               
CUS0491210000106443949000         WANG DAN FENG       9723 DAVISON RD                         000N        CARE OF             
MTR04912100001000000000000000RA              79833368    000101310000013100000360000003NN  NNW 000                       N    
RDG04912100WATRL000000004R00000000000000005000001062016112740N000300000010U         001770400R 10000000010000000000           
RFF0491210070448658      ERT      0000  956.44375000140000010620161127400000057613100W 1220000N                               
CUS0491210000106443948002         MARGUITA J. LEONARD 9721 DAVISON RD                         000N        CARE OF             
MTR04912100001000000000000000RA              79833381    000101320000013200000360000003NN  NNW 000                       N    
RDG04912100WATRL000000004R00000000000000007000001062016112748N000300000010U         001760400R 10000000010000000000           
RFF0491210070448161      ERT      0000  956.44375000140000010620161127480000071716100W 1220000N                               
CUS0491210000106443947004         RUSSELL JAMAR       9719 DAVISON RD                         000N        CARE OF             
MTR04912100001000000000000000RA              79833380    000101330000013300000360000003NN  NNW 000                       N    
RDG04912100WATRL000000004R00000000000000013000001062016112732N000300000010U         001760400R 10000000010000000000           
RFF0491210070448137      ERT      0000  956.44375000140004010620161127320000136436100W 1220000N                               
CUS0491210000106443946006         CAMERON ALLEN       9717 DAVISON RD                         000N        CARE OF             
MTR04912100001000000000000000RA              79833419    000101340000013400000360000003NN  NNW 000                       N    
RDG04912100WATRL000000004R00000000000000002000001062016112614N000300000010U         001770400R 10000000010000000000           
RFF0491210070447400      ERT      0000  956.44375000140000010620161126140000029310100W 1220000N                               
CUS0491210000106445172007         HARRY W MARTIN      9715 DAVISON RD                         000N        CARE OF             
MTR04912100001000000000000000RA              00166492    000101350000013500000570000000NN  NNW 000                       N    
RDG04912100WATRL000000004K00000000000000440001901112016084535N000000000000U40       003030400K 10000000010000000409           
CUS0491210000106443945008         DIIORIO NICOLE M    9713 DAVISON RD                         000N        CARE OF             
MTR04912100001000000000000000RA              79833418    000101360000013600000360000003NN  NNW 000                       N    
RDG04912100WATRL000000004R00000000000000003000001062016112640N000300000010U         001760400R 10000000010000000000           
RFF0491210070448610      ERT      0000  956.44375000140000010620161126400000033118100W 1220000N                               
CUS0491210000106443944001         TEVES MICHELLE C    9711 DAVISON RD                         000N        CARE OF             
MTR04912100001000000000000000RA              79833393    000101370000013700000360000003NN  NNW 000                       N    
RDG04912100WATRL000000004R00000000000000008000001062016112620N000300000010U         001760400R 10000000010000000000           
RFF0491210070447370      ERT      0000  956.44375000140000010620161126200000080711100W 1220000N                               
CUS0491210000106443498008         CACATIAN GINA E     9709 DAVISON RD                         000N        CARE OF             
MTR04912100001000000000000000RA              79833367    000101380000013800000360000003NN  NNW 000                       N    
RDG04912100WATRL000000004R00000000000000007000001062016112746N000300000010U         001770400R 10000000010000000000           
RFF0491210070447390      ERT      0000  956.44375000140000010620161127460000072688100W 1220000N                               
CUS0491210000106443497000         SUNNY E.IGBORN      9707 DAVISON RD                         000N        CARE OF             
MTR04912100001000000000000000RA              79833366    000101390000013900000360000003NN  NNW 000                       N    
RDG04912100WATRL000000004R00000000000000006000001062016112754N000300000010U         001760400R 10000000010000000000           
RFF0491210070447392      ERT      0000  956.44375000140000010620161127540000067068100W 1220000N                               
CUS0491210000106443496002         KATES DYLAN S       9705 DAVISON RD                         000N        CARE OF             
MTR04912100001000000000000000RA              79833403    000101400000014000000360000003NN  NNW 000                       N    
RDG04912100WATRL000000004R00000000000000003000001062016112638N000300000010U         001760400R 10000000010000000000           
RFF0491210070448177      ERT      0000  956.44375000140000010620161126380000035714100W 1220000N                               
CUS0491210000106443493009         TUCKER DWAYNE A,JR  9703 DAVISON RD                         000N        CARE OF             
MTR04912100001000000000000000RA              99999999    000101410000014100000620000003NY  NNW 000                       N    
MTM0491210099999999    CAR                                                                                                    
RDG04912100WATRL000000004K00000000000000000000000000000000000 000000000000U         000000400  10000000010000000489           
CUS0491210000106443492001         FONTAINE W. SMALLWOO9701 DAVISON RD                         000N        CARE OF             
MTR04912100001000000000000000RA              79833392    000101420000014200000360000003NN  NNW 000                       N    
RDG04912100WATRL000000004R00000000000000001000001062016112604N000300000010U         001770400R 10000000010000000000           
RFF0491210070447347      ERT      0000  956.44375000140000010620161126040000013867100W 1220000N                               
CUS0491210000106443512006         PEDRO MARIA MILARINA9669 DAVISON RD                         000N        CARE OF             
MTR04912100001000000000000000RA              79833402    000101430000014300000360000003NN  NNW 000                       N    
RDG04912100WATRL000000004R00000000000000005000001062016112522N000300000010U         001760400R 10000000010000000000           
RFF0491210070448192      ERT      0000  956.44375000140000010620161125220000051898100W 1220000N                               
CUS0491210000106443511008         KYLE MICHAEL K      9667 DAVISON RD                         000N        CARE OF             
MTR04912100001000000000000000RA              79833390    000101440000014400000360000003NN  NNW 000                       N    
RDG04912100WATRL000000004R00000000000000004000001062016112530N000300000010U         001760400R 10000000010000000000           
RFF0491210070447358      ERT      0000  956.44375000140000010620161125300000048659100W 1220000N                               
CUS0491210000106443510000         HARRISON SHARON     9665 DAVISON RD                         000N        CARE OF             
MTR04912100001000000000000000RA              00166340    000101450000014500000570000003NN  NNW 000                       N    
RDG04912100WATRL000000004K00000000000000341002101112016085339N000000000000U40       004420400K 10000000010000000257           
CUS0491210000106443509002         ANTOINE & ERIKA WHIT9663 DAVISON RD                         000N        CARE OF             
MTR04912100001000000000000000RA              00166369    000101460000014600000570000003NN  NNW 000                       N    
RDG04912100WATRL000000004K00000000000000000002201112016085357S001000000000U40       000180400K 10000000010000000411           
CUS0491210000106443508004         SUO LIPING          9661 DAVISON RD                         000N        CARE OF             
MTR04912100001000000000000000RA              79656975    000101470000014700000360000003NN  NNW 000                       N    
RDG04912100WATRL000000004R00000000000000006000001062016112822N000300000010U         001770400R 10000000010000000000           
RFF0491210070441101      ERT      0000  956.44375000140000010620161128220000069457100W 1220000N                               
CUS0491210000106443507006         OSENI MUINATA       9659 DAVISON RD                         000N        CARE OF             
MTR04912100001000000000000000RA              79656974    000101480000014800000360000003NN  NNW 000                       N    
RDG04912100WATRL000000004R00000000000000002000001062016112822N000300000010U         001760400R 10000000010000000000           
RFF0491210070441134      ERT      0000  956.44375000140000010620161128220000022395100W 1220000N                               
CUS0491210000106443506008         SONG CHOL           9657 DAVISON RD                         000N        CARE OF             
MTR04912100001000000000000000RA              79657066    000101490000014900000360000003NN  NNW 000                       N    
RDG04912100WATRL000000004R00000000000000004000001062016112640N000300000010U         001760400R 10000000010000000000           
RFF0491210070441122      ERT      0000  956.44375000140000010620161126400000041643100W 1220000N                               
CUS0491210000106443505000         SONII JATU J        9655 DAVISON RD                         000N        CARE OF             
MTR04912100001000000000000000RA              00166390    000101500000015000000570000000NN  NNW 000                       N    
RDG04912100WATRL000000004K00000000000000000002301112016085452S001000000000U40       000550400K 10000000010000001102           
CUS0491210000106443504003         LIBERATORE BRET T   9653 DAVISON RD                         000N        CARE OF             
MTR04912100001000000000000000RA              79657092    000101510000015100000360000003NN  NNW 000                       N    
RDG04912100WATRL000000004R00000000000000003000001062016112648N000300000010U         001770400R 10000000010000000000           
RFF0491210070441126      ERT      0000  956.44375000140000010620161126480000032065100W 1220000N                               
CUS0491210000106443503005         THOMPSON DION       9651 DAVISON RD                         000N        CARE OF             
MTR04912100001000000000000000RA              79657093    000101520000015200000360000003NN  NNW 000                       N    
RDG04912100WATRL000000004R00000000000000007000001062016112638N000300000010U         001760400R 10000000010000000000           
RFF0491210070441104      ERT      0000  956.44375000140000010620161126380000073340100W 1220000N                               
CUS0491210000106443502007         DAVIS SIGMOND E     9649 DAVISON RD                         000N        CARE OF             
MTR04912100001000000000000000RA              79656960    000101530000015300000360000003NN  NNW 000                       N    
RDG04912100WATRL000000004R00000000000000004000001062016112840N000300000010U         001760400R 10000000010000000000           
RFF0491210070441124      ERT      0000  956.44375000140000010620161128400000047754100W 1220000N                               
CUS0491210000106443501009         ARACAN CYNTHIA M    9647 DAVISON RD                         000N        CARE OF             
MTR04912100001000000000000000RA              79656961    000101540000015400000360000003NN  NNW 000                       N    
RDG04912100WATRL000000004R00000000000000000000001062016112834N000100000010U         001770400R 10000000010000000000           
RFF0491210070441120      ERT      0000  956.44375000140000010620161128340000000057100W 1220000N                               
CUS0491210000106443500001         LOLIM ANGELA S      9645 DAVISON RD                         000N        CARE OF             
MTR04912100001000000000000000RA              79833379    000101550000015500000360000003NN  NNW 000                       N    
RDG04912100WATRL000000004R00000000000000006000001062016112834N000300000010U         001760400R 10000000010000000000           
RFF0491210070448710      ERT      0000  956.44375000140000010620161128340000068480100W 1220000N                               
CUS0491210000106443499006         GACOSTA NIANN B     9643 DAVISON RD                         000N        CARE OF             
MTR04912100001000000000000000RA              79833378    000101560000015600000360000003NN  NNW 000                       N    
RDG04912100WATRL000000004R00000000000000004000001062016112836N000300000010U         001770400R 10000000010000000000           
RFF0491210070448666      ERT      0000  956.44375000140000010620161128360000040048100W 1220000N                               
CUS0491210000106443485005         CERNECHEZ CARMENCITA9641 DAVISON RD                         000N        CARE OF             
MTR04912100001000000000000000RA              79657118    000101570000015700000360000003NN  NNW 000                       N    
RDG04912100WATRL000000004R00000000000000007000001062016112834N000300000010U         001760400R 10000000010000000000           
RFF0491210070441096      ERT      0000  956.44375000140000010620161128340000071229100W 1220000N                               
CUS0491210000106443484008         YUSI MARILOU V      9639 DAVISON RD                         000N        CARE OF             
MTR04912100001000000000000000RA              79656985    000101580000015800000360000003NN  NNW 000                       N    
RDG04912100WATRL000000004R00000000000000002000001062016112842N000300000010U         001760400R 10000000010000000000           
RFF0491210070441112      ERT      0000  956.44375000140000010620161128420000029179100W 1220000N                               
CUS0491210000106443422008         ANESHEIA WAGSTAFF   9637 DAVISON RD                         000N        CARE OF             
MTR04912100001000000000000000RA              00166784    000101590000015900000570000003NN  NNW 000                       N    
RDG04912100WATRL000000004K00000000000000000002401112016085556S001000000000U40       000640400K 10000000010000000497           
CUS0491210000106443418006         PRICE ROBERT        9635 DAVISON RD                         000N        CARE OF             
MTR04912100001000000000000000RA              79657041    000101600000016000000360000003NN  NNW 000                       N    
RDG04912100WATRL000000004R00000000000000006000001062016112840N000300000010U         001770400R 10000000010000000000           
RFF0491210070441102      ERT      0000  956.44375000140000010620161128400000064445100W 1220000N                               
CUS0491210000106443414005         UBONGEN GLENDA F    9633 DAVISON RD                         000N        CARE OF             
MTR04912100001000000000000000RA              79657040    000101610000016100000360000003NN  NNW 000                       N    
RDG04912100WATRL000000004R00000000000000006000001062016112836N000300000010U         001760400R 10000000010000000000           
RFF0491210070441121      ERT      0000  956.44375000140000010620161128360000066911100W 1220000N                               
CUS0491210000106443413007         GOZA GERALDINE C    9631 DAVISON RD                         000N        CARE OF             
MTR04912100001000000000000000RA              79656988    000101620000016200000360000003NN  NNW 000                       N    
RDG04912100WATRL000000004R00000000000000007000001062016113030N000300000010U         001760400R 10000000010000000000           
RFF0491210070292993      ERT      0000  956.44375000140000010620161130300000073201100W 1220000N                               
CUS0491210000106443412009         ANDERSON JONATHAN B 9629 DAVISON RD                         000N        CARE OF             
MTR04912100001000000000000000RA              79656989    000101630000016300000360000003NN  NNW 000                       N    
RDG04912100WATRL000000004R00000000000000000000001062016112952N000100000010U         001770400R 10000000010000000000           
RFF0491210070292991      ERT      0000  956.44375000140000010620161129520000000020100W 1220000N                               
CUS0491210000106443411001         JACOBS TRISTAN L    9627 DAVISON RD                         000N        CARE OF             
MTR04912100001000000000000000RA              79657000    000101640000016400000360000003NN  NNW 000                       N    
RDG04912100WATRL000000004R00000000000000008000001062016112840N000300000010U         001760400R 10000000010000000000           
RFF0491210070293392      ERT      0000  956.44375000140000010620161128400000082638100W 1220000N                               
CUS0491210000106443410003         J.HUGGINS/A.YANTIS  9625 DAVISON RD                         000N        CARE OF             
MTR04912100001000000000000000RA              79657098    000101650000016500000360000003NN  NNW 000                       N    
RDG04912100WATRL000000004R00000000000000035000001062016112950N000300000010U         001760400R 10000000010000000000           
RFF0491210070051306      ERT      0000  956.44375000140004010620161129500000356987100W 1220000N                               
CUS0491210000106443409005         WOODSON JAMES       9623 DAVISON RD                         000N        CARE OF             
MTR04912100001000000000000000RA              79657099    000101660000016600000360000003NN  NNW 000                       N    
RDG04912100WATRL000000004R00000000000000012000001062016112852N000300000010U         001770400R 10000000010000000000           
RFF0491210070051248      ERT      0000  956.44375000140000010620161128520000127860100W 1220000N                               
CUS0491210000106443319006         KRISAFI MELISSA A   9615 DAVISON RD                         000N        CARE OF             
MTR04912100001000000000000000RA              79656968    000101670000016700000360000003NN  NNW 000                       N    
RDG04912100WATRL000000004R00000000000000004000001062016112946N000300000010U         001760400R 10000000010000000000           
RFF0491210070293524      ERT      0000  956.44375000140000010620161129460000046345100W 1220000N                               
CUS0491210000106443321002         NEKIA S WEAVER      9613 DAVISON RD                         000N        CARE OF             
MTR04912100001000000000000000RA              79657110    000101680000016800000360000003NN  NNW 000                       N    
RDG04912100WATRL000000004R00000000000000045000001062016112830N000300000010U         001760400R 10000000010000000000           
RFF0491210070441108      ERT      0000  956.44375000140000010620161128300000455017100W 1220000N                               
CUS0491210000106443322000         PERRY COLIN L       9611 DAVISON RD                         000N        CARE OF             
MTR04912100001000000000000000RA              79657111    000101690000016900000360000003NN  NNW 000                       N    
RDG04912100WATRL000000004R00000000000000005000001062016112850N000300000010U         001770400R 10000000010000000000           
RFF0491210070441114      ERT      0000  956.44375000140000010620161128500000056757100W 1220000N                               
CUS0491210000106443392003         ROSE MICHELE        9609 DAVISON RD                         000N        CARE OF             
MTR04912100001000000000000000RA              79657145    000101700000017000000360000003NN  NNW 000                       N    
RDG04912100WATRL000000004R00000000000000002000001062016112834N000300000010U         001760400R 10000000010000000000           
RFF0491210070441115      ERT      0000  956.44375000140000010620161128340000021286100W 1220000N                               
CUS0491210000106443393001         CRESIDIO SALVACION P9607 DAVISON RD                         000N        CARE OF             
MTR04912100001000000000000000RA              79657144    000101710000017100000360000003NN  NNW 000                       N    
RDG04912100WATRL000000004R00000000000000006000001062016112832N000300000010U         001760400R 10000000010000000000           
RFF0491210070441091      ERT      0000  956.44375000140000010620161128320000068408100W 1220000N                               
CUS0491210000106443394009         SKINNER YURILETH B  9605 DAVISON RD                         000N        CARE OF             
MTR04912100001000000000000000RA              79833650    000101720000017200000360000003NN  NNW 000                       N    
RDG04912100WATRL000000004R00000000000000006000001062016114418N000300000010U         001770400R 10000000010000000000           
RFF0491210070441131      ERT      0000  956.44375000140000010620161144180000062222100W 1220000N                               
CUS0491210000106443407009         RAMOS MA VILMA B    9603 DAVISON RD                         000N        CARE OF             
MTR04912100001000000000000000RA              79833651    000101730000017300000360000003NN  NNW 000                       N    
RDG04912100WATRL000000004R00000000000000012000001062016113032N000300000010U         001760400R 10000000010000000000           
RFF0491210070441127      ERT      0000  956.44375000140000010620161130320000122968100W 1220000N                               
CUS0491210000106443408007         MAPRANGALA MAE LYN  9601 DAVISON RD                         000N        CARE OF             
MTR04912100001000000000000000RA              79656969    000101740000017400000360000003NN  NNW 000                       N    
RDG04912100WATRL000000004R00000000000000008000001062016113032N000300000010U         001770400R 10000000010000000000           
RFF0491210070293507      ERT      0000  956.44375000140000010620161130320000089736100W 1220000N                               
CUS0491210000104444122008         HOME ADVANTAGE      9602 BIGGS RD                           000N        CARE OF             
MTR04912100001000000000000000RA              79825267    005801750000017500000360000003NN  NNW 000                       N    
RDG04912100WATRL000000004R00000000000000006000001062016112402N000300000010U         001760400R 10000000010000000000           
RFF0491210070234116      ERT      0000  956.44375000140000010620161124020000067123100W 1220000N                               
CUS0491210000104444123006         TATUM IRENE         9604 BIGGS RD                           000N        CARE OF             
MTR04912100001000000000000000RA              79825266    005801760000017600000360000003NN  NNW 000                       N    
RDG04912100WATRL000000004R00000000000000005000001062016112436N000300000010U         001760400R 10000000010000000000           
RFF0491210070233252      ERT      0000  956.44375000140000010620161124360000053696100W 1220000N                               
CUS0491210000104444124004         AGOMMUO CHITURU ADAN9606 BIGGS RD                           000N        CARE OF             
MTR04912100001000000000000000RA              79825265    005801770000017700000360000003NN  NNW 000                       N    
RDG04912100WATRL000000004R00000000000000009000001062016113040N000300000010U         001770400R 10000000010000000000           
RFF0491210070233241      ERT      0000  956.44375000140000010620161130400000093412100W 1220000N                               
CUS0491210000104444125001         INKENBRANDT CARI M  9608 BIGGS RD                           000N        CARE OF             
MTR04912100001000000000000000RA              79825210    005801780000017800000360000003NN  NNW 000                       N    
RDG04912100WATRL000000004R00000000000000002000001062016113148N000300000010U         001760400R 10000000010000000000           
RFF0491210070233752      ERT      0000  956.44375000140000010620161131480000027530100W 1220000N                               
CUS0491210000104456167008         MODESTA NWANKWOALA  701 NELLIS RD                           000N        CARE OF             
MTR04912100001000000000000000RA              77889666    005801790000017900000350000003NN  NNW 000                       N    
RDG04912100WATRL000000004K00000000000000000005701112016093104S001000000000U40       000270400K 10000000010000000132           
CUS0491210000104456168006         DANIELLE SANDS-DAMON703 NELLIS RD                           000N        CARE OF             
MTR04912100001000000000000000RA              77889612    005801800000018000000350000003NN  NNW 000                       N    
RDG04912100WATRL000000004K00000000000000000005601112016093037S001000000000U40       000280400K 10000000010000000094           
CUS0491210000104456170002         KATIE D REYNOLDS    705 NELLIS RD                           000N        CARE OF             
MTR04912100001000000000000000RA              77889611    005801810000018100000350000003NN  NNW 000                       N    
RDG04912100WATRL000000004K00000000000000000005501112016093009S001000000000U40       000260400K 10000000010000000065           
CUS0491210000104456172008         MICHAEL W SMITH     707 NELLIS RD                           000N        CARE OF             
MTR04912100001000000000000000RA              77889607    005801820000018200000350000003NN  NNW 000                       N    
RDG04912100WATRL000000004K00000000000000000005401112016092943S001000000000U40       000340400K 10000000010000000102           
CUS0491210000104456174004         ENRIQUE ALGARIN     709 NELLIS RD                           000N        CARE OF             
MTR04912100001000000000000000RA              77889610    005801830000018300000350000003NN  NNW 000                       N    
RDG04912100WATRL000000004K00000000000000000005301112016092909S001000000000U40       000230400K 10000000010000000082           
CUS0491210000104456176009         FLORA MAY A PEPITO  711 NELLIS RD                           000N        CARE OF             
MTR04912100001000000000000000RA              77889608    005801840000018400000350000003NN  NNW 000                       N    
RDG04912100WATRL000000004K00000000000000000005201112016092846S001000000000U40       000270400K 10000000010000000086           
CUS0491210000104456178005         STELLA A OGBEIDE    713 NELLIS RD                           000N        CARE OF             
MTR04912100001000000000000000RA              77889609    005801850000018500000350000003NN  NNW 000                       N    
RDG04912100WATRL000000004K00000000000000000005101112016092819S001000000000U40       000230400K 10000000010000000092           
CUS0491210000104456180001         NJUKANG ASONG       715 NELLIS RD                           000N        CARE OF             
MTR04912100001000000000000000RA              78006073    005801860000018600000360000003NN  NNW 000                       N    
RDG04912100WATRL000000004K00000000000000000005001112016092756S001000000000U40       000240400K 10000000010000000073           
CUS0491210000104456182007         MYRNA M ENRICOSO    717 NELLIS RD                           000N        CARE OF             
MTR04912100001000000000000000RA              77989329    005801870000018700000350000003NN  NNW 000                       N    
RDG04912100WATRL000000004K00000000000000000004901112016092732S001000000000U40       002100400K 10000000010000000102           
CUS0491210000104456184003         SHEILA G GELIDO     719 NELLIS RD                           000N        CARE OF             
MTR04912100001000000000000000RA              78006074    005801880000018800000360000003NN  NNW 000                       N    
RDG04912100WATRL000000004K00000000000000000004801112016092402S001000000000U40       001100400K 10000000010000000068           
CUS0491210000104456169004         JOANN S BANATAO     704 NELLIS RD                           000N        CARE OF             
MTR04912100001000000000000000RA              77889660    005801890000018900000350000003NN  NNW 000                       N    
RDG04912100WATRL000000004K00000000000000000005801112016093156S001000000000U40       000520400K 10000000010000000083           
CUS0491210000104456171000         GIBSON VILLANUEVA   706 NELLIS RD                           000N        CARE OF             
MTR04912100001000000000000000RA              77889656    005801900000019000000350000003NN  NNW 000                       N    
RDG04912100WATRL000000004K00000000000000000005901112016093219S001000000000U40       000230400K 10000000010000000080           
CUS0491210000104456173006         MARIA CONS SANGLAY  708 NELLIS RD                           000N        CARE OF             
MTR04912100001000000000000000RA              77889659    005801910000019100000350000003NN  NNW 000                       N    
RDG04912100WATRL000000004K00000000000000000006001112016093244S001000000000U40       000250400K 10000000010000000091           
CUS0491210000104456175001         JENNY T CHUNG       710 NELLIS RD                           000N        CARE OF             
MTR04912100001000000000000000RA              78008234    005801920000019200000360000003NN  NNW 000                       N    
RDG04912100WATRL000000004K00000000000000000006101112016093315S001000000000U40       000310400K 10000000010000000042           
CUS0491210000104456177007         DAPHNE CHING        712 NELLIS RD                           000N        CARE OF             
MTR04912100001000000000000000RA              77890791    005801930000019300000360000003NN  NNW 000                       N    
RDG04912100WATRL000000004K00000000000000000006201112016093323S001000000000U40       000080400K 10000000010000000014           
CUS0491210000104456179003         ELAINE MINDO        714 NELLIS RD                           000N        CARE OF             
MTR04912100001000000000000000RA              78008232    005801940000019400000360000003NN  NNW 000                       N    
RDG04912100WATRL000000004K00000000000000000006301112016093340S001000000000U40       000170400K 10000000010000000057           
CUS0491210000104456181009         SONNY NGUYEN        716 NELLIS RD                           000N        CARE OF             
MTR04912100001000000000000000RA              78008237    005801950000019500000360000003NN  NNW 000                       N    
RDG04912100WATRL000000004K00000000000000000006401112016093410S001000000000U40       000300400K 10000000010000000050           
CUS0491210000104456183005         ELBA A OCHOTORENA   718 NELLIS RD                           000N        CARE OF             
MTR04912100001000000000000000RA              78006071    005801960000019600000360000003NN  NNW 000                       N    
RDG04912100WATRL000000004K00000000000000000006501112016093435S001000000000U40       000250400K 10000000010000000059           
CUS0491210000104456185000         JOSELITO PONCE      720 NELLIS RD                           000N        CARE OF             
MTR04912100001000000000000000RA              99999999    005801970000019700000440000003NN  NNW 000                       N    
RDG04912100WATRL000000004K00000000000000000006601112016093512S063000000000U40       000370400K 10000000010000000018           
CUS0491210000104444659009         RALLO JEREMY        9636 BIGGS RD                           000N        CARE OF             
MTR04912100001000000000000000RA              79825132    005801980000019800000360000003NN  NNW 000                       N    
RDG04912100WATRL000000004R00000000000000007000001062016112652N000300000010U         001760400R 10000000010000000000           
RFF0491210070233996      ERT      0000  956.44375000140000010620161126520000070132100W 1220000N                               
CUS0491210000104444660007         SMITH ROBERT L,3RD  9638 BIGGS RD                           000N        CARE OF             
MTR04912100001000000000000000RA              79825112    005801990000019900000360000003NN  NNW 000                       N    
RDG04912100WATRL000000004R00000000000000002000001062016112412N000300000010U         001770400R 10000000010000000000           
RFF0491210070232800      ERT      0000  956.44375000140000010620161124120000021366100W 1220000N                               
CUS0491210000104444664009         YANG GUO FENG       9640 BIGGS RD                           000N        CARE OF             
MTR04912100001000000000000000RA              79825115    005802000000020000000360000003NN  NNW 000                       N    
RDG04912100WATRL000000004R00000000000000006000001062016112634N000300000010U         001760400R 10000000010000000000           
RFF0491210070232852      ERT      0000  956.44375000140000010620161126340000066122100W 1220000N                               
CUS0491210000104444665006         RALLO JOHN J, 3RD   9642 BIGGS RD                           000N        CARE OF             
MTR04912100001000000000000000RA              10004532    005802010000020100000570000003NN  NNW 000                       N    
RDG04912100WATRL000000004K00000000000000000004401112016091857S001000000000U40       000550400K 10000000010000000413           
CUS0491210000104444637005         JONES AZ            9660 BIGGS RD                           000N        CARE OF             
MTR04912100001000000000000000RA              80058690    005802020000020200000360000003NN  NNW 000                       N    
RDG04912100WATRL000000004R00000000000000044000001062016112614N000300000010U         001760400R 10000000010000000000           
RFF0491210070422791      ERT      0000  956.44375000140004010620161126140000449429100W 1220000N                               
CUS0491210000104444641007         KARANI LIBAN A      9662 BIGGS RD                           000N        CARE OF             
MTR04912100001000000000000000RA              80058687    005802030000020300000360000003NN  NNW 000                       N    
RDG04912100WATRL000000004R00000000000000003000001062016112546N000300000010U         001770400R 10000000010000000000           
RFF0491210070422785      ERT      0000  956.44375000140000010620161125460000038580100W 1220000N                               
CUS0491210000104444642005         MANGONON FRENESI ANN9664 BIGGS RD                           000N        CARE OF             
MTR04912100001000000000000000RA              80058686    005802040000020400000360000003NN  NNW 000                       N    
RDG04912100WATRL000000004R00000000000000012000001062016112526N000300000010U         001760400R 10000000010000000000           
RFF0491210070422793      ERT      0000  956.44375000140000010620161125260000125229100W 1220000N                               
CUS0491210000104444643003         MANIGAULT KIMBERLY D9666 BIGGS RD                           000N        CARE OF             
MTR04912100001000000000000000RA              80058691    005802050000020500000360000003NN  NNW 000                       N    
RDG04912100WATRL000000004R00000000000000005000001062016112530N000300000010U         001760400R 10000000010000000000           
RFF0491210070422801      ERT      0000  956.44375000140000010620161125300000055894100W 1220000N                               
CUS0491210000104444653002         RANDY JOSE R POQUIZ 9667 BIGGS RD                           000N        CARE OF             
MTR04912100001000000000000000RA              00166861    005802060000020600000570000003NN  NNW 000                       N    
RDG04912100WATRL000000004K00000000000000000004101112016091700S001000000000U40       000860400K 10000000010000000868           
CUS0491210000104444652004         MASON ROYCOTT D     9665 BIGGS RD                           000N        CARE OF             
MTR04912100001000000000000000RA              00166749    005802070000020700000570000003NN  NNW 000                       N    
RDG04912100WATRL000000004K00000000000000000004201112016091719S001000000000U40       000190400K 10000000010000000212           
CUS0491210000104444651006         QUILAO ERYL H       9663 BIGGS RD                           000N        CARE OF             
MTR04912100001000000000000000RA              79833746    000102080000020800000360000003NN  NNW 000                       N    
RDG04912100WATRL000000004R00000000000000006000001062016114216N000300000010U         001770400R 10000000010000000000           
RFF0491210070447092      ERT      0000  956.44375000140000010620161142160000060020100W 1220000N                               
