FHDNNNN056011815011815011873N                                                                                           035763
RHD08543800NN02190219000002190000000002190219000197NY021902190219000000000000000000000000000002    10282014NY020000 N  
CUS0264110000102348334000         MITCHELL LETA       15 BONBON CT                            000N        CARE OF             
MTR02641100001000000000000000RA              26017692    005800560000005600000520000003NN  NNW 000                       N    
RDG02641100WATRL000000004K00000000000002449005211082014084857N000000000000N80       000350400K 10000000010000002426           
CUS0264110000102348335007         GAGNIDZE REVAZ      13 BONBON CT                            000N        CARE OF             
MTR02641100001000000000000000RA              26017751    005800570000005700000520000003NN  NNW 000                       N    
RDG02641100WATRL000000004K00000000000003540005311082014084905N000000000000N80       000080400K 10000000010000003520           
CUS0264110000102348336005         COLLINS DAVID C     11 BONBON CT                            000N        CARE OF             
MTR02641100001000000000000000RA              01106717    005800580000005800000610000003NN  NNW 000                       N    
RDG02641100WATRL000000004K00000000000002072005411082014084946N000000000000N80       000410400K 10000000010000002019           
CUS0264110000102348319001         FAJARDO BRAULIO A   9 BONBON CT                             000N        CARE OF             
MTR02641100001000000000000000RA              01106692    005800590000005900000610000003NN  NNW 000                       N    
RDG02641100WATRL000000004K00000000000000360005511082014084950N000000000000N80       000040400K 10000000010000000350           
CUS0264110000102348320009         TWEEDLE SYLVIA J    7 BONBON CT                             000N        CARE OF             
MTR02641100001000000000000000RA              26017763    005800600000006000000520000003NN  NNW 000                       N    
RDG02641100WATRL000000004K00000000000003361005611082014085059N000000000000N80       000690400K 10000000010000003354           
CUS0264110000102348321007         GRAY MARSHA E       5 BONBON CT                             000N        CARE OF             
MTR02641100001000000000000000RA              10002485    005800610000006100000570000003NN  NNW 000                       N    
RDG02641100WATRL000000004K00000000000000479005711082014085104N000000000000N80       000050400K 10000000010000000464           
CUS0264110000102348770005         DEMBECK GERARD S    3 BONBON CT                             000N        CARE OF             
MTR02641100001000000000000000RA              26017657    005800620000006200000520000003NN  NNW 000                       N    
RDG02641100WATRL000000004K00000000000005014005811082014085147N000000000000N80       000430400K 10000000010000004998           
CUS0264110000102348769007         WILLIAM & PAMELA MIL1 BONBON CT                             000N        CARE OF             
MTR02641100001000000000000000RA              26017696    005800630000006300000520000003NN  NNW 000                       N    
RDG02641100WATRL000000004K00000000000003565005911082014085154N000000000000N80       000070400K 10000000010000003550           
CUS0264110000102352252007         LYNCH KARA A        12396 BONCREST DR                       000N        CARE OF             
MTR02641100001000000000000000RA              27828612    005800640000006400000520000003NN  NNW 000                       N    
RDG02641100WATRL000000004K00000000000004100006011082014085405N000000000000N80       001310400K 10000000010000004095           
CUS0264110000102352251009         BYCHKOV ALEKSANDR F 12394 BONCREST DR                       000N        CARE OF             
MTR02641100001000000000000000RA              27828672    005800650000006500000520000003NN  NNW 000                       N    
RDG02641100WATRL000000004K00000000000003746006111082014085447N000000000000N80       000420400K 10000000010000003719           
CUS0264110000102352253005         DAVID LEMMON        12392 BONCREST DR                       000N        CARE OF             
MTR02641100001000000000000000RA              27828676    005800660000006600000520000003NN  NNW 000                       N    
RDG02641100WATRL000000004K00000000000003394006211082014085517N000000000000N80       000300400K 10000000010000003378           
CUS0264110000102352254003         WEYER ANN J         12390 BONCREST DR                       000N        CARE OF             
MTR02641100001000000000000000RA              29683954    005800670000006700000520000003NN  NNW 000                       N    
RDG02641100WATRL000000004K00000000000002226006311082014085601N000000000000N80       000440400K 10000000010000002215           
CUS0264110000102352260000         CHOHAN MUHAMMAD     12388 BONCREST DR                       000N        CARE OF             
MTR02641100001000000000000000RA              27828749    005800680000006800000520000003NN  NNW 000                       N    
RDG02641100WATRL000000004K00000000000006464006411082014085608N000000000000N80       000070400K 10000000010000006439           
CUS0264110000102352259002         KELLY CHRISTINE L   12386 BONCREST DR                       000N        CARE OF             
MTR02641100001000000000000000RA              01103474    005800690000006900000610000003NN  NNW 000                       N    
RDG02641100WATRL000000004K00000000000001062006511082014085640N000000000000N80       000320400K 10000000010000001035           
CUS0264110000102352258004         WILTON JULIE A      12384 BONCREST DR                       000N        CARE OF             
MTR02641100001000000000000000RA              48592662    005800700000007000000520000003NN  NNW 000                       N    
RDG02641100WATRL000000004K00000000000002553006611082014085650N000000000000N80       000100400K 10000000010000002517           
CUS0264110000102352257006         SIRKIS SCOTT H      12382 BONCREST DR                       000N        CARE OF             
MTR02641100001000000000000000RA              10015439    005800710000007100000570000003NN  NNW 000                       N    
RDG02641100WATRL000000004K00000000000000253006711082014085720N000000000000N80       000300400K 10000000010000000235           
CUS0264110000102352256008         TODD G ROOP         12380 BONCREST DR                       000N        CARE OF             
MTR02641100001000000000000000RA              27828589    005800720000007200000520000003NN  NNW 000                       N    
RDG02641100WATRL000000004K00000000000001860006811082014085738N000000000000N80       000180400K 10000000010000001852           
CUS0264110000102352255000         PRESTON WINEMILLER  12378 BONCREST DR                       000N        CARE OF             
MTR02641100001000000000000000RA              27828747    005800730000007300000520000003NN  NNW 000                       N    
RDG02641100WATRL000000004K00000000000002679006911082014085852N000400000010N80       000740400K 10000000010000002675           
CUS0264110000102373715008         DAVIS JESSE J       12376 BONCREST DR                       000N        CARE OF             
MTR02641100001000000000000000RA              32771841    005800740000007400000520000003NN  NNW 000                       N    
RDG02641100WATRL000000004K00000000000004933007011082014085936N000400000010N80       000440400K 10000000010000004927           
CUS0264110000102373714001         COOK NECOLA Y       12374 BONCREST DR                       000N        CARE OF             
MTR02641100001000000000000000RA              99387943    005800750000007500000570000003NN  NNW 000                       N    
RDG02641100WATRL000000004K00000000000000986007111082014090024N000000000000N80       000480400K 10000000010000000976           
CUS0264110000102373713003         SHETIN HENRY        12372 BONCREST DR                       000N        CARE OF             
MTR02641100001000000000000000RA              32178426    005800760000007600000520000003NN  NNW 000                       N    
RDG02641100WATRL000000004K00000000000002819007211082014090031N000000000000N80       000070400K 10000000010000002809           
CUS0264110000102373712005         LAWSON BRANDON LEE  12370 BONCREST DR                       000N        CARE OF             
MTR02641100001000000000000000RA              32574410    005800770000007700000520000003NN  NNW 000                       N    
RDG02641100WATRL000000004K00000000000003348007311082014090111N000100000010N80       000400400K 10000000010000003348           
CUS0264110000102373711007         SPENCER DERRICK G   12368 BONCREST DR                       000N        CARE OF             
MTR02641100001000000000000000RA              32574304    005800780000007800000520000003NN  NNW 000                       N    
RDG02641100WATRL000000004K00000000000005071007411082014090128N000000000000N80       000170400K 10000000010000005048           
CUS0264110000102373710009         HALL MERLE M        12366 BONCREST DR                       000N        CARE OF             
MTR02641100001000000000000000RA              99290551    005800790000007900000570000003NN  NNW 000                       N    
RDG02641100WATRL000000004K00000000000000884007511082014090217N000000000000N80       000490400K 10000000010000000873           
CUS0264110000102373709001         CARTER JACKBA       12364 BONCREST DR                       000N        CARE OF             
MTR02641100001000000000000000RA              99290550    005800800000008000000570000003NN  NNW 000                       N    
RDG02641100WATRL000000004K00000000000001029007611082014090222N000000000000N80       000050400K 10000000010000001029           
CUS0264110000102373708003         PROGRESS UNLIMITED I12362 BONCREST DR                       000N        CARE OF             
MTR02641100001000000000000000RA              01109114    005800810000008100000610000003NN  NNW 000                       N    
RDG02641100WATRL000000004K00000000000001378007811082014090434N000000000010N80       000740400K 10000000010000001349           
CUS0264110000102373707005         FRANKS DEBORAH A    12360 BONCREST DR                       000N        CARE OF             
MTR02641100001000000000000000RA              01109129    005800820000008200000610000003NN  NNW 000                       N    
RDG02641100WATRL000000004K00000000000000391007711082014090320N000000000000N80       000580400K 10000000010000000383           
CUS0264110000102373706007         BENEDICT CLIFFORD   12358 BONCREST DR                       000N        CARE OF             
MTR02641100001000000000000000RA              01109137    005800830000008300000610000003NN  NNW 000   VACANT / LOT        N    
RDG02641100WATRL000000004K00000000000000506007911082014090443N000000000000N80       000090400K 10000000010000000506           
CUS0264110000102373705009         LEON FRIDMAN        12356 BONCREST DR                       000N        CARE OF             
MTR02641100001000000000000000RA              52289184    005800840000008400000520000003NN  NNW 000                       N    
RDG02641100WATRL000000004K00000000000002795008011082014090520N000000000000N80       000370400K 10000000010000002778           
CUS0264110000102373723002         TRUSSELL DAVID E    12354 BONCREST DR                       000N        CARE OF             
MTR02641100001000000000000000RA              35099564    005800850000008500000520000003NN  NNW 000                       N    
RDG02641100WATRL000000004K00000000000003086008111082014090601N000000000010N80       000410400K 10000000010000003081           
CUS0264110000102373722004         LEWIS KESHAWN,SR    12352 BONCREST DR                       000N        CARE OF             
MTR02641100001000000000000000RA              35099563    005800860000008600000520000003NN  NNW 000                       N    
RDG02641100WATRL000000004K00000000000004035008211082014090616N000000000000N80       000150400K 10000000010000003964           
CUS0264110000102373721006         OSTROVSKAYA LYUBOV  12350 BONCREST DR                       000N        CARE OF             
MTR02641100001000000000000000RA              35099566    005800870000008700000520000003NN  NNW 000                       N    
RDG02641100WATRL000000004K00000000000002617008311082014090658N000000000000N80       000420400K 10000000010000002609           
CUS0264110000102373720008         MARGARET E WEBER    12348 BONCREST DR                       000N        CARE OF             
MTR02641100001000000000000000RA              35099562    005800880000008800000520000003NN  NNW 000                       N    
RDG02641100WATRL000000004K00000000000002185008411082014090705N000000000000N80       000070400K 10000000010000002179           
CUS0264110000102373719000         HANDY-BURDEN CHRISTI12346 BONCREST DR                       000N        CARE OF             
MTR02641100001000000000000000RA              35099558    005800890000008900000520000003NN  NNW 000                       N    
RDG02641100WATRL000000004K00000000000003239008511082014090742N000000000000N80       000370400K 10000000010000003227           
CUS0264110000102373718002         PEDRO MAGDA L       12344 BONCREST DR                       000N        CARE OF             
MTR02641100001000000000000000RA              35099560    005800900000009000000520000003NN  NNW 000                       N    
RDG02641100WATRL000000004K00000000000003210008611082014090753N000000000000N80       000110400K 10000000010000003190           
CUS0264110000102373717004         LEWIS CHARLES H     12342 BONCREST DR                       000N        CARE OF             
MTR02641100001000000000000000RA              75614627    005800910000009100000350000003NN  NNW 000                       N    
RDG02641100WATRL000000004K00000000000000118008711082014090829N000000000000N80       000360400K 10000000010000000103           
CUS0264110000102373716006         LETOURNEAU JWILLIAM 12340 BONCREST DR                       000N        CARE OF             
MTR02641100001000000000000000RA              32771839    005800920000009200000520000003NN  NNW 000                       N    
RDG02641100WATRL000000004K00000000000002068008811082014090916N000000000000N80       000470400K 10000000010000002052           
CUS0264110000102373729009         EPPS MICHELLE       12338 BONCREST DR                       000N        CARE OF             
MTR02641100001000000000000000RA              32771652    005800930000009300000520000003NN  NNW 000                       N    
RDG02641100WATRL000000004K00000000000002594008911082014091003N000000000000N80       000470400K 10000000010000002584           
CUS0264110000102373728001         LEROY L MCKEE 3RD   12336 BONCREST DR                       000N        CARE OF             
MTR02641100001000000000000000RA              44087513    005800940000009400000520000003NN  NNW 000                       N    
RDG02641100WATRL000000004K00000000000003183009011082014091008N000000000000N80       000050400K 10000000010000003147           
CUS0264110000102373727003         MAYO ROSA L         12334 BONCREST DR                       000N        CARE OF             
MTR02641100001000000000000000RA              32771675    005800950000009500000520000003NN  NNW 000                       N    
RDG02641100WATRL000000004K00000000000001899009111082014091044N000000000000N80       000360400K 10000000010000001886           
CUS0264110000102373726005         RAY SATAYABRATA & AN12332 BONCREST DR                       000N        CARE OF             
MTR02641100001000000000000000RA              50790803    005800960000009600000520000003NN  NNW 000                       N    
RDG02641100WATRL000000004K00000000000003337009211082014091050N000000000000N80       000060400K 10000000010000003324           
CUS0264110000102373725007         HARRIS ANDRE ALEXAND12330 BONCREST DR                       000N        CARE OF             
MTR02641100001000000000000000RA              50790824    005800970000009700000520000003NN  NNW 000                       N    
RDG02641100WATRL000000004K00000000000002683009311082014091127N000000000000N80       000370400K 10000000010000002675           
CUS0264110000102373724000         JONATHAN F SKINNER  12328 BONCREST DR                       000N        CARE OF             
MTR02641100001000000000000000RA              38983537    005800980000009800000520000003NN  NNW 000                       N    
RDG02641100WATRL000000004K00000000000002641009411082014091138N000400000010N80       000110400K 10000000010000002629           
CUS0264110000102373735006         STIFFLER SHANNON D  12326 BONCREST DR                       000N        CARE OF             
MTR02641100001000000000000000RA              99292955    005800990000009900000570000003NN  NNW 000                       N    
RDG02641100WATRL000000004K00000000000001414009511082014091343N000000000000N80       001250400K 10000000010000001382           
CUS0264110000102373734009         FIGGS EARL L        12324 BONCREST DR                       000N        CARE OF             
MTR02641100001000000000000000RA              01109111    005801000000010000000610000003NN  NNW 000                       N    
RDG02641100WATRL000000004K00000000000000533009611082014091432N000000000000N80       000490400K 10000000010000000529           
CUS0264110000102373733001         DOUGLASS W HARGIS   12322 BONCREST DR                       000N        CARE OF             
MTR02641100001000000000000000RA              01109127    005801010000010100000610000003NN  NNW 000                       N    
RDG02641100WATRL000000004K00000000000000643009711082014091451N000000000000N80       000190400K 10000000010000000636           
CUS0264110000102373732003         SIGLER HARRY C      12320 BONCREST DR                       000N        CARE OF             
MTR02641100001000000000000000RA              32178391    005801020000010200000520000003NN  NNW 000                       N    
RDG02641100WATRL000000004K00000000000003081009811082014091655N000000000011N80       000490400K 10000000010000003027           
CUS0264110000102373731005         RAMANI DHIRAJLAL R  12318 BONCREST DR                       000N        CARE OF             
MTR02641100001000000000000000RA              23051376    005801030000010300000520000003NN  NNW 000   VACANT / LOT        N    
RDG02641100WATRL000000004K00000000000005799009911082014091606N000000000000N80       000570400K 10000000010000005799           
CUS0264110000102373730007         WOODWARD JOHN L     12316 BONCREST DR                       000N        CARE OF             
MTR02641100001000000000000000RA              75426176    005801040000010400000350000003NN  NNW 000                       N    
RDG02641100WATRL000000004K00000000000000093010011082014091816N000000000000N80       000810400K 10000000010000000081           
CUS0264110000102369993007         BRATHWAITE LILLIAN  12314 BONCREST DR                       000N        CARE OF             
MTR02641100001000000000000000RA              31585180    005801050000010500000520000003NN  NNW 000                       N    
RDG02641100WATRL000000004K00000000000002819010111082014091915N000400000010N80       000590400K 10000000010000002806           
CUS0264110000102369992009         BASHORE GEORGE WILLI12312 BONCREST DR                       000N        CARE OF             
MTR02641100001000000000000000RA              31585045    005801060000010600000520000003NN  NNW 000                       N    
RDG02641100WATRL000000004K00000000000001605010211082014091945N000000000000N80       000300400K 10000000010000001597           
CUS0264110000102369991001         KEARNS JOHN STEWART 12310 BONCREST DR                       000N        CARE OF             
MTR02641100001000000000000000RA              31585178    005801070000010700000520000003NN  NNW 000                       N    
RDG02641100WATRL000000004K00000000000002602010311082014091950N000000000000N80       000050400K 10000000010000002586           
CUS0264110000102369990003         JAYESHKUMAR R PATEL 12308 BONCREST DR                       000N        CARE OF             
MTR02641100001000000000000000RA              31585181    005801080000010800000520000003NN  NNW 000                       N    
RDG02641100WATRL000000004K00000000000003055010411082014092042N000000000010N80       000520400K 10000000010000002925           
CUS0264110000102369989005         KATTA YADAGIRI      12306 BONCREST DR                       000N        CARE OF             
MTR02641100001000000000000000RA              33077042    005801090000010900000520000003NN  NNW 000                       N    
RDG02641100WATRL000000004K00000000000003543010511082014092047N000000000000N80       000050400K 10000000010000003503           
CUS0264110000102369988007         MULLINIX NATHALIE   12304 BONCREST DR                       000N        CARE OF             
MTR02641100001000000000000000RA              31585127    005801100000011000000520000003NN  NNW 000                       N    
RDG02641100WATRL000000004K00000000000005077024611082014112405N000000000000N80       002930400K 10000000010000005066           
CUS0264110000102369987009         LEWIS-FRANCIS MICHEL12302 BONCREST DR                       000N        CARE OF             
MTR02641100001000000000000000RA              31585129    005801110000011100000520000003NN  NNW 000                       N    
RDG02641100WATRL000000004K00000000000003638024711082014112414N000000000000N80       000090400K 10000000010000003625           
CUS0264110000102369986001         BHARAT KUMAR R RAMI 12300 BONCREST DR                       000N        CARE OF             
MTR02641100001000000000000000RA              31585126    005801120000011200000520000003NN  NNW 000                       N    
RDG02641100WATRL000000004K00000000000004544010611082014092215N000000000000N80       000880400K 10000000010000004526           
CUS0264110000102364542007         RUIZ CARLOS         601 GLYNLEE CT                          000N        CARE OF             
MTR02641100001000000000000000RA              30519301    005801130000011300000520000003NN  NNW 000                       N    
RDG02641100WATRL000000004K00000000000005795010711082014092317N000000000000N80       000620400K 10000000010000005769           
CUS0264110000102364543005         HARVEY TAMARA N     603 GLYNLEE CT                          000N        CARE OF             
MTR02641100001000000000000000RA              30519296    005801140000011400000520000003NN  NNW 000                       N    
RDG02641100WATRL000000004K00000000000002751010811082014092356N000000000000N80       000390400K 10000000010000002735           
CUS0264110000102364544003         JANIFER DOUGLAS E,JR605 GLYNLEE CT                          000N        CARE OF             
MTR02641100001000000000000000RA              30519323    005801150000011500000520000003NN  NNW 000                       N    
RDG02641100WATRL000000004K00000000000002985010911082014092403N000000000000N80       000070400K 10000000010000002969           
CUS0264110000102364545000         HENRY JOYCELYN      607 GLYNLEE CT                          000N        CARE OF             
MTR02641100001000000000000000RA              30519324    005801160000011600000520000003NN  NNW 000                       N    
RDG02641100WATRL000000004K00000000000004624011011082014092434N000000000000N80       000310400K 10000000010000004624           
CUS0264110000102364546008         SNYDER STEVEN L     609 GLYNLEE CT                          000N        CARE OF             
MTR02641100001000000000000000RA              30519297    005801170000011700000520000003NN  NNW 000                       N    
RDG02641100WATRL000000004K00000000000003678011111082014092443N000000000000N80       000090400K 10000000010000003658           
CUS0264110000102364547006         AUS JENNIFER A      611 GLYNLEE CT                          000N        CARE OF             
MTR02641100001000000000000000RA              30519320    005801180000011800000520000003NN  NNW 000                       N    
RDG02641100WATRL000000004K00000000000002379011211082014092518N000000000000N80       000350400K 10000000010000002357           
CUS0264110000102364548004         DEVI BANSO          613 GLYNLEE CT                          000N        CARE OF             
MTR02641100001000000000000000RA              30519322    005801190000011900000520000003NN  NNW 000                       N    
RDG02641100WATRL000000004K00000000000003232011311082014092528N000000000000N80       000100400K 10000000010000003200           
CUS0264110000102364549002         HUGHES LASHANDA R   615 GLYNLEE CT                          000N        CARE OF             
MTR02641100001000000000000000RA              30519321    005801200000012000000520000003NN  NNW 000                       N    
RDG02641100WATRL000000004K00000000000003124011411082014092604N000000000000N80       000360400K 10000000010000003117           
CUS0264110000102357494000         KARBASSIAFSHAR MEHDE12301 BONCREST DR                       000N        CARE OF             
MTR02641100001000000000000000RA              29404450    005801210000012100000520000003NN  NNW 000                       N    
RDG02641100WATRL000000004K00000000000002770020311082014102330N000000000000N80       001910400K 10000000010000002761           
CUS0264110000102358030001         GOODMAN ETHAN       12303 BONCREST DR                       000N        CARE OF             
MTR02641100001000000000000000RA              29681416    005801220000012200000520000003NN  NNW 000                       N    
RDG02641100WATRL000000004K00000000000003341020411082014102401N000000000000N80       000310400K 10000000010000003330           
CUS0264110000102358031009         TSOMIK MIKHAIL  TSOM12305 BONCREST DR                       000N        CARE OF             
MTR02641100001000000000000000RA              29681414    005801230000012300000520000003NN  NNW 000                       N    
RDG02641100WATRL000000004K00000000000002220020511082014102414N000000000000N80       000130400K 10000000010000002220           
CUS0264110000102357495007         OLIVIS TONY R,SR    12307 BONCREST DR                       000N        CARE OF             
MTR02641100001000000000000000RA              29404453    005801240000012400000520000003NN  NNW 000                       N    
RDG02641100WATRL000000004K00000000000003233020611082014102454N000000000000N80       000400400K 10000000010000003210           
CUS0264110000102357496005         LANDEFELD CLAIRE A  12309 BONCREST DR                       000N        CARE OF             
MTR02641100001000000000000000RA              29404449    005801250000012500000520000003NN  NNW 000                       N    
RDG02641100WATRL000000004K00000000000002243020711082014102459N000000000000N80       000050400K 10000000010000002230           
CUS0264110000102357497003         ENRIGHT JOHN J      12311 BONCREST DR                       000N        CARE OF             
MTR02641100001000000000000000RA              29404452    005801260000012600000520000003NN  NNW 000                       N    
RDG02641100WATRL000000004K00000000000003484020811082014102539N000000000000N80       000400400K 10000000010000003463           
CUS0264110000102357498001         RUDITSKIY ARKADIY   12313 BONCREST DR                       000N        CARE OF             
MTR02641100001000000000000000RA              29404421    005801270000012700000520000003NN  NNW 000                       N    
RDG02641100WATRL000000004K00000000000002289020911082014102555N000000000000N80       000160400K 10000000010000002282           
CUS0264110000102357833009         DOBSON WILLIAM A,3RD12315 BONCREST DR                       000N        CARE OF             
MTR02641100001000000000000000RA              29679183    005801280000012800000520000003NN  NNW 000                       N    
RDG02641100WATRL000000004K00000000000002372021011082014102648N000000000000N80       000530400K 10000000010000002369           
CUS0264110000102356769006         INSLEY FAITH M      12317 BONCREST DR                       000N        CARE OF             
MTR02641100001000000000000000RA              29402738    005801290000012900000520000003NN  NNW 000                       N    
RDG02641100WATRL000000004K00000000000003148021111082014102730N000000000000N80       000420400K 10000000010000003135           
CUS0264110000102356770004         MICHAEL & TERESA YOU12319 BONCREST DR                       000N        CARE OF             
MTR02641100001000000000000000RA              29680718    005801300000013000000520000003NN  NNW 000                       N    
RDG02641100WATRL000000004K00000000000002724021211082014102753N000000000000N80       000230400K 10000000010000002703           
CUS0264110000102356771002         BENJAMIN C OSSAI    12321 BONCREST DR                       000N        CARE OF             
MTR02641100001000000000000000RA              29402739    005801310000013100000520000003NN  NNW 000                       N    
RDG02641100WATRL000000004K00000000000002546021311082014102802N000000000000N80       000090400K 10000000010000002533           
CUS0264110000102356772000         HERNANDEZ HECTOR A  12323 BONCREST DR                       000N        CARE OF             
MTR02641100001000000000000000RA              29402703    005801320000013200000520000003NN  NNW 000                       N    
RDG02641100WATRL000000004K00000000000002802021411082014102829N000000000000N80       000270400K 10000000010000002777           
CUS0264110000102356773008         RANDALL BALRAM      12325 BONCREST DR                       000N        CARE OF             
MTR02641100001000000000000000RA              29402706    005801330000013300000520000003NN  NNW 000                       N    
RDG02641100WATRL000000004K00000000000003130021511082014102834N000000000000N80       000050400K 10000000010000003112           
CUS0264110000102356768008         SILEN STEVEN G      12327 BONCREST DR                       000N        CARE OF             
MTR02641100001000000000000000RA              30514246    005801340000013400000520000003NN  NNW 000                       N    
RDG02641100WATRL000000004K00000000000002952024411082014111858N000000000000N80       002310400K 10000000010000002940           
CUS0264110000102356775003         SEBODA DEBRA R      12329 BONCREST DR                       000N        CARE OF             
MTR02641100001000000000000000RA              29402705    005801350000013500000520000003NN  NNW 000                       N    
RDG02641100WATRL000000004K00000000000004046024511082014111912N000000000000N80       000140400K 10000000010000004020           
CUS0264110000104356812000         MARSHALL ALVIN      12331 BONCREST DR                       000N        CARE OF             
MTR02641100001000000000000000RA              30524462    005801360000013600000520000003NN  NNW 000                       N    
RDG02641100WATRL000000004K00000000000003643021611082014102929N000000000000N80       000550400K 10000000010000003636           
CUS0264110000102362650000         HICKS ORRIE H 3RD   12333 BONCREST DR                       000N        CARE OF             
MTR02641100001000000000000000RA              30516679    005801370000013700000520000003NN  NNW 000                       N    
RDG02641100WATRL000000004K00000000000003166021711082014103020N000000000000N80       000510400K 10000000010000003151           
CUS0264110000102362651008         SHORE JAMES H       12335 BONCREST DR                       000N        CARE OF             
MTR02641100001000000000000000RA              46888099    005801380000013800000520000003NN  NNW 000                       N    
RDG02641100WATRL000000004K00000000000002338021811082014103038N000000000000N80       000180400K 10000000010000002321           
CUS0264110000102362652006         MATTHEWS BARBARA COR12337 BONCREST DR                       000N        CARE OF             
MTR02641100001000000000000000RA              30516682    005801390000013900000520000003NN  NNW 000                       N    
RDG02641100WATRL000000004K00000000000001668021911082014103110N000000000000N80       000320400K 10000000010000001661           
CUS0264110000102362653004         KIRSHA VOLHA        12339 BONCREST DR                       000N        CARE OF             
MTR02641100001000000000000000RA              30516753    005801400000014000000520000003NN  NNW 000                       N    
RDG02641100WATRL000000004K00000000000002202022011082014103113N000000000000N80       000030400K 10000000010000002196           
CUS0264110000102362654002         CHALOV DMITRIY      12341 BONCREST DR                       000N        CARE OF             
MTR02641100001000000000000000RA              30517598    005801410000014100000520000003NN  NNW 000                       N    
RDG02641100WATRL000000004K00000000000003238022111082014103157N000000000000N80       000440400K 10000000010000003203           
CUS0264110000102352890004         RESTO LOUIS D       12343 BONCREST DR                       000N        CARE OF             
MTR02641100001000000000000000RA              14900712    005801420000014200000310000003NN  NNW 000                       N    
RDG02641100WATRL000000004K00000000000001677022211082014103232N000300000010N80       000350400K 10000000010000001656           
CUS0264110000102352891002         EVANS TRACEY        12345 BONCREST DR                       000N        CARE OF             
MTR02641100001000000000000000RA              29082096    005801430000014300000520000003NN  NNW 000                       N    
RDG02641100WATRL000000004K00000000000002041024311082014111507N000000000000N80       002060400K 10000000010000002028           
CUS0264110000102352880005         KARAMI AHMAD        12347 BONCREST DR                       000N        CARE OF             
MTR02641100001000000000000000RA              27833853    005801440000014400000520000003NN  NNW 000                       N    
RDG02641100WATRL000000004K00000000000002759022311082014103409N000400000010N80       000970400K 10000000010000002757           
CUS0264110000102352881003         NOTZKA JOHN H       12349 BONCREST DR                       000N        CARE OF             
MTR02641100001000000000000000RA              27833764    005801450000014500000520000003NN  NNW 000                       N    
RDG02641100WATRL000000004K00000000000005327022411082014103416N000000000000N80       000070400K 10000000010000005309           
CUS0264110000102352882001         PORTNEY LARRY S     12351 BONCREST DR                       000N        CARE OF             
MTR02641100001000000000000000RA              10010699    005801460000014600000570000003NN  NNW 000                       N    
RDG02641100WATRL000000004K00000000000000326022511082014103446N000000000000N80       000300400K 10000000010000000309           
CUS0264110000102352883009         LAGANA ELIZABETH  WI12353 BONCREST DR                       000N        CARE OF             
MTR02641100001000000000000000RA              27833844    005801470000014700000520000003NN  NNW 000                       N    
RDG02641100WATRL000000004K00000000000002931022611082014103607N000000000000N80       000810400K 10000000010000002911           
CUS0264110000102352884007         JASON HORWITZ       12355 BONCREST DR                       000N        CARE OF             
MTR02641100001000000000000000RA              29082098    005801480000014800000520000003NN  NNW 000                       N    
RDG02641100WATRL000000004K00000000000002507022711082014103636N000000000000N80       000290400K 10000000010000002476           
CUS0264110000102352885004         CRAWFORD ADRE Z     12357 BONCREST DR                       000N        CARE OF             
MTR02641100001000000000000000RA              29082053    005801490000014900000520000003NN  NNW 000                       N    
RDG02641100WATRL000000004K00000000000003003022811082014103715N000000000000N80       000390400K 10000000010000002978           
CUS0264110000102352886002         LEMMON TAMARA       12359 BONCREST DR                       000N        CARE OF             
MTR02641100001000000000000000RA              99388082    005801500000015000000570000003NN  NNW 000                       N    
RDG02641100WATRL000000004K00000000000001517022911082014103721N000000000000N80       000060400K 10000000010000001509           
CUS0264110000102352887000         BAKER RICHARD E     12361 BONCREST DR                       000N        CARE OF             
MTR02641100001000000000000000RA              27833958    005801510000015100000520000003NN  NNW 000                       N    
RDG02641100WATRL000000004K00000000000005829024111082014110959N000000000000N80       004270400K 10000000010000005800           
CUS0264110000102352888008         POLAND STEVEN       12363 BONCREST DR                       000N        CARE OF             
MTR02641100001000000000000000RA              27833957    005801520000015200000520000003NN  NNW 000                       N    
RDG02641100WATRL000000004K00000000000005993024211082014111141N000000000000N80       001020400K 10000000010000005962           
CUS0264110000102352889006         LONG&FOSTER REAL EST12365 BONCREST DR                       000N        CARE OF             
MTR02641100001000000000000000RA              10019458    005801530000015300000570000003NN  NNW 000                       N    
RDG02641100WATRL000000004K00000000000000007023011082014103922N000300000010N80       001210400K 10000000010000000001           
CUS0264110000102348835006         PATEL ATUL C        12367 BONCREST DR                       000N        CARE OF             
MTR02641100001000000000000000RA              26002824    005801540000015400000520000003NN  NNW 000                       N    
RDG02641100WATRL000000004K00000000000005955023111082014103959N000000000000N80       000370400K 10000000010000005930           
CUS0264110000102348836004         BERTSCH TYFANEE     12369 BONCREST DR                       000N        CARE OF             
MTR02641100001000000000000000RA              23052783    005801550000015500000520000003NN  NNW 000                       N    
RDG02641100WATRL000000004K00000000000003699023211082014104032N000000000000N80       000330400K 10000000010000003674           
CUS0264110000102348837002         GREEN DARRELL W     12371 BONCREST DR                       000N        CARE OF             
MTR02641100001000000000000000RA              27812515    005801560000015600000520000003NN  NNW 000                       N    
RDG02641100WATRL000000004K00000000000002953023311082014104039N000000000000N80       000070400K 10000000010000002939           
CUS0264110000102348838000         MARLENE KIRBY       12373 BONCREST DR                       000N        CARE OF             
MTR02641100001000000000000000RA              14904891    005801570000015700000310000003NN  NNW 000                       N    
RDG02641100WATRL000000004K00000000000000524023411082014104106N000000000000N80       000270400K 10000000010000000511           
CUS0264110000102348839008         CHIMANLAL PATEL     12375 BONCREST DR                       000N        CARE OF             
MTR02641100001000000000000000RA              27812727    005801580000015800000520000003NN  NNW 000                       N    
RDG02641100WATRL000000004K00000000000002659023511082014104116N000000000000N80       000100400K 10000000010000002649           
CUS0264110000102348840006         ANSELL ROBERTA J    12377 BONCREST DR                       000N        CARE OF             
MTR02641100001000000000000000RA              76348500    005801590000015900000350000003NN  NNW 000                       N    
RDG02641100WATRL000000004K00000000000000021023611082014104151N000000000000N80       000350400K 10000000010000000013           
CUS0264110000102348841004         PINDER CLEMENT B    12379 BONCREST DR                       000N        CARE OF             
MTR02641100001000000000000000RA              76346176    005801600000016000000350000003NN  NNW 000                       N    
RDG02641100WATRL000000004K00000000000000060023711082014104200N000000000000N80       000090400K 10000000010000000045           
CUS0264110000102348881000         HAIMOVITZ ERICA     12381 BONCREST DR                       000N        CARE OF             
MTR02641100001000000000000000RA              27812895    005801610000016100000520000003NN  NNW 000                       N    
RDG02641100WATRL000000004K00000000000002037023811082014104235N000000000000N80       000350400K 10000000010000002015           
CUS0264110000102348581006         MYERS THERESA ANN   12372 BONFIRE DR                        000N        CARE OF             
MTR02641100001000000000000000RA              27817163    005801620000016200000520000003NN  NNW 000                       N    
RDG02641100WATRL000000004K00000000000003333017611082014100747N000000000000N80       000630400K 10000000010000003315           
CUS0264110000102348580008         EBB JANIE           12370 BONFIRE DR                        000N        CARE OF             
MTR02641100001000000000000000RA              27817088    005801630000016300000520000003NN  NNW 000                       N    
RDG02641100WATRL000000004K00000000000003016017711082014100818N000000000000N80       000310400K 10000000010000003005           
CUS0264110000102348579000         PALMER SHANTEL      12368 BONFIRE DR                        000N        CARE OF             
MTR02641100001000000000000000RA              27817160    005801640000016400000520000003NN  NNW 000                       N    
RDG02641100WATRL000000004K00000000000002967017811082014100824N000000000000N80       000060400K 10000000010000002961           
CUS0264110000102348578002         TAYLOR ADOLPH A     12366 BONFIRE DR                        000N        CARE OF             
MTR02641100001000000000000000RA              27817107    005801650000016500000520000003NN  NNW 000                       N    
RDG02641100WATRL000000004K00000000000003110017911082014100903N000000000000N80       000390400K 10000000010000003068           
CUS0264110000102348577004         SANDS ROSE ANN      12364 BONFIRE DR                        000N        CARE OF             
MTR02641100001000000000000000RA              50479977    005801660000016600000520000003NN  NNW 000                       N    
RDG02641100WATRL000000004K00000000000001780018011082014100908N000000000000N80       000050400K 10000000010000001775           
CUS0264110000102348576006         CROSS MEREDITH      12362 BONFIRE DR                        000N        CARE OF             
MTR02641100001000000000000000RA              27817164    005801670000016700000520000003NN  NNW 000                       N    
RDG02641100WATRL000000004K00000000000003161018111082014100946N000000000000N80       000380400K 10000000010000003047           
CUS0264110000102348575008         RILON D POWERS      12360 BONFIRE DR                        000N        CARE OF             
MTR02641100001000000000000000RA              27817110    005801680000016800000520000003NN  NNW 000                       N    
RDG02641100WATRL000000004K00000000000004478018211082014100954N000000000000N80       000080400K 10000000010000004455           
CUS0264110000102352178004         DESTINY HILLARD-THOM12358 BONFIRE DR                        000N        CARE OF             
MTR02641100001000000000000000RA              14924597    005801690000016900000310000003NN  NNW 000                       N    
RDG02641100WATRL000000004K00000000000000440018311082014101050N000000000000N80       000560400K 10000000010000000400           
CUS0264110000102349088001         WINEBRENNER CURT D  12356 BONFIRE DR                        000N        CARE OF             
MTR02641100001000000000000000RA              14924614    005801700000017000000310000003NN  NNW 000                       N    
RDG02641100WATRL000000004K00000000000000388018411082014101058N000000000000N80       000080400K 10000000010000000381           
CUS0264110000102349087003         SNOWMAN ROBERT H    12354 BONFIRE DR                        000N        CARE OF             
MTR02641100001000000000000000RA              27822602    005801710000017100000520000003NN  NNW 000                       N    
RDG02641100WATRL000000004K00000000000003337025311082014114840N000000000000N80       002550400K 10000000010000003326           
CUS0264110000102349085007         CHAUDHRY SAEED AHMAD12352 BONFIRE DR                        000N        CARE OF             
MTR02641100001000000000000000RA              27822518    005801720000017200000520000003NN  NNW 000                       N    
RDG02641100WATRL000000004K00000000000003450025411082014115003N000000000000N80       000830400K 10000000010000003434           
CUS0264110000102349089009         KAREN MARUTYAN      12350 BONFIRE DR                        000N        CARE OF             
MTR02641100001000000000000000RA              27822603    005801730000017300000520000003NN  NNW 000                       N    
RDG02641100WATRL000000004K00000000000003901018511082014101214N000000000000N80       000760400K 10000000010000003883           
CUS0264110000102349090007         HINOSTROZA MARIA E/M12348 BONFIRE DR                        000N        CARE OF             
MTR02641100001000000000000000RA              27822606    005801740000017400000520000003NN  NNW 000                       N    
RDG02641100WATRL000000004K00000000000005114018611082014101234N000000000000N80       000200400K 10000000010000005083           
CUS0264110000102355002003         EMENETU H TEDLA     12346 BONFIRE DR                        000N        CARE OF             
MTR02641100001000000000000000RA              29084666    005801750000017500000520000003NN  NNW 000                       N    
RDG02641100WATRL000000004K00000000000004273018711082014101314N000000000000N80       000400400K 10000000010000004248           
CUS0264110000102355008000         GEOREE G MILLS JR.  12344 BONFIRE DR                        000N        CARE OF             
MTR02641100001000000000000000RA              29084667    005801760000017600000520000003NN  NNW 000                       N    
RDG02641100WATRL000000004K00000000000004768018811082014101356N000400000010N80       000420400K 10000000010000004767           
CUS0264110000102355007002         WILL JON            12342 BONFIRE DR                        000N        CARE OF             
MTR02641100001000000000000000RA              29084912    005801770000017700000520000003NN  NNW 000                       N    
RDG02641100WATRL000000004K00000000000003913018911082014101404N000000000000N80       000080400K 10000000010000003888           
CUS0264110000102356774006         YANNEY CHARLES R    12340 BONFIRE DR                        000N        CARE OF             
MTR02641100001000000000000000RA              29402741    005801780000017800000520000003NN  NNW 000                       N    
RDG02641100WATRL000000004K00000000000002701019011082014101437N000000000000N80       000330400K 10000000010000002688           
CUS0264110000102355006004         AMANDA M. COLLINS   12338 BONFIRE DR                        000N        CARE OF             
MTR02641100001000000000000000RA              38187529    005801790000017900000520000003NN  NNW 000                       N    
RDG02641100WATRL000000004K00000000000002347019111082014101450N000000000000N80       000130400K 10000000010000002334           
CUS0264110000102355005006         ORTEGA PORTILLO CARL12336 BONFIRE DR                        000N        CARE OF             
MTR02641100001000000000000000RA              29682247    005801800000018000000520000003NN  NNW 000                       N    
RDG02641100WATRL000000004K00000000000003626019211082014101525N000000000000N80       000350400K 10000000010000003590           
CUS0264110000102355004009         ZAKS PAULETTE       12334 BONFIRE DR                        000N        CARE OF             
MTR02641100001000000000000000RA              29404931    005801810000018100000520000003NN  NNW 000                       N    
RDG02641100WATRL000000004K00000000000003579019311082014101533N000000000000N80       000080400K 10000000010000003569           
CUS0264110000102355003001         PATEL JASHBHAI R    12332 BONFIRE DR                        000N        CARE OF             
MTR02641100001000000000000000RA              30524410    005801820000018200000520000003NN  NNW 000                       N    
RDG02641100WATRL000000004K00000000000002750019411082014101610N000000000000N80       000370400K 10000000010000002740           
CUS0264110000102357505003         ULLRICH JAMES M     12330 BONFIRE DR                        000N        CARE OF             
MTR02641100001000000000000000RA              29404419    005801830000018300000520000003NN  NNW 000                       N    
RDG02641100WATRL000000004K00000000000002157019511082014101708N000000000000N80       000580400K 10000000010000002145           
CUS0264110000102357504006         MACGRUDER MARLENE R 12328 BONFIRE DR                        000N        CARE OF             
MTR02641100001000000000000000RA              14912327    005801840000018400000310000003NN  NNW 000                       N    
RDG02641100WATRL000000004K00000000000000583019611082014101750N000000000000N80       000420400K 10000000010000000571           
CUS0264110000102357503008         WARD JAMES B,JR     12326 BONFIRE DR                        000N        CARE OF             
MTR02641100001000000000000000RA              29404422    005801850000018500000520000003NN  NNW 000                       N    
RDG02641100WATRL000000004K00000000000005197019711082014101756N000000000000N80       000060400K 10000000010000005165           
CUS0264110000102359110000         BEYER LINDA M       12324 BONFIRE DR                        000N        CARE OF             
MTR02641100001000000000000000RA              29404423    005801860000018600000520000003NN  NNW 000                       N    
RDG02641100WATRL000000004K00000000000002274019811082014101830N000000000000N80       000340400K 10000000010000002264           
CUS0264110000102357502000         LISA R COOK         12322 BONFIRE DR                        000N        CARE OF             
MTR02641100001000000000000000RA              29404930    005801870000018700000520000003NN  NNW 000                       N    
RDG02641100WATRL000000004K00000000000002641019911082014101842N000000000000N80       000120400K 10000000010000002630           
CUS0264110000102357501002         GILLIAM LYNN B      12320 BONFIRE DR                        000N        CARE OF             
MTR02641100001000000000000000RA              29404636    005801880000018800000520000003NN  NNW 000                       N    
RDG02641100WATRL000000004K00000000000002597020011082014101922N000000000000N80       000400400K 10000000010000002589           
CUS0264110000102357500004         MICHAELSON RITA     12318 BONFIRE DR                        000N        CARE OF             
MTR02641100001000000000000000RA              29404634    005801890000018900000520000003NN  NNW 000                       N    
RDG02641100WATRL000000004K00000000000002868020111082014101928N000000000000N80       000060400K 10000000010000002860           
CUS0264110000102357499009         LAURA J SPARENBERG  12316 BONFIRE DR                        000N        CARE OF             
MTR02641100001000000000000000RA              01086846    005801900000019000000610000003NN  NNW 000                       N    
RDG02641100WATRL000000004K00000000000001228020211082014102019N000000000000N80       000510400K 10000000010000001211           
CUS0264110000102358032007         RANDY J SPARKS      12314 BONFIRE DR                        000N        CARE OF             
MTR02641100001000000000000000RA              29681417    005801910000019100000520000003NN  NNW 000                       N    
RDG02641100WATRL000000004K00000000000002617015111082014094958N000000000000N80       000330400K 10000000010000002613           
CUS0264110000102358855001         ERIC & STEPHANIE WIL12312 BONFIRE DR                        000N        CARE OF             
MTR02641100001000000000000000RA              29682229    005801920000019200000520000003NN  NNW 000                       N    
RDG02641100WATRL000000004K00000000000001656014911082014094918N000000000000N80       000330400K 10000000010000001623           
CUS0264110000102358854004         KASHNOW JOSEPH A    12310 BONFIRE DR                        000N        CARE OF             
MTR02641100001000000000000000RA              29682232    005801930000019300000520000003NN  NNW 000                       N    
RDG02641100WATRL000000004K00000000000003569015011082014094925N000000000000N80       000070400K 10000000010000003551           
CUS0264110000102357911003         BECKER LEONID       12308 BONFIRE DR                        000N        CARE OF             
MTR02641100001000000000000000RA              30524411    005801940000019400000520000003NN  NNW 000                       N    
RDG02641100WATRL000000004K00000000000003970014711082014094834N000000000000N80       000380400K 10000000010000003918           
CUS0264110000102357910005         MEADOWS RACQUEL N   12306 BONFIRE DR                        000N        CARE OF             
MTR02641100001000000000000000RA              29681115    005801950000019500000520000003NN  NNW 000                       N    
RDG02641100WATRL000000004K00000000000004337014811082014094845N000000000000N80       000110400K 10000000010000004310           
CUS0264110000102357909007         CARTER LAWRENCE, JR 12304 BONFIRE DR                        000N        CARE OF             
MTR02641100001000000000000000RA              29681117    005801960000019600000520000003NN  NNW 000                       N    
RDG02641100WATRL000000004K00000000000002119014511082014094749N000000000000N80       000370400K 10000000010000002102           
CUS0264110000102357908009         DEBAR JERALD L      12302 BONFIRE DR                        000N        CARE OF             
MTR02641100001000000000000000RA              29681116    005801970000019700000520000003NN  NNW 000                       N    
RDG02641100WATRL000000004K00000000000003943014611082014094756N000000000000N80       000070400K 10000000010000003913           
CUS0264110000102358853006         CARTER LAWRENCE     12300 BONFIRE DR                        000N        CARE OF             
MTR02641100001000000000000000RA              29682226    005801980000019800000520000003NN  NNW 000                       N    
RDG02641100WATRL000000004K00000000000002819014411082014094712N000000000000N80       000830400K 10000000010000002810           
CUS0264110000102373690003         DELLA L STALLINGS   617 GLYNLEE CT                          000N        CARE OF             
MTR02641100001000000000000000RA              52286392    005801990000019900000520000003NN  NNW 000                       N    
RDG02641100WATRL000000004K00000000000004293024811082014112915N000000000000N80       003010400K 10000000010000004238           
CUS0264110000102373691001         NYOIKE EUTYCHUS     619 GLYNLEE CT                          000N        CARE OF             
MTR02641100001000000000000000RA              35102304    005802000000020000000520000003NN  NNW 000                       N    
RDG02641100WATRL000000004K00000000000005102011511082014092737N000000000000N80       000930400K 10000000010000005082           
CUS0264110000102373692009         SINE JASON B        621 GLYNLEE CT                          000N        CARE OF             
MTR02641100001000000000000000RA              35102305    005802010000020100000520000003NN  NNW 000                       N    
RDG02641100WATRL000000004K00000000000003123011611082014092748N000000000000N80       000110400K 10000000010000003111           
CUS0264110000102373693007         EBINAMAH NKEM INNO  623 GLYNLEE CT                          000N        CARE OF             
MTR02641100001000000000000000RA              26017868    005802020000020200000520000003NN  NNW 000                       N    
RDG02641100WATRL000000004K00000000000003161011711082014092826N000000000000N80       000380400K 10000000010000003152           
CUS0264110000102373694005         JACKSON BRUCE ONEAL 625 GLYNLEE CT                          000N        CARE OF             
MTR02641100001000000000000000RA              32771421    005802030000020300000520000003NN  NNW 000                       N    
RDG02641100WATRL000000004K00000000000002252011811082014092836N000000000000N80       000100400K 10000000010000002249           
CUS0264110000102373695002         AGGARWAL SHYAM S    627 GLYNLEE CT                          000N        CARE OF             
MTR02641100001000000000000000RA              33081848    005802040000020400000520000003NN  NNW 000                       N    
RDG02641100WATRL000000004K00000000000002783011911082014092920N000000000000N80       000440400K 10000000010000002769           
CUS0264110000102373696000         RAMKUMAR, MEETANTRAW629 GLYNLEE CT                          000N        CARE OF             
MTR02641100001000000000000000RA              24769945    005802050000020500000520000003NN  NNW 000                       N    
RDG02641100WATRL000000004K00000000000002328012011082014092930N000000000000N80       000100400K 10000000010000002309           
CUS0264110000102373697008         PATEL LATESH R      631 GLYNLEE CT                          000N        CARE OF             
MTR02641100001000000000000000RA              35098612    005802060000020600000520000003NN  NNW 000                       N    
RDG02641100WATRL000000004K00000000000002845012111082014093045N000000000010N80       000750400K 10000000010000002845           
CUS0264110000102373659008         PAULSON CAROLINE A  633 GLYNLEE CT                          000N        CARE OF             
MTR02641100001000000000000000RA              35098700    005802070000020700000520000003NN  NNW 000                       N    
RDG02641100WATRL000000004K00000000000002622024911082014113347N000000000000N80       002720400K 10000000010000002604           
CUS0264110000102373660006         FRANKLIN MICHELLE D 635 GLYNLEE CT                          000N        CARE OF             
MTR02641100001000000000000000RA              76345970    005802080000020800000350000003NN  NNW 000                       N    
RDG02641100WATRL000000004K00000000000000017025011082014113358N000000000010N80       000110400K 10000000010000000006           
CUS0264110000102373661004         BARBARA WEINZIRL    637 GLYNLEE CT                          000N        CARE OF             
MTR02641100001000000000000000RA              75426002    005802090000020900000350000003NN  NNW 000                       N    
RDG02641100WATRL000000004K00000000000000246012211082014093238N000000000000N80       001130400K 10000000010000000209           
CUS0264110000102373662002         HARVIN LEROY        639 GLYNLEE CT                          000N        CARE OF             
MTR02641100001000000000000000RA              75426001    005802100000021000000350000003NN  NNW 000                       N    
RDG02641100WATRL000000004K00000000000000151012311082014093246N000000000000N80       000080400K 10000000010000000129           
CUS0264110000102373663000         KAUR BALWINDER      641 GLYNLEE CT                          000N        CARE OF             
MTR02641100001000000000000000RA              75426309    005802110000021100000350000003NN  NNW 000                       N    
RDG02641100WATRL000000004K00000000000000029012411082014093405N000400000010N80       000790400K 10000000010000000026           
CUS0264110000102373664008         WINDMAN BETH H/JO AN643 GLYNLEE CT                          000N        CARE OF             
MTR02641100001000000000000000RA              35098549    005802120000021200000520000003NN  NNW 000                       N    
RDG02641100WATRL000000004K00000000000004209012511082014093501N000000000000N80       000560400K 10000000010000004190           
CUS0264110000102373665005         MULTANI AMANDEEP KAU645 GLYNLEE CT                          000N        CARE OF             
MTR02641100001000000000000000RA              75614545    005802130000021300000350000003NN  NNW 000                       N    
RDG02641100WATRL000000004K00000000000000225012611082014093542N000000000000N80       000410400K 10000000010000000191           
CUS0264110000102373666003         SINGH HARJINDER     647 GLYNLEE CT                          000N        CARE OF             
MTR02641100001000000000000000RA              35098564    005802140000021400000520000003NN  NNW 000                       N    
RDG02641100WATRL000000004K00000000000003832012711082014093635N000000000000N80       000530400K 10000000010000003792           
CUS0264110000102373667001         SOUTHMAYD DOMINICK  649 GLYNLEE CT                          000N        CARE OF             
MTR02641100001000000000000000RA              35098561    005802150000021500000520000003NN  NNW 000                       N    
RDG02641100WATRL000000004K00000000000004033012811082014093646N000000000000N80       000110400K 10000000010000004017           
CUS0264110000102373668009         PERUZOVIC TIHOMIR   651 GLYNLEE CT                          000N        CARE OF             
MTR02641100001000000000000000RA              45380440    005802160000021600000520000003NN  NNW 000                       N    
RDG02641100WATRL000000004K00000000000003530012911082014093717N000000000000N80       000310400K 10000000010000003515           
CUS0264110000102373669007         PELC ADAM J         653 GLYNLEE CT                          000N        CARE OF             
MTR02641100001000000000000000RA              35098565    005802170000021700000520000003NN  NNW 000                       N    
RDG02641100WATRL000000004K00000000000001712013011082014093751N000300000010N80       000340400K 10000000010000001692           
CUS0264110000102373670005         YANGING YE          655 GLYNLEE CT                          000N        CARE OF             
MTR02641100001000000000000000RA              35098562    005802180000021800000520000003NN  NNW 000                       N    
RDG02641100WATRL000000004K00000000000000369013111082014093814N000000000000N80       000230400K 10000000010000000366           
CUS0264110000102373671003         SATPAL S DANG M.D.  657 GLYNLEE CT                          000N        CARE OF             
MTR02641100001000000000000000RA              48584650    005802190000021900000520000003NN  NNW 000                       N    
RDG02641100WATRL000000004K00000000000002940013211082014093849N000000000010N80       000350400K 10000000010000002938           
CUS0264110000102373683008         PROGRESS UNLIMITED I656 GLYNLEE CT                          000N        CARE OF             
MTR02641100001000000000000000RA              32899317    005802200000022000000520000003NN  NNW 000                       N    
RDG02641100WATRL000000004K00000000000004151013311082014093942N000000000000N80       000530400K 10000000010000004124           
CUS0264110000102373682000         PROGRESS UNLIMITED I654 GLYNLEE CT                          000N        CARE OF             
MTR02641100001000000000000000RA              32899286    005802210000022100000520000003NN  NNW 000                       N    
RDG02641100WATRL000000004K00000000000005209013411082014094033N000000000000N80       000510400K 10000000010000005187           
CUS0264110000102373681002         LEWIS JODY E        652 GLYNLEE CT                          000N        CARE OF             
MTR02641100001000000000000000RA              32899285    005802220000022200000520000003NN  NNW 000                       N    
RDG02641100WATRL000000004K00000000000002706025111082014113825N000000000000N80       002670400K 10000000010000002706           
CUS0264110000102373680004         HALEY ROBERT L      650 GLYNLEE CT                          000N        CARE OF             
MTR02641100001000000000000000RA              32899118    005802230000022300000520000003NN  NNW 000                       N    
RDG02641100WATRL000000004K00000000000004149013511082014094155N000000000000N80       000820400K 10000000010000004118           
CUS0264110000102373679006         ALEKSANDR SHNEYDER  648 GLYNLEE CT                          000N        CARE OF             
MTR02641100001000000000000000RA              32899119    005802240000022400000520000003NN  NNW 000                       N    
RDG02641100WATRL000000004K00000000000003861013611082014094211N000400000020N80       000160400K 10000000010000003846           
CUS0264110000102373678008         EPPS MICHELLE D     646 GLYNLEE CT                          000N        CARE OF             
MTR02641100001000000000000000RA              32899214    005802250000022500000520000003NN  NNW 000                       N    
RDG02641100WATRL000000004K00000000000001954013711082014094251N000000000000N80       000400400K 10000000010000001940           
CUS0264110000102373677000         LEWIS JODY E        644 GLYNLEE CT                          000N        CARE OF             
MTR02641100001000000000000000RA              32899314    005802260000022600000520000003NN  NNW 000                       N    
RDG02641100WATRL000000004K00000000000005170013811082014094335N000000000000N80       000440400K 10000000010000005145           
CUS0264110000102373676002         MELODY HENDRICKSON  642 GLYNLEE CT                          000N        CARE OF             
MTR02641100001000000000000000RA              32899202    005802270000022700000520000003NN  NNW 000                       N    
RDG02641100WATRL000000004K00000000000005619013911082014094407N000000000000N80       000320400K 10000000010000005593           
CUS0264110000102373675004         SCOTT BEVERLY A     640 GLYNLEE CT                          000N        CARE OF             
MTR02641100001000000000000000RA              32899287    005802280000022800000520000003NN  NNW 000                       N    
RDG02641100WATRL000000004K00000000000002259014011082014094420N000400000010N80       000130400K 10000000010000002250           
CUS0264110000102373674007         WASHINGTON SANDRA L 638 GLYNLEE CT                          000N        CARE OF             
MTR02641100001000000000000000RA              32899288    005802290000022900000520000003NN  NNW 000                       N    
RDG02641100WATRL000000004K00000000000002082014111082014094501N000000000000N80       000410400K 10000000010000002074           
CUS0264110000102373673009         DURFY JAMES         636 GLYNLEE CT                          000N        CARE OF             
MTR02641100001000000000000000RA              32899284    005802300000023000000520000003NN  NNW 000                       N    
RDG02641100WATRL000000004K00000000000002295014211082014094507N000000000000N80       000060400K 10000000010000002274           
CUS0264110000102373672001         JOHN FUJIWARA       634 GLYNLEE CT                          000N        CARE OF             
MTR02641100001000000000000000RA              99387896    005802310000023100000570000003NN  NNW 000                       N    
RDG02641100WATRL000000004K00000000000001286014311082014094549N000000000000N80       000420400K 10000000010000001263           
CUS0264110000102358856009         NIKOLAI DENISENKO   12311 BONFIRE DR                        000N        CARE OF             
MTR02641100001000000000000000RA              29682231    005802320000023200000520000003NN  NNW 000                       N    
RDG02641100WATRL000000004K00000000000002508015211082014095533N000000000000N80       003350400K 10000000010000002494           
CUS0264110000102358857007         KRYLOVA TATIANA     12313 BONFIRE DR                        000N        CARE OF             
MTR02641100001000000000000000RA              29682305    005802330000023300000520000003NN  NNW 000                       N    
RDG02641100WATRL000000004K00000000000003090015311082014095556N000000000000N80       000230400K 10000000010000003071           
CUS0264110000102358858005         GOODRICH HERBERT P  12315 BONFIRE DR                        000N        CARE OF             
MTR02641100001000000000000000RA              31581044    005802340000023400000520000003NN  NNW 000                       N    
RDG02641100WATRL000000004K00000000000002669015411082014095603N000000000000N80       000070400K 10000000010000002656           
CUS0264110000102358859003         M BRADLEY M/A K ROSK12317 BONFIRE DR                        000N        CARE OF             
MTR02641100001000000000000000RA              29682302    005802350000023500000520000003NN  NNW 000                       N    
RDG02641100WATRL000000004K00000000000003088015511082014095633N000000000000N80       000300400K 10000000010000003082           
CUS0264110000102358860001         ROBERT GOODRICH     12319 BONFIRE DR                        000N        CARE OF             
MTR02641100001000000000000000RA              29682301    005802360000023600000520000003NN  NNW 000                       N    
RDG02641100WATRL000000004K00000000000004162015611082014095639N000000000000N80       000060400K 10000000010000004154           
CUS0264110000102358861009         BRANCH JUDY BROWN   12321 BONFIRE DR                        000N        CARE OF             
MTR02641100001000000000000000RA              29682300    005802370000023700000520000003NN  NNW 000                       N    
RDG02641100WATRL000000004K00000000000002753015711082014095718N000400000010N80       000390400K 10000000010000002749           
CUS0264110000102358862007         YEVGENIYA NEFTINA   12323 BONFIRE DR                        000N        CARE OF             
MTR02641100001000000000000000RA              30524408    005802380000023800000520000003NN  NNW 000                       N    
RDG02641100WATRL000000004K00000000000003175015811082014095729N000000000000N80       000110400K 10000000010000003153           
CUS0264110000102358863005         SANDERS JAMES M     12325 BONFIRE DR                        000N        CARE OF             
MTR02641100001000000000000000RA              30524413    005802390000023900000520000003NN  NNW 000                       N    
RDG02641100WATRL000000004K00000000000002975015911082014095850N000000000000N80       000810400K 10000000010000002954           
CUS0264110000102373698006         HYSON KELLY ANN     12327 BONFIRE DR                        000N        CARE OF             
MTR02641100001000000000000000RA              35099868    005802400000024000000520000003NN  NNW 000                       N    
RDG02641100WATRL000000004K00000000000002630016011082014095926N000000000000N80       000360400K 10000000010000002615           
CUS0264110000102373699004         STERN JOSEPH        12329 BONFIRE DR                        000N        CARE OF             
MTR02641100001000000000000000RA              33735578    005802410000024100000520000003NN  NNW 000                       N    
RDG02641100WATRL000000004K00000000000003522016111082014100004N000000000000N80       000380400K 10000000010000003497           
CUS0264110000102373700000         KARAMBELAS SOTIRIOS 12331 BONFIRE DR                        000N        CARE OF             
MTR02641100001000000000000000RA              33735882    005802420000024200000520000003NN  NNW 000                       N    
RDG02641100WATRL000000004K00000000000003654025211082014114425N000400000010N80       003600400K 10000000010000003647           
CUS0264110000102373845003         PATEL KUMAR D       12333 BONFIRE DR                        000N        CARE OF             
MTR02641100001000000000000000RA              45378661    005802430000024300000520000003NN  NNW 000                       N    
RDG02641100WATRL000000004K00000000000003694016211082014100102N000000000000N80       000580400K 10000000010000003660           
CUS0264110000102373701008         RODERICK M MORAGNE E12335 BONFIRE DR                        000N        CARE OF             
MTR02641100001000000000000000RA              33735972    005802440000024400000520000003NN  NNW 000                       N    
RDG02641100WATRL000000004K00000000000003337016311082014100106N000000000000N80       000040400K 10000000010000003331           
CUS0264110000102373702006         TARI FURKAN         12337 BONFIRE DR                        000N        CARE OF             
MTR02641100001000000000000000RA              76348487    005802450000024500000350000003NN  NNW 000                       N    
RDG02641100WATRL000000004K00000000000000027016411082014100205N000000000000N80       000590400K 10000000010000000009           
CUS0264110000102348868007         LUDWIG MARK         12339 BONFIRE DR                        000N        CARE OF             
MTR02641100001000000000000000RA              46881124    005802460000024600000520000003NN  NNW 000                       N    
RDG02641100WATRL000000004K00000000000002669016511082014100242N000000000000N80       000370400K 10000000010000002654           
CUS0264110000102348864006         COLLINS SAMUEL J    12341 BONFIRE DR                        000N        CARE OF             
MTR02641100001000000000000000RA              27812377    005802470000024700000520000003NN  NNW 000                       N    
RDG02641100WATRL000000004K00000000000002940016611082014100310N000000000000N80       000280400K 10000000010000002922           
CUS0264110000102348865003         MORRIS TONYA M      12343 BONFIRE DR                        000N        CARE OF             
MTR02641100001000000000000000RA              27812375    005802480000024800000520000003NN  NNW 000                       N    
RDG02641100WATRL000000004K00000000000002442016711082014100316N000000000000N80       000060400K 10000000010000002426           
CUS0264110000102348867009         FERNANDO C IBANEZ   12345 BONFIRE DR                        000N        CARE OF             
MTR02641100001000000000000000RA              29681745    005802490000024900000520000003NN  NNW 000                       N    
RDG02641100WATRL000000004K00000000000003798016811082014100345N000000000000N80       000290400K 10000000010000003781           
CUS0264110000102348866001         TONYA & LATONYA WEBS12347 BONFIRE DR                        000N        CARE OF             
MTR02641100001000000000000000RA              29680636    005802500000025000000520000003NN  NNW 000                       N    
RDG02641100WATRL000000004K00000000000003275016911082014100352N000000000000N80       000070400K 10000000010000003257           
CUS0264110000102348582004         NICHOLS DONALD M    12349 BONFIRE DR                        000N        CARE OF             
MTR02641100001000000000000000RA              27814227    005802510000025100000520000003NN  NNW 000                       N    
RDG02641100WATRL000000004K00000000000003330017011082014100456N000000000000N80       000640400K 10000000010000003322           
CUS0264110000102348583002         MACKEY MIRIAM       12351 BONFIRE DR                        000N        CARE OF             
MTR02641100001000000000000000RA              27814099    005802520000025200000520000003NN  NNW 000                       N    
RDG02641100WATRL000000004K00000000000002572017111082014100502N000000000000N80       000060400K 10000000010000002561           
CUS0264110000102348584000         SAUTER GROVER       12353 BONFIRE DR                        000N        CARE OF             
MTR02641100001000000000000000RA              27814231    005802530000025300000520000003NN  NNW 000                       N    
RDG02641100WATRL000000004K00000000000003758017211082014100546N000000000010N80       000440400K 10000000010000003746           
CUS0264110000102348585007         ESCOBAR JOSUE       12355 BONFIRE DR                        000N        CARE OF             
MTR02641100001000000000000000RA              27814229    005802540000025400000520000003NN  NNW 000                       N    
RDG02641100WATRL000000004K00000000000003490017311082014100554N000000000000N80       000080400K 10000000010000003471           
CUS0264110000102348827003         GITHINJI PHILIP NICH12357 BONFIRE DR                        000N        CARE OF             
MTR02641100001000000000000000RA              29680635    005802550000025500000520000003NN  NNW 000                       N    
RDG02641100WATRL000000004K00000000000002989017411082014100638N000000000000N80       000440400K 10000000010000002951           
CUS0264110000102348828001         OSTENDORF SARAH     12359 BONFIRE DR                        000N        CARE OF             
MTR02641100001000000000000000RA              27814158    005802560000025600000520000003NN  NNW 000                       N    
RDG02641100WATRL000000004K00000000000004629017511082014100644N000000000000N80       000060400K 10000000010000004600           
RTR02641100NN02560256000002560000000002560256000206NY025602560256000200000000000000000000000001    10272014NY020000 N         
RHD02641200NN01480148000001480000000001480148000013NY014801480148000100000000000000000000000001    10272014NY020000 N         
CUS0264120000102434416000         EZUMBA IKENNA       2 NORWICH CT                            000N        CARE OF             
MTR02641200001000000000000000RA              01099380    005800010000000100000610000003NN  NNW 000                       N    
RDG02641200WATRL000000004K00000000000001480000111052014144652N000000000000N20       000000400K 10000000010000001463           
CUS0264120000102434413007         BETH ISRAEL MIKRO KO4 NORWICH CT                            000N        CARE OF             
MTR02641200001000000000000000RA              01100059    005800020000000200000610000003NN  NNW 000                       N    
RDG02641200WATRL000000004K00000000000000968000211052014144705N000000000000N20       000130400K 10000000010000000955           
CUS0264120000102434410003         LARRY E TIMS JR.    6 NORWICH CT                            000N        CARE OF             
MTR02641200001000000000000000RA              01104747    005800030000000300000610000003NN  NNW 000                       N    
RDG02641200WATRL000000004K00000000000001469000311052014144708N000000000000N20       000030400K 10000000010000001438           
CUS0264120000102434409005         SMITH AARON         8 NORWICH CT                            000N        CARE OF             
MTR02641200001000000000000000RA              01107494    005800040000000400000610000003NN  NNW 000                       N    
RDG02641200WATRL000000004K00000000000000897000411052014144710N000000000000N20       000020400K 10000000010000000883           
CUS0264120000102434407009         MELVIN LACY L,SR    10 NORWICH CT                           000N        CARE OF             
MTR02641200001000000000000000RA              01104752    005800050000000500000610000003NN  NNW 000                       N    
RDG02641200WATRL000000004K00000000000001696000511052014144713N000000000000N20       000030400K 10000000010000001670           
CUS0264120000102439536000         NGUYEN CHAU M       7 NORWICH CT                            000N        CARE OF             
MTR02641200001000000000000000RA              14916603    005800060000000600000310000003NN  NNW 000                       N    
RDG02641200WATRL000000004K00000000000001129000611052014144724N000000000010N20       000110400K 10000000010000001086           
CUS0264120000102434405003         PERVEZ SAJID        5 NORWICH CT                            000N        CARE OF             
MTR02641200001000000000000000RA              01103454    005800070000000700000610000003NN  NNW 000                       N    
RDG02641200WATRL000000004K00000000000001908000711052014144726N000000000000N20       000020400K 10000000010000001826           
CUS0264120000102434417008         DADE DEBORAH A      3 NORWICH CT                            000N        CARE OF             
MTR02641200001000000000000000RA              01099379    005800080000000800000610000003NN  NNW 000                       N    
RDG02641200WATRL000000004K00000000000000657000811052014144728N000000000000N20       000020400K 10000000010000000648           
CUS0264120000102434355000         BUDRAM WINSTON R    909 HUDDERSFIELD CT                     000N        CARE OF             
MTR02641200001000000000000000RA              01096983    005800090000000900000610000003NN  NNW 000                       N    
RDG02641200WATRL000000004K00000000000001390000911052014144738N000000000000N20       000100400K 10000000010000001380           
CUS0264120000102434354003         MEDLEY CARL L       911 HUDDERSFIELD CT                     000N        CARE OF             
MTR02641200001000000000000000RA              01102284    005800100000001000000610000003NN  NNW 000                       N    
RDG02641200WATRL000000004K00000000000001299001011052014144741N000000000000N20       000030400K 10000000010000001282           
CUS0264120000102434353005         CORSIGLIA CHRISTOPHE913 HUDDERSFIELD CT                     000N        CARE OF             
MTR02641200001000000000000000RA              01100250    005800110000001100000610000003NN  NNW 000                       N    
RDG02641200WATRL000000004K00000000000000771001111052014144742N000000000000N20       000010400K 10000000010000000760           
CUS0264120000102434352007         SCULLY ANDREW J     915 HUDDERSFIELD CT                     000N        CARE OF             
MTR02641200001000000000000000RA              01095834    005800120000001200000610000003NN  NNW 000                       N    
RDG02641200WATRL000000004K00000000000000875001211052014144749N000000000000N20       000070400K 10000000010000000859           
CUS0264120000102434348005         BEVERLY ANDREA      910 HUDDERSFIELD CT                     000N        CARE OF             
MTR02641200001000000000000000RA              75616882    005800130000001300000350000003NN  NNW 000                       N    
RDG02641200WATRL000000004K00000000000000157001311052014144751N000000000000N20       000020400K 10000000010000000121           
CUS0264120000102434347007         SINGH SAMRAT        908 HUDDERSFIELD CT                     000N        CARE OF             
MTR02641200001000000000000000RA              01095798    005800140000001400000610000003NN  NNW 000                       N    
RDG02641200WATRL000000004K00000000000001174001411052014144755N000400000010N20       000040400K 10000000010000001168           
CUS0264120000102434346009         COOK TASHA A        906 HUDDERSFIELD CT                     000N        CARE OF             
MTR02641200001000000000000000RA              01094700    005800150000001500000610000003NN  NNW 000                       N    
RDG02641200WATRL000000004K00000000000002421001511052014144806N000400000010N20       000110400K 10000000010000002399           
CUS0264120000102434351009         HOUGH MATTHEW EDWARD904 HUDDERSFIELD CT                     000N        CARE OF             
MTR02641200001000000000000000RA              01096525    005800160000001600000610000003NN  NNW 000                       N    
RDG02641200WATRL000000004K00000000000001087001611052014144808N000000000000N20       000020400K 10000000010000001061           
CUS0264120000102434350001         DEAL SAMUEL J       902 HUDDERSFIELD CT                     000N        CARE OF             
MTR02641200001000000000000000RA              01103479    005800170000001700000610000003NN  NNW 000                       N    
RDG02641200WATRL000000004K00000000000001204001711052014144811N000000000000N20       000030400K 10000000010000001181           
CUS0264120000102434349003         STEWART MARK        900 HUDDERSFIELD CT                     000N        CARE OF             
MTR02641200001000000000000000RA              01103455    005800180000001800000610000003NN  NNW 000                       N    
RDG02641200WATRL000000004K00000000000001188001811052014144813N000000000000N20       000020400K 10000000010000001167           
CUS0264120000102439522000         WILLIS BEVERLY M    905 RACHEL JORDAN CT                    000N        CARE OF             
MTR02641200001000000000000000RA              14915572    005800190000001900000310000003NN  NNW 000                       N    
RDG02641200WATRL000000004K00000000000000782001911052014144816N000000000000N20       000030400K 10000000010000000763           
CUS0264120000102439523008         DONNA F BARKSDALE   907 RACHEL JORDAN CT                    000N        CARE OF             
MTR02641200001000000000000000RA              14915497    005800200000002000000310000003NN  NNW 000                       N    
RDG02641200WATRL000000004K00000000000000747002011052014144820N000000000000N20       000040400K 10000000010000000726           
CUS0264120000102439524006         BOOKER IRA,JR       909 RACHEL JORDAN CT                    000N        CARE OF             
MTR02641200001000000000000000RA              99999999    005800210000002100000440000003NN  NNW 000                       N    
RDG02641200WATRL000000004K00000000000000945002111052014144822N000000000000N20       000020400K 10000000010000000927           
CUS0264120000102439525003         QUILLENS DARRYL     911 RACHEL JORDAN CT                    000N        CARE OF             
MTR02641200001000000000000000RA              14915570    005800220000002200000310000003NN  NNW 000                       N    
RDG02641200WATRL000000004K00000000000001189002211052014144825N000000000000N20       000030400K 10000000010000001171           
CUS0264120000102439526001         LURYE IOSIF V       913 RACHEL JORDAN CT                    000N        CARE OF             
MTR02641200001000000000000000RA              14913402    005800230000002300000310000003NN  NNW 000                       N    
RDG02641200WATRL000000004K00000000000001125002311052014144838N000000000000N20       000130400K 10000000010000001107           
CUS0264120000102439527009         ANDERSON CAROLYN HUL915 RACHEL JORDAN CT                    000N        CARE OF             
MTR02641200001000000000000000RA              14915568    005800240000002400000310000003NN  NNW 000                       N    
RDG02641200WATRL000000004K00000000000000296002411052014144857N000000000000N20       000190400K 10000000010000000293           
CUS0264120000102439528007         UPADHYAYA SHREEJAN K917 RACHEL JORDAN CT                    000N        CARE OF             
MTR02641200001000000000000000RA              99999999    005800250000002500000440000003NN  NNW 000                       N    
RDG02641200WATRL000000004K00000000000000486002511052014144900N000000000000N20       000030400K 10000000010000000468           
CUS0264120000102439529005         ROBERTSON MAURICE   916 RACHEL JORDAN CT                    000N        CARE OF             
MTR02641200001000000000000000RA              14914650    005800260000002600000310000003NN  NNW 000                       N    
RDG02641200WATRL000000004K00000000000000939002611052014144902N000000000000N20       000020400K 10000000010000000918           
CUS0264120000102439530003         GITELMAN EDWARD     918 RACHEL JORDAN CT                    000N        CARE OF             
MTR02641200001000000000000000RA              14914633    005800270000002700000310000003NN  NNW 000                       N    
RDG02641200WATRL000000004K00000000000000768002711052014144906N000000000000N20       000040400K 10000000010000000756           
CUS0264120000102439531001         GORSKY IGOR         914 RACHEL JORDAN CT                    000N        CARE OF             
MTR02641200001000000000000000RA              14911756    005800280000002800000310000003NN  NNW 000                       N    
RDG02641200WATRL000000004K00000000000000927002811052014144908N000000000000N20       000020400K 10000000010000000909           
CUS0264120000102439532009         WILSON ULYSSES      912 RACHEL JORDAN CT                    000N        CARE OF             
MTR02641200001000000000000000RA              14915635    005800290000002900000440000003NN  NNW 000                       N    
RDG02641200WATRL000000004K00000000000001116002911052014144910N000000000000N20       000020400K 10000000010000001082           
CUS0264120000102439533007         NGO SON KIM         910 RACHEL JORDAN CT                    000N        CARE OF             
MTR02641200001000000000000000RA              14915637    005800300000003000000440000003NN  NNW 000                       N    
RDG02641200WATRL000000004K00000000000000532003011052014144912N000000000000N20       000020400K 10000000010000000510           
CUS0264120000102439534005         HASMUKH THAKKAR     908 RACHEL JORDAN CT                    000N        CARE OF             
MTR02641200001000000000000000RA              14913403    005800310000003100000310000003NN  NNW 000                       N    
RDG02641200WATRL000000004K00000000000000682003111052014144914N000000000000N20       000020400K 10000000010000000670           
CUS0264120000102439535002         TRUONG THANH VINH  N906 RACHEL JORDAN CT                    000N        CARE OF             
MTR02641200001000000000000000RA              14912780    005800320000003200000310000003NN  NNW 000                       N    
RDG02641200WATRL000000004K00000000000002217003211052014144921N000000000000N20       000070400K 10000000010000002113           
CUS0264120000102434364002         MATHEW CIBY         860 QUEENS PARK DR                      000N        CARE OF             
MTR02641200001000000000000000RA              01095792    005800330000003300000610000003NN  NNW 000                       N    
RDG02641200WATRL000000004K00000000000003319003311052014144951N000000000000N20       000300400K 10000000010000003260           
CUS0264120000102434363004         JONAS A. WHITE      858 QUEENS PARK DR                      000N        CARE OF             
MTR02641200001000000000000000RA              01096538    005800340000003400000610000003NN  NNW 000                       N    
RDG02641200WATRL000000004K00000000000001820003411052014145002N000000000000N20       000110400K 10000000010000001778           
CUS0264120000102434362006         SILVERSTEIN RICHARD 856 QUEENS PARK DR                      000N        CARE OF             
MTR02641200001000000000000000RA              01095837    005800350000003500000610000003NN  NNW 000                       N    
RDG02641200WATRL000000004K00000000000003049003511052014145007N000000000000N20       000050400K 10000000010000002970           
CUS0264120000102434361008         NUWORSOO CHRISTIAN D854 QUEENS PARK DR                      000N        CARE OF             
MTR02641200001000000000000000RA              01097356    005800360000003600000610000003NN  NNW 000                       N    
RDG02641200WATRL000000004K00000000000001371003611052014145009N000000000000N20       000020400K 10000000010000001355           
CUS0264120000102434360000         FRANK S HOLLY JR    852 QUEENS PARK DR                      000N        CARE OF             
MTR02641200001000000000000000RA              01101158    005800370000003700000610000003NN  NNW 000                       N    
RDG02641200WATRL000000004K00000000000000828003711052014145012N000000000000N20       000030400K 10000000010000000819           
CUS0264120000102434359002         SELLMAN DANIEL J    850 QUEENS PARK DR                      000N        CARE OF             
MTR02641200001000000000000000RA              01095360    005800380000003800000610000003NN  NNW 000                       N    
RDG02641200WATRL000000004K00000000000001566003811052014145016N000000000000N20       000040400K 10000000010000001536           
CUS0264120000102434358004         MOORE ANGELA C      848 QUEENS PARK DR                      000N        CARE OF             
MTR02641200001000000000000000RA              01096526    005800390000003900000610000003NN  NNW 000                       N    
RDG02641200WATRL000000004K00000000000001476003911052014145020N000000000000N20       000040400K 10000000010000001420           
CUS0264120000102434371007         TALBOT PETER D      846 QUEENS PARK DR                      000N        CARE OF             
MTR02641200001000000000000000RA              01095734    005800400000004000000610000003NN  NNW 000                       N    
RDG02641200WATRL000000004K00000000000001283004011082014124044O000000000020N11       000290400K 10000000010000001249           
CUS0264120000102434370009         PALMER WILLIAM L    844 QUEENS PARK DR                      000N        CARE OF             
MTR02641200001000000000000000RA              01095363    005800410000004100000610000003NN  NNW 000                       N    
RDG02641200WATRL000000004K00000000000001248004111052014145050N000000000000N20       000010400K 10000000010000001224           
CUS0264120000102434369001         NAHUM ASLAN L       842 QUEENS PARK DR                      000N        CARE OF             
MTR02641200001000000000000000RA              01097350    005800420000004200000610000003NN  NNW 000                       N    
RDG02641200WATRL000000004K00000000000000966004211052014145052N000000000000N20       000020400K 10000000010000000944           
CUS0264120000102435442005         ZIPPER STUART       840 QUEENS PARK DR                      000N        CARE OF             
MTR02641200001000000000000000RA              01106684    005800430000004300000610000003NN  NNW 000                       N    
RDG02641200WATRL000000004K00000000000001364004311052014145054N000000000000N20       000020400K 10000000010000001302           
CUS0264120000102435443003         STEVEN WALMAN       838 QUEENS PARK DR                      000N        CARE OF             
MTR02641200001000000000000000RA              01106679    005800440000004400000610000003NN  NNW 000                       N    
RDG02641200WATRL000000004K00000000000001063004411052014145056N000000000000N20       000020400K 10000000010000001026           
CUS0264120000102435444001         S ARI HALBRECHT     836 QUEENS PARK DR                      000N        CARE OF             
MTR02641200001000000000000000RA              01099450    005800450000004500000610000003NN  NNW 000                       N    
RDG02641200WATRL000000004K00000000000000915004511052014145105N000000000000N20       000090400K 10000000010000000886           
CUS0264120000102435445008         SIDLE ADAM          834 QUEENS PARK DR                      000N        CARE OF             
MTR02641200001000000000000000RA              01100253    005800460000004600000610000003NN  NNW 000                       N    
RDG02641200WATRL000000004K00000000000001131004611052014145107N000000000000N20       000020400K 10000000010000001111           
CUS0264120000102435446006         DIOGUARDO GEORGE    832 QUEENS PARK DR                      000N        CARE OF             
MTR02641200001000000000000000RA              01100165    005800470000004700000610000003NN  NNW 000                       N    
RDG02641200WATRL000000004K00000000000002246004711052014145111N000000000000N20       000040400K 10000000010000002175           
CUS0264120000102435455007         MILLER KEITH        830 QUEENS PARK DR                      000N        CARE OF             
MTR02641200001000000000000000RA              01100164    005800480000004800000610000003NN  NNW 000                       N    
RDG02641200WATRL000000004K00000000000002256004811052014145119N000300000020N20       000080400K 10000000010000002182           
CUS0264120000102435454000         MORLON BELL-IZZARD  828 QUEENS PARK DR                      000N        CARE OF             
MTR02641200001000000000000000RA              99999999    005800490000004900000570000003NN  NNW 000                       N    
RDG02641200WATRL000000004K00000000000000782004911052014145121N000000000000N20       000020400K 10000000010000000759           
CUS0264120000102435453002         KAHN JESSICA        826 QUEENS PARK DR                      000N        CARE OF             
MTR02641200001000000000000000RA              01100173    005800500000005000000610000003NN  NNW 000                       N    
RDG02641200WATRL000000004K00000000000002237005011052014145123N000000000000N20       000020400K 10000000010000002189           
CUS0264120000102435452004         MAUL RANDI-SCOT L   824 QUEENS PARK DR                      000N        CARE OF             
MTR02641200001000000000000000RA              01104507    005800510000005100000610000003NN  NNW 000                       N    
RDG02641200WATRL000000004K00000000000002564005111052014145126N000000000000N20       000030400K 10000000010000002493           
CUS0264120000102435451006         DAVID S SUFFEL      822 QUEENS PARK DR                      000N        CARE OF             
MTR02641200001000000000000000RA              01108959    005800520000005200000610000003NN  NNW 000                       N    
RDG02641200WATRL000000004K00000000000001378005211052014145128N000000000000N20       000020400K 10000000010000001338           
CUS0264120000102435450008         BAKER DEREK S       820 QUEENS PARK DR                      000N        CARE OF             
MTR02641200001000000000000000RA              01106727    005800530000005300000610000003NN  NNW 000                       N    
RDG02641200WATRL000000004K00000000000000727005311052014145129N000000000000N20       000010400K 10000000010000000717           
CUS0264120000102435449000         WARFIELD EUGENE R,JR818 QUEENS PARK DR                      000N        CARE OF             
MTR02641200001000000000000000RA              01104510    005800540000005400000610000003NN  NNW 000                       N    
RDG02641200WATRL000000004K00000000000001891005411052014145131N000000000000N20       000020400K 10000000010000001862           
CUS0264120000102435448002         MELTZER RICHARD J   816 QUEENS PARK DR                      000N        CARE OF             
MTR02641200001000000000000000RA              01106686    005800550000005500000610000003NN  NNW 000                       N    
RDG02641200WATRL000000004K00000000000001282005511052014145133N000000000000N20       000020400K 10000000010000001257           
CUS0264120000102435447004         HENYAN CHRISTOPHER M814 QUEENS PARK DR                      000N        CARE OF             
MTR02641200001000000000000000RA              01108913    005800560000005600000610000003NN  NNW 000                       N    
RDG02641200WATRL000000004K00000000000000688005611052014145136N000000000000N20       000030400K 10000000010000000673           
CUS0264120000102435428004         NICHOLAS M FORMAN   812 QUEENS PARK DR                      000N        CARE OF             
MTR02641200001000000000000000RA              10022761    005800570000005700000570000003NN  NNW 000                       N    
RDG02641200WATRL000000004K00000000000000155005711052014145138N000000000000N20       000020400K 10000000010000000138           
CUS0264120000102435427006         ZAJDEL RUTH TAMAR   810 QUEENS PARK DR                      000N        CARE OF             
MTR02641200001000000000000000RA              01108907    005800580000005800000610000003NN  NNW 000                       N    
RDG02641200WATRL000000004K00000000000000941005811052014145142N000000000000N20       000040400K 10000000010000000926           
CUS0264120000102435458001         MICHAEL T. SHIELDS  808 QUEENS PARK DR                      000N        CARE OF             
MTR02641200001000000000000000RA              01106058    005800590000005900000610000003NN  NNW 000                       N    
RDG02641200WATRL000000004K00000000000001653005911052014145145N000000000000N20       000030400K 10000000010000001626           
CUS0264120000102435426008         BLODY DONALD A      806 QUEENS PARK DR                      000N        CARE OF             
MTR02641200001000000000000000RA              75424164    005800600000006000000350000003NN  NNW 000                       N    
RDG02641200WATRL000000004K00000000000000097006011052014145148N000000000000N20       000030400K 10000000010000000086           
