FHDNNNN035008116008116008116N                                                                                           024586
RHD08548000NN01830183000001830000000001830183000201NY018301830183000200000000000000000000000002    10202014NY020000 N         
CUS0854800000108411120002         300 FREDERICK ROAD  300 FREDERICK RD                        000N        CARE OF             
MTR08548000001000000000000000RA              43904828    007500010000000100000520000003NN  NNW 000                       N    
RDG08548000WATRL000000004K00000000000008581000111052014082758N000000000000N85       000000400K 10000000010000008465           
CUS0854800000108145276005         LAVIN CONSTANCE MALI308 FREDERICK RD                        000N        CARE OF             
MTR08548000001000000000000000RA              44172506    005800020000000200000520000003NY  NNW 000                       N    
MTM0854800044172506    CLEANOUTVAULT                                                                                          
RDG08548000WATRL000000004K00000000000000000000000000000000000 000000000000U         000000400  10000000010000002268           
CUS0854800000108145277003         ELY DANNY D         310 FREDERICK RD                        000N        CARE OF             
MTR08548000001000000000000000RA              30516212    005800030000000300000520000003NN  NNW 000                       N    
RDG08548000WATRL000000004K00000000000002937000211052014083114N000000000000N85       001960400K 10000000010000002905           
CUS0854800000108145278001         PHELPS EMILY LEE    1 GLENWOOD AVE                          000N        CARE OF             
MTR08548000001000000000000000RA              30524356    005800040000000400000520000003NN  NNW 000                       N    
RDG08548000WATRL000000004K00000000000001603000311052014083202N000000000000N85       000480400K 10000000010000001595           
CUS0854800000108145279009         LEIKVOLL OLAF       3 GLENWOOD AVE                          000N        CARE OF             
MTR08548000001000000000000000RA              01079125    005800050000000500000610000003NN  NNW 000                       N    
RDG08548000WATRL000000004K00000000000001402000411052014083243N000000000000N85       000410400K 10000000010000001389           
CUS0854800000108145280007         AKAMINE BRADLEY H   5 GLENWOOD AVE                          000N        CARE OF             
MTR08548000001000000000000000RA              44173892    005800060000000600000520000003NN  NNW 000                       N    
RDG08548000WATRL000000004K00000000000001541000511052014083308N000400000010N85       000250400K 10000000010000001521           
CUS0854800000108145281005         BUTLER WILLIAM K    7 GLENWOOD AVE                          000N        CARE OF             
MTR08548000001000000000000000RA              14918692    005800070000000700000310000003NN  NNW 000                       N    
RDG08548000WATRL000000004K00000000000000425000611052014083330N000000000000N85       000220400K 10000000010000000419           
CUS0854800000108145282003         ADOLPHI MICHAEL P   9 GLENWOOD AVE                          000N        CARE OF             
MTR08548000001000000000000000RA              22609108    005800080000000800000520000003NN  NNW 000                       N    
RDG08548000WATRL000000004K00000000000002568000711052014083406N000000000000N85       000360400K 10000000010000002561           
CUS0854800000108145283001         LILLEY JOHN C,JR    11 GLENWOOD AVE                         000N        CARE OF             
MTR08548000001000000000000000RA              52289886    005800090000000900000520000003NN  NNW 000                       N    
RDG08548000WATRL000000004K00000000000001821000811052014083427N000000000000N85       000210400K 10000000010000001792           
CUS0854800000108145284009         ALBERT LAURA W      15 GLENWOOD AVE                         000N        CARE OF             
MTR08548000001000000000000000RA              00137168    005800100000001000000570000003NN  NNW 000                       N    
RDG08548000WATRL000000004K00000000000001111000911052014083459N000000000000N85       000320400K 10000000010000001097           
CUS0854800000108145285006         FAUVER PAUL H,SR    17 GLENWOOD AVE                         000N        CARE OF             
MTR08548000001000000000000000RA              48594601    005800110000001100000520000003NN  NNW 000                       N    
RDG08548000WATRL000000004K00000000000000747001011052014083532N000000000001N85       000330400K 10000000010000000739           
CUS0854800000108145286004         HUNT MARY HELEN     19 GLENWOOD AVE                         000N        CARE OF             
MTR08548000001000000000000000RA              36698240    005800120000001200000520000003NN  NNW 000                       N    
RDG08548000WATRL000000004K00000000000001881001111052014083555N000000000000N85       000230400K 10000000010000001866           
CUS0854800000108145287002         HIGGS WALTER        21 GLENWOOD AVE                         000N        CARE OF             
MTR08548000001000000000000000RA              37690564    007500130000001300000520000003NN  NNW 000                       N    
RDG08548000WATRL000000004K00000000000009438001211052014083630N000000000000N85       000350400K 10000000010000009416           
CUS0854800000108432717000         NGUYEN QUANG D      23 GLENWOOD AVE                         000N        CARE OF             
MTR08548000001000000000000000RA              01082448    005800140000001400000610000003NN  NNW 000                       N    
RDG08548000WATRL000000004K00000000000001266001311052014083656N000000000000N85       000260400K 10000000010000001239           
CUS0854800000108145288000         TUERKE LILLIAN M    25 GLENWOOD AVE                         000N        CARE OF             
MTR08548000001000000000000000RA              01075724    005800150000001500000610000003NN  NNW 000                       N    
RDG08548000WATRL000000004K00000000000000313001411052014083729N000000000000N85       000330400K 10000000010000000308           
CUS0854800000108145289008         LIMPERT FRED H,JR   27 GLENWOOD AVE                         000N        CARE OF             
MTR08548000001000000000000000RA              11330727    005800160000001600000570000003NN  NNW 000                       N    
RDG08548000WATRL000000004K00000000000003799001511052014083753N000000000000N85       000240400K 10000000010000003788           
CUS0854800000108145290006         BOSCH GEORGE J,JR   29 GLENWOOD AVE                         000N        CARE OF             
MTR08548000001000000000000000RA              01079122    005800170000001700000610000003NN  NNW 000                       N    
RDG08548000WATRL000000004K00000000000000928001611052014083820N000000000000N85       000270400K 10000000010000000915           
CUS0854800000108145291004         DINES STEPHANIE A   31 GLENWOOD AVE                         000N        CARE OF             
MTR08548000001000000000000000RA              11336558    005800180000001800000570000003NN  NNW 000                       N    
RDG08548000WATRL000000004K00000000000001669001711052014083851N000000000000N85       000310400K 10000000010000001666           
CUS0854800000108145292002         SZEKELY SUSAN       33 GLENWOOD AVE                         000N        CARE OF             
MTR08548000001000000000000000RA              77886665    005800190000001900000350000003NN  NNW 000                       N    
RDG08548000WATRL000000004K00000000000000004001811052014084032N000000000010N85       001010400K 10000000010000000000           
CUS0854800000108145293000         ROEDER DORIS J      35 GLENWOOD AVE                         000N        CARE OF             
MTR08548000001000000000000000RA              01115309    005800200000002000000610000003NN  NNW 000                       N    
RDG08548000WATRL000000004K00000000000000157001911052014084106N000000000000N85       000340400K 10000000010000000155           
CUS0854800000108145294008         FINN THOMAS PATRICK,37 GLENWOOD AVE                         000N        CARE OF             
MTR08548000001000000000000000RA              46880594    005800210000002100000520000003NN  NNW 000                       N    
RDG08548000WATRL000000004K00000000000000395002011052014084254N000000000000N85       001080400K 10000000010000000390           
CUS0854800000108391028001         MURRAY WILLIAM P,JR 39 GLENWOOD AVE                         000N        CARE OF             
MTR08548000001000000000000000RA              99999999    007500220000002200000620000003NN  NNW 000                       N    
RDG08548000WATRL000000004K00000000000002148002111052014084423N000000000000N85       000890400K 10000000010000002143           
CUS0854800000108391027003         CAULK  ALLEN E      41 GLENWOOD AVE                         000N        CARE OF             
MTR08548000001000000000000000RA              36693363    005800230000002300000520000003NN  NNW 000                       N    
RDG08548000WATRL000000004K00000000000003647002211052014084715N000000000000N85       001720400K 10000000010000003633           
CUS0854800000108393178002         SNYDER ROBERT M     43 GLENWOOD AVE                         000N        CARE OF             
MTR08548000001000000000000000RA              36698162    005800240000002400000520000003NN  NNW 000                       N    
RDG08548000WATRL000000004K00000000000002623002311052014084801N000000000000N85       000460400K 10000000010000002603           
CUS0854800000108394227006         ROBBI LYNN HARTSOCK 45 GLENWOOD AVE                         000N        CARE OF             
MTR08548000001000000000000000RA              40049585    005800250000002500000520000003NN  NNW 000                       N    
RDG08548000WATRL000000004K00000000000001457002411052014084830N000000000000N85       000290400K 10000000010000001449           
CUS0854800000108393177004         MEADOR HELEN G      47 GLENWOOD AVE                         000N        CARE OF             
MTR08548000001000000000000000RA              36698163    005800260000002600000520000003NN  NNW 000                       N    
RDG08548000WATRL000000004K00000000000002174002511052014084942N000000000000N85       000720400K 10000000010000002165           
CUS0854800000108352661006         LILLEY CAROL A      57 GLENWOOD AVE                         000N        CARE OF             
MTR08548000001000000000000000RA              27832328    005800270000002700000520000003NN  NNW 000                       N    
RDG08548000WATRL000000004K00000000000002993002611052014085015N000000000000N85       000330400K 10000000010000002954           
CUS0854800000108145296003         KRUG EDWARD PATRICK 59 GLENWOOD AVE                         000N        CARE OF             
MTR08548000001000000000000000RA              21194057    005800280000002800000520000003NN  NNW 000                       N    
RDG08548000WATRL000000004K00000000000004525002711052014085123N000400000020N85       000680400K 10000000010000004515           
CUS0854800000108145297001         PRICE JEFFREY R     61 GLENWOOD AVE                         000N        CARE OF             
MTR08548000001000000000000000RA              21194089    005800290000002900000520000003NN  NNW 000                       N    
RDG08548000WATRL000000004K00000000000002282002811052014085207N000000000000N85       000440400K 10000000010000002281           
CUS0854800000108145298009         MOORE DAVID R       63 GLENWOOD AVE                         000N        CARE OF             
MTR08548000001000000000000000RA              99376060    007500300000003000000570000003NN  NNW 000                       N    
RDG08548000WATRL000000004K00000000000001726002911052014085251N000000000000N85       000440400K 10000000010000001699           
CUS0854800000108145299007         WENZEL CAROL ANN    103 GLENWOOD AVE                        000N        CARE OF             
MTR08548000001000000000000000RA              30525216    005800310000003100000520000003NN  NNW 000                       N    
RDG08548000WATRL000000004K00000000000001598003011052014085339N000000000000N85       000480400K 10000000010000001596           
CUS0854800000108145300003         WHEAT JESSICA       107 GLENWOOD AVE                        000N        CARE OF             
MTR08548000001000000000000000RA              22608001    005800320000003200000520000003NN  NNW 000                       N    
RDG08548000WATRL000000004K00000000000005073003111052014085442N000000000001N85       000630400K 10000000010000005049           
CUS0854800000108145301001         CARTER THOMAS J     109 GLENWOOD AVE                        000N        CARE OF             
MTR08548000001000000000000000RA              14918477    007500330000003300000310000003NN  NNW 000                       N    
RDG08548000WATRL000000004K00000000000000609003211052014085528N000000000000N85       000460400K 10000000010000000593           
CUS0854800000108145302009         MORGAN KENNETH R    113 GLENWOOD AVE                        000N        CARE OF             
MTR08548000001000000000000000RA              01079058    005800340000003400000610000003NN  NNW 000                       N    
RDG08548000WATRL000000004K00000000000001380003311052014085702N000000000000N85       000940400K 10000000010000001366           
CUS0854800000108145303007         MEDICUS MELVIN      117 GLENWOOD AVE                        000N        CARE OF             
MTR08548000001000000000000000RA              22608487    005800350000003500000520000003NN  NNW 000                       N    
RDG08548000WATRL000000004K00000000000004284003411052014085746N000000000000N85       000440400K 10000000010000004268           
CUS0854800000108145304005         STRAUSS ROBERT C    119 GLENWOOD AVE                        000N        CARE OF             
MTR08548000001000000000000000RA              00130479    005800360000003600000570000003NN  NNW 000                       N    
RDG08548000WATRL000000004K00000000000001379003511052014085842N000000000000N85       000560400K 10000000010000001366           
CUS0854800000108443281004         PREVATT TIMOTHY     515 EDMONDSON AVE                       000N        CARE OF             
MTR08548000001000000000000000RA              14929912    005800370000003700000310000003NN  NNW 000                       N    
RDG08548000WATRL000000004K00000000000000676003611052014115134N000000000002N85       000890400K 10000000010000000657           
CUS0854800000108145305002         MEIER ROBERT J,3RD  517 EDMONDSON AVE                       000N        CARE OF             
MTR08548000001000000000000000RA              00135181    005800380000003800000570000003NN  NNW 000                       N    
RDG08548000WATRL000000004K00000000000000687018111052014115005N000000000000N85       002840400K 10000000010000000683           
CUS0854800000108145306000         IVINS BRUCE T       605 EDMONDSON AVE                       000N        CARE OF             
MTR08548000001000000000000000RA              24773616    005800390000003900000520000003NN  NNW 000                       N    
RDG08548000WATRL000000004K00000000000004308003911052014090336N000000000000N85       000360400K 10000000010000004296           
CUS0854800000108145307008         HOSSBACH SHARON L   603 EDMONDSON AVE                       000N        CARE OF             
MTR08548000001000000000000000RA              25781288    005800400000004000000520000003NN  NNW 000                       N    
RDG08548000WATRL000000004K00000000000003194003811052014090300N000000000000N85       000180400K 10000000010000003173           
CUS0854800000108145308006         RHODES HOLLY        601 EDMONDSON AVE                       000N        CARE OF             
MTR08548000001000000000000000RA              75426665    005800410000004100000350000003NN  NNW 000                       N    
RDG08548000WATRL000000004K00000000000000045003711052014090242N000000000000N85       001330400K 10000000010000000039           
CUS0854800000108145309004         LAMBERT LORETTA J   118 GLENWOOD AVE                        000N        CARE OF             
MTR08548000001000000000000000RA              01079077    005800420000004200000610000003NN  NNW 000                       N    
RDG08548000WATRL000000004K00000000000000489004011052014090537N000300000010N85       001210400K 10000000010000000494           
CUS0854800000108145310002         DREW C MARTIN       116 GLENWOOD AVE                        000N        CARE OF             
MTR08548000001000000000000000RA              01079079    005800430000004300000610000003NN  NNW 000                       N    
RDG08548000WATRL000000004K00000000000000622004111052014090625N000000000000N85       000480400K 10000000010000000608           
CUS0854800000108145311000         LAUN JAMES A        114 GLENWOOD AVE                        000N        CARE OF             
MTR08548000001000000000000000RA              31587514    005800440000004400000520000003NN  NNW 000                       N    
RDG08548000WATRL000000004K00000000000002511004211052014090701N000000000000N85       000360400K 10000000010000002504           
CUS0854800000108145312008         RIESLING LLC        112 GLENWOOD AVE                        000N        CARE OF             
MTR08548000001000000000000000RA              01079057    005800450000004500000610000003NN  NNW 000                       N    
RDG08548000WATRL000000004K00000000000001726004311052014090755N000000000000N85       000540400K 10000000010000001708           
CUS0854800000108145313006         LAMY ANGELA KATHERYN110 GLENWOOD AVE                        000N        CARE OF             
MTR08548000001000000000000000RA              46879504    005800460000004600000520000003NN  NNW 000                       N    
RDG08548000WATRL000000004K00000000000001697004411052014090905N000000000000N85       000700400K 10000000010000001686           
CUS0854800000108145314004         REED ROSE M         106 GLENWOOD AVE                        000N        CARE OF             
MTR08548000001000000000000000RA              26000905    005800470000004700000520000003NN  NNW 000                       N    
RDG08548000WATRL000000004K00000000000003348004511052014090927N000000000000N85       000220400K 10000000010000003338           
CUS0854800000108145315001         CASSIZZI NICHOLAS D 102 GLENWOOD AVE                        000N        CARE OF             
MTR08548000001000000000000000RA              44088636    005800480000004800000520000003NN  NNW 000                       N    
RDG08548000WATRL000000004K00000000000001213004611052014091011N000000000000N85       000440400K 10000000010000001204           
CUS0854800000108145316009         STUMP CHARLES L,JR  100 GLENWOOD AVE                        000N        CARE OF             
MTR08548000001000000000000000RA              01079074    005800490000004900000610000003NN  NNW 000                       N    
RDG08548000WATRL000000004K00000000000000896004711052014091044N000000000000N85       000330400K 10000000010000000888           
CUS0854800000108145317007         PEARLMAN REESA      60 GLENWOOD AVE                         000N        CARE OF             
MTR08548000001000000000000000RA              32771823    005800500000005000000520000003NN  NNW 000                       N    
RDG08548000WATRL000000004K00000000000002441004811052014091131N000000000000N85       000470400K 10000000010000002427           
CUS0854800000108145318005         MYERS STEVEN A      58 GLENWOOD AVE                         000N        CARE OF             
MTR08548000001000000000000000RA              01079129    005800510000005100000610000003NN  NNW 000                       N    
RDG08548000WATRL000000004K00000000000000606004911052014091214N000000000000N85       000430400K 10000000010000000596           
CUS0854800000108145319003         CRAIG HILARY A      56 GLENWOOD AVE                         000N        CARE OF             
MTR08548000001000000000000000RA              01079120    005800520000005200000610000003NN  NNW 000                       N    
RDG08548000WATRL000000004K00000000000000588005011052014091248N000000000000N85       000340400K 10000000010000000580           
CUS0854800000108145320001         KUESSNER RUDOLPH J  54 GLENWOOD AVE                         000N        CARE OF             
MTR08548000001000000000000000RA              01079059    005800530000005300000610000003NN  NNW 000                       N    
RDG08548000WATRL000000004K00000000000000820005111052014091312N000000000000N85       000240400K 10000000010000000804           
CUS0854800000108145321009         EOIN T CONNERS      52 GLENWOOD AVE                         000N        CARE OF             
MTR08548000001000000000000000RA              32902441    005800540000005400000520000003NN  NNW 000                       N    
RDG08548000WATRL000000004K00000000000001845005211052014091427N000000000000N85       000750400K 10000000010000001833           
CUS0854800000108145322007         RAUSCH TROY DWAYNE  50 GLENWOOD AVE                         000N        CARE OF             
MTR08548000001000000000000000RA              01092755    005800550000005500000610000003NN  NNW 000                       N    
RDG08548000WATRL000000004K00000000000000593005311052014091511N000000000000N85       000440400K 10000000010000000573           
CUS0854800000108145323005         YANG SUNG C         48 GLENWOOD AVE                         000N        CARE OF             
MTR08548000001000000000000000RA              22606778    005800560000005600000520000003NN  NNW 000                       N    
RDG08548000WATRL000000004K00000000000005341005411052014091735N000000000000N85       001440400K 10000000010000005321           
CUS0854800000108145324003         JACKSON MATTHEW     46 GLENWOOD AVE                         000N        CARE OF             
MTR08548000001000000000000000RA              9685424     005800570000005700000570000003NN  NNW 000                       N    
RDG08548000WATRL000000004K00000000000005356005511052014091835N000000000000N85       000600400K 10000000010000005342           
CUS0854800000108145325000         TOOLE MARY C        44 GLENWOOD AVE                         000N        CARE OF             
MTR08548000001000000000000000RA              20968493    005800580000005800000520000003NN  NNW 000                       N    
RDG08548000WATRL000000004K00000000000006532005611052014091906N000000000000N85       000310400K 10000000010000006522           
CUS0854800000108145326008         DEL GIUDICE ANTHONY 40 GLENWOOD AVE                         000N        CARE OF             
MTR08548000001000000000000000RA              46884974    005800590000005900000520000003NN  NNW 000                       N    
RDG08548000WATRL000000004K00000000000001519005711052014091945N000000000000N85       000390400K 10000000010000001505           
CUS0854800000108145327006         COHEE GABRIEL Y     38 GLENWOOD AVE                         000N        CARE OF             
MTR08548000001000000000000000RA              22606774    005800600000006000000520000003NN  NNW 000                       N    
RDG08548000WATRL000000004K00000000000003969005811052014092114N000000000000N85       000890400K 10000000010000003950           
CUS0854800000108145328004         SPRING LINDA JANE   36 GLENWOOD AVE                         000N        CARE OF             
MTR08548000001000000000000000RA              38984949    005800610000006100000520000003NN  NNW 000                       N    
RDG08548000WATRL000000004K00000000000003145005911052014092124N000000000000N85       000100400K 10000000010000003121           
CUS0854800000108145329002         SCHMIDT KAREN F     30 GLENWOOD AVE                         000N        CARE OF             
MTR08548000001000000000000000RA              01079124    005800620000006200000610000003NN  NNW 000                       N    
RDG08548000WATRL000000004K00000000000001106006011052014092228N000000000000N85       000640400K 10000000010000001081           
CUS0854800000108145330000         MILLER GEORGE W,JR  24 GLENWOOD AVE                         000N        CARE OF             
MTR08548000001000000000000000RA              44002601    005800630000006300000520000003NN  NNW 000                       N    
RDG08548000WATRL000000004K00000000000003090006111052014092310N000000000000N85       000420400K 10000000010000003074           
CUS0854800000108145331008         DUNPHY SUSAN M      22 GLENWOOD AVE                         000N        CARE OF             
MTR08548000001000000000000000RA              30520993    005800640000006400000520000003NN  NNW 000                       N    
RDG08548000WATRL000000004K00000000000004406006211052014092317N000000000000N85       000070400K 10000000010000004360           
CUS0854800000108145332006         PRASTEIN ISAAC J    20 GLENWOOD AVE                         000N        CARE OF             
MTR08548000001000000000000000RA              00132269    005800650000006500000570000003NN  NNW 000                       N    
RDG08548000WATRL000000004K00000000000000057006311052014092426N000000000000N85       000690400K 10000000010000000057           
CUS0854800000108145333004         ALEJANDRO DENNIS    18 GLENWOOD AVE                         000N        CARE OF             
MTR08548000001000000000000000RA              25782338    005800660000006600000520000003NN  NNW 000                       N    
RDG08548000WATRL000000004K00000000000003146006411052014093626N000000000000N85       007200400K 10000000010000003132           
CUS0854800000108145334002         WIRE MARY BETH      16 GLENWOOD AVE                         000N        CARE OF             
MTR08548000001000000000000000RA              10017217    005800670000006700000570000003NN  NNW 000                       N    
RDG08548000WATRL000000004K00000000000000388006511052014093707N000000000000N85       000410400K 10000000010000000363           
CUS0854800000108145335009         KIRNER JOHN F,SR ETA14 GLENWOOD AVE                         000N        CARE OF             
MTR08548000001000000000000000RA              44002316    005800680000006800000520000003NN  NNW 000                       N    
RDG08548000WATRL000000004K00000000000001417006611052014093757N000000000000N85       000500400K 10000000010000001408           
CUS0854800000108145336007         LARSON NATHAN D     12 GLENWOOD AVE                         000N        CARE OF             
MTR08548000001000000000000000RA              71336432    005800690000006900000570000003NN  NNW 000                       N    
RDG08548000WATRL000000004K00000000000001878006711052014093835N000000000000N85       000380400K 10000000010000001871           
CUS0854800000108145337005         PARDOE ANNE J       10 GLENWOOD AVE                         000N        CARE OF             
MTR08548000001000000000000000RA              01075727    005800700000007000000610000003NN  NNW 000                       N    
RDG08548000WATRL000000004K00000000000000530006811052014093902N000000000000N85       000270400K 10000000010000000519           
CUS0854800000108145338003         STUMP JESSE         8 GLENWOOD AVE                          000N        CARE OF             
MTR08548000001000000000000000RA              14920795    005800710000007100000310000003NN  NNW 000                       N    
RDG08548000WATRL000000004K00000000000000413006911052014093927N000000000000N85       000250400K 10000000010000000403           
CUS0854800000108145339001         SHELLY A WIECHELT   6 GLENWOOD AVE                          000N        CARE OF             
MTR08548000001000000000000000RA              31945706    007500720000007200000520000003NN  NNW 000                       N    
RDG08548000WATRL000000004K00000000000002310007011052014094011N000000000010N85       000440400K 10000000010000002717           
CUS0854800000108145340009         DOMINGUEZ MARK ANTHO4 GLENWOOD AVE                          000N        CARE OF             
MTR08548000001000000000000000RA              14913009    005800730000007300000310000003NN  NNW 000                       N    
RDG08548000WATRL000000004K00000000000000551007111052014094133N000000000000N85       000820400K 10000000010000000537           
CUS0854800000108145341007         VANESSA J MANZITTI  2 GLENWOOD AVE                          000N        CARE OF             
MTR08548000001000000000000000RA              44173871    005800740000007400000520000003NN  NNW 000                       N    
RDG08548000WATRL000000004K00000000000002426007211052014094304N000300000010N85       000910400K 10000000010000002413           
CUS0854800000108145342005         SCHATZ JOSEPH M     400 FREDERICK RD                        000N        CARE OF             
MTR08548000001000000000000000RA              23647713    005800750000007500000520000003NN  NNW 000                       N    
RDG08548000WATRL000000004K00000000000002305007311052014094503N000000000000N85       001190400K 10000000010000002296           
CUS0854800000108145343003         DONALD I MOHLER &   402 FREDERICK RD                        000N        CARE OF             
MTR08548000001000000000000000RA              30525066    005800760000007600000520000003NN  NNW 000                       N    
RDG08548000WATRL000000004K00000000000004151007411052014094533N000000000000N85       000300400K 10000000010000004119           
CUS0854800000108145344001         THOMAS R WADFORD    404 FREDERICK RD                        000N        CARE OF             
MTR08548000001000000000000000RA              24230580    005800770000007700000520000003NN  NNW 000                       N    
RDG08548000WATRL000000004K00000000000002144007511052014094539N000000000000N85       000060400K 10000000010000002133           
CUS0854800000108145346006         BOOTH JAMES EDWIN,SR408 FREDERICK RD                        000N        CARE OF             
MTR08548000001000000000000000RA              99315059    000100780000007800000570000003NN  NNW 000                       N    
RDG08548000WATRL000000004K00000000000000507007611052014094618N000000000000N85       000390400K 10000000010000000505           
CUS0854800000108145347004         MURPHY MICHAEL A    1 DELREY AVE                            000N        CARE OF             
MTR08548000001000000000000000RA              10011335    005800790000007900000570000003NN  NNW 000                       N    
RDG08548000WATRL000000004K00000000000000092007711052014094929N000000000000N85       001910400K 10000000010000000091           
CUS0854800000108145348002         FRELIN LAURENCE PAUL3 DELREY AVE                            000N        CARE OF             
MTR08548000001000000000000000RA              01081938    005800800000008000000610000003NN  NNW 000                       N    
RDG08548000WATRL000000004K00000000000000407007811052014095044N000000000000N85       000750400K 10000000010000000402           
CUS0854800000108145349000         ANN MARIE FRETER-FEI5 DELREY AVE                            000N        CARE OF             
MTR08548000001000000000000000RA              25782308    005800810000008100000520000003NN  NNW 000                       N    
RDG08548000WATRL000000004K00000000000003959007911052014095104N000000000000N85       000200400K 10000000010000003944           
CUS0854800000108145350008         DINGLE KEVIN T      7 DELREY AVE                            000N        CARE OF             
MTR08548000001000000000000000RA              00136036    005800820000008200000570000003NN  NNW 000                       N    
RDG08548000WATRL000000004K00000000000009503008011052014095157N000000000010N85       000530400K 10000000010000010013           
CUS0854800000108145351006         STEC STEPHEN C      9 DELREY AVE                            000N        CARE OF             
MTR08548000001000000000000000RA              24768706    005800830000008300000520000003NN  NNW 000                       N    
RDG08548000WATRL000000004K00000000000002001008111052014095337N000000000000N85       001000400K 10000000010000001982           
CUS0854800000108145352004         SIMONS EDWARD L     11 DELREY AVE                           000N        CARE OF             
MTR08548000001000000000000000RA              27817999    005800840000008400000520000003NN  NNW 000                       N    
RDG08548000WATRL000000004K00000000000003754008211052014095511N000000000000N85       000940400K 10000000010000003730           
CUS0854800000108145353002         HILLIARD CLINTON LEE15 DELREY AVE                           000N        CARE OF             
MTR08548000001000000000000000RA              52289885    005800850000008500000520000003NN  NNW 000                       N    
RDG08548000WATRL000000004K00000000000001627008311052014095608N000000000000N85       000570400K 10000000010000001607           
CUS0854800000108145354000         SCHEIHING DONALD H  17 DELREY AVE                           000N        CARE OF             
MTR08548000001000000000000000RA              01072174    005800860000008600000610000003NN  NNW 000                       N    
RDG08548000WATRL000000004K00000000000001902008411052014095706N000000000000N85       000580400K 10000000010000001874           
CUS0854800000108145355007         FORD STEVEN M       19 DELREY AVE                           000N        CARE OF             
MTR08548000001000000000000000RA              22608317    005800870000008700000520000003NN  NNW 000                       N    
RDG08548000WATRL000000004K00000000000002386008511052014095901N000000000000N85       001150400K 10000000010000002379           
CUS0854800000108145356005         LAVECK JOHN EMERSON,21 DELREY AVE                           000N        CARE OF             
MTR08548000001000000000000000RA              27278882    005800880000008800000520000003NN  NNW 000                       N    
RDG08548000WATRL000000004K00000000000004891008611052014095936N000000000000N85       000350400K 10000000010000004870           
CUS0854800000108145357003         PRICE CARMINA A     21B DELREY AVE                          000N        CARE OF             
MTR08548000001000000000000000RA              30521675    005800890000008900000520000003NN  NNW 000                       N    
RDG08548000WATRL000000004K00000000000002744008711052014100137N000000000000N85       001210400K 10000000010000002736           
CUS0854800000108145358001         JACKSON DAVID A     23 DELREY AVE                           000N        CARE OF             
MTR08548000001000000000000000RA              22608404    005800900000009000000520000003NN  NNW 000                       N    
RDG08548000WATRL000000004K00000000000003379008911052014100301N000000000000N85       000340400K 10000000010000003361           
CUS0854800000108145359009         ELLERS GEORGE C     23A DELREY AVE                          000N        CARE OF             
MTR08548000001000000000000000RA              01072137    005800910000009100000610000003NN  NNW 000                       N    
RDG08548000WATRL000000004K00000000000000661008811052014100227N000000000000N85       000500400K 10000000010000000657           
CUS0854800000108145360007         WATSON MICHAEL K    25 DELREY AVE                           000N        CARE OF             
MTR08548000001000000000000000RA              39584710    005800920000009200000520000003NN  NNW 000                       N    
RDG08548000WATRL000000004K00000000000002436009011052014100508N000000000000N85       001270400K 10000000010000002420           
CUS0854800000108145361005         SMITH DANIEL S      27 DELREY AVE                           000N        CARE OF             
MTR08548000001000000000000000RA              01072045    005800930000009300000610000003NN  NNW 000                       N    
RDG08548000WATRL000000004K00000000000001452009111052014100536N000000000000N85       000280400K 10000000010000001432           
CUS0854800000108145362003         TERZI DANIEL N      29 DELREY AVE                           000N        CARE OF             
MTR08548000001000000000000000RA              22608400    005800940000009400000520000003NN  NNW 000                       N    
RDG08548000WATRL000000004K00000000000006403009211052014100621N000000000000N85       000450400K 10000000010000006384           
CUS0854800000108403672002         STERN SIDNEY SYLVEST29A DELREY AVE                          000N        CARE OF             
MTR08548000001000000000000000RA              41087158    005800950000009500000520000003NN  NNW 000                       N    
RDG08548000WATRL000000004K00000000000002677009311052014100702N000000000000N85       000410400K 10000000010000002657           
CUS0854800000108145363001         ROLLER FRANK EDWARD 31 DELREY AVE                           000N        CARE OF             
MTR08548000001000000000000000RA              22608320    005800960000009600000520000003NN  NNW 000                       N    
RDG08548000WATRL000000004K00000000000004021009411052014101139N000000000000N85       002770400K 10000000010000004021           
CUS0854800000108145364009         WALSH FRANK R       33 DELREY AVE                           000N        CARE OF             
MTR08548000001000000000000000RA              01072132    005800970000009700000610000003NN  NNW 000                       N    
RDG08548000WATRL000000004K00000000000000829009511052014101248N000000000000N85       000690400K 10000000010000000806           
CUS0854800000108145365006         MARTIN NANCY        35 DELREY AVE                           000N        CARE OF             
MTR08548000001000000000000000RA              01072138    005800980000009800000610000003NN  NNW 000                       N    
RDG08548000WATRL000000004K00000000000000686009611052014101331N000400000010N85       000430400K 10000000010000000679           
CUS0854800000108145366004         BOSCH GEORGE JOHN,3R37 DELREY AVE                           000N        CARE OF             
MTR08548000001000000000000000RA              50477903    005800990000009900000520000003NN  NNW 000                       N    
RDG08548000WATRL000000004K00000000000000682009711052014101349N000000000000N85       000180400K 10000000010000000675           
CUS0854800000108145367002         KNEISL KYLE E       41 DELREY AVE                           000N        CARE OF             
MTR08548000001000000000000000RA              9691426     005801000000010000000570000003NN  NNW 000                       N    
RDG08548000WATRL000000004K00000000000003541009811052014101431N000000000000N85       000420400K 10000000010000003526           
CUS0854800000108145369008         ROBERTS PHILLIP D   43 DELREY AVE                           000N        CARE OF             
MTR08548000001000000000000000RA              22608402    005801010000010100000520000003NN  NNW 000                       N    
RDG08548000WATRL000000004K00000000000003954009911052014101615N000000000000N85       001040400K 10000000010000003942           
CUS0854800000108145370006         ENGEL GREGORY S     45 DELREY AVE                           000N        CARE OF             
MTR08548000001000000000000000RA              00137165    005801020000010200000570000003NN  NNW 000                       N    
RDG08548000WATRL000000004K00000000000000794010011052014101707N000000000000N85       000520400K 10000000010000000780           
CUS0854800000108145371004         DEVIN R WHITE       47 DELREY AVE                           000N        CARE OF             
MTR08548000001000000000000000RA              01072049    005801030000010300000610000003NN  NNW 000                       N    
RDG08548000WATRL000000004K00000000000001231010111052014101729N000000000000N85       000220400K 10000000010000001222           
CUS0854800000108145372002         FPS 49 DELREY LLC   49 DELREY AVE                           000N        CARE OF             
MTR08548000001000000000000000RA              31936322    005801040000010400000520000003NN  NNW 000                       N    
RDG08548000WATRL000000004K00000000000003979010211052014101809N000000000000N85       000400400K 10000000010000003964           
CUS0854800000108145373000         WESTSHIRE ASSOCIATES607 EDMONDSON AVE                       000N        CARE OF             
MTR08548000001000000000000000RA              52289887    005801050000010500000520000003NN  NNW 000                       N    
RDG08548000WATRL000000004K00000000000001346010311052014101850N000000000000N85       000410400K 10000000010000001320           
CUS0854800000108145374008         BOOTH THOMAS        623 EDMONDSON AVE                       000N        CARE OF             
MTR08548000001000000000000000RA              14924147    005801060000010600000310000003NN  NNW 000                       N    
RDG08548000WATRL000000004K00000000000000165018011052014114521N000000000000N85       001630400K 10000000010000000162           
CUS0854800000108145375005         AHMADI MAHMOUD      621 EDMONDSON AVE                       000N        CARE OF             
MTR08548000001000000000000000RA              10023488    005801070000010700000570000003NN  NNW 000                       N    
RDG08548000WATRL000000004K00000000000000321017911052014114238N000300000010N85       000770400K 10000000010000000307           
CUS0854800000108424651001         LOTT SHARLENE       621A EDMONDSON AVE                      000N        CARE OF             
MTR08548000001000000000000000RA              48583458    005801080000010800000520000003NY  NNW 000                       N    
MTM0854800048583458    BURIED                                                                                                 
RDG08548000WATRL000000004K00000000000000000000000000000000000 000000000000U         000000400  10000000010000000307           
CUS0854800000108424650003         STEINERT STEPHANIE L621B EDMONDSON AVE                      000N        CARE OF             
MTR08548000001000000000000000RA              10023489    005801090000010900000570000003NN  NNW 000                       N    
RDG08548000WATRL000000004K00000000000000110017811052014114121N000000000000N85       002980400K 10000000010000000098           
CUS0854800000108145376003         GAMBINO LOUIS C     315 ORLEY RD                            000N        CARE OF             
MTR08548000001000000000000000RA              01084795    005801100000011000000610000003NN  NNW 000                       N    
RDG08548000WATRL000000004K00000000000001479017011052014113149N000000000000N85       000910400K 10000000010000001453           
CUS0854800000108145377001         POLK VERNA L        313 ORLEY RD                            000N        CARE OF             
MTR08548000001000000000000000RA              27218880    005801110000011100000520000003NN  NNW 000                       N    
RDG08548000WATRL000000004K00000000000005901017111052014113229N000000000000N85       000400400K 10000000010000005835           
CUS0854800000108145378009         WEINKAM LOUIS J     311 ORLEY RD                            000N        CARE OF             
MTR08548000001000000000000000RA              36690527    005801120000011200000520000003NN  NNW 000                       N    
RDG08548000WATRL000000004K00000000000002319017211052014113316N000000000000N85       000470400K 10000000010000002305           
CUS0854800000108145379007         WALLICK PAIGE N     309 ORLEY RD                            000N        CARE OF             
MTR08548000001000000000000000RA              14902010    005801130000011300000310000003NN  NNW 000                       N    
RDG08548000WATRL000000004K00000000000000484017311052014113348N000000000000N85       000320400K 10000000010000000463           
CUS0854800000108145380005         KELLY RYAN M        307 ORLEY RD                            000N        CARE OF             
MTR08548000001000000000000000RA              48595103    005801140000011400000520000003NN  NNW 000                       N    
RDG08548000WATRL000000004K00000000000001522017411052014113425N000000000010N85       000370400K 10000000010000001521           
CUS0854800000108145381003         ATWOOD DAVID L      305 ORLEY RD                            000N        CARE OF             
MTR08548000001000000000000000RA              01072047    005801150000011500000610000003NN  NNW 000                       N    
RDG08548000WATRL000000004K00000000000000689017511052014113512N000400000010N85       000470400K 10000000010000000684           
CUS0854800000108145382001         PAT HABIN REAL ESTAT303 ORLEY RD                            000N        CARE OF             
MTR08548000001000000000000000RA              45380316    005801160000011600000520000003NN  NNW 000                       N    
RDG08548000WATRL000000004K00000000000001665017611052014113544N000000000010N85       000320400K 10000000010000001653           
CUS0854800000108145383009         POLK RONNIE L       301 ORLEY RD                            000N        CARE OF             
MTR08548000001000000000000000RA              01072043    005801170000011700000610000003NN  NNW 000                       N    
RDG08548000WATRL000000004K00000000000001887017711052014113623N000000000000N85       000390400K 10000000010000001863           
CUS0854800000108145384007         EADS GREGORY,JR     300 ORLEY RD                            000N        CARE OF             
MTR08548000001000000000000000RA              14902282    005801180000011800000310000003NN  NNW 000                       N    
RDG08548000WATRL000000004K00000000000001965016411052014112632N000000000000N85       003020400K 10000000010000001928           
CUS0854800000108145385004         OMALLEY SEAN        302 ORLEY RD                            000N        CARE OF             
MTR08548000001000000000000000RA              01072046    005801190000011900000610000003NN  NNW 000                       N    
RDG08548000WATRL000000004K00000000000001029016511052014112721N000000000000N85       000490400K 10000000010000001011           
CUS0854800000108145386002         HEATHER M KING      306 ORLEY RD                            000N        CARE OF             
MTR08548000001000000000000000RA              45380318    005801200000012000000520000003NN  NNW 000                       N    
RDG08548000WATRL000000004K00000000000001807016611052014112807N000000000000N85       000460400K 10000000010000001793           
CUS0854800000108145387000         BANK OF AMERICA N A 308 ORLEY RD                            000N        CARE OF             
MTR08548000001000000000000000RA              01072048    005801210000012100000610000003NN  NNW 000                       N    
RDG08548000WATRL000000004K00000000000001051016711052014112842N000000000000N85       000350400K 10000000010000001027           
CUS0854800000108145388008         JOHN C LINFORD      312 ORLEY RD                            000N        CARE OF             
MTR08548000001000000000000000RA              01072135    005801220000012200000610000003NN  NNW 000                       N    
RDG08548000WATRL000000004K00000000000000888016811052014112929N000000000000N85       000470400K 10000000010000000871           
CUS0854800000108145389006         GRAHAM CHRISTOPHER  314 ORLEY RD                            000N        CARE OF             
MTR08548000001000000000000000RA              01083238    005801230000012300000610000003NN  NNW 000                       N    
RDG08548000WATRL000000004K00000000000001261016911052014113018N000000000000N85       000490400K 10000000010000001230           
CUS0854800000108145390004         NARVELL MARY L      619 EDMONDSON AVE                       000N        CARE OF             
MTR08548000001000000000000000RA              23050485    005801240000012400000520000003NN  NNW 000                       N    
RDG08548000WATRL000000004K00000000000003079010811052014102419N000300000010N85       000520400K 10000000010000003072           
CUS0854800000108145391002         CODY JUSTIN J       617 EDMONDSON AVE                       000N        CARE OF             
MTR08548000001000000000000000RA              52286388    005801250000012500000520000003NN  NNW 000                       N    
RDG08548000WATRL000000004K00000000000001133010711052014102327N000000000000N85       000540400K 10000000010000001113           
CUS0854800000108145392000         IACIA SALVATORE J   615 EDMONDSON AVE                       000N        CARE OF             
MTR08548000001000000000000000RA              22609920    005801260000012600000570000003NN  NNW 000                       N    
RDG08548000WATRL000000004K00000000000006457010611052014102233N000400000010N85       000920400K 10000000010000006447           
CUS0854800000108145393008         CATTERTON MELVIN T,J613 EDMONDSON AVE                       000N        CARE OF             
MTR08548000001000000000000000RA              45380890    005801270000012700000520000003NN  NNW 000                       N    
RDG08548000WATRL000000004K00000000000001777010511052014102101N000000000000N85       000330400K 10000000010000001770           
CUS0854800000108145394006         BYROADE DAVID ELLIOT611 EDMONDSON AVE                       000N        CARE OF             
MTR08548000001000000000000000RA              01072141    005801280000012800000610000003NN  NNW 000                       N    
RDG08548000WATRL000000004K00000000000001991010411052014102028N000000000000N85       000980400K 10000000010000001971           
CUS0854800000108145395003         KIERNAN ROBERT M    50 DELREY AVE                           000N        CARE OF             
MTR08548000001000000000000000RA              01072168    005801290000012900000610000003NN  NNW 000                       N    
RDG08548000WATRL000000004K00000000000000557010911052014102718N000000000000N85       001790400K 10000000010000000546           
CUS0854800000108145396001         KEENAN JAMES I,3RD  48 DELREY AVE                           000N        CARE OF             
MTR08548000001000000000000000RA              31585220    005801300000013000000520000003NN  NNW 000                       N    
RDG08548000WATRL000000004K00000000000003953011011052014102802N000000000000N85       000440400K 10000000010000003931           
CUS0854800000108145397009         JAYME VOCKE         46 DELREY AVE                           000N        CARE OF             
MTR08548000001000000000000000RA              46884976    005801310000013100000520000003NN  NNW 000                       N    
RDG08548000WATRL000000004K00000000000001132011111052014102851N000000000000N85       000490400K 10000000010000001120           
CUS0854800000108145398007         MARKET PRO SOUTH, IN600 ARLEWOOD RD                         000N        CARE OF             
MTR08548000001000000000000000RA              45381610    005801320000013200000520000003NN  NNW 000                       N    
RDG08548000WATRL000000004K00000000000000618011211052014102935N000000000000N85       000440400K 10000000010000000616           
CUS0854800000108145399005         STRUDER HERBERT V   602 ARLEWOOD RD                         000N        CARE OF             
MTR08548000001000000000000000RA              01071872    005801330000013300000610000003NN  NNW 000                       N    
RDG08548000WATRL000000004K00000000000000538011311052014103249N000000000000N85       001940400K 10000000010000000532           
CUS0854800000108145400001         MORSBERGER BETTY ANN604 ARLEWOOD RD                         000N        CARE OF             
MTR08548000001000000000000000RA              45382360    005801340000013400000520000003NN  NNW 000                       N    
RDG08548000WATRL000000004K00000000000001851011411052014103319N000000000000N85       000300400K 10000000010000001834           
CUS0854800000108145401009         NICOLE E EGGLETON   606 ARLEWOOD RD                         000N        CARE OF             
MTR08548000001000000000000000RA              45382361    005801350000013500000520000003NN  NNW 000                       N    
RDG08548000WATRL000000004K00000000000000874011511052014103344N000000000000N85       000250400K 10000000010000000864           
CUS0854800000108145402007         STAGMER PATRICK M   608 ARLEWOOD RD                         000N        CARE OF             
MTR08548000001000000000000000RA              01071898    005801360000013600000610000003NN  NNW 000                       N    
RDG08548000WATRL000000004K00000000000000923011611052014103414N000000000000N85       000300400K 10000000010000000909           
CUS0854800000108145403005         GRIMSLEY MICHAEL A  609 ARLEWOOD RD                         000N        CARE OF             
MTR08548000001000000000000000RA              01095726    005801370000013700000610000003NN  NNW 000                       N    
RDG08548000WATRL000000004K00000000000000445011711052014103442N000000000000N85       000280400K 10000000010000000445           
CUS0854800000108145404003         MILBOURNE LESLIE R  607 ARLEWOOD RD                         000N        CARE OF             
MTR08548000001000000000000000RA              45382446    005801380000013800000520000003NN  NNW 000                       N    
RDG08548000WATRL000000004K00000000000001032011811052014103505N000000000000N85       000230400K 10000000010000001024           
CUS0854800000108145405000         HAYNES LORRAINE B,TR605 ARLEWOOD RD                         000N        CARE OF             
MTR08548000001000000000000000RA              99189466    005801390000013900000570000003NN  NNW 000                       N    
RDG08548000WATRL000000004K00000000000000515011911052014103530N000000000000N85       000250400K 10000000010000000509           
CUS0854800000108145406008         WILSON LISA L       603 ARLEWOOD RD                         000N        CARE OF             
MTR08548000001000000000000000RA              9686496     005801400000014000000570000003NN  NNW 000                       N    
RDG08548000WATRL000000004K00000000000006819012011052014103600N000000000000N85       000300400K 10000000010000006802           
CUS0854800000108145407006         MERSON MELANIE      601 ARLEWOOD RD                         000N        CARE OF             
MTR08548000001000000000000000RA              22606777    005801410000014100000520000003NN  NNW 000                       N    
RDG08548000WATRL000000004K00000000000005177012111052014103628N000000000000N85       000280400K 10000000010000005156           
CUS0854800000108145408004         MUTU-MORTON CARLA   38 DELREY AVE                           000N        CARE OF             
MTR08548000001000000000000000RA              01110100    005801420000014200000610000003NN  NNW 000                       N    
RDG08548000WATRL000000004K00000000000000247012211052014103710N000000000000N85       000420400K 10000000010000000240           
CUS0854800000108145409002         GOFORTH LEONA A     36 DELREY AVE                           000N        CARE OF             
MTR08548000001000000000000000RA              48592755    005801430000014300000520000003NN  NNW 000                       N    
RDG08548000WATRL000000004K00000000000001048012311052014103803N000000000000N85       000530400K 10000000010000001037           
CUS0854800000108145410000         POSINSKI RICHARD F  34 DELREY AVE                           000N        CARE OF             
MTR08548000001000000000000000RA              01072162    005801440000014400000610000003NN  NNW 000                       N    
RDG08548000WATRL000000004K00000000000001020012411052014103851N000000000000N85       000480400K 10000000010000000999           
CUS0854800000108145411008         BARRETTO PAMELA     600 OLESMONT RD                         000N        CARE OF             
MTR08548000001000000000000000RA              31585241    005801450000014500000520000003NN  NNW 000                       N    
RDG08548000WATRL000000004K00000000000005366012511052014103953N000000000000N85       000620400K 10000000010000005341           
CUS0854800000108145412006         CANDICE L TITUS     602 OLESMONT RD                         000N        CARE OF             
MTR08548000001000000000000000RA              01071892    005801460000014600000610000003NN  NNW 000                       N    
RDG08548000WATRL000000004K00000000000000887012611052014104040N000400000010N85       000470400K 10000000010000000885           
CUS0854800000108145413004         PILOT OLIVER D,TRUST604 OLESMONT RD                         000N        CARE OF             
MTR08548000001000000000000000RA              19461366    005801470000014700000520000003NN  NNW 000                       N    
RDG08548000WATRL000000004K00000000000004246012711052014104124N000000000000N85       000440400K 10000000010000004230           
CUS0854800000108145414002         DIFFENBAUGH MARGARET606 OLESMONT RD                         000N        CARE OF             
MTR08548000001000000000000000RA              01109410    005801480000014800000610000003NN  NNW 000                       N    
RDG08548000WATRL000000004K00000000000000740012811052014104159N000000000000N85       000350400K 10000000010000000728           
CUS0854800000108145415009         DAYHOFF ALLEN B     608 OLESMONT RD                         000N        CARE OF             
MTR08548000001000000000000000RA              9690727     005801490000014900000570000003NN  NNW 000                       N    
RDG08548000WATRL000000004K00000000000003368012911052014104231N000000000000N85       000320400K 10000000010000003368           
CUS0854800000108145416007         FURNARY JAMES T     613 OLESMONT RD                         000N        CARE OF             
MTR08548000001000000000000000RA              27826858    005801500000015000000520000003NN  NNW 000                       N    
RDG08548000WATRL000000004K00000000000003098013011052014104345N000000000000N85       000740400K 10000000010000003077           
CUS0854800000108145417005         JONES INGEBORG H    611 OLESMONT RD                         000N        CARE OF             
MTR08548000001000000000000000RA              01071899    005801510000015100000610000003NN  NNW 000                       N    
RDG08548000WATRL000000004K00000000000000393013111052014104414N000000000000N85       000290400K 10000000010000000389           
CUS0854800000108145418003         RIBB PAUL V         609 OLESMONT RD                         000N        CARE OF             
MTR08548000001000000000000000RA              01071894    005801520000015200000610000003NN  NNW 000                       N    
RDG08548000WATRL000000004K00000000000001816013211052014104456N000000000000N85       000420400K 10000000010000001802           
CUS0854800000108145419001         PENG GUIHONG        607 OLESMONT RD                         000N        CARE OF             
MTR08548000001000000000000000RA              01071893    005801530000015300000610000003NN  NNW 000                       N    
RDG08548000WATRL000000004K00000000000000537013311052014104535N000000000000N85       000390400K 10000000010000000528           
CUS0854800000108145420009         SEAGROVES KATHERINE 605 OLESMONT RD                         000N        CARE OF             
MTR08548000001000000000000000RA              22606776    005801540000015400000520000003NN  NNW 000                       N    
RDG08548000WATRL000000004K00000000000003305013411052014104603N000000000000N85       000280400K 10000000010000003291           
CUS0854800000108145421007         STERRY JULIE ANN    603 OLESMONT RD                         000N        CARE OF             
MTR08548000001000000000000000RA              01071891    005801550000015500000610000003NN  NNW 000                       N    
RDG08548000WATRL000000004K00000000000000913013511052014104637N000000000000N85       000340400K 10000000010000000908           
CUS0854800000108145422005         BALL-OSTOPOWICZ TRAC601 OLESMONT RD                         000N        CARE OF             
MTR08548000001000000000000000RA              48585890    005801560000015600000520000003NN  NNW 000                       N    
RDG08548000WATRL000000004K00000000000002113013611052014104713N000000000000N85       000360400K 10000000010000002083           
CUS0854800000108145423003         POOLEY DOUGLAS A    32 DELREY AVE                           000N        CARE OF             
MTR08548000001000000000000000RA              11428906    005801570000015700000570000003NN  NNW 000                       N    
RDG08548000WATRL000000004K00000000000002440013711052014104818N000000000000N85       000650400K 10000000010000002433           
CUS0854800000108145424001         ALLEN ROY S         30 DELREY AVE                           000N        CARE OF             
MTR08548000001000000000000000RA              29686108    005801580000015800000520000003NN  NNW 000                       N    
RDG08548000WATRL000000004K00000000000005819013811052014105052N000400000010N85       001540400K 10000000010000005796           
CUS0854800000108145425008         CHO CHEE CHEUNG     28 DELREY AVE                           000N        CARE OF             
MTR08548000001000000000000000RA              22608321    005801590000015900000520000003NN  NNW 000                       N    
RDG08548000WATRL000000004K00000000000003914013911052014105141N000000000000N85       000490400K 10000000010000003886           
CUS0854800000108145426006         WALLACE MATTHEW A   600 WALLERSON RD                        000N        CARE OF             
MTR08548000001000000000000000RA              00137345    005801600000016000000570000003NN  NNW 000                       N    
RDG08548000WATRL000000004K00000000000000657014011052014105255N000000000000N85       000740400K 10000000010000000648           
CUS0854800000108145427004         LAFORTEZZA FRED W   602 WALLERSON RD                        000N        CARE OF             
MTR08548000001000000000000000RA              01071871    005801610000016100000610000003NN  NNW 000                       N    
RDG08548000WATRL000000004K00000000000001600014111052014105338N000000000000N85       000430400K 10000000010000001585           
CUS0854800000108145428002         GOLDBERG KAREN L    604 WALLERSON RD                        000N        CARE OF             
MTR08548000001000000000000000RA              01071895    005801620000016200000610000003NN  NNW 000                       N    
RDG08548000WATRL000000004K00000000000002079014211052014105432N000000000000N85       000540400K 10000000010000002048           
CUS0854800000108145429000         BENNETT RICHARD     606 WALLERSON RD                        000N        CARE OF             
MTR08548000001000000000000000RA              22606775    005801630000016300000520000003NN  NNW 000                       N    
RDG08548000WATRL000000004K00000000000003062014311052014105557N000000000000N85       000850400K 10000000010000003035           
CUS0854800000108145430008         BARRETT CEDELLE R   608 WALLERSON RD                        000N        CARE OF             
MTR08548000001000000000000000RA              32901775    005801640000016400000520000003NN  NNW 000                       N    
RDG08548000WATRL000000004K00000000000001049014411052014105908N000000000000N85       001910400K 10000000010000001044           
CUS0854800000108145431006         JANKOWSKI NICHOLAS R610 WALLERSON RD                        000N        CARE OF             
MTR08548000001000000000000000RA              32901773    005801650000016500000520000003NN  NNW 000                       N    
RDG08548000WATRL000000004K00000000000002867014511052014105943N000000000000N85       000350400K 10000000010000002844           
CUS0854800000108145432004         SLIZYS CAROL M      612 WALLERSON RD                        000N        CARE OF             
MTR08548000001000000000000000RA              50477751    005801660000016600000520000003NN  NNW 000                       N    
RDG08548000WATRL000000004K00000000000000505014611052014110018N000000000000N85       000350400K 10000000010000000500           
CUS0854800000108145433002         STRATEN HENRY JACOB 622 WALLERSON RD                        000N        CARE OF             
MTR08548000001000000000000000RA              01071841    005801670000016700000610000003NN  NNW 000                       N    
RDG08548000WATRL000000004K00000000000001576014711052014110145N000000000000N85       000870400K 10000000010000001547           
CUS0854800000108145434000         JONES JAMES N       624 WALLERSON RD                        000N        CARE OF             
MTR08548000001000000000000000RA              01071897    005801680000016800000610000003NN  NNW 000                       N    
RDG08548000WATRL000000004K00000000000001870014811052014110231N000000000000N85       000460400K 10000000010000001836           
CUS0854800000108145435007         HAYWOOD AUSTIN G,III626 WALLERSON RD                        000N        CARE OF             
MTR08548000001000000000000000RA              01071876    005801690000016900000610000003NN  NNW 000                       N    
RDG08548000WATRL000000004K00000000000000894014911052014110256N000000000000N85       000250400K 10000000010000000861           
CUS0854800000108145436005         ANTHONY S. PILARINOS623 WALLERSON RD                        000N        CARE OF             
MTR08548000001000000000000000RA              01071515    005801700000017000000610000003NN  NNW 000                       N    
RDG08548000WATRL000000004K00000000000002402015011052014110634N000000000000N85       002180400K 10000000010000002374           
CUS0854800000108145437003         GIST GREGORY G      619 WALLERSON RD                        000N        CARE OF             
MTR08548000001000000000000000RA              24232289    005801710000017100000520000003NN  NNW 000                       N    
RDG08548000WATRL000000004K00000000000004918015111052014110734N000000000000N85       000600400K 10000000010000004892           
CUS0854800000108145438001         SINGLETON MICHAEL J 617 WALLERSON RD                        000N        CARE OF             
MTR08548000001000000000000000RA              9686445     005801720000017200000570000003NN  NNW 000                       N    
RDG08548000WATRL000000004K00000000000006284015211052014110813N000000000000N85       000390400K 10000000010000006254           
CUS0854800000108145439009         EGBULEM CLAY C      615 WALLERSON RD                        000N        CARE OF             
MTR08548000001000000000000000RA              45382842    005801730000017300000520000003NN  NNW 000                       N    
RDG08548000WATRL000000004K00000000000001885015311052014110847N000000000000N85       000340400K 10000000010000001867           
CUS0854800000108145440007         JUENGST PHILLIP R   613 WALLERSON RD                        000N        CARE OF             
MTR08548000001000000000000000RA              22609373    005801740000017400000520000003NN  NNW 000                       N    
RDG08548000WATRL000000004K00000000000003294015411052014110922N000000000000N85       000350400K 10000000010000003276           
CUS0854800000108145441005         PITELESKI LEEANN M  611 WALLERSON RD                        000N        CARE OF             
MTR08548000001000000000000000RA              45382700    005801750000017500000520000003NN  NNW 000                       N    
RDG08548000WATRL000000004K00000000000001511015511052014110958N000400000010N85       000360400K 10000000010000001508           
CUS0854800000108145442003         JACKSON RODNEY      609 WALLERSON RD                        000N        CARE OF             
MTR08548000001000000000000000RA              01071846    005801760000017600000610000003NN  NNW 000                       N    
RDG08548000WATRL000000004K00000000000001822015611052014111101N000000000000N85       000630400K 10000000010000001795           
CUS0854800000108145443001         SELBY RACHEL M      607 WALLERSON RD                        000N        CARE OF             
MTR08548000001000000000000000RA              45382774    005801770000017700000520000003NN  NNW 000                       N    
RDG08548000WATRL000000004K00000000000001755015711052014111442N000000000000N85       002210400K 10000000010000001741           
CUS0854800000108145444009         ERIKSEN BRIAN HAROLD605 WALLERSON RD                        000N        CARE OF             
MTR08548000001000000000000000RA              9686944     005801780000017800000570000003NN  NNW 000                       N    
RDG08548000WATRL000000004K00000000000005120015811052014111539N000000000000N85       000570400K 10000000010000005086           
CUS0854800000108145445006         ALTEMUS CHRISTINE T 603 WALLERSON RD                        000N        CARE OF             
MTR08548000001000000000000000RA              01071890    005801790000017900000610000003NN  NNW 000                       N    
RDG08548000WATRL000000004K00000000000000740015911052014111819N000000000000N85       001600400K 10000000010000000726           
CUS0854800000108145446004         GREER KOLBE C       601 WALLERSON RD                        000N        CARE OF             
MTR08548000001000000000000000RA              11326940    005801800000018000000570000003NN  NNW 000                       N    
RDG08548000WATRL000000004K00000000000003879016011052014111844N000000000000N85       000250400K 10000000010000003864           
CUS0854800000108145447002         MICHELLE RIFFER     26 DELREY AVE                           000N        CARE OF             
MTR08548000001000000000000000RA              46879864    005801810000018100000520000003NN  NNW 000                       N    
RDG08548000WATRL000000004K00000000000003269016111052014111936N000400000010N85       000520400K 10000000010000003254           
CUS0854800000108145448000         LEEPER DENEAN       24 DELREY AVE                           000N        CARE OF             
MTR08548000001000000000000000RA              00136861    005801820000018200000570000003NN  NNW 000                       N    
RDG08548000WATRL000000004K00000000000002121016211052014112034N000000000001N85       000580400K 10000000010000002090           
CUS0854800000108145449008         GELDMACHER COLLEEN  22 DELREY AVE                           000N        CARE OF             
MTR08548000001000000000000000RA              46880561    005801830000018300000520000003NN  NNW 000                       N    
RDG08548000WATRL000000004K00000000000002552016311052014112130N000000000000N85       000560400K 10000000010000002545           
RTR08548000NN01830183000001830000000001830183000201NY018301830183000200000000000000000000000002    10202014NY020000 N         
RHD08562200NN03240324000003240000000003240324000475NY032403240324000700020000000000000000000002    10202014NY020000 N         
CUS0856220000108024716006         WALGREEN CO         6323 BALTIMORE NATL PIKE                000N        CARE OF             
MTR08562200001000000000000000RA              14929657    005800010000000100000310000003NN  NNW 000                       N    
RDG08562200WATRL000000004K00000000000000513000111032014080019N000000000000N85       000000400K 10000000010000000513           
CUS0856220000108024721006         SAHI PETROLEUM MARKE10 LINCOLN AVE                          000N        CARE OF             
MTR08562200001000000000000000RA              01085127    005800020000000200000610000003NN  NNW 000                       N    
RDG08562200WATRL000000004K00000000000001541000211032014080834N000000000000N85       004950400K 10000000010000001528           
CUS0856220000108024723002         HOOD LINDA          6 LINCOLN AVE                           000N        CARE OF             
MTR08562200001000000000000000RA              01070454    005800030000000300000610000003NN  NNW 000                       N    
RDG08562200WATRL000000004K00000000000000908000311032014080906N000000000000N85       000320400K 10000000010000000899           
CUS0856220000108024724000         HOOD LINDA          4 LINCOLN AVE                           000N        CARE OF             
MTR08562200001000000000000000RA              00000000    005800040000000400000600000003NY  NNW 000                       N    
MTM0856220000000000    NOMETER                                                                                                
RDG08562200WATRL000000004K00000000000000000000000000000000000 000000000000U         000000400  10000000010000000065           
CUS0856220000108024725007         MALINOWSKI ANTHONY S2 LINCOLN AVE                           000N        CARE OF             
MTR08562200001000000000000000RA              01070457    005800050000000500000610000003NN  NNW 000                       N    
RDG08562200WATRL000000004K00000000000000910000411032014081023N000000000000N85       000770400K 10000000010000000897           
CUS0856220000108436475001         LUCAS VANESSA WARD  5922 OLD FREDERICK RD                   000N        CARE OF             
MTR08562200001000000000000000RA              01115259    005800060000000600000610000003NN  NNW 000                       N    
RDG08562200WATRL000000004K00000000000001145000511032014081423N000000000000N85       002400400K 10000000010000001118           
CUS0856220000108024726005         SMITH WILLIAM A     5926 OLD FREDERICK RD                   000N        CARE OF             
MTR08562200001000000000000000RA              48589571    005800070000000700000520000003NN  NNW 000                       N    
RDG08562200WATRL000000004K00000000000000775000611032014081440N000000000000N85       000170400K 10000000010000000775           
CUS0856220000108436474004         BALOD MONICA ANNE G 5928 OLD FREDERICK RD                   000N        CARE OF             
MTR08562200001000000000000000RA              01115258    005800080000000800000610000003NN  NNW 000                       N    
RDG08562200WATRL000000004K00000000000000484000711032014081502N000400000010N85       000220400K 10000000010000000476           
CUS0856220000108024727003         MATTHEW G WALTON    5930 OLD FREDERICK RD                   000N        CARE OF             
MTR08562200001000000000000000RA              40781872    005800090000000900000520000003NN  NNW 000                       N    
RDG08562200WATRL000000004K00000000000000918000811032014081523N000000000000N85       000210400K 10000000010000000907           
CUS0856220000108024728001         HEBRON CYNTHIA L    5932 OLD FREDERICK RD                   000N        CARE OF             
MTR08562200001000000000000000RA              01084420    005800100000001000000610000003NN  NNW 000                       N    
RDG08562200WATRL000000004K00000000000001410000911032014081542N000000000000N85       000190400K 10000000010000001393           
CUS0856220000108024729009         GUNDY LESLIE W,JR   5934 OLD FREDERICK RD                   000N        CARE OF             
MTR08562200001000000000000000RA              48594179    005800110000001100000520000003NN  NNW 000                       N    
RDG08562200WATRL000000004K00000000000002337001011032014081611N000000000000N85       000290400K 10000000010000002329           
CUS0856220000108024730007         RYAN HAYES  RYAN VIR5935 OLD FREDERICK RD                   000N        CARE OF             
MTR08562200001000000000000000RA              40781797    005800120000001200000520000003NN  NNW 000                       N    
RDG08562200WATRL000000004K00000000000001462001111032014081655N000100000010N85       000440400K 10000000010000001462           
CUS0856220000108024731005         CUBA TODD Y         5933 OLD FREDERICK RD                   000N        CARE OF             
MTR08562200001000000000000000RA              46883012    005800130000001300000520000003NN  NNW 000                       N    
RDG08562200WATRL000000004K00000000000002123001211032014081750N000000000000N85       000550400K 10000000010000002094           
CUS0856220000108024732003         JACQUELINE PERKINS  5931 OLD FREDERICK RD                   000N        CARE OF             
MTR08562200001000000000000000RA              40781821    005800140000001400000520000003NN  NNW 000                       N    
RDG08562200WATRL000000004K00000000000005777001311032014081813N000000000000N85       000230400K 10000000010000005741           
CUS0856220000108024733001         CASSELL IRMA B, TRUS5919 OLD FREDERICK RD                   000N        CARE OF             
MTR08562200001000000000000000RA              01070463    005800150000001500000610000003NN  NNW 000                       N    
RDG08562200WATRL000000004K00000000000000408001411032014081854N000000000010N85       000410400K 10000000010000000399           
CUS0856220000108024734009         SOLIS JOSE C        5917 OLD FREDERICK RD                   000N        CARE OF             
MTR08562200001000000000000000RA              44092520    005800160000001600000520000003NN  NNW 000                       N    
RDG08562200WATRL000000004K00000000000004548001511032014081916N000000000000N85       000220400K 10000000010000004470           
CUS0856220000108024735006         PENNINGTON JAMES R  5915 OLD FREDERICK RD                   000N        CARE OF             
MTR08562200001000000000000000RA              01070461    005800170000001700000610000003NN  NNW 000                       N    
RDG08562200WATRL000000004K00000000000002789001611032014081948N000000000000N85       000320400K 10000000010000002765           
CUS0856220000108024736004         COE EDWARD L        5911 OLD FREDERICK RD                   000N        CARE OF             
MTR08562200001000000000000000RA              35106411    005800180000001800000520000003NN  NNW 000                       N    
RDG08562200WATRL000000004K00000000000002300001711032014082020N000000000000N85       000320400K 10000000010000002242           
CUS0856220000108024737002         STANFORD GARY W,SR  5909 OLD FREDERICK RD                   000N        CARE OF             
MTR08562200001000000000000000RA              24232468    005800190000001900000520000003NN  NNW 000                       N    
RDG08562200WATRL000000004K00000000000003444001811032014082126N000000000000N85       000660400K 10000000010000003432           
CUS0856220000108024738000         GHOLSTON CALVIN WILL5907 OLD FREDERICK RD                   000N        CARE OF             
MTR08562200001000000000000000RA              22609532    005800200000002000000520000003NN  NNW 000                       N    
RDG08562200WATRL000000004K00000000000007481001911032014082235N000000000000N85       000690400K 10000000010000007462           
CUS0856220000108024739008         BAJGAI BALA R       5905 OLD FREDERICK RD                   000N        CARE OF             
MTR08562200001000000000000000RA              10014643    005800210000002100000570000003NN  NNW 000                       N    
RDG08562200WATRL000000004K00000000000000192002011032014082340N000000000000N85       000650400K 10000000010000000168           
CUS0856220000108024740006         WATKINS EDWINA A    5901 OLD FREDERICK RD                   000N        CARE OF             
MTR08562200001000000000000000RA              48593753    005800220000002200000520000003NN  NNW 000                       N    
RDG08562200WATRL000000004K00000000000001256002111032014082516N000000000000N85       000960400K 10000000010000001250           
CUS0856220000108024741004         SEEGOPAUL NAIPAUL   5898 OLD FREDERICK RD                   000N        CARE OF             
MTR08562200001000000000000000RA              01070451    005800230000002300000610000003NN  NNW 000                       N    
RDG08562200WATRL000000004K00000000000000922002211032014082606N000000000000N85       000500400K 10000000010000000901           
CUS0856220000108368508001         BETHEA KAREN S      2 WASHINGTON AVE                        000N        CARE OF             
MTR08562200001000000000000000RA              30526034    005800240000002400000520000003NN  NNW 000                       N    
RDG08562200WATRL000000004K00000000000002843002411032014082836N000000000000N85       000460400K 10000000010000002808           
CUS0856220000108024742002         HEBRON KELVIN T     5900 OLD FREDERICK RD                   000N        CARE OF             
MTR08562200001000000000000000RA              44172533    005800250000002500000520000003NN  NNW 000                       N    
RDG08562200WATRL000000004K00000000000001241002311032014082750N000000000000N85       001040400K 10000000010000001228           
CUS0856220000108024743000         GARRETT JOHN PHILIP 5904 OLD FREDERICK RD                   000N        CARE OF             
MTR08562200001000000000000000RA              99187466    005800260000002600000570000003NN  NNW 000                       N    
RDG08562200WATRL000000004K00000000000001013001911032014083218N000000000000N83       001820400K 10000000010000000988           
CUS0856220000108024744008         CHANDRA LAL BAJGAI  5906 OLD FREDERICK RD                   000N        CARE OF             
MTR08562200001000000000000000RA              25780229    005800270000002700000520000003NN  NNW 000                       N    
RDG08562200WATRL000000004K00000000000003450001811032014082916N000000000000N83       001130400K 10000000010000003423           
CUS0856220000108024745005         SCHNEIDER LAUREN    1 CARGIL AVE                            000N        CARE OF             
MTR08562200001000000000000000RA              14913875    005800280000002800000310000003NN  NNW 000                       N    
RDG08562200WATRL000000004K00000000000000684001511032014082249N000400000010N83       000680400K 10000000010000000681           
CUS0856220000108024746003         OMOTOSO DARE A      3 CARGIL AVE                            000N        CARE OF             
MTR08562200001000000000000000RA              27814209    005800290000002900000520000003NN  NNW 000                       N    
RDG08562200WATRL000000004K00000000000002556001611032014082603N000400000011N83       001340400K 10000000010000002533           
CUS0856220000108352657004         VAHDATSHOAR FARHAD  5 CARGIL AVE                            000N        CARE OF             
MTR08562200001000000000000000RA              27832276    005800300000003000000520000003NN  NNW 000                       N    
RDG08562200WATRL000000004K00000000000003616001711032014082723N000000000000N83       000800400K 10000000010000003599           
CUS0856220000108438667001         HARISHKUMAR P NAGAR 10 CARGIL AVE                           000N        CARE OF             
MTR08562200001000000000000000RA              14917847    005800310000003100000310000003NN  NNW 000                       N    
RDG08562200WATRL000000004K00000000000000372001411032014082141N000000000000N83       000770400K 10000000010000000349           
CUS0856220000108024747001         SIMMS AMOS E,JR     8 CARGIL AVE                            000N        CARE OF             
MTR08562200001000000000000000RA              01070453    005800320000003200000610000003NN  NNW 000                       N    
RDG08562200WATRL000000004K00000000000000468001311032014082024N000000000000N83       000730400K 10000000010000000460           
CUS0856220000108024748009         ANDINO OLGA M       4 CARGIL AVE                            000N        CARE OF             
MTR08562200001000000000000000RA              01070458    005800330000003300000610000003NN  NNW 000                       N    
RDG08562200WATRL000000004K00000000000001328001211032014081911N000000000000N83       000580400K 10000000010000001312           
CUS0856220000108024749007         BORDEN ALFRED WILLIA2 CARGIL AVE                            000N        CARE OF             
MTR08562200001000000000000000RA              14920344    005800340000003400000310000003NN  NNW 000                       N    
RDG08562200WATRL000000004K00000000000000611001111032014081813N000000000000N83       000580400K 10000000010000000592           
CUS0856220000108024750005         QUARLES JOHN WESLEY 5910 OLD FREDERICK RD                   000N        CARE OF             
MTR08562200001000000000000000RA              10007034    005800350000003500000570000003NN  NNW 000                       N    
RDG08562200WATRL000000004K00000000000000100001011032014081715N000000000000N83       000590400K 10000000010000000097           
CUS0856220000108024751003         WILLIAMS MARY B     5914 OLD FREDERICK RD                   000N        CARE OF             
MTR08562200001000000000000000RA              27816809    005800360000003600000520000003NN  NNW 000                       N    
RDG08562200WATRL000000004K00000000000001925000911032014081616N000000000000N83       000480400K 10000000010000001922           
CUS0856220000108024752001         IMONTI RAYMOND J    5916 OLD FREDERICK RD                   000N        CARE OF             
MTR08562200001000000000000000RA              19466855    005800370000003700000520000003NN  NNW 000                       N    
RDG08562200WATRL000000004K00000000000003783000811032014081528N000000000000N83       000520400K 10000000010000003771           
CUS0856220000108024753009         THURASINGHAM JAYASIN5920 OLD FREDERICK RD                   000N        CARE OF             
MTR08562200001000000000000000RA              14924447    005800380000003800000310000003NN  NNW 000                       N    
RDG08562200WATRL000000004K00000000000000387000711032014081436N000000000000N83       001570400K 10000000010000000369           
CUS0856220000108024754007         BROWN LARRY O,SR    1 LINCOLN AVE                           000N        CARE OF             
MTR08562200001000000000000000RA              01070459    005800390000003900000610000003NN  NNW 000                       N    
RDG08562200WATRL000000004K00000000000000825000611032014081159N000300000010N83       000460400K 10000000010000000810           
CUS0856220000108024755004         BLAGMON ATONEY/ATONE5 LINCOLN AVE                           000N        CARE OF             
MTR08562200001000000000000000RA              01070577    005800400000004000000610000003NN  NNW 000                       N    
RDG08562200WATRL000000004K00000000000000709000511032014081113N000000000000N83       000390400K 10000000010000000703           
CUS0856220000108024756002         BLAGMON FRED O      7 LINCOLN AVE                           000N        CARE OF             
MTR08562200001000000000000000RA              25781330    005800410000004100000520000003NN  NNW 000                       N    
RDG08562200WATRL000000004K00000000000001320000411032014081034N000400000010N83       000410400K 10000000010000001317           
CUS0856220000108024757000         SOUTHARD DERRICK    9 LINCOLN AVE                           000N        CARE OF             
MTR08562200001000000000000000RA              44090979    005800420000004200000520000003NN  NNW 000                       N    
RDG08562200WATRL000000004K00000000000003245000311032014080953N000000000000N83       000360400K 10000000010000003223           
CUS0856220000108024758008         DAWN J CONNELY      11 LINCOLN AVE                          000N        CARE OF             
MTR08562200001000000000000000RA              01070455    005800430000004300000610000003NN  NNW 000                       N    
RDG08562200WATRL000000004K00000000000000798000211032014080917N000000000000N83       000490400K 10000000010000000777           
CUS0856220000108024759006         NAIPAUL SEEGOPAUL   13 LINCOLN AVE                          000N        CARE OF             
MTR08562200001000000000000000RA              27819262    005800440000004400000520000003NN  NNW 000                       N    
RDG08562200WATRL000000004K00000000000001240000111032014080828N000000000000N83       000000400K 10000000010000001226           
CUS0856220000108440581000         JOY S PALLIKAL      15 LINCOLN AVE                          000N        CARE OF             
MTR08562200001000000000000000RA              14920360    005800450000004500000310000003NN  NNW 000                       N    
RDG08562200WATRL000000004K00000000000000562002511032014083612N000000000000N85       004560400K 10000000010000000522           
CUS0856220000108024760004         STATE OF MARYLAND ST5901 BALTIMORE NATL PIKE                000N        CARE OF             
MTR08562200001000000000000000RA              48589485    005800460000004600000520000003NN  NNW 000                       N    
RDG08562200WATRL000000004K00000000000001638002611032014084043N000000000000N85       002710400K 10000000010000001616           
CUS0856220000108401190007         HUNTER PAMELA       719 LAFAYETTE AVE                       000N        CARE OF             
MTR08562200001000000000000000RA              01102733    005800470000004700000610000003NN  NNW 000                       N    
RDG08562200WATRL000000004K00000000000001041002311032014085620N000000000000N83       001520400K 10000000010000001015           
CUS0856220000108024761002         SMITH KENRICK A     717 LAFAYETTE AVE                       000N        CARE OF             
MTR08562200001000000000000000RA              25781220    005800480000004800000520000003NN  NNW 000                       N    
RDG08562200WATRL000000004K00000000000002807003011032014085637N000000000000N85       002430400K 10000000010000002779           
CUS0856220000108024762000         PREVOSTO CANDACE BLA715 LAFAYETTE AVE                       000N        CARE OF             
MTR08562200001000000000000000RA              24765655    005800490000004900000520000003NN  NNW 000                       N    
RDG08562200WATRL000000004K00000000000002486003111032014085804N000000000000N85       000870400K 10000000010000002482           
CUS0856220000108373626004         SCHWARTZ STEVEN E   5745 CALVERTON ST                       000N        CARE OF             
MTR08562200001000000000000000RA              31584574    005800500000005000000520000003NN  NNW 000                       N    
RDG08562200WATRL000000004K00000000000002200002911032014085234N000000000000N85       005550400K 10000000010000002189           
CUS0856220000108024763008         ROBERTSON CHARLES E 5743 CALVERTON ST                       000N        CARE OF             
MTR08562200001000000000000000RA              24766025    005800510000005100000520000003NN  NNW 000                       N    
RDG08562200WATRL000000004K00000000000002072002211032014085348N000000000000N83       004080400K 10000000010000002064           
CUS0856220000108024765003         ZARUBA MOLLY ANNE   720 KENT AVE                            000N        CARE OF             
MTR08562200001000000000000000RA              14924452    005800520000005200000310000003NN  NNW 000                       N    
RDG08562200WATRL000000004K00000000000000551003711032014090654N000000000000N85       000940400K 10000000010000000531           
CUS0856220000108024766001         GARY JAMES DONALD   720 KENT AVE                            000N        CARE OF             
MTR08562200001000000000000000RA              24765547    005800530000005300000520000003NN  NNW 000                       N    
RDG08562200WATRL000000004K00000000000003689002811032014090623N000000000000N83       000440400K 10000000010000003674           
CUS0856220000108024764006         JOHNS PHILLIP W     722 KENT AVE                            000N        CARE OF             
MTR08562200001000000000000000RA              26015482    005800540000005400000520000003NN  NNW 000                       N    
RDG08562200WATRL000000004K00000000000003405002711032014090539N000000000000N83       000610400K 10000000010000003392           
CUS0856220000108352623006         FOLTZ PATRICIA ANN  716 KENT AVE                            000N        CARE OF             
MTR08562200001000000000000000RA              27828686    005800550000005500000520000003NN  NNW 000                       N    
RDG08562200WATRL000000004K00000000000003809002611032014090438N000000000000N83       001020400K 10000000010000003781           
CUS0856220000108024767009         LONGNECKER THOMAS E 714 KENT AVE                            000N        CARE OF             
MTR08562200001000000000000000RA              25782330    005800560000005600000520000003NN  NNW 000                       N    
RDG08562200WATRL000000004K00000000000002751002511032014090256N000000000000N83       001580400K 10000000010000002738           
CUS0856220000108024768007         HOLTZNER GEORGE E   712 KENT AVE                            000N        CARE OF             
MTR08562200001000000000000000RA              27813049    005800570000005700000520000003NN  NNW 000                       N    
RDG08562200WATRL000000004K00000000000004960002411032014090018N000000000000N83       002380400K 10000000010000004922           
CUS0856220000108373627002         ANDERSON NICOLE     711 KENT AVE                            000N        CARE OF             
MTR08562200001000000000000000RA              31584557    005800580000005800000520000003NN  NNW 000                       N    
RDG08562200WATRL000000004K00000000000009453003211032014085945N000000000000N85       001010400K 10000000010000009429           
CUS0856220000108024769005         MUSA AHMED K        715 KENT AVE                            000N        CARE OF             
MTR08562200001000000000000000RA              24766368    005800590000005900000520000003NN  NNW 000                       N    
RDG08562200WATRL000000004K00000000000003638003311032014090112N000000000000N85       000870400K 10000000010000003638           
CUS0856220000108352197001         MCGUIRE MICHAEL E   717 KENT AVE                            000N        CARE OF             
MTR08562200001000000000000000RA              26006466    005800600000006000000520000003NN  NNW 000                       N    
RDG08562200WATRL000000004K00000000000003222003411032014090305N000000000000N85       001130400K 10000000010000003198           
CUS0856220000108364060007         AL-HEDARI AHMED O   719 KENT AVE                            000N        CARE OF             
MTR08562200001000000000000000RA              30518943    005800610000006100000520000003NN  NNW 000                       N    
RDG08562200WATRL000000004K00000000000002542003511032014090409N000400000010N85       000640400K 10000000010000002537           
CUS0856220000108024770003         REMLEY KENNETH M    721 KENT AVE                            000N        CARE OF             
MTR08562200001000000000000000RA              24767207    005800620000006200000520000003NN  NNW 000                       N    
RDG08562200WATRL000000004K00000000000003706003611032014090520N000300000010N85       000710400K 10000000010000003681           
CUS0856220000108360220001         BOULTER JOHN S      5733 CALVERTON ST                       000N        CARE OF             
MTR08562200001000000000000000RA              29686523    005800630000006300000520000003NN  NNW 000                       N    
RDG08562200WATRL000000004K00000000000003753003811032014091012N000000000000N85       001980400K 10000000010000003741           
CUS0856220000108429947008         RICKY J LAMBERTH    5729 CALVERTON ST                       000N        CARE OF             
MTR08562200001000000000000000RA              99289754    005800640000006400000570000003NN  NNW 000                       N    
RDG08562200WATRL000000004K00000000000000836003911032014091132N000000000000N85       000800400K 10000000010000000808           
CUS0856220000108024771001         BESSLING BRYAN B    5725 CALVERTON ST                       000N        CARE OF             
MTR08562200001000000000000000RA              24766547    005800650000006500000520000003NN  NNW 000                       N    
RDG08562200WATRL000000004K00000000000005793004011032014091249N000000000000N85       000770400K 10000000010000005784           
CUS0856220000108024772009         SMITH CAROL LEE     722 DORCHESTER RD                       000N        CARE OF             
MTR08562200001000000000000000RA              01070456    005800660000006600000610000003NN  NNW 000                       N    
RDG08562200WATRL000000004K00000000000001023004111032014091341N000000000000N85       000520400K 10000000010000001004           
CUS0856220000108024773007         MCELGUNN ANGELA M   720 DORCHESTER RD                       000N        CARE OF             
MTR08562200001000000000000000RA              10019474    005800670000006700000570000003NN  NNW 000                       N    
RDG08562200WATRL000000004K00000000000000001004211032014091446N000000000000N85       000650400K 10000000010000000001           
CUS0856220000108024774005         VIRGINIA M METCALF  712 DORCHESTER RD                       000N        CARE OF             
MTR08562200001000000000000000RA              24764826    005800680000006800000520000003NN  NNW 000                       N    
RDG08562200WATRL000000004K00000000000004720004411032014091759N000000000010N85       000420400K 10000000010000004719           
CUS0856220000108024775002         TASMAN ENTERPRISES L710 DORCHESTER RD                       000N        CARE OF             
MTR08562200001000000000000000RA              24766546    005800690000006900000520000003NN  NNW 000                       N    
RDG08562200WATRL000000004K00000000000003999004311032014091717N000400000010N85       001510400K 10000000010000003998           
CUS0856220000108381247009         DELAMATER GEORGE THO708 DORCHESTER RD                       000N        CARE OF             
MTR08562200001000000000000000RA              33735393    005800700000007000000520000003NN  NNW 000                       N    
RDG08562200WATRL000000004K00000000000005044004611032014092205N000000000000N85       000380400K 10000000010000005008           
CUS0856220000108380126006         BRIAN S LEISHEAR    700 DORCHESTER RD                       000N        CARE OF             
MTR08562200001000000000000000RA              33732968    005800710000007100000520000003NN  NNW 000                       N    
RDG08562200WATRL000000004K00000000000002503004511032014092127N000000000000N85       002080400K 10000000010000002483           
CUS0856220000108024776000         GONZALEZ JORGE A    701 DORCHESTER RD                       000N        CARE OF             
MTR08562200001000000000000000RA              24766549    005800720000007200000520000003NN  NNW 000                       N    
RDG08562200WATRL000000004K00000000000003814004711032014092310N000000000000N85       000650400K 10000000010000003750           
CUS0856220000108024777008         ROBERTS ANTHONY P   703 DORCHESTER RD                       000N        CARE OF             
MTR08562200001000000000000000RA              26000803    005800730000007300000520000003NN  NNW 000                       N    
RDG08562200WATRL000000004K00000000000003867004811032014092407N000400000010N85       000570400K 10000000010000003855           
CUS0856220000108352642006         BOST TYRONE W       705 DORCHESTER RD                       000N        CARE OF             
MTR08562200001000000000000000RA              01087983    005800740000007400000610000003NN  NNW 000                       N    
RDG08562200WATRL000000004K00000000000001126003611032014092454N000000000000N83       001240400K 10000000010000001051           
CUS0856220000108373605008         MCCOY DWAYNE R      707 DORCHESTER RD                       000N        CARE OF             
MTR08562200001000000000000000RA              10010479    005800750000007500000570000003NN  NNW 000                       N    
RDG08562200WATRL000000004K00000000000000510003711032014092706N000000000000N83       001320400K 10000000010000000491           
CUS0856220000108380127004         GW SUPERMARKET OF BA709 DORCHESTER RD                       000N        CARE OF             
MTR08562200001000000000000000RA              33732971    005800760000007600000520000003NN  NNW 000                       N    
RDG08562200WATRL000000004K00000000000006857003511032014092250N000300000010N83       001470400K 10000000010000006828           
CUS0856220000108024778006         KAZLAUSKAS JULIE    719 DORCHESTER RD                       000N        CARE OF             
MTR08562200001000000000000000RA              26005231    005800770000007700000520000003NN  NNW 000                       N    
RDG08562200WATRL000000004K00000000000002818003411032014092023N000000000000N83       001880400K 10000000010000002789           
