FHDNNNN021004282004282004282N                                                                                           012924
RHD02029700NN00430047000000430000000400470047000111NY004700470047000100040000000000000000000001    12012014NY020000 N         
CUS0202970000102370982007         JOEL L LEVIN        14 W MADISON ST                         000N        CARE OF             
MTR02029700001000000000000000RA              74687937    005800010000000100000350000003NN  NNW 000                       N    
RDG02029700WATRL000000004K00000000000000581000112302014081917N000000000000U80       000000400K 10000000010000000501           
CUS0202970000102367529001         HARRISON, JOSEPH A. 830 TYSON ST                            000N        CARE OF             
MTR02029700001000000000000000RA              75613714    005800020000000200000350000003NN  NNW 000                       N    
RDG02029700WATRL000000004K00000000000000110000312302014083455N000000000000U80       003310400K 10000000010000000089           
CUS0202970000102367553001         BROWN, PHOEBE ANN   836 TYSON ST                            000N        CARE OF             
MTR02029700001000000000000000RA              75613296    005800030000000300000350000003NN  NNW 000                       N    
RDG02029700WATRL000000004K00000000000000047000412302014083525N000000000000U80       000300400K 10000000010000000039           
CUS0202970000102367543002         SUGERMAN, DAVID E.  840 TYSON ST                            000N        CARE OF             
MTR02029700001000000000000000RA              75614852    005800040000000400000350000003NN  NNW 000                       N    
RDG02029700WATRL000000004K00000000000000148000512302014083557N000300000010U80       000320400K 10000000010000000061           
CUS0202970000102367542004         CLOUTIER, DENNIS M  885 TYSON ST                            000N        CARE OF             
MTR02029700001000000000000000RA              75616737    005800050000000500000350000003NN  NNW 000                       N    
RDG02029700WATRL000000004K00000000000000083000912302014083943N000000000000U80       000180400K 10000000010000000081           
CUS0202970000102371684008         WOODSIDE, CHRISTOPHE883 TYSON ST                            000N        CARE OF             
MTR02029700001000000000000000RA              21744986    005800060000000600000590000003NN  NNW 000                       N    
RDG02029700WATRL000000004K00000000000000000000812302014083925S002000000000U80       000280400K 10000000010000001739           
CUS0202970000102371686003         GOMES, KENNETH      881 TYSON ST                            000N        CARE OF             
MTR02029700001000000000000000RA              76347427    005800070000000700000350000003NN  NNW 000                       N    
RDG02029700WATRL000000004K00000000000000017000712302014083857N000400000010U80       000340400K 10000000010000000016           
CUS0202970000102371685005         GOMBEDA, THOMAS     879 TYSON ST                            000N        CARE OF             
MTR02029700001000000000000000RA              75613298    005800080000000800000350000003NN  NNW 000                       N    
RDG02029700WATRL000000004K00000000000000021000612302014083823N000000000000U80       001460400K 10000000010000000017           
CUS0202970000102367538002         WILLIAMS, ALBERT HUG837 PARK AVE                            000N        CARE OF             
MTR02029700001000000000000000RA              74687913    005800090000000900000350000003NN  NNW 000                       N    
RDG02029700WATRL000000004K00000000000000000000212302014082924N000000000000U80       006070400K 10000000010000000000           
CUS0202970000102371680006         MEALEY, ROBERT      904 TYSON ST                            000N        CARE OF             
MTR02029700001000000000000000RA              75613301    005800100000001000000350000003NN  NNW 000                       N    
RDG02029700WATRL000000004K00000000000000080001012302014084124N000000000000U80       001010400K 10000000010000000068           
CUS0202970000102371679008         MEALEY, ROBERT      906 TYSON ST                            000N        CARE OF             
MTR02029700001000000000000000RA              75613299    005800110000001100000350000003NN  NNW 000                       N    
RDG02029700WATRL000000004K00000000000000032001112302014084158N000000000000U80       000340400K 10000000010000000027           
CUS0202970000102367534001         MARTIN, FREDERICK   908 TYSON ST                            000N        CARE OF             
MTR02029700001000000000000000RA              75613694    005800120000001200000350000003NN  NNW 000                       N    
RDG02029700WATRL000000004K00000000000000063001212302014084223N000000000000U80       000250400K 10000000010000000056           
CUS0202970000102367539000         912 TYSON, LLC      912 TYSON ST                            000N        CARE OF             
MTR02029700001000000000000000RA              77884949    005800130000001300000360000003NN  NNW 000                       N    
RDG02029700WATR 000000004R00000000000000001000001012015180000N0003000000;0N         000000400R 10000000010000000000           
RFF0202970068294688      ERT      0000  956.44375000140000010120151800000000017114100W 1220000N                               
CUS0202970000102371117009         UNDERWOOD, FREDERIC 914 TYSON ST                            000N        CARE OF             
MTR02029700001000000000000000RA              77884950    005800140000001400000360000003NN  NNW 000                       N    
RDG02029700WATR 000000004R00000000000000000000001012015180000N0001000000;0N         000000400R 10000000010000000000           
RFF0202970068294837      ERT      0000  956.44375000140000010120151800000000003900100W 1220000N                               
CUS0202970000102367533003         KERIVAN, DAVID      916 TYSON ST                            000N        CARE OF             
MTR02029700001000000000000000RA              77885780    005800150000001500000360000003NN  NNW 000   VACANT PROPERTY     N    
RDG02029700WATR 000000004R00000000000000000000001012015180000N0001000000;0N         000000400R 10000000010000000000           
RFF0202970068294830      ERT      0000  956.44375000140000010120151800000000000159100W 1220000N                               
CUS0202970000102367547003         LAFFERMAN, DYLAN A  920 TYSON ST                            000N        CARE OF             
MTR02029700001000000000000000RA              75613290    005800160000001600000350000003NN  NNW 000                       N    
RDG02029700WATRL000000004K00000000000000103001312302014084312N000000000000U80       000490400K 10000000010000000084           
CUS0202970000102367590003         LAMOUREUX, JOHN R   911 TYSON ST                            000N        CARE OF             
MTR02029700001000000000000000RA              75613297    005800170000001700000350000003NN  NNW 000                       N    
RDG02029700WATRL000000004K00000000000000031001412302014084358N000000000000U80       000460400K 10000000010000000025           
CUS0202970000102371118007         SHUTTER, MELODY M.  909 TYSON ST                            000N        CARE OF             
MTR02029700001000000000000000RA              75613713    005800180000001800000350000003NN  NNW 000                       N    
RDG02029700WATRL000000004K00000000000000068001512302014084422N000000000000U80       000240400K 10000000010000000058           
CUS0202970000102367532005         CURTIN, BONNIE R.   907 TYSON ST                            000N        CARE OF             
MTR02029700001000000000000000RA              75613300    005800190000001900000350000003NN  NNW 000                       N    
RDG02029700WATRL000000004K00000000000000033001612302014084443N000000000000U80       000210400K 10000000010000000027           
CUS0202970000102367540008         HASKELL PROPERTY MNG901 TYSON ST                            000N        CARE OF             
MTR02029700001000000000000000RA              75613710    005800200000002000000350000003NN  NNW 000                       N    
RDG02029700WATRL000000004K00000000000000020001712302014084512N000000000000U80       000290400K 10000000010000000017           
CUS0202970000102371122009         OH, YOUNG RAN       200 W READ ST                           000N        CARE OF             
MTR02029700001000000000000000RA              78021981    005800210000002100000360000003NN  NNW 000                       N    
RDG02029700WATR 000000004R00000000000000015000001012015180000N0003000000;0N         000000400R 10000000010000000007           
RFF0202970068294243      ERT      0000  956.44375000140000010120151800000000158419100W 1220000N                               
CUS0202970000102367536006         VAN CUYK, WILLIAM J.879 PARK AVE                            000N        CARE OF             
MTR02029700001000000000000000RA              75615848    005800220000002200000350000003NN  NNW 000                       N    
RDG02029700WATRL000000004K00000000000000096001812302014085916N000000000000U80       008440400K 10000000010000000081           
CUS0202970000102367554009         JARMIOLOWSKI, GREGOR910 N CALVERT ST                        000N        CARE OF             
MTR02029700001000000000000000RA              75614211    005800230000002300000350000003NN  NNW 000                       N    
RDG02029700WATRL000000004K00000000000000012004212302014101114N000000000000U80       002000400K 10000000010000000012           
CUS0202970000104366802009         LISENBEE, DOUGLAS E 222 E EAGER ST                          000N        CARE OF             
MTR02029700001000000000000000RA              75614834    005800240000002400000350000003NN  NNW 000                       N    
RDG02029700WATRL000000004K00000000000000072002312302014091020N000000000000U80       000340400K 10000000010000000056           
CUS0202970000104366798009         HUGHES, WILLIAM A   214 E EAGER ST                          000N        CARE OF             
MTR02029700001000000000000000RA              75614840    005800250000002500000350000003NN  NNW 000                       N    
RDG02029700WATRL000000004K00000000000000030002212302014090946N000000000000U80       000300400K 10000000010000000023           
CUS0202970000102372726006         DAVID C VANDERMARK  212 E EAGER ST                          000N        CARE OF             
MTR02029700001000000000000000RA              75614842    005800260000002600000350000003NN  NNW 000                       N    
RDG02029700WATRL000000004K00000000000000079002112302014090916N000000000000U80       000240400K 10000000010000000063           
CUS0202970000104366796003         PANACKAL, PHILIP    210 E EAGER ST                          000N        CARE OF             
MTR02029700001000000000000000RA              75614836    005800270000002700000350000003NN  NNW 000                       N    
RDG02029700WATRL000000004K00000000000000126002012302014090852N000000000000U80       000250400K 10000000010000000107           
CUS0202970000104366801001         KENT, ROBERT J  (TR)206 E EAGER ST                          000N        CARE OF             
MTR02029700001000000000000000RA              21741167    005800280000002800000590000003NN  NNW 000                       N    
RDG02029700WATRL000000004K00000000000000000001912302014090827S002000000000U80       005510400K 10000000010000003213           
CUS0202970000102367555006         DEBELL, KEVIN       1031 N CALVERT ST                       000N        CARE OF             
MTR02029700001000000000000000RA              75615850    005800290000002900000350000003NN  NNW 000                       N    
RDG02029700WATRL000000004K00000000000000117003012302014092256N000000000000U80       002410400K 10000000010000000097           
CUS0202970000104366793000         KUBIK, MARK         17 E EAGER ST                           000N        CARE OF             
MTR02029700001000000000000000RA              75614419    005800300000003000000350000003NN  NNW 000                       N    
RDG02029700WATRL000000004K00000000000000108004112302014100754N000000000010U80       003290400K 10000000010000000081           
CUS0202970000104365605007         JENKINS JR, JOHN WIL24 W CHASE ST                           000N        CARE OF             
MTR02029700001000000000000000RA              21727511    005800310000003100000590000003NN  NNW 000                       N    
RDG02029700WATRL000000004K00000000000000000003912302014095350S022000000000U80       001230400K 10000000010000003847           
CUS0202970000102367546005         SEHMAN IV, CHARLES A22 W CHASE ST                           000N        CARE OF             
MTR02029700001000000000000000RA              10007025    005800320000003200000570000003NN  NNW 000                       N    
RDG02029700WATRL000000004K00000000000000347003812302014095147N000000000000U80       004450400K 10000000010000000329           
CUS0202970000102367545007         BERMAN, STUART A.   5 W BIDDLE ST                           000N        CARE OF             
MTR02029700001000000000000000RA              75614275    005800330000003300000350000003NN  NNW 000                       N    
RDG02029700WATRL000000004K00000000000001368004012302014100225N000400000010U80       005150400K 10000000010000001309           
CUS0202970000102371124005         10 W BIDDLE STREET, 10 W BIDDLE ST                          000N        CARE OF             
MTR02029700001000000000000000RA              21741653    005800340000003400000590000003NY  NNW 000                       N    
MTM0202970021741653    NO ACCESS                                                                                              
RDG02029700WATRL000000004K00000000000000000000000000000000000 000000000000U         000000400  10000000010000006758           
CUS0202970000102370987006         ST JOSEPH SOCIETY   1124 N CALVERT ST                       000N        CARE OF             
MTR02029700001000000000000000RA              75617984    005800350000003500000350000003NN  NNW 000                       N    
RDG02029700WATRL000000004K00000000000001341003212302014092606N000400000010U80       000310400K 10000000010000001308           
CUS0202970000102370988004         ST JOSEPH SOCIETY   1126 N CALVERT ST                       000N        CARE OF             
MTR02029700001000000000000000RA              75617987    005800360000003600000350000003NN  NNW 000                       N    
RDG02029700WATRL000000004K00000000000000003003112302014092535N000100000010U80       001590400K 10000000010000000003           
CUS0202970000102377449000         PRATT, RAYMOND D    208 E CHASE ST                          000N        CARE OF             
MTR02029700001000000000000000RA              76345823    005800370000003700000350000003NN  NNW 000                       N    
RDG02029700WATRL000000004K00000000000000006002412302014091457N000000000010U80       002770400K 10000000010000000004           
CUS0202970000102367551005         FEDERAL HOME LOAN MO212 E CHASE ST                          000N        CARE OF             
MTR02029700001000000000000000RA              76346764    005800380000003800000350000003NN  NNW 000                       N    
RDG02029700WATRL000000004K00000000000000000002512302014091559N000000000000U80       000620400K 10000000010000000000           
CUS0202970000102367550007         ALEXANDER, TAMARA   216 E CHASE ST                          000N        CARE OF             
MTR02029700001000000000000000RA              78021099    005800390000003900000350000003NN  NNW 000                       N    
RDG02029700WATRL000000004K00000000000000004002612302014091658N000000000010U80       000590400K 10000000010000000000           
CUS0202970000102370990000         ASAFO-ADJEI, EDWARD 1108 GUILFORD AVE                       000N        CARE OF             
MTR02029700001000000000000000RA              76345821    005800400000004000000350000003NN  NNW 000                       N    
RDG02029700WATRL000000004K00000000000000000002912302014091855N000000000000U80       000330400K 10000000010000000000           
CUS0202970000104366941005         WHEELER, JAMES R    1110 GUILFORD AVE                       000N        CARE OF             
MTR02029700001000000000000000RA              77886787    005800410000004100000350000003NN  NNW 000                       N    
RDG02029700WATRL000000004K00000000000000011002712302014091747N000000000010U80       000490400K 10000000010000000000           
CUS0202970000104366936005         SHELTON, WARREN B   1112 GUILFORD AVE                       000N        CARE OF             
MTR02029700001000000000000000RA              76345825    005800420000004200000350000003NN  NNW 000                       N    
RDG02029700WATRL000000004K00000000000000100002812302014091822N000000000000U80       000350400K 10000000010000000077           
CUS0202970000102369045006         HALL-COLEMAN, BARBAR1114 GUILFORD AVE                       000N        CARE OF             
MTR02029700001000000000000000RA              75617983    005800430000004300000350000003NN  NNW 000                       N    
RDG02029700WATRL000000004K00000000000000036003312302014093147N000000000000U80       003410400K 10000000010000000029           
CUS0202970000102370986008         HIGH, BRIAN A       221 E BIDDLE ST                         000N        CARE OF             
MTR02029700001000000000000000RA              75424140    005800440000004400000350000003NN  NNW 000                       N    
RDG02029700WATRL000000004K00000000000000130003712302014094422N000000000000U80       001160400K 10000000010000000108           
CUS0202970000102370985000         BURSTEIN, AARON J.  219 E BIDDLE ST                         000N        CARE OF             
MTR02029700001000000000000000RA              75424662    005800450000004500000350000003NN  NNW 000                       N    
RDG02029700WATRL000000004K00000000000000104003612302014094226N000000000000U80       000120400K 10000000010000000087           
CUS0202970000102370984003         CAUFRIEZ, JEAN      217 E BIDDLE ST                         000N        CARE OF             
MTR02029700001000000000000000RA              75614838    005800460000004600000350000003NN  NNW 000                       N    
RDG02029700WATRL000000004K00000000000000128003512302014094214N000000000000U80       003290400K 10000000010000000107           
CUS0202970000102367541006         1224 N CALVERT ST, L1224 N CALVERT ST                       000N        CARE OF             
MTR02029700001000000000000000RA              21721493    005800470000004700000590000003NN  NNW 000                       N    
RDG02029700WATRL000000004K00000000000000000003412302014093645S002000000000U80       002980400K 10000000010000000893           
RTR02029700NN00430047000000430000000400470047000111NY004700470047000100040000000000000000000001    12012014NY020000 N         
RHD02038700NN02280228000002280000000002280228000134NY022802280228000300000000000000000000000001    12012014NY020000 N         
CUS0203870000102160980005         BPI, LLC            1701 N PULASKI ST                       000N        CARE OF             
MTR02038700001000000000000000RA              30001252    007500010000000100000570000003NN  NNW 000   FERRULE APPLIED     N    
RDG02038700WATRL000000004K00000000000000345000112312014131832N000000000000U26       000000400K 10000000010000000345           
CUS0203870000102160981003         CATANESE, RICHARD   1703 N PULASKI ST                       000N        CARE OF             
MTR02038700001000000000000000RA              14929674    005800020000000200000310000003NN  NNW 000                       N    
RDG02038700WATRL000000004K00000000000000170004112222014074619N000000000000N26       000470400K 10000000010000000158           
CUS0203870000102160982001         VANESSA JACKSON     1705 N PULASKI ST                       000N        CARE OF             
MTR02038700001000000000000000RA              40049512    005800030000000300000520000003NN  NNW 000                       N    
RDG02038700WATRL000000004K00000000000000571000212312014131846N000000000000U26       000140400K 10000000010000000571           
CUS0203870000102160983009         NEWMAN, INEZ M      1707 N PULASKI ST                       000N        CARE OF             
MTR02038700001000000000000000RA              24221143    005800040000000400000520000003NN  NNW 000                       N    
RDG02038700WATRL000000004K00000000000001671004212222014074700N000000000000N26       000410400K 10000000010000001667           
CUS0203870000102160984007         GEORGINI C FRANCOIS 1709 N PULASKI ST                       000N        CARE OF             
MTR02038700001000000000000000RA              24221146    005800050000000500000520000003NN  NNW 000                       N    
RDG02038700WATRL000000004K00000000000002164004312222014074740N000000000000N26       000400400K 10000000010000002158           
CUS0203870000102160985004         ROBINSON, ANTONIO   1711 N PULASKI ST                       000N        CARE OF             
MTR02038700001000000000000000RA              10003589    005800060000000600000570000003NN  NNW 000                       N    
RDG02038700WATRL000000004K00000000000000205004412222014074757N000000000000N26       000170400K 10000000010000000198           
CUS0203870000102160986002         MAJETT, BARBARA A   1713 N PULASKI ST                       000N        CARE OF             
MTR02038700001000000000000000RA              27827118    005800070000000700000520000003NN  NNW 000                       N    
RDG02038700WATRL000000004K00000000000002428004512222014074817N000000000000N26       000200400K 10000000010000002415           
CUS0203870000102160987000         EADES, SUSAN        1715 N PULASKI ST                       000N        CARE OF             
MTR02038700001000000000000000RA              00135389    005800080000000800000570000003NN  NNW 000                       N    
RDG02038700WATRL000000004K00000000000001117004612222014074832N000000000000N26       000150400K 10000000010000001109           
CUS0203870000102160988008         UD-DEEN, RAFEE      1717 N PULASKI ST                       000N        CARE OF             
MTR02038700001000000000000000RA              01091157    005800090000000900000610000003NN  NNW 000                       N    
RDG02038700WATRL000000004K00000000000001242004712222014074851N000000000000N26       000190400K 10000000010000001215           
CUS0203870000102160989006         BRANCH, JESSICA     1719 N PULASKI ST                       000N        CARE OF             
MTR02038700001000000000000000RA              30514305    005800100000001000000520000003NN  NNW 000                       N    
RDG02038700WATRL000000004K00000000000003109004812222014074913N000000000000N26       000220400K 10000000010000003094           
CUS0203870000102160990004         JONES JR., BERNARD  1721 N PULASKI ST                       000N        CARE OF             
MTR02038700001000000000000000RA              48589737    005800110000001100000520000003NN  NNW 000                       N    
RDG02038700WATRL000000004K00000000000001222004912222014074934N000000000000N26       000210400K 10000000010000001209           
CUS0203870000102160991002         BARRETT, VALERIE D. 1723 N PULASKI ST                       000N        CARE OF             
MTR02038700001000000000000000RA              01099014    005800120000001200000610000003NN  NNW 000                       N    
RDG02038700WATRL000000004K00000000000001100005012222014074946N000000000000N26       000120400K 10000000010000001070           
CUS0203870000102160992000         COMMUNITY DEVELOPMEN1725 N PULASKI ST                       000N        CARE OF             
MTR02038700001000000000000000RA              14912838    005800130000001300000310000003NN  NNW 000                       N    
RDG02038700WATRL000000004K00000000000000528000312312014131848N000000000000U26       000020400K 10000000010000000528           
CUS0203870000102160993008         GENESIS RESIDENTIAL,1727 N PULASKI ST                       000N        CARE OF             
MTR02038700001000000000000000RA              14908063    005800140000001400000310000003NN  NNW 000                       N    
RDG02038700WATRL000000004K00000000000000354005212222014075025N000000000000N26       000130400K 10000000010000000324           
CUS0203870000102160994006         U.S. BANK NATIONAL A1729 N PULASKI ST                       000N        CARE OF             
MTR02038700001000000000000000RA              36693135    005800150000001500000520000003NN  NNW 000                       N    
RDG02038700WATRL000000004K00000000000001463000412312014131909N000000000000U26       000210400K 10000000010000001463           
CUS0203870000102160995003         CAIN, MARY          1731 N PULASKI ST                       000N        CARE OF             
MTR02038700001000000000000000RA              32901462    005800160000001600000520000003NN  NNW 000                       N    
RDG02038700WATRL000000004K00000000000003920005412222014075048N000000000000N26       000180400K 10000000010000003896           
CUS0203870000102160996001         DAVID, SARAH        1733 N PULASKI ST                       000N        CARE OF             
MTR02038700001000000000000000RA              31586169    005800170000001700000520000003NN  NNW 000                       N    
RDG02038700WATRL000000004K00000000000002455005512222014075103N000000000000N26       000150400K 10000000010000002427           
CUS0203870000102160997009         MICHAEL BAILEY      1735 N PULASKI ST                       000N        CARE OF             
MTR02038700001000000000000000RA              10021157    005800180000001800000570000003NN  NNW 000                       N    
RDG02038700WATRL000000004K00000000000000211005612222014075116N000000000000N26       000130400K 10000000010000000183           
CUS0203870000102160998007         VIOLA VAUGHN        1737 N PULASKI ST                       000N        CARE OF             
MTR02038700001000000000000000RA              35112432    005800190000001900000520000003NN  NNW 000                       N    
RDG02038700WATRL000000004K00000000000002059005712222014075130N000000000000N26       000140400K 10000000010000002049           
CUS0203870000102160999005         FISHER, DAMON       1801 N PULASKI ST                       000N        CARE OF             
MTR02038700001000000000000000RA              76349640    007500200000002000000350000003NN  NNW 000                       N    
RDG02038700WATRL000000004K00000000000000255005812222014075223N000000000000N26       000530400K 10000000010000000186           
CUS0203870000102161000001         GALLMAN, ROSENDA    1803 N PULASKI ST                       000N        CARE OF             
MTR02038700001000000000000000RA              40049509    005800210000002100000520000003NN  NNW 000                       N    
RDG02038700WATRL000000004K00000000000002802005912222014075252N000400000010N26       000290400K 10000000010000002797           
CUS0203870000102161001009         JOHNSON, RANDY W    1805 N PULASKI ST                       000N        CARE OF             
MTR02038700001000000000000000RA              99391031    005800220000002200000570000003NN  NNW 000                       N    
RDG02038700WATRL000000004K00000000000001483006012222014075306N000000000000N26       000140400K 10000000010000001448           
CUS0203870000102161002007         MURCHAKE, DAVID L   1807 N PULASKI ST                       000N        CARE OF             
MTR02038700001000000000000000RA              10005330    005800230000002300000570000003NN  NNW 000                       N    
RDG02038700WATRL000000004K00000000000003166000512312014131917N000000000000U26       000080400K 10000000010000003166           
CUS0203870000102161003005         PREMIER INVESTMENT P1809 N PULASKI ST                       000N        CARE OF             
MTR02038700001000000000000000RA              38985630    005800240000002400000520000003NN  NNW 000                       N    
RDG02038700WATRL000000004K00000000000000000000000000000000000 000000000000U         000000400  10000000010000002562           
CUS0203870000102161004003         APOLAR REED         1811 N PULASKI ST                       000N        CARE OF             
MTR02038700001000000000000000RA              9596674     005800250000002500000570000003NN  NNW 000                       N    
RDG02038700WATRL000000004K00000000000005241000612312014131925N000000000000U26       000080400K 10000000010000005241           
CUS0203870000102161005000         PORT HOMES, LLC     1813 N PULASKI ST                       000N        CARE OF             
MTR02038700001000000000000000RA              99999999    005800260000002600000620000003NN  NNW 000                       N    
RDG02038700WATRL000000004K00000000000005113000712312014131928N000000000000U26       000030400K 10000000010000005113           
CUS0203870000102161006008         COUNTRY WALK INVESTM1815 N PULASKI ST                       000N        CARE OF             
MTR02038700001000000000000000RA              10008017    005800270000002700000570000003NN  NNW 000                       N    
RDG02038700WATRL000000004K00000000000000156006112222014075415N000000000000N26       000690400K 10000000010000000149           
CUS0203870000102161007006         ERIC V GREEN        1817 N PULASKI ST                       000N        CARE OF             
MTR02038700001000000000000000RA              9596655     005800280000002800000570000003NN  NNW 000   VACANT PROPERTY     N    
RDG02038700WATRL000000004K00000000000004861000812312014132651N000000000000U26       004430400K 10000000010000004861           
CUS0203870000102161008004         MOORE, JAMES E      1819 N PULASKI ST                       000N        CARE OF             
MTR02038700001000000000000000RA              9686479     005800290000002900000570000003NN  NNW 000                       N    
RDG02038700WATRL000000004K00000000000002757000912312014132654N000000000000U26       000030400K 10000000010000002757           
CUS0203870000102161009002         HALLIE Z HAIRSTON   1821 N PULASKI ST                       000N        CARE OF             
MTR02038700001000000000000000RA              10018717    005800300000003000000570000003NN  NNW 000   VACANT PROPERTY     N    
RDG02038700WATRL000000004K00000000000000019001012312014132656N000000000000U26       000020400K 10000000010000000019           
CUS0203870000102161010000         MICHAEL BRINKLEY    1823 N PULASKI ST                       000N        CARE OF             
MTR02038700001000000000000000RA              14923707    005800310000003100000310000003NN  NNW 000                       N    
RDG02038700WATRL000000004K00000000000000268006212222014075505N000000000010N26       000500400K 10000000010000000261           
CUS0203870000102161011008         DK & R INVESTMENTS, 1825 N PULASKI ST                       000N        CARE OF             
MTR02038700001000000000000000RA              33416263    007500320000003200000520000003NN  NNW 000   VACANT PROPERTY     N    
RDG02038700WATRL000000004K00000000000003541001112312014132658N000000000000U26       000020400K 10000000010000003541           
CUS0203870000102447648003         CHONG YON UN        2045 W NORTH AVE                        000N        CARE OF             
MTR02038700001000000000000000RA              00000000    000000330000003300000600000000NN  NNW 000   INVALID DAC         N    
RDG02038700WATRL000000004K00000000000000000001212312014132700N000000000000U26       000020400K 10000000010000000000           
CUS0203870000102161012006         CHONG, YON UN       2043-45 W NORTH AVE                     000N        CARE OF             
MTR02038700001000000000000000RA              39256641    007500340000003400000520000003NN  NNW 000                       N    
RDG02038700WATRL000000004K00000000000006124001312312014133238N000000000000U26       003380400K 10000000010000006124           
CUS0203870000102161013004         JESSICA-CARL, INC   2041 W NORTH AVE                        000N        CARE OF             
MTR02038700001000000000000000RA              40248458    007500350000003500000520000003NN  NNW 000   VACANT PROPERTY     N    
RDG02038700WATRL000000004K00000000000000388001412312014133239N000000000000U26       000010400K 10000000010000000388           
CUS0203870000102161014002         CRAIG, JAMES        2039 W NORTH AVE                        000N        CARE OF             
MTR02038700001000000000000000RA              99999999    007500360000003600000620000003NN  NNW 000   VACANT PROPERTY     N    
RDG02038700WATRL000000004K00000000000000629001512312014133241N000000000000U26       000020400K 10000000010000000629           
CUS0203870000102161015009         WEP, INC            2037 W NORTH AVE                        000N        CARE OF             
MTR02038700001000000000000000RA              00118204    007500370000003700000570000003NN  NNW 000                       N    
RDG02038700WATRL000000004K00000000000001531006412222014075633N000000000000N26       000810400K 10000000010000001422           
CUS0203870000102161016007         NOVOGRAD, JACK  (TR)2035 W NORTH AVE                        000N        CARE OF             
MTR02038700001000000000000000RA              76349733    007500380000003800000350000003NN  NNW 000   VACANT PROPERTY     N    
RDG02038700WATRL000000004K00000000000000000001612312014133243N000000000000U26       000020400K 10000000010000000000           
CUS0203870000102161017005         NORTH AVENUE REVELAT2033 W NORTH AVE                        000N        CARE OF             
MTR02038700001000000000000000RA              30000492    007500390000003900000570000003NN  NNW 000                       N    
RDG02038700WATRL000000004K00000000000001024001712312014133244N000000000000U26       000010400K 10000000010000001024           
CUS0203870000102161018003         SMITH, COREY        2031 W NORTH AVE                        000N        CARE OF             
MTR02038700001000000000000000RA              18777321    007500400000004000000440000003NN  NNW 000   VACANT PROPERTY     N    
RDG02038700WATRL000000004K00000000000003998001812312014133247N000000000000U26       000030400K 10000000010000003998           
CUS0203870000102161019001         VERONA E DOUGLAS    2029 W NORTH AVE                        000N        CARE OF             
MTR02038700001000000000000000RA              52292384    007500410000004100000520000003NN  NNW 000                       N    
RDG02038700WATRL000000004K00000000000001463006612222014075659N000000000000N26       000180400K 10000000010000001457           
CUS0203870000102161020009         MCCORMICK, VENNIETH 2027 W NORTH AVE                        000N        CARE OF             
MTR02038700001000000000000000RA              30001678    007500420000004200000570000003NN  NNW 000                       N    
RDG02038700WATRL000000004K00000000000000067006712222014075700N000000000000N26       000010400K 10000000010000000037           
CUS0203870000102161021007         KAY'S MANAGEMENT    2025 W NORTH AVE                        000N        CARE OF             
MTR02038700001000000000000000RA              29121751    007500430000004300000520000003NN  NNW 000                       N    
RDG02038700WATRL000000004K00000000000005492006812222014075721N000000000000N26       000210400K 10000000010000005471           
CUS0203870000102161022005         JSP PARTNERS, LLC   2023 W NORTH AVE                        000N        CARE OF             
MTR02038700001000000000000000RA              01098044    007500440000004400000610000003NN  NNW 000                       N    
RDG02038700WATRL000000004K00000000000001235006912222014075738N000000000000N26       000170400K 10000000010000001145           
CUS0203870000102161023003         ANGELIC MINISTRIES, 2021 W NORTH AVE                        000N        CARE OF             
MTR02038700001000000000000000RA              33731328    007500450000004500000520000003NN  NNW 000                       N    
RDG02038700WATRL000000004K00000000000003597001912312014133250N000000000000U26       000030400K 10000000010000003597           
CUS0203870000102161024001         KALEB FAOULY ATIM TS2019 W NORTH AVE                        000N        CARE OF             
MTR02038700001000000000000000RA              43904437    007500460000004600000520000003NN  NNW 000                       N    
RDG02038700WATRL000000004K00000000000001443007012222014075815N000000000010N26       000370400K 10000000010000001436           
CUS0203870000102161025008         SHAW, LENARD        2017 W NORTH AVE                        000N        CARE OF             
MTR02038700001000000000000000RA              27894270    005800470000004700000520000000NN  NNW 000   VACANT PROPERTY     N    
RDG02038700WATRL000000004K00000000000003589002012312014133307N000000000000U26       000170400K 10000000010000003589           
CUS0203870000102161026006         CHRISTIAN MEMORIAL C2001 W NORTH AVE                        000N        CARE OF             
MTR02038700001000000000000000RA              99999999    007500480000004800000620000003NN  NNW 000   VACANT PROPERTY     N    
RDG02038700WATRL000000004K00000000000000000002112312014133311N000000000000U26       000040400K 10000000010000000000           
CUS0203870000102161027004         CHRISTIAN MEMORIAL C2001 W NORTH AVE                        000N        CARE OF             
MTR02038700001000000000000000RA              44030127    007500490000004900000520000003NN  NNW 000                       N    
RDG02038700WATRL000000004K00000000000000546007112222014075842N000000000010N26       000270400K 10000000010000000537           
CUS0203870000102161028002         CHRISTIAN MEMORIAL C2001 W NORTH AVE                        000N        CARE OF             
MTR02038700001000000000000000RA              01110415    005800500000005000000610000003NN  NNW 000                       N    
RDG02038700WATRL000000004K00000000000000539007212222014075856N000000000000N26       000140400K 10000000010000000523           
CUS0203870000102161029000         RICO COMPANY        2000 WESTWOOD AV REAR                   000N        CARE OF             
MTR02038700001000000000000000RA              99999999    005800510000005100000620000003NN  NNW 000   VACANT PROPERTY     N    
RDG02038700WATRL000000004K00000000000000301002212312014133348N000000000000U26       000370400K 10000000010000000301           
CUS0203870000102161030008         POTOMAC REAL ESTATE 1824 N PAYSON ST                        000N        CARE OF             
MTR02038700001000000000000000RA              39924827    007500520000005200000520000003NN  NNW 000   VACANT PROPERTY     N    
RDG02038700WATRL000000004K00000000000001384002312312014133516N000000000000U26       000880400K 10000000010000001384           
CUS0203870000102161031006         LONGLEY, SHAUN      1822 N PAYSON ST                        000N        CARE OF             
MTR02038700001000000000000000RA              44177925    005800530000005300000520000003NN  NNW 000                       N    
RDG02038700WATRL000000004K00000000000002676007312222014075949N000000000000N26       000530400K 10000000010000002660           
CUS0203870000102161032004         BLACK LOTUS DEVELOPM1820 N PAYSON ST                        000N        CARE OF             
MTR02038700001000000000000000RA              24221139    005800540000005400000520000003NN  NNW 000                       N    
RDG02038700WATRL000000004K00000000000004076007412222014080004N000300000010N26       000150400K 10000000010000004048           
CUS0203870000102161033002         JOSEPH COLEMAN      1818 N PAYSON ST                        000N        CARE OF             
MTR02038700001000000000000000RA              40781235    005800550000005500000520000003NN  NNW 000                       N    
RDG02038700WATRL000000004K00000000000002059007512222014080014N000000000000N26       000100400K 10000000010000002027           
CUS0203870000102161034000         KBY PROPERTIES, LLC 1816 N PAYSON ST                        000N        CARE OF             
MTR02038700001000000000000000RA              24221362    005800560000005600000520000003NN  NNW 000                       N    
RDG02038700WATRL000000004K00000000000001916007612222014080030N000000000000N26       000160400K 10000000010000001896           
CUS0203870000102161035007         JERLEAN NEAL        1814 N PAYSON ST                        000N        CARE OF             
MTR02038700001000000000000000RA              40321963    005800570000005700000520000003NN  NNW 000                       N    
RDG02038700WATRL000000004K00000000000000652007712222014080049N000000000000N26       000190400K 10000000010000000649           
CUS0203870000102161036005         WARD SR, FRANK      1812 N PAYSON ST                        000N        CARE OF             
MTR02038700001000000000000000RA              74690755    005800580000005800000350000003NN  NNW 000                       N    
RDG02038700WATRL000000004K00000000000000205008112222014080302N000000000000N26       000440400K 10000000010000000168           
CUS0203870000102161037003         A & M SERVICES, LLC 1810 N PAYSON ST                        000N        CARE OF             
MTR02038700001000000000000000RA              40321965    005800590000005900000520000003NN  NNW 000   VACANT PROPERTY     N    
RDG02038700WATRL000000004K00000000000001242002412312014133518N000000000000U26       000020400K 10000000010000001242           
CUS0203870000102161038001         CACERES, ALFONSO    1808 N PAYSON ST                        000N        CARE OF             
MTR02038700001000000000000000RA              10014597    005800600000006000000570000003NN  NNW 000                       N    
RDG02038700WATRL000000004K00000000000000152008212222014080327N000000000010N26       000250400K 10000000010000000142           
CUS0203870000102161039009         HARRIS, WILLIAM H.  1806 N PAYSON ST                        000N        CARE OF             
MTR02038700001000000000000000RA              39583063    005800610000006100000520000003NN  NNW 000   VACANT PROPERTY     N    
RDG02038700WATRL000000004K00000000000000032002512312014133520N000000000000U26       000020400K 10000000010000000032           
CUS0203870000102161040007         BENNETT, TRACY YVETT1804 N PAYSON ST                        000N        CARE OF             
MTR02038700001000000000000000RA              48592143    005800620000006200000520000003NN  NNW 000                       N    
RDG02038700WATRL000000004K00000000000001054002612312014133524N000000000000U26       000040400K 10000000010000001054           
CUS0203870000102161041005         UNIVERSAL CONFERENCE1802 N PAYSON ST                        000N        CARE OF             
MTR02038700001000000000000000RA              26017497    005800630000006300000520000003NN  NNW 000   VACANT PROPERTY     N    
RDG02038700WATRL000000004K00000000000000992002712312014133526N000000000000U26       000020400K 10000000010000000992           
CUS0203870000102161042003         UNIVERSAL CONFERENCE1800 N PAYSON ST                        000N        CARE OF             
MTR02038700001000000000000000RA              41089340    007500640000006400000520000003NN  NNW 000   VACANT PROPERTY     N    
RDG02038700WATRL000000004K00000000000000244002812312014133534N000000000000U26       000080400K 10000000010000000244           
CUS0203870000102161043001         JOSEPH, BENEDICT    2000 WESTWOOD AVE                       000N        CARE OF             
MTR02038700001000000000000000RA              01097738    005800650000006500000610000003NN  NNW 000   VACANT PROPERTY     N    
RDG02038700WATRL000000004K00000000000000086002912312014133600N000000000001U26       000260400K 10000000010000000086           
CUS0203870000102161044009         HELEN WILLOUGHBY    2002 WESTWOOD AVE                       000N        CARE OF             
MTR02038700001000000000000000RA              32900709    005800660000006600000520000003NN  NNW 000                       N    
RDG02038700WATRL000000004K00000000000004574010712222014083826N000100000010N26       003980400K 10000000010000004574           
CUS0203870000102161045006         BJR ASSOCIATES, INC 2004 WESTWOOD AVE                       000N        CARE OF             
MTR02038700001000000000000000RA              32901953    005800670000006700000520000003NN  NNW 000                       N    
RDG02038700WATRL000000004K00000000000004079010812222014083836N000000000000N26       000100400K 10000000010000004050           
CUS0203870000102161046004         FEDERAL NATL MRTG AS2006 WESTWOOD AVE                       000N        CARE OF             
MTR02038700001000000000000000RA              14927013    005800680000006800000310000003NN  NNW 000   VACANT PROPERTY     N    
RDG02038700WATRL000000004K00000000000000396003012312014133653N000000000000U26       000530400K 10000000010000000396           
CUS0203870000102161047002         ANNA KIRKLAND       2008 WESTWOOD AVE                       000N        CARE OF             
MTR02038700001000000000000000RA              39924997    005800690000006900000520000003NN  NNW 000   VACANT PROPERTY     N    
RDG02038700WATRL000000004K00000000000001648003112312014133703N000000000000U26       000100400K 10000000010000001648           
CUS0203870000102161048000         XCOTT, EVETTE G     2010 WESTWOOD AVE                       000N        CARE OF             
MTR02038700001000000000000000RA              27266427    005800700000007000000520000003NN  NNW 000   VACANT PROPERTY     N    
RDG02038700WATRL000000004K00000000000001469003212312014134207N000000000000U26       003040400K 10000000010000001469           
CUS0203870000102161049008         JONATHAN WADE SR.   2012 WESTWOOD AVE                       000N        CARE OF             
MTR02038700001000000000000000RA              40781188    005800710000007100000520000003NN  NNW 000                       N    
RDG02038700WATRL000000004K00000000000000855003312312014134211N000000000000U26       000040400K 10000000010000000855           
CUS0203870000102161050006         ELAINE I NELSON     2014 WESTWOOD AVE                       000N        CARE OF             
MTR02038700001000000000000000RA              27818982    005800720000007200000520000003NN  NNW 000                       N    
RDG02038700WATRL000000004K00000000000002662011012222014083924N000000000000N26       000220400K 10000000010000002646           
CUS0203870000102161051004         BOYD EDNA M         2016 WESTWOOD AVE                       000N        CARE OF             
MTR02038700001000000000000000RA              74688707    005800730000007300000350000003NN  NNW 000                       N    
RDG02038700WATRL000000004K00000000000000036011112222014083950N000300000010N26       000260400K 10000000010000000028           
CUS0203870000102161052002         S S WILLIAMS LLC    2018 WESTWOOD AVE                       000N        CARE OF             
MTR02038700001000000000000000RA              39584050    005800740000007400000520000003NN  NNW 000                       N    
RDG02038700WATRL000000004K00000000000000953011212222014084008N000000000000N26       000180400K 10000000010000000930           
CUS0203870000102161053000         BRAVO PROPERTIES, LL2020 WESTWOOD AVE                       000N        CARE OF             
MTR02038700001000000000000000RA              14930802    005800750000007500000310000003NN  NNW 000                       N    
RDG02038700WATRL000000004K00000000000000476011312222014084028N000000000000N26       000200400K 10000000010000000452           
CUS0203870000102161054008         RM-WILLIAMS REAL EST2019 WESTWOOD AVE                       000N        CARE OF             
MTR02038700001000000000000000RA              38985602    005800760000007600000520000003NN  NNW 000                       N    
RDG02038700WATRL000000004K00000000000003323011412222014084051N000000000000N26       000230400K 10000000010000003288           
CUS0203870000102161055005         PADUA, SHARON       2017 WESTWOOD AVE                       000N        CARE OF             
MTR02038700001000000000000000RA              99389418    005800770000007700000570000003NN  NNW 000                       N    
RDG02038700WATRL000000004K00000000000001262011512222014084105N000000000000N26       000140400K 10000000010000001246           
CUS0203870000102161056003         DAVID L BOWEN       2015 WESTWOOD AVE                       000N        CARE OF             
MTR02038700001000000000000000RA              48582738    005800780000007800000520000003NN  NNW 000                       N    
RDG02038700WATRL000000004K00000000000000972011612222014084123N000000000000N26       000180400K 10000000010000000962           
CUS0203870000102161057001         RPS BALTIMORE LLC   2013 WESTWOOD AVE                       000N        CARE OF             
MTR02038700001000000000000000RA              99288564    005800790000007900000570000003NN  NNW 000   VACANT PROPERTY     N    
RDG02038700WATRL000000004K00000000000000265003412312014134216N000000000000U26       000050400K 10000000010000000265           
CUS0203870000102161058009         DOMINION PROPERTIES,2011 WESTWOOD AVE                       000N        CARE OF             
MTR02038700001000000000000000RA              27827559    005800800000008000000520000003NN  NNW 000   VACANT PROPERTY     N    
RDG02038700WATRL000000004K00000000000001477003512312014134258N000000000000U26       000420400K 10000000010000001477           
CUS0203870000102161059007         HARDIN, PAMELA D    2009 WESTWOOD AVE                       000N        CARE OF             
MTR02038700001000000000000000RA              44002564    005800810000008100000520000003NN  NNW 000                       N    
RDG02038700WATRL000000004K00000000000000795003612312014134310N000000000000U26       000120400K 10000000010000000795           
CUS0203870000102161060005         SMITH, DWIGHT       2007 WESTWOOD AVE                       000N        CARE OF             
MTR02038700001000000000000000RA              76348777    005800820000008200000350000003NN  NNW 000                       N    
RDG02038700WATRL000000004K00000000000000065011712222014084154N000000000000N26       000310400K 10000000010000000035           
CUS0203870000102161061003         DENNIS, RICHARD     2005 WESTWOOD AVE                       000N        CARE OF             
MTR02038700001000000000000000RA              44002569    005800830000008300000520000003NN  NNW 000                       N    
RDG02038700WATRL000000004K00000000000002392011812222014084216N000000000000N26       000220400K 10000000010000002375           
CUS0203870000102161062001         MITCHELL, VERONICA  2003 WESTWOOD AVE                       000N        CARE OF             
MTR02038700001000000000000000RA              14925732    005800840000008400000310000003NN  NNW 000                       N    
RDG02038700WATRL000000004K00000000000000477011912222014084228N000000000000N26       000120400K 10000000010000000462           
CUS0203870000102161063009         PELZER, JOANNE      2001 WESTWOOD AVE                       000N        CARE OF             
MTR02038700001000000000000000RA              48592052    005800850000008500000520000003NN  NNW 000                       N    
RDG02038700WATRL000000004K00000000000001489003712312014134314N000000000000U26       000040400K 10000000010000001489           
CUS0203870000102161064007         WYCHE, MERILLYN JOYC1738 N PAYSON ST                        000N        CARE OF             
MTR02038700001000000000000000RA              24220954    005800860000008600000520000003NN  NNW 000                       N    
RDG02038700WATRL000000004K00000000000004158000712222014073622N000000000000N26       000400400K 10000000010000004146           
CUS0203870000102161065004         1736 N. PAYSON STREE1736 N PAYSON ST                        000N        CARE OF             
MTR02038700001000000000000000RA              52287293    005800870000008700000520000003NN  NNW 000                       N    
RDG02038700WATRL000000004K00000000000002607000812222014073631N000000000000N26       000090400K 10000000010000002564           
CUS0203870000102161066002         HENDERSON, GLORIA   1734 N PAYSON ST                        000N        CARE OF             
MTR02038700001000000000000000RA              24221226    005800880000008800000520000003NN  NNW 000                       N    
RDG02038700WATRL000000004K00000000000002380000912222014073652N000000000000N26       000210400K 10000000010000002369           
CUS0203870000102161067000         PRESTON, DELORES L  1732 N PAYSON ST                        000N        CARE OF             
MTR02038700001000000000000000RA              24221230    005800890000008900000520000003NN  NNW 000                       N    
RDG02038700WATRL000000004K00000000000001851001012222014073710N000000000000N26       000180400K 10000000010000001846           
CUS0203870000102161068008         WASHINGTON SR., EUGE1730 N PAYSON ST                        000N        CARE OF             
MTR02038700001000000000000000RA              40321943    005800900000009000000520000003NN  NNW 000                       N    
RDG02038700WATRL000000004K00000000000003109001112222014073723N000000000000N26       000130400K 10000000010000003090           
CUS0203870000102161069006         ISMAIL, IBRAHIM     1728 N PAYSON ST                        000N        CARE OF             
MTR02038700001000000000000000RA              40781237    005800910000009100000520000003NN  NNW 000                       N    
RDG02038700WATRL000000004K00000000000000598001212222014073737N000000000000N26       000140400K 10000000010000000592           
CUS0203870000102161070004         PRESS, JOSEPH L     1726 N PAYSON ST                        000N        CARE OF             
MTR02038700001000000000000000RA              52768834    005800920000009200000520000003NN  NNW 000                       N    
RDG02038700WATRL000000004K00000000000000000001300000000000000 000000000000U         000000400  10000000010000000346           
CUS0203870000102161071002         METROPOLIS PROPERTIE1724 N PAYSON ST                        000N        CARE OF             
MTR02038700001000000000000000RA              27818245    005800930000009300000520000003NN  NNW 000                       N    
RDG02038700WATRL000000004K00000000000003540001412222014073800N000000000000N26       000110400K 10000000010000003533           
CUS0203870000102161072000         LANDON, JERRELL     1722 N PAYSON ST                        000N        CARE OF             
MTR02038700001000000000000000RA              10019225    005800940000009400000570000003NN  NNW 000                       N    
RDG02038700WATRL000000004K00000000000000168001512222014073810N000000000000N26       000100400K 10000000010000000154           
CUS0203870000102161073008         FRANK CHAPMAN JR    1720 N PAYSON ST                        000N        CARE OF             
MTR02038700001000000000000000RA              00135594    005800950000009500000570000003NN  NNW 000                       N    
RDG02038700WATRL000000004K00000000000002228001612222014073823N000000000000N26       000130400K 10000000010000002201           
CUS0203870000102161074006         TAYLOR, HELENA      1718 N PAYSON ST                        000N        CARE OF             
MTR02038700001000000000000000RA              00135591    005800960000009600000570000003NN  NNW 000                       N    
RDG02038700WATRL000000004K00000000000001340001712222014073837N000000000000N26       000140400K 10000000010000001320           
CUS0203870000102161075003         ANGELA E RICE       1716 N PAYSON ST                        000N        CARE OF             
MTR02038700001000000000000000RA              40321944    005800970000009700000520000003NN  NNW 000                       N    
RDG02038700WATRL000000004K00000000000001866001812222014073854N000000000000N26       000170400K 10000000010000001857           
CUS0203870000102161076001         EMILY M B BRYANT    1714 N PAYSON ST                        000N        CARE OF             
MTR02038700001000000000000000RA              00135593    005800980000009800000570000003NN  NNW 000   VACANT PROPERTY     N    
RDG02038700WATRL000000004K00000000000000030003812312014134339N000000000000U26       000250400K 10000000010000000030           
CUS0203870000102161077009         PROCTOR, NIGEL      1712 N PAYSON ST                        000N        CARE OF             
MTR02038700001000000000000000RA              00135596    005800990000009900000570000003NN  NNW 000                       N    
RDG02038700WATRL000000004K00000000000000468002712222014074149N000000000010N26       000480400K 10000000010000000456           
CUS0203870000102161078007         PROCTOR, NIGEL      1710 N PAYSON ST                        000N        CARE OF             
MTR02038700001000000000000000RA              24221137    005801000000010000000520000003NN  NNW 000                       N    
RDG02038700WATRL000000004K00000000000002442002812222014074204N000000000010N26       000150400K 10000000010000002427           
CUS0203870000102161079005         PARKER, ANTHONY     1708 N PAYSON ST                        000N        CARE OF             
MTR02038700001000000000000000RA              40781234    005801010000010100000520000003NN  NNW 000                       N    
RDG02038700WATRL000000004K00000000000000932002912222014074223N000100000020N26       000190400K 10000000010000000932           
CUS0203870000102161080003         MANOR CAPITAL PROPER1706 N PAYSON ST                        000N        CARE OF             
MTR02038700001000000000000000RA              40781233    005801020000010200000520000003NN  NNW 000                       N    
RDG02038700WATRL000000004K00000000000001684003012222014074240N000300000030N26       000170400K 10000000010000001663           
CUS0203870000102161081001         BOULWARE, LEX       1704 N PAYSON ST                        000N        CARE OF             
MTR02038700001000000000000000RA              45380544    005801030000010300000520000003NN  NNW 000                       N    
RDG02038700WATRL000000004K00000000000001802003112222014074250N000000000000N26       000100400K 10000000010000001787           
CUS0203870000102161082009         COOKE, CLEVELAND A. 1702 N PAYSON ST                        000N        CARE OF             
MTR02038700001000000000000000RA              39283980    005801040000010400000520000003NN  NNW 000                       N    
RDG02038700WATRL000000004K00000000000002003003212222014074300N000000000000N26       000100400K 10000000010000001980           
CUS0203870000102161083007         DOUGHTY SR, CHARLES 1700 N PAYSON ST                        000N        CARE OF             
MTR02038700001000000000000000RA              40248799    007501050000010500000520000003NN  NNW 000                       N    
RDG02038700WATRL000000004K00000000000001471003312222014074316N000000000000N26       000160400K 10000000010000001465           
CUS0203870000102161084005         MENRIS GREEN        2000 PRESBURY ST                        000N        CARE OF             
MTR02038700001000000000000000RA              76348778    005801060000010600000350000003NN  NNW 000                       N    
RDG02038700WATRL000000004K00000000000000010003412222014074356N000400000010N26       000400400K 10000000010000000007           
CUS0203870000102161086000         DAVID A HAMILTON JR 2004 PRESBURY ST                        000N        CARE OF             
MTR02038700001000000000000000RA              46879890    005801070000010700000520000003NN  NNW 000                       N    
RDG02038700WATRL000000004K00000000000001856003512222014074424N000000000000N26       000280400K 10000000010000001837           
CUS0203870000102161087008         ROBERT, CURTIS K.   2006 PRESBURY ST                        000N        CARE OF             
MTR02038700001000000000000000RA              52288361    005801080000010800000520000003NN  NNW 000                       N    
RDG02038700WATRL000000004K00000000000001570003612222014074434N000000000000N26       000100400K 10000000010000001546           
CUS0203870000102161088006         JEFFREY, HARRY L.   2008 PRESBURY ST                        000N        CARE OF             
MTR02038700001000000000000000RA              41076914    005801090000010900000520000003NN  NNW 000   VACANT PROPERTY     N    
RDG02038700WATRL000000004K00000000000001722003912312014134346N000000000000U26       000070400K 10000000010000001722           
CUS0203870000102161089004         BADRA PROPERTIES, LL2010 PRESBURY ST                        000N        CARE OF             
MTR02038700001000000000000000RA              27833799    005801100000011000000520000003NN  NNW 000                       N    
RDG02038700WATRL000000004K00000000000003063003712222014074459N000000000000N26       000250400K 10000000010000003043           
CUS0203870000102161090002         J & J HOUSING,LLC   2012 PRESBURY ST                        000N        CARE OF             
MTR02038700001000000000000000RA              00135601    005801110000011100000570000003NN  NNW 000                       N    
RDG02038700WATRL000000004K00000000000000837003812222014074509N000000000000N26       000100400K 10000000010000000821           
CUS0203870000102161091000         LOUIS M EVANS       2014 PRESBURY ST                        000N        CARE OF             
MTR02038700001000000000000000RA              38984607    005801120000011200000520000003NN  NNW 000                       N    
RDG02038700WATRL000000004K00000000000001530003912222014074521N000000000000N26       000120400K 10000000010000001499           
CUS0203870000102161092008         WILLIAMS, DARNELL L 2016 PRESBURY ST                        000N        CARE OF             
MTR02038700001000000000000000RA              99999999    005801130000011300000620000003NN  NNW 000                       N    
RDG02038700WATRL000000004K00000000000000210004012312014134430N000000000000U26       000440400K 10000000010000000210           
CUS0203870000102161093006         2018 PRESBURY ST, LL2018 PRESBURY ST                        000N        CARE OF             
MTR02038700001000000000000000RA              10024785    005801140000011400000570000003NN  NNW 000   VACANT PROPERTY     N    
RDG02038700WATRL000000004K00000000000000000004112312014134433N000000000000U26       000030400K 10000000010000000000           
CUS0203870000102161094004         JUDSON B WOOD       2001-03 PRESBURY ST                     000N        CARE OF             
MTR02038700001000000000000000RA              00165943    000101150000011500000570000003NN  NNW 000                       N    
RDG02038700WATRL000000004K00000000000001437004012222014074532N000400000010N26       000110400K 10000000010000001403           
CUS0203870000102161095001         ODOM III, JAMES E   2013 BAKER ST                           000N        CARE OF             
MTR02038700001000000000000000RA              01094331    005801160000011600000610000003NN  NNW 000                       N    
RDG02038700WATRL000000004K00000000000000472012112222014084516N000000000000N26       001660400K 10000000010000000456           
CUS0203870000102161096009         HELEN G BROOKS      2011 BAKER ST                           000N        CARE OF             
MTR02038700001000000000000000RA              01095956    005801170000011700000610000003NN  NNW 000                       N    
RDG02038700WATRL000000004K00000000000000345012212222014084518N000000000000N26       000020400K 10000000010000000341           
CUS0203870000102161097007         RICHARDSON JR., MORG2009 BAKER ST                           000N        CARE OF             
MTR02038700001000000000000000RA              01090566    005801180000011800000610000003NN  NNW 000                       N    
RDG02038700WATRL000000004K00000000000000186004212312014134518N000000000000U26       000450400K 10000000010000000186           
CUS0203870000102161098005         HANDY, NIKISHA      2007 BAKER ST                           000N        CARE OF             
MTR02038700001000000000000000RA              01089913    005801190000011900000610000003NN  NNW 000                       N    
RDG02038700WATRL000000004K00000000000000736012412222014084620N000000000000N26       000040400K 10000000010000000716           
CUS0203870000102161099003         HICKS, ELSIE        2005 BAKER ST                           000N        CARE OF             
MTR02038700001000000000000000RA              52288433    005801200000012000000520000003NN  NNW 000                       N    
RDG02038700WATRL000000004K00000000000002009012512222014084647N000000000000N26       000270400K 10000000010000001997           
CUS0203870000102161100009         A PLUS REALTY, LLC  2003 BAKER ST                           000N        CARE OF             
MTR02038700001000000000000000RA              99187613    005801210000012100000570000003NN  NNW 000                       N    
RDG02038700WATRL000000004K00000000000000557012612222014084649N000000000000N26       000020400K 10000000010000000540           
CUS0203870000102161101007         RUSSELL, OLIVE      2001 BAKER ST                           000N        CARE OF             
MTR02038700001000000000000000RA              52288843    005801220000012200000520000003NN  NNW 000                       N    
RDG02038700WATRL000000004K00000000000001396012712222014084711N000000000000N26       000220400K 10000000010000001371           
CUS0203870000102161102005         WILLIAM JACKSON     1544 N PAYSON ST                        000N        CARE OF             
MTR02038700001000000000000000RA              10011755    005801230000012300000570000003NN  NNW 000                       N    
RDG02038700WATRL000000004K00000000000000151015512222014085955N000000000000N26       000650400K 10000000010000000143           
CUS0203870000102161103003         HAYES, BILLY        1542 N PAYSON ST                        000N        CARE OF             
MTR02038700001000000000000000RA              14927155    005801240000012400000310000003NN  NNW 000                       N    
RDG02038700WATRL000000004K00000000000000403015612222014090034N000000000000N26       000390400K 10000000010000000377           
CUS0203870000102161104001         GRANT, BERNARD      1540 N PAYSON ST                        000N        CARE OF             
MTR02038700001000000000000000RA              24220258    005801250000012500000520000003NN  NNW 000                       N    
RDG02038700WATRL000000004K00000000000001702015712222014090044N000000000000N26       000100400K 10000000010000001697           
CUS0203870000102161105008         BALTRENTALS DOT COM 1538 N PAYSON ST                        000N        CARE OF             
MTR02038700001000000000000000RA              14921368    005801260000012600000310000003NN  NNW 000                       N    
RDG02038700WATRL000000004K00000000000000554012812222014084941N000000000000N26       001500400K 10000000010000000536           
CUS0203870000102161106006         FRANCES R BROWN     1536 N PAYSON ST                        000N        CARE OF             
MTR02038700001000000000000000RA              24220282    005801270000012700000520000003NN  NNW 000                       N    
RDG02038700WATRL000000004K00000000000000928012912222014084946N000100000010N26       000050400K 10000000010000000928           
CUS0203870000102161107004         IKE, ANTHONY        1534 N PAYSON ST                        000N        CARE OF             
MTR02038700001000000000000000RA              01081767    005801280000012800000610000003NN  NNW 000                       N    
RDG02038700WATRL000000004K00000000000000793013012222014085009N000400000010N26       000230400K 10000000010000000792           
CUS0203870000102161108002         AMES, VELMA         1532 N PAYSON ST                        000N        CARE OF             
MTR02038700001000000000000000RA              99999999    005801290000012900000310000003NN  NNW 000                       N    
RDG02038700WATRL000000004K00000000000000671013112222014085011N000000000000N26       000020400K 10000000010000000645           
CUS0203870000102161109000         GANTT, GIN-G        1530 N PAYSON ST                        000N        CARE OF             
MTR02038700001000000000000000RA              35098552    005801300000013000000520000003NN  NNW 000                       N    
RDG02038700WATRL000000004K00000000000000800013212222014085045N000000000000N26       000340400K 10000000010000000791           
CUS0203870000102161110008         SHIELDS, TANGY B    1528 N PAYSON ST                        000N        CARE OF             
MTR02038700001000000000000000RA              35097980    005801310000013100000520000003NN  NNW 000                       N    
RDG02038700WATRL000000004K00000000000001637013312222014085047N000000000000N26       000020400K 10000000010000001629           
CUS0203870000102161111006         IKE, ANTHONY        1526 N PAYSON ST                        000N        CARE OF             
MTR02038700001000000000000000RA              75423980    005801320000013200000350000003NN  NNW 000                       N    
RDG02038700WATRL000000004K00000000000000433013412222014085135N000100000010N26       000480400K 10000000010000000433           
CUS0203870000102161112004         DEVANT, LLC         1524 N PAYSON ST                        000N        CARE OF             
MTR02038700001000000000000000RA              76346207    005801330000013300000350000003NN  NNW 000                       N    
RDG02038700WATRL000000004K00000000000000108013512222014085138N000000000000N26       000030400K 10000000010000000071           
CUS0203870000102161113002         MCFADDEN, WARREN D. 1522 N PAYSON ST                        000N        CARE OF             
MTR02038700001000000000000000RA              00135390    005801340000013400000570000003NN  NNW 000                       N    
RDG02038700WATRL000000004K00000000000001144013612222014085200N000000000000N26       000220400K 10000000010000001128           
CUS0203870000102161114000         COLEMAN, MICHAEL    1520 N PAYSON ST                        000N        CARE OF             
MTR02038700001000000000000000RA              10009921    005801350000013500000570000003NN  NNW 000                       N    
RDG02038700WATRL000000004K00000000000000231004312312014134522N000000000000U26       000040400K 10000000010000000231           
CUS0203870000102161115007         POWELL, CHENEE L    1518 N PAYSON ST                        000N        CARE OF             
MTR02038700001000000000000000RA              24220261    005801360000013600000520000003NN  NNW 000                       N    
RDG02038700WATRL000000004K00000000000006448010012222014083102N000000000000N26       000310400K 10000000010000006423           
CUS0203870000102161116005         MILDRED A RUFFIN    1516 N PAYSON ST                        000N        CARE OF             
MTR02038700001000000000000000RA              44092963    005801370000013700000520000003NN  NNW 000                       N    
RDG02038700WATRL000000004K00000000000001424010112222014083104N000000000000N26       000020400K 10000000010000001412           
CUS0203870000102161117003         GEORGE L GATEWOOD JR1514 N PAYSON ST                        000N        CARE OF             
MTR02038700001000000000000000RA              24220126    005801380000013800000520000003NN  NNW 000                       N    
RDG02038700WATRL000000004K00000000000002973010212222014083120N000000000000N26       000160400K 10000000010000002964           
CUS0203870000102161118001         JOHNSON, DARLENE M  1512 N PAYSON ST                        000N        CARE OF             
MTR02038700001000000000000000RA              50787946    005801390000013900000520000003NN  NNW 000                       N    
RDG02038700WATRL000000004K00000000000001590010312222014083122N000000000000N26       000020400K 10000000010000001585           
CUS0203870000102161119009         KIANDOLI, LUANA     1510 N PAYSON ST                        000N        CARE OF             
MTR02038700001000000000000000RA              14902244    005801400000014000000310000003NN  NNW 000                       N    
RDG02038700WATRL000000004K00000000000000585010412222014083144N000000000000N26       000220400K 10000000010000000580           
CUS0203870000102161120007         ELLIS E HARRIS JR.  1508 N PAYSON ST                        000N        CARE OF             
MTR02038700001000000000000000RA              14902245    005801410000014100000310000003NN  NNW 000                       N    
RDG02038700WATRL000000004K00000000000000699010512222014083147N000000000000N26       000030400K 10000000010000000692           
CUS0203870000102161121005         DOMINION RENTALS, LL1506 N PAYSON ST                        000N        CARE OF             
MTR02038700001000000000000000RA              40047785    005801420000014200000520000003NN  NNW 000                       N    
RDG02038700WATRL000000004K00000000000002002004412312014134551N000000000000U26       000290400K 10000000010000002002           
CUS0203870000102161122003         WILKIN, JONATHAN    2000 PRESSTMAN ST                       000N        CARE OF             
MTR02038700001000000000000000RA              01089998    005801430000014300000610000003NN  NNW 000                       N    
RDG02038700WATRL000000004K00000000000001168008612222014081317N000000000000N26       004890400K 10000000010000001151           
CUS0203870000102161123001         WILKIN, JONATHAN    2002 PRESSTMAN ST                       000N        CARE OF             
MTR02038700001000000000000000RA              40322723    005801440000014400000520000003NN  NNW 000                       N    
RDG02038700WATRL000000004K00000000000002434008712222014081319N000000000000N26       000020400K 10000000010000002415           
CUS0203870000102161124009         O MOLOCK            2004 PRESSTMAN ST                       000N        CARE OF             
MTR02038700001000000000000000RA              01091152    005801450000014500000610000003NN  NNW 000                       N    
RDG02038700WATRL000000004K00000000000000634008812222014081341N000000000000N26       000220400K 10000000010000000623           
CUS0203870000102161125006         MCKENZIE, LAURENITA 2006 PRESSTMAN ST                       000N        CARE OF             
MTR02038700001000000000000000RA              01091150    005801460000014600000610000003NN  NNW 000                       N    
RDG02038700WATRL000000004K00000000000000681008912222014081343N000000000000N26       000020400K 10000000010000000664           
CUS0203870000102161126004         6340 FREDERICK, LLC 2008 PRESSTMAN ST                       000N        CARE OF             
MTR02038700001000000000000000RA              00135598    005801470000014700000570000003NN  NNW 000                       N    
RDG02038700WATRL000000004K00000000000001034009012222014081359N000000000000N26       000160400K 10000000010000001006           
CUS0203870000102161127002         ANDERSON, BRIAN K   2010 PRESSTMAN ST                       000N        CARE OF             
MTR02038700001000000000000000RA              46889658    005801480000014800000520000003NN  NNW 000                       N    
RDG02038700WATRL000000004K00000000000000701009112222014081423N000000000000N26       000240400K 10000000010000000697           
CUS0203870000102161128000         BEADLES, FEDORIA L  2012 PRESSTMAN ST                       000N        CARE OF             
MTR02038700001000000000000000RA              01090563    005801490000014900000610000003NN  NNW 000                       N    
RDG02038700WATRL000000004K00000000000001013009212222014081448N000000000000N26       000250400K 10000000010000000987           
CUS0203870000102161129008         DP WEST 120, LLC    1501 N PAYSON ST                        000N        CARE OF             
MTR02038700001000000000000000RA              46888737    005801500000015000000520000003NN  NNW 000                       N    
RDG02038700WATRL000000004K00000000000001073009312222014082835N000000000000N26       008270400K 10000000010000001060           
CUS0203870000102161130006         WALKER, SHERRI      1503 N PAYSON ST                        000N        CARE OF             
MTR02038700001000000000000000RA              26003274    005801510000015100000520000003NN  NNW 000                       N    
RDG02038700WATRL000000004K00000000000002761009412222014082839N000300000010N26       000040400K 10000000010000002734           
CUS0203870000102161131004         BELLAMY JR., WILLIE 1505 N PAYSON ST                        000N        CARE OF             
MTR02038700001000000000000000RA              27817486    005801520000015200000520000003NN  NNW 000                       N    
RDG02038700WATRL000000004K00000000000000000000000000000000000 000000000000U         000000400  10000000010000001635           
CUS0203870000102161132002         MARSH, WANDA D      1507 N PAYSON ST                        000N        CARE OF             
MTR02038700001000000000000000RA              27833795    005801530000015300000520000003NN  NNW 000                       N    
RDG02038700WATRL000000004K00000000000002678009512222014082856N000000000000N26       000170400K 10000000010000002667           
CUS0203870000102161133000         CYNTHIA L WITHERS   1509 N PAYSON ST                        000N        CARE OF             
MTR02038700001000000000000000RA              26010444    005801540000015400000520000003NN  NNW 000                       N    
RDG02038700WATRL000000004K00000000000001820004512312014134602N000000000000U26       000110400K 10000000010000001820           
CUS0203870000102161134008         DAVIS, DOREATHA A   1511 N PAYSON ST                        000N        CARE OF             
MTR02038700001000000000000000RA              10012666    005801550000015500000570000003NN  NNW 000                       N    
RDG02038700WATRL000000004K00000000000000124009612222014082922N000300000010N26       000260400K 10000000010000000114           
CUS0203870000102161135005         WASHINGTON, AMANDA R1513 N PAYSON ST                        000N        CARE OF             
MTR02038700001000000000000000RA              39923027    005801560000015600000520000003NN  NNW 000                       N    
RDG02038700WATRL000000004K00000000000001978004612312014134619N000000000000U26       000170400K 10000000010000001978           
CUS0203870000102161136003         MARSHALL, WILLIAM AU1515 N PAYSON ST                        000N        CARE OF             
MTR02038700001000000000000000RA              39923029    005801570000015700000520000003NN  NNW 000                       N    
RDG02038700WATRL000000004K00000000000000972009712222014083003N000000000010N26       000410400K 10000000010000000969           
CUS0203870000102161137001         NEW LOGIC PROPERTIES1517 N PAYSON ST                        000N        CARE OF             
MTR02038700001000000000000000RA              01114860    005801580000015800000610000003NN  NNW 000                       N    
RDG02038700WATRL000000004K00000000000000648004712312014134924N000000000000U26       001850400K 10000000010000000648           
CUS0203870000102161138009         BROOKS, VAN DOUGLAS 1519 N PAYSON ST                        000N        CARE OF             
MTR02038700001000000000000000RA              75424121    005801590000015900000350000003NN  NNW 000                       N    
RDG02038700WATRL000000004K00000000000000064009912222014083031N000000000010N26       000050400K 10000000010000000057           
CUS0203870000102161139007         BERNITA E PAIGE     1521 N PAYSON ST                        000N        CARE OF             
MTR02038700001000000000000000RA              40047781    005801600000016000000520000003NN  NNW 000                       N    
RDG02038700WATRL000000004K00000000000003149013812222014085257N000000000000N26       000560400K 10000000010000003141           
CUS0203870000102161140005         HASKINS, CHARLES S  1523 N PAYSON ST                        000N        CARE OF             
MTR02038700001000000000000000RA              99290530    005801610000016100000570000003NN  NNW 000                       N    
RDG02038700WATRL000000004K00000000000000767013912222014085301N000000000010N26       000040400K 10000000010000000765           
CUS0203870000102161141003         GREENE, KENNETH T.  1525 N PAYSON ST                        000N        CARE OF             
MTR02038700001000000000000000RA              10000338    005801620000016200000570000003NN  NNW 000                       N    
RDG02038700WATRL000000004K00000000000000020004812312014134933N000000000000U26       000090400K 10000000010000000020           
CUS0203870000102161142001         EBRON, WANDA L.     1527 N PAYSON ST                        000N        CARE OF             
MTR02038700001000000000000000RA              30523791    005801630000016300000520000003NN  NNW 000                       N    
RDG02038700WATRL000000004K00000000000002431014112222014085337N000100000010N26       000060400K 10000000010000002431           
CUS0203870000102161143009         CAMPBELL, DIANNA    1529 N PAYSON ST                        000N        CARE OF             
MTR02038700001000000000000000RA              10005262    005801640000016400000570000003NN  NNW 000                       N    
RDG02038700WATRL000000004K00000000000000683014212222014085355N000000000000N26       000180400K 10000000010000000658           
CUS0203870000102161144007         STAYHOME PROPERTIES,1531 N PAYSON ST                        000N        CARE OF             
MTR02038700001000000000000000RA              45380299    005801650000016500000520000003NN  NNW 000                       N    
RDG02038700WATRL000000004K00000000000001470014312222014085357N000000000000N26       000020400K 10000000010000001452           
CUS0203870000102161145004         JASON & TANIA WEINER1533 N PAYSON ST                        000N        CARE OF             
MTR02038700001000000000000000RA              44003414    005801660000016600000520000003NN  NNW 000                       N    
RDG02038700WATRL000000004K00000000000001291014412222014085417N000400000010N26       000200400K 10000000010000001279           
CUS0203870000102161146002         BRAXTON, HERMAN     1535 N PAYSON ST                        000N        CARE OF             
MTR02038700001000000000000000RA              35097833    005801670000016700000520000003NN  NNW 000                       N    
RDG02038700WATRL000000004K00000000000002423014512222014085432N000000000000N26       000150400K 10000000010000002413           
CUS0203870000102161147000         MORRIS, LATASHA R.. 1537 N PAYSON ST                        000N        CARE OF             
MTR02038700001000000000000000RA              48582324    005801680000016800000520000003NN  NNW 000                       N    
RDG02038700WATRL000000004K00000000000001703014612222014085505N000400000010N26       000330400K 10000000010000001692           
CUS0203870000102161148008         INEZ S MOORE ETAL   1539 N PAYSON ST                        000N        CARE OF             
MTR02038700001000000000000000RA              75617823    005801690000016900000350000000NN  NNW 000                       N    
RDG02038700WATRL000000004K00000000000000009014712222014085507N000000000000N26       000020400K 10000000010000000005           
CUS0203870000102161149006         VESPAR RODGERS      1541 N PAYSON ST                        000N        CARE OF             
MTR02038700001000000000000000RA              78020998    005801700000017000000350000003NY  NNW 000                       N    
MTM0203870078020998    AMI                                                                                                    
RDG02038700WATRL000000004K00000000000000000004912312014135343N000000000000U26       002500400K 10000000010000000000           
CUS0203870000102161150004         SCOTT, STEPHANIE    1543 N PAYSON ST                        000N        CARE OF             
MTR02038700001000000000000000RA              77889721    005801710000017100000350000003NY  NNW 000                       N    
MTM0203870077889721    AMI                                                                                                    
RDG02038700WATRL000000004K00000000000000000005012312014135344N000000000000U26       000010400K 10000000010000000000           
CUS0203870000102161151002         DOMINION TAX 2009, L1545 N PAYSON ST                        000N        CARE OF             
MTR02038700001000000000000000RA              10019223    005801720000017200000570000003NN  NNW 000                       N    
RDG02038700WATRL000000004K00000000000000314014812222014085613N000000000000N26       000660400K 10000000010000000276           
CUS0203870000102161152000         BERNARD A AMERNICK  1601 N PAYSON ST                        000N        CARE OF             
MTR02038700001000000000000000RA              11429933    005801730000017300000570000000NN  NNW 000                       N    
RDG02038700WATRL000000004K00000000000006380014912222014085711N000400000021N26       000170400K 10000000010000006379           
CUS0203870000102161153008         FLETCHER, HAZEL   (L1603 N PAYSON ST                        000N        CARE OF             
MTR02038700001000000000000000RA              35097849    005801740000017400000520000003NN  NNW 000                       N    
RDG02038700WATRL000000004K00000000000001757015012222014085727N000000000000N26       000160400K 10000000010000001755           
CUS0203870000102161154006         ROBINSON, LORRAINE  1605 N PAYSON ST                        000N        CARE OF             
MTR02038700001000000000000000RA              35097398    005801750000017500000520000003NN  NNW 000                       N    
RDG02038700WATRL000000004K00000000000001307015112222014085740N000000000000N26       000130400K 10000000010000001283           
CUS0203870000102161155003         TYLER JR, GREGORY V 1607 N PAYSON ST                        000N        CARE OF             
MTR02038700001000000000000000RA              99189073    005801760000017600000570000003NN  NNW 000                       N    
RDG02038700WATRL000000004K00000000000000766005112312014135346N000000000000U26       000020400K 10000000010000000766           
CUS0203870000102161156001         GRAY, MILDRED   (LIF1609 N PAYSON ST                        000N        CARE OF             
MTR02038700001000000000000000RA              99290462    005801770000017700000570000003NN  NNW 000   VACANT PROPERTY     N    
RDG02038700WATRL000000004K00000000000001095005212312014135348N000000000000U26       000020400K 10000000010000001095           
CUS0203870000102161157009         JOHNSON, MICHAEL E  1611 N PAYSON ST                        000N        CARE OF             
MTR02038700001000000000000000RA              24772139    005801780000017800000520000003NN  NNW 000                       N    
RDG02038700WATRL000000004K00000000000002097015312222014085840N000000000000N26       000350400K 10000000010000002086           
CUS0203870000102161158007         HARBOR PIER HOMES,LL1613 N PAYSON ST                        000N        CARE OF             
MTR02038700001000000000000000RA              32904980    005801790000017900000520000003NN  NNW 000   VACANT PROPERTY     N    
RDG02038700WATRL000000004K00000000000003694015412222014085850N000000000010N26       000100400K 10000000010000003690           
CUS0203870000102161159005         LEWIS BUTLER        1615 N PAYSON ST                        000N        CARE OF             
MTR02038700001000000000000000RA              50787001    005801800000018000000520000003NN  NNW 000                       N    
RDG02038700WATRL000000004K00000000000001514015812222014090536N000000000010N26       002920400K 10000000010000001505           
CUS0203870000102161160003         ALFREDA L BLAKE ETAL1617 N PAYSON ST                        000N        CARE OF             
MTR02038700001000000000000000RA              40047780    005801810000018100000520000003NN  NNW 000                       N    
RDG02038700WATRL000000004K00000000000001374015912222014090539N000000000000N26       000030400K 10000000010000001366           
CUS0203870000102161161001         BETHY VICTORIN      1619 N PAYSON ST                        000N        CARE OF             
MTR02038700001000000000000000RA              27818277    005801820000018200000520000003NN  NNW 000                       N    
RDG02038700WATRL000000004K00000000000003731016012222014090601N000400000020N26       000220400K 10000000010000003723           
CUS0203870000102161162009         JULIET & DOUGLAS WAL1621 N PAYSON ST                        000N        CARE OF             
MTR02038700001000000000000000RA              01091517    005801830000018300000610000003NN  NNW 000   VACANT PROPERTY     N    
RDG02038700WATRL000000004K00000000000000545005312312014135715N000000000000U26       002070400K 10000000010000000545           
CUS0203870000102161164005         WIDGEON SR., REGINAL1627 N PAYSON ST                        000N        CARE OF             
MTR02038700001000000000000000RA              44092919    005801840000018400000520000003NN  NNW 000   VACANT PROPERTY     N    
RDG02038700WATRL000000004K00000000000002806005412312014135718N000000000000U26       000030400K 10000000010000002806           
CUS0203870000102161165002         BROWN, FLOYD J      1629 N PAYSON ST                        000N        CARE OF             
MTR02038700001000000000000000RA              40047797    005801850000018500000520000003NN  NNW 000                       N    
RDG02038700WATRL000000004K00000000000003418016112222014090625N000000000010N26       000240400K 10000000010000003356           
CUS0203870000102161166000         RAYMOND BOYER & WF  1631 N PAYSON ST                        000N        CARE OF             
MTR02038700001000000000000000RA              40047804    005801860000018600000520000003NN  NNW 000                       N    
RDG02038700WATRL000000004K00000000000001857016212222014090640N000000000010N26       000150400K 10000000010000001855           
CUS0203870000102161167008         ARTIS, KEDERA C     1633 N PAYSON ST                        000N        CARE OF             
MTR02038700001000000000000000RA              33733990    005801870000018700000520000003NN  NNW 000                       N    
RDG02038700WATRL000000004K00000000000001402005512312014135720N000000000000U26       000020400K 10000000010000001402           
CUS0203870000102161168006         FANNIE E BUTLER     1635 N PAYSON ST                        000N        CARE OF             
MTR02038700001000000000000000RA              36696749    005801880000018800000520000003NN  NNW 000                       N    
RDG02038700WATRL000000004K00000000000001010005612312014135724N000000000000U26       000040400K 10000000010000001010           
CUS0203870000102161169004         BRANCH, QIANA       1637 N PAYSON ST                        000N        CARE OF             
MTR02038700001000000000000000RA              10021160    005801890000018900000570000003NN  NNW 000                       N    
RDG02038700WATRL000000004K00000000000001382016512222014090700N000000000010N26       000140400K 10000000010000001255           
CUS0203870000102161170002         JOHNSON, JOYCE V    1639 N PAYSON ST                        000N        CARE OF             
MTR02038700001000000000000000RA              10012682    005801900000019000000570000003NN  NNW 000                       N    
RDG02038700WATRL000000004K00000000000000066016612222014090713N000000000010N26       000130400K 10000000010000000061           
CUS0203870000102161171000         FARRELL, TREVOR R.  1641 N PAYSON ST                        000N        CARE OF             
MTR02038700001000000000000000RA              30526670    005801910000019100000520000003NN  NNW 000                       N    
RDG02038700WATRL000000004K00000000000002853005712312014140209N000000000000U26       002850400K 10000000010000002853           
CUS0203870000102161172008         MASON, ELIZABETH    1643 N PAYSON ST                        000N        CARE OF             
MTR02038700001000000000000000RA              10001558    005801920000019200000570000003NN  NNW 000                       N    
RDG02038700WATRL000000004K00000000000000272016812222014090728N000000000000N26       000100400K 10000000010000000265           
CUS0203870000102161173006         GERBOZY, STACY ANN  1645 N PAYSON ST                        000N        CARE OF             
MTR02038700001000000000000000RA              10012684    005801930000019300000570000003NN  NNW 000                       N    
RDG02038700WATRL000000004K00000000000000346016912222014090740N000000000000N26       000120400K 10000000010000000323           
CUS0203870000102161174004         DIXON, BRENDA M.    1647 N PAYSON ST                        000N        CARE OF             
MTR02038700001000000000000000RA              50787945    005801940000019400000520000003NN  NNW 000   VACANT PROPERTY     N    
RDG02038700WATRL000000004K00000000000001129005812312014140214N000000000000U26       000050400K 10000000010000001129           
CUS0203870000102161175001         TAYLOR MADE HOLDINGS1649 N PAYSON ST                        000N        CARE OF             
MTR02038700001000000000000000RA              40781251    005801950000019500000520000003NN  NNW 000                       N    
RDG02038700WATRL000000004K00000000000001213017012222014090751N000000000000N26       000110400K 10000000010000001180           
CUS0203870000102161176009         WILLIAM RANDALL 3RD 1651 N PAYSON ST                        000N        CARE OF             
MTR02038700001000000000000000RA              14926931    005801960000019600000310000003NN  NNW 000                       N    
RDG02038700WATRL000000004K00000000000000016005912312014140220N000000000000U26       000060400K 10000000010000000016           
CUS0203870000102161177007         DORSEY, SHAWN LAMONT1701 N PAYSON ST                        000N        CARE OF             
MTR02038700001000000000000000RA              00135592    005801970000019700000570000003NN  NNW 000                       N    
RDG02038700WATRL000000004K00000000000000598002612222014074101N000000000000N26       000090400K 10000000010000000586           
CUS0203870000102161178005         LITTLE, RUTH L      1703 N PAYSON ST                        000N        CARE OF             
MTR02038700001000000000000000RA              14914557    005801980000019800000310000003NN  NNW 000                       N    
RDG02038700WATRL000000004K00000000000000862002512222014074052N000000000000N26       000210400K 10000000010000000832           
CUS0203870000102161179003         ROWE, ESSIE         1705 N PAYSON ST                        000N        CARE OF             
MTR02038700001000000000000000RA              24772205    005801990000019900000520000003NN  NNW 000   VACANT PROPERTY     N    
RDG02038700WATRL000000004K00000000000001178006012312014140230N000000000000U26       000100400K 10000000010000001178           
CUS0203870000102161180001         RUSSELL, LATARSHA A 1707 N PAYSON ST                        000N        CARE OF             
MTR02038700001000000000000000RA              01099174    005802000000020000000610000003NN  NNW 000   VACANT PROPERTY     N    
RDG02038700WATRL000000004K00000000000000968006112312014140237N000000000000U26       000070400K 10000000010000000968           
CUS0203870000102161181009         AGNES D WATSON      1709 N PAYSON ST                        000N        CARE OF             
MTR02038700001000000000000000RA              00137378    005802010000020100000570000003NN  NNW 000                       N    
RDG02038700WATRL000000004K00000000000000384006212312014140246N000000000000U26       000090400K 10000000010000000384           
CUS0203870000102161182007         ELLA E RAVNELL      1711 N PAYSON ST                        000N        CARE OF             
MTR02038700001000000000000000RA              10011606    005802020000020200000570000003NN  NNW 000                       N    
RDG02038700WATRL000000004K00000000000000356002312222014074025N000000000010N26       000160400K 10000000010000000336           
CUS0203870000102161183005         VERNON L ROSS       1713 N PAYSON ST                        000N        CARE OF             
MTR02038700001000000000000000RA              14913680    005802030000020300000310000003NN  NNW 000   VACANT PROPERTY     N    
RDG02038700WATRL000000004K00000000000000000006312312014140255N000000000000U26       000090400K 10000000010000000000           
CUS0203870000102161184003         VERNON L ROSS       1715 N PAYSON ST                        000N        CARE OF             
MTR02038700001000000000000000RA              36687228    005802040000020400000520000003NN  NNW 000                       N    
RDG02038700WATRL000000004K00000000000001909002212222014074009N000000000000N26       000180400K 10000000010000001892           
CUS0203870000102161185000         HILL,JR, ERIC JAMES 1717 N PAYSON ST                        000N        CARE OF             
MTR02038700001000000000000000RA              42810764    005802050000020500000520000003NN  NNW 000                       N    
RDG02038700WATRL000000004K00000000000001886001912222014073930N000000000000N26       000360400K 10000000010000001869           
CUS0203870000102161186008         NOB HILL, LLC       1719 N PAYSON ST                        000N        CARE OF             
MTR02038700001000000000000000RA              40047794    005802060000020600000520000003NN  NNW 000                       N    
RDG02038700WATRL000000004K00000000000002989002012222014073943N000400000010N26       000130400K 10000000010000002969           
CUS0203870000102161187006         GALLMAN, MICHAEL R  1721 N PAYSON ST                        000N        CARE OF             
MTR02038700001000000000000000RA              50787944    005802070000020700000520000003NN  NNW 000                       N    
RDG02038700WATRL000000004K00000000000001029002112222014073951N000000000000N26       000080400K 10000000010000001010           
CUS0203870000102161188004         EPPS, JACQUELINE B  1723 N PAYSON ST                        000N        CARE OF             
MTR02038700001000000000000000RA              39583764    005802080000020800000520000003NN  NNW 000                       N    
RDG02038700WATRL000000004K00000000000000997000612222014073542N000000000000N26       000160400K 10000000010000000993           
CUS0203870000102161189002         PUGH, PORTENE R.    1725 N PAYSON ST                        000N        CARE OF             
MTR02038700001000000000000000RA              35119547    005802090000020900000520000003NN  NNW 000                       N    
RDG02038700WATRL000000004K00000000000002388000512222014073526N000000000000N26       000230400K 10000000010000002379           
CUS0203870000102161190000         HENRY, CAROL        1727 N PAYSON ST                        000N        CARE OF             
MTR02038700001000000000000000RA              52288830    005802100000021000000520000003NN  NNW 000   VACANT PROPERTY     N    
RDG02038700WATRL000000004K00000000000001149006412312014140308N000000000000U26       000130400K 10000000010000001149           
CUS0203870000102161191008         SPALDING, DAYATRA   1729 N PAYSON ST                        000N        CARE OF             
MTR02038700001000000000000000RA              41075683    005802110000021100000520000003NN  NNW 000                       N    
RDG02038700WATRL000000004K00000000000001789006512312014140313N000000000000U26       000050400K 10000000010000001789           
CUS0203870000102161192006         JOSEPH L PRESS      1731 N PAYSON ST                        000N        CARE OF             
MTR02038700001000000000000000RA              41075567    005802120000021200000520000003NN  NNW 000   VACANT PROPERTY     N    
