FHDNNNN026005163005163005181N                                                                                           017509
RHD09005500NN01360140000001360000000401220122000035YY012201220140001200110000000000000000000001    12112015NY020000 I         
CUS0900550000109378961008         MORGAN STATE UNIVERS4530 PORTAGE AVE                        000N        CARE OF             
MTR09005500001000000000000000RA              32905079    001500010000000100000520000003NN  NNW 000                       N    
RDG09005500WATRL000000005K00000000000011687000112302015122938N000000000000N91       000000500K 10000000010000011647           
CUS0900550000109378960000         MORGAN STATE UNIVERS4530 PORTAGE AVE                        000N        CARE OF             
MTR09005500001000000000000000RA              E18472      000600020000000200000430000003NN  NNW 000   FIRE SERVICE        N    
RDG09005500WATRL000000006K00000000000000000000212302015122941N000000000000N91       000030600K 10000000010000000000           
CUS0900550000109433612000         MORGAN VIEW         1500 PENTRIDGE RD                       000N        CARE OF             
MTR09005500002000000000000000RA              0208725     000800030000000300000630000003NN  NNW 000                       N    
RDG09005500WATAL000000006K00000000000000288000312302015122947N000100000010N91       000060600K 10000000010000000288           
RDG09005500WATBL000000006K00000000000033604000412302015123000N000400000010N91       000130600K 10000000010000028433           
CUS0900550000109433613008         MORGANVIEW          1500A PENTRIDGE RD                      000N        CARE OF             
MTR09005500002000000000000000RA              0208721     000800040000000400000630000003NY  NNW 000                       N    
MTM090055000208721     ok                                                                                                     
RDG09005500WATAL000000006K00000000000000002000512302015123011N000100000010N91       000110600K 10000000010000000002           
RDG09005500WATBL000000006K00000000000001634000612302015123024N000100000010N91       000130600K 10000000010000001634           
CUS0900550000109258073007         MAYOR & CITY COUNCIL1201 E COLD SPRING LN                   000N        CARE OF             
MTR09005500001000000000000000RA              31588540    000200050000000500000520000003NN  NNW 000                       N    
RDG09005500WATRL000000005K00000000000036647000712302015123032N000400000010N91       000080500K 10000000010000036590           
CUS0900550000109258072009         MAYOR & CITY COUNCIL1201 E COLD SPRING LN                   000N        CARE OF             
MTR09005500001000000000000000RA              31588100    001500060000000600000520000003NN  NNW 000                       N    
RDG09005500WATRL000000005K00000000000014605000812302015123039N000000000010N91       000070500K 10000000010000014604           
CUS0900550000109413059008         SUDSVILLE LAUNDRIES 1110 E COLD SPRING LN                   000N        CARE OF             
MTR09005500001000000000000000RA              01105930    000200070000000700000610000003NN  NNW 000                       N    
RDG09005500WATRL000000005K00000000000069745000912302015123046N000000000000N91       000070500K 10000000010000068559           
CUS0900550000109258071001         LEAGUE FOR HANDICAPP1111 E COLD SPRING LN                   000N        CARE OF             
MTR09005500002000000000000000RA              70048515    000400080000000000010560000003NN  NNW 000                       N    
RDG09005500WATAL000000006K00000000000000009000112312015114536N000300000010U91       000000600K 10000000010000000015           
RDG09005500WATBL000000006K00000000000000043000212312015114555N000304104110U91       000190600K 10000000010000100816           
CUS0900550000109410815006         COLD SPRING SHOPPING1401 E COLD SPRING LN                   000N        CARE OF             
MTR09005500001000000000000000RA              29372230    000200090000000900000520000003NN  NNW 000                       N    
RDG09005500WATRL000000005K00000000000028532001012302015123058N000000000000N91       000120500K 10000000010000028405           
CUS0900550000109258077008         MARBLE HALL HOLDINGS4416-30 MARBLE HALL RD                  000N        CARE OF             
MTR09005500001000000000000000RA              1176551     000200100000001000000490000003NN  NNW 000                       N    
RDG09005500WATRL000000005K00000000000018581000312312015114714N000000000000U91       000790500K 10000000010000018050           
CUS0900550000109258078006         MARBLE HALL HOLDINGS4400-14 MARBLE HALL RD                  000N        CARE OF             
MTR09005500001000000000000000RA              1115135     000200110000001100000490000003NY  NNW 000                       N    
MTM090055001115135     ok                                                                                                     
RDG09005500WATRL000000005K00000000000010487000412312015114728N000300000010U91       000140500K 10000000010000011098           
CUS0900550000109258076000         MARBLE HALL HOLDINGS4401-21 MARBLE HALL RD                  000N        CARE OF             
MTR09005500001000000000000000RA              1150415     000300120000001200000490000003NY  NNW 000                       N    
MTM090055001150415     ok                                                                                                     
RDG09005500WATRL000000005K00000000000003622000512312015114741N000300000010U91       000130500K 10000000010000003636           
CUS0900550000109258075002         MARBLE HALL HOLDINGS4317-27 MARBLE HALL RD                  000N        CARE OF             
MTR09005500001000000000000000RA              01105304    001500130000001300000610000003NN  NNW 000                       N    
RDG09005500WATRL000000005K00000000000028420001112302015123107N000000000000N91       000090500K 10000000010000027927           
CUS0900550000109258074005         MARBLE HALL HOLDINGS4301-15 MARBLE HALL RD                  000N        CARE OF             
MTR09005500001000000000000000RA              1178550     000200140000001400000490000003NY  NNW 000                       N    
MTM090055001178550     ok                                                                                                     
RDG09005500WATRL000000005K00000000000046421001212302015123125N000100000010N91       000180500K 10000000010000046421           
CUS0900550000109258080002         MARBLE HALL HOLDINGS4216-30 LOCH RAVEN BLVD                 000N        CARE OF             
MTR09005500001000000000000000RA              1178036     000200150000001500000490000003NN  NNW 000                       N    
RDG09005500WATRL000000005K00000000000047643001312302015123154N000000000000N91       000290500K 10000000010000047038           
CUS0900550000109258081000         MARBLE HALL HOLDINGS4200-14 LOCH RAVEN BLVD                 000N        CARE OF             
MTR09005500001000000000000000RA              1178035     000200160000001600000490000003NN  NNW 000                       N    
RDG09005500WATRL000000005K00000000000033579001412302015123159N000000000000N91       000050500K 10000000010000032690           
CUS0900550000109258082008         NORTHWOOD S C, LLC  1517 HAVENWOOD RD                       000N        CARE OF             
MTR09005500001000000000000000RA              60902625    000200170000001700000670000003NN  NNW 000   VACANT PROPERTY     N    
RDG09005500WATR 000000005R00000000000000000000001032016180000N0001000000B0N         000000500R 10000000020000000000           
RFF0900550070435477      ERT      0000  956.44375000140000010320161800000000000004100W 1210000N                               
CUS0900550000109258085001         NORTHWOOD S C, LLC  1524-30 HAVENWOOD RD                    000N        CARE OF             
MTR09005500001000000000000000RA              30528814    007500180000001800000520000003NN  NNW 000                       N    
RDG09005500WATRL000000004K00000000000000054000612312015114756N000000000000U91       000150400K 10000000010000000052           
CUS0900550000109258086009         NORTHWOOD S C, LLC  1532-34 HAVENWOOD RD                    000N        CARE OF             
MTR09005500001000000000000000RA              60908259    000200190000001900000670000003NN  NNW 000   VACANT PROPERTY     N    
RDG09005500WATR 000000005R00000000000000000000001032016180000N0001000000B0N         000000500R 10000000020000000000           
RFF0900550070435448      ERT      0000  956.44375000140000010320161800000000000100100W 1210000N                               
CUS0900550000109258088005         NORTHWOOD S C, LLC  1544-50 HAVENWOOD RD                    000N        CARE OF             
MTR09005500001000000000000000RA              29067418    005800200000002000000520000003NN  NNW 000                       N    
RDG09005500WATRL000000004K00000000000009421000712312015114806N000000000000U91       000100400K 10000000010000009414           
CUS0900550000109258087007         NORTHWOOD S C, LLC  1552-54 HAVENWOOD RD                    000N        CARE OF             
MTR09005500001000000000000000RA              60908256    000200210000002100000670000003NN  NNW 000                       N    
RDG09005500WATR 000000005R00000000000000001000001032016180000N0003000000B0N         000000500R 10000000020000000000           
RFF0900550070435232      ERT      0000  956.44375000140000010320161800000000001566100W 1210000N                               
CUS0900550000109258089003         NORTHWOOD S C, LLC  1572 HAVENWOOD RD                       000N        CARE OF             
MTR09005500001000000000000000RA              01117018    000200220000002200000610000003NN  NNW 000                       N    
RDG09005500WATRL000000005K00000000000000000000000000000000000 000000000000U         000000500  10000000010000000999           
CUS0900550000109258083006         MORGAN STATE UNIV   1600 HAVENWOOD RD                       000N        CARE OF             
MTR09005500001000000000000000RA              99999999    001500230000002300000620000003NN  NNW 000   FERRULE APPLIED     N    
RDG09005500WATRL000000005K00000000000000000001512302015123232S002000000000N91       000330500K 10000000010000012141           
CUS0900550000109454690000         MORGAN STATE UNIVERS1600 HAVENWOOD RD                       000N        CARE OF             
MTR09005500001000000000000000RA              13804253    000800240000002400000390000003NY  NNW 000   FIRE SERVICE        N    
MTM0900550013804253    under constr                                                                                           
RDG09005500WATRL000000006K00000000000000000000000000000000000 000000000000U         000000600  10000000010000000000           
CUS0900550000109454691008         MORGAN STATE UNIVERS1600 HAVENWOOD RD                       000N        CARE OF             
MTR09005500001000000000000000RA              99999999    000300250000002500000440000000NN  NNW 000                       N    
RDG09005500WATRL000000005K00000000000000000000812312015115135S002008408400U91       002090500K 10000000010000000018           
CUS0900550000109457801000         STATE OF MARYLAND   1600 HAVENWOOD RD                       000N        CARE OF             
MTR09005500002000000000000000RA              1200832     000600250010002500100440000003NY  NNW 000   FIRE SERVICE        N    
MTM090055001200832     under constr                                                                                           
RDG09005500WATAL000000006K00000000000000000000000000000000000 000000000000U         000000600  10000000010000000000           
RDG09005500WATBL000000006K00000000000000000000000000000000000 000000000000U         000000600  10000000010000000000           
CUS0900550000109457803006         STATE OF MARYLAND   1600 HAVENWOOD RD                       000N        CARE OF             
MTR09005500001000000000000000RA              70262679    000400250020002500200420000003NY  NNW 000                       N    
MTM0900550070262679    under constr                                                                                           
RDG09005500WATRL000000006K00000000000000000000000000000000000 000000000000U         000000600  10000000010000000000           
CUS0900550000109410746003         NORTHWOOD S C, LLC  1600 ARGONNE DR                         000N        CARE OF             
MTR09005500001000000000000000RA              41091075    001500260000002600000520000003NN  NNW 000                       N    
RDG09005500WATRL000000005K00000000000000000000000000000000000 000000000000U         000000500  10000000010000015816           
CUS0900550000109258094003         DEPT. OF EDUCATION  3500 HILLEN RD                          000N        CARE OF             
MTR09005500002000000000000000RA              2564342     000600270000002700000540000003NN  NNW 000                       N    
RDG09005500WATAL000000006K00000000000000000001612302015123254N000100000010N91       000220600K 10000000010000000000           
RDG09005500WATBL000000006K00000000000014518001712302015123306N000400000010N91       000120600K 10000000010000013995           
CUS0900550000109436480009         MONTBELLO PUMPING ST3501 HILLEN RD                          000N        CARE OF             
MTR09005500001000000000000000RA              8047229     000600280000002800000380000003NN  NNW 000   CITY FIRE SERV      N    
RDG09005500WATRL000000006K00000000000000000000000000000000000 000000000000U         000000600  10000000010000000008           
CUS0900550000109436482005         MONTBELLO PUMPING ST3501 HILLEN RD                          000N        CARE OF             
MTR09005500001000000000000000RA              01117004    000200290000002900000610000003NN  NNW 000                       N    
RDG09005500WATRL000000005K00000000000000000000000000000000000 000000000000U         000000500  10000000010000000751           
CUS0900550000109258097006         BUREAU OF WATER SUPP3901 HILLEN RD                          000N        CARE OF             
MTR09005500001000000000000000RA              60904514    001500300000003000000670000003NN  NNW 000                       N    
RDG09005500WATR 000000005R00000000000000000000001032016180000N0001000000B0N         000000500R 10000000020000000000           
RFF0900550070435465      ERT      0000  956.44375000140000010320161800000000000002100W 1210000N                               
CUS0900550000109394629001         BUREAU OF WATER SUPP3900 HILLEN RD                          000N        CARE OF             
MTR09005500002000000000000000RA              7108802     001200310000003100000540000003NY  NNW 000                       N    
MTM090055007108802     no access                                                                                              
RDG09005500WATAL000000007K00000000000000000000000000000000000 000000000000U         000000700  10000000010000000461           
RDG09005500WATBL000000007K00000000000000000000000000000000000 000000000000U         000000700  10000000010000445973           
CUS0900550000109258098004         MAYOR & CITY COUNCIL3901-4001 HILLEN RD                     000N        CARE OF             
MTR09005500001000000000000000RA              30248954    007500320000003200000520000003NN  NNW 000                       N    
RDG09005500WATRL000000004K00000000000003114001812302015123326N000400000010N91       000200400K 10000000010000003111           
CUS0900550000109429895007         MORGAN STATE UNIV/AC2201 ARGONNE DR                         000N        CARE OF             
MTR09005500002000000000000000RA              70067459    000800330000003300000560000003NN  NNW 000                       N    
RDG09005500WATAL000000006K00000000000000414001912302015123342N000400000010N91       000160600K 10000000010000000412           
RDG09005500WATBL000000006K00000000000041122002012302015123350N000400000010N91       000080600K 10000000010000039485           
CUS0900550000109258095000         MORGAN STATE UNIV/AC2201 ARGONNE DR                         000N        CARE OF             
MTR09005500002000000000000000RA              4504153     000600340000003400000540000003NN  NNW 000   VACANT PROPERTY     N    
RDG09005500WATAL000000006K00000000000000000000912312015115639S022000000000U91       003040600K 10000000010000000000           
RDG09005500WATBL000000006K00000000000000000001012312015115641S022000000000U91       000020600K 10000000010000000000           
CUS0900550000109258096008         MORGAN STATE UNIV/AC2201 ARGONNE DR                         000N        CARE OF             
MTR09005500002000000000000000RA              5679525     000800350000003500000540000003NN  NNW 000                       N    
RDG09005500WATAL000000006K00000000000000007002112302015123403N000100000010N91       000130600K 10000000010000000007           
RDG09005500WATBL000000006K00000000000035516002212302015123410N000400000010N91       000070600K 10000000010000034444           
CUS0900550000109258099002         NORTHEASTERN POLICE 1900 ARGONNE DR                         000N        CARE OF             
MTR09005500002000000000000000RA              3586574     000300360000003600000370000003NN  NNW 000                       N    
RDG09005500WATAL000000005K00000000000003194002312312015115651N000100000010U91       000100500K 10000000010000003194           
RDG09005500WATBL000000005K00000000000000000002412312015115653S005000000000U91       000020500K 10000000010000008542           
CUS0900550000109404295009         MORGAN STATE UNIV/AC5201 PERRING PKWY                       000N        CARE OF             
MTR09005500002000000000000000RA              9017684     000800370000003700000630000003NN  NNW 000                       N    
RDG09005500WATAL000000006K00000000000000261002512302015123431N000100000010N91       000090600K 10000000010000000261           
RDG09005500WATBL000000006K00000000000066276002612302015123445N000400000010N91       000140600K 10000000010000065917           
CUS0900550000109352250006         DEPT OF EDUCATION   1600 E ARLINGTON AVE                    000N        CARE OF             
MTR09005500002000000000000000RA              5899520     000600380000003800000630000003NN  NNW 000                       N    
RDG09005500WATAL000000006K00000000000000000002712302015123450N000100000010N91       000050600K 10000000010000000000           
RDG09005500WATBL000000006K00000000000003866002812302015123457N000400000010N91       000070600K 10000000010000003725           
CUS0900550000109258107003         DEPT. OF EDUCATION  5201 LOCH RAVEN BLVD                    000N        CARE OF             
MTR09005500001000000000000000RA              0911729     000400390000003900000640000003NN  NNW 000                       N    
RDG09005500WATRL000000006K00000000000005450002912302015123513N000300000010N91       000160600K 10000000010000004400           
CUS0900550000109258110007         KENSINGTON GATE APT.5300-06 LOCH RAVEN BLVD                 000N        CARE OF             
MTR09005500001000000000000000RA              29066901    000200400000004000000520000003NN  NNW 000                       N    
RDG09005500WATRL000000005K00000000000045263003012302015123521N000000000000N91       000080500K 10000000010000045016           
CUS0900550000109258109009         MAYOR & CITY        5201 LOCH RAVEN BLVD                    000N        CARE OF             
MTR09005500001000000000000000RA              33734234    000200410000004100000520000003NN  NNW 000                       N    
RDG09005500WATRL000000005K00000000000000000003112312015115713S005000000000U91       000200500K 10000000010000006686           
CUS0900550000109258108001         BLDG. CONSTRUCTION  5201 LOCH RAVEN BLVD                    000N        CARE OF             
MTR09005500001000000000000000RA              99169923    000200420000004200000570000003NN  NNW 000                       N    
RDG09005500WATRL000000005K00000000000001488003212302015123532N000000000000N91       000090500K 10000000010000001464           
CUS0900550000109404143001         MEDSTAR HEALTH INC  5501 LOCH RAVEN BLVD                    000N        CARE OF             
MTR09005500002000000000000000RA              70247191    000300430000004300000460000003NY  NNW 000                       N    
MTM0900550070247191    ok                                                                                                     
RDG09005500WATAL000000005K00000000000000001003312302015123542N000300000010N91       000100500K 10000000010000000011           
RDG09005500WATBL000000005K00000000000005017003412302015123556N000400000010N91       000140500K 10000000010000004987           
CUS0900550000109404141005         G S PROP INC        5501 LOCH RAVEN BLVD                    000N        CARE OF             
MTR09005500001000000000000000RA              7198228     000800440000004400000340000003NN  NNW 000   FIRE SERVICE        N    
RDG09005500WATRL000000006K00000000000005184003512302015123612N000400000010N91       000160600K 10000000010000005086           
CUS0900550000109258113001         ST MATTHEWS ROMAN CA5401 LOCH RAVEN BLVD                    000N        CARE OF             
MTR09005500001000000000000000RA              1253680     000300450000004500000470000003NN  NNW 000                       N    
RDG09005500WATRL000000005K00000000000031260003612302015123622N000000000000N91       000100500K 10000000010000031067           
CUS0900550000109258114009         ST MATTHEWS ROMAN CA5401 LOCH RAVEN BLVD                    000N        CARE OF             
MTR09005500001000000000000000RA              52293044    000200460000004600000520000003NN  NNW 000                       N    
RDG09005500WATRL000000005K00000000000005190003712302015123628N000000000000N91       000060500K 10000000010000005133           
CUS0900550000109407611004         GOOD SAMARITAN COMP 1601 E BELVEDERE AVE                    000N        CARE OF             
MTR09005500002000000000000000RA              5388339     000600470000004700000630000003NN  NNW 000   FIRE SERVICE        N    
RDG09005500WATAL000000006K00000000000000001001412312015115722N000000000000U91       000090600K 10000000010000000001           
RDG09005500WATBL000000006K00000000000000004001512312015115729N000400000010U91       000070600K 10000000010000000002           
CUS0900550000109407613000         GOOD SAMARITAN COMP 1601 E BELVEDERE AVE                    000N        CARE OF             
MTR09005500001000000000000000RA              70880420    000400480000004800000470000003NN  NNW 000                       N    
RDG09005500WATRL000000006K00000000000058592001612312015115736N000000000000U91       000070600K 10000000010000056686           
CUS0900550000109399168005         G S HOUSING INC     1651 E BELVEDERE AVE                    000N        CARE OF             
MTR09005500002000000000000000RA              7235961     000800490000004900000630000003NN  NNW 000                       N    
RDG09005500WATAL000000006K00000000000000069001712312015115750N000100000010U91       000140600K 10000000010000000069           
RDG09005500WATBL000000006K00000000000008072001812312015115804N000400000010U91       000140600K 10000000010000007500           
CUS0900550000109399170001         G S HOUSING INC     1651 E BELVEDERE AVE                    000N        CARE OF             
MTR09005500001000000000000000RA              1276940     000300500000005000000490000003NN  NNW 000                       N    
RDG09005500WATRL000000005K00000000000001706003812302015123658N000000000000N91       000300500K 10000000010000000535           
CUS0900550000109258138008         BALTIMORE GAS & ELEC5715 HILLEN RD                          000N        CARE OF             
MTR09005500001000000000000000RA              14911082    005800510000005100000310000003NN  NNW 000   VACANT PROPERTY     N    
RDG09005500WATRL000000004K00000000000000269003912302015123702N000000000000N91       000040400K 10000000010000000269           
CUS0900550000109258137000         BALTIMORE GAS&ELECTR5715 HILLEN RD                          000N        CARE OF             
MTR09005500001000000000000000RA              4651023     000600520000005200000410000003NN  NNW 000   FIRE SERVICE        N    
RDG09005500WATRL000000006K00000000000000002004012302015123705N000000000000N91       000030600K 10000000010000000002           
CUS0900550000109258141002         HB OWNER, LLC       1654 E BELVEDERE AVE                    000N        CARE OF             
MTR09005500001000000000000000RA              31588459    000200530000005300000520000003NN  NNW 000                       N    
RDG09005500WATRL000000005K00000000000050875004112302015123740N000000000000N91       000350500K 10000000010000050422           
CUS0900550000109258140004         HB OWNER, LLC       1652 E BELVEDERE AVE                    000N        CARE OF             
MTR09005500001000000000000000RA              31588441    000200540000005400000520000003NN  NNW 000                       N    
RDG09005500WATRL000000005K00000000000042539004212302015123746N000000000000N91       000060500K 10000000010000042260           
CUS0900550000109258139006         HB OWNER, LLC       1650 E BELVEDERE AVE                    000N        CARE OF             
MTR09005500001000000000000000RA              31588425    000200550000005500000520000003NN  NNW 000                       N    
RDG09005500WATRL000000005K00000000000046975004312302015123752N000000000000N91       000060500K 10000000010000046654           
CUS0900550000109258136002         BALTIMORE GAS & ELEC5830 HILLEN RD                          000N        CARE OF             
MTR09005500001000000000000000RA              99999999    000200560000005600000620000003NN  NNW 000                       N    
RDG09005500WATRL000000005K00000000000000000004412302015123832S002000000001N91       000250500K 10000000010000000000           
CUS0900550000109258116004         MAYOR & CITY COUNCIL1600 WAVEWORTH RD                       000N        CARE OF             
MTR09005500001000000000000000RA              1450807     000300570000005700000490000003NN  NNW 000                       N    
RDG09005500WATRL000000005K00000000000021106004512302015123848N000300000010N91       000160500K 10000000010000020935           
CUS0900550000109258117002         LOCH RAVEN APARTMENT1601-45 WAVERLY WAY                     000N        CARE OF             
MTR09005500001000000000000000RA              11800701    000300580000005800000460000003NN  NNW 000                       N    
RDG09005500WATRL000000005K00000000000003685001912312015115815N000000000000U91       000110500K 10000000010000003408           
CUS0900550000109258118000         THE RENAISSANCE CLUB1713-33 WAVERLY WAY                     000N        CARE OF             
MTR09005500001000000000000000RA              1450804     000300590000005900000490000003NN  NNW 000                       N    
RDG09005500WATRL000000005K00000000000097420002012312015115827N000400000010U91       000120500K 10000000010000097309           
CUS0900550000109258119008         LOCH RAVEN APARTMENT1670-84 WAVERLY WAY                     000N        CARE OF             
MTR09005500001000000000000000RA              11800721    000300600000006000000460000003NN  NNW 000                       N    
RDG09005500WATRL000000005K00000000000002129002112312015115837N000000000000U91       000100500K 10000000010000001994           
CUS0900550000109258120006         LOCH RAVEN APARTMENT1600-14 WAVERLY WAY                     000N        CARE OF             
MTR09005500001000000000000000RA              31362896    000300610000006100000470000000NN  NNW 000                       N    
RDG09005500WATRL000000005K00000000000017804002212312015115842N000000000000U91       000050500K 10000000010000017703           
CUS0900550000109258121004         LOCH RAVEN APARTMENT1534-40 WAVERLY WAY                     000N        CARE OF             
MTR09005500001000000000000000RA              1450805     000300620000006200000490000003NY  NNW 000                       N    
MTM090055001450805     ok                                                                                                     
RDG09005500WATRL000000005K00000000000001319004612302015123905N000000000000N91       000170500K 10000000010000001319           
CUS0900550000109258131003         NORTHERN PKWY PROFES6101 FENWICK AVE                        000N        CARE OF             
MTR09005500001000000000000000RA              1378649     000200630000006300000490000003NN  NNW 000                       N    
RDG09005500WATRL000000005K00000000000006929004712302015123916N000000000000N91       000110500K 10000000010000006882           
CUS0900550000109228278009         U. S. POSTAL SERVICE1800 E NORTHERN PKWY                    000N        CARE OF             
MTR09005500001000000000000000RA              35101160    001500640000006400000520000003NN  NNW 000                       N    
RDG09005500WATRL000000005K00000000000001546004812302015123920N000000000000N91       000040500K 10000000010000001533           
CUS0900550000109258123000         ALLEN & ROCKS ENGINE6101-6201 LOCH RAVEN BLVD               000N        CARE OF             
MTR09005500001000000000000000RA              9203916     000400650000006500000640000000NN  NNW 000                       N    
RDG09005500WATRL000000006K00000000000022498004912302015123949N000000000000N91       000290600K 10000000010000021574           
CUS0900550000109435585006         LOCH RAVEN SHOPPING 1728 E NORTHERN PKWY                    000N        CARE OF             
MTR09005500001000000000000000RA              01105137    001500660000006600000610000000NN  NNW 000                       N    
RDG09005500WATRL000000005K00000000000020264005012302015123954N000000000000N91       000050500K 10000000010000019800           
CUS0900550000109435584009         LOCH RAVEN SHOPPING 1726 E NORTHERN PKWY                    000N        CARE OF             
MTR09005500001000000000000000RA              01105151    001500670000006700000610000003NN  NNW 000                       N    
RDG09005500WATRL000000005K00000000000000259005112302015123958N000000000000N91       000040500K 10000000010000000252           
CUS0900550000109435586004         LOCH RAVEN SHOPPING 1724 E NORTHERN PKWY                    000N        CARE OF             
MTR09005500001000000000000000RA              01105188    001500680000006800000610000000NN  NNW 000                       N    
RDG09005500WATRL000000005K00000000000010847005212302015124004N000000000000N91       000060500K 10000000010000010584           
CUS0900550000109435581005         LOCH RAVEN SHOPPING 1700 E NORTHERN PKWY                    000N        CARE OF             
MTR09005500001000000000000000RA              8048194     000600690000006900000380000000NN  NNW 000   FIRE SERVICE        N    
RDG09005500WATRL000000006K00000000000000015005312302015124010N000000000000N91       000060600K 10000000010000000015           
CUS0900550000109435583001         LOCH RAVEN SHOPPING 1700 E NORTHERN PKWY                    000N        CARE OF             
MTR09005500001000000000000000RA              01105189    001500700000007000000610000000NY  NNW 000                       N    
MTM0900550001105189    ok                                                                                                     
RDG09005500WATRL000000005K00000000000099996005412302015124035N000000000010N91       000250500K 10000000010000099998           
CUS0900550000109258122002         ALLEN & ROCKS INC   6101 LOCH RAVEN BLVD                    000N        CARE OF             
MTR09005500001000000000000000RA              9310131     000400710000007100000640000003NN  NNW 000                       N    
RDG09005500WATRL000000006K00000000000016099002312312015115907N000000000000U91       000250600K 10000000010000014867           
CUS0900550000109258124008         ALLEN & ROCKS INC  C6201 LOCH RAVEN BLVD                    000N        CARE OF             
MTR09005500001000000000000000RA              9108016     000400720000007200000640000000NN  NNW 000                       N    
RDG09005500WATRL000000006K00000000000020924002412312015115920N000000000000U91       000130600K 10000000010000019976           
CUS0900550000109258133009         446600 AIMCO MAIL ST6401 LOCH RAVEN BLVD                    000N        CARE OF             
MTR09005500002000000000000000RA              5877088     000800730000007300000630000003NN  NNW 000                       N    
RDG09005500WATAL000000006K00000000000000099002512312015115926N000100000010U91       000060600K 10000000010000000099           
RDG09005500WATBL000000006K00000000000069495002612312015115942N000400000010U91       000160600K 10000000010000067022           
CUS0900550000109258134007         EMANUEL APOSTOLIC FA6300 LOCH RAVEN BLVD                    000N        CARE OF             
MTR09005500001000000000000000RA              10007561    005800740000007400000570000003NN  NNW 000                       N    
RDG09005500WATRL000000004K00000000000000312002712312015115946N000000000000U91       000040400K 10000000010000000302           
CUS0900550000109258125005         MALVERN APARTMENTS, 6130-46 LOCH RAVEN BLVD                 000N        CARE OF             
MTR09005500001000000000000000RA              36700117    001500750000007500000520000003NN  NNW 000                       N    
RDG09005500WATRL000000005K00000000000024941002812312015115951N000000000000U91       000050500K 10000000010000024782           
CUS0900550000109258128009         MERCY HIGH SCHOOL AS1300 E NORTHERN PKWY                    000N        CARE OF             
MTR09005500001000000000000000RA              9203646     000300760000007600000640000003NN  NNW 000                       N    
RDG09005500WATRL000000005K00000000000003223002912312015120005N000000000000U91       000140500K 10000000010000002986           
CUS0900550000109434809001         MERCY HIGH SCHOOL AS1300 E NORTHERN PKWY                    000N        CARE OF             
MTR09005500001000000000000000RA              01105696    000200770000007700000610000000NN  NNW 000                       N    
RDG09005500WATRL000000005K00000000000000628003012312015120017N000300000010U91       000120500K 10000000010000000612           
CUS0900550000109434810009         MERCY HIGH SCHOOL AS1300 E NORTHERN PKWY                    000N        CARE OF             
MTR09005500001000000000000000RA              8047661     000600780000007800000380000000NN  NNW 000   FIRE SERVICE        N    
RDG09005500WATRL000000006K00000000000000004003112312015120026N000000000000U91       000090600K 10000000010000000004           
CUS0900550000109258127001         STRATFORD APARTMENTS6101-17 THE ALAMEDA                     000N        CARE OF             
MTR09005500001000000000000000RA              01105688    000200790000007900000610000003NN  NNW 000                       N    
RDG09005500WATRL000000005K00000000000022264003212312015120031N000000000000U91       000050500K 10000000010000021665           
CUS0900550000109258126003         MAYOR CITY          1235 SHERWOOD AVE                       000N        CARE OF             
MTR09005500001000000000000000RA              1293030     000300800000008000000470000003NY  NNW 000                       N    
MTM090055001293030     ok                                                                                                     
RDG09005500WATRL000000005K00000000000055049003312312015120036N000000000000U91       000050500K 10000000010000055049           
CUS0900550000109446789001         MAYOR & CITY        1235 SHERWOOD AVE                       000N        CARE OF             
MTR09005500001000000000000000RA              0006863     000600810000008100000470000003NN  NNW 000   CITY FIRE SERV      N    
RDG09005500WATRL000000006K00000000000000004003412312015120114N000000000010U91       000380600K 10000000010000010472           
CUS0900550000109446791007         MAYOR & CITY        1235 SHERWOOD AVE                       000N        CARE OF             
MTR09005500002000000000000000RA              14931020    000400820000008200000460000003NN  NNW 000                       N    
RDG09005500WATAL000000006K00000000000004243003512312015120127N000000000010U91       000130600K 10000000010000000000           
RDG09005500WATBL000000006K00000000000003223003612312015120137N000400000010U91       000100600K 10000000010000000000           
CUS0900550000109258132001         BALTO MUNICIPAL CORP6001 HILLEN RD                          000N        CARE OF             
MTR09005500001000000000000000RA              99999999    005800830000008300000610000003NY  NNW 000                       N    
MTM0900550099999999    cant loc                                                                                               
RDG09005500WATRL000000004K00000000000000000000000000000000000 000000000000U         000000400  10000000010000026240           
CUS0900550000109258135004         MAYOR & CITY COUNCIL6001 HILLEN RD                          000N        CARE OF             
MTR09005500001000000000000000RA              10806450    000400840000008400000460000003NN  NNW 000                       N    
RDG09005500WATRL000000006K00000000000040307003712312015120244N000400000010U91       000670600K 10000000010000039541           
CUS0900550000109258142000         BARCLAY SQUARE APT L2074-84 ECHODALE AVE                    000N        CARE OF             
MTR09005500001000000000000000RA              1378693     000200850000008500000490000003NN  NNW 000                       N    
RDG09005500WATRL000000005K00000000000069955003812312015120248N000000000000U91       000040500K 10000000010000068508           
CUS0900550000109258146001         BETHEL WORLD OUTREAC2917 HAMILTON AVE                       000N        CARE OF             
MTR09005500001000000000000000RA              14921012    001500860000008600000310000003NN  NNW 000                       N    
RDG09005500WATRL000000005K00000000000002934003912312015120253N000000000000U91       000050500K 10000000010000002856           
CUS0900550000109258143008         BOARD OF SCHOOL COMM6101 OLD HARFORD RD                     000N        CARE OF             
MTR09005500001000000000000000RA              9607708     000300870000008700000640000003NY  NNW 000                       N    
MTM090055009607708     ok                                                                                                     
RDG09005500WATRL000000005K00000000000006961004012312015120325N000000000010U91       000320500K 10000000010000007958           
CUS0900550000109425024008         MAYOR & CITY        6101 OLD HARFORD RD                     000N        CARE OF             
MTR09005500001000000000000000RA              8036181     000800880000008800000380000000NN  NNW 000   CITY FIRE SERV      N    
RDG09005500WATRL000000006K00000000000000000004112312015120410S005000000000U91       000450600K 10000000010000000090           
CUS0900550000109425026003         MAYOR & CITY        6101 OLD HARFORD RD                     000N        CARE OF             
MTR09005500001000000000000000RA              1450810     000300890000008900000490000000NN  NNW 000                       N    
RDG09005500WATRL000000005K00000000000000000004212312015120419S002000000000U91       000090500K 10000000010000000979           
CUS0900550000109258144006         MICHAEL F CLARK     5902 HARFORD RD                         000N        CARE OF             
MTR09005500001000000000000000RA              00066730    000200900000009000000570000003NN  NNW 000                       N    
RDG09005500WATRL000000005K00000000000000479004312312015120425N000000000000U91       000060500K 10000000010000000468           
CUS0900550000109429168009         TOTAL RENAL CARE INC5800 HARFORD RD                         000N        CARE OF             
MTR09005500001000000000000000RA              8044866     000400910000009100000380000003NN  NNW 000   FIRE SERVICE        N    
RDG09005500WATRL000000006K00000000000008632004412312015120442N000000000000U91       000170600K 10000000010000002310           
CUS0900550000109429170005         TOTAL RENAL CARE INC5800 HARFORD RD                         000N        CARE OF             
MTR09005500001000000000000000RA              00066828    001500920000009200000570000000NN  NNW 000                       N    
RDG09005500WATRL000000005K00000000000051729004512312015120448N000000000000U91       000060500K 10000000010000050694           
CUS0900550000109258145003         VERIZON             2929 BAYONNE AVE                        000N        CARE OF             
MTR09005500001000000000000000RA              01105813    000200930000009300000610000003NN  NNW 000                       N    
RDG09005500WATRL000000005K00000000000077821004612312015120457N000400000010U91       000090500K 10000000010000077652           
CUS0900550000109404013006         MAX DEVELOPMENT     5406-12 HARFORD RD                      000N        CARE OF             
MTR09005500001000000000000000RA              7235138     000400940000009400000340000003NN  NNW 000   FIRE SERVICE        N    
RDG09005500WATRL000000006K00000000000000000004712312015120500N000000000000U91       000030600K 10000000010000000000           
CUS0900550000109404012008         MAX DEVELOPMENT     5406-12 HARFORD RD                      000N        CARE OF             
MTR09005500001000000000000000RA              41091022    000100950000009500000520000003NN  NNW 000                       N    
RDG09005500WATRL000000004K00000000000003710004812312015120505N000000000000U91       000050400K 10000000010000003705           
CUS0900550000109418235009         LILA, RAYWAN        2906 RUECKERT AVE                       000N        CARE OF             
MTR09005500001000000000000000RA              35116843    000200960000009600000520000003NN  NNW 000                       N    
RDG09005500WATRL000000005K00000000000005068004912312015120509N000000000000U91       000040500K 10000000010000005048           
CUS0900550000109415691006         DEPARTMENT OF EDUCAT2700 AILSA AVE                          000N        CARE OF             
MTR09005500001000000000000000RA              11800849    000300970000009700000460000003NN  NNW 000                       N    
RDG09005500WATRL000000005K00000000000018467005012312015120526N000000000000U91       000170500K 10000000010000017454           
CUS0900550000109415692004         MAYOR & CITY COUNCIL2700 AILSA AVE                          000N        CARE OF             
MTR09005500001000000000000000RA              8034954     000400980000009800000380000003NN  NNW 000   CITY FIRE SERV      N    
RDG09005500WATRL000000006K00000000000000001005112312015120529N000000000000U91       000030600K 10000000010000000001           
CUS0900550000109258149005         BUREAU OF BLDG.CONST4522 HARFORD RD                         000N        CARE OF             
MTR09005500001000000000000000RA              50000036    000100990000009900000570000003NN  NNW 000                       N    
RDG09005500WATRL000000004K00000000000000582005212312015120533N000000000000U91       000040400K 10000000010000000538           
CUS0900550000109418192002         ARCADIAN FELLOWSHIP 4915 HOLDER AVE                         000N        CARE OF             
MTR09005500001000000000000000RA              41091149    001501000000010000000520000000NN  NNW 000                       N    
RDG09005500WATRL000000005K00000000000008242005312312015120548N000300000010U91       000150500K 10000000010000008251           
CUS0900550000109418190006         ARCADIAN FELLOWSHIP 4915 HOLDER AVE                         000N        CARE OF             
MTR09005500001000000000000000RA              8034378     000401010000010100000380000003NN  NNW 000   FIRE SERVICE        N    
RDG09005500WATRL000000006K00000000000000002005412312015120605N000000000000U91       000170600K 10000000010000000002           
CUS0900550000109409573004         DEPARTMENT OF EDUCAT2040 E 32ND ST                          000N        CARE OF             
MTR09005500002000000000000000RA              40000028    000401020000010200000460000003NY  NNW 000                       N    
MTM0900550040000028    ok                                                                                                     
RDG09005500WATAL000000006K00000000000001680005512312015120717N000300000010U91       000720600K 10000000010000022209           
RDG09005500WATBL000000006K00000000000003780005612312015120727N000300000010U91       000100600K 10000000010000016299           
CUS0900550000104328603008         SUPERVALU, INC      1500 HAVENWOOD RD                       000N        CARE OF             
MTR09005500001000000000000000RA              1415025     001501030000010300000490000003NN  NNW 000                       N    
RDG09005500WATRL000000005K00000000000000607005712312015120741N000000000000U91       000140500K 10000000010000000585           
CUS0900550000109409571008         MAYOR & CITY        2040 E 32ND ST                          000N        CARE OF             
MTR09005500001000000000000000RA              8025711     000601040000010400000340000003NN  NNW 000   CITY FIRE SERV      N    
RDG09005500WATRL000000006K00000000000006800005812312015120747N000000000000U91       000060600K 10000000010000006800           
CUS0900550000104328605003         NORTHWOOD S C, LLC  1518 HAVENWOOD RD                       000N        CARE OF             
MTR09005500001000000000000000RA              00163731    000101050000010500000570000003NN  NNW 000                       N    
RDG09005500WATRL000000004K00000000000004445005912312015120759N000000000000U91       000120400K 10000000010000004339           
CUS0900550000104328606001         NORTHWOOD S C, LLC  1536 HAVENWOOD RD                       000N        CARE OF             
MTR09005500001000000000000000RA              31937989    007501060000010600000520000003NN  NNW 000   VACANT PROPERTY     N    
RDG09005500WATRL000000004K00000000000000489006012312015120830N000000000000U91       000310400K 10000000010000000489           
CUS0900550000104328607009         NORTHWOOD S C, LLC  1538 HAVENWOOD RD                       000N        CARE OF             
MTR09005500001000000000000000RA              99999999    007501070000010700000520000003NN  NNW 000   VACANT PROPERTY     N    
RDG09005500WATRL000000004K00000000000000000006112312015120850S002000000000U91       000200400K 10000000010000000000           
CUS0900550000104328608007         NORTHWOOD S C, LLC  1540-42 HAVENWOOD RD                    000N        CARE OF             
MTR09005500001000000000000000RA              29137381    001501080000010800000520000003NN  NNW 000                       N    
RDG09005500WATRL000000005K00000000000000000000000000000000000 000000000000U         000000500  10000000010000001886           
CUS0900550000104328609005         NORTHWOOD S C, LLC  1556 HAVENWOOD RD                       000N        CARE OF             
MTR09005500001000000000000000RA              52771041    007501090000010900000520000003NN  NNW 000                       N    
RDG09005500WATRL000000004K00000000000001684006212312015120906N000000000000U91       000160400K 10000000010000001662           
CUS0900550000104328610003         NORTHWOOD S C, LLC  1558 HAVENWOOD RD                       000N        CARE OF             
MTR09005500001000000000000000RA              00119270    007501100000011000000570000003NN  NNW 000                       N    
RDG09005500WATRL000000004K00000000000000319006312312015120910N000000000000U91       000040400K 10000000010000000318           
CUS0900550000104328611001         NORTHWOOD S C, LLC  1560 HAVENWOOD RD                       000N        CARE OF             
MTR09005500001000000000000000RA              99314689    000101110000011100000570000003NN  NNW 000                       N    
RDG09005500WATRL000000004K00000000000003426006412312015120914N000000000000U91       000040400K 10000000010000003234           
CUS0900550000104328612009         NORTHWOOD S C, LLC  1562 HAVENWOOD RD                       000N        CARE OF             
MTR09005500001000000000000000RA              00163773    000101120000011200000570000003NY  NNW 000                       N    
MTM0900550000163773    ok                                                                                                     
RDG09005500WATRL000000004K00000000000000195006512312015120931N000300000010U91       000170400K 10000000010000000355           
CUS0900550000104328613007         VENATOR GROUP, INC. 1566 HAVENWOOD RD                       000N        CARE OF             
MTR09005500001000000000000000RA              00167050    000101130000011300000570000003NY  NNW 000                       N    
MTM0900550000167050    ok                                                                                                     
RDG09005500WATRL000000004K00000000000000043006612312015120952N000000000010U91       000210400K 10000000010000000074           
CUS0900550000104328614005         NORTHWOOD S C, LLC  1568-70 HAVENWOOD RD                    000N        CARE OF             
MTR09005500001000000000000000RA              00167095    000101140000011400000570000003NN  NNW 000   VACANT PROPERTY     N    
RDG09005500WATRL000000004K00000000000000000006712312015120955N000000000000U91       000030400K 10000000010000000000           
CUS0900550000104328615002         NORTHWOOD S C, LLC  1500 HAVENWOOD RD                       000N        CARE OF             
MTR09005500001000000000000000RA              43905593    007501150000011500000520000003NY  NNW 000                       N    
MTM0900550043905593    ok                                                                                                     
RDG09005500WATRL000000004K00000000000000928006812312015121016N000300000010U91       000210400K 10000000010000001489           
CUS0900550000104328619004         NORTHWOOD S C, LLC  1586 HAVENWOOD RD                       000N        CARE OF             
MTR09005500001000000000000000RA              50384969    000101160000011600000520000003NN  NNW 000   VACANT PROPERTY     N    
RDG09005500WATRL000000004K00000000000000000006912312015121020N000000000000U91       000040400K 10000000010000000000           
CUS0900550000104328620002         NORTHWOOD S C, LLC  1588 HAVENWOOD RD                       000N        CARE OF             
MTR09005500001000000000000000RA              99289982    005801170000011700000570000003NY  NNW 000                       N    
MTM0900550099289982    ok                                                                                                     
RDG09005500WATRL000000004K00000000000001809007012312015121030N000300000010U91       000100400K 10000000010000001811           
CUS0900550000104328621000         NORTHWOOD S C, LLC  1590 HAVENWOOD RD                       000N        CARE OF             
MTR09005500001000000000000000RA              31181009    007501180000011800000520000003NY  NNW 000                       N    
MTM0900550031181009    ok                                                                                                     
RDG09005500WATRL000000004K00000000000001374007112312015121041N000300000010U91       000110400K 10000000010000001376           
CUS0900550000104428442000         MAYOR & CITY COUNCIL3500 HILLEN RD                          000N        CARE OF             
MTR09005500001000000000000000RA              99189381    005801190000011900000570000003NN  NNW 000                       N    
RDG09005500WATRL000000004K00000000000000000007212312015121049S002000000000U91       000080400K 10000000010000000150           
CUS0900550000104274883000         BALTIMORE HARBOR PRO5610 HARFORD RD                         000N        CARE OF             
MTR09005500001000000000000000RA              31058627    001501200000012000000520000003NN  NNW 000                       N    
RDG09005500WATRL000000005K00000000000007871007312312015121103N000400000010U91       000140500K 10000000010000007839           
RTR09005500NN01360140000001360000000401220122000035YY012201220140001200110000000000000000000001    12112015NY020000 I         
RHD06422200NN00230282000000230000025902820282000033NY028202820282000700070000000000000000000002    12242015NY020000 N         
CUS0642220000106353361006         NUCCI, ANITA E (LIFE2029 E LOMBARD ST                       000N        CARE OF             
MTR06422200001000000000000000RA              79206091    005800010000000100000360000003NN  NNW 000                       N    
RDG06422200WATR 000000004R00000000000000019000001042016180000N000000000000N         000000400R 10000000010000000007           
RFF0642220069230098      ERT      0000  956.44375000140000010420161800000000196874100W 1220000N                               
CUS0642220000106186836000         GLICK, CHRISTOPHER J119 S WASHINGTON ST                     000N        CARE OF             
MTR06422200001000000000000000RA              14921287    005800020000000200000310000003NN  NNW 000                       N    
RDG06422200WATRL000000004K00000000000000184000101042016093018N000000000000U40       000000400K 10000000010000000171           
CUS0642220000106353384008         CUNEO, MATTHEW A    117 S WASHINGTON ST                     000N        CARE OF             
MTR06422200001000000000000000RA              79206462    005800030000000300000360000003NN  NNW 000                       N    
RDG06422200WATR 000000004R00000000000000020000001042016180000N000000000000N         000000400R 10000000010000000010           
RFF0642220069227197      ERT      0000  956.44375000140000010420161800000000201683100W 1220000N                               
CUS0642220000106186837008         GREENE, PETER SIMMON115 S WASHINGTON ST                     000N        CARE OF             
MTR06422200001000000000000000RA              79182395    005800040000000400000360000003NN  NNW 000                       N    
RDG06422200WATR 000000004R00000000000000012000001042016180000N000000000000N         000000400R 10000000010000000003           
RFF0642220069226787      ERT      0000  956.44375000140000010420161800000000122794100W 1220000N                               
CUS0642220000106351629008         STEBBINS, DANIEL J. 113 S WASHINGTON ST                     000N        CARE OF             
MTR06422200001000000000000000RA              78551068    005800050000000500000360000003NN  NNW 000                       N    
RDG06422200WATR 000000004R00000000000000032000001042016180000N000000000000N         000000400R 10000000010000000013           
RFF0642220068736994      ERT      0000  956.44375000140000010420161800000000325175100W 1220000N                               
CUS0642220000106342950000         MARBURGER, ERIC F.  109 S WASHINGTON ST                     000N        CARE OF             
MTR06422200001000000000000000RA              79140888    007500060000000600000360000003NN  NNW 000                       N    
RDG06422200WATR 000000004R00000000000000068000001042016180000N000000000000N         000000400R 10000000010000000028           
RFF0642220069228487      ERT      0000  956.44375000140000010420161800000000681969100W 1220000N                               
CUS0642220000106374729009         800 DEVELOPMENT     103 S WASHINGTON ST                     000N        CARE OF             
MTR06422200001000000000000000RA              78551145    005800070000000700000360000003NN  NNW 000                       N    
RDG06422200WATR 000000004R00000000000000036000001042016180000N000000000000N         000000400R 10000000010000000013           
RFF0642220068692647      ERT      0000  956.44375000140000010420161800000000363001100W 1220000N                               
CUS0642220000106342951008         LASTER, SHAMMARA K  101 S WASHINGTON ST                     000N        CARE OF             
MTR06422200001000000000000000RA              78551159    005800080000000800000360000003NN  NNW 000                       N    
RDG06422200WATR 000000004R00000000000000015000001042016180000N000000000000N         000000400R 10000000010000000006           
RFF0642220068692658      ERT      0000  956.44375000140000010420161800000000155905100W 1220000N                               
CUS0642220000106342952006         BOSLEY, KENNETH T.  2001 E LOMBARD ST                       000N        CARE OF             
MTR06422200001000000000000000RA              79142612    007500090000000900000360000003NN  NNW 000   VACANT PROPERTY     N    
RDG06422200WATR 000000004R00000000000000000000001042016180000N000100000090N         000000400R 10000000010000000000           
RFF0642220069224122      ERT      0000  956.44375000140000010420161800000000000726100W 1220000N                               
CUS0642220000106353531004         CAMERON, DREW K     2003 E LOMBARD ST                       000N        CARE OF             
MTR06422200001000000000000000RA              79207558    005800100000001000000360000003NN  NNW 000                       N    
RDG06422200WATR 000000004R00000000000000011000001042016180000N000000000000N         000000400R 10000000010000000004           
RFF0642220069230067      ERT      0000  956.44375000140000010420161800000000114088100W 1220000N                               
CUS0642220000106353368001         2005 E. LOMBARD STRE2005 E LOMBARD ST                       000N        CARE OF             
MTR06422200001000000000000000RA              79179794    005800110000001100000360000003NN  NNW 000                       N    
RDG06422200WATR 000000004R00000000000000048000001042016180000N000000000000N         000000400R 10000000010000000017           
RFF0642220069124902      ERT      0000  956.44375000140000010420161800000000482659100W 1220000N                               
CUS0642220000106342953004         LEE, KEVIN S        2007 E LOMBARD ST                       000N        CARE OF             
MTR06422200001000000000000000RA              79142257    007500120000001200000360000003NN  NNW 000                       N    
RDG06422200WATR 000000004R00000000000000034000001042016180000N000000000000N         000000400R 10000000010000000014           
RFF0642220069220773      ERT      0000  956.44375000140000010420161800000000343501100W 1220000N                               
CUS0642220000106342954002         MARSHA R ROZANSKY   2009 E LOMBARD ST                       000N        CARE OF             
MTR06422200001000000000000000RA              79217374    007500130000001300000360000003NN  NNW 000                       N    
RDG06422200WATR 000000004R00000000000000011000001042016180000N000000000000N         000000400R 10000000010000000004           
RFF0642220069230297      ERT      0000  956.44375000140000010420161800000000111387100W 1220000N                               
CUS0642220000106353383000         SHUE, ELLIOT        2011 E LOMBARD ST                       000N        CARE OF             
MTR06422200001000000000000000RA              79207544    005800140000001400000360000003NN  NNW 000                       N    
RDG06422200WATR 000000004R00000000000000015000001042016180000N000000000000N         000000400R 10000000010000000009           
RFF0642220069124476      ERT      0000  956.44375000140000010420161800000000152630100W 1220000N                               
CUS0642220000106365180006         ADRIAN KIZEWSKI     2015 E LOMBARD ST                       000N        CARE OF             
MTR06422200001000000000000000RA              78028614    007500150000001500000360000003NN  NNW 000                       N    
RDG06422200WATR 000000004R00000000000000053000001042016180000N000000000000N         000000400R 10000000010000000032           
RFF0642220069229991      ERT      0000  956.44375000140000010420161800000000537975100W 1220000N                               
CUS0642220000106342955009         ISCOE, CRAIG S      2017 E LOMBARD ST                       000N        CARE OF             
MTR06422200001000000000000000RA              75614112    005800160000001600000350000003NN  NNW 000                       N    
RDG06422200WATR 000000004R00000000000000151000001042016180000N000000000000N         000000400R 10000000010000000131           
RFF0642220069230037      ERT      0000  956.44375000140000010420161800000001517660100W 1220000N                               
CUS0642220000106342956007         MOUSSA, LAURA W     2019 E LOMBARD ST                       000N        CARE OF             
MTR06422200001000000000000000RA              79182315    005800170000001700000360000003NN  NNW 000                       N    
RDG06422200WATR 000000004R00000000000000028000001042016180000N000000000000N         000000400R 10000000010000000012           
RFF0642220069125839      ERT      0000  956.44375000140000010420161800000000287752100W 1220000N                               
CUS0642220000106342957005         JUBILEE BALTIMORE, I2021 E LOMBARD ST                       000N        CARE OF             
MTR06422200001000000000000000RA              79142149    007500180000001800000360000003NN  NNW 000                       N    
RDG06422200WATR 000000004R00000000000000041000001042016180000N000000000000N         000000400R 10000000010000000014           
RFF0642220069223004      ERT      0000  956.44375000140000010420161800000000415603100W 1220000N                               
CUS0642220000106342958003         MATERRE, LINDA D    2023 E LOMBARD ST                       000N        CARE OF             
MTR06422200001000000000000000RA              79179441    005800190000001900000360000003NN  NNW 000                       N    
RDG06422200WATR 000000004R00000000000000005000001042016180000N000300000030N         000000400R 10000000010000000001           
RFF0642220069227313      ERT      0000  956.44375000140000010420161800000000050600100W 1220000N                               
CUS0642220000106380323003         WITTENBERG, JACOB   2025 E LOMBARD ST                       000N        CARE OF             
MTR06422200001000000000000000RA              79217413    007500200000002000000360000003NN  NNW 000                       N    
RDG06422200WATR 000000004R00000000000000019000001042016180000N000300000090N         000000400R 10000000010000000002           
RFF0642220069220623      ERT      0000  956.44375000140000010420161800000000190688100W 1220000N                               
CUS0642220000106342959001         GEIGAN, ADAM        2027 E LOMBARD ST                       000N        CARE OF             
MTR06422200001000000000000000RA              79142571    007500210000002100000360000003NN  NNW 000                       N    
RDG06422200WATR 000000004R00000000000000040000001042016180000N000000000000N         000000400R 10000000010000000015           
RFF0642220069127579      ERT      0000  956.44375000140000010420161800000000402164100W 1220000N                               
CUS0642220000106353325001         ELSHAZLI & JONES HOL107 S CASTLE ST                         000N        CARE OF             
MTR06422200001000000000000000RA              77879488    005800220000002200000360000003NN  NNW 000                       N    
RDG06422200WATR 000000004R00000000000000000000001042016180000N000100000090N         000000400R 10000000010000000000           
RFF0642220069230013      ERT      0000  956.44375000140000010420161800000000005846100W 1220000N                               
CUS0642220000106342960009         HENRY, THEODORE J   109 S CASTLE ST                         000N        CARE OF             
MTR06422200001000000000000000RA              79207560    005800230000002300000360000003NN  NNW 000                       N    
RDG06422200WATR 000000004R00000000000000013000001042016180000N000000000000N         000000400R 10000000010000000006           
RFF0642220069230035      ERT      0000  956.44375000140000010420161800000000134180100W 1220000N                               
CUS0642220000106186856008         OBREBSKI, STANISLAW 111 S CASTLE ST                         000N        CARE OF             
MTR06422200001000000000000000RA              79207516    005800240000002400000360000003NN  NNW 000                       N    
RDG06422200WATR 000000004R00000000000000030000001042016180000N000000000000N         000000400R 10000000010000000012           
RFF0642220069230971      ERT      0000  956.44375000140000010420161800000000309833100W 1220000N                               
CUS0642220000106370171008         RIKER, SARA J       113 S CASTLE ST                         000N        CARE OF             
MTR06422200001000000000000000RA              77888256    005800250000002500000360000003NN  NNW 000                       N    
RDG06422200WATR 000000004R00000000000000036000001042016180000N000000000000N         000000400R 10000000010000000026           
RFF0642220069230002      ERT      0000  956.44375000140000010420161800000000361538100W 1220000N                               
CUS0642220000106186855000         LAYCOCK, JENNIFER   115 S CASTLE ST                         000N        CARE OF             
MTR06422200001000000000000000RA              79206101    005800260000002600000360000003NN  NNW 000                       N    
RDG06422200WATR 000000004R00000000000000007000001042016180000N000000000000N         000000400R 10000000010000000003           
RFF0642220069230075      ERT      0000  956.44375000140000010420161800000000078721100W 1220000N                               
CUS0642220000106186854003         LIQUIDITY INVESTMENT117 S CASTLE ST                         000N        CARE OF             
MTR06422200001000000000000000RA              77891962    005800270000002700000360000003NN  NNW 000                       N    
RDG06422200WATRL000000004K00000000000000011000201042016093150N000000000000U40       000920400K 10000000010000000005           
CUS0642220000106186853005         PARADISE, TODD F.   119 S CASTLE ST                         000N        CARE OF             
MTR06422200001000000000000000RA              77891961    005800280000002800000360000000NN  NNW 000                       N    
RDG06422200WATRL000000004K00000000000000012000301042016093218N000000000000U40       000280400K 10000000010000000005           
CUS0642220000106186852007         ZOLTEK, ROBERT A.   121 S CASTLE ST                         000N        CARE OF             
MTR06422200001000000000000000RA              79206102    005800290000002900000360000003NN  NNW 000                       N    
RDG06422200WATR 000000004R00000000000000070000001042016180000N000000000000N         000000400R 10000000010000000038           
RFF0642220069230095      ERT      0000  956.44375000140000010420161800000000701678100W 1220000N                               
CUS0642220000106186851009         PATTERSON, TIMOTHY M123 S CASTLE ST                         000N        CARE OF             
MTR06422200001000000000000000RA              79207555    005800300000003000000360000003NN  NNW 000                       N    
RDG06422200WATR 000000004R00000000000000037000001042016180000N000000000000N         000000400R 10000000010000000014           
RFF0642220069228682      ERT      0000  956.44375000140000010420161800000000376873100W 1220000N                               
CUS0642220000106186850001         COTTLE, HARVEY E    125 S CASTLE ST                         000N        CARE OF             
MTR06422200001000000000000000RA              79207556    005800310000003100000360000003NN  NNW 000                       N    
RDG06422200WATR 000000004R00000000000000014000001042016180000N000000000000N         000000400R 10000000010000000007           
RFF0642220069230089      ERT      0000  956.44375000140000010420161800000000144196100W 1220000N                               
CUS0642220000106186849003         MCQUATE, DUSTIN P.  127 S CASTLE ST                         000N        CARE OF             
MTR06422200001000000000000000RA              79206095    005800320000003200000360000003NN  NNW 000                       N    
RDG06422200WATR 000000004R00000000000000007000001042016180000N000400000090N         000000400R 10000000010000000006           
RFF0642220069228685      ERT      0000  956.44375000140000010420161800000000079231100W 1220000N                               
CUS0642220000106186848005         FRANEY, CHRISTPOHER 130 S CASTLE ST                         000N        CARE OF             
MTR06422200001000000000000000RA              79208854    005800330000003300000360000003NN  NNW 000                       N    
RDG06422200WATR 000000004R00000000000000000000001042016180000N000100000090N         000000400R 10000000010000000000           
RFF0642220069231831      ERT      0000  956.44375000140000010420161800000000000647100W 1220000N                               
CUS0642220000106345410002         PADGETT, SAMUEL CHAR128 S CASTLE ST                         000N        CARE OF             
MTR06422200001000000000000000RA              79186009    005800340000003400000360000003NN  NNW 000                       N    
RDG06422200WATR 000000004R00000000000000017000001042016180000N000000000000N         000000400R 10000000010000000010           
RFF0642220069125219      ERT      0000  956.44375000140000010420161800000000179520100W 1220000N                               
CUS0642220000106186847007         BENJAMIN S. BALLARD 126 S CASTLE ST                         000N        CARE OF             
MTR06422200001000000000000000RA              79208866    005800350000003500000360000003NN  NNW 000                       N    
RDG06422200WATR 000000004R00000000000000013000001042016180000N000000000000N         000000400R 10000000010000000008           
RFF0642220069231805      ERT      0000  956.44375000140000010420161800000000136680100W 1220000N                               
CUS0642220000106186846009         WINKLER, LEONARD H  122 S CASTLE ST                         000N        CARE OF             
MTR06422200001000000000000000RA              79207565    005800360000003600000360000003NN  NNW 000                       N    
RDG06422200WATR 000000004R00000000000000027000001042016180000N000000000000N         000000400R 10000000010000000010           
RFF0642220069230028      ERT      0000  956.44375000140000010420161800000000279829100W 1220000N                               
CUS0642220000106186845001         RHETT, CHARLES      120 S CASTLE ST                         000N        CARE OF             
MTR06422200001000000000000000RA              79206094    005800370000003700000360000003NN  NNW 000                       N    
RDG06422200WATR 000000004R00000000000000035000001042016180000N000000000000N         000000400R 10000000010000000016           
RFF0642220069230066      ERT      0000  956.44375000140000010420161800000000357044100W 1220000N                               
CUS0642220000106186844004         MCDONALD, DARCY L   118 S CASTLE ST                         000N        CARE OF             
MTR06422200001000000000000000RA              79179749    005800380000003800000360000003NN  NNW 000                       N    
RDG06422200WATR 000000004R00000000000000006000001042016180000N000300000090N         000000400R 10000000010000000000           
RFF0642220069126512      ERT      0000  956.44375000140000010420161800000000066149100W 1220000N                               
CUS0642220000106186843006         CLENDENIN, KAREN E. 116 S CASTLE ST                         000N        CARE OF             
MTR06422200001000000000000000RA              79207549    005800390000003900000360000003NN  NNW 000                       N    
RDG06422200WATR 000000004R00000000000000021000001042016180000N000000000000N         000000400R 10000000010000000007           
RFF0642220069228681      ERT      0000  956.44375000140000010420161800000000213221100W 1220000N                               
CUS0642220000106186842008         PENNINGTON, SEAN    114 S CASTLE ST                         000N        CARE OF             
MTR06422200001000000000000000RA              79207557    005800400000004000000360000003NN  NNW 000                       N    
RDG06422200WATR 000000004R00000000000000035000001042016180000N000400000090N         000000400R 10000000010000000022           
RFF0642220069230093      ERT      0000  956.44375000140000010420161800000000356050100W 1220000N                               
CUS0642220000106186841000         DELLUOMO, HAZEL M   112 S CASTLE ST                         000N        CARE OF             
MTR06422200001000000000000000RA              79207559    005800410000004100000360000003NN  NNW 000                       N    
RDG06422200WATR 000000004R00000000000000014000001042016180000N000300000090N         000000400R 10000000010000000001           
RFF0642220069230061      ERT      0000  956.44375000140000010420161800000000144483100W 1220000N                               
CUS0642220000106186840002         JOHNS, ALEXIS B (TR)110 S CASTLE ST                         000N        CARE OF             
MTR06422200001000000000000000RA              79207527    005800420000004200000360000003NN  NNW 000                       N    
RDG06422200WATR 000000004R00000000000000019000001042016180000N000000000000N         000000400R 10000000010000000012           
RFF0642220069230979      ERT      0000  956.44375000140000010420161800000000198746100W 1220000N                               
CUS0642220000106186839004         108 CASTLE, LLC     108 S CASTLE ST                         000N        CARE OF             
MTR06422200001000000000000000RA              79206134    005800430000004300000360000003NN  NNW 000                       N    
RDG06422200WATR 000000004R00000000000000015000001042016180000N000000000000N         000000400R 10000000010000000006           
RFF0642220069231004      ERT      0000  956.44375000140000010420161800000000154757100W 1220000N                               
CUS0642220000106186838006         BABCOCK III, ROBERT 106 S CASTLE ST                         000N        CARE OF             
MTR06422200001000000000000000RA              79206133    005800440000004400000360000003NN  NNW 000                       N    
RDG06422200WATR 000000004R00000000000000034000001042016180000N000000000000N         000000400R 10000000010000000013           
RFF0642220069230966      ERT      0000  956.44375000140000010420161800000000342444100W 1220000N                               
CUS0642220000106342961007         PENNER, THOMAS H.   2037 E LOMBARD ST                       000N        CARE OF             
MTR06422200001000000000000000RA              79142263    007500450000004500000360000003NN  NNW 000                       N    
RDG06422200WATR 000000004R00000000000000022000001042016180000N000000000010N         000000400R 10000000010000000014           
RFF0642220069220772      ERT      0000  956.44375000140000010420161800000000223560100W 1220000N                               
CUS0642220000106342962005         DUDLEY, WILLIAM     2041 E LOMBARD ST                       000N        CARE OF             
MTR06422200001000000000000000RA              79217419    007500460000004600000360000003NN  NNW 000                       N    
RDG06422200WATR 000000004R00000000000000045000001042016180000N000000000000N         000000400R 10000000010000000019           
RFF0642220069218193      ERT      0000  956.44375000140000010420161800000000451563100W 1220000N                               
CUS0642220000106342963003         THRESA DUNCAN       2045 E LOMBARD ST                       000N        CARE OF             
MTR06422200001000000000000000RA              79206135    005800470000004700000360000003NN  NNW 000                       N    
RDG06422200WATR 000000004R00000000000000023000001042016180000N000000000000N         000000400R 10000000010000000010           
RFF0642220069230964      ERT      0000  956.44375000140000010420161800000000236514100W 1220000N                               
CUS0642220000106353555003         KING, GARY R.       2047 E LOMBARD ST                       000N        CARE OF             
MTR06422200001000000000000000RA              79208851    005800480000004800000360000003NN  NNW 000                       N    
RDG06422200WATR 000000004R00000000000000008000001042016180000N000000000000N         000000400R 10000000010000000005           
RFF0642220069231836      ERT      0000  956.44375000140000010420161800000000088873100W 1220000N                               
CUS0642220000106342964001         TRACY, NICHOLAS ALAN2049 E LOMBARD ST                       000N        CARE OF             
MTR06422200001000000000000000RA              79182237    005800490000004900000360000003NN  NNW 000                       N    
RDG06422200WATR 000000004R00000000000000028000001042016180000N000000000000N         000000400R 10000000010000000012           
RFF0642220069126734      ERT      0000  956.44375000140000010420161800000000287929100W 1220000N                               
CUS0642220000106342965008         CHRISTINA M SIMMONS 104 S CHESTER ST                        000N        CARE OF             
MTR06422200001000000000000000RA              79182278    005800500000005000000360000003NN  NNW 000                       N    
RDG06422200WATR 000000004R00000000000000025000001042016180000N000300000090N         000000400R 10000000010000000005           
RFF0642220069230014      ERT      0000  956.44375000140000010420161800000000253918100W 1220000N                               
CUS0642220000106364869005         GAMBER, RUSSELL A.  106 S CHESTER ST                        000N        CARE OF             
MTR06422200001000000000000000RA              30517473    005800510000005100000520000003NN  NNW 000                       N    
RDG06422200WATRL000000004K00000000000001607001001042016094608N000000000000U40       002560400K 10000000010000001600           
CUS0642220000106342966006         BEENHAKKER, BARBARA 108 S CHESTER ST                        000N        CARE OF             
MTR06422200001000000000000000RA              26014382    005800520000005200000520000000NN  NNW 000                       N    
RDG06422200WATRL000000004K00000000000002280001101042016094630N000000000000U40       000220400K 10000000010000002270           
CUS0642220000106186857006         WRIGHT, DEBRA A     110 S CHESTER ST                        000N        CARE OF             
MTR06422200001000000000000000RA              79206115    005800530000005300000360000003NN  NNW 000                       N    
RDG06422200WATR 000000004R00000000000000020000001042016180000N000000000000N         000000400R 10000000010000000008           
RFF0642220069230999      ERT      0000  956.44375000140000010420161800000000209344100W 1220000N                               
CUS0642220000106186859002         WEISSMAN, JACQUELINE116 S CHESTER ST                        000N        CARE OF             
MTR06422200001000000000000000RA              79206092    005800540000005400000360000003NN  NNW 000                       N    
RDG06422200WATR 000000004R00000000000000026000001042016180000N000000000000N         000000400R 10000000010000000012           
RFF0642220069230063      ERT      0000  956.44375000140000010420161800000000262585100W 1220000N                               
CUS0642220000106353387001         CRUMMEY, ANDREW     118 S CHESTER ST                        000N        CARE OF             
MTR06422200001000000000000000RA              79207563    005800550000005500000360000003NN  NNW 000                       N    
RDG06422200WATR 000000004R00000000000000041000001042016180000N000000000000N         000000400R 10000000010000000013           
RFF0642220069230043      ERT      0000  956.44375000140000010420161800000000418242100W 1220000N                               
CUS0642220000106186860000         KLEIN, LINDSAY      120 S CHESTER ST                        000N        CARE OF             
MTR06422200001000000000000000RA              79207564    005800560000005600000360000003NN  NNW 000                       N    
RDG06422200WATR 000000004R00000000000000037000001042016180000N000000000000N         000000400R 10000000010000000015           
RFF0642220069230078      ERT      0000  956.44375000140000010420161800000000376137100W 1220000N                               
CUS0642220000106186861008         BURDETTE, ROBERT L  122 S CHESTER ST                        000N        CARE OF             
MTR06422200001000000000000000RA              79206093    005800570000005700000360000003NN  NNW 000                       N    
RDG06422200WATR 000000004R00000000000000032000001042016180000N000000000000N         000000400R 10000000010000000018           
RFF0642220069230081      ERT      0000  956.44375000140000010420161800000000329833100W 1220000N                               
CUS0642220000106186862006         DOHERTY, JAMES M    124 S CHESTER ST                        000N        CARE OF             
MTR06422200001000000000000000RA              79186063    005800580000005800000360000003NN  NNW 000                       N    
RDG06422200WATR 000000004R00000000000000000000001042016180000N000100000090N         000000400R 10000000010000000000           
RFF0642220069228666      ERT      0000  956.44375000140000010420161800000000000020100W 1220000N                               
CUS0642220000106357031001         MURPHY, JOHN P      126 S CHESTER ST                        000N        CARE OF             
MTR06422200001000000000000000RA              75614189    005800590000005900000350000003NN  NNW 000                       N    
RDG06422200WATR 000000004R00000000000000134000001042016180000N000000000000N         000000400R 10000000010000000119           
RFF0642220069229994      ERT      0000  956.44375000140000010420161800000001347609100W 1220000N                               
CUS0642220000106343020001         ESPINOZA, JORGE     123 S CHESTER ST                        000N        CARE OF             
MTR06422200001000000000000000RA              79182251    005800600000006000000360000003NN  NNW 000                       N    
RDG06422200WATR 000000004R00000000000000077000001042016180000N000000000000N         000000400R 10000000010000000031           
RFF0642220069124531      ERT      0000  956.44375000140000010420161800000000773667100W 1220000N                               
CUS0642220000106186863004         ESPINOZA, VERONICA V121 S CHESTER ST                        000N        CARE OF             
MTR06422200001000000000000000RA              79182232    005800610000006100000360000003NN  NNW 000                       N    
RDG06422200WATR 000000004R00000000000000025000001042016180000N000000000000N         000000400R 10000000010000000010           
RFF0642220069126046      ERT      0000  956.44375000140000010420161800000000253896100W 1220000N                               
CUS0642220000106342967004         YARETT, IAN         119 S CHESTER ST                        000N        CARE OF             
MTR06422200001000000000000000RA              79185946    005800620000006200000360000003NN  NNW 000                       N    
RDG06422200WATR 000000004R00000000000000017000001042016180000N000000000000N         000000400R 10000000010000000007           
RFF0642220069228626      ERT      0000  956.44375000140000010420161800000000172314100W 1220000N                               
CUS0642220000106186864002         KROGH, CHRISTOPHER C117 S CHESTER ST                        000N        CARE OF             
MTR06422200001000000000000000RA              79208770    005800630000006300000360000003NN  NNW 000                       N    
RDG06422200WATR 000000004R00000000000000033000001042016180000N000000000000N         000000400R 10000000010000000012           
RFF0642220069230252      ERT      0000  956.44375000140000010420161800000000336010100W 1220000N                               
CUS0642220000106186865009         BRANTLEY, GARTH H   115 S CHESTER ST                        000N        CARE OF             
MTR06422200001000000000000000RA              79208769    005800640000006400000360000003NN  NNW 000                       N    
RDG06422200WATR 000000004R00000000000000037000001042016180000N000000000000N         000000400R 10000000010000000011           
RFF0642220069230269      ERT      0000  956.44375000140000010420161800000000374445100W 1220000N                               
CUS0642220000106351285009         SHARAFI, LAILA ELIZA111 S CHESTER ST                        000N        CARE OF             
MTR06422200001000000000000000RA              79182297    005800650000006500000360000003NN  NNW 000                       N    
RDG06422200WATR 000000004R00000000000000021000001042016180000N000000000000N         000000400R 10000000010000000008           
RFF0642220069220630      ERT      0000  956.44375000140000010420161800000000219498100W 1220000N                               
CUS0642220000106186866007         SHORTLEY SR., THOMAS109 S CHESTER ST                        000N        CARE OF             
MTR06422200001000000000000000RA              79206138    005800660000006600000360000003NN  NNW 000                       N    
RDG06422200WATRL000000004R00000000000000000000000000000000000 000000000000U         000000400  10000000010000000036           
RFF0642220069230956      ERT      0000  956.44375000140000000000000000000000000000        0000N                               
CUS0642220000106349582004         JALOVA, ERNESTO C   107 S CHESTER ST                        000N        CARE OF             
MTR06422200001000000000000000RA              79209735    005800670000006700000360000003NN  NNW 000                       N    
RDG06422200WATR 000000004R00000000000000004000001042016180000N000000000000N         000000400R 10000000010000000002           
RFF0642220069125585      ERT      0000  956.44375000140000010420161800000000049198100W 1220000N                               
CUS0642220000106186867005         WHITE, WILLIAMS A   105 S CHESTER ST                        000N        CARE OF             
MTR06422200001000000000000000RA              79207554    005800680000006800000360000003NN  NNW 000                       N    
RDG06422200WATR 000000004R00000000000000006000001042016180000N000000000000N         000000400R 10000000010000000003           
RFF0642220069226515      ERT      0000  956.44375000140000010420161800000000068545100W 1220000N                               
CUS0642220000106186868003         YOUNG, STEVEN R     103 S CHESTER ST                        000N        CARE OF             
MTR06422200001000000000000000RA              79207573    005800690000006900000360000003NN  NNW 000                       N    
RDG06422200WATR 000000004R00000000000000055000001042016180000N000000000000N         000000400R 10000000010000000022           
RFF0642220069230068      ERT      0000  956.44375000140000010420161800000000550601100W 1220000N                               
CUS0642220000106186869001         YOUNG, LAURA        101 S CHESTER ST                        000N        CARE OF             
MTR06422200001000000000000000RA              44030121    007500700000007000000520000000NY  NNW 000                       N    
MTM0642220044030121    BURRIED                                                                                                
RDG06422200WATRL000000004K00000000000000000000000000000000000 000000000000U         000000400  10000000010000001097           
CUS0642220000106342968002         DOYLE, THOMAS P     2101 E LOMBARD ST                       000N        CARE OF             
MTR06422200001000000000000000RA              79179430    005800710000007100000360000003NN  NNW 000                       N    
RDG06422200WATR 000000004R00000000000000025000001042016180000N000000000000N         000000400R 10000000010000000011           
RFF0642220069228170      ERT      0000  956.44375000140000010420161800000000257141100W 1220000N                               
CUS0642220000106349570009         HOUSTOUN, MONIKA A. 2109 E LOMBARD ST                       000N        CARE OF             
MTR06422200001000000000000000RA              79186037    005800720000007200000360000003NN  NNW 000                       N    
RDG06422200WATRL000000004R00000000000000000000000000000000000 000000000000U         000000400  10000000010000000010           
RFF0642220069125552      ERT      0000  956.44375000140000000000000000000000000000        0000N                               
CUS0642220000106351311003         ROOS, MATTHEW       2111 E LOMBARD ST                       000N        CARE OF             
MTR06422200001000000000000000RA              79179445    005800730000007300000360000003NN  NNW 000                       N    
RDG06422200WATR 000000004R00000000000000012000001042016180000N000000000000N         000000400R 10000000010000000004           
RFF0642220069227722      ERT      0000  956.44375000140000010420161800000000121124100W 1220000N                               
CUS0642220000106342969000         CAMPOS, ARSENIO P   2115 E LOMBARD ST                       000N        CARE OF             
MTR06422200001000000000000000RA              79140902    007500740000007400000360000003NN  NNW 000                       N    
RDG06422200WATR 000000004R00000000000000018000001042016180000N000000000000N         000000400R 10000000010000000008           
RFF0642220069227224      ERT      0000  956.44375000140000010420161800000000188932100W 1220000N                               
CUS0642220000106342970008         BALTIMORE GREEN SPAC104-18 S DUNCAN ST                      000N        CARE OF             
MTR06422200001000000000000000RA              79182239    005800750000007500000360000003NN  NNW 000                       N    
RDG06422200WATR 000000004R00000000000000006000001042016180000N000400000090N         000000400R 10000000010000000005           
RFF0642220069124431      ERT      0000  956.44375000140000010420161800000000064401100W 1220000N                               
CUS0642220000106186872005         SOWA, PETER         126 S DUNCAN ST                         000N        CARE OF             
MTR06422200001000000000000000RA              78750223    005800760000007600000360000003NN  NNW 000                       N    
RDG06422200WATR 000000004R00000000000000003000001042016180000N000400000090N         000000400R 10000000010000000002           
RFF0642220069223448      ERT      0000  956.44375000140000010420161800000000034783100W 1220000N                               
CUS0642220000106186871007         GAINES, JANET       124 S DUNCAN ST                         000N        CARE OF             
MTR06422200001000000000000000RA              79182249    005800770000007700000360000003NN  NNW 000                       N    
RDG06422200WATR 000000004R00000000000000012000001042016180000N000000000000N         000000400R 10000000010000000005           
RFF0642220069124382      ERT      0000  956.44375000140000010420161800000000124777100W 1220000N                               
CUS0642220000106353552000         PIERELLI, MARY JANE 122 S DUNCAN ST                         000N        CARE OF             
MTR06422200001000000000000000RA              79179447    005800780000007800000360000003NN  NNW 000                       N    
RDG06422200WATR 000000004R00000000000000019000001042016180000N000000000000N         000000400R 10000000010000000007           
RFF0642220069228191      ERT      0000  956.44375000140000010420161800000000192330100W 1220000N                               
CUS0642220000106186870009         PIERELLI, MARY JANA 120 S DUNCAN ST                         000N        CARE OF             
MTR06422200001000000000000000RA              79182231    005800790000007900000360000003NN  NNW 000                       N    
RDG06422200WATR 000000004R00000000000000014000001042016180000N000000000000N         000000400R 10000000010000000005           
RFF0642220069124537      ERT      0000  956.44375000140000010420161800000000140089100W 1220000N                               
CUS0642220000106342971006         ADAMS, CORY W       2117 E LOMBARD ST                       000N        CARE OF             
MTR06422200001000000000000000RA              79140918    007500800000008000000360000003NN  NNW 000                       N    
RDG06422200WATR 000000004R00000000000000014000001042016180000N000000000000N         000000400R 10000000010000000006           
RFF0642220069227254      ERT      0000  956.44375000140000010420161800000000146507100W 1220000N                               
CUS0642220000106342972004         OWENS, WENDY        2127 E LOMBARD ST                       000N        CARE OF             
MTR06422200001000000000000000RA              79182252    005800810000008100000360000003NN  NNW 000                       N    
RDG06422200WATRL000000004R00000000000000000000000000000000000 000000000000U         000000400  10000000010000000016           
RFF0642220069124422      ERT      0000  956.44375000140000000000000000000000000000        0000N                               
CUS0642220000106342973002         WILT JR, MICHAEL F  2129 E LOMBARD ST                       000N        CARE OF             
MTR06422200001000000000000000RA              79140891    007500820000008200000360000003NN  NNW 000                       N    
RDG06422200WATR 000000004R00000000000000041000001042016180000N000000000000N         000000400R 10000000010000000016           
RFF0642220069227263      ERT      0000  956.44375000140000010420161800000000412815100W 1220000N                               
CUS0642220000106342974000         GEORGE L LARSON     2131 E LOMBARD ST                       000N        CARE OF             
MTR06422200001000000000000000RA              74938670    007500830000008300000350000003NN  NNW 000                       N    
RDG06422200WATR 000000004R00000000000000034000001042016180000N000100000090N         000000400R 10000000010000000034           
RFF0642220069229973      ERT      0000  956.44375000140000010420161800000000348458100W 1220000N                               
CUS0642220000106342975007         FROST, F. HALSEY    104 S COLLINGTON AVE                    000N        CARE OF             
MTR06422200001000000000000000RA              79139585    007500840000008400000360000003NN  NNW 000                       N    
RDG06422200WATR 000000004R00000000000000062000001042016180000N000000000000N         000000400R 10000000010000000031           
RFF0642220069223875      ERT      0000  956.44375000140000010420161800000000621554100W 1220000N                               
CUS0642220000106342976005         ANDERSON, ERIC C    110 S COLLINGTON AVE                    000N        CARE OF             
MTR06422200001000000000000000RA              79142268    007500850000008500000360000003NN  NNW 000                       N    
RDG06422200WATR 000000004R00000000000000014000001042016180000N000000000000N         000000400R 10000000010000000008           
RFF0642220069220743      ERT      0000  956.44375000140000010420161800000000145066100W 1220000N                               
CUS0642220000106342977003         BURGER, ERICH       112 S COLLINGTON AVE                    000N        CARE OF             
MTR06422200001000000000000000RA              79217414    007500860000008600000360000003NN  NNW 000                       N    
RDG06422200WATR 000000004R00000000000000037000001042016180000N000000000000N         000000400R 10000000010000000014           
RFF0642220069220769      ERT      0000  956.44375000140000010420161800000000373865100W 1220000N                               
CUS0642220000106186877004         SEAMAN, HEATHER B   114 S COLLINGTON AVE                    000N        CARE OF             
MTR06422200001000000000000000RA              48595715    005800870000008700000520000003NN  NNW 000                       N    
RDG06422200WATRL000000004K00000000000001250001201042016095030N000000000000U40       002400400K 10000000010000001232           
CUS0642220000106364852001         SHEININ, DAVID DONAL118 S COLLINGTON AVE                    000N        CARE OF             
MTR06422200001000000000000000RA              78857560    005800880000008800000360000003NN  NNW 000                       N    
RDG06422200WATR 000000004R00000000000000034000001042016180000N000000000000N         000000400R 10000000010000000012           
RFF0642220068823423      ERT      0000  956.44375000140000010420161800000000342943100W 1220000N                               
CUS0642220000106349563004         GRACE P TAMESIS     122 S COLLINGTON AVE                    000N        CARE OF             
MTR06422200001000000000000000RA              79207552    005800890000008900000360000003NN  NNW 000                       N    
RDG06422200WATR 000000004R00000000000000029000001042016180000N000300000050N         000000400R 10000000010000000008           
RFF0642220069228664      ERT      0000  956.44375000140000010420161800000000296820100W 1220000N                               
CUS0642220000106342978001         VITELLO, ANTHONY    124 S COLLINGTON AVE                    000N        CARE OF             
MTR06422200001000000000000000RA              79142255    007500900000009000000360000003NN  NNW 000                       N    
RDG06422200WATR 000000004R00000000000000047000001042016180000N000000000000N         000000400R 10000000010000000015           
RFF0642220069229977      ERT      0000  956.44375000140000010420161800000000470286100W 1220000N                               
CUS0642220000106347717008         CARTER, EDWARD BRENN115 S COLLINGTON AVE                    000N        CARE OF             
MTR06422200001000000000000000RA              46888344    005800910000009100000520000003NN  NNW 000                       N    
RDG06422200WATRL000000004K00000000000001850001301042016095056N000000000000U40       000260400K 10000000010000001840           
CUS0642220000106349556008         HINCHLIFFE, GREGORY 111 S COLLINGTON AVE                    000N        CARE OF             
MTR06422200001000000000000000RA              79207550    005800920000009200000360000003NN  NNW 000                       N    
RDG06422200WATR 000000004R00000000000000020000001042016180000N000000000000N         000000400R 10000000010000000006           
RFF0642220069228604      ERT      0000  956.44375000140000010420161800000000208248100W 1220000N                               
CUS0642220000106342979009         GREGORY W HINCHLIFFE109 S COLLINGTON AVE                    000N        CARE OF             
MTR06422200001000000000000000RA              79141343    007500930000009300000360000003NN  NNW 000                       N    
RDG06422200WATR 000000004R00000000000000040000001042016180000N000000000000N         000000400R 10000000010000000015           
RFF0642220069222839      ERT      0000  956.44375000140000010420161800000000403554100W 1220000N                               
CUS0642220000106342980007         107 S. COLLINGTON AV107 S COLLINGTON AVE                    000N        CARE OF             
MTR06422200001000000000000000RA              79217387    007500940000009400000360000003NN  NNW 000                       N    
RDG06422200WATR 000000004R00000000000000028000001042016180000N000000000000N         000000400R 10000000010000000011           
RFF0642220069230237      ERT      0000  956.44375000140000010420161800000000283805100W 1220000N                               
CUS0642220000106349531001         NG, YUK-CHOW/LAM,VAN105 S COLLINGTON AVE                    000N        CARE OF             
MTR06422200001000000000000000RA              79207566    005800950000009500000360000003NN  NNW 000                       N    
RDG06422200WATR 000000004R00000000000000026000001042016180000N000000000000N         000000400R 10000000010000000011           
RFF0642220069230058      ERT      0000  956.44375000140000010420161800000000266635100W 1220000N                               
CUS0642220000106342981005         KOLMAN, ROSE        101 S COLLINGTON AVE                    000N        CARE OF             
MTR06422200001000000000000000RA              79142277    007500960000009600000360000003NN  NNW 000                       N    
