FHDNNNN002000670000670000670N                                                                                           002021
RHD08455100NN01790179000001790000000001790179000321NY017901790179000300200000000000000000000002    12182014NY020000 N         
CUS0845510000108213125001         KANG, JEONG S       913 W BALTIMORE ST                      000N        CARE OF             
MTR08455100001000000000000000RA              24773706    005800010000000100000520000003NN  NNW 000                       N    
RDG08455100WATRL000000004K00000000000001683000201052015111254N000000000000N86       059410400K 10000000010000001680           
CUS0845510000108213124004         L.T. GARDEN LLC     915 W BALTIMORE ST                      000N        CARE OF             
MTR08455100001000000000000000RA              43905679    007500020000000200000520000003NN  NNW 000                       N    
RDG08455100WATRL000000004K00000000000002064000301052015111303N000000000000N86       000090400K 10000000010000002055           
CUS0845510000108213106001         PROFITABLE PROPERTY 1015 W BALTIMORE ST                     000N        CARE OF             
MTR08455100001000000000000000RA              35100804    007500030000000300000520000003NN  NNW 000                       N    
RDG08455100WATRL000000004K00000000000005297004501052015113720N000000000000N86       000350400K 10000000010000005297           
CUS0845510000108213105003         JONES, QUEEN E.     1017 W BALTIMORE ST                     000N        CARE OF             
MTR08455100001000000000000000RA              52292788    007500040000000400000520000003NN  NNW 000                       N    
RDG08455100WATRL000000004K00000000000000851005201052015114124N000000000000N86       001260400K 10000000010000000791           
CUS0845510000108213104006         FREDERICK AVENUE    1019 W BALTIMORE ST                     000N        CARE OF             
MTR08455100001000000000000000RA              45388279    007500050000000500000520000003NN  NNW 000                       N    
RDG08455100WATRL000000004K00000000000003939005301052015114133N000000000000N86       000090400K 10000000010000003901           
CUS0845510000108213103008         FREDERICK AV DEV COR1021 W BALTIMORE ST                     000N        CARE OF             
MTR08455100001000000000000000RA              33736294    007500060000000600000520000003NN  NNW 000                       N    
RDG08455100WATRL000000004K00000000000006393005401052015114150N000300000010N86       000170400K 10000000010000006293           
CUS0845510000108213102000         FREDERICK AV DEV COR1023 W BALTIMORE ST                     000N        CARE OF             
MTR08455100001000000000000000RA              30000321    007500070000000700000570000003NN  NNW 000                       N    
RDG08455100WATRL000000004K00000000000004253005501052015114154N000400000010N86       000040400K 10000000010000004246           
CUS0845510000108213101002         FREDERICK AV DEV COR1025 W BALTIMORE ST                     000N        CARE OF             
MTR08455100001000000000000000RA              30001840    007500080000000800000570000003NN  NNW 000                       N    
RDG08455100WATRL000000004K00000000000000754005601052015114204N000000000000N86       000100400K 10000000010000000703           
CUS0845510000108213100004         FREDERICK AVE DEVELO1027 W BALTIMORE ST                     000N        CARE OF             
MTR08455100001000000000000000RA              33736292    007500090000000900000520000003NN  NNW 000                       N    
RDG08455100WATRL000000004K00000000000008812005701052015114223N000000000000N86       000190400K 10000000010000008615           
CUS0845510000108213097002         FREDERICK AVENUE    1033-35 W BALTIMORE ST                  000N        CARE OF             
MTR08455100001000000000000000RA              33736296    007500100000001000000520000003NN  NNW 000                       N    
RDG08455100WATRL000000004K00000000000001480005801052015114243N000400000010N86       000200400K 10000000010000001472           
CUS0845510000108213093001         TMG 21223, LLC      1103 W BALTIMORE ST                     000N        CARE OF             
MTR08455100001000000000000000RA              01098139    007500110000001100000610000000NN  NNW 000                       N    
RDG08455100WATRL000000004K00000000000002630000101062015091253N000000000000U86       000000400K 10000000010000002481           
CUS0845510000108213090007         TMC HOLDINGS, LLC   1113 W BALTIMORE ST                     000N        CARE OF             
MTR08455100001000000000000000RA              52292903    007500120000001200000520000003NN  NNW 000   VACANT PROPERTY     N    
RDG08455100WATRL000000004K00000000000000000000201062015091340S002000000000U86       000470400K 10000000010000000000           
CUS0845510000108213089009         TMC HOLDINGS, LLC   1115 W BALTIMORE ST                     000N        CARE OF             
MTR08455100001000000000000000RA              76349484    007500130000001300000350000003NN  NNW 000                       N    
RDG08455100WATRL000000004K00000000000000001000301062015091348N000000000000U86       000080400K 10000000010000000001           
CUS0845510000108213087003         STATON, TYRONE      1119 W BALTIMORE ST                     000N        CARE OF             
MTR08455100001000000000000000RA              76349486    007500140000001400000350000003NN  NNW 000                       N    
RDG08455100WATRL000000004K00000000000000004000401062015091421N000400000010U86       000330400K 10000000010000000003           
CUS0845510000108213086005         GEORGE, RODNEY D    1121 W BALTIMORE ST                     000N        CARE OF             
MTR08455100001000000000000000RA              39080555    007500150000001500000520000003NN  NNW 000   VACANT PROPERTY     N    
RDG08455100WATRL000000004K00000000000000768000501062015091529N000000000000U86       000680400K 10000000010000000768           
CUS0845510000108213085007         EXCELSIS, LLC       1123-25 W BALTIMORE ST                  000N        CARE OF             
MTR08455100001000000000000000RA              43905624    007500160000001600000520000003NN  NNW 000                       N    
RDG08455100WATRL000000004K00000000000005561000601062015091639N000400000010U86       000700400K 10000000010000005560           
CUS0845510000108213084000         SABINTSEV, ALEXANDER1127 W BALTIMORE ST                     000N        CARE OF             
MTR08455100001000000000000000RA              01092969    005800170000001700000610000003NN  NNW 000                       N    
RDG08455100WATRL000000004K00000000000000007000701062015091712N000100000010U86       000330400K 10000000010000000007           
CUS0845510000108365469009         THE REAL ESTATE INVE1131 W BALTIMORE ST                     000N        CARE OF             
MTR08455100001000000000000000RA              14929115    005800180000001800000310000003NN  NNW 000                       N    
RDG08455100WATRL000000004K00000000000000458000901062015092025N000000000000U86       000230400K 10000000010000000458           
CUS0845510000108363165005         SABINTSEV, ALEXANDER1129 W BALTIMORE ST                     000N        CARE OF             
MTR08455100001000000000000000RA              74690122    005800190000001900000350000003NN  NNW 000                       N    
RDG08455100WATRL000000004K00000000000000027000801062015092002N000400000010U86       001700400K 10000000010000000025           
CUS0845510000108375818005         KO, KYONG S         1133 W BALTIMORE ST                     000N        CARE OF             
MTR08455100001000000000000000RA              10010975    005800200000002000000570000003NN  NNW 000   VACANT PROPERTY     N    
RDG08455100WATRL000000004K00000000000000000001101062015092142N000000000000U86       000280400K 10000000010000000000           
CUS0845510000108364497001         EXCELSIS, LLC       1135 W BALTIMORE ST                     000N        CARE OF             
MTR08455100001000000000000000RA              14911910    005800210000002100000310000003NN  NNW 000                       N    
RDG08455100WATRL000000004K00000000000000182001001062015092114N000100000010U86       000490400K 10000000010000000182           
CUS0845510000108213083002         MCLEAN JR., LOFTON  1139 W BALTIMORE ST                     000N        CARE OF             
MTR08455100001000000000000000RA              46883164    005800220000002200000520000003NN  NNW 000                       N    
RDG08455100WATRL000000004K00000000000000517001501062015093019N000000000000U86       000500400K 10000000010000000516           
CUS0845510000108213082004         KIM, CHONG HYE      1141-43 W BALTIMORE ST                  000N        CARE OF             
MTR08455100001000000000000000RA              76349589    007500230000002300000350000003NN  NNW 000                       N    
RDG08455100WATRL000000004K00000000000000102001401062015092929N000000000000U86       003560400K 10000000010000000079           
CUS0845510000108213081006         ANARKALEE, INC      5-7 S CARROLLTON AVE                    000N        CARE OF             
MTR08455100001000000000000000RA              24766369    005800240000002400000520000003NN  NNW 000                       N    
RDG08455100WATRL000000004K00000000000002327001601062015093538N000100000010U86       003190400K 10000000010000002327           
CUS0845510000108213080008         COMMUNITIES ORGANIZE9-11 S CARROLLTON AVE                   000N        CARE OF             
MTR08455100001000000000000000RA              30002437    007500250000002500000570000003NN  NNW 000                       N    
RDG08455100WATRL000000004K00000000000000000001701062015093628N000000000000U86       000500400K 10000000010000000000           
CUS0845510000108213079000         13 CARROLLTON LLC   13-15 S CARROLLTON AVE                  000N        CARE OF             
MTR08455100001000000000000000RA              00119374    007500260000002600000570000000NN  NNW 000                       N    
RDG08455100WATRL000000004K00000000000000307001801062015093657N000000000000U86       000290400K 10000000010000000295           
CUS0845510000108213078002         13 CARROLLTON LLC   17 S CARROLLTON AVE                     000N        CARE OF             
MTR08455100001000000000000000RA              14901578    005800270000002700000310000003NN  NNW 000                       N    
RDG08455100WATRL000000004K00000000000001875001901062015093711N000000000000U86       000140400K 10000000010000001844           
CUS0845510000108384269000         PANTANAL PROP INC . 19 S CARROLLTON AVE                     000N        CARE OF             
MTR08455100001000000000000000RA              14912199    005800280000002800000310000003NN  NNW 000                       N    
RDG08455100WATRL000000004K00000000000000723001201062015092241N000000000000U86       000590400K 10000000010000000709           
CUS0845510000108213077004         PANTANAL PROP INC . 21 S CARROLLTON AVE                     000N        CARE OF             
MTR08455100001000000000000000RA              30528386    005800290000002900000520000003NN  NNW 000                       N    
RDG08455100WATRL000000004K00000000000003626002001062015093731N000000000000U86       000200400K 10000000010000003613           
CUS0845510000108213076006         KIM, JOHNNY C       23-25 S CARROLLTON AVE                  000N        CARE OF             
MTR08455100001000000000000000RA              46889529    007500300000003000000520000003NN  NNW 000                       N    
RDG08455100WATRL000000004K00000000000001220002101062015093854N000100000021U86       000190400K 10000000010000001220           
CUS0845510000108346318002         JACKSON, TIFFANY    76 S CARROLLTON AVE                     000N        CARE OF             
MTR08455100001000000000000000RA              10019822    005800310000003100000570000003NN  NNW 000                       N    
RDG08455100WATRL000000004K00000000000000055004401062015095021N000300000010U86       002110400K 10000000010000000036           
CUS0845510000108346320008         GOMPF, MATTHEW K    72 S CARROLLTON AVE                     000N        CARE OF             
MTR08455100001000000000000000RA              74690543    005800320000003200000350000003NN  NNW 000                       N    
RDG08455100WATRL000000004K00000000000000101004501062015095054N000000000000U86       000330400K 10000000010000000083           
CUS0845510000108346321006         SOUTH CARROLLTON 70 70 S CARROLLTON AVE                     000N        CARE OF             
MTR08455100001000000000000000RA              10007511    005800330000003300000570000003NN  NNW 000                       N    
RDG08455100WATRL000000004K00000000000000356004601062015095056N000000000000U86       000020400K 10000000010000000336           
CUS0845510000108346322004         WILKENS FOUR, INC.  68 S CARROLLTON AVE                     000N        CARE OF             
MTR08455100001000000000000000RA              46878046    005800340000003400000520000000NN  NNW 000                       N    
RDG08455100WATRL000000004K00000000000001327004701062015095149N000100000010U86       000530400K 10000000010000001327           
CUS0845510000108363220008         WHEELER, DWAYNE     66 S CARROLLTON AVE                     000N        CARE OF             
MTR08455100001000000000000000RA              46878045    005800350000003500000520000000NN  NNW 000                       N    
RDG08455100WATRL000000004K00000000000001210004801062015095150N000000000000U86       000010400K 10000000010000001210           
CUS0845510000108346323002         MOXLEY, CONSTANCE MA64 S CARROLLTON AVE                     000N        CARE OF             
MTR08455100001000000000000000RA              48583834    005800360000003600000520000000NN  NNW 000                       N    
RDG08455100WATRL000000004K00000000000002802004901062015095223N000000000000U86       000330400K 10000000010000002785           
CUS0845510000108346324000         WVILLAGE3 LLC       62 S CARROLLTON AVE                     000N        CARE OF             
MTR08455100001000000000000000RA              48583831    005800370000003700000520000003NN  NNW 000                       N    
RDG08455100WATRL000000004K00000000000001384005001062015095226N000400000010U86       000030400K 10000000010000001383           
CUS0845510000108346325007         HOLLINSFARM2, LLC   60 S CARROLLTON AVE                     000N        CARE OF             
MTR08455100001000000000000000RA              14902512    005800380000003800000310000003NN  NNW 000                       N    
RDG08455100WATRL000000004K00000000000000715005101062015095254N000300000010U86       000280400K 10000000010000000691           
CUS0845510000108346326005         WILKENS THREE, INC. 58 S CARROLLTON AVE                     000N        CARE OF             
MTR08455100001000000000000000RA              14902513    005800390000003900000310000000NN  NNW 000                       N    
RDG08455100WATRL000000004K00000000000001086005201062015095255N000000000000U86       000010400K 10000000010000001043           
CUS0845510000108346327003         M COLLETT/DORIS KAHL56 S CARROLLTON AVE                     000N        CARE OF             
MTR08455100001000000000000000RA              74692248    005800400000004000000350000003NN  NNW 000                       N    
RDG08455100WATRL000000004K00000000000000122005401062015095359N000000000000U86       000310400K 10000000010000000109           
CUS0845510000108213727004         BOLTON INVESTMENT LL54 S CARROLLTON AVE                     000N        CARE OF             
MTR08455100001000000000000000RA              48592942    005800410000004100000520000003NN  NNW 000   VACANT PROPERTY     N    
RDG08455100WATRL000000004K00000000000001254005301062015095328N000000000000U86       000330400K 10000000010000001254           
CUS0845510000108213726006         WASHINGTON, MICHAEL 52 S CARROLLTON AVE                     000N        CARE OF             
MTR08455100001000000000000000RA              27812336    005800420000004200000520000000NN  NNW 000   VACANT PROPERTY     N    
RDG08455100WATRL000000004K00000000000000000005501062015095424S002000000000U86       000250400K 10000000010000001857           
CUS0845510000108213725008         BAHIA, LLC.         46-48 S CARROLLTON AVE                  000N        CARE OF             
MTR08455100001000000000000000RA              45388444    007500430000004300000520000000NN  NNW 000                       N    
RDG08455100WATRL000000004K00000000000000668005601062015095513N000000000000U86       000490400K 10000000010000000668           
CUS0845510000108213724001         MATADEIRO, LLC      44 S CARROLLTON AVE                     000N        CARE OF             
MTR08455100001000000000000000RA              99293253    005800440000004400000570000003NN  NNW 000                       N    
RDG08455100WATRL000000004K00000000000000143005701062015095553N000000000010U86       000400400K 10000000010000000142           
CUS0845510000108213723003         PANTANAL PROPERTIES 42 S CARROLLTON AVE                     000N        CARE OF             
MTR08455100001000000000000000RA              30528998    007500450000004500000520000003NN  NNW 000                       N    
RDG08455100WATRL000000004K00000000000002779005801062015095723N000400000010U86       000900400K 10000000010000002771           
CUS0845510000108213599007         COLLINS, JAMES EDWAR40 S CARROLLTON AVE                     000N        CARE OF             
MTR08455100001000000000000000RA              41193863    007500460000004600000520000003NN  NNW 000                       N    
RDG08455100WATRL000000004K00000000000001174006501062015100301N000000000000U86       000570400K 10000000010000001164           
CUS0845510000108213598009         CATHERINE CLACK VAN 38 S CARROLLTON AVE                     000N        CARE OF             
MTR08455100001000000000000000RA              33736418    007500470000004700000520000003NN  NNW 000                       N    
RDG08455100WATRL000000004K00000000000003383002301062015094013N000000000000U86       000390400K 10000000010000003349           
CUS0845510000108363209001         PANTANA PROPERTIES I34 S CARROLLTON AVE                     000N        CARE OF             
MTR08455100001000000000000000RA              99412081    007500480000004800000570000000NN  NNW 000   VACANT PROPERTY     N    
RDG08455100WATRL000000004K00000000000000328002401062015094047N000000000000U86       000340400K 10000000010000000328           
CUS0845510000108213597001         TANGOREN, ALI I     32 S CARROLLTON AVE                     000N        CARE OF             
MTR08455100001000000000000000RA              00120781    007500490000004900000570000000NN  NNW 000   VACANT PROPERTY     N    
RDG08455100WATRL000000004K00000000000000000002501062015094103S002000000000U86       000160400K 10000000010000000002           
CUS0845510000108213596003         PRICE, DERRICK D    30 S CARROLLTON AVE                     000N        CARE OF             
MTR08455100001000000000000000RA              27893383    007500500000005000000520000003NN  NNW 000                       N    
RDG08455100WATRL000000004K00000000000001739002601062015094148N000100000010U86       000450400K 10000000010000001739           
CUS0845510000108375250001         MATTHEWS, LLOYD G.  26 S CARROLLTON AVE                     000N        CARE OF             
MTR08455100001000000000000000RA              52287553    005800510000005100000520000003NN  NNW 000                       N    
RDG08455100WATRL000000004K00000000000000617002701062015094150N000000000000U86       000020400K 10000000010000000617           
CUS0845510000108377740009         VENDOME, LLC        24 S CARROLLTON AVE                     000N        CARE OF             
MTR08455100001000000000000000RA              52768021    005800520000005200000520000003NN  NNW 000                       N    
RDG08455100WATRL000000004K00000000000000329002801062015094225N000000000000U86       000350400K 10000000010000000317           
CUS0845510000108363194005         BURGESS, AMOS       22 S CARROLLTON AVE                     000N        CARE OF             
MTR08455100001000000000000000RA              10007900    005800530000005300000570000003NN  NNW 000                       N    
RDG08455100WATRL000000004K00000000000000504002901062015094311N000000000000U86       000460400K 10000000010000000488           
CUS0845510000108363237002         DC BALTIMORE, LLC.  20 S CARROLLTON AVE                     000N        CARE OF             
MTR08455100001000000000000000RA              44174546    005800540000005400000520000000NN  NNW 000                       N    
RDG08455100WATRL000000004K00000000000001617003001062015094332N000000000000U86       000210400K 10000000010000001617           
CUS0845510000108213593000         CLARKE CECIL        1201 W BALTIMORE ST                     000N        CARE OF             
MTR08455100001000000000000000RA              00066788    001500550000005500000570000003NN  NNW 000                       N    
RDG08455100WATRL000000005K00000000000001835003101062015094412N000000000000U86       000400500K 10000000010000001834           
CUS0845510000108363166003         NAGIE, MOHAMED      1207 W BALTIMORE ST                     000N        CARE OF             
MTR08455100001000000000000000RA              50790788    005800560000005600000520000003NN  NNW 000                       N    
RDG08455100WATRL000000004K00000000000000593003201062015094525N000000000000U86       000730400K 10000000010000000573           
CUS0845510000108380365000         MILTON KAPLAN TRUSTE1209 W BALTIMORE ST                     000N        CARE OF             
MTR08455100001000000000000000RA              01095446    005800570000005700000610000003NN  NNW 000   VACANT PROPERTY     N    
RDG08455100WATRL000000004K00000000000000000003301062015094530S022000000000U86       000050400K 10000000010000000191           
CUS0845510000108213592002         KAPLAN, LOUIS       1211 W BALTIMORE ST                     000N        CARE OF             
MTR08455100001000000000000000RA              52292053    007500580000005800000520000003NN  NNW 000   VACANT PROPERTY     N    
RDG08455100WATRL000000004K00000000000000000003401062015094533S022000000000U86       000030400K 10000000010000000677           
CUS0845510000108213591004         KAPLAN, LOUIS       1213 W BALTIMORE ST                     000N        CARE OF             
MTR08455100001000000000000000RA              99999999    007500590000005900000620000000NN  NNW 000                       N    
RDG08455100WATRL000000004K00000000000000000003501062015094535S022000000000U86       000020400K 10000000010000000000           
CUS0845510000108213590006         PRINCE, LEO         1215 W BALTIMORE ST                     000N        CARE OF             
MTR08455100001000000000000000RA              99999999    007500600000006000000620000003NN  NNW 000                       N    
RDG08455100WATRL000000004K00000000000000000003601062015094538S022000000000U86       000030400K 10000000010000000000           
CUS0845510000108363182000         CHUNG, BYUNG R      1217 W BALTIMORE ST                     000N        CARE OF             
MTR08455100001000000000000000RA              99999999    005800610000006100000620000003NN  NNW 000   VACANT PROPERTY     N    
RDG08455100WATRL000000004K00000000000000000003701062015094540S022000000000U86       000020400K 10000000010000000256           
CUS0845510000108213589008         BLUE DIAMOND PROPERT1221 W BALTIMORE ST                     000N        CARE OF             
MTR08455100001000000000000000RA              99999999    007500620000006200000620000003NN  NNW 000                       N    
RDG08455100WATRL000000004K00000000000000000003801062015094543S022000000000U86       000030400K 10000000010000001008           
CUS0845510000108213588000         CHURCH OF JESUS CHRI10-12 S STOCKTON ST                     000N        CARE OF             
MTR08455100001000000000000000RA              26375803    007500630000006300000520000003NN  NNW 000                       N    
RDG08455100WATRL000000004K00000000000001500003901062015094611N000100000010U86       000280400K 10000000010000001500           
CUS0845510000108389409007         HABIB, MARC         38 S STOCKTON ST                        000N        CARE OF             
MTR08455100001000000000000000RA              10013223    005800640000006400000570000003NN  NNW 000                       N    
RDG08455100WATRL000000004K00000000000000208007401062015101146N000000000000U86       000040400K 10000000010000000202           
CUS0845510000108389410005         HABIB, MARC         40 S STOCKTON ST                        000N        CARE OF             
MTR08455100001000000000000000RA              36690526    005800650000006500000520000003NN  NNW 000                       N    
RDG08455100WATRL000000004K00000000000005035007301062015101142N000000000000U86       000530400K 10000000010000004997           
CUS0845510000108380369002         HUNT, HELEN H.      42 S STOCKTON ST                        000N        CARE OF             
MTR08455100001000000000000000RA              45380867    005800660000006600000520000003NN  NNW 000                       N    
RDG08455100WATRL000000004K00000000000001847007201062015101049N000000000000U86       000310400K 10000000010000001831           
CUS0845510000108375248005         BAILEY, DAVID ENDICO44 S STOCKTON ST                        000N        CARE OF             
MTR08455100001000000000000000RA              10002069    005800670000006700000570000003NN  NNW 000                       N    
RDG08455100WATRL000000004K00000000000000143007101062015101018N000000000000U86       000460400K 10000000010000000136           
CUS0845510000108376779008         WISTERIA DEVELOPMENT46 S STOCKTON ST                        000N        CARE OF             
MTR08455100001000000000000000RA              10002067    005800680000006800000570000003NN  NNW 000                       N    
RDG08455100WATRL000000004K00000000000000267007001062015100932N000000000010U86       000210400K 10000000010000000245           
CUS0845510000108384356005         SCHMINCKE, ALICE I  48 S STOCKTON ST                        000N        CARE OF             
MTR08455100001000000000000000RA              10013177    005800690000006900000570000000NN  NNW 000                       N    
RDG08455100WATRL000000004K00000000000000311006901062015100911N000000000000U86       000310400K 10000000010000000290           
CUS0845510000108363146005         MOHAMMED GHANI & TAN50 S STOCKTON ST                        000N        CARE OF             
MTR08455100001000000000000000RA              10018995    005800700000007000000570000003NN  NNW 000                       N    
RDG08455100WATRL000000004K00000000000000100006801062015100840N000000000000U86       000490400K 10000000010000000088           
CUS0845510000108213583001         POPPLETON VILLAGE CO1223 W BALTIMORE ST                     000N        CARE OF             
MTR08455100001000000000000000RA              28766873    007500710000007100000520000003NN  NNW 000   VACANT PROPERTY     N    
RDG08455100WATRL000000004K00000000000000354004001062015094618N000000000000U86       000070400K 10000000010000000354           
CUS0845510000108213582003         POPPLETON VILLAGE CO1225 W BALTIMORE ST                     000N        CARE OF             
MTR08455100001000000000000000RA              40248878    007500720000007200000520000003NN  NNW 000   VACANT PROPERTY     N    
RDG08455100WATRL000000004K00000000000002617004101062015094621N000000000000U86       000030400K 10000000010000002617           
CUS0845510000108213581005         LIM FAMILY, LLC     1227-29 W BALTIMORE ST                  000N        CARE OF             
MTR08455100001000000000000000RA              52768746    005800730000007300000520000003NN  NNW 000                       N    
RDG08455100WATRL000000004K00000000000000847010201062015104816N000000000000U86       000170400K 10000000010000000835           
CUS0845510000108213580007         CHUNG, KYE S        1237 W BALTIMORE ST                     000N        CARE OF             
MTR08455100001000000000000000RA              27065120    007500750000007500000520000003NN  NNW 000                       N    
RDG08455100WATRL000000004K00000000000000000010101062015104759S063000000000U86       000380400K 10000000010000004078           
CUS0845510000108213579009         CHUNG, KYE S        1239-41 W BALTIMORE ST                  000N        CARE OF             
MTR08455100001000000000000000RA              46890473    007500760000007600000520000003NN  NNW 000   VACANT PROPERTY     N    
RDG08455100WATRL000000004K00000000000000527010001062015104721N000000000000U86       000300400K 10000000010000000527           
CUS0845510000108213578001         UJ PROPERTIES, LLC  1231 W BALTIMORE ST                     000N        CARE OF             
MTR08455100001000000000000000RA              75427253    007500770000007700000350000003NN  NNW 000                       N    
RDG08455100WATRL000000004K00000000000001184009801092015141344O000000000021U80       000350400K 10000000010000001072           
CUS0845510000108380366008         HALL, MICHAEL       5 S CAREY ST                            000N        CARE OF             
MTR08455100001000000000000000RA              10004015    005800780000007800000570000003NN  NNW 000                       N    
RDG08455100WATRL000000004K00000000000000020009901062015104651N000000000000U86       000530400K 10000000010000000020           
CUS0845510000108212876000         COTTEN CONSTRUCTION 7 S CAREY ST                            000N        CARE OF             
MTR08455100001000000000000000RA              44177939    005800790000007900000520000000NN  NNW 000                       N    
RDG08455100WATRL000000004K00000000000000636011301062015122923N000000000000U86       000030400K 10000000010000000624           
CUS0845510000108213577003         YOUMAN FULLARD      9 S CAREY ST                            000N        CARE OF             
MTR08455100001000000000000000RA              00120111    007500800000008000000570000003NN  NNW 000                       N    
RDG08455100WATRL000000004K00000000000002335011201062015122920N000000000000U86       000030400K 10000000010000002305           
CUS0845510000108377743003         ALTISOURCE          11 S CAREY ST                           000N        CARE OF             
MTR08455100001000000000000000RA              14901580    005800810000008100000310000003NN  NNW 000                       N    
RDG08455100WATRL000000004K00000000000000186011101062015122917N000000000000U86       000020400K 10000000010000000186           
CUS0845510000108213716007         COPELAND, JAMES G   13 S CAREY ST                           000N        CARE OF             
MTR08455100001000000000000000RA              30002015    007500820000008200000570000003NN  NNW 000                       N    
RDG08455100WATRL000000004K00000000000000331011001062015122915N000000000000U86       000030400K 10000000010000000305           
CUS0845510000108212877008         SHIP-HOROWITZ, TERRI15 S CAREY ST                           000N        CARE OF             
MTR08455100001000000000000000RA              14926197    005800830000008300000310000000NN  NNW 000                       N    
RDG08455100WATRL000000004K00000000000000145010901062015122912N000000000000U86       000030400K 10000000010000000145           
CUS0845510000108212878006         SHIP-HOROWITZ, TERRI17 S CAREY ST                           000N        CARE OF             
MTR08455100001000000000000000RA              14928615    005800840000008400000310000003NN  NNW 000                       N    
RDG08455100WATRL000000004K00000000000001021010801062015122909N000000000000U86       000030400K 10000000010000001021           
CUS0845510000108363160006         URBAN PHOENIX PROPER21 S CAREY ST                           000N        CARE OF             
MTR08455100001000000000000000RA              99999999    005800850000008500000620000003NN  NNW 000                       N    
RDG08455100WATRL000000004K00000000000000000010701062015122906S002000000000U86       057210400K 10000000010000001258           
CUS0845510000108213604005         SUBHI BADRA         1232 HOLLINS ST                         000N        CARE OF             
MTR08455100001000000000000000RA              46885596    005800860000008600000520000003NY  NNW 000                       N    
MTM0845510046885596    FROZEN                                                                                                 
RDG08455100WATRL000000004K00000000000000000000000000000000000 000000000000U         000000400  10000000010000001058           
CUS0845510000108213603007         KIM, GI DUK         1216-18 HOLLINS ST                      000N        CARE OF             
MTR08455100001000000000000000RA              26375768    007500870000008700000520000003NN  NNW 000                       N    
RDG08455100WATRL000000004K00000000000007565008601062015101935N000000000000U86       000990400K 10000000010000007565           
CUS0845510000108213602009         KIM, GI DUK         1214 HOLLINS ST                         000N        CARE OF             
MTR08455100001000000000000000RA              99999999    007500880000008800000620000003NN  NNW 000   VACANT PROPERTY     N    
RDG08455100WATRL000000004K00000000000000000004301062015100204S002000000001U86       000190400K 10000000010000004219           
CUS0845510000108213601001         FIRST HORIZON HOME L1212 HOLLINS ST                         000N        CARE OF             
MTR08455100001000000000000000RA              30002438    007500890000008900000570000003NN  NNW 000                       N    
RDG08455100WATRL000000004K00000000000000000004201062015094636N000000000000U86       000150400K 10000000010000000000           
CUS0845510000108363195002         KINGDOM LIVING, LLC 1210 HOLLINS ST                         000N        CARE OF             
MTR08455100001000000000000000RA              10012740    005800900000009000000570000000NN  NNW 000                       N    
RDG08455100WATRL000000004K00000000000000726006301062015100042N000000000000U86       000490400K 10000000010000000707           
CUS0845510000108372536006         PAIGE, LEROY        1208 HOLLINS ST                         000N        CARE OF             
MTR08455100001000000000000000RA              99286699    005800910000009100000570000003NN  NNW 000                       N    
RDG08455100WATRL000000004K00000000000000629006401062015100145N000000000000U86       000630400K 10000000010000000620           
CUS0845510000108366826009         TINKER, ARTHUR L    1206 HOLLINS ST                         000N        CARE OF             
MTR08455100001000000000000000RA              39924184    005800920000009200000520000003NN  NNW 000                       N    
RDG08455100WATRL000000004K00000000000001160006201062015095953N000000000000U86       000030400K 10000000010000001149           
CUS0845510000108213600003         PRATT JR, GERALD L  1204 HOLLINS ST                         000N        CARE OF             
MTR08455100001000000000000000RA              25591912    007500930000009300000520000003NN  NNW 000                       N    
RDG08455100WATRL000000004K00000000000001349006101062015095950N000000000000U86       000490400K 10000000010000001349           
CUS0845510000108213722005         PANTANAL PROPERTIES 1205-07 HOLLINS ST                      000N        CARE OF             
MTR08455100001000000000000000RA              75426934    007500940000009400000350000003NN  NNW 000                       N    
RDG08455100WATRL000000004K00000000000000009005901062015095820N000000000010U86       000570400K 10000000010000000304           
CUS0845510000108213721007         BAREH/ONE, LLC      1209 HOLLINS ST                         000N        CARE OF             
MTR08455100001000000000000000RA              30000050    007500950000009500000570000003NN  NNW 000                       N    
RDG08455100WATRL000000004K00000000000000362006001062015100552N000000000011U86       001710400K 10000000010000000346           
CUS0845510000108213720009         SMITH II, GEORGE VAN1211 HOLLINS ST                         000N        CARE OF             
MTR08455100001000000000000000RA              26375771    007500960000009600000520000000NY  NNW 000   VACANT PROPERTY     N    
MTM0845510026375771    CANT FIND                                                                                              
RDG08455100WATRL000000004K00000000000000000000000000000000000 000000000000U         000000400  10000000010000002680           
CUS0845510000108363198006         DELMOCK TECHNOLOGIES1213 HOLLINS ST                         000N        CARE OF             
MTR08455100001000000000000000RA              14901667    005800970000009700000310000003NN  NNW 000                       N    
RDG08455100WATRL000000004K00000000000000797006701062015100751N000000000000U86       000190400K 10000000010000000762           
CUS0845510000108363196000         KDX ENTERPRISES, LLC1215 HOLLINS ST                         000N        CARE OF             
MTR08455100001000000000000000RA              50787588    005800980000009800000520000003NN  NNW 000                       N    
RDG08455100WATRL000000004K00000000000001010006601062015100732N000000000000U86       001000400K 10000000010000001010           
CUS0845510000108384270008         THOMPSON, FAVION    1217 HOLLINS ST                         000N        CARE OF             
MTR08455100001000000000000000RA              48595153    005800990000009900000520000003NN  NNW 000                       N    
RDG08455100WATRL000000004K00000000000002513007501062015101241N000000000000U86       000550400K 10000000010000002509           
CUS0845510000108212904000         WALLACE, JOHN S.    1219 HOLLINS ST                         000N        CARE OF             
MTR08455100001000000000000000RA              99999999    005801000000010000000620000000NN  NNW 000                       N    
RDG08455100WATRL000000004K00000000000000000007601062015101322S002000000000U86       000410400K 10000000010000002751           
CUS0845510000108213719001         BARTINA B MASON     1221 HOLLINS ST                         000N        CARE OF             
MTR08455100001000000000000000RA              36699107    007501010000010100000520000003NN  NNW 000                       N    
RDG08455100WATRL000000004K00000000000002520007701062015101358N000000000000U86       000360400K 10000000010000002506           
CUS0845510000108380700008         ROBINSON, CALVIN R  1223 HOLLINS ST                         000N        CARE OF             
MTR08455100001000000000000000RA              75616081    005801020000010200000350000003NN  NNW 000                       N    
RDG08455100WATRL000000004K00000000000000335007801062015101452N000000000000U86       000540400K 10000000010000000248           
CUS0845510000108213718003         HARRIS, JONATHAN    1225 HOLLINS ST                         000N        CARE OF             
MTR08455100001000000000000000RA              52292545    007501030000010300000520000003NN  NNW 000                       N    
RDG08455100WATRL000000004K00000000000003874007901062015101507N000000000000U86       000150400K 10000000010000003863           
CUS0845510000108213717005         TABOR, APRIL J.     1227 HOLLINS ST                         000N        CARE OF             
MTR08455100001000000000000000RA              30791063    007501040000010400000520000003NN  NNW 000                       N    
RDG08455100WATRL000000004K00000000000002415008001062015101552N000000000000U86       000450400K 10000000010000002390           
CUS0845510000108384271006         GARCIA, JOSE O.     1229 HOLLINS ST                         000N        CARE OF             
MTR08455100001000000000000000RA              01081425    005801050000010500000610000003NN  NNW 000                       N    
RDG08455100WATRL000000004K00000000000000869008101062015101554N000000000000U86       000020400K 10000000010000000869           
CUS0845510000108367980003         GRAY, SUDANAH       1231 HOLLINS ST                         000N        CARE OF             
MTR08455100001000000000000000RA              30524256    005801060000010600000520000003NN  NNW 000                       N    
RDG08455100WATRL000000004K00000000000001353008201062015101633N000000000000U86       000390400K 10000000010000001344           
CUS0845510000108363239008         NOHA'S HOMES AND PRO1233 HOLLINS ST                         000N        CARE OF             
MTR08455100001000000000000000RA              44173062    005801070000010700000520000000NN  NNW 000                       N    
RDG08455100WATRL000000004K00000000000001598008301062015101635N000000000000U86       000020400K 10000000010000001566           
CUS0845510000108363238000         STONE, ROSA L.      1235 HOLLINS ST                         000N        CARE OF             
MTR08455100001000000000000000RA              44176675    005801080000010800000520000000NN  NNW 000                       N    
RDG08455100WATRL000000004K00000000000001329008401062015101753N000000000000U86       000780400K 10000000010000001319           
CUS0845510000108363240006         RABIN, MITCHELL     1237 HOLLINS ST                         000N        CARE OF             
MTR08455100001000000000000000RA              44176679    005801090000010900000520000000NN  NNW 000                       N    
RDG08455100WATRL000000004K00000000000002680008501062015101756N000000000000U86       000030400K 10000000010000002674           
CUS0845510000106372753001         H A B C             29 S CAREY ST                           000N        CARE OF             
MTR08455100001000000000000000RA              45379041    005801100000011000000520000000NN  NNW 000                       N    
RDG08455100WATRL000000004K00000000000000400011901062015123038N000000000000U86       000020400K 10000000010000000380           
CUS0845510000108364159007         ABEBE, AYALEW       31 S CAREY ST                           000N        CARE OF             
MTR08455100001000000000000000RA              45380027    005801110000011100000520000000NN  NNW 000                       N    
RDG08455100WATRL000000004K00000000000002860011801062015123036N000000000000U86       000020400K 10000000010000002836           
CUS0845510000108213715009         BERHE, REDAI        33 S CAREY ST                           000N        CARE OF             
MTR08455100001000000000000000RA              41193425    007501120000011200000520000000NN  NNW 000                       N    
RDG08455100WATRL000000004K00000000000004958011701062015123034N000000000000U86       000050400K 10000000010000004952           
CUS0845510000108368897008         BALRENTALS DOT COM 235 S CAREY ST                           000N        CARE OF             
MTR08455100001000000000000000RA              14904784    005801130000011300000310000003NN  NNW 000                       N    
RDG08455100WATRL000000004K00000000000001032011601062015123029N000000000000U86       000020400K 10000000010000000993           
CUS0845510000108373981003         H A B C             37 S CAREY ST                           000N        CARE OF             
MTR08455100001000000000000000RA              74692354    005801140000011400000350000003NN  NNW 000                       N    
RDG08455100WATRL000000004K00000000000000167011501062015123027N000300000010U86       000110400K 10000000010000000148           
CUS0845510000108212906005         HOUSING AUTHORITY   41 S CAREY ST                           000N        CARE OF             
MTR08455100001000000000000000RA              01106481    005801150000011500000610000003NY  NNW 000                       N    
MTM0845510001106481    K                                                                                                      
RDG08455100WATRL000000004K00000000000001468011401062015123016N000000000000U86       000530400K 10000000010000001428           
CUS0845510000108213735007         ESHGHI, ALI         1242 W LOMBARD ST                       000N        CARE OF             
MTR08455100001000000000000000RA              27894232    007501160000011600000520000000NN  NNW 000                       N    
RDG08455100WATRL000000004K00000000000003176009701062015104205N000000000000U86       000250400K 10000000010000003123           
CUS0845510000108212908001         HARVIN, SANDY L     1234 W LOMBARD ST                       000N        CARE OF             
MTR08455100001000000000000000RA              45379076    005801170000011700000520000000NN  NNW 000                       N    
RDG08455100WATRL000000004K00000000000001713009601062015104140N000000000000U86       000340400K 10000000010000001699           
CUS0845510000108213733002         VINCENT, JENNEE J.  1232 W LOMBARD ST                       000N        CARE OF             
MTR08455100001000000000000000RA              40248112    007501180000011800000520000003NN  NNW 000                       N    
RDG08455100WATRL000000004K00000000000001106009501062015104106N000000000000U86       000210400K 10000000010000001106           
CUS0845510000108213732004         VERCAMMEN, RONDA L. 1230 W LOMBARD ST                       000N        CARE OF             
MTR08455100001000000000000000RA              14918415    007501190000011900000310000003NN  NNW 000                       N    
RDG08455100WATRL000000004K00000000000000767009401062015104045N000000000000U86       000230400K 10000000010000000691           
CUS0845510000108212910007         VAUGHAN, CESARE     1226 W LOMBARD ST                       000N        CARE OF             
MTR08455100001000000000000000RA              99999999    005801200000012000000620000000NN  NNW 000   VACANT PROPERTY     N    
RDG08455100WATRL000000004K00000000000000000009301062015104022S002000000000U86       000040400K 10000000010000000634           
CUS0845510000108380364003         HOLABIRD INVESTMENTS1224 W LOMBARD ST                       000N        CARE OF             
MTR08455100001000000000000000RA              99999999    005801210000012100000620000003NN  NNW 000                       N    
RDG08455100WATRL000000004K00000000000000000009201062015104018S002000000000U86       000570400K 10000000010000000563           
CUS0845510000108212916004         OWUSU, SAMUEL       1212 W LOMBARD ST                       000N        CARE OF             
MTR08455100001000000000000000RA              10005140    005801220000012200000570000000NN  NNW 000                       N    
RDG08455100WATRL000000004K00000000000000365009101062015103921N000000000000U86       000240400K 10000000010000000342           
CUS0845510000108212918000         HILL JR., LAWRENCE V1206 W LOMBARD ST                       000N        CARE OF             
MTR08455100001000000000000000RA              14918257    007501230000012300000310000003NN  NNW 000                       N    
RDG08455100WATRL000000004K00000000000001095009001062015103857N000400000010U86       000320400K 10000000010000001091           
CUS0845510000108212919008         DOYLE, PATRICK T.   1204 W LOMBARD ST                       000N        CARE OF             
MTR08455100001000000000000000RA              48584871    005801240000012400000520000000NN  NNW 000                       N    
RDG08455100WATRL000000004K00000000000001450008901062015103825N000000000000U86       000250400K 10000000010000001434           
CUS0845510000108213728002         SHANNAG, RAITH      1200 W LOMBARD ST                       000N        CARE OF             
MTR08455100001000000000000000RA              99309071    007501250000012500000570000003NN  NNW 000                       N    
RDG08455100WATRL000000004K00000000000003147008801062015103800N000000000000U86       000280400K 10000000010000003016           
CUS0845510000108213860003         1209 W LOMBARD STREE1209 W LOMBARD ST                       000N        CARE OF             
MTR08455100001000000000000000RA              30000246    007501260000012600000570000003NN  NNW 000                       N    
RDG08455100WATRL000000004K00000000000000359008701062015103732N000000000000U86       010770400K 10000000010000000327           
CUS0845510000108213068003         FLORIPA LLC         9-13 S CARLTON ST                       000N        CARE OF             
MTR08455100001000000000000000RA              99999999    007501270000012700000620000003NN  NNW 000   VACANT PROPERTY     N    
RDG08455100WATRL000000004K00000000000000000003701052015113246S002000000000N86       000080400K 10000000010000001117           
CUS0845510000108213075008         OFF-STREET PARKING  1122 HOLLINS ST                         000N        CARE OF             
MTR08455100001000000000000000RA              48594435    005801280000012800000520000003NN  NNW 000                       N    
RDG08455100WATRL000000004K00000000000000000003801052015113255S022000000000N86       000090400K 10000000010000001009           
CUS0845510000108213074001         PANTANAL PROP INC   1138-40 HOLLINS ST                      000N        CARE OF             
MTR08455100001000000000000000RA              99392216    005801290000012900000570000003NN  NNW 000                       N    
RDG08455100WATRL000000004K00000000000001245002201062015093934N000000000010U86       000400400K 10000000010000001244           
CUS0845510000108213060000         JONES, ROBINETTE    20 S ARLINGTON AVE                      000N        CARE OF             
MTR08455100001000000000000000RA              45389239    007501300000013000000520000003NN  NNW 000                       N    
RDG08455100WATRL000000004K00000000000000955003601052015113238N000000000000N86       000200400K 10000000010000000941           
CUS0845510000108363151005         CALIMER, JASON      16 S ARLINGTON AVE                      000N        CARE OF             
MTR08455100001000000000000000RA              10018994    005801310000013100000570000003NN  NNW 000                       N    
RDG08455100WATRL000000004K00000000000000264003501052015113218N000000000000N86       000180400K 10000000010000000244           
CUS0845510000108380362007         JEUNE GROUP, LLC    10 S ARLINGTON AVE                      000N        CARE OF             
MTR08455100001000000000000000RA              01081429    005801320000013200000610000003NN  NNW 000                       N    
RDG08455100WATRL000000004K00000000000001380003401052015113200N000000000010N86       000160400K 10000000010000001375           
CUS0845510000108213059002         TALBOTT, DOROTHY    6 S ARLINGTON AVE                       000N        CARE OF             
MTR08455100001000000000000000RA              45387300    005801330000013300000520000003NN  NNW 000                       N    
RDG08455100WATRL000000004K00000000000001880003301052015113144N000000000000N86       000180400K 10000000010000001869           
CUS0845510000108370129002         LIPSCOMB, RONALD    7 S ARLINGTON AVE                       000N        CARE OF             
MTR08455100001000000000000000RA              01081424    005801340000013400000610000003NN  NNW 000                       N    
RDG08455100WATRL000000004K00000000000000517003201052015113126N000000000000N86       000210400K 10000000010000000512           
CUS0845510000108212883006         JARBOE JR., CHARLES 13 S ARLINGTON AVE                      000N        CARE OF             
MTR08455100001000000000000000RA              52289071    005801350000013500000520000003NN  NNW 000                       N    
RDG08455100WATRL000000004K00000000000002400003901052015113411N000000000000N86       000760400K 10000000010000002369           
CUS0845510000108366428004         ALPHA BETA INTERNATI15 S ARLINGTON AVE                      000N        CARE OF             
MTR08455100001000000000000000RA              74690461    005801360000013600000350000003NN  NNW 000                       N    
RDG08455100WATRL000000004K00000000000000010003101052015113105N000300000010N86       000270400K 10000000010000000002           
CUS0845510000108364882004         HOLMAN, TREVOR L    17 S ARLINGTON AVE                      000N        CARE OF             
MTR08455100001000000000000000RA              10005675    005801370000013700000570000003NN  NNW 000                       N    
RDG08455100WATRL000000004K00000000000000329003001052015113038N000000000000N86       000120400K 10000000010000000312           
CUS0845510000108213058004         TAYLOR, BETTY MAYE  21 S ARLINGTON AVE                      000N        CARE OF             
MTR08455100001000000000000000RA              99391976    005801380000013800000570000003NN  NNW 000                       N    
RDG08455100WATRL000000004K00000000000000250002901052015113026N000000000000N86       000130400K 10000000010000000250           
CUS0845510000108213056008         SFI ENTERPRISES, LLC27 S ARLINGTON AVE                      000N        CARE OF             
MTR08455100001000000000000000RA              41089477    007501390000013900000520000003NN  NNW 000                       N    
RDG08455100WATRL000000004K00000000000002141002801052015113013N000000000000N86       000120400K 10000000010000002141           
CUS0845510000108213055000         BAHIA, LLC.         31 S ARLINGTON AVE                      000N        CARE OF             
MTR08455100001000000000000000RA              44173703    005801400000014000000520000003NN  NNW 000                       N    
RDG08455100WATRL000000004K00000000000005220002701052015113001N000000000000N86       001090400K 10000000010000005200           
CUS0845510000108213067005         FLORIPA LLC         1120 HOLLINS ST                         000N        CARE OF             
MTR08455100001000000000000000RA              01102125    005801410000014100000610000003NN  NNW 000                       N    
RDG08455100WATRL000000004K00000000000000450001301062015092333N000000000000U86       000520400K 10000000010000000433           
CUS0845510000108364403009         HOLLINS HOLDINGS, LL1118 HOLLINS ST                         000N        CARE OF             
MTR08455100001000000000000000RA              44177473    005801420000014200000520000003NN  NNW 000                       N    
RDG08455100WATRL000000004K00000000000003147010601062015105345N000000000000U86       000430400K 10000000010000003133           
CUS0845510000108361795001         PANTANAL PROPERTIES 1116 HOLLINS ST                         000N        CARE OF             
MTR08455100001000000000000000RA              30509347    001501430000014300000520000003NN  NNW 000                       N    
RDG08455100WATRL000000005K00000000000013426010501062015105302N000400000010U86       000700500K 10000000010000013385           
CUS0845510000108213063004         PANTANAL PROP INC   1108 HOLLINS ST                         000N        CARE OF             
MTR08455100001000000000000000RA              01098238    007501440000014400000610000003NN  NNW 000                       N    
RDG08455100WATRL000000004K00000000000000565010401062015105152N000000000000U86       000280400K 10000000010000000560           
CUS0845510000108380698004         COLLINS, JAMES EDWAR1106 HOLLINS ST                         000N        CARE OF             
MTR08455100001000000000000000RA              33080381    005801450000014500000520000003NN  NNW 000                       N    
RDG08455100WATRL000000004K00000000000004157010301062015105124N000000000000U86       001880400K 10000000010000004147           
CUS0845510000108213061008         1100 HOLLINS LLC    1100-04 HOLLINS ST                      000N        CARE OF             
MTR08455100001000000000000000RA              30515136    005801460000014600000520000003NN  NNW 000   VACANT PROPERTY     N    
RDG08455100WATRL000000004K00000000000000000002601052015112812N000000000000N86       000080400K 10000000010000000000           
CUS0845510000108213040002         M&G RE INVESTMENTS, 1038 HOLLINS ST                         000N        CARE OF             
MTR08455100001000000000000000RA              40248668    007501470000014700000520000003NN  NNW 000                       N    
RDG08455100WATRL000000004K00000000000001901002501052015112804N000400000010N86       000120400K 10000000010000001900           
CUS0845510000108213054003         ARAI,HEEJUNG HEIDI  1036 HOLLINS ST                         000N        CARE OF             
MTR08455100001000000000000000RA              29121565    007501480000014800000520000003NN  NNW 000                       N    
RDG08455100WATRL000000004K00000000000003934002401052015112752N000000000000N86       000120400K 10000000010000003905           
CUS0845510000108213053005         NEW LIFE COVENANT MI1032 HOLLINS ST                         000N        CARE OF             
MTR08455100001000000000000000RA              99999999    005801490000014900000620000003NN  NNW 000                       N    
RDG08455100WATRL000000004K00000000000000000002301052015112740S022000000000N86       000150400K 10000000010000000000           
CUS0845510000108380647001         ROBERT SHAFFER      1030 HOLLINS ST                         000N        CARE OF             
MTR08455100001000000000000000RA              23050932    005801500000015000000520000003NN  NNW 000                       N    
RDG08455100WATRL000000004K00000000000001607002201052015112725N000000000011N86       000250400K 10000000010000001595           
CUS0845510000108213051009         POLK, ANTREE B      1026 HOLLINS ST                         000N        CARE OF             
MTR08455100001000000000000000RA              30000818    007501510000015100000570000000NN  NNW 000                       N    
RDG08455100WATRL000000004K00000000000000158002101052015112656N000000000000N86       000220400K 10000000010000000147           
CUS0845510000108384272004         JONES, KYLE DANIEL  1024 HOLLINS ST                         000N        CARE OF             
MTR08455100001000000000000000RA              48592401    005801520000015200000520000000NN  NNW 000                       N    
RDG08455100WATRL000000004K00000000000001598002001052015112634N000000000000N86       000020400K 10000000010000001591           
CUS0845510000108213050001         WALKER, MAURY T.    1022 HOLLINS ST                         000N        CARE OF             
MTR08455100001000000000000000RA              14929881    005801530000015300000310000003NN  NNW 000                       N    
RDG08455100WATRL000000004K00000000000000854001901052015112632N000000000000N86       000300400K 10000000010000000830           
CUS0845510000108213049003         BROWN, TIERA T      1020 HOLLINS ST                         000N        CARE OF             
MTR08455100001000000000000000RA              00120371    007501540000015400000570000003NN  NNW 000                       N    
RDG08455100WATRL000000004K00000000000001041001801052015112602N000000000000N86       000020400K 10000000010000001023           
CUS0845510000108213048005         HAMMOND, WILLIAM D. 1018 HOLLINS ST                         000N        CARE OF             
MTR08455100001000000000000000RA              99999999    007501550000015500000620000003NN  NNW 000   VACANT PROPERTY     N    
RDG08455100WATRL000000004K00000000000000000001701052015112600S022000000000N86       000160400K 10000000010000000409           
CUS0845510000108213047007         HAMMOND, WILLIAM D. 1016 HOLLINS ST                         000N        CARE OF             
MTR08455100001000000000000000RA              11330758    005801560000015600000570000003NN  NNW 000                       N    
RDG08455100WATRL000000004K00000000000001604001601052015112544N000300000010N86       000040400K 10000000010000001542           
CUS0845510000108364500002         BYRD, MARY KATHLEEN 1014 HOLLINS ST                         000N        CARE OF             
MTR08455100001000000000000000RA              46875882    005801570000015700000520000003NN  NNW 000                       N    
RDG08455100WATRL000000004K00000000000001941001501052015112540N000000000000N86       000210400K 10000000010000001929           
CUS0845510000108213046009         MCCURDY, PATRICK E  1012 HOLLINS ST                         000N        CARE OF             
MTR08455100001000000000000000RA              30000815    007501580000015800000570000003NN  NNW 000                       N    
RDG08455100WATRL000000004K00000000000000213001401052015112519N000000000000N86       000200400K 10000000010000000197           
CUS0845510000108213042008         MARC BROWN          1008-10 HOLLINS ST                      000N        CARE OF             
MTR08455100001000000000000000RA              14901660    005801590000015900000310000003NN  NNW 000                       N    
RDG08455100WATRL000000004K00000000000000199004601052015113738N000000000000N86       000180400K 10000000010000000180           
CUS0845510000108367580001         CAMPBELL, LILLIAN   1006 HOLLINS ST                         000N        CARE OF             
MTR08455100001000000000000000RA              01106485    005801600000016000000610000003NN  NNW 000                       N    
RDG08455100WATRL000000004K00000000000000160001301052015112459N000000000011N86       000160400K 10000000010000000159           
CUS0845510000108212885001         CRAMPTON, KIM Y     1002 HOLLINS ST                         000N        CARE OF             
MTR08455100001000000000000000RA              99999999    005801610000016100000350000003NN  NNW 000                       N    
RDG08455100WATRL000000004K00000000000001691001201052015112430N000000000000N86       000740400K 10000000010000001677           
CUS0845510000108213045001         ROSARION, DOURAKINE 1000 HOLLINS ST                         000N        CARE OF             
MTR08455100001000000000000000RA              39256815    007501620000016200000520000003NN  NNW 000                       N    
RDG08455100WATRL000000004K00000000000001168001001052015112234N000000000000N86       002270400K 10000000010000001162           
CUS0845510000108212896008         LEMARAIS, LLC       1015 HOLLINS ST                         000N        CARE OF             
MTR08455100001000000000000000RA              74689650    005801630000016300000350000003NY  NNW 000                       N    
MTM0845510074689650    REMOVE BELONG IN BOOK#4545                                                                             
RDG08455100WATRL000000004K00000000000000165001101052015112316N000000000000N86       000420400K 10000000010000000151           
CUS0845510000108384277003         WARRINGTON, ADAM C  36 S SCHROEDER ST                       000N        CARE OF             
MTR08455100001000000000000000RA              44175313    005801640000016400000520000003NN  NNW 000                       N    
RDG08455100WATRL000000004K00000000000002547000701052015111744N000000000000N86       000200400K 10000000010000002543           
CUS0845510000108213044004         LEAHY, ALBERT       18 S SCHROEDER ST                       000N        CARE OF             
MTR08455100001000000000000000RA              4213132     005801650000016500000320000003NN  NNW 000                       N    
RDG08455100WATRL000000004K00000000000000000000000000000000000 000000000000U         000000400  10000000010000000008           
CUS0845510000108366432006         FREDERICK AVE DEVELO14 S SCHROEDER ST                       000N        CARE OF             
MTR08455100001000000000000000RA              50787761    005801660000016600000520000003NN  NNW 000   VACANT PROPERTY     N    
RDG08455100WATRL000000004K00000000000000007000801052015111800N000000000000N86       000160400K 10000000010000000007           
CUS0845510000108212893005          WATERS, JEFFREY M. 11 S SCHROEDER ST                       000N        CARE OF             
MTR08455100001000000000000000RA              14929294    005801670000016700000310000003NN  NNW 000                       N    
RDG08455100WATRL000000004K00000000000000427000901052015111847N000000000000N86       000470400K 10000000010000000423           
CUS0845510000108213041000         BOOTH ST PROPERTIES 1009 BOOTH ST                           000N        CARE OF             
MTR08455100001000000000000000RA              14919353    005801680000016800000310000003NN  NNW 000   VACANT PROPERTY     N    
RDG08455100WATRL000000004K00000000000000001004701052015113805N000000000000N86       000270400K 10000000010000000001           
CUS0845510000108384274000         TAYLOR, BETTY MAYE  1017 BOOTH ST                           000N        CARE OF             
MTR08455100001000000000000000RA              75423108    005801690000016900000350000003NN  NNW 000   VACANT PROPERTY     N    
RDG08455100WATRL000000004K00000000000000000004801052015113836N000000000000N86       000310400K 10000000010000000000           
CUS0845510000108398285000         1016  BOOTH LLC     1023 BOOTH ST                           000N        CARE OF             
MTR08455100001000000000000000RA              40047515    005801700000017000000520000000NN  NNW 000                       N    
RDG08455100WATRL000000004K00000000000001840004901052015113844N000000000000N86       000080400K 10000000010000001837           
CUS0845510000108375145003         COLLINS, JAMES E.   1025 BOOTH ST                           000N        CARE OF             
MTR08455100001000000000000000RA              10018992    005801710000017100000570000003NN  NNW 000                       N    
RDG08455100WATRL000000004K00000000000000102005001052015113904N000000000000N86       000200400K 10000000010000000094           
CUS0845510000108375144006         PANTANAL PROP. INC  1029 BOOTH ST                           000N        CARE OF             
MTR08455100001000000000000000RA              39923886    005801720000017200000520000003NN  NNW 000   VACANT PROPERTY     N    
RDG08455100WATRL000000004K00000000000001044005101052015113918N000000000001N86       000140400K 10000000010000001044           
CUS0845510000108213039004         PANTANAL PROP INC   1030 BOOTH ST                           000N        CARE OF             
MTR08455100001000000000000000RA              32574779    005801730000017300000520000003NN  NNW 000   VACANT PROPERTY     N    
RDG08455100WATRL000000004K00000000000001621004001052015113520N000000000000N86       000690400K 10000000010000001621           
CUS0845510000108213038006         STEVEN TOURKIN LLC  1028 BOOTH ST                           000N        CARE OF             
MTR08455100001000000000000000RA              26003689    005801740000017400000520000003NN  NNW 000                       N    
RDG08455100WATRL000000004K00000000000001633004101052015113530N000000000000N86       000100400K 10000000010000001619           
CUS0845510000108375143008         1016 BOOTH LLC      1026 BOOTH ST                           000N        CARE OF             
MTR08455100001000000000000000RA              48584282    005801750000017500000520000000NN  NNW 000                       N    
RDG08455100WATRL000000004K00000000000000678004201052015113558N000000000000N86       000280400K 10000000010000000678           
CUS0845510000108212886009         HEGARTY, DANIEL A   1024 BOOTH ST                           000N        CARE OF             
MTR08455100001000000000000000RA              39923899    005801760000017600000520000003NN  NNW 000                       N    
RDG08455100WATRL000000004K00000000000003580004301052015113619N000000000000N86       000210400K 10000000010000003576           
CUS0845510000108363163000         1016 BOOTH, LLC     1020 BOOTH ST                           000N        CARE OF             
MTR08455100001000000000000000RA              39923986    005801770000017700000520000003NN  NNW 000                       N    
RDG08455100WATRL000000004K00000000000001882004401052015113645N000000000000N86       000260400K 10000000010000001879           
CUS0845510000108212890001          J. & D. WATERS     3 S SCHROEDER ST                        000N        CARE OF             
MTR08455100001000000000000000RA              14929204    005801780000017800000310000000NN  NNW 000                       N    
RDG08455100WATRL000000004K00000000000000395000601052015111724N000000000010N86       000090400K 10000000010000000390           
CUS0845510000108376833003         WATERS, JEFFREY M   5 S SCHROEDER ST                        000N        CARE OF             
MTR08455100001000000000000000RA              14929299    005801790000017900000310000003NN  NNW 000                       N    
RDG08455100WATRL000000004K00000000000001115000501052015111715N000400000010N86       000860400K 10000000010000001106           
CUS0845510000108375505008          WATERS, JEFFREY M. 13 S SCHROEDER ST                       000N        CARE OF             
MTR08455100001000000000000000RA              99999999    005801800000018000000620000003NN  NNW 000   VACANT PROPERTY     N    
RDG08455100WATRL000000004K00000000000000000000401052015111549S002000000000N86       001660400K 10000000010000001009           
RTR08455100NN01790179000001790000000001790179000321NY017901790179000300200000000000000000000002    12182014NY020000 N         
RHD08456100NN04910491000004910000000004910491000575NY049104910491000300080000000000000000000002    12242014NY020000 N         
CUS0845610000108247236006         ARMSTRONG, MILUS M  632 WYETH ST                            000N        CARE OF             
MTR08456100001000000000000000RA              10001971    005800010000000100000570000000NN  NNW 000                       N    
RDG08456100WATRL000000004K00000000000000225005201022015092524N000000000001N81       000770400K 10000000010000000219           
CUS0845610000108434940006         SALL, SORY BINTA    300 SCOTT ST                            000N        CARE OF             
MTR08456100001000000000000000RA              00164688    000100020000000200000570000003NN  NNW 000                       N    
RDG08456100WATRL000000004K00000000000000747000101052015073800N000000000000U81       000000400K 10000000010000000719           
CUS0845610000108435053007         MAZZARINO, RYAN C.  302 SCOTT ST                            000N        CARE OF             
MTR08456100001000000000000000RA              00164620    000100030000000300000570000000NN  NNW 000                       N    
RDG08456100WATRL000000004K00000000000000449000201052015073846N000000000000U81       000460400K 10000000010000000440           
CUS0845610000108435056000         FEILD, BRAIN J      304 SCOTT ST                            000N        CARE OF             
MTR08456100001000000000000000RA              00164533    000100040000000400000570000000NN  NNW 000                       N    
RDG08456100WATRL000000004K00000000000000514000301052015073853N000000000000U81       000070400K 10000000010000000510           
CUS0845610000108435057008         TERZIAN, MARJORIE BU306 SCOTT ST                            000N        CARE OF             
MTR08456100001000000000000000RA              00164534    000100050000000500000570000000NN  NNW 000                       N    
RDG08456100WATRL000000004K00000000000000456000401052015073906N000000000000U81       000130400K 10000000010000000444           
CUS0845610000108435058006         BERESKA, JOHN W.  (E308 SCOTT ST                            000N        CARE OF             
MTR08456100001000000000000000RA              00164532    000100060000000600000570000000NN  NNW 000                       N    
RDG08456100WATRL000000004K00000000000000502000501052015073916N000000000000U81       000100400K 10000000010000000472           
CUS0845610000108435059004         RIGGS, TRAVIS J.    310 SCOTT ST                            000N        CARE OF             
MTR08456100001000000000000000RA              00164581    000100070000000700000570000000NN  NNW 000                       N    
RDG08456100WATRL000000004K00000000000000280000601052015073929N000000000000U81       000130400K 10000000010000000276           
CUS0845610000108435060002         SIMMS,JR, HENRY ERNE312 SCOTT ST                            000N        CARE OF             
MTR08456100001000000000000000RA              00164603    000100080000000800000570000000NN  NNW 000                       N    
RDG08456100WATRL000000004K00000000000000580000701052015073935N000000000000U81       000060400K 10000000010000000566           
CUS0845610000108435062008         MELE, JOHN A.       314 SCOTT ST                            000N        CARE OF             
MTR08456100001000000000000000RA              00164623    000100090000000900000570000000NN  NNW 000                       N    
RDG08456100WATRL000000004K00000000000000452000801052015074010N000000000000U81       000350400K 10000000010000000437           
CUS0845610000108435063006         KIM, CHARLES        316 SCOTT ST                            000N        CARE OF             
MTR08456100001000000000000000RA              00164583    000100100000001000000570000000NN  NNW 000                       N    
RDG08456100WATRL000000004K00000000000000585000901052015074019N000000000000U81       000090400K 10000000010000000567           
CUS0845610000108435064004         ARYANKALAYIL, BABU J318 SCOTT ST                            000N        CARE OF             
MTR08456100001000000000000000RA              00164600    000100110000001100000570000000NN  NNW 000                       N    
RDG08456100WATRL000000004K00000000000000431001001052015074040N000000000000U81       000210400K 10000000010000000420           
CUS0845610000108435065001         BUI KIET QUOC       320 SCOTT ST                            000N        CARE OF             
MTR08456100001000000000000000RA              00164437    000100120000001200000570000000NN  NNW 000                       N    
RDG08456100WATRL000000004K00000000000000289001101052015074043N000000000000U81       000030400K 10000000010000000289           
CUS0845610000108435067007         BADAWI, OMAR        322 SCOTT ST                            000N        CARE OF             
MTR08456100001000000000000000RA              00164213    000100130000001300000570000000NN  NNW 000                       N    
RDG08456100WATRL000000004K00000000000000581001201052015074104N000000000000U81       000210400K 10000000010000000570           
CUS0845610000108435068005         KRAFT, MATTHEW J.   324 SCOTT ST                            000N        CARE OF             
MTR08456100001000000000000000RA              00164582    000100140000001400000570000000NN  NNW 000                       N    
RDG08456100WATRL000000004K00000000000000348001301052015074113N000000000000U81       000090400K 10000000010000000335           
CUS0845610000108435070001         MILLER, KIM H.      402 SCOTT ST                            000N        CARE OF             
MTR08456100001000000000000000RA              00164263    000100150000001500000570000000NN  NNW 000                       N    
RDG08456100WATRL000000004K00000000000000292001601052015074402N000000000000U81       000470400K 10000000010000000286           
CUS0845610000108435071009         PRABJOT SING        404 SCOTT ST                            000N        CARE OF             
MTR08456100001000000000000000RA              00164302    000100160000001600000570000000NN  NNW 000                       N    
RDG08456100WATRL000000004K00000000000000758001701052015074405N000000000000U81       000030400K 10000000010000000742           
CUS0845610000108435072007         MR O. ADEBAYO       406 SCOTT ST                            000N        CARE OF             
MTR08456100001000000000000000RA              99410785    000100170000001700000570000000NN  NNW 000                       N    
RDG08456100WATRL000000004K00000000000000473001801052015074441N000000000000U81       000360400K 10000000010000000464           
CUS0845610000108435073005         WONG, NGEE SIAU     408 SCOTT ST                            000N        CARE OF             
MTR08456100001000000000000000RA              00164301    000100180000001800000570000000NN  NNW 000                       N    
RDG08456100WATRL000000004K00000000000000623001901052015074447N000000000000U81       000060400K 10000000010000000603           
CUS0845610000108435074003         ANGEL, DANIEL       410 SCOTT ST                            000N        CARE OF             
MTR08456100001000000000000000RA              00163547    000100190000001900000570000000NN  NNW 000                       N    
RDG08456100WATRL000000004K00000000000000331002001052015074516N000000000000U81       000290400K 10000000010000000308           
CUS0845610000108435076008         BARATTIA, SHAUN     412 SCOTT ST                            000N        CARE OF             
MTR08456100001000000000000000RA              00164300    000100200000002000000570000000NN  NNW 000                       N    
RDG08456100WATRL000000004K00000000000000581002101052015074520N000000000000U81       000040400K 10000000010000000564           
CUS0845610000108248030002         ALDORA L FAWLEY     800 WASHINGTON BLVD                     000N        CARE OF             
MTR08456100001000000000000000RA              14903907    005800210000002100000310000003NN  NNW 000                       N    
RDG08456100WATRL000000004K00000000000001331002901052015075103N000000000000U81       001330400K 10000000010000001308           
CUS0845610000108248031000         JONES, MARCUS D     802 WASHINGTON BLVD                     000N        CARE OF             
MTR08456100001000000000000000RA              32901281    005800220000002200000520000003NN  NNW 000                       N    
RDG08456100WATRL000000004K00000000000000793003001052015075129N000000000000U81       000260400K 10000000010000000780           
CUS0845610000108248032008         FORBIN, STEPHEN N.  804 WASHINGTON BLVD                     000N        CARE OF             
MTR08456100001000000000000000RA              99412198    007500230000002300000570000003NN  NNW 000                       N    
RDG08456100WATRL000000004K00000000000000914003101052015075155N000300000010U81       000260400K 10000000010000000841           
CUS0845610000108246982006         MANUEL, KIM         806 WASHINGTON BLVD                     000N        CARE OF             
MTR08456100001000000000000000RA              52289391    005800240000002400000520000000NN  NNW 000                       N    
RDG08456100WATRL000000004K00000000000001301003201052015075214N000000000000U81       000190400K 10000000010000001289           
CUS0845610000108246984002         WASHINGTON VILLAGE P810 WASHINGTON BLVD                     000N        CARE OF             
MTR08456100001000000000000000RA              76346102    005800250000002500000350000000NN  NNW 000                       N    
RDG08456100WATRL000000004K00000000000000016003301052015075326N000300000011U81       000220400K 10000000010000000009           
CUS0845610000108246985009         ROBINSON, MARLENA D 812 WASHINGTON BLVD                     000N        CARE OF             
MTR08456100001000000000000000RA              75616258    005800260000002600000350000003NN  NNW 000                       N    
RDG08456100WATRL000000004K00000000000000012003401052015075304N000000000000U81       000220400K 10000000010000000009           
CUS0845610000108372541006         BRIDGET DICKENSHEETS814 WASHINGTON BLVD                     000N        CARE OF             
MTR08456100001000000000000000RA              31581942    005800270000002700000520000003NN  NNW 000                       N    
RDG08456100WATRL000000004K00000000000001914002201052015074608N000000000000U81       000480400K 10000000010000001902           
CUS0845610000108375075002         DANIELLE L ZIMMERMAN816 WASHINGTON BLVD                     000N        CARE OF             
MTR08456100001000000000000000RA              32177648    005800280000002800000520000003NN  NNW 000                       N    
RDG08456100WATRL000000004K00000000000002689002401052015074656N000000000001U81       000230400K 10000000010000002682           
CUS0845610000108248033006         MCCANN, SEAN M      818 WASHINGTON BLVD                     000N        CARE OF             
MTR08456100001000000000000000RA              31937922    007500290000002900000520000003NN  NNW 000   VACANT PROPERTY     N    
RDG08456100WATRL000000004K00000000000001291002301052015074633N000000000010U81       000250400K 10000000010000001289           
CUS0845610000108369397008         PROVENCHER, DENIS   820 WASHINGTON BLVD                     000N        CARE OF             
MTR08456100001000000000000000RA              31086255    005800300000003000000520000003NN  NNW 000                       N    
RDG08456100WATRL000000004K00000000000001470002501052015074739N000000000000U81       000430400K 10000000010000001463           
CUS0845610000108248034004         TEWELDE, SEMHAR     822 WASHINGTON BLVD                     000N        CARE OF             
MTR08456100001000000000000000RA              27065787    007500310000003100000520000003NN  NNW 000                       N    
RDG08456100WATRL000000004K00000000000001791002601052015074800N000000000000U81       000210400K 10000000010000001785           
CUS0845610000108248035001         THOMPSON, BARBARA A.824 WASHINGTON BLVD                     000N        CARE OF             
MTR08456100001000000000000000RA              01098529    007500320000003200000610000003NN  NNW 000                       N    
RDG08456100WATRL000000004K00000000000000370002701052015074819N000000000000U81       000190400K 10000000010000000359           
CUS0845610000108374674003         KAMMER, WILLIAM (TR)826 WASHINGTON BLVD                     000N        CARE OF             
MTR08456100001000000000000000RA              42809535    005800330000003300000520000003NN  NNW 000                       N    
RDG08456100WATRL000000004K00000000000001911002801052015074850N000000000000U81       000310400K 10000000010000001902           
CUS0845610000108378762002         WASHINGTON VILLAGE P828 WASHINGTON BLVD                     000N        CARE OF             
MTR08456100001000000000000000RA              45373523    005800340000003400000520000003NY  NNW 000                       N    
MTM0845610045373523    BURIED                                                                                                 
RDG08456100WATRL000000004K00000000000000000000000000000000000 000000000000U         000000400  10000000010000001876           
CUS0845610000108246986007         BURDUSI, MARINA R.  830 WASHINGTON BLVD                     000N        CARE OF             
MTR08456100001000000000000000RA              14926862    005800350000003500000310000003NN  NNW 000                       N    
RDG08456100WATRL000000004K00000000000000771003501052015075421N000300000010U81       000550400K 10000000010000000750           
CUS0845610000108246987005         BATES, DONALD       832 WASHINGTON BLVD                     000N        CARE OF             
MTR08456100001000000000000000RA              14900797    005800360000003600000310000003NN  NNW 000                       N    
RDG08456100WATRL000000004K00000000000000167003601052015075442N000000000000U81       000210400K 10000000010000000167           
CUS0845610000108248036009         HAJBI,SETH          834 WASHINGTON BLVD                     000N        CARE OF             
MTR08456100001000000000000000RA              99292468    005800370000003700000570000003NN  NNW 000   VACANT PROPERTY     N    
RDG08456100WATRL000000004K00000000000000098003701052015075456N000000000000U81       000140400K 10000000010000000098           
CUS0845610000108248037007         836 WASHINGTON BLVD.836 WASHINGTON BLVD                     000N        CARE OF             
MTR08456100001000000000000000RA              01090492    005800380000003800000610000003NN  NNW 000                       N    
RDG08456100WATRL000000004K00000000000000675003801052015075512N000000000000U81       000160400K 10000000010000000670           
CUS0845610000108246988003         WILLIAM H SHRIVER   838 WASHINGTON BLVD                     000N        CARE OF             
MTR08456100001000000000000000RA              48587794    005800390000003900000520000000NN  NNW 000                       N    
RDG08456100WATRL000000004K00000000000001704003901052015075532N000100000010U81       000200400K 10000000010000001704           
CUS0845610000108246989001         MARIE C HARRIS ETAL 840 WASHINGTON BLVD                     000N        CARE OF             
MTR08456100001000000000000000RA              40049986    005800400000004000000520000003NN  NNW 000   VACANT PROPERTY     N    
RDG08456100WATRL000000004K00000000000001238004001052015075539N000000000000U81       000070400K 10000000010000001238           
CUS0845610000108246990009         STRANFORD, LESLIE  (842 WASHINGTON BLVD                     000N        CARE OF             
MTR08456100001000000000000000RA              14920153    005800410000004100000310000003NN  NNW 000                       N    
RDG08456100WATRL000000004K00000000000000186004101052015075555N000400000010U81       000160400K 10000000010000000182           
CUS0845610000108246991007         BONITA MANAGEMENT, L844 WASHINGTON BLVD                     000N        CARE OF             
MTR08456100001000000000000000RA              14911865    005800420000004200000310000003NN  NNW 000                       N    
RDG08456100WATRL000000004K00000000000000376004201052015075617N000000000000U81       000220400K 10000000010000000364           
CUS0845610000108248044003         NPA/DHCD REL 546    846-56 WASHINGTON BLVD                  000N        CARE OF             
MTR08456100001000000000000000RA              10009280    005800430000004300000570000003NN  NNW 000                       N    
RDG08456100WATRL000000004K00000000000000447005501052015080735N000000000000U81       002430400K 10000000010000000440           
CUS0845610000108246992005         BROOKS, SIMONE T    858 WASHINGTON BLVD                     000N        CARE OF             
MTR08456100001000000000000000RA              48585810    005800440000004400000520000000NN  NNW 000                       N    
RDG08456100WATRL000000004K00000000000001041004301052015075732N000000000000U81       000750400K 10000000010000001028           
CUS0845610000108381270001         PETERS, RAYMOND     860 WASHINGTON BLVD                     000N        CARE OF             
MTR08456100001000000000000000RA              50481723    005800450000004500000520000000NN  NNW 000                       N    
RDG08456100WATRL000000004K00000000000001130004401052015075755N000000000000U81       000230400K 10000000010000001130           
CUS0845610000108246994001         PEURA, THOMAS P     864 WASHINGTON BLVD                     000N        CARE OF             
MTR08456100001000000000000000RA              48595411    005800460000004600000520000000NN  NNW 000                       N    
RDG08456100WATRL000000004K00000000000000774004501052015075827N000000000000U81       000320400K 10000000010000000774           
CUS0845610000108246998002         ROBINSON, CRAIG     872 WASHINGTON BLVD                     000N        CARE OF             
MTR08456100001000000000000000RA              10018619    005800470000004700000570000003NN  NNW 000                       N    
RDG08456100WATRL000000004K00000000000000028004601052015075853N000000000000U81       000260400K 10000000010000000028           
CUS0845610000108248038005         RUSHFORD ENTERPRISES874-76 WASHINGTON BLVD                  000N        CARE OF             
MTR08456100001000000000000000RA              30000034    007500480000004800000570000003NN  NNW 000                       N    
RDG08456100WATRL000000004K00000000000001374004701052015075918N000000000000U81       000250400K 10000000010000001248           
CUS0845610000108445458006         TOLSTOI, BRENNAN DEA878 WASHINGTON BLVD                     000N        CARE OF             
MTR08456100001000000000000000RA              10009026    005800490000004900000570000000NN  NNW 000                       N    
RDG08456100WATRL000000004K00000000000000328004801052015075939N000000000000U81       000210400K 10000000010000000307           
CUS0845610000108248040001         BAKER, GORDON J.    880 WASHINGTON BLVD                     000N        CARE OF             
MTR08456100001000000000000000RA              01106557    005800500000005000000610000003NN  NNW 000                       N    
RDG08456100WATRL000000004K00000000000000459004901052015075959N000000000000U81       000200400K 10000000010000000438           
CUS0845610000108246999000         OGUNSHINA, EMMANUEL 882 WASHINGTON BLVD                     000N        CARE OF             
MTR08456100001000000000000000RA              48592283    005800510000005100000520000000NN  NNW 000                       N    
RDG08456100WATRL000000004K00000000000002348005001052015080049N000000000000U81       000500400K 10000000010000002338           
CUS0845610000108247000006         MELISSA DIGGS       884 WASHINGTON BLVD                     000N        CARE OF             
MTR08456100001000000000000000RA              01107554    005800520000005200000610000003NN  NNW 000                       N    
RDG08456100WATRL000000004K00000000000001052005101052015080111N000000000000U81       000220400K 10000000010000001039           
CUS0845610000108247001004         THEISEN, EUGENE S   886 WASHINGTON BLVD                     000N        CARE OF             
MTR08456100001000000000000000RA              01107575    005800530000005300000610000003NN  NNW 000                       N    
RDG08456100WATRL000000004K00000000000000366005201052015080125N000000000000U81       000140400K 10000000010000000357           
CUS0845610000108444972007         JAMES H SMITH II    888 WASHINGTON BLVD                     000N        CARE OF             
MTR08456100001000000000000000RA              00166523    000100540000005400000570000000NN  NNW 000                       N    
RDG08456100WATRL000000004K00000000000000086005301052015080145N000000000000U81       000200400K 10000000010000000081           
CUS0845610000108248045000         WALTER T SENKEWIC   829 CLIFFORD ST                         000N        CARE OF             
MTR08456100001000000000000000RA              10000134    005800550000005500000570000000NN  NNW 000   VACANT PROPERTY     N    
RDG08456100WATRL000000004K00000000000000011005401052015080332N000000000000U81       001070400K 10000000010000000011           
CUS0845610000108435047009         WEISENBERG, MICAH J 411 S POPPLETON ST                      000N        CARE OF             
MTR08456100001000000000000000RA              00163794    000100560000005600000570000000NN  NNW 000                       N    
RDG08456100WATRL000000004K00000000000000315005601052015081511N000000000000U81       004560400K 10000000010000000302           
CUS0845610000108435051001         ELY III, CLAUSEN    409 S POPPLETON ST                      000N        CARE OF             
MTR08456100001000000000000000RA              00163911    000100570000005700000570000003NN  NNW 000                       N    
RDG08456100WATRL000000004K00000000000000210005701052015081559N000000000000U81       000480400K 10000000010000000210           
CUS0845610000108435050003         OGUNFOLU, ADEMULA O.407 S POPPLETON ST                      000N        CARE OF             
MTR08456100001000000000000000RA              00163908    000100580000005800000570000003NN  NNW 000                       N    
RDG08456100WATRL000000004K00000000000000494005801052015081603N000000000000U81       000040400K 10000000010000000473           
CUS0845610000108435049005         HARRIS, ALETA       405 S POPPLETON ST                      000N        CARE OF             
MTR08456100001000000000000000RA              00163910    000100590000005900000570000003NN  NNW 000                       N    
RDG08456100WATRL000000004K00000000000000714005901052015081633N000000000000U81       000300400K 10000000010000000699           
CUS0845610000108435048007         SOYOMBO, ADENIKE W. 403 S POPPLETON ST                      000N        CARE OF             
MTR08456100001000000000000000RA              00163909    000100600000006000000570000003NN  NNW 000                       N    
RDG08456100WATRL000000004K00000000000000871006001052015081642N000000000000U81       000090400K 10000000010000000847           
CUS0845610000108435019008         LEO CHARPENTIER     857 RAMSAY ST                           000N        CARE OF             
MTR08456100001000000000000000RA              00163894    000100610000006100000570000000NN  NNW 000                       N    
RDG08456100WATRL000000004K00000000000000905006101052015081841N000000000000U81       001190400K 10000000010000000873           
CUS0845610000108435018000         MCNAUGHTON, GARY S. 855 RAMSAY ST                           000N        CARE OF             
MTR08456100001000000000000000RA              00163912    000100620000006200000570000003NN  NNW 000                       N    
RDG08456100WATRL000000004K00000000000000580006201052015090340N000000000000U81       026990400K 10000000010000000580           
CUS0845610000108435017002         FEDERAL HOME LOAN MO853 RAMSAY ST                           000N        CARE OF             
MTR08456100001000000000000000RA              00163913    000100630000006300000570000003NN  NNW 000                       N    
RDG08456100WATRL000000004K00000000000000278006301052015090346N000000000000U81       000060400K 10000000010000000273           
CUS0845610000108435016004         GOU, CHING-JOU (TR) 851 RAMSAY ST                           000N        CARE OF             
MTR08456100001000000000000000RA              00163892    000100640000006400000570000003NN  NNW 000                       N    
RDG08456100WATRL000000004K00000000000000535006401052015090421N000000000000U81       000350400K 10000000010000000495           
CUS0845610000108435014009         AGNANT, RAYMOND G.  849 RAMSAY ST                           000N        CARE OF             
MTR08456100001000000000000000RA              00163914    000100650000006500000570000003NN  NNW 000                       N    
RDG08456100WATRL000000004K00000000000000179006501052015090424N000000000000U81       000030400K 10000000010000000177           
CUS0845610000108435011005         KAUFMAN, LEAR       845 RAMSAY ST                           000N        CARE OF             
MTR08456100001000000000000000RA              00164107    000100660000006600000570000003NN  NNW 000                       N    
RDG08456100WATRL000000004K00000000000000333006601052015090452N000000000000U81       000280400K 10000000010000000323           
CUS0845610000108435010007         JALADANKI, RAO      843 RAMSAY ST                           000N        CARE OF             
MTR08456100001000000000000000RA              00164105    000100670000006700000570000003NN  NNW 000                       N    
RDG08456100WATRL000000004K00000000000000829006701052015090457N000300000010U81       000050400K 10000000010000000772           
CUS0845610000108435009009         FORTHOFER, WILLIAM B841 RAMSAY ST                           000N        CARE OF             
MTR08456100001000000000000000RA              00164080    000100680000006800000570000003NN  NNW 000                       N    
RDG08456100WATRL000000004K00000000000000691006801052015090520N000000000000U81       000230400K 10000000010000000669           
CUS0845610000108435008001         SPIVEY, DAVID W     839 RAMSAY ST                           000N        CARE OF             
MTR08456100001000000000000000RA              00164072    000100690000006900000570000003NN  NNW 000                       N    
RDG08456100WATRL000000004K00000000000000654006901052015090523N000000000000U81       000030400K 10000000010000000646           
CUS0845610000108435007003         RIGG, RACHEL A      837 RAMSAY ST                           000N        CARE OF             
MTR08456100001000000000000000RA              00163876    000100700000007000000570000000NN  NNW 000                       N    
RDG08456100WATRL000000004K00000000000000308007001052015090556N000000000000U81       000330400K 10000000010000000301           
CUS0845610000108435006005         BERRY, NICHOLAS     835 RAMSAY ST                           000N        CARE OF             
MTR08456100001000000000000000RA              00164215    000100710000007100000570000003NN  NNW 000                       N    
RDG08456100WATRL000000004K00000000000000392007101052015090630N000000000000U81       000340400K 10000000010000000376           
CUS0845610000108435005007         SIMPSON, ERIC       833 RAMSAY ST                           000N        CARE OF             
MTR08456100001000000000000000RA              00165426    000100720000007200000570000003NN  NNW 000                       N    
RDG08456100WATRL000000004K00000000000000326007201052015090636N000000000000U81       000060400K 10000000010000000316           
CUS0845610000108435004000         SIBY POTYHEN        831 RAMSAY ST                           000N        CARE OF             
MTR08456100001000000000000000RA              00165700    000100730000007300000570000000NN  NNW 000                       N    
RDG08456100WATRL000000004K00000000000001337007301052015090704N000100000010U81       000280400K 10000000010000001337           
CUS0845610000108435003002         JOHN & YONG SUK HEAT829 RAMSAY ST                           000N        CARE OF             
MTR08456100001000000000000000RA              00164018    000100740000007400000570000003NN  NNW 000                       N    
RDG08456100WATRL000000004K00000000000000352007401052015090735N000000000000U81       000310400K 10000000010000000340           
CUS0845610000108435002004         BECK, DANITA        827 RAMSAY ST                           000N        CARE OF             
MTR08456100001000000000000000RA              00164078    000100750000007500000570000003NN  NNW 000                       N    
RDG08456100WATRL000000004K00000000000000295007501052015090743N000000000000U81       000080400K 10000000010000000279           
CUS0845610000108435001006         SHALLECK, JASON P.  825 RAMSAY ST                           000N        CARE OF             
MTR08456100001000000000000000RA              00164016    000100760000007600000570000003NN  NNW 000                       N    
RDG08456100WATRL000000004K00000000000000971007601052015090805N000000000000U81       000220400K 10000000010000000953           
CUS0845610000108435000008         DEWEY, BRAIN        823 RAMSAY ST                           000N        CARE OF             
MTR08456100001000000000000000RA              00165982    000100770000007700000570000003NN  NNW 000                       N    
RDG08456100WATRL000000004K00000000000000453007701052015090808N000000000000U81       000030400K 10000000010000000440           
CUS0845610000108434999002         MICHEL, MARIA L.    821 RAMSAY ST                           000N        CARE OF             
MTR08456100001000000000000000RA              00164081    000100780000007800000440000003NN  NNW 000                       N    
RDG08456100WATRL000000004K00000000000000519007801052015090838N000300000010U81       000300400K 10000000010000000494           
CUS0845610000108248090006         MCDONALD, KATHLEEN  761 RAMSAY ST                           000N        CARE OF             
MTR08456100001000000000000000RA              10011359    005800790000007900000570000003NN  NNW 000                       N    
RDG08456100WATRL000000004K00000000000000096001401052015074237N000000000000U81       000840400K 10000000010000000092           
CUS0845610000108434998004         FRENCH, CRISTINA L  819 RAMSAY ST                           000N        CARE OF             
MTR08456100001000000000000000RA              00163878    000100800000008000000570000003NN  NNW 000                       N    
RDG08456100WATRL000000004K00000000000000302007901052015090842N000000000000U81       000040400K 10000000010000000288           
CUS0845610000108434997006         TAIBI, DANIEL       817 RAMSAY ST                           000N        CARE OF             
