FHDNNNN014003481003481003481N                                                                                           010777
RHD08468000NN02060206000002060000000002060206000345NY020602060206001700010000000000000000000002    12242014NY020000 N         
CUS0846800000108251483007         MAYOR AND CITY COUNC2500 S PACA ST                          000N        CARE OF             
MTR08468000001000000000000000RA              99999999    005800010000000100000620000003NN  NNW 000                       N    
RDG08468000WATRL000000004K00000000000000000000101122015115429N000000000000N88       000000400K 10000000010000000000           
CUS0846800000108251491000         MAYOR AND CITY COUNC2516 S PACA ST                          000N        CARE OF             
MTR08468000001000000000000000RA              45378681    005800020000000200000520000003NN  NNW 000                       N    
RDG08468000WATRL000000004K00000000000001812000201122015115435N000000000000N88       000060400K 10000000010000001812           
CUS0846800000108368335009         WOODARD, AUDREY G   2301 HARMAN AVE                         000N        CARE OF             
MTR08468000001000000000000000RA              10014366    005800030000000300000570000000NN  NNW 000                       N    
RDG08468000WATRL000000004K00000000000000233002401132015091336N000000000000U88       007660400K 10000000010000000222           
CUS0846800000108368336007         NORTON, EDNA        2303 HARMAN AVE                         000N        CARE OF             
MTR08468000001000000000000000RA              01075392    005800040000000400000610000000NN  NNW 000                       N    
RDG08468000WATRL000000004K00000000000000665002501132015091339N000000000000U88       000030400K 10000000010000000650           
CUS0846800000108368337005         MOORE, LATINA       2305 HARMAN AVE                         000N        CARE OF             
MTR08468000001000000000000000RA              01076391    005800050000000500000610000000NN  NNW 000                       N    
RDG08468000WATRL000000004K00000000000000942002601132015091634N000000000000U88       001750400K 10000000010000000926           
CUS0846800000108368338003         MCNEIL, PRISCILLA A.2307 HARMAN AVE                         000N        CARE OF             
MTR08468000001000000000000000RA              99293495    005800060000000600000570000000NN  NNW 000                       N    
RDG08468000WATRL000000004K00000000000001137002701132015091802N000000000000U88       000880400K 10000000010000001133           
CUS0846800000108368789007         LOCKLEAR, SUSAN H   2309 HARMAN AVE                         000N        CARE OF             
MTR08468000001000000000000000RA              30526108    005800070000000700000520000000NN  NNW 000                       N    
RDG08468000WATRL000000004K00000000000001777002801132015091849N000000000000U88       000470400K 10000000010000001768           
CUS0846800000108368790005         HITHON, CAROL E.    2311 HARMAN AVE                         000N        CARE OF             
MTR08468000001000000000000000RA              30526113    005800080000000800000520000000NN  NNW 000                       N    
RDG08468000WATRL000000004K00000000000003266002901132015091857N000000000000U88       000080400K 10000000010000003251           
CUS0846800000108368339001         SHIRLEY THAXTON     2313 HARMAN AVE                         000N        CARE OF             
MTR08468000001000000000000000RA              30524512    005800090000000900000520000000NN  NNW 000                       N    
RDG08468000WATRL000000004K00000000000003778003001132015091956N000000000000U88       000590400K 10000000010000003756           
CUS0846800000108368340009         NJOKU, GABRIEL      2315 HARMAN AVE                         000N        CARE OF             
MTR08468000001000000000000000RA              30524574    005800100000001000000520000000NN  NNW 000                       N    
RDG08468000WATRL000000004K00000000000002658003101132015092000N000000000000U88       000040400K 10000000010000002643           
CUS0846800000108368341007         IBITOLA, HERBERT    2317 HARMAN AVE                         000N        CARE OF             
MTR08468000001000000000000000RA              46886963    005800110000001100000520000000NN  NNW 000                       N    
RDG08468000WATRL000000004K00000000000001491003201132015092100N000000000000U88       000600400K 10000000010000001469           
CUS0846800000108368342005         SPOONER, BRONSON A. 2319 HARMAN AVE                         000N        CARE OF             
MTR08468000001000000000000000RA              01090617    005800120000001200000610000000NN  NNW 000                       N    
RDG08468000WATRL000000004K00000000000000802003301132015092110N000000000010U88       000100400K 10000000010000000794           
CUS0846800000108364032006         JOHNNY L GEORGE     2533 S PACA ST                          000N        CARE OF             
MTR08468000001000000000000000RA              30518312    005800130000001300000520000000NN  NNW 000                       N    
RDG08468000WATRL000000004K00000000000002405003501132015093124N000000000000U88       000120400K 10000000010000002390           
CUS0846800000108364031008         TYRONE HART         2531 S PACA ST                          000N        CARE OF             
MTR08468000001000000000000000RA              30518367    005800140000001400000520000000NN  NNW 000                       N    
RDG08468000WATRL000000004K00000000000002756003401132015093112N000000000000U88       006020400K 10000000010000002750           
CUS0846800000108364030000         WALL, DANTE TAREYTON2529 S PACA ST                          000N        CARE OF             
MTR08468000001000000000000000RA              10023713    005800150000001500000570000000NN  NNW 000                       N    
RDG08468000WATRL000000004K00000000000000018003601132015093227N000000000000U88       000630400K 10000000010000000018           
CUS0846800000108364028004         SNIPES, DELORES     2527 S PACA ST                          000N        CARE OF             
MTR08468000001000000000000000RA              01093129    005800160000001600000610000000NY  NNW 000                       N    
MTM0846800001093129    TOO CLOUDY                                                                                             
RDG08468000WATRL000000004K00000000000000000000000000000000000 000000000000U         000000400  10000000010000001559           
CUS0846800000108364027006         RHEA FAISON         2525 S PACA ST                          000N        CARE OF             
MTR08468000001000000000000000RA              01083519    005800170000001700000610000000NN  NNW 000                       N    
RDG08468000WATRL000000004K00000000000001276003701132015093745N000000000000U88       003180400K 10000000010000001253           
CUS0846800000108364026008         KINGSTON PROPERTIES,2523 S PACA ST                          000N        CARE OF             
MTR08468000001000000000000000RA              14921987    005800180000001800000310000000NN  NNW 000                       N    
RDG08468000WATRL000000004K00000000000000536003801132015093755N000000000000U88       000100400K 10000000010000000493           
CUS0846800000108364025000         REOBE RICHARDSON    2521 S PACA ST                          000N        CARE OF             
MTR08468000001000000000000000RA              46880497    005800190000001900000520000000NN  NNW 000                       N    
RDG08468000WATRL000000004K00000000000001029003901132015094253N000000000000U88       002980400K 10000000010000001019           
CUS0846800000108364024003         WESBY, CHRYSTAL D.  2519 S PACA ST                          000N        CARE OF             
MTR08468000001000000000000000RA              46880515    005800200000002000000520000000NN  NNW 000                       N    
RDG08468000WATRL000000004K00000000000002523004001132015094304N000000000000U88       000110400K 10000000010000002508           
CUS0846800000108364023005         RICHARDSON, TOWANDA 2517 S PACA ST                          000N        CARE OF             
MTR08468000001000000000000000RA              99287786    005800210000002100000570000000NY  NNW 000                       N    
MTM0846800099287786    ICE INSIDE METER                                                                                       
RDG08468000WATRL000000004K00000000000000000000000000000000000 000000000000U         000000400  10000000010000001325           
CUS0846800000108364022007         JOHNSON JR, LACURTIS2515 S PACA ST                          000N        CARE OF             
MTR08468000001000000000000000RA              99287110    005800220000002200000570000000NY  NNW 000                       N    
MTM0846800099287110    ICE INSIDE METER                                                                                       
RDG08468000WATRL000000004K00000000000000000000000000000000000 000000000000U         000000400  10000000010000001304           
CUS0846800000108364021009         FEDERAL NATIONAL MOR2513 S PACA ST                          000N        CARE OF             
MTR08468000001000000000000000RA              01084962    005800230000002300000610000003NN  NNW 000                       N    
RDG08468000WATRL000000004K00000000000000721004101132015095434N000000000010U88       006900400K 10000000010000000708           
CUS0846800000108364020001         MYERS, DEBRA A      2511 S PACA ST                          000N        CARE OF             
MTR08468000001000000000000000RA              01085013    005800240000002400000610000003NN  NNW 000                       N    
RDG08468000WATRL000000004K00000000000000475004201132015095442N000000000000U88       000080400K 10000000010000000435           
CUS0846800000108364019003         VIRGINIA DINGLE     2509 S PACA ST                          000N        CARE OF             
MTR08468000001000000000000000RA              01076628    005800250000002500000610000000NN  NNW 000                       N    
RDG08468000WATRL000000004K00000000000000656004301132015095800N000000000000U88       001980400K 10000000010000000650           
CUS0846800000108364018005         BAILEY, EUGENE      2507 S PACA ST                          000N        CARE OF             
MTR08468000001000000000000000RA              01076393    005800260000002600000610000003NN  NNW 000                       N    
RDG08468000WATRL000000004K00000000000001363004401132015095808N000000000000U88       000080400K 10000000010000001321           
CUS0846800000108364017007         MASON, MARTINA      2505 S PACA ST                          000N        CARE OF             
MTR08468000001000000000000000RA              99287785    005800270000002700000570000000NN  NNW 000                       N    
RDG08468000WATRL000000004K00000000000000647004501132015100139N000000000000U88       002110400K 10000000010000000612           
CUS0846800000108364016009         MARISA T STEWART    2503 S PACA ST                          000N        CARE OF             
MTR08468000001000000000000000RA              14922084    005800280000002800000310000000NN  NNW 000                       N    
RDG08468000WATRL000000004K00000000000000201004601132015100144N000000000000U88       000050400K 10000000010000000196           
CUS0846800000108364015001         JAMES BROWN & WF    2501 S PACA ST                          000N        CARE OF             
MTR08468000001000000000000000RA              48582223    005800290000002900000520000000NN  NNW 000                       N    
RDG08468000WATRL000000004K00000000000001494004701132015100537N000000000000U88       002330400K 10000000010000001479           
CUS0846800000108368418003         PERKINS, TIMOTHY DER2318 WINDER ST                          000N        CARE OF             
MTR08468000001000000000000000RA              30524731    005800300000003000000520000000NN  NNW 000                       N    
RDG08468000WATRL000000004K00000000000004751004801132015101809N000000000000U88       007520400K 10000000010000004712           
CUS0846800000108368417005         DIXON, TENYEH       2316 WINDER ST                          000N        CARE OF             
MTR08468000001000000000000000RA              30524727    005800310000003100000520000000NN  NNW 000                       N    
RDG08468000WATRL000000004K00000000000003133004901132015101821N000000000000U88       000120400K 10000000010000003108           
CUS0846800000108368416007         CAMMON, MIRIAM      2314 WINDER ST                          000N        CARE OF             
MTR08468000001000000000000000RA              30524729    005800320000003200000520000000NN  NNW 000                       N    
RDG08468000WATRL000000004K00000000000003553005001132015101854N000000000000U88       000330400K 10000000010000003531           
CUS0846800000108368415009         MORRISON, RANDOLPH  2312 WINDER ST                          000N        CARE OF             
MTR08468000001000000000000000RA              36698916    005800330000003300000520000000NN  NNW 000                       N    
RDG08468000WATRL000000004K00000000000002553005101132015101902N000000000000U88       000080400K 10000000010000002516           
CUS0846800000108368792001         GWENDOLYN E JOHNSON 2310 WINDER ST                          000N        CARE OF             
MTR08468000001000000000000000RA              30526097    005800340000003400000520000000NN  NNW 000                       N    
RDG08468000WATRL000000004K00000000000005736005201132015102231N000000000000U88       002090400K 10000000010000005723           
CUS0846800000108368791003         FRANKLIN, ERNESTINE 2308 WINDER ST                          000N        CARE OF             
MTR08468000001000000000000000RA              30526035    005800350000003500000520000000NN  NNW 000                       N    
RDG08468000WATRL000000004K00000000000001483005301132015102248N000000000000U88       000170400K 10000000010000001465           
CUS0846800000108368414002         JACKSON, JANESE L.  2306 WINDER ST                          000N        CARE OF             
MTR08468000001000000000000000RA              30524728    005800360000003600000520000003NY  NNW 000                       N    
MTM0846800030524728    CANT GET THE READ                                                                                      
RDG08468000WATRL000000004K00000000000000000000000000000000000 000000000000U         000000400  10000000010000002728           
CUS0846800000108368413004         HAYWOOD A HARRIS    2304 WINDER ST                          000N        CARE OF             
MTR08468000001000000000000000RA              30524726    005800370000003700000520000000NY  NNW 000                       N    
MTM0846800030524726    CANT GET THE READ                                                                                      
RDG08468000WATRL000000004K00000000000000000000000000000000000 000000000000U         000000400  10000000010000002567           
CUS0846800000108368412006         HAMMOND, LARRY      2302 WINDER ST                          000N        CARE OF             
MTR08468000001000000000000000RA              30524751    005800380000003800000520000000NN  NNW 000                       N    
RDG08468000WATRL000000004K00000000000003522005401132015102729N000000000000U88       002810400K 10000000010000003507           
CUS0846800000108368411008         JACKSON, CHARLITA D.2300 WINDER ST                          000N        CARE OF             
MTR08468000001000000000000000RA              30524730    005800390000003900000520000003NN  NNW 000                       N    
RDG08468000WATRL000000004K00000000000002459005501132015102802N000000000000U88       000330400K 10000000010000002439           
CUS0846800000108251500008         WILLIAMS, MARIE     2421 S PACA ST                          000N        CARE OF             
MTR08468000001000000000000000RA              01082135    005800400000004000000610000003NN  NNW 000                       N    
RDG08468000WATRL000000004K00000000000000879005801132015104541N000000000000U88       008230400K 10000000010000000864           
CUS0846800000108251501006         JAMES HOPEWELL      2419 S PACA ST                          000N        CARE OF             
MTR08468000001000000000000000RA              01082137    005800410000004100000610000003NN  NNW 000                       N    
RDG08468000WATRL000000004K00000000000000419005901132015104551N000000000000U88       000100400K 10000000010000000416           
CUS0846800000108251502004         BB REALTY LLC       2417 S PACA ST                          000N        CARE OF             
MTR08468000001000000000000000RA              01082132    005800420000004200000610000003NN  NNW 000                       N    
RDG08468000WATRL000000004K00000000000000643005601132015103154N000000000000U88       002320400K 10000000010000000643           
CUS0846800000108251503002         LAKESIDE NATIONAL,LL2415 S PACA ST                          000N        CARE OF             
MTR08468000001000000000000000RA              27265402    005800430000004300000520000003NN  NNW 000                       N    
RDG08468000WATRL000000004K00000000000002518005701132015103158N000000000000U88       000040400K 10000000010000002518           
CUS0846800000108361802005         DEMAR, DELORES A    2400 HOLLINS FERRY RD                   000N        CARE OF             
MTR08468000001000000000000000RA              30514129    005800440000004400000520000000NN  NNW 000                       N    
RDG08468000WATRL000000004K00000000000003862010201132015124517N000000000000U88       001910400K 10000000010000003855           
CUS0846800000108361803003         BOOTH, ELAINE R.    2402 HOLLINS FERRY RD                   000N        CARE OF             
MTR08468000001000000000000000RA              30514010    005800450000004500000520000003NN  NNW 000                       N    
RDG08468000WATRL000000004K00000000000003751010301132015124548N000000000000U88       000310400K 10000000010000003737           
CUS0846800000108361804001         GEORGE, RASHEEDA    2404 HOLLINS FERRY RD                   000N        CARE OF             
MTR08468000001000000000000000RA              30514007    005800460000004600000520000000NN  NNW 000                       N    
RDG08468000WATRL000000004K00000000000002937010401132015124552N000000000000U88       000040400K 10000000010000002930           
CUS0846800000108361805008         RIDDICK, JOYCE A.   2406 HOLLINS FERRY RD                   000N        CARE OF             
MTR08468000001000000000000000RA              30518792    005800470000004700000520000003NN  NNW 000                       N    
RDG08468000WATRL000000004K00000000000003531010501132015124617N000000000000U88       000250400K 10000000010000003515           
CUS0846800000108361806006         MICHAEL MCCREA & WF 2408 HOLLINS FERRY RD                   000N        CARE OF             
MTR08468000001000000000000000RA              24758525    005800480000004800000520000000NN  NNW 000                       N    
RDG08468000WATRL000000004K00000000000008008010601132015124621N000000000000U88       000040400K 10000000010000007991           
CUS0846800000108361807004         SAMMIE L GRAHAM     2410 HOLLINS FERRY RD                   000N        CARE OF             
MTR08468000001000000000000000RA              30514046    005800490000004900000520000003NN  NNW 000                       N    
RDG08468000WATRL000000004K00000000000002022010801132015124745N000000000000U88       000360400K 10000000010000001992           
CUS0846800000108361808002         BROWN, IRIS M.      2412 HOLLINS FERRY RD                   000N        CARE OF             
MTR08468000001000000000000000RA              30514043    005800500000005000000520000000NN  NNW 000                       N    
RDG08468000WATRL000000004K00000000000002862010701132015124709N000000000000U88       000480400K 10000000010000002848           
CUS0846800000108361809000         DELORES BROOKS      2414 HOLLINS FERRY RD                   000N        CARE OF             
MTR08468000001000000000000000RA              30514006    005800510000005100000520000003NN  NNW 000                       N    
RDG08468000WATRL000000004K00000000000001265010901132015124842N000000000000U88       000570400K 10000000010000001256           
CUS0846800000108361810008         ROYSTER, VIVIAN L   2416 HOLLINS FERRY RD                   000N        CARE OF             
MTR08468000001000000000000000RA              99189426    005800520000005200000570000003NN  NNW 000                       N    
RDG08468000WATRL000000004K00000000000000777011001132015124845N000000000010U88       000030400K 10000000010000000762           
CUS0846800000108251508001         FRANCO-GONZALES, EZE2404 HURON ST                           000N        CARE OF             
MTR08468000001000000000000000RA              14929877    005800530000005300000310000003NN  NNW 000                       N    
RDG08468000WATRL000000004K00000000000000485004901122015130307N000000000000N88       000280400K 10000000010000000466           
CUS0846800000108251509009         GORHAM, CRYSTAL     2406 HURON ST                           000N        CARE OF             
MTR08468000001000000000000000RA              27814916    005800540000005400000520000003NN  NNW 000                       N    
RDG08468000WATRL000000004K00000000000001801004801122015130239N000000000000N88       000290400K 10000000010000001798           
CUS0846800000108251510007         HARRIETTA WALLACE & 2408 HURON ST                           000N        CARE OF             
MTR08468000001000000000000000RA              24760464    005800550000005500000520000003NN  NNW 000                       N    
RDG08468000WATRL000000004K00000000000002665004701122015130210N000000000000N88       000280400K 10000000010000002651           
CUS0846800000108251511005         BROOKS, HERMAN G    2410 HURON ST                           000N        CARE OF             
MTR08468000001000000000000000RA              36696546    005800560000005600000520000003NN  NNW 000                       N    
RDG08468000WATRL000000004K00000000000004056004601122015130142N000000000000N88       007030400K 10000000010000004056           
CUS0846800000108251512003         FORD, STELLA        2412 HURON ST                           000N        CARE OF             
MTR08468000001000000000000000RA              41080798    005800570000005700000520000003NN  NNW 000                       N    
RDG08468000WATRL000000004K00000000000002005005001122015130409N000000000010N88       000620400K 10000000010000001943           
CUS0846800000108251513001         MITCHELL, GLORIA M. 2414 HURON ST                           000N        CARE OF             
MTR08468000001000000000000000RA              36696624    005800580000005800000520000003NN  NNW 000                       N    
RDG08468000WATRL000000004K00000000000001280005101122015130443N000000000000N88       000340400K 10000000010000001274           
CUS0846800000108251514009         GRIFFIN, ANGELA S   2416 HURON ST                           000N        CARE OF             
MTR08468000001000000000000000RA              48593559    005800590000005900000520000003NN  NNW 000                       N    
RDG08468000WATRL000000004K00000000000001505005201122015130447N000000000000N88       000040400K 10000000010000001495           
CUS0846800000108251515006         BARKSDALE, HOWARD   2403 HURON ST                           000N        CARE OF             
MTR08468000001000000000000000RA              27817425    005800600000006000000520000003NN  NNW 000                       N    
RDG08468000WATRL000000004K00000000000003699010101132015124206N000400000010U88       000570400K 10000000010000003677           
CUS0846800000108251516004         JOSEPH N DOWELL & WF2405 HURON ST                           000N        CARE OF             
MTR08468000001000000000000000RA              41081570    005800610000006100000520000003NN  NNW 000                       N    
RDG08468000WATRL000000004K00000000000000000005301122015130523N000000000000N88       000360400K 10000000010000000000           
CUS0846800000108251518000         JNO H DOWELL        2413 HURON ST                           000N        CARE OF             
MTR08468000001000000000000000RA              10019855    005800620000006200000570000003NN  NNW 000                       N    
RDG08468000WATRL000000004K00000000000000351010001132015124109N000000000010U88       005250400K 10000000010000000295           
CUS0846800000108251519008         ANTHONY J LESTER    2418 HURON ST                           000N        CARE OF             
MTR08468000001000000000000000RA              27131796    005800630000006300000520000003NN  NNW 000                       N    
RDG08468000WATRL000000004K00000000000002620005401122015130635N000000000000N88       000720400K 10000000010000002612           
CUS0846800000108251520006         JOHNSON, SHARON W   2417 HURON ST                           000N        CARE OF             
MTR08468000001000000000000000RA              27131795    005800640000006400000520000003NN  NNW 000                       N    
RDG08468000WATRL000000004K00000000000002277005501122015130725N000000000000N88       000500400K 10000000010000002266           
CUS0846800000108251522002         BUTLER, STACCATO R  2421 HURON ST                           000N        CARE OF             
MTR08468000001000000000000000RA              46876199    005800650000006500000520000003NN  NNW 000                       N    
RDG08468000WATRL000000004K00000000000001215005601122015130803N000000000000N88       000380400K 10000000010000001213           
CUS0846800000108251523000         BROWN, EUGENIA MAY  2420 HURON ST                           000N        CARE OF             
MTR08468000001000000000000000RA              31584862    005800660000006600000520000003NN  NNW 000                       N    
RDG08468000WATRL000000004K00000000000002006005701122015130846N000000000000N88       000430400K 10000000010000002003           
CUS0846800000108251524008         STEVEN TOURKIN, LLC 2422 HURON ST                           000N        CARE OF             
MTR08468000001000000000000000RA              99288529    005800670000006700000570000003NN  NNW 000                       N    
RDG08468000WATRL000000004K00000000000001017005801122015130914N000000000000N88       000280400K 10000000010000001004           
CUS0846800000108251526003         BETHANY BAPTIST CHUR2427 HURON ST                           000N        CARE OF             
MTR08468000001000000000000000RA              26007855    005800680000006800000520000003NN  NNW 000                       N    
RDG08468000WATRL000000004K00000000000001829005901122015130953N000000000000N88       000390400K 10000000010000001821           
CUS0846800000108251527001         BETHANY BAPTIST CHUR2429 HURON ST                           000N        CARE OF             
MTR08468000001000000000000000RA              24226602    005800690000006900000520000003NN  NNW 000                       N    
RDG08468000WATRL000000004K00000000000002462006001122015131004N000400000010N88       000110400K 10000000010000002460           
CUS0846800000108251528009         VALDIVIA, ANGELA    2501 HURON ST                           000N        CARE OF             
MTR08468000001000000000000000RA              01082138    005800700000007000000610000003NN  NNW 000   VACANT PROPERTY     N    
RDG08468000WATRL000000004K00000000000000138006101122015131008N000000000000N88       000040400K 10000000010000000138           
CUS0846800000108407928004         TYSON, MICHAEL A    2500 HURON ST                           000N        CARE OF             
MTR08468000001000000000000000RA              45373125    005800710000007100000520000003NN  NNW 000                       N    
RDG08468000WATRL000000004K00000000000002078006201122015131051N000000000000N88       000430400K 10000000010000002069           
CUS0846800000108251529007         DAVIS, ETTA M.      2502 HURON ST                           000N        CARE OF             
MTR08468000001000000000000000RA              45373128    005800720000007200000520000003NN  NNW 000                       N    
RDG08468000WATRL000000004K00000000000001943006301122015131117N000000000000N88       000260400K 10000000010000001926           
CUS0846800000108407926008         JOYNER JR., MARK A. 2504 HURON ST                           000N        CARE OF             
MTR08468000001000000000000000RA              45373069    005800730000007300000520000003NN  NNW 000                       N    
RDG08468000WATRL000000004K00000000000001035006401122015131215N000000000000N88       000580400K 10000000010000001025           
CUS0846800000108251530005         JACKSON, SUSIE M    2508 HURON ST                           000N        CARE OF             
MTR08468000001000000000000000RA              40321386    005800740000007400000520000003NN  NNW 000                       N    
RDG08468000WATRL000000004K00000000000001952006501122015131235N000000000000N88       000200400K 10000000010000001936           
CUS0846800000108251531003         JOHNSON, ERNESTINE M2510 HURON ST                           000N        CARE OF             
MTR08468000001000000000000000RA              27815201    005800750000007500000520000003NN  NNW 000                       N    
RDG08468000WATRL000000004K00000000000002325006601122015131303N000300000010N88       000280400K 10000000010000002313           
CUS0846800000108407927006         MARYLAND GUYON, LLC 2518 HURON ST                           000N        CARE OF             
MTR08468000001000000000000000RA              10012933    005800760000007600000570000003NN  NNW 000                       N    
RDG08468000WATRL000000004K00000000000000150006701122015131614N000000000011N88       000820400K 10000000010000000131           
CUS0846800000108251532001         JOHNSON, INDIA M    2505 HURON ST                           000N        CARE OF             
MTR08468000001000000000000000RA              44177191    005800770000007700000520000000NN  NNW 000                       N    
RDG08468000WATRL000000004K00000000000001613008001122015132144N000000000011N88       000090400K 10000000010000001598           
CUS0846800000108251533009         HERNANDEZ, JOSE O   2507 HURON ST                           000N        CARE OF             
MTR08468000001000000000000000RA              44173233    005800780000007800000520000003NN  NNW 000                       N    
RDG08468000WATRL000000004K00000000000000753007901122015132102N000000000000N88       000280400K 10000000010000000750           
CUS0846800000108251534007         SPRIGGS-COLEMAN, EVE2509 HURON ST                           000N        CARE OF             
MTR08468000001000000000000000RA              29082462    005800790000007900000520000003NN  NNW 000                       N    
RDG08468000WATRL000000004K00000000000002709007801122015132034N000000000000N88       000320400K 10000000010000002699           
CUS0846800000108251535004         ROLAND C CHRISTIAN  2511 HURON ST                           000N        CARE OF             
MTR08468000001000000000000000RA              26010546    005800800000008000000520000003NN  NNW 000                       N    
RDG08468000WATRL000000004K00000000000002098007701122015132002N000000000010N88       000380400K 10000000010000002095           
CUS0846800000108251536002         NOEL, MICHAEL       2512 HURON ST                           000N        CARE OF             
MTR08468000001000000000000000RA              26003300    005800810000008100000520000003NN  NNW 000                       N    
RDG08468000WATRL000000004K00000000000000998006801122015131355N000000000000N88       000160400K 10000000010000000995           
CUS0846800000108251537000         MICHAEL C NOEL      2514 HURON ST                           000N        CARE OF             
MTR08468000001000000000000000RA              41076701    005800820000008200000520000003NN  NNW 000                       N    
RDG08468000WATRL000000004K00000000000002398006901122015131425N000000000000N88       000300400K 10000000010000002344           
CUS0846800000108251538008         ADAMS, SHAUNA N.    2516 HURON ST                           000N        CARE OF             
MTR08468000001000000000000000RA              27814265    005800830000008300000520000003NN  NNW 000                       N    
RDG08468000WATRL000000004K00000000000003257007001122015131452N000000000000N88       000270400K 10000000010000003257           
CUS0846800000108251539006         STENNETT, ZINA CRYST2520 HURON ST                           000N        CARE OF             
MTR08468000001000000000000000RA              44177192    005800840000008400000520000003NN  NNW 000                       N    
RDG08468000WATRL000000004K00000000000001355007101122015131632N000000000000N88       000180400K 10000000010000001343           
CUS0846800000108251540004         MARCUE, KELLEY I.   2522 HURON ST                           000N        CARE OF             
MTR08468000001000000000000000RA              24228711    005800850000008500000520000003NN  NNW 000                       N    
RDG08468000WATRL000000004K00000000000001348007201122015131707N000400000010N88       000350400K 10000000010000001345           
CUS0846800000108251541002         NUYGEN, WYNN        2513 HURON ST                           000N        CARE OF             
MTR08468000001000000000000000RA              27820778    005800860000008600000520000003NN  NNW 000                       N    
RDG08468000WATRL000000004K00000000000002971007601122015131924N000000000000N88       000460400K 10000000010000002971           
CUS0846800000108251542000         BEASLEY, MARY       2517 HURON ST                           000N        CARE OF             
MTR08468000001000000000000000RA              10023297    005800870000008700000570000003NN  NNW 000   VACANT PROPERTY     N    
RDG08468000WATRL000000004K00000000000000158007301122015131728N000000000000N88       000210400K 10000000010000000158           
CUS0846800000108251543008         ZANNS PROPERTIES, LL2519 HURON ST                           000N        CARE OF             
MTR08468000001000000000000000RA              99289676    005800880000008800000570000003NN  NNW 000                       N    
RDG08468000WATRL000000004K00000000000000405007501122015131838N000000000000N88       000320400K 10000000010000000400           
CUS0846800000108251544006         MARQUESS, ALFRED EUG2521 HURON ST                           000N        CARE OF             
MTR08468000001000000000000000RA              27131793    005800890000008900000520000003NN  NNW 000                       N    
RDG08468000WATRL000000004K00000000000001664007401122015131806N000000000000N88       000380400K 10000000010000001661           
CUS0846800000108373820003         ALLEN L JOHNSON JR. 2401 RIDGELY ST                         000N        CARE OF             
MTR08468000001000000000000000RA              31586468    005800900000009000000520000000NN  NNW 000                       N    
RDG08468000WATRL000000004K00000000000002062000301122015120329N000000000000N88       005340400K 10000000010000002049           
CUS0846800000108373821001         FORD-ADAMS, KOKEETA 2403 RIDGELY ST                         000N        CARE OF             
MTR08468000001000000000000000RA              99388219    005800910000009100000570000000NN  NNW 000                       N    
RDG08468000WATRL000000004K00000000000001776000401122015120334N000000000000N88       000050400K 10000000010000001755           
CUS0846800000108373822009         FIELDS MANAGEMENT CO2405 RIDGELY ST                         000N        CARE OF             
MTR08468000001000000000000000RA              14906868    005800920000009200000310000000NN  NNW 000                       N    
RDG08468000WATRL000000004K00000000000000323000501122015120649N000000000000N88       001950400K 10000000010000000307           
CUS0846800000108373823007         STELLA M MOORE      2407 RIDGELY ST                         000N        CARE OF             
MTR08468000001000000000000000RA              14909301    005800930000009300000310000000NN  NNW 000                       N    
RDG08468000WATRL000000004K00000000000000442000601122015120708N000000000000N88       000190400K 10000000010000000411           
CUS0846800000108373824005         ARGUETA, SILVIA LORE2409 RIDGELY ST                         000N        CARE OF             
MTR08468000001000000000000000RA              31586473    005800940000009400000520000000NN  NNW 000                       N    
RDG08468000WATRL000000004K00000000000003288000801152015142133O000300000010N80       000200400K 10000000010000003203           
CUS0846800000108373825002         DAVIDGE, DOROTHY L  2411 RIDGELY ST                         000N        CARE OF             
MTR08468000001000000000000000RA              31586472    005800950000009500000520000000NN  NNW 000                       N    
RDG08468000WATRL000000004K00000000000002245000701122015121108N000000000031N88       000150400K 10000000010000002232           
CUS0846800000108373826000         TAYLOR, KEVIN C.    2413 RIDGELY ST                         000N        CARE OF             
MTR08468000001000000000000000RA              31586509    005800960000009600000520000000NN  NNW 000                       N    
RDG08468000WATRL000000004K00000000000002990000901122015121205N000000000000N88       000570400K 10000000010000002962           
CUS0846800000108373827008         JETT, BARBARA J     2415 RIDGELY ST                         000N        CARE OF             
MTR08468000001000000000000000RA              31586507    005800970000009700000520000000NN  NNW 000                       N    
RDG08468000WATRL000000004K00000000000003273001001122015121209N000000000000N88       000040400K 10000000010000003260           
CUS0846800000108373828006         MEJIA, TEOFILO S    2417 RIDGELY ST                         000N        CARE OF             
MTR08468000001000000000000000RA              01106357    005800980000009800000610000000NN  NNW 000                       N    
RDG08468000WATRL000000004K00000000000000597001101122015121258N000000000000N88       000490400K 10000000010000000576           
CUS0846800000108373829004         ALEXANDER, DORIS MAY2419 RIDGELY ST                         000N        CARE OF             
MTR08468000001000000000000000RA              99388220    005800990000009900000570000000NN  NNW 000                       N    
RDG08468000WATRL000000004K00000000000000898001201122015121307N000000000000N88       000090400K 10000000010000000882           
CUS0846800000108373819005         FIELDS MANAGEMENT CO2421 RIDGELY ST                         000N        CARE OF             
MTR08468000001000000000000000RA              31585777    005801000000010000000520000000NN  NNW 000                       N    
RDG08468000WATRL000000004K00000000000003854002401122015122616N000000000000N88       000760400K 10000000010000003830           
CUS0846800000108373830002         GIBSON, CRYSTAL R.  2423 RIDGELY ST                         000N        CARE OF             
MTR08468000001000000000000000RA              10012365    005801010000010100000570000000NN  NNW 000                       N    
RDG08468000WATRL000000004K00000000000000403002501122015122620N000000000000N88       000040400K 10000000010000000379           
CUS0846800000108373831000         FAULCON SR., CLEVELA2425 RIDGELY ST                         000N        CARE OF             
MTR08468000001000000000000000RA              31585788    005801020000010200000520000000NN  NNW 000                       N    
RDG08468000WATRL000000004K00000000000003014002601122015122744N000000000000N88       000840400K 10000000010000003001           
CUS0846800000108373832008         JUDY&ROBERT JONES   2427 RIDGELY ST                         000N        CARE OF             
MTR08468000001000000000000000RA              10015777    005801030000010300000570000000NN  NNW 000                       N    
RDG08468000WATRL000000004K00000000000000678002701122015122751N000000000000N88       000070400K 10000000010000000656           
CUS0846800000108373833006         PAUL & BETTY KERSEY 2429 RIDGELY ST                         000N        CARE OF             
MTR08468000001000000000000000RA              14929598    005801040000010400000310000000NN  NNW 000                       N    
RDG08468000WATRL000000004K00000000000000364002801122015122953N000000000000N88       001220400K 10000000010000000355           
CUS0846800000108373834004         VERA I SMALL        2431 RIDGELY ST                         000N        CARE OF             
MTR08468000001000000000000000RA              14926327    005801050000010500000310000000NN  NNW 000                       N    
RDG08468000WATRL000000004K00000000000000222002901122015123001N000000000000N88       000080400K 10000000010000000217           
CUS0846800000108373835001         DEAN IV, FLOYD B    2433 RIDGELY ST                         000N        CARE OF             
MTR08468000001000000000000000RA              31585773    005801060000010600000520000000NN  NNW 000                       N    
RDG08468000WATRL000000004K00000000000002574003001122015123224N000000000000N88       001430400K 10000000010000002570           
CUS0846800000108373836009         SWINTON, JAMES M    2435 RIDGELY ST                         000N        CARE OF             
MTR08468000001000000000000000RA              31585775    005801070000010700000520000000NN  NNW 000                       N    
RDG08468000WATRL000000004K00000000000004225003101122015123240N000000000000N88       000160400K 10000000010000004219           
CUS0846800000108373837007         TAYLOR, FRANCES H   2437 RIDGELY ST                         000N        CARE OF             
MTR08468000001000000000000000RA              01107706    005801080000010800000610000000NN  NNW 000                       N    
RDG08468000WATRL000000004K00000000000000465009901132015123224N000000000000U88       000120400K 10000000010000000451           
CUS0846800000108373838005         CROSSFIELD, CHERYL A2439 RIDGELY ST                         000N        CARE OF             
MTR08468000001000000000000000RA              01107711    005801090000010900000610000000NN  NNW 000                       N    
RDG08468000WATRL000000004K00000000000000776009801132015123212N000000000000U88       001550400K 10000000010000000760           
CUS0846800000108251546001         CROSS, SYLVESTER V. 2503 RIDGELY ST                         000N        CARE OF             
MTR08468000001000000000000000RA              50478014    005801100000011000000520000003NN  NNW 000                       N    
RDG08468000WATRL000000004K00000000000001207004501122015124959N000000000000N88       000320400K 10000000010000001204           
CUS0846800000108251547009         2505 RIDGELY LLC    2505 RIDGELY ST                         000N        CARE OF             
MTR08468000001000000000000000RA              10007795    005801110000011100000570000003NN  NNW 000                       N    
RDG08468000WATRL000000004K00000000000000181004401122015124927N000300000010N88       000840400K 10000000010000000170           
CUS0846800000108251548007         LEDBETTER, TODD L   2507 RIDGELY ST                         000N        CARE OF             
MTR08468000001000000000000000RA              24224854    005801120000011200000520000003NN  NNW 000                       N    
RDG08468000WATRL000000004K00000000000001536009701132015122937N000000000000U88       000380400K 10000000010000001536           
CUS0846800000108251549005         TODD LEDBETTER      2509 RIDGELY ST                         000N        CARE OF             
MTR08468000001000000000000000RA              77886749    005801130000011300000350000003NN  NNW 000                       N    
RDG08468000WATRL000000004K00000000000000000004301122015124803S001000000010N88       000710400K 10000000010000000000           
CUS0846800000108251550003         CROMWELL JR, MELVIN 2511 RIDGELY ST                         000N        CARE OF             
MTR08468000001000000000000000RA              14925873    005801140000011400000310000003NN  NNW 000                       N    
RDG08468000WATRL000000004K00000000000000334004201122015124652N000000000000N88       000720400K 10000000010000000322           
CUS0846800000108251551001         ABDUL-GHANI, TAREQ  2513 RIDGELY ST                         000N        CARE OF             
MTR08468000001000000000000000RA              14925179    005801150000011500000310000003NN  NNW 000                       N    
RDG08468000WATRL000000004K00000000000000648009601132015122859N000000000000U88       000060400K 10000000010000000637           
CUS0846800000108251552009         KELLUM, MARILYN C   2515 RIDGELY ST                         000N        CARE OF             
MTR08468000001000000000000000RA              14925840    005801160000011600000310000003NN  NNW 000                       N    
RDG08468000WATRL000000004K00000000000000515009501132015122853N000000000000U88       002200400K 10000000010000000488           
CUS0846800000108251553007         TEKLEGIORGIS, MEAZA 2517 RIDGELY ST                         000N        CARE OF             
MTR08468000001000000000000000RA              10007799    005801170000011700000570000003NN  NNW 000                       N    
RDG08468000WATRL000000004K00000000000000086004101122015124540N000000000000N88       001100400K 10000000010000000081           
CUS0846800000108251554005         LEONARD MACKEY & WF 2519 RIDGELY ST                         000N        CARE OF             
MTR08468000001000000000000000RA              45376489    005801180000011800000520000003NN  NNW 000                       N    
RDG08468000WATRL000000004K00000000000001726009401132015122513N000000000000U88       000130400K 10000000010000001721           
CUS0846800000108251555002         SEWELL, EUGENE L    2521 RIDGELY ST                         000N        CARE OF             
MTR08468000001000000000000000RA              40781856    005801190000011900000520000003NN  NNW 000                       N    
RDG08468000WATRL000000004K00000000000002035009301132015122500N000000000000U88       002760400K 10000000010000002017           
CUS0846800000108251557008         STAR OF BETHLEHEM   2525 RIDGELY ST                         000N        CARE OF             
MTR08468000001000000000000000RA              9692268     007501200000012000000570000003NY  NNW 000                       N    
MTM084680009692268     FROZEN INSIDE VAULT                                                                                    
RDG08468000WATRL000000004K00000000000000000000000000000000000 000000000000U         000000400  10000000010000001096           
CUS0846800000108251558006         STAR OF BETHLEHEM   2527 RIDGELY ST                         000N        CARE OF             
MTR08468000001000000000000000RA              24768870    005801210000012100000520000003NN  NNW 000   VACANT PROPERTY     N    
RDG08468000WATRL000000004K00000000000000000004001122015124350N000000000000N88       000020400K 10000000010000000000           
CUS0846800000108251559004         STAR OF BETHLEHEM   2529 RIDGELY ST                         000N        CARE OF             
MTR08468000001000000000000000RA              2783536     005801220000012200000530000003NN  NNW 000   VACANT PROPERTY     N    
RDG08468000WATRL000000004K00000000000000000003901122015124348N000000000000N88       000700400K 10000000010000000000           
CUS0846800000108365231003         MURDOCK, ERAINA     2400 RIDGELY ST                         000N        CARE OF             
MTR08468000001000000000000000RA              01106477    005801230000012300000610000000NN  NNW 000                       N    
RDG08468000WATRL000000004K00000000000000455001301122015121503N000000000010N88       001160400K 10000000010000000449           
CUS0846800000108365232001         EKPA, UNYIME        2402 RIDGELY ST                         000N        CARE OF             
MTR08468000001000000000000000RA              01082131    005801240000012400000610000000NN  NNW 000                       N    
RDG08468000WATRL000000004K00000000000001353001401122015121714N000000000000N88       001310400K 10000000010000001343           
CUS0846800000108365233009         MEHTA, PALLAVI      2404 RIDGELY ST                         000N        CARE OF             
MTR08468000001000000000000000RA              30522183    005801250000012500000520000000NN  NNW 000                       N    
RDG08468000WATRL000000004K00000000000002648001501122015121842N000000000000N88       000880400K 10000000010000002624           
CUS0846800000108365234007         LUCILLA HOUSE       2406 RIDGELY ST                         000N        CARE OF             
MTR08468000001000000000000000RA              30521848    005801260000012600000520000000NN  NNW 000                       N    
RDG08468000WATRL000000004K00000000000001971001601122015121946N000000000000N88       000640400K 10000000010000001968           
CUS0846800000108365235004         CAMPBELL, MICHAEL   2408 RIDGELY ST                         000N        CARE OF             
MTR08468000001000000000000000RA              30522180    005801270000012700000520000000NN  NNW 000                       N    
RDG08468000WATRL000000004K00000000000003092001701122015121954N000000000000N88       000080400K 10000000010000003073           
CUS0846800000108365236002         AYE, CYNTHIA M.     2410 RIDGELY ST                         000N        CARE OF             
MTR08468000001000000000000000RA              30522139    005801280000012800000520000000NN  NNW 000                       N    
RDG08468000WATRL000000004K00000000000002565001801122015122248N000000000000N88       001740400K 10000000010000002540           
CUS0846800000108365237000         HARGROVE, VIRGINIA  2412 RIDGELY ST                         000N        CARE OF             
MTR08468000001000000000000000RA              30522173    005801290000012900000520000000NN  NNW 000                       N    
RDG08468000WATRL000000004K00000000000002821001901122015122259N000000000000N88       000110400K 10000000010000002811           
CUS0846800000108365238008         ROLES, KEITH        2414 RIDGELY ST                         000N        CARE OF             
MTR08468000001000000000000000RA              30522373    005801300000013000000520000000NN  NNW 000                       N    
RDG08468000WATRL000000004K00000000000001891002001122015122338N000000000000N88       000390400K 10000000010000001883           
CUS0846800000108365239006         CHRISTINE JAMES     2416 RIDGELY ST                         000N        CARE OF             
MTR08468000001000000000000000RA              30522376    005801310000013100000520000003NN  NNW 000                       N    
RDG08468000WATRL000000004K00000000000003690002101122015122342N000000000000N88       000040400K 10000000010000003686           
CUS0846800000108365240004         ETHEL ATKINS        2418 RIDGELY ST                         000N        CARE OF             
MTR08468000001000000000000000RA              30522377    005801320000013200000520000000NN  NNW 000                       N    
RDG08468000WATRL000000004K00000000000003151002201122015122451N000000000000N88       000690400K 10000000010000003138           
CUS0846800000108365241002         JENKINS, JAYNE MICHE2420 RIDGELY ST                         000N        CARE OF             
MTR08468000001000000000000000RA              30522374    005801330000013300000520000000NN  NNW 000                       N    
RDG08468000WATRL000000004K00000000000001173002301122015122500N000000000000N88       000090400K 10000000010000001167           
CUS0846800000108365242000         BETTY L DAVIS       2500 RIDGELY ST                         000N        CARE OF             
MTR08468000001000000000000000RA              30522380    005801340000013400000520000000NN  NNW 000                       N    
RDG08468000WATRL000000004K00000000000002978003201122015123617N000400000010N88       002170400K 10000000010000002970           
CUS0846800000108365243008         SANDRA B JACKSON    2502 RIDGELY ST                         000N        CARE OF             
MTR08468000001000000000000000RA              30522401    005801350000013500000520000000NN  NNW 000                       N    
RDG08468000WATRL000000004K00000000000001802003301122015123630N000000000000N88       000130400K 10000000010000001798           
CUS0846800000108365244006         ELIZABETH L PEACE   2504 RIDGELY ST                         000N        CARE OF             
MTR08468000001000000000000000RA              14922185    005801360000013600000310000000NN  NNW 000                       N    
RDG08468000WATRL000000004K00000000000000207008301132015120528N000000000000U88       006460400K 10000000010000000202           
CUS0846800000108365245003         MAXI FINCH DAVIS    2506 RIDGELY ST                         000N        CARE OF             
MTR08468000001000000000000000RA              01095289    005801370000013700000610000000NN  NNW 000                       N    
RDG08468000WATRL000000004K00000000000000476008401152015142231O000300000010U80       000070400K 10000000010000000450           
CUS0846800000108365246001         CHEAMITRU, LAURIE   2508 RIDGELY ST                         000N        CARE OF             
MTR08468000001000000000000000RA              30522398    005801380000013800000520000000NN  NNW 000                       N    
RDG08468000WATRL000000004K00000000000002080008501132015120744N000000000000U88       001290400K 10000000010000002061           
CUS0846800000108365247009         DINKINS, SHELLE M.  2510 RIDGELY ST                         000N        CARE OF             
MTR08468000001000000000000000RA              10007230    005801390000013900000570000000NN  NNW 000                       N    
RDG08468000WATRL000000004K00000000000000367003401122015123742N000000000000N88       000720400K 10000000010000000350           
CUS0846800000108365248007         JOHNSON SR., ERIC V 2512 RIDGELY ST                         000N        CARE OF             
MTR08468000001000000000000000RA              10002398    005801400000014000000570000000NN  NNW 000                       N    
RDG08468000WATRL000000004K00000000000000610008601132015121227N000000000000U88       002830400K 10000000010000000589           
CUS0846800000108365249005         DIGGS, PURNELL      2514 RIDGELY ST                         000N        CARE OF             
MTR08468000001000000000000000RA              75614463    005801410000014100000350000000NN  NNW 000                       N    
RDG08468000WATRL000000004K00000000000000051008701132015121232N000000000000U88       000050400K 10000000010000000047           
CUS0846800000108365250003         LAMBERT, VICTORIA L 2516 RIDGELY ST                         000N        CARE OF             
MTR08468000001000000000000000RA              30522379    005801420000014200000520000000NN  NNW 000                       N    
RDG08468000WATRL000000004K00000000000003042008801132015121540N000000000000U88       001880400K 10000000010000003020           
CUS0846800000108365251001         DIGGS, MONICA N.    2518 RIDGELY ST                         000N        CARE OF             
MTR08468000001000000000000000RA              30522396    005801430000014300000520000000NN  NNW 000                       N    
RDG08468000WATRL000000004K00000000000002996008901132015121545N000000000000U88       000050400K 10000000010000002980           
CUS0846800000108365252009         SMITH, IRENE E      2520 RIDGELY ST                         000N        CARE OF             
MTR08468000001000000000000000RA              76349123    005801440000014400000350000003NN  NNW 000                       N    
RDG08468000WATRL000000004K00000000000000092003501122015124016N000000000000N88       001540400K 10000000010000000063           
CUS0846800000108365253007         BETHEA, LINDA G     2522 RIDGELY ST                         000N        CARE OF             
MTR08468000001000000000000000RA              30522383    005801450000014500000520000000NN  NNW 000                       N    
RDG08468000WATRL000000004K00000000000001576009001132015121823N000000000011U88       001000400K 10000000010000001571           
CUS0846800000108365254005         PATEL, JYOTI M      2524 RIDGELY ST                         000N        CARE OF             
MTR08468000001000000000000000RA              30522169    005801460000014600000520000000NN  NNW 000                       N    
RDG08468000WATRL000000004K00000000000003504009101132015122015N000000000000U88       001120400K 10000000010000003502           
CUS0846800000108365255002         ELLYNA M HYMAN      2526 RIDGELY ST                         000N        CARE OF             
MTR08468000001000000000000000RA              99290898    005801470000014700000570000000NN  NNW 000                       N    
RDG08468000WATRL000000004K00000000000001070009201132015122024N000000000000U88       000090400K 10000000010000001043           
CUS0846800000108365256000         WATSON, TANGELA K.  2528 RIDGELY ST                         000N        CARE OF             
MTR08468000001000000000000000RA              10021714    005801480000014800000570000000NN  NNW 000                       N    
RDG08468000WATRL000000004K00000000000000261003601122015124148N000000000000N88       000920400K 10000000010000000244           
CUS0846800000108365257008         EVELYN E NELSON     2530 RIDGELY ST                         000N        CARE OF             
MTR08468000001000000000000000RA              01076394    005801490000014900000610000000NN  NNW 000                       N    
RDG08468000WATRL000000004K00000000000000193003701122015124200N000100000010N88       000120400K 10000000010000000193           
CUS0846800000108365258006         BENNETT, BRUCE D    2532 RIDGELY ST                         000N        CARE OF             
MTR08468000001000000000000000RA              30522184    005801500000015000000520000000NN  NNW 000                       N    
RDG08468000WATRL000000004K00000000000001889003801122015124238N000000000000N88       000380400K 10000000010000001886           
CUS0846800000108251564004         BETHANY BAPTIST CHUR2616 RIDGELY ST                         000N        CARE OF             
MTR08468000001000000000000000RA              27831822    005801510000015100000520000003NN  NNW 000                       N    
RDG08468000WATRL000000004K00000000000003405007001132015112120N000000000000U88       000490400K 10000000010000003402           
CUS0846800000108251565001         H.A.B.C.            2620 RIDGELY ST                         000N        CARE OF             
MTR08468000001000000000000000RA              27833911    005801520000015200000520000003NN  NNW 000                       N    
RDG08468000WATRL000000004K00000000000005703006901132015112031N000000000000U88       000190400K 10000000010000005690           
CUS0846800000108251566009         H.A.B.C.            2622 RIDGELY ST                         000N        CARE OF             
MTR08468000001000000000000000RA              29680486    005801530000015300000520000003NN  NNW 000                       N    
RDG08468000WATRL000000004K00000000000004477006801132015112012N000000000000U88       008100400K 10000000010000004446           
CUS0846800000108251567007         HABC                2624 RIDGELY ST                         000N        CARE OF             
MTR08468000001000000000000000RA              75616335    005801540000015400000350000003NY  NNW 000                       N    
MTM0846800075616335    TOO MUCH TRASH IN VAULT                                                                                
RDG08468000WATRL000000004K00000000000000000000000000000000000 000000000000U         000000400  10000000010000000083           
CUS0846800000108251568005         H.A.B.C.            2626 RIDGELY ST                         000N        CARE OF             
MTR08468000001000000000000000RA              38887061    005801550000015500000520000003NY  NNW 000                       N    
MTM0846800038887061    FROZEN IN DIRT                                                                                         
RDG08468000WATRL000000004K00000000000000000000000000000000000 000000000000U         000000400  10000000010000003081           
CUS0846800000108251569003         H.A.B.C.            2628 RIDGELY ST                         000N        CARE OF             
MTR08468000001000000000000000RA              38887409    005801560000015600000520000003NY  NNW 000                       N    
MTM0846800038887409    FROZEN IN DIRT                                                                                         
RDG08468000WATRL000000004K00000000000000000000000000000000000 000000000000U         000000400  10000000010000004053           
CUS0846800000108251570001         H.A.B.C.            2630 RIDGELY ST                         000N        CARE OF             
MTR08468000001000000000000000RA              27131797    005801570000015700000520000003NN  NNW 000                       N    
RDG08468000WATRL000000004K00000000000003562006701132015110642N000000000000U88       000060400K 10000000010000003554           
CUS0846800000108251571009         H.A.B.C.            2632 RIDGELY ST                         000N        CARE OF             
MTR08468000001000000000000000RA              36690053    005801580000015800000520000003NN  NNW 000                       N    
RDG08468000WATRL000000004K00000000000003704006601132015110636N000000000000U88       001550400K 10000000010000003682           
CUS0846800000108251572007         H.A.B.C.            2634 RIDGELY ST                         000N        CARE OF             
MTR08468000001000000000000000RA              01100995    005801590000015900000610000003NY  NNW 000                       N    
MTM0846800001100995    METER TOO FAR DOWN                                                                                     
RDG08468000WATRL000000004K00000000000000000000000000000000000 000000000000U         000000400  10000000010000002381           
CUS0846800000108251573005         MULLINS, RENEE D    2638 RIDGELY ST                         000N        CARE OF             
MTR08468000001000000000000000RA              99392426    005801600000016000000570000003NN  NNW 000                       N    
RDG08468000WATRL000000004K00000000000000600006501132015110401N000000000000U88       000970400K 10000000010000000596           
CUS0846800000108251574003         COOK, MARQUISE      2640 RIDGELY ST                         000N        CARE OF             
MTR08468000001000000000000000RA              41080692    005801610000016100000520000003NN  NNW 000                       N    
RDG08468000WATRL000000004K00000000000000990006001132015105231N000000000000U88       004000400K 10000000010000000981           
CUS0846800000108251575000         MULLINS, RENEE DIONN2642 RIDGELY ST                         000N        CARE OF             
MTR08468000001000000000000000RA              36696627    005801620000016200000520000003NN  NNW 000                       N    
RDG08468000WATRL000000004K00000000000001191006101132015105638N000000000000U88       002470400K 10000000010000001179           
CUS0846800000108372567001         ROBINSON SR., JEROME2601 S PACA ST                          000N        CARE OF             
MTR08468000001000000000000000RA              99286882    005801630000016300000570000003NN  NNW 000                       N    
RDG08468000WATRL000000004K00000000000001175002301132015090050N000400000010U88       000130400K 10000000010000001168           
CUS0846800000108372568009         MONA A THROCKMORTON 2603 S PACA ST                          000N        CARE OF             
MTR08468000001000000000000000RA              48583414    005801640000016400000520000003NN  NNW 000                       N    
RDG08468000WATRL000000004K00000000000001731002201132015090037N000400000010U88       000560400K 10000000010000001716           
CUS0846800000108372771009         GREEN, LYLLIS M.    2605 S PACA ST                          000N        CARE OF             
MTR08468000001000000000000000RA              31582474    005801650000016500000520000000NN  NNW 000                       N    
RDG08468000WATRL000000004K00000000000002606002101132015085941N000000000000U88       000440400K 10000000010000002574           
CUS0846800000108372772007         VANESSA M HOWARD    2607 S PACA ST                          000N        CARE OF             
MTR08468000001000000000000000RA              31582478    005801660000016600000520000000NN  NNW 000                       N    
RDG08468000WATRL000000004K00000000000002745002001132015085857N000300000010U88       000560400K 10000000010000002753           
CUS0846800000108372569007         DUPPINS, DEBORAH LU 2609 S PACA ST                          000N        CARE OF             
MTR08468000001000000000000000RA              31581631    005801670000016700000520000003NN  NNW 000                       N    
RDG08468000WATRL000000004K00000000000002013001901132015085801N000000000000U88       008030400K 10000000010000002000           
CUS0846800000108372570005         THOMAS, PAMELA V    2611 S PACA ST                          000N        CARE OF             
MTR08468000001000000000000000RA              31581629    005801680000016800000520000003NY  NNW 000                       N    
MTM0846800031581629    TOO CLOUDY                                                                                             
RDG08468000WATRL000000004K00000000000000000000000000000000000 000000000000U         000000400  10000000010000003689           
CUS0846800000108372773005         RINGGOLD, SHAWNTEZ  2613 S PACA ST                          000N        CARE OF             
MTR08468000001000000000000000RA              41081218    005801690000016900000520000000NY  NNW 000                       N    
MTM0846800041081218    ICE INSIDE METER                                                                                       
RDG08468000WATRL000000004K00000000000000000000000000000000000 000000000000U         000000400  10000000010000002855           
CUS0846800000108372774003         BRADFORD, ROBERT A. 2615 S PACA ST                          000N        CARE OF             
MTR08468000001000000000000000RA              31582475    005801700000017000000520000000NY  NNW 000                       N    
MTM0846800031582475    ICE INSIDE METER                                                                                       
RDG08468000WATRL000000004K00000000000000000000000000000000000 000000000000U         000000400  10000000010000003000           
CUS0846800000108372571003         GEORGE J CARROLL JR 2617 S PACA ST                          000N        CARE OF             
MTR08468000001000000000000000RA              31581628    007501710000017100000520000003NN  NNW 000                       N    
RDG08468000WATRL000000004K00000000000003759001801132015084438N000000000012U88       000090400K 10000000010000003734           
CUS0846800000108372572001         CORETHEA V SPEARS   2619 S PACA ST                          000N        CARE OF             
MTR08468000001000000000000000RA              31581627    005801720000017200000520000003NN  NNW 000                       N    
RDG08468000WATRL000000004K00000000000003831001701132015084352N000000000010U88       000770400K 10000000010000003821           
CUS0846800000108372775000         WILLIAMS JR., HAYWOO2621 S PACA ST                          000N        CARE OF             
MTR08468000001000000000000000RA              76347204    005801730000017300000350000003NN  NNW 000                       N    
RDG08468000WATRL000000004K00000000000000044001601132015084235N000000000000U88       000110400K 10000000010000000028           
CUS0846800000108372776008         DAVID JOHNSON       2623 S PACA ST                          000N        CARE OF             
MTR08468000001000000000000000RA              31582482    005801740000017400000520000000NN  NNW 000                       N    
RDG08468000WATRL000000004K00000000000002105001501132015084224N000000000000U88       000810400K 10000000010000002095           
CUS0846800000108372777006         MOSLEY, SHAWN       2625 S PACA ST                          000N        CARE OF             
MTR08468000001000000000000000RA              10005413    005801750000017500000570000000NN  NNW 000                       N    
RDG08468000WATRL000000004K00000000000000422001401132015084103N000000000000U88       000090400K 10000000010000000407           
CUS0846800000108372778004         ANN V ROBINSON      2627 S PACA ST                          000N        CARE OF             
MTR08468000001000000000000000RA              99290896    005801760000017600000570000000NN  NNW 000                       N    
RDG08468000WATRL000000004K00000000000000704001301132015084054N000000000000U88       001700400K 10000000010000000697           
CUS0846800000108369775005         NAPPER, SANDRA E    2629 S PACA ST                          000N        CARE OF             
MTR08468000001000000000000000RA              41088733    005801770000017700000520000003NY  NNW 000                       N    
MTM0846800041088733    ICE INSIDE METER                                                                                       
RDG08468000WATRL000000004K00000000000000000000000000000000000 000000000000U         000000400  10000000010000001687           
CUS0846800000108369776003         OCTAVIA E BUTLER    2631 S PACA ST                          000N        CARE OF             
MTR08468000001000000000000000RA              31583769    005801780000017800000520000003NY  NNW 000                       N    
MTM0846800031583769    ICE INSIDE METER                                                                                       
RDG08468000WATRL000000004K00000000000000000000000000000000000 000000000000U         000000400  10000000010000001772           
CUS0846800000108369796001         WILLIAMS, ANGELA    2633 S PACA ST                          000N        CARE OF             
MTR08468000001000000000000000RA              01109583    005801790000017900000610000003NN  NNW 000                       N    
RDG08468000WATRL000000004K00000000000000955001201132015083804N000000000000U88       000020400K 10000000010000000925           
CUS0846800000108369777001         WINGFIELD, JEANETTE 2635 S PACA ST                          000N        CARE OF             
MTR08468000001000000000000000RA              01109584    005801800000018000000610000003NN  NNW 000                       N    
RDG08468000WATRL000000004K00000000000000653001101132015083802N000000000000U88       000780400K 10000000010000000640           
CUS0846800000108369778009         HAROLD CARTER SR.   2637 S PACA ST                          000N        CARE OF             
MTR08468000001000000000000000RA              44175060    005801810000018100000520000003NN  NNW 000                       N    
RDG08468000WATRL000000004K00000000000003142001001132015083644N000000000000U88       000030400K 10000000010000003137           
CUS0846800000108369779007         STANLEY, STEVEN CARL2639 S PACA ST                          000N        CARE OF             
MTR08468000001000000000000000RA              44089375    005801820000018200000520000003NN  NNW 000                       N    
RDG08468000WATRL000000004K00000000000000728000901132015083641N000000000000U88       002550400K 10000000010000000660           
CUS0846800000108369780005         FIELDS, HOWARD W    2641 S PACA ST                          000N        CARE OF             
MTR08468000001000000000000000RA              00134001    005801830000018300000570000003NN  NNW 000                       N    
RDG08468000WATRL000000004K00000000000000604000801132015083226N000000000000U88       000040400K 10000000010000000597           
CUS0846800000108369781003         CURTIS, JEFFREY L   2643 S PACA ST                          000N        CARE OF             
MTR08468000001000000000000000RA              52770141    005801840000018400000520000003NN  NNW 000                       N    
RDG08468000WATRL000000004K00000000000001148000701132015083222N000100000010U88       001740400K 10000000010000001148           
CUS0846800000108369782001         HARRY, AARON O.     2645 S PACA ST                          000N        CARE OF             
MTR08468000001000000000000000RA              31581194    005801850000018500000520000003NN  NNW 000                       N    
RDG08468000WATRL000000004K00000000000003071000601132015082928N000300000010U88       000560400K 10000000010000003031           
CUS0846800000108369783009         MR & MRS LITTLE     2647 S PACA ST                          000N        CARE OF             
MTR08468000001000000000000000RA              31581233    005801860000018600000520000003NN  NNW 000                       N    
RDG08468000WATRL000000004K00000000000003236000501132015082832N000000000000U88       001650400K 10000000010000003227           
CUS0846800000108369784007         GASTON, CANDYCE R   2649 S PACA ST                          000N        CARE OF             
MTR08468000001000000000000000RA              52289032    005801870000018700000520000003NN  NNW 000                       N    
RDG08468000WATRL000000004K00000000000000801000401132015082547N000000000000U88       000200400K 10000000010000000793           
CUS0846800000108369785004         CURTIS, GLORIA D    2651 S PACA ST                          000N        CARE OF             
MTR08468000001000000000000000RA              50787589    005801880000018800000520000003NN  NNW 000                       N    
RDG08468000WATRL000000004K00000000000000982000301132015082527N000000000000U88       000830400K 10000000010000000974           
CUS0846800000108369786002         SCOTT, MICHAEL      2653 S PACA ST                          000N        CARE OF             
MTR08468000001000000000000000RA              44176799    005801890000018900000520000003NN  NNW 000                       N    
RDG08468000WATRL000000004K00000000000002725000201132015082404N000000000000U88       000130400K 10000000010000002696           
CUS0846800000108369787000         BROUGHTON, ABRAHAM  2655 S PACA ST                          000N        CARE OF             
MTR08468000001000000000000000RA              31581210    005801900000019000000520000003NN  NNW 000                       N    
RDG08468000WATRL000000004K00000000000003671000101132015082351N000000000000U88       000000400K 10000000010000003650           
CUS0846800000108251587005         HARRIS JR, EARLY    2649 RIDGELY ST                         000N        CARE OF             
MTR08468000001000000000000000RA              39291820    005801910000019100000520000003NN  NNW 000                       N    
RDG08468000WATRL000000004K00000000000001979006201132015105905N000000000000U88       001470400K 10000000010000001965           
CUS0846800000108251588003         H.A.B.C.            2645 RIDGELY ST                         000N        CARE OF             
MTR08468000001000000000000000RA              41590490    005801920000019200000520000003NN  NNW 000                       N    
RDG08468000WATRL000000004K00000000000008181006301132015105944N000000000000U88       000390400K 10000000010000008181           
CUS0846800000108251589001         H.A.B.C.            2643 RIDGELY ST                         000N        CARE OF             
MTR08468000001000000000000000RA              38983741    005801930000019300000520000003NN  NNW 000                       N    
RDG08468000WATRL000000004K00000000000002428006401132015110224N000000000000U88       001600400K 10000000010000002397           
CUS0846800000108251590009         H.A.B.C.            2641 RIDGELY ST                         000N        CARE OF             
MTR08468000001000000000000000RA              44002461    005801940000019400000520000003NN  NNW 000                       N    
RDG08468000WATRL000000004K00000000000002014008201132015115442N000000000000U88       003270400K 10000000010000001987           
CUS0846800000108251591007         HABC CON-16-58      2629 RIDGELY ST                         000N        CARE OF             
MTR08468000001000000000000000RA              99392362    005801950000019500000570000003NN  NNW 000                       N    
RDG08468000WATRL000000004K00000000000002489008101132015114915N000000000000U88       003110400K 10000000010000002465           
CUS0846800000108251592005         H.A.B.C.            2627 RIDGELY ST                         000N        CARE OF             
MTR08468000001000000000000000RA              99288737    005801960000019600000570000003NY  NNW 000                       N    
MTM0846800099288737    METER TOO LOW                                                                                          
RDG08468000WATRL000000004K00000000000000000000000000000000000 000000000000U         000000400  10000000010000002852           
CUS0846800000108251593003         H.A.B.C.            2625 RIDGELY ST                         000N        CARE OF             
MTR08468000001000000000000000RA              99999999    005801970000019700000570000003NY  NNW 000                       N    
MTM0846800099999999    METER TOO LOW                                                                                          
RDG08468000WATRL000000004K00000000000000000000000000000000000 000000000000U         000000400  10000000010000002945           
CUS0846800000108251594001         H.A.B.C.            2621 RIDGELY ST                         000N        CARE OF             
MTR08468000001000000000000000RA              44176797    005801980000019800000520000003NN  NNW 000                       N    
RDG08468000WATRL000000004K00000000000000993007801132015113712N000000000000U88       001890400K 10000000010000000947           
CUS0846800000108251595008         H.A.B.C.            2619 RIDGELY ST                         000N        CARE OF             
MTR08468000001000000000000000RA              14928858    005801990000019900000310000003NN  NNW 000                       N    
RDG08468000WATRL000000004K00000000000001531008001132015114404N000000000000U88       003840400K 10000000010000001488           
CUS0846800000108251596006         ROBBINS JR., MARVIN 2617 RIDGELY ST                         000N        CARE OF             
MTR08468000001000000000000000RA              50787207    005802000000020000000520000003NN  NNW 000                       N    
RDG08468000WATRL000000004K00000000000001504007701132015113403N000300000010U88       002000400K 10000000010000001484           
CUS0846800000108251599000         AUDAIN, LINZ        2607 RIDGELY ST                         000N        CARE OF             
MTR08468000001000000000000000RA              40048718    005802010000020100000520000003NN  NNW 000                       N    
RDG08468000WATRL000000004K00000000000003662007601152015142311O000000000010U80       000440400K 10000000010000003642           
CUS0846800000108251600006         RAYNOR-FRAZIER, SHEI2605 RIDGELY ST                         000N        CARE OF             
MTR08468000001000000000000000RA              10016172    005802020000020200000570000003NN  NNW 000                       N    
RDG08468000WATRL000000004K00000000000000157007501132015112959N000000000000U88       000650400K 10000000010000000141           
CUS0846800000108251601004         N&J HOMES, LLC      2603 RIDGELY ST                         000N        CARE OF             
MTR08468000001000000000000000RA              24771878    005802030000020300000520000003NN  NNW 000                       N    
RDG08468000WATRL000000004K00000000000003083007401132015112854N000100000010U88       000080400K 10000000010000003083           
CUS0846800000108251602002         RONALD CASON ETAL   2601 RIDGELY ST                         000N        CARE OF             
MTR08468000001000000000000000RA              24765641    005802040000020400000520000003NN  NNW 000                       N    
RDG08468000WATRL000000004K00000000000004378007301132015112846N000000000000U88       000940400K 10000000010000004368           
CUS0846800000108251604008         KENNETH M HEMSLEY & 2608 RIDGELY ST                         000N        CARE OF             
MTR08468000001000000000000000RA              99392360    005802050000020500000570000003NN  NNW 000                       N    
RDG08468000WATRL000000004K00000000000001165007101132015112708N000000000000U88       003480400K 10000000010000001151           
CUS0846800000108251605005         FLOYD B DEAN        2610 RIDGELY ST                         000N        CARE OF             
MTR08468000001000000000000000RA              99392355    005802060000020600000570000003NN  NNW 000                       N    
RDG08468000WATRL000000004K00000000000001026007201132015112712N000000000000U88       000040400K 10000000010000001012           
RTR08468000NN02060206000002060000000002060206000345NY020602060206001700010000000000000000000002    12242014NY020000 N         
RHD02146000NN01120154000001120000004201540154000031NY015401540154000200020000000000000000000001    01052015NY020000 N         
CUS0214600000102313995009         HARRIS EDNA         2928 EDGECOMBE CIR S                    000N        CARE OF             
MTR02146000001000000000000000RA              77878036    005800010000000100000360000003NN  NNW 000                       N    
RDG02146000WATR 000000004R00000000000000022000001152015180000N000300000030N         000000400R 10000000010000000000           
RFF0214600068391312      ERT      0000  956.44375000140000011520151800000000229503100W 1220000N                               
CUS0214600000102313996007         MYRA S CLINTON ETAL 2926 EDGECOMBE CIR S                    000N        CARE OF             
MTR02146000001000000000000000RA              77878038    005800020000000200000360000003NN  NNW 000                       N    
RDG02146000WATR 000000004R00000000000000013000001152015180000N000300000030N         000000400R 10000000010000000000           
RFF0214600068391304      ERT      0000  956.44375000140000011520151800000000139125100W 1220000N                               
CUS0214600000102313997005         HOLMES, DWAYNE      2924 EDGECOMBE CIR S                    000N        CARE OF             
MTR02146000001000000000000000RA              77878037    005800030000000300000360000003NN  NNW 000   VACANT PROPERTY     N    
RDG02146000WATR 000000004R00000000000000000000001152015180000N000100000030N         000000400R 10000000010000000000           
RFF0214600068391264      ERT      0000  956.44375000140000011520151800000000000020100W 1220000N                               
CUS0214600000102313998003         SUTTON, ELOISE      2922 EDGECOMBE CIR S                    000N        CARE OF             
MTR02146000001000000000000000RA              77878144    005800040000000400000360000003NN  NNW 000                       N    
RDG02146000WATR 000000004R00000000000000004000001152015180000N000300000030N         000000400R 10000000010000000000           
RFF0214600068391189      ERT      0000  956.44375000140000011520151800000000048496100W 1220000N                               
CUS0214600000102313999001         GAINES, MYRTLE      2920 EDGECOMBE CIR S                    000N        CARE OF             
MTR02146000001000000000000000RA              77878145    005800050000000500000360000003NN  NNW 000                       N    
RDG02146000WATR 000000004R00000000000000021000001152015180000N000300000030N         000000400R 10000000010000000000           
RFF0214600068391295      ERT      0000  956.44375000140000011520151800000000217934100W 1220000N                               
CUS0214600000102314000007         POLLACK & POLLACK LL2918 EDGECOMBE CIR S                    000N        CARE OF             
MTR02146000001000000000000000RA              77878178    005800060000000600000360000003NN  NNW 000                       N    
RDG02146000WATR 000000004R00000000000000025000001152015180000N000300000030N         000000400R 10000000010000000000           
RFF0214600068385059      ERT      0000  956.44375000140000011520151800000000254475100W 1220000N                               
CUS0214600000102314001005         MICHAEL PROPERTIES, 2916 EDGECOMBE CIR S                    000N        CARE OF             
MTR02146000001000000000000000RA              77877181    005800070000000700000360000003NN  NNW 000                       N    
RDG02146000WATR 000000004R00000000000000021000001152015180000N000300000030N         000000400R 10000000010000000000           
RFF0214600068385051      ERT      0000  956.44375000140000011520151800000000217184100W 1220000N                               
CUS0214600000102314002003         TRIPP, MARY C       2914 EDGECOMBE CIR S                    000N        CARE OF             
MTR02146000001000000000000000RA              77884861    005800080000000800000360000003NN  NNW 000                       N    
RDG02146000WATR 000000004R00000000000000028000001152015180000N000300000030N         000000400R 10000000010000000000           
RFF0214600068385020      ERT      0000  956.44375000140000011520151800000000288778100W 1220000N                               
CUS0214600000102314003001         NAT COKER           2912 EDGECOMBE CIR S                    000N        CARE OF             
MTR02146000001000000000000000RA              77882865    005800090000000900000360000003NN  NNW 000                       N    
RDG02146000WATR 000000004R00000000000000002000001152015180000N000300000030N         000000400R 10000000010000000000           
RFF0214600068310189      ERT      0000  956.44375000140000011520151800000000021918100W 1220000N                               
CUS0214600000102314004009         PITTS, DEBRA L      2910 EDGECOMBE CIR S                    000N        CARE OF             
MTR02146000001000000000000000RA              77882866    005800100000001000000360000003NN  NNW 000                       N    
RDG02146000WATR 000000004R00000000000000024000001152015180000N000300000030N         000000400R 10000000010000000000           
RFF0214600068310265      ERT      0000  956.44375000140000011520151800000000246135100W 1220000N                               
CUS0214600000102314005006         TAWIAH, SAMUEL      2908 EDGECOMBE CIR S                    000N        CARE OF             
MTR02146000001000000000000000RA              77878146    005800110000001100000360000003NN  NNW 000                       N    
RDG02146000WATR 000000004R00000000000000013000001152015180000N000300000030N         000000400R 10000000010000000000           
RFF0214600068391301      ERT      0000  956.44375000140000011520151800000000136273100W 1220000N                               
CUS0214600000102314006004         MCCROEY, MARY B.    2906 EDGECOMBE CIR S                    000N        CARE OF             
MTR02146000001000000000000000RA              77878141    005800120000001200000360000003NN  NNW 000                       N    
RDG02146000WATR 000000004R00000000000000000000001152015180000N000100000030N         000000400R 10000000010000000000           
RFF0214600068391180      ERT      0000  956.44375000140000011520151800000000000020100W 1220000N                               
CUS0214600000102314007002         CAUDLE, WILLIAM T.  2904 EDGECOMBE CIR S                    000N        CARE OF             
MTR02146000001000000000000000RA              77878142    005800130000001300000360000003NN  NNW 000                       N    
RDG02146000WATR 000000004R00000000000000031000001152015180000N000300000030N         000000400R 10000000010000000000           
RFF0214600068391294      ERT      0000  956.44375000140000011520151800000000310837100W 1220000N                               
CUS0214600000102314008000         SMITH, KATHERINE N. 2902 EDGECOMBE CIR S                    000N        CARE OF             
MTR02146000001000000000000000RA              77884866    005800140000001400000360000003NN  NNW 000                       N    
RDG02146000WATR 000000004R00000000000000005000001152015180000N000300000030N         000000400R 10000000010000000000           
RFF0214600068385039      ERT      0000  956.44375000140000011520151800000000059968100W 1220000N                               
CUS0214600000102314009008         SHELIA A ROSS       2900 EDGECOMBE CIR S                    000N        CARE OF             
MTR02146000001000000000000000RA              77884865    005800150000001500000360000003NN  NNW 000                       N    
RDG02146000WATR 000000004R00000000000000000000001152015180000N000100000030N         000000400R 10000000010000000000           
RFF0214600068385033      ERT      0000  956.44375000140000011520151800000000000034100W 1220000N                               
CUS0214600000102314010006         JOYCE E TRAYNHAM    2860 EDGECOMBE CIR S                    000N        CARE OF             
MTR02146000001000000000000000RA              77878193    005800160000001600000360000003NN  NNW 000                       N    
RDG02146000WATR 000000004R00000000000000006000001152015180000N000300000030N         000000400R 10000000010000000000           
RFF0214600068385053      ERT      0000  956.44375000140000011520151800000000067143100W 1220000N                               
CUS0214600000102314011004         SHELVIE HOLMES      2858 EDGECOMBE CIR S                    000N        CARE OF             
MTR02146000001000000000000000RA              77878194    005800170000001700000360000003NN  NNW 000                       N    
RDG02146000WATR 000000004R00000000000000009000001152015180000N000300000030N         000000400R 10000000010000000000           
RFF0214600068385049      ERT      0000  956.44375000140000011520151800000000093582100W 1220000N                               
CUS0214600000102314012002         MARGARET SELBY      2856 EDGECOMBE CIR S                    000N        CARE OF             
MTR02146000001000000000000000RA              77878191    005800180000001800000360000003NN  NNW 000                       N    
RDG02146000WATR 000000004R00000000000000006000001152015180000N000300000030N         000000400R 10000000010000000000           
RFF0214600068385041      ERT      0000  956.44375000140000011520151800000000068118100W 1220000N                               
CUS0214600000102314013000         MOLLAR, ANTOINETTE  2854 EDGECOMBE CIR S                    000N        CARE OF             
MTR02146000001000000000000000RA              77878192    005800190000001900000360000003NN  NNW 000                       N    
RDG02146000WATR 000000004R00000000000000004000001152015180000N000300000030N         000000400R 10000000010000000000           
RFF0214600068385032      ERT      0000  956.44375000140000011520151800000000049266100W 1220000N                               
CUS0214600000102314014008         WELLS FARGO BANK N.A2852 EDGECOMBE CIR S                    000N        CARE OF             
MTR02146000001000000000000000RA              77878123    005800200000002000000360000003NN  NNW 000                       N    
RDG02146000WATR 000000004R00000000000000000000001152015180000N000100000030N         000000400R 10000000010000000000           
RFF0214600068385378      ERT      0000  956.44375000140000011520151800000000000024100W 1220000N                               
CUS0214600000102314015005         JEFFREY J EVANS     2850 EDGECOMBE CIR S                    000N        CARE OF             
MTR02146000001000000000000000RA              77878124    005800210000002100000360000003NN  NNW 000                       N    
RDG02146000WATR 000000004R00000000000000008000001152015180000N000300000030N         000000400R 10000000010000000000           
RFF0214600068391302      ERT      0000  956.44375000140000011520151800000000086584100W 1220000N                               
CUS0214600000102314016003         BUFFALO PROPERTIES, 2848 EDGECOMBE CIR S                    000N        CARE OF             
MTR02146000001000000000000000RA              77878189    005800220000002200000360000003NN  NNW 000                       N    
RDG02146000WATR 000000004R00000000000000019000001152015180000N000300000030N         000000400R 10000000010000000000           
RFF0214600068385095      ERT      0000  956.44375000140000011520151800000000191501100W 1220000N                               
CUS0214600000102314017001         RICHARD J SHAW      2846 EDGECOMBE CIR S                    000N        CARE OF             
MTR02146000001000000000000000RA              77878190    005800230000002300000360000003NN  NNW 000                       N    
RDG02146000WATR 000000004R00000000000000040000001152015180000N000300000030N         000000400R 10000000010000000000           
RFF0214600068385002      ERT      0000  956.44375000140000011520151800000000406751100W 1220000N                               
CUS0214600000102314018009         DALE M BLUE SR.     2844 EDGECOMBE CIR S                    000N        CARE OF             
MTR02146000001000000000000000RA              77882498    005800240000002400000360000003NN  NNW 000                       N    
RDG02146000WATR 000000004R00000000000000002000001152015180000N000300000030N         000000400R 10000000010000000000           
RFF0214600068385070      ERT      0000  956.44375000140000011520151800000000025938100W 1220000N                               
CUS0214600000102314019007         GEM PROPERTIES, LLC 2842 EDGECOMBE CIR S                    000N        CARE OF             
MTR02146000001000000000000000RA              77882501    005800250000002500000360000003NN  NNW 000                       N    
RDG02146000WATR 000000004R00000000000000016000001152015180000N000300000030N         000000400R 10000000010000000000           
RFF0214600068385042      ERT      0000  956.44375000140000011520151800000000162860100W 1220000N                               
CUS0214600000102314020005         CASH, DORALEAN S    2840 EDGECOMBE CIR S                    000N        CARE OF             
MTR02146000001000000000000000RA              77878126    005800260000002600000360000003NN  NNW 000                       N    
RDG02146000WATR 000000004R00000000000000007000001152015180000N000300000030N         000000400R 10000000010000000000           
RFF0214600068384960      ERT      0000  956.44375000140000011520151800000000071472100W 1220000N                               
CUS0214600000102314021003         LAR HOMES, LLC      2838 EDGECOMBE CIR S                    000N        CARE OF             
MTR02146000001000000000000000RA              27816442    005800270000002700000520000003NN  NNW 000   VACANT PROPERTY     N    
RDG02146000WATRL000000004K00000000000000838000101152015125432N000000000000U20       000000400K 10000000010000000838           
CUS0214600000102314022001         WALKER, KELLY T     2836 EDGECOMBE CIR S                    000N        CARE OF             
MTR02146000001000000000000000RA              77882499    005800280000002800000360000003NN  NNW 000                       N    
RDG02146000WATR 000000004R00000000000000009000001152015180000N000300000030N         000000400R 10000000010000000000           
RFF0214600068385052      ERT      0000  956.44375000140000011520151800000000093045100W 1220000N                               
CUS0214600000102314023009         TAMELA BATTS        2834 EDGECOMBE CIR S                    000N        CARE OF             
MTR02146000001000000000000000RA              77882497    005800290000002900000360000003NN  NNW 000                       N    
RDG02146000WATR 000000004R00000000000000016000001152015180000N000300000030N         000000400R 10000000010000000000           
RFF0214600068385043      ERT      0000  956.44375000140000011520151800000000162853100W 1220000N                               
CUS0214600000102314024007         GEM PROPERTIES, LLC 2832 EDGECOMBE CIR S                    000N        CARE OF             
MTR02146000001000000000000000RA              77878127    005800300000003000000360000003NN  NNW 000                       N    
RDG02146000WATR 000000004R00000000000000015000001152015180000N000300000030N         000000400R 10000000010000000000           
RFF0214600068385079      ERT      0000  956.44375000140000011520151800000000150783100W 1220000N                               
CUS0214600000102314025004         JOHN H LEWIS        2830 EDGECOMBE CIR S                    000N        CARE OF             
MTR02146000001000000000000000RA              77878128    005800310000003100000360000003NN  NNW 000                       N    
RDG02146000WATR 000000004R00000000000000006000001152015180000N000300000030N         000000400R 10000000010000000000           
RFF0214600068384934      ERT      0000  956.44375000140000011520151800000000066022100W 1220000N                               
CUS0214600000102314026002         MONTAGUE, RUSSELL   2828 EDGECOMBE CIR S                    000N        CARE OF             
MTR02146000001000000000000000RA              77882500    005800320000003200000360000003NN  NNW 000                       N    
RDG02146000WATR 000000004R00000000000000014000001152015180000N000300000030N         000000400R 10000000010000000000           
RFF0214600068385071      ERT      0000  956.44375000140000011520151800000000144355100W 1220000N                               
CUS0214600000102314027000         TERRACE HEIGHTS LLC 2826 EDGECOMBE CIR S                    000N        CARE OF             
MTR02146000001000000000000000RA              77882502    005800330000003300000360000003NN  NNW 000                       N    
RDG02146000WATR 000000004R00000000000000016000001152015180000N000300000030N         000000400R 10000000010000000000           
RFF0214600068384937      ERT      0000  956.44375000140000011520151800000000162474100W 1220000N                               
CUS0214600000102314028008         PALMER, IRIS V.     2824 EDGECOMBE CIR S                    000N        CARE OF             
MTR02146000001000000000000000RA              77878125    005800340000003400000360000003NN  NNW 000                       N    
RDG02146000WATR 000000004R00000000000000011000001152015180000N000300000030N         000000400R 10000000010000000000           
RFF0214600068391286      ERT      0000  956.44375000140000011520151800000000114626100W 1220000N                               
CUS0214600000102314029006         WHITE, GLORIA M     2822 EDGECOMBE CIR S                    000N        CARE OF             
MTR02146000001000000000000000RA              77884862    005800350000003500000360000003NN  NNW 000                       N    
RDG02146000WATR 000000004R00000000000000008000001152015180000N000300000030N         000000400R 10000000010000000000           
RFF0214600068385058      ERT      0000  956.44375000140000011520151800000000082613100W 1220000N                               
CUS0214600000102314030004         ANDRE R ROBINSON    2820 EDGECOMBE CIR S                    000N        CARE OF             
MTR02146000001000000000000000RA              77884864    005800360000003600000360000003NN  NNW 000                       N    
RDG02146000WATR 000000004R00000000000000011000001152015180000N000300000030N         000000400R 10000000010000000000           
RFF0214600068385037      ERT      0000  956.44375000140000011520151800000000118371100W 1220000N                               
CUS0214600000102314031002         RILEY HAWKINS       2818 EDGECOMBE CIR S                    000N        CARE OF             
MTR02146000001000000000000000RA              77878177    005800370000003700000360000003NN  NNW 000                       N    
RDG02146000WATR 000000004R00000000000000018000001152015180000N000300000030N         000000400R 10000000010000000000           
RFF0214600068385050      ERT      0000  956.44375000140000011520151800000000185459100W 1220000N                               
CUS0214600000102314032000         ROGERS, TONIA MONIQU2816 EDGECOMBE CIR S                    000N        CARE OF             
