FHDNNNN019004327004327004390N                                                                                           013244
RHD08466000NN01430143000001430000000001430143000195NY014301430143000300030000000000000000000002    12242014NY020000 N         
CUS0846600000108215509004         REYNOLDS JR, HOMER  2802 HOLLINS FERRY RD                   000N        CARE OF             
MTR08466000001000000000000000RA              00134520    005800010000000100000570000003NN  NNW 000                       N    
RDG08466000WATRL000000004K00000000000000947000401152015092046N000000000000N89       000240400K 10000000010000000933           
CUS0846600000108215510002         LANZA, JOSEPH       2804 HOLLINS FERRY RD                   000N        CARE OF             
MTR08466000001000000000000000RA              01115893    005800020000000200000610000003NN  NNW 000                       N    
RDG08466000WATRL000000004K00000000000001034000301152015092022N000000000000N89       001500400K 10000000010000001019           
CUS0846600000108215511000         BOB DAVIS SOLO 401K 2806 HOLLINS FERRY RD                   000N        CARE OF             
MTR08466000001000000000000000RA              45387940    005800030000000300000520000003NN  NNW 000                       N    
RDG08466000WATRL000000004K00000000000000824000201152015091752N000000000000N89       000300400K 10000000010000000817           
CUS0846600000108215512008         JOSEPH LANZA        2810 HOLLINS FERRY RD                   000N        CARE OF             
MTR08466000001000000000000000RA              27212886    005800040000000400000520000003NN  NNW 000                       N    
RDG08466000WATRL000000004K00000000000003228000101152015091722N000000000000N89       000000400K 10000000010000003187           
CUS0846600000108215513006         THOMAS C PALMER III 2519 ARBUTON AVE                        000N        CARE OF             
MTR08466000001000000000000000RA              01084575    005800050000000500000610000003NN  NNW 000                       N    
RDG08466000WATRL000000004K00000000000000547000501152015101956N000000000000N89       035500400K 10000000010000000540           
CUS0846600000108215514004         JACKSON, KENNETH G  2515 ARBUTON AVE                        000N        CARE OF             
MTR08466000001000000000000000RA              48586353    005800060000000600000520000003NN  NNW 000                       N    
RDG08466000WATRL000000004K00000000000000580000601152015102031N000000000000N89       000350400K 10000000010000000572           
CUS0846600000108215515001         MACKEY, ANDRE       2511 ARBUTON AVE                        000N        CARE OF             
MTR08466000001000000000000000RA              29685989    005800070000000700000520000003NN  NNW 000                       N    
RDG08466000WATRL000000004K00000000000003295000701152015102105N000000000000N89       000340400K 10000000010000003281           
CUS0846600000108215516009         JACKSON, ERMIKA S   2507 ARBUTON AVE                        000N        CARE OF             
MTR08466000001000000000000000RA              29683563    005800080000000800000520000003NN  NNW 000                       N    
RDG08466000WATRL000000004K00000000000002259000801152015102152N000000000000N89       000470400K 10000000010000002232           
CUS0846600000108215517007         GANT, DENISE        2505 ARBUTON AVE                        000N        CARE OF             
MTR08466000001000000000000000RA              14919052    005800090000000900000310000003NN  NNW 000                       N    
RDG08466000WATRL000000004K00000000000000406000901152015102215N000000000000N89       000230400K 10000000010000000395           
CUS0846600000108215518005         WILLIAMS, BARBARA   2503 ARBUTON AVE                        000N        CARE OF             
MTR08466000001000000000000000RA              14918633    005800100000001000000310000003NN  NNW 000                       N    
RDG08466000WATRL000000004K00000000000000441001001152015102228N000000000000N89       000130400K 10000000010000000421           
CUS0846600000108215519003         CROWN JOSEPH CORP   2421 ARBUTON AVE                        000N        CARE OF             
MTR08466000001000000000000000RA              29683565    005800110000001100000520000003NN  NNW 000                       N    
RDG08466000WATRL000000004K00000000000009270001101152015102321N000000000000N89       000530400K 10000000010000009244           
CUS0846600000108215520001         GOODMEASURE WISDOM C2415 ARBUTON AVE                        000N        CARE OF             
MTR08466000001000000000000000RA              14912272    005800120000001200000310000003NN  NNW 000                       N    
RDG08466000WATRL000000004K00000000000000283001201152015102424N000000000000N89       000630400K 10000000010000000270           
CUS0846600000108215521009         WHITE, CANDY R      2413 ARBUTON AVE                        000N        CARE OF             
MTR08466000001000000000000000RA              99387574    005800130000001300000570000003NN  NNW 000                       N    
RDG08466000WATRL000000004K00000000000001438001301152015102514N000000000000N89       000500400K 10000000010000001421           
CUS0846600000108215522007         MESA, ROCIO         2411 ARBUTON AVE                        000N        CARE OF             
MTR08466000001000000000000000RA              29683554    005800140000001400000520000003NN  NNW 000                       N    
RDG08466000WATRL000000004K00000000000001320001401152015102515N000000000000N89       000010400K 10000000010000001305           
CUS0846600000108215523005         BAILEY, DAVID E     2409 ARBUTON AVE                        000N        CARE OF             
MTR08466000001000000000000000RA              00134566    005800150000001500000570000003NN  NNW 000                       N    
RDG08466000WATRL000000004K00000000000003258001501152015102539N000000000000N89       000240400K 10000000010000003216           
CUS0846600000108215524003         MEDRANO, NARCISA A. 2407 ARBUTON AVE                        000N        CARE OF             
MTR08466000001000000000000000RA              00134565    005800160000001600000570000003NN  NNW 000                       N    
RDG08466000WATRL000000004K00000000000002147001601152015102542N000000000000N89       000030400K 10000000010000002125           
CUS0846600000108215525000         STEVENS, PERCY      2405 ARBUTON AVE                        000N        CARE OF             
MTR08466000001000000000000000RA              48595214    005800170000001700000520000003NN  NNW 000                       N    
RDG08466000WATRL000000004K00000000000002469001701152015102628N000000000000N89       000460400K 10000000010000002433           
CUS0846600000108215526008         WHITE, MARY B       2403 ARBUTON AVE                        000N        CARE OF             
MTR08466000001000000000000000RA              00137531    005800180000001800000570000003NN  NNW 000                       N    
RDG08466000WATRL000000004K00000000000001807001801152015102631N000000000000N89       000030400K 10000000010000001779           
CUS0846600000108215527006         GOOCHE, CHRISTOPHER 2401 ARBUTON AVE                        000N        CARE OF             
MTR08466000001000000000000000RA              20968867    005800190000001900000520000003NN  NNW 000                       N    
RDG08466000WATRL000000004K00000000000005772001901152015102726N000000000000N89       000550400K 10000000010000005760           
CUS0846600000108215528004         ESTES EXPRESS LINES 2900-3000 NIEMAN AVE                    000N        CARE OF             
MTR08466000001000000000000000RA              99080724    007500200000002000000570000003NN  NNW 000                       N    
RDG08466000WATRL000000004K00000000000001172002001152015102856N000000000000N89       000900400K 10000000010000001037           
CUS0846600000108215530000         HURD, JACOB B       2322 ARBUTON AVE                        000N        CARE OF             
MTR08466000001000000000000000RA              32771208    005800210000002100000520000003NN  NNW 000                       N    
RDG08466000WATRL000000004K00000000000003228002201152015103037N000000000000N89       000530400K 10000000010000003216           
CUS0846600000108215529002         MASWADEH, WALEED    2318 ARBUTON AVE                        000N        CARE OF             
MTR08466000001000000000000000RA              14919525    005800220000002200000310000003NN  NNW 000                       N    
RDG08466000WATRL000000004K00000000000000694002101152015102944N000000000000N89       000480400K 10000000010000000637           
CUS0846600000108215531008         COREAS-MARTINEZ, JAI2402 ARBUTON AVE                        000N        CARE OF             
MTR08466000001000000000000000RA              22607845    005800230000002300000520000003NN  NNW 000                       N    
RDG08466000WATRL000000004K00000000000002973002301152015103138N000000000000N89       000610400K 10000000010000002957           
CUS0846600000108215532006         FAITH TABERNACLE, IN2408 ARBUTON AVE                        000N        CARE OF             
MTR08466000001000000000000000RA              44002639    005800240000002400000520000003NN  NNW 000                       N    
RDG08466000WATRL000000004K00000000000001326002401152015103223N000000000000N89       000450400K 10000000010000001322           
CUS0846600000108433973008         HARDY, ROBERT G.    2410 ARBUTON AVE                        000N        CARE OF             
MTR08466000001000000000000000RA              99293832    005800250000002500000570000000NN  NNW 000                       N    
RDG08466000WATRL000000004K00000000000000685002501152015103301N000300000010N89       000380400K 10000000010000000674           
CUS0846600000108349194004         JOHNSON JR., WILLIAM2414 ARBUTON AVE                        000N        CARE OF             
MTR08466000001000000000000000RA              41259524    005800260000002600000520000003NN  NNW 000                       N    
RDG08466000WATRL000000004K00000000000002027002601152015103403N000000000000N89       000620400K 10000000010000002015           
CUS0846600000108215533004         ROBERT GEORGE HARDY 2418 ARBUTON AVE                        000N        CARE OF             
MTR08466000001000000000000000RA              14925717    005800270000002700000310000003NN  NNW 000                       N    
RDG08466000WATRL000000004K00000000000000288002701152015103510N000000000000N89       000670400K 10000000010000000279           
CUS0846600000108215534002         ANNIE LUTZ          2500 ARBUTON AVE                        000N        CARE OF             
MTR08466000001000000000000000RA              14920142    005800280000002800000310000003NN  NNW 000                       N    
RDG08466000WATRL000000004K00000000000000605002801152015103610N000000000000N89       000600400K 10000000010000000583           
CUS0846600000108215535009         COURTNEY, CORRINE RA2502 ARBUTON AVE                        000N        CARE OF             
MTR08466000001000000000000000RA              10009649    005800290000002900000570000003NN  NNW 000                       N    
RDG08466000WATRL000000004K00000000000000232002901152015103715N000400000010N89       000650400K 10000000010000000224           
CUS0846600000108215536007         FREEMAN, ASHLEY     2504 ARBUTON AVE                        000N        CARE OF             
MTR08466000001000000000000000RA              99999999    005800300000003000000610000003NN  NNW 000                       N    
RDG08466000WATRL000000004K00000000000000676003001152015103718N000000000000N89       000030400K 10000000010000000661           
CUS0846600000108215537005         MILLER, ERNEST      2506 ARBUTON AVE                        000N        CARE OF             
MTR08466000001000000000000000RA              01081175    005800310000003100000610000003NN  NNW 000                       N    
RDG08466000WATRL000000004K00000000000000451003101152015103852N000000000000N89       000940400K 10000000010000000443           
CUS0846600000108215538003         LANZA, JOSEPH T     2508 ARBUTON AVE                        000N        CARE OF             
MTR08466000001000000000000000RA              99291053    005800320000003200000570000003NN  NNW 000                       N    
RDG08466000WATRL000000004K00000000000001050003201152015103925N000400000010N89       000330400K 10000000010000001049           
CUS0846600000108215540009         CLARK, FLOYD M.     2510 ARBUTON AVE                        000N        CARE OF             
MTR08466000001000000000000000RA              41088716    005800330000003300000520000003NN  NNW 000                       N    
RDG08466000WATRL000000004K00000000000002973003301152015103953N000000000000N89       000280400K 10000000010000002952           
CUS0846600000108215539001         FOUR PARCELS, INC.  2512 ARBUTON AVE                        000N        CARE OF             
MTR08466000001000000000000000RA              00134568    005800340000003400000570000003NN  NNW 000                       N    
RDG08466000WATRL000000004K00000000000000786003401152015104023N000100000010N89       000300400K 10000000010000000786           
CUS0846600000108215541007         REYNA, JUANA M      2516 ARBUTON AVE                        000N        CARE OF             
MTR08466000001000000000000000RA              41589574    005800350000003500000520000003NN  NNW 000                       N    
RDG08466000WATRL000000004K00000000000003408003501152015104052N000000000000N89       000290400K 10000000010000003381           
CUS0846600000108215542005         ALTISOURCE SINGLE FA2812 HOLLINS FERRY RD                   000N        CARE OF             
MTR08466000001000000000000000RA              33079703    005800360000003600000520000003NN  NNW 000                       N    
RDG08466000WATRL000000004K00000000000002695003601152015104153N000000000000N89       000610400K 10000000010000002695           
CUS0846600000108215543003         THOMAS W THOMPSON   2814 HOLLINS FERRY RD                   000N        CARE OF             
MTR08466000001000000000000000RA              29686627    005800370000003700000520000003NN  NNW 000   VACANT PROPERTY     N    
RDG08466000WATRL000000004K00000000000001089003701152015104259N000000000000N89       000660400K 10000000010000001089           
CUS0846600000108215544001         RICHARDS, TRACEY HAR2816 HOLLINS FERRY RD                   000N        CARE OF             
MTR08466000001000000000000000RA              41081333    005800380000003800000520000003NN  NNW 000                       N    
RDG08466000WATRL000000004K00000000000002704003801152015104331N000000000000N89       000320400K 10000000010000002691           
CUS0846600000108215545008         CLAUSELL, DARRYL LAM2818 HOLLINS FERRY RD                   000N        CARE OF             
MTR08466000001000000000000000RA              10013531    005800390000003900000570000003NN  NNW 000                       N    
RDG08466000WATRL000000004K00000000000000906003901152015104416N000000000000N89       000450400K 10000000010000000833           
CUS0846600000108215547004         MILSTEAD, MONICA    2511 BROHAWN AVE                        000N        CARE OF             
MTR08466000001000000000000000RA              76348721    005800400000004000000350000003NN  NNW 000                       N    
RDG08466000WATRL000000004K00000000000000032004001152015105215N000000000000N89       004790400K 10000000010000000020           
CUS0846600000108215548002         ROMERO, LUIS GRANADO2509 BROHAWN AVE                        000N        CARE OF             
MTR08466000001000000000000000RA              45381790    005800410000004100000520000003NN  NNW 000                       N    
RDG08466000WATRL000000004K00000000000001795004101152015105233N000000000000N89       000180400K 10000000010000001766           
CUS0846600000108215549000         MINGHINI, LAWRENCE I2507 BROHAWN AVE                        000N        CARE OF             
MTR08466000001000000000000000RA              29679402    005800420000004200000520000003NN  NNW 000                       N    
RDG08466000WATRL000000004K00000000000002745004201152015105259N000000000000N89       000260400K 10000000010000002729           
CUS0846600000108215550008         JOHN KIBLER         2505 BROHAWN AVE                        000N        CARE OF             
MTR08466000001000000000000000RA              26001802    005800430000004300000520000003NN  NNW 000                       N    
RDG08466000WATRL000000004K00000000000007188004301152015105332N000000000000N89       000330400K 10000000010000007156           
CUS0846600000108215551006         PORTILLO, FERNANDO  2503 BROHAWN AVE                        000N        CARE OF             
MTR08466000001000000000000000RA              50480313    005800440000004400000520000003NN  NNW 000                       N    
RDG08466000WATRL000000004K00000000000002829004401152015105354N000000000000N89       000220400K 10000000010000002794           
CUS0846600000108215552004         FITCH, HOWARD V     2501 BROHAWN AVE                        000N        CARE OF             
MTR08466000001000000000000000RA              45385686    005800450000004500000520000003NN  NNW 000                       N    
RDG08466000WATRL000000004K00000000000002204004501152015105415N000000000000N89       000210400K 10000000010000002185           
CUS0846600000108407929002         QUAINOO, KOBINA     2417 BROHAWN AVE                        000N        CARE OF             
MTR08466000001000000000000000RA              44173510    005800460000004600000520000003NN  NNW 000                       N    
RDG08466000WATRL000000004K00000000000001086004601152015105453N000000000000N89       000380400K 10000000010000001083           
CUS0846600000108215576003         JONES, LLOYD J.     2415 BROHAWN AVE                        000N        CARE OF             
MTR08466000001000000000000000RA              99288738    005800470000004700000570000000NN  NNW 000                       N    
RDG08466000WATRL000000004K00000000000000868004701152015105540N000000000000N89       000470400K 10000000010000000860           
CUS0846600000108215553002         FLEMING, VICTOR GRAV2413 BROHAWN AVE                        000N        CARE OF             
MTR08466000001000000000000000RA              27829431    005800480000004800000520000003NN  NNW 000                       N    
RDG08466000WATRL000000004K00000000000001475004801152015105623N000300000010N89       000430400K 10000000010000001459           
CUS0846600000108215554000         VELMA ISOM          2409 BROHAWN AVE                        000N        CARE OF             
MTR08466000001000000000000000RA              27829399    005800490000004900000520000003NN  NNW 000                       N    
RDG08466000WATRL000000004K00000000000005679004901152015105656N000000000000N89       000330400K 10000000010000005673           
CUS0846600000108411237004         MOSES, MICHAEL      2407 BROHAWN AVE                        000N        CARE OF             
MTR08466000001000000000000000RA              46875099    005800500000005000000520000000NN  NNW 000                       N    
RDG08466000WATRL000000004K00000000000001646005001152015105724N000000000000N89       000280400K 10000000010000001638           
CUS0846600000108215555007         CAMPBELL, LYSTRA C. 2405 BROHAWN AVE                        000N        CARE OF             
MTR08466000001000000000000000RA              29686626    005800510000005100000520000003NN  NNW 000                       N    
RDG08466000WATRL000000004K00000000000003881005101152015105759N000000000000N89       000350400K 10000000010000003881           
CUS0846600000108215556005         SIMPSON, JACQUELINE 2403 BROHAWN AVE                        000N        CARE OF             
MTR08466000001000000000000000RA              29686631    005800520000005200000520000003NN  NNW 000                       N    
RDG08466000WATRL000000004K00000000000002565005201152015105828N000000000000N89       000290400K 10000000010000002548           
CUS0846600000108215557003         GERHARD JR., EDWARD 2401 BROHAWN AVE                        000N        CARE OF             
MTR08466000001000000000000000RA              26001801    005800530000005300000520000003NN  NNW 000                       N    
RDG08466000WATRL000000004K00000000000004476005301152015105857N000000000000N89       000290400K 10000000010000004466           
CUS0846600000108215558001         MARSHALL ADDINGTON  2309 BROHAWN AVE                        000N        CARE OF             
MTR08466000001000000000000000RA              29686630    005800540000005400000520000003NN  NNW 000                       N    
RDG08466000WATRL000000004K00000000000001903005401152015105937N000000000000N89       000400400K 10000000010000001890           
CUS0846600000108215559009         PINGUIL, JOSE F     2307 BROHAWN AVE                        000N        CARE OF             
MTR08466000001000000000000000RA              50789075    005800550000005500000520000003NN  NNW 000                       N    
RDG08466000WATRL000000004K00000000000001119005501152015110117N000300000030N89       001000400K 10000000010000001093           
CUS0846600000108439708002         LYNCH, WILLIAM      2305-1/2 BROHAWN AVE                    000N        CARE OF             
MTR08466000001000000000000000RA              14913689    005800560000005600000310000000NN  NNW 000                       N    
RDG08466000WATRL000000004K00000000000000705005601152015110150N000000000000N89       000330400K 10000000010000000680           
CUS0846600000108439707004         SCOTT A JASZKOWSKI  2305 BROHAWN AVE                        000N        CARE OF             
MTR08466000001000000000000000RA              14913691    005800570000005700000310000000NN  NNW 000                       N    
RDG08466000WATRL000000004K00000000000000351005701152015110156N000000000010N89       000060400K 10000000010000000348           
CUS0846600000108215560007         MCMILLON, LAKIYSHA  2303 BROHAWN AVE                        000N        CARE OF             
MTR08466000001000000000000000RA              14923814    005800580000005800000310000003NN  NNW 000                       N    
RDG08466000WATRL000000004K00000000000000879005801152015110306N000000000000N89       000700400K 10000000010000000847           
CUS0846600000108439705008         ANNA M EDWARDS      2301 BROHAWN AVE                        000N        CARE OF             
MTR08466000001000000000000000RA              14913692    005800590000005900000310000000NN  NNW 000                       N    
RDG08466000WATRL000000004K00000000000000609005901152015110308N000000000000N89       000020400K 10000000010000000591           
CUS0846600000108409515007         MILLER, JOHN L      2302 BROHAWN AVE                        000N        CARE OF             
MTR08466000001000000000000000RA              10016169    005800600000006000000570000003NN  NNW 000                       N    
RDG08466000WATRL000000004K00000000000000124006001152015110342N000000000011N89       000060400K 10000000010000000115           
CUS0846600000108215561005         MILLER, JOHN L      2304 BROHAWN AVE                        000N        CARE OF             
MTR08466000001000000000000000RA              27832115    005800610000006100000520000003NN  NNW 000                       N    
RDG08466000WATRL000000004K00000000000004634006101152015110442N000000000000N89       000600400K 10000000010000004619           
CUS0846600000108215562003         OATES, LINDSAY      2306 BROHAWN AVE                        000N        CARE OF             
MTR08466000001000000000000000RA              99291052    005800620000006200000570000003NN  NNW 000                       N    
RDG08466000WATRL000000004K00000000000000951006201152015110512N000000000000N89       000300400K 10000000010000000942           
CUS0846600000108215563001         WILLIAMS III, TIMOTH2400 BROHAWN AVE                        000N        CARE OF             
MTR08466000001000000000000000RA              00134569    005800630000006300000570000003NN  NNW 000                       N    
RDG08466000WATRL000000004K00000000000001372006301152015110616N000000000000N89       000640400K 10000000010000001336           
CUS0846600000108215564009         KHAN, MOHAMMAD N    2404 BROHAWN AVE                        000N        CARE OF             
MTR08466000001000000000000000RA              40781057    005800640000006400000520000003NN  NNW 000                       N    
RDG08466000WATRL000000004K00000000000001052006401152015110641N000000000000N89       000250400K 10000000010000001014           
CUS0846600000108215565006         WHITE, PHYLLIS E.   2904 HURON ST                           000N        CARE OF             
MTR08466000001000000000000000RA              10003753    005800650000006500000570000003NN  NNW 000                       N    
RDG08466000WATRL000000004K00000000000000227006501152015110829N000000000000N89       001080400K 10000000010000000215           
CUS0846600000108215566004         GREENSTREET, CARROLL2906 HURON ST                           000N        CARE OF             
MTR08466000001000000000000000RA              44092888    005800660000006600000520000003NN  NNW 000                       N    
RDG08466000WATRL000000004K00000000000002229006601152015110856N000000000000N89       000270400K 10000000010000002203           
CUS0846600000108215567002         U.S BANK NATIONAL AS2908 HURON ST                           000N        CARE OF             
MTR08466000001000000000000000RA              29402490    005800670000006700000520000003NN  NNW 000                       N    
RDG08466000WATRL000000004K00000000000001439006701152015110924N000100000020N89       000280400K 10000000010000001439           
CUS0846600000108215568000         TUNSTALLE, TERRY T. 2907 HURON ST                           000N        CARE OF             
MTR08466000001000000000000000RA              14917031    005800680000006800000310000003NN  NNW 000                       N    
RDG08466000WATRL000000004K00000000000000436006801152015111005N000000000000N89       000410400K 10000000010000000425           
CUS0846600000108215569008         SMITH SR, CHRISTOPHE2903 HURON ST                           000N        CARE OF             
MTR08466000001000000000000000RA              44173303    005800690000006900000520000003NN  NNW 000                       N    
RDG08466000WATRL000000004K00000000000001797006901152015111041N000000000000N89       000360400K 10000000010000001787           
CUS0846600000108215570006         LOVALVO, JEFFREY    2406 BROHAWN AVE                        000N        CARE OF             
MTR08466000001000000000000000RA              00137532    005800700000007000000570000003NN  NNW 000                       N    
RDG08466000WATRL000000004K00000000000000069007001152015111153N000000000000N89       000720400K 10000000010000000047           
CUS0846600000108215571004         LOVALVO, JEFFREY    2406-1/2 BROHAWN AVE                    000N        CARE OF             
MTR08466000001000000000000000RA              10004631    005800710000007100000570000003NN  NNW 000                       N    
RDG08466000WATRL000000004K00000000000000294007101152015111227N000000000000N89       000340400K 10000000010000000259           
CUS0846600000108215572002         FLEMING, VICTOR     2408 BROHAWN AVE                        000N        CARE OF             
MTR08466000001000000000000000RA              40780454    005800720000007200000520000003NN  NNW 000                       N    
RDG08466000WATRL000000004K00000000000001994007201152015111335N000000000000N89       000680400K 10000000010000001984           
CUS0846600000108215573000         INNOVATIVE REAL ESTA2410 BROHAWN AVE                        000N        CARE OF             
MTR08466000001000000000000000RA              45378088    005800730000007300000520000003NN  NNW 000                       N    
RDG08466000WATRL000000004K00000000000001318007301152015111446N000000000010N89       000710400K 10000000010000001316           
CUS0846600000108215574008         MORALES, NELLY A.   2414 BROHAWN AVE                        000N        CARE OF             
MTR08466000001000000000000000RA              29686629    005800740000007400000520000003NN  NNW 000                       N    
RDG08466000WATRL000000004K00000000000003208007401152015111544N000000000000N89       000580400K 10000000010000003181           
CUS0846600000108215575005         ESPINAS, JOSEFINO C 2416 BROHAWN AVE                        000N        CARE OF             
MTR08466000001000000000000000RA              01099963    005800750000007500000610000003NN  NNW 000                       N    
RDG08466000WATRL000000004K00000000000000579007501152015111619N000000000000N89       000350400K 10000000010000000561           
CUS0846600000108215577001         JOSEFINO ESPINAS    2902 PUGET ST                           000N        CARE OF             
MTR08466000001000000000000000RA              00133521    005800760000007600000570000003NN  NNW 000                       N    
RDG08466000WATRL000000004K00000000000000941007601152015111727N000000000000N89       000680400K 10000000010000000926           
CUS0846600000108215578009         SUDDRETH, MANUS EDWA2901 PUGET ST                           000N        CARE OF             
MTR08466000001000000000000000RA              29083439    005800770000007700000520000003NN  NNW 000                       N    
RDG08466000WATRL000000004K00000000000000000007801152015111819S022000000000N89       000040400K 10000000010000001541           
CUS0846600000108215579007         CONSTANTINO PROCOPIO2500 BROHAWN AVE                        000N        CARE OF             
MTR08466000001000000000000000RA              27832118    005800780000007800000520000003NN  NNW 000                       N    
RDG08466000WATRL000000004K00000000000003124007701152015111815N000000000000N89       000480400K 10000000010000003124           
CUS0846600000108215580005         DUMISANI, SIZWE I.  2502 BROHAWN AVE                        000N        CARE OF             
MTR08466000001000000000000000RA              41088743    005800790000007900000520000003NN  NNW 000                       N    
RDG08466000WATRL000000004K00000000000001772007901152015111915N000000000000N89       000560400K 10000000010000001772           
CUS0846600000108215581003         SMITH, BARBARA ANN  2508 BROHAWN AVE                        000N        CARE OF             
MTR08466000001000000000000000RA              99187741    005800800000008000000570000003NN  NNW 000                       N    
RDG08466000WATRL000000004K00000000000000574008001152015112001N000000000000N89       000460400K 10000000010000000567           
CUS0846600000108215582001         CHASE, THOMAS S.    2510 BROHAWN AVE                        000N        CARE OF             
MTR08466000001000000000000000RA              99291051    005800810000008100000570000003NN  NNW 000                       N    
RDG08466000WATRL000000004K00000000000001011008101152015112031N000000000000N89       000300400K 10000000010000000986           
CUS0846600000108215583009         HURSTON, YOLANDA    2512 BROHAWN AVE                        000N        CARE OF             
MTR08466000001000000000000000RA              01099871    005800820000008200000610000000NN  NNW 000                       N    
RDG08466000WATRL000000004K00000000000001480008201152015112054N000000000000N89       000230400K 10000000010000001452           
CUS0846600000108215584007         CUDMORE, KATHLEEN L 2514 BROHAWN AVE                        000N        CARE OF             
MTR08466000001000000000000000RA              40781139    005800830000008300000520000003NN  NNW 000                       N    
RDG08466000WATRL000000004K00000000000001801008301152015112131N000000000000N89       000370400K 10000000010000001794           
CUS0846600000108215585004         COBB, MILTON T      2900 HOLLINS FERRY RD                   000N        CARE OF             
MTR08466000001000000000000000RA              99288526    005800840000008400000570000003NN  NNW 000                       N    
RDG08466000WATRL000000004K00000000000000631008401152015112245N000400000010N89       000740400K 10000000010000000624           
CUS0846600000108215586002         AYALA, WILBER       2902 HOLLINS FERRY RD                   000N        CARE OF             
MTR08466000001000000000000000RA              29403032    005800850000008500000520000003NN  NNW 000                       N    
RDG08466000WATRL000000004K00000000000001481008501152015112321N000000000000N89       000360400K 10000000010000001468           
CUS0846600000108215587000         WEST SIDE PROPERTIES2904-06 HOLLINS FERRY RD                000N        CARE OF             
MTR08466000001000000000000000RA              10003262    005800860000008600000570000003NN  NNW 000                       N    
RDG08466000WATRL000000004K00000000000003327008601152015112401N000000000000N89       000400400K 10000000010000003211           
CUS0846600000108215588008         HEINLEIN, DONALD A. 2908-10 HOLLINS FERRY RD                000N        CARE OF             
MTR08466000001000000000000000RA              75424279    005800870000008700000350000003NN  NNW 000                       N    
RDG08466000WATRL000000004K00000000000001216008701152015112446N000000000000N89       000450400K 10000000010000001216           
CUS0846600000108215589006         ORANTES, MILTON V   2505 LAKELAND AVE                       000N        CARE OF             
MTR08466000001000000000000000RA              22607870    005800880000008800000520000003NN  NNW 000                       N    
RDG08466000WATRL000000004K00000000000003712008801152015112833N000000000000N89       002270400K 10000000010000003704           
CUS0846600000108215590004         MCDOWELL, KRISHNA O 2503 LAKELAND AVE                       000N        CARE OF             
MTR08466000001000000000000000RA              01083056    005800890000008900000610000003NN  NNW 000                       N    
RDG08466000WATRL000000004K00000000000000797008901152015112858N000000000000N89       000250400K 10000000010000000782           
CUS0846600000108215591002         PATAPSCO EXCAVATING 2500 LAKELAND AVE                       000N        CARE OF             
MTR08466000001000000000000000RA              99999999    005800900000009000000620000003NN  NNW 000   VACANT PROPERTY     N    
RDG08466000WATRL000000004K00000000000000000009001152015112909S022000000000N89       000110400K 10000000010000000728           
CUS0846600000108215592000         SECRETARY OF VETERAN2502 LAKELAND AVE                       000N        CARE OF             
MTR08466000001000000000000000RA              01093196    005800910000009100000610000003NN  NNW 000                       N    
RDG08466000WATRL000000004K00000000000001500009101152015112935N000000000000N89       000260400K 10000000010000001474           
CUS0846600000108215593008         HARMON, DONFORD     2504 LAKELAND AVE                       000N        CARE OF             
MTR08466000001000000000000000RA              00134570    005800920000009200000570000003NN  NNW 000                       N    
RDG08466000WATRL000000004K00000000000000484009201152015113025N000000000000N89       000500400K 10000000010000000441           
CUS0846600000108215594006         WELLS FARGO HOME MOR2506 LAKELAND AVE                       000N        CARE OF             
MTR08466000001000000000000000RA              22610430    005800930000009300000520000003NN  NNW 000                       N    
RDG08466000WATRL000000004K00000000000003149009301152015113057N000000000000N89       000320400K 10000000010000003149           
CUS0846600000108215595003         ULUDOGAN, VEDAT     2508 LAKELAND AVE                       000N        CARE OF             
MTR08466000001000000000000000RA              29683558    005800940000009400000520000003NN  NNW 000                       N    
RDG08466000WATRL000000004K00000000000002640009401152015113112N000000000000N89       000150400K 10000000010000002626           
CUS0846600000108215596001         JON F SONNENLEITER  2914 HOLLINS FERRY RD                   000N        CARE OF             
MTR08466000001000000000000000RA              01099865    005800950000009500000610000003NY  NNW 000                       N    
MTM0846600001099865    CANT LOCATE                                                                                            
RDG08466000WATRL000000004K00000000000000000000000000000000000 000000000000U         000000400  10000000010000000909           
CUS0846600000108215597009         BLAIR, KEMP         2500 WEGWORTH LN                        000N        CARE OF             
MTR08466000001000000000000000RA              10002890    005800960000009600000570000003NN  NNW 000                       N    
RDG08466000WATRL000000004K00000000000000145009501152015113507N000000000000N89       002350400K 10000000010000000139           
CUS0846600000108215598007         COLLINS, DORIS J    2918 HOLLINS FERRY RD                   000N        CARE OF             
MTR08466000001000000000000000RA              41081358    005800970000009700000520000003NN  NNW 000                       N    
RDG08466000WATRL000000004K00000000000002250009601152015113526N000000000000N89       000190400K 10000000010000002228           
CUS0846600000108215599005         ROOT, CHRISTOPHER M 2922 HOLLINS FERRY RD                   000N        CARE OF             
MTR08466000001000000000000000RA              14909949    005800980000009800000310000003NN  NNW 000                       N    
RDG08466000WATRL000000004K00000000000000464009701152015113607N000000000000N89       000410400K 10000000010000000453           
CUS0846600000108215600001         LAKELAND PRESBYTERIA2926 HOLLINS FERRY RD                   000N        CARE OF             
MTR08466000001000000000000000RA              22862294    005800990000009900000520000003NN  NNW 000                       N    
RDG08466000WATRL000000004K00000000000000795009801152015114116N000400000010N89       003090400K 10000000010000000792           
CUS0846600000108215601009         PHINNEY INVESTMENT P3000 HOLLINS FERRY RD                   000N        CARE OF             
MTR08466000001000000000000000RA              00163545    000101000000010000000570000003NN  NNW 000                       N    
RDG08466000WATRL000000004K00000000000001971009901152015114240N000000000000N89       000840400K 10000000010000001652           
CUS0846600000108215604003         TACO BELL OF BALTIMO2300 W PATAPSCO AVE                     000N        CARE OF             
MTR08466000001000000000000000RA              30249146    007501010000010100000520000003NN  NNW 000                       N    
RDG08466000WATRL000000004K00000000000007272010001152015114514N000000000000N89       001540400K 10000000010000007162           
CUS0846600000108215611008         FEDERAL NATIONAL MOR2318 W PATAPSCO AVE                     000N        CARE OF             
MTR08466000001000000000000000RA              00134462    005801020000010200000570000003NN  NNW 000                       N    
RDG08466000WATRL000000004K00000000000001578010101152015114656N000000000000N89       001020400K 10000000010000001578           
CUS0846600000108215612006         COLLIER-SIMMS, TRILI2320 W PATAPSCO AVE                     000N        CARE OF             
MTR08466000001000000000000000RA              10000101    005801030000010300000570000003NN  NNW 000   VACANT PROPERTY     N    
RDG08466000WATRL000000004K00000000000000062010201152015114701N000000000000N89       000050400K 10000000010000000062           
CUS0846600000108215614002         LEON, JOSE H.       3109 SAVOY ST                           000N        CARE OF             
MTR08466000001000000000000000RA              48588846    005801040000010400000520000003NN  NNW 000                       N    
RDG08466000WATRL000000004K00000000000002556011201152015115127N000000000000N89       000210400K 10000000010000002540           
CUS0846600000108215613004         HUBBARD, GARY L     3103 SAVOY ST                           000N        CARE OF             
MTR08466000001000000000000000RA              01072081    005801050000010500000610000003NN  NNW 000                       N    
RDG08466000WATRL000000004K00000000000000606011301152015115301N000000000000N89       000940400K 10000000010000000596           
CUS0846600000108215615009         SALEEM, FASIL       3102-1/2 SAVOY ST                       000N        CARE OF             
MTR08466000001000000000000000RA              22610056    005801060000010600000520000003NN  NNW 000                       N    
RDG08466000WATRL000000004K00000000000002540011401152015115326N000000000010N89       000250400K 10000000010000002530           
CUS0846600000108215616007         BONNIE R CHESTER    3104 SAVOY ST                           000N        CARE OF             
MTR08466000001000000000000000RA              26004245    005801070000010700000520000003NN  NNW 000                       N    
RDG08466000WATRL000000004K00000000000003786011501152015115401N000000000000N89       000350400K 10000000010000003772           
CUS0846600000108215619001         SMITH, MICHAEL S    2507 FRANK AVE                          000N        CARE OF             
MTR08466000001000000000000000RA              21202533    005801080000010800000520000003NN  NNW 000                       N    
RDG08466000WATRL000000004K00000000000005311011601152015115539N000000000000N89       000980400K 10000000010000005307           
CUS0846600000108215618003         ORTEGA, IVAN R.     2505 FRANK AVE                          000N        CARE OF             
MTR08466000001000000000000000RA              45381795    005801090000010900000520000003NN  NNW 000                       N    
RDG08466000WATRL000000004K00000000000001844011701152015115631N000000000000N89       000520400K 10000000010000001815           
CUS0846600000108215617005         COLCLOUGH JR., THEOD2503 FRANK AVE                          000N        CARE OF             
MTR08466000001000000000000000RA              44175754    005801100000011000000520000003NN  NNW 000                       N    
RDG08466000WATRL000000004K00000000000001520011801152015115719N000000000000N89       000480400K 10000000010000001512           
CUS0846600000108404371000         GREENE, MARVIN S    3110 SAVOY ST                           000N        CARE OF             
MTR08466000001000000000000000RA              39289011    005801110000011100000520000003NN  NNW 000                       N    
RDG08466000WATRL000000004K00000000000001881011001152015115102N000000000000N89       000310400K 10000000010000001874           
CUS0846600000108404373006         LASTER, RONALD E    3112 SAVOY ST                           000N        CARE OF             
MTR08466000001000000000000000RA              52768291    005801120000011200000520000003NN  NNW 000                       N    
RDG08466000WATRL000000004K00000000000001488011101152015115106N000000000000N89       000040400K 10000000010000001465           
CUS0846600000108404383005         GREENE, STEVEN M    3114 SAVOY ST                           000N        CARE OF             
MTR08466000001000000000000000RA              40320796    005801130000011300000520000003NN  NNW 000                       N    
RDG08466000WATRL000000004K00000000000001287010801152015115028N000000000000N89       000270400K 10000000010000001271           
CUS0846600000108404374004         GERBER VILLATORO    3116 SAVOY ST                           000N        CARE OF             
MTR08466000001000000000000000RA              41088243    005801140000011400000520000003NN  NNW 000                       N    
RDG08466000WATRL000000004K00000000000002442010901152015115031N000000000000N89       000030400K 10000000010000002412           
CUS0846600000108404375001         BOYD, ANTHONY M     3118 SAVOY ST                           000N        CARE OF             
MTR08466000001000000000000000RA              30519162    005801150000011500000520000003NN  NNW 000                       N    
RDG08466000WATRL000000004K00000000000002784010601152015114952N000000000000N89       000620400K 10000000010000002765           
CUS0846600000108404376009         HARTLOVE, JUANITA L.3120 SAVOY ST                           000N        CARE OF             
MTR08466000001000000000000000RA              30525990    005801160000011600000520000003NN  NNW 000                       N    
RDG08466000WATRL000000004K00000000000002427010701152015115001N000000000000N89       000090400K 10000000010000002416           
CUS0846600000108404377007         HAWKINS, JOHN A     3122 SAVOY ST                           000N        CARE OF             
MTR08466000001000000000000000RA              39585554    005801170000011700000520000003NN  NNW 000                       N    
RDG08466000WATRL000000004K00000000000000932010501152015114850N000000000000N89       000350400K 10000000010000000926           
CUS0846600000108404378005         PRESBERRY, PAULINE S3124 SAVOY ST                           000N        CARE OF             
MTR08466000001000000000000000RA              44086247    005801180000011800000520000003NN  NNW 000                       N    
RDG08466000WATRL000000004K00000000000001096010401152015114815N000000000000N89       000170400K 10000000010000001082           
CUS0846600000108404379003         HILL, JACQUELINE    3126 SAVOY ST                           000N        CARE OF             
MTR08466000001000000000000000RA              44086241    005801190000011900000520000003NN  NNW 000                       N    
RDG08466000WATRL000000004K00000000000003696010301152015114758N000000000000N89       000570400K 10000000010000003654           
CUS0846600000108215622005         JOSEPH J SMITH JR   2506 FRANK AVE                          000N        CARE OF             
MTR08466000001000000000000000RA              30524586    005801200000012000000520000003NN  NNW 000                       N    
RDG08466000WATRL000000004K00000000000002959011901152015115908N000000000000N89       001090400K 10000000010000002941           
CUS0846600000108215623003         FAITH TABERNACLE    2412-18 W PATAPSCO AVE                  000N        CARE OF             
MTR08466000001000000000000000RA              6519651     005801210000012100000320000003NN  NNW 000                       N    
RDG08466000WATRL000000004K00000000000000000012001152015120034S022000000000N89       000860400K 10000000010000000240           
CUS0846600000108215624001         FAITH TABERNACLE INC2420-22 W PATAPSCO AVE                  000N        CARE OF             
MTR08466000001000000000000000RA              00134993    005801220000012200000570000003NN  NNW 000                       N    
RDG08466000WATRL000000004K00000000000002902012101152015120051N000000000000N89       000170400K 10000000010000002882           
CUS0846600000108215645006         WILSON, GARY        2507 W PATAPSCO AVE                     000N        CARE OF             
MTR08466000001000000000000000RA              01091506    005801230000012300000610000003NN  NNW 000                       N    
RDG08466000WATRL000000004K00000000000000566012401152015120327N000000000000N89       000500400K 10000000010000000554           
CUS0846600000108215646004         BROOKS, ANGELO N    2505 W PATAPSCO AVE                     000N        CARE OF             
MTR08466000001000000000000000RA              10009222    005801240000012400000570000003NN  NNW 000                       N    
RDG08466000WATRL000000004K00000000000000232012301152015120237N000000000000N89       000340400K 10000000010000000224           
CUS0846600000108409541003         SARVIS, TIMOTHY A   2501 W PATAPSCO AVE                     000N        CARE OF             
MTR08466000001000000000000000RA              45377081    005801250000012500000520000000NN  NNW 000                       N    
RDG08466000WATRL000000004K00000000000001934012201152015120203N000000000000N89       000720400K 10000000010000001913           
CUS0846600000108215648000         KIBLER, JOHN        2417-19 W PATAPSCO AVE                  000N        CARE OF             
MTR08466000001000000000000000RA              14906093    005801260000012600000310000003NN  NNW 000                       N    
RDG08466000WATRL000000004K00000000000000418012501152015120512N000000000000N89       001050400K 10000000010000000412           
CUS0846600000108215649008         JOHN KIBLER         2413-15 W PATAPSCO AVE                  000N        CARE OF             
MTR08466000001000000000000000RA              39291153    005801270000012700000520000003NN  NNW 000                       N    
RDG08466000WATRL000000004K00000000000002337012601152015120605N000000000000N89       000530400K 10000000010000002302           
CUS0846600000108215650006         CHASE               2411 W PATAPSCO AVE                     000N        CARE OF             
MTR08466000001000000000000000RA              30526758    005801280000012800000520000003NY  NNW 000                       N    
MTM0846600030526758    ICE IN VAULT                                                                                           
RDG08466000WATRL000000004K00000000000000000000000000000000000 000000000000U         000000400  10000000010000000461           
CUS0846600000108215651004         MICHAEL M PURPER & W2409 W PATAPSCO AVE                     000N        CARE OF             
MTR08466000001000000000000000RA              24769780    005801290000012900000520000003NN  NNW 000                       N    
RDG08466000WATRL000000004K00000000000003525012701152015120753N000000000000N89       001080400K 10000000010000003515           
CUS0846600000108215652002         LAMM, PHYLLIS       2405-07 W PATAPSCO AVE                  000N        CARE OF             
MTR08466000001000000000000000RA              42809237    005801300000013000000520000003NN  NNW 000                       N    
RDG08466000WATRL000000004K00000000000001093012801152015120844N000000000000N89       000510400K 10000000010000001084           
CUS0846600000108215653000         WELLS FARGO BANK, NA2401-03 W PATAPSCO AVE                  000N        CARE OF             
MTR08466000001000000000000000RA              32699976    005801310000013100000520000003NN  NNW 000                       N    
RDG08466000WATRL000000004K00000000000003154012901152015120900N000000000000N89       000160400K 10000000010000003154           
CUS0846600000108215654008         THOMAS L BENNETT & W2323 W PATAPSCO AVE                     000N        CARE OF             
MTR08466000001000000000000000RA              26006242    005801320000013200000520000003NN  NNW 000                       N    
RDG08466000WATRL000000004K00000000000002923013001152015120931N000000000000N89       000310400K 10000000010000002915           
CUS0846600000108215655005         RALEY SR., ANTHONY  2321 W PATAPSCO AVE                     000N        CARE OF             
MTR08466000001000000000000000RA              99292832    005801330000013300000570000003NN  NNW 000                       N    
RDG08466000WATRL000000004K00000000000000935013101152015120958N000000000000N89       000270400K 10000000010000000930           
CUS0846600000108215656003         SHEELY, JACK D      2319 W PATAPSCO AVE                     000N        CARE OF             
MTR08466000001000000000000000RA              29402864    005801340000013400000520000003NN  NNW 000                       N    
RDG08466000WATRL000000004K00000000000002999013201152015121019N000000000000N89       000210400K 10000000010000002982           
CUS0846600000108215657001         AYANLEYE, TIMOTHY A.2317 W PATAPSCO AVE                     000N        CARE OF             
MTR08466000001000000000000000RA              01111756    005801350000013500000610000003NN  NNW 000                       N    
RDG08466000WATRL000000004K00000000000000699013301152015121055N000000000000N89       000360400K 10000000010000000697           
CUS0846600000108215659007         CASTRO, FRANCISCO A 2307-09 W PATAPSCO AVE                  000N        CARE OF             
MTR08466000001000000000000000RA              00134996    005801360000013600000570000003NN  NNW 000                       N    
RDG08466000WATRL000000004K00000000000001006013401152015121220N000300000010N89       000850400K 10000000010000000971           
CUS0846600000108215660005         7-ELEVEN, INC       3204 HOLLINS FERRY RD                   000N        CARE OF             
MTR08466000001000000000000000RA              28153922    007501370000013700000520000003NY  NNW 000                       N    
MTM0846600028153922    MUD IN VAULT                                                                                           
RDG08466000WATRL000000004K00000000000000000000000000000000000 000000000000U         000000400  10000000010000009990           
CUS0846600000108215661003         LAZENBY, WILLIAM A  3210 HOLLINS FERRY RD                   000N        CARE OF             
MTR08466000001000000000000000RA              99291055    005801380000013800000570000003NN  NNW 000                       N    
RDG08466000WATRL000000004K00000000000002663013501152015121512N000000000000N89       001720400K 10000000010000002638           
CUS0846600000108215662001         LAZENBY, WILLIAM A  3212 HOLLINS FERRY RD                   000N        CARE OF             
MTR08466000001000000000000000RA              14915791    005801390000013900000310000003NN  NNW 000                       N    
RDG08466000WATRL000000004K00000000000000340014001152015123412N000400000010N89       008010400K 10000000010000000338           
CUS0846600000108215663009         LAZENBY, WILLIAM AND3214 HOLLINS FERRY RD                   000N        CARE OF             
MTR08466000001000000000000000RA              00134995    005801400000014000000570000003NN  NNW 000                       N    
RDG08466000WATRL000000004K00000000000003989013601152015121858N000000000000N89       002260400K 10000000010000003973           
CUS0846600000108215664007         ZAHEER, IMRAN       3216 HOLLINS FERRY RD                   000N        CARE OF             
MTR08466000001000000000000000RA              01108459    005801410000014100000610000003NN  NNW 000                       N    
RDG08466000WATRL000000004K00000000000002223013701152015121918N000000000000N89       000200400K 10000000010000002150           
CUS0846600000108215665004         ZAHEER, IMRAN       3218 HOLLINS FERRY RD                   000N        CARE OF             
MTR08466000001000000000000000RA              44178580    005801420000014200000520000003NN  NNW 000                       N    
RDG08466000WATRL000000004K00000000000001803013801152015121955N000000000001N89       000040400K 10000000010000001782           
CUS0846600000108215666002         ZAHEER, IMRAN       3220 HOLLINS FERRY RD                   000N        CARE OF             
MTR08466000001000000000000000RA              44178594    005801430000014300000520000003NN  NNW 000                       N    
RDG08466000WATRL000000004K00000000000001112013901152015122051N000000000000N89       000560400K 10000000010000001109           
RTR08466000NN01430143000001430000000001430143000195NY014301430143000300030000000000000000000002    12242014NY020000 N         
RHD04217000NN01970197000001970000000001970197000257NY019701970197000100000000000000000000000001    12022014NY020000 N         
CUS0421700000104178248003         HATFIELD, MARK L    122 TAPLOW RD                           000N        CARE OF             
MTR04217000001000000000000000RA              41193356    007500010000000100000520000003NN  NNW 000                       N    
RDG04217000WATRL000000004K00000000000002873001101152015120618N000000000000N40       000670400K 10000000010000002847           
CUS0421700000104178249001         MEYER, DAVID L.     120 TAPLOW RD                           000N        CARE OF             
MTR04217000001000000000000000RA              00120368    007500020000000200000570000003NN  NNW 000                       N    
RDG04217000WATRL000000004K00000000000001470001001152015120511N000000000000N40       000320400K 10000000010000001447           
CUS0421700000104178250009         BACIGALUPO, TRACY A.118 TAPLOW RD                           000N        CARE OF             
MTR04217000001000000000000000RA              43904895    007500030000000300000520000003NN  NNW 000                       N    
RDG04217000WATRL000000004K00000000000003310000901152015120413N000400000051N40       000400400K 10000000010000003307           
CUS0421700000104178251007         HURWITZ DAVID MARSHA116 TAPLOW RD                           000N        CARE OF             
MTR04217000001000000000000000RA              44086256    005800040000000400000520000003NN  NNW 000                       N    
RDG04217000WATRL000000004K00000000000002055000801152015120234N000000000000N40       000310400K 10000000010000002041           
CUS0421700000104178252005         FILBERT JR, WILLIAM 114 TAPLOW RD                           000N        CARE OF             
MTR04217000001000000000000000RA              50789122    005800050000000500000520000003NN  NNW 000                       N    
RDG04217000WATRL000000004K00000000000002245000701152015120439N000000000011N40       000260400K 10000000010000002229           
CUS0421700000104178253003         DEVINE, JOHN R.     112-1/2 TAPLOW RD                       000N        CARE OF             
MTR04217000001000000000000000RA              26375283    007500060000000600000520000003NN  NNW 000                       N    
RDG04217000WATRL000000004K00000000000004050000601152015120100N000000000000N40       000320400K 10000000010000004032           
CUS0421700000104178254001         ROBERT L DOORY JR & 112 TAPLOW RD                           000N        CARE OF             
MTR04217000001000000000000000RA              33416020    007500070000000700000520000003NN  NNW 000                       N    
RDG04217000WATRL000000004K00000000000004115000501152015120028N000000000000N40       000460400K 10000000010000004098           
CUS0421700000104178255008         GUASTELLO, CATHERINE110 TAPLOW RD                           000N        CARE OF             
MTR04217000001000000000000000RA              33416023    007500080000000800000520000003NN  NNW 000                       N    
RDG04217000WATRL000000004K00000000000002361000401152015115942N000000000000N40       000450400K 10000000010000002347           
CUS0421700000104178256006         BENNETT III, WILLIAM108 TAPLOW RD                           000N        CARE OF             
MTR04217000001000000000000000RA              99288920    005800090000000900000570000003NN  NNW 000                       N    
RDG04217000WATRL000000004K00000000000001266000301152015115857N000000000062N40       000300400K 10000000010000001253           
CUS0421700000104178257004         BASLER, JOHN J      106 TAPLOW RD                           000N        CARE OF             
MTR04217000001000000000000000RA              35115363    005800100000001000000520000003NN  NNW 000                       N    
RDG04217000WATRL000000004K00000000000002836000201152015115313N000000000000N40       001150400K 10000000010000002825           
CUS0421700000104178258002         JACOB SILVERMAN & WF104 TAPLOW RD                           000N        CARE OF             
MTR04217000001000000000000000RA              25783165    005800110000001100000520000003NN  NNW 000                       N    
RDG04217000WATRL000000004K00000000000008004000101152015115118N000000000000N40       000000400K 10000000010000007958           
CUS0421700000104178259000         STANTON, JOHN       102 TAPLOW RD                           000N        CARE OF             
MTR04217000001000000000000000RA              00119397    007500120000001200000570000003NN  NNW 000                       N    
RDG04217000WATRL000000004K00000000000001538001201152015121657N000000000011N40       003270400K 10000000010000001517           
CUS0421700000104178260008         KOEHLER JR, STEWART 5401 N CHARLES ST                       000N        CARE OF             
MTR04217000001000000000000000RA              33080646    005800130000001300000520000003NN  NNW 000                       N    
RDG04217000WATRL000000004K00000000000007612001301152015121850N000000000072N40       001130400K 10000000010000007576           
CUS0421700000104178261006         GRACE METHODIST CHUR5405 N CHARLES ST                       000N        CARE OF             
MTR04217000001000000000000000RA              24771677    005800140000001400000520000003NN  NNW 000                       N    
RDG04217000WATRL000000004K00000000000004135001401152015122207N000000000000N40       001970400K 10000000010000004120           
CUS0421700000104178262004         GRACE METHODIST CHUR5407 N CHARLES ST                       000N        CARE OF             
MTR04217000001000000000000000RA              33415964    001500150000001500000520000003NN  NNW 000                       N    
RDG04217000WATRL000000005K00000000000014610001501152015122516N000000000000N40       001890500K 10000000010000014568           
CUS0421700000104178263002         LAKE, RICHARD D     103 CROYDON RD                          000N        CARE OF             
MTR04217000001000000000000000RA              24763308    005800160000001600000520000000NN  NNW 000                       N    
RDG04217000WATRL000000004K00000000000004749001701152015122826N000000000000N40       000380400K 10000000010000004724           
CUS0421700000104178264000         BELINKO, RONALD J   105 CROYDON RD                          000N        CARE OF             
MTR04217000001000000000000000RA              23056382    005800170000001700000520000003NN  NNW 000                       N    
RDG04217000WATRL000000004K00000000000002985001601152015122748N000000000000N40       001520400K 10000000010000002970           
CUS0421700000104178265007         MUDD, CHRISTOPHER D 107 CROYDON RD                          000N        CARE OF             
MTR04217000001000000000000000RA              10004428    005800180000001800000570000003NN  NNW 000                       N    
RDG04217000WATRL000000004K00000000000000415001901152015123112N000000000010N40       001030400K 10000000010000000396           
CUS0421700000104178266005         MCWILLIAMS, SCOTT   109 CROYDON RD                          000N        CARE OF             
MTR04217000001000000000000000RA              01096322    005800190000001900000610000003NN  NNW 000                       N    
RDG04217000WATRL000000004K00000000000001137002001152015123248N000000000000N40       000960400K 10000000010000001115           
CUS0421700000104178267003         STEPHEN R KRAUSE & W111 CROYDON RD                          000N        CARE OF             
MTR04217000001000000000000000RA              99387687    005800200000002000000570000003NN  NNW 000                       N    
RDG04217000WATRL000000004K00000000000001786004801152015131223N000400000062N40       000410400K 10000000010000001785           
CUS0421700000104178268001         CLARK, CAROL FREY   113 CROYDON RD                          000N        CARE OF             
MTR04217000001000000000000000RA              26004397    005800210000002100000520000003NN  NNW 000                       N    
RDG04217000WATRL000000004K00000000000004517002101152015123431N000000000000N40       001030400K 10000000010000004511           
CUS0421700000104178269009         GLENN E BUSHEL & WF 115 CROYDON RD                          000N        CARE OF             
MTR04217000001000000000000000RA              46880814    005800220000002200000520000003NN  NNW 000                       N    
RDG04217000WATRL000000004K00000000000002820002201152015123507N000000000000N40       000360400K 10000000010000002801           
CUS0421700000104178270007         GREENBERG, BARRY C. 117 CROYDON RD                          000N        CARE OF             
MTR04217000001000000000000000RA              44177085    005800230000002300000520000003NN  NNW 000                       N    
RDG04217000WATRL000000004K00000000000002010002301152015123735N000400000072N40       000460400K 10000000010000001995           
CUS0421700000104178271005         MIRMIRAN, ARSHIA    121 CROYDON RD                          000N        CARE OF             
MTR04217000001000000000000000RA              01089220    005800240000002400000610000003NN  NNW 000                       N    
RDG04217000WATRL000000004K00000000000000566002401152015123828N000000000000N40       000530400K 10000000010000000538           
CUS0421700000104178272003         HUMPHRIES, ROBERT G.123 CROYDON RD                          000N        CARE OF             
MTR04217000001000000000000000RA              75422723    005800250000002500000350000003NN  NNW 000                       N    
RDG04217000WATRL000000004K00000000000000151002501152015123920N000000000020N40       000520400K 10000000010000000130           
CUS0421700000104178273001         SARTORIUS, ELIZABETH125 CROYDON RD                          000N        CARE OF             
MTR04217000001000000000000000RA              38984678    005800260000002600000520000003NN  NNW 000                       N    
RDG04217000WATRL000000004K00000000000002558002601152015124017N000000000000N40       000570400K 10000000010000002539           
CUS0421700000104178274009         RUBENS, JEFFREY AARO120 CROYDON RD                          000N        CARE OF             
MTR04217000001000000000000000RA              01096328    005800270000002700000610000003NN  NNW 000                       N    
RDG04217000WATRL000000004K00000000000000751002701152015124128N000300000031N40       000210400K 10000000010000000757           
CUS0421700000104178275006         BELSKY, MICHAEL J   118 CROYDON RD                          000N        CARE OF             
MTR04217000001000000000000000RA              26016802    005800280000002800000520000003NN  NNW 000                       N    
RDG04217000WATRL000000004K00000000000003210002801152015124155N000000000010N40       000270400K 10000000010000003198           
CUS0421700000104178276004         DOWDY, MICHAEL B    116 CROYDON RD                          000N        CARE OF             
MTR04217000001000000000000000RA              30519537    005800290000002900000520000003NN  NNW 000                       N    
RDG04217000WATRL000000004K00000000000002926002901152015124251N000000000000N40       000560400K 10000000010000002903           
CUS0421700000104178277002         PINHEIRO, MICHAEL C 114 CROYDON RD                          000N        CARE OF             
MTR04217000001000000000000000RA              10022098    005800300000003000000570000003NN  NNW 000                       N    
RDG04217000WATRL000000004K00000000000000305003001152015124346N000000000000N40       000550400K 10000000010000000276           
CUS0421700000104178278000         RADOWICH, JEFFREY J 112 CROYDON RD                          000N        CARE OF             
MTR04217000001000000000000000RA              25783847    005800310000003100000520000003NN  NNW 000                       N    
RDG04217000WATRL000000004K00000000000006699003101152015124414N000000000000N40       000280400K 10000000010000006682           
CUS0421700000104178279008         PETERSEN, STEVE A.  110 CROYDON RD                          000N        CARE OF             
MTR04217000001000000000000000RA              27132445    005800320000003200000520000003NN  NNW 000                       N    
RDG04217000WATRL000000004K00000000000003187003201152015124446N000000000000N40       000320400K 10000000010000003173           
CUS0421700000104178280006         MAYNARD, CHRISTOPHE 108 CROYDON RD                          000N        CARE OF             
MTR04217000001000000000000000RA              30519540    005800330000003300000520000003NN  NNW 000                       N    
RDG04217000WATRL000000004K00000000000001766003301152015124555N000000000000N40       000690400K 10000000010000001752           
CUS0421700000104178281004         MADORA SKELTON WRIGH106 CROYDON RD                          000N        CARE OF             
MTR04217000001000000000000000RA              99288980    005800340000003400000570000003NN  NNW 000                       N    
RDG04217000WATRL000000004K00000000000000654003401152015124642N000400000010N40       000470400K 10000000010000000651           
CUS0421700000104178282002         MELANCON, JOSEPH K. 104 CROYDON RD                          000N        CARE OF             
MTR04217000001000000000000000RA              10010879    005800350000003500000570000000NN  NNW 000                       N    
RDG04217000WATRL000000004K00000000000000627003501152015124901N000000000011N40       000310400K 10000000010000000591           
CUS0421700000104178283000         MANGUM, DONALD KENNE102 CROYDON RD                          000N        CARE OF             
MTR04217000001000000000000000RA              27827091    005800360000003600000520000003NN  NNW 000                       N    
RDG04217000WATRL000000004K00000000000003570003601152015124950N000000000000N40       000490400K 10000000010000003554           
CUS0421700000104178284008         WINSLOW, EDWARD S.  100 CROYDON RD                          000N        CARE OF             
MTR04217000001000000000000000RA              30519790    005800370000003700000520000003NN  NNW 000                       N    
RDG04217000WATRL000000004K00000000000003057001801152015122929N000000000010N40       000630400K 10000000010000003042           
CUS0421700000104178285005         LOUISE Y FLAMER     103 E NORTHERN PKWY                     000N        CARE OF             
MTR04217000001000000000000000RA              29121758    007500380000003800000520000003NN  NNW 000                       N    
RDG04217000WATRL000000004K00000000000002286003701152015125244N000300000070N40       001740400K 10000000010000002670           
CUS0421700000104178286003         O'BRIEN, ELLEN T.   107 E NORTHERN PKWY                     000N        CARE OF             
MTR04217000001000000000000000RA              54350463    005800390000003900000520000003NN  NNW 000                       N    
RDG04217000WATRL000000004K00000000000002193003801152015125628N000000000011N40       002150400K 10000000010000002174           
CUS0421700000104178287001         CHANEY, THIERRY     109 E NORTHERN PKWY                     000N        CARE OF             
MTR04217000001000000000000000RA              00119577    007500400000004000000570000003NN  NNW 000                       N    
RDG04217000WATRL000000004K00000000000000866003901152015125744N000000000021N40       000240400K 10000000010000000860           
CUS0421700000104178288009         SALE JR., JAMES E   111 E NORTHERN PKWY                     000N        CARE OF             
MTR04217000001000000000000000RA              30791445    007500410000004100000520000003NN  NNW 000                       N    
RDG04217000WATRL000000004K00000000000004652004001152015125858N000000000000N40       000740400K 10000000010000004633           
CUS0421700000104178289007         BARTH, GEORGE R     113 E NORTHERN PKWY                     000N        CARE OF             
MTR04217000001000000000000000RA              00121317    007500420000004200000570000003NN  NNW 000                       N    
RDG04217000WATRL000000004K00000000000000649004101152015130005N000000000000N40       000670400K 10000000010000000640           
CUS0421700000104178290005         BURBELO, GREG       115 E NORTHERN PKWY                     000N        CARE OF             
MTR04217000001000000000000000RA              30001913    007500430000004300000570000003NN  NNW 000                       N    
RDG04217000WATRL000000004K00000000000000288004201152015130057N000000000000N40       000520400K 10000000010000000266           
CUS0421700000104178291003         THOMPSON, TERRENCE  117 E NORTHERN PKWY                     000N        CARE OF             
MTR04217000001000000000000000RA              29994967    007500440000004400000520000003NN  NNW 000                       N    
RDG04217000WATRL000000004K00000000000002802004301152015130137N000000000011N40       000210400K 10000000010000002793           
CUS0421700000104178292001         EVANS, PATRICK B    119 E NORTHERN PKWY                     000N        CARE OF             
MTR04217000001000000000000000RA              30791448    007500450000004500000520000003NN  NNW 000                       N    
RDG04217000WATRL000000004K00000000000003422004401152015130215N000000000000N40       000380400K 10000000010000003405           
CUS0421700000104178293009         TRENTO, ANDREA W    5419 ST ALBANS WAY                      000N        CARE OF             
MTR04217000001000000000000000RA              14928273    007500460000004600000310000003NN  NNW 000                       N    
RDG04217000WATRL000000004K00000000000000493004501152015130411N000000000000N40       001160400K 10000000010000000462           
CUS0421700000104178294007         CHASNEY, BRYAN P    205 E NORTHERN PKWY                     000N        CARE OF             
MTR04217000001000000000000000RA              39257032    007500470000004700000520000003NN  NNW 000                       N    
RDG04217000WATRL000000004K00000000000003250004901152015131644N000000000000N40       002610400K 10000000010000003203           
CUS0421700000104356842007         RAMSEY, FREDERICK E.207 E NORTHERN PKWY                     000N        CARE OF             
MTR04217000001000000000000000RA              29403877    005800480000004800000520000003NN  NNW 000                       N    
RDG04217000WATRL000000004K00000000000002584005001152015131744N000000000030N40       000600400K 10000000010000002578           
CUS0421700000104178295004         HONEYCUTT, ROBERT   209 E NORTHERN PKWY                     000N        CARE OF             
MTR04217000001000000000000000RA              44030431    007500490000004900000520000003NN  NNW 000                       N    
RDG04217000WATRL000000004K00000000000002378005101152015131818N000000000000N40       000340400K 10000000010000002359           
CUS0421700000104178296002         LANDRUM, COLLEEN D  211 E NORTHERN PKWY                     000N        CARE OF             
MTR04217000001000000000000000RA              30001262    007500500000005000000570000003NN  NNW 000                       N    
RDG04217000WATRL000000004K00000000000000535005201152015131915N000000000000N40       000570400K 10000000010000000517           
CUS0421700000104178297000         MCINTOSH, JOSHUA    213 E NORTHERN PKWY                     000N        CARE OF             
MTR04217000001000000000000000RA              99308830    007500510000005100000570000003NN  NNW 000                       N    
RDG04217000WATRL000000004K00000000000000738005301152015142117N000000000099N40       006600400K 10000000010000000736           
CUS0421700000104178298008         KUESTER, GREGORY FOR215 E NORTHERN PKWY                     000N        CARE OF             
MTR04217000001000000000000000RA              26375314    007500520000005200000520000003NN  NNW 000                       N    
RDG04217000WATRL000000004K00000000000002533005401152015132636N000000000093N40       000210400K 10000000010000002523           
CUS0421700000104178299006         JEUDY, JEAN         5432 SPRINGLAKE WAY                     000N        CARE OF             
MTR04217000001000000000000000RA              27678266    007500530000005300000520000003NN  NNW 000                       N    
RDG04217000WATRL000000004K00000000000003420005501152015133540N000000000000N40       004960400K 10000000010000003393           
CUS0421700000104178300002         FEDERAL HME LOAN MRG5498 SPRINGLAKE WAY                     000N        CARE OF             
MTR04217000001000000000000000RA              30513879    005800540000005400000520000003NY  NNW 000                       N    
MTM0421700030513879    BRIED                                                                                                  
RDG04217000WATRL000000004K00000000000002931005601152015143401N000000000011N40       007640400K 10000000010000002932           
CUS0421700000104178301000         SWANSON, BRAD       216 CHURCHWARDENS RD                    000N        CARE OF             
MTR04217000001000000000000000RA              00120119    007500550000005500000570000003NN  NNW 000                       N    
RDG04217000WATRL000000004K00000000000001180000601162015082119N000300000071U40       000660400K 10000000010000001170           
CUS0421700000104178302008         LITRENTA, FRANCES   214 CHURCHWARDENS RD                    000N        CARE OF             
MTR04217000001000000000000000RA              29685420    005800560000005600000520000003NN  NNW 000                       N    
RDG04217000WATRL000000004K00000000000002097000501162015081817N000000000000U40       000820400K 10000000010000002088           
CUS0421700000104178303006         KNIGHT, JOHNATHAN D 212 CHURCHWARDENS RD                    000N        CARE OF             
MTR04217000001000000000000000RA              33077085    005800570000005700000520000003NN  NNW 000                       N    
RDG04217000WATRL000000004K00000000000002755000401162015081655N000000000000U40       000640400K 10000000010000002736           
CUS0421700000104178304004         SHETTLE, JOAN K     210 CHURCHWARDENS RD                    000N        CARE OF             
MTR04217000001000000000000000RA              46876725    005800580000005800000520000003NN  NNW 000                       N    
RDG04217000WATRL000000004K00000000000002026000301162015081551N000000000000U40       000500400K 10000000010000002000           
CUS0421700000104178305001         RAPISARDA, GREGORY E208 CHURCHWARDENS RD                    000N        CARE OF             
MTR04217000001000000000000000RA              01111787    005800590000005900000610000003NN  NNW 000                       N    
RDG04217000WATRL000000004K00000000000001099000201162015081501N000000000000U40       000690400K 10000000010000001075           
CUS0421700000104178306009         SHEA, EVAN THOMAS   206 CHURCHWARDENS RD                    000N        CARE OF             
MTR04217000001000000000000000RA              01109906    005800600000006000000610000003NN  NNW 000                       N    
RDG04217000WATRL000000004K00000000000000967000101162015081352N000000000000U40       000000400K 10000000010000000939           
CUS0421700000104178307007         MATRICCIANI JR., ALB204 CHURCHWARDENS RD                    000N        CARE OF             
MTR04217000001000000000000000RA              43904898    007500610000006100000520000003NN  NNW 000                       N    
RDG04217000WATRL000000004K00000000000002602000701162015082523N000000000000U40       002440400K 10000000010000002584           
CUS0421700000104178308005         MEREDITH, MICHAEL A 202 CHURCHWARDENS RD                    000N        CARE OF             
MTR04217000001000000000000000RA              00163368    000100620000006200000570000003NN  NNW 000                       N    
RDG04217000WATRL000000004K00000000000001186000801162015082647N000000000000U40       000840400K 10000000010000001171           
CUS0421700000104178309003         RUTHERFORD, KENNETH 5603 ENDERLY RD                         000N        CARE OF             
MTR04217000001000000000000000RA              30528310    007500630000006300000520000003NN  NNW 000                       N    
RDG04217000WATRL000000004K00000000000003480000901162015083344N000000000000U40       004170400K 10000000010000003457           
CUS0421700000104178310001         SILVERMAN, WAYNE P. 5605 ENDERLY RD                         000N        CARE OF             
MTR04217000001000000000000000RA              50790193    005800640000006400000520000003NN  NNW 000                       N    
RDG04217000WATRL000000004K00000000000001989001001162015083435N000000000000U40       000510400K 10000000010000001961           
CUS0421700000104178311009         GEMPER JR., C RICHAR5607 ENDERLY RD                         000N        CARE OF             
MTR04217000001000000000000000RA              31583869    005800650000006500000520000003NN  NNW 000                       N    
RDG04217000WATRL000000004K00000000000004789001101162015084104N000000000092U40       000570400K 10000000010000004766           
CUS0421700000104178312007         DI GIOVANNI, TATUM C5609 ENDERLY RD                         000N        CARE OF             
MTR04217000001000000000000000RA              01096321    005800660000006600000610000003NN  NNW 000                       N    
RDG04217000WATRL000000004K00000000000000980001201162015084155N000000000000U40       000510400K 10000000010000000962           
CUS0421700000104178313005         FRANKLIN, WILLIAM D 5611 ENDERLY RD                         000N        CARE OF             
MTR04217000001000000000000000RA              24758490    005800670000006700000520000003NN  NNW 000                       N    
RDG04217000WATRL000000004K00000000000003689001301162015084239N000000000000U40       000440400K 10000000010000003667           
CUS0421700000104178314003         COLLINS, STEPHEN P. 5613 ENDERLY RD                         000N        CARE OF             
MTR04217000001000000000000000RA              30527956    005800680000006800000520000003NN  NNW 000                       N    
RDG04217000WATRL000000004K00000000000004680001401162015084315N000000000000U40       000360400K 10000000010000004650           
CUS0421700000104178315000         SMITH, CYRIL V.     5614 ENDERLY RD                         000N        CARE OF             
MTR04217000001000000000000000RA              30527968    005800690000006900000520000003NN  NNW 000                       N    
RDG04217000WATRL000000004K00000000000003334001501162015084420N000000000000U40       000650400K 10000000010000003315           
CUS0421700000104178316008         PERRY, TIMOTHY A    5612 ENDERLY RD                         000N        CARE OF             
MTR04217000001000000000000000RA              30527971    005800700000007000000520000003NN  NNW 000                       N    
RDG04217000WATRL000000004K00000000000004320001601162015084525N000000000000U40       000650400K 10000000010000004304           
CUS0421700000104178317006         REYNOLDS, PATRICK J.5610 ENDERLY RD                         000N        CARE OF             
MTR04217000001000000000000000RA              29083034    005800710000007100000520000003NN  NNW 000                       N    
RDG04217000WATRL000000004K00000000000004019001701162015084607N000000000000U40       000420400K 10000000010000003992           
CUS0421700000104178318004         HOOPER, WILLIAM B   5608 ENDERLY RD                         000N        CARE OF             
MTR04217000001000000000000000RA              30527969    005800720000007200000520000003NN  NNW 000                       N    
RDG04217000WATRL000000004K00000000000006116001801162015084733N000000000000U40       000860400K 10000000010000006081           
CUS0421700000104178319002         FRANKLIN, HENRY C.B.5606 ENDERLY RD                         000N        CARE OF             
MTR04217000001000000000000000RA              30527972    005800730000007300000520000003NN  NNW 000                       N    
RDG04217000WATRL000000004K00000000000003268002001162015085124N000000000000U40       000730400K 10000000010000003238           
CUS0421700000104178320000         WYLIE, WALKER GILL  5604 ENDERLY RD                         000N        CARE OF             
MTR04217000001000000000000000RA              32902843    005800740000007400000520000003NN  NNW 000                       N    
RDG04217000WATRL000000004K00000000000003549001901162015085011N000000000000U40       001580400K 10000000010000003532           
CUS0421700000104178321008         AMITH, AVRAHAM      5602 ENDERLY RD                         000N        CARE OF             
MTR04217000001000000000000000RA              01081357    005800750000007500000610000003NN  NNW 000                       N    
RDG04217000WATRL000000004K00000000000001673002101162015085243N000000000000U40       000790400K 10000000010000001658           
CUS0421700000104178323004         O'MALLEY, NIALL H   5605 ST ALBANS WAY                      000N        CARE OF             
MTR04217000001000000000000000RA              27815079    005800760000007600000520000003NN  NNW 000                       N    
RDG04217000WATRL000000004K00000000000003716002201162015085729N000400000072U40       000240400K 10000000010000003686           
CUS0421700000104178324002         LAUMAN, THOMAS G    5607 ST ALBANS WAY                      000N        CARE OF             
MTR04217000001000000000000000RA              35102850    005800770000007700000520000003NN  NNW 000                       N    
RDG04217000WATRL000000004K00000000000004619002301162015085824N000000000000U40       000550400K 10000000010000004598           
CUS0421700000104178325009         KETRON, ANN MARIE   5609 ST ALBANS WAY                      000N        CARE OF             
MTR04217000001000000000000000RA              24229997    005800780000007800000520000003NN  NNW 000                       N    
RDG04217000WATRL000000004K00000000000006386002401162015085859N000000000000U40       000350400K 10000000010000006377           
CUS0421700000104178326007         ROBERTA N PARKER    5611 ST ALBANS WAY                      000N        CARE OF             
MTR04217000001000000000000000RA              27830940    005800790000007900000520000003NN  NNW 000                       N    
RDG04217000WATRL000000004K00000000000004468002501162015090103N000000000032U40       000390400K 10000000010000004433           
CUS0421700000104178327005         CHARLOW, GLENN M    5613 ST ALBANS WAY                      000N        CARE OF             
MTR04217000001000000000000000RA              26000334    005800800000008000000520000003NN  NNW 000                       N    
RDG04217000WATRL000000004K00000000000004339002601162015090315N000000000064U40       000140400K 10000000010000004292           
CUS0421700000104178328003         CHIARAMONTE, ANTHONY5615 ST ALBANS WAY                      000N        CARE OF             
MTR04217000001000000000000000RA              33079020    005800810000008100000520000003NN  NNW 000                       N    
RDG04217000WATRL000000004K00000000000004723002701162015090531N000000000053U40       000690400K 10000000010000004686           
CUS0421700000104178329001         PAN, DUOJIA         5617 ST ALBANS WAY                      000N        CARE OF             
MTR04217000001000000000000000RA              29403979    005800820000008200000520000003NN  NNW 000                       N    
RDG04217000WATRL000000004K00000000000004164002801162015090622N000000000000U40       000510400K 10000000010000004145           
CUS0421700000104178330009         HEMMINGER, RYAN E   5618 ST ALBANS WAY                      000N        CARE OF             
MTR04217000001000000000000000RA              26008158    005800830000008300000520000003NN  NNW 000                       N    
RDG04217000WATRL000000004K00000000000004599002901162015090747N000000000011U40       000250400K 10000000010000004560           
CUS0421700000104178331007         PNC BANK, NA    (TR)5616 ST ALBANS WAY                      000N        CARE OF             
MTR04217000001000000000000000RA              27213819    005800840000008400000520000003NN  NNW 000                       N    
RDG04217000WATRL000000004K00000000000000261004601152015130813N000300000010N40       002420400K 10000000010000004167           
CUS0421700000104178332005         DE LA REGUERA, DEBOR5614 ST ALBANS WAY                      000N        CARE OF             
MTR04217000001000000000000000RA              46890757    007500850000008500000520000003NN  NNW 000                       N    
RDG04217000WATRL000000004K00000000000001160004701152015130939N000000000031N40       000140400K 10000000010000001157           
CUS0421700000104178333003         TED M DAWSON        5612 ST ALBANS WAY                      000N        CARE OF             
MTR04217000001000000000000000RA              33416033    007500860000008600000520000003NN  NNW 000                       N    
RDG04217000WATRL000000004K00000000000004260003001162015091005N000000000020U40       001380400K 10000000010000004240           
CUS0421700000104178334001         CHARLES T SHAAB & WF5610 ST ALBANS WAY                      000N        CARE OF             
MTR04217000001000000000000000RA              74689512    005800870000008700000350000003NN  NNW 000                       N    
RDG04217000WATRL000000004K00000000000000536003101162015091100N000000000000U40       000550400K 10000000010000000461           
CUS0421700000104178335008         SNARSKI, MICHAEL J  5608 ST ALBANS WAY                      000N        CARE OF             
MTR04217000001000000000000000RA              35102851    005800880000008800000520000003NN  NNW 000                       N    
RDG04217000WATRL000000004K00000000000004320003201162015091206N000000000000U40       000660400K 10000000010000004292           
CUS0421700000104178336006         WALKLEY, MICHAEL J  5606 ST ALBANS WAY                      000N        CARE OF             
MTR04217000001000000000000000RA              24624980    007500890000008900000520000003NN  NNW 000                       N    
RDG04217000WATRL000000004K00000000000005630003301162015091332N000000000000U40       000860400K 10000000010000005599           
CUS0421700000104178337004         HAUSER, MICHAEL G (T5604 ST ALBANS WAY                      000N        CARE OF             
MTR04217000001000000000000000RA              33416090    007500900000009000000520000003NN  NNW 000                       N    
RDG04217000WATRL000000004K00000000000003043003401162015091423N000000000000U40       000510400K 10000000010000003029           
CUS0421700000104393724002         STEPHEN MEDURA      5702 ENDERLY RD                         000N        CARE OF             
MTR04217000001000000000000000RA              10020756    005800910000009100000570000003NN  NNW 000                       N    
RDG04217000WATRL000000004K00000000000000205003501162015091607N000000000021U40       000510400K 10000000010000000195           
CUS0421700000104178338002         PATRIZIO CATUREGLI  120 CHURCHWARDENS RD                    000N        CARE OF             
MTR04217000001000000000000000RA              33416036    007500920000009200000520000003NN  NNW 000                       N    
RDG04217000WATRL000000004K00000000000004765003601162015092208N000000000000U40       003610400K 10000000010000004747           
CUS0421700000104178339000         WALSWORTH, GEORGIA B110 CHURCHWARDENS RD                    000N        CARE OF             
MTR04217000001000000000000000RA              33736490    007500930000009300000520000003NN  NNW 000                       N    
RDG04217000WATRL000000004K00000000000002250003701162015092351N000000000000U40       001030400K 10000000010000002240           
CUS0421700000104178340008         COIRO, MICHAEL      108 CHURCHWARDENS RD                    000N        CARE OF             
MTR04217000001000000000000000RA              23648975    005800940000009400000520000003NN  NNW 000                       N    
RDG04217000WATRL000000004K00000000000007662003801162015092621N000000000000U40       001500400K 10000000010000007621           
CUS0421700000104178341006         BROOKER, AGNES F    106 CHURCHWARDENS RD                    000N        CARE OF             
MTR04217000001000000000000000RA              10021664    005800950000009500000570000003NN  NNW 000                       N    
RDG04217000WATRL000000004K00000000000000236003901162015092730N000000000000U40       000690400K 10000000010000000217           
CUS0421700000104178342004         KELLY, RYAN R.      104 CHURCHWARDENS RD                    000N        CARE OF             
MTR04217000001000000000000000RA              30791816    007500960000009600000520000003NN  NNW 000                       N    
RDG04217000WATRL000000004K00000000000003540004001162015092926N000000000001U40       000230400K 10000000010000003504           
CUS0421700000104178343002         PERRY, ALEXANDER T. 102 CHURCHWARDENS RD                    000N        CARE OF             
MTR04217000001000000000000000RA              39080287    007500970000009700000520000003NN  NNW 000                       N    
RDG04217000WATRL000000004K00000000000003920004101162015093035N000000000000U40       000690400K 10000000010000003894           
CUS0421700000104178344000         OBRECHT, GEORGE F   100 CHURCHWARDENS RD                    000N        CARE OF             
MTR04217000001000000000000000RA              39080284    007500980000009800000520000003NN  NNW 000                       N    
RDG04217000WATRL000000004K00000000000006814004201162015093102N000000000000U40       000270400K 10000000010000006802           
CUS0421700000104178345007         POMPER, MARTIN G    101 CHURCHWARDENS RD                    000N        CARE OF             
MTR04217000001000000000000000RA              30791820    007500990000009900000520000003NN  NNW 000                       N    
RDG04217000WATRL000000004K00000000000003095004301162015093236N000000000000U40       000940400K 10000000010000003080           
CUS0421700000104178346005         HURSON, DANIEL J    103 CHURCHWARDENS RD                    000N        CARE OF             
MTR04217000001000000000000000RA              33731230    007501000000010000000520000003NN  NNW 000                       N    
RDG04217000WATRL000000004K00000000000003334004401162015093317N000300000010U40       000410400K 10000000010000003315           
CUS0421700000104178347003         PLESS, SUSAN S      105 CHURCHWARDENS RD                    000N        CARE OF             
MTR04217000001000000000000000RA              24624521    007501010000010100000520000003NN  NNW 000                       N    
RDG04217000WATRL000000004K00000000000003814004501162015093417N000000000000U40       000600400K 10000000010000003801           
CUS0421700000104178348001         GRIFFIN, ANDREA G.  107 CHURCHWARDENS RD                    000N        CARE OF             
MTR04217000001000000000000000RA              01099486    005801020000010200000610000003NN  NNW 000                       N    
RDG04217000WATRL000000004K00000000000001636004601162015093518N000000000000U40       000610400K 10000000010000001570           
CUS0421700000104178349009         KHOUZAMI, CARIM V.  109 CHURCHWARDENS RD                    000N        CARE OF             
MTR04217000001000000000000000RA              30001361    007501030000010300000570000003NN  NNW 000                       N    
RDG04217000WATRL000000004K00000000000000835004701162015093549N000000000000U40       000310400K 10000000010000000791           
CUS0421700000104178350007         JULIE A SCHWAIT     111 CHURCHWARDENS RD                    000N        CARE OF             
MTR04217000001000000000000000RA              31346145    007501040000010400000520000003NN  NNW 000                       N    
RDG04217000WATRL000000004K00000000000002794004801162015093719N000000000000U40       000900400K 10000000010000002782           
CUS0421700000104178351005         SHAH, ASHISH        113 CHURCHWARDENS RD                    000N        CARE OF             
MTR04217000001000000000000000RA              39080784    007501050000010500000520000003NN  NNW 000                       N    
RDG04217000WATRL000000004K00000000000003164004901162015093740N000000000000U40       000210400K 10000000010000003147           
CUS0421700000104178352003         CRANSTON, ALAN G    115 CHURCHWARDENS RD                    000N        CARE OF             
MTR04217000001000000000000000RA              39080780    007501060000010600000520000003NN  NNW 000                       N    
RDG04217000WATRL000000004K00000000000005026005001162015093942N000400000051U40       000500400K 10000000010000005001           
CUS0421700000104178353001         WALSH, DENNIS       117 CHURCHWARDENS RD                    000N        CARE OF             
MTR04217000001000000000000000RA              30000370    007501070000010700000570000003NN  NNW 000                       N    
RDG04217000WATRL000000004K00000000000000540005101162015094051N000000000010U40       000690400K 10000000010000000529           
CUS0421700000104178354009         HAMBERRY, ELIZABETH 119 CHURCHWARDENS RD                    000N        CARE OF             
MTR04217000001000000000000000RA              25448439    007501080000010800000520000003NN  NNW 000                       N    
RDG04217000WATRL000000004K00000000000004813005201162015094359N000000000062U40       000130400K 10000000010000004799           
CUS0421700000104178355006         SIEGLEIN, WILLIAM K.201 CHURCHWARDENS RD                    000N        CARE OF             
MTR04217000001000000000000000RA              30519840    005801090000010900000520000003NN  NNW 000                       N    
RDG04217000WATRL000000004K00000000000003725005301162015094448N000000000020U40       000490400K 10000000010000003710           
CUS0421700000104178356004         SUMMERS, HARRY J.   203 CHURCHWARDENS RD                    000N        CARE OF             
MTR04217000001000000000000000RA              30519541    005801100000011000000520000003NN  NNW 000                       N    
RDG04217000WATRL000000004K00000000000004249005401162015094512N000000000030U40       000240400K 10000000010000004239           
CUS0421700000104178357002         ASKIN, FREDERICK B. 205 CHURCHWARDENS RD                    000N        CARE OF             
MTR04217000001000000000000000RA              27065148    007501110000011100000520000003NN  NNW 000                       N    
RDG04217000WATRL000000004K00000000000003658005501162015094527N000000000010U40       000150400K 10000000010000003648           
CUS0421700000104178358000         FISHER, MICHAEL ISAA207 CHURCHWARDENS RD                    000N        CARE OF             
MTR04217000001000000000000000RA              32903881    005801120000011200000520000003NN  NNW 000                       N    
RDG04217000WATRL000000004K00000000000003280005601162015094544N000000000010U40       000170400K 10000000010000003270           
CUS0421700000104178359008         TILDON, J TYSON     209 CHURCHWARDENS RD                    000N        CARE OF             
MTR04217000001000000000000000RA              99411837    007501130000011300000570000003NN  NNW 000                       N    
RDG04217000WATRL000000004K00000000000001040005701162015094552N000000000010U40       000080400K 10000000010000001033           
CUS0421700000104178360006         DRAKE JR., CHARLES W206 E NORTHERN PKWY                     000N        CARE OF             
MTR04217000001000000000000000RA              50790214    005801140000011400000520000003NN  NNW 000                       N    
RDG04217000WATRL000000004K00000000000001710005801162015094636N000000000010U40       000440400K 10000000010000001704           
CUS0421700000104178361004         SPOTTE, MICHAEL     204 E NORTHERN PKWY                     000N        CARE OF             
MTR04217000001000000000000000RA              28767051    007501150000011500000520000003NN  NNW 000                       N    
RDG04217000WATRL000000004K00000000000004939005901162015094711N000000000041U40       000110400K 10000000010000004931           
CUS0421700000104178362002         NORMAN B ROSEN & WF 202 E NORTHERN PKWY                     000N        CARE OF             
MTR04217000001000000000000000RA              70000077    001501160000011600000570000003NY  NNW 000                       N    
MTM0421700070000077    GATE IOCK                                                                                              
RDG04217000WATRL000000005K00000000000000000000000000000000000 000000000000U         000000500  10000000010000000229           
CUS0421700000104178363000         SALCMAN, DR. MICHAEL5501 ST ALBANS WAY                      000N        CARE OF             
