FHDNNNN029006775006775006775N                                                                                           020514
RHD04242000NN02720272000002720000000002720272000141NY027202720272000100050000000000000000000001    12022014NY020000 N         
CUS0424200000104234546002         EREGBU, MARGARITA V.1101 E NORTHERN PKWY                    000N        CARE OF             
MTR04242000001000000000000000RA              31583099    005800010000000100000520000003NN  NNW 000                       N    
RDG04242000WATRL000000004K00000000000002365000401172015075704N000000000000N40       003240400K 10000000010000002350           
CUS0424200000104234547000         TOWNES, DONZELLA    1103 E NORTHERN PKWY                    000N        CARE OF             
MTR04242000001000000000000000RA              31583101    005800020000000200000520000003NN  NNW 000                       N    
RDG04242000WATRL000000004K00000000000003241000501172015075705N000000000000N40       000010400K 10000000010000003231           
CUS0424200000104234548008         FEASTER, SR., MYRON 1105 E NORTHERN PKWY                    000N        CARE OF             
MTR04242000001000000000000000RA              25780294    005800030000000300000520000003NN  NNW 000                       N    
RDG04242000WATRL000000004K00000000000003238000601172015075737N000000000000N40       000320400K 10000000010000003207           
CUS0424200000104234549006         LEO ALLEN FONSECA   1107 E NORTHERN PKWY                    000N        CARE OF             
MTR04242000001000000000000000RA              31583098    005800040000000400000520000003NN  NNW 000                       N    
RDG04242000WATRL000000004K00000000000001571000701172015075741N000000000000N40       000040400K 10000000010000001566           
CUS0424200000104234550004         ROSS, ANTONINE L    1109 E NORTHERN PKWY                    000N        CARE OF             
MTR04242000001000000000000000RA              27265459    005800050000000500000520000003NN  NNW 000                       N    
RDG04242000WATRL000000004K00000000000003051000801172015075824N000000000000N40       000430400K 10000000010000003025           
CUS0424200000104234551002         BENSON, CATHERINE   1111 E NORTHERN PKWY                    000N        CARE OF             
MTR04242000001000000000000000RA              31583096    005800060000000600000520000003NN  NNW 000                       N    
RDG04242000WATRL000000004K00000000000001914000901172015075825N000000000000N40       000010400K 10000000010000001903           
CUS0424200000104234552000         COUPLIN, THEODORE M 1113 E NORTHERN PKWY                    000N        CARE OF             
MTR04242000001000000000000000RA              44176604    005800070000000700000520000003NN  NNW 000                       N    
RDG04242000WATRL000000004K00000000000001923001001172015075851N000000000000N40       000260400K 10000000010000001911           
CUS0424200000104234553008         WILLHIDE III, MARTIN1115 E NORTHERN PKWY                    000N        CARE OF             
MTR04242000001000000000000000RA              31583199    005800080000000800000520000003NN  NNW 000                       N    
RDG04242000WATRL000000004K00000000000002521001101172015075854N000000000000N40       000030400K 10000000010000002492           
CUS0424200000104234554006         HILL, TAVONE D      1117 E NORTHERN PKWY                    000N        CARE OF             
MTR04242000001000000000000000RA              35117578    005800090000000900000520000003NN  NNW 000                       N    
RDG04242000WATRL000000004K00000000000002092001201172015075954N000000000000N40       000600400K 10000000010000002065           
CUS0424200000104234555003         CHRIS J BURKE       1119 E NORTHERN PKWY                    000N        CARE OF             
MTR04242000001000000000000000RA              01081008    005800100000001000000610000003NN  NNW 000                       N    
RDG04242000WATRL000000004K00000000000000900001301172015075955N000000000000N40       000010400K 10000000010000000884           
CUS0424200000104234556001         DEBORAH DOCTOR-MARSH1121 E NORTHERN PKWY                    000N        CARE OF             
MTR04242000001000000000000000RA              99390948    005800110000001100000570000003NN  NNW 000                       N    
RDG04242000WATRL000000004K00000000000001611001401172015080038N000000000000N40       000430400K 10000000010000001585           
CUS0424200000104234557009         THOMPSON, DENNIS H  1123 E NORTHERN PKWY                    000N        CARE OF             
MTR04242000001000000000000000RA              99390943    005800120000001200000570000003NN  NNW 000                       N    
RDG04242000WATRL000000004K00000000000001019001501172015080040N000000000000N40       000020400K 10000000010000001002           
CUS0424200000104234558007         WELLS, WILLIE ANN   1125 E NORTHERN PKWY                    000N        CARE OF             
MTR04242000001000000000000000RA              33730652    005800130000001300000520000003NN  NNW 000                       N    
RDG04242000WATRL000000004K00000000000003334001601172015080156N000000000000N40       000760400K 10000000010000003320           
CUS0424200000104234559005         ELLIOTT, ERIC F     1127 E NORTHERN PKWY                    000N        CARE OF             
MTR04242000001000000000000000RA              27133164    005800140000001400000520000003NN  NNW 000                       N    
RDG04242000WATRL000000004K00000000000002563001701172015080158N000000000000N40       000020400K 10000000010000002558           
CUS0424200000104234560003         DONNA R GOODMAN     1129 E NORTHERN PKWY                    000N        CARE OF             
MTR04242000001000000000000000RA              45379976    005800150000001500000520000003NN  NNW 000                       N    
RDG04242000WATRL000000004K00000000000002621001801172015080308N000000000000N40       000700400K 10000000010000002597           
CUS0424200000104234561001         CATHERINE R HOWARD  1131 E NORTHERN PKWY                    000N        CARE OF             
MTR04242000001000000000000000RA              39923359    005800160000001600000520000003NN  NNW 000                       N    
RDG04242000WATRL000000004K00000000000001546001901172015080309N000000000000N40       000010400K 10000000010000001538           
CUS0424200000104234562009         MARCUS, KEVIN       1133 E NORTHERN PKWY                    000N        CARE OF             
MTR04242000001000000000000000RA              11331682    005800170000001700000570000003NN  NNW 000                       N    
RDG04242000WATRL000000004K00000000000002934002001172015080344N000000000000N40       000350400K 10000000010000002929           
CUS0424200000104234563007         JOHN A WHEELER & WF 1135 E NORTHERN PKWY                    000N        CARE OF             
MTR04242000001000000000000000RA              31583198    005800180000001800000520000003NN  NNW 000                       N    
RDG04242000WATRL000000004K00000000000002272002101172015080346N000000000000N40       000020400K 10000000010000002260           
CUS0424200000104234564005         PETERS, ELIZABETH J 1137 E NORTHERN PKWY                    000N        CARE OF             
MTR04242000001000000000000000RA              25780982    005800190000001900000520000003NN  NNW 000                       N    
RDG04242000WATRL000000004K00000000000001850013801172015090816N000000000000N40       000900400K 10000000010000001845           
CUS0424200000104234565002         GREENE, MICHAEL A   1139 E NORTHERN PKWY                    000N        CARE OF             
MTR04242000001000000000000000RA              41082354    005800200000002000000520000003NN  NNW 000                       N    
RDG04242000WATRL000000004K00000000000002390013901172015090819N000400000010N40       000030400K 10000000010000002389           
CUS0424200000104234566000         WILLIS JR., ALBERT L1141 E NORTHERN PKWY                    000N        CARE OF             
MTR04242000001000000000000000RA              99387070    005800210000002100000570000003NN  NNW 000                       N    
RDG04242000WATRL000000004K00000000000002248014001172015090839N000000000000N40       000200400K 10000000010000002204           
CUS0424200000104234567008         MURPHY, DARLENE U   1143 E NORTHERN PKWY                    000N        CARE OF             
MTR04242000001000000000000000RA              00126300    005800220000002200000570000003NN  NNW 000                       N    
RDG04242000WATRL000000004K00000000000001656014101172015090840N000000000000N40       000010400K 10000000010000001619           
CUS0424200000104234568006         ALICE J SMITH       1145 E NORTHERN PKWY                    000N        CARE OF             
MTR04242000001000000000000000RA              33730411    005800230000002300000520000003NN  NNW 000                       N    
RDG04242000WATRL000000004K00000000000002929014201172015090951N000000000000N40       000710400K 10000000010000002913           
CUS0424200000104234569004         PERDUE, MARGARETE   1147 E NORTHERN PKWY                    000N        CARE OF             
MTR04242000001000000000000000RA              33730412    005800240000002400000520000003NN  NNW 000                       N    
RDG04242000WATRL000000004K00000000000004163014301172015090954N000000000000N40       000030400K 10000000010000004143           
CUS0424200000104234570002         BRATCHER, PAULETTA L1149 E NORTHERN PKWY                    000N        CARE OF             
MTR04242000001000000000000000RA              33077831    005800250000002500000520000003NN  NNW 000                       N    
RDG04242000WATRL000000004K00000000000001977014401172015091052N000000000000N40       000580400K 10000000010000001963           
CUS0424200000104234571000         HALL, KAREN M.      1151 E NORTHERN PKWY                    000N        CARE OF             
MTR04242000001000000000000000RA              23842042    005800260000002600000520000003NN  NNW 000                       N    
RDG04242000WATRL000000004K00000000000003724014501172015091053N000000000000N40       000010400K 10000000010000003703           
CUS0424200000104234572008         GRENZER JR, WILLIAM 1153 E NORTHERN PKWY                    000N        CARE OF             
MTR04242000001000000000000000RA              31583201    005800270000002700000520000003NN  NNW 000                       N    
RDG04242000WATRL000000004K00000000000002792014601172015091125N000000000000N40       000320400K 10000000010000002784           
CUS0424200000104234573006         4546 MARBLE HILL ROA1155 E NORTHERN PKWY                    000N        CARE OF             
MTR04242000001000000000000000RA              14901363    005800280000002800000310000003NN  NNW 000                       N    
RDG04242000WATRL000000004K00000000000001254014701172015091129N000300000010N40       000040400K 10000000010000001246           
CUS0424200000104234574004         FERGUSON, PECOLIA   1157 E NORTHERN PKWY                    000N        CARE OF             
MTR04242000001000000000000000RA              26012662    005800290000002900000520000003NN  NNW 000                       N    
RDG04242000WATRL000000004K00000000000004206014801172015091200N000000000000N40       000310400K 10000000010000004181           
CUS0424200000104234575001         JORDAN, DENEEN L    1159 E NORTHERN PKWY                    000N        CARE OF             
MTR04242000001000000000000000RA              26012590    005800300000003000000520000003NN  NNW 000                       N    
RDG04242000WATRL000000004K00000000000003760014901172015091203N000000000000N40       000030400K 10000000010000003755           
CUS0424200000104234576009         GROSS, ANGELA DENISE1161 E NORTHERN PKWY                    000N        CARE OF             
MTR04242000001000000000000000RA              31583154    005800310000003100000520000003NN  NNW 000                       N    
RDG04242000WATRL000000004K00000000000002914015001172015091311N000000000000N40       000680400K 10000000010000002902           
CUS0424200000104234577007         MELLERT, ERNST R    1163 E NORTHERN PKWY                    000N        CARE OF             
MTR04242000001000000000000000RA              25780980    005800320000003200000520000003NN  NNW 000                       N    
RDG04242000WATRL000000004K00000000000003734015101172015091313N000000000000N40       000020400K 10000000010000003720           
CUS0424200000104234578005         SDNY LLC            1165 E NORTHERN PKWY                    000N        CARE OF             
MTR04242000001000000000000000RA              99387241    005800330000003300000570000003NN  NNW 000   VACANT PROPERTY     N    
RDG04242000WATRL000000004K00000000000001707015201172015091348N000000000000N40       000350400K 10000000010000001707           
CUS0424200000104234579003         ST. ROSE, CHERIE D. 1167 E NORTHERN PKWY                    000N        CARE OF             
MTR04242000001000000000000000RA              31583153    005800340000003400000520000003NN  NNW 000                       N    
RDG04242000WATRL000000004K00000000000003648015301172015091351N000000000000N40       000030400K 10000000010000003608           
CUS0424200000104234580001         GASQUE JR., JAMES   1169 E NORTHERN PKWY                    000N        CARE OF             
MTR04242000001000000000000000RA              99387245    005800350000003500000570000003NN  NNW 000                       N    
RDG04242000WATRL000000004K00000000000001281015401172015091430N000000000000N40       000390400K 10000000010000001268           
CUS0424200000104234581009         MOORE, MICHAEL W    1171 E NORTHERN PKWY                    000N        CARE OF             
MTR04242000001000000000000000RA              99387243    005800360000003600000570000003NN  NNW 000                       N    
RDG04242000WATRL000000004K00000000000001092015501172015091431N000000000000N40       000010400K 10000000010000001076           
CUS0424200000104234582007         WATERS JR, MALCAR   1173 E NORTHERN PKWY                    000N        CARE OF             
MTR04242000001000000000000000RA              10003604    005800370000003700000570000003NN  NNW 000                       N    
RDG04242000WATRL000000004K00000000000000492015601172015091518N000000000000N40       000470400K 10000000010000000468           
CUS0424200000104234583005         CHARLES, RACHEL L   1175 E NORTHERN PKWY                    000N        CARE OF             
MTR04242000001000000000000000RA              23057059    005800380000003800000520000003NN  NNW 000                       N    
RDG04242000WATRL000000004K00000000000002759015701172015091520N000000000000N40       000020400K 10000000010000002749           
CUS0424200000104234584003         RICHARD LEWIS       1177 E NORTHERN PKWY                    000N        CARE OF             
MTR04242000001000000000000000RA              33730405    005800390000003900000520000003NN  NNW 000                       N    
RDG04242000WATRL000000004K00000000000002801015801172015091541N000000000000N40       000210400K 10000000010000002795           
CUS0424200000104234585000         ARMSTRONG, FELTON C 1179 E NORTHERN PKWY                    000N        CARE OF             
MTR04242000001000000000000000RA              33730406    005800400000004000000520000003NN  NNW 000                       N    
RDG04242000WATRL000000004K00000000000002616015901172015091543N000000000000N40       000020400K 10000000010000002605           
CUS0424200000104234586008         BANKS, MANICE P     1181 E NORTHERN PKWY                    000N        CARE OF             
MTR04242000001000000000000000RA              27831653    005800410000004100000520000003NN  NNW 000                       N    
RDG04242000WATRL000000004K00000000000003513016001172015091607N000000000000N40       000240400K 10000000010000003506           
CUS0424200000104234587006         SIMPSON, CHRISTOPHER6016 THE ALAMEDA                        000N        CARE OF             
MTR04242000001000000000000000RA              01111140    005800420000004200000610000003NN  NNW 000   VACANT PROPERTY     N    
RDG04242000WATRL000000004K00000000000000600016101172015091613N000000000000N40       000060400K 10000000010000000600           
CUS0424200000104234588004         GREEN, ANNA M       6014 THE ALAMEDA                        000N        CARE OF             
MTR04242000001000000000000000RA              01111137    005800430000004300000610000003NN  NNW 000                       N    
RDG04242000WATRL000000004K00000000000000864016201172015091716N000000000000N40       000630400K 10000000010000000855           
CUS0424200000104234589002         ROBERT F JENKINS & W6012 THE ALAMEDA                        000N        CARE OF             
MTR04242000001000000000000000RA              31582844    005800440000004400000520000003NN  NNW 000                       N    
RDG04242000WATRL000000004K00000000000000735016301172015091751N000000000000N40       000350400K 10000000010000000731           
CUS0424200000104234590000         BSM APROPERTIES, LLC6010 THE ALAMEDA                        000N        CARE OF             
MTR04242000001000000000000000RA              31582845    005800450000004500000520000003NN  NNW 000                       N    
RDG04242000WATRL000000004K00000000000001770016401172015091755N000300000010N40       000040400K 10000000010000001741           
CUS0424200000104234591008         SMITH, PEGGY L      6008 THE ALAMEDA                        000N        CARE OF             
MTR04242000001000000000000000RA              26003372    005800460000004600000520000003NN  NNW 000                       N    
RDG04242000WATRL000000004K00000000000002918016501172015091829N000000000000N40       000340400K 10000000010000002902           
CUS0424200000104234592006         BROWN, MARCIA M.    6006 THE ALAMEDA                        000N        CARE OF             
MTR04242000001000000000000000RA              24224011    005800470000004700000520000003NN  NNW 000                       N    
RDG04242000WATRL000000004K00000000000003665016601172015091830N000000000000N40       000010400K 10000000010000003654           
CUS0424200000104234593004         HENRY, ROLIN        6004 THE ALAMEDA                        000N        CARE OF             
MTR04242000001000000000000000RA              31582847    005800480000004800000520000003NN  NNW 000                       N    
RDG04242000WATRL000000004K00000000000001530016701172015091910N000000000000N40       000400400K 10000000010000001521           
CUS0424200000104234594002         6002 THE ALAMEDA, LL6002 THE ALAMEDA                        000N        CARE OF             
MTR04242000001000000000000000RA              31582849    005800490000004900000520000003NN  NNW 000                       N    
RDG04242000WATRL000000004K00000000000001657016801172015091941N000000000000N40       000310400K 10000000010000001646           
CUS0424200000104234595009         WINGATE, LYNDA L    6000 THE ALAMEDA                        000N        CARE OF             
MTR04242000001000000000000000RA              31582846    005800500000005000000520000003NN  NNW 000                       N    
RDG04242000WATRL000000004K00000000000002780016901172015091944N000000000000N40       000030400K 10000000010000002751           
CUS0424200000104234596007         CROSBY, HARRY B     1164 SHERWOOD AVE                       000N        CARE OF             
MTR04242000001000000000000000RA              23647880    005800510000005100000520000003NN  NNW 000                       N    
RDG04242000WATRL000000004K00000000000004034012101172015090140N000000000000N40       000340400K 10000000010000004023           
CUS0424200000104234597005         WRIGHT, IAN D       1162 SHERWOOD AVE                       000N        CARE OF             
MTR04242000001000000000000000RA              14915524    005800520000005200000310000003NN  NNW 000                       N    
RDG04242000WATRL000000004K00000000000000413012201172015090142N000000000000N40       000020400K 10000000010000000399           
CUS0424200000104234598003         WILLIAMS, GAY C.    1160 SHERWOOD AVE                       000N        CARE OF             
MTR04242000001000000000000000RA              10022186    005800530000005300000570000003NN  NNW 000                       N    
RDG04242000WATRL000000004K00000000000000408012301172015090159N000000000000N40       000170400K 10000000010000000394           
CUS0424200000104234599001         KENNETH M MAXWELL & 1158 SHERWOOD AVE                       000N        CARE OF             
MTR04242000001000000000000000RA              01112168    005800540000005400000610000003NN  NNW 000                       N    
RDG04242000WATRL000000004K00000000000001661012401172015090217N000000000000N40       000180400K 10000000010000001627           
CUS0424200000104234600007         BELL, GLADYS A      1156 SHERWOOD AVE                       000N        CARE OF             
MTR04242000001000000000000000RA              01112854    005800550000005500000610000003NN  NNW 000                       N    
RDG04242000WATRL000000004K00000000000000306012501172015090218N000000000000N40       000010400K 10000000010000000257           
CUS0424200000104234601005         CURTIS WASHINGTON & 1154 SHERWOOD AVE                       000N        CARE OF             
MTR04242000001000000000000000RA              31582287    005800560000005600000520000003NN  NNW 000                       N    
RDG04242000WATRL000000004K00000000000003013012601172015090247N000000000000N40       000290400K 10000000010000002996           
CUS0424200000104234602003         WILSON, SYLVESTER   1152 SHERWOOD AVE                       000N        CARE OF             
MTR04242000001000000000000000RA              31582288    005800570000005700000520000003NN  NNW 000                       N    
RDG04242000WATRL000000004K00000000000002617012701172015090312N000000000000N40       000250400K 10000000010000002617           
CUS0424200000104234603001         DANIEL WASHINGTON & 1150 SHERWOOD AVE                       000N        CARE OF             
MTR04242000001000000000000000RA              31582291    005800580000005800000520000003NN  NNW 000                       N    
RDG04242000WATRL000000004K00000000000002219012801172015090313N000000000000N40       000010400K 10000000010000002208           
CUS0424200000104234604009         ROBERTS SR., FURMAN 1148 SHERWOOD AVE                       000N        CARE OF             
MTR04242000001000000000000000RA              31582289    005800590000005900000520000003NN  NNW 000                       N    
RDG04242000WATRL000000004K00000000000003820012901172015090334N000000000000N40       000210400K 10000000010000003793           
CUS0424200000104234605006         FITZGERALD, MILES   1146 SHERWOOD AVE                       000N        CARE OF             
MTR04242000001000000000000000RA              31582290    005800600000006000000520000003NN  NNW 000                       N    
RDG04242000WATRL000000004K00000000000002498013001172015090352N000000000000N40       000180400K 10000000010000002474           
CUS0424200000104234606004         PHYLLIS POTTILLO    1144 SHERWOOD AVE                       000N        CARE OF             
MTR04242000001000000000000000RA              31582286    005800610000006100000520000003NN  NNW 000                       N    
RDG04242000WATRL000000004K00000000000003587013101172015090413N000000000000N40       000210400K 10000000010000003574           
CUS0424200000104234607002         NEFZGER, MARIA C    1142 SHERWOOD AVE                       000N        CARE OF             
MTR04242000001000000000000000RA              41087262    005800620000006200000520000003NN  NNW 000                       N    
RDG04242000WATRL000000004K00000000000001022013201172015090450N000000000000N40       000370400K 10000000010000001015           
CUS0424200000104234608000         CYNTHIA A JOHNSON-DO1140 SHERWOOD AVE                       000N        CARE OF             
MTR04242000001000000000000000RA              01114568    005800630000006300000610000003NN  NNW 000                       N    
RDG04242000WATRL000000004K00000000000000359013301172015090520N000000000000N40       000300400K 10000000010000000341           
CUS0424200000104234609008         EADDY, TONIA R.     1138 SHERWOOD AVE                       000N        CARE OF             
MTR04242000001000000000000000RA              31582330    005800640000006400000520000003NN  NNW 000                       N    
RDG04242000WATRL000000004K00000000000001727013401172015090522N000000000000N40       000020400K 10000000010000001715           
CUS0424200000104234610006         MILES, PEGGY L      1136 SHERWOOD AVE                       000N        CARE OF             
MTR04242000001000000000000000RA              10022389    005800650000006500000570000003NN  NNW 000                       N    
RDG04242000WATRL000000004K00000000000000064013501172015090551N000000000000N40       000290400K 10000000010000000058           
CUS0424200000104234611004         DEBRA CLARK-BURNSIDE1134 SHERWOOD AVE                       000N        CARE OF             
MTR04242000001000000000000000RA              33730271    005800660000006600000520000003NN  NNW 000                       N    
RDG04242000WATRL000000004K00000000000001524013601172015090612N000000000000N40       000210400K 10000000010000001503           
CUS0424200000104234612002         INDIA L. MURRAY     1132 SHERWOOD AVE                       000N        CARE OF             
MTR04242000001000000000000000RA              27813898    005800670000006700000520000003NN  NNW 000                       N    
RDG04242000WATRL000000004K00000000000002731013701172015090646N000000000000N40       000340400K 10000000010000002716           
CUS0424200000104234613000         BROOKS JR., GEORGE C1130 SHERWOOD AVE                       000N        CARE OF             
MTR04242000001000000000000000RA              26008530    005800680000006800000520000003NN  NNW 000                       N    
RDG04242000WATRL000000004K00000000000003734002201172015080527N000000000000N40       001010400K 10000000010000003711           
CUS0424200000104234614008         LORICK, RACHEL M.   1128 SHERWOOD AVE                       000N        CARE OF             
MTR04242000001000000000000000RA              27828019    005800690000006900000520000003NN  NNW 000                       N    
RDG04242000WATRL000000004K00000000000002700002301172015080529N000000000000N40       000020400K 10000000010000002694           
CUS0424200000104234615005         BRISCOE, TAMARA A.  1126 SHERWOOD AVE                       000N        CARE OF             
MTR04242000001000000000000000RA              24757941    005800700000007000000520000003NN  NNW 000                       N    
RDG04242000WATRL000000004K00000000000002796002401172015080559N000000000000N40       000300400K 10000000010000002787           
CUS0424200000104234616003         HARLEE, DENNIS E.   1124 SHERWOOD AVE                       000N        CARE OF             
MTR04242000001000000000000000RA              99387251    005800710000007100000570000003NN  NNW 000                       N    
RDG04242000WATRL000000004K00000000000000961002501172015080749N000000000000N40       001100400K 10000000010000000953           
CUS0424200000104234617001         FITTS, LETICIA A.   1122 SHERWOOD AVE                       000N        CARE OF             
MTR04242000001000000000000000RA              23050000    005800720000007200000520000003NN  NNW 000                       N    
RDG04242000WATRL000000004K00000000000004538002601172015080751N000000000000N40       000020400K 10000000010000004529           
CUS0424200000104234618009         BESSIE D BROWN      1120 SHERWOOD AVE                       000N        CARE OF             
MTR04242000001000000000000000RA              23842354    005800730000007300000520000003NN  NNW 000                       N    
RDG04242000WATRL000000004K00000000000000048002701172015080946N000000000000N40       001150400K 10000000010000000043           
CUS0424200000104234619007         CARR, BETTYE A      1118 SHERWOOD AVE                       000N        CARE OF             
MTR04242000001000000000000000RA              20968843    005800740000007400000520000003NN  NNW 000                       N    
RDG04242000WATRL000000004K00000000000003278002801172015080952N000400000010N40       000060400K 10000000010000003266           
CUS0424200000104234620005         BEARD, LYVERNE      1116 SHERWOOD AVE                       000N        CARE OF             
MTR04242000001000000000000000RA              29402475    005800750000007500000520000003NN  NNW 000                       N    
RDG04242000WATRL000000004K00000000000002108002901172015081059N000300000010N40       000670400K 10000000010000002070           
CUS0424200000104234621003         JOHN L CHERIGO      1114 SHERWOOD AVE                       000N        CARE OF             
MTR04242000001000000000000000RA              29680648    005800760000007600000520000003NN  NNW 000                       N    
RDG04242000WATRL000000004K00000000000002207003001172015081101N000000000000N40       000020400K 10000000010000002193           
CUS0424200000104234622001         DENNIS, MICHAEL A.  1112 SHERWOOD AVE                       000N        CARE OF             
MTR04242000001000000000000000RA              31583163    005800770000007700000520000003NN  NNW 000                       N    
RDG04242000WATRL000000004K00000000000002828003101172015081221N000000000000N40       000800400K 10000000010000002808           
CUS0424200000104234623009         DENNIS, MICHAEL ANTO1110 SHERWOOD AVE                       000N        CARE OF             
MTR04242000001000000000000000RA              33730368    005800780000007800000520000003NN  NNW 000                       N    
RDG04242000WATRL000000004K00000000000002762003201172015081223N000000000000N40       000020400K 10000000010000002744           
CUS0424200000104234624007         LORISA L STEWART    1108 SHERWOOD AVE                       000N        CARE OF             
MTR04242000001000000000000000RA              23647176    005800790000007900000520000003NN  NNW 000                       N    
RDG04242000WATRL000000004K00000000000003152003301172015081312N000000000010N40       000490400K 10000000010000003146           
CUS0424200000104234625004         PIERCE, MELVIN V    1106 SHERWOOD AVE                       000N        CARE OF             
MTR04242000001000000000000000RA              29082592    005800800000008000000520000003NN  NNW 000                       N    
RDG04242000WATRL000000004K00000000000001296003401172015081314N000000000000N40       000020400K 10000000010000001260           
CUS0424200000104234626002         DONNA WILLIAMS      1104 SHERWOOD AVE                       000N        CARE OF             
MTR04242000001000000000000000RA              26005721    005800810000008100000520000003NN  NNW 000                       N    
RDG04242000WATRL000000004K00000000000003028003501172015081424N000000000000N40       000700400K 10000000010000003019           
CUS0424200000104234627000         POLLOCK JR., MARVIS 1102 SHERWOOD AVE                       000N        CARE OF             
MTR04242000001000000000000000RA              27813850    005800820000008200000520000003NN  NNW 000                       N    
RDG04242000WATRL000000004K00000000000001470003601172015081823N000000000000N40       002390400K 10000000010000001461           
CUS0424200000104234628008         JOHNSON, NICKETTA M.1100 SHERWOOD AVE                       000N        CARE OF             
MTR04242000001000000000000000RA              27813879    005800830000008300000520000003NN  NNW 000                       N    
RDG04242000WATRL000000004K00000000000003372003701172015081828N000400000010N40       000050400K 10000000010000003369           
CUS0424200000104234629006         RIDGEWAY, ANITA     1101 SHERWOOD AVE                       000N        CARE OF             
MTR04242000001000000000000000RA              26010326    005800840000008400000520000003NN  NNW 000                       N    
RDG04242000WATRL000000004K00000000000002425003801172015082347N000000000000N40       003190400K 10000000010000002417           
CUS0424200000104234630004         TOUGJAS, HOLLA (LIFE1103 SHERWOOD AVE                       000N        CARE OF             
MTR04242000001000000000000000RA              27823004    005800850000008500000520000003NN  NNW 000                       N    
RDG04242000WATRL000000004K00000000000001344003901172015082349N000000000000N40       000020400K 10000000010000001312           
CUS0424200000104234631002         ANDERSON, RONALD J  1105 SHERWOOD AVE                       000N        CARE OF             
MTR04242000001000000000000000RA              10019799    005800860000008600000570000003NN  NNW 000                       N    
RDG04242000WATRL000000004K00000000000000288004001172015082427N000400000010N40       000380400K 10000000010000000277           
CUS0424200000104234632000         SORRELL, CYNTHIA A. 1107 SHERWOOD AVE                       000N        CARE OF             
MTR04242000001000000000000000RA              26010538    005800870000008700000520000003NN  NNW 000                       N    
RDG04242000WATRL000000004K00000000000002595004101172015082454N000000000000N40       000270400K 10000000010000002579           
CUS0424200000104234633008         JACKSON, JOHN FRANK 1109 SHERWOOD AVE                       000N        CARE OF             
MTR04242000001000000000000000RA              22607467    005800880000008800000520000003NN  NNW 000                       N    
RDG04242000WATRL000000004K00000000000002098004201172015082455N000000000000N40       000010400K 10000000010000002074           
CUS0424200000104234634006         BOSWELL, SHANNON D  1111 SHERWOOD AVE                       000N        CARE OF             
MTR04242000001000000000000000RA              24758932    005800890000008900000520000003NN  NNW 000                       N    
RDG04242000WATRL000000004K00000000000003340004301172015082557N000000000000N40       000620400K 10000000010000003331           
CUS0424200000104234635003         JOYCELN A SMALL     1113 SHERWOOD AVE                       000N        CARE OF             
MTR04242000001000000000000000RA              24230591    005800900000009000000520000003NN  NNW 000                       N    
RDG04242000WATRL000000004K00000000000004487004401172015082559N000000000000N40       000020400K 10000000010000004465           
CUS0424200000104234636001         WATERS, FANNIE      1115 SHERWOOD AVE                       000N        CARE OF             
MTR04242000001000000000000000RA              33730267    005800910000009100000520000003NN  NNW 000                       N    
RDG04242000WATRL000000004K00000000000001939004501172015082626N000000000000N40       000270400K 10000000010000001919           
CUS0424200000104234637009         CARR, MARILYN R (TR)1117 SHERWOOD AVE                       000N        CARE OF             
MTR04242000001000000000000000RA              00126500    005800920000009200000570000003NN  NNW 000                       N    
RDG04242000WATRL000000004K00000000000000452004601172015082646N000000000000N40       000200400K 10000000010000000446           
CUS0424200000104234638007         BOLLING, DEBRA C    1119 SHERWOOD AVE                       000N        CARE OF             
MTR04242000001000000000000000RA              00126293    005800930000009300000570000003NN  NNW 000                       N    
RDG04242000WATRL000000004K00000000000001317004701172015082647N000000000000N40       000010400K 10000000010000001311           
CUS0424200000104234639005         NICHOLS II, WAYNE A.1121 SHERWOOD AVE                       000N        CARE OF             
MTR04242000001000000000000000RA              26002445    005800940000009400000520000003NN  NNW 000                       N    
RDG04242000WATRL000000004K00000000000002073004801172015082736N000000000000N40       000490400K 10000000010000002067           
CUS0424200000104234640003         DENNIS SPENCER & WF 1123 SHERWOOD AVE                       000N        CARE OF             
MTR04242000001000000000000000RA              26008408    005800950000009500000520000003NN  NNW 000                       N    
RDG04242000WATRL000000004K00000000000003628004901172015082741N000000000000N40       000050400K 10000000010000003619           
CUS0424200000104234641001         NOVAK, RICHARD A.   1125 SHERWOOD AVE                       000N        CARE OF             
MTR04242000001000000000000000RA              29402232    005800960000009600000520000003NN  NNW 000                       N    
RDG04242000WATRL000000004K00000000000002025005001172015082824N000000000000N40       000430400K 10000000010000002019           
CUS0424200000104234642009         MARY WILLIAMS LANGLE1127 SHERWOOD AVE                       000N        CARE OF             
MTR04242000001000000000000000RA              01099247    005800970000009700000610000003NN  NNW 000                       N    
RDG04242000WATRL000000004K00000000000000711005101172015082858N000000000000N40       000340400K 10000000010000000701           
CUS0424200000104234643007         WILSON, TODD C.     1129 SHERWOOD AVE                       000N        CARE OF             
MTR04242000001000000000000000RA              31582328    005800980000009800000520000003NN  NNW 000                       N    
RDG04242000WATRL000000004K00000000000002459005201172015082941N000000000000N40       000430400K 10000000010000002443           
CUS0424200000104234644005         SPENCE, SR., TROY W.1131 SHERWOOD AVE                       000N        CARE OF             
MTR04242000001000000000000000RA              11430500    005800990000009900000570000003NN  NNW 000                       N    
RDG04242000WATRL000000004K00000000000004091010401172015085411N000000000000N40       000790400K 10000000010000004059           
CUS0424200000104234645002         DANGNOKHO, NATASHA  1133 SHERWOOD AVE                       000N        CARE OF             
MTR04242000001000000000000000RA              25780220    005801000000010000000520000003NN  NNW 000                       N    
RDG04242000WATRL000000004K00000000000002919010501172015085413N000000000000N40       000020400K 10000000010000002889           
CUS0424200000104234646000         STONE PONY, LLC     1135 SHERWOOD AVE                       000N        CARE OF             
MTR04242000001000000000000000RA              23647811    005801010000010100000520000003NN  NNW 000                       N    
RDG04242000WATRL000000004K00000000000003043010601172015085445N000000000000N40       000320400K 10000000010000003017           
CUS0424200000104234647008         JOHNSON, WAYNE      1137 SHERWOOD AVE                       000N        CARE OF             
MTR04242000001000000000000000RA              23647826    005801020000010200000520000003NN  NNW 000                       N    
RDG04242000WATRL000000004K00000000000003150010701172015085513N000000000000N40       000280400K 10000000010000003127           
CUS0424200000104234648006         STEPHANIE D JAMES   1139 SHERWOOD AVE                       000N        CARE OF             
MTR04242000001000000000000000RA              31582332    005801030000010300000520000003NN  NNW 000                       N    
RDG04242000WATRL000000004K00000000000003124010801172015085515N000000000000N40       000020400K 10000000010000003104           
CUS0424200000104234649004         PAIGE, MARK A.      1141 SHERWOOD AVE                       000N        CARE OF             
MTR04242000001000000000000000RA              29679078    005801040000010400000520000003NN  NNW 000   VACANT PROPERTY     N    
RDG04242000WATRL000000004K00000000000003522010901172015085519N000000000000N40       000040400K 10000000010000003522           
CUS0424200000104234650002         PEOPLES, ARLINDA D  1143 SHERWOOD AVE                       000N        CARE OF             
MTR04242000001000000000000000RA              38985966    005801050000010500000520000003NN  NNW 000                       N    
RDG04242000WATRL000000004K00000000000002559011001172015085714N000000000000N40       001150400K 10000000010000002552           
CUS0424200000104234651000         SHERMAN, SETH       1145 SHERWOOD AVE                       000N        CARE OF             
MTR04242000001000000000000000RA              23647892    005801060000010600000520000003NN  NNW 000                       N    
RDG04242000WATRL000000004K00000000000004135011101172015085741N000000000000N40       000270400K 10000000010000004123           
CUS0424200000104234652008         ROBERTA BRANCH      1147 SHERWOOD AVE                       000N        CARE OF             
MTR04242000001000000000000000RA              33730268    005801070000010700000520000003NN  NNW 000                       N    
RDG04242000WATRL000000004K00000000000003143011201172015085743N000000000000N40       000020400K 10000000010000003122           
CUS0424200000104234653006         WILLIAMS, ANTOINETTE1149 SHERWOOD AVE                       000N        CARE OF             
MTR04242000001000000000000000RA              33730371    005801080000010800000520000003NN  NNW 000                       N    
RDG04242000WATRL000000004K00000000000002008011301172015085834N000000000000N40       000510400K 10000000010000001990           
CUS0424200000104234654004         DUDLEY, CLARENCE H  1151 SHERWOOD AVE                       000N        CARE OF             
MTR04242000001000000000000000RA              33730270    005801090000010900000520000003NN  NNW 000                       N    
RDG04242000WATRL000000004K00000000000002657011401172015085836N000000000000N40       000020400K 10000000010000002640           
CUS0424200000104234655001         WILFORD L WALKER & W1153 SHERWOOD AVE                       000N        CARE OF             
MTR04242000001000000000000000RA              33730266    005801100000011000000520000003NN  NNW 000                       N    
RDG04242000WATRL000000004K00000000000002477011501172015085957N000000000000N40       000810400K 10000000010000002466           
CUS0424200000104234656009         THOMPSON, SHARON R. 1155 SHERWOOD AVE                       000N        CARE OF             
MTR04242000001000000000000000RA              41259992    005801110000011100000520000003NN  NNW 000                       N    
RDG04242000WATRL000000004K00000000000001015011601172015085958N000000000000N40       000010400K 10000000010000001007           
CUS0424200000104234657007         GILMORE, DORCAS R.  1157 SHERWOOD AVE                       000N        CARE OF             
MTR04242000001000000000000000RA              75613616    005801120000011200000350000003NN  NNW 000                       N    
RDG04242000WATRL000000004K00000000000000061011701172015090024N000000000000N40       000260400K 10000000010000000050           
CUS0424200000104234658005         WOODARD, CORNELL    1159 SHERWOOD AVE                       000N        CARE OF             
MTR04242000001000000000000000RA              01093867    005801130000011300000610000003NN  NNW 000                       N    
RDG04242000WATRL000000004K00000000000001292011801172015090027N000000000000N40       000030400K 10000000010000001281           
CUS0424200000104234659003         BECK SR., TYRONE S  1161 SHERWOOD AVE                       000N        CARE OF             
MTR04242000001000000000000000RA              27825338    005801140000011400000520000003NN  NNW 000                       N    
RDG04242000WATRL000000004K00000000000004356011901172015090104N000000000000N40       000370400K 10000000010000004329           
CUS0424200000104234660001         RATHER, KEVIN T     1163 SHERWOOD AVE                       000N        CARE OF             
MTR04242000001000000000000000RA              01093434    005801150000011500000610000003NN  NNW 000                       N    
RDG04242000WATRL000000004K00000000000001208012001172015090106N000000000000N40       000020400K 10000000010000001192           
CUS0424200000104234661009         COOK, DEXTER E      5938 THE ALAMEDA                        000N        CARE OF             
MTR04242000001000000000000000RA              27133472    005801160000011600000520000003NN  NNW 000                       N    
RDG04242000WATRL000000004K00000000000004741017001172015092057N000000000000N40       000730400K 10000000010000004719           
CUS0424200000104234662007         SKINNER, ANNA MAE   5936 THE ALAMEDA                        000N        CARE OF             
MTR04242000001000000000000000RA              27133470    005801170000011700000520000003NN  NNW 000                       N    
RDG04242000WATRL000000004K00000000000002853017101172015092058N000000000000N40       000010400K 10000000010000002836           
CUS0424200000104234663005         WYATT, ROBERT L     5934 THE ALAMEDA                        000N        CARE OF             
MTR04242000001000000000000000RA              10019725    005801180000011800000570000003NN  NNW 000                       N    
RDG04242000WATRL000000004K00000000000000149017201172015092128N000000000000N40       000300400K 10000000010000000134           
CUS0424200000104234664003         EPPS, JACQUELINE    5932 THE ALAMEDA                        000N        CARE OF             
MTR04242000001000000000000000RA              01104372    005801190000011900000610000003NN  NNW 000                       N    
RDG04242000WATRL000000004K00000000000000445017301172015092129N000000000000N40       000010400K 10000000010000000423           
CUS0424200000104234665000         ALDRIDGE, DONNA M.  5930 THE ALAMEDA                        000N        CARE OF             
MTR04242000001000000000000000RA              01115628    005801200000012000000610000003NN  NNW 000                       N    
RDG04242000WATRL000000004K00000000000000899017401172015092203N000000000000N40       000340400K 10000000010000000877           
CUS0424200000104234666008         CORLEY, FELICIA A.  5928 THE ALAMEDA                        000N        CARE OF             
MTR04242000001000000000000000RA              01115628    005801210000012100000610000003NN  NNW 000                       N    
RDG04242000WATRL000000004K00000000000000651017501172015092208N000400000010N40       000050400K 10000000010000000644           
CUS0424200000104234667006         TAYLOR, ROBERT M    5926 THE ALAMEDA                        000N        CARE OF             
MTR04242000001000000000000000RA              31582848    005801220000012200000520000003NN  NNW 000                       N    
RDG04242000WATRL000000004K00000000000002921017601172015092256N000000000000N40       000480400K 10000000010000002917           
CUS0424200000104234668004         JAY SERVICES, LLC   5924 THE ALAMEDA                        000N        CARE OF             
MTR04242000001000000000000000RA              31583088    005801230000012300000520000003NN  NNW 000                       N    
RDG04242000WATRL000000004K00000000000001195017701172015092331N000000000000N40       000350400K 10000000010000001181           
CUS0424200000104234669002         STONE-EL, ZANDRA    5922 THE ALAMEDA                        000N        CARE OF             
MTR04242000001000000000000000RA              31583085    005801240000012400000520000003NN  NNW 000                       N    
RDG04242000WATRL000000004K00000000000002586017801172015092332N000000000000N40       000010400K 10000000010000002568           
CUS0424200000104234670000         MCNEIL, DEBBIE A.   1152 ELBANK AVE                         000N        CARE OF             
MTR04242000001000000000000000RA              27833787    005801250000012500000520000003NN  NNW 000                       N    
RDG04242000WATRL000000004K00000000000002259009101172015084804N000000000000N40       001050400K 10000000010000002254           
CUS0424200000104234671008         BLUE HILL INVESTMENT1150 ELBANK AVE                         000N        CARE OF             
MTR04242000001000000000000000RA              31582894    005801260000012600000520000003NN  NNW 000                       N    
RDG04242000WATRL000000004K00000000000002551009201172015084806N000000000000N40       000020400K 10000000010000002536           
CUS0424200000104234672006         VANN, TONYA C.      1148 ELBANK AVE                         000N        CARE OF             
MTR04242000001000000000000000RA              26001168    005801270000012700000520000003NN  NNW 000                       N    
RDG04242000WATRL000000004K00000000000002879009301172015084829N000000000000N40       000230400K 10000000010000002865           
CUS0424200000104234673004         BANKS, NAKIA O.     1146 ELBANK AVE                         000N        CARE OF             
MTR04242000001000000000000000RA              23647868    005801280000012800000520000003NN  NNW 000                       N    
RDG04242000WATRL000000004K00000000000002764009401172015084912N000000000000N40       000430400K 10000000010000002760           
CUS0424200000104234674002         GARRISON, KAREEM    1144 ELBANK AVE                         000N        CARE OF             
MTR04242000001000000000000000RA              31582895    005801290000012900000520000003NN  NNW 000                       N    
RDG04242000WATRL000000004K00000000000002734009501172015084914N000000000000N40       000020400K 10000000010000002720           
CUS0424200000104234675009         HALL, OTIS          1142 ELBANK AVE                         000N        CARE OF             
MTR04242000001000000000000000RA              01091123    005801300000013000000610000003NN  NNW 000                       N    
RDG04242000WATRL000000004K00000000000000801009601172015084956N000000000000N40       000420400K 10000000010000000774           
CUS0424200000104234676007         GREEN RIVER CAPITAL,1140 ELBANK AVE                         000N        CARE OF             
MTR04242000001000000000000000RA              01091128    005801310000013100000610000003NN  NNW 000                       N    
RDG04242000WATRL000000004K00000000000000790009701172015084958N000000000000N40       000020400K 10000000010000000774           
CUS0424200000104234677005         WATKINS JR., FRED A.1138 ELBANK AVE                         000N        CARE OF             
MTR04242000001000000000000000RA              01091173    005801320000013200000610000003NN  NNW 000                       N    
RDG04242000WATRL000000004K00000000000000736009801172015085048N000000000000N40       000500400K 10000000010000000728           
CUS0424200000104234678003         PALMER, BARBARA J   1136 ELBANK AVE                         000N        CARE OF             
MTR04242000001000000000000000RA              01091121    005801330000013300000610000003NN  NNW 000                       N    
RDG04242000WATRL000000004K00000000000000367009901172015085050N000000000000N40       000020400K 10000000010000000359           
CUS0424200000104234679001         WILLIAMS, PATRICIA A1134 ELBANK AVE                         000N        CARE OF             
MTR04242000001000000000000000RA              26008411    005801340000013400000520000003NN  NNW 000                       N    
RDG04242000WATRL000000004K00000000000003593010001172015085129N000000000010N40       000390400K 10000000010000003580           
CUS0424200000104234680009         PENGUIN RIDGE, LLC  1132 ELBANK AVE                         000N        CARE OF             
MTR04242000001000000000000000RA              33730425    005801350000013500000520000003NN  NNW 000                       N    
RDG04242000WATRL000000004K00000000000002857010101172015085131N000000000000N40       000020400K 10000000010000002828           
CUS0424200000104234681007         ARTHUR L PEACE & WF 1130 ELBANK AVE                         000N        CARE OF             
MTR04242000001000000000000000RA              26001452    005801360000013600000520000003NN  NNW 000                       N    
RDG04242000WATRL000000004K00000000000004032010201172015085250N000000000000N40       000790400K 10000000010000004021           
CUS0424200000104234682005         KENDRICK, KAREN L   1128 ELBANK AVE                         000N        CARE OF             
MTR04242000001000000000000000RA              33730654    005801370000013700000520000003NN  NNW 000                       N    
RDG04242000WATRL000000004K00000000000002029010301172015085252N000000000000N40       000020400K 10000000010000002016           
CUS0424200000104234683003         FERGUSON, JOAN      1126 ELBANK AVE                         000N        CARE OF             
MTR04242000001000000000000000RA              29082726    005801380000013800000520000003NN  NNW 000                       N    
RDG04242000WATRL000000004K00000000000002556005301172015083117N000000000000N40       000960400K 10000000010000002543           
CUS0424200000104234684001         GORHAM, SHANTRES M. 1124 ELBANK AVE                         000N        CARE OF             
MTR04242000001000000000000000RA              33730413    005801390000013900000520000003NN  NNW 000                       N    
RDG04242000WATRL000000004K00000000000003954005401172015083119N000000000000N40       000020400K 10000000010000003934           
CUS0424200000104234685008         PRAWL, PATRICK M    1122 ELBANK AVE                         000N        CARE OF             
MTR04242000001000000000000000RA              10003442    005801400000014000000570000003NN  NNW 000                       N    
RDG04242000WATRL000000004K00000000000000207005501172015083238N000000000000N40       000790400K 10000000010000000197           
CUS0424200000104234686006         MITCHELL, RICHARD F 1120 ELBANK AVE                         000N        CARE OF             
MTR04242000001000000000000000RA              01091171    005801410000014100000610000003NN  NNW 000                       N    
RDG04242000WATRL000000004K00000000000000423005601172015083335N000000000000N40       000570400K 10000000010000000415           
CUS0424200000104234687004         KVP ENTERPRISES, LLC1118 ELBANK AVE                         000N        CARE OF             
MTR04242000001000000000000000RA              01091125    005801420000014200000610000003NN  NNW 000                       N    
RDG04242000WATRL000000004K00000000000000877005701172015083337N000000000000N40       000020400K 10000000010000000864           
CUS0424200000104234688002         KNIGHT, RENAE(LIFE) 1116 ELBANK AVE                         000N        CARE OF             
MTR04242000001000000000000000RA              31582996    005801430000014300000520000003NN  NNW 000                       N    
RDG04242000WATRL000000004K00000000000002389005801172015083413N000000000000N40       000360400K 10000000010000002384           
CUS0424200000104234689000         STEVENSON, ERICA D  1114 ELBANK AVE                         000N        CARE OF             
MTR04242000001000000000000000RA              48589044    005801440000014400000520000003NN  NNW 000                       N    
RDG04242000WATRL000000004K00000000000001390005901172015083415N000000000000N40       000020400K 10000000010000001370           
CUS0424200000104234690008         JONES, TYRONE       1112 ELBANK AVE                         000N        CARE OF             
MTR04242000001000000000000000RA              52768228    005801450000014500000520000003NN  NNW 000                       N    
RDG04242000WATRL000000004K00000000000001378006001172015083442N000000000000N40       000270400K 10000000010000001357           
CUS0424200000104234691006         FLYNN, JILLIAN M    1110 ELBANK AVE                         000N        CARE OF             
MTR04242000001000000000000000RA              99388518    005801460000014600000570000003NN  NNW 000                       N    
RDG04242000WATRL000000004K00000000000000966006101172015083446N000300000010N40       000040400K 10000000010000000951           
CUS0424200000104234692004         WARD, ANGELA        1108 ELBANK AVE                         000N        CARE OF             
MTR04242000001000000000000000RA              01091127    005801470000014700000610000003NN  NNW 000                       N    
RDG04242000WATRL000000004K00000000000001324006201172015083535N000000000000N40       000490400K 10000000010000001287           
CUS0424200000104234693002         AUDREY O MCLAUGHLIN 1106 ELBANK AVE                         000N        CARE OF             
MTR04242000001000000000000000RA              01091129    005801480000014800000610000003NN  NNW 000                       N    
RDG04242000WATRL000000004K00000000000001156006301172015083538N000000000000N40       000030400K 10000000010000001148           
CUS0424200000104234694000         NORTHERN MEMORIAL TR1104 ELBANK AVE                         000N        CARE OF             
MTR04242000001000000000000000RA              31583183    005801490000014900000520000003NN  NNW 000                       N    
RDG04242000WATRL000000004K00000000000003189006401172015083634N000000000000N40       000560400K 10000000010000003147           
CUS0424200000104234695007         ROBERT GILKERSON    1102 ELBANK AVE                         000N        CARE OF             
MTR04242000001000000000000000RA              31583180    005801500000015000000520000003NN  NNW 000                       N    
RDG04242000WATRL000000004K00000000000003046006501172015083658N000000000000N40       000240400K 10000000010000003038           
CUS0424200000104234696005         RONALD K MALONE     1100 ELBANK AVE                         000N        CARE OF             
MTR04242000001000000000000000RA              35098330    005801510000015100000520000003NN  NNW 000                       N    
RDG04242000WATRL000000004K00000000000002055006601172015083700N000000000000N40       000020400K 10000000010000002041           
CUS0424200000104234697003         PAIGE, JOHN M       1101 ELBANK AVE                         000N        CARE OF             
MTR04242000001000000000000000RA              01085983    005801520000015200000610000003NN  NNW 000                       N    
RDG04242000WATRL000000004K00000000000001302006701172015083738N000000000000N40       000380400K 10000000010000001282           
CUS0424200000104234698001         BUSY B ENTERPRISES L1103 ELBANK AVE                         000N        CARE OF             
MTR04242000001000000000000000RA              44003517    005801530000015300000520000003NN  NNW 000                       N    
RDG04242000WATRL000000004K00000000000000849006801172015083742N000000000010N40       000040400K 10000000010000000839           
CUS0424200000104234699009         COPPAGE, SABRINA P  1105 ELBANK AVE                         000N        CARE OF             
MTR04242000001000000000000000RA              24763815    005801540000015400000520000003NN  NNW 000                       N    
RDG04242000WATRL000000004K00000000000000000006901172015083816S001000000000N40       000340400K 10000000010000003730           
CUS0424200000104234700005         HARRY, VERA         1107 ELBANK AVE                         000N        CARE OF             
MTR04242000001000000000000000RA              52769776    005801550000015500000520000003NN  NNW 000                       N    
RDG04242000WATRL000000004K00000000000002081007001172015083821N000000000010N40       000050400K 10000000010000002059           
CUS0424200000104234701003         KING, KYONG C       1109 ELBANK AVE                         000N        CARE OF             
MTR04242000001000000000000000RA              31582485    005801560000015600000520000003NN  NNW 000                       N    
RDG04242000WATRL000000004K00000000000001395007101172015083847N000000000000N40       000260400K 10000000010000001392           
CUS0424200000104234702001         MITCHELL, RENAE     1111 ELBANK AVE                         000N        CARE OF             
MTR04242000001000000000000000RA              31583230    005801570000015700000520000003NN  NNW 000                       N    
RDG04242000WATRL000000004K00000000000003610007201172015083849N000000000000N40       000020400K 10000000010000003602           
CUS0424200000104234703009         ROBINSON, CHARLES E 1113 ELBANK AVE                         000N        CARE OF             
MTR04242000001000000000000000RA              29683949    005801580000015800000520000003NN  NNW 000                       N    
RDG04242000WATRL000000004K00000000000003467007301172015083922N000000000000N40       000330400K 10000000010000003454           
CUS0424200000104234704007         GREEN INVESTMENTS GR1115 ELBANK AVE                         000N        CARE OF             
MTR04242000001000000000000000RA              48588739    005801590000015900000520000003NN  NNW 000                       N    
RDG04242000WATRL000000004K00000000000001100007401172015083924N000000000000N40       000020400K 10000000010000001075           
CUS0424200000104234705004         PINDER, FRANK       1117 ELBANK AVE                         000N        CARE OF             
MTR04242000001000000000000000RA              33730410    005801600000016000000520000003NN  NNW 000                       N    
RDG04242000WATRL000000004K00000000000003755007501172015083949N000000000000N40       000250400K 10000000010000003746           
CUS0424200000104234706002         CAMERON, ANTHONY D  1119 ELBANK AVE                         000N        CARE OF             
MTR04242000001000000000000000RA              10015988    005801610000016100000570000003NN  NNW 000                       N    
RDG04242000WATRL000000004K00000000000000082007601172015083954N000000000010N40       000050400K 10000000010000000068           
CUS0424200000104234707000         PINKARD, MARJORIE B 1121 ELBANK AVE                         000N        CARE OF             
MTR04242000001000000000000000RA              01092056    005801620000016200000610000003NN  NNW 000                       N    
RDG04242000WATRL000000004K00000000000000995007701172015084022N000000000000N40       000280400K 10000000010000000953           
CUS0424200000104234708008         JACKSON, LIONEL     1123 ELBANK AVE                         000N        CARE OF             
MTR04242000001000000000000000RA              01092061    005801630000016300000610000003NN  NNW 000                       N    
RDG04242000WATRL000000004K00000000000001035007801172015084023N000000000000N40       000010400K 10000000010000001026           
CUS0424200000104234709006         ELBANK 1125, LLC    1125 ELBANK AVE                         000N        CARE OF             
MTR04242000001000000000000000RA              31582893    005801640000016400000520000003NN  NNW 000                       N    
RDG04242000WATRL000000004K00000000000001175007901172015084109N000300000010N40       000460400K 10000000010000001161           
CUS0424200000104234710004         FLUDD, LANOTA       1127 ELBANK AVE                         000N        CARE OF             
MTR04242000001000000000000000RA              31581668    005801650000016500000520000003NN  NNW 000                       N    
RDG04242000WATRL000000004K00000000000002452008001172015084145N000400000030N40       000360400K 10000000010000002432           
CUS0424200000104234711002         LATONYA V FORD      1129 ELBANK AVE                         000N        CARE OF             
MTR04242000001000000000000000RA              99387249    005801660000016600000570000003NN  NNW 000                       N    
RDG04242000WATRL000000004K00000000000001095008101172015084240N000000000000N40       000550400K 10000000010000001074           
CUS0424200000104234712000         CARLOS PATRICK & WF 1131 ELBANK AVE                         000N        CARE OF             
MTR04242000001000000000000000RA              01093433    005801670000016700000610000003NN  NNW 000                       N    
RDG04242000WATRL000000004K00000000000000635008201172015084251N000000000000N40       000110400K 10000000010000000621           
CUS0424200000104234713008         MORGAN, BERNARDETTE 1133 ELBANK AVE                         000N        CARE OF             
MTR04242000001000000000000000RA              31582896    005801680000016800000520000003NN  NNW 000                       N    
RDG04242000WATRL000000004K00000000000003774008301172015084335N000000000000N40       000440400K 10000000010000003755           
CUS0424200000104234714006         PINCHBACK, GAVONNE M1135 ELBANK AVE                         000N        CARE OF             
MTR04242000001000000000000000RA              23697886    005801690000016900000520000003NN  NNW 000                       N    
RDG04242000WATRL000000004K00000000000003072008401172015084337N000000000000N40       000020400K 10000000010000003063           
CUS0424200000104234715003         TOYINBO, KOLE P     1137 ELBANK AVE                         000N        CARE OF             
MTR04242000001000000000000000RA              29679196    005801700000017000000520000003NN  NNW 000                       N    
RDG04242000WATRL000000004K00000000000003557008501172015084436N000000000000N40       000590400K 10000000010000003538           
CUS0424200000104234716001         MATTHEWS, LORNE D   1139 ELBANK AVE                         000N        CARE OF             
MTR04242000001000000000000000RA              31581671    005801710000017100000520000003NN  NNW 000                       N    
RDG04242000WATRL000000004K00000000000002035008601172015084438N000000000000N40       000020400K 10000000010000002033           
CUS0424200000104234717009         BROWN, WYLIE        1141 ELBANK AVE                         000N        CARE OF             
MTR04242000001000000000000000RA              31582999    005801720000017200000520000003NN  NNW 000                       N    
RDG04242000WATRL000000004K00000000000001701008701172015084538N000000000000N40       000600400K 10000000010000001686           
CUS0424200000104234718007         MCINNIS, REGINALD   1143 ELBANK AVE                         000N        CARE OF             
MTR04242000001000000000000000RA              23647872    005801730000017300000520000003NN  NNW 000                       N    
RDG04242000WATRL000000004K00000000000001944008801172015084541N000000000000N40       000030400K 10000000010000001938           
CUS0424200000104234719005         BRIDGELALL, DAVID   1145 ELBANK AVE                         000N        CARE OF             
MTR04242000001000000000000000RA              31582491    005801740000017400000520000003NN  NNW 000                       N    
RDG04242000WATRL000000004K00000000000002141008901172015084617N000000000000N40       000360400K 10000000010000002124           
CUS0424200000104234720003         PETERSON, ALFRED A  1147 ELBANK AVE                         000N        CARE OF             
MTR04242000001000000000000000RA              31582489    005801750000017500000520000003NN  NNW 000                       N    
RDG04242000WATRL000000004K00000000000002985009001172015084619N000000000000N40       000020400K 10000000010000002969           
CUS0424200000104234721001         SPELLMAN, WANDA R   5920 THE ALAMEDA                        000N        CARE OF             
MTR04242000001000000000000000RA              24764683    005801760000017600000520000003NN  NNW 000                       N    
RDG04242000WATRL000000004K00000000000003916017901172015092426N000000000000N40       000540400K 10000000010000003890           
CUS0424200000104234722009         PHILLIPS, MARY E    5918 THE ALAMEDA                        000N        CARE OF             
MTR04242000001000000000000000RA              24229333    005801770000017700000520000003NN  NNW 000                       N    
RDG04242000WATRL000000004K00000000000003178018001172015092427N000000000000N40       000010400K 10000000010000003156           
CUS0424200000104234723007         POWELL SR, THOMAS M 5916 THE ALAMEDA                        000N        CARE OF             
MTR04242000001000000000000000RA              00132751    005801780000017800000570000003NN  NNW 000                       N    
RDG04242000WATRL000000004K00000000000001060018101172015092456N000000000000N40       000290400K 10000000010000001060           
CUS0424200000104234724005         WANDA M PERRY       5914 THE ALAMEDA                        000N        CARE OF             
MTR04242000001000000000000000RA              00132752    005801790000017900000570000003NN  NNW 000                       N    
RDG04242000WATRL000000004K00000000000002369018201172015092457N000000000000N40       000010400K 10000000010000002357           
CUS0424200000104234725002         EVANS, CHRISTIE F   5912 THE ALAMEDA                        000N        CARE OF             
MTR04242000001000000000000000RA              01092618    005801800000018000000610000003NN  NNW 000                       N    
RDG04242000WATRL000000004K00000000000000919018301172015092521N000000000000N40       000240400K 10000000010000000890           
CUS0424200000104234726000         OBAFEMI, ANTHONY    5910 THE ALAMEDA                        000N        CARE OF             
MTR04242000001000000000000000RA              14916119    005801810000018100000310000003NN  NNW 000                       N    
RDG04242000WATRL000000004K00000000000000770018401172015092601N000000000000N40       000400400K 10000000010000000732           
CUS0424200000104234727008         JOHN C ELSBY 2ND    5908 THE ALAMEDA                        000N        CARE OF             
MTR04242000001000000000000000RA              01083905    005801820000018200000610000003NN  NNW 000                       N    
RDG04242000WATRL000000004K00000000000000925018501172015092603N000000000000N40       000020400K 10000000010000000919           
CUS0424200000104234728006         B-008, LLC          5906 THE ALAMEDA                        000N        CARE OF             
MTR04242000001000000000000000RA              01080908    005801830000018300000610000003NN  NNW 000                       N    
RDG04242000WATRL000000004K00000000000001003018601172015092633N000000000000N40       000300400K 10000000010000000993           
CUS0424200000104234729004         LAWANSON, HUMPRHEY  5904 THE ALAMEDA                        000N        CARE OF             
MTR04242000001000000000000000RA              01080904    005801840000018400000610000003NN  NNW 000                       N    
RDG04242000WATRL000000004K00000000000001779018701172015092637N000100000010N40       000040400K 10000000010000001779           
CUS0424200000104234730002         BERLETT IV, EDWARD G5902 THE ALAMEDA                        000N        CARE OF             
MTR04242000001000000000000000RA              01085568    005801850000018500000610000003NN  NNW 000                       N    
RDG04242000WATRL000000004K00000000000001422018801172015092656N000000000000N40       000190400K 10000000010000001394           
CUS0424200000104234731000         CARTER, DOMINIQUE J.5900 THE ALAMEDA                        000N        CARE OF             
MTR04242000001000000000000000RA              01085560    005801860000018600000610000003NN  NNW 000                       N    
RDG04242000WATRL000000004K00000000000001412018901172015092659N000000000000N40       000030400K 10000000010000001387           
CUS0424200000104234732008         BAS-FON, GWYNETH    1134 GLENEAGLE RD                       000N        CARE OF             
MTR04242000001000000000000000RA              01082888    005801870000018700000610000003NN  NNW 000                       N    
RDG04242000WATRL000000004K00000000000001392019001172015092807N000000000000N40       000680400K 10000000010000001379           
CUS0424200000104234733006         TAYLOR, CLIVE A.    1132 GLENEAGLE RD                       000N        CARE OF             
MTR04242000001000000000000000RA              01082277    005801880000018800000610000003NN  NNW 000                       N    
RDG04242000WATRL000000004K00000000000001571019101172015092809N000000000000N40       000020400K 10000000010000001541           
CUS0424200000104234734004         SIMBA HILLS INVESTME1130 GLENEAGLE RD                       000N        CARE OF             
MTR04242000001000000000000000RA              01108119    005801890000018900000610000003NN  NNW 000                       N    
RDG04242000WATRL000000004K00000000000001392019201172015092845N000000000000N40       000360400K 10000000010000001366           
CUS0424200000104234735001         CHESMAL LLC         1128 GLENEAGLE RD                       000N        CARE OF             
MTR04242000001000000000000000RA              01106763    005801900000019000000610000003NN  NNW 000                       N    
RDG04242000WATRL000000004K00000000000001667019301172015092847N000000000000N40       000020400K 10000000010000001629           
CUS0424200000104234736009         CHESMAL,LLC         1126 GLENEAGLE RD                       000N        CARE OF             
MTR04242000001000000000000000RA              01108196    005801910000019100000610000003NN  NNW 000                       N    
RDG04242000WATRL000000004K00000000000001261019401172015092938N000000000000N40       000510400K 10000000010000001214           
CUS0424200000104234737007         PACC INVESTMENTS, LL1124 GLENEAGLE RD                       000N        CARE OF             
MTR04242000001000000000000000RA              01108013    005801920000019200000610000003NN  NNW 000                       N    
RDG04242000WATRL000000004K00000000000000887019501172015093003N000300000010N40       000250400K 10000000010000000538           
CUS0424200000104234738005         CHESMAL LLC         1122 GLENEAGLE RD                       000N        CARE OF             
MTR04242000001000000000000000RA              23647883    005801930000019300000520000003NN  NNW 000                       N    
RDG04242000WATRL000000004K00000000000005146019601172015093129N000000000000N40       000860400K 10000000010000005116           
CUS0424200000104234739003         DIAZ, MARINO C      1120 GLENEAGLE RD                       000N        CARE OF             
MTR04242000001000000000000000RA              26011305    005801940000019400000520000003NN  NNW 000                       N    
RDG04242000WATRL000000004K00000000000005103019701172015093131N000000000000N40       000020400K 10000000010000005072           
CUS0424200000104234740001         MCCLAIR HOLDINGS, LL1118 GLENEAGLE RD                       000N        CARE OF             
MTR04242000001000000000000000RA              26003309    005801950000019500000520000003NN  NNW 000                       N    
RDG04242000WATRL000000004K00000000000005523019801172015093154N000000000000N40       000230400K 10000000010000005497           
CUS0424200000104234741009         BRUMMELL, GREGORY A.1116 GLENEAGLE RD                       000N        CARE OF             
MTR04242000001000000000000000RA              24773900    005801960000019600000520000003NN  NNW 000                       N    
RDG04242000WATRL000000004K00000000000004829019901172015093215N000000000000N40       000210400K 10000000010000004784           
CUS0424200000104234742007         MOSLEY, CARL D      1114 GLENEAGLE RD                       000N        CARE OF             
MTR04242000001000000000000000RA              27820131    005801970000019700000520000003NN  NNW 000                       N    
RDG04242000WATRL000000004K00000000000004322020001172015093305N000000000000N40       000500400K 10000000010000004312           
CUS0424200000104234743005         CHESMAL, LLC        1112 GLENEAGLE RD                       000N        CARE OF             
MTR04242000001000000000000000RA              24757437    005801980000019800000520000003NN  NNW 000                       N    
RDG04242000WATRL000000004K00000000000004675020101172015093307N000000000000N40       000020400K 10000000010000004663           
CUS0424200000104234744003         DAWN L ROGERS       1110 GLENEAGLE RD                       000N        CARE OF             
MTR04242000001000000000000000RA              00126495    005801990000019900000570000003NN  NNW 000                       N    
RDG04242000WATRL000000004K00000000000001430020201172015093344N000000000000N40       000370400K 10000000010000001393           
CUS0424200000104234745000         KURT O SPENCE       1108 GLENEAGLE RD                       000N        CARE OF             
MTR04242000001000000000000000RA              00126294    005802000000020000000570000003NN  NNW 000                       N    
RDG04242000WATRL000000004K00000000000001196020301172015093347N000000000000N40       000030400K 10000000010000001168           
CUS0424200000104234746008         BEPPE, LLC          1106 GLENEAGLE RD                       000N        CARE OF             
MTR04242000001000000000000000RA              29402278    005802010000020100000520000003NN  NNW 000   VACANT PROPERTY     N    
RDG04242000WATRL000000004K00000000000004797020401172015093423N000000000000N40       000360400K 10000000010000004797           
CUS0424200000104234747006         VINCENT, EUGENE A   1104 GLENEAGLE RD                       000N        CARE OF             
MTR04242000001000000000000000RA              48589054    005802020000020200000520000003NN  NNW 000                       N    
RDG04242000WATRL000000004K00000000000001831020501172015093425N000000000000N40       000020400K 10000000010000001810           
CUS0424200000104234748004         CHESMAL LLC         1102 GLENEAGLE RD                       000N        CARE OF             
MTR04242000001000000000000000RA              01092146    005802030000020300000610000003NN  NNW 000                       N    
RDG04242000WATRL000000004K00000000000001425020601172015093448N000000000000N40       000230400K 10000000010000001396           
CUS0424200000104234749002         CHESMAL LLC         1100 GLENEAGLE RD                       000N        CARE OF             
MTR04242000001000000000000000RA              01092037    005802040000020400000610000003NN  NNW 000                       N    
RDG04242000WATRL000000004K00000000000002019020701172015093450N000000000000N40       000020400K 10000000010000001998           
CUS0424200000104234750000         RACHEL S MULLER     1101 GLENEAGLE RD                       000N        CARE OF             
MTR04242000001000000000000000RA              27830389    005802050000020500000520000003NN  NNW 000                       N    
RDG04242000WATRL000000004K00000000000004556020801172015093514N000000000000N40       000240400K 10000000010000004513           
CUS0424200000104234751008         STEWARD, ROBERT A   1103 GLENEAGLE RD                       000N        CARE OF             
MTR04242000001000000000000000RA              24225019    005802060000020600000520000003NN  NNW 000                       N    
RDG04242000WATRL000000004K00000000000003423020901172015093515N000000000000N40       000010400K 10000000010000003405           
CUS0424200000104234752006         ROBERT L LEONARD    1105 GLENEAGLE RD                       000N        CARE OF             
MTR04242000001000000000000000RA              01080772    005802070000020700000610000003NN  NNW 000                       N    
RDG04242000WATRL000000004K00000000000000447021001172015093545N000000000000N40       000300400K 10000000010000000444           
CUS0424200000104234753004         STEBBING, SUSAN E.  1107 GLENEAGLE RD                       000N        CARE OF             
MTR04242000001000000000000000RA              01080774    005802080000020800000610000003NN  NNW 000                       N    
RDG04242000WATRL000000004K00000000000001696021101172015093547N000000000000N40       000020400K 10000000010000001648           
CUS0424200000104234754002         MCDONOUGH, WILLIAM L1109 GLENEAGLE RD                       000N        CARE OF             
MTR04242000001000000000000000RA              77989494    005802090000020900000350000003NN  NNW 000                       N    
RDG04242000WATRL000000004K00000000000000000021201172015093612S001000000000N40       000250400K 10000000010000000000           
CUS0424200000104234755009         BANK OF AMERICA N A 1111 GLENEAGLE RD                       000N        CARE OF             
MTR04242000001000000000000000RA              30513949    005802100000021000000520000003NN  NNW 000                       N    
RDG04242000WATRL000000004K00000000000000000021301172015093614S002000000000N40       000020400K 10000000010000005248           
CUS0424200000104234756007         BROENING REAL ESTATE1113 GLENEAGLE RD                       000N        CARE OF             
MTR04242000001000000000000000RA              40780776    005802110000021100000520000003NN  NNW 000                       N    
RDG04242000WATRL000000004K00000000000003010021401172015093642N000000000000N40       000280400K 10000000010000002991           
CUS0424200000104234757005         TYRONE DAVIS        1115 GLENEAGLE RD                       000N        CARE OF             
MTR04242000001000000000000000RA              27814983    005802120000021200000520000003NN  NNW 000                       N    
RDG04242000WATRL000000004K00000000000004425021501172015093644N000000000000N40       000020400K 10000000010000004406           
CUS0424200000104234758003         MARTIN, RANDALL     1117 GLENEAGLE RD                       000N        CARE OF             
MTR04242000001000000000000000RA              26010953    005802130000021300000520000003NN  NNW 000                       N    
RDG04242000WATRL000000004K00000000000003542021601172015093707N000000000000N40       000230400K 10000000010000003523           
CUS0424200000104234759001         KANE, BENJAMEN,     1119 GLENEAGLE RD                       000N        CARE OF             
MTR04242000001000000000000000RA              10014757    005802140000021400000570000003NN  NNW 000                       N    
RDG04242000WATRL000000004K00000000000000163021701172015093747N000000000000N40       000400400K 10000000010000000126           
CUS0424200000104234760009         CHESMAL, LLC        1121 GLENEAGLE RD                       000N        CARE OF             
MTR04242000001000000000000000RA              27827381    005802150000021500000520000003NN  NNW 000                       N    
RDG04242000WATRL000000004K00000000000005826021801172015093751N000000000000N40       000040400K 10000000010000005788           
CUS0424200000104234761007         CHESMAL LLC         1123 GLENEAGLE RD                       000N        CARE OF             
MTR04242000001000000000000000RA              00125626    005802160000021600000570000003NN  NNW 000                       N    
RDG04242000WATRL000000004K00000000000001475021901172015093820N000300000010N40       000290400K 10000000010000003448           
CUS0424200000104234762005         GULBRANSON ENTERPRIS1125 GLENEAGLE RD                       000N        CARE OF             
MTR04242000001000000000000000RA              00125645    005802170000021700000570000003NN  NNW 000                       N    
RDG04242000WATRL000000004K00000000000001959022001172015093821N000000000000N40       000010400K 10000000010000001927           
CUS0424200000104234763003         GRAY, AMEFIKA       1127 GLENEAGLE RD                       000N        CARE OF             
MTR04242000001000000000000000RA              99187420    005802180000021800000570000003NN  NNW 000                       N    
RDG04242000WATRL000000004K00000000000001061022101172015093845N000000000000N40       000240400K 10000000010000001044           
CUS0424200000104234764001         BERLETT, HEATHER C  1129 GLENEAGLE RD                       000N        CARE OF             
MTR04242000001000000000000000RA              99187120    005802190000021900000570000003NN  NNW 000                       N    
RDG04242000WATRL000000004K00000000000001127022201172015093847N000000000000N40       000020400K 10000000010000001116           
CUS0424200000104234765008         BERLETT, HEATHER C  1131 GLENEAGLE RD                       000N        CARE OF             
MTR04242000001000000000000000RA              27822636    005802200000022000000520000003NN  NNW 000                       N    
RDG04242000WATRL000000004K00000000000003874022301172015093923N000000000000N40       000360400K 10000000010000003860           
CUS0424200000104234766006         ANGELA M STEPNEY    1133 GLENEAGLE RD                       000N        CARE OF             
MTR04242000001000000000000000RA              31582486    005802210000022100000520000003NN  NNW 000                       N    
RDG04242000WATRL000000004K00000000000002865022401172015093925N000000000000N40       000020400K 10000000010000002846           
CUS0424200000104234767004         SCOTT, JONATHAN KENN5814 THE ALAMEDA                        000N        CARE OF             
MTR04242000001000000000000000RA              77889691    005802220000022200000350000003NN  NNW 000                       N    
RDG04242000WATRL000000004K00000000000000000022501172015094057S001000000000N40       000920400K 10000000010000000000           
CUS0424200000104234768002         WALBRIDGE, MARC F   5812 THE ALAMEDA                        000N        CARE OF             
MTR04242000001000000000000000RA              31583167    005802230000022300000520000003NN  NNW 000                       N    
RDG04242000WATRL000000004K00000000000001864022601172015094100N000000000000N40       000030400K 10000000010000001857           
CUS0424200000104234769000         O'NEALE, JUDE       5810 THE ALAMEDA                        000N        CARE OF             
MTR04242000001000000000000000RA              01108951    005802240000022400000610000003NN  NNW 000                       N    
RDG04242000WATRL000000004K00000000000000866022701172015094133N000000000000N40       000330400K 10000000010000000847           
CUS0424200000104234770008         BERLETT, EDWARD G   5808 THE ALAMEDA                        000N        CARE OF             
MTR04242000001000000000000000RA              99387250    005802250000022500000570000003NN  NNW 000                       N    
RDG04242000WATRL000000004K00000000000001785022801172015094134N000000000000N40       000010400K 10000000010000001761           
CUS0424200000104234771006         EVANS, KIMATHI L.   5806 THE ALAMEDA                        000N        CARE OF             
MTR04242000001000000000000000RA              41086180    005802260000022600000520000003NN  NNW 000                       N    
RDG04242000WATRL000000004K00000000000004072022901172015094202N000000000000N40       000280400K 10000000010000004043           
CUS0424200000104234772004         YORKWOOD APTS. INC  5800-04 THE ALAMEDA                     000N        CARE OF             
MTR04242000001000000000000000RA              35112535    001502270000022700000520000003NN  NNW 000                       N    
RDG04242000WATRL000000005K00000000000017879023101172015094502N000000000000N40       000420500K 10000000010000017624           
CUS0424200000104234773002         YORKWOOD APTS. INC  5720 THE ALAMEDA                        000N        CARE OF             
MTR04242000001000000000000000RA              99376458    007502280000022800000570000003NN  NNW 000                       N    
RDG04242000WATRL000000004K00000000000008458023001172015094420N000000000000N40       001380400K 10000000010000008272           
CUS0424200000104234774000         YORKWOOD APTS. INC  5700-02 THE ALAMEDA                     000N        CARE OF             
MTR04242000001000000000000000RA              99314943    000102290000022900000570000003NN  NNW 000                       N    
RDG04242000WATRL000000004K00000000000004917000101172015074518N000000000000N40       000000400K 10000000010000004671           
CUS0424200000104234775007         YORKWOOD APTS. INC  5701-05 CHINQUAPIN PKWY                 000N        CARE OF             
MTR04242000001000000000000000RA              31938052    000102300000023000000520000003NN  NNW 000                       N    
RDG04242000WATRL000000004K00000000000008759000201172015074758N000000000000N40       001600400K 10000000010000008528           
CUS0424200000104234776005         YORKWOOD APTS. CORP 5707-13 CHINQUAPIN PKWY                 000N        CARE OF             
MTR04242000001000000000000000RA              31588072    001502310000023100000520000003NN  NNW 000                       N    
RDG04242000WATRL000000005K00000000000000000000000000000000000 000000000000U         000000500  10000000010000043249           
CUS0424200000104234777003         YORKWOOD APTS. INC  5715 CHINQUAPIN PKWY                    000N        CARE OF             
MTR04242000001000000000000000RA              99080282    007502320000023200000570000003NN  NNW 000                       N    
RDG04242000WATRL000000004K00000000000003864000301172015075140N000000000000N40       002220400K 10000000010000003712           
CUS0424200000104234778001         YORKWOOD APTS. INC  5801-03 CHINQUAPIN PKWY                 000N        CARE OF             
MTR04242000001000000000000000RA              00163495    000102330000023300000570000003NN  NNW 000                       N    
RDG04242000WATRL000000004K00000000000001766023201172015094846N000000000000N40       002240400K 10000000010000001602           
CUS0424200000104234779009         PEOPLE ENCOURAGING  5805 CHINQUAPIN PKWY                    000N        CARE OF             
MTR04242000001000000000000000RA              33730373    005802340000023400000520000003NN  NNW 000                       N    
RDG04242000WATRL000000004K00000000000003844023301172015094958N000000000000N40       000720400K 10000000010000003812           
CUS0424200000104234780007         ST JOHN, ATLEY A.   5807 CHINQUAPIN PKWY                    000N        CARE OF             
MTR04242000001000000000000000RA              24227507    005802350000023500000520000003NN  NNW 000                       N    
RDG04242000WATRL000000004K00000000000003305023401172015095000N000000000000N40       000020400K 10000000010000003305           
CUS0424200000104234781005         THOMPSON, MORRIS J (5809 CHINQUAPIN PKWY                    000N        CARE OF             
MTR04242000001000000000000000RA              01101300    005802360000023600000610000003NN  NNW 000                       N    
RDG04242000WATRL000000004K00000000000000930023501172015095055N000000000000N40       000550400K 10000000010000000915           
CUS0424200000104234782003         ALASSIO PROPERTIES, 5811 CHINQUAPIN PKWY                    000N        CARE OF             
MTR04242000001000000000000000RA              01101299    005802370000023700000610000003NN  NNW 000                       N    
RDG04242000WATRL000000004K00000000000001100023601172015095058N000000000000N40       000030400K 10000000010000001077           
CUS0424200000104234783001         D STYCHE SWEET FAMIL5813 CHINQUAPIN PKWY                    000N        CARE OF             
MTR04242000001000000000000000RA              99387252    005802380000023800000570000003NN  NNW 000                       N    
RDG04242000WATRL000000004K00000000000000621023701172015095142N000000000000N40       000440400K 10000000010000000615           
CUS0424200000104234784009         BERLETT IV, EDWARD G5815 CHINQUAPIN PKWY                    000N        CARE OF             
MTR04242000001000000000000000RA              24226375    005802390000023900000520000003NN  NNW 000                       N    
RDG04242000WATRL000000004K00000000000003459023801172015095143N000000000000N40       000010400K 10000000010000003444           
CUS0424200000104234785006         BETHEA, DETRAVIUS   5901 CHINQUAPIN PKWY                    000N        CARE OF             
MTR04242000001000000000000000RA              24223337    005802400000024000000520000003NN  NNW 000                       N    
RDG04242000WATRL000000004K00000000000005728023901172015095232N000000000000N40       000490400K 10000000010000005615           
CUS0424200000104234786004         RACHEL S MULLER     5903 CHINQUAPIN PKWY                    000N        CARE OF             
MTR04242000001000000000000000RA              24222694    005802410000024100000520000003NN  NNW 000                       N    
RDG04242000WATRL000000004K00000000000005804024001172015095254N000000000000N40       000220400K 10000000010000005780           
CUS0424200000104234787002         ONYEWUCHI, ANTHONY  5905 CHINQUAPIN PKWY                    000N        CARE OF             
MTR04242000001000000000000000RA              26001243    005802420000024200000520000003NN  NNW 000                       N    
RDG04242000WATRL000000004K00000000000005845024101172015095337N000000000000N40       000430400K 10000000010000005804           
CUS0424200000104234788000         LEVINE, ALFRED      5907 CHINQUAPIN PKWY                    000N        CARE OF             
MTR04242000001000000000000000RA              00139297    005802430000024300000570000003NN  NNW 000                       N    
RDG04242000WATRL000000004K00000000000001469024201172015095338N000000000000N40       000010400K 10000000010000001469           
CUS0424200000104234789008         CLARY JR., ORIS C.  5909 CHINQUAPIN PKWY                    000N        CARE OF             
MTR04242000001000000000000000RA              21194705    005802440000024400000520000003NN  NNW 000                       N    
RDG04242000WATRL000000004K00000000000003072024301172015095421N000008400000N40       000430400K 10000000010000003054           
CUS0424200000104234790006         AMARAC PROPERTIES, L5911 CHINQUAPIN PKWY                    000N        CARE OF             
MTR04242000001000000000000000RA              40048468    005802450000024500000520000003NN  NNW 000                       N    
RDG04242000WATRL000000004K00000000000003777024401172015095423N000000000000N40       000020400K 10000000010000003739           
CUS0424200000104234791004         WORSLEY, KELLY P.   5913 CHINQUAPIN PKWY                    000N        CARE OF             
MTR04242000001000000000000000RA              99388443    005802460000024600000570000003NN  NNW 000   VACANT PROPERTY     N    
RDG04242000WATRL000000004K00000000000001658024501172015095529N000000000000N40       000660400K 10000000010000001658           
CUS0424200000104234792002         BERLETT, HEATHER    5915 CHINQUAPIN PKWY                    000N        CARE OF             
MTR04242000001000000000000000RA              24770325    005802470000024700000520000003NN  NNW 000                       N    
RDG04242000WATRL000000004K00000000000003326024601172015095538N000000000000N40       000090400K 10000000010000003312           
CUS0424200000104234793000         HENRY JR, SAMUEL    5917 CHINQUAPIN PKWY                    000N        CARE OF             
MTR04242000001000000000000000RA              27133023    005802480000024800000520000003NN  NNW 000                       N    
RDG04242000WATRL000000004K00000000000003714024701172015095624N000000000000N40       000460400K 10000000010000003687           
CUS0424200000104234794008         FINANCIAL CORPORATIO5919 CHINQUAPIN PKWY                    000N        CARE OF             
MTR04242000001000000000000000RA              24764562    005802490000024900000520000003NN  NNW 000                       N    
RDG04242000WATRL000000004K00000000000005819024801172015095700N000000000000N40       000360400K 10000000010000005797           
CUS0424200000104234795005         EQUITABLE CALVERT, L5921 CHINQUAPIN PKWY                    000N        CARE OF             
MTR04242000001000000000000000RA              24758324    005802500000025000000520000003NN  NNW 000                       N    
RDG04242000WATRL000000004K00000000000006555024901172015095705N000400000010N40       000050400K 10000000010000006540           
CUS0424200000104234796003         JEFFERSON, CLARE    5923 CHINQUAPIN PKWY                    000N        CARE OF             
MTR04242000001000000000000000RA              11426727    005802510000025100000570000003NN  NNW 000                       N    
RDG04242000WATRL000000004K00000000000003954025001172015095853N000000000000N40       001080400K 10000000010000003919           
CUS0424200000104234797001         NASR, NADIA-KATHERIN5925 CHINQUAPIN PKWY                    000N        CARE OF             
MTR04242000001000000000000000RA              27134497    005802520000025200000520000003NN  NNW 000                       N    
RDG04242000WATRL000000004K00000000000002570025101172015095855N000000000000N40       000020400K 10000000010000002555           
CUS0424200000104234798009         LORIAN J COOMBS & WF5927 CHINQUAPIN PKWY                    000N        CARE OF             
MTR04242000001000000000000000RA              33730322    005802530000025300000520000003NN  NNW 000                       N    
RDG04242000WATRL000000004K00000000000002744025201172015095931N000000000000N40       000360400K 10000000010000002735           
CUS0424200000104234799007         TEEL, RONALD K      5929 CHINQUAPIN PKWY                    000N        CARE OF             
MTR04242000001000000000000000RA              01093042    005802540000025400000610000003NN  NNW 000                       N    
RDG04242000WATRL000000004K00000000000001256025301172015095932N000000000000N40       000010400K 10000000010000001224           
CUS0424200000104234800003         MCNUTT, MONICA      5931 CHINQUAPIN PKWY                    000N        CARE OF             
MTR04242000001000000000000000RA              24230829    005802550000025500000520000003NN  NNW 000                       N    
RDG04242000WATRL000000004K00000000000003454025401172015100003N000000000000N40       000310400K 10000000010000003454           
CUS0424200000104234801001         COSBURN WEDDERBURN  5933 CHINQUAPIN PKWY                    000N        CARE OF             
MTR04242000001000000000000000RA              00139296    005802560000025600000570000003NN  NNW 000                       N    
RDG04242000WATRL000000004K00000000000000980025501172015100004N000000000000N40       000010400K 10000000010000000957           
CUS0424200000104234802009         SMITH, ERIKA        5935 CHINQUAPIN PKWY                    000N        CARE OF             
MTR04242000001000000000000000RA              35103249    005802570000025700000520000003NN  NNW 000                       N    
RDG04242000WATRL000000004K00000000000001654025601172015100022N000000000000N40       000180400K 10000000010000001654           
CUS0424200000104234803007         PEOPLE ENCOURAGING  5937 CHINQUAPIN PKWY                    000N        CARE OF             
MTR04242000001000000000000000RA              30515357    005802580000025800000520000003NN  NNW 000                       N    
RDG04242000WATRL000000004K00000000000002461025701172015100048N000000000000N40       000260400K 10000000010000002453           
CUS0424200000104234804005         HORGAN, ROBERTA C.  5939 CHINQUAPIN PKWY                    000N        CARE OF             
MTR04242000001000000000000000RA              27833656    005802590000025900000520000003NN  NNW 000                       N    
RDG04242000WATRL000000004K00000000000001891025801172015100050N000000000000N40       000020400K 10000000010000001886           
CUS0424200000104234805002         BUREAU OF PARKS     SSE LAKE AVE                            000N        CARE OF             
MTR04242000001000000000000000RA              99999999    005802600000026000000620000003NN  NNW 000   FERRULE APPLIED     N    
RDG04242000WATRL000000004K00000000000000000025901172015100056S002000000000N40       000060400K 10000000010000000222           
CUS0424200000104234806000         DAYE, SHANDELL C    6001 CHINQUAPIN PKWY                    000N        CARE OF             
MTR04242000001000000000000000RA              31583097    005802610000026100000520000003NN  NNW 000                       N    
RDG04242000WATRL000000004K00000000000003405026001172015100206N000000000000N40       000700400K 10000000010000003385           
CUS0424200000104234807008         FERGUSON, GEORGE A. 6003 CHINQUAPIN PKWY                    000N        CARE OF             
MTR04242000001000000000000000RA              27831342    005802620000026200000520000003NN  NNW 000                       N    
