FHDNNNN049010484010484010615N                                                                                           032779
RHD02115000NN02320232000002320000000002320232000167NY023202320232000100010000000000000000000001    12292014NY020000 N         
CUS0211500000102304846005         BIRMINGHAM GROUP, LL2434 DRUID PARK DR                      000N        CARE OF             
MTR02115000001000000000000000RA              24757457    005800010000000100000520000003NN  NNW 000                       N    
RDG02115000WATRL000000004K00000000000002209018601222015114745N000000000000N26       000030400K 10000000010000002183           
CUS0211500000102304847003         THOMAS IV, LAFAYETTE2436 DRUID PARK DR                      000N        CARE OF             
MTR02115000001000000000000000RA              30524249    005800020000000200000520000003NN  NNW 000                       N    
RDG02115000WATRL000000004K00000000000003073018501222015114742N000000000000N26       000170400K 10000000010000003049           
CUS0211500000102304848001         GARDEN PROPERTIES, L2438 DRUID PARK DR                      000N        CARE OF             
MTR02115000001000000000000000RA              10013136    005800030000000300000570000003NN  NNW 000                       N    
RDG02115000WATRL000000004K00000000000000223018401222015114725N000000000000N26       000190400K 10000000010000000215           
CUS0211500000102304849009         MORGAN, CARLEEN     2440 DRUID PARK DR                      000N        CARE OF             
MTR02115000001000000000000000RA              52292131    007500040000000400000520000003NN  NNW 000                       N    
RDG02115000WATRL000000004K00000000000000459018301222015114706N000000000000N26       000340400K 10000000010000000456           
CUS0211500000102304850007         JACKSON, BRENDA     3400 HILLDALE PL                        000N        CARE OF             
MTR02115000001000000000000000RA              48595257    005800050000000500000520000003NN  NNW 000   VACANT PROPERTY     N    
RDG02115000WATRL000000004K00000000000000629000101232015092412N000000000000U26       000000400K 10000000010000000629           
CUS0211500000102304851005         ASBERRY, RUDOLPH    3402 HILLDALE PL                        000N        CARE OF             
MTR02115000001000000000000000RA              10001279    005800060000000600000570000003NN  NNW 000                       N    
RDG02115000WATRL000000004K00000000000000441000201222015100628N000000000000N26       014730400K 10000000010000000419           
CUS0211500000102304852003         DALTON, ANDREA C    3404 HILLDALE PL                        000N        CARE OF             
MTR02115000001000000000000000RA              27820388    005800070000000700000520000003NN  NNW 000                       N    
RDG02115000WATRL000000004K00000000000002383000301222015100643N000300000010N26       000150400K 10000000010000002343           
CUS0211500000102304853001         CHINEME, KINGSLEY   3406 HILLDALE PL                        000N        CARE OF             
MTR02115000001000000000000000RA              44177088    005800080000000800000520000003NN  NNW 000                       N    
RDG02115000WATRL000000004K00000000000002314000401222015100715N000300000010N26       000320400K 10000000010000002253           
CUS0211500000102304854009         RJL HOLDINGS LLC    3408 HILLDALE PL                        000N        CARE OF             
MTR02115000001000000000000000RA              00127151    005800090000000900000570000003NN  NNW 000                       N    
RDG02115000WATRL000000004K00000000000000946000501222015100726N000000000000N26       000110400K 10000000010000000905           
CUS0211500000102304855006         ALLIANCE RE HOLDINGS3410 HILLDALE PL                        000N        CARE OF             
MTR02115000001000000000000000RA              52768592    005800100000001000000520000003NN  NNW 000                       N    
RDG02115000WATRL000000004K00000000000000668000601222015100743N000400000020N26       000170400K 10000000010000000667           
CUS0211500000102304856004         POWELL, MELISSA A   3412 HILLDALE PL                        000N        CARE OF             
MTR02115000001000000000000000RA              33732636    005800110000001100000520000003NN  NNW 000                       N    
RDG02115000WATRL000000004K00000000000001658000701222015100756N000000000000N26       000130400K 10000000010000001654           
CUS0211500000102304857002         EDWARDS, VANESSA L.H3414 HILLDALE PL                        000N        CARE OF             
MTR02115000001000000000000000RA              29681413    005800120000001200000520000003NN  NNW 000                       N    
RDG02115000WATRL000000004K00000000000002839000201232015092444N000000000000U26       000320400K 10000000010000002839           
CUS0211500000102304858000         WOOLFORD, KIMBERLY J3416 HILLDALE PL                        000N        CARE OF             
MTR02115000001000000000000000RA              44088984    005800130000001300000520000003NN  NNW 000                       N    
RDG02115000WATRL000000004K00000000000001074000901222015100819N000000000000N26       000180400K 10000000010000001068           
CUS0211500000102304859008         WHITAKER, MORRIS    3418 HILLDALE PL                        000N        CARE OF             
MTR02115000001000000000000000RA              45378799    005800140000001400000520000003NN  NNW 000                       N    
RDG02115000WATRL000000004K00000000000001333001001222015100836N000000000000N26       000170400K 10000000010000001321           
CUS0211500000102304860006         PAUL M/NATASHA QUEEN3420 HILLDALE PL                        000N        CARE OF             
MTR02115000001000000000000000RA              01091231    005800150000001500000610000003NN  NNW 000                       N    
RDG02115000WATRL000000004K00000000000000810001101222015100838N000000000000N26       000020400K 10000000010000000791           
CUS0211500000102304861004         EDWARD L BRANCH & WF3422 HILLDALE PL                        000N        CARE OF             
MTR02115000001000000000000000RA              50481288    005800160000001600000520000003NN  NNW 000                       N    
RDG02115000WATRL000000004K00000000000001386001201222015100853N000000000000N26       000150400K 10000000010000001373           
CUS0211500000102304862002         THOMAS, ZACHARY     3424 HILLDALE PL                        000N        CARE OF             
MTR02115000001000000000000000RA              26012137    005800170000001700000520000003NN  NNW 000                       N    
RDG02115000WATRL000000004K00000000000003027001301222015100856N000400000010N26       000030400K 10000000010000003023           
CUS0211500000102304863000         PARKER, ALBERTEAN   3426 HILLDALE PL                        000N        CARE OF             
MTR02115000001000000000000000RA              27832021    005800180000001800000520000003NN  NNW 000                       N    
RDG02115000WATRL000000004K00000000000002260001401222015100912N000000000000N26       000160400K 10000000010000002257           
CUS0211500000102304864008         CARE GROUP, LLC, THE3428 HILLDALE PL                        000N        CARE OF             
MTR02115000001000000000000000RA              14928581    005800190000001900000310000003NN  NNW 000                       N    
RDG02115000WATRL000000004K00000000000000390001501222015100929N000000000000N26       000170400K 10000000010000000383           
CUS0211500000102304865005         RICHETTA  WOOD      3430 HILLDALE PL                        000N        CARE OF             
MTR02115000001000000000000000RA              29686402    005800200000002000000520000003NN  NNW 000                       N    
RDG02115000WATRL000000004K00000000000002492001601222015100932N000000000010N26       000030400K 10000000010000002491           
CUS0211500000102304866003         MINTER, KIMBERLY    3504 COTWOOD PL                         000N        CARE OF             
MTR02115000001000000000000000RA              74689745    005800210000002100000350000003NN  NNW 000                       N    
RDG02115000WATRL000000004K00000000000000158001701222015100952N000000000000N26       000200400K 10000000010000000136           
CUS0211500000102304867001         STOUTE, ERROL K     3502 COTWOOD PL                         000N        CARE OF             
MTR02115000001000000000000000RA              27812909    005800220000002200000520000003NN  NNW 000                       N    
RDG02115000WATRL000000004K00000000000004357001801222015101015N000000000000N26       000230400K 10000000010000004226           
CUS0211500000102304868009         MELODY GRADY        3500 COTWOOD PL                         000N        CARE OF             
MTR02115000001000000000000000RA              52768630    005800230000002300000520000003NN  NNW 000                       N    
RDG02115000WATRL000000004K00000000000000354001901222015101040N000300000010N26       000250400K 10000000010000000348           
CUS0211500000102304869007         BUY FIX FLIP, LLC   3410 COTWOOD PL                         000N        CARE OF             
MTR02115000001000000000000000RA              01080286    005800240000002400000610000003NN  NNW 000                       N    
RDG02115000WATRL000000004K00000000000000429000301232015092518N000000000000U26       000340400K 10000000010000000429           
CUS0211500000102304870005         WHITAKER, LELIA A.  3408-1/2 COTWOOD PL                     000N        CARE OF             
MTR02115000001000000000000000RA              52768715    005800250000002500000520000003NN  NNW 000                       N    
RDG02115000WATRL000000004K00000000000000984002101222015101116N000000000000N26       000150400K 10000000010000000973           
CUS0211500000102304871003         WHITAKER, LELIA A   3408 COTWOOD PL                         000N        CARE OF             
MTR02115000001000000000000000RA              45384780    005800260000002600000520000003NN  NNW 000                       N    
RDG02115000WATRL000000004K00000000000001413002201222015101135N000000000000N26       000190400K 10000000010000001403           
CUS0211500000102304872001         LOCKWOOD, CHARLES H 3406 COTWOOD PL                         000N        CARE OF             
MTR02115000001000000000000000RA              27822572    005800270000002700000520000003NN  NNW 000                       N    
RDG02115000WATRL000000004K00000000000001250002301222015101157N000400000010N26       000220400K 10000000010000001249           
CUS0211500000102304873009         WILSON, MILDRED     3404 COTWOOD PL                         000N        CARE OF             
MTR02115000001000000000000000RA              01094295    005800280000002800000610000003NN  NNW 000                       N    
RDG02115000WATRL000000004K00000000000000599002401222015101217N000000000000N26       000200400K 10000000010000000584           
CUS0211500000102304874007         LANCASTER, VIRGINIA 3402 COTWOOD PL                         000N        CARE OF             
MTR02115000001000000000000000RA              01094291    005800290000002900000610000003NN  NNW 000                       N    
RDG02115000WATRL000000004K00000000000003405002501222015101240N000000000000N26       000230400K 10000000010000003382           
CUS0211500000102304875004         LENSY MOORE         3400 COTWOOD PL                         000N        CARE OF             
MTR02115000001000000000000000RA              99999999    005800300000003000000610000003NN  NNW 000                       N    
RDG02115000WATRL000000004K00000000000005622002601222015101303N000000000000N26       000230400K 10000000010000005615           
CUS0211500000102304876002         ASEIN, CLEMENTINA   2500 DRUID PARK DR                      000N        CARE OF             
MTR02115000001000000000000000RA              14926444    005800310000003100000310000003NN  NNW 000                       N    
RDG02115000WATRL000000004K00000000000000803018201222015114632N000000000000N26       000020400K 10000000010000000748           
CUS0211500000102304877000         ELAM, CYNTHIA E     2502 DRUID PARK DR                      000N        CARE OF             
MTR02115000001000000000000000RA              23057347    005800320000003200000520000003NN  NNW 000                       N    
RDG02115000WATRL000000004K00000000000004289018101222015114630N000000000000N26       000200400K 10000000010000004244           
CUS0211500000102304879006         PATTERSON, DIANE C. 2506 DRUID PARK DR                      000N        CARE OF             
MTR02115000001000000000000000RA              14929836    005800330000003300000310000003NN  NNW 000                       N    
RDG02115000WATRL000000004K00000000000000202018001222015114610N000000000010N26       000220400K 10000000010000000189           
CUS0211500000102304880004         RINEHART, MICHELLE K2508 DRUID PARK DR                      000N        CARE OF             
MTR02115000001000000000000000RA              22607950    005800340000003400000520000003NN  NNW 000                       N    
RDG02115000WATRL000000004K00000000000002393000401232015092548N000000000000U26       000300400K 10000000010000002393           
CUS0211500000102304881002         SHERMAN PROPERTY DEV2510 DRUID PARK DR                      000N        CARE OF             
MTR02115000001000000000000000RA              14926520    005800350000003500000310000003NN  NNW 000                       N    
RDG02115000WATRL000000004K00000000000000794017901222015114548N000000000000N26       000320400K 10000000010000000769           
CUS0211500000102304882000         JASIK, MIKE         2512 DRUID PARK DR                      000N        CARE OF             
MTR02115000001000000000000000RA              24771256    005800360000003600000520000003NY  NNW 000                       N    
MTM0211500024771256    FOGGY                                                                                                  
RDG02115000WATRL000000004K00000000000003190017801222015114516N000000000000N26       000010400K 10000000010000003166           
CUS0211500000102304883008         BROWN, GARY     (LIF2514 DRUID PARK DR                      000N        CARE OF             
MTR02115000001000000000000000RA              01091652    005800370000003700000610000003NN  NNW 000                       N    
RDG02115000WATRL000000004K00000000000000751017701222015114515N000000000000N26       000180400K 10000000010000000741           
CUS0211500000102304884006         LEZANCO, MAURICIO   2516 DRUID PARK DR                      000N        CARE OF             
MTR02115000001000000000000000RA              50789994    005800380000003800000520000003NN  NNW 000                       N    
RDG02115000WATRL000000004K00000000000001736017601222015114457N000000000000N26       000020400K 10000000010000001733           
CUS0211500000102304885003         MCCUTCHEN, MICHELE D2518 DRUID PARK DR                      000N        CARE OF             
MTR02115000001000000000000000RA              26795921    007500390000003900000520000003NN  NNW 000                       N    
RDG02115000WATRL000000004K00000000000003111017501222015114455N000000000000N26       000220400K 10000000010000003086           
CUS0211500000102304886001         RICE, SHANAE        2522 DRUID PARK DR                      000N        CARE OF             
MTR02115000001000000000000000RA              14926023    005800400000004000000310000003NN  NNW 000                       N    
RDG02115000WATRL000000004K00000000000000191017401222015114433N000000000000N26       000020400K 10000000010000000184           
CUS0211500000102304887009         ROBINSON, ROBERT B  2524 DRUID PARK DR                      000N        CARE OF             
MTR02115000001000000000000000RA              27266806    005800410000004100000520000003NN  NNW 000                       N    
RDG02115000WATRL000000004K00000000000002158017301222015114431N000000000000N26       000180400K 10000000010000002132           
CUS0211500000102304888007         VJT LLC             2526 DRUID PARK DR                      000N        CARE OF             
MTR02115000001000000000000000RA              10009724    005800420000004200000570000003NN  NNW 000                       N    
RDG02115000WATRL000000004K00000000000000209017201222015114413N000400000010N26       000040400K 10000000010000000206           
CUS0211500000102304889005         SKELTON, JON        2528 DRUID PARK DR                      000N        CARE OF             
MTR02115000001000000000000000RA              33079292    005800430000004300000520000003NN  NNW 000                       N    
RDG02115000WATRL000000004K00000000000002100017101222015114409N000000000000N26       000160400K 10000000010000002087           
CUS0211500000102304890003         ZUSSMAN, YAIR       2530 DRUID PARK DR                      000N        CARE OF             
MTR02115000001000000000000000RA              00127152    005800440000004400000570000003NN  NNW 000                       N    
RDG02115000WATRL000000004K00000000000000696017001222015114353N000300000010N26       000040400K 10000000010000000682           
CUS0211500000102304891001         CITYLITE MANAGEMENT 2532 DRUID PARK DR                      000N        CARE OF             
MTR02115000001000000000000000RA              26013007    005800450000004500000520000003NN  NNW 000                       N    
RDG02115000WATRL000000004K00000000000006983016901222015114349N000000000000N26       000160400K 10000000010000006926           
CUS0211500000102304892009         GLENN, TROY         2534 DRUID PARK DR                      000N        CARE OF             
MTR02115000001000000000000000RA              14901059    005800460000004600000310000003NN  NNW 000                       N    
RDG02115000WATRL000000004K00000000000000149016801222015114333N000000000000N26       000020400K 10000000010000000145           
CUS0211500000102304893007         AHMADZAI, MAHMOOD   2536 DRUID PARK DR                      000N        CARE OF             
MTR02115000001000000000000000RA              99999999    005800470000004700000610000003NN  NNW 000                       N    
RDG02115000WATRL000000004K00000000000001246016701222015114331N000000000000N26       000180400K 10000000010000001232           
CUS0211500000102304894005         NICHOLAS, ANDREW M  2538 DRUID PARK DR                      000N        CARE OF             
MTR02115000001000000000000000RA              41588758    005800480000004800000520000003NN  NNW 000                       N    
RDG02115000WATRL000000004K00000000000001408016501222015114308N000000000000N26       000020400K 10000000010000001396           
CUS0211500000102304895002         PRICE, NANCY L      2540 DRUID PARK DR                      000N        CARE OF             
MTR02115000001000000000000000RA              41588757    005800490000004900000520000003NN  NNW 000                       N    
RDG02115000WATRL000000004K00000000000001915016401222015114306N000300000010N26       000290400K 10000000010000001894           
CUS0211500000102304896000         REDC STATUTORY TRUST2542 DRUID PARK DR                      000N        CARE OF             
MTR02115000001000000000000000RA              32770017    005800500000005000000520000003NN  NNW 000   VACANT PROPERTY     N    
RDG02115000WATRL000000004K00000000000004236000501232015092645N000000000000U26       000570400K 10000000010000004236           
CUS0211500000102304897008         BUY FIX FLIP, LLC   2544 DRUID PARK DR                      000N        CARE OF             
MTR02115000001000000000000000RA              78028188    007500510000005100000350000003NY  NNW 000                       N    
MTM0211500078028188    AMI                                                                                                    
RDG02115000WATRL000000004K00000000000000000016601222015114313S001000000000N26       000050400K 10000000010000000000           
CUS0211500000102304898006         STONE JR, RONALD EDW2546 DRUID PARK DR                      000N        CARE OF             
MTR02115000001000000000000000RA              75616729    005800520000005200000350000003NN  NNW 000                       N    
RDG02115000WATRL000000004K00000000000000080016301222015114237N000000000000N26       000150400K 10000000010000000072           
CUS0211500000102304899004         EVANS REALTY LLC    2548 DRUID PARK DR                      000N        CARE OF             
MTR02115000001000000000000000RA              36690327    005800530000005300000520000003NN  NNW 000                       N    
RDG02115000WATRL000000004K00000000000001878016201222015114222N000400000010N26       000040400K 10000000010000001853           
CUS0211500000102304900000         EVANS REALTY LLC    2550 DRUID PARK DR                      000N        CARE OF             
MTR02115000001000000000000000RA              10002488    005800540000005400000570000003NN  NNW 000                       N    
RDG02115000WATRL000000004K00000000000000436016101222015114218N000000000000N26       000130400K 10000000010000000414           
CUS0211500000102304901008         SCHENK, CARL        2552 DRUID PARK DR                      000N        CARE OF             
MTR02115000001000000000000000RA              10005913    005800550000005500000570000003NN  NNW 000                       N    
RDG02115000WATRL000000004K00000000000000470016001222015114205N000000000000N26       000150400K 10000000010000000454           
CUS0211500000102304902006         CYPREXX SERVICES LLC2554 DRUID PARK DR                      000N        CARE OF             
MTR02115000001000000000000000RA              29684892    005800560000005600000520000003NN  NNW 000   VACANT PROPERTY     N    
RDG02115000WATRL000000004K00000000000001535000601232015092712N000000000000U26       000270400K 10000000010000001535           
CUS0211500000102304903004         BRUCE JR., THOMAS S.2556 DRUID PARK DR                      000N        CARE OF             
MTR02115000001000000000000000RA              10023057    005800570000005700000570000003NN  NNW 000                       N    
RDG02115000WATRL000000004K00000000000000163015901222015114150N000000000000N26       000040400K 10000000010000000154           
CUS0211500000102304904002         SCHENCK, RHONDA V.  2558 DRUID PARK DR                      000N        CARE OF             
MTR02115000001000000000000000RA              36690329    005800580000005800000520000003NN  NNW 000                       N    
RDG02115000WATRL000000004K00000000000002314015801222015114146N000000000000N26       000140400K 10000000010000002295           
CUS0211500000102304905009         GRIFFIN, SATIRA N.  2560 DRUID PARK DR                      000N        CARE OF             
MTR02115000001000000000000000RA              10013444    005800590000005900000570000003NN  NNW 000                       N    
RDG02115000WATRL000000004K00000000000000028000701232015092750N000000000000U26       000380400K 10000000010000000028           
CUS0211500000102304906007         RODGERS JR, CHARLES 2562 DRUID PARK DR                      000N        CARE OF             
MTR02115000001000000000000000RA              36690325    005800600000006000000520000003NN  NNW 000                       N    
RDG02115000WATRL000000004K00000000000002699015601222015114130N000000000010N26       000130400K 10000000010000002676           
CUS0211500000102304907005         HARRIS, BERNARD G   2564 DRUID PARK DR                      000N        CARE OF             
MTR02115000001000000000000000RA              36690328    005800610000006100000520000003NN  NNW 000                       N    
RDG02115000WATRL000000004K00000000000001338015501222015114117N000000000000N26       000020400K 10000000010000001329           
CUS0211500000102304908003         NKONABANG, FELICITE 2566 DRUID PARK DR                      000N        CARE OF             
MTR02115000001000000000000000RA              35105506    007500620000006200000520000003NN  NNW 000                       N    
RDG02115000WATRL000000004K00000000000002052015401222015114115N000000000000N26       000190400K 10000000010000002036           
CUS0211500000102304909001         WISDOM FORD         2568 DRUID PARK DR                      000N        CARE OF             
MTR02115000001000000000000000RA              75427234    007500630000006300000350000003NN  NNW 000                       N    
RDG02115000WATRL000000004K00000000000000031015301222015114056N000000000000N26       000110400K 10000000010000000027           
CUS0211500000102304910009         HIGGINS, HELEN L.   2570 DRUID PARK DR                      000N        CARE OF             
MTR02115000001000000000000000RA              00118386    007500640000006400000570000003NN  NNW 000                       N    
RDG02115000WATRL000000004K00000000000001566015201222015114045N000000000000N26       000020400K 10000000010000001541           
CUS0211500000102304911007         DUVAL JR, ROBERT B  2572 DRUID PARK DR                      000N        CARE OF             
MTR02115000001000000000000000RA              46885148    005800650000006500000520000003NN  NNW 000                       N    
RDG02115000WATRL000000004K00000000000002318015101222015114043N000000000000N26       000200400K 10000000010000002275           
CUS0211500000102304912005         ZUSSMAN, YAIR       2574 DRUID PARK DR                      000N        CARE OF             
MTR02115000001000000000000000RA              26375397    007500660000006600000520000003NN  NNW 000                       N    
RDG02115000WATRL000000004K00000000000004118015001222015114023N000000000010N26       000100400K 10000000010000004096           
CUS0211500000102304913003         JACKSON, MARVIN     2576 DRUID PARK DR                      000N        CARE OF             
MTR02115000001000000000000000RA              26375946    007500670000006700000520000003NN  NNW 000                       N    
RDG02115000WATRL000000004K00000000000003741014901222015114013N000000000000N26       000200400K 10000000010000003735           
CUS0211500000102304914001         MAY, SHELLYE R      2578 DRUID PARK DR                      000N        CARE OF             
MTR02115000001000000000000000RA              35105858    007500680000006800000520000003NN  NNW 000                       N    
RDG02115000WATRL000000004K00000000000002048014801222015113953N000000000000N26       000110400K 10000000010000002043           
CUS0211500000102304915008         HARPER, ORAL R.     2580 DRUID PARK DR                      000N        CARE OF             
MTR02115000001000000000000000RA              23052891    005800690000006900000520000003NN  NNW 000                       N    
RDG02115000WATRL000000004K00000000000004936000801232015092838N000000000000U26       000480400K 10000000010000004936           
CUS0211500000102304916006         FULLARD, LAMONT L.  2582 DRUID PARK DR                      000N        CARE OF             
MTR02115000001000000000000000RA              35099018    005800700000007000000520000003NN  NNW 000                       N    
RDG02115000WATRL000000004K00000000000002874014601222015113924N000000000000N26       000180400K 10000000010000002862           
CUS0211500000102304917004         SALAKO, WILLIE M    2584 DRUID PARK DR                      000N        CARE OF             
MTR02115000001000000000000000RA              50480460    005800710000007100000520000003NN  NNW 000                       N    
RDG02115000WATRL000000004K00000000000000798014501222015113906N000000000010N26       000160400K 10000000010000000787           
CUS0211500000102304918002         RELIABLE PROPERTIES,2586 DRUID PARK DR                      000N        CARE OF             
MTR02115000001000000000000000RA              29402761    005800720000007200000520000003NN  NNW 000                       N    
RDG02115000WATRL000000004K00000000000001888000901232015092911N000000000000U26       000330400K 10000000010000001888           
CUS0211500000102304919000         BERNIS STANLEY      2588 DRUID PARK DR                      000N        CARE OF             
MTR02115000001000000000000000RA              36690262    005800730000007300000520000003NN  NNW 000                       N    
RDG02115000WATRL000000004K00000000000002962014301222015113838N000300000010N26       000270400K 10000000010000002940           
CUS0211500000102304920008         MUMAW, KENNETH B    2590 DRUID PARK DR                      000N        CARE OF             
MTR02115000001000000000000000RA              43905580    007500740000007400000520000003NN  NNW 000   VACANT PROPERTY     N    
RDG02115000WATRL000000004K00000000000002752001001232015092950N000000000000U26       000390400K 10000000010000002752           
CUS0211500000102304921006         LOWE, MICHAEL ANTHON2592 DRUID PARK DR                      000N        CARE OF             
MTR02115000001000000000000000RA              99999999    005800750000007500000620000003NN  NNW 000   VACANT PROPERTY     N    
RDG02115000WATRL000000004K00000000000002104001101232015093112N000000000000U26       000820400K 10000000010000002104           
CUS0211500000102304922004         LOWE, MICHAEL ANTHON2594 DRUID PARK DR                      000N        CARE OF             
MTR02115000001000000000000000RA              14926107    005800760000007600000310000003NN  NNW 000                       N    
RDG02115000WATRL000000004K00000000000000299014201222015113811N000000000000N26       000180400K 10000000010000000279           
CUS0211500000102304923002         PRINCESS LEAH, LLC. 2596 DRUID PARK DR                      000N        CARE OF             
MTR02115000001000000000000000RA              01092328    005800770000007700000610000003NN  NNW 000                       N    
RDG02115000WATRL000000004K00000000000001532014101222015113753N000000000010N26       000130400K 10000000010000001515           
CUS0211500000102304924000         MARY DURHAM         2598 DRUID PARK DR                      000N        CARE OF             
MTR02115000001000000000000000RA              29402758    005800780000007800000520000003NN  NNW 000                       N    
RDG02115000WATRL000000004K00000000000002210001201232015093221N000000000000U26       000690400K 10000000010000002210           
CUS0211500000102304925007         REVACH PROFIT SHARIN3301 HENRY G PARKS JR CIR               000N        CARE OF             
MTR02115000001000000000000000RA              75426219    005800790000007900000350000003NN  NNW 000   VACANT PROPERTY     N    
RDG02115000WATRL000000004K00000000000000251001301232015093328N000000000000U26       000670400K 10000000010000000251           
CUS0211500000102304927003         SHERRIAN JONES      3305 HENRY G PARKS JR CIR               000N        CARE OF             
MTR02115000001000000000000000RA              41089153    007500800000008000000520000003NN  NNW 000                       N    
RDG02115000WATRL000000004K00000000000001639013901222015113653N000400000031N26       000160400K 10000000010000001637           
CUS0211500000102304928001         LONGLEY, SHAUN      3307 HENRY G PARKS JR CIR               000N        CARE OF             
MTR02115000001000000000000000RA              41089155    007500810000008100000520000003NN  NNW 000                       N    
RDG02115000WATRL000000004K00000000000005082013801222015113617N000000000000N26       000420400K 10000000010000005070           
CUS0211500000102304929009         RUBBLE REAL ESTATE, 3401 PARK HTS AVE                       000N        CARE OF             
MTR02115000001000000000000000RA              30524092    005800820000008200000520000003NN  NNW 000   VACANT PROPERTY     N    
RDG02115000WATRL000000004K00000000000006220001401232015093331N000000000000U26       000030400K 10000000010000006220           
CUS0211500000102304930007         CROSBY, CROSBY & CRO3403 PARK HTS AVE                       000N        CARE OF             
MTR02115000001000000000000000RA              36699145    007500830000008300000520000003NN  NNW 000                       N    
RDG02115000WATRL000000004K00000000000003527013701222015113535N000003600000N26       000250400K 10000000010000003509           
CUS0211500000102304931005         DR. JASMIN DUCKETT  3405 PARK HTS AVE                       000N        CARE OF             
MTR02115000001000000000000000RA              25979802    007500840000008400000520000003NN  NNW 000                       N    
RDG02115000WATRL000000004K00000000000004491013601222015113510N000000000000N26       000150400K 10000000010000004478           
CUS0211500000102304932003         DOWELL, MAMIE E     3407 PARK HTS AVE                       000N        CARE OF             
MTR02115000001000000000000000RA              31583411    005800850000008500000520000003NN  NNW 000                       N    
RDG02115000WATRL000000004K00000000000003708013501222015113455N000000000010N26       000500400K 10000000010000003692           
CUS0211500000102304933001         FERGUSON, DWAYNE D  3409 PARK HTS AVE                       000N        CARE OF             
MTR02115000001000000000000000RA              24625278    007500860000008600000520000003NN  NNW 000   VACANT PROPERTY     N    
RDG02115000WATRL000000004K00000000000004099001501232015093334N000000000000U26       000030400K 10000000010000004099           
CUS0211500000102304934009         COMMUNITY SOLUTIONS,3411 PARK HTS AVE                       000N        CARE OF             
MTR02115000001000000000000000RA              99999999    007500870000008700000620000003NN  NNW 000                       N    
RDG02115000WATRL000000004K00000000000000000001601232015093341N000000000000U26       000070400K 10000000010000000000           
CUS0211500000102304935006         WHEELER, DOROTHY    3413 PARK HTS AVE                       000N        CARE OF             
MTR02115000001000000000000000RA              46890728    005800880000008800000520000003NN  NNW 000   VACANT PROPERTY     N    
RDG02115000WATRL000000004K00000000000000000001701232015093352N000000000000U26       000110400K 10000000010000000000           
CUS0211500000102304936004         MYRA SCOTT          3415 PARK HTS AVE                       000N        CARE OF             
MTR02115000001000000000000000RA              00118387    007500890000008900000570000003NN  NNW 000                       N    
RDG02115000WATRL000000004K00000000000004372013401222015113405N000000000000N26       000170400K 10000000010000004340           
CUS0211500000102304937002         DHEERAJ JOSHI       3417 PARK HTS AVE                       000N        CARE OF             
MTR02115000001000000000000000RA              30002165    007500900000009000000570000003NN  NNW 000                       N    
RDG02115000WATRL000000004K00000000000000369013301222015113348N000000000000N26       000530400K 10000000010000000332           
CUS0211500000102304938000         SMITH, SARAH LOUISE 3419 PARK HTS AVE                       000N        CARE OF             
MTR02115000001000000000000000RA              33731210    007500910000009100000520000003NN  NNW 000                       N    
RDG02115000WATRL000000004K00000000000006818013201222015113255N000000000000N26       001420400K 10000000010000006811           
CUS0211500000102304939008         JULIUS A HARRIS     3421 PARK HTS AVE                       000N        CARE OF             
MTR02115000001000000000000000RA              77544816    007500920000009200000350000003NN  NNW 000                       N    
RDG02115000WATRL000000004K00000000000000112013101222015113033N000000000000N26       001120400K 10000000010000000079           
CUS0211500000102304941004         MCCULLOUGH, HARRIET 3425 PARK HTS AVE                       000N        CARE OF             
MTR02115000001000000000000000RA              31345598    007500930000009300000520000003NN  NNW 000   VACANT PROPERTY     N    
RDG02115000WATRL000000004K00000000000004703001801232015093424N000000000000U26       000320400K 10000000010000004703           
CUS0211500000102304942002         MCCULLOUGH, HARRIETT3427 PARK HTS AVE                       000N        CARE OF             
MTR02115000001000000000000000RA              41089045    007500940000009400000520000003NY  NNW 000                       N    
MTM0211500041089045    BURRIED                                                                                                
RDG02115000WATRL000000004K00000000000000000000000000000000000 000000000000U         000000400  10000000010000000731           
CUS0211500000102304943000         HOLMES, HARRY       3429 PARK HTS AVE                       000N        CARE OF             
MTR02115000001000000000000000RA              42810122    005800950000009500000520000003NN  NNW 000   VACANT PROPERTY     N    
RDG02115000WATRL000000004K00000000000000000001901232015093508N000000000000U26       000440400K 10000000010000000000           
CUS0211500000102304944008         MARY DORSEY         3431 PARK HTS AVE                       000N        CARE OF             
MTR02115000001000000000000000RA              31581907    005800960000009600000520000003NN  NNW 000   VACANT PROPERTY     N    
RDG02115000WATRL000000004K00000000000005164002001232015093659N000000000000U26       001110400K 10000000010000005164           
CUS0211500000102304946003         EAGLE HOMES USA, LLC3435 PARK HTS AVE                       000N        CARE OF             
MTR02115000001000000000000000RA              31937540    007500970000009700000520000003NN  NNW 000   VACANT PROPERTY     N    
RDG02115000WATRL000000004K00000000000003210002101232015093704N000000000000U26       000050400K 10000000010000003210           
CUS0211500000102304947001         COMMUNITY SOLUTIONS,3437 PARK HTS AVE                       000N        CARE OF             
MTR02115000001000000000000000RA              99999999    005800980000009800000620000003NN  NNW 000                       N    
RDG02115000WATRL000000004K00000000000000000002201232015093714N000000000000U26       000100400K 10000000010000000000           
CUS0211500000102304948009         FOSTER, MONTE STEVEN3439 PARK HTS AVE                       000N        CARE OF             
MTR02115000001000000000000000RA              36688630    005800990000009900000520000003NN  NNW 000                       N    
RDG02115000WATRL000000004K00000000000001691002301232015093849N000000000000U26       000950400K 10000000010000001691           
CUS0211500000102304949007         HALLOW'D HOUSE, LLC 3441 PARK HTS AVE                       000N        CARE OF             
MTR02115000001000000000000000RA              52292158    007501000000010000000520000003NN  NNW 000   VACANT PROPERTY     N    
RDG02115000WATRL000000004K00000000000000356002401232015093854N000000000000U26       000050400K 10000000010000000356           
CUS0211500000102304950005         TAYLOR, ROBERT      3443 PARK HTS AVE                       000N        CARE OF             
MTR02115000001000000000000000RA              52292130    007501010000010100000520000003NN  NNW 000                       N    
RDG02115000WATRL000000004K00000000000000719013001222015112841N000000000010N26       000220400K 10000000010000000689           
CUS0211500000102304951003         MAYOR AND CITY COUNC3445 COTTAGE AVE                        000N        CARE OF             
MTR02115000001000000000000000RA              48594654    005801020000010200000520000003NN  NNW 000                       N    
RDG02115000WATRL000000004K00000000000001581002501232015093916N000000000000U26       000220400K 10000000010000001581           
CUS0211500000102304953009         RANDOLPH, SADIQA A  3449 COTTAGE AVE                        000N        CARE OF             
MTR02115000001000000000000000RA              36688679    005801030000010300000520000003NN  NNW 000                       N    
RDG02115000WATRL000000004K00000000000002336012901222015112819N000000000000N26       000190400K 10000000010000002321           
CUS0211500000102304954007         YASINOV, GRIGORIY   3451 COTTAGE AVE                        000N        CARE OF             
MTR02115000001000000000000000RA              36688678    005801040000010400000520000003NN  NNW 000                       N    
RDG02115000WATRL000000004K00000000000002580002601232015093956N000000000000U26       000400400K 10000000010000002580           
CUS0211500000102304955004         BENNETT, DARRELL JAY3453 COTTAGE AVE                        000N        CARE OF             
MTR02115000001000000000000000RA              36688677    005801050000010500000520000003NN  NNW 000   VACANT PROPERTY     N    
RDG02115000WATRL000000004K00000000000006640002701232015094026N000000000000U26       000300400K 10000000010000006640           
CUS0211500000102304956002         BEDWARD, SYLBERT B. 3455 COTTAGE AVE                        000N        CARE OF             
MTR02115000001000000000000000RA              48588271    005801060000010600000520000003NN  NNW 000   VACANT PROPERTY     N    
RDG02115000WATRL000000004K00000000000002405002801232015094055N000000000000U26       000290400K 10000000010000002405           
CUS0211500000102304957000         ELIZABETH J BUTLER  3457 COTTAGE AVE                        000N        CARE OF             
MTR02115000001000000000000000RA              36688673    005801070000010700000520000003NN  NNW 000                       N    
RDG02115000WATRL000000004K00000000000003403012701222015112744N000000000000N26       000340400K 10000000010000003396           
CUS0211500000102304958008         FRIESE, JOHN        3459 COTTAGE AVE                        000N        CARE OF             
MTR02115000001000000000000000RA              01110586    005801080000010800000610000003NN  NNW 000   VACANT PROPERTY     N    
RDG02115000WATRL000000004K00000000000000064002901232015094105N000000000000U26       000100400K 10000000010000000064           
CUS0211500000102304959006         ALGARARHEN, MOHAMMAD3461 COTTAGE AVE                        000N        CARE OF             
MTR02115000001000000000000000RA              35114972    005801090000010900000520000003NN  NNW 000   VACANT PROPERTY     N    
RDG02115000WATRL000000004K00000000000000846003001232015094124N000000000000U26       000190400K 10000000010000000846           
CUS0211500000102304960004         7TH ST PROPERTIES DE3463 COTTAGE AVE                        000N        CARE OF             
MTR02115000001000000000000000RA              48584654    005801100000011000000520000003NN  NNW 000                       N    
RDG02115000WATRL000000004K00000000000001930003101232015094200N000000000000U26       000360400K 10000000010000001930           
CUS0211500000102304961002         AZARIAH ARMSTRONG   3465 COTTAGE AVE                        000N        CARE OF             
MTR02115000001000000000000000RA              46884383    005801110000011100000520000003NN  NNW 000                       N    
RDG02115000WATRL000000004K00000000000001418012501222015112704N000000000010N26       000160400K 10000000010000001410           
CUS0211500000102304962000         MOOREHEAD REALTY, LL3467 COTTAGE AVE                        000N        CARE OF             
MTR02115000001000000000000000RA              30522412    005801120000011200000520000003NN  NNW 000                       N    
RDG02115000WATRL000000004K00000000000003451012401222015112648N000000000010N26       004430400K 10000000010000003423           
CUS0211500000102304963008         ALGARARHEN, MOHAMMAD3469 COTTAGE AVE                        000N        CARE OF             
MTR02115000001000000000000000RA              23057411    005801130000011300000520000003NN  NNW 000   VACANT PROPERTY     N    
RDG02115000WATRL000000004K00000000000000760003201232015094238N000000000000U26       000380400K 10000000010000000760           
CUS0211500000102304969005         GOOD SHEPERD BAPTIST3459-65 PARK HTS AVE                    000N        CARE OF             
MTR02115000001000000000000000RA              31588085    001501140000011400000520000003NN  NNW 000                       N    
RDG02115000WATRL000000005K00000000000012419018701222015115151N000000000000N26       002460500K 10000000010000012375           
CUS0211500000102429250000         ST VINCENT DE PAUL  2603 ULMAN AVE                          000N        CARE OF             
MTR02115000001000000000000000RA              99314541    000101150000011500000570000003NN  NNW 000                       N    
RDG02115000WATRL000000004K00000000000003914009101222015105113N000000000000N26       000020400K 10000000010000003880           
CUS0211500000102429249002         SOCIETY OF ST VINCEN2601 ULMAN AVE                          000N        CARE OF             
MTR02115000001000000000000000RA              99314543    000101160000011600000570000003NN  NNW 000                       N    
RDG02115000WATRL000000004K00000000000002153009001222015105111N000000000000N26       000340400K 10000000010000002126           
CUS0211500000102304996008         HARRIS, VALERIE F   3532 COTTAGE AVE                        000N        CARE OF             
MTR02115000001000000000000000RA              27831470    005801170000011700000520000003NN  NNW 000                       N    
RDG02115000WATRL000000004K00000000000002903010701222015111157N000000000000N26       008480400K 10000000010000002890           
CUS0211500000102304997006         SOCIETY OF ST VINCEN3530 COTTAGE AVE                        000N        CARE OF             
MTR02115000001000000000000000RA              27831472    005801180000011800000520000003NN  NNW 000                       N    
RDG02115000WATRL000000004K00000000000003178010801222015111159N000000000000N26       000020400K 10000000010000003146           
CUS0211500000102304998004         SOCIETY OF ST VINCEN3528 COTTAGE AVE                        000N        CARE OF             
MTR02115000001000000000000000RA              99080471    007501190000011900000570000003NN  NNW 000                       N    
RDG02115000WATRL000000004K00000000000002307010901222015111220N000000000000N26       000210400K 10000000010000002299           
CUS0211500000102304999002         ST. VINCENT DEPAUL  3526 COTTAGE AVE                        000N        CARE OF             
MTR02115000001000000000000000RA              99375490    007501200000012000000570000003NN  NNW 000                       N    
RDG02115000WATRL000000004K00000000000001420011001222015111224N000300000010N26       000040400K 10000000010000001393           
CUS0211500000102305000008         GRIFFIN, ROBERT     3524 COTTAGE AVE                        000N        CARE OF             
MTR02115000001000000000000000RA              48593885    005801210000012100000520000003NN  NNW 000                       N    
RDG02115000WATRL000000004K00000000000000887011101222015111344N000000000000N26       000800400K 10000000010000000882           
CUS0211500000102305001006         MITCHELL, BRENDA R. 3522 COTTAGE AVE                        000N        CARE OF             
MTR02115000001000000000000000RA              26019308    005801220000012200000520000003NN  NNW 000                       N    
RDG02115000WATRL000000004K00000000000004046003301232015094317N000000000000U26       000390400K 10000000010000004046           
CUS0211500000102305002004         RICE, RAESHIO       3520 COTTAGE AVE                        000N        CARE OF             
MTR02115000001000000000000000RA              40781575    005801230000012300000520000003NN  NNW 000                       N    
RDG02115000WATRL000000004K00000000000004451003401232015094405N000000000000U26       000480400K 10000000010000004451           
CUS0211500000102305003002         DANIELS, MORRIS     3518 COTTAGE AVE                        000N        CARE OF             
MTR02115000001000000000000000RA              10008826    005801240000012400000570000003NN  NNW 000                       N    
RDG02115000WATRL000000004K00000000000000275011401222015111524N000000000000N26       000240400K 10000000010000000263           
CUS0211500000102305004000         PALMER, LARRY       3516 COTTAGE AVE                        000N        CARE OF             
MTR02115000001000000000000000RA              30516262    005801250000012500000520000003NN  NNW 000                       N    
RDG02115000WATRL000000004K00000000000002668011501222015111552N000000000000N26       000280400K 10000000010000002610           
CUS0211500000102305005007         FADIRAN, MOSES      3514 COTTAGE AVE                        000N        CARE OF             
MTR02115000001000000000000000RA              36691506    005801260000012600000520000003NN  NNW 000                       N    
RDG02115000WATRL000000004K00000000000002467011601222015111554N000000000000N26       000020400K 10000000010000002455           
CUS0211500000102305006005         FOSTER, ANTONIO C   3512 COTTAGE AVE                        000N        CARE OF             
MTR02115000001000000000000000RA              26010072    005801270000012700000520000003NN  NNW 000                       N    
RDG02115000WATRL000000004K00000000000005647011701222015111628N000000000010N26       000340400K 10000000010000005568           
CUS0211500000102305007003         SENIOR, ADOLPH      3510 COTTAGE AVE                        000N        CARE OF             
MTR02115000001000000000000000RA              24230124    005801280000012800000520000003NN  NNW 000                       N    
RDG02115000WATRL000000004K00000000000005031011801222015111630N000000000000N26       000020400K 10000000010000005000           
CUS0211500000102305008001         SOCIETY OF ST VINCEN3508 COTTAGE AVE                        000N        CARE OF             
MTR02115000001000000000000000RA              46890049    007501290000012900000520000003NN  NNW 000                       N    
RDG02115000WATRL000000004K00000000000001551011901222015111711N000300000010N26       000410400K 10000000010000001479           
CUS0211500000102305009009         KNOX JR., CLARENCE L3506 COTTAGE AVE                        000N        CARE OF             
MTR02115000001000000000000000RA              99288528    005801300000013000000570000003NN  NNW 000                       N    
RDG02115000WATRL000000004K00000000000001441012001222015111757N000400000011N26       000300400K 10000000010000001437           
CUS0211500000102305010007         CLARENCE L KNOX JR. 3504 COTTAGE AVE                        000N        CARE OF             
MTR02115000001000000000000000RA              50479000    005801310000013100000520000003NN  NNW 000                       N    
RDG02115000WATRL000000004K00000000000001063012301222015111906N000000000000N26       000160400K 10000000010000001054           
CUS0211500000102305011005         HARCUM, CHARLES S.  3502 COTTAGE AVE                        000N        CARE OF             
MTR02115000001000000000000000RA              32176163    005801320000013200000520000003NN  NNW 000                       N    
RDG02115000WATRL000000004K00000000000003157012101222015111822N000000000000N26       000250400K 10000000010000003139           
CUS0211500000102305012003         QUILES, IVAN        3500 COTTAGE AVE                        000N        CARE OF             
MTR02115000001000000000000000RA              10002344    005801330000013300000570000003NN  NNW 000                       N    
RDG02115000WATRL000000004K00000000000000571012201222015111925N000400000021N26       000190400K 10000000010000000541           
CUS0211500000102305013001         SOCIETY OF ST VINCEN2604 ULMAN AVE                          000N        CARE OF             
MTR02115000001000000000000000RA              01098396    007501340000013400000610000003NN  NNW 000                       N    
RDG02115000WATRL000000004K00000000000001438008901222015105037N000000000000N26       000020400K 10000000010000001392           
CUS0211500000102305014009         J. LEWIS AND SONS LL2606 ULMAN AVE                          000N        CARE OF             
MTR02115000001000000000000000RA              52292644    007501350000013500000520000003NN  NNW 000                       N    
RDG02115000WATRL000000004K00000000000002540008801222015105035N000000000000N26       000590400K 10000000010000002519           
CUS0211500000102372768008         LEE, KWAN YOUNG     3601-05 PARK HTS AVE                    000N        CARE OF             
MTR02115000001000000000000000RA              31345814    007501360000013600000520000003NY  NNW 000                       N    
MTM0211500031345814    FOGGY                                                                                                  
RDG02115000WATRL000000004K00000000000004642009201222015105213N000000000000N26       000600400K 10000000010000004606           
CUS0211500000102305018000         MAYOR AND CITY COUNC3607 PARK HTS AVE                       000N        CARE OF             
MTR02115000001000000000000000RA              99999999    005801370000013700000620000003NN  NNW 000                       N    
RDG02115000WATRL000000004K00000000000002128003501232015094408N000000000000U26       000030400K 10000000010000002128           
CUS0211500000102305019008         MAYOR AND CITY COUNC3609 PARK HTS AVE                       000N        CARE OF             
MTR02115000001000000000000000RA              99999999    005801380000013800000620000003NN  NNW 000                       N    
RDG02115000WATRL000000004K00000000000000770003601232015094413N000000000000U26       000050400K 10000000010000000770           
CUS0211500000102305020006         HOUSING AUTHORITY   3611 PARK HTS AVE                       000N        CARE OF             
MTR02115000001000000000000000RA              30515525    005801390000013900000520000003NN  NNW 000                       N    
RDG02115000WATRL000000004K00000000000009842003701232015094739N000000000001U26       002060400K 10000000010000009842           
CUS0211500000102305021004         GREEN, MATTIE       3613 PARK HTS AVE                       000N        CARE OF             
MTR02115000001000000000000000RA              01100282    005801400000014000000610000003NN  NNW 000                       N    
RDG02115000WATRL000000004K00000000000000882009301222015105304N000000000000N26       000510400K 10000000010000000868           
CUS0211500000102305022002         BENROCHD, NAWAR     3615 PARK HTS AVE                       000N        CARE OF             
MTR02115000001000000000000000RA              76348575    005801410000014100000350000003NN  NNW 000                       N    
RDG02115000WATRL000000004K00000000000000048009401222015105318N000100000010N26       000140400K 10000000010000000048           
CUS0211500000102305023000         SHALITA S WILLIAMS  3617 PARK HTS AVE                       000N        CARE OF             
MTR02115000001000000000000000RA              14930119    005801420000014200000310000003NN  NNW 000   VACANT PROPERTY     N    
RDG02115000WATRL000000004K00000000000000000003801232015094746N000000000000U26       000070400K 10000000010000000000           
CUS0211500000102305024008         AKINSELI, ADENIKE   3619 PARK HTS AVE                       000N        CARE OF             
MTR02115000001000000000000000RA              29686361    005801430000014300000520000003NN  NNW 000                       N    
RDG02115000WATRL000000004K00000000000001844009501222015105340N000000000000N26       000220400K 10000000010000001832           
CUS0211500000102305025005         SCHUYLER, NEISHALL K3621 PARK HTS AVE                       000N        CARE OF             
MTR02115000001000000000000000RA              14916320    005801440000014400000310000003NN  NNW 000                       N    
RDG02115000WATRL000000004K00000000000000221009601222015105356N000000000000N26       000160400K 10000000010000000217           
CUS0211500000102305027001         AZIZ, MUHAMMED      3625 PARK HTS AVE                       000N        CARE OF             
MTR02115000001000000000000000RA              14930032    005801450000014500000310000003NN  NNW 000                       N    
RDG02115000WATRL000000004K00000000000000882003901232015095012N000000000000U26       001460400K 10000000010000000882           
CUS0211500000102305028009         MAYOR AND CITY COUNC3627 PARK HTS AVE                       000N        CARE OF             
MTR02115000001000000000000000RA              99999999    005801460000014600000620000003NN  NNW 000                       N    
RDG02115000WATRL000000004K00000000000003331004001232015095015N000000000000U26       000030400K 10000000010000003331           
CUS0211500000102305029007         MAYOR AND CITY COUNC3629 PARK HTS AVE                       000N        CARE OF             
MTR02115000001000000000000000RA              99999999    005801470000014700000620000003NN  NNW 000                       N    
RDG02115000WATRL000000004K00000000000002243004101232015095019N000000000000U26       000040400K 10000000010000002243           
CUS0211500000102305030005         REDDICKS, ALEASE M  3631 PARK HTS AVE                       000N        CARE OF             
MTR02115000001000000000000000RA              29686316    005801480000014800000520000003NN  NNW 000                       N    
RDG02115000WATRL000000004K00000000000002815009801222015105440N000000000000N26       000160400K 10000000010000002793           
CUS0211500000102305033009         GROUP 8 & 8 LLC     3639 PARK HTS AVE                       000N        CARE OF             
MTR02115000001000000000000000RA              52288550    005801490000014900000520000003NN  NNW 000                       N    
RDG02115000WATRL000000004K00000000000001012009901222015105501N000000000000N26       000210400K 10000000010000000996           
CUS0211500000102305034007         GROUP 8 & 8 LLC     3641 PARK HTS AVE                       000N        CARE OF             
MTR02115000001000000000000000RA              14911172    005801500000015000000310000003NN  NNW 000                       N    
RDG02115000WATRL000000004K00000000000000426010001222015105526N000000000000N26       000250400K 10000000010000000420           
CUS0211500000102305036002         EVANS, MELBA D      3645 PARK HTS AVE                       000N        CARE OF             
MTR02115000001000000000000000RA              10022934    005801510000015100000570000003NN  NNW 000                       N    
RDG02115000WATRL000000004K00000000000000143010101222015105559N000000000000N26       000330400K 10000000010000000123           
CUS0211500000102305037000         LUCAS, BELINDA A    3647 PARK HTS AVE                       000N        CARE OF             
MTR02115000001000000000000000RA              74814885    007501520000015200000350000003NN  NNW 000                       N    
RDG02115000WATRL000000004K00000000000000140010201222015105655N000000000000N26       000560400K 10000000010000000122           
CUS0211500000102305038008         SMITH, GLENN D      3649 PARK HTS AVE                       000N        CARE OF             
MTR02115000001000000000000000RA              45389339    007501530000015300000520000003NN  NNW 000                       N    
RDG02115000WATRL000000004K00000000000003738004201232015095118N000000000000U26       000590400K 10000000010000003738           
CUS0211500000102305039006         WILLIAMS, MICHAEL T.3651 PARK HTS AVE                       000N        CARE OF             
MTR02115000001000000000000000RA              99999999    005801540000015400000620000003NN  NNW 000                       N    
RDG02115000WATRL000000004K00000000000007097004301232015095342N000000000000U26       001440400K 10000000010000007097           
CUS0211500000102305040004         MAYOR AND CITY COUNC3653 PARK HTS AVE                       000N        CARE OF             
MTR02115000001000000000000000RA              99999999    005801550000015500000620000003NN  NNW 000                       N    
RDG02115000WATRL000000004K00000000000004615004401232015095438N000000000000U26       000560400K 10000000010000004615           
CUS0211500000102305041002         NEAL, THERESA E     3655 PARK HTS AVE                       000N        CARE OF             
MTR02115000001000000000000000RA              38887057    005801560000015600000520000003NN  NNW 000                       N    
RDG02115000WATRL000000004K00000000000001506010401222015105733N000400000010N26       000340400K 10000000010000001504           
CUS0211500000102305042000         FARROW, RENE        3657 PARK HTS AVE                       000N        CARE OF             
MTR02115000001000000000000000RA              14905496    005801570000015700000310000003NN  NNW 000                       N    
RDG02115000WATRL000000004K00000000000001037004501232015095517N000000000000U26       000390400K 10000000010000001037           
CUS0211500000102305043008         PARKER, MOSES       3659 PARK HTS AVE                       000N        CARE OF             
MTR02115000001000000000000000RA              01092393    005801580000015800000610000003NN  NNW 000                       N    
RDG02115000WATRL000000004K00000000000001077010601222015105749N000000000000N26       000140400K 10000000010000001047           
CUS0211500000102305044006         GOODMAN, DAVID L    2627 VIOLET AVE                         000N        CARE OF             
MTR02115000001000000000000000RA              14916602    005801590000015900000310000003NN  NNW 000                       N    
RDG02115000WATRL000000004K00000000000000096004501222015103417N000000000010N26       006470400K 10000000010000000090           
CUS0211500000102305045003         O'BOYLE, JENNIFER MA2625 VIOLET AVE                         000N        CARE OF             
MTR02115000001000000000000000RA              75617717    005801600000016000000350000003NN  NNW 000                       N    
RDG02115000WATRL000000004K00000000000000058004601222015103433N000000000000N26       000160400K 10000000010000000051           
CUS0211500000102305046001         GBAHC PARK HEIGHTS H2623 VIOLET AVE                         000N        CARE OF             
MTR02115000001000000000000000RA              30526244    005801610000016100000520000003NN  NNW 000                       N    
RDG02115000WATRL000000004K00000000000002803004601232015095556N000000000000U26       000390400K 10000000010000002803           
CUS0211500000102305047009         MONTGOMERY, DARYL   2621 VIOLET AVE                         000N        CARE OF             
MTR02115000001000000000000000RA              45386431    005801620000016200000520000003NN  NNW 000                       N    
RDG02115000WATRL000000004K00000000000003845004801222015103449N000000000010N26       000120400K 10000000010000003836           
CUS0211500000102305048007         GBAHC PARK HEIGHTS H2619 VIOLET AVE                         000N        CARE OF             
MTR02115000001000000000000000RA              30524032    005801630000016300000520000003NN  NNW 000                       N    
RDG02115000WATRL000000004K00000000000003357004701232015095624N000000000000U26       000280400K 10000000010000003357           
CUS0211500000102305050003         STINYARD, TAMIKA D  3634 COTTAGE AVE                        000N        CARE OF             
MTR02115000001000000000000000RA              01098893    007501640000016400000610000003NN  NNW 000                       N    
RDG02115000WATRL000000004K00000000000000493005001222015103536N000000000000N26       000440400K 10000000010000000477           
CUS0211500000102305051001         MARQUEZ, ELSY       3632 COTTAGE AVE                        000N        CARE OF             
MTR02115000001000000000000000RA              14918282    007501650000016500000310000003NN  NNW 000                       N    
RDG02115000WATRL000000004K00000000000000323005101222015103556N000000000000N26       000200400K 10000000010000000314           
CUS0211500000102305052009         ANNIE KING          3630 COTTAGE AVE                        000N        CARE OF             
MTR02115000001000000000000000RA              33736606    007501660000016600000520000003NN  NNW 000                       N    
RDG02115000WATRL000000004K00000000000001347005201222015103558N000000000000N26       000020400K 10000000010000001340           
CUS0211500000102305053007         JONES, CHARLES      3628 COTTAGE AVE                        000N        CARE OF             
MTR02115000001000000000000000RA              27678292    007501670000016700000520000003NN  NNW 000                       N    
RDG02115000WATRL000000004K00000000000005115005301222015103624N000000000000N26       000260400K 10000000010000005098           
CUS0211500000102305054005         JONATHAN WADE       3626 COTTAGE AVE                        000N        CARE OF             
MTR02115000001000000000000000RA              27678290    007501680000016800000520000003NN  NNW 000                       N    
RDG02115000WATRL000000004K00000000000003132005401222015103627N000300000010N26       000030400K 10000000010000003124           
CUS0211500000102305055002         SFH HOLDING, INC.   3624 COTTAGE AVE                        000N        CARE OF             
MTR02115000001000000000000000RA              39257764    007501690000016900000520000003NN  NNW 000                       N    
RDG02115000WATRL000000004K00000000000003027006001222015103911N000000000000N26       000250400K 10000000010000003001           
CUS0211500000102305056000         K & T BROOKINS      3622 COTTAGE AVE                        000N        CARE OF             
MTR02115000001000000000000000RA              46889735    007501700000017000000520000003NN  NNW 000                       N    
RDG02115000WATRL000000004K00000000000001853006101222015103915N000300000010N26       000040400K 10000000010000001823           
CUS0211500000102305057008         ANSHEL, NOEL        3620 COTTAGE AVE                        000N        CARE OF             
MTR02115000001000000000000000RA              30791426    007501710000017100000520000003NN  NNW 000                       N    
RDG02115000WATRL000000004K00000000000002661006201222015103951N000000000000N26       000360400K 10000000010000002647           
CUS0211500000102305058006         HUNTER-HANCE, MARGAR3618 COTTAGE AVE                        000N        CARE OF             
MTR02115000001000000000000000RA              29069827    007501720000017200000520000003NN  NNW 000                       N    
RDG02115000WATRL000000004K00000000000003026006301222015103953N000000000000N26       000020400K 10000000010000003017           
CUS0211500000102305059004         GIBBS, MAXINE R M   3616 COTTAGE AVE                        000N        CARE OF             
MTR02115000001000000000000000RA              30000084    007501730000017300000570000003NN  NNW 000                       N    
RDG02115000WATRL000000004K00000000000000407006401222015104040N000000000000N26       000470400K 10000000010000000385           
CUS0211500000102305060002         SMALLWOOD, DAWNTAY  3614 COTTAGE AVE                        000N        CARE OF             
MTR02115000001000000000000000RA              30000390    007501740000017400000570000003NN  NNW 000                       N    
RDG02115000WATRL000000004K00000000000000471006501222015104041N000000000000N26       000010400K 10000000010000000443           
CUS0211500000102305061000         PATEL, PURVITA      3612 COTTAGE AVE                        000N        CARE OF             
MTR02115000001000000000000000RA              14925369    005801750000017500000310000003NN  NNW 000                       N    
RDG02115000WATRL000000004K00000000000001770006601222015104105N000400000020N26       000240400K 10000000010000001750           
CUS0211500000102305062008         MJ 1, ENTERPRISES, L3610 COTTAGE AVE                        000N        CARE OF             
MTR02115000001000000000000000RA              35105925    007501760000017600000520000003NN  NNW 000   VACANT PROPERTY     N    
RDG02115000WATRL000000004K00000000000004153004801232015095717N000000000000U26       000530400K 10000000010000004153           
CUS0211500000102305063006         ROBERSON, BARBARA A.3608 COTTAGE AVE                        000N        CARE OF             
MTR02115000001000000000000000RA              30001062    007501770000017700000320000003NN  NNW 000                       N    
RDG02115000WATRL000000004K00000000000000174007201222015104401N000000000000N26       000150400K 10000000010000000167           
CUS0211500000102305064004         MARAJ, BENADEVI     3606 COTTAGE AVE                        000N        CARE OF             
MTR02115000001000000000000000RA              10002380    005801780000017800000570000003NN  NNW 000                       N    
RDG02115000WATRL000000004K00000000000000094004901232015095929N000000000000U26       001320400K 10000000010000000094           
CUS0211500000102305065001         COTTAGE AVENUE VENTU3604 COTTAGE AVE                        000N        CARE OF             
MTR02115000001000000000000000RA              99999999    007501790000017900000620000003NN  NNW 000                       N    
RDG02115000WATRL000000004K00000000000004149005001232015095932N000000000000U26       000030400K 10000000010000004149           
CUS0211500000102305066009         SOCIETY OF SAINT VIN3602 COTTAGE AVE                        000N        CARE OF             
MTR02115000001000000000000000RA              99291956    005801800000018000000570000003NN  NNW 000                       N    
RDG02115000WATRL000000004K00000000000001259005101232015095935N000000000000U26       000030400K 10000000010000001259           
CUS0211500000102305067007         LEGGETT, PATRICIA YO3600 COTTAGE AVE                        000N        CARE OF             
MTR02115000001000000000000000RA              29069079    007501810000018100000520000003NN  NNW 000                       N    
RDG02115000WATRL000000004K00000000000004357005201232015100003N000000000000U26       000280400K 10000000010000004357           
CUS0211500000102305068005         SOCIETY OF ST.VINCEN2600 ULMAN AVE                          000N        CARE OF             
MTR02115000001000000000000000RA              00121005    007501820000018200000570000003NN  NNW 000                       N    
RDG02115000WATRL000000004K00000000000001197008701222015104936N000300000010N26       000030400K 10000000010000001182           
CUS0211500000102305069003         SOCIETY OF SAINT VIN2602 ULMAN AVE                          000N        CARE OF             
MTR02115000001000000000000000RA              52292601    007501830000018300000520000003NN  NNW 000                       N    
RDG02115000WATRL000000004K00000000000002268008601222015104933N000000000000N26       000390400K 10000000010000002232           
CUS0211500000102305070001         WILLIE WILLIAMS & WF3601 COTTAGE AVE                        000N        CARE OF             
MTR02115000001000000000000000RA              00118723    007501840000018400000570000003NN  NNW 000                       N    
RDG02115000WATRL000000004K00000000000002116008501222015104854N000300000010N26       000030400K 10000000010000002059           
CUS0211500000102305071009         THOMAS SR., GERALD E3603 COTTAGE AVE                        000N        CARE OF             
MTR02115000001000000000000000RA              35705717    007501850000018500000520000003NN  NNW 000                       N    
RDG02115000WATRL000000004K00000000000002425008401222015104851N000000000000N26       000160400K 10000000010000002411           
CUS0211500000102305072007         SOCIETY OF ST VINCEN3605 COTTAGE AVE                        000N        CARE OF             
MTR02115000001000000000000000RA              46890830    007501860000018600000520000003NN  NNW 000                       N    
RDG02115000WATRL000000004K00000000000000809008301222015104835N000000000000N26       000020400K 10000000010000000793           
CUS0211500000102305073005         RANDALL, YVETTE     3607 COTTAGE AVE                        000N        CARE OF             
MTR02115000001000000000000000RA              35105719    007501870000018700000520000003NN  NNW 000                       N    
RDG02115000WATRL000000004K00000000000002545008201222015104833N000000000000N26       000260400K 10000000010000002531           
CUS0211500000102305074003         ST VINCENT DE PAUL  3609 COTTAGE AVE                        000N        CARE OF             
MTR02115000001000000000000000RA              52292738    005801880000018800000570000003NN  NNW 000                       N    
RDG02115000WATRL000000004K00000000000001656008101222015104807N000000000000N26       000280400K 10000000010000001638           
CUS0211500000102305075000         BELLO, JIMMY A.     3611 COTTAGE AVE                        000N        CARE OF             
MTR02115000001000000000000000RA              00119706    007501890000018900000570000003NN  NNW 000                       N    
RDG02115000WATRL000000004K00000000000000671008001222015104739N000000000000N26       000200400K 10000000010000000626           
CUS0211500000102305076008         GRANITE PROPERTIES I3613 COTTAGE AVE                        000N        CARE OF             
MTR02115000001000000000000000RA              43905763    007501900000019000000520000003NN  NNW 000                       N    
RDG02115000WATRL000000004K00000000000001765007901222015104719N000000000000N26       000160400K 10000000010000001751           
CUS0211500000102305077006         LAVERNE V TAYLOR    3615 COTTAGE AVE                        000N        CARE OF             
MTR02115000001000000000000000RA              10008963    005801910000019100000570000003NN  NNW 000                       N    
RDG02115000WATRL000000004K00000000000000340007801222015104703N000400000010N26       000160400K 10000000010000000333           
CUS0211500000102305078004         MONTGOMERY, TOSHA A 3617 COTTAGE AVE                        000N        CARE OF             
MTR02115000001000000000000000RA              30000329    007501920000019200000570000003NN  NNW 000                       N    
RDG02115000WATRL000000004K00000000000000237007701222015104647N000000000000N26       000130400K 10000000010000000221           
CUS0211500000102305079002         LEWIS, JEFF         3619 COTTAGE AVE                        000N        CARE OF             
MTR02115000001000000000000000RA              35105716    007501930000019300000520000003NN  NNW 000                       N    
RDG02115000WATRL000000004K00000000000001902007601222015104634N000300000020N26       000510400K 10000000010000001882           
CUS0211500000102305080000         BROWN, MELVIN       3621 COTTAGE AVE                        000N        CARE OF             
MTR02115000001000000000000000RA              77544807    007501940000019400000350000003NN  NNW 000                       N    
RDG02115000WATRL000000004K00000000000000000005301232015100025N000000000000U26       000220400K 10000000010000000000           
CUS0211500000102305081008         TYHAI PROPERTIES, LL3623 COTTAGE AVE                        000N        CARE OF             
MTR02115000001000000000000000RA              99375910    007501950000019500000570000003NN  NNW 000                       N    
RDG02115000WATRL000000004K00000000000001716007501222015104543N000300000010N26       000630400K 10000000010000001483           
CUS0211500000102305082006         HORACE MADDEN       3625 COTTAGE AVE                        000N        CARE OF             
MTR02115000001000000000000000RA              99375590    007501960000019600000570000003NN  NNW 000                       N    
RDG02115000WATRL000000004K00000000000000535007101222015104346N000000000000N26       000250400K 10000000010000000527           
CUS0211500000102305083004         L. SIMON            3627 COTTAGE AVE                        000N        CARE OF             
MTR02115000001000000000000000RA              35105649    007501970000019700000520000003NN  NNW 000   VACANT PROPERTY     N    
RDG02115000WATRL000000004K00000000000000015005401232015100059N000000000000U26       000340400K 10000000010000000015           
CUS0211500000102305084002         YORKMAN JR., GEORGE 3629 COTTAGE AVE                        000N        CARE OF             
MTR02115000001000000000000000RA              52292127    007501980000019800000520000003NN  NNW 000                       N    
RDG02115000WATRL000000004K00000000000000779007001222015104321N000000000000N26       000630400K 10000000010000000774           
CUS0211500000102305085009         LITTLE, KAREN I.    3631 COTTAGE AVE                        000N        CARE OF             
MTR02115000001000000000000000RA              46890724    007501990000019900000520000003NN  NNW 000   VACANT PROPERTY     N    
RDG02115000WATRL000000004K00000000000001440005501232015100147N000000000000U26       000480400K 10000000010000001440           
CUS0211500000102305086007         BAYNE, STEPHEN B.   3633 COTTAGE AVE                        000N        CARE OF             
MTR02115000001000000000000000RA              27893736    007502000000020000000520000003NN  NNW 000                       N    
RDG02115000WATRL000000004K00000000000004452006901222015104218N000000000000N26       000140400K 10000000010000004422           
CUS0211500000102305087005         CITY HOMES WEST BUSI3635 COTTAGE AVE                        000N        CARE OF             
MTR02115000001000000000000000RA              39257794    007502010000020100000520000003NN  NNW 000                       N    
RDG02115000WATRL000000004K00000000000002399006801222015104204N000000000000N26       000240400K 10000000010000002377           
CUS0211500000102305088003         RACHEL WILSON       3637 COTTAGE AVE                        000N        CARE OF             
MTR02115000001000000000000000RA              39256688    007502020000020200000520000003NN  NNW 000                       N    
RDG02115000WATRL000000004K00000000000001309006701222015104140N000000000000N26       000350400K 10000000010000001301           
CUS0211500000102305089001         CHASE RECORDS CENTER3639 COTTAGE AVE                        000N        CARE OF             
MTR02115000001000000000000000RA              01112835    005802030000020300000610000003NN  NNW 000   VACANT PROPERTY     N    
RDG02115000WATRL000000004K00000000000000384005601232015100258N000000000000U26       000710400K 10000000010000000384           
CUS0211500000102305090009         SABERIAN, JALIL     3641 COTTAGE AVE                        000N        CARE OF             
MTR02115000001000000000000000RA              01112839    005802040000020400000610000003NN  NNW 000   VACANT PROPERTY     N    
RDG02115000WATRL000000004K00000000000000021005701232015100318N000000000000U26       000200400K 10000000010000000021           
CUS0211500000102305091007         ABUL KHAIR KHAN, NAW3643 COTTAGE AVE                        000N        CARE OF             
MTR02115000001000000000000000RA              35105866    007502050000020500000520000003NN  NNW 000   VACANT PROPERTY     N    
RDG02115000WATRL000000004K00000000000002364005801232015100335N000000000000U26       000170400K 10000000010000002364           
CUS0211500000102305092005         GORSUCH, LLC        3645 COTTAGE AVE                        000N        CARE OF             
MTR02115000001000000000000000RA              30000882    007502060000020600000570000003NN  NNW 000                       N    
RDG02115000WATRL000000004K00000000000000224005901222015103846N000000000010N26       000470400K 10000000010000000217           
CUS0211500000102305093003         DORREN G RENNES     3647 COTTAGE AVE                        000N        CARE OF             
MTR02115000001000000000000000RA              31345262    007502070000020700000520000003NN  NNW 000   VACANT PROPERTY     N    
RDG02115000WATRL000000004K00000000000000473005901232015100723N000000000000U26       002280400K 10000000010000000473           
CUS0211500000102305094001         BULLDOG PENORSE LLC 3649 COTTAGE AVE                        000N        CARE OF             
MTR02115000001000000000000000RA              31345263    007502080000020800000520000003NN  NNW 000   VACANT PROPERTY     N    
RDG02115000WATRL000000004K00000000000000798006001232015100754N000000000000U26       000310400K 10000000010000000798           
CUS0211500000102305095008         JEANETTE S THOMAS   3651 COTTAGE AVE                        000N        CARE OF             
MTR02115000001000000000000000RA              35105646    007502090000020900000520000003NN  NNW 000                       N    
RDG02115000WATRL000000004K00000000000003977005501222015103705N000000000000N26       000380400K 10000000010000003948           
CUS0211500000102305096006         BROWN, ROBERT C     3653 COTTAGE AVE                        000N        CARE OF             
MTR02115000001000000000000000RA              28766796    007502100000021000000520000003NN  NNW 000                       N    
RDG02115000WATRL000000004K00000000000004198005601222015103707N000000000000N26       000020400K 10000000010000004187           
CUS0211500000102305097004         SECRETARY OF HOUSING3655 COTTAGE AVE                        000N        CARE OF             
MTR02115000001000000000000000RA              76349502    007502110000021100000350000003NN  NNW 000                       N    
RDG02115000WATRL000000004K00000000000000000006101232015100829N000000000000U26       000350400K 10000000010000000000           
CUS0211500000102305098002         DELMAR BREWER       3657 COTTAGE AVE                        000N        CARE OF             
MTR02115000001000000000000000RA              27895843    007502120000021200000520000003NN  NNW 000                       N    
RDG02115000WATRL000000004K00000000000003903005701222015103735N000000000000N26       000280400K 10000000010000003881           
CUS0211500000102305099000         WEBB, RODNEY        3659 COTTAGE AVE                        000N        CARE OF             
MTR02115000001000000000000000RA              43904021    007502130000021300000520000003NN  NNW 000                       N    
RDG02115000WATRL000000004K00000000000002955005801222015103759N000300000010N26       000240400K 10000000010000002945           
CUS0211500000102305101004         DELORES E OFFER     3736 COTTAGE AVE                        000N        CARE OF             
MTR02115000001000000000000000RA              27133292    005802140000021400000520000003NN  NNW 000                       N    
RDG02115000WATRL000000004K00000000000004507003701222015102014N000000000000N26       000020400K 10000000010000004494           
CUS0211500000102305102002         ECI HOLDINGS, LLC   3734 COTTAGE AVE                        000N        CARE OF             
MTR02115000001000000000000000RA              14923141    005802150000021500000310000003NN  NNW 000                       N    
RDG02115000WATRL000000004K00000000000000926003601222015102012N000000000000N26       000200400K 10000000010000000810           
CUS0211500000102305103000         LEWIS, DAVID L      3732 COTTAGE AVE                        000N        CARE OF             
MTR02115000001000000000000000RA              00126239    005802160000021600000570000003NN  NNW 000                       N    
RDG02115000WATRL000000004K00000000000001155003501222015101952N000000000000N26       000040400K 10000000010000001134           
CUS0211500000102305104008         WASHINGTON, KATRICE 3730 COTTAGE AVE                        000N        CARE OF             
MTR02115000001000000000000000RA              00126238    005802170000021700000570000003NN  NNW 000                       N    
RDG02115000WATRL000000004K00000000000002741006201232015100835N000000000000U26       000060400K 10000000010000002741           
CUS0211500000102305105005         RJW TRUCKING, LLC   3728 COTTAGE AVE                        000N        CARE OF             
MTR02115000001000000000000000RA              10016153    005802180000021800000570000003NN  NNW 000                       N    
RDG02115000WATRL000000004K00000000000000303003301222015101930N000000000000N26       000020400K 10000000010000000268           
CUS0211500000102305106003         GREEN JR., JOHN EDDI3726 COTTAGE AVE                        000N        CARE OF             
MTR02115000001000000000000000RA              00126240    005802190000021900000570000003NN  NNW 000                       N    
RDG02115000WATRL000000004K00000000000001152003201222015101928N000000000000N26       000260400K 10000000010000001136           
CUS0211500000102305107001         GREEN JR, JOHN E    3724 COTTAGE AVE                        000N        CARE OF             
MTR02115000001000000000000000RA              30523901    005802200000022000000520000003NN  NNW 000                       N    
RDG02115000WATRL000000004K00000000000003153003101222015101902N000000000000N26       000010400K 10000000010000003134           
CUS0211500000102305108009         CHRISTIAN, STEPHEN  3722 COTTAGE AVE                        000N        CARE OF             
MTR02115000001000000000000000RA              10003409    005802210000022100000570000003NN  NNW 000                       N    
RDG02115000WATRL000000004K00000000000000093003001222015101901N000000000000N26       000440400K 10000000010000000078           
CUS0211500000102305109007         SATTERFIELD, COLLINS3720 COTTAGE AVE                        000N        CARE OF             
MTR02115000001000000000000000RA              27827622    005802220000022200000520000003NY  NNW 000                       N    
MTM0211500027827622    FOG                                                                                                    
RDG02115000WATRL000000004K00000000000002518006301232015100837N000000000000U26       000020400K 10000000010000002518           
CUS0211500000102305110005         SINGH INVESTMENTS RE3718 COTTAGE AVE                        000N        CARE OF             
MTR02115000001000000000000000RA              45385210    005802230000022300000520000003NN  NNW 000                       N    
RDG02115000WATRL000000004K00000000000002155002901222015101817N000100000010N26       000420400K 10000000010000002155           
CUS0211500000102305111003         BULLDOG PENROSE LLC 3716 COTTAGE AVE                        000N        CARE OF             
MTR02115000001000000000000000RA              10004607    005802240000022400000570000003NN  NNW 000                       N    
RDG02115000WATRL000000004K00000000000000388002801222015101735N000300000010N26       000030400K 10000000010000000368           
CUS0211500000102305112001         VERA A MORGAN       3714 COTTAGE AVE                        000N        CARE OF             
MTR02115000001000000000000000RA              01082884    005802250000022500000610000003NN  NNW 000                       N    
RDG02115000WATRL000000004K00000000000001033002701222015101732N000000000000N26       002690400K 10000000010000001015           
CUS0211500000102305113009         GABRICK, ANDREA     3712 COTTAGE AVE                        000N        CARE OF             
MTR02115000001000000000000000RA              46886031    005802260000022600000520000003NN  NNW 000                       N    
RDG02115000WATRL000000004K00000000000001504003801222015102121N000100000010N26       000670400K 10000000010000001504           
CUS0211500000102305114007         SAB CONSTRUCTION AND3710 COTTAGE AVE                        000N        CARE OF             
MTR02115000001000000000000000RA              30524094    005802270000022700000520000003NN  NNW 000                       N    
RDG02115000WATRL000000004K00000000000003842003901222015102126N000400000010N26       000050400K 10000000010000003832           
CUS0211500000102305115004         819 NORTH CURLEY, LL3708 COTTAGE AVE                        000N        CARE OF             
MTR02115000001000000000000000RA              45382475    005802280000022800000520000003NN  NNW 000                       N    
RDG02115000WATRL000000004K00000000000003186004001222015102159N000000000000N26       000330400K 10000000010000003162           
CUS0211500000102305116002         SHIRLEY L FRAZIER   3706 COTTAGE AVE                        000N        CARE OF             
MTR02115000001000000000000000RA              26003713    005802290000022900000520000003NN  NNW 000                       N    
RDG02115000WATRL000000004K00000000000005794004101222015102203N000000000000N26       000040400K 10000000010000005754           
CUS0211500000102305117000         QUEEN SR., RAYMOND L3704 COTTAGE AVE                        000N        CARE OF             
MTR02115000001000000000000000RA              11426896    005802300000023000000570000003NN  NNW 000                       N    
RDG02115000WATRL000000004K00000000000003103006401232015100839N000000000000U26       000020400K 10000000010000003103           
CUS0211500000102305118008         VALERIE P WATSON    3702 COTTAGE AVE                        000N        CARE OF             
MTR02115000001000000000000000RA              46878908    005802310000023100000520000003NN  NNW 000                       N    
RDG02115000WATRL000000004K00000000000001742004301222015102310N000000000000N26       000420400K 10000000010000001732           
CUS0211500000102305119006         GRAHAM, GEISHA      3700 COTTAGE AVE                        000N        CARE OF             
MTR02115000001000000000000000RA              76344760    005802320000023200000350000003NN  NNW 000                       N    
RDG02115000WATRL000000004K00000000000000042004401222015102330N000000000000N26       000200400K 10000000010000000026           
RTR02115000NN02320232000002320000000002320232000167NY023202320232000100010000000000000000000001    12292014NY020000 N         
RHD02142000NN01100161000001100000005101610161000244NY016101610161000000240000000000000000000001    01202015NY020000 N         
CUS0214200000102313200004         RILEY, ARTHUR       4838 PARK HTS AVE                       000N        CARE OF             
MTR02142000001000000000000000RA              77988999    005800010000000100000360000003NN  NNW 000                       N    
RDG02142000WATR 000000004R00000000000000006000001252015180000N000300000040N         000000400R 10000000010000000000           
RFF0214200068312562      ERT      0000  956.44375000140000012520151800000000060414100W 1220000N                               
CUS0214200000102313199008         BULLOCK, JERRY E.   4836 PARK HTS AVE                       000N        CARE OF             
MTR02142000001000000000000000RA              77989136    005800020000000200000360000003NN  NNW 000   VACANT PROPERTY     N    
RDG02142000WATR 000000004R00000000000000000000001252015180000N000100000040N         000000400R 10000000010000000000           
RFF0214200068312733      ERT      0000  956.44375000140000012520151800000000000020100W 1220000N                               
CUS0214200000102313198000         MAYOR AND CITY COUNC4834 PARK HTS AVE                       000N        CARE OF             
MTR02142000001000000000000000RA              01114255    005800030000000300000610000003NN  NNW 000   VACANT PROPERTY     N    
RDG02142000WATRL000000004K00000000000000461000101232015073036N000000000000U20       000000400K 10000000010000000461           
CUS0214200000102313197002         ELOISE COVINGTON    4832 PARK HTS AVE                       000N        CARE OF             
MTR02142000001000000000000000RA              77989013    005800040000000400000360000003NN  NNW 000                       N    
RDG02142000WATR 000000004R00000000000000021000001252015180000N000300000040N         000000400R 10000000010000000000           
RFF0214200068312581      ERT      0000  956.44375000140000012520151800000000218952100W 1220000N                               
CUS0214200000102313196004         MEAL MAN 50 PLUS, IN4828 PARK HTS AVE                       000N        CARE OF             
MTR02142000001000000000000000RA              00125529    005800050000000500000570000003NN  NNW 000                       N    
RDG02142000WATRL000000004K00000000000000927000601232015105119N000000000000U20       054730400K 10000000010000000927           
CUS0214200000102313194009         4824 PARK HEIGHTS LL4824 PARK HTS AVE                       000N        CARE OF             
MTR02142000001000000000000000RA              77989133    005800060000000600000360000003NN  NNW 000                       N    
RDG02142000WATR 000000004R00000000000000025000001252015180000N000300000040N         000000400R 10000000010000000000           
RFF0214200068313342      ERT      0000  956.44375000140000012520151800000000251425100W 1220000N                               
CUS0214200000102313193001         PARK HEIGHTS PURCHAS4822 PARK HTS AVE                       000N        CARE OF             
MTR02142000001000000000000000RA              77989014    005800070000000700000360000003NN  NNW 000                       N    
RDG02142000WATR 000000004R00000000000000016000001252015180000N000300000040N         000000400R 10000000010000000000           
RFF0214200068312654      ERT      0000  956.44375000140000012520151800000000168670100W 1220000N                               
CUS0214200000102313191005         SIMON, LENNARD      4818 PARK HTS AVE                       000N        CARE OF             
MTR02142000001000000000000000RA              77989009    005800080000000800000360000003NN  NNW 000                       N    
RDG02142000WATR 000000004R00000000000000007000001252015180000N000300000040N         000000400R 10000000010000000000           
RFF0214200068312595      ERT      0000  956.44375000140000012520151800000000079657100W 1220000N                               
CUS0214200000102313190007         MAYOR AND CITY COUNC4816 PARK HTS AVE                       000N        CARE OF             
MTR02142000001000000000000000RA              77989002    005800090000000900000360000003NN  NNW 000                       N    
RDG02142000WATR 000000004R00000000000000369000001252015180000N000300000040N         000000400R 10000000010000000000           
RFF0214200068313150      ERT      0000  956.44375000140000012520151800000003691662100W 1220000N                               
CUS0214200000102313188001         MAYOR AND CITY COUNC4812 PARK HTS AVE                       000N        CARE OF             
MTR02142000001000000000000000RA              77989142    005800100000001000000360000003NN  NNW 000   VACANT PROPERTY     N    
RDG02142000WATR 000000004R00000000000000000000001252015180000N000100000040N         000000400R 10000000010000000000           
RFF0214200068313345      ERT      0000  956.44375000140000012520151800000000000020100W 1220000N                               
CUS0214200000102313186005         MAYOR AND CITY COUNC4808 PARK HTS AVE                       000N        CARE OF             
MTR02142000001000000000000000RA              35099716    005800110000001100000520000003NN  NNW 000   VACANT PROPERTY     N    
RDG02142000WATRL000000004K00000000000000000000201232015091947N000000000000U20       065510400K 10000000010000000000           
CUS0214200000102313185007         ODELL KNOX          4806 PARK HTS AVE                       000N        CARE OF             
MTR02142000001000000000000000RA              77989010    005800120000001200000360000003NN  NNW 000                       N    
RDG02142000WATR 000000004R00000000000000027000001252015180000N000300000040N         000000400R 10000000010000000000           
RFF0214200068312597      ERT      0000  956.44375000140000012520151800000000275572100W 1220000N                               
CUS0214200000102313184000         LEE, KWANG E.       4804-1/2 PARK HTS AVE                   000N        CARE OF             
MTR02142000001000000000000000RA              77989141    005800130000001300000360000003NN  NNW 000   VACANT PROPERTY     N    
RDG02142000WATR 000000004R00000000000000000000001252015180000N000100000040N         000000400R 10000000010000000000           
RFF0214200068312322      ERT      0000  956.44375000140000012520151800000000000020100W 1220000N                               
CUS0214200000102313183002         LEE, KWANG E.       4804 PARK HTS AVE                       000N        CARE OF             
MTR02142000001000000000000000RA              77989139    005800140000001400000360000003NN  NNW 000                       N    
RDG02142000WATR 000000004R00000000000000008000001252015180000N000300000040N         000000400R 10000000010000000000           
RFF0214200068312782      ERT      0000  956.44375000140000012520151800000000080341100W 1220000N                               
CUS0214200000102313182004         MAYOR AND THE CITY C4802 PARK HTS AVE                       000N        CARE OF             
MTR02142000001000000000000000RA              99999999    005800150000001500000620000003NN  NNW 000   VACANT PROPERTY     N    
RDG02142000WATRL000000004K00000000000000000000701232015105141S002000000000U20       000220400K 10000000010000006923           
CUS0214200000102313180008         HOUSE OF PRAYER OF R3202 WOODLAND AVE                       000N        CARE OF             
MTR02142000001000000000000000RA              77893733    007500160000001600000360000003NN  NNW 000                       N    
RDG02142000WATR 000000004R00000000000000001000001252015180000N000300000040N         000000400R 10000000010000000000           
RFF0214200068312771      ERT      0000  956.44375000140000012520151800000000014594100W 1220000N                               
CUS0214200000102313176006         PASTOR MARLOW L HILL3210 WOODLAND AVE                       000N        CARE OF             
MTR02142000001000000000000000RA              26017956    005800170000001700000520000003NN  NNW 000   VACANT PROPERTY     N    
RDG02142000WATRL000000004K00000000000002725000301232015091951N000000000000U20       000040400K 10000000010000002725           
CUS0214200000102313159002         LEON DAVIS          3320 WOODLAND AVE                       000N        CARE OF             
MTR02142000001000000000000000RA              99999999    005800180000001800000620000003NN  NNW 000   VACANT PROPERTY     N    
RDG02142000WATRL000000004K00000000000000000001101232015105326S022000000000U20       000420400K 10000000010000000163           
CUS0214200000102313154003         MAYOR AND CITY COUNC3332 WOODLAND AVE                       000N        CARE OF             
MTR02142000001000000000000000RA              01094292    005800190000001900000610000003NN  NNW 000   VACANT PROPERTY     N    
RDG02142000WATRL000000004K00000000000000000001201232015105328S022000000000U20       000020400K 10000000010000000713           
CUS0214200000102313153005         MAYOR AND CITY COUNC3332-1/2 WOODLAND AVE                   000N        CARE OF             
MTR02142000001000000000000000RA              01094294    005800200000002000000610000003NN  NNW 000   VACANT PROPERTY     N    
RDG02142000WATRL000000004K00000000000000000001301232015105330S022000000000U20       000020400K 10000000010000000600           
CUS0214200000102313152007         FRYER DEVELOPMENT, L3334 WOODLAND AVE                       000N        CARE OF             
MTR02142000001000000000000000RA              78008594    005800210000002100000360000003NN  NNW 000                       N    
RDG02142000WATR 000000004R00000000000000042000001252015180000N000300000040N         000000400R 10000000010000000000           
RFF0214200068312216      ERT      0000  956.44375000140000012520151800000000420779100W 1220000N                               
CUS0214200000102313150001         FRYER DEVELOPMENT, L4703 BEAUFORT AVE                       000N        CARE OF             
MTR02142000001000000000000000RA              77989137    005800220000002200000360000003NN  NNW 000                       N    
RDG02142000WATR 000000004R00000000000000018000001252015180000N000300000040N         000000400R 10000000010000000000           
RFF0214200068313360      ERT      0000  956.44375000140000012520151800000000180253100W 1220000N                               
CUS0214200000102313149003         4705 BEAUFORT AVENUE4705 BEAUFORT AVE                       000N        CARE OF             
MTR02142000001000000000000000RA              77989069    005800230000002300000360000003NN  NNW 000   VACANT PROPERTY     N    
