FHDNNNN034006961006961007005N                                                                                           022488
RHD02640000NN03110311000003110000000003110311000612NY031103110311000700060000000000000000000001    01202015NY020000 N         
CUS0264000000102049186006         ERIC M ESTERSON     12401 TIMBER GROVE RD                   000N        CARE OF             
MTR02640000001000000000000000RA              26018292    005800010000000100000520000003NN  NNW 000                       N    
RDG02640000WATRL000000004K00000000000000290000101262015084914N000000000000N40       000000400K 10000000010000000270           
CUS0264000000102049187004         BARON STUART M      12405 TIMBER GROVE RD                   000N        CARE OF             
MTR02640000001000000000000000RA              32899103    005800020000000200000520000003NN  NNW 000                       N    
RDG02640000WATRL000000004K00000000000003131000201262015085431N000000000000N40       003170400K 10000000010000003120           
CUS0264000000102049188002         BARBARA A RICKS     12409 TIMBER GROVE RD                   000N        CARE OF             
MTR02640000001000000000000000RA              41074063    005800030000000300000520000003NN  NNW 000                       N    
RDG02640000WATRL000000004K00000000000001747000301262015085547N000000000000N40       000760400K 10000000010000001733           
CUS0264000000102369604000         SALLY M MARKER-SHOWA12411 TIMBER GROVE RD                   000N        CARE OF             
MTR02640000001000000000000000RA              31580461    005800040000000400000520000003NN  NNW 000                       N    
RDG02640000WATRL000000004K00000000000000555000401262015085637N000000000000N40       000500400K 10000000010000000553           
CUS0264000000102049189000         BUTLER ROBERT       12415 TIMBER GROVE RD                   000N        CARE OF             
MTR02640000001000000000000000RA              24759266    005800050000000500000520000003NN  NNW 000                       N    
RDG02640000WATRL000000004K00000000000001966000501262015085706N000000000000N40       000290400K 10000000010000001959           
CUS0264000000102372348009         CECILLA M PARKER    12501 TIMBER GROVE RD                   000N        CARE OF             
MTR02640000001000000000000000RA              33077386    005800060000000600000520000003NN  NNW 000                       N    
RDG02640000WATRL000000004K00000000000005083000601262015085907N000000000000N40       001210400K 10000000010000005031           
CUS0264000000102371980000         JACOBS CHARLES EDWAR1 TIMBER RUN CT                         000N        CARE OF             
MTR02640000001000000000000000RA              14914250    005800070000000700000310000003NN  NNW 000                       N    
RDG02640000WATRL000000004K00000000000001199000701262015090502N000000000000N40       003550400K 10000000010000001178           
CUS0264000000102371979002         LEVIN DAVID JONATHAN12601 TIMBER GROVE RD                   000N        CARE OF             
MTR02640000001000000000000000RA              48592642    005800080000000800000520000003NN  NNW 000                       N    
RDG02640000WATRL000000004K00000000000002335010901262015114215N000000000000N40       001390400K 10000000010000002322           
CUS0264000000102371974003         EDWARDS RICHARD W   12603 TIMBER GROVE RD                   000N        CARE OF             
MTR02640000001000000000000000RA              32902087    005800090000000900000520000003NN  NNW 000                       N    
RDG02640000WATRL000000004K00000000000005544011001262015114646N000000000011N40       002710400K 10000000010000005524           
CUS0264000000102371973005         GARY B HALL         12605 TIMBER GROVE RD                   000N        CARE OF             
MTR02640000001000000000000000RA              24768723    005800100000001000000520000003NN  NNW 000                       N    
RDG02640000WATRL000000004K00000000000006745000101272015085700N000400000010U40       000000400K 10000000010000006725           
CUS0264000000102359209000         JONAS ALAN M        12607 TIMBER GROVE RD                   000N        CARE OF             
MTR02640000001000000000000000RA              29683372    005800110000001100000520000003NN  NNW 000                       N    
RDG02640000WATRL000000004K00000000000006099000201272015090057N000000000000U40       002370400K 10000000010000006081           
CUS0264000000102387908003         SKOLNIK KAY         12609 TIMBER GROVE RD                   000N        CARE OF             
MTR02640000001000000000000000RA              44090947    005800120000001200000520000003NN  NNW 000                       N    
RDG02640000WATRL000000004K00000000000002139000301272015090652N000000000000U40       003550400K 10000000010000002139           
CUS0264000000102387907005         ROSENSTADT IRVIN S  12611 TIMBER GROVE RD                   000N        CARE OF             
MTR02640000001000000000000000RA              76346439    005800130000001300000350000003NN  NNW 000                       N    
RDG02640000WATRL000000004K00000000000000027000401272015090707N000300000020U40       000150400K 10000000010000000007           
CUS0264000000102387906007         MILES DH MILLER     12613 TIMBER GROVE RD                   000N        CARE OF             
MTR02640000001000000000000000RA              39290049    005800140000001400000520000003NN  NNW 000                       N    
RDG02640000WATRL000000004K00000000000004409000501272015090718N000400000010U40       000110400K 10000000010000004404           
CUS0264000000102386871004         TINA D. BRACY       3821 TIMBER VIEW WAY                    000N        CARE OF             
MTR02640000001000000000000000RA              39291840    005800150000001500000520000003NN  NNW 000                       N    
RDG02640000WATRL000000004K00000000000004340003401272015100602N000000000000U40       002020400K 10000000010000004329           
CUS0264000000102388549004         BERLINER IRA K      3 WOODWARD CT                           000N        CARE OF             
MTR02640000001000000000000000RA              75614796    005800160000001600000350000003NN  NNW 000                       N    
RDG02640000WATRL000000004K00000000000000108004501272015100904N000000000001U40       001830400K 10000000010000000085           
CUS0264000000102388548006         EDWIN L RINEHART    5 WOODWARD CT                           000N        CARE OF             
MTR02640000001000000000000000RA              36689675    005800170000001700000520000003NN  NNW 000                       N    
RDG02640000WATRL000000004K00000000000004105004601272015100956N000000000000U40       000520400K 10000000010000004065           
CUS0264000000102388547008         R. MARK HORNER      7 WOODWARD CT                           000N        CARE OF             
MTR02640000001000000000000000RA              01104495    005800180000001800000610000003NN  NNW 000                       N    
RDG02640000WATRL000000004K00000000000001230004701272015101157N000400000010U40       001210400K 10000000010000001217           
CUS0264000000102388546000         IBRAHIM ELSMANOUDI  9 WOODWARD CT                           000N        CARE OF             
MTR02640000001000000000000000RA              75618151    005800190000001900000350000003NN  NNW 000                       N    
RDG02640000WATRL000000004K00000000000000028004801272015101227N000000000000U40       000300400K 10000000010000000027           
CUS0264000000102388545002         IRVIN SELKO         11 WOODWARD CT                          000N        CARE OF             
MTR02640000001000000000000000RA              36690391    005800200000002000000520000003NN  NNW 000                       N    
RDG02640000WATRL000000004K00000000000001912004901272015101234N000000000000U40       000070400K 10000000010000001897           
CUS0264000000102388544005         GLAZER DANIEL       13 WOODWARD CT                          000N        CARE OF             
MTR02640000001000000000000000RA              78005242    005800210000002100000360000003NN  NNW 000                       N    
RDG02640000WATRL000000004K00000000000000014004501272015101428N000000000010U40       000140400K 10000000010000000000           
CUS0264000000102388543007         WERNER TODD         22 WOODWARD CT                          000N        CARE OF             
MTR02640000001000000000000000RA              78008217    005800220000002200000360000003NN  NNW 000                       N    
RDG02640000WATRL000000004K00000000000000008004401272015101414N000000000010U40       000850400K 10000000010000000000           
CUS0264000000102388542009         SMITH FREDRIC       20 WOODWARD CT                          000N        CARE OF             
MTR02640000001000000000000000RA              36693540    005800230000002300000520000003NN  NNW 000                       N    
RDG02640000WATRL000000004K00000000000004618004301272015101249N000000000000U40       000150400K 10000000010000004585           
CUS0264000000102388541001         BURN ELYSIA EVERETT 18 WOODWARD CT                          000N        CARE OF             
MTR02640000001000000000000000RA              36693454    005800240000002400000520000003NN  NNW 000                       N    
RDG02640000WATRL000000004K00000000000005650004201272015101234N000000000000U40       000210400K 10000000010000005638           
CUS0264000000102388540003         JOSEPH G. MCGRAW    16 WOODWARD CT                          000N        CARE OF             
MTR02640000001000000000000000RA              35117553    005800250000002500000520000003NN  NNW 000                       N    
RDG02640000WATRL000000004K00000000000003509004101272015101213N000000000000U40       000230400K 10000000010000003502           
CUS0264000000102388539005         NICHOLS DAVID, BOYD 14 WOODWARD CT                          000N        CARE OF             
MTR02640000001000000000000000RA              35119502    005800260000002600000520000003NN  NNW 000                       N    
RDG02640000WATRL000000004K00000000000005729004001272015101150N000000000000U40       000270400K 10000000010000005662           
CUS0264000000102388538007         KOEHLER MARK M      12 WOODWARD CT                          000N        CARE OF             
MTR02640000001000000000000000RA              35118105    005800270000002700000520000003NN  NNW 000                       N    
RDG02640000WATRL000000004K00000000000005302003901272015101123N000000000000U40       000310400K 10000000010000005258           
CUS0264000000102388537009         VANCE DAWN M KIMBLE 10 WOODWARD CT                          000N        CARE OF             
MTR02640000001000000000000000RA              35118209    005800280000002800000520000003NN  NNW 000                       N    
RDG02640000WATRL000000004K00000000000003958003801272015101052N000000000000U40       000080400K 10000000010000003912           
CUS0264000000102388536001         ZEITLIN MARK        8 WOODWARD CT                           000N        CARE OF             
MTR02640000001000000000000000RA              36695852    005800290000002900000520000003NN  NNW 000                       N    
RDG02640000WATRL000000004K00000000000004038003701272015101044N000000000000U40       000670400K 10000000010000004015           
CUS0264000000102388535003         YOUNG CHARLES W     6 WOODWARD CT                           000N        CARE OF             
MTR02640000001000000000000000RA              36698004    005800300000003000000520000003NN  NNW 000                       N    
RDG02640000WATRL000000004K00000000000004154003601272015100937N000000000000U40       000790400K 10000000010000004119           
CUS0264000000102388534006         KOSARAJU S RAO      4 WOODWARD CT                           000N        CARE OF             
MTR02640000001000000000000000RA              38984281    005800310000003100000520000003NN  NNW 000                       N    
RDG02640000WATRL000000004K00000000000002839003501272015100818N000300000010U40       001360400K 10000000010000002834           
CUS0264000000102386870006         SINGER JEFFREY S    1 WOODWARD CT                           000N        CARE OF             
MTR02640000001000000000000000RA              35117511    005800320000003200000520000003NN  NNW 000                       N    
RDG02640000WATRL000000004K00000000000003284005001272015101634N000000000000U40       002400400K 10000000010000003266           
CUS0264000000102386869008         GORDON STUART J     3817 TIMBER VIEW WAY                    000N        CARE OF             
MTR02640000001000000000000000RA              38984395    005800330000003300000520000003NN  NNW 000                       N    
RDG02640000WATRL000000004K00000000000003325004601272015101855N000000000000U40       002670400K 10000000010000003306           
CUS0264000000102386865006         HIRSCH STUART A     3815 TIMBER VIEW WAY                    000N        CARE OF             
MTR02640000001000000000000000RA              39583254    005800340000003400000520000003NN  NNW 000                       N    
RDG02640000WATRL000000004K00000000000003577004701272015102044N000000000010U40       001090400K 10000000010000003563           
CUS0264000000102387015007         HOFFMAN DONALD N    3813 TIMBER VIEW WAY                    000N        CARE OF             
MTR02640000001000000000000000RA              01112058    005800350000003500000610000003NN  NNW 000                       N    
RDG02640000WATRL000000004K00000000000000570004801272015102237N000000000000U40       001130400K 10000000010000000555           
CUS0264000000102387014000         LICHTIG LAWRENCE R  3811 TIMBER VIEW WAY                    000N        CARE OF             
MTR02640000001000000000000000RA              01112027    005800360000003600000610000003NN  NNW 000                       N    
RDG02640000WATRL000000004K00000000000001100005001272015102538N000000000020U40       000950400K 10000000010000001082           
CUS0264000000102387013002         ZELESNICK BARRY S   3809 TIMBER VIEW WAY                    000N        CARE OF             
MTR02640000001000000000000000RA              01112491    005800370000003700000610000003NN  NNW 000                       N    
RDG02640000WATRL000000004K00000000000001017004901272015102403N000000000020U40       000860400K 10000000010000001005           
CUS0264000000102387012004         MILLER SAMUEL B     3807 TIMBER VIEW WAY                    000N        CARE OF             
MTR02640000001000000000000000RA              76348217    005800380000003800000350000003NN  NNW 000                       N    
RDG02640000WATRL000000004K00000000000000085005101272015102646N000300000010U40       000680400K 10000000010000000053           
CUS0264000000102387011006         MICHEL GEORGE B     3805 TIMBER VIEW WAY                    000N        CARE OF             
MTR02640000001000000000000000RA              39923227    005800390000003900000520000003NN  NNW 000                       N    
RDG02640000WATRL000000004K00000000000005014005201272015102745N000000000000U40       000590400K 10000000010000004981           
CUS0264000000102387010008         BRODY WILLIAM H     3803 TIMBER VIEW WAY                    000N        CARE OF             
MTR02640000001000000000000000RA              35117778    005800400000004000000520000003NN  NNW 000                       N    
RDG02640000WATRL000000004K00000000000007933005301272015103131N000000000000U40       002260400K 10000000010000007905           
CUS0264000000102387009000         WORTHINGTON HILLSIDE3801 TIMBER VIEW WAY                    000N        CARE OF             
MTR02640000001000000000000000RA              99999999    005800410000004100000440000003NN  NNW 000                       N    
RDG02640000WATRL000000004K00000000000000000006901272015104548S022000000000U40       000050400K 10000000010000000136           
CUS0264000000102456947007         BIELET, ROBERT      3709 TIMBER KNOLL RD                    000N        CARE OF             
MTR02640000001000000000000000RA              99999999    000100410210004102100440000000NN  NNW 000                       N    
RDG02640000WATRL000000004K00000000000000000006801272015104543S002000000000U40       000800400K 10000000010000000000           
CUS0264000000102386961003         WILLIAM C BARTON    3707 TIMBER KNOLL RD                    000N        CARE OF             
MTR02640000001000000000000000RA              10015090    005800430000004300000570000003NN  NNW 000                       N    
RDG02640000WATRL000000004K00000000000000250006701272015104423N000000000000U40       000760400K 10000000010000000228           
CUS0264000000102387020007         CARL BAYLIN         3705 TIMBER KNOLL RD                    000N        CARE OF             
MTR02640000001000000000000000RA              14917443    005800440000004400000310000003NN  NNW 000                       N    
RDG02640000WATRL000000004K00000000000000759006601272015104307N000000000000U40       000830400K 10000000010000000736           
CUS0264000000102387019009         IDA E OLSON         3703 TIMBER KNOLL RD                    000N        CARE OF             
MTR02640000001000000000000000RA              01114208    005800450000004500000610000003NN  NNW 000                       N    
RDG02640000WATRL000000004K00000000000000849006501272015104144N000000000000U40       001250400K 10000000010000000839           
CUS0264000000102387017003         ZANNINO DOMENICO    3702 TIMBER KNOLL RD                    000N        CARE OF             
MTR02640000001000000000000000RA              46885036    005800460000004600000520000003NN  NNW 000                       N    
RDG02640000WATRL000000004K00000000000004203006401272015103939N000000000000U40       001520400K 10000000010000004177           
CUS0264000000102387018001         DAVIS LINDA O       3704 TIMBER KNOLL RD                    000N        CARE OF             
MTR02640000001000000000000000RA              10015105    005800470000004700000570000003NN  NNW 000                       N    
RDG02640000WATRL000000004K00000000000000218006301272015103707N000000000000U40       000980400K 10000000010000000207           
CUS0264000000102387003003         COHN ELLEN M        3706 TIMBER VIEW WAY                    000N        CARE OF             
MTR02640000001000000000000000RA              40780440    005800480000004800000520000003NN  NNW 000                       N    
RDG02640000WATRL000000004K00000000000008616006201272015103529N000000000000U40       000640400K 10000000010000008591           
CUS0264000000102387002005         HASKINS JOSEPH      3708 TIMBER VIEW WAY                    000N        CARE OF             
MTR02640000001000000000000000RA              01114386    005800490000004900000610000003NN  NNW 000                       N    
RDG02640000WATRL000000004K00000000000001315006101272015103425N000000000000U40       000310400K 10000000010000001254           
CUS0264000000102387001007         GAWLIK L WILLIAM    3710 TIMBER VIEW WAY                    000N        CARE OF             
MTR02640000001000000000000000RA              36692524    005800500000005000000520000003NN  NNW 000                       N    
RDG02640000WATRL000000004K00000000000004219006001272015103354N000000000000U40       000270400K 10000000010000004197           
CUS0264000000102387000009         BROWN STUART M      3712 TIMBER VIEW WAY                    000N        CARE OF             
MTR02640000001000000000000000RA              45385882    005800510000005100000520000003NN  NNW 000                       N    
RDG02640000WATRL000000004K00000000000002849005901272015103327N000000000000U40       001300400K 10000000010000002827           
CUS0264000000102387004001         MORGAN DOLORES I    3800 TIMBER VIEW WAY                    000N        CARE OF             
MTR02640000001000000000000000RA              36687260    005800520000005200000520000003NN  NNW 000                       N    
RDG02640000WATRL000000004K00000000000000000005801272015103117S063000000000U40       001070400K 10000000010000003712           
CUS0264000000102387005008         WEINTRAUB MARTIN    3802 TIMBER VIEW WAY                    000N        CARE OF             
MTR02640000001000000000000000RA              39923233    005800530000005300000520000003NN  NNW 000                       N    
RDG02640000WATRL000000004K00000000000003540005701272015102930N000000000000U40       000220400K 10000000010000003521           
CUS0264000000102387006006         BACHMAN WILLIAM I   3804 TIMBER VIEW WAY                    000N        CARE OF             
MTR02640000001000000000000000RA              01095899    005800540000005400000610000003NN  NNW 000                       N    
RDG02640000WATRL000000004K00000000000000782005601272015102908N000400000010U40       001750400K 10000000010000000779           
CUS0264000000102387007004         BERGER MARIANNE     3806 TIMBER VIEW WAY                    000N        CARE OF             
MTR02640000001000000000000000RA              36696967    005800550000005500000520000003NN  NNW 000                       N    
RDG02640000WATRL000000004K00000000000004711005501272015102613N000003600000U40       001640400K 10000000010000004574           
CUS0264000000102387008002         MINKOVSKY ALEXANDER 3808 TIMBER VIEW WAY                    000N        CARE OF             
MTR02640000001000000000000000RA              14927545    005800560000005600000310000003NN  NNW 000                       N    
RDG02640000WATRL000000004K00000000000000847005401272015102329N000000000000U40       002100400K 10000000010000000818           
CUS0264000000102386864009         ROMERO ERLANDO E    3810 TIMBER VIEW WAY                    000N        CARE OF             
MTR02640000001000000000000000RA              39290046    005800570000005700000520000003NN  NNW 000                       N    
RDG02640000WATRL000000004K00000000000002366005301272015101959N000000000000U40       000780400K 10000000010000002338           
CUS0264000000102386866004         SHOROFSKY ALAN      3812 TIMBER VIEW WAY                    000N        CARE OF             
MTR02640000001000000000000000RA              36694016    005800580000005800000520000003NN  NNW 000                       N    
RDG02640000WATRL000000004K00000000000003603005201272015101841N000000000000U40       000940400K 10000000010000003583           
CUS0264000000102386867002         WISTAR DAVID W      3814 TIMBER VIEW WAY                    000N        CARE OF             
MTR02640000001000000000000000RA              36698920    005800590000005900000520000003NN  NNW 000                       N    
RDG02640000WATRL000000004K00000000000006326005101272015101707N000000000000U40       000330400K 10000000010000006288           
CUS0264000000102386868000         PEREIRA GABRIELLE   3816 TIMBER VIEW WAY                    000N        CARE OF             
MTR02640000001000000000000000RA              33080806    005800600000006000000520000003NN  NNW 000                       N    
RDG02640000WATRL000000004K00000000000003164004401272015100601N000300000010U40       003560400K 10000000010000003142           
CUS0264000000102387803006         JOSEPH T SPENCER    3820 LOG TRAIL WAY                      000N        CARE OF             
MTR02640000001000000000000000RA              35108327    005800610000006100000520000003NN  NNW 000                       N    
RDG02640000WATRL000000004K00000000000001863002801272015095901N000400000010U40       001670400K 10000000010000001845           
CUS0264000000102387790005         NELSON DANIEL P     3900 LOG TRAIL WAY                      000N        CARE OF             
MTR02640000001000000000000000RA              38985965    005800620000006200000520000003NN  NNW 000                       N    
RDG02640000WATRL000000004K00000000000001199003301272015100240N000000000000U40       000440400K 10000000010000001111           
CUS0264000000102387789007         BARRY DIAMOND       3902 LOG TRAIL WAY                      000N        CARE OF             
MTR02640000001000000000000000RA              36691169    005800630000006300000520000003NN  NNW 000                       N    
RDG02640000WATRL000000004K00000000000004044003101272015100141N000000000000U40       000130400K 10000000010000004012           
CUS0264000000102387788009         J BRICE RICHARDSON  3904 LOG TRAIL WAY                      000N        CARE OF             
MTR02640000001000000000000000RA              10014920    005800640000006400000570000003NN  NNW 000                       N    
RDG02640000WATRL000000004K00000000000000199002901272015100102N000000000000U40       001210400K 10000000010000000174           
CUS0264000000102387787001         LEVER SCOTT A       3906 LOG TRAIL WAY                      000N        CARE OF             
MTR02640000001000000000000000RA              50788287    005800650000006500000520000003NN  NNW 000                       N    
RDG02640000WATRL000000004K00000000000001999003001272015100128N000000000000U40       000260400K 10000000010000001999           
CUS0264000000102387786003         GALANTER BRUCE S    3908 LOG TRAIL WAY                      000N        CARE OF             
MTR02640000001000000000000000RA              46875180    005800660000006600000520000003NN  NNW 000                       N    
RDG02640000WATRL000000004K00000000000001571003201272015100156N000000000000U40       000150400K 10000000010000001552           
CUS0264000000102387785005         NICHOLS HARWOOD R   3910 LOG TRAIL WAY                      000N        CARE OF             
MTR02640000001000000000000000RA              76348486    005800670000006700000350000003NN  NNW 000                       N    
RDG02640000WATRL000000004K00000000000000037004301272015100005N000000000000U40       000680400K 10000000010000000020           
CUS0264000000102387784008         ANDREA ABOULAFIA    3912 LOG TRAIL WAY                      000N        CARE OF             
MTR02640000001000000000000000RA              36697413    005800680000006800000520000003NN  NNW 000                       N    
RDG02640000WATRL000000004K00000000000004392004201272015095857N000000000000U40       000230400K 10000000010000004366           
CUS0264000000102387783000         SOMERS ROBERT I     3914 LOG TRAIL WAY                      000N        CARE OF             
MTR02640000001000000000000000RA              48584825    005800690000006900000520000003NN  NNW 000                       N    
RDG02640000WATRL000000004K00000000000002191004101272015095834N000000000001U40       000310400K 10000000010000002168           
CUS0264000000102387782002         PAUL DUNETZ         3916 LOG TRAIL WAY                      000N        CARE OF             
MTR02640000001000000000000000RA              99999999    005800700000007000000520000003NN  NNW 000                       N    
RDG02640000WATRL000000004K00000000000000540004001272015095803N000000000000U40       000830400K 10000000010000000511           
CUS0264000000102387791003         WALTERS MARC J      3918 LOG TRAIL WAY                      000N        CARE OF             
MTR02640000001000000000000000RA              35118119    005800710000007100000520000003NN  NNW 000                       N    
RDG02640000WATRL000000004K00000000000005323003901272015095640N000000000000U40       003040400K 10000000010000005263           
CUS0264000000102387792001         ZEIGER WILLIAM NATHA3920 LOG TRAIL WAY                      000N        CARE OF             
MTR02640000001000000000000000RA              44002489    005800720000007200000520000003NN  NNW 000                       N    
RDG02640000WATRL000000004K00000000000001949003801272015095136N000000000001U40       001750400K 10000000010000001936           
CUS0264000000102387793009         JOHN MITSOS         3922 LOG TRAIL WAY                      000N        CARE OF             
MTR02640000001000000000000000RA              36697738    005800730000007300000520000003NN  NNW 000                       N    
RDG02640000WATRL000000004K00000000000003772003701272015094841N000000000000U40       001460400K 10000000010000003745           
CUS0264000000102387794007         NACHMAN MARC H      3924 LOG TRAIL WAY                      000N        CARE OF             
MTR02640000001000000000000000RA              44087514    005800740000007400000520000003NN  NNW 000                       N    
RDG02640000WATRL000000004K00000000000002390003601272015094615N000000000001U40       003010400K 10000000010000002369           
CUS0264000000102388384006         MEDINA ANTONIO Y    4000 LOG TRAIL WAY                      000N        CARE OF             
MTR02640000001000000000000000RA              38985251    005800750000007500000520000003NN  NNW 000                       N    
RDG02640000WATRL000000004K00000000000003114000601272015091147N000000000000U40       002690400K 10000000010000003103           
CUS0264000000102388385003         GUY ATTIA           4002 LOG TRAIL WAY                      000N        CARE OF             
MTR02640000001000000000000000RA              39924250    005800760000007600000520000003NN  NNW 000                       N    
RDG02640000WATRL000000004K00000000000002861000701272015091534N000000000000U40       002270400K 10000000010000002834           
CUS0264000000102388386001         BASEHOAR RICHARD E  4004 LOG TRAIL WAY                      000N        CARE OF             
MTR02640000001000000000000000RA              36695465    005800770000007700000520000003NN  NNW 000                       N    
RDG02640000WATRL000000004K00000000000002353000801272015091707N000000000000U40       000930400K 10000000010000002334           
CUS0264000000102388365005         KOMRAD MARK         4006 LOG TRAIL WAY                      000N        CARE OF             
MTR02640000001000000000000000RA              10013184    005800780000007800000570000003NN  NNW 000                       N    
RDG02640000WATRL000000004K00000000000000543001601272015092807N000000000000U40       002440400K 10000000010000000520           
CUS0264000000102388366003         BOENNING KEITH A    4008 LOG TRAIL WAY                      000N        CARE OF             
MTR02640000001000000000000000RA              36695459    005800790000007900000520000003NN  NNW 000                       N    
RDG02640000WATRL000000004K00000000000002618001701272015093302N000000000000U40       002950400K 10000000010000002599           
CUS0264000000102388367001         LEVY JAMIE SUE      4010 LOG TRAIL WAY                      000N        CARE OF             
MTR02640000001000000000000000RA              36694925    005800800000008000000520000003NN  NNW 000                       N    
RDG02640000WATRL000000004K00000000000003327001801272015093614N000000000000U40       001920400K 10000000010000003310           
CUS0264000000102388368009         GAMBOA CESAR G      4012 LOG TRAIL WAY                      000N        CARE OF             
MTR02640000001000000000000000RA              39583721    005800810000008100000520000003NN  NNW 000                       N    
RDG02640000WATRL000000004K00000000000005263001901272015093823N000000000000U40       001290400K 10000000010000005231           
CUS0264000000102388369007         SANACORE VINCENT A  4014 LOG TRAIL WAY                      000N        CARE OF             
MTR02640000001000000000000000RA              01102968    005800820000008200000610000003NN  NNW 000                       N    
RDG02640000WATRL000000004K00000000000000875002001272015094034N000000000000U40       001310400K 10000000010000000864           
CUS0264000000102388370005         MOORE BRIAN C       4016 LOG TRAIL WAY                      000N        CARE OF             
MTR02640000001000000000000000RA              01102964    005800830000008300000610000003NN  NNW 000                       N    
RDG02640000WATRL000000004K00000000000003220002101272015094041N000000000000U40       000070400K 10000000010000002959           
CUS0264000000102388371003         BALINT CHARLES J    4041 LOG TRAIL WAY                      000N        CARE OF             
MTR02640000001000000000000000RA              01103003    005800840000008400000610000003NN  NNW 000                       N    
RDG02640000WATRL000000004K00000000000000590003501272015094114N000000000000U40       000730400K 10000000010000000575           
CUS0264000000102388372001         ROBERT A FEINBERG   4039 LOG TRAIL WAY                      000N        CARE OF             
MTR02640000001000000000000000RA              41258828    005800850000008500000520000003NN  NNW 000                       N    
RDG02640000WATRL000000004K00000000000000403003401272015094001N000000000000U40       000620400K 10000000010000000358           
CUS0264000000102388373009         PARTON ZACHARY B    4037 LOG TRAIL WAY                      000N        CARE OF             
MTR02640000001000000000000000RA              41590335    005800860000008600000520000003NN  NNW 000                       N    
RDG02640000WATRL000000004K00000000000003325003301272015093859N000000000000U40       000050400K 10000000010000003296           
CUS0264000000102388374007         MCAULIFFE JOHN C    4035 LOG TRAIL WAY                      000N        CARE OF             
MTR02640000001000000000000000RA              41590319    005800870000008700000520000003NN  NNW 000                       N    
RDG02640000WATRL000000004K00000000000004503003201272015093854N000000000000U40       000120400K 10000000010000004472           
CUS0264000000102388375004         KELLY DAVID M       4033 LOG TRAIL WAY                      000N        CARE OF             
MTR02640000001000000000000000RA              41590283    005800880000008800000520000003NN  NNW 000                       N    
RDG02640000WATRL000000004K00000000000002225003101272015093842N000300000010U40       000160400K 10000000010000001967           
CUS0264000000102388376002         DOUGLAS PAUL H      4031 LOG TRAIL WAY                      000N        CARE OF             
MTR02640000001000000000000000RA              38782521    005800890000008900000520000003NN  NNW 000                       N    
RDG02640000WATRL000000004K00000000000002981003001272015093826N000000000001U40       000960400K 10000000010000002960           
CUS0264000000102388377000         JAMES D MILLER      4025 LOG TRAIL WAY                      000N        CARE OF             
MTR02640000001000000000000000RA              39584816    005800900000009000000520000003NN  NNW 000                       N    
RDG02640000WATRL000000004K00000000000004889002901272015093650N000000000001U40       001460400K 10000000010000004861           
CUS0264000000102388378008         LINDA LOWITZ        4023 LOG TRAIL WAY                      000N        CARE OF             
MTR02640000001000000000000000RA              44176594    005800910000009100000520000003NN  NNW 000                       N    
RDG02640000WATRL000000004K00000000000002400002801272015093424N000000000000U40       000770400K 10000000010000002367           
CUS0264000000102388380004         WRIGHT GEOFFREY     4029 LOG TRAIL WAY                      000N        CARE OF             
MTR02640000001000000000000000RA              38984064    005800920000009200000520000003NN  NNW 000                       N    
RDG02640000WATRL000000004K00000000000004046002701272015093307N000000000000U40       000050400K 10000000010000004011           
CUS0264000000102388379006         MEDDIN JEFFREY D    4027 LOG TRAIL WAY                      000N        CARE OF             
MTR02640000001000000000000000RA              52288801    005800930000009300000520000003NN  NNW 000                       N    
RDG02640000WATRL000000004K00000000000004173002601272015093302N000000000000U40       000590400K 10000000010000004038           
CUS0264000000102388381002         RUBIN JOSEPH L      4017 LOG TRAIL WAY                      000N        CARE OF             
MTR02640000001000000000000000RA              48582439    005800940000009400000520000003NN  NNW 000                       N    
RDG02640000WATRL000000004K00000000000001705002501272015093203N000000000000U40       001850400K 10000000010000001688           
CUS0264000000102388382000         YATEMAN LANCE I     4015 LOG TRAIL WAY                      000N        CARE OF             
MTR02640000001000000000000000RA              99187261    005800950000009500000570000003NN  NNW 000                       N    
RDG02640000WATRL000000004K00000000000001208002401272015092858N000400000010U40       001780400K 10000000010000001195           
CUS0264000000102388383008         M. JAY LERNER       4013 LOG TRAIL WAY                      000N        CARE OF             
MTR02640000001000000000000000RA              41075424    005800960000009600000520000003NN  NNW 000                       N    
RDG02640000WATRL000000004K00000000000002785002301272015092600N000000000000U40       002530400K 10000000010000002765           
CUS0264000000102388533008         SHARGO ALEXANDER    4 WORTHINGTON RIDGE CT                  000N        CARE OF             
MTR02640000001000000000000000RA              36692708    005800970000009700000520000003NN  NNW 000                       N    
RDG02640000WATRL000000004K00000000000004748000901272015091834N000000000000U40       000870400K 10000000010000004712           
CUS0264000000102388532000         TILSTRA MICHAEL G   6 WORTHINGTON RIDGE CT                  000N        CARE OF             
MTR02640000001000000000000000RA              36691376    005800980000009800000520000003NN  NNW 000                       N    
RDG02640000WATRL000000004K00000000000002327001001272015091915N000000000000U40       000410400K 10000000010000002315           
CUS0264000000102388531002         DESSER RICHARD B    8 WORTHINGTON RIDGE CT                  000N        CARE OF             
MTR02640000001000000000000000RA              36691402    005800990000009900000520000003NN  NNW 000                       N    
RDG02640000WATRL000000004K00000000000002994001101272015092010N000000000000U40       000550400K 10000000010000002971           
CUS0264000000102388530004         RUBLEY DAVID E      10 WORTHINGTON RIDGE CT                 000N        CARE OF             
MTR02640000001000000000000000RA              36692743    005801000000010000000520000003NN  NNW 000                       N    
RDG02640000WATRL000000004K00000000000002972001201272015092044N000300000020U40       000340400K 10000000010000002894           
CUS0264000000102388529006         ANDERSON GEORGE     12 WORTHINGTON RIDGE CT                 000N        CARE OF             
MTR02640000001000000000000000RA              14922372    005801010000010100000310000003NN  NNW 000                       N    
RDG02640000WATRL000000004K00000000000000781001401272015092355N000000000000U40       001440400K 10000000010000000760           
CUS0264000000102388528008         HERSKOVITZ RICHARD H11 WORTHINGTON RIDGE CT                 000N        CARE OF             
MTR02640000001000000000000000RA              14922374    005801020000010200000310000003NN  NNW 000                       N    
RDG02640000WATRL000000004K00000000000001472001501272015092403N000000000000U40       000080400K 10000000010000001422           
CUS0264000000102388527000         JULIA A NOLAN       7 WORTHINGTON RIDGE CT                  000N        CARE OF             
MTR02640000001000000000000000RA              36692142    005801030000010300000520000003NN  NNW 000                       N    
RDG02640000WATRL000000004K00000000000002077001301272015092131N000000000000U40       000470400K 10000000010000002048           
CUS0264000000102388526002         CHARLES T. CRAY     5 WORTHINGTON RIDGE CT                  000N        CARE OF             
MTR02640000001000000000000000RA              36692745    005801040000010400000520000003NN  NNW 000                       N    
RDG02640000WATRL000000004K00000000000003229002201272015092147N000000000000U40       000470400K 10000000010000003210           
CUS0264000000102388525004         GLASSER SCOTT A     3 WORTHINGTON RIDGE CT                  000N        CARE OF             
MTR02640000001000000000000000RA              10004713    005801050000010500000570000003NN  NNW 000                       N    
RDG02640000WATRL000000004K00000000000000202002101272015092100N000000000000U40       002280400K 10000000010000000202           
CUS0264000000102388387009         WILLIAMS CHRISTOPHER1 WORTHINGTON RIDGE CT                  000N        CARE OF             
MTR02640000001000000000000000RA              01106204    005801060000010600000610000003NN  NNW 000                       N    
RDG02640000WATRL000000004K00000000000000587002001272015091712N000000000000U40       001490400K 10000000010000000578           
CUS0264000000102395195007         CR PROPERTY GROUP, L4009 LOG TRAIL WAY                      000N        CARE OF             
MTR02640000001000000000000000RA              99410477    000101070000010700000570000003NN  NNW 000                       N    
RDG02640000WATRL000000004K00000000000000813001901272015091443N000400000010U40       000560400K 10000000010000000810           
CUS0264000000102388389005         BLACKWELL RICHARD S 4007 LOG TRAIL WAY                      000N        CARE OF             
MTR02640000001000000000000000RA              38985248    005801080000010800000520000003NN  NNW 000                       N    
RDG02640000WATRL000000004K00000000000003922001801272015091347N000000000000U40       000400400K 10000000010000003905           
CUS0264000000102388390003         DAVID HOUSEKNECHT   4005 LOG TRAIL WAY                      000N        CARE OF             
MTR02640000001000000000000000RA              39924397    005801090000010900000520000003NN  NNW 000                       N    
RDG02640000WATRL000000004K00000000000004652001701272015091307N000000000000U40       000550400K 10000000010000004631           
CUS0264000000102388391001         SCHWARTZ ROSEMARIE K4003 LOG TRAIL WAY                      000N        CARE OF             
MTR02640000001000000000000000RA              36694747    005801100000011000000520000003NN  NNW 000                       N    
RDG02640000WATRL000000004K00000000000002893001601272015091212N000000000000U40       000980400K 10000000010000002880           
CUS0264000000102387801000         JOYNER JUDY BAREFOOT12612 TIMBER GROVE RD                   000N        CARE OF             
MTR02640000001000000000000000RA              10014258    005801110000011100000570000003NN  NNW 000                       N    
RDG02640000WATRL000000004K00000000000000265001501272015091034N000000000000U40       005350400K 10000000010000000245           
CUS0264000000102387800002         PAUL A. CONEY       3911 LOG TRAIL WAY                      000N        CARE OF             
MTR02640000001000000000000000RA              27826947    005801120000011200000520000003NN  NNW 000                       N    
RDG02640000WATRL000000004K00000000000003423002201272015094653N000100000010U40       003720400K 10000000010000003423           
CUS0264000000102387799006         RESNIK CHARLES S    3909 LOG TRAIL WAY                      000N        CARE OF             
MTR02640000001000000000000000RA              36687269    005801130000011300000520000003NN  NNW 000                       N    
RDG02640000WATRL000000004K00000000000002389002301272015094806N000000000000U40       000730400K 10000000010000002370           
CUS0264000000102387798008         AMMON JUDITH G      3907 LOG TRAIL WAY                      000N        CARE OF             
MTR02640000001000000000000000RA              01106035    005801140000011400000610000003NN  NNW 000                       N    
RDG02640000WATRL000000004K00000000000001078002401272015094946N000000000000U40       001000400K 10000000010000001053           
CUS0264000000102387797000         SCHULMAN ROBERT B   3905 LOG TRAIL WAY                      000N        CARE OF             
MTR02640000001000000000000000RA              36694920    005801150000011500000520000003NN  NNW 000                       N    
RDG02640000WATRL000000004K00000000000003267002501272015095024N000300000010U40       000380400K 10000000010000003242           
CUS0264000000102387796002         ABDURAHMAN HALA     3903 LOG TRAIL WAY                      000N        CARE OF             
MTR02640000001000000000000000RA              36687552    005801160000011600000520000003NN  NNW 000                       N    
RDG02640000WATRL000000004K00000000000002458002601272015095433N000000000000U40       002490400K 10000000010000002427           
CUS0264000000102387795004         ABBONDANDOLO ANTHONY3901 LOG TRAIL WAY                      000N        CARE OF             
MTR02640000001000000000000000RA              36687553    005801170000011700000520000003NN  NNW 000                       N    
RDG02640000WATRL000000004K00000000000003761002701272015095614N000000000000U40       001010400K 10000000010000003746           
CUS0264000000102371975000         ELINE JANET B       12610 TIMBER GROVE RD                   000N        CARE OF             
MTR02640000001000000000000000RA              33077387    005801180000011800000520000003NN  NNW 000                       N    
RDG02640000WATRL000000004K00000000000000000000000000000000000 000000000000U         000000400  10000000010000002212           
CUS0264000000102371976008         MCMANUS REGINA D    12608 TIMBER GROVE RD                   000N        CARE OF             
MTR02640000001000000000000000RA              38887399    005801190000011900000520000003NN  NNW 000                       N    
RDG02640000WATRL000000004K00000000000007541001401272015090139N000300000010U40       001200400K 10000000010000007317           
CUS0264000000102360226001         SPAGLIARDI GIORGIO  12606 TIMBER GROVE RD                   000N        CARE OF             
MTR02640000001000000000000000RA              30513094    005801200000012000000520000003NN  NNW 000                       N    
RDG02640000WATRL000000004K00000000000004707001301272015085939N000000000000U40       003280400K 10000000010000004687           
CUS0264000000102371977006         VOLSHONOK IGOR      12604 TIMBER GROVE RD                   000N        CARE OF             
MTR02640000001000000000000000RA              48589799    005801210000012100000520000003NN  NNW 000                       N    
RDG02640000WATRL000000004K00000000000001667001201272015085411N000000000000U40       001970400K 10000000010000001653           
CUS0264000000102359367006         WOOLFORD JOHN RAYMON4 TIMBER WAY CT                         000N        CARE OF             
MTR02640000001000000000000000RA              29686463    005801220000012200000520000003NN  NNW 000                       N    
RDG02640000WATRL000000004K00000000000004836005901262015115205N000400000010N40       006950400K 10000000010000004772           
CUS0264000000102371969003         SCUTT JAMES B       6 TIMBER WAY CT                         000N        CARE OF             
MTR02640000001000000000000000RA              35107721    005801230000012300000520000003NN  NNW 000                       N    
RDG02640000WATRL000000004K00000000000003243006001262015115316N000000000000N40       000710400K 10000000010000003220           
CUS0264000000102378802009         JACOBSON JOSEPH L   6-A TIMBER WAY CT                       000N        CARE OF             
MTR02640000001000000000000000RA              35107995    005801240000012400000520000003NN  NNW 000                       N    
RDG02640000WATRL000000004K00000000000004019006101262015115424N000000000000N40       000680400K 10000000010000004001           
CUS0264000000102371970001         DORNER JULES        8 TIMBER WAY CT                         000N        CARE OF             
MTR02640000001000000000000000RA              01112124    005801250000012500000610000003NN  NNW 000                       N    
RDG02640000WATRL000000004K00000000000000676006201262015115524N000000000000N40       000600400K 10000000010000000660           
CUS0264000000102371971009         BARTA STEVEN E      10 TIMBER WAY CT                        000N        CARE OF             
MTR02640000001000000000000000RA              75615563    005801260000012600000350000003NN  NNW 000                       N    
RDG02640000WATRL000000004K00000000000000238006601262015120222N000000000000N40       002030400K 10000000010000000208           
CUS0264000000102371972007         ALDERSON SHIRLEY A  12 TIMBER WAY CT                        000N        CARE OF             
MTR02640000001000000000000000RA              33077049    005801270000012700000520000003NN  NNW 000                       N    
RDG02640000WATRL000000004K00000000000003472006301262015115711N000000000000N40       001070400K 10000000010000003465           
CUS0264000000102371968005         DANIEL LAPORTA      14 TIMBER WAY CT                        000N        CARE OF             
MTR02640000001000000000000000RA              39291048    005801280000012800000520000003NN  NNW 000                       N    
RDG02640000WATRL000000004K00000000000003173006401262015115755N000000000000N40       000440400K 10000000010000003153           
CUS0264000000102371967007         SCHWAGER LARRY      15 TIMBER WAY CT                        000N        CARE OF             
MTR02640000001000000000000000RA              32771415    005801290000012900000520000003NN  NNW 000                       N    
RDG02640000WATRL000000004K00000000000006007006501262015115859N000000000000N40       000640400K 10000000010000005981           
CUS0264000000102371966009         ROSSIKHINE DMITRI   13 TIMBER WAY CT                        000N        CARE OF             
MTR02640000001000000000000000RA              36697357    005801300000013000000520000003NN  NNW 000                       N    
RDG02640000WATRL000000004K00000000000000000000000000000000000 000000000000U         000000400  10000000010000003703           
CUS0264000000102371965001         EICKHOFF JAMES A    11 TIMBER WAY CT                        000N        CARE OF             
MTR02640000001000000000000000RA              38985659    005801310000013100000520000003NN  NNW 000                       N    
RDG02640000WATRL000000004K00000000000002699011501262015115745N000000000000N40       001940400K 10000000010000002681           
CUS0264000000102371964004         SHERMAN LISA P      9 TIMBER WAY CT                         000N        CARE OF             
MTR02640000001000000000000000RA              14923283    005801320000013200000310000003NN  NNW 000                       N    
RDG02640000WATRL000000004K00000000000000697011401262015115431N000000000000N40       001190400K 10000000010000000664           
CUS0264000000102371963006         LAFATA RICHARD T    7 TIMBER WAY CT                         000N        CARE OF             
MTR02640000001000000000000000RA              32573061    005801330000013300000520000003NN  NNW 000                       N    
RDG02640000WATRL000000004K00000000000003193011301262015115232N000000000000N40       000770400K 10000000010000003182           
CUS0264000000102359366008         JULES I SCHERR MD   5 TIMBER WAY CT                         000N        CARE OF             
MTR02640000001000000000000000RA              01109168    005801340000013400000610000003NN  NNW 000                       N    
RDG02640000WATRL000000004K00000000000001044011201262015115115N000000000000N40       000450400K 10000000010000001027           
CUS0264000000102371962008         MEL MEISTER         3 TIMBER WAY CT                         000N        CARE OF             
MTR02640000001000000000000000RA              99999999    005801350000013500000520000003NN  NNW 000                       N    
RDG02640000WATRL000000004K00000000000000000011101262015115030S022000000000N40       002240400K 10000000010000000208           
CUS0264000000102371978004         RONALD J DRESCHER   1 TIMBER WAY CT                         000N        CARE OF             
MTR02640000001000000000000000RA              99290549    005801360000013600000570000003NN  NNW 000                       N    
RDG02640000WATRL000000004K00000000000000000000000000000000000 000000000000U         000000400  10000000010000000861           
CUS0264000000102352914002         POKOV ALEXANDER  POK12502 TIMBER GROVE RD                   000N        CARE OF             
MTR02640000001000000000000000RA              14916097    005801370000013700000310000003NN  NNW 000                       N    
RDG02640000WATRL000000004K00000000000002178000401262015090126N000000000000N40       004600400K 10000000010000002131           
CUS0264000000102352913004         MARY ELLEN FLAHERTY 12500 TIMBER GROVE RD                   000N        CARE OF             
MTR02640000001000000000000000RA              75614818    005801380000013800000350000003NN  NNW 000                       N    
RDG02640000WATRL000000004K00000000000000185000501262015090314N000000000000N40       001080400K 10000000010000000157           
CUS0264000000102352910000         NIEMANN ROBERT A    901 TIMBER RUN RD                       000N        CARE OF             
MTR02640000001000000000000000RA              01106733    005801390000013900000610000003NN  NNW 000                       N    
RDG02640000WATRL000000004K00000000000000419005401262015113216N000000000000N40       002670400K 10000000010000000410           
CUS0264000000102352911008         BUKOWITZ WENDI R    903 TIMBER RUN RD                       000N        CARE OF             
MTR02640000001000000000000000RA              01106694    005801400000014000000610000003NN  NNW 000                       N    
RDG02640000WATRL000000004K00000000000001079005501262015113304N000000000000N40       000480400K 10000000010000001051           
CUS0264000000102347955003         ETELIS STANISLAV    905 TIMBER RUN RD                       000N        CARE OF             
MTR02640000001000000000000000RA              27823953    005801410000014100000520000003NN  NNW 000                       N    
RDG02640000WATRL000000004K00000000000003617005601262015113512N000000000000N40       001280400K 10000000010000003586           
CUS0264000000102371957008         HELSCHIEN STEVEN M  907 TIMBER RUN RD                       000N        CARE OF             
MTR02640000001000000000000000RA              30513018    005801420000014200000520000003NN  NNW 000                       N    
RDG02640000WATRL000000004K00000000000003743005701262015113745N000000000010N40       001530400K 10000000010000003720           
CUS0264000000102371982006         KEVIN R FRIED       12600 TIMBER GROVE RD                   000N        CARE OF             
MTR02640000001000000000000000RA              32904984    005801430000014300000520000003NN  NNW 000                       N    
RDG02640000WATRL000000004K00000000000003901010801262015113956N000000000000N40       001910400K 10000000010000003874           
CUS0264000000102371981008         MARK B FRIED        909 TIMBER RUN RD                       000N        CARE OF             
MTR02640000001000000000000000RA              35115745    005801440000014400000520000003NN  NNW 000                       N    
RDG02640000WATRL000000004K00000000000005296005801262015114030N000000000000N40       001650400K 10000000010000005266           
CUS0264000000102378480004         LUTERMAN ROBERTA    4 TIMBER RUN CT                         000N        CARE OF             
MTR02640000001000000000000000RA              48587809    005801450000014500000520000003NN  NNW 000                       N    
RDG02640000WATRL000000004K00000000000002877001201262015091312N000000000000N40       001390400K 10000000010000002852           
CUS0264000000102378481002         COHEN BERNARD S     6 TIMBER RUN CT                         000N        CARE OF             
MTR02640000001000000000000000RA              33081900    005801460000014600000520000003NN  NNW 000                       N    
RDG02640000WATRL000000004K00000000000009206000901262015091010N000000000000N40       000560400K 10000000010000009136           
CUS0264000000102378482000         MILLER DONALD C,JR  8 TIMBER RUN CT                         000N        CARE OF             
MTR02640000001000000000000000RA              35102916    005801470000014700000520000003NN  NNW 000                       N    
RDG02640000WATRL000000004K00000000000003313000801262015090914N000000000000N40       000380400K 10000000010000003288           
CUS0264000000102378483008         SILVER BENNETT      3 TIMBER RUN CT                         000N        CARE OF             
MTR02640000001000000000000000RA              36696034    005801480000014800000520000003NN  NNW 000                       N    
RDG02640000WATRL000000004K00000000000005871001401262015091614N000400000010N40       000880400K 10000000010000005823           
CUS0264000000102378484006         HENRY LEVI          5 TIMBER RUN CT                         000N        CARE OF             
MTR02640000001000000000000000RA              33079260    005801490000014900000520000003NN  NNW 000                       N    
RDG02640000WATRL000000004K00000000000001419001301262015091446N000000000000N40       000940400K 10000000010000001411           
CUS0264000000102440757009         CHEN WILLIS         12404 TIMBER GROVE RD                   000N        CARE OF             
MTR02640000001000000000000000RA              14918214    005801500000015000000310000003NN  NNW 000                       N    
RDG02640000WATRL000000004K00000000000000341000301262015085346N000000000000N40       000310400K 10000000010000000327           
CUS0264000000102440756001         GOTTLIEB ARTHUR     12402 TIMBER GROVE RD                   000N        CARE OF             
MTR02640000001000000000000000RA              14927799    005801510000015100000310000003NN  NNW 000                       N    
RDG02640000WATRL000000004K00000000000000591000201262015085315N000000000000N40       000460400K 10000000010000000540           
CUS0264000000102440755003         MICHAEL A PHILADELPH12400 TIMBER GROVE RD                   000N        CARE OF             
MTR02640000001000000000000000RA              10006154    005801520000015200000570000003NN  NNW 000                       N    
RDG02640000WATRL000000004K00000000000000523000101262015085229N000000000000N40       000000400K 10000000010000000493           
CUS0264000000102387468008         PETERS KENNETH J    14 WOODSMEN CT                          000N        CARE OF             
MTR02640000001000000000000000RA              14920826    005801530000015300000310000003NN  NNW 000                       N    
RDG02640000WATRL000000004K00000000000000394000101272015084438N000000000000U40       000000400K 10000000010000000385           
CUS0264000000102387469006         SPATAFORE DANA C    18 WOODSMEN CT                          000N        CARE OF             
MTR02640000001000000000000000RA              36688391    005801540000015400000520000003NN  NNW 000                       N    
RDG02640000WATRL000000004K00000000000004180000301272015084605N000000000000U40       000180400K 10000000010000004158           
CUS0264000000102387475003         RICHARD MAZUR       16 WOODSMEN CT                          000N        CARE OF             
MTR02640000001000000000000000RA              39289381    005801550000015500000520000003NN  NNW 000                       N    
RDG02640000WATRL000000004K00000000000002999000201272015084547N000000000000U40       000690400K 10000000010000002969           
CUS0264000000102387474006         PETER LITTLEFIELD   19 WOODSMEN CT                          000N        CARE OF             
MTR02640000001000000000000000RA              40779978    005801560000015600000520000003NN  NNW 000                       N    
RDG02640000WATRL000000004K00000000000004336000401272015084644N000000000000U40       000390400K 10000000010000004316           
CUS0264000000102387470004         CHERVINSKY VADIM J  17 WOODSMEN CT                          000N        CARE OF             
MTR02640000001000000000000000RA              35118600    005801570000015700000520000003NN  NNW 000                       N    
RDG02640000WATRL000000004K00000000000002926000501272015084705N000000000000U40       000210400K 10000000010000002905           
CUS0264000000102387473008         YURY PANFIORAU      15 WOODSMEN CT                          000N        CARE OF             
MTR02640000001000000000000000RA              10013962    005801580000015800000570000003NN  NNW 000                       N    
RDG02640000WATRL000000004K00000000000000295000601272015084709N000000000000U40       000040400K 10000000010000000271           
CUS0264000000102387471002         RUDMAN PAUL D       13 WOODSMEN CT                          000N        CARE OF             
MTR02640000001000000000000000RA              36688147    005801590000015900000520000003NN  NNW 000                       N    
RDG02640000WATRL000000004K00000000000002967000701272015084747N000000000000U40       000380400K 10000000010000002946           
CUS0264000000102387472000         MICHELSON JEFFREY   11 WOODSMEN CT                          000N        CARE OF             
MTR02640000001000000000000000RA              35116414    005801600000016000000520000003NN  NNW 000                       N    
RDG02640000WATRL000000004K00000000000003193000801272015084755N000000000000U40       000080400K 10000000010000003151           
CUS0264000000102387476001         WALMAN SAMUEL B     9 WOODSMEN CT                           000N        CARE OF             
MTR02640000001000000000000000RA              38887113    005801610000016100000520000003NN  NNW 000                       N    
RDG02640000WATRL000000004K00000000000002584000901272015084817N000000000000U40       000220400K 10000000010000002564           
CUS0264000000102387477009         GRIFFITHS ALBERT G  7 WOODSMEN CT                           000N        CARE OF             
MTR02640000001000000000000000RA              35117492    005801620000016200000520000003NN  NNW 000                       N    
RDG02640000WATRL000000004K00000000000002253001001272015084942N000000000000U40       000850400K 10000000010000002201           
CUS0264000000102387478007         ZUKERBERG JOSHUA    5 WOODSMEN CT                           000N        CARE OF             
MTR02640000001000000000000000RA              44176481    005801630000016300000520000003NN  NNW 000                       N    
RDG02640000WATRL000000004K00000000000002188001101272015085054N000000000000U40       000720400K 10000000010000002169           
CUS0264000000102378485003         BAXT ROBERT S       9 TIMBER RUN CT                         000N        CARE OF             
MTR02640000001000000000000000RA              14907419    005801640000016400000310000003NN  NNW 000                       N    
RDG02640000WATRL000000004K00000000000000369000801262015090806N000000000000N40       001840400K 10000000010000000357           
CUS0264000000102378486001         CORRELL JAMES L     10 TIMBER RUN CT                        000N        CARE OF             
MTR02640000001000000000000000RA              14907450    005801650000016500000310000003NN  NNW 000                       N    
RDG02640000WATRL000000004K00000000000001381000701262015090836N000300000010N40       000520400K 10000000010000001125           
CUS0264000000102378487009         FLEISCHMANN BARRY   12 TIMBER RUN CT                        000N        CARE OF             
MTR02640000001000000000000000RA              14914279    005801660000016600000310000003NN  NNW 000                       N    
RDG02640000WATRL000000004K00000000000002039000601262015090744N000000000000N40       002700400K 10000000010000002026           
CUS0264000000102378488007         DANIEL THOMAS       14 TIMBER RUN CT                        000N        CARE OF             
MTR02640000001000000000000000RA              14914246    005801670000016700000310000003NN  NNW 000                       N    
RDG02640000WATRL000000004K00000000000002746001101262015091053N000300000010N40       000660400K 10000000010000002488           
CUS0264000000102378489005         MUTSCHLER CAROL A   11 TIMBER RUN CT                        000N        CARE OF             
MTR02640000001000000000000000RA              14907416    005801680000016800000310000003NN  NNW 000                       N    
RDG02640000WATRL000000004K00000000000001027000901262015090856N000000000000N40       000500400K 10000000010000001010           
CUS0264000000102378490003         SHRAYBMAN LEONID    13 TIMBER RUN CT                        000N        CARE OF             
MTR02640000001000000000000000RA              14907418    005801690000016900000310000003NN  NNW 000                       N    
RDG02640000WATRL000000004K00000000000000880001001262015090947N000000000000N40       000510400K 10000000010000000862           
CUS0264000000102355846003         MATHEW JOHN         912 TIMBER RUN RD                       000N        CARE OF             
MTR02640000001000000000000000RA              33082332    005801700000017000000520000003NN  NNW 000                       N    
RDG02640000WATRL000000004K00000000000003940010701262015113645N000000000000N40       000820400K 10000000010000003914           
CUS0264000000102371961000         ETRIDGE ALLAN D     910 TIMBER RUN RD                       000N        CARE OF             
MTR02640000001000000000000000RA              35107720    005801710000017100000520000003NN  NNW 000                       N    
RDG02640000WATRL000000004K00000000000003308010601262015113523N000400000010N40       000390400K 10000000010000003301           
CUS0264000000102371960002         ALISON G SIRKIN     908 TIMBER RUN RD                       000N        CARE OF             
MTR02640000001000000000000000RA              39289300    005801720000017200000520000003NN  NNW 000                       N    
RDG02640000WATRL000000004K00000000000002271010501262015113444N000000000000N40       000040400K 10000000010000002257           
CUS0264000000102371959004         HACKERMAN HAROLD    906 TIMBER RUN RD                       000N        CARE OF             
MTR02640000001000000000000000RA              38886371    005801730000017300000520000003NN  NNW 000                       N    
RDG02640000WATRL000000004K00000000000002769010401262015113440N000000000000N40       000430400K 10000000010000002740           
CUS0264000000102352912006         BRIAN FAGIN         904 TIMBER RUN RD                       000N        CARE OF             
MTR02640000001000000000000000RA              27830516    005801740000017400000520000003NN  NNW 000                       N    
RDG02640000WATRL000000004K00000000000003545010301262015113357N000000000000N40       000620400K 10000000010000003522           
CUS0264000000102371958006         HUSBAND ERIC J      902 TIMBER RUN RD                       000N        CARE OF             
MTR02640000001000000000000000RA              01106729    005801750000017500000610000003NN  NNW 000                       N    
RDG02640000WATRL000000004K00000000000001437010201262015113255N000000000000N40       000640400K 10000000010000001423           
CUS0264000000102357907001         WILLIAM BRAY JR     900 TIMBER RUN RD                       000N        CARE OF             
MTR02640000001000000000000000RA              01107311    005801760000017600000610000003NN  NNW 000                       N    
RDG02640000WATRL000000004K00000000000001761010101262015113151N000000000000N40       000530400K 10000000010000001727           
CUS0264000000102049190008         WEBB TED W          12501 SAGAMORE FOREST LN                000N        CARE OF             
MTR02640000001000000000000000RA              01084068    005801770000017700000610000003NN  NNW 000                       N    
RDG02640000WATRL000000004K00000000000000616001101262015092306N000000000000N40       001340400K 10000000010000000609           
CUS0264000000102049191006         PURNELL WILLIAM J   12503 SAGAMORE FOREST LN                000N        CARE OF             
MTR02640000001000000000000000RA              14914247    005801780000017800000310000003NN  NNW 000                       N    
RDG02640000WATRL000000004K00000000000000754001201262015092422N000000000000N40       000760400K 10000000010000000734           
CUS0264000000102374265003         HARBAUGH L WAYNE    12505 SAGAMORE FOREST LN                000N        CARE OF             
MTR02640000001000000000000000RA              31585691    005801790000017900000520000003NN  NNW 000                       N    
RDG02640000WATRL000000004K00000000000000000000000000000000000 000000000000U         000000400  10000000010000003699           
CUS0264000000102046822009         ROBERT L MOSS       12507 SAGAMORE FOREST LN                000N        CARE OF             
MTR02640000001000000000000000RA              29685805    005801800000018000000520000003NN  NNW 000                       N    
RDG02640000WATRL000000004K00000000000005651001001262015092052N000000000000N40       006420400K 10000000010000005635           
CUS0264000000102049192004         WINTHROP JAMES D    12509 SAGAMORE FOREST LN                000N        CARE OF             
MTR02640000001000000000000000RA              27818659    005801810000018100000520000003NN  NNW 000                       N    
RDG02640000WATRL000000004K00000000000005006001301262015092450N000000000000N40       000280400K 10000000010000004988           
CUS0264000000102049193002         FELDMAN JEFFREY     12511 SAGAMORE FOREST LN                000N        CARE OF             
MTR02640000001000000000000000RA              29681645    005801820000018200000520000003NN  NNW 000                       N    
RDG02640000WATRL000000004K00000000000005996001401262015092725N000000000010N40       001550400K 10000000010000005956           
CUS0264000000102049194000         MEDINGER MICHAEL J  12513 SAGAMORE FOREST LN                000N        CARE OF             
MTR02640000001000000000000000RA              14901924    005801830000018300000310000003NN  NNW 000                       N    
RDG02640000WATRL000000004K00000000000000954001501262015092934N000000000000N40       001290400K 10000000010000000927           
CUS0264000000102049195007         WRIGHT ALEXANDER,JR 12515 SAGAMORE FOREST LN                000N        CARE OF             
MTR02640000001000000000000000RA              27133118    005801840000018400000520000003NN  NNW 000                       N    
RDG02640000WATRL000000004K00000000000004615001601262015093035N000000000000N40       000610400K 10000000010000004602           
CUS0264000000102049196005         LUBMAN DIANA        12517 SAGAMORE FOREST LN                000N        CARE OF             
MTR02640000001000000000000000RA              24768979    005801850000018500000520000003NN  NNW 000                       N    
RDG02640000WATRL000000004K00000000000004314001701262015093326N000000000001N40       001710400K 10000000010000004299           
CUS0264000000102049197003         GENDLER CRAIG M     12519 SAGAMORE FOREST LN                000N        CARE OF             
MTR02640000001000000000000000RA              44090192    005801860000018600000520000003NN  NNW 000                       N    
RDG02640000WATRL000000004K00000000000005204001801262015093633N000000000000N40       001870400K 10000000010000005188           
CUS0264000000102049198001         ZEPHIR DAVID W      12601 SAGAMORE FOREST LN                000N        CARE OF             
MTR02640000001000000000000000RA              29084548    005801870000018700000520000003NN  NNW 000                       N    
RDG02640000WATRL000000004K00000000000004941001901262015093943N000000000001N40       001900400K 10000000010000004910           
CUS0264000000102049199009         CONNER SEAN J       1 PEMBERLY LN                           000N        CARE OF             
MTR02640000001000000000000000RA              14912563    005801880000018800000310000003NN  NNW 000                       N    
RDG02640000WATRL000000004K00000000000000675002001262015094100N000000000000N40       000770400K 10000000010000000654           
CUS0264000000102049200005         SMITH STEVEN W      2 PEMBERLY LN                           000N        CARE OF             
MTR02640000001000000000000000RA              26007654    005801890000018900000520000003NN  NNW 000                       N    
RDG02640000WATRL000000004K00000000000005451002101262015094353N000000000000N40       001730400K 10000000010000005417           
CUS0264000000102049201003         BLOCK CHARLES I     4 PEMBERLY LN                           000N        CARE OF             
MTR02640000001000000000000000RA              38887515    005801900000019000000520000000NN  NNW 000                       N    
RDG02640000WATRL000000004K00000000000002379002201262015094652N000000000000N40       001790400K 10000000010000002368           
CUS0264000000102049202001         CAMPITELLI FRANCIS P3 PEMBERLY LN                           000N        CARE OF             
MTR02640000001000000000000000RA              14912540    005801910000019100000310000003NN  NNW 000                       N    
RDG02640000WATRL000000004K00000000000001460002301262015094756N000400000010N40       000640400K 10000000010000001432           
CUS0264000000102049203009         ALLEN MARK          5 PEMBERLY LN                           000N        CARE OF             
MTR02640000001000000000000000RA              26001749    005801920000019200000520000003NN  NNW 000                       N    
RDG02640000WATRL000000004K00000000000004402002501262015094828N000000000000N40       000190400K 10000000010000004382           
CUS0264000000102049204007         MARTIN S NOVEY      6 PEMBERLY LN                           000N        CARE OF             
MTR02640000001000000000000000RA              14912541    005801930000019300000310000003NN  NNW 000                       N    
RDG02640000WATRL000000004K00000000000000954002401262015094809N000000000000N40       000130400K 10000000010000000905           
CUS0264000000102049205004         SCHWARTZ STEPHEN J  8 PEMBERLY LN                           000N        CARE OF             
MTR02640000001000000000000000RA              01116522    005801940000019400000610000003NN  NNW 000                       N    
RDG02640000WATRL000000004K00000000000000534002701262015095112N000000000000N40       000540400K 10000000010000000523           
CUS0264000000102049206002         LEVIN RAYMOND       7 PEMBERLY LN                           000N        CARE OF             
MTR02640000001000000000000000RA              01116521    005801950000019500000610000003NN  NNW 000                       N    
RDG02640000WATRL000000004K00000000000000292002601262015095018N000000000000N40       001100400K 10000000010000000287           
CUS0264000000102049207000         CLARK JOHN C        9 PEMBERLY LN                           000N        CARE OF             
MTR02640000001000000000000000RA              01116524    005801960000019600000610000003NN  NNW 000                       N    
RDG02640000WATRL000000004K00000000000000000000000000000000000 000000000000U         000000400  10000000010000001644           
CUS0264000000102049208008         SCHOEN RICHARD H    10 PEMBERLY LN                          000N        CARE OF             
MTR02640000001000000000000000RA              14906051    005801970000019700000310000003NN  NNW 000                       N    
RDG02640000WATRL000000004K00000000000001269002801262015095450N000400000010N40       002180400K 10000000010000001259           
CUS0264000000102049209006         SPANOS GEORGE B     12 PEMBERLY LN                          000N        CARE OF             
MTR02640000001000000000000000RA              14921487    005801980000019800000310000003NN  NNW 000                       N    
RDG02640000WATRL000000004K00000000000000393003301262015100341N000000000000N40       000580400K 10000000010000000379           
CUS0264000000102049210004         OLEG A MIKLUSH      14 PEMBERLY LN                          000N        CARE OF             
MTR02640000001000000000000000RA              26005465    005801990000019900000520000003NN  NNW 000                       N    
RDG02640000WATRL000000004K00000000000005795003201262015100243N000300000010N40       003260400K 10000000010000005751           
CUS0264000000102049211002         KREUNEN ROBERT N    11 PEMBERLY LN                          000N        CARE OF             
MTR02640000001000000000000000RA              14906421    005802000000020000000310000003NN  NNW 000                       N    
RDG02640000WATRL000000004K00000000000001269003001262015095541N000000000000N40       000110400K 10000000010000001233           
CUS0264000000102049212000         JACQUELINE OVAD     12803 SAGAMORE FOREST LN                000N        CARE OF             
MTR02640000001000000000000000RA              29084573    005802010000020100000520000003NN  NNW 000                       N    
RDG02640000WATRL000000004K00000000000003192002901262015095530N000000000000N40       000400400K 10000000010000003177           
CUS0264000000102049213008         JOHNSON MATTHEW P   12801 SAGAMORE FOREST LN                000N        CARE OF             
MTR02640000001000000000000000RA              24767662    005802020000020200000520000003NN  NNW 000                       N    
RDG02640000WATRL000000004K00000000000003114003101262015095717N000000000000N40       000960400K 10000000010000003086           
CUS0264000000102049214006         HARRY M ABRAMSON    12805 SAGAMORE FOREST LN                000N        CARE OF             
MTR02640000001000000000000000RA              46885049    005802030000020300000520000003NY  NNW 000                       N    
MTM0264000046885049    CLEAN OUT                                                                                              
RDG02640000WATRL000000004K00000000000000000000000000000000000 000000000000U         000000400  10000000010000002547           
CUS0264000000102428341008         SAGEL JEFFREY S     12310 STEEPLE CHASE DR                  000N        CARE OF             
MTR02640000001000000000000000RA              99287567    005802040000020400000570000003NN  NNW 000                       N    
RDG02640000WATRL000000004K00000000000002024006001262015104308N000000000000N40       000700400K 10000000010000001965           
CUS0264000000102428342006         MONTS BYRON L       12308 STEEPLE CHASE DR                  000N        CARE OF             
MTR02640000001000000000000000RA              99387112    005802050000020500000570000003NN  NNW 000                       N    
RDG02640000WATRL000000004K00000000000002553005901262015104158N000000000000N40       001340400K 10000000010000002519           
CUS0264000000102428343004         POTOTSKY RICHARD B  12306 STEEPLE CHASE DR                  000N        CARE OF             
MTR02640000001000000000000000RA              99288894    005802060000020600000570000003NN  NNW 000                       N    
RDG02640000WATRL000000004K00000000000001275005801262015103944N000000000000N40       000490400K 10000000010000001262           
CUS0264000000102428344002         THAKKAR RANKIT  THAK12304 STEEPLE CHASE DR                  000N        CARE OF             
MTR02640000001000000000000000RA              00138124    005802070000020700000570000003NN  NNW 000                       N    
RDG02640000WATRL000000004K00000000000003064005701262015103855N000000000000N40       000580400K 10000000010000002977           
CUS0264000000102428345009         ZANELLA MICHAEL J   12302 STEEPLE CHASE DR                  000N        CARE OF             
MTR02640000001000000000000000RA              99388050    005802080000020800000570000003NN  NNW 000                       N    
RDG02640000WATRL000000004K00000000000002307005601262015103757N000000000000N40       001360400K 10000000010000002289           
CUS0264000000102428520007         CAMPF LAURENCE S    807 STABLE MANOR RD                     000N        CARE OF             
MTR02640000001000000000000000RA              00139191    005802090000020900000570000003NN  NNW 000                       N    
RDG02640000WATRL000000004K00000000000001652005501262015103541N000000000000N40       001860400K 10000000010000001609           
CUS0264000000102428521005         MINDEL LEWIS        809 STABLE MANOR RD                     000N        CARE OF             
MTR02640000001000000000000000RA              99388117    005802100000021000000570000003NN  NNW 000                       N    
RDG02640000WATRL000000004K00000000000001812005401262015103235N000400000010N40       000650400K 10000000010000001793           
CUS0264000000102428522003         HSU TIMOTHY C       811 STABLE MANOR RD                     000N        CARE OF             
MTR02640000001000000000000000RA              00139334    005802110000021100000570000003NN  NNW 000                       N    
RDG02640000WATRL000000004K00000000000002618005301262015103130N000400000010N40       001050400K 10000000010000002602           
CUS0264000000102437941004         POLANSKY ALEXANDER M817 STABLE MANOR RD                     000N        CARE OF             
MTR02640000001000000000000000RA              14919031    005802120000021200000310000003NN  NNW 000                       N    
RDG02640000WATRL000000004K00000000000000923003801262015101356N000000000000N40       000290400K 10000000010000000902           
CUS0264000000102437928001         SHAH BIPIN          819 STABLE MANOR RD                     000N        CARE OF             
MTR02640000001000000000000000RA              14926042    005802130000021300000310000003NN  NNW 000                       N    
RDG02640000WATRL000000004K00000000000000749003701262015101327N000000000000N40       000430400K 10000000010000000696           
CUS0264000000102437930007         DAVE DANGELO        821 STABLE MANOR RD                     000N        CARE OF             
MTR02640000001000000000000000RA              14923826    005802140000021400000310000003NN  NNW 000                       N    
RDG02640000WATRL000000004K00000000000000789003601262015101244N000000000000N40       000620400K 10000000010000000768           
CUS0264000000102437931005         HARRIS LOUIS        823 STABLE MANOR RD                     000N        CARE OF             
MTR02640000001000000000000000RA              14922701    005802150000021500000310000003NN  NNW 000                       N    
RDG02640000WATRL000000004K00000000000001527003501262015101142N000000000000N40       001170400K 10000000010000001462           
CUS0264000000102437932003         STACEY M FEINSTEIN  825 STABLE MANOR RD                     000N        CARE OF             
MTR02640000001000000000000000RA              99999999    005802160000021600000570000003NN  NNW 000                       N    
RDG02640000WATRL000000004K00000000000000598003401262015100945N000000000000N40       003640400K 10000000010000000578           
CUS0264000000102431739008         VASQUES FRANK       12303 SILVER CUP CT                     000N        CARE OF             
MTR02640000001000000000000000RA              01084394    005802170000021700000610000003NN  NNW 000                       N    
RDG02640000WATRL000000004K00000000000001596005001262015102708N000000000000N40       000500400K 10000000010000001578           
CUS0264000000102431740006         KATZ DEAN M         12305 SILVER CUP CT                     000N        CARE OF             
MTR02640000001000000000000000RA              01090854    005802180000021800000610000003NN  NNW 000                       N    
RDG02640000WATRL000000004K00000000000001472004901262015102618N000000000000N40       000440400K 10000000010000001446           
CUS0264000000102431741004         ROSNER JORDAN       12307 SILVER CUP CT                     000N        CARE OF             
MTR02640000001000000000000000RA              01090910    005802190000021900000610000003NN  NNW 000                       N    
RDG02640000WATRL000000004K00000000000000948004801262015102534N000000000000N40       000580400K 10000000010000000912           
CUS0264000000102431742002         DESAI VISHNUBHAI K  12309 SILVER CUP CT                     000N        CARE OF             
MTR02640000001000000000000000RA              01085080    005802200000022000000610000003NN  NNW 000                       N    
RDG02640000WATRL000000004K00000000000001502004701262015102436N000000000000N40       000520400K 10000000010000001480           
CUS0264000000102431738000         SHAH MANISH H       12311 SILVER CUP CT                     000N        CARE OF             
MTR02640000001000000000000000RA              01090182    005802210000022100000610000003NN  NNW 000                       N    
RDG02640000WATRL000000004K00000000000000935004601262015102344N000000000000N40       000450400K 10000000010000000914           
CUS0264000000102431752001         BAYLIN SCOTT L      12310 SILVER CUP CT                     000N        CARE OF             
MTR02640000001000000000000000RA              01077279    005802220000022200000610000003NN  NNW 000                       N    
RDG02640000WATRL000000004K00000000000001656004501262015102259N000000000000N40       000530400K 10000000010000001630           
CUS0264000000102431743000         BARK BRIAN S        12308 SILVER CUP CT                     000N        CARE OF             
MTR02640000001000000000000000RA              01085110    005802230000022300000610000003NN  NNW 000                       N    
RDG02640000WATRL000000004K00000000000001649004401262015102206N000000000000N40       001330400K 10000000010000001612           
CUS0264000000102431744008         WOLF STEPHEN F      12306 SILVER CUP CT                     000N        CARE OF             
MTR02640000001000000000000000RA              01090868    005802240000022400000610000003NN  NNW 000                       N    
RDG02640000WATRL000000004K00000000000000785004301262015101953N000000000000N40       000560400K 10000000010000000765           
CUS0264000000102431745005         BINKOWSKI JOSEPH DAV12304 SILVER CUP CT                     000N        CARE OF             
MTR02640000001000000000000000RA              10007447    005802250000022500000570000000NN  NNW 000                       N    
RDG02640000WATRL000000004K00000000000000448004201262015101857N000000000000N40       000450400K 10000000010000000432           
CUS0264000000102431746003         ASPLEN SUZANNE W    12302 SILVER CUP CT                     000N        CARE OF             
MTR02640000001000000000000000RA              01088868    005802260000022600000610000003NN  NNW 000                       N    
RDG02640000WATRL000000004K00000000000000836004101262015101812N000000000000N40       000590400K 10000000010000000823           
CUS0264000000102431750005         BELL KENNETH R      813 STABLE MANOR RD                     000N        CARE OF             
MTR02640000001000000000000000RA              14920324    005802270000022700000310000003NN  NNW 000                       N    
RDG02640000WATRL000000004K00000000000002671004001262015101713N000400000010N40       000710400K 10000000010000002644           
CUS0264000000102431751003         BALDWIN CHARLENE    815 STABLE MANOR RD                     000N        CARE OF             
MTR02640000001000000000000000RA              14917427    005802280000022800000310000003NN  NNW 000                       N    
RDG02640000WATRL000000004K00000000000001008003901262015101602N000000000000N40       001260400K 10000000010000000999           
CUS0264000000102431710009         KOSMIDES GREGORY P  11210 APPALOOSA DR                      000N        CARE OF             
MTR02640000001000000000000000RA              01077273    005802290000022900000610000003NN  NNW 000                       N    
RDG02640000WATRL000000004K00000000000003787002401262015103908N000000000000N40       006960400K 10000000010000003668           
CUS0264000000102431711007         ANGITA PATEL        11212 APPALOOSA DR                      000N        CARE OF             
MTR02640000001000000000000000RA              01090873    005802300000023000000610000003NN  NNW 000                       N    
RDG02640000WATRL000000004K00000000000001039004401262015111754N000000000000N40       001200400K 10000000010000000988           
CUS0264000000102431712005         LEVIN SCOTT M       11214 APPALOOSA DR                      000N        CARE OF             
MTR02640000001000000000000000RA              01078506    005802310000023100000610000003NN  NNW 000                       N    
RDG02640000WATRL000000004K00000000000002143004501262015111831N000000000000N40       000370400K 10000000010000002101           
CUS0264000000102431713003         SAUNDERS DAVID E    11216 APPALOOSA DR                      000N        CARE OF             
MTR02640000001000000000000000RA              01084525    005802320000023200000610000003NN  NNW 000                       N    
RDG02640000WATRL000000004K00000000000001029004601262015111925N000000000000N40       000540400K 10000000010000001009           
CUS0264000000102431714001         PAUL CIECWIERZ      11218 APPALOOSA DR                      000N        CARE OF             
MTR02640000001000000000000000RA              01082452    005802330000023300000610000003NN  NNW 000                       N    
RDG02640000WATRL000000004K00000000000001353004701262015112042N000000000000N40       000770400K 10000000010000001337           
CUS0264000000102431715008         LINARES GEORGE E    11220 APPALOOSA DR                      000N        CARE OF             
MTR02640000001000000000000000RA              01082450    005802340000023400000610000003NN  NNW 000                       N    
RDG02640000WATRL000000004K00000000000001141004801262015112123N000000000000N40       000410400K 10000000010000001105           
CUS0264000000102431716006         ROBINSON NECHELLE A 11222 APPALOOSA DR                      000N        CARE OF             
MTR02640000001000000000000000RA              01072510    005802350000023500000610000003NN  NNW 000                       N    
RDG02640000WATRL000000004K00000000000000994004901262015112226N000000000000N40       000630400K 10000000010000000970           
CUS0264000000102431717004         EPSTEIN BENJAMIN    11224 APPALOOSA DR                      000N        CARE OF             
MTR02640000001000000000000000RA              01085099    005802360000023600000610000000NN  NNW 000                       N    
RDG02640000WATRL000000004K00000000000001632005001262015112321N000000000000N40       000550400K 10000000010000001588           
CUS0264000000102431718002         SEEGULL LARRY R     11226 APPALOOSA DR                      000N        CARE OF             
MTR02640000001000000000000000RA              00139332    005802370000023700000570000003NN  NNW 000                       N    
RDG02640000WATRL000000004K00000000000001476005101262015112357N000000000000N40       000360400K 10000000010000001443           
CUS0264000000102431719000         BRUCHMAN DOUGLAS W  11228 APPALOOSA DR                      000N        CARE OF             
MTR02640000001000000000000000RA              00139061    005802380000023800000570000000NN  NNW 000                       N    
RDG02640000WATRL000000004K00000000000001874009801262015112332N000000000000N40       000380400K 10000000010000001841           
CUS0264000000102431720008         GUSTAVSSON NICLAS K 11230 APPALOOSA DR                      000N        CARE OF             
MTR02640000001000000000000000RA              00139690    005802390000023900000570000000NN  NNW 000                       N    
RDG02640000WATRL000000004K00000000000001599009701262015112254N000000000000N40       000960400K 10000000010000001574           
CUS0264000000102431726005         GOREN HOWARD W      11225 APPALOOSA DR                      000N        CARE OF             
MTR02640000001000000000000000RA              01085094    005802400000024000000610000003NN  NNW 000                       N    
RDG02640000WATRL000000004K00000000000001661009601262015112118N000000000000N40       000400400K 10000000010000001636           
CUS0264000000102431725007         ZHANG CHONG         11223 APPALOOSA DR                      000N        CARE OF             
MTR02640000001000000000000000RA              01081705    005802410000024100000610000000NN  NNW 000                       N    
RDG02640000WATRL000000004K00000000000001263009501262015112038N000300000010N40       000380400K 10000000010000001177           
CUS0264000000102431724000         NOEL DAVID R        11221 APPALOOSA DR                      000N        CARE OF             
MTR02640000001000000000000000RA              01081708    005802420000024200000610000000NN  NNW 000                       N    
RDG02640000WATRL000000004K00000000000001524009401262015112000N000000000000N40       000540400K 10000000010000001499           
CUS0264000000102431723002         MARKS ADAM J        11219 APPALOOSA DR                      000N        CARE OF             
MTR02640000001000000000000000RA              00139333    005802430000024300000570000003NN  NNW 000                       N    
RDG02640000WATRL000000004K00000000000001850009301262015111906N000000000000N40       000780400K 10000000010000001817           
CUS0264000000102431722004         SHEVRIN ANDREW G    11217 APPALOOSA DR                      000N        CARE OF             
MTR02640000001000000000000000RA              00139329    005802440000024400000570000000NN  NNW 000                       N    
RDG02640000WATRL000000004K00000000000001731009201262015111748N000400000010N40       000990400K 10000000010000001707           
CUS0264000000102431721006         TAYLOR SHARON L     11215 APPALOOSA DR                      000N        CARE OF             
MTR02640000001000000000000000RA              01077274    005802450000024500000610000000NN  NNW 000                       N    
RDG02640000WATRL000000004K00000000000001620009101262015111609N000000000000N40       001090400K 10000000010000001583           
CUS0264000000102437942002         WIENNER STEPHEN M   830 STABLE MANOR RD                     000N        CARE OF             
MTR02640000001000000000000000RA              14905980    005802460000024600000310000003NN  NNW 000                       N    
RDG02640000WATRL000000004K00000000000003176001501262015100916N000000000000N40       031820400K 10000000010000003141           
CUS0264000000102437940006         PATEL NAVRANG M     826 STABLE MANOR RD                     000N        CARE OF             
MTR02640000001000000000000000RA              14905983    005802470000024700000310000003NN  NNW 000                       N    
RDG02640000WATRL000000004K00000000000001243001601262015101007N000000000000N40       000510400K 10000000010000001222           
CUS0264000000102437943000         LEVIN BRIAN         824 STABLE MANOR RD                     000N        CARE OF             
MTR02640000001000000000000000RA              14911245    005802480000024800000310000000NN  NNW 000                       N    
RDG02640000WATRL000000004K00000000000000784001701262015101131N000000000000N40       000840400K 10000000010000000757           
CUS0264000000102428516005         ALPERSTEIN JOEL     812 STABLE MANOR RD                     000N        CARE OF             
MTR02640000001000000000000000RA              99387376    005802490000024900000570000003NN  NNW 000                       N    
RDG02640000WATRL000000004K00000000000001527005101262015102901N000000000000N40       001130400K 10000000010000001501           
CUS0264000000102428515007         KLAU ANDREW L       810 STABLE MANOR RD                     000N        CARE OF             
MTR02640000001000000000000000RA              99387374    005802500000025000000570000003NN  NNW 000                       N    
RDG02640000WATRL000000004K00000000000002311005201262015102945N000000000000N40       000440400K 10000000010000002269           
CUS0264000000102428514000         CAPLAN BENNETT M    802 STABLE MANOR RD                     000N        CARE OF             
MTR02640000001000000000000000RA              99388530    005802510000025100000570000003NN  NNW 000                       N    
RDG02640000WATRL000000004K00000000000001748006601262015105059N000400000010N40       000560400K 10000000010000001724           
CUS0264000000102428477000         SORIANO JOVIE       800 STABLE MANOR RD                     000N        CARE OF             
MTR02640000001000000000000000RA              00129393    005802520000025200000570000003NN  NNW 000                       N    
RDG02640000WATRL000000004K00000000000001527002501262015105331N000000000000N40       008630400K 10000000010000001496           
CUS0264000000102445695006         MARK GREEN          12403 WILSON LN                         000N        CARE OF             
MTR02640000001000000000000000RA              99999999    005802530000025300000440000003NN  NNW 000                       N    
RDG02640000WATRL000000004K00000000000000000010001262015113058S022000000000N40       000030400K 10000000010000000010           
CUS0264000000102445696004         MARK GREEN          12405 WILSON LN                         000N        CARE OF             
MTR02640000001000000000000000RA              99999999    005802540000025400000440000003NN  NNW 000                       N    
RDG02640000WATRL000000004K00000000000000000009901262015113055S022000000000N40       004430400K 10000000010000000010           
CUS0264000000102428476002         SHAH JIGAR P        12321 HIGH STAKES DR                    000N        CARE OF             
MTR02640000001000000000000000RA              99389171    005802550000025500000570000003NN  NNW 000                       N    
RDG02640000WATRL000000004K00000000000001002002601262015105431N000000000000N40       000600400K 10000000010000000974           
CUS0264000000102428475004         GAVIN WILLIAM E,JR  12319 HIGH STAKES DR                    000N        CARE OF             
MTR02640000001000000000000000RA              99286660    005802560000025600000570000003NN  NNW 000                       N    
RDG02640000WATRL000000004K00000000000001117002701262015105526N000000000000N40       000550400K 10000000010000001105           
CUS0264000000102428355008         EISGRAU SCOTT       803 CARRIAGE HOUSE CT                   000N        CARE OF             
MTR02640000001000000000000000RA              00130355    005802570000025700000570000003NN  NNW 000                       N    
RDG02640000WATRL000000004K00000000000002353002801262015105637N000000000000N40       000710400K 10000000010000002334           
CUS0264000000102428356006         PATEL ILA A         805 CARRIAGE HOUSE CT                   000N        CARE OF             
MTR02640000001000000000000000RA              00133293    005802580000025800000570000003NN  NNW 000                       N    
RDG02640000WATRL000000004K00000000000001470002901262015105733N000000000000N40       000560400K 10000000010000001438           
CUS0264000000102428357004         BERK KONRAD B K     807 CARRIAGE HOUSE CT                   000N        CARE OF             
MTR02640000001000000000000000RA              00130358    005802590000025900000570000003NN  NNW 000                       N    
RDG02640000WATRL000000004K00000000000001503003001262015105829N000000000000N40       000560400K 10000000010000001486           
CUS0264000000102428358002         IGOR BLAT           809 CARRIAGE HOUSE CT                   000N        CARE OF             
MTR02640000001000000000000000RA              14922071    005802600000026000000310000003NN  NNW 000                       N    
RDG02640000WATRL000000004K00000000000000984003101262015105949N000300000020N40       000800400K 10000000010000000950           
CUS0264000000102428363002         SCHWARTZ JONATHAN B 810 CARRIAGE HOUSE CT                   000N        CARE OF             
MTR02640000001000000000000000RA              99388043    005802610000026100000570000003NN  NNW 000                       N    
RDG02640000WATRL000000004K00000000000001292003201262015110018N000000000000N40       000290400K 10000000010000001262           
CUS0264000000102428362004         JANGHYUK LEE        808 CARRIAGE HOUSE CT                   000N        CARE OF             
