FHDNNNN041010008010008010147N                                                                                           030646
RHD08522500NN02500250000002500000000002500250000352NY025002500250001000000000000000000000000002    01202015NY020000 N         
CUS0852250000108010070004         GEORGE F SCHWEIGER  1256 JUNE RD                            000N        CARE OF             
MTR08522500001000000000000000RA              30515244    005800010000000100000520000003NN  NNW 000                       N    
RDG08522500WATRL000000004K00000000000001616016601272015113048N000000000000N89       000550400K 10000000010000001609           
CUS0852250000108010071002         WEST MARK A         1254 JUNE RD                            000N        CARE OF             
MTR08522500001000000000000000RA              44172744    005800020000000200000520000003NN  NNW 000                       N    
RDG08522500WATRL000000004K00000000000002615016701272015113112N000000000000N89       000240400K 10000000010000002571           
CUS0852250000108010072000         BLACK ALLEN W       1252 JUNE RD                            000N        CARE OF             
MTR08522500001000000000000000RA              23841567    005800030000000300000520000003NN  NNW 000                       N    
RDG08522500WATRL000000004K00000000000002918016801272015113137N000000000000N89       000250400K 10000000010000002876           
CUS0852250000108010073008         PETERSON MARILYNN A 1250 JUNE RD                            000N        CARE OF             
MTR08522500001000000000000000RA              31586370    005800040000000400000520000003NN  NNW 000                       N    
RDG08522500WATRL000000004K00000000000001771016901272015113210N000000000000N89       000330400K 10000000010000001754           
CUS0852250000108010074006         CROSS MARTHA M      1248 JUNE RD                            000N        CARE OF             
MTR08522500001000000000000000RA              11336768    005800050000000500000570000003NN  NNW 000                       N    
RDG08522500WATRL000000004K00000000000003262017101272015115013N000300000010N89       000550400K 10000000010000003267           
CUS0852250000108010075003         ELY THOMAS C        1216 JUNE RD                            000N        CARE OF             
MTR08522500001000000000000000RA              76344937    005800060000000600000350000003NN  NNW 000                       N    
RDG08522500WATRL000000004K00000000000000112017201272015115056N000000000000N89       000430400K 10000000010000000089           
CUS0852250000108010076001         ROSS JASON A        1214 JUNE RD                            000N        CARE OF             
MTR08522500001000000000000000RA              14923117    005800070000000700000310000003NN  NNW 000                       N    
RDG08522500WATRL000000004K00000000000000570017301272015115133N000000000000N89       000370400K 10000000010000000557           
CUS0852250000108010077009         SUTTON EDWARD H     1212 JUNE RD                            000N        CARE OF             
MTR08522500001000000000000000RA              14904206    005800080000000800000310000003NN  NNW 000                       N    
RDG08522500WATRL000000004K00000000000000800017601272015115445N000000000000N89       000580400K 10000000010000000788           
CUS0852250000108010078007         SPERRAZZA RUTH F    1210 JUNE RD                            000N        CARE OF             
MTR08522500001000000000000000RA              00134305    005800090000000900000570000003NN  NNW 000                       N    
RDG08522500WATRL000000004K00000000000001741017701272015115507N000000000000N89       000220400K 10000000010000001732           
CUS0852250000108010079005         KACHINSKAS EDWARD A 1208 JUNE RD                            000N        CARE OF             
MTR08522500001000000000000000RA              54350526    005800100000001000000520000003NN  NNW 000                       N    
RDG08522500WATRL000000004K00000000000001048017801272015115607N000000000000N89       000600400K 10000000010000001046           
CUS0852250000108010080003         EDWARD W BOLTON JR  1206 JUNE RD                            000N        CARE OF             
MTR08522500001000000000000000RA              14929167    005800110000001100000310000003NN  NNW 000                       N    
RDG08522500WATRL000000004K00000000000000578017901272015115633N000000000000N89       000260400K 10000000010000000559           
CUS0852250000108010081001         GUMA DENIS V        1204 JUNE RD                            000N        CARE OF             
MTR08522500001000000000000000RA              76344935    005800120000001200000350000003NY  NNW 000                       N    
MTM0852250076344935    BURIED                                                                                                 
RDG08522500WATRL000000004K00000000000000000000000000000000000 000000000000U         000000400  10000000010000000027           
CUS0852250000108010082009         BOLTON JAMIE MARIE H1202 JUNE RD                            000N        CARE OF             
MTR08522500001000000000000000RA              23649415    005800130000001300000520000003NN  NNW 000                       N    
RDG08522500WATRL000000004K00000000000003294018001272015115806N000000000000N89       000930400K 10000000010000003280           
CUS0852250000108010083007         JOHN CLARK          1200 JUNE RD                            000N        CARE OF             
MTR08522500001000000000000000RA              00134257    005800140000001400000570000003NN  NNW 000                       N    
RDG08522500WATRL000000004K00000000000001808018101272015115831N000000000000N89       000250400K 10000000010000001776           
CUS0852250000108010084005         EHMANN JACOB W      1201 JUNE RD                            000N        CARE OF             
MTR08522500001000000000000000RA              22606346    005800150000001500000520000003NN  NNW 000                       N    
RDG08522500WATRL000000004K00000000000004707018201272015115911N000000000000N89       000400400K 10000000010000004669           
CUS0852250000108010085002         QUINN REBECCA M     1203 JUNE RD                            000N        CARE OF             
MTR08522500001000000000000000RA              01094926    005800160000001600000610000003NN  NNW 000                       N    
RDG08522500WATRL000000004K00000000000001591018301272015115959N000000000000N89       000480400K 10000000010000001565           
CUS0852250000108010086000         WEST BRYAN E        1205 JUNE RD                            000N        CARE OF             
MTR08522500001000000000000000RA              23649404    005800170000001700000520000003NN  NNW 000                       N    
RDG08522500WATRL000000004K00000000000003704018401272015120041N000000000000N89       000420400K 10000000010000003666           
CUS0852250000108010087008         ORTADO MATTHEW T    1211 JUNE RD                            000N        CARE OF             
MTR08522500001000000000000000RA              20767690    005800180000001800000520000003NN  NNW 000                       N    
RDG08522500WATRL000000004K00000000000004104017501272015115347N000000000000N89       000700400K 10000000010000004083           
CUS0852250000108010088006         MARY JANE WOLF      1213 JUNE RD                            000N        CARE OF             
MTR08522500001000000000000000RA              44002918    005800190000001900000520000000NN  NNW 000                       N    
RDG08522500WATRL000000004K00000000000000000000000000000000000 000000000000U         000000400  10000000010000001006           
CUS0852250000108010089004         HOLMES SOCORRO D    1215 JUNE RD                            000N        CARE OF             
MTR08522500001000000000000000RA              75618035    005800200000002000000350000003NN  NNW 000                       N    
RDG08522500WATRL000000004K00000000000000128017401272015115237N000000000000N89       000640400K 10000000010000000087           
CUS0852250000108010090002         DIXON THERESA       5532 GAYLAND RD                         000N        CARE OF             
MTR08522500001000000000000000RA              9685330     005800210000002100000570000003NN  NNW 000                       N    
RDG08522500WATRL000000004K00000000000003800017001272015114918N000000000000N89       010280400K 10000000010000003792           
CUS0852250000108010091000         MR MICHAEL SULLIVAN 5530 OAKLAND RD                         000N        CARE OF             
MTR08522500001000000000000000RA              20767878    005800220000002200000520000003NN  NNW 000                       N    
RDG08522500WATRL000000004K00000000000004205009801272015102942N000000000000N89       016950400K 10000000010000004201           
CUS0852250000108010092008         KRAMER EDWARD A     5532 OAKLAND RD                         000N        CARE OF             
MTR08522500001000000000000000RA              14919521    005800230000002300000310000003NN  NNW 000                       N    
RDG08522500WATRL000000004K00000000000000672009901272015103013N000000000000N89       000310400K 10000000010000000666           
CUS0852250000108010093006         NELSON E LIGHTMAN   5534 OAKLAND RD                         000N        CARE OF             
MTR08522500001000000000000000RA              24224328    005800240000002400000520000003NN  NNW 000                       N    
RDG08522500WATRL000000004K00000000000003145010001272015103042N000000000000N89       000290400K 10000000010000003142           
CUS0852250000108010094004         WHITAKER STEVEN C   5536 OAKLAND RD                         000N        CARE OF             
MTR08522500001000000000000000RA              33082768    005800250000002500000520000003NN  NNW 000                       N    
RDG08522500WATRL000000004K00000000000003584010101272015103120N000400000010N89       000380400K 10000000010000003575           
CUS0852250000108010095001         KRAUS HENRY J       5538 OAKLAND RD                         000N        CARE OF             
MTR08522500001000000000000000RA              99288732    005800260000002600000570000003NN  NNW 000                       N    
RDG08522500WATRL000000004K00000000000001276010201272015103156N000000000000N89       000360400K 10000000010000001243           
CUS0852250000108010096009         RICHARD T STEWART   5540 OAKLAND RD                         000N        CARE OF             
MTR08522500001000000000000000RA              00134195    005800270000002700000570000003NN  NNW 000                       N    
RDG08522500WATRL000000004K00000000000000777010301272015103246N000000000000N89       000500400K 10000000010000000766           
CUS0852250000108010097007         CUGLE LOUIS D       5542 OAKLAND RD                         000N        CARE OF             
MTR08522500001000000000000000RA              48586284    005800280000002800000520000003NN  NNW 000                       N    
RDG08522500WATRL000000004K00000000000001368010401272015103350N000000000000N89       000640400K 10000000010000001362           
CUS0852250000108010098005         JOHN M BRAUN        5544 OAKLAND RD                         000N        CARE OF             
MTR08522500001000000000000000RA              10022743    005800290000002900000570000003NN  NNW 000                       N    
RDG08522500WATRL000000004K00000000000000122010501272015103420N000000000000N89       000300400K 10000000010000000113           
CUS0852250000108010099003         SQUIRES JULIA A     5546 OAKLAND RD                         000N        CARE OF             
MTR08522500001000000000000000RA              14925414    005800300000003000000310000003NN  NNW 000                       N    
RDG08522500WATRL000000004K00000000000000196010601272015103508N000000000000N89       000480400K 10000000010000000193           
CUS0852250000108010100009         HAGER ROBERT A      5548 OAKLAND RD                         000N        CARE OF             
MTR08522500001000000000000000RA              00139896    005800310000003100000570000003NN  NNW 000                       N    
RDG08522500WATRL000000004K00000000000001140010701272015103548N000000000000N89       000400400K 10000000010000001112           
CUS0852250000108010101007         GARDNER ROBERT L,SR 5550 OAKLAND RD                         000N        CARE OF             
MTR08522500001000000000000000RA              01112423    005800320000003200000610000003NN  NNW 000                       N    
RDG08522500WATRL000000004K00000000000001059010801272015103628N000000000000N89       000400400K 10000000010000001059           
CUS0852250000108010102005         JUSTIN& KRISTEN KETT5552 OAKLAND RD                         000N        CARE OF             
MTR08522500001000000000000000RA              01085979    005800330000003300000610000003NY  NNW 000                       N    
MTM0852250001085979    BURIED                                                                                                 
RDG08522500WATRL000000004K00000000000000000000000000000000000 000000000000U         000000400  10000000010000001782           
CUS0852250000108010103003         ARTHUR REDMOND      5554 OAKLAND RD                         000N        CARE OF             
MTR08522500001000000000000000RA              50787801    005800340000003400000520000003NN  NNW 000                       N    
RDG08522500WATRL000000004K00000000000001358010901272015103744N000000000000N89       000760400K 10000000010000001345           
CUS0852250000108010104001         GALLAGHER LORRAINE T5556 OAKLAND RD                         000N        CARE OF             
MTR08522500001000000000000000RA              10009251    005800350000003500000570000003NN  NNW 000                       N    
RDG08522500WATRL000000004K00000000000000345011001272015103858N000000000000N89       000740400K 10000000010000000331           
CUS0852250000108010105008         MATASSA DOROTHY M/RO5558 OAKLAND RD                         000N        CARE OF             
MTR08522500001000000000000000RA              77987729    005800360000003600000350000003NN  NNW 000                       N    
RDG08522500WATRL000000004K00000000000000005011101272015104001N000400000010N89       000630400K 10000000010000000000           
CUS0852250000108010106006         FROST TIMOTHY X     5560 OAKLAND RD                         000N        CARE OF             
MTR08522500001000000000000000RA              01102726    005800370000003700000610000003NN  NNW 000                       N    
RDG08522500WATRL000000004K00000000000000546011201272015104030N000000000000N89       000290400K 10000000010000000525           
CUS0852250000108010107004         VAN FURROW          5562 OAKLAND RD                         000N        CARE OF             
MTR08522500001000000000000000RA              31586624    005800380000003800000520000003NN  NNW 000                       N    
RDG08522500WATRL000000004K00000000000002539011301272015104140N000000000000N89       000700400K 10000000010000002516           
CUS0852250000108010108002         BATEMAN BENJAMIN    5564 OAKLAND RD                         000N        CARE OF             
MTR08522500001000000000000000RA              00134198    005800390000003900000570000003NN  NNW 000                       N    
RDG08522500WATRL000000004K00000000000000465011401272015104417N000000000000N89       001570400K 10000000010000000432           
CUS0852250000108010109000         PATRICIA A BLAIR    1250 OAKLAND TER RD                     000N        CARE OF             
MTR08522500001000000000000000RA              76349294    005800400000004000000350000003NN  NNW 000                       N    
RDG08522500WATRL000000004K00000000000000042011501272015104510N000000000000N89       000530400K 10000000010000000026           
CUS0852250000108010110008         TAMALAVICZ KAREN A  5561 GAYLAND RD                         000N        CARE OF             
MTR08522500001000000000000000RA              10017177    005800410000004100000570000003NN  NNW 000                       N    
RDG08522500WATRL000000004K00000000000000125011701272015104728N000000000000N89       000810400K 10000000010000000106           
CUS0852250000108010111006         RICHARD & REBECCA MC5559 GAYLAND RD                         000N        CARE OF             
MTR08522500001000000000000000RA              00134258    005800420000004200000570000003NN  NNW 000                       N    
RDG08522500WATRL000000004K00000000000000953013901272015110808N000000000000N89       000520400K 10000000010000000932           
CUS0852250000108010112004         DANKO KATIE M       5557 GAYLAND RD                         000N        CARE OF             
MTR08522500001000000000000000RA              99290528    005800430000004300000570000003NN  NNW 000                       N    
RDG08522500WATRL000000004K00000000000001137014201272015111021N000000000000N89       000280400K 10000000010000001113           
CUS0852250000108010113002         DAUGHTON DON LEE    5555 GAYLAND RD                         000N        CARE OF             
MTR08522500001000000000000000RA              27213913    005800440000004400000520000003NN  NNW 000                       N    
RDG08522500WATRL000000004K00000000000000042014301272015111124N000004100010N89       000630400K 10000000010000005895           
CUS0852250000108010114000         FAGAN ADAM R        5553 GAYLAND RD                         000N        CARE OF             
MTR08522500001000000000000000RA              45383303    005800450000004500000520000003NN  NNW 000                       N    
RDG08522500WATRL000000004K00000000000001518014401272015111200N000000000000N89       000360400K 10000000010000001509           
CUS0852250000108010115007         BOLDOWSKY LINDSEY   5551 GAYLAND RD                         000N        CARE OF             
MTR08522500001000000000000000RA              39585452    005800460000004600000520000003NN  NNW 000                       N    
RDG08522500WATRL000000004K00000000000002008014501272015111243N000300000010N89       000430400K 10000000010000001993           
CUS0852250000108010116005         RICHARDS RHONDA M   5549 GAYLAND RD                         000N        CARE OF             
MTR08522500001000000000000000RA              24224567    005800470000004700000520000003NN  NNW 000                       N    
RDG08522500WATRL000000004K00000000000004196014601272015111347N000000000000N89       000640400K 10000000010000004155           
CUS0852250000108010117003         EMBERT CARMEN D     5547 GAYLAND RD                         000N        CARE OF             
MTR08522500001000000000000000RA              99290891    005800480000004800000570000003NN  NNW 000                       N    
RDG08522500WATRL000000004K00000000000000530014701272015111421N000000000000N89       000340400K 10000000010000000509           
CUS0852250000108010118001         LEAKE TRACEY A      5545 GAYLAND RD                         000N        CARE OF             
MTR08522500001000000000000000RA              14916402    005800490000004900000310000003NN  NNW 000                       N    
RDG08522500WATRL000000004K00000000000000597015301272015112021N000000000000N89       000630400K 10000000010000000583           
CUS0852250000108010119009         LINTON JANET L      5543 GAYLAND RD                         000N        CARE OF             
MTR08522500001000000000000000RA              23649403    005800500000005000000520000003NN  NNW 000                       N    
RDG08522500WATRL000000004K00000000000004210015401272015112103N000000000000N89       000420400K 10000000010000004184           
CUS0852250000108010120007         BRANDT LAWRENCE E,SR5541 GAYLAND RD                         000N        CARE OF             
MTR08522500001000000000000000RA              45382764    005800510000005100000520000000NN  NNW 000                       N    
RDG08522500WATRL000000004K00000000000001947015501272015112126N000000000000N89       000230400K 10000000010000001935           
CUS0852250000108010121005         STEVE A GAISIOR     5539 GAYLAND RD                         000N        CARE OF             
MTR08522500001000000000000000RA              40322331    005800520000005200000520000003NN  NNW 000                       N    
RDG08522500WATRL000000004K00000000000002139015601272015112147N000000000000N89       000210400K 10000000010000002129           
CUS0852250000108010122003         RAPOZA SETH W       5537 GAYLAND RD                         000N        CARE OF             
MTR08522500001000000000000000RA              00134304    005800530000005300000570000000NN  NNW 000                       N    
RDG08522500WATRL000000004K00000000000001404015701272015112216N000000000000N89       000290400K 10000000010000001385           
CUS0852250000108010123001         DAWSON KURT R       5535 GAYLAND RD                         000N        CARE OF             
MTR08522500001000000000000000RA              52289988    005800540000005400000520000000NN  NNW 000                       N    
RDG08522500WATRL000000004K00000000000001678016201272015112555N000000000000N89       000580400K 10000000010000001649           
CUS0852250000108010124009         CATHERINE RUPP      5533 GAYLAND RD                         000N        CARE OF             
MTR08522500001000000000000000RA              35109865    005800550000005500000520000003NN  NNW 000                       N    
RDG08522500WATRL000000004K00000000000001032016301272015112645N000000000000N89       000500400K 10000000010000001026           
CUS0852250000108010125006         POPE DAVID J        5531 GAYLAND RD                         000N        CARE OF             
MTR08522500001000000000000000RA              99289660    005800560000005600000570000003NN  NNW 000                       N    
RDG08522500WATRL000000004K00000000000001189016501272015112953N000400000010N89       000650400K 10000000010000001170           
CUS0852250000108010126004         NAING HPONE         5534 GAYLAND RD                         000N        CARE OF             
MTR08522500001000000000000000RA              46884475    005800570000005700000520000000NN  NNW 000                       N    
RDG08522500WATRL000000004K00000000000001834016401272015112848N000000000000N89       001230400K 10000000010000001823           
CUS0852250000108010127002         MCDANIEL JILL A     5536 GAYLAND RD                         000N        CARE OF             
MTR08522500001000000000000000RA              27817660    005800580000005800000520000003NN  NNW 000                       N    
RDG08522500WATRL000000004K00000000000000000000000000000000000 000000000000U         000000400  10000000010000001265           
CUS0852250000108010128000         MICHAEL FEEHELY JR  5538 GAYLAND RD                         000N        CARE OF             
MTR08522500001000000000000000RA              75613916    005800590000005900000350000003NN  NNW 000                       N    
RDG08522500WATRL000000004K00000000000000107016101272015112457N000000000000N89       000380400K 10000000010000000088           
CUS0852250000108010129008         FEEHELY MICHAEL K   5540 GAYLAND RD                         000N        CARE OF             
MTR08522500001000000000000000RA              14929556    005800600000006000000310000003NN  NNW 000                       N    
RDG08522500WATRL000000004K00000000000000719016001272015112419N000000000000N89       000260400K 10000000010000000695           
CUS0852250000108010130006         BERMAN MARC A       5542 GAYLAND RD                         000N        CARE OF             
MTR08522500001000000000000000RA              99387894    005800610000006100000570000003NN  NNW 000                       N    
RDG08522500WATRL000000004K00000000000001125015901272015112353N000000000000N89       000540400K 10000000010000001116           
CUS0852250000108010131004         SPOTTEN MICHAEL     5544 GAYLAND RD                         000N        CARE OF             
MTR08522500001000000000000000RA              10021996    005800620000006200000570000003NN  NNW 000                       N    
RDG08522500WATRL000000004K00000000000000173015801272015112259N000000000000N89       000430400K 10000000010000000157           
CUS0852250000108010132002         WINK CALVIN I,JR    5546 GAYLAND RD                         000N        CARE OF             
MTR08522500001000000000000000RA              40781900    005800630000006300000520000003NN  NNW 000                       N    
RDG08522500WATRL000000004K00000000000002162015201272015111918N000000000000N89       000340400K 10000000010000002151           
CUS0852250000108010133000         KRAHLING ELIZABETH A5548 GAYLAND RD                         000N        CARE OF             
MTR08522500001000000000000000RA              48582295    005800640000006400000520000003NN  NNW 000                       N    
RDG08522500WATRL000000004K00000000000001632015101272015111844N000000000000N89       000470400K 10000000010000001615           
CUS0852250000108010134008         WALTER F GEARY      5550 GAYLAND RD                         000N        CARE OF             
MTR08522500001000000000000000RA              00134256    005800650000006500000570000003NN  NNW 000                       N    
RDG08522500WATRL000000004K00000000000001455015001272015111757N000000000000N89       000570400K 10000000010000001423           
CUS0852250000108010135005         ATHAS JAMES         5552 GAYLAND RD                         000N        CARE OF             
MTR08522500001000000000000000RA              27133589    005800660000006600000520000000NN  NNW 000                       N    
RDG08522500WATRL000000004K00000000000002415014901272015111700N000300000010N89       001010400K 10000000010000002405           
CUS0852250000108010136003         JACOBS DORIS A      5554 GAYLAND RD                         000N        CARE OF             
MTR08522500001000000000000000RA              23649401    005800670000006700000520000000NN  NNW 000                       N    
RDG08522500WATRL000000004K00000000000005000014801272015111519N000000000000N89       000580400K 10000000010000004974           
CUS0852250000108010137001         MICHAEL J MCCONACHIE5560 GAYLAND RD                         000N        CARE OF             
MTR08522500001000000000000000RA              40781892    005800680000006800000520000003NN  NNW 000                       N    
RDG08522500WATRL000000004K00000000000000663014101272015110953N000000000000N89       000510400K 10000000010000000646           
CUS0852250000108010138009         RESKE CHRISTOPHER G 5562 GAYLAND RD                         000N        CARE OF             
MTR08522500001000000000000000RA              00134253    005800690000006900000570000003NN  NNW 000                       N    
RDG08522500WATRL000000004K00000000000000839014001272015110902N000000000000N89       000540400K 10000000010000000831           
CUS0852250000108010139007         RODGERS CALVIN      5564 GAYLAND RD                         000N        CARE OF             
MTR08522500001000000000000000RA              01098982    005800700000007000000610000003NN  NNW 000                       N    
RDG08522500WATRL000000004K00000000000000620013801272015110716N000000000000N89       001670400K 10000000010000000603           
CUS0852250000108010140005         LARRAINE DOUCETTE   1242 OAKLAND TER RD                     000N        CARE OF             
MTR08522500001000000000000000RA              24760096    005800710000007100000520000003NN  NNW 000                       N    
RDG08522500WATRL000000004K00000000000001938013701272015110429N000000000000N89       000510400K 10000000010000001938           
CUS0852250000108010141003         JEFFREY B FISHER    1240 OAKLAND TER RD                     000N        CARE OF             
MTR08522500001000000000000000RA              00134255    005800720000007200000570000003NN  NNW 000                       N    
RDG08522500WATRL000000004K00000000000001066013601272015110338N000000000000N89       000490400K 10000000010000001050           
CUS0852250000108010142001         MCKENZIE COREY EDWAR1238 OAKLAND TER RD                     000N        CARE OF             
MTR08522500001000000000000000RA              19460232    005800730000007300000520000003NN  NNW 000                       N    
RDG08522500WATRL000000004K00000000000004045013501272015110249N000000000000N89       000480400K 10000000010000004021           
CUS0852250000108010143009         NORDVEDT CHRISTOPHER1236 OAKLAND TER RD                     000N        CARE OF             
MTR08522500001000000000000000RA              10001305    005800740000007400000570000003NN  NNW 000                       N    
RDG08522500WATRL000000004K00000000000000259013401272015110201N000000000000N89       000320400K 10000000010000000247           
CUS0852250000108010144007         MANNER KEVIN        1234 OAKLAND TER RD                     000N        CARE OF             
MTR08522500001000000000000000RA              00139893    005800750000007500000570000003NN  NNW 000                       N    
RDG08522500WATRL000000004K00000000000000770013301272015110129N000000000000N89       000930400K 10000000010000000761           
CUS0852250000108010145004         DI PAW              1232 OAKLAND TER RD                     000N        CARE OF             
MTR08522500001000000000000000RA              01094951    005800760000007600000610000003NN  NNW 000                       N    
RDG08522500WATRL000000004K00000000000001137013201272015105956N000000000000N89       000740400K 10000000010000001091           
CUS0852250000108010146002         MATTINGLY KAREN     5525 HEATHERWOOD RD                     000N        CARE OF             
MTR08522500001000000000000000RA              26003804    005800770000007700000520000003NN  NNW 000                       N    
RDG08522500WATRL000000004K00000000000000903020901272015121707N000000000000N89       000290400K 10000000010000000893           
CUS0852250000108010147000         NORMAN STURM        5523 HEATHERWOOD RD                     000N        CARE OF             
MTR08522500001000000000000000RA              01089846    005800780000007800000610000003NN  NNW 000                       N    
RDG08522500WATRL000000004K00000000000000590020801272015121638N000000000000N89       000370400K 10000000010000000577           
CUS0852250000108010148008         GARRISON JAMES      5521 HEATHERWOOD RD                     000N        CARE OF             
MTR08522500001000000000000000RA              24766860    005800790000007900000520000003NN  NNW 000                       N    
RDG08522500WATRL000000004K00000000000002916020601272015121413N000000000000N89       000380400K 10000000010000002895           
CUS0852250000108010149006         HARDESTY WAYNE L,JR 5519 HEATHERWOOD RD                     000N        CARE OF             
MTR08522500001000000000000000RA              01094956    005800800000008000000610000003NN  NNW 000                       N    
RDG08522500WATRL000000004K00000000000000625020501272015121335N000000000000N89       000350400K 10000000010000000614           
CUS0852250000108010150004         BENNY-SONNENREICH MI5517 HEATHERWOOD RD                     000N        CARE OF             
MTR08522500001000000000000000RA              44173128    005800810000008100000520000003NN  NNW 000                       N    
RDG08522500WATRL000000004K00000000000002743020401272015121300N000000000000N89       000420400K 10000000010000002720           
CUS0852250000108010151002         STOUT DAVID R       5515 HEATHERWOOD RD                     000N        CARE OF             
MTR08522500001000000000000000RA              48586210    005800820000008200000520000003NN  NNW 000                       N    
RDG08522500WATRL000000004K00000000000001804020101272015121121N000000000000N89       000230400K 10000000010000001792           
CUS0852250000108010152000         TUERK ANGELA C  HUGH5513 HEATHERWOOD RD                     000N        CARE OF             
MTR08522500001000000000000000RA              11471990    005800830000008300000570000003NN  NNW 000                       N    
RDG08522500WATRL000000004K00000000000006397020001272015121058N000000000000N89       000350400K 10000000010000006378           
CUS0852250000108010153008         SMITH ROBERT K      5511 HEATHERWOOD RD                     000N        CARE OF             
MTR08522500001000000000000000RA              00134254    005800840000008400000570000003NN  NNW 000                       N    
RDG08522500WATRL000000004K00000000000001434019701272015120932N000000000000N89       000250400K 10000000010000001409           
CUS0852250000108010154006         KNIGHT CRAIG        5509 HEATHERWOOD RD                     000N        CARE OF             
MTR08522500001000000000000000RA              00134183    005800850000008500000570000003NN  NNW 000                       N    
RDG08522500WATRL000000004K00000000000000494019601272015120907N000000000000N89       000340400K 10000000010000000482           
CUS0852250000108010155003         PICKETT DILLON F    5507 HEATHERWOOD RD                     000N        CARE OF             
MTR08522500001000000000000000RA              23648171    005800860000008600000520000003NN  NNW 000                       N    
RDG08522500WATRL000000004K00000000000003593019201272015120701N000000000000N89       000380400K 10000000010000003584           
CUS0852250000108010156001         MAY JOHN G          5505 HEATHERWOOD RD                     000N        CARE OF             
MTR08522500001000000000000000RA              36697733    005800870000008700000520000003NN  NNW 000                       N    
RDG08522500WATRL000000004K00000000000002407019101272015120623N000000000000N89       000300400K 10000000010000002395           
CUS0852250000108010157009         POMARZYNSKI JOHN D  5503 HEATHERWOOD RD                     000N        CARE OF             
MTR08522500001000000000000000RA              01100380    005800880000008800000610000003NN  NNW 000                       N    
RDG08522500WATRL000000004K00000000000000569019001272015120553N000000000000N89       000280400K 10000000010000000561           
CUS0852250000108010158007         BRONIS JOSEPH M,JR  5501 HEATHERWOOD RD                     000N        CARE OF             
MTR08522500001000000000000000RA              99291989    005800890000008900000570000003NN  NNW 000                       N    
RDG08522500WATRL000000004K00000000000001538018601272015120300N000000000000N89       000460400K 10000000010000001514           
CUS0852250000108010159005         3708 COOLIDGE AVENUE1209 JUNE RD                            000N        CARE OF             
MTR08522500001000000000000000RA              00130169    005800900000009000000570000003NN  NNW 000                       N    
RDG08522500WATRL000000004K00000000000001325018501272015120214N000300000010N89       000930400K 10000000010000001311           
CUS0852250000108010160003         MILIA H GWIN        5500 HEATHERWOOD RD                     000N        CARE OF             
MTR08522500001000000000000000RA              00130167    005800910000009100000570000003NN  NNW 000                       N    
RDG08522500WATRL000000004K00000000000000358018701272015120325N000000000000N89       000250400K 10000000010000000337           
CUS0852250000108010161001         GEORGE HARP         5502 HEATHERWOOD RD                     000N        CARE OF             
MTR08522500001000000000000000RA              99388621    005800920000009200000570000003NN  NNW 000                       N    
RDG08522500WATRL000000004K00000000000001216018801272015120409N000000000000N89       000440400K 10000000010000001201           
CUS0852250000108010162009         OCONNELL ROBERT     5504 HEATHERWOOD RD                     000N        CARE OF             
MTR08522500001000000000000000RA              10010274    005800930000009300000570000003NN  NNW 000                       N    
RDG08522500WATRL000000004K00000000000000270018901272015120525N000000000000N89       000760400K 10000000010000000262           
CUS0852250000108010163007         GRIMES MICHAEL J    5506 HEATHERWOOD RD                     000N        CARE OF             
MTR08522500001000000000000000RA              10009530    005800940000009400000570000003NN  NNW 000                       N    
RDG08522500WATRL000000004K00000000000000379019301272015120731N000000000000N89       000300400K 10000000010000000348           
CUS0852250000108010164005         BAKER MARGALEE E    5508 HEATHERWOOD RD                     000N        CARE OF             
MTR08522500001000000000000000RA              24769059    005800950000009500000520000003NN  NNW 000                       N    
RDG08522500WATRL000000004K00000000000002749019401272015120801N000000000000N89       000300400K 10000000010000002743           
CUS0852250000108010165002         ELBON ERIC C        5510 HEATHERWOOD RD                     000N        CARE OF             
MTR08522500001000000000000000RA              01094952    005800960000009600000610000003NN  NNW 000                       N    
RDG08522500WATRL000000004K00000000000000925019501272015120833N000000000000N89       000320400K 10000000010000000905           
CUS0852250000108010166000         JUPITZ WALTER,JR    5512 HEATHERWOOD RD                     000N        CARE OF             
MTR08522500001000000000000000RA              11429628    005800970000009700000570000003NN  NNW 000                       N    
RDG08522500WATRL000000004K00000000000005233019801272015120958N000300000010N89       000260400K 10000000010000005224           
CUS0852250000108010167008         WOLF ERIC L         5514 HEATHERWOOD RD                     000N        CARE OF             
MTR08522500001000000000000000RA              01094959    005800980000009800000610000003NN  NNW 000                       N    
RDG08522500WATRL000000004K00000000000001906019901272015121023N000000000000N89       000250400K 10000000010000001884           
CUS0852250000108010168006         SCULLY MARK T       5516 HEATHERWOOD RD                     000N        CARE OF             
MTR08522500001000000000000000RA              46876280    005800990000009900000520000003NN  NNW 000                       N    
RDG08522500WATRL000000004K00000000000001683020201272015121147N000000000000N89       000260400K 10000000010000001670           
CUS0852250000108010169004         MEYERS ANTOINETTE   5518 HEATHERWOOD RD                     000N        CARE OF             
MTR08522500001000000000000000RA              33077072    005801000000010000000520000003NN  NNW 000                       N    
RDG08522500WATRL000000004K00000000000003057020301272015121218N000300000010N89       000310400K 10000000010000003031           
CUS0852250000108010170002         NICHT SANDRA K      5520 HEATHERWOOD RD                     000N        CARE OF             
MTR08522500001000000000000000RA              35108673    005801010000010100000520000003NN  NNW 000                       N    
RDG08522500WATRL000000004K00000000000001921020701272015121601N000000000000N89       001080400K 10000000010000001912           
CUS0852250000108010171000         LESTER A BRUCHEY    1218 OAKLAND TER RD                     000N        CARE OF             
MTR08522500001000000000000000RA              45375694    005801020000010200000520000003NN  NNW 000                       N    
RDG08522500WATRL000000004K00000000000002007021001272015121809N000000000000N89       000620400K 10000000010000001992           
CUS0852250000108010172008         GREEN KENNETH A     1216 OAKLAND TER RD                     000N        CARE OF             
MTR08522500001000000000000000RA              54351872    005801030000010300000520000003NN  NNW 000                       N    
RDG08522500WATRL000000004K00000000000001985021101272015121839N000000000000N89       000300400K 10000000010000001960           
CUS0852250000108010173006         JOSEPH RUSS         1214 OAKLAND TER RD                     000N        CARE OF             
MTR08522500001000000000000000RA              48584624    005801040000010400000520000003NN  NNW 000                       N    
RDG08522500WATRL000000004K00000000000002310021401272015122051N000000000000N89       000340400K 10000000010000002297           
CUS0852250000108010174004         JOHN X O'BOYLE      1212 OAKLAND TER RD                     000N        CARE OF             
MTR08522500001000000000000000RA              01094955    005801050000010500000610000003NN  NNW 000                       N    
RDG08522500WATRL000000004K00000000000001247021501272015122121N000000000000N89       000300400K 10000000010000001219           
CUS0852250000108010175001         YINGLING RAYMOND J  1210 OAKLAND TER RD                     000N        CARE OF             
MTR08522500001000000000000000RA              24761623    005801060000010600000520000003NN  NNW 000                       N    
RDG08522500WATRL000000004K00000000000002194021801272015122410N000000000000N89       000410400K 10000000010000002185           
CUS0852250000108010176009         DUFFY MATTHEW S     1208 OAKLAND TER RD                     000N        CARE OF             
MTR08522500001000000000000000RA              10024722    005801070000010700000570000003NN  NNW 000                       N    
RDG08522500WATRL000000004K00000000000000285021901272015122455N000000000000N89       000450400K 10000000010000000253           
CUS0852250000108010177007         MCNICHOLAS JEREMY J 1206 OAKLAND TER RD                     000N        CARE OF             
MTR08522500001000000000000000RA              54350411    005801080000010800000520000003NN  NNW 000                       N    
RDG08522500WATRL000000004K00000000000000872022301272015122753N000300000010N89       000570400K 10000000010000000850           
CUS0852250000108010178005         ADAM CAMPOLA        1204 OAKLAND TER RD                     000N        CARE OF             
MTR08522500001000000000000000RA              48588517    005801090000010900000520000003NN  NNW 000                       N    
RDG08522500WATRL000000004K00000000000001226022401272015122832N000000000000N89       000390400K 10000000010000001205           
CUS0852250000108010179003         RAYMOND C WILKE , JR1202 OAKLAND TER RD                     000N        CARE OF             
MTR08522500001000000000000000RA              40780170    005801100000011000000520000003NN  NNW 000                       N    
RDG08522500WATRL000000004K00000000000003859022501272015122924N000000000000N89       000520400K 10000000010000003848           
CUS0852250000108010180001         WARNER RICHARD L    1200 OAKLAND TER RD                     000N        CARE OF             
MTR08522500001000000000000000RA              46888528    005801110000011100000520000003NN  NNW 000                       N    
RDG08522500WATRL000000004K00000000000000427022901272015123227N000000000000N89       000550400K 10000000010000000422           
CUS0852250000108010181009         KAMSCH PAUL H,SR    1106 OAKLAND TER RD                     000N        CARE OF             
MTR08522500001000000000000000RA              00130171    005801120000011200000570000000NN  NNW 000                       N    
RDG08522500WATRL000000004K00000000000000970023001272015123310N000000000000N89       000430400K 10000000010000000956           
CUS0852250000108010182007         MCCUMBIE SHIRLEY MAE1104 OAKLAND TER RD                     000N        CARE OF             
MTR08522500001000000000000000RA              35103810    005801130000011300000520000000NN  NNW 000                       N    
RDG08522500WATRL000000004K00000000000003412023401272015123613N000000000000N89       000530400K 10000000010000003387           
CUS0852250000108010183005         LECOMPTE MARIAN J   1102 OAKLAND TER RD                     000N        CARE OF             
MTR08522500001000000000000000RA              54351875    005801140000011400000520000000NN  NNW 000                       N    
RDG08522500WATRL000000004K00000000000000987023501272015123653N000000000000N89       000400400K 10000000010000000968           
CUS0852250000108010184003         LAUREN A RICKTOR    1100 OAKLAND TER RD                     000N        CARE OF             
MTR08522500001000000000000000RA              44172745    005801150000011500000520000000NN  NNW 000                       N    
RDG08522500WATRL000000004K00000000000002067023901272015123931N000000000000N89       000350400K 10000000010000002052           
CUS0852250000108010185000         TOOLAN CHRISTOPHER  1101 OAKLAND TER RD                     000N        CARE OF             
MTR08522500001000000000000000RA              01079347    005801160000011600000610000003NN  NNW 000                       N    
RDG08522500WATRL000000004K00000000000000562024001272015141210N000000000000N89       055590400K 10000000010000000554           
CUS0852250000108010186008         HEYDT SHERYL K      1103 OAKLAND TER RD                     000N        CARE OF             
MTR08522500001000000000000000RA              11471035    005801170000011700000570000000NN  NNW 000                       N    
RDG08522500WATRL000000004K00000000000003157023801272015123856N000000000000N89       000250400K 10000000010000003135           
CUS0852250000108010187006         EMMERICH ERNEST C,SR1105 OAKLAND TER RD                     000N        CARE OF             
MTR08522500001000000000000000RA              10010015    005801180000011800000570000000NN  NNW 000                       N    
RDG08522500WATRL000000004K00000000000000161023701272015123831N000000000000N89       000370400K 10000000010000000154           
CUS0852250000108010188004         PARISE KATRINA A    1107 OAKLAND TER RD                     000N        CARE OF             
MTR08522500001000000000000000RA              48596648    005801190000011900000520000000NN  NNW 000                       N    
RDG08522500WATRL000000004K00000000000001419023601272015123754N000000000000N89       000610400K 10000000010000001402           
CUS0852250000108010189002         FARRISH JOHN W,JR   1109 OAKLAND TER RD                     000N        CARE OF             
MTR08522500001000000000000000RA              45387909    005801200000012000000520000000NN  NNW 000                       N    
RDG08522500WATRL000000004K00000000000002941023301272015123520N000000000000N89       000330400K 10000000010000002928           
CUS0852250000108010190000         ANTHONY DELLAVECCHIA1111 OAKLAND TER RD                     000N        CARE OF             
MTR08522500001000000000000000RA              00129959    005801210000012100000570000000NN  NNW 000                       N    
RDG08522500WATRL000000004K00000000000000499023201272015123447N000400000010N89       000680400K 10000000010000000496           
CUS0852250000108010191008         JACKSON JAMES A,2ND 1113 OAKLAND TER RD                     000N        CARE OF             
MTR08522500001000000000000000RA              41590908    005801220000012200000520000000NN  NNW 000                       N    
RDG08522500WATRL000000004K00000000000002328023101272015123339N000000000000N89       000290400K 10000000010000002312           
CUS0852250000108009081004         CROSS CHARLES E     1201 OAKLAND TER RD                     000N        CARE OF             
MTR08522500001000000000000000RA              00139033    005801230000012300000570000000NN  NNW 000                       N    
RDG08522500WATRL000000004K00000000000001099022801272015123132N000000000000N89       000490400K 10000000010000001081           
CUS0852250000108009082002         WICKLESS JOSEPH E   1203 OAKLAND TER RD                     000N        CARE OF             
MTR08522500001000000000000000RA              01092885    005801240000012400000610000000NN  NNW 000                       N    
RDG08522500WATRL000000004K00000000000002489022701272015123043N000000000000N89       000400400K 10000000010000002451           
CUS0852250000108009083000         RUBELING CHRISTIAN J1205 OAKLAND TER RD                     000N        CARE OF             
MTR08522500001000000000000000RA              00129961    005801250000012500000570000000NN  NNW 000                       N    
RDG08522500WATRL000000004K00000000000001956022601272015123003N000000000000N89       000390400K 10000000010000001918           
CUS0852250000108009084008         JOSEPH L ARMIGER    1207 OAKLAND TER RD                     000N        CARE OF             
MTR08522500001000000000000000RA              44176688    005801260000012600000520000000NN  NNW 000                       N    
RDG08522500WATRL000000004K00000000000001007022201272015122656N000000000000N89       000540400K 10000000010000001000           
CUS0852250000108009085005         ADAMS DOUGLAS W     1209 OAKLAND TER RD                     000N        CARE OF             
MTR08522500001000000000000000RA              26015744    005801270000012700000520000000NN  NNW 000                       N    
RDG08522500WATRL000000004K00000000000003533022101272015122602N000000000000N89       000250400K 10000000010000003501           
CUS0852250000108009086003         AUNGST JASON T      1211 OAKLAND TER RD                     000N        CARE OF             
MTR08522500001000000000000000RA              36693785    005801280000012800000520000003NN  NNW 000                       N    
RDG08522500WATRL000000004K00000000000002481022001272015122537N000000000000N89       000420400K 10000000010000002460           
CUS0852250000108009087001         FRESON JANET M      1213 OAKLAND TER RD                     000N        CARE OF             
MTR08522500001000000000000000RA              24232089    005801290000012900000520000000NN  NNW 000                       N    
RDG08522500WATRL000000004K00000000000002592021701272015122329N000000000000N89       000900400K 10000000010000002588           
CUS0852250000108009088009         MILLER FRANCIS H    1215 OAKLAND TER RD                     000N        CARE OF             
MTR08522500001000000000000000RA              01085975    005801300000013000000610000003NN  NNW 000                       N    
RDG08522500WATRL000000004K00000000000001452021601272015122159N000000000000N89       000380400K 10000000010000001430           
CUS0852250000108009089007         DOYLE MARK G        1217 OAKLAND TER RD                     000N        CARE OF             
MTR08522500001000000000000000RA              01085952    005801310000013100000610000003NN  NNW 000                       N    
RDG08522500WATRL000000004K00000000000000887021301272015122017N000000000000N89       000500400K 10000000010000000875           
CUS0852250000108009090005         LANDON GLENN P      1219 OAKLAND TER RD                     000N        CARE OF             
MTR08522500001000000000000000RA              50480116    005801320000013200000520000003NN  NNW 000                       N    
RDG08522500WATRL000000004K00000000000001278021201272015121927N000000000000N89       000480400K 10000000010000001262           
CUS0852250000108009091003         FEEHELY RANDY A     1221 OAKLAND TER RD                     000N        CARE OF             
MTR08522500001000000000000000RA              99292471    005801330000013300000570000003NN  NNW 000                       N    
RDG08522500WATRL000000004K00000000000000951013101272015105842N000000000000N89       000380400K 10000000010000000930           
CUS0852250000108009092001         STANLEY F LUKASZCZYK1223 OAKLAND TER RD                     000N        CARE OF             
MTR08522500001000000000000000RA              46888515    005801340000013400000520000003NN  NNW 000                       N    
RDG08522500WATRL000000004K00000000000001328013001272015105804N000000000000N89       000330400K 10000000010000001321           
CUS0852250000108009093009         MICHAEL S CAPUTI    1225 OAKLAND TER RD                     000N        CARE OF             
MTR08522500001000000000000000RA              1946024     005801350000013500000520000003NN  NNW 000                       N    
RDG08522500WATRL000000004K00000000000004975012901272015105731N000000000000N89       000300400K 10000000010000004960           
CUS0852250000108009094007         HAYES KEVIN B       1227 OAKLAND TER RD                     000N        CARE OF             
MTR08522500001000000000000000RA              33079791    005801360000013600000520000003NN  NNW 000                       N    
RDG08522500WATRL000000004K00000000000002522012801272015105701N000000000000N89       000230400K 10000000010000002514           
CUS0852250000108009095004         CARNAHAN BRIAN J    1229 OAKLAND TER RD                     000N        CARE OF             
MTR08522500001000000000000000RA              44003760    005801370000013700000520000003NN  NNW 000                       N    
RDG08522500WATRL000000004K00000000000001910012701272015105638N000000000000N89       000400400K 10000000010000001897           
CUS0852250000108009096002         PARKS RAYMOND E     1231 OAKLAND TER RD                     000N        CARE OF             
MTR08522500001000000000000000RA              42808807    005801380000013800000520000003NN  NNW 000                       N    
RDG08522500WATRL000000004K00000000000001653012601272015105558N000000000000N89       000550400K 10000000010000001640           
CUS0852250000108009097000         RONALD L JOHNSON    1233 OAKLAND TER RD                     000N        CARE OF             
MTR08522500001000000000000000RA              41588893    005801390000013900000520000003NN  NNW 000                       N    
RDG08522500WATRL000000004K00000000000001762012501272015105503N000000000000N89       000260400K 10000000010000001756           
CUS0852250000108009098008         CRONISE JANICE C    1235 OAKLAND TER RD                     000N        CARE OF             
MTR08522500001000000000000000RA              29681257    005801400000014000000520000003NN  NNW 000                       N    
RDG08522500WATRL000000004K00000000000001327012401272015105437N000000000000N89       000850400K 10000000010000001307           
CUS0852250000108009099006         WM L BAGEANT        1237 OAKLAND TER RD                     000N        CARE OF             
MTR08522500001000000000000000RA              46875109    005801410000014100000520000003NN  NNW 000                       N    
RDG08522500WATRL000000004K00000000000002159012301272015105312N000000000000N89       000230400K 10000000010000002145           
CUS0852250000108009100002         ARNOLD RICHARD P    1239 OAKLAND TER RD                     000N        CARE OF             
MTR08522500001000000000000000RA              29403709    005801420000014200000520000003NN  NNW 000                       N    
RDG08522500WATRL000000004K00000000000003330012201272015105249N000000000000N89       000460400K 10000000010000003314           
CUS0852250000108009101000         SAINATO VICTOR A,JR 1241 OAKLAND TER RD                     000N        CARE OF             
MTR08522500001000000000000000RA              19460074    005801430000014300000520000000NN  NNW 000                       N    
RDG08522500WATRL000000004K00000000000004289012101272015105203N000000000000N89       000340400K 10000000010000004263           
CUS0852250000108009102008         STURM WILLIAM J     1243 OAKLAND TER RD                     000N        CARE OF             
MTR08522500001000000000000000RA              39290504    005801440000014400000520000003NN  NNW 000                       N    
RDG08522500WATRL000000004K00000000000001082012001272015105129N000000000000N89       001420400K 10000000010000001071           
CUS0852250000108009103006         MITCHELL THOMAS R   1245 OAKLAND TER RD                     000N        CARE OF             
MTR08522500001000000000000000RA              24232089    005801450000014500000520000003NN  NNW 000                       N    
RDG08522500WATRL000000004K00000000000004825011901272015104907N000000000000N89       000630400K 10000000010000004807           
CUS0852250000108009104004         ORNDORFF JOSEPH D   1247 OAKLAND TER RD                     000N        CARE OF             
MTR08522500001000000000000000RA              26010320    005801460000014600000520000003NN  NNW 000                       N    
RDG08522500WATRL000000004K00000000000003926011801272015104804N000000000000N89       000360400K 10000000010000003896           
CUS0852250000108009105001         MIHM MARIE C        1249 OAKLAND TER RD                     000N        CARE OF             
MTR08522500001000000000000000RA              10014089    005801470000014700000570000003NN  NNW 000                       N    
RDG08522500WATRL000000004K00000000000000000000000000000000000 000000000000U         000000400  10000000010000000115           
CUS0852250000108009106009         HAROLD JAMES HAPPEL 1251 OAKLAND TER RD                     000N        CARE OF             
MTR08522500001000000000000000RA              77889714    005801480000014800000350000003NN  NNW 000                       N    
RDG08522500WATRL000000004K00000000000000014011601272015104607N000000000000N89       000570400K 10000000010000000007           
CUS0852250000108009107007         DZIUBLA PETER       5568 OAKLAND RD                         000N        CARE OF             
MTR08522500001000000000000000RA              27133535    005801490000014900000520000003NN  NNW 000                       N    
RDG08522500WATRL000000004K00000000000000000000000000000000000 000000000000U         000000400  10000000010000001754           
CUS0852250000108009108005         KICK SHIRLEY ANN    5570 OAKLAND RD                         000N        CARE OF             
MTR08522500001000000000000000RA              77886658    005801500000015000000350000003NN  NNW 000                       N    
RDG08522500WATRL000000004K00000000000000000000000000000000000 000000000000U         000000400  10000000010000000000           
CUS0852250000108009109003         KRACH MARTHA R      5572 OAKLAND RD                         000N        CARE OF             
MTR08522500001000000000000000RA              38984314    005801510000015100000520000003NN  NNW 000                       N    
RDG08522500WATRL000000004K00000000000001795007701272015094641N000100000010N89       001720400K 10000000010000001795           
CUS0852250000108008825005         HODGES RICHARD      5573 OAKLAND RD                         000N        CARE OF             
MTR08522500001000000000000000RA              99189336    005801520000015200000570000000NN  NNW 000                       N    
RDG08522500WATRL000000004K00000000000001523007801272015094943N000000000000N89       001820400K 10000000010000001501           
CUS0852250000108008826003         HOERL MICHAEL LEE   5571 OAKLAND RD                         000N        CARE OF             
MTR08522500001000000000000000RA              24762555    005801530000015300000520000000NN  NNW 000                       N    
RDG08522500WATRL000000004K00000000000001856007901272015095010N000000000000N89       000270400K 10000000010000001853           
CUS0852250000108008827001         HARVEY JAMES E      5569 OAKLAND RD                         000N        CARE OF             
MTR08522500001000000000000000RA              99187776    005801540000015400000570000003NN  NNW 000                       N    
RDG08522500WATRL000000004K00000000000001823008001272015095038N000400000010N89       000280400K 10000000010000001804           
CUS0852250000108008828009         WILLIAMS VERNON J   5567 OAKLAND RD                         000N        CARE OF             
MTR08522500001000000000000000RA              42810435    005801550000015500000520000003NN  NNW 000                       N    
RDG08522500WATRL000000004K00000000000003458008101272015095114N000000000000N89       000360400K 10000000010000003431           
CUS0852250000108008829007         CHESTER JAMES R     5565 OAKLAND RD                         000N        CARE OF             
MTR08522500001000000000000000RA              00129957    005801560000015600000570000003NN  NNW 000                       N    
RDG08522500WATRL000000004K00000000000000769008201272015095139N000000000000N89       000250400K 10000000010000000759           
CUS0852250000108008830005         BREWER JEAN         5563 OAKLAND RD                         000N        CARE OF             
MTR08522500001000000000000000RA              10018012    005801570000015700000570000003NN  NNW 000                       N    
RDG08522500WATRL000000004K00000000000000478008301272015095158N000000000000N89       000190400K 10000000010000000432           
CUS0852250000108008831003         SCHLEUPNER CHARLES R5561 OAKLAND RD                         000N        CARE OF             
MTR08522500001000000000000000RA              35103806    005801580000015800000520000003NN  NNW 000                       N    
RDG08522500WATRL000000004K00000000000003240008401272015095222N000000000000N89       000240400K 10000000010000003226           
CUS0852250000108008832001         SCHWARTZ LYNN       5559 OAKLAND RD                         000N        CARE OF             
MTR08522500001000000000000000RA              99290700    005801590000015900000570000000NN  NNW 000                       N    
RDG08522500WATRL000000004K00000000000000926008501272015095308N000000000000N89       000460400K 10000000010000000903           
CUS0852250000108008833009         LYONS IRENE L       5557 OAKLAND RD                         000N        CARE OF             
MTR08522500001000000000000000RA              40779403    005801600000016000000520000003NN  NNW 000                       N    
RDG08522500WATRL000000004K00000000000001323008601272015095335N000000000000N89       000270400K 10000000010000001297           
CUS0852250000108008834007         SCHMIDT RANDY C     5555 OAKLAND RD                         000N        CARE OF             
MTR08522500001000000000000000RA              14916947    005801610000016100000310000003NN  NNW 000                       N    
RDG08522500WATRL000000004K00000000000000356008701272015095430N000000000000N89       000550400K 10000000010000000351           
CUS0852250000108008835004         WALLMAN ANDREW RICHA5553 OAKLAND RD                         000N        CARE OF             
MTR08522500001000000000000000RA              10014823    005801620000016200000570000003NN  NNW 000                       N    
RDG08522500WATRL000000004K00000000000000323008801272015095517N000000000000N89       000470400K 10000000010000000304           
CUS0852250000108008836002         NEIDHARDT MARK B    5551 OAKLAND RD                         000N        CARE OF             
MTR08522500001000000000000000RA              01085959    005801630000016300000610000003NN  NNW 000                       N    
RDG08522500WATRL000000004K00000000000000592008901272015095610N000000000000N89       000530400K 10000000010000000573           
CUS0852250000108008837000         ZARUBA MICHAEL GARY 5549 OAKLAND RD                         000N        CARE OF             
MTR08522500001000000000000000RA              27823564    005801640000016400000520000003NN  NNW 000                       N    
RDG08522500WATRL000000004K00000000000000000000000000000000000 000000000000U         000000400  10000000010000001894           
CUS0852250000108008838008         JOY STEVEN LEE JR   5547 OAKLAND RD                         000N        CARE OF             
MTR08522500001000000000000000RA              14904517    005801650000016500000310000003NN  NNW 000                       N    
RDG08522500WATRL000000004K00000000000000906009001272015095757N000000000000N89       001070400K 10000000010000000891           
CUS0852250000108008839006         RUPPERT BRIAN J     5545 OAKLAND RD                         000N        CARE OF             
MTR08522500001000000000000000RA              20968686    005801660000016600000520000003NN  NNW 000                       N    
RDG08522500WATRL000000004K00000000000003473009101272015095849N000000000000N89       000520400K 10000000010000003459           
CUS0852250000108008840004         RALPH W SHRIVER     5543 OAKLAND RD                         000N        CARE OF             
MTR08522500001000000000000000RA              24228350    005801670000016700000520000003NN  NNW 000                       N    
RDG08522500WATRL000000004K00000000000002409009201282015142231O000000000030N80       000350400K 10000000010000002403           
CUS0852250000108008841002         MROZEK KENNETH L    5541 OAKLAND RD                         000N        CARE OF             
MTR08522500001000000000000000RA              14923879    005801680000016800000310000003NN  NNW 000                       N    
RDG08522500WATRL000000004K00000000000000753009301272015095943N000000000000N89       000190400K 10000000010000000730           
CUS0852250000108008842000         GOETZ CHARLOTTE M   5539 OAKLAND RD                         000N        CARE OF             
MTR08522500001000000000000000RA              00129962    005801690000016900000570000003NN  NNW 000                       N    
RDG08522500WATRL000000004K00000000000000169009401272015100013N000000000000N89       000300400K 10000000010000000167           
CUS0852250000108008843008         MAHANEY MICHAEL D   5537 OAKLAND RD                         000N        CARE OF             
MTR08522500001000000000000000RA              01102265    005801700000017000000610000003NN  NNW 000                       N    
RDG08522500WATRL000000004K00000000000000852009501272015100031N000000000000N89       000180400K 10000000010000000837           
CUS0852250000108008844006         BUSH JASON E        5535 OAKLAND RD                         000N        CARE OF             
MTR08522500001000000000000000RA              50791622    005801710000017100000520000003NN  NNW 000                       N    
RDG08522500WATRL000000004K00000000000000995009601272015100055N000000000000N89       000240400K 10000000010000000980           
CUS0852250000108008845003         SIENKIEWICZ MARK J,J5533 OAKLAND RD                         000N        CARE OF             
MTR08522500001000000000000000RA              24769014    005801720000017200000600000003NN  NNW 000                       N    
RDG08522500WATRL000000004K00000000000002408009701272015100127N000000000000N89       000320400K 10000000010000002396           
CUS0852250000108008753009         JOHNSON EDWIN LEE/TI5501 OAKLAND RD                         000N        CARE OF             
MTR08522500001000000000000000RA              40779455    005801730000017300000520000003NN  NNW 000                       N    
RDG08522500WATRL000000004K00000000000003345001501272015083833N000000000000N89       000530400K 10000000010000003325           
CUS0852250000108008846001         MASSELLA RALPH A    5497 OAKLAND RD                         000N        CARE OF             
MTR08522500001000000000000000RA              42810184    005801740000017400000520000003NN  NNW 000                       N    
RDG08522500WATRL000000004K00000000000004155001401272015083740N000000000000N89       000790400K 10000000010000004135           
CUS0852250000108008752001         MORGAN LINDA J      5501 ASHBOURNE RD                       000N        CARE OF             
MTR08522500001000000000000000RA              42810426    005801750000017500000520000003NN  NNW 000                       N    
RDG08522500WATRL000000004K00000000000003685001601272015083916N000000000000N89       000430400K 10000000010000003658           
CUS0852250000108008751003         RALPH A MASSELLA    5503 ASHBOURNE RD                       000N        CARE OF             
MTR08522500001000000000000000RA              26016262    005801760000017600000520000003NN  NNW 000                       N    
RDG08522500WATRL000000004K00000000000004748001701272015083934N000000000000N89       000180400K 10000000010000004706           
CUS0852250000108008750005         GIBBONS RICHARD E   5505 ASHBOURNE RD                       000N        CARE OF             
MTR08522500001000000000000000RA              32771942    005801770000017700000520000003NN  NNW 000                       N    
RDG08522500WATRL000000004K00000000000003549001801272015084001N000000000000N89       000270400K 10000000010000003532           
CUS0852250000108008749007         JOHN FREEBURGER     5507 ASHBOURNE RD                       000N        CARE OF             
MTR08522500001000000000000000RA              39923107    005801780000017800000520000003NN  NNW 000                       N    
RDG08522500WATRL000000004K00000000000003876001901272015084021N000000000000N89       000200400K 10000000010000003829           
CUS0852250000108008748009         DICK EDWARD C       5509 ASHBOURNE RD                       000N        CARE OF             
MTR08522500001000000000000000RA              11428993    005801790000017900000570000003NN  NNW 000   VACANT / LOT        N    
RDG08522500WATRL000000004K00000000000004535002001272015084033N000000000000N89       000120400K 10000000010000004535           
CUS0852250000108008747001         MILLER-BECK PATRICIA5511 ASHBOURNE RD                       000N        CARE OF             
MTR08522500001000000000000000RA              42810301    005801800000018000000520000003NN  NNW 000                       N    
RDG08522500WATRL000000004K00000000000003295002101272015084104N000000000000N89       000310400K 10000000010000003270           
CUS0852250000108008746003         BOOTH BROTHERS LLC  5513 ASHBOURNE RD                       000N        CARE OF             
MTR08522500001000000000000000RA              14909919    005801810000018100000310000003NN  NNW 000                       N    
RDG08522500WATRL000000004K00000000000001050002201272015084139N000000000000N89       000350400K 10000000010000001026           
CUS0852250000108008745005         METCALF STEVEN J    5515 ASHBOURNE RD                       000N        CARE OF             
MTR08522500001000000000000000RA              01109784    005801820000018200000610000003NN  NNW 000                       N    
RDG08522500WATRL000000004K00000000000000687002301272015084231N000000000000N89       000520400K 10000000010000000676           
CUS0852250000108008744008         MAHON PATRICK J     5517 ASHBOURNE RD                       000N        CARE OF             
MTR08522500001000000000000000RA              01110968    005801830000018300000610000003NN  NNW 000                       N    
RDG08522500WATRL000000004K00000000000001504002401272015084328N000000000000N89       000570400K 10000000010000001472           
CUS0852250000108008743000         TIMOTHY PAUL        5519 ASHBOURNE RD                       000N        CARE OF             
MTR08522500001000000000000000RA              41076811    005801840000018400000520000003NN  NNW 000                       N    
RDG08522500WATRL000000004K00000000000004419002501272015084411N000300000010N89       000430400K 10000000010000004414           
CUS0852250000108008742002         WILD LAWRENCE       5521 ASHBOURNE RD                       000N        CARE OF             
MTR08522500001000000000000000RA              00130170    005801850000018500000570000003NN  NNW 000                       N    
RDG08522500WATRL000000004K00000000000001121002601272015084519N000000000000N89       000680400K 10000000010000001087           
CUS0852250000108008741004         KREINER JOHN HENRY  5523 ASHBOURNE RD                       000N        CARE OF             
MTR08522500001000000000000000RA              14925409    005801860000018600000310000003NN  NNW 000                       N    
RDG08522500WATRL000000004K00000000000001019002701272015084602N000000000000N89       000430400K 10000000010000000988           
CUS0852250000108008740006         GEORGE S BOWDEN     5525 ASHBOURNE RD                       000N        CARE OF             
MTR08522500001000000000000000RA              14930953    005801870000018700000310000003NN  NNW 000                       N    
RDG08522500WATRL000000004K00000000000000446002801272015084700N000400000010N89       000580400K 10000000010000000444           
CUS0852250000108008739008         KHAN MAZHAR         5527 ASHBOURNE RD                       000N        CARE OF             
MTR08522500001000000000000000RA              48590522    005801880000018800000520000003NN  NNW 000                       N    
RDG08522500WATRL000000004K00000000000001027002901272015084736N000000000000N89       000360400K 10000000010000001005           
CUS0852250000108008738000         ELDER NATHAN J      5529 ASHBOURNE RD                       000N        CARE OF             
MTR08522500001000000000000000RA              45376599    005801890000018900000520000003NN  NNW 000                       N    
RDG08522500WATRL000000004K00000000000001739003001272015084811N000000000000N89       000350400K 10000000010000001697           
CUS0852250000108008737002         WILLIAM DAVID HOLMES5531 ASHBOURNE RD                       000N        CARE OF             
MTR08522500001000000000000000RA              27818952    005801900000019000000520000003NN  NNW 000                       N    
RDG08522500WATRL000000004K00000000000003346003101272015084842N000000000000N89       000310400K 10000000010000003334           
CUS0852250000108008736004         SCHULZ JOSEPH HENRY 5533 ASHBOURNE RD                       000N        CARE OF             
MTR08522500001000000000000000RA              42810436    005801910000019100000520000003NN  NNW 000                       N    
RDG08522500WATRL000000004K00000000000001476003201272015084957N000000000000N89       000750400K 10000000010000001466           
CUS0852250000108008735006         KAYE SARAH          5537 ASHBOURNE RD                       000N        CARE OF             
MTR08522500001000000000000000RA              01102058    005801920000019200000610000003NN  NNW 000                       N    
RDG08522500WATRL000000004K00000000000001007004101272015091858N000000000000N89       000830400K 10000000010000000989           
CUS0852250000108008734009         KITCHEN PAUL SCOTT  5539 ASHBOURNE RD                       000N        CARE OF             
MTR08522500001000000000000000RA              36689279    005801930000019300000520000000NN  NNW 000                       N    
RDG08522500WATRL000000004K00000000000003947004201272015091925N000000000000N89       000270400K 10000000010000003918           
CUS0852250000108008733001         CHARLES A GERHARD SR5541 ASHBOURNE RD                       000N        CARE OF             
MTR08522500001000000000000000RA              36689277    005801940000019400000520000003NN  NNW 000                       N    
RDG08522500WATRL000000004K00000000000003214004301272015091945N000400000010N89       000200400K 10000000010000003207           
CUS0852250000108008732003         MICHAEL PRIMAVERA   5543 ASHBOURNE RD                       000N        CARE OF             
MTR08522500001000000000000000RA              00129814    005801950000019500000570000003NN  NNW 000                       N    
RDG08522500WATRL000000004K00000000000000674004401272015092008N000000000000N89       000230400K 10000000010000000662           
CUS0852250000108008731005         MICHAEL R SULLIVAN  5545 ASHBOURNE RD                       000N        CARE OF             
MTR08522500001000000000000000RA              14921532    005801960000019600000310000003NN  NNW 000                       N    
RDG08522500WATRL000000004K00000000000000662004501272015092036N000000000000N89       000280400K 10000000010000000652           
CUS0852250000108008730007         CHARLES L SANDERS II5547 ASHBOURNE RD                       000N        CARE OF             
MTR08522500001000000000000000RA              19557710    005801970000019700000520000003NN  NNW 000                       N    
RDG08522500WATRL000000004K00000000000003840004601272015092059N000000000000N89       000230400K 10000000010000003835           
CUS0852250000108008729009         HUEG KEN            5549 ASHBOURNE RD                       000N        CARE OF             
MTR08522500001000000000000000RA              00129178    005801980000019800000570000003NN  NNW 000                       N    
RDG08522500WATRL000000004K00000000000001307004701272015092121N000000000000N89       000220400K 10000000010000001290           
CUS0852250000108008728001         CARR PATRICK E      5551 ASHBOURNE RD                       000N        CARE OF             
MTR08522500001000000000000000RA              36687418    005801990000019900000520000003NN  NNW 000                       N    
RDG08522500WATRL000000004K00000000000001334004801272015092145N000000000000N89       000240400K 10000000010000001315           
CUS0852250000108008727003         PICKERING PHILIP W  5553 ASHBOURNE RD                       000N        CARE OF             
MTR08522500001000000000000000RA              25780277    005802000000020000000520000003NN  NNW 000                       N    
RDG08522500WATRL000000004K00000000000002738005501272015092612N000000000000N89       000440400K 10000000010000002722           
CUS0852250000108008726005         CROUSE EDWARD W,JR  5555 ASHBOURNE RD                       000N        CARE OF             
MTR08522500001000000000000000RA              00129816    005802010000020100000570000003NN  NNW 000                       N    
RDG08522500WATRL000000004K00000000000001379005601272015092642N000300000010N89       000300400K 10000000010000001272           
CUS0852250000108008725007         KELLEY MICHAEL J    5557 ASHBOURNE RD                       000N        CARE OF             
MTR08522500001000000000000000RA              00129244    005802020000020200000570000003NN  NNW 000                       N    
RDG08522500WATRL000000004K00000000000001174005701272015092753N000000000000N89       000710400K 10000000010000001158           
CUS0852250000108008724000         HAMPE DAVID MICHAEL 5559 ASHBOURNE RD                       000N        CARE OF             
MTR08522500001000000000000000RA              29683920    005802030000020300000520000003NN  NNW 000                       N    
RDG08522500WATRL000000004K00000000000001496005801272015092821N000000000000N89       000280400K 10000000010000001492           
CUS0852250000108008723002         WEISKOPF FRANCIS K  5561 ASHBOURNE RD                       000N        CARE OF             
MTR08522500001000000000000000RA              48586348    005802040000020400000520000003NN  NNW 000                       N    
RDG08522500WATRL000000004K00000000000003541005901272015092840N000000000000N89       000190400K 10000000010000003496           
CUS0852250000108008722004         SD PROPERTIES LLC   5563 ASHBOURNE RD                       000N        CARE OF             
MTR08522500001000000000000000RA              29402826    005802050000020500000520000003NN  NNW 000                       N    
RDG08522500WATRL000000004K00000000000003790006001272015092928N000000000000N89       000480400K 10000000010000003765           
CUS0852250000108008721006         KAFKA JOHN R        5565 ASHBOURNE RD                       000N        CARE OF             
MTR08522500001000000000000000RA              26000266    005802060000020600000520000003NN  NNW 000                       N    
RDG08522500WATRL000000004K00000000000005022006701272015093707N000400000010N89       001210400K 10000000010000004981           
CUS0852250000108008720008         PALAZZO STEPHEN J   5567 ASHBOURNE RD                       000N        CARE OF             
MTR08522500001000000000000000RA              14926565    005802070000020700000310000003NN  NNW 000                       N    
RDG08522500WATRL000000004K00000000000000825006801272015093759N000000000000N89       000520400K 10000000010000000797           
CUS0852250000108008719000         GARY MONROE         5569 ASHBOURNE RD                       000N        CARE OF             
MTR08522500001000000000000000RA              14906294    005802080000020800000310000003NN  NNW 000                       N    
RDG08522500WATRL000000004K00000000000000716006901272015093845N000000000000N89       000460400K 10000000010000000696           
CUS0852250000108008718002         MEEHAN JAMES P      5571 ASHBOURNE RD                       000N        CARE OF             
MTR08522500001000000000000000RA              41076834    005802090000020900000520000003NN  NNW 000                       N    
RDG08522500WATRL000000004K00000000000006041007001272015093916N000000000000N89       000310400K 10000000010000006004           
CUS0852250000108008717004         BENJAMIN C GRUNTHER 5573 ASHBOURNE RD                       000N        CARE OF             
MTR08522500001000000000000000RA              20767762    005802100000021000000520000000NN  NNW 000                       N    
RDG08522500WATRL000000004K00000000000003255007101272015094012N000000000000N89       000560400K 10000000010000003238           
CUS0852250000108008716006         REIMERS GARY E      5575 ASHBOURNE RD                       000N        CARE OF             
MTR08522500001000000000000000RA              10023063    005802110000021100000570000003NN  NNW 000                       N    
RDG08522500WATRL000000004K00000000000000285007501272015094244N000000000000N89       000360400K 10000000010000000254           
CUS0852250000108008715008         KATHRYN A CASSELL   5577 ASHBOURNE RD                       000N        CARE OF             
MTR08522500001000000000000000RA              00138293    005802120000021200000570000003NN  NNW 000                       N    
RDG08522500WATRL000000004K00000000000001173007601272015094349N000000000000N89       000650400K 10000000010000001157           
CUS0852250000108008791009         TRIETLEY BARBARA A T5576 ASHBOURNE RD                       000N        CARE OF             
MTR08522500001000000000000000RA              40780171    005802130000021300000520000003NN  NNW 000                       N    
RDG08522500WATRL000000004K00000000000002061007401272015094208N000400000010N89       000280400K 10000000010000002050           
CUS0852250000108008790001         RALEY EDNA M        5574 ASHBOURNE RD                       000N        CARE OF             
MTR08522500001000000000000000RA              11331773    005802140000021400000570000003NN  NNW 000                       N    
RDG08522500WATRL000000004K00000000000003041007301272015094140N000000000000N89       000410400K 10000000010000003038           
CUS0852250000108008789003         WINK ROBERT C       5572 ASHBOURNE RD                       000N        CARE OF             
MTR08522500001000000000000000RA              01108659    005802150000021500000610000003NN  NNW 000                       N    
RDG08522500WATRL000000004K00000000000001150007201272015094059N000000000000N89       000470400K 10000000010000001087           
CUS0852250000108008788005         KNECHT CONSTANCE W  5570 ASHBOURNE RD                       000N        CARE OF             
MTR08522500001000000000000000RA              14921488    005802160000021600000310000003NN  NNW 000                       N    
RDG08522500WATRL000000004K00000000000000386006601272015093506N000000000000N89       000680400K 10000000010000000378           
CUS0852250000108008787007         CHILCOATE SHANNON M 5568 ASHBOURNE RD                       000N        CARE OF             
MTR08522500001000000000000000RA              10013527    005802170000021700000570000000NN  NNW 000                       N    
RDG08522500WATRL000000004K00000000000000399006501272015093358N000000000000N89       000340400K 10000000010000000363           
CUS0852250000108008786009         HOBBS BRADLEY E     5566 ASHBOURNE RD                       000N        CARE OF             
MTR08522500001000000000000000RA              00137813    005802180000021800000570000003NN  NNW 000                       N    
RDG08522500WATRL000000004K00000000000001764006401272015093324N000000000000N89       000360400K 10000000010000001730           
CUS0852250000108008785001         CHRISTIANSON DOROTHE5564 ASHBOURNE RD                       000N        CARE OF             
MTR08522500001000000000000000RA              75617959    005802190000021900000350000003NN  NNW 000                       N    
RDG08522500WATRL000000004K00000000000000273006301272015093248N000000000000N89       001020400K 10000000010000000234           
CUS0852250000108008784004         OHARO KYLE          5562 ASHBOURNE RD                       000N        CARE OF             
MTR08522500001000000000000000RA              36687613    005802200000022000000520000003NN  NNW 000                       N    
RDG08522500WATRL000000004K00000000000000000000000000000000000 000000000000U         000000400  10000000010000003171           
CUS0852250000108008783006         ANDREW L OLSON      5560 ASHBOURNE RD                       000N        CARE OF             
MTR08522500001000000000000000RA              40779621    005802210000022100000520000003NN  NNW 000                       N    
RDG08522500WATRL000000004K00000000000003790006201272015093106N000000000000N89       000370400K 10000000010000003776           
CUS0852250000108008782008         JOSEPH LEIDIG SR.   5558 ASHBOURNE RD                       000N        CARE OF             
MTR08522500001000000000000000RA              48587415    005802220000022200000520000000NN  NNW 000                       N    
RDG08522500WATRL000000004K00000000000001056006101272015093029N000000000000N89       000610400K 10000000010000001042           
CUS0852250000108008781000         LEIDIG JOSEPH M,SR  5556 ASHBOURNE RD                       000N        CARE OF             
MTR08522500001000000000000000RA              29082523    005802230000022300000520000003NN  NNW 000                       N    
RDG08522500WATRL000000004K00000000000000859005401272015092528N000000000000N89       000230400K 10000000010000000857           
CUS0852250000108008780002         CANNON RAYMOND L    5554 ASHBOURNE RD                       000N        CARE OF             
MTR08522500001000000000000000RA              26017606    005802240000022400000520000003NN  NNW 000                       N    
RDG08522500WATRL000000004K00000000000001199005301272015092505N000000000000N89       000300400K 10000000010000001198           
CUS0852250000108008779004         COOK CHERYL J       5552 ASHBOURNE RD                       000N        CARE OF             
MTR08522500001000000000000000RA              11335134    005802250000022500000570000003NN  NNW 000                       N    
RDG08522500WATRL000000004K00000000000005952005201272015092435N000000000000N89       000210400K 10000000010000005936           
CUS0852250000108008778006         OHARO KYLE          5550 ASHBOURNE RD                       000N        CARE OF             
MTR08522500001000000000000000RA              99289687    005802260000022600000570000003NN  NNW 000                       N    
RDG08522500WATRL000000004K00000000000001944005101272015092414N000400000010N89       000410400K 10000000010000001936           
CUS0852250000108008777008         BERNARD J MACK SR   5548 ASHBOURNE RD                       000N        CARE OF             
MTR08522500001000000000000000RA              33730967    005802270000022700000520000003NN  NNW 000                       N    
RDG08522500WATRL000000004K00000000000001886005001272015092333N000000000000N89       000250400K 10000000010000001880           
CUS0852250000108008776000         CHILCOTT DENISE R   5546 ASHBOURNE RD                       000N        CARE OF             
MTR08522500001000000000000000RA              01104702    005802280000022800000610000003NN  NNW 000                       N    
RDG08522500WATRL000000004K00000000000000581004901272015092308N000000000000N89       000830400K 10000000010000000572           
CUS0852250000108008775002         MARINARO MICHAEL T  5544 ASHBOURNE RD                       000N        CARE OF             
MTR08522500001000000000000000RA              41589319    005802290000022900000520000003NN  NNW 000                       N    
RDG08522500WATRL000000004K00000000000001859004001272015091735N000000000000N89       000310400K 10000000010000001846           
CUS0852250000108008774005         BLOOD DOUGLAS A     5542 ASHBOURNE RD                       000N        CARE OF             
MTR08522500001000000000000000RA              27816819    005802300000023000000520000003NN  NNW 000                       N    
RDG08522500WATRL000000004K00000000000002102003901272015091704N000000000000N89       000440400K 10000000010000002091           
CUS0852250000108008773007         EICCHORN JENNIFER L 5540 ASHBOURNE RD                       000N        CARE OF             
MTR08522500001000000000000000RA              10005306    005802310000023100000570000003NN  NNW 000                       N    
RDG08522500WATRL000000004K00000000000000818003801272015091620N000000000000N89       000830400K 10000000010000000818           
CUS0852250000108008772009         ELLIS DANIEL F      5538 ASHBOURNE RD                       000N        CARE OF             
MTR08522500001000000000000000RA              14902510    005802320000023200000310000003NN  NNW 000                       N    
RDG08522500WATRL000000004K00000000000000796003701272015091457N000000000000N89       000760400K 10000000010000000769           
CUS0852250000108008771001         RYAN DEMPSEY        5536 ASHBOURNE RD                       000N        CARE OF             
MTR08522500001000000000000000RA              01104703    005802330000023300000610000003NN  NNW 000                       N    
RDG08522500WATRL000000004K00000000000000721003601272015091341N000000000000N89       001390400K 10000000010000000710           
CUS0852250000108008770003         ATKINS DAVID        5534 ASHBOURNE RD                       000N        CARE OF             
MTR08522500001000000000000000RA              50786906    005802340000023400000520000003NN  NNW 000                       N    
RDG08522500WATRL000000004K00000000000000000000000000000000000 000000000000U         000000400  10000000010000001949           
CUS0852250000108008769005         MORAN WILLIAM D     5532 ASHBOURNE RD                       000N        CARE OF             
MTR08522500001000000000000000RA              14925240    005802350000023500000310000003NN  NNW 000                       N    
RDG08522500WATRL000000004K00000000000000566003501272015091122N000000000000N89       000560400K 10000000010000000549           
CUS0852250000108008768007         EMORY A PLITT       5530 ASHBOURNE RD                       000N        CARE OF             
MTR08522500001000000000000000RA              27818578    005802360000023600000520000003NN  NNW 000                       N    
RDG08522500WATRL000000004K00000000000001468003401272015091026N000000000000N89       000410400K 10000000010000001466           
CUS0852250000108008767009         SPRENKLE ROBERT LEWI5528 ASHBOURNE RD                       000N        CARE OF             
MTR08522500001000000000000000RA              14921838    005802370000023700000310000003NN  NNW 000                       N    
RDG08522500WATRL000000004K00000000000000217003301272015090945N000000000000N89       011880400K 10000000010000000209           
CUS0852250000108008766001         AUGUST G MILLER     1263 JUNE RD                            000N        CARE OF             
MTR08522500001000000000000000RA              44003735    005802380000023800000520000003NN  NNW 000                       N    
RDG08522500WATRL000000004K00000000000001340000301272015082129N000000000000N89       000380400K 10000000010000001326           
CUS0852250000108008765003         PICKER DONALD JOSEPH1261 JUNE RD                            000N        CARE OF             
MTR08522500001000000000000000RA              23841327    005802390000023900000520000003NN  NNW 000                       N    
RDG08522500WATRL000000004K00000000000004564000101272015082008N000000000000N89       000000400K 10000000010000004541           
CUS0852250000108008764006         WICKLESS JAMES E    1260 JUNE RD                            000N        CARE OF             
MTR08522500001000000000000000RA              24764353    005802400000024000000520000003NN  NNW 000                       N    
RDG08522500WATRL000000004K00000000000002225000201272015082051N000000000000N89       000430400K 10000000010000002214           
CUS0852250000108008763008         DEAN M GATES        1262 JUNE RD                            000N        CARE OF             
MTR08522500001000000000000000RA              01079344    005802410000024100000610000003NN  NNW 000                       N    
RDG08522500WATRL000000004K00000000000000681000401272015082157N000000000000N89       000280400K 10000000010000000673           
CUS0852250000108008762000         JASON BARNES        5526 ASHBOURNE RD                       000N        CARE OF             
MTR08522500001000000000000000RA              14917821    005802420000024200000310000003NN  NNW 000                       N    
RDG08522500WATRL000000004K00000000000000423000501272015082308N000000000000N89       000710400K 10000000010000000412           
CUS0852250000108008761002         JOSEPH A CROOK JR   5524 ASHBOURNE RD                       000N        CARE OF             
MTR08522500001000000000000000RA              76347960    005802430000024300000350000003NN  NNW 000                       N    
RDG08522500WATRL000000004K00000000000000043000601272015083216N000000000000N89       005480400K 10000000010000000025           
CUS0852250000108008760004         CHAE PONG CHO       5522 ASHBOURNE RD                       000N        CARE OF             
MTR08522500001000000000000000RA              75615122    005802440000024400000350000003NN  NNW 000                       N    
RDG08522500WATRL000000004K00000000000000166000701272015083325N000000000000N89       000690400K 10000000010000000136           
CUS0852250000108008759006         MILLER LARRY STANLEY5520 ASHBOURNE RD                       000N        CARE OF             
MTR08522500001000000000000000RA              01094930    005802450000024500000610000003NN  NNW 000                       N    
RDG08522500WATRL000000004K00000000000001291000801272015083350N000000000000N89       000250400K 10000000010000001275           
CUS0852250000108008758008         DICK VIOLA ANNA TRUS5518 ASHBOURNE RD                       000N        CARE OF             
MTR08522500001000000000000000RA              00129817    005802460000024600000570000003NN  NNW 000                       N    
RDG08522500WATRL000000004K00000000000000857000901272015083425N000300000010N89       000350400K 10000000010000000851           
CUS0852250000108008757000         SPRADLING RAYMOND F 5516 ASHBOURNE RD                       000N        CARE OF             
MTR08522500001000000000000000RA              11337297    005802470000024700000570000003NN  NNW 000                       N    
RDG08522500WATRL000000004K00000000000008337001001272015083451N000000000000N89       000260400K 10000000010000008307           
CUS0852250000108008756002         KHAJAVI TEHRANI MEHR5514 ASHBOURNE RD                       000N        CARE OF             
MTR08522500001000000000000000RA              38886296    005802480000024800000520000003NN  NNW 000                       N    
RDG08522500WATRL000000004K00000000000003462001101272015083514N000000000000N89       000230400K 10000000010000003454           
CUS0852250000108008755004         HOHMAN URBAN P,JR   5512 ASHBOURNE RD                       000N        CARE OF             
MTR08522500001000000000000000RA              00129064    005802490000024900000570000003NN  NNW 000                       N    
RDG08522500WATRL000000004K00000000000002453001201272015083544N000000000000N89       000300400K 10000000010000002387           
CUS0852250000108008754007         XAVIER JOSEPH       5510 ASHBOURNE RD                       000N        CARE OF             
MTR08522500001000000000000000RA              40049983    005802500000025000000520000003NN  NNW 000                       N    
RDG08522500WATRL000000004K00000000000003228001301272015083621N000000000000N89       000370400K 10000000010000003197           
RTR08522500NN02500250000002500000000002500250000352NY025002500250001000000000000000000000000002    01202015NY020000 N         
RHD09005200NN01000100000001000000000000910091000032NY009100910100000500070000000000000000000001    01122015NY020000 N         
CUS0900520000109257804006         SCOTTISH RITE HOLDIN3800 N CHARLES ST                       000N        CARE OF             
MTR09005200001000000000000000RA              24403467    000300010000000100000470000003NN  NNW 000                       N    
RDG09005200WATRL000000005K00000000000004985000101292015120955N000400000010U93       000000500K 10000000010000004973           
CUS0900520000109257805003         SCOTTISH RITE HOLDIN3800 N CHARLES ST                       000N        CARE OF             
MTR09005200001000000000000000RA              1170743     000400020000000200000410000003NN  NNW 000   FIRE SERVICE        N    
RDG09005200WATRL000000006K00000000000000000000201292015121001S005000000000U93       000060600K 10000000010000000020           
CUS0900520000109398916008         GUILFORD MANOR APART2 W UNIVERSITY PKWY                     000N        CARE OF             
MTR09005200001000000000000000RA              27567878    000200030000000300000520000003NN  NNW 000                       N    
RDG09005200WATRL000000005K00000000000022648000101282015115645N000000000000N93       000000500K 10000000010000022525           
CUS0900520000109398914003         GUILFORD MANOR ASSOC2 W UNIVERSITY PKWY                     000N        CARE OF             
MTR09005200001000000000000000RA              E22518      000600040000000400000430000003NN  NNW 000   FIRE SERVICE        N    
RDG09005200WATRL000000006K00000000000000000000201282015115649N000000000000N93       000040600K 10000000010000000000           
CUS0900520000109397202004         ST JAMES CONDOMINIUM3704 N CHARLES ST                       000N        CARE OF             
MTR09005200002000000000000000RA              5380918     000600050000000500000630000003NN  NNW 000                       N    
RDG09005200WATAL000000006K00000000000000001000301282015115657N000100000010N93       000080600K 10000000010000000001           
RDG09005200WATBL000000006K00000000000015294000401282015115711N000400000010N93       000140600K 10000000010000015276           
CUS0900520000109455958000         CHERRY HILL RD, CORP3700-02 N CHARLES ST                    000N        CARE OF             
MTR09005200001000000000000000RA              1200236     000600060000000600000630000003NY  NNW 000                       N    
MTM090052001200236     ert                                                                                                    
RDG09005200WATRL000000006K00000000000000000000000000000000000 000000000000U         000000600  10000000010000000000           
CUS0900520000109455960006         CHERRY HILL RD, CORP3700-02 N CHARLES ST                    000N        CARE OF             
MTR09005200001000000000000000RA              71434535    000400070000000700000440000003NY  NNW 000                       N    
MTM0900520071434535    ert                                                                                                    
RDG09005200WATRL000000006K00000000000000000000000000000000000 000000000000U         000000600  10000000010000000795           
CUS0900520000109403752000         EPISCOPAL DIOCESE OF4 E UNIVERSITY PKWY                     000N        CARE OF             
MTR09005200001000000000000000RA              7234528     000400080000000800000340000003NN  NNW 000   FIRE SERVICE        N    
RDG09005200WATRL000000006K00000000000000000000301292015121039N000000000000U93       000380600K 10000000010000000000           
CUS0900520000109403754006         EPISCOPAL DIOCESE OF4 E UNIVERSITY PKWY                     000N        CARE OF             
MTR09005200001000000000000000RA              42877060    000200090000000900000520000003NN  NNW 000                       N    
RDG09005200WATRL000000005K00000000000000000000401292015121049S005000000000U93       000100500K 10000000010000009508           
CUS0900520000109257809005         100 W UNIVERSITY PKW100 W UNIVERSITY PKWY                   000N        CARE OF             
