FHDNNNN003000573000573000573N                                                                                           001737
RHD08547100NN01210121000001210000000001210121000097NY012101210121000300020000000000000000000002    01232015NY020000 N         
CUS0854710000108017644009         LAI SOCHING         1310 FREDERICK RD                       000N        CARE OF             
MTR08547100001000000000000000RA              22606745    005800010000000100000520000003NN  NNW 000                       N    
RDG08547100WATRL000000004K00000000000004890000201302015132510N000000000000N86       001600400K 10000000010000004867           
CUS0854710000108017645006         REYNOLDS NELIDA     1308 FREDERICK RD                       000N        CARE OF             
MTR08547100001000000000000000RA              19463020    007500020000000200000520000003NN  NNW 000                       N    
RDG08547100WATRL000000004K00000000000007600000301302015132512N000000000000N86       000020400K 10000000010000007600           
CUS0854710000108017646004         MCDEVITT DANA G     2A N BEECHWOOD AVE                      000N        CARE OF             
MTR08547100001000000000000000RA              23646177    005800030000000300000520000003NN  NNW 000                       N    
RDG08547100WATRL000000004K00000000000003586000401302015132611N000000000000N86       000590400K 10000000010000003559           
CUS0854710000108017647002         CATONSVILLE PRESBYTE1400 FREDERICK RD                       000N        CARE OF             
MTR08547100001000000000000000RA              99999999    001500040000000400000620000003NN  NNW 000                       N    
RDG08547100WATRL000000005K00000000000000000000101302015132230S002000000000N86       000000500K 10000000010000010316           
CUS0854710000108017648000         BEAUPIN MICHAEL R   2 N BEECHWOOD AVE                       000N        CARE OF             
MTR08547100001000000000000000RA              00163300    000100050000000500000570000003NN  NNW 000                       N    
RDG08547100WATRL000000004K00000000000000722000501302015132739N000000000000N86       000880400K 10000000010000000715           
CUS0854710000108017649008         WILT LAWRENCE J     4 N BEECHWOOD AVE                       000N        CARE OF             
MTR08547100001000000000000000RA              27825059    005800060000000600000520000003NN  NNW 000                       N    
RDG08547100WATRL000000004K00000000000007429000601302015132816N000000000000N86       000370400K 10000000010000007414           
CUS0854710000108017650006         ANDROUTSOPOULOS ANGE3 N BEECHWOOD AVE                       000N        CARE OF             
MTR08547100001000000000000000RA              01102582    005800070000000700000610000003NN  NNW 000                       N    
RDG08547100WATRL000000004K00000000000001369000901302015133055N000000000010N86       000430400K 10000000010000001355           
CUS0854710000108017651004         JESSE JACKSON       5 N BEECHWOOD AVE                       000N        CARE OF             
MTR08547100001000000000000000RA              38984337    005800080000000800000520000003NN  NNW 000                       N    
RDG08547100WATRL000000004K00000000000003792000801302015133012N000000000000N86       000540400K 10000000010000003759           
CUS0854710000108017652002         PADGETT SPENCER L   7 N BEECHWOOD AVE                       000N        CARE OF             
MTR08547100001000000000000000RA              32771648    005800090000000900000520000003NN  NNW 000                       N    
RDG08547100WATRL000000004K00000000000002247001001302015133143N000000000000N86       000480400K 10000000010000002231           
CUS0854710000108017653000         POMMER DONALD L     9 N BEECHWOOD AVE                       000N        CARE OF             
MTR08547100001000000000000000RA              38984339    005800100000001000000520000003NN  NNW 000                       N    
RDG08547100WATRL000000004K00000000000003142001101302015133225N000000000000N86       000420400K 10000000010000003129           
CUS0854710000108017654008         NOBLE DANIEL G      6 N BEECHWOOD AVE                       000N        CARE OF             
MTR08547100001000000000000000RA              26375289    007500110000001100000520000003NN  NNW 000                       N    
RDG08547100WATRL000000004K00000000000004712000701302015132918N000000000000N86       000620400K 10000000010000004687           
CUS0854710000108017655005         CHRISTOPHER SCHIPSKE8 N BEECHWOOD AVE                       000N        CARE OF             
MTR08547100001000000000000000RA              24232324    005800120000001200000520000003NN  NNW 000                       N    
RDG08547100WATRL000000004K00000000000007896001401302015133359N000000000000N86       000400400K 10000000010000007883           
CUS0854710000108017656003         THOMAS CURTIS J     10 N BEECHWOOD AVE                      000N        CARE OF             
MTR08547100001000000000000000RA              31937647    007500130000001300000520000003NN  NNW 000                       N    
RDG08547100WATRL000000004K00000000000004667001301302015133319N000000000000N86       000170400K 10000000010000004637           
CUS0854710000108017657001         SPENCER KAREN K     11 N BEECHWOOD AVE                      000N        CARE OF             
MTR08547100001000000000000000RA              36699428    007500140000001400000520000003NN  NNW 000                       N    
RDG08547100WATRL000000004K00000000000003414001201302015133302N000000000000N86       000370400K 10000000010000003400           
CUS0854710000108017658009         BOWIE JANE LOUISE   100 N BEECHWOOD AVE                     000N        CARE OF             
MTR08547100001000000000000000RA              99315034    000100150000001500000570000003NN  NNW 000                       N    
RDG08547100WATRL000000004K00000000000001456005001312015130832N000000000000U86       000430400K 10000000010000001445           
CUS0854710000108017660005         PRENDERGAST DANIEL T105 N BEECHWOOD AVE                     000N        CARE OF             
MTR08547100001000000000000000RA              36690514    005800160000001600000520000003NN  NNW 000                       N    
RDG08547100WATRL000000004K00000000000003688004701312015130651N000000000000U86       000740400K 10000000010000003645           
CUS0854710000108017661003         HANNAH JAMES R      107 N BEECHWOOD AVE                     000N        CARE OF             
MTR08547100001000000000000000RA              30527942    005800170000001700000520000003NN  NNW 000                       N    
RDG08547100WATRL000000004K00000000000004342004401312015130332N000400000010U86       000360400K 10000000010000004327           
CUS0854710000108017662001         BOLSTER JOHN J,3RD  109 N BEECHWOOD AVE                     000N        CARE OF             
MTR08547100001000000000000000RA              31937466    007500180000001800000520000003NN  NNW 000                       N    
RDG08547100WATRL000000004K00000000000006035004501312015130426N000000000000U86       000540400K 10000000010000006008           
CUS0854710000108017663009         DELISA THOMAS C     111 N BEECHWOOD AVE                     000N        CARE OF             
MTR08547100001000000000000000RA              01079894    005800190000001900000610000003NN  NNW 000                       N    
RDG08547100WATRL000000004K00000000000001620004601312015130537N000000000000U86       000710400K 10000000010000001600           
CUS0854710000108017664007         COOMBS LESLIE E     102 N BEECHWOOD AVE                     000N        CARE OF             
MTR08547100001000000000000000RA              36691994    005800200000002000000520000003NN  NNW 000                       N    
RDG08547100WATRL000000004K00000000000001698004901312015130749N000400000010U86       000200400K 10000000010000001690           
CUS0854710000108017665004         ONEY JOHN B         104 N BEECHWOOD AVE                     000N        CARE OF             
MTR08547100001000000000000000RA              00163329    000100210000002100000570000003NN  NNW 000                       N    
RDG08547100WATRL000000004K00000000000000273004801312015130729N000000000000U86       000380400K 10000000010000000269           
CUS0854710000108017666002         FIELDS MARTIN W     106 N BEECHWOOD AVE                     000N        CARE OF             
MTR08547100001000000000000000RA              19461364    005800220000002200000520000003NN  NNW 000                       N    
RDG08547100WATRL000000004K00000000000006011004301312015130256N000000000000U86       000740400K 10000000010000005988           
CUS0854710000108017667000         VICARI MICHAEL J,JR 108 N BEECHWOOD AVE                     000N        CARE OF             
MTR08547100001000000000000000RA              01070095    005800230000002300000610000003NY  NNW 000                       N    
MTM0854710001070095    FROZEN IN DIRT                                                                                         
RDG08547100WATRL000000004K00000000000000000000000000000000000 000000000000U         000000400  10000000010000001059           
CUS0854710000108017668008         QUINN ANN ELIZABETH 110 N BEECHWOOD AVE                     000N        CARE OF             
MTR08547100001000000000000000RA              23051712    005800240000002400000570000003NN  NNW 000                       N    
RDG08547100WATRL000000004K00000000000005282004201312015130142N000000000000U86       000540400K 10000000010000005267           
CUS0854710000108017669006         SARANGOULIS CHRISTOP112 N BEECHWOOD AVE                     000N        CARE OF             
MTR08547100001000000000000000RA              75615820    005800250000002500000350000003NN  NNW 000                       N    
RDG08547100WATRL000000004K00000000000000150004101312015130048N000000000000U86       000590400K 10000000010000000118           
CUS0854710000108017670004         BRADFORD D HARRIS   114 N BEECHWOOD AVE                     000N        CARE OF             
MTR08547100001000000000000000RA              23059624    005800260000002600000520000003NN  NNW 000                       N    
RDG08547100WATRL000000004K00000000000003174003901312015125828N000000000000U86       001080400K 10000000010000003156           
CUS0854710000108017671002         DAVIS SUSAN UPMAN   116 N BEECHWOOD AVE                     000N        CARE OF             
MTR08547100001000000000000000RA              38984341    005800270000002700000520000003NN  NNW 000                       N    
RDG08547100WATRL000000004K00000000000002356004001312015125949N000000000000U86       000810400K 10000000010000002344           
CUS0854710000108017672000         CIANCI KAREN A      118 N BEECHWOOD AVE                     000N        CARE OF             
MTR08547100001000000000000000RA              10012059    005800280000002800000570000003NN  NNW 000                       N    
RDG08547100WATRL000000004K00000000000000226003501312015125434N000000000000U86       000150400K 10000000010000000209           
CUS0854710000108017673008         PLISKO MARC JOSEPH  120 N BEECHWOOD AVE                     000N        CARE OF             
MTR08547100001000000000000000RA              01070096    005800290000002900000610000003NN  NNW 000                       N    
RDG08547100WATRL000000004K00000000000001077003401312015125419N000000000000U86       000480400K 10000000010000001057           
CUS0854710000108017674006         NEBEL BERNARD JAMES 122 N BEECHWOOD AVE                     000N        CARE OF             
MTR08547100001000000000000000RA              38984342    005800300000003000000520000003NN  NNW 000                       N    
RDG08547100WATRL000000004K00000000000002305003301312015125331N000000000000U86       000280400K 10000000010000002293           
CUS0854710000108017675003         HETMAN KEVIN DANIEL 124 N BEECHWOOD AVE                     000N        CARE OF             
MTR08547100001000000000000000RA              01082166    005800310000003100000610000003NN  NNW 000                       N    
RDG08547100WATRL000000004K00000000000001227003201312015125303N000000000000U86       000430400K 10000000010000001210           
CUS0854710000108017676001         ESTRADA LOURDES N   126 N BEECHWOOD AVE                     000N        CARE OF             
MTR08547100001000000000000000RA              01070091    005800320000003200000610000003NN  NNW 000                       N    
RDG08547100WATRL000000004K00000000000000742003101312015125220N000000000000U86       000620400K 10000000010000000728           
CUS0854710000108017677009         CRAIN THOMAS P      113 N BEECHWOOD AVE                     000N        CARE OF             
MTR08547100001000000000000000RA              27065193    007500330000003300000520000003NN  NNW 000                       N    
RDG08547100WATRL000000004K00000000000002790003601312015125523N000000000000U86       000490400K 10000000010000002782           
CUS0854710000108017678007         MARK A. BAUMAN      115 N BEECHWOOD AVE                     000N        CARE OF             
MTR08547100001000000000000000RA              36699549    000100340000003400000520000003NN  NNW 000                       N    
RDG08547100WATRL000000004K00000000000007114003701312015125601N000000000000U86       000380400K 10000000010000007095           
CUS0854710000108017679005         COLLINS DAVID B     117 N BEECHWOOD AVE                     000N        CARE OF             
MTR08547100001000000000000000RA              30515579    005800350000003500000520000003NN  NNW 000                       N    
RDG08547100WATRL000000004K00000000000002917003801312015125640N000000000000U86       000390400K 10000000010000002889           
CUS0854710000108017680003         PRZYBYLA THOMAS F   119 N BEECHWOOD AVE                     000N        CARE OF             
MTR08547100001000000000000000RA              37690140    007500360000003600000520000003NN  NNW 000                       N    
RDG08547100WATRL000000004K00000000000003265003001312015125118N000000000000U86       001210400K 10000000010000003231           
CUS0854710000108017681001         DRAPER KELBY E      121 N BEECHWOOD AVE                     000N        CARE OF             
MTR08547100001000000000000000RA              14924809    005800370000003700000310000003NN  NNW 000                       N    
RDG08547100WATRL000000004K00000000000001152002901312015124917N000000000000U86       001100400K 10000000010000001116           
CUS0854710000108017682009         TRENKLE FRED A      128 N BEECHWOOD AVE                     000N        CARE OF             
MTR08547100001000000000000000RA              37690136    007500380000003800000520000003NN  NNW 000                       N    
RDG08547100WATRL000000004K00000000000002886009601312015134509N000400000010U86       001270400K 10000000010000002878           
CUS0854710000108017683007         BRINKMANN MARGARET P1301 EDMONDSON AVE                      000N        CARE OF             
MTR08547100001000000000000000RA              28012081    000100390000003900000520000003NY  NNW 000                       N    
MTM0854710028012081    FROZEN CANT OPEN                                                                                       
RDG08547100WATRL000000004K00000000000000000000000000000000000 000000000000U         000000400  10000000010000002356           
CUS0854710000102217438007         PARK, BYUNG M       1309-13 EDMONDSON AVE                   000N        CARE OF             
MTR08547100001000000000000000RA              43905685    007500400000004000000520000003NY  NNW 000   FERRULE APPLIED     N    
MTM0854710043905685    DOESNT BELONG IT SHOULD BE IN A CITY RT                                                                
RDG08547100WATRL000000004K00000000000000000009701312015134641S002000000000U86       000920400K 10000000010000000000           
CUS0854710000108017684005         STEIN JEFFREY D     1401 EDMONDSON AVE                      000N        CARE OF             
MTR08547100001000000000000000RA              45382732    005800410000004100000520000003NN  NNW 000                       N    
RDG08547100WATRL000000004K00000000000002442002801312015124727N000000000000U86       000240400K 10000000010000002422           
CUS0854710000108017685002         NATHAN WASKEY       1403 EDMONDSON AVE                      000N        CARE OF             
MTR08547100001000000000000000RA              45382887    005800420000004200000520000003NN  NNW 000                       N    
RDG08547100WATRL000000004K00000000000002463002701312015124703N000000000000U86       000370400K 10000000010000002449           
CUS0854710000108017686000         LANDRISCINA MARK E  1405 EDMONDSON AVE                      000N        CARE OF             
MTR08547100001000000000000000RA              30516358    005800430000004300000520000003NN  NNW 000                       N    
RDG08547100WATRL000000004K00000000000002982002601312015124626N000000000000U86       001160400K 10000000010000002952           
CUS0854710000108017687008         VOGEL WILLIAM A,3RD 128 ROSEWOOD AVE                        000N        CARE OF             
MTR08547100001000000000000000RA              45382882    005800440000004400000520000003NN  NNW 000                       N    
RDG08547100WATRL000000004K00000000000001952008901312015133645N000000000000U86       000470400K 10000000010000001940           
CUS0854710000108017688006         CAIN RAYMOND E,JR   126 ROSEWOOD AVE                        000N        CARE OF             
MTR08547100001000000000000000RA              01070903    005800450000004500000610000003NN  NNW 000                       N    
RDG08547100WATRL000000004K00000000000000836008801312015133558N000000000000U86       000330400K 10000000010000000826           
CUS0854710000108017689004         PETER R MEYERS      124 ROSEWOOD AVE                        000N        CARE OF             
MTR08547100001000000000000000RA              33416683    007500460000004600000520000003NN  NNW 000                       N    
RDG08547100WATRL000000004K00000000000001775008701312015133525N000300000010U86       000400400K 10000000010000001761           
CUS0854710000108017690002         MARSZAL STEPHEN J   122 ROSEWOOD AVE                        000N        CARE OF             
MTR08547100001000000000000000RA              24220039    005800470000004700000520000003NN  NNW 000                       N    
RDG08547100WATRL000000004K00000000000003832008601312015133445N000000000000U86       000230400K 10000000010000003822           
CUS0854710000108017691000         BUKER MARTIN J      120 ROSEWOOD AVE                        000N        CARE OF             
MTR08547100001000000000000000RA              27814355    005800480000004800000520000003NN  NNW 000                       N    
RDG08547100WATRL000000004K00000000000005072008501312015133422N000400000010U86       000230400K 10000000010000005049           
CUS0854710000108017692008         COX DOUGLAS D       118 ROSEWOOD AVE                        000N        CARE OF             
MTR08547100001000000000000000RA              45382377    005800490000004900000520000003NN  NNW 000                       N    
RDG08547100WATRL000000004K00000000000003110008401312015133359N000400000010U86       001040400K 10000000010000003084           
CUS0854710000108017693006         LAKE LAURA ANN      116 ROSEWOOD AVE                        000N        CARE OF             
MTR08547100001000000000000000RA              01070908    005800500000005000000610000003NN  NNW 000                       N    
RDG08547100WATRL000000004K00000000000001824006101312015131551N000000000000U86       000220400K 10000000010000001775           
CUS0854710000108017694004         CLENDANIEL WILLIAM W114 ROSEWOOD AVE                        000N        CARE OF             
MTR08547100001000000000000000RA              01082167    005800510000005100000610000003NN  NNW 000                       N    
RDG08547100WATRL000000004K00000000000000839006001312015131529N000000000000U86       000240400K 10000000010000000827           
CUS0854710000108017695001         QUIGLEY BELINDA M   110 ROSEWOOD AVE                        000N        CARE OF             
MTR08547100001000000000000000RA              36691247    005800520000005200000520000003NN  NNW 000                       N    
RDG08547100WATRL000000004K00000000000004107005901312015131505N000000000000U86       000190400K 10000000010000004099           
CUS0854710000108407351009         BECKER HARVEY G     108 ROSEWOOD AVE                        000N        CARE OF             
MTR08547100001000000000000000RA              44174791    005800530000005300000520000003NN  NNW 000                       N    
RDG08547100WATRL000000004K00000000000002180005801312015131446N000000000000U86       000790400K 10000000010000002156           
CUS0854710000108017696009         AUER GARY L         106 ROSEWOOD AVE                        000N        CARE OF             
MTR08547100001000000000000000RA              37690134    007500540000005400000520000003NN  NNW 000                       N    
RDG08547100WATRL000000004K00000000000004591005501312015131201N000000000000U86       000310400K 10000000010000004564           
CUS0854710000108017697007         BROOKS DAVID C      104 ROSEWOOD AVE                        000N        CARE OF             
MTR08547100001000000000000000RA              01070022    005800550000005500000610000003NN  NNW 000                       N    
RDG08547100WATRL000000004K00000000000000704005401312015131130N000000000000U86       000230400K 10000000010000000684           
CUS0854710000108017698005         BRENNAN ROBERT P    102 ROSEWOOD AVE                        000N        CARE OF             
MTR08547100001000000000000000RA              01070029    005800560000005600000610000003NN  NNW 000                       N    
RDG08547100WATRL000000004K00000000000001553005301312015131107N000000000000U86       000600400K 10000000010000001537           
CUS0854710000108017699003         BYRD JAMES S,3RD    100 ROSEWOOD AVE                        000N        CARE OF             
MTR08547100001000000000000000RA              01070098    005800570000005700000610000003NN  NNW 000                       N    
RDG08547100WATRL000000004K00000000000001526005101312015130948N000000000000U86       000760400K 10000000010000001498           
CUS0854710000108017700009         NEWMAN JEFFERY P    1406 SUMMIT AVE                         000N        CARE OF             
MTR08547100001000000000000000RA              36699449    007500580000005800000520000003NN  NNW 000                       N    
RDG08547100WATRL000000004K00000000000003164001801302015133928N000000000000N86       000790400K 10000000010000003140           
CUS0854710000108017701007         JONES WILLIAM C,JR  1404 SUMMIT AVE                         000N        CARE OF             
MTR08547100001000000000000000RA              33731541    007500590000005900000520000003NN  NNW 000                       N    
RDG08547100WATRL000000004K00000000000002732001701302015133809N000000000000N86       000400400K 10000000010000002714           
CUS0854710000108017702005         WEBB EVAN H         1402 SUMMIT AVE                         000N        CARE OF             
MTR08547100001000000000000000RA              26010135    005800600000006000000520000003NN  NNW 000                       N    
RDG08547100WATRL000000004K00000000000007335001601302015133729N000400000010N86       001020400K 10000000010000007320           
CUS0854710000108402015005         CORBITT DONALD P    1401 SUMMIT AVE                         000N        CARE OF             
MTR08547100001000000000000000RA              30514293    005800610000006100000520000003NN  NNW 000                       N    
RDG08547100WATRL000000004K00000000000003793001501302015133547N000000000000N86       001080400K 10000000010000003776           
CUS0854710000108017704001         JOHN MILLER         1504 SUMMIT AVE                         000N        CARE OF             
MTR08547100001000000000000000RA              19461374    005800620000006200000520000003NN  NNW 000                       N    
RDG08547100WATRL000000004K00000000000005753002101302015134323N000000000011N86       000530400K 10000000010000005735           
CUS0854710000108017705008         CARLSON GEORGE L    1502 SUMMIT AVE                         000N        CARE OF             
MTR08547100001000000000000000RA              36699432    007500630000006300000520000003NN  NNW 000                       N    
RDG08547100WATRL000000004K00000000000004234002001302015134230N000000000000N86       000490400K 10000000010000004219           
CUS0854710000108017706006         MALTESE MARIE T     1500 SUMMIT AVE                         000N        CARE OF             
MTR08547100001000000000000000RA              33080351    005800640000006400000520000003NN  NNW 000                       N    
RDG08547100WATRL000000004K00000000000002845001901302015134141N000000000000N86       001330400K 10000000010000002828           
CUS0854710000108017707004         BALIS NATHANIEL R   101 ROSEWOOD AVE                        000N        CARE OF             
MTR08547100001000000000000000RA              37690137    007500650000006500000520000003NN  NNW 000                       N    
RDG08547100WATRL000000004K00000000000004100005201312015131007N000000000000U86       000190400K 10000000010000004073           
CUS0854710000108017708002         DIGMAN JOHN T       105 ROSEWOOD AVE                        000N        CARE OF             
MTR08547100001000000000000000RA              26012554    005800660000006600000520000003NN  NNW 000                       N    
RDG08547100WATRL000000004K00000000000003916005701312015131327N000000000000U86       000440400K 10000000010000003899           
CUS0854710000108017709000         MATHEWS TIMOTHY P   107 ROSEWOOD AVE                        000N        CARE OF             
MTR08547100001000000000000000RA              32898517    005800670000006700000520000003NN  NNW 000                       N    
RDG08547100WATRL000000004K00000000000004184005601312015131243N000000000000U86       000420400K 10000000010000004154           
CUS0854710000108017710008         ZIEGLER CHARLES JAY 109 ROSEWOOD AVE                        000N        CARE OF             
MTR08547100001000000000000000RA              23056367    005800680000006800000520000003NN  NNW 000                       N    
RDG08547100WATRL000000004K00000000000003768006301312015131734N000400000010U86       000740400K 10000000010000003756           
CUS0854710000108017711006         KUIPER WILLIAM H    111 ROSEWOOD AVE                        000N        CARE OF             
MTR08547100001000000000000000RA              23052098    005800690000006900000520000003NN  NNW 000                       N    
RDG08547100WATRL000000004K00000000000004619006201312015131620N000000000000U86       000290400K 10000000010000004596           
CUS0854710000108017712004         MARKLAND ALBAN D,JR 113 ROSEWOOD AVE                        000N        CARE OF             
MTR08547100001000000000000000RA              46880858    005800700000007000000520000003NN  NNW 000                       N    
RDG08547100WATRL000000004K00000000000002247009401312015134149N000000000000U86       000930400K 10000000010000002229           
CUS0854710000108017713002         BOSLEY JOHN S       115 ROSEWOOD AVE                        000N        CARE OF             
MTR08547100001000000000000000RA              76348716    005800710000007100000350000003NN  NNW 000                       N    
RDG08547100WATRL000000004K00000000000000045009501312015134302N000000000000U86       000730400K 10000000010000000030           
CUS0854710000108017714000         BARBAGALLO ROBERT   117 ROSEWOOD AVE                        000N        CARE OF             
MTR08547100001000000000000000RA              32898520    005800720000007200000520000003NN  NNW 000                       N    
RDG08547100WATRL000000004K00000000000003616009301312015134016N000000000000U86       000370400K 10000000010000003596           
CUS0854710000108017715007         NELSON ROBERT EDWIN 119 ROSEWOOD AVE                        000N        CARE OF             
MTR08547100001000000000000000RA              26001767    005800730000007300000520000003NN  NNW 000                       N    
RDG08547100WATRL000000004K00000000000003392009201312015133939N000000000000U86       000880400K 10000000010000003381           
CUS0854710000108017716005         ELIZABETH M SAVERINO121 ROSEWOOD AVE                        000N        CARE OF             
MTR08547100001000000000000000RA              01085462    005800740000007400000610000003NN  NNW 000                       N    
RDG08547100WATRL000000004K00000000000001117009101312015133811N000000000000U86       000230400K 10000000010000001104           
CUS0854710000108017717003         SQUIGGINS CECELIA A 123 ROSEWOOD AVE                        000N        CARE OF             
MTR08547100001000000000000000RA              01070909    005800750000007500000610000003NN  NNW 000                       N    
RDG08547100WATRL000000004K00000000000002329009001312015133748N000000000000U86       000630400K 10000000010000002251           
CUS0854710000108017718001         JOHN MARSHALL       125 ROSEWOOD AVE                        000N        CARE OF             
MTR08547100001000000000000000RA              01079883    005800760000007600000610000003NY  NNW 000                       N    
MTM0854710001079883    FROZEN IN DIRT                                                                                         
RDG08547100WATRL000000004K00000000000000000000000000000000000 000000000000U         000000400  10000000010000000506           
CUS0854710000108443250009         CAROPRESO HEATHER L 1505 EDMONDSON AVE                      000N        CARE OF             
MTR08547100001000000000000000RA              75618013    005800770000007700000350000003NN  NNW 000                       N    
RDG08547100WATRL000000004K00000000000000224002501312015124430N000100000010U86       000350400K 10000000010000000224           
CUS0854710000108017719009         SCHINDHELM EDWARD DA1513 EDMONDSON AVE                      000N        CARE OF             
MTR08547100001000000000000000RA              35110487    005800780000007800000520000003NN  NNW 000                       N    
RDG08547100WATRL000000004K00000000000003749002401312015124355N000000000000U86       000290400K 10000000010000003721           
CUS0854710000108017720007         RIZZUTTI MARGARET G 1515 EDMONDSON AVE                      000N        CARE OF             
MTR08547100001000000000000000RA              25485942    007500790000007900000520000003NN  NNW 000                       N    
RDG08547100WATRL000000004K00000000000004312002301312015124326N000000000000U86       001420400K 10000000010000004295           
CUS0854710000108017721005         NOVOTNY ADAM        125 SMITHWOOD AVE                       000N        CARE OF             
MTR08547100001000000000000000RA              37690135    007500800000008000000520000003NN  NNW 000                       N    
RDG08547100WATRL000000004K00000000000003425002202032015142233O000000000010U80       000450400K 10000000010000003411           
CUS0854710000108017722003         MICHAEL E KELLER    123 SMITHWOOD AVE                       000N        CARE OF             
MTR08547100001000000000000000RA              23054762    005800810000008100000520000003NN  NNW 000                       N    
RDG08547100WATRL000000004K00000000000004548002101312015124019N000000000000U86       000300400K 10000000010000004523           
CUS0854710000108017723001         FECHKO PAUL         121 SMITHWOOD AVE                       000N        CARE OF             
MTR08547100001000000000000000RA              35100396    007500820000008200000520000003NN  NNW 000                       N    
RDG08547100WATRL000000004K00000000000003611002001312015123949N000400000010U86       000360400K 10000000010000003576           
CUS0854710000108017724009         STUTHMANN RICHARD   119 SMITHWOOD AVE                       000N        CARE OF             
MTR08547100001000000000000000RA              37690139    007500830000008300000520000003NN  NNW 000                       N    
RDG08547100WATRL000000004K00000000000003685001901312015123913N000000000000U86       000280400K 10000000010000003663           
CUS0854710000108017725006         CRAIG THOMAS W      117 SMITHWOOD AVE                       000N        CARE OF             
MTR08547100001000000000000000RA              26013553    005800840000008400000520000003NN  NNW 000                       N    
RDG08547100WATRL000000004K00000000000001800001801312015123845N000000000000U86       000410400K 10000000010000001796           
CUS0854710000108017726004         TACKA THOMAS V,JR   115 SMITHWOOD AVE                       000N        CARE OF             
MTR08547100001000000000000000RA              26013557    005800850000008500000520000003NN  NNW 000                       N    
RDG08547100WATRL000000004K00000000000006042001701312015123804N000000000000U86       000250400K 10000000010000006009           
CUS0854710000108017727002         COLLIER MICHAEL R   111 SMITHWOOD AVE                       000N        CARE OF             
MTR08547100001000000000000000RA              01070097    005800860000008600000610000003NN  NNW 000                       N    
RDG08547100WATRL000000004K00000000000000698001601312015123739N000000000020U86       000520400K 10000000010000000691           
CUS0854710000108017728000         109 SMITHWOOD LLC   109 SMITHWOOD AVE                       000N        CARE OF             
MTR08547100001000000000000000RA              24599029    000100870000008700000520000003NN  NNW 000                       N    
RDG08547100WATRL000000004K00000000000004670001501312015123647N000000000000U86       000130400K 10000000010000004670           
CUS0854710000108017729008         CARR ERNEST E,3RD   107 SMITHWOOD AVE                       000N        CARE OF             
MTR08547100001000000000000000RA              29682282    005800880000008800000520000003NN  NNW 000                       N    
RDG08547100WATRL000000004K00000000000002378006401312015131914N000000000000U86       001000400K 10000000010000002362           
CUS0854710000108017730006         CAPANO MICHAEL      104 BIRDWOOD AVE                        000N        CARE OF             
MTR08547100001000000000000000RA              01070027    005800890000008900000610000003NN  NNW 000                       N    
RDG08547100WATRL000000004K00000000000001283006501312015132025N000000000000U86       000710400K 10000000010000001255           
CUS0854710000108017731004         MARK R WIEDEL       105 BIRDWOOD AVE                        000N        CARE OF             
MTR08547100001000000000000000RA              45381893    005800900000009000000520000003NN  NNW 000                       N    
RDG08547100WATRL000000004K00000000000003536006701312015132112N000000000000U86       000150400K 10000000010000003517           
CUS0854710000108017732002         LACOUNT PETER       103 BIRDWOOD AVE                        000N        CARE OF             
MTR08547100001000000000000000RA              45385594    005800910000009100000520000003NN  NNW 000                       N    
RDG08547100WATRL000000004K00000000000003317006601312015132057N000000000000U86       000320400K 10000000010000003293           
CUS0854710000108017733000         CAPANO MICHAEL N    105 SMITHWOOD AVE                       000N        CARE OF             
MTR08547100001000000000000000RA              45382776    005800920000009200000520000003NN  NNW 000                       N    
RDG08547100WATRL000000004K00000000000001382006801312015132229N000400000010U86       000770400K 10000000010000001370           
CUS0854710000108017734008         KING TODD T         103 SMITHWOOD AVE                       000N        CARE OF             
MTR08547100001000000000000000RA              01070028    005800930000009300000610000003NN  NNW 000                       N    
RDG08547100WATRL000000004K00000000000001089006901312015132247N000000000000U86       000180400K 10000000010000001069           
CUS0854710000108017735005         SAXTON STEWART S    101 SMITHWOOD AVE                       000N        CARE OF             
MTR08547100001000000000000000RA              10021927    005800940000009400000570000003NN  NNW 000                       N    
RDG08547100WATRL000000004K00000000000000166007001312015132316N000000000000U86       000290400K 10000000010000000159           
CUS0854710000108017736003         ANDREW S MUNDROFF   99 SMITHWOOD AVE                        000N        CARE OF             
MTR08547100001000000000000000RA              01070099    005800950000009500000610000003NN  NNW 000                       N    
RDG08547100WATRL000000004K00000000000001365007101312015132341N000000000000U86       000250400K 10000000010000001343           
CUS0854710000108017737001         THOMAS HUNTER JR.   98-1/2 SMITHWOOD AVE                    000N        CARE OF             
MTR08547100001000000000000000RA              01070023    005800960000009600000610000003NN  NNW 000                       N    
RDG08547100WATRL000000004K00000000000000468007201312015132416N000000000000U86       000350400K 10000000010000000460           
CUS0854710000108017738009         GRUBER ALAN P       100 SMITHWOOD AVE                       000N        CARE OF             
MTR08547100001000000000000000RA              54348902    005800970000009700000520000003NN  NNW 000                       N    
RDG08547100WATRL000000004K00000000000002215007301312015132447N000000000000U86       000310400K 10000000010000002191           
CUS0854710000108017739007         PEREZ DAVID A       102 SMITHWOOD AVE                       000N        CARE OF             
MTR08547100001000000000000000RA              27266706    005800980000009800000520000003NN  NNW 000                       N    
RDG08547100WATRL000000004K00000000000003757007401312015132524N000000000000U86       000370400K 10000000010000003738           
CUS0854710000108420634001         VICTORIA M ROMANIUK 3 SUGAR CT                              000N        CARE OF             
MTR08547100001000000000000000RA              44087411    005800990000009900000520000003NN  NNW 000                       N    
RDG08547100WATRL000000004K00000000000002295007501312015132616N000000000000U86       000520400K 10000000010000002282           
CUS0854710000108420632005         SLACUM SCOTT W      5 SUGAR CT                              000N        CARE OF             
MTR08547100001000000000000000RA              52285230    005801000000010000000520000003NN  NNW 000                       N    
RDG08547100WATRL000000004K00000000000001984007601312015132638N000000000000U86       000220400K 10000000010000001961           
CUS0854710000108420631007         WOOD PATRICK J      7 SUGAR CT                              000N        CARE OF             
MTR08547100001000000000000000RA              44177499    005801010000010100000520000003NN  NNW 000                       N    
RDG08547100WATRL000000004K00000000000001693007701312015132711N000000000000U86       000330400K 10000000010000001680           
CUS0854710000108420633003         DINGLE JOHN         9 SUGAR CT                              000N        CARE OF             
MTR08547100001000000000000000RA              48595689    005801020000010200000520000003NN  NNW 000                       N    
RDG08547100WATRL000000004K00000000000002896007801312015132800N000400000010U86       000490400K 10000000010000002863           
CUS0854710000108420630009         NYE ERIC SAMUEL     10 SUGAR CT                             000N        CARE OF             
MTR08547100001000000000000000RA              52286612    005801030000010300000520000003NN  NNW 000                       N    
RDG08547100WATRL000000004K00000000000001496007901312015132827N000000000000U86       000270400K 10000000010000001484           
CUS0854710000108420629001         FORD MICHAEL S      8 SUGAR CT                              000N        CARE OF             
MTR08547100001000000000000000RA              52770106    005801040000010400000520000003NN  NNW 000                       N    
RDG08547100WATRL000000004K00000000000001352008001312015132829N000000000000U86       000020400K 10000000010000001326           
CUS0854710000108420628003         CHASE ROBERT A JR,  6 SUGAR CT                              000N        CARE OF             
MTR08547100001000000000000000RA              50477904    005801050000010500000520000003NN  NNW 000                       N    
RDG08547100WATRL000000004K00000000000001754008101312015132848N000000000000U86       000190400K 10000000010000001746           
CUS0854710000108017740005         VASTINE JOSEPH M,JR 104 SMITHWOOD AVE                       000N        CARE OF             
MTR08547100001000000000000000RA              37690142    007501060000010600000520000003NN  NNW 000                       N    
RDG08547100WATRL000000004K00000000000004313008201312015133017N000000000000U86       000890400K 10000000010000004301           
CUS0854710000108017741003         GODLEY-DAVIS ALBERT 106 SMITHWOOD AVE                       000N        CARE OF             
MTR08547100001000000000000000RA              26010190    005801070000010700000520000003NN  NNW 000                       N    
RDG08547100WATRL000000004K00000000000004338008301312015133215N000000000000U86       001180400K 10000000010000004327           
CUS0854710000108017742001         OCONNELL THOMAS J   200 BIRDWOOD AVE                        000N        CARE OF             
MTR08547100001000000000000000RA              01084680    005801080000010800000610000003NN  NNW 000                       N    
RDG08547100WATRL000000004K00000000000000499001401312015123634N000000000000U86       000420400K 10000000010000000486           
CUS0854710000108017743009         OCONNELL THOMAS J   108 SMITHWOOD AVE                       000N        CARE OF             
MTR08547100001000000000000000RA              37690141    007501090000010900000520000003NN  NNW 000                       N    
RDG08547100WATRL000000004K00000000000002943001301312015123552N000000000000U86       000300400K 10000000010000002927           
CUS0854710000108017744007         OSSING DANIEL A     110 SMITHWOOD AVE                       000N        CARE OF             
MTR08547100001000000000000000RA              45382812    005801100000011000000520000003NN  NNW 000                       N    
RDG08547100WATRL000000004K00000000000002739001201312015123522N000000000000U86       000620400K 10000000010000002689           
CUS0854710000108017745004         COOK RICK C         112 SMITHWOOD AVE                       000N        CARE OF             
MTR08547100001000000000000000RA              37690138    007501110000011100000520000003NN  NNW 000                       N    
RDG08547100WATRL000000004K00000000000004086001101312015123420N000000000000U86       000300400K 10000000010000004068           
CUS0854710000108017746002         LUECKING TIMOTHY T  114 SMITHWOOD AVE                       000N        CARE OF             
MTR08547100001000000000000000RA              42809833    005801120000011200000520000003NN  NNW 000                       N    
RDG08547100WATRL000000004K00000000000004132001001312015123350N000000000000U86       000120400K 10000000010000004126           
CUS0854710000108017747000         LUECKING TIMOTHY T  114 SMITHWOOD AVE                       000N        CARE OF             
MTR08547100001000000000000000RA              37690132    007501130000011300000520000003NN  NNW 000                       N    
RDG08547100WATRL000000004K00000000000001825000901312015123338N000000000000U86       000240400K 10000000010000001797           
CUS0854710000108017748008         RUSSELL CHRISTOPHER 116 SMITHWOOD AVE                       000N        CARE OF             
MTR08547100001000000000000000RA              37690176    007501140000011400000520000003NN  NNW 000                       N    
RDG08547100WATRL000000004K00000000000003149000801312015123314N000000000000U86       000130400K 10000000010000003132           
CUS0854710000108017749006         SCANNELL JAMES L    116 SMITHWOOD AVE                       000N        CARE OF             
MTR08547100001000000000000000RA              46881463    005801150000011500000520000003NN  NNW 000                       N    
RDG08547100WATRL000000004K00000000000004558000701312015123301N000000000000U86       000200400K 10000000010000004530           
CUS0854710000108017750004         CHARLES KARFONTA    118 SMITHWOOD AVE                       000N        CARE OF             
MTR08547100001000000000000000RA              01070092    005801160000011600000610000003NN  NNW 000                       N    
RDG08547100WATRL000000004K00000000000002022000601312015123241N000000000000U86       000210400K 10000000010000001995           
CUS0854710000108440568007         KARFONTA CHARLES J  118-A SMITHWOOD AVE                     000N        CARE OF             
MTR08547100001000000000000000RA              14924810    005801170000011700000310000003NN  NNW 000                       N    
RDG08547100WATRL000000004K00000000000001136000501312015123220N000000000000U86       000250400K 10000000010000001129           
CUS0854710000108017751002         COLLINS JOSEPH D    120 SMITHWOOD AVE                       000N        CARE OF             
MTR08547100001000000000000000RA              01098558    007501180000011800000610000003NN  NNW 000                       N    
RDG08547100WATRL000000004K00000000000000895000401312015123155N000000000000U86       000200400K 10000000010000000870           
CUS0854710000108017752000         DELANEY KEVIN       122 SMITHWOOD AVE                       000N        CARE OF             
MTR08547100001000000000000000RA              27826846    005801190000011900000520000003NN  NNW 000                       N    
RDG08547100WATRL000000004K00000000000004131000301312015123135N000000000000U86       000190400K 10000000010000004106           
CUS0854710000108017753008         TCM LLC             124 SMITHWOOD AVE                       000N        CARE OF             
MTR08547100001000000000000000RA              01070024    005801200000012000000610000003NN  NNW 000                       N    
RDG08547100WATRL000000004K00000000000000865000201312015123116N000300000020U86       000530400K 10000000010000000869           
CUS0854710000108017754006         MUSGRAVE RUSSELL T  126 SMITHWOOD AVE                       000N        CARE OF             
MTR08547100001000000000000000RA              01070090    005801210000012100000610000003NN  NNW 000                       N    
RDG08547100WATRL000000004K00000000000001025000101312015123023N000000000000U86       000000400K 10000000010000001012           
RTR08547100NN01210121000001210000000001210121000097NY012101210121000300020000000000000000000002    01232015NY020000 N         
RHD08549000NN02240224000002240000000002240224000180NY022402240224000000000000000000000000000002    01232015NY020000 N         
CUS0854900000108018422009         AMAZING GRACE CHURCH100 WINTERS LN                          000N        CARE OF             
MTR08549000001000000000000000RA              10024719    005800010000000100000570000003NN  NNW 000                       N    
RDG08549000WATRL000000004K00000000000000248001202022015111257N000000000000N84       005180400K 10000000010000000226           
CUS0854900000108018424005         STEWART ALVIN MONROE102A WINTERS LN                         000N        CARE OF             
MTR08549000001000000000000000RA              41075098    005800020000000200000520000003NN  NNW 000                       N    
RDG08549000WATRL000000004K00000000000001925001302022015111341N000000000000N84       000440400K 10000000010000001917           
CUS0854900000108018425002         HICKS JOHN D        104A WINTERS LN                         000N        CARE OF             
MTR08549000001000000000000000RA              99188335    005800030000000300000570000003NN  NNW 000                       N    
RDG08549000WATRL000000004K00000000000001833001402022015111357N000000000000N84       000160400K 10000000010000001810           
CUS0854900000108018426000         ACEVEDO LYNETTE     104 WINTERS LN                          000N        CARE OF             
MTR08549000001000000000000000RA              42810710    005800040000000400000520000003NN  NNW 000                       N    
RDG08549000WATRL000000004K00000000000002847001502022015111418N000300000010N84       000210400K 10000000010000002835           
CUS0854900000108018427008         JOHNSON JESSIE      106-108 WINTERS LN                      000N        CARE OF             
MTR08549000001000000000000000RA              10002355    005800050000000500000570000003NN  NNW 000                       N    
RDG08549000WATRL000000004K00000000000000332001702022015111444N000000000000N84       000100400K 10000000010000000306           
CUS0854900000108018428006         WILLIS AUBREY       108-1/2 WINTERS LN                      000N        CARE OF             
MTR08549000001000000000000000RA              26019466    005800060000000600000520000003NN  NNW 000                       N    
RDG08549000WATRL000000004K00000000000002285001602022015111434N000000000000N84       000160400K 10000000010000002261           
CUS0854900000108018429004         OLLIVIERRE ROBERT W 112 WINTERS LN                          000N        CARE OF             
MTR08549000001000000000000000RA              36692015    005800070000000700000520000003NN  NNW 000                       N    
RDG08549000WATRL000000004K00000000000002782001802022015111505N000000000000N84       000210400K 10000000010000002768           
CUS0854900000108018430002         BRYAN STAYLOR       118 WINTERS LN                          000N        CARE OF             
MTR08549000001000000000000000RA              99291328    005800080000000800000570000003NN  NNW 000                       N    
RDG08549000WATRL000000004K00000000000000773001902022015111537N000000000000N84       000320400K 10000000010000000762           
CUS0854900000108018431000         BRYAN STAYLOR       120 WINTERS LN                          000N        CARE OF             
MTR08549000001000000000000000RA              01082003    005800090000000900000610000003NN  NNW 000                       N    
RDG08549000WATRL000000004K00000000000000916002002022015111604N000000000000N84       000270400K 10000000010000000912           
CUS0854900000108018432008         DAVIS CHRISTOPHER   122 WINTERS LN                          000N        CARE OF             
MTR08549000001000000000000000RA              14903151    005800100000001000000310000003NN  NNW 000                       N    
RDG08549000WATRL000000004K00000000000001844002102022015111620N000000000000N84       000160400K 10000000010000001819           
CUS0854900000108018433006         JOHNSON CHARLES     122-1/2 WINTERS LN                      000N        CARE OF             
MTR08549000001000000000000000RA              41075417    005800110000001100000520000003NN  NNW 000                       N    
RDG08549000WATRL000000004K00000000000003287002202022015111637N000000000000N84       000170400K 10000000010000003252           
CUS0854900000108018434004         JENSON WILLIAM A    124 WINTERS LN                          000N        CARE OF             
MTR08549000001000000000000000RA              44091386    005800120000001200000520000003NN  NNW 000                       N    
RDG08549000WATRL000000004K00000000000000000002302022015111642N000000000000N84       000050400K 10000000010000000000           
CUS0854900000108018435001         HARRIS MAZIE        130 WINTERS LN                          000N        CARE OF             
MTR08549000001000000000000000RA              41075142    005800130000001300000520000003NN  NNW 000                       N    
RDG08549000WATRL000000004K00000000000000071002402022015111645N000000000000N84       000030400K 10000000010000000071           
CUS0854900000108018437007         CARL RIGGS          134 WINTERS LN                          000N        CARE OF             
MTR08549000001000000000000000RA              36690608    005800140000001400000520000003NN  NNW 000                       N    
RDG08549000WATRL000000004K00000000000001430002502022015111732N000000000000N84       000470400K 10000000010000001422           
CUS0854900000108018438005         KING KENNETH T      136 WINTERS LN                          000N        CARE OF             
MTR08549000001000000000000000RA              26013000    005800150000001500000520000003NN  NNW 000                       N    
RDG08549000WATRL000000004K00000000000003796002602022015111806N000000000000N84       000340400K 10000000010000003773           
CUS0854900000108018439003         KWEBETCHOU HUBERT   140 WINTERS LN                          000N        CARE OF             
MTR08549000001000000000000000RA              33080467    005800160000001600000520000003NN  NNW 000                       N    
RDG08549000WATRL000000004K00000000000004013001102022015110419N000000000000N84       000190400K 10000000010000003983           
CUS0854900000108018440001         LIU MENG-CHING      142 WINTERS LN                          000N        CARE OF             
MTR08549000001000000000000000RA              32901749    005800170000001700000520000003NN  NNW 000                       N    
RDG08549000WATRL000000004K00000000000001902001002022015110400N000000000000N84       000120400K 10000000010000001902           
CUS0854900000108018441009         BOSTON JOHN H       144 WINTERS LN                          000N        CARE OF             
MTR08549000001000000000000000RA              25780232    005800180000001800000520000003NN  NNW 000                       N    
RDG08549000WATRL000000004K00000000000002904000902022015110348N000000000000N84       000140400K 10000000010000002898           
CUS0854900000108018442007         SMITH VERA  KING JUL146 WINTERS LN                          000N        CARE OF             
MTR08549000001000000000000000RA              35108353    005800190000001900000520000003NN  NNW 000                       N    
RDG08549000WATRL000000004K00000000000003493000802022015110334N000000000000N84       000520400K 10000000010000003482           
CUS0854900000108018443005         WOOD DOROTHY R      148 WINTERS LN                          000N        CARE OF             
MTR08549000001000000000000000RA              23645221    005800200000002000000520000003NN  NNW 000                       N    
RDG08549000WATRL000000004K00000000000001821022302022015135940N000000000000N84       002870400K 10000000010000001813           
CUS0854900000108018444003         MCLELLAN RICHARD M  150 WINTERS LN                          000N        CARE OF             
MTR08549000001000000000000000RA              25783411    005800210000002100000520000003NN  NNW 000                       N    
RDG08549000WATRL000000004K00000000000001639000702022015110242N000000000000N84       000880400K 10000000010000001621           
CUS0854900000108018460009         AHMAD TANVEER       156 WESLEY AVE                          000N        CARE OF             
MTR08549000001000000000000000RA              24773911    005800220000002200000520000003NN  NNW 000                       N    
RDG08549000WATRL000000004K00000000000004526000602022015110114N000000000000N84       000070400K 10000000010000004526           
CUS0854900000108018461007         CAREY CATHERINE GAIT158 WINTERS LN                          000N        CARE OF             
MTR08549000001000000000000000RA              26007911    005800230000002300000520000003NN  NNW 000                       N    
RDG08549000WATRL000000004K00000000000002207000502022015110107N000000000000N84       000160400K 10000000010000002198           
CUS0854900000108018462005         MILLER ARNITA LYNN  160 WINTERS LN                          000N        CARE OF             
MTR08549000001000000000000000RA              26019484    005800240000002400000520000003NN  NNW 000                       N    
RDG08549000WATRL000000004K00000000000003378000402022015110051N000000000000N84       000200400K 10000000010000003353           
CUS0854900000108018463003         SILAS BETTY         162 WINTERS LN                          000N        CARE OF             
MTR08549000001000000000000000RA              29682070    005800250000002500000520000003NN  NNW 000                       N    
RDG08549000WATRL000000004K00000000000003326000302022015110031N000000000000N84       000090400K 10000000010000003311           
CUS0854900000108018464001         RANDALL THOMAS      164 WINTERS LN                          000N        CARE OF             
MTR08549000001000000000000000RA              35108586    005800260000002600000520000003NN  NNW 000                       N    
RDG08549000WATRL000000004K00000000000006189000202022015110022N000000000000N84       000230400K 10000000010000006166           
CUS0854900000108018465008         MARY S MORRISON     166 WINTERS LN                          000N        CARE OF             
MTR08549000001000000000000000RA              01075743    005800270000002700000610000003NN  NNW 000                       N    
RDG08549000WATRL000000004K00000000000000672000102022015105959N000000000000N84       000000400K 10000000010000000658           
CUS0854900000108018466006         JOHNSON KIM S       168 WINTERS LN                          000N        CARE OF             
MTR08549000001000000000000000RA              52286391    005800280000002800000520000003NN  NNW 000                       N    
RDG08549000WATRL000000004K00000000000001209002702022015112131N000000000000N84       002050400K 10000000010000001194           
CUS0854900000108018467004         LAWSON SEAN D       170 WINTERS LN                          000N        CARE OF             
MTR08549000001000000000000000RA              24767114    005800290000002900000520000003NN  NNW 000                       N    
RDG08549000WATRL000000004K00000000000000325002802022015112201N000000000000N84       000300400K 10000000010000000325           
CUS0854900000108018468002         LAWSON SEAN         172 WINTERS LN                          000N        CARE OF             
MTR08549000001000000000000000RA              00140286    005800300000003000000570000003NN  NNW 000                       N    
RDG08549000WATRL000000004K00000000000001505002902022015112203N000000000000N84       000020400K 10000000010000001505           
CUS0854900000108018469000         LAWSON SEAN DANIEL  174 WINTERS LN                          000N        CARE OF             
MTR08549000001000000000000000RA              24762317    005800310000003100000520000003NN  NNW 000                       N    
RDG08549000WATRL000000004K00000000000002570003002022015112236N000400000010N84       000330400K 10000000010000002558           
CUS0854900000108018470008         WEBB SCHOLLEY E,JR  176 WINTERS LN                          000N        CARE OF             
MTR08549000001000000000000000RA              29403827    005800320000003200000520000003NN  NNW 000                       N    
RDG08549000WATRL000000004K00000000000002050003102022015112258N000000000010N84       000220400K 10000000010000002040           
CUS0854900000108018471006         FLETCHER ROOSEVELT  178-80 WINTERS LN                       000N        CARE OF             
MTR08549000001000000000000000RA              14920463    005800330000003300000310000003NN  NNW 000                       N    
RDG08549000WATRL000000004K00000000000000616022402022015140127N000300000010N84       001070400K 10000000010000000602           
CUS0854900000108018472004         IVORY CORNELIA J    182 WINTERS LN                          000N        CARE OF             
MTR08549000001000000000000000RA              35102933    005800340000003400000520000003NN  NNW 000                       N    
RDG08549000WATRL000000004K00000000000001693003202022015112402N000000000000N84       000640400K 10000000010000001693           
CUS0854900000108018473002         LAWSON MARGO A      15 SHIPLEY AVE                          000N        CARE OF             
MTR08549000001000000000000000RA              20968333    005800350000003500000520000003NN  NNW 000                       N    
RDG08549000WATRL000000004K00000000000002451022202022015135453N000000000000N84       002560400K 10000000010000002444           
CUS0854900000108018474000         THOMAS EDITH        17 SHIPLEY AVE                          000N        CARE OF             
MTR08549000001000000000000000RA              30527027    005800360000003600000520000003NN  NNW 000                       N    
RDG08549000WATRL000000004K00000000000002999004202022015112840N000000000000N84       000710400K 10000000010000002977           
CUS0854900000108018475007         SPIRIT AND TRUTH WOR164 WESLEY AVE                          000N        CARE OF             
MTR08549000001000000000000000RA              36698933    005800370000003700000520000003NN  NNW 000                       N    
RDG08549000WATRL000000004K00000000000008710004302022015112856N000000000000N84       000160400K 10000000010000008709           
CUS0854900000108018476005         ST AMBROSE HOUSING A34 SHIPLEY AVE                          000N        CARE OF             
MTR08549000001000000000000000RA              01072305    005800380000003800000610000003NN  NNW 000                       N    
RDG08549000WATRL000000004K00000000000000661005202022015113122N000000000000N84       000100400K 10000000010000000656           
CUS0854900000108018477003         ST AMBROSE HOUSING A32 SHIPLEY AVE                          000N        CARE OF             
MTR08549000001000000000000000RA              01082007    005800390000003900000610000003NN  NNW 000                       N    
RDG08549000WATRL000000004K00000000000000967005102022015113112N000000000000N84       000180400K 10000000010000000947           
CUS0854900000108018478001         ST AMBROSE HOUSING A30 SHIPLEY AVE                          000N        CARE OF             
MTR08549000001000000000000000RA              01072300    005800400000004000000610000003NN  NNW 000                       N    
RDG08549000WATRL000000004K00000000000000990005002022015113054N000000000000N84       000140400K 10000000010000000978           
CUS0854900000108018479009         ST AMBROSE HOUSING A28 SHIPLEY AVE                          000N        CARE OF             
MTR08549000001000000000000000RA              14909772    005800410000004100000310000003NN  NNW 000                       N    
RDG08549000WATRL000000004K00000000000000744004902022015113040N000000000000N84       000200400K 10000000010000000729           
CUS0854900000108018480007         ST AMBROSE HOUSING A26 SHIPLEY AVE                          000N        CARE OF             
MTR08549000001000000000000000RA              48583878    005800420000004200000520000003NN  NNW 000                       N    
RDG08549000WATRL000000004K00000000000001540004702022015113012N000000000000N84       000140400K 10000000010000001532           
CUS0854900000108018481005         ST AMBROSE HOUSING A24 SHIPLEY AVE                          000N        CARE OF             
MTR08549000001000000000000000RA              48583880    005800430000004300000520000003NN  NNW 000                       N    
RDG08549000WATRL000000004K00000000000002263004802022015113020N000000000000N84       000080400K 10000000010000002244           
CUS0854900000108018482003         ST AMBROSE HOUSING A22 SHIPLEY AVE                          000N        CARE OF             
MTR08549000001000000000000000RA              24764414    005800440000004400000520000003NN  NNW 000                       N    
RDG08549000WATRL000000004K00000000000002525004502022015112954N000000000000N84       000230400K 10000000010000002524           
CUS0854900000108018483001         HAMLIN CHERYL ANN   20 SHIPLEY AVE                          000N        CARE OF             
MTR08549000001000000000000000RA              44090053    005800450000004500000520000003NN  NNW 000                       N    
RDG08549000WATRL000000004K00000000000000721004602022015112958N000000000000N84       000040400K 10000000010000000721           
CUS0854900000108018484009         JOHNSON JAMES C     18 SHIPLEY AVE                          000N        CARE OF             
MTR08549000001000000000000000RA              01072301    005800460000004600000610000003NN  NNW 000                       N    
RDG08549000WATRL000000004K00000000000001552004402022015112931N000000000000N84       000350400K 10000000010000001531           
CUS0854900000108018485006         WILLIAMS DELORES    16 SHIPLEY AVE                          000N        CARE OF             
MTR08549000001000000000000000RA              29083615    005800470000004700000520000003NN  NNW 000                       N    
RDG08549000WATRL000000004K00000000000002258004002022015112708N000000000000N84       000120400K 10000000010000002258           
CUS0854900000108018486004         SHERLYON BRATHWAITE 14 SHIPLEY AVE                          000N        CARE OF             
MTR08549000001000000000000000RA              01084358    005800480000004800000610000003NN  NNW 000                       N    
RDG08549000WATRL000000004K00000000000000628004102022015112729N000000000000N84       000210400K 10000000010000000609           
CUS0854900000108018487002         ST AMBROSE HOUSING A12 SHIPLEY AVE                          000N        CARE OF             
MTR08549000001000000000000000RA              26002774    005800490000004900000520000003NN  NNW 000                       N    
RDG08549000WATRL000000004K00000000000006140003902022015112656N000000000000N84       000170400K 10000000010000006126           
CUS0854900000108018488000         ST AMBROSE HOUSING A10 SHIPLEY AVE                          000N        CARE OF             
MTR08549000001000000000000000RA              99289895    005800500000005000000570000003NN  NNW 000                       N    
RDG08549000WATRL000000004K00000000000000921003802022015112639N000000000000N84       000140400K 10000000010000000921           
CUS0854900000108018489008         ST AMBROSE HOUSING A8 SHIPLEY AVE                           000N        CARE OF             
MTR08549000001000000000000000RA              01072526    005800510000005100000610000003NN  NNW 000                       N    
RDG08549000WATRL000000004K00000000000000865003702022015112625N000000000000N84       000230400K 10000000010000000853           
CUS0854900000108018490006         FLETCHER ROOSEVELT  6 SHIPLEY AVE                           000N        CARE OF             
MTR08549000001000000000000000RA              01082004    005800520000005200000610000003NN  NNW 000                       N    
RDG08549000WATRL000000004K00000000000000950003602022015112602N000000000000N84       000030400K 10000000010000000950           
CUS0854900000108018491004         ST AMBROSE HOUSING A4 SHIPLEY AVE                           000N        CARE OF             
MTR08549000001000000000000000RA              26019485    005800530000005300000520000003NN  NNW 000                       N    
RDG08549000WATRL000000004K00000000000004728003502022015112559N000000000000N84       000340400K 10000000010000004691           
CUS0854900000108018492002         ST AMBROSE HOUSING A2 SHIPLEY AVE                           000N        CARE OF             
MTR08549000001000000000000000RA              547084      005800540000005400000570000003NN  NNW 000                       N    
RDG08549000WATRL000000004K00000000000004005003402022015112525N000000000000N84       000610400K 10000000010000003974           
CUS0854900000108018493000         HALL SAMUEL G       200 WINTERS LN                          000N        CARE OF             
MTR08549000001000000000000000RA              10003618    005800550000005500000570000003NN  NNW 000                       N    
RDG08549000WATRL000000004K00000000000000644003302022015112424N000000000000N84       000220400K 10000000010000000636           
CUS0854900000108018494008         BROWN OLITA         202 WINTERS LN                          000N        CARE OF             
MTR08549000001000000000000000RA              44174706    005800560000005600000520000003NN  NNW 000                       N    
RDG08549000WATRL000000004K00000000000002275005302022015113352N000000000000N84       001500400K 10000000010000002251           
CUS0854900000108018495005         MICHELLE ZHU        204 WINTERS LN                          000N        CARE OF             
MTR08549000001000000000000000RA              01094933    005800570000005700000610000003NN  NNW 000                       N    
RDG08549000WATRL000000004K00000000000002448005402022015113416N000000000000N84       000240400K 10000000010000002415           
CUS0854900000108018496003         WASHINGTON WORTHINGT206 WINTERS LN                          000N        CARE OF             
MTR08549000001000000000000000RA              01072521    005800580000005800000610000003NN  NNW 000                       N    
RDG08549000WATRL000000004K00000000000000158005502022015113419N000000000000N84       000030400K 10000000010000000158           
CUS0854900000108018497001         DANIEL R LUCAS      208 WINTERS LN                          000N        CARE OF             
MTR08549000001000000000000000RA              41258771    005800590000005900000520000003NN  NNW 000                       N    
RDG08549000WATRL000000004K00000000000003010005602022015113442N000000000000N84       000230400K 10000000010000003000           
CUS0854900000108018498009         LEVERE CAROLYN S    210A WINTERS LN                         000N        CARE OF             
MTR08549000001000000000000000RA              29682671    005800600000006000000520000003NN  NNW 000                       N    
RDG08549000WATRL000000004K00000000000003313005702022015113501N000000000000N84       000190400K 10000000010000003313           
CUS0854900000108018499007         CLARK KATHY L       210 WINTERS LN                          000N        CARE OF             
MTR08549000001000000000000000RA              31580137    005800610000006100000520000003NN  NNW 000                       N    
RDG08549000WATRL000000004K00000000000003529005802022015113542N000000000000N84       000410400K 10000000010000003517           
CUS0854900000108018500002         THOMAS STEPHEN      3 ROBERTS AVE                           000N        CARE OF             
MTR08549000001000000000000000RA              31580160    005800620000006200000520000003NN  NNW 000                       N    
RDG08549000WATRL000000004K00000000000002614006002022015113652N000000000000N84       000250400K 10000000010000002614           
CUS0854900000108018501000         THE GOSPEL CHURCH IN5 ROBERTS AVE                           000N        CARE OF             
MTR08549000001000000000000000RA              52289569    005800630000006300000520000003NN  NNW 000                       N    
RDG08549000WATRL000000004K00000000000002588006102022015113737N000400000010N84       000450400K 10000000010000002586           
CUS0854900000108018502008         KING KENNETH T      210 MARCH AVE                           000N        CARE OF             
MTR08549000001000000000000000RA              24234166    005800640000006400000520000003NN  NNW 000                       N    
RDG08549000WATRL000000004K00000000000002318006202022015113807N000000000000N84       000300400K 10000000010000002296           
CUS0854900000108018503006         LEVERE CARROLL M    207 WESLEY AVE                          000N        CARE OF             
MTR08549000001000000000000000RA              01072522    005800650000006500000610000003NN  NNW 000                       N    
RDG08549000WATRL000000004K00000000000001292006302022015113852N000000000000N84       000450400K 10000000010000001279           
CUS0854900000108018504004         JACKSON CHARLES E   101 ROBERTS AVE                         000N        CARE OF             
MTR08549000001000000000000000RA              01072520    005800660000006600000610000003NN  NNW 000                       N    
RDG08549000WATRL000000004K00000000000000773006402022015113941N000000000010N84       000490400K 10000000010000000766           
CUS0854900000108364610009         CARTER SPENCER,SR   105 ROBERTS AVE                         000N        CARE OF             
MTR08549000001000000000000000RA              30514920    005800670000006700000520000003NN  NNW 000                       N    
RDG08549000WATRL000000004K00000000000001299006502022015114008N000000000000N84       000270400K 10000000010000001290           
CUS0854900000108018505001         JOSEPH CARTER       206 WESLEY AVE                          000N        CARE OF             
MTR08549000001000000000000000RA              24227691    005800680000006800000520000003NN  NNW 000                       N    
RDG08549000WATRL000000004K00000000000002731007002022015114153N000000000000N84       000300400K 10000000010000002731           
CUS0854900000108018507007         NAYLOR LOIS B       108 ROBERTS AVE                         000N        CARE OF             
MTR08549000001000000000000000RA              10001226    005800690000006900000570000003NN  NNW 000                       N    
RDG08549000WATRL000000004K00000000000000297006902022015114123N000400000010N84       000140400K 10000000010000000291           
CUS0854900000108397519003         RICHARDSON NATHANIEL110 ROBERTS AVE                         000N        CARE OF             
MTR08549000001000000000000000RA              40044940    005800700000007000000520000003NN  NNW 000                       N    
RDG08549000WATRL000000004K00000000000001941006802022015114109N000000000000N84       000150400K 10000000010000001928           
CUS0854900000108018508005         DOROTHY E SMITH     109 ROBERTS AVE                         000N        CARE OF             
MTR08549000001000000000000000RA              52289974    005800710000007100000520000003NN  NNW 000                       N    
RDG08549000WATRL000000004K00000000000001716006602022015114034N000000000000N84       000260400K 10000000010000001712           
CUS0854900000108393511004         MAXINE I SMITH      111 ROBERTS AVE                         000N        CARE OF             
MTR08549000001000000000000000RA              52289979    005800720000007200000520000003NN  NNW 000                       N    
RDG08549000WATRL000000004K00000000000000566006702022015114054N000000000000N84       000200400K 10000000010000000559           
CUS0854900000108018509003         SINGLETARY FREDERICK106A ROBERTS AVE                        000N        CARE OF             
MTR08549000001000000000000000RA              23645229    005800730000007300000520000003NN  NNW 000                       N    
RDG08549000WATRL000000004K00000000000001538007102022015114158N000000000000N84       000050400K 10000000010000001528           
CUS0854900000108018510001         ASRORJON SHUKUROV   24 ROBERTS AVE                          000N        CARE OF             
MTR08549000001000000000000000RA              26007788    005800740000007400000520000003NN  NNW 000                       N    
RDG08549000WATRL000000004K00000000000004696007202022015114231N000300000010N84       000330400K 10000000010000004662           
CUS0854900000108018511009         CRAWFORD DOROTHY L  22 ROBERTS AVE                          000N        CARE OF             
MTR08549000001000000000000000RA              26007909    005800750000007500000520000003NN  NNW 000                       N    
RDG08549000WATRL000000004K00000000000002676007302022015114255N000000000000N84       000240400K 10000000010000002649           
CUS0854900000108018512007         CRAWFORD DOROTHY L  20 ROBERTS AVE                          000N        CARE OF             
MTR08549000001000000000000000RA              01072525    005800760000007600000610000003NN  NNW 000                       N    
RDG08549000WATRL000000004K00000000000002258007402022015114300N000000000000N84       000050400K 10000000010000002258           
CUS0854900000108018513005         NOSS HALDOR J       18 ROBERTS AVE                          000N        CARE OF             
MTR08549000001000000000000000RA              31580179    005800770000007700000520000003NN  NNW 000                       N    
RDG08549000WATRL000000004K00000000000002924007502022015114322N000000000000N84       000220400K 10000000010000002915           
CUS0854900000108018514003         ELLERBE WILLIAM     14 ROBERTS AVE                          000N        CARE OF             
MTR08549000001000000000000000RA              31587513    005800780000007800000520000003NN  NNW 000                       N    
RDG08549000WATRL000000004K00000000000002805007602022015114350N000000000000N84       000280400K 10000000010000002792           
CUS0854900000108018515000         CAREY CHRISTOPHER   1 ROBERTS AVE                           000N        CARE OF             
MTR08549000001000000000000000RA              45382576    005800790000007900000520000003NN  NNW 000                       N    
RDG08549000WATRL000000004K00000000000002161005902032015142334O000000000010N80       000450400K 10000000010000002086           
CUS0854900000108018516008         HASKINS EMBRESS L,JR10 ROBERTS AVE                          000N        CARE OF             
MTR08549000001000000000000000RA              33733902    005800800000008000000520000003NN  NNW 000                       N    
RDG08549000WATRL000000004K00000000000002604007702022015114402N000000000000N84       000120400K 10000000010000002597           
CUS0854900000108018517006         GARCIA-GARCIA OSCAR 8 ROBERTS AVE                           000N        CARE OF             
MTR08549000001000000000000000RA              48594392    005800810000008100000520000003NN  NNW 000                       N    
RDG08549000WATRL000000004K00000000000003089007802022015114425N000000000000N84       000230400K 10000000010000003075           
CUS0854900000108018518004         CORPORAL ANTHONY A  6 ROBERTS AVE                           000N        CARE OF             
MTR08549000001000000000000000RA              52289549    005800820000008200000520000003NN  NNW 000                       N    
RDG08549000WATRL000000004K00000000000000818007902022015114427N000000000000N84       000020400K 10000000010000000818           
CUS0854900000108018519002         ST AMBROSE HOUSING A4 ROBERTS AVE                           000N        CARE OF             
MTR08549000001000000000000000RA              24222140    005800830000008300000520000003NN  NNW 000                       N    
RDG08549000WATRL000000004K00000000000002251008002022015114449N000000000000N84       000220400K 10000000010000002238           
CUS0854900000108018520000         ST AMBROSE HOUSING A2 ROBERTS AVE                           000N        CARE OF             
MTR08549000001000000000000000RA              14916285    005800840000008400000310000003NN  NNW 000                       N    
RDG08549000WATRL000000004K00000000000000474008102022015114502N000000000000N84       000130400K 10000000010000000459           
CUS0854900000108018521008         SIMMS LAURA         300 WINTERS LN                          000N        CARE OF             
MTR08549000001000000000000000RA              52289963    005800850000008500000520000003NN  NNW 000                       N    
RDG08549000WATRL000000004K00000000000000904008202022015114520N000000000000N84       000180400K 10000000010000000900           
CUS0854900000108018522006         BURTON THEODORE C   302 WINTERS LN                          000N        CARE OF             
MTR08549000001000000000000000RA              01072765    005800860000008600000610000003NN  NNW 000                       N    
RDG08549000WATRL000000004K00000000000000563008302022015114602N000000000000N84       000420400K 10000000010000000560           
CUS0854900000108018523004         WILLIAMS JOHN L     304 WINTERS LN                          000N        CARE OF             
MTR08549000001000000000000000RA              11429061    005800870000008700000570000003NN  NNW 000                       N    
RDG08549000WATRL000000004K00000000000004356008402022015114623N000000000000N84       000210400K 10000000010000004356           
CUS0854900000108018524002         RINGGOLD PHYLLIS    306 WINTERS LN                          000N        CARE OF             
MTR08549000001000000000000000RA              01075740    005800880000008800000610000003NN  NNW 000                       N    
RDG08549000WATRL000000004K00000000000001034008502022015114642N000000000000N84       000190400K 10000000010000000994           
CUS0854900000108399389009         JORDAN ANTOINETTE M 308 WINTERS LN                          000N        CARE OF             
MTR08549000001000000000000000RA              36687664    005800890000008900000520000003NN  NNW 000                       N    
RDG08549000WATRL000000004K00000000000001084008602022015114658N000000000000N84       000160400K 10000000010000001079           
CUS0854900000108018525009         ST AMBROSE HOUSING A310 WINTERS LN                          000N        CARE OF             
MTR08549000001000000000000000RA              25782425    005800900000009000000520000003NN  NNW 000                       N    
RDG08549000WATRL000000004K00000000000003107008702022015114717N000100000010N84       000190400K 10000000010000003107           
CUS0854900000108018550007         JONES JEAN W        5927 LEEWOOD AVE                        000N        CARE OF             
MTR08549000001000000000000000RA              9691296     005800910000009100000570000003NN  NNW 000                       N    
RDG08549000WATRL000000004K00000000000003704008902022015114857N000100000010N84       000560400K 10000000010000003704           
CUS0854900000108018551005         RICKS ROBERT        5925 LEEWOOD AVE                        000N        CARE OF             
MTR08549000001000000000000000RA              24225174    005800920000009200000520000003NN  NNW 000                       N    
RDG08549000WATRL000000004K00000000000003334009002022015114921N000000000000N84       000240400K 10000000010000003313           
CUS0854900000108018526007         CARROLL CARNETTE LEE5929 LEEWOOD AVE                        000N        CARE OF             
MTR08549000001000000000000000RA              01072760    005800930000009300000610000003NN  NNW 000                       N    
RDG08549000WATRL000000004K00000000000002085008802022015114801N000000000000N84       000440400K 10000000010000002010           
CUS0854900000108018527005         DARGAN ERNEST       5923 LEEWOOD AVE                        000N        CARE OF             
MTR08549000001000000000000000RA              36690539    005800940000009400000520000003NN  NNW 000                       N    
RDG08549000WATRL000000004K00000000000002315009102022015114937N000000000000N84       000160400K 10000000010000002295           
CUS0854900000108018528003         CONIGLAND SHERMAN   5921 LEEWOOD AVE                        000N        CARE OF             
MTR08549000001000000000000000RA              22862051    005800950000009500000520000003NN  NNW 000                       N    
RDG08549000WATRL000000004K00000000000004012009202022015114956N000000000000N84       000190400K 10000000010000004000           
CUS0854900000108018529001         CARTER JAMES        5919 LEEWOOD AVE                        000N        CARE OF             
MTR08549000001000000000000000RA              01072762    005800960000009600000610000003NN  NNW 000                       N    
RDG08549000WATRL000000004K00000000000002184009302022015115008N000000000000N84       000120400K 10000000010000002146           
CUS0854900000108018530009         ZABROSKE DAVID AARON5917 LEEWOOD AVE                        000N        CARE OF             
MTR08549000001000000000000000RA              01072768    005800970000009700000610000003NN  NNW 000                       N    
RDG08549000WATRL000000004K00000000000000979009402022015115023N000000000000N84       000150400K 10000000010000000970           
CUS0854900000108018531007         THOMPSON DANIEL     5915 LEEWOOD AVE                        000N        CARE OF             
MTR08549000001000000000000000RA              01072769    005800980000009800000610000003NN  NNW 000                       N    
RDG08549000WATRL000000004K00000000000001427009502022015115044N000000000000N84       000210400K 10000000010000001413           
CUS0854900000108018532005         GOODE JAMES C       5913 LEEWOOD AVE                        000N        CARE OF             
MTR08549000001000000000000000RA              26013391    005800990000009900000520000003NN  NNW 000                       N    
RDG08549000WATRL000000004K00000000000002102009602022015115105N000000000000N84       000210400K 10000000010000002093           
CUS0854900000108359322008         DAVIS BABU          5911 LEEWOOD AVE                        000N        CARE OF             
MTR08549000001000000000000000RA              29683122    005801000000010000000520000003NN  NNW 000                       N    
RDG08549000WATRL000000004K00000000000004856009702022015115121N000000000000N84       000160400K 10000000010000004837           
CUS0854900000108018533003         MCDANIELS SANDRA    5909 LEEWOOD AVE                        000N        CARE OF             
MTR08549000001000000000000000RA              52289944    005801010000010100000520000003NN  NNW 000                       N    
RDG08549000WATRL000000004K00000000000001418009802022015115148N000000000000N84       000270400K 10000000010000001399           
CUS0854900000108018534001         KURISCH OWEN        5907 LEEWOOD AVE                        000N        CARE OF             
MTR08549000001000000000000000RA              50477122    005801020000010200000520000003NN  NNW 000                       N    
RDG08549000WATRL000000004K00000000000002221009902022015115227N000000000000N84       000390400K 10000000010000002214           
CUS0854900000108018535008         WEBB UPSHUR S,JR    5901 LEEWOOD AVE                        000N        CARE OF             
MTR08549000001000000000000000RA              99290701    005801030000010300000570000003NN  NNW 000                       N    
RDG08549000WATRL000000004K00000000000001694010002022015115250N000000000000N84       000230400K 10000000010000001664           
CUS0854900000108018536006         BROCK DOROTHY       5900 LEEWOOD AVE                        000N        CARE OF             
MTR08549000001000000000000000RA              01073427    005801040000010400000610000003NN  NNW 000                       N    
RDG08549000WATRL000000004K00000000000000532010102022015115306N000000000000N84       000160400K 10000000010000000529           
CUS0854900000108018537004         BROCK ODELL         5902 LEEWOOD AVE                        000N        CARE OF             
MTR08549000001000000000000000RA              29403878    005801050000010500000520000003NN  NNW 000                       N    
RDG08549000WATRL000000004K00000000000003491010202022015115330N000000000000N84       000240400K 10000000010000003480           
CUS0854900000108018538002         JONES NAOMI         5904 LEEWOOD AVE                        000N        CARE OF             
MTR08549000001000000000000000RA              26008542    005801060000010600000520000003NN  NNW 000                       N    
RDG08549000WATRL000000004K00000000000000912010302022015115348N000100000010N84       000180400K 10000000010000000912           
CUS0854900000108018539000         ALLEN SHIRLEY MAE   5906 LEEWOOD AVE                        000N        CARE OF             
MTR08549000001000000000000000RA              24758915    005801070000010700000520000003NN  NNW 000                       N    
RDG08549000WATRL000000004K00000000000004129010402022015115406N000000000000N84       000180400K 10000000010000004118           
CUS0854900000108018540008         FITCH JUDITH T BARBE5908 LEEWOOD AVE                        000N        CARE OF             
MTR08549000001000000000000000RA              27830574    005801080000010800000520000003NN  NNW 000                       N    
RDG08549000WATRL000000004K00000000000002700010502022015115428N000000000000N84       000220400K 10000000010000002693           
CUS0854900000108018541006         TALBOTT WINSTON D   5910 LEEWOOD AVE                        000N        CARE OF             
MTR08549000001000000000000000RA              21202732    005801090000010900000520000003NN  NNW 000                       N    
RDG08549000WATRL000000004K00000000000004674010602022015115445N000000000000N84       000170400K 10000000010000004660           
CUS0854900000108018542004         MULLEN JOHN CLYDE,SR5912 LEEWOOD AVE                        000N        CARE OF             
MTR08549000001000000000000000RA              01092758    005801100000011000000610000003NN  NNW 000                       N    
RDG08549000WATRL000000004K00000000000000379010702022015115459N000000000000N84       000140400K 10000000010000000377           
CUS0854900000108018543002         BACON BERNARD C     5916 LEEWOOD AVE                        000N        CARE OF             
MTR08549000001000000000000000RA              46890325    007501110000011100000520000003NN  NNW 000                       N    
RDG08549000WATRL000000004K00000000000000994010802022015115519N000000000000N84       000200400K 10000000010000000985           
CUS0854900000108018544000         FREEMAN HUTZLER M   5918 LEEWOOD AVE                        000N        CARE OF             
MTR08549000001000000000000000RA              24772207    005801120000011200000520000003NN  NNW 000                       N    
RDG08549000WATRL000000004K00000000000002421010902022015115542N000000000000N84       000230400K 10000000010000002418           
CUS0854900000108018545007         HARTZ WAYNE ARTHUR  5920 LEEWOOD AVE                        000N        CARE OF             
MTR08549000001000000000000000RA              48595540    005801130000011300000520000003NN  NNW 000                       N    
RDG08549000WATRL000000004K00000000000000964011002022015115552N000000000000N84       000100400K 10000000010000000950           
CUS0854900000108018546005         GREENE JOSEPH A,SR  5922 LEEWOOD AVE                        000N        CARE OF             
MTR08549000001000000000000000RA              26019467    005801140000011400000520000003NN  NNW 000                       N    
RDG08549000WATRL000000004K00000000000003693011102022015115615N000000000000N84       000230400K 10000000010000003669           
CUS0854900000108018547003         ELIZABETH M MATTHEWS5926 LEEWOOD AVE                        000N        CARE OF             
MTR08549000001000000000000000RA              01072761    005801150000011500000610000003NN  NNW 000                       N    
RDG08549000WATRL000000004K00000000000000746011202022015115634N000000000000N84       000190400K 10000000010000000728           
CUS0854900000108018548001         HOWARD NAOMI E      5928 LEEWOOD AVE                        000N        CARE OF             
MTR08549000001000000000000000RA              39291850    005801160000011600000520000003NN  NNW 000                       N    
RDG08549000WATRL000000004K00000000000002574011302022015115647N000000000000N84       000130400K 10000000010000002556           
CUS0854900000108018549009         WILLIAMS DANA DENISE5934 LEEWOOD AVE                        000N        CARE OF             
MTR08549000001000000000000000RA              25783369    005801170000011700000520000003NN  NNW 000                       N    
RDG08549000WATRL000000004K00000000000003523011402022015115708N000000000000N84       000210400K 10000000010000003500           
CUS0854900000108442040005         MICHAEL YOUNG       400 WINTERS LN                          000N        CARE OF             
MTR08549000001000000000000000RA              14924934    005801180000011800000310000000NN  NNW 000                       N    
RDG08549000WATRL000000004K00000000000000061011502022015115910N000000000000N84       001220400K 10000000010000000060           
CUS0854900000108018552003         ELLERBE WILLIAM     404 WINTERS LN                          000N        CARE OF             
MTR08549000001000000000000000RA              24232902    005801190000011900000520000003NN  NNW 000                       N    
RDG08549000WATRL000000004K00000000000003623011602022015115936N000000000000N84       000260400K 10000000010000003611           
CUS0854900000108018553001         KUMAR KIRAN         406 WINTERS LN                          000N        CARE OF             
MTR08549000001000000000000000RA              46877190    005801200000012000000520000003NN  NNW 000                       N    
RDG08549000WATRL000000004K00000000000000241011702022015115956N000000000000N84       000200400K 10000000010000000235           
CUS0854900000108018554009         BALLARD VALERIE W   408 WINTERS LN                          000N        CARE OF             
MTR08549000001000000000000000RA              20767972    005801210000012100000520000003NN  NNW 000                       N    
RDG08549000WATRL000000004K00000000000002400011802022015120011N000000000000N84       000150400K 10000000010000002398           
CUS0854900000108018555006         ELY DANNY           410 WINTERS LN                          000N        CARE OF             
MTR08549000001000000000000000RA              50481698    005801220000012200000520000003NN  NNW 000                       N    
RDG08549000WATRL000000004K00000000000000705011902022015120013N000000000000N84       000020400K 10000000010000000705           
CUS0854900000108018556004         GOLDMAN SOL         6001 BALTIMORE NATL PIKE                000N        CARE OF             
MTR08549000001000000000000000RA              00165053    000101230000012300000570000003NN  NNW 000                       N    
RDG08549000WATRL000000004K00000000000000204012002022015120104N000000000000N84       000510400K 10000000010000000200           
CUS0854900000108018557002         STEINBACH KENNETH J 409 WINTERS LN                          000N        CARE OF             
MTR08549000001000000000000000RA              43905142    007501240000012400000520000003NN  NNW 000                       N    
RDG08549000WATRL000000004K00000000000000286012102022015120120N000000000010N84       000160400K 10000000010000000274           
CUS0854900000108018558000         STEINBACH KENNETH JO405 WINTERS LN                          000N        CARE OF             
MTR08549000001000000000000000RA              48584557    005801250000012500000520000003NN  NNW 000                       N    
RDG08549000WATRL000000004K00000000000000000012202022015120124N000000000000N84       000040400K 10000000010000000000           
CUS0854900000108018559008         KEENE BURNEY        403 WINTERS LN                          000N        CARE OF             
MTR08549000001000000000000000RA              42810462    005801260000012600000520000003NN  NNW 000                       N    
RDG08549000WATRL000000004K00000000000001939012302022015120210N000000000000N84       000460400K 10000000010000001932           
CUS0854900000108018560006         JOHNSON ANITA B     6000 OLD FREDERICK RD                   000N        CARE OF             
MTR08549000001000000000000000RA              23644225    005801270000012700000520000003NN  NNW 000                       N    
RDG08549000WATRL000000004K00000000000005309012402022015120241N000000000000N84       000310400K 10000000010000005253           
CUS0854900000108018561004         JONES MICHAEL       6006 OLD FREDERICK RD                   000N        CARE OF             
MTR08549000001000000000000000RA              46881201    005801280000012800000520000003NN  NNW 000                       N    
RDG08549000WATRL000000004K00000000000002006012502022015120326N000000000000N84       000450400K 10000000010000001991           
CUS0854900000108017225007         MAAS ROSE           407-09 MELVIN AVE                       000N        CARE OF             
MTR08549000001000000000000000RA              24222055    005801290000012900000520000003NN  NNW 000                       N    
RDG08549000WATRL000000004K00000000000006087014202022015125659N000000000000N84       000210400K 10000000010000006061           
CUS0854900000108017226005         ROBOSSON LONNIE     411 MELVIN AVE                          000N        CARE OF             
MTR08549000001000000000000000RA              45380856    005801300000013000000520000003NN  NNW 000                       N    
RDG08549000WATRL000000004K00000000000001241022102022015135037N000000000000N84       002050400K 10000000010000001224           
CUS0854900000108017227003         HARRIS DONNA D      413 MELVIN AVE                          000N        CARE OF             
MTR08549000001000000000000000RA              44088788    005801310000013100000520000003NN  NNW 000                       N    
RDG08549000WATRL000000004K00000000000001351013902022015125548N000000000000N84       000110400K 10000000010000001351           
CUS0854900000108017228001         WATSON CAROL HUNTE  415 MELVIN AVE                          000N        CARE OF             
MTR08549000001000000000000000RA              01073422    005801320000013200000610000003NN  NNW 000                       N    
RDG08549000WATRL000000004K00000000000000901013802022015125537N000000000000N84       000200400K 10000000010000000889           
CUS0854900000108017229009         CATON AUTO PARK LLC SWC BALTIMORE NATIONAL                  000N        CARE OF             
MTR08549000001000000000000000RA              26016698    005801330000013300000520000003NN  NNW 000                       N    
RDG08549000WATRL000000004K00000000000002978013702022015125517N000000000000N84       000550400K 10000000010000002965           
CUS0854900000108017230007         STEINBACH KENNETH J 6009 BALTIMORE NATL PIKE                000N        CARE OF             
MTR08549000001000000000000000RA              77886776    005801340000013400000350000003NN  NNW 000                       N    
RDG08549000WATRL000000004K00000000000000010013602022015125422N000000000000N84       001220400K 10000000010000000004           
CUS0854900000108017231005         BROWN RONALD C      414 MELVIN AVE                          000N        CARE OF             
MTR08549000001000000000000000RA              48583881    005801350000013500000520000003NN  NNW 000                       N    
RDG08549000WATRL000000004K00000000000001317014002022015125606N000000000000N84       000180400K 10000000010000001302           
CUS0854900000108017232003         CHRIST APOSTOLIC CHU410 MELVIN AVE                          000N        CARE OF             
MTR08549000001000000000000000RA              14920688    005801360000013600000310000003NN  NNW 000                       N    
RDG08549000WATRL000000004K00000000000000208014102022015125638N000000000010N84       000320400K 10000000010000000203           
CUS0854900000108017233001         JACKSON CAROL       404 MELVIN AVE                          000N        CARE OF             
MTR08549000001000000000000000RA              40781805    005801370000013700000520000003NN  NNW 000                       N    
RDG08549000WATRL000000004K00000000000002072014402022015125746N000000000010N84       000190400K 10000000010000002054           
CUS0854900000108376192004         SHAMI MOHAMMAD I    406 MELVIN AVE                          000N        CARE OF             
MTR08549000001000000000000000RA              10014092    005801380000013800000570000003NN  NNW 000                       N    
RDG08549000WATRL000000004K00000000000001716014302022015125727N000000000000N84       000280400K 10000000010000001711           
CUS0854900000108017234009         DUVALL JOHN F       6012 OLD FREDERICK RD                   000N        CARE OF             
MTR08549000001000000000000000RA              10021926    005801390000013900000570000003NN  NNW 000                       N    
