FHDNNNN023005238005238005274N                                                                                           016176
RHD09009200NN01050105000001050000000000880088000063NY008800880105000800100000000000000000000001    01272015NY020000 N         
CUS0900920000109387250005         POLICE DEPT         10 CHERRY HILL RD                       000N        CARE OF             
MTR09009200002000000000000000RA              4867526     000400010000000100000630000003NN  NNW 000                       N    
RDG09009200WATAL000000006K00000000000000001000101312015121830N000100000010N93       000000600K 10000000010000000001           
RDG09009200WATBL000000006K00000000000002113000201312015121840N000400000010N93       000100600K 10000000010000002060           
CUS0900920000109291377001         CHERRY HILL APTS LTD2801-63 SEAMON AVE                      000N        CARE OF             
MTR09009200001000000000000000RA              9012787     000300020000000200000640000003NN  NNW 000                       N    
RDG09009200WATRL000000005K00000000000019712000301312015121849N000000000000N93       000090500K 10000000010000018560           
CUS0900920000109291376003         DEPT. OF EDUCATION  2700 SEAMON AVE                         000N        CARE OF             
MTR09009200002000000000000000RA              06102504    000300030000000300000460000000NN  NNW 000                       N    
RDG09009200WATAL000000005K00000000000007637000401312015121901N000300000010N93       000120500K 10000000010000006652           
RDG09009200WATBL000000005K00000000000000426000501312015121919N000000000000N93       000180500K 10000000010000009362           
CUS0900920000109425354009         ASSOCIATED CATHOLIC 600-36 CHERRY HILL RD                   000N        CARE OF             
MTR09009200001000000000000000RA              52294010    001500040000000400000520000003NN  NNW 000                       N    
RDG09009200WATRL000000005K00000000000003856000601312015121941N000000000000N93       000220500K 10000000010000003849           
CUS0900920000109425843001         CHERRY HILL TOWN CTR600-636 CHERRY HILL RD                  000N        CARE OF             
MTR09009200001000000000000000RA              8042265     000600050000000500000380000003NN  NNW 000   FIRE SERVICE        N    
RDG09009200WATRL000000006K00000000000000006000701312015121959N000000000000N93       000180600K 10000000010000000006           
CUS0900920000109425845006         ASSOCIATED CATHOLIC 600-636 CHERRY HILL RD                  000N        CARE OF             
MTR09009200001000000000000000RA              52768308    005800060000000600000520000003NY  NNW 000                       N    
MTM0900920052768308    ok                                                                                                     
RDG09009200WATRL000000004K00000000000000000000801312015122021N000300000010N93       000220400K 10000000010000001970           
CUS0900920000109425352003         COMMUNITY FOODS/TA  600-36 CHERRY HILL RD                   000N        CARE OF             
MTR09009200001000000000000000RA              8038645     000600070000000700000380000003NN  NNW 000   FIRE SERVICE        N    
RDG09009200WATRL000000006K00000000000000001000901312015122036N000000000000N93       000150600K 10000000010000000001           
CUS0900920000109410532007         SOUTH BALTO FAMILY H631 CHERRY HILL RD                      000N        CARE OF             
MTR09009200002000000000000000RA              70262659    000300080000000800000460000003NY  NNW 000                       N    
MTM0900920070262659    ert                    ert                                                                             
RDG09009200WATAL000000005K00000000000000000000000000000000000 000000000000U         000000500  10000000010000000079           
RDG09009200WATBL000000005K00000000000000000000000000000000000 000000000000U         000000500  10000000010000000079           
CUS0900920000109291393008         DEPT. OF EDUCATION  2501 SEABURY RD                         000N        CARE OF             
MTR09009200001000000000000000RA              7126234     000300090000000900000640000003NN  NNW 000                       N    
RDG09009200WATRL000000005K00000000000020342001001312015122244N000000000000N93       001280500K 10000000010000019575           
CUS0900920000109291378009         CHERRY HILL APTS LTD2605 SEAMON AVE                         000N        CARE OF             
MTR09009200001000000000000000RA              10803518    000300100000001000000640000003NN  NNW 000                       N    
RDG09009200WATRL000000005K00000000000028590001101312015122420N000003600000N93       000960500K 10000000010000026993           
CUS0900920000109291379007         CHERRY HILL APTS LTD2400-60 SEAMON AVE                      000N        CARE OF             
MTR09009200001000000000000000RA              9503064     000300110000001100000640000003NY  NNW 000                       N    
MTM090092009503064     n/a                                                                                                    
RDG09009200WATRL000000005K00000000000000000000000000000000000 000000000000U         000000500  10000000010000017815           
CUS0900920000109291380005         CHERRY HILL APTS LTD2401-75 SEAMON AVE                      000N        CARE OF             
MTR09009200001000000000000000RA              1327066     000200120000001200000490000003NN  NNW 000                       N    
RDG09009200WATRL000000005K00000000000026710001201312015122436N000000000000N93       000160500K 10000000010000026496           
CUS0900920000109291381003         CHERRY HILL APTS LTD2368-2398 SEAMON AVE                    000N        CARE OF             
MTR09009200001000000000000000RA              7181107     000200130000001300000490000003NY  NNW 000                       N    
MTM090092007181107     ok                                                                                                     
RDG09009200WATRL000000005K00000000000011143001301312015122503N000300000010N93       000270500K 10000000010000024414           
CUS0900920000109291382001         CHERRY HILLL APTS LT2343-99 SEAMON AVE                      000N        CARE OF             
MTR09009200001000000000000000RA              31588312    000200140000001400000520000003NN  NNW 000                       N    
RDG09009200WATRL000000005K00000000000017047001401312015122522N000000000000N93       000190500K 10000000010000016461           
CUS0900920000109291385004         CHERRY HILL APTS LTD2200-26 ROUND RD                        000N        CARE OF             
MTR09009200001000000000000000RA              9310147     000400150000001500000640000003NN  NNW 000                       N    
RDG09009200WATRL000000006K00000000000023591001501312015122531N000000000000N93       000090600K 10000000010000022078           
CUS0900920000109291383009         CHERRY HIIL APTS LTD2301-03 ROUND RD                        000N        CARE OF             
MTR09009200001000000000000000RA              32905191    000200160000001600000520000003NN  NNW 000                       N    
RDG09009200WATRL000000005K00000000000045096001601312015122541N000000000000N93       000100500K 10000000010000044930           
CUS0900920000109291384007         CHERRY HILL APTS LTD2300-2308 ROUND RD                      000N        CARE OF             
MTR09009200001000000000000000RA              1115959     000200170000001700000490000003NY  NNW 000                       N    
MTM090092001115959     ok                                                                                                     
RDG09009200WATRL000000005K00000000000018549001701312015122603N000000000000N93       000220500K 10000000010000018549           
CUS0900920000109291386002         DEPT OF EDUCATION   2400 ROUND RD                           000N        CARE OF             
MTR09009200001000000000000000RA              1292457     000300180000001800000470000003NN  NNW 000                       N    
RDG09009200WATRL000000005K00000000000039563001801312015122616N000400000010N93       000130500K 10000000010000039332           
CUS0900920000109432563006         PENNROSE MANAGEMENT 901 CHERRY HILL RD                      000N        CARE OF             
MTR09009200001000000000000000RA              8046398     000600190000001900000380000003NN  NNW 000   FIRE SERVICE        N    
RDG09009200WATRL000000006K00000000000000763001901312015122632N000000000000N93       000160600K 10000000010000000763           
CUS0900920000109432565001         PENNROSE MANAGEMENT 901 CHERRY HILL RD                      000N        CARE OF             
MTR09009200001000000000000000RA              0904461     000400200000002000000640000000NN  NNW 000                       N    
RDG09009200WATRL000000006K00000000000016870002001312015122649N000000000000N93       000170600K 10000000010000015655           
CUS0900920000109257437005         HABC                2505 MAISEL ST                          000N        CARE OF             
MTR09009200002000000000000000RA              1929720     000800210000002100000540000003NN  NNW 000                       N    
RDG09009200WATAL000000006K00000000000000000002101312015122656N000100000010N93       000070600K 10000000010000000000           
RDG09009200WATBL000000006K00000000000025293002201312015122714N000400000010N93       000180600K 10000000010000021596           
CUS0900920000109443920005         HABCO               2343 NORFOLK ST                         000N        CARE OF             
MTR09009200001000000000000000RA              01117271    000200220000002200000610000000NN  NNW 000                       N    
RDG09009200WATRL000000005K00000000000000947002301312015122723N000000000000N93       000090500K 10000000010000000927           
CUS0900920000109257441007         HABC                2605-19 KENT ST                         000N        CARE OF             
MTR09009200001000000000000000RA              29258520    000200230000002300000520000003NN  NNW 000                       N    
RDG09009200WATRL000000005K00000000000000000002401312015122740S022000000000N93       000170500K 10000000010000000000           
CUS0900920000108251689009         HOLM, JENNIFER      2823 MAISEL ST                          000N        CARE OF             
MTR09009200001000000000000000RA              14918683    005800240000002400000310000003NY  NNW 000                       N    
MTM0900920014918683    ok                    no nut                                                                           
RDG09009200WATRL000000004K00000000000000030002501312015122831N000006500000N93       000510400K 10000000010000000030           
CUS0900920000109257442005         MAISEL STREET PROPER2825 MAISEL ST                          000N        CARE OF             
MTR09009200001000000000000000RA              31588060    001500250000002500000520000003NN  NNW 000                       N    
RDG09009200WATRL000000005K00000000000000844002601312015122837N000000000000N93       000060500K 10000000010000000840           
CUS0900920000109257454000         HSG AUTH OF BALTO CI1001-1301 CHERRY HILL RD                000N        CARE OF             
MTR09009200001000000000000000RA              10806686    000300260000002600000640000003NN  NNW 000                       N    
RDG09009200WATRL000000005K00000000000005191002701312015122844N000000000000N93       000070500K 10000000010000004983           
CUS0900920000109257444001         HABC                917-19 VERONICA AVE                     000N        CARE OF             
MTR09009200001000000000000000RA              99999999    000200270000002700000620000003NN  NNW 000                       N    
RDG09009200WATRL000000005K00000000000000000002801312015122850S022000000000N93       000060500K 10000000010000000000           
CUS0900920000109257445008         HABC                944-46 VERONICA AVE                     000N        CARE OF             
MTR09009200001000000000000000RA              99999999    000400280000002800000620000003NN  NNW 000                       N    
RDG09009200WATRL000000006K00000000000000000002901312015122854S022000000000N93       000040600K 10000000010000000000           
CUS0900920000109257452004         HABC                2700-02 CARVER RD                       000N        CARE OF             
MTR09009200001000000000000000RA              1327068     000200290000002900000490000003NN  NNW 000                       N    
RDG09009200WATRL000000005K00000000000059672003001312015122903N000000000000N93       000090500K 10000000010000059208           
CUS0900920000109257453002         HABC                2705-07 CARVER RD                       000N        CARE OF             
MTR09009200001000000000000000RA              9203697     000400300000003000000640000003NN  NNW 000                       N    
RDG09009200WATRL000000006K00000000000032530003101312015122911N000000000000N93       000080600K 10000000010000030455           
CUS0900920000109257450008         HABC CON 16 11      900-14 COPPIN CT                        000N        CARE OF             
MTR09009200001000000000000000RA              1362080     000300310000003100000490000003NN  NNW 000                       N    
RDG09009200WATRL000000005K00000000000012540003201312015122919N000000000000N93       000080500K 10000000010000012215           
CUS0900920000109257446006         HABC                1016-34 BETHUNE RD                      000N        CARE OF             
MTR09009200001000000000000000RA              1115958     000200320000003200000490000003NY  NNW 000                       N    
MTM090092001115958     ok                                                                                                     
RDG09009200WATRL000000005K00000000000037948003301312015122948N000000000010N93       000290500K 10000000010000037946           
CUS0900920000109257447004         HABC                3500-30 ROUND RD                        000N        CARE OF             
MTR09009200001000000000000000RA              71810939    000200330000003300000490000003NN  NNW 000                       N    
RDG09009200WATRL000000005K00000000000010989003401312015123018N000000000000N93       000300500K 10000000010000010354           
CUS0900920000109257448002         HABC                863-81 BETHUNE RD                       000N        CARE OF             
MTR09009200001000000000000000RA              7115330     000300340000003400000640000003NN  NNW 000                       N    
RDG09009200WATRL000000005K00000000000004715003501312015123025N000000000000N93       000070500K 10000000010000004376           
CUS0900920000109257449000         HABC                800-18 BETHUNE RD                       000N        CARE OF             
MTR09009200001000000000000000RA              1276647     000300350000003500000490000003NN  NNW 000                       N    
RDG09009200WATRL000000005K00000000000000000003601312015123035S022000000000N93       000100500K 10000000010000000000           
CUS0900920000109291387000         CHERRYDALE 0459     1100-1210 CHERRY HILL RD                000N        CARE OF             
MTR09009200001000000000000000RA              1314846     000400360000003600000490000003NN  NNW 000                       N    
RDG09009200WATRL000000006K00000000000017118003701312015123045N000000000000N93       000100600K 10000000010000012858           
CUS0900920000109291388008         BALTO.CITY HEALTH DE2490 GILES RD                           000N        CARE OF             
MTR09009200001000000000000000RA              1450816     000300370000003700000490000003NN  NNW 000                       N    
RDG09009200WATRL000000005K00000000000009469003801312015123059N000000000000N93       000140500K 10000000010000009320           
CUS0900920000109291389006         BUR OF CONSTRUCTION 2490 GILES RD                           000N        CARE OF             
MTR09009200001000000000000000RA              9310106     000400380000003800000640000003NY  NNW 000                       N    
MTM090092009310106     ok                                                                                                     
RDG09009200WATRL000000006K00000000000000000003901312015123106N000000000000N93       000070600K 10000000010000000000           
CUS0900920000109397632002         DONNIE BLACKBURN TR 2400 GILES RD                           000N        CARE OF             
MTR09009200001000000000000000RA              29724364    001500390000003900000520000003NN  NNW 000                       N    
RDG09009200WATRL000000005K00000000000002495004001312015123148N000003200000N93       000420500K 10000000010000002465           
CUS0900920000109291391002         DIXIE PULP & PAPER R1401 CHERRY HILL RD                     000N        CARE OF             
MTR09009200001000000000000000RA              32772036    001500400000004000000520000003NN  NNW 000                       N    
RDG09009200WATRL000000005K00000000000006258000102032015121534N000000000000U93       000000500K 10000000010000006245           
CUS0900920000109291390004         DIXIE PULP & PAPER R1401 CHERRY HILL RD                     000N        CARE OF             
MTR09009200001000000000000000RA              2784325     001000410000004100000410000003NN  NNW 000   FIRE SERVICE        N    
RDG09009200WATRL000000007K00000000000000000000202032015121537S005000000000U93       000030700K 10000000010000000551           
CUS0900920000109410499009         HOUSING AUTHORITY OF2700 SPELMAN RD                         000N        CARE OF             
MTR09009200001000000000000000RA              29768554    000200420000004200000520000003NN  NNW 000                       N    
RDG09009200WATRL000000005K00000000000019341004101312015123234N000000000000N93       000460500K 10000000010000019294           
CUS0900920000109410497003         HOUSING AUTHORITY OF2700 SPELMAN RD                         000N        CARE OF             
MTR09009200001000000000000000RA              8031740     000400430000004300000380000003NN  NNW 000   CITY FIRE SERV      N    
RDG09009200WATRL000000006K00000000000000000004201312015123250N000000000000N93       000160600K 10000000010000000000           
CUS0900920000109413152001         CHRIST TEMPLE APOSTO701 CHERRY HILL RD                      000N        CARE OF             
MTR09009200001000000000000000RA              35116879    000200440000004400000520000003NN  NNW 000                       N    
RDG09009200WATRL000000005K00000000000013599004301312015123306N000400000010N93       000160500K 10000000010000013576           
CUS0900920000109291396001         DEPT. OF EDUCATION  801 BRIDGEVIEW RD                       000N        CARE OF             
MTR09009200001000000000000000RA              9103154     000300450000004500000640000003NN  NNW 000                       N    
RDG09009200WATRL000000005K00000000000026381004401312015123337N000000000000N93       000310500K 10000000010000025362           
CUS0900920000109291395003         DEPT. OF EDUCATION  NS ROUNDVIEW RD                         000N        CARE OF             
MTR09009200001000000000000000RA              1228690     000300460000004600000470000003NN  NNW 000                       N    
RDG09009200WATRL000000005K00000000000059696004501312015123443N000000000000N93       000660500K 10000000010000059680           
CUS0900920000109291398007         BUREAU OF BLDG CONST201 REEDBIRD AVE                        000N        CARE OF             
MTR09009200001000000000000000RA              33734100    001500470000004700000520000003NN  NNW 000                       N    
RDG09009200WATRL000000005K00000000000069716004601312015123514N000400000010N93       000310500K 10000000010000069695           
CUS0900920000109374602002         SOUTHWOOD TOWNHOMES,606 REEDBIRD AVE                        000N        CARE OF             
MTR09009200002000000000000000RA              7045964     000800480000004800000630000003NN  NNW 000                       N    
RDG09009200WATAL000000006K00000000000000005004701312015123620N000100000010N93       000660600K 10000000010000000005           
RDG09009200WATBL000000006K00000000000015031004801312015123636N000400000010N93       000160600K 10000000010000014301           
CUS0900920000109291401009         DEPARTMENT OF       135 REEDBIRD AVE                        000N        CARE OF             
MTR09009200002000000000000000RA              2484324     000600490000004900000540000003NY  NNW 000                       N    
MTM090092002484324     ok                                                                                                     
RDG09009200WATAL000000006K00000000000000224004901312015123730N000100000010N93       000540600K 10000000010000000224           
RDG09009200WATBL000000006K00000000000037298005001312015123748N000400000010N93       000180600K 10000000010000037297           
CUS0900920000109429517007         HANOVER DEV ASSOC   18 REEDBIRD AVE                         000N        CARE OF             
MTR09009200001000000000000000RA              99170648    000200500000005000000570000003NN  NNW 000                       N    
RDG09009200WATRL000000005K00000000000002328005101312015123759N000000000000N93       000110500K 10000000010000002289           
CUS0900920000109291402007         WASTE WATER DIV     3404 S HANOVER ST                       000N        CARE OF             
MTR09009200002000000000000000RA              2397691     000400510000005100000540000003NY  NNW 000                       N    
MTM090092002397691     ok                                                                                                     
RDG09009200WATAL000000006K00000000000000000005201312015123947N000000000000N93       001080600K 10000000010000000000           
RDG09009200WATBL000000006K00000000000033397005301312015124006N000100000010N93       000190600K 10000000010000033397           
CUS0900920000109291412006         STEBO PROPERTIES,LLC3401-05 S HANOVER ST                    000N        CARE OF             
MTR09009200001000000000000000RA              46889670    007500520000005200000520000003NN  NNW 000                       N    
RDG09009200WATRL000000004K00000000000006439000302032015121658N000400000010U93       000810400K 10000000010000006376           
CUS0900920000109291411008         STEBO PROPERTIES, LL3401-05 S HANOVER ST                    000N        CARE OF             
MTR09009200001000000000000000RA              1986182     001000530000005300000410000003NN  NNW 000   FIRE SERVICE        N    
RDG09009200WATRL000000007K00000000000000000000402032015121713S005000000000U93       000150700K 10000000010000000170           
CUS0900920000109291414002         FRANMAR PROPERTIES O201 FRANKFURST AVE                      000N        CARE OF             
MTR09009200001000000000000000RA              33731868    007500540000005400000520000003NY  NNW 000                       N    
MTM0900920033731868    ok                                                                                                     
RDG09009200WATRL000000004K00000000000000081000502032015121800N000300000010U93       000470400K 10000000010000000262           
CUS0900920000109291413004         FRANMAR PROPERTIES O201 FRANKFURST AVE                      000N        CARE OF             
MTR09009200002000000000000000RA              1986183     000600550000005500000390000003NN  NNW 000   FIRE SERVICE        N    
RDG09009200WATAL000000006K00000000000000000000602032015121806S005000000000U93       000060600K 10000000010000000001           
RDG09009200WATBL000000006K00000000000000000000702032015121809S005000000000U93       000030600K 10000000010000001357           
CUS0900920000109422956004         RRZ ENTERPRISES, LLC101 W PATAPSCO AVE                      000N        CARE OF             
MTR09009200001000000000000000RA              52293028    000200560000005600000520000003NN  NNW 000                       N    
RDG09009200WATRL000000005K00000000000021475005401312015124033N000000000000N93       000270500K 10000000010000021246           
CUS0900920000109454572000         FAMILY HEALTH       3540 S HANOVER ST                       000N        CARE OF             
MTR09009200001000000000000000RA              90000461    000200570000005700000440000003NN  NNW 000                       N    
RDG09009200WATRL000000005K00000000000000041005501312015124048N000000000000N93       000150500K 10000000010000000034           
CUS0900920000109291403005         FAITH PROPERTIES, LL3610-22 S HANOVER ST                    000N        CARE OF             
MTR09009200001000000000000000RA              42877039    000200580000005800000520000003NN  NNW 000                       N    
RDG09009200WATRL000000005K00000000000008786000101312015135921N000000000000U93       000000500K 10000000010000008565           
CUS0900920000109397491003         ST JOHN'S LUTHERAN C226 WASHBURN AVE                        000N        CARE OF             
MTR09009200001000000000000000RA              99169929    000200590000005900000570000003NN  NNW 000                       N    
RDG09009200WATRL000000005K00000000000004012000201312015135927N000000000000U93       000060500K 10000000010000003878           
CUS0900920000109291404003         BUREAU OF CONSTR. MG316 PONTIAC AVE                         000N        CARE OF             
MTR09009200002000000000000000RA              5705337     000400600000006000000480000003NN  NNW 000                       N    
RDG09009200WATAL000000006K00000000000000036000301312015135935N000100000010U93       000080600K 10000000010000000036           
RDG09009200WATBL000000006K00000000000007071000401312015135949N000400000010U93       000140600K 10000000010000006934           
CUS0900920000109410279005         CHESAPEAKE FOUNDATIO301 E PATAPSCO AVE                      000N        CARE OF             
MTR09009200001000000000000000RA              01105712    000200610000006100000610000003NN  NNW 000                       N    
RDG09009200WATRL000000005K00000000000003539000501312015135955N000000000000U93       000060500K 10000000010000003524           
CUS0900920000109291405000         BUREAU OF EDUCATION 3602 4TH ST                             000N        CARE OF             
MTR09009200002000000000000000RA              5388344     000400620000006200000480000003NN  NNW 000                       N    
RDG09009200WATAL000000006K00000000000000000000601312015140005N000100000010U93       000100600K 10000000010000000000           
RDG09009200WATBL000000006K00000000000000270000701312015140014N000400000010U93       000090600K 10000000010000000147           
CUS0900920000109291406008         CHILDREN'S GUILD INC3811 4TH ST                             000N        CARE OF             
MTR09009200001000000000000000RA              9216212     000400630000006300000630000003NN  NNW 000                       N    
RDG09009200WATRL000000006K00000000000000720000801312015140030N000000000000U93       000160600K 10000000010000000659           
CUS0900920000109291407006         CHILDREN'S GUILD , I3810 5TH ST                             000N        CARE OF             
MTR09009200001000000000000000RA              51476605    000200640000006400000520000003NN  NNW 000                       N    
RDG09009200WATRL000000005K00000000000002893000901312015140035N000000000000U93       000050500K 10000000010000002872           
CUS0900920000109257455007         HABC                4201 6TH ST                             000N        CARE OF             
MTR09009200002000000000000000RA              5003396     000800650000006500000540000003NN  NNW 000                       N    
RDG09009200WATAL000000006K00000000000007822000802032015121859N000100000010U93       000500600K 10000000010000007822           
RDG09009200WATBL000000006K00000000000153566000902032015121919N000400000010U93       000200600K 10000000010000138091           
CUS0900920000109291408004         BUREAU OF RECREATION4545 6TH ST                             000N        CARE OF             
MTR09009200001000000000000000RA              36700197    001500660000006600000520000003NY  NNW 000                       N    
MTM0900920036700197    ok                                                                                                     
RDG09009200WATRL000000005K00000000000010034001001312015140054N000100000010U93       000190500K 10000000010000010034           
CUS0900920000109291409002         BUREAU OF RECREATION4301 10TH ST                            000N        CARE OF             
MTR09009200001000000000000000RA              26553382    000200670000006700000490000003NN  NNW 000                       N    
RDG09009200WATRL000000005K00000000000071643001002032015121947N000400000010U93       000280500K 10000000010000071624           
CUS0900920000109291410000         BUREAU OF EDUCATION 4301 10TH ST                            000N        CARE OF             
MTR09009200002000000000000000RA              4781635     000400680000006800000480000003NN  NNW 000                       N    
RDG09009200WATAL000000006K00000000000000000001102032015122005N000100000010U93       000180600K 10000000010000000000           
RDG09009200WATBL000000006K00000000000000944001202032015122026N000400000010U93       000210600K 10000000010000000898           
CUS0900920000109291427004         1200 EAST PATAPSCO B1200 E PATAPSCO AVE                     000N        CARE OF             
MTR09009200002000000000000000RA              70048516    000400690000006900000560000003NN  NNW 000                       N    
RDG09009200WATAL000000006K00000000000007762001302032015125026N000400000010U93       018000600K 10000000010000007760           
RDG09009200WATBL000000006K00000000000003476001402032015125104N000400000010U93       000380600K 10000000010000003401           
CUS0900920000109291426006         JARVIS STEEL AND LUM1030 E PATAPSCO AVE                     000N        CARE OF             
MTR09009200001000000000000000RA              1450819     000300700000007000000490000003NY  NNW 000                       N    
MTM090092001450819     ok                                                                                                     
RDG09009200WATRL000000005K00000000000003217001502032015125115N000000000000U93       000110500K 10000000010000003217           
CUS0900920000109291417005         1501 BEASON ST LLC  3501 7TH ST                             000N        CARE OF             
MTR09009200002000000000000000RA              1681311     000400710000007100000390000003NN  NNW 000   FIRE SERVICE        N    
RDG09009200WATAL000000006K00000000000000000001602032015125123N000100000010U93       000080600K 10000000010000000000           
RDG09009200WATBL000000006K00000000000000013001702032015125131N000100000010U93       000080600K 10000000010000000013           
CUS0900920000109419264008         1501 BEASON ST LLC  3501 7TH ST                             000N        CARE OF             
MTR09009200001000000000000000RA              14914883    001500720000007200000310000000NN  NNW 000                       N    
RDG09009200WATRL000000005K00000000000006734001802032015125138N000000000000U93       000070500K 10000000010000006370           
CUS0900920000109291415009         BUREAU OF BLDG.CONST430 MAUDE AVE                           000N        CARE OF             
MTR09009200001000000000000000RA              31938345    000200730000007300000520000003NN  NNW 000                       N    
RDG09009200WATRL000000005K00000000000000522001902032015125145N000000000000U93       000070500K 10000000010000000474           
CUS0900920000109291416007         527 CHESAPEAKE, LLC 527 CHESAPEAKE AVE                      000N        CARE OF             
MTR09009200001000000000000000RA              00066860    001500740000007400000570000003NN  NNW 000                       N    
RDG09009200WATRL000000005K00000000000000678002002032015125156N000400000010U93       000110500K 10000000010000000654           
CUS0900920000109405039000         601 CHESAPEAKE AVE  601 CHESAPEAKE AVE                      000N        CARE OF             
MTR09009200001000000000000000RA              44003894    005800750000007500000520000003NN  NNW 000                       N    
RDG09009200WATRL000000004K00000000000009510002102032015125201N000000000000U93       000050400K 10000000010000009500           
CUS0900920000109405037004         601 CHESAPEAKE AVE  601 CHESAPEAKE AVE                      000N        CARE OF             
MTR09009200001000000000000000RA              6029430     001000760000007600000410000003NN  NNW 000   FIRE SERVICE        N    
RDG09009200WATRL000000007K00000000000000114002202032015125206N000000000000U93       000050700K 10000000010000000114           
CUS0900920000109454178006         CSX TRANSPORTATION I700 CHESAPEAKE AVE                      000N        CARE OF             
MTR09009200001000000000000000RA              90000424    000200770000007700000570000003NN  NNW 000                       N    
RDG09009200WATRL000000005K00000000000000079002302032015125212N000000000000U93       000060500K 10000000010000000065           
CUS0900920000109389356008         CSX TRANSPORTATION-6800 CHESAPEAKE AVE                      000N        CARE OF             
MTR09009200002000000000000000RA              7164766     000800780000007800000630000003NY  NNW 000   FIRE SERVICE        N    
MTM090092007164766     buried                                                                                                 
RDG09009200WATAL000000006K00000000000000000000000000000000000 000000000000U         000000600  10000000010000000100           
RDG09009200WATBL000000006K00000000000000000000000000000000000 000000000000U         000000600  10000000010000000406           
CUS0900920000109389358004         CSX TRANS, INC      800 CHESAPEAKE AVE                      000N        CARE OF             
MTR09009200001000000000000000RA              35105142    000200790000007900000520000003NY  NNW 000                       N    
MTM0900920035105142    buried                                                                                                 
RDG09009200WATRL000000005K00000000000000000000000000000000000 000000000000U         000000500  10000000010000000495           
CUS0900920000109291422005         CSX TRANS, INC      NS CHESAPEAKE AVE                       000N        CARE OF             
MTR09009200001000000000000000RA              9601828     000400800000008000000640000003NN  NNW 000                       N    
RDG09009200WATRL000000006K00000000000000700002402032015125252N000000000000U93       000400600K 10000000010000000663           
CUS0900920000109291424001         BALTIC INVESTMENT CO901-29 BALTIC AVE                       000N        CARE OF             
MTR09009200001000000000000000RA              01104989    001500810000008100000610000003NY  NNW 000                       N    
MTM0900920001104989    ok                                                                                                     
RDG09009200WATRL000000005K00000000000002141002502032015125331N000300000010U93       000390500K 10000000010000002314           
CUS0900920000109291423003         BALTIC INVESTMENT CO901-29 BALTIC AVE                       000N        CARE OF             
MTR09009200001000000000000000RA              1784247     000800820000008200000410000003NN  NNW 000   FIRE SERVICE        N    
RDG09009200WATRL000000006K00000000000000000002602032015125335S005000000000U93       000040600K 10000000010000000233           
CUS0900920000109291420009         ANSAM INVESTMENTS, I1026 E PATAPSCO AVE                     000N        CARE OF             
MTR09009200001000000000000000RA              1378863     000200830000008300000490000003NY  NNW 000                       N    
MTM090092001378863     ok                                                                                                     
RDG09009200WATRL000000005K00000000000000410002702032015125420N000300000010U93       000450500K 10000000010000027381           
CUS0900920000109291419001         ANSAM INVESTMENTS, I1026 E PATAPSCO AVE                     000N        CARE OF             
MTR09009200001000000000000000RA              4328798     000800840000008400000410000003NN  NNW 000   FIRE SERVICE        N    
RDG09009200WATRL000000006K00000000000000000002802032015125426S005000000000U93       000060600K 10000000010000000037           
CUS0900920000109432314004         STATE OF MD GEN SVCS700 E PATAPSCO AVE                      000N        CARE OF             
MTR09009200002000000000000000RA              0203194     000800850000008500000630000003NN  NNW 000                       N    
RDG09009200WATAL000000006K00000000000000029002902032015125434N000100000010U93       000080600K 10000000010000000029           
RDG09009200WATBL000000006K00000000000002577003002032015125445N000400000010U93       000110600K 10000000010000002466           
CUS0900920000109291425008         JARVIS STEEL & LUMBE930 CHART AVE                           000N        CARE OF             
MTR09009200001000000000000000RA              7102666     000400860000008600000640000003NN  NNW 000                       N    
RDG09009200WATRL000000006K00000000000002415003102032015125452N000000000000U93       000070600K 10000000010000002376           
CUS0900920000109402103007         DEPT OF EDUCATION   1201 CAMBRIA ST                         000N        CARE OF             
MTR09009200002000000000000000RA              70262660    000300870000008700000460000003NY  NNW 000                       N    
MTM0900920070262660    ert                     ert                                                                            
RDG09009200WATAL000000005K00000000000000000000000000000000000 000000000000U         000000500  10000000010000000080           
RDG09009200WATBL000000005K00000000000000000000000000000000000 000000000000U         000000500  10000000010000000080           
CUS0900920000109402101001         DEPT OF EDUCATION   1201 CAMBRIA ST                         000N        CARE OF             
MTR09009200001000000000000000RA              7234491     000600880000008800000340000003NN  NNW 000   CITY FIRE SERV      N    
RDG09009200WATRL000000006K00000000000000021003202032015125521N000000000000U93       000290600K 10000000010000000021           
RTR09009200NN01050105000001050000000000880088000063NY008800880105000800100000000000000000000001    01272015NY020000 N         
RHD02168000NN02190219000002190000000002190219000199NY021902190219001400030000000000000000000001    01202015NY020000 N         
CUS0216800000102319486003         CUMMINGS, JACQUELINE5826 GREENSPRING AVE                    000N        CARE OF             
MTR02168000001000000000000000RA              41257739    005800010000000100000520000003NY  NNW 000                       N    
MTM0216800041257739    CANTLOC                                                                                                
RDG02168000WATRL000000004K00000000000000000000000000000000000 000000000000U         000000400  10000000010000000774           
CUS0216800000102319487001         RALPH B GALVIN      5824 GREENSPRING AVE                    000N        CARE OF             
MTR02168000001000000000000000RA              41258115    005800020000000200000520000003NY  NNW 000                       N    
MTM0216800041258115    CANTLOC                                                                                                
RDG02168000WATRL000000004K00000000000000000000000000000000000 000000000000U         000000400  10000000010000001607           
CUS0216800000102319488009         TAYLOR, MICHAEL     5822 GREENSPRING AVE                    000N        CARE OF             
MTR02168000001000000000000000RA              78021092    005800030000000300000350000003NN  NNW 000                       N    
RDG02168000WATRL000000004K00000000000000000010302032015135325S001000000000U26       000110400K 10000000010000000009           
CUS0216800000102319489007         KATKOW, ERIC A  (TR)5820 GREENSPRING AVE                    000N        CARE OF             
MTR02168000001000000000000000RA              32574032    005800040000000400000520000003NN  NNW 000                       N    
RDG02168000WATRL000000004K00000000000002226010202032015135314N000000000000U26       003760400K 10000000010000002220           
CUS0216800000102319490005         BUTLER, CHARLENE A  5818 GREENSPRING AVE                    000N        CARE OF             
MTR02168000001000000000000000RA              32899213    005800050000000500000520000003NN  NNW 000                       N    
RDG02168000WATRL000000004K00000000000005412010402032015135405N000000000000U26       000400400K 10000000010000005335           
CUS0216800000102319491003         ROGOWSKY, ANNIE ROMA5816 GREENSPRING AVE                    000N        CARE OF             
MTR02168000001000000000000000RA              01092780    005800060000000600000610000003NN  NNW 000                       N    
RDG02168000WATRL000000004K00000000000004157000102032015092352N000000000000U26       000000400K 10000000010000004135           
CUS0216800000102319492001         NAGLE, CHRISTOPHER C5814 GREENSPRING AVE                    000N        CARE OF             
MTR02168000001000000000000000RA              76345759    005800070000000700000350000003NN  NNW 000                       N    
RDG02168000WATRL000000004K00000000000000000010502032015135416N000000000000U26       000110400K 10000000010000000000           
CUS0216800000102319493009         QUALLS, CLARICE E.  5812 GREENSPRING AVE                    000N        CARE OF             
MTR02168000001000000000000000RA              14918425    007500080000000800000310000003NN  NNW 000                       N    
RDG02168000WATRL000000004K00000000000000717006402032015100725N000000000000U26       000280400K 10000000010000000681           
CUS0216800000102319494007         SABA, WALTER P      2406 ROCKWOOD AVE                       000N        CARE OF             
MTR02168000001000000000000000RA              46876206    005800090000000900000520000003NN  NNW 000                       N    
RDG02168000WATRL000000004K00000000000002362006302032015100657N000000000000U26       000050400K 10000000010000002341           
CUS0216800000102319495004         CANNER, LAWRENCE C  2408 ROCKWOOD AVE                       000N        CARE OF             
MTR02168000001000000000000000RA              24738938    005800100000001000000520000003NN  NNW 000                       N    
RDG02168000WATRL000000004K00000000000002840006002032015100530N000000000000U26       000690400K 10000000010000002829           
CUS0216800000102319496002         POPE, DARRELL S     2410 ROCKWOOD AVE                       000N        CARE OF             
MTR02168000001000000000000000RA              00135832    005800110000001100000570000003NN  NNW 000                       N    
RDG02168000WATRL000000004K00000000000001038005802032015100332N000000000000U26       000340400K 10000000010000001021           
CUS0216800000102319497000         MARVIN I HAAR       2412 ROCKWOOD AVE                       000N        CARE OF             
MTR02168000001000000000000000RA              45383030    005800120000001200000520000003NN  NNW 000                       N    
RDG02168000WATRL000000004K00000000000001541005602032015100231N000000000000U26       000290400K 10000000010000001525           
CUS0216800000102319498008         FELLER, ELIZA H     5811 PIMLICO RD                         000N        CARE OF             
MTR02168000001000000000000000RA              00135765    005800130000001300000570000003NN  NNW 000                       N    
RDG02168000WATRL000000004K00000000000000698005702032015100258N000000000000U26       000270400K 10000000010000000689           
CUS0216800000102319499006         JACOBY, DANIEL D.   2409 ROCKWOOD AVE                       000N        CARE OF             
MTR02168000001000000000000000RA              52288695    005800140000001400000520000003NN  NNW 000                       N    
RDG02168000WATRL000000004K00000000000001256005902032015100421N000000000000U26       000490400K 10000000010000001236           
CUS0216800000102319500001         LEVIN, ROLLIN A     2407 ROCKWOOD AVE                       000N        CARE OF             
MTR02168000001000000000000000RA              52768635    005800150000001500000520000003NN  NNW 000                       N    
RDG02168000WATRL000000004K00000000000005810006102032015100558N000000000000U26       000280400K 10000000010000005801           
CUS0216800000102319501009         LEMMERT, KORY H     2405 ROCKWOOD AVE                       000N        CARE OF             
MTR02168000001000000000000000RA              44086681    005800160000001600000520000003NN  NNW 000                       N    
RDG02168000WATRL000000004K00000000000002111006202032015100652N000000000000U26       000540400K 10000000010000002088           
CUS0216800000102319502007         SELLINGER, KAREN I. 2403 ROCKWOOD AVE                       000N        CARE OF             
MTR02168000001000000000000000RA              27212736    005800170000001700000520000003NN  NNW 000                       N    
RDG02168000WATRL000000004K00000000000004029000202032015092506N000000000000U26       000740400K 10000000010000004016           
CUS0216800000102319503005         HIRSCH, L JONATHAN  5808 GREENSPRING AVE                    000N        CARE OF             
MTR02168000001000000000000000RA              74689571    005800180000001800000350000003NN  NNW 000                       N    
RDG02168000WATRL000000004K00000000000000151000302032015092525N000000000001U26       000190400K 10000000010000000133           
CUS0216800000102319504003         LEVINE, DIANE B.    5806 GREENSPRING AVE                    000N        CARE OF             
MTR02168000001000000000000000RA              41588814    005800190000001900000520000003NN  NNW 000                       N    
RDG02168000WATRL000000004K00000000000003319000402032015092541N000000000000U26       000160400K 10000000010000003286           
CUS0216800000102319505000         DALY, WALTER M      5804 GREENSPRING AVE                    000N        CARE OF             
MTR02168000001000000000000000RA              50480101    005800200000002000000520000003NN  NNW 000                       N    
RDG02168000WATRL000000004K00000000000001635000502032015092614N000000000000U26       000330400K 10000000010000001623           
CUS0216800000102319506008         DALMASY-FROUIN, JOHA5802 GREENSPRING AVE                    000N        CARE OF             
MTR02168000001000000000000000RA              27212767    005800210000002100000520000003NN  NNW 000                       N    
RDG02168000WATRL000000004K00000000000003487000602032015092639N000000000000U26       000250400K 10000000010000003463           
CUS0216800000102319507006         RUSSELL-WOOD, KARSTE5800 GREENSPRING AVE                    000N        CARE OF             
MTR02168000001000000000000000RA              24234392    005800220000002200000520000003NN  NNW 000                       N    
RDG02168000WATRL000000004K00000000000003651008101302015124729N000000000000U26       000210400K 10000000010000003628           
CUS0216800000102319508004         BLAIR, THOMAS ORMOND2406 CREST RD                           000N        CARE OF             
MTR02168000001000000000000000RA              44087535    005800230000002300000520000003NN  NNW 000                       N    
RDG02168000WATRL000000004K00000000000001206008201302015124802N000000000000U26       000330400K 10000000010000001193           
CUS0216800000102319509002         LEMAS, MARIO V.     2410 CREST RD                           000N        CARE OF             
MTR02168000001000000000000000RA              52768738    005800240000002400000520000003NN  NNW 000                       N    
RDG02168000WATRL000000004K00000000000000986008301302015124834N000000000000U26       000320400K 10000000010000000981           
CUS0216800000102319510000         FEATHER, LISA N.    2412 CREST RD                           000N        CARE OF             
MTR02168000001000000000000000RA              41258373    005800250000002500000520000003NN  NNW 000                       N    
RDG02168000WATRL000000004K00000000000002048008401302015124855N000000000000U26       000210400K 10000000010000002038           
CUS0216800000102319511008         EARL O BEGLEY       2414 CREST RD                           000N        CARE OF             
MTR02168000001000000000000000RA              45382378    005800260000002600000520000003NN  NNW 000                       N    
RDG02168000WATRL000000004K00000000000002697008501302015124915N000000000000U26       000200400K 10000000010000002685           
CUS0216800000102319512006         HARTMAN, MICAH      2416 CREST RD                           000N        CARE OF             
MTR02168000001000000000000000RA              33077114    005800270000002700000520000003NN  NNW 000                       N    
RDG02168000WATRL000000004K00000000000002224008601302015124935N000000000000U26       000200400K 10000000010000002193           
CUS0216800000102319513004         COLBERT, DOUGLAS L. 2508 CREST RD                           000N        CARE OF             
MTR02168000001000000000000000RA              30001307    007500280000002800000570000003NN  NNW 000                       N    
RDG02168000WATRL000000004K00000000000000200005502032015100202N000300000010U26       000990400K 10000000010000000176           
CUS0216800000102319514002         LANSMAN, DONNAS (TR)5801 PIMLICO RD                         000N        CARE OF             
MTR02168000001000000000000000RA              29686470    005800290000002900000520000003NN  NNW 000                       N    
RDG02168000WATRL000000004K00000000000001697008701302015125005N000000000000U26       000300400K 10000000010000001687           
CUS0216800000102319515009         RAY, RALPH          5803 PIMLICO RD                         000N        CARE OF             
MTR02168000001000000000000000RA              41257745    005800300000003000000520000003NN  NNW 000                       N    
RDG02168000WATRL000000004K00000000000001500005202032015095910N000000000000U26       000500400K 10000000010000001489           
CUS0216800000102319516007         CLEMENS, FRED       5805 PIMLICO RD                         000N        CARE OF             
MTR02168000001000000000000000RA              52286504    005800310000003100000520000003NN  NNW 000                       N    
RDG02168000WATRL000000004K00000000000000982005302032015100018N000000000000U26       000680400K 10000000010000000960           
CUS0216800000102319517005         SUTTON III, JOSEPH H5807 PIMLICO RD                         000N        CARE OF             
MTR02168000001000000000000000RA              52286505    005800320000003200000520000003NN  NNW 000                       N    
RDG02168000WATRL000000004K00000000000001361005402032015100023N000000000000U26       000050400K 10000000010000001330           
CUS0216800000102319518003         MILLER-PHOENIX, SCOT5721 PIMLICO RD                         000N        CARE OF             
MTR02168000001000000000000000RA              27678277    007500330000003300000520000003NN  NNW 000                       N    
RDG02168000WATRL000000004K00000000000002541004602032015095558N000000000000U26       000880400K 10000000010000002486           
CUS0216800000102319519001         GERALD BERNSTEEN    5723 PIMLICO RD                         000N        CARE OF             
MTR02168000001000000000000000RA              14927200    005800340000003400000310000003NN  NNW 000                       N    
RDG02168000WATRL000000004K00000000000000000000000000000000000 000000000000U         000000400  10000000010000000362           
CUS0216800000102319520009         KERR, MAUREEN       5725 PIMLICO RD                         000N        CARE OF             
MTR02168000001000000000000000RA              14927205    005800350000003500000310000003NN  NNW 000                       N    
RDG02168000WATRL000000004K00000000000000430004702032015095631N000000000000U26       000330400K 10000000010000000414           
CUS0216800000102319521007         JOYNER, JOZETTE NICO5727 PIMLICO RD                         000N        CARE OF             
MTR02168000001000000000000000RA              41257730    005800360000003600000520000003NN  NNW 000                       N    
RDG02168000WATRL000000004K00000000000002752004802032015095707N000000000010U26       000360400K 10000000010000002751           
CUS0216800000102319522005         5729 PIMLICO RD, LLC5729 PIMLICO RD                         000N        CARE OF             
MTR02168000001000000000000000RA              44173889    005800370000003700000520000003NN  NNW 000                       N    
RDG02168000WATRL000000004K00000000000001218004902032015095720N000000000010U26       000130400K 10000000010000001192           
CUS0216800000102319523003         WADDELL, LORRIANE F 5731 PIMLICO RD                         000N        CARE OF             
MTR02168000001000000000000000RA              00135767    005800380000003800000570000003NN  NNW 000                       N    
RDG02168000WATRL000000004K00000000000000814005002032015095747N000000000000U26       000270400K 10000000010000000803           
CUS0216800000102319524001         COHEN, MARC C.      5733 PIMLICO RD                         000N        CARE OF             
MTR02168000001000000000000000RA              41590290    005800390000003900000520000003NN  NNW 000                       N    
RDG02168000WATRL000000004K00000000000002670005102032015095820N000000000000U26       000330400K 10000000010000002658           
CUS0216800000102319525008         JACKSON, AVON P     5735 PIMLICO RD                         000N        CARE OF             
MTR02168000001000000000000000RA              52286502    005800400000004000000520000003NN  NNW 000                       N    
RDG02168000WATRL000000004K00000000000001071007401302015124434N000000000000U26       001950400K 10000000010000001066           
CUS0216800000102319526006         ABEL, ROBERT J.     2417 CREST RD                           000N        CARE OF             
MTR02168000001000000000000000RA              33077119    005800410000004100000520000003NN  NNW 000                       N    
RDG02168000WATRL000000004K00000000000001479007501302015124456N000000000000U26       000220400K 10000000010000001462           
CUS0216800000102319527004         SHILKOFSKI, NICOLE A2415 CREST RD                           000N        CARE OF             
MTR02168000001000000000000000RA              29680820    005800420000004200000520000003NN  NNW 000                       N    
RDG02168000WATRL000000004K00000000000002055007601302015124533N000000000020U26       000370400K 10000000010000002054           
CUS0216800000102319528002         RODRIGUEZ, CARLOS E.2413 CREST RD                           000N        CARE OF             
MTR02168000001000000000000000RA              01110250    005800430000004300000610000003NN  NNW 000                       N    
RDG02168000WATRL000000004K00000000000000672007701302015124551N000000000000U26       000180400K 10000000010000000654           
CUS0216800000102319529000         FRAGELLI, MARIANA A 2411 CREST RD                           000N        CARE OF             
MTR02168000001000000000000000RA              10004245    005800440000004400000570000003NN  NNW 000                       N    
RDG02168000WATRL000000004K00000000000000171007801302015124609N000000000000U26       000180400K 10000000010000000166           
CUS0216800000102319530008         SMITH, MARIAN P.    2409 CREST RD                           000N        CARE OF             
MTR02168000001000000000000000RA              10004244    005800450000004500000570000003NN  NNW 000                       N    
RDG02168000WATRL000000004K00000000000000314007901302015124636N000000000000U26       000270400K 10000000010000000300           
CUS0216800000102319531006         MT WASHINGTON HOMES 2401 CREST RD                           000N        CARE OF             
MTR02168000001000000000000000RA              32902917    005800460000004600000520000003NN  NNW 000                       N    
RDG02168000WATRL000000004K00000000000002424008001302015124708N000000000000U26       000320400K 10000000010000002410           
CUS0216800000102319532004         CERNIK, JENNIFER    5738 GREENSPRING AVE                    000N        CARE OF             
MTR02168000001000000000000000RA              14917673    005800470000004700000310000003NN  NNW 000                       N    
RDG02168000WATRL000000004K00000000000000900000702032015092800N000000000001U26       000060400K 10000000010000000809           
CUS0216800000102319533002         KLEIN, KELLIE L.    5736 GREENSPRING AVE                    000N        CARE OF             
MTR02168000001000000000000000RA              14917677    005800480000004800000310000003NN  NNW 000                       N    
RDG02168000WATRL000000004K00000000000000345000802032015092801N000000000000U26       000010400K 10000000010000000331           
CUS0216800000102319534000         GREENAN, BRIAN J    5734 GREENSPRING AVE                    000N        CARE OF             
MTR02168000001000000000000000RA              24224621    005800490000004900000520000003NN  NNW 000                       N    
RDG02168000WATRL000000004K00000000000002829000902032015092844N000000000000U26       000430400K 10000000010000002809           
CUS0216800000102319535007         MELVIN S WACHS      5732 GREENSPRING AVE                    000N        CARE OF             
MTR02168000001000000000000000RA              48588135    005800500000005000000520000003NN  NNW 000                       N    
RDG02168000WATRL000000004K00000000000001301001002032015092846N000000000000U26       000020400K 10000000010000001294           
CUS0216800000102319536005         HERMANDEZ-OCHOA, ERI5730 GREENSPRING AVE                    000N        CARE OF             
MTR02168000001000000000000000RA              14930250    005800510000005100000310000003NN  NNW 000                       N    
RDG02168000WATRL000000004K00000000000000321001102032015092913N000000000000U26       000270400K 10000000010000000297           
CUS0216800000102319537003         MORIMOTO, MIHARU    5728 GREENSPRING AVE                    000N        CARE OF             
MTR02168000001000000000000000RA              44176439    005800520000005200000520000003NN  NNW 000                       N    
RDG02168000WATRL000000004K00000000000001649001202032015092915N000000000000U26       000020400K 10000000010000001636           
CUS0216800000102319538001         ATHAS JR., GEORGE   5726 GREENSPRING AVE                    000N        CARE OF             
MTR02168000001000000000000000RA              31937216    007500530000005300000520000003NN  NNW 000                       N    
RDG02168000WATRL000000004K00000000000002904001302032015093056N000000000000U26       001010400K 10000000010000002879           
CUS0216800000102319539009         LEAGUE III, FRANCIS 5724 GREENSPRING AVE                    000N        CARE OF             
MTR02168000001000000000000000RA              41588655    005800540000005400000520000003NN  NNW 000                       N    
RDG02168000WATRL000000004K00000000000001516001402032015093115N000000000000U26       000190400K 10000000010000001499           
CUS0216800000102319540007         DAVID A KINNE       5718-20 GREENSPRING AVE                 000N        CARE OF             
MTR02168000001000000000000000RA              00135836    005800550000005500000570000003NY  NNW 000                       N    
MTM0216800000135836    ICE                                                                                                    
RDG02168000WATRL000000004K00000000000000000000000000000000000 000000000000U         000000400  10000000010000001654           
CUS0216800000102319541005         ANN L MARTIN        5714 GREENSPRING AVE                    000N        CARE OF             
MTR02168000001000000000000000RA              00135833    005800560000005600000570000003NN  NNW 000                       N    
RDG02168000WATRL000000004K00000000000000589001502032015093229N000000000000U26       000740400K 10000000010000000579           
CUS0216800000102319542003         NEMERSON, DAVID M.  5712 GREENSPRING AVE                    000N        CARE OF             
MTR02168000001000000000000000RA              75614395    005800570000005700000350000003NN  NNW 000                       N    
RDG02168000WATRL000000004K00000000000000088001602032015093302N000000000000U26       000330400K 10000000010000000073           
CUS0216800000102319543001         CAREY, LILIA T      5710 GREENSPRING AVE                    000N        CARE OF             
MTR02168000001000000000000000RA              36695000    005800580000005800000520000003NN  NNW 000                       N    
RDG02168000WATRL000000004K00000000000001766001702032015093347N000000000000U26       000450400K 10000000010000001758           
CUS0216800000102319544009         DHRUV, MARK I.      5708 GREENSPRING AVE                    000N        CARE OF             
MTR02168000001000000000000000RA              41588826    005800590000005900000520000003NN  NNW 000                       N    
RDG02168000WATRL000000004K00000000000001005001802032015093417N000000000000U26       000300400K 10000000010000000987           
CUS0216800000102319545006         DOTY, LEE W         5706 GREENSPRING AVE                    000N        CARE OF             
MTR02168000001000000000000000RA              30525358    005800600000006000000520000003NY  NNW 000                       N    
MTM0216800030525358    ICE                                                                                                    
RDG02168000WATRL000000004K00000000000000000000000000000000000 000000000000U         000000400  10000000010000001878           
CUS0216800000102319546004         WILLIAMS, STACEY    2400 BRAMBLETON RD                      000N        CARE OF             
MTR02168000001000000000000000RA              35119141    005800610000006100000520000003NN  NNW 000                       N    
RDG02168000WATRL000000004K00000000000002914001902032015093542N000000000000U26       000850400K 10000000010000002892           
CUS0216800000102319547002         SHERMAN, NATALIE B  2402 BRAMBLETON RD                      000N        CARE OF             
MTR02168000001000000000000000RA              36697331    005800620000006200000520000003NN  NNW 000                       N    
RDG02168000WATRL000000004K00000000000002220002002032015093601N000000000000U26       000190400K 10000000010000002188           
CUS0216800000102319548000         CYR, BRIAN R.       2404 BRAMBLETON RD                      000N        CARE OF             
MTR02168000001000000000000000RA              27826121    005800630000006300000520000003NN  NNW 000                       N    
RDG02168000WATRL000000004K00000000000002831002102032015093644N000000000000U26       000430400K 10000000010000002802           
CUS0216800000102319549008         PITTMAN, NATHANIEL H2406 BRAMBLETON RD                      000N        CARE OF             
MTR02168000001000000000000000RA              36697304    005800640000006400000520000003NN  NNW 000                       N    
RDG02168000WATRL000000004K00000000000002691002202032015093707N000000000000U26       000230400K 10000000010000002679           
CUS0216800000102319550006         BAKER, CHARLES J.   2408 BRAMBLETON RD                      000N        CARE OF             
MTR02168000001000000000000000RA              31582061    005800650000006500000520000003NN  NNW 000                       N    
RDG02168000WATRL000000004K00000000000002141002302032015093737N000300000010U26       000300400K 10000000010000002125           
CUS0216800000102319551004         BEN-DAVID, AVISHAI  2410 BRAMBLETON RD                      000N        CARE OF             
MTR02168000001000000000000000RA              36697305    005800660000006600000520000003NN  NNW 000                       N    
RDG02168000WATRL000000004K00000000000001177002402032015093808N000000000000U26       000310400K 10000000010000001166           
CUS0216800000102319552002         CLOUGH, CLINTON P   2412 BRAMBLETON RD                      000N        CARE OF             
MTR02168000001000000000000000RA              27829088    005800670000006700000520000003NN  NNW 000                       N    
RDG02168000WATRL000000004K00000000000004739002502032015094055N000000000000U26       001670400K 10000000010000004715           
CUS0216800000102319553000         D'ANDREA, BERNARD GU2414 BRAMBLETON RD                      000N        CARE OF             
MTR02168000001000000000000000RA              30516582    005800680000006800000520000003NN  NNW 000                       N    
RDG02168000WATRL000000004K00000000000003756002602032015094142N000300000010U26       000470400K 10000000010000003662           
CUS0216800000102319554008         GARVEY, MATTHEW J.  5701 ROCKSPRING RD                      000N        CARE OF             
MTR02168000001000000000000000RA              54351769    005800690000006900000520000003NN  NNW 000                       N    
RDG02168000WATRL000000004K00000000000000784008802032015133746N000000000000U26       002180400K 10000000010000000772           
CUS0216800000102319555005         THWEATT, VIVIEN M.  5703 ROCKSPRING RD                      000N        CARE OF             
MTR02168000001000000000000000RA              77989536    005800700000007000000350000003NY  NNW 000                       N    
MTM0216800077989536    AMI                                                                                                    
RDG02168000WATRL000000004K00000000000000000008902032015133805S001000000000U26       000190400K 10000000010000000000           
CUS0216800000102319556003         GALANTE, DANIEL     5705 ROCKSPRING RD                      000N        CARE OF             
MTR02168000001000000000000000RA              52769278    005800710000007100000520000003NN  NNW 000                       N    
RDG02168000WATRL000000004K00000000000004578009002032015133847N000300000010U26       000420400K 10000000010000004550           
CUS0216800000102319557001         HENDERSON, MARY A   5707 ROCKSPRING RD                      000N        CARE OF             
MTR02168000001000000000000000RA              52768702    005800720000007200000520000003NN  NNW 000                       N    
RDG02168000WATRL000000004K00000000000001321009202032015133945N000000000010U26       000200400K 10000000010000001300           
CUS0216800000102319558009         SMITH SR., JAMES R. 5709 ROCKSPRING RD                      000N        CARE OF             
MTR02168000001000000000000000RA              24223201    005800730000007300000520000003NN  NNW 000                       N    
RDG02168000WATRL000000004K00000000000004697009102032015133925N000000000000U26       000380400K 10000000010000004666           
CUS0216800000102319559007         COHEN, DANIEL W     5711 ROCKSPRING RD                      000N        CARE OF             
MTR02168000001000000000000000RA              32900109    005800740000007400000520000003NN  NNW 000                       N    
RDG02168000WATRL000000004K00000000000002773009302032015134024N000000000000U26       000390400K 10000000010000002747           
CUS0216800000102319560005         EITAN, EREZ         5713 ROCKSPRING RD                      000N        CARE OF             
MTR02168000001000000000000000RA              30521904    005800750000007500000520000003NN  NNW 000                       N    
RDG02168000WATRL000000004K00000000000001690009101302015125355N000000000000U26       000270400K 10000000010000001659           
CUS0216800000102319561003         OATHER M JONES JR   5715 ROCKSPRING RD                      000N        CARE OF             
MTR02168000001000000000000000RA              30521903    005800760000007600000520000003NN  NNW 000                       N    
RDG02168000WATRL000000004K00000000000002842009201302015125357N000000000000U26       000020400K 10000000010000002829           
CUS0216800000102319562001         HERBERT JOHN G      5717 ROCKSPRING RD                      000N        CARE OF             
MTR02168000001000000000000000RA              14911488    005800770000007700000310000003NN  NNW 000                       N    
RDG02168000WATRL000000004K00000000000000815009301302015125419N000300000010U26       000220400K 10000000010000000718           
CUS0216800000102319563009         SPECHT, MATTHEW W.  5719 ROCKSPRING RD                      000N        CARE OF             
MTR02168000001000000000000000RA              14911487    005800780000007800000310000003NN  NNW 000                       N    
RDG02168000WATRL000000004K00000000000000691009401302015125421N000000000000U26       000020400K 10000000010000000669           
CUS0216800000102319564007         LEVY, STANLEY       5731 ROCKSPRING RD                      000N        CARE OF             
MTR02168000001000000000000000RA              30515325    005800790000007900000520000003NN  NNW 000                       N    
RDG02168000WATRL000000004K00000000000002425009501302015125433N000000000000U26       000120400K 10000000010000002405           
CUS0216800000102319565004         OWENS, AMANDA C.    5733 ROCKSPRING RD                      000N        CARE OF             
MTR02168000001000000000000000RA              32178501    005800800000008000000520000003NN  NNW 000                       N    
RDG02168000WATRL000000004K00000000000002233009601302015125446N000000000000U26       000130400K 10000000010000002225           
CUS0216800000102319566002         REID, ALPHONSO      5735 ROCKSPRING RD                      000N        CARE OF             
MTR02168000001000000000000000RA              23053101    005800810000008100000520000003NN  NNW 000                       N    
RDG02168000WATRL000000004K00000000000002234009701302015125458N000000000000U26       000120400K 10000000010000002226           
CUS0216800000102319567000         MORAN, DEREK K.     5737 ROCKSPRING RD                      000N        CARE OF             
MTR02168000001000000000000000RA              01092715    005800820000008200000610000003NN  NNW 000                       N    
RDG02168000WATRL000000004K00000000000000684009801302015125506N000000000000U26       000080400K 10000000010000000662           
CUS0216800000102319568008         ARONIN, RONNIE L    5739 ROCKSPRING RD                      000N        CARE OF             
MTR02168000001000000000000000RA              10016335    005800830000008300000570000003NN  NNW 000                       N    
RDG02168000WATRL000000004K00000000000000139009901302015125515N000000000000U26       000090400K 10000000010000000130           
CUS0216800000102319569006         FRITZ, TIMOTHY      5724 ROCKSPRING RD                      000N        CARE OF             
MTR02168000001000000000000000RA              44086800    005800840000008400000520000003NN  NNW 000                       N    
RDG02168000WATRL000000004K00000000000002491010001302015125531N000000000000U26       000160400K 10000000010000002466           
CUS0216800000102319570004         LEWIS, KIMBERLY     5722 ROCKSPRING RD                      000N        CARE OF             
MTR02168000001000000000000000RA              27833424    005800850000008500000520000003NN  NNW 000                       N    
RDG02168000WATRL000000004K00000000000001184010101302015125554N000000000000U26       000230400K 10000000010000001177           
CUS0216800000102319571002         NICHOLAS, JEAN E.   5720 ROCKSPRING RD                      000N        CARE OF             
MTR02168000001000000000000000RA              41259627    005800860000008600000520000003NN  NNW 000                       N    
RDG02168000WATRL000000004K00000000000002327008801302015125259N000000000000U26       001740400K 10000000010000002315           
CUS0216800000102319572000         THOMAS, CHARLENE A. 5718 ROCKSPRING RD                      000N        CARE OF             
MTR02168000001000000000000000RA              99388081    005800870000008700000570000003NN  NNW 000                       N    
RDG02168000WATRL000000004K00000000000001556008901302015125324N000000000000U26       000250400K 10000000010000001523           
CUS0216800000102319573008         ST. AMBROSE LIMITED 5716 ROCKSPRING RD                      000N        CARE OF             
MTR02168000001000000000000000RA              44086774    005800880000008800000520000003NN  NNW 000                       N    
RDG02168000WATRL000000004K00000000000001742009001302015125328N000000000000U26       000040400K 10000000010000001712           
CUS0216800000102319574006         PALEVSKY, JONATHAN  5712 ROCKSPRING RD                      000N        CARE OF             
MTR02168000001000000000000000RA              52286875    005800890000008900000520000003NY  NNW 000                       N    
MTM0216800052286875    CLEANOUT                                                                                               
RDG02168000WATRL000000004K00000000000000000000000000000000000 000000000000U         000000400  10000000010000001611           
CUS0216800000102319575003         DEMETRIOU, IAN      5710 ROCKSPRING RD                      000N        CARE OF             
MTR02168000001000000000000000RA              25782736    005800900000009000000520000003NY  NNW 000                       N    
MTM0216800025782736    CLEANOUT                                                                                               
RDG02168000WATRL000000004K00000000000000000000000000000000000 000000000000U         000000400  10000000010000003628           
CUS0216800000102319576001         GLASS, SUSAN E      5708 ROCKSPRING RD                      000N        CARE OF             
MTR02168000001000000000000000RA              00135766    005800910000009100000570000003NN  NNW 000                       N    
RDG02168000WATRL000000004K00000000000001164009402032015134213N000000000000U26       001090400K 10000000010000001151           
CUS0216800000102319577009         NUTH, MARK V        5706 ROCKSPRING RD                      000N        CARE OF             
MTR02168000001000000000000000RA              14919883    005800920000009200000310000003NN  NNW 000                       N    
RDG02168000WATRL000000004K00000000000000625009502032015134249N000000000000U26       000360400K 10000000010000000611           
CUS0216800000102319578007         R MILLER            2402 BRIARWOOD RD                       000N        CARE OF             
MTR02168000001000000000000000RA              30525284    005800930000009300000520000003NN  NNW 000                       N    
RDG02168000WATRL000000004K00000000000001791006001302015123436N000000000000U26       024500400K 10000000010000001780           
CUS0216800000102319579005         FLORENCE GREENBERG  2404 BRIARWOOD RD                       000N        CARE OF             
MTR02168000001000000000000000RA              01084994    005800940000009400000610000003NN  NNW 000                       N    
RDG02168000WATRL000000004K00000000000000828006101302015123457N000000000000U26       000210400K 10000000010000000816           
CUS0216800000102319580003         BRITTON, HEATHER L  2406 BRIARWOOD RD                       000N        CARE OF             
MTR02168000001000000000000000RA              01084996    005800950000009500000610000003NN  NNW 000                       N    
RDG02168000WATRL000000004K00000000000000973006201302015123517N000000000000U26       000200400K 10000000010000000953           
CUS0216800000102319581001         H D &L, LLC         2408 BRIARWOOD RD                       000N        CARE OF             
MTR02168000001000000000000000RA              48595070    005800960000009600000520000003NN  NNW 000                       N    
RDG02168000WATRL000000004K00000000000001217006301302015123552N000000000000U26       000350400K 10000000010000001204           
CUS0216800000102319582009         PIERCE, JOHN D.     2410 BRIARWOOD RD                       000N        CARE OF             
MTR02168000001000000000000000RA              01084051    005800970000009700000610000003NN  NNW 000                       N    
RDG02168000WATRL000000004K00000000000001535006401302015123612N000000000000U26       000200400K 10000000010000001527           
CUS0216800000102319583007         HEGARTY, BRENDA     2412 BRIARWOOD RD                       000N        CARE OF             
MTR02168000001000000000000000RA              45385291    005800980000009800000520000003NN  NNW 000                       N    
RDG02168000WATRL000000004K00000000000000764006501302015123630N000000000000U26       000180400K 10000000010000000751           
CUS0216800000102319584005         REYNOLDS, DAVID P   2416 BRIARWOOD RD                       000N        CARE OF             
MTR02168000001000000000000000RA              9687321     005800990000009900000570000003NN  NNW 000                       N    
RDG02168000WATRL000000004K00000000000004023006601302015123651N000000000000U26       000210400K 10000000010000004010           
CUS0216800000102319585002         GRAFF-FLANIGAN, JANI2418 BRIARWOOD RD                       000N        CARE OF             
MTR02168000001000000000000000RA              29084283    005801000000010000000520000003NN  NNW 000                       N    
RDG02168000WATRL000000004K00000000000002496006701302015123720N000000000000U26       000290400K 10000000010000002488           
CUS0216800000102319586000         MACKO, JAMES C      2422 BRIARWOOD RD                       000N        CARE OF             
MTR02168000001000000000000000RA              26007452    005801010000010100000520000003NN  NNW 000                       N    
RDG02168000WATRL000000004K00000000000003131004502032015095430N000000000000U26       000700400K 10000000010000003122           
CUS0216800000102319587008         LEIGHT, CLAUDIA R   2419 BRIARWOOD RD                       000N        CARE OF             
MTR02168000001000000000000000RA              52290209    005801020000010200000520000003NN  NNW 000                       N    
RDG02168000WATRL000000004K00000000000000579006801302015123755N000000000000U26       000350400K 10000000010000000579           
CUS0216800000102319588006         PINCUS, FRED L      2417 BRIARWOOD RD                       000N        CARE OF             
MTR02168000001000000000000000RA              76345038    005801030000010300000350000003NN  NNW 000                       N    
RDG02168000WATRL000000004K00000000000000046006901302015123858N000000000000U26       000630400K 10000000010000000017           
CUS0216800000102319589004         RADCLIFFE, JOHN D   2415 BRIARWOOD RD                       000N        CARE OF             
MTR02168000001000000000000000RA              00133370    005801040000010400000570000003NN  NNW 000                       N    
RDG02168000WATRL000000004K00000000000001625007001302015123928N000000000000U26       000300400K 10000000010000001601           
CUS0216800000102319590002         PATRICIA GOLDBERG GI2413 BRIARWOOD RD                       000N        CARE OF             
MTR02168000001000000000000000RA              44086691    005801050000010500000520000003NN  NNW 000                       N    
RDG02168000WATRL000000004K00000000000001525007101302015124010N000000000000U26       000420400K 10000000010000001506           
CUS0216800000102319591000         STRAND, STRATTON C  2411 BRIARWOOD RD                       000N        CARE OF             
MTR02168000001000000000000000RA              24772721    005801060000010600000520000003NN  NNW 000                       N    
RDG02168000WATRL000000004K00000000000002891007201302015124038N000000000000U26       000280400K 10000000010000002869           
CUS0216800000102319592008         SETLOW, MICHAEL     2409 BRIARWOOD RD                       000N        CARE OF             
MTR02168000001000000000000000RA              11426999    005801070000010700000570000003NN  NNW 000                       N    
RDG02168000WATRL000000004K00000000000005443007301302015124119N000000000000U26       000410400K 10000000010000005430           
CUS0216800000102319593006         PFOUTZ, MARY K M    2401 BRIARWOOD RD                       000N        CARE OF             
MTR02168000001000000000000000RA              14928600    005801080000010800000310000003NN  NNW 000                       N    
RDG02168000WATRL000000004K00000000000000247009602032015134337N000000000000U26       000480400K 10000000010000000227           
CUS0216800000102319594004         CORCORAN, THOMAS L. 5702 ROCKSPRING RD                      000N        CARE OF             
MTR02168000001000000000000000RA              32898275    005801090000010900000520000003NN  NNW 000                       N    
RDG02168000WATRL000000004K00000000000002186009702032015134423N000000000000U26       000460400K 10000000010000002170           
CUS0216800000102319595001         SHAFER, DAWNMARIE   5700 ROCKSPRING RD                      000N        CARE OF             
MTR02168000001000000000000000RA              00133209    005801100000011000000570000003NN  NNW 000                       N    
RDG02168000WATRL000000004K00000000000000565002702032015094240N000000000000U26       000580400K 10000000010000000546           
CUS0216800000102319596009         HOPKINS, ELIZABETH  2416 BRAMBLETON RD                      000N        CARE OF             
MTR02168000001000000000000000RA              23647669    005801110000011100000520000003NN  NNW 000                       N    
RDG02168000WATRL000000004K00000000000003360002802032015094359N000000000011U26       000790400K 10000000010000003352           
CUS0216800000102319597007         DUFFY, WILLIAM F    2418 BRAMBLETON RD                      000N        CARE OF             
MTR02168000001000000000000000RA              36697314    005801120000011200000520000003NN  NNW 000                       N    
RDG02168000WATRL000000004K00000000000001848002902032015094446N000000000000U26       000470400K 10000000010000001835           
CUS0216800000102319598005         RYON, CHRISTOPHER R 2420 BRAMBLETON RD                      000N        CARE OF             
MTR02168000001000000000000000RA              36697315    005801130000011300000520000003NN  NNW 000                       N    
RDG02168000WATRL000000004K00000000000002180003002032015094524N000000000000U26       000380400K 10000000010000002154           
CUS0216800000102319599003         MACKIN, KIRSTEN J.  2422 BRAMBLETON RD                      000N        CARE OF             
MTR02168000001000000000000000RA              35110388    005801140000011400000520000003NY  NNW 000                       N    
MTM0216800035110388    FOG                                                                                                    
RDG02168000WATRL000000004K00000000000002280003102032015094606N000000000000U26       000420400K 10000000010000002253           
CUS0216800000102319600009         JACOBS, LOUIS H     2424 BRAMBLETON RD                      000N        CARE OF             
MTR02168000001000000000000000RA              36698464    005801150000011500000520000003NN  NNW 000                       N    
RDG02168000WATRL000000004K00000000000002548003202032015094717N000000000000U26       000710400K 10000000010000002534           
CUS0216800000102319601007         SCHROEDER, FREDERICK2426 BRAMBLETON RD                      000N        CARE OF             
MTR02168000001000000000000000RA              36697319    005801160000011600000520000003NN  NNW 000                       N    
RDG02168000WATRL000000004K00000000000002315003302032015094749N000000000000U26       000320400K 10000000010000002298           
CUS0216800000102319602005         ELDERSLIE METHODIST 2428 BRAMBLETON RD                      000N        CARE OF             
MTR02168000001000000000000000RA              27815390    005801170000011700000520000003NN  NNW 000                       N    
RDG02168000WATRL000000004K00000000000002841003402032015094830N000000000000U26       000410400K 10000000010000002832           
CUS0216800000102319603003         FRANK, RUSSELL      2430 BRAMBLETON RD                      000N        CARE OF             
MTR02168000001000000000000000RA              36697316    005801180000011800000520000003NN  NNW 000                       N    
RDG02168000WATRL000000004K00000000000002369003502032015094849N000000000000U26       000190400K 10000000010000002358           
CUS0216800000102319604001         KRIEGSHEIM, MAUREEM 2432 BRAMBLETON RD                      000N        CARE OF             
MTR02168000001000000000000000RA              36697293    005801190000011900000520000003NN  NNW 000                       N    
RDG02168000WATRL000000004K00000000000001984003602032015094910N000000000000U26       000210400K 10000000010000001978           
CUS0216800000102319605008         BROWN, ROBERT W.    2434 BRAMBLETON RD                      000N        CARE OF             
MTR02168000001000000000000000RA              36697291    005801200000012000000520000003NN  NNW 000                       N    
RDG02168000WATRL000000004K00000000000001702003702032015094940N000000000000U26       000300400K 10000000010000001702           
CUS0216800000102319606006         RUDO, ROCHELLE A    2436 BRAMBLETON RD                      000N        CARE OF             
MTR02168000001000000000000000RA              36697294    005801210000012100000520000003NN  NNW 000                       N    
RDG02168000WATRL000000004K00000000000001911003802032015095004N000000000000U26       000240400K 10000000010000001901           
CUS0216800000102319607004         PARK WASHINGTON APT 2433 BRAMBLETON RD                      000N        CARE OF             
MTR02168000001000000000000000RA              29069490    007501220000012200000520000003NN  NNW 000                       N    
RDG02168000WATRL000000004K00000000000000949003902032015095032N000000000000U26       000280400K 10000000010000000763           
CUS0216800000102319608002         BROOKS MANAGEMENT CO2435 BRAMBLETON RD                      000N        CARE OF             
MTR02168000001000000000000000RA              00118428    007501230000012300000570000003NN  NNW 000                       N    
RDG02168000WATRL000000004K00000000000003411009802032015134621N000000000001U26       001180400K 10000000010000003366           
CUS0216800000102319609000         MOSELEY, QUENTIN B. 5701 PIMLICO RD                         000N        CARE OF             
MTR02168000001000000000000000RA              41257748    005801240000012400000520000003NN  NNW 000                       N    
RDG02168000WATRL000000004K00000000000001428004002032015095126N000000000000U26       000540400K 10000000010000001415           
CUS0216800000102319610008         HANKE, WILLIAM K    5703 PIMLICO RD                         000N        CARE OF             
MTR02168000001000000000000000RA              41257714    005801250000012500000520000003NN  NNW 000                       N    
RDG02168000WATRL000000004K00000000000002620004102032015095204N000000000000U26       000380400K 10000000010000002605           
CUS0216800000102319611006         LOVIGLIO, JASON     5705 PIMLICO RD                         000N        CARE OF             
MTR02168000001000000000000000RA              45379379    005801260000012600000520000003NN  NNW 000                       N    
RDG02168000WATRL000000004K00000000000001188004202032015095239N000000000010U26       000350400K 10000000010000001175           
CUS0216800000102319612004         MARY L SKOGLUND     5707 PIMLICO RD                         000N        CARE OF             
MTR02168000001000000000000000RA              23053119    005801270000012700000520000003NN  NNW 000                       N    
RDG02168000WATRL000000004K00000000000002472004302032015134634N000000000001U26       000130400K 10000000010000002472           
CUS0216800000102319613002         COSTIGAN, KATHLEEN A5709 PIMLICO RD                         000N        CARE OF             
MTR02168000001000000000000000RA              52769411    005801280000012800000520000003NN  NNW 000                       N    
RDG02168000WATRL000000004K00000000000000961004402032015095320N000000000000U26       000390400K 10000000010000000954           
CUS0216800000102319614000         PARK WASHINGTON APTS2434 EVERTON RD                         000N        CARE OF             
MTR02168000001000000000000000RA              52292602    007501290000012900000520000003NN  NNW 000                       N    
RDG02168000WATRL000000004K00000000000004053009902032015134637N000000000000U26       000030400K 10000000010000004012           
CUS0216800000102319615007         STANLEY KEYSER      5602 EVERHURST RD                       000N        CARE OF             
MTR02168000001000000000000000RA              00132914    005801300000013000000570000003NN  NNW 000                       N    
RDG02168000WATRL000000004K00000000000001240005001302015114652N000000000000U26       000270400K 10000000010000001221           
CUS0216800000102319616005         LISS, CECILIA R.    5600 EVERHURST RD                       000N        CARE OF             
MTR02168000001000000000000000RA              44086649    005801310000013100000520000003NN  NNW 000                       N    
RDG02168000WATRL000000004K00000000000001709004101302015114225N000000000000U26       000500400K 10000000010000001694           
CUS0216800000102319617003         BROOKS MANAGEMENT CO2432 EVERTON RD                         000N        CARE OF             
MTR02168000001000000000000000RA              43904881    007501320000013200000520000003NN  NNW 000                       N    
RDG02168000WATRL000000004K00000000000000992004201302015114227N000000000000U26       000020400K 10000000010000000944           
CUS0216800000102319618001         ELDERSLIE METHODIST 5607 PIMLICO RD                         000N        CARE OF             
MTR02168000001000000000000000RA              52292235    007501330000013300000520000003NN  NNW 000                       N    
RDG02168000WATRL000000004K00000000000000740003301302015113629N000000000000U26       002400400K 10000000010000000735           
CUS0216800000102319619009         FURPHY, BRIAN K     5611 PIMLICO RD                         000N        CARE OF             
MTR02168000001000000000000000RA              41257132    005801340000013400000520000003NN  NNW 000                       N    
RDG02168000WATRL000000004K00000000000002724003401302015113700N000000000020U26       000310400K 10000000010000002714           
CUS0216800000102319620007         URBAN, JOSEPH J     5613 PIMLICO RD                         000N        CARE OF             
MTR02168000001000000000000000RA              23648665    005801350000013500000520000003NN  NNW 000                       N    
RDG02168000WATRL000000004K00000000000004093003501302015113732N000000000000U26       000320400K 10000000010000004049           
CUS0216800000102319621005         BOLDON, BRIAN C     2435 EVERTON RD                         000N        CARE OF             
MTR02168000001000000000000000RA              23051210    005801360000013600000520000003NN  NNW 000                       N    
RDG02168000WATRL000000004K00000000000005446003601302015113817N000000000000U26       000450400K 10000000010000005426           
CUS0216800000102319622003         KAUTZ, RYAN D       2433 EVERTON RD                         000N        CARE OF             
MTR02168000001000000000000000RA              00133365    005801370000013700000570000003NN  NNW 000                       N    
RDG02168000WATRL000000004K00000000000000803003701302015113940N000000000010U26       000830400K 10000000010000000790           
CUS0216800000102319623001         GORENSTEIN, SHARON F2431 EVERTON RD                         000N        CARE OF             
MTR02168000001000000000000000RA              23053114    005801380000013800000520000003NN  NNW 000                       N    
RDG02168000WATRL000000004K00000000000003053003801302015114010N000000000000U26       000300400K 10000000010000003045           
CUS0216800000102319624009         FORREST R FOSS & WF 2429 EVERTON RD                         000N        CARE OF             
MTR02168000001000000000000000RA              36698041    005801390000013900000520000003NN  NNW 000                       N    
RDG02168000WATRL000000004K00000000000003413003901302015114114N000000000000U26       000640400K 10000000010000003396           
CUS0216800000102319625006         GUALLAR, ELISEO     2427 EVERTON RD                         000N        CARE OF             
MTR02168000001000000000000000RA              31587155    005801400000014000000520000003NN  NNW 000                       N    
RDG02168000WATRL000000004K00000000000004587004001302015114135N000000000000U26       000210400K 10000000010000004554           
CUS0216800000102319626004         WALSH, LUCIEN       2425 EVERTON RD                         000N        CARE OF             
MTR02168000001000000000000000RA              27829089    005801410000014100000520000003NN  NNW 000                       N    
RDG02168000WATRL000000004K00000000000002819004301302015114254N000000000000U26       000270400K 10000000010000002796           
CUS0216800000102319627002         SULLIVAN, JOANNE    2423 EVERTON RD                         000N        CARE OF             
MTR02168000001000000000000000RA              01108744    005801420000014200000610000003NN  NNW 000                       N    
RDG02168000WATRL000000004K00000000000000622004401302015114348N000000000000U26       000540400K 10000000010000000603           
CUS0216800000102319628000         EARLEY, CHRISTOPHER 2421 EVERTON RD                         000N        CARE OF             
MTR02168000001000000000000000RA              10011034    005801430000014300000570000003NN  NNW 000                       N    
RDG02168000WATRL000000004K00000000000000611004501302015114423N000400000010U26       000350400K 10000000010000000601           
CUS0216800000102319629008         SHOWALTER, DANIEL   5601 EVERHURST RD                       000N        CARE OF             
MTR02168000001000000000000000RA              44086648    005801440000014400000520000003NN  NNW 000                       N    
RDG02168000WATRL000000004K00000000000002021004601302015114446N000000000000U26       000230400K 10000000010000001996           
CUS0216800000102319630006         MERZ, ROBERT E      5603 EVERHURST RD                       000N        CARE OF             
MTR02168000001000000000000000RA              44086653    005801450000014500000520000003NN  NNW 000                       N    
RDG02168000WATRL000000004K00000000000002072004701302015114528N000000000000U26       000420400K 10000000010000002054           
CUS0216800000102319631004         SIMPSON, MICHELLE   5605 EVERHURST RD                       000N        CARE OF             
MTR02168000001000000000000000RA              30518520    005801460000014600000520000003NN  NNW 000                       N    
RDG02168000WATRL000000004K00000000000001837004801302015114605N000300000010U26       000370400K 10000000010000001821           
CUS0216800000102319632002         HERSTEIN, EMILY     5607 EVERHURST RD                       000N        CARE OF             
MTR02168000001000000000000000RA              44086650    005801470000014700000520000003NN  NNW 000                       N    
RDG02168000WATRL000000004K00000000000001917004901302015114625N000000000000U26       000200400K 10000000010000001909           
CUS0216800000102319633000         KANE, EDWARD P      2415 BRAMBLETON RD                      000N        CARE OF             
MTR02168000001000000000000000RA              29679211    005801480000014800000520000003NN  NNW 000                       N    
RDG02168000WATRL000000004K00000000000004391005201302015114952N000000000000U26       000640400K 10000000010000004380           
CUS0216800000102319634008         ABEL, GREG          2413 BRAMBLETON RD                      000N        CARE OF             
MTR02168000001000000000000000RA              27829086    005801490000014900000520000003NN  NNW 000                       N    
RDG02168000WATRL000000004K00000000000004376005301302015115015N000000000000U26       000230400K 10000000010000004350           
CUS0216800000102319635005         MOTT, JESSICA PERROT2411 BRAMBLETON RD                      000N        CARE OF             
MTR02168000001000000000000000RA              01091238    005801500000015000000610000003NN  NNW 000                       N    
RDG02168000WATRL000000004K00000000000000828005401302015115048N000000000000U26       000330400K 10000000010000000806           
CUS0216800000102319636003         CALL, JEFF B        2409 BRAMBLETON RD                      000N        CARE OF             
MTR02168000001000000000000000RA              44086544    005801510000015100000520000003NN  NNW 000                       N    
RDG02168000WATRL000000004K00000000000003063005501302015115112N000000000000U26       000240400K 10000000010000003046           
CUS0216800000102319637001         CHARDO, CHRISTOPHER 2407 BRAMBLETON RD                      000N        CARE OF             
MTR02168000001000000000000000RA              27823130    005801520000015200000520000003NN  NNW 000                       N    
RDG02168000WATRL000000004K00000000000002414005601302015115134N000000000000U26       000220400K 10000000010000002402           
CUS0216800000102319638009         CARNEY, KIMBERLY    2405 BRAMBLETON RD                      000N        CARE OF             
MTR02168000001000000000000000RA              75617091    005801530000015300000350000003NN  NNW 000                       N    
RDG02168000WATRL000000004K00000000000000138005701302015115204N000000000000U26       000300400K 10000000010000000113           
CUS0216800000102319639007         BERKOW, JANE T      2403 BRAMBLETON RD                      000N        CARE OF             
MTR02168000001000000000000000RA              36697303    005801540000015400000520000003NN  NNW 000                       N    
RDG02168000WATRL000000004K00000000000003425005801302015115236N000000000000U26       000320400K 10000000010000003403           
CUS0216800000102319640005         STRICKSTEIN, TARA N 2401 BRAMBLETON RD                      000N        CARE OF             
MTR02168000001000000000000000RA              36697031    005801550000015500000520000003NN  NNW 000                       N    
RDG02168000WATRL000000004K00000000000002235005901302015115346N000000000021U26       000290400K 10000000010000002235           
CUS0216800000102319641003         BYRD, SHARON        5622 GREENSPRING AVE                    000N        CARE OF             
MTR02168000001000000000000000RA              35108672    005801560000015600000520000003NN  NNW 000                       N    
RDG02168000WATRL000000004K00000000000002850000101302015110731N000000000000U26       000000400K 10000000010000002829           
CUS0216800000102319642001         MECK, DANIEL        5620 GREENSPRING AVE                    000N        CARE OF             
MTR02168000001000000000000000RA              26013599    005801570000015700000520000003NN  NNW 000                       N    
RDG02168000WATRL000000004K00000000000002973000201302015110737N000300000010U26       000060400K 10000000010000002975           
CUS0216800000102319643009         WILEY, HENRIETTA L  5618 GREENSPRING AVE                    000N        CARE OF             
MTR02168000001000000000000000RA              24772561    005801580000015800000520000003NN  NNW 000                       N    
RDG02168000WATRL000000004K00000000000002149000301302015110809N000000000000U26       000320400K 10000000010000002142           
CUS0216800000102319644007         STULMAN, TERESA     5616 GREENSPRING AVE                    000N        CARE OF             
MTR02168000001000000000000000RA              27833180    005801590000015900000520000003NN  NNW 000                       N    
