FHDNNNN029005831005831005892N                                                                                           017740
RHD08545500NN01870187000001870000000001870187000159NY018701870187000000020000000000000000000002    01222015NY020000 N         
CUS0854550000108017059000         FRANKLIN MELVIN LLC 6007 OLD FREDERICK RD                   000N        CARE OF             
MTR08545500001000000000000000RA              36690509    005800010000000100000520000003NN  NNW 000                       N    
RDG08545500WATRL000000004K00000000000003393000302022015104944N000000000000U84       000160400K 10000000010000003381           
CUS0854550000108017060008         FRANKLIN MELVIN LLC 6005 OLD FREDERICK RD                   000N        CARE OF             
MTR08545500001000000000000000RA              36690505    005800020000000200000520000003NN  NNW 000                       N    
RDG08545500WATRL000000004K00000000000004704000202022015104928N000000000000U84       002300400K 10000000010000004524           
CUS0854550000108017061006         FRANKLIN MELVIN LLC 6003 OLD FREDERICK RD                   000N        CARE OF             
MTR08545500001000000000000000RA              36690508    005800030000000300000520000003NN  NNW 000                       N    
RDG08545500WATRL000000004K00000000000002328000102022015104538N000000000000U84       000000400K 10000000010000002306           
CUS0854550000108017062004         FRANKLIN MELVIN LLC 6001 OLD FREDERICK RD                   000N        CARE OF             
MTR08545500001000000000000000RA              36687697    005800040000000400000520000003NN  NNW 000                       N    
RDG08545500WATRL000000004K00000000000004980000402022015105057N000000000000U84       000730400K 10000000010000004973           
CUS0854550000108017063002         FRANKLIN MELVIN LLC 323 WINTERS LN                          000N        CARE OF             
MTR08545500001000000000000000RA              44091325    005800050000000500000520000003NN  NNW 000                       N    
RDG08545500WATRL000000004K00000000000003024000502022015105126N000000000000U84       000290400K 10000000010000002996           
CUS0854550000108017064000         FRANKLIN MELVIN LLC 321 WINTERS LN                          000N        CARE OF             
MTR08545500001000000000000000RA              44091369    005800060000000600000520000003NN  NNW 000                       N    
RDG08545500WATRL000000004K00000000000002571000602022015105155N000000000000U84       000290400K 10000000010000002551           
CUS0854550000108017065007         FRANKLIN MELVIN LLC 319 WINTERS LN                          000N        CARE OF             
MTR08545500001000000000000000RA              36687701    005800070000000700000520000003NN  NNW 000                       N    
RDG08545500WATRL000000004K00000000000003474000702022015105218N000000000000U84       000230400K 10000000010000003460           
CUS0854550000108017066005         FRANKLIN MELVIN LLC 317 WINTERS LN                          000N        CARE OF             
MTR08545500001000000000000000RA              41075099    005800080000000800000520000003NN  NNW 000                       N    
RDG08545500WATRL000000004K00000000000003804000802022015105238N000000000000U84       000200400K 10000000010000003769           
CUS0854550000108017067003         FRANKLIN MELVIN LLC 315 WINTERS LN                          000N        CARE OF             
MTR08545500001000000000000000RA              38983691    005800090000000900000520000003NN  NNW 000                       N    
RDG08545500WATRL000000004K00000000000005918000902022015105303N000000000000U84       000250400K 10000000010000005889           
CUS0854550000108017068001         WILLIAMS ALVIN      313 WINTERS LN                          000N        CARE OF             
MTR08545500001000000000000000RA              25783415    005800100000001000000520000003NN  NNW 000                       N    
RDG08545500WATRL000000004K00000000000002802001002022015105322N000000000000U84       000190400K 10000000010000002797           
CUS0854550000108017069009         KING EVELYN J       311 WINTERS LN                          000N        CARE OF             
MTR08545500001000000000000000RA              77987705    005800110000001100000350000003NN  NNW 000                       N    
RDG08545500WATRL000000004K00000000000000000001102022015105348N000000000000U84       000260400K 10000000010000000000           
CUS0854550000108017070007         SEEGOPAUL NAIPAUL   309 WINTERS LN                          000N        CARE OF             
MTR08545500001000000000000000RA              23841994    005800120000001200000520000003NN  NNW 000                       N    
RDG08545500WATRL000000004K00000000000003612001202022015105404N000000000000U84       000160400K 10000000010000003596           
CUS0854550000108017071005         SEEGOPAUL NAIPAUL   307 WINTERS LN                          000N        CARE OF             
MTR08545500001000000000000000RA              46885243    005800130000001300000520000003NN  NNW 000                       N    
RDG08545500WATRL000000004K00000000000000281001302022015105409N000000000000U84       000050400K 10000000010000000281           
CUS0854550000108017072003         ROBBIN PROPERTY ASSO305 WINTERS LN                          000N        CARE OF             
MTR08545500001000000000000000RA              23645186    005800140000001400000520000003NN  NNW 000                       N    
RDG08545500WATRL000000004K00000000000006237001402022015105431N000000000000U84       000220400K 10000000010000006212           
CUS0854550000108017073001         FRANCIS SUMNER JR   223 WINTERS LN                          000N        CARE OF             
MTR08545500001000000000000000RA              27818879    005800150000001500000520000003NN  NNW 000                       N    
RDG08545500WATRL000000004K00000000000005979001502022015105450N000000000000U84       000190400K 10000000010000005967           
CUS0854550000108017074009         THOMASINE A BASKERVI221 WINTERS LN                          000N        CARE OF             
MTR08545500001000000000000000RA              26013421    005800160000001600000520000003NN  NNW 000                       N    
RDG08545500WATRL000000004K00000000000001407001602022015105507N000000000000U84       000170400K 10000000010000001402           
CUS0854550000108017075006         DURANT LAWRENCE     207 WINTERS LN                          000N        CARE OF             
MTR08545500001000000000000000RA              01109923    005800170000001700000610000003NN  NNW 000                       N    
RDG08545500WATRL000000004K00000000000001692001702022015105541N000000000000U84       000340400K 10000000010000001626           
CUS0854550000108017076004         MARIAM TOMMY        203 WINTERS LN                          000N        CARE OF             
MTR08545500001000000000000000RA              26016963    005800180000001800000520000003NN  NNW 000                       N    
RDG08545500WATRL000000004K00000000000002925001802022015105610N000000000000U84       000290400K 10000000010000002903           
CUS0854550000108017077002         SRIBUNJERD SUCHILA  201 WINTERS LN                          000N        CARE OF             
MTR08545500001000000000000000RA              01080652    005800190000001900000610000003NN  NNW 000                       N    
RDG08545500WATRL000000004K00000000000000874001902022015105625N000300000010U84       000150400K 10000000010000000857           
CUS0854550000108017078000         GOVIA DAVID         199 WINTERS LN                          000N        CARE OF             
MTR08545500001000000000000000RA              41259148    005800200000002000000520000003NN  NNW 000                       N    
RDG08545500WATRL000000004K00000000000001453002002022015105628N000000000000U84       000030400K 10000000010000001453           
CUS0854550000108017079008         BROOKS WILLIAM C    185 WINTERS LN                          000N        CARE OF             
MTR08545500001000000000000000RA              26003046    005800210000002100000520000003NN  NNW 000                       N    
RDG08545500WATRL000000004K00000000000002112002102022015105635N000000000000U84       000070400K 10000000010000002112           
CUS0854550000108017080006         MNSF BALTIMORE LLC  181 WINTERS LN                          000N        CARE OF             
MTR08545500001000000000000000RA              48582837    005800220000002200000520000003NN  NNW 000                       N    
RDG08545500WATRL000000004K00000000000000431002202022015105715N000400000020U84       000400400K 10000000010000000413           
CUS0854550000108017081004         HARDY EVA WEBB      179 WINTERS LN                          000N        CARE OF             
MTR08545500001000000000000000RA              41075416    005800230000002300000520000003NN  NNW 000                       N    
RDG08545500WATRL000000004K00000000000001709002302022015105729N000000000000U84       000140400K 10000000010000001707           
CUS0854550000108017082002         EBB WINSTON B       177 WINTERS LN                          000N        CARE OF             
MTR08545500001000000000000000RA              01082777    005800240000002400000610000003NN  NNW 000                       N    
RDG08545500WATRL000000004K00000000000003005002402022015105758N000400000010U84       000290400K 10000000010000002998           
CUS0854550000108017083000         WEBB ELLA M         171 WINTERS LN                          000N        CARE OF             
MTR08545500001000000000000000RA              00140283    005800250000002500000570000003NN  NNW 000                       N    
RDG08545500WATRL000000004K00000000000001400002502022015105817N000000000000U84       000190400K 10000000010000001390           
CUS0854550000108017084008         BUI CAC DONG        169 WINTERS LN                          000N        CARE OF             
MTR08545500001000000000000000RA              11329098    005800260000002600000570000003NN  NNW 000                       N    
RDG08545500WATRL000000004K00000000000002825002602022015105853N000000000010U84       000360400K 10000000010000002811           
CUS0854550000108017085005         XIU CHEN            167 WINTERS LN                          000N        CARE OF             
MTR08545500001000000000000000RA              44091385    005800270000002700000520000003NN  NNW 000                       N    
RDG08545500WATRL000000004K00000000000001667002702022015105908N000000000000U84       000150400K 10000000010000001652           
CUS0854550000108017086003         RAAKESH BRIDGLAL    165 WINTERS LN                          000N        CARE OF             
MTR08545500001000000000000000RA              42809985    005800280000002800000520000003NN  NNW 000                       N    
RDG08545500WATRL000000004K00000000000002159002802022015105929N000000000000U84       000210400K 10000000010000002144           
CUS0854550000108017088009         MORNING STAR BAPTIST153 WINTERS LN                          000N        CARE OF             
MTR08545500001000000000000000RA              32898326    005800290000002900000520000003NN  NNW 000                       N    
RDG08545500WATRL000000004K00000000000000054002902022015110437N000000000000U84       003080400K 10000000010000000054           
CUS0854550000108442936004         JACKSON & JOHNSON   151 WINTERS LN                          000N        CARE OF             
MTR08545500001000000000000000RA              00165844    000100300000003000000570000000NN  NNW 000                       N    
RDG08545500WATRL000000004K00000000000003021003002022015110440N000000000000U84       000030400K 10000000010000002935           
CUS0854550000108017092001         GWYNN MARY T        139 WINTERS LN                          000N        CARE OF             
MTR08545500001000000000000000RA              01085466    005800310000003100000610000003NN  NNW 000                       N    
RDG08545500WATRL000000004K00000000000000808003102022015110456N000000000000U84       000160400K 10000000010000000745           
CUS0854550000108017093009         MORNING STAR BAPTIST137 WINTERS LN                          000N        CARE OF             
MTR08545500001000000000000000RA              30516096    005800320000003200000520000003NN  NNW 000                       N    
RDG08545500WATRL000000004K00000000000002133003202022015110507N000000000000U84       000110400K 10000000010000002133           
CUS0854550000108017094007         MICHELLE D. KUEHL   135 WINTERS LN                          000N        CARE OF             
MTR08545500001000000000000000RA              75425903    005800330000003300000350000003NN  NNW 000                       N    
RDG08545500WATRL000000004K00000000000000065003302022015110525N000000000000U84       000180400K 10000000010000000060           
CUS0854550000108017095004         JESSICA BALK-HUFFINE131 WINTERS LN                          000N        CARE OF             
MTR08545500001000000000000000RA              20968116    005800340000003400000520000003NN  NNW 000                       N    
RDG08545500WATRL000000004K00000000000002944003402022015110548N000000000000U84       000230400K 10000000010000002935           
CUS0854550000108017096002         SUSANNA CUSHMAN WRIG129 WINTERS LN                          000N        CARE OF             
MTR08545500001000000000000000RA              52289812    005800350000003500000520000003NN  NNW 000                       N    
RDG08545500WATRL000000004K00000000000000712003502022015110607N000000000000U84       000190400K 10000000010000000706           
CUS0854550000108017097000         TALBOTT ROBERT G    127 WINTERS LN                          000N        CARE OF             
MTR08545500001000000000000000RA              33080795    005800360000003600000520000003NN  NNW 000                       N    
RDG08545500WATRL000000004K00000000000001584003602022015110624N000000000000U84       000170400K 10000000010000001581           
CUS0854550000108017098008         YANG WANG YI        125 WINTERS LN                          000N        CARE OF             
MTR08545500001000000000000000RA              11332016    005800370000003700000570000003NN  NNW 000                       N    
RDG08545500WATRL000000004K00000000000003958003702022015110629N000000000000U84       000050400K 10000000010000003958           
CUS0854550000108017099006         PHAN HUNG TAN       123 WINTERS LN                          000N        CARE OF             
MTR08545500001000000000000000RA              24228543    005800380000003800000520000003NN  NNW 000                       N    
RDG08545500WATRL000000004K00000000000002281003802022015110650N000000000000U84       000210400K 10000000010000002269           
CUS0854550000108017100002         MICHELLE DENISE GILE121 WINTERS LN                          000N        CARE OF             
MTR08545500001000000000000000RA              01085469    005800390000003900000610000003NN  NNW 000                       N    
RDG08545500WATRL000000004K00000000000000246003902022015110708N000000000000U84       000180400K 10000000010000000239           
CUS0854550000108017101000         WILLIAM J. ARVIN    119 WINTERS LN                          000N        CARE OF             
MTR08545500001000000000000000RA              35102460    005800400000004000000520000003NN  NNW 000                       N    
RDG08545500WATRL000000004K00000000000002615004002022015110730N000000000000U84       000220400K 10000000010000002601           
CUS0854550000108017102008         BATES DAVID C       117 WINTERS LN                          000N        CARE OF             
MTR08545500001000000000000000RA              76347505    005800410000004100000350000003NN  NNW 000                       N    
RDG08545500WATRL000000004K00000000000000022004102022015110751N000000000000U84       000210400K 10000000010000000017           
CUS0854550000108017105001         FRANCIS SUMNER, JR. 113 WINTERS LN                          000N        CARE OF             
MTR08545500001000000000000000RA              27265360    005800420000004200000520000003NN  NNW 000                       N    
RDG08545500WATRL000000004K00000000000003195004202022015110828N000000000000U84       000370400K 10000000010000003182           
CUS0854550000108017106009         900 EDMONDSON AVENUE900 EDMONDSON AVE                       000N        CARE OF             
MTR08545500001000000000000000RA              35106324    005800430000004300000520000003NN  NNW 000                       N    
RDG08545500WATRL000000004K00000000000001518004302022015110922N000000000000U84       000540400K 10000000010000001503           
CUS0854550000108017107007         900 EDMONDSON AVENUE902 EDMONDSON AVE                       000N        CARE OF             
MTR08545500001000000000000000RA              99999999    007500440000004400000620000003NN  NNW 000                       N    
RDG08545500WATRL000000004K00000000000003284004402022015110926N000000000000U84       000040400K 10000000010000003284           
CUS0854550000108017108005         MORNING STAR BAPTIST906 EDMONDSON AVE                       000N        CARE OF             
MTR08545500001000000000000000RA              24232325    005800450000004500000520000003NN  NNW 000                       N    
RDG08545500WATRL000000004K00000000000001299004502022015111029N000000000000U84       000630400K 10000000010000001278           
CUS0854550000108017109003         KUIPER WILLIAM H    1000 EDMONDSON AVE                      000N        CARE OF             
MTR08545500001000000000000000RA              30001592    007500460000004600000570000003NY  NNW 000                       N    
MTM0854550030001592    paved over                                                                                             
RDG08545500WATRL000000004K00000000000000000000102032015091306S018000000000U84       000000400K 10000000010000000625           
CUS0854550000108017110001         QUACKENBUSH NICHOLAS1002 EDMONDSON AVE                      000N        CARE OF             
MTR08545500001000000000000000RA              01071560    005800470000004700000610000003NN  NNW 000                       N    
RDG08545500WATRL000000004K00000000000001037000202032015091343N000000000000U84       000370400K 10000000010000001024           
CUS0854550000108017111009         RIDEOUT RONALD BIBIN1004 EDMONDSON AVE                      000N        CARE OF             
MTR08545500001000000000000000RA              44172211    005800480000004800000520000003NN  NNW 000                       N    
RDG08545500WATRL000000004K00000000000002497000302032015091500N000000000000U84       000770400K 10000000010000002466           
CUS0854550000108017112007         DAVID E. PUHL       1006 EDMONDSON AVE                      000N        CARE OF             
MTR08545500001000000000000000RA              46885245    005800490000004900000520000003NN  NNW 000                       N    
RDG08545500WATRL000000004K00000000000001521000402032015091519N000000000000U84       000190400K 10000000010000001512           
CUS0854550000108017113005         MILLER ROBERT J     1008 EDMONDSON AVE                      000N        CARE OF             
MTR08545500001000000000000000RA              27823543    005800500000005000000520000003NN  NNW 000                       N    
RDG08545500WATRL000000004K00000000000004879000502032015091618N000000000000U84       000590400K 10000000010000004868           
CUS0854550000108017114003         DAY BONITA K        1010 EDMONDSON AVE                      000N        CARE OF             
MTR08545500001000000000000000RA              35106321    005800510000005100000520000003NN  NNW 000                       N    
RDG08545500WATRL000000004K00000000000007680000602032015091710N000000000000U84       000520400K 10000000010000007655           
CUS0854550000108017115000         THE RESUME PLACE    1012 EDMONDSON AVE                      000N        CARE OF             
MTR08545500001000000000000000RA              46881771    005800520000005200000520000003NN  NNW 000                       N    
RDG08545500WATRL000000004K00000000000002480000702032015091749N000000000000U84       000390400K 10000000010000002455           
CUS0854550000108017116008         DEMETRIOU GEORGE    200 N BEAUMONT AVE                      000N        CARE OF             
MTR08545500001000000000000000RA              23645406    005800530000005300000520000003NN  NNW 000                       N    
RDG08545500WATRL000000004K00000000000004911007902032015104307N000000000000U84       005980400K 10000000010000004898           
CUS0854550000108017117006         BAIRD SHAWN PATRICK 202 N BEAUMONT AVE                      000N        CARE OF             
MTR08545500001000000000000000RA              00140285    005800540000005400000570000003NN  NNW 000                       N    
RDG08545500WATRL000000004K00000000000001525000802032015092210N000000000000U84       002610400K 10000000010000001485           
CUS0854550000108017118004         VANHESSEN GUSTAAF A 204 N BEAUMONT AVE                      000N        CARE OF             
MTR08545500001000000000000000RA              00140287    005800550000005500000570000003NN  NNW 000                       N    
RDG08545500WATRL000000004K00000000000000779000902032015092247N000000000000U84       000370400K 10000000010000000759           
CUS0854550000108017119002         BAYER BRUCE N       206 N BEAUMONT AVE                      000N        CARE OF             
MTR08545500001000000000000000RA              01081809    005800560000005600000610000000NN  NNW 000                       N    
RDG08545500WATRL000000004K00000000000000360001002032015092310N000000000000U84       000230400K 10000000010000000355           
CUS0854550000108017120000         MAYS JOHN A         208 N BEAUMONT AVE                      000N        CARE OF             
MTR08545500001000000000000000RA              00140284    005800570000005700000570000003NN  NNW 000                       N    
RDG08545500WATRL000000004K00000000000000671001102032015092337N000000000000U84       000270400K 10000000010000000667           
CUS0854550000108017121008         A. & P. SINGER      1014 MAXWELTON DR                       000N        CARE OF             
MTR08545500001000000000000000RA              99292453    005800580000005800000570000003NN  NNW 000                       N    
RDG08545500WATRL000000004K00000000000001012008002032015105131N000000000000U84       005040400K 10000000010000000987           
CUS0854550000108417341008         BEDNAR JOHN D       1010 MAXWELTON DR                       000N        CARE OF             
MTR08545500001000000000000000RA              50787939    005800590000005900000520000003NY  NNW 000                       N    
MTM0854550050787939    paved over                                                                                             
RDG08545500WATRL000000004K00000000000000000008102032015105335S018000000000U84       001240400K 10000000010000001059           
CUS0854550000108017122006         RABUNE CATHERINE A  216 N BEAUMONT AVE                      000N        CARE OF             
MTR08545500001000000000000000RA              36687533    005800600000006000000520000003NN  NNW 000                       N    
RDG08545500WATRL000000004K00000000000003509001202032015092740N000000000000U84       002430400K 10000000010000003497           
CUS0854550000108017123004         LYNCH MARY T        218 N BEAUMONT AVE                      000N        CARE OF             
MTR08545500001000000000000000RA              01081807    005800610000006100000610000003NN  NNW 000                       N    
RDG08545500WATRL000000004K00000000000000260001302032015092849N000000000000U84       000690400K 10000000010000000258           
CUS0854550000108017124002         RICHARDSON SCOTT N  220 N BEAUMONT AVE                      000N        CARE OF             
MTR08545500001000000000000000RA              00140372    005800620000006200000570000003NN  NNW 000                       N    
RDG08545500WATRL000000004K00000000000001211001402032015093018N000000000000U84       000890400K 10000000010000001187           
CUS0854550000108017125009         SKOLNIK JUDY L      222 N BEAUMONT AVE                      000N        CARE OF             
MTR08545500001000000000000000RA              23645247    005800630000006300000520000003NN  NNW 000                       N    
RDG08545500WATRL000000004K00000000000003852001502032015093107N000000000000U84       000490400K 10000000010000003835           
CUS0854550000108017126007         RITZ EDWARD W       224 N BEAUMONT AVE                      000N        CARE OF             
MTR08545500001000000000000000RA              23059233    005800640000006400000520000003NN  NNW 000                       N    
RDG08545500WATRL000000004K00000000000002466001602032015093159N000000000000U84       000520400K 10000000010000002446           
CUS0854550000108017127005         MALIK SOHAIL F      226 N BEAUMONT AVE                      000N        CARE OF             
MTR08545500001000000000000000RA              29084495    005800650000006500000520000003NN  NNW 000                       N    
RDG08545500WATRL000000004K00000000000003897001702032015093546N000000000000U84       002270400K 10000000010000003877           
CUS0854550000108017128003         SCHELL DANIEL JOSEPH228 N BEAUMONT AVE                      000N        CARE OF             
MTR08545500001000000000000000RA              38985311    005800660000006600000520000003NN  NNW 000                       N    
RDG08545500WATRL000000004K00000000000005094001802032015093550N000000000000U84       000040400K 10000000010000005066           
CUS0854550000108017129001         CHEADLE JOHN A      230 N BEAUMONT AVE                      000N        CARE OF             
MTR08545500001000000000000000RA              48591066    005800670000006700000520000003NN  NNW 000                       N    
RDG08545500WATRL000000004K00000000000001841002701292015121322N000000000000N84       000670400K 10000000010000001827           
CUS0854550000108017130009         SWAYNE BRIAN D JR   232 N BEAUMONT AVE                      000N        CARE OF             
MTR08545500001000000000000000RA              25781413    005800680000006800000520000003NN  NNW 000                       N    
RDG08545500WATRL000000004K00000000000003954002801292015121342N000000000000N84       000200400K 10000000010000003934           
CUS0854550000108017131007         BUIVYS DAINA        234 N BEAUMONT AVE                      000N        CARE OF             
MTR08545500001000000000000000RA              9691042     005800690000006900000570000003NN  NNW 000                       N    
RDG08545500WATRL000000004K00000000000004054002901292015121412N000000000000N84       000300400K 10000000010000004045           
CUS0854550000108017132005         BUIVYS RAMUNE E     236 N BEAUMONT AVE                      000N        CARE OF             
MTR08545500001000000000000000RA              32903660    005800700000007000000520000003NN  NNW 000                       N    
RDG08545500WATRL000000004K00000000000002055003001292015121418N000000000000N84       000060400K 10000000010000002048           
CUS0854550000108017133003         MCCOLGAN ARTHUR J   300 N BEAUMONT AVE                      000N        CARE OF             
MTR08545500001000000000000000RA              48590156    005800710000007100000520000003NN  NNW 000                       N    
RDG08545500WATRL000000004K00000000000001079003101292015121453N000000000000N84       000350400K 10000000010000001069           
CUS0854550000108017134001         FINNEL JOHN P       302 N BEAUMONT AVE                      000N        CARE OF             
MTR08545500001000000000000000RA              01081804    005800720000007200000610000003NN  NNW 000                       N    
RDG08545500WATRL000000004K00000000000000394003201292015121514N000000000000N84       000210400K 10000000010000000394           
CUS0854550000108017135008         SHIAN FRANKLIN      304 N BEAUMONT AVE                      000N        CARE OF             
MTR08545500001000000000000000RA              23051078    005800730000007300000520000003NN  NNW 000                       N    
RDG08545500WATRL000000004K00000000000005048003301292015121534N000000000000N84       000200400K 10000000010000005048           
CUS0854550000108370338009         JOSEPH W ROLLINS    1 HERD CT                               000N        CARE OF             
MTR08545500001000000000000000RA              01116587    005800740000007400000610000003NN  NNW 000                       N    
RDG08545500WATRL000000004K00000000000001412000301292015115826N000000000000N84       000570400K 10000000010000001389           
CUS0854550000108373466005         ROSE TERRENCE W     3 HERD CT                               000N        CARE OF             
MTR08545500001000000000000000RA              32903552    005800750000007500000520000003NN  NNW 000                       N    
RDG08545500WATRL000000004K00000000000003072000401292015115839N000000000000N84       000130400K 10000000010000003059           
CUS0854550000108373467003         WURTZER CHARLES O   5 HERD CT                               000N        CARE OF             
MTR08545500001000000000000000RA              01080754    005800760000007600000610000003NN  NNW 000                       N    
RDG08545500WATRL000000004K00000000000000798000501292015115856N000000000000N84       000170400K 10000000010000000787           
CUS0854550000108370339007         HAROLD C NORRIS III 7 HERD CT                               000N        CARE OF             
MTR08545500001000000000000000RA              01080753    005800770000007700000610000003NN  NNW 000                       N    
RDG08545500WATRL000000004K00000000000001111000601292015115912N000000000000N84       000160400K 10000000010000001098           
CUS0854550000108373459000         ABRAHA ALMAZ        312 N BEAUMONT AVE                      000N        CARE OF             
MTR08545500001000000000000000RA              32574391    005800780000007800000520000003NN  NNW 000                       N    
RDG08545500WATRL000000004K00000000000002874000101292015115702N000000000000N84       000000400K 10000000010000002861           
CUS0854550000108373460008         BESS MICHAEL K      314 N BEAUMONT AVE                      000N        CARE OF             
MTR08545500001000000000000000RA              32176112    005800790000007900000520000003NN  NNW 000                       N    
RDG08545500WATRL000000004K00000000000002676000201292015115729N000000000000N84       000270400K 10000000010000002658           
CUS0854550000108364276009         FEDERAL NATL' MORTGA316 N BEAUMONT AVE                      000N        CARE OF             
MTR08545500001000000000000000RA              00139088    005800800000008000000570000003NN  NNW 000                       N    
RDG08545500WATRL000000004K00000000000000939000701292015120026N000000000010N84       000740400K 10000000010000000938           
CUS0854550000108373461006         WARD GAIL           318 N BEAUMONT AVE                      000N        CARE OF             
MTR08545500001000000000000000RA              26016332    005800810000008100000520000003NN  NNW 000                       N    
RDG08545500WATRL000000004K00000000000003737000801292015120052N000000000000N84       000260400K 10000000010000003610           
CUS0854550000108373462004         KRISTINA V COOKE    320 N BEAUMONT AVE                      000N        CARE OF             
MTR08545500001000000000000000RA              29683365    005800820000008200000520000003NN  NNW 000                       N    
RDG08545500WATRL000000004K00000000000005081000901292015120119N000000000000N84       000270400K 10000000010000005067           
CUS0854550000108373463002         WARD ANCIL SHELDON  322 N BEAUMONT AVE                      000N        CARE OF             
MTR08545500001000000000000000RA              24761359    005800830000008300000520000003NN  NNW 000                       N    
RDG08545500WATRL000000004K00000000000008293001001292015120158N000000000000N84       000390400K 10000000010000008274           
CUS0854550000108373464000         HAWKINS WILLIE ROLAN324 N BEAUMONT AVE                      000N        CARE OF             
MTR08545500001000000000000000RA              01092649    005800840000008400000610000003NN  NNW 000                       N    
RDG08545500WATRL000000004K00000000000000940001101292015120211N000000000000N84       000130400K 10000000010000000927           
CUS0854550000108369698009         PASCUA-SMREK KIMBERL326 N BEAUMONT AVE                      000N        CARE OF             
MTR08545500001000000000000000RA              31580584    005800850000008500000520000003NN  NNW 000                       N    
RDG08545500WATRL000000004K00000000000003592001201292015120241N000000000000N84       000300400K 10000000010000003575           
CUS0854550000108373465007         RUNKLE DAVID W      328 N BEAUMONT AVE                      000N        CARE OF             
MTR08545500001000000000000000RA              48595536    005800860000008600000520000003NN  NNW 000                       N    
RDG08545500WATRL000000004K00000000000002876001301292015120317N000000000000N84       000360400K 10000000010000002844           
CUS0854550000108369684009         LOWE FREDERICK CHRIS330 N BEAUMONT AVE                      000N        CARE OF             
MTR08545500001000000000000000RA              31580603    005800870000008700000520000003NN  NNW 000                       N    
RDG08545500WATRL000000004K00000000000002758001401292015120353N000000000000N84       000360400K 10000000010000002737           
CUS0854550000108394456001         MAY ALFRED W        329 N BEAUMONT AVE                      000N        CARE OF             
MTR08545500001000000000000000RA              01115615    005800880000008800000610000003NN  NNW 000                       N    
RDG08545500WATRL000000004K00000000000000735001501292015120443N000000000000N84       000500400K 10000000010000000716           
CUS0854550000108394455003         ANNE C DOOLEY       327 N BEAUMONT AVE                      000N        CARE OF             
MTR08545500001000000000000000RA              38983997    005800890000008900000520000003NN  NNW 000                       N    
RDG08545500WATRL000000004K00000000000001525001601292015120530N000000000000N84       000470400K 10000000010000001518           
CUS0854550000108369685006         SEICKE FRANK A, 3RD 323 N BEAUMONT AVE                      000N        CARE OF             
MTR08545500001000000000000000RA              31580606    005800900000009000000520000003NN  NNW 000                       N    
RDG08545500WATRL000000004K00000000000002282001701292015120618N000000000000N84       000480400K 10000000010000002275           
CUS0854550000108373472003         PERKINS TODD P      321 N BEAUMONT AVE                      000N        CARE OF             
MTR08545500001000000000000000RA              25781054    005800910000009100000520000003NN  NNW 000                       N    
RDG08545500WATRL000000004K00000000000003875001801292015120703N000000000000N84       000450400K 10000000010000003865           
CUS0854550000108373471005         ROBERT J CHASE      319 N BEAUMONT AVE                      000N        CARE OF             
MTR08545500001000000000000000RA              31587366    005800920000009200000520000003NN  NNW 000                       N    
RDG08545500WATRL000000004K00000000000002902001901292015120737N000000000000N84       000340400K 10000000010000002889           
CUS0854550000108373470007         KILLEEN ANDREW J    317 N BEAUMONT AVE                      000N        CARE OF             
MTR08545500001000000000000000RA              32176110    005800930000009300000520000003NN  NNW 000                       N    
RDG08545500WATRL000000004K00000000000003373002001292015120803N000000000000N84       000260400K 10000000010000003362           
CUS0854550000108373469009         ALAVEZ XICOTENCALT  315 N BEAUMONT AVE                      000N        CARE OF             
MTR08545500001000000000000000RA              32176109    005800940000009400000520000003NN  NNW 000                       N    
RDG08545500WATRL000000004K00000000000005709002101292015120821N000000000000N84       000180400K 10000000010000005690           
CUS0854550000108373468001         ROCKWELL JENNIFER   313 N BEAUMONT AVE                      000N        CARE OF             
MTR08545500001000000000000000RA              35103707    005800950000009500000520000003NN  NNW 000                       N    
RDG08545500WATRL000000004K00000000000002958002201292015120924N000000000000N84       000630400K 10000000010000002941           
CUS0854550000108017136006         COGSWELL EDWIN C    307 N BEAUMONT AVE                      000N        CARE OF             
MTR08545500001000000000000000RA              33079818    005800960000009600000520000003NN  NNW 000                       N    
RDG08545500WATRL000000004K00000000000001385002301292015121014N000000000000N84       000500400K 10000000010000001379           
CUS0854550000108017137004         LIBERTO J MICHAEL   305 N BEAUMONT AVE                      000N        CARE OF             
MTR08545500001000000000000000RA              11335785    005800970000009700000570000003NN  NNW 000                       N    
RDG08545500WATRL000000004K00000000000004539002401292015121041N000000000000N84       000270400K 10000000010000004511           
CUS0854550000108017138002         FENTRESS TERESA H   303 N BEAUMONT AVE                      000N        CARE OF             
MTR08545500001000000000000000RA              39925528    005800980000009800000520000003NN  NNW 000                       N    
RDG08545500WATRL000000004K00000000000001347002501292015121137N000000000000N84       000560400K 10000000010000001344           
CUS0854550000108017139000         ANSELL CHARLES H    301 N BEAUMONT AVE                      000N        CARE OF             
MTR08545500001000000000000000RA              01116594    005800990000009900000610000003NN  NNW 000                       N    
RDG08545500WATRL000000004K00000000000000611002601292015121215N000000000000N84       000380400K 10000000010000000599           
CUS0854550000108017140008         JACKSON WINSTON     235 N BEAUMONT AVE                      000N        CARE OF             
MTR08545500001000000000000000RA              01081803    005801000000010000000610000003NN  NNW 000                       N    
RDG08545500WATRL000000004K00000000000000686002102032015093744N000000000000U84       000470400K 10000000010000000672           
CUS0854550000108017141006         PROVANCE CHRISTINE  233 N BEAUMONT AVE                      000N        CARE OF             
MTR08545500001000000000000000RA              39925527    005801010000010100000520000003NN  NNW 000                       N    
RDG08545500WATRL000000004K00000000000001664001902032015093654N000000000000U84       000640400K 10000000010000001652           
CUS0854550000108017142004         LOCKARD JAMES H     231 N BEAUMONT AVE                      000N        CARE OF             
MTR08545500001000000000000000RA              01083941    005801020000010200000610000003NN  NNW 000                       N    
RDG08545500WATRL000000004K00000000000000630002002032015093657N000000000000U84       000030400K 10000000010000000623           
CUS0854550000108017143002         MORRIS LORRAINE D   229 N BEAUMONT AVE                      000N        CARE OF             
MTR08545500001000000000000000RA              00139387    005801030000010300000570000003NN  NNW 000                       N    
RDG08545500WATRL000000004K00000000000000432006502032015103220N000000000000U84       014280400K 10000000010000000421           
CUS0854550000108017144000         TAYLOR BENTON R     227 N BEAUMONT AVE                      000N        CARE OF             
MTR08545500001000000000000000RA              01084268    005801040000010400000610000003NN  NNW 000                       N    
RDG08545500WATRL000000004K00000000000000031006602032015103223N000000000000U84       000030400K 10000000010000000017           
CUS0854550000108017145007         VISHNEVETSKY IRINA,T225 N BEAUMONT AVE                      000N        CARE OF             
MTR08545500001000000000000000RA              00140370    005801050000010500000570000003NN  NNW 000                       N    
RDG08545500WATRL000000004K00000000000000876006702032015103226N000000000000U84       000030400K 10000000010000000861           
CUS0854550000108017146005         BROADWATER BENJAMIN 221 N BEAUMONT AVE                      000N        CARE OF             
MTR08545500001000000000000000RA              29681360    005801060000010600000520000003NN  NNW 000                       N    
RDG08545500WATRL000000004K00000000000003283006802032015103231N000000000000U84       000050400K 10000000010000003260           
CUS0854550000108017147003         KELLMAN AARON J     219 N BEAUMONT AVE                      000N        CARE OF             
MTR08545500001000000000000000RA              24772463    005801070000010700000520000003NN  NNW 000                       N    
RDG08545500WATRL000000004K00000000000004493006902032015103237N000000000000U84       000060400K 10000000010000004484           
CUS0854550000108017148001         GUBRICKY THOMAS     217 N BEAUMONT AVE                      000N        CARE OF             
MTR08545500001000000000000000RA              10015733    005801080000010800000570000003NN  NNW 000                       N    
RDG08545500WATRL000000004K00000000000000274007002032015103241N000000000000U84       000040400K 10000000010000000261           
CUS0854550000108017149009         MANSFIELD BRIAN C   215 N BEAUMONT AVE                      000N        CARE OF             
MTR08545500001000000000000000RA              31581213    005801090000010900000520000003NN  NNW 000                       N    
RDG08545500WATRL000000004K00000000000002983007102032015103245N000000000000U84       000040400K 10000000010000002963           
CUS0854550000108017150007         ROCA JONATHAN J     213 N BEAUMONT AVE                      000N        CARE OF             
MTR08545500001000000000000000RA              25781410    005801100000011000000520000003NN  NNW 000                       N    
RDG08545500WATRL000000004K00000000000002620007202032015103249N000000000000U84       000040400K 10000000010000002595           
CUS0854550000108017151005         WIRTH IRIN          211 N BEAUMONT AVE                      000N        CARE OF             
MTR08545500001000000000000000RA              45385554    005801110000011100000520000003NN  NNW 000                       N    
RDG08545500WATRL000000004K00000000000002806007302032015103253N000000000000U84       000040400K 10000000010000002801           
CUS0854550000108017152003         GESSERT BRUNO C     209 N BEAUMONT AVE                      000N        CARE OF             
MTR08545500001000000000000000RA              00140036    005801120000011200000570000003NN  NNW 000                       N    
RDG08545500WATRL000000004K00000000000001506007402032015103255N000000000000U84       000020400K 10000000010000001486           
CUS0854550000108017153001         TUCKER GENE L,JR    207 N BEAUMONT AVE                      000N        CARE OF             
MTR08545500001000000000000000RA              24757478    005801130000011300000520000003NN  NNW 000                       N    
RDG08545500WATRL000000004K00000000000002657007502032015103258N000000000000U84       000030400K 10000000010000002642           
CUS0854550000108017154009         WOOTEN ROBERT L     205 N BEAUMONT AVE                      000N        CARE OF             
MTR08545500001000000000000000RA              24762316    005801140000011400000520000003NN  NNW 000                       N    
RDG08545500WATRL000000004K00000000000002452007602032015103301N000000000000U84       000030400K 10000000010000002452           
CUS0854550000108017155006         POISAL JEROME       203 N BEAUMONT AVE                      000N        CARE OF             
MTR08545500001000000000000000RA              35106325    005801150000011500000520000003NN  NNW 000                       N    
RDG08545500WATRL000000004K00000000000005128007702032015103306N000000000000U84       000050400K 10000000010000005091           
CUS0854550000108017156004         AELLO DOMINIC M.    201 N BEAUMONT AVE                      000N        CARE OF             
MTR08545500001000000000000000RA              35106320    005801160000011600000520000003NN  NNW 000                       N    
RDG08545500WATRL000000004K00000000000001625007802032015103309N000000000000U84       000030400K 10000000010000001614           
CUS0854550000108017157002         THE JOHN J CAREY TRU1100 EDMONDSON AVE                      000N        CARE OF             
MTR08545500001000000000000000RA              24763109    005801170000011700000520000003NN  NNW 000                       N    
RDG08545500WATRL000000004K00000000000001726006402032015100832N000000000000U84       000510400K 10000000010000001712           
CUS0854550000108017158000         SCHATZ JOHN F       1104 EDMONDSON AVE                      000N        CARE OF             
MTR08545500001000000000000000RA              99188255    005801180000011800000520000003NN  NNW 000                       N    
RDG08545500WATRL000000004K00000000000000353006202032015100738N000000000000U84       000470400K 10000000010000000353           
CUS0854550000108017159008         SCHATZ JOHN J       1106 EDMONDSON AVE                      000N        CARE OF             
MTR08545500001000000000000000RA              52289806    005801190000011900000520000003NN  NNW 000                       N    
RDG08545500WATRL000000004K00000000000002279006302032015100741N000000000000U84       000030400K 10000000010000002257           
CUS0854550000108017160006         DEVORE DOROTHY COBUR1110 EDMONDSON AVE                      000N        CARE OF             
MTR08545500001000000000000000RA              01094912    005801200000012000000610000003NN  NNW 000                       N    
RDG08545500WATRL000000004K00000000000000617006102032015100651N000000000000U84       000220400K 10000000010000000608           
CUS0854550000108017161004         SNOOK AMANDA        1112 EDMONDSON AVE                      000N        CARE OF             
MTR08545500001000000000000000RA              01111130    005801210000012100000610000003NN  NNW 000                       N    
RDG08545500WATRL000000004K00000000000000438006002032015100629N000000000000U84       000570400K 10000000010000000429           
CUS0854550000108017162002         MILETIC IGOR        200 OSBORNE AVE                         000N        CARE OF             
MTR08545500001000000000000000RA              38985323    005801220000012200000520000003NN  NNW 000                       N    
RDG08545500WATRL000000004K00000000000001811000101302015142752N000000000000U84       000000400K 10000000010000001805           
CUS0854550000108017163000         DAISY B. TRAVERS EST202 OSBORNE AVE                         000N        CARE OF             
MTR08545500001000000000000000RA              10004023    005801230000012300000570000003NN  NNW 000                       N    
RDG08545500WATRL000000004K00000000000000299000201302015142812N000000000020U84       000200400K 10000000010000000284           
CUS0854550000108017164008         JERRY HAZELWOOD     204 OSBORNE AVE                         000N        CARE OF             
MTR08545500001000000000000000RA              39289331    005801240000012400000520000003NN  NNW 000                       N    
RDG08545500WATRL000000004K00000000000001783000301302015142819N000000000010U84       000070400K 10000000010000001773           
CUS0854550000108017165005         MILLER RICHARD L    206 OSBORNE AVE                         000N        CARE OF             
MTR08545500001000000000000000RA              39289332    005801250000012500000520000003NN  NNW 000                       N    
RDG08545500WATRL000000004K00000000000001815000401302015142824N000000000010U84       000050400K 10000000010000001805           
CUS0854550000108017166003         DIEHL F CATHERINE   208 OSBORNE AVE                         000N        CARE OF             
MTR08545500001000000000000000RA              32898179    005801260000012600000520000003NN  NNW 000                       N    
RDG08545500WATRL000000004K00000000000002531000501302015142841N000000000020U84       000170400K 10000000010000002516           
CUS0854550000108017167001         UHL LOUIS C         210 OSBORNE AVE                         000N        CARE OF             
MTR08545500001000000000000000RA              23050390    005801270000012700000520000003NN  NNW 000                       N    
RDG08545500WATRL000000004K00000000000002319000601302015142905N000000000020U84       000240400K 10000000010000002304           
CUS0854550000108017168009         SIMMEN PAUL H       212 OSBORNE AVE                         000N        CARE OF             
MTR08545500001000000000000000RA              11327178    005801280000012800000570000003NN  NNW 000                       N    
RDG08545500WATRL000000004K00000000000002764000701302015142913N000000000010U84       000080400K 10000000010000002754           
CUS0854550000108017169007         PELESKY STEPHANIE A 214 OSBORNE AVE                         000N        CARE OF             
MTR08545500001000000000000000RA              29403685    005801290000012900000520000003NN  NNW 000                       N    
RDG08545500WATRL000000004K00000000000002827000801302015142952N000000000010U84       000390400K 10000000010000002817           
CUS0854550000108017170005         BARBER JOHN T,JR    216 OSBORNE AVE                         000N        CARE OF             
MTR08545500001000000000000000RA              41075450    005801300000013000000520000003NN  NNW 000                       N    
RDG08545500WATRL000000004K00000000000001892000901302015142958N000000000010U84       000060400K 10000000010000001882           
CUS0854550000108017171003         LOUIS G REYES JR.   218 OSBORNE AVE                         000N        CARE OF             
MTR08545500001000000000000000RA              11329093    005801310000013100000570000003NN  NNW 000                       N    
RDG08545500WATRL000000004K00000000000003147001001302015143037N000000000060U84       000390400K 10000000010000003122           
CUS0854550000108017172001         BEARD DOUGLAS BRIAN 220 OSBORNE AVE                         000N        CARE OF             
MTR08545500001000000000000000RA              01094080    005801320000013200000610000003NN  NNW 000                       N    
RDG08545500WATRL000000004K00000000000001660001101302015143047N000000000020U84       000100400K 10000000010000001645           
CUS0854550000108017173009         STANCO ANITA KAREN  222 OSBORNE AVE                         000N        CARE OF             
MTR08545500001000000000000000RA              01094674    005801330000013300000610000003NN  NNW 000                       N    
RDG08545500WATRL000000004K00000000000001778001201302015143100N000000000020U84       000130400K 10000000010000001763           
CUS0854550000108017174007         WALTEMIRE JENNIFER R224 OSBORNE AVE                         000N        CARE OF             
MTR08545500001000000000000000RA              41076949    005801340000013400000520000003NN  NNW 000                       N    
RDG08545500WATRL000000004K00000000000002215001301302015143108N000000000020U84       000080400K 10000000010000002200           
CUS0854550000108017175004         TALLMAN JOSHUA/LEEAN226 OSBORNE AVE                         000N        CARE OF             
MTR08545500001000000000000000RA              41076984    005801350000013500000520000003NN  NNW 000                       N    
RDG08545500WATRL000000004K00000000000001699001401302015143141N000000000010U84       000330400K 10000000010000001689           
CUS0854550000108017176002         SCHATZ JOSEPH M     228 OSBORNE AVE                         000N        CARE OF             
MTR08545500001000000000000000RA              25783588    005801360000013600000520000003NN  NNW 000                       N    
RDG08545500WATRL000000004K00000000000006268001501302015143144N000000000000U84       000030400K 10000000010000006268           
CUS0854550000108017177000         SCHATZ JOSEPH M     230 OSBORNE AVE                         000N        CARE OF             
MTR08545500001000000000000000RA              40323338    005801370000013700000520000003NN  NNW 000                       N    
RDG08545500WATRL000000004K00000000000002603001601302015143152N000000000010U84       000080400K 10000000010000002593           
CUS0854550000108017178008         LENTZ HENRY F       232 OSBORNE AVE                         000N        CARE OF             
MTR08545500001000000000000000RA              41074521    005801380000013800000520000003NN  NNW 000                       N    
RDG08545500WATRL000000004K00000000000001876001701302015143157N000000000010U84       000050400K 10000000010000001866           
CUS0854550000108017179006         COATES JOSEPH M     1110 HUBNER AVE                         000N        CARE OF             
MTR08545500001000000000000000RA              29681361    005801390000013900000520000003NN  NNW 000                       N    
RDG08545500WATRL000000004K00000000000001605001801302015143208N000000000000U84       000110400K 10000000010000001600           
CUS0854550000108017180004         QUAID PETER J       300 OSBORNE AVE                         000N        CARE OF             
MTR08545500001000000000000000RA              01086363    005801400000014000000610000003NN  NNW 000                       N    
RDG08545500WATRL000000004K00000000000000881001901302015143216N000000000010U84       000080400K 10000000010000000871           
CUS0854550000108017181002         BAFFORD JOHN M      302 OSBORNE AVE                         000N        CARE OF             
MTR08545500001000000000000000RA              10015730    005801410000014100000570000003NN  NNW 000                       N    
RDG08545500WATRL000000004K00000000000000328002001302015143251N000000000030U84       000350400K 10000000010000000313           
CUS0854550000108017182000         GREEN WILLIAM J     304 OSBORNE AVE                         000N        CARE OF             
MTR08545500001000000000000000RA              00140288    005801420000014200000570000003NN  NNW 000                       N    
RDG08545500WATRL000000004K00000000000001491002101302015143312N000000000020U84       000210400K 10000000010000001476           
CUS0854550000108017183008         CHALK RUSSELL W,3RD 306 OSBORNE AVE                         000N        CARE OF             
MTR08545500001000000000000000RA              41075469    005801430000014300000520000003NN  NNW 000                       N    
RDG08545500WATRL000000004K00000000000002982002201302015143411N000000000050U84       000590400K 10000000010000002957           
CUS0854550000108017184006         BEZOLD LAWRENCE H   308 OSBORNE AVE                         000N        CARE OF             
MTR08545500001000000000000000RA              41588481    005801440000014400000520000003NN  NNW 000                       N    
RDG08545500WATRL000000004K00000000000003109002301302015143457N000000000020U84       000460400K 10000000010000003094           
CUS0854550000108017185003         GRAVES NORMA L      310 OSBORNE AVE                         000N        CARE OF             
MTR08545500001000000000000000RA              11335627    005801450000014500000570000003NN  NNW 000                       N    
RDG08545500WATRL000000004K00000000000004164002202032015094225N000000000000U84       002810400K 10000000010000004155           
CUS0854550000108017186001         BELZER MATTHEW P    312 OSBORNE AVE                         000N        CARE OF             
MTR08545500001000000000000000RA              33079817    005801460000014600000520000003NN  NNW 000                       N    
RDG08545500WATRL000000004K00000000000002542002302032015094255N000000000000U84       000300400K 10000000010000002500           
CUS0854550000108017187009         SMITH MATTHEW J     314 OSBORNE AVE                         000N        CARE OF             
MTR08545500001000000000000000RA              9687011     005801470000014700000570000003NN  NNW 000                       N    
RDG08545500WATRL000000004K00000000000004151002402032015094348N000000000000U84       000530400K 10000000010000004139           
CUS0854550000108017188007         JOHN F SHEAHAN,JR   316 OSBORNE AVE                         000N        CARE OF             
MTR08545500001000000000000000RA              27826970    005801480000014800000520000003NN  NNW 000                       N    
RDG08545500WATRL000000004K00000000000003607008202032015105717N000000000000U84       002220400K 10000000010000003596           
CUS0854550000108017189005         JEWETT THOMAS J     318 OSBORNE AVE                         000N        CARE OF             
MTR08545500001000000000000000RA              11331107    005801490000014900000570000003NN  NNW 000                       N    
RDG08545500WATRL000000004K00000000000005684002502032015094524N000000000000U84       000960400K 10000000010000005668           
CUS0854550000108017190003         LYTWYNEC MARY ELAINE320 OSBORNE AVE                         000N        CARE OF             
MTR08545500001000000000000000RA              10000155    005801500000015000000570000003NN  NNW 000                       N    
RDG08545500WATRL000000004K00000000000000383002602032015094628N000400000010U84       000640400K 10000000010000000372           
CUS0854550000108017191001         SERIO JOSEPH E      322 OSBORNE AVE                         000N        CARE OF             
MTR08545500001000000000000000RA              44172221    005801510000015100000520000003NN  NNW 000                       N    
RDG08545500WATRL000000004K00000000000001515008302032015110047N000000000000U84       002100400K 10000000010000001513           
CUS0854550000108017192009         STEWART MARY D      324 OSBORNE AVE                         000N        CARE OF             
MTR08545500001000000000000000RA              11335267    005801520000015200000570000003NN  NNW 000                       N    
RDG08545500WATRL000000004K00000000000004811002702032015094717N000000000000U84       000490400K 10000000010000004801           
CUS0854550000108017193007         DOOLEY SHAWN D      326 OSBORNE AVE                         000N        CARE OF             
MTR08545500001000000000000000RA              11335286    005801530000015300000570000003NN  NNW 000                       N    
RDG08545500WATRL000000004K00000000000005457002802032015094739N000000000000U84       000220400K 10000000010000005438           
CUS0854550000108017194005         DEMBSKI KAREN C     327 OSBORNE AVE                         000N        CARE OF             
MTR08545500001000000000000000RA              27819563    005801540000015400000520000003NN  NNW 000                       N    
RDG08545500WATRL000000004K00000000000002964002902032015094807N000000000000U84       000280400K 10000000010000002945           
CUS0854550000108017195002         SCHLEIN NATHAN L    325 OSBORNE AVE                         000N        CARE OF             
MTR08545500001000000000000000RA              11330314    005801550000015500000570000003NN  NNW 000                       N    
RDG08545500WATRL000000004K00000000000004518003002032015094828N000000000000U84       000210400K 10000000010000004506           
CUS0854550000108017196000         LAPOINT CHARLES E   323 OSBORNE AVE                         000N        CARE OF             
MTR08545500001000000000000000RA              46881294    005801560000015600000520000003NN  NNW 000                       N    
RDG08545500WATRL000000004K00000000000002063003102032015094851N000000000000U84       000230400K 10000000010000002048           
CUS0854550000108017197008         PRUNTY ERIC A       321 OSBORNE AVE                         000N        CARE OF             
MTR08545500001000000000000000RA              19461323    005801570000015700000520000003NN  NNW 000                       N    
RDG08545500WATRL000000004K00000000000003386003202032015094919N000000000000U84       000280400K 10000000010000003363           
CUS0854550000108017198006         MEALEY DONNA F      319 OSBORNE AVE                         000N        CARE OF             
MTR08545500001000000000000000RA              00140293    005801580000015800000570000003NN  NNW 000                       N    
RDG08545500WATRL000000004K00000000000000722003302032015094953N000000000000U84       000340400K 10000000010000000707           
CUS0854550000108017199004         GERMAN MARTIN W     317 OSBORNE AVE                         000N        CARE OF             
MTR08545500001000000000000000RA              11330399    005801590000015900000570000003NN  NNW 000                       N    
RDG08545500WATRL000000004K00000000000003589003402032015095016N000000000000U84       000230400K 10000000010000003586           
CUS0854550000108017200000         SHEK CHARLES F      315 OSBORNE AVE                         000N        CARE OF             
MTR08545500001000000000000000RA              9687251     005801600000016000000570000003NN  NNW 000                       N    
RDG08545500WATRL000000004K00000000000005661003502032015095104N000000000000U84       000480400K 10000000010000005661           
CUS0854550000108017201008         WATERS ANNE G       313 OSBORNE AVE                         000N        CARE OF             
MTR08545500001000000000000000RA              41075320    005801610000016100000520000003NN  NNW 000                       N    
RDG08545500WATRL000000004K00000000000002035003602032015095159N000000000000U84       000550400K 10000000010000002021           
CUS0854550000108017202006         KELLOUGH RICHARD K  311 OSBORNE AVE                         000N        CARE OF             
MTR08545500001000000000000000RA              00140289    005801620000016200000570000003NN  NNW 000                       N    
RDG08545500WATRL000000004K00000000000000735003702032015095305N000000000000U84       000660400K 10000000010000000725           
CUS0854550000108017203004         MARK BUCKHOLZ       309 OSBORNE AVE                         000N        CARE OF             
MTR08545500001000000000000000RA              27823539    005801630000016300000520000003NN  NNW 000                       N    
RDG08545500WATRL000000004K00000000000001912003802032015095348N000000000000U84       000430400K 10000000010000001900           
CUS0854550000108017204002         DENNIS CHRISTINA M  307 OSBORNE AVE                         000N        CARE OF             
MTR08545500001000000000000000RA              38985408    005801640000016400000520000003NN  NNW 000                       N    
RDG08545500WATRL000000004K00000000000002832003902032015095529N000000000000U84       001010400K 10000000010000002804           
CUS0854550000108017205009         RITZ JULIA F        305 OSBORNE AVE                         000N        CARE OF             
MTR08545500001000000000000000RA              6754675     005801650000016500000580000003NN  NNW 000                       N    
RDG08545500WATRL000000004K00000000000000880004002032015095624N000000000010U84       000550400K 10000000010000000852           
CUS0854550000108017206007         VANDAMME NOBUKO SAKA303 OSBORNE AVE                         000N        CARE OF             
MTR08545500001000000000000000RA              41075448    005801660000016600000520000003NN  NNW 000                       N    
RDG08545500WATRL000000004K00000000000000803004102032015095650N000000000000U84       000260400K 10000000010000000797           
CUS0854550000108017207005         BERRY GORDON R      301 OSBORNE AVE                         000N        CARE OF             
MTR08545500001000000000000000RA              99389052    005801670000016700000570000003NN  NNW 000                       N    
RDG08545500WATRL000000004K00000000000001505004202032015095754N000000000000U84       000640400K 10000000010000001481           
CUS0854550000108017208003         VARGO VIRGINIA LEE  1204 HUBNER AVE                         000N        CARE OF             
MTR08545500001000000000000000RA              00140369    005801680000016800000570000003NN  NNW 000                       N    
RDG08545500WATRL000000004K00000000000000404004302032015095855N000300000010U84       000610400K 10000000010000000357           
CUS0854550000108017209001         CRAWFORD JEFFREY LEE1201 HUBNER AVE                         000N        CARE OF             
MTR08545500001000000000000000RA              39923797    005801690000016900000520000003NN  NNW 000                       N    
RDG08545500WATRL000000004K00000000000002217004402032015095917N000000000000U84       000220400K 10000000010000002217           
CUS0854550000108017210009         BRYAN ZAW HEIN      229 OSBORNE AVE                         000N        CARE OF             
MTR08545500001000000000000000RA              39923794    005801700000017000000520000000NN  NNW 000                       N    
RDG08545500WATRL000000004K00000000000001492004502032015095940N000000000000U84       000230400K 10000000010000001480           
CUS0854550000108017211007         SADLER MARY LOU     227 OSBORNE AVE                         000N        CARE OF             
MTR08545500001000000000000000RA              45381195    005801710000017100000520000003NN  NNW 000                       N    
RDG08545500WATRL000000004K00000000000001114004602032015100018N000000000000U84       000380400K 10000000010000001109           
CUS0854550000108017212005         EDWARDS JUDITH K    225 OSBORNE AVE                         000N        CARE OF             
MTR08545500001000000000000000RA              24220038    005801720000017200000520000003NN  NNW 000                       N    
RDG08545500WATRL000000004K00000000000004197004702032015100026N000000000000U84       000080400K 10000000010000004183           
CUS0854550000108017213003         CLAFLIN JEANNE W    223 OSBORNE AVE                         000N        CARE OF             
MTR08545500001000000000000000RA              38985410    005801730000017300000520000003NN  NNW 000                       N    
RDG08545500WATRL000000004K00000000000001179004802032015100110N000000000000U84       000440400K 10000000010000001173           
CUS0854550000108017214001         MURPHY BRIAN C      221 OSBORNE AVE                         000N        CARE OF             
MTR08545500001000000000000000RA              38985325    005801740000017400000520000003NN  NNW 000                       N    
RDG08545500WATRL000000004K00000000000001121004902032015100146N000000000000U84       000360400K 10000000010000001090           
CUS0854550000108017215008         PAMELA G CLARKE     219 OSBORNE AVE                         000N        CARE OF             
MTR08545500001000000000000000RA              41075446    005801750000017500000520000003NN  NNW 000                       N    
RDG08545500WATRL000000004K00000000000001982005002032015100215N000000000000U84       000290400K 10000000010000001975           
CUS0854550000108017216006         PELESKY CHARLES W   217 OSBORNE AVE                         000N        CARE OF             
MTR08545500001000000000000000RA              41075103    005801760000017600000520000003NN  NNW 000                       N    
RDG08545500WATRL000000004K00000000000001872005102032015100225N000000000000U84       000100400K 10000000010000001851           
CUS0854550000108017217004         KRABITZ KENNETH     215 OSBORNE AVE                         000N        CARE OF             
MTR08545500001000000000000000RA              39925526    005801770000017700000520000003NN  NNW 000                       N    
RDG08545500WATRL000000004K00000000000002248005202032015100254N000000000000U84       000290400K 10000000010000002224           
CUS0854550000108017218002         HILTON MARK K       213 OSBORNE AVE                         000N        CARE OF             
MTR08545500001000000000000000RA              39925529    005801780000017800000520000003NN  NNW 000                       N    
RDG08545500WATRL000000004K00000000000004104005302032015100307N000000000000U84       000130400K 10000000010000004079           
CUS0854550000108017219000         SHELTON JOSEPH W    211 OSBORNE AVE                         000N        CARE OF             
MTR08545500001000000000000000RA              32898304    005801790000017900000520000003NN  NNW 000                       N    
RDG08545500WATRL000000004K00000000000002273005402032015100338N000000000000U84       000310400K 10000000010000002267           
CUS0854550000108017220008         REINECKE BRENDA G   209 OSBORNE AVE                         000N        CARE OF             
MTR08545500001000000000000000RA              32898300    005801800000018000000520000003NN  NNW 000                       N    
RDG08545500WATRL000000004K00000000000002613005502032015100343N000000000000U84       000050400K 10000000010000002592           
CUS0854550000108017221006         RANDY'S REHAB LLC   207 OSBORNE AVE                         000N        CARE OF             
MTR08545500001000000000000000RA              01079186    005801810000018100000610000003NN  NNW 000                       N    
RDG08545500WATRL000000004K00000000000000368005602032015100424N000000000000U84       000410400K 10000000010000000357           
CUS0854550000108017222004         C AND R GROUP LLC   205 OSBORNE AVE                         000N        CARE OF             
MTR08545500001000000000000000RA              01080453    005801820000018200000610000003NN  NNW 000                       N    
RDG08545500WATRL000000004K00000000000000898005702032015100445N000100000010U84       000210400K 10000000010000000898           
CUS0854550000108017223002         BALL KATHLEEN CECELI203 OSBORNE AVE                         000N        CARE OF             
MTR08545500001000000000000000RA              00140294    005801830000018300000570000003NN  NNW 000                       N    
RDG08545500WATRL000000004K00000000000000537005802032015100520N000000000000U84       000350400K 10000000010000000531           
CUS0854550000108017224000         STOVER TROY A       201 OSBORNE AVE                         000N        CARE OF             
MTR08545500001000000000000000RA              00140291    005801840000018400000570000003NN  NNW 000                       N    
RDG08545500WATRL000000004K00000000000002052005902032015100532N000000000000U84       000120400K 10000000010000002002           
CUS0854550000108017991004         JASON A. FERRARA    907 EDMONDSON AVE                       000N        CARE OF             
MTR08545500001000000000000000RA              75615260    005801850000018500000350000003NN  NNW 000                       N    
RDG08545500WATRL000000004K00000000000000020004602022015111118N000000000000U84       000490400K 10000000010000000020           
CUS0854550000108017992002         HUFF GREGORY R      905 EDMONDSON AVE                       000N        CARE OF             
MTR08545500001000000000000000RA              26015372    005801860000018600000520000003NN  NNW 000                       N    
RDG08545500WATRL000000004K00000000000003288004702022015111138N000000000000U84       000200400K 10000000010000003269           
CUS0854550000108017993000         NIEMAN DAVID A      903 EDMONDSON AVE                       000N        CARE OF             
MTR08545500001000000000000000RA              99388727    005801870000018700000570000003NN  NNW 000                       N    
RDG08545500WATRL000000004K00000000000000592004802022015111155N000000000000U84       000170400K 10000000010000000580           
RTR08545500NN01870187000001870000000001870187000159NY018701870187000000020000000000000000000002    01222015NY020000 N         
RHD08548000NN01830183000001830000000001830183000211NY018301830183000100000000000000000000000002    01232015NY020000 N         
CUS0854800000108411120002         300 FREDERICK ROAD  300 FREDERICK RD                        000N        CARE OF             
MTR08548000001000000000000000RA              43904828    007500010000000100000520000003NN  NNW 000                       N    
RDG08548000WATRL000000004K00000000000008630002902092015092540N000400000010N88       001110400K 10000000010000008581           
CUS0854800000108145276005         LAVIN CONSTANCE MALI308 FREDERICK RD                        000N        CARE OF             
MTR08548000001000000000000000RA              44172506    005800020000000200000520000003NN  NNW 000                       N    
RDG08548000WATRL000000004K00000000000002284002802092015092349N000000000010N88       000770400K 10000000010000002268           
CUS0854800000108145277003         ELY DANNY D         310 FREDERICK RD                        000N        CARE OF             
MTR08548000001000000000000000RA              30516212    005800030000000300000520000003NN  NNW 000                       N    
RDG08548000WATRL000000004K00000000000002963002702092015092232N000000000000N88       000720400K 10000000010000002937           
CUS0854800000108145278001         PHELPS EMILY LEE    1 GLENWOOD AVE                          000N        CARE OF             
MTR08548000001000000000000000RA              30524356    005800040000000400000520000003NN  NNW 000                       N    
RDG08548000WATRL000000004K00000000000001634003002092015092816N000300000010N88       001560400K 10000000010000001603           
CUS0854800000108145279009         LEIKVOLL OLAF       3 GLENWOOD AVE                          000N        CARE OF             
MTR08548000001000000000000000RA              01079125    005800050000000500000610000003NN  NNW 000                       N    
RDG08548000WATRL000000004K00000000000001416003102092015092849N000000000000N88       000330400K 10000000010000001402           
CUS0854800000108145280007         AKAMINE BRADLEY H   5 GLENWOOD AVE                          000N        CARE OF             
MTR08548000001000000000000000RA              44173892    005800060000000600000520000003NN  NNW 000                       N    
RDG08548000WATRL000000004K00000000000001550003202092015092915N000400000010N88       000260400K 10000000010000001541           
CUS0854800000108145281005         BUTLER WILLIAM K    7 GLENWOOD AVE                          000N        CARE OF             
MTR08548000001000000000000000RA              14918692    005800070000000700000310000003NN  NNW 000                       N    
RDG08548000WATRL000000004K00000000000000433003302092015092945N000000000000N88       000300400K 10000000010000000425           
CUS0854800000108145282003         ADOLPHI MICHAEL P   9 GLENWOOD AVE                          000N        CARE OF             
MTR08548000001000000000000000RA              22609108    005800080000000800000520000003NN  NNW 000                       N    
RDG08548000WATRL000000004K00000000000002574003402092015093011N000000000000N88       000260400K 10000000010000002568           
CUS0854800000108145283001         LILLEY JOHN C,JR    11 GLENWOOD AVE                         000N        CARE OF             
MTR08548000001000000000000000RA              52289886    005800090000000900000520000003NN  NNW 000                       N    
RDG08548000WATRL000000004K00000000000001855003502092015093037N000000000000N88       000260400K 10000000010000001821           
CUS0854800000108145284009         ALBERT LAURA W      15 GLENWOOD AVE                         000N        CARE OF             
MTR08548000001000000000000000RA              00137168    005800100000001000000570000003NN  NNW 000                       N    
RDG08548000WATRL000000004K00000000000001123003602092015093118N000000000000N88       000410400K 10000000010000001111           
CUS0854800000108145285006         FAUVER PAUL H,SR    17 GLENWOOD AVE                         000N        CARE OF             
MTR08548000001000000000000000RA              48594601    005800110000001100000520000003NN  NNW 000                       N    
RDG08548000WATRL000000004K00000000000000755003702092015093147N000000000000N88       000290400K 10000000010000000747           
CUS0854800000108145286004         HUNT MARY HELEN     19 GLENWOOD AVE                         000N        CARE OF             
MTR08548000001000000000000000RA              36698240    005800120000001200000520000003NN  NNW 000                       N    
RDG08548000WATRL000000004K00000000000001898003802092015093208N000000000000N88       000210400K 10000000010000001881           
CUS0854800000108145287002         HIGGS WALTER        21 GLENWOOD AVE                         000N        CARE OF             
MTR08548000001000000000000000RA              37690564    007500130000001300000520000003NN  NNW 000                       N    
RDG08548000WATRL000000004K00000000000009464003902092015093239N000000000000N88       000310400K 10000000010000009438           
CUS0854800000108432717000         NGUYEN QUANG D      23 GLENWOOD AVE                         000N        CARE OF             
MTR08548000001000000000000000RA              01082448    005800140000001400000610000003NN  NNW 000                       N    
RDG08548000WATRL000000004K00000000000001301004002092015093304N000000000000N88       000250400K 10000000010000001266           
CUS0854800000108145288000         TUERKE LILLIAN M    25 GLENWOOD AVE                         000N        CARE OF             
MTR08548000001000000000000000RA              01075724    005800150000001500000610000003NN  NNW 000                       N    
RDG08548000WATRL000000004K00000000000000319004102092015093328N000000000000N88       000240400K 10000000010000000313           
CUS0854800000108145289008         LIMPERT FRED H,JR   27 GLENWOOD AVE                         000N        CARE OF             
MTR08548000001000000000000000RA              11330727    005800160000001600000570000003NN  NNW 000                       N    
RDG08548000WATRL000000004K00000000000003811004202092015093401N000000000000N88       000330400K 10000000010000003799           
CUS0854800000108145290006         BOSCH GEORGE J,JR   29 GLENWOOD AVE                         000N        CARE OF             
MTR08548000001000000000000000RA              01079122    005800170000001700000610000003NN  NNW 000                       N    
RDG08548000WATRL000000004K00000000000000939004302092015093425N000000000000N88       000240400K 10000000010000000928           
CUS0854800000108145291004         DINES STEPHANIE A   31 GLENWOOD AVE                         000N        CARE OF             
MTR08548000001000000000000000RA              11336558    005800180000001800000570000003NN  NNW 000                       N    
RDG08548000WATRL000000004K00000000000001674004402092015093503N000000000000N88       000380400K 10000000010000001669           
CUS0854800000108145292002         SZEKELY SUSAN       33 GLENWOOD AVE                         000N        CARE OF             
MTR08548000001000000000000000RA              77886665    005800190000001900000350000003NN  NNW 000                       N    
RDG08548000WATRL000000004K00000000000000013004502092015093533N000000000000N88       000300400K 10000000010000000004           
CUS0854800000108145293000         ROEDER DORIS J      35 GLENWOOD AVE                         000N        CARE OF             
MTR08548000001000000000000000RA              01115309    005800200000002000000610000003NN  NNW 000                       N    
RDG08548000WATRL000000004K00000000000000160004602092015093613N000000000000N88       000400400K 10000000010000000157           
CUS0854800000108145294008         FINN THOMAS PATRICK,37 GLENWOOD AVE                         000N        CARE OF             
MTR08548000001000000000000000RA              46880594    005800210000002100000520000003NN  NNW 000                       N    
RDG08548000WATRL000000004K00000000000000398004702092015093651N000000000000N88       000380400K 10000000010000000395           
CUS0854800000108391028001         MURRAY WILLIAM P,JR 39 GLENWOOD AVE                         000N        CARE OF             
MTR08548000001000000000000000RA              99999999    007500220000002200000620000003NN  NNW 000                       N    
RDG08548000WATRL000000004K00000000000002154004802092015093726N000000000000N88       000350400K 10000000010000002148           
CUS0854800000108391027003         CAULK  ALLEN E      41 GLENWOOD AVE                         000N        CARE OF             
MTR08548000001000000000000000RA              36693363    005800230000002300000520000003NN  NNW 000                       N    
RDG08548000WATRL000000004K00000000000003662004902092015093823N000000000000N88       000570400K 10000000010000003647           
CUS0854800000108393178002         SNYDER ROBERT M     43 GLENWOOD AVE                         000N        CARE OF             
MTR08548000001000000000000000RA              36698162    005800240000002400000520000003NN  NNW 000                       N    
RDG08548000WATRL000000004K00000000000002641005002092015093915N000000000000N88       000520400K 10000000010000002623           
CUS0854800000108394227006         ROBBI LYNN HARTSOCK 45 GLENWOOD AVE                         000N        CARE OF             
MTR08548000001000000000000000RA              40049585    005800250000002500000520000003NN  NNW 000                       N    
RDG08548000WATRL000000004K00000000000001464005102092015093945N000000000000N88       000300400K 10000000010000001457           
CUS0854800000108393177004         MEADOR HELEN G      47 GLENWOOD AVE                         000N        CARE OF             
MTR08548000001000000000000000RA              36698163    005800260000002600000520000003NN  NNW 000                       N    
RDG08548000WATRL000000004K00000000000002191005202092015094034N000000000000N88       000490400K 10000000010000002174           
CUS0854800000108352661006         LILLEY CAROL A      57 GLENWOOD AVE                         000N        CARE OF             
MTR08548000001000000000000000RA              27832328    005800270000002700000520000003NN  NNW 000                       N    
RDG08548000WATRL000000004K00000000000003035005302092015094101N000000000000N88       000270400K 10000000010000002993           
CUS0854800000108145296003         KRUG EDWARD PATRICK 59 GLENWOOD AVE                         000N        CARE OF             
MTR08548000001000000000000000RA              21194057    005800280000002800000520000003NN  NNW 000                       N    
RDG08548000WATRL000000004K00000000000004544005402092015094140N000000000000N88       000390400K 10000000010000004525           
CUS0854800000108145297001         PRICE JEFFREY R     61 GLENWOOD AVE                         000N        CARE OF             
MTR08548000001000000000000000RA              21194089    005800290000002900000520000003NN  NNW 000                       N    
RDG08548000WATRL000000004K00000000000002283005502092015094222N000000000000N88       000420400K 10000000010000002282           
CUS0854800000108145298009         MOORE DAVID R       63 GLENWOOD AVE                         000N        CARE OF             
MTR08548000001000000000000000RA              99376060    007500300000003000000570000003NN  NNW 000                       N    
RDG08548000WATRL000000004K00000000000001754005602092015094256N000000000000N88       000340400K 10000000010000001726           
CUS0854800000108145299007         WENZEL CAROL ANN    103 GLENWOOD AVE                        000N        CARE OF             
MTR08548000001000000000000000RA              30525216    005800310000003100000520000003NN  NNW 000                       N    
RDG08548000WATRL000000004K00000000000001602005702092015094348N000000000000N88       000520400K 10000000010000001598           
CUS0854800000108145300003         WHEAT JESSICA       107 GLENWOOD AVE                        000N        CARE OF             
MTR08548000001000000000000000RA              22608001    005800320000003200000520000003NN  NNW 000                       N    
RDG08548000WATRL000000004K00000000000005101005802092015094432N000000000000N88       000440400K 10000000010000005073           
CUS0854800000108145301001         CARTER THOMAS J     109 GLENWOOD AVE                        000N        CARE OF             
MTR08548000001000000000000000RA              14918477    007500330000003300000310000003NN  NNW 000                       N    
RDG08548000WATRL000000004K00000000000000628005902092015094525N000000000000N88       000530400K 10000000010000000609           
CUS0854800000108145302009         MORGAN KENNETH R    113 GLENWOOD AVE                        000N        CARE OF             
MTR08548000001000000000000000RA              01079058    005800340000003400000610000003NN  NNW 000                       N    
RDG08548000WATRL000000004K00000000000001396006002092015094642N000000000000N88       000770400K 10000000010000001380           
CUS0854800000108145303007         MEDICUS MELVIN      117 GLENWOOD AVE                        000N        CARE OF             
MTR08548000001000000000000000RA              22608487    005800350000003500000520000003NN  NNW 000                       N    
RDG08548000WATRL000000004K00000000000004301006102092015094718N000000000000N88       000360400K 10000000010000004284           
CUS0854800000108145304005         STRAUSS ROBERT C    119 GLENWOOD AVE                        000N        CARE OF             
MTR08548000001000000000000000RA              00130479    005800360000003600000570000003NN  NNW 000                       N    
RDG08548000WATRL000000004K00000000000001394006202092015094827N000000000000N88       000690400K 10000000010000001379           
CUS0854800000108443281004         PREVATT TIMOTHY     515 EDMONDSON AVE                       000N        CARE OF             
MTR08548000001000000000000000RA              14929912    005800370000003700000310000003NN  NNW 000                       N    
RDG08548000WATRL000000004K00000000000000692006302092015094941N000000000000N88       000740400K 10000000010000000676           
CUS0854800000108145305002         MEIER ROBERT J,3RD  517 EDMONDSON AVE                       000N        CARE OF             
MTR08548000001000000000000000RA              00135181    005800380000003800000570000003NN  NNW 000                       N    
RDG08548000WATRL000000004K00000000000000692006402112015144632O000000000010N80       001310400K 10000000010000000687           
CUS0854800000108145306000         IVINS BRUCE T       605 EDMONDSON AVE                       000N        CARE OF             
MTR08548000001000000000000000RA              24773616    005800390000003900000520000003NN  NNW 000                       N    
RDG08548000WATRL000000004K00000000000004319006502092015095433N000000000000N88       001610400K 10000000010000004308           
CUS0854800000108145307008         HOSSBACH SHARON L   603 EDMONDSON AVE                       000N        CARE OF             
MTR08548000001000000000000000RA              25781288    005800400000004000000520000003NN  NNW 000                       N    
RDG08548000WATRL000000004K00000000000003217006602092015095516N000000000000N88       000430400K 10000000010000003194           
CUS0854800000108145308006         RHODES HOLLY        601 EDMONDSON AVE                       000N        CARE OF             
MTR08548000001000000000000000RA              75426665    005800410000004100000350000003NN  NNW 000                       N    
RDG08548000WATRL000000004K00000000000000053006702092015095519N000000000000N88       000030400K 10000000010000000045           
CUS0854800000108145309004         LAMBERT LORETTA J   118 GLENWOOD AVE                        000N        CARE OF             
MTR08548000001000000000000000RA              01079077    005800420000004200000610000003NN  NNW 000                       N    
RDG08548000WATRL000000004K00000000000000493006802092015095628N000000000010N88       000690400K 10000000010000000489           
CUS0854800000108145310002         DREW C MARTIN       116 GLENWOOD AVE                        000N        CARE OF             
MTR08548000001000000000000000RA              01079079    005800430000004300000610000003NN  NNW 000                       N    
RDG08548000WATRL000000004K00000000000000636006902092015095724N000000000001N88       000090400K 10000000010000000622           
CUS0854800000108145311000         LAUN JAMES A        114 GLENWOOD AVE                        000N        CARE OF             
MTR08548000001000000000000000RA              31587514    005800440000004400000520000003NN  NNW 000                       N    
RDG08548000WATRL000000004K00000000000002518007002092015095810N000000000000N88       000460400K 10000000010000002511           
CUS0854800000108145312008         RIESLING LLC        112 GLENWOOD AVE                        000N        CARE OF             
MTR08548000001000000000000000RA              01079057    005800450000004500000610000003NN  NNW 000                       N    
RDG08548000WATRL000000004K00000000000001748007102092015095842N000000000000N88       000320400K 10000000010000001726           
CUS0854800000108145313006         LAMY ANGELA KATHERYN110 GLENWOOD AVE                        000N        CARE OF             
MTR08548000001000000000000000RA              46879504    005800460000004600000520000003NN  NNW 000                       N    
RDG08548000WATRL000000004K00000000000001711007202092015095926N000000000000N88       000440400K 10000000010000001697           
CUS0854800000108145314004         REED ROSE M         106 GLENWOOD AVE                        000N        CARE OF             
MTR08548000001000000000000000RA              26000905    005800470000004700000520000003NN  NNW 000                       N    
RDG08548000WATRL000000004K00000000000003360007302092015100014N000000000000N88       000480400K 10000000010000003348           
CUS0854800000108145315001         CASSIZZI NICHOLAS D 102 GLENWOOD AVE                        000N        CARE OF             
MTR08548000001000000000000000RA              44088636    005800480000004800000520000003NN  NNW 000                       N    
RDG08548000WATRL000000004K00000000000001222007402092015100111N000000000000N88       000570400K 10000000010000001213           
CUS0854800000108145316009         STUMP CHARLES L,JR  100 GLENWOOD AVE                        000N        CARE OF             
MTR08548000001000000000000000RA              01079074    005800490000004900000610000003NN  NNW 000                       N    
RDG08548000WATRL000000004K00000000000000903007502092015100153N000000000000N88       000420400K 10000000010000000896           
CUS0854800000108145317007         PEARLMAN REESA      60 GLENWOOD AVE                         000N        CARE OF             
MTR08548000001000000000000000RA              32771823    005800500000005000000520000003NN  NNW 000                       N    
RDG08548000WATRL000000004K00000000000002459000102092015090318N000000000000N88       000000400K 10000000010000002441           
CUS0854800000108145318005         MYERS STEVEN A      58 GLENWOOD AVE                         000N        CARE OF             
MTR08548000001000000000000000RA              01079129    005800510000005100000610000003NN  NNW 000                       N    
RDG08548000WATRL000000004K00000000000000617000202092015090407N000000000000N88       000490400K 10000000010000000606           
CUS0854800000108145319003         CRAIG HILARY A      56 GLENWOOD AVE                         000N        CARE OF             
MTR08548000001000000000000000RA              01079120    005800520000005200000610000003NN  NNW 000                       N    
RDG08548000WATRL000000004K00000000000000599000302092015090434N000000000000N88       000270400K 10000000010000000588           
CUS0854800000108145320001         KUESSNER RUDOLPH J  54 GLENWOOD AVE                         000N        CARE OF             
MTR08548000001000000000000000RA              01079059    005800530000005300000610000003NN  NNW 000                       N    
RDG08548000WATRL000000004K00000000000000837000402092015090502N000000000000N88       000280400K 10000000010000000820           
CUS0854800000108145321009         EOIN T CONNERS      52 GLENWOOD AVE                         000N        CARE OF             
MTR08548000001000000000000000RA              32902441    005800540000005400000520000003NN  NNW 000                       N    
RDG08548000WATRL000000004K00000000000001856000502092015090549N000000000000N88       000470400K 10000000010000001845           
CUS0854800000108145322007         RAUSCH TROY DWAYNE  50 GLENWOOD AVE                         000N        CARE OF             
MTR08548000001000000000000000RA              01092755    005800550000005500000610000003NN  NNW 000                       N    
RDG08548000WATRL000000004K00000000000000615000602092015090637N000000000000N88       000480400K 10000000010000000593           
CUS0854800000108145323005         YANG SUNG C         48 GLENWOOD AVE                         000N        CARE OF             
MTR08548000001000000000000000RA              22606778    005800560000005600000520000003NN  NNW 000                       N    
RDG08548000WATRL000000004K00000000000005361000702092015090721N000000000000N88       000440400K 10000000010000005341           
CUS0854800000108145324003         JACKSON MATTHEW     46 GLENWOOD AVE                         000N        CARE OF             
MTR08548000001000000000000000RA              9685424     005800570000005700000570000003NN  NNW 000                       N    
RDG08548000WATRL000000004K00000000000005372000802092015090801N000000000000N88       000400400K 10000000010000005356           
CUS0854800000108145325000         TOOLE MARY C        44 GLENWOOD AVE                         000N        CARE OF             
MTR08548000001000000000000000RA              20968493    005800580000005800000520000003NN  NNW 000                       N    
RDG08548000WATRL000000004K00000000000006544000902092015090831N000000000000N88       000300400K 10000000010000006532           
CUS0854800000108145326008         DEL GIUDICE ANTHONY 40 GLENWOOD AVE                         000N        CARE OF             
MTR08548000001000000000000000RA              46884974    005800590000005900000520000003NN  NNW 000                       N    
RDG08548000WATRL000000004K00000000000001535001002092015090900N000000000000N88       000290400K 10000000010000001519           
CUS0854800000108145327006         COHEE GABRIEL Y     38 GLENWOOD AVE                         000N        CARE OF             
MTR08548000001000000000000000RA              22606774    005800600000006000000520000003NN  NNW 000                       N    
RDG08548000WATRL000000004K00000000000003986001102092015090941N000000000000N88       000410400K 10000000010000003969           
CUS0854800000108145328004         SPRING LINDA JANE   36 GLENWOOD AVE                         000N        CARE OF             
MTR08548000001000000000000000RA              38984949    005800610000006100000520000003NN  NNW 000                       N    
RDG08548000WATRL000000004K00000000000003173001202092015090945N000000000000N88       000040400K 10000000010000003145           
CUS0854800000108145329002         SCHMIDT KAREN F     30 GLENWOOD AVE                         000N        CARE OF             
MTR08548000001000000000000000RA              01079124    005800620000006200000610000003NN  NNW 000                       N    
RDG08548000WATRL000000004K00000000000001138001302092015091102N000000000000N88       000770400K 10000000010000001106           
CUS0854800000108145330000         MILLER GEORGE W,JR  24 GLENWOOD AVE                         000N        CARE OF             
MTR08548000001000000000000000RA              44002601    005800630000006300000520000003NN  NNW 000                       N    
RDG08548000WATRL000000004K00000000000003109001402092015091152N000000000000N88       000500400K 10000000010000003090           
CUS0854800000108145331008         DUNPHY SUSAN M      22 GLENWOOD AVE                         000N        CARE OF             
MTR08548000001000000000000000RA              30520993    005800640000006400000520000003NN  NNW 000                       N    
RDG08548000WATRL000000004K00000000000004457001502092015091205N000000000000N88       000130400K 10000000010000004406           
CUS0854800000108145332006         PRASTEIN ISAAC J    20 GLENWOOD AVE                         000N        CARE OF             
MTR08548000001000000000000000RA              00132269    005800650000006500000570000003NN  NNW 000                       N    
RDG08548000WATRL000000004K00000000000000057001602092015091317N000000000000N88       000720400K 10000000010000000057           
CUS0854800000108145333004         ALEJANDRO DENNIS    18 GLENWOOD AVE                         000N        CARE OF             
MTR08548000001000000000000000RA              25782338    005800660000006600000520000003NN  NNW 000                       N    
RDG08548000WATRL000000004K00000000000003159001702092015091410N000000000000N88       000530400K 10000000010000003146           
CUS0854800000108145334002         WIRE MARY BETH      16 GLENWOOD AVE                         000N        CARE OF             
MTR08548000001000000000000000RA              10017217    005800670000006700000570000003NN  NNW 000                       N    
RDG08548000WATRL000000004K00000000000000415001802092015091451N000000000000N88       000410400K 10000000010000000388           
CUS0854800000108145335009         KIRNER JOHN F,SR ETA14 GLENWOOD AVE                         000N        CARE OF             
MTR08548000001000000000000000RA              44002316    005800680000006800000520000003NN  NNW 000                       N    
RDG08548000WATRL000000004K00000000000001430001902092015091546N000000000000N88       000550400K 10000000010000001417           
CUS0854800000108145336007         LARSON NATHAN D     12 GLENWOOD AVE                         000N        CARE OF             
MTR08548000001000000000000000RA              71336432    005800690000006900000570000003NN  NNW 000                       N    
RDG08548000WATRL000000004K00000000000001883002002092015091615N000000000000N88       000290400K 10000000010000001878           
CUS0854800000108145337005         PARDOE ANNE J       10 GLENWOOD AVE                         000N        CARE OF             
MTR08548000001000000000000000RA              01075727    005800700000007000000610000003NN  NNW 000                       N    
RDG08548000WATRL000000004K00000000000000545002102092015091649N000000000000N88       000340400K 10000000010000000530           
CUS0854800000108145338003         STUMP JESSE         8 GLENWOOD AVE                          000N        CARE OF             
MTR08548000001000000000000000RA              14920795    005800710000007100000310000003NN  NNW 000                       N    
RDG08548000WATRL000000004K00000000000000421002202092015091737N000000000000N88       000480400K 10000000010000000413           
CUS0854800000108145339001         SHELLY A WIECHELT   6 GLENWOOD AVE                          000N        CARE OF             
MTR08548000001000000000000000RA              31945706    007500720000007200000520000003NN  NNW 000                       N    
RDG08548000WATRL000000004K00000000000002310002302092015091810N000000000010N88       000330400K 10000000010000002717           
CUS0854800000108145340009         DOMINGUEZ MARK ANTHO4 GLENWOOD AVE                          000N        CARE OF             
MTR08548000001000000000000000RA              14913009    005800730000007300000310000003NN  NNW 000                       N    
RDG08548000WATRL000000004K00000000000000565002402092015091905N000000000000N88       000550400K 10000000010000000551           
CUS0854800000108145341007         VANESSA J MANZITTI  2 GLENWOOD AVE                          000N        CARE OF             
