FHDNNNN016003428003428003428N                                                                                           010378
RHD04737000NN02480248000002480000000002480248000338NY024802480248000200020000000000000000000001    02062015NY020000 N         
CUS0473700000104129136000         GEILFUSS JOHN       9 AIGBURTH RD                           000N        CARE OF             
MTR04737000001000000000000000RA              26375281    007500010000000100000520000003NN  NNW 000                       N    
RDG04737000WATRL000000004K00000000000004276023802122015135239N000300000010N40       000590400K 10000000010000004238           
CUS0473700000104129137008         GEILFUSS JOHN F     15 AIGBURTH RD                          000N        CARE OF             
MTR04737000001000000000000000RA              32903497    005800020000000200000520000003NN  NNW 000                       N    
RDG04737000WATRL000000004K00000000000005017023702122015135140N000000000000N40       000310400K 10000000010000004987           
CUS0473700000104129138006         GIACOMO JACK L      17 AIGBURTH RD                          000N        CARE OF             
MTR04737000001000000000000000RA              22862015    005800030000000300000520000003NN  NNW 000                       N    
RDG04737000WATRL000000004K00000000000004549023602122015135109N000000000001N40       001010400K 10000000010000004533           
CUS0473700000104129139004         TROUPE SUSAN D      19 AIGBURTH RD                          000N        CARE OF             
MTR04737000001000000000000000RA              27825715    005800040000000400000520000003NN  NNW 000                       N    
RDG04737000WATRL000000004K00000000000003917023202122015134719N000000000000N40       000320400K 10000000010000003901           
CUS0473700000104129140002         PRESTON R SCHULZE   21 AIGBURTH RD                          000N        CARE OF             
MTR04737000001000000000000000RA              14919676    005800050000000500000310000003NN  NNW 000                       N    
RDG04737000WATRL000000004K00000000000000561023102122015134647N000000000000N40       000370400K 10000000010000000542           
CUS0473700000104129141000         PHELPS TIMOTHY H    23 AIGBURTH RD                          000N        CARE OF             
MTR04737000001000000000000000RA              22862156    005800060000000600000520000003NN  NNW 000                       N    
RDG04737000WATRL000000004K00000000000005459023002122015134610N000000000000N40       002680400K 10000000010000005442           
CUS0473700000104129142008         FIRST CHURCH OF CHRI201 AIGBURTH RD                         000N        CARE OF             
MTR04737000001000000000000000RA              36699694    000100070000000700000520000003NN  NNW 000                       N    
RDG04737000WATRL000000004K00000000000002459023502122015134928N000000000000N40       000500400K 10000000010000002443           
CUS0473700000104129143006         KIRBY LEONARD V     203 AIGBURTH RD                         000N        CARE OF             
MTR04737000001000000000000000RA              01102481    005800080000000800000610000003NN  NNW 000                       N    
RDG04737000WATRL000000004K00000000000000544022602122015134003N000000000000N40       001490400K 10000000010000000536           
CUS0473700000104129144004         GABELL GREGORY B    205 AIGBURTH RD                         000N        CARE OF             
MTR04737000001000000000000000RA              40321210    005800090000000900000520000003NN  NNW 000                       N    
RDG04737000WATRL000000004K00000000000002590022502122015133734N000000000000N40       000800400K 10000000010000002567           
CUS0473700000104129145001         SICARD ROBERT E     207 AIGBURTH RD                         000N        CARE OF             
MTR04737000001000000000000000RA              36689333    005800100000001000000520000003NN  NNW 000                       N    
RDG04737000WATRL000000004K00000000000000943022402122015133614N000000000000N40       000460400K 10000000010000000914           
CUS0473700000104129146009         TREPANIER MARCEL J  209 AIGBURTH RD                         000N        CARE OF             
MTR04737000001000000000000000RA              01116060    005800110000001100000610000003NN  NNW 000                       N    
RDG04737000WATRL000000004K00000000000000947022302122015133528N000000000000N40       000380400K 10000000010000000924           
CUS0473700000104129147007         TEGLASSY KRISZTINA  211 AIGBURTH RD                         000N        CARE OF             
MTR04737000001000000000000000RA              01116234    005800120000001200000610000003NN  NNW 000                       N    
RDG04737000WATRL000000004K00000000000000785022202122015133450N000000000000N40       013690400K 10000000010000000776           
CUS0473700000104129148005         RIVKIN SHEINA       202 AIGBURTH RD                         000N        CARE OF             
MTR04737000001000000000000000RA              22862009    005800130000001300000520000003NN  NNW 000                       N    
RDG04737000WATRL000000004K00000000000002183022702122015134031N000000000000N40       000280400K 10000000010000002154           
CUS0473700000104380068009         SCARINZI MARK       200 AIGBURTH RD                         000N        CARE OF             
MTR04737000001000000000000000RA              14913375    005800140000001400000310000003NN  NNW 000                       N    
RDG04737000WATRL000000004K00000000000000369022802122015134105N000000000000N40       000340400K 10000000010000000364           
CUS0473700000104129149003         SAWYER GEORGE W,JR  22 AIGBURTH RD                          000N        CARE OF             
MTR04737000001000000000000000RA              01111506    005800150000001500000610000003NN  NNW 000                       N    
RDG04737000WATRL000000004K00000000000000968022902122015134142N000000000000N40       000370400K 10000000010000000952           
CUS0473700000104129150001         DAGATI DIANA        20 AIGBURTH RD                          000N        CARE OF             
MTR04737000001000000000000000RA              45389443    007500160000001600000520000003NN  NNW 000                       N    
RDG04737000WATRL000000004K00000000000001552023402122015134838N000000000000N40       000470400K 10000000010000001539           
CUS0473700000104129151009         MALENA SALLY A      18 AIGBURTH RD                          000N        CARE OF             
MTR04737000001000000000000000RA              33736340    007500170000001700000520000003NN  NNW 000                       N    
RDG04737000WATRL000000004K00000000000002449023302122015134751N000000000000N40       000320400K 10000000010000002439           
CUS0473700000104444640009         LEARY DEVIN         81 CEDAR AVE                            000N        CARE OF             
MTR04737000001000000000000000RA              10005728    005800180000001800000440000003NN  NNW 000                       N    
RDG04737000WATRL000000004K00000000000000538019902122015125042N000000000000N40       000390400K 10000000010000000508           
CUS0473700000104129152007         LAURA D SHEEHAN     77 CEDAR AVE                            000N        CARE OF             
MTR04737000001000000000000000RA              22610125    005800190000001900000520000003NN  NNW 000                       N    
RDG04737000WATRL000000004K00000000000007065020002122015125316N000400000010N40       001540400K 10000000010000007049           
CUS0473700000104129153005         FROHMAN JOHN E      73 CEDAR AVE                            000N        CARE OF             
MTR04737000001000000000000000RA              30525031    005800200000002000000520000003NN  NNW 000                       N    
RDG04737000WATRL000000004K00000000000002253020102122015125406N000000000000N40       000500400K 10000000010000002236           
CUS0473700000104129154003         HENEBERRY PAULA A   64 CEDAR AVE                            000N        CARE OF             
MTR04737000001000000000000000RA              31580554    005800210000002100000520000003NN  NNW 000                       N    
RDG04737000WATRL000000004K00000000000001745019202122015124520N000000000000N40       000700400K 10000000010000001731           
CUS0473700000104129155000         VILLAMATER ERIC A   66 CEDAR AVE                            000N        CARE OF             
MTR04737000001000000000000000RA              32901170    005800220000002200000520000003NN  NNW 000                       N    
RDG04737000WATRL000000004K00000000000001388019302122015124544N000000000000N40       000240400K 10000000010000001376           
CUS0473700000104129156008         SAWIRIS GAMIL B     68 CEDAR AVE                            000N        CARE OF             
MTR04737000001000000000000000RA              32904078    005800230000002300000520000003NN  NNW 000                       N    
RDG04737000WATRL000000004K00000000000002921019402122015124713N000000000000N40       000890400K 10000000010000002915           
CUS0473700000104129157006         RAPHAELI JUDITH B   70 CEDAR AVE                            000N        CARE OF             
MTR04737000001000000000000000RA              35099597    005800240000002400000520000003NN  NNW 000                       N    
RDG04737000WATRL000000004K00000000000003406019502122015124748N000400000010N40       000350400K 10000000010000003400           
CUS0473700000104129158004         TURLINGTON WILLIAM M72 CEDAR AVE                            000N        CARE OF             
MTR04737000001000000000000000RA              10001080    005800250000002500000570000003NN  NNW 000                       N    
RDG04737000WATRL000000004K00000000000000724019602122015124819N000000000000N40       000310400K 10000000010000000695           
CUS0473700000104129159002         KELLY THOMAS P      74 CEDAR AVE                            000N        CARE OF             
MTR04737000001000000000000000RA              26007145    005800260000002600000520000003NN  NNW 000                       N    
RDG04737000WATRL000000004K00000000000004662019702122015124914N000000000000N40       000550400K 10000000010000004639           
CUS0473700000104129160000         COOMBS WANDA        76 CEDAR AVE                            000N        CARE OF             
MTR04737000001000000000000000RA              31586734    005800270000002700000520000003NN  NNW 000                       N    
RDG04737000WATRL000000004K00000000000001503019802122015125003N000000000000N40       000490400K 10000000010000001490           
CUS0473700000104129161008         TAYLOR JAMES F,TRUST16 AIGBURTH RD                          000N        CARE OF             
MTR04737000001000000000000000RA              27815025    005800280000002800000520000003NN  NNW 000                       N    
RDG04737000WATRL000000004K00000000000004411024202122015135554N000000000000N40       000550400K 10000000010000004388           
CUS0473700000104129162006         FRIENDS OF LUBAVITCH14 AIGBURTH RD                          000N        CARE OF             
MTR04737000001000000000000000RA              50787306    005800290000002900000520000003NN  NNW 000                       N    
RDG04737000WATRL000000004K00000000000002458024102122015135459N000400000010N40       000590400K 10000000010000002457           
CUS0473700000104129163004         MENACHEM M RIVKIN   12 AIGBURTH RD                          000N        CARE OF             
MTR04737000001000000000000000RA              00119989    007500300000003000000570000003NN  NNW 000                       N    
RDG04737000WATRL000000004K00000000000001297024002122015135400N000000000000N40       000310400K 10000000010000001264           
CUS0473700000104129164002         REYNOSO ALAIN I     10 AIGBURTH RD                          000N        CARE OF             
MTR04737000001000000000000000RA              01095460    005800310000003100000610000003NN  NNW 000                       N    
RDG04737000WATRL000000004K00000000000001254023902122015135329N000000000000N40       000500400K 10000000010000001220           
CUS0473700000104404215008         BALL NANCY C        8 AIGBURTH RD                           000N        CARE OF             
MTR04737000001000000000000000RA              42809464    005800320000003200000520000003NN  NNW 000                       N    
RDG04737000WATRL000000004K00000000000002749024602122015135958N000000000000N40       000280400K 10000000010000002738           
CUS0473700000104129165009         SPICER MALCOLM F,JR 4 AIGBURTH RD                           000N        CARE OF             
MTR04737000001000000000000000RA              00119992    007500330000003300000570000003NN  NNW 000                       N    
RDG04737000WATRL000000004K00000000000001104024502122015135930N000000000000N40       000460400K 10000000010000001085           
CUS0473700000104129166007         REIER ROBERT M      2 AIGBURTH RD                           000N        CARE OF             
MTR04737000001000000000000000RA              45381343    005800340000003400000520000003NN  NNW 000                       N    
RDG04737000WATRL000000004K00000000000004271024402122015135844N000000000000N40       000460400K 10000000010000004232           
CUS0473700000104129167005         SUNRISE HOMES OF TOW7925 YORK RD                            000N        CARE OF             
MTR04737000001000000000000000RA              1726514     005800350000003500000320000003NN  NNW 000                       N    
RDG04737000WATRL000000004K00000000000000000024302122015135758S022000000000N40       001240400K 10000000010000001340           
CUS0473700000104129168003         ARCHDIOCESE OF BALTO7909 YORK RD                            000N        CARE OF             
MTR04737000001000000000000000RA              99411501    007500360000003600000570000003NN  NNW 000                       N    
RDG04737000WATRL000000004K00000000000001901022102122015131201N000000000000N40       000300400K 10000000010000001830           
CUS0473700000104129169001         7907 YORK ROAD TRUST7907 YORK RD                            000N        CARE OF             
MTR04737000001000000000000000RA              01104761    005800370000003700000610000003NN  NNW 000                       N    
RDG04737000WATRL000000004K00000000000001073022002122015131131N000000000000N40       000420400K 10000000010000001048           
CUS0473700000104129170009         HINZ LANCE G        7905 YORK RD                            000N        CARE OF             
MTR04737000001000000000000000RA              40049879    005800380000003800000520000003NN  NNW 000                       N    
RDG04737000WATRL000000004K00000000000001891021902122015131049N000000000000N40       000270400K 10000000010000001881           
CUS0473700000104129171007         MONTONI RICHARD J   7903 YORK RD                            000N        CARE OF             
MTR04737000001000000000000000RA              27818508    005800390000003900000520000003NN  NNW 000                       N    
RDG04737000WATRL000000004K00000000000003896021802122015131022N000400000010N40       000550400K 10000000010000003849           
CUS0473700000104129172005         JOHN G. MCCARTHY    7901 YORK RD                            000N        CARE OF             
MTR04737000001000000000000000RA              40049874    005800400000004000000520000003NN  NNW 000                       N    
RDG04737000WATRL000000004K00000000000001933021702122015130927N000000000000N40       000320400K 10000000010000001921           
CUS0473700000104129173003         MAX H SINGER        1 HILLSIDE AVE                          000N        CARE OF             
MTR04737000001000000000000000RA              01072220    005800410000004100000610000003NN  NNW 000                       N    
RDG04737000WATRL000000004K00000000000001805021602122015130855N000000000000N40       000360400K 10000000010000001733           
CUS0473700000104129174001         MORTON LAURA        3 HILLSIDE AVE                          000N        CARE OF             
MTR04737000001000000000000000RA              75616627    005800420000004200000350000003NN  NNW 000                       N    
RDG04737000WATRL000000004K00000000000000108021502122015130819N000000000000N40       000020400K 10000000010000000086           
CUS0473700000104129175008         HUEY REBECCA MACRAE 5 HILLSIDE AVE                          000N        CARE OF             
MTR04737000001000000000000000RA              23644661    005800430000004300000520000003NN  NNW 000                       N    
RDG04737000WATRL000000004K00000000000003567021402122015130817N000000000000N40       000490400K 10000000010000003556           
CUS0473700000104129176006         FLANIGAN MAUREEN P  7 HILLSIDE AVE                          000N        CARE OF             
MTR04737000001000000000000000RA              01096877    005800440000004400000610000003NN  NNW 000                       N    
RDG04737000WATRL000000004K00000000000000631021302122015130728N000000000000N40       000040400K 10000000010000000619           
CUS0473700000104129177004         KNORR SUZANNE MCMANU9 HILLSIDE AVE                          000N        CARE OF             
MTR04737000001000000000000000RA              40320602    005800450000004500000520000003NN  NNW 000                       N    
RDG04737000WATRL000000004K00000000000001481021202122015130724N000400000010N40       000770400K 10000000010000001475           
CUS0473700000104129178002         ERNESTO & JULIA THOM11 HILLSIDE AVE                         000N        CARE OF             
MTR04737000001000000000000000RA              01116233    005800460000004600000610000003NN  NNW 000                       N    
RDG04737000WATRL000000004K00000000000000614021102122015130607N000000000000N40       000570400K 10000000010000000599           
CUS0473700000104129179000         POEHLMAN SHAREN A   13 HILLTOP AVE                          000N        CARE OF             
MTR04737000001000000000000000RA              52285144    005800470000004700000520000003NN  NNW 000                       N    
RDG04737000WATRL000000004K00000000000000893021002122015130510N000000000000N40       000850400K 10000000010000000889           
CUS0473700000104129180008         SPROULS ELIZABETH L 15 HILLTOP AVE                          000N        CARE OF             
MTR04737000001000000000000000RA              01112696    005800480000004800000610000003NN  NNW 000                       N    
RDG04737000WATRL000000004K00000000000000819020902122015130345N000000000000N40       000360400K 10000000010000000793           
CUS0473700000104129181006         BRIAN KETTRER       17 HILLTOP AVE                          000N        CARE OF             
MTR04737000001000000000000000RA              00130408    005800490000004900000570000003NN  NNW 000                       N    
RDG04737000WATRL000000004K00000000000001285020802122015130309N000000000000N40       000350400K 10000000010000001267           
CUS0473700000104129182004         HOFFMAN ROBERT B    19 HILLTOP AVE                          000N        CARE OF             
MTR04737000001000000000000000RA              27815024    005800500000005000000520000003NN  NNW 000                       N    
RDG04737000WATRL000000004K00000000000005886020702122015130234N000000000000N40       000530400K 10000000010000005877           
CUS0473700000104129183002         CRATEN JOHN G       21 HILLTOP RD                           000N        CARE OF             
MTR04737000001000000000000000RA              27833303    005800510000005100000520000003NN  NNW 000                       N    
RDG04737000WATRL000000004K00000000000001965020602122015130141N000000000000N40       000330400K 10000000010000001950           
CUS0473700000104129184000         GRISWOLD HAROLD EUGE23 HILLTOP AVE                          000N        CARE OF             
MTR04737000001000000000000000RA              01086788    005800520000005200000610000003NN  NNW 000                       N    
RDG04737000WATRL000000004K00000000000000262020502122015130108N000000000000N40       001350400K 10000000010000000258           
CUS0473700000104129185007         BRUFF CARL E        15 HILLSIDE AVE                         000N        CARE OF             
MTR04737000001000000000000000RA              24771922    005800530000005300000520000003NN  NNW 000                       N    
RDG04737000WATRL000000004K00000000000002459020402122015125853N000000000010N40       001120400K 10000000010000002448           
CUS0473700000104129186005         CAASI ROLAND N      17 HILLSIDE AVE                         000N        CARE OF             
MTR04737000001000000000000000RA              24674723    007500540000005400000520000003NN  NNW 000                       N    
RDG04737000WATRL000000004K00000000000006393020302122015125701N000000000000N40       000480400K 10000000010000006382           
CUS0473700000104129187003         TROY M WORKMAN      19 HILLSIDE AVE                         000N        CARE OF             
MTR04737000001000000000000000RA              22609630    005800550000005500000520000003NN  NNW 000                       N    
RDG04737000WATRL000000004K00000000000005664020202122015125613N000000000000N40       001270400K 10000000010000005645           
CUS0473700000104129188001         YORK DALE LIMITED PANS TERRACE DALE AVE                     000N        CARE OF             
MTR04737000001000000000000000RA              23052441    005800560000005600000520000003NN  NNW 000                       N    
RDG04737000WATRL000000004K00000000000000513018602122015123939N000000000000N40       000020400K 10000000010000000513           
CUS0473700000104129189009         JACK M MISSRY       22 CEDAR AVE                            000N        CARE OF             
MTR04737000001000000000000000RA              44090597    005800570000005700000520000003NN  NNW 000                       N    
RDG04737000WATRL000000004K00000000000000945018502122015123937N000000000000N40       000270400K 10000000010000000921           
CUS0473700000104129190007         CARRUTHERS VIRGINIA 24 CEDAR AVE                            000N        CARE OF             
MTR04737000001000000000000000RA              25781643    005800580000005800000520000003NN  NNW 000                       N    
RDG04737000WATRL000000004K00000000000003255018402122015123910N000000000000N40       000650400K 10000000010000003247           
CUS0473700000104129191005         YINGLING DAVID B    26 CEDAR AVE                            000N        CARE OF             
MTR04737000001000000000000000RA              01116231    005800590000005900000610000003NN  NNW 000                       N    
RDG04737000WATRL000000004K00000000000001514018302122015123805N000000000000N40       000360400K 10000000010000001484           
CUS0473700000104129192003         BREADY CHRISTOPHER H34 CEDAR AVE                            000N        CARE OF             
MTR04737000001000000000000000RA              22610229    005800600000006000000520000003NN  NNW 000                       N    
RDG04737000WATRL000000004K00000000000004810018202122015123729N000000000000N40       001950400K 10000000010000004801           
CUS0473700000104129193001         GUNTS HOLLY STEWART 35 CEDAR AVE                            000N        CARE OF             
MTR04737000001000000000000000RA              77886771    005800610000006100000350000003NN  NNW 000                       N    
RDG04737000WATRL000000004K00000000000000017019102122015124410N000000000000N40       000580400K 10000000010000000004           
CUS0473700000104129194009         EYINK GREGORY L     33 CEDAR AVE                            000N        CARE OF             
MTR04737000001000000000000000RA              39291408    005800620000006200000520000003NN  NNW 000                       N    
RDG04737000WATRL000000004K00000000000001730019002122015124312N000000000000N40       000520400K 10000000010000001667           
CUS0473700000104129195006         LINDENSTRUTH DAVID E31 CEDAR AVE                            000N        CARE OF             
MTR04737000001000000000000000RA              14902274    005800630000006300000310000003NN  NNW 000                       N    
RDG04737000WATRL000000004K00000000000000887018902122015124220N000000000000N40       000550400K 10000000010000000872           
CUS0473700000104129196004         PENNELL KENNETH E   29 CEDAR AVE                            000N        CARE OF             
MTR04737000001000000000000000RA              29679665    005800640000006400000520000003NN  NNW 000                       N    
RDG04737000WATRL000000004K00000000000003723018802122015124125N000000000000N40       000540400K 10000000010000003706           
CUS0473700000104129197002         DUELL KEVIN         27 CEDAR AVE                            000N        CARE OF             
MTR04737000001000000000000000RA              01114152    005800650000006500000610000003NN  NNW 000                       N    
RDG04737000WATRL000000004K00000000000000859018702122015124031N000000000000N40       000520400K 10000000010000000832           
CUS0473700000104373924002         YORK DALE LIMITED PA7801 YORK RD                            000N        CARE OF             
MTR04737000001000000000000000RA              31585470    005800660000006600000520000003NN  NNW 000                       N    
RDG04737000WATRL000000004K00000000000000897018102122015123414N000100000010N40       002630400K 10000000010000000897           
CUS0473700000104129198000         HOLY SPIRIT ASSOCIAT5 TERRACE DL                            000N        CARE OF             
MTR04737000001000000000000000RA              77987806    005800670000006700000350000003NN  NNW 000                       N    
RDG04737000WATRL000000004K00000000000000035018002122015122951N000300000010N40       000950400K 10000000010000000005           
CUS0473700000104129199008         GOULD FRANKLIN DAVID3 TERRACE DL                            000N        CARE OF             
MTR04737000001000000000000000RA              99286205    005800680000006800000570000003NN  NNW 000                       N    
RDG04737000WATRL000000004K00000000000000906017902122015122816N000000000000N40       000480400K 10000000010000000894           
CUS0473700000104129200004         VAGHARI KHOSROW D   1 TERRACE DL                            000N        CARE OF             
MTR04737000001000000000000000RA              45374572    005800690000006900000520000003NN  NNW 000                       N    
RDG04737000WATRL000000004K00000000000002811017802122015122728N000000000010N40       000960400K 10000000010000002807           
CUS0473700000104129201002         MORTON JOSEPH       7727 YORK RD                            000N        CARE OF             
MTR04737000001000000000000000RA              75616503    005800700000007000000350000003NN  NNW 000                       N    
RDG04737000WATRL000000004K00000000000000049017702122015122552N000300000010N40       000510400K 10000000010000000027           
CUS0473700000104129202000         FOARD WILLIAM A     7725 YORK RD                            000N        CARE OF             
MTR04737000001000000000000000RA              22862027    005800710000007100000520000003NN  NNW 000                       N    
RDG04737000WATRL000000004K00000000000004336017602122015122501N000300000010N40       039200400K 10000000010000004313           
CUS0473700000104129203008         MOMBERGER HENRY W,3RES YORK RD                              000N        CARE OF             
MTR04737000001000000000000000RA              99999999    005800720000007200000620000003NN  NNW 000                       N    
RDG04737000WATRL000000004K00000000000000000006602122015095031S022000000000N40       000950400K 10000000010000000167           
CUS0473700000104129204006         MILES MARY CARR HASS2 CEDAR AVE                             000N        CARE OF             
MTR04737000001000000000000000RA              10013079    005800730000007300000570000003NN  NNW 000                       N    
RDG04737000WATRL000000004K00000000000000348006502122015094856N000000000010N40       001570400K 10000000010000000332           
CUS0473700000104129205003         ROMERIO FABIO       4 CEDAR AVE                             000N        CARE OF             
MTR04737000001000000000000000RA              24757889    005800740000007400000520000003NY  NNW 000                       N    
MTM0473700024757889    CAN NOT LOCATE                                                                                         
RDG04737000WATRL000000004K00000000000000000000000000000000000 000000000000U         000000400  10000000010000002145           
CUS0473700000104364049009         KELLEY ALLEN KENNETH6 CEDAR AVE                             000N        CARE OF             
MTR04737000001000000000000000RA              35103302    005800750000007500000520000003NN  NNW 000                       N    
RDG04737000WATRL000000004K00000000000003744006402122015094619N000000000000N40       000830400K 10000000010000003712           
CUS0473700000104129207009         FRANK A BOOZER      8-10 CEDAR AVE                          000N        CARE OF             
MTR04737000001000000000000000RA              00163768    000100760000007600000570000003NN  NNW 000                       N    
RDG04737000WATRL000000004K00000000000004069006302122015094456N000000000000N40       000350400K 10000000010000003948           
CUS0473700000104129208007         HOLMAN JOHN S       12 CEDAR AVE                            000N        CARE OF             
MTR04737000001000000000000000RA              77889802    005800770000007700000350000003NN  NNW 000                       N    
RDG04737000WATRL000000004K00000000000000099006202122015094421N000300000010N40       001250400K 10000000010000000020           
CUS0473700000104129209005         HAGVALL DENISE      16 CEDAR AVE                            000N        CARE OF             
MTR04737000001000000000000000RA              39290003    005800780000007800000520000003NN  NNW 000                       N    
RDG04737000WATRL000000004K00000000000001312006102122015094216N000000000000N40       001070400K 10000000010000001306           
CUS0473700000104129210003         HUNTER DAVID G      18 CEDAR AVE                            000N        CARE OF             
MTR04737000001000000000000000RA              39290007    005800790000007900000520000003NN  NNW 000                       N    
RDG04737000WATRL000000004K00000000000003048006002122015094029N000000000000N40       000690400K 10000000010000003019           
CUS0473700000104129211001         HARTMAN PAUL S      18-1/2 CEDAR AVE                        000N        CARE OF             
MTR04737000001000000000000000RA              24764132    005800800000008000000520000003NN  NNW 000                       N    
RDG04737000WATRL000000004K00000000000003772005902122015093920N000000000000N40       000320400K 10000000010000003758           
CUS0473700000104129212009         TODD SICKLER        20 CEDAR AVE                            000N        CARE OF             
MTR04737000001000000000000000RA              14904056    005800810000008100000310000003NN  NNW 000                       N    
RDG04737000WATRL000000004K00000000000000924005802122015093848N000000000001N40       000580400K 10000000010000000902           
CUS0473700000104129213007         HALSEY NEAL A       25 CEDAR AVE                            000N        CARE OF             
MTR04737000001000000000000000RA              01113136    005800820000008200000610000003NN  NNW 000                       N    
RDG04737000WATRL000000004K00000000000000473005702122015093750N000000000000N40       000500400K 10000000010000000465           
CUS0473700000104129214005         CHRISTOPHER GREGORY 21 CEDAR AVE                            000N        CARE OF             
MTR04737000001000000000000000RA              24761579    005800830000008300000520000003NN  NNW 000                       N    
RDG04737000WATRL000000004K00000000000004334005602122015093700N000000000000N40       000510400K 10000000010000004319           
CUS0473700000104129215002         FALES E NOEL,2ND    19 CEDAR AVE                            000N        CARE OF             
MTR04737000001000000000000000RA              99388563    005800840000008400000570000003NN  NNW 000                       N    
RDG04737000WATRL000000004K00000000000001450005502122015093609N000000000000N40       000380400K 10000000010000001427           
CUS0473700000104129216000         HORAN THEODORE M    17 CEDAR AVE                            000N        CARE OF             
MTR04737000001000000000000000RA              9686195     005800850000008500000570000003NN  NNW 000                       N    
RDG04737000WATRL000000004K00000000000003834005402122015093531N000000000000N40       000380400K 10000000010000003817           
CUS0473700000104129217008         ORBOCK BARBARA A    15 CEDAR AVE                            000N        CARE OF             
MTR04737000001000000000000000RA              22610144    005800860000008600000520000003NN  NNW 000                       N    
RDG04737000WATRL000000004K00000000000004187005302122015093453N000000000000N40       000710400K 10000000010000004173           
CUS0473700000104129218006         JOHN S HOLMAN       13 CEDAR AVE                            000N        CARE OF             
MTR04737000001000000000000000RA              10008839    005800870000008700000570000003NN  NNW 000                       N    
RDG04737000WATRL000000004K00000000000000271005202122015093342N000000000000N40       000650400K 10000000010000000254           
CUS0473700000104129219004         FAHEY THERESA MAUREE11 CEDAR AVE                            000N        CARE OF             
MTR04737000001000000000000000RA              25782984    005800880000008800000520000003NN  NNW 000                       N    
RDG04737000WATRL000000004K00000000000003528005102122015093237N000000000000N40       000450400K 10000000010000003520           
CUS0473700000104129220002         MISSLER LLOYD S     9 CEDAR AVE                             000N        CARE OF             
MTR04737000001000000000000000RA              36692803    005800890000008900000520000003NN  NNW 000                       N    
RDG04737000WATRL000000004K00000000000002724005002122015093152N000000000000N40       000380400K 10000000010000002707           
CUS0473700000104129221000         HUNTER DAVID F      7 CEDAR AVE                             000N        CARE OF             
MTR04737000001000000000000000RA              27826073    005800900000009000000520000003NN  NNW 000                       N    
RDG04737000WATRL000000004K00000000000004196004902122015093114N000000000000N40       000430400K 10000000010000004168           
CUS0473700000104129222008         ZACHARY D WEIN      5 CEDAR AVE                             000N        CARE OF             
MTR04737000001000000000000000RA              14913010    005800910000009100000310000003NN  NNW 000                       N    
RDG04737000WATRL000000004K00000000000000999004802122015093031N000000000000N40       001130400K 10000000010000000961           
CUS0473700000104129223006         MORGAN JEFFREY C    500 WORCESTER RD                        000N        CARE OF             
MTR04737000001000000000000000RA              27832055    005800920000009200000520000003NN  NNW 000                       N    
RDG04737000WATRL000000004K00000000000003146004702122015092838N000000000000N40       000470400K 10000000010000003121           
CUS0473700000104129224004         COLLINS DANIEL J    502 WORCESTER RD                        000N        CARE OF             
MTR04737000001000000000000000RA              20968464    005800930000009300000520000003NN  NNW 000                       N    
RDG04737000WATRL000000004K00000000000003751004602122015092751N000000000000N40       000450400K 10000000010000003730           
CUS0473700000104129225001         MILLER CRAIG        504 WORCESTER RD                        000N        CARE OF             
MTR04737000001000000000000000RA              14906682    005800940000009400000310000003NN  NNW 000                       N    
RDG04737000WATRL000000004K00000000000000992004502122015092706N000000000000N40       001040400K 10000000010000000968           
CUS0473700000104129226009         GANS DANA R         4 AINTREE RD                            000N        CARE OF             
MTR04737000001000000000000000RA              23053572    005800950000009500000520000003NN  NNW 000                       N    
RDG04737000WATRL000000004K00000000000004644004402122015092522N000000000000N40       017440400K 10000000010000004616           
CUS0473700000104129227007         MILLER OWEN D       8 AINTREE RD                            000N        CARE OF             
MTR04737000001000000000000000RA              22862180    005800960000009600000520000003NN  NNW 000                       N    
RDG04737000WATRL000000004K00000000000003213017502122015111941N000000000000N40       000410400K 10000000010000003194           
CUS0473700000104129228005         VOCCI FRANCIS J     10 AINTREE RD                           000N        CARE OF             
MTR04737000001000000000000000RA              29679128    005800970000009700000520000003NN  NNW 000                       N    
RDG04737000WATRL000000004K00000000000002635017402122015111900N000000000000N40       000310400K 10000000010000002614           
CUS0473700000104129229003         BEHM CARL,3RD       12 AINTREE RD                           000N        CARE OF             
MTR04737000001000000000000000RA              24760802    005800980000009800000520000003NN  NNW 000                       N    
RDG04737000WATRL000000004K00000000000005265017302122015111829N000000000000N40       000750400K 10000000010000005241           
CUS0473700000104129230001         ROBERT E SAGE       14 AINTREE RD                           000N        CARE OF             
MTR04737000001000000000000000RA              22862174    005800990000009900000520000003NN  NNW 000                       N    
RDG04737000WATRL000000004K00000000000003464017202122015111714N000000000000N40       000380400K 10000000010000003438           
CUS0473700000104129231009         DISCHINGER PETER    16 AINTREE RD                           000N        CARE OF             
MTR04737000001000000000000000RA              35097753    005801000000010000000520000003NN  NNW 000                       N    
RDG04737000WATRL000000004K00000000000003494017102122015111636N000000000000N40       000590400K 10000000010000003477           
CUS0473700000104129232007         MARTIN WILLIAM H    20 AINTREE RD                           000N        CARE OF             
MTR04737000001000000000000000RA              29403096    005801010000010100000520000003NN  NNW 000                       N    
RDG04737000WATRL000000004K00000000000005025017002122015111537N000000000000N40       000300400K 10000000010000005005           
CUS0473700000104129233005         SHERMAN WILLIAM DAVI22 AINTREE RD                           000N        CARE OF             
MTR04737000001000000000000000RA              27812439    005801020000010200000520000003NN  NNW 000                       N    
RDG04737000WATRL000000004K00000000000004976016902122015111507N000000000000N40       000390400K 10000000010000004957           
CUS0473700000104129234003         MICHELE A CAGAN     24 AINTREE RD                           000N        CARE OF             
MTR04737000001000000000000000RA              31585201    005801030000010300000520000003NN  NNW 000                       N    
RDG04737000WATRL000000004K00000000000004136016802122015111428N000000000000N40       000740400K 10000000010000004126           
CUS0473700000104129235000         KRUPP STACI         28 AINTREE RD                           000N        CARE OF             
MTR04737000001000000000000000RA              22862175    005801040000010400000520000003NN  NNW 000                       N    
RDG04737000WATRL000000004K00000000000003724016702122015111314N000000000000N40       000420400K 10000000010000003701           
CUS0473700000104129236008         SCHILLO JAMES B     30 AINTREE RD                           000N        CARE OF             
MTR04737000001000000000000000RA              26009745    005801050000010500000520000003NN  NNW 000                       N    
RDG04737000WATRL000000004K00000000000002561016602122015111232N000000000000N40       000240400K 10000000010000002547           
CUS0473700000104129237006         JEFFERYS JAMES C    32 AINTREE RD                           000N        CARE OF             
MTR04737000001000000000000000RA              30521113    005801060000010600000520000003NN  NNW 000                       N    
RDG04737000WATRL000000004K00000000000003035016502122015111208N000000000000N40       000230400K 10000000010000003021           
CUS0473700000104129238004         FISCHER KURT JAMES  600 HASTINGS RD                         000N        CARE OF             
MTR04737000001000000000000000RA              32771306    005801070000010700000520000003NN  NNW 000                       N    
RDG04737000WATRL000000004K00000000000004311016402122015111145N000000000000N40       000290400K 10000000010000004285           
CUS0473700000104129239002         FRANK D'SOUZA       602 HASTINGS RD                         000N        CARE OF             
MTR04737000001000000000000000RA              26008172    005801080000010800000520000003NN  NNW 000                       N    
RDG04737000WATRL000000004K00000000000007299016302122015111116N000000000000N40       000460400K 10000000010000007265           
CUS0473700000104129240000         GRANITE TITLE ASSOCI604 HASTINGS RD                         000N        CARE OF             
MTR04737000001000000000000000RA              32771313    005801090000010900000520000003NN  NNW 000                       N    
RDG04737000WATRL000000004K00000000000003564016202122015111030N000000000000N40       000350400K 10000000010000003545           
CUS0473700000104129241008         SIMS C TERRENCE     606 HASTINGS RD                         000N        CARE OF             
MTR04737000001000000000000000RA              29681314    005801100000011000000520000003NN  NNW 000                       N    
RDG04737000WATRL000000004K00000000000003646016102122015110955N000000000000N40       000220400K 10000000010000003621           
CUS0473700000104129242006         KAHL WILLIAM R      608 HASTINGS RD                         000N        CARE OF             
MTR04737000001000000000000000RA              35104190    005801110000011100000520000003NN  NNW 000                       N    
RDG04737000WATRL000000004K00000000000002926016002122015110933N000400000010N40       000710400K 10000000010000002916           
CUS0473700000104129243004         NALL ELLEN R        610 HASTINGS RD                         000N        CARE OF             
MTR04737000001000000000000000RA              32771367    005801120000011200000520000003NN  NNW 000                       N    
RDG04737000WATRL000000004K00000000000002882015902122015110822N000000000000N40       000220400K 10000000010000002850           
CUS0473700000104129244002         TURNER TROXELL CO, I612 HASTINGS RD                         000N        CARE OF             
MTR04737000001000000000000000RA              24757270    005801130000011300000520000003NN  NNW 000                       N    
RDG04737000WATRL000000004K00000000000003450015802122015110800N000400000010N40       000390400K 10000000010000003448           
CUS0473700000104129245009         HARRIOTT STEVEN P   614 HASTINGS RD                         000N        CARE OF             
MTR04737000001000000000000000RA              41086133    005801140000011400000520000003NN  NNW 000                       N    
RDG04737000WATRL000000004K00000000000001943015702122015110721N000000000000N40       000430400K 10000000010000001919           
CUS0473700000104129246007         BUCK ROBERT A       616 HASTINGS RD                         000N        CARE OF             
MTR04737000001000000000000000RA              25783234    005801150000011500000520000003NN  NNW 000                       N    
RDG04737000WATRL000000004K00000000000002533015602122015110638N000000000000N40       000430400K 10000000010000002523           
CUS0473700000104129247005         ROBERT L. CARTER    618 HASTINGS RD                         000N        CARE OF             
MTR04737000001000000000000000RA              10020136    005801160000011600000570000003NN  NNW 000                       N    
RDG04737000WATRL000000004K00000000000000279015502122015110555N000000000000N40       000360400K 10000000010000000249           
CUS0473700000104129248003         STOKES MARIJANE     620 HASTINGS RD                         000N        CARE OF             
MTR04737000001000000000000000RA              10013697    005801170000011700000570000003NN  NNW 000                       N    
RDG04737000WATRL000000004K00000000000000251015402122015110519N000000000000N40       000380400K 10000000010000000235           
CUS0473700000104385675006         MCCRACKEN DAVID     622 HASTINGS RD                         000N        CARE OF             
MTR04737000001000000000000000RA              14927451    005801180000011800000310000003NN  NNW 000                       N    
RDG04737000WATRL000000004K00000000000000637015302122015110441N000000000000N40       000430400K 10000000010000000617           
CUS0473700000104129249001         CHARLES WAGANDT     624 HASTINGS RD                         000N        CARE OF             
MTR04737000001000000000000000RA              25783221    005801190000011900000520000003NN  NNW 000                       N    
RDG04737000WATRL000000004K00000000000005353015202122015110358N000000000000N40       000350400K 10000000010000005333           
CUS0473700000104129250009         VOCKE DAVID E       626 HASTINGS RD                         000N        CARE OF             
MTR04737000001000000000000000RA              99388541    005801200000012000000570000003NN  NNW 000                       N    
RDG04737000WATRL000000004K00000000000002048015102122015110323N000000000000N40       000270400K 10000000010000002024           
CUS0473700000104129251007         ALEXANDER D PERSONS 628 HASTINGS RD                         000N        CARE OF             
MTR04737000001000000000000000RA              29686186    005801210000012100000520000003NN  NNW 000                       N    
RDG04737000WATRL000000004K00000000000002985015002122015110256N000000000000N40       000330400K 10000000010000002943           
CUS0473700000104129252005         MANNING THOMAS J,JR 630 HASTINGS RD                         000N        CARE OF             
MTR04737000001000000000000000RA              35097751    005801220000012200000520000003NN  NNW 000                       N    
RDG04737000WATRL000000004K00000000000004572014902122015110223N000400000010N40       000650400K 10000000010000004552           
CUS0473700000104129253003         HUTTER ERIC R       647 COVENTRY RD                         000N        CARE OF             
MTR04737000001000000000000000RA              25783236    005801230000012300000520000003NN  NNW 000                       N    
RDG04737000WATRL000000004K00000000000004084014802122015110118N000000000000N40       000450400K 10000000010000004060           
CUS0473700000104129254001         ANDRESINI MICHAEL J 645 COVENTRY RD                         000N        CARE OF             
MTR04737000001000000000000000RA              36688802    005801240000012400000520000003NN  NNW 000                       N    
RDG04737000WATRL000000004K00000000000003370014702122015110033N000000000000N40       000260400K 10000000010000003349           
CUS0473700000104129255008         NATALE MICHAEL R    643 COVENTRY RD                         000N        CARE OF             
MTR04737000001000000000000000RA              9595568     005801250000012500000520000003NN  NNW 000                       N    
RDG04737000WATRL000000004K00000000000008647014602122015110007N000000000000N40       000410400K 10000000010000008635           
CUS0473700000104129256006         TEWEY PATRICK J     641 COVENTRY RD                         000N        CARE OF             
MTR04737000001000000000000000RA              50786117    005801260000012600000520000003NN  NNW 000                       N    
RDG04737000WATRL000000004K00000000000003038014502122015105926N000000000000N40       000290400K 10000000010000003013           
CUS0473700000104129257004         GRAY PHYLLIS E      639 COVENTRY RD                         000N        CARE OF             
MTR04737000001000000000000000RA              00130412    005801270000012700000570000003NN  NNW 000                       N    
RDG04737000WATRL000000004K00000000000001788014402122015105857N000000000000N40       000280400K 10000000010000001765           
CUS0473700000104129258002         MICHAEL KURT L      637 COVENTRY RD                         000N        CARE OF             
MTR04737000001000000000000000RA              11334720    005801280000012800000520000003NN  NNW 000                       N    
RDG04737000WATRL000000004K00000000000007228014302122015105829N000000000000N40       000240400K 10000000010000007203           
CUS0473700000104129259000         KONDNER ROBERT L,JR 635 COVENTRY RD                         000N        CARE OF             
MTR04737000001000000000000000RA              46883244    005801290000012900000520000003NN  NNW 000                       N    
RDG04737000WATRL000000004K00000000000001575014202122015105805N000000000000N40       000780400K 10000000010000001550           
CUS0473700000104129260008         MACINTOSH KENNETH C 633 COVENTRY RD                         000N        CARE OF             
MTR04737000001000000000000000RA              45376648    005801300000013000000520000003NN  NNW 000                       N    
RDG04737000WATRL000000004K00000000000003720014102122015105647N000000000000N40       000390400K 10000000010000003684           
CUS0473700000104129261006         DARWIN PETER E      631 COVENTRY RD                         000N        CARE OF             
MTR04737000001000000000000000RA              9684920     005801310000013100000520000003NN  NNW 000                       N    
RDG04737000WATRL000000004K00000000000003936014002122015105608N000000000000N40       000350400K 10000000010000003911           
CUS0473700000104129262004         OCONNOR SHARON LOU  629 COVENTRY RD                         000N        CARE OF             
MTR04737000001000000000000000RA              29679700    005801320000013200000520000003NN  NNW 000                       N    
RDG04737000WATRL000000004K00000000000002314013902122015105533N000000000000N40       000420400K 10000000010000002304           
CUS0473700000104129263002         PTAK DAVID J        627 COVENTRY RD                         000N        CARE OF             
MTR04737000001000000000000000RA              9689659     005801330000013300000520000003NN  NNW 000                       N    
RDG04737000WATRL000000004K00000000000006700013802122015105451N000000000000N40       000260400K 10000000010000006674           
CUS0473700000104129264000         VOCCI MATTHEW T     625 COVENTRY RD                         000N        CARE OF             
MTR04737000001000000000000000RA              39289528    005801340000013400000520000003NN  NNW 000                       N    
RDG04737000WATRL000000004K00000000000005273013702122015105425N000000000000N40       000580400K 10000000010000005252           
CUS0473700000104129265007         BARNHART JAMES BRADL622 COVENTRY PL                         000N        CARE OF             
MTR04737000001000000000000000RA              10002730    005801350000013500000570000003NN  NNW 000                       N    
RDG04737000WATRL000000004K00000000000000793013602122015105327N000000000000N40       000530400K 10000000010000000751           
CUS0473700000104129266005         BECHDEL KIRK L      620 YARMOUTH RD                         000N        CARE OF             
MTR04737000001000000000000000RA              11335221    005801360000013600000520000003NN  NNW 000                       N    
RDG04737000WATRL000000004K00000000000003936013502122015105234N000000000000N40       000560400K 10000000010000003919           
CUS0473700000104129267003         DASSOULAS STEPHEN C 621 COVENTRY PL                         000N        CARE OF             
MTR04737000001000000000000000RA              19557577    005801370000013700000520000003NN  NNW 000                       N    
RDG04737000WATRL000000004K00000000000007637013402122015105138N000000000000N40       000600400K 10000000010000007613           
CUS0473700000104129268001         EVANS ANDREW T      619 COVENTRY PL                         000N        CARE OF             
MTR04737000001000000000000000RA              24228021    005801380000013800000520000003NN  NNW 000                       N    
RDG04737000WATRL000000004K00000000000005489013302122015105038N000000000000N40       000390400K 10000000010000005456           
CUS0473700000104129269009         CESEWSKI WALTER P   617 COVENTRY RD                         000N        CARE OF             
MTR04737000001000000000000000RA              35106264    005801390000013900000520000003NN  NNW 000                       N    
RDG04737000WATRL000000004K00000000000002746013202122015104959N000400000010N40       000460400K 10000000010000002732           
CUS0473700000104129270007         LOTZ TIMOTHY C      615 COVENTRY RD                         000N        CARE OF             
MTR04737000001000000000000000RA              50790569    005801400000014000000520000003NN  NNW 000                       N    
RDG04737000WATRL000000004K00000000000001771013102122015104913N000000000000N40       000580400K 10000000010000001751           
CUS0473700000104129271005         CHRISTOPHER R. RAHL 611 COVENTRY RD                         000N        CARE OF             
MTR04737000001000000000000000RA              24769154    005801410000014100000520000003NN  NNW 000                       N    
RDG04737000WATRL000000004K00000000000004692013002122015104815N000000000000N40       000390400K 10000000010000004675           
CUS0473700000104129272003         NOYES HARVEY LEIGH  609 COVENTRY RD                         000N        CARE OF             
MTR04737000001000000000000000RA              35116523    005801420000014200000520000003NN  NNW 000                       N    
RDG04737000WATRL000000004K00000000000002470012902122015104736N000000000000N40       000350400K 10000000010000002453           
CUS0473700000104129273001         PULCINELLA MICHAEL J607 COVENTRY RD                         000N        CARE OF             
MTR04737000001000000000000000RA              10021144    005801430000014300000570000003NN  NNW 000                       N    
RDG04737000WATRL000000004K00000000000000255012802122015104701N000000000000N40       000350400K 10000000010000000233           
CUS0473700000104129274009         BARAMKI VICTOR A    605 COVENTRY RD                         000N        CARE OF             
MTR04737000001000000000000000RA              35102412    005801440000014400000520000003NN  NNW 000                       N    
RDG04737000WATRL000000004K00000000000003813012702122015104626N000000000000N40       000390400K 10000000010000003796           
CUS0473700000104129275006         GLORIOSO LINDSAY DRI603 COVENTRY RD                         000N        CARE OF             
MTR04737000001000000000000000RA              11336603    005801450000014500000570000003NN  NNW 000                       N    
RDG04737000WATRL000000004K00000000000007388012602122015104547N000000000000N40       000510400K 10000000010000007353           
CUS0473700000104129276004         MUNNELLY EUGENE     601 COVENTRY RD                         000N        CARE OF             
MTR04737000001000000000000000RA              35111167    005801460000014600000520000003NN  NNW 000                       N    
RDG04737000WATRL000000004K00000000000003710012502122015104456N000000000000N40       000760400K 10000000010000003699           
CUS0473700000104129277002         GILLISS DAVID D     600 COVENTRY RD                         000N        CARE OF             
MTR04737000001000000000000000RA              26008174    005801470000014700000520000003NN  NNW 000                       N    
RDG04737000WATRL000000004K00000000000003818012402122015104340N000000000000N40       000420400K 10000000010000003798           
CUS0473700000104129278000         JESSICA MASCARI     602 COVENTRY RD                         000N        CARE OF             
MTR04737000001000000000000000RA              36692483    005801480000014800000520000003NN  NNW 000                       N    
RDG04737000WATRL000000004K00000000000003172012302122015104258N000000000000N40       000440400K 10000000010000003083           
CUS0473700000104129279008         KERSTEN MICHAEL     604 COVENTRY RD                         000N        CARE OF             
MTR04737000001000000000000000RA              01109638    005801490000014900000610000003NN  NNW 000                       N    
RDG04737000WATRL000000004K00000000000001423012202122015104214N000000000000N40       000660400K 10000000010000001404           
CUS0473700000104129280006         KARLEN AMY L        606 COVENTRY RD                         000N        CARE OF             
MTR04737000001000000000000000RA              50787129    005801500000015000000520000003NN  NNW 000                       N    
RDG04737000WATRL000000004K00000000000002244012102122015104108N000000000000N40       000400400K 10000000010000002218           
CUS0473700000104129281004         ERWIN CHRISTOPHER M 608 COVENTRY RD                         000N        CARE OF             
MTR04737000001000000000000000RA              24221956    005801510000015100000520000003NN  NNW 000                       N    
RDG04737000WATRL000000004K00000000000005756012002122015104028N000000000001N40       000860400K 10000000010000005733           
CUS0473700000104129282002         CHRISTOPHER JOHN M,J610 COVENTRY RD                         000N        CARE OF             
MTR04737000001000000000000000RA              27133016    005801520000015200000520000003NN  NNW 000                       N    
RDG04737000WATRL000000004K00000000000002309011902122015103902N000400000010N40       000590400K 10000000010000002307           
CUS0473700000104129283000         LYDEN A SUSAN       612 COVENTRY RD                         000N        CARE OF             
MTR04737000001000000000000000RA              10006518    005801530000015300000570000003NN  NNW 000                       N    
RDG04737000WATRL000000004K00000000000008490011802122015103803N000100000010N40       000420400K 10000000010000008490           
CUS0473700000104129284008         MURPHY BRIAN J      614 COVENTRY RD                         000N        CARE OF             
MTR04737000001000000000000000RA              46888960    005801540000015400000520000003NN  NNW 000                       N    
RDG04737000WATRL000000004K00000000000001910011702122015103721N000000000000N40       000500400K 10000000010000001876           
CUS0473700000104129285005         GREY THOMAS L       616 COVENTRY RD                         000N        CARE OF             
MTR04737000001000000000000000RA              24771958    005801550000015500000520000003NN  NNW 000                       N    
RDG04737000WATRL000000004K00000000000004966011602122015103631N000400000010N40       000560400K 10000000010000004961           
CUS0473700000104129286003         KASSAS BASSEL       618 COVENTRY RD                         000N        CARE OF             
MTR04737000001000000000000000RA              50786123    005801560000015600000520000003NN  NNW 000                       N    
RDG04737000WATRL000000004K00000000000001440011502122015103535N000000000000N40       000390400K 10000000010000001414           
CUS0473700000104129287001         SZCZERBICKI ALFRED J620 COVENTRY RD                         000N        CARE OF             
MTR04737000001000000000000000RA              44088772    005801570000015700000520000003NN  NNW 000                       N    
RDG04737000WATRL000000004K00000000000002395011402122015103456N000000000000N40       000260400K 10000000010000002359           
CUS0473700000104129288009         STUGART RYAN        622 COVENTRY RD                         000N        CARE OF             
MTR04737000001000000000000000RA              30516598    005801580000015800000520000003NN  NNW 000                       N    
RDG04737000WATRL000000004K00000000000003059011302122015103430N000000000000N40       000780400K 10000000010000003041           
CUS0473700000104129289007         NICHOLS ROANN       625 HASTINGS RD                         000N        CARE OF             
MTR04737000001000000000000000RA              42809848    005801590000015900000520000003NN  NNW 000                       N    
RDG04737000WATRL000000004K00000000000003546011202122015103312N000400000010N40       000500400K 10000000010000003536           
CUS0473700000104129290005         BURKHARDT JOSEPH R  623 HASTINGS RD                         000N        CARE OF             
MTR04737000001000000000000000RA              44002127    005801600000016000000520000003NN  NNW 000                       N    
RDG04737000WATRL000000004K00000000000002401011102122015103222N000000000000N40       000270400K 10000000010000002380           
CUS0473700000104129291003         BOLLINGER ROBERT C,J621 HASTINGS RD                         000N        CARE OF             
MTR04737000001000000000000000RA              33077532    005801610000016100000520000003NN  NNW 000                       N    
RDG04737000WATRL000000004K00000000000003853011002122015103155N000000000000N40       000510400K 10000000010000003838           
CUS0473700000104129292001         JOHN D CHESELDINE JR617 HASTINGS RD                         000N        CARE OF             
MTR04737000001000000000000000RA              24232351    005801620000016200000520000003NN  NNW 000                       N    
RDG04737000WATRL000000004K00000000000005495010902122015103104N000000000000N40       001030400K 10000000010000005466           
CUS0473700000104129293009         MASON JEFFREY T     615 HASTINGS RD                         000N        CARE OF             
MTR04737000001000000000000000RA              32177563    005801630000016300000520000003NY  NNW 000   VACANT / LOT        N    
MTM0473700032177563    CLEAN OUT VAULT                                                                                        
RDG04737000WATRL000000004K00000000000000000000000000000000000 000000000000U         000000400  10000000010000002870           
CUS0473700000104129294007         VELTMAN RICHARD J   613 HASTINGS RD                         000N        CARE OF             
MTR04737000001000000000000000RA              33079328    005801640000016400000520000003NN  NNW 000                       N    
RDG04737000WATRL000000004K00000000000003604010802122015102921N000400000010N40       000840400K 10000000010000003580           
CUS0473700000104129295004         WINTERSON JOHN P,JR 607 HASTINGS RD                         000N        CARE OF             
MTR04737000001000000000000000RA              44087057    005801650000016500000520000003NN  NNW 000                       N    
RDG04737000WATRL000000004K00000000000003695010702122015102757N000000000000N40       000550400K 10000000010000003673           
CUS0473700000104129296002         SPECTOR NORMAN FRANK605 HASTINGS RD                         000N        CARE OF             
MTR04737000001000000000000000RA              23051269    005801660000016600000520000003NN  NNW 000                       N    
RDG04737000WATRL000000004K00000000000006993010602122015102702N000000000000N40       000780400K 10000000010000006975           
CUS0473700000104129297000         SHEPPARD MARK G     603 HASTINGS RD                         000N        CARE OF             
MTR04737000001000000000000000RA              00130411    005801670000016700000570000003NN  NNW 000                       N    
RDG04737000WATRL000000004K00000000000001640010502122015102544N000000000000N40       000530400K 10000000010000001619           
CUS0473700000104129298008         NAPIER-JOYCE JOY M  601 HASTINGS RD                         000N        CARE OF             
MTR04737000001000000000000000RA              32771342    005801680000016800000520000003NN  NNW 000                       N    
RDG04737000WATRL000000004K00000000000004053010402122015102451N000000000000N40       000810400K 10000000010000004036           
CUS0473700000104129299006         MCDONALD ROBERT N   19 AINTREE RD                           000N        CARE OF             
MTR04737000001000000000000000RA              14910000    005801690000016900000310000003NN  NNW 000                       N    
RDG04737000WATRL000000004K00000000000001497010302122015102330N000000000000N40       000270400K 10000000010000001465           
CUS0473700000104129300002         THORNBURG JEFFREY E 17 AINTREE RD                           000N        CARE OF             
MTR04737000001000000000000000RA              23051240    005801700000017000000520000003NN  NNW 000                       N    
RDG04737000WATRL000000004K00000000000004837010202122015102303N000000000000N40       000390400K 10000000010000004805           
CUS0473700000104129301000         SACK GEORGE H,JR    15 AINTREE RD                           000N        CARE OF             
MTR04737000001000000000000000RA              29686179    005801710000017100000520000003NN  NNW 000                       N    
RDG04737000WATRL000000004K00000000000001398010102122015102224N000000000000N40       000460400K 10000000010000001392           
CUS0473700000104129302008         CABIN JAMES E       13 AINTREE RD                           000N        CARE OF             
MTR04737000001000000000000000RA              27833084    005801720000017200000520000003NN  NNW 000                       N    
RDG04737000WATRL000000004K00000000000002843010002122015102138N000000000000N40       000780400K 10000000010000002832           
CUS0473700000104129303006         KOZELSKI MAUREEN F  11 AINTREE RD                           000N        CARE OF             
MTR04737000001000000000000000RA              27814434    005801730000017300000520000003NN  NNW 000                       N    
RDG04737000WATRL000000004K00000000000003929009902122015102020N000000000000N40       000660400K 10000000010000003903           
CUS0473700000104129304004         NATHAN M. RAIDER    9 AINTREE RD                            000N        CARE OF             
MTR04737000001000000000000000RA              14917676    005801740000017400000310000003NN  NNW 000                       N    
RDG04737000WATRL000000004K00000000000000312009802122015101914N000000000000N40       000380400K 10000000010000000284           
CUS0473700000104129305001         BIGGS STEPHEN BROOKS7 AINTREE RD                            000N        CARE OF             
MTR04737000001000000000000000RA              01102478    005801750000017500000610000003NN  NNW 000                       N    
RDG04737000WATRL000000004K00000000000001890009702122015101836N000000000000N40       000360400K 10000000010000001784           
CUS0473700000104129306009         HUTSON JOHN P       5 AINTREE RD                            000N        CARE OF             
MTR04737000001000000000000000RA              14921824    005801760000017600000310000003NN  NNW 000                       N    
RDG04737000WATRL000000004K00000000000001095009602122015101800N000000000000N40       000370400K 10000000010000001062           
CUS0473700000104129307007         BRAKEBILL JOHN      3 AINTREE RD                            000N        CARE OF             
MTR04737000001000000000000000RA              50790571    005801770000017700000520000003NN  NNW 000                       N    
RDG04737000WATRL000000004K00000000000001750009502122015101723N000000000000N40       000520400K 10000000010000001714           
CUS0473700000104129308005         LEVY DANIEL B       1 AINTREE RD                            000N        CARE OF             
MTR04737000001000000000000000RA              52768401    005801780000017800000520000003NN  NNW 000                       N    
RDG04737000WATRL000000004K00000000000001733009402122015101631N000000000000N40       001140400K 10000000010000001695           
CUS0473700000104129309003         BOONE MICHAEL J     600 WORCESTER RD                        000N        CARE OF             
MTR04737000001000000000000000RA              99287712    005801790000017900000570000003NN  NNW 000                       N    
RDG04737000WATRL000000004K00000000000001812009302122015101437N000000000000N40       000230400K 10000000010000001786           
CUS0473700000104129310001         RUDOLPHI ROBERT F   602 WORCESTER RD                        000N        CARE OF             
MTR04737000001000000000000000RA              48588088    005801800000018000000520000003NN  NNW 000                       N    
RDG04737000WATRL000000004K00000000000002642009202122015101414N000000000000N40       000460400K 10000000010000002612           
CUS0473700000104129311009         CUNNINGHAM KATHLEEN 604 WORCESTER RD                        000N        CARE OF             
MTR04737000001000000000000000RA              45382775    005801810000018100000520000003NN  NNW 000                       N    
RDG04737000WATRL000000004K00000000000002146009102122015101328N000000000000N40       000230400K 10000000010000002129           
CUS0473700000104129312007         WARD OWEN M         606 WORCESTER RD                        000N        CARE OF             
MTR04737000001000000000000000RA              35097207    005801820000018200000520000003NN  NNW 000                       N    
RDG04737000WATRL000000004K00000000000003746009002122015101305N000000000000N40       000280400K 10000000010000003707           
CUS0473700000104129313005         JOZWIAK STEVEN R    608 WORCESTER RD                        000N        CARE OF             
MTR04737000001000000000000000RA              23059850    005801830000018300000520000003NN  NNW 000                       N    
RDG04737000WATRL000000004K00000000000003978008902122015101237N000000000000N40       000370400K 10000000010000003964           
CUS0473700000104129314003         CASALE THOMAS R     610 WORCESTER RD                        000N        CARE OF             
MTR04737000001000000000000000RA              30520402    005801840000018400000520000003NN  NNW 000                       N    
RDG04737000WATRL000000004K00000000000003873008802122015101200N000000000000N40       000280400K 10000000010000003832           
CUS0473700000104129315000         FEE HERBERT T,JR    612 WORCESTER RD                        000N        CARE OF             
MTR04737000001000000000000000RA              32902256    005801850000018500000520000003NN  NNW 000                       N    
RDG04737000WATRL000000004K00000000000006850008702122015101132N000400000010N40       000600400K 10000000010000006832           
CUS0473700000104129316008         ELDRIDGE JANE M     620 WORCESTER RD                        000N        CARE OF             
MTR04737000001000000000000000RA              23051241    005801860000018600000520000003NN  NNW 000                       N    
RDG04737000WATRL000000004K00000000000007718008602122015101032N000400000010N40       001130400K 10000000010000007702           
CUS0473700000104129317006         SAUDEK MARK S       622 WORCESTER RD                        000N        CARE OF             
MTR04737000001000000000000000RA              40320598    005801870000018700000520000003NN  NNW 000                       N    
RDG04737000WATRL000000004K00000000000003224008502122015100839N000000000000N40       000240400K 10000000010000003193           
CUS0473700000104129318004         TIGHE THOMAS J G,JR 624 WORCESTER RD                        000N        CARE OF             
MTR04737000001000000000000000RA              19460811    005801880000018800000520000003NN  NNW 000                       N    
RDG04737000WATRL000000004K00000000000005583008402122015100815N000000000000N40       000340400K 10000000010000005573           
CUS0473700000104129319002         EVELIUS JOHN T      615 WORCESTER RD                        000N        CARE OF             
MTR04737000001000000000000000RA              01095692    005801890000018900000610000003NN  NNW 000                       N    
RDG04737000WATRL000000004K00000000000001031008302122015100741N000000000000N40       000580400K 10000000010000001005           
CUS0473700000104129320000         PAGANO JOHN L       613 WORCESTER RD                        000N        CARE OF             
MTR04737000001000000000000000RA              14902517    005801900000019000000310000003NN  NNW 000                       N    
RDG04737000WATRL000000004K00000000000001164008202122015100643N000000000010N40       000520400K 10000000010000001141           
CUS0473700000104129321008         PAUL L CARROLL      611 WORCESTER RD                        000N        CARE OF             
MTR04737000001000000000000000RA              27812438    005801910000019100000520000003NN  NNW 000                       N    
RDG04737000WATRL000000004K00000000000003520008102122015100551N000000000000N40       000790400K 10000000010000003477           
CUS0473700000104129322006         BEAUCHAMP JAMES L,JR609 WORCESTER RD                        000N        CARE OF             
MTR04737000001000000000000000RA              01102475    005801920000019200000610000003NN  NNW 000                       N    
RDG04737000WATRL000000004K00000000000000640008002122015100432N000000000000N40       000440400K 10000000010000000630           
CUS0473700000104129323004         CHRISTOPHER P. PREST607 WORCESTER RD                        000N        CARE OF             
MTR04737000001000000000000000RA              01097056    005801930000019300000610000003NN  NNW 000                       N    
RDG04737000WATRL000000004K00000000000001016007902122015100348N000000000000N40       000480400K 10000000010000000995           
CUS0473700000104129324002         SPRAYCAR RUDY S     605 WORCESTER RD                        000N        CARE OF             
MTR04737000001000000000000000RA              26013358    005801940000019400000520000003NN  NNW 000                       N    
RDG04737000WATRL000000004K00000000000004325007802122015100300N000000000000N40       001040400K 10000000010000004303           
CUS0473700000104129325009         THAVIKULWAT PRECHA  601 WORCESTER RD                        000N        CARE OF             
MTR04737000001000000000000000RA              23051251    005801950000019500000520000003NN  NNW 000                       N    
RDG04737000WATRL000000004K00000000000004484007702122015100116N000000000000N40       000370400K 10000000010000004459           
CUS0473700000104129326007         MURIEL J. VAN DEN BE519 WORCESTER RD                        000N        CARE OF             
MTR04737000001000000000000000RA              24773879    005801960000019600000520000003NN  NNW 000                       N    
RDG04737000WATRL000000004K00000000000006752007602122015100039N000300000010N40       000350400K 10000000010000006740           
CUS0473700000104129327005         LESTER ROBERT A     517 WORCESTER RD                        000N        CARE OF             
MTR04737000001000000000000000RA              35111237    005801970000019700000520000003NN  NNW 000                       N    
RDG04737000WATRL000000004K00000000000002238007502122015100004N000000000000N40       000410400K 10000000010000002227           
CUS0473700000104129328003         RONALD CRAIG K      515 WORCESTER RD                        000N        CARE OF             
MTR04737000001000000000000000RA              27817300    005801980000019800000520000003NN  NNW 000                       N    
RDG04737000WATRL000000004K00000000000005858007402122015095923N000000000000N40       000380400K 10000000010000005831           
CUS0473700000104129329001         ISIDORO LOUIS ANTHON513 WORCESTER RD                        000N        CARE OF             
MTR04737000001000000000000000RA              01086544    005801990000019900000610000003NN  NNW 000                       N    
RDG04737000WATRL000000004K00000000000001581007302122015095845N000000000000N40       000410400K 10000000010000001552           
CUS0473700000104129330009         MENEFEE LAWRENCE A,I511 WORCESTER RD                        000N        CARE OF             
MTR04737000001000000000000000RA              24226820    005802000000020000000520000003NN  NNW 000                       N    
RDG04737000WATRL000000004K00000000000004822007202122015095804N000000000000N40       000540400K 10000000010000004790           
CUS0473700000104129331007         COAN MICHAEL J      509 WORCESTER RD                        000N        CARE OF             
MTR04737000001000000000000000RA              19461109    005802010000020100000520000003NN  NNW 000                       N    
RDG04737000WATRL000000004K00000000000006468007102122015095710N000000000000N40       000460400K 10000000010000006433           
CUS0473700000104129332005         DEMALLIE CRAIG      507 WORCESTER RD                        000N        CARE OF             
MTR04737000001000000000000000RA              25783238    005802020000020200000520000003NN  NNW 000                       N    
RDG04737000WATRL000000004K00000000000005171007002122015095624N000000000000N40       000470400K 10000000010000005149           
CUS0473700000104129333003         FLYNN KATHLEEN M    505 WORCESTER RD                        000N        CARE OF             
MTR04737000001000000000000000RA              26009732    005802030000020300000520000003NN  NNW 000                       N    
RDG04737000WATRL000000004K00000000000006424006902122015095537N000000000000N40       000310400K 10000000010000006366           
CUS0473700000104129334001         KAMPFE DAVID F      503 WORCESTER RD                        000N        CARE OF             
MTR04737000001000000000000000RA              24762774    005802040000020400000520000003NN  NNW 000                       N    
RDG04737000WATRL000000004K00000000000003042006802122015095506N000000000000N40       001100400K 10000000010000003022           
CUS0473700000104129335008         ASCENSION EVANGELICA7601 YORK RD                            000N        CARE OF             
MTR04737000001000000000000000RA              31346161    007502050000020500000520000003NN  NNW 000                       N    
RDG04737000WATRL000000004K00000000000002069006702122015095316N000000000000N40       001650400K 10000000010000002028           
CUS0473700000104129336006         ASCENSION EVAN LUTH 500 YARMOUTH RD                         000N        CARE OF             
MTR04737000001000000000000000RA              52285546    005802060000020600000520000003NN  NNW 000                       N    
RDG04737000WATRL000000004K00000000000000766004302122015085618N000000000000N40       000440400K 10000000010000000750           
CUS0473700000104129337004         BLUM MICHAEL        502 YARMOUTH RD                         000N        CARE OF             
MTR04737000001000000000000000RA              27818163    005802070000020700000520000003NN  NNW 000                       N    
RDG04737000WATRL000000004K00000000000002280004202122015085534N000000000000N40       000420400K 10000000010000002255           
CUS0473700000104129338002         THORN NANCY J       504 YARMOUTH RD                         000N        CARE OF             
MTR04737000001000000000000000RA              27814958    005802080000020800000520000003NN  NNW 000                       N    
RDG04737000WATRL000000004K00000000000001650004102122015085452N000000000000N40       002480400K 10000000010000001645           
CUS0473700000104129339000         MORAN TIMOTHY H     506 YARMOUTH RD                         000N        CARE OF             
MTR04737000001000000000000000RA              29685893    005802090000020900000520000003NN  NNW 000                       N    
RDG04737000WATRL000000004K00000000000003782004002122015085044N000000000000N40       000340400K 10000000010000003763           
CUS0473700000104129340008         BRASHEARS DOUGLAS W 508 YARMOUTH RD                         000N        CARE OF             
MTR04737000001000000000000000RA              38985901    005802100000021000000520000003NN  NNW 000                       N    
RDG04737000WATRL000000004K00000000000002700003902122015085010N000000000000N40       000290400K 10000000010000002683           
CUS0473700000104129341006         GUTTMAN KENNETH     510 YARMOUTH RD                         000N        CARE OF             
MTR04737000001000000000000000RA              11428837    005802110000021100000570000003NN  NNW 000                       N    
RDG04737000WATRL000000004K00000000000003843003802122015084941N000000000000N40       000420400K 10000000010000003820           
CUS0473700000104129342004         WILLIAMS FREDERICK C512 YARMOUTH RD                         000N        CARE OF             
MTR04737000001000000000000000RA              14910161    005802120000021200000310000003NN  NNW 000                       N    
RDG04737000WATRL000000004K00000000000000657003702122015084859N000000000000N40       000300400K 10000000010000000644           
CUS0473700000104129343002         FESSLER HENRY E     514 YARMOUTH RD                         000N        CARE OF             
MTR04737000001000000000000000RA              14910179    005802130000021300000310000003NN  NNW 000                       N    
RDG04737000WATRL000000004K00000000000000754003602122015084829N000000000000N40       000370400K 10000000010000000732           
CUS0473700000104129344000         BARNES RICHARD M    516 YARMOUTH RD                         000N        CARE OF             
MTR04737000001000000000000000RA              32901604    005802140000021400000520000003NN  NNW 000                       N    
RDG04737000WATRL000000004K00000000000003309003502122015084752N000000000000N40       000340400K 10000000010000003282           
CUS0473700000104129345007         QUINLAN JAMES A,JR  518 YARMOUTH RD                         000N        CARE OF             
MTR04737000001000000000000000RA              26009382    005802150000021500000520000003NN  NNW 000                       N    
RDG04737000WATRL000000004K00000000000007307003402122015084718N000000000000N40       000340400K 10000000010000007284           
CUS0473700000104129346005         LAIRD ROBERT J      520 YARMOUTH RD                         000N        CARE OF             
MTR04737000001000000000000000RA              01097053    005802160000021600000610000003NN  NNW 000                       N    
RDG04737000WATRL000000004K00000000000000967003302122015084644N000400000010N40       000730400K 10000000010000000955           
CUS0473700000104129347003         CIONI P TODD        522 YARMOUTH RD                         000N        CARE OF             
MTR04737000001000000000000000RA              14910159    005802170000021700000310000003NN  NNW 000                       N    
RDG04737000WATRL000000004K00000000000000764003202122015084531N000000000000N40       000460400K 10000000010000000744           
CUS0473700000104129348001         MCKIM WAYNE L       524 YARMOUTH RD                         000N        CARE OF             
MTR04737000001000000000000000RA              14910163    005802180000021800000310000003NN  NNW 000                       N    
RDG04737000WATRL000000004K00000000000000799003102122015084445N000000000000N40       000300400K 10000000010000000784           
CUS0473700000104129349009         BULL KEVIN ROBERT   600 YARMOUTH RD                         000N        CARE OF             
MTR04737000001000000000000000RA              76347275    005802190000021900000350000003NN  NNW 000                       N    
RDG04737000WATRL000000004K00000000000000092003002122015084415N000000000000N40       000580400K 10000000010000000073           
CUS0473700000104129350007         RICHARDS J KYLE     604 YARMOUTH RD                         000N        CARE OF             
MTR04737000001000000000000000RA              36690084    005802200000022000000520000003NN  NNW 000                       N    
RDG04737000WATRL000000004K00000000000002800002902122015084317N000000000000N40       000400400K 10000000010000002775           
CUS0473700000104129351005         JOEL WEST           606 YARMOUTH RD                         000N        CARE OF             
MTR04737000001000000000000000RA              33080430    005802210000022100000520000003NN  NNW 000                       N    
RDG04737000WATRL000000004K00000000000002678002802122015084237N000000000000N40       001780400K 10000000010000002652           
CUS0473700000104129352003         THOMAS E. VAYDA     624 YARMOUTH RD                         000N        CARE OF             
MTR04737000001000000000000000RA              19459663    005802220000022200000520000003NN  NNW 000                       N    
RDG04737000WATRL000000004K00000000000005784002702122015083939N000000000000N40       000250400K 10000000010000005762           
CUS0473700000104129353001         MCCONNOR SCOT A     626 YARMOUTH RD                         000N        CARE OF             
MTR04737000001000000000000000RA              41074787    005802230000022300000520000003NN  NNW 000                       N    
RDG04737000WATRL000000004K00000000000001634002602122015083914N000000000000N40       000250400K 10000000010000001607           
CUS0473700000104129354009         SMITH MARION SINWELL628 YARMOUTH RD                         000N        CARE OF             
MTR04737000001000000000000000RA              50788532    005802240000022400000520000003NN  NNW 000                       N    
RDG04737000WATRL000000004K00000000000001828002502122015083849N000400000010N40       000330400K 10000000010000001816           
CUS0473700000104129355006         BIRCKNER V PRESTON  630 YARMOUTH RD                         000N        CARE OF             
MTR04737000001000000000000000RA              01116228    005802250000022500000610000003NN  NNW 000                       N    
RDG04737000WATRL000000004K00000000000001302002402122015083816N000400000010N40       000450400K 10000000010000001277           
CUS0473700000104129356004         PARKS LYNN ELLEN MOR632 YARMOUTH RD                         000N        CARE OF             
MTR04737000001000000000000000RA              01102556    005802260000022600000610000003NN  NNW 000                       N    
RDG04737000WATRL000000004K00000000000000892002302122015083731N000000000000N40       000360400K 10000000010000000876           
CUS0473700000104129357002         SEELEY ROBERT B     634 YARMOUTH RD                         000N        CARE OF             
MTR04737000001000000000000000RA              41088017    005802270000022700000520000003NN  NNW 000                       N    
RDG04737000WATRL000000004K00000000000001821002202122015083655N000000000000N40       000340400K 10000000010000001802           
CUS0473700000104129358000         NUETZEL STEVEN C    636 YARMOUTH RD                         000N        CARE OF             
MTR04737000001000000000000000RA              32177562    005802280000022800000520000003NN  NNW 000                       N    
RDG04737000WATRL000000004K00000000000004192002102122015083621N000000000000N40       000410400K 10000000010000004145           
CUS0473700000104129359008         MOYLAN CHRISTOPHER  638 YARMOUTH RD                         000N        CARE OF             
MTR04737000001000000000000000RA              01102079    005802290000022900000610000003NN  NNW 000                       N    
RDG04737000WATRL000000004K00000000000001694002002122015083540N000000000000N40       000290400K 10000000010000001645           
CUS0473700000104129360006         HERVY CHRISTOPHER P 640 YARMOUTH RD                         000N        CARE OF             
MTR04737000001000000000000000RA              40320405    005802300000023000000520000003NN  NNW 000                       N    
RDG04737000WATRL000000004K00000000000002959001902122015083511N000000000000N40       000230400K 10000000010000002936           
CUS0473700000104129361004         WILTONDALE IMP ASSO WS SUSSEX RD 60 FT N OF                 000N        CARE OF             
MTR04737000001000000000000000RA              36700129    001502310000023100000520000003NN  NNW 000                       N    
RDG04737000WATRL000000005K00000000000040149001802122015083448N000400000010N40       001360500K 10000000010000040140           
CUS0473700000104129362002         MEYER MICHAEL D     633 YARMOUTH RD                         000N        CARE OF             
MTR04737000001000000000000000RA              23051299    005802320000023200000520000003NN  NNW 000                       N    
RDG04737000WATRL000000004K00000000000005088001702122015083232N000000000000N40       000490400K 10000000010000005064           
CUS0473700000104129363000         CORNELIUS SEAN D    631 YARMOUTH RD                         000N        CARE OF             
MTR04737000001000000000000000RA              24757609    005802330000023300000520000003NN  NNW 000                       N    
RDG04737000WATRL000000004K00000000000003504001602122015083143N000000000000N40       000310400K 10000000010000003465           
CUS0473700000104129364008         NICOLE M NECKLAS SOR629 YARMOUTH RD                         000N        CARE OF             
MTR04737000001000000000000000RA              25783092    005802340000023400000520000003NN  NNW 000                       N    
RDG04737000WATRL000000004K00000000000005144001502122015083112N000400000010N40       000570400K 10000000010000005134           
CUS0473700000104129365005         SMEARMAN MARK C     627 YARMOUTH RD                         000N        CARE OF             
MTR04737000001000000000000000RA              29402806    005802350000023500000520000003NN  NNW 000                       N    
RDG04737000WATRL000000004K00000000000002510001402122015083015N000000000000N40       000280400K 10000000010000002481           
CUS0473700000104129366003         CHARLOW BRIAN J     625 YARMOUTH RD                         000N        CARE OF             
MTR04737000001000000000000000RA              29402857    005802360000023600000520000003NN  NNW 000                       N    
RDG04737000WATRL000000004K00000000000003766001302122015082947N000000000000N40       000440400K 10000000010000003729           
CUS0473700000104129367001         BENSON FRANK M,JR   623 YARMOUTH RD                         000N        CARE OF             
MTR04737000001000000000000000RA              36690151    005802370000023700000520000003NN  NNW 000                       N    
RDG04737000WATRL000000004K00000000000002634001202122015082903N000300000010N40       000400400K 10000000010000002615           
CUS0473700000104129368009         SAIDI EMMANUEL      621 YARMOUTH RD                         000N        CARE OF             
MTR04737000001000000000000000RA              46883122    005802380000023800000520000003NN  NNW 000                       N    
RDG04737000WATRL000000004K00000000000000821001102122015082823N000000000000N40       000310400K 10000000010000000799           
CUS0473700000104129369007         SIMONEAUX GERARD    619 YARMOUTH RD                         000N        CARE OF             
MTR04737000001000000000000000RA              01114179    005802390000023900000610000003NN  NNW 000                       N    
RDG04737000WATRL000000004K00000000000000976001002122015082752N000000000000N40       000450400K 10000000010000000945           
CUS0473700000104129370005         WALKER JAMES R      617 YARMOUTH RD                         000N        CARE OF             
MTR04737000001000000000000000RA              01113697    005802400000024000000610000003NN  NNW 000                       N    
RDG04737000WATRL000000004K00000000000002561000902122015082707N000000000000N40       000490400K 10000000010000002491           
CUS0473700000104129371003         MORTIMORE EDWARD F  615 YARMOUTH RD                         000N        CARE OF             
MTR04737000001000000000000000RA              01113704    005802410000024100000610000003NN  NNW 000                       N    
RDG04737000WATRL000000004K00000000000000534000802122015082618N000000000000N40       000290400K 10000000010000000523           
CUS0473700000104129372001         BURKETT TIMOTHY J   613 YARMOUTH RD                         000N        CARE OF             
MTR04737000001000000000000000RA              01113701    005802420000024200000610000003NN  NNW 000                       N    
RDG04737000WATRL000000004K00000000000001045000702122015082549N000000000000N40       000310400K 10000000010000001021           
CUS0473700000104129373009         LAKE JOAN M         611 YARMOUTH RD                         000N        CARE OF             
MTR04737000001000000000000000RA              27814969    005802430000024300000520000003NN  NNW 000                       N    
RDG04737000WATRL000000004K00000000000002498000602122015082518N000000000000N40       000380400K 10000000010000002481           
CUS0473700000104129374007         ZELLERHOFF JOERG    609 YARMOUTH RD                         000N        CARE OF             
MTR04737000001000000000000000RA              01113696    005802440000024400000610000003NN  NNW 000                       N    
RDG04737000WATRL000000004K00000000000001569000502122015082440N000000000000N40       000480400K 10000000010000001535           
CUS0473700000104129375004         MURCKO ROBERT JOHN  607 YARMOUTH RD                         000N        CARE OF             
MTR04737000001000000000000000RA              26008177    005802450000024500000520000003NN  NNW 000                       N    
RDG04737000WATRL000000004K00000000000004709000402122015082352N000000000000N40       000390400K 10000000010000004684           
CUS0473700000104129376002         CRAIG SALLY K       605 YARMOUTH RD                         000N        CARE OF             
MTR04737000001000000000000000RA              41080196    005802460000024600000520000003NN  NNW 000                       N    
RDG04737000WATRL000000004K00000000000001348000302122015082313N000000000000N40       000670400K 10000000010000001336           
CUS0473700000104129377000         BLEINBERGER STEPHEN 603 YARMOUTH RD                         000N        CARE OF             
MTR04737000001000000000000000RA              25783289    005802470000024700000520000003NN  NNW 000                       N    
RDG04737000WATRL000000004K00000000000002715000202122015082206N000000000000N40       000440400K 10000000010000002700           
CUS0473700000104129378008         PULYER ROBERT C     601 YARMOUTH RD                         000N        CARE OF             
MTR04737000001000000000000000RA              23647422    005802480000024800000520000003NN  NNW 000                       N    
RDG04737000WATRL000000004K00000000000005841000102122015082122N000000000000N40       000000400K 10000000010000005834           
RTR04737000NN02480248000002480000000002480248000338NY024802480248000200020000000000000000000001    02062015NY020000 N         
RHD04758500NN01810181000001810000000001810181000111NY018101810181000800000000000000000000000001    02022015NY020000 N         
CUS0475850000104136543008         RETTMAN GEORGE J    8007 RIDGELY OAK RD                     000N        CARE OF             
MTR04758500001000000000000000RA              27820397    005800010000000100000520000003NN  NNW 000                       N    
RDG04758500WATRL000000004K00000000000004707000102112015075211N000000000000N40       000000400K 10000000010000004699           
CUS0475850000104136544006         GILBERT FRANK H     8011 RIDGELY OAK RD                     000N        CARE OF             
MTR04758500001000000000000000RA              42810625    005800020000000200000520000003NN  NNW 000                       N    
RDG04758500WATRL000000004K00000000000001731000202112015075248N000000000000N40       000370400K 10000000010000001708           
CUS0475850000104136545003         WALSH JENNIFER      8013 RIDGELY OAK RD                     000N        CARE OF             
MTR04758500001000000000000000RA              33083338    005800030000000300000520000003NN  NNW 000                       N    
RDG04758500WATRL000000004K00000000000003792000302112015075321N000000000000N40       000330400K 10000000010000003783           
CUS0475850000104136546001         LA PLANTE JULIA A   8015 RIDGELY OAK RD                     000N        CARE OF             
MTR04758500001000000000000000RA              33083161    005800040000000400000520000003NN  NNW 000                       N    
RDG04758500WATRL000000004K00000000000002257000402112015075343N000000000000N40       000220400K 10000000010000002243           
CUS0475850000104136547009         STIARS ANNA MARIE   8017 RIDGELY OAK RD                     000N        CARE OF             
MTR04758500001000000000000000RA              25783313    005800050000000500000520000003NN  NNW 000                       N    
RDG04758500WATRL000000004K00000000000002520000502112015075425N000000000000N40       000420400K 10000000010000002520           
CUS0475850000104136548007         JACKSON STEVEN W,SR 8019 RIDGELY OAK RD                     000N        CARE OF             
MTR04758500001000000000000000RA              25783437    005800060000000600000520000003NN  NNW 000                       N    
RDG04758500WATRL000000004K00000000000001260017102112015094356N000000000000N40       000390400K 10000000010000001248           
CUS0475850000104136549005         ARC OF BALTIMORE INC8021 RIDGELY OAK RD                     000N        CARE OF             
MTR04758500001000000000000000RA              11330892    005800070000000700000570000003NN  NNW 000                       N    
RDG04758500WATRL000000004K00000000000005326000602112015075614N000000000000N40       001090400K 10000000010000005290           
CUS0475850000104136550003         SNEED ANNE L        8025 RIDGELY OAK RD                     000N        CARE OF             
MTR04758500001000000000000000RA              33083344    005800080000000800000520000003NN  NNW 000                       N    
RDG04758500WATRL000000004K00000000000003220000702112015075656N000000000000N40       000420400K 10000000010000003203           
CUS0475850000104136551001         BLUM JILL           8027 RIDGELY OAK RD                     000N        CARE OF             
MTR04758500001000000000000000RA              10004313    005800090000000900000570000003NN  NNW 000                       N    
RDG04758500WATRL000000004K00000000000000284000802112015075723N000000000000N40       000270400K 10000000010000000271           
CUS0475850000104136552009         VIGNERI VINCENT F   1517 DAYTONA RD                         000N        CARE OF             
MTR04758500001000000000000000RA              24760104    005800100000001000000520000003NN  NNW 000                       N    
RDG04758500WATRL000000004K00000000000003309000902112015075826N000000000000N40       000630400K 10000000010000003301           
CUS0475850000104136553007         LAIRD JAMES M       1519 DAYTONA RD                         000N        CARE OF             
MTR04758500001000000000000000RA              24760084    005800110000001100000520000003NN  NNW 000                       N    
RDG04758500WATRL000000004K00000000000003061001002112015075850N000000000000N40       000240400K 10000000010000003056           
CUS0475850000104136554005         JENSEN RICHARD C    1521 DAYTONA RD                         000N        CARE OF             
MTR04758500001000000000000000RA              35104627    005800120000001200000520000003NN  NNW 000                       N    
RDG04758500WATRL000000004K00000000000003952001102112015075925N000000000000N40       000350400K 10000000010000003925           
CUS0475850000104136555002         JUNIS PHILLIP E     1523 DAYTONA RD                         000N        CARE OF             
