FHDNNNN020004823004823004823N                                                                                           014600
RHD02631100NN03110311000003110000000003110311000710NY031103110311001600010000000000000000000001    01282015NY020000 N         
CUS0263110000102417605009         RESH NORMAN         11101 HOLLOWBROOK RD                    000N        CARE OF             
MTR02631100001000000000000000RA              99410710    000100010000000100000570000003NN  NNW 000                       N    
RDG02631100WATRL000000004K00000000000001114000102112015132859N000000000000N26       000000400K 10000000010000001089           
CUS0263110000102417606007         LEVENSTEIN DAVID M  11103 HOLLOWBROOK RD                    000N        CARE OF             
MTR02631100001000000000000000RA              99410664    000100020000000200000570000003NN  NNW 000                       N    
RDG02631100WATRL000000004K00000000000000759000202112015132934N000000000000N26       000350400K 10000000010000000740           
CUS0263110000102417607005         NGUYEN MINH         11105 HOLLOWBROOK RD                    000N        CARE OF             
MTR02631100001000000000000000RA              99410663    000100030000000300000570000003NN  NNW 000                       N    
RDG02631100WATRL000000004K00000000000001281000302112015132939N000000000000N26       000050400K 10000000010000001232           
CUS0263110000102417608003         DORSEY SKYLER B     11107 HOLLOWBROOK RD                    000N        CARE OF             
MTR02631100001000000000000000RA              00166908    000100040000000400000570000003NN  NNW 000                       N    
RDG02631100WATRL000000004K00000000000000350000402112015133005N000000000000N26       000260400K 10000000010000000329           
CUS0263110000102417609001         RICHARDS LEROY      11109 HOLLOWBROOK RD                    000N        CARE OF             
MTR02631100001000000000000000RA              50384152    000100050000000500000520000003NN  NNW 000                       N    
RDG02631100WATRL000000004K00000000000000889000502112015133022N000000000000N26       000170400K 10000000010000000878           
CUS0263110000102417610009         BLANDING JACQUETTA  11111 HOLLOWBROOK RD                    000N        CARE OF             
MTR02631100001000000000000000RA              99410648    000100060000000600000570000003NN  NNW 000                       N    
RDG02631100WATRL000000004K00000000000002466000602112015133024N000000000000N26       000020400K 10000000010000002422           
CUS0263110000102417611007         EBANKS ESTHER       11113 HOLLOWBROOK RD                    000N        CARE OF             
MTR02631100001000000000000000RA              99410646    000100070000000700000570000003NN  NNW 000                       N    
RDG02631100WATRL000000004K00000000000001040000702112015133040N000000000000N26       000160400K 10000000010000001028           
CUS0263110000102417629009         HURSEY DENISE       11132 HOLLOWBROOK RD                    000N        CARE OF             
MTR02631100001000000000000000RA              48581177    000100080000000800000520000003NN  NNW 000                       N    
RDG02631100WATRL000000004K00000000000002379000802112015133120N000000000000N26       000400400K 10000000010000002291           
CUS0263110000102417618002         LAWSON FREDDY L,2ND 11130 HOLLOWBROOK RD                    000N        CARE OF             
MTR02631100001000000000000000RA              48581449    000100090000000900000520000003NN  NNW 000                       N    
RDG02631100WATRL000000004K00000000000001600000902112015133128N000400000010N26       000080400K 10000000010000001587           
CUS0263110000102417619000         FRANCIS SHAWN P     11128 HOLLOWBROOK RD                    000N        CARE OF             
MTR02631100001000000000000000RA              99410711    000100100000001000000570000003NN  NNW 000                       N    
RDG02631100WATRL000000004K00000000000000909001002112015133149N000000000000N26       000210400K 10000000010000000901           
CUS0263110000102417620008         JULIAN EMERSON R,JR 11126 HOLLOWBROOK RD                    000N        CARE OF             
MTR02631100001000000000000000RA              99410701    000100110000001100000570000003NN  NNW 000                       N    
RDG02631100WATRL000000004K00000000000000825001102112015133152N000400000010N26       000030400K 10000000010000000799           
CUS0263110000102417621006         GROSS ROBERT K      11124 HOLLOWBROOK RD                    000N        CARE OF             
MTR02631100001000000000000000RA              99410703    000100120000001200000570000003NN  NNW 000                       N    
RDG02631100WATRL000000004K00000000000000769001202112015133207N000000000000N26       000150400K 10000000010000000755           
CUS0263110000102417622004         BROWN ALLEN,JR      11122 HOLLOWBROOK RD                    000N        CARE OF             
MTR02631100001000000000000000RA              00166911    000100130000001300000570000003NN  NNW 000                       N    
RDG02631100WATRL000000004K00000000000000352001302112015133226N000100000010N26       000190400K 10000000010000000352           
CUS0263110000102417623002         MARKMAN ELAINE F    11120 HOLLOWBROOK RD                    000N        CARE OF             
MTR02631100001000000000000000RA              52291730    000100140000001400000520000003NN  NNW 000                       N    
RDG02631100WATRL000000004K00000000000000714001402112015133244N000000000000N26       000180400K 10000000010000000714           
CUS0263110000102417624000         THACKER TRIBHUVAN R 11118 HOLLOWBROOK RD                    000N        CARE OF             
MTR02631100001000000000000000RA              99410738    000100150000001500000570000003NN  NNW 000                       N    
RDG02631100WATRL000000004K00000000000000819001502112015133247N000400000010N26       000030400K 10000000010000000789           
CUS0263110000102417625007         JENKINS MARTINA     11116 HOLLOWBROOK RD                    000N        CARE OF             
MTR02631100001000000000000000RA              99410697    000100160000001600000570000003NN  NNW 000                       N    
RDG02631100WATRL000000004K00000000000000773001602112015133311N000000000000N26       000240400K 10000000010000000739           
CUS0263110000102417626005         TEAL LISA F         11114 HOLLOWBROOK RD                    000N        CARE OF             
MTR02631100001000000000000000RA              99410696    000100170000001700000570000003NN  NNW 000                       N    
RDG02631100WATRL000000004K00000000000001457001702112015133313N000000000000N26       000020400K 10000000010000001445           
CUS0263110000102417627003         NEWSOME HERBERT R   11112 HOLLOWBROOK RD                    000N        CARE OF             
MTR02631100001000000000000000RA              99410694    000100180000001800000570000003NN  NNW 000                       N    
RDG02631100WATRL000000004K00000000000000866001802112015133324N000000000000N26       000110400K 10000000010000000842           
CUS0263110000102417612005         BUTT KHALID M       11110 HOLLOWBROOK RD                    000N        CARE OF             
MTR02631100001000000000000000RA              99410716    000100190000001900000570000003NN  NNW 000                       N    
RDG02631100WATRL000000004K00000000000002576001902112015133433N000400000010N26       000690400K 10000000010000002509           
CUS0263110000102417613003         MEHL ROBERT         11108 HOLLOWBROOK RD                    000N        CARE OF             
MTR02631100001000000000000000RA              99410715    000100200000002000000570000003NN  NNW 000                       N    
RDG02631100WATRL000000004K00000000000000955002002112015133435N000000000000N26       000020400K 10000000010000000937           
CUS0263110000102417614001         KHAN IMTIAZ         11106 HOLLOWBROOK RD                    000N        CARE OF             
MTR02631100001000000000000000RA              47377118    000100210000002100000520000003NN  NNW 000                       N    
RDG02631100WATRL000000004K00000000000001713002102112015133506N000000000000N26       000310400K 10000000010000001681           
CUS0263110000102417628001         ROBINS LISA M       11104 HOLLOWBROOK RD                    000N        CARE OF             
MTR02631100001000000000000000RA              46288052    000100220000002200000520000003NN  NNW 000                       N    
RDG02631100WATRL000000004K00000000000001509002202112015133508N000000000000N26       000020400K 10000000010000001489           
CUS0263110000102417616006         PATEL PRADIP S      11102 HOLLOWBROOK RD                    000N        CARE OF             
MTR02631100001000000000000000RA              99410713    000100230000002300000570000003NN  NNW 000                       N    
RDG02631100WATRL000000004K00000000000000998002302112015133524N000000000000N26       000160400K 10000000010000000985           
CUS0263110000102417617004         HAGEN ADAM          11100 HOLLOWBROOK RD                    000N        CARE OF             
MTR02631100001000000000000000RA              99410693    000100240000002400000570000003NN  NNW 000                       N    
RDG02631100WATRL000000004K00000000000001199002402112015133526N000000000000N26       000020400K 10000000010000001185           
CUS0263110000102402198002         RAMI HITESH H  RAMI 2 HIDDENCREEK CT                        000N        CARE OF             
MTR02631100001000000000000000RA              46880909    005800250000002500000520000000NN  NNW 000                       N    
RDG02631100WATRL000000004K00000000000002485002502112015133902N000000000000N26       002160400K 10000000010000002451           
CUS0263110000102402199000         PATEL VINUBHAI      4 HIDDENCREEK CT                        000N        CARE OF             
MTR02631100001000000000000000RA              46880926    005800260000002600000520000003NN  NNW 000                       N    
RDG02631100WATRL000000004K00000000000002094002602112015133926N000000000000N26       000240400K 10000000010000002062           
CUS0263110000102402200006         RAMI JAGDISH P      6 HIDDENCREEK CT                        000N        CARE OF             
MTR02631100001000000000000000RA              46880925    005800270000002700000520000000NN  NNW 000                       N    
RDG02631100WATRL000000004K00000000000002102002702112015133928N000000000000N26       000020400K 10000000010000002071           
CUS0263110000102402201004         STAGGERS MICHAEL W  8 HIDDENCREEK CT                        000N        CARE OF             
MTR02631100001000000000000000RA              46880914    005800280000002800000520000003NN  NNW 000                       N    
RDG02631100WATRL000000004K00000000000001834002802112015133945N000000000000N26       000170400K 10000000010000001807           
CUS0263110000102402202002         TIEDJE LARRY        10 HIDDENCREEK CT                       000N        CARE OF             
MTR02631100001000000000000000RA              46880939    005800290000002900000520000003NN  NNW 000                       N    
RDG02631100WATRL000000004K00000000000001682002902112015133947N000000000000N26       000020400K 10000000010000001672           
CUS0263110000102402203000         RAMI PANKAJKUMAR A  12 HIDDENCREEK CT                       000N        CARE OF             
MTR02631100001000000000000000RA              41081029    005800300000003000000520000003NN  NNW 000                       N    
RDG02631100WATRL000000004K00000000000003453003002112015133959N000000000000N26       000120400K 10000000010000003417           
CUS0263110000102402204008         TESHIKA E BURNSIDE  14 HIDDENCREEK CT                       000N        CARE OF             
MTR02631100001000000000000000RA              41080961    005800310000003100000520000003NN  NNW 000                       N    
RDG02631100WATRL000000004K00000000000002319003102112015134020N000400000010N26       000210400K 10000000010000002306           
CUS0263110000102402205005         LAUFER MYRON        16 HIDDENCREEK CT                       000N        CARE OF             
MTR02631100001000000000000000RA              41081035    005800320000003200000520000003NN  NNW 000                       N    
RDG02631100WATRL000000004K00000000000003489003202112015134022N000000000000N26       000020400K 10000000010000003458           
CUS0263110000102402206003         MALIK KHADIM R      18 HIDDENCREEK CT                       000N        CARE OF             
MTR02631100001000000000000000RA              41081026    005800330000003300000520000003NN  NNW 000                       N    
RDG02631100WATRL000000004K00000000000002380003302112015134100N000000000000N26       000380400K 10000000010000002358           
CUS0263110000102402207001         MUNIGANTI ASHOK     20 HIDDENCREEK CT                       000N        CARE OF             
MTR02631100001000000000000000RA              41080966    005800340000003400000520000003NN  NNW 000                       N    
RDG02631100WATRL000000004K00000000000002282003402112015134105N000000000000N26       000050400K 10000000010000002273           
CUS0263110000102402208009         RICHMOND CLAYTAWN L 24 HIDDENCREEK CT                       000N        CARE OF             
MTR02631100001000000000000000RA              41081032    005800350000003500000520000003NN  NNW 000                       N    
RDG02631100WATRL000000004K00000000000001453003502112015134114N000000000000N26       000090400K 10000000010000001453           
CUS0263110000102402209007         SALGADO GERMAN      26 HIDDENCREEK CT                       000N        CARE OF             
MTR02631100001000000000000000RA              10006124    005800360000003600000570000003NN  NNW 000                       N    
RDG02631100WATRL000000004K00000000000000582003602112015134132N000000000000N26       000180400K 10000000010000000563           
CUS0263110000102402210005         MORGAN, DEIDRE N    28 HIDDENCREEK CT                       000N        CARE OF             
MTR02631100001000000000000000RA              48586467    005800370000003700000520000003NN  NNW 000                       N    
RDG02631100WATRL000000004K00000000000002165003702112015134136N000300000010N26       000040400K 10000000010000002151           
CUS0263110000102402211003         SERGIY KLYMENKO     30 HIDDENCREEK CT                       000N        CARE OF             
MTR02631100001000000000000000RA              41080996    005800380000003800000520000003NN  NNW 000                       N    
RDG02631100WATRL000000004K00000000000001715003802112015134154N000000000000N26       000180400K 10000000010000001700           
CUS0263110000102402212001         LANG ANNETTE        32 HIDDENCREEK CT                       000N        CARE OF             
MTR02631100001000000000000000RA              41081034    005800390000003900000520000003NN  NNW 000                       N    
RDG02631100WATRL000000004K00000000000002061003902112015134156N000000000000N26       000020400K 10000000010000002041           
CUS0263110000102402213009         JAMES MARIA         34 HIDDENCREEK CT                       000N        CARE OF             
MTR02631100001000000000000000RA              41081036    005800400000004000000520000003NN  NNW 000                       N    
RDG02631100WATRL000000004K00000000000002155004002112015134217N000000000000N26       000210400K 10000000010000002128           
CUS0263110000102402214007         GRABOWSKI CELESTINE 36 HIDDENCREEK CT                       000N        CARE OF             
MTR02631100001000000000000000RA              41081030    005800410000004100000520000003NN  NNW 000                       N    
RDG02631100WATRL000000004K00000000000002499004102112015134218N000000000000N26       000010400K 10000000010000002461           
CUS0263110000102402215004         MERRICK CHRISTOPHER 38 HIDDENCREEK CT                       000N        CARE OF             
MTR02631100001000000000000000RA              41080970    005800420000004200000520000003NN  NNW 000                       N    
RDG02631100WATRL000000004K00000000000001422004202112015134239N000000000000N26       000210400K 10000000010000001416           
CUS0263110000102402216002         SINDLER BRIAN M     40 HIDDENCREEK CT                       000N        CARE OF             
MTR02631100001000000000000000RA              41080772    005800430000004300000520000003NN  NNW 000                       N    
RDG02631100WATRL000000004K00000000000001480004302112015134240N000000000000N26       000010400K 10000000010000001466           
CUS0263110000102402217000         MILLER KAREN E      35 HIDDENCREEK CT                       000N        CARE OF             
MTR02631100001000000000000000RA              36687220    005800440000004400000520000003NN  NNW 000                       N    
RDG02631100WATRL000000004K00000000000003548004402112015134308N000000000000N26       000280400K 10000000010000003518           
CUS0263110000102402218008         BADIEE ZOHREH       33 HIDDENCREEK CT                       000N        CARE OF             
MTR02631100001000000000000000RA              75426310    005800450000004500000350000003NN  NNW 000                       N    
RDG02631100WATRL000000004K00000000000000225004502112015134326N000000000000N26       000180400K 10000000010000000201           
CUS0263110000102402219006         HAMPT JOHN          31 HIDDENCREEK CT                       000N        CARE OF             
MTR02631100001000000000000000RA              30517319    005800460000004600000520000003NN  NNW 000                       N    
RDG02631100WATRL000000004K00000000000004274004602112015134328N000000000000N26       000020400K 10000000010000004228           
CUS0263110000102402220004         IKHINE ANDREW       29 HIDDENCREEK CT                       000N        CARE OF             
MTR02631100001000000000000000RA              41082399    005800470000004700000520000003NN  NNW 000                       N    
RDG02631100WATRL000000004K00000000000002255004702112015134353N000000000000N26       000250400K 10000000010000002240           
CUS0263110000102402221002         WELLS WILLIAM EDWARD27 HIDDENCREEK CT                       000N        CARE OF             
MTR02631100001000000000000000RA              35107178    005800480000004800000520000003NN  NNW 000                       N    
RDG02631100WATRL000000004K00000000000002384004802112015134356N000000000000N26       000030400K 10000000010000002375           
CUS0263110000102402222000         PANDYA KAUSHIKKUMAR 25 HIDDENCREEK CT                       000N        CARE OF             
MTR02631100001000000000000000RA              41082205    005800490000004900000520000003NN  NNW 000                       N    
RDG02631100WATRL000000004K00000000000000000000000000000000000 000000000000U         000000400  10000000010000003263           
CUS0263110000102402223008         FORI HECTOR         23 HIDDENCREEK CT                       000N        CARE OF             
MTR02631100001000000000000000RA              41082153    005800500000005000000520000003NN  NNW 000                       N    
RDG02631100WATRL000000004K00000000000000000000000000000000000 000000000000U         000000400  10000000010000003012           
CUS0263110000102402224006         MILLER JOHN WARREN,J21 HIDDENCREEK CT                       000N        CARE OF             
MTR02631100001000000000000000RA              41082202    005800510000005100000520000003NN  NNW 000                       N    
RDG02631100WATRL000000004K00000000000002572004902112015134501N000000000000N26       000650400K 10000000010000002564           
CUS0263110000102403824002         BROWN CARLOS        1101 DOE MEADOW RD                      000N        CARE OF             
MTR02631100001000000000000000RA              42809238    005800520000005200000520000003NN  NNW 000                       N    
RDG02631100WATRL000000004K00000000000002902015102122015104604N000000000000U26       000340400K 10000000010000002880           
CUS0263110000102403861004         GODSEY RONALD G     1103 DOE MEADOW RD                      000N        CARE OF             
MTR02631100001000000000000000RA              01095796    005800530000005300000610000003NN  NNW 000                       N    
RDG02631100WATRL000000004K00000000000001238015002122015104530N000000000000U26       000080400K 10000000010000001219           
CUS0263110000102403862002         HICKS JOANN CHRISTOP1105 DOE MEADOW RD                      000N        CARE OF             
MTR02631100001000000000000000RA              00131419    005800540000005400000570000003NN  NNW 000                       N    
RDG02631100WATRL000000004K00000000000000375014902122015104522N000100000030U26       000220400K 10000000010000000375           
CUS0263110000102403863000         TEMPLETON JOSHUA D  1107 DOE MEADOW RD                      000N        CARE OF             
MTR02631100001000000000000000RA              42808398    005800550000005500000520000003NN  NNW 000                       N    
RDG02631100WATRL000000004K00000000000002060014802122015104500N000000000020U26       000060400K 10000000010000002050           
CUS0263110000102403864008         YOGESHKUMAR M RAMI  1109 DOE MEADOW RD                      000N        CARE OF             
MTR02631100001000000000000000RA              42808401    005800560000005600000520000003NN  NNW 000                       N    
RDG02631100WATRL000000004K00000000000002430014702122015104454N000000000000U26       000150400K 10000000010000002408           
CUS0263110000102403865005         MADON DAVID L       1111 DOE MEADOW RD                      000N        CARE OF             
MTR02631100001000000000000000RA              42808467    005800570000005700000520000003NN  NNW 000                       N    
RDG02631100WATRL000000004K00000000000002182014602122015104439N000000000000U26       000010400K 10000000010000002163           
CUS0263110000102403866003         MITCHELL ANTON J    1113 DOE MEADOW RD                      000N        CARE OF             
MTR02631100001000000000000000RA              42808463    005800580000005800000520000003NN  NNW 000                       N    
RDG02631100WATRL000000004K00000000000001924014502122015104438N000000000000U26       000190400K 10000000010000001891           
CUS0263110000102403867001         HENRY NATASHA       1115 DOE MEADOW RD                      000N        CARE OF             
MTR02631100001000000000000000RA              44002540    005800590000005900000520000003NN  NNW 000                       N    
RDG02631100WATRL000000004K00000000000002614014402122015104419N000000000000U26       000170400K 10000000010000002592           
CUS0263110000102403868009         MIRZAEVA GALINA     1117 DOE MEADOW RD                      000N        CARE OF             
MTR02631100001000000000000000RA              48590993    005800600000006000000520000003NN  NNW 000                       N    
RDG02631100WATRL000000004K00000000000001373014302122015104402N000000000000U26       000210400K 10000000010000001357           
CUS0263110000102403869007         BONDURIS DESPINA A  1119 DOE MEADOW RD                      000N        CARE OF             
MTR02631100001000000000000000RA              50481829    005800610000006100000520000003NN  NNW 000                       N    
RDG02631100WATRL000000004K00000000000000958014202122015104341N000000000000U26       000020400K 10000000010000000949           
CUS0263110000102403870005         VAN HOLLEN CHRISTOPH1121 DOE MEADOW RD                      000N        CARE OF             
MTR02631100001000000000000000RA              44093307    005800620000006200000520000003NN  NNW 000                       N    
RDG02631100WATRL000000004K00000000000002985014102122015104339N000000000000U26       000180400K 10000000010000002942           
CUS0263110000102403871003         LIBERATORE DANTE    1123 DOEMEADOW RD                       000N        CARE OF             
MTR02631100001000000000000000RA              44093288    005800630000006300000520000003NN  NNW 000                       N    
RDG02631100WATRL000000004K00000000000000314014002122015104321N000300000010U26       000040400K 10000000010000000296           
CUS0263110000102403872001         NEWELL JOHN W       1125 DOE MEADOW RD                      000N        CARE OF             
MTR02631100001000000000000000RA              48596869    005800640000006400000520000003NN  NNW 000                       N    
RDG02631100WATRL000000004K00000000000001182013902122015104317N000000000000U26       000180400K 10000000010000001172           
CUS0263110000102403873009         FATU FARHAT         1127 DOE MEADOW RD                      000N        CARE OF             
MTR02631100001000000000000000RA              44093285    005800650000006500000520000003NN  NNW 000                       N    
RDG02631100WATRL000000004K00000000000000912013802122015104259N000000000000U26       000080400K 10000000010000000899           
CUS0263110000102403874007         KAPLAN LORI ELLEN   1129 DOE MEADOW RD                      000N        CARE OF             
MTR02631100001000000000000000RA              44093303    005800660000006600000520000003NN  NNW 000                       N    
RDG02631100WATRL000000004K00000000000001826013702122015104251N000000000000U26       000220400K 10000000010000001812           
CUS0263110000102403875004         GEDDIE ANTHONY L    1131 DOE MEADOW RD                      000N        CARE OF             
MTR02631100001000000000000000RA              48588245    005800670000006700000520000003NN  NNW 000                       N    
RDG02631100WATRL000000004K00000000000002343013602122015104229N000000000000U26       000280400K 10000000010000002304           
CUS0263110000102403876002         IGOR SOYKHER        1133 DOE MEADOW RD                      000N        CARE OF             
MTR02631100001000000000000000RA              44002544    005800680000006800000520000003NN  NNW 000                       N    
RDG02631100WATRL000000004K00000000000002899013502122015104201N000000000000U26       000020400K 10000000010000002883           
CUS0263110000102403877000         BONEY ELLYN C       1135 DOE MEADOW RD                      000N        CARE OF             
MTR02631100001000000000000000RA              48596272    005800690000006900000520000003NN  NNW 000                       N    
RDG02631100WATRL000000004K00000000000002447013402122015104159N000000000000U26       000130400K 10000000010000002413           
CUS0263110000102403878008         COOPER ZINA M       1137 DOE MEADOW RD                      000N        CARE OF             
MTR02631100001000000000000000RA              14908902    005800700000007000000310000003NN  NNW 000                       N    
RDG02631100WATRL000000004K00000000000001076013302122015104146N000000000000U26       000190400K 10000000010000001038           
CUS0263110000102403879006         ELLIOTT DIANE       1139 DOE MEADOW RD                      000N        CARE OF             
MTR02631100001000000000000000RA              52770713    005800710000007100000520000003NN  NNW 000                       N    
RDG02631100WATRL000000004K00000000000001070013202122015104127N000000000000U26       000010400K 10000000010000001054           
CUS0263110000102403880004         STEWART HAROLD EUGEN1141 DOE MEADOW RD                      000N        CARE OF             
MTR02631100001000000000000000RA              48593147    005800720000007200000520000003NN  NNW 000                       N    
RDG02631100WATRL000000004K00000000000000774013102122015104126N000000000000U26       000210400K 10000000010000000766           
CUS0263110000102403881002         ZOLLICKOFFER JOSEPH 1143 DOE MEADOW RD                      000N        CARE OF             
MTR02631100001000000000000000RA              44002537    005800730000007300000520000003NN  NNW 000                       N    
RDG02631100WATRL000000004K00000000000002183013002122015104105N000000000000U26       006840400K 10000000010000002154           
CUS0263110000102407657002         PUGH TORIE          1 SOFTWINDS CT                          000N        CARE OF             
MTR02631100001000000000000000RA              52287529    005800740000007400000520000003NN  NNW 000                       N    
RDG02631100WATRL000000004K00000000000001739016302122015105321N000000000000U26       002380400K 10000000010000001717           
CUS0263110000102407646005         HENDERSON SHANNON   3 SOFTWINDS CT                          000N        CARE OF             
MTR02631100001000000000000000RA              45377905    005800750000007500000520000003NN  NNW 000                       N    
RDG02631100WATRL000000004K00000000000002889016402122015105339N000000000000U26       000180400K 10000000010000002877           
CUS0263110000102407647003         SMERNITSKIY ALEKSAND5 SOFTWINDS CT                          000N        CARE OF             
MTR02631100001000000000000000RA              99391779    005800760000007600000570000003NN  NNW 000                       N    
RDG02631100WATRL000000004K00000000000001030016502122015105341N000000000000U26       000020400K 10000000010000001012           
CUS0263110000102407648001         MORGAN DONYA E      7 SOFTWINDS CT                          000N        CARE OF             
MTR02631100001000000000000000RA              01108624    005800770000007700000610000003NN  NNW 000                       N    
RDG02631100WATRL000000004K00000000000000810016602122015105407N000000000010U26       000260400K 10000000010000000766           
CUS0263110000102407649009         DOLLY DIA L         9 SOFTWINDS CT                          000N        CARE OF             
MTR02631100001000000000000000RA              01108594    005800780000007800000610000003NN  NNW 000                       N    
RDG02631100WATRL000000004K00000000000000790016702122015105408N000000000000U26       000010400K 10000000010000000771           
CUS0263110000102407650007         BALOGUN-TOYO MUYIBA 11 SOFTWINDS CT                         000N        CARE OF             
MTR02631100001000000000000000RA              99286234    005800790000007900000570000003NN  NNW 000                       N    
RDG02631100WATRL000000004K00000000000001415016802122015105424N000000000000U26       000160400K 10000000010000001401           
CUS0263110000102407651005         TOMAZAR PAUL        13 SOFTWINDS CT                         000N        CARE OF             
MTR02631100001000000000000000RA              78005419    005800800000008000000350000003NY  NNW 000                       N    
MTM0263110078005419    AMI                                                                                                    
RDG02631100WATRL000000004K00000000000000000000102142015124143S001000000001U26       327670400K 10000000010000000000           
CUS0263110000102407652003         HINTON SHIRLEY      15 SOFTWINDS CT                         000N        CARE OF             
MTR02631100001000000000000000RA              01108593    005800810000008100000610000003NN  NNW 000                       N    
RDG02631100WATRL000000004K00000000000000741016902122015105454N000000000000U26       000300400K 10000000010000000726           
CUS0263110000102407653001         TONICO ANGIE R      17 SOFTWINDS CT                         000N        CARE OF             
MTR02631100001000000000000000RA              01108616    005800820000008200000610000003NN  NNW 000                       N    
RDG02631100WATRL000000004K00000000000001069017002122015105456N000000000000U26       000020400K 10000000010000001042           
CUS0263110000102407654009         LEVIN EUGENIA       19 SOFTWINDS CT                         000N        CARE OF             
MTR02631100001000000000000000RA              45376800    005800830000008300000520000003NN  NNW 000                       N    
RDG02631100WATRL000000004K00000000000002928017102122015105529N000000000000U26       000330400K 10000000010000002910           
CUS0263110000102407655006         CARMEN CARELA       21 SOFTWINDS CT                         000N        CARE OF             
MTR02631100001000000000000000RA              01094274    005800840000008400000610000003NN  NNW 000                       N    
RDG02631100WATRL000000004K00000000000001063017202122015105530N000000000000U26       000010400K 10000000010000001041           
CUS0263110000102407656004         JONES IRIS K        23 SOFTWINDS CT                         000N        CARE OF             
MTR02631100001000000000000000RA              45376764    005800850000008500000520000003NN  NNW 000                       N    
RDG02631100WATRL000000004K00000000000001780017302122015105601N000300000020U26       000310400K 10000000010000001784           
CUS0263110000102407673009         JACKSON CHRISTOPHETR32 SOFTWINDS CT                         000N        CARE OF             
MTR02631100001000000000000000RA              32178135    005800860000008600000520000003NN  NNW 000                       N    
RDG02631100WATRL000000004K00000000000001891017402122015105641N000000000000U26       000400400K 10000000010000001867           
CUS0263110000102407672001         ZIMMERMAN CATHERINE 30 SOFTWINDS CT                         000N        CARE OF             
MTR02631100001000000000000000RA              38887881    005800870000008700000520000003NN  NNW 000                       N    
RDG02631100WATRL000000004K00000000000001823017502122015105710N000000000000U26       000290400K 10000000010000001811           
CUS0263110000102407671003         FERGUSON KRISTEN L  28 SOFTWINDS CT                         000N        CARE OF             
MTR02631100001000000000000000RA              33077843    005800880000008800000520000003NN  NNW 000                       N    
RDG02631100WATRL000000004K00000000000001963017602122015105711N000000000000U26       000010400K 10000000010000001944           
CUS0263110000102407670005         ABRAMOV ANDREI      26 SOFTWINDS CT                         000N        CARE OF             
MTR02631100001000000000000000RA              35115632    005800890000008900000520000003NN  NNW 000                       N    
RDG02631100WATRL000000004K00000000000003411017702122015105749N000000000000U26       000380400K 10000000010000003380           
CUS0263110000102407669007         WHATLEY WILLIAM D   24 SOFTWINDS CT                         000N        CARE OF             
MTR02631100001000000000000000RA              40049599    005800900000009000000520000003NN  NNW 000                       N    
RDG02631100WATRL000000004K00000000000002016017802122015105750N000000000000U26       000010400K 10000000010000002007           
CUS0263110000102407668009         BUTLER DAVID D      22 SOFTWINDS CT                         000N        CARE OF             
MTR02631100001000000000000000RA              36693296    005800910000009100000520000003NN  NNW 000                       N    
RDG02631100WATRL000000004K00000000000002089017902122015105814N000000000000U26       000240400K 10000000010000002066           
CUS0263110000102407667001         LERMAN POLINA       20 SOFTWINDS CT                         000N        CARE OF             
MTR02631100001000000000000000RA              36697585    005800920000009200000520000003NN  NNW 000                       N    
RDG02631100WATRL000000004K00000000000001629018002122015105815N000000000000U26       000010400K 10000000010000001611           
CUS0263110000102407666003         SEALS DEKEYA        18 SOFTWINDS CT                         000N        CARE OF             
MTR02631100001000000000000000RA              44176519    005800930000009300000520000003NN  NNW 000                       N    
RDG02631100WATRL000000004K00000000000000964018102122015105834N000000000000U26       000190400K 10000000010000000953           
CUS0263110000102407665005         MCKESSON EVELYN     16 SOFTWINDS CT                         000N        CARE OF             
MTR02631100001000000000000000RA              01108587    005800940000009400000610000003NN  NNW 000                       N    
RDG02631100WATRL000000004K00000000000000450018202122015105859N000000000000U26       000250400K 10000000010000000436           
CUS0263110000102407664008         ROBERTSON SARA      14 SOFTWINDS CT                         000N        CARE OF             
MTR02631100001000000000000000RA              01108602    005800950000009500000610000003NN  NNW 000                       N    
RDG02631100WATRL000000004K00000000000000619018302122015105901N000000000000U26       000020400K 10000000010000000608           
CUS0263110000102407663000         CZYPINSKI RICHARD   12 SOFTWINDS CT                         000N        CARE OF             
MTR02631100001000000000000000RA              10021265    005800960000009600000570000003NN  NNW 000                       N    
RDG02631100WATRL000000004K00000000000000135018402122015105936N000000000011U26       000110400K 10000000010000000120           
CUS0263110000102407662002         DION JACKSON        10 SOFTWINDS CT                         000N        CARE OF             
MTR02631100001000000000000000RA              45375523    005800970000009700000520000003NN  NNW 000                       N    
RDG02631100WATRL000000004K00000000000001893018502122015105946N000000000011U26       000100400K 10000000010000001870           
CUS0263110000102407661004         PYNADATH MARY       8 SOFTWINDS CT                          000N        CARE OF             
MTR02631100001000000000000000RA              01108961    005800980000009800000610000003NN  NNW 000                       N    
RDG02631100WATRL000000004K00000000000000305018602122015110012N000000000000U26       000260400K 10000000010000000297           
CUS0263110000102407660006         D DESMOND DECKER    6 SOFTWINDS CT                          000N        CARE OF             
MTR02631100001000000000000000RA              01108591    005800990000009900000610000003NN  NNW 000                       N    
RDG02631100WATRL000000004K00000000000001231018702122015110014N000000000000U26       000020400K 10000000010000001214           
CUS0263110000102407659008         DEMONTRAY L HAWKINS 4 SOFTWINDS CT                          000N        CARE OF             
MTR02631100001000000000000000RA              45375404    005801000000010000000520000003NN  NNW 000                       N    
RDG02631100WATRL000000004K00000000000001102018802122015110040N000000000000U26       000260400K 10000000010000001095           
CUS0263110000102407658000         CHUDNOVSKAYA IRINA  2 SOFTWINDS CT                          000N        CARE OF             
MTR02631100001000000000000000RA              45374729    005801010000010100000520000003NN  NNW 000                       N    
RDG02631100WATRL000000004K00000000000002057018902122015110042N000000000000U26       000020400K 10000000010000002028           
CUS0263110000102407522008         PATEL PURVI  THAKKAR1143 SILENTGLADE RD                     000N        CARE OF             
MTR02631100001000000000000000RA              44176244    005801020000010200000520000003NN  NNW 000                       N    
RDG02631100WATRL000000004K00000000000002775001302122015091225N000000000000U26       000160400K 10000000010000002714           
CUS0263110000102407523006         ISKRA GREGG         1141 SILENTGLADE RD                     000N        CARE OF             
MTR02631100001000000000000000RA              36688789    005801030000010300000520000003NN  NNW 000                       N    
RDG02631100WATRL000000004K00000000000002091001202122015091209N000000000000U26       000020400K 10000000010000002024           
CUS0263110000102407524004         GARCIA ROGER        1139 SILENTGLADE RD                     000N        CARE OF             
MTR02631100001000000000000000RA              31581158    005801040000010400000520000003NN  NNW 000                       N    
RDG02631100WATRL000000004K00000000000003087001102122015091207N000000000000U26       000180400K 10000000010000003069           
CUS0263110000102407525001         FERGUSON RENEE D    1137 SILENTGLADE RD                     000N        CARE OF             
MTR02631100001000000000000000RA              10002382    005801050000010500000570000003NN  NNW 000                       N    
RDG02631100WATRL000000004K00000000000000756001002122015091149N000000000000U26       000020400K 10000000010000000740           
CUS0263110000102407526009         SNOWDEN MARY A      1135 SILENTGLADE RD                     000N        CARE OF             
MTR02631100001000000000000000RA              32900421    005801060000010600000520000003NN  NNW 000                       N    
RDG02631100WATRL000000004K00000000000002464000902122015091147N000000000000U26       000280400K 10000000010000002456           
CUS0263110000102407527007         ANDERSON ALYCIA     1133 SILENTGLADE RD                     000N        CARE OF             
MTR02631100001000000000000000RA              33730751    005801070000010700000520000003NN  NNW 000                       N    
RDG02631100WATRL000000004K00000000000002930000802122015091119N000000000000U26       000020400K 10000000010000002916           
CUS0263110000102407528005         ROSENSTEEN SARAH NIC1131 SILENTGLADE RD                     000N        CARE OF             
MTR02631100001000000000000000RA              44002497    005801080000010800000520000003NN  NNW 000                       N    
RDG02631100WATRL000000004K00000000000001470000702122015091117N000000000000U26       000270400K 10000000010000001443           
CUS0263110000102407529003         BERGER VALERIE M    1129 SILENTGLADE RD                     000N        CARE OF             
MTR02631100001000000000000000RA              35115912    005801090000010900000520000003NN  NNW 000                       N    
RDG02631100WATRL000000004K00000000000002766000602122015091050N000000000000U26       000330400K 10000000010000002757           
CUS0263110000102407530001         E & R ZAK           1127 SILENTGLADE RD                     000N        CARE OF             
MTR02631100001000000000000000RA              44175610    005801100000011000000520000003NN  NNW 000                       N    
RDG02631100WATRL000000004K00000000000002273000502122015091017N000000000000U26       000180400K 10000000010000002251           
CUS0263110000102407531009         RAYE ROSITA A       1125 SILENTGLADE RD                     000N        CARE OF             
MTR02631100001000000000000000RA              44175303    005801110000011100000520000003NN  NNW 000                       N    
RDG02631100WATRL000000004K00000000000001366000402122015090959N000000000000U26       000250400K 10000000010000001355           
CUS0263110000102407532007         FLAMER DAMON        1123 SILENTGLADE RD                     000N        CARE OF             
MTR02631100001000000000000000RA              31587342    005801120000011200000520000003NN  NNW 000   VACANT / LOT        N    
RDG02631100WATRL000000004K00000000000002568003202142015124207N000000000001U26       000240400K 10000000010000002568           
CUS0263110000102407533005         ANOKHIN FELIX       1121 SILENTGLADE RD                     000N        CARE OF             
MTR02631100001000000000000000RA              32770102    005801130000011300000520000003NN  NNW 000                       N    
RDG02631100WATRL000000004K00000000000003677000302122015090934N000000000000U26       000030400K 10000000010000003660           
CUS0263110000102407534003         MUMMERT RYAN        1119 SILENTGLADE RD                     000N        CARE OF             
MTR02631100001000000000000000RA              44175291    005801140000011400000520000003NN  NNW 000                       N    
RDG02631100WATRL000000004K00000000000001581000202122015090931N000000000000U26       000300400K 10000000010000001553           
CUS0263110000102407535000         OFORI FRANCIS Y     1117 SILENTGLADE RD                     000N        CARE OF             
MTR02631100001000000000000000RA              45379583    005801150000011500000520000003NN  NNW 000                       N    
RDG02631100WATRL000000004K00000000000001680000102122015090901N000000000000U26       000000400K 10000000010000001663           
CUS0263110000102407514005         EDOGUN OLUDOLAPO    1115 SILENTGLADE RD                     000N        CARE OF             
MTR02631100001000000000000000RA              44176646    005801160000011600000520000003NN  NNW 000                       N    
RDG02631100WATRL000000004K00000000000003050007102122015093056N000000000000U26       000230400K 10000000010000003029           
CUS0263110000102407515002         CEESAY KEBBA S      1113 SILENTGLADE RD                     000N        CARE OF             
MTR02631100001000000000000000RA              10009671    005801170000011700000570000003NN  NNW 000                       N    
RDG02631100WATRL000000004K00000000000000309007002122015093033N000000000000U26       000020400K 10000000010000000285           
CUS0263110000102407516000         BROWN CASSANDRA WILS1111 SILENTGLADE RD                     000N        CARE OF             
MTR02631100001000000000000000RA              44176645    005801180000011800000520000003NN  NNW 000                       N    
RDG02631100WATRL000000004K00000000000002045006902122015093031N000000000000U26       000130400K 10000000010000002036           
CUS0263110000102407517008         FRENCH STACY T      1109 SILENTGLADE RD                     000N        CARE OF             
MTR02631100001000000000000000RA              44176648    005801190000011900000520000003NN  NNW 000                       N    
RDG02631100WATRL000000004K00000000000002992003302142015124215N000000000011U26       000080400K 10000000010000002992           
CUS0263110000102407518006         HESCHL WILLIAM C    1107 SILENTGLADE RD                     000N        CARE OF             
MTR02631100001000000000000000RA              44176246    005801200000012000000520000003NN  NNW 000                       N    
RDG02631100WATRL000000004K00000000000003008006702122015093016N000000000000U26       000270400K 10000000010000002973           
CUS0263110000102407519004         VAUGHN PATRICK W,SR 1105 SILENTGLADE RD                     000N        CARE OF             
MTR02631100001000000000000000RA              44176245    005801210000012100000520000003NN  NNW 000                       N    
RDG02631100WATRL000000004K00000000000002264006602122015092949N000000000000U26       000020400K 10000000010000002248           
CUS0263110000102407520002         REMMEY PATRICIA A   1103 SILENTGLADE RD                     000N        CARE OF             
MTR02631100001000000000000000RA              44176649    005801220000012200000520000003NN  NNW 000                       N    
RDG02631100WATRL000000004K00000000000002173006502122015092947N000000000000U26       000250400K 10000000010000002148           
CUS0263110000102407521000         SCOTT FERNANDO T    1101 SILENTGLADE RD                     000N        CARE OF             
MTR02631100001000000000000000RA              01102492    005801230000012300000610000003NN  NNW 000                       N    
RDG02631100WATRL000000004K00000000000001831006402122015092922N000000000010U26       000460400K 10000000010000001790           
CUS0263110000102403818004         YEBOAH NIYA         2 SILENTWOOD CT                         000N        CARE OF             
MTR02631100001000000000000000RA              42808465    005801240000012400000520000003NN  NNW 000                       N    
RDG02631100WATRL000000004K00000000000002791015202122015104700N000300000010U26       000560400K 10000000010000002534           
CUS0263110000102403819002         BYRD BRIAN          4 SILENTWOOD CT                         000N        CARE OF             
MTR02631100001000000000000000RA              42808466    005801250000012500000520000003NN  NNW 000                       N    
RDG02631100WATRL000000004K00000000000002317015302122015104724N000000000000U26       000240400K 10000000010000002291           
CUS0263110000102403820000         CLOUSPY GREGORY G   6 SILENTWOOD CT                         000N        CARE OF             
MTR02631100001000000000000000RA              42809555    005801260000012600000520000003NN  NNW 000                       N    
RDG02631100WATRL000000004K00000000000001750015402122015104725N000000000000U26       000010400K 10000000010000001734           
CUS0263110000102403821008         LEFEBER ZACHARY A   8 SILENTWOOD CT                         000N        CARE OF             
MTR02631100001000000000000000RA              42808462    005801270000012700000520000003NN  NNW 000                       N    
RDG02631100WATRL000000004K00000000000003054015502122015104739N000000000000U26       000140400K 10000000010000003032           
CUS0263110000102403822006         HARTLEY DOREEN M    10 SILENTWOOD CT                        000N        CARE OF             
MTR02631100001000000000000000RA              42808565    005801280000012800000520000003NN  NNW 000                       N    
RDG02631100WATRL000000004K00000000000001689015602122015104741N000000000000U26       000020400K 10000000010000001661           
CUS0263110000102403825009         NEWELL CHARLES      12 SILENTWOOD CT                        000N        CARE OF             
MTR02631100001000000000000000RA              42808400    005801290000012900000520000003NN  NNW 000                       N    
RDG02631100WATRL000000004K00000000000001274015702122015104758N000000000000U26       000170400K 10000000010000001253           
CUS0263110000102403912005         HUQ CAROLYN         14 SILENTWOOD CT                        000N        CARE OF             
MTR02631100001000000000000000RA              42809726    005801300000013000000520000003NN  NNW 000                       N    
RDG02631100WATRL000000004K00000000000001310015802122015104844N000000000000U26       000460400K 10000000010000001300           
CUS0263110000102403911007         LIEBOWITZ MARK      16 SILENTWOOD CT                        000N        CARE OF             
MTR02631100001000000000000000RA              42809765    005801310000013100000520000003NN  NNW 000                       N    
RDG02631100WATRL000000004K00000000000001187015902122015104846N000000000000U26       000020400K 10000000010000001177           
CUS0263110000102403910009         FRONC CATHERINE     18 SILENTWOOD CT                        000N        CARE OF             
MTR02631100001000000000000000RA              42809799    005801320000013200000520000003NN  NNW 000                       N    
RDG02631100WATRL000000004K00000000000001504016002122015104904N000000000000U26       000180400K 10000000010000001488           
CUS0263110000102403857002         ONYEJIAKA EBERECHI  20 SILENTWOOD CT                        000N        CARE OF             
MTR02631100001000000000000000RA              42809725    005801330000013300000520000003NN  NNW 000                       N    
RDG02631100WATRL000000004K00000000000003611016102122015104906N000000000000U26       000020400K 10000000010000003575           
CUS0263110000102403856004         HAFEEZ MOHAMMAD     22 SILENTWOOD CT                        000N        CARE OF             
MTR02631100001000000000000000RA              42809501    005801340000013400000520000003NN  NNW 000                       N    
RDG02631100WATRL000000004K00000000000002429016202122015104923N000000000010U26       000170400K 10000000010000002426           
CUS0263110000102403855006         COLY KARLEEN        59 SILENTWOOD CT                        000N        CARE OF             
MTR02631100001000000000000000RA              44002410    005801350000013500000520000003NN  NNW 000                       N    
RDG02631100WATRL000000004K00000000000001995001402122015091405N000000000000U26       001000400K 10000000010000001962           
CUS0263110000102403854009         SCHWARTZ BENNETT    57 SILENTWOOD CT                        000N        CARE OF             
MTR02631100001000000000000000RA              44002670    005801360000013600000520000003NN  NNW 000                       N    
RDG02631100WATRL000000004K00000000000001601001502122015091435N000000000000U26       000300400K 10000000010000001579           
CUS0263110000102403853001         BAKER STANLEY       55 SILENTWOOD CT                        000N        CARE OF             
MTR02631100001000000000000000RA              44002541    005801370000013700000520000003NN  NNW 000                       N    
RDG02631100WATRL000000004K00000000000002362001602122015091436N000000000000U26       000010400K 10000000010000002346           
CUS0263110000102403852003         PRAJAPATI KAMLESH C/53 SILENTWOOD CT                        000N        CARE OF             
MTR02631100001000000000000000RA              48590907    005801380000013800000520000003NN  NNW 000                       N    
RDG02631100WATRL000000004K00000000000001947001702122015091456N000300000010U26       000200400K 10000000010000001929           
CUS0263110000102403851005         BLACKWELL ROCHELLE J51 SILENTWOOD CT                        000N        CARE OF             
MTR02631100001000000000000000RA              44002543    005801390000013900000520000003NN  NNW 000                       N    
RDG02631100WATRL000000004K00000000000001436001802122015091457N000000000000U26       000010400K 10000000010000001422           
CUS0263110000102403850007         HELLER PAIGE        49 SILENTWOOD CT                        000N        CARE OF             
MTR02631100001000000000000000RA              44002611    005801400000014000000520000003NN  NNW 000                       N    
RDG02631100WATRL000000004K00000000000001623001902122015091516N000000000000U26       000190400K 10000000010000001603           
CUS0263110000102403849009         NJOKU KELECHI       47 SILENTWOOD CT                        000N        CARE OF             
MTR02631100001000000000000000RA              44002535    005801410000014100000520000003NN  NNW 000                       N    
RDG02631100WATRL000000004K00000000000002164002002122015091518N000000000000U26       000020400K 10000000010000002156           
CUS0263110000102403848001         BRAMMER BRENNAN C   45 SILENTWOOD CT                        000N        CARE OF             
MTR02631100001000000000000000RA              44002666    005801420000014200000520000003NN  NNW 000                       N    
RDG02631100WATRL000000004K00000000000001643002102122015091541N000000000000U26       000230400K 10000000010000001620           
CUS0263110000102403847003         PROCTOR GREGORY F,2N43 SILENTWOOD CT                        000N        CARE OF             
MTR02631100001000000000000000RA              30513270    005801430000014300000520000003NN  NNW 000                       N    
RDG02631100WATRL000000004K00000000000002767002202122015091557N000000000000U26       000160400K 10000000010000002755           
CUS0263110000102403846005         HESCHL DEBORAH L    41 SILENTWOOD CT                        000N        CARE OF             
MTR02631100001000000000000000RA              31586240    005801440000014400000520000003NN  NNW 000                       N    
RDG02631100WATRL000000004K00000000000003456002302122015091614N000000000000U26       000170400K 10000000010000003428           
CUS0263110000102403845007         BOUVERE DWAYNE A    39 SILENTWOOD CT                        000N        CARE OF             
MTR02631100001000000000000000RA              35106878    005801450000014500000520000003NN  NNW 000                       N    
RDG02631100WATRL000000004K00000000000002396002402122015091616N000000000000U26       000020400K 10000000010000002379           
CUS0263110000102403844000         PAYKOV IGOR         37 SILENTWOOD CT                        000N        CARE OF             
MTR02631100001000000000000000RA              38984186    005801460000014600000520000003NN  NNW 000                       N    
RDG02631100WATRL000000004K00000000000004501002502122015091637N000000000000U26       000210400K 10000000010000004460           
CUS0263110000102403843002         AMOS DEANNA M       35 SILENTWOOD CT                        000N        CARE OF             
MTR02631100001000000000000000RA              39583135    005801470000014700000520000003NN  NNW 000                       N    
RDG02631100WATRL000000004K00000000000001686002602122015091640N000000000000U26       000030400K 10000000010000001671           
CUS0263110000102403842004         ABID CHAUDHRY       33 SILENTWOOD CT                        000N        CARE OF             
MTR02631100001000000000000000RA              30513909    005801480000014800000520000003NN  NNW 000                       N    
RDG02631100WATRL000000004K00000000000002579002702122015091707N000000000000U26       000270400K 10000000010000002555           
CUS0263110000102403841006         OLIVER DELVONA      31 SILENTWOOD CT                        000N        CARE OF             
MTR02631100001000000000000000RA              50480122    005801490000014900000520000003NN  NNW 000                       N    
RDG02631100WATRL000000004K00000000000001539002802122015091711N000000000000U26       000040400K 10000000010000001522           
CUS0263110000102403840008         WALKER ANDRE        29 SILENTWOOD CT                        000N        CARE OF             
MTR02631100001000000000000000RA              33734624    005801500000015000000520000003NN  NNW 000                       N    
RDG02631100WATRL000000004K00000000000002902003402142015124219N000000000001U26       000040400K 10000000010000002902           
CUS0263110000102403839000         SCHABDACH MARIA K   27 SILENTWOOD CT                        000N        CARE OF             
MTR02631100001000000000000000RA              30525461    005801510000015100000520000003NN  NNW 000                       N    
RDG02631100WATRL000000004K00000000000002609003002122015091753N000000000000U26       000070400K 10000000010000002577           
CUS0263110000102403838002         GRANGER TINA        25 SILENTWOOD CT                        000N        CARE OF             
MTR02631100001000000000000000RA              14900967    005801520000015200000310000003NN  NNW 000                       N    
RDG02631100WATRL000000004K00000000000000491003102122015091810N000000000000U26       000170400K 10000000010000000479           
CUS0263110000102403837004         MCKENZIE DAVID G    23 SILENTWOOD CT                        000N        CARE OF             
MTR02631100001000000000000000RA              14900966    005801530000015300000310000003NN  NNW 000                       N    
RDG02631100WATRL000000004K00000000000000838003202122015091812N000000000000U26       000020400K 10000000010000000811           
CUS0263110000102403836006         BEACHAM DOUGLAS W,JR21 SILENTWOOD CT                        000N        CARE OF             
MTR02631100001000000000000000RA              44003665    005801540000015400000520000003NN  NNW 000                       N    
RDG02631100WATRL000000004K00000000000002755003302122015091835N000000000000U26       000230400K 10000000010000002740           
CUS0263110000102403835008         DIEHL DONALD C      19 SILENTWOOD CT                        000N        CARE OF             
MTR02631100001000000000000000RA              31581669    005801550000015500000520000003NN  NNW 000                       N    
RDG02631100WATRL000000004K00000000000001928003402122015091901N000300000020U26       000260400K 10000000010000001944           
CUS0263110000102403834001         PORTNOY IAKOV       17 SILENTWOOD CT                        000N        CARE OF             
MTR02631100001000000000000000RA              01089472    005801560000015600000610000003NN  NNW 000                       N    
RDG02631100WATRL000000004K00000000000001230003502122015091926N000000000000U26       000250400K 10000000010000001190           
CUS0263110000102403833003         CISNEY BARRETT L    15 SILENTWOOD CT                        000N        CARE OF             
MTR02631100001000000000000000RA              01074958    005801570000015700000610000003NN  NNW 000                       N    
RDG02631100WATRL000000004K00000000000000525003602122015091928N000000000000U26       000020400K 10000000010000000519           
CUS0263110000102403832005         KODECK GARY         13 SILENTWOOD CT                        000N        CARE OF             
MTR02631100001000000000000000RA              48590904    005801580000015800000520000003NN  NNW 000                       N    
RDG02631100WATRL000000004K00000000000001652003702122015091950N000000000000U26       000220400K 10000000010000001632           
CUS0263110000102403831007         AKINLADE OLAJIDE    11 SILENTWOOD CT                        000N        CARE OF             
MTR02631100001000000000000000RA              14929944    005801590000015900000310000003NY  NNW 000                       N    
MTM0263110014929944    ICE                                                                                                    
RDG02631100WATRL000000004K00000000000000000000000000000000000 000000000000U         000000400  10000000010000000575           
CUS0263110000102403830009         GOGLIO DONALD  GOGLI9 SILENTWOOD CT                         000N        CARE OF             
MTR02631100001000000000000000RA              44089468    005801600000016000000520000003NY  NNW 000                       N    
MTM0263110044089468    ICE                                                                                                    
RDG02631100WATRL000000004K00000000000000000000000000000000000 000000000000U         000000400  10000000010000001807           
CUS0263110000102403829001         CHARLES JOANNE      7 SILENTWOOD CT                         000N        CARE OF             
MTR02631100001000000000000000RA              44089027    005801610000016100000520000003NN  NNW 000                       N    
RDG02631100WATRL000000004K00000000000001389003802122015092049N000000000000U26       000590400K 10000000010000001371           
CUS0263110000102403828003         CHRISTOPHER BRITTING5 SILENTWOOD CT                         000N        CARE OF             
MTR02631100001000000000000000RA              52285449    005801620000016200000520000003NN  NNW 000                       N    
RDG02631100WATRL000000004K00000000000001438003902122015092051N000000000000U26       000020400K 10000000010000001402           
CUS0263110000102403827005         TAMIKA TORRES       3 SILENTWOOD CT                         000N        CARE OF             
MTR02631100001000000000000000RA              01110431    005801630000016300000610000003NN  NNW 000                       N    
RDG02631100WATRL000000004K00000000000000954004002122015092116N000000000000U26       000250400K 10000000010000000926           
CUS0263110000102403826007         JOHNSON TONDALAYA L 1 SILENTWOOD CT                         000N        CARE OF             
MTR02631100001000000000000000RA              01100244    005801640000016400000610000003NN  NNW 000                       N    
RDG02631100WATRL000000004K00000000000000808004102122015092118N000000000000U26       000020400K 10000000010000000780           
CUS0263110000102402787002         JOHNSON JONATHAN BRU100 GENTLEBROOK RD                      000N        CARE OF             
MTR02631100001000000000000000RA              42808396    005801650000016500000520000003NN  NNW 000                       N    
RDG02631100WATRL000000004K00000000000001474004202122015092239N000000000000U26       000810400K 10000000010000001459           
CUS0263110000102402788000         KOESTER WILLIAM     102 GENTLEBROOK RD                      000N        CARE OF             
MTR02631100001000000000000000RA              41088641    005801660000016600000520000003NN  NNW 000                       N    
RDG02631100WATRL000000004K00000000000001737004302122015092253N000000000000U26       000140400K 10000000010000001722           
CUS0263110000102402789008         SCHRIEFER APRIL C   104 GENTLEBROOK RD                      000N        CARE OF             
MTR02631100001000000000000000RA              41088659    005801670000016700000520000003NN  NNW 000                       N    
RDG02631100WATRL000000004K00000000000001564004402122015092255N000000000000U26       000020400K 10000000010000001546           
CUS0263110000102402790006         MULLIN DOROTHY NINA 106 GENTLEBROOK RD                      000N        CARE OF             
MTR02631100001000000000000000RA              41088699    005801680000016800000520000003NN  NNW 000                       N    
RDG02631100WATRL000000004K00000000000001868004502122015092310N000300000010U26       000150400K 10000000010000001846           
CUS0263110000102402791004         SHRESTHA ANJITA     108 GENTLEBROOK RD                      000N        CARE OF             
MTR02631100001000000000000000RA              41088644    005801690000016900000520000003NN  NNW 000                       N    
RDG02631100WATRL000000004K00000000000001311004602122015092312N000000000000U26       000020400K 10000000010000001306           
CUS0263110000102402792002         UNGAR MARY ANNE     110 GENTLEBROOK RD                      000N        CARE OF             
MTR02631100001000000000000000RA              41088170    005801700000017000000520000003NN  NNW 000                       N    
RDG02631100WATRL000000004K00000000000001833004702122015092339N000000000000U26       000270400K 10000000010000001820           
CUS0263110000102402793000         YANCEY DIVINA L     112 GENTLEBROOK RD                      000N        CARE OF             
MTR02631100001000000000000000RA              41088160    005801710000017100000520000003NN  NNW 000                       N    
RDG02631100WATRL000000004K00000000000003555004802122015092340N000000000000U26       000010400K 10000000010000003524           
CUS0263110000102402794008         DO JIMMY C          114 GENTLEBROOK RD                      000N        CARE OF             
MTR02631100001000000000000000RA              10024378    005801720000017200000570000003NN  NNW 000                       N    
RDG02631100WATRL000000004K00000000000000307004902122015092400N000000000000U26       000200400K 10000000010000000270           
CUS0263110000102402795005         WELLS FARGO HOME MOR116 GENTLEBROOK RD                      000N        CARE OF             
MTR02631100001000000000000000RA              41088197    005801730000017300000520000003NN  NNW 000                       N    
RDG02631100WATRL000000004K00000000000002487003502142015124224N000000000001U26       000050400K 10000000010000002487           
CUS0263110000102402796003         ASLAM SAMERA        118 GENTLEBROOK RD                      000N        CARE OF             
MTR02631100001000000000000000RA              41088196    005801740000017400000520000003NN  NNW 000                       N    
RDG02631100WATRL000000004K00000000000002324005102122015092421N000000000000U26       000190400K 10000000010000002287           
CUS0263110000102402797001         ALVAREZ MARDOQUEO   120 GENTLEBROOK RD                      000N        CARE OF             
MTR02631100001000000000000000RA              41088166    005801750000017500000520000003NN  NNW 000                       N    
RDG02631100WATRL000000004K00000000000001431005202122015092422N000000000000U26       000010400K 10000000010000001406           
CUS0263110000102402800003         CARTER LAWRENCE,JR  122 GENTLEBROOK RD                      000N        CARE OF             
MTR02631100001000000000000000RA              41086522    005801760000017600000520000003NN  NNW 000                       N    
RDG02631100WATRL000000004K00000000000001923005302122015092441N000000000000U26       000190400K 10000000010000001902           
CUS0263110000102402801001         SPRITZER DONALD L   124 GENTLEBROOK RD                      000N        CARE OF             
MTR02631100001000000000000000RA              41086571    005801770000017700000520000003NN  NNW 000                       N    
RDG02631100WATRL000000004K00000000000001847005402122015092443N000000000000U26       000020400K 10000000010000001825           
CUS0263110000102402802009         GREEN DARRELL A     126 GENTLEBROOK RD                      000N        CARE OF             
MTR02631100001000000000000000RA              41086574    005801780000017800000520000003NN  NNW 000                       N    
RDG02631100WATRL000000004K00000000000002193005502122015092505N000000000000U26       000220400K 10000000010000002179           
CUS0263110000102402803007         CANDACE D. SUMNER   128 GENTLEBROOK RD                      000N        CARE OF             
MTR02631100001000000000000000RA              41086570    005801790000017900000520000003NN  NNW 000                       N    
RDG02631100WATRL000000004K00000000000002884005602122015092507N000000000000U26       000020400K 10000000010000002873           
CUS0263110000102402804005         REIMER PAUL K       130 GENTLEBROOK RD                      000N        CARE OF             
MTR02631100001000000000000000RA              41086524    005801800000018000000520000003NN  NNW 000                       N    
RDG02631100WATRL000000004K00000000000001830005702122015092533N000000000000U26       000260400K 10000000010000001816           
CUS0263110000102402805002         PEREZ BERNICE       132 GENTLEBROOK RD                      000N        CARE OF             
MTR02631100001000000000000000RA              41086527    005801810000018100000520000003NN  NNW 000                       N    
RDG02631100WATRL000000004K00000000000003110005802122015092535N000000000000U26       000020400K 10000000010000003082           
CUS0263110000102402806000         PLUMMER DOUGLAS W   134 GENTLEBROOK RD                      000N        CARE OF             
MTR02631100001000000000000000RA              44178906    005801820000018200000520000003NY  NNW 000                       N    
MTM0263110044178906    ICE                                                                                                    
RDG02631100WATRL000000004K00000000000000000000000000000000000 000000000000U         000000400  10000000010000001854           
CUS0263110000102410668004         OSBORNE LYUBOV      32 WINDBLUFF CT                         000N        CARE OF             
MTR02631100001000000000000000RA              50479102    005801830000018300000520000003NN  NNW 000                       N    
RDG02631100WATRL000000004K00000000000002208012502122015101829N000000000010U26       000090400K 10000000010000002174           
CUS0263110000102410667006         SAROOP MARTHA       30 WINDBLUFF CT                         000N        CARE OF             
MTR02631100001000000000000000RA              14923037    005801840000018400000310000003NN  NNW 000                       N    
RDG02631100WATRL000000004K00000000000000592012402122015101820N000000000000U26       000560400K 10000000010000000581           
CUS0263110000102410666008         KAPELISTAYA LILIYA S28 WINDBLUFF CT                         000N        CARE OF             
MTR02631100001000000000000000RA              32903269    005801850000018500000520000003NY  NNW 000                       N    
MTM0263110032903269    CLEANOUT                                                                                               
RDG02631100WATRL000000004K00000000000000000000000000000000000 000000000000U         000000400  10000000010000002142           
CUS0263110000102410665000         MCCARTHY PATRICK J  26 WINDBLUFF CT                         000N        CARE OF             
MTR02631100001000000000000000RA              99287751    005801860000018600000570000003NY  NNW 000                       N    
MTM0263110099287751    CLEANOUT                                                                                               
RDG02631100WATRL000000004K00000000000000000000000000000000000 000000000000U         000000400  10000000010000001355           
CUS0263110000102410664003         GREENE MARIA ELIZABE24 WINDBLUFF CT                         000N        CARE OF             
MTR02631100001000000000000000RA              46877605    005801870000018700000520000003NY  NNW 000                       N    
MTM0263110046877605    ICE                                                                                                    
RDG02631100WATRL000000004K00000000000002026002902142015124410N000000000001U26       001060400K 10000000010000002013           
CUS0263110000102410663005         HAMMETT LAUREN      22 WINDBLUFF CT                         000N        CARE OF             
MTR02631100001000000000000000RA              14923836    005801880000018800000310000003NY  NNW 000                       N    
MTM0263110014923836    ICE                                                                                                    
RDG02631100WATRL000000004K00000000000000554003002142015124418N000000000001U26       000080400K 10000000010000000529           
CUS0263110000102409191000         RAMNARAYAN PHILIP   20 WINDBLUFF CT                         000N        CARE OF             
MTR02631100001000000000000000RA              33083505    005801890000018900000520000003NN  NNW 000                       N    
RDG02631100WATRL000000004K00000000000003062012702122015102851N000000000000U26       004760400K 10000000010000003025           
CUS0263110000102409192008         AKCAY CANDAN        18 WINDBLUFF CT                         000N        CARE OF             
MTR02631100001000000000000000RA              41258270    005801900000019000000520000003NN  NNW 000                       N    
RDG02631100WATRL000000004K00000000000002633012802122015102854N000000000010U26       000030400K 10000000010000002627           
CUS0263110000102409193006         TSEGAYE HIWOT       16 WINDBLUFF CT                         000N        CARE OF             
MTR02631100001000000000000000RA              33077210    005801910000019100000520000003NY  NNW 000                       N    
MTM0263110033077210    CLEANOUT                                                                                               
RDG02631100WATRL000000004K00000000000000000000000000000000000 000000000000U         000000400  10000000010000002130           
CUS0263110000102409194004         ROCK TRICIA M       14 WINDBLUFF CT                         000N        CARE OF             
MTR02631100001000000000000000RA              10015108    005801920000019200000570000003NN  NNW 000                       N    
RDG02631100WATRL000000004K00000000000000393012902122015102941N000000000000U26       000470400K 10000000010000000368           
CUS0263110000102409195001         COTTMAN TAWANDA     12 WINDBLUFF CT                         000N        CARE OF             
MTR02631100001000000000000000RA              46880067    005801930000019300000520000003NY  NNW 000                       N    
MTM0263110046880067    FOGGY                                                                                                  
RDG02631100WATRL000000004K00000000000001411002802142015124425N000000000001U26       000070400K 10000000010000001392           
CUS0263110000102409196009         DUA ASCHARAJ L,TRUST10 WINDBLUFF CT                         000N        CARE OF             
MTR02631100001000000000000000RA              46879923    005801940000019400000520000003NN  NNW 000                       N    
RDG02631100WATRL000000004K00000000000001530005302112015134736N000000000000N26       000020400K 10000000010000001520           
CUS0263110000102409197007         FREYDEL MARK        8 WINDBLUFF CT                          000N        CARE OF             
MTR02631100001000000000000000RA              46879925    005801950000019500000520000003NN  NNW 000                       N    
RDG02631100WATRL000000004K00000000000001957005202112015134734N000000000000N26       000160400K 10000000010000001939           
CUS0263110000102409198005         CHALFOUN DAVID J    6 WINDBLUFF CT                          000N        CARE OF             
MTR02631100001000000000000000RA              46879920    005801960000019600000520000003NN  NNW 000                       N    
RDG02631100WATRL000000004K00000000000001117005102112015134718N000000000000N26       000020400K 10000000010000001105           
CUS0263110000102409199003         CALDWELL AILENE I   4 WINDBLUFF CT                          000N        CARE OF             
MTR02631100001000000000000000RA              46879922    005801970000019700000520000003NN  NNW 000                       N    
RDG02631100WATRL000000004K00000000000001881005002112015134716N000000000000N26       001350400K 10000000010000001864           
CUS0263110000102409200009         PATEL VINODCHANDRA B25 WOODHOLLOW CT                        000N        CARE OF             
MTR02631100001000000000000000RA              45381919    005801980000019800000520000003NN  NNW 000                       N    
RDG02631100WATRL000000004K00000000000000436007202122015095053N000000000000U26       011970400K 10000000010000000420           
CUS0263110000102409201007         JOSEPH N BATTLE III 23 WOODHOLLOW CT                        000N        CARE OF             
MTR02631100001000000000000000RA              10014349    005801990000019900000570000003NN  NNW 000                       N    
RDG02631100WATRL000000004K00000000000000529007302122015095055N000000000000U26       000020400K 10000000010000000509           
CUS0263110000102409202005         TRINKLE NICHOLAS P  21 WOODHOLLOW CT                        000N        CARE OF             
MTR02631100001000000000000000RA              10011798    005802000000020000000570000003NN  NNW 000                       N    
RDG02631100WATRL000000004K00000000000000397007402122015095117N000000000000U26       000220400K 10000000010000000371           
CUS0263110000102409203003         BAH ABU BAKAR S     19 WOODHOLLOW CT                        000N        CARE OF             
MTR02631100001000000000000000RA              45381999    005802010000020100000520000003NN  NNW 000                       N    
RDG02631100WATRL000000004K00000000000002653007502122015095119N000000000000U26       000020400K 10000000010000002638           
CUS0263110000102409204001         HUGHES MELANIE L    17 WOODHOLLOW CT                        000N        CARE OF             
MTR02631100001000000000000000RA              45382283    005802020000020200000520000003NN  NNW 000                       N    
RDG02631100WATRL000000004K00000000000001238007602122015095135N000000000000U26       000160400K 10000000010000001228           
CUS0263110000102409205008         FELDMAN ARNOLD JACK 15 WOODHOLLOW CT                        000N        CARE OF             
MTR02631100001000000000000000RA              45381921    005802030000020300000520000003NN  NNW 000                       N    
RDG02631100WATRL000000004K00000000000002421007702122015095137N000000000000U26       000020400K 10000000010000002396           
CUS0263110000102409206006         DEBOY DAVID R       13 WOODHOLLOW CT                        000N        CARE OF             
MTR02631100001000000000000000RA              01084065    005802040000020400000610000003NN  NNW 000                       N    
RDG02631100WATRL000000004K00000000000001211006002112015135102N000000000000N26       000310400K 10000000010000001188           
CUS0263110000102409207004         ROBINSON DARZEL     11 WOODHOLLOW CT                        000N        CARE OF             
MTR02631100001000000000000000RA              36688541    005802050000020500000520000003NN  NNW 000                       N    
RDG02631100WATRL000000004K00000000000003447006102112015135104N000000000000N26       000020400K 10000000010000003425           
CUS0263110000102409208002         VAUGHN JEAN         9 WOODHOLLOW CT                         000N        CARE OF             
MTR02631100001000000000000000RA              40048280    005802060000020600000520000003NN  NNW 000                       N    
RDG02631100WATRL000000004K00000000000002590006202112015135121N000000000000N26       000170400K 10000000010000002564           
CUS0263110000102409209000         FARKAS DANIEL J     7 WOODHOLLOW CT                         000N        CARE OF             
MTR02631100001000000000000000RA              36690846    005802070000020700000520000003NN  NNW 000                       N    
RDG02631100WATRL000000004K00000000000002037006302112015135122N000000000000N26       000010400K 10000000010000002027           
CUS0263110000102409210008         PATEL PINKY         5 WOODHOLLOW CT                         000N        CARE OF             
MTR02631100001000000000000000RA              36694397    005802080000020800000520000003NN  NNW 000                       N    
RDG02631100WATRL000000004K00000000000002541006402112015135144N000000000000N26       000220400K 10000000010000002496           
CUS0263110000102409211006         SALTZMAN HOWARD E   3 WOODHOLLOW CT                         000N        CARE OF             
MTR02631100001000000000000000RA              36694397    005802090000020900000520000003NY  NNW 000                       N    
MTM0263110036694397    AMI                                                                                                    
RDG02631100WATRL000000004K00000000000000000000000000000000000 000000000000U         000000400  10000000010000001471           
CUS0263110000102409212004         WANG JIU CHAUN      1 WOODHOLLOW CT                         000N        CARE OF             
MTR02631100001000000000000000RA              45385760    005802100000021000000520000003NN  NNW 000                       N    
RDG02631100WATRL000000004K00000000000004536006502112015135215N000000000000N26       000310400K 10000000010000004510           
CUS0263110000102409213002         SEBASTIAN NANCY E   22 WOODHOLLOW CT                        000N        CARE OF             
MTR02631100001000000000000000RA              35108824    005802110000021100000520000003NN  NNW 000                       N    
RDG02631100WATRL000000004K00000000000002729008202122015095305N000000000000U26       000020400K 10000000010000002713           
CUS0263110000102409214000         FIELDS LA SHAWN     20 WOODHOLLOW CT                        000N        CARE OF             
MTR02631100001000000000000000RA              31936589    005802120000021200000520000003NN  NNW 000                       N    
RDG02631100WATRL000000004K00000000000001720008102122015095303N000000000000U26       000220400K 10000000010000001708           
CUS0263110000102409215007         PISCANO VINCENT S,SR18 WOODHOLLOW CT                        000N        CARE OF             
MTR02631100001000000000000000RA              45384088    005802130000021300000520000003NN  NNW 000                       N    
RDG02631100WATRL000000004K00000000000001979008002122015095241N000000000000U26       000020400K 10000000010000001961           
CUS0263110000102409216005         JIRONGO GRACE       16 WOODHOLLOW CT                        000N        CARE OF             
MTR02631100001000000000000000RA              31587117    005802140000021400000520000003NN  NNW 000                       N    
RDG02631100WATRL000000004K00000000000003970007902122015095239N000000000000U26       000270400K 10000000010000003953           
CUS0263110000102409217003         MONTFORD PATRICE    14 WOODHOLLOW CT                        000N        CARE OF             
MTR02631100001000000000000000RA              44178989    005802150000021500000520000003NN  NNW 000                       N    
RDG02631100WATRL000000004K00000000000002787007802122015095212N000300000010U26       000350400K 10000000010000002569           
CUS0263110000102409218001         KAREIVA STEPHEN A   12 WOODHOLLOW CT                        000N        CARE OF             
MTR02631100001000000000000000RA              45386218    005802160000021600000520000003NN  NNW 000                       N    
RDG02631100WATRL000000004K00000000000001296005902112015135031N000000000000N26       000190400K 10000000010000001286           
CUS0263110000102409219009         LOUTHER TRACY M     10 WOODHOLLOW CT                        000N        CARE OF             
MTR02631100001000000000000000RA              45386215    005802170000021700000520000003NN  NNW 000                       N    
RDG02631100WATRL000000004K00000000000002372005802112015135012N000000000000N26       000010400K 10000000010000002360           
CUS0263110000102409220007         DAY ROBERT L,JR     8 WOODHOLLOW CT                         000N        CARE OF             
MTR02631100001000000000000000RA              48590539    005802180000021800000520000003NN  NNW 000                       N    
RDG02631100WATRL000000004K00000000000002753005702112015135011N000000000000N26       000130400K 10000000010000002724           
CUS0263110000102409221005         PUGATSKY JACK P     6 WOODHOLLOW CT                         000N        CARE OF             
MTR02631100001000000000000000RA              45386217    005802190000021900000520000003NN  NNW 000                       N    
RDG02631100WATRL000000004K00000000000001367005602112015134958N000000000000N26       000040400K 10000000010000001357           
CUS0263110000102409222003         GUINTO ELIZABETH F  4 WOODHOLLOW CT                         000N        CARE OF             
MTR02631100001000000000000000RA              45386195    005802200000022000000520000003NN  NNW 000                       N    
RDG02631100WATRL000000004K00000000000001968005502112015134954N000000000000N26       000200400K 10000000010000001948           
CUS0263110000102409223001         TIMOTHY DADOURIAN   2 WOODHOLLOW CT                         000N        CARE OF             
MTR02631100001000000000000000RA              45386346    005802210000022100000520000003NN  NNW 000                       N    
RDG02631100WATRL000000004K00000000000002458005402112015134934N000000000000N26       001180400K 10000000010000002449           
CUS0263110000102409224009         TUCKER ARVIS D      44 WOODHOLLOW CT                        000N        CARE OF             
MTR02631100001000000000000000RA              33730661    005802220000022200000520000003NN  NNW 000                       N    
RDG02631100WATRL000000004K00000000000002840009202122015095705N000000000000U26       000290400K 10000000010000002828           
CUS0263110000102409225006         PORTILLO JOSE A     42 WOODHOLLOW CT                        000N        CARE OF             
MTR02631100001000000000000000RA              40048453    005802230000022300000520000003NN  NNW 000                       N    
RDG02631100WATRL000000004K00000000000003994009102122015095636N000000000010U26       000080400K 10000000010000003887           
CUS0263110000102409226004         ALBERT RORY         40 WOODHOLLOW CT                        000N        CARE OF             
MTR02631100001000000000000000RA              35103953    005802240000022400000520000003NN  NNW 000                       N    
RDG02631100WATRL000000004K00000000000002095009002122015095628N000000000000U26       000280400K 10000000010000002076           
CUS0263110000102409227002         FRANK ADAM/CHRISSY L38 WOODHOLLOW CT                        000N        CARE OF             
MTR02631100001000000000000000RA              36698057    005802250000022500000520000003NN  NNW 000                       N    
RDG02631100WATRL000000004K00000000000002236008902122015095600N000300000010U26       000040400K 10000000010000002189           
CUS0263110000102409228000         SEABRON MICHAEL J,JR36 WOODHOLLOW CT                        000N        CARE OF             
MTR02631100001000000000000000RA              35106983    005802260000022600000520000003NN  NNW 000                       N    
RDG02631100WATRL000000004K00000000000002536008802122015095556N000000000000U26       000670400K 10000000010000002513           
CUS0263110000102409229008         VACHHANI ANKIT A    34 WOODHOLLOW CT                        000N        CARE OF             
MTR02631100001000000000000000RA              35102046    005802270000022700000520000003NN  NNW 000                       N    
RDG02631100WATRL000000004K00000000000000000000000000000000000 000000000000U         000000400  10000000010000003371           
CUS0263110000102409230006         BOA                 32 WOODHOLLOW CT                        000N        CARE OF             
MTR02631100001000000000000000RA              45382640    005802280000022800000520000003NY  NNW 000                       N    
MTM0263110045382640    FOG                                                                                                    
RDG02631100WATRL000000004K00000000000000000000000000000000000 000000000000U         000000400  10000000010000001095           
CUS0263110000102409231004         BRYANT TIFFANY S    30 WOODHOLLOW CT                        000N        CARE OF             
MTR02631100001000000000000000RA              01074972    005802290000022900000610000003NN  NNW 000                       N    
RDG02631100WATRL000000004K00000000000001115008602122015095447N000000000000U26       000210400K 10000000010000001076           
CUS0263110000102409232002         BURGESS KAREN       28 WOODHOLLOW CT                        000N        CARE OF             
MTR02631100001000000000000000RA              45380896    005802300000023000000520000003NN  NNW 000                       N    
RDG02631100WATRL000000004K00000000000001731008502122015095426N000000000000U26       000020400K 10000000010000001729           
CUS0263110000102409233000         SPRINGER JEFFREY    26 WOODHOLLOW CT                        000N        CARE OF             
MTR02631100001000000000000000RA              45380847    005802310000023100000520000003NN  NNW 000                       N    
RDG02631100WATRL000000004K00000000000001720008402122015095424N000000000000U26       000430400K 10000000010000001695           
CUS0263110000102409234008         LINDA M HESCHL LIVIN24 WOODHOLLOW CT                        000N        CARE OF             
MTR02631100001000000000000000RA              99293740    005802320000023200000570000003NN  NNW 000                       N    
RDG02631100WATRL000000004K00000000000001079008302122015095341N000000000010U26       000360400K 10000000010000001069           
CUS0263110000102409235005         BODENSTEIN JESSICA L47 WOODHOLLOW CT                        000N        CARE OF             
MTR02631100001000000000000000RA              45379504    005802330000023300000520000003NN  NNW 000                       N    
RDG02631100WATRL000000004K00000000000001623009302122015095735N000000000000U26       000300400K 10000000010000001602           
CUS0263110000102409236003         JACKSON LESTER      45 WOODHOLLOW CT                        000N        CARE OF             
MTR02631100001000000000000000RA              45379445    005802340000023400000520000003NN  NNW 000                       N    
RDG02631100WATRL000000004K00000000000002161009402122015095802N000000000000U26       000270400K 10000000010000002156           
CUS0263110000102409237001         SNELL FRANKLIN D,2ND43 WOODHOLLOW CT                        000N        CARE OF             
MTR02631100001000000000000000RA              45379446    005802350000023500000520000003NN  NNW 000                       N    
RDG02631100WATRL000000004K00000000000002709009502122015095804N000000000000U26       000020400K 10000000010000002680           
CUS0263110000102409238009         CHESTER ALONZO M    41 WOODHOLLOW CT                        000N        CARE OF             
MTR02631100001000000000000000RA              10009454    005802360000023600000570000003NN  NNW 000                       N    
RDG02631100WATRL000000004K00000000000000361003602142015124454N000000000001U26       000290400K 10000000010000000361           
CUS0263110000102409239007         HENRIQUES NICOLE    39 WOODHOLLOW CT                        000N        CARE OF             
MTR02631100001000000000000000RA              14920742    005802370000023700000310000003NN  NNW 000                       N    
RDG02631100WATRL000000004K00000000000000913009702122015095828N000000000000U26       000030400K 10000000010000000882           
CUS0263110000102409240005         MITCHELL DEREK      37 WOODHOLLOW CT                        000N        CARE OF             
MTR02631100001000000000000000RA              45379509    005802380000023800000520000003NN  NNW 000                       N    
RDG02631100WATRL000000004K00000000000002371009802122015095848N000000000000U26       000200400K 10000000010000002358           
CUS0263110000102409241003         KRIVOY VLADISLAV    35 WOODHOLLOW CT                        000N        CARE OF             
MTR02631100001000000000000000RA              45380796    005802390000023900000520000000NN  NNW 000                       N    
RDG02631100WATRL000000004K00000000000002567009902122015095910N000000000000U26       000220400K 10000000010000002558           
CUS0263110000102409242001         GRABOWSKI DAVID CELE33 WOODHOLLOW CT                        000N        CARE OF             
MTR02631100001000000000000000RA              45380799    005802400000024000000520000003NN  NNW 000                       N    
RDG02631100WATRL000000004K00000000000007185010002122015095925N000400000010U26       000150400K 10000000010000007144           
CUS0263110000102409243009         PATEL KAMAL M       31 WOODHOLLOW CT                        000N        CARE OF             
MTR02631100001000000000000000RA              45380606    005802410000024100000520000003NN  NNW 000                       N    
RDG02631100WATRL000000004K00000000000001331010102122015095927N000000000000U26       000020400K 10000000010000001315           
CUS0263110000102409244007         JESSICA GRABSKI C   29 WOODHOLLOW CT                        000N        CARE OF             
MTR02631100001000000000000000RA              45380765    005802420000024200000520000003NN  NNW 000                       N    
RDG02631100WATRL000000004K00000000000001335010202122015095946N000000000000U26       000190400K 10000000010000001321           
CUS0263110000102409245004         KANNER ELIZABETH TAN27 WOODHOLLOW CT                        000N        CARE OF             
MTR02631100001000000000000000RA              45380797    005802430000024300000520000003NN  NNW 000                       N    
RDG02631100WATRL000000004K00000000000002472010302122015095948N000000000000U26       000020400K 10000000010000002431           
CUS0263110000102410632000         SHAH NIRAJ          40 WINDBLUFF CT                         000N        CARE OF             
MTR02631100001000000000000000RA              10024290    005802440000024400000570000003NN  NNW 000                       N    
RDG02631100WATRL000000004K00000000000000663012102122015101646N000000000000U26       001180400K 10000000010000000580           
CUS0263110000102410633008         NIRAJ D SHAH        38 WINDBLUFF CT                         000N        CARE OF             
MTR02631100001000000000000000RA              45355615    005802450000024500000520000003NN  NNW 000                       N    
RDG02631100WATRL000000004K00000000000002665012202122015101648N000000000000U26       000020400K 10000000010000002585           
CUS0263110000102410634006         TILLMAN PEGGIE S    36 WINDBLUFF CT                         000N        CARE OF             
MTR02631100001000000000000000RA              99187264    005802460000024600000570000003NN  NNW 000                       N    
RDG02631100WATRL000000004K00000000000001070012302122015101724N000000000000U26       000360400K 10000000010000001035           
CUS0263110000102410636001         VINOD SHAH          34 WINDBLUFF CT                         000N        CARE OF             
MTR02631100001000000000000000RA              99187440    005802470000024700000570000003NN  NNW 000                       N    
RDG02631100WATRL000000004K00000000000001276012602122015102055N000000000000U26       001460400K 10000000010000001231           
CUS0263110000102410638007         SALAPATA MICHAEL    41 WINDBLUFF CT                         000N        CARE OF             
MTR02631100001000000000000000RA              99288857    005802480000024800000570000003NN  NNW 000                       N    
RDG02631100WATRL000000004K00000000000002596010402122015101140N000000000000U26       007120400K 10000000010000002570           
CUS0263110000102410639005         PRYOR MICHAEL E     43 WINDBLUFF CT                         000N        CARE OF             
MTR02631100001000000000000000RA              40048210    005802490000024900000520000003NN  NNW 000                       N    
RDG02631100WATRL000000004K00000000000001800010502122015101157N000000000000U26       000170400K 10000000010000001785           
CUS0263110000102410641001         CEDILLOS DOMINGO/BLA45 WINDBLUFF CT                         000N        CARE OF             
MTR02631100001000000000000000RA              36691667    005802500000025000000520000003NN  NNW 000                       N    
RDG02631100WATRL000000004K00000000000003063010602122015101159N000000000000U26       000020400K 10000000010000003039           
CUS0263110000102410642009         NGUYEN SON NGOC     47 WINDBLUFF CT                         000N        CARE OF             
MTR02631100001000000000000000RA              31581063    005802510000025100000520000003NN  NNW 000                       N    
RDG02631100WATRL000000004K00000000000003245010702122015101217N000000000000U26       000180400K 10000000010000003214           
CUS0263110000102410643007         REDMOND KELLY M     49 WINDBLUFF CT                         000N        CARE OF             
MTR02631100001000000000000000RA              31582085    005802520000025200000520000003NN  NNW 000                       N    
RDG02631100WATRL000000004K00000000000002029010802122015101218N000000000000U26       000010400K 10000000010000002016           
CUS0263110000102410644005         JOHNSON CLAYTON     51 WINDBLUFF CT                         000N        CARE OF             
MTR02631100001000000000000000RA              41588705    005802530000025300000520000003NN  NNW 000                       N    
RDG02631100WATRL000000004K00000000000002540010902122015101236N000000000000U26       000180400K 10000000010000002529           
CUS0263110000102410645002         LEACH SHIRLEY ANN   63 WINDBLUFF CT                         000N        CARE OF             
MTR02631100001000000000000000RA              46876832    005802540000025400000520000003NN  NNW 000                       N    
RDG02631100WATRL000000004K00000000000002766011002122015101253N000000000000U26       000170400K 10000000010000002757           
CUS0263110000102410646000         ANDOLINA MICHAEL    65 WINDBLUFF CT                         000N        CARE OF             
MTR02631100001000000000000000RA              46876833    005802550000025500000520000003NN  NNW 000                       N    
RDG02631100WATRL000000004K00000000000002167011102122015101255N000000000000U26       000020400K 10000000010000002145           
CUS0263110000102410647008         HESCHL WILLIAM C    67 WINDBLUFF CT                         000N        CARE OF             
MTR02631100001000000000000000RA              46876830    005802560000025600000520000003NN  NNW 000                       N    
RDG02631100WATRL000000004K00000000000002305011202122015101320N000000000000U26       000250400K 10000000010000002215           
CUS0263110000102410648006         HAMMOND DAVID A     69 WINDBLUFF CT                         000N        CARE OF             
MTR02631100001000000000000000RA              10013667    005802570000025700000570000003NN  NNW 000                       N    
RDG02631100WATRL000000004K00000000000000848011302122015101322N000000000000U26       000020400K 10000000010000000812           
CUS0263110000102410649004         WILLIAMS JOSEPH     71 WINDBLUFF CT                         000N        CARE OF             
MTR02631100001000000000000000RA              46876834    005802580000025800000520000003NN  NNW 000                       N    
