FHDNNNN017002988002988002988N                                                                                           009054
RHD08560400NN04170417000004170000000004170417000226NY041704170417000400020000000000000000000002    02022015NY020000 N         
CUS0856040000108413514004         FLICK WILLIAM B     2046 WISPER WOODS WAY                   000N        CARE OF             
MTR08560400001000000000000000RA              48586546    005800010000000100000520000003NN  NNW 000                       N    
RDG08560400WATRL000000004K00000000000001507024302142015094628N000000000000N88       005440400K 10000000010000001483           
CUS0856040000108413515001         WORD KATHY S        2044 WISPER WOODS WAY                   000N        CARE OF             
MTR08560400001000000000000000RA              48586543    005800020000000200000520000003NN  NNW 000                       N    
RDG08560400WATRL000000004K00000000000001971024402142015094657N000000000000N88       000290400K 10000000010000001949           
CUS0856040000108413516009         HAIDER SYED S,MR    2042 WISPER WOODS WAY                   000N        CARE OF             
MTR08560400001000000000000000RA              48586542    005800030000000300000520000003NN  NNW 000                       N    
RDG08560400WATRL000000004K00000000000001292024502142015094705N000000000000N88       000080400K 10000000010000001285           
CUS0856040000108413517007         AIKENS DWAYNE       2040 WISPER WOODS WAY                   000N        CARE OF             
MTR08560400001000000000000000RA              48586545    005800040000000400000520000003NN  NNW 000                       N    
RDG08560400WATRL000000004K00000000000002168024602142015094734N000000000000N88       000290400K 10000000010000002146           
CUS0856040000108413518005         PITTS RENA E        2038 WISPER WOODS WAY                   000N        CARE OF             
MTR08560400001000000000000000RA              48586547    005800050000000500000520000003NN  NNW 000                       N    
RDG08560400WATRL000000004K00000000000001607024702142015094738N000000000000N88       000040400K 10000000010000001596           
CUS0856040000108413519003         MIXON ELIZABETH     2036 WISPER WOODS WAY                   000N        CARE OF             
MTR08560400001000000000000000RA              48586513    005800060000000600000520000003NN  NNW 000                       N    
RDG08560400WATRL000000004K00000000000008229024802142015094808N000300000010N88       000300400K 10000000010000008214           
CUS0856040000108413520001         CHANDLER LESLIE M   2034 WISPER WOODS WAY                   000N        CARE OF             
MTR08560400001000000000000000RA              48586515    005800070000000700000520000003NN  NNW 000                       N    
RDG08560400WATRL000000004K00000000000001204024902142015094813N000000000000N88       000050400K 10000000010000001196           
CUS0856040000108413521009         MCCLEARN KIMBERLY A 2032 WISPER WOODS WAY                   000N        CARE OF             
MTR08560400001000000000000000RA              48586517    005800080000000800000520000003NN  NNW 000                       N    
RDG08560400WATRL000000004K00000000000001264025002142015094837N000000000000N88       000240400K 10000000010000001247           
CUS0856040000108413522007         MALIK RASHID MINHAS 2030 WISPER WOODS WAY                   000N        CARE OF             
MTR08560400001000000000000000RA              48586516    005800090000000900000520000003NN  NNW 000                       N    
RDG08560400WATRL000000004K00000000000002543025102142015094843N000000000000N88       000060400K 10000000010000002481           
CUS0856040000108413523005         MENGESHA SAMSON     2028 WISPER WOODS WAY                   000N        CARE OF             
MTR08560400001000000000000000RA              48587983    005800100000001000000520000003NN  NNW 000                       N    
RDG08560400WATRL000000004K00000000000001701025202142015094924N000000000000N88       000410400K 10000000010000001692           
CUS0856040000108413524003         RUSSELL DANIEL C    2026 WISPER WOODS WAY                   000N        CARE OF             
MTR08560400001000000000000000RA              48587987    005800110000001100000520000003NN  NNW 000                       N    
RDG08560400WATRL000000004K00000000000001080025302142015094927N000000000000N88       000030400K 10000000010000001068           
CUS0856040000108413525000         FRANKLIN SCOTT L    2024 WISPER WOODS WAY                   000N        CARE OF             
MTR08560400001000000000000000RA              48588806    005800120000001200000520000003NN  NNW 000                       N    
RDG08560400WATRL000000004K00000000000001092025402142015094953N000000000000N88       000260400K 10000000010000001071           
CUS0856040000108413526008         HAROLD I WILSON     2022 WISPER WOODS WAY                   000N        CARE OF             
MTR08560400001000000000000000RA              48587982    005800130000001300000520000003NN  NNW 000                       N    
RDG08560400WATRL000000004K00000000000001907025502142015094959N000000000000N88       000060400K 10000000010000001899           
CUS0856040000108413527006         DAVID & TINA SCHULER2020 WISPER WOODS WAY                   000N        CARE OF             
MTR08560400001000000000000000RA              48588809    005800140000001400000520000003NN  NNW 000                       N    
RDG08560400WATRL000000004K00000000000000942025602142015095028N000000000000N88       000290400K 10000000010000000932           
CUS0856040000108413528004         MCCUE KATHLEEN MARIE2018 WISPER WOODS WAY                   000N        CARE OF             
MTR08560400001000000000000000RA              48588808    005800150000001500000520000003NN  NNW 000                       N    
RDG08560400WATRL000000004K00000000000001489025702142015095031N000000000000N88       000030400K 10000000010000001482           
CUS0856040000108413529002         GICKA RONALD J,JR   2016 WISPER WOODS WAY                   000N        CARE OF             
MTR08560400001000000000000000RA              50476182    005800160000001600000520000003NN  NNW 000                       N    
RDG08560400WATRL000000004K00000000000001113025802142015095103N000000000000N88       000320400K 10000000010000001105           
CUS0856040000108413530000         NEWTON JAMES C,SR   2014 WISPER WOODS WAY                   000N        CARE OF             
MTR08560400001000000000000000RA              50476434    005800170000001700000520000003NN  NNW 000                       N    
RDG08560400WATRL000000004K00000000000001081025902142015095108N000100000010N88       000050400K 10000000010000001081           
CUS0856040000108413544001         SIEGERS KEVIN S     2012 WISPER WOODS WAY                   000N        CARE OF             
MTR08560400001000000000000000RA              50476432    005800180000001800000520000003NN  NNW 000                       N    
RDG08560400WATRL000000004K00000000000001082026002142015095133N000000000000N88       000250400K 10000000010000001065           
CUS0856040000108413531008         KUFRE EFFIONG AKPALD2010 WISPER WOODS WAY                   000N        CARE OF             
MTR08560400001000000000000000RA              50476436    005800190000001900000520000003NN  NNW 000                       N    
RDG08560400WATRL000000004K00000000000000772026102142015095136N000000000000N88       000030400K 10000000010000000766           
CUS0856040000108413532006         JONES DEVORA L      2008 WISPER WOODS WAY                   000N        CARE OF             
MTR08560400001000000000000000RA              50476435    005800200000002000000520000003NN  NNW 000                       N    
RDG08560400WATRL000000004K00000000000001569026202142015095200N000000000000N88       000240400K 10000000010000001554           
CUS0856040000108413533004         NSOESIE WILLIAM M   2006 WISPER WOODS WAY                   000N        CARE OF             
MTR08560400001000000000000000RA              50476433    005800210000002100000520000003NN  NNW 000                       N    
RDG08560400WATRL000000004K00000000000000917026302142015095204N000000000000N88       000040400K 10000000010000000911           
CUS0856040000108413534002         ROBINSON LORRAINE E 2004 WISPER WOODS WAY                   000N        CARE OF             
MTR08560400001000000000000000RA              50476181    005800220000002200000520000003NN  NNW 000                       N    
RDG08560400WATRL000000004K00000000000001403026402142015095244N000400000010N88       000400400K 10000000010000001395           
CUS0856040000108413535009         RAFIQ MOHAMMAD S    2002 WISPER WOODS WAY                   000N        CARE OF             
MTR08560400001000000000000000RA              50476184    005800230000002300000520000003NN  NNW 000                       N    
RDG08560400WATRL000000004K00000000000001964026502142015095249N000000000000N88       000050400K 10000000010000001930           
CUS0856040000108413536007         BUTT NADEEM         2000 WISPER WOODS WAY                   000N        CARE OF             
MTR08560400001000000000000000RA              50476185    005800240000002400000520000003NN  NNW 000                       N    
RDG08560400WATRL000000004K00000000000001783026602142015095330N000000000000N88       000410400K 10000000010000001759           
CUS0856040000108413543003         SAMPSON VASHAWN E   2001 WISPER WOODS WAY                   000N        CARE OF             
MTR08560400001000000000000000RA              52290406    005800250000002500000520000003NN  NNW 000                       N    
RDG08560400WATRL000000004K00000000000000719026702142015095407N000000000000N88       000370400K 10000000010000000719           
CUS0856040000108413542005         PARKER JOYCE E      2003 WISPER WOODS WAY                   000N        CARE OF             
MTR08560400001000000000000000RA              48595293    005800260000002600000520000003NN  NNW 000                       N    
RDG08560400WATRL000000004K00000000000000304026802142015095435N000000000010N88       000280400K 10000000010000000303           
CUS0856040000108413541007         BETTINGER THERESA R 2005 WISPER WOODS WAY                   000N        CARE OF             
MTR08560400001000000000000000RA              48595295    005800270000002700000520000003NN  NNW 000                       N    
RDG08560400WATRL000000004K00000000000001123026902142015095440N000000000000N88       000050400K 10000000010000001109           
CUS0856040000108413540009         COPELAND-WILSON FLOR2007 WISPER WOODS WAY                   000N        CARE OF             
MTR08560400001000000000000000RA              48595292    005800280000002800000520000003NN  NNW 000                       N    
RDG08560400WATRL000000004K00000000000001566027002142015095507N000000000000N88       000270400K 10000000010000001523           
CUS0856040000108413539001         FLORES ANGEL        2009 WISPER WOODS WAY                   000N        CARE OF             
MTR08560400001000000000000000RA              48595291    005800290000002900000520000003NN  NNW 000                       N    
RDG08560400WATRL000000004K00000000000001868027102142015095511N000000000000N88       000040400K 10000000010000001818           
CUS0856040000108413538003         AKANBI OLUWABUNMI   2011 WISPER WOODS WAY                   000N        CARE OF             
MTR08560400001000000000000000RA              48595278    005800300000003000000520000003NN  NNW 000                       N    
RDG08560400WATRL000000004K00000000000001276027202142015095538N000000000000N88       000270400K 10000000010000001256           
CUS0856040000108413537005         CECIL Y & AMELIA PER2013 WISPER WOODS WAY                   000N        CARE OF             
MTR08560400001000000000000000RA              48595281    005800310000003100000520000003NN  NNW 000                       N    
RDG08560400WATRL000000004K00000000000001293027302142015095541N000000000000N88       000030400K 10000000010000001270           
CUS0856040000108413568000         SNELL MICHAEL       2015 WISPER WOODS WAY                   000N        CARE OF             
MTR08560400001000000000000000RA              00139905    005800320000003200000570000003NN  NNW 000                       N    
RDG08560400WATRL000000004K00000000000002222027402142015095623N000000000000N88       000420400K 10000000010000002190           
CUS0856040000108413567002         KIMBERLY L PATTERSON2017 WISPER WOODS WAY                   000N        CARE OF             
MTR08560400001000000000000000RA              48595290    005800330000003300000520000003NN  NNW 000                       N    
RDG08560400WATRL000000004K00000000000000895027502142015095631N000300000010N88       000080400K 10000000010000000876           
CUS0856040000108413566004         THOMAS KIMBERLY     2019 WISPER WOODS WAY                   000N        CARE OF             
MTR08560400001000000000000000RA              10011849    005800340000003400000570000003NN  NNW 000                       N    
RDG08560400WATRL000000004K00000000000000122027602142015095713N000000000000N88       000420400K 10000000010000000115           
CUS0856040000108413565006         SPRUILL ALVIN R     2021 WISPER WOODS WAY                   000N        CARE OF             
MTR08560400001000000000000000RA              48586541    005800350000003500000520000003NN  NNW 000                       N    
RDG08560400WATRL000000004K00000000000001292027702142015095740N000000000000N88       000270400K 10000000010000001265           
CUS0856040000108413564009         GREEN PHYLLIS       2023 WISPER WOODS WAY                   000N        CARE OF             
MTR08560400001000000000000000RA              48586537    005800360000003600000520000003NN  NNW 000                       N    
RDG08560400WATRL000000004K00000000000001031027802142015095745N000000000000N88       000050400K 10000000010000001026           
CUS0856040000108413563001         BERG SHANNON M      2025 WISPER WOODS WAY                   000N        CARE OF             
MTR08560400001000000000000000RA              48586544    005800370000003700000520000003NN  NNW 000                       N    
RDG08560400WATRL000000004K00000000000001476027902142015095815N000000000000N88       000300400K 10000000010000001439           
CUS0856040000108413562003         JOYCE TERENCE P     2027 WISPER WOODS WAY                   000N        CARE OF             
MTR08560400001000000000000000RA              48583442    005800380000003800000520000003NN  NNW 000                       N    
RDG08560400WATRL000000004K00000000000002776028002142015095819N000000000000N88       000040400K 10000000010000002736           
CUS0856040000108413569008         LOVELACE GLENN M,JR 2029 WISPER WOODS WAY                   000N        CARE OF             
MTR08560400001000000000000000RA              48586536    005800390000003900000520000003NN  NNW 000                       N    
RDG08560400WATRL000000004K00000000000000948028102142015095843N000000000000N88       000240400K 10000000010000000938           
CUS0856040000108413561005         ARMSTRONG TIMOTHY CH2031 WISPER WOODS WAY                   000N        CARE OF             
MTR08560400001000000000000000RA              48586538    005800400000004000000520000003NN  NNW 000                       N    
RDG08560400WATRL000000004K00000000000000526028202142015095854N000000000000N88       000110400K 10000000010000000521           
CUS0856040000108413560007         TRINA S YOUNG       2033 WISPER WOODS WAY                   000N        CARE OF             
MTR08560400001000000000000000RA              48586540    005800410000004100000520000003NN  NNW 000                       N    
RDG08560400WATRL000000004K00000000000001206028302142015095921N000000000000N88       000270400K 10000000010000001206           
CUS0856040000108413559009         SAUNDERS BRENDAN    2035 WISPER WOODS WAY                   000N        CARE OF             
MTR08560400001000000000000000RA              48586539    005800420000004200000520000003NN  NNW 000                       N    
RDG08560400WATRL000000004K00000000000003052028402142015095925N000000000000N88       000040400K 10000000010000003026           
CUS0856040000108413558001         ZENEBE AZENE D      2037 WISPER WOODS WAY                   000N        CARE OF             
MTR08560400001000000000000000RA              48586577    005800430000004300000520000003NN  NNW 000                       N    
RDG08560400WATRL000000004K00000000000001004028502142015100000N000400000010N88       000350400K 10000000010000000997           
CUS0856040000108413557003         THOMAS JOSHUA A     2039 WISPER WOODS WAY                   000N        CARE OF             
MTR08560400001000000000000000RA              48586572    005800440000004400000520000003NN  NNW 000                       N    
RDG08560400WATRL000000004K00000000000000637028602142015100008N000000000000N88       000080400K 10000000010000000626           
CUS0856040000108413556005         PAT HIBAN REAL ESTAT2041 WISPER WOODS WAY                   000N        CARE OF             
MTR08560400001000000000000000RA              48586574    005800450000004500000520000003NN  NNW 000                       N    
RDG08560400WATRL000000004K00000000000001627028702142015100045N000400000010N88       000370400K 10000000010000001625           
CUS0856040000108413555007         DORSEY KEITH C      2043 WISPER WOODS WAY                   000N        CARE OF             
MTR08560400001000000000000000RA              48586576    005800460000004600000520000003NN  NNW 000                       N    
RDG08560400WATRL000000004K00000000000000764028802142015100054N000000000000N88       000090400K 10000000010000000759           
CUS0856040000108413554000         THOMAS MELISSA X    2045 WISPER WOODS WAY                   000N        CARE OF             
MTR08560400001000000000000000RA              48586575    005800470000004700000520000003NN  NNW 000                       N    
RDG08560400WATRL000000004K00000000000001822028902142015100139N000000000000N88       000450400K 10000000010000001798           
CUS0856040000108413553002         SMITH LISA J        2047 WISPER WOODS WAY                   000N        CARE OF             
MTR08560400001000000000000000RA              48586534    005800480000004800000520000003NN  NNW 000                       N    
RDG08560400WATRL000000004K00000000000000845029002142015100148N000000000000N88       000090400K 10000000010000000836           
CUS0856040000108413552004         MCINTYRE ZENOPIA V  2049 WISPER WOODS WAY                   000N        CARE OF             
MTR08560400001000000000000000RA              48586533    005800490000004900000520000003NN  NNW 000                       N    
RDG08560400WATRL000000004K00000000000000570029102142015100236N000000000000N88       000480400K 10000000010000000564           
CUS0856040000108413551006         SHARPE WAYNE D      2051 WISPER WOODS WAY                   000N        CARE OF             
MTR08560400001000000000000000RA              48586530    005800500000005000000520000003NN  NNW 000                       N    
RDG08560400WATRL000000004K00000000000000873029202142015100239N000000000000N88       000030400K 10000000010000000869           
CUS0856040000108413550008         UYEN CIRO G         2053 WISPER WOODS WAY                   000N        CARE OF             
MTR08560400001000000000000000RA              01093708    005800510000005100000610000003NN  NNW 000                       N    
RDG08560400WATRL000000004K00000000000000584029302142015100310N000000000000N88       000310400K 10000000010000000567           
CUS0856040000108413549000         GAIL K BELL         2055 WISPER WOODS WAY                   000N        CARE OF             
MTR08560400001000000000000000RA              48596595    005800520000005200000520000003NN  NNW 000                       N    
RDG08560400WATRL000000004K00000000000001121029402142015100335N000000000000N88       000250400K 10000000010000001103           
CUS0856040000108413548002         SATINDER KAUR       2057 WISPER WOODS WAY                   000N        CARE OF             
MTR08560400001000000000000000RA              50478569    005800530000005300000520000003NN  NNW 000                       N    
RDG08560400WATRL000000004K00000000000000886029502142015100400N000000000000N88       000250400K 10000000010000000872           
CUS0856040000108413547004         CHEN CHEN           2059 WISPER WOODS WAY                   000N        CARE OF             
MTR08560400001000000000000000RA              50478570    005800540000005400000520000003NN  NNW 000                       N    
RDG08560400WATRL000000004K00000000000008947029602142015100405N000000000000N88       000050400K 10000000010000008934           
CUS0856040000108413546006         DAVIS ANGELA T      2061 WISPER WOODS WAY                   000N        CARE OF             
MTR08560400001000000000000000RA              48585860    005800550000005500000520000003NN  NNW 000                       N    
RDG08560400WATRL000000004K00000000000000931029702142015100436N000000000000N88       000310400K 10000000010000000924           
CUS0856040000108413545008         TAYLOR BRYAN R      2063 WISPER WOODS WAY                   000N        CARE OF             
MTR08560400001000000000000000RA              48585863    005800560000005600000520000003NN  NNW 000                       N    
RDG08560400WATRL000000004K00000000000001489029802142015100440N000000000000N88       000040400K 10000000010000001471           
CUS0856040000108432183005         PARTHA P CHATTERJEE 2120 AMBER WAY                          000N        CARE OF             
MTR08560400001000000000000000RA              99409061    000100570000005700000570000003NN  NNW 000                       N    
RDG08560400WATRL000000004K00000000000000830029902142015101038N000000000000N88       003580400K 10000000010000000791           
CUS0856040000108432184003         ENDERS CECELIA J    2118 AMBER WAY                          000N        CARE OF             
MTR08560400001000000000000000RA              99408803    000100580000005800000570000003NN  NNW 000                       N    
RDG08560400WATRL000000004K00000000000000354030002142015101113N000000000000N88       000350400K 10000000010000000348           
CUS0856040000108432185000         SOUTHARD JOHN B,3RD 2116 AMBER WAY                          000N        CARE OF             
MTR08560400001000000000000000RA              99408895    000100590000005900000570000003NN  NNW 000                       N    
RDG08560400WATRL000000004K00000000000000678030102142015101117N000000000000N88       000040400K 10000000010000000652           
CUS0856040000108432186008         HERRERA OSCAR A     2114 AMBER WAY                          000N        CARE OF             
MTR08560400001000000000000000RA              99408504    000100600000006000000570000003NN  NNW 000                       N    
RDG08560400WATRL000000004K00000000000001569030202142015101151N000000000000N88       000340400K 10000000010000001543           
CUS0856040000108432187006         HALL PATRICIA A     2112 AMBER WAY                          000N        CARE OF             
MTR08560400001000000000000000RA              99408804    000100610000006100000570000003NN  NNW 000                       N    
RDG08560400WATRL000000004K00000000000000640030302142015101154N000000000000N88       000030400K 10000000010000000625           
CUS0856040000108432188004         ASARE PATRICIA      2110 AMBER WAY                          000N        CARE OF             
MTR08560400001000000000000000RA              99409064    000100620000006200000570000003NN  NNW 000                       N    
RDG08560400WATRL000000004K00000000000001887030402142015101228N000000000000N88       000340400K 10000000010000001842           
CUS0856040000108432189002         DUNN WILLIAM A      2108 AMBER WAY                          000N        CARE OF             
MTR08560400001000000000000000RA              99409062    000100630000006300000570000003NN  NNW 000                       N    
RDG08560400WATRL000000004K00000000000001097030502142015101306N000000000000N88       000380400K 10000000010000001080           
CUS0856040000108432190000         TAKAMURA EDUARDO KEN2106 AMBER WAY                          000N        CARE OF             
MTR08560400001000000000000000RA              99409072    000100640000006400000570000003NN  NNW 000                       N    
RDG08560400WATRL000000004K00000000000000643030602142015101319N000000000000N88       000130400K 10000000010000000625           
CUS0856040000108432191008         SEARS TERRY B       2104 AMBER WAY                          000N        CARE OF             
MTR08560400001000000000000000RA              99409071    000100650000006500000570000003NN  NNW 000                       N    
RDG08560400WATRL000000004K00000000000000380030702142015101415N000000000000N88       000560400K 10000000010000000376           
CUS0856040000108432192006         LACY GARDENIA C     2102 AMBER WAY                          000N        CARE OF             
MTR08560400001000000000000000RA              99409070    000100660000006600000570000003NN  NNW 000                       N    
RDG08560400WATRL000000004K00000000000000523030802142015101434N000000000000N88       000190400K 10000000010000000502           
CUS0856040000108432193004         OCWEN LOAN SERVICING2100 AMBER WAY                          000N        CARE OF             
MTR08560400001000000000000000RA              99409069    000100670000006700000570000003NN  NNW 000                       N    
RDG08560400WATRL000000004K00000000000001283030902142015101520N000000000000N88       000460400K 10000000010000001283           
CUS0856040000108433135004         JAVED I MALIK       2040 AMBER WAY                          000N        CARE OF             
MTR08560400001000000000000000RA              99409350    000100680000006800000570000003NN  NNW 000                       N    
RDG08560400WATRL000000004K00000000000001538031002142015101611N000400000010N88       000510400K 10000000010000001533           
CUS0856040000108433134007         CARTER LYNN S       2038 AMBER WAY                          000N        CARE OF             
MTR08560400001000000000000000RA              99409346    000100690000006900000570000003NN  NNW 000                       N    
RDG08560400WATRL000000004K00000000000000628031102142015101707N000000000000N88       000560400K 10000000010000000617           
CUS0856040000108433133009         ROYSTER NAIMAH      2036 AMBER WAY                          000N        CARE OF             
MTR08560400001000000000000000RA              99409349    000100700000007000000570000003NN  NNW 000                       N    
RDG08560400WATRL000000004K00000000000000606031202142015101755N000000000000N88       000480400K 10000000010000000591           
CUS0856040000108433132001         GREENE KEVIN        2034 AMBER WAY                          000N        CARE OF             
MTR08560400001000000000000000RA              99409303    000100710000007100000570000003NN  NNW 000                       N    
RDG08560400WATRL000000004K00000000000001690031302142015101802N000000000000N88       000070400K 10000000010000001672           
CUS0856040000108433131003         GREEN TIMOTHY A     2032 AMBER WAY                          000N        CARE OF             
MTR08560400001000000000000000RA              99409308    000100720000007200000570000003NN  NNW 000                       N    
RDG08560400WATRL000000004K00000000000000832031402142015101827N000000000000N88       000250400K 10000000010000000816           
CUS0856040000108433183004         ERIC JACKSON        2030 AMBER WAY                          000N        CARE OF             
MTR08560400001000000000000000RA              99409307    000100730000007300000570000003NN  NNW 000                       N    
RDG08560400WATRL000000004K00000000000000596031502142015101833N000000000000N88       000060400K 10000000010000000583           
CUS0856040000108433012005         EVANS MATTHEW       2028 AMBER WAY                          000N        CARE OF             
MTR08560400001000000000000000RA              99409136    000100740000007400000570000003NN  NNW 000                       N    
RDG08560400WATRL000000004K00000000000000839031602142015101859N000000000000N88       000260400K 10000000010000000807           
CUS0856040000108433182006         JORDAN DOUGLAS K    2026 AMBER WAY                          000N        CARE OF             
MTR08560400001000000000000000RA              99409331    000100750000007500000570000003NN  NNW 000                       N    
RDG08560400WATRL000000004K00000000000001127031702142015101930N000000000000N88       000310400K 10000000010000001113           
CUS0856040000108433181008         BOYER CLAYTON       2024 AMBER WAY                          000N        CARE OF             
MTR08560400001000000000000000RA              99409332    000100760000007600000570000003NN  NNW 000                       N    
RDG08560400WATRL000000004K00000000000001393031802142015101933N000000000000N88       000030400K 10000000010000001384           
CUS0856040000108433180000         ANKRAH ROBERT M     2022 AMBER WAY                          000N        CARE OF             
MTR08560400001000000000000000RA              99409330    000100770000007700000570000003NN  NNW 000                       N    
RDG08560400WATRL000000004K00000000000001284000102192015103600N000000000001U88       000000400K 10000000010000001256           
CUS0856040000108433179002         JENS MATTHEW P      2020 AMBER WAY                          000N        CARE OF             
MTR08560400001000000000000000RA              99409329    000100780000007800000570000003NN  NNW 000                       N    
RDG08560400WATRL000000004K00000000000001173000202192015103608N000000000000U88       000080400K 10000000010000001153           
CUS0856040000108433178004         SEC.OF HOUSING & URB2018 AMBER WAY                          000N        CARE OF             
MTR08560400001000000000000000RA              00163634    000100790000007900000570000003NN  NNW 000                       N    
RDG08560400WATRL000000004K00000000000000809000302192015103621N000000000000U88       000130400K 10000000010000000809           
CUS0856040000108433177006         EVANS SHAUN C       2016 AMBER WAY                          000N        CARE OF             
MTR08560400001000000000000000RA              00163612    000100800000008000000570000003NN  NNW 000                       N    
RDG08560400WATRL000000004K00000000000000399000402192015103906N000000000010U88       001650400K 10000000010000000393           
CUS0856040000108433176008         MALIK RASHID M      2014 AMBER WAY                          000N        CARE OF             
MTR08560400001000000000000000RA              99409328    000100810000008100000570000003NN  NNW 000                       N    
RDG08560400WATRL000000004K00000000000001012000502192015104026N000300000050U88       000800400K 10000000010000001004           
CUS0856040000108433175000         HOOPER EDWARD MADISO2012 AMBER WAY                          000N        CARE OF             
MTR08560400001000000000000000RA              99409449    000100820000008200000570000003NN  NNW 000                       N    
RDG08560400WATRL000000004K00000000000000586000602192015104124N000000000000U88       000580400K 10000000010000000573           
CUS0856040000108433174003         WILLIAMS KIMBERLY S 2010 AMBER WAY                          000N        CARE OF             
MTR08560400001000000000000000RA              99409315    000100830000008300000570000003NN  NNW 000                       N    
RDG08560400WATRL000000004K00000000000000535000702192015104126N000000000000U88       000020400K 10000000010000000518           
CUS0856040000108433173005         KHALIL SYED N       2008 AMBER WAY                          000N        CARE OF             
MTR08560400001000000000000000RA              99409316    000100840000008400000570000003NN  NNW 000                       N    
RDG08560400WATRL000000004K00000000000002118000802192015104213N000000000001U88       000470400K 10000000010000002057           
CUS0856040000108433172007         HENLEY MICHELE CECIL2006 AMBER WAY                          000N        CARE OF             
MTR08560400001000000000000000RA              00163633    000100850000008500000570000000NN  NNW 000                       N    
RDG08560400WATRL000000004K00000000000000559000902192015104226N000400000010U88       000130400K 10000000010000000549           
CUS0856040000108433171009         MENSAH DANIEL M     2004 AMBER WAY                          000N        CARE OF             
MTR08560400001000000000000000RA              99409383    000100860000008600000570000003NN  NNW 000                       N    
RDG08560400WATRL000000004K00000000000000739001002192015104350N000000000000U88       000840400K 10000000010000000723           
CUS0856040000108433170001         KLIPSTEEN JERRY E   2002 AMBER WAY                          000N        CARE OF             
MTR08560400001000000000000000RA              99409384    000100870000008700000570000003NN  NNW 000                       N    
RDG08560400WATRL000000004K00000000000001321001102192015104357N000000000000U88       000070400K 10000000010000001292           
CUS0856040000108433169003         WALKER JENNIFER A   2000 AMBER WAY                          000N        CARE OF             
MTR08560400001000000000000000RA              99409822    000100880000008800000570000003NN  NNW 000                       N    
RDG08560400WATRL000000004K00000000000001077001202192015104537N000000000000U88       001000400K 10000000010000001057           
CUS0856040000108433140004         LYNN S BROOKS       2001 AMBER WAY                          000N        CARE OF             
MTR08560400001000000000000000RA              99409426    000100890000008900000570000003NN  NNW 000                       N    
RDG08560400WATRL000000004K00000000000001206001302192015104657N000000000000U88       000800400K 10000000010000001200           
CUS0856040000108433139006         BEADS TONYA         2003 AMBER WAY                          000N        CARE OF             
MTR08560400001000000000000000RA              99409439    000100900000009000000570000003NN  NNW 000                       N    
RDG08560400WATRL000000004K00000000000000614001402192015104701N000000000000U88       000040400K 10000000010000000595           
CUS0856040000108433138008         GINA D JOHNSON      2005 AMBER WAY                          000N        CARE OF             
MTR08560400001000000000000000RA              99409443    000100910000009100000570000003NN  NNW 000                       N    
RDG08560400WATRL000000004K00000000000001226001502192015104754N000000000000U88       000530400K 10000000010000001210           
CUS0856040000108433137000         HENDERSON TOSHUNIA F2007 AMBER WAY                          000N        CARE OF             
MTR08560400001000000000000000RA              99409428    000100920000009200000570000003NN  NNW 000                       N    
RDG08560400WATRL000000004K00000000000000658001602192015104756N000000000000U88       000020400K 10000000010000000643           
CUS0856040000108433136002         JALALUDDIN AROOJ    2009 AMBER WAY                          000N        CARE OF             
MTR08560400001000000000000000RA              99409444    000100930000009300000570000003NN  NNW 000                       N    
RDG08560400WATRL000000004K00000000000000848001702192015104912N000000000000U88       000760400K 10000000010000000842           
CUS0856040000108433142000         LAARIS AMAL         7535 STONES THROW CT                    000N        CARE OF             
MTR08560400001000000000000000RA              99409371    000100940000009400000570000003NN  NNW 000                       N    
RDG08560400WATRL000000004K00000000000000550001802192015105027N000000000010U88       000750400K 10000000010000000541           
CUS0856040000108433143008         DENT-SCHELL CHANELLE7533 STONES THROW CT                    000N        CARE OF             
MTR08560400001000000000000000RA              99409490    000100950000009500000570000003NN  NNW 000                       N    
RDG08560400WATRL000000004K00000000000000943001902192015105120N000000000000U88       000530400K 10000000010000000921           
CUS0856040000108433144006         ROY ANINDYA         7531 STONESTHROW CT                     000N        CARE OF             
MTR08560400001000000000000000RA              99409261    000100960000009600000570000003NN  NNW 000                       N    
RDG08560400WATRL000000004K00000000000000780002002192015105137N000300000010U88       000170400K 10000000010000000759           
CUS0856040000108433145003         RUBIO MARIA C       7529 STONESTHROW CT                     000N        CARE OF             
MTR08560400001000000000000000RA              99409529    000100970000009700000570000003NN  NNW 000                       N    
RDG08560400WATRL000000004K00000000000001279002102192015105208N000000000000U88       000310400K 10000000010000001216           
CUS0856040000108433031005         DYNE JANE F         7527 STONES THROW CT                    000N        CARE OF             
MTR08560400001000000000000000RA              99409576    000100980000009800000570000003NN  NNW 000                       N    
RDG08560400WATRL000000004K00000000000000452002202192015105315N000000000000U88       000670400K 10000000010000000448           
CUS0856040000108433032003         ROKEYA B. BHUIYAN   7525 STONES THROW CT                    000N        CARE OF             
MTR08560400001000000000000000RA              99409492    000100990000009900000570000003NN  NNW 000                       N    
RDG08560400WATRL000000004K00000000000000844002302192015105318N000000000000U88       000030400K 10000000010000000804           
CUS0856040000108433033001         JESSICA J YOUNG     7523 STONES THROW CT                    000N        CARE OF             
MTR08560400001000000000000000RA              99409564    000101000000010000000570000003NN  NNW 000                       N    
RDG08560400WATRL000000004K00000000000001750002402192015105407N000000000000U88       000490400K 10000000010000001736           
CUS0856040000108433034009         PHILLIPS GAIL L     7521 STONES THROW CT                    000N        CARE OF             
MTR08560400001000000000000000RA              99409515    000101010000010100000570000003NN  NNW 000                       N    
RDG08560400WATRL000000004K00000000000000240002502192015105410N000000000000U88       000030400K 10000000010000000240           
CUS0856040000108433035006         DIZARD DAMIAN C     7519 STONES THROW CT                    000N        CARE OF             
MTR08560400001000000000000000RA              99409562    000101020000010200000570000003NN  NNW 000                       N    
RDG08560400WATRL000000004K00000000000001322002602192015105448N000000000000U88       000380400K 10000000010000001296           
CUS0856040000108433036004         PAILEN FRANCHELLA M 7517 STONES THROW CT                    000N        CARE OF             
MTR08560400001000000000000000RA              99409580    000101030000010300000570000003NN  NNW 000                       N    
RDG08560400WATRL000000004K00000000000000719002702192015105452N000000000000U88       000040400K 10000000010000000704           
CUS0856040000108433037002         SCOTT SHEILA        7515 STONES THROW CT                    000N        CARE OF             
MTR08560400001000000000000000RA              99409577    000101040000010400000570000003NN  NNW 000                       N    
RDG08560400WATRL000000004K00000000000000328002802192015105528N000000000000U88       000360400K 10000000010000000322           
CUS0856040000108433038000         FARRELL DAVID F     7513 STONES THROW CT                    000N        CARE OF             
MTR08560400001000000000000000RA              99409542    000101050000010500000570000003NN  NNW 000                       N    
RDG08560400WATRL000000004K00000000000000676002902192015105643N000000000000U88       000750400K 10000000010000000670           
CUS0856040000108433039008         BROWN CYNTHIA MARIA 7511 STONES THROW CT                    000N        CARE OF             
MTR08560400001000000000000000RA              99409544    000101060000010600000570000003NN  NNW 000                       N    
RDG08560400WATRL000000004K00000000000000453003002192015105653N000000000000U88       000100400K 10000000010000000446           
CUS0856040000108433040006         JOHNSON JOSEPH E    7509 STONES THROW CT                    000N        CARE OF             
MTR08560400001000000000000000RA              99409489    000101070000010700000570000003NN  NNW 000                       N    
RDG08560400WATRL000000004K00000000000001346003102192015110009N000000000000U88       001960400K 10000000010000001317           
CUS0856040000108433041004         BENNETT BRIAN DENNIS7507 STONES THROW CT                    000N        CARE OF             
MTR08560400001000000000000000RA              99409539    000101080000010800000570000003NN  NNW 000                       N    
RDG08560400WATRL000000004K00000000000000373003202192015110014N000000000000U88       000050400K 10000000010000000364           
CUS0856040000108433042002         DAVIS SYLONDA       7505 STONES THROW CT                    000N        CARE OF             
MTR08560400001000000000000000RA              99409537    000101090000010900000570000003NN  NNW 000                       N    
RDG08560400WATRL000000004K00000000000000581003302192015110117N000000000000U88       000630400K 10000000010000000573           
CUS0856040000108433043000         BENNETT SHAWN T     7503 STONES THROW CT                    000N        CARE OF             
MTR08560400001000000000000000RA              99409532    000101100000011000000570000003NN  NNW 000                       N    
RDG08560400WATRL000000004K00000000000001105003402192015110119N000000000000U88       000020400K 10000000010000001063           
CUS0856040000108433044008         MONICA HUNT         7501 STONESTHROW CT                     000N        CARE OF             
MTR08560400001000000000000000RA              99409541    000101110000011100000570000003NN  NNW 000                       N    
RDG08560400WATRL000000004K00000000000000242003502192015110226N000000000000U88       000670400K 10000000010000000239           
CUS0856040000108433030007         DAMON BRUCE         7500 STONESTHROW CT                     000N        CARE OF             
MTR08560400001000000000000000RA              99409559    000101120000011200000570000003NN  NNW 000                       N    
RDG08560400WATRL000000004K00000000000000633003602192015110349N000100000030U88       000830400K 10000000010000000633           
CUS0856040000108433029009         HARRIS AUDREY M     7502 STONES THROW CT                    000N        CARE OF             
MTR08560400001000000000000000RA              99409100    000101130000011300000570000003NN  NNW 000                       N    
RDG08560400WATRL000000004K00000000000000343003702192015110617N000400000010U88       001480400K 10000000010000000342           
CUS0856040000108433027003         NADEEM TAHIR        7504 STONES THROW CT                    000N        CARE OF             
MTR08560400001000000000000000RA              99409597    000101140000011400000570000003NN  NNW 000                       N    
RDG08560400WATRL000000004K00000000000000670003802192015110622N000000000000U88       000050400K 10000000010000000658           
CUS0856040000108433025007         MIDDLETON HARVEY T  7506 STONES THROW CT                    000N        CARE OF             
MTR08560400001000000000000000RA              99409098    000101150000011500000570000003NN  NNW 000                       N    
RDG08560400WATRL000000004K00000000000000505003902192015110712N000000000000U88       000500400K 10000000010000000494           
CUS0856040000108433023002         DAVID HARRIS        7508 STONESTHROW CT                     000N        CARE OF             
MTR08560400001000000000000000RA              99409099    000101160000011600000570000003NN  NNW 000                       N    
RDG08560400WATRL000000004K00000000000000450004002192015110714N000000000000U88       000020400K 10000000010000000450           
CUS0856040000108433018002         AYBAR SABAN         7510 STONESTHROW CT                     000N        CARE OF             
MTR08560400001000000000000000RA              99409593    000101170000011700000570000003NN  NNW 000                       N    
RDG08560400WATRL000000004K00000000000000558004102192015110829N000000000000U88       000750400K 10000000010000000542           
CUS0856040000108433011007         KEITH WILLIAMS      7512 STONESTHROW CT                     000N        CARE OF             
MTR08560400001000000000000000RA              99409573    000101180000011800000570000003NN  NNW 000                       N    
RDG08560400WATRL000000004K00000000000000942004202192015110838N000000000000U88       000090400K 10000000010000000923           
CUS0856040000108433010009         MCDANIEL CASSAUNDRA 7514 STONES THROW CT                    000N        CARE OF             
MTR08560400001000000000000000RA              99409594    000101190000011900000570000003NN  NNW 000                       N    
RDG08560400WATRL000000004K00000000000000575004302192015110933N000000000000U88       000550400K 10000000010000000558           
CUS0856040000108433009001         THOMAS CASEY        7516 STONESTHROW CT                     000N        CARE OF             
MTR08560400001000000000000000RA              99409596    000101200000012000000570000003NN  NNW 000                       N    
RDG08560400WATRL000000004K00000000000000850004402192015110936N000000000000U88       000030400K 10000000010000000829           
CUS0856040000108433008003         TROY BROGDEN        7518 STONESTHROW CT                     000N        CARE OF             
MTR08560400001000000000000000RA              99409705    005801210000012100000570000003NN  NNW 000                       N    
RDG08560400WATRL000000004K00000000000000625004502192015111121N000000000000U88       001050400K 10000000010000000620           
CUS0856040000108433141002         YATES EDWARD RANDOLP2013 AMBER WAY                          000N        CARE OF             
MTR08560400001000000000000000RA              99409441    000101220000012200000570000003NN  NNW 000                       N    
RDG08560400WATRL000000004K00000000000000361004602192015111219N000000000000U88       000580400K 10000000010000000349           
CUS0856040000108433113001         HINA SHAHEEN        2015 AMBER WAY                          000N        CARE OF             
MTR08560400001000000000000000RA              99409425    000101230000012300000570000003NY  NNW 000                       N    
MTM0856040099409425    SNOW ICE                                                                                               
RDG08560400WATRL000000004K00000000000000000000000000000000000 000000000000U         000000400  10000000010000000940           
CUS0856040000108433114009         ROBINSON COURTNEY L 2017 AMBER WAY                          000N        CARE OF             
MTR08560400001000000000000000RA              99409437    000101240000012400000570000003NY  NNW 000                       N    
MTM0856040099409437    SNOW ICE                                                                                               
RDG08560400WATRL000000004K00000000000000000000000000000000000 000000000000U         000000400  10000000010000000851           
CUS0856040000108433115006         GUERRERA JOSEPH     2019 AMBER WAY                          000N        CARE OF             
MTR08560400001000000000000000RA              99409440    000101250000012500000570000003NN  NNW 000                       N    
RDG08560400WATRL000000004K00000000000000373004702192015111420N000000000000U88       001210400K 10000000010000000369           
CUS0856040000108433116004         VENEY MONIQUE P     2021 AMBER WAY                          000N        CARE OF             
MTR08560400001000000000000000RA              99409438    000101260000012600000570000003NN  NNW 000                       N    
RDG08560400WATRL000000004K00000000000000349004802192015111426N000000000000U88       000060400K 10000000010000000336           
CUS0856040000108433117002         EVANS NATALIE M     2023 AMBER WAY                          000N        CARE OF             
MTR08560400001000000000000000RA              99409442    000101270000012700000570000003NN  NNW 000                       N    
RDG08560400WATRL000000004K00000000000000766004902192015111458N000000000000U88       000320400K 10000000010000000724           
CUS0856040000108433118000         AMPONSAH ERIC K     2025 AMBER WAY                          000N        CARE OF             
MTR08560400001000000000000000RA              99409301    000101280000012800000570000003NN  NNW 000                       N    
RDG08560400WATRL000000004K00000000000000973005002192015111542N000000000000U88       000440400K 10000000010000000957           
CUS0856040000108433119008         WALLACE KELLY DENISE2027 AMBER WAY                          000N        CARE OF             
MTR08560400001000000000000000RA              99409302    000101290000012900000570000003NN  NNW 000                       N    
RDG08560400WATRL000000004K00000000000000621005102192015111548N000000000000U88       000060400K 10000000010000000609           
CUS0856040000108433120006         GHANI HABIB         2029 AMBER WAY                          000N        CARE OF             
MTR08560400001000000000000000RA              99409262    000101300000013000000570000003NN  NNW 000                       N    
RDG08560400WATRL000000004K00000000000000986005202192015111643N000000000000U88       000550400K 10000000010000000957           
CUS0856040000108433121004         SIMMONS LAMONT      2031 AMBER WAY                          000N        CARE OF             
MTR08560400001000000000000000RA              99408917    000101310000013100000570000003NN  NNW 000                       N    
RDG08560400WATRL000000004K00000000000000494005302192015111646N000000000000U88       000030400K 10000000010000000482           
CUS0856040000108433122002         HOFF KEVIN LEE      2033 AMBER WAY                          000N        CARE OF             
MTR08560400001000000000000000RA              99409018    000101320000013200000570000003NN  NNW 000                       N    
RDG08560400WATRL000000004K00000000000001796005402192015111753N000000000000U88       000670400K 10000000010000001766           
CUS0856040000108433123000         JOYNER LEMONT E     2035 AMBER WAY                          000N        CARE OF             
MTR08560400001000000000000000RA              99408918    000101330000013300000570000003NN  NNW 000                       N    
RDG08560400WATRL000000004K00000000000000725005502192015111907N000000000010U88       000740400K 10000000010000000698           
CUS0856040000108433124008         HOLLAND WILLIAM S   2037 AMBER WAY                          000N        CARE OF             
MTR08560400001000000000000000RA              99409351    000101340000013400000570000003NN  NNW 000                       N    
RDG08560400WATRL000000004K00000000000001145005602192015111918N000000000020U88       000110400K 10000000010000001127           
CUS0856040000108433125005         HARRIS ROBIN M      2039 AMBER WAY                          000N        CARE OF             
MTR08560400001000000000000000RA              99409347    000101350000013500000570000003NN  NNW 000                       N    
RDG08560400WATRL000000004K00000000000000472005702192015111944N000000000000U88       000260400K 10000000010000000457           
CUS0856040000108433126003         ALEJANDRO GUERRERO E2041 AMBER WAY                          000N        CARE OF             
MTR08560400001000000000000000RA              99409345    000101360000013600000570000003NN  NNW 000                       N    
RDG08560400WATRL000000004K00000000000000882005802192015111956N000000000000U88       000120400K 10000000010000000865           
CUS0856040000108433127001         BROCKINGTON TYRONE  2043 AMBER WAY                          000N        CARE OF             
MTR08560400001000000000000000RA              99409310    000101370000013700000570000003NN  NNW 000                       N    
RDG08560400WATRL000000004K00000000000001243032102142015102139N000000000000N88       000060400K 10000000010000001221           
CUS0856040000108433128009         CHRISTOPHER D SCOTT 2045 AMBER WAY                          000N        CARE OF             
MTR08560400001000000000000000RA              99409309    000101380000013800000570000003NN  NNW 000                       N    
RDG08560400WATRL000000004K00000000000001162032002142015102133N000000000000N88       000400400K 10000000010000001126           
CUS0856040000108433129007         MITCHELL RONALD     2047 AMBER WAY                          000N        CARE OF             
MTR08560400001000000000000000RA              99409305    000101390000013900000570000003NN  NNW 000                       N    
RDG08560400WATRL000000004K00000000000000684031902142015102053N000000000000N88       000800400K 10000000010000000679           
CUS0856040000108432195009         HOLROYD JEREMY S    7545 SLATE DR                           000N        CARE OF             
MTR08560400001000000000000000RA              99409306    000101400000014000000570000000NN  NNW 000                       N    
RDG08560400WATRL000000004K00000000000001030005902192015113430N000000000000U88       008740400K 10000000010000001014           
CUS0856040000108432194002         PAUL HUGHES         7543 SLATE DR                           000N        CARE OF             
MTR08560400001000000000000000RA              99409348    000101410000014100000570000003NN  NNW 000                       N    
RDG08560400WATRL000000004K00000000000000673006002192015113527N000000000000U88       000570400K 10000000010000000659           
CUS0856040000108432196007         BURKE TERRY L       7541 SLATE DR                           000N        CARE OF             
MTR08560400001000000000000000RA              00166850    000101420000014200000570000003NN  NNW 000                       N    
RDG08560400WATRL000000004K00000000000000131006102192015113531N000000000000U88       000040400K 10000000010000000125           
CUS0856040000108432197005         MOSHI JAMES H       7539 SLATE DR                           000N        CARE OF             
MTR08560400001000000000000000RA              99409088    000101430000014300000570000003NN  NNW 000                       N    
RDG08560400WATRL000000004K00000000000000660006202192015113644N000000000010U88       000730400K 10000000010000000650           
CUS0856040000108432198003         MIGHTY YARLA        7537 SLATE DR                           000N        CARE OF             
MTR08560400001000000000000000RA              99409110    000101440000014400000570000003NN  NNW 000                       N    
RDG08560400WATRL000000004K00000000000000730006302192015113657N000000000030U88       000130400K 10000000010000000719           
CUS0856040000108432199001         SHANNON BRIAN C     7535 SLATE DR                           000N        CARE OF             
MTR08560400001000000000000000RA              99409342    000101450000014500000570000003NN  NNW 000                       N    
RDG08560400WATRL000000004K00000000000000898006502192015113832N000000000001U88       000130400K 10000000010000000883           
CUS0856040000108432200007         YOSEPHINE IMANUEL AL7533 SLATE DR                           000N        CARE OF             
MTR08560400001000000000000000RA              99409312    000101460000014600000570000003NN  NNW 000                       N    
RDG08560400WATRL000000004K00000000000000945006402192015113819N000000000000U88       000820400K 10000000010000000923           
CUS0856040000108432201005         SHERMAN CHRISTOPHER 7531 SLATE DR                           000N        CARE OF             
MTR08560400001000000000000000RA              99409103    000101470000014700000570000000NN  NNW 000                       N    
RDG08560400WATRL000000004K00000000000001713006602192015113907N000000000000U88       000350400K 10000000010000001687           
CUS0856040000108432202003         ST JEAN ABNER A     7529 SLATE DR                           000N        CARE OF             
MTR08560400001000000000000000RA              99409344    000101480000014800000570000003NN  NNW 000                       N    
RDG08560400WATRL000000004K00000000000000555006702192015114002N000000000000U88       000550400K 10000000010000000541           
CUS0856040000108432203001         DANIELS SEAN A      7527 SLATE DR                           000N        CARE OF             
MTR08560400001000000000000000RA              99409343    000101490000014900000570000003NN  NNW 000                       N    
RDG08560400WATRL000000004K00000000000000531006802192015114004N000000000000U88       000020400K 10000000010000000521           
CUS0856040000108432204009         ATA RIFFAT          7525 SLATE DR                           000N        CARE OF             
MTR08560400001000000000000000RA              99408978    000101500000015000000570000003NN  NNW 000                       N    
RDG08560400WATRL000000004K00000000000001171006902192015114052N000400000010U88       000480400K 10000000010000001157           
CUS0856040000108432205006         THOMPSON DELL M     7523 SLATE DR                           000N        CARE OF             
MTR08560400001000000000000000RA              99409138    000101510000015100000570000000NN  NNW 000                       N    
RDG08560400WATRL000000004K00000000000000501007002192015114118N000000000000U88       000260400K 10000000010000000499           
CUS0856040000108432206004         BRYANT LEON M       7521 SLATE DR                           000N        CARE OF             
MTR08560400001000000000000000RA              99409139    000101520000015200000570000003NN  NNW 000                       N    
RDG08560400WATRL000000004K00000000000000840007102192015114156N000000000000U88       000380400K 10000000010000000825           
CUS0856040000108432207002         JACKSON-HARRIS MICHE7519 SLATE DR                           000N        CARE OF             
MTR08560400001000000000000000RA              99409092    000101530000015300000570000003NN  NNW 000                       N    
RDG08560400WATRL000000004K00000000000000680007202192015114201N000000000000U88       000050400K 10000000010000000664           
CUS0856040000108432208000         MAHBOOB SHAIK FIRASA7517 SLATE DR                           000N        CARE OF             
MTR08560400001000000000000000RA              99409091    000101540000015400000570000003NN  NNW 000                       N    
RDG08560400WATRL000000004K00000000000001093007302192015114253N000000000000U88       000520400K 10000000010000001075           
CUS0856040000108432209008         HARRIS WILLIAM B,2ND7515 SLATE DR                           000N        CARE OF             
MTR08560400001000000000000000RA              99409101    000101550000015500000570000003NN  NNW 000                       N    
RDG08560400WATRL000000004K00000000000001031007402192015114256N000000000000U88       000030400K 10000000010000001004           
CUS0856040000108432210006         MIAN MOHAMMAD TAHIR 7513 SLATE DR                           000N        CARE OF             
MTR08560400001000000000000000RA              99409102    000101560000015600000570000003NN  NNW 000                       N    
RDG08560400WATRL000000004K00000000000000728007502192015114326N000000000000U88       000300400K 10000000010000000717           
CUS0856040000108432211004         SUGGS MARVIN E      7511 SLATE DR                           000N        CARE OF             
MTR08560400001000000000000000RA              99408961    000101570000015700000570000000NN  NNW 000                       N    
RDG08560400WATRL000000004K00000000000000946007602192015114351N000000000000U88       000250400K 10000000010000000936           
CUS0856040000108432212002         CROYLE SEAN R       7509 SLATE DR                           000N        CARE OF             
MTR08560400001000000000000000RA              99408964    000101580000015800000570000003NN  NNW 000                       N    
RDG08560400WATRL000000004K00000000000001169007702192015114431N000000000011U88       000130400K 10000000010000001148           
CUS0856040000108432213000         MOORE KIONA         7507 SLATE DR                           000N        CARE OF             
MTR08560400001000000000000000RA              99408921    000101590000015900000570000000NN  NNW 000                       N    
RDG08560400WATRL000000004K00000000000000984007802192015114437N000000000000U88       000060400K 10000000010000000959           
CUS0856040000108432214008         GOODMAN TROY D      7505 SLATE DR                           000N        CARE OF             
MTR08560400001000000000000000RA              99408977    000101600000016000000570000003NN  NNW 000                       N    
RDG08560400WATRL000000004K00000000000000277007902192015114531N000000000000U88       000540400K 10000000010000000271           
CUS0856040000108432215005         DORSEY DENNIS T     7503 SLATE DR                           000N        CARE OF             
MTR08560400001000000000000000RA              99408979    000101610000016100000570000003NN  NNW 000                       N    
RDG08560400WATRL000000004K00000000000001242008002192015114536N000000000000U88       000050400K 10000000010000001218           
CUS0856040000108432216003         PERKINS JOYCE ELIZAB7501 SLATE DR                           000N        CARE OF             
MTR08560400001000000000000000RA              99409089    000101620000016200000570000003NN  NNW 000                       N    
RDG08560400WATRL000000004K00000000000001729008102192015114612N000000000000U88       000360400K 10000000010000001705           
CUS0856040000108432228008         BLAUVELT VANESSA MAR7520 SLATE DR                           000N        CARE OF             
MTR08560400001000000000000000RA              99409150    000101630000016300000570000003NN  NNW 000                       N    
RDG08560400WATRL000000004K00000000000001720008202192015114754N000000000020U88       001020400K 10000000010000001701           
CUS0856040000108432227000         KAUR KIRAN JIT      7522 SLATE DR                           000N        CARE OF             
MTR08560400001000000000000000RA              99409311    000101640000016400000570000003NN  NNW 000                       N    
RDG08560400WATRL000000004K00000000000001622008302192015114828N000000000000U88       000340400K 10000000010000001563           
CUS0856040000108432226002         SCHMITT CHARLES M   7524 SLATE DR                           000N        CARE OF             
MTR08560400001000000000000000RA              99409149    000101650000016500000570000003NN  NNW 000                       N    
RDG08560400WATRL000000004K00000000000000738008402192015114859N000000000000U88       000310400K 10000000010000000719           
CUS0856040000108432225004         CAMERON ODEAN       7526 SLATE DR                           000N        CARE OF             
MTR08560400001000000000000000RA              99409152    000101660000016600000570000003NN  NNW 000                       N    
RDG08560400WATRL000000004K00000000000000749008502192015114947N000000000000U88       000480400K 10000000010000000734           
CUS0856040000108432224007         JOHNSON PERRY,JR    7528 SLATE DR                           000N        CARE OF             
MTR08560400001000000000000000RA              99409151    000101670000016700000570000003NN  NNW 000                       N    
RDG08560400WATRL000000004K00000000000000780008602192015114949N000000000000U88       000020400K 10000000010000000765           
CUS0856040000108432223009         BUTLER BLAIR        7530 SLATE DR                           000N        CARE OF             
MTR08560400001000000000000000RA              99408966    000101680000016800000570000003NN  NNW 000                       N    
RDG08560400WATRL000000004K00000000000000650008702192015115120N000000000010U88       000910400K 10000000010000000643           
CUS0856040000108432222001         MEADERS ALICIA      7532 SLATE DR                           000N        CARE OF             
MTR08560400001000000000000000RA              99409033    000101690000016900000570000003NN  NNW 000                       N    
RDG08560400WATRL000000004K00000000000000637008802192015115201N000400000050U88       000410400K 10000000010000000636           
CUS0856040000108432221003         LANSDOWNE CHARLES ED7534 SLATE DR                           000N        CARE OF             
MTR08560400001000000000000000RA              99409020    000101700000017000000570000003NN  NNW 000                       N    
RDG08560400WATRL000000004K00000000000000899008902192015115226N000000000000U88       000250400K 10000000010000000879           
CUS0856040000108432220005         WILKES ROSALIND A   7536 SLATE DR                           000N        CARE OF             
MTR08560400001000000000000000RA              99409021    000101710000017100000570000003NN  NNW 000                       N    
RDG08560400WATRL000000004K00000000000001160009202192015115331N000000000001U88       000070400K 10000000010000001151           
CUS0856040000108432219007         DAVIS MICHAEL C     7538 SLATE DR                           000N        CARE OF             
MTR08560400001000000000000000RA              99409019    000101720000017200000570000003NN  NNW 000                       N    
RDG08560400WATRL000000004K00000000000000547009002192015115312N000000000000U88       000460400K 10000000010000000534           
CUS0856040000108432218009         NOREIGA JOHANESS    7540 SLATE DR                           000N        CARE OF             
MTR08560400001000000000000000RA              99409017    000101730000017300000570000003NN  NNW 000                       N    
RDG08560400WATRL000000004K00000000000000807009102192015115324N000000000000U88       000120400K 10000000010000000788           
CUS0856040000108421211007         VERNON ELNORA       7434 MAURY DR                           000N        CARE OF             
MTR08560400001000000000000000RA              50384900    000101740000017400000520000003NN  NNW 000                       N    
RDG08560400WATRL000000004K00000000000001825015902142015090642N000000000000N88       001250400K 10000000010000001809           
CUS0856040000108421929004         KHALID MOHAMMED SAIF7432 MAURY DR                           000N        CARE OF             
MTR08560400001000000000000000RA              50384851    000101750000017500000520000003NN  NNW 000                       N    
RDG08560400WATRL000000004K00000000000001361016002142015090719N000000000000N88       000370400K 10000000010000001330           
CUS0856040000108421928006         CHAUDRY SAEED       7430 MAURY DR                           000N        CARE OF             
MTR08560400001000000000000000RA              50384850    000101760000017600000520000003NN  NNW 000                       N    
RDG08560400WATRL000000004K00000000000001528016102142015090725N000000000000N88       000060400K 10000000010000001520           
CUS0856040000108421927008         CHAUDHRY SAEED A    7428 MAURY DR                           000N        CARE OF             
MTR08560400001000000000000000RA              50384848    000101770000017700000520000003NN  NNW 000                       N    
RDG08560400WATRL000000004K00000000000001529016202142015090755N000000000000N88       000300400K 10000000010000001509           
CUS0856040000108421926000         JONES JEFFREE J     7426 MAURY DR                           000N        CARE OF             
MTR08560400001000000000000000RA              50384849    000101780000017800000520000003NN  NNW 000                       N    
RDG08560400WATRL000000004K00000000000001442016302142015090758N000000000000N88       000030400K 10000000010000001420           
CUS0856040000108421925002         DEASE RYANT         7424 MAURY DR                           000N        CARE OF             
MTR08560400001000000000000000RA              50384863    000101790000017900000520000003NN  NNW 000                       N    
RDG08560400WATRL000000004K00000000000001275016402142015090820N000000000000N88       000220400K 10000000010000001257           
CUS0856040000108421924005         MAXINE SIMS         7422 MAURY DR                           000N        CARE OF             
MTR08560400001000000000000000RA              50384862    000101800000018000000520000003NN  NNW 000                       N    
RDG08560400WATRL000000004K00000000000001435016502142015090823N000000000000N88       000030400K 10000000010000001411           
CUS0856040000108421923007         EVANS JOHN C,3RD    7420 MAURY DR                           000N        CARE OF             
MTR08560400001000000000000000RA              50384860    000101810000018100000520000003NN  NNW 000                       N    
RDG08560400WATRL000000004K00000000000001478016602142015090858N000000000000N88       000350400K 10000000010000001478           
CUS0856040000108421963003         MUKTAR FATIHI       7418 MAURY DR                           000N        CARE OF             
MTR08560400001000000000000000RA              51447180    000101820000018200000520000003NN  NNW 000                       N    
RDG08560400WATRL000000004K00000000000001842016702142015090934N000000000000N88       000360400K 10000000010000001816           
CUS0856040000108421961007         SAMPSON DORIAN S    7416 MAURY DR                           000N        CARE OF             
MTR08560400001000000000000000RA              52291721    000101830000018300000520000003NN  NNW 000                       N    
RDG08560400WATRL000000004K00000000000001220016802142015090937N000000000000N88       000030400K 10000000010000001197           
CUS0856040000108421960009         JESSE O HEINGHAN    7414 MAURY DR                           000N        CARE OF             
MTR08560400001000000000000000RA              51447166    000101840000018400000520000003NN  NNW 000                       N    
RDG08560400WATRL000000004K00000000000001621016902142015091008N000000000000N88       000310400K 10000000010000001599           
CUS0856040000108421958003         GLORIA THORNTON     7412 MAURY DR                           000N        CARE OF             
MTR08560400001000000000000000RA              51447163    000101850000018500000520000003NN  NNW 000                       N    
RDG08560400WATRL000000004K00000000000001721017002142015091011N000000000000N88       000030400K 10000000010000001692           
CUS0856040000108421957005         BINGHAM PORTIA DANET7410 MAURY DR                           000N        CARE OF             
MTR08560400001000000000000000RA              51447167    000101860000018600000520000003NN  NNW 000                       N    
RDG08560400WATRL000000004K00000000000001186017102142015091040N000000000000N88       000290400K 10000000010000001172           
CUS0856040000108421945000         GHAFFARIAN ZOHREH   7408 MAURY DR                           000N        CARE OF             
MTR08560400001000000000000000RA              51447164    000101870000018700000520000003NN  NNW 000                       N    
RDG08560400WATRL000000004K00000000000001752017202142015091043N000000000000N88       000030400K 10000000010000001730           
CUS0856040000108421944003         THOMAS JESSICA A    7406 MAURY DR                           000N        CARE OF             
MTR08560400001000000000000000RA              52291266    000101880000018800000520000003NN  NNW 000                       N    
RDG08560400WATRL000000004K00000000000001193017302142015091115N000000000000N88       000320400K 10000000010000001167           
CUS0856040000108421943005         RITCHIE CHRISTOPHER 7404 MAURY DR                           000N        CARE OF             
MTR08560400001000000000000000RA              52291307    000101890000018900000520000003NN  NNW 000                       N    
RDG08560400WATRL000000004K00000000000000852017402142015091118N000000000000N88       000030400K 10000000010000000827           
CUS0856040000108421942007         KHAN CHOUDHRY JAMIL 7402 MAURY DR                           000N        CARE OF             
MTR08560400001000000000000000RA              52291329    000101900000019000000520000003NN  NNW 000                       N    
RDG08560400WATRL000000004K00000000000002044017502142015091147N000000000000N88       000290400K 10000000010000002024           
CUS0856040000108421941009         GAITHER JERROD E    7400 MAURY DR                           000N        CARE OF             
MTR08560400001000000000000000RA              52291320    000101910000019100000520000003NN  NNW 000                       N    
RDG08560400WATRL000000004K00000000000002439017602142015091150N000000000000N88       000030400K 10000000010000002430           
CUS0856040000108424397001         LILLAN F HALL       7398 MAURY RD                           000N        CARE OF             
MTR08560400001000000000000000RA              52291216    000101920000019200000520000003NN  NNW 000                       N    
RDG08560400WATRL000000004K00000000000001679017702142015091215N000000000000N88       000250400K 10000000010000001665           
CUS0856040000108424396003         KAO CHI-FENG        7396 MAURY RD                           000N        CARE OF             
MTR08560400001000000000000000RA              52291217    000101930000019300000520000003NN  NNW 000                       N    
RDG08560400WATRL000000004K00000000000001494017802142015091218N000000000000N88       000030400K 10000000010000001477           
CUS0856040000108424395005         MUHAMMAD ZAHID      7394 MAURY RD                           000N        CARE OF             
MTR08560400001000000000000000RA              52291477    000101940000019400000520000003NN  NNW 000                       N    
RDG08560400WATRL000000004K00000000000001152017902142015091256N000000000000N88       000380400K 10000000010000001132           
CUS0856040000108424394008         GRAY ROXANNE E      7392 MAURY RD                           000N        CARE OF             
MTR08560400001000000000000000RA              52291453    000101950000019500000520000003NN  NNW 000                       N    
RDG08560400WATRL000000004K00000000000001086018002142015091301N000000000000N88       000050400K 10000000010000001078           
CUS0856040000108424393000         COLEMAN THERESA     7390 MAURY RD                           000N        CARE OF             
MTR08560400001000000000000000RA              52291452    000101960000019600000520000003NN  NNW 000                       N    
RDG08560400WATRL000000004K00000000000001001018102142015091331N000000000000N88       000300400K 10000000010000000974           
CUS0856040000108424392002         HAFIZ ZIAUR-REHMAN A7388 MAURY RD                           000N        CARE OF             
MTR08560400001000000000000000RA              52291472    000101970000019700000520000003NN  NNW 000                       N    
RDG08560400WATRL000000004K00000000000001098018202142015091334N000000000000N88       000030400K 10000000010000001068           
CUS0856040000108424391004         KHAN MOTI U         7386 MAURY RD                           000N        CARE OF             
MTR08560400001000000000000000RA              52291527    000101980000019800000520000003NN  NNW 000                       N    
RDG08560400WATRL000000004K00000000000001495018302142015091413N000000000000N88       000390400K 10000000010000001467           
CUS0856040000108424390006         CHASE COURTNEY M    7384 MAURY RD                           000N        CARE OF             
MTR08560400001000000000000000RA              52291394    000101990000019900000520000003NN  NNW 000                       N    
RDG08560400WATRL000000004K00000000000001400018402142015091421N000000000000N88       000080400K 10000000010000001390           
CUS0856040000108424389008         MARYLAND RENTING GRO7382 MAURY RD                           000N        CARE OF             
MTR08560400001000000000000000RA              52291526    000102000000020000000520000003NN  NNW 000                       N    
RDG08560400WATRL000000004K00000000000001061018502142015091519N000000000010N88       000580400K 10000000010000001008           
CUS0856040000108424388000         MCINTOSH HOPETON    7380 MAURY RD                           000N        CARE OF             
MTR08560400001000000000000000RA              52291512    000102010000020100000520000003NN  NNW 000                       N    
RDG08560400WATRL000000004K00000000000001657018602142015091522N000000000000N88       000030400K 10000000010000001631           
CUS0856040000108424387002         JOAN L COLLINS      7378 MAURY RD                           000N        CARE OF             
MTR08560400001000000000000000RA              52291395    000102020000020200000520000003NN  NNW 000                       N    
RDG08560400WATRL000000004K00000000000001119018702142015091603N000000000000N88       000410400K 10000000010000001100           
CUS0856040000108424386004         SHAMS SYED          7376 MAURY RD                           000N        CARE OF             
MTR08560400001000000000000000RA              52291420    000102030000020300000520000003NN  NNW 000                       N    
RDG08560400WATRL000000004K00000000000002122018802142015091609N000000000000N88       000060400K 10000000010000002057           
CUS0856040000108424383001         DANIEL JOYCE        7374 MAURY RD                           000N        CARE OF             
MTR08560400001000000000000000RA              52291515    000102040000020400000520000003NN  NNW 000                       N    
RDG08560400WATRL000000004K00000000000001673018902142015091645N000000000000N88       000360400K 10000000010000001601           
CUS0856040000108424382003         DEAN JOHN R,JR      7372 MAURY RD                           000N        CARE OF             
MTR08560400001000000000000000RA              52291514    000102050000020500000520000003NN  NNW 000                       N    
RDG08560400WATRL000000004K00000000000001982019002142015091648N000000000000N88       000030400K 10000000010000001974           
CUS0856040000108424368002         ROBINSON STACEY     7373 MAURY RD                           000N        CARE OF             
MTR08560400001000000000000000RA              52291994    000102060000020600000520000003NN  NNW 000                       N    
RDG08560400WATRL000000004K00000000000001531019102142015091731N000000000000N88       000430400K 10000000010000001509           
CUS0856040000108424369000         AHMED AHFAZ         7375 MAURY RD                           000N        CARE OF             
MTR08560400001000000000000000RA              52291996    000102070000020700000520000003NN  NNW 000                       N    
RDG08560400WATRL000000004K00000000000002577019202142015091734N000000000000N88       000030400K 10000000010000002546           
CUS0856040000108424370008         ALLEN H COLBERT     7377 MAURY RD                           000N        CARE OF             
MTR08560400001000000000000000RA              52291872    000102080000020800000520000003NN  NNW 000                       N    
RDG08560400WATRL000000004K00000000000003092019302142015091912N000400000010N88       000980400K 10000000010000003087           
CUS0856040000108424371006         DUDLEY DAVID M,SR   7379 MAURY RD                           000N        CARE OF             
MTR08560400001000000000000000RA              52291875    000102090000020900000520000003NN  NNW 000                       N    
RDG08560400WATRL000000004K00000000000001471019402142015091916N000000000000N88       000040400K 10000000010000001451           
CUS0856040000108424372004         MARION DEITRICK M   7381 MAURY RD                           000N        CARE OF             
MTR08560400001000000000000000RA              52291995    000102100000021000000520000003NN  NNW 000                       N    
RDG08560400WATRL000000004K00000000000001139019502142015092013N000000000000N88       000570400K 10000000010000001122           
CUS0856040000108424373002         ROBERTSON TANYA     7383 MAURY RD                           000N        CARE OF             
MTR08560400001000000000000000RA              52291882    000102110000021100000520000003NN  NNW 000                       N    
RDG08560400WATRL000000004K00000000000000836019602142015092017N000000000000N88       000040400K 10000000010000000818           
CUS0856040000108424374000         WANDA A CLAIBORNE   7385 MAURY RD                           000N        CARE OF             
MTR08560400001000000000000000RA              52291708    000102120000021200000520000003NN  NNW 000                       N    
RDG08560400WATRL000000004K00000000000000995019702142015092056N000000000000N88       000390400K 10000000010000000980           
CUS0856040000108424375007         WILLIAMS HENRY      7387 MAURY RD                           000N        CARE OF             
MTR08560400001000000000000000RA              52291706    000102130000021300000520000003NN  NNW 000                       N    
RDG08560400WATRL000000004K00000000000001520019802142015092133N000000000000N88       000370400K 10000000010000001505           
CUS0856040000108424376005         SHAH AMJAD A        7389 MAURY RD                           000N        CARE OF             
MTR08560400001000000000000000RA              52291675    000102140000021400000520000003NN  NNW 000                       N    
RDG08560400WATRL000000004K00000000000001971019902142015092136N000000000000N88       000030400K 10000000010000001930           
CUS0856040000108424377003         JOSE A RIVERA       7391 MAURY RD                           000N        CARE OF             
MTR08560400001000000000000000RA              52291674    000102150000021500000520000003NN  NNW 000                       N    
RDG08560400WATRL000000004K00000000000001926020002142015092205N000000000000N88       000290400K 10000000010000001901           
CUS0856040000108424378001         ROGERS BARBARA      7393 MAURY RD                           000N        CARE OF             
MTR08560400001000000000000000RA              52291703    000102160000021600000520000003NN  NNW 000                       N    
RDG08560400WATRL000000004K00000000000000488020102142015092209N000000000000N88       000040400K 10000000010000000486           
CUS0856040000108424379009         HILL LEON D         7395 MAURY RD                           000N        CARE OF             
MTR08560400001000000000000000RA              52291717    000102170000021700000520000003NN  NNW 000                       N    
RDG08560400WATRL000000004K00000000000001598020202142015092241N000000000000N88       000320400K 10000000010000001578           
CUS0856040000108424380007         DOROTHY BRADFIELD   7397 MAURY RD                           000N        CARE OF             
MTR08560400001000000000000000RA              52291189    000102180000021800000520000003NN  NNW 000                       N    
RDG08560400WATRL000000004K00000000000000490020302142015092308N000000000000N88       000270400K 10000000010000000482           
CUS0856040000108424381005         VIDAL OLAJUWON A    7399 MAURY RD                           000N        CARE OF             
MTR08560400001000000000000000RA              50384836    000102190000021900000520000003NN  NNW 000                       N    
RDG08560400WATRL000000004K00000000000000837020402142015092311N000000000000N88       000030400K 10000000010000000828           
CUS0856040000108421964001         JOHNSON MATINA L    7401 MAURY DR                           000N        CARE OF             
MTR08560400001000000000000000RA              52291340    000102200000022000000520000003NN  NNW 000                       N    
RDG08560400WATRL000000004K00000000000000745020502142015092336N000000000000N88       000250400K 10000000010000000741           
CUS0856040000108421965008         ABID MUHAMMAD       7403 MAURY DR                           000N        CARE OF             
MTR08560400001000000000000000RA              52291361    000102210000022100000520000003NN  NNW 000                       N    
RDG08560400WATRL000000004K00000000000001552020602142015092340N000000000000N88       000040400K 10000000010000001506           
CUS0856040000108421966006         R G LAWSON          7405 MAURY DR                           000N        CARE OF             
MTR08560400001000000000000000RA              52291331    000102220000022200000520000003NN  NNW 000                       N    
RDG08560400WATRL000000004K00000000000000264020702142015092405N000000000000N88       000250400K 10000000010000000260           
CUS0856040000108421952006         DAVID PETRUCCELLI   7407 MAURY DR                           000N        CARE OF             
MTR08560400001000000000000000RA              52291348    007502230000022300000520000003NN  NNW 000                       N    
RDG08560400WATRL000000004K00000000000001191020802142015092408N000000000000N88       000030400K 10000000010000001175           
CUS0856040000108421955009         HOUSTON CATHERINE L 7409 MAURY DR                           000N        CARE OF             
MTR08560400001000000000000000RA              51447140    000102240000022400000520000003NN  NNW 000                       N    
RDG08560400WATRL000000004K00000000000000902020902142015092444N000000000000N88       000360400K 10000000010000000896           
CUS0856040000108421959001         CYNTHIA RENEE JOHNSO7411 MAURY DR                           000N        CARE OF             
MTR08560400001000000000000000RA              51447076    000102250000022500000520000003NN  NNW 000                       N    
RDG08560400WATRL000000004K00000000000000967021002142015092448N000000000000N88       000040400K 10000000010000000957           
CUS0856040000108421962005         DUPEE RENEE F       7413 MAURY DR                           000N        CARE OF             
MTR08560400001000000000000000RA              51447141    000102260000022600000520000003NN  NNW 000                       N    
RDG08560400WATRL000000004K00000000000001438021102142015092515N000000000000N88       000270400K 10000000010000001427           
CUS0856040000108421967004         WOODEN DONTE        7415 MAURY DR                           000N        CARE OF             
MTR08560400001000000000000000RA              51447085    000102270000022700000520000003NN  NNW 000                       N    
RDG08560400WATRL000000004K00000000000001375021202142015092518N000000000000N88       000030400K 10000000010000001358           
CUS0856040000108421946008         TYRONE E PRICE      7417 MAURY DR                           000N        CARE OF             
MTR08560400001000000000000000RA              51447109    000102280000022800000520000003NN  NNW 000                       N    
RDG08560400WATRL000000004K00000000000001705021302142015092627N000000000001N88       000080400K 10000000010000001673           
CUS0856040000108421947006         PATTIK JENNIFER     7419 MAURY DR                           000N        CARE OF             
MTR08560400001000000000000000RA              51447084    000102290000022900000520000003NN  NNW 000                       N    
RDG08560400WATRL000000004K00000000000001693021402142015092619N000000000000N88       000100400K 10000000010000001649           
CUS0856040000108421948004         CYNTHIA S SORRELL   7421 MAURY DR                           000N        CARE OF             
MTR08560400001000000000000000RA              51447074    000102300000023000000520000003NN  NNW 000                       N    
RDG08560400WATRL000000004K00000000000001048021502142015092709N000000000000N88       000420400K 10000000010000001036           
CUS0856040000108421949002         SOPHON ORAPIN       7423 MAURY DR                           000N        CARE OF             
MTR08560400001000000000000000RA              50384889    000102310000023100000520000003NN  NNW 000                       N    
RDG08560400WATRL000000004K00000000000000600021602142015092743N000000000000N88       000340400K 10000000010000000593           
CUS0856040000108421950000         EDWARDS PAMELA K    7425 MAURY DR                           000N        CARE OF             
MTR08560400001000000000000000RA              50384823    000102320000023200000520000003NN  NNW 000                       N    
RDG08560400WATRL000000004K00000000000001145021702142015092746N000000000000N88       000030400K 10000000010000001134           
CUS0856040000108421951008         SHANTA M. HAYES     7427 MAURY DR                           000N        CARE OF             
MTR08560400001000000000000000RA              50384839    000102330000023300000520000003NN  NNW 000                       N    
RDG08560400WATRL000000004K00000000000000417021802142015092841N000000000000N88       000550400K 10000000010000000412           
CUS0856040000108421953004         PATRICIA THORNTON BI7429 MAURY DR                           000N        CARE OF             
MTR08560400001000000000000000RA              50384884    000102340000023400000520000003NN  NNW 000                       N    
RDG08560400WATRL000000004K00000000000001013021902142015092844N000000000000N88       000030400K 10000000010000000997           
CUS0856040000108421954002         IRANLOYE SAMUEL O   7431 MAURY DR                           000N        CARE OF             
MTR08560400001000000000000000RA              50384831    000102350000023500000520000003NN  NNW 000                       N    
RDG08560400WATRL000000004K00000000000001622022002142015092928N000000000000N88       000440400K 10000000010000001589           
CUS0856040000108421956007         COOPER MARY R       7433 MAURY DR                           000N        CARE OF             
MTR08560400001000000000000000RA              99408423    000102360000023600000570000003NN  NNW 000                       N    
RDG08560400WATRL000000004K00000000000000505022102142015092936N000000000010N88       000080400K 10000000010000000498           
CUS0856040000108421210009         MALIK RASHID        7435 MAURY DR                           000N        CARE OF             
MTR08560400001000000000000000RA              50384830    000102370000023700000520000003NN  NNW 000                       N    
RDG08560400WATRL000000004K00000000000001378022202142015093018N000000000000N88       000420400K 10000000010000001362           
CUS0856040000108418199009         MARUEEN PETERSEN    7501 MAURY DR                           000N        CARE OF             
MTR08560400001000000000000000RA              23139088    000102380000023800000520000003NN  NNW 000                       N    
RDG08560400WATRL000000004K00000000000001249022302142015093109N000000000000N88       000510400K 10000000010000001233           
CUS0856040000108418212000         CHARISSE R GREEN    7503 MAURY DR                           000N        CARE OF             
MTR08560400001000000000000000RA              50384368    000102390000023900000520000003NN  NNW 000                       N    
RDG08560400WATRL000000004K00000000000001349022402142015093138N000000000000N88       000290400K 10000000010000001338           
CUS0856040000108418211002         MCCULLOUGH MYRA G   7505 MAURY DR                           000N        CARE OF             
MTR08560400001000000000000000RA              50384659    000102400000024000000520000003NN  NNW 000                       N    
RDG08560400WATRL000000004K00000000000000949022502142015093141N000000000000N88       000030400K 10000000010000000928           
CUS0856040000108418210004         FAWEHINMI TEMITAYO  7507 MAURY DR                           000N        CARE OF             
MTR08560400001000000000000000RA              50384361    000102410000024100000520000003NN  NNW 000                       N    
RDG08560400WATRL000000004K00000000000001123022602142015093212N000000000000N88       000310400K 10000000010000001117           
CUS0856040000108418209006         SHIPMAN JOHNNY L    7509 MAURY DR                           000N        CARE OF             
MTR08560400001000000000000000RA              50384679    000102420000024200000520000003NN  NNW 000                       N    
RDG08560400WATRL000000004K00000000000002352022702142015093219N000000000000N88       000070400K 10000000010000002329           
CUS0856040000108418208008         ADEWUSI ADEDAYO     7511 MAURY DR                           000N        CARE OF             
MTR08560400001000000000000000RA              50384682    000102430000024300000520000003NN  NNW 000                       N    
RDG08560400WATRL000000004K00000000000001289022802142015093320N000000000000N88       000610400K 10000000010000001270           
CUS0856040000108418207000         TRUSTY BRENDA E     7513 MAURY DR                           000N        CARE OF             
MTR08560400001000000000000000RA              50384443    000102440000024400000520000003NN  NNW 000                       N    
RDG08560400WATRL000000004K00000000000001175022902142015093349N000400000010N88       000290400K 10000000010000001163           
CUS0856040000108418206002         LEMON LULETTA       7515 MAURY DR                           000N        CARE OF             
MTR08560400001000000000000000RA              50384591    000102450000024500000520000003NN  NNW 000                       N    
RDG08560400WATRL000000004K00000000000001982023002142015093352N000000000000N88       000030400K 10000000010000001948           
CUS0856040000108418205004         THORNTON KAREN A    7517 MAURY DR                           000N        CARE OF             
MTR08560400001000000000000000RA              50384590    000102460000024600000520000003NN  NNW 000                       N    
RDG08560400WATRL000000004K00000000000001076023102142015093423N000000000000N88       000310400K 10000000010000001061           
CUS0856040000108418204007         BOZEMAN JEROME KYLE 7519 MAURY DR                           000N        CARE OF             
MTR08560400001000000000000000RA              50384475    000102470000024700000520000003NN  NNW 000                       N    
RDG08560400WATRL000000004K00000000000000310023202142015093425N000000000000N88       000020400K 10000000010000000307           
CUS0856040000108418203009         STANLEY DEJUAN A    7521 MAURY DR                           000N        CARE OF             
MTR08560400001000000000000000RA              50384434    000102480000024800000520000003NN  NNW 000                       N    
RDG08560400WATRL000000004K00000000000001480023302142015093509N000000000000N88       000440400K 10000000010000001466           
CUS0856040000108418202001         SMITH STEFANEE E    7523 MAURY DR                           000N        CARE OF             
MTR08560400001000000000000000RA              50384435    000102490000024900000520000003NN  NNW 000                       N    
RDG08560400WATRL000000004K00000000000000748023402142015093513N000000000000N88       000040400K 10000000010000000741           
CUS0856040000108418201003         CURLEY JOSEPH M,JR  7525 MAURY DR                           000N        CARE OF             
MTR08560400001000000000000000RA              50384456    000102500000025000000520000003NN  NNW 000                       N    
RDG08560400WATRL000000004K00000000000001524023502142015093540N000000000000N88       000270400K 10000000010000001506           
CUS0856040000108418200005         ALEXIS JOAN A       7527 MAURY DR                           000N        CARE OF             
MTR08560400001000000000000000RA              50384457    000102510000025100000520000003NN  NNW 000                       N    
RDG08560400WATRL000000004K00000000000000772023602142015093542N000000000000N88       000020400K 10000000010000000766           
CUS0856040000108417216002         GRAHAM AVELINO M    7529 MAURY DR                           000N        CARE OF             
MTR08560400001000000000000000RA              48581817    000102520000025200000520000003NN  NNW 000                       N    
RDG08560400WATRL000000004K00000000000001542023702142015093621N000000000000N88       000390400K 10000000010000001529           
CUS0856040000108417215004         JOHNSON CHICORA     7531 MAURY DR                           000N        CARE OF             
MTR08560400001000000000000000RA              48581833    000102530000025300000520000003NN  NNW 000                       N    
RDG08560400WATRL000000004K00000000000001736023802142015093624N000000000000N88       000030400K 10000000010000001717           
CUS0856040000108417214007         BAKARE NOFISAT      7533 MAURY DR                           000N        CARE OF             
MTR08560400001000000000000000RA              48581821    000102540000025400000520000003NN  NNW 000                       N    
RDG08560400WATRL000000004K00000000000001165023902142015093650N000000000000N88       000260400K 10000000010000001165           
CUS0856040000108417213009         SMITH GLENN S       7535 MAURY DR                           000N        CARE OF             
MTR08560400001000000000000000RA              48581816    000102550000025500000520000003NN  NNW 000                       N    
RDG08560400WATRL000000004K00000000000001848024002142015093653N000000000000N88       000030400K 10000000010000001833           
CUS0856040000108417212001         WEBB LANITA ANNETTE 7537 MAURY DR                           000N        CARE OF             
MTR08560400001000000000000000RA              48581820    000102560000025600000520000003NN  NNW 000                       N    
RDG08560400WATRL000000004K00000000000001193024102142015093721N000000000000N88       000280400K 10000000010000001174           
CUS0856040000108417211003         PINKNEY-HARDEN DIANA7539 MAURY DR                           000N        CARE OF             
MTR08560400001000000000000000RA              48581832    000102570000025700000520000003NN  NNW 000                       N    
RDG08560400WATRL000000004K00000000000000887024202142015093724N000000000000N88       000030400K 10000000010000000881           
CUS0856040000108417322008         SPICER LAURA M      1 KELLYS CT                             000N        CARE OF             
MTR08560400001000000000000000RA              48581368    000102580000025800000520000003NN  NNW 000                       N    
RDG08560400WATRL000000004K00000000000002352013602142015085233N000000000000N88       000030400K 10000000010000002323           
CUS0856040000108417321000         JONES ROSE M        3 KELLYS CT                             000N        CARE OF             
MTR08560400001000000000000000RA              48581363    000102590000025900000520000003NN  NNW 000                       N    
RDG08560400WATRL000000004K00000000000001746013502142015085230N000000000000N88       000330400K 10000000010000001727           
CUS0856040000108417320002         ZUBAIR ABBASI       5 KELLYS CT                             000N        CARE OF             
MTR08560400001000000000000000RA              48581440    000102600000026000000520000003NN  NNW 000                       N    
RDG08560400WATRL000000004K00000000000001768013402142015085157N000000000000N88       000060400K 10000000010000001747           
CUS0856040000108417319004         KEYONNA M LEGGS     7 KELLYS CT                             000N        CARE OF             
MTR08560400001000000000000000RA              48581452    000102610000026100000520000003NN  NNW 000                       N    
RDG08560400WATRL000000004K00000000000001709013302142015085151N000000000000N88       000330400K 10000000010000001698           
