FHDNNNN022003998003998003998N                                                                                           012169
RHD08565500NN02220222000002220000000002220222000020NY022202220222001500000000000000000000000002    02022015NY020000 N         
CUS0856550000108027342008         KERNAN JAMES L      5400 WINDSOR MILL RD                    000N        CARE OF             
MTR08565500001000000000000000RA              52292457    007500010000000100000520000003NY  NNW 000   FERRULE APPLIED     N    
MTM0856550052292457    CANT LOCATE                                                                                            
RDG08565500WATRL000000004K00000000000000000000000000000000000 000000000000U         000000400  10000000010000001449           
CUS0856550000108027343006         DRIVER GREGORY T    2018 MOSBY AVE                          000N        CARE OF             
MTR08565500001000000000000000RA              76347784    005800020000000200000350000003NN  NNW 000                       N    
RDG08565500WATRL000000004K00000000000000124000102142015110408N000000000000N87       000000400K 10000000010000000092           
CUS0856550000108027344004         LEINO VICTOR        2016 MOSBY AVE                          000N        CARE OF             
MTR08565500001000000000000000RA              54351954    005800030000000300000520000003NN  NNW 000                       N    
RDG08565500WATRL000000004K00000000000001254000202142015110411N000000000000N87       000030400K 10000000010000001241           
CUS0856550000108027345001         KIRKLAND ROBERT L   2012 MOSBY AVE                          000N        CARE OF             
MTR08565500001000000000000000RA              76345741    005800040000000400000350000003NY  NNW 000                       N    
MTM0856550076345741    CAR                                                                                                    
RDG08565500WATRL000000004K00000000000000000000000000000000000 000000000000U         000000400  10000000010000000073           
CUS0856550000108027346009         MONICA A WALL       2010 MOSBY AVE                          000N        CARE OF             
MTR08565500001000000000000000RA              42809844    005800050000000500000520000003NN  NNW 000                       N    
RDG08565500WATRL000000004K00000000000002279000302142015110427N000300000010N87       000160400K 10000000010000002263           
CUS0856550000108027347007         PEARLSTEIN RACHEL A 2008 MOSBY AVE                          000N        CARE OF             
MTR08565500001000000000000000RA              10019763    005800060000000600000570000003NN  NNW 000                       N    
RDG08565500WATRL000000004K00000000000000061000402142015110431N000000000000N87       000040400K 10000000010000000057           
CUS0856550000108027348005         ZITO ANNUNZIATA N   2006 MOSBY AVE                          000N        CARE OF             
MTR08565500001000000000000000RA              14908802    005800070000000700000310000003NN  NNW 000                       N    
RDG08565500WATRL000000004K00000000000001037000502142015110436N000000000000N87       000050400K 10000000010000000963           
CUS0856550000108405829006         KMW & ASSOCIATES LLC2108 THISTLEBLOOM RD                    000N        CARE OF             
MTR08565500001000000000000000RA              44090216    005800080000000800000520000003NN  NNW 000                       N    
RDG08565500WATRL000000004K00000000000004248000602142015110439N000000000000N87       000030400K 10000000010000004226           
CUS0856550000108027349003         LINDNER DONALD L    2105 THISTLEBLOOM RD                    000N        CARE OF             
MTR08565500001000000000000000RA              10019900    005800090000000900000570000003NY  NNW 000                       N    
MTM0856550010019900    TRUCK                                                                                                  
RDG08565500WATRL000000004K00000000000000000000000000000000000 000000000000U         000000400  10000000010000000138           
CUS0856550000108027350001         NOYA MANUEL A       2002 MOSBY AVE                          000N        CARE OF             
MTR08565500001000000000000000RA              52286203    005800100000001000000520000003NN  NNW 000                       N    
RDG08565500WATRL000000004K00000000000003936000702142015110500N000000000000N87       000210400K 10000000010000003882           
CUS0856550000108027351009         BROWN-LATTA MARVA L 2000 MOSBY AVE                          000N        CARE OF             
MTR08565500001000000000000000RA              26015774    005800110000001100000520000003NN  NNW 000                       N    
RDG08565500WATRL000000004K00000000000002326000802142015110505N000000000000N87       000050400K 10000000010000002313           
CUS0856550000108027352007         RICHARDSON MARY C   5500 WINDSOR MILL RD                    000N        CARE OF             
MTR08565500001000000000000000RA              76348088    005800120000001200000350000003NN  NNW 000                       N    
RDG08565500WATRL000000004K00000000000000043000902142015110509N000000000000N87       000040400K 10000000010000000028           
CUS0856550000108027353005         BAYLOR AMINA M M    5502 WINDSOR MILL RD                    000N        CARE OF             
MTR08565500001000000000000000RA              75424412    005800130000001300000350000003NN  NNW 000                       N    
RDG08565500WATRL000000004K00000000000000139001002142015110513N000300000010N87       000040400K 10000000010000000110           
CUS0856550000108027354003         ONYEJE CHINASA      5504 WINDSOR MILL RD                    000N        CARE OF             
MTR08565500001000000000000000RA              27825467    005800140000001400000520000003NN  NNW 000                       N    
RDG08565500WATRL000000004K00000000000004266001102142015110518N000000000000N87       000050400K 10000000010000004243           
CUS0856550000108027355000         RUFFIN TYISHA Y     5506 WINDSOR MILL RD                    000N        CARE OF             
MTR08565500001000000000000000RA              32901697    005800150000001500000520000003NN  NNW 000                       N    
RDG08565500WATRL000000004K00000000000007801001202142015110523N000000000010N87       000050400K 10000000010000007728           
CUS0856550000108027356008         WILKINSON JOAN      5508 WINDSOR MILL RD                    000N        CARE OF             
MTR08565500001000000000000000RA              41087787    005800160000001600000520000003NN  NNW 000                       N    
RDG08565500WATRL000000004K00000000000003622001302142015110529N000000000000N87       000060400K 10000000010000003599           
CUS0856550000108027357006         5510 WINDSOR, LLC   5510 WINDSOR MILL RD                    000N        CARE OF             
MTR08565500001000000000000000RA              01115481    005800170000001700000610000003NN  NNW 000                       N    
RDG08565500WATRL000000004K00000000000000826001402142015110532N000000000000N87       000030400K 10000000010000000813           
CUS0856550000108027358004         EGURIDU PAUL        5512 WINDSOR MILL RD                    000N        CARE OF             
MTR08565500001000000000000000RA              26009947    005800180000001800000520000003NN  NNW 000                       N    
RDG08565500WATRL000000004K00000000000002632001502142015110543N000300000010N87       000110400K 10000000010000004623           
CUS0856550000108402036001         KOLPER PATRICIA LEE 2102 SUNBRIAR LN                        000N        CARE OF             
MTR08565500001000000000000000RA              41076355    005800190000001900000520000003NN  NNW 000                       N    
RDG08565500WATRL000000004K00000000000003404001602142015110547N000000000000N87       000040400K 10000000010000003392           
CUS0856550000108027359002         JORDAN CYNTHIA      2105 SUNBRIAR LN                        000N        CARE OF             
MTR08565500001000000000000000RA              27814853    005800200000002000000520000003NN  NNW 000                       N    
RDG08565500WATRL000000004K00000000000002064001702142015110552N000400000010N87       000050400K 10000000010000002046           
CUS0856550000108440782004         HOWARD ALBERT C     2107 SUNBRIAR LN                        000N        CARE OF             
MTR08565500001000000000000000RA              14918215    005800210000002100000310000003NN  NNW 000                       N    
RDG08565500WATRL000000004K00000000000000539001802142015110559N000000000000N87       000070400K 10000000010000000521           
CUS0856550000108027360000         DOMINGUEZ-ORTIZ PATR2109 SUNBRIAR LN                        000N        CARE OF             
MTR08565500001000000000000000RA              33077157    005800220000002200000520000003NY  NNW 000                       N    
MTM0856550033077157    CAR                                                                                                    
RDG08565500WATRL000000004K00000000000000000000000000000000000 000000000000U         000000400  10000000010000003686           
CUS0856550000108027361008         REUTER JAMES M      2111 SUNBRIAR LN                        000N        CARE OF             
MTR08565500001000000000000000RA              35108646    005800230000002300000520000003NY  NNW 000                       N    
MTM0856550035108646    CLEAN OUT                                                                                              
RDG08565500WATRL000000004K00000000000000000000000000000000000 000000000000U         000000400  10000000010000004386           
CUS0856550000108027362006         GROSS WILLIAM V     2113 SUNBRIAR LN                        000N        CARE OF             
MTR08565500001000000000000000RA              01079649    005800240000002400000610000003NY  NNW 000                       N    
MTM0856550001079649    CAR                                                                                                    
RDG08565500WATRL000000004K00000000000000000000000000000000000 000000000000U         000000400  10000000010000000412           
CUS0856550000108027363004         WYNCHE CHARLENE     2115 SUNBRIAR LN                        000N        CARE OF             
MTR08565500001000000000000000RA              27833366    005800250000002500000520000003NN  NNW 000                       N    
RDG08565500WATRL000000004K00000000000003332001902142015110645N000400000010N87       000460400K 10000000010000003307           
CUS0856550000108027364002         2120 SUN BRIAR AVENU2120 SUNBRIAR LN                        000N        CARE OF             
MTR08565500001000000000000000RA              10024263    005800260000002600000570000003NN  NNW 000                       N    
RDG08565500WATRL000000004K00000000000000197002002142015110653N000400000010N87       000080400K 10000000010000000188           
CUS0856550000108027365009         BURNSEED LAYMAN EDGA2118 SUNBRIAR LN                        000N        CARE OF             
MTR08565500001000000000000000RA              10014040    005800270000002700000570000003NN  NNW 000                       N    
RDG08565500WATRL000000004K00000000000000195002102142015110700N000000000000N87       000070400K 10000000010000000179           
CUS0856550000108027366007         SYKES STEVEN B      2114 SUNBRIAR LN                        000N        CARE OF             
MTR08565500001000000000000000RA              99289872    005800280000002800000570000003NN  NNW 000                       N    
RDG08565500WATRL000000004K00000000000001415002202142015110704N000000000000N87       000040400K 10000000010000001399           
CUS0856550000108027367005         ANGELA M HUNTER     2112 SUNBRIAR LN                        000N        CARE OF             
MTR08565500001000000000000000RA              01115413    005800290000002900000610000003NY  NNW 000                       N    
MTM0856550001115413    CAR                                                                                                    
RDG08565500WATRL000000004K00000000000000000000000000000000000 000000000000U         000000400  10000000010000000730           
CUS0856550000108027368003         ROLLINS LEON D      2110 SUNBRIAR LN                        000N        CARE OF             
MTR08565500001000000000000000RA              01115410    005800300000003000000610000003NY  NNW 000                       N    
MTM0856550001115410    CAR                                                                                                    
RDG08565500WATRL000000004K00000000000000000000000000000000000 000000000000U         000000400  10000000010000000320           
CUS0856550000108027369001         GALAVIZ JOSE        2108 SUNBRIAR LN                        000N        CARE OF             
MTR08565500001000000000000000RA              14900515    005800310000003100000310000003NN  NNW 000                       N    
RDG08565500WATRL000000004K00000000000001766002302142015110725N000000000000N87       000210400K 10000000010000001720           
CUS0856550000108027370009         WELCH RHONDA JO     2106 SUNBRIAR LN                        000N        CARE OF             
MTR08565500001000000000000000RA              24220862    005800320000003200000520000003NN  NNW 000                       N    
RDG08565500WATRL000000004K00000000000001976002402142015110729N000000000000N87       000040400K 10000000010000001959           
CUS0856550000108027371007         JACKSON CARROLL THOM2104 SUNBRIAR LN                        000N        CARE OF             
MTR08565500001000000000000000RA              01079643    005800330000003300000610000003NN  NNW 000                       N    
RDG08565500WATRL000000004K00000000000000839002502142015110733N000000000000N87       000040400K 10000000010000000819           
CUS0856550000108438458005         HARRIS TAMARA       2116 SUN BRIAR LN                       000N        CARE OF             
MTR08565500001000000000000000RA              14908863    005800340000003400000440000000NN  NNW 000                       N    
RDG08565500WATRL000000004K00000000000000738002602142015110738N000000000010N87       000050400K 10000000010000000748           
CUS0856550000108027372005         MENDEZ YONI ANGEL   5516 WINDSOR MILL RD                    000N        CARE OF             
MTR08565500001000000000000000RA              01078909    005800350000003500000610000003NN  NNW 000                       N    
RDG08565500WATRL000000004K00000000000001788002702142015110749N000000000000N87       000110400K 10000000010000001762           
CUS0856550000108027373003         FELIPA MILDRED DARCE5518 WINDSOR MILL RD                    000N        CARE OF             
MTR08565500001000000000000000RA              32902003    005800360000003600000520000003NN  NNW 000                       N    
RDG08565500WATRL000000004K00000000000003800002802142015110755N000000000000N87       000060400K 10000000010000003751           
CUS0856550000108027374001         GRAHAM ROBERT LEE   5520 WINDSOR MILL RD                    000N        CARE OF             
MTR08565500001000000000000000RA              01079645    005800370000003700000610000003NN  NNW 000                       N    
RDG08565500WATRL000000004K00000000000001468002902142015110801N000000000000N87       000060400K 10000000010000001446           
CUS0856550000108027375008         WHITE BARBARA JEAN  5522 WINDSOR MILL RD                    000N        CARE OF             
MTR08565500001000000000000000RA              01079648    005800380000003800000610000003NN  NNW 000                       N    
RDG08565500WATRL000000004K00000000000002849003002142015110805N000000000000N87       000040400K 10000000010000002805           
CUS0856550000108027376006         PAT HIBAN REAL ESTAT2103 PARK PL                            000N        CARE OF             
MTR08565500001000000000000000RA              01078871    005800390000003900000610000003NN  NNW 000                       N    
RDG08565500WATRL000000004K00000000000000596003102142015110810N000000000010N87       000050400K 10000000010000000598           
CUS0856550000108027377004         TAYLOR-ROBINSON SHAR2105 PARK PL                            000N        CARE OF             
MTR08565500001000000000000000RA              32178859    005800400000004000000520000003NN  NNW 000                       N    
RDG08565500WATRL000000004K00000000000007187003202142015110828N000000000000N87       000180400K 10000000010000007161           
CUS0856550000108027378002         TURNER KENNETH A    2107 PARK PL                            000N        CARE OF             
MTR08565500001000000000000000RA              01076792    005800410000004100000610000003NN  NNW 000                       N    
RDG08565500WATRL000000004K00000000000000977003302142015110831N000000000000N87       000030400K 10000000010000000966           
CUS0856550000108027379000         ORTIZ DAVID S       2109 PARK PL                            000N        CARE OF             
MTR08565500001000000000000000RA              27812355    005800420000004200000520000003NN  NNW 000                       N    
RDG08565500WATRL000000004K00000000000003332003402142015110834N000000000000N87       000030400K 10000000010000003319           
CUS0856550000108027380008         WILLIAMS ELIZABETH M2111 PARK PL                            000N        CARE OF             
MTR08565500001000000000000000RA              46887403    005800430000004300000520000003NN  NNW 000                       N    
RDG08565500WATRL000000004K00000000000000624003502142015110846N000000000000N87       000120400K 10000000010000000618           
CUS0856550000108027381006         MILLER DONTE L      2113 PARK PL                            000N        CARE OF             
MTR08565500001000000000000000RA              01076790    005800440000004400000610000003NN  NNW 000                       N    
RDG08565500WATRL000000004K00000000000001523003602142015110850N000000000000N87       000040400K 10000000010000001504           
CUS0856550000108027382004         BETH TFILOH CONGREGAES PARK PL 460 FT N OF                  000N        CARE OF             
MTR08565500001000000000000000RA              30002246    007500450000004500000570000003NN  NNW 000                       N    
RDG08565500WATRL000000004K00000000000000000003702142015110851N000000000000N87       000010400K 10000000010000000000           
CUS0856550000108027383002         GILMORE MAXINE      2116 PARK PL                            000N        CARE OF             
MTR08565500001000000000000000RA              01076461    005800460000004600000610000003NN  NNW 000                       N    
RDG08565500WATRL000000004K00000000000001418003802142015110854N000000000000N87       000030400K 10000000010000001390           
CUS0856550000108027384000         AGURS ELLIS RUSSELL 2114 PARK PL                            000N        CARE OF             
MTR08565500001000000000000000RA              24765833    005800470000004700000520000003NN  NNW 000                       N    
RDG08565500WATRL000000004K00000000000003293003902142015110856N000000000000N87       000020400K 10000000010000003256           
CUS0856550000108027385007         HOTTINGER ALAN K    2108 PARK PL                            000N        CARE OF             
MTR08565500001000000000000000RA              32178856    005800480000004800000520000003NN  NNW 000                       N    
RDG08565500WATRL000000004K00000000000003358004002142015110901N000000000000N87       000050400K 10000000010000003337           
CUS0856550000108027386005         TYNER VALERIE M     2104 PARK PL                            000N        CARE OF             
MTR08565500001000000000000000RA              11337258    005800490000004900000520000003NN  NNW 000                       N    
RDG08565500WATRL000000004K00000000000006054004102142015110904N000000000000N87       000030400K 10000000010000006018           
CUS0856550000108027387003         CLARK ROBIN L       2102 PARK PL                            000N        CARE OF             
MTR08565500001000000000000000RA              01076467    005800500000005000000610000003NN  NNW 000                       N    
RDG08565500WATRL000000004K00000000000001963004202142015110907N000000000000N87       000030400K 10000000010000001942           
CUS0856550000108027388001         KEMP RAYMOND J,JR   2100 PARK PL                            000N        CARE OF             
MTR08565500001000000000000000RA              44172539    005800510000005100000520000003NN  NNW 000                       N    
RDG08565500WATRL000000004K00000000000001014004302142015110911N000000000000N87       000040400K 10000000010000001010           
CUS0856550000108027389009         THOMAS DORETHA      5600 WINDSOR MILL RD                    000N        CARE OF             
MTR08565500001000000000000000RA              50791757    005800520000005200000520000003NN  NNW 000                       N    
RDG08565500WATRL000000004K00000000000001164004402142015110914N000000000000N87       000030400K 10000000010000001118           
CUS0856550000108027390007         K& S APTS., LLC.    5602 WINDSOR MILL RD                    000N        CARE OF             
MTR08565500001000000000000000RA              01076503    005800530000005300000610000003NN  NNW 000                       N    
RDG08565500WATRL000000004K00000000000001150004502142015110917N000000000000N87       000030400K 10000000010000001139           
CUS0856550000108027391005         BETH TFILOH CONGREGA5620 WINDSOR MILL RD                    000N        CARE OF             
MTR08565500001000000000000000RA              75616821    005800540000005400000350000003NN  NNW 000                       N    
RDG08565500WATRL000000004K00000000000000001004602142015110921N000100000010N87       000040400K 10000000010000000001           
CUS0856550000108027392003         EWEN ERIC W         5700 WINDSOR MILL RD                    000N        CARE OF             
MTR08565500001000000000000000RA              27819990    005800550000005500000520000003NN  NNW 000                       N    
RDG08565500WATRL000000004K00000000000002632004702142015110924N000000000000N87       000030400K 10000000010000002623           
CUS0856550000108027393001         SHAAREI TFILOH CONGR5720 WINDSOR MILL RD                    000N        CARE OF             
MTR08565500001000000000000000RA              75615456    005800560000005600000350000003NN  NNW 000                       N    
RDG08565500WATRL000000004K00000000000000000004802142015110927N000000000000N87       000030400K 10000000010000000000           
CUS0856550000108027394009         WILLIE L MCFADDEN   2111 LORRAINE AVE                       000N        CARE OF             
MTR08565500001000000000000000RA              01092333    005800570000005700000610000003NN  NNW 000                       N    
RDG08565500WATRL000000004K00000000000001168004902142015110931N000000000000N87       000040400K 10000000010000001111           
CUS0856550000108027395006         THOMPSON ANTONIO    2113 LORRAINE AVE                       000N        CARE OF             
MTR08565500001000000000000000RA              75616645    005800580000005800000350000003NN  NNW 000                       N    
RDG08565500WATRL000000004K00000000000000123005002142015110933N000000000000N87       000020400K 10000000010000000105           
CUS0856550000108400441005         TEGELER PROPERTIES L2115 LORRAINE AVE                       000N        CARE OF             
MTR08565500001000000000000000RA              33079693    005800590000005900000520000003NN  NNW 000                       N    
RDG08565500WATRL000000004K00000000000002438005102142015110937N000000000000N87       000040400K 10000000010000002426           
CUS0856550000108027396004         HAMLIN ANNETTE      2117 LORRAINE AVE                       000N        CARE OF             
MTR08565500001000000000000000RA              54352007    005800600000006000000520000003NN  NNW 000                       N    
RDG08565500WATRL000000004K00000000000001697005202142015110940N000000000000N87       000030400K 10000000010000001682           
CUS0856550000108027397002         HUNTINGTON JAMES A  2119 LORRAINE AVE                       000N        CARE OF             
MTR08565500001000000000000000RA              11337198    005800610000006100000570000003NN  NNW 000                       N    
RDG08565500WATRL000000004K00000000000004272005302142015110942N000000000000N87       000020400K 10000000010000004247           
CUS0856550000108027398000         GREEN ANNIE L       2123 LORRAINE AVE                       000N        CARE OF             
MTR08565500001000000000000000RA              52769090    005800620000006200000520000003NY  NNW 000                       N    
MTM0856550052769090    BURIED                                                                                                 
RDG08565500WATRL000000004K00000000000000000000000000000000000 000000000000U         000000400  10000000010000002732           
CUS0856550000108027399008         GREEN-COFIELD CALPER2125 LORRAINE AVE                       000N        CARE OF             
MTR08565500001000000000000000RA              99291278    005800630000006300000570000003NN  NNW 000                       N    
RDG08565500WATRL000000004K00000000000000700005402142015111005N000000000000N87       000230400K 10000000010000000692           
CUS0856550000108027400004         HART TERRAINIO J    2127 LORRAINE AVE                       000N        CARE OF             
MTR08565500001000000000000000RA              99187224    005800640000006400000570000003NN  NNW 000                       N    
RDG08565500WATRL000000004K00000000000001458005502142015111007N000000000000N87       000020400K 10000000010000001431           
CUS0856550000108027401002         BETH TFILOH CONGREGA2129-31 LORRAINE AVE                    000N        CARE OF             
MTR08565500001000000000000000RA              99999999    005800650000006500000620000003NY  NNW 000                       N    
MTM0856550099999999    YOKE                                                                                                   
RDG08565500WATRL000000004K00000000000000000000000000000000000 000000000000U         000000400  10000000010000002081           
CUS0856550000108027402000         MOSIER MICHAEL U    2135 LORRAINE AVE                       000N        CARE OF             
MTR08565500001000000000000000RA              99287998    005800660000006600000570000003NN  NNW 000                       N    
RDG08565500WATRL000000004K00000000000001228005602142015111035N000000000000N87       000280400K 10000000010000001207           
CUS0856550000108027403008         BLANCHARD CHARLES M 2139 LORRAINE AVE                       000N        CARE OF             
MTR08565500001000000000000000RA              35114684    005800670000006700000520000003NN  NNW 000                       N    
RDG08565500WATRL000000004K00000000000004915005702142015111038N000000000000N87       000030400K 10000000010000004884           
CUS0856550000108027404006         BLUNT TONYA         2143 LORRAINE AVE                       000N        CARE OF             
MTR08565500001000000000000000RA              10022110    005800680000006800000570000003NN  NNW 000                       N    
RDG08565500WATRL000000004K00000000000000188005802142015111041N000000000000N87       000030400K 10000000010000000165           
CUS0856550000108027405003         WEST CHARLES EDWARD 2145 LORRAINE AVE                       000N        CARE OF             
MTR08565500001000000000000000RA              23645708    005800690000006900000520000003NN  NNW 000                       N    
RDG08565500WATRL000000004K00000000000003653005902142015111044N000000000000N87       000030400K 10000000010000003653           
CUS0856550000108027406001         PASCHALL LOLA L     2147 LORRAINE AVE                       000N        CARE OF             
MTR08565500001000000000000000RA              01076793    005800700000007000000610000003NN  NNW 000                       N    
RDG08565500WATRL000000004K00000000000001370006002142015111047N000000000000N87       000030400K 10000000010000001357           
CUS0856550000108435347003         ABRAMS KAYODE       2149 LORRAINE AVE                       000N        CARE OF             
MTR08565500001000000000000000RA              75425036    005800710000007100000350000003NN  NNW 000                       N    
RDG08565500WATRL000000004K00000000000000192006102142015111051N000000000010N87       000040400K 10000000010000000175           
CUS0856550000108027407009         CANN TOWANDA C      2151 LORRAINE AVE                       000N        CARE OF             
MTR08565500001000000000000000RA              48591123    005800720000007200000520000003NN  NNW 000                       N    
RDG08565500WATRL000000004K00000000000002510006202142015111056N000000000000N87       000050400K 10000000010000002501           
CUS0856550000108027408007         DELPINO SHERRY LYNN 2153 LORRAINE AVE                       000N        CARE OF             
MTR08565500001000000000000000RA              23647585    005800730000007300000520000003NY  NNW 000                       N    
MTM0856550023647585    212X                                                                                                   
RDG08565500WATRL000000004K00000000000000000000000000000000000 000000000000U         000000400  10000000010000002121           
CUS0856550000108027409005         ATKINS HOWARD R     2157 LORRAINE AVE                       000N        CARE OF             
MTR08565500001000000000000000RA              30517421    005800740000007400000520000003NN  NNW 000                       N    
RDG08565500WATRL000000004K00000000000002723006302142015111120N000000000000N87       000240400K 10000000010000002723           
CUS0856550000108027410003         ONDRA DANIEL L      2159 LORRAINE AVE                       000N        CARE OF             
MTR08565500001000000000000000RA              11429233    005800750000007500000570000003NN  NNW 000                       N    
RDG08565500WATRL000000004K00000000000003330006402142015111141N000000000000N87       000210400K 10000000010000003316           
CUS0856550000108027411001         LYDAY DIANNE D      2161 LORRAINE AVE                       000N        CARE OF             
MTR08565500001000000000000000RA              99290554    005800760000007600000570000003NY  NNW 000                       N    
MTM0856550099290554    CANT LOCATE                                                                                            
RDG08565500WATRL000000004K00000000000000000000000000000000000 000000000000U         000000400  10000000010000001157           
CUS0856550000108027412009         LEE RICHARD ARNOLD  2163 LORRAINE AVE                       000N        CARE OF             
MTR08565500001000000000000000RA              31582859    005800770000007700000520000003NY  NNW 000                       N    
MTM0856550031582859    CANT LOCATE                                                                                            
RDG08565500WATRL000000004K00000000000000000000000000000000000 000000000000U         000000400  10000000010000003470           
CUS0856550000108027413007         CARTER RUFUS N      2165 LORRAINE AVE                       000N        CARE OF             
MTR08565500001000000000000000RA              46882607    005800780000007800000520000003NN  NNW 000                       N    
RDG08565500WATRL000000004K00000000000000592006502142015111209N000000000000N87       000280400K 10000000010000000590           
CUS0856550000108027414005         EADDY LATONYA       2166 LORRAINE AVE                       000N        CARE OF             
MTR08565500001000000000000000RA              33729700    005800790000007900000520000003NN  NNW 000                       N    
RDG08565500WATRL000000004K00000000000002125006602142015111212N000000000000N87       000030400K 10000000010000002110           
CUS0856550000108027415002         WARD DAMON L        2164 LORRAINE AVE                       000N        CARE OF             
MTR08565500001000000000000000RA              48593817    005800800000008000000520000003NN  NNW 000                       N    
RDG08565500WATRL000000004K00000000000002486006702142015111216N000000000000N87       000040400K 10000000010000002459           
CUS0856550000108027416000         TRAVERS SHAWN D     2162 LORRAINE AVE                       000N        CARE OF             
MTR08565500001000000000000000RA              48593819    005800810000008100000520000003NN  NNW 000                       N    
RDG08565500WATRL000000004K00000000000001830006802142015111222N000000000000N87       000060400K 10000000010000001808           
CUS0856550000108027417008         PRINCE DAVID        2160 LORRAINE AVE                       000N        CARE OF             
MTR08565500001000000000000000RA              26015772    005800820000008200000520000003NN  NNW 000                       N    
RDG08565500WATRL000000004K00000000000003031006902142015111224N000000000000N87       000020400K 10000000010000003019           
CUS0856550000108027418006         PATRICIA BIDDINGER  2158 LORRAINE AVE                       000N        CARE OF             
MTR08565500001000000000000000RA              27833368    005800830000008300000520000003NN  NNW 000                       N    
RDG08565500WATRL000000004K00000000000003577007002142015111228N000000000000N87       000040400K 10000000010000003561           
CUS0856550000108027419004         TIMONTHY ISRAEL &   2156 LORRAINE AVE                       000N        CARE OF             
MTR08565500001000000000000000RA              24765816    005800840000008400000520000003NN  NNW 000                       N    
RDG08565500WATRL000000004K00000000000004529007102142015111231N000000000000N87       000030400K 10000000010000004518           
CUS0856550000108027420002         HARRIS AUSTRALIA N  2154 LORRAINE AVE                       000N        CARE OF             
MTR08565500001000000000000000RA              99291277    005800850000008500000570000003NY  NNW 000                       N    
MTM0856550099291277    8013                                                                                                   
RDG08565500WATRL000000004K00000000000000000000000000000000000 000000000000U         000000400  10000000010000000809           
CUS0856550000108027421000         WASHINGTON IRVIN    2152 LORRAINE AVE                       000N        CARE OF             
MTR08565500001000000000000000RA              27132881    005800860000008600000520000003NN  NNW 000                       N    
RDG08565500WATRL000000004K00000000000002533007202142015111257N000000000000N87       000260400K 10000000010000002521           
CUS0856550000108415250003         DAVID WINCHESTER    2150 LORRAINE AVE                       000N        CARE OF             
MTR08565500001000000000000000RA              75616881    005800870000008700000350000003NN  NNW 000                       N    
RDG08565500WATRL000000004K00000000000000063007302142015111300N000000000000N87       000030400K 10000000010000000051           
CUS0856550000108027422008         JAMES ESPANA W      2148 LORRAINE AVE                       000N        CARE OF             
MTR08565500001000000000000000RA              50786219    005800880000008800000520000003NN  NNW 000                       N    
RDG08565500WATRL000000004K00000000000000806007402142015111302N000000000000N87       000020400K 10000000010000000799           
CUS0856550000108027423006         DELINCE STEVENS S   2144 LORRAINE AVE                       000N        CARE OF             
MTR08565500001000000000000000RA              27819987    005800890000008900000520000003NN  NNW 000                       N    
RDG08565500WATRL000000004K00000000000003171007502142015111306N000000000000N87       000040400K 10000000010000003166           
CUS0856550000108412459003         CAMARA CARMEN       2142 LORRAINE AVE                       000N        CARE OF             
MTR08565500001000000000000000RA              32178238    005800900000009000000520000003NN  NNW 000                       N    
RDG08565500WATRL000000004K00000000000003730007602142015111311N000000000000N87       000050400K 10000000010000003703           
CUS0856550000108027424004         TANZYMORE-ALLEN PAUL2140 LORRAINE AVE                       000N        CARE OF             
MTR08565500001000000000000000RA              75615775    005800910000009100000350000003NN  NNW 000                       N    
RDG08565500WATRL000000004K00000000000000143007702142015111314N000000000000N87       000030400K 10000000010000000118           
CUS0856550000108435837003         LAWRENCE JUNE H     2138 LORRAINE AVE                       000N        CARE OF             
MTR08565500001000000000000000RA              14902719    005800920000009200000310000000NN  NNW 000                       N    
RDG08565500WATRL000000004K00000000000000779007802142015111318N000000000000N87       000040400K 10000000010000000751           
CUS0856550000108027425001         STARKS JENNIFER L   2136 LORRAINE AVE                       000N        CARE OF             
MTR08565500001000000000000000RA              99290544    005800930000009300000570000003NN  NNW 000                       N    
RDG08565500WATRL000000004K00000000000001394007902142015111321N000000000000N87       000030400K 10000000010000001394           
CUS0856550000108027426009         BECKETT DAVID H     2134 LORRAINE AVE                       000N        CARE OF             
MTR08565500001000000000000000RA              27819977    005800940000009400000520000003NN  NNW 000                       N    
RDG08565500WATRL000000004K00000000000005614008002142015111323N000000000000N87       000020400K 10000000010000005556           
CUS0856550000108027427007         DOLL EILEEN T       2128 LORRAINE AVE                       000N        CARE OF             
MTR08565500001000000000000000RA              32177988    005800950000009500000520000003NN  NNW 000                       N    
RDG08565500WATRL000000004K00000000000002316008102142015111325N000000000000N87       000020400K 10000000010000002311           
CUS0856550000108027428005         MNSF BALTIMORE LLC  2126 LORRAINE AVE                       000N        CARE OF             
MTR08565500001000000000000000RA              01072035    005800960000009600000610000003NN  NNW 000                       N    
RDG08565500WATRL000000004K00000000000001185008202142015111327N000000000000N87       000020400K 10000000010000001165           
CUS0856550000108027429003         OGLESBY MARCELLUS   2124 LORRAINE AVE                       000N        CARE OF             
MTR08565500001000000000000000RA              27132809    005800970000009700000520000003NN  NNW 000                       N    
RDG08565500WATRL000000004K00000000000004501008302142015111332N000000000000N87       000050400K 10000000010000004491           
CUS0856550000108027430001         QUINN MICHAEL F     2122 LORRAINE AVE                       000N        CARE OF             
MTR08565500001000000000000000RA              01076797    005800980000009800000610000003NN  NNW 000                       N    
RDG08565500WATRL000000004K00000000000000917008402142015111336N000000000000N87       000040400K 10000000010000000903           
CUS0856550000108027431009         CAFFREY DOROTHY W/WI2120 LORRAINE AVE                       000N        CARE OF             
MTR08565500001000000000000000RA              32178857    005800990000009900000520000003NN  NNW 000                       N    
RDG08565500WATRL000000004K00000000000002759008502142015111341N000000000000N87       000050400K 10000000010000002745           
CUS0856550000108027432007         MOODY MICHAEL K     2118 LORRAINE AVE                       000N        CARE OF             
MTR08565500001000000000000000RA              29685806    005801000000010000000520000003NN  NNW 000                       N    
RDG08565500WATRL000000004K00000000000004450008602142015111346N000000000000N87       000050400K 10000000010000004450           
CUS0856550000108027433005         MATTHEWS BRYAN      2116 LORRAINE AVE                       000N        CARE OF             
MTR08565500001000000000000000RA              48582835    005801010000010100000520000003NY  NNW 000                       N    
MTM0856550048582835    3212                                                                                                   
RDG08565500WATRL000000004K00000000000003212008702142015111356N000300000010N87       000100400K 10000000010000002196           
CUS0856550000108027434003         BAC HOME LOANS LP   2112 LORRAINE AVE                       000N        CARE OF             
MTR08565500001000000000000000RA              75616274    005801020000010200000350000003NN  NNW 000                       N    
RDG08565500WATRL000000004K00000000000000000008802142015111404N000000000000N87       000080400K 10000000010000000000           
CUS0856550000108027435000         KARNER GARY M       2108 LORRAINE AVE                       000N        CARE OF             
MTR08565500001000000000000000RA              01102322    005801030000010300000610000003NN  NNW 000                       N    
RDG08565500WATRL000000004K00000000000001639008902142015111421N000000000000N87       000170400K 10000000010000001608           
CUS0856550000108027436008         LORRAINE-WINDSOR L L2106 LORRAINE AVE                       000N        CARE OF             
MTR08565500001000000000000000RA              01102354    005801040000010400000610000003NN  NNW 000                       N    
RDG08565500WATRL000000004K00000000000000254009002142015111424N000000000000N87       000030400K 10000000010000000235           
CUS0856550000108027437006         LORRAINE-WINDSOR LLC5800 WINDSOR MILL RD                    000N        CARE OF             
MTR08565500001000000000000000RA              22609294    005801050000010500000520000003NN  NNW 000                       N    
RDG08565500WATRL000000004K00000000000007169009102142015111428N000000000000N87       000040400K 10000000010000007143           
CUS0856550000108424557000         HEDGEPETH LINWOOD   2111 STREAMWAY CT                       000N        CARE OF             
MTR08565500001000000000000000RA              52286129    005801060000010600000520000003NN  NNW 000                       N    
RDG08565500WATRL000000004K00000000000001018009202142015111430N000000000000N87       000020400K 10000000010000001003           
CUS0856550000108424558008         HITE MICHELLE A     2113 STREAMWAY CT                       000N        CARE OF             
MTR08565500001000000000000000RA              99288756    005801070000010700000570000003NN  NNW 000                       N    
RDG08565500WATRL000000004K00000000000001828009302142015111433N000000000000N87       000030400K 10000000010000001793           
CUS0856550000108424559006         NEWBY MARTHA        2115 STREAMWAY CT                       000N        CARE OF             
MTR08565500001000000000000000RA              01076109    005801080000010800000610000003NN  NNW 000                       N    
RDG08565500WATRL000000004K00000000000001857009402142015111437N000000000000N87       000040400K 10000000010000001831           
CUS0856550000108424560004         SPARROW JOHN L      2117 STREAMWAY CT                       000N        CARE OF             
MTR08565500001000000000000000RA              99293612    005801090000010900000570000003NN  NNW 000                       N    
RDG08565500WATRL000000004K00000000000002393009502142015111440N000000000000N87       000030400K 10000000010000002340           
CUS0856550000108424561002         MATTHEWS KAREN R    2119 STREAMWAY CT                       000N        CARE OF             
MTR08565500001000000000000000RA              54352029    005801100000011000000520000003NN  NNW 000                       N    
RDG08565500WATRL000000004K00000000000000991009602142015111442N000000000000N87       000020400K 10000000010000000981           
CUS0856550000108424562000         BULL CRISZON        2121 STREAMWAY CT                       000N        CARE OF             
MTR08565500001000000000000000RA              99291276    005801110000011100000570000003NN  NNW 000                       N    
RDG08565500WATRL000000004K00000000000002767009702142015111446N000000000000N87       000040400K 10000000010000002757           
CUS0856550000108424563008         WILLIAMS VIJAY S    2123 STREAMWAY CT                       000N        CARE OF             
MTR08565500001000000000000000RA              99290542    005801120000011200000570000003NN  NNW 000                       N    
RDG08565500WATRL000000004K00000000000001579009802142015111449N000000000000N87       000030400K 10000000010000001567           
CUS0856550000108424564006         SALLEY TAMARA TAIESE2125 STREAMWAY CT                       000N        CARE OF             
MTR08565500001000000000000000RA              01076101    005801130000011300000610000003NN  NNW 000                       N    
RDG08565500WATRL000000004K00000000000001364009902142015111454N000000000000N87       000050400K 10000000010000001349           
CUS0856550000108424565003         JOHNSON LAVERNE B   2127 STREAMWAY CT                       000N        CARE OF             
MTR08565500001000000000000000RA              01084836    005801140000011400000610000003NN  NNW 000                       N    
RDG08565500WATRL000000004K00000000000001874010002142015111500N000000000000N87       000060400K 10000000010000001771           
CUS0856550000108424566001         TAYLOR-WILLIAMS ALIS2129 STREAMWAY CT                       000N        CARE OF             
MTR08565500001000000000000000RA              01074296    005801150000011500000610000003NN  NNW 000                       N    
RDG08565500WATRL000000004K00000000000001807010102142015111508N000000000000N87       000080400K 10000000010000001755           
CUS0856550000108424567009         SCOTT ROSA A        2131 STREAMWAY CT                       000N        CARE OF             
MTR08565500001000000000000000RA              99392305    005801160000011600000570000003NN  NNW 000                       N    
RDG08565500WATRL000000004K00000000000001551010202142015111511N000000000000N87       000030400K 10000000010000001528           
CUS0856550000108424568007         MURRY ROBERT E      2133 STREAMWAY CT                       000N        CARE OF             
MTR08565500001000000000000000RA              00128913    005801170000011700000570000003NN  NNW 000                       N    
RDG08565500WATRL000000004K00000000000000942010302142015111516N000000000000N87       000050400K 10000000010000000921           
CUS0856550000108424569005         COATES JEROME       2135 STREAMWAY CT                       000N        CARE OF             
MTR08565500001000000000000000RA              99290543    005801180000011800000570000003NN  NNW 000                       N    
RDG08565500WATRL000000004K00000000000001932010402142015111520N000000000000N87       000040400K 10000000010000001907           
CUS0856550000108424570003         OKOLUKU HUMPHREY C  2137 STREAMWAY CT                       000N        CARE OF             
MTR08565500001000000000000000RA              99293611    005801190000011900000570000003NN  NNW 000                       N    
RDG08565500WATRL000000004K00000000000001797010502142015111522N000000000000N87       000020400K 10000000010000001780           
CUS0856550000108424571001         WHEELER KEVIN R     2139 STREAMWAY CT                       000N        CARE OF             
MTR08565500001000000000000000RA              99388113    005801200000012000000570000003NN  NNW 000                       N    
RDG08565500WATRL000000004K00000000000002352010602142015111526N000000000000N87       000040400K 10000000010000002332           
CUS0856550000108424572009         REID DUBURNE        2141 STREAMWAY CT                       000N        CARE OF             
MTR08565500001000000000000000RA              99291273    005801210000012100000570000003NN  NNW 000                       N    
RDG08565500WATRL000000004K00000000000002213010702142015111530N000000000000N87       000040400K 10000000010000002186           
CUS0856550000108424573007         MITCHELL MAURICE,SR 2143 STREAMWAY CT                       000N        CARE OF             
MTR08565500001000000000000000RA              01076794    005801220000012200000610000003NN  NNW 000                       N    
RDG08565500WATRL000000004K00000000000002295010802142015111533N000000000000N87       000030400K 10000000010000002233           
CUS0856550000108424574005         BRISCOE ANTAWAN A   2145 STREAMWAY CT                       000N        CARE OF             
MTR08565500001000000000000000RA              99288438    005801230000012300000570000003NN  NNW 000                       N    
RDG08565500WATRL000000004K00000000000001661010902142015111535N000000000000N87       000020400K 10000000010000001648           
CUS0856550000108424575002         JENNINGS ARNOLD J   2147 STREAMWAY CT                       000N        CARE OF             
MTR08565500001000000000000000RA              99289397    005801240000012400000570000003NN  NNW 000                       N    
RDG08565500WATRL000000004K00000000000000922011002142015111539N000000000000N87       000040400K 10000000010000000914           
CUS0856550000108424576000         WYATT LAMARGE B     2149 STREAMWAY CT                       000N        CARE OF             
MTR08565500001000000000000000RA              99189578    005801250000012500000570000003NN  NNW 000                       N    
RDG08565500WATRL000000004K00000000000001067011102142015111541N000000000000N87       000020400K 10000000010000001055           
CUS0856550000108424577008         GORDON-CAHILL JACQUE2151 STREAMWAY CT                       000N        CARE OF             
MTR08565500001000000000000000RA              99293260    005801260000012600000570000003NN  NNW 000                       N    
RDG08565500WATRL000000004K00000000000000889011202142015111543N000000000000N87       000020400K 10000000010000000876           
CUS0856550000108424578006         BROWN MICHAEL       2153 STREAMWAY CT                       000N        CARE OF             
MTR08565500001000000000000000RA              99388109    005801270000012700000570000003NN  NNW 000                       N    
RDG08565500WATRL000000004K00000000000002137011302142015111546N000000000000N87       000030400K 10000000010000002118           
CUS0856550000108424579004         HOPKINS MICHAEL W   2155 STREAMWAY CT                       000N        CARE OF             
MTR08565500001000000000000000RA              54351981    005801280000012800000520000003NN  NNW 000                       N    
RDG08565500WATRL000000004K00000000000001801011402142015111549N000000000000N87       000030400K 10000000010000001780           
CUS0856550000108424580002         ROBINSON KIMBERLY R 2157 STREAMWAY CT                       000N        CARE OF             
MTR08565500001000000000000000RA              54352027    005801290000012900000520000003NN  NNW 000                       N    
RDG08565500WATRL000000004K00000000000001406011502142015111553N000000000000N87       000040400K 10000000010000001400           
CUS0856550000108424581000         FLETCHER FRANCIS E  2142 STREAMWAY CT                       000N        CARE OF             
MTR08565500001000000000000000RA              00136452    005801300000013000000570000003NN  NNW 000                       N    
RDG08565500WATRL000000004K00000000000002245011602142015111557N000000000000N87       000040400K 10000000010000002209           
CUS0856550000108424582008         GOUGH MARLENE N     2140 STREAMWAY CT                       000N        CARE OF             
MTR08565500001000000000000000RA              00136451    005801310000013100000570000003NN  NNW 000                       N    
RDG08565500WATRL000000004K00000000000000641011702142015111600N000000000000N87       000030400K 10000000010000000629           
CUS0856550000108424583006         NEWMAN CHANDLER F   2138 STREAMWAY CT                       000N        CARE OF             
MTR08565500001000000000000000RA              99392307    005801320000013200000570000003NN  NNW 000                       N    
RDG08565500WATRL000000004K00000000000001277011802142015111604N000000000000N87       000040400K 10000000010000001266           
CUS0856550000108424584004         CANNADY MURVYN T    2136 STREAMWAY CT                       000N        CARE OF             
MTR08565500001000000000000000RA              99392308    005801330000013300000570000003NN  NNW 000                       N    
RDG08565500WATRL000000004K00000000000001600011902142015111608N000000000000N87       000040400K 10000000010000001585           
CUS0856550000108424585001         BAROUD AHMED M      2134 STREAMWAY CT                       000N        CARE OF             
MTR08565500001000000000000000RA              00136453    005801340000013400000570000003NN  NNW 000                       N    
RDG08565500WATRL000000004K00000000000001271012002142015111610N000000000000N87       000020400K 10000000010000001249           
CUS0856550000108424586009         DUVALL MICHAEL      2132 STREAMWAY CT                       000N        CARE OF             
MTR08565500001000000000000000RA              00126468    005801350000013500000570000003NN  NNW 000                       N    
RDG08565500WATRL000000004K00000000000001429012102142015111613N000000000000N87       000030400K 10000000010000001393           
CUS0856550000108424587007         HOFF-BOSCHULTE YVETT2130 STREAMWAY CT                       000N        CARE OF             
MTR08565500001000000000000000RA              54351979    005801360000013600000520000003NN  NNW 000                       N    
RDG08565500WATRL000000004K00000000000001340012202142015111616N000000000000N87       000030400K 10000000010000001323           
CUS0856550000108424588005         ROBINSON LYNETTE    2128 STREAMWAY CT                       000N        CARE OF             
MTR08565500001000000000000000RA              01095791    005801370000013700000610000003NN  NNW 000                       N    
RDG08565500WATRL000000004K00000000000001280012302142015111618N000000000000N87       000020400K 10000000010000001266           
CUS0856550000108424589003         FORD VERONICA       2126 STREAMWAY CT                       000N        CARE OF             
MTR08565500001000000000000000RA              99388215    005801380000013800000570000003NN  NNW 000                       N    
RDG08565500WATRL000000004K00000000000001639012402142015111621N000000000000N87       000030400K 10000000010000001631           
CUS0856550000108424552001         WASHINGTON ISABELLA 4 GEMPP CT                              000N        CARE OF             
MTR08565500001000000000000000RA              99387583    005801390000013900000570000003NN  NNW 000                       N    
RDG08565500WATRL000000004K00000000000000790012502142015111624N000000000000N87       000030400K 10000000010000000785           
CUS0856550000108424554007         REED ELTRENTROSE L  8 GEMPP CT                              000N        CARE OF             
MTR08565500001000000000000000RA              99387589    005801400000014000000570000003NN  NNW 000                       N    
RDG08565500WATRL000000004K00000000000001682012602142015111627N000000000000N87       000030400K 10000000010000001658           
CUS0856550000108424553009         JACKSON VONZELLE A  6 GEMPP CT                              000N        CARE OF             
MTR08565500001000000000000000RA              01086616    005801410000014100000610000003NN  NNW 000                       N    
RDG08565500WATRL000000004K00000000000001104012702142015111629N000000000000N87       000020400K 10000000010000001085           
CUS0856550000108424555004         FULLARD MARY LOU    5 GEMPP CT                              000N        CARE OF             
MTR08565500001000000000000000RA              50477704    005801420000014200000520000003NN  NNW 000                       N    
RDG08565500WATRL000000004K00000000000001135012802142015111632N000000000000N87       000030400K 10000000010000001131           
CUS0856550000108424556002         MCARTHUR JAMES A    3 GEMPP CT                              000N        CARE OF             
MTR08565500001000000000000000RA              10012975    005801430000014300000570000003NN  NNW 000                       N    
RDG08565500WATRL000000004K00000000000000310012902142015111634N000000000000N87       000020400K 10000000010000000295           
CUS0856550000108424590001         SNOWDEN MARGO L     2124 STREAMWAY CT                       000N        CARE OF             
MTR08565500001000000000000000RA              01077141    005801440000014400000610000003NN  NNW 000                       N    
RDG08565500WATRL000000004K00000000000001201013002142015111636N000000000000N87       000020400K 10000000010000001188           
CUS0856550000108424591009         JONES SHEILA R      2122 STREAMWAY CT                       000N        CARE OF             
MTR08565500001000000000000000RA              99189580    005801450000014500000570000003NN  NNW 000                       N    
RDG08565500WATRL000000004K00000000000001851013102142015111704N000300000010N87       000280400K 10000000010000001802           
CUS0856550000108424592007         MELVIN NATHANIEL B  2120 STREAMWAY CT                       000N        CARE OF             
MTR08565500001000000000000000RA              00136449    005801460000014600000570000003NN  NNW 000                       N    
RDG08565500WATRL000000004K00000000000000894013202142015111710N000000000010N87       000060400K 10000000010000000878           
CUS0856550000108424593005         WILLIAMS CLIFTON L  2118 STREAMWAY CT                       000N        CARE OF             
MTR08565500001000000000000000RA              01079806    005801470000014700000610000003NN  NNW 000                       N    
RDG08565500WATRL000000004K00000000000001456013302142015111715N000000000000N87       000050400K 10000000010000001444           
CUS0856550000108424594003         BROWN JULIUS R      2116 STREAMWAY CT                       000N        CARE OF             
MTR08565500001000000000000000RA              52285830    005801480000014800000520000003NN  NNW 000                       N    
RDG08565500WATRL000000004K00000000000001636013402142015111718N000000000000N87       000030400K 10000000010000001636           
CUS0856550000108424595000         COLLINS LEONARD F   2112 STREAMWAY CT                       000N        CARE OF             
MTR08565500001000000000000000RA              99291170    005801490000014900000570000003NN  NNW 000                       N    
RDG08565500WATRL000000004K00000000000001626013502142015111722N000000000000N87       000040400K 10000000010000001607           
CUS0856550000108424596008         JOHNS ZENIA         2110 STREAMWAY CT                       000N        CARE OF             
MTR08565500001000000000000000RA              00138835    005801500000015000000570000003NN  NNW 000                       N    
RDG08565500WATRL000000004K00000000000001080013602142015111725N000000000000N87       000030400K 10000000010000001058           
CUS0856550000108437463006         SCOTT TAMARIA L     2108 STREAMWAY CT                       000N        CARE OF             
MTR08565500001000000000000000RA              14903072    005801510000015100000310000003NN  NNW 000                       N    
RDG08565500WATRL000000004K00000000000000323013702142015111728N000000000000N87       000030400K 10000000010000000307           
CUS0856550000108437454005         SALVERON BRIAN R    2106 STREAMWAY CT                       000N        CARE OF             
MTR08565500001000000000000000RA              14903073    005801520000015200000310000003NN  NNW 000                       N    
RDG08565500WATRL000000004K00000000000000731013802142015111736N000000000000N87       000080400K 10000000010000000713           
CUS0856550000108437462008         GOINS KENNETH J,SR  2104 STREAMWAY CT                       000N        CARE OF             
MTR08565500001000000000000000RA              14905979    005801530000015300000310000003NN  NNW 000                       N    
RDG08565500WATRL000000004K00000000000001101013902142015111746N000000000000N87       000100400K 10000000010000001084           
CUS0856550000108437461000         HAMPTON GEORGIANN E 2102 STREAMWAY CT                       000N        CARE OF             
MTR08565500001000000000000000RA              14905976    005801540000015400000310000003NN  NNW 000                       N    
RDG08565500WATRL000000004K00000000000001048014002142015111752N000400000010N87       000060400K 10000000010000001014           
CUS0856550000108437460002         JONES JOSEPH T,JR   2100 STREAMWAY CT                       000N        CARE OF             
MTR08565500001000000000000000RA              14903791    005801550000015500000310000003NN  NNW 000                       N    
RDG08565500WATRL000000004K00000000000001009014102142015111813N000000000000N87       000210400K 10000000010000000984           
CUS0856550000108437459004         DEGRAFFENREIDT DARLE2098 STREAMWAY CT                       000N        CARE OF             
MTR08565500001000000000000000RA              14903787    005801560000015600000310000003NN  NNW 000                       N    
RDG08565500WATRL000000004K00000000000001134014202142015111815N000000000000N87       000020400K 10000000010000001115           
CUS0856550000108437458006         HAYES KEITH E       2096 STREAMWAY CT                       000N        CARE OF             
MTR08565500001000000000000000RA              14903245    005801570000015700000310000003NN  NNW 000                       N    
RDG08565500WATRL000000004K00000000000000948014302142015111820N000000000000N87       000050400K 10000000010000000931           
CUS0856550000108437457008         JONES DERRICK P     2094 STREAMWAY CT                       000N        CARE OF             
MTR08565500001000000000000000RA              14903786    005801580000015800000310000003NN  NNW 000                       N    
RDG08565500WATRL000000004K00000000000002064014402142015111830N000000000000N87       000100400K 10000000010000002064           
CUS0856550000108027438004         LORRAINE PARK CEMETR5701 WINDSOR MILL RD                    000N        CARE OF             
MTR08565500001000000000000000RA              01105314    001501590000015900000610000003NN  NNW 000                       N    
RDG08565500WATRL000000005K00000000000027386014502142015111836N000000000000N87       000060500K 10000000010000026874           
CUS0856550000108027439002         COTTON ROBERT E     5613 WINDSOR MILL RD                    000N        CARE OF             
MTR08565500001000000000000000RA              27819974    005801600000016000000520000003NN  NNW 000                       N    
RDG08565500WATRL000000004K00000000000003787014602142015111840N000000000000N87       000040400K 10000000010000003764           
CUS0856550000108027440000         LANAHAN FRANK JOHN  5607 WINDSOR MILL RD                    000N        CARE OF             
MTR08565500001000000000000000RA              32902002    005801610000016100000520000003NN  NNW 000                       N    
RDG08565500WATRL000000004K00000000000003127014702142015111854N000000000000N87       000140400K 10000000010000003105           
CUS0856550000108027441008         ROSE JOHN W         5603 WINDSOR MILL RD                    000N        CARE OF             
MTR08565500001000000000000000RA              24220785    005801620000016200000520000003NN  NNW 000                       N    
RDG08565500WATRL000000004K00000000000004377014802142015111900N000000000010N87       000060400K 10000000010000004378           
CUS0856550000108027442006         ALEXIUS JAMES H     5601 WINDSOR MILL RD                    000N        CARE OF             
MTR08565500001000000000000000RA              24220780    005801630000016300000520000003NN  NNW 000                       N    
RDG08565500WATRL000000004K00000000000001810014902142015111907N000000000000N87       000070400K 10000000010000001810           
CUS0856550000108027443004         ENOKIAN THOMAS A    2010 PARK PL                            000N        CARE OF             
MTR08565500001000000000000000RA              41081774    005801640000016400000520000003NN  NNW 000                       N    
RDG08565500WATRL000000004K00000000000002343015002142015111911N000000000000N87       000040400K 10000000010000002319           
CUS0856550000108027444002         COOPER SHINDANA T   2006 PARK PL                            000N        CARE OF             
MTR08565500001000000000000000RA              26009994    005801650000016500000520000003NN  NNW 000                       N    
RDG08565500WATRL000000004K00000000000003065015102142015111914N000000000000N87       000030400K 10000000010000003065           
CUS0856550000108027445009         CAMPBELL LOREN S    2004 PARK PL                            000N        CARE OF             
MTR08565500001000000000000000RA              11427043    005801660000016600000570000003NN  NNW 000                       N    
RDG08565500WATRL000000004K00000000000003305015202142015111918N000000000000N87       000040400K 10000000010000003288           
CUS0856550000108410510005         WILLIAMS TERESA A   2002 PARK PL                            000N        CARE OF             
MTR08565500001000000000000000RA              45382523    005801670000016700000520000003NN  NNW 000                       N    
RDG08565500WATRL000000004K00000000000001747015302142015111927N000000000000N87       000090400K 10000000010000001734           
CUS0856550000108027446007         SAMPSON WILLIAM CRAI2000 PARK PL                            000N        CARE OF             
MTR08565500001000000000000000RA              24765819    005801680000016800000520000003NN  NNW 000                       N    
RDG08565500WATRL000000004K00000000000002386015402142015111934N000300000010N87       000070400K 10000000010000002379           
CUS0856550000108027447005         PRICE ROBERT C      1918 PARK PL                            000N        CARE OF             
MTR08565500001000000000000000RA              99388218    005801690000016900000570000003NN  NNW 000                       N    
RDG08565500WATRL000000004K00000000000000280015502142015111944N000100000010N87       000100400K 10000000010000000280           
CUS0856550000108027448003         SHEPARD TRACY       1916 PARK PL                            000N        CARE OF             
MTR08565500001000000000000000RA              38782377    005801700000017000000520000003NN  NNW 000                       N    
RDG08565500WATRL000000004K00000000000003366015602142015111953N000000000000N87       000090400K 10000000010000003327           
CUS0856550000108027449001         KONDO BEATRICE      1914 PARK PL                            000N        CARE OF             
MTR08565500001000000000000000RA              01077144    005801710000017100000610000003NN  NNW 000                       N    
RDG08565500WATRL000000004K00000000000001065015702142015111956N000000000000N87       000030400K 10000000010000001050           
CUS0856550000108027450009         BAILEY-HARRISON RAQU1912 PARK PL                            000N        CARE OF             
MTR08565500001000000000000000RA              31583059    005801720000017200000520000003NN  NNW 000                       N    
RDG08565500WATRL000000004K00000000000004079015802142015112000N000000000000N87       000040400K 10000000010000004060           
CUS0856550000108027451007         PUGH RONALD         1910 PARK PL                            000N        CARE OF             
MTR08565500001000000000000000RA              27132880    005801730000017300000520000003NN  NNW 000                       N    
RDG08565500WATRL000000004K00000000000002711015902142015112003N000000000000N87       000030400K 10000000010000002704           
CUS0856550000108027452005         STEEN CHARLES A     1906 PARK PL                            000N        CARE OF             
MTR08565500001000000000000000RA              21194440    005801740000017400000520000003NN  NNW 000                       N    
RDG08565500WATRL000000004K00000000000002709016002142015112029N000300000010N87       000260400K 10000000010000004686           
CUS0856550000108027453003         UVEGES JAMES M      1903 PARK PL                            000N        CARE OF             
MTR08565500001000000000000000RA              27817722    005801750000017500000520000003NN  NNW 000                       N    
RDG08565500WATRL000000004K00000000000003274016102142015112037N000400000010N87       000080400K 10000000010000003269           
CUS0856550000108027454001         NATIONAL CENTER ON I5505 W NORTH AVE                        000N        CARE OF             
MTR08565500001000000000000000RA              01074786    005801760000017600000610000003NN  NNW 000                       N    
RDG08565500WATRL000000004K00000000000001022016202142015112041N000000000000N87       000040400K 10000000010000001002           
CUS0856550000108027455008         SCHWARTZ PAULINE    5503 W NORTH AVE                        000N        CARE OF             
MTR08565500001000000000000000RA              01074787    005801770000017700000610000003NN  NNW 000                       N    
RDG08565500WATRL000000004K00000000000000391016302142015112058N000000000000N87       000170400K 10000000010000000373           
CUS0856550000108027456006         KELLER PATRICIA     5501 W NORTH AVE                        000N        CARE OF             
MTR08565500001000000000000000RA              14902763    005801780000017800000310000003NN  NNW 000                       N    
RDG08565500WATRL000000004K00000000000000700016402142015112104N000000000000N87       000060400K 10000000010000000670           
CUS0856550000108385929008         DORETTA FOWLER      5501-A NORTH AVE                        000N        CARE OF             
MTR08565500001000000000000000RA              01074780    005801790000017900000610000003NN  NNW 000                       N    
RDG08565500WATRL000000004K00000000000001139016502142015112108N000000000000N87       000040400K 10000000010000001121           
CUS0856550000108027457004         JOYNER SABRINA DENIS5500 W NORTH AVE                        000N        CARE OF             
MTR08565500001000000000000000RA              10004638    005801800000018000000570000003NN  NNW 000                       N    
RDG08565500WATRL000000004K00000000000000502016602142015112113N000000000000N87       000050400K 10000000010000000485           
CUS0856550000108027458002         CROSBY LARRY L      5502 W NORTH AVE                        000N        CARE OF             
MTR08565500001000000000000000RA              99290123    005801810000018100000570000003NN  NNW 000                       N    
RDG08565500WATRL000000004K00000000000001033016702142015112116N000000000000N87       000030400K 10000000010000001012           
CUS0856550000108027459000         SABB MOSES L        5504 W NORTH AVE                        000N        CARE OF             
MTR08565500001000000000000000RA              14903085    005801820000018200000310000003NN  NNW 000                       N    
RDG08565500WATRL000000004K00000000000001444016802142015112119N000000000000N87       000030400K 10000000010000001444           
CUS0856550000108027460008         LAOU FRIEDERIKI     5506 W NORTH AVE                        000N        CARE OF             
MTR08565500001000000000000000RA              46881775    005801830000018300000520000003NN  NNW 000                       N    
RDG08565500WATRL000000004K00000000000001491016902142015112126N000300000010N87       000070400K 10000000010000001479           
CUS0856550000108027461006         GLORIA K MARCUS     5508 W NORTH AVE                        000N        CARE OF             
MTR08565500001000000000000000RA              41082718    005801840000018400000520000003NN  NNW 000                       N    
RDG08565500WATRL000000004K00000000000002753017002142015112131N000000000000N87       000050400K 10000000010000002747           
CUS0856550000108027462004         CLARICE C BOWEN     5524 W NORTH AVE                        000N        CARE OF             
MTR08565500001000000000000000RA              01074782    005801850000018500000610000003NN  NNW 000                       N    
RDG08565500WATRL000000004K00000000000000491017102142015112135N000000000000N87       000040400K 10000000010000000491           
CUS0856550000108027464000         SHERI D HENDERSON   5537 CLIFTON AVE                        000N        CARE OF             
MTR08565500001000000000000000RA              01074783    005801860000018600000610000003NN  NNW 000                       N    
RDG08565500WATRL000000004K00000000000000984017202142015112144N000000000000N87       000090400K 10000000010000000968           
CUS0856550000108027465007         AVERY CALVIN V      5535 CLIFTON AVE                        000N        CARE OF             
MTR08565500001000000000000000RA              99187068    005801870000018700000570000003NN  NNW 000                       N    
RDG08565500WATRL000000004K00000000000002577017302142015112147N000000000000N87       000030400K 10000000010000002546           
CUS0856550000108027466005         GROVE JOYCE ELAINE  5533 CLIFTON AVE                        000N        CARE OF             
MTR08565500001000000000000000RA              44092580    005801880000018800000520000003NY  NNW 000                       N    
MTM0856550044092580    CAR                                                                                                    
RDG08565500WATRL000000004K00000000000000000000000000000000000 000000000000U         000000400  10000000010000001474           
CUS0856550000108027467003         BANK OF AMERICA     5531 CLIFTON AVE                        000N        CARE OF             
MTR08565500001000000000000000RA              10020919    005801890000018900000570000003NN  NNW 000                       N    
RDG08565500WATRL000000004K00000000000000090017402142015112200N000100000010N87       000130400K 10000000010000000090           
CUS0856550000108027468001         BUCHANAN RONALD LAWR5529 CLIFTON AVE                        000N        CARE OF             
MTR08565500001000000000000000RA              32902122    005801900000019000000520000003NN  NNW 000                       N    
RDG08565500WATRL000000004K00000000000002030017502142015112206N000000000000N87       000060400K 10000000010000002027           
CUS0856550000108027469009         ARAUWOU JOYCE A     5527 CLIFTON AVE                        000N        CARE OF             
MTR08565500001000000000000000RA              76345309    005801910000019100000350000003NN  NNW 000                       N    
RDG08565500WATRL000000004K00000000000009999017602142015112216N000000000010N87       000100400K 10000000010000000000           
CUS0856550000108027470007         BLAND CELESTE M     5525 CLIFTON AVE                        000N        CARE OF             
MTR08565500001000000000000000RA              27831760    005801920000019200000520000003NN  NNW 000                       N    
RDG08565500WATRL000000004K00000000000003703017702142015112226N000000000000N87       000100400K 10000000010000003689           
CUS0856550000108027471005         COOPER BARRY D      5521 CLIFTON AVE                        000N        CARE OF             
MTR08565500001000000000000000RA              10012343    005801930000019300000570000003NN  NNW 000                       N    
RDG08565500WATRL000000004K00000000000000099017802142015112235N000000000010N87       000090400K 10000000010000000098           
CUS0856550000108027472003         BHAROSE CASSANDRA A 5519 CLIFTON AVE                        000N        CARE OF             
MTR08565500001000000000000000RA              26015860    005801940000019400000520000003NN  NNW 000                       N    
RDG08565500WATRL000000004K00000000000003674017902142015112242N000000000000N87       000070400K 10000000010000003642           
CUS0856550000108027473001         WILLIAMS MICHAEL T  5517 CLIFTON AVE                        000N        CARE OF             
MTR08565500001000000000000000RA              44093475    005801950000019500000520000003NN  NNW 000                       N    
RDG08565500WATRL000000004K00000000000003928018002142015112245N000000000000N87       000030400K 10000000010000003928           
CUS0856550000108027474009         LEHR ALVIN A        5502 CLIFTON AVE                        000N        CARE OF             
MTR08565500001000000000000000RA              52286323    005801960000019600000520000003NN  NNW 000                       N    
RDG08565500WATRL000000004K00000000000000706018102142015112248N000000000000N87       000030400K 10000000010000000697           
CUS0856550000108027475006         STEVENS GLORIA      5504 CLIFTON AVE                        000N        CARE OF             
MTR08565500001000000000000000RA              52286319    005801970000019700000520000003NN  NNW 000                       N    
RDG08565500WATRL000000004K00000000000000432018202142015112251N000000000000N87       000030400K 10000000010000000428           
CUS0856550000108027476004         STEVENSON DUDLEY H  5506 CLIFTON AVE                        000N        CARE OF             
MTR08565500001000000000000000RA              99291653    005801980000019800000570000003NN  NNW 000                       N    
RDG08565500WATRL000000004K00000000000000878018302142015112302N000000000000N87       000110400K 10000000010000000868           
CUS0856550000108027477002         HAMNER SAMUEL G,3RD 5520 CLIFTON AVE                        000N        CARE OF             
MTR08565500001000000000000000RA              99291669    005801990000019900000570000003NN  NNW 000                       N    
RDG08565500WATRL000000004K00000000000000980018402142015112304N000000000000N87       000020400K 10000000010000000968           
CUS0856550000108027478000         WEAVER KAREN LYNN   5522 CLIFTON AVE                        000N        CARE OF             
MTR08565500001000000000000000RA              46881778    005802000000020000000520000003NN  NNW 000                       N    
RDG08565500WATRL000000004K00000000000002104018502142015112309N000000000000N87       000050400K 10000000010000002087           
CUS0856550000108027479008         KING WILLIE E       5524 CLIFTON AVE                        000N        CARE OF             
MTR08565500001000000000000000RA              35106426    005802010000020100000520000003NN  NNW 000                       N    
RDG08565500WATRL000000004K00000000000003800018602142015112312N000000000000N87       000030400K 10000000010000003781           
CUS0856550000108027480006         COBB WILLIE L,JR    5528 CLIFTON AVE                        000N        CARE OF             
MTR08565500001000000000000000RA              01074781    005802020000020200000610000003NN  NNW 000                       N    
RDG08565500WATRL000000004K00000000000000540018702142015112315N000000000000N87       000030400K 10000000010000000531           
CUS0856550000108027481004         WILLIAMS WALDO LOUIS5530 CLIFTON AVE                        000N        CARE OF             
MTR08565500001000000000000000RA              01077143    005802030000020300000610000003NN  NNW 000                       N    
RDG08565500WATRL000000004K00000000000001159018802142015112318N000000000000N87       000030400K 10000000010000001145           
CUS0856550000108027482002         DOBBINS AARON Z     5532 CLIFTON AVE                        000N        CARE OF             
MTR08565500001000000000000000RA              24766524    005802040000020400000520000003NN  NNW 000                       N    
RDG08565500WATRL000000004K00000000000004190018902142015112323N000000000000N87       000050400K 10000000010000004172           
CUS0856550000108027483000         TAYLOR REGINA D     5534 CLIFTON AVE                        000N        CARE OF             
MTR08565500001000000000000000RA              25781026    005802050000020500000520000003NN  NNW 000                       N    
RDG08565500WATRL000000004K00000000000001316019002142015112325N000000000000N87       000020400K 10000000010000001312           
CUS0856550000108027484008         GEREMEW BENYAM      5536 CLIFTON AVE                        000N        CARE OF             
MTR08565500001000000000000000RA              27819975    005802060000020600000520000003NN  NNW 000                       N    
RDG08565500WATRL000000004K00000000000002515019102142015112329N000000000000N87       000040400K 10000000010000002493           
CUS0856550000108027485005         JENKINS REALTY CO IN5537 HUTTON AVE                         000N        CARE OF             
MTR08565500001000000000000000RA              44172017    005802070000020700000520000003NN  NNW 000                       N    
RDG08565500WATRL000000004K00000000000001794019202142015112332N000000000000N87       000030400K 10000000010000001779           
CUS0856550000108027486003         REED BARBARA        5535 HUTTON AVE                         000N        CARE OF             
MTR08565500001000000000000000RA              32178545    005802080000020800000520000003NN  NNW 000                       N    
RDG08565500WATRL000000004K00000000000001504019302142015112334N000000000000N87       000020400K 10000000010000001497           
CUS0856550000108027487001         REDDINGER MAURICE M 5533 HUTTON AVE                         000N        CARE OF             
MTR08565500001000000000000000RA              32178860    005802090000020900000520000003NN  NNW 000                       N    
RDG08565500WATRL000000004K00000000000002086019402142015112343N000000000000N87       000090400K 10000000010000002080           
CUS0856550000108027488009         MCGRAW MILTON       5531 HUTTON AVE                         000N        CARE OF             
MTR08565500001000000000000000RA              01074785    005802100000021000000610000003NN  NNW 000                       N    
RDG08565500WATRL000000004K00000000000001354019502142015112346N000000000000N87       000030400K 10000000010000001330           
CUS0856550000108027489007         VICKI CARTER-BAY    5523 HUTTON AVE                         000N        CARE OF             
MTR08565500001000000000000000RA              41258733    005802110000021100000520000003NN  NNW 000                       N    
RDG08565500WATRL000000004K00000000000002148019602142015112353N000400000010N87       000070400K 10000000010000002134           
CUS0856550000108378384005         CHIN NEALE PHELISIA 5525 HUTTON AVE                         000N        CARE OF             
MTR08565500001000000000000000RA              33078164    005802120000021200000520000003NN  NNW 000                       N    
RDG08565500WATRL000000004K00000000000002670019702142015112400N000000000000N87       000070400K 10000000010000002657           
CUS0856550000108378385002         SIMMS MASON G       5527 HUTTON AVE                         000N        CARE OF             
MTR08565500001000000000000000RA              01074406    005802130000021300000610000003NN  NNW 000                       N    
RDG08565500WATRL000000004K00000000000001126019802142015112402N000000000000N87       000020400K 10000000010000001111           
CUS0856550000108027490005         TAYLOR LINDA        5521 HUTTON AVE                         000N        CARE OF             
MTR08565500001000000000000000RA              75616014    005802140000021400000350000003NN  NNW 000                       N    
RDG08565500WATRL000000004K00000000000000043019902142015112405N000000000000N87       000030400K 10000000010000000025           
CUS0856550000108027491003         ADESALU BERLETTE    5519 HUTTON AVE                         000N        CARE OF             
MTR08565500001000000000000000RA              35114677    005802150000021500000520000003NN  NNW 000                       N    
RDG08565500WATRL000000004K00000000000003440020002142015112410N000300000010N87       000050400K 10000000010000003389           
CUS0856550000108422570005         GRIMES STACEY A     5519A HUTTON AVE                        000N        CARE OF             
MTR08565500001000000000000000RA              50788423    005802160000021600000520000003NN  NNW 000                       N    
RDG08565500WATRL000000004K00000000000001823020102142015112421N000000000000N87       000110400K 10000000010000001797           
CUS0856550000108027492001         BROWN MELVIN A      5517 HUTTON AVE                         000N        CARE OF             
MTR08565500001000000000000000RA              11336123    005802170000021700000570000003NN  NNW 000                       N    
RDG08565500WATRL000000004K00000000000003652020202142015112423N000000000000N87       000020400K 10000000010000003638           
CUS0856550000108027493009         AVILES-ORTA BERNARDO5515 HUTTON AVE                         000N        CARE OF             
MTR08565500001000000000000000RA              99290152    005802180000021800000570000003NN  NNW 000                       N    
RDG08565500WATRL000000004K00000000000001599020302142015112428N000000000000N87       000050400K 10000000010000001599           
CUS0856550000108027494007         JOHNSON ERICA       5513 HUTTON AVE                         000N        CARE OF             
MTR08565500001000000000000000RA              44172452    005802190000021900000520000003NN  NNW 000                       N    
RDG08565500WATRL000000004K00000000000001489020402142015112431N000000000000N87       000030400K 10000000010000001461           
CUS0856550000108027495004         HOLLEY TIFFANY V    5511 HUTTON AVE                         000N        CARE OF             
MTR08565500001000000000000000RA              14911435    005802200000022000000310000003NN  NNW 000                       N    
RDG08565500WATRL000000004K00000000000000923020502142015112441N000000000000N87       000100400K 10000000010000000870           
CUS0856550000108027496002         ALLEN R PRICE       2001 HUTTON PL                          000N        CARE OF             
MTR08565500001000000000000000RA              01074784    005802210000022100000610000003NN  NNW 000                       N    
RDG08565500WATRL000000004K00000000000000671020602142015112446N000000000000N87       000050400K 10000000010000000670           
CUS0856550000108027497000         SINGLETON FELIX JAME2003 HUTTON PL                          000N        CARE OF             
MTR08565500001000000000000000RA              99388034    005802220000022200000570000003NN  NNW 000                       N    
RDG08565500WATRL000000004K00000000000000864020702142015112449N000000000000N87       000030400K 10000000010000000788           
RTR08565500NN02220222000002220000000002220222000020NY022202220222001500000000000000000000000002    02022015NY020000 N         
RHD08571000NN02200220000002200000000002200220000172NY022002200220000000000000000000000000000002    02102015NY020000 N         
CUS0857100000108028070004         GWYNN OAK LLC       2105 GWYNN OAK AVE                      000N        CARE OF             
MTR08571000001000000000000000RA              01116168    005800010000000100000610000003NN  NNW 000                       N    
RDG08571000WATRL000000004K00000000000004561000102132015095238N000000000000N84       000000400K 10000000010000004561           
CUS0857100000108028071002         SIMMONS HUBERT V    2105-1/2 GWYNN OAK AVE                  000N        CARE OF             
MTR08571000001000000000000000RA              01077808    005800020000000200000610000003NN  NNW 000                       N    
RDG08571000WATRL000000004K00000000000000767000202132015095250N000000000000N84       000120400K 10000000010000000755           
CUS0857100000108028072000         SCHMITZ JOSEPH W,JR 2109-1/2 GWYNN OAK AVE                  000N        CARE OF             
MTR08571000001000000000000000RA              01112127    005800030000000300000610000003NN  NNW 000                       N    
RDG08571000WATRL000000004K00000000000000136000502132015095351N000300000010N84       000280400K 10000000010000000435           
CUS0857100000108028073008         SCHMITZ JOSEPH W,JR 2107 GWYNN OAK AVE                      000N        CARE OF             
MTR08571000001000000000000000RA              01112116    005800040000000400000610000003NN  NNW 000                       N    
RDG08571000WATRL000000004K00000000000001099000302132015095306N000000000000N84       000160400K 10000000010000001080           
CUS0857100000108028074006         SCHMITZ JOSEPH W,JR 2109 GWYNN OAK AVE                      000N        CARE OF             
MTR08571000001000000000000000RA              10002469    005800050000000500000570000003NN  NNW 000                       N    
RDG08571000WATRL000000004K00000000000000665000402132015095323N000400000010N84       000170400K 10000000010000000660           
CUS0857100000108028075003         MONAGHAN DARLENE GER2111 GWYNN OAK AVE                      000N        CARE OF             
MTR08571000001000000000000000RA              9595394     005800060000000600000570000003NN  NNW 000   VACANT / LOT        N    
RDG08571000WATRL000000004K00000000000004398000602132015095356N000000000000N84       000050400K 10000000010000004398           
CUS0857100000108028076001         SCHMITZ JOSEPH W,JR 2113 GWYNN OAK AVE                      000N        CARE OF             
MTR08571000001000000000000000RA              23057264    005800070000000700000520000003NN  NNW 000                       N    
RDG08571000WATRL000000004K00000000000004009000702132015095421N000000000000N84       000250400K 10000000010000004002           
CUS0857100000108028077009         JANJUA RIAZ         2115 GWYNN OAK AVE                      000N        CARE OF             
MTR08571000001000000000000000RA              46882571    005800080000000800000520000003NN  NNW 000                       N    
RDG08571000WATRL000000004K00000000000006401000802132015095455N000000000000N84       000340400K 10000000010000006399           
CUS0857100000108028078007         WADDY JAMES,JR      2117 GWYNN OAK AVE                      000N        CARE OF             
MTR08571000001000000000000000RA              33077877    005800090000000900000520000003NN  NNW 000                       N    
RDG08571000WATRL000000004K00000000000001539000902132015095458N000000000000N84       000030400K 10000000010000001537           
CUS0857100000108028079005         ST LUKES M E CHURCH 2119 GWYNN OAK AVE                      000N        CARE OF             
MTR08571000001000000000000000RA              9688594     005800100000001000000570000003NN  NNW 000                       N    
RDG08571000WATRL000000004K00000000000008660001002132015095542N000000000000N84       000440400K 10000000010000008660           
CUS0857100000108028080003         MON-JAN ASSOCIATES L2121 GWYNN OAK AVE                      000N        CARE OF             
MTR08571000001000000000000000RA              41193084    007500110000001100000520000003NN  NNW 000                       N    
RDG08571000WATRL000000004K00000000000006924001102132015095617N000000000000N84       000350400K 10000000010000006924           
CUS0857100000108028081001         MON-JAN ASSOCIATES L2123 GWYNN OAK AVE                      000N        CARE OF             
MTR08571000001000000000000000RA              99999999    005800120000001200000620000003NN  NNW 000                       N    
RDG08571000WATRL000000004K00000000000000070001202132015095620N000000000000N84       000030400K 10000000010000000070           
CUS0857100000108028082009         RUSSELL TAMIKO      2125 GWYNN OAK AVE                      000N        CARE OF             
MTR08571000001000000000000000RA              76346174    005800130000001300000350000003NN  NNW 000                       N    
RDG08571000WATRL000000004K00000000000000227001302132015095703N000400000010N84       000430400K 10000000010000000184           
CUS0857100000108028084005         H & G HARRISON LLC  2133 GWYNN OAK AVE                      000N        CARE OF             
MTR08571000001000000000000000RA              78005323    005800140000001400000350000003NN  NNW 000                       N    
RDG08571000WATRL000000004K00000000000000056001402132015095801N000300000010N84       000580400K 10000000010000000011           
CUS0857100000108028085002         OBRIECHT WILLIAM L  2137 GWYNN OAK AVE                      000N        CARE OF             
MTR08571000001000000000000000RA              32178597    005800150000001500000520000003NN  NNW 000                       N    
RDG08571000WATRL000000004K00000000000003293001502132015095933N000000000000N84       000920400K 10000000010000003273           
CUS0857100000108028086000         ADEGBENRO GRACE     2 GWYNN LAKE DR                         000N        CARE OF             
MTR08571000001000000000000000RA              01070648    005800160000001600000610000003NN  NNW 000                       N    
RDG08571000WATRL000000004K00000000000001347001602132015100044N000000000000N84       000710400K 10000000010000001325           
CUS0857100000108028087008         JOHNSON ULYSSES J,JR4 SUMMERFIELD RD                        000N        CARE OF             
MTR08571000001000000000000000RA              32178861    005800170000001700000520000003NN  NNW 000                       N    
RDG08571000WATRL000000004K00000000000003475001702132015100125N000000000000N84       000410400K 10000000010000003475           
CUS0857100000108028088006         BOYD JOSEPH         6 SUMMERFIELD RD                        000N        CARE OF             
MTR08571000001000000000000000RA              50789087    005800180000001800000520000003NN  NNW 000                       N    
RDG08571000WATRL000000004K00000000000001321001802132015100141N000000000000N84       000160400K 10000000010000001315           
CUS0857100000108028089004         TENNESSEE DEBBRA E  8 SUMMERFIELD RD                        000N        CARE OF             
MTR08571000001000000000000000RA              41257275    005800190000001900000520000003NN  NNW 000                       N    
RDG08571000WATRL000000004K00000000000003834001902132015100206N000000000000N84       000250400K 10000000010000003814           
CUS0857100000108028090002         PRICE MICHAEL A     10 SUMMERFIELD RD                       000N        CARE OF             
MTR08571000001000000000000000RA              32178830    005800200000002000000520000003NN  NNW 000                       N    
RDG08571000WATRL000000004K00000000000003430002002132015100247N000000000000N84       000410400K 10000000010000003400           
CUS0857100000108028091000         US BANK N A,TRUSTEE 12 SUMMERFIELD RD                       000N        CARE OF             
MTR08571000001000000000000000RA              14925052    005800210000002100000310000003NN  NNW 000                       N    
RDG08571000WATRL000000004K00000000000000597002102132015100323N000300000010N84       000360400K 10000000010000000585           
CUS0857100000108028092008         CULOTTA RUSSELL A   14 SUMMERFIELD RD                       000N        CARE OF             
MTR08571000001000000000000000RA              10010698    005800220000002200000570000003NN  NNW 000                       N    
RDG08571000WATRL000000004K00000000000000302002202132015100345N000000000000N84       000220400K 10000000010000000283           
CUS0857100000108028093006         FRANS ABDUL-MALIK   16 SUMMERFIELD RD                       000N        CARE OF             
MTR08571000001000000000000000RA              75424180    005800230000002300000350000003NN  NNW 000                       N    
RDG08571000WATRL000000004K00000000000000180002302132015100406N000000000000N84       000210400K 10000000010000000159           
CUS0857100000108028094004         ANORUO GODSON C     18 SUMMERFIELD RD                       000N        CARE OF             
MTR08571000001000000000000000RA              24758716    005800240000002400000520000003NN  NNW 000                       N    
RDG08571000WATRL000000004K00000000000004656002402132015100437N000000000000N84       000310400K 10000000010000004623           
CUS0857100000108028095001         MOLANO MOLANO       20 SUMMERFIELD RD                       000N        CARE OF             
MTR08571000001000000000000000RA              39290940    005800250000002500000520000003NN  NNW 000                       N    
RDG08571000WATRL000000004K00000000000001812002502132015100458N000000000000N84       000210400K 10000000010000001796           
CUS0857100000108028096009         BROWN ADA           22 SUMMERFIELD RD                       000N        CARE OF             
MTR08571000001000000000000000RA              46887251    005800260000002600000520000003NN  NNW 000                       N    
RDG08571000WATRL000000004K00000000000001300002602132015100535N000000000000N84       000370400K 10000000010000001291           
CUS0857100000108028097007         ROWE PERRY          24 SUMMERFIELD RD                       000N        CARE OF             
MTR08571000001000000000000000RA              54348337    005800270000002700000520000003NN  NNW 000                       N    
RDG08571000WATRL000000004K00000000000002065002702132015100601N000000000000N84       000260400K 10000000010000002048           
CUS0857100000108028098005         MEARITE ELISE J     26 SUMMERFIELD RD                       000N        CARE OF             
MTR08571000001000000000000000RA              29084455    005800280000002800000520000003NN  NNW 000                       N    
RDG08571000WATRL000000004K00000000000003168002802132015100616N000000000000N84       000150400K 10000000010000003154           
CUS0857100000108028099003         VACHE ANDREW J      28 SUMMERFIELD RD                       000N        CARE OF             
MTR08571000001000000000000000RA              41257274    005800290000002900000520000003NN  NNW 000                       N    
RDG08571000WATRL000000004K00000000000002686002902132015100649N000000000000N84       000330400K 10000000010000002675           
CUS0857100000108028100009         MNSF BALTIMORE LLC  30 SUMMERFIELD RD                       000N        CARE OF             
MTR08571000001000000000000000RA              01077806    005800300000003000000610000003NN  NNW 000                       N    
RDG08571000WATRL000000004K00000000000001123003002132015100706N000000000000N84       000170400K 10000000010000001108           
CUS0857100000108028101007         FORDE-OWENS JEWEL A 32 SUMMERFIELD RD                       000N        CARE OF             
MTR08571000001000000000000000RA              14913423    005800310000003100000310000003NN  NNW 000                       N    
RDG08571000WATRL000000004K00000000000000525003102132015100722N000000000000N84       000160400K 10000000010000000515           
CUS0857100000108028102005         HOLMES DEREK L,SR   34 SUMMERFIELD RD                       000N        CARE OF             
MTR08571000001000000000000000RA              31936105    005800320000003200000520000003NN  NNW 000                       N    
RDG08571000WATRL000000004K00000000000003220003202132015100742N000000000000N84       000200400K 10000000010000003206           
CUS0857100000108028103003         OLADEJO OLASUNKANMI 36 SUMMERFIELD RD                       000N        CARE OF             
MTR08571000001000000000000000RA              24757485    005800330000003300000520000003NN  NNW 000                       N    
RDG08571000WATRL000000004K00000000000003958003302132015100807N000000000000N84       000250400K 10000000010000003919           
CUS0857100000108028104001         CONNELLY WILLIAM JOH38 SUMMERFIELD RD                       000N        CARE OF             
MTR08571000001000000000000000RA              32178828    005800340000003400000520000003NN  NNW 000                       N    
