FHDNNNN027005229005229005315N                                                                                           016061
RHD02180000NN01550155000001550000000001550155000252NY015501550155001500000000000000000000000001    01282015NY020000 N         
CUS0218000000102321428001         DENNIS MCGILL       4 ELMHURST RD                           000N        CARE OF             
MTR02180000001000000000000000RA              00163821    000100010000000100000570000003NN  NNW 000                       N    
RDG02180000WATRL000000004K00000000000002959000102112015104915N000000000000N23       000000400K 10000000010000002873           
CUS0218000000102321429009         LIANG, HORACE K.    6 ELMHURST RD                           000N        CARE OF             
MTR02180000001000000000000000RA              24625352    007500020000000200000520000003NN  NNW 000                       N    
RDG02180000WATRL000000004K00000000000004121000202112015105336N000000000000N23       002610400K 10000000010000004088           
CUS0218000000102321430007         GOLDSTEIN, JASON N. 8 ELMHURST RD                           000N        CARE OF             
MTR02180000001000000000000000RA              39291244    005800030000000300000520000003NN  NNW 000                       N    
RDG02180000WATRL000000004K00000000000002346000302112015105426N000400000010N23       000500400K 10000000010000002342           
CUS0218000000102321431005         LEUKHARDT, JILL L   301 CLUB RD                             000N        CARE OF             
MTR02180000001000000000000000RA              39291246    005800040000000400000520000003NN  NNW 000                       N    
RDG02180000WATRL000000004K00000000000003134000402112015105501N000000000000N23       000350400K 10000000010000003123           
CUS0218000000102321432003         SMITH, MICHAEL D    303 CLUB RD                             000N        CARE OF             
MTR02180000001000000000000000RA              33736581    007500050000000500000520000003NN  NNW 000                       N    
RDG02180000WATRL000000004K00000000000004863000502112015105646N000000000000N23       001050400K 10000000010000004851           
CUS0218000000102321433001         WOLF, CYNTHIA J     302 CLUB RD                             000N        CARE OF             
MTR02180000001000000000000000RA              33731303    007500060000000600000520000003NN  NNW 000                       N    
RDG02180000WATRL000000004K00000000000003264000602112015105730N000000000000N23       000440400K 10000000010000003249           
CUS0218000000102321434009         POUCH, CAROLYN J    300 CLUB RD                             000N        CARE OF             
MTR02180000001000000000000000RA              33731597    007500070000000700000520000003NN  NNW 000                       N    
RDG02180000WATRL000000004K00000000000004260000702112015105843N000000000000N23       000730400K 10000000010000004222           
CUS0218000000102321435006         DALE B WRIGHT & WF  102 ELMHURST RD                         000N        CARE OF             
MTR02180000001000000000000000RA              33736558    007500080000000800000520000003NN  NNW 000                       N    
RDG02180000WATRL000000004K00000000000004172000802112015110035N000000000000N23       001120400K 10000000010000004137           
CUS0218000000102321436004         LOBO, PAUL G        104 ELMHURST RD                         000N        CARE OF             
MTR02180000001000000000000000RA              33736556    007500090000000900000520000003NN  NNW 000                       N    
RDG02180000WATRL000000004K00000000000004515000902112015110108N000000000000N23       000330400K 10000000010000004502           
CUS0218000000102321437002         SOMERVILLE, ANN M.  106 ELMHURST RD                         000N        CARE OF             
MTR02180000001000000000000000RA              33736561    007500100000001000000520000003NN  NNW 000                       N    
RDG02180000WATRL000000004K00000000000002398001002112015110147N000000000000N23       000390400K 10000000010000002388           
CUS0218000000102321438000         ANDERSON, JOHN K    108 ELMHURST RD                         000N        CARE OF             
MTR02180000001000000000000000RA              33736582    007500110000001100000520000003NN  NNW 000                       N    
RDG02180000WATRL000000004K00000000000004491001102112015110234N000000000000N23       000470400K 10000000010000004470           
CUS0218000000102321439008         SNOW, DOROTHY ANN   110 ELMHURST RD                         000N        CARE OF             
MTR02180000001000000000000000RA              33736571    007500120000001200000520000003NN  NNW 000                       N    
RDG02180000WATRL000000004K00000000000003829001202112015110410N000000000000N23       000960400K 10000000010000003819           
CUS0218000000102321440006         COTTOM JR ETAL,ROBER112 ELMHURST RD                         000N        CARE OF             
MTR02180000001000000000000000RA              35100294    007500130000001300000520000003NN  NNW 000                       N    
RDG02180000WATRL000000004K00000000000002714001302112015110508N000400000010N23       000580400K 10000000010000002703           
CUS0218000000102321441004         BRUSH TRUSTEES, GRAC109 ELMHURST RD                         000N        CARE OF             
MTR02180000001000000000000000RA              33736583    007500140000001400000520000003NN  NNW 000                       N    
RDG02180000WATRL000000004K00000000000003125001702112015111345N000000000000N23       001610400K 10000000010000003110           
CUS0218000000102321442002         NICHOLS, MATTHEW D  210 CLUB RD                             000N        CARE OF             
MTR02180000001000000000000000RA              00121365    007500150000001500000570000003NN  NNW 000                       N    
RDG02180000WATRL000000004K00000000000001155001402112015110829N000000000000N23       002010400K 10000000010000001123           
CUS0218000000102321443000         BLACK, LINDSAY W    208 CLUB RD                             000N        CARE OF             
MTR02180000001000000000000000RA              35108902    005800160000001600000520000003NN  NNW 000                       N    
RDG02180000WATRL000000004K00000000000003561001502112015110943N000000000000N23       000740400K 10000000010000003543           
CUS0218000000102321444008         HYNSON, PETER D     105 ELMHURST RD                         000N        CARE OF             
MTR02180000001000000000000000RA              23834430    000100170000001700000520000003NN  NNW 000                       N    
RDG02180000WATRL000000004K00000000000003076001602112015111104N000000000001N23       000130400K 10000000010000003058           
CUS0218000000102321445005         BOVE, CHRISTOPHER   203 CLUB RD                             000N        CARE OF             
MTR02180000001000000000000000RA              40248815    007500180000001800000520000003NN  NNW 000                       N    
RDG02180000WATRL000000004K00000000000002629001802112015111633N000000000000N23       001680400K 10000000010000002610           
CUS0218000000102321446003         KELLY, MARK T       205 CLUB RD                             000N        CARE OF             
MTR02180000001000000000000000RA              33736560    007500190000001900000520000003NN  NNW 000                       N    
RDG02180000WATRL000000004K00000000000003237001902112015111711N000400000010N23       000380400K 10000000010000003228           
CUS0218000000102321447001         KRULL, MEGAN M      207 CLUB RD                             000N        CARE OF             
MTR02180000001000000000000000RA              25486157    007500200000002000000520000003NN  NNW 000                       N    
RDG02180000WATRL000000004K00000000000001522002002112015111749N000000000000N23       000380400K 10000000010000001511           
CUS0218000000102321448009         AL'IBRAHIM, MOHAMED 209 CLUB RD                             000N        CARE OF             
MTR02180000001000000000000000RA              39257362    007500210000002100000520000003NN  NNW 000                       N    
RDG02180000WATRL000000004K00000000000004725002102112015111835N000000000000N23       000460400K 10000000010000004705           
CUS0218000000102321449007         HENRY E SMITH JR    215 CLUB RD                             000N        CARE OF             
MTR02180000001000000000000000RA              33731762    007500220000002200000520000003NN  NNW 000                       N    
RDG02180000WATRL000000004K00000000000002973002202112015111923N000000000000N23       000480400K 10000000010000002963           
CUS0218000000102321450005         PALMER III, CHARLES 217 CLUB RD                             000N        CARE OF             
MTR02180000001000000000000000RA              33731305    007500230000002300000520000003NN  NNW 000                       N    
RDG02180000WATRL000000004K00000000000004252002302112015112021N000000000000N23       000580400K 10000000010000004230           
CUS0218000000102321451003         LESESNE, MICHAEL J  7 ELMHURST RD                           000N        CARE OF             
MTR02180000001000000000000000RA              39080400    007500240000002400000520000003NN  NNW 000                       N    
RDG02180000WATRL000000004K00000000000003492002402112015112135N000000000000N23       000740400K 10000000010000003470           
CUS0218000000102321452001         EHRMANN, JOSEPH C   5 ELMHURST RD                           000N        CARE OF             
MTR02180000001000000000000000RA              30528501    007500250000002500000520000003NN  NNW 000                       N    
RDG02180000WATRL000000004K00000000000003834002502112015112221N000400000010N23       000460400K 10000000010000003822           
CUS0218000000102321453009         WHITMAN JR., M HAMIL3 ELMHURST RD                           000N        CARE OF             
MTR02180000001000000000000000RA              39080397    007500260000002600000520000003NN  NNW 000                       N    
RDG02180000WATRL000000004K00000000000004119002602112015112251N000000000000N23       000300400K 10000000010000004107           
CUS0218000000102321454007         KOYMEN, HAKAN OMER  1 ELMHURST RD                           000N        CARE OF             
MTR02180000001000000000000000RA              35113101    007500270000002700000520000003NN  NNW 000                       N    
RDG02180000WATRL000000004K00000000000006173002702112015112336N000400000010N23       000450400K 10000000010000006156           
CUS0218000000102321455004         JOHN BALDWIN        4828 ROLAND AVE                         000N        CARE OF             
MTR02180000001000000000000000RA              35105898    007500280000002800000520000003NN  NNW 000                       N    
RDG02180000WATRL000000004K00000000000002058002802112015112520N000000000000N23       001040400K 10000000010000002037           
CUS0218000000102321456002         NORTON, ANN F. (TR) 4826 ROLAND AVE                         000N        CARE OF             
MTR02180000001000000000000000RA              33731536    007500290000002900000520000003NN  NNW 000                       N    
RDG02180000WATRL000000004K00000000000002370002902112015112554N000000000000N23       000340400K 10000000010000002366           
CUS0218000000102321457000         BONNIE BOWLING      4824 ROLAND AVE                         000N        CARE OF             
MTR02180000001000000000000000RA              35105899    007500300000003000000520000003NY  NNW 000                       N    
MTM0218000035105899    cantlocate                                                                                             
RDG02180000WATRL000000004K00000000000000000000000000000000000 000000000000U         000000400  10000000010000002091           
CUS0218000000102321458008         4822 ROLAND, LLC    4822 ROLAND AVE                         000N        CARE OF             
MTR02180000001000000000000000RA              33416389    007500310000003100000520000003NY  NNW 000                       N    
MTM0218000033416389    cantlocate                                                                                             
RDG02180000WATRL000000004K00000000000000000000000000000000000 000000000000U         000000400  10000000010000009269           
CUS0218000000102321459006         4820 ROLAND, LLC    4820 ROLAND AVE                         000N        CARE OF             
MTR02180000001000000000000000RA              99410368    000100320000003200000570000003NN  NNW 000                       N    
RDG02180000WATRL000000004K00000000000003873003002112015112910N000000000001N23       000240400K 10000000010000003816           
CUS0218000000102321460004         JAMES J WARD        2 UPLAND RD                             000N        CARE OF             
MTR02180000001000000000000000RA              99376339    007500330000003300000570000003NY  NNW 000                       N    
MTM0218000099376339    cantlocate                                                                                             
RDG02180000WATRL000000004K00000000000004623000102192015090240N000000000010U23       000000400K 10000000010000004600           
CUS0218000000102321461002         BUREAU OF BUILDINGS 2 UPLAND RD                             000N        CARE OF             
MTR02180000001000000000000000RA              33731429    007500340000003400000520000003NN  NNW 000                       N    
RDG02180000WATRL000000004K00000000000004620003102112015113247N000000000000N23       002170400K 10000000010000004595           
CUS0218000000102321463008         CRAIG ZISSEL        107 CLUB RD                             000N        CARE OF             
MTR02180000001000000000000000RA              27895828    007500350000003500000520000003NN  NNW 000                       N    
RDG02180000WATRL000000004K00000000000005544003202112015113858N000400000010N23       003710400K 10000000010000005525           
CUS0218000000102321464006         MARK S FOSTER       5 UPLAND RD                             000N        CARE OF             
MTR02180000001000000000000000RA              33731694    007500360000003600000520000003NN  NNW 000                       N    
RDG02180000WATRL000000004K00000000000003211003302112015114003N000000000000N23       000650400K 10000000010000003199           
CUS0218000000102321465003         EATON, DAVID R      3 UPLAND RD                             000N        CARE OF             
MTR02180000001000000000000000RA              50479964    005800370000003700000520000003NN  NNW 000                       N    
RDG02180000WATRL000000004K00000000000000964003402112015114040N000000000000N23       000370400K 10000000010000000964           
CUS0218000000102321466001         BALDUS, HAROLD L.   1 UPLAND RD                             000N        CARE OF             
MTR02180000001000000000000000RA              00118827    007500380000003800000570000003NN  NNW 000                       N    
RDG02180000WATRL000000004K00000000000001193003502112015114200N000000000000N23       000800400K 10000000010000001179           
CUS0218000000102321467009         ROLAND PK COUNTRY SC2 TOWERS LN                             000N        CARE OF             
MTR02180000001000000000000000RA              29072142    000100390000003900000520000003NN  NNW 000                       N    
RDG02180000WATRL000000004K00000000000005000003602112015114230N000300000010N23       000300400K 10000000010000004959           
CUS0218000000102321468007         SCHWARTZMAN, EVE B (4712 ROLAND AVE                         000N        CARE OF             
MTR02180000001000000000000000RA              01098892    007500400000004000000610000003NN  NNW 000                       N    
RDG02180000WATRL000000004K00000000000000602003702112015114329N000000000000N23       000590400K 10000000010000000556           
CUS0218000000102321469005         SMITH, ABIGAIL E    4710 ROLAND AVE                         000N        CARE OF             
MTR02180000001000000000000000RA              33416851    007500410000004100000520000003NN  NNW 000                       N    
RDG02180000WATRL000000004K00000000000005269003802112015114512N000000000000N23       001030400K 10000000010000005254           
CUS0218000000102321470003         TURKEY HILL LLC.    4708 ROLAND AVE                         000N        CARE OF             
MTR02180000001000000000000000RA              33416848    007500420000004200000520000003NN  NNW 000                       N    
RDG02180000WATRL000000004K00000000000000409003902112015114603N000000000000N23       000510400K 10000000010000000373           
CUS0218000000102321471001         FRUIN, STEPHEN F    4706 ROLAND AVE                         000N        CARE OF             
MTR02180000001000000000000000RA              99409804    000100430000004300000570000003NN  NNW 000                       N    
RDG02180000WATRL000000004K00000000000001300004002112015114802N000000000000N23       001190400K 10000000010000001282           
CUS0218000000102321472009         KARAOLIS, DAVID K.R.4 CLUB RD                               000N        CARE OF             
MTR02180000001000000000000000RA              00163468    000100440000004400000570000003NN  NNW 000                       N    
RDG02180000WATRL000000004K00000000000001599004102112015114937N000000000000N23       000950400K 10000000010000001573           
CUS0218000000102321473007         6 CLUB ROAD, LLC    6 CLUB RD                               000N        CARE OF             
MTR02180000001000000000000000RA              00119828    007500450000004500000570000003NN  NNW 000                       N    
RDG02180000WATRL000000004K00000000000001881004202112015115025N000000000000N23       000480400K 10000000010000001829           
CUS0218000000102321474005         WADE, JAMES P       8 CLUB RD                               000N        CARE OF             
MTR02180000001000000000000000RA              99309075    007500460000004600000570000003NN  NNW 000                       N    
RDG02180000WATRL000000004K00000000000002216004302112015115105N000000000000N23       000400400K 10000000010000002189           
CUS0218000000102321475002         COHEN, BRETT        10 CLUB RD                              000N        CARE OF             
MTR02180000001000000000000000RA              00163381    000100470000004700000570000003NN  NNW 000                       N    
RDG02180000WATRL000000004K00000000000000920004402112015115320N000000000000N23       001350400K 10000000010000000892           
CUS0218000000102321476000         LIBBY, KEVIN        12 CLUB RD                              000N        CARE OF             
MTR02180000001000000000000000RA              35101086    000100480000004800000520000003NN  NNW 000                       N    
RDG02180000WATRL000000004K00000000000003965004502112015115446N000000000000N23       000860400K 10000000010000003939           
CUS0218000000102321477008         TRIMBLE, EDWARD L   7 CLUB RD                               000N        CARE OF             
MTR02180000001000000000000000RA              31664116    001500490000004900000520000003NY  NNW 000                       N    
MTM0218000031664116    cantaccess                                                                                             
RDG02180000WATRL000000005K00000000000000000000000000000000000 000000000000U         000000500  10000000010000004249           
CUS0218000000102321478006         WEIL, CHARLES A     5 CLUB RD                               000N        CARE OF             
MTR02180000001000000000000000RA              00119827    007500500000005000000570000003NN  NNW 000                       N    
RDG02180000WATRL000000004K00000000000001161004602112015115909N000000000000N23       002630400K 10000000010000001134           
CUS0218000000102321479004         MCFARLAND, EDWARD G.3 CLUB RD                               000N        CARE OF             
MTR02180000001000000000000000RA              33731585    007500510000005100000520000003NN  NNW 000                       N    
RDG02180000WATRL000000004K00000000000002823004702112015120004N000000000000N23       000550400K 10000000010000002805           
CUS0218000000102321480002         MONK III, CHARLES O 4704 ROLAND AVE                         000N        CARE OF             
MTR02180000001000000000000000RA              35105932    007500520000005200000520000003NN  NNW 000                       N    
RDG02180000WATRL000000004K00000000000003583004802112015120236N000000000000N23       001520400K 10000000010000003573           
CUS0218000000102321481000         ST DAVIDS P E CHURCH4700 ROLAND AVE                         000N        CARE OF             
MTR02180000001000000000000000RA              35100476    007500530000005300000520000003NN  NNW 000                       N    
RDG02180000WATRL000000004K00000000000000623004902112015120419N000000000000N23       001030400K 10000000010000000533           
CUS0218000000102321482008         WHITMAN, C. LAWRENCE2 OAKDALE RD                            000N        CARE OF             
MTR02180000001000000000000000RA              35101050    000100540000005400000520000003NN  NNW 000                       N    
RDG02180000WATRL000000004K00000000000004174005002112015120658N000000000000N23       001590400K 10000000010000004150           
CUS0218000000102321483006         HILLEL, ALEXANDER T 303 GOODWOOD GARDENS                    000N        CARE OF             
MTR02180000001000000000000000RA              00163751    000100550000005500000570000003NN  NNW 000                       N    
RDG02180000WATRL000000004K00000000000001035005102112015120801N000000000000N23       000630400K 10000000010000001019           
CUS0218000000102321484004         TORTOLANI, PAUL L   305 GOODWOOD GARDENS                    000N        CARE OF             
MTR02180000001000000000000000RA              33736617    007500560000005600000520000003NN  NNW 000                       N    
RDG02180000WATRL000000004K00000000000004731005202112015120924N000400000010N23       000830400K 10000000010000004712           
CUS0218000000102321485001         EDWIN R GOODLANDER &102 OAKDALE RD                          000N        CARE OF             
MTR02180000001000000000000000RA              33731631    007500570000005700000520000003NN  NNW 000                       N    
RDG02180000WATRL000000004K00000000000006516005402112015121602N000000000000N23       002070400K 10000000010000006492           
CUS0218000000102321486009         SLINGLUFF, JOHN K   104 OAKDALE RD                          000N        CARE OF             
MTR02180000001000000000000000RA              35105930    007500580000005800000520000003NY  NNW 000                       N    
MTM0218000035105930    cantlocate                                                                                             
RDG02180000WATRL000000004K00000000000000000000000000000000000 000000000000U         000000400  10000000010000004821           
CUS0218000000102321487007         LIEBERMAN, ELLIOT R 106 OAKDALE RD                          000N        CARE OF             
MTR02180000001000000000000000RA              41089439    007500590000005900000520000003NN  NNW 000                       N    
RDG02180000WATRL000000004K00000000000001688005502112015121855N000000000000N23       001730400K 10000000010000001673           
CUS0218000000102321488005         JACKSON, JANN       300 GOODWOOD GARDENS                    000N        CARE OF             
MTR02180000001000000000000000RA              52292673    007500600000006000000520000003NN  NNW 000                       N    
RDG02180000WATRL000000004K00000000000002539005302112015121235N000300000010N23       001910400K 10000000010000002463           
CUS0218000000102321489003         KAUFFMAN TRUSTEE, RA4614 ROLAND AVE                         000N        CARE OF             
MTR02180000001000000000000000RA              35105936    007500610000006100000520000003NN  NNW 000                       N    
RDG02180000WATRL000000004K00000000000006568005602112015122511N000000000000N23       003760400K 10000000010000006558           
CUS0218000000102321490001         MACSHERRY CHARLES   4612 ROLAND AVE                         000N        CARE OF             
MTR02180000001000000000000000RA              33731150    007500620000006200000520000003NN  NNW 000                       N    
RDG02180000WATRL000000004K00000000000009669005702112015122611N000400000010N23       000600400K 10000000010000009636           
CUS0218000000102321491009         SKEEN, DAVID W      4610 ROLAND AVE                         000N        CARE OF             
MTR02180000001000000000000000RA              35100584    007500630000006300000520000003NN  NNW 000                       N    
RDG02180000WATRL000000004K00000000000008060005802112015122701N000000000000N23       000500400K 10000000010000008031           
CUS0218000000102406915005         RAYME, BRIAN C      4608-1/2 ROLAND AVE                     000N        CARE OF             
MTR02180000001000000000000000RA              44174222    005800640000006400000520000003NY  NNW 000                       N    
MTM0218000044174222    cantlocate                                                                                             
RDG02180000WATRL000000004K00000000000000000000000000000000000 000000000000U         000000400  10000000010000002555           
CUS0218000000102321492007         RAYME, BRIAN C      4608 ROLAND AVE                         000N        CARE OF             
MTR02180000001000000000000000RA              35105786    007500650000006500000520000003NN  NNW 000                       N    
RDG02180000WATRL000000004K00000000000005029005902112015122802N000000000000N23       000610400K 10000000010000005008           
CUS0218000000102321493005         BAILEY-JONES, SUZANN4606 ROLAND AVE                         000N        CARE OF             
MTR02180000001000000000000000RA              33731555    007500660000006600000520000003NN  NNW 000                       N    
RDG02180000WATRL000000004K00000000000003973006102112015123002N000400000010N23       000280400K 10000000010000003958           
CUS0218000000102321494003         NEUNER, GEOFFREY    4604 ROLAND AVE                         000N        CARE OF             
MTR02180000001000000000000000RA              33731579    007500670000006700000520000003NN  NNW 000                       N    
RDG02180000WATRL000000004K00000000000001555006002112015122934N000000000000N23       000920400K 10000000010000001537           
CUS0218000000102321495000         DRISKILL III, B LEE 4602 ROLAND AVE                         000N        CARE OF             
MTR02180000001000000000000000RA              29069443    007500680000006800000520000003NN  NNW 000                       N    
RDG02180000WATRL000000004K00000000000003288006202112015123125N000000000000N23       000830400K 10000000010000003271           
CUS0218000000102321496008         LOUGH, EDWARD THOMAS4600 ROLAND AVE                         000N        CARE OF             
MTR02180000001000000000000000RA              35104424    005800690000006900000520000003NN  NNW 000                       N    
RDG02180000WATRL000000004K00000000000005065006302112015123250N000000000000N23       000850400K 10000000010000005035           
CUS0218000000102321497006         SCHEFFENACKER JR., D201 GOODWOOD GARDENS                    000N        CARE OF             
MTR02180000001000000000000000RA              33731587    007500700000007000000520000003NN  NNW 000                       N    
RDG02180000WATRL000000004K00000000000006630000102122015105126N000000000000U23       000000400K 10000000010000006600           
CUS0218000000102321498004         LUNDY JR., A LEE    203 GOODWOOD GARDENS                    000N        CARE OF             
MTR02180000001000000000000000RA              37690795    000100710000007100000520000003NN  NNW 000                       N    
RDG02180000WATRL000000004K00000000000001870000202122015105256N000400000010U23       000900400K 10000000010000001865           
CUS0218000000102321499002         BAIN, MILLICENT M.  205 GOODWOOD GARDENS                    000N        CARE OF             
MTR02180000001000000000000000RA              39267065    000100720000007200000520000003NY  NNW 000                       N    
MTM0218000039267065    cantlocate                                                                                             
RDG02180000WATRL000000004K00000000000000000000000000000000000 000000000000U         000000400  10000000010000008958           
CUS0218000000102321500007         HUDSON, DEBORAH F   209 GOODWOOD GARDENS                    000N        CARE OF             
MTR02180000001000000000000000RA              75614723    005800730000007300000350000003NN  NNW 000                       N    
RDG02180000WATRL000000004K00000000000000639000302122015105525N000000000000U23       001490400K 10000000010000000613           
CUS0218000000102321501005         DAVID B RUDOW & WF  211 GOODWOOD GARDENS                    000N        CARE OF             
MTR02180000001000000000000000RA              31937594    007500740000007400000520000003NN  NNW 000                       N    
RDG02180000WATRL000000004K00000000000004833000402122015105624N000000000000U23       000590400K 10000000010000004815           
CUS0218000000102321502003         GROENKE, STEVEN WAYN210 GOODWOOD GARDENS                    000N        CARE OF             
MTR02180000001000000000000000RA              99375389    007500750000007500000570000003NN  NNW 000                       N    
RDG02180000WATRL000000004K00000000000003178000502122015105900N000000000011U23       000070400K 10000000010000003016           
CUS0218000000102321503001         COWLEY, ROBERTA S   208 GOODWOOD GARDENS                    000N        CARE OF             
MTR02180000001000000000000000RA              10009505    005800760000007600000570000003NN  NNW 000                       N    
RDG02180000WATRL000000004K00000000000000647000602122015105947N000400000010U23       000470400K 10000000010000000636           
CUS0218000000102321504009         DWYER, JOHN W       206 GOODWOOD GARDENS                    000N        CARE OF             
MTR02180000001000000000000000RA              39257493    007500770000007700000520000003NN  NNW 000                       N    
RDG02180000WATRL000000004K00000000000008023000702122015110042N000400000010U23       000550400K 10000000010000008022           
CUS0218000000102321505006         CROZIER, FRED C.C.  204 GOODWOOD GARDENS                    000N        CARE OF             
MTR02180000001000000000000000RA              39256650    007500780000007800000520000003NN  NNW 000                       N    
RDG02180000WATRL000000004K00000000000008280000802122015110127N000400000010U23       000450400K 10000000010000008253           
CUS0218000000102321506004         KEELTY, MICHAEL J.  200 GOODWOOD GARDENS                    000N        CARE OF             
MTR02180000001000000000000000RA              00163214    000100790000007900000570000003NN  NNW 000                       N    
RDG02180000WATRL000000004K00000000000003022000902122015110228N000400000010U23       000610400K 10000000010000002992           
CUS0218000000102321507002         BENDIT, EMILE A   (T3 KENWOOD RD                            000N        CARE OF             
MTR02180000001000000000000000RA              14914730    001500800000008000000310000003NN  NNW 000                       N    
RDG02180000WATRL000000005K00000000000001479001002122015110349N000400000010U23       000810500K 10000000010000001471           
CUS0218000000102321508000         STETZ JR., GORDON M.1 KENWOOD RD                            000N        CARE OF             
MTR02180000001000000000000000RA              27775057    000100810000008100000520000003NN  NNW 000                       N    
RDG02180000WATRL000000004K00000000000003983001102122015110457N000000000000U23       000680400K 10000000010000003963           
CUS0218000000102321509008         STETZ JR., GORDON M.1 KENWOOD RD REAR                       000N        CARE OF             
MTR02180000001000000000000000RA              10018081    005800820000008200000570000003NN  NNW 000                       N    
RDG02180000WATRL000000004K00000000000000053001202122015110555N000000000000U23       000580400K 10000000010000000053           
CUS0218000000102321510006         BLAU, ROBERT J.     4510 ROLAND AVE                         000N        CARE OF             
MTR02180000001000000000000000RA              39080701    007500830000008300000520000003NN  NNW 000                       N    
RDG02180000WATRL000000004K00000000000003893001302122015110857N000000000000U23       001820400K 10000000010000003855           
CUS0218000000102321511004         ROSENTHAL, PETER B. 4508 ROLAND AVE                         000N        CARE OF             
MTR02180000001000000000000000RA              00120286    007500840000008400000570000003NN  NNW 000                       N    
RDG02180000WATRL000000004K00000000000000976001402122015110859N000000000000U23       000020400K 10000000010000000959           
CUS0218000000102321512002         GREEN, MATTHEW D    4506 ROLAND AVE                         000N        CARE OF             
MTR02180000001000000000000000RA              30002169    007500850000008500000570000003NN  NNW 000                       N    
RDG02180000WATRL000000004K00000000000000182001502122015110950N000000000000U23       000510400K 10000000010000000166           
CUS0218000000102321513000         JOHN B MACLAY JR & W4504 ROLAND AVE                         000N        CARE OF             
MTR02180000001000000000000000RA              35105933    007500860000008600000520000003NN  NNW 000                       N    
RDG02180000WATRL000000004K00000000000003274001602122015111028N000000000000U23       000380400K 10000000010000003249           
CUS0218000000102321514008         ULLOA, KRISTIAN     4502 ROLAND AVE                         000N        CARE OF             
MTR02180000001000000000000000RA              24625418    007500870000008700000520000003NN  NNW 000                       N    
RDG02180000WATRL000000004K00000000000005173001702122015111122N000000000010U23       000540400K 10000000010000005182           
CUS0218000000102321515005         WOMANS CLUB OF      4500 ROLAND AVE                         000N        CARE OF             
MTR02180000001000000000000000RA              14914706    001500880000008800000310000003NY  NNW 000                       N    
MTM0218000014914706    cantlocate                                                                                             
RDG02180000WATRL000000005K00000000000000000000000000000000000 000000000000U         000000500  10000000010000001174           
CUS0218000000102321516003         GLENN, MARTHA V.    100 RIDGEWOOD RD                        000N        CARE OF             
MTR02180000001000000000000000RA              00167094    000100890000008900000570000003NN  NNW 000                       N    
RDG02180000WATRL000000004K00000000000000405001802122015111446N000000000000U23       002040400K 10000000010000000383           
CUS0218000000102321517001         HUDSON, EARLE HARRIS100B RIDGEWOOD RD                       000N        CARE OF             
MTR02180000001000000000000000RA              35101047    000100900000009000000520000003NN  NNW 000                       N    
RDG02180000WATRL000000004K00000000000002648001902122015111524N000000000000U23       000380400K 10000000010000002626           
CUS0218000000102321518009         ARBOR COURT REALTY, 102 RIDGEWOOD RD                        000N        CARE OF             
MTR02180000001000000000000000RA              00163469    000100910000009100000570000003NN  NNW 000                       N    
RDG02180000WATRL000000004K00000000000001295002002122015111623N000000000010U23       000590400K 10000000010000001293           
CUS0218000000102321519007         LIEBERMAN, ROBERT C.104 RIDGEWOOD RD                        000N        CARE OF             
MTR02180000001000000000000000RA              30002566    007500920000009200000570000003NN  NNW 000                       N    
RDG02180000WATRL000000004K00000000000000235002102122015111704N000000000000U23       000410400K 10000000010000000183           
CUS0218000000102321520005         DAVID M GILLECE     108 RIDGEWOOD RD                        000N        CARE OF             
MTR02180000001000000000000000RA              14914729    001500930000009300000310000003NN  NNW 000                       N    
RDG02180000WATRL000000005K00000000000001126002202122015111820N000400000010U23       000760500K 10000000010000001105           
CUS0218000000102321521003         DARBY, SEAN P.      112 RIDGEWOOD RD                        000N        CARE OF             
MTR02180000001000000000000000RA              35103008    005800940000009400000520000003NN  NNW 000                       N    
RDG02180000WATRL000000004K00000000000006032002302122015111921N000000000000U23       000610400K 10000000010000006007           
CUS0218000000102321522001         BIVALACQUA, TRINITY 114 RIDGEWOOD RD                        000N        CARE OF             
MTR02180000001000000000000000RA              35101036    000100950000009500000520000003NN  NNW 000                       N    
RDG02180000WATRL000000004K00000000000003407002402122015112000N000000000000U23       000390400K 10000000010000003358           
CUS0218000000102321523009         PARR, SUSAN J       116 RIDGEWOOD RD                        000N        CARE OF             
MTR02180000001000000000000000RA              00163228    000100960000009600000570000003NN  NNW 000                       N    
RDG02180000WATRL000000004K00000000000001146002502122015112042N000000000000U23       000420400K 10000000010000001135           
CUS0218000000102321524007         DELAHUNTY JR, GEORGE200 RIDGEWOOD RD                        000N        CARE OF             
MTR02180000001000000000000000RA              33736509    007500970000009700000520000003NN  NNW 000                       N    
RDG02180000WATRL000000004K00000000000007185002602122015112129N000000000000U23       000470400K 10000000010000007157           
CUS0218000000102321525004         WENDLER II, WILLIAM 204 RIDGEWOOD RD                        000N        CARE OF             
MTR02180000001000000000000000RA              00163488    000100980000009800000570000003NN  NNW 000                       N    
RDG02180000WATRL000000004K00000000000002059002702122015112231N000000000000U23       000620400K 10000000010000002031           
CUS0218000000102321526002         STUZIN, KENNETH M   206 RIDGEWOOD RD                        000N        CARE OF             
MTR02180000001000000000000000RA              33736508    007500990000009900000520000003NN  NNW 000                       N    
RDG02180000WATRL000000004K00000000000004150002802122015112317N000000000000U23       000460400K 10000000010000004122           
CUS0218000000102321527000         RANUM, PATRICIA M   208 RIDGEWOOD RD                        000N        CARE OF             
MTR02180000001000000000000000RA              33736610    007501000000010000000520000003NN  NNW 000                       N    
RDG02180000WATRL000000004K00000000000001577002902122015112423N000000000000U23       000660400K 10000000010000001551           
CUS0218000000102321528008         DANIELS, JANE WILHEL210 RIDGEWOOD RD                        000N        CARE OF             
MTR02180000001000000000000000RA              33736513    007501010000010100000520000003NN  NNW 000                       N    
RDG02180000WATRL000000004K00000000000007948003002122015112514N000400000010U23       000510400K 10000000010000007929           
CUS0218000000102321529006         JONES, BARBARA A    212 RIDGEWOOD RD                        000N        CARE OF             
MTR02180000001000000000000000RA              33416847    007501020000010200000520000003NN  NNW 000                       N    
RDG02180000WATRL000000004K00000000000005912003102122015112703N000000000000U23       001090400K 10000000010000005891           
CUS0218000000102321530004         MCQUESTION, MICHAEL 214 RIDGEWOOD RD                        000N        CARE OF             
MTR02180000001000000000000000RA              46889416    007501030000010300000520000003NN  NNW 000                       N    
RDG02180000WATRL000000004K00000000000001876003202122015112752N000300000010U23       000490400K 10000000010000001852           
CUS0218000000102321531002         ALEXANDER 111, THEOD216 RIDGEWOOD RD                        000N        CARE OF             
MTR02180000001000000000000000RA              01098516    007501040000010400000610000003NN  NNW 000                       N    
RDG02180000WATRL000000004K00000000000001253003302122015112907N000000000000U23       000750400K 10000000010000001226           
CUS0218000000102321532000         KWASS, MICHAEL A    220 RIDGEWOOD RD                        000N        CARE OF             
MTR02180000001000000000000000RA              33416918    007501050000010500000520000003NN  NNW 000                       N    
RDG02180000WATRL000000004K00000000000004309001202192015095811N000000000000U23       001550400K 10000000010000004272           
CUS0218000000102321533008         LUTZKY, STEVE M     222 RIDGEWOOD RD                        000N        CARE OF             
MTR02180000001000000000000000RA              40248810    007501060000010600000520000003NN  NNW 000                       N    
RDG02180000WATRL000000004K00000000000008481001102192015095536N000000000000U23       001580400K 10000000010000008400           
CUS0218000000102321534006         STEPHEN M CORDI & WF4 HILLSIDE RD                           000N        CARE OF             
MTR02180000001000000000000000RA              26373395    007501070000010700000520000003NN  NNW 000                       N    
RDG02180000WATRL000000004K00000000000004758000202192015091958N000000000000U23       010380400K 10000000010000004724           
CUS0218000000102321535003         MICHEL, MARY PAGE BI6 HILLSIDE RD                           000N        CARE OF             
MTR02180000001000000000000000RA              00125818    005801080000010800000570000003NN  NNW 000                       N    
RDG02180000WATRL000000004K00000000000001714000302192015092018N000000000000U23       000200400K 10000000010000001668           
CUS0218000000102321536001         MCLUCAS III, DON H. 8 HILLSIDE RD                           000N        CARE OF             
MTR02180000001000000000000000RA              24230279    005801090000010900000520000003NN  NNW 000                       N    
RDG02180000WATRL000000004K00000000000006994000402192015092115N000000000000U23       000570400K 10000000010000006973           
CUS0218000000102321537009         KLASSEN, DAVID K    10 HILLSIDE RD                          000N        CARE OF             
MTR02180000001000000000000000RA              99291711    005801100000011000000570000003NY  NNW 000                       N    
MTM0218000099291711    cantlocate                                                                                             
RDG02180000WATRL000000004K00000000000000000000000000000000000 000000000000U         000000400  10000000010000001399           
CUS0218000000102321538007         WINICK, DARIN J     12 HILLSIDE RD                          000N        CARE OF             
MTR02180000001000000000000000RA              99291505    005801110000011100000570000003NN  NNW 000                       N    
RDG02180000WATRL000000004K00000000000001579000502192015092545N000000000000U23       002700400K 10000000010000001554           
CUS0218000000102321539005         COOPER C GRAHAM & WF14 HILLSIDE RD                          000N        CARE OF             
MTR02180000001000000000000000RA              99291605    005801120000011200000570000003NN  NNW 000                       N    
RDG02180000WATRL000000004K00000000000001584000602192015092711N000000000000U23       000860400K 10000000010000001543           
CUS0218000000102321540003         JENKINS, CHUKA B    3 HILLSIDE RD                           000N        CARE OF             
MTR02180000001000000000000000RA              99411784    007501130000011300000570000003NN  NNW 000                       N    
RDG02180000WATRL000000004K00000000000000802000702192015093929N000000000000U23       007380400K 10000000010000000789           
CUS0218000000102321541001         MARRA, JOHN F       2 HILLSIDE RD                           000N        CARE OF             
MTR02180000001000000000000000RA              33731122    007501140000011400000520000003NN  NNW 000                       N    
RDG02180000WATRL000000004K00000000000007277001002192015095258N000000000000U23       006460400K 10000000010000007251           
CUS0218000000102321542009         SCHRECK, CHARLES R  6 BOULDER LN                            000N        CARE OF             
MTR02180000001000000000000000RA              99411783    007501150000011500000570000003NN  NNW 000                       N    
RDG02180000WATRL000000004K00000000000001426000802192015094106N000000000000U23       000970400K 10000000010000001403           
CUS0218000000102321543007         R BLAKE GOLDSMITH   4 BOULDER LN                            000N        CARE OF             
MTR02180000001000000000000000RA              00121217    007501160000011600000570000003NN  NNW 000                       N    
RDG02180000WATRL000000004K00000000000001294000902192015094212N000000000000U23       000660400K 10000000010000001264           
CUS0218000000102321544005         JOHNSON JR., HARRY W213 RIDGEWOOD RD                        000N        CARE OF             
MTR02180000001000000000000000RA              33731216    007501170000011700000520000003NN  NNW 000                       N    
RDG02180000WATRL000000004K00000000000005141003402122015113044N000000000000U23       000970400K 10000000010000005111           
CUS0218000000102321545002         WETZLER, THOMAS E.  211 RIDGEWOOD RD                        000N        CARE OF             
MTR02180000001000000000000000RA              33416914    007501180000011800000520000003NN  NNW 000                       N    
RDG02180000WATRL000000004K00000000000004088003502122015113208N000000000000U23       000840400K 10000000010000004055           
CUS0218000000102321546000         EKLUND, ANTTI       209 RIDGEWOOD RD                        000N        CARE OF             
MTR02180000001000000000000000RA              35100762    005801190000011900000520000003NN  NNW 000                       N    
RDG02180000WATRL000000004K00000000000005148003602122015113318N000000000000U23       000700400K 10000000010000005126           
CUS0218000000102321547008         NOLAN, WILLIAM D    205 RIDGEWOOD RD                        000N        CARE OF             
MTR02180000001000000000000000RA              33736611    007501200000012000000520000003NN  NNW 000                       N    
RDG02180000WATRL000000004K00000000000008754003702122015113428N000000000000U23       000700400K 10000000010000008709           
CUS0218000000102321548006         KRISHMAN, RAJESH    203 RIDGEWOOD RD                        000N        CARE OF             
MTR02180000001000000000000000RA              33416850    007501210000012100000520000003NN  NNW 000                       N    
RDG02180000WATRL000000004K00000000000006996001302192015100612N000000000000U23       004810400K 10000000010000006971           
CUS0218000000102321549004         THOMAS, HERBERT     201 RIDGEWOOD RD                        000N        CARE OF             
MTR02180000001000000000000000RA              26375284    007501220000012200000520000003NY  NNW 000                       N    
MTM0218000026375284    cantocate                                                                                              
RDG02180000WATRL000000004K00000000000000000000000000000000000 000000000000U         000000400  10000000010000004679           
CUS0218000000102321550002         MANSON, PAUL N      111 RIDGEWOOD RD                        000N        CARE OF             
MTR02180000001000000000000000RA              30000187    007501230000012300000570000003NN  NNW 000                       N    
RDG02180000WATRL000000004K00000000000000406001902192015103847N000300000010U23       001980400K 10000000010000000374           
CUS0218000000102321551000         KOCH, DAVID E       109 RIDGEWOOD RD                        000N        CARE OF             
MTR02180000001000000000000000RA              45388360    007501240000012400000520000003NN  NNW 000                       N    
RDG02180000WATRL000000004K00000000000003822001802192015103529N000000000000U23       001940400K 10000000010000003790           
CUS0218000000102321552008         NEMPHOS, GEORGE J   107 RIDGEWOOD RD                        000N        CARE OF             
MTR02180000001000000000000000RA              30001323    007501250000012500000570000003NN  NNW 000                       N    
RDG02180000WATRL000000004K00000000000002866001702192015103215N000000000000U23       001570400K 10000000010000002818           
CUS0218000000102321553006         DIETZ, JOHN E       105 RIDGEWOOD RD                        000N        CARE OF             
MTR02180000001000000000000000RA              28855611    000101260000012600000520000003NN  NNW 000                       N    
RDG02180000WATRL000000004K00000000000006656001602192015102938N000000000000U23       003120400K 10000000010000006633           
CUS0218000000102321554004         O'BRIEN, THOMAS P   103 RIDGEWOOD RD                        000N        CARE OF             
MTR02180000001000000000000000RA              30528371    007501270000012700000520000003NN  NNW 000                       N    
RDG02180000WATRL000000004K00000000000009634001502192015102426N000400000010U23       000710400K 10000000010000009597           
CUS0218000000102321555001         GREEN, ROBERT B     101 RIDGEWOOD RD                        000N        CARE OF             
MTR02180000001000000000000000RA              28686866    000101280000012800000520000003NN  NNW 000                       N    
RDG02180000WATRL000000004K00000000000004466001402192015102315N000000000000U23       010230400K 10000000010000004445           
CUS0218000000102321556009         PICKWORTH, WALLACE B4418 ROLAND AVE                         000N        CARE OF             
MTR02180000001000000000000000RA              35100493    007501290000012900000520000003NN  NNW 000                       N    
RDG02180000WATRL000000004K00000000000003030001502142015115103N000000000000U23       000270400K 10000000010000003019           
CUS0218000000102321557007         ROBERT H EIGNER     4416 ROLAND AVE                         000N        CARE OF             
MTR02180000001000000000000000RA              52292186    007501300000013000000520000003NN  NNW 000                       N    
RDG02180000WATRL000000004K00000000000001338001402142015115036N000000000000U23       000450400K 10000000010000001313           
CUS0218000000102321558005         HICKEY,T& HOWELL A  4414 ROLAND AVE                         000N        CARE OF             
MTR02180000001000000000000000RA              00119105    007501310000013100000570000003NN  NNW 000                       N    
RDG02180000WATRL000000004K00000000000000931001302142015114951N000300000010U23       000390400K 10000000010000000908           
CUS0218000000102321559003         HISIM, AHMET        4412 ROLAND AVE                         000N        CARE OF             
MTR02180000001000000000000000RA              00119150    007501320000013200000570000003NN  NNW 000                       N    
RDG02180000WATRL000000004K00000000000000789001202142015114912N000000000000U23       000330400K 10000000010000000784           
CUS0218000000102321560001         DURHAM, CARL H.     4410 ROLAND AVE                         000N        CARE OF             
MTR02180000001000000000000000RA              27678470    007501330000013300000520000003NN  NNW 000                       N    
RDG02180000WATRL000000004K00000000000006192001102142015114839N000000000000U23       000360400K 10000000010000006170           
CUS0218000000102321561009         DURHAM, CARL H.     4408 ROLAND AVE                         000N        CARE OF             
MTR02180000001000000000000000RA              35100239    007501340000013400000520000003NN  NNW 000                       N    
RDG02180000WATRL000000004K00000000000003966001002142015114803N000000000000U23       000610400K 10000000010000003923           
CUS0218000000102321562007         BEYRER, CHRISTOPHER 4406 ROLAND AVE                         000N        CARE OF             
MTR02180000001000000000000000RA              29994941    007501350000013500000520000003NN  NNW 000                       N    
RDG02180000WATRL000000004K00000000000002060000902142015114702N000000000000U23       000300400K 10000000010000002050           
CUS0218000000102321563005         ASHLEY D CORBIN     4404 ROLAND AVE                         000N        CARE OF             
MTR02180000001000000000000000RA              35100538    007501360000013600000520000003NN  NNW 000                       N    
RDG02180000WATRL000000004K00000000000002337000802142015114632N000000000000U23       000660400K 10000000010000002314           
CUS0218000000102321564003         MCLEAN, WILLIAM     4402 ROLAND AVE                         000N        CARE OF             
MTR02180000001000000000000000RA              33080112    005801370000013700000520000003NN  NNW 000                       N    
RDG02180000WATRL000000004K00000000000003328000702142015114526N000300000021U23       000130400K 10000000010000003330           
CUS0218000000102321565000         SCHWARTZ JR, RAYMOND4400 ROLAND AVE                         000N        CARE OF             
MTR02180000001000000000000000RA              33416907    007501380000013800000520000003NN  NNW 000                       N    
RDG02180000WATRL000000004K00000000000003061000602142015114434N000000000000U23       001260400K 10000000010000003052           
CUS0218000000102321566008         NAYLOR, DEBORAH J.  4334 ROLAND AVE                         000N        CARE OF             
MTR02180000001000000000000000RA              35100485    007501390000013900000520000003NY  NNW 000                       N    
MTM0218000035100485    cantlocate                                                                                             
RDG02180000WATRL000000004K00000000000000000000000000000000000 000000000000U         000000400  10000000010000003509           
CUS0218000000102321567006         HOGUE, CHARLES W.   4332 ROLAND AVE                         000N        CARE OF             
MTR02180000001000000000000000RA              M547296     005801400000014000000320000003NY  NNW 000                       N    
MTM02180000M547296     cantlocate                                                                                             
RDG02180000WATRL000000004K00000000000000000000000000000000000 000000000000U         000000400  10000000010000003816           
CUS0218000000102321568004         PARKINSON, MARY J.  4330 ROLAND AVE                         000N        CARE OF             
MTR02180000001000000000000000RA              99411782    007501410000014100000570000003NY  NNW 000                       N    
MTM0218000099411782    cantlocate                                                                                             
RDG02180000WATRL000000004K00000000000000000000000000000000000 000000000000U         000000400  10000000010000001002           
CUS0218000000102321569002         ROBERT J K MARINELLI4328 ROLAND AVE                         000N        CARE OF             
MTR02180000001000000000000000RA              27818976    005801420000014200000520000003NN  NNW 000                       N    
RDG02180000WATRL000000004K00000000000003508001602142015115411N000000000000U23       001880400K 10000000010000003483           
CUS0218000000102321570000         CAPT. JAMES HANNA   4326 ROLAND AVE                         000N        CARE OF             
MTR02180000001000000000000000RA              33080108    005801430000014300000520000003NN  NNW 000                       N    
RDG02180000WATRL000000004K00000000000002078001702142015115435N000000000000U23       000240400K 10000000010000002064           
CUS0218000000102321571008         WINKLER, CATHRYN REY4324 ROLAND AVE                         000N        CARE OF             
MTR02180000001000000000000000RA              33416829    007501440000014400000520000003NN  NNW 000                       N    
RDG02180000WATRL000000004K00000000000002756001802142015115500N000000000000U23       000250400K 10000000010000002740           
CUS0218000000102321572006         BREYER, GAIL G      4322 ROLAND AVE                         000N        CARE OF             
MTR02180000001000000000000000RA              33080110    005801450000014500000520000003NN  NNW 000                       N    
RDG02180000WATRL000000004K00000000000002511002002142015115555N000000000000U23       000090400K 10000000010000002488           
CUS0218000000102321573004         STUART J TRYON      4320 ROLAND AVE                         000N        CARE OF             
MTR02180000001000000000000000RA              01092052    005801460000014600000610000003NN  NNW 000                       N    
RDG02180000WATRL000000004K00000000000000754001902142015115631N000000000011U23       000360400K 10000000010000000735           
CUS0218000000102321574002         DARRELL H SON       4318 ROLAND AVE                         000N        CARE OF             
MTR02180000001000000000000000RA              30517133    005801470000014700000520000003NN  NNW 000                       N    
RDG02180000WATRL000000004K00000000000003931002102142015115646N000000000000U23       000150400K 10000000010000003919           
CUS0218000000102321575009         DABOIN, SHARON A    4316 ROLAND AVE                         000N        CARE OF             
MTR02180000001000000000000000RA              52292675    007501480000014800000520000003NY  NNW 000                       N    
MTM0218000052292675    cantlocate                                                                                             
RDG02180000WATRL000000004K00000000000000000000000000000000000 000000000000U         000000400  10000000010000001065           
CUS0218000000102321576007         YENER S EROZAN & WF 4314 ROLAND AVE                         000N        CARE OF             
MTR02180000001000000000000000RA              74938816    007501490000014900000350000003NY  NNW 000                       N    
MTM0218000074938816    cantlocate                                                                                             
RDG02180000WATRL000000004K00000000000000000000000000000000000 000000000000U         000000400  10000000010000000096           
CUS0218000000102321577005         MATHEW MA MORGAN    4312 ROLAND AVE                         000N        CARE OF             
MTR02180000001000000000000000RA              35099152    005801500000015000000520000003NY  NNW 000                       N    
MTM0218000035099152    cantlocate                                                                                             
RDG02180000WATRL000000004K00000000000000000000000000000000000 000000000000U         000000400  10000000010000002309           
CUS0218000000102321578003         MUDGE, GEOFFREY K   4310 ROLAND AVE                         000N        CARE OF             
MTR02180000001000000000000000RA              01084318    005801510000015100000610000003NN  NNW 000                       N    
RDG02180000WATRL000000004K00000000000001369000502142015114228N000000000000U23       000810400K 10000000010000001355           
CUS0218000000102321579001         DAMSEAUX, MATTHEW PE4308 ROLAND AVE                         000N        CARE OF             
MTR02180000001000000000000000RA              00125954    005801520000015200000570000003NN  NNW 000                       N    
RDG02180000WATRL000000004K00000000000000938000402142015114107N000000000000U23       000350400K 10000000010000000920           
CUS0218000000102321580009         KANE, NATHAN A.     4306 ROLAND AVE                         000N        CARE OF             
MTR02180000001000000000000000RA              27812695    005801530000015300000520000003NN  NNW 000                       N    
RDG02180000WATRL000000004K00000000000003247000202142015113952N000000000000U23       000560400K 10000000010000003220           
CUS0218000000102321581007         STERN, TINA M       4304 ROLAND AVE                         000N        CARE OF             
MTR02180000001000000000000000RA              14918642    005801540000015400000310000003NN  NNW 000                       N    
RDG02180000WATRL000000004K00000000000000581000302142015114032N000000000000U23       000400400K 10000000010000000576           
CUS0218000000102321582005         CAQUELIN, CHRISTOPHE4302 ROLAND AVE                         000N        CARE OF             
MTR02180000001000000000000000RA              44176199    005801550000015500000520000003NN  NNW 000                       N    
RDG02180000WATRL000000004K00000000000001496000102142015113856N000000000000U23       000000400K 10000000010000001478           
RTR02180000NN01550155000001550000000001550155000252NY015501550155001500000000000000000000000001    01282015NY020000 N         
RHD02187700NN02770277000002770000000002770277000182NY027702770277001800030000000000000000000001    01282015NY020000 N         
CUS0218770000102323499000         DTJ REALTY, LLC     1527-31 W 36TH ST                       000N        CARE OF             
MTR02187700001000000000000000RA              46890844    007500010000000100000520000003NN  NNW 000                       N    
RDG02187700WATRL000000004K00000000000003776014001312015095305N000000000000N23       000590400K 10000000010000003683           
CUS0218770000102323500005         CAVANAGH, BRENDAN E.1525 W 36TH ST                          000N        CARE OF             
MTR02187700001000000000000000RA              00117816    007500020000000200000570000003NN  NNW 000                       N    
RDG02187700WATRL000000004K00000000000000689014101312015095353N000000000000N23       000480400K 10000000010000000672           
CUS0218770000102323501003         HOLMES, STEPHEN     1521 W 36TH ST                          000N        CARE OF             
MTR02187700001000000000000000RA              00119530    007500030000000300000570000003NN  NNW 000                       N    
RDG02187700WATRL000000004K00000000000000460014201312015095420N000000000000N23       000270400K 10000000010000000445           
CUS0218770000102323502001         ANDREW LEVI         1519 W 36TH ST                          000N        CARE OF             
MTR02187700001000000000000000RA              14918438    007500040000000400000310000003NN  NNW 000                       N    
RDG02187700WATRL000000004K00000000000000268014301312015095452N000000000000N23       000320400K 10000000010000000253           
CUS0218770000102323503009         DIEM, PAUL A        1517 W 36TH ST                          000N        CARE OF             
MTR02187700001000000000000000RA              30000485    007500050000000500000570000003NN  NNW 000                       N    
RDG02187700WATRL000000004K00000000000000161014401312015095517N000000000000N23       000250400K 10000000010000000153           
CUS0218770000102323504007         HENRY, MICHAEL BREND1515 W 36TH ST                          000N        CARE OF             
MTR02187700001000000000000000RA              00117817    007500060000000600000570000003NN  NNW 000                       N    
RDG02187700WATRL000000004K00000000000000496014501312015095535N000000000000N23       000180400K 10000000010000000483           
CUS0218770000102323505004         TOWSON REAL ESTATE S1513 W 36TH ST                          000N        CARE OF             
MTR02187700001000000000000000RA              52292852    007500070000000700000520000003NN  NNW 000                       N    
RDG02187700WATRL000000004K00000000000001257014601312015095604N000000000000N23       000290400K 10000000010000001251           
CUS0218770000102323506002         HOLMES JR., DONALD L1509 W 36TH ST                          000N        CARE OF             
MTR02187700001000000000000000RA              33731952    007500080000000800000520000003NN  NNW 000                       N    
RDG02187700WATRL000000004K00000000000001915014701312015095635N000000000000N23       000310400K 10000000010000001901           
CUS0218770000102323507000         LILLY, ELIZABETH M  1507 W 36TH ST                          000N        CARE OF             
MTR02187700001000000000000000RA              24624931    007500090000000900000520000003NN  NNW 000                       N    
RDG02187700WATRL000000004K00000000000002263014801312015095710N000000000000N23       000350400K 10000000010000002243           
CUS0218770000102323508008         DAVID L MILLER & WF 1505 W 36TH ST                          000N        CARE OF             
MTR02187700001000000000000000RA              25592022    007500100000001000000520000003NN  NNW 000                       N    
RDG02187700WATRL000000004K00000000000003026014901312015095739N000000000000N23       000290400K 10000000010000003016           
CUS0218770000102323509006         GEORGE FIGGS & WF   1503 W 36TH ST                          000N        CARE OF             
MTR02187700001000000000000000RA              41193357    007500110000001100000520000003NN  NNW 000                       N    
RDG02187700WATRL000000004K00000000000002681015001312015095807N000000000000N23       000280400K 10000000010000002656           
CUS0218770000102323510004         POLLUX ENTERPRISES, 1501 W 36TH ST                          000N        CARE OF             
MTR02187700001000000000000000RA              00119829    007500120000001200000570000003NN  NNW 000   VACANT PROPERTY     N    
RDG02187700WATRL000000004K00000000000000009015101312015095818N000000000000N23       000110400K 10000000010000000009           
CUS0218770000102323511002         DELORENZO, VINCENT  3556 BUENA VISTA AVE                    000N        CARE OF             
MTR02187700001000000000000000RA              46883493    005800130000001300000520000003NN  NNW 000   VACANT PROPERTY     N    
RDG02187700WATRL000000004K00000000000000323015201312015095932N000000000011N23       000660400K 10000000010000000319           
CUS0218770000102323512000         WALTER A BELL       3554 BUENA VISTA AVE                    000N        CARE OF             
MTR02187700001000000000000000RA              01090960    005800140000001400000610000003NN  NNW 000                       N    
RDG02187700WATRL000000004K00000000000000695015301312015095955N000400000010N23       000230400K 10000000010000000685           
CUS0218770000102323513008         SERBONICH, JACOB    3552 BUENA VISTA AVE                    000N        CARE OF             
MTR02187700001000000000000000RA              11428616    005800150000001500000570000003NN  NNW 000                       N    
RDG02187700WATRL000000004K00000000000001548015401312015100016N000000000000N23       000210400K 10000000010000001540           
CUS0218770000102323514006         LAMBERT, LYNDA CASE 3550 BUENA VISTA AVE                    000N        CARE OF             
MTR02187700001000000000000000RA              29686156    005800160000001600000520000003NN  NNW 000                       N    
RDG02187700WATRL000000004K00000000000001712015501312015100044N000000000000N23       000280400K 10000000010000001708           
CUS0218770000102323515003         MCLEAN, JASON       3548 BUENA VISTA AVE                    000N        CARE OF             
MTR02187700001000000000000000RA              24770017    005800170000001700000520000003NN  NNW 000                       N    
RDG02187700WATRL000000004K00000000000003793015601312015100105N000000000000N23       000210400K 10000000010000003771           
CUS0218770000102323516001         BONNY R ROBBINS ETAL3546 BUENA VISTA AVE                    000N        CARE OF             
MTR02187700001000000000000000RA              26002812    005800180000001800000520000003NN  NNW 000                       N    
RDG02187700WATRL000000004K00000000000005069015701312015100127N000000000000N23       000220400K 10000000010000005032           
CUS0218770000102323517009         GOODMAN, MARY SUSAN 3544 BUENA VISTA AVE                    000N        CARE OF             
MTR02187700001000000000000000RA              01090891    005800190000001900000610000003NN  NNW 000                       N    
RDG02187700WATRL000000004K00000000000000334015801312015100145N000000000000N23       000180400K 10000000010000000332           
CUS0218770000102323518007         GOMEZ, CORINA       3542 BUENA VISTA AVE                    000N        CARE OF             
MTR02187700001000000000000000RA              24770821    005800200000002000000520000003NN  NNW 000                       N    
RDG02187700WATRL000000004K00000000000002652015901312015100206N000000000000N23       000210400K 10000000010000002636           
CUS0218770000102323519005         CREAMER, KATHRYN E  3540 BUENA VISTA AVE                    000N        CARE OF             
MTR02187700001000000000000000RA              14901422    005800210000002100000310000003NN  NNW 000                       N    
RDG02187700WATRL000000004K00000000000000760016001312015100236N000000000000N23       000300400K 10000000010000000749           
CUS0218770000102323520003         REGINA F MERSON     3538 BUENA VISTA AVE                    000N        CARE OF             
MTR02187700001000000000000000RA              30517094    005800220000002200000520000003NN  NNW 000                       N    
RDG02187700WATRL000000004K00000000000002596016101312015100305N000000000000N23       000290400K 10000000010000002584           
CUS0218770000102323521001         ELLISON, DAVID      3536 BUENA VISTA AVE                    000N        CARE OF             
MTR02187700001000000000000000RA              01090896    005800230000002300000610000003NN  NNW 000                       N    
RDG02187700WATRL000000004K00000000000000423016201312015100327N000000000000N23       000220400K 10000000010000000409           
CUS0218770000102323522009         SULLY, JENNIFER L.  3534 BUENA VISTA AVE                    000N        CARE OF             
MTR02187700001000000000000000RA              01090968    005800240000002400000610000003NN  NNW 000                       N    
RDG02187700WATRL000000004K00000000000000208016301312015100349N000000000000N23       000220400K 10000000010000000205           
CUS0218770000102323523007         DENNIS L MATHEWS    3532 BUENA VISTA AVE                    000N        CARE OF             
MTR02187700001000000000000000RA              01091025    005800250000002500000610000003NN  NNW 000                       N    
RDG02187700WATRL000000004K00000000000000957016401312015100424N000000000000N23       000350400K 10000000010000000945           
CUS0218770000102323525002         HUNT, JUDY A.       3528 BUENA VISTA AVE                    000N        CARE OF             
MTR02187700001000000000000000RA              45386631    005800270000002700000520000003NN  NNW 000                       N    
RDG02187700WATRL000000004K00000000000001437016501312015100452N000300000010N23       000280400K 10000000010000001403           
CUS0218770000102323526000         HARRINGTON, SEAN PAT3526 BUENA VISTA AVE                    000N        CARE OF             
MTR02187700001000000000000000RA              31583070    005800280000002800000520000003NN  NNW 000                       N    
RDG02187700WATRL000000004K00000000000002456016601312015100550N000300000010N23       000580400K 10000000010000002457           
CUS0218770000102323527008         DOBBIE, CHRISTOPHER 3524 BUENA VISTA AVE                    000N        CARE OF             
MTR02187700001000000000000000RA              44093459    005800290000002900000520000003NN  NNW 000                       N    
RDG02187700WATRL000000004K00000000000001349016701312015100610N000000000000N23       000200400K 10000000010000001340           
CUS0218770000102323528006         HAMILTON SELECT LLC 3522 BUENA VISTA AVE                    000N        CARE OF             
MTR02187700001000000000000000RA              24770273    005800300000003000000520000003NN  NNW 000   VACANT PROPERTY     N    
RDG02187700WATRL000000004K00000000000003797016801312015100622N000000000000N23       000120400K 10000000010000003797           
CUS0218770000102323529004         EDWARDS, CHRISTA L. 3520 BUENA VISTA AVE                    000N        CARE OF             
MTR02187700001000000000000000RA              75613998    005800310000003100000350000000NN  NNW 000                       N    
RDG02187700WATRL000000004K00000000000000119016901312015100645N000300000010N23       000230400K 10000000010000000079           
CUS0218770000102323530002         BERNHEIMER, TIMOTHY 3518 BUENA VISTA AVE                    000N        CARE OF             
MTR02187700001000000000000000RA              41088336    005800320000003200000520000003NN  NNW 000                       N    
RDG02187700WATRL000000004K00000000000002224017001312015100705N000000000000N23       000200400K 10000000010000002212           
CUS0218770000102323531000         EMIL R BYERS & WF   3514 BUENA VISTA AVE                    000N        CARE OF             
MTR02187700001000000000000000RA              99392333    005800330000003300000570000003NN  NNW 000                       N    
RDG02187700WATRL000000004K00000000000000877017101312015100728N000000000000N23       000230400K 10000000010000000857           
CUS0218770000102323532008         SINAGRA, BRYAN      3512 BUENA VISTA AVE                    000N        CARE OF             
MTR02187700001000000000000000RA              23050973    005800340000003400000520000003NN  NNW 000                       N    
RDG02187700WATRL000000004K00000000000004872017201312015100804N000000000001N23       000060400K 10000000010000004861           
CUS0218770000102323533006         MARK T WAREHIME     3510 BUENA VISTA AVE                    000N        CARE OF             
MTR02187700001000000000000000RA              24231246    005800350000003500000520000003NN  NNW 000                       N    
RDG02187700WATRL000000004K00000000000004516017301312015100829N000000000000N23       000250400K 10000000010000004502           
CUS0218770000102323534004         LACY SR, JAMES      3508 BUENA VISTA AVE                    000N        CARE OF             
MTR02187700001000000000000000RA              45389082    007500360000003600000520000003NN  NNW 000                       N    
RDG02187700WATRL000000004K00000000000001795017401312015100853N000000000000N23       000240400K 10000000010000001766           
CUS0218770000102323535001         ROBERT J. FULLER    3504 BUENA VISTA AVE                    000N        CARE OF             
MTR02187700001000000000000000RA              26014427    005800370000003700000520000003NN  NNW 000                       N    
RDG02187700WATRL000000004K00000000000001750017501312015100914N000000000000N23       000210400K 10000000010000001749           
CUS0218770000102323536009         CUMMINS, CRAIG J.   3502 BUENA VISTA AVE                    000N        CARE OF             
MTR02187700001000000000000000RA              00117819    007500380000003800000570000003NN  NNW 000                       N    
RDG02187700WATRL000000004K00000000000001059017601312015100938N000000000000N23       000240400K 10000000010000001041           
CUS0218770000102323537007         STRUEVER, FREDERICK 3500 BUENA VISTA AVE                    000N        CARE OF             
MTR02187700001000000000000000RA              27893465    007500390000003900000520000003NN  NNW 000                       N    
RDG02187700WATRL000000004K00000000000002727017701312015101028N000000000000N23       000500400K 10000000010000002718           
CUS0218770000102323538005         JOY FAMILY LIMITED P3501 BUENA VISTA AVE                    000N        CARE OF             
MTR02187700001000000000000000RA              29069398    007500400000004000000520000003NN  NNW 000                       N    
RDG02187700WATRL000000004K00000000000001790017801312015101116N000000000000N23       000480400K 10000000010000001785           
CUS0218770000102323539003         LEIGHTON FREEMAN    3505 BUENA VISTA AVE                    000N        CARE OF             
MTR02187700001000000000000000RA              41257205    005800410000004100000520000003NN  NNW 000                       N    
RDG02187700WATRL000000004K00000000000002421017901312015101139N000000000000N23       000230400K 10000000010000002401           
CUS0218770000102323540001         MANASSE, MICHELLE EI3507 BUENA VISTA AVE                    000N        CARE OF             
MTR02187700001000000000000000RA              26008428    005800420000004200000520000003NN  NNW 000                       N    
RDG02187700WATRL000000004K00000000000002034018001312015101201N000300000010N23       000220400K 10000000010000002027           
CUS0218770000102323541009         VEITH, SHARON M     3511 BUENA VISTA AVE                    000N        CARE OF             
MTR02187700001000000000000000RA              24763457    005800430000004300000520000003NN  NNW 000                       N    
RDG02187700WATRL000000004K00000000000002017018101312015101241N000000000000N23       000400400K 10000000010000002004           
CUS0218770000102323542007         VERNON E WAREHIME   3515 BUENA VISTA AVE                    000N        CARE OF             
MTR02187700001000000000000000RA              99392329    005800440000004400000570000003NN  NNW 000                       N    
RDG02187700WATRL000000004K00000000000000408018201312015101304N000000000000N23       000230400K 10000000010000000405           
CUS0218770000102323543005         RONALD K CASHION    3517 BUENA VISTA AVE                    000N        CARE OF             
MTR02187700001000000000000000RA              41588968    005800450000004500000520000003NN  NNW 000                       N    
RDG02187700WATRL000000004K00000000000002759018301312015101324N000000000000N23       000200400K 10000000010000002743           
CUS0218770000102323544003         SCHMIDT JR, DENNIS R3519 BUENA VISTA AVE                    000N        CARE OF             
MTR02187700001000000000000000RA              10022487    005800460000004600000570000003NN  NNW 000                       N    
RDG02187700WATRL000000004K00000000000000089018401312015101347N000000000000N23       000230400K 10000000010000000081           
CUS0218770000102323545000         HOWARD, DENNIS G.   3521 BUENA VISTA AVE                    000N        CARE OF             
MTR02187700001000000000000000RA              26012052    005800470000004700000520000003NN  NNW 000                       N    
RDG02187700WATRL000000004K00000000000000795018501312015101408N000000000000N23       000210400K 10000000010000000781           
CUS0218770000102323546008         RANGER SOCIAL CLUB I3523 BUENA VISTA AVE                    000N        CARE OF             
MTR02187700001000000000000000RA              52292483    007500480000004800000520000003NN  NNW 000                       N    
RDG02187700WATRL000000004K00000000000000815018601312015101440N000000000000N23       000320400K 10000000010000000808           
CUS0218770000102323547006         CARTER, TIMOTHY H.  3537 BUENA VISTA AVE                    000N        CARE OF             
MTR02187700001000000000000000RA              00117820    007500490000004900000570000003NN  NNW 000                       N    
RDG02187700WATRL000000004K00000000000000746018901312015101708N000400000020N23       000250400K 10000000010000000741           
CUS0218770000102323548004         WAREHIME, ROBERT L  3531 BUENA VISTA AVE                    000N        CARE OF             
MTR02187700001000000000000000RA              10012174    005800500000005000000570000003NY  NNW 000                       N    
MTM0218770010012174    cleanoutvault                                                                                          
RDG02187700WATRL000000004K00000000000000000000000000000000000 000000000000U         000000400  10000000010000000231           
CUS0218770000102323549002         WAREHIME, ROBERT L  3533 BUENA VISTA AVE                    000N        CARE OF             
MTR02187700001000000000000000RA              35110858    005800510000005100000520000003NN  NNW 000                       N    
RDG02187700WATRL000000004K00000000000002344018701312015101539N000000000000N23       000590400K 10000000010000002337           
CUS0218770000102323550000         SNYDER, EUGENE J. JR3535 BUENA VISTA AVE                    000N        CARE OF             
MTR02187700001000000000000000RA              35110857    005800520000005200000520000003NN  NNW 000                       N    
RDG02187700WATRL000000004K00000000000001789018801312015101643N000000000000N23       000640400K 10000000010000001783           
CUS0218770000102323551008         CHRISTOPHER M CORCHI3539 BUENA VISTA AVE                    000N        CARE OF             
MTR02187700001000000000000000RA              31345777    007500530000005300000520000003NN  NNW 000                       N    
RDG02187700WATRL000000004K00000000000002856019001312015101734N000000000000N23       000260400K 10000000010000002834           
CUS0218770000102323552006         HOWARD, DENNIS G    3551 BUENA VISTA AVE                    000N        CARE OF             
MTR02187700001000000000000000RA              00117585    007500540000005400000570000003NN  NNW 000                       N    
RDG02187700WATRL000000004K00000000000002613019101312015101815N000000000000N23       000410400K 10000000010000002581           
CUS0218770000102323553004         BOSLEY, KENNETH W   3553 BUENA VISTA AVE                    000N        CARE OF             
MTR02187700001000000000000000RA              01091029    005800550000005500000610000003NN  NNW 000                       N    
RDG02187700WATRL000000004K00000000000000831019201312015101837N000000000000N23       000220400K 10000000010000000817           
CUS0218770000102323554002         PESSARO, TERESA LYNN3555 BUENA VISTA AVE                    000N        CARE OF             
MTR02187700001000000000000000RA              41087850    005800560000005600000520000003NN  NNW 000                       N    
RDG02187700WATRL000000004K00000000000001106019301312015101906N000000000000N23       000290400K 10000000010000001106           
CUS0218770000102323555009         VANCE, JOHN R.      3557 BUENA VISTA AVE                    000N        CARE OF             
MTR02187700001000000000000000RA              01110731    005800570000005700000610000003NN  NNW 000                       N    
RDG02187700WATRL000000004K00000000000000642019401312015101927N000000000000N23       000210400K 10000000010000000628           
CUS0218770000102323556007         COTE, GREGORY F.    1431 W 36TH ST                          000N        CARE OF             
MTR02187700001000000000000000RA              24770828    005800580000005800000520000003NN  NNW 000                       N    
RDG02187700WATRL000000004K00000000000002255019501312015101956N000000000000N23       000290400K 10000000010000002245           
CUS0218770000102323557005         STEIN, SUSAN A      1429 W 36TH ST                          000N        CARE OF             
MTR02187700001000000000000000RA              01095088    005800590000005900000610000003NN  NNW 000                       N    
RDG02187700WATRL000000004K00000000000000594019601312015102101N000000000010N23       000650400K 10000000010000000593           
CUS0218770000102323558003         PHYLES, WILBUR H    1427 W 36TH ST                          000N        CARE OF             
MTR02187700001000000000000000RA              24769754    005800600000006000000520000003NN  NNW 000                       N    
RDG02187700WATRL000000004K00000000000003737019701312015102117N000000000000N23       000160400K 10000000010000003737           
CUS0218770000102323559001         SCHAFER, RAYMOND N. 1425 W 36TH ST                          000N        CARE OF             
MTR02187700001000000000000000RA              76346662    005800610000006100000350000003NN  NNW 000                       N    
RDG02187700WATRL000000004K00000000000000000019801312015102138N000000000000N23       000210400K 10000000010000000000           
CUS0218770000102323560009         SCHAFER, RAYMOND N. 1423 W 36TH ST                          000N        CARE OF             
MTR02187700001000000000000000RA              99287322    005800620000006200000570000003NN  NNW 000                       N    
RDG02187700WATRL000000004K00000000000000907019901312015102157N000000000000N23       000190400K 10000000010000000878           
CUS0218770000102323561007         MIRIAM E SZELISTOWSK1419 W 36TH ST                          000N        CARE OF             
MTR02187700001000000000000000RA              27266739    005800630000006300000520000003NN  NNW 000                       N    
RDG02187700WATRL000000004K00000000000002564020001312015102223N000000000000N23       000260400K 10000000010000002541           
CUS0218770000102323565008         DEWITT, CAROL LYNN  3521 SWEET AIR ST                       000N        CARE OF             
MTR02187700001000000000000000RA              33181061    007500640000006400000520000003NN  NNW 000   VACANT PROPERTY     N    
RDG02187700WATRL000000004K00000000000002871020101312015102233N000000000000N23       000100400K 10000000010000002871           
CUS0218770000102323566006         DEWITT, CAROL LYNN  3523 SWEET AIR ST                       000N        CARE OF             
MTR02187700001000000000000000RA              27676511    007500650000006500000520000003NN  NNW 000   VACANT PROPERTY     N    
RDG02187700WATRL000000004K00000000000003348020201312015102237N000000000000N23       000040400K 10000000010000003348           
CUS0218770000102323569000         YAKE, MATTHEW       3549 SWEET AIR ST                       000N        CARE OF             
MTR02187700001000000000000000RA              01093067    005800660000006600000610000003NY  NNW 000                       N    
MTM0218770001093067    4x18stuck                                                                                              
RDG02187700WATRL000000004K00000000000000000000000000000000000 000000000000U         000000400  10000000010000000536           
CUS0218770000102323570008         CAMPBELL, PATRICIA K3551 SWEET AIR ST                       000N        CARE OF             
MTR02187700001000000000000000RA              01093065    005800670000006700000610000003NN  NNW 000                       N    
RDG02187700WATRL000000004K00000000000000325020301312015102446N000000000010N23       001290400K 10000000010000000322           
CUS0218770000102323571006         MALICKI, PATRICIA KA3553 SWEET AIR ST                       000N        CARE OF             
MTR02187700001000000000000000RA              99392334    005800680000006800000570000003NY  NNW 000                       N    
MTM0218770099392334    4x18stuck                                                                                              
RDG02187700WATRL000000004K00000000000000000000000000000000000 000000000000U         000000400  10000000010000000770           
CUS0218770000102323572004         SCHLEEWEIS, KAREN   3555 SWEET AIR ST                       000N        CARE OF             
MTR02187700001000000000000000RA              01091028    005800690000006900000610000003NY  NNW 000                       N    
MTM0218770001091028    4x18stuck                                                                                              
RDG02187700WATRL000000004K00000000000000000000000000000000000 000000000000U         000000400  10000000010000000423           
CUS0218770000102323573002         ROGERS-MOORE, BEVERL3557 SWEET AIR ST                       000N        CARE OF             
MTR02187700001000000000000000RA              01093062    005800700000007000000610000003NY  NNW 000                       N    
MTM0218770001093062    4x18stuck                                                                                              
RDG02187700WATRL000000004K00000000000000000000000000000000000 000000000000U         000000400  10000000010000000604           
CUS0218770000102323574000         SINGH, SARWAN       1411 W 36TH ST                          000N        CARE OF             
MTR02187700001000000000000000RA              29121884    007500710000007100000520000003NN  NNW 000                       N    
RDG02187700WATRL000000004K00000000000005396020401312015102754N000000000000N23       001880400K 10000000010000005396           
CUS0218770000102323575007         NELSON, ADAM J      1407 W 36TH ST                          000N        CARE OF             
MTR02187700001000000000000000RA              32901900    005800720000007200000520000003NN  NNW 000                       N    
RDG02187700WATRL000000004K00000000000002620020501312015102830N000000000000N23       000360400K 10000000010000002589           
CUS0218770000102323576005         KLOCK, KRISTINA ANN 1403 W 36TH ST                          000N        CARE OF             
MTR02187700001000000000000000RA              29069138    007500730000007300000520000003NN  NNW 000                       N    
RDG02187700WATRL000000004K00000000000000947020601312015102849N000000000000N23       000190400K 10000000010000000941           
CUS0218770000102323577003         PENNINGTON, ARLIE J 1401 W 36TH ST                          000N        CARE OF             
MTR02187700001000000000000000RA              29994960    007500740000007400000520000003NN  NNW 000                       N    
RDG02187700WATRL000000004K00000000000002358020701312015102854N000400000010N23       000050400K 10000000010000002350           
CUS0218770000102323578001         WOODBERRY CHURCH OF 3580 POOLE ST                           000N        CARE OF             
MTR02187700001000000000000000RA              45388387    007500750000007500000520000003NN  NNW 000                       N    
RDG02187700WATRL000000004K00000000000000265020801312015102948N000000000000N23       000540400K 10000000010000000263           
CUS0218770000102323579009         VIRGINIA E KNOTT ETA3578 POOLE ST                           000N        CARE OF             
MTR02187700001000000000000000RA              99290710    005800760000007600000570000003NN  NNW 000                       N    
RDG02187700WATRL000000004K00000000000000463020901312015103008N000000000000N23       000200400K 10000000010000000460           
CUS0218770000102323580007         HARDING, BEVERLY L  3576 POOLE ST                           000N        CARE OF             
MTR02187700001000000000000000RA              99290674    005800770000007700000570000003NN  NNW 000                       N    
RDG02187700WATRL000000004K00000000000000861021001312015103026N000000000000N23       000180400K 10000000010000000845           
CUS0218770000102323581005         KENNETH N THOMAS    3572 POOLE ST                           000N        CARE OF             
MTR02187700001000000000000000RA              99290640    005800780000007800000570000003NN  NNW 000                       N    
RDG02187700WATRL000000004K00000000000000362021101312015103101N000000000000N23       000350400K 10000000010000000358           
CUS0218770000102323582003         ALMOND, ROBERT D    1400 YEAGER ST                          000N        CARE OF             
MTR02187700001000000000000000RA              01091021    005800790000007900000610000003NN  NNW 000                       N    
RDG02187700WATRL000000004K00000000000000308021201312015103141N000000000000N23       000400400K 10000000010000000305           
CUS0218770000102323583001         PARKER, JESSICA A.  1402 YEAGER ST                          000N        CARE OF             
MTR02187700001000000000000000RA              50481036    005800800000008000000520000003NN  NNW 000                       N    
RDG02187700WATRL000000004K00000000000000626021301312015103209N000000000000N23       000280400K 10000000010000000607           
CUS0218770000102323584009         MATHIAS, SHERRY ANN 3570 POOLE ST                           000N        CARE OF             
MTR02187700001000000000000000RA              52288757    005800810000008100000520000003NN  NNW 000                       N    
RDG02187700WATRL000000004K00000000000000633021401312015103252N000000000000N23       000430400K 10000000010000000620           
CUS0218770000102323585006         BURKE JR, JOHN P    3568 POOLE ST                           000N        CARE OF             
MTR02187700001000000000000000RA              10010837    005800820000008200000570000003NN  NNW 000                       N    
RDG02187700WATRL000000004K00000000000000188021501312015103317N000000000000N23       000250400K 10000000010000000176           
CUS0218770000102323586004         MORGAN, LORETTA M   3566 POOLE ST                           000N        CARE OF             
MTR02187700001000000000000000RA              24759494    005800830000008300000520000003NN  NNW 000                       N    
RDG02187700WATRL000000004K00000000000001979021601312015103417N000300000010N23       000600400K 10000000010000002008           
CUS0218770000102323587002         MORGAN, TERRY J     3564 POOLE ST                           000N        CARE OF             
MTR02187700001000000000000000RA              42808290    005800840000008400000520000003NN  NNW 000                       N    
RDG02187700WATRL000000004K00000000000002516021701312015103437N000000000000N23       000200400K 10000000010000002506           
CUS0218770000102323588000         ANNA K DAVIS        3562 POOLE ST                           000N        CARE OF             
MTR02187700001000000000000000RA              42808291    005800850000008500000520000003NN  NNW 000                       N    
RDG02187700WATRL000000004K00000000000000905021801312015103455N000000000000N23       000180400K 10000000010000000888           
CUS0218770000102323589008         MAAS, DARREN        3560 POOLE ST                           000N        CARE OF             
MTR02187700001000000000000000RA              24959492    005800860000008600000520000003NN  NNW 000                       N    
RDG02187700WATRL000000004K00000000000003421021901312015103524N000300000010N23       000290400K 10000000010000003411           
CUS0218770000102323590006         DWYER, STEVEN E.    3558 POOLE ST                           000N        CARE OF             
MTR02187700001000000000000000RA              29681816    005800870000008700000520000003NN  NNW 000                       N    
RDG02187700WATRL000000004K00000000000001134022001312015103553N000000000000N23       000290400K 10000000010000001130           
CUS0218770000102323591004         MOON, TRAVIS W.     3556 POOLE ST                           000N        CARE OF             
MTR02187700001000000000000000RA              40049100    005800880000008800000520000003NN  NNW 000                       N    
RDG02187700WATRL000000004K00000000000001964022101312015103615N000000000000N23       000220400K 10000000010000001953           
CUS0218770000102323592002         STACK, DANIEL       3554 POOLE ST                           000N        CARE OF             
MTR02187700001000000000000000RA              01112850    005800890000008900000610000003NN  NNW 000                       N    
RDG02187700WATRL000000004K00000000000000726022201312015103639N000400000010N23       000240400K 10000000010000000722           
CUS0218770000102323593000         AGNER, ERIC G.      3552 POOLE ST                           000N        CARE OF             
MTR02187700001000000000000000RA              42808288    005800900000009000000520000003NN  NNW 000                       N    
RDG02187700WATRL000000004K00000000000000701022301312015103705N000000000000N23       000260400K 10000000010000000700           
CUS0218770000102323594008         PHILLIPS, ROLAND S. 3550 POOLE ST                           000N        CARE OF             
MTR02187700001000000000000000RA              52288751    005800910000009100000520000003NN  NNW 000                       N    
RDG02187700WATRL000000004K00000000000000364022401312015103735N000000000000N23       000300400K 10000000010000000357           
CUS0218770000102323595005         POLONSKY, BEVERLY L 3548 POOLE ST                           000N        CARE OF             
MTR02187700001000000000000000RA              26011952    005800920000009200000520000003NN  NNW 000                       N    
RDG02187700WATRL000000004K00000000000004040022501312015103758N000000000000N23       000230400K 10000000010000004023           
CUS0218770000102323596003         OWENS, JEAN E.      3546 POOLE ST                           000N        CARE OF             
MTR02187700001000000000000000RA              24769085    005800930000009300000520000003NN  NNW 000                       N    
RDG02187700WATRL000000004K00000000000002236022601312015103818N000000000000N23       000200400K 10000000010000002227           
CUS0218770000102323597001         OWENS, JEAN ELIZABET3544 POOLE ST                           000N        CARE OF             
MTR02187700001000000000000000RA              40049090    005800940000009400000520000003NN  NNW 000                       N    
RDG02187700WATRL000000004K00000000000001797022701312015103834N000000000000N23       000160400K 10000000010000001789           
CUS0218770000102323598009         ATKINS, DONOVAN EDWA3540 POOLE ST                           000N        CARE OF             
MTR02187700001000000000000000RA              27823919    005800950000009500000520000003NN  NNW 000                       N    
RDG02187700WATRL000000004K00000000000002022022801312015103859N000000000000N23       000250400K 10000000010000002008           
CUS0218770000102323599007         PNC BANK, NATIONAL A3538 POOLE ST                           000N        CARE OF             
MTR02187700001000000000000000RA              46884926    005800960000009600000520000003NN  NNW 000                       N    
RDG02187700WATRL000000004K00000000000001166022901312015103927N000100000010N23       000280400K 10000000010000001166           
CUS0218770000102323600003         BURKE III, JOHN P.  3536 POOLE ST                           000N        CARE OF             
MTR02187700001000000000000000RA              00117940    007500970000009700000570000003NN  NNW 000                       N    
RDG02187700WATRL000000004K00000000000001356023001312015103957N000100000010N23       000300400K 10000000010000001356           
CUS0218770000102323601001         ZINKHAN, BLANCA BEAT3534 POOLE ST                           000N        CARE OF             
MTR02187700001000000000000000RA              25762731    007500980000009800000520000003NN  NNW 000                       N    
RDG02187700WATRL000000004K00000000000004898023101312015104030N000000000000N23       000330400K 10000000010000004867           
CUS0218770000102323602009         NEWKIRK, KATHERINE  3528 POOLE ST                           000N        CARE OF             
MTR02187700001000000000000000RA              42810709    005800990000009900000520000003NN  NNW 000                       N    
RDG02187700WATRL000000004K00000000000001890023201312015104107N000000000000N23       000370400K 10000000010000001875           
CUS0218770000102323603007         SINGH, KEHAR        3526 POOLE ST                           000N        CARE OF             
MTR02187700001000000000000000RA              99392331    005801000000010000000570000003NN  NNW 000                       N    
RDG02187700WATRL000000004K00000000000002280023301312015104139N000000000000N23       000320400K 10000000010000002218           
