FHDNNNN002000473000473000473N                                                                                           001434
RHD06921400NN02840284000002840000000002840284000524NY028402840284001000000000000000000000000002    02022015NY020000 N         
CUS0692140000106092917001         DOERFLER RICHARD W,S957 S MARLYN AVE                        000N        CARE OF             
MTR06921400001000000000000000RA              52769378    005800010000000100000520000003NN  NNW 000                       N    
RDG06921400WATRL000000004K00000000000001356000303022015094813N000000000000N65       000000400K 10000000010000001342           
CUS0692140000106092916003         JACKMAN JAMES R     959 S MARLYN AVE                        000N        CARE OF             
MTR06921400001000000000000000RA              75425465    005800020000000200000350000003NN  NNW 000                       N    
RDG06921400WATRL000000004K00000000000000149000103022015094955N000000000000N65       001020400K 10000000010000000124           
CUS0692140000106092915005         WILEY TIMOTHY B     961 S MARLYN AVE                        000N        CARE OF             
MTR06921400001000000000000000RA              20767164    005800030000000300000520000003NN  NNW 000                       N    
RDG06921400WATRL000000004K00000000000005332000203022015095012N000000000000N65       000170400K 10000000010000005320           
CUS0692140000106092914008         AFFELDT SHAWN EDWARD963 S MARLYN AVE                        000N        CARE OF             
MTR06921400001000000000000000RA              23056072    005800040000000400000520000003NN  NNW 000                       N    
RDG06921400WATRL000000004K00000000000006940000403022015095016N000000000000N65       000040400K 10000000010000006909           
CUS0692140000106092913000         BROWN ANNETTE T     954 BAYNER RD                           000N        CARE OF             
MTR06921400001000000000000000RA              20767017    005800050000000500000520000003NN  NNW 000                       N    
RDG06921400WATRL000000004K00000000000005545000503022015100307N000000000000N65       007710400K 10000000010000005529           
CUS0692140000106092912002         SZYMEZAK WILLIAM    952 BAYNER RD                           000N        CARE OF             
MTR06921400001000000000000000RA              24758410    005800060000000600000520000003NN  NNW 000                       N    
RDG06921400WATRL000000004K00000000000002395000703022015101027N000000000000N65       000920400K 10000000010000002379           
CUS0692140000106092911004         FROST REX A         950 BAYNER RD                           000N        CARE OF             
MTR06921400001000000000000000RA              77988465    005800070000000700000360000003NN  NNW 000                       N    
RDG06921400WATRL000000004K00000000000000000000803022015101155N000000000000N65       000880400K 10000000010000000000           
CUS0692140000106092910006         REGULSKI HENRY LOUIS948 BAYNER RD                           000N        CARE OF             
MTR06921400001000000000000000RA              20767677    005800080000000800000520000003NN  NNW 000                       N    
RDG06921400WATRL000000004K00000000000004995000603022015100855N000000000000N65       003480400K 10000000010000004995           
CUS0692140000106092909008         FRANCE YONG CHE     947 BAYNER RD                           000N        CARE OF             
MTR06921400001000000000000000RA              01075518    005800090000000900000610000003NY  NNW 000                       N    
MTM0692140001075518    FROZEN VAULT                                                                                           
RDG06921400WATRL000000004K00000000000001715008303032015105432N000000000000U40       008890400K 10000000010000001710           
CUS0692140000106092908000         SMITH TRINA V       949 BAYNER RD                           000N        CARE OF             
MTR06921400001000000000000000RA              50786349    005800100000001000000520000003NN  NNW 000                       N    
RDG06921400WATRL000000004K00000000000001838001003022015101518N000000000000N65       000080400K 10000000010000001825           
CUS0692140000106092907002         THOMAS BROWN        951 BAYNER RD                           000N        CARE OF             
MTR06921400001000000000000000RA              27828379    005800110000001100000520000003NN  NNW 000                       N    
RDG06921400WATRL000000004K00000000000007265000903022015101510N000000000000N65       001950400K 10000000010000007253           
CUS0692140000106092906004         RICHARD C ATZROTT   953 BAYNER RD                           000N        CARE OF             
MTR06921400001000000000000000RA              20767013    005800120000001200000520000003NY  NNW 000                       N    
MTM0692140020767013    FROZEN VAULT                                                                                           
RDG06921400WATRL000000004K00000000000006789008403032015105529N000000000000U40       000570400K 10000000010000006768           
CUS0692140000106092905006         ANSUMANA THOMAS     906 FOXWOOD LN                          000N        CARE OF             
MTR06921400001000000000000000RA              39290913    005800130000001300000520000003NN  NNW 000                       N    
RDG06921400WATRL000000004K00000000000004445001103022015102032N000000000000N65       003140400K 10000000010000004410           
CUS0692140000106092904009         GARDNER TOMMY L     908 FOXWOOD LN                          000N        CARE OF             
MTR06921400001000000000000000RA              39290911    005800140000001400000520000003NN  NNW 000                       N    
RDG06921400WATRL000000004K00000000000001898000503022015102056N000000000000N65       000240400K 10000000010000001865           
CUS0692140000106092903001         CAMPAGNA CASPER J   910 FOXWOOD LN                          000N        CARE OF             
MTR06921400001000000000000000RA              27823778    005800150000001500000520000003NN  NNW 000                       N    
RDG06921400WATRL000000004K00000000000003098000603022015102059N000000000000N65       000030400K 10000000010000003089           
CUS0692140000106092902003         BONGIORNO JOSEPH & K912 FOXWOOD LN                          000N        CARE OF             
MTR06921400001000000000000000RA              14923083    005800160000001600000310000003NN  NNW 000                       N    
RDG06921400WATRL000000004K00000000000000460001403022015102427N000000000000N65       002080400K 10000000010000000450           
CUS0692140000106092901005         PAYE WILLIMINA      914 FOXWOOD LN                          000N        CARE OF             
MTR06921400001000000000000000RA              01080216    005800170000001700000610000003NY  NNW 000                       N    
MTM0692140001080216    MTR BURIED                                                                                             
RDG06921400WATRL000000004K00000000000001483008503032015110418N000000000010U40       005290400K 10000000010000001455           
CUS0692140000106092900007         MYERS MICHAEL       916 FOXWOOD LN                          000N        CARE OF             
MTR06921400001000000000000000RA              46880367    005800180000001800000520000003NN  NNW 000                       N    
RDG06921400WATRL000000004K00000000000002673008603032015111236N000000000000U40       004980400K 10000000010000002655           
CUS0692140000106092899001         GOODWYN CLARENCE    918 FOXWOOD LN                          000N        CARE OF             
MTR06921400001000000000000000RA              00134571    005800190000001900000570000003NN  NNW 000                       N    
RDG06921400WATRL000000004K00000000000001171008703032015111435N000000000000U40       001190400K 10000000010000001161           
CUS0692140000106092898003         WHALEY ROBERT B     920 FOXWOOD LN                          000N        CARE OF             
MTR06921400001000000000000000RA              48582642    005800200000002000000520000003NN  NNW 000                       N    
RDG06921400WATRL000000004K00000000000002067008803032015111458N000000000000U40       000230400K 10000000010000002033           
CUS0692140000106092897005         ROBINSON DANIELLE N 922 FOXWOOD LN                          000N        CARE OF             
MTR06921400001000000000000000RA              21194883    005800210000002100000520000003NN  NNW 000                       N    
RDG06921400WATRL000000004K00000000000003152001703022015103248N000000000000N65       000510400K 10000000010000003129           
CUS0692140000106092896007         BURRIS LEE ROBIN    924 FOXWOOD LN                          000N        CARE OF             
MTR06921400001000000000000000RA              22608381    005800220000002200000520000003NN  NNW 000                       N    
RDG06921400WATRL000000004K00000000000005310001803022015103510N000000000000N65       001420400K 10000000010000005262           
CUS0692140000106092895009         BOA                 926 FOXWOOD LN                          000N        CARE OF             
MTR06921400001000000000000000RA              45377813    005800230000002300000520000003NN  NNW 000                       N    
RDG06921400WATRL000000004K00000000000003560000703022015103154N000000000000N65       004470400K 10000000010000003560           
CUS0692140000106092894002         SMITH INGA          928 FOXWOOD LN                          000N        CARE OF             
MTR06921400001000000000000000RA              29403905    005800240000002400000520000003NN  NNW 000                       N    
RDG06921400WATRL000000004K00000000000003733000803022015103157N000000000000N65       000030400K 10000000010000003707           
CUS0692140000106092893004         JONES GREGORY M,SR  930 FOXWOOD LN                          000N        CARE OF             
MTR06921400001000000000000000RA              50786340    005800250000002500000520000003NN  NNW 000                       N    
RDG06921400WATRL000000004K00000000000002043001903022015103708N000000000000N65       001180400K 10000000010000002012           
CUS0692140000106092892006         MEJIA ANGEL MORALES 932 FOXWOOD LN                          000N        CARE OF             
MTR06921400001000000000000000RA              40048050    005800260000002600000520000003NN  NNW 000                       N    
RDG06921400WATRL000000004K00000000000004280002003022015104030N000000000000N65       002020400K 10000000010000004226           
CUS0692140000106092891008         JOHNSON BRIAN C     950 KAYDEN LN                           000N        CARE OF             
MTR06921400001000000000000000RA              99188580    005800270000002700000570000003NN  NNW 000                       N    
RDG06921400WATRL000000004K00000000000001538000903022015104332N000300000010N65       001820400K 10000000010000001530           
CUS0692140000106092890000         MACHNIAK JAMES M    948 KAYDEN LN                           000N        CARE OF             
MTR06921400001000000000000000RA              41257548    005800280000002800000520000003NN  NNW 000                       N    
RDG06921400WATRL000000004K00000000000005992001003022015104344N000000000000N65       000120400K 10000000010000005903           
CUS0692140000106092889002         YORKER MORRIS E,JR  946 KAYDEN LN                           000N        CARE OF             
MTR06921400001000000000000000RA              41257544    005800290000002900000520000003NN  NNW 000                       N    
RDG06921400WATRL000000004K00000000000002462001103022015104401N000000000000N65       000170400K 10000000010000002435           
CUS0692140000106092888004         TEMPLE WALLACE      944 KAYDEN LN                           000N        CARE OF             
MTR06921400001000000000000000RA              50786347    005800300000003000000520000003NN  NNW 000                       N    
RDG06921400WATRL000000004K00000000000001949001203022015104441N000300000010N65       000400400K 10000000010000001886           
CUS0692140000106092887006         WALCOTT DAWN MICHELE955 KAYDEN LN                           000N        CARE OF             
MTR06921400001000000000000000RA              52285819    005800310000003100000520000003NN  NNW 000                       N    
RDG06921400WATRL000000004K00000000000000000000000000000000000 000000000000U         000000400  10000000010000001506           
CUS0692140000106092886008         KINCAID GEORGE F    957 KAYDEN LN                           000N        CARE OF             
MTR06921400001000000000000000RA              22608462    005800320000003200000520000003NN  NNW 000                       N    
RDG06921400WATRL000000004K00000000000005190001303022015104554N000000000000N65       000730400K 10000000010000005177           
CUS0692140000106092885000         AMRHEIN PHILIP B    959 KAYDEN LN                           000N        CARE OF             
MTR06921400001000000000000000RA              29403903    005800330000003300000520000003NN  NNW 000                       N    
RDG06921400WATRL000000004K00000000000002904001403022015104617N000000000000N65       000230400K 10000000010000002896           
CUS0692140000106092884003         BOHLE RITA HEDY     961 KAYDEN LN                           000N        CARE OF             
MTR06921400001000000000000000RA              10009368    005800340000003400000570000003NN  NNW 000                       N    
RDG06921400WATRL000000004K00000000000000000000000000000000000 000000000000U         000000400  10000000010000000244           
CUS0692140000106092883005         FRIEND MARC A,SR    1002 FOXWOOD LN                         000N        CARE OF             
MTR06921400001000000000000000RA              50786351    005800350000003500000520000003NN  NNW 000                       N    
RDG06921400WATRL000000004K00000000000002749001503022015121322N000000000000N65       029090400K 10000000010000002718           
CUS0692140000106092882007         MCBURNEY THOMAS C   1004 FOXWOOD LN                         000N        CARE OF             
MTR06921400001000000000000000RA              50786214    005800360000003600000520000003NN  NNW 000                       N    
RDG06921400WATRL000000004K00000000000001101001603022015121418N000000000000N65       000560400K 10000000010000001095           
CUS0692140000106092881009         HAGER DONALD R      1006 FOXWOOD LN                         000N        CARE OF             
MTR06921400001000000000000000RA              50786222    005800370000003700000520000003NN  NNW 000                       N    
RDG06921400WATRL000000004K00000000000000960001703022015121421N000000000000N65       000030400K 10000000010000000952           
CUS0692140000106092880001         BLACK CHRISTOPHER   1008 FOXWOOD LN                         000N        CARE OF             
MTR06921400001000000000000000RA              50786208    005800380000003800000520000003NN  NNW 000                       N    
RDG06921400WATRL000000004K00000000000003041004703022015121604N000000000000N65       001030400K 10000000010000003020           
CUS0692140000106092879003         OLESZCZUK DANIEL J,J1020 FOXWOOD LN                         000N        CARE OF             
MTR06921400001000000000000000RA              38887494    005800390000003900000520000003NN  NNW 000                       N    
RDG06921400WATRL000000004K00000000000003485001803022015121705N000000000000N65       000610400K 10000000010000003476           
CUS0692140000106092878005         BRECKENRIDGE JANET Y1022 FOXWOOD LN                         000N        CARE OF             
MTR06921400001000000000000000RA              41087384    005800400000004000000520000003NN  NNW 000                       N    
RDG06921400WATRL000000004K00000000000001670001903022015121805N000000000000N65       000600400K 10000000010000001661           
CUS0692140000106092877007         ELMOS PETER A       1024 FOXWOOD LN                         000N        CARE OF             
MTR06921400001000000000000000RA              48584949    005800410000004100000520000003NN  NNW 000                       N    
RDG06921400WATRL000000004K00000000000001733002003022015121808N000000000000N65       000030400K 10000000010000001733           
CUS0692140000106092876009         HAIN JOHN KONRAD    1026 FOXWOOD LN                         000N        CARE OF             
MTR06921400001000000000000000RA              26017377    005800420000004200000520000003NN  NNW 000                       N    
RDG06921400WATRL000000004K00000000000003287005103022015121857N000000000000N65       000490400K 10000000010000003264           
CUS0692140000106092875001         DONALDSON KEVIN     1028 FOXWOOD LN                         000N        CARE OF             
MTR06921400001000000000000000RA              24763174    005800430000004300000520000003NN  NNW 000                       N    
RDG06921400WATRL000000004K00000000000004933005203022015121903N000000000000N65       000060400K 10000000010000004898           
CUS0692140000106092874004         JUBB WILMA          1030 FOXWOOD LN                         000N        CARE OF             
MTR06921400001000000000000000RA              36697905    005800440000004400000520000003NN  NNW 000                       N    
RDG06921400WATRL000000004K00000000000001928005303022015122003N000000000000N65       000600400K 10000000010000001898           
CUS0692140000106092873006         JACKSON RHONDA S    1032 FOXWOOD LN                         000N        CARE OF             
MTR06921400001000000000000000RA              31587730    005800450000004500000520000003NN  NNW 000                       N    
RDG06921400WATRL000000004K00000000000002053005403022015122045N000000000000N65       000420400K 10000000010000002035           
CUS0692140000106092872008         HERNANDEZ PEDRO     1034 FOXWOOD LN                         000N        CARE OF             
MTR06921400001000000000000000RA              40781243    005800460000004600000520000003NN  NNW 000                       N    
RDG06921400WATRL000000004K00000000000001595002103022015122115N000000000000N65       000300400K 10000000010000001567           
CUS0692140000106092871000         EARHART MICHAEL R   1036 FOXWOOD LN                         000N        CARE OF             
MTR06921400001000000000000000RA              40781224    005800470000004700000520000003NN  NNW 000                       N    
RDG06921400WATRL000000004K00000000000002593002203022015122122N000300000010N65       000070400K 10000000010000002551           
CUS0692140000106092870002         RAINES JOHNNY EDWARD1038 FOXWOOD LN                         000N        CARE OF             
MTR06921400001000000000000000RA              40780866    005800480000004800000520000003NN  NNW 000                       N    
RDG06921400WATRL000000004K00000000000000647002303022015122201N000000000000N65       000390400K 10000000010000000639           
CUS0692140000106092869004         SHERMAN JAMES C,JR  1040 FOXWOOD LN                         000N        CARE OF             
MTR06921400001000000000000000RA              40780871    005800490000004900000520000003NN  NNW 000                       N    
RDG06921400WATRL000000004K00000000000003523002403022015122204N000000000000N65       000030400K 10000000010000003499           
CUS0692140000106092868006         FLORES MICHELLE     1042 FOXWOOD LN                         000N        CARE OF             
MTR06921400001000000000000000RA              00134572    005800500000005000000570000003NN  NNW 000                       N    
RDG06921400WATRL000000004K00000000000001041005903022015122218N000000000000N65       000140400K 10000000010000001006           
CUS0692140000106092867008         BURCH EMERY L       1044 FOXWOOD LN                         000N        CARE OF             
MTR06921400001000000000000000RA              50786238    005800510000005100000520000003NN  NNW 000                       N    
RDG06921400WATRL000000004K00000000000000678006203022015122456N000000000000N65       000350400K 10000000010000000673           
CUS0692140000106092866000         BUTLER GARY H       1046 FOXWOOD LN                         000N        CARE OF             
MTR06921400001000000000000000RA              45381683    005800520000005200000520000003NN  NNW 000                       N    
RDG06921400WATRL000000004K00000000000002151006003022015122418N000000000000N65       001200400K 10000000010000002151           
CUS0692140000106092865002         CALVI CHRISTOPHER LA1048 FOXWOOD LN                         000N        CARE OF             
MTR06921400001000000000000000RA              45381685    005800530000005300000520000003NN  NNW 000                       N    
RDG06921400WATRL000000004K00000000000001560006103022015122421N000000000000N65       000030400K 10000000010000001523           
CUS0692140000106092864005         ECKHARDT MARY JANE T1050 FOXWOOD LN                         000N        CARE OF             
MTR06921400001000000000000000RA              45381857    005800540000005400000520000003NN  NNW 000                       N    
RDG06921400WATRL000000004K00000000000001306002503022015122526N000000000000N65       000300400K 10000000010000001306           
CUS0692140000106092863007         VELASQUEZ JOSE      1052 FOXWOOD LN                         000N        CARE OF             
MTR06921400001000000000000000RA              45381684    005800550000005500000520000003NN  NNW 000                       N    
RDG06921400WATRL000000004K00000000000003236002603022015122529N000000000000N65       000030400K 10000000010000003221           
CUS0692140000106092862009         WHITE DAVID W       1054 FOXWOOD LN                         000N        CARE OF             
MTR06921400001000000000000000RA              50786198    005800560000005600000520000003NN  NNW 000                       N    
RDG06921400WATRL000000004K00000000000001418002703022015122559N000000000000N65       000300400K 10000000010000001406           
CUS0692140000106092861001         RAMNARINE DHANRAM   1100 FOXWOOD LN                         000N        CARE OF             
MTR06921400001000000000000000RA              42809846    005800570000005700000520000003NN  NNW 000                       N    
RDG06921400WATRL000000004K00000000000001732006803022015122717N000000000000N65       000160400K 10000000010000001714           
CUS0692140000106092860003         BAZEMORE KENNETH L  1102 FOXWOOD LN                         000N        CARE OF             
MTR06921400001000000000000000RA              76347340    005800580000005800000350000003NN  NNW 000                       N    
RDG06921400WATRL000000004K00000000000000014002803022015122655N000000000010N65       000560400K 10000000010000000000           
CUS0692140000106092859005         STARLITE REAL ESTATE1104 FOXWOOD LN                         000N        CARE OF             
MTR06921400001000000000000000RA              42809819    005800590000005900000520000003NN  NNW 000                       N    
RDG06921400WATRL000000004K00000000000003395002903022015122701N000000000010N65       000060400K 10000000010000003394           
CUS0692140000106092858007         FUNDERBURKE DONNA R 1106 FOXWOOD LN                         000N        CARE OF             
MTR06921400001000000000000000RA              42809850    005800600000006000000520000003NN  NNW 000                       N    
RDG06921400WATRL000000004K00000000000001978003003022015122740N000000000000N65       000230400K 10000000010000001962           
CUS0692140000106092857009         KEITER LYNN S       1108 FOXWOOD LN                         000N        CARE OF             
MTR06921400001000000000000000RA              42809814    005800610000006100000520000003NN  NNW 000                       N    
RDG06921400WATRL000000004K00000000000003079003103022015122743N000000000000N65       000030400K 10000000010000003070           
CUS0692140000106092856001         INCHES RICHARD A    1110 FOXWOOD LN                         000N        CARE OF             
MTR06921400001000000000000000RA              26001401    005800620000006200000520000003NN  NNW 000                       N    
RDG06921400WATRL000000004K00000000000005093003203022015122826N000000000000N65       000430400K 10000000010000005063           
CUS0692140000106092855003         GLADDEN TIFFANY E   1112 FOXWOOD LN                         000N        CARE OF             
MTR06921400001000000000000000RA              10003969    005800630000006300000570000003NN  NNW 000                       N    
RDG06921400WATRL000000004K00000000000000502007203022015122946N000000000000N65       000800400K 10000000010000000485           
CUS0692140000106092854006         MUCAJ AHMET         1114 FOXWOOD LN                         000N        CARE OF             
MTR06921400001000000000000000RA              45382035    005800640000006400000520000003NN  NNW 000                       N    
RDG06921400WATRL000000004K00000000000002273003303022015122948N000000000000N65       000020400K 10000000010000002233           
CUS0692140000106092853008         NATHAN D HOLLY      1116 FOXWOOD LN                         000N        CARE OF             
MTR06921400001000000000000000RA              45382033    005800650000006500000520000003NN  NNW 000                       N    
RDG06921400WATRL000000004K00000000000003325003403022015122951N000000000000N65       000030400K 10000000010000003237           
CUS0692140000106092852000         HESS JAMES L        1118 FOXWOOD LN                         000N        CARE OF             
MTR06921400001000000000000000RA              45383337    005800660000006600000520000003NN  NNW 000                       N    
RDG06921400WATRL000000004K00000000000000839003603022015123115N000000000000N65       000840400K 10000000010000000838           
CUS0692140000106092851002         WANEK ANTOINETTE E  1120 FOXWOOD LN                         000N        CARE OF             
MTR06921400001000000000000000RA              26005829    005800670000006700000520000003NN  NNW 000                       N    
RDG06921400WATRL000000004K00000000000001519003703022015123124N000000000000N65       000090400K 10000000010000001488           
CUS0692140000106092850004         SILWONUK NICHOLAS C 1122 FOXWOOD LN                         000N        CARE OF             
MTR06921400001000000000000000RA              38887495    005800680000006800000520000003NN  NNW 000                       N    
RDG06921400WATRL000000004K00000000000002452003503022015123135N000000000000N65       000110400K 10000000010000002438           
CUS0692140000106092849006         KISNER JOAN         1124 FOXWOOD LN                         000N        CARE OF             
MTR06921400001000000000000000RA              14902188    005800690000006900000310000003NN  NNW 000                       N    
RDG06921400WATRL000000004K00000000000000638008003022015123507N000000000000N65       001010400K 10000000010000000610           
CUS0692140000106092848008         EARLY WAYNE ALLEN   1126 FOXWOOD LN                         000N        CARE OF             
MTR06921400001000000000000000RA              00134593    005800700000007000000570000003NN  NNW 000                       N    
RDG06921400WATRL000000004K00000000000000868003803022015123322N000000000000N65       001070400K 10000000010000000850           
CUS0692140000106092847000         JOHNSON HENRY M,JR  1128 FOXWOOD LN                         000N        CARE OF             
MTR06921400001000000000000000RA              00134573    005800710000007100000570000003NN  NNW 000                       N    
RDG06921400WATRL000000004K00000000000001078003903022015123326N000000000000N65       000040400K 10000000010000001054           
CUS0692140000106092846002         HESS GEORGE W,SR    1130 FOXWOOD LN                         000N        CARE OF             
MTR06921400001000000000000000RA              45386758    005800720000007200000520000003NN  NNW 000                       N    
RDG06921400WATRL000000004K00000000000001355008203022015123646N000000000000N65       000200400K 10000000010000001346           
CUS0692140000106092845004         HARRY HORNEY JR     1132 FOXWOOD LN                         000N        CARE OF             
MTR06921400001000000000000000RA              14926174    005800730000007300000310000003NN  NNW 000                       N    
RDG06921400WATRL000000004K00000000000000198008303022015123656N000300000010N65       000100400K 10000000010000000268           
CUS0692140000106092844007         VETTEL WILLIAM T    1134 FOXWOOD LN                         000N        CARE OF             
MTR06921400001000000000000000RA              14908092    005800740000007400000310000003NN  NNW 000                       N    
RDG06921400WATRL000000004K00000000000000717004003022015123626N000000000000N65       000790400K 10000000010000000707           
CUS0692140000106092843009         HELMICK JESSICA C   1136 FOXWOOD LN                         000N        CARE OF             
MTR06921400001000000000000000RA              46877971    005800750000007500000520000003NN  NNW 000   VACANT / LOT        N    
RDG06921400WATRL000000004K00000000000001771004103022015123834N000000000000N65       000980400K 10000000010000001771           
CUS0692140000106092842001         KACHINSKI JOSEPH J  1138 FOXWOOD LN                         000N        CARE OF             
MTR06921400001000000000000000RA              22608415    005800760000007600000520000003NN  NNW 000                       N    
RDG06921400WATRL000000004K00000000000005137004203022015124058N000000000000N65       001440400K 10000000010000005120           
CUS0692140000106092841003         DONAHOE STEPHEN J   1140 FOXWOOD LN                         000N        CARE OF             
MTR06921400001000000000000000RA              46877256    005800770000007700000520000003NN  NNW 000                       N    
RDG06921400WATRL000000004K00000000000001154004303022015124104N000000000000N65       000060400K 10000000010000001123           
CUS0692140000106092840005         LITTLE DANIEL M     1142 FOXWOOD LN                         000N        CARE OF             
MTR06921400001000000000000000RA              30518856    005800780000007800000520000003NN  NNW 000                       N    
RDG06921400WATRL000000004K00000000000005020004402282015095327N000000000001N40       001460400K 10000000010000004994           
CUS0692140000106092839007         COTTON STEPHANIE N  1144 FOXWOOD LN                         000N        CARE OF             
MTR06921400001000000000000000RA              30518857    005800790000007900000520000003NN  NNW 000                       N    
RDG06921400WATRL000000004K00000000000003217004502282015095343N000000000000N40       000160400K 10000000010000003217           
CUS0692140000106092838009         STURM JOSEPH H      1146 FOXWOOD LN                         000N        CARE OF             
MTR06921400001000000000000000RA              26001825    005800800000008000000520000003NN  NNW 000                       N    
RDG06921400WATRL000000004K00000000000004165004603022015124238N000000000000N65       000940400K 10000000010000004162           
CUS0692140000106092837001         HORNE WILLIAM D     1148 FOXWOOD LN                         000N        CARE OF             
MTR06921400001000000000000000RA              01078638    005800810000008100000610000003NN  NNW 000                       N    
RDG06921400WATRL000000004K00000000000001625004703022015124759N000000000000N65       000410400K 10000000010000001594           
CUS0692140000106092836003         WILLIAMS ROBERT,JR  1150 FOXWOOD LN                         000N        CARE OF             
MTR06921400001000000000000000RA              00137929    005800820000008200000570000003NN  NNW 000                       N    
RDG06921400WATRL000000004K00000000000001197008803022015124715N000000000000N65       002770400K 10000000010000001191           
CUS0692140000106092835005         DEVONSHIRE TIFFANY  1152 FOXWOOD LN                         000N        CARE OF             
MTR06921400001000000000000000RA              26017699    005800830000008300000520000003NN  NNW 000                       N    
RDG06921400WATRL000000004K00000000000002940008903022015124718N000000000000N65       000030400K 10000000010000002921           
CUS0692140000106092834008         HENRY C POKIGO      1154 FOXWOOD LN                         000N        CARE OF             
MTR06921400001000000000000000RA              50786336    005800840000008400000520000003NN  NNW 000                       N    
RDG06921400WATRL000000004K00000000000001672004803022015124817N000000000000N65       000180400K 10000000010000001632           
CUS0692140000106092833000         SIZEMORE SHARON A   1156 FOXWOOD LN                         000N        CARE OF             
MTR06921400001000000000000000RA              50786359    005800850000008500000520000003NN  NNW 000                       N    
RDG06921400WATRL000000004K00000000000002182004903022015124820N000000000000N65       000030400K 10000000010000002146           
CUS0692140000106092832002         CHESTER LOVE P      1158 FOXWOOD LN                         000N        CARE OF             
MTR06921400001000000000000000RA              00134574    005800860000008600000570000003NN  NNW 000                       N    
RDG06921400WATRL000000004K00000000000001535009803022015125528N000000000000N65       000640400K 10000000010000001491           
CUS0692140000106092831004         SMITH EDWARD        1160 FOXWOOD LN                         000N        CARE OF             
MTR06921400001000000000000000RA              31584717    005800870000008700000520000003NN  NNW 000                       N    
RDG06921400WATRL000000004K00000000000003828009303022015125131N000400000030N65       001910400K 10000000010000003824           
CUS0692140000106092830006         NICHOLS EUGENE L    1162 FOXWOOD LN                         000N        CARE OF             
MTR06921400001000000000000000RA              30513524    005800880000008800000520000003NN  NNW 000                       N    
RDG06921400WATRL000000004K00000000000003315005003022015125252N000000000000N65       000810400K 10000000010000003289           
CUS0692140000106092829008         JOHNSON REBECCA T N 1164 FOXWOOD LN                         000N        CARE OF             
MTR06921400001000000000000000RA              42808762    005800890000008900000520000003NN  NNW 000                       N    
RDG06921400WATRL000000004K00000000000002458005103022015125302N000000000000N65       000100400K 10000000010000002436           
CUS0692140000106092828000         PETREE JAMES L,SR   1166 FOXWOOD LN                         000N        CARE OF             
MTR06921400001000000000000000RA              48585749    005800900000009000000520000003NN  NNW 000                       N    
RDG06921400WATRL000000004K00000000000001363005203022015125424N000000000000N65       000100400K 10000000010000001358           
CUS0692140000106092827002         G. & P. STECKLER    1168 FOXWOOD LN                         000N        CARE OF             
MTR06921400001000000000000000RA              01101413    005800910000009100000610000003NN  NNW 000                       N    
RDG06921400WATRL000000004K00000000000002048005303022015125414N000000000010N65       000720400K 10000000010000002026           
CUS0692140000106092826004         BLASETTI NICHOLAS J 1170 FOXWOOD LN                         000N        CARE OF             
MTR06921400001000000000000000RA              40048375    005800920000009200000520000003NN  NNW 000                       N    
RDG06921400WATRL000000004K00000000000003776005403022015125651N000000000000N65       000830400K 10000000010000003762           
CUS0692140000106092825006         HARDESTER DONNA L   1172 FOXWOOD LN                         000N        CARE OF             
MTR06921400001000000000000000RA              22608380    005800930000009300000520000003NN  NNW 000                       N    
RDG06921400WATRL000000004K00000000000004955005503022015125806N000000000000N65       000750400K 10000000010000004933           
CUS0692140000106092824009         MOSLEY KATHY        1174 FOXWOOD LN                         000N        CARE OF             
MTR06921400001000000000000000RA              50786225    005800940000009400000520000003NN  NNW 000                       N    
RDG06921400WATRL000000004K00000000000002764005603022015125821N000000000000N65       000150400K 10000000010000002749           
CUS0692140000106092823001         MCKINNEY ROBERT WALT1176 FOXWOOD LN                         000N        CARE OF             
MTR06921400001000000000000000RA              22608413    005800950000009500000520000003NN  NNW 000                       N    
RDG06921400WATRL000000004K00000000000002927005703022015125826N000000000000N65       000050400K 10000000010000002905           
CUS0692140000106092822003         CARPENTER SCOT      1178 FOXWOOD LN                         000N        CARE OF             
MTR06921400001000000000000000RA              50786329    005800960000009600000520000003NN  NNW 000                       N    
RDG06921400WATRL000000004K00000000000001940010303022015125909N000000000000N65       000430400K 10000000010000001921           
CUS0692140000106092821005         BROCKMEYER BERNARD M1180 FOXWOOD LN                         000N        CARE OF             
MTR06921400001000000000000000RA              00134672    005800970000009700000570000003NN  NNW 000                       N    
RDG06921400WATRL000000004K00000000000002106005803022015125948N000000000000N65       000390400K 10000000010000002070           
CUS0692140000106092820007         JOHNSON ROSALIND L  1175 FOXWOOD LN                         000N        CARE OF             
MTR06921400001000000000000000RA              20767730    005800980000009800000520000003NN  NNW 000                       N    
RDG06921400WATRL000000004K00000000000005953006103022015130225N000000000000N65       001570400K 10000000010000005918           
CUS0692140000106092819009         RICHARDSON KELLY A  1173 FOXWOOD LN                         000N        CARE OF             
MTR06921400001000000000000000RA              24761673    005800990000009900000520000003NN  NNW 000                       N    
RDG06921400WATRL000000004K00000000000003795006203022015130237N000000000000N65       000120400K 10000000010000003782           
CUS0692140000106092818001         MARTIN LARRY A      1171 FOXWOOD LN                         000N        CARE OF             
MTR06921400001000000000000000RA              22608104    005801000000010000000520000003NN  NNW 000                       N    
RDG06921400WATRL000000004K00000000000004949006303022015130343N000000000000N65       000660400K 10000000010000004942           
CUS0692140000106092817003         BAKER LAMIKA        1169 FOXWOOD LN                         000N        CARE OF             
MTR06921400001000000000000000RA              22608378    005801010000010100000520000003NN  NNW 000                       N    
RDG06921400WATRL000000004K00000000000008395006403022015130542N000000000000N65       000590400K 10000000010000008321           
CUS0692140000106092816005         TROY A SCHULTZ      1167 FOXWOOD LN                         000N        CARE OF             
MTR06921400001000000000000000RA              50786334    005801020000010200000520000003NN  NNW 000                       N    
RDG06921400WATRL000000004K00000000000001484005903022015130436N000000000000N65       000530400K 10000000010000001472           
CUS0692140000106092815007         WILMERING DEBORAH   1165 FOXWOOD LN                         000N        CARE OF             
MTR06921400001000000000000000RA              22608479    005801030000010300000520000003NN  NNW 000                       N    
RDG06921400WATRL000000004K00000000000003912006003022015130443N000000000000N65       000070400K 10000000010000003902           
CUS0692140000106092814000         WILSON RONALD J     1163 FOXWOOD LN                         000N        CARE OF             
MTR06921400001000000000000000RA              50786199    005801040000010400000520000003NN  NNW 000                       N    
RDG06921400WATRL000000004K00000000000002449006503022015130750N000000000000N65       001280400K 10000000010000002402           
CUS0692140000106092813002         CAMPBELL KENNETH W,J1161 FOXWOOD LN                         000N        CARE OF             
MTR06921400001000000000000000RA              22608418    005801050000010500000520000003NN  NNW 000                       N    
RDG06921400WATRL000000004K00000000000002874006603022015130754N000000000000N65       000040400K 10000000010000002863           
CUS0692140000106092812004         GERBER LOIS ANN     1159 FOXWOOD LN                         000N        CARE OF             
MTR06921400001000000000000000RA              22608126    005801060000010600000520000003NN  NNW 000                       N    
RDG06921400WATRL000000004K00000000000002823011303022015130851N000100000010N65       000570400K 10000000010000002823           
CUS0692140000106092811006         LEE TABATHA         1157 FOXWOOD LN                         000N        CARE OF             
MTR06921400001000000000000000RA              46887996    005801070000010700000520000003NN  NNW 000                       N    
RDG06921400WATRL000000004K00000000000002507011403022015130949N000000000000N65       000580400K 10000000010000002478           
CUS0692140000106092810008         SHIPLEY LEWIS E     1155 FOXWOOD LN                         000N        CARE OF             
MTR06921400001000000000000000RA              50786207    005801080000010800000520000003NN  NNW 000                       N    
RDG06921400WATRL000000004K00000000000001674011503022015131119N000000000000N65       000900400K 10000000010000001655           
CUS0692140000106092809000         OMELIA PATRICIA K   1153 FOXWOOD LN                         000N        CARE OF             
MTR06921400001000000000000000RA              50786203    005801090000010900000520000003NN  NNW 000                       N    
RDG06921400WATRL000000004K00000000000002105011603022015131204N000000000000N65       000450400K 10000000010000002070           
CUS0692140000106092808002         HOLLAND CAROL M     1151 FOXWOOD LN                         000N        CARE OF             
MTR06921400001000000000000000RA              50786202    005801100000011000000520000003NN  NNW 000                       N    
RDG06921400WATRL000000004K00000000000001074011703022015131207N000000000000N65       000030400K 10000000010000001070           
CUS0692140000106092807004         TYNDALL RICHARD A   1149 FOXWOOD LN                         000N        CARE OF             
MTR06921400001000000000000000RA              29403904    005801110000011100000520000003NN  NNW 000                       N    
RDG06921400WATRL000000004K00000000000004161011803022015131304N000000000000N65       000570400K 10000000010000004134           
CUS0692140000106092806006         ADAMS JOANNE J      1147 FOXWOOD LN                         000N        CARE OF             
MTR06921400001000000000000000RA              50786338    005801120000011200000520000003NN  NNW 000                       N    
RDG06921400WATRL000000004K00000000000001543011903022015131351N000000000000N65       000470400K 10000000010000001499           
CUS0692140000106092805008         INO A VELASQUEZ     1145 FOXWOOD LN                         000N        CARE OF             
MTR06921400001000000000000000RA              23052324    005801130000011300000520000003NN  NNW 000                       N    
RDG06921400WATRL000000004K00000000000003510006703022015131449N000000000000N65       000580400K 10000000010000003484           
CUS0692140000106092804001         PETERS EDWARD JAMES 1143 FOXWOOD LN                         000N        CARE OF             
MTR06921400001000000000000000RA              50786331    005801140000011400000520000003NN  NNW 000                       N    
RDG06921400WATRL000000004K00000000000002216006803022015131505N000000000000N65       000160400K 10000000010000002190           
CUS0692140000106092803003         TRUMAN LARRY JAMES  1141 FOXWOOD LN                         000N        CARE OF             
MTR06921400001000000000000000RA              78022490    005801150000011500000350000003NN  NNW 000                       N    
RDG06921400WATRL000000004K00000000000000000006903022015131511N000000000000N65       000060400K 10000000010000000000           
CUS0692140000106092802005         JOHNSON FARRAH      1139 FOXWOOD LN                         000N        CARE OF             
MTR06921400001000000000000000RA              75614898    005801160000011600000350000003NN  NNW 000                       N    
RDG06921400WATRL000000004K00000000000000424007003022015131517N000000000000N65       000060400K 10000000010000000249           
CUS0692140000106092801007         MCCAULEY THOMAS A   1137 FOXWOOD LN                         000N        CARE OF             
MTR06921400001000000000000000RA              31587753    005801170000011700000520000003NN  NNW 000                       N    
RDG06921400WATRL000000004K00000000000002973012403022015131909N000000000000N65       002320400K 10000000010000002954           
CUS0692140000106092800009         REEVES SONYA MARI   1135 FOXWOOD LN                         000N        CARE OF             
MTR06921400001000000000000000RA              50786332    005801180000011800000520000003NN  NNW 000                       N    
RDG06921400WATRL000000004K00000000000001786012703022015132110N000000000000N65       000840400K 10000000010000001767           
CUS0692140000106092799003         MITCHELL ARIANA SAUD1133 FOXWOOD LN                         000N        CARE OF             
MTR06921400001000000000000000RA              00134576    005801190000011900000570000003NN  NNW 000                       N    
RDG06921400WATRL000000004K00000000000000608007303022015131940N000000000000N65       000310400K 10000000010000000582           
CUS0692140000106092798005         HOLT TERRY ALLAN    1131 FOXWOOD LN                         000N        CARE OF             
MTR06921400001000000000000000RA              00134575    005801200000012000000570000003NN  NNW 000                       N    
RDG06921400WATRL000000004K00000000000001415007403022015131946N000000000000N65       000060400K 10000000010000001405           
CUS0692140000106092797007         OHARA CHRISTOPHER   1129 FOXWOOD LN                         000N        CARE OF             
MTR06921400001000000000000000RA              33077106    005801210000012100000520000003NN  NNW 000                       N    
RDG06921400WATRL000000004K00000000000003293007103022015132119N000000000000N65       000090400K 10000000010000003268           
CUS0692140000106092796009         EVANS JEFFREY HOWARD1127 FOXWOOD LN                         000N        CARE OF             
MTR06921400001000000000000000RA              33077095    005801220000012200000520000003NN  NNW 000                       N    
RDG06921400WATRL000000004K00000000000002785007203022015132122N000000000000N65       000030400K 10000000010000002773           
CUS0692140000106092795001         DIVEL GEORGE L,JR   1125 FOXWOOD LN                         000N        CARE OF             
MTR06921400001000000000000000RA              50786333    005801230000012300000520000003NN  NNW 000                       N    
RDG06921400WATRL000000004K00000000000001887013003022015132316N000000000000N65       001140400K 10000000010000001873           
CUS0692140000106092794004         MCDONALD VERNON B,JR1123 FOXWOOD LN                         000N        CARE OF             
MTR06921400001000000000000000RA              48594548    005801240000012400000520000003NN  NNW 000                       N    
RDG06921400WATRL000000004K00000000000001517013103022015132443N000400000010N65       000870400K 10000000010000001503           
CUS0692140000106092793006         LAFOREST NICHOLAS J 1121 FOXWOOD LN                         000N        CARE OF             
MTR06921400001000000000000000RA              21194882    005801250000012500000520000003NN  NNW 000                       N    
RDG06921400WATRL000000004K00000000000005270013203022015132723N000000000000N65       001600400K 10000000010000005227           
CUS0692140000106092792008         KUTNIK JASON E      1119 FOXWOOD LN                         000N        CARE OF             
MTR06921400001000000000000000RA              26011821    005801260000012600000520000003NN  NNW 000                       N    
RDG06921400WATRL000000004K00000000000004543013303022015132732N000000000000N65       000090400K 10000000010000004508           
CUS0692140000106092791000         WEAVER BILLY        1117 FOXWOOD LN                         000N        CARE OF             
MTR06921400001000000000000000RA              48590698    005801270000012700000520000003NN  NNW 000                       N    
RDG06921400WATRL000000004K00000000000003056013403022015133054N000000000011N65       000090400K 10000000010000003029           
CUS0692140000106092790002         OBRIEN JAMES MICHAEL1115 FOXWOOD LN                         000N        CARE OF             
MTR06921400001000000000000000RA              01078855    005801280000012800000610000003NN  NNW 000                       N    
RDG06921400WATRL000000004K00000000000001579013503022015133103N000300000010N65       000090400K 10000000010000001505           
CUS0692140000106092789004         SHAW ANTHONY L      1113 FOXWOOD LN                         000N        CARE OF             
MTR06921400001000000000000000RA              33735233    005801290000012900000520000003NN  NNW 000                       N    
RDG06921400WATRL000000004K00000000000003775013603022015133333N000000000000N65       001500400K 10000000010000003767           
CUS0692140000106092788006         INSLEY JAMES KNOX,3R1111 FOXWOOD LN                         000N        CARE OF             
MTR06921400001000000000000000RA              20767227    005801300000013000000520000003NN  NNW 000                       N    
RDG06921400WATRL000000004K00000000000004449013703022015133703N000000000000N65       002100400K 10000000010000004430           
CUS0692140000106092787008         TOMBINSON ROBERT    1109 FOXWOOD LN                         000N        CARE OF             
MTR06921400001000000000000000RA              48585849    005801310000013100000520000003NN  NNW 000                       N    
RDG06921400WATRL000000004K00000000000003068013803022015133828N000000000000N65       000850400K 10000000010000003020           
CUS0692140000106092786000         WERNICK JOSHUA D    1107 FOXWOOD LN                         000N        CARE OF             
MTR06921400001000000000000000RA              48585867    005801320000013200000520000003NN  NNW 000                       N    
RDG06921400WATRL000000004K00000000000001388013903022015133835N000000000000N65       000070400K 10000000010000001363           
CUS0692140000106092785002         DIETER BEVERLY A    1105 FOXWOOD LN                         000N        CARE OF             
MTR06921400001000000000000000RA              50786339    005801330000013300000520000003NN  NNW 000                       N    
RDG06921400WATRL000000004K00000000000001953007503022015133922N000000000000N65       000470400K 10000000010000001921           
CUS0692140000106092784005         SCHELL FREDERICK J  1103 FOXWOOD LN                         000N        CARE OF             
MTR06921400001000000000000000RA              50786337    005801340000013400000520000003NN  NNW 000                       N    
RDG06921400WATRL000000004K00000000000001389007603022015133925N000000000000N65       000030400K 10000000010000001366           
CUS0692140000106092783007         NAYLOR SCOTT        1101 FOXWOOD LN                         000N        CARE OF             
MTR06921400001000000000000000RA              50786327    005801350000013500000520000003NN  NNW 000                       N    
RDG06921400WATRL000000004K00000000000001306014203022015134043N000000000000N65       000780400K 10000000010000001260           
CUS0692140000106093121009         JAMES LAKEICIA D    1047 FOXWOOD LN                         000N        CARE OF             
MTR06921400001000000000000000RA              50786206    005801360000013600000520000003NN  NNW 000                       N    
RDG06921400WATRL000000004K00000000000001926014503022015134334N000000000000N65       000170400K 10000000010000001835           
CUS0692140000106093120001         SCHULTZE WILLIAM R,J1045 FOXWOOD LN                         000N        CARE OF             
MTR06921400001000000000000000RA              50786215    005801370000013700000520000003NN  NNW 000                       N    
RDG06921400WATRL000000004K00000000000000931014303022015134312N000000000010N65       001490400K 10000000010000000931           
CUS0692140000106093119003         SMITH DARRELL       1043 FOXWOOD LN                         000N        CARE OF             
MTR06921400001000000000000000RA              50786236    005801380000013800000520000003NN  NNW 000                       N    
RDG06921400WATRL000000004K00000000000001653014403022015134317N000000000000N65       000050400K 10000000010000001632           
CUS0692140000106093118005         LIN ZAW MYO         1041 FOXWOOD LN                         000N        CARE OF             
MTR06921400001000000000000000RA              50786223    005801390000013900000520000003NN  NNW 000                       N    
RDG06921400WATRL000000004K00000000000000712007703022015134405N000000000000N65       000310400K 10000000010000000690           
CUS0692140000106093117007         BOLLINGER RON       1039 FOXWOOD LN                         000N        CARE OF             
MTR06921400001000000000000000RA              00134670    005801400000014000000570000003NN  NNW 000                       N    
RDG06921400WATRL000000004K00000000000001101007803022015134408N000000000000N65       000030400K 10000000010000001086           
CUS0692140000106093116009         MITCHELL DOUGLAS K  1037 FOXWOOD LN                         000N        CARE OF             
MTR06921400001000000000000000RA              50786209    005801410000014100000520000003NN  NNW 000                       N    
RDG06921400WATRL000000004K00000000000000904014803022015134528N000000000000N65       000800400K 10000000010000000893           
CUS0692140000106093115001         GWENAVIERE REAVES-WA1035 FOXWOOD LN                         000N        CARE OF             
MTR06921400001000000000000000RA              75614682    005801420000014200000350000003NN  NNW 000                       N    
RDG06921400WATRL000000004K00000000000000033015103022015134847N000000000000N65       000440400K 10000000010000000028           
CUS0692140000106093114004         SEEBO BARRY L       1033 FOXWOOD LN                         000N        CARE OF             
MTR06921400001000000000000000RA              40048125    005801430000014300000520000003NN  NNW 000                       N    
RDG06921400WATRL000000004K00000000000002179008003022015134755N000000000000N65       001470400K 10000000010000002160           
CUS0692140000106093113006         DEROSA JAMES R      1031 FOXWOOD LN                         000N        CARE OF             
MTR06921400001000000000000000RA              40048085    005801440000014400000520000003NN  NNW 000                       N    
RDG06921400WATRL000000004K00000000000001889008103022015134803N000000000000N65       000080400K 10000000010000001871           
CUS0692140000106093112008         PATE LEWIS B        1029 FOXWOOD LN                         000N        CARE OF             
MTR06921400001000000000000000RA              38887496    005801450000014500000520000003NN  NNW 000                       N    
RDG06921400WATRL000000004K00000000000002133008303022015134853N000000000000N65       000060400K 10000000010000002122           
CUS0692140000106093111000         FRYZA BERNARD S,JR  1027 FOXWOOD LN                         000N        CARE OF             
MTR06921400001000000000000000RA              38887692    005801460000014600000520000003NN  NNW 000                       N    
RDG06921400WATRL000000004K00000000000002508008403022015134856N000000000000N65       000030400K 10000000010000002488           
CUS0692140000106093110002         MORRISON MATTHEW RYA1025 FOXWOOD LN                         000N        CARE OF             
MTR06921400001000000000000000RA              50786200    005801470000014700000520000003NN  NNW 000                       N    
RDG06921400WATRL000000004K00000000000001728008203022015134942N000000000000N65       000460400K 10000000010000001711           
CUS0692140000106093109004         CHANTE C COLLINS    1023 FOXWOOD LN                         000N        CARE OF             
MTR06921400001000000000000000RA              50786224    005801480000014800000520000003NN  NNW 000                       N    
RDG06921400WATRL000000004K00000000000000982015503022015135044N000000000000N65       000620400K 10000000010000000943           
CUS0692140000106093108006         MANIGUALT SHARON    1021 FOXWOOD LN                         000N        CARE OF             
MTR06921400001000000000000000RA              14905688    005801490000014900000310000003NN  NNW 000                       N    
RDG06921400WATRL000000004K00000000000001705015603022015135207N000000000000N65       000830400K 10000000010000001679           
CUS0692140000106093107008         JOSHUA C CARTER     1019 FOXWOOD LN                         000N        CARE OF             
MTR06921400001000000000000000RA              27133924    005801500000015000000520000003NN  NNW 000                       N    
RDG06921400WATRL000000004K00000000000004316015703022015135209N000000000000N65       000020400K 10000000010000004306           
CUS0692140000106093106000         SHELLY A. JOHNSON   1017 FOXWOOD LN                         000N        CARE OF             
MTR06921400001000000000000000RA              48593056    005801510000015100000520000003NN  NNW 000                       N    
RDG06921400WATRL000000004K00000000000001666015803022015135349N000000000000N65       001000400K 10000000010000001635           
CUS0692140000106093105002         CAVALIEROS NICK     1015 FOXWOOD LN                         000N        CARE OF             
MTR06921400001000000000000000RA              48592775    005801520000015200000520000003NN  NNW 000                       N    
RDG06921400WATRL000000004K00000000000001706015903022015135350N000000000000N65       000010400K 10000000010000001666           
CUS0692140000106093104005         KELLY CHARLES RAYMON1013 FOXWOOD LN                         000N        CARE OF             
MTR06921400001000000000000000RA              50786204    005801530000015300000520000003NN  NNW 000                       N    
RDG06921400WATRL000000004K00000000000000836016003022015135546N000000000000N65       001160400K 10000000010000000822           
CUS0692140000106093103007         MCMULLEN JERRY A,JR 1011 FOXWOOD LN                         000N        CARE OF             
MTR06921400001000000000000000RA              41082410    005801540000015400000520000003NN  NNW 000                       N    
RDG06921400WATRL000000004K00000000000003043016103022015135755N000400000010N65       001290400K 10000000010000003042           
CUS0692140000106093102009         CARL H. HANSEN      1009 FOXWOOD LN                         000N        CARE OF             
MTR06921400001000000000000000RA              41082409    005801550000015500000520000003NN  NNW 000                       N    
RDG06921400WATRL000000004K00000000000000565016403022015140136N000300000010N65       000210400K 10000000010000000551           
CUS0692140000106093101001         PARADISE THEODORE P 1007 FOXWOOD LN                         000N        CARE OF             
MTR06921400001000000000000000RA              26014945    005801560000015600000520000003NN  NNW 000                       N    
RDG06921400WATRL000000004K00000000000004681016203022015140113N000400000010N65       001980400K 10000000010000004669           
CUS0692140000106093100003         WRIGHT WINFRED P,JR 1005 FOXWOOD LN                         000N        CARE OF             
MTR06921400001000000000000000RA              26014916    005801570000015700000520000003NN  NNW 000                       N    
RDG06921400WATRL000000004K00000000000003088016303022015140115N000000000000N65       000020400K 10000000010000003074           
CUS0692140000106093099007         HOUSING AND URBAN   1003 FOXWOOD LN                         000N        CARE OF             
MTR06921400001000000000000000RA              41082517    005801580000015800000520000003NN  NNW 000                       N    
RDG06921400WATRL000000004K00000000000002115008503022015140407N000300000010N65       001510400K 10000000010000002358           
CUS0692140000106093098009         PINKARD ANGELA L    1001 KAYDEN LN                          000N        CARE OF             
MTR06921400001000000000000000RA              99188686    005801590000015900000570000003NN  NNW 000                       N    
RDG06921400WATRL000000004K00000000000000000000000000000000000 000000000000U         000000400  10000000010000002939           
CUS0692140000106093097001         RODGERS NICOLE K    1003 KAYDEN LN                          000N        CARE OF             
MTR06921400001000000000000000RA              75617158    005801600000016000000350000003NN  NNW 000                       N    
RDG06921400WATRL000000004K00000000000000165002703022015105446N000400000010N65       005090400K 10000000010000000163           
CUS0692140000106093096003         AMY M RUTH          1005 KAYDEN LN                          000N        CARE OF             
MTR06921400001000000000000000RA              14923312    005801610000016100000310000003NN  NNW 000                       N    
RDG06921400WATRL000000004K00000000000000526002803022015105748N000100000010N65       001820400K 10000000010000000526           
CUS0692140000106093095005         JP MORGAN CHASE     1007 KAYDEN LN                          000N        CARE OF             
MTR06921400001000000000000000RA              14913226    005801620000016200000310000003NN  NNW 000                       N    
RDG06921400WATRL000000004K00000000000000654002903022015105805N000000000020N65       000170400K 10000000010000000616           
CUS0692140000106093094008         MARTINEZ JORGE BRICE1009 KAYDEN LN                          000N        CARE OF             
MTR06921400001000000000000000RA              30523912    005801630000016300000520000003NN  NNW 000                       N    
RDG06921400WATRL000000004K00000000000004249003003022015105951N000000000000N65       001060400K 10000000010000004176           
CUS0692140000106093093000         ANDERSON LAWRENCE   1006 KAYDEN LN                          000N        CARE OF             
MTR06921400001000000000000000RA              50786415    005801640000016400000520000000NN  NNW 000                       N    
RDG06921400WATRL000000004K00000000000001504003103022015110157N000000000000N65       001260400K 10000000010000001455           
CUS0692140000106093092002         ONEILL EARL         1004 KAYDEN LN                          000N        CARE OF             
MTR06921400001000000000000000RA              50786425    005801650000016500000520000003NN  NNW 000                       N    
RDG06921400WATRL000000004K00000000000002211003203022015110335N000000000000N65       000980400K 10000000010000002172           
CUS0692140000106093091004         BIRKELIEN CHARLOTTE 1002 KAYDEN LN                          000N        CARE OF             
MTR06921400001000000000000000RA              50786420    005801660000016600000520000003NN  NNW 000                       N    
RDG06921400WATRL000000004K00000000000002204003303022015110339N000000000000N65       000040400K 10000000010000002182           
CUS0692140000106093090006         RAVERT TIMOTHY A    1000 KAYDEN LN                          000N        CARE OF             
MTR06921400001000000000000000RA              46879219    005801670000016700000520000003NN  NNW 000                       N    
RDG06921400WATRL000000004K00000000000001604003403022015110517N000000000000N65       000980400K 10000000010000001589           
CUS0692140000106093089008         GAIL E. NADOLNY     933 FOXWOOD LN                          000N        CARE OF             
MTR06921400001000000000000000RA              48590765    005801680000016800000520000003NN  NNW 000                       N    
RDG06921400WATRL000000004K00000000000001287003503022015110724N000000000000N65       001270400K 10000000010000001279           
CUS0692140000106093088000         GIOVE SARAH N       931 FOXWOOD LN                          000N        CARE OF             
MTR06921400001000000000000000RA              32904466    005801690000016900000520000003NN  NNW 000                       N    
RDG06921400WATRL000000004K00000000000003845016603022015150459N000000000000N65       036520400K 10000000010000003831           
CUS0692140000106093087002         MACIAS RODOLFO      929 FOXWOOD LN                          000N        CARE OF             
MTR06921400001000000000000000RA              10005438    005801700000017000000570000003NN  NNW 000   VACANT / LOT        N    
RDG06921400WATRL000000004K00000000000000604003603022015111245N000000000000N65       003210400K 10000000010000000604           
CUS0692140000106093086004         BRADFORD CLARENCE C 927 FOXWOOD LN                          000N        CARE OF             
MTR06921400001000000000000000RA              32904199    005801710000017100000520000003NN  NNW 000                       N    
RDG06921400WATRL000000004K00000000000001178003703022015111543N000000000000N65       001780400K 10000000010000001159           
CUS0692140000106093085006         YORK JEAN C         925 FOXWOOD LN                          000N        CARE OF             
MTR06921400001000000000000000RA              32904496    005801720000017200000520000003NN  NNW 000                       N    
RDG06921400WATRL000000004K00000000000002391003803022015111738N000000000000N65       001150400K 10000000010000002343           
CUS0692140000106093084009         XINTAS STEPHEN A    923 FOXWOOD LN                          000N        CARE OF             
MTR06921400001000000000000000RA              27832535    005801730000017300000520000003NN  NNW 000                       N    
RDG06921400WATRL000000004K00000000000002737003903022015111915N000000000000N65       000970400K 10000000010000002720           
CUS0692140000106093083001         ELIOPOULOS MICHELE  921 FOXWOOD LN                          000N        CARE OF             
MTR06921400001000000000000000RA              44176159    005801740000017400000520000003NN  NNW 000                       N    
RDG06921400WATRL000000004K00000000000002523004003022015112105N000000000000N65       001100400K 10000000010000002496           
CUS0692140000106093082003         NOVA D SHAFFER      919 FOXWOOD LN                          000N        CARE OF             
MTR06921400001000000000000000RA              01078852    005801750000017500000610000003NN  NNW 000                       N    
RDG06921400WATRL000000004K00000000000000503004103022015112122N000000000000N65       000170400K 10000000010000000480           
CUS0692140000106093081005         HOHMAN WILLIAM J    917 FOXWOOD LN                          000N        CARE OF             
MTR06921400001000000000000000RA              00126422    005801760000017600000570000003NN  NNW 000                       N    
RDG06921400WATRL000000004K00000000000000805004203022015112324N000300000010N65       001220400K 10000000010000000844           
CUS0692140000106093080007         NAGEL NANCY MARIE   915 FOXWOOD LN                          000N        CARE OF             
MTR06921400001000000000000000RA              45384981    005801770000017700000520000003NN  NNW 000                       N    
RDG06921400WATRL000000004K00000000000000440004303022015112453N000000000000N65       000890400K 10000000010000000436           
CUS0692140000106093079009         LOMONICO ROBERT J   913 FOXWOOD LN                          000N        CARE OF             
MTR06921400001000000000000000RA              23053377    005801780000017800000520000003NN  NNW 000                       N    
RDG06921400WATRL000000004K00000000000000000000000000000000000 000000000000U         000000400  10000000010000003181           
CUS0692140000106093078001         LORENA F LAFON      911 FOXWOOD LN                          000N        CARE OF             
MTR06921400001000000000000000RA              32903088    005801790000017900000520000003NN  NNW 000                       N    
RDG06921400WATRL000000004K00000000000000000000000000000000000 000000000000U         000000400  10000000010000002509           
CUS0692140000106093077003         GADSDEN LARRY       909 FOXWOOD LN                          000N        CARE OF             
MTR06921400001000000000000000RA              14915246    005801800000018000000310000003NN  NNW 000                       N    
RDG06921400WATRL000000004K00000000000000000000000000000000000 000000000000U         000000400  10000000010000000371           
CUS0692140000106093076005         OWOBU EMMANUELLA    907 FOXWOOD LN                          000N        CARE OF             
MTR06921400001000000000000000RA              01078859    005801810000018100000610000003NN  NNW 000                       N    
RDG06921400WATRL000000004K00000000000000000000000000000000000 000000000000U         000000400  10000000010000001216           
CUS0692140000106093075007         KAHUKO FRANCIS P N  1001 BAYNER RD                          000N        CARE OF             
MTR06921400001000000000000000RA              48585743    005801820000018200000520000003NN  NNW 000                       N    
RDG06921400WATRL000000004K00000000000003022000103032015080301N000000000000U40       000000400K 10000000010000002998           
CUS0692140000106093074000         MONTGOMERY MAGGIE M 1003 BAYNER RD                          000N        CARE OF             
MTR06921400001000000000000000RA              10005833    005801830000018300000570000003NN  NNW 000                       N    
RDG06921400WATRL000000004K00000000000000642000203032015080312N000000000000U40       000110400K 10000000010000000607           
CUS0692140000106093073002         KATZENBERGER JAMES D1005 BAYNER RD                          000N        CARE OF             
MTR06921400001000000000000000RA              48594073    005801840000018400000520000003NN  NNW 000                       N    
RDG06921400WATRL000000004K00000000000002572000303032015080324N000000000000U40       000120400K 10000000010000002543           
CUS0692140000106093072004         HEMINGWAY MICHAEL G 1007 BAYNER RD                          000N        CARE OF             
MTR06921400001000000000000000RA              50786325    005801850000018500000520000003NN  NNW 000                       N    
RDG06921400WATRL000000004K00000000000002635000403032015080500N000000000000U40       000960400K 10000000010000002616           
CUS0692140000106093071006         CUSICK MICHAEL A,SR 1009 BAYNER RD                          000N        CARE OF             
MTR06921400001000000000000000RA              40047757    005801860000018600000520000003NN  NNW 000                       N    
RDG06921400WATRL000000004K00000000000003314000503032015080546N000000000000U40       000460400K 10000000010000003268           
CUS0692140000106093070008         CLARY RALPH ALBERT,J1011 BAYNER RD                          000N        CARE OF             
MTR06921400001000000000000000RA              14909313    005801870000018700000310000003NN  NNW 000                       N    
RDG06921400WATRL000000004K00000000000000708000603032015080613N000000000000U40       000270400K 10000000010000000682           
CUS0692140000106093069000         SAKELLARIS JAMES G  1013 BAYNER RD                          000N        CARE OF             
MTR06921400001000000000000000RA              14909322    005801880000018800000310000003NN  NNW 000                       N    
RDG06921400WATRL000000004K00000000000001220000703032015080625N000000000000U40       000120400K 10000000010000001199           
CUS0692140000106093068002         CAMPBELL ALRICK     1015 BAYNER RD                          000N        CARE OF             
MTR06921400001000000000000000RA              26003548    005801890000018900000520000003NN  NNW 000                       N    
RDG06921400WATRL000000004K00000000000003092000803032015080700N000000000000U40       000350400K 10000000010000003065           
CUS0692140000106093067004         MINTON JAMES B,JR   1017 BAYNER RD                          000N        CARE OF             
MTR06921400001000000000000000RA              23645584    005801900000019000000520000003NN  NNW 000                       N    
RDG06921400WATRL000000004K00000000000003892000903032015080858N000000000000U40       001180400K 10000000010000003873           
CUS0692140000106093066006         DRIGGRISS BERNITA JO902 FOXCROFT LN                         000N        CARE OF             
MTR06921400001000000000000000RA              29684102    005801910000019100000520000003NN  NNW 000                       N    
RDG06921400WATRL000000004K00000000000005001001003032015081158N000000000000U40       001800400K 10000000010000005001           
CUS0692140000106093065008         SASSER MICHELE M    904 FOXCROFT LN                         000N        CARE OF             
MTR06921400001000000000000000RA              50786342    005801920000019200000520000003NN  NNW 000                       N    
RDG06921400WATRL000000004K00000000000002525001203032015081603N000000000000U40       000710400K 10000000010000002483           
CUS0692140000106093064001         VAGENOS BEVERLY A   906 FOXCROFT LN                         000N        CARE OF             
MTR06921400001000000000000000RA              50786389    005801930000019300000520000003NN  NNW 000                       N    
RDG06921400WATRL000000004K00000000000001027001303032015081610N000000000000U40       000070400K 10000000010000001019           
CUS0692140000106093063003         COX JODY            908 FOXCROFT LN                         000N        CARE OF             
MTR06921400001000000000000000RA              44092480    005801940000019400000520000003NN  NNW 000                       N    
RDG06921400WATRL000000004K00000000000003022001103032015081452N000000000000U40       001740400K 10000000010000003003           
CUS0692140000106093062005         BERRY CURTIS L,JR   910 FOXCROFT LN                         000N        CARE OF             
MTR06921400001000000000000000RA              27832849    005801950000019500000520000003NN  NNW 000                       N    
RDG06921400WATRL000000004K00000000000005711001403032015081634N000000000000U40       000240400K 10000000010000005639           
CUS0692140000106093061007         LONNIE EMBRY, III   912 FOXCROFT LN                         000N        CARE OF             
MTR06921400001000000000000000RA              26006417    005801960000019600000520000003NN  NNW 000                       N    
RDG06921400WATRL000000004K00000000000004616001703032015081859N000000000000U40       000140400K 10000000010000004586           
CUS0692140000106093060009         HANSEL HERBERT F,JR 914 FOXCROFT LN                         000N        CARE OF             
MTR06921400001000000000000000RA              14910404    005801970000019700000310000003NN  NNW 000                       N    
RDG06921400WATRL000000004K00000000000000377001503032015081825N000000000000U40       001110400K 10000000010000000373           
CUS0692140000106093059001         MAHAFFEY BETTY R,TRU916 FOXCROFT LN                         000N        CARE OF             
MTR06921400001000000000000000RA              30523491    005801980000019800000520000003NN  NNW 000                       N    
RDG06921400WATRL000000004K00000000000003136001603032015081845N000000000000U40       000200400K 10000000010000003112           
CUS0692140000106093058003         MILLER ROBERT A,JR  918 FOXCROFT LN                         000N        CARE OF             
MTR06921400001000000000000000RA              10002463    005801990000019900000570000003NN  NNW 000                       N    
RDG06921400WATRL000000004K00000000000000235001803032015082053N000000000000U40       001140400K 10000000010000000235           
CUS0692140000106093057005         PIATEK MIECZYSLAW S 920 FOXCROFT LN                         000N        CARE OF             
MTR06921400001000000000000000RA              52769372    005802000000020000000520000003NY  NNW 000                       N    
MTM0692140052769372    BURIED MTR INVESTIGATE                                                                                 
RDG06921400WATRL000000004K00000000000000000000000000000000000 000000000000U         000000400  10000000010000001923           
CUS0692140000106093056007         HOUGHTALING CHARLES 922 FOXCROFT LN                         000N        CARE OF             
MTR06921400001000000000000000RA              00137068    005802010000020100000570000003NN  NNW 000                       N    
RDG06921400WATRL000000004K00000000000000356001903032015082351N000400000010U40       001780400K 10000000010000000353           
CUS0692140000106093055009         MARTINEZ-MARTINEZ AL924 FOXCROFT LN                         000N        CARE OF             
MTR06921400001000000000000000RA              00137071    005802020000020200000570000003NN  NNW 000                       N    
RDG06921400WATRL000000004K00000000000001945002003032015082408N000400000010U40       000170400K 10000000010000001928           
CUS0692140000106093054002         REINKE WOLFGANG MICH926 FOXCROFT LN                         000N        CARE OF             
MTR06921400001000000000000000RA              27831605    005802030000020300000520000003NN  NNW 000                       N    
RDG06921400WATRL000000004K00000000000004970002103032015082744N000000000000U40       002160400K 10000000010000004946           
CUS0692140000106093053004         GUY QUENTIN T,SR    928 FOXCROFT LN                         000N        CARE OF             
MTR06921400001000000000000000RA              00137069    005802040000020400000570000003NN  NNW 000                       N    
RDG06921400WATRL000000004K00000000000001135002403032015083043N000000000000U40       000440400K 10000000010000001110           
CUS0692140000106093052006         CHESAPEAKE ASSET GRO930 FOXCROFT LN                         000N        CARE OF             
MTR06921400001000000000000000RA              54350877    005802050000020500000520000003NN  NNW 000                       N    
RDG06921400WATRL000000004K00000000000000798002203032015082956N000000000000U40       001320400K 10000000010000000771           
CUS0692140000106093051008         BRIGHTFUL TINIKA M  932 FOXCROFT LN                         000N        CARE OF             
MTR06921400001000000000000000RA              32904465    005802060000020600000520000003NN  NNW 000                       N    
RDG06921400WATRL000000004K00000000000003628002303032015082959N000000000000U40       000030400K 10000000010000003614           
CUS0692140000106093050000         MORRIS J. WEAVER    934 FOXCROFT LN                         000N        CARE OF             
MTR06921400001000000000000000RA              00137070    005802070000020700000570000003NN  NNW 000                       N    
RDG06921400WATRL000000004K00000000000000999002503032015083252N000000000000U40       001290400K 10000000010000000947           
CUS0692140000106093049002         HUGHES RICHARD R    936 FOXCROFT LN                         000N        CARE OF             
MTR06921400001000000000000000RA              46877036    005802080000020800000520000003NN  NNW 000                       N    
RDG06921400WATRL000000004K00000000000001654002603032015083455N000400000010U40       001230400K 10000000010000001653           
CUS0692140000106093048004         MCGEE DAVID J       1000 FOXCROFT LN                        000N        CARE OF             
MTR06921400001000000000000000RA              32903101    005802090000020900000520000003NN  NNW 000                       N    
RDG06921400WATRL000000004K00000000000004058002703032015083642N000000000000U40       001070400K 10000000010000004023           
CUS0692140000106093047006         BROWN RAYMOND G     1002 FOXCROFT LN                        000N        CARE OF             
MTR06921400001000000000000000RA              32903097    005802100000021000000520000003NN  NNW 000                       N    
RDG06921400WATRL000000004K00000000000002437002803032015083701N000000000000U40       000190400K 10000000010000002419           
CUS0692140000106093046008         PELLETIER PAUL      1004 FOXCROFT LN                        000N        CARE OF             
MTR06921400001000000000000000RA              32903086    005802110000021100000520000003NN  NNW 000                       N    
RDG06921400WATRL000000004K00000000000002838002903032015083708N000000000000U40       000070400K 10000000010000002832           
CUS0692140000106093045000         KNOX ERICA          1006 FOXCROFT LN                        000N        CARE OF             
MTR06921400001000000000000000RA              32899342    005802120000021200000520000003NN  NNW 000                       N    
RDG06921400WATRL000000004K00000000000004124003003032015083841N000000000000U40       000930400K 10000000010000004089           
CUS0692140000106093044003         HILLIARD DAVID RICHA1008 FOXCROFT LN                        000N        CARE OF             
MTR06921400001000000000000000RA              26011820    005802130000021300000520000003NN  NNW 000                       N    
RDG06921400WATRL000000004K00000000000003713003103032015083844N000000000000U40       000030400K 10000000010000003672           
CUS0692140000106093043005         AKEHURST MARY ANN   1010 FOXCROFT LN                        000N        CARE OF             
MTR06921400001000000000000000RA              54348166    005802140000021400000520000003NN  NNW 000                       N    
RDG06921400WATRL000000004K00000000000001666003203032015084032N000000000000U40       001080400K 10000000010000001644           
CUS0692140000106093042007         CAMPBELL DANIEL G   1012 FOXCROFT LN                        000N        CARE OF             
MTR06921400001000000000000000RA              52769435    005802150000021500000520000003NN  NNW 000                       N    
RDG06921400WATRL000000004K00000000000001587003303032015084214N000000000000U40       001020400K 10000000010000001566           
CUS0692140000106093041009         JOHNSON DAVID       1014 FOXCROFT LN                        000N        CARE OF             
MTR06921400001000000000000000RA              52768968    005802160000021600000520000003NN  NNW 000                       N    
RDG06921400WATRL000000004K00000000000001519003403032015084455N000000000000U40       001610400K 10000000010000001498           
CUS0692140000106093040001         HAMLIN THEOLIN      1016 FOXCROFT LN                        000N        CARE OF             
MTR06921400001000000000000000RA              52769434    005802170000021700000520000003NN  NNW 000                       N    
RDG06921400WATRL000000004K00000000000001627003503032015084457N000000000000U40       000020400K 10000000010000001617           
CUS0692140000106093039003         BROADWATER KIMBERLY 1018 FOXCROFT LN                        000N        CARE OF             
MTR06921400001000000000000000RA              39584267    005802180000021800000520000003NN  NNW 000                       N    
RDG06921400WATRL000000004K00000000000002464003603032015084534N000000000000U40       000370400K 10000000010000002439           
CUS0692140000106093038005         PIERCE ERIC S       1020 FOXCROFT LN                        000N        CARE OF             
MTR06921400001000000000000000RA              01078860    005802190000021900000610000003NN  NNW 000                       N    
RDG06921400WATRL000000004K00000000000001778003703032015084540N000000000000U40       000060400K 10000000010000001723           
CUS0692140000106093037007         SHONKO LISA E       1022 FOXCROFT LN                        000N        CARE OF             
MTR06921400001000000000000000RA              38887696    005802200000022000000520000003NN  NNW 000                       N    
RDG06921400WATRL000000004K00000000000002527003803032015084944N000400000010U40       002440400K 10000000010000002499           
CUS0692140000106093036009         DOTTERER GREGORY C  1024 FOXCROFT LN                        000N        CARE OF             
MTR06921400001000000000000000RA              52285884    005802210000022100000520000003NN  NNW 000                       N    
RDG06921400WATRL000000004K00000000000001699003903032015085016N000000000000U40       000320400K 10000000010000001670           
CUS0692140000106093035001         RICHARDSON MAURICE M1026 FOXCROFT LN                        000N        CARE OF             
MTR06921400001000000000000000RA              52768950    005802220000022200000520000003NN  NNW 000                       N    
RDG06921400WATRL000000004K00000000000001623004003032015085144N000000000000U40       000880400K 10000000010000001600           
CUS0692140000106093034004         JONES EVALINA       1028 FOXCROFT LN                        000N        CARE OF             
MTR06921400001000000000000000RA              52768901    005802230000022300000520000003NN  NNW 000                       N    
RDG06921400WATRL000000004K00000000000002290004103032015085146N000000000000U40       000020400K 10000000010000002260           
CUS0692140000106093033006         BLAND STEPHEN E     1030 FOXCROFT LN                        000N        CARE OF             
MTR06921400001000000000000000RA              38985385    005802240000022400000520000003NN  NNW 000                       N    
RDG06921400WATRL000000004K00000000000004166004203032015085222N000000000000U40       000360400K 10000000010000004117           
CUS0692140000106093032008         KIMMITT DENNIS M    1032 FOXCROFT LN                        000N        CARE OF             
MTR06921400001000000000000000RA              38985561    005802250000022500000520000003NN  NNW 000                       N    
RDG06921400WATRL000000004K00000000000002133004303032015085226N000000000000U40       000040400K 10000000010000002118           
CUS0692140000106093031000         HACKENBURG JOHN HENR1034 FOXCROFT LN                        000N        CARE OF             
MTR06921400001000000000000000RA              27816961    005802260000022600000520000003NY  NNW 000                       N    
MTM0692140027816961    BURIED MTR                                                                                             
RDG06921400WATRL000000004K00000000000000000000000000000000000 000000000000U         000000400  10000000010000003861           
CUS0692140000106093030002         SANDERS TIMOTHY JAY 1036 FOXCROFT LN                        000N        CARE OF             
MTR06921400001000000000000000RA              54348438    005802270000022700000520000003NY  NNW 000                       N    
MTM0692140054348438    BURIED MTR                                                                                             
RDG06921400WATRL000000004K00000000000000000000000000000000000 000000000000U         000000400  10000000010000001255           
CUS0692140000106093029004         MEWBORN OCTAVIUS Q,S1038 FOXCROFT LN                        000N        CARE OF             
MTR06921400001000000000000000RA              54348163    005802280000022800000520000003NN  NNW 000                       N    
RDG06921400WATRL000000004K00000000000001554004603032015090215N000000000000U40       000720400K 10000000010000001513           
CUS0692140000106093028006         OBRIAN LINDSEY      1040 FOXCROFT LN                        000N        CARE OF             
MTR06921400001000000000000000RA              50791746    005802290000022900000520000003NN  NNW 000                       N    
RDG06921400WATRL000000004K00000000000002091004703032015090222N000000000000U40       000070400K 10000000010000002067           
CUS0692140000106093027008         BOLLINGER PAUL E    1042 FOXCROFT LN                        000N        CARE OF             
MTR06921400001000000000000000RA              44179267    005802300000023000000520000003NN  NNW 000                       N    
RDG06921400WATRL000000004K00000000000001615004403032015090055N000000000000U40       005090400K 10000000010000001605           
CUS0692140000106093026000         GITONGA ALICE W     1044 FOXCROFT LN                        000N        CARE OF             
MTR06921400001000000000000000RA              44179271    005802310000023100000520000003NN  NNW 000                       N    
RDG06921400WATRL000000004K00000000000003268004503032015090103N000000000000U40       000080400K 10000000010000003253           
CUS0692140000106093025002         GAITANO PETER L     1046 FOXCROFT LN                        000N        CARE OF             
MTR06921400001000000000000000RA              38887477    005802320000023200000520000003NN  NNW 000                       N    
RDG06921400WATRL000000004K00000000000005277004803032015090455N000000000000U40       001530400K 10000000010000005146           
CUS0692140000106092782009         GEROGE L. ULBIG JR  1003 FOXCHASE LN                        000N        CARE OF             
MTR06921400001000000000000000RA              38887649    005802330000023300000520000003NN  NNW 000                       N    
RDG06921400WATRL000000004K00000000000002679005103032015090731N000300000010U40       000200400K 10000000010000002662           
CUS0692140000106092781001         MILLER WILLIAM JOHN 1005 FOXCHASE LN                        000N        CARE OF             
MTR06921400001000000000000000RA              46877993    005802340000023400000520000003NN  NNW 000                       N    
RDG06921400WATRL000000004K00000000000001624004903032015090705N000000000000U40       001300400K 10000000010000001601           
CUS0692140000106092780003         ALCANTARA HERLINDA  1007 FOXCHASE LN                        000N        CARE OF             
MTR06921400001000000000000000RA              46877970    005802350000023500000520000003NN  NNW 000                       N    
RDG06921400WATRL000000004K00000000000003304005003032015090711N000000000010U40       000060400K 10000000010000003303           
CUS0692140000106092779005         MCLEOD TAMIKA A     1009 FOXCHASE LN                        000N        CARE OF             
MTR06921400001000000000000000RA              22608482    005802360000023600000520000003NN  NNW 000                       N    
RDG06921400WATRL000000004K00000000000004214005203032015090939N000000000000U40       001280400K 10000000010000004184           
CUS0692140000106092778007         ROBERTS BRANDI L    1011 FOXCHASE LN                        000N        CARE OF             
MTR06921400001000000000000000RA              46887906    005802370000023700000520000003NN  NNW 000                       N    
RDG06921400WATRL000000004K00000000000000825005303032015090946N000000000000U40       000070400K 10000000010000000801           
CUS0692140000106092777009         HARTMANN MELANIE L  1013 FOXCHASE LN                        000N        CARE OF             
MTR06921400001000000000000000RA              99287399    005802380000023800000570000003NN  NNW 000                       N    
RDG06921400WATRL000000004K00000000000001971018403022015152127N000000000000N65       003280400K 10000000010000001956           
CUS0692140000106092776001         ALVEZ ANTONIO A,JR  1015 FOXCHASE LN                        000N        CARE OF             
MTR06921400001000000000000000RA              44092726    005802390000023900000520000003NN  NNW 000                       N    
RDG06921400WATRL000000004K00000000000003691005403032015091606N000000000000U40       003800400K 10000000010000003653           
CUS0692140000106092775003         PAUL TETLACK        1017 FOXCHASE LN                        000N        CARE OF             
MTR06921400001000000000000000RA              10024779    005802400000024000000570000003NN  NNW 000                       N    
RDG06921400WATRL000000004K00000000000000173005503032015091839N000000000000U40       001530400K 10000000010000000144           
CUS0692140000106092774006         CHARLES NAOMI JEAN  1019 FOXCHASE LN                        000N        CARE OF             
MTR06921400001000000000000000RA              10024784    005802410000024100000570000003NN  NNW 000                       N    
RDG06921400WATRL000000004K00000000000000095005603032015091853N000000000000U40       000140400K 10000000010000000090           
CUS0692140000106092773008         WALTERS FRANCIS J   1021 FOXCHASE LN                        000N        CARE OF             
MTR06921400001000000000000000RA              14905176    005802420000024200000310000003NN  NNW 000                       N    
RDG06921400WATRL000000004K00000000000000799005703032015091935N000000000000U40       000420400K 10000000010000000791           
CUS0692140000106092772000         DRAIN BRENDA COYLE  1023 FOXCHASE LN                        000N        CARE OF             
MTR06921400001000000000000000RA              14905170    005802430000024300000310000003NN  NNW 000                       N    
RDG06921400WATRL000000004K00000000000000355005803032015091941N000000000000U40       000060400K 10000000010000000346           
CUS0692140000106092771002         MINISH JOHN HOWARD  1025 FOXCHASE LN                        000N        CARE OF             
MTR06921400001000000000000000RA              38887481    005802440000024400000520000003NN  NNW 000                       N    
RDG06921400WATRL000000004K00000000000003227005903032015092249N000000000000U40       001880400K 10000000010000003211           
CUS0692140000106092770004         WATSON BRANDY L     1027 FOXCHASE LN                        000N        CARE OF             
MTR06921400001000000000000000RA              44176125    005802450000024500000520000003NN  NNW 000                       N    
RDG06921400WATRL000000004K00000000000003922006003032015092617N000000000000U40       002080400K 10000000010000003898           
CUS0692140000106092769006         CHANDLER BONITA M   1029 FOXCHASE LN                        000N        CARE OF             
MTR06921400001000000000000000RA              24768508    005802460000024600000520000003NN  NNW 000                       N    
RDG06921400WATRL000000004K00000000000002926018303022015151559N000000000000N65       000210400K 10000000010000002908           
CUS0692140000106092768008         SMITH ROBERT C      1031 FOXCHASE LN                        000N        CARE OF             
MTR06921400001000000000000000RA              38985567    005802470000024700000520000003NN  NNW 000                       N    
RDG06921400WATRL000000004K00000000000003556018203022015151538N000000000000N65       000590400K 10000000010000003549           
CUS0692140000106092767000         RAMIREZ-HERNANDEZ RE1033 FOXCHASE LN                        000N        CARE OF             
MTR06921400001000000000000000RA              39290843    005802480000024800000520000003NN  NNW 000                       N    
RDG06921400WATRL000000004K00000000000003648018103022015151439N000000000000N65       000080400K 10000000010000003618           
CUS0692140000106092766002         DIALFONSO ROGER     1035 FOXCHASE LN                        000N        CARE OF             
MTR06921400001000000000000000RA              39290917    005802490000024900000520000003NN  NNW 000                       N    
RDG06921400WATRL000000004K00000000000001035018003022015151431N000000000000N65       001110400K 10000000010000001035           
CUS0692140000106092765004         CARROLL EBONY       1037 FOXCHASE LN                        000N        CARE OF             
MTR06921400001000000000000000RA              42810621    005802500000025000000520000003NN  NNW 000                       N    
RDG06921400WATRL000000004K00000000000002497017903022015151240N000000000000N65       000290400K 10000000010000002470           
CUS0692140000106092764007         HOHMAN RONALD J     1039 FOXCHASE LN                        000N        CARE OF             
MTR06921400001000000000000000RA              99287062    005802510000025100000570000003NN  NNW 000                       N    
RDG06921400WATRL000000004K00000000000002263017803022015151211N000000000000N65       000560400K 10000000010000002222           
CUS0692140000106092763009         LANE FREDERICK D    1041 FOXCHASE LN                        000N        CARE OF             
MTR06921400001000000000000000RA              22608414    005802520000025200000520000003NN  NNW 000                       N    
RDG06921400WATRL000000004K00000000000004743017703022015151115N000000000000N65       000130400K 10000000010000004712           
CUS0692140000106092762001         THOMAS JOHN         1043 FOXCHASE LN                        000N        CARE OF             
MTR06921400001000000000000000RA              27816957    005802530000025300000520000003NN  NNW 000                       N    
RDG06921400WATRL000000004K00000000000004433017603022015151102N000000000000N65       000660400K 10000000010000004405           
CUS0692140000106092761003         SOGARD GREGORY W    1045 FOXCHASE LN                        000N        CARE OF             
MTR06921400001000000000000000RA              21194162    005802540000025400000520000003NN  NNW 000                       N    
RDG06921400WATRL000000004K00000000000003886017503022015150956N000000000000N65       000060400K 10000000010000003886           
CUS0692140000106092760005         JUSTICE CECIL P,JR  1047 FOXCHASE LN                        000N        CARE OF             
MTR06921400001000000000000000RA              31581970    005802550000025500000520000003NN  NNW 000                       N    
RDG06921400WATRL000000004K00000000000000878017403022015150950N000300000010N65       000470400K 10000000010000001193           
CUS0692140000106092759007         ESPEY JOHN JOSEPH,JR1049 FOXCHASE LN                        000N        CARE OF             
MTR06921400001000000000000000RA              41257543    005802560000025600000520000003NN  NNW 000                       N    
RDG06921400WATRL000000004K00000000000001749017303022015150903N000000000000N65       000250400K 10000000010000001736           
CUS0692140000106092758009         SEDA MARILUZ        1051 FOXCHASE LN                        000N        CARE OF             
MTR06921400001000000000000000RA              27266610    005802570000025700000520000003NN  NNW 000                       N    
RDG06921400WATRL000000004K00000000000003411017203022015150838N000000000000N65       000300400K 10000000010000003404           
CUS0692140000106092757001         BROWN BARBARA J     1053 FOXCHASE LN                        000N        CARE OF             
MTR06921400001000000000000000RA              22608111    005802580000025800000520000003NN  NNW 000                       N    
RDG06921400WATRL000000004K00000000000004440017103022015150808N000000000000N65       000160400K 10000000010000004437           
CUS0692140000106092756003         JENKINS ROBERT E    1055 FOXCHASE LN                        000N        CARE OF             
MTR06921400001000000000000000RA              23654431    005802590000025900000520000003NN  NNW 000                       N    
RDG06921400WATRL000000004K00000000000005460017003022015150752N000000000000N65       000330400K 10000000010000005433           
CUS0692140000106092755005         MARKO MORTGAGE COMPA1057 FOXCHASE LN                        000N        CARE OF             
MTR06921400001000000000000000RA              48584913    005802600000026000000520000003NN  NNW 000                       N    
