FHDNNNN006001609001609001609N                                                                                           004843
RHD04912300NN01580158000001580000000001580158000175NY015801580158000000000000000000000000000001    02132015NY020000 N         
CUS0491230000104084887001         DEWALD LYNCH G,JR   55 LONGERON DR                          000N        CARE OF             
MTR04912300001000000000000000RA              29679014    005800010000000100000520000003NN  NNW 000                       N    
RDG04912300WATRL000000004K00000000000002854000103072015113339N000000000001N40       000000400K 10000000010000002845           
CUS0491230000104084888009         SEAN NELSON         53 LONGERON DR                          000N        CARE OF             
MTR04912300001000000000000000RA              48588997    005800020000000200000520000003NN  NNW 000                       N    
RDG04912300WATRL000000004K00000000000002075000203072015113525N000000000000N40       001060400K 10000000010000002056           
CUS0491230000104084889007         AMANDA ANDERSON     51 LONGERON DR                          000N        CARE OF             
MTR04912300001000000000000000RA              46877388    005800030000000300000520000003NN  NNW 000                       N    
RDG04912300WATRL000000004K00000000000002033000403072015114148N000000000000N40       002130400K 10000000010000002022           
CUS0491230000104084890005         HARRIS GARY M       49 LONGERON DR                          000N        CARE OF             
MTR04912300001000000000000000RA              45374291    005800040000000400000520000003NN  NNW 000                       N    
RDG04912300WATRL000000004K00000000000001783000503072015114245N000000000000N40       000570400K 10000000010000001766           
CUS0491230000104084891003         HOPE DAVID E        47 LONGERON DR                          000N        CARE OF             
MTR04912300001000000000000000RA              24224832    005800050000000500000520000003NN  NNW 000                       N    
RDG04912300WATRL000000004K00000000000002796000603072015114336N000000000000N40       000510400K 10000000010000002786           
CUS0491230000104084892001         BUCKLEW ANTHONY J   45 LONGERON DR                          000N        CARE OF             
MTR04912300001000000000000000RA              44092858    005800060000000600000520000003NN  NNW 000                       N    
RDG04912300WATRL000000004K00000000000001961000703072015114500N000000000040N40       000840400K 10000000010000001936           
CUS0491230000104084893009         FITCH VALERIE A     43 LONGERON DR                          000N        CARE OF             
MTR04912300001000000000000000RA              38985438    005800070000000700000520000003NN  NNW 000                       N    
RDG04912300WATRL000000004K00000000000002525000803072015114514N000000000000N40       000140400K 10000000010000002525           
CUS0491230000104084894007         BATES LINDA L       41 LONGERON DR                          000N        CARE OF             
MTR04912300001000000000000000RA              45373860    005800080000000800000520000003NN  NNW 000                       N    
RDG04912300WATRL000000004K00000000000001043000903072015114552N000000000000N40       000380400K 10000000010000001035           
CUS0491230000104084895004         APRIL D COWAN       39 LONGERON DR                          000N        CARE OF             
MTR04912300001000000000000000RA              45373815    005800090000000900000520000003NN  NNW 000                       N    
RDG04912300WATRL000000004K00000000000002024001203072015115019N000000000000N40       001360400K 10000000010000002006           
CUS0491230000104084896002         HENSON BETTY        37 LONGERON DR                          000N        CARE OF             
MTR04912300001000000000000000RA              31586503    005800100000001000000520000003NN  NNW 000                       N    
RDG04912300WATRL000000004K00000000000000607001603072015115501N000000000000N40       001490400K 10000000010000000600           
CUS0491230000104084897000         JONES MICHAEL       35 LONGERON DR                          000N        CARE OF             
MTR04912300001000000000000000RA              10003908    005800110000001100000570000003NN  NNW 000                       N    
RDG04912300WATRL000000004K00000000000000468001803072015115913N000000000000N40       000900400K 10000000010000000450           
CUS0491230000104084898008         AFSAR BAHADUR       33 LONGERON DR                          000N        CARE OF             
MTR04912300001000000000000000RA              78023971    005800120000001200000360000003NN  NNW 000                       N    
RDG04912300WATRL000000004K00000000000000031001703072015115743N000000000010N40       001620400K 10000000010000000000           
CUS0491230000104084899006         GOMERINGER FREDERICK31 LONGERON DR                          000N        CARE OF             
MTR04912300001000000000000000RA              40323074    005800130000001300000520000003NN  NNW 000                       N    
RDG04912300WATRL000000004K00000000000001378002103072015120324N000000000000N40       000970400K 10000000010000001369           
CUS0491230000104084900002         DILLARD ROBERT E    29 LONGERON DR                          000N        CARE OF             
MTR04912300001000000000000000RA              31586501    005800140000001400000520000003NN  NNW 000                       N    
RDG04912300WATRL000000004K00000000000002809002303072015120746N000000000000N40       001300400K 10000000010000002799           
CUS0491230000104084901000         ALTMAN SUSAN LEA    27 LONGERON DR                          000N        CARE OF             
MTR04912300001000000000000000RA              30515886    005800150000001500000520000003NN  NNW 000                       N    
RDG04912300WATRL000000004K00000000000002750002203072015120536N000000000000N40       001320400K 10000000010000002743           
CUS0491230000104084902008         CARDARELLI THOMAS EA25 LONGERON DR                          000N        CARE OF             
MTR04912300001000000000000000RA              26014061    005800160000001600000520000003NN  NNW 000                       N    
RDG04912300WATRL000000004K00000000000003178002803072015121346N000000000000N40       000620400K 10000000010000003158           
CUS0491230000104084903006         SHIFFLETT JAMES C   23 LONGERON DR                          000N        CARE OF             
MTR04912300001000000000000000RA              26013973    005800170000001700000520000003NN  NNW 000                       N    
RDG04912300WATRL000000004K00000000000002257002903072015121352N000000000000N40       000060400K 10000000010000002249           
CUS0491230000104084904004         PARSICK JOHN J      21 LONGERON DR                          000N        CARE OF             
MTR04912300001000000000000000RA              10009066    005800180000001800000570000003NN  NNW 000                       N    
RDG04912300WATRL000000004K00000000000000195002403072015120936N000000000000N40       001100400K 10000000010000000183           
CUS0491230000104084905001         OWEN RONALD G       19 LONGERON DR                          000N        CARE OF             
MTR04912300001000000000000000RA              10009088    005800190000001900000570000003NN  NNW 000                       N    
RDG04912300WATRL000000004K00000000000000331002503072015121002N000000000000N40       000260400K 10000000010000000306           
CUS0491230000104084906009         ALLEN BEDFORD WELCH 17 LONGERON DR                          000N        CARE OF             
MTR04912300001000000000000000RA              30519347    005800200000002000000520000003NN  NNW 000                       N    
RDG04912300WATRL000000004K00000000000003403003403072015121914N000000000000N40       000980400K 10000000010000003393           
CUS0491230000104084907007         JENNINGS NANCY E    15 LONGERON DR                          000N        CARE OF             
MTR04912300001000000000000000RA              30519234    005800210000002100000520000003NN  NNW 000                       N    
RDG04912300WATRL000000004K00000000000003949003503072015121918N000000000000N40       000040400K 10000000010000003927           
CUS0491230000104084908005         WELCH KINION BUEL   13 LONGERON DR                          000N        CARE OF             
MTR04912300001000000000000000RA              30515489    005800220000002200000520000003NN  NNW 000                       N    
RDG04912300WATRL000000004K00000000000002392004003072015122424N000000000000N40       001180400K 10000000010000002381           
CUS0491230000104084909003         HIOB JEFFREY C      11 LONGERON DR                          000N        CARE OF             
MTR04912300001000000000000000RA              30527524    005800230000002300000520000003NN  NNW 000                       N    
RDG04912300WATRL000000004K00000000000002455004103072015122436N000300000010N40       000120400K 10000000010000002360           
CUS0491230000104084910001         OLENICK JAMES J     9 LONGERON DR                           000N        CARE OF             
MTR04912300001000000000000000RA              45373699    005800240000002400000520000003NN  NNW 000                       N    
RDG04912300WATRL000000004K00000000000002655003803072015122215N000000000000N40       001100400K 10000000010000002615           
CUS0491230000104084911009         HILL WILLIAM FRANKLI7 LONGERON DR                           000N        CARE OF             
MTR04912300001000000000000000RA              45373697    005800250000002500000520000003NN  NNW 000                       N    
RDG04912300WATRL000000004K00000000000000776003903072015122226N000000000000N40       000110400K 10000000010000000750           
CUS0491230000104084912007         WILLIAMS CHARLES A  5 LONGERON DR                           000N        CARE OF             
MTR04912300001000000000000000RA              35109503    005800260000002600000520000003NN  NNW 000                       N    
RDG04912300WATRL000000004K00000000000003307004203072015122808N000000000000N40       002120400K 10000000010000003288           
CUS0491230000104084913005         SINDAHA MICHAEL     3 LONGERON DR                           000N        CARE OF             
MTR04912300001000000000000000RA              35109500    005800270000002700000520000003NN  NNW 000                       N    
RDG04912300WATRL000000004K00000000000002353004303072015122828N000000000000N40       000200400K 10000000010000002342           
CUS0491230000104084914003         ROPPELT THOMAS      4 LONGERON DR                           000N        CARE OF             
MTR04912300001000000000000000RA              41589314    005800280000002800000520000003NN  NNW 000                       N    
RDG04912300WATRL000000004K00000000000002797004403072015123118N000000000000N40       001700400K 10000000010000002787           
CUS0491230000104084915000         TYLER DAVID G       10 LONGERON DR                          000N        CARE OF             
MTR04912300001000000000000000RA              26003547    005800290000002900000520000003NN  NNW 000                       N    
RDG04912300WATRL000000004K00000000000001997003603072015122021N000000000000N40       000630400K 10000000010000001986           
CUS0491230000104084916008         HEATON SHANNON R    16 LONGERON DR                          000N        CARE OF             
MTR04912300001000000000000000RA              00134170    005800300000003000000570000003NN  NNW 000                       N    
RDG04912300WATRL000000004K00000000000001224003703072015122025N000000000000N40       000040400K 10000000010000001196           
CUS0491230000104084917006         WAGONER FREEMAN H   18 LONGERON DR                          000N        CARE OF             
MTR04912300001000000000000000RA              32900186    005800310000003100000520000003NN  NNW 000                       N    
RDG04912300WATRL000000004K00000000000002321003203072015121732N000000000000N40       000760400K 10000000010000002312           
CUS0491230000104084918004         JOHN T PRESTON      20 LONGERON DR                          000N        CARE OF             
MTR04912300001000000000000000RA              40780181    005800320000003200000520000003NN  NNW 000                       N    
RDG04912300WATRL000000004K00000000000002783003303072015121736N000000000000N40       000040400K 10000000010000002757           
CUS0491230000104084919002         GALE HELEN M        22 LONGERON DR                          000N        CARE OF             
MTR04912300001000000000000000RA              26012068    005800330000003300000520000003NN  NNW 000                       N    
RDG04912300WATRL000000004K00000000000002093003003072015121611N000000000000N40       001390400K 10000000010000002093           
CUS0491230000104084920000         LONGERON 24 LLC     24 LONGERON DR                          000N        CARE OF             
MTR04912300001000000000000000RA              45373827    005800340000003400000520000003NN  NNW 000                       N    
RDG04912300WATRL000000004K00000000000001482003103072015121616N000000000000N40       000050400K 10000000010000001454           
CUS0491230000104084921008         BARNABA BRIAN M     26 LONGERON DR                          000N        CARE OF             
MTR04912300001000000000000000RA              31586940    005800350000003500000520000003NN  NNW 000                       N    
RDG04912300WATRL000000004K00000000000003674002703072015121244N000000000000N40       000350400K 10000000010000003654           
CUS0491230000104084922006         BANK OF AMERICA     28 LONGERON DR                          000N        CARE OF             
MTR04912300001000000000000000RA              40323131    005800360000003600000520000003NN  NNW 000                       N    
RDG04912300WATRL000000004K00000000000001241002603072015121209N000000000000N40       001270400K 10000000010000001235           
CUS0491230000104084923004         BLEVINS ALLEN L     30 LONGERON DR                          000N        CARE OF             
MTR04912300001000000000000000RA              10007636    005800370000003700000570000003NN  NNW 000                       N    
RDG04912300WATRL000000004K00000000000000369001303072015115206N000000000000N40       001070400K 10000000010000000363           
CUS0491230000104084924002         ROBINSON MICHAEL A  32 LONGERON DR                          000N        CARE OF             
MTR04912300001000000000000000RA              31586963    005800380000003800000520000003NN  NNW 000                       N    
RDG04912300WATRL000000004K00000000000001355002003072015120147N000000000001N40       000120400K 10000000010000001344           
CUS0491230000104084925009         JOSEPH SPANGLER     34 LONGERON DR                          000N        CARE OF             
MTR04912300001000000000000000RA              10021163    005800390000003900000570000003NN  NNW 000                       N    
RDG04912300WATRL000000004K00000000000000219001903072015120135N000000000000N40       001420400K 10000000010000000212           
CUS0491230000104084926007         PORTA JOHN FRANCIS  36 LONGERON DR                          000N        CARE OF             
MTR04912300001000000000000000RA              31586964    005800400000004000000520000003NN  NNW 000                       N    
RDG04912300WATRL000000004K00000000000002415001503072015115232N000000000000N40       000040400K 10000000010000002399           
CUS0491230000104084927005         MCDONALD MICHAEL J  38 LONGERON DR                          000N        CARE OF             
MTR04912300001000000000000000RA              00138564    005800410000004100000570000003NN  NNW 000                       N    
RDG04912300WATRL000000004K00000000000000959001403072015115228N000000000000N40       000220400K 10000000010000000951           
CUS0491230000104084928003         GILLIGAN JOHN J     40 LONGERON DR                          000N        CARE OF             
MTR04912300001000000000000000RA              45373816    005800420000004200000520000003NN  NNW 000                       N    
RDG04912300WATRL000000004K00000000000000954001103072015114803N000000000000N40       000040400K 10000000010000000945           
CUS0491230000104084929001         MITCHEM FRANKLIN D  46 LONGERON DR                          000N        CARE OF             
MTR04912300001000000000000000RA              75616665    005800430000004300000350000003NN  NNW 000                       N    
RDG04912300WATRL000000004K00000000000000000001003072015114759N000000000000N40       001270400K 10000000010000000000           
CUS0491230000104084930009         WILLIAMS DANA       52 LONGERON DR                          000N        CARE OF             
MTR04912300001000000000000000RA              45374290    005800440000004400000520000003NN  NNW 000                       N    
RDG04912300WATRL000000004K00000000000001619000303072015113815N000000000000N40       001700400K 10000000010000001609           
CUS0491230000104084931007         BEVERLY N RUSK      1117 FUSELAGE AVE                       000N        CARE OF             
MTR04912300001000000000000000RA              44178526    005800450000004500000520000003NN  NNW 000                       N    
RDG04912300WATRL000000004K00000000000001753006503072015125326N000000000000N40       000980400K 10000000010000001729           
CUS0491230000104084932005         WILKINSON CHRISTOPHE1115 FUSELAGE AVE                       000N        CARE OF             
MTR04912300001000000000000000RA              20767007    005800460000004600000520000003NN  NNW 000                       N    
RDG04912300WATRL000000004K00000000000003668006603072015125332N000000000000N40       000060400K 10000000010000003668           
CUS0491230000104084933003         REYNOLDS BETTY L    1113 FUSELAGE AVE                       000N        CARE OF             
MTR04912300001000000000000000RA              29403468    005800470000004700000520000003NN  NNW 000                       N    
RDG04912300WATRL000000004K00000000000003384006303072015125142N000000000000N40       001480400K 10000000010000003361           
CUS0491230000104084934001         RAYMOND L FULLER    1111 FUSELAGE AVE                       000N        CARE OF             
MTR04912300001000000000000000RA              29403988    005800480000004800000520000003NN  NNW 000                       N    
RDG04912300WATRL000000004K00000000000001512006403072015125148N000000000000N40       000060400K 10000000010000001496           
CUS0491230000104084935008         BEASLEY HARRY G     1109 FUSELAGE AVE                       000N        CARE OF             
MTR04912300001000000000000000RA              29082227    005800490000004900000520000003NN  NNW 000                       N    
RDG04912300WATRL000000004K00000000000002319011603072015134329N000000000000N40       000090400K 10000000010000002306           
CUS0491230000104084936006         KINION B WELCH      1107 FUSELAGE AVE                       000N        CARE OF             
MTR04912300001000000000000000RA              31582471    005800500000005000000520000003NN  NNW 000                       N    
RDG04912300WATRL000000004K00000000000002617011503072015134320N000000000000N40       001910400K 10000000010000002601           
CUS0491230000104084937004         WARNICK ROBERT      1105 FUSELAGE AVE                       000N        CARE OF             
MTR04912300001000000000000000RA              33082925    005800510000005100000520000003NN  NNW 000                       N    
RDG04912300WATRL000000004K00000000000002617006103072015124911N000000000010N40       000770400K 10000000010000002604           
CUS0491230000104084938002         BLEVINS ALLEN       1103 FUSELAGE AVE                       000N        CARE OF             
MTR04912300001000000000000000RA              10007613    005800520000005200000570000003NN  NNW 000                       N    
RDG04912300WATRL000000004K00000000000000305006203072015124914N000000000000N40       000030400K 10000000010000000289           
CUS0491230000104084939000         COLLINS GARY E,JR   1101 FUSELAGE AVE                       000N        CARE OF             
MTR04912300001000000000000000RA              10023769    005800530000005300000570000003NN  NNW 000                       N    
RDG04912300WATRL000000004K00000000000000081005903072015124750N000000000000N40       000970400K 10000000010000000066           
CUS0491230000104084940008         PAUL R STIFFLER     1015 FUSELAGE AVE                       000N        CARE OF             
MTR04912300001000000000000000RA              10021441    005800540000005400000570000003NN  NNW 000                       N    
RDG04912300WATRL000000004K00000000000000119006003072015124754N000000000000N40       000040400K 10000000010000000110           
CUS0491230000104084941006         MYERS MARY K        1013 FUSELAGE AVE                       000N        CARE OF             
MTR04912300001000000000000000RA              27821046    005800550000005500000520000003NN  NNW 000                       N    
RDG04912300WATRL000000004K00000000000002740005503072015124321N000000000010N40       000530400K 10000000010000002727           
CUS0491230000104084942004         WITHROW NORMA ANN   1011 FUSELAGE AVE                       000N        CARE OF             
MTR04912300001000000000000000RA              10007935    005800560000005600000570000003NN  NNW 000                       N    
RDG04912300WATRL000000004K00000000000000218005603072015124325N000000000000N40       000040400K 10000000010000000202           
CUS0491230000104084943002         RICKMERS IRENE C    1009 FUSELAGE AVE                       000N        CARE OF             
MTR04912300001000000000000000RA              35112177    005800570000005700000520000003NN  NNW 000                       N    
RDG04912300WATRL000000004K00000000000000756005303072015124225N000000000000N40       000770400K 10000000010000000744           
CUS0491230000104084944000         CHRISTOFFERSEN ROSEM1007 FUSELAGE AVE                       000N        CARE OF             
MTR04912300001000000000000000RA              31585747    005800580000005800000520000003NN  NNW 000                       N    
RDG04912300WATRL000000004K00000000000001905005403072015124228N000000000000N40       000030400K 10000000010000001896           
CUS0491230000104084945007         SHAMANSKI BARBARA J 1005 FUSELAGE AVE                       000N        CARE OF             
MTR04912300001000000000000000RA              22609121    005800590000005900000520000003NN  NNW 000                       N    
RDG04912300WATRL000000004K00000000000003866005003072015124030N000000000000N40       001960400K 10000000010000003857           
CUS0491230000104084946005         ELLIOTT RHONDA ARLEN1003 FUSELAGE AVE                       000N        CARE OF             
MTR04912300001000000000000000RA              40048877    005800600000006000000520000003NN  NNW 000                       N    
RDG04912300WATRL000000004K00000000000002099005103072015124035N000000000000N40       000050400K 10000000010000002060           
CUS0491230000104084947003         WALTERS FREDERICK S 1001 FUSELAGE AVE                       000N        CARE OF             
MTR04912300001000000000000000RA              10001313    005800610000006100000570000003NN  NNW 000                       N    
RDG04912300WATRL000000004K00000000000000434004503072015123132N000000000000N40       000140400K 10000000010000000418           
CUS0491230000104084948001         SHUPE ROGER G       905 FUSELAGE AVE                        000N        CARE OF             
MTR04912300001000000000000000RA              41082688    005800620000006200000520000003NN  NNW 000                       N    
RDG04912300WATRL000000004K00000000000001678005203072015124108N000000000000N40       000330400K 10000000010000001667           
CUS0491230000104084949009         WASSIF LLC          903 FUSELAGE AVE                        000N        CARE OF             
MTR04912300001000000000000000RA              24757577    005800630000006300000520000003NN  NNW 000                       N    
RDG04912300WATRL000000004K00000000000003344004603072015123329N000000000000N40       001170400K 10000000010000003335           
CUS0491230000104084950007         PETER MICHAEL I     901 FUSELAGE AVE                        000N        CARE OF             
MTR04912300001000000000000000RA              52285991    005800640000006400000520000003NN  NNW 000                       N    
RDG04912300WATRL000000004K00000000000001599004703072015123343N000000000030N40       000140400K 10000000010000001578           
CUS0491230000104084951005         BERGMAN JACK V      900 FUSELAGE AVE                        000N        CARE OF             
MTR04912300001000000000000000RA              52285983    005800650000006500000520000003NN  NNW 000                       N    
RDG04912300WATRL000000004K00000000000000852004003082015134048N000000000000U40       000150400K 10000000010000000836           
CUS0491230000104084952003         WALKER DAVID J      902 FUSELAGE AVE                        000N        CARE OF             
MTR04912300001000000000000000RA              01097097    005800660000006600000610000003NN  NNW 000                       N    
RDG04912300WATRL000000004K00000000000000736004803072015123711N000000000000N40       002080400K 10000000010000000723           
CUS0491230000104084953001         PIETRAMALA COLLEEN  904 FUSELAGE AVE                        000N        CARE OF             
MTR04912300001000000000000000RA              24770609    005800670000006700000520000003NN  NNW 000                       N    
RDG04912300WATRL000000004K00000000000002800004903072015123714N000000000000N40       000030400K 10000000010000002788           
CUS0491230000104084954009         TOLLEY ALBERT CHARLE1000 FUSELAGE AVE                       000N        CARE OF             
MTR04912300001000000000000000RA              31585749    005800680000006800000520000003NN  NNW 000                       N    
RDG04912300WATRL000000004K00000000000002991011003072015133315N000000000000N40       000140400K 10000000010000002956           
CUS0491230000104084955006         MORRISON WILLIAM W  1002 FUSELAGE AVE                       000N        CARE OF             
MTR04912300001000000000000000RA              44178524    005800690000006900000520000003NN  NNW 000                       N    
RDG04912300WATRL000000004K00000000000001920011403072015134009N000000000000N40       000340400K 10000000010000001910           
CUS0491230000104084956004         ISENHART PHILLIP R  1004 FUSELAGE AVE                       000N        CARE OF             
MTR04912300001000000000000000RA              31585751    005800700000007000000520000003NN  NNW 000                       N    
RDG04912300WATRL000000004K00000000000000925011103072015133924N000000000000N40       003690400K 10000000010000000916           
CUS0491230000104084957002         POSTERLI ENTERPRISES1006 FUSELAGE AVE                       000N        CARE OF             
MTR04912300001000000000000000RA              21194802    005800710000007100000520000003NN  NNW 000                       N    
RDG04912300WATRL000000004K00000000000004176011203072015133929N000000000000N40       000050400K 10000000010000004169           
CUS0491230000104084958000         FRANKENFIELD LAWRENC1008 FUSELAGE AVE                       000N        CARE OF             
MTR04912300001000000000000000RA              21194783    005800720000007200000520000003NN  NNW 000                       N    
RDG04912300WATRL000000004K00000000000006639011303072015133935N000000000000N40       000060400K 10000000010000006603           
CUS0491230000104084959008         KEN & GINA LEDWELL  1010 FUSELAGE AVE                       000N        CARE OF             
MTR04912300001000000000000000RA              31582359    005800730000007300000520000003NN  NNW 000                       N    
RDG04912300WATRL000000004K00000000000002187005703072015124610N000000000000N40       001650400K 10000000010000002170           
CUS0491230000104084960006         RHONDA L PRESSLEY   1012 FUSELAGE AVE                       000N        CARE OF             
MTR04912300001000000000000000RA              24224669    005800740000007400000520000003NN  NNW 000                       N    
RDG04912300WATRL000000004K00000000000002601005803072015124613N000000000000N40       000030400K 10000000010000002570           
CUS0491230000104084961004         FRANK J. HERZIG     1014 FUSELAGE AVE                       000N        CARE OF             
MTR04912300001000000000000000RA              26006327    005800750000007500000520000003NN  NNW 000                       N    
RDG04912300WATRL000000004K00000000000002656006703072015125554N000000000000N40       001420400K 10000000010000002621           
CUS0491230000104084962002         RAINEY GREGORY A    4 PROPELLER DR                          000N        CARE OF             
MTR04912300001000000000000000RA              26005327    005800760000007600000520000003NN  NNW 000                       N    
RDG04912300WATRL000000004K00000000000003200006803072015125603N000000000000N40       000090400K 10000000010000003188           
CUS0491230000104084963000         KRUEGER KENNETH W   6 PROPELLER DR                          000N        CARE OF             
MTR04912300001000000000000000RA              44179470    005800770000007700000520000003NN  NNW 000                       N    
RDG04912300WATRL000000004K00000000000003277006903072015125712N000000000000N40       000690400K 10000000010000003242           
CUS0491230000104084964008         SIMPSON JOSEPH L,JR 4 HYDROPLANE DR                         000N        CARE OF             
MTR04912300001000000000000000RA              26012293    005800780000007800000520000003NN  NNW 000                       N    
RDG04912300WATRL000000004K00000000000003479007003072015125715N000000000000N40       000030400K 10000000010000003456           
CUS0491230000104084965005         GILBERT WILLIAM     6 HYDROPLANE DR                         000N        CARE OF             
MTR04912300001000000000000000RA              10021439    005800790000007900000570000003NN  NNW 000                       N    
RDG04912300WATRL000000004K00000000000000000007103072015125842N000000000000N40       000870400K 10000000010000000000           
CUS0491230000104084966003         RINKER ROBERT C     8 HYDROPLANE DR                         000N        CARE OF             
MTR04912300001000000000000000RA              10007671    005800800000008000000570000003NN  NNW 000                       N    
RDG04912300WATRL000000004K00000000000000500007203072015125845N000000000000N40       000030400K 10000000010000000476           
CUS0491230000104084967001         T O WOLFE/SAMMIE WOL10 HYDROPLANE DR                        000N        CARE OF             
MTR04912300001000000000000000RA              23058195    005800810000008100000520000003NN  NNW 000                       N    
RDG04912300WATRL000000004K00000000000004799007303072015130051N000000000020N40       001260400K 10000000010000004786           
CUS0491230000104084968009         NANCY C KING BELTZ  12 HYDROPLANE DR                        000N        CARE OF             
MTR04912300001000000000000000RA              23841911    005800820000008200000520000003NN  NNW 000                       N    
RDG04912300WATRL000000004K00000000000003824007403072015130054N000000000000N40       000030400K 10000000010000003815           
CUS0491230000104084969007         GORSUCH TAMMY M     14 HYDROPLANE DR                        000N        CARE OF             
MTR04912300001000000000000000RA              31582469    005800830000008300000520000003NN  NNW 000                       N    
RDG04912300WATRL000000004K00000000000002894007503072015130105N000000000000N40       000110400K 10000000010000002870           
CUS0491230000104084970005         HOLMAN JOE          16 HYDROPLANE DR                        000N        CARE OF             
MTR04912300001000000000000000RA              27822379    005800840000008400000520000003NN  NNW 000                       N    
RDG04912300WATRL000000004K00000000000003958007603072015130112N000000000000N40       000070400K 10000000010000003940           
CUS0491230000104084971003         HAYNES CARLA M      18 HYDROPLANE DR                        000N        CARE OF             
MTR04912300001000000000000000RA              10007958    005800850000008500000570000003NN  NNW 000                       N    
RDG04912300WATRL000000004K00000000000000542007703072015130315N000000000000N40       001230400K 10000000010000000531           
CUS0491230000104084972001         EDWARDS DAVID R     20 HYDROPLANE DR                        000N        CARE OF             
MTR04912300001000000000000000RA              10007959    005800860000008600000570000003NN  NNW 000                       N    
RDG04912300WATRL000000004K00000000000000526007803072015130318N000000000000N40       000030400K 10000000010000000514           
CUS0491230000104084973009         DANTONI JOSEPH N    22 HYDROPLANE DR                        000N        CARE OF             
MTR04912300001000000000000000RA              26014184    005800870000008700000520000003NN  NNW 000                       N    
RDG04912300WATRL000000004K00000000000001306007903072015130408N000000000000N40       000500400K 10000000010000001295           
CUS0491230000104084974007         REA CHARLES H(DEC)  24 HYDROPLANE DR                        000N        CARE OF             
MTR04912300001000000000000000RA              75616650    005800880000008800000350000003NN  NNW 000                       N    
RDG04912300WATRL000000004K00000000000009999008003072015130415N000300000010N40       000070400K 10000000010000000039           
CUS0491230000104084975004         BROZNOWICZ LEO M,JR 26 HYDROPLANE DR                        000N        CARE OF             
MTR04912300001000000000000000RA              01104349    005800890000008900000610000003NN  NNW 000                       N    
RDG04912300WATRL000000004K00000000000000840008103072015130459N000000000000N40       000440400K 10000000010000000815           
CUS0491230000104084976002         SAUER DAVID G       28 HYDROPLANE DR                        000N        CARE OF             
MTR04912300001000000000000000RA              01104325    005800900000009000000610000003NN  NNW 000                       N    
RDG04912300WATRL000000004K00000000000000654008203072015130502N000000000000N40       000030400K 10000000010000000646           
CUS0491230000104084977000         SAUER DAVID G       30 HYDROPLANE DR                        000N        CARE OF             
MTR04912300001000000000000000RA              31582461    005800910000009100000520000003NN  NNW 000                       N    
RDG04912300WATRL000000004K00000000000003606008303072015130548N000000000000N40       000460400K 10000000010000003575           
CUS0491230000104084978008         HUBER ROBERT A      32 HYDROPLANE DR                        000N        CARE OF             
MTR04912300001000000000000000RA              10007775    005800920000009200000570000003NN  NNW 000                       N    
RDG04912300WATRL000000004K00000000000000525008403072015130551N000000000000N40       000030400K 10000000010000000475           
CUS0491230000104084979006         GALLAGHER KIMBERLY A34 HYDROPLANE DR                        000N        CARE OF             
MTR04912300001000000000000000RA              31582470    005800930000009300000520000003NN  NNW 000                       N    
RDG04912300WATRL000000004K00000000000002971008503072015130635N000000000000N40       000440400K 10000000010000002959           
CUS0491230000104084980004         MORRIS CHARLES E    36 HYDROPLANE DR                        000N        CARE OF             
MTR04912300001000000000000000RA              24763743    005800940000009400000520000003NN  NNW 000                       N    
RDG04912300WATRL000000004K00000000000001881008603072015130641N000000000000N40       000060400K 10000000010000001869           
CUS0491230000104084981002         FOX WILLIAM F       38 HYDROPLANE DR                        000N        CARE OF             
MTR04912300001000000000000000RA              27813090    005800950000009500000520000003NN  NNW 000                       N    
RDG04912300WATRL000000004K00000000000004447008703072015130737N000000000000N40       000560400K 10000000010000004410           
CUS0491230000104084982000         BOLTON KIMBERLY A   40 HYDROPLANE DR                        000N        CARE OF             
MTR04912300001000000000000000RA              42808294    005800960000009600000520000003NN  NNW 000                       N    
RDG04912300WATRL000000004K00000000000001975008803072015130741N000000000000N40       000040400K 10000000010000001965           
CUS0491230000104084983008         BIXLER MELVIN L     1007 CORD ST                            000N        CARE OF             
MTR04912300001000000000000000RA              38886918    005800970000009700000520000003NN  NNW 000                       N    
RDG04912300WATRL000000004K00000000000003430008903072015131120N000000000000N40       002190400K 10000000010000003407           
CUS0491230000104084984006         BRITTANY R STEVENS  1005 CORD ST                            000N        CARE OF             
MTR04912300001000000000000000RA              38887450    005800980000009800000520000003NN  NNW 000                       N    
RDG04912300WATRL000000004K00000000000003927009003072015131127N000000000000N40       000070400K 10000000010000003905           
CUS0491230000104084985003         SPARKS MELISSA      1003 CORD ST                            000N        CARE OF             
MTR04912300001000000000000000RA              30515457    005800990000009900000520000003NN  NNW 000                       N    
RDG04912300WATRL000000004K00000000000002513009103072015131225N000000000000N40       000580400K 10000000010000002494           
CUS0491230000104084986001         STRAND AMY C        1001 CORD ST                            000N        CARE OF             
MTR04912300001000000000000000RA              29082209    005801000000010000000520000003NN  NNW 000                       N    
RDG04912300WATRL000000004K00000000000003009009203072015131228N000000000000N40       000030400K 10000000010000003003           
CUS0491230000104084987009         DOROTHY CASWELL     37 GYRO DR                              000N        CARE OF             
MTR04912300001000000000000000RA              10003907    005801010000010100000570000003NN  NNW 000                       N    
RDG04912300WATRL000000004K00000000000000383009303072015131342N000000000000N40       000740400K 10000000010000000363           
CUS0491230000104084988007         ARMSTRONG ROLAND L  35 GYRO DR                              000N        CARE OF             
MTR04912300001000000000000000RA              31582567    005801020000010200000520000003NN  NNW 000                       N    
RDG04912300WATRL000000004K00000000000003083009403072015131347N000000000000N40       000050400K 10000000010000003074           
CUS0491230000104084989005         WARNICK RONALD J    33 GYRO DR                              000N        CARE OF             
MTR04912300001000000000000000RA              26013954    005801030000010300000520000003NN  NNW 000                       N    
RDG04912300WATRL000000004K00000000000004451009703072015131821N000000000040N40       000150400K 10000000010000004435           
CUS0491230000104084990003         CURNUTTE RICHARD A  31 GYRO DR                              000N        CARE OF             
MTR04912300001000000000000000RA              26013987    005801040000010400000520000003NN  NNW 000                       N    
RDG04912300WATRL000000004K00000000000003302009503072015131619N000000000000N40       001520400K 10000000010000003295           
CUS0491230000104084991001         MICHAELS KAROLL L   29 GYRO DR                              000N        CARE OF             
MTR04912300001000000000000000RA              31582549    005801050000010500000520000003NN  NNW 000                       N    
RDG04912300WATRL000000004K00000000000002233009603072015131806N000000000001N40       000990400K 10000000010000002201           
CUS0491230000104084992009         BOTTORF RONALD LEE  27 GYRO DR                              000N        CARE OF             
MTR04912300001000000000000000RA              31582522    005801060000010600000520000003NN  NNW 000                       N    
RDG04912300WATRL000000004K00000000000004093009803072015131830N000000000000N40       000090400K 10000000010000004056           
CUS0491230000104084993007         PAUGH DANIEL R JR   25 GYRO DR                              000N        CARE OF             
MTR04912300001000000000000000RA              01101940    005801070000010700000610000003NN  NNW 000                       N    
RDG04912300WATRL000000004K00000000000001081009903072015132117N000000000010N40       001670400K 10000000010000001080           
CUS0491230000104084994005         NATIONSTAR MORTGAGE 23 GYRO DR                              000N        CARE OF             
MTR04912300001000000000000000RA              26010185    005801080000010800000520000003NN  NNW 000                       N    
RDG04912300WATRL000000004K00000000000001720010003072015132142N000300000010N40       000250400K 10000000010000001695           
CUS0491230000104084995002         HARRELL LOBRIGHT    21 GYRO DR                              000N        CARE OF             
MTR04912300001000000000000000RA              01082370    005801090000010900000610000003NN  NNW 000                       N    
RDG04912300WATRL000000004K00000000000000716010103072015132314N000000000000N40       000920400K 10000000010000000702           
CUS0491230000104084996000         LANCASTER GARY M    19 GYRO DR                              000N        CARE OF             
MTR04912300001000000000000000RA              99286830    005801100000011000000570000003NN  NNW 000                       N    
RDG04912300WATRL000000004K00000000000000594010203072015132317N000000000000N40       000030400K 10000000010000000587           
CUS0491230000104084997008         JOAN D KEMP         17 GYRO DR                              000N        CARE OF             
MTR04912300001000000000000000RA              52286033    005801110000011100000520000003NN  NNW 000                       N    
RDG04912300WATRL000000004K00000000000000886010303072015132525N000000000000N40       001280400K 10000000010000000856           
CUS0491230000104084998006         JONES JAMES W       15 GYRO DR                              000N        CARE OF             
MTR04912300001000000000000000RA              52285982    005801120000011200000520000003NN  NNW 000                       N    
RDG04912300WATRL000000004K00000000000001865010403072015132533N000000000000N40       000080400K 10000000010000001836           
CUS0491230000104084999004         WHITE KENNETH RAY   13 GYRO DR                              000N        CARE OF             
MTR04912300001000000000000000RA              31582587    005801130000011300000520000003NN  NNW 000                       N    
RDG04912300WATRL000000004K00000000000001236010503072015132737N000000000000N40       001240400K 10000000010000001225           
CUS0491230000104085000000         BRADLEY FRANK L     11 GYRO DR                              000N        CARE OF             
MTR04912300001000000000000000RA              31582564    005801140000011400000520000003NN  NNW 000                       N    
RDG04912300WATRL000000004K00000000000001509010603072015132747N000000000010N40       000100400K 10000000010000001509           
CUS0491230000104085001008         GRACE TIMOTHY R     9 GYRO DR                               000N        CARE OF             
MTR04912300001000000000000000RA              33078778    005801150000011500000520000003NN  NNW 000                       N    
RDG04912300WATRL000000004K00000000000002784010703072015133140N000000000000N40       002330400K 10000000010000002772           
CUS0491230000104085002006         STREIB DANIEL       7 GYRO DR                               000N        CARE OF             
MTR04912300001000000000000000RA              31582520    005801160000011600000520000003NN  NNW 000                       N    
RDG04912300WATRL000000004K00000000000001553010803072015133155N000000000000N40       000150400K 10000000010000001544           
CUS0491230000104085003004         SCHELL MICHAEL W    5 GYRO DR                               000N        CARE OF             
MTR04912300001000000000000000RA              44179438    005801170000011700000520000003NN  NNW 000                       N    
RDG04912300WATRL000000004K00000000000001342010903072015133301N000000000000N40       000660400K 10000000010000001335           
CUS0491230000104085004002         DELSIGNORE ELLA A   4 GYRO DR                               000N        CARE OF             
MTR04912300001000000000000000RA              00138271    005801180000011800000570000003NN  NNW 000                       N    
RDG04912300WATRL000000004K00000000000000966000103082015130103N000000000000U40       000000400K 10000000010000000916           
CUS0491230000104085005009         MARCHANT ARCHIE O   6 GYRO DR                               000N        CARE OF             
MTR04912300001000000000000000RA              41259289    005801190000011900000520000003NN  NNW 000                       N    
RDG04912300WATRL000000004K00000000000001672000203082015130107N000000000000U40       000040400K 10000000010000001667           
CUS0491230000104085006007         APPLESTINE MARK     8 GYRO DR                               000N        CARE OF             
MTR04912300001000000000000000RA              10024448    005801200000012000000570000003NN  NNW 000                       N    
RDG04912300WATRL000000004K00000000000000090000303082015130250N000000000000U40       001030400K 10000000010000000077           
CUS0491230000104085007005         ASHLEY SEARFOSS     10 GYRO DR                              000N        CARE OF             
MTR04912300001000000000000000RA              45381670    005801210000012100000520000003NN  NNW 000                       N    
RDG04912300WATRL000000004K00000000000000591000403082015130309N000000000010U40       000190400K 10000000010000000577           
CUS0491230000104085008003         POSTERLI ENTERPRISES12 GYRO DR                              000N        CARE OF             
MTR04912300001000000000000000RA              99287233    005801220000012200000570000003NN  NNW 000                       N    
RDG04912300WATRL000000004K00000000000001110000503082015130444N000000000000U40       000950400K 10000000010000001100           
CUS0491230000104085009001         MABE DAVID EMERSON  14 GYRO DR                              000N        CARE OF             
MTR04912300001000000000000000RA              99287187    005801230000012300000570000003NN  NNW 000                       N    
RDG04912300WATRL000000004K00000000000001551000603082015130446N000000000000U40       000020400K 10000000010000001522           
CUS0491230000104085010009         DUBNER RONALD R     16 GYRO DR                              000N        CARE OF             
MTR04912300001000000000000000RA              00138613    005801240000012400000570000003NN  NNW 000                       N    
RDG04912300WATRL000000004K00000000000001013000703082015130625N000000000000U40       000990400K 10000000010000000998           
CUS0491230000104085011007         RICCITELLI WENDY    18 GYRO DR                              000N        CARE OF             
MTR04912300001000000000000000RA              01102782    005801250000012500000610000003NN  NNW 000                       N    
RDG04912300WATRL000000004K00000000000000699000803082015130639N000000000020U40       000140400K 10000000010000000683           
CUS0491230000104085012005         KRAUSE ROY          20 GYRO DR                              000N        CARE OF             
MTR04912300001000000000000000RA              32899887    005801260000012600000520000003NN  NNW 000                       N    
RDG04912300WATRL000000004K00000000000000921000903082015130830N000000000000U40       001110400K 10000000010000000913           
CUS0491230000104085013003         JOHNSTON CLEO S     22 GYRO DR                              000N        CARE OF             
MTR04912300001000000000000000RA              26013958    005801270000012700000520000003NN  NNW 000                       N    
RDG04912300WATRL000000004K00000000000001414001003082015130833N000000000000U40       000030400K 10000000010000001407           
CUS0491230000104085014001         BURCHETT BRION N    24 GYRO DR                              000N        CARE OF             
MTR04912300001000000000000000RA              31582544    005801280000012800000520000003NN  NNW 000                       N    
RDG04912300WATRL000000004K00000000000003365001103082015130940N000000000000U40       000670400K 10000000010000003341           
CUS0491230000104085015008         MICHAEL J TREAS JR  26 GYRO DR                              000N        CARE OF             
MTR04912300001000000000000000RA              45381673    005801290000012900000520000003NN  NNW 000                       N    
RDG04912300WATRL000000004K00000000000001883001203082015130946N000000000000U40       000060400K 10000000010000001856           
CUS0491230000104085016006         MILLER JAMES A,JR   28 GYRO DR                              000N        CARE OF             
MTR04912300001000000000000000RA              52286035    005801300000013000000520000003NN  NNW 000                       N    
RDG04912300WATRL000000004K00000000000001072001303082015131056N000000000000U40       000700400K 10000000010000001040           
CUS0491230000104085017004         ALT MARY ANN        30 GYRO DR                              000N        CARE OF             
MTR04912300001000000000000000RA              01080222    005801310000013100000610000003NN  NNW 000                       N    
RDG04912300WATRL000000004K00000000000000589001403082015131100N000000000000U40       000040400K 10000000010000000575           
CUS0491230000104085018002         ALICIA N CRAIG      32 GYRO DR                              000N        CARE OF             
MTR04912300001000000000000000RA              31582559    005801320000013200000520000003NN  NNW 000                       N    
RDG04912300WATRL000000004K00000000000002720001503082015131422N000000000000U40       002020400K 10000000010000002696           
CUS0491230000104085019000         HALLEY RONALD J     34 GYRO DR                              000N        CARE OF             
MTR04912300001000000000000000RA              50479271    005801330000013300000520000003NN  NNW 000                       N    
RDG04912300WATRL000000004K00000000000000965001603082015131433N000000000010U40       000110400K 10000000010000000844           
CUS0491230000104085020008         CUMMINS ARTHUR M    36 GYRO DR                              000N        CARE OF             
MTR04912300001000000000000000RA              50479279    005801340000013400000520000003NN  NNW 000                       N    
RDG04912300WATRL000000004K00000000000001195001703082015131609N000000000000U40       000960400K 10000000010000001176           
CUS0491230000104085021006         HOLLAND JAMES L     911 CORD ST                             000N        CARE OF             
MTR04912300001000000000000000RA              99287104    005801350000013500000570000003NN  NNW 000                       N    
RDG04912300WATRL000000004K00000000000000157001803082015131612N000000000000U40       000030400K 10000000010000000155           
CUS0491230000104085022004         LURZ JOYCE E        909 CORD ST                             000N        CARE OF             
MTR04912300001000000000000000RA              10011203    005801360000013600000570000003NN  NNW 000                       N    
RDG04912300WATRL000000004K00000000000000131001903082015131753N000000000000U40       001010400K 10000000010000000122           
CUS0491230000104085023002         AYERS JERRY D       907 CORD ST                             000N        CARE OF             
MTR04912300001000000000000000RA              10011199    005801370000013700000570000003NN  NNW 000                       N    
RDG04912300WATRL000000004K00000000000000196002003082015131757N000000000000U40       000040400K 10000000010000000187           
CUS0491230000104085024000         LEONARD LINDA ANN   903 CORD ST                             000N        CARE OF             
MTR04912300001000000000000000RA              75616758    005801380000013800000350000003NN  NNW 000                       N    
RDG04912300WATRL000000004K00000000000000027002103082015131854N000000000000U40       000570400K 10000000010000000021           
CUS0491230000104085025007         SIMMONS EDWIN GUY,JR41 COMPASS RD                           000N        CARE OF             
MTR04912300001000000000000000RA              75616762    005801390000013900000350000003NN  NNW 000                       N    
RDG04912300WATRL000000004K00000000000000034002203082015131900N000300000010U40       000060400K 10000000010000000024           
CUS0491230000104085026005         TAVEL MICHAEL L     37 COMPASS RD                           000N        CARE OF             
MTR04912300001000000000000000RA              50786704    005801400000014000000520000003NN  NNW 000                       N    
RDG04912300WATRL000000004K00000000000001079002303082015132306N000000000000U40       002460400K 10000000010000001054           
CUS0491230000104085027003         BAKER KENNETH L     35 COMPASS RD                           000N        CARE OF             
MTR04912300001000000000000000RA              26013262    005801410000014100000520000003NN  NNW 000                       N    
RDG04912300WATRL000000004K00000000000002513002403082015132310N000000000000U40       000040400K 10000000010000002497           
CUS0491230000104085028001         SIGMON DAVID WAYNE  33 COMPASS RD                           000N        CARE OF             
MTR04912300001000000000000000RA              27821136    005801420000014200000520000003NN  NNW 000   VACANT / LOT        N    
RDG04912300WATRL000000004K00000000000002825002503082015132427N000000000000U40       000770400K 10000000010000002825           
CUS0491230000104085029009         MARCELLAN C HERNANDE31 COMPASS RD                           000N        CARE OF             
MTR04912300001000000000000000RA              27133296    005801430000014300000520000003NN  NNW 000                       N    
RDG04912300WATRL000000004K00000000000002767002603082015132430N000000000000U40       000030400K 10000000010000002739           
CUS0491230000104085030007         BOSTIC BOBBY RAY    29 COMPASS RD                           000N        CARE OF             
MTR04912300001000000000000000RA              26015284    005801440000014400000520000003NN  NNW 000                       N    
RDG04912300WATRL000000004K00000000000002492002703082015132518N000000000000U40       000480400K 10000000010000002470           
CUS0491230000104085031005         SULLIVAN GEORGE H   27 COMPASS RD                           000N        CARE OF             
MTR04912300001000000000000000RA              26013321    005801450000014500000520000003NN  NNW 000                       N    
RDG04912300WATRL000000004K00000000000001392002803082015132521N000000000000U40       000030400K 10000000010000001383           
CUS0491230000104085032003         BRADDS ERNEST  GIESE25 COMPASS RD                           000N        CARE OF             
MTR04912300001000000000000000RA              23646944    005801460000014600000520000003NN  NNW 000                       N    
RDG04912300WATRL000000004K00000000000003704002903082015132606N000000000000U40       000450400K 10000000010000003688           
CUS0491230000104085033001         RYAN YVONNE CARROLL 23 COMPASS RD                           000N        CARE OF             
MTR04912300001000000000000000RA              44178879    005801470000014700000520000003NN  NNW 000                       N    
RDG04912300WATRL000000004K00000000000002515003003082015132611N000000000000U40       000050400K 10000000010000002497           
CUS0491230000104085034009         BANK OF AMERICA     21 COMPASS RD                           000N        CARE OF             
MTR04912300001000000000000000RA              99188581    005801480000014800000570000003NN  NNW 000                       N    
RDG04912300WATRL000000004K00000000000001060003103082015132703N000000000000U40       000520400K 10000000010000001060           
CUS0491230000104085035006         FULLER STEVE        19 COMPASS RD                           000N        CARE OF             
MTR04912300001000000000000000RA              99188537    005801490000014900000570000003NN  NNW 000                       N    
RDG04912300WATRL000000004K00000000000001188003203082015132916N000000000031U40       000080400K 10000000010000001177           
CUS0491230000104085036004         WEST KENNETH        17 COMPASS RD                           000N        CARE OF             
MTR04912300001000000000000000RA              31586499    005801500000015000000520000003NN  NNW 000                       N    
RDG04912300WATRL000000004K00000000000003169003303082015133004N000000000020U40       000480400K 10000000010000003154           
CUS0491230000104085037002         MARSZALEK MICHAEL AL15 COMPASS RD                           000N        CARE OF             
MTR04912300001000000000000000RA              10024636    005801510000015100000570000003NN  NNW 000                       N    
RDG04912300WATRL000000004K00000000000000144003403082015133017N000000000000U40       000130400K 10000000010000000135           
CUS0491230000104085038000         LONSFORD BUDDY HUGH 13 COMPASS RD                           000N        CARE OF             
MTR04912300001000000000000000RA              25782870    005801520000015200000520000003NN  NNW 000                       N    
RDG04912300WATRL000000004K00000000000001495003503082015133342N000000000000U40       002050400K 10000000010000001484           
CUS0491230000104085039008         MURPHY JAMES R      11 COMPASS RD                           000N        CARE OF             
MTR04912300001000000000000000RA              25782872    005801530000015300000520000003NN  NNW 000                       N    
RDG04912300WATRL000000004K00000000000003971003603082015133353N000000000000U40       000110400K 10000000010000003954           
CUS0491230000104085040006         TRENT DAVID MICHAEL 9 COMPASS RD                            000N        CARE OF             
MTR04912300001000000000000000RA              26013026    005801540000015400000520000003NN  NNW 000                       N    
RDG04912300WATRL000000004K00000000000002312003703082015133733N000000000010U40       002200400K 10000000010000002303           
CUS0491230000104085041004         BAILEY WILLIE J     7 COMPASS RD                            000N        CARE OF             
MTR04912300001000000000000000RA              26013286    005801550000015500000520000003NN  NNW 000                       N    
RDG04912300WATRL000000004K00000000000002455003803082015133745N000000000000U40       000120400K 10000000010000002429           
CUS0491230000104085042002         GERRY LAWRENCE N    5 COMPASS RD                            000N        CARE OF             
MTR04912300001000000000000000RA              52285973    005801560000015600000520000003NN  NNW 000                       N    
RDG04912300WATRL000000004K00000000000001162003903082015134033N000000000000U40       001680400K 10000000010000001147           
CUS0491230000104085043000         S AND A SONS LLC    3 COMPASS RD                            000N        CARE OF             
MTR04912300001000000000000000RA              32903310    005801570000015700000520000003NN  NNW 000                       N    
RDG04912300WATRL000000004K00000000000005897004103082015134441N000300000021U40       000330400K 10000000010000005859           
CUS0491230000104085044008         E & M INVESTMENTS,LL1 COMPASS RD                            000N        CARE OF             
MTR04912300001000000000000000RA              34409010    007501580000015800000520000003NN  NNW 000                       N    
RDG04912300WATRL000000004K00000000000001698004203082015135211N000000000010U40       004500400K 10000000010000001696           
RTR04912300NN01580158000001580000000001580158000175NY015801580158000000000000000000000000000001    02132015NY020000 N         
RHD04912400NN01800180000001800000000001800180000216NY018001800180000000040000000000000000000001    02022015NY020000 N         
CUS0491240000104085045005         C C M ASSOCIATES LLC805 FUSELAGE AVE                        000N        CARE OF             
MTR04912400001000000000000000RA              99999999    005800010000000100000620000003NN  NNW 000                       N    
RDG04912400WATRL000000004K00000000000000000000103082015081938S002000000000N40       000000400K 10000000010000005390           
CUS0491240000104085046003         EXTRA SPACE STORAGE 803 FUSELAGE AVE                        000N        CARE OF             
MTR04912400001000000000000000RA              99999999    005800020000000200000620000003NN  NNW 000                       N    
RDG04912400WATRL000000004K00000000000000000000203082015081941S002000000000N40       000030400K 10000000010000000581           
CUS0491240000104085047001         MCDOWELL KENNETH R  801 FUSELAGE AVE                        000N        CARE OF             
MTR04912400001000000000000000RA              26013731    005800030000000300000520000003NN  NNW 000                       N    
RDG04912400WATRL000000004K00000000000003668000303082015082015N000000000000N40       000340400K 10000000010000003653           
CUS0491240000104085048009         POLING JAMES R      717 FUSELAGE AVE                        000N        CARE OF             
MTR04912400001000000000000000RA              76346166    005800040000000400000350000003NN  NNW 000                       N    
RDG04912400WATRL000000004K00000000000000000000403082015082143N000000000000N40       000880400K 10000000010000000000           
CUS0491240000104085049007         POSTERLI ENTERPRISES715 FUSELAGE AVE                        000N        CARE OF             
MTR04912400001000000000000000RA              31585755    005800050000000500000520000003NN  NNW 000                       N    
RDG04912400WATRL000000004K00000000000003126000503082015082210N000000000000N40       000270400K 10000000010000003108           
CUS0491240000104085050005         PAULA BRADDS        713 FUSELAGE AVE                        000N        CARE OF             
MTR04912400001000000000000000RA              31585759    005800060000000600000520000003NN  NNW 000                       N    
RDG04912400WATRL000000004K00000000000004142000603082015082220N000000000000N40       000100400K 10000000010000004043           
CUS0491240000104085051003         PICKLE RANDALL W    711 FUSELAGE AVE                        000N        CARE OF             
MTR04912400001000000000000000RA              44176774    005800070000000700000520000003NN  NNW 000                       N    
RDG04912400WATRL000000004K00000000000002418000703082015082310N000000000000N40       000500400K 10000000010000002401           
CUS0491240000104085052001         MAZERSKI EDWARD F,JR709 FUSELAGE AVE                        000N        CARE OF             
MTR04912400001000000000000000RA              44176714    005800080000000800000520000003NN  NNW 000                       N    
RDG04912400WATRL000000004K00000000000002314000803082015082317N000300000010N40       000070400K 10000000010000002303           
CUS0491240000104085053009         WILLIAMS WALTER F   707 FUSELAGE AVE                        000N        CARE OF             
MTR04912400001000000000000000RA              40780025    005800090000000900000520000003NN  NNW 000                       N    
RDG04912400WATRL000000004K00000000000002130000903082015082410N000000000000N40       000530400K 10000000010000002116           
CUS0491240000104085054007         JONES MICHAEL P     705 FUSELAGE AVE                        000N        CARE OF             
MTR04912400001000000000000000RA              46884397    005800100000001000000520000003NN  NNW 000                       N    
RDG04912400WATRL000000004K00000000000002302001003082015082416N000000000000N40       000060400K 10000000010000002280           
CUS0491240000104085055004         ANDERSON ALVIN BARRY703 FUSELAGE AVE                        000N        CARE OF             
MTR04912400001000000000000000RA              30519159    005800110000001100000520000003NN  NNW 000                       N    
RDG04912400WATRL000000004K00000000000003053001103082015082500N000000000000N40       000440400K 10000000010000003042           
CUS0491240000104085056002         JOHNSTON ERIC R     701 FUSELAGE AVE                        000N        CARE OF             
MTR04912400001000000000000000RA              30519257    005800120000001200000520000003NN  NNW 000                       N    
RDG04912400WATRL000000004K00000000000001361001203082015082510N000000000000N40       000100400K 10000000010000001324           
CUS0491240000104085057000         STREETER WILLIAM SCO2 RIGHT ELEVATOR DR                     000N        CARE OF             
MTR04912400001000000000000000RA              38887127    005800130000001300000520000003NN  NNW 000                       N    
RDG04912400WATRL000000004K00000000000003097001303082015082930N000000000000N40       002600400K 10000000010000003069           
CUS0491240000104085058008         THATCHER TAMARA A/WE4 RIGHT ELEVATOR DR                     000N        CARE OF             
MTR04912400001000000000000000RA              48584729    005800140000001400000520000003NN  NNW 000                       N    
RDG04912400WATRL000000004K00000000000001576001603082015083419N000000000000N40       000210400K 10000000010000001564           
CUS0491240000104085059006         STAVROS MICHAEL E   6 RIGHT ELEVATOR DR                     000N        CARE OF             
MTR04912400001000000000000000RA              50479691    005800150000001500000520000003NN  NNW 000                       N    
RDG04912400WATRL000000004K00000000000002180001703082015083425N000000000000N40       000060400K 10000000010000002168           
CUS0491240000104085060004         METZ GEORGE D       8 RIGHT ELEVATOR DR                     000N        CARE OF             
MTR04912400001000000000000000RA              26014526    005800160000001600000520000003NN  NNW 000                       N    
RDG04912400WATRL000000004K00000000000000968001403082015083346N000000000000N40       002560400K 10000000010000000965           
CUS0491240000104085061002         KIMOS STEFANIE E    10 RIGHT ELEVATOR DR                    000N        CARE OF             
MTR04912400001000000000000000RA              26014518    005800170000001700000520000003NN  NNW 000                       N    
RDG04912400WATRL000000004K00000000000002679001503082015083358N000000000000N40       000120400K 10000000010000002675           
CUS0491240000104085062000         HUTCHISON DANIEL A  12 RIGHT ELEVATOR DR                    000N        CARE OF             
MTR04912400001000000000000000RA              10014954    005800180000001800000570000003NN  NNW 000                       N    
RDG04912400WATRL000000004K00000000000000220001803082015083640N000300000010N40       001350400K 10000000010000000195           
CUS0491240000104085063008         POSTERLI PROPERTIES 14 RIGHT ELEVATOR DR                    000N        CARE OF             
MTR04912400001000000000000000RA              10021259    005800190000001900000570000003NN  NNW 000                       N    
RDG04912400WATRL000000004K00000000000000131001903082015083644N000000000000N40       000040400K 10000000010000000126           
CUS0491240000104085064006         THOMAS J BAUMEISTER 16 RIGHT ELEVATOR DR                    000N        CARE OF             
MTR04912400001000000000000000RA              31585741    005800200000002000000520000003NN  NNW 000                       N    
RDG04912400WATRL000000004K00000000000002038002003082015083829N000000000000N40       001050400K 10000000010000002028           
CUS0491240000104085065003         RICE ELSIE          18 RIGHT ELEVATOR DR                    000N        CARE OF             
MTR04912400001000000000000000RA              31585758    005800210000002100000520000003NN  NNW 000                       N    
RDG04912400WATRL000000004K00000000000001384002103082015083840N000000000000N40       000110400K 10000000010000001376           
CUS0491240000104085066001         KIMBERLY J DALTON   20 RIGHT ELEVATOR DR                    000N        CARE OF             
MTR04912400001000000000000000RA              45374266    005800220000002200000520000003NN  NNW 000                       N    
RDG04912400WATRL000000004K00000000000002802002203082015084003N000000000000N40       000830400K 10000000010000002802           
CUS0491240000104085067009         STRINE ADAM L       22 RIGHT ELEVATOR DR                    000N        CARE OF             
MTR04912400001000000000000000RA              45374248    005800230000002300000520000003NN  NNW 000                       N    
RDG04912400WATRL000000004K00000000000002543002303082015084011N000000000000N40       000080400K 10000000010000002509           
CUS0491240000104085068007         TABAK JOHN          24 RIGHT ELEVATOR DR                    000N        CARE OF             
MTR04912400001000000000000000RA              40780257    005800240000002400000520000003NN  NNW 000                       N    
RDG04912400WATRL000000004K00000000000000770002403082015084146N000000000010N40       000950400K 10000000010000000770           
CUS0491240000104085069005         SMITH ROBERT M      26 RIGHT ELEVATOR DR                    000N        CARE OF             
MTR04912400001000000000000000RA              46877736    005800250000002500000520000003NN  NNW 000                       N    
RDG04912400WATRL000000004K00000000000001782002503082015084153N000000000000N40       000070400K 10000000010000001771           
CUS0491240000104085070003         WHITE JOSEPHINE     28 RIGHT ELEVATOR DR                    000N        CARE OF             
MTR04912400001000000000000000RA              48590840    005800260000002600000520000003NN  NNW 000                       N    
RDG04912400WATRL000000004K00000000000000600002603082015084253N000000000000N40       000600400K 10000000010000000600           
CUS0491240000104085071001         SIMMONS LUCY A      30 RIGHT ELEVATOR DR                    000N        CARE OF             
MTR04912400001000000000000000RA              48590838    005800270000002700000520000003NN  NNW 000                       N    
RDG04912400WATRL000000004K00000000000001331002703082015084307N000000000000N40       000140400K 10000000010000001313           
CUS0491240000104085072009         PECK SARA L         25 RIGHT ELEVATOR DR                    000N        CARE OF             
MTR04912400001000000000000000RA              99389988    005800280000002800000570000003NN  NNW 000                       N    
RDG04912400WATRL000000004K00000000000001025003003082015084609N000000000010N40       000430400K 10000000010000001014           
CUS0491240000104085073007         CECILIA RETANA AMAYA21 RIGHT ELEVATOR DR                    000N        CARE OF             
MTR04912400001000000000000000RA              10009749    005800290000002900000570000003NN  NNW 000                       N    
RDG04912400WATRL000000004K00000000000000177003103082015084834N000000000000N40       001450400K 10000000010000000167           
CUS0491240000104085074005         ALT RUTH R          17 RIGHT ELEVATOR DR                    000N        CARE OF             
MTR04912400001000000000000000RA              31582320    005800300000003000000520000003NN  NNW 000                       N    
RDG04912400WATRL000000004K00000000000001545003403082015085737N000000000050N40       000610400K 10000000010000001540           
CUS0491240000104085075002         MEEHAN PATRICK D    15 RIGHT ELEVATOR DR                    000N        CARE OF             
MTR04912400001000000000000000RA              31585752    005800310000003100000520000003NN  NNW 000                       N    
RDG04912400WATRL000000004K00000000000001756003503082015085743N000000000000N40       000060400K 10000000010000001749           
CUS0491240000104085076000         TRAYLOR LARRY L     13 RIGHT ELEVATOR DR                    000N        CARE OF             
MTR04912400001000000000000000RA              14903847    005800320000003200000310000003NN  NNW 000                       N    
RDG04912400WATRL000000004K00000000000000474003603082015085752N000000000000N40       000090400K 10000000010000000465           
CUS0491240000104085077008         POSTERLI PROPERTIES 11 RIGHT ELEVATOR DR                    000N        CARE OF             
MTR04912400001000000000000000RA              14903588    005800330000003300000310000003NN  NNW 000                       N    
RDG04912400WATRL000000004K00000000000001012003703082015085807N000000000030N40       000150400K 10000000010000001000           
CUS0491240000104085078006         POSTERLI ENTERPRISES9 RIGHT ELEVATOR DR                     000N        CARE OF             
MTR04912400001000000000000000RA              31582466    005800340000003400000520000003NN  NNW 000                       N    
RDG04912400WATRL000000004K00000000000002951003203082015085633N000000000020N40       004790400K 10000000010000002930           
CUS0491240000104085079004         RICHARDS GEORGE W,JR7 RIGHT ELEVATOR DR                     000N        CARE OF             
MTR04912400001000000000000000RA              10022139    005800350000003500000570000003NN  NNW 000                       N    
RDG04912400WATRL000000004K00000000000000098003303082015085636N000000000000N40       000030400K 10000000010000000088           
CUS0491240000104085080002         COOK HARRY E,JR     5 RIGHT ELEVATOR DR                     000N        CARE OF             
MTR04912400001000000000000000RA              45374295    005800360000003600000520000003NN  NNW 000                       N    
RDG04912400WATRL000000004K00000000000001982003803082015090008N000000000000N40       001210400K 10000000010000001971           
CUS0491240000104085081000         JOHNSON CURTIS      3 RIGHT ELEVATOR DR                     000N        CARE OF             
MTR04912400001000000000000000RA              14920609    005800370000003700000310000003NN  NNW 000                       N    
RDG04912400WATRL000000004K00000000000000614003903082015090025N000000000030N40       000170400K 10000000010000000596           
CUS0491240000104085082008         WINKLER BRYAN       702 FUSELAGE AVE                        000N        CARE OF             
MTR04912400001000000000000000RA              01103183    005800380000003800000610000003NN  NNW 000                       N    
RDG04912400WATRL000000004K00000000000000673004003082015090214N000000000000N40       001090400K 10000000010000000663           
CUS0491240000104085083006         GABBERT STEPHEN D   704 FUSELAGE AVE                        000N        CARE OF             
MTR04912400001000000000000000RA              01103182    005800390000003900000610000003NN  NNW 000                       N    
RDG04912400WATRL000000004K00000000000001416004103082015090246N000000000040N40       000320400K 10000000010000001394           
CUS0491240000104085084004         DORSEY ROGER ALLEN  706 FUSELAGE AVE                        000N        CARE OF             
MTR04912400001000000000000000RA              10006680    005800400000004000000570000003NN  NNW 000                       N    
RDG04912400WATRL000000004K00000000000000705005003082015091607N000000000060N40       001300400K 10000000010000000668           
CUS0491240000104085085001         MILLER LISA F       708 FUSELAGE AVE                        000N        CARE OF             
MTR04912400001000000000000000RA              50479361    005800410000004100000520000003NN  NNW 000                       N    
RDG04912400WATRL000000004K00000000000001581005103082015091610N000000000000N40       000030400K 10000000010000001572           
CUS0491240000104085086009         SUTHERLAND RICKY LEE710 FUSELAGE AVE                        000N        CARE OF             
MTR04912400001000000000000000RA              46877733    005800420000004200000520000003NN  NNW 000                       N    
RDG04912400WATRL000000004K00000000000004265004203082015090546N000000000000N40       001800400K 10000000010000004222           
CUS0491240000104085087007         BUCHER JOEY A       712 FUSELAGE AVE                        000N        CARE OF             
MTR04912400001000000000000000RA              30519308    005800430000004300000520000003NN  NNW 000                       N    
RDG04912400WATRL000000004K00000000000002829004303082015090553N000000000000N40       000070400K 10000000010000002812           
CUS0491240000104085088005         LOGUE JONATHAN H    714 FUSELAGE AVE                        000N        CARE OF             
MTR04912400001000000000000000RA              10006755    005800440000004400000570000003NN  NNW 000                       N    
RDG04912400WATRL000000004K00000000000000405004403082015091003N000000000000N40       002500400K 10000000010000000386           
CUS0491240000104085089003         MATTHEWS FLORENCE N 4 YAWMETER DR                           000N        CARE OF             
MTR04912400001000000000000000RA              10006737    005800450000004500000570000003NN  NNW 000                       N    
RDG04912400WATRL000000004K00000000000000291004503082015091012N000000000000N40       000090400K 10000000010000000274           
CUS0491240000104085090001         BIDDINGER WALTER    6 YAWMETER DR                           000N        CARE OF             
MTR04912400001000000000000000RA              40779187    005800460000004600000520000003NN  NNW 000                       N    
RDG04912400WATRL000000004K00000000000001653005203082015092037N000000000000N40       002670400K 10000000010000001631           
CUS0491240000104085091009         KURUPPIS MIA        4 STABILIZER DR                         000N        CARE OF             
MTR04912400001000000000000000RA              40779200    005800470000004700000520000003NN  NNW 000                       N    
RDG04912400WATRL000000004K00000000000001306005303082015092054N000000000010N40       000170400K 10000000010000001295           
CUS0491240000104085092007         ALTVATER ROBIN JEAN 6 STABILIZER DR                         000N        CARE OF             
MTR04912400001000000000000000RA              31582566    005800480000004800000520000003NN  NNW 000                       N    
RDG04912400WATRL000000004K00000000000004748005403082015092225N000000000000N40       000910400K 10000000010000004711           
CUS0491240000104085093005         THOMASON CHARLES FRA8 STABILIZER DR                         000N        CARE OF             
MTR04912400001000000000000000RA              31582562    005800490000004900000520000003NN  NNW 000                       N    
RDG04912400WATRL000000004K00000000000000000005503082015092232S005000000000U40       000070400K 10000000010000002199           
CUS0491240000104085094003         POSTERLI ENTERPRISES10 STABILIZER DR                        000N        CARE OF             
MTR04912400001000000000000000RA              31582646    005800500000005000000520000003NN  NNW 000                       N    
RDG04912400WATRL000000004K00000000000003530005603082015092339N000000000000N40       000670400K 10000000010000003507           
CUS0491240000104085095000         OCONNOR MICHAEL J   12 STABILIZER DR                        000N        CARE OF             
MTR04912400001000000000000000RA              50479693    005800510000005100000520000003NN  NNW 000                       N    
RDG04912400WATRL000000004K00000000000002410005703082015092342N000000000000N40       000030400K 10000000010000002382           
CUS0491240000104085096008         POSTERLI PROPERTIES 14 STABILIZER DR                        000N        CARE OF             
MTR04912400001000000000000000RA              00138267    005800520000005200000570000003NN  NNW 000                       N    
RDG04912400WATRL000000004K00000000000001026005803082015092450N000000000000N40       000680400K 10000000010000001017           
CUS0491240000104085097006         WALLACE RUFUS A     16 STABILIZER DR                        000N        CARE OF             
MTR04912400001000000000000000RA              39291341    005800530000005300000520000003NN  NNW 000                       N    
RDG04912400WATRL000000004K00000000000000996005903082015092458N000000000000N40       000080400K 10000000010000000984           
CUS0491240000104085098004         BECKNER BRENDA L    18 STABILIZER DR                        000N        CARE OF             
MTR04912400001000000000000000RA              31582647    005800540000005400000520000003NN  NNW 000                       N    
RDG04912400WATRL000000004K00000000000002647006003082015092614N000000000000N40       000760400K 10000000010000002638           
CUS0491240000104085099002         KOEROCK, ROSANNA N  20 STABILIZER DR                        000N        CARE OF             
MTR04912400001000000000000000RA              40322152    005800550000005500000520000003NN  NNW 000                       N    
RDG04912400WATRL000000004K00000000000001726006103082015092620N000000000010N40       000060400K 10000000010000001713           
CUS0491240000104085100008         MACHULIS PAUL W     22 STABILIZER DR                        000N        CARE OF             
MTR04912400001000000000000000RA              10011476    005800560000005600000570000003NN  NNW 000                       N    
RDG04912400WATRL000000004K00000000000000184002803082015084519N000000000000N40       001320400K 10000000010000000177           
CUS0491240000104085101006         ROBINSON SENA       26 STABILIZER DR                        000N        CARE OF             
MTR04912400001000000000000000RA              31582666    005800570000005700000520000003NN  NNW 000                       N    
RDG04912400WATRL000000004K00000000000002288002903082015092902N000000000001N40       001620400K 10000000010000002281           
CUS0491240000104085102004         GOCHANOUR ROBBIE    28 STABILIZER DR                        000N        CARE OF             
MTR04912400001000000000000000RA              31582651    005800580000005800000520000003NN  NNW 000                       N    
RDG04912400WATRL000000004K00000000000002594006203082015092916N000000000000N40       000140400K 10000000010000002580           
CUS0491240000104085103002         SOUTHCOMB OLGA      30 STABILIZER DR                        000N        CARE OF             
MTR04912400001000000000000000RA              22609206    005800590000005900000520000003NN  NNW 000                       N    
RDG04912400WATRL000000004K00000000000002356006303082015093021N000000000000N40       000650400K 10000000010000002334           
CUS0491240000104085104000         WIGFIELD MADELINE F 32 STABILIZER DR                        000N        CARE OF             
MTR04912400001000000000000000RA              45373819    005800600000006000000520000003NN  NNW 000                       N    
RDG04912400WATRL000000004K00000000000001847006403082015093245N000000000000N40       001440400K 10000000010000001835           
CUS0491240000104085105007         SMITH RUTHLE K      38 STABILIZER DR                        000N        CARE OF             
MTR04912400001000000000000000RA              23052660    005800610000006100000520000003NN  NNW 000                       N    
RDG04912400WATRL000000004K00000000000003656006503082015093804N000000000000N40       003190400K 10000000010000003645           
CUS0491240000104085106005         CULOTTA DAVID       40 STABILIZER DR                        000N        CARE OF             
MTR04912400001000000000000000RA              30519475    005800620000006200000520000003NN  NNW 000                       N    
RDG04912400WATRL000000004K00000000000003864006603082015093817N000000000000N40       000130400K 10000000010000003844           
CUS0491240000104085107003         CASLOW ROBERT       42 STABILIZER DR                        000N        CARE OF             
MTR04912400001000000000000000RA              10015591    005800630000006300000570000003NN  NNW 000                       N    
RDG04912400WATRL000000004K00000000000000338006703082015093824N000000000000N40       000070400K 10000000010000000314           
CUS0491240000104085108001         LONDON SHERMAN,SR   44 STABILIZER DR                        000N        CARE OF             
MTR04912400001000000000000000RA              31582669    005800640000006400000520000003NN  NNW 000                       N    
RDG04912400WATRL000000004K00000000000001968006803082015094222N000000000000N40       002380400K 10000000010000001939           
CUS0491240000104085109009         HAUSER DANIEL M     46 STABILIZER DR                        000N        CARE OF             
MTR04912400001000000000000000RA              75615352    005800650000006500000350000003NN  NNW 000                       N    
RDG04912400WATRL000000004K00000000000000000006903082015094226N000000000000N40       000040400K 10000000010000000000           
CUS0491240000104085110007         DEMPSEY WILBUR A    47 STABILIZER DR                        000N        CARE OF             
MTR04912400001000000000000000RA              45374267    005800660000006600000520000003NN  NNW 000                       N    
RDG04912400WATRL000000004K00000000000002400007003082015094636N000000000000N40       002500400K 10000000010000002389           
CUS0491240000104085111005         SNYDER MILDRED OLETA43 STABILIZER DR                        000N        CARE OF             
MTR04912400001000000000000000RA              31585746    005800670000006700000520000003NN  NNW 000                       N    
RDG04912400WATRL000000004K00000000000001269007103082015094717N000000000010N40       000410400K 10000000010000001258           
CUS0491240000104085112003         POSTERLI ENTERPRISES39 STABILIZER DR                        000N        CARE OF             
MTR04912400001000000000000000RA              31585738    005800680000006800000520000003NN  NNW 000                       N    
RDG04912400WATRL000000004K00000000000002296007203082015095014N000000000000N40       001770400K 10000000010000002281           
CUS0491240000104085113001         KOHLER MARVIN S,SR  37 STABILIZER DR                        000N        CARE OF             
MTR04912400001000000000000000RA              31582394    005800690000006900000520000003NN  NNW 000                       N    
RDG04912400WATRL000000004K00000000000003610007303082015095043N000300000010N40       000290400K 10000000010000003572           
CUS0491240000104085114009         WILKINSON JESSICA M 35 STABILIZER DR                        000N        CARE OF             
MTR04912400001000000000000000RA              31582465    005800700000007000000520000003NN  NNW 000                       N    
RDG04912400WATRL000000004K00000000000001945007403082015095313N000000000000N40       001500400K 10000000010000001932           
CUS0491240000104085115006         DELL JOHN E         33 STABILIZER DR                        000N        CARE OF             
MTR04912400001000000000000000RA              31582182    005800710000007100000520000003NN  NNW 000                       N    
RDG04912400WATRL000000004K00000000000002570007503082015095317N000000000000N40       000040400K 10000000010000002546           
CUS0491240000104085116004         BLACKWELL DAVID L   31 STABILIZER DR                        000N        CARE OF             
MTR04912400001000000000000000RA              30515698    005800720000007200000520000003NN  NNW 000                       N    
RDG04912400WATRL000000004K00000000000001446007603082015095539N000000000000N40       001420400K 10000000010000001437           
CUS0491240000104085117002         KIMBLE JOHN W       29 STABILIZER DR                        000N        CARE OF             
MTR04912400001000000000000000RA              76346195    005800730000007300000350000003NN  NNW 000                       N    
RDG04912400WATRL000000004K00000000000000004007703082015095557N000000000040N40       000180400K 10000000010000000002           
CUS0491240000104085118000         EWING ROGER ALAN    27 STABILIZER DR                        000N        CARE OF             
MTR04912400001000000000000000RA              31585754    005800740000007400000520000003NN  NNW 000                       N    
RDG04912400WATRL000000004K00000000000002519007803082015095722N000000000000N40       000850400K 10000000010000002494           
CUS0491240000104085119008         WYER CLEOGENE HATTIE25 STABILIZER DR                        000N        CARE OF             
MTR04912400001000000000000000RA              31585743    005800750000007500000520000003NN  NNW 000                       N    
RDG04912400WATRL000000004K00000000000004005007903082015095727N000000000000N40       000050400K 10000000010000003984           
CUS0491240000104085120006         METZ ROBERT G       23 STABILIZER DR                        000N        CARE OF             
MTR04912400001000000000000000RA              00138562    005800760000007600000570000003NN  NNW 000                       N    
RDG04912400WATRL000000004K00000000000000964008003082015095951N000400000010N40       001440400K 10000000010000000961           
CUS0491240000104085121004         HART DUWARD E,TRUSTE21 STABILIZER DR                        000N        CARE OF             
MTR04912400001000000000000000RA              44174728    005800770000007700000520000003NN  NNW 000                       N    
RDG04912400WATRL000000004K00000000000000854008103082015100006N000000000000N40       000150400K 10000000010000000847           
CUS0491240000104085122002         RZEPKA BRENDA SUE   19 STABILIZER DR                        000N        CARE OF             
MTR04912400001000000000000000RA              24229811    005800780000007800000520000003NN  NNW 000                       N    
RDG04912400WATRL000000004K00000000000002578008203082015100135N000000000000N40       000890400K 10000000010000002570           
CUS0491240000104085123000         BIXLER HERBERT G,TRU17 STABILIZER DR                        000N        CARE OF             
MTR04912400001000000000000000RA              31582620    005800790000007900000520000003NN  NNW 000                       N    
RDG04912400WATRL000000004K00000000000002776008303082015100217N000000000041N40       000070400K 10000000010000002775           
CUS0491240000104085124008         CORNELLSON LARRY R,J11 STABILIZER DR                        000N        CARE OF             
MTR04912400001000000000000000RA              14901547    005800800000008000000310000003NN  NNW 000                       N    
RDG04912400WATRL000000004K00000000000000975008403082015100520N000000000000N40       001830400K 10000000010000000952           
CUS0491240000104085125005         FALLS AVERY DEAN    5 STABILIZER DR                         000N        CARE OF             
MTR04912400001000000000000000RA              31582618    005800810000008100000520000003NN  NNW 000                       N    
RDG04912400WATRL000000004K00000000000004415008503082015101244N000000000050N40       004440400K 10000000010000004386           
CUS0491240000104085126003         LEDFORD WILLIAM J   10 YAWMETER DR                          000N        CARE OF             
MTR04912400001000000000000000RA              31582621    005800820000008200000520000003NN  NNW 000                       N    
RDG04912400WATRL000000004K00000000000003006008603082015101252N000000000000N40       000080400K 10000000010000002998           
CUS0491240000104085127001         FREEMAN CHRISTOPHER 12 YAWMETER DR                          000N        CARE OF             
MTR04912400001000000000000000RA              10004487    005800830000008300000570000003NN  NNW 000                       N    
RDG04912400WATRL000000004K00000000000000360008703082015101330N000000000000N40       000380400K 10000000010000000348           
CUS0491240000104085128009         HONEYCUTT JOHN H    14 YAWMETER DR                          000N        CARE OF             
MTR04912400001000000000000000RA              45375168    005800840000008400000520000003NN  NNW 000   VACANT / LOT        N    
RDG04912400WATRL000000004K00000000000002147008803082015101333N000000000000N40       000030400K 10000000010000002147           
CUS0491240000104085129007         HEGE DEZMA J        16 YAWMETER DR                          000N        CARE OF             
MTR04912400001000000000000000RA              39290787    005800850000008500000520000003NN  NNW 000                       N    
RDG04912400WATRL000000004K00000000000001955009103082015101634N000000000000N40       000060400K 10000000010000001944           
CUS0491240000104085130005         POSTERLI ENTERPRISES18 YAWMETER DR                          000N        CARE OF             
MTR04912400001000000000000000RA              39290785    005800860000008600000520000003NN  NNW 000                       N    
RDG04912400WATRL000000004K00000000000002726009203082015101639N000000000010N40       000050400K 10000000010000002714           
CUS0491240000104085131003         SOISTMAN SHARON A   20 YAWMETER DR                          000N        CARE OF             
MTR04912400001000000000000000RA              24759256    005800870000008700000520000003NN  NNW 000                       N    
RDG04912400WATRL000000004K00000000000003136008903082015101625N000000000000N40       001720400K 10000000010000003126           
CUS0491240000104085132001         POSTERLI PROPERTIES 22 YAWMETER DR                          000N        CARE OF             
MTR04912400001000000000000000RA              19459320    005800880000008800000520000003NN  NNW 000                       N    
RDG04912400WATRL000000004K00000000000003477009003082015101628N000000000000N40       000030400K 10000000010000003466           
CUS0491240000104085133009         DONALD N NOONAN     24 YAWMETER DR                          000N        CARE OF             
MTR04912400001000000000000000RA              01082871    005800890000008900000610000003NN  NNW 000                       N    
RDG04912400WATRL000000004K00000000000000269009303082015101757N000000000000N40       000780400K 10000000010000000260           
CUS0491240000104085134007         B GREENSFELDER SR   26 YAWMETER DR                          000N        CARE OF             
MTR04912400001000000000000000RA              45375088    005800900000009000000520000003NN  NNW 000                       N    
RDG04912400WATRL000000004K00000000000001356009403082015101807N000300000010N40       000100400K 10000000010000001332           
CUS0491240000104085135004         MURRAY HOLDING LLC  28 YAWMETER DR                          000N        CARE OF             
MTR04912400001000000000000000RA              01096873    005800910000009100000610000003NN  NNW 000                       N    
RDG04912400WATRL000000004K00000000000000662009503082015101901N000000000010N40       000540400K 10000000010000000661           
CUS0491240000104085136002         DELL CAROLE J       30 YAWMETER DR                          000N        CARE OF             
MTR04912400001000000000000000RA              01096879    005800920000009200000610000003NN  NNW 000                       N    
RDG04912400WATRL000000004K00000000000001058009603082015101904N000000000000N40       000030400K 10000000010000000990           
CUS0491240000104085137000         COLE BRENT ALLEN    32 YAWMETER DR                          000N        CARE OF             
MTR04912400001000000000000000RA              10021487    005800930000009300000570000003NN  NNW 000                       N    
RDG04912400WATRL000000004K00000000000000177009703082015102525N000000000001N40       003810400K 10000000010000000168           
CUS0491240000104085138008         WARREN C LYONS      34 YAWMETER DR                          000N        CARE OF             
MTR04912400001000000000000000RA              10021618    005800940000009400000570000003NN  NNW 000                       N    
RDG04912400WATRL000000004K00000000000000220009803082015102531N000000000010N40       000060400K 10000000010000000208           
CUS0491240000104085139006         BOWSER GLENN EDWARD 36 YAWMETER DR                          000N        CARE OF             
MTR04912400001000000000000000RA              26043104    005800950000009500000520000003NN  NNW 000                       N    
RDG04912400WATRL000000004K00000000000001712009903082015102657N000000000000N40       000860400K 10000000010000001708           
CUS0491240000104085140004         BOWER ERIN L        38 YAWMETER DR                          000N        CARE OF             
MTR04912400001000000000000000RA              31586447    005800960000009600000520000003NN  NNW 000                       N    
RDG04912400WATRL000000004K00000000000001910010003082015102721N000000000000N40       000240400K 10000000010000001892           
CUS0491240000104085141002         TRENT DAVIS M/SHARON100 YAWMETER DR                         000N        CARE OF             
MTR04912400001000000000000000RA              27817851    005800970000009700000520000003NN  NNW 000                       N    
RDG04912400WATRL000000004K00000000000001126010103082015102846N000000000000N40       000850400K 10000000010000001101           
CUS0491240000104085142000         SCHUMAN CAROL J     102 YAWMETER DR                         000N        CARE OF             
MTR04912400001000000000000000RA              24770100    005800980000009800000520000003NN  NNW 000                       N    
RDG04912400WATRL000000004K00000000000003167010203082015102851N000000000000N40       000050400K 10000000010000003163           
CUS0491240000104085143008         HAGLAUER THOMAS C   104 YAWMETER DR                         000N        CARE OF             
MTR04912400001000000000000000RA              32898844    005800990000009900000520000003NN  NNW 000                       N    
RDG04912400WATRL000000004K00000000000002146010303082015102934N000000000000N40       000430400K 10000000010000002137           
CUS0491240000104085144006         GOEDEKE ROBERT J    106 YAWMETER DR                         000N        CARE OF             
MTR04912400001000000000000000RA              31582570    005801000000010000000520000003NN  NNW 000                       N    
RDG04912400WATRL000000004K00000000000002434010403082015102946N000300000010N40       000120400K 10000000010000002403           
CUS0491240000104085145003         JORDAN GRAHAM       108 YAWMETER DR                         000N        CARE OF             
MTR04912400001000000000000000RA              32898841    005801010000010100000520000003NN  NNW 000                       N    
RDG04912400WATRL000000004K00000000000002625010503082015103036N000300000010N40       000500400K 10000000010000002617           
CUS0491240000104085146001         KIRI N DANIELS      110 YAWMETER DR                         000N        CARE OF             
MTR04912400001000000000000000RA              32898845    005801020000010200000520000003NN  NNW 000                       N    
RDG04912400WATRL000000004K00000000000002446010603082015103046N000000000000N40       000100400K 10000000010000002438           
CUS0491240000104085147009         DARK JAMES R,3RD    112 YAWMETER DR                         000N        CARE OF             
MTR04912400001000000000000000RA              45375092    005801030000010300000520000003NN  NNW 000                       N    
RDG04912400WATRL000000004K00000000000001085010703082015103128N000300000010N40       000420400K 10000000010000001069           
