FHDNNNN021003154003154003523N                                                                                           010230
RHD08577600NN01580158000001580000000001580158000138NY015801580158000900000000000000000000000002    02102015NY020000 N         
CUS0857760000108400400001         COWAN MICHAEL       7100 RUTHGREEN RD                       000N        CARE OF             
MTR08577600001000000000000000RA              01087270    005800010000000100000610000003NN  NNW 000                       N    
RDG08577600WATRL000000004K00000000000000784002102192015090824N000000000000N86       000270400K 10000000010000000784           
CUS0857760000108400399005         GILMORE GARCIA      7102 RUTHGREEN RD                       000N        CARE OF             
MTR08577600001000000000000000RA              44003099    005800020000000200000520000003NN  NNW 000                       N    
RDG08577600WATRL000000004K00000000000004428002002192015090757N000000000000N86       000040400K 10000000010000004415           
CUS0857760000108400398007         COLVIN HANALYN M    7104 RUTHGREEN RD                       000N        CARE OF             
MTR08577600001000000000000000RA              44003053    005800030000000300000520000003NN  NNW 000                       N    
RDG08577600WATRL000000004K00000000000002235001902192015090753N000000000000N86       000050400K 10000000010000002232           
CUS0857760000108400397009         ACORN REAL ESTATE LL7106 RUTHGREEN RD                       000N        CARE OF             
MTR08577600001000000000000000RA              42810982    005800040000000400000520000003NN  NNW 000                       N    
RDG08577600WATRL000000004K00000000000003038001802192015090748N000000000000N86       000100400K 10000000010000003023           
CUS0857760000108400396001         NEWTON LAROSE       7108 RUTHGREEN RD                       000N        CARE OF             
MTR08577600001000000000000000RA              33735502    005800050000000500000520000003NN  NNW 000                       N    
RDG08577600WATRL000000004K00000000000002118001702192015090738N000000000000N86       000200400K 10000000010000002096           
CUS0857760000108400395003         BARRETT ADRIENNE Y  7110 RUTHGREEN RD                       000N        CARE OF             
MTR08577600001000000000000000RA              36698687    005800060000000600000520000003NN  NNW 000                       N    
RDG08577600WATRL000000004K00000000000001070001602192015090718N000000000000N86       001110400K 10000000010000001063           
CUS0857760000108400401009         MUGERA-TILLEY CAROLI7111 RUTHGREEN RD                       000N        CARE OF             
MTR08577600001000000000000000RA              41080573    005800070000000700000520000003NN  NNW 000                       N    
RDG08577600WATRL000000004K00000000000002944002702192015090940N000000000000N86       000040400K 10000000010000002944           
CUS0857760000108400402007         AKINMADEYEMI NELSON 7109 RUTHGREEN RD                       000N        CARE OF             
MTR08577600001000000000000000RA              10017442    005800080000000800000570000003NN  NNW 000   VACANT / LOT        N    
RDG08577600WATRL000000004K00000000000000000002602192015090936N000000000000N86       000030400K 10000000010000000000           
CUS0857760000108400403005         OPHER IVAN D,SR     7107 RUTHGREEN RD                       000N        CARE OF             
MTR08577600001000000000000000RA              41075289    005800090000000900000520000003NN  NNW 000                       N    
RDG08577600WATRL000000004K00000000000003615002502192015090933N000000000000N86       000240400K 10000000010000003590           
CUS0857760000108400404003         PANKAJ & DINESH LAL 7105 RUTHGREEN RD                       000N        CARE OF             
MTR08577600001000000000000000RA              41075818    005800100000001000000520000003NN  NNW 000                       N    
RDG08577600WATRL000000004K00000000000003026002402192015090909N000000000000N86       000060400K 10000000010000003007           
CUS0857760000108400405000         THOMAS FRANKLIN  THO7103 RUTHGREEN RD                       000N        CARE OF             
MTR08577600001000000000000000RA              41075703    005800110000001100000520000003NN  NNW 000                       N    
RDG08577600WATRL000000004K00000000000002898002302192015090903N000000000000N86       000060400K 10000000010000002878           
CUS0857760000108400406008         SINGH DALJIT        7101 RUTHGREEN RD                       000N        CARE OF             
MTR08577600001000000000000000RA              41075820    005800120000001200000520000003NN  NNW 000                       N    
RDG08577600WATRL000000004K00000000000002938002202192015090857N000000000000N86       000330400K 10000000010000002921           
CUS0857760000108400409002         ACORN REAL ESTATE SO7100 RUTHERFORD GREEN CIR               000N        CARE OF             
MTR08577600001000000000000000RA              41075698    005800130000001300000520000003NN  NNW 000                       N    
RDG08577600WATRL000000004K00000000000003060000602192015090245N000300000010N86       000220400K 10000000010000003042           
CUS0857760000108400426006         FREDDY GODFREY      7102 RUTHERFORD GREEN CIR               000N        CARE OF             
MTR08577600001000000000000000RA              41075702    005800140000001400000520000003NN  NNW 000                       N    
RDG08577600WATRL000000004K00000000000004190000502192015090223N000000000000N86       000030400K 10000000010000004157           
CUS0857760000108400420009         BHULLA GURDIAL      7104 RUTHERFORD GREEN CIR               000N        CARE OF             
MTR08577600001000000000000000RA              41075699    005800150000001500000520000003NN  NNW 000                       N    
RDG08577600WATRL000000004K00000000000005774000402192015090220N000000000000N86       000210400K 10000000010000005705           
CUS0857760000108400421007         AKOTIA DENNIS       7106 RUTHERFORD GREEN CIR               000N        CARE OF             
MTR08577600001000000000000000RA              41076014    005800160000001600000520000003NN  NNW 000                       N    
RDG08577600WATRL000000004K00000000000003641000302192015090159N000000000000N86       000040400K 10000000010000003625           
CUS0857760000108400423003         DEANNA WAGONER      7108 RUTHERFORD GREEN CIR               000N        CARE OF             
MTR08577600001000000000000000RA              41075700    005800170000001700000520000003NN  NNW 000                       N    
RDG08577600WATRL000000004K00000000000005161000202192015090155N000000000000N86       000120400K 10000000010000005152           
CUS0857760000108400425008         THOMAS DARLENE A    7110 RUTHERFORD GREEN CIR               000N        CARE OF             
MTR08577600001000000000000000RA              44179481    005800180000001800000520000003NN  NNW 000                       N    
RDG08577600WATRL000000004K00000000000002787000102192015090143N000000000000N86       000000400K 10000000010000002765           
CUS0857760000108400394006         WELLS FARGO BANK N A7200 RUTHERFORD GREEN CIR               000N        CARE OF             
MTR08577600001000000000000000RA              48586474    005800190000001900000520000003NN  NNW 000                       N    
RDG08577600WATRL000000004K00000000000001477004102192015091510N000000000000N86       000080400K 10000000010000001473           
CUS0857760000108400393008         GOODE AARON         7202 RUTHERFORD GREEN CIR               000N        CARE OF             
MTR08577600001000000000000000RA              48586582    005800200000002000000520000003NN  NNW 000                       N    
RDG08577600WATRL000000004K00000000000001601004002192015091502N000000000000N86       000030400K 10000000010000001593           
CUS0857760000108400392000         WASIKE AMOS         7204 RUTHERFORD GREEN CIR               000N        CARE OF             
MTR08577600001000000000000000RA              48586580    005800210000002100000520000003NN  NNW 000                       N    
RDG08577600WATRL000000004K00000000000002491003902192015091459N000000000000N86       000220400K 10000000010000002464           
CUS0857760000108400432004         BURKE AMBER M       7206 RUTHERFORD GREEN CIR               000N        CARE OF             
MTR08577600001000000000000000RA              48586583    005800220000002200000520000003NN  NNW 000                       N    
RDG08577600WATRL000000004K00000000000001477003802192015091437N000000000000N86       000030400K 10000000010000001470           
CUS0857760000108400431006         JEFFREY JONES       7208 RUTHERFORD GREEN CIR               000N        CARE OF             
MTR08577600001000000000000000RA              48586579    005800230000002300000520000003NN  NNW 000                       N    
RDG08577600WATRL000000004K00000000000001914003702192015091434N000000000000N86       000090400K 10000000010000001902           
CUS0857760000108400430008         ESPEUT CHANTIA D    7210 RUTHERFORD GREEN CIR               000N        CARE OF             
MTR08577600001000000000000000RA              48586578    005800240000002400000520000003NN  NNW 000                       N    
RDG08577600WATRL000000004K00000000000001998003602192015091425N000000000000N86       000240400K 10000000010000001980           
CUS0857760000108400429000         WILSON SHAWN R      7201 RUTHERFORD GREEN CIR               000N        CARE OF             
MTR08577600001000000000000000RA              48592363    005800250000002500000520000003NN  NNW 000                       N    
RDG08577600WATRL000000004K00000000000001706002802192015091150N000000000000N86       001300400K 10000000010000001688           
CUS0857760000108400428002         KUMAR DINESH        7203 RUTHERFORD GREEN CIR               000N        CARE OF             
MTR08577600001000000000000000RA              48592389    005800260000002600000520000003NN  NNW 000                       N    
RDG08577600WATRL000000004K00000000000006888002902192015091220N000000000000N86       000300400K 10000000010000006857           
CUS0857760000108400427004         KINGORI EUNICE WANJI7205 RUTHERFORD GREEN CIR               000N        CARE OF             
MTR08577600001000000000000000RA              10017441    005800270000002700000570000003NN  NNW 000                       N    
RDG08577600WATRL000000004K00000000000000309003002192015091222N000000000000N86       000020400K 10000000010000000292           
CUS0857760000108400424001         GARDNER NADIYAH S   7207 RUTHERFORD GREEN CIR               000N        CARE OF             
MTR08577600001000000000000000RA              48592366    005800280000002800000520000003NN  NNW 000                       N    
RDG08577600WATRL000000004K00000000000001128003102192015091315N000000000000N86       000530400K 10000000010000001117           
CUS0857760000108400422005         WANGIA JARED M      7209 RUTHERFORD GREEN CIR               000N        CARE OF             
MTR08577600001000000000000000RA              48592362    005800290000002900000520000003NN  NNW 000                       N    
RDG08577600WATRL000000004K00000000000001554003202192015091316N000000000000N86       000010400K 10000000010000001537           
CUS0857760000108400419001         OBLETON ALFRED      7211 RUTHERFORD GREEN CIR               000N        CARE OF             
MTR08577600001000000000000000RA              48592391    005800300000003000000520000003NN  NNW 000                       N    
RDG08577600WATRL000000004K00000000000002971003302192015091320N000000000000N86       000040400K 10000000010000002952           
CUS0857760000108400418003         ZITOONI FATEMA      7213 RUTHERFORD GREEN CIR               000N        CARE OF             
MTR08577600001000000000000000RA              01106677    005800310000003100000610000003NN  NNW 000                       N    
RDG08577600WATRL000000004K00000000000000668003402192015091322N000000000000N86       000020400K 10000000010000000654           
CUS0857760000108400417005         GREEN KEISHA        7215 RUTHERFORD GREEN CIR               000N        CARE OF             
MTR08577600001000000000000000RA              48592364    005800320000003200000520000003NN  NNW 000                       N    
RDG08577600WATRL000000004K00000000000002067003502192015091401N000000000000N86       000390400K 10000000010000002051           
CUS0857760000108400416007         BOYKIN TIA M        7117 RUTHERFORD GREEN CIR               000N        CARE OF             
MTR08577600001000000000000000RA              41075982    005800330000003300000520000003NN  NNW 000                       N    
RDG08577600WATRL000000004K00000000000003537001502192015090527N000000000000N86       000250400K 10000000010000003496           
CUS0857760000108400415009         SMOOT-GUILFORD CAROL7115 RUTHERFORD GREEN CIR               000N        CARE OF             
MTR08577600001000000000000000RA              41075984    005800340000003400000520000003NN  NNW 000                       N    
RDG08577600WATRL000000004K00000000000003449001402192015090502N000000000000N86       000270400K 10000000010000003380           
CUS0857760000108400414002         BANIRE RAHMON ADEBOL7113 RUTHERFORD GREEN CIR               000N        CARE OF             
MTR08577600001000000000000000RA              78020916    005800350000003500000350000003NN  NNW 000                       N    
RDG08577600WATRL000000004K00000000000000073001302192015090435N000000000011N86       000230400K 10000000010000000023           
CUS0857760000108400413004         ZGIDOU SOUAD        7111 RUTHERFORD GREEN CIR               000N        CARE OF             
MTR08577600001000000000000000RA              41076012    005800360000003600000520000003NN  NNW 000                       N    
RDG08577600WATRL000000004K00000000000003588001202192015090404N000000000000N86       000030400K 10000000010000003575           
CUS0857760000108400412006         NEWTON LAROSE       7109 RUTHERFORD GREEN CIR               000N        CARE OF             
MTR08577600001000000000000000RA              14927612    005800370000003700000310000003NN  NNW 000                       N    
RDG08577600WATRL000000004K00000000000001019001102192015090401N000000000000N86       000060400K 10000000010000000972           
CUS0857760000108400411008         BHULLA GURDIAL      7107 RUTHERFORD GREEN CIR               000N        CARE OF             
MTR08577600001000000000000000RA              14921266    005800380000003800000310000003NN  NNW 000                       N    
RDG08577600WATRL000000004K00000000000000990001002192015090355N000000000000N86       000230400K 10000000010000000917           
CUS0857760000108400410000         AGESA KEN E         7105 RUTHERFORD GREEN CIR               000N        CARE OF             
MTR08577600001000000000000000RA              10006414    005800390000003900000570000003NN  NNW 000                       N    
RDG08577600WATRL000000004K00000000000000632000902192015090332N000000000000N86       000110400K 10000000010000000600           
CUS0857760000108400408004         NICHOLSON EARL E,JR 7103 RUTHERFORD GREEN CIR               000N        CARE OF             
MTR08577600001000000000000000RA              14927659    005800400000004000000310000003NN  NNW 000                       N    
RDG08577600WATRL000000004K00000000000000473000802192015090321N000000000000N86       000030400K 10000000010000000457           
CUS0857760000108400407006         GRIFFIN SHARON E    7101 RUTHERFORD GREEN CIR               000N        CARE OF             
MTR08577600001000000000000000RA              30526389    005800410000004100000520000003NN  NNW 000                       N    
RDG08577600WATRL000000004K00000000000000695000702192015090318N000000000000N86       000330400K 10000000010000000617           
CUS0857760000108030277001         STEPHEN OKUDO       3137 TIMANUS LN                         000N        CARE OF             
MTR08577600001000000000000000RA              35109560    005800420000004200000520000003NN  NNW 000                       N    
RDG08577600WATRL000000004K00000000000001396004202192015092046N000000000000N86       003360400K 10000000010000001384           
CUS0857760000108030278009         STOTTS STEPHAN      3139 TIMANUS LN                         000N        CARE OF             
MTR08577600001000000000000000RA              01078975    005800430000004300000610000003NN  NNW 000                       N    
RDG08577600WATRL000000004K00000000000000474004302192015092102N000000000000N86       000160400K 10000000010000000467           
CUS0857760000108030279007         CRAFTON CHARLES E   3141 TIMANUS LN                         000N        CARE OF             
MTR08577600001000000000000000RA              30524780    005800440000004400000520000003NN  NNW 000                       N    
RDG08577600WATRL000000004K00000000000007999004402192015092105N000000000000N86       000030400K 10000000010000007986           
CUS0857760000108030280005         HENDERSON ANNETTE   7153 BEXHILL RD                         000N        CARE OF             
MTR08577600001000000000000000RA              40780953    005800450000004500000520000003NN  NNW 000                       N    
RDG08577600WATRL000000004K00000000000001234005002192015092738N000000000000N86       001160400K 10000000010000001221           
CUS0857760000108030281003         FRAZIER CHANETA B   7151 BEXHILL RD                         000N        CARE OF             
MTR08577600001000000000000000RA              40781290    005800460000004600000520000003NN  NNW 000                       N    
RDG08577600WATRL000000004K00000000000002185005102192015092740N000000000000N86       000020400K 10000000010000002178           
CUS0857760000108030282001         BENNETT JAMES N,3RD 7149 BEXHILL RD                         000N        CARE OF             
MTR08577600001000000000000000RA              10023639    005800470000004700000570000003NN  NNW 000                       N    
RDG08577600WATRL000000004K00000000000000242004802192015092535N000000000000N86       000300400K 10000000010000000220           
CUS0857760000108030283009         COLEMAN GEORGE      7147 BEXHILL RD                         000N        CARE OF             
MTR08577600001000000000000000RA              24226890    005800480000004800000520000003NN  NNW 000                       N    
RDG08577600WATRL000000004K00000000000004238004902192015092542N000000000000N86       000070400K 10000000010000004221           
CUS0857760000108030284007         KEYSER PIERCE R,JR  7145 BEXHILL RD                         000N        CARE OF             
MTR08577600001000000000000000RA              23054501    005800490000004900000520000003NY  NNW 000                       N    
MTM0857760023054501    FROZEN                                                                                                 
RDG08577600WATRL000000004K00000000000002589001003072015135912N000000000000U86       004620400K 10000000010000002557           
CUS0857760000108030285004         KUMAR REALTY LLC    7143 BEXHILL RD                         000N        CARE OF             
MTR08577600001000000000000000RA              01112114    005800500000005000000610000003NN  NNW 000                       N    
RDG08577600WATRL000000004K00000000000001335006002192015093211N000000000000N86       000240400K 10000000010000001307           
CUS0857760000108030286002         ALWANYI ANGELA      7141 BEXHILL RD                         000N        CARE OF             
MTR08577600001000000000000000RA              32898125    005800510000005100000520000003NN  NNW 000                       N    
RDG08577600WATRL000000004K00000000000004483006102192015093253N000000000000N86       000420400K 10000000010000004387           
CUS0857760000108030287000         NEWMAN DONNELL STEPH7139 BEXHILL RD                         000N        CARE OF             
MTR08577600001000000000000000RA              14930459    005800520000005200000310000003NN  NNW 000                       N    
RDG08577600WATRL000000004K00000000000001211006402192015093420N000000000000N86       000130400K 10000000010000001158           
CUS0857760000108030288008         HOGAN EDWIN D       7137 BEXHILL RD                         000N        CARE OF             
MTR08577600001000000000000000RA              01107481    005800530000005300000610000003NN  NNW 000                       N    
RDG08577600WATRL000000004K00000000000000526006502192015093422N000000000000N86       000020400K 10000000010000000518           
CUS0857760000108030289006         BAKER CAROL YVETTE  7135 BEXHILL RD                         000N        CARE OF             
MTR08577600001000000000000000RA              01107482    005800540000005400000610000003NN  NNW 000                       N    
RDG08577600WATRL000000004K00000000000001197006602192015093537N000400000010N86       000750400K 10000000010000001189           
CUS0857760000108030290004         CAMERON WILLIAM A   7133 BEXHILL RD                         000N        CARE OF             
MTR08577600001000000000000000RA              40779676    005800550000005500000520000003NN  NNW 000                       N    
RDG08577600WATRL000000004K00000000000002584006702192015093539N000000000000N86       000020400K 10000000010000002559           
CUS0857760000108030291002         SMITH SEAN D        7131 BEXHILL RD                         000N        CARE OF             
MTR08577600001000000000000000RA              23055157    005800560000005600000520000003NN  NNW 000                       N    
RDG08577600WATRL000000004K00000000000003844006802192015093644N000000000000N86       000650400K 10000000010000003832           
CUS0857760000108030292000         JOHNSON ELLWOOD GARY7129 BEXHILL RD                         000N        CARE OF             
MTR08577600001000000000000000RA              76345724    005800570000005700000350000003NN  NNW 000                       N    
RDG08577600WATRL000000004K00000000000000070006902192015093645N000000000000N86       000010400K 10000000010000000059           
CUS0857760000108030293008         MICKENS KIMBERLY N  7127 BEXHILL RD                         000N        CARE OF             
MTR08577600001000000000000000RA              27817417    005800580000005800000520000003NN  NNW 000                       N    
RDG08577600WATRL000000004K00000000000004019007402192015095807N000400000010N86       001140400K 10000000010000003952           
CUS0857760000108030294006         HALL MARVIN,JR      7125 BEXHILL RD                         000N        CARE OF             
MTR08577600001000000000000000RA              23056164    005800590000005900000520000003NN  NNW 000                       N    
RDG08577600WATRL000000004K00000000000007108007502192015095811N000000000000N86       000040400K 10000000010000007090           
CUS0857760000108030295003         HENDERSON RALPH E   7123 BEXHILL RD                         000N        CARE OF             
MTR08577600001000000000000000RA              14912756    005800600000006000000310000003NN  NNW 000                       N    
RDG08577600WATRL000000004K00000000000000984007802192015095928N000000000000N86       000590400K 10000000010000000971           
CUS0857760000108030296001         MATTHEWS RICHARD A  7121 BEXHILL RD                         000N        CARE OF             
MTR08577600001000000000000000RA              14912763    005800610000006100000310000003NN  NNW 000                       N    
RDG08577600WATRL000000004K00000000000001407007902192015095930N000000000000N86       000020400K 10000000010000001340           
CUS0857760000108030297009         CROMER RICKE R      7119 BEXHILL RD                         000N        CARE OF             
MTR08577600001000000000000000RA              10019395    005800620000006200000570000003NN  NNW 000                       N    
RDG08577600WATRL000000004K00000000000000125008202192015100021N000000000000N86       000090400K 10000000010000000116           
CUS0857760000108030298007         MAX-BROWNE WARREN   7117 BEXHILL RD                         000N        CARE OF             
MTR08577600001000000000000000RA              9686193     005800630000006300000570000003NN  NNW 000                       N    
RDG08577600WATRL000000004K00000000000004547008302192015100040N000000000000N86       000190400K 10000000010000004527           
CUS0857760000108030299005         CULVER DONALD C     7115 BEXHILL RD                         000N        CARE OF             
MTR08577600001000000000000000RA              9686194     005800640000006400000570000003NN  NNW 000                       N    
RDG08577600WATRL000000004K00000000000003375008602192015100158N000000000000N86       000510400K 10000000010000003375           
CUS0857760000108030300001         CULVER DONALD C     7113 BEXHILL RD                         000N        CARE OF             
MTR08577600001000000000000000RA              9686210     005800650000006500000570000003NN  NNW 000                       N    
RDG08577600WATRL000000004K00000000000003539008902192015100250N000000000010N86       000320400K 10000000010000003524           
CUS0857760000108030301009         BARNEY JOAN K       7111 BEXHILL RD                         000N        CARE OF             
MTR08577600001000000000000000RA              41087771    005800660000006600000520000003NN  NNW 000                       N    
RDG08577600WATRL000000004K00000000000001004009002192015100338N000000000000N86       000480400K 10000000010000000997           
CUS0857760000108030302007         BARRY MOORE         7109 BEXHILL RD                         000N        CARE OF             
MTR08577600001000000000000000RA              9686099     005800670000006700000570000003NN  NNW 000                       N    
RDG08577600WATRL000000004K00000000000003023009102192015100339N000000000000N86       000010400K 10000000010000003020           
CUS0857760000108030303005         BROOKS CYNTHIA I    7107 BEXHILL RD                         000N        CARE OF             
MTR08577600001000000000000000RA              9686055     005800680000006800000570000003NN  NNW 000                       N    
RDG08577600WATRL000000004K00000000000005130009402192015100442N000000000000N86       000520400K 10000000010000005122           
CUS0857760000108030304003         COUSER LAMARR ANTOIN7105 BEXHILL RD                         000N        CARE OF             
MTR08577600001000000000000000RA              23056207    005800690000006900000520000003NN  NNW 000                       N    
RDG08577600WATRL000000004K00000000000005036009502192015100444N000000000000N86       000020400K 10000000010000005023           
CUS0857760000108030305000         FIRST COMMUNITY LLC 7103 BEXHILL RD                         000N        CARE OF             
MTR08577600001000000000000000RA              01086324    005800700000007000000610000003NN  NNW 000                       N    
RDG08577600WATRL000000004K00000000000001025009802192015100614N000000000000N86       000480400K 10000000010000001025           
CUS0857760000108030306008         JONES MOSES A       7101 BEXHILL RD                         000N        CARE OF             
MTR08577600001000000000000000RA              01086329    005800710000007100000610000003NN  NNW 000                       N    
RDG08577600WATRL000000004K00000000000001442009902192015100649N000000000000N86       000350400K 10000000010000001426           
CUS0857760000108030307006         BROWN PEGGIE B      7021 BEXHILL RD                         000N        CARE OF             
MTR08577600001000000000000000RA              33082307    005800720000007200000520000003NN  NNW 000                       N    
RDG08577600WATRL000000004K00000000000002136010202192015100751N000000000000N86       000360400K 10000000010000002129           
CUS0857760000108030308004         WICKHAM JOHN R      7019 BEXHILL RD                         000N        CARE OF             
MTR08577600001000000000000000RA              33082306    005800730000007300000520000003NN  NNW 000                       N    
RDG08577600WATRL000000004K00000000000003669010302192015100753N000000000000N86       000020400K 10000000010000003647           
CUS0857760000108030309002         BETHEA NAOMI        7017 BEXHILL RD                         000N        CARE OF             
MTR08577600001000000000000000RA              33082309    005800740000007400000520000003NN  NNW 000                       N    
RDG08577600WATRL000000004K00000000000002104010502192015100847N000000000000N86       000430400K 10000000010000002088           
CUS0857760000108030310000         TAYLOR GLORIA L     7015 BEXHILL RD                         000N        CARE OF             
MTR08577600001000000000000000RA              9687002     005800750000007500000570000003NN  NNW 000                       N    
RDG08577600WATRL000000004K00000000000003809010602192015100850N000400000010N86       000030400K 10000000010000003799           
CUS0857760000108030311008         CARPINTIERI ROSITA T7013 BEXHILL RD                         000N        CARE OF             
MTR08577600001000000000000000RA              9687023     005800760000007600000570000003NY  NNW 000                       N    
MTM085776009687023     BURIED                                                                                                 
RDG08577600WATRL000000004K00000000000005295000103072015133410N000000000000U86       000000400K 10000000010000005274           
CUS0857760000108030312006         DURRAH ERNEST C,JR  7011 BEXHILL RD                         000N        CARE OF             
MTR08577600001000000000000000RA              10021064    005800770000007700000570000003NY  NNW 000                       N    
MTM0857760010021064    BURIED                                                                                                 
RDG08577600WATRL000000004K00000000000000839000203072015133415N000000000000U86       000050400K 10000000010000000658           
CUS0857760000108030313004         KEISHA Q THOMAS     7009 BEXHILL RD                         000N        CARE OF             
MTR08577600001000000000000000RA              9687022     005800780000007800000570000003NN  NNW 000                       N    
RDG08577600WATRL000000004K00000000000004082010702192015100959N000000000000N86       000690400K 10000000010000004054           
CUS0857760000108030314002         MARY L MCDONALD     7007 BEXHILL RD                         000N        CARE OF             
MTR08577600001000000000000000RA              9687029     005800790000007900000570000003NN  NNW 000                       N    
RDG08577600WATRL000000004K00000000000005648010802192015101001N000000000000N86       000020400K 10000000010000005638           
CUS0857760000108030317005         LIBERTY GARDEN REALT6808 BEXHILL RD                         000N        CARE OF             
MTR08577600001000000000000000RA              35105697    007500800000008000000520000003NN  NNW 000                       N    
RDG08577600WATRL000000004K00000000000007973012202192015103011N000100000010N86       003890400K 10000000010000007973           
CUS0857760000108030318003         MILLER LILLIAN M    7012 BEXHILL RD                         000N        CARE OF             
MTR08577600001000000000000000RA              9685530     005800810000008100000570000003NN  NNW 000                       N    
RDG08577600WATRL000000004K00000000000007496010402192015100804N000000000000N86       000110400K 10000000010000007473           
CUS0857760000108030319001         FICKLING THEODORE   7100 BEXHILL RD                         000N        CARE OF             
MTR08577600001000000000000000RA              27817112    005800820000008200000520000003NN  NNW 000                       N    
RDG08577600WATRL000000004K00000000000005939010002192015100713N000000000000N86       000240400K 10000000010000005919           
CUS0857760000108030320009         WOOD JUDITH B       7102 BEXHILL RD                         000N        CARE OF             
MTR08577600001000000000000000RA              9687048     005800830000008300000570000003NN  NNW 000                       N    
RDG08577600WATRL000000004K00000000000007729010102192015100715N000000000000N86       000020400K 10000000010000007699           
CUS0857760000108030321007         WARD JUANITA        7104 BEXHILL RD                         000N        CARE OF             
MTR08577600001000000000000000RA              38984371    005800840000008400000520000003NN  NNW 000                       N    
RDG08577600WATRL000000004K00000000000003088009702192015100526N000000000010N86       000310400K 10000000010000003067           
CUS0857760000108030322005         FAIR ARNOLD FITZPATR7106 BEXHILL RD                         000N        CARE OF             
MTR08577600001000000000000000RA              50480942    005800850000008500000520000003NN  NNW 000                       N    
RDG08577600WATRL000000004K00000000000001218009602192015100455N000000000000N86       000110400K 10000000010000001214           
CUS0857760000108030323003         HARRIS ELIZABETH R  7108 BEXHILL RD                         000N        CARE OF             
MTR08577600001000000000000000RA              41588429    005800860000008600000520000003NN  NNW 000                       N    
RDG08577600WATRL000000004K00000000000003710009302192015100350N000000000000N86       000020400K 10000000010000003684           
CUS0857760000108030324001         HARRIS MARY W       7110 BEXHILL RD                         000N        CARE OF             
MTR08577600001000000000000000RA              41588430    005800870000008700000520000003NN  NNW 000                       N    
RDG08577600WATRL000000004K00000000000004125009202192015100348N000000000000N86       000090400K 10000000010000004101           
CUS0857760000108030325008         MCCALLISTER ALBER   7112 BEXHILL RD                         000N        CARE OF             
MTR08577600001000000000000000RA              27833139    005800880000008800000520000003NN  NNW 000                       N    
RDG08577600WATRL000000004K00000000000003120008802192015100218N000000000000N86       000030400K 10000000010000003110           
CUS0857760000108030326006         REED MELVIN J       7114 BEXHILL RD                         000N        CARE OF             
MTR08577600001000000000000000RA              27833216    005800890000008900000520000003NN  NNW 000                       N    
RDG08577600WATRL000000004K00000000000005281008702192015100215N000000000000N86       000170400K 10000000010000005257           
CUS0857760000108030327004         WOLDEAREGAY YESHI   7116 BEXHILL RD                         000N        CARE OF             
MTR08577600001000000000000000RA              40779718    005800900000009000000520000003NN  NNW 000                       N    
RDG08577600WATRL000000004K00000000000005730008502192015100107N000000000000N86       000050400K 10000000010000005726           
CUS0857760000108030328002         BLACKMON WILVER EDWA7118 BEXHILL RD                         000N        CARE OF             
MTR08577600001000000000000000RA              40779686    005800910000009100000520000003NN  NNW 000                       N    
RDG08577600WATRL000000004K00000000000002289008402192015100102N000000000000N86       000220400K 10000000010000002285           
CUS0857760000108030329000         DANIELS LATONYA     7120 BEXHILL RD                         000N        CARE OF             
MTR08577600001000000000000000RA              24757444    005800920000009200000520000003NN  NNW 000                       N    
RDG08577600WATRL000000004K00000000000003560008102192015100012N000000000000N86       000020400K 10000000010000003541           
CUS0857760000108030330008         MCGHEE PRESTON,JR   7122 BEXHILL RD                         000N        CARE OF             
MTR08577600001000000000000000RA              30513326    005800930000009300000520000003NN  NNW 000                       N    
RDG08577600WATRL000000004K00000000000003121008002192015100010N000000000000N86       000400400K 10000000010000003112           
CUS0857760000108030331006         AL-MATEEN PHILIP Q  7124 BEXHILL RD                         000N        CARE OF             
MTR08577600001000000000000000RA              01093159    005800940000009400000610000003NN  NNW 000                       N    
RDG08577600WATRL000000004K00000000000000546007602192015095825N000000000000N86       000140400K 10000000010000000536           
CUS0857760000108030332004         SIMMONS EDNA J      7126 BEXHILL RD                         000N        CARE OF             
MTR08577600001000000000000000RA              01093151    005800950000009500000610000003NN  NNW 000                       N    
RDG08577600WATRL000000004K00000000000000465007702192015095829N000000000000N86       000040400K 10000000010000000457           
CUS0857760000108030333002         SIMMONS NATALIE R   3203 SPADE RD                           000N        CARE OF             
MTR08577600001000000000000000RA              01093152    005800960000009600000610000003NN  NNW 000                       N    
RDG08577600WATRL000000004K00000000000002073007002192015095549N000000000000N86       011440400K 10000000010000002037           
CUS0857760000108030334000         BEASLEY THOMAS      3205 SPADE RD                           000N        CARE OF             
MTR08577600001000000000000000RA              01093154    005800970000009700000610000003NN  NNW 000                       N    
RDG08577600WATRL000000004K00000000000000990007102192015095551N000000000000N86       000020400K 10000000010000000968           
CUS0857760000108030335007         MASON ROBERT        3204 SPADE RD                           000N        CARE OF             
MTR08577600001000000000000000RA              54351402    005800980000009800000520000003NN  NNW 000                       N    
RDG08577600WATRL000000004K00000000000001406007202192015095611N000000000000N86       000200400K 10000000010000001399           
CUS0857760000108030336005         ROY DANNETTA C      3202 SPADE RD                           000N        CARE OF             
MTR08577600001000000000000000RA              24220837    005800990000009900000520000003NN  NNW 000                       N    
RDG08577600WATRL000000004K00000000000004008007302192015095613N000000000000N86       000020400K 10000000010000004006           
CUS0857760000108425584003         BOYD OWEN L         7138 NEVILLE CT                         000N        CARE OF             
MTR08577600001000000000000000RA              01095361    005801000000010000000610000003NY  NNW 000                       N    
MTM0857760001095361    SNOW &ICE                                                                                              
RDG08577600WATRL000000004K00000000000000000000000000000000000 000000000000U         000000400  10000000010000000718           
CUS0857760000108425585000         MOORE VERRIA A      7136 NEVILLE CT                         000N        CARE OF             
MTR08577600001000000000000000RA              10012976    005801010000010100000570000003NY  NNW 000                       N    
MTM0857760010012976    SNOW &ICE                                                                                              
RDG08577600WATRL000000004K00000000000000000000000000000000000 000000000000U         000000400  10000000010000000270           
CUS0857760000108425586008         BARNES MICHAEL L    7134 NEVILLE CT                         000N        CARE OF             
MTR08577600001000000000000000RA              99188165    005801020000010200000570000003NY  NNW 000                       N    
MTM0857760099188165    BURIED                                                                                                 
RDG08577600WATRL000000004K00000000000001669000303072015133939N000000000000U86       003240400K 10000000010000001615           
CUS0857760000108425587006         OBAYANJU MICHAEL    7132 NEVILLE CT                         000N        CARE OF             
MTR08577600001000000000000000RA              01084936    005801030000010300000610000003NN  NNW 000                       N    
RDG08577600WATRL000000004K00000000000000574013102192015104206N000000000000N86       002200400K 10000000010000000560           
CUS0857760000108425588004         RIDEOUT MARLON A    7130 NEVILLE CT                         000N        CARE OF             
MTR08577600001000000000000000RA              99287223    005801040000010400000570000003NY  NNW 000                       N    
MTM0857760099287223    BURIED                                                                                                 
RDG08577600WATRL000000004K00000000000006043000403072015134052N000000000000U86       000730400K 10000000010000005987           
CUS0857760000108425589002         HEMPHILL KIRK A     7128 NEVILLE CT                         000N        CARE OF             
MTR08577600001000000000000000RA              01090803    005801050000010500000610000003NY  NNW 000                       N    
MTM0857760001090803    BURIEBY SNOW                                                                                           
RDG08577600WATRL000000004K00000000000000546000503072015134218N000000000000U86       000860400K 10000000010000000517           
CUS0857760000108425590000         WASHINGTON JAMYE E  7126 NEVILLE CT                         000N        CARE OF             
MTR08577600001000000000000000RA              99999999    005801060000010600000520000003NN  NNW 000                       N    
RDG08577600WATRL000000004K00000000000000490013202192015104429N000000000000N86       001430400K 10000000010000000477           
CUS0857760000108425591008         EBORN JOSEPH T      7124 NEVILLE CT                         000N        CARE OF             
MTR08577600001000000000000000RA              52286183    005801070000010700000520000003NY  NNW 000                       N    
MTM0857760052286183    BURIED                                                                                                 
RDG08577600WATRL000000004K00000000000001350000603072015134411N000000000000U86       001130400K 10000000010000001319           
CUS0857760000108425592006         WALKER KENNETH      7122 NEVILLE CT                         000N        CARE OF             
MTR08577600001000000000000000RA              01092686    005801080000010800000610000003NY  NNW 000                       N    
MTM0857760001092686    BURIED                                                                                                 
RDG08577600WATRL000000004K00000000000000948000703072015134545N000000000000U86       000940400K 10000000010000000927           
CUS0857760000108425593004         WHITTINGTON NATHALYN7120 NEVILLE CT                         000N        CARE OF             
MTR08577600001000000000000000RA              01088082    005801090000010900000610000003NY  NNW 000                       N    
MTM0857760001088082    SNOW &ICE                                                                                              
RDG08577600WATRL000000004K00000000000000000000000000000000000 000000000000U         000000400  10000000010000000361           
CUS0857760000108425594002         WILLIAMS EDWARD PATR7118 NEVILLE CT                         000N        CARE OF             
MTR08577600001000000000000000RA              01088083    005801100000011000000610000003NN  NNW 000                       N    
RDG08577600WATRL000000004K00000000000000511013302192015104559N000400000010N86       000900400K 10000000010000000504           
CUS0857760000108425595009         GRAY SEAN K         7116 NEVILLE CT                         000N        CARE OF             
MTR08577600001000000000000000RA              01090802    005801110000011100000610000003NN  NNW 000                       N    
RDG08577600WATRL000000004K00000000000001606000803072015134851N000000000000U86       001860400K 10000000010000001566           
CUS0857760000108425596007         BOLDIN ALEXANDER M,J7114 NEVILLE CT                         000N        CARE OF             
MTR08577600001000000000000000RA              01082614    005801120000011200000610000003NN  NNW 000                       N    
RDG08577600WATRL000000004K00000000000000909000903072015135130N000000000000U86       001590400K 10000000010000000909           
CUS0857760000108425597005         THOMAS ANGELIHA R   7112 NEVILLE CT                         000N        CARE OF             
MTR08577600001000000000000000RA              00136363    005801130000011300000570000003NN  NNW 000                       N    
RDG08577600WATRL000000004K00000000000002583013402192015104746N000000000000N86       001070400K 10000000010000002534           
CUS0857760000108425598003         GLENN KISHA M       7110 NEVILLE CT                         000N        CARE OF             
MTR08577600001000000000000000RA              01090801    005801140000011400000610000003NN  NNW 000                       N    
RDG08577600WATRL000000004K00000000000001241013502192015104919N000000000000N86       000930400K 10000000010000001203           
CUS0857760000108425599001         AUGUSTUS G HARRIS I.7108 NEVILLE CT                         000N        CARE OF             
MTR08577600001000000000000000RA              01090806    005801150000011500000610000003NY  NNW 000                       N    
MTM0857760001090806    SNOW& ICE                                                                                              
RDG08577600WATRL000000004K00000000000000000000000000000000000 000000000000U         000000400  10000000010000000368           
CUS0857760000108425600007         PRIVETTE T DUWAYNE  7106 NEVILLE CT                         000N        CARE OF             
MTR08577600001000000000000000RA              99389557    005801160000011600000570000003NY  NNW 000                       N    
MTM0857760099389557    SNOW& ICE                                                                                              
RDG08577600WATRL000000004K00000000000000000000000000000000000 000000000000U         000000400  10000000010000001253           
CUS0857760000108425601005         PAYNE CARDELL       7102 NEVILLE CT                         000N        CARE OF             
MTR08577600001000000000000000RA              01090805    005801170000011700000610000003NN  NNW 000                       N    
RDG08577600WATRL000000004K00000000000001094013602192015104947N000000000000N86       000280400K 10000000010000001057           
CUS0857760000108425602003         CARROLL ERIC        7100 NEVILLE CT                         000N        CARE OF             
MTR08577600001000000000000000RA              00131671    005801180000011800000570000003NN  NNW 000                       N    
RDG08577600WATRL000000004K00000000000001136013702192015105109N000000000000N86       000820400K 10000000010000001112           
CUS0857760000108030337003         BALLARD EUGENE      7128 BEXHILL RD                         000N        CARE OF             
MTR08577600001000000000000000RA              33080623    005801190000011900000520000003NN  NNW 000                       N    
RDG08577600WATRL000000004K00000000000002568013802192015105541N000300000010N86       002720400K 10000000010000002502           
CUS0857760000108030338001         LOFTON ERIC W       7130 BEXHILL RD                         000N        CARE OF             
MTR08577600001000000000000000RA              33080622    005801200000012000000520000003NN  NNW 000                       N    
RDG08577600WATRL000000004K00000000000002490013902192015105544N000000000000N86       000030400K 10000000010000002476           
CUS0857760000108030339009         SMITH JAMES ANDREW  7132 BEXHILL RD                         000N        CARE OF             
MTR08577600001000000000000000RA              99288684    005801210000012100000570000003NN  NNW 000                       N    
RDG08577600WATRL000000004K00000000000001772006202192015093405N000000000000N86       000720400K 10000000010000001717           
CUS0857760000108030340007         ROSE KENNETH A      7134 BEXHILL RD                         000N        CARE OF             
MTR08577600001000000000000000RA              44092931    005801220000012200000520000003NN  NNW 000                       N    
RDG08577600WATRL000000004K00000000000000049006302192015093407N000000000000N86       000020400K 10000000010000000047           
CUS0857760000108030341005         BROWN WILLIAM L     7136 BEXHILL RD                         000N        CARE OF             
MTR08577600001000000000000000RA              41087773    005801230000012300000520000003NN  NNW 000                       N    
RDG08577600WATRL000000004K00000000000003046005902192015093147N000000000000N86       000210400K 10000000010000003003           
CUS0857760000108030342003         ADAMS MARJORIE G    7138 BEXHILL RD                         000N        CARE OF             
MTR08577600001000000000000000RA              9595742     005801240000012400000570000003NN  NNW 000                       N    
RDG08577600WATRL000000004K00000000000005975005802192015093126N000000000000N86       000930400K 10000000010000005958           
CUS0857760000108030343001         RATHER SAMUEL A     3 CAMBRIDGE CT                          000N        CARE OF             
MTR08577600001000000000000000RA              41588294    005801250000012500000520000003NN  NNW 000                       N    
RDG08577600WATRL000000004K00000000000002580005702192015092953N000000000000N86       000030400K 10000000010000002560           
CUS0857760000108030344009         GREG PORTNOY        5 CAMBRIDGE CT                          000N        CARE OF             
MTR08577600001000000000000000RA              41588295    005801260000012600000520000003NN  NNW 000                       N    
RDG08577600WATRL000000004K00000000000002695005602192015092950N000000000000N86       000380400K 10000000010000002674           
CUS0857760000108030345006         CONYERS LORETTA     7 CAMBRIDGE CT                          000N        CARE OF             
MTR08577600001000000000000000RA              41588297    005801270000012700000520000003NN  NNW 000                       N    
RDG08577600WATRL000000004K00000000000003303005502192015092912N000000000000N86       000020400K 10000000010000003276           
CUS0857760000108030346004         MURRAY GWENDOLYN    8 CAMBRIDGE CT                          000N        CARE OF             
MTR08577600001000000000000000RA              41588298    005801280000012800000520000003NN  NNW 000                       N    
RDG08577600WATRL000000004K00000000000002884005402192015092910N000000000000N86       000100400K 10000000010000002884           
CUS0857760000108030347002         JOHNSON COURTNY L   6 CAMBRIDGE CT                          000N        CARE OF             
MTR08577600001000000000000000RA              01077338    005801290000012900000610000003NN  NNW 000                       N    
RDG08577600WATRL000000004K00000000000001441005302192015092900N000000000000N86       000100400K 10000000010000001437           
CUS0857760000108030348000         CLOPTON TERESA A    4 CAMBRIDGE CT                          000N        CARE OF             
MTR08577600001000000000000000RA              30513376    005801300000013000000520000003NN  NNW 000                       N    
RDG08577600WATRL000000004K00000000000003588005202192015092850N000000000000N86       000700400K 10000000010000003578           
CUS0857760000108030349008         CREME ALVERNA D     7140 BEXHILL RD                         000N        CARE OF             
MTR08577600001000000000000000RA              26000079    005801310000013100000520000003NN  NNW 000                       N    
RDG08577600WATRL000000004K00000000000004154004502192015092336N000000000000N86       001510400K 10000000010000004132           
CUS0857760000108030350006         ASIF MIRZA MUHOMMAD 7142 BEXHILL RD                         000N        CARE OF             
MTR08577600001000000000000000RA              41087829    005801320000013200000520000003NN  NNW 000                       N    
RDG08577600WATRL000000004K00000000000003780004602192015092337N000000000000N86       000010400K 10000000010000003745           
CUS0857760000108030351004         CURTIS WILLIAM      7144 BEXHILL RD                         000N        CARE OF             
MTR08577600001000000000000000RA              35115273    005801330000013300000520000003NN  NNW 000                       N    
RDG08577600WATRL000000004K00000000000002834004702192015092505N000000000010N86       000880400K 10000000010000002819           
CUS0857760000108030352002         THOMAS MICHAEL      7146 BEXHILL RD                         000N        CARE OF             
MTR08577600001000000000000000RA              39583442    005801340000013400000520000003NN  NNW 000                       N    
RDG08577600WATRL000000004K00000000000002355011102192015101334N000000000010N86       000150400K 10000000010000002342           
CUS0857760000108030353000         WILLIE MAE BROOMFIEL3201 TIMANUS LN                         000N        CARE OF             
MTR08577600001000000000000000RA              14930468    005801350000013500000310000003NN  NNW 000                       N    
RDG08577600WATRL000000004K00000000000000438010902192015101257N000000000000N86       001760400K 10000000010000000424           
CUS0857760000108030354008         JOHNSON JOSEPH R    3203 TIMANUS LN                         000N        CARE OF             
MTR08577600001000000000000000RA              14930463    005801360000013600000310000003NN  NNW 000                       N    
RDG08577600WATRL000000004K00000000000000244011002192015101319N000000000000N86       000220400K 10000000010000000238           
CUS0857760000108030355005         BYNUM KENNETH DIANE 3205 TIMANUS LN                         000N        CARE OF             
MTR08577600001000000000000000RA              14930465    005801370000013700000310000003NN  NNW 000                       N    
RDG08577600WATRL000000004K00000000000000362011202192015101454N000000000000N86       000800400K 10000000010000000347           
CUS0857760000108030356003         NDULA JOSEPH B      3207 TIMANUS LN                         000N        CARE OF             
MTR08577600001000000000000000RA              14930460    005801380000013800000310000003NN  NNW 000                       N    
RDG08577600WATRL000000004K00000000000000556011302192015101456N000000000000N86       000020400K 10000000010000000538           
CUS0857760000108030357001         PINKNEY ADDISON V,3R3209 TIMANUS LN                         000N        CARE OF             
MTR08577600001000000000000000RA              1941049     005801390000013900000520000003NN  NNW 000                       N    
RDG08577600WATRL000000004K00000000000006006011402192015101459N000000000000N86       000030400K 10000000010000005986           
CUS0857760000108030358009         HUNTER MICHAEL D    3211 TIMANUS LN                         000N        CARE OF             
MTR08577600001000000000000000RA              36691145    005801400000014000000520000003NN  NNW 000                       N    
RDG08577600WATRL000000004K00000000000002426011502192015101501N000000000000N86       000020400K 10000000010000002412           
CUS0857760000108030359007         GILLIAM KEITH P     3213 TIMANUS LN                         000N        CARE OF             
MTR08577600001000000000000000RA              14930792    005801410000014100000310000003NY  NNW 000                       N    
MTM0857760014930792    BURIED                                                                                                 
RDG08577600WATRL000000004K00000000000000000000000000000000000 000000000000U         000000400  10000000010000000767           
CUS0857760000108432722000         TIMANUS LANE PARTNER3217 TIMANUS LN                         000N        CARE OF             
MTR08577600001000000000000000RA              99409144    000101420000014200000570000003NN  NNW 000                       N    
RDG08577600WATRL000000004K00000000000003375011602192015101832N000000000010N86       002110400K 10000000010000003343           
CUS0857760000108428027000         TIMANUS LANE PARTNER3300 LORD BALTIMORE DR                  000N        CARE OF             
MTR08577600001000000000000000RA              35101179    001501430000014300000520000003NY  NNW 000                       N    
MTM0857760035101179    BIG METER                                                                                              
RDG08577600WATRL000000005K00000000000000000000000000000000000 000000000000U         000000500  10000000010000006821           
CUS0857760000108030315009         NEAL ALPHONSO L,SR  3305 LIBERTY GARDENS RD                 000N        CARE OF             
MTR08577600001000000000000000RA              54351530    005801440000014400000520000003NN  NNW 000                       N    
RDG08577600WATRL000000004K00000000000001994011702192015102021N000000000000N86       001090400K 10000000010000001951           
CUS0857760000108030316007         NKIRU GLADIETTE     3399 LIBERTY GARDENS RD                 000N        CARE OF             
MTR08577600001000000000000000RA              14926661    005801450000014500000310000003NY  NNW 000                       N    
MTM0857760014926661    SNOW& ICE                                                                                              
RDG08577600WATRL000000004K00000000000000000000000000000000000 000000000000U         000000400  10000000010000000602           
CUS0857760000108405943005         GAYNOR SYLVIA       3383 LORD BALTIMORE DR                  000N        CARE OF             
MTR08577600001000000000000000RA              33082929    005801460000014600000520000003NN  NNW 000                       N    
RDG08577600WATRL000000004K00000000000004891012102192015102342N000000000000N86       000630400K 10000000010000004884           
CUS0857760000108406357007         SINGLETON CARRIE    3379 LIBERTY GARDENS RD                 000N        CARE OF             
MTR08577600001000000000000000RA              44172310    005801470000014700000520000003NY  NNW 000                       N    
MTM0857760044172310    MTR BURIED CAN NEVER FIND                                                                              
RDG08577600WATRL000000004K00000000000000000000000000000000000 000000000000U         000000400  10000000010000002785           
CUS0857760000108405944003         GILBERT KEVIN       3387 LIBERTY GARDENS RD                 000N        CARE OF             
MTR08577600001000000000000000RA              01085089    005801480000014800000610000003NN  NNW 000                       N    
RDG08577600WATRL000000004K00000000000001095012002192015102239N000000000000N86       000220400K 10000000010000001074           
CUS0857760000108405945000         PAYNE CLARENCE E    3391 LIBERTY GARDENS RD                 000N        CARE OF             
MTR08577600001000000000000000RA              01080181    005801490000014900000610000003NN  NNW 000                       N    
RDG08577600WATRL000000004K00000000000002192011802192015102214N000000000000N86       001130400K 10000000010000002162           
CUS0857760000108405946008         GROVES JOSEPH F     3395 LIBERTY GARDENS RD                 000N        CARE OF             
MTR08577600001000000000000000RA              44088657    005801500000015000000520000003NN  NNW 000                       N    
RDG08577600WATRL000000004K00000000000002657011902192015102217N000000000000N86       000030400K 10000000010000002640           
CUS0857760000108349315005         MAYBIN RODNEY CLAREN3406 LIBERTY GARDENS RD                 000N        CARE OF             
MTR08577600001000000000000000RA              14903077    005801510000015100000310000003NN  NNW 000                       N    
RDG08577600WATRL000000004K00000000000001336012402192015103231N000000000000N86       000150400K 10000000010000001312           
CUS0857760000108432217001         STULTZ ROGER T      3405 LIBERTY GARDENS RD                 000N        CARE OF             
MTR08577600001000000000000000RA              01075239    005801520000015200000610000000NN  NNW 000                       N    
RDG08577600WATRL000000004K00000000000000502012302192015103216N000000000010N86       001250400K 10000000010000000501           
CUS0857760000108399385007         NEW LIFE FELLOWSHIP 3409 LORD BALTIMORE DR                  000N        CARE OF             
MTR08577600001000000000000000RA              40781071    005801530000015300000520000003NN  NNW 000                       N    
RDG08577600WATRL000000004K00000000000001460012502192015103330N000000000000N86       000590400K 10000000010000001451           
CUS0857760000108420803002         ROBINSON FRANKLIN L 3413 LIBERTY GARDENS RD                 000N        CARE OF             
MTR08577600001000000000000000RA              10004673    005801540000015400000570000003NN  NNW 000                       N    
RDG08577600WATRL000000004K00000000000000804012602192015103525N000000000000N86       001150400K 10000000010000000773           
CUS0857760000108428247004         DIAZ MIQUEL A       3417 LIBERTY GARDENS RD                 000N        CARE OF             
MTR08577600001000000000000000RA              77889687    005801550000015500000350000003NN  NNW 000                       N    
RDG08577600WATRL000000004K00000000000000043012702192015103556N000000000000N86       000310400K 10000000010000000020           
CUS0857760000108418244003         DIRTON KENNETH B    3419 LIBERTY GARDENS RD                 000N        CARE OF             
MTR08577600001000000000000000RA              48591235    005801560000015600000520000003NN  NNW 000                       N    
RDG08577600WATRL000000004K00000000000001997012902192015103705N000000000000N86       000050400K 10000000010000001968           
CUS0857760000108421375000         JABA PROPERTIES LLC 3421 LIBERTY GARDENS RD                 000N        CARE OF             
MTR08577600001000000000000000RA              50790460    005801570000015700000520000003NN  NNW 000                       N    
RDG08577600WATRL000000004K00000000000000997012802192015103700N000000000000N86       000640400K 10000000010000000981           
CUS0857760000108422568009         JESSICA RABACK      3435 LIBERTY GARDENS RD                 000N        CARE OF             
MTR08577600001000000000000000RA              99189512    005801580000015800000570000000NN  NNW 000                       N    
RDG08577600WATRL000000004K00000000000002800013002192015103826N000000000000N86       000810400K 10000000010000002775           
RTR08577600NN01580158000001580000000001580158000138NY015801580158000900000000000000000000000002    02102015NY020000 N         
RHD08586000NN01880188000001880000000001880188000311NY018801880188001000000000000000000000000002    02172015NY020000 N         
CUS0858600000108409106005         CLARENCE TABB       8823 GREENS LN                          000N        CARE OF             
MTR08586000001000000000000000RA              45379879    005800010000000100000520000003NN  NNW 000                       N    
RDG08586000WATRL000000004K00000000000005151004603092015113812N000000000000U86       000890400K 10000000010000005116           
CUS0858600000108436973005         FULMORE LYNN        8422 GREENS LN                          000N        CARE OF             
MTR08586000001000000000000000RA              14901732    005800020000000200000310000003NN  NNW 000                       N    
RDG08586000WATRL000000004K00000000000000479003403092015112340N000000000000U86       000570400K 10000000010000000465           
CUS0858600000108436972007         MORTON-COLE ROBIN L 8916 GREENS LN                          000N        CARE OF             
MTR08586000001000000000000000RA              14901735    005800030000000300000310000003NN  NNW 000                       N    
RDG08586000WATRL000000004K00000000000000664003303092015112243N000000000000U86       000290400K 10000000010000000644           
CUS0858600000108436971009         MANNING SHERYL      8914 GREENS LN                          000N        CARE OF             
MTR08586000001000000000000000RA              14901729    005800040000000400000310000003NN  NNW 000                       N    
RDG08586000WATRL000000004K00000000000000728003203092015112214N000000000000U86       002450400K 10000000010000000699           
CUS0858600000108409104000         ELLIS E HARRIS JR.  8901 GREENS LN                          000N        CARE OF             
MTR08586000001000000000000000RA              75616870    005800050000000500000350000003NN  NNW 000                       N    
RDG08586000WATRL000000004K00000000000000121004403092015113518N000000000010U86       000890400K 10000000010000000097           
CUS0858600000108409103002         GORDON RONNIE       8903 GREENS LN                          000N        CARE OF             
MTR08586000001000000000000000RA              46885995    005800060000000600000520000003NN  NNW 000                       N    
RDG08586000WATRL000000004K00000000000001755004303092015113349N000000000000U86       000840400K 10000000010000001740           
CUS0858600000108409102004         DERRICK COOPER      8905 GREENS LN                          000N        CARE OF             
MTR08586000001000000000000000RA              01109429    005800070000000700000610000003NN  NNW 000                       N    
RDG08586000WATRL000000004K00000000000001283004203092015113225N000000000000U86       000530400K 10000000010000001264           
CUS0858600000108409101006         DUDLEY MARVIN N     8907 GREENS LN                          000N        CARE OF             
MTR08586000001000000000000000RA              48590490    005800080000000800000520000003NN  NNW 000                       N    
RDG08586000WATRL000000004K00000000000002315004103092015113132N000000000000U86       000330400K 10000000010000002257           
CUS0858600000108352659000         BROWN KAREN J       8909 GREENS LN                          000N        CARE OF             
MTR08586000001000000000000000RA              45380834    005800090000000900000520000003NN  NNW 000                       N    
RDG08586000WATRL000000004K00000000000001838004003092015113059N000000000000U86       002230400K 10000000010000001818           
CUS0858600000108435346005         AGUZIE HAPPINESS    8933 GREENS LN                          000N        CARE OF             
MTR08586000001000000000000000RA              14911629    005800100000001000000310000003NN  NNW 000                       N    
RDG08586000WATRL000000004K00000000000001119003903092015112716N000000000000U86       000130400K 10000000010000001088           
CUS0858600000108435345007         OKELLO BERTHA       8935 GREENS LN                          000N        CARE OF             
MTR08586000001000000000000000RA              01111896    005800110000001100000610000003NN  NNW 000                       N    
RDG08586000WATRL000000004K00000000000002045003803092015112703N000000000000U86       000020400K 10000000010000002045           
CUS0858600000108435343002         MURRAY STANLEY      8937 GREENS LN                          000N        CARE OF             
MTR08586000001000000000000000RA              01111826    005800120000001200000610000003NN  NNW 000                       N    
RDG08586000WATRL000000004K00000000000001183003703092015112701N000000000000U86       000350400K 10000000010000001146           
CUS0858600000108435344000         GOLDEN-BROWN DARLENE8939 GREENS LN                          000N        CARE OF             
MTR08586000001000000000000000RA              01111880    005800130000001300000610000003NN  NNW 000                       N    
RDG08586000WATRL000000004K00000000000001206003603092015112626N000000000000U86       001040400K 10000000010000001160           
CUS0858600000108435342004         COOPER ANISA W      8941 GREENS LN                          000N        CARE OF             
MTR08586000001000000000000000RA              75614797    005800140000001400000350000003NN  NNW 000                       N    
RDG08586000WATRL000000004K00000000000000000003503092015112442N000000000000U86       000620400K 10000000010000000000           
CUS0858600000102406608006         LINWOOD BARRETT     9001 MARLEY DR                          000N        CARE OF             
MTR08586000001000000000000000RA              45384877    005800150000001500000520000003NY  NNW 000                       N    
MTM0858600045384877    SNOW &ICE3                                                                                             
RDG08586000WATRL000000004K00000000000000000000000000000000000 000000000000U         000000400  10000000010000003693           
CUS0858600000102406607008         DENARD ALLEN        9003 MARLEY DR                          000N        CARE OF             
MTR08586000001000000000000000RA              46880387    005800160000001600000520000003NN  NNW 000                       N    
RDG08586000WATRL000000004K00000000000002999005803092015115408N000000000000U86       000270400K 10000000010000002947           
CUS0858600000102406606000         ORNDORFF GREGORY L  9007 MARLEY DR                          000N        CARE OF             
MTR08586000001000000000000000RA              50786526    005800170000001700000520000003NN  NNW 000                       N    
RDG08586000WATRL000000004K00000000000000718001702232015101545N000000000000U89       000590400K 10000000010000000701           
CUS0858600000102406605002         BOND RUTH D         9009 MARLEY DR                          000N        CARE OF             
MTR08586000001000000000000000RA              50481297    005800180000001800000520000003NN  NNW 000                       N    
RDG08586000WATRL000000004K00000000000000475001502232015101427N000100000010U89       000290400K 10000000010000000475           
CUS0858600000102406604005         CURTIS SHIRLEY      9011 MARLEY DR                          000N        CARE OF             
MTR08586000001000000000000000RA              50788643    005800190000001900000520000003NN  NNW 000                       N    
RDG08586000WATRL000000004K00000000000001981001402232015101358N000000000000U89       000470400K 10000000010000001969           
CUS0858600000102406603007         HICKS JAMES LEROY   9013 MARLEY DR                          000N        CARE OF             
MTR08586000001000000000000000RA              50788600    005800200000002000000520000003NN  NNW 000                       N    
RDG08586000WATRL000000004K00000000000001248001302232015101311N000000000000U89       001020400K 10000000010000001238           
CUS0858600000108414820004         WILLIAMS WILLIE C   8801 HARKATE WAY                        000N        CARE OF             
MTR08586000001000000000000000RA              48591702    005800210000002100000520000003NN  NNW 000                       N    
RDG08586000WATRL000000004K00000000000001597007202202015110113N000000000000N86       002090400K 10000000010000001582           
CUS0858600000108414819006         BECKETT MICHAEL     8803 HARKATE WAY                        000N        CARE OF             
MTR08586000001000000000000000RA              48586147    005800220000002200000520000003NN  NNW 000                       N    
RDG08586000WATRL000000004K00000000000002271007302202015110126N000000000000N86       000130400K 10000000010000002254           
CUS0858600000108414818008         FAPOHUNDA RACHEL    8805 HARKATE WAY                        000N        CARE OF             
MTR08586000001000000000000000RA              48584786    005800230000002300000520000003NN  NNW 000                       N    
RDG08586000WATRL000000004K00000000000002392007402202015110326N000400000010N86       001200400K 10000000010000002365           
CUS0858600000108414817000         WALKER ARON         8807 HARKATE WAY                        000N        CARE OF             
MTR08586000001000000000000000RA              48584814    005800240000002400000520000003NN  NNW 000                       N    
RDG08586000WATRL000000004K00000000000001838007502202015110330N000100000010N86       000040400K 10000000010000001838           
CUS0858600000108414815004         SMITH BAVAN D       8809 HARKATE WAY                        000N        CARE OF             
MTR08586000001000000000000000RA              48584785    005800250000002500000520000003NN  NNW 000                       N    
RDG08586000WATRL000000004K00000000000001658007602202015110335N000000000000N86       000050400K 10000000010000001583           
CUS0858600000108414814007         BRADEN SANDRA L     8811 HARKATE WAY                        000N        CARE OF             
MTR08586000001000000000000000RA              48584787    005800260000002600000520000003NN  NNW 000                       N    
RDG08586000WATRL000000004K00000000000001719007702202015110344N000000000010N86       000090400K 10000000010000001712           
CUS0858600000108414812001         FARRAR KEITH L      8813 HARKATE WAY                        000N        CARE OF             
MTR08586000001000000000000000RA              48584356    005800270000002700000520000003NN  NNW 000                       N    
RDG08586000WATRL000000004K00000000000002237007802202015110359N000000000000N86       000150400K 10000000010000002217           
CUS0858600000108414870009         REEVES TIANA S      8815 HARKATE WAY                        000N        CARE OF             
MTR08586000001000000000000000RA              48584354    005800280000002800000520000003NN  NNW 000                       N    
RDG08586000WATRL000000004K00000000000001805007902202015110404N000000000000N86       000050400K 10000000010000001774           
CUS0858600000108414869001         WAHLGREN B/ FREEZE P8817 HARKATE WAY                        000N        CARE OF             
MTR08586000001000000000000000RA              48584422    005800290000002900000520000003NN  NNW 000                       N    
RDG08586000WATRL000000004K00000000000001274008002202015110436N000400000010N86       000320400K 10000000010000001269           
CUS0858600000108414868003         BYRD SUSIE M        8819 HARKATE WAY                        000N        CARE OF             
MTR08586000001000000000000000RA              48583515    005800300000003000000520000003NN  NNW 000                       N    
RDG08586000WATRL000000004K00000000000000560008102202015110438N000000000000N86       000020400K 10000000010000000555           
CUS0858600000108414867005         RITTER PAMELA ANN   8821 HARKATE WAY                        000N        CARE OF             
MTR08586000001000000000000000RA              48583598    005800310000003100000520000003NN  NNW 000                       N    
RDG08586000WATRL000000004K00000000000002151008202202015110440N000000000000N86       000020400K 10000000010000002111           
CUS0858600000108414866007         VICK BEVERLY L      8823 HARKATE WAY                        000N        CARE OF             
MTR08586000001000000000000000RA              48591698    005800320000003200000520000003NN  NNW 000                       N    
RDG08586000WATRL000000004K00000000000001116008302202015110504N000000000000N86       000240400K 10000000010000001104           
CUS0858600000108414865009         MONENA SONIA F      8825 HARKATE WAY                        000N        CARE OF             
MTR08586000001000000000000000RA              46886828    005800330000003300000520000003NN  NNW 000                       N    
RDG08586000WATRL000000004K00000000000001074008402202015110521N000000000000N86       000170400K 10000000010000001066           
CUS0858600000108414864002         CREATIVE OPTIONS INC8827 HARKATE WAY                        000N        CARE OF             
MTR08586000001000000000000000RA              46886831    005800340000003400000520000003NN  NNW 000                       N    
RDG08586000WATRL000000004K00000000000003893008502202015110524N000000000000N86       000030400K 10000000010000003865           
CUS0858600000108414863004         ALSTON ERIC         8829 HARKATE WAY                        000N        CARE OF             
MTR08586000001000000000000000RA              48584489    005800350000003500000520000003NN  NNW 000                       N    
RDG08586000WATRL000000004K00000000000001997008602202015110604N000000000000N86       000400400K 10000000010000001973           
CUS0858600000108414862006         ELBY TONEICE        8831 HARKATE WAY                        000N        CARE OF             
MTR08586000001000000000000000RA              48592857    005800360000003600000520000003NN  NNW 000                       N    
RDG08586000WATRL000000004K00000000000001141008702202015110606N000000000000N86       000020400K 10000000010000001123           
CUS0858600000108414858004         TAMARA S LANE       8833 HARKATE WAY                        000N        CARE OF             
MTR08586000001000000000000000RA              46886825    005800370000003700000520000003NY  NNW 000                       N    
MTM0858600046886825    UNDER ICE                                                                                              
RDG08586000WATRL000000004K00000000000000858006603092015120858N000000000000U86       000310400K 10000000010000000852           
CUS0858600000108414857006         SHEPPARD DANTE J    8835 HARKATE WAY                        000N        CARE OF             
MTR08586000001000000000000000RA              46886832    005800380000003800000520000003NY  NNW 000                       N    
MTM0858600046886832    UNDER ICE                                                                                              
RDG08586000WATRL000000004K00000000000000926006503092015120827N000000000000U86       001120400K 10000000010000000912           
CUS0858600000108414856008         BONGIOVANI JEFFREY A8837 HARKATE WAY                        000N        CARE OF             
MTR08586000001000000000000000RA              46886781    005800390000003900000520000003NY  NNW 000                       N    
MTM0858600046886781    UNDER ICE                                                                                              
RDG08586000WATRL000000004K00000000000000948006703092015120933N000000000000U86       000350400K 10000000010000000939           
CUS0858600000108414855000         HARRIS JAMES EDWARD,8841 HARKATE WAY                        000N        CARE OF             
MTR08586000001000000000000000RA              46886773    005800400000004000000520000003NN  NNW 000                       N    
RDG08586000WATRL000000004K00000000000000991008802202015110657N000000000000N86       000510400K 10000000010000000981           
CUS0858600000108414854003         NEMAA ENTERPRISES LL8843 HARKATE WAY                        000N        CARE OF             
MTR08586000001000000000000000RA              01078503    005800410000004100000610000003NN  NNW 000                       N    
RDG08586000WATRL000000004K00000000000001346009102202015110819N000000000000N86       000300400K 10000000010000001340           
CUS0858600000108414852007         ODUNIYI JOSEPH      8845 HARKATE WAY                        000N        CARE OF             
MTR08586000001000000000000000RA              01071599    005800420000004200000610000003NN  NNW 000                       N    
RDG08586000WATRL000000004K00000000000000804009202202015110822N000000000000N86       000030400K 10000000010000000781           
CUS0858600000108414847007         SLADE NICHOLAS      8847 HARKATE WAY                        000N        CARE OF             
MTR08586000001000000000000000RA              46886826    005800430000004300000520000003NN  NNW 000                       N    
RDG08586000WATRL000000004K00000000000001188008902202015110746N000000000000N86       000490400K 10000000010000001180           
CUS0858600000108414778004         BRITTON ERICKA N    8849 HARKATE WAY                        000N        CARE OF             
MTR08586000001000000000000000RA              46886824    005800440000004400000520000003NN  NNW 000                       N    
RDG08586000WATRL000000004K00000000000001377009002202015110749N000000000000N86       000030400K 10000000010000001331           
CUS0858600000108408757006         UMEOZULU ROBERT N   8901 HARKATE WAY                        000N        CARE OF             
MTR08586000001000000000000000RA              75614798    005800450000004500000350000003NN  NNW 000                       N    
RDG08586000WATRL000000004K00000000000000129001902202015103039N000000000000N86       006330400K 10000000010000000104           
CUS0858600000108408758004         CARROLL MILLER      8903 HARKATE WAY                        000N        CARE OF             
MTR08586000001000000000000000RA              44178925    005800460000004600000520000003NN  NNW 000                       N    
RDG08586000WATRL000000004K00000000000002146002002202015103054N000000000000N86       000150400K 10000000010000002131           
CUS0858600000108408760000         WILLIAMS ASHLEY DONI8905 HARKATE WAY                        000N        CARE OF             
MTR08586000001000000000000000RA              44179124    005800470000004700000520000003NN  NNW 000                       N    
RDG08586000WATRL000000004K00000000000002883002102202015103057N000000000000N86       000030400K 10000000010000002868           
CUS0858600000108408762006         ROLLINS DENISE N    8907 HARKATE WAY                        000N        CARE OF             
MTR08586000001000000000000000RA              44179104    005800480000004800000520000003NN  NNW 000                       N    
RDG08586000WATRL000000004K00000000000001892002202202015103119N000000000000N86       000220400K 10000000010000001880           
CUS0858600000108408745001         SAWYER TARA         8911 HARKATE WAY                        000N        CARE OF             
MTR08586000001000000000000000RA              44179123    005800490000004900000520000003NN  NNW 000                       N    
RDG08586000WATRL000000004K00000000000002280002302202015103134N000000000000N86       000150400K 10000000010000002257           
CUS0858600000108408746009         JONES ROBERT T      8913 HARKATE WAY                        000N        CARE OF             
MTR08586000001000000000000000RA              44179141    005800500000005000000520000003NY  NNW 000                       N    
MTM0858600044179141    BLOCK OF ICE INSIDE                                                                                    
RDG08586000WATRL000000004K00000000000003202005903092015115814N000000000000U86       002460400K 10000000010000003186           
CUS0858600000108408747007         SMITH LUCY          8915 HARKATE WAY                        000N        CARE OF             
MTR08586000001000000000000000RA              44179127    005800510000005100000520000003NY  NNW 000                       N    
MTM0858600044179127    BLOCK OF ICE INSIDE                                                                                    
RDG08586000WATRL000000004K00000000000003033006003092015115817N000000000000U86       000030400K 10000000010000002983           
CUS0858600000108408749003         HARVIN GEORGE       8917 HARKATE WAY                        000N        CARE OF             
MTR08586000001000000000000000RA              44179142    005800520000005200000520000003NN  NNW 000                       N    
RDG08586000WATRL000000004K00000000000002955002402202015103241N000300000010N86       000670400K 10000000010000002895           
CUS0858600000108408751009         BOBBY L BOSTIC      8919 HARKATE WAY                        000N        CARE OF             
MTR08586000001000000000000000RA              44179097    005800530000005300000520000003NN  NNW 000                       N    
RDG08586000WATRL000000004K00000000000001435002502202015103244N000000000000N86       000030400K 10000000010000001420           
CUS0858600000108408753005         BARR BESSIE A       8921 HARKATE WAY                        000N        CARE OF             
MTR08586000001000000000000000RA              44179108    005800540000005400000520000003NN  NNW 000                       N    
RDG08586000WATRL000000004K00000000000002175002602202015103303N000000000000N86       000190400K 10000000010000002153           
CUS0858600000108408754003         HUNTER WILLIAM R    8923 HARKATE WAY                        000N        CARE OF             
MTR08586000001000000000000000RA              44179107    005800550000005500000520000003NN  NNW 000                       N    
RDG08586000WATRL000000004K00000000000001451002702202015103305N000000000000N86       000020400K 10000000010000001435           
CUS0858600000108408755000         ROBIN ROZZELL       8925 HARKATE WAY                        000N        CARE OF             
MTR08586000001000000000000000RA              52770045    005800560000005600000520000003NN  NNW 000                       N    
RDG08586000WATRL000000004K00000000000000939002802202015103321N000000000000N86       000160400K 10000000010000000930           
CUS0858600000108408763004         STODDART MARK A     8927 HARKATE WAY                        000N        CARE OF             
MTR08586000001000000000000000RA              45373883    005800570000005700000520000003NN  NNW 000                       N    
RDG08586000WATRL000000004K00000000000002416003102202015103443N000000000000N86       000350400K 10000000010000002386           
CUS0858600000108408764002         TRIPLIN DON'YELLE K 8929 HARKATE WAY                        000N        CARE OF             
MTR08586000001000000000000000RA              45373884    005800580000005800000520000003NN  NNW 000                       N    
RDG08586000WATRL000000004K00000000000003868003202202015103457N000300000020N86       000140400K 10000000010000003738           
CUS0858600000108408766007         ADAMS CAROL C       8931 HARKATE WAY                        000N        CARE OF             
MTR08586000001000000000000000RA              45373884    005800590000005900000520000003NN  NNW 000                       N    
RDG08586000WATRL000000004K00000000000002033002902202015103406N000000000000N86       000450400K 10000000010000002024           
CUS0858600000108408767005         BERT-COLE CHERVON T 8933 HARKATE WAY                        000N        CARE OF             
MTR08586000001000000000000000RA              45373886    005800600000006000000520000003NN  NNW 000                       N    
RDG08586000WATRL000000004K00000000000001645003002202015103408N000000000000N86       000020400K 10000000010000001632           
CUS0858600000108408769001         JONATHAN WILLIAMS   8935 HARKATE WAY                        000N        CARE OF             
MTR08586000001000000000000000RA              45373834    005800610000006100000520000003NY  NNW 000                       N    
MTM0858600045373834    UNDER ICE                                                                                              
RDG08586000WATRL000000004K00000000000003276006203092015120057N000000000000U86       000380400K 10000000010000003233           
CUS0858600000108408770009         DEBRA NORMAN        8937 HARKATE WAY                        000N        CARE OF             
MTR08586000001000000000000000RA              45385568    005800620000006200000520000003NY  NNW 000                       N    
MTM0858600045385568    UNDER ICE                                                                                              
RDG08586000WATRL000000004K00000000000003597006103092015120019N000300000010U86       001220400K 10000000010000003555           
CUS0858600000108408771007         OKEKE CECILIA  OKEKE8939 HARKATE WAY                        000N        CARE OF             
MTR08586000001000000000000000RA              45385534    005800630000006300000520000003NN  NNW 000                       N    
RDG08586000WATRL000000004K00000000000002727003302202015103534N000000000000N86       000370400K 10000000010000002695           
CUS0858600000108408772005         QUEEN RICHARD       8941 HARKATE WAY                        000N        CARE OF             
MTR08586000001000000000000000RA              45385539    005800640000006400000520000003NN  NNW 000                       N    
RDG08586000WATRL000000004K00000000000002509003402202015103536N000000000000N86       000020400K 10000000010000002489           
CUS0858600000108408773003         SKETERS VALENCIA S  8943 HARKATE WAY                        000N        CARE OF             
MTR08586000001000000000000000RA              45385566    005800650000006500000520000003NN  NNW 000                       N    
RDG08586000WATRL000000004K00000000000001900003502202015103550N000000000000N86       000140400K 10000000010000001894           
CUS0858600000108408774001         BROWN RANDOLPH K,SR 8950 HARKATE WAY                        000N        CARE OF             
MTR08586000001000000000000000RA              45384879    005800660000006600000520000003NN  NNW 000                       N    
RDG08586000WATRL000000004K00000000000003167003702202015103757N000000000000N86       000530400K 10000000010000003153           
CUS0858600000108408775008         JEFFREY GROSS       8948 HARKATE WAY                        000N        CARE OF             
MTR08586000001000000000000000RA              46880095    005800670000006700000520000003NN  NNW 000                       N    
RDG08586000WATRL000000004K00000000000001731003602202015103704N000000000000N86       000740400K 10000000010000001716           
CUS0858600000108408776006         HARRIS HARVEY  WILLI8940 HARKATE WAY                        000N        CARE OF             
MTR08586000001000000000000000RA              45384876    005800680000006800000520000003NY  NNW 000                       N    
MTM0858600045384876    FROZEN                                                                                                 
RDG08586000WATRL000000004K00000000000002986006303092015120405N000000000000U86       001880400K 10000000010000002959           
CUS0858600000108408777004         HARVEY RONALD C     8938 HARKATE WAY                        000N        CARE OF             
MTR08586000001000000000000000RA              45384912    005800690000006900000520000003NN  NNW 000                       N    
RDG08586000WATRL000000004K00000000000002727003802202015103859N000000000000N86       000620400K 10000000010000002705           
CUS0858600000108408778002         MING CHOW           8936 HARKATE WAY                        000N        CARE OF             
MTR08586000001000000000000000RA              45384943    005800700000007000000520000003NN  NNW 000                       N    
RDG08586000WATRL000000004K00000000000001854003902202015103900N000000000000N86       000010400K 10000000010000001819           
CUS0858600000108408779000         CONWAY VICTORIA     8934 HARKATE WAY                        000N        CARE OF             
MTR08586000001000000000000000RA              45384857    005800710000007100000520000003NN  NNW 000                       N    
RDG08586000WATRL000000004K00000000000004210004002202015103908N000000000000N86       000080400K 10000000010000004178           
CUS0858600000108408780008         DAVID WILSON        8932 HARKATE WAY                        000N        CARE OF             
MTR08586000001000000000000000RA              45384942    005800720000007200000520000003NN  NNW 000                       N    
RDG08586000WATRL000000004K00000000000002935004102202015103910N000000000000N86       000020400K 10000000010000002915           
CUS0858600000108408792003         SANDERS REGINA L    8930 HARKATE WAY                        000N        CARE OF             
MTR08586000001000000000000000RA              45384861    005800730000007300000520000003NN  NNW 000                       N    
RDG08586000WATRL000000004K00000000000001288004202202015103957N000000000000N86       000470400K 10000000010000001270           
CUS0858600000108408781006         POWELL DERRICK E    8926 HARKATE WAY                        000N        CARE OF             
MTR08586000001000000000000000RA              46888767    005800740000007400000520000003NN  NNW 000                       N    
RDG08586000WATRL000000004K00000000000000909004302202015104031N000000000000N86       000340400K 10000000010000000899           
CUS0858600000108408782004         CARSON TIA C        8924 HARKATE WAY                        000N        CARE OF             
MTR08586000001000000000000000RA              46888764    005800750000007500000520000003NN  NNW 000                       N    
RDG08586000WATRL000000004K00000000000001372004402202015104032N000000000000N86       000010400K 10000000010000001337           
CUS0858600000108408783002         SCRUGGS CHARLOTTE ST8922 HARKATE WAY                        000N        CARE OF             
MTR08586000001000000000000000RA              46880384    005800760000007600000520000003NN  NNW 000                       N    
RDG08586000WATRL000000004K00000000000001636004502202015104108N000000000000N86       000360400K 10000000010000001628           
CUS0858600000108408784000         GROGAN ROBERT E     8920 HARKATE WAY                        000N        CARE OF             
MTR08586000001000000000000000RA              46879358    005800770000007700000520000003NN  NNW 000                       N    
RDG08586000WATRL000000004K00000000000001696004602202015104112N000000000000N86       000040400K 10000000010000001684           
CUS0858600000108408785007         SUTHERLAND JON      8918 HARKATE WAY                        000N        CARE OF             
MTR08586000001000000000000000RA              46879596    005800780000007800000520000003NN  NNW 000                       N    
RDG08586000WATRL000000004K00000000000002397004702202015104129N000000000000N86       000170400K 10000000010000002380           
CUS0858600000108408786005         FRANKEL ERICA B     8916 HARKATE WAY                        000N        CARE OF             
MTR08586000001000000000000000RA              46880386    005800790000007900000520000003NN  NNW 000                       N    
RDG08586000WATRL000000004K00000000000001421004802202015104131N000000000000N86       000020400K 10000000010000001399           
CUS0858600000108408787003         BROWN SAMUEL L      8914 HARKATE WAY                        000N        CARE OF             
MTR08586000001000000000000000RA              46880382    005800800000008000000520000003NN  NNW 000                       N    
RDG08586000WATRL000000004K00000000000000865004902202015104203N000000000000N86       000320400K 10000000010000000856           
CUS0858600000108408788001         GWEN ANDERSON       8912 HARKATE WAY                        000N        CARE OF             
MTR08586000001000000000000000RA              46880383    005800810000008100000520000003NN  NNW 000                       N    
RDG08586000WATRL000000004K00000000000001442005202202015104219N000000000000N86       000060400K 10000000010000001427           
CUS0858600000108408789009         SMALLWOOD WHITNEY P 8910 HARKATE WAY                        000N        CARE OF             
MTR08586000001000000000000000RA              10002666    005800820000008200000570000003NN  NNW 000                       N    
RDG08586000WATRL000000004K00000000000000290005102202015104213N000000000000N86       000050400K 10000000010000000255           
CUS0858600000108408756008         SEMBLY BYRON ANTHONY8908 HARKATE WAY                        000N        CARE OF             
MTR08586000001000000000000000RA              44179109    005800830000008300000520000003NN  NNW 000                       N    
RDG08586000WATRL000000004K00000000000001376005002202015104243N000000000011N86       000240400K 10000000010000001376           
CUS0858600000108408759002         DIXON CHONITA D     8906 HARKATE WAY                        000N        CARE OF             
MTR08586000001000000000000000RA              44179125    005800840000008400000520000003NN  NNW 000                       N    
RDG08586000WATRL000000004K00000000000003521005302202015104247N000300000010N86       000040400K 10000000010000003268           
CUS0858600000108408761008         KIM LASHAWN MURPHY  8904 HARKATE WAY                        000N        CARE OF             
MTR08586000001000000000000000RA              44179140    005800850000008500000520000003NN  NNW 000                       N    
RDG08586000WATRL000000004K00000000000002165005402202015104305N000000000000N86       000180400K 10000000010000002151           
CUS0858600000108408765009         MARTINS JULIA A     8902 HARKATE WAY                        000N        CARE OF             
MTR08586000001000000000000000RA              41588446    005800860000008600000520000003NN  NNW 000                       N    
RDG08586000WATRL000000004K00000000000001505005502202015104309N000300000010N86       000040400K 10000000010000001457           
CUS0858600000108408768003         FRANKLIN APRIL      8900 HARKATE WAY                        000N        CARE OF             
MTR08586000001000000000000000RA              44179094    005800870000008700000520000003NN  NNW 000                       N    
RDG08586000WATRL000000004K00000000000002352005602202015104325N000000000000N86       000160400K 10000000010000002312           
CUS0858600000108408790007         THOMAS J SMITH      8840 HARKATE WAY                        000N        CARE OF             
MTR08586000001000000000000000RA              48586051    005800880000008800000520000003NY  NNW 000                       N    
MTM0858600048586051    UNDER ICE                                                                                              
RDG08586000WATRL000000004K00000000000002808006403092015120635N000000000000U86       001500400K 10000000010000002791           
CUS0858600000108408791005         HART DOMONIQUE DERRI8838 HARKATE WAY                        000N        CARE OF             
MTR08586000001000000000000000RA              01077286    005800890000008900000610000003NN  NNW 000                       N    
RDG08586000WATRL000000004K00000000000000000005702202015104351N000000000000N86       000260400K 10000000010000000000           
CUS0858600000108414844004         FORBES DAVID        8836 HARKATE WAY                        000N        CARE OF             
MTR08586000001000000000000000RA              46887122    005800900000009000000520000003NN  NNW 000                       N    
RDG08586000WATRL000000004K00000000000001617005802202015105401N000000000000N86       006100400K 10000000010000001606           
CUS0858600000108414829005         ERICKA LOFTON       8834 HARKATE WAY                        000N        CARE OF             
MTR08586000001000000000000000RA              46887109    005800910000009100000520000003NN  NNW 000                       N    
RDG08586000WATRL000000004K00000000000001674005902202015105403N000000000000N86       000020400K 10000000010000001660           
CUS0858600000108414828007         ADEOSUN ADEDOTUN    8832 HARKATE WAY                        000N        CARE OF             
MTR08586000001000000000000000RA              46887089    005800920000009200000520000003NN  NNW 000                       N    
RDG08586000WATRL000000004K00000000000000666006002202015105426N000000000000N86       000230400K 10000000010000000646           
CUS0858600000108414827009         EPPS EVELYN         8830 HARKATE WAY                        000N        CARE OF             
MTR08586000001000000000000000RA              46887120    005800930000009300000520000003NN  NNW 000                       N    
RDG08586000WATRL000000004K00000000000000866006102202015105428N000000000000N86       000020400K 10000000010000000837           
CUS0858600000108414826001         BUTLER DARRELL A    8828 HARKATE WAY                        000N        CARE OF             
MTR08586000001000000000000000RA              48591704    005800940000009400000520000003NN  NNW 000                       N    
RDG08586000WATRL000000004K00000000000002013006202202015105501N000000000000N86       000330400K 10000000010000002006           
