FHDNNNN008001814001814001834N                                                                                           005577
RHD04210400NN01900190000001900000000001900190000090NY019001900190000000580000000000000000000001    06182015NY020000 N         
CUS0421040000104174554008         2770 FENWICK, LLC   2770 FENWICK AVE                        000N        CARE OF             
MTR04210400001000000000000000RA              40780098    005800010000000100000520000003NN  NNW 000   VACANT PROPERTY     N    
RDG04210400WATRL000000004K00000000000001170002706242015062021N000000000000U40       001130400K 10000000010000001170           
CUS0421040000104174555005         JONATHAN WADE       2768 FENWICK AVE                        000N        CARE OF             
MTR04210400001000000000000000RA              01089597    005800020000000200000610000003NN  NNW 000   VACANT PROPERTY     N    
RDG04210400WATRL000000004K00000000000002362002806242015062023N000000000000U40       000020400K 10000000010000002362           
CUS0421040000104174556003         2766 FENWICK AVE, LL2766 FENWICK AVE                        000N        CARE OF             
MTR04210400001000000000000000RA              01089668    005800030000000300000610000003NN  NNW 000                       N    
RDG04210400WATRL000000004K00000000000000407002906242015062029N000000000000U40       000060400K 10000000010000000407           
CUS0421040000104174557001         MAYOR AND CITY COUNC2764 FENWICK AVE                        000N        CARE OF             
MTR04210400001000000000000000RA              01089592    005800040000000400000610000003NN  NNW 000                       N    
RDG04210400WATRL000000004K00000000000000157003006242015062033N000000000000U40       000040400K 10000000010000000157           
CUS0421040000104174558009         LOGAN, MARGARET A.  2762 FENWICK AVE                        000N        CARE OF             
MTR04210400001000000000000000RA              14913053    005800050000000500000310000003NN  NNW 000   VACANT PROPERTY     N    
RDG04210400WATRL000000004K00000000000000165003106242015062035N000000000000U40       000020400K 10000000010000000165           
CUS0421040000104174559007         BLACK DOOR TREATMENT2760 FENWICK AVE                        000N        CARE OF             
MTR04210400001000000000000000RA              26012269    005800060000000600000520000003NN  NNW 000   VACANT PROPERTY     N    
RDG04210400WATRL000000004K00000000000002586003206242015062039N000000000000U40       000040400K 10000000010000002586           
CUS0421040000104174560005         STEWART, RALPH      2758 FENWICK AVE                        000N        CARE OF             
MTR04210400001000000000000000RA              01089598    005800070000000700000610000003NN  NNW 000                       N    
RDG04210400WATRL000000004K00000000000000201003306242015062056N000000000000U40       000170400K 10000000010000000198           
CUS0421040000104174561003         BROWN JR., LUM      2756 FENWICK AVE                        000N        CARE OF             
MTR04210400001000000000000000RA              8715803     007500080000000800000440000003NN  NNW 000   VACANT PROPERTY     N    
RDG04210400WATRL000000004K00000000000000000003406242015062110S022000000000U40       000140400K 10000000010000000098           
CUS0421040000104174563009         PAMPHILIS ALEX      2752 FENWICK AVE                        000N        CARE OF             
MTR04210400001000000000000000RA              99999999    005800090000000900000610000003NN  NNW 000                       N    
RDG04210400WATRL000000004K00000000000000000003506242015062113S022000000000U40       000030400K 10000000010000000000           
CUS0421040000104174565004         KNIGHT, GARY        2748 FENWICK AVE                        000N        CARE OF             
MTR04210400001000000000000000RA              01107865    005800100000001000000610000003NN  NNW 000                       N    
RDG04210400WATRL000000004K00000000000001380003606242015062140N000400000010U40       000270400K 10000000010000001355           
CUS0421040000104174566002         BELNAVIS, SEBASTIAN 2746 FENWICK AVE                        000N        CARE OF             
MTR04210400001000000000000000RA              01093269    005800110000001100000610000003NN  NNW 000                       N    
RDG04210400WATRL000000004K00000000000001520003706242015062200N000000000000U40       000200400K 10000000010000001489           
CUS0421040000104174567000         MAYOR AND THE CITY C2744 FENWICK AVE                        000N        CARE OF             
MTR04210400001000000000000000RA              20767334    005800120000001200000520000003NN  NNW 000   INVALID DAC         N    
RDG04210400WATRL000000004K00000000000004466003806242015062210N000000000000U40       000100400K 10000000010000004466           
CUS0421040000104174569006         W CHEEKS            2740 FENWICK AVE                        000N        CARE OF             
MTR04210400001000000000000000RA              01089599    005800130000001300000610000003NN  NNW 000                       N    
RDG04210400WATRL000000004K00000000000000673003906242015062230N000000000000U40       000200400K 10000000010000000660           
CUS0421040000104174571002         ARMSTEAD, DONNIE T. 2736 FENWICK AVE                        000N        CARE OF             
MTR04210400001000000000000000RA              52770179    005800140000001400000520000003NN  NNW 000                       N    
RDG04210400WATRL000000004K00000000000000952004006242015062243N000000000000U40       000130400K 10000000010000000952           
CUS0421040000104174572000         G/S ASSOCIATES, LLC 2734 FENWICK AVE                        000N        CARE OF             
MTR04210400001000000000000000RA              41088943    005800150000001500000520000003NN  NNW 000                       N    
RDG04210400WATRL000000004K00000000000001756004106242015062251N000000000000U40       000080400K 10000000010000001756           
CUS0421040000104174573008         SADEGHI, MEHRAN     2732 FENWICK AVE                        000N        CARE OF             
MTR04210400001000000000000000RA              10012572    005800160000001600000570000003NN  NNW 000   VACANT PROPERTY     N    
RDG04210400WATRL000000004K00000000000000000004206242015062257N000000000000U40       000060400K 10000000010000000000           
CUS0421040000104174574006         WILLIAM A SCOTT II  2730 FENWICK AVE                        000N        CARE OF             
MTR04210400001000000000000000RA              99999999    005800170000001700000520000003NN  NNW 000                       N    
RDG04210400WATRL000000004K00000000000002184004306242015062311N000000000000U40       000140400K 10000000010000002165           
CUS0421040000104174575003         BELL, QUENTIN       2728 FENWICK AVE                        000N        CARE OF             
MTR04210400001000000000000000RA              01089591    005800180000001800000610000003NN  NNW 000   VACANT PROPERTY     N    
RDG04210400WATRL000000004K00000000000000467004406242015062317N000000000000U40       000060400K 10000000010000000467           
CUS0421040000104174576001         REDC STATUTORY TRUST2726 FENWICK AVE                        000N        CARE OF             
MTR04210400001000000000000000RA              01090315    005800190000001900000610000003NN  NNW 000                       N    
RDG04210400WATRL000000004K00000000000001762004506242015062330N000400000010U40       000130400K 10000000010000001761           
CUS0421040000104174577009         WIGGINS, DAISY M.   2724 FENWICK AVE                        000N        CARE OF             
MTR04210400001000000000000000RA              99389895    005800200000002000000570000003NN  NNW 000                       N    
RDG04210400WATRL000000004K00000000000000712004606242015062358N000400000010U40       000280400K 10000000010000000710           
CUS0421040000104174578007         WESTBROOKS, JOE H.  2722 FENWICK AVE                        000N        CARE OF             
MTR04210400001000000000000000RA              01090316    005800210000002100000610000003NN  NNW 000   VACANT PROPERTY     N    
RDG04210400WATRL000000004K00000000000000000004706242015062408N000000000000U40       000100400K 10000000010000000000           
CUS0421040000104174579005         BEVERLY, JOHNNIE MAE2720 FENWICK AVE                        000N        CARE OF             
MTR04210400001000000000000000RA              00140339    005800220000002200000570000003NN  NNW 000                       N    
RDG04210400WATRL000000004K00000000000001200004806242015062429N000000000000U40       000210400K 10000000010000001155           
CUS0421040000104174580003         ADDIS DEVELOPERS, LL2718 FENWICK AVE                        000N        CARE OF             
MTR04210400001000000000000000RA              41082286    005800230000002300000520000003NN  NNW 000                       N    
RDG04210400WATRL000000004K00000000000003097004906242015062452N000100000010U40       000230400K 10000000010000003097           
CUS0421040000104174581001         CHAIM MEIR WEISEL   2716 FENWICK AVE                        000N        CARE OF             
MTR04210400001000000000000000RA              10004857    005800240000002400000570000003NN  NNW 000                       N    
RDG04210400WATRL000000004K00000000000000448005006242015062517N000400000010U40       000250400K 10000000010000000439           
CUS0421040000104174582009         819 NORTH CURLEY LLC2714 FENWICK AVE                        000N        CARE OF             
MTR04210400001000000000000000RA              14925617    005800250000002500000310000003NN  NNW 000                       N    
RDG04210400WATRL000000004K00000000000000647005106242015062522N000000000000U40       000050400K 10000000010000000647           
CUS0421040000104174583007         WISE, MYER D        2712 FENWICK AVE                        000N        CARE OF             
MTR04210400001000000000000000RA              48592087    005800260000002600000520000003NN  NNW 000   VACANT PROPERTY     N    
RDG04210400WATRL000000004K00000000000001462005206242015062526N000000000000U40       000040400K 10000000010000001462           
CUS0421040000104174585002         STEVAN VANDERHORST  2708 FENWICK AVE                        000N        CARE OF             
MTR04210400001000000000000000RA              35119328    005800270000002700000520000003NN  NNW 000                       N    
RDG04210400WATRL000000004K00000000000002547005306242015062542N000000000000U40       000160400K 10000000010000002541           
CUS0421040000104174586000         JEFFERSON, GERALD   2706 FENWICK AVE                        000N        CARE OF             
MTR04210400001000000000000000RA              46880054    005800280000002800000520000003NN  NNW 000                       N    
RDG04210400WATRL000000004K00000000000001211005406242015062610N000000000000U40       000280400K 10000000010000001206           
CUS0421040000104174587008         JEFFERSON, GERALD   2704 FENWICK AVE                        000N        CARE OF             
MTR04210400001000000000000000RA              35119332    005800290000002900000520000003NN  NNW 000                       N    
RDG04210400WATRL000000004K00000000000004091005506242015062636N000000000000U40       000260400K 10000000010000004084           
CUS0421040000104174588006         THOMAS GOODSON      2702 FENWICK AVE                        000N        CARE OF             
MTR04210400001000000000000000RA              39923278    005800300000003000000520000003NN  NNW 000                       N    
RDG04210400WATRL000000004K00000000000001193005606242015062717N000000000000U40       000410400K 10000000010000001164           
CUS0421040000104174589004         WAY OF TRUTH FOUNDAT2700 FENWICK AVE                        000N        CARE OF             
MTR04210400001000000000000000RA              45388407    007500310000003100000520000003NN  NNW 000                       N    
RDG04210400WATRL000000004K00000000000000321005706242015062810N000000000010U40       000530400K 10000000010000000312           
CUS0421040000104174519001         STACEY/KIM WELLING  2860 HARFORD RD                         000N        CARE OF             
MTR04210400001000000000000000RA              01098296    007500320000003200000610000003NN  NNW 000                       N    
RDG04210400WATRL000000004K00000000000000616000106222015081542N000000000000N40       000000400K 10000000010000000572           
CUS0421040000104174520009         MORGAN, MARSHA      2858 HARFORD RD                         000N        CARE OF             
MTR04210400001000000000000000RA              99999999    007500330000003300000620000003NN  NNW 000                       N    
RDG04210400WATRL000000004K00000000000000144000206222015081556N000000000000N40       000140400K 10000000010000000144           
CUS0421040000104174521007         CRESENT DEVELOPMENT 2856 HARFORD RD                         000N        CARE OF             
MTR04210400001000000000000000RA              14918330    007500340000003400000310000003NN  NNW 000                       N    
RDG04210400WATRL000000004K00000000000000278000306222015081621N000000000010N40       000250400K 10000000010000000267           
CUS0421040000104174590002         SHIRD, JAMES D.     2852 HARFORD RD                         000N        CARE OF             
MTR04210400001000000000000000RA              00120657    007500350000003500000570000003NN  NNW 000                       N    
RDG04210400WATRL000000004K00000000000000692002606242015061828N000000000010U40       001050400K 10000000010000000692           
CUS0421040000104174591000         FOFUNG, MUTED       2850 HARFORD RD                         000N        CARE OF             
MTR04210400001000000000000000RA              99412132    007500360000003600000570000003NN  NNW 000   VACANT PROPERTY     N    
RDG04210400WATRL000000004K00000000000001653000106242015060832N000000000000U40       000000400K 10000000010000001653           
CUS0421040000104174592008         WILLIAMS, HENRY E   2848 HARFORD RD                         000N        CARE OF             
MTR04210400001000000000000000RA              14927486    005800370000003700000310000003NN  NNW 000                       N    
RDG04210400WATRL000000004K00000000000000735000206242015062906N000000000031U40       000560400K 10000000010000000718           
CUS0421040000104174593006         INEZ DIXON          2846 HARFORD RD                         000N        CARE OF             
MTR04210400001000000000000000RA              10023399    005800380000003800000570000003NN  NNW 000                       N    
RDG04210400WATRL000000004K00000000000000526005806242015062950N000000000060U40       000440400K 10000000010000000484           
CUS0421040000104174594004         DAVE CLARKE         2844 HARFORD RD                         000N        CARE OF             
MTR04210400001000000000000000RA              30000707    007500390000003900000570000003NN  NNW 000                       N    
RDG04210400WATRL000000004K00000000000000251005906242015063007N000000000000U40       000170400K 10000000010000000251           
CUS0421040000104174595001         2842 HARFORD LLC    2842 HARFORD RD                         000N        CARE OF             
MTR04210400001000000000000000RA              00117505    007500400000004000000570000003NN  NNW 000                       N    
RDG04210400WATRL000000004K00000000000000578006006242015063019N000000000000U40       000120400K 10000000010000000578           
CUS0421040000104371300007         HARRIS, JAMES K.    2840 HARFORD RD                         000N        CARE OF             
MTR04210400001000000000000000RA              00120364    007500410000004100000570000003NN  NNW 000                       N    
RDG04210400WATRL000000004K00000000000001118006106242015063037N000000000000U40       000180400K 10000000010000001104           
CUS0421040000104174596009         CROOMS, JOHN W      2838 HARFORD RD                         000N        CARE OF             
MTR04210400001000000000000000RA              01112576    005800420000004200000610000003NN  NNW 000                       N    
RDG04210400WATRL000000004K00000000000000316006206242015063111N000000000020U40       000340400K 10000000010000000298           
CUS0421040000104174597007         INTEGRITY HOLDINGS L2836 HARFORD RD                         000N        CARE OF             
MTR04210400001000000000000000RA              99412285    007500430000004300000570000003NN  NNW 000   VACANT PROPERTY     N    
RDG04210400WATRL000000004K00000000000001008000306242015060859N000000000000U40       000100400K 10000000010000001008           
CUS0421040000104174598005         ROBERT D.,INC.      2834 HARFORD RD                         000N        CARE OF             
MTR04210400001000000000000000RA              31345093    007500440000004400000520000003NN  NNW 000   VACANT PROPERTY     N    
RDG04210400WATRL000000004K00000000000005182000406242015060903N000000000000U40       000040400K 10000000010000005182           
CUS0421040000104174599003         TASHA WATKINS       2832 HARFORD RD                         000N        CARE OF             
MTR04210400001000000000000000RA              00118844    007500450000004500000570000003NN  NNW 000   VACANT PROPERTY     N    
RDG04210400WATRL000000004K00000000000000636000506242015060906N000000000000U40       000030400K 10000000010000000636           
CUS0421040000104174600009         JENKINS ETAL, VANDOR2830 HARFORD RD                         000N        CARE OF             
MTR04210400001000000000000000RA              00117563    007500460000004600000570000003NN  NNW 000                       N    
RDG04210400WATRL000000004K00000000000000957006306242015063143N000000000001U40       000320400K 10000000010000000947           
CUS0421040000104174601007         AHMED, MUHAMMAD     2828 HARFORD RD                         000N        CARE OF             
MTR04210400001000000000000000RA              00117929    007500470000004700000570000003NN  NNW 000                       N    
RDG04210400WATRL000000004K00000000000001403000706242015061014N000000000000U40       000510400K 10000000010000001382           
CUS0421040000104174602005         MAYOR AND CITY COUNC2701 TIVOLY AVE                         000N        CARE OF             
MTR04210400001000000000000000RA              99999999    005800480000004800000620000003NN  NNW 000   FERRULE APPLIED     N    
RDG04210400WATRL000000004K00000000000000000006406242015064040S022000000000U40       005370400K 10000000010000001750           
CUS0421040000104174603003         MAYOR AND CITY COUNC2703 TIVOLY AVE                         000N        CARE OF             
MTR04210400001000000000000000RA              99999999    005800490000004900000620000003NN  NNW 000   FERRULE APPLIED     N    
RDG04210400WATRL000000004K00000000000000000006506242015064042S022000000000U40       000020400K 10000000010000000000           
CUS0421040000104174604001         SIKDER, SHERYL      2705 TIVOLY AVE                         000N        CARE OF             
MTR04210400001000000000000000RA              99999999    005800500000005000000620000003NN  NNW 000   FERRULE APPLIED     N    
RDG04210400WATRL000000004K00000000000000000006606242015064044S022000000000U40       000020400K 10000000010000000000           
CUS0421040000104174606006         MAYOR AND CITY COUNC2709 TIVOLY AVE                         000N        CARE OF             
MTR04210400001000000000000000RA              99999999    005800510000005100000620000003NN  NNW 000   VACANT PROPERTY     N    
RDG04210400WATRL000000004K00000000000000000006706242015064046S022000000000U40       000020400K 10000000010000000000           
CUS0421040000104174608002         MAYOR AND CITY COUNC2713 TIVOLY AVE                         000N        CARE OF             
MTR04210400001000000000000000RA              99999999    005800520000005200000620000003NN  NNW 000   FERRULE APPLIED     N    
RDG04210400WATRL000000004K00000000000000000006806242015064048S022000000000U40       000020400K 10000000010000000000           
CUS0421040000104174609000         MAYOR AND CITY COUNC2715 TIVOLY AVE                         000N        CARE OF             
MTR04210400001000000000000000RA              99999999    005800530000005300000620000003NN  NNW 000   FERRULE APPLIED     N    
RDG04210400WATRL000000004K00000000000000000006906242015064050S022000000000U40       000020400K 10000000010000000000           
CUS0421040000104174611006         MAYOR AND CITY COUNC2719 TIVOLY AVE                         000N        CARE OF             
MTR04210400001000000000000000RA              99999999    005800540000005400000620000003NN  NNW 000   FERRULE APPLIED     N    
RDG04210400WATRL000000004K00000000000000000007006242015064051S022000000000U40       000010400K 10000000010000000000           
CUS0421040000104174614000         MAYOR AND CITY COUNC2725 TIVOLY AVE                         000N        CARE OF             
MTR04210400001000000000000000RA              99999999    005800550000005500000620000003NN  NNW 000   FERRULE APPLIED     N    
RDG04210400WATRL000000004K00000000000000000007106242015064053S022000000000U40       000020400K 10000000010000000000           
CUS0421040000104174615007         MAYOR AND CITY COUNC2727 TIVOLY AVE                         000N        CARE OF             
MTR04210400001000000000000000RA              99999999    005800560000005600000620000003NN  NNW 000   FERRULE APPLIED     N    
RDG04210400WATRL000000004K00000000000000000007206242015064055S022000000000U40       000020400K 10000000010000000000           
CUS0421040000104174616005         MAYOR AND CITY COUNC2729 TIVOLY AVE                         000N        CARE OF             
MTR04210400001000000000000000RA              99999999    005800570000005700000620000003NN  NNW 000   FERRULE APPLIED     N    
RDG04210400WATRL000000004K00000000000000000007306242015064057S022000000000U40       000020400K 10000000010000000000           
CUS0421040000104174623001         MAYOR AND CITY COUNC2743 TIVOLY AVE                         000N        CARE OF             
MTR04210400001000000000000000RA              40322526    005800580000005800000520000003NN  NNW 000                       N    
RDG04210400WATRL000000004K00000000000000000007406242015064058S022000000000U40       000010400K 10000000010000001413           
CUS0421040000104174626004         MAYOR AND CITY COUNC2749 TIVOLY AVE                         000N        CARE OF             
MTR04210400001000000000000000RA              18776033    005800590000005900000440000003NN  NNW 000   INVALID DAC         N    
RDG04210400WATRL000000004K00000000000000000007506242015064100S022000000000U40       000020400K 10000000010000003401           
CUS0421040000104174629008         TIMMONS, LEON       2755 TIVOLY AVE                         000N        CARE OF             
MTR04210400001000000000000000RA              44090427    005800600000006000000520000003NN  NNW 000   FERRULE APPLIED     N    
RDG04210400WATRL000000004K00000000000000000007606242015064102S022000000000U40       000020400K 10000000010000000337           
CUS0421040000104174630006         MAYOR & CITY COUNCIL2757 TIVOLY AVE                         000N        CARE OF             
MTR04210400001000000000000000RA              99999999    005800610000006100000620000003NN  NNW 000   FERRULE APPLIED     N    
RDG04210400WATRL000000004K00000000000000000007706242015064104S022000000000U40       000020400K 10000000010000000000           
CUS0421040000104174632002         MAYOR AND CITY COUNC2761 TIVOLY AVE                         000N        CARE OF             
MTR04210400001000000000000000RA              99999999    005800620000006200000620000003NN  NNW 000   FERRULE APPLIED     N    
RDG04210400WATRL000000004K00000000000000000007806242015064106S022000000000U40       000020400K 10000000010000000000           
CUS0421040000104174633000         MAYOR AND CITY COUNC2763 TIVOLY AVE                         000N        CARE OF             
MTR04210400001000000000000000RA              99999999    005800630000006300000620000003NN  NNW 000   FERRULE APPLIED     N    
RDG04210400WATRL000000004K00000000000000000007906242015064108S022000000000U40       000020400K 10000000010000000000           
CUS0421040000104174635005         MAYOR AND CITY COUNC2767 TIVOLY AVE                         000N        CARE OF             
MTR04210400001000000000000000RA              99999999    005800640000006400000620000003NN  NNW 000   FERRULE APPLIED     N    
RDG04210400WATRL000000004K00000000000000000008006242015064110S022000000000U40       000020400K 10000000010000000000           
CUS0421040000104174636003         MAYOR AND CITY COUNC2769 TIVOLY AVE                         000N        CARE OF             
MTR04210400001000000000000000RA              01089398    005800650000006500000610000003NN  NNW 000   FERRULE APPLIED     N    
RDG04210400WATRL000000004K00000000000000000008106242015064112S022000000000U40       000020400K 10000000010000001721           
CUS0421040000104174642001         GREENE, JANICE D.   2781 TIVOLY AVE                         000N        CARE OF             
MTR04210400001000000000000000RA              99999999    005800660000006600000520000003NN  NNW 000   FERRULE APPLIED     N    
RDG04210400WATRL000000004K00000000000000000008206242015064113S022000000000U40       000010400K 10000000010000002441           
CUS0421040000104174643009         SS5 BUSINESS TRUST  2783 TIVOLY AVE                         000N        CARE OF             
MTR04210400001000000000000000RA              99999999    005800670000006700000620000003NN  NNW 000   FERRULE APPLIED     N    
RDG04210400WATRL000000004K00000000000000000008306242015064115S022000000000U40       000020400K 10000000010000000307           
CUS0421040000104174644007         MAYOR AND CITY COUNC2785 TIVOLY AVE                         000N        CARE OF             
MTR04210400001000000000000000RA              99999999    005800680000006800000620000003NN  NNW 000   FERRULE APPLIED     N    
RDG04210400WATRL000000004K00000000000000000008406242015064117S022000000000U40       000020400K 10000000010000003057           
CUS0421040000104174647000         MAYOR AND CITY COUNC2791 TIVOLY AVE                         000N        CARE OF             
MTR04210400001000000000000000RA              99999999    005800690000006900000620000003NN  NNW 000   FERRULE APPLIED     N    
RDG04210400WATRL000000004K00000000000000000008506242015064119S022000000000U40       000020400K 10000000010000000000           
CUS0421040000104174648008         MAYOR AND CITY COUNC2793 TIVOLY AVE                         000N        CARE OF             
MTR04210400001000000000000000RA              52290558    005800700000007000000520000003NN  NNW 000   FERRULE APPLIED     N    
RDG04210400WATRL000000004K00000000000000000008606242015064121S022000000000U40       000020400K 10000000010000001393           
CUS0421040000104174652000         MAYOR AND CITY COUNC2794-1/2 TIVOLY AVE                     000N        CARE OF             
MTR04210400001000000000000000RA              48594917    005800710000007100000520000003NN  NNW 000   VACANT PROPERTY     N    
RDG04210400WATRL000000004K00000000000000000008706242015064123S022000000000U40       000020400K 10000000010000001537           
CUS0421040000104174653008         MAYOR AND CITY COUNC2794 TIVOLY AVE                         000N        CARE OF             
MTR04210400001000000000000000RA              99389995    005800720000007200000570000003NN  NNW 000   VACANT PROPERTY     N    
RDG04210400WATRL000000004K00000000000000000008806242015064125S022000000000U40       000020400K 10000000010000000292           
CUS0421040000104174656001         MAYOR AND CITY COUNC2790 TIVOLY AVE                         000N        CARE OF             
MTR04210400001000000000000000RA              99999999    005800730000007300000620000003NN  NNW 000   FERRULE APPLIED     N    
RDG04210400WATRL000000004K00000000000000000008906242015064127S022000000000U40       000020400K 10000000010000000127           
CUS0421040000104174659005         OKETUNJI, OLALEKAN  2784 TIVOLY AVE                         000N        CARE OF             
MTR04210400001000000000000000RA              99999999    005800740000007400000620000003NN  NNW 000   FERRULE APPLIED     N    
RDG04210400WATRL000000004K00000000000000000009006242015064128S022000000000U40       000010400K 10000000010000002930           
CUS0421040000104174660003         MAYOR AND CITY COUNC2782 TIVOLY AVE                         000N        CARE OF             
MTR04210400001000000000000000RA              99999999    005800750000007500000620000003NN  NNW 000   FERRULE APPLIED     N    
RDG04210400WATRL000000004K00000000000000000009106242015064130S022000000000U40       000020400K 10000000010000000000           
CUS0421040000104174662009         STEWART, EUGENE     2778 TIVOLY AVE                         000N        CARE OF             
MTR04210400001000000000000000RA              99999999    005800760000007600000620000003NN  NNW 000   FERRULE APPLIED     N    
RDG04210400WATRL000000004K00000000000000000009206242015064132S022000000000U40       000020400K 10000000010000000000           
CUS0421040000104174663007         MAYOR AND CITY COUNC2776 TIVOLY AVE                         000N        CARE OF             
MTR04210400001000000000000000RA              99999999    005800770000007700000620000003NN  NNW 000   FERRULE APPLIED     N    
RDG04210400WATRL000000004K00000000000000000009306242015064134S022000000000U40       000020400K 10000000010000000005           
CUS0421040000104174664005         MAYOR AND CITY COUNC2774 TIVOLY AVE                         000N        CARE OF             
MTR04210400001000000000000000RA              99999999    005800780000007800000620000003NN  NNW 000   INVALID DAC         N    
RDG04210400WATRL000000004K00000000000000000009406242015064136S022000000000U40       000020400K 10000000010000001847           
CUS0421040000104174665002         MAYOR AND CITY COUNC2772 TIVOLY AVE                         000N        CARE OF             
MTR04210400001000000000000000RA              99999999    005800790000007900000620000003NN  NNW 000   FERRULE APPLIED     N    
RDG04210400WATRL000000004K00000000000000000009506242015064139S022000000000U40       000030400K 10000000010000000000           
CUS0421040000104174666000         MAYOR AND CITY COUNC2770 TIVOLY AVE                         000N        CARE OF             
MTR04210400001000000000000000RA              99999999    005800800000008000000620000003NN  NNW 000   FERRULE APPLIED     N    
RDG04210400WATRL000000004K00000000000000000009606242015064140S022000000000U40       000010400K 10000000010000000000           
CUS0421040000104174667008         MAYOR AND CITY COUNC2768 TIVOLY AVE                         000N        CARE OF             
MTR04210400001000000000000000RA              35106862    005800810000008100000520000003NN  NNW 000   VACANT PROPERTY     N    
RDG04210400WATRL000000004K00000000000000000009706242015064143S022000000000U40       000030400K 10000000010000002415           
CUS0421040000104174668006         MAYOR AND CITY COUNC2766 TIVOLY AVE                         000N        CARE OF             
MTR04210400001000000000000000RA              99999999    005800820000008200000620000003NN  NNW 000   FERRULE APPLIED     N    
RDG04210400WATRL000000004K00000000000000000009806242015064144S022000000000U40       000010400K 10000000010000000000           
CUS0421040000104174669004         SINGH, HARRICHAND   2764 TIVOLY AVE                         000N        CARE OF             
MTR04210400001000000000000000RA              99999999    005800830000008300000620000003NN  NNW 000   FERRULE APPLIED     N    
RDG04210400WATRL000000004K00000000000000000009906242015064146S022000000000U40       000020400K 10000000010000000000           
CUS0421040000104174670002         MAYOR AND CITY COUNC2762 TIVOLY AVE                         000N        CARE OF             
MTR04210400001000000000000000RA              99999999    005800840000008400000620000003NN  NNW 000                       N    
RDG04210400WATRL000000004K00000000000000000010006242015064148S022000000000U40       000020400K 10000000010000000000           
CUS0421040000104174672008         MAYOR AND CITY COUNC2758 TIVOLY AVE                         000N        CARE OF             
MTR04210400001000000000000000RA              99999999    005800850000008500000620000003NN  NNW 000   FERRULE APPLIED     N    
RDG04210400WATRL000000004K00000000000000000010106242015064150S022000000000U40       000020400K 10000000010000000000           
CUS0421040000104174678005         MAYOR AND CITY COUNC2746 TIVOLY AVE                         000N        CARE OF             
MTR04210400001000000000000000RA              99999999    005800860000008600000620000003NN  NNW 000   FERRULE APPLIED     N    
RDG04210400WATRL000000004K00000000000000000010206242015064152S022000000000U40       000020400K 10000000010000000000           
CUS0421040000104174680001         MAYOR AND CITY COUNC2742 TIVOLY AVE                         000N        CARE OF             
MTR04210400001000000000000000RA              99999999    005800870000008700000620000003NN  NNW 000   FERRULE APPLIED     N    
RDG04210400WATRL000000004K00000000000000000010306242015064153S022000000000U40       000010400K 10000000010000000000           
CUS0421040000104174682007         MAYOR AND CITY COUNC2738 TIVOLY AVE                         000N        CARE OF             
MTR04210400001000000000000000RA              99999999    005800880000008800000620000003NN  NNW 000                       N    
RDG04210400WATRL000000004K00000000000000000010406242015064156S022000000000U40       000030400K 10000000010000001929           
CUS0421040000104174685000         MAYOR AND CITY COUNC2732 TIVOLY AVE                         000N        CARE OF             
MTR04210400001000000000000000RA              99999999    005800890000008900000620000003NN  NNW 000   FERRULE APPLIED     N    
RDG04210400WATRL000000004K00000000000000000010506242015064157S022000000000U40       000010400K 10000000010000000000           
CUS0421040000104174686008         MAYOR AND CITY COUNC2730 TIVOLY AVE                         000N        CARE OF             
MTR04210400001000000000000000RA              99999999    005800900000009000000620000003NN  NNW 000   FERRULE APPLIED     N    
RDG04210400WATRL000000004K00000000000000000010606242015064159S022000000000U40       000020400K 10000000010000000000           
CUS0421040000104174688004         MAYOR AND CITY COUNC2726 TIVOLY AVE                         000N        CARE OF             
MTR04210400001000000000000000RA              99999999    005800910000009100000620000003NN  NNW 000   FERRULE APPLIED     N    
RDG04210400WATRL000000004K00000000000000000010706242015064201S022000000000U40       000020400K 10000000010000000000           
CUS0421040000104174689002         MAYOR & CITY COUNCIL2724 TIVOLY AVE                         000N        CARE OF             
MTR04210400001000000000000000RA              99999999    005800920000009200000620000003NN  NNW 000   FERRULE APPLIED     N    
RDG04210400WATRL000000004K00000000000000000010806242015064203S022000000000U40       000020400K 10000000010000000000           
CUS0421040000104174690000         MAYOR & CITY COUNCIL2722 TIVOLY AVE                         000N        CARE OF             
MTR04210400001000000000000000RA              99999999    005800930000009300000620000003NN  NNW 000   FERRULE APPLIED     N    
RDG04210400WATRL000000004K00000000000000000010906242015064205S022000000000U40       000020400K 10000000010000005107           
CUS0421040000104174691008         MAYOR AND CITY COUNC2720 TIVOLY AVE                         000N        CARE OF             
MTR04210400001000000000000000RA              99999999    005800940000009400000620000003NN  NNW 000   FERRULE APPLIED     N    
RDG04210400WATRL000000004K00000000000000000011006242015064207S022000000000U40       000020400K 10000000010000004683           
CUS0421040000104174692006         MAYOR & CITY COUNCIL2718 TIVOLY AVE                         000N        CARE OF             
MTR04210400001000000000000000RA              99999999    005800950000009500000620000003NN  NNW 000   FERRULE APPLIED     N    
RDG04210400WATRL000000004K00000000000000000011106242015064209S022000000000U40       000020400K 10000000010000000000           
CUS0421040000104174696007         MAYOR AND CITY COUNC2710 TIVOLY AVE                         000N        CARE OF             
MTR04210400001000000000000000RA              99999999    005800960000009600000620000003NN  NNW 000   FERRULE APPLIED     N    
RDG04210400WATRL000000004K00000000000000000011206242015064211S022000000000U40       000020400K 10000000010000000000           
CUS0421040000104174697005         MAYOR AND CITY COUNC2708 TIVOLY AVE                         000N        CARE OF             
MTR04210400001000000000000000RA              99999999    005800970000009700000620000003NN  NNW 000   FERRULE APPLIED     N    
RDG04210400WATRL000000004K00000000000000000011306242015064213S022000000000U40       000020400K 10000000010000004423           
CUS0421040000104174698003         MAYOR AND CITY COUNC2706 TIVOLY AVE                         000N        CARE OF             
MTR04210400001000000000000000RA              99999999    005800980000009800000620000003NN  NNW 000   FERRULE APPLIED     N    
RDG04210400WATRL000000004K00000000000000000011406242015064215S022000000000U40       000020400K 10000000010000001214           
CUS0421040000104174699001         MAYOR AND CITY COUNC2704 TIVOLY AVE                         000N        CARE OF             
MTR04210400001000000000000000RA              99999999    005800990000009900000620000003NN  NNW 000   FERRULE APPLIED     N    
RDG04210400WATRL000000004K00000000000000000011506242015064217S022000000000U40       000020400K 10000000010000000222           
CUS0421040000104174700007         REDD JR., ROY C.    2702 TIVOLY AVE                         000N        CARE OF             
MTR04210400001000000000000000RA              99999999    005801000000010000000620000003NN  NNW 000   FERRULE APPLIED     N    
RDG04210400WATRL000000004K00000000000000000011606242015064219S022000000000U40       000020400K 10000000010000000000           
CUS0421040000104174701005         MAYOR & CITY COUNCIL2700 TIVOLY AVE                         000N        CARE OF             
MTR04210400001000000000000000RA              99999999    007501010000010100000620000003NN  NNW 000   FERRULE APPLIED     N    
RDG04210400WATRL000000004K00000000000000000011706242015064221S022000000000U40       000020400K 10000000010000000000           
CUS0421040000104174702003         CHURCH, STEPHEN C.  2826 HARFORD RD                         000N        CARE OF             
MTR04210400001000000000000000RA              30528591    007501020000010200000520000003NN  NNW 000                       N    
RDG04210400WATRL000000004K00000000000004546000606242015060923N000000000000U40       000170400K 10000000010000004542           
CUS0421040000104174703001         STELL, PEARL        2824 HARFORD RD                         000N        CARE OF             
MTR04210400001000000000000000RA              10008603    005801030000010300000570000003NN  NNW 000                       N    
RDG04210400WATRL000000004K00000000000000248000806242015061104N000000000000U40       000500400K 10000000010000000241           
CUS0421040000104174704009         COLEMAN, CHRISTY A. 2822 HARFORD RD                         000N        CARE OF             
MTR04210400001000000000000000RA              24624783    007501040000010400000520000003NN  NNW 000                       N    
RDG04210400WATRL000000004K00000000000006106002506242015061643N000000000000U40       000170400K 10000000010000006079           
CUS0421040000104174705006         KNIGHT, JAMES H     2820 HARFORD RD                         000N        CARE OF             
MTR04210400001000000000000000RA              44030154    007501050000010500000520000003NN  NNW 000                       N    
RDG04210400WATRL000000004K00000000000001526002406242015061626N000000000000U40       000210400K 10000000010000001514           
CUS0421040000104174706004         WENDY R JUSTICE     2818 HARFORD RD                         000N        CARE OF             
MTR04210400001000000000000000RA              10023074    005801060000010600000570000003NN  NNW 000                       N    
RDG04210400WATRL000000004K00000000000000154002206242015061603N000000000000U40       000360400K 10000000010000000142           
CUS0421040000104174707002         FEDERAL NATIONAL MOR2816 HARFORD RD                         000N        CARE OF             
MTR04210400001000000000000000RA              10023076    005801070000010700000570000003NN  NNW 000                       N    
RDG04210400WATRL000000004K00000000000000229002306242015061605N000000000000U40       000020400K 10000000010000000229           
CUS0421040000104174708000         FIRST CHOICE PROPERT2814 HARFORD RD                         000N        CARE OF             
MTR04210400001000000000000000RA              77894152    007501080000010800000360000003NN  NNW 000                       N    
RDG04210400WATRL000000004K00000000000000000000906242015061142S001000000000U40       000380400K 10000000010000000000           
CUS0421040000104174709008         ROOSEVELT LONGSHORE 2812 HARFORD RD                         000N        CARE OF             
MTR04210400001000000000000000RA              00118823    007501090000010900000570000003NN  NNW 000                       N    
RDG04210400WATRL000000004K00000000000000991001006242015061202N000000000000U40       000200400K 10000000010000000978           
CUS0421040000104174710006         BROWN, KEISUE       2810 HARFORD RD                         000N        CARE OF             
MTR04210400001000000000000000RA              30248951    007501100000011000000520000003NN  NNW 000                       N    
RDG04210400WATRL000000004K00000000000004956001106242015061237N000300000010U40       000350400K 10000000010000004762           
CUS0421040000104174711004         JOBES, RICARDO A    2808 HARFORD RD                         000N        CARE OF             
MTR04210400001000000000000000RA              00118227    007501110000011100000570000003NN  NNW 000                       N    
RDG04210400WATRL000000004K00000000000001008001206242015061253N000000000000U40       000160400K 10000000010000001000           
CUS0421040000104174712002         BLOUNT, THOMAS      2806 HARFORD RD                         000N        CARE OF             
MTR04210400001000000000000000RA              30002304    007501120000011200000570000003NN  NNW 000                       N    
RDG04210400WATRL000000004K00000000000000232001306242015061326N000000000000U40       000330400K 10000000010000000211           
CUS0421040000104174713000         HOSSINI, SHAHEEN K  2804 HARFORD RD                         000N        CARE OF             
MTR04210400001000000000000000RA              00118226    007501130000011300000570000003NN  NNW 000                       N    
RDG04210400WATRL000000004K00000000000001392001406242015061348N000000000000U40       000220400K 10000000010000001376           
CUS0421040000104174714008         YOUNG, MINNIE D. (LI2802 HARFORD RD                         000N        CARE OF             
MTR04210400001000000000000000RA              01093277    005801140000011400000610000003NN  NNW 000                       N    
RDG04210400WATRL000000004K00000000000002515001506242015061426N000400000010U40       000380400K 10000000010000002506           
CUS0421040000104174715005         JACQUELINE OFFICER  2800 HARFORD RD                         000N        CARE OF             
MTR04210400001000000000000000RA              35100217    007501150000011500000520000003NN  NNW 000                       N    
RDG04210400WATRL000000004K00000000000006012001606242015061501N000000000000U40       000350400K 10000000010000005939           
CUS0421040000104173483001         CATHERINE A WATERS  3201 INDEPENDENCE ST                    000N        CARE OF             
MTR04210400001000000000000000RA              41075058    005801160000011600000520000003NN  NNW 000   VACANT PROPERTY     N    
RDG04210400WATRL000000004K00000000000001105001706242015061514N000000000000U40       000130400K 10000000010000001105           
CUS0421040000104173484009         WEBER, JOSEPH FREDER3203 INDEPENDENCE ST                    000N        CARE OF             
MTR04210400001000000000000000RA              41075112    005801170000011700000520000003NN  NNW 000                       N    
RDG04210400WATRL000000004K00000000000000331001806242015061517N000000000000U40       000030400K 10000000010000000331           
CUS0421040000104173485006         CHAVIS, ALONZO D    3205 INDEPENDENCE ST                    000N        CARE OF             
MTR04210400001000000000000000RA              41075069    005801180000011800000520000003NN  NNW 000                       N    
RDG04210400WATRL000000004K00000000000001385001906242015061521N000000000000U40       000040400K 10000000010000001385           
CUS0421040000104173486004         EDGEHILL, GILLIAN   3207 INDEPENDENCE ST                    000N        CARE OF             
MTR04210400001000000000000000RA              41086671    005801190000011900000520000003NN  NNW 000                       N    
RDG04210400WATRL000000004K00000000000001791002006242015061524N000000000000U40       000030400K 10000000010000001791           
CUS0421040000104173487002         CHAVIS, ALONZO D    3209 INDEPENDENCE ST                    000N        CARE OF             
MTR04210400001000000000000000RA              45386337    005801200000012000000520000003NN  NNW 000                       N    
RDG04210400WATRL000000004K00000000000002293002106242015061527N000000000000U40       000030400K 10000000010000002293           
CUS0421040000104384775005         UNITED CHURCH OF JES928 GORSUCH AVE                         000N        CARE OF             
MTR04210400001000000000000000RA              48591574    005801210000012100000520000000NN  NNW 000                       N    
RDG04210400WATRL000000004K00000000000001800011906242015064814N000400000010U40       000490400K 10000000010000001799           
CUS0421040000104425306000         UNITED CHURCH OF JES934 GORSUCH AVE                         000N        CARE OF             
MTR04210400001000000000000000RA              99258909    000101220000012200000570000003NN  NNW 000                       N    
RDG04210400WATRL000000004K00000000000000925011806242015064725N000000000000U40       003040400K 10000000010000000913           
CUS0421040000104367420009         PAIGE JR., DON E    926 GORSUCH AVE                         000N        CARE OF             
MTR04210400001000000000000000RA              45373758    005801230000012300000520000000NN  NNW 000                       N    
RDG04210400WATRL000000004K00000000000002426012006242015064832N000100000010U40       000180400K 10000000010000002426           
CUS0421040000104173490006         MCCARTY, JUDY       924 GORSUCH AVE                         000N        CARE OF             
MTR04210400001000000000000000RA              74689609    005801240000012400000350000003NN  NNW 000                       N    
RDG04210400WATRL000000004K00000000000000151012106242015064906N000000000000U40       000340400K 10000000010000000137           
CUS0421040000104173491004         MCLANE, JAMES       922 GORSUCH AVE                         000N        CARE OF             
MTR04210400001000000000000000RA              30523135    005801250000012500000520000003NN  NNW 000                       N    
RDG04210400WATRL000000004K00000000000001877012206242015064938N000400000010U40       000320400K 10000000010000001872           
CUS0421040000104173492002         ROBINSON, EDWARD C  920 GORSUCH AVE                         000N        CARE OF             
MTR04210400001000000000000000RA              01090027    005801260000012600000610000003NN  NNW 000                       N    
RDG04210400WATRL000000004K00000000000000671012306242015064941N000000000000U40       000030400K 10000000010000000660           
CUS0421040000104173493000         IRONS, SHARON H.    918 GORSUCH AVE                         000N        CARE OF             
MTR04210400001000000000000000RA              52289522    005801270000012700000520000003NN  NNW 000                       N    
RDG04210400WATRL000000004K00000000000000484012406242015065007N000000000000U40       000260400K 10000000010000000464           
CUS0421040000104173494008         LUCILLE HONEYBLUE   916 GORSUCH AVE                         000N        CARE OF             
MTR04210400001000000000000000RA              27830996    005801280000012800000520000003NN  NNW 000                       N    
RDG04210400WATRL000000004K00000000000004074012506242015065012N000000000000U40       000050400K 10000000010000004063           
CUS0421040000104173495005         GINYARD, PATRICIA   914 GORSUCH AVE                         000N        CARE OF             
MTR04210400001000000000000000RA              99387074    005801290000012900000570000003NN  NNW 000                       N    
RDG04210400WATRL000000004K00000000000001081012606242015065037N000000000000U40       000250400K 10000000010000001053           
CUS0421040000104173496003         WILLIAMS, ARTHUR E. 912 GORSUCH AVE                         000N        CARE OF             
MTR04210400001000000000000000RA              99389904    005801300000013000000570000003NN  NNW 000                       N    
RDG04210400WATRL000000004K00000000000001682012706242015065104N000400000010U40       000270400K 10000000010000001671           
CUS0421040000104173497001         DIXON, THOMAS H.    910 GORSUCH AVE                         000N        CARE OF             
MTR04210400001000000000000000RA              40780070    005801310000013100000520000003NN  NNW 000                       N    
RDG04210400WATRL000000004K00000000000000641012806242015065126N000400000010U40       000220400K 10000000010000000627           
CUS0421040000104173498009         HYLTON, SIDONEY     908 GORSUCH AVE                         000N        CARE OF             
MTR04210400001000000000000000RA              10008681    005801320000013200000570000003NN  NNW 000                       N    
RDG04210400WATRL000000004K00000000000000193012906242015065145N000000000000U40       000190400K 10000000010000000176           
CUS0421040000104173499007         GOODMAN, SEIBEN     906 GORSUCH AVE                         000N        CARE OF             
MTR04210400001000000000000000RA              38886789    005801330000013300000520000003NN  NNW 000                       N    
RDG04210400WATRL000000004K00000000000001781013006242015065209N000400000010U40       000240400K 10000000010000001773           
CUS0421040000104173500002         CASSANDRA L LEWIS   904 GORSUCH AVE                         000N        CARE OF             
MTR04210400001000000000000000RA              14902303    005801340000013400000310000003NN  NNW 000                       N    
RDG04210400WATRL000000004K00000000000000824013106242015065228N000000000000U40       000190400K 10000000010000000809           
CUS0421040000104173501000         TURNER, BENJAMIN L. 902 GORSUCH AVE                         000N        CARE OF             
MTR04210400001000000000000000RA              41089897    007501350000013500000520000003NN  NNW 000                       N    
RDG04210400WATRL000000004K00000000000003337013206242015065256N000000000000U40       000280400K 10000000010000003317           
CUS0421040000104381586009         WORD OF TRUTH TABERN822 GORSUCH AVE                         000N        CARE OF             
MTR04210400001000000000000000RA              99387076    005801360000013600000570000003NN  NNW 000                       N    
RDG04210400WATRL000000004K00000000000000181013306242015065340N000000000000U40       000440400K 10000000010000000180           
CUS0421040000104381585001         WORD OF TRUTH TABERN820 GORSUCH AVE                         000N        CARE OF             
MTR04210400001000000000000000RA              45386692    005801370000013700000520000003NN  NNW 000   VACANT PROPERTY     N    
RDG04210400WATRL000000004K00000000000000000013406242015065342N000000000000U40       000020400K 10000000010000000000           
CUS0421040000104173502008         WORD OF TRUTH TABERN818 GORSUCH AVE                         000N        CARE OF             
MTR04210400001000000000000000RA              39080294    007501380000013800000520000003NN  NNW 000                       N    
RDG04210400WATRL000000004K00000000000000724013506242015065405N000000000000U40       000230400K 10000000010000000724           
CUS0421040000104173503006         BUSCHING, SHARON K  816 GORSUCH AVE                         000N        CARE OF             
MTR04210400001000000000000000RA              99999999    007501390000013900000620000003NN  NNW 000                       N    
RDG04210400WATRL000000004K00000000000000000013606242015065433S022000000000U40       000280400K 10000000010000003063           
CUS0421040000104173504004         CHAVIS, ALONZO D    814 GORSUCH AVE                         000N        CARE OF             
MTR04210400001000000000000000RA              26074247    007501400000014000000520000003NN  NNW 000                       N    
RDG04210400WATRL000000004K00000000000002171013706242015065454N000100000010U40       000210400K 10000000010000002171           
CUS0421040000104173505001         ANTHONY-WILLIAMS, DA812 GORSUCH AVE                         000N        CARE OF             
MTR04210400001000000000000000RA              27833529    005801410000014100000520000003NN  NNW 000                       N    
RDG04210400WATRL000000004K00000000000002912013806242015065520N000000000000U40       000260400K 10000000010000002904           
CUS0421040000104173506009         JONES, LATANYA B.   810 GORSUCH AVE                         000N        CARE OF             
MTR04210400001000000000000000RA              76349751    007501420000014200000350000003NN  NNW 000                       N    
RDG04210400WATRL000000004K00000000000000044013906242015065544N000100000010U40       000240400K 10000000010000000044           
CUS0421040000104173507007         HALLE, PATRICIA     808 GORSUCH AVE                         000N        CARE OF             
MTR04210400001000000000000000RA              52771393    007501430000014300000520000003NN  NNW 000                       N    
RDG04210400WATRL000000004K00000000000001405014006242015065645N000000000000U40       000610400K 10000000010000001394           
CUS0421040000104173508005         DENNIS PRADHAM      806 GORSUCH AVE                         000N        CARE OF             
MTR04210400001000000000000000RA              99308983    007501440000014400000570000003NN  NNW 000   VACANT PROPERTY     N    
RDG04210400WATRL000000004K00000000000000000014106242015065656N000000000000U40       000110400K 10000000010000000000           
CUS0421040000104173509003         TALIEFERRO, PABLO J 804 GORSUCH AVE                         000N        CARE OF             
MTR04210400001000000000000000RA              99412152    007501450000014500000570000003NN  NNW 000                       N    
RDG04210400WATRL000000004K00000000000000388014206242015065743N000000000000U40       000470400K 10000000010000000383           
CUS0421040000104173510001         GOODMAN, STEPHEN    802 GORSUCH AVE                         000N        CARE OF             
MTR04210400001000000000000000RA              00117821    007501460000014600000570000003NN  NNW 000                       N    
RDG04210400WATRL000000004K00000000000000674014306242015065809N000000000000U40       000260400K 10000000010000000664           
CUS0421040000104173511009         MEERON, RUTH A      800 GORSUCH AVE                         000N        CARE OF             
MTR04210400001000000000000000RA              28765559    007501470000014700000520000003NN  NNW 000                       N    
RDG04210400WATRL000000004K00000000000000542014406242015065834N000000000000U40       000250400K 10000000010000000537           
CUS0421040000104173512007         MULLAN, CATHERINE   720 GORSUCH AVE                         000N        CARE OF             
MTR04210400001000000000000000RA              00117823    007501480000014800000570000003NN  NNW 000                       N    
RDG04210400WATRL000000004K00000000000001025014506242015065910N000000000000U40       000360400K 10000000010000001015           
CUS0421040000104173513005         BARRETT, JUDITH     718 GORSUCH AVE                         000N        CARE OF             
MTR04210400001000000000000000RA              33731448    007501490000014900000520000003NN  NNW 000                       N    
RDG04210400WATRL000000004K00000000000000936014606242015065943N000400000010U40       000330400K 10000000010000000935           
CUS0421040000104173514003         ULTIMATE HOME BUYERS716 GORSUCH AVE                         000N        CARE OF             
MTR04210400001000000000000000RA              30000625    007501500000015000000570000003NN  NNW 000                       N    
RDG04210400WATRL000000004K00000000000000079014706242015065957N000000000000U40       000140400K 10000000010000000079           
CUS0421040000104173515000         SPELLEN, SANDRA M.  714 GORSUCH AVE                         000N        CARE OF             
MTR04210400001000000000000000RA              35100504    007501510000015100000520000003NN  NNW 000                       N    
RDG04210400WATRL000000004K00000000000000569014806242015070138N000000000031U40       000230400K 10000000010000009787           
CUS0421040000104173516008         BRIDGES, JASON W    712 GORSUCH AVE                         000N        CARE OF             
MTR04210400001000000000000000RA              52771368    007501520000015200000520000003NN  NNW 000                       N    
RDG04210400WATRL000000004K00000000000002059014906242015070237N000000000000U40       000590400K 10000000010000002048           
CUS0421040000104173517006         MASKEN, DONALD E    710 GORSUCH AVE                         000N        CARE OF             
MTR04210400001000000000000000RA              00117826    007501530000015300000570000003NN  NNW 000   VACANT PROPERTY     N    
RDG04210400WATRL000000004K00000000000000057015006242015070246N000000000000U40       000090400K 10000000010000000057           
CUS0421040000104173518004         KLEIN, JAY          708 GORSUCH AVE                         000N        CARE OF             
MTR04210400001000000000000000RA              35099113    005801540000015400000520000003NN  NNW 000                       N    
RDG04210400WATRL000000004K00000000000002271015106242015070313N000000000000U40       000270400K 10000000010000002267           
CUS0421040000104173519002         PUMPHREY, CHRIS     706 GORSUCH AVE                         000N        CARE OF             
MTR04210400001000000000000000RA              29684851    005801550000015500000520000003NN  NNW 000                       N    
RDG04210400WATRL000000004K00000000000002528015206242015070410N000000000000U40       000570400K 10000000010000002518           
CUS0421040000104173520000         AKYEREKO, BETH-SHERR704 GORSUCH AVE                         000N        CARE OF             
MTR04210400001000000000000000RA              00117825    007501560000015600000570000003NN  NNW 000                       N    
RDG04210400WATRL000000004K00000000000001696015306242015070445N000000000000U40       000350400K 10000000010000001651           
CUS0421040000104173521008         WILSON, DEBORAH (ETA702 GORSUCH AVE                         000N        CARE OF             
MTR04210400001000000000000000RA              41193599    007501570000015700000520000003NN  NNW 000                       N    
RDG04210400WATRL000000004K00000000000003286015606242015070724N000000000000U40       000630400K 10000000010000003265           
CUS0421040000104173522006         ANGELA M HUNTER     3201 FRISBY ST                          000N        CARE OF             
MTR04210400001000000000000000RA              14923639    005801580000015800000310000003NN  NNW 000                       N    
RDG04210400WATRL000000004K00000000000000831015706242015070752N000000000000U40       000280400K 10000000010000000823           
CUS0421040000104173523004         HUNTER, ANGELA      3203 FRISBY ST                          000N        CARE OF             
MTR04210400001000000000000000RA              01115797    005801590000015900000610000003NN  NNW 000                       N    
RDG04210400WATRL000000004K00000000000000745015806242015070808N000000000000U40       000160400K 10000000010000000738           
CUS0421040000104173524002         CAMPBELL, SARAH M   3205 FRISBY ST                          000N        CARE OF             
MTR04210400001000000000000000RA              14913370    005801600000016000000310000003NN  NNW 000                       N    
RDG04210400WATRL000000004K00000000000000344015906242015070910N000000000000U40       000620400K 10000000010000000340           
CUS0421040000104173525009         JIN YUEN LEE        3207 FRISBY ST                          000N        CARE OF             
MTR04210400001000000000000000RA              48593250    005801610000016100000520000003NN  NNW 000                       N    
RDG04210400WATRL000000004K00000000000000677016006242015070939N000000000000U40       000290400K 10000000010000000675           
CUS0421040000104173526007         ISLER, MICHAEL      3209 FRISBY ST                          000N        CARE OF             
MTR04210400001000000000000000RA              01114628    005801620000016200000610000003NN  NNW 000                       N    
RDG04210400WATRL000000004K00000000000000214016106242015071000N000000000000U40       000210400K 10000000010000000211           
CUS0421040000104173527005         EMBRY, ELIZABETH    644 GORSUCH AVE                         000N        CARE OF             
MTR04210400001000000000000000RA              35105954    007501630000016300000520000003NN  NNW 000                       N    
RDG04210400WATRL000000004K00000000000005077015506242015070621N000000000000U40       000140400K 10000000010000005069           
CUS0421040000104173528003         DIEMERT, DUSTIN M   642 GORSUCH AVE                         000N        CARE OF             
MTR04210400001000000000000000RA              00118735    007501640000016400000570000003NN  NNW 000                       N    
RDG04210400WATRL000000004K00000000000001494015406242015070607N000000000000U40       000820400K 10000000010000001475           
CUS0421040000104173535008         ALBEREE LTD.        3225 GREENMOUNT AVE                     000N        CARE OF             
MTR04210400001000000000000000RA              01105220    001501650000016500000610000003NN  NNW 000                       N    
RDG04210400WATRL000000005K00000000000000730018706242015074012N000300000010U40       010350500K 10000000010000000779           
CUS0421040000104173538002         TERRY TRIMBLE       701 E 33RD ST                           000N        CARE OF             
MTR04210400001000000000000000RA              14906224    005801660000016600000310000003NN  NNW 000                       N    
RDG04210400WATRL000000004K00000000000000753016206242015071058N000000000000U40       000580400K 10000000010000000740           
CUS0421040000104173539000         BRENDA E JOHNSON    703 E 33RD ST                           000N        CARE OF             
MTR04210400001000000000000000RA              01102306    005801670000016700000610000003NN  NNW 000                       N    
RDG04210400WATRL000000004K00000000000000574016306242015071124N000000000000U40       000260400K 10000000010000000564           
CUS0421040000104173540008         EPPS, DELORES A     705 E 33RD ST                           000N        CARE OF             
MTR04210400001000000000000000RA              01101669    005801680000016800000610000003NN  NNW 000                       N    
RDG04210400WATRL000000004K00000000000002109016406242015071202N000400000010U40       000380400K 10000000010000002091           
CUS0421040000104173541006         HVF, LLC            707 E 33RD ST                           000N        CARE OF             
MTR04210400001000000000000000RA              01101480    005801690000016900000610000003NN  NNW 000                       N    
RDG04210400WATRL000000004K00000000000001380016506242015071215N000000000000U40       000130400K 10000000010000001354           
CUS0421040000104173542004         WILLIS, LENDORA   (L709 E 33RD ST                           000N        CARE OF             
MTR04210400001000000000000000RA              14930873    005801700000017000000310000003NN  NNW 000                       N    
RDG04210400WATRL000000004K00000000000000534016606242015071240N000000000000U40       000250400K 10000000010000000525           
CUS0421040000104173543002         TUCKER, ANGELA M.   711 E 33RD ST                           000N        CARE OF             
MTR04210400001000000000000000RA              44172462    005801710000017100000520000003NN  NNW 000                       N    
RDG04210400WATRL000000004K00000000000001445016706242015071252N000000000000U40       000120400K 10000000010000001436           
CUS0421040000104173544000         CARRINGTON, THERESA 713 E 33RD ST                           000N        CARE OF             
MTR04210400001000000000000000RA              36690123    005801720000017200000520000003NN  NNW 000                       N    
RDG04210400WATRL000000004K00000000000002210016806242015071313N000000000000U40       000210400K 10000000010000002203           
CUS0421040000104173545007         WARREN, GARETH      715 E 33RD ST                           000N        CARE OF             
MTR04210400001000000000000000RA              14919339    005801730000017300000310000003NN  NNW 000                       N    
RDG04210400WATRL000000004K00000000000000433016906242015071323N000000000000U40       000100400K 10000000010000000421           
CUS0421040000104173546005         WUBISHET, GIRMA     801 E 33RD ST                           000N        CARE OF             
MTR04210400001000000000000000RA              76349341    005801740000017400000350000003NN  NNW 000   VACANT PROPERTY     N    
RDG04210400WATRL000000004K00000000000000000017006242015071334N000000000000U40       000110400K 10000000010000000000           
CUS0421040000104173547003         STAINBACK, DORIS (LI803 E 33RD ST                           000N        CARE OF             
MTR04210400001000000000000000RA              10023609    005801750000017500000570000003NN  NNW 000                       N    
RDG04210400WATRL000000004K00000000000000165017106242015071413N000000000000U40       000390400K 10000000010000000155           
CUS0421040000104173548001         NJH INVESTMENTS, LLC805 E 33RD ST                           000N        CARE OF             
MTR04210400001000000000000000RA              10022302    005801760000017600000570000003NN  NNW 000                       N    
RDG04210400WATRL000000004K00000000000000202017206242015071445N000000000000U40       000320400K 10000000010000000185           
CUS0421040000104173549009         BRENT, GEORGE E     807 E 33RD ST                           000N        CARE OF             
MTR04210400001000000000000000RA              01116001    005801770000017700000610000003NN  NNW 000                       N    
RDG04210400WATRL000000004K00000000000000571017306242015071508N000000000000U40       000230400K 10000000010000000560           
CUS0421040000104173550007         WACK, CRYSTAL DAWN  809 E 33RD ST                           000N        CARE OF             
MTR04210400001000000000000000RA              01114846    005801780000017800000610000003NN  NNW 000                       N    
RDG04210400WATRL000000004K00000000000000801017406242015071516N000000000000U40       000080400K 10000000010000000792           
CUS0421040000104173551005         UPSHAW, JASON       811 E 33RD ST                           000N        CARE OF             
MTR04210400001000000000000000RA              99387281    005801790000017900000570000003NN  NNW 000                       N    
RDG04210400WATRL000000004K00000000000002629017506242015071616N000000000000U40       000600400K 10000000010000002576           
CUS0421040000104173552003         NELSON-BERRY INVESTM813 E 33RD ST                           000N        CARE OF             
MTR04210400001000000000000000RA              46880018    005801800000018000000520000003NN  NNW 000                       N    
RDG04210400WATRL000000004K00000000000002856017606242015071756N000400000010U40       001000400K 10000000010000002855           
CUS0421040000104173553001         CROSSWELL, JR., JERO815 E 33RD ST                           000N        CARE OF             
MTR04210400001000000000000000RA              27833716    005801810000018100000520000003NN  NNW 000                       N    
RDG04210400WATRL000000004K00000000000004086017706242015071822N000100000010U40       000260400K 10000000010000004086           
CUS0421040000104173554009         JOYCE WARD          817 E 33RD ST                           000N        CARE OF             
MTR04210400001000000000000000RA              52770836    005801820000018200000520000003NN  NNW 000                       N    
RDG04210400WATRL000000004K00000000000000566017806242015071951N000000000000U40       000890400K 10000000010000000555           
CUS0421040000104173555006         LEWIS, ALECIA       819 E 33RD ST                           000N        CARE OF             
MTR04210400001000000000000000RA              01087025    005801830000018300000610000003NN  NNW 000                       N    
RDG04210400WATRL000000004K00000000000000354017906242015072005N000000000000U40       000140400K 10000000010000000350           
CUS0421040000104173556004         GARBER, PRINCE ALFRE821 E 33RD ST                           000N        CARE OF             
MTR04210400001000000000000000RA              46889719    007501840000018400000520000003NN  NNW 000                       N    
RDG04210400WATRL000000004K00000000000002304018006242015072031N000000000000U40       000260400K 10000000010000002264           
CUS0421040000104173557002         DENISHA SALLIEY     823 E 33RD ST                           000N        CARE OF             
MTR04210400001000000000000000RA              19460602    005801850000018500000520000003NN  NNW 000                       N    
RDG04210400WATRL000000004K00000000000004767018106242015072052N000000000000U40       000210400K 10000000010000004758           
CUS0421040000104173558000         NAC, LLC            825 E 33RD ST                           000N        CARE OF             
MTR04210400001000000000000000RA              01109276    005801860000018600000610000003NN  NNW 000                       N    
RDG04210400WATRL000000004K00000000000001037018206242015072130N000000000000U40       000380400K 10000000010000001012           
CUS0421040000104173559008         ELENA PLANTAJANET   827 E 33RD ST                           000N        CARE OF             
MTR04210400001000000000000000RA              01109278    005801870000018700000610000003NN  NNW 000                       N    
RDG04210400WATRL000000004K00000000000000555018306242015072152N000000000000U40       000220400K 10000000010000000543           
CUS0421040000104173560006         GREGORY HEWLETT & WF829 E 33RD ST                           000N        CARE OF             
MTR04210400001000000000000000RA              99389899    005801880000018800000570000003NN  NNW 000                       N    
RDG04210400WATRL000000004K00000000000001520018406242015072216N000400000010U40       000240400K 10000000010000001503           
CUS0421040000104173561004         BRANCH, HAZEL R (LIF831 E 33RD ST                           000N        CARE OF             
MTR04210400001000000000000000RA              99387282    005801890000018900000570000003NN  NNW 000                       N    
RDG04210400WATRL000000004K00000000000001712018506242015072236N000000000000U40       000200400K 10000000010000001704           
CUS0421040000104173562002         BRADFORD, ROSE E.   833 E 33RD ST                           000N        CARE OF             
MTR04210400001000000000000000RA              01097792    005801900000019000000610000003NN  NNW 000                       N    
RDG04210400WATRL000000004K00000000000000632018606242015072257N000000000000U40       000210400K 10000000010000000620           
RTR04210400NN01900190000001900000000001900190000090NY019001900190000000580000000000000000000001    06182015NY020000 N         
RHD04212700NN02460246000002460000000002460246000094NY024602460246000400100000000000000000000001    06102015NY020000 N         
CUS0421270000104176099002         DAVID, ANDRE M      401 SOUTHWAY                            000N        CARE OF             
MTR04212700001000000000000000RA              26191926    007500010000000100000520000003NN  NNW 000                       N    
RDG04212700WATRL000000004K00000000000004618000106232015060820N000000000000N40       000000400K 10000000010000004618           
CUS0421270000104176100008         BROWN, BETHANY JANE 403 SOUTHWAY                            000N        CARE OF             
MTR04212700001000000000000000RA              31086455    007500020000000200000520000003NN  NNW 000                       N    
RDG04212700WATRL000000004K00000000000002067000206232015060853N000000000000N40       000330400K 10000000010000002049           
CUS0421270000104176101006         SUTTON, MICHAEL G.  405 SOUTHWAY                            000N        CARE OF             
MTR04212700001000000000000000RA              26375629    007500030000000300000520000003NN  NNW 000                       N    
RDG04212700WATRL000000004K00000000000000000000306232015060855S005000000000U40       000020400K 10000000010000001915           
CUS0421270000104176102004         WHITE, WILEY W.     407 SOUTHWAY                            000N        CARE OF             
MTR04212700001000000000000000RA              00120303    007500040000000400000570000003NN  NNW 000                       N    
RDG04212700WATRL000000004K00000000000001088000406232015060942N000000000000N40       000470400K 10000000010000001069           
CUS0421270000104176103002         SHELTON, ANGELA D   409 SOUTHWAY                            000N        CARE OF             
MTR04212700001000000000000000RA              35109920    005800050000000500000520000003NN  NNW 000                       N    
RDG04212700WATRL000000004K00000000000001855000506232015061041N000000000000N40       000590400K 10000000010000001843           
CUS0421270000104176104000         STOCKLEY III, ALBERT411 SOUTHWAY                            000N        CARE OF             
MTR04212700001000000000000000RA              99411615    007500060000000600000570000003NN  NNW 000                       N    
RDG04212700WATRL000000004K00000000000000719000606232015061120N000000000000N40       000390400K 10000000010000000696           
CUS0421270000104176105007         MEYER, MEGAN        413 SOUTHWAY                            000N        CARE OF             
MTR04212700001000000000000000RA              99411618    007500070000000700000570000003NN  NNW 000                       N    
RDG04212700WATRL000000004K00000000000000920000706232015061122N000000000000N40       000020400K 10000000010000000909           
CUS0421270000104176106005         BALTRENTALS DOT COM 415 SOUTHWAY                            000N        CARE OF             
MTR04212700001000000000000000RA              35100497    007500080000000800000520000003NN  NNW 000                       N    
RDG04212700WATRL000000004K00000000000003189000806232015061141N000000000000N40       000190400K 10000000010000003189           
CUS0421270000104176107003         RO, MYUNG DUCK      417 SOUTHWAY                            000N        CARE OF             
MTR04212700001000000000000000RA              00119504    007500090000000900000570000003NN  NNW 000                       N    
RDG04212700WATRL000000004K00000000000000017000906232015061203N000000000000N40       000220400K 10000000010000000017           
CUS0421270000104176108001         NELSON, ALANNA R    419 SOUTHWAY                            000N        CARE OF             
MTR04212700001000000000000000RA              00119505    007500100000001000000570000003NN  NNW 000                       N    
RDG04212700WATRL000000004K00000000000001883001006232015061208N000400000010N40       000050400K 10000000010000001879           
CUS0421270000104176109009         KRAMER, LEIGH       421 SOUTHWAY                            000N        CARE OF             
MTR04212700001000000000000000RA              27678267    007500110000001100000520000003NN  NNW 000                       N    
RDG04212700WATRL000000004K00000000000002513001106232015061252N000000000000N40       000440400K 10000000010000002497           
CUS0421270000104176110007         DUK-HEE RO          423 SOUTHWAY                            000N        CARE OF             
MTR04212700001000000000000000RA              76349612    007500120000001200000350000003NN  NNW 000                       N    
RDG04212700WATRL000000004K00000000000000731001206232015061325N000300000010N40       000330400K 10000000010000000070           
CUS0421270000104176111005         SNAPP, JOHN R   (LIF3418 GREENMOUNT AVE                     000N        CARE OF             
MTR04212700001000000000000000RA              25781910    005800130000001300000520000003NN  NNW 000                       N    
RDG04212700WATRL000000004K00000000000000865001306232015061414N000000000000N40       000490400K 10000000010000000861           
CUS0421270000104176112003         SNAPP, JOHN R   (LIF3410-16 GREENMOUNT AVE                  000N        CARE OF             
MTR04212700001000000000000000RA              31345492    007500140000001400000520000003NN  NNW 000                       N    
RDG04212700WATRL000000004K00000000000001069001406232015061506N000300000010N40       000520400K 10000000010000000979           
CUS0421270000104176113001         BALTRENTALS DOT COM 428 CALVIN AVE                          000N        CARE OF             
MTR04212700001000000000000000RA              10006648    005800150000001500000570000003NN  NNW 000                       N    
RDG04212700WATRL000000004K00000000000000205001506232015061529N000300000010N40       000230400K 10000000010000000192           
CUS0421270000104176114009         PATRICIA SWEENEY    426 CALVIN AVE                          000N        CARE OF             
MTR04212700001000000000000000RA              50478176    005800160000001600000520000003NN  NNW 000                       N    
RDG04212700WATRL000000004K00000000000001860001606232015061545N000000000000N40       000160400K 10000000010000001838           
CUS0421270000104176115006         H & K HOMES, LLC    424 CALVIN AVE                          000N        CARE OF             
MTR04212700001000000000000000RA              10005150    005800170000001700000570000003NN  NNW 000   VACANT PROPERTY     N    
RDG04212700WATRL000000004K00000000000000000001706232015061549N000000000000N40       000040400K 10000000010000000000           
CUS0421270000104176116004         H & K HOMES, LLC    422 CALVIN AVE                          000N        CARE OF             
MTR04212700001000000000000000RA              01090057    005800180000001800000610000003NN  NNW 000                       N    
RDG04212700WATRL000000004K00000000000000327001806232015061606N000000000000N40       000170400K 10000000010000000327           
CUS0421270000104176117002         PARK, JASON         420 CALVIN AVE                          000N        CARE OF             
MTR04212700001000000000000000RA              10010237    005800190000001900000570000003NN  NNW 000                       N    
RDG04212700WATRL000000004K00000000000001159001906232015061641N000000000000N40       000350400K 10000000010000000368           
CUS0421270000104176118000         SYKES, DENISHA MONIQ418 CALVIN AVE                          000N        CARE OF             
MTR04212700001000000000000000RA              26007527    005800200000002000000520000003NN  NNW 000                       N    
RDG04212700WATRL000000004K00000000000002922002006232015061701N000000000000N40       000200400K 10000000010000002907           
CUS0421270000104176119008         PAUL/KATHLEEN BLAKE 416 CALVIN AVE                          000N        CARE OF             
MTR04212700001000000000000000RA              35110174    005800210000002100000520000003NN  NNW 000                       N    
RDG04212700WATRL000000004K00000000000001895002106232015061724N000000000000N40       000230400K 10000000010000001885           
CUS0421270000104176120006         NORMAN W DRENNING   414 CALVIN AVE                          000N        CARE OF             
MTR04212700001000000000000000RA              35116027    005800220000002200000520000003NN  NNW 000                       N    
RDG04212700WATRL000000004K00000000000002895002206232015061741N000000000010N40       000170400K 10000000010000002893           
CUS0421270000104176121004         MILLER, MICHAEL D   412 CALVIN AVE                          000N        CARE OF             
MTR04212700001000000000000000RA              30513033    005800230000002300000520000003NN  NNW 000                       N    
RDG04212700WATRL000000004K00000000000001436002306232015061801N000000000000N40       000200400K 10000000010000001424           
CUS0421270000104176122002         BANSAL, RAVI        410 CALVIN AVE                          000N        CARE OF             
MTR04212700001000000000000000RA              01099433    005800240000002400000610000003NN  NNW 000                       N    
RDG04212700WATRL000000004K00000000000000435002406232015061819N000000000000N40       000180400K 10000000010000000423           
CUS0421270000104176123000         SIEGERT, JASON      408 CALVIN AVE                          000N        CARE OF             
MTR04212700001000000000000000RA              52768765    005800250000002500000520000003NN  NNW 000                       N    
RDG04212700WATRL000000004K00000000000000854002506232015061832N000000000000N40       000130400K 10000000010000000850           
CUS0421270000104176124008         MARCIN, SARAH D     406 CALVIN AVE                          000N        CARE OF             
MTR04212700001000000000000000RA              24158876    005800260000002600000520000003NN  NNW 000                       N    
RDG04212700WATRL000000004K00000000000002743002606232015061852N000000000000N40       000200400K 10000000010000002736           
CUS0421270000104176125005         SLOAN, THOMAS J     404 CALVIN AVE                          000N        CARE OF             
MTR04212700001000000000000000RA              32176527    005800270000002700000520000003NN  NNW 000                       N    
RDG04212700WATRL000000004K00000000000002309002706232015061908N000000000000N40       000160400K 10000000010000002244           
CUS0421270000104176126003         CONNELLY, JAMES L   402 CALVIN AVE                          000N        CARE OF             
MTR04212700001000000000000000RA              01090051    005800280000002800000610000003NN  NNW 000                       N    
RDG04212700WATRL000000004K00000000000000282002806232015061924N000000000000N40       000160400K 10000000010000000277           
CUS0421270000104176127001         CAPLAN, AUDRA L     400 CALVIN AVE                          000N        CARE OF             
MTR04212700001000000000000000RA              14926750    005800290000002900000310000003NN  NNW 000                       N    
RDG04212700WATRL000000004K00000000000000739002906232015061946N000000000000N40       000220400K 10000000010000000725           
CUS0421270000104176128009         HORN, REX CALVIN    401 CALVIN AVE                          000N        CARE OF             
MTR04212700001000000000000000RA              26007528    005800300000003000000520000003NN  NNW 000                       N    
RDG04212700WATRL000000004K00000000000002922003006232015062012N000000000000N40       000260400K 10000000010000002901           
CUS0421270000104176129007         SCHULTHEIS, DOLORES 403 CALVIN AVE                          000N        CARE OF             
MTR04212700001000000000000000RA              46888191    005800310000003100000520000003NN  NNW 000                       N    
RDG04212700WATRL000000004K00000000000000358003106232015062028N000000000000N40       000160400K 10000000010000000341           
CUS0421270000104176130005         SMITH, MELINDA      405 CALVIN AVE                          000N        CARE OF             
MTR04212700001000000000000000RA              99388783    005800320000003200000570000003NN  NNW 000                       N    
RDG04212700WATRL000000004K00000000000000766003206232015062045N000000000000N40       000170400K 10000000010000000761           
CUS0421270000104176131003         RITTER, ABIGAIL M.  407 CALVIN AVE                          000N        CARE OF             
MTR04212700001000000000000000RA              32904527    005800330000003300000520000003NN  NNW 000                       N    
RDG04212700WATRL000000004K00000000000001449003306232015062100N000000000000N40       000150400K 10000000010000001442           
CUS0421270000104176132001         GARDNER, ADAM       409 CALVIN AVE                          000N        CARE OF             
MTR04212700001000000000000000RA              01090054    005800340000003400000610000003NN  NNW 000                       N    
RDG04212700WATRL000000004K00000000000000357003406232015062115N000400000010N40       000150400K 10000000010000000351           
CUS0421270000104176133009         TIVIA LLC           411 CALVIN AVE                          000N        CARE OF             
MTR04212700001000000000000000RA              35110132    005800350000003500000520000003NN  NNW 000                       N    
RDG04212700WATRL000000004K00000000000001751003506232015062129N000000000000N40       000140400K 10000000010000001751           
CUS0421270000104176134007         SCHUSTER, LANNY     413 CALVIN AVE                          000N        CARE OF             
MTR04212700001000000000000000RA              76347357    005800360000003600000350000003NN  NNW 000   VACANT PROPERTY     N    
RDG04212700WATRL000000004K00000000000000007003606232015062144N000000000010N40       000150400K 10000000010000000000           
CUS0421270000104176135004         FERRERA, CHRISTINE A415 CALVIN AVE                          000N        CARE OF             
MTR04212700001000000000000000RA              35110178    005800370000003700000520000003NN  NNW 000                       N    
RDG04212700WATRL000000004K00000000000001171003706232015062201N000000000000N40       000170400K 10000000010000001159           
CUS0421270000104176136002         PAUL E MURRAY       417 CALVIN AVE                          000N        CARE OF             
MTR04212700001000000000000000RA              27265692    005800380000003800000520000003NN  NNW 000                       N    
RDG04212700WATRL000000004K00000000000001772003806232015062216N000000000000N40       000150400K 10000000010000001758           
CUS0421270000104176137000         GARDNER, ADAM       419 CALVIN AVE                          000N        CARE OF             
MTR04212700001000000000000000RA              44003320    005800390000003900000520000003NN  NNW 000                       N    
RDG04212700WATRL000000004K00000000000001760003906232015062231N000000000000N40       000150400K 10000000010000001744           
CUS0421270000104176138008         GORDON, JANE F      421 CALVIN AVE                          000N        CARE OF             
MTR04212700001000000000000000RA              35110181    005800400000004000000520000003NN  NNW 000                       N    
RDG04212700WATRL000000004K00000000000000850004006232015062250N000400000010N40       000190400K 10000000010000000825           
CUS0421270000104176139006         GORDON, JANE F      3400 GREENMOUNT AVE                     000N        CARE OF             
MTR04212700001000000000000000RA              00163519    000100410000004100000570000003NN  NNW 000                       N    
RDG04212700WATRL000000004K00000000000005805004106232015062321N000000000000N40       000310400K 10000000010000005724           
CUS0421270000104176140004         GREENMOUNT AVENUE LL3360 GREENMOUNT AVE                     000N        CARE OF             
MTR04212700001000000000000000RA              14928351    007500420000004200000310000003NN  NNW 000                       N    
RDG04212700WATRL000000004K00000000000000171004206232015062401N000000000000N40       000400400K 10000000010000000171           
CUS0421270000104176141002         HONG KOO LEE & WF   3358 GREENMOUNT AVE                     000N        CARE OF             
MTR04212700001000000000000000RA              10018220    005800430000004300000570000003NN  NNW 000                       N    
RDG04212700WATRL000000004K00000000000000032004306232015062419N000100000010N40       000180400K 10000000010000000032           
CUS0421270000104176142000         HONG KOO LEE        3356 GREENMOUNT AVE                     000N        CARE OF             
MTR04212700001000000000000000RA              10007537    005800440000004400000570000003NN  NNW 000   VACANT PROPERTY     N    
RDG04212700WATRL000000004K00000000000000000004406232015062420N000000000000N40       000010400K 10000000010000000000           
CUS0421270000104176143008         H & R BLOCK SITE#*  3354 GREENMOUNT AVE                     000N        CARE OF             
MTR04212700001000000000000000RA              39080509    007500450000004500000520000003NN  NNW 000                       N    
RDG04212700WATRL000000004K00000000000000587004506232015062442N000100000010N40       000220400K 10000000010000000587           
CUS0421270000104176144006         THE MAX GROUP INC   3338 GREENMOUNT AVE                     000N        CARE OF             
MTR04212700001000000000000000RA              41082124    005800460000004600000520000003NN  NNW 000                       N    
RDG04212700WATRL000000004K00000000000001853004606232015062458N000000000000N40       000160400K 10000000010000001830           
CUS0421270000104176145003         MAX DEVELOPMENT L.P.3336 GREENMOUNT AVE                     000N        CARE OF             
MTR04212700001000000000000000RA              32900367    005800470000004700000520000003NN  NNW 000                       N    
RDG04212700WATRL000000004K00000000000000197004706232015062459N000000000000N40       000010400K 10000000010000000181           
CUS0421270000104176146001         MAX DEV LIMITED PART3334 GREENMOUNT AVE                     000N        CARE OF             
MTR04212700001000000000000000RA              24227116    005800480000004800000520000003NN  NNW 000                       N    
RDG04212700WATRL000000004K00000000000001052004806232015062516N000100000010N40       000170400K 10000000010000001052           
CUS0421270000104176147009         MAX DEVELOPMENT L.P.3332 GREENMOUNT AVE                     000N        CARE OF             
MTR04212700001000000000000000RA              77879470    005800490000004900000360000003NN  NNW 000                       N    
RDG04212700WATRL000000004K00000000000000000004906232015062531S001000000000N40       000150400K 10000000010000000000           
CUS0421270000104176149005         MAX DEVELOPMENT LTD 3326-28 GREENMOUNT AVE                  000N        CARE OF             
MTR04212700001000000000000000RA              41193239    007500500000005000000520000003NN  NNW 000                       N    
RDG04212700WATRL000000004K00000000000000220005006232015062607N000000000000N40       000360400K 10000000010000000150           
CUS0421270000104176157008         3404 BRENTWOOD, LLC 3404 BRENTWOOD AVE                      000N        CARE OF             
MTR04212700001000000000000000RA              30514795    005800510000005100000520000003NN  NNW 000                       N    
RDG04212700WATRL000000004K00000000000002045005106232015062736N000000000000N40       000890400K 10000000010000002045           
CUS0421270000104176158006         CARTER, ELIZABETH JO3402 BRENTWOOD AVE                      000N        CARE OF             
MTR04212700001000000000000000RA              30000572    007500520000005200000570000003NN  NNW 000                       N    
RDG04212700WATRL000000004K00000000000000020005206232015062800N000000000000N40       000240400K 10000000010000000020           
CUS0421270000104176153007         MAYOR & CITY COUNCIL3409 BRENTWOOD AVE                      000N        CARE OF             
MTR04212700001000000000000000RA              99999999    005800530000005300000620000003NN  NNW 000                       N    
RDG04212700WATRL000000004K00000000000000000005306232015062804S002000000000N40       000040400K 10000000010000000235           
CUS0421270000104176156000         MAYOR AND CITY COUNC3415 BRENTWOOD AVE                      000N        CARE OF             
MTR04212700001000000000000000RA              99999999    005800540000005400000620000003NN  NNW 000                       N    
RDG04212700WATRL000000004K00000000000000000005406232015062806S002000000000N40       000020400K 10000000010000000000           
CUS0421270000104176159004         CARTER, ELIZABETH JO410 VENABLE AVE                         000N        CARE OF             
MTR04212700001000000000000000RA              14900359    005800550000005500000310000003NN  NNW 000                       N    
RDG04212700WATRL000000004K00000000000000000000000000000000000 000000000000U         000000400  10000000010000000510           
CUS0421270000104176160002         SINGH, KEHAR        408 VENABLE AVE                         000N        CARE OF             
MTR04212700001000000000000000RA              74690173    005800560000005600000350000003NN  NNW 000                       N    
RDG04212700WATRL000000004K00000000000000259005506232015062959N000000000000N40       001130400K 10000000010000000241           
CUS0421270000104176161000         LUNA, JUAN M CASTILL406 VENABLE AVE                         000N        CARE OF             
MTR04212700001000000000000000RA              14928950    005800570000005700000310000003NN  NNW 000                       N    
RDG04212700WATRL000000004K00000000000000376005606232015063015N000000000000N40       000160400K 10000000010000000364           
CUS0421270000104176162008         SAMMY, DEXTER       404 VENABLE AVE                         000N        CARE OF             
MTR04212700001000000000000000RA              14922210    005800580000005800000310000003NN  NNW 000                       N    
RDG04212700WATRL000000004K00000000000000395005706232015063034N000000000000N40       000190400K 10000000010000000324           
CUS0421270000104176163006         REVO ENTERPRISE, LLC402 VENABLE AVE                         000N        CARE OF             
MTR04212700001000000000000000RA              48591967    005800590000005900000520000003NN  NNW 000                       N    
RDG04212700WATRL000000004K00000000000001486005806232015063049N000400000010N40       000150400K 10000000010000001459           
CUS0421270000104176164004         TUBMAN, FRANK       400 VENABLE AVE                         000N        CARE OF             
MTR04212700001000000000000000RA              35111759    005800600000006000000520000003NN  NNW 000                       N    
RDG04212700WATRL000000004K00000000000005077005906232015063132N000000000000N40       000430400K 10000000010000005044           
CUS0421270000104176165001         ANITA M BARTLETT & H405 VENABLE AVE                         000N        CARE OF             
MTR04212700001000000000000000RA              35111760    005800610000006100000520000003NN  NNW 000                       N    
RDG04212700WATRL000000004K00000000000001643006006232015063846N000000000011N40       000340400K 10000000010000001643           
CUS0421270000104176166009         SEB GROUP, LLC.     407 VENABLE AVE                         000N        CARE OF             
MTR04212700001000000000000000RA              32902052    005800620000006200000520000003NN  NNW 000                       N    
RDG04212700WATRL000000004K00000000000003489007006232015063928N000000000000N40       000420400K 10000000010000003482           
CUS0421270000104176167007         WAVERLY STORES CORP.411 VENABLE AVE                         000N        CARE OF             
MTR04212700001000000000000000RA              77888741    005800630000006300000360000003NN  NNW 000                       N    
RDG04212700WATRL000000004K00000000000000000007106232015063935S001000000000N40       000070400K 10000000010000000000           
CUS0421270000104176168005         ETTLIN, ROSE S      417 VENABLE AVE                         000N        CARE OF             
MTR04212700001000000000000000RA              01093975    005800640000006400000610000003NN  NNW 000                       N    
RDG04212700WATRL000000004K00000000000000637007206232015064005N000000000010N40       000300400K 10000000010000000633           
CUS0421270000104176169003         KAHL, MARK A        419 VENABLE AVE                         000N        CARE OF             
MTR04212700001000000000000000RA              01104867    005800650000006500000610000003NN  NNW 000                       N    
RDG04212700WATRL000000004K00000000000000722007306232015064006N000000000000N40       000010400K 10000000010000000702           
CUS0421270000104176170001         PAILANON, ANCHASA   421 VENABLE AVE                         000N        CARE OF             
MTR04212700001000000000000000RA              24771930    005800660000006600000520000003NN  NNW 000                       N    
RDG04212700WATRL000000004K00000000000002279007406232015064031N000000000000N40       000250400K 10000000010000002268           
CUS0421270000104176171009         GHEBREGIORGIS, OGBAZ3322 GREENMOUNT AVE                     000N        CARE OF             
MTR04212700001000000000000000RA              35106198    007500670000006700000520000003NN  NNW 000                       N    
RDG04212700WATRL000000004K00000000000005760007506232015064115N000000000000N40       000440400K 10000000010000005715           
CUS0421270000104176172007         GOLDEN CROWN        3320 GREENMOUNT AVE                     000N        CARE OF             
MTR04212700001000000000000000RA              27678384    007500680000006800000520000003NN  NNW 000                       N    
RDG04212700WATRL000000004K00000000000007807007606232015064117N000000000000N40       000020400K 10000000010000007794           
CUS0421270000104176173005         FRANKLIN BROTHERS RE3316 GREENMOUNT AVE                     000N        CARE OF             
MTR04212700001000000000000000RA              35115064    005800690000006900000520000003NN  NNW 000                       N    
RDG04212700WATRL000000004K00000000000000978007706232015064139N000000000000N40       000220400K 10000000010000000914           
CUS0421270000104176174003         FRANKLIN BROTHERS RE3312-14 GREENMOUNT AVE                  000N        CARE OF             
MTR04212700001000000000000000RA              24767216    005800700000007000000520000003NN  NNW 000                       N    
RDG04212700WATRL000000004K00000000000003070007806232015064203N000300000010N40       000240400K 10000000010000003052           
CUS0421270000104176175000         TABINDA JAVED       3310 GREENMOUNT AVE                     000N        CARE OF             
MTR04212700001000000000000000RA              35113636    007500710000007100000520000003NN  NNW 000                       N    
RDG04212700WATRL000000004K00000000000002681007906232015064215N000000000000N40       000120400K 10000000010000002671           
