FHDNNNN027008446008446008446N                                                                                           030796
RHD04206200NN02290229000002290000000002290229000431NY022902290229000100310000000000000000000001    06092015NY020000 N         
CUS0420620000104167100009         OBY, TESS R         2101 BARCLAY ST                         000N        CARE OF             
MTR04206200001000000000000000RA              99411619    007500010000000100000570000003NN  NNW 000                       N    
RDG04206200WATRL000000004K00000000000002214004106292015064552N000000000060U40       000790400K 10000000010000002186           
CUS0420620000104374482000         HARPER, PARIS       2103 BARCLAY ST                         000N        CARE OF             
MTR04206200001000000000000000RA              32176536    005800020000000200000520000000NN  NNW 000                       N    
RDG04206200WATRL000000004K00000000000003876004206292015064622N000000000000U40       000300400K 10000000010000003835           
CUS0420620000104164220008         PREMIER PROP MGMT LL2107 BARCLAY ST                         000N        CARE OF             
MTR04206200001000000000000000RA              14930457    005800030000000300000310000000NN  NNW 000   VACANT PROPERTY     N    
RDG04206200WATRL000000004K00000000000000011004306292015064625N000000000000U40       000030400K 10000000010000000011           
CUS0420620000104167102005         BARCLAY GREENMOUNT N2111 BARCLAY ST                         000N        CARE OF             
MTR04206200001000000000000000RA              31937634    007500040000000400000520000003NN  NNW 000                       N    
RDG04206200WATRL000000004K00000000000007935004406292015064658N000000000000U40       000330400K 10000000010000007925           
CUS0420620000104379031000         BARCLAY GREENMOUNT N2113 BARCLAY ST                         000N        CARE OF             
MTR04206200001000000000000000RA              33416299    007500050000000500000520000003NN  NNW 000                       N    
RDG04206200WATRL000000004K00000000000000308004506292015064726N000000000000U40       000280400K 10000000010000000217           
CUS0420620000104164223002         FIELDS MANAGEMENT CO2117 BARCLAY ST                         000N        CARE OF             
MTR04206200001000000000000000RA              50787825    005800060000000600000520000000NN  NNW 000                       N    
RDG04206200WATRL000000004K00000000000003322004606292015064749N000000000000U40       000230400K 10000000010000003300           
CUS0420620000104164224000         CRAWFORD, MARK ANTHO2119 BARCLAY ST                         000N        CARE OF             
MTR04206200001000000000000000RA              52770264    005800070000000700000520000000NN  NNW 000   VACANT PROPERTY     N    
RDG04206200WATRL000000004K00000000000001363004706292015064808N000000000000U40       000190400K 10000000010000001363           
CUS0420620000104164225007         KROAT, ALLAN C    (T2121 BARCLAY ST                         000N        CARE OF             
MTR04206200001000000000000000RA              41193981    005800080000000800000520000000NN  NNW 000                       N    
RDG04206200WATRL000000004K00000000000005010004806292015064826N000000000000U40       000180400K 10000000010000004939           
CUS0420620000104374400002         HOFFMANN ASSET MANAG2201 BARCLAY ST                         000N        CARE OF             
MTR04206200001000000000000000RA              10021428    005800090000000900000570000003NN  NNW 000                       N    
RDG04206200WATRL000000004K00000000000001041007306292015070208N000000000070U40       001340400K 10000000010000000997           
CUS0420620000104374401000         REMINGTON BEACH, LLC2203 BARCLAY ST                         000N        CARE OF             
MTR04206200001000000000000000RA              31587571    005800100000001000000520000003NN  NNW 000                       N    
RDG04206200WATRL000000004K00000000000006052007406292015070238N000000000020U40       000300400K 10000000010000006038           
CUS0420620000104372981003         BMV LLC             2205 BARCLAY ST                         000N        CARE OF             
MTR04206200001000000000000000RA              10022589    005800110000001100000570000003NN  NNW 000                       N    
RDG04206200WATRL000000004K00000000000000178007506292015070253N000000000000U40       000150400K 10000000010000000155           
CUS0420620000104380564007         LESTER MCGILBERY    2207 BARCLAY ST                         000N        CARE OF             
MTR04206200001000000000000000RA              33732705    005800120000001200000520000003NN  NNW 000                       N    
RDG04206200WATRL000000004K00000000000002118007606292015070326N000000000000U40       000330400K 10000000010000002103           
CUS0420620000104167105008         BARCLAY GREENMOUNT N2221 BARCLAY ST                         000N        CARE OF             
MTR04206200001000000000000000RA              27681855    007500130000001300000520000003NN  NNW 000                       N    
RDG04206200WATRL000000004K00000000000008163007706292015070349N000000000010U40       000230400K 10000000010000008152           
CUS0420620000104445897004         HABC                2223 BARCLAY ST                         000N        CARE OF             
MTR04206200001000000000000000RA              00166936    000100140000001400000570000000NN  NNW 000                       N    
RDG04206200WATRL000000004K00000000000000541011106292015071941N000000000000U40       000580400K 10000000010000000508           
CUS0420620000104372738007         HOUSING AUTHORITY   2223 BARCLAY ST                         000N        CARE OF             
MTR04206200001000000000000000RA              45386273    005800150000001500000520000000NN  NNW 000                       N    
RDG04206200WATRL000000004K00000000000000541011206292015071943N000000000000U40       000020400K 10000000010000000508           
CUS0420620000104372737009         HOUSING AUTHORITY   2225 BARCLAY ST                         000N        CARE OF             
MTR04206200001000000000000000RA              99999999    007500160000001600000620000003NN  NNW 000                       N    
RDG04206200WATRL000000004K00000000000000000011306292015072002S002000000000U40       000190400K 10000000010000000215           
CUS0420620000104167106006         BARCLAY GREENMOUNT N2227 BARCLAY ST                         000N        CARE OF             
MTR04206200001000000000000000RA              30002079    007500170000001700000570000003NN  NNW 000                       N    
RDG04206200WATRL000000004K00000000000000259011406292015072005N000000000000U40       000030400K 10000000010000000244           
CUS0420620000104165172000         CROSSBRIDGE, LLC    2229 BARCLAY ST                         000N        CARE OF             
MTR04206200001000000000000000RA              77988328    005800180000001800000360000000NN  NNW 000                       N    
RDG04206200WATRL000000004K00000000000000000011506292015072031S001000000000U40       000260400K 10000000010000000000           
CUS0420620000104165173008         GERMAN, TIFFANY L   2231 BARCLAY ST                         000N        CARE OF             
MTR04206200001000000000000000RA              77888174    005800190000001900000360000003NN  NNW 000   VACANT PROPERTY     N    
RDG04206200WATRL000000004K00000000000000000011606292015072050S001000000000U40       000190400K 10000000010000000000           
CUS0420620000104374402008         WILLIAMSVILLE PROPER2235 BARCLAY ST                         000N        CARE OF             
MTR04206200001000000000000000RA              99187119    005800200000002000000570000003NN  NNW 000   VACANT PROPERTY     N    
RDG04206200WATRL000000004K00000000000003484011706292015072135N000000000000U40       000450400K 10000000010000003484           
CUS0420620000104165174006         MORRIS, ERROL       2237 BARCLAY ST                         000N        CARE OF             
MTR04206200001000000000000000RA              10015236    005800210000002100000570000003NN  NNW 000                       N    
RDG04206200WATRL000000004K00000000000000007011806292015072149N000000000000U40       000140400K 10000000010000000007           
CUS0420620000104165175003         COOKE, JOSEPH       2239 BARCLAY ST                         000N        CARE OF             
MTR04206200001000000000000000RA              10021380    005800220000002200000570000003NN  NNW 000                       N    
RDG04206200WATRL000000004K00000000000000274007806292015072223N000100000041U40       000340400K 10000000010000000274           
CUS0420620000104167107004         HABC                2241 BARCLAY ST                         000N        CARE OF             
MTR04206200001000000000000000RA              36699412    007500230000002300000520000003NN  NNW 000                       N    
RDG04206200WATRL000000004K00000000000000417011906292015072227N000000000000U40       000040400K 10000000010000000395           
CUS0420620000104445898002         HOMEWOOD LIMITED    2241 BARCLAY ST                         000N        CARE OF             
MTR04206200001000000000000000RA              00166976    000100240000002400000570000000NN  NNW 000                       N    
RDG04206200WATRL000000004K00000000000000417012006292015072242N000000000001U40       000050400K 10000000010000000395           
CUS0420620000104367036003         ST AMBROSE HOUSING A2303 BARCLAY ST                         000N        CARE OF             
MTR04206200001000000000000000RA              42809294    005800250000002500000520000000NY  NNW 000                       N    
MTM0420620042809294    CLDANOUT                                                                                               
RDG04206200WATRL000000004K00000000000000000000000000000000000 000000000000U         000000400  10000000010000004878           
CUS0420620000104445895008         HOMEWOOD LTD PARTNER2305 BARCLAY ST                         000N        CARE OF             
MTR04206200001000000000000000RA              30001523    007500260000002600000570000000NN  NNW 000                       N    
RDG04206200WATRL000000004K00000000000000324013006292015072850N000000000000U40       000850400K 10000000010000000302           
CUS0420620000104372618001         H A B C             2305 BARCLAY ST                         000N        CARE OF             
MTR04206200001000000000000000RA              43905621    007500270000002700000520000003NN  NNW 000                       N    
RDG04206200WATRL000000004K00000000000000000012206292015072432S002000000000U40       000050400K 10000000010000000532           
CUS0420620000104367033000         MCPHAIL, MARY E (LIF2307 BARCLAY ST                         000N        CARE OF             
MTR04206200001000000000000000RA              44002573    005800280000002800000520000003NN  NNW 000                       N    
RDG04206200WATRL000000004K00000000000001876012106292015072427N000400000010U40       001050400K 10000000010000001871           
CUS0420620000104167110008         HABC                2309 BARCLAY ST                         000N        CARE OF             
MTR04206200001000000000000000RA              36699413    007500290000002900000520000003NN  NNW 000                       N    
RDG04206200WATRL000000004K00000000000000000012306292015072457S002000000000U40       000250400K 10000000010000000496           
CUS0420620000104445896006         HOMEWOOD LTD PTNRSHP2309 BARCLAY ST                         000N        CARE OF             
MTR04206200001000000000000000RA              00166979    000100300000003000000570000000NN  NNW 000                       N    
RDG04206200WATRL000000004K00000000000000425013106292015072914N000000000000U40       000240400K 10000000010000000401           
CUS0420620000104380737009         AFRAMIAN, SHANA     2311 BARCLAY ST                         000N        CARE OF             
MTR04206200001000000000000000RA              75615864    005800310000003100000350000003NN  NNW 000                       N    
RDG04206200WATRL000000004K00000000000000180012406292015072518N000000000000U40       000210400K 10000000010000000155           
CUS0420620000104367495001         AFRAMIAN, SHANA     2313 BARCLAY ST                         000N        CARE OF             
MTR04206200001000000000000000RA              48593153    005800320000003200000520000003NN  NNW 000                       N    
RDG04206200WATRL000000004K00000000000000676012506292015072559N000400000010U40       000410400K 10000000010000000635           
CUS0420620000104165219009         BARCLAY GREENMOUNT N2319 BARCLAY ST                         000N        CARE OF             
MTR04206200001000000000000000RA              10003658    005800330000003300000570000000NN  NNW 000                       N    
RDG04206200WATRL000000004K00000000000000638013206292015073000N000000000000U40       000460400K 10000000010000000624           
CUS0420620000104374403006         ASHER, STEPHNEY L   2321 BARCLAY ST                         000N        CARE OF             
MTR04206200001000000000000000RA              31587812    005800340000003400000520000003NN  NNW 000   VACANT PROPERTY     N    
RDG04206200WATRL000000004K00000000000001401012606292015072637N000000000000U40       000380400K 10000000010000001401           
CUS0420620000104167111006         CASON, GLORIA       2323 BARCLAY ST                         000N        CARE OF             
MTR04206200001000000000000000RA              99187731    005800350000003500000570000003NN  NNW 000                       N    
RDG04206200WATRL000000004K00000000000000768012706292015072650N000000000000U40       000130400K 10000000010000000733           
CUS0420620000104376792000         ST AMBROSE HOUSING A2325 BARCLAY ST                         000N        CARE OF             
MTR04206200001000000000000000RA              32898986    005800360000003600000520000003NN  NNW 000                       N    
RDG04206200WATRL000000004K00000000000003447012806292015072715N000000000000U40       000250400K 10000000010000003428           
CUS0420620000104366910000         ADDIS DEVELOPERS, LL2327 BARCLAY ST                         000N        CARE OF             
MTR04206200001000000000000000RA              46887949    005800370000003700000520000003NN  NNW 000   VACANT PROPERTY     N    
RDG04206200WATRL000000004K00000000000000214012906292015072725N000000000000U40       000100400K 10000000010000000214           
CUS0420620000104165220007         HASKELL PROPERTY MNG2329 BARCLAY ST                         000N        CARE OF             
MTR04206200001000000000000000RA              99999999    005800380000003800000620000003NN  NNW 000   VACANT PROPERTY     N    
RDG04206200WATRL000000004K00000000000000000013306292015073036S002000000000U40       000360400K 10000000010000000506           
CUS0420620000104371704000         TYRONE ARMSTEAD     2331 BARCLAY ST                         000N        CARE OF             
MTR04206200001000000000000000RA              46884386    005800390000003900000520000003NN  NNW 000                       N    
RDG04206200WATRL000000004K00000000000000551013406292015073041N000400000010U40       000050400K 10000000010000000549           
CUS0420620000104167114000         POVERNI, EUGENE     2405 BARCLAY ST                         000N        CARE OF             
MTR04206200001000000000000000RA              46890038    007500400000004000000520000003NN  NNW 000                       N    
RDG04206200WATRL000000004K00000000000002205013506292015073131N000400000010U40       000500400K 10000000010000002161           
CUS0420620000104167115007         LAUSER, BRUCE       2407 BARCLAY ST                         000N        CARE OF             
MTR04206200001000000000000000RA              46889469    007500410000004100000520000003NN  NNW 000   VACANT PROPERTY     N    
RDG04206200WATRL000000004K00000000000001534013606292015073135N000000000000U40       000040400K 10000000010000001534           
CUS0420620000104167116005         FENNIX, LLC         2409 BARCLAY ST                         000N        CARE OF             
MTR04206200001000000000000000RA              35100771    007500420000004200000520000003NN  NNW 000   VACANT PROPERTY     N    
RDG04206200WATRL000000004K00000000000001229013706292015073138N000000000000U40       000030400K 10000000010000001229           
CUS0420620000104376881001         ALLEYNE, NICKEMIA   2411 BARCLAY ST                         000N        CARE OF             
MTR04206200001000000000000000RA              14908022    005800430000004300000310000000NN  NNW 000                       N    
RDG04206200WATRL000000004K00000000000000439013806292015073201N000000000000U40       000230400K 10000000010000000430           
CUS0420620000104165228000         HOWARD BYRD         2413 BARCLAY ST                         000N        CARE OF             
MTR04206200001000000000000000RA              14908022    005800440000004400000310000000NN  NNW 000   VACANT PROPERTY     N    
RDG04206200WATRL000000004K00000000000000135013906292015073210N000000000010U40       000090400K 10000000010000000115           
CUS0420620000104165229008         BERRY, SCOTT EDWARD 2415 BARCLAY ST                         000N        CARE OF             
MTR04206200001000000000000000RA              01114904    005800450000004500000610000003NN  NNW 000                       N    
RDG04206200WATRL000000004K00000000000000886014006292015073315N000100000010U40       000650400K 10000000010000000886           
CUS0420620000104165230006         DAVIS, BYRON        2417 BARCLAY ST                         000N        CARE OF             
MTR04206200001000000000000000RA              50790643    005800460000004600000520000000NN  NNW 000                       N    
RDG04206200WATRL000000004K00000000000002384014106292015073353N000000000000U40       000380400K 10000000010000002373           
CUS0420620000104167117003         JANICE MARTIN CHAMBE2419 BARCLAY ST                         000N        CARE OF             
MTR04206200001000000000000000RA              35100769    007500470000004700000520000003NN  NNW 000                       N    
RDG04206200WATRL000000004K00000000000002514014206292015073414N000000000000U40       000210400K 10000000010000002514           
CUS0420620000104165231004         OPESANMI, OBAFEMI   2421 BARCLAY ST                         000N        CARE OF             
MTR04206200001000000000000000RA              01114901    005800480000004800000610000003NN  NNW 000                       N    
RDG04206200WATRL000000004K00000000000000853014306292015073432N000000000000U40       000180400K 10000000010000000804           
CUS0420620000104165232002         BARCLAY GREENMOUNT N2423 BARCLAY ST                         000N        CARE OF             
MTR04206200001000000000000000RA              01114902    005800490000004900000610000003NN  NNW 000                       N    
RDG04206200WATRL000000004K00000000000001830014406292015073446N000000000000U40       000140400K 10000000010000001818           
CUS0420620000104167118001         WONG, CHUN KUEN     2425 BARCLAY ST                         000N        CARE OF             
MTR04206200001000000000000000RA              14918378    007500500000005000000310000003NN  NNW 000                       N    
RDG04206200WATRL000000004K00000000000000020014506292015073511N000400000010U40       000250400K 10000000010000000019           
CUS0420620000104167120007         SRG PROPERTIES      2429 BARCLAY ST                         000N        CARE OF             
MTR04206200001000000000000000RA              10005738    005800510000005100000570000003NN  NNW 000                       N    
RDG04206200WATRL000000004K00000000000000586014606292015073538N000000000000U40       000270400K 10000000010000000571           
CUS0420620000104167121005         HOLLISTER, OLCAN    2431 BARCLAY ST                         000N        CARE OF             
MTR04206200001000000000000000RA              14918332    007500520000005200000310000003NN  NNW 000                       N    
RDG04206200WATRL000000004K00000000000000600014706292015073541N000000000000U40       000030400K 10000000010000000555           
CUS0420620000104165233000         THUMBI, JOHN N      2433 BARCLAY ST                         000N        CARE OF             
MTR04206200001000000000000000RA              99289181    005800530000005300000570000003NN  NNW 000                       N    
RDG04206200WATRL000000004K00000000000000841014806292015073610N000000000000U40       000290400K 10000000010000000796           
CUS0420620000104165234008         RYAN, JANNEAN YVETTE2435 BARCLAY ST                         000N        CARE OF             
MTR04206200001000000000000000RA              50788126    005800540000005400000610000000NN  NNW 000                       N    
RDG04206200WATRL000000004K00000000000001913014906292015073613N000000000000U40       000030400K 10000000010000001883           
CUS0420620000104167122003         BARCLAY GREENMOUNT N2437 BARCLAY ST                         000N        CARE OF             
MTR04206200001000000000000000RA              35100781    007500550000005500000520000003NN  NNW 000                       N    
RDG04206200WATRL000000004K00000000000004385015006292015073634N000000000000U40       000210400K 10000000010000004348           
CUS0420620000104374624007         BARCLAY GREENMOUNT N2439 BARCLAY ST                         000N        CARE OF             
MTR04206200001000000000000000RA              52769986    005800560000005600000520000000NN  NNW 000                       N    
RDG04206200WATRL000000004K00000000000003183015106292015073654N000000000000U40       000200400K 10000000010000003013           
CUS0420620000104165235005         COLE, DEBORAH S     2441 BARCLAY ST                         000N        CARE OF             
MTR04206200001000000000000000RA              01114131    005800570000005700000610000003NN  NNW 000                       N    
RDG04206200WATRL000000004K00000000000000422015206292015073714N000000000000U40       000200400K 10000000010000000397           
CUS0420620000104167124009         DUVALL, PETER W.    2445 BARCLAY ST                         000N        CARE OF             
MTR04206200001000000000000000RA              41193522    007500580000005800000520000003NN  NNW 000                       N    
RDG04206200WATRL000000004K00000000000001544015306292015073800N000000000000U40       000460400K 10000000010000001526           
CUS0420620000104167126004         MICHAEL PIERRO      2449 BARCLAY ST                         000N        CARE OF             
MTR04206200001000000000000000RA              35114364    005800590000005900000520000003NN  NNW 000   VACANT PROPERTY     N    
RDG04206200WATRL000000004K00000000000002921015406292015073824N000000000000U40       000240400K 10000000010000002921           
CUS0420620000104167127002         SPINNER, DEROTHA C  2451 BARCLAY ST                         000N        CARE OF             
MTR04206200001000000000000000RA              14918340    007500600000006000000310000003NN  NNW 000                       N    
RDG04206200WATRL000000004K00000000000000702015506292015073848N000000000000U40       000240400K 10000000010000000682           
CUS0420620000104167128000         BARCLAY HOLDINGS, LL2453 BARCLAY ST                         000N        CARE OF             
MTR04206200001000000000000000RA              14918342    007500610000006100000310000003NN  NNW 000                       N    
RDG04206200WATRL000000004K00000000000000576015606292015073850N000000000000U40       000020400K 10000000010000000545           
CUS0420620000104167134008         HABC CON 16/80      417 E 25TH ST                           000N        CARE OF             
MTR04206200001000000000000000RA              18778222    007500620000006200000600000003NN  NNW 000                       N    
RDG04206200WATRL000000004K00000000000000000005006292015073901S002000000000N40       000110400K 10000000010000000065           
CUS0420620000104167139007         LEE, SUAH           439 E 25TH ST                           000N        CARE OF             
MTR04206200001000000000000000RA              24625199    007500630000006300000520000003NN  NNW 000   VACANT PROPERTY     N    
RDG04206200WATRL000000004K00000000000005621005106292015073919N000000000000N40       000180400K 10000000010000005621           
CUS0420620000104167140005         LEE, HYUNG M        441 E 25TH ST                           000N        CARE OF             
MTR04206200001000000000000000RA              41089491    005800640000006400000520000003NN  NNW 000                       N    
RDG04206200WATRL000000004K00000000000000712005206292015073923N000000000000N40       000040400K 10000000010000000712           
CUS0420620000104407164005         LEE, HYUNG M        443 E 25TH ST                           000N        CARE OF             
MTR04206200001000000000000000RA              26567453    000200650000006500000520000003NN  NNW 000   OFFICIAL VACANCY    N    
RDG04206200WATRL000000005K00000000000005252005306292015073930N000000000000N40       000070500K 10000000010000005252           
CUS0420620000104167142001         LEE, HYUNG M        445 E 25TH ST                           000N        CARE OF             
MTR04206200001000000000000000RA              44030868    007500660000006600000520000003NN  NNW 000   VACANT PROPERTY     N    
RDG04206200WATRL000000004K00000000000001790005406292015073933N000000000000N40       000030400K 10000000010000001790           
CUS0420620000104167143009         LEE, HYUNG M        447 E 25TH ST                           000N        CARE OF             
MTR04206200001000000000000000RA              35115339    005800670000006700000520000003NN  NNW 000                       N    
RDG04206200WATRL000000004K00000000000001690005506292015073942N000100000010N40       000090400K 10000000010000001690           
CUS0420620000104167144007         AHMED, ALI          449 E 25TH ST                           000N        CARE OF             
MTR04206200001000000000000000RA              35113426    007500680000006800000520000003NN  NNW 000                       N    
RDG04206200WATRL000000004K00000000000001949005606292015073953N000000000000N40       000110400K 10000000010000001949           
CUS0420620000104167145004         BROADDUS, WILLIAM   2468 GREENMOUNT AVE                     000N        CARE OF             
MTR04206200001000000000000000RA              14928165    007500690000006900000310000003NN  NNW 000   VACANT PROPERTY     N    
RDG04206200WATRL000000004K00000000000000000005706292015131551N000000000000N40       201580400K 10000000010000000000           
CUS0420620000104167146002         SECURED FUTURES, LLC2466 GREENMOUNT AVE                     000N        CARE OF             
MTR04206200001000000000000000RA              33416420    007500700000007000000520000003NN  NNW 000                       N    
RDG04206200WATRL000000004K00000000000004371000207012015090310N000000000000U40       000050400K 10000000010000004371           
CUS0420620000104167148008         XL, INC             2462 GREENMOUNT AVE                     000N        CARE OF             
MTR04206200001000000000000000RA              99187026    005800710000007100000570000003NN  NNW 000                       N    
RDG04206200WATRL000000004K00000000000002621000307012015090324N000000000000U40       000140400K 10000000010000002621           
CUS0420620000104167149006         MALIK, MOHAMMAD A.  2460 GREENMOUNT AVE                     000N        CARE OF             
MTR04206200001000000000000000RA              33736363    007500720000007200000520000003NN  NNW 000   VACANT PROPERTY     N    
RDG04206200WATRL000000004K00000000000004873000407012015090328N000000000000U40       000040400K 10000000010000004873           
CUS0420620000104167150004         RICE, TIMOTHY       2458 GREENMOUNT AVE                     000N        CARE OF             
MTR04206200001000000000000000RA              36699462    007500730000007300000520000003NN  NNW 000                       N    
RDG04206200WATRL000000004K00000000000006690000507012015090330N000000000000U40       000020400K 10000000010000006690           
CUS0420620000104167151002         BROOKS, CHERYL R    2456 GREENMOUNT AVE                     000N        CARE OF             
MTR04206200001000000000000000RA              28766741    007500740000007400000520000003NN  NNW 000   VACANT PROPERTY     N    
RDG04206200WATRL000000004K00000000000005141000607012015090334N000000000000U40       000040400K 10000000010000005141           
CUS0420620000104167152000         MALIK, MAHAMMAD A.  2454 GREENMOUNT AVE                     000N        CARE OF             
MTR04206200001000000000000000RA              76349746    007500750000007500000350000003NN  NNW 000                       N    
RDG04206200WATRL000000004K00000000000000000000707012015090336N000000000000U40       000020400K 10000000010000000000           
CUS0420620000104167154006         SALVATORE PAUL SABAT2450 GREENMOUNT AVE                     000N        CARE OF             
MTR04206200001000000000000000RA              30002502    007500760000007600000570000003NN  NNW 000                       N    
RDG04206200WATRL000000004K00000000000001044000807012015090341N000000000010U40       000050400K 10000000010000001026           
CUS0420620000104167155003         WHITE, BROOKS       2432 GREENMOUNT AVE                     000N        CARE OF             
MTR04206200001000000000000000RA              45387042    005800770000007700000520000003NN  NNW 000                       N    
RDG04206200WATRL000000004K00000000000000203000907012015090345N000000000000U40       000040400K 10000000010000000203           
CUS0420620000104167156001         SALVATORE PAUL SABAT2430 GREENMOUNT AVE                     000N        CARE OF             
MTR04206200001000000000000000RA              45388662    007500780000007800000520000003NN  NNW 000   VACANT PROPERTY     N    
RDG04206200WATRL000000004K00000000000000000001007012015090347N000000000000U40       000020400K 10000000010000000000           
CUS0420620000104167157009         SABATINO, SALVATORE 2428 GREENMOUNT AVE                     000N        CARE OF             
MTR04206200001000000000000000RA              30002297    007500790000007900000570000003NN  NNW 000                       N    
RDG04206200WATRL000000004K00000000000000263001107012015090352N000000000010U40       000050400K 10000000010000000253           
CUS0420620000104167158007         NAM, YOUNG OK       2424 GREENMOUNT AVE                     000N        CARE OF             
MTR04206200001000000000000000RA              35100953    007500800000008000000520000003NN  NNW 000                       N    
RDG04206200WATRL000000004K00000000000004617001207012015090455N000100000091U40       000490400K 10000000010000004617           
CUS0420620000104167159005         2402 GREENMOUNT AVE 2422 GREENMOUNT AVE                     000N        CARE OF             
MTR04206200001000000000000000RA              43905739    007500810000008100000520000003NN  NNW 000                       N    
RDG04206200WATRL000000004K00000000000003012001307012015090459N000000000000U40       000040400K 10000000010000003012           
CUS0420620000104167160003         2402 GREENMOUNT AVE 2420 GREENMOUNT AVE                     000N        CARE OF             
MTR04206200001000000000000000RA              36699461    007500820000008200000520000003NN  NNW 000   VACANT PROPERTY     N    
RDG04206200WATRL000000004K00000000000000482001407012015090503N000000000000U40       000040400K 10000000010000000482           
CUS0420620000104444859005         GARY REYNOLDS       2426 GREENMOUNT AVE                     000N        CARE OF             
MTR04206200001000000000000000RA              10002559    007500830000008300000570000000NN  NNW 000                       N    
RDG04206200WATRL000000004K00000000000000083001507012015090515N000000000020U40       000120400K 10000000010000000073           
CUS0420620000104167161001         NEW GOOD SAMARITAN B2406-18 GREENMOUNT AVE                  000N        CARE OF             
MTR04206200001000000000000000RA              35100949    007500840000008400000520000003NN  NNW 000                       N    
RDG04206200WATRL000000004K00000000000009405001607012015090546N000000000081U40       000190400K 10000000010000009368           
CUS0420620000104167162009         YEH, TZU YEN        2400 GREENMOUNT AVE                     000N        CARE OF             
MTR04206200001000000000000000RA              33416130    007500850000008500000520000003NN  NNW 000                       N    
RDG04206200WATRL000000004K00000000000002608000406192015102332N000000000000N40       001230400K 10000000010000002579           
CUS0420620000104167163007         VALLEY INVESTMENTS  400 E 24TH ST                           000N        CARE OF             
MTR04206200001000000000000000RA              00119933    007500860000008600000570000003NN  NNW 000                       N    
RDG04206200WATRL000000004K00000000000000200000506192015102358N000000000000N40       000260400K 10000000010000000200           
CUS0420620000104167164005         PRESBAR PROPERTIES, 2419 BRENTWOOD AVE                      000N        CARE OF             
MTR04206200001000000000000000RA              01086885    005800870000008700000610000003NN  NNW 000                       N    
RDG04206200WATRL000000004K00000000000000803000606192015102512N000100000010N40       000740400K 10000000010000000803           
CUS0420620000104167165002         MAYOR AND CITY COUNC2421 BRENTWOOD AVE                      000N        CARE OF             
MTR04206200001000000000000000RA              01086881    005800880000008800000610000003NN  NNW 000   VACANT PROPERTY     N    
RDG04206200WATRL000000004K00000000000000000000706192015102521S002000000000N40       000090400K 10000000010000000091           
CUS0420620000104167166000         BUTLER, JEAN A      2423 BRENTWOOD AVE                      000N        CARE OF             
MTR04206200001000000000000000RA              76349151    005800890000008900000350000003NN  NNW 000                       N    
RDG04206200WATRL000000004K00000000000000035000806192015102547N000000000000N40       000260400K 10000000010000000029           
CUS0420620000104167167008         WEST, PHERNILLA     2425 BRENTWOOD AVE                      000N        CARE OF             
MTR04206200001000000000000000RA              01086557    005800900000009000000610000003NN  NNW 000                       N    
RDG04206200WATRL000000004K00000000000000737000906192015102550N000000000000N40       000030400K 10000000010000000719           
CUS0420620000104167168006         KRAWEC, IHOR        2427 BRENTWOOD AVE                      000N        CARE OF             
MTR04206200001000000000000000RA              46882849    005800910000009100000520000003NN  NNW 000                       N    
RDG04206200WATRL000000004K00000000000000446001006192015102619N000100000010N40       000290400K 10000000010000000446           
CUS0420620000104167170002         FRIESON, JAMES      2451 BRENTWOOD AVE                      000N        CARE OF             
MTR04206200001000000000000000RA              01087456    005800920000009200000610000003NN  NNW 000   VACANT PROPERTY     N    
RDG04206200WATRL000000004K00000000000000741001106192015102631N000000000000N40       000120400K 10000000010000000741           
CUS0420620000104167173006         KEY, JEAN JOHNSON   2457 BRENTWOOD AVE                      000N        CARE OF             
MTR04206200001000000000000000RA              30527672    005800930000009300000520000003NN  NNW 000                       N    
RDG04206200WATRL000000004K00000000000001564001206192015102713N000000000000N40       000420400K 10000000010000001564           
CUS0420620000104167174004         ROBERTS, BRAD J     2459 BRENTWOOD AVE                      000N        CARE OF             
MTR04206200001000000000000000RA              01086554    005800940000009400000610000003NN  NNW 000                       N    
RDG04206200WATRL000000004K00000000000001037001306192015102734N000000000000N40       000210400K 10000000010000001018           
CUS0420620000104167175001         WILLIAM A CHATMON ET2461 BRENTWOOD AVE                      000N        CARE OF             
MTR04206200001000000000000000RA              01086886    005800950000009500000610000003NN  NNW 000                       N    
RDG04206200WATRL000000004K00000000000000357001406192015102737N000000000000N40       000030400K 10000000010000000357           
CUS0420620000104167176009         2463 BRENTWOOD AVE, 2463 BRENTWOOD AVE                      000N        CARE OF             
MTR04206200001000000000000000RA              01086559    005800960000009600000610000003NN  NNW 000                       N    
RDG04206200WATRL000000004K00000000000000391001506192015102755N000000000000N40       000180400K 10000000010000000380           
CUS0420620000104167177007         STILWELL, CARL      2465 BRENTWOOD AVE                      000N        CARE OF             
MTR04206200001000000000000000RA              01086884    005800970000009700000610000003NN  NNW 000                       N    
RDG04206200WATRL000000004K00000000000000671001606192015102758N000000000000N40       000030400K 10000000010000000671           
CUS0420620000104167178005         SAJAD, MOHAMMAD     2467 BRENTWOOD AVE                      000N        CARE OF             
MTR04206200001000000000000000RA              35114361    005800980000009800000520000003NN  NNW 000                       N    
RDG04206200WATRL000000004K00000000000001756001706192015102829N000000000000N40       000310400K 10000000010000001744           
CUS0420620000104167179003         TRUE BLUE PROPERTY I2469 BRENTWOOD AVE                      000N        CARE OF             
MTR04206200001000000000000000RA              01114565    005800990000009900000610000003NN  NNW 000                       N    
RDG04206200WATRL000000004K00000000000000612001806192015102850N000100000010N40       000210400K 10000000010000000612           
CUS0420620000104167180001         GLORIA E MOON       2468 BRENTWOOD AVE                      000N        CARE OF             
MTR04206200001000000000000000RA              01099420    005801000000010000000610000003NN  NNW 000                       N    
RDG04206200WATRL000000004K00000000000000992001906192015102908N000000000000N40       000180400K 10000000010000000984           
CUS0420620000104167181009         HARRIS, GREGORY     2466 BRENTWOOD AVE                      000N        CARE OF             
MTR04206200001000000000000000RA              76346269    005801010000010100000350000003NN  NNW 000                       N    
RDG04206200WATRL000000004K00000000000000101002006192015102927N000000000000N40       000190400K 10000000010000000084           
CUS0420620000104167183005         MAYOR AND CITY COUNC2462 BRENTWOOD AVE                      000N        CARE OF             
MTR04206200001000000000000000RA              35100948    007501020000010200000520000003NN  NNW 000   INVALID DAC         N    
RDG04206200WATRL000000004K00000000000000111002106192015102937N000000000000N40       000100400K 10000000010000000111           
CUS0420620000104167184003         DAVIS, JENEVA (TR)  2460 BRENTWOOD AVE                      000N        CARE OF             
MTR04206200001000000000000000RA              40248301    007501030000010300000520000003NN  NNW 000                       N    
RDG04206200WATRL000000004K00000000000003928002206192015103005N000400000010N40       000280400K 10000000010000003918           
CUS0420620000104167186008         ALBEMARLE HOMES LLC 2456 BRENTWOOD AVE                      000N        CARE OF             
MTR04206200001000000000000000RA              39291843    005801040000010400000520000003NN  NNW 000                       N    
RDG04206200WATRL000000004K00000000000001891002306192015103013N000000000000N40       000080400K 10000000010000001891           
CUS0420620000104167187006         PARRIS, VIRGINIA C. 2454 BRENTWOOD AVE                      000N        CARE OF             
MTR04206200001000000000000000RA              99290908    005801050000010500000570000003NN  NNW 000                       N    
RDG04206200WATRL000000004K00000000000000830002406192015103033N000000000000N40       000200400K 10000000010000000820           
CUS0420620000104167188004         PRICE, SHARI        2452 BRENTWOOD AVE                      000N        CARE OF             
MTR04206200001000000000000000RA              01087444    005801060000010600000610000003NN  NNW 000                       N    
RDG04206200WATRL000000004K00000000000000989002506192015103036N000000000000N40       000030400K 10000000010000000979           
CUS0420620000104167189002         CUTCHEMBER, CHARLES 2450 BRENTWOOD AVE                      000N        CARE OF             
MTR04206200001000000000000000RA              01087449    005801070000010700000610000003NN  NNW 000                       N    
RDG04206200WATRL000000004K00000000000000782002606192015103100N000400000010N40       000240400K 10000000010000000781           
CUS0420620000104167190000         HERBERT B TURNER    2448 BRENTWOOD AVE                      000N        CARE OF             
MTR04206200001000000000000000RA              01087445    005801080000010800000610000003NN  NNW 000                       N    
RDG04206200WATRL000000004K00000000000000491002706192015103103N000000000000N40       000030400K 10000000010000000483           
CUS0420620000104167191008         HABC                2446 BRENTWOOD AVE                      000N        CARE OF             
MTR04206200001000000000000000RA              38985874    005801090000010900000520000003NN  NNW 000                       N    
RDG04206200WATRL000000004K00000000000002458002806192015103145N000000000000N40       000420400K 10000000010000002458           
CUS0420620000104167192006         LANIER, KIMBERLY    2444 BRENTWOOD AVE                      000N        CARE OF             
MTR04206200001000000000000000RA              45386851    005801100000011000000520000003NN  NNW 000                       N    
RDG04206200WATRL000000004K00000000000001701002906192015103147N000000000000N40       000020400K 10000000010000001686           
CUS0420620000104167193004         SCRUGGS, ROMAINE E  2442 BRENTWOOD AVE                      000N        CARE OF             
MTR04206200001000000000000000RA              01087458    005801110000011100000610000003NN  NNW 000                       N    
RDG04206200WATRL000000004K00000000000001343003006192015103213N000000000000N40       000260400K 10000000010000001328           
CUS0420620000104167194002         SHIRLEY A DAVIS     2440 BRENTWOOD AVE                      000N        CARE OF             
MTR04206200001000000000000000RA              01087450    005801120000011200000610000003NN  NNW 000                       N    
RDG04206200WATRL000000004K00000000000001184003106192015103215N000000000000N40       000020400K 10000000010000001169           
CUS0420620000104167195009         CENTRAL PROPERTIES, 2438 BRENTWOOD AVE                      000N        CARE OF             
MTR04206200001000000000000000RA              01088010    005801130000011300000610000003NN  NNW 000                       N    
RDG04206200WATRL000000004K00000000000000994003206192015103237N000000000000N40       000220400K 10000000010000000988           
CUS0420620000104167196007         K.T.I. RENTAL PROPER2436 BRENTWOOD AVE                      000N        CARE OF             
MTR04206200001000000000000000RA              01088012    005801140000011400000610000003NN  NNW 000                       N    
RDG04206200WATRL000000004K00000000000000582003306192015103242N000000000000N40       000050400K 10000000010000000565           
CUS0420620000104167197005         RICHARD H WILLIAMS &2434 BRENTWOOD AVE                      000N        CARE OF             
MTR04206200001000000000000000RA              01088017    005801150000011500000610000003NN  NNW 000                       N    
RDG04206200WATRL000000004K00000000000002687003406192015103311N000100000010N40       000290400K 10000000010000002687           
CUS0420620000104167198003         HEARD, CLINTON      2432 BRENTWOOD AVE                      000N        CARE OF             
MTR04206200001000000000000000RA              01088013    005801160000011600000610000003NN  NNW 000                       N    
RDG04206200WATRL000000004K00000000000001207003506192015103314N000000000000N40       000030400K 10000000010000001185           
CUS0420620000104167199001         DOBBINS, AARON      2430 BRENTWOOD AVE                      000N        CARE OF             
MTR04206200001000000000000000RA              14925653    005801170000011700000310000003NN  NNW 000                       N    
RDG04206200WATRL000000004K00000000000000032003606192015103335N000000000000N40       000210400K 10000000010000000032           
CUS0420620000104167200007         WATKINS, ERIC       2428 BRENTWOOD AVE                      000N        CARE OF             
MTR04206200001000000000000000RA              77887291    005801180000011800000360000003NN  NNW 000                       N    
RDG04206200WATRL000000004K00000000000000000003706192015103338S001000000000N40       000030400K 10000000010000000000           
CUS0420620000104167201005         HARE, PATRICK       2426 BRENTWOOD AVE                      000N        CARE OF             
MTR04206200001000000000000000RA              10003596    005801190000011900000570000003NN  NNW 000   VACANT PROPERTY     N    
RDG04206200WATRL000000004K00000000000000025003806192015103527N000000000010N40       001090400K 10000000010000000012           
CUS0420620000104167202003         JOHN E GITTINGS III 2424 BRENTWOOD AVE                      000N        CARE OF             
MTR04206200001000000000000000RA              10003593    005801200000012000000570000003NN  NNW 000                       N    
RDG04206200WATRL000000004K00000000000000069003906192015103531N000100000010N40       000040400K 10000000010000000069           
CUS0420620000104167205006         R & T REALTY, LLC   2418 BRENTWOOD AVE                      000N        CARE OF             
MTR04206200001000000000000000RA              14912842    005801210000012100000310000003NN  NNW 000                       N    
RDG04206200WATRL000000004K00000000000000850004006192015103631N000000000000N40       000600400K 10000000010000000834           
CUS0420620000104167206004         HOWARD BYRD         2416 BRENTWOOD AVE                      000N        CARE OF             
MTR04206200001000000000000000RA              14912485    005801220000012200000310000003NN  NNW 000                       N    
RDG04206200WATRL000000004K00000000000000403004106192015103633N000000000000N40       000020400K 10000000010000000396           
CUS0420620000104167207002         ARNETT BRANCH       2414 BRENTWOOD AVE                      000N        CARE OF             
MTR04206200001000000000000000RA              99290229    005801230000012300000570000003NN  NNW 000   VACANT PROPERTY     N    
RDG04206200WATRL000000004K00000000000000170004206192015103646N000000000000N40       000130400K 10000000010000000170           
CUS0420620000104167208000         KIRK J TAYLOR       2412 BRENTWOOD AVE                      000N        CARE OF             
MTR04206200001000000000000000RA              99290233    005801240000012400000570000003NN  NNW 000                       N    
RDG04206200WATRL000000004K00000000000000301004306192015103701N000000000000N40       000150400K 10000000010000000301           
CUS0420620000104167209008         PRICE, ROBIN        2410 BRENTWOOD AVE                      000N        CARE OF             
MTR04206200001000000000000000RA              01087763    005801250000012500000610000003NN  NNW 000                       N    
RDG04206200WATRL000000004K00000000000000997004406192015103728N000000000000N40       000270400K 10000000010000000970           
CUS0420620000104167210006         PLUMMER, ADDISON DEA2408 BRENTWOOD AVE                      000N        CARE OF             
MTR04206200001000000000000000RA              01087765    005801260000012600000610000003NN  NNW 000                       N    
RDG04206200WATRL000000004K00000000000000599004506192015103732N000000000000N40       000040400K 10000000010000000588           
CUS0420620000104167211004         MOORE, LUTHER H     2406 BRENTWOOD AVE                      000N        CARE OF             
MTR04206200001000000000000000RA              50789011    005801270000012700000520000003NN  NNW 000                       N    
RDG04206200WATRL000000004K00000000000000399004606192015103758N000000000000N40       000260400K 10000000010000000397           
CUS0420620000104167212002         BOWERS, CAROLYN R.  2404 BRENTWOOD AVE                      000N        CARE OF             
MTR04206200001000000000000000RA              26014366    005801280000012800000520000003NN  NNW 000                       N    
RDG04206200WATRL000000004K00000000000003057004706192015103803N000000000000N40       000050400K 10000000010000003047           
CUS0420620000104167213000         FRANCE REYNOLDS     2402 BRENTWOOD AVE                      000N        CARE OF             
MTR04206200001000000000000000RA              32900512    005801290000012900000520000003NN  NNW 000                       N    
RDG04206200WATRL000000004K00000000000002059004806192015103824N000000000000N40       000210400K 10000000010000002054           
CUS0420620000104167214008         CAMEAU, RONALD      2400 BRENTWOOD AVE                      000N        CARE OF             
MTR04206200001000000000000000RA              32900509    005801300000013000000520000003NN  NNW 000                       N    
RDG04206200WATRL000000004K00000000000003038004906192015103826N000000000000N40       000020400K 10000000010000003038           
CUS0420620000104167216003         MAYOR AND CITY COUNC431 E 24TH ST                           000N        CARE OF             
MTR04206200001000000000000000RA              32176802    005801310000013100000520000003NN  NNW 000                       N    
RDG04206200WATRL000000004K00000000000000687000106192015102120N000000000000N40       000000400K 10000000010000000687           
CUS0420620000104167217001         MAYOR AND CITY COUNC2308 GREENMOUNT AVE                     000N        CARE OF             
MTR04206200001000000000000000RA              74815060    007501320000013200000350000003NN  NNW 000                       N    
RDG04206200WATRL000000004K00000000000000000000206192015102122N000000000000N40       000020400K 10000000010000000000           
CUS0420620000104167218009         DEPT RECREATION &PAR2304-06 GREENMOUNT AVE                  000N        CARE OF             
MTR04206200001000000000000000RA              44782207    000101330000013300000520000003NN  NNW 000                       N    
RDG04206200WATRL000000004K00000000000001596000306192015102129N000100000010N40       000070400K 10000000010000001596           
CUS0420620000104167219007         HAMM, MICHAEL       446 E 23RD ST                           000N        CARE OF             
MTR04206200001000000000000000RA              40049632    005801340000013400000520000003NN  NNW 000                       N    
RDG04206200WATRL000000004K00000000000001599008206292015070754N000000000000U40       000380400K 10000000010000001599           
CUS0420620000104373950007         CITY HOMES INC.     444 E 23RD ST                           000N        CARE OF             
MTR04206200001000000000000000RA              42810200    005801350000013500000520000003NN  NNW 000                       N    
RDG04206200WATRL000000004K00000000000003236008306292015070847N000000000040U40       000530400K 10000000010000003205           
CUS0420620000104165212004         MENDOZA, VICTOR     440 E 23RD ST                           000N        CARE OF             
MTR04206200001000000000000000RA              44002561    005801360000013600000520000003NN  NNW 000                       N    
RDG04206200WATRL000000004K00000000000000963008406292015070852N000000000000U40       000050400K 10000000010000000963           
CUS0420620000104165213002         WOODEN, JERRY T     438 E 23RD ST                           000N        CARE OF             
MTR04206200001000000000000000RA              44002558    005801370000013700000520000003NN  NNW 000                       N    
RDG04206200WATRL000000004K00000000000002150008506292015070855N000000000000U40       000030400K 10000000010000002150           
CUS0420620000104373951005         LAURETTA J DORSEY   436 E 23RD ST                           000N        CARE OF             
MTR04206200001000000000000000RA              10003445    005801380000013800000570000003NN  NNW 000   VACANT PROPERTY     N    
RDG04206200WATRL000000004K00000000000000000008606292015070858N000000000000U40       000030400K 10000000010000000000           
CUS0420620000104165214000         BMV LLC             434 E 23RD ST                           000N        CARE OF             
MTR04206200001000000000000000RA              44173306    005801390000013900000520000000NN  NNW 000   VACANT PROPERTY     N    
RDG04206200WATRL000000004K00000000000001401008106292015070716N000000000000U40       000430400K 10000000010000001401           
CUS0420620000104165215007         BMV, LLC            430 E 23RD ST                           000N        CARE OF             
MTR04206200001000000000000000RA              10018598    005801400000014000000570000003NN  NNW 000                       N    
RDG04206200WATRL000000004K00000000000000633008706292015070925N000000000080U40       000270400K 10000000010000000588           
CUS0420620000104372977001         428E23 LLC          428 E 23RD ST                           000N        CARE OF             
MTR04206200001000000000000000RA              42809913    005801410000014100000520000003NN  NNW 000   VACANT PROPERTY     N    
RDG04206200WATRL000000004K00000000000000296008806292015070928N000000000000U40       000030400K 10000000010000000296           
CUS0420620000104165216005         NOVOGRAD, JACK  (TR)426 E 23RD ST                           000N        CARE OF             
MTR04206200001000000000000000RA              10013191    005801420000014200000570000003NN  NNW 000                       N    
RDG04206200WATRL000000004K00000000000000075008906292015070942N000000000020U40       000140400K 10000000010000000064           
CUS0420620000104372619009         GILL, LOUISE        424 E 23RD ST                           000N        CARE OF             
MTR04206200001000000000000000RA              99291406    005801430000014300000570000003NN  NNW 000                       N    
RDG04206200WATRL000000004K00000000000005274009006292015071009N000400000070U40       000270400K 10000000010000005263           
CUS0420620000104357791005         L AND E LLC         422 E 23RD ST                           000N        CARE OF             
MTR04206200001000000000000000RA              75422724    005801440000014400000350000003NN  NNW 000                       N    
RDG04206200WATRL000000004K00000000000000102009106292015071021N000000000020U40       000120400K 10000000010000000102           
CUS0420620000104354367007         PRATT, GREGORY      420 E 23RD ST                           000N        CARE OF             
MTR04206200001000000000000000RA              30521610    005801450000014500000520000003NN  NNW 000                       N    
RDG04206200WATRL000000004K00000000000002529009206292015071028N000000000010U40       000070400K 10000000010000002518           
CUS0420620000104167222001         ST MATHEWS METHODIST410-18 E 23RD ST                        000N        CARE OF             
MTR04206200001000000000000000RA              25591867    005801460000014600000520000003NN  NNW 000                       N    
RDG04206200WATRL000000004K00000000000001903008006292015070633N000000000000U40       000160400K 10000000010000001889           
CUS0420620000104165217003         FREE WILL BAPTIST CH400 E 23RD ST                           000N        CARE OF             
MTR04206200001000000000000000RA              99999999    005801470000014700000620000003NN  NNW 000   INVALID DAC         N    
RDG04206200WATRL000000004K00000000000000000007906292015070617N000000000000U40       000670400K 10000000010000000000           
CUS0420620000104165199003         CARTER, CHARLES H   417 E 23RD ST                           000N        CARE OF             
MTR04206200001000000000000000RA              99999999    005801480000014800000620000000NN  NNW 000                       N    
RDG04206200WATRL000000004K00000000000000000009306292015071039S022000000000U40       000110400K 10000000010000000000           
CUS0420620000104165202005         HABC/RH             427 E 23RD ST                           000N        CARE OF             
MTR04206200001000000000000000RA              99999999    005801490000014900000620000003NN  NNW 000                       N    
RDG04206200WATRL000000004K00000000000000000009406292015071042S022000000000U40       000030400K 10000000010000001479           
CUS0420620000104165210008         BARCLAY GREENMOUNT N451 E 23RD ST                           000N        CARE OF             
MTR04206200001000000000000000RA              10010248    005801500000015000000570000003NN  NNW 000                       N    
RDG04206200WATRL000000004K00000000000000706009506292015071115N000000000000U40       000330400K 10000000010000000693           
CUS0420620000104167227000         COX, BERNARD        2212 GREENMOUNT AVE                     000N        CARE OF             
MTR04206200001000000000000000RA              27892425    007501510000015100000520000003NN  NNW 000                       N    
RDG04206200WATRL000000004K00000000000002164006506292015065501N000000000000U40       000870400K 10000000010000002159           
CUS0420620000104167228008         COX, BERNARD        2210 GREENMOUNT AVE                     000N        CARE OF             
MTR04206200001000000000000000RA              75427167    007501520000015200000350000003NN  NNW 000                       N    
RDG04206200WATRL000000004K00000000000000033006606292015065518N000000000000U40       000170400K 10000000010000000023           
CUS0420620000104167229006         BERNARD D COX       2208 GREENMOUNT AVE                     000N        CARE OF             
MTR04206200001000000000000000RA              33416693    007501530000015300000520000003NN  NNW 000                       N    
RDG04206200WATRL000000004K00000000000001219006706292015065628N000000000000U40       000700400K 10000000010000001200           
CUS0420620000104167231002         ENID G PALMER       2204 GREENMOUNT AVE                     000N        CARE OF             
MTR04206200001000000000000000RA              01098546    007501540000015400000610000003NN  NNW 000                       N    
RDG04206200WATRL000000004K00000000000000542009606292015071201N000000000000U40       000460400K 10000000010000000526           
CUS0420620000104167232000         RAMSEY, NAKASHA     2202 GREENMOUNT AVE                     000N        CARE OF             
MTR04206200001000000000000000RA              5097246     007501550000015500000320000003NN  NNW 000   VACANT PROPERTY     N    
RDG04206200WATRL000000004K00000000000000000009706292015071203N000000000000U40       000020400K 10000000010000000000           
CUS0420620000104167233008         HABC/RH             2200 GREENMOUNT AVE                     000N        CARE OF             
MTR04206200001000000000000000RA              24228111    005801560000015600000520000003NN  NNW 000                       N    
RDG04206200WATRL000000004K00000000000005477009806292015071207N000000000000U40       000040400K 10000000010000005477           
CUS0420620000104167235003         PEOPLE'S HOMESTEADIN446 E 22ND ST                           000N        CARE OF             
MTR04206200001000000000000000RA              99999999    007501570000015700000620000003NN  NNW 000   VACANT PROPERTY     N    
RDG04206200WATRL000000004K00000000000000669009906292015071244N000000000000U40       000370400K 10000000010000000669           
CUS0420620000104164263008         BARCLAY GREENMOUNT N444 E 22ND ST                           000N        CARE OF             
MTR04206200001000000000000000RA              43904357    005801580000015800000520000000NN  NNW 000                       N    
RDG04206200WATRL000000004K00000000000005751010006292015071303N000000000000U40       000190400K 10000000010000005728           
CUS0420620000104167236001         G & K INVESTMENTS, L442 E 22ND ST                           000N        CARE OF             
MTR04206200001000000000000000RA              33416319    007501590000015900000520000003NN  NNW 000                       N    
RDG04206200WATRL000000004K00000000000002231010106292015071314N000000000000U40       000110400K 10000000010000002220           
CUS0420620000104167237009         MAYOR AND CITY COUNC434 E 22ND ST                           000N        CARE OF             
MTR04206200001000000000000000RA              35100901    007501600000016000000520000003NN  NNW 000                       N    
RDG04206200WATRL000000004K00000000000001796010206292015071357N000000000000U40       000430400K 10000000010000001796           
CUS0420620000104167238007         VIRGINIA JONES ETAL 432 E 22ND ST                           000N        CARE OF             
MTR04206200001000000000000000RA              30001922    007501610000016100000570000003NN  NNW 000                       N    
RDG04206200WATRL000000004K00000000000001185010306292015071415N000100000020U40       000180400K 10000000010000001185           
CUS0420620000104167239005         HABC/R4             430 E 22ND ST                           000N        CARE OF             
MTR04206200001000000000000000RA              52771367    007501620000016200000520000003NN  NNW 000                       N    
RDG04206200WATRL000000004K00000000000000808010406292015071446N000300000010U40       000310400K 10000000010000000698           
CUS0420620000104445899000         HOMEWOOD LTD PTNRSHP430 E 22ND ST                           000N        CARE OF             
MTR04206200001000000000000000RA              00166960    000101630000016300000570000003NN  NNW 000                       N    
RDG04206200WATRL000000004K00000000000000808010506292015071514N000300000010U40       000280400K 10000000010000000698           
CUS0420620000104167240003         BARCLAY GREENMOUNT N428 E 22ND ST                           000N        CARE OF             
MTR04206200001000000000000000RA              28767053    007501640000016400000520000003NN  NNW 000                       N    
RDG04206200WATRL000000004K00000000000005409010606292015071520N000000000000U40       000060400K 10000000010000005255           
CUS0420620000104372970006         GRIMES, DAVID J     408 E 22ND ST                           000N        CARE OF             
MTR04206200001000000000000000RA              10014361    005801650000016500000570000003NN  NNW 000                       N    
RDG04206200WATRL000000004K00000000000000262010906292015071812N000000000000U40       000760400K 10000000010000000251           
CUS0420620000104372972002         SECOND CENTURY HOMES426 E 22ND ST                           000N        CARE OF             
MTR04206200001000000000000000RA              10007502    005801660000016600000570000003NN  NNW 000   VACANT PROPERTY     N    
RDG04206200WATRL000000004K00000000000000000010706292015071536N000000000000U40       000160400K 10000000010000000000           
CUS0420620000104357667007         HABC                2317 BARCLAY ST                         000N        CARE OF             
MTR04206200001000000000000000RA              99999999    005801670000016700000620000003NN  NNW 000                       N    
RDG04206200WATRL000000004K00000000000000000006806292015065821S002000000000U40       001130400K 10000000010000002106           
CUS0420620000104167241001         SCOTT JR., ROBERT N 420 E 22ND ST                           000N        CARE OF             
MTR04206200001000000000000000RA              01098155    007501680000016800000610000003NN  NNW 000                       N    
RDG04206200WATRL000000004K00000000000000347006906292015065843N000400000010U40       000220400K 10000000010000000339           
CUS0420620000104167242009         CHAMBERS, DORETHA AN418 E 22ND ST                           000N        CARE OF             
MTR04206200001000000000000000RA              30000339    007501690000016900000570000003NN  NNW 000                       N    
RDG04206200WATRL000000004K00000000000000617007006292015065905N000000000000U40       000220400K 10000000010000000591           
CUS0420620000104167243007         BROCK, ERIC         416 E 22ND ST                           000N        CARE OF             
MTR04206200001000000000000000RA              36699303    007501700000017000000520000003NN  NNW 000                       N    
RDG04206200WATRL000000004K00000000000002198007106292015065924N000000000000U40       000190400K 10000000010000002178           
CUS0420620000104383942002         WALTERS, DELEDA     414 E 22ND ST                           000N        CARE OF             
MTR04206200001000000000000000RA              10010423    005801710000017100000570000003NN  NNW 000                       N    
RDG04206200WATRL000000004K00000000000000178007206292015065954N000000000010U40       000300400K 10000000010000000165           
CUS0420620000104167244005         CORNELIA BAILEY     404 E 22ND ST                           000N        CARE OF             
MTR04206200001000000000000000RA              43904356    007501720000017200000520000003NN  NNW 000                       N    
RDG04206200WATRL000000004K00000000000001241011006292015071843N000000000000U40       000310400K 10000000010000001233           
CUS0420620000104167245002         JAMES F WATSON      400 E 22ND ST                           000N        CARE OF             
MTR04206200001000000000000000RA              33736665    007501730000017300000520000003NN  NNW 000                       N    
RDG04206200WATRL000000004K00000000000003084010806292015071656N000400000010U40       000800400K 10000000010000003082           
CUS0420620000104167247008         MARTHA A PARKER     405 E 22ND ST                           000N        CARE OF             
MTR04206200001000000000000000RA              01098281    007501740000017400000610000003NN  NNW 000                       N    
RDG04206200WATRL000000004K00000000000003713004906292015064935N000000000000U40       000690400K 10000000010000003694           
CUS0420620000104366803007         CHRISTIAN, KATHY    407 E 22ND ST                           000N        CARE OF             
MTR04206200001000000000000000RA              45388923    007501750000017500000520000000NN  NNW 000                       N    
RDG04206200WATRL000000004K00000000000001344005006292015065006N000000000000U40       000310400K 10000000010000001311           
CUS0420620000104164251003         MOLOCK, RENAE       409 E 22ND ST                           000N        CARE OF             
MTR04206200001000000000000000RA              10008499    005801760000017600000570000003NN  NNW 000                       N    
RDG04206200WATRL000000004K00000000000000306005106292015065021N000000000000U40       000150400K 10000000010000000286           
CUS0420620000104164253009         JHRM, LLC           415 E 22ND ST                           000N        CARE OF             
MTR04206200001000000000000000RA              40248321    005801770000017700000520000003NN  NNW 000   VACANT PROPERTY     N    
RDG04206200WATRL000000004K00000000000006281005206292015065027N000000000000U40       000060400K 10000000010000006281           
CUS0420620000104167248006         PEOPLE'S HOMESTEADIN417 E 22ND ST                           000N        CARE OF             
MTR04206200001000000000000000RA              01098377    007501780000017800000610000003NN  NNW 000   VACANT PROPERTY     N    
RDG04206200WATRL000000004K00000000000000277005306292015065030N000000000000U40       000030400K 10000000010000000277           
CUS0420620000104167249004         RAGLAND CAROLYN D   419 E 22ND ST                           000N        CARE OF             
MTR04206200001000000000000000RA              25591872    007501790000017900000520000003NN  NNW 000                       N    
RDG04206200WATRL000000004K00000000000004531005406292015065055N000000000000U40       000250400K 10000000010000004516           
CUS0420620000104164254007         NICELY, STEFON T    421 E 22ND ST                           000N        CARE OF             
MTR04206200001000000000000000RA              10022661    005801800000018000000570000003NN  NNW 000                       N    
RDG04206200WATRL000000004K00000000000000381005506292015065116N000000000000U40       000210400K 10000000010000000351           
CUS0420620000104164255004         MORRIS, NICKO       423 E 22ND ST                           000N        CARE OF             
MTR04206200001000000000000000RA              14922044    005801810000018100000310000003NN  NNW 000                       N    
RDG04206200WATRL000000004K00000000000000718005606292015065137N000000000000U40       000210400K 10000000010000000714           
CUS0420620000104372494007         MORRIS, NICKO       425 E 22ND ST                           000N        CARE OF             
MTR04206200001000000000000000RA              22606674    005801820000018200000520000003NN  NNW 000                       N    
RDG04206200WATRL000000004K00000000000004482005706292015065200N000000000000U40       000230400K 10000000010000004463           
CUS0420620000104167250002         WALKER, DONNA MICHEL427 E 22ND ST                           000N        CARE OF             
MTR04206200001000000000000000RA              14928400    007501830000018300000310000003NN  NNW 000                       N    
RDG04206200WATRL000000004K00000000000000576005806292015065228N000000000000U40       000280400K 10000000010000000560           
CUS0420620000104164256002         MOORE, LAMECKA      429 E 22ND ST                           000N        CARE OF             
MTR04206200001000000000000000RA              77894223    007501840000018400000360000003NN  NNW 000                       N    
RDG04206200WATRL000000004K00000000000000000005906292015065238S001000000000U40       000100400K 10000000010000000000           
CUS0420620000104164258008         REGINALD/CHARLES EKE433 E 22ND ST                           000N        CARE OF             
MTR04206200001000000000000000RA              14913898    005801850000018500000310000000NN  NNW 000   VACANT PROPERTY     N    
RDG04206200WATRL000000004K00000000000000032006006292015065243N000000000000U40       000050400K 10000000010000000032           
CUS0420620000104164259006         GEORGE C WILKERSON  435 E 22ND ST                           000N        CARE OF             
MTR04206200001000000000000000RA              78027748    007501860000018600000360000003NN  NNW 000                       N    
RDG04206200WATRL000000004K00000000000000000006106292015065247S001000000000U40       000040400K 10000000010000000000           
CUS0420620000104164260004         A&B RENTALS, LLC    441 E 22ND ST                           000N        CARE OF             
MTR04206200001000000000000000RA              74690597    005801870000018700000350000003NN  NNW 000                       N    
RDG04206200WATRL000000004K00000000000000214006206292015065315N000000000000U40       000280400K 10000000010000000178           
CUS0420620000104377775004         PEOPLE'S HOMESTEADIN443 E 22ND ST                           000N        CARE OF             
MTR04206200001000000000000000RA              99999999    005801880000018800000620000003NN  NNW 000   VACANT PROPERTY     N    
RDG04206200WATRL000000004K00000000000000000006306292015065317N000000000000U40       000020400K 10000000010000000000           
CUS0420620000104366685008         ALBERTA THOMAS EST. 445 E 22ND ST                           000N        CARE OF             
MTR04206200001000000000000000RA              45384843    005801890000018900000520000003NN  NNW 000                       N    
RDG04206200WATRL000000004K00000000000000849006406292015065334N000000000000U40       000170400K 10000000010000000841           
CUS0420620000104167252008         OH, YUN SIK         451 E 22ND ST                           000N        CARE OF             
MTR04206200001000000000000000RA              30002268    007501910000019100000570000003NN  NNW 000                       N    
RDG04206200WATRL000000004K00000000000000170003306292015064011N000000000000U40       001140400K 10000000010000000161           
CUS0420620000104167253006         MELTON, GREGORY     2124 GREENMOUNT AVE                     000N        CARE OF             
MTR04206200001000000000000000RA              27132629    005801920000019200000520000003NN  NNW 000   VACANT PROPERTY     N    
RDG04206200WATRL000000004K00000000000000048003206292015063817N000000000000U40       000390400K 10000000010000000048           
CUS0420620000104167254004         HABC/RH             2122 GREENMOUNT AVE                     000N        CARE OF             
MTR04206200001000000000000000RA              31345220    005801930000019300000520000003NN  NNW 000                       N    
RDG04206200WATRL000000004K00000000000002820003406292015064026N000000000000U40       000150400K 10000000010000002820           
CUS0420620000104167255001         THE PHILADELPHIA BAP2120 GREENMOUNT AVE                     000N        CARE OF             
MTR04206200001000000000000000RA              27819369    005801940000019400000520000003NN  NNW 000                       N    
RDG04206200WATRL000000004K00000000000001343003506292015064048N000400000020U40       000220400K 10000000010000001342           
CUS0420620000104167262007         ANCHORS OF HOPE, LLC2114-18 GREENMOUNT AVE                  000N        CARE OF             
MTR04206200001000000000000000RA              39584602    005801950000019500000520000003NN  NNW 000                       N    
RDG04206200WATRL000000004K00000000000001599003606292015064120N000100000010U40       000320400K 10000000010000001599           
CUS0420620000104167263005         ANCHORS OF HOPE, LLC2112 GREENMOUNT AVE                     000N        CARE OF             
MTR04206200001000000000000000RA              27894079    007501960000019600000520000003NN  NNW 000                       N    
RDG04206200WATRL000000004K00000000000000000003706292015064122N000000000000U40       000020400K 10000000010000000000           
CUS0420620000104167266008         BELL, GERALDINE     2106 GREENMOUNT AVE                     000N        CARE OF             
MTR04206200001000000000000000RA              99999999    005801970000019700000620000003NN  NNW 000   VACANT PROPERTY     N    
RDG04206200WATRL000000004K00000000000000000003806292015064143S022000000000U40       000210400K 10000000010000000113           
CUS0420620000104167267006         LEROY HAWKINS       2102-04 GREENMOUNT AVE                  000N        CARE OF             
MTR04206200001000000000000000RA              30791407    007501980000019800000520000003NN  NNW 000                       N    
RDG04206200WATRL000000004K00000000000004764003906292015064317N000000000000U40       000940400K 10000000010000004761           
CUS0420620000104167268004         YEH, TZU YEN        2100 GREENMOUNT AVE                     000N        CARE OF             
MTR04206200001000000000000000RA              50789007    005801990000019900000520000003NN  NNW 000                       N    
RDG04206200WATRL000000004K00000000000000688004006292015064331N000000000000U40       000140400K 10000000010000000670           
CUS0420620000104164211007         HOUSING AUTHORITY OF424 E 21ST ST                           000N        CARE OF             
MTR04206200001000000000000000RA              48595388    005802000000020000000520000000NN  NNW 000                       N    
RDG04206200WATRL000000004K00000000000000575000106292015064433N000000000001U40       000230400K 10000000010000000575           
CUS0420620000104374407007         JOHNSON JR., LENZIE 430 E 21ST ST                           000N        CARE OF             
MTR04206200001000000000000000RA              01080737    005802010000020100000610000003NN  NNW 000                       N    
RDG04206200WATRL000000004K00000000000000959000206292015064410N000000000001U40       000390400K 10000000010000000941           
CUS0420620000104167272006         WHITE JR., CHARLES W415 E 21ST ST                           000N        CARE OF             
MTR04206200001000000000000000RA              52292569    007502020000020200000520000003NN  NNW 000                       N    
RDG04206200WATRL000000004K00000000000002188003106292015063738N000000000000U40       002020400K 10000000010000002188           
CUS0420620000104166867004         HOUSING AUTHORITY OF426 E 20TH ST                           000N        CARE OF             
MTR04206200001000000000000000RA              41089894    007502030000020300000520000003NN  NNW 000                       N    
RDG04206200WATRL000000004K00000000000000000000306292015062210S002000000000U40       000240400K 10000000010000003686           
CUS0420620000104371702004         HOUSING AUTHORITY OF410 E 20TH ST                           000N        CARE OF             
MTR04206200001000000000000000RA              50787829    005802040000020400000520000000NN  NNW 000                       N    
RDG04206200WATRL000000004K00000000000000000000406292015062213S002000000000U40       000030400K 10000000010000002787           
CUS0420620000104166876005         HOUSING AUTHORITY OF403 E 20TH ST                           000N        CARE OF             
MTR04206200001000000000000000RA              26796070    007502050000020500000520000003NN  NNW 000                       N    
RDG04206200WATRL000000004K00000000000000000000506292015062216S002000000000U40       000030400K 10000000010000005997           
CUS0420620000104357309006         HOUSING AUTHORITY OF405 E 20TH ST                           000N        CARE OF             
MTR04206200001000000000000000RA              46877415    005802060000020600000520000003NN  NNW 000                       N    
RDG04206200WATRL000000004K00000000000000000000606292015062218S002000000000U40       000020400K 10000000010000001739           
CUS0420620000104166877003         HOUSING AUTHORITY OF407 E 20TH ST                           000N        CARE OF             
MTR04206200001000000000000000RA              19462731    007502070000020700000520000003NN  NNW 000                       N    
RDG04206200WATRL000000004K00000000000000000000706292015062220S002000000000U40       000020400K 10000000010000006992           
CUS0420620000104166878001         HOUSING AUTHORITY OF409 E 20TH ST                           000N        CARE OF             
MTR04206200001000000000000000RA              00119825    007502080000020800000570000003NN  NNW 000                       N    
RDG04206200WATRL000000004K00000000000000000000806292015062223S002000000000U40       000030400K 10000000010000000275           
CUS0420620000104166879009         HOUSING AUTHORITY OF413 E 20TH ST                           000N        CARE OF             
MTR04206200001000000000000000RA              39257902    007502090000020900000520000003NN  NNW 000   FERRULE APPLIED     N    
RDG04206200WATRL000000004K00000000000000000000906292015062225S002000000000U40       000020400K 10000000010000000021           
CUS0420620000104166880007         HOUSING AUTHORITY OF413 E 20TH ST                           000N        CARE OF             
MTR04206200001000000000000000RA              43905478    007502100000021000000520000003NN  NNW 000                       N    
RDG04206200WATRL000000004K00000000000000000001006292015062228S002000000000U40       000030400K 10000000010000000000           
CUS0420620000104166881005         HOUSING AUTHORITY OF417 E 20TH ST                           000N        CARE OF             
MTR04206200001000000000000000RA              26795857    007502110000021100000520000003NN  NNW 000                       N    
RDG04206200WATRL000000004K00000000000000000001106292015062232S002000000000U40       000040400K 10000000010000004283           
CUS0420620000104166882003         HOUSING AUTHORITY OF419 E 20TH ST                           000N        CARE OF             
MTR04206200001000000000000000RA              33731054    007502120000021200000520000003NN  NNW 000                       N    
RDG04206200WATRL000000004K00000000000000000001206292015062234S002000000000U40       000020400K 10000000010000006328           
CUS0420620000104166883001         HOUSING AUTHORITY OF421 E 20TH ST                           000N        CARE OF             
MTR04206200001000000000000000RA              99999999    007502130000021300000520000003NN  NNW 000                       N    
RDG04206200WATRL000000004K00000000000000000001306292015062240S002000000000U40       000060400K 10000000010000004664           
CUS0420620000104164171003         HOUSING AUTHORITY   423 E 20TH ST                           000N        CARE OF             
MTR04206200001000000000000000RA              48589411    005802140000021400000520000000NN  NNW 000                       N    
RDG04206200WATRL000000004K00000000000000000001406292015062242S002000000000U40       000020400K 10000000010000002579           
CUS0420620000104166884009         HOUSING AUTHORITY OF425 E 20TH ST                           000N        CARE OF             
MTR04206200001000000000000000RA              39257908    007502150000021500000520000003NN  NNW 000                       N    
RDG04206200WATRL000000004K00000000000000000001506292015062249S002000000000U40       000070400K 10000000010000004565           
CUS0420620000104166885006         HOUSING AUTHORITY OF427 E 20TH ST                           000N        CARE OF             
MTR04206200001000000000000000RA              43905622    007502160000021600000520000003NN  NNW 000                       N    
RDG04206200WATRL000000004K00000000000000000001606292015062251S002000000000U40       000020400K 10000000010000006459           
CUS0420620000104166886004         HOUSING AUTHORITY OF429 E 20TH ST                           000N        CARE OF             
MTR04206200001000000000000000RA              27894084    007502170000021700000520000003NN  NNW 000                       N    
RDG04206200WATRL000000004K00000000000000000001706292015062253S002000000000U40       000020400K 10000000010000005027           
CUS0420620000104372734006         HOUSING AUTHORITY OF431 E 20TH ST                           000N        CARE OF             
MTR04206200001000000000000000RA              39256199    007502180000021800000520000000NN  NNW 000                       N    
RDG04206200WATRL000000004K00000000000000000001806292015062259S002000000000U40       000060400K 10000000010000001683           
CUS0420620000104166898009         HOUSING AUTHORITY OF434 E NORTH AVE                         000N        CARE OF             
MTR04206200001000000000000000RA              01098521    007502190000021900000610000003NN  NNW 000                       N    
RDG04206200WATRL000000004K00000000000000124001906292015063059N000000000001U40       004750400K 10000000010000000124           
CUS0420620000104166899007         HOUSING AUTHORITY OF432 E NORTH AVE                         000N        CARE OF             
MTR04206200001000000000000000RA              33416267    007502200000022000000520000003NN  NNW 000                       N    
RDG04206200WATRL000000004K00000000000009238002006292015063105N000000000001U40       000060400K 10000000010000009238           
CUS0420620000104383911007         HOUSING AUTHORITY OF430 E NORTH AVE                         000N        CARE OF             
MTR04206200001000000000000000RA              39585253    005802210000022100000520000003NN  NNW 000                       N    
RDG04206200WATRL000000004K00000000000005480002106292015063112N000000000000U40       000070400K 10000000010000005480           
CUS0420620000104166902009         AKERMAN, ADRIAN     426 E NORTH AVE                         000N        CARE OF             
MTR04206200001000000000000000RA              30001945    007502220000022200000570000003NN  NNW 000   VACANT PROPERTY     N    
RDG04206200WATRL000000004K00000000000000000002206292015063115N000000000000U40       000030400K 10000000010000000000           
CUS0420620000104166903007         LUTCHMAN, DAVE D.   424 E NORTH AVE                         000N        CARE OF             
MTR04206200001000000000000000RA              43905215    007502230000022300000520000003NN  NNW 000                       N    
RDG04206200WATRL000000004K00000000000000889002306292015063148N000000000010U40       000330400K 10000000010000000874           
CUS0420620000104166904005         AGUILAR, ILEANA M   422 E NORTH AVE                         000N        CARE OF             
MTR04206200001000000000000000RA              00119824    007502240000022400000570000003NN  NNW 000                       N    
RDG04206200WATRL000000004K00000000000001399002406292015063210N000000000000U40       000220400K 10000000010000001390           
CUS0420620000104166905002         KELLY, BEVERLY ANN  420 E NORTH AVE                         000N        CARE OF             
MTR04206200001000000000000000RA              52292421    007502250000022500000520000003NN  NNW 000                       N    
RDG04206200WATRL000000004K00000000000001501002506292015063237N000000000000U40       000270400K 10000000010000001479           
CUS0420620000104166909004         PEOPLE'S HOMESTEADIN410 E NORTH AVE                         000N        CARE OF             
MTR04206200001000000000000000RA              46890462    007502260000022600000520000003NN  NNW 000                       N    
RDG04206200WATRL000000004K00000000000000428002606292015063313N000000000000U40       000360400K 10000000010000000426           
CUS0420620000104374663005         SNOWDEN JR., JESSE  408 E NORTH AVE                         000N        CARE OF             
MTR04206200001000000000000000RA              00119961    007502270000022700000570000003NN  NNW 000                       N    
RDG04206200WATRL000000004K00000000000001161002706292015063337N000000000000U40       000240400K 10000000010000001131           
CUS0420620000104166911000         HOUSING AUTHORITY OF406 E NORTH AVE                         000N        CARE OF             
MTR04206200001000000000000000RA              77544945    007502280000022800000350000003NN  NNW 000                       N    
RDG04206200WATRL000000004K00000000000000000002806292015063346N000000000000U40       000090400K 10000000010000000000           
CUS0420620000104166912008         COMMUNITY DEVELOPMEN404 E NORTH AVE                         000N        CARE OF             
MTR04206200001000000000000000RA              77544944    007502290000022900000350000003NN  NNW 000                       N    
RDG04206200WATRL000000004K00000000000000079002906292015063413N000000000000U40       000270400K 10000000010000000063           
CUS0420620000104166913006         HOUSING AUTHORITY OF402 E NORTH AVE                         000N        CARE OF             
MTR04206200001000000000000000RA              77544947    007502300000023000000350000003NN  NNW 000                       N    
RDG04206200WATRL000000004K00000000000000000003006292015063416N000000000000U40       000030400K 10000000010000000000           
RTR04206200NN02290229000002290000000002290229000431NY022902290229000100310000000000000000000001    06092015NY020000 N         
RHD04212100NN02390239000002390000000002390239000141NY023902390239000900000000000000000000000001    06222015NY020000 N         
CUS0421210000104175728007         WILLIAM R PATTERSON 1032 E 36TH ST                          000N        CARE OF             
MTR04212100001000000000000000RA              30791505    007500010000000100000520000003NN  NNW 000                       N    
RDG04212100WATRL000000004K00000000000001619000106302015062126N000000000000N40       000000400K 10000000010000001613           
CUS0421210000104175727009         GABAI, TAMARA B.    1030 E 36TH ST                          000N        CARE OF             
MTR04212100001000000000000000RA              35100531    007500020000000200000520000003NN  NNW 000                       N    
RDG04212100WATRL000000004K00000000000001774000206302015062151N000000000000N40       000250400K 10000000010000001764           
CUS0421210000104175726001         PALMOBO, JOYCE LEE  1028 E 36TH ST                          000N        CARE OF             
MTR04212100001000000000000000RA              10010567    005800030000000300000570000003NN  NNW 000                       N    
RDG04212100WATRL000000004K00000000000000103000306302015062216N000000000000N40       000250400K 10000000010000000099           
CUS0421210000104175725003         RICCOBONO, MARK A.  1026 E 36TH ST                          000N        CARE OF             
MTR04212100001000000000000000RA              19462831    007500040000000400000520000003NN  NNW 000                       N    
RDG04212100WATRL000000004K00000000000005794000406302015062236N000000000000N40       000200400K 10000000010000005784           
CUS0421210000104175724006         BROWN, CHRISTINE M  1024 E 36TH ST                          000N        CARE OF             
MTR04212100001000000000000000RA              26375493    007500050000000500000520000003NN  NNW 000                       N    
RDG04212100WATRL000000004K00000000000000053000506302015062310N000000000000N40       000340400K 10000000010000000049           
CUS0421210000104175723008         HUD                 1022 E 36TH ST                          000N        CARE OF             
MTR04212100001000000000000000RA              30001894    007500060000000600000570000003NN  NNW 000                       N    
RDG04212100WATRL000000004K00000000000000008000606302015062330N000000000000N40       000200400K 10000000010000000008           
CUS0421210000104175722000         BEY-WINCHESTER, MANU1020 E 36TH ST                          000N        CARE OF             
MTR04212100001000000000000000RA              35100525    007500070000000700000520000003NN  NNW 000                       N    
RDG04212100WATRL000000004K00000000000003239000706302015062358N000000000000N40       000280400K 10000000010000003225           
CUS0421210000104175721002         CEDRONE, NONA J.    1018 E 36TH ST                          000N        CARE OF             
MTR04212100001000000000000000RA              35100481    007500080000000800000520000003NN  NNW 000                       N    
RDG04212100WATRL000000004K00000000000002767000806302015062414N000000000000N40       000160400K 10000000010000002743           
CUS0421210000104175720004         ALPHONSUS DUVALL    3605 REXMERE RD                         000N        CARE OF             
MTR04212100001000000000000000RA              27893559    007500090000000900000520000003NN  NNW 000                       N    
RDG04212100WATRL000000004K00000000000000898000906302015062529N000000000000N40       000750400K 10000000010000000898           
CUS0421210000104175719006         MAUREEN C MAGUIRE   3607 REXMERE RD                         000N        CARE OF             
MTR04212100001000000000000000RA              01090147    005800100000001000000610000003NN  NNW 000                       N    
RDG04212100WATRL000000004K00000000000000209001006302015062549N000000000010N40       000200400K 10000000010000000203           
CUS0421210000104367417005         CATHER, STEPHEN J   3609 REXMERE RD                         000N        CARE OF             
MTR04212100001000000000000000RA              99292301    005800110000001100000570000000NN  NNW 000                       N    
RDG04212100WATRL000000004K00000000000000637001106302015062624N000000000000N40       000350400K 10000000010000000625           
CUS0421210000104175718008         CAMPBELL, JESSICA A.3611 REXMERE RD                         000N        CARE OF             
MTR04212100001000000000000000RA              99289134    005800120000001200000570000003NN  NNW 000                       N    
RDG04212100WATRL000000004K00000000000000710001206302015062652N000000000000N40       000280400K 10000000010000000696           
CUS0421210000104175717000         HILL, BONITA M      3613 REXMERE RD                         000N        CARE OF             
MTR04212100001000000000000000RA              30523463    005800130000001300000520000003NN  NNW 000                       N    
RDG04212100WATRL000000004K00000000000004099001306302015062734N000000000000N40       000420400K 10000000010000004094           
CUS0421210000104175716002         VAN HELDEN, SYLVIE  3615 REXMERE RD                         000N        CARE OF             
MTR04212100001000000000000000RA              30524151    005800140000001400000520000003NN  NNW 000                       N    
RDG04212100WATRL000000004K00000000000002027001406302015062756N000000000000N40       000220400K 10000000010000002021           
CUS0421210000104175715004         JACOBER, DAVID MICHA3617 REXMERE RD                         000N        CARE OF             
MTR04212100001000000000000000RA              30524059    005800150000001500000520000003NN  NNW 000                       N    
RDG04212100WATRL000000004K00000000000002991001506302015062840N000000000000N40       000440400K 10000000010000002976           
CUS0421210000104367414002         DISCLAFANI, CARRIE B3621 REXMERE RD                         000N        CARE OF             
MTR04212100001000000000000000RA              48582586    005800160000001600000520000000NN  NNW 000                       N    
RDG04212100WATRL000000004K00000000000000660001606302015062943N000000000011N40       000630400K 10000000010000000649           
CUS0421210000104175714007         BRIGGS, ISIAH       3629 REXMERE RD                         000N        CARE OF             
MTR04212100001000000000000000RA              35110503    005800170000001700000520000003NN  NNW 000                       N    
RDG04212100WATRL000000004K00000000000002167001706302015063028N000000000000N40       000450400K 10000000010000002156           
CUS0421210000104175713009         CHRISTENSEN, JOHN B 3631 REXMERE RD                         000N        CARE OF             
MTR04212100001000000000000000RA              30001770    007500180000001800000570000003NN  NNW 000                       N    
RDG04212100WATRL000000004K00000000000000299001806302015063101N000100000010N40       000330400K 10000000010000000299           
CUS0421210000104365164005         TIMOTHY B FABISZAK  3633 REXMERE RD                         000N        CARE OF             
MTR04212100001000000000000000RA              10010234    005800190000001900000570000003NN  NNW 000                       N    
RDG04212100WATRL000000004K00000000000000174001906302015063125N000000000000N40       000240400K 10000000010000000168           
CUS0421210000104175712001         STADELMAIER, C RICHA3701 REXMERE RD                         000N        CARE OF             
MTR04212100001000000000000000RA              00118742    007500200000002000000570000003NN  NNW 000                       N    
RDG04212100WATRL000000004K00000000000000768002006302015063215N000000000000N40       000500400K 10000000010000000751           
CUS0421210000104175711003         WILSON, JANE A      3703 REXMERE RD                         000N        CARE OF             
MTR04212100001000000000000000RA              00118741    007500210000002100000570000003NN  NNW 000                       N    
RDG04212100WATRL000000004K00000000000000906002106302015063234N000000000000N40       000190400K 10000000010000000902           
CUS0421210000104175710005         STONER, FRANCES C   3705 REXMERE RD                         000N        CARE OF             
MTR04212100001000000000000000RA              35100526    007500220000002200000520000003NN  NNW 000                       N    
RDG04212100WATRL000000004K00000000000000740002206302015063312N000000000010N40       000380400K 10000000010000000734           
CUS0421210000104175709007         WINDER, NOELLE      3707 REXMERE RD                         000N        CARE OF             
MTR04212100001000000000000000RA              41089676    007500230000002300000520000003NN  NNW 000                       N    
RDG04212100WATRL000000004K00000000000001436002306302015063407N000300000010N40       000550400K 10000000010000001391           
CUS0421210000104175730003         TOWSON, ELIZABETH AN3709 REXMERE RD                         000N        CARE OF             
MTR04212100001000000000000000RA              14911188    005800240000002400000310000003NN  NNW 000                       N    
RDG04212100WATRL000000004K00000000000000197002406302015063430N000000000000N40       000230400K 10000000010000000192           
CUS0421210000104175708009         FRATANTUONO, MOIRA  3711 REXMERE RD                         000N        CARE OF             
MTR04212100001000000000000000RA              78028725    007500250000002500000360000003NN  NNW 000                       N    
RDG04212100WATRL000000004K00000000000000013002506302015063436N000400000010N40       000060400K 10000000010000000000           
CUS0421210000104175707001         GINGHER, JED R      3713 REXMERE RD                         000N        CARE OF             
MTR04212100001000000000000000RA              35100338    007500260000002600000520000003NN  NNW 000                       N    
RDG04212100WATRL000000004K00000000000002070002606302015063500N000000000000N40       000240400K 10000000010000002050           
CUS0421210000104175706003         PRICHARD, BRANDON P.3715 REXMERE RD                         000N        CARE OF             
MTR04212100001000000000000000RA              43905881    007500270000002700000520000003NN  NNW 000                       N    
RDG04212100WATRL000000004K00000000000000541002706302015063536N000000000000N40       000360400K 10000000010000000526           
CUS0421210000104175705005         SABINA A. HABERLEN  3717 REXMERE RD                         000N        CARE OF             
MTR04212100001000000000000000RA              22609362    005800280000002800000520000003NN  NNW 000                       N    
RDG04212100WATRL000000004K00000000000001942002806302015063559N000000000001N40       000230400K 10000000010000001921           
CUS0421210000104175704008         WOODWARD, RICHARD L.3719 REXMERE RD                         000N        CARE OF             
MTR04212100001000000000000000RA              10010038    005800290000002900000570000003NN  NNW 000                       N    
RDG04212100WATRL000000004K00000000000000128002906302015063635N000000000000N40       000360400K 10000000010000000122           
CUS0421210000104175703000         GOING, LAUREN C     3721 REXMERE RD                         000N        CARE OF             
MTR04212100001000000000000000RA              10010036    005800300000003000000570000003NN  NNW 000                       N    
RDG04212100WATRL000000004K00000000000000203003006302015063701N000000000000N40       000260400K 10000000010000000194           
CUS0421210000104175702002         GINGHER, JED R.     3723 REXMERE RD                         000N        CARE OF             
MTR04212100001000000000000000RA              35100380    007500310000003100000520000003NN  NNW 000                       N    
RDG04212100WATRL000000004K00000000000002897003106302015063718N000000000000N40       000170400K 10000000010000002887           
CUS0421210000104175701004         CHESNIK, MATTHEW    3725 REXMERE RD                         000N        CARE OF             
MTR04212100001000000000000000RA              35100417    007500320000003200000520000003NN  NNW 000                       N    
