FHDNNNN014002674002674002736N                                                                                           008264
RHD09005300NN01180118000001180000000001070107000017NY010701070118000300080000000000000000000001    06082015NY020000 N         
CUS0900530000109257854001         DEPT. OF EDUCATION  2200 ROBB ST                            000N        CARE OF             
MTR09005300001000000000000000RA              31664149    001500010000000100000520000003NN  NNW 000                       N    
RDG09005300WATRL000000005K00000000000020982000106232015125142N000000000000N91       000000500K 10000000010000020917           
CUS0900530000109257853003         DEPT. OF EDUCATION  2200 ROBB ST                            000N        CARE OF             
MTR09005300001000000000000000RA              5603865     000800020000000200000410000003NN  NNW 000   CITY FIRE SERV      N    
RDG09005300WATRL000000006K00000000000000004000206232015125146N000000000000N91       000040600K 10000000010000000004           
CUS0900530000109257855008         2200 CORPORATION    2200 AISQUITH ST                        000N        CARE OF             
MTR09005300001000000000000000RA              01105517    000200030000000300000610000003NY  NNW 000                       N    
MTM0900530001105517    VAC                                                                                                    
RDG09005300WATRL000000005K00000000000000197000306232015125202N000000000000N91       000160500K 10000000010000000197           
CUS0900530000109257856006         2200 CORPORATION    2200 AISQUITH ST                        000N        CARE OF             
MTR09005300001000000000000000RA              1261734     000600040000000400000410000003NN  NNW 000   FIRE SERVICE        N    
RDG09005300WATRL000000006K00000000000000000000406242015115003N000000000000U91       000000600K 10000000010000000000           
CUS0900530000109257860008         MAYOR & CITY COUNCIL1210-28 E 20TH ST                       000N        CARE OF             
MTR09005300001000000000000000RA              00066930    001500050000000500000570000003NN  NNW 000                       N    
RDG09005300WATRL000000005K00000000000010745000506232015125216N000400000010N91       000090500K 10000000010000010666           
CUS0900530000109257859000         MAYOR & CITY COUNCIL1210-28 E 20TH ST                       000N        CARE OF             
MTR09005300001000000000000000RA              1288614     000800060000000600000410000003NN  NNW 000   CITY FIRE SERV      N    
RDG09005300WATRL000000006K00000000000000000000606232015125220N000000000000N91       000040600K 10000000010000000000           
CUS0900530000109257858002         2201 AISQUITH STREET2100 AIKEN ST                           000N        CARE OF             
MTR09005300001000000000000000RA              29256923    001500070000000700000520000003NN  NNW 000   VACANT PROPERTY     N    
RDG09005300WATRL000000005K00000000000004739000706232015125229N000000000000N91       000090500K 10000000010000004739           
CUS0900530000109257857004         2201 AISQUITH STREET2100 AIKEN ST                           000N        CARE OF             
MTR09005300001000000000000000RA              E23088      000600080000000800000430000003NN  NNW 000   FIRE SERVICE        N    
RDG09005300WATRL000000006K00000000000000000000806232015125232N000000000000N91       000030600K 10000000010000000000           
CUS0900530000109257862004         MAYOR & CITY COUNCIL1210-28 E 20TH ST                       000N        CARE OF             
MTR09005300001000000000000000RA              6560094     005800090000000900000580000003NN  NNW 000                       N    
RDG09005300WATRL000000004K00000000000000000000906232015125237N000000000000N91       000050400K 10000000010000000000           
CUS0900530000109257861006         MAYOR & CITY COUNCIL1210-28 E 20TH ST                       000N        CARE OF             
MTR09005300001000000000000000RA              1288613     000800100000001000000410000003NN  NNW 000   CITY FIRE SERV      N    
RDG09005300WATRL000000006K00000000000000000001006242015115010S005000000000U91       000070600K 10000000010000016176           
CUS0900530000109257863002         CPMS LIMITED LIABILI1220-30 CURTAIN AVE                     000N        CARE OF             
MTR09005300001000000000000000RA              14912646    005800110000001100000310000003NY  NNW 000                       N    
MTM0900530014912646    OK                                                                                                     
RDG09005300WATRL000000005K00000000000000336000306242015115025N000100000010U91       000150500K 10000000010000000336           
CUS0900530000109257871005         WALGREEN #5408      1300-30 E NORTH AVE                     000N        CARE OF             
MTR09005300001000000000000000RA              54378015    000200120000001200000520000003NN  NNW 000                       N    
RDG09005300WATRL000000005K00000000000005062000406242015115030N000000000000U91       000050500K 10000000010000005050           
CUS0900530000109257872003         WALGREEN CO  # 5408 1300-30 E NORTH AVE                     000N        CARE OF             
MTR09005300001000000000000000RA              1160284     000800130000001300000410000003NN  NNW 000   FIRE SERVICE        N    
RDG09005300WATRL000000006K00000000000000000000506242015115033S005000000000U91       000030600K 10000000010000000095           
CUS0900530000109257926007         J4P ASSOCIATES      1400 E NORTH AVE                        000N        CARE OF             
MTR09005300001000000000000000RA              70880410    000300140000001400000470000003NY  NNW 000                       N    
MTM0900530070880410    OK                                                                                                     
RDG09005300WATRL000000005K00000000000009304000606242015115042N000000000000U91       000090500K 10000000010000009304           
CUS0900530000109257925009         J4P ASSOCIATES      1400 E NORTH AVE                        000N        CARE OF             
MTR09005300001000000000000000RA              1699501     000800150000001500000410000003NN  NNW 000   FIRE SERVICE        N    
RDG09005300WATRL000000006K00000000000000000000706242015115045S005000000000U91       000030600K 10000000010000000162           
CUS0900530000109257916008         MOUNT TABOR BAPTIST 1719 E OLIVER ST                        000N        CARE OF             
MTR09005300001000000000000000RA              35113566    007500160000001600000520000003NN  NNW 000                       N    
RDG09005300WATRL000000004K00000000000004028000806242015115050N000000000000U91       000050400K 10000000010000004017           
CUS0900530000109257917006         MT TABOR BAPTIST CHU1719 E OLIVER ST                        000N        CARE OF             
MTR09005300001000000000000000RA              1105113     000600170000001700000410000000NN  NNW 000   FIRE SERVICE        N    
RDG09005300WATRL000000006K00000000000000415000906242015115104N000000000000U91       000140600K 10000000010000000415           
CUS0900530000109420737000         BUREAU OF TRANSPORTA1801-25 E OLIVER ST                     000N        CARE OF             
MTR09005300001000000000000000RA              42877011    000200180000001800000520000003NY  NNW 000                       N    
MTM0900530042877011    OK                                                                                                     
RDG09005300WATRL000000005K00000000000009495001006242015115112N000000000000U91       000080500K 10000000010000009495           
CUS0900530000109454410003         COLUMBUS SCHOOL, LTD2000 E NORTH AVE                        000N        CARE OF             
MTR09005300001000000000000000RA              90000267    000200190000001900000570000003NN  NNW 000                       N    
RDG09005300WATRL000000005K00000000000003453001106242015115121N000000000010U91       000090500K 10000000010000000000           
CUS0900530000109454408007         COLUMBUS SCHOOL, LTD2000 E NORTH AVE                        000N        CARE OF             
MTR09005300001000000000000000RA              1200249     000600200000002000000570000003NN  NNW 000   FIRE SERVICE        N    
RDG09005300WATRL000000006K00000000000000000001206242015115124N000000000000U91       000030600K 10000000010000000000           
CUS0900530000109257918004         DEPT OF EDUCATION   1919 N BROADWAY                         000N        CARE OF             
MTR09005300002000000000000000RA              5163458     000800210000002100000630000003NN  NNW 000                       N    
RDG09005300WATAL000000006K00000000000000001001306242015115141N000100000010U91       000170600K 10000000010000000001           
RDG09005300WATBL000000006K00000000000038239001406242015115150N000400000010U91       000090600K 10000000010000037256           
CUS0900530000109257924002         DIAKON LUTHERAN SOCI1600 E NORTH AVE                        000N        CARE OF             
MTR09005300002000000000000000RA              20000043    000300220000002200000460000003NN  NNW 000                       N    
RDG09005300WATAL000000005K00000000000000000001506242015115156N000100000010U91       000060500K 10000000010000000000           
RDG09005300WATBL000000005K00000000000001786001606242015115204N000400000010U91       000080500K 10000000010000001559           
CUS0900530000109257923004         DIAKON LUTHERAN SOCI1600 E NORTH AVE                        000N        CARE OF             
MTR09005300001000000000000000RA              4373451     000800230000002300000410000003NN  NNW 000   FIRE SERVICE        N    
RDG09005300WATRL000000006K00000000000000030001706242015115210N000100000010U91       000060600K 10000000010000000030           
CUS0900530000109257920000         J4P ASSOCIATES      1400 E NORTH AVE                        000N        CARE OF             
MTR09005300001000000000000000RA              7114783     000300240000002400000640000003NN  NNW 000                       N    
RDG09005300WATRL000000005K00000000000011296001806242015115215N000000000000U91       000050500K 10000000010000011092           
CUS0900530000109257919002         J4P ASSOCIATES      1400 E NORTH AVE                        000N        CARE OF             
MTR09005300001000000000000000RA              4373439     000600250000002500000410000003NN  NNW 000   FIRE SERVICE        N    
RDG09005300WATRL000000006K00000000000000374001906242015115219N000000000000U91       000040600K 10000000010000000363           
CUS0900530000109257922006         J4P ASSOCIATES      1400 E NORTH AVE                        000N        CARE OF             
MTR09005300001000000000000000RA              1218835     000300260000002600000490000003NY  NNW 000                       N    
MTM090053001218835     OK                                                                                                     
RDG09005300WATRL000000005K00000000000000001002006242015115226N000000000000U91       000070500K 10000000010000000001           
CUS0900530000109257921008         J4P ASSOCIATES      1400 E NORTH AVE                        000N        CARE OF             
MTR09005300001000000000000000RA              1698130     000800270000002700000410000003NN  NNW 000   FIRE SERVICE        N    
RDG09005300WATRL000000006K00000000000000000002106242015115230S005000000000U91       000040600K 10000000010000000884           
CUS0900530000109257868001         BOARD OF SCHOOL COMM1230-50 E 20TH ST                       000N        CARE OF             
MTR09005300001000000000000000RA              35109485    000200280000002800000520000003NN  NNW 000                       N    
RDG09005300WATRL000000005K00000000000015316002206242015115238N000300000010U91       000080500K 10000000010000015200           
CUS0900530000109410911003         POET S ATHLETIC CLUB918-20 E NORTH AVE                      000N        CARE OF             
MTR09005300001000000000000000RA              8032199     000400290000002900000380000003NN  NNW 000   FIRE SERVICE        N    
RDG09005300WATRL000000006K00000000000000004002306242015115241N000000000000U91       000030600K 10000000010000000004           
CUS0900530000109410913009         POET S ATHLETIC CLUB918-20 E NORTH AVE                      000N        CARE OF             
MTR09005300001000000000000000RA              01096207    005800300000003000000610000003NN  NNW 000                       N    
RDG09005300WATRL000000004K00000000000001040002406242015115246N000000000000U91       000050400K 10000000010000001031           
CUS0900530000109257874009         ARK CHURCH          1263 E NORTH AVE                        000N        CARE OF             
MTR09005300001000000000000000RA              99169933    000200310000003100000570000003NN  NNW 000                       N    
RDG09005300WATRL000000005K00000000000001238002506242015115321N000000000000U91       000350500K 10000000010000001232           
CUS0900530000109257873001         LANVALE HOUSING LP. 1732 AISQUITH ST                        000N        CARE OF             
MTR09005300001000000000000000RA              1178437     000200320000003200000490000003NN  NNW 000                       N    
RDG09005300WATRL000000005K00000000000017329002606242015115326N000000000000U91       000050500K 10000000010000016799           
CUS0900530000109257879008         LANVALE HOUSING LP. 1300 E LANVALE ST                       000N        CARE OF             
MTR09005300001000000000000000RA              1215549     000300330000003300000490000003NN  NNW 000                       N    
RDG09005300WATRL000000005K00000000000093782002706242015115359N000000000000U91       000330500K 10000000010000091018           
CUS0900530000109257878000         LANVALE HOUSING LP. 1300 E LANVALE ST                       000N        CARE OF             
MTR09005300001000000000000000RA              5705147     000800340000003400000410000003NN  NNW 000   FIRE SERVICE        N    
RDG09005300WATRL000000006K00000000000000618002806242015115408N000000000000U91       000090600K 10000000010000000618           
CUS0900530000109257882002         MONUMENTAL GARDENS  1524 AISQUITH ST                        000N        CARE OF             
MTR09005300002000000000000000RA              90000122    000200350000003500000570000003NN  NNW 000                       N    
RDG09005300WATAL000000005K00000000000004851002906242015115420N000304104110U91       000120500K 10000000010000020974           
RDG09005300WATBL000000005K00000000000003013003006242015115448N000004104100U91       000280500K 10000000010000011286           
CUS0900530000109257885005         MONUMENTAL GARDENS  1501 AISQUITH ST                        000N        CARE OF             
MTR09005300002000000000000000RA              90000030    000200360000003600000570000003NN  NNW 000                       N    
RDG09005300WATAL000000005K00000000000007298003106242015115458N000400000010U91       000100500K 10000000010000007037           
RDG09005300WATBL000000005K00000000000013544003206242015115505N000400000010U91       000070500K 10000000010000013026           
CUS0900530000109257906009         OGH ECO-FRIENDLY HOM1217-23 HARFORD AVE                     000N        CARE OF             
MTR09005300001000000000000000RA              31346544    001500370000003700000520000003NN  NNW 000   VACANT PROPERTY     N    
RDG09005300WATRL000000005K00000000000001741003306242015115509N000000000000U91       000040500K 10000000010000001741           
CUS0900530000109257881004         HARFORD COMMONS     1508-14 HARFORD AVE                     000N        CARE OF             
MTR09005300001000000000000000RA              42877080    000200380000003800000520000003NN  NNW 000                       N    
RDG09005300WATRL000000005K00000000000015730003406242015115518N000000000000U91       000090500K 10000000010000015526           
CUS0900530000109386920004         STOP SHOP SAVE      1600 HARFORD AVE                        000N        CARE OF             
MTR09005300001000000000000000RA              00066731    000200390000003900000570000003NN  NNW 000                       N    
RDG09005300WATRL000000005K00000000000009510003506242015115524N000400000010U91       000060500K 10000000010000009465           
CUS0900530000109386919006         GHI REALTY, LLC     1600 HARFORD AVE                        000N        CARE OF             
MTR09005300001000000000000000RA              E21170      000600400000004000000430000003NN  NNW 000   FIRE SERVICE        N    
RDG09005300WATRL000000006K00000000000000000003606242015115529N000000000000U91       000050600K 10000000010000000000           
CUS0900530000109357786004         MAYOR & CITY COUNCIL1641 HARFORD AVE                        000N        CARE OF             
MTR09005300001000000000000000RA              35105139    000200410000004100000520000003NY  NNW 000                       N    
MTM0900530035105139    OK                                                                                                     
RDG09005300WATRL000000005K00000000000000000003706242015115534N000000000000U91       000050500K 10000000010000000000           
CUS0900530000109257877002         LANVALE HOUSING LP. 1720 HARFORD AVE                        000N        CARE OF             
MTR09005300001000000000000000RA              1178440     000200420000004200000490000003NN  NNW 000                       N    
RDG09005300WATRL000000005K00000000000012771003806242015115538N000000000000U91       000040500K 10000000010000012317           
CUS0900530000109352128004         LANVALE HOUSING LP. 1729 HARFORD AVE                        000N        CARE OF             
MTR09005300001000000000000000RA              1178615     000200430000004300000490000003NN  NNW 000                       N    
RDG09005300WATRL000000005K00000000000020522003906242015115543N000000000000U91       000050500K 10000000010000020022           
CUS0900530000109257875006         LANVALE HOUSING LP. 1830 HARFORD AVE                        000N        CARE OF             
MTR09005300001000000000000000RA              01116868    000200440000004400000610000003NN  NNW 000                       N    
RDG09005300WATRL000000005K00000000000022819004006242015115546N000000000000U91       000030500K 10000000010000021434           
CUS0900530000109411119002         HARFORD HOUSE 0478  1517 E NORTH AVE                        000N        CARE OF             
MTR09005300001000000000000000RA              35116835    000200450000004500000520000003NN  NNW 000                       N    
RDG09005300WATRL000000005K00000000000013352004106242015115550N000000000000U91       000040500K 10000000010000013230           
CUS0900530000109411117006         EQUITY MANAGEMENT, I1517 E NORTH AVE                        000N        CARE OF             
MTR09005300001000000000000000RA              8034878     000600460000004600000380000003NN  NNW 000   FIRE SERVICE        N    
RDG09005300WATRL000000006K00000000000000000004206242015115553N000000000000U91       000030600K 10000000010000000000           
CUS0900530000109257914003         BUREAU OF EDUCATION 1601 N EDEN ST                          000N        CARE OF             
MTR09005300002000000000000000RA              5332852     000400470000004700000630000003NY  NNW 000                       N    
MTM090053005332852     OK                                                                                                     
RDG09005300WATAL000000006K00000000000000000004306242015115602N000300000010U91       000090600K 10000000010000004450           
RDG09005300WATBL000000006K00000000000004543004406242015115615N000400000010U91       000130600K 10000000010000000000           
CUS0900530000109419996005         OLIVER PLAZA LIMITED1401 E OLIVER ST                        000N        CARE OF             
MTR09005300001000000000000000RA              8036333     000600480000004800000380000003NN  NNW 000   FIRE SERVICE        N    
RDG09005300WATRL000000006K00000000000000011004506242015115618N000000000000U91       000030600K 10000000010000000011           
CUS0900530000109419998001         OLIVER PLAZA LTD PRT1401 E OLIVER ST                        000N        CARE OF             
MTR09005300001000000000000000RA              1401293     000300490000004900000470000003NN  NNW 000                       N    
RDG09005300WATRL000000005K00000000000016750004606242015115631N000000000000U91       000130500K 10000000010000016428           
CUS0900530000109257913005         MAYOR & CITY COUNCIL1400 N CAROLINE ST                      000N        CARE OF             
MTR09005300002000000000000000RA              4871467     000600500000005000000630000003NN  NNW 000                       N    
RDG09005300WATAL000000006K00000000000000001004706242015115641N000100000020U91       000100600K 10000000010000000001           
RDG09005300WATBL000000006K00000000000016174004806242015115652N000400000010U91       000110600K 10000000010000015450           
CUS0900530000109257915000         ST FRANCIS XAVIER CH1415-27 N CAROLINE ST                   000N        CARE OF             
MTR09005300001000000000000000RA              1209048     000200510000005100000490000003NN  NNW 000                       N    
RDG09005300WATRL000000005K00000000000031824004906242015115656N000000000000U91       000040500K 10000000010000031205           
CUS0900530000109257907007         DEPT. OF EDUCATION  1401 E BIDDLE ST                        000N        CARE OF             
MTR09005300001000000000000000RA              9215543     000300520000005200000640000003NN  NNW 000                       N    
RDG09005300WATRL000000005K00000000000049131005006242015115659N000000000000U91       000030500K 10000000010000048431           
CUS0900530000109257890005         BOND STR. APART.    900-06 N CAROLINE ST                    000N        CARE OF             
MTR09005300001000000000000000RA              1133815     000200530000005300000490000003NN  NNW 000                       N    
RDG09005300WATRL000000005K00000000000018272005106242015115704N000000000000U91       000050500K 10000000010000017856           
CUS0900530000109257909003         BOND STR. APART     1601-05 E EAGER ST                      000N        CARE OF             
MTR09005300001000000000000000RA              1176552     000200540000005400000490000003NN  NNW 000                       N    
RDG09005300WATRL000000005K00000000000007266005206242015115708N000000000000U91       000040500K 10000000010000006865           
CUS0900530000109441512002         THE SHELTER GRP     1705 E EAGER ST                         000N        CARE OF             
MTR09005300001000000000000000RA              60406596    000300550000005500000470000000NN  NNW 000                       N    
RDG09005300WATRL000000005K00000000000000353005306242015115711N000000000000U91       000030500K 10000000010000000340           
CUS0900530000109441572006         THE SHELTER GRP     1705 E EAGER ST                         000N        CARE OF             
MTR09005300001000000000000000RA              8051102     000600560000005600000410000000NN  NNW 000   FIRE SERVICE        N    
RDG09005300WATRL000000006K00000000000000000005406242015115714N000000000000U91       000030600K 10000000010000000000           
CUS0900530000109441537009         ASHLAND COMMONS     1715 E EAGER ST                         000N        CARE OF             
MTR09005300001000000000000000RA              60795953    000300570000005700000470000000NN  NNW 000                       N    
RDG09005300WATRL000000005K00000000000018284005506242015115719N000000000000U91       000050500K 10000000010000017370           
CUS0900530000109441574002         ASHLAND, LLP        1715 E EAGER ST                         000N        CARE OF             
MTR09005300001000000000000000RA              8051101     000600580000005800000410000000NN  NNW 000   FIRE SERVICE        N    
RDG09005300WATRL000000006K00000000000000004005606242015115722N000000000000U91       000030600K 10000000010000000004           
CUS0900530000106446053008         EAST BALTIMORE DEV, 1800 E EAGER ST                         000N        CARE OF             
MTR09005300001000000000000000RA              00167001    000100590000005900000570000000NN  NNW 000                       N    
RDG09005300WATRL000000004K00000000000000035005706242015115724N000000000000U91       000020400K 10000000010000000032           
CUS0900530000109393083002         BURLEY CHURCH, LLC  929 N CAROLINE ST                       000N        CARE OF             
MTR09005300002000000000000000RA              7122094     000600600000006000000630000003NY  NNW 000   FIRE SERVICE        N    
MTM090053007122094     OK                                                                                                     
RDG09005300WATAL000000006K00000000000000024005806242015115728N000000000000U91       000040600K 10000000010000000024           
RDG09005300WATBL000000006K00000000000000000005906242015115739N000100000010U91       000110600K 10000000010000000000           
CUS0900530000109401198008         BURLEY CHURCH, LLC  929 N CAROLINE ST                       000N        CARE OF             
MTR09005300001000000000000000RA              35116194    005800610000006100000520000000NN  NNW 000   VACANT PROPERTY     N    
RDG09005300WATRL000000004K00000000000000571006006242015115743N000000000000U91       000040400K 10000000010000000571           
CUS0900530000109391221000         BURLEY CHURCH, LLC  923 N CAROLINE ST                       000N        CARE OF             
MTR09005300001000000000000000RA              36700313    001500620000006200000520000003NN  NNW 000                       N    
RDG09005300WATRL000000005K00000000000028394006106242015115747N000000000000U91       000040500K 10000000010000028349           
CUS0900530000109391219004         BURLEY CHURCH, LLC  923 N CAROLINE ST                       000N        CARE OF             
MTR09005300001000000000000000RA              E22540      000600630000006300000430000003NN  NNW 000   FIRE SERVICE        N    
RDG09005300WATRL000000006K00000000000000000006206242015115751N000000000000U91       000040600K 10000000010000000000           
CUS0900530000109257892001         BOND STR APART.     1520-28 E MADISON ST                    000N        CARE OF             
MTR09005300001000000000000000RA              00163764    000100640000006400000570000003NN  NNW 000                       N    
RDG09005300WATRL000000004K00000000000009107006306242015115757N000000000000U91       000060400K 10000000010000008900           
CUS0900530000109257891003         HABC                1400 E MONUMENT ST                      000N        CARE OF             
MTR09005300001000000000000000RA              9207826     000400650000006500000640000003NN  NNW 000                       N    
RDG09005300WATRL000000006K00000000000045288006406242015115938N000300000010U91       001010600K 10000000010000099433           
CUS0900530000109257893009         ALPHA PROPERTY MANAG1500 E MONUMENT ST                      000N        CARE OF             
MTR09005300002000000000000000RA              5367730     000400660000006600000480000003NN  NNW 000                       N    
RDG09005300WATAL000000006K00000000000000001006506242015115944N000100000010U91       000060600K 10000000010000000001           
RDG09005300WATBL000000006K00000000000024443006606242015115958N000400000010U91       000140600K 10000000010000024352           
CUS0900530000109429552004         THE JOHNS HOPKINS PA1501 E MONUMENT ST                      000N        CARE OF             
MTR09005300002000000000000000RA              70048521    000400670000006700000560000003NY  NNW 000                       N    
MTM0900530070048521    NO HOLES                                                                                               
RDG09005300WATAL000000006K00000000000000000000000000000000000 000000000000U         000000600  10000000010000001716           
RDG09005300WATBL000000006K00000000000000000000000000000000000 000000000000U         000000600  10000000010000034528           
CUS0900530000109257894007         TARGET CITY ASSOCIAT1630 E MONUMENT ST                      000N        CARE OF             
MTR09005300001000000000000000RA              10803538    000300680000006800000640000003NN  NNW 000                       N    
RDG09005300WATRL000000005K00000000000015492006706242015120040N000000000000U91       000420500K 10000000010000014704           
CUS0900530000109257895004         TARGET CITY APART.  1630 E MONUMENT ST                      000N        CARE OF             
MTR09005300001000000000000000RA              24625515    000200690000006900000520000003NY  NNW 000                       N    
MTM0900530024625515    CLEAN OUT                                                                                              
RDG09005300WATRL000000005K00000000000000000000000000000000000 000000000000U         000000500  10000000010000009059           
CUS0900530000109257897000         NEW WATERS TOWER DEV1400 E MADISON ST                       000N        CARE OF             
MTR09005300001000000000000000RA              1371921     000400700000007000000490000003NN  NNW 000                       N    
RDG09005300WATRL000000006K00000000000030374006806242015120115N000000000000U91       000350600K 10000000010000028840           
CUS0900530000109257896002         NEW WATERS TOWER DEV1400 E MADISON ST                       000N        CARE OF             
MTR09005300001000000000000000RA              5705138     000600710000007100000410000003NN  NNW 000   FIRE SERVICE        N    
RDG09005300WATRL000000006K00000000000000897006906242015120124N000000000000U91       000090600K 10000000010000000897           
CUS0900530000109257903006         R C ARCHBP OF BALTIM1010-34 SOMERSET ST                     000N        CARE OF             
MTR09005300001000000000000000RA              9103163     000300720000007200000640000003NN  NNW 000                       N    
RDG09005300WATRL000000005K00000000000001764007006242015120128N000000000000U91       000040500K 10000000010000001630           
CUS0900530000109257901000         INSTITUTE OF        901-25 AISQUITH ST                      000N        CARE OF             
MTR09005300001000000000000000RA              01116861    000200730000007300000610000003NN  NNW 000                       N    
RDG09005300WATRL000000005K00000000000002678007106242015120139N000000000010U91       000110500K 10000000010000002577           
CUS0900530000109257900002         INSTITUTE OF        901-25 AISQUITH ST                      000N        CARE OF             
MTR09005300001000000000000000RA              26567467    000200740000007400000520000003NN  NNW 000                       N    
RDG09005300WATRL000000005K00000000000008208007206242015120304N000000000000U91       000850500K 10000000010000008122           
CUS0900530000109420726003         CAROLINE CENTER     901-25 AISQUITH ST                      000N        CARE OF             
MTR09005300001000000000000000RA              35116803    000200750000007500000520000003NN  NNW 000                       N    
RDG09005300WATRL000000005K00000000000004233007306242015120313N000000000000U91       000090500K 10000000010000004209           
CUS0900530000109429450001         JOHNS HOPKINS       1000 E EAGER ST                         000N        CARE OF             
MTR09005300001000000000000000RA              11801018    000400760000007600000640000000NN  NNW 000                       N    
RDG09005300WATRL000000006K00000000000001268007406242015120320N000000000000U91       000070600K 10000000010000000835           
CUS0900530000109429448005         JOHNS HOPKINS COMMUN1000 E EAGER ST                         000N        CARE OF             
MTR09005300001000000000000000RA              8044653     000600770000007700000380000000NN  NNW 000   FIRE SERVICE        N    
RDG09005300WATRL000000006K00000000000002472007506242015120325N000000000000U91       000050600K 10000000010000002470           
CUS0900530000109367116002         908 VALLEY STREET, L908 VALLEY ST                           000N        CARE OF             
MTR09005300001000000000000000RA              29768497    000200780000007800000520000003NN  NNW 000                       N    
RDG09005300WATRL000000005K00000000000032352007606242015120331N000000000000U91       000060500K 10000000010000032162           
CUS0900530000109257905001         DEPT OF EDUCATION   1133 VALLEY ST                          000N        CARE OF             
MTR09005300001000000000000000RA              1191193     000300790000007900000490000003NN  NNW 000                       N    
RDG09005300WATRL000000005K00000000000043668007706242015120337N000000000000U91       000060500K 10000000010000042035           
CUS0900530000109257899006         HABC                633 AISQUITH ST                         000N        CARE OF             
MTR09005300001000000000000000RA              1313683     000400800000008000000490000003NN  NNW 000                       N    
RDG09005300WATRL000000006K00000000000110864007806242015120342N000000000000U91       000050600K 10000000010000105440           
CUS0900530000109257898008         HABC                633 AISQUITH ST                         000N        CARE OF             
MTR09005300001000000000000000RA              E5138       000800810000008100000430000003NN  NNW 000   CITY FIRE SERV      N    
RDG09005300WATRL000000006K00000000000000382007906242015120357N000000000000U91       000150600K 10000000010000000382           
CUS0900530000109257927005         BOSMAK INC          1660 CLOUGH ST                          000N        CARE OF             
MTR09005300001000000000000000RA              00166941    000100820000008200000570000003NY  NNW 000                       N    
MTM0900530000166941    OK                                                                                                     
RDG09005300WATRL000000004K00000000000003047008006242015120407N000100000010U91       000100400K 10000000010000003047           
CUS0900530000109257929001         NORMA LISOWSKY REVOC1680 CLOUGH ST                          000N        CARE OF             
MTR09005300001000000000000000RA              35113569    007500830000008300000520000003NN  NNW 000   VACANT PROPERTY     N    
RDG09005300WATRL000000004K00000000000000000008106242015120421S022000000000U91       000140400K 10000000010000000794           
CUS0900530000109257928003         NORMA LISOWSKY REVOC1680 CLOUGH ST                          000N        CARE OF             
MTR09005300001000000000000000RA              4056020     000800840000008400000410000003NN  NNW 000   FIRE SERVICE        N    
RDG09005300WATRL000000006K00000000000000000008206242015120425S022000000000U91       000040600K 10000000010000000000           
CUS0900530000109409347003         ESTHER'S PLACE AT TH2926 HARFORD RD                         000N        CARE OF             
MTR09005300001000000000000000RA              41193562    007500850000008500000520000003NN  NNW 000                       N    
RDG09005300WATRL000000004K00000000000005929008306242015120432N000000000000U91       000070400K 10000000010000005711           
CUS0900530000109409348001         ESTHER'S PLACE AT TH2926 HARFORD RD                         000N        CARE OF             
MTR09005300001000000000000000RA              8031742     000400860000008600000380000003NN  NNW 000   FIRE SERVICE        N    
RDG09005300WATRL000000006K00000000000000005008406242015120435N000000000000U91       000030600K 10000000010000000005           
CUS0900530000109257931007         BOARD OF PARK COMM  2801 HARFORD RD                         000N        CARE OF             
MTR09005300001000000000000000RA              01105687    000200870000008700000610000003NN  NNW 000                       N    
RDG09005300WATRL000000005K00000000000000095008506242015120442N000000000010U91       000070500K 10000000010000000089           
CUS0900530000109257932005         MARYLAND STATE BOYCH2320 MAYFIELD AVE                       000N        CARE OF             
MTR09005300001000000000000000RA              14914976    001500880000008800000310000003NN  NNW 000                       N    
RDG09005300WATRL000000005K00000000000000998008606242015120451N000300000010U91       000090500K 10000000010000000689           
CUS0900530000109257933003         DEPT OF REC & PARKS 3701 HARFORD RD                         000N        CARE OF             
MTR09005300001000000000000000RA              99999999    000200890000008900000520000003NN  NNW 000                       N    
RDG09005300WATRL000000005K00000000000000000008706242015120454S022000000000U91       000030500K 10000000010000002160           
CUS0900530000109421192007         RAY OF HOPE BAPTIST 3000-04 PARKSIDE DR                     000N        CARE OF             
MTR09005300001000000000000000RA              99170767    001500900000009000000570000003NN  NNW 000                       N    
RDG09005300WATRL000000005K00000000000001019008806242015120459N000000000000U91       000050500K 10000000010000000994           
CUS0900530000109421190001         RAY OF HOPE BAPTIST 3000-04 PARKSIDE DR                     000N        CARE OF             
MTR09005300001000000000000000RA              8037220     000400910000009100000380000003NN  NNW 000   FIRE SERVICE        N    
RDG09005300WATRL000000006K00000000000000032008906242015120503N000000000000U91       000040600K 10000000010000000032           
CUS0900530000109425437002         NAI SATURN EASTERN L4401 HARFORD RD                         000N        CARE OF             
MTR09005300001000000000000000RA              26567485    000200920000009200000520000003NN  NNW 000                       N    
RDG09005300WATRL000000005K00000000000021779009006242015120508N000000000000U91       000050500K 10000000010000021534           
CUS0900530000109425435006         NAI SATURN EASTERN L4401 HARFORD RD                         000N        CARE OF             
MTR09005300001000000000000000RA              8038636     000600930000009300000380000003NN  NNW 000   FIRE SERVICE        N    
RDG09005300WATRL000000006K00000000000000020009106242015120511N000000000000U91       000030600K 10000000010000000020           
CUS0900530000109424398007         PEP BOYS            4615-25 HARFORD RD                      000N        CARE OF             
MTR09005300001000000000000000RA              8038276     000600940000009400000380000003NN  NNW 000   FIRE SERVICE        N    
RDG09005300WATRL000000006K00000000000000002009206242015120515N000000000000U91       000040600K 10000000010000000002           
CUS0900530000109424400001         PEP BOYS            4615-25 HARFORD RD                      000N        CARE OF             
MTR09005300001000000000000000RA              99170726    000200950000009500000570000003NN  NNW 000                       N    
RDG09005300WATRL000000005K00000000000001429009306242015120520N000000000000U91       000050500K 10000000010000001369           
CUS0900530000109410894001         4700 HARFORD ROAD, L4700 HARFORD RD                         000N        CARE OF             
MTR09005300002000000000000000RA              06102510    000400960000009600000460000003NN  NNW 000                       N    
RDG09005300WATAL000000006K00000000000023974009406242015120533N000400000010U91       000130600K 10000000010000022776           
RDG09005300WATBL000000006K00000000000001372009506242015120541N000300000010U91       000080600K 10000000010000009784           
CUS0900530000109410892005         4700 HARFORD ROAD, L4700 HARFORD RD                         000N        CARE OF             
MTR09005300002000000000000000RA              6047494     000600970000009700000630000003NY  NNW 000   FIRE SERVICE        N    
MTM090053006047494     OK                                                                                                     
RDG09005300WATAL000000006K00000000000000010009606242015120553N000000000000U91       000120600K 10000000010000000010           
RDG09005300WATBL000000006K00000000000000039009706242015120605N000300000010U91       000120600K 10000000010000000043           
CUS0900530000109257937004         MT CARMEL BAPTIST CH4909 HARFORD RD                         000N        CARE OF             
MTR09005300001000000000000000RA              01117167    000200980000009800000610000003NN  NNW 000                       N    
RDG09005300WATRL000000005K00000000000007588009806242015120612N000400000010U91       000070500K 10000000010000007550           
CUS0900530000109257942004         SCHNADER PROPERTIES,5103 HARFORD RD                         000N        CARE OF             
MTR09005300001000000000000000RA              35112568    001500990000009900000520000003NN  NNW 000                       N    
RDG09005300WATRL000000005K00000000000027726009906242015120617N000000000000U91       000050500K 10000000010000027574           
CUS0900530000109257938002         LEONARD J RUCK INC  5305-07 HARFORD RD                      000N        CARE OF             
MTR09005300001000000000000000RA              35116887    000201000000010000000520000003NN  NNW 000                       N    
RDG09005300WATRL000000005K00000000000013861010006242015120623N000000000000U91       000060500K 10000000010000013822           
CUS0900530000109257944000         FINE, HOWARD        5501-07 HARFORD RD                      000N        CARE OF             
MTR09005300001000000000000000RA              2474850     000601010000010100000410000003NN  NNW 000   FIRE SERVICE        N    
RDG09005300WATRL000000006K00000000000000000010106242015120626S005000000000U91       000030600K 10000000010000000007           
CUS0900530000109257945007         FINE, HOWARD        5501-07 HARFORD RD                      000N        CARE OF             
MTR09005300001000000000000000RA              00066913    001501020000010200000570000003NY  NNW 000                       N    
MTM0900530000066913    OK                                                                                                     
RDG09005300WATRL000000005K00000000000000290010206242015120637N000100000010U91       000110500K 10000000010000000290           
CUS0900530000109257941006         DEPARTMENT OF       5609 SEFTON AVE                         000N        CARE OF             
MTR09005300001000000000000000RA              01105668    000201030000010300000610000003NN  NNW 000                       N    
RDG09005300WATRL000000005K00000000000002632010306242015120644N000000000000U91       000070500K 10000000010000002622           
CUS0900530000109257939000         SAINT DOMINIC'S ROMA5310-14 HARFORD RD                      000N        CARE OF             
MTR09005300001000000000000000RA              99170707    000201040000010400000570000003NN  NNW 000                       N    
RDG09005300WATRL000000005K00000000000001355010406242015120648N000000000000U91       000040500K 10000000010000001337           
CUS0900530000109444730007         HOMES FOR HAMILTON H5304 HARFORD RD                         000N        CARE OF             
MTR09005300001000000000000000RA              8053330     000401050000010500000380000003NN  NNW 000   FIRE SERVICE        N    
RDG09005300WATRL000000006K00000000000000006010506242015120652N000000000000U91       000040600K 10000000010000000006           
CUS0900530000109444732003         JOHN MANLEY HOUSE 045304 HARFORD RD                         000N        CARE OF             
MTR09005300001000000000000000RA              90000025    000201060000010600000570000000NN  NNW 000                       N    
RDG09005300WATRL000000005K00000000000004114010606242015120657N000000000000U91       000050500K 10000000010000003909           
CUS0900530000109257940008         SAINT DOMINIC'S ROMA5304-08 HARFORD RD                      000N        CARE OF             
MTR09005300001000000000000000RA              33734225    000201070000010700000520000003NN  NNW 000                       N    
RDG09005300WATRL000000005K00000000000016070010706242015120702N000000000000U91       000050500K 10000000010000016061           
RTR09005300NN01180118000001180000000001070107000017NY010701070118000300080000000000000000000001    06082015NY020000 N         
RHD09005400NN01210121000001210000000001150115000023NY011501150121001400040000000000000000000001    06082015NY020000 N         
CUS0900540000109395161004         HOMEWOOD LTD PARTNER2200 HOMEWOOD AVE                       000N        CARE OF             
MTR09005400001000000000000000RA              E22916      000600010000000100000430000003NN  NNW 000   CITY FIRE SERV      N    
RDG09005400WATRL000000006K00000000000000000000106252015122009N000000000000N91       000000600K 10000000010000000000           
CUS0900540000109395163000         HOMEWOOD LTD PARTNER2200 HOMEWOOD AVE                       000N        CARE OF             
MTR09005400001000000000000000RA              9601810     000400020000000200000640000003NN  NNW 000                       N    
RDG09005400WATRL000000006K00000000000003401000206252015122011N000000000000N91       000020600K 10000000010000003204           
CUS0900540000109431975003         BALTO CITY PUBLIC   2000 CECIL AVE                          000N        CARE OF             
MTR09005400001000000000000000RA              8046575     000600030000000300000380000000NN  NNW 000   CITY FIRE SERV      N    
RDG09005400WATRL000000006K00000000000000007000306252015122017N000000000010N91       000060600K 10000000010000000007           
CUS0900540000109431978007         BALTO CITY PUBLIC   2000 CECIL AVE                          000N        CARE OF             
MTR09005400001000000000000000RA              0904465     000400040000000400000460000000NN  NNW 000                       N    
RDG09005400WATRL000000006K00000000000020889000406252015122023N000000000000N91       000060600K 10000000010000020478           
CUS0900540000109434578002         SAINT ANN'S ROMAN CA528 E 22ND ST                           000N        CARE OF             
MTR09005400001000000000000000RA              99409864    000400050000000500000440000000NN  NNW 000   FIRE SERVICE        N    
RDG09005400WATRL000000006K00000000000000000000506252015122026N000000000000N91       000030600K 10000000010000000000           
CUS0900540000109257949009         MAYOR & CITY COUNCIL909 E 22ND ST                           000N        CARE OF             
MTR09005400001000000000000000RA              35101380    000200060000000600000520000003NN  NNW 000                       N    
RDG09005400WATRL000000005K00000000000013243000606252015122030N000000000000N91       000040500K 10000000010000013190           
CUS0900540000109257950007         YOON PROPERTIES, LLC2208 AISQUITH ST                        000N        CARE OF             
MTR09005400001000000000000000RA              2580694     000800070000000700000410000003NN  NNW 000   FIRE SERVICE        N    
RDG09005400WATRL000000006K00000000000000000000706252015122130N000000000000N91       000600600K 10000000010000000000           
CUS0900540000109257951005         YOON PROPERTIES, LLC2208 AISQUITH ST                        000N        CARE OF             
MTR09005400001000000000000000RA              36700208    001500080000000800000520000003NN  NNW 000                       N    
RDG09005400WATRL000000005K00000000000013560000806252015122138N000000000000N91       000080500K 10000000010000013498           
CUS0900540000109257952003         B PETERS ASSOCIATES 2201 GARRETT AVE                        000N        CARE OF             
MTR09005400001000000000000000RA              2432273     000800090000000900000410000003NY  NNW 000   FIRE SERVICE        N    
MTM090054002432273     CLEAN OUT                                                                                              
RDG09005400WATRL000000006K00000000000000000000000000000000000 000000000000U         000000600  10000000010000000037           
CUS0900540000109257953001         B PETERS ASSOCIATES,2201 GARRETT AVE                        000N        CARE OF             
MTR09005400001000000000000000RA              99409403    000100100000001000000570000003NN  NNW 000                       N    
RDG09005400WATRL000000004K00000000000000219000906252015122212N000000000000N91       000340400K 10000000010000000212           
CUS0900540000109257954009         PETERS HOLDINGS LLC 901 CURTAIN AVE                         000N        CARE OF             
MTR09005400001000000000000000RA              36700343    001500110000001100000520000003NN  NNW 000                       N    
RDG09005400WATRL000000005K00000000000006487001006252015122216N000000000000N91       000040500K 10000000010000006461           
CUS0900540000109257955006         MARYLAND TRANSIT ADM2301 KIRK AVE                           000N        CARE OF             
MTR09005400001000000000000000RA              2541233     001000120000001200000410000003NY  NNW 000   FIRE SERVICE        N    
MTM090054002541233     CONSTR                                                                                                 
RDG09005400WATRL000000007K00000000000000000000000000000000000 000000000000U         000000700  10000000010000000349           
CUS0900540000109257956004         MARYLAND TRANSIT ADM2301 KIRK AVE                           000N        CARE OF             
MTR09005400001000000000000000RA              30479011    000200130000001300000520000003NY  NNW 000                       N    
MTM0900540030479011    CONSTR                                                                                                 
RDG09005400WATRL000000005K00000000000000000000000000000000000 000000000000U         000000500  10000000010000000469           
CUS0900540000109257957002         MASS TRANSIT ADMINS 2300 KIRK AVE                           000N        CARE OF             
MTR09005400001000000000000000RA              1451964     000300140000001400000640000003NY  NNW 000                       N    
MTM090054001451964     NO ACCESS                                                                                              
RDG09005400WATRL000000005K00000000000000000000000000000000000 000000000000U         000000500  10000000010000006620           
CUS0900540000109454236002         MASS TRANSIT ADMIN  2300 KIRK AVE                           000N        CARE OF             
MTR09005400001000000000000000RA              0006826     000600150000001500000640000000NY  NNW 000   FIRE SERVICE        N    
MTM090054000006826     NO ACCESS                                                                                              
RDG09005400WATRL000000006K00000000000000000000000000000000000 000000000000U         000000600  10000000010000000000           
CUS0900540000109454238008         MASS TRANSIT ADMIN  2300 KIRK AVE                           000N        CARE OF             
MTR09005400001000000000000000RA              75427237    007500160000001600000350000000NY  NNW 000                       N    
MTM0900540075427237    NO ACCESS                                                                                              
RDG09005400WATRL000000004K00000000000000000000000000000000000 000000000000U         000000400  10000000010000000000           
CUS0900540000109420139009         JOHNATHAN MELNICK   721-27 E 25TH ST                        000N        CARE OF             
MTR09005400001000000000000000RA              8036331     000600170000001700000380000003NN  NNW 000   FIRE SERVICE        N    
RDG09005400WATRL000000006K00000000000000000001106252015122452N000000000000N91       001560600K 10000000010000000000           
CUS0900540000109420141005         JONATHAN MELNICK    721-27 E 25TH ST                        000N        CARE OF             
MTR09005400001000000000000000RA              42877010    000200180000001800000520000003NN  NNW 000                       N    
RDG09005400WATRL000000005K00000000000007281001206252015122455N000000000000N91       000030500K 10000000010000007004           
CUS0900540000109257958000         7-ELEVEN INC SITE #2729 E 25TH ST                           000N        CARE OF             
MTR09005400001000000000000000RA              26567484    000200190000001900000520000003NN  NNW 000                       N    
RDG09005400WATRL000000005K00000000000003613001306252015122501N000000000000N91       000060500K 10000000010000003587           
CUS0900540000109257959008         SOUTHLAND CORPORATIO729 E 25TH ST                           000N        CARE OF             
MTR09005400001000000000000000RA              5705143     000800200000002000000410000003NN  NNW 000   FIRE SERVICE        N    
RDG09005400WATRL000000006K00000000000003445001406252015122505N000000000000N91       000040600K 10000000010000003445           
CUS0900540000109425838001         GETTY MD LEASING, IN750 E 25TH ST                           000N        CARE OF             
MTR09005400001000000000000000RA              35105146    000200210000002100000520000003NN  NNW 000                       N    
RDG09005400WATRL000000005K00000000000029746001506252015122515N000400000010N91       000100500K 10000000010000029657           
CUS0900540000109425839009         GETTY MD LEASING, IN750A E 25TH ST                          000N        CARE OF             
MTR09005400001000000000000000RA              51447303    000100220000002200000520000000NN  NNW 000                       N    
RDG09005400WATRL000000004K00000000000003028001606252015122519N000000000000N91       000040400K 10000000010000002997           
CUS0900540000109427573002         MAYOR AND CITY COUNC801 E 25TH ST                           000N        CARE OF             
MTR09005400001000000000000000RA              90000238    000200230000002300000570000003NN  NNW 000                       N    
RDG09005400WATRL000000005K00000000000000000001706252015122527S008000000000N91       000080500K 10000000010000000738           
CUS0900540000109257960006         BUDGET TRUCK RENTAL 1005-07 E 25TH ST                       000N        CARE OF             
MTR09005400002000000000000000RA              20000046    000300240000002400000460000003NN  NNW 000                       N    
RDG09005400WATAL000000005K00000000000000120001806252015122542N000300000010N91       000150500K 10000000010000000017           
RDG09005400WATBL000000005K00000000000000021001906252015122629N000000000000N91       000470500K 10000000010000000120           
CUS0900540000109257961004         XOBB TWENTY-FIFTH, L1101 E 25TH ST                          000N        CARE OF             
MTR09005400001000000000000000RA              29137393    001500250000002500000520000003NY  NNW 000                       N    
MTM0900540029137393    OK                                                                                                     
RDG09005400WATRL000000005K00000000000001469002006252015122640N000000000000N91       000110500K 10000000010000001469           
CUS0900540000109257962002         JONATHAN MELNICK    900 E 25TH ST                           000N        CARE OF             
MTR09005400001000000000000000RA              1309308     000300260000002600000410000003NN  NNW 000   FIRE SERVICE        N    
RDG09005400WATRL000000005K00000000000000000002106252015122646N000000000000N91       000060500K 10000000010000000000           
CUS0900540000109257963000         JONATHAN MELNICK    900 E 25TH ST                           000N        CARE OF             
MTR09005400001000000000000000RA              30327795    001500270000002700000520000003NN  NNW 000                       N    
RDG09005400WATRL000000005K00000000000025520002206252015122650N000000000000N91       000040500K 10000000010000025516           
CUS0900540000109425078004         440400 DAVITA       900 E 25TH ST                           000N        CARE OF             
MTR09005400001000000000000000RA              35112626    000200280000002800000520000003NN  NNW 000                       N    
RDG09005400WATRL000000005K00000000000046731002306252015122654N000000000000N91       000040500K 10000000010000046006           
CUS0900540000109403723001         MELNICK JONATHAN    901 E 25TH ST                           000N        CARE OF             
MTR09005400001000000000000000RA              26100887    001500290000002900000520000003NY  NNW 000                       N    
MTM0900540026100887    OK                                                                                                     
RDG09005400WATRL000000005K00000000000004251002406252015122703N000000000000N91       000090500K 10000000010000004251           
CUS0900540000109403721005         CECIL GARRETT PART  901 E 25TH ST                           000N        CARE OF             
MTR09005400001000000000000000RA              4918924     000400300000003000000340000003NN  NNW 000   FIRE SERVICE        N    
RDG09005400WATRL000000006K00000000000000000002506252015122707N000000000000N91       000040600K 10000000010000000000           
CUS0900540000109441715001         MARIAN HOUSE II LLCS932 GORSUCH AVE                         000N        CARE OF             
MTR09005400001000000000000000RA              01117234    000200310000003100000610000000NN  NNW 000                       N    
RDG09005400WATRL000000005K00000000000008448002606252015122712N000000000000N91       000050500K 10000000010000008258           
CUS0900540000109441716009         MARIAN HOUSE LTD PRS932 GORSUCH AVE                         000N        CARE OF             
MTR09005400001000000000000000RA              8051132     000400320000003200000410000000NN  NNW 000   FIRE SERVICE        N    
RDG09005400WATRL000000006K00000000000000000002706252015122714N000000000000N91       000020600K 10000000010000000000           
CUS0900540000109429905004         MARIAN HOUSE INC    949 GORSUCH AVE                         000N        CARE OF             
MTR09005400001000000000000000RA              8044867     000400330000003300000380000003NN  NNW 000   FIRE SERVICE        N    
RDG09005400WATRL000000006K00000000000000001002806252015122725N000000000000N91       000110600K 10000000010000000001           
CUS0900540000109429907000         MARIAN HOUSE INC    949 GORSUCH AVE                         000N        CARE OF             
MTR09005400001000000000000000RA              99169952    000200340000003400000570000000NN  NNW 000                       N    
RDG09005400WATRL000000005K00000000000017151002906252015122730N000000000000N91       000050500K 10000000010000016909           
CUS0900540000109257964008         MONARCH ACADEMY BALT2525 KIRK AVE                           000N        CARE OF             
MTR09005400001000000000000000RA              1739216     001000350000003500000410000003NN  NNW 000   FIRE SERVICE        N    
RDG09005400WATRL000000007K00000000000000000003006252015122733S005000000000U91       000030700K 10000000010000000003           
CUS0900540000109257966003         MONARCH ACADEMY BALT2525 KIRK AVE                           000N        CARE OF             
MTR09005400001000000000000000RA              99168661    001500360000003600000570000000NN  NNW 000                       N    
RDG09005400WATRL000000005K00000000000011096003106252015122738N000000000000N91       000050500K 10000000010000010837           
CUS0900540000109257967001         COLDSTREAM REC      2622 KIRK AVE                           000N        CARE OF             
MTR09005400001000000000000000RA              29768405    000200370000003700000520000003NN  NNW 000                       N    
RDG09005400WATRL000000005K00000000000036782003206252015122749N000300000010N91       000110500K 10000000010000034852           
CUS0900540000109257968009         OLES ENVELOPE CORP  532 E 25TH ST                           000N        CARE OF             
MTR09005400001000000000000000RA              99314579    000100380000003800000570000003NY  NNW 000                       N    
MTM0900540099314579    OK                                                                                                     
RDG09005400WATRL000000004K00000000000009886003306252015122759N000000000000N91       000100400K 10000000010000009886           
CUS0900540000109257969007         DG STRATEGIC LLC    2511 GREENMOUNT AVE                     000N        CARE OF             
MTR09005400001000000000000000RA              29069709    007500390000003900000520000003NN  NNW 000                       N    
RDG09005400WATRL000000004K00000000000002481003406252015122803N000000000000N91       000040400K 10000000010000002476           
CUS0900540000109456033001         WAVERLY COMMONS, LLC2801 GREENMOUNT AVE                     000N        CARE OF             
MTR09005400001000000000000000RA              0006705     000400400000004000000520000003NN  NNW 000   FIRE SERVICE        N    
RDG09005400WATRL000000006K00000000000000000003506252015122805N000000000000N91       000020600K 10000000010000000000           
CUS0900540000109456035006         WAVERLY COMMONS, LLC2801 GREENMOUNT AVE                     000N        CARE OF             
MTR09005400001000000000000000RA              90000452    000200410000004100000570000003NN  NNW 000                       N    
RDG09005400WATRL000000005K00000000000002979003606252015122811N000000000000N91       000060500K 10000000010000002318           
CUS0900540000109425357002         HABC MONTPELIER HOUS2601 HOMEWOOD AVE                       000N        CARE OF             
MTR09005400001000000000000000RA              01105772    000200420000004200000610000003NN  NNW 000                       N    
RDG09005400WATRL000000005K00000000000013243003706252015122815N000000000000N91       000040500K 10000000010000012952           
CUS0900540000109425355006         HABC MONTPELIER HOUS2601 HOMEWOOD AVE                       000N        CARE OF             
MTR09005400001000000000000000RA              8038699     000400430000004300000380000003NN  NNW 000   FIRE SERVICE        N    
RDG09005400WATRL000000006K00000000000000001003806252015122818N000000000000N91       000030600K 10000000010000000001           
CUS0900540000109425351005         HABC/MONTPELIER     1400 HOMESTEAD ST                       000N        CARE OF             
MTR09005400001000000000000000RA              29768516    000200440000004400000520000003NN  NNW 000                       N    
RDG09005400WATRL000000005K00000000000008831003906252015122821N000000000000N91       000030500K 10000000010000008697           
CUS0900540000109425349009         HABC/MONTPELIER     1400 HOMESTEAD ST                       000N        CARE OF             
MTR09005400001000000000000000RA              8038698     000400450000004500000380000003NN  NNW 000   FIRE SERVICE        N    
RDG09005400WATRL000000006K00000000000000000004006252015122824N000000000000N91       000030600K 10000000010000000000           
CUS0900540000109425346005         HABC/MONTPELIER     1406-08 MONTPELIER ST                   000N        CARE OF             
MTR09005400001000000000000000RA              8040540     000400460000004600000380000003NN  NNW 000   FIRE SERVICE        N    
RDG09005400WATRL000000006K00000000000000000004106252015122826N000000000000N91       000020600K 10000000010000000000           
CUS0900540000109425348001         HABC/MONTPELIER     1406-08 MONTPELIER ST                   000N        CARE OF             
MTR09005400001000000000000000RA              01105547    000200470000004700000610000003NN  NNW 000                       N    
RDG09005400WATRL000000005K00000000000009731004206252015122830N000000000000N91       000040500K 10000000010000009456           
CUS0900540000109257970005         VICTOR D LEBOR JR   2740 LOCH RAVEN RD                      000N        CARE OF             
MTR09005400001000000000000000RA              4017243     000800480000004800000410000003NN  NNW 000   FIRE SERVICE        N    
RDG09005400WATRL000000006K00000000000000000004306252015122833S005000000000U91       000030600K 10000000010000000049           
CUS0900540000109257971003         VICTOR D LEBOR JR   2740 LOCH RAVEN RD                      000N        CARE OF             
MTR09005400001000000000000000RA              38983829    005800490000004900000520000003NN  NNW 000                       N    
RDG09005400WATRL000000004K00000000000004060004406252015122849N000000000000N91       000160400K 10000000010000004043           
CUS0900540000109257972001         BENSON PARTNERS, THE2700 LOCH RAVEN RD                      000N        CARE OF             
MTR09005400001000000000000000RA              01105170    001500500000005000000610000003NN  NNW 000                       N    
RDG09005400WATRL000000005K00000000000004548004506252015122916N000003206500N91       000270500K 10000000010000004461           
CUS0900540000109257973009         OLES ENVELOPE CORP  2510 LOCH RAVEN RD                      000N        CARE OF             
MTR09005400001000000000000000RA              1175312     001500510000005100000490000003NN  NNW 000                       N    
RDG09005400WATRL000000005K00000000000021750004606252015122921N000000000000N91       000050500K 10000000010000021105           
CUS0900540000109429246003         AMODEO, ANTHONY     2525 LOCH RAVEN RD                      000N        CARE OF             
MTR09005400001000000000000000RA              99170681    000200520000005200000570000000NN  NNW 000                       N    
RDG09005400WATRL000000005K00000000000030177004706252015122926N000000000000N91       000050500K 10000000010000029721           
CUS0900540000109257974007         ELECTRIC MOTOR REPAI700 E 25TH ST                           000N        CARE OF             
MTR09005400001000000000000000RA              01105822    000200530000005300000610000003NN  NNW 000                       N    
RDG09005400WATRL000000005K00000000000006904004806252015122930N000000000000N91       000040500K 10000000010000006728           
CUS0900540000109257975004         CARROLL INDEPENDENT 2700 LOCH RAVEN RD                      000N        CARE OF             
MTR09005400001000000000000000RA              30478987    000200540000005400000520000003NN  NNW 000                       N    
RDG09005400WATRL000000005K00000000000015845004906252015122937N000000000000N91       000070500K 10000000010000015819           
CUS0900540000109444137005         2655 MATHEWS, LLC   2655 MATHEWS ST                         000N        CARE OF             
MTR09005400001000000000000000RA              99999999    000200550000005500000440000000NN  NNW 000                       N    
RDG09005400WATRL000000005K00000000000000559005006252015122942N000000000000N91       000050500K 10000000010000000531           
CUS0900540000109444135009         2655 MATHEWS, LLC   2655 MATHEWS ST                         000N        CARE OF             
MTR09005400001000000000000000RA              8053042     000600560000005600000410000000NN  NNW 000   FIRE SERVICE        N    
RDG09005400WATRL000000006K00000000000000004005106252015122947N000100000010N91       000050600K 10000000010000000004           
CUS0900540000109257978008         WAVERLY APARTMENTS  2701-23 MATHEWS ST                      000N        CARE OF             
MTR09005400001000000000000000RA              01117057    000200570000005700000520000003NN  NNW 000                       N    
RDG09005400WATRL000000005K00000000000012890005206252015122952N000000000000N91       000050500K 10000000010000012502           
CUS0900540000109257979006         OAKHILL TOWNHOMES   2725-49 MATHEWS ST                      000N        CARE OF             
MTR09005400001000000000000000RA              10803542    000300580000005800000640000003NN  NNW 000                       N    
RDG09005400WATRL000000005K00000000000008811005306252015122956N000000000000N91       000040500K 10000000010000008391           
CUS0900540000109228268000         WAVERLY POST OFFICE 3000 HOMEWOOD AVE                       000N        CARE OF             
MTR09005400001000000000000000RA              24547739    001500590000005900000520000003NN  NNW 000                       N    
RDG09005400WATRL000000005K00000000000008555005406252015123000N000000000000N91       000040500K 10000000010000008515           
CUS0900540000109257980004         WAVERLY APARTMENTS  702-64 EXETER HALL AVE                  000N        CARE OF             
MTR09005400001000000000000000RA              31588556    000200600000006000000520000003NN  NNW 000                       N    
RDG09005400WATRL000000005K00000000000010622005506252015123013N000000000000N91       000130500K 10000000010000009711           
CUS0900540000109257981002         OAKHILL TOWNHOMES   901-25 E 30TH ST                        000N        CARE OF             
MTR09005400001000000000000000RA              10803529    000300610000006100000640000003NN  NNW 000                       N    
RDG09005400WATRL000000005K00000000000002705005606252015123016N000000000000N91       000030500K 10000000010000002483           
CUS0900540000109257982000         BOARD OF SCHOOL COMM1400 EXETER HALL AVE                    000N        CARE OF             
MTR09005400001000000000000000RA              1453880     000400620000006200000490000003NY  NNW 000                       N    
MTM090054001453880     OK                                                                                                     
RDG09005400WATRL000000006K00000000000001764005706252015123032N000000000010N91       000160600K 10000000010000001784           
CUS0900540000109257983008         INSPECTION DIVISION 1400 EXETER HALL AVE                    000N        CARE OF             
MTR09005400001000000000000000RA              9305933     000300630000006300000640000003NN  NNW 000                       N    
RDG09005400WATRL000000005K00000000000003076005806252015123036N000000000000N91       000040500K 10000000010000002927           
CUS0900540000109257984006         2900 LOCH RAVEN LLC 2950 LOCH RAVEN RD                      000N        CARE OF             
MTR09005400001000000000000000RA              30002705    007500640000006400000570000003NN  NNW 000                       N    
RDG09005400WATRL000000004K00000000000000040005906252015123039N000000000000N91       000030400K 10000000010000000039           
CUS0900540000109257985003         DEPT. OF EDUCATION  3017 LOCH RAVEN RD                      000N        CARE OF             
MTR09005400001000000000000000RA              28339091    000200650000006500000520000003NN  NNW 000                       N    
RDG09005400WATRL000000005K00000000000001795006006252015123103N000400000010N91       000240500K 10000000010000001789           
CUS0900540000109422439001         DEPT OF EDUCATION   2555 HARFORD RD                         000N        CARE OF             
MTR09005400001000000000000000RA              10806657    000300660000006600000640000003NN  NNW 000                       N    
RDG09005400WATRL000000005K00000000000000342006106252015123109N000400000010N91       000060500K 10000000010000000341           
CUS0900540000109422437005         DEPT OF EDUCATION   2555 HARFORD RD                         000N        CARE OF             
MTR09005400001000000000000000RA              8040556     000400670000006700000380000003NN  NNW 000   CITY FIRE SERV      N    
RDG09005400WATRL000000006K00000000000000000006206252015123119N000000000000N91       000100600K 10000000010000000000           
CUS0900540000109257986001         FRED A HILL         2724-26 HARFORD RD                      000N        CARE OF             
MTR09005400001000000000000000RA              00066832    001500680000006800000570000003NN  NNW 000   VACANT PROPERTY     N    
RDG09005400WATRL000000005K00000000000000082006306252015123122N000000000000N91       000030500K 10000000010000000082           
CUS0900540000109435354007         BOARD OF SCHOOL COMM1300 GORSUCH AVE                        000N        CARE OF             
MTR09005400001000000000000000RA              8047554     000600690000006900000380000000NN  NNW 000   CITY FIRE SERV      N    
RDG09005400WATRL000000006K00000000000000006006406252015123126N000000000000N91       000040600K 10000000010000000006           
CUS0900540000109435356002         BOARD OF SCHOOL COMM1300 GORSUCH AVE                        000N        CARE OF             
MTR09005400001000000000000000RA              0910846     000400700000007000000630000000NN  NNW 000                       N    
RDG09005400WATRL000000006K00000000000002314006506252015123130N000000000000N91       000040600K 10000000010000002057           
CUS0900540000109257988007         DEPT. OF EDUCATION  3220 THE ALAMEDA                        000N        CARE OF             
MTR09005400001000000000000000RA              35105109    000200710000007100000520000003NN  NNW 000                       N    
RDG09005400WATRL000000005K00000000000015147006606252015123135N000000000000N91       000050500K 10000000010000015147           
CUS0900540000109429245005         JOHNS HOPKINS, JHFRE1101 E 33RD ST                          000N        CARE OF             
MTR09005400002000000000000000RA              70067457    000800720000007200000560000003NN  NNW 000                       N    
RDG09005400WATAL000000006K00000000000001789006706252015123147N000400000010N91       000120600K 10000000010000001775           
RDG09005400WATBL000000006K00000000000036750006806252015123158N000400000010N91       000110600K 10000000010000036086           
CUS0900540000109257990003         MONTPELIER/KENNEDY  2670 KENNEDY AVE                        000N        CARE OF             
MTR09005400001000000000000000RA              31588546    000200730000007300000520000003NN  NNW 000                       N    
RDG09005400WATRL000000005K00000000000032632006906252015123217N000300000010N91       000190500K 10000000010000032506           
CUS0900540000109441631000         SHEPHERD'S CLINIC   2800 KIRK AVE                           000N        CARE OF             
MTR09005400001000000000000000RA              8051135     000400740000007400000410000000NN  NNW 000   FIRE SERVICE        N    
RDG09005400WATRL000000006K00000000000000000007006252015123219N000000000000N91       000020600K 10000000010000000000           
CUS0900540000109441630002         SHEPHERD'S CLINIC   2800 KIRK AVE                           000N        CARE OF             
MTR09005400001000000000000000RA              01117260    000200750000007500000610000000NN  NNW 000                       N    
RDG09005400WATRL000000005K00000000000000000007106252015123234S005000000000U91       000150500K 10000000010000000967           
CUS0900540000109349234006         DEPT OF EDUCATION   2900 KIRK AVE                           000N        CARE OF             
MTR09005400002000000000000000RA              5977892     000800760000007600000630000003NN  NNW 000                       N    
RDG09005400WATAL000000006K00000000000000002007206252015123240N000100000010N91       000060600K 10000000010000000002           
RDG09005400WATBL000000006K00000000000049526007306252015123253N000400000010N91       000130600K 10000000010000032890           
CUS0900540000109435989000         YMCA OF CENTRAL MD  900 E 33RD ST                           000N        CARE OF             
MTR09005400002000000000000000RA              0310074     000800770000007700000630000000NN  NNW 000                       N    
RDG09005400WATAL000000006K00000000000000020007406252015123259N000100000010N91       000060600K 10000000010000000020           
RDG09005400WATBL000000006K00000000000049526007506252015123313N000000000010N91       000140600K 10000000010000014322           
CUS0900540000109257992009         EDNOR APT/STADIUM PL1000 E 33RD ST                          000N        CARE OF             
MTR09005400002000000000000000RA              5003391     001200780000007800000540000003NN  NNW 000                       N    
RDG09005400WATAL000000007K00000000000002200007606252015123323N000100000010N91       000100700K 10000000010000002200           
RDG09005400WATBL000000007K00000000000071268007706252015123332N000400000010N91       000090700K 10000000010000068137           
CUS0900540000109257993007         SUBURBAN NEWS       3421-29 GREENMOUNT AVE                  000N        CARE OF             
MTR09005400001000000000000000RA              46288285    000100790000007900000520000003NN  NNW 000                       N    
RDG09005400WATRL000000004K00000000000002624007806252015123336N000000000000N91       000040400K 10000000010000002585           
CUS0900540000109456398008         WAVERLY LIBRARY BRAN400 E 33RD ST                           000N        CARE OF             
MTR09005400001000000000000000RA              1200679     000400800000008000000410000003NY  NNW 000   FIRE SERVICE        N    
MTM090054001200679     CONSTR                                                                                                 
RDG09005400WATRL000000006K00000000000000000000000000000000000 000000000000U         000000600  10000000010000000000           
CUS0900540000109456400002         WAVERLY LIBRARY BRAN400 E 33RD ST                           000N        CARE OF             
MTR09005400001000000000000000RA              90000514    000200810000008100000570000003NY  NNW 000                       N    
MTM0900540090000514    CONSTR                                                                                                 
RDG09005400WATRL000000005K00000000000000000000000000000000000 000000000000U         000000500  10000000010000000416           
CUS0900540000109434582004         GIANT OF MARYLAND LL601 E 33RD ST                           000N        CARE OF             
MTR09005400001000000000000000RA              11800723    000300820000008200000640000003NN  NNW 000                       N    
RDG09005400WATRL000000005K00000000000005984007906252015123436N000000000000N91       000600500K 10000000010000005426           
CUS0900540000109434580008         VEI WAVERLY LLC     601 E 33RD ST                           000N        CARE OF             
MTR09005400001000000000000000RA              8048244     000800830000008300000380000000NN  NNW 000   FIRE SERVICE        N    
RDG09005400WATRL000000006K00000000000000000008006252015123439N000000000000N91       000030600K 10000000010000000000           
CUS0900540000109257994005         BUREAU OF BUILDING  701 E 34TH ST                           000N        CARE OF             
MTR09005400001000000000000000RA              32905242    000200840000008400000520000003NN  NNW 000                       N    
RDG09005400WATRL000000005K00000000000016582008106252015123642N000000000000N91       001230500K 10000000010000016582           
CUS0900540000109405398000         WAVERLY FAMILY CNTR 3012-14 ELLERSLIE AVE                   000N        CARE OF             
MTR09005400001000000000000000RA              8026728     000400850000008500000340000003NN  NNW 000   FIRE SERVICE        N    
RDG09005400WATRL000000006K00000000000000000008206252015123648N000000000000N91       000060600K 10000000010000000000           
CUS0900540000109405400004         WAVERLY FAMILY CNTR 3012-14 ELLERSLIE AVE                   000N        CARE OF             
MTR09005400001000000000000000RA              42885013    000100860000008600000520000003NN  NNW 000                       N    
RDG09005400WATRL000000004K00000000000005049008306252015123657N000300000010N91       000090400K 10000000010000005022           
CUS0900540000109352367008         DEPT OF ED          3400 ELLERSLIE AVE                      000N        CARE OF             
MTR09005400001000000000000000RA              6029436     000600870000008700000410000003NY  NNW 000   CITY FIRE SERV      N    
MTM090054006029436     CONSTR                                                                                                 
RDG09005400WATRL000000006K00000000000000000000000000000000000 000000000000U         000000600  10000000010000000000           
CUS0900540000109352368006         DEPT OF ED          3400 ELLERSLIE AVE                      000N        CARE OF             
MTR09005400001000000000000000RA              1450801     000300880000008800000490000003NY  NNW 000                       N    
MTM090054001450801     ERT                                                                                                    
RDG09005400WATRL000000005K00000000000000000000000000000000000 000000000000U         000000500  10000000010000006395           
CUS0900540000109454540007         DEPT OF ED          3400 ELLERSLIE AVE                      000N        CARE OF             
MTR09005400001000000000000000RA              0007355     000800890000008900000490000003NN  NNW 000                       N    
RDG09005400WATRL000000006K00000000000000003008406252015124002N000000000021N91       001260600K 10000000010000000002           
CUS0900540000109454542003         DEPT OF ED          3400 ELLERSLIE AVE                      000N        CARE OF             
MTR09005400001000000000000000RA              71434533    000400900000009000000440000003NN  NNW 000                       N    
RDG09005400WATRL000000006K00000000000000134008506252015124006N000000000000N91       000040600K 10000000010000000107           
CUS0900540000109435960001         CLARE COURT CONDO IN3725 ELLERSLIE AVE                      000N        CARE OF             
MTR09005400001000000000000000RA              0908796     000400910000009100000630000000NY  NNW 000                       N    
MTM090054000908796     PUMP                                                                                                   
RDG09005400WATRL000000006K00000000000000000000000000000000000 000000000000U         000000600  10000000010000007956           
CUS0900540000109435961009         SOUTHWAY BUILDERS, I3725 ELLERSLIE AVE                      000N        CARE OF             
MTR09005400001000000000000000RA              8046892     000600920000009200000380000000NY  NNW 000   FIRE SERVICE        N    
MTM090054008046892     PUMP                                                                                                   
RDG09005400WATRL000000006K00000000000000000000000000000000000 000000000000U         000000600  10000000010000000008           
CUS0900540000109257998006         ST ELIZABETH SCHOOL 3725 ELLERSLIE AVE                      000N        CARE OF             
MTR09005400001000000000000000RA              9216231     000400930000009300000640000003NN  NNW 000                       N    
RDG09005400WATRL000000006K00000000000004701008606252015124115N000000000000N91       000690600K 10000000010000004544           
CUS0900540000109257999004         HABC                601 WYANOKE AVE                         000N        CARE OF             
MTR09005400001000000000000000RA              5417348     000600940000009400000410000003NN  NNW 000   CITY FIRE SERV      N    
RDG09005400WATRL000000006K00000000000000607008706252015124118N000000000000N91       000030600K 10000000010000000607           
CUS0900540000109258000000         HABC                601 WYANOKE AVE                         000N        CARE OF             
MTR09005400001000000000000000RA              1453878     000400950000009500000490000003NN  NNW 000                       N    
RDG09005400WATRL000000006K00000000000032212008806252015124123N000000000000N91       000050600K 10000000010000030311           
CUS0900540000109258001008         MAYFLOWER APARTMENTS816-20 ARGONNE DR                       000N        CARE OF             
MTR09005400001000000000000000RA              0904244     000300960000009600000640000003NN  NNW 000                       N    
RDG09005400WATRL000000005K00000000000010241008906252015124128N000000000000N91       000050500K 10000000010000009798           
CUS0900540000109258002006         MAYFLOWER APARTMENTS824-30 ARGONNE DR                       000N        CARE OF             
MTR09005400001000000000000000RA              35109412    000200970000009700000520000003NN  NNW 000                       N    
RDG09005400WATRL000000005K00000000000022727009006252015124140N000000000000N91       000120500K 10000000010000022484           
CUS0900540000109387700009         ST ELIZABETH HOME   751 ARGONNE DR                          000N        CARE OF             
MTR09005400001000000000000000RA              35116757    001500980000009800000520000003NN  NNW 000                       N    
RDG09005400WATRL000000005K00000000000009938009106252015124144N000000000000N91       000040500K 10000000010000009901           
CUS0900540000109420443005         ST ELIZABETHS SCHOOL801 ARGONNE DR                          000N        CARE OF             
MTR09005400001000000000000000RA              8040032     000600990000009900000380000003NN  NNW 000   FIRE SERVICE        N    
RDG09005400WATRL000000006K00000000000000009009206252015124148N000000000000N91       000040600K 10000000010000000009           
CUS0900540000109420445000         ST. ELIZABETH SCHOOL801 ARGONNE DR                          000N        CARE OF             
MTR09005400001000000000000000RA              42847048    001501000000010000000520000003NN  NNW 000                       N    
RDG09005400WATRL000000005K00000000000005729009306252015124153N000000000000N91       000050500K 10000000010000005640           
CUS0900540000109258003004         SAINT GEORGES HOLDIN4200 ST GEORGES AVE                     000N        CARE OF             
MTR09005400001000000000000000RA              01116792    000201010000010100000610000003NN  NNW 000                       N    
RDG09005400WATRL000000005K00000000000013227009406252015124158N000000000000N91       000050500K 10000000010000012424           
CUS0900540000109258004002         WILLOW HOMES, LLC   4119 ST GEORGES AVE                     000N        CARE OF             
MTR09005400001000000000000000RA              42877015    000201020000010200000520000003NN  NNW 000                       N    
RDG09005400WATRL000000005K00000000000013590009506252015124203N000000000000N91       000050500K 10000000010000013362           
CUS0900540000109438369002         FAITH CHRISTIAN     505 E 42ND ST                           000N        CARE OF             
MTR09005400001000000000000000RA              01117232    000201030000010300000610000000NN  NNW 000                       N    
RDG09005400WATRL000000005K00000000000001667009606252015124214N000000000000N91       000110500K 10000000010000001644           
CUS0900540000109438370000         FAITH CHRISTAIN     505 E 42ND ST                           000N        CARE OF             
MTR09005400001000000000000000RA              8049906     000601040000010400000380000000NN  NNW 000   FIRE SERVICE        N    
RDG09005400WATRL000000006K00000000000000001009706252015124217N000000000000N91       000030600K 10000000010000000001           
CUS0900540000109258005009         DEPT OF EDUCATION   820 E 43RD ST                           000N        CARE OF             
MTR09005400002000000000000000RA              5498416     000601050000010500000540000003NY  NNW 000                       N    
MTM090054005498416     PUMP                                                                                                   
RDG09005400WATAL000000006K00000000000000000000000000000000000 000000000000U         000000600  10000000010000000001           
RDG09005400WATBL000000006K00000000000000000000000000000000000 000000000000U         000000600  10000000010000009750           
CUS0900540000109258006007         918-22 BELGIAN AVE  918-22 BELGIAN AVE                      000N        CARE OF             
MTR09005400001000000000000000RA              28966925    000201060000010600000520000003NN  NNW 000                       N    
RDG09005400WATRL000000005K00000000000019454009806252015124243N000000000000N91       000260500K 10000000010000019197           
CUS0900540000109415572008         BLESSED SACRAMENT RO4101 OLD YORK RD                        000N        CARE OF             
MTR09005400001000000000000000RA              8032839     000401070000010700000380000003NN  NNW 000   FIRE SERVICE        N    
RDG09005400WATRL000000006K00000000000000000009906252015124245N000000000000N91       000020600K 10000000010000000000           
CUS0900540000109415571000         BLESSED SACRAMENT RO4101 OLD YORK RD                        000N        CARE OF             
MTR09005400001000000000000000RA              41091085    001501080000010800000520000003NN  NNW 000                       N    
RDG09005400WATRL000000005K00000000000006641010006252015124250N000000000000N91       000050500K 10000000010000006594           
CUS0900540000109347553001         BUREAU OF GENERAL SE4317-25 YORK RD                         000N        CARE OF             
MTR09005400001000000000000000RA              99170779    001501090000010900000570000003NN  NNW 000                       N    
RDG09005400WATRL000000005K00000000000001210010106252015124253N000000000000N91       000030500K 10000000010000001193           
CUS0900540000109258007005         CHURCH OF THE REDEEM4321 OLD YORK RD                        000N        CARE OF             
MTR09005400001000000000000000RA              01105613    000201100000011000000610000003NN  NNW 000                       N    
RDG09005400WATRL000000005K00000000000006254010206252015124257N000000000000N91       000040500K 10000000010000006166           
CUS0900540000109444355003         SAFE HAVEN @ BLESSED4101-1/2 OLD YORK RD                    000N        CARE OF             
MTR09005400001000000000000000RA              01116917    000201110000011100000610000000NN  NNW 000                       N    
RDG09005400WATRL000000005K00000000000004198010306252015124302N000000000000N91       000050500K 10000000010000004094           
CUS0900540000109396909005         P S M I  MD 35203   4341 YORK RD                            000N        CARE OF             
MTR09005400001000000000000000RA              E22938      000801120000011200000430000003NN  NNW 000   FIRE SERVICE        N    
RDG09005400WATRL000000006K00000000000000000010406252015124305N000000000000N91       000030600K 10000000010000000000           
CUS0900540000109396908007         PUBLIC STORAGE CO   4341 YORK RD                            000N        CARE OF             
MTR09005400001000000000000000RA              39290699    005801130000011300000520000003NN  NNW 000   VACANT PROPERTY     N    
RDG09005400WATRL000000004K00000000000000000010506252015124316N000000000000N91       000110400K 10000000010000000000           
CUS0900540000104172712004         HOUSING AUTHORITY OF1529-33 GORSUCH AVE                     000N        CARE OF             
MTR09005400001000000000000000RA              01116997    000201140000011400000610000003NY  NNW 000                       N    
MTM0900540001116997    OK                                                                                                     
RDG09005400WATRL000000005K00000000000000013010606252015124450N000300000010N91       000940500K 10000000010000001898           
CUS0900540000104172713002         HOUSING AUTHORITY OF1535-37 GORSUCH AVE                     000N        CARE OF             
MTR09005400001000000000000000RA              29768584    000201150000011500000520000003NN  NNW 000                       N    
RDG09005400WATRL000000005K00000000000012129010706252015124504N000000000000N91       000140500K 10000000010000012017           
RTR09005400NN01210121000001210000000001150115000023NY011501150121001400040000000000000000000001    06082015NY020000 N         
RHD09005500NN01370137000001370000000001200120000027NY012001200137000700090000000000000000000001    06082015NY020000 N         
CUS0900550000109378961008         MORGAN STATE UNIVERS4530 PORTAGE AVE                        000N        CARE OF             
MTR09005500001000000000000000RA              32905079    001500010000000100000520000003NN  NNW 000                       N    
RDG09005500WATRL000000005K00000000000011614000106262015120853N000000000000N91       000000500K 10000000010000011593           
CUS0900550000109378960000         MORGAN STATE UNIVERS4530 PORTAGE AVE                        000N        CARE OF             
MTR09005500001000000000000000RA              E18472      000600020000000200000430000003NN  NNW 000   FIRE SERVICE        N    
RDG09005500WATRL000000006K00000000000000000000206262015120856N000000000000N91       000030600K 10000000010000000000           
CUS0900550000109433612000         MORGAN VIEW         1500 PENTRIDGE RD                       000N        CARE OF             
MTR09005500002000000000000000RA              0208725     000800030000000300000630000003NN  NNW 000                       N    
RDG09005500WATAL000000006K00000000000000288000306262015120907N000100000010N91       000110600K 10000000010000000288           
RDG09005500WATBL000000006K00000000000024396000406262015120915N000400000010N91       000080600K 10000000010000019619           
CUS0900550000109433613008         MORGANVIEW          1500A PENTRIDGE RD                      000N        CARE OF             
MTR09005500002000000000000000RA              0208721     000800040000000400000630000003NN  NNW 000                       N    
RDG09005500WATAL000000006K00000000000000002000506262015120919N000100000010N91       000040600K 10000000010000000002           
RDG09005500WATBL000000006K00000000000001634000606262015120957N000300000010N91       000380600K 10000000010000010495           
CUS0900550000109258073007         MAYOR & CITY COUNCIL1201 E COLD SPRING LN                   000N        CARE OF             
MTR09005500001000000000000000RA              31588540    000200050000000500000520000003NN  NNW 000                       N    
RDG09005500WATRL000000005K00000000000036590000706262015121006N000300000010N91       000090500K 10000000010000034071           
CUS0900550000109258072009         MAYOR & CITY COUNCIL1201 E COLD SPRING LN                   000N        CARE OF             
MTR09005500001000000000000000RA              31588100    001500060000000600000520000003NN  NNW 000                       N    
RDG09005500WATRL000000005K00000000000014600000806262015121013N000300000010N91       000070500K 10000000010000014693           
CUS0900550000109413059008         SUDSVILLE LAUNDRIES 1110 E COLD SPRING LN                   000N        CARE OF             
MTR09005500001000000000000000RA              01105930    000200070000000700000610000003NN  NNW 000                       N    
RDG09005500WATRL000000005K00000000000067460000906262015121040N000000000000N91       000270500K 10000000010000066307           
CUS0900550000109258071001         LEAGUE FOR HANDICAPP1111 E COLD SPRING LN                   000N        CARE OF             
MTR09005500002000000000000000RA              70048515    000400080000000800000560000003NN  NNW 000                       N    
RDG09005500WATAL000000006K00000000000000015001006262015121047N000100000010N91       000070600K 10000000010000000015           
RDG09005500WATBL000000006K00000000000002511001106262015121057N000300000010N91       000100600K 10000000010000097806           
CUS0900550000109410815006         COLD SPRING SHOPPING1401 E COLD SPRING LN                   000N        CARE OF             
MTR09005500001000000000000000RA              29372230    000200090000000900000520000003NN  NNW 000                       N    
RDG09005500WATRL000000005K00000000000028315001206262015121107N000000000000N91       000100500K 10000000010000028197           
CUS0900550000109258077008         MARBLE HALL HOLDINGS4416-30 MARBLE HALL RD                  000N        CARE OF             
MTR09005500001000000000000000RA              1176551     000200100000001000000490000003NN  NNW 000                       N    
RDG09005500WATRL000000005K00000000000017516001306262015121112N000000000000N91       000050500K 10000000010000016965           
CUS0900550000109258078006         MARBLE HALL HOLDINGS4400-14 MARBLE HALL RD                  000N        CARE OF             
MTR09005500001000000000000000RA              1115135     000200110000001100000490000003NN  NNW 000                       N    
RDG09005500WATRL000000005K00000000000010487001406262015121132N000000000000N91       000200500K 10000000010000009862           
CUS0900550000109258076000         MARBLE HALL HOLDINGS4401-21 MARBLE HALL RD                  000N        CARE OF             
MTR09005500001000000000000000RA              1150415     000300120000001200000490000003NN  NNW 000                       N    
RDG09005500WATRL000000005K00000000000003622001506262015121136N000000000000N91       000040500K 10000000010000003622           
CUS0900550000109258075002         MARBLE HALL HOLDINGS4317-27 MARBLE HALL RD                  000N        CARE OF             
MTR09005500001000000000000000RA              01105304    001500130000001300000610000003NN  NNW 000                       N    
RDG09005500WATRL000000005K00000000000027497001606262015121140N000000000000N91       000040500K 10000000010000027060           
CUS0900550000109258074005         MARBLE HALL HOLDINGS4301-15 MARBLE HALL RD                  000N        CARE OF             
MTR09005500001000000000000000RA              1178550     000200140000001400000490000003NN  NNW 000                       N    
RDG09005500WATRL000000005K00000000000046420001706262015121158N000100000010N91       000180500K 10000000010000046420           
CUS0900550000109258080002         MARBLE HALL HOLDINGS4216-30 LOCH RAVEN BLVD                 000N        CARE OF             
MTR09005500001000000000000000RA              1178036     000200150000001500000490000003NN  NNW 000                       N    
RDG09005500WATRL000000005K00000000000046526001806262015121206N000000000000N91       000080500K 10000000010000045841           
CUS0900550000109258081000         MARBLE HALL HOLDINGS4200-14 LOCH RAVEN BLVD                 000N        CARE OF             
MTR09005500001000000000000000RA              1178035     000200160000001600000490000003NN  NNW 000                       N    
RDG09005500WATRL000000005K00000000000032080001906262015121209N000000000000N91       000030500K 10000000010000031584           
CUS0900550000109258082008         NORTHWOOD S C, LLC  1517 HAVENWOOD RD                       000N        CARE OF             
MTR09005500001000000000000000RA              29768595    000200170000001700000520000003NN  NNW 000   OFFICIAL VACANCY    N    
RDG09005500WATRL000000005K00000000000012893002006262015121219N000000000000N91       000100500K 10000000010000012893           
CUS0900550000109258085001         NORTHWOOD S C, LLC  1524-30 HAVENWOOD RD                    000N        CARE OF             
MTR09005500001000000000000000RA              30528814    007500180000001800000520000003NN  NNW 000                       N    
RDG09005500WATRL000000004K00000000000000050002106262015121222N000000000000N91       000030400K 10000000010000000048           
CUS0900550000109258086009         NORTHWOOD S C, LLC  1532-34 HAVENWOOD RD                    000N        CARE OF             
MTR09005500001000000000000000RA              33084110    000200190000001900000520000003NN  NNW 000   VACANT PROPERTY     N    
RDG09005500WATRL000000005K00000000000002464002206262015121226N000000000000N91       000040500K 10000000010000002464           
CUS0900550000109258088005         NORTHWOOD S C, LLC  1544-50 HAVENWOOD RD                    000N        CARE OF             
MTR09005500001000000000000000RA              29067418    005800200000002000000520000003NN  NNW 000                       N    
RDG09005500WATRL000000004K00000000000009404002306262015121232N000000000000N91       000060400K 10000000010000009397           
CUS0900550000109258087007         NORTHWOOD S C, LLC  1552-54 HAVENWOOD RD                    000N        CARE OF             
MTR09005500001000000000000000RA              35105168    000200210000002100000520000003NY  NNW 000                       N    
MTM0900550035105168    DUMPSTER                                                                                               
RDG09005500WATRL000000005K00000000000000000000000000000000000 000000000000U         000000500  10000000010000026336           
