FHDNNNN039007668007668007842N                                                                                           027662
RHD09004900NN01490149000001490000000001340134000019NY013401340149001100080000000000000000000001    07072015NY020000 N         
CUS0900490000109442823002         CHARLES & BLACKSTONE3333 N CHARLES ST                       000N        CARE OF             
MTR09004900001000000000000000RA              8051955     000600010000000100000410000000NN  NNW 000   FIRE SERVICE        N    
RDG09004900WATRL000000006K00000000000002061000107292015121641N000100000010N93       000000600K 10000000010000002061           
CUS0900490000109442822004         WP& M REAL ESTATE GR3333 N CHARLES ST                       000N        CARE OF             
MTR09004900001000000000000000RA              60795954    000300020000000200000470000000NN  NNW 000                       N    
RDG09004900WATRL000000005K00000000000016361000207292015121645N000000000000N93       000040500K 10000000010000015323           
CUS0900490000109433452001         JOHNS HOPKINS UNIVER3505 N CHARLES ST                       000N        CARE OF             
MTR09004900001000000000000000RA              8047066     000600030000000300000380000000NN  NNW 000   FIRE SERVICE        N    
RDG09004900WATRL000000006K00000000000000001000307292015121649N000000000000N93       000040600K 10000000010000000001           
CUS0900490000109433454007         JOHNS HOPKINS, JHFRE3505 N CHARLES ST                       000N        CARE OF             
MTR09004900001000000000000000RA              99168646    001500040000000400000570000000NN  NNW 000                       N    
RDG09004900WATRL000000005K00000000000001187000407292015121652N000000000000N93       000030500K 10000000010000001177           
CUS0900490000109257561002         CARLTON CONDOMINIUM 3507-09 N CHARLES ST                    000N        CARE OF             
MTR09004900001000000000000000RA              01117221    000200050000000500000610000003NN  NNW 000                       N    
RDG09004900WATRL000000005K00000000000011454000507292015121657N000000000000N93       000050500K 10000000010000011313           
CUS0900490000109437737001         JOHN HOPKINS, JHFRE 3330 ST PAUL ST                         000N        CARE OF             
MTR09004900002000000000000000RA              8042238     000800060000000600000380000000NN  NNW 000   FIRE SERVICE        N    
RDG09004900WATAL000000006K00000000000000000000107302015111651S022000000000U93       000000600K 10000000010000000089           
RDG09004900WATBL000000006K00000000000000085000207302015111657N000300000010U93       000060600K 10000000010000000091           
CUS0900490000109437739007         JOHN HOPKINS, JHFRE 3330 ST PAUL ST                         000N        CARE OF             
MTR09004900002000000000000000RA              60000002    000600070000000700000460000000NN  NNW 000                       N    
RDG09004900WATAL000000006K00000000000025610000607292015121708N000000000000N93       000110600K 10000000010000023116           
RDG09004900WATBL000000006K00000000000009873000707292015121718N000400000010N93       000100600K 10000000010000008493           
CUS0900490000109385890000         BALTIMORE INTERNATIO3404 ST PAUL ST                         000N        CARE OF             
MTR09004900001000000000000000RA              35109481    000200080000000800000520000003NN  NNW 000                       N    
RDG09004900WATRL000000005K00000000000024147000807292015121723N000000000000N93       000050500K 10000000010000024007           
CUS0900490000109385889002         BALTIMORE INTERNATIO3404 ST PAUL ST                         000N        CARE OF             
MTR09004900001000000000000000RA              E21149      000600090000000900000430000003NN  NNW 000   FIRE SERVICE        N    
RDG09004900WATRL000000006K00000000000000000000907292015121726N000000000000N93       000030600K 10000000010000000000           
CUS0900490000109403632004         JOHNS HOPKINS UNIVER3301 ST PAUL ST                         000N        CARE OF             
MTR09004900001000000000000000RA              7234080     000600100000001000000340000003NN  NNW 000   FIRE SERVICE        N    
RDG09004900WATRL000000006K00000000000000001001007292015121729N000000000000N93       000030600K 10000000010000000001           
CUS0900490000109439750002         VILLAGE LOFT CONDOMI3201 ST PAUL ST                         000N        CARE OF             
MTR09004900001000000000000000RA              01025953    000400110000001100000460000003NN  NNW 000                       N    
RDG09004900WATRL000000006K00000000000019191001107292015121739N000300000010N93       000100600K 10000000010000018459           
CUS0900490000103447057005         CHIPOLTE MEXICAN GRI3201 ST PAUL ST                         000N        CARE OF             
MTR09004900001000000000000000RA              99999999    005800120000001200000680000003NN  NNW 000                       N    
RDG09004900WATRL000000004K00000000000000000000307302015111700S040000000000U93       000030400K 10000000010000002416           
CUS0900490000109439748006         VILLAGE LOFTS CONDOM3201 ST PAUL ST                         000N        CARE OF             
MTR09004900001000000000000000RA              8047231     000600130000001300000380000000NN  NNW 000   FIRE SERVICE        N    
RDG09004900WATRL000000006K00000000000000000001207292015121745N000000000000N93       000060600K 10000000010000000000           
CUS0900490000109410493002         UNION MEMORIAL HOSPI3400 N CALVERT ST                       000N        CARE OF             
MTR09004900001000000000000000RA              01105068    001500140000001400000610000000NN  NNW 000                       N    
RDG09004900WATRL000000005K00000000000002723001307292015121750N000000000000N93       000050500K 10000000010000002715           
CUS0900490000109410491006         UNION MEMORIAL HOSPI3400 N CALVERT ST                       000N        CARE OF             
MTR09004900001000000000000000RA              8032143     000600150000001500000380000000NN  NNW 000   FIRE SERVICE        N    
RDG09004900WATRL000000006K00000000000000000001407292015121753N000000000000N93       000030600K 10000000010000000000           
CUS0900490000109410523006         UNION MEMORIAL HOSPI110 E 33RD ST                           000N        CARE OF             
MTR09004900001000000000000000RA              31664178    001500160000001600000520000003NN  NNW 000                       N    
RDG09004900WATRL000000005K00000000000005289001507292015121757N000000000000N93       000040500K 10000000010000005243           
CUS0900490000109410519004         UNION MEMORIAL HOSPI110 E 33RD ST                           000N        CARE OF             
MTR09004900001000000000000000RA              8032200     000400170000001700000380000003NN  NNW 000   FIRE SERVICE        N    
RDG09004900WATRL000000006K00000000000000002001607292015121801N000000000000N93       000040600K 10000000010000000002           
CUS0900490000109410524004         UNI0N MEMORIAL HOSPI3311 N CALVERT ST                       000N        CARE OF             
MTR09004900001000000000000000RA              45382537    005800180000001800000520000003NN  NNW 000                       N    
RDG09004900WATRL000000004K00000000000000000001707292015121804N000000000000N93       000030400K 10000000010000000000           
CUS0900490000109410521000         UNION MEMORIAL HOSPT3311 N CALVERT ST                       000N        CARE OF             
MTR09004900001000000000000000RA              8032147     000600190000001900000380000003NN  NNW 000   FIRE SERVICE        N    
RDG09004900WATRL000000006K00000000000001118001807292015121813N000400000010N93       000090600K 10000000010000001101           
CUS0900490000109410527007         UNION MEMORIAL HOSPI3310 N CALVERT ST                       000N        CARE OF             
MTR09004900001000000000000000RA              37690700    000100200000002000000520000003NN  NNW 000                       N    
RDG09004900WATRL000000004K00000000000001303001907292015121821N000000000000N93       000080400K 10000000010000001299           
CUS0900490000109410525001         UNION MEMORIAL HOSPI3310 N CALVERT ST                       000N        CARE OF             
MTR09004900001000000000000000RA              8023198     000400210000002100000340000003NN  NNW 000   FIRE SERVICE        N    
RDG09004900WATRL000000006K00000000000000012002007292015121825N000000000000N93       000040600K 10000000010000000012           
CUS0900490000109257588005         MARYLANDER ASSOCIATE3501 ST PAUL ST                         000N        CARE OF             
MTR09004900002000000000000000RA              5461294     000400220000002200000480000003NY  NNW 000                       N    
MTM090049005461294     reads ok                                                                                               
RDG09004900WATAL000000006K00000000000039148002107292015121841N000300000010N93       000160600K 10000000010000041595           
RDG09004900WATBL000000006K00000000000021631002207292015121850N000300000010N93       000090600K 10000000010000024901           
CUS0900490000109257587007         MARYLANDER ASSOCIATE3501 ST PAUL ST                         000N        CARE OF             
MTR09004900002000000000000000RA              2564340     000400230000002300000480000003NY  NNW 000                       N    
MTM090049002564340     not reg                                                                                                
RDG09004900WATAL000000006K00000000000000000002307292015121907N000000000000N93       000170600K 10000000010000000000           
RDG09004900WATBL000000006K00000000000002304002407292015121913N000100000010N93       000060600K 10000000010000002304           
CUS0900490000109257595000         300A II UNIVERSITY L300A E UNIVERSITY PKWY                  000N        CARE OF             
MTR09004900001000000000000000RA              29768533    000200240000002400000520000003NN  NNW 000                       N    
RDG09004900WATRL000000005K00000000000020734002507292015121931N000000000000N93       000180500K 10000000010000020553           
CUS0900490000109395178008         JAPAK, LLC          3240 GREENMOUNT AVE                     000N        CARE OF             
MTR09004900001000000000000000RA              99169978    000200250000002500000570000003NN  NNW 000                       N    
RDG09004900WATRL000000005K00000000000011696002607292015121935N000000000000N93       000040500K 10000000010000011548           
CUS0900490000109367353001         MAVERICK 3203 GREENM3203 GREENMOUNT AVE                     000N        CARE OF             
MTR09004900001000000000000000RA              30523642    005800260000002600000520000003NN  NNW 000                       N    
RDG09004900WATRL000000004K00000000000003211002707292015121939N000000000000N93       000040400K 10000000010000003185           
CUS0900490000109367352003         MAVERICK 3203 GREENM3203 GREENMOUNT AVE                     000N        CARE OF             
MTR09004900001000000000000000RA              E16206      000600270000002700000430000003NN  NNW 000   FIRE SERVICE        N    
RDG09004900WATRL000000006K00000000000000004002807292015121942N000000000000N93       000030600K 10000000010000000004           
CUS0900490000109257597006         3040 GREENMOUNT LLC 3042 GREENMOUNT AVE                     000N        CARE OF             
MTR09004900001000000000000000RA              31938279    001500280000002800000520000003NN  NNW 000                       N    
RDG09004900WATRL000000005K00000000000004302002907292015121950N000300000010N93       000080500K 10000000010000004291           
CUS0900490000109422218009         JHQ PROPERTIES LLC  3007 GREENMOUNT AVE                     000N        CARE OF             
MTR09004900001000000000000000RA              1476483     000200290000002900000490000003NN  NNW 000                       N    
RDG09004900WATRL000000005K00000000000072688003007292015121954N000000000000N93       000040500K 10000000010000071472           
CUS0900490000109257596008         SNYDER, ROSALIND (LI3302-06 GREENMOUNT AVE                  000N        CARE OF             
MTR09004900001000000000000000RA              9411386     000300300000003000000640000003NN  NNW 000                       N    
RDG09004900WATRL000000005K00000000000001289003107292015121958N000000000000N93       000040500K 10000000010000001204           
CUS0900490000109257581000         BRODY, BARBARA C    101 STRATFORD RD                        000N        CARE OF             
MTR09004900001000000000000000RA              14914832    001500310000003100000310000003NN  NNW 000                       N    
RDG09004900WATRL000000005K00000000000004024003207292015122006N000300000010N93       000080500K 10000000010000003906           
CUS0900490000109373842005         STRATFORD GREEN     4310 UNDERWOOD RD                       000N        CARE OF             
MTR09004900001000000000000000RA              1115123     000200320000003200000490000003NN  NNW 000                       N    
RDG09004900WATRL000000005K00000000000026643003307292015122013N000300000010N93       000070500K 10000000010000026083           
CUS0900490000109257580002         FLEMING, BRUCE & LIN225 NORTHWAY                            000N        CARE OF             
MTR09004900001000000000000000RA              52291031    000100330000003300000520000003NN  NNW 000                       N    
RDG09004900WATRL000000004K00000000000004172003407292015122018N000000000000N93       000050400K 10000000010000004121           
CUS0900490000109257579004         BUREAU OF WATER SUPP4428 UNDERWOOD RD                       000N        CARE OF             
MTR09004900001000000000000000RA              1150681     000300340000003400000490000000NN  NNW 000                       N    
RDG09004900WATRL000000005K00000000000000985003507292015122022N000000000000N93       000040500K 10000000010000000985           
CUS0900490000109411021000         BUREAU OF WATER SUPP4428 UNDERWOOD RD                       000N        CARE OF             
MTR09004900001000000000000000RA              01117273    000200350000003500000610000003NN  NNW 000                       N    
RDG09004900WATRL000000005K00000000000000000003607292015122025N000000000000N93       000030500K 10000000010000000000           
CUS0900490000109408641000         AN, HYUN SOOK       4520 YORK RD                            000N        CARE OF             
MTR09004900001000000000000000RA              1421384     000400360000003600000470000003NN  NNW 000                       N    
RDG09004900WATRL000000006K00000000000012945003707292015122034N000300000010N93       000090600K 10000000010000012476           
CUS0900490000109375010007         LOYOLA COLLEGE IN MD4501 N CHARLES ST                       000N        CARE OF             
MTR09004900002000000000000000RA              7045847     000800370000003700000630000003NN  NNW 000                       N    
RDG09004900WATAL000000006K00000000000000001003807292015122040N000100000010N93       000060600K 10000000010000000001           
RDG09004900WATBL000000006K00000000000006852003907292015122047N000400000010N93       000070600K 10000000010000006046           
CUS0900490000109428245006         LOYOLA COLLEGE IN MD4501 N CHARLES ST                       000N        CARE OF             
MTR09004900002000000000000000RA              70073529    000800380000003800000560000000NN  NNW 000                       N    
RDG09004900WATAL000000006K00000000000000521004007292015122054N000100000010N93       000070600K 10000000010000000521           
RDG09004900WATBL000000006K00000000000004183004107292015122102N000400000010N93       000080600K 10000000010000003985           
CUS0900490000109257565003         JOHNS HOPKINS UNIVER4545 N CHARLES ST                       000N        CARE OF             
MTR09004900001000000000000000RA              90000071    000200390000003900000570000003NN  NNW 000                       N    
RDG09004900WATRL000000005K00000000000005098004207292015122109N000000000000N93       000070500K 10000000010000004934           
CUS0900490000109257566001         JOHNS HOPKINS UNIVER4545 N CHARLES ST                       000N        CARE OF             
MTR09004900002000000000000000RA              1551613     000600400000004000000390000000NN  NNW 000   FIRE SERVICE        N    
RDG09004900WATAL000000006K00000000000000016004307292015122112N000000000000N93       000030600K 10000000010000000016           
RDG09004900WATBL000000006K00000000000000004004407292015122118N000400000010N93       000060600K 10000000010000000003           
CUS0900490000109257569005         VILLAGES @ HOMELAND 311 HOMELAND AVE                        000N        CARE OF             
MTR09004900002000000000000000RA              0200751     000600410000004100000540000003NN  NNW 000                       N    
RDG09004900WATAL000000006K00000000000000006004507292015122123N000100000010N93       000050600K 10000000010000000006           
RDG09004900WATBL000000006K00000000000058366004607292015122131N000400000010N93       000080600K 10000000010000051524           
CUS0900490000109257571001         VILLAGE OF HOMELAND 401-11 HOMELAND AVE                     000N        CARE OF             
MTR09004900002000000000000000RA              6047495     000600420000004200000540000003NY  NNW 000                       N    
MTM090049006047495     4 fig read                                                                                             
RDG09004900WATAL000000006K00000000000000000004707292015122138N000100000010N93       000070600K 10000000010000000000           
RDG09004900WATBL000000006K00000000000004918004807292015122148N000300000010N93       000100600K 10000000010000020686           
CUS0900490000109442371002         GREATER TEXAS       5230 YORK RD                            000N        CARE OF             
MTR09004900001000000000000000RA              61381515    000400430000004300000470000000NN  NNW 000                       N    
RDG09004900WATRL000000006K00000000000000000000407302015111708S063000000000U93       000080600K 10000000010000000377           
CUS0900490000109442369006         GREATER TEXAS       5230 YORK RD                            000N        CARE OF             
MTR09004900001000000000000000RA              99999999    000400440000004400000440000000NN  NNW 000   FIRE SERVICE        N    
RDG09004900WATRL000000006K00000000000000000004907292015122214N000000000000N93       000260600K 10000000010000000000           
CUS0900490000109257573007         HABC 16-71          5218-22 YORK RD                         000N        CARE OF             
MTR09004900001000000000000000RA              1385687     000400450000004500000490000003NN  NNW 000                       N    
RDG09004900WATRL000000006K00000000000093418005007292015122220N000000000000N93       000060600K 10000000010000090436           
CUS0900490000109257572009         HABC 16-71          5218-22 YORK RD                         000N        CARE OF             
MTR09004900001000000000000000RA              5183744     000600460000004600000410000003NN  NNW 000   CITY FIRE SERV      N    
RDG09004900WATRL000000006K00000000000000453005107292015122224N000000000000N93       000040600K 10000000010000000453           
CUS0900490000109381734004         LOYOLA COLLEGE IN MD430 NOTRE DAME LN                       000N        CARE OF             
MTR09004900002000000000000000RA              7102374     000600470000004700000630000000NN  NNW 000                       N    
RDG09004900WATAL000000006K00000000000000000005207292015122229N000000000000N93       000050600K 10000000010000000000           
RDG09004900WATBL000000006K00000000000000001005307292015122234N000100000010N93       000050600K 10000000010000000001           
CUS0900490000109419491007         GALLAGEHER MANSION I431 NOTRE DAME LN                       000N        CARE OF             
MTR09004900001000000000000000RA              8036086     000400480000004800000380000003NN  NNW 000   FIRE SERVICE        N    
RDG09004900WATRL000000006K00000000000000004005407292015122236N000000000000N93       000020600K 10000000010000000004           
CUS0900490000109419493003         GALLAGEHER MANSION 0431 NOTRE DAME LN                       000N        CARE OF             
MTR09004900001000000000000000RA              1401280     000300490000004900000470000003NY  NNW 000                       N    
MTM090049001401280     not reg                                                                                                
RDG09004900WATRL000000005K00000000000010303005507292015122243N000000000000N93       000070500K 10000000010000010303           
CUS0900490000109445910004         LOYOLA UNIVERSITY   417 NOTRE DAME LN                       000N        CARE OF             
MTR09004900001000000000000000RA              90000189    000200500000005000000570000003NN  NNW 000                       N    
RDG09004900WATRL000000005K00000000000005031005607292015122302N000400000010N93       000190500K 10000000010000004910           
CUS0900490000109257576000         LOYOLA COLLEGE IN MD200 WINSTON AVE                         000N        CARE OF             
MTR09004900002000000000000000RA              5003425     000600510000005100000630000003NN  NNW 000                       N    
RDG09004900WATAL000000006K00000000000000012005707292015122308N000100000010N93       000060600K 10000000010000000012           
RDG09004900WATBL000000006K00000000000028259005807292015122322N000400000010N93       000140600K 10000000010000026734           
CUS0900490000109420658008         CVS SITE            5200 YORK RD                            000N        CARE OF             
MTR09004900001000000000000000RA              45388803    007500520000005200000520000003NN  NNW 000                       N    
RDG09004900WATRL000000004K00000000000005150005907292015122326N000000000000N93       000040400K 10000000010000005140           
CUS0900490000109257575002         5010 YORK ROAD REAL 5010 YORK RD                            000N        CARE OF             
MTR09004900001000000000000000RA              00066656    000200530000005300000570000003NN  NNW 000                       N    
RDG09004900WATRL000000005K00000000000006354006007292015122331N000000000000N93       000050500K 10000000010000006092           
CUS0900490000109437730006         THE ARC OF BALTIMORE4800 YORK RD                            000N        CARE OF             
MTR09004900001000000000000000RA              8046585     000400540000005400000380000000NN  NNW 000   FIRE SERVICE        N    
RDG09004900WATRL000000006K00000000000000001006107292015122334N000000000000N93       000030600K 10000000010000000001           
CUS0900490000109437732002         THE ARC OF BALTIMORE4800 YORK RD                            000N        CARE OF             
MTR09004900001000000000000000RA              01105841    000200550000005500000610000003NN  NNW 000                       N    
RDG09004900WATRL000000005K00000000000002406006207292015122339N000000000000N93       000050500K 10000000010000002325           
CUS0900490000109257577008         U S POSTAL SERVICE  4902-06 YORK RD                         000N        CARE OF             
MTR09004900001000000000000000RA              01105915    000200560000005600000610000003NY  NNW 000                       N    
MTM0900490001105915    read ok occ                                                                                            
RDG09004900WATRL000000005K00000000000001053006307292015122348N000300000010N93       000090500K 10000000010000001264           
CUS0900490000109257606005         SLH PROPERTIES LIMIT2920 GREENMOUNT AVE                     000N        CARE OF             
MTR09004900001000000000000000RA              31588430    000200570000005700000520000003NN  NNW 000   OFFICIAL VACANCY    N    
RDG09004900WATRL000000005K00000000000000000006407292015122400N000000000000N93       000120500K 10000000010000000000           
CUS0900490000109257605007         SLH PROPERTIES LIMIT2920 GREENMOUNT AVE                     000N        CARE OF             
MTR09004900001000000000000000RA              5183739     000600580000005800000410000003NN  NNW 000   FIRE SERVICE        N    
RDG09004900WATRL000000006K00000000000000032006507292015122420N000000000000N93       000200600K 10000000010000000032           
CUS0900490000109257610007         ALPHA BUSINESS CENTE400 E 29TH ST                           000N        CARE OF             
MTR09004900001000000000000000RA              01105417    001500590000005900000440000003NY  NNW 000                       N    
MTM0900490001105417    vacant                                                                                                 
RDG09004900WATRL000000005K00000000000000926006607292015122429N000100000010N93       000090500K 10000000010000000926           
CUS0900490000109257608001         ALPHA BUSINESS CENTE400 E 29TH ST                           000N        CARE OF             
MTR09004900001000000000000000RA              3051280     000400600000006000000410000003NN  NNW 000   FIRE SERVICE        N    
RDG09004900WATRL000000006K00000000000000004006707292015122442N000000000000N93       000130600K 10000000010000000004           
CUS0900490000109257607003         DEPT. OF EDUCATION  2900 BARCLAY ST                         000N        CARE OF             
MTR09004900001000000000000000RA              9504076     000300610000006100000640000003NN  NNW 000                       N    
RDG09004900WATRL000000005K00000000000015217006807292015122447N000000000000N93       000050500K 10000000010000014225           
CUS0900490000109257609009         DEPT. OF EDUCATION  2900 BARCLAY ST                         000N        CARE OF             
MTR09004900001000000000000000RA              3359768     000600620000006200000410000003NN  NNW 000   CITY FIRE SERV      N    
RDG09004900WATRL000000006K00000000000000000006907292015122450N000000000000N93       000030600K 10000000010000000000           
CUS0900490000109257602004         PEABODY APARTMENTS, 201-05 E 30TH ST                        000N        CARE OF             
MTR09004900001000000000000000RA              31588353    000200630000006300000520000003NN  NNW 000                       N    
RDG09004900WATRL000000005K00000000000040295007007292015122457N000000000000N93       000070500K 10000000010000040175           
CUS0900490000109257601006         GILMAN PROPERTIES, I3025-43 N CALVERT ST                    000N        CARE OF             
MTR09004900001000000000000000RA              51476589    000200640000006400000520000003NN  NNW 000                       N    
RDG09004900WATRL000000005K00000000000036058007107292015122501N000000000000N93       000040500K 10000000010000035616           
CUS0900490000109257600008         CALVERT COURT CO    3024 N CALVERT ST                       000N        CARE OF             
MTR09004900001000000000000000RA              01117064    000200650000006500000610000003NY  NNW 000                       N    
MTM0900490001117064    locked                                                                                                 
RDG09004900WATRL000000005K00000000000000000000000000000000000 000000000000U         000000500  10000000010000010636           
CUS0900490000109257599002         QUASAR PROPERTIES LL220 E 31ST ST                           000N        CARE OF             
MTR09004900001000000000000000RA              33084130    000200660000006600000520000003NY  NNW 000                       N    
MTM0900490033084130    locked                                                                                                 
RDG09004900WATRL000000005K00000000000000000000000000000000000 000000000000U         000000500  10000000010000029842           
CUS0900490000109257598004         QUASAR PROPERTIES LL220 E 31ST ST                           000N        CARE OF             
MTR09004900001000000000000000RA              6030926     000400670000006700000410000003NY  NNW 000   FIRE SERVICE        N    
MTM090049006030926     locked                                                                                                 
RDG09004900WATRL000000006K00000000000000000000000000000000000 000000000000U         000000600  10000000010000000000           
CUS0900490000109367349009         VERIZON             210 E 31ST ST                           000N        CARE OF             
MTR09004900001000000000000000RA              00066659    000200680000006800000570000003NN  NNW 000                       N    
RDG09004900WATRL000000005K00000000000000355007207292015122516N000000000000N93       000150500K 10000000010000000350           
CUS0900490000109367348001         C & P TELEPHONE CO  210 E 31ST ST                           000N        CARE OF             
MTR09004900001000000000000000RA              E13204      000400690000006900000430000003NN  NNW 000   FIRE SERVICE        N    
RDG09004900WATRL000000006K00000000000000000007307292015122519N000000000000N93       000030600K 10000000010000000000           
CUS0900490000109257612003         HABC                401 E 25TH ST                           000N        CARE OF             
MTR09004900001000000000000000RA              9310128     000400700000007000000640000003NY  NNW 000                       N    
MTM090049009310128     const                                                                                                  
RDG09004900WATRL000000006K00000000000000000000000000000000000 000000000000U         000000600  10000000010000048936           
CUS0900490000109257611005         HOUSING AUTHORITY   401 E 25TH ST                           000N        CARE OF             
MTR09004900001000000000000000RA              5603847     000600710000007100000410000003NY  NNW 000   CITY FIRE SERV      N    
MTM090049005603847     const                                                                                                  
RDG09004900WATRL000000006K00000000000000000000000000000000000 000000000000U         000000600  10000000010000005060           
CUS0900490000109436965009         MANNER HOUSE INC    437 E 25TH ST                           000N        CARE OF             
MTR09004900001000000000000000RA              8046052     000400720000007200000380000003NN  NNW 000   FIRE SERVICE        N    
RDG09004900WATRL000000006K00000000000000000007407292015122527N000000000000N93       000080600K 10000000010000000000           
CUS0900490000109436967005         MANNER HOUSE INC    437 E 25TH ST                           000N        CARE OF             
MTR09004900001000000000000000RA              01105356    001500730000007300000610000000NN  NNW 000                       N    
RDG09004900WATRL000000005K00000000000003303007507292015122531N000000000000N93       000040500K 10000000010000003213           
CUS0900490000109257613001         MARYLAND 25, LLC    2434-44 GREENMOUNT AVE                  000N        CARE OF             
MTR09004900001000000000000000RA              01105806    000200740000007400000610000003NN  NNW 000                       N    
RDG09004900WATRL000000005K00000000000002402007607292015122535N000000000000N93       000040500K 10000000010000002361           
CUS0900490000109257614009         MARYLAND 25, LLC    2434-44 GREENMOUNT AVE                  000N        CARE OF             
MTR09004900001000000000000000RA              1105119     000800750000007500000410000000NN  NNW 000   FIRE SERVICE        N    
RDG09004900WATRL000000006K00000000000000000007707292015122537N000000000000N93       000020600K 10000000010000000000           
CUS0900490000109257617002         BUREAU OF BLDGS     1812-22 GREENMOUNT AVE                  000N        CARE OF             
MTR09004900001000000000000000RA              0908785     000300760000007600000640000003NN  NNW 000                       N    
RDG09004900WATRL000000005K00000000000001193007807292015122541N000000000000N93       000040500K 10000000010000001016           
CUS0900490000109454242000         2007 BARCLAY LLC    400-412 E 20TH ST                       000N        CARE OF             
MTR09004900001000000000000000RA              0006702     000400770000007700000640000003NN  NNW 000   FIRE SERVICE        N    
RDG09004900WATRL000000006K00000000000000000007907292015122547N000000000000N93       000060600K 10000000010000000000           
CUS0900490000109454243008         2007 BARCLAY LLC    400-412 E 20TH ST                       000N        CARE OF             
MTR09004900001000000000000000RA              70000082    001500780000007800000570000003NN  NNW 000                       N    
RDG09004900WATRL000000005K00000000000001380008007292015122550N000000000000N93       000030500K 10000000010000001118           
CUS0900490000109454249005         2007 BARCLAY LLC    420-428 E 20TH ST                       000N        CARE OF             
MTR09004900001000000000000000RA              0006719     000400790000007900000570000003NN  NNW 000   FIRE SERVICE        N    
RDG09004900WATRL000000006K00000000000000001008107292015122553N000000000000N93       000030600K 10000000010000000001           
CUS0900490000109454250003         2007 BARCLAY LLC    420-428 E 20TH ST                       000N        CARE OF             
MTR09004900001000000000000000RA              70000095    001500800000008000000570000003NN  NNW 000                       N    
RDG09004900WATRL000000005K00000000000000734008207292015122557N000000000000N93       000040500K 10000000010000000571           
CUS0900490000109454245003         HABC/HOUSING AUTH   401-427 E 20TH ST                       000N        CARE OF             
MTR09004900001000000000000000RA              0006918     000600810000008100000570000000NN  NNW 000   FIRE SERVICE        N    
RDG09004900WATRL000000006K00000000000000002008307292015122600N000000000000N93       000030600K 10000000010000000002           
CUS0900490000109454246001         2007 BARCLAY LLC    401-427 E 20TH ST                       000N        CARE OF             
MTR09004900001000000000000000RA              74032974    000400820000008200000460000000NN  NNW 000                       N    
RDG09004900WATRL000000006K00000000000001433008407292015122609N000000000000N93       000090600K 10000000010000001206           
CUS0900490000109454248007         2007 BARCLAY LLC    427-433 E 21ST ST                       000N        CARE OF             
MTR09004900001000000000000000RA              70000071    001500830000008300000570000003NN  NNW 000                       N    
RDG09004900WATRL000000005K00000000000000739008507292015122614N000000000000N93       000050500K 10000000010000000508           
CUS0900490000109444455001         MOTHER SETON ACADEMY2209 GREENMOUNT AVE                     000N        CARE OF             
MTR09004900001000000000000000RA              8053232     000600840000008400000410000000NN  NNW 000   FIRE SERVICE        N    
RDG09004900WATRL000000006K00000000000000002008607292015122617N000000000000N93       000030600K 10000000010000000002           
CUS0900490000109444457007         MOTHER SETON ACADEMY2215 GREENMOUNT AVE                     000N        CARE OF             
MTR09004900001000000000000000RA              90000007    000200850000008500000570000000NN  NNW 000                       N    
RDG09004900WATRL000000005K00000000000001253008707292015122624N000300000010N93       000070500K 10000000010000001157           
CUS0900490000109257618000         BALTIMORE METROPOLIT425 E FEDERAL ST                        000N        CARE OF             
MTR09004900002000000000000000RA              5364241     000400860000008600000480000003NN  NNW 000                       N    
RDG09004900WATAL000000006K00000000000000001008807292015122632N000100000010N93       000080600K 10000000010000000001           
RDG09004900WATBL000000006K00000000000001017008907292015122639N000400000010N93       000070600K 10000000010000000991           
CUS0900490000109257620006         C&H REALTY          419-31 E OLIVER ST                      000N        CARE OF             
MTR09004900001000000000000000RA              31588422    000200870000008700000520000003NN  NNW 000                       N    
RDG09004900WATRL000000005K00000000000009133009007292015122653N000000000000N93       000140500K 10000000010000008813           
CUS0900490000109257622002         1400 GREENMOUNT, LLC1400-10 GREENMOUNT AVE                  000N        CARE OF             
MTR09004900001000000000000000RA              41091114    001500880000008800000520000003NN  NNW 000                       N    
RDG09004900WATRL000000005K00000000000000782009107292015122657N000000000000N93       000040500K 10000000010000000779           
CUS0900490000109257621004         1400 GREENMOUNT, LLC1400-10 GREENMOUNT AVE                  000N        CARE OF             
MTR09004900001000000000000000RA              1162432     000400890000008900000410000003NN  NNW 000   FIRE SERVICE        N    
RDG09004900WATRL000000006K00000000000000000000507302015111850S005000000000U93       001020600K 10000000010000000435           
CUS0900490000109454560005         LJ JOHNSON SQUARE, L1303 GREENMOUNT AVE                     000N        CARE OF             
MTR09004900001000000000000000RA              99999999    000600900000009000000440000000NN  NNW 000   FIRE SERVICE        N    
RDG09004900WATRL000000006K00000000000000121009207292015122707N000000000000N93       000100600K 10000000010000000121           
CUS0900490000109454562001         LJ JOHNSON SQUARE, L1303 GREENMOUNT AVE                     000N        CARE OF             
MTR09004900001000000000000000RA              99999999    000200910000009100000440000000NN  NNW 000                       N    
RDG09004900WATRL000000005K00000000000004891009307292015122712N000000000000N93       000050500K 10000000010000004213           
CUS0900490000109257624008         GENERAL GREENE LIMIT1200 GREENMOUNT AVE                     000N        CARE OF             
MTR09004900001000000000000000RA              1279010     000300920000009200000490000003NY  NNW 000                       N    
MTM090049001279010     locked                                                                                                 
RDG09004900WATRL000000005K00000000000000000000000000000000000 000000000000U         000000500  10000000010000040214           
CUS0900490000109445614002         HOUSING AUTHORITY OF800 E PRESTON ST                        000N        CARE OF             
MTR09004900001000000000000000RA              99999999    001500930000009300000440000003NN  NNW 000                       N    
RDG09004900WATRL000000005K00000000000001143009407292015122721N000000000000N93       000090500K 10000000010000001078           
CUS0900490000109445622005         HOUSING AUTHORITY OF802 E PRESTON ST                        000N        CARE OF             
MTR09004900001000000000000000RA              99999999    001500940000009400000440000003NN  NNW 000                       N    
RDG09004900WATRL000000005K00000000000001276009507292015122809N000000000001N93       000310500K 10000000010000001211           
CUS0900490000109445624001         HOUSING AUTHORITY OF836 E PRESTON ST                        000N        CARE OF             
MTR09004900001000000000000000RA              99999999    001500950000009500000440000003NN  NNW 000                       N    
RDG09004900WATRL000000005K00000000000001265009607292015122814N000000000011N93       000050500K 10000000010000001179           
CUS0900490000109445625008         HOUSING AUTHORITY OF838 E PRESTON ST                        000N        CARE OF             
MTR09004900001000000000000000RA              99999999    001500960000009600000440000003NN  NNW 000                       N    
RDG09004900WATRL000000005K00000000000001086009707292015122820N000000000000N93       000060500K 10000000010000001001           
CUS0900490000109257625005         IN SEON LEE         508 E PRESTON ST                        000N        CARE OF             
MTR09004900001000000000000000RA              31346516    001500970000009700000520000003NN  NNW 000                       N    
RDG09004900WATRL000000005K00000000000018073009807292015122825N000000000000N93       000050500K 10000000010000017818           
CUS0900490000109257626003         TRAVAJU, LLC        439-57 E PRESTON ST                     000N        CARE OF             
MTR09004900001000000000000000RA              28594308    000200980000009800000520000003NN  NNW 000   OFFICIAL VACANCY    N    
RDG09004900WATRL000000005K00000000000000437009907292015122830N000000000000N93       000050500K 10000000010000000437           
CUS0900490000109257627001         KOMAR PROP LMT PRTNS424-28 E PRESTON ST                     000N        CARE OF             
MTR09004900001000000000000000RA              01116847    000200990000009900000610000003NN  NNW 000                       N    
RDG09004900WATRL000000005K00000000000002585010007292015122835N000000000000N93       000050500K 10000000010000002503           
CUS0900490000109428024005         PEOPLE'S COMMUNITY H1726-34 MARYLAND AVE                    000N        CARE OF             
MTR09004900001000000000000000RA              8040715     000601000000010000000380000003NN  NNW 000   FIRE SERVICE        N    
RDG09004900WATRL000000006K00000000000000001010107292015122838N000000000000N93       000030600K 10000000010000000001           
CUS0900490000109428026000         PEOPLE'S COMMUNITY H1726-34 MARYLAND AVE                    000N        CARE OF             
MTR09004900001000000000000000RA              54378028    000201010000010100000520000003NN  NNW 000                       N    
RDG09004900WATRL000000005K00000000000006015010207292015122841N000000000000N93       000030500K 10000000010000006012           
CUS0900490000109398845009         MARYLAND INSTITUTE, 1801 FALLS RD                           000N        CARE OF             
MTR09004900001000000000000000RA              99999999    000201020000010200000620000003NN  NNW 000                       N    
RDG09004900WATRL000000005K00000000000000000000607302015111907S022000000000U93       000170500K 10000000010000000000           
CUS0900490000109456187005         MD INSTITUTE COLLEGE1801 FALLS RD                           000N        CARE OF             
MTR09004900001000000000000000RA              1200255     000601030000010300000620000003NN  NNW 000   FIRE SERVICE        N    
RDG09004900WATRL000000006K00000000000000000000707302015111920S022000000000U93       000130600K 10000000010000000000           
CUS0900490000109456189001         MD INSTITUTE COLLEGE1801 FALLS RD                           000N        CARE OF             
MTR09004900001000000000000000RA              77859864    000301040000010400000000000003NY  NNW 000                       N    
MTM0900490077859864    ert                                                                                                    
RDG09004900WATRL000000005K00000000000000000000000000000000000 000000000000U         000000500  10000000010000000074           
CUS0900490000109257629007         BUREAU OF PARKS     1901-2001 FALLS RD                      000N        CARE OF             
MTR09004900001000000000000000RA              2191250     000601050000010500000410000003NN  NNW 000   CITY FIRE SERV      N    
RDG09004900WATRL000000006K00000000000000005000807302015111944N000000000000U93       000240600K 10000000010000000005           
CUS0900490000109257630005         BUR OF PARKS        1901-2001 FALLS RD                      000N        CARE OF             
MTR09004900001000000000000000RA              99376461    007501060000010600000570000003NN  NNW 000                       N    
RDG09004900WATRL000000004K00000000000000397010307292015122853N000000000000N93       000120400K 10000000010000000395           
CUS0900490000109257631003         STREET CAR MUSEUM IN1901-11 FALLS RD                        000N        CARE OF             
MTR09004900001000000000000000RA              01093805    005801070000010700000610000003NN  NNW 000                       N    
RDG09004900WATRL000000004K00000000000000000000907302015111948S063000000000U93       000040400K 10000000010000000410           
CUS0900490000109257635004         BUREAU OF HIGHWAYS  2601 FALLS RD                           000N        CARE OF             
MTR09004900001000000000000000RA              35116866    000201080000010800000520000003NN  NNW 000                       N    
RDG09004900WATRL000000005K00000000000005261010407292015122901N000000000000N93       000080500K 10000000010000005261           
CUS0900490000109257633009         MAYOR & CITY COUNCIL2601 FALLS RD                           000N        CARE OF             
MTR09004900002000000000000000RA              14931013    000601090000010900000460000003NN  NNW 000                       N    
RDG09004900WATAL000000006K00000000000000002010507292015122913N000100000010N93       000120600K 10000000010000000002           
RDG09004900WATBL000000006K00000000000000264010607292015122920N000400000010N93       000070600K 10000000010000000253           
CUS0900490000109434497005         MD INSTITUTE COLLEGE401 W NORTH AVE                         000N        CARE OF             
MTR09004900001000000000000000RA              01105594    000201100000011000000440000003NY  NNW 000                       N    
MTM0900490001105594    car                                                                                                    
RDG09004900WATRL000000005K00000000000000000000000000000000000 000000000000U         000000500  10000000010000016642           
CUS0900490000109257636002         POTTS & CALLAHAN    2801 FALLS RD                           000N        CARE OF             
MTR09004900001000000000000000RA              32905142    000201110000011100000520000003NY  NNW 000                       N    
MTM0900490032905142    not reg occ                                                                                            
RDG09004900WATRL000000005K00000000000004738010707292015122942N000000000000N93       000220500K 10000000010000004738           
CUS0900490000109257638008         ROB SULLIVAN        2981 FALLS RD                           000N        CARE OF             
MTR09004900001000000000000000RA              39583508    005801120000011200000520000003NN  NNW 000                       N    
RDG09004900WATRL000000004K00000000000001964010807292015122959N000000000000N93       000170400K 10000000010000001929           
CUS0900490000109257637000         DOUGLAS G CARROLL   2981 FALLS RD                           000N        CARE OF             
MTR09004900001000000000000000RA              5380769     000601130000011300000410000003NN  NNW 000   FIRE SERVICE        N    
RDG09004900WATRL000000006K00000000000000000001007302015112004S005000000000U93       000160600K 10000000010000000653           
CUS0900490000109257641002         MT VERNON MILL LLC  3000 FALLS RD                           000N        CARE OF             
MTR09004900001000000000000000RA              1228581     000301140000011400000470000003NN  NNW 000                       N    
RDG09004900WATRL000000005K00000000000033404010907292015123015N000000000010N93       000160500K 10000000010000033403           
CUS0900490000109257640004         MT VERNON MILL LLC  3000 FALLS RD                           000N        CARE OF             
MTR09004900001000000000000000RA              5417354     000801150000011500000410000003NN  NNW 000   FIRE SERVICE        N    
RDG09004900WATRL000000006K00000000000007453011007292015123044N000000000010N93       000290600K 10000000010000000775           
CUS0900490000109445909006         SPCA                3300 FALLS RD                           000N        CARE OF             
MTR09004900001000000000000000RA              90000219    000201160000011600000570000000NN  NNW 000                       N    
RDG09004900WATRL000000005K00000000000005445011107292015123050N000000000000N93       000060500K 10000000010000005143           
CUS0900490000109445904007         SPCA                3300 FALLS RD                           000N        CARE OF             
MTR09004900002000000000000000RA              10802470    000801170000011700000390000000NN  NNW 000                       N    
RDG09004900WATAL000000006K00000000000000003011207292015123054N000000000000N93       000040600K 10000000010000000003           
RDG09004900WATBL000000000K00000000000000012011307292015123102N000100000010N93       000081000K 10000000010000000012           
CUS0900490000109257645003         RAY, DEAN T         2900 CHESTNUT AVE                       000N        CARE OF             
MTR09004900001000000000000000RA              30001983    007501180000011800000570000003NN  NNW 000                       N    
RDG09004900WATRL000000004K00000000000000086001107302015112015N000000000000U93       000110400K 10000000010000000079           
CUS0900490000109257644006         RAY, DEAN T         2900 CHESTNUT AVE                       000N        CARE OF             
MTR09004900001000000000000000RA              5125003     000401190000011900000410000003NN  NNW 000   FIRE SERVICE        N    
RDG09004900WATRL000000006K00000000000000102001207302015112018N000000000000U93       000030600K 10000000010000000102           
CUS0900490000109257639006         REMINGTON MILL CENTR3000 CHESTNUT AVE                       000N        CARE OF             
MTR09004900002000000000000000RA              1481433     000801200000012000000630000003NY  NNW 000                       N    
MTM090049001481433     cl                                                                                                     
RDG09004900WATAL000000006K00000000000000000000000000000000000 000000000000U         000000600  10000000010000000000           
RDG09004900WATBL000000006K00000000000000000000000000000000000 000000000000U         000000600  10000000010000012883           
CUS0900490000109433459006         IDF CHESTNUT SQUARE 3301 CHESTNUT AVE                       000N        CARE OF             
MTR09004900001000000000000000RA              8046666     000401210000012100000380000000NN  NNW 000   FIRE SERVICE        N    
RDG09004900WATRL000000006K00000000000000000001307302015112049N000000000000U93       000310600K 10000000010000000000           
CUS0900490000109433456002         IDF CHESTNUT SQUARE 3301 CHESTNUT AVE                       000N        CARE OF             
MTR09004900001000000000000000RA              00066619    000201220000012200000570000000NN  NNW 000                       N    
RDG09004900WATRL000000005K00000000000033836001407302015112055N000000000000U93       000060500K 10000000010000033388           
CUS0900490000109257647009         D & C MANAGEMENT, LL3200 FALLS CLIFF RD                     000N        CARE OF             
MTR09004900001000000000000000RA              01116736    000201230000012300000610000003NY  NNW 000                       N    
MTM0900490001116736    leak                                                                                                   
RDG09004900WATRL000000005K00000000000000000000000000000000000 000000000000U         000000500  10000000010000008921           
CUS0900490000109257649005         D & C MANAGEMENT, LL3100 FALLS CLIFF RD                     000N        CARE OF             
MTR09004900001000000000000000RA              29074679    000101240000012400000520000003NN  NNW 000                       N    
RDG09004900WATRL000000004K00000000000005601001507302015112106N000000000000U93       000110400K 10000000010000005585           
CUS0900490000109257648007         D & C MANAGEMENT, LL3100 FALLS CLIFF RD                     000N        CARE OF             
MTR09004900001000000000000000RA              1480438     000401250000012500000410000003NN  NNW 000   FIRE SERVICE        N    
RDG09004900WATRL000000006K00000000000000020001607302015112109N000000000000U93       000030600K 10000000010000000020           
CUS0900490000109410235007         CRITTENTON HILL, LLC3110-30 CRITTENTON PL                   000N        CARE OF             
MTR09004900001000000000000000RA              29768437    000201260000012600000520000003NN  NNW 000   VACANT PROPERTY     N    
RDG09004900WATRL000000005K00000000000024714001707302015112111N000000000000U93       000020500K 10000000010000024714           
CUS0900490000109410233002         CRITTENTON HILL, LLC3110-30 CRITTENTON PL                   000N        CARE OF             
MTR09004900001000000000000000RA              8032145     000601270000012700000380000003NN  NNW 000   FIRE SERVICE        N    
RDG09004900WATRL000000006K00000000000000000001807302015112113N000000000000U93       000020600K 10000000010000000000           
CUS0900490000109257650003         1899 LIMITED LIABILI3361 KESWICK RD                         000N        CARE OF             
MTR09004900001000000000000000RA              70921016    000201280000012800000490000003NN  NNW 000                       N    
RDG09004900WATRL000000005K00000000000000028001907302015112116N000000000000U93       000030500K 10000000010000000017           
CUS0900490000109444538004         1899 LLC            3355 KESWICK RD                         000N        CARE OF             
MTR09004900001000000000000000RA              90000070    000201290000012900000570000003NN  NNW 000                       N    
RDG09004900WATRL000000005K00000000000000847002007302015112118N000000000000U93       000020500K 10000000010000000718           
CUS0900490000109257651001         WYMAN COURT ASSOCIAT3500 BEECH AVE                          000N        CARE OF             
MTR09004900001000000000000000RA              7122475     000401300000013000000640000003NN  NNW 000                       N    
RDG09004900WATRL000000006K00000000000026525002107302015112123N000000000000U93       000050600K 10000000010000025727           
CUS0900490000109257585001         EDEN HALL CONDOM ASS3401 GREENWAY                           000N        CARE OF             
MTR09004900001000000000000000RA              1228447     000301310000013100000470000003NN  NNW 000                       N    
RDG09004900WATRL000000005K00000000000022348002207302015112127N000000000000U93       000040500K 10000000010000022210           
CUS0900490000109257583006         GENEVA CONDOMINIUM  3405 GREENWAY                           000N        CARE OF             
MTR09004900001000000000000000RA              9012817     000301320000013200000640000003NN  NNW 000                       N    
RDG09004900WATRL000000005K00000000000005521002307302015112134N000000000000U93       000070500K 10000000010000005191           
CUS0900490000104408639005         JESUIT COMMUNITY OF 4603 MILLBROOK RD                       000N        CARE OF             
MTR09004900001000000000000000RA              27567877    000201330000013300000520000003NN  NNW 000                       N    
RDG09004900WATRL000000005K00000000000026119002407302015112146N000000000000U93       000120500K 10000000010000025855           
CUS0900490000102375748007         BUREAU OF PARKS     2201 FALLS RD                           000N        CARE OF             
MTR09004900001000000000000000RA              52771479    007501340000013400000520000003NN  NNW 000                       N    
RDG09004900WATRL000000004K00000000000000091002507302015112156N000400000010U93       000100400K 10000000010000000090           
RTR09004900NN01490149000001490000000001340134000019NY013401340149001100080000000000000000000001    07072015NY020000 N         
RHD09008200NN01430143000001430000000001210121000090NY012101210143000800290000000000000000000001    07072015NY020000 N         
CUS0900820000103447051008         BSV HIGHLANDTOWN LLC3800 E LOMBARD ST                       000N        CARE OF             
MTR09008200001000000000000000RA              99999999    005800010000000100000680000003NN  NNW 000                       N    
RDG09008200WATRL000000004K00000000000000000000107242015105209S040000000000N91       000000400K 10000000010000000267           
CUS0900820000109394009006         BSV HIGHLANDTOWN LLC3800-70 E LOMBARD ST                    000N        CARE OF             
MTR09008200001000000000000000RA              42877022    000200020000000200000520000003NN  NNW 000                       N    
RDG09008200WATRL000000005K00000000000048399000207242015105214N000000000000N91       000050500K 10000000010000047320           
CUS0900820000109394007000         BSV HIGHLANDTOWN LLC3800-70 E LOMBARD ST                    000N        CARE OF             
MTR09008200002000000000000000RA              7194258     000800030000000300000630000003NN  NNW 000   FIRE SERVICE        N    
RDG09008200WATAL000000006K00000000000000003000307242015105218N000000000000N91       000040600K 10000000010000000003           
RDG09008200WATBL000000006K00000000000000000000407242015105223N000100000010N91       000050600K 10000000010000000000           
CUS0900820000109394010004         BSV HIGHLANDTOWN LLC3800-70 E LOMBARD ST                    000N        CARE OF             
MTR09008200001000000000000000RA              30479004    000200040000000400000520000003NN  NNW 000                       N    
RDG09008200WATRL000000005K00000000000007570000507242015105226N000000000000N91       000030500K 10000000010000007508           
CUS0900820000109394011002         BSV HIGHLANDTOWN LLC3800-70 E LOMBARD ST                    000N        CARE OF             
MTR09008200001000000000000000RA              36700379    001500050000000500000520000003NN  NNW 000                       N    
RDG09008200WATRL000000005K00000000000062599000607242015105231N000000000000N91       000050500K 10000000010000062073           
CUS0900820000109419460002         STRUEVER BROS       4001-21 E LOMBARD ST                    000N        CARE OF             
MTR09008200001000000000000000RA              8036760     000800060000000600000380000003NN  NNW 000   FIRE SERVICE        N    
RDG09008200WATRL000000006K00000000000000008000707242015105235N000000000000N91       000040600K 10000000010000000008           
CUS0900820000109419462008         HIGLANDTOWN PLAZA   4001-21 E LOMBARD ST                    000N        CARE OF             
MTR09008200001000000000000000RA              61381522    000400070000000700000470000003NN  NNW 000                       N    
RDG09008200WATRL000000006K00000000000019194000807242015105239N000000000000N91       000040600K 10000000010000018575           
CUS0900820000109290922005         SALVATORE E PINNA ET130 S JANNEY ST                         000N        CARE OF             
MTR09008200001000000000000000RA              78028646    007500080000000800000360000003NN  NNW 000                       N    
RDG09008200WATRL000000004K00000000000000072000907242015105256N000000000010N91       000170400K 10000000010000000000           
CUS0900820000109290921007         SALVATORE E PENNA   130 S JANNEY ST                         000N        CARE OF             
MTR09008200001000000000000000RA              2731586     000800090000000900000410000000NN  NNW 000   FIRE SERVICE        N    
RDG09008200WATRL000000006K00000000000000000001007252015112631S005000000000U40       000000600K 10000000010000001082           
CUS0900820000109290924001         VANN-ZALIS HOLDINGS,4201 E PRATT ST                         000N        CARE OF             
MTR09008200001000000000000000RA              9203642     000300100000001000000640000003NN  NNW 000                       N    
RDG09008200WATRL000000005K00000000000000479001107242015105307N000100000010N91       000080500K 10000000010000000479           
CUS0900820000109290923003         VANN-ZALIS HOLDINGS,4201 E PRATT ST                         000N        CARE OF             
MTR09008200001000000000000000RA              2853555     000800110000001100000410000003NN  NNW 000   FIRE SERVICE        N    
RDG09008200WATRL000000006K00000000000000000001207252015112638S005000000000U40       000070600K 10000000010000000020           
CUS0900820000109290925008         TAUBMAN PROPERTIES  235 S KRESSON ST                        000N        CARE OF             
MTR09008200001000000000000000RA              00066880    001500120000001200000570000003NN  NNW 000                       N    
RDG09008200WATRL000000005K00000000000003838001307242015105319N000300000010N91       000090500K 10000000010000003614           
CUS0900820000109290926006         TAUBMAN ETAL, ROBERT235 S KRESSON ST                        000N        CARE OF             
MTR09008200001000000000000000RA              3411098     000800130000001300000410000000NN  NNW 000   FIRE SERVICE        N    
RDG09008200WATRL000000006K00000000000000000001407252015112647S005000000000U40       000090600K 10000000010000000029           
CUS0900820000109426310000         COTTEN CONSTRUCTION 231 S KRESSON ST                        000N        CARE OF             
MTR09008200001000000000000000RA              29067415    000200140000001400000520000000NY  NNW 000                       N    
MTM0900820029067415    BURIED                                                                                                 
RDG09008200WATRL000000005K00000000000000000000000000000000000 000000000000U         000000500  10000000010000000549           
CUS0900820000109290927004         OFFUTT REALTY LIMITE4501 E LOMBARD ST                       000N        CARE OF             
MTR09008200001000000000000000RA              14921098    001500150000001500000310000003NN  NNW 000                       N    
RDG09008200WATRL000000005K00000000000001868001507242015105336N000400000010N91       000150500K 10000000010000001657           
CUS0900820000109290928002         BIRCHWOOD RLTY CO TR4500 E LOMBARD ST                       000N        CARE OF             
MTR09008200002000000000000000RA              4867543     000300160000001600000370000003NN  NNW 000   INVALID DAC         N    
RDG09008200WATAL000000005K00000000000000000001607242015105345S022000000000N91       000090500K 10000000010000008769           
RDG09008200WATBL000000005K00000000000000000001707242015105348S022000000000N91       000030500K 10000000010000007855           
CUS0900820000109290929000         BIRCHWOOD RLTY CO TR4500 E LOMBARD ST                       000N        CARE OF             
MTR09008200002000000000000000RA              2020872     000800170000001700000390000003NN  NNW 000   FIRE SERVICE        N    
RDG09008200WATAL000000006K00000000000000000001807242015105402S022000000000N91       000140600K 10000000010000000000           
RDG09008200WATBL000000006K00000000000000000001907242015105407S022000000000N91       000050600K 10000000010000920477           
CUS0900820000109290930008         BAKER, JAMES AUGUST 4120 E LOMBARD ST                       000N        CARE OF             
MTR09008200001000000000000000RA              31346519    001500180000001800000520000003NN  NNW 000                       N    
RDG09008200WATRL000000005K00000000000013616002007242015105413N000000000000N91       000060500K 10000000010000013585           
CUS0900820000109290931006         STAVRAKIS, DEMETRIOS269 GRUNDY ST                           000N        CARE OF             
MTR09008200001000000000000000RA              4320618     007500190000001900000320000003NN  NNW 000   FERRULE APPLIED     N    
RDG09008200WATRL000000004K00000000000000000002107242015105420S002000000000N91       000070400K 10000000010000000284           
CUS0900820000109290935007         3840 BANK STREET LLC3840 BANK ST                            000N        CARE OF             
MTR09008200001000000000000000RA              1332579     001500200000002000000490000003NN  NNW 000                       N    
RDG09008200WATRL000000005K00000000000030936002207242015105503N000400000010N91       000430500K 10000000010000030928           
CUS0900820000109290934000         3840 BANK STREET LLC3840 BANK ST                            000N        CARE OF             
MTR09008200001000000000000000RA              1562669     000800210000002100000410000000NN  NNW 000   FIRE SERVICE        N    
RDG09008200WATRL000000006K00000000000000272002307242015105508N000000000000N91       000050600K 10000000010000000272           
CUS0900820000109290932004         BANK AND HAVEN, LLC.4000 BANK ST                            000N        CARE OF             
MTR09008200002000000000000000RA              1184201     000600220000002200000390000000NN  NNW 000   FIRE SERVICE        N    
RDG09008200WATAL000000006K00000000000000000002407242015105511N000000000000N91       000030600K 10000000010000000000           
RDG09008200WATBL000000006K00000000000000000002507242015105515N000100000010N91       000040600K 10000000010000000000           
CUS0900820000109290933002         BANK AND HAVEN, LLC.4000 BANK ST                            000N        CARE OF             
MTR09008200001000000000000000RA              99409654    000100230000002300000570000003NN  NNW 000   VACANT PROPERTY     N    
RDG09008200WATRL000000004K00000000000000000002607242015105518N000000000000N91       000030400K 10000000010000000000           
CUS0900820000109290936005         3905 BANK STREET LLC3819-25 BANK ST                         000N        CARE OF             
MTR09008200001000000000000000RA              01025991    000300240000002400000460000003NN  NNW 000   OFFICIAL VACANCY    N    
RDG09008200WATRL000000005K00000000000000000002707242015105521N000000000000N91       000030500K 10000000010000000000           
CUS0900820000109364634007         BANKABLE REALESTATE,3701 BANK ST                            000N        CARE OF             
MTR09008200001000000000000000RA              99409655    000100250000002500000570000003NN  NNW 000                       N    
RDG09008200WATRL000000004K00000000000000181002807242015105525N000000000000N91       000040400K 10000000010000000181           
CUS0900820000109364633009         BANKABLE REALESTATE,3701 BANK ST                            000N        CARE OF             
MTR09008200001000000000000000RA              4234298     000600260000002600000410000003NN  NNW 000   FIRE SERVICE        N    
RDG09008200WATRL000000006K00000000000000006002907242015105534N000000000010N91       000090600K 10000000010000000007           
CUS0900820000109290943001         MAYOR & CITY COUNCIL3411 BANK ST                            000N        CARE OF             
MTR09008200001000000000000000RA              29768427    000200270000002700000520000003NN  NNW 000                       N    
RDG09008200WATRL000000005K00000000000002891003007242015105556N000000000010N91       000220500K 10000000010000002931           
CUS0900820000109290937003         307 EATON STREET, LL307 S EATON ST                          000N        CARE OF             
MTR09008200001000000000000000RA              36700321    001500280000002800000520000003NN  NNW 000   VACANT PROPERTY     N    
RDG09008200WATRL000000005K00000000000019688003107242015105609N000000000000N91       000130500K 10000000010000019688           
CUS0900820000109441137008         BALTIMORE CITY PUBLI231 S EATON ST                          000N        CARE OF             
MTR09008200001000000000000000RA              8051130     000400290000002900000410000000NN  NNW 000   CITY FIRE SERV      N    
RDG09008200WATRL000000006K00000000000000005003207242015105614N000000000010N91       000050600K 10000000010000000004           
CUS0900820000109441136000         BALTIMORE CITY SCHOO231 S EATON ST                          000N        CARE OF             
MTR09008200002000000000000000RA              04178309    000300300000003000000460000000NN  NNW 000                       N    
RDG09008200WATAL000000005K00000000000001064003307242015105646N000000000000N91       000320500K 10000000010000000872           
RDG09008200WATBL000000005K00000000000001265003407242015105656N000400000010N91       000100500K 10000000010000001013           
CUS0900820000109290938001         PUBLIC BATH COMMISSISS CLAREMONT ST                         000N        CARE OF             
MTR09008200001000000000000000RA              01105597    000200310000003100000610000003NN  NNW 000                       N    
RDG09008200WATRL000000005K00000000000000162003507242015105659N000000000000N91       000030500K 10000000010000000152           
CUS0900820000109290941005         OUR LADY OF POMPEI  201 S CONKLING ST                       000N        CARE OF             
MTR09008200001000000000000000RA              9012792     000300320000003200000640000003NN  NNW 000                       N    
RDG09008200WATRL000000005K00000000000017831003607242015105707N000400000010N91       000080500K 10000000010000017768           
CUS0900820000109290942003         BIALOZYNSKI SR., ANT3515-21 E LOMBARD ST                    000N        CARE OF             
MTR09008200001000000000000000RA              14914822    001500330000003300000310000000NN  NNW 000                       N    
RDG09008200WATRL000000005K00000000000002816003707242015105734N000400000010N91       000270500K 10000000010000002798           
CUS0900820000109290944009         BUREAU OF INSPECTION3223 E PRATT ST                         000N        CARE OF             
MTR09008200002000000000000000RA              09054023    000600340000003400000380000003NN  NNW 000                       N    
RDG09008200WATAL000000006K00000000000000003003807242015105745N000100000010N91       000110600K 10000000010000000003           
RDG09008200WATBL000000006K00000000000014183003907242015105803N000400000010N91       000180600K 10000000010000013472           
CUS0900820000109290945006         MARCUS, ROBERT L    306-08 S HIGHLAND AVE                   000N        CARE OF             
MTR09008200001000000000000000RA              70000397    001500350000003500000570000000NN  NNW 000                       N    
RDG09008200WATRL000000005K00000000000000118004007242015105819N000400000010N91       000160500K 10000000010000000106           
CUS0900820000109445083000         NEW LIGHT CHURCH    200-10 S HIGHLAND AVE                   000N        CARE OF             
MTR09008200001000000000000000RA              99999999    001500360000003600000440000000NN  NNW 000                       N    
RDG09008200WATRL000000005K00000000000000656004107242015105851N000000000000N91       000320500K 10000000010000000626           
CUS0900820000109445074009         NEW LIGHT CHURCH    200-10 S HIGHLAND AVE                   000N        CARE OF             
MTR09008200001000000000000000RA              99999999    000600370000003700000440000000NN  NNW 000   FIRE SERVICE        N    
RDG09008200WATRL000000006K00000000000000001004207242015105855N000000000000N91       000040600K 10000000010000000001           
CUS0900820000109443430005         PEPPERMINT WOODS, LT3100-16 EASTERN BLVD                    000N        CARE OF             
MTR09008200001000000000000000RA              99999999    000200380000003800000440000000NN  NNW 000   VACANT / LOT        N    
RDG09008200WATRL000000005K00000000000000000004307242015105859S022000000000N91       000040500K 10000000010000002156           
CUS0900820000109443438008         PEPPERMINT WOODS, LT3100-16 EASTERN BLVD                    000N        CARE OF             
MTR09008200001000000000000000RA              99999999    000200390000003900000440000000NN  NNW 000                       N    
RDG09008200WATRL000000005K00000000000000000004407242015105906S022000000000N91       000070500K 10000000010000002154           
CUS0900820000109430662008         CREATIVE ALLIANCE, I3134 EASTERN AVE                        000N        CARE OF             
MTR09008200001000000000000000RA              8046400     000600400000004000000380000000NN  NNW 000   FIRE SERVICE        N    
RDG09008200WATRL000000006K00000000000000000004507242015105929N000000000000N91       000230600K 10000000010000000000           
CUS0900820000109430664004         CREATIVE ALLIANCE, I3134 EASTERN AVE                        000N        CARE OF             
MTR09008200001000000000000000RA              00066754    000200410000004100000570000000NN  NNW 000                       N    
RDG09008200WATRL000000005K00000000000009224004607242015105932N000000000000N91       000030500K 10000000010000009004           
CUS0900820000109454232001         K F PATTERSON JV LLC101 S ELLWOOD AVE                       000N        CARE OF             
MTR09008200001000000000000000RA              90000260    000200420000004200000570000003NN  NNW 000                       N    
RDG09008200WATRL000000005K00000000000005184004707242015105938N000000000000N91       000060500K 10000000010000004349           
CUS0900820000109454233009         KF PATERSON JV LLC  101 S ELLWOOD AVE                       000N        CARE OF             
MTR09008200001000000000000000RA              0006849     000600430000004300000630000003NN  NNW 000   FIRE SERVICE        N    
RDG09008200WATRL000000006K00000000000000018004807242015105951N000000000000N91       000130600K 10000000010000000016           
CUS0900820000109290950006         BOARD OF PARK COMM  120 S LINWOOD AVE                       000N        CARE OF             
MTR09008200002000000000000000RA              5895165     000400440000004400000370000003NN  NNW 000                       N    
RDG09008200WATAL000000006K00000000000000000004907252015112718S005000000000U40       000310600K 10000000010000002222           
RDG09008200WATBL000000006K00000000000000000005007252015112720S005000000000U40       000020600K 10000000010000013420           
CUS0900820000109290951004         DEPT OF RECREATION &WS LINWOOD AVE                          000N        CARE OF             
MTR09008200001000000000000000RA              11800691    000300450000004500000460000003NN  NNW 000                       N    
RDG09008200WATRL000000005K00000000000007269005107242015110038N000000000020N91       000380500K 10000000010000004845           
CUS0900820000109290949008         RECREATION & PARKS  27 S PATTERSON PK AVE                   000N        CARE OF             
MTR09008200001000000000000000RA              1327348     000200460000004600000490000003NN  NNW 000                       N    
RDG09008200WATRL000000005K00000000000009920005207242015110055N000400000010N91       000170500K 10000000010000008547           
CUS0900820000109290952002         BUREAU OF EDUCATION 500 S LINWOOD AVE                       000N        CARE OF             
MTR09008200001000000000000000RA              73818966    000400470000004700000390000003NY  NNW 000                       N    
MTM0900820073818966    OK                                                                                                     
RDG09008200WATRL000000006K00000000000000000005307242015110114N000300000010N91       000190600K 10000000010000000048           
CUS0900820000109290953000         BUREAU OF EDUCATION 500 S LINWOOD AVE                       000N        CARE OF             
MTR09008200001000000000000000RA              5204129     000600480000004800000410000003NN  NNW 000   CITY FIRE SERV      N    
RDG09008200WATRL000000006K00000000000000076005407242015110125N000400000010N91       000110600K 10000000010000000000           
CUS0900820000109401438008         DEPT OF EDUCATION   500 S LINWOOD AVE                       000N        CARE OF             
MTR09008200001000000000000000RA              78112401    000300490000004900000640000003NN  NNW 000                       N    
RDG09008200WATRL000000005K00000000000001056005507242015110157N000000000000N91       000320500K 10000000010000000507           
CUS0900820000109401436002         DEPT OF EDUCATION   500 S LINWOOD AVE                       000N        CARE OF             
MTR09008200001000000000000000RA              E22531      000600500000005000000430000003NN  NNW 000   CITY FIRE SERV      N    
RDG09008200WATRL000000006K00000000000000000005607242015110200N000000000000N91       000030600K 10000000010000000000           
CUS0900820000109290957001         SPENCER ACQUISITION 2219-27 BOSTON ST                       000N        CARE OF             
MTR09008200001000000000000000RA              39583760    005800510000005100000520000003NN  NNW 000   VACANT PROPERTY     N    
RDG09008200WATRL000000004K00000000000000000005707252015112859S022000000000U40       000990400K 10000000010000000000           
CUS0900820000109433462000         BOSTON STREET FINANC2315-41 BOSTON ST                       000N        CARE OF             
MTR09008200002000000000000000RA              0203075     000600520000005200000640000003NN  NNW 000                       N    
RDG09008200WATAL000000006K00000000000000002005807242015110225N000100000010N91       000200600K 10000000010000000002           
RDG09008200WATBL000000006K00000000000016032005907242015110257N000400000020N91       000320600K 10000000010000015148           
CUS0900820000109446557002         ANDY GRUVER         2322 BOSTON ST                          000N        CARE OF             
MTR09008200001000000000000000RA              14914922    001500530000005300000310000000NN  NNW 000                       N    
RDG09008200WATRL000000005K00000000000001189006007242015110319N000000000000N91       000220500K 10000000010000001092           
CUS0900820000109433461002         NORTH SHORE@CANTON T2327 BOSTON ST                          000N        CARE OF             
MTR09008200002000000000000000RA              70038341    000600540000005400000560000003NN  NNW 000                       N    
RDG09008200WATAL000000006K00000000000000011006107242015110325N000100000010N91       000060600K 10000000010000000011           
RDG09008200WATBL000000006K00000000000004342006207242015110332N000400000010N91       000070600K 10000000010000004192           
CUS0900820000109388411002         AUSLANDER, BRUCE    2635-39 BOSTON ST                       000N        CARE OF             
MTR09008200001000000000000000RA              E21164      000600550000005500000430000000NN  NNW 000   FIRE SERVICE        N    
RDG09008200WATRL000000006K00000000000009999006307242015110353N000000000000N91       000210600K 10000000010000009999           
CUS0900820000109388413008         SHIPYARD LLC        2635-39 BOSTON ST                       000N        CARE OF             
MTR09008200001000000000000000RA              77897279    000300560000005600000000000003NN  NNW 000                       N    
RDG09008200WATRL000000005K00000000000001689006407242015110414N000000000000N91       000210500K 10000000010000001180           
CUS0900820000109290963009         LICHTENBERG, MYLES L2701-45 BOSTON ST                       000N        CARE OF             
MTR09008200002000000000000000RA              1902669     000600570000005700000630000003NN  NNW 000   FIRE SERVICE        N    
RDG09008200WATAL000000006K00000000000000000006507242015110418S022000000000N91       000040600K 10000000010000001197           
RDG09008200WATBL000000006K00000000000000000006607242015110423S022000000000N91       000050600K 10000000010000034660           
CUS0900820000109290966002         TINDECO WHARF, LLC  2809 BOSTON ST                          000N        CARE OF             
MTR09008200002000000000000000RA              1664175     000800580000005800000630000003NN  NNW 000   FIRE SERVICE        N    
RDG09008200WATAL000000006K00000000000000006006707242015110427N000000000000N91       000040600K 10000000010000000006           
RDG09008200WATBL000000006K00000000000000530006807242015110459N000400000010N91       000320600K 10000000010000000506           
CUS0900820000109290967000         TINDECO WHARF, LLC  2809 BOSTON ST                          000N        CARE OF             
MTR09008200001000000000000000RA              73819112    000400590000005900000490000003NN  NNW 000                       N    
RDG09008200WATRL000000006K00000000000000000006907242015110504N000100000010N91       000050600K 10000000010000000000           
CUS0900820000109290968008         ASCARI, WILLIAM     2901 BOSTON ST                          000N        CARE OF             
MTR09008200002000000000000000RA              1565029     000800600000006000000390000003NN  NNW 000   FIRE SERVICE        N    
RDG09008200WATAL000000006K00000000000000135007007242015110513N000000000010N91       000090600K 10000000010000001005           
RDG09008200WATBL000000006K00000000000000528007107242015110520N000400000010N91       000070600K 10000000010000000127           
CUS0900820000109398020009         CANTON COVE CONDO AS2901 BOSTON ST                          000N        CARE OF             
MTR09008200001000000000000000RA              61858441    000400610000006100000470000003NN  NNW 000                       N    
RDG09008200WATRL000000006K00000000000000233007207242015110549N000304104110N91       000290600K 10000000010000051287           
CUS0900820000109398384009         DEPT OF RECREATION &3001 BOSTON ST                          000N        CARE OF             
MTR09008200001000000000000000RA              01116703    000200620000006200000610000003NN  NNW 000                       N    
RDG09008200WATRL000000005K00000000000000899007307242015110554N000000000000N91       000050500K 10000000010000000854           
CUS0900820000109404697006         DEPT OF REC & PARKS 1301 S ELLWOOD AVE                      000N        CARE OF             
MTR09008200001000000000000000RA              29258524    000200630000006300000520000003NN  NNW 000                       N    
RDG09008200WATRL000000005K00000000000036901007407242015110607N000000000000N91       000130500K 10000000010000035409           
CUS0900820000109404695000         DEPT OF REC & PARKS 1301 S ELLWOOD AVE                      000N        CARE OF             
MTR09008200001000000000000000RA              2923246     000600640000006400000410000003NN  NNW 000   CITY FIRE SERV      N    
RDG09008200WATRL000000006K00000000000000000007507242015110624N000000000000N91       000170600K 10000000010000000000           
CUS0900820000109395030001         CANTON HARBOR RP LLC1300 S ELLWOOD AVE                      000N        CARE OF             
MTR09008200001000000000000000RA              1228567     000300650000006500000470000003NY  NNW 000                       N    
MTM090082001228567     BURIED                                                                                                 
RDG09008200WATRL000000005K00000000000000000000000000000000000 000000000000U         000000500  10000000010000030355           
CUS0900820000109395028005         CANTON HARBOR RP LLC1300 S ELLWOOD AVE                      000N        CARE OF             
MTR09008200001000000000000000RA              E22902      000600660000006600000430000003NN  NNW 000   FIRE SERVICE        N    
RDG09008200WATRL000000006K00000000000000000000000000000000000 000000000000U         000000600  10000000010000000000           
CUS0900820000109352131008         BUR OF REC          1239 S ELLWOOD AVE                      000N        CARE OF             
MTR09008200001000000000000000RA              24625520    000200670000006700000520000003NN  NNW 000                       N    
RDG09008200WATRL000000005K00000000000033318007607242015110646N000000000000N91       000220500K 10000000010000033318           
CUS0900820000109404801004         BUREAU OF SOLID WAST3001 BOSTON ST                          000N        CARE OF             
MTR09008200001000000000000000RA              01105541    000200680000006800000610000003NN  NNW 000                       N    
RDG09008200WATRL000000005K00000000000005123007707242015110702N000400000010N91       000160500K 10000000010000005010           
CUS0900820000109432829001         JUBILEE PROPERTIES  1351 S CLINTON ST                       000N        CARE OF             
MTR09008200001000000000000000RA              16027943    000400690000006900000460000000NN  NNW 000                       N    
RDG09008200WATRL000000006K00000000000023436007807242015110755N000000000000N91       000530600K 10000000010000022631           
CUS0900820000109432828003         JUBILEE PROPERTIES  1351 S CLINTON ST                       000N        CARE OF             
MTR09008200001000000000000000RA              8046586     000400700000007000000380000000NN  NNW 000   FIRE SERVICE        N    
RDG09008200WATRL000000006K00000000000000002007907242015110802N000000000000N91       000070600K 10000000010000000002           
CUS0900820000109290973008         CANTON CROSSING, LLC1401 S CLINTON ST                       000N        CARE OF             
MTR09008200001000000000000000RA              01105819    000200710000007100000610000003NN  NNW 000                       N    
RDG09008200WATRL000000005K00000000000020988008007242015110812N000000000000N91       000100500K 10000000010000019892           
CUS0900820000103441290008         CANTON'S DOCKSIDE   3301 BOSTON ST                          000N        CARE OF             
MTR09008200001000000000000000RA              99999999    005800720000007200000680000003NN  NNW 000                       N    
RDG09008200WATRL000000004K00000000000000000008107242015120516S040000000000N91       034240400K 10000000010000008971           
CUS0900820000109290972000         CANTON CROSSING, LLC1401 S CLINTON ST                       000N        CARE OF             
MTR09008200001000000000000000RA              5705144     000800730000007300000410000003NN  NNW 000   FIRE SERVICE        N    
RDG09008200WATRL000000006K00000000000000160008207242015120609N000000000000N91       000530600K 10000000010000000160           
CUS0900820000109439002008         CORPORATE OFFICE PPT1501 S CLINTON ST                       000N        CARE OF             
MTR09008200001000000000000000RA              61858458    000600740000007400000470000003NN  NNW 000                       N    
RDG09008200WATRL000000006K00000000000006609008307242015120620N000000000000N91       000110600K 10000000010000004790           
CUS0900820000109439003006         COPT                1501 S CLINTON ST                       000N        CARE OF             
MTR09008200001000000000000000RA              8045136     001000750000007500000380000003NN  NNW 000   FIRE SERVICE        N    
RDG09008200WATRL000000007K00000000000000239008407242015120632N000300000010N91       000120700K 10000000010000000226           
CUS0900820000109290974006         COPT                1501 S CLINTON ST                       000N        CARE OF             
MTR09008200001000000000000000RA              31588491    000200760000007600000520000003NY  NNW 000                       N    
MTM0900820031588491    CL                                                                                                     
RDG09008200WATRL000000005K00000000000000000000000000000000000 000000000000U         000000500  10000000010000000575           
CUS0900820000109438999006         CORPORATE OFFICE PPT1520 S CLINTON ST                       000N        CARE OF             
MTR09008200001000000000000000RA              70637578    000600770000007700000470000003NN  NNW 000                       N    
RDG09008200WATRL000000006K00000000000045581008507242015120646N000400000010N91       000140600K 10000000010000044656           
CUS0900820000109439000002         COPT                1520 S CLINTON ST                       000N        CARE OF             
MTR09008200001000000000000000RA              8047801     001000780000007800000380000000NN  NNW 000   FIRE SERVICE        N    
RDG09008200WATRL000000007K00000000000000004008607242015120650N000000000000N91       000040700K 10000000010000000004           
CUS0900820000109290978007         CORPORATE OFFICE PPT1600-20 S CLINTON ST                    000N        CARE OF             
MTR09008200001000000000000000RA              01105501    000200790000007900000610000003NY  NNW 000                       N    
MTM0900820001105501    OK                                                                                                     
RDG09008200WATRL000000005K00000000000000336008707242015120706N000100000010N91       000160500K 10000000010000000336           
CUS0900820000109290979005         COPT CC 1600, LLC   1600-20 S CLINTON ST                    000N        CARE OF             
MTR09008200001000000000000000RA              1681312     000800800000008000000410000003NN  NNW 000   FIRE SERVICE        N    
RDG09008200WATRL000000006K00000000000000000008807242015120722N000000000000N91       000160600K 10000000010000000000           
CUS0900820000109290981001         PETROLEUM FUEL & TER1635 S CLINTON ST                       000N        CARE OF             
MTR09008200001000000000000000RA              2484323     001000810000008100000410000003NN  NNW 000   FIRE SERVICE        N    
RDG09008200WATRL000000007K00000000000000000008907242015120817S022000000000N91       000550700K 10000000010000000098           
CUS0900820000109290982009         PETROLEUM FUEL & TER3300 EASTBOURNE AVE                     000N        CARE OF             
MTR09008200002000000000000000RA              5603796     000600820000008200000370000003NN  NNW 000   OFFICIAL VACANCY    N    
RDG09008200WATAL000000006K00000000000000000009007242015120820S022000000000N91       000030600K 10000000010000000003           
RDG09008200WATBL000000006K00000000000000000009107242015120825S022000000000N91       000050600K 10000000010000000831           
CUS0900820000109372584004         PETROLEUM FUEL &    1700-A S CLINTON ST                     000N        CARE OF             
MTR09008200001000000000000000RA              01094593    005800830000008300000610000003NY  NNW 000                       N    
MTM0900820001094593    OK                                                                                                     
RDG09008200WATRL000000004K00000000000000000009207242015120834N000000000000N91       000090400K 10000000010000000000           
CUS0900820000109372583006         PETROLEUM FUEL &    1700-A S CLINTON ST                     000N        CARE OF             
MTR09008200001000000000000000RA              E16722      000600840000008400000430000003NN  NNW 000   FIRE SERVICE        N    
RDG09008200WATRL000000006K00000000000000000009307242015120837N000000000000N91       000030600K 10000000010000000000           
CUS0900820000109290983007         PETRO FUEL & TERM CO1700 S CLINTON ST                       000N        CARE OF             
MTR09008200001000000000000000RA              01105871    000200850000008500000610000003NN  NNW 000                       N    
RDG09008200WATRL000000005K00000000000000001009407242015120845N000000000000N91       000080500K 10000000010000000001           
CUS0900820000109421200008         1800 SOUTH CLINTON S1734 S CLINTON ST                       000N        CARE OF             
MTR09008200001000000000000000RA              01117333    000200860000008600000610000003NN  NNW 000                       N    
RDG09008200WATRL000000005K00000000000017493009507242015120849N000000000000N91       000040500K 10000000010000017352           
CUS0900820000109403738009         RUKERT-CLINTON STREE1801 S CLINTON ST                       000N        CARE OF             
MTR09008200001000000000000000RA              11800704    000300870000008700000460000003NN  NNW 000                       N    
RDG09008200WATRL000000005K00000000000000105000707252015113005N000000000000U40       000660500K 10000000010000000105           
CUS0900820000109403736003         RUKERT-CLINTON STREE1801 S CLINTON ST                       000N        CARE OF             
MTR09008200001000000000000000RA              7234862     000600880000008800000340000003NN  NNW 000   FIRE SERVICE        N    
RDG09008200WATRL000000006K00000000000000009000807252015113009N000000000000U40       000040600K 10000000010000000009           
CUS0900820000109439020000         1800 SOUTH CLINTON S1800 S CLINTON ST                       000N        CARE OF             
MTR09008200001000000000000000RA              0008090     001000890000008900000440000000NY  NNW 000   FIRE SERVICE        N    
MTM090082000008090     TWO DIALS 000031               04295                                                                   
RDG09008200WATRL000000007K00000000000004295000907252015113111N000300000010U40       000620700K 10000000010000001417           
CUS0900820000109439019002         1800 S CLINTON STREE1800 S CLINTON ST                       000N        CARE OF             
MTR09008200001000000000000000RA              01117231    000200900000009000000610000003NN  NNW 000                       N    
RDG09008200WATRL000000005K00000000000002259001007252015113116N000000000000U40       000050500K 10000000010000002217           
CUS0900820000109290988006         MARYLAND PORT ADMIN 1824 S CLINTON ST                       000N        CARE OF             
MTR09008200001000000000000000RA              29768537    000200910000009100000520000003NN  NNW 000   OFFICIAL VACANCY    N    
RDG09008200WATRL000000005K00000000000000000001107252015113121S022000000000U40       000050500K 10000000010000000000           
CUS0900820000109290989004         MARYLAND PORT       1824 S CLINTON ST                       000N        CARE OF             
MTR09008200001000000000000000RA              1763975     000800920000009200000410000003NN  NNW 000   FIRE SERVICE        N    
RDG09008200WATRL000000006K00000000000000000001207252015113127S022000000000U40       000060600K 10000000010000000949           
CUS0900820000109290993006         RUKERT TERMINALS COR2005 S CLINTON ST                       000N        CARE OF             
MTR09008200001000000000000000RA              01105499    000200930000009300000610000003NN  NNW 000                       N    
RDG09008200WATRL000000005K00000000000000000001307252015113135N000000000000U40       000080500K 10000000010000000000           
CUS0900820000109290992008         RUKERT TERMINALS COR2005 S CLINTON ST                       000N        CARE OF             
MTR09008200003000000000000000RA              5603827     000800940000009400000480000003NN  NNW 000   FIRE SERVICE        N    
RDG09008200WATAL000000006K00000000000000000001407252015113138N000000000000U40       000030600K 10000000010000000000           
RDG09008200WATBL000000006K00000000000002191001507252015113143N000100000010U40       000050600K 10000000010000002191           
RDG09008200WATCL000000006K00000000000000376001607252015113150N000100000010U40       000070600K 10000000010000000376           
CUS0900820000109290991000         MARYLAND PORT       PIER 1                                  000N        CARE OF             
MTR09008200002000000000000000RA              1562649     001000950000009500000390000003NY  NNW 000   FIRE SERVICE        N    
MTM090082001562649     NO HOLES                                                                                               
RDG09008200WATAL000000007K00000000000000000000000000000000000 000000000000U         000000700  10000000010000000013           
RDG09008200WATBL000000007K00000000000000000000000000000000000 000000000000U         000000700  10000000010000005163           
CUS0900820000109290990002         MARYLAND PORT AUTHORPIER 1                                  000N        CARE OF             
MTR09008200001000000000000000RA              61858490    000300960000009600000470000003NN  NNW 000                       N    
RDG09008200WATRL000000005K00000000000000000000000000000000000 000000000000U         000000500  10000000010000047001           
CUS0900820000109346772008         RUKERT TERMINALS COR1811-2021 S CLINTON ST                  000N        CARE OF             
MTR09008200001000000000000000RA              23834457    000100970000009700000520000003NN  NNW 000                       N    
RDG09008200WATRL000000004K00000000000008831001707252015113414N000000000000U40       001440400K 10000000010000008696           
CUS0900820000109290996009         RUKERT TERMINALS COR2100-10 S CLINTON ST                    000N        CARE OF             
MTR09008200001000000000000000RA              01094596    005800980000009800000610000003NN  NNW 000                       N    
RDG09008200WATRL000000004K00000000000000000001807252015113417N000000000000U40       000030400K 10000000010000000000           
CUS0900820000109290995001         RUKERT TERMINALS COR2100-10 S CLINTON ST                    000N        CARE OF             
MTR09008200001000000000000000RA              2731587     000600990000009900000410000003NN  NNW 000   FIRE SERVICE        N    
RDG09008200WATRL000000006K00000000000000000001907252015113429S005000000000U40       000120600K 10000000010000000000           
CUS0900820000109290998005         RUKERT-CLINTON STREE2272 S CLINTON ST                       000N        CARE OF             
MTR09008200003000000000000000RA              2630099     000601000000010000000480000003NN  NNW 000   FIRE SERVICE        N    
RDG09008200WATAL000000006K00000000000000000002007252015113436S005000000000U40       000070600K 10000000010000000001           
RDG09008200WATBL000000006K00000000000000000002107252015113438S005000000000U40       000020600K 10000000010000002895           
RDG09008200WATCL000000006K00000000000000000002207252015113440S005000000000U40       000020600K 10000000010000001384           
CUS0900820000109290999003         PENNSYLVANIA LINES L2121 S CLINTON ST                       000N        CARE OF             
MTR09008200003000000000000000RA              2922143     000601010000010100000480000003NN  NNW 000   OFFICIAL VACANCY    N    
RDG09008200WATAL000000006K00000000000000048002307252015113445N000000000000U40       000050600K 10000000010000000048           
RDG09008200WATBL000000006K00000000000001790002407252015113636N000100000010U40       001110600K 10000000010000001790           
RDG09008200WATCL000000006K00000000000002869002507252015113642N000100000010U40       000060600K 10000000010000002869           
CUS0900820000109394017009         RUKERT-CLINTON STREE1801 S CLINTON ST                       000N        CARE OF             
MTR09008200001000000000000000RA              36700288    001501020000010200000520000003NN  NNW 000                       N    
RDG09008200WATRL000000005K00000000000015389002607252015113648N000000000000U40       000060500K 10000000010000015285           
CUS0900820000109394015003         RUKERT-CLINTON STREE1801 S CLINTON ST                       000N        CARE OF             
MTR09008200001000000000000000RA              E23087      000601030000010300000430000003NN  NNW 000   FIRE SERVICE        N    
RDG09008200WATRL000000006K00000000000000002002707252015113655N000000000000U40       000070600K 10000000010000000002           
CUS0900820000109290986000         SOUTH HIGHLAND      1655 S HIGHLAND AVE                     000N        CARE OF             
MTR09008200001000000000000000RA              61858426    000401040000010400000470000003NN  NNW 000   OFFICIAL VACANCY    N    
RDG09008200WATRL000000006K00000000000000006002807252015113700N000000000000U40       000050600K 10000000010000000006           
CUS0900820000109290985002         NORFOLK SOUTH MS #8 4300 HOLABIRD AVE                       000N        CARE OF             
MTR09008200001000000000000000RA              99170713    000201050000010500000570000003NY  NNW 000                       N    
MTM0900820099170713    BLACK TOPPED                                                                                           
RDG09008200WATRL000000005K00000000000000000000000000000000000 000000000000U         000000500  10000000010000001178           
CUS0900820000109290987008         RUCKERT-CLINTON STRE2130 S CLINTON ST                       000N        CARE OF             
MTR09008200001000000000000000RA              9503057     000301060000010600000640000003NN  NNW 000                       N    
RDG09008200WATRL000000005K00000000000036165002907252015113741N000300000010U40       000410500K 10000000010000036427           
CUS0900820000109290977009         P FRED'K OBRECHT RLT1601 S HIGHLAND AVE                     000N        CARE OF             
MTR09008200002000000000000000RA              2878298     000801070000010700000630000003NN  NNW 000                       N    
