FHDNNNN031006054006054006184N                                                                                           019386
RHD08511900NN02770277000002770000000002770277000163NY027702770277000100090000000000000000000002    07162015NY020000 N         
CUS0851190000108004075001         INTERIANO DARWIN    4200 HOLLINS FERRY RD                   000N        CARE OF             
MTR08511900001000000000000000RA              31582167    005800010000000100000520000003NN  NNW 000                       N    
RDG08511900WATRL000000004K00000000000003622021607232015092008N000000000000N40       000690400K 10000000010000003595           
CUS0851190000108004076009         KEYS TYRELL         4202 HOLLINS FERRY RD                   000N        CARE OF             
MTR08511900001000000000000000RA              00138096    005800020000000200000570000003NN  NNW 000                       N    
RDG08511900WATRL000000004K00000000000001048021707282015074801O000400000010N80       000090400K 10000000010000001037           
CUS0851190000108004077007         HILTON ELIZABETH J  4204 HOLLINS FERRY RD                   000N        CARE OF             
MTR08511900001000000000000000RA              44088133    005800030000000300000520000003NN  NNW 000                       N    
RDG08511900WATRL000000004K00000000000001976021807232015092043N000000000000N40       000260400K 10000000010000001972           
CUS0851190000108004078005         JARRELL JEFFREY     4206 HOLLINS FERRY RD                   000N        CARE OF             
MTR08511900001000000000000000RA              44088139    005800040000000400000520000003NN  NNW 000                       N    
RDG08511900WATRL000000004K00000000000003224021907232015092051N000000000001N40       000040400K 10000000010000003193           
CUS0851190000108004079003         DONIECKI AUGUST JOHN4208 HOLLINS FERRY RD                   000N        CARE OF             
MTR08511900001000000000000000RA              26013942    005800050000000500000520000003NN  NNW 000                       N    
RDG08511900WATRL000000004K00000000000005388022007232015092116N000000000000N40       000250400K 10000000010000005366           
CUS0851190000108004080001         TERRY JEANNE R      4210 HOLLINS FERRY RD                   000N        CARE OF             
MTR08511900001000000000000000RA              10022177    005800060000000600000570000003NN  NNW 000                       N    
RDG08511900WATRL000000004K00000000000000404022107232015092120N000000000000N40       000040400K 10000000010000000368           
CUS0851190000108004081009         MILLER SELINA MARIE 3125 ASPEN CT                           000N        CARE OF             
MTR08511900001000000000000000RA              30518858    005800070000000700000520000003NN  NNW 000                       N    
RDG08511900WATRL000000004K00000000000003696022207232015092227N000000000000N40       000670400K 10000000010000003689           
CUS0851190000108004082007         JASSO NICOLAS       3123 ASPEN CT                           000N        CARE OF             
MTR08511900001000000000000000RA              30519883    005800080000000800000520000003NN  NNW 000                       N    
RDG08511900WATRL000000004K00000000000004012022307232015092308N000000000000N40       000410400K 10000000010000003973           
CUS0851190000108004083005         QURESHI MUHAMMAD NAD3121 ASPEN CT                           000N        CARE OF             
MTR08511900001000000000000000RA              46875533    005800090000000900000520000003NN  NNW 000                       N    
RDG08511900WATRL000000004K00000000000001702022407232015092340N000000000000N40       000320400K 10000000010000001685           
CUS0851190000108004084003         PATTERSON TROY      3119 ASPEN CT                           000N        CARE OF             
MTR08511900001000000000000000RA              46875530    005800100000001000000520000003NN  NNW 000                       N    
RDG08511900WATRL000000004K00000000000002810022507232015092344N000000000000N40       000040400K 10000000010000002799           
CUS0851190000108004085000         RUST DIANE L        3117 ASPEN CT                           000N        CARE OF             
MTR08511900001000000000000000RA              00138093    005800110000001100000570000003NN  NNW 000                       N    
RDG08511900WATRL000000004K00000000000000734022607232015092417N000000000000N40       000330400K 10000000010000000723           
CUS0851190000108004086008         BUSH CHERYL A       3115 ASPEN CT                           000N        CARE OF             
MTR08511900001000000000000000RA              26002076    005800120000001200000520000003NN  NNW 000                       N    
RDG08511900WATRL000000004K00000000000002478022707232015092436N000000000000N40       000190400K 10000000010000002464           
CUS0851190000108004087006         SHROYER SHERRY A    3113 ASPEN CT                           000N        CARE OF             
MTR08511900001000000000000000RA              26002075    005800130000001300000520000003NN  NNW 000                       N    
RDG08511900WATRL000000004K00000000000006200022807232015092453N000000000000N40       000170400K 10000000010000006163           
CUS0851190000108004088004         BRYAN HESSLER       3111 ASPEN CT                           000N        CARE OF             
MTR08511900001000000000000000RA              33081101    005800140000001400000520000003NN  NNW 000                       N    
RDG08511900WATRL000000004K00000000000006063022907232015092519N000000000000N40       000260400K 10000000010000006033           
CUS0851190000108004089002         KIDD DIANE E        3109 ASPEN CT                           000N        CARE OF             
MTR08511900001000000000000000RA              00138094    005800150000001500000570000003NN  NNW 000                       N    
RDG08511900WATRL000000004K00000000000002543023007232015092522N000000000000N40       000030400K 10000000010000002543           
CUS0851190000108004090000         SHROYER ANDREW      3107 ASPEN CT                           000N        CARE OF             
MTR08511900001000000000000000RA              10024085    005800160000001600000570000003NN  NNW 000                       N    
RDG08511900WATRL000000004K00000000000000242023107232015092559N000000000000N40       000370400K 10000000010000000209           
CUS0851190000108004091008         DANIELS ELEANOR J   3105 ASPEN CT                           000N        CARE OF             
MTR08511900001000000000000000RA              10018166    005800170000001700000570000003NN  NNW 000                       N    
RDG08511900WATRL000000004K00000000000000120023207232015092602N000000000000N40       000030400K 10000000010000000105           
CUS0851190000108004092006         MINEAR REAL ESTATE C3103 ASPEN CT                           000N        CARE OF             
MTR08511900001000000000000000RA              38986063    005800180000001800000520000000NN  NNW 000                       N    
RDG08511900WATRL000000004K00000000000003212023307232015092629N000000000010N40       000270400K 10000000010000003209           
CUS0851190000108004093004         PETERSON VICKI LYN  3101 ASPEN CT                           000N        CARE OF             
MTR08511900001000000000000000RA              38983601    005800190000001900000520000003NN  NNW 000                       N    
RDG08511900WATRL000000004K00000000000004430023407232015092632N000000000000N40       000030400K 10000000010000004418           
CUS0851190000108004094002         BOSQUE KAIL         3100 ASPEN CT                           000N        CARE OF             
MTR08511900001000000000000000RA              41087309    005800200000002000000520000003NN  NNW 000                       N    
RDG08511900WATRL000000004K00000000000001723023508032015150614O000300000010N80       000360400K 10000000010000002947           
CUS0851190000108004095009         RANIERI STACY L     3102 ASPEN CT                           000N        CARE OF             
MTR08511900001000000000000000RA              36889922    005800210000002100000520000003NN  NNW 000                       N    
RDG08511900WATRL000000004K00000000000003000023608032015150713O000300000010N80       000050400K 10000000010000001699           
CUS0851190000108004096007         SOUDERS SHARON      3104 ASPEN CT                           000N        CARE OF             
MTR08511900001000000000000000RA              46875526    005800220000002200000520000003NN  NNW 000                       N    
RDG08511900WATRL000000004K00000000000002916023707232015092744N000000000000N40       000310400K 10000000010000002888           
CUS0851190000108004097005         CASTRUCCIO PETER A  3106 ASPEN CT                           000N        CARE OF             
MTR08511900001000000000000000RA              46875522    005800230000002300000520000003NN  NNW 000                       N    
RDG08511900WATRL000000004K00000000000003591023807232015092748N000000000000N40       000040400K 10000000010000003556           
CUS0851190000108004098003         PATTERSON TROY M    3108 ASPEN CT                           000N        CARE OF             
MTR08511900001000000000000000RA              00133909    005800240000002400000570000003NN  NNW 000                       N    
RDG08511900WATRL000000004K00000000000001492023907232015092810N000000000000N40       000220400K 10000000010000001474           
CUS0851190000108004099001         WHALE JEAN          3110 ASPEN CT                           000N        CARE OF             
MTR08511900001000000000000000RA              99999999    005800250000002500000570000003NN  NNW 000                       N    
RDG08511900WATRL000000004K00000000000000572024007232015092814N000000000000N40       000040400K 10000000010000000566           
CUS0851190000108004100007         QUESADA, CHRIS      3112 ASPEN CT                           000N        CARE OF             
MTR08511900001000000000000000RA              35102140    005800260000002600000520000000NN  NNW 000                       N    
RDG08511900WATRL000000004K00000000000004387024107232015092835N000000000000N40       000210400K 10000000010000004365           
CUS0851190000108004101005         CASTRUCCIO PETER A  3114 ASPEN CT                           000N        CARE OF             
MTR08511900001000000000000000RA              01084239    005800270000002700000610000000NN  NNW 000                       N    
RDG08511900WATRL000000004K00000000000001470024207232015092901N000000000000N40       000260400K 10000000010000001448           
CUS0851190000108004102003         HARPSTER ADAM M     3116 ASPEN CT                           000N        CARE OF             
MTR08511900001000000000000000RA              01084231    005800280000002800000610000000NN  NNW 000                       N    
RDG08511900WATRL000000004K00000000000001450024307232015092940N000000000000N40       000390400K 10000000010000001434           
CUS0851190000108004103001         CASTRUCCIO PETER A  3118 ASPEN CT                           000N        CARE OF             
MTR08511900001000000000000000RA              46875523    005800290000002900000520000003NN  NNW 000                       N    
RDG08511900WATRL000000004K00000000000003153024407232015093016N000000000000N40       000360400K 10000000010000003130           
CUS0851190000108004104009         KREINER JOHN        3120 ASPEN CT                           000N        CARE OF             
MTR08511900001000000000000000RA              14917618    005800300000003000000310000003NN  NNW 000                       N    
RDG08511900WATRL000000004K00000000000000737024507232015093020N000000000000N40       000040400K 10000000010000000729           
CUS0851190000108004105006         CASTRUCCIO PETER A  3122 ASPEN CT                           000N        CARE OF             
MTR08511900001000000000000000RA              27822930    005800310000003100000520000003NY  NNW 000                       N    
MTM0851190027822930    NEW MTR77890861                                                                                        
RDG08511900WATRL000000004K00000000000000000024607232015093103S001000000000N40       000430400K 10000000010000005027           
CUS0851190000108004106004         CASTRUCCIO PETER    3124 ASPEN CT                           000N        CARE OF             
MTR08511900001000000000000000RA              45382195    005800320000003200000520000000NY  NNW 000                       N    
MTM0851190045382195    NEW MTR77890828                                                                                        
RDG08511900WATRL000000004K00000000000000000024707232015093137S001000000000N40       000340400K 10000000010000002548           
CUS0851190000108004107002         FORGAN LISA RENEE   3323 RYERSON CIR                        000N        CARE OF             
MTR08511900001000000000000000RA              76349241    005800330000003300000350000003NN  NNW 000                       N    
RDG08511900WATRL000000004K00000000000000068000107232015065802N000400000030N40       000000400K 10000000010000000066           
CUS0851190000108004108000         THUNDER HILL PROPERT3321 RYERSON CIR                        000N        CARE OF             
MTR08511900001000000000000000RA              10021340    005800340000003400000570000003NN  NNW 000                       N    
RDG08511900WATRL000000004K00000000000000462000207232015065819N000000000000N40       000170400K 10000000010000000432           
CUS0851190000108004109008         MOELLMANN KENNETH   3319 RYERSON CIR                        000N        CARE OF             
MTR08511900001000000000000000RA              10009528    005800350000003500000570000003NN  NNW 000                       N    
RDG08511900WATRL000000004K00000000000000918000307232015065859N000000000000N40       000400400K 10000000010000000874           
CUS0851190000108004110006         SHOCKNEY CHARLES M  3317 RYERSON CIR                        000N        CARE OF             
MTR08511900001000000000000000RA              76345999    005800360000003600000350000003NN  NNW 000                       N    
RDG08511900WATRL000000004K00000000000000119000407232015065905N000000000000N40       000060400K 10000000010000000088           
CUS0851190000108004111004         GOTH ROBERT W,JR    3315 RYERSON CIR                        000N        CARE OF             
MTR08511900001000000000000000RA              24760924    005800370000003700000520000003NN  NNW 000                       N    
RDG08511900WATRL000000004K00000000000003797000507232015065955N000000000000N40       000500400K 10000000010000003782           
CUS0851190000108004112002         MOONEY JAMES D      3313 RYERSON CIR                        000N        CARE OF             
MTR08511900001000000000000000RA              45382173    005800380000003800000520000003NN  NNW 000                       N    
RDG08511900WATRL000000004K00000000000001487000608032015150540O000000000010N80       000150400K 10000000010000001482           
CUS0851190000108004113000         AULT WILLIAM H,3RD  3311 RYERSON CIR                        000N        CARE OF             
MTR08511900001000000000000000RA              10016209    005800390000003900000570000003NN  NNW 000                       N    
RDG08511900WATRL000000004K00000000000003646000707232015070112N000000000011N40       000110400K 10000000010000003619           
CUS0851190000108004114008         FISHER RICHARD E    3309 RYERSON CIR                        000N        CARE OF             
MTR08511900001000000000000000RA              46875529    005800400000004000000520000003NN  NNW 000                       N    
RDG08511900WATRL000000004K00000000000000203000807232015070114N000000000000N40       000020400K 10000000010000000193           
CUS0851190000108004115005         NICHOLSON MICHAEL D 3307 RYERSON CIR                        000N        CARE OF             
MTR08511900001000000000000000RA              00138022    005800410000004100000570000003NY  NNW 000                       N    
MTM0851190000138022    CLEAN OUT                                                                                              
RDG08511900WATRL000000004K00000000000001516000907232015070216N000000000000N40       000620400K 10000000010000001493           
CUS0851190000108004116003         FANGMAN LARRY       3305 RYERSON CIR                        000N        CARE OF             
MTR08511900001000000000000000RA              46875702    005800420000004200000520000003NY  NNW 000                       N    
MTM0851190046875702    RAISE MTR CLEAN OUT                                                                                    
RDG08511900WATRL000000004K00000000000001890001007232015070347N000000000000N40       000910400K 10000000010000001862           
CUS0851190000108004117001         BAUMGARTEN CHARLES J3303 RYERSON CIR                        000N        CARE OF             
MTR08511900001000000000000000RA              46878319    005800430000004300000520000003NN  NNW 000                       N    
RDG08511900WATRL000000004K00000000000000872001107232015070511N000000000000N40       000840400K 10000000010000000865           
CUS0851190000108004118009         CASTRO RODOLFO M    3301 RYERSON CIR                        000N        CARE OF             
MTR08511900001000000000000000RA              46878328    005800440000004400000520000003NN  NNW 000                       N    
RDG08511900WATRL000000004K00000000000002259001207232015070543N000000000040N40       000320400K 10000000010000002247           
CUS0851190000108004119007         SWICK DENNIS C      3283 RYERSON CIR                        000N        CARE OF             
MTR08511900001000000000000000RA              38984791    005800450000004500000520000003NN  NNW 000                       N    
RDG08511900WATRL000000004K00000000000002427001307232015070652N000000000010N40       000690400K 10000000010000002420           
CUS0851190000108004120005         HARTMAN FRANK M     3281 RYERSON CIR                        000N        CARE OF             
MTR08511900001000000000000000RA              38985185    005800460000004600000520000003NN  NNW 000                       N    
RDG08511900WATRL000000004K00000000000002525001407232015070732N000000000000N40       000400400K 10000000010000002512           
CUS0851190000108004121003         COOKE DAVID D       3279 RYERSON CIR                        000N        CARE OF             
MTR08511900001000000000000000RA              44178082    005800470000004700000520000003NN  NNW 000                       N    
RDG08511900WATRL000000004K00000000000001830001507232015070758N000000000000N40       000260400K 10000000010000001817           
CUS0851190000108004122001         DALY SEAN M         3277 RYERSON CIR                        000N        CARE OF             
MTR08511900001000000000000000RA              44178081    005800480000004800000520000003NN  NNW 000                       N    
RDG08511900WATRL000000004K00000000000002485001607232015070803N000000000000N40       000050400K 10000000010000002467           
CUS0851190000108004123009         BROWN MICHAEL J     3275 RYERSON CIR                        000N        CARE OF             
MTR08511900001000000000000000RA              99289755    005800490000004900000570000003NN  NNW 000                       N    
RDG08511900WATRL000000004K00000000000001510001707232015070845N000000000000N40       000420400K 10000000010000001487           
CUS0851190000108004124007         AHERN JANET A       3273 RYERSON CIR                        000N        CARE OF             
MTR08511900001000000000000000RA              99290016    005800500000005000000570000003NN  NNW 000                       N    
RDG08511900WATRL000000004K00000000000001071001807232015070902N000000000000N40       000170400K 10000000010000001038           
CUS0851190000108004125004         GOLDYS ANDREW M,JR  3271 RYERSON CIR                        000N        CARE OF             
MTR08511900001000000000000000RA              00137997    005800510000005100000570000003NN  NNW 000                       N    
RDG08511900WATRL000000004K00000000000001570001907232015070948N000000000000N40       000460400K 10000000010000001554           
CUS0851190000108004126002         SWANNER LISA        3269 RYERSON CIR                        000N        CARE OF             
MTR08511900001000000000000000RA              50479267    005800520000005200000520000003NN  NNW 000                       N    
RDG08511900WATRL000000004K00000000000001438002007232015070952N000000000000N40       000040400K 10000000010000001427           
CUS0851190000108004127000         CLATTERBUCK DAVID W,3267 RYERSON CIR                        000N        CARE OF             
MTR08511900001000000000000000RA              46875595    005800530000005300000520000003NN  NNW 000                       N    
RDG08511900WATRL000000004K00000000000001668002107232015071019N000300000010N40       000270400K 10000000010000001634           
CUS0851190000108004128008         FAIRALL MARGARET A  3265 RYERSON CIR                        000N        CARE OF             
MTR08511900001000000000000000RA              46875556    005800540000005400000520000003NN  NNW 000                       N    
RDG08511900WATRL000000004K00000000000000714002207232015071023N000000000000N40       000040400K 10000000010000000712           
CUS0851190000108004129006         WANG DAVID L        3263 RYERSON CIR                        000N        CARE OF             
MTR08511900001000000000000000RA              00138000    005800550000005500000570000003NN  NNW 000                       N    
RDG08511900WATRL000000004K00000000000000620002307232015071108N000000000000N40       000450400K 10000000010000000600           
CUS0851190000108004130004         KREATSCHMAN GEORGE R3261 RYERSON CIR                        000N        CARE OF             
MTR08511900001000000000000000RA              00137986    005800560000005600000570000003NN  NNW 000                       N    
RDG08511900WATRL000000004K00000000000001023002407232015071112N000000000000N40       000040400K 10000000010000001005           
CUS0851190000108004131002         PAPAYCIK JOSEPHINE A3259 RYERSON CIR                        000N        CARE OF             
MTR08511900001000000000000000RA              75617318    005800570000005700000350000003NN  NNW 000                       N    
RDG08511900WATRL000000004K00000000000000064002507282015074630O000000000010N80       000520400K 10000000010000000058           
CUS0851190000108004132000         CAMPBELL GLENN C    3257 RYERSON CIR                        000N        CARE OF             
MTR08511900001000000000000000RA              54352292    005800580000005800000520000003NN  NNW 000                       N    
RDG08511900WATRL000000004K00000000000000834002607232015071232N000000000000N40       000280400K 10000000010000000823           
CUS0851190000108004133008         SERIO FRANK J,JR    3255 RYERSON CIR                        000N        CARE OF             
MTR08511900001000000000000000RA              24230477    005800590000005900000520000003NN  NNW 000                       N    
RDG08511900WATRL000000004K00000000000003414002707232015071321N000000000000N40       000490400K 10000000010000003395           
CUS0851190000108004134006         KILMON DONALD       3253 RYERSON CIR                        000N        CARE OF             
MTR08511900001000000000000000RA              24773374    005800600000006000000520000003NN  NNW 000                       N    
RDG08511900WATRL000000004K00000000000003836002807232015071329N000000000000N40       000080400K 10000000010000003815           
CUS0851190000108004135003         BARSDA JAMES ROBERT 3251 RYERSON CIR                        000N        CARE OF             
MTR08511900001000000000000000RA              23051235    005800610000006100000520000003NN  NNW 000                       N    
RDG08511900WATRL000000004K00000000000004341002907232015071407N000000000000N40       000380400K 10000000010000004334           
CUS0851190000108004136001         WELLEIN ANDREW      3249 RYERSON CIR                        000N        CARE OF             
MTR08511900001000000000000000RA              23057334    005800620000006200000520000003NN  NNW 000                       N    
RDG08511900WATRL000000004K00000000000007194003007232015071412N000000000000N40       000050400K 10000000010000007163           
CUS0851190000108004137009         REDMAN DAVID E      3247 RYERSON CIR                        000N        CARE OF             
MTR08511900001000000000000000RA              75618091    005800630000006300000350000003NN  NNW 000                       N    
RDG08511900WATRL000000004K00000000000000087003107232015071441N000000000000N40       000290400K 10000000010000000077           
CUS0851190000108004138007         MICHNO NARCISSUS A,J3245 RYERSON CIR                        000N        CARE OF             
MTR08511900001000000000000000RA              29686538    005800640000006400000520000003NN  NNW 000                       N    
RDG08511900WATRL000000004K00000000000005548003207232015071445N000000000000N40       000040400K 10000000010000005514           
CUS0851190000108004139005         KILMON DONALD H     3243 RYERSON CIR                        000N        CARE OF             
MTR08511900001000000000000000RA              26015257    005800650000006500000520000003NN  NNW 000                       N    
RDG08511900WATRL000000004K00000000000003844003307232015071524N000000000000N40       000390400K 10000000010000003813           
CUS0851190000108004140003         AMELUNG TERESA ELIZA3241 RYERSON CIR                        000N        CARE OF             
MTR08511900001000000000000000RA              14908065    005800660000006600000310000003NN  NNW 000                       N    
RDG08511900WATRL000000004K00000000000000538003407232015071529N000000000000N40       000050400K 10000000010000000538           
CUS0851190000108004141001         EPPARD EARL R       3239 RYERSON CIR                        000N        CARE OF             
MTR08511900001000000000000000RA              23649386    005800670000006700000520000003NN  NNW 000                       N    
RDG08511900WATRL000000004K00000000000006281003507232015071556N000000000000N40       000270400K 10000000010000006252           
CUS0851190000108004142009         COX ROGER L         3237 RYERSON CIR                        000N        CARE OF             
MTR08511900001000000000000000RA              44173343    005800680000006800000520000003NN  NNW 000                       N    
RDG08511900WATRL000000004K00000000000001219003607232015071601N000000000000N40       000050400K 10000000010000001210           
CUS0851190000108004143007         CAVINESS THOMAS     3235 RYERSON CIR                        000N        CARE OF             
MTR08511900001000000000000000RA              00138025    005800690000006900000570000003NN  NNW 000                       N    
RDG08511900WATRL000000004K00000000000001918003707232015071636N000000000000N40       000350400K 10000000010000001891           
CUS0851190000108004144005         ONEAL FRED          3233 RYERSON CIR                        000N        CARE OF             
MTR08511900001000000000000000RA              00138175    005800700000007000000570000003NN  NNW 000                       N    
RDG08511900WATRL000000004K00000000000000821003807232015071639N000000000000N40       000030400K 10000000010000000801           
CUS0851190000108004145002         WELLER AARON M      3231 RYERSON CIR                        000N        CARE OF             
MTR08511900001000000000000000RA              23841229    005800710000007100000520000003NN  NNW 000                       N    
RDG08511900WATRL000000004K00000000000004588003907232015071714N000000000000N40       000350400K 10000000010000004574           
CUS0851190000108004146000         EMKEY TINA M        3229 RYERSON CIR                        000N        CARE OF             
MTR08511900001000000000000000RA              23841242    005800720000007200000520000003NN  NNW 000                       N    
RDG08511900WATRL000000004K00000000000004252004007232015071722N000000000000N40       000080400K 10000000010000004228           
CUS0851190000108004147008         MOORE JERRY K  MOORE3227 RYERSON CIR                        000N        CARE OF             
MTR08511900001000000000000000RA              23051197    005800730000007300000520000003NY  NNW 000                       N    
MTM0851190023051197    NO ACCESS CLEAN OUT                                                                                    
RDG08511900WATRL000000004K00000000000000000000000000000000000 000000000000U         000000400  10000000010000003055           
CUS0851190000108004148006         KILMON DONALD H     3225 RYERSON CIR                        000N        CARE OF             
MTR08511900001000000000000000RA              48593676    005800740000007400000520000003NY  NNW 000                       N    
MTM0851190048593676    NO ACCESS CLEAN OUT                                                                                    
RDG08511900WATRL000000004K00000000000000000000000000000000000 000000000000U         000000400  10000000010000001042           
CUS0851190000108004149004         EITEL THOMAS W      3223 RYERSON CIR                        000N        CARE OF             
MTR08511900001000000000000000RA              10008568    005800750000007500000570000003NN  NNW 000                       N    
RDG08511900WATRL000000004K00000000000000582004107232015071912N000000000000N40       001100400K 10000000010000000551           
CUS0851190000108004150002         MILLER JOHN B       3221 RYERSON CIR                        000N        CARE OF             
MTR08511900001000000000000000RA              99293494    005800760000007600000570000003NN  NNW 000                       N    
RDG08511900WATRL000000004K00000000000001519004207232015071922N000000000000N40       000100400K 10000000010000001496           
CUS0851190000108004151000         HORNBERGER NORRIS B 3219 RYERSON CIR                        000N        CARE OF             
MTR08511900001000000000000000RA              29403036    005800770000007700000520000003NY  NNW 000                       N    
MTM0851190029403036    CLOUDY DIAL                                                                                            
RDG08511900WATRL000000004K00000000000001616004307232015072218N000000000010N40       001760400K 10000000010000001609           
CUS0851190000108004152008         HATTON MANATHIUS H  3217 RYERSON CIR                        000N        CARE OF             
MTR08511900001000000000000000RA              50479223    005800780000007800000520000003NY  NNW 000                       N    
MTM0851190050479223    CLOUDY DIAL                                                                                            
RDG08511900WATRL000000004K00000000000001290004407232015072310N000000000000N40       000520400K 10000000010000001275           
CUS0851190000108004153006         DICKEL KATIE L      3215 RYERSON CIR                        000N        CARE OF             
MTR08511900001000000000000000RA              38887610    005800790000007900000520000003NN  NNW 000                       N    
RDG08511900WATRL000000004K00000000000002917004507232015072351N000000000000N40       000410400K 10000000010000002900           
CUS0851190000108004154004         SHIPLEY RUSSELL H   3213 RYERSON CIR                        000N        CARE OF             
MTR08511900001000000000000000RA              48593678    005800800000008000000520000003NN  NNW 000                       N    
RDG08511900WATRL000000004K00000000000000812004607232015072353N000000000000N40       000020400K 10000000010000000806           
CUS0851190000108004155001         LONG TYSON R        3211 RYERSON CIR                        000N        CARE OF             
MTR08511900001000000000000000RA              00138001    005800810000008100000570000003NN  NNW 000                       N    
RDG08511900WATRL000000004K00000000000001990004707232015072429N000400000010N40       000360400K 10000000010000001950           
CUS0851190000108004156009         SMITH TIMOTHY LEE   3209 RYERSON CIR                        000N        CARE OF             
MTR08511900001000000000000000RA              00138024    005800820000008200000570000003NN  NNW 000                       N    
RDG08511900WATRL000000004K00000000000001274004807232015072431N000000000000N40       000020400K 10000000010000001250           
CUS0851190000108004157007         MOONEY JOSEPH CALVIN3207 RYERSON CIR                        000N        CARE OF             
MTR08511900001000000000000000RA              44173305    005800830000008300000520000003NN  NNW 000                       N    
RDG08511900WATRL000000004K00000000000002421004907232015072454N000000000000N40       000230400K 10000000010000002409           
CUS0851190000108004158005         STEINBOCK JOAN C    3205 RYERSON CIR                        000N        CARE OF             
MTR08511900001000000000000000RA              44173342    005800840000008400000520000003NN  NNW 000                       N    
RDG08511900WATRL000000004K00000000000000570005007232015072500N000400000010N40       000060400K 10000000010000000568           
CUS0851190000108004159003         SMITH STEVE M       3203 RYERSON CIR                        000N        CARE OF             
MTR08511900001000000000000000RA              50790517    005800850000008500000520000003NN  NNW 000                       N    
RDG08511900WATRL000000004K00000000000002116005107282015074738O000000000010N80       000420400K 10000000010000002072           
CUS0851190000108004160001         TRIMMER MICHAEL T   3201 RYERSON CIR                        000N        CARE OF             
MTR08511900001000000000000000RA              48595207    005800860000008600000520000003NN  NNW 000                       N    
RDG08511900WATRL000000004K00000000000002014005207232015072552N000000000000N40       000100400K 10000000010000002014           
CUS0851190000108004161009         MILLER ROBERT L     301 WISEWELL CT                         000N        CARE OF             
MTR08511900001000000000000000RA              99999999    005800870000008700000620000003NN  NNW 000                       N    
RDG08511900WATRL000000004K00000000000000000005407232015072757S002000000000N40       000350400K 10000000010000000000           
CUS0851190000108004162007         RIVERVIEW PROPERTY M303 WISEWELL CT                         000N        CARE OF             
MTR08511900001000000000000000RA              01115821    005800880000008800000610000003NN  NNW 000                       N    
RDG08511900WATRL000000004K00000000000001655005307232015072722N000000000000N40       000900400K 10000000010000001615           
CUS0851190000108004163005         FREELAND KENNETH W  305 WISEWELL CT                         000N        CARE OF             
MTR08511900001000000000000000RA              10013274    005800890000008900000570000003NN  NNW 000                       N    
RDG08511900WATRL000000004K00000000000000352005507232015072845N000000000000N40       000480400K 10000000010000000330           
CUS0851190000108004164003         EARL JONES          307 WISEWELL CT                         000N        CARE OF             
MTR08511900001000000000000000RA              10013273    005800900000009000000570000003NN  NNW 000                       N    
RDG08511900WATRL000000004K00000000000000323005607232015072854N000000000000N40       000090400K 10000000010000000271           
CUS0851190000108004165000         WADE JONATHAN       309 WISEWELL CT                         000N        CARE OF             
MTR08511900001000000000000000RA              01115823    005800910000009100000610000003NN  NNW 000                       N    
RDG08511900WATRL000000004K00000000000001750005707232015072937N000000000000N40       000430400K 10000000010000001721           
CUS0851190000108004166008         MULLINS JOSEPH C,SR 311 WISEWELL CT                         000N        CARE OF             
MTR08511900001000000000000000RA              27818154    005800920000009200000520000003NN  NNW 000                       N    
RDG08511900WATRL000000004K00000000000002688005807232015072950N000000000000N40       000130400K 10000000010000002681           
CUS0851190000108004167006         CISAR KENNETH D     313 WISEWELL CT                         000N        CARE OF             
MTR08511900001000000000000000RA              29681546    005800930000009300000520000003NN  NNW 000                       N    
RDG08511900WATRL000000004K00000000000001736005907232015073034N000000000000N40       000440400K 10000000010000001732           
CUS0851190000108004168004         BROWN DAVID W       315 WISEWELL CT                         000N        CARE OF             
MTR08511900001000000000000000RA              00138095    005800940000009400000570000003NN  NNW 000                       N    
RDG08511900WATRL000000004K00000000000001786006007232015073059N000000000000N40       000250400K 10000000010000001759           
CUS0851190000108004169002         HOPP ROBERT J  HOPP 317 WISEWELL CT                         000N        CARE OF             
MTR08511900001000000000000000RA              00138098    005800950000009500000570000003NN  NNW 000                       N    
RDG08511900WATRL000000004K00000000000001790006107232015073241N000000000000N40       001020400K 10000000010000001757           
CUS0851190000108004170000         SMOOT SHEMERRIAN K  319 WISEWELL CT                         000N        CARE OF             
MTR08511900001000000000000000RA              01070775    005800960000009600000610000003NN  NNW 000                       N    
RDG08511900WATRL000000004K00000000000001047006207232015073246N000000000000N40       000050400K 10000000010000001036           
CUS0851190000108004171008         GOTH ROBERT W       321 WISEWELL CT                         000N        CARE OF             
MTR08511900001000000000000000RA              48593456    005800970000009700000520000003NN  NNW 000                       N    
RDG08511900WATRL000000004K00000000000002628006307232015073324N000000000000N40       000380400K 10000000010000002607           
CUS0851190000108004172006         ONEAL FRED R,JR     323 WISEWELL CT                         000N        CARE OF             
MTR08511900001000000000000000RA              48596552    005800980000009800000520000003NN  NNW 000                       N    
RDG08511900WATRL000000004K00000000000002411006407232015073330N000000000000N40       000060400K 10000000010000002393           
CUS0851190000108004173004         SMITH DAVID W       325 WISEWELL CT                         000N        CARE OF             
MTR08511900001000000000000000RA              75617800    005800990000009900000350000003NN  NNW 000                       N    
RDG08511900WATRL000000004K00000000000000050006507232015073357N000000000000N40       000270400K 10000000010000000045           
CUS0851190000108004174002         SACHS RAYMOND H     327 WISEWELL CT                         000N        CARE OF             
MTR08511900001000000000000000RA              9686606     005801000000010000000570000003NN  NNW 000                       N    
RDG08511900WATRL000000004K00000000000004876006607232015073456N000000000000N40       000590400K 10000000010000004859           
CUS0851190000108004175009         KILMON DONALD H     324 WISEWELL CT                         000N        CARE OF             
MTR08511900001000000000000000RA              01070213    005801010000010100000610000003NN  NNW 000                       N    
RDG08511900WATRL000000004K00000000000001298006707232015073508N000000000000N40       000120400K 10000000010000001278           
CUS0851190000108004176007         MCDERMOTT JAMES C   322 WISEWELL CT                         000N        CARE OF             
MTR08511900001000000000000000RA              99290416    005801020000010200000570000003NN  NNW 000                       N    
RDG08511900WATRL000000004K00000000000001424006807232015073612N000000000000N40       000640400K 10000000010000001406           
CUS0851190000108004177005         GARRITY SCOTT H     320 WISEWELL CT                         000N        CARE OF             
MTR08511900001000000000000000RA              99290014    005801030000010300000570000003NN  NNW 000                       N    
RDG08511900WATRL000000004K00000000000001135006907232015073625N000000000000N40       000130400K 10000000010000001120           
CUS0851190000108004178003         BLEDSOE DAVID D,JR  318 WISEWELL CT                         000N        CARE OF             
MTR08511900001000000000000000RA              20968840    005801040000010400000520000003NN  NNW 000                       N    
RDG08511900WATRL000000004K00000000000005412007007232015073704N000000000000N40       000390400K 10000000010000005403           
CUS0851190000108004179001         CARTER SANDRA       316 WISEWELL CT                         000N        CARE OF             
MTR08511900001000000000000000RA              52769166    005801050000010500000520000003NN  NNW 000                       N    
RDG08511900WATRL000000004K00000000000001602007107232015073713N000000000000N40       000090400K 10000000010000001594           
CUS0851190000108004180009         DETTWILER KATHY J   314 WISEWELL CT                         000N        CARE OF             
MTR08511900001000000000000000RA              2364445     005801060000010600000520000003NN  NNW 000                       N    
RDG08511900WATRL000000004K00000000000003593007207232015073735N000000000000N40       000220400K 10000000010000003578           
CUS0851190000108004181007         SHAALAN ZIAD        312 WISEWELL CT                         000N        CARE OF             
MTR08511900001000000000000000RA              9688539     005801070000010700000570000003NN  NNW 000                       N    
RDG08511900WATRL000000004K00000000000006969007307232015073741N000000000000N40       000060400K 10000000010000006920           
CUS0851190000108004182005         SLAGLE CARL E       310 WISEWELL CT                         000N        CARE OF             
MTR08511900001000000000000000RA              76348604    005801080000010800000350000003NN  NNW 000                       N    
RDG08511900WATRL000000004K00000000000000024007407232015073812N000000000000N40       000310400K 10000000010000000018           
CUS0851190000108004183003         STEVENS KENNETH W   308 WISEWELL CT                         000N        CARE OF             
MTR08511900001000000000000000RA              50789199    005801090000010900000520000003NN  NNW 000                       N    
RDG08511900WATRL000000004K00000000000001764007507232015073824N000000000000N40       000120400K 10000000010000001743           
CUS0851190000108004184001         ERVIN DAWN M        306 WISEWELL CT                         000N        CARE OF             
MTR08511900001000000000000000RA              36693781    005801100000011000000520000003NN  NNW 000                       N    
RDG08511900WATRL000000004K00000000000003617007607232015073919N000000000000N40       000550400K 10000000010000003589           
CUS0851190000108004185008         FIELDS DAVID        304 WISEWELL CT                         000N        CARE OF             
MTR08511900001000000000000000RA              75426186    005801110000011100000350000003NN  NNW 000                       N    
RDG08511900WATRL000000004K00000000000000035007707232015073929N000300000010N40       000100400K 10000000010000000025           
CUS0851190000108004186006         CARTER DENNIS D     302 WISEWELL CT                         000N        CARE OF             
MTR08511900001000000000000000RA              23051810    005801120000011200000520000003NN  NNW 000                       N    
RDG08511900WATRL000000004K00000000000005730007807232015074047N000000000000N40       000780400K 10000000010000005708           
CUS0851190000108004187004         LANE MARIAN F       300 WISEWELL CT                         000N        CARE OF             
MTR08511900001000000000000000RA              20968883    005801130000011300000520000003NN  NNW 000                       N    
RDG08511900WATRL000000004K00000000000002599007907232015074054N000000000000N40       000070400K 10000000010000002596           
CUS0851190000108004188002         TROCHE RAUL         3171 RYERSON CIR                        000N        CARE OF             
MTR08511900001000000000000000RA              01085197    005801140000011400000610000003NN  NNW 000                       N    
RDG08511900WATRL000000004K00000000000000812008007232015074210N000000000000N40       000760400K 10000000010000000800           
CUS0851190000108004189000         DIAZ XAVIER A       3169 RYERSON CIR                        000N        CARE OF             
MTR08511900001000000000000000RA              01085195    005801150000011500000610000003NN  NNW 000                       N    
RDG08511900WATRL000000004K00000000000000878008107232015074214N000000000000N40       000040400K 10000000010000000853           
CUS0851190000108004190008         DAWSON DENNIS       3167 RYERSON CIR                        000N        CARE OF             
MTR08511900001000000000000000RA              23051216    005801160000011600000520000003NN  NNW 000                       N    
RDG08511900WATRL000000004K00000000000002903008207232015074313N000000000000N40       000590400K 10000000010000002889           
CUS0851190000108004191006         KING PAUL DEAN      3165 RYERSON CIR                        000N        CARE OF             
MTR08511900001000000000000000RA              23644450    005801170000011700000520000003NN  NNW 000                       N    
RDG08511900WATRL000000004K00000000000004004008307232015074325N000000000000N40       000120400K 10000000010000003987           
CUS0851190000108004192004         ARNOLD MICHAEL      3163 RYERSON CIR                        000N        CARE OF             
MTR08511900001000000000000000RA              01111947    005801180000011800000610000003NN  NNW 000                       N    
RDG08511900WATRL000000004K00000000000001142008407232015074422N000000000000N40       000570400K 10000000010000001110           
CUS0851190000108004193002         LANGLEY WILLIAM CHRI3161 RYERSON CIR                        000N        CARE OF             
MTR08511900001000000000000000RA              10002542    005801190000011900000570000003NN  NNW 000                       N    
RDG08511900WATRL000000004K00000000000000397008507232015074430N000000000000N40       000080400K 10000000010000000387           
CUS0851190000108004194000         KREATSCHMAN DAVID   3159 RYERSON CIR                        000N        CARE OF             
MTR08511900001000000000000000RA              29403107    005801200000012000000520000003NN  NNW 000                       N    
RDG08511900WATRL000000004K00000000000003675008607232015074534N000000000010N40       000640400K 10000000010000003666           
CUS0851190000108004195007         JASON M. PRUITT     3157 RYERSON CIR                        000N        CARE OF             
MTR08511900001000000000000000RA              29403035    005801210000012100000520000003NN  NNW 000                       N    
RDG08511900WATRL000000004K00000000000003872008707232015074617N000000000020N40       000430400K 10000000010000003870           
CUS0851190000108004196005         STEVENS LAFAWN A    3155 RYERSON CIR                        000N        CARE OF             
MTR08511900001000000000000000RA              01081646    005801220000012200000610000003NN  NNW 000                       N    
RDG08511900WATRL000000004K00000000000002155008807232015074721N000000000000N40       000640400K 10000000010000002139           
CUS0851190000108004197003         CONNOR RICHARD M,SR 3153 RYERSON CIR                        000N        CARE OF             
MTR08511900001000000000000000RA              01114320    005801230000012300000610000003NN  NNW 000                       N    
RDG08511900WATRL000000004K00000000000001060008907232015074729N000000000000N40       000080400K 10000000010000001060           
CUS0851190000108004198001         COLE MINDY M        3151 RYERSON CIR                        000N        CARE OF             
MTR08511900001000000000000000RA              01070772    005801240000012400000610000003NN  NNW 000                       N    
RDG08511900WATRL000000004K00000000000000529009007232015074840N000100000010N40       000710400K 10000000010000000529           
CUS0851190000108004199009         CHESGREEN MARY C    3149 RYERSON CIR                        000N        CARE OF             
MTR08511900001000000000000000RA              27818165    005801250000012500000520000003NN  NNW 000                       N    
RDG08511900WATRL000000004K00000000000001496009107232015074903N000000000000N40       000230400K 10000000010000001486           
CUS0851190000108004200005         HOWARD JAMES F      3147 RYERSON CIR                        000N        CARE OF             
MTR08511900001000000000000000RA              23841228    005801260000012600000520000003NN  NNW 000                       N    
RDG08511900WATRL000000004K00000000000004964009207232015075105N000000000010N40       001220400K 10000000010000004942           
CUS0851190000108004201003         MARSH CHRISTINE     3145 RYERSON CIR                        000N        CARE OF             
MTR08511900001000000000000000RA              27818699    005801270000012700000520000003NN  NNW 000                       N    
RDG08511900WATRL000000004K00000000000003550009307232015075123N000000000000N40       000180400K 10000000010000003530           
CUS0851190000108004202001         HAIN JOHN W         3143 RYERSON CIR                        000N        CARE OF             
MTR08511900001000000000000000RA              11332166    005801280000012800000570000003NN  NNW 000                       N    
RDG08511900WATRL000000004K00000000000003307009407232015075214N000000000000N40       000510400K 10000000010000003292           
CUS0851190000108004203009         SEVERE CHARLES N    3141 RYERSON CIR                        000N        CARE OF             
MTR08511900001000000000000000RA              11334262    005801290000012900000570000003NN  NNW 000                       N    
RDG08511900WATRL000000004K00000000000008297009507232015075222N000000000000N40       000080400K 10000000010000008250           
CUS0851190000108004204007         RECK TERANCE M      3139 RYERSON CIR                        000N        CARE OF             
MTR08511900001000000000000000RA              23841225    005801300000013000000520000003NN  NNW 000                       N    
RDG08511900WATRL000000004K00000000000004038009607232015075258N000000000000N40       000360400K 10000000010000004010           
CUS0851190000108004205004         TABITHA HARDESTY    3137 RYERSON CIR                        000N        CARE OF             
MTR08511900001000000000000000RA              23841245    005801310000013100000520000003NN  NNW 000                       N    
RDG08511900WATRL000000004K00000000000004734009707232015075320N000000000010N40       000220400K 10000000010000004729           
CUS0851190000108004206002         BACH WILLIAM L      3135 RYERSON CIR                        000N        CARE OF             
MTR08511900001000000000000000RA              01114321    005801320000013200000610000003NN  NNW 000                       N    
RDG08511900WATRL000000004K00000000000001053009807232015075432N000000000000N40       000720400K 10000000010000001013           
CUS0851190000108004207000         HESSLER TABATHA J   3133 RYERSON CIR                        000N        CARE OF             
MTR08511900001000000000000000RA              27828697    005801330000013300000520000003NN  NNW 000                       N    
RDG08511900WATRL000000004K00000000000002794009907232015075547N000300000020N40       000750400K 10000000010000002769           
CUS0851190000108004208008         GOODMAN HAROLD J    3131 RYERSON CIR                        000N        CARE OF             
MTR08511900001000000000000000RA              27828606    005801340000013400000520000003NN  NNW 000                       N    
RDG08511900WATRL000000004K00000000000004470010007232015075557N000000000000N40       000100400K 10000000010000004451           
CUS0851190000108004209006         GOTH ROBERT         3129 RYERSON CIR                        000N        CARE OF             
MTR08511900001000000000000000RA              14926570    005801350000013500000310000003NN  NNW 000                       N    
RDG08511900WATRL000000004K00000000000000497010107232015075634N000000000000N40       000370400K 10000000010000000466           
CUS0851190000108004210004         BENDER HILLARY E    3127 RYERSON CIR                        000N        CARE OF             
MTR08511900001000000000000000RA              14904163    005801360000013600000310000003NN  NNW 000                       N    
RDG08511900WATRL000000004K00000000000000738010207232015075637N000000000000N40       000030400K 10000000010000000718           
CUS0851190000108004211002         STONE HOPE          3125 RYERSON CIR                        000N        CARE OF             
MTR08511900001000000000000000RA              14925765    005801370000013700000310000003NN  NNW 000                       N    
RDG08511900WATRL000000004K00000000000000313010307232015075710N000000000000N40       000330400K 10000000010000000306           
CUS0851190000108004212000         KIRBY JOSEPH E      3123 RYERSON CIR                        000N        CARE OF             
MTR08511900001000000000000000RA              27814484    005801380000013800000520000003NN  NNW 000                       N    
RDG08511900WATRL000000004K00000000000005338010407232015075749N000000000000N40       000390400K 10000000010000005309           
CUS0851190000108004213008         LIBERTINI ANDREW R  3121 RYERSON CIR                        000N        CARE OF             
MTR08511900001000000000000000RA              99290018    005801390000013900000570000003NN  NNW 000                       N    
RDG08511900WATRL000000004K00000000000000448010507232015075822N000000000000N40       000330400K 10000000010000000446           
CUS0851190000108004214006         SHAWN P RYAN        3119 RYERSON CIR                        000N        CARE OF             
MTR08511900001000000000000000RA              99290015    005801400000014000000570000003NN  NNW 000                       N    
RDG08511900WATRL000000004K00000000000000696010607232015075831N000000000000N40       000090400K 10000000010000000672           
CUS0851190000108004215003         COX JACKIE LEE      3117 RYERSON CIR                        000N        CARE OF             
MTR08511900001000000000000000RA              25782153    005801410000014100000520000003NN  NNW 000                       N    
RDG08511900WATRL000000004K00000000000003550010707232015075903N000000000000N40       000320400K 10000000010000003536           
CUS0851190000108004216001         KENDALL JAMES L     3115 RYERSON CIR                        000N        CARE OF             
MTR08511900001000000000000000RA              31587914    005801420000014200000520000003NN  NNW 000                       N    
RDG08511900WATRL000000004K00000000000002902010807232015075911N000000000000N40       000080400K 10000000010000002882           
CUS0851190000108004217009         ESAU D. HERNANDEZ JA3113 RYERSON CIR                        000N        CARE OF             
MTR08511900001000000000000000RA              40781933    005801430000014300000520000003NN  NNW 000                       N    
RDG08511900WATRL000000004K00000000000001883010907232015075934N000000000000N40       000230400K 10000000010000001865           
CUS0851190000108004218007         WARNICK JEFFREY     3111 RYERSON CIR                        000N        CARE OF             
MTR08511900001000000000000000RA              99189156    005801440000014400000570000003NN  NNW 000                       N    
RDG08511900WATRL000000004K00000000000001034011007232015080021N000000000000N40       000470400K 10000000010000001020           
CUS0851190000108004219005         STICKELL DAVID E    3109 RYERSON CIR                        000N        CARE OF             
MTR08511900001000000000000000RA              27831826    005801450000014500000520000003NN  NNW 000                       N    
RDG08511900WATRL000000004K00000000000003476011107232015080143N000000000010N40       000820400K 10000000010000003465           
CUS0851190000108004220003         CARDER PAUL J       3107 RYERSON CIR                        000N        CARE OF             
MTR08511900001000000000000000RA              27832000    005801460000014600000520000003NN  NNW 000                       N    
RDG08511900WATRL000000004K00000000000002827011207232015080159N000000000000N40       000160400K 10000000010000002810           
CUS0851190000108004221001         BROWN WILLIAM K     3105 RYERSON CIR                        000N        CARE OF             
MTR08511900001000000000000000RA              50790714    005801470000014700000520000003NN  NNW 000                       N    
RDG08511900WATRL000000004K00000000000002293011307232015080304N000000000000N40       000650400K 10000000010000002266           
CUS0851190000108004222009         BROWN WILLIAM K     3103 RYERSON CIR                        000N        CARE OF             
MTR08511900001000000000000000RA              52768960    005801480000014800000520000003NN  NNW 000                       N    
RDG08511900WATRL000000004K00000000000000662011407232015080316N000000000000N40       000120400K 10000000010000000646           
CUS0851190000108004223007         SHRIVER JEFFEREY SCO3101 RYERSON CIR                        000N        CARE OF             
MTR08511900001000000000000000RA              00133427    005801490000014900000570000003NN  NNW 000                       N    
RDG08511900WATRL000000004K00000000000001174011507232015080427N000000000011N40       000060400K 10000000010000001156           
CUS0851190000108004224005         ALVAREZ JOSE C      3100 RYERSON CIR                        000N        CARE OF             
MTR08511900001000000000000000RA              23841249    005801500000015000000520000003NN  NNW 000                       N    
RDG08511900WATRL000000004K00000000000002925011607232015080608N000000000000N40       001010400K 10000000010000002904           
CUS0851190000108004225002         GOTH ROBERT W,JR    3102 RYERSON CIR                        000N        CARE OF             
MTR08511900001000000000000000RA              35111886    005801510000015100000520000000NN  NNW 000                       N    
RDG08511900WATRL000000004K00000000000002162011707232015080720N000000000000N40       000720400K 10000000010000002146           
CUS0851190000108004226000         NETZER CARL R       3104 RYERSON CIR                        000N        CARE OF             
MTR08511900001000000000000000RA              35111848    005801520000015200000520000003NN  NNW 000                       N    
RDG08511900WATRL000000004K00000000000002666011807232015080740N000000000000N40       000200400K 10000000010000002646           
CUS0851190000108004227008         GOTH ROBERT W,JR    3106 RYERSON CIR                        000N        CARE OF             
MTR08511900001000000000000000RA              35111883    005801530000015300000520000003NN  NNW 000                       N    
RDG08511900WATRL000000004K00000000000001817011907232015080829N000000000000N40       000490400K 10000000010000001792           
CUS0851190000108004228006         LIU DONNAJEANNE S   3108 RYERSON CIR                        000N        CARE OF             
MTR08511900001000000000000000RA              77879377    005801540000015400000360000003NN  NNW 000                       N    
RDG08511900WATRL000000004K00000000000000000012007232015080831S001000000000N40       000020400K 10000000010000000000           
CUS0851190000108004229004         SAGI ALISON N       3110 RYERSON CIR                        000N        CARE OF             
MTR08511900001000000000000000RA              40781745    005801550000015500000520000003NN  NNW 000                       N    
RDG08511900WATRL000000004K00000000000001289012107232015080904N000000000000N40       000330400K 10000000010000001278           
CUS0851190000108004230002         ONEAL FRED R        3112 RYERSON CIR                        000N        CARE OF             
MTR08511900001000000000000000RA              14927053    005801560000015600000310000003NN  NNW 000                       N    
RDG08511900WATRL000000004K00000000000000308012207232015081059N000000000000N40       001150400K 10000000010000000302           
CUS0851190000108004231000         HICKMAN TAMMY L     3114 RYERSON CIR                        000N        CARE OF             
MTR08511900001000000000000000RA              99287624    005801570000015700000570000003NN  NNW 000                       N    
RDG08511900WATRL000000004K00000000000002038012307232015081213N000000000000N40       000740400K 10000000010000002008           
CUS0851190000108004232008         SULLIVAN DAVID P    3116 RYERSON CIR                        000N        CARE OF             
MTR08511900001000000000000000RA              99287822    005801580000015800000570000003NN  NNW 000                       N    
RDG08511900WATRL000000004K00000000000001226012407232015081229N000000000000N40       000160400K 10000000010000001217           
CUS0851190000108004233006         HOWARD TARNYA R     3118 RYERSON CIR                        000N        CARE OF             
MTR08511900001000000000000000RA              00133684    005801590000015900000570000003NN  NNW 000                       N    
RDG08511900WATRL000000004K00000000000001084012507232015081332N000000000000N40       000630400K 10000000010000001073           
CUS0851190000108004234004         HANSSEN DOUGLAS E   3120 RYERSON CIR                        000N        CARE OF             
MTR08511900001000000000000000RA              48586785    005801600000016000000520000003NN  NNW 000                       N    
RDG08511900WATRL000000004K00000000000001372012607232015081354N000000000000N40       000220400K 10000000010000001363           
CUS0851190000108004235001         BELLERIVE LESTER S,J3122 RYERSON CIR                        000N        CARE OF             
MTR08511900001000000000000000RA              35111846    005801610000016100000520000003NN  NNW 000                       N    
RDG08511900WATRL000000004K00000000000001672012707232015081454N000000000000N40       000600400K 10000000010000001665           
CUS0851190000108004236009         BECHTEL HARRY J     3124 RYERSON CIR                        000N        CARE OF             
MTR08511900001000000000000000RA              27814992    005801620000016200000520000003NN  NNW 000                       N    
RDG08511900WATRL000000004K00000000000004302012807232015081616N000000000000N40       000820400K 10000000010000004290           
CUS0851190000108004237007         JONES DONALD EDWARD 3126 RYERSON CIR                        000N        CARE OF             
MTR08511900001000000000000000RA              99290418    005801630000016300000570000003NN  NNW 000                       N    
RDG08511900WATRL000000004K00000000000001279012907232015081750N000000000010N40       000940400K 10000000010000001270           
CUS0851190000108004238005         KEAGLE BEVERLY E    3128 RYERSON CIR                        000N        CARE OF             
MTR08511900001000000000000000RA              99290017    005801640000016400000570000003NN  NNW 000                       N    
RDG08511900WATRL000000004K00000000000000614013007232015081802N000400000010N40       000120400K 10000000010000000606           
CUS0851190000108004239003         TAYLOR ALEXIS       3130 RYERSON CIR                        000N        CARE OF             
MTR08511900001000000000000000RA              30516218    005801650000016500000520000003NN  NNW 000                       N    
RDG08511900WATRL000000004K00000000000003738013107232015081841N000000000000N40       000390400K 10000000010000003726           
CUS0851190000108004240001         WOLFE RICKY L       3132 RYERSON CIR                        000N        CARE OF             
MTR08511900001000000000000000RA              29403109    005801660000016600000520000003NN  NNW 000                       N    
RDG08511900WATRL000000004K00000000000004311013207232015081937N000000000000N40       000560400K 10000000010000004285           
CUS0851190000108004241009         DALY RODNEY         3134 RYERSON CIR                        000N        CARE OF             
MTR08511900001000000000000000RA              48585828    005801670000016700000520000003NN  NNW 000                       N    
RDG08511900WATRL000000004K00000000000001616013307232015082021N000000000000N40       000440400K 10000000010000001603           
CUS0851190000108004242007         NORRIS JOHN CHARLES 3136 RYERSON CIR                        000N        CARE OF             
MTR08511900001000000000000000RA              23644452    005801680000016800000520000003NN  NNW 000                       N    
RDG08511900WATRL000000004K00000000000003527013407232015082105N000000000000N40       000440400K 10000000010000003516           
CUS0851190000108004243005         ARNOLD EDWARD A     3138 RYERSON CIR                        000N        CARE OF             
MTR08511900001000000000000000RA              29403106    005801690000016900000520000003NN  NNW 000                       N    
RDG08511900WATRL000000004K00000000000003455013507232015082207N000000000000N40       000620400K 10000000010000003434           
CUS0851190000108004244003         ALLEN STEVEN R      3140 RYERSON CIR                        000N        CARE OF             
MTR08511900001000000000000000RA              27213975    005801700000017000000520000003NN  NNW 000                       N    
RDG08511900WATRL000000004K00000000000004698013607232015082301N000000000000N40       000540400K 10000000010000004684           
CUS0851190000108004245000         GRIEVES WILLIAM T,SR3142 RYERSON CIR                        000N        CARE OF             
MTR08511900001000000000000000RA              24760920    005801710000017100000520000003NN  NNW 000                       N    
RDG08511900WATRL000000004K00000000000004551013707232015082319N000000000000N40       000180400K 10000000010000004527           
CUS0851190000108004246008         EQUITY TRUST COMPANY3144 RYERSON CIR                        000N        CARE OF             
MTR08511900001000000000000000RA              10002318    005801720000017200000570000003NN  NNW 000                       N    
RDG08511900WATRL000000004K00000000000000636013807232015082359N000000000000N40       000400400K 10000000010000000606           
CUS0851190000108004247006         THOMAS CLYDE WESLEY,3146 RYERSON CIR                        000N        CARE OF             
MTR08511900001000000000000000RA              78024016    007501730000017300000360000003NN  NNW 000                       N    
RDG08511900WATRL000000004K00000000000000000013907232015082404S001000000000N40       000050400K 10000000010000000036           
CUS0851190000108004248004         LEE FRED E          3148 RYERSON CIR                        000N        CARE OF             
MTR08511900001000000000000000RA              01070778    005801740000017400000610000003NN  NNW 000                       N    
RDG08511900WATRL000000004K00000000000000944014007232015082459N000000000000N40       000550400K 10000000010000000934           
CUS0851190000108004249002         THOMAS CLYDE W,JR   3150 RYERSON CIR                        000N        CARE OF             
MTR08511900001000000000000000RA              01070774    005801750000017500000610000003NN  NNW 000                       N    
RDG08511900WATRL000000004K00000000000000996014107232015082507N000000000000N40       000080400K 10000000010000000980           
CUS0851190000108004250000         FABER CHARLES J,JR  3152 RYERSON CIR                        000N        CARE OF             
MTR08511900001000000000000000RA              50790650    005801760000017600000520000003NN  NNW 000                       N    
RDG08511900WATRL000000004K00000000000001359014207232015082600N000000000000N40       000530400K 10000000010000001340           
CUS0851190000108004251008         GEBREKIDAN ERMIAS K 3154 RYERSON CIR                        000N        CARE OF             
MTR08511900001000000000000000RA              14921703    005801770000017700000310000003NN  NNW 000                       N    
RDG08511900WATRL000000004K00000000000000793014307232015082611N000000000000N40       000110400K 10000000010000000750           
CUS0851190000108004252006         STOLZENBACH CHARLES 3156 RYERSON CIR                        000N        CARE OF             
MTR08511900001000000000000000RA              14901788    005801780000017800000310000003NN  NNW 000                       N    
RDG08511900WATRL000000004K00000000000000373014407232015082726N000000000000N40       000750400K 10000000010000000353           
CUS0851190000108004253004         BENNETT JAMES A     3158 RYERSON CIR                        000N        CARE OF             
MTR08511900001000000000000000RA              39290459    005801790000017900000520000003NN  NNW 000                       N    
RDG08511900WATRL000000004K00000000000003242014507232015082742N000000000000N40       000160400K 10000000010000003214           
CUS0851190000108004254002         GAIMARO GABRIEL OSCA3160 RYERSON CIR                        000N        CARE OF             
MTR08511900001000000000000000RA              10012730    005801800000018000000570000003NN  NNW 000                       N    
RDG08511900WATRL000000004K00000000000000617014607232015082838N000000000000N40       000560400K 10000000010000000597           
CUS0851190000108004255009         BYRD CHARLES WESLEY 3162 RYERSON CIR                        000N        CARE OF             
MTR08511900001000000000000000RA              01070779    005801810000018100000610000003NN  NNW 000                       N    
RDG08511900WATRL000000004K00000000000001231014707232015082920N000000000000N40       000420400K 10000000010000001226           
CUS0851190000108004256007         ROACH PAUL D        3164 RYERSON CIR                        000N        CARE OF             
MTR08511900001000000000000000RA              10005892    005801820000018200000570000003NN  NNW 000                       N    
RDG08511900WATRL000000004K00000000000000500014807232015083004N000000000000N40       000440400K 10000000010000000483           
CUS0851190000108004257005         THOMAS DEBORAH L    3166 RYERSON CIR                        000N        CARE OF             
MTR08511900001000000000000000RA              01070776    005801830000018300000610000003NN  NNW 000                       N    
RDG08511900WATRL000000004K00000000000001268014907232015083013N000000000000N40       000090400K 10000000010000001250           
CUS0851190000108004258003         TRACY D. BUSCEMI    3168 RYERSON CIR                        000N        CARE OF             
MTR08511900001000000000000000RA              75614828    005801840000018400000350000003NN  NNW 000                       N    
RDG08511900WATRL000000004K00000000000000071015007232015083104N000000000000N40       000510400K 10000000010000000064           
CUS0851190000108004259001         DOMINGUE MARY R     3170 RYERSON CIR                        000N        CARE OF             
MTR08511900001000000000000000RA              01084744    005801850000018500000610000003NN  NNW 000                       N    
RDG08511900WATRL000000004K00000000000000856015107232015083111N000000000000N40       000070400K 10000000010000000847           
CUS0851190000108004260009         SNYDER LINDA LEE    3200 RYERSON CIR                        000N        CARE OF             
MTR08511900001000000000000000RA              36687574    005801860000018600000520000003NN  NNW 000                       N    
RDG08511900WATRL000000004K00000000000002961015207232015083312N000000000001N40       000190400K 10000000010000002904           
CUS0851190000108004261007         GOTH ROBERT W,JR    3202 RYERSON CIR                        000N        CARE OF             
MTR08511900001000000000000000RA              00130525    005801870000018700000570000003NN  NNW 000                       N    
RDG08511900WATRL000000004K00000000000001318015307232015083420N000000000000N40       000680400K 10000000010000001299           
CUS0851190000108004262005         VICKI EISENHARDT    3204 RYERSON CIR                        000N        CARE OF             
MTR08511900001000000000000000RA              44178324    005801880000018800000520000003NN  NNW 000                       N    
RDG08511900WATRL000000004K00000000000003012015407232015083425N000000000000N40       000050400K 10000000010000002989           
CUS0851190000108004263003         SMITH CHAD STEWART  3206 RYERSON CIR                        000N        CARE OF             
MTR08511900001000000000000000RA              45377515    005801890000018900000520000003NN  NNW 000                       N    
RDG08511900WATRL000000004K00000000000002225015507232015083508N000000000000N40       000430400K 10000000010000002214           
CUS0851190000108004264001         FRANZ JOHN PETER    3208 RYERSON CIR                        000N        CARE OF             
MTR08511900001000000000000000RA              45375703    005801900000019000000520000003NN  NNW 000                       N    
RDG08511900WATRL000000004K00000000000001870015607232015083605N000000000000N40       000570400K 10000000010000001855           
CUS0851190000108004265008         MILLER JAY EDWARD   3210 RYERSON CIR                        000N        CARE OF             
MTR08511900001000000000000000RA              45375704    005801910000019100000520000003NN  NNW 000                       N    
RDG08511900WATRL000000004K00000000000001769015707232015083609N000000000000N40       000040400K 10000000010000001756           
CUS0851190000108004266006         DUNSMORE RAYMOND L,J3212 RYERSON CIR                        000N        CARE OF             
MTR08511900001000000000000000RA              44178329    005801920000019200000520000003NN  NNW 000                       N    
RDG08511900WATRL000000004K00000000000002081015807232015083636N000000000000N40       000270400K 10000000010000002071           
CUS0851190000108004267004         WHITE DONALD E      3214 RYERSON CIR                        000N        CARE OF             
MTR08511900001000000000000000RA              36688519    005801930000019300000520000003NN  NNW 000                       N    
RDG08511900WATRL000000004K00000000000003660015907232015083723N000000000000N40       000470400K 10000000010000003639           
CUS0851190000108004268002         LYNN ROBERT FRANCIS 3216 RYERSON CIR                        000N        CARE OF             
MTR08511900001000000000000000RA              10008093    005801940000019400000570000003NN  NNW 000                       N    
RDG08511900WATRL000000004K00000000000000271016007282015074654O000000000010N80       000050400K 10000000010000000266           
CUS0851190000108004269000         SMITH MICHAEL FRANCI3218 RYERSON CIR                        000N        CARE OF             
MTR08511900001000000000000000RA              00131180    005801950000019500000570000003NN  NNW 000                       N    
RDG08511900WATRL000000004K00000000000000501016107232015083813N000400000010N40       000450400K 10000000010000000499           
CUS0851190000108004270008         RANDALL THOMAS,3RD  3220 RYERSON CIR                        000N        CARE OF             
MTR08511900001000000000000000RA              41259281    005801960000019600000520000003NN  NNW 000                       N    
RDG08511900WATRL000000004K00000000000002708016207232015083837N000000000000N40       000240400K 10000000010000002648           
CUS0851190000108004271006         MEYERS JAMES L,SR   3222 RYERSON CIR                        000N        CARE OF             
MTR08511900001000000000000000RA              01115820    005801970000019700000610000003NN  NNW 000                       N    
RDG08511900WATRL000000004K00000000000000615016307232015083946N000100000010N40       000690400K 10000000010000000615           
CUS0851190000108004272004         LEWIS JOHN A        3224 RYERSON CIR                        000N        CARE OF             
MTR08511900001000000000000000RA              01115927    005801980000019800000610000003NN  NNW 000                       N    
RDG08511900WATRL000000004K00000000000001095016407232015084003N000000000000N40       000170400K 10000000010000001080           
CUS0851190000108004273002         ALIMO ROSINA J      3226 RYERSON CIR                        000N        CARE OF             
MTR08511900001000000000000000RA              23841237    005801990000019900000520000003NN  NNW 000                       N    
RDG08511900WATRL000000004K00000000000004683016507232015084159N000000000010N40       001160400K 10000000010000004657           
CUS0851190000108004274000         KILMON DONALD       3228 RYERSON CIR                        000N        CARE OF             
MTR08511900001000000000000000RA              46880918    005802000000020000000520000003NN  NNW 000                       N    
RDG08511900WATRL000000004K00000000000001913016607232015084232N000000000000N40       000330400K 10000000010000001888           
CUS0851190000108004275007         VICTOR MEDINA       3230 RYERSON CIR                        000N        CARE OF             
MTR08511900001000000000000000RA              23644449    005802010000020100000520000003NN  NNW 000                       N    
RDG08511900WATRL000000004K00000000000004416016807232015084400N000000000010N40       000260400K 10000000010000004378           
CUS0851190000108004276005         POTEAT JASON A      3232 RYERSON CIR                        000N        CARE OF             
MTR08511900001000000000000000RA              14926650    005802020000020200000310000003NN  NNW 000                       N    
RDG08511900WATRL000000004K00000000000000563016707232015084334N000000000000N40       000620400K 10000000010000000552           
CUS0851190000108004277003         DORSEY RYAN MILES   3234 RYERSON CIR                        000N        CARE OF             
MTR08511900001000000000000000RA              50789198    005802030000020300000520000003NN  NNW 000                       N    
RDG08511900WATRL000000004K00000000000001159016907232015084524N000000000000N40       000840400K 10000000010000001147           
CUS0851190000108004278001         GIANNINO FRANK V    3236 RYERSON CIR                        000N        CARE OF             
MTR08511900001000000000000000RA              50789203    005802040000020400000520000003NN  NNW 000                       N    
RDG08511900WATRL000000004K00000000000000898017007232015084544N000000000000N40       000200400K 10000000010000000879           
CUS0851190000108004279009         GOLLICK JACK BERWYN,3238 RYERSON CIR                        000N        CARE OF             
MTR08511900001000000000000000RA              48593604    005802050000020500000520000003NN  NNW 000                       N    
RDG08511900WATRL000000004K00000000000002877017107232015084712N000000000000N40       000880400K 10000000010000002847           
CUS0851190000108004280007         COATES MARK E       3240 RYERSON CIR                        000N        CARE OF             
MTR08511900001000000000000000RA              27814396    005802060000020600000520000003NN  NNW 000                       N    
RDG08511900WATRL000000004K00000000000006315017207232015084758N000000000000N40       000460400K 10000000010000006271           
CUS0851190000108004281005         TARLETON WILLIAM J  3242 RYERSON CIR                        000N        CARE OF             
MTR08511900001000000000000000RA              76347554    005802070000020700000350000003NN  NNW 000                       N    
RDG08511900WATRL000000004K00000000000000076017307232015084804N000000000000N40       000060400K 10000000010000000059           
CUS0851190000108004282003         WATTS CLIFTON WAYNE 3244 RYERSON CIR                        000N        CARE OF             
MTR08511900001000000000000000RA              99290420    005802080000020800000570000003NN  NNW 000                       N    
RDG08511900WATRL000000004K00000000000000920017507232015084924N000000000000N40       000190400K 10000000010000000914           
CUS0851190000108004283001         HONAKER JESSE R     3246 RYERSON CIR                        000N        CARE OF             
MTR08511900001000000000000000RA              99290414    005802090000020900000570000003NN  NNW 000                       N    
RDG08511900WATRL000000004K00000000000001275017407232015084905N000000000000N40       000610400K 10000000010000001257           
CUS0851190000108004284009         CHRISOVERGIS CONSTAN3248 RYERSON CIR                        000N        CARE OF             
MTR08511900001000000000000000RA              48585831    005802100000021000000520000003NY  NNW 000                       N    
MTM0851190048585831    CLOUDY DIAL CLEAN OUT                                                                                  
RDG08511900WATRL000000004K00000000000001275017607232015085220N000000000010N40       001760400K 10000000010000001264           
CUS0851190000108004285006         KRESS, TERESA G     3250 RYERSON CIR                        000N        CARE OF             
MTR08511900001000000000000000RA              41081779    005802110000021100000520000003NN  NNW 000                       N    
RDG08511900WATRL000000004K00000000000004008017707232015085326N000000000000N40       000660400K 10000000010000003983           
CUS0851190000108004286004         HOU XIU YAN         3252 RYERSON CIR                        000N        CARE OF             
MTR08511900001000000000000000RA              41081781    005802120000021200000520000003NN  NNW 000                       N    
RDG08511900WATRL000000004K00000000000003145017807232015085335N000000000000N40       000090400K 10000000010000003126           
CUS0851190000108004287002         MEYER STEVEN R      3254 RYERSON CIR                        000N        CARE OF             
MTR08511900001000000000000000RA              24228382    005802130000021300000520000003NN  NNW 000                       N    
RDG08511900WATRL000000004K00000000000003398017907232015085413N000000000000N40       000380400K 10000000010000003387           
CUS0851190000108004288000         TAUBER KAILYN P     3256 RYERSON CIR                        000N        CARE OF             
MTR08511900001000000000000000RA              77889007    005802140000021400000360000003NN  NNW 000                       N    
RDG08511900WATRL000000004K00000000000000000018007232015085416S001000000000N40       000030400K 10000000010000000000           
CUS0851190000108004289008         POWELL TAMIKA       3258 RYERSON CIR                        000N        CARE OF             
MTR08511900001000000000000000RA              99189400    005802150000021500000570000003NN  NNW 000                       N    
RDG08511900WATRL000000004K00000000000001072018107232015085506N000000000000N40       000500400K 10000000010000001059           
CUS0851190000108004290006         BROOKS WILLIAM L  BR3260 RYERSON CIR                        000N        CARE OF             
MTR08511900001000000000000000RA              01084828    005802160000021600000610000003NN  NNW 000                       N    
RDG08511900WATRL000000004K00000000000000920018207232015085515N000000000000N40       000090400K 10000000010000000904           
CUS0851190000108004291004         HABERKORN ROBERT W  3300 RYERSON CIR                        000N        CARE OF             
MTR08511900001000000000000000RA              50789201    005802170000021700000520000003NN  NNW 000                       N    
RDG08511900WATRL000000004K00000000000000603018307232015085633N000000000000N40       000780400K 10000000010000000597           
CUS0851190000108004292002         NORTON ROBERT P     3302 RYERSON CIR                        000N        CARE OF             
MTR08511900001000000000000000RA              41089852    005802180000021800000520000003NN  NNW 000                       N    
RDG08511900WATRL000000004K00000000000001346018407232015085649N000000000010N40       000160400K 10000000010000001338           
CUS0851190000108004293000         WELLMAN LEONARD LEE,3304 RYERSON CIR                        000N        CARE OF             
MTR08511900001000000000000000RA              99999999    005802190000021900000620000003NN  NNW 000                       N    
RDG08511900WATRL000000004K00000000000000000018607232015090054S002000000000N40       001740400K 10000000010000000026           
CUS0851190000108004294008         WEEDON SHARON V     3306 RYERSON CIR                        000N        CARE OF             
MTR08511900001000000000000000RA              01094365    005802200000022000000610000003NN  NNW 000                       N    
RDG08511900WATRL000000004K00000000000000821018507232015085800N000000000000N40       000710400K 10000000010000000811           
CUS0851190000108004295005         NELSON ROBERT       3308 RYERSON CIR                        000N        CARE OF             
MTR08511900001000000000000000RA              10009819    005802210000022100000570000003NN  NNW 000                       N    
RDG08511900WATRL000000004K00000000000000182018707232015090206N000000000000N40       000720400K 10000000010000000170           
CUS0851190000108004296003         MOREL JOHN A        3310 RYERSON CIR                        000N        CARE OF             
MTR08511900001000000000000000RA              01070218    005802220000022200000610000003NN  NNW 000                       N    
RDG08511900WATRL000000004K00000000000000537018807232015090215N000000000000N40       000090400K 10000000010000000532           
CUS0851190000108004297001         HAWKINS ROCKFORD L  3312 RYERSON CIR                        000N        CARE OF             
MTR08511900001000000000000000RA              24765789    005802230000022300000520000003NN  NNW 000                       N    
RDG08511900WATRL000000004K00000000000007643018907232015090327N000000000000N40       000720400K 10000000010000007601           
CUS0851190000108004298009         MORRIS JEROME CARROL3314 RYERSON CIR                        000N        CARE OF             
MTR08511900001000000000000000RA              23645607    005802240000022400000520000003NN  NNW 000                       N    
RDG08511900WATRL000000004K00000000000005304019007232015090338N000000000000N40       000110400K 10000000010000005292           
CUS0851190000108004299007         LINDEMANN MAE       3316 RYERSON CIR                        000N        CARE OF             
MTR08511900001000000000000000RA              46875538    005802250000022500000520000003NN  NNW 000                       N    
RDG08511900WATRL000000004K00000000000003357019107232015090440N000000000000N40       000620400K 10000000010000003323           
CUS0851190000108004300003         KRAMER WAYNE BRUCE  3318 RYERSON CIR                        000N        CARE OF             
MTR08511900001000000000000000RA              29403104    005802260000022600000520000003NN  NNW 000                       N    
RDG08511900WATRL000000004K00000000000002805019207232015090523N000000000010N40       000430400K 10000000010000002795           
CUS0851190000108004301001         EASTIN JUDITH A     3320 RYERSON CIR                        000N        CARE OF             
MTR08511900001000000000000000RA              46875555    005802270000022700000520000003NN  NNW 000                       N    
RDG08511900WATRL000000004K00000000000001433019307232015090600N000000000000N40       000370400K 10000000010000001423           
CUS0851190000108004302009         MCLAUGHLIN VICTORIA 3322 RYERSON CIR                        000N        CARE OF             
MTR08511900001000000000000000RA              46875548    005802280000022800000520000003NN  NNW 000                       N    
RDG08511900WATRL000000004K00000000000002520019407232015090618N000000000000N40       000180400K 10000000010000002507           
CUS0851190000108004303007         SMITH GOLDIE E      3160 SHILOH CT                          000N        CARE OF             
MTR08511900001000000000000000RA              11427761    005802290000022900000570000000NY  NNW 000                       N    
MTM0851190011427761    HIGH READ INVESTIGATE                                                                                  
RDG08511900WATRL000000004K00000000000004625019508032015150740O000400000020N80       003710400K 10000000010000004616           
CUS0851190000108004304005         SADLER ROBERT,JR    3162 SHILOH CT                          000N        CARE OF             
MTR08511900001000000000000000RA              00140199    005802300000023000000570000003NN  NNW 000                       N    
RDG08511900WATRL000000004K00000000000001484019607232015091302N000000000000N40       000330400K 10000000010000001461           
CUS0851190000108004305002         DONIECKI EDWARD J   3164 SHILOH CT                          000N        CARE OF             
MTR08511900001000000000000000RA              00140200    005802310000023100000570000003NN  NNW 000                       N    
RDG08511900WATRL000000004K00000000000001470019707232015091305N000000000000N40       000030400K 10000000010000001445           
CUS0851190000108004306000         DONIECKI AUGUST JOHN3166 SHILOH CT                          000N        CARE OF             
MTR08511900001000000000000000RA              23647201    005802320000023200000520000000NN  NNW 000                       N    
RDG08511900WATRL000000004K00000000000005475019807232015091336N000400000010N40       000310400K 10000000010000005440           
CUS0851190000108004307008         FRANCE JOE          3168 SHILOH CT                          000N        CARE OF             
MTR08511900001000000000000000RA              45375702    005802330000023300000520000003NN  NNW 000                       N    
RDG08511900WATRL000000004K00000000000001438019907232015091340N000000000000N40       000040400K 10000000010000001399           
CUS0851190000108004308006         COOMES SUSAN M      3170 SHILOH CT                          000N        CARE OF             
MTR08511900001000000000000000RA              33080344    005802340000023400000520000003NN  NNW 000                       N    
RDG08511900WATRL000000004K00000000000002448020007232015091403N000000000000N40       000230400K 10000000010000002442           
CUS0851190000108004309004         DRURY RICHARD E     3172 SHILOH CT                          000N        CARE OF             
MTR08511900001000000000000000RA              33080410    005802350000023500000520000003NN  NNW 000                       N    
RDG08511900WATRL000000004K00000000000003471020107232015091406N000000000000N40       000030400K 10000000010000003443           
CUS0851190000108004310002         MILLER CHRISTOPHER J3174 SHILOH CT                          000N        CARE OF             
MTR08511900001000000000000000RA              36689366    005802360000023600000520000000NN  NNW 000                       N    
RDG08511900WATRL000000004K00000000000002480020207232015091427N000000000000N40       000210400K 10000000010000002466           
CUS0851190000108004311000         SEAWIND PROPERTIES, 3176 SHILOH CT                          000N        CARE OF             
MTR08511900001000000000000000RA              44175317    005802370000023700000520000003NN  NNW 000                       N    
RDG08511900WATRL000000004K00000000000002484020307232015091433N000000000000N40       000060400K 10000000010000002415           
CUS0851190000108004312008         MCQUAID PHILIP J    3178 SHILOH CT                          000N        CARE OF             
MTR08511900001000000000000000RA              35111186    005802380000023800000520000000NN  NNW 000                       N    
RDG08511900WATRL000000004K00000000000003038020407232015091457N000300000010N40       000240400K 10000000010000003005           
CUS0851190000108004313006         GOTH ROBERT W,JR    3180 SHILOH CT                          000N        CARE OF             
MTR08511900001000000000000000RA              48585238    005802390000023900000520000000NN  NNW 000                       N    
RDG08511900WATRL000000004K00000000000001681020507232015091501N000000000000N40       000040400K 10000000010000001656           
CUS0851190000108004314004         ANDERSON LLOYD O/CAT3179 SHILOH CT                          000N        CARE OF             
MTR08511900001000000000000000RA              45382000    005802400000024000000520000003NN  NNW 000                       N    
RDG08511900WATRL000000004K00000000000001396020607232015091540N000000000000N40       000390400K 10000000010000001382           
CUS0851190000108004315001         CHANDLEE SUSAN M    3177 SHILOH CT                          000N        CARE OF             
MTR08511900001000000000000000RA              45382002    005802410000024100000520000003NN  NNW 000                       N    
RDG08511900WATRL000000004K00000000000001994020707232015091546N000000000000N40       000060400K 10000000010000001988           
CUS0851190000108004316009         MERRITT ROLAND J,JR 3175 SHILOH CT                          000N        CARE OF             
MTR08511900001000000000000000RA              45382005    005802420000024200000520000003NN  NNW 000                       N    
RDG08511900WATRL000000004K00000000000000853020807232015091616N000000000000N40       000300400K 10000000010000000853           
CUS0851190000108004317007         SHAJI THEKKINIATH   3173 SHILOH CT                          000N        CARE OF             
MTR08511900001000000000000000RA              00140202    005802430000024300000570000003NN  NNW 000                       N    
RDG08511900WATRL000000004K00000000000001026020907232015091653N000000000000N40       000370400K 10000000010000001007           
CUS0851190000108004318005         ROGERS MARY         3171 SHILOH CT                          000N        CARE OF             
MTR08511900001000000000000000RA              01070196    005802440000024400000610000003NN  NNW 000                       N    
RDG08511900WATRL000000004K00000000000001078021007232015091659N000000000000N40       000060400K 10000000010000001057           
CUS0851190000108004319003         SARITA THAPA RAYAMAJ3169 SHILOH CT                          000N        CARE OF             
MTR08511900001000000000000000RA              45382001    005802450000024500000520000003NN  NNW 000                       N    
RDG08511900WATRL000000004K00000000000002419021107232015091721N000000000000N40       000220400K 10000000010000002407           
CUS0851190000108004320001         LEWALD THOMAS W,JR  3167 SHILOH CT                          000N        CARE OF             
MTR08511900001000000000000000RA              45382004    005802460000024600000520000003NN  NNW 000                       N    
RDG08511900WATRL000000004K00000000000001828021207232015091725N000000000000N40       000040400K 10000000010000001810           
CUS0851190000108004321009         DONIECKI EDWARD J   3165 SHILOH CT                          000N        CARE OF             
MTR08511900001000000000000000RA              44173476    005802470000024700000520000003NN  NNW 000                       N    
RDG08511900WATRL000000004K00000000000003177021307232015091800N000000000000N40       000350400K 10000000010000003168           
CUS0851190000108004322007         EDNA CUNHA ANDERSON 3163 SHILOH CT                          000N        CARE OF             
MTR08511900001000000000000000RA              44173516    005802480000024800000520000003NN  NNW 000                       N    
RDG08511900WATRL000000004K00000000000001371021407232015091806N000400000010N40       000060400K 10000000010000001370           
CUS0851190000108004323005         CONCORD PROPERTY MGM3161 SHILOH CT                          000N        CARE OF             
MTR08511900001000000000000000RA              33082466    005802490000024900000520000003NN  NNW 000                       N    
RDG08511900WATRL000000004K00000000000003298021507232015091859N000000000000N40       000530400K 10000000010000003275           
CUS0851190000108005099000         LOCHARY JAMES B     3161 KESSLER RD                         000N        CARE OF             
MTR08511900001000000000000000RA              24233829    005802500000025000000520000003NN  NNW 000                       N    
RDG08511900WATRL000000004K00000000000004564024807232015093259N000000000000N40       000820400K 10000000010000004552           
CUS0851190000108005098002         KARCHER STACY       3163 KESSLER RD                         000N        CARE OF             
MTR08511900001000000000000000RA              24233824    005802510000025100000520000003NN  NNW 000                       N    
RDG08511900WATRL000000004K00000000000003983024907232015093428N000000000000N40       000890400K 10000000010000003963           
CUS0851190000108005097004         JESSICA WOODLAND    3165 KESSLER RD                         000N        CARE OF             
MTR08511900001000000000000000RA              14900090    005802520000025200000310000003NN  NNW 000                       N    
RDG08511900WATRL000000004K00000000000000829025007232015093433N000000000000N40       000050400K 10000000010000000792           
CUS0851190000108005096006         LUCKE EUGENE        3167 KESSLER RD                         000N        CARE OF             
MTR08511900001000000000000000RA              26006198    005802530000025300000520000003NN  NNW 000                       N    
RDG08511900WATRL000000004K00000000000002216025107232015093525N000000000000N40       000520400K 10000000010000002203           
CUS0851190000108005095008         KLEMKOWSKI HENRY W  3169 KESSLER RD                         000N        CARE OF             
MTR08511900001000000000000000RA              26006185    005802540000025400000520000003NN  NNW 000                       N    
RDG08511900WATRL000000004K00000000000003880025207232015093537N000000000000N40       000120400K 10000000010000003855           
CUS0851190000108005094001         HORAN JOHN R        3171 KESSLER RD                         000N        CARE OF             
MTR08511900001000000000000000RA              48586070    005802550000025500000520000003NN  NNW 000                       N    
RDG08511900WATRL000000004K00000000000001778025307232015093614N000000000000N40       000370400K 10000000010000001764           
CUS0851190000108005093003         PHILLIPS ELIZABETH A3173 KESSLER RD                         000N        CARE OF             
MTR08511900001000000000000000RA              26006181    005802560000025600000520000003NN  NNW 000                       N    
RDG08511900WATRL000000004K00000000000003241025407232015093620N000000000000N40       000060400K 10000000010000003241           
CUS0851190000108005092005         PORTERFIELD JOYCE   444 LAMBERT CT                          000N        CARE OF             
MTR08511900001000000000000000RA              24234494    005802570000025700000520000003NN  NNW 000                       N    
RDG08511900WATRL000000004K00000000000002875025507232015093806N000000000020N40       001060400K 10000000010000002837           
CUS0851190000108005091007         ROSE MELVIN J       446 LAMBERT CT                          000N        CARE OF             
MTR08511900001000000000000000RA              23050043    005802580000025800000520000003NN  NNW 000                       N    
RDG08511900WATRL000000004K00000000000003710025607232015093855N000000000000N40       000490400K 10000000010000003695           
CUS0851190000108005090009         FINK CAROL ANN      448 LAMBERT CT                          000N        CARE OF             
